{
  "address": "0xD2683E22331B9a6e9F38350d829dBEB64ad2778e",
  "abi": [
    {
      "inputs": [],
      "name": "CallerNotOperator",
      "type": "error"
    },
    {
      "inputs": [],
      "name": "InvalidInputs",
      "type": "error"
    },
    {
      "inputs": [
        {
          "internalType": "string",
          "name": "name",
          "type": "string"
        }
      ],
      "name": "MissingAddress",
      "type": "error"
    },
    {
      "inputs": [
        {
          "internalType": "bytes32",
          "name": "role",
          "type": "bytes32"
        },
        {
          "internalType": "address",
          "name": "account",
          "type": "address"
        }
      ],
      "name": "NotAllowedAccess",
      "type": "error"
    },
    {
      "inputs": [
        {
          "internalType": "string",
          "name": "name",
          "type": "string"
        }
      ],
      "name": "OnlyAcceptedContract",
      "type": "error"
    },
    {
      "inputs": [],
      "name": "ResolverAlreadyRegistered",
      "type": "error"
    },
    {
      "inputs": [
        {
          "internalType": "address",
          "name": "target",
          "type": "address"
        },
        {
          "internalType": "uint256",
          "name": "values",
          "type": "uint256"
        },
        {
          "internalType": "bytes",
          "name": "data",
          "type": "bytes"
        }
      ],
      "name": "TransactionFailed",
      "type": "error"
    },
    {
      "anonymous": false,
      "inputs": [
        {
          "indexed": false,
          "internalType": "bytes32",
          "name": "name",
          "type": "bytes32"
        },
        {
          "indexed": false,
          "internalType": "address",
          "name": "destination",
          "type": "address"
        }
      ],
      "name": "CacheUpdated",
      "type": "event"
    },
    {
      "anonymous": false,
      "inputs": [
        {
          "indexed": false,
          "internalType": "uint8",
          "name": "version",
          "type": "uint8"
        }
      ],
      "name": "Initialized",
      "type": "event"
    },
    {
      "anonymous": false,
      "inputs": [
        {
          "indexed": true,
          "internalType": "address",
          "name": "previousOwner",
          "type": "address"
        },
        {
          "indexed": true,
          "internalType": "address",
          "name": "newOwner",
          "type": "address"
        }
      ],
      "name": "OwnershipTransferred",
      "type": "event"
    },
    {
      "anonymous": false,
      "inputs": [
        {
          "indexed": false,
          "internalType": "address",
          "name": "account",
          "type": "address"
        }
      ],
      "name": "Pause",
      "type": "event"
    },
    {
      "anonymous": false,
      "inputs": [
        {
          "indexed": true,
          "internalType": "bytes32",
          "name": "role",
          "type": "bytes32"
        },
        {
          "indexed": true,
          "internalType": "bytes32",
          "name": "previousAdminRole",
          "type": "bytes32"
        },
        {
          "indexed": true,
          "internalType": "bytes32",
          "name": "newAdminRole",
          "type": "bytes32"
        }
      ],
      "name": "RoleAdminChanged",
      "type": "event"
    },
    {
      "anonymous": false,
      "inputs": [
        {
          "indexed": true,
          "internalType": "bytes32",
          "name": "role",
          "type": "bytes32"
        },
        {
          "indexed": true,
          "internalType": "address",
          "name": "account",
          "type": "address"
        },
        {
          "indexed": true,
          "internalType": "address",
          "name": "sender",
          "type": "address"
        }
      ],
      "name": "RoleGranted",
      "type": "event"
    },
    {
      "anonymous": false,
      "inputs": [
        {
          "indexed": true,
          "internalType": "bytes32",
          "name": "role",
          "type": "bytes32"
        },
        {
          "indexed": true,
          "internalType": "address",
          "name": "account",
          "type": "address"
        },
        {
          "indexed": true,
          "internalType": "address",
          "name": "sender",
          "type": "address"
        }
      ],
      "name": "RoleRevoked",
      "type": "event"
    },
    {
      "anonymous": false,
      "inputs": [
        {
          "indexed": false,
          "internalType": "address",
          "name": "from",
          "type": "address"
        },
        {
          "indexed": false,
          "internalType": "address",
          "name": "target",
          "type": "address"
        },
        {
          "indexed": false,
          "internalType": "uint256",
          "name": "value",
          "type": "uint256"
        },
        {
          "indexed": false,
          "internalType": "bytes",
          "name": "data",
          "type": "bytes"
        }
      ],
      "name": "TransactionExecuted",
      "type": "event"
    },
    {
      "anonymous": false,
      "inputs": [
        {
          "indexed": false,
          "internalType": "address",
          "name": "account",
          "type": "address"
        }
      ],
      "name": "Unpause",
      "type": "event"
    },
    {
      "inputs": [],
      "name": "DEFAULT_ADMIN_ROLE",
      "outputs": [
        {
          "internalType": "bytes32",
          "name": "",
          "type": "bytes32"
        }
      ],
      "stateMutability": "view",
      "type": "function"
    },
    {
      "inputs": [],
      "name": "OPERATOR_ROLE",
      "outputs": [
        {
          "internalType": "bytes32",
          "name": "",
          "type": "bytes32"
        }
      ],
      "stateMutability": "view",
      "type": "function"
    },
    {
      "inputs": [
        {
          "internalType": "address",
          "name": "admin",
          "type": "address"
        }
      ],
      "name": "addOperator",
      "outputs": [],
      "stateMutability": "nonpayable",
      "type": "function"
    },
    {
      "inputs": [],
      "name": "buildCache",
      "outputs": [],
      "stateMutability": "nonpayable",
      "type": "function"
    },
    {
      "inputs": [
        {
          "internalType": "bytes32",
          "name": "_ccy",
          "type": "bytes32"
        },
        {
          "internalType": "uint256",
          "name": "_amount",
          "type": "uint256"
        }
      ],
      "name": "deposit",
      "outputs": [],
      "stateMutability": "payable",
      "type": "function"
    },
    {
      "inputs": [
        {
          "internalType": "address",
          "name": "_target",
          "type": "address"
        },
        {
          "internalType": "bytes",
          "name": "_data",
          "type": "bytes"
        }
      ],
      "name": "executeTransaction",
      "outputs": [],
      "stateMutability": "payable",
      "type": "function"
    },
    {
      "inputs": [
        {
          "internalType": "address[]",
          "name": "_targets",
          "type": "address[]"
        },
        {
          "internalType": "uint256[]",
          "name": "_values",
          "type": "uint256[]"
        },
        {
          "internalType": "bytes[]",
          "name": "_data",
          "type": "bytes[]"
        }
      ],
      "name": "executeTransactions",
      "outputs": [],
      "stateMutability": "nonpayable",
      "type": "function"
    },
    {
      "inputs": [],
      "name": "getRevision",
      "outputs": [
        {
          "internalType": "uint256",
          "name": "",
          "type": "uint256"
        }
      ],
      "stateMutability": "pure",
      "type": "function"
    },
    {
      "inputs": [
        {
          "internalType": "bytes32",
          "name": "role",
          "type": "bytes32"
        }
      ],
      "name": "getRoleAdmin",
      "outputs": [
        {
          "internalType": "bytes32",
          "name": "",
          "type": "bytes32"
        }
      ],
      "stateMutability": "view",
      "type": "function"
    },
    {
      "inputs": [
        {
          "internalType": "bytes32",
          "name": "role",
          "type": "bytes32"
        },
        {
          "internalType": "address",
          "name": "account",
          "type": "address"
        }
      ],
      "name": "grantRole",
      "outputs": [],
      "stateMutability": "nonpayable",
      "type": "function"
    },
    {
      "inputs": [
        {
          "internalType": "bytes32",
          "name": "role",
          "type": "bytes32"
        },
        {
          "internalType": "address",
          "name": "account",
          "type": "address"
        }
      ],
      "name": "hasRole",
      "outputs": [
        {
          "internalType": "bool",
          "name": "",
          "type": "bool"
        }
      ],
      "stateMutability": "view",
      "type": "function"
    },
    {
      "inputs": [
        {
          "internalType": "address",
          "name": "_owner",
          "type": "address"
        },
        {
          "internalType": "address",
          "name": "_resolver",
          "type": "address"
        },
        {
          "internalType": "address",
          "name": "_nativeToken",
          "type": "address"
        }
      ],
      "name": "initialize",
      "outputs": [],
      "stateMutability": "nonpayable",
      "type": "function"
    },
    {
      "inputs": [],
      "name": "isPaused",
      "outputs": [
        {
          "internalType": "bool",
          "name": "",
          "type": "bool"
        }
      ],
      "stateMutability": "view",
      "type": "function"
    },
    {
      "inputs": [],
      "name": "isResolverCached",
      "outputs": [
        {
          "internalType": "bool",
          "name": "",
          "type": "bool"
        }
      ],
      "stateMutability": "view",
      "type": "function"
    },
    {
      "inputs": [],
      "name": "owner",
      "outputs": [
        {
          "internalType": "address",
          "name": "",
          "type": "address"
        }
      ],
      "stateMutability": "view",
      "type": "function"
    },
    {
      "inputs": [],
      "name": "pause",
      "outputs": [],
      "stateMutability": "nonpayable",
      "type": "function"
    },
    {
      "inputs": [
        {
          "internalType": "address",
          "name": "admin",
          "type": "address"
        }
      ],
      "name": "removeOperator",
      "outputs": [],
      "stateMutability": "nonpayable",
      "type": "function"
    },
    {
      "inputs": [],
      "name": "renounceOwnership",
      "outputs": [],
      "stateMutability": "nonpayable",
      "type": "function"
    },
    {
      "inputs": [
        {
          "internalType": "bytes32",
          "name": "role",
          "type": "bytes32"
        },
        {
          "internalType": "address",
          "name": "account",
          "type": "address"
        }
      ],
      "name": "renounceRole",
      "outputs": [],
      "stateMutability": "pure",
      "type": "function"
    },
    {
      "inputs": [],
      "name": "requiredContracts",
      "outputs": [
        {
          "internalType": "bytes32[]",
          "name": "contracts",
          "type": "bytes32[]"
        }
      ],
      "stateMutability": "pure",
      "type": "function"
    },
    {
      "inputs": [],
      "name": "resolver",
      "outputs": [
        {
          "internalType": "contract IAddressResolver",
          "name": "",
          "type": "address"
        }
      ],
      "stateMutability": "view",
      "type": "function"
    },
    {
      "inputs": [
        {
          "internalType": "bytes32",
          "name": "role",
          "type": "bytes32"
        },
        {
          "internalType": "address",
          "name": "account",
          "type": "address"
        }
      ],
      "name": "revokeRole",
      "outputs": [],
      "stateMutability": "nonpayable",
      "type": "function"
    },
    {
      "inputs": [
        {
          "internalType": "bytes4",
          "name": "interfaceId",
          "type": "bytes4"
        }
      ],
      "name": "supportsInterface",
      "outputs": [
        {
          "internalType": "bool",
          "name": "",
          "type": "bool"
        }
      ],
      "stateMutability": "view",
      "type": "function"
    },
    {
      "inputs": [
        {
          "internalType": "address",
          "name": "newOwner",
          "type": "address"
        }
      ],
      "name": "transferOwnership",
      "outputs": [],
      "stateMutability": "nonpayable",
      "type": "function"
    },
    {
      "inputs": [],
      "name": "unpause",
      "outputs": [],
      "stateMutability": "nonpayable",
      "type": "function"
    },
    {
      "inputs": [
        {
          "internalType": "bytes32",
          "name": "_ccy",
          "type": "bytes32"
        },
        {
          "internalType": "uint256",
          "name": "_amount",
          "type": "uint256"
        }
      ],
      "name": "withdraw",
      "outputs": [],
      "stateMutability": "nonpayable",
      "type": "function"
    },
    {
      "stateMutability": "payable",
      "type": "receive"
    }
  ],
  "transactionHash": "0xfcaa2fdf70dfe7d3af098e94d2c2b33e43541e4d5f758e9016ac6460623f2374",
  "args": [],
  "numDeployments": 6,
  "solcInputHash": "73110a1d619bc32510b17543e7136645",
  "bytecode": "0x608060405234801561001057600080fd5b506121d4806100206000396000f3fe6080604052600436106101855760003560e01c80636ca0f814116100d1578063a217fddf1161008a578063c0c53b8b11610064578063c0c53b8b14610403578063d547741f14610423578063f2fde38b14610443578063f5b541a61461046357600080fd5b8063a217fddf146103b9578063ac8a584a146103ce578063b187bd26146103ee57600080fd5b80636ca0f81414610327578063715018a61461033a5780638456cb591461034f5780638da5cb5b1461036457806391d14854146103795780639870d7fe1461039957600080fd5b8063248a9ca31161013e5780632f2ff15d116101185780632f2ff15d146102b057806336568abe146102d05780633d03b9da146102f05780633f4ba83a1461031257600080fd5b8063248a9ca31461026657806329985e5a146102865780632af64bd31461029b57600080fd5b806301ffc9a714610191578063040cf020146101c657806304f3bcec146101e857806312e8eaef146102155780631316529d146102355780631de26e161461025357600080fd5b3661018c57005b600080fd5b34801561019d57600080fd5b506101b16101ac366004611bd1565b610485565b60405190151581526020015b60405180910390f35b3480156101d257600080fd5b506101e66101e1366004611bfb565b6104bc565b005b3480156101f457600080fd5b506101fd61050a565b6040516001600160a01b0390911681526020016101bd565b34801561022157600080fd5b506101e6610230366004611c69565b610523565b34801561024157600080fd5b5060015b6040519081526020016101bd565b6101e6610261366004611bfb565b61064f565b34801561027257600080fd5b50610245610281366004611d03565b610690565b34801561029257600080fd5b506101e66106ae565b3480156102a757600080fd5b506101b1610827565b3480156102bc57600080fd5b506101e66102cb366004611d31565b610959565b3480156102dc57600080fd5b506101e66102eb366004611d31565b61097a565b3480156102fc57600080fd5b506103056109a5565b6040516101bd9190611d61565b34801561031e57600080fd5b506101e66109f7565b6101e6610335366004611da5565b610a7b565b34801561034657600080fd5b506101e6610aeb565b34801561035b57600080fd5b506101e6610b26565b34801561037057600080fd5b506101fd610ba4565b34801561038557600080fd5b506101b1610394366004611d31565b610bae565b3480156103a557600080fd5b506101e66103b4366004611e2a565b610be2565b3480156103c557600080fd5b50610245600081565b3480156103da57600080fd5b506101e66103e9366004611e2a565b610bfd565b3480156103fa57600080fd5b506101b1610c15565b34801561040f57600080fd5b506101e661041e366004611e47565b610c28565b34801561042f57600080fd5b506101e661043e366004611d31565b610dd5565b34801561044f57600080fd5b506101e661045e366004611e2a565b610e1a565b34801561046f57600080fd5b5061024560008051602061217f83398151915281565b60006001600160e01b03198216637965db0b60e01b14806104b657506301ffc9a760e01b6001600160e01b03198316145b92915050565b336104c5610ba4565b6001600160a01b0316146104f45760405162461bcd60e51b81526004016104eb90611e92565b60405180910390fd5b6105066104ff610eb7565b8383610ec6565b5050565b6000610514610fbc565b546001600160a01b0316919050565b3361052c610ba4565b6001600160a01b0316146105525760405162461bcd60e51b81526004016104eb90611e92565b84158061055f5750848114155b8061056a5750848314155b15610588576040516379a67d5b60e11b815260040160405180910390fd5b60005b85811015610646576106348787838181106105a8576105a8611ec7565b90506020020160208101906105bd9190611e2a565b8686848181106105cf576105cf611ec7565b905060200201358585858181106105e8576105e8611ec7565b90506020028101906105fa9190611edd565b8080601f016020809104026020016040519081016040528093929190818152602001838380828437600092019190915250610fea92505050565b8061063e81611f3a565b91505061058b565b50505050505050565b33610658610ba4565b6001600160a01b03161461067e5760405162461bcd60e51b81526004016104eb90611e92565b610506610689610eb7565b83836110a4565b600061069a61119f565b600092835260205250604090206001015490565b60006106b86109a5565b905060005b81518110156105065760008282815181106106da576106da611ec7565b6020026020010151905060006106ee610fbc565b54604080517f5265736f6c766572206d697373696e67207461726765743a200000000000000060208201526039808201869052825180830390910181526059820192839052636795dbcd60e01b9092526001600160a01b0390921691636795dbcd9161075f91869190605d01611fa3565b602060405180830381865afa15801561077c573d6000803e3d6000fd5b505050506040513d601f19601f820116820180604052508101906107a09190611fc4565b9050806107ab610fbc565b6000848152600191909101602090815260409182902080546001600160a01b0319166001600160a01b039485161790558151858152928416908301527f88a93678a3692f6789d9546fc621bf7234b101ddb7d4fe479455112831b8aa68910160405180910390a15050808061081f90611f3a565b9150506106bd565b6000806108326109a5565b905060005b815181101561095057600082828151811061085457610854611ec7565b60200260200101519050610866610fbc565b600082815260019190910160205260409020546001600160a01b031661088a610fbc565b546040516321f8a72160e01b8152600481018490526001600160a01b03909116906321f8a72190602401602060405180830381865afa1580156108d1573d6000803e3d6000fd5b505050506040513d601f19601f820116820180604052508101906108f59190611fc4565b6001600160a01b031614158061092e57506000610910610fbc565b600083815260019190910160205260409020546001600160a01b0316145b1561093d576000935050505090565b508061094881611f3a565b915050610837565b50600191505090565b61096282610690565b61096b816111cd565b61097583836111d7565b505050565b604051631eb5512b60e31b8152600481018390526001600160a01b03821660248201526044016104eb565b6040805160018082528183019092526060916020808301908036833701905050905069151bdad95b95985d5b1d60b21b816000815181106109e8576109e8611ec7565b60200260200101818152505090565b610a0f60008051602061217f83398151915233610bae565b610a2c5760405163a5523ee560e01b815260040160405180910390fd5b6000610a3661124e565b805460ff19169115159190911790556040513381527faeb196d352664784d1900b0e7414a8face7d29f4dae8c4b0cf68ed477423bbf4906020015b60405180910390a1565b33610a84610ba4565b6001600160a01b031614610aaa5760405162461bcd60e51b81526004016104eb90611e92565b610975833484848080601f016020809104026020016040519081016040528093929190818152602001838380828437600092019190915250610fea92505050565b33610af4610ba4565b6001600160a01b031614610b1a5760405162461bcd60e51b81526004016104eb90611e92565b610b24600061127c565b565b610b3e60008051602061217f83398151915233610bae565b610b5b5760405163a5523ee560e01b815260040160405180910390fd5b6001610b6561124e565b805460ff19169115159190911790556040513381527f5ee71a369c8672edded508e624ffc9257fa1ae6886ef32905c18e60196bca39990602001610a71565b60006105146112e9565b6000610bb861119f565b6000938452602090815260408085206001600160a01b039490941685529290525090205460ff1690565b610bfa60008051602061217f83398151915282610959565b50565b610bfa60008051602061217f83398151915282610dd5565b6000610c1f61124e565b5460ff16919050565b600054610100900460ff1615808015610c485750600054600160ff909116105b80610c625750303b158015610c62575060005460ff166001145b610cc55760405162461bcd60e51b815260206004820152602e60248201527f496e697469616c697a61626c653a20636f6e747261637420697320616c72656160448201526d191e481a5b9a5d1a585b1a5e995960921b60648201526084016104eb565b6000805460ff191660011790558015610ce8576000805461ff0019166101001790555b6000610cf2611317565b6001600160a01b031603610d535760405162461bcd60e51b815260206004820152602260248201527f4d7573742062652063616c6c65642066726f6d2070726f787920636f6e74726160448201526118dd60f21b60648201526084016104eb565b6000610d5d61124e565b805460ff1916911515919091179055610d758361133f565b610d7f848361139b565b610d88846113ad565b8015610dcf576000805461ff0019169055604051600181527f7f26b83ff96e1f2b6a682f133852f6798a09c465da95921460cefb3847402498906020015b60405180910390a15b50505050565b336001600160a01b03821603610e1057604051631eb5512b60e31b8152600481018390526001600160a01b03821660248201526044016104eb565b61050682826113d0565b33610e23610ba4565b6001600160a01b031614610e495760405162461bcd60e51b81526004016104eb90611e92565b6001600160a01b038116610eae5760405162461bcd60e51b815260206004820152602660248201527f4f776e61626c653a206e6577206f776e657220697320746865207a65726f206160448201526564647265737360d01b60648201526084016104eb565b610bfa8161127c565b6000610ec16113ec565b905090565b6040516220678160e51b815260048101839052602481018290526001600160a01b0384169063040cf02090604401600060405180830381600087803b158015610f0e57600080fd5b505af1158015610f22573d6000803e3d6000fd5b5050604051630b12e44160e41b815260048101859052600092506001600160a01b038616915063b12e441090602401602060405180830381865afa158015610f6e573d6000803e3d6000fd5b505050506040513d601f19601f82011682018060405250810190610f929190611fc4565b9050610f9d81611404565b15610fb157610fac3383611425565b610dcf565b610dcf8133846114ee565b6000806104b660017f4abde63c3e81aefa5764b017968bc473e83e093d7e1a10247d19e0a3e4124018611ff7565b6000836001600160a01b03168383604051611005919061200a565b60006040518083038185875af1925050503d8060008114611042576040519150601f19603f3d011682016040523d82523d6000602084013e611047565b606091505b505090508061106f57838383604051634048f65560e11b81526004016104eb93929190612026565b7f9b9454e35c96c025dbfe5fc6ac29b7e4595138f5bd9b8a84c26ef3b16660e0a033858585604051610dc69493929190612056565b604051630b12e44160e41b8152600481018390526000906001600160a01b0385169063b12e441090602401602060405180830381865afa1580156110ec573d6000803e3d6000fd5b505050506040513d601f19601f820116820180604052508101906111109190611fc4565b905061111b81611404565b6111365761112b81333085611609565b611136818584611739565b604051630ef1370b60e11b815260048101849052602481018390526001600160a01b03851690631de26e169034906044016000604051808303818588803b15801561118057600080fd5b505af1158015611194573d6000803e3d6000fd5b505050505050505050565b6000806104b660017f35e4a72724550e3953b041d501f29ff9ff417812c2917a203d9c4833b9d1d6f9611ff7565b610bfa813361184d565b6111e18282610bae565b6105065760016111ef61119f565b6000848152602091825260408082206001600160a01b0386168084529352808220805460ff1916941515949094179093559151339285917f2f8788117e7eff1d82e926ec794901d17c78024a50270940304540a733656f0d9190a45050565b6000806104b660017f6f3088bd2046115232bd6d07a71df2fcaf1e55c5eb2db67ff171bb3e2086b067611ff7565b60006112866112e9565b546001600160a01b031690508161129b6112e9565b80546001600160a01b0319166001600160a01b03928316179055604051838216918316907f8be0079c531659141344cd1fd0a4f28419497f9722a3daafe3b4186f6b6457e090600090a35050565b6000806104b660017f9acda75aebd150dd434541a4747a6dc606f4f1a59662477e67daf1fc0bf9e0aa611ff7565b60007f360894a13ba1a3210667c828492db98dca3e2076cc3735a920a3ca505d382bbc610514565b6000611349610fbc565b546001600160a01b031614611371576040516304b79d6360e51b815260040160405180910390fd5b8061137a610fbc565b80546001600160a01b0319166001600160a01b039290921691909117905550565b6113a48261127c565b610506816118b1565b6113b86000826111d7565b610bfa60008051602061217f833981519152826111d7565b6113d982610690565b6113e2816111cd565b6109758383611927565b6000610ec169151bdad95b95985d5b1d60b21b61199f565b600061140e611a00565b546001600160a01b03928316921691909114919050565b604080516000808252602082019092526001600160a01b03841690839060405161144f919061200a565b60006040518083038185875af1925050503d806000811461148c576040519150601f19603f3d011682016040523d82523d6000602084013e611491565b606091505b50509050806109755760405162461bcd60e51b815260206004820152602360248201527f5472616e7366657248656c7065723a204554485f5452414e534645525f46414960448201526213115160ea1b60648201526084016104eb565b604080516001600160a01b038481166024830152604480830185905283518084039091018152606490920183526020820180516001600160e01b031663a9059cbb60e01b179052915160009283929087169161154a919061200a565b6000604051808303816000865af19150503d8060008114611587576040519150601f19603f3d011682016040523d82523d6000602084013e61158c565b606091505b50915091508180156115b65750805115806115b65750808060200190518101906115b69190612093565b6116025760405162461bcd60e51b815260206004820152601f60248201527f5472616e7366657248656c7065723a205452414e534645525f4641494c45440060448201526064016104eb565b5050505050565b604080516001600160a01b0385811660248301528481166044830152606480830185905283518084039091018152608490920183526020820180516001600160e01b03166323b872dd60e01b179052915160009283929088169161166d919061200a565b6000604051808303816000865af19150503d80600081146116aa576040519150601f19603f3d011682016040523d82523d6000602084013e6116af565b606091505b50915091508180156116d95750805115806116d95750808060200190518101906116d99190612093565b6117315760405162461bcd60e51b8152602060048201526024808201527f5472616e7366657248656c7065723a205452414e534645525f46524f4d5f46416044820152631253115160e21b60648201526084016104eb565b505050505050565b604080516001600160a01b038481166024830152604480830185905283518084039091018152606490920183526020820180516001600160e01b031663095ea7b360e01b1790529151600092839290871691611795919061200a565b6000604051808303816000865af19150503d80600081146117d2576040519150601f19603f3d011682016040523d82523d6000602084013e6117d7565b606091505b50915091508180156118015750805115806118015750808060200190518101906118019190612093565b6116025760405162461bcd60e51b815260206004820152601e60248201527f5472616e7366657248656c7065723a20415050524f56455f4641494c4544000060448201526064016104eb565b6118578282610bae565b6105065761186f816001600160a01b03166014611a2e565b61187a836020611a2e565b60405160200161188b9291906120b5565b60408051601f198184030181529082905262461bcd60e51b82526104eb9160040161212a565b60006118bb611a00565b546001600160a01b03161461191e5760405162461bcd60e51b815260206004820152602360248201527f5472616e7366657248656c7065723a20416c726561647920696e697469616c696044820152621e995960ea1b60648201526084016104eb565b8061137a611a00565b6119318282610bae565b1561050657600061194061119f565b6000848152602091825260408082206001600160a01b0386168084529352808220805460ff1916941515949094179093559151339285917ff6391f5c32d9c69d2a47ea670b442974b53935d1edc7fd64eb21e047a839171b9190a45050565b6000806119aa610fbc565b600084815260019190910160205260409020546001600160a01b03169050806104b65760408051602081018590520160408051601f19818403018152908290526346e2ec9360e01b82526104eb9160040161212a565b6000806104b660017f6f969d660e14559aec53d066903ba87981d0679d31bf1d3793a220e70e02808b611ff7565b60606000611a3d83600261213d565b611a48906002612154565b67ffffffffffffffff811115611a6057611a60611fe1565b6040519080825280601f01601f191660200182016040528015611a8a576020820181803683370190505b509050600360fc1b81600081518110611aa557611aa5611ec7565b60200101906001600160f81b031916908160001a905350600f60fb1b81600181518110611ad457611ad4611ec7565b60200101906001600160f81b031916908160001a9053506000611af884600261213d565b611b03906001612154565b90505b6001811115611b7b576f181899199a1a9b1b9c1cb0b131b232b360811b85600f1660108110611b3757611b37611ec7565b1a60f81b828281518110611b4d57611b4d611ec7565b60200101906001600160f81b031916908160001a90535060049490941c93611b7481612167565b9050611b06565b508315611bca5760405162461bcd60e51b815260206004820181905260248201527f537472696e67733a20686578206c656e67746820696e73756666696369656e7460448201526064016104eb565b9392505050565b600060208284031215611be357600080fd5b81356001600160e01b031981168114611bca57600080fd5b60008060408385031215611c0e57600080fd5b50508035926020909101359150565b60008083601f840112611c2f57600080fd5b50813567ffffffffffffffff811115611c4757600080fd5b6020830191508360208260051b8501011115611c6257600080fd5b9250929050565b60008060008060008060608789031215611c8257600080fd5b863567ffffffffffffffff80821115611c9a57600080fd5b611ca68a838b01611c1d565b90985096506020890135915080821115611cbf57600080fd5b611ccb8a838b01611c1d565b90965094506040890135915080821115611ce457600080fd5b50611cf189828a01611c1d565b979a9699509497509295939492505050565b600060208284031215611d1557600080fd5b5035919050565b6001600160a01b0381168114610bfa57600080fd5b60008060408385031215611d4457600080fd5b823591506020830135611d5681611d1c565b809150509250929050565b6020808252825182820181905260009190848201906040850190845b81811015611d9957835183529284019291840191600101611d7d565b50909695505050505050565b600080600060408486031215611dba57600080fd5b8335611dc581611d1c565b9250602084013567ffffffffffffffff80821115611de257600080fd5b818601915086601f830112611df657600080fd5b813581811115611e0557600080fd5b876020828501011115611e1757600080fd5b6020830194508093505050509250925092565b600060208284031215611e3c57600080fd5b8135611bca81611d1c565b600080600060608486031215611e5c57600080fd5b8335611e6781611d1c565b92506020840135611e7781611d1c565b91506040840135611e8781611d1c565b809150509250925092565b6020808252818101527f4f776e61626c653a2063616c6c6572206973206e6f7420746865206f776e6572604082015260600190565b634e487b7160e01b600052603260045260246000fd5b6000808335601e19843603018112611ef457600080fd5b83018035915067ffffffffffffffff821115611f0f57600080fd5b602001915036819003821315611c6257600080fd5b634e487b7160e01b600052601160045260246000fd5b600060018201611f4c57611f4c611f24565b5060010190565b60005b83811015611f6e578181015183820152602001611f56565b50506000910152565b60008151808452611f8f816020860160208601611f53565b601f01601f19169290920160200192915050565b828152604060208201526000611fbc6040830184611f77565b949350505050565b600060208284031215611fd657600080fd5b8151611bca81611d1c565b634e487b7160e01b600052604160045260246000fd5b818103818111156104b6576104b6611f24565b6000825161201c818460208701611f53565b9190910192915050565b60018060a01b038416815282602082015260606040820152600061204d6060830184611f77565b95945050505050565b6001600160a01b038581168252841660208201526040810183905260806060820181905260009061208990830184611f77565b9695505050505050565b6000602082840312156120a557600080fd5b81518015158114611bca57600080fd5b7f416363657373436f6e74726f6c3a206163636f756e74200000000000000000008152600083516120ed816017850160208801611f53565b7001034b99036b4b9b9b4b733903937b6329607d1b601791840191820152835161211e816028840160208801611f53565b01602801949350505050565b602081526000611bca6020830184611f77565b80820281158282048414176104b6576104b6611f24565b808201808211156104b6576104b6611f24565b60008161217657612176611f24565b50600019019056fe97667070c54ef182b0f5858b034beac1b6f3089aa2d3188bb1e8929f4fa9b929a264697066735822122050576b5635e5b6adfa1dcf16cc26435ee7689984c3f0d785d29f358d07158f3164736f6c63430008130033",
  "implementation": "0x6383652e4acFDE827497D963168D70Fd3EcD8aC9",
  "devdoc": {
    "events": {
      "Initialized(uint8)": {
        "details": "Triggered when the contract has been initialized or reinitialized."
      },
      "RoleAdminChanged(bytes32,bytes32,bytes32)": {
        "details": "Emitted when `newAdminRole` is set as ``role``'s admin role, replacing `previousAdminRole` `DEFAULT_ADMIN_ROLE` is the starting admin for all roles, despite {RoleAdminChanged} not being emitted signaling this. _Available since v3.1._"
      },
      "RoleGranted(bytes32,address,address)": {
        "details": "Emitted when `account` is granted `role`. `sender` is the account that originated the contract call, an admin role bearer except when using {AccessControl-_setupRole}."
      },
      "RoleRevoked(bytes32,address,address)": {
        "details": "Emitted when `account` is revoked `role`. `sender` is the account that originated the contract call:   - if using `revokeRole`, it is the admin role bearer   - if using `renounceRole`, it is the role bearer (i.e. `account`)"
      }
    },
    "kind": "dev",
    "methods": {
      "addOperator(address)": {
        "params": {
          "admin": "The address of the new admin"
        }
      },
      "deposit(bytes32,uint256)": {
        "details": "Deposits funds by the caller into the token vault as reserve fund.",
        "params": {
          "_amount": "Amount of funds to deposit",
          "_ccy": "Currency name in bytes32"
        }
      },
      "executeTransaction(address,bytes)": {
        "details": "Executes an arbitrary transaction.",
        "params": {
          "_data": "Encoded function data to be executed",
          "_target": "Address to be called"
        }
      },
      "executeTransactions(address[],uint256[],bytes[])": {
        "details": "Executes arbitrary transactions.",
        "params": {
          "_data": "Encoded function data to be executed",
          "_targets": "Array of Addresses to be called",
          "_values": "Array of values to be sent to _targets addresses"
        }
      },
      "getRevision()": {
        "returns": {
          "_0": "The revision number"
        }
      },
      "getRoleAdmin(bytes32)": {
        "details": "Returns the admin role that controls `role`. See {grantRole} and {revokeRole}. To change a role's admin, use {_setRoleAdmin}."
      },
      "grantRole(bytes32,address)": {
        "details": "Grants `role` to `account`. If `account` had not been already granted `role`, emits a {RoleGranted} event. Requirements: - the caller must have ``role``'s admin role. May emit a {RoleGranted} event."
      },
      "hasRole(bytes32,address)": {
        "details": "Returns `true` if `account` has been granted `role`."
      },
      "initialize(address,address,address)": {
        "details": "Function is invoked by the proxy contract when the contract is added to the ProxyController.",
        "params": {
          "_nativeToken": "The address of wrapped token of native currency",
          "_owner": "The address of the contract owner",
          "_resolver": "The address of the Address Resolver contract"
        }
      },
      "isPaused()": {
        "returns": {
          "_0": "The boolean if the reserve fund is paused"
        }
      },
      "owner()": {
        "details": "Returns the address of the current owner."
      },
      "removeOperator(address)": {
        "params": {
          "admin": "The address of the admin to remove"
        }
      },
      "renounceOwnership()": {
        "details": "Leaves the contract without owner. It will not be possible to call `onlyOwner` functions anymore. Can only be called by the current owner. NOTE: Renouncing ownership will leave the contract without an owner, thereby removing any functionality that is only available to the owner."
      },
      "renounceRole(bytes32,address)": {
        "params": {
          "account": "The address of the account to revoke the role from",
          "role": "The role to be revoked"
        }
      },
      "requiredContracts()": {
        "details": "The contract name list is in `./libraries/Contracts.sol`."
      },
      "revokeRole(bytes32,address)": {
        "details": "Revokes `role` from `account`.",
        "params": {
          "account": "The address of the account to revoke the role from",
          "role": "The role to be revoked"
        }
      },
      "supportsInterface(bytes4)": {
        "details": "See {IERC165-supportsInterface}."
      },
      "transferOwnership(address)": {
        "details": "Transfers ownership of the contract to a new account (`newOwner`). Can only be called by the current owner."
      },
      "withdraw(bytes32,uint256)": {
        "details": "Withdraw funds by the caller from the token vault.",
        "params": {
          "_amount": "Amount of funds to deposit",
          "_ccy": "Currency name in bytes32"
        }
      }
    },
    "version": 1
  },
  "userdoc": {
    "kind": "user",
    "methods": {
      "addOperator(address)": {
        "notice": "Adds a new admin as Operator"
      },
      "getRevision()": {
        "notice": "Gets the revision number of the contract"
      },
      "initialize(address,address,address)": {
        "notice": "Initializes the contract."
      },
      "isPaused()": {
        "notice": "Gets if the reserve fund is paused."
      },
      "pause()": {
        "notice": "Pauses the reserve fund."
      },
      "removeOperator(address)": {
        "notice": "Removes an admin as Operator"
      },
      "renounceRole(bytes32,address)": {
        "notice": "Revokes `role` from the calling account. This function is disabled by overriding it with a revert."
      },
      "requiredContracts()": {
        "notice": "Returns the contract names used in this contract."
      },
      "unpause()": {
        "notice": "Unpauses the reserve fund."
      }
    },
    "notice": "Implements managing of the reserve fund. This contract receives the fees from the lending market and uses them to cover to avoid the protocol insolvency.",
    "version": 1
  },
  "storageLayout": {
    "storage": [
      {
        "astId": 1618,
        "contract": "contracts/protocol/ReserveFund.sol:ReserveFund",
        "label": "_initialized",
        "offset": 0,
        "slot": "0",
        "type": "t_uint8"
      },
      {
        "astId": 1621,
        "contract": "contracts/protocol/ReserveFund.sol:ReserveFund",
        "label": "_initializing",
        "offset": 1,
        "slot": "0",
        "type": "t_bool"
      }
    ],
    "types": {
      "t_bool": {
        "encoding": "inplace",
        "label": "bool",
        "numberOfBytes": "1"
      },
      "t_uint8": {
        "encoding": "inplace",
        "label": "uint8",
        "numberOfBytes": "1"
      }
    }
  }
}