{
  "address": "0xB4365554D463E24C38144Fa96A78381808DE8bbf",
  "abi": [
    {
      "inputs": [],
      "name": "AlreadyInitialized",
      "type": "error"
    },
    {
      "inputs": [],
      "name": "CallerNotOperator",
      "type": "error"
    },
    {
      "inputs": [],
      "name": "ContractLocked",
      "type": "error"
    },
    {
      "inputs": [],
      "name": "InvalidCurrency",
      "type": "error"
    },
    {
      "inputs": [],
      "name": "InvalidMaturity",
      "type": "error"
    },
    {
      "inputs": [],
      "name": "MarketTerminated",
      "type": "error"
    },
    {
      "inputs": [
        {
          "internalType": "string",
          "name": "name",
          "type": "string"
        }
      ],
      "name": "MissingAddress",
      "type": "error"
    },
    {
      "inputs": [
        {
          "internalType": "bytes32",
          "name": "role",
          "type": "bytes32"
        },
        {
          "internalType": "address",
          "name": "account",
          "type": "address"
        }
      ],
      "name": "NotAllowedAccess",
      "type": "error"
    },
    {
      "inputs": [],
      "name": "NotTerminated",
      "type": "error"
    },
    {
      "inputs": [
        {
          "internalType": "string",
          "name": "name",
          "type": "string"
        }
      ],
      "name": "OnlyAcceptedContract",
      "type": "error"
    },
    {
      "inputs": [],
      "name": "ResolverAlreadyRegistered",
      "type": "error"
    },
    {
      "anonymous": false,
      "inputs": [
        {
          "indexed": false,
          "internalType": "bytes32",
          "name": "name",
          "type": "bytes32"
        },
        {
          "indexed": false,
          "internalType": "address",
          "name": "destination",
          "type": "address"
        }
      ],
      "name": "CacheUpdated",
      "type": "event"
    },
    {
      "anonymous": false,
      "inputs": [
        {
          "indexed": false,
          "internalType": "uint8",
          "name": "version",
          "type": "uint8"
        }
      ],
      "name": "Initialized",
      "type": "event"
    },
    {
      "anonymous": false,
      "inputs": [
        {
          "indexed": true,
          "internalType": "address",
          "name": "previousOwner",
          "type": "address"
        },
        {
          "indexed": true,
          "internalType": "address",
          "name": "newOwner",
          "type": "address"
        }
      ],
      "name": "OwnershipTransferred",
      "type": "event"
    },
    {
      "anonymous": false,
      "inputs": [
        {
          "indexed": true,
          "internalType": "bytes32",
          "name": "role",
          "type": "bytes32"
        },
        {
          "indexed": true,
          "internalType": "bytes32",
          "name": "previousAdminRole",
          "type": "bytes32"
        },
        {
          "indexed": true,
          "internalType": "bytes32",
          "name": "newAdminRole",
          "type": "bytes32"
        }
      ],
      "name": "RoleAdminChanged",
      "type": "event"
    },
    {
      "anonymous": false,
      "inputs": [
        {
          "indexed": true,
          "internalType": "bytes32",
          "name": "role",
          "type": "bytes32"
        },
        {
          "indexed": true,
          "internalType": "address",
          "name": "account",
          "type": "address"
        },
        {
          "indexed": true,
          "internalType": "address",
          "name": "sender",
          "type": "address"
        }
      ],
      "name": "RoleGranted",
      "type": "event"
    },
    {
      "anonymous": false,
      "inputs": [
        {
          "indexed": true,
          "internalType": "bytes32",
          "name": "role",
          "type": "bytes32"
        },
        {
          "indexed": true,
          "internalType": "address",
          "name": "account",
          "type": "address"
        },
        {
          "indexed": true,
          "internalType": "address",
          "name": "sender",
          "type": "address"
        }
      ],
      "name": "RoleRevoked",
      "type": "event"
    },
    {
      "inputs": [],
      "name": "DEFAULT_ADMIN_ROLE",
      "outputs": [
        {
          "internalType": "bytes32",
          "name": "",
          "type": "bytes32"
        }
      ],
      "stateMutability": "view",
      "type": "function"
    },
    {
      "inputs": [],
      "name": "OPERATOR_ROLE",
      "outputs": [
        {
          "internalType": "bytes32",
          "name": "",
          "type": "bytes32"
        }
      ],
      "stateMutability": "view",
      "type": "function"
    },
    {
      "inputs": [
        {
          "internalType": "address",
          "name": "admin",
          "type": "address"
        }
      ],
      "name": "addOperator",
      "outputs": [],
      "stateMutability": "nonpayable",
      "type": "function"
    },
    {
      "inputs": [],
      "name": "buildCache",
      "outputs": [],
      "stateMutability": "nonpayable",
      "type": "function"
    },
    {
      "inputs": [
        {
          "internalType": "bytes32",
          "name": "_ccy",
          "type": "bytes32"
        },
        {
          "internalType": "address",
          "name": "_user",
          "type": "address"
        },
        {
          "internalType": "uint256",
          "name": "_liquidationThresholdRate",
          "type": "uint256"
        }
      ],
      "name": "calculateFunds",
      "outputs": [
        {
          "components": [
            {
              "internalType": "uint256",
              "name": "workingLendOrdersAmount",
              "type": "uint256"
            },
            {
              "internalType": "uint256",
              "name": "claimableAmount",
              "type": "uint256"
            },
            {
              "internalType": "uint256",
              "name": "collateralAmount",
              "type": "uint256"
            },
            {
              "internalType": "uint256",
              "name": "unallocatedCollateralAmount",
              "type": "uint256"
            },
            {
              "internalType": "uint256",
              "name": "lentAmount",
              "type": "uint256"
            },
            {
              "internalType": "uint256",
              "name": "workingBorrowOrdersAmount",
              "type": "uint256"
            },
            {
              "internalType": "uint256",
              "name": "debtAmount",
              "type": "uint256"
            },
            {
              "internalType": "uint256",
              "name": "borrowedAmount",
              "type": "uint256"
            }
          ],
          "internalType": "struct ILendingMarketController.CalculatedFunds",
          "name": "funds",
          "type": "tuple"
        }
      ],
      "stateMutability": "view",
      "type": "function"
    },
    {
      "inputs": [
        {
          "internalType": "address",
          "name": "_user",
          "type": "address"
        },
        {
          "components": [
            {
              "internalType": "bytes32",
              "name": "ccy",
              "type": "bytes32"
            },
            {
              "internalType": "uint256",
              "name": "workingLendOrdersAmount",
              "type": "uint256"
            },
            {
              "internalType": "uint256",
              "name": "claimableAmount",
              "type": "uint256"
            },
            {
              "internalType": "uint256",
              "name": "workingBorrowOrdersAmount",
              "type": "uint256"
            },
            {
              "internalType": "uint256",
              "name": "debtAmount",
              "type": "uint256"
            },
            {
              "internalType": "uint256",
              "name": "lentAmount",
              "type": "uint256"
            },
            {
              "internalType": "uint256",
              "name": "borrowedAmount",
              "type": "uint256"
            }
          ],
          "internalType": "struct ILendingMarketController.AdditionalFunds",
          "name": "_additionalFunds",
          "type": "tuple"
        },
        {
          "internalType": "uint256",
          "name": "_liquidationThresholdRate",
          "type": "uint256"
        }
      ],
      "name": "calculateTotalFundsInBaseCurrency",
      "outputs": [
        {
          "components": [
            {
              "internalType": "uint256",
              "name": "plusDepositAmountInAdditionalFundsCcy",
              "type": "uint256"
            },
            {
              "internalType": "uint256",
              "name": "minusDepositAmountInAdditionalFundsCcy",
              "type": "uint256"
            },
            {
              "internalType": "uint256",
              "name": "workingLendOrdersAmount",
              "type": "uint256"
            },
            {
              "internalType": "uint256",
              "name": "claimableAmount",
              "type": "uint256"
            },
            {
              "internalType": "uint256",
              "name": "collateralAmount",
              "type": "uint256"
            },
            {
              "internalType": "uint256",
              "name": "lentAmount",
              "type": "uint256"
            },
            {
              "internalType": "uint256",
              "name": "workingBorrowOrdersAmount",
              "type": "uint256"
            },
            {
              "internalType": "uint256",
              "name": "debtAmount",
              "type": "uint256"
            },
            {
              "internalType": "uint256",
              "name": "borrowedAmount",
              "type": "uint256"
            }
          ],
          "internalType": "struct ILendingMarketController.CalculatedTotalFunds",
          "name": "funds",
          "type": "tuple"
        }
      ],
      "stateMutability": "view",
      "type": "function"
    },
    {
      "inputs": [
        {
          "internalType": "bytes32",
          "name": "_ccy",
          "type": "bytes32"
        },
        {
          "internalType": "uint256",
          "name": "_maturity",
          "type": "uint256"
        },
        {
          "internalType": "uint48",
          "name": "_orderId",
          "type": "uint48"
        }
      ],
      "name": "cancelOrder",
      "outputs": [
        {
          "internalType": "bool",
          "name": "",
          "type": "bool"
        }
      ],
      "stateMutability": "nonpayable",
      "type": "function"
    },
    {
      "inputs": [
        {
          "internalType": "address",
          "name": "_user",
          "type": "address"
        }
      ],
      "name": "cleanUpAllFunds",
      "outputs": [
        {
          "internalType": "bool",
          "name": "",
          "type": "bool"
        }
      ],
      "stateMutability": "nonpayable",
      "type": "function"
    },
    {
      "inputs": [
        {
          "internalType": "bytes32",
          "name": "_ccy",
          "type": "bytes32"
        },
        {
          "internalType": "address",
          "name": "_user",
          "type": "address"
        }
      ],
      "name": "cleanUpFunds",
      "outputs": [
        {
          "internalType": "uint256",
          "name": "totalActiveOrderCount",
          "type": "uint256"
        }
      ],
      "stateMutability": "nonpayable",
      "type": "function"
    },
    {
      "inputs": [
        {
          "internalType": "bytes32",
          "name": "_ccy",
          "type": "bytes32"
        },
        {
          "internalType": "uint256",
          "name": "_openingDate",
          "type": "uint256"
        },
        {
          "internalType": "uint256",
          "name": "_preOpeningDate",
          "type": "uint256"
        }
      ],
      "name": "createOrderBook",
      "outputs": [],
      "stateMutability": "nonpayable",
      "type": "function"
    },
    {
      "inputs": [
        {
          "internalType": "bytes32",
          "name": "_ccy",
          "type": "bytes32"
        },
        {
          "internalType": "uint256",
          "name": "_maturity",
          "type": "uint256"
        },
        {
          "internalType": "enum ProtocolTypes.Side",
          "name": "_side",
          "type": "uint8"
        },
        {
          "internalType": "uint256",
          "name": "_amount",
          "type": "uint256"
        },
        {
          "internalType": "uint256",
          "name": "_unitPrice",
          "type": "uint256"
        }
      ],
      "name": "depositAndExecuteOrder",
      "outputs": [
        {
          "internalType": "bool",
          "name": "",
          "type": "bool"
        }
      ],
      "stateMutability": "payable",
      "type": "function"
    },
    {
      "inputs": [
        {
          "internalType": "bytes32",
          "name": "_ccy",
          "type": "bytes32"
        },
        {
          "internalType": "uint256",
          "name": "_maturity",
          "type": "uint256"
        },
        {
          "internalType": "enum ProtocolTypes.Side",
          "name": "_side",
          "type": "uint8"
        },
        {
          "internalType": "uint256",
          "name": "_amount",
          "type": "uint256"
        },
        {
          "internalType": "uint256",
          "name": "_unitPrice",
          "type": "uint256"
        }
      ],
      "name": "depositAndExecutesPreOrder",
      "outputs": [
        {
          "internalType": "bool",
          "name": "",
          "type": "bool"
        }
      ],
      "stateMutability": "payable",
      "type": "function"
    },
    {
      "inputs": [
        {
          "internalType": "bytes32",
          "name": "_ccy",
          "type": "bytes32"
        },
        {
          "internalType": "uint256",
          "name": "_maturity",
          "type": "uint256"
        },
        {
          "internalType": "enum ProtocolTypes.Side",
          "name": "_side",
          "type": "uint8"
        },
        {
          "internalType": "uint256",
          "name": "_amount",
          "type": "uint256"
        },
        {
          "internalType": "uint256",
          "name": "_unitPrice",
          "type": "uint256"
        },
        {
          "internalType": "uint256",
          "name": "_deadline",
          "type": "uint256"
        },
        {
          "internalType": "uint8",
          "name": "_permitV",
          "type": "uint8"
        },
        {
          "internalType": "bytes32",
          "name": "_permitR",
          "type": "bytes32"
        },
        {
          "internalType": "bytes32",
          "name": "_permitS",
          "type": "bytes32"
        }
      ],
      "name": "depositWithPermitAndExecuteOrder",
      "outputs": [
        {
          "internalType": "bool",
          "name": "",
          "type": "bool"
        }
      ],
      "stateMutability": "nonpayable",
      "type": "function"
    },
    {
      "inputs": [
        {
          "internalType": "bytes32",
          "name": "_ccy",
          "type": "bytes32"
        },
        {
          "internalType": "uint256",
          "name": "_maturity",
          "type": "uint256"
        },
        {
          "internalType": "enum ProtocolTypes.Side",
          "name": "_side",
          "type": "uint8"
        },
        {
          "internalType": "uint256",
          "name": "_amount",
          "type": "uint256"
        },
        {
          "internalType": "uint256",
          "name": "_unitPrice",
          "type": "uint256"
        },
        {
          "internalType": "uint256",
          "name": "_deadline",
          "type": "uint256"
        },
        {
          "internalType": "uint8",
          "name": "_permitV",
          "type": "uint8"
        },
        {
          "internalType": "bytes32",
          "name": "_permitR",
          "type": "bytes32"
        },
        {
          "internalType": "bytes32",
          "name": "_permitS",
          "type": "bytes32"
        }
      ],
      "name": "depositWithPermitAndExecutePreOrder",
      "outputs": [
        {
          "internalType": "bool",
          "name": "",
          "type": "bool"
        }
      ],
      "stateMutability": "nonpayable",
      "type": "function"
    },
    {
      "inputs": [
        {
          "internalType": "bytes32",
          "name": "_ccy",
          "type": "bytes32"
        },
        {
          "internalType": "uint256",
          "name": "_maturity",
          "type": "uint256"
        },
        {
          "internalType": "uint256",
          "name": "_amount",
          "type": "uint256"
        }
      ],
      "name": "depositZCToken",
      "outputs": [],
      "stateMutability": "nonpayable",
      "type": "function"
    },
    {
      "inputs": [],
      "name": "executeEmergencySettlement",
      "outputs": [
        {
          "internalType": "bool",
          "name": "",
          "type": "bool"
        }
      ],
      "stateMutability": "nonpayable",
      "type": "function"
    },
    {
      "inputs": [],
      "name": "executeEmergencyTermination",
      "outputs": [],
      "stateMutability": "nonpayable",
      "type": "function"
    },
    {
      "inputs": [
        {
          "internalType": "bytes32",
          "name": "_collateralCcy",
          "type": "bytes32"
        },
        {
          "internalType": "bytes32",
          "name": "_debtCcy",
          "type": "bytes32"
        },
        {
          "internalType": "uint256",
          "name": "_debtMaturity",
          "type": "uint256"
        },
        {
          "internalType": "address",
          "name": "_user",
          "type": "address"
        }
      ],
      "name": "executeForcedRepayment",
      "outputs": [
        {
          "internalType": "bool",
          "name": "",
          "type": "bool"
        }
      ],
      "stateMutability": "nonpayable",
      "type": "function"
    },
    {
      "inputs": [
        {
          "internalType": "bytes32",
          "name": "_ccy",
          "type": "bytes32"
        },
        {
          "internalType": "uint256",
          "name": "_maturity",
          "type": "uint256"
        }
      ],
      "name": "executeItayoseCall",
      "outputs": [
        {
          "internalType": "bool",
          "name": "",
          "type": "bool"
        }
      ],
      "stateMutability": "nonpayable",
      "type": "function"
    },
    {
      "inputs": [
        {
          "internalType": "bytes32",
          "name": "_collateralCcy",
          "type": "bytes32"
        },
        {
          "internalType": "bytes32",
          "name": "_debtCcy",
          "type": "bytes32"
        },
        {
          "internalType": "uint256",
          "name": "_debtMaturity",
          "type": "uint256"
        },
        {
          "internalType": "address",
          "name": "_user",
          "type": "address"
        }
      ],
      "name": "executeLiquidationCall",
      "outputs": [
        {
          "internalType": "bool",
          "name": "",
          "type": "bool"
        }
      ],
      "stateMutability": "nonpayable",
      "type": "function"
    },
    {
      "inputs": [
        {
          "internalType": "bytes32",
          "name": "_ccy",
          "type": "bytes32"
        },
        {
          "internalType": "uint256",
          "name": "_maturity",
          "type": "uint256"
        },
        {
          "internalType": "enum ProtocolTypes.Side",
          "name": "_side",
          "type": "uint8"
        },
        {
          "internalType": "uint256",
          "name": "_amount",
          "type": "uint256"
        },
        {
          "internalType": "uint256",
          "name": "_unitPrice",
          "type": "uint256"
        }
      ],
      "name": "executeOrder",
      "outputs": [
        {
          "internalType": "bool",
          "name": "",
          "type": "bool"
        }
      ],
      "stateMutability": "nonpayable",
      "type": "function"
    },
    {
      "inputs": [
        {
          "internalType": "bytes32",
          "name": "_ccy",
          "type": "bytes32"
        },
        {
          "internalType": "uint256",
          "name": "_maturity",
          "type": "uint256"
        },
        {
          "internalType": "enum ProtocolTypes.Side",
          "name": "_side",
          "type": "uint8"
        },
        {
          "internalType": "uint256",
          "name": "_amount",
          "type": "uint256"
        },
        {
          "internalType": "uint256",
          "name": "_unitPrice",
          "type": "uint256"
        }
      ],
      "name": "executePreOrder",
      "outputs": [
        {
          "internalType": "bool",
          "name": "",
          "type": "bool"
        }
      ],
      "stateMutability": "nonpayable",
      "type": "function"
    },
    {
      "inputs": [
        {
          "internalType": "bytes32",
          "name": "_ccy",
          "type": "bytes32"
        },
        {
          "internalType": "uint256",
          "name": "_maturity",
          "type": "uint256"
        }
      ],
      "name": "executeRedemption",
      "outputs": [
        {
          "internalType": "bool",
          "name": "",
          "type": "bool"
        }
      ],
      "stateMutability": "nonpayable",
      "type": "function"
    },
    {
      "inputs": [
        {
          "internalType": "bytes32",
          "name": "_ccy",
          "type": "bytes32"
        },
        {
          "internalType": "uint256",
          "name": "_maturity",
          "type": "uint256"
        }
      ],
      "name": "executeRepayment",
      "outputs": [
        {
          "internalType": "bool",
          "name": "",
          "type": "bool"
        }
      ],
      "stateMutability": "nonpayable",
      "type": "function"
    },
    {
      "inputs": [
        {
          "internalType": "bytes32",
          "name": "_ccy",
          "type": "bytes32"
        }
      ],
      "name": "getCircuitBreakerLimitRange",
      "outputs": [
        {
          "internalType": "uint256",
          "name": "",
          "type": "uint256"
        }
      ],
      "stateMutability": "view",
      "type": "function"
    },
    {
      "inputs": [
        {
          "internalType": "bytes32",
          "name": "_ccy",
          "type": "bytes32"
        },
        {
          "internalType": "uint256",
          "name": "_maturity",
          "type": "uint256"
        }
      ],
      "name": "getCurrentMinDebtUnitPrice",
      "outputs": [
        {
          "internalType": "uint256",
          "name": "",
          "type": "uint256"
        }
      ],
      "stateMutability": "view",
      "type": "function"
    },
    {
      "inputs": [
        {
          "internalType": "bytes32",
          "name": "_ccy",
          "type": "bytes32"
        }
      ],
      "name": "getFutureValueVault",
      "outputs": [
        {
          "internalType": "address",
          "name": "",
          "type": "address"
        }
      ],
      "stateMutability": "view",
      "type": "function"
    },
    {
      "inputs": [
        {
          "internalType": "bytes32",
          "name": "_ccy",
          "type": "bytes32"
        }
      ],
      "name": "getGenesisDate",
      "outputs": [
        {
          "internalType": "uint256",
          "name": "",
          "type": "uint256"
        }
      ],
      "stateMutability": "view",
      "type": "function"
    },
    {
      "inputs": [
        {
          "internalType": "bytes32",
          "name": "_ccy",
          "type": "bytes32"
        },
        {
          "internalType": "address",
          "name": "_user",
          "type": "address"
        }
      ],
      "name": "getGenesisValue",
      "outputs": [
        {
          "internalType": "int256",
          "name": "amount",
          "type": "int256"
        },
        {
          "internalType": "int256",
          "name": "amountInPV",
          "type": "int256"
        },
        {
          "internalType": "int256",
          "name": "amountInFV",
          "type": "int256"
        }
      ],
      "stateMutability": "view",
      "type": "function"
    },
    {
      "inputs": [
        {
          "internalType": "bytes32",
          "name": "_ccy",
          "type": "bytes32"
        }
      ],
      "name": "getLendingMarket",
      "outputs": [
        {
          "internalType": "address",
          "name": "",
          "type": "address"
        }
      ],
      "stateMutability": "view",
      "type": "function"
    },
    {
      "inputs": [],
      "name": "getMarketBasePeriod",
      "outputs": [
        {
          "internalType": "uint256",
          "name": "",
          "type": "uint256"
        }
      ],
      "stateMutability": "view",
      "type": "function"
    },
    {
      "inputs": [
        {
          "internalType": "bytes32",
          "name": "_ccy",
          "type": "bytes32"
        }
      ],
      "name": "getMaturities",
      "outputs": [
        {
          "internalType": "uint256[]",
          "name": "",
          "type": "uint256[]"
        }
      ],
      "stateMutability": "view",
      "type": "function"
    },
    {
      "inputs": [
        {
          "internalType": "bytes32",
          "name": "_ccy",
          "type": "bytes32"
        }
      ],
      "name": "getMinDebtUnitPrice",
      "outputs": [
        {
          "internalType": "uint256",
          "name": "",
          "type": "uint256"
        }
      ],
      "stateMutability": "view",
      "type": "function"
    },
    {
      "inputs": [
        {
          "internalType": "bytes32",
          "name": "_ccy",
          "type": "bytes32"
        },
        {
          "internalType": "uint256",
          "name": "_maturity",
          "type": "uint256"
        }
      ],
      "name": "getOrderBookId",
      "outputs": [
        {
          "internalType": "uint8",
          "name": "",
          "type": "uint8"
        }
      ],
      "stateMutability": "view",
      "type": "function"
    },
    {
      "inputs": [
        {
          "internalType": "bytes32",
          "name": "_ccy",
          "type": "bytes32"
        }
      ],
      "name": "getOrderBookIds",
      "outputs": [
        {
          "internalType": "uint8[]",
          "name": "",
          "type": "uint8[]"
        }
      ],
      "stateMutability": "view",
      "type": "function"
    },
    {
      "inputs": [
        {
          "components": [
            {
              "internalType": "bytes32",
              "name": "ccy",
              "type": "bytes32"
            },
            {
              "internalType": "uint256",
              "name": "maturity",
              "type": "uint256"
            },
            {
              "internalType": "address",
              "name": "user",
              "type": "address"
            },
            {
              "internalType": "enum ProtocolTypes.Side",
              "name": "side",
              "type": "uint8"
            },
            {
              "internalType": "uint256",
              "name": "amount",
              "type": "uint256"
            },
            {
              "internalType": "uint256",
              "name": "unitPrice",
              "type": "uint256"
            },
            {
              "internalType": "uint256",
              "name": "additionalDepositAmount",
              "type": "uint256"
            },
            {
              "internalType": "bool",
              "name": "ignoreBorrowedAmount",
              "type": "bool"
            }
          ],
          "internalType": "struct ILendingMarketController.GetOrderEstimationParams",
          "name": "_params",
          "type": "tuple"
        }
      ],
      "name": "getOrderEstimation",
      "outputs": [
        {
          "internalType": "uint256",
          "name": "lastUnitPrice",
          "type": "uint256"
        },
        {
          "internalType": "uint256",
          "name": "filledAmount",
          "type": "uint256"
        },
        {
          "internalType": "uint256",
          "name": "filledAmountInFV",
          "type": "uint256"
        },
        {
          "internalType": "uint256",
          "name": "orderFeeInFV",
          "type": "uint256"
        },
        {
          "internalType": "uint256",
          "name": "placedAmount",
          "type": "uint256"
        },
        {
          "internalType": "uint256",
          "name": "coverage",
          "type": "uint256"
        },
        {
          "internalType": "bool",
          "name": "isInsufficientDepositAmount",
          "type": "bool"
        }
      ],
      "stateMutability": "view",
      "type": "function"
    },
    {
      "inputs": [
        {
          "internalType": "bytes32",
          "name": "_ccy",
          "type": "bytes32"
        }
      ],
      "name": "getOrderFeeRate",
      "outputs": [
        {
          "internalType": "uint256",
          "name": "",
          "type": "uint256"
        }
      ],
      "stateMutability": "view",
      "type": "function"
    },
    {
      "inputs": [
        {
          "internalType": "bytes32",
          "name": "_ccy",
          "type": "bytes32"
        },
        {
          "internalType": "uint256",
          "name": "_maturity",
          "type": "uint256"
        }
      ],
      "name": "getPendingOrderAmount",
      "outputs": [
        {
          "internalType": "uint256",
          "name": "",
          "type": "uint256"
        }
      ],
      "stateMutability": "view",
      "type": "function"
    },
    {
      "inputs": [
        {
          "internalType": "bytes32",
          "name": "_ccy",
          "type": "bytes32"
        },
        {
          "internalType": "uint256",
          "name": "_maturity",
          "type": "uint256"
        },
        {
          "internalType": "address",
          "name": "_user",
          "type": "address"
        }
      ],
      "name": "getPosition",
      "outputs": [
        {
          "internalType": "int256",
          "name": "presentValue",
          "type": "int256"
        },
        {
          "internalType": "int256",
          "name": "futureValue",
          "type": "int256"
        }
      ],
      "stateMutability": "view",
      "type": "function"
    },
    {
      "inputs": [],
      "name": "getRevision",
      "outputs": [
        {
          "internalType": "uint256",
          "name": "",
          "type": "uint256"
        }
      ],
      "stateMutability": "pure",
      "type": "function"
    },
    {
      "inputs": [
        {
          "internalType": "bytes32",
          "name": "role",
          "type": "bytes32"
        }
      ],
      "name": "getRoleAdmin",
      "outputs": [
        {
          "internalType": "bytes32",
          "name": "",
          "type": "bytes32"
        }
      ],
      "stateMutability": "view",
      "type": "function"
    },
    {
      "inputs": [
        {
          "internalType": "bytes32",
          "name": "_ccy",
          "type": "bytes32"
        }
      ],
      "name": "getTerminationCollateralRatio",
      "outputs": [
        {
          "internalType": "uint256",
          "name": "",
          "type": "uint256"
        }
      ],
      "stateMutability": "view",
      "type": "function"
    },
    {
      "inputs": [
        {
          "internalType": "bytes32",
          "name": "_ccy",
          "type": "bytes32"
        }
      ],
      "name": "getTerminationCurrencyCache",
      "outputs": [
        {
          "components": [
            {
              "internalType": "int256",
              "name": "price",
              "type": "int256"
            },
            {
              "internalType": "uint8",
              "name": "decimals",
              "type": "uint8"
            }
          ],
          "internalType": "struct TerminationCurrencyCache",
          "name": "",
          "type": "tuple"
        }
      ],
      "stateMutability": "view",
      "type": "function"
    },
    {
      "inputs": [],
      "name": "getTerminationDate",
      "outputs": [
        {
          "internalType": "uint256",
          "name": "",
          "type": "uint256"
        }
      ],
      "stateMutability": "view",
      "type": "function"
    },
    {
      "inputs": [
        {
          "internalType": "bytes32",
          "name": "_ccy",
          "type": "bytes32"
        },
        {
          "internalType": "address",
          "name": "_user",
          "type": "address"
        }
      ],
      "name": "getTotalPresentValue",
      "outputs": [
        {
          "internalType": "int256",
          "name": "totalPresentValue",
          "type": "int256"
        }
      ],
      "stateMutability": "view",
      "type": "function"
    },
    {
      "inputs": [
        {
          "internalType": "address",
          "name": "_user",
          "type": "address"
        }
      ],
      "name": "getTotalPresentValueInBaseCurrency",
      "outputs": [
        {
          "internalType": "int256",
          "name": "totalPresentValue",
          "type": "int256"
        }
      ],
      "stateMutability": "view",
      "type": "function"
    },
    {
      "inputs": [
        {
          "internalType": "address",
          "name": "_user",
          "type": "address"
        }
      ],
      "name": "getUsedCurrencies",
      "outputs": [
        {
          "internalType": "bytes32[]",
          "name": "",
          "type": "bytes32[]"
        }
      ],
      "stateMutability": "view",
      "type": "function"
    },
    {
      "inputs": [
        {
          "internalType": "bytes32",
          "name": "_ccy",
          "type": "bytes32"
        },
        {
          "internalType": "uint256",
          "name": "_maturity",
          "type": "uint256"
        },
        {
          "internalType": "address",
          "name": "_user",
          "type": "address"
        }
      ],
      "name": "getWithdrawableZCTokenAmount",
      "outputs": [
        {
          "internalType": "uint256",
          "name": "amount",
          "type": "uint256"
        }
      ],
      "stateMutability": "view",
      "type": "function"
    },
    {
      "inputs": [
        {
          "internalType": "bytes32",
          "name": "_ccy",
          "type": "bytes32"
        },
        {
          "internalType": "uint256",
          "name": "_maturity",
          "type": "uint256"
        }
      ],
      "name": "getZCToken",
      "outputs": [
        {
          "internalType": "address",
          "name": "",
          "type": "address"
        }
      ],
      "stateMutability": "view",
      "type": "function"
    },
    {
      "inputs": [
        {
          "internalType": "address",
          "name": "_zcToken",
          "type": "address"
        }
      ],
      "name": "getZCTokenInfo",
      "outputs": [
        {
          "components": [
            {
              "internalType": "bytes32",
              "name": "ccy",
              "type": "bytes32"
            },
            {
              "internalType": "uint256",
              "name": "maturity",
              "type": "uint256"
            }
          ],
          "internalType": "struct ZCTokenInfo",
          "name": "",
          "type": "tuple"
        }
      ],
      "stateMutability": "view",
      "type": "function"
    },
    {
      "inputs": [
        {
          "internalType": "bytes32",
          "name": "role",
          "type": "bytes32"
        },
        {
          "internalType": "address",
          "name": "account",
          "type": "address"
        }
      ],
      "name": "grantRole",
      "outputs": [],
      "stateMutability": "nonpayable",
      "type": "function"
    },
    {
      "inputs": [
        {
          "internalType": "bytes32",
          "name": "role",
          "type": "bytes32"
        },
        {
          "internalType": "address",
          "name": "account",
          "type": "address"
        }
      ],
      "name": "hasRole",
      "outputs": [
        {
          "internalType": "bool",
          "name": "",
          "type": "bool"
        }
      ],
      "stateMutability": "view",
      "type": "function"
    },
    {
      "inputs": [
        {
          "internalType": "address",
          "name": "_owner",
          "type": "address"
        },
        {
          "internalType": "address",
          "name": "_resolver",
          "type": "address"
        },
        {
          "internalType": "uint256",
          "name": "_marketBasePeriod",
          "type": "uint256"
        }
      ],
      "name": "initialize",
      "outputs": [],
      "stateMutability": "nonpayable",
      "type": "function"
    },
    {
      "inputs": [
        {
          "internalType": "bytes32",
          "name": "_ccy",
          "type": "bytes32"
        },
        {
          "internalType": "uint256",
          "name": "_genesisDate",
          "type": "uint256"
        },
        {
          "internalType": "uint256",
          "name": "_compoundFactor",
          "type": "uint256"
        },
        {
          "internalType": "uint256",
          "name": "_orderFeeRate",
          "type": "uint256"
        },
        {
          "internalType": "uint256",
          "name": "_circuitBreakerLimitRange",
          "type": "uint256"
        },
        {
          "internalType": "uint256",
          "name": "_minDebtUnitPrice",
          "type": "uint256"
        }
      ],
      "name": "initializeLendingMarket",
      "outputs": [],
      "stateMutability": "nonpayable",
      "type": "function"
    },
    {
      "inputs": [
        {
          "internalType": "bytes32",
          "name": "_ccy",
          "type": "bytes32"
        }
      ],
      "name": "isInitializedLendingMarket",
      "outputs": [
        {
          "internalType": "bool",
          "name": "",
          "type": "bool"
        }
      ],
      "stateMutability": "view",
      "type": "function"
    },
    {
      "inputs": [
        {
          "internalType": "address",
          "name": "_user",
          "type": "address"
        }
      ],
      "name": "isRedemptionRequired",
      "outputs": [
        {
          "internalType": "bool",
          "name": "",
          "type": "bool"
        }
      ],
      "stateMutability": "view",
      "type": "function"
    },
    {
      "inputs": [],
      "name": "isResolverCached",
      "outputs": [
        {
          "internalType": "bool",
          "name": "",
          "type": "bool"
        }
      ],
      "stateMutability": "view",
      "type": "function"
    },
    {
      "inputs": [],
      "name": "isTerminated",
      "outputs": [
        {
          "internalType": "bool",
          "name": "",
          "type": "bool"
        }
      ],
      "stateMutability": "view",
      "type": "function"
    },
    {
      "inputs": [
        {
          "internalType": "bytes32",
          "name": "_ccy",
          "type": "bytes32"
        },
        {
          "internalType": "uint256",
          "name": "_maturity",
          "type": "uint256"
        }
      ],
      "name": "isValidMaturity",
      "outputs": [
        {
          "internalType": "bool",
          "name": "",
          "type": "bool"
        }
      ],
      "stateMutability": "view",
      "type": "function"
    },
    {
      "inputs": [
        {
          "internalType": "bytes32",
          "name": "_ccy",
          "type": "bytes32"
        },
        {
          "internalType": "uint256",
          "name": "_maturity",
          "type": "uint256"
        }
      ],
      "name": "migrateLendingMarket",
      "outputs": [],
      "stateMutability": "nonpayable",
      "type": "function"
    },
    {
      "inputs": [
        {
          "internalType": "bytes[]",
          "name": "data",
          "type": "bytes[]"
        }
      ],
      "name": "multicall",
      "outputs": [
        {
          "internalType": "bytes[]",
          "name": "results",
          "type": "bytes[]"
        }
      ],
      "stateMutability": "nonpayable",
      "type": "function"
    },
    {
      "inputs": [],
      "name": "owner",
      "outputs": [
        {
          "internalType": "address",
          "name": "",
          "type": "address"
        }
      ],
      "stateMutability": "view",
      "type": "function"
    },
    {
      "inputs": [
        {
          "internalType": "bytes32",
          "name": "_ccy",
          "type": "bytes32"
        }
      ],
      "name": "pauseLendingMarket",
      "outputs": [
        {
          "internalType": "bool",
          "name": "",
          "type": "bool"
        }
      ],
      "stateMutability": "nonpayable",
      "type": "function"
    },
    {
      "inputs": [
        {
          "internalType": "address",
          "name": "admin",
          "type": "address"
        }
      ],
      "name": "removeOperator",
      "outputs": [],
      "stateMutability": "nonpayable",
      "type": "function"
    },
    {
      "inputs": [],
      "name": "renounceOwnership",
      "outputs": [],
      "stateMutability": "nonpayable",
      "type": "function"
    },
    {
      "inputs": [
        {
          "internalType": "bytes32",
          "name": "role",
          "type": "bytes32"
        },
        {
          "internalType": "address",
          "name": "account",
          "type": "address"
        }
      ],
      "name": "renounceRole",
      "outputs": [],
      "stateMutability": "pure",
      "type": "function"
    },
    {
      "inputs": [],
      "name": "requiredContracts",
      "outputs": [
        {
          "internalType": "bytes32[]",
          "name": "contracts",
          "type": "bytes32[]"
        }
      ],
      "stateMutability": "pure",
      "type": "function"
    },
    {
      "inputs": [],
      "name": "resolver",
      "outputs": [
        {
          "internalType": "contract IAddressResolver",
          "name": "",
          "type": "address"
        }
      ],
      "stateMutability": "view",
      "type": "function"
    },
    {
      "inputs": [
        {
          "internalType": "bytes32",
          "name": "role",
          "type": "bytes32"
        },
        {
          "internalType": "address",
          "name": "account",
          "type": "address"
        }
      ],
      "name": "revokeRole",
      "outputs": [],
      "stateMutability": "nonpayable",
      "type": "function"
    },
    {
      "inputs": [
        {
          "internalType": "bytes32",
          "name": "_ccy",
          "type": "bytes32"
        }
      ],
      "name": "rotateOrderBooks",
      "outputs": [],
      "stateMutability": "nonpayable",
      "type": "function"
    },
    {
      "inputs": [
        {
          "internalType": "bytes4",
          "name": "interfaceId",
          "type": "bytes4"
        }
      ],
      "name": "supportsInterface",
      "outputs": [
        {
          "internalType": "bool",
          "name": "",
          "type": "bool"
        }
      ],
      "stateMutability": "view",
      "type": "function"
    },
    {
      "inputs": [
        {
          "internalType": "address",
          "name": "newOwner",
          "type": "address"
        }
      ],
      "name": "transferOwnership",
      "outputs": [],
      "stateMutability": "nonpayable",
      "type": "function"
    },
    {
      "inputs": [
        {
          "internalType": "bytes32",
          "name": "_ccy",
          "type": "bytes32"
        }
      ],
      "name": "unpauseLendingMarket",
      "outputs": [
        {
          "internalType": "bool",
          "name": "",
          "type": "bool"
        }
      ],
      "stateMutability": "nonpayable",
      "type": "function"
    },
    {
      "inputs": [
        {
          "internalType": "bytes32",
          "name": "_ccy",
          "type": "bytes32"
        },
        {
          "internalType": "uint256",
          "name": "_maturity",
          "type": "uint256"
        }
      ],
      "name": "unwindPosition",
      "outputs": [
        {
          "internalType": "bool",
          "name": "",
          "type": "bool"
        }
      ],
      "stateMutability": "nonpayable",
      "type": "function"
    },
    {
      "inputs": [
        {
          "internalType": "bytes32",
          "name": "_ccy",
          "type": "bytes32"
        },
        {
          "internalType": "uint256",
          "name": "_cbLimitRange",
          "type": "uint256"
        }
      ],
      "name": "updateCircuitBreakerLimitRange",
      "outputs": [],
      "stateMutability": "nonpayable",
      "type": "function"
    },
    {
      "inputs": [
        {
          "internalType": "bytes32",
          "name": "_ccy",
          "type": "bytes32"
        },
        {
          "internalType": "uint256",
          "name": "_minDebtUnitPrice",
          "type": "uint256"
        }
      ],
      "name": "updateMinDebtUnitPrice",
      "outputs": [],
      "stateMutability": "nonpayable",
      "type": "function"
    },
    {
      "inputs": [
        {
          "internalType": "bytes32",
          "name": "_ccy",
          "type": "bytes32"
        },
        {
          "internalType": "uint256",
          "name": "_orderFeeRate",
          "type": "uint256"
        }
      ],
      "name": "updateOrderFeeRate",
      "outputs": [],
      "stateMutability": "nonpayable",
      "type": "function"
    },
    {
      "inputs": [
        {
          "internalType": "bytes32",
          "name": "_ccy",
          "type": "bytes32"
        },
        {
          "internalType": "uint256",
          "name": "_maturity",
          "type": "uint256"
        },
        {
          "internalType": "uint256",
          "name": "_amount",
          "type": "uint256"
        }
      ],
      "name": "withdrawZCToken",
      "outputs": [],
      "stateMutability": "nonpayable",
      "type": "function"
    }
  ],
  "transactionHash": "0x928349de1d0a2995dd3def811a9f0d42af8fa7e08f47bccc54b09ef02fca912f",
  "args": [],
  "numDeployments": 2,
  "solcInputHash": "6cc4ddb223a3b82cf51c267738efb702",
  "bytecode": "0x608060405234801561001057600080fd5b50600160005561592580620000266000396000f3fe60806040526004361061045d5760003560e01c80638469973f1161023f578063b4dafc9011610139578063e9eb03b3116100b6578063f43947c71161007a578063f43947c714610ec7578063f4a0997f14610ee7578063f5b541a614610f07578063fc70081014610f29578063ff5c086b14610f4957600080fd5b8063e9eb03b314610e27578063ea57481714610e47578063ebd358fd14610e67578063f03bc5a514610e87578063f2fde38b14610ea757600080fd5b8063e0a17443116100fd578063e0a1744314610d87578063e30cdb1914610d9a578063e3a9833314610dba578063e6977c6a14610dda578063e8c9af6314610e0757600080fd5b8063b4dafc9014610cfd578063b8f117cd14610d1d578063c11333b114610d32578063d1cc997614610d52578063d547741f14610d6757600080fd5b80639e0998b2116101c7578063a4c66bde1161018b578063a4c66bde14610c19578063abc6f02514610c39578063ac8a584a14610c90578063ac9650d814610cb0578063b1d0f2f014610cdd57600080fd5b80639e0998b214610b175780639f6c315914610ba4578063a02be3dc14610bc4578063a217fddf14610be4578063a38f31fe14610bf957600080fd5b80638da5cb5b1161020e5780638da5cb5b14610a8d57806391d1485414610aa257806394e75a3e14610ac25780639519832b14610ad75780639870d7fe14610af757600080fd5b80638469973f14610a0d578063862fd6e514610a2d578063886f4b4514610a4d578063891d596514610a6d57600080fd5b80632f2ff15d1161035b5780635ca65d57116102d85780637b588aaa1161029c5780637b588aaa1461095b57806380a7de861461097b578063812784b0146109ad578063826b47e8146109cd57806383c2b5f0146109ed57600080fd5b80635ca65d57146108b65780636a23a95c146108d657806370c641a6146108f6578063715018a614610931578063733ac7fc1461094657600080fd5b80634e78fecc1161031f5780634e78fecc146108165780634ebeb0491461083657806352239c701461085657806353571ee71461087657806354227dec1461089657600080fd5b80632f2ff15d1461077457806336568abe146107945780633d03b9da146107b4578063428c3a81146107d657806349f2ccbf146107f657600080fd5b80631794bb3c116103e957806329985e5a116103ad57806329985e5a146106ea5780632a301496146106ff5780632af64bd31461071f5780632e6c5e67146107345780632ef5ddaf1461075457600080fd5b80631794bb3c146105cc57806317b72ff4146105ee578063248a9ca31461060e57806324e4ae051461062e5780632717654e146106af57600080fd5b806303e5fb591161043057806303e5fb591461052357806304f3bcec14610543578063062ea294146105705780630b60d6d3146105a55780631316529d146105b857600080fd5b806301cf22351461046257806301ffc9a714610497578063021b89d4146104b757806303cc9240146104f5575b600080fd5b34801561046e57600080fd5b5061048261047d366004614538565b610f5e565b60405190151581526020015b60405180910390f35b3480156104a357600080fd5b506104826104b236600461455a565b61103f565b3480156104c357600080fd5b506104d76104d2366004614584565b611074565b604080518251815260209283015160ff16928101929092520161048e565b34801561050157600080fd5b506105156105103660046145b2565b6110be565b60405190815260200161048e565b34801561052f57600080fd5b5061051561053e366004614584565b611154565b34801561054f57600080fd5b506105586111da565b6040516001600160a01b03909116815260200161048e565b34801561057c57600080fd5b5061059061058b3660046145b2565b6111f3565b6040805192835260208301919091520161048e565b6104826105b33660046145fa565b61128d565b3480156105c457600080fd5b506002610515565b3480156105d857600080fd5b506105ec6105e7366004614641565b6113e4565b005b3480156105fa57600080fd5b50610515610609366004614682565b61157f565b34801561061a57600080fd5b50610515610629366004614584565b611609565b34801561063a57600080fd5b5061064e6106493660046146b2565b611627565b60405161048e9190600061010082019050825182526020830151602083015260408301516040830152606083015160608301526080830151608083015260a083015160a083015260c083015160c083015260e083015160e083015292915050565b3480156106bb57600080fd5b506106cf6106ca3660046146d9565b6117be565b6040805182518152602092830151928101929092520161048e565b3480156106f657600080fd5b506105ec611813565b34801561070b57600080fd5b5061048261071a366004614538565b611990565b34801561072b57600080fd5b506104826119bd565b34801561074057600080fd5b5061048261074f366004614584565b611aef565b34801561076057600080fd5b5061048261076f3660046145fa565b611b0f565b34801561078057600080fd5b506105ec61078f366004614682565b611baa565b3480156107a057600080fd5b506105ec6107af366004614682565b611bcb565b3480156107c057600080fd5b506107c9611bf6565b60405161048e91906146f6565b3480156107e257600080fd5b506104826107f1366004614584565b611d18565b34801561080257600080fd5b5061048261081136600461474e565b611de3565b34801561082257600080fd5b50610515610831366004614584565b611f04565b34801561084257600080fd5b506105ec61085136600461477c565b611f66565b34801561086257600080fd5b50610515610871366004614584565b612031565b34801561088257600080fd5b506105ec610891366004614584565b61204f565b3480156108a257600080fd5b506105156108b1366004614584565b61217f565b3480156108c257600080fd5b506105ec6108d1366004614538565b61219d565b3480156108e257600080fd5b506104826108f1366004614538565b612248565b34801561090257600080fd5b50610916610911366004614682565b6123aa565b6040805193845260208401929092529082015260600161048e565b34801561093d57600080fd5b506105ec612441565b34801561095257600080fd5b5061051561247c565b34801561096757600080fd5b506105ec610976366004614538565b61248c565b34801561098757600080fd5b5061099b610996366004614538565b612505565b60405160ff909116815260200161048e565b3480156109b957600080fd5b506105586109c8366004614584565b612531565b3480156109d957600080fd5b506104826109e83660046146d9565b612558565b3480156109f957600080fd5b506105ec610a08366004614538565b6125db565b348015610a1957600080fd5b50610482610a283660046147a8565b612671565b348015610a3957600080fd5b50610482610a483660046146d9565b61286d565b348015610a5957600080fd5b50610482610a68366004614538565b6128ad565b348015610a7957600080fd5b50610515610a88366004614584565b61294c565b348015610a9957600080fd5b5061055861296a565b348015610aae57600080fd5b50610482610abd366004614682565b612974565b348015610ace57600080fd5b506104826129a8565b348015610ae357600080fd5b50610515610af2366004614682565b612a4a565b348015610b0357600080fd5b506105ec610b123660046146d9565b612ae3565b348015610b2357600080fd5b50610b37610b323660046147e9565b612afb565b60405161048e9190600061012082019050825182526020830151602083015260408301516040830152606083015160608301526080830151608083015260a083015160a083015260c083015160c083015260e083015160e083015261010080840151818401525092915050565b348015610bb057600080fd5b50610558610bbf366004614584565b612c13565b348015610bd057600080fd5b506107c9610bdf366004614584565b612c3a565b348015610bf057600080fd5b50610515600081565b348015610c0557600080fd5b506105ec610c1436600461477c565b612ce2565b348015610c2557600080fd5b50610515610c343660046146d9565b612d93565b348015610c4557600080fd5b50610c59610c54366004614835565b612f03565b604080519788526020880196909652948601939093526060850191909152608084015260a0830152151560c082015260e00161048e565b348015610c9c57600080fd5b506105ec610cab3660046146d9565b612f9d565b348015610cbc57600080fd5b50610cd0610ccb36600461484e565b612fb5565b60405161048e9190614913565b348015610ce957600080fd5b50610482610cf8366004614538565b6130aa565b348015610d0957600080fd5b50610558610d18366004614538565b613194565b348015610d2957600080fd5b506105ec6131c6565b348015610d3e57600080fd5b50610482610d4d3660046147a8565b613273565b348015610d5e57600080fd5b506104826133e3565b348015610d7357600080fd5b506105ec610d82366004614682565b6133f8565b610482610d953660046145fa565b61343d565b348015610da657600080fd5b50610482610db5366004614975565b61354b565b348015610dc657600080fd5b506105ec610dd5366004614538565b6136a4565b348015610de657600080fd5b50610dfa610df5366004614584565b613738565b60405161048e91906149f6565b348015610e1357600080fd5b50610515610e22366004614538565b6137ca565b348015610e3357600080fd5b506105ec610e4236600461477c565b61386b565b348015610e5357600080fd5b506105ec610e62366004614a31565b613908565b348015610e7357600080fd5b50610482610e82366004614975565b6139eb565b348015610e9357600080fd5b50610515610ea2366004614538565b613af7565b348015610eb357600080fd5b506105ec610ec23660046146d9565b613b20565b348015610ed357600080fd5b50610482610ee23660046145fa565b613bbd565b348015610ef357600080fd5b50610482610f02366004614584565b613c58565b348015610f1357600080fd5b506105156000805160206158a983398151915281565b348015610f3557600080fd5b506107c9610f443660046146d9565b613ced565b348015610f5557600080fd5b50610515613d1b565b6000610f68613d2e565b8282610f748282611990565b15610f92576040516318f4d05960e31b815260040160405180910390fd5b610f9a6133e3565b15610fb8576040516319a90b2f60e21b815260040160405180910390fd5b604051632097fb8960e01b815260048101869052602481018590523360448201527310B4d625752E921c10135B5F8b8Be4864cb4a47f90632097fb89906064015b60006040518083038186803b15801561101157600080fd5b505af4158015611025573d6000803e3d6000fd5b505050506001925050506110396001600055565b92915050565b60006001600160e01b03198216637965db0b60e01b148061103957506301ffc9a760e01b6001600160e01b0319831614611039565b6040805180820190915260008082526020820152611090613d87565b600092835260020160209081526040928390208351808501909452805484526001015460ff16908301525090565b604051620f324960e61b815260048101849052602481018390526001600160a01b03821660448201526000907310B4d625752E921c10135B5F8b8Be4864cb4a47f906303cc924090606401602060405180830381865af4158015611126573d6000803e3d6000fd5b505050506040513d601f19601f8201168201806040525081019061114a9190614a74565b90505b9392505050565b600061115e613d87565b6000838152600591909101602090815260409182902054825163128e5b8560e01b815292516001600160a01b039091169263128e5b859260048083019391928290030181865afa1580156111b6573d6000803e3d6000fd5b505050506040513d601f19601f820116820180604052508101906110399190614a74565b60006111e4613db5565b546001600160a01b0316919050565b60405163018ba8a560e21b815260048101849052602481018390526001600160a01b0382166044820152600090819073C75560416a5749aECAFEB1e9950071E6467623339063062ea294906064016040805180830381865af415801561125d573d6000803e3d6000fd5b505050506040513d601f19601f820116820180604052508101906112819190614a8d565b90969095509350505050565b6000611297613d2e565b85856112a38282611990565b156112c1576040516318f4d05960e31b815260040160405180910390fd5b6112c96133e3565b156112e7576040516319a90b2f60e21b815260040160405180910390fd5b6112ef613de3565b6040516396994e3760e01b8152336004820152602481018a9052604481018790526001600160a01b0391909116906396994e379034906064016000604051808303818588803b15801561134157600080fd5b505af1158015611355573d6000803e3d6000fd5b505060405163606c3acd60e01b81527310B4d625752E921c10135B5F8b8Be4864cb4a47f935063606c3acd925061139b91508b908b9033908c908c908c90600401614ad3565b60006040518083038186803b1580156113b357600080fd5b505af41580156113c7573d6000803e3d6000fd5b505050506001925050506113db6001600055565b95945050505050565b600154610100900460ff161580801561140157506001805460ff16105b8061141a5750303b15801561141a57506001805460ff16145b6114825760405162461bcd60e51b815260206004820152602e60248201527f496e697469616c697a61626c653a20636f6e747261637420697320616c72656160448201526d191e481a5b9a5d1a585b1a5e995960921b60648201526084015b60405180910390fd5b6001805460ff19168117905580156114a4576001805461ff0019166101001790555b60006114ae613df2565b6001600160a01b03160361150f5760405162461bcd60e51b815260206004820152602260248201527f4d7573742062652063616c6c65642066726f6d2070726f787920636f6e74726160448201526118dd60f21b6064820152608401611479565b81611518613d87565b5561152284613bb4565b61152b84613e1a565b61153483613e3d565b8015611579576001805461ff00191681556040519081527f7f26b83ff96e1f2b6a682f133852f6798a09c465da95921460cefb38474024989060200160405180910390a15b50505050565b60405163b55c692f60e01b815260009073C75560416a5749aECAFEB1e9950071E6467623339063b55c692f906115bf908690859087908290600401614b11565b61016060405180830381865af41580156115dd573d6000803e3d6000fd5b505050506040513d601f19601f820116820180604052508101906116019190614bca565b519392505050565b6000611613613e99565b600092835260205250604090206001015490565b61166f60405180610100016040528060008152602001600081526020016000815260200160008152602001600081526020016000815260200160008152602001600081525090565b61169d8461167b613d87565b6001600160a01b0386166000908152600d919091016020526040902090613ec7565b1561114d576116e56040518060e00160405280600080191681526020016000815260200160008152602001600081526020016000815260200160008152602001600081525090565b60408051639349fb4160e01b8152600481018790526001600160a01b03861660248201528251604482015260208301516064820152908201516084820152606082015160a4820152608082015160c482015260a082015160e482015260c0820151610104820152610124810184905273C75560416a5749aECAFEB1e9950071E64676233390639349fb41906101440161010060405180830381865af4158015611792573d6000803e3d6000fd5b505050506040513d601f19601f820116820180604052508101906117b69190614c5d565b91505061114d565b60408051808201909152600080825260208201526117da613d87565b6001600160a01b039092166000908152601092909201602090815260409283902083518085019094528054845260010154908301525090565b600061181d611bf6565b905060005b815181101561198c57600082828151811061183f5761183f614ced565b602002602001015190506000611853613db5565b54604080517f5265736f6c766572206d697373696e67207461726765743a200000000000000060208201526039808201869052825180830390910181526059820192839052636795dbcd60e01b9092526001600160a01b0390921691636795dbcd916118c491869190605d01614d03565b602060405180830381865afa1580156118e1573d6000803e3d6000fd5b505050506040513d601f19601f820116820180604052508101906119059190614d1c565b905080611910613db5565b6000848152600191909101602090815260409182902080546001600160a01b0319166001600160a01b039485161790558151858152928416908301527f88a93678a3692f6789d9546fc621bf7234b101ddb7d4fe479455112831b8aa68910160405180910390a15050808061198490614d4f565b915050611822565b5050565b600061199a613d87565b6000938452600a01602090815260408085209385529290525090205460ff161590565b6000806119c8611bf6565b905060005b8151811015611ae65760008282815181106119ea576119ea614ced565b602002602001015190506119fc613db5565b600082815260019190910160205260409020546001600160a01b0316611a20613db5565b546040516321f8a72160e01b8152600481018490526001600160a01b03909116906321f8a72190602401602060405180830381865afa158015611a67573d6000803e3d6000fd5b505050506040513d601f19601f82011682018060405250810190611a8b9190614d1c565b6001600160a01b0316141580611ac457506000611aa6613db5565b600083815260019190910160205260409020546001600160a01b0316145b15611ad3576000935050505090565b5080611ade81614d4f565b9150506119cd565b50600191505090565b6000611af9613d87565b6000928352600801602052506040902054151590565b6000611b19613d2e565b8585611b258282611990565b15611b43576040516318f4d05960e31b815260040160405180910390fd5b611b4b6133e3565b15611b69576040516319a90b2f60e21b815260040160405180910390fd5b60405163aeb2d5bd60e01b81527310B4d625752E921c10135B5F8b8Be4864cb4a47f9063aeb2d5bd9061139b908b908b9033908c908c908c90600401614ad3565b611bb382611609565b611bbc81613edf565b611bc68383613ee9565b505050565b604051631eb5512b60e31b8152600481018390526001600160a01b0382166024820152604401611479565b60408051600580825260c082019092526060916020820160a080368337019050509050742132b0b1b7b7283937bc3ca1b7b73a3937b63632b960591b81600081518110611c4557611c45614ced565b6020026020010181815250507121bab93932b731bca1b7b73a3937b63632b960711b81600181518110611c7a57611c7a614ced565b6020026020010181815250507011d95b995cda5cd5985b1d5955985d5b1d607a1b81600281518110611cae57611cae614ced565b6020026020010181815250506a14995cd95c9d99519d5b9960aa1b81600381518110611cdc57611cdc614ced565b60200260200101818152505069151bdad95b95985d5b1d60b21b81600481518110611d0957611d09614ced565b60200260200101818152505090565b6000611d226133e3565b15611d40576040516319a90b2f60e21b815260040160405180910390fd5b611d586000805160206158a983398151915233612974565b611d755760405163a5523ee560e01b815260040160405180910390fd5b60405163428c3a8160e01b81526004810183905273F711f5fC74761c6EF8a13bBcA496c263F28c52789063428c3a81906024015b60006040518083038186803b158015611dc157600080fd5b505af4158015611dd5573d6000803e3d6000fd5b50505050600190505b919050565b6000611ded613d2e565b8383611df98282611990565b15611e17576040516318f4d05960e31b815260040160405180910390fd5b611e1f6133e3565b15611e3d576040516319a90b2f60e21b815260040160405180910390fd5b611e45613d87565b600087815260059190910160205260409020546001600160a01b031663f3f7f452611e6e613d87565b6000898152600a91909101602090815260408083208a84529091529081902054905160e083901b6001600160e01b031916815260ff909116600482015233602482015265ffffffffffff87166044820152606401600060405180830381600087803b158015611edc57600080fd5b505af1158015611ef0573d6000803e3d6000fd5b5050505060019250505061114d6001600055565b6000611f0e613d87565b60008381526005919091016020908152604091829020548251631e25031760e01b815292516001600160a01b0390911692631e2503179260048083019391928290030181865afa1580156111b6573d6000803e3d6000fd5b611f6e6133e3565b15611f8c576040516319a90b2f60e21b815260040160405180910390fd5b33611f9561296a565b6001600160a01b031614611fbb5760405162461bcd60e51b815260040161147990614d68565b604051634ebeb04960e01b815260048101849052602481018390526044810182905273F711f5fC74761c6EF8a13bBcA496c263F28c527890634ebeb0499060640160006040518083038186803b15801561201457600080fd5b505af4158015612028573d6000803e3d6000fd5b50505050505050565b600061203b613d87565b600092835260070160205250604090205490565b612057613d2e565b61205f6133e3565b1561207d576040516319a90b2f60e21b815260040160405180910390fd5b6040516353571ee760e01b81526004810182905273F711f5fC74761c6EF8a13bBcA496c263F28c5278906353571ee79060240160006040518083038186803b1580156120c857600080fd5b505af41580156120dc573d6000803e3d6000fd5b5050505073C75560416a5749aECAFEB1e9950071E646762333639519832b82612103613f60565b6040516001600160e01b031960e085901b16815260048101929092526001600160a01b03166024820152604401602060405180830381865af415801561214d573d6000803e3d6000fd5b505050506040513d601f19601f820116820180604052508101906121719190614a74565b5061217c6001600055565b50565b6000612189613d87565b600092835260030160205250604090205490565b336121a661296a565b6001600160a01b0316146121cc5760405162461bcd60e51b815260040161147990614d68565b6121d4613d87565b6000838152600591909101602052604090819020549051636aa65aaf60e01b8152600481018390526001600160a01b0390911690636aa65aaf906024015b600060405180830381600087803b15801561222c57600080fd5b505af1158015612240573d6000803e3d6000fd5b505050505050565b6000612252613d2e565b61225a6133e3565b15612278576040516319a90b2f60e21b815260040160405180910390fd5b604051631a88ea5760e21b81526004810184905260248101839052600090819073F711f5fC74761c6EF8a13bBcA496c263F28c527890636a23a95c9060440161010060405180830381865af41580156122d5573d6000803e3d6000fd5b505050506040513d601f19601f820116820180604052508101906122f99190614e17565b6040516305ed050d60e51b815291935091507310B4d625752E921c10135B5F8b8Be4864cb4a47f9063bda0a1a09061233c90889088906000908890600401614e4d565b60006040518083038186803b15801561235457600080fd5b505af4158015612368573d6000803e3d6000fd5b50506040516305ed050d60e51b81527310B4d625752E921c10135B5F8b8Be4864cb4a47f925063bda0a1a09150610ff990889088906001908790600401614e4d565b60405163386320d360e11b8152600481018390526001600160a01b03821660248201526000908190819073C75560416a5749aECAFEB1e9950071E646762333906370c641a690604401606060405180830381865af4158015612410573d6000803e3d6000fd5b505050506040513d601f19601f820116820180604052508101906124349190614ea9565b9250925092509250925092565b3361244a61296a565b6001600160a01b0316146124705760405162461bcd60e51b815260040161147990614d68565b61247a6000613f6a565b565b6000612486613d87565b54919050565b3361249561296a565b6001600160a01b0316146124bb5760405162461bcd60e51b815260040161147990614d68565b6124c3613d87565b6000838152600591909101602052604090819020549051636c5d6df160e01b8152600481018390526001600160a01b0390911690636c5d6df190602401612212565b600061250f613d87565b6000938452600a01602090815260408085209385529290525090205460ff1690565b600061253b613d87565b60009283526006016020525060409020546001600160a01b031690565b6000612562613d2e565b60405163104d68fd60e31b81526001600160a01b038316600482015273C75560416a5749aECAFEB1e9950071E6467623339063826b47e89060240160006040518083038186803b1580156125b557600080fd5b505af41580156125c9573d6000803e3d6000fd5b5050505060019050611dde6001600055565b336125e461296a565b6001600160a01b03161461260a5760405162461bcd60e51b815260040161147990614d68565b60405163083c2b5f60e41b8152600481018390526024810182905273F711f5fC74761c6EF8a13bBcA496c263F28c5278906383c2b5f0906044015b60006040518083038186803b15801561265d57600080fd5b505af4158015612240573d6000803e3d6000fd5b600033301461279f576001546201000090046001600160a01b0316156126aa576040516337affdbf60e11b815260040160405180910390fd5b6001805462010000600160b01b03191633620100000217905583836126cf8282611990565b156126ed576040516318f4d05960e31b815260040160405180910390fd5b6126f56133e3565b15612713576040516319a90b2f60e21b815260040160405180910390fd5b604051633099b3fd60e21b815273D7F3A4E32490e0584f22b12062a0dCdEc9f3571e9063c266cff49061275290339088908c908c908c90600401614ed7565b60006040518083038186803b15801561276a57600080fd5b505af415801561277e573d6000803e3d6000fd5b505050506001925050506001805462010000600160b01b0319169055612865565b83836127ab8282611990565b156127c9576040516318f4d05960e31b815260040160405180910390fd5b6127d16133e3565b156127ef576040516319a90b2f60e21b815260040160405180910390fd5b604051633099b3fd60e21b815273D7F3A4E32490e0584f22b12062a0dCdEc9f3571e9063c266cff49061282e90339088908c908c908c90600401614ed7565b60006040518083038186803b15801561284657600080fd5b505af415801561285a573d6000803e3d6000fd5b505050506001925050505b949350505050565b60006128776133e3565b80156110395750612886613d87565b6001600160a01b0383166000908152600e91909101602052604090205460ff161592915050565b60006128b7613d2e565b82826128c38282611990565b156128e1576040516318f4d05960e31b815260040160405180910390fd5b6128e96133e3565b15612907576040516319a90b2f60e21b815260040160405180910390fd5b6040516332b3123760e11b8152600481018690526024810185905233604482015273C75560416a5749aECAFEB1e9950071E64676233390636566246e90606401610ff9565b6000612956613d87565b600092835260080160205250604090205490565b60006111e4613fd7565b600061297e613e99565b6000938452602090815260408085206001600160a01b039490941685529290525090205460ff1690565b60006129b2613d2e565b6129ba6133e3565b6129d7576040516304d824a560e41b815260040160405180910390fd5b604051635dd3a2c160e01b815233600482015273C75560416a5749aECAFEB1e9950071E64676233390635dd3a2c19060240160006040518083038186803b158015612a2157600080fd5b505af4158015612a35573d6000803e3d6000fd5b5050505060019050612a476001600055565b90565b6000612a54613d2e565b604051639519832b60e01b8152600481018490526001600160a01b038316602482015273C75560416a5749aECAFEB1e9950071E64676233390639519832b90604401602060405180830381865af4158015612ab3573d6000803e3d6000fd5b505050506040513d601f19601f82011682018060405250810190612ad79190614a74565b90506110396001600055565b61217c6000805160206158a983398151915282611baa565b612b4a6040518061012001604052806000815260200160008152602001600081526020016000815260200160008152602001600081526020016000815260200160008152602001600081525090565b604080516345f1848f60e11b81526001600160a01b0386166004820152843560248201526020850135604482015290840135606482015260608401356084820152608084013560a482015260a084013560c482015260c084013560e4820152610104810183905273C75560416a5749aECAFEB1e9950071E64676233390638be3091e906101240161012060405180830381865af4158015612bef573d6000803e3d6000fd5b505050506040513d601f19601f8201168201806040525081019061114a9190614f08565b6000612c1d613d87565b60009283526005016020525060409020546001600160a01b031690565b6060612c44613d87565b600083815260059190910160205260409020546001600160a01b03166338b05852612c6d613d87565b6000858152600491820160205260409081902090516001600160e01b031960e085901b168152612c9d9201614f83565b600060405180830381865afa158015612cba573d6000803e3d6000fd5b505050506040513d6000823e601f3d908101601f191682016040526110399190810190615564565b612cea613d2e565b8115801590612cfe5750612cfe8383611990565b15612d1c576040516318f4d05960e31b815260040160405180910390fd5b60405163e21bd62360e01b81527310B4d625752E921c10135B5F8b8Be4864cb4a47f9063e21bd62390612d59908690869033908790600401614b11565b60006040518083038186803b158015612d7157600080fd5b505af4158015612d85573d6000803e3d6000fd5b50505050611bc66001600055565b600080612d9e613d87565b6001600160a01b0384166000908152600d919091016020526040812091505b612dc682614005565b811015612efc576000612dd9838361400f565b9050600073C75560416a5749aECAFEB1e9950071E64676233363b55c692f8360008960006040518563ffffffff1660e01b8152600401612e1c9493929190614b11565b61016060405180830381865af4158015612e3a573d6000803e3d6000fd5b505050506040513d601f19601f82011682018060405250810190612e5e9190614bca565b519050612e6961401b565b604051633c7f634960e11b815260048101849052602481018390526001600160a01b0391909116906378fec69290604401602060405180830381865afa158015612eb7573d6000803e3d6000fd5b505050506040513d601f19601f82011682018060405250810190612edb9190614a74565b612ee5908661560a565b945050508080612ef490614d4f565b915050612dbd565b5050919050565b60008060008060008060007310B4d625752E921c10135B5F8b8Be4864cb4a47f63724160ad896040518263ffffffff1660e01b8152600401612f459190615640565b60e060405180830381865af4158015612f62573d6000803e3d6000fd5b505050506040513d601f19601f82011682018060405250810190612f8691906156c4565b959e949d50929b5090995097509550909350915050565b61217c6000805160206158a9833981519152826133f8565b60608167ffffffffffffffff811115612fd057612fd0614b35565b60405190808252806020026020018201604052801561300357816020015b6060815260200190600190039081612fee5790505b50905060005b828110156130a3576130733085858481811061302757613027614ced565b90506020028101906130399190615724565b8080601f01602080910402602001604051908101604052809392919081815260200183838082843760009201919091525061402592505050565b82828151811061308557613085614ced565b6020026020010181905250808061309b90614d4f565b915050613009565b5092915050565b60006130b4613d2e565b82826130c08282611990565b156130de576040516318f4d05960e31b815260040160405180910390fd5b6130e66133e3565b15613104576040516319a90b2f60e21b815260040160405180910390fd5b6040516301402dfb60e31b815273C75560416a5749aECAFEB1e9950071E64676233390630a016fd89061314290889088903390600090600401614b11565b602060405180830381865af415801561315f573d6000803e3d6000fd5b505050506040513d601f19601f820116820180604052508101906131839190614a74565b506001925050506110396001600055565b600061319e613d87565b6000938452600f0160209081526040808520938552929052509020546001600160a01b031690565b6131ce6133e3565b156131ec576040516319a90b2f60e21b815260040160405180910390fd5b336131f561296a565b6001600160a01b03161461321b5760405162461bcd60e51b815260040161147990614d68565b73F711f5fC74761c6EF8a13bBcA496c263F28c527863b8f117cd6040518163ffffffff1660e01b815260040160006040518083038186803b15801561325f57600080fd5b505af4158015611579573d6000803e3d6000fd5b6000333014613354576001546201000090046001600160a01b0316156132ac576040516337affdbf60e11b815260040160405180910390fd5b6001805462010000600160b01b03191633620100000217905583836132d18282611990565b156132ef576040516318f4d05960e31b815260040160405180910390fd5b6132f76133e3565b15613315576040516319a90b2f60e21b815260040160405180910390fd5b604051635436151f60e11b815273D7F3A4E32490e0584f22b12062a0dCdEc9f3571e9063a86c2a3e9061275290339088908c908c908c90600401614ed7565b83836133608282611990565b1561337e576040516318f4d05960e31b815260040160405180910390fd5b6133866133e3565b156133a4576040516319a90b2f60e21b815260040160405180910390fd5b604051635436151f60e11b815273D7F3A4E32490e0584f22b12062a0dCdEc9f3571e9063a86c2a3e9061282e90339088908c908c908c90600401614ed7565b6000806133ee613d87565b6001015411905090565b336001600160a01b0382160361343357604051631eb5512b60e31b8152600481018390526001600160a01b0382166024820152604401611479565b61198c828261404a565b6000613447613d2e565b85856134538282611990565b15613471576040516318f4d05960e31b815260040160405180910390fd5b6134796133e3565b15613497576040516319a90b2f60e21b815260040160405180910390fd5b61349f613de3565b6040516396994e3760e01b8152336004820152602481018a9052604481018790526001600160a01b0391909116906396994e379034906064016000604051808303818588803b1580156134f157600080fd5b505af1158015613505573d6000803e3d6000fd5b505060405163aeb2d5bd60e01b81527310B4d625752E921c10135B5F8b8Be4864cb4a47f935063aeb2d5bd925061139b91508b908b9033908c908c908c90600401614ad3565b6000613555613d2e565b89896135618282611990565b1561357f576040516318f4d05960e31b815260040160405180910390fd5b6135876133e3565b156135a5576040516319a90b2f60e21b815260040160405180910390fd5b6135ad613de3565b6001600160a01b03166360819025338e8c8b8b8b8b6040518863ffffffff1660e01b81526004016135e49796959493929190615772565b600060405180830381600087803b1580156135fe57600080fd5b505af1158015613612573d6000803e3d6000fd5b505050507310B4d625752E921c10135B5F8b8Be4864cb4a47f63606c3acd8d8d338e8e8e6040518763ffffffff1660e01b815260040161365796959493929190614ad3565b60006040518083038186803b15801561366f57600080fd5b505af4158015613683573d6000803e3d6000fd5b505050506001925050506136976001600055565b9998505050505050505050565b6136ac6133e3565b156136ca576040516319a90b2f60e21b815260040160405180910390fd5b336136d361296a565b6001600160a01b0316146136f95760405162461bcd60e51b815260040161147990614d68565b60405163e3a9833360e01b8152600481018390526024810182905273F711f5fC74761c6EF8a13bBcA496c263F28c52789063e3a9833390604401612645565b6060613742613d87565b60040160008381526020019081526020016000208054806020026020016040519081016040528092919081815260200182805480156137be57602002820191906000526020600020906000905b825461010083900a900460ff1681526020600192830181810494850194909303909202910180841161378f5790505b50505050509050919050565b600073C75560416a5749aECAFEB1e9950071E64676233363c59cf0e9836137ef613d87565b6007016000878152602001908152602001600020546040518363ffffffff1660e01b815260040161382a929190918252602082015260400190565b602060405180830381865af4158015613847573d6000803e3d6000fd5b505050506040513d601f19601f8201168201806040525081019061114d9190614a74565b613873613d2e565b61387b6133e3565b15613899576040516319a90b2f60e21b815260040160405180910390fd5b81158015906138ad57506138ad8383611990565b156138cb576040516318f4d05960e31b815260040160405180910390fd5b60405163912da51560e01b81527310B4d625752E921c10135B5F8b8Be4864cb4a47f9063912da51590612d59908690869033908790600401614b11565b3361391161296a565b6001600160a01b0316146139375760405162461bcd60e51b815260040161147990614d68565b61394086611aef565b1561395d5760405162dc149f60e41b815260040160405180910390fd5b60405163ea57481760e01b8152600481018790526024810186905260448101859052606481018490526084810183905260a4810182905273F711f5fC74761c6EF8a13bBcA496c263F28c52789063ea5748179060c40160006040518083038186803b1580156139cb57600080fd5b505af41580156139df573d6000803e3d6000fd5b50505050505050505050565b60006139f5613d2e565b8989613a018282611990565b15613a1f576040516318f4d05960e31b815260040160405180910390fd5b613a276133e3565b15613a45576040516319a90b2f60e21b815260040160405180910390fd5b613a4d613de3565b6001600160a01b03166360819025338e8c8b8b8b8b6040518863ffffffff1660e01b8152600401613a849796959493929190615772565b600060405180830381600087803b158015613a9e57600080fd5b505af1158015613ab2573d6000803e3d6000fd5b505050507310B4d625752E921c10135B5F8b8Be4864cb4a47f63aeb2d5bd8d8d338e8e8e6040518763ffffffff1660e01b815260040161365796959493929190614ad3565b6000613b01613d87565b6000938452600901602090815260408085209385529290525090205490565b33613b2961296a565b6001600160a01b031614613b4f5760405162461bcd60e51b815260040161147990614d68565b6001600160a01b038116613bb45760405162461bcd60e51b815260206004820152602660248201527f4f776e61626c653a206e6577206f776e657220697320746865207a65726f206160448201526564647265737360d01b6064820152608401611479565b61217c81613f6a565b6000613bc7613d2e565b8585613bd38282611990565b15613bf1576040516318f4d05960e31b815260040160405180910390fd5b613bf96133e3565b15613c17576040516319a90b2f60e21b815260040160405180910390fd5b60405163606c3acd60e01b81527310B4d625752E921c10135B5F8b8Be4864cb4a47f9063606c3acd9061139b908b908b9033908c908c908c90600401614ad3565b6000613c626133e3565b15613c80576040516319a90b2f60e21b815260040160405180910390fd5b613c986000805160206158a983398151915233612974565b613cb55760405163a5523ee560e01b815260040160405180910390fd5b60405163f4a0997f60e01b81526004810183905273F711f5fC74761c6EF8a13bBcA496c263F28c52789063f4a0997f90602401611da9565b6060611039613cfa613d87565b6001600160a01b0384166000908152600d9190910160205260409020614066565b6000613d25613d87565b60010154905090565b600260005403613d805760405162461bcd60e51b815260206004820152601f60248201527f5265656e7472616e637947756172643a207265656e7472616e742063616c6c006044820152606401611479565b6002600055565b60008061103960017f8041b8421ebd495cc61f38c788c9eb100daccf9bd36aa0bb920b7a15b2e049656157b0565b60008061103960017f4abde63c3e81aefa5764b017968bc473e83e093d7e1a10247d19e0a3e41240186157b0565b6000613ded614073565b905090565b60007f360894a13ba1a3210667c828492db98dca3e2076cc3735a920a3ca505d382bbc6111e4565b613e25600082613ee9565b61217c6000805160206158a983398151915282613ee9565b6000613e47613db5565b546001600160a01b031614613e6f576040516304b79d6360e51b815260040160405180910390fd5b80613e78613db5565b80546001600160a01b0319166001600160a01b039290921691909117905550565b60008061103960017f35e4a72724550e3953b041d501f29ff9ff417812c2917a203d9c4833b9d1d6f96157b0565b6000818152600183016020526040812054151561114d565b61217c813361408b565b613ef38282612974565b61198c576001613f01613e99565b6000848152602091825260408082206001600160a01b0386168084529352808220805460ff1916941515949094179093559151339285917f2f8788117e7eff1d82e926ec794901d17c78024a50270940304540a733656f0d9190a45050565b6000613ded6140ef565b6000613f74613fd7565b546001600160a01b0316905081613f89613fd7565b80546001600160a01b0319166001600160a01b03928316179055604051838216918316907f8be0079c531659141344cd1fd0a4f28419497f9722a3daafe3b4186f6b6457e090600090a35050565b60008061103960017f9acda75aebd150dd434541a4747a6dc606f4f1a59662477e67daf1fc0bf9e0aa6157b0565b6000611039825490565b600061114d8383614108565b6000613ded614132565b606061114d83836040518060600160405280602781526020016158c960279139614152565b61405382611609565b61405c81613edf565b611bc683836141ca565b6060600061114d83614242565b6000613ded69151bdad95b95985d5b1d60b21b61429d565b6140958282612974565b61198c576140ad816001600160a01b031660146142fe565b6140b88360206142fe565b6040516020016140c99291906157c3565b60408051601f198184030181529082905262461bcd60e51b825261147991600401615838565b6000613ded6a14995cd95c9d99519d5b9960aa1b61429d565b600082600001828154811061411f5761411f614ced565b9060005260206000200154905092915050565b6000613ded7121bab93932b731bca1b7b73a3937b63632b960711b61429d565b6060600080856001600160a01b03168560405161416f919061584b565b600060405180830381855af49150503d80600081146141aa576040519150601f19603f3d011682016040523d82523d6000602084013e6141af565b606091505b50915091506141c08683838761449a565b9695505050505050565b6141d48282612974565b1561198c5760006141e3613e99565b6000848152602091825260408082206001600160a01b0386168084529352808220805460ff1916941515949094179093559151339285917ff6391f5c32d9c69d2a47ea670b442974b53935d1edc7fd64eb21e047a839171b9190a45050565b6060816000018054806020026020016040519081016040528092919081815260200182805480156137be57602002820191906000526020600020905b81548152602001906001019080831161427e5750505050509050919050565b6000806142a8613db5565b600084815260019190910160205260409020546001600160a01b03169050806110395760408051602081018590520160408051601f19818403018152908290526346e2ec9360e01b825261147991600401615838565b6060600061430d836002615867565b61431890600261587e565b67ffffffffffffffff81111561433057614330614b35565b6040519080825280601f01601f19166020018201604052801561435a576020820181803683370190505b509050600360fc1b8160008151811061437557614375614ced565b60200101906001600160f81b031916908160001a905350600f60fb1b816001815181106143a4576143a4614ced565b60200101906001600160f81b031916908160001a90535060006143c8846002615867565b6143d390600161587e565b90505b600181111561444b576f181899199a1a9b1b9c1cb0b131b232b360811b85600f166010811061440757614407614ced565b1a60f81b82828151811061441d5761441d614ced565b60200101906001600160f81b031916908160001a90535060049490941c9361444481615891565b90506143d6565b50831561114d5760405162461bcd60e51b815260206004820181905260248201527f537472696e67733a20686578206c656e67746820696e73756666696369656e746044820152606401611479565b60608315614509578251600003614502576001600160a01b0385163b6145025760405162461bcd60e51b815260206004820152601d60248201527f416464726573733a2063616c6c20746f206e6f6e2d636f6e74726163740000006044820152606401611479565b5081612865565b612865838381511561451e5781518083602001fd5b8060405162461bcd60e51b81526004016114799190615838565b6000806040838503121561454b57600080fd5b50508035926020909101359150565b60006020828403121561456c57600080fd5b81356001600160e01b03198116811461114d57600080fd5b60006020828403121561459657600080fd5b5035919050565b6001600160a01b038116811461217c57600080fd5b6000806000606084860312156145c757600080fd5b833592506020840135915060408401356145e08161459d565b809150509250925092565b803560028110611dde57600080fd5b600080600080600060a0868803121561461257600080fd5b8535945060208601359350614629604087016145eb565b94979396509394606081013594506080013592915050565b60008060006060848603121561465657600080fd5b83356146618161459d565b925060208401356146718161459d565b929592945050506040919091013590565b6000806040838503121561469557600080fd5b8235915060208301356146a78161459d565b809150509250929050565b6000806000606084860312156146c757600080fd5b8335925060208401356146718161459d565b6000602082840312156146eb57600080fd5b813561114d8161459d565b6020808252825182820181905260009190848201906040850190845b8181101561472e57835183529284019291840191600101614712565b50909695505050505050565b65ffffffffffff8116811461217c57600080fd5b60008060006060848603121561476357600080fd5b833592506020840135915060408401356145e08161473a565b60008060006060848603121561479157600080fd5b505081359360208301359350604090920135919050565b600080600080608085870312156147be57600080fd5b84359350602085013592506040850135915060608501356147de8161459d565b939692955090935050565b600080600083850361012081121561480057600080fd5b843561480b8161459d565b935060e0601f198201121561481f57600080fd5b5060208401915061010084013590509250925092565b6000610100828403121561484857600080fd5b50919050565b6000806020838503121561486157600080fd5b823567ffffffffffffffff8082111561487957600080fd5b818501915085601f83011261488d57600080fd5b81358181111561489c57600080fd5b8660208260051b85010111156148b157600080fd5b60209290920196919550909350505050565b60005b838110156148de5781810151838201526020016148c6565b50506000910152565b600081518084526148ff8160208601602086016148c3565b601f01601f19169290920160200192915050565b6000602080830181845280855180835260408601915060408160051b870101925083870160005b8281101561496857603f198886030184526149568583516148e7565b9450928501929085019060010161493a565b5092979650505050505050565b60008060008060008060008060006101208a8c03121561499457600080fd5b8935985060208a013597506149ab60408b016145eb565b965060608a0135955060808a0135945060a08a0135935060c08a013560ff811681146149d657600080fd5b8093505060e08a013591506101008a013590509295985092959850929598565b6020808252825182820181905260009190848201906040850190845b8181101561472e57835160ff1683529284019291840191600101614a12565b60008060008060008060c08789031215614a4a57600080fd5b505084359660208601359650604086013595606081013595506080810135945060a0013592509050565b600060208284031215614a8657600080fd5b5051919050565b60008060408385031215614aa057600080fd5b505080516020909101519092909150565b60028110614acf57634e487b7160e01b600052602160045260246000fd5b9052565b868152602081018690526001600160a01b038516604082015260c08101614afd6060830186614ab1565b608082019390935260a00152949350505050565b93845260208401929092526001600160a01b03166040830152606082015260800190565b634e487b7160e01b600052604160045260246000fd5b604051610160810167ffffffffffffffff81118282101715614b6f57614b6f614b35565b60405290565b604051610120810167ffffffffffffffff81118282101715614b6f57614b6f614b35565b604051601f8201601f1916810167ffffffffffffffff81118282101715614bc257614bc2614b35565b604052919050565b60006101608284031215614bdd57600080fd5b614be5614b4b565b825181526020830151602082015260408301516040820152606083015160608201526080830151608082015260a083015160a082015260c083015160c082015260e083015160e08201526101008084015181830152506101208084015181830152506101408084015181830152508091505092915050565b6000610100808385031215614c7157600080fd5b6040519081019067ffffffffffffffff82118183101715614c9457614c94614b35565b81604052835181526020840151602082015260408401516040820152606084015160608201526080840151608082015260a084015160a082015260c084015160c082015260e084015160e0820152809250505092915050565b634e487b7160e01b600052603260045260246000fd5b82815260406020820152600061114a60408301846148e7565b600060208284031215614d2e57600080fd5b815161114d8161459d565b634e487b7160e01b600052601160045260246000fd5b600060018201614d6157614d61614d39565b5060010190565b6020808252818101527f4f776e61626c653a2063616c6c6572206973206e6f7420746865206f776e6572604082015260600190565b600060808284031215614daf57600080fd5b6040516080810181811067ffffffffffffffff82111715614dd257614dd2614b35565b80604052508091508251614de58161473a565b81526020830151614df58161459d565b8060208301525060408301516040820152606083015160608201525092915050565b6000806101008385031215614e2b57600080fd5b614e358484614d9d565b9150614e448460808501614d9d565b90509250929050565b8481526020810184905260e08101614e686040830185614ab1565b825165ffffffffffff1660608381019190915260208401516001600160a01b03166080840152604084015160a08401529092015160c0909101529392505050565b600080600060608486031215614ebe57600080fd5b8351925060208401519150604084015190509250925092565b6001600160a01b03958616815293909416602084015260408301919091526060820152608081019190915260a00190565b60006101208284031215614f1b57600080fd5b614f23614b75565b825181526020830151602082015260408301516040820152606083015160608201526080830151608082015260a083015160a082015260c083015160c082015260e083015160e08201526101008084015181830152508091505092915050565b60006020808301818452808554614f9e818490815260200190565b60008881526020812094509092505b81601f8201101561522757835460ff8082168552600882901c8116878601526040614fe1818701838560101c1660ff169052565b6060614ff6818801848660181c1660ff169052565b608061500a81890185878d1c1660ff169052565b60a061501f818a01868860281c1660ff169052565b60c0615034818b01878960301c1660ff169052565b60e0615049818c01888a60381c1660ff169052565b60ff88871c8816166101008c015261506c6101208c01888a60481c1660ff169052565b6150816101408c01888a60501c1660ff169052565b6150966101608c01888a60581c1660ff169052565b60ff88861c8816166101808c01526150b96101a08c01888a60681c1660ff169052565b6150ce6101c08c01888a60701c1660ff169052565b6150e36101e08c01888a60781c1660ff169052565b60ff88851c8816166102008c01526151066102208c01888a60881c1660ff169052565b61511b6102408c01888a60901c1660ff169052565b6151306102608c01888a60981c1660ff169052565b60ff88841c8816166102808c01526151536102a08c01888a60a81c1660ff169052565b6151686102c08c01888a60b01c1660ff169052565b61517d6102e08c01888a60b81c1660ff169052565b60ff88831c8816166103008c01526151a06103208c01888a60c81c1660ff169052565b6151b56103408c01888a60d01c1660ff169052565b6151ca6103608c01888a60d81c1660ff169052565b60ff88821c8816166103808c01525050505050506151f36103a08601828460e81c1660ff169052565b6152086103c08601828460f01c1660ff169052565b5060f81c6103e084015260019390930192610400909201918401614fad565b925492818110156152405760ff84168352918401916001015b8181101561525a57600884901c60ff168352918401916001015b8181101561527457601084901c60ff168352918401916001015b8181101561528e57601884901c60ff168352918401916001015b818110156152a65783851c60ff168352918401916001015b818110156152c057602884901c60ff168352918401916001015b818110156152da57603084901c60ff168352918401916001015b818110156152f457603884901c60ff168352918401916001015b8181101561530e57604084901c60ff168352918401916001015b8181101561532857604884901c60ff168352918401916001015b8181101561534257605084901c60ff168352918401916001015b8181101561535c57605884901c60ff168352918401916001015b8181101561537657606084901c60ff168352918401916001015b8181101561539057606884901c60ff168352918401916001015b818110156153aa57607084901c60ff168352918401916001015b818110156153c457607884901c60ff168352918401916001015b818110156153de57608084901c60ff168352918401916001015b818110156153f857608884901c60ff168352918401916001015b8181101561541257609084901c60ff168352918401916001015b8181101561542c57609884901c60ff168352918401916001015b818110156154465760a084901c60ff168352918401916001015b818110156154605760a884901c60ff168352918401916001015b8181101561547a5760b084901c60ff168352918401916001015b818110156154945760b884901c60ff168352918401916001015b818110156154ae5760c084901c60ff168352918401916001015b818110156154c85760c884901c60ff168352918401916001015b818110156154e25760d084901c60ff168352918401916001015b818110156154fc5760d884901c60ff168352918401916001015b818110156155165760e084901c60ff168352918401916001015b818110156155305760e884901c60ff168352918401916001015b8181101561554a5760f084901c60ff168352918401916001015b8181101561472e57505060f89190911c8152019392505050565b6000602080838503121561557757600080fd5b825167ffffffffffffffff8082111561558f57600080fd5b818501915085601f8301126155a357600080fd5b8151818111156155b5576155b5614b35565b8060051b91506155c6848301614b99565b81815291830184019184810190888411156155e057600080fd5b938501935b838510156155fe578451825293850193908501906155e5565b98975050505050505050565b808201828112600083128015821682158216171561562a5761562a614d39565b505092915050565b801515811461217c57600080fd5b8135815260208083013590820152610100810160408301356156618161459d565b6001600160a01b0316604083015261567b606084016145eb565b6156886060840182614ab1565b506080830135608083015260a083013560a083015260c083013560c083015260e08301356156b581615632565b80151560e08401525092915050565b600080600080600080600060e0888a0312156156df57600080fd5b875196506020880151955060408801519450606088015193506080880151925060a0880151915060c088015161571481615632565b8091505092959891949750929550565b6000808335601e1984360301811261573b57600080fd5b83018035915067ffffffffffffffff82111561575657600080fd5b60200191503681900382131561576b57600080fd5b9250929050565b6001600160a01b0397909716875260208701959095526040860193909352606085019190915260ff16608084015260a083015260c082015260e00190565b8181038181111561103957611039614d39565b7f416363657373436f6e74726f6c3a206163636f756e74200000000000000000008152600083516157fb8160178501602088016148c3565b7001034b99036b4b9b9b4b733903937b6329607d1b601791840191820152835161582c8160288401602088016148c3565b01602801949350505050565b60208152600061114d60208301846148e7565b6000825161585d8184602087016148c3565b9190910192915050565b808202811582820484141761103957611039614d39565b8082018082111561103957611039614d39565b6000816158a0576158a0614d39565b50600019019056fe97667070c54ef182b0f5858b034beac1b6f3089aa2d3188bb1e8929f4fa9b929416464726573733a206c6f772d6c6576656c2064656c65676174652063616c6c206661696c6564a2646970667358221220ea946036fe7a92761569896ce543b2e1fd66e39e8b4985d2aac32f0e38456a2c64736f6c63430008130033",
  "deployedBytecode": "0x60806040526004361061045d5760003560e01c80638469973f1161023f578063b4dafc9011610139578063e9eb03b3116100b6578063f43947c71161007a578063f43947c714610ec7578063f4a0997f14610ee7578063f5b541a614610f07578063fc70081014610f29578063ff5c086b14610f4957600080fd5b8063e9eb03b314610e27578063ea57481714610e47578063ebd358fd14610e67578063f03bc5a514610e87578063f2fde38b14610ea757600080fd5b8063e0a17443116100fd578063e0a1744314610d87578063e30cdb1914610d9a578063e3a9833314610dba578063e6977c6a14610dda578063e8c9af6314610e0757600080fd5b8063b4dafc9014610cfd578063b8f117cd14610d1d578063c11333b114610d32578063d1cc997614610d52578063d547741f14610d6757600080fd5b80639e0998b2116101c7578063a4c66bde1161018b578063a4c66bde14610c19578063abc6f02514610c39578063ac8a584a14610c90578063ac9650d814610cb0578063b1d0f2f014610cdd57600080fd5b80639e0998b214610b175780639f6c315914610ba4578063a02be3dc14610bc4578063a217fddf14610be4578063a38f31fe14610bf957600080fd5b80638da5cb5b1161020e5780638da5cb5b14610a8d57806391d1485414610aa257806394e75a3e14610ac25780639519832b14610ad75780639870d7fe14610af757600080fd5b80638469973f14610a0d578063862fd6e514610a2d578063886f4b4514610a4d578063891d596514610a6d57600080fd5b80632f2ff15d1161035b5780635ca65d57116102d85780637b588aaa1161029c5780637b588aaa1461095b57806380a7de861461097b578063812784b0146109ad578063826b47e8146109cd57806383c2b5f0146109ed57600080fd5b80635ca65d57146108b65780636a23a95c146108d657806370c641a6146108f6578063715018a614610931578063733ac7fc1461094657600080fd5b80634e78fecc1161031f5780634e78fecc146108165780634ebeb0491461083657806352239c701461085657806353571ee71461087657806354227dec1461089657600080fd5b80632f2ff15d1461077457806336568abe146107945780633d03b9da146107b4578063428c3a81146107d657806349f2ccbf146107f657600080fd5b80631794bb3c116103e957806329985e5a116103ad57806329985e5a146106ea5780632a301496146106ff5780632af64bd31461071f5780632e6c5e67146107345780632ef5ddaf1461075457600080fd5b80631794bb3c146105cc57806317b72ff4146105ee578063248a9ca31461060e57806324e4ae051461062e5780632717654e146106af57600080fd5b806303e5fb591161043057806303e5fb591461052357806304f3bcec14610543578063062ea294146105705780630b60d6d3146105a55780631316529d146105b857600080fd5b806301cf22351461046257806301ffc9a714610497578063021b89d4146104b757806303cc9240146104f5575b600080fd5b34801561046e57600080fd5b5061048261047d366004614538565b610f5e565b60405190151581526020015b60405180910390f35b3480156104a357600080fd5b506104826104b236600461455a565b61103f565b3480156104c357600080fd5b506104d76104d2366004614584565b611074565b604080518251815260209283015160ff16928101929092520161048e565b34801561050157600080fd5b506105156105103660046145b2565b6110be565b60405190815260200161048e565b34801561052f57600080fd5b5061051561053e366004614584565b611154565b34801561054f57600080fd5b506105586111da565b6040516001600160a01b03909116815260200161048e565b34801561057c57600080fd5b5061059061058b3660046145b2565b6111f3565b6040805192835260208301919091520161048e565b6104826105b33660046145fa565b61128d565b3480156105c457600080fd5b506002610515565b3480156105d857600080fd5b506105ec6105e7366004614641565b6113e4565b005b3480156105fa57600080fd5b50610515610609366004614682565b61157f565b34801561061a57600080fd5b50610515610629366004614584565b611609565b34801561063a57600080fd5b5061064e6106493660046146b2565b611627565b60405161048e9190600061010082019050825182526020830151602083015260408301516040830152606083015160608301526080830151608083015260a083015160a083015260c083015160c083015260e083015160e083015292915050565b3480156106bb57600080fd5b506106cf6106ca3660046146d9565b6117be565b6040805182518152602092830151928101929092520161048e565b3480156106f657600080fd5b506105ec611813565b34801561070b57600080fd5b5061048261071a366004614538565b611990565b34801561072b57600080fd5b506104826119bd565b34801561074057600080fd5b5061048261074f366004614584565b611aef565b34801561076057600080fd5b5061048261076f3660046145fa565b611b0f565b34801561078057600080fd5b506105ec61078f366004614682565b611baa565b3480156107a057600080fd5b506105ec6107af366004614682565b611bcb565b3480156107c057600080fd5b506107c9611bf6565b60405161048e91906146f6565b3480156107e257600080fd5b506104826107f1366004614584565b611d18565b34801561080257600080fd5b5061048261081136600461474e565b611de3565b34801561082257600080fd5b50610515610831366004614584565b611f04565b34801561084257600080fd5b506105ec61085136600461477c565b611f66565b34801561086257600080fd5b50610515610871366004614584565b612031565b34801561088257600080fd5b506105ec610891366004614584565b61204f565b3480156108a257600080fd5b506105156108b1366004614584565b61217f565b3480156108c257600080fd5b506105ec6108d1366004614538565b61219d565b3480156108e257600080fd5b506104826108f1366004614538565b612248565b34801561090257600080fd5b50610916610911366004614682565b6123aa565b6040805193845260208401929092529082015260600161048e565b34801561093d57600080fd5b506105ec612441565b34801561095257600080fd5b5061051561247c565b34801561096757600080fd5b506105ec610976366004614538565b61248c565b34801561098757600080fd5b5061099b610996366004614538565b612505565b60405160ff909116815260200161048e565b3480156109b957600080fd5b506105586109c8366004614584565b612531565b3480156109d957600080fd5b506104826109e83660046146d9565b612558565b3480156109f957600080fd5b506105ec610a08366004614538565b6125db565b348015610a1957600080fd5b50610482610a283660046147a8565b612671565b348015610a3957600080fd5b50610482610a483660046146d9565b61286d565b348015610a5957600080fd5b50610482610a68366004614538565b6128ad565b348015610a7957600080fd5b50610515610a88366004614584565b61294c565b348015610a9957600080fd5b5061055861296a565b348015610aae57600080fd5b50610482610abd366004614682565b612974565b348015610ace57600080fd5b506104826129a8565b348015610ae357600080fd5b50610515610af2366004614682565b612a4a565b348015610b0357600080fd5b506105ec610b123660046146d9565b612ae3565b348015610b2357600080fd5b50610b37610b323660046147e9565b612afb565b60405161048e9190600061012082019050825182526020830151602083015260408301516040830152606083015160608301526080830151608083015260a083015160a083015260c083015160c083015260e083015160e083015261010080840151818401525092915050565b348015610bb057600080fd5b50610558610bbf366004614584565b612c13565b348015610bd057600080fd5b506107c9610bdf366004614584565b612c3a565b348015610bf057600080fd5b50610515600081565b348015610c0557600080fd5b506105ec610c1436600461477c565b612ce2565b348015610c2557600080fd5b50610515610c343660046146d9565b612d93565b348015610c4557600080fd5b50610c59610c54366004614835565b612f03565b604080519788526020880196909652948601939093526060850191909152608084015260a0830152151560c082015260e00161048e565b348015610c9c57600080fd5b506105ec610cab3660046146d9565b612f9d565b348015610cbc57600080fd5b50610cd0610ccb36600461484e565b612fb5565b60405161048e9190614913565b348015610ce957600080fd5b50610482610cf8366004614538565b6130aa565b348015610d0957600080fd5b50610558610d18366004614538565b613194565b348015610d2957600080fd5b506105ec6131c6565b348015610d3e57600080fd5b50610482610d4d3660046147a8565b613273565b348015610d5e57600080fd5b506104826133e3565b348015610d7357600080fd5b506105ec610d82366004614682565b6133f8565b610482610d953660046145fa565b61343d565b348015610da657600080fd5b50610482610db5366004614975565b61354b565b348015610dc657600080fd5b506105ec610dd5366004614538565b6136a4565b348015610de657600080fd5b50610dfa610df5366004614584565b613738565b60405161048e91906149f6565b348015610e1357600080fd5b50610515610e22366004614538565b6137ca565b348015610e3357600080fd5b506105ec610e4236600461477c565b61386b565b348015610e5357600080fd5b506105ec610e62366004614a31565b613908565b348015610e7357600080fd5b50610482610e82366004614975565b6139eb565b348015610e9357600080fd5b50610515610ea2366004614538565b613af7565b348015610eb357600080fd5b506105ec610ec23660046146d9565b613b20565b348015610ed357600080fd5b50610482610ee23660046145fa565b613bbd565b348015610ef357600080fd5b50610482610f02366004614584565b613c58565b348015610f1357600080fd5b506105156000805160206158a983398151915281565b348015610f3557600080fd5b506107c9610f443660046146d9565b613ced565b348015610f5557600080fd5b50610515613d1b565b6000610f68613d2e565b8282610f748282611990565b15610f92576040516318f4d05960e31b815260040160405180910390fd5b610f9a6133e3565b15610fb8576040516319a90b2f60e21b815260040160405180910390fd5b604051632097fb8960e01b8152600481018690526024810185905233604482015273__$bfa1fc126f9f960b1bd3bae8c14d9c594e$__90632097fb89906064015b60006040518083038186803b15801561101157600080fd5b505af4158015611025573d6000803e3d6000fd5b505050506001925050506110396001600055565b92915050565b60006001600160e01b03198216637965db0b60e01b148061103957506301ffc9a760e01b6001600160e01b0319831614611039565b6040805180820190915260008082526020820152611090613d87565b600092835260020160209081526040928390208351808501909452805484526001015460ff16908301525090565b604051620f324960e61b815260048101849052602481018390526001600160a01b038216604482015260009073__$bfa1fc126f9f960b1bd3bae8c14d9c594e$__906303cc924090606401602060405180830381865af4158015611126573d6000803e3d6000fd5b505050506040513d601f19601f8201168201806040525081019061114a9190614a74565b90505b9392505050565b600061115e613d87565b6000838152600591909101602090815260409182902054825163128e5b8560e01b815292516001600160a01b039091169263128e5b859260048083019391928290030181865afa1580156111b6573d6000803e3d6000fd5b505050506040513d601f19601f820116820180604052508101906110399190614a74565b60006111e4613db5565b546001600160a01b0316919050565b60405163018ba8a560e21b815260048101849052602481018390526001600160a01b0382166044820152600090819073__$e7d72ce98f1dce1f33c815a57604cff5ab$__9063062ea294906064016040805180830381865af415801561125d573d6000803e3d6000fd5b505050506040513d601f19601f820116820180604052508101906112819190614a8d565b90969095509350505050565b6000611297613d2e565b85856112a38282611990565b156112c1576040516318f4d05960e31b815260040160405180910390fd5b6112c96133e3565b156112e7576040516319a90b2f60e21b815260040160405180910390fd5b6112ef613de3565b6040516396994e3760e01b8152336004820152602481018a9052604481018790526001600160a01b0391909116906396994e379034906064016000604051808303818588803b15801561134157600080fd5b505af1158015611355573d6000803e3d6000fd5b505060405163606c3acd60e01b815273__$bfa1fc126f9f960b1bd3bae8c14d9c594e$__935063606c3acd925061139b91508b908b9033908c908c908c90600401614ad3565b60006040518083038186803b1580156113b357600080fd5b505af41580156113c7573d6000803e3d6000fd5b505050506001925050506113db6001600055565b95945050505050565b600154610100900460ff161580801561140157506001805460ff16105b8061141a5750303b15801561141a57506001805460ff16145b6114825760405162461bcd60e51b815260206004820152602e60248201527f496e697469616c697a61626c653a20636f6e747261637420697320616c72656160448201526d191e481a5b9a5d1a585b1a5e995960921b60648201526084015b60405180910390fd5b6001805460ff19168117905580156114a4576001805461ff0019166101001790555b60006114ae613df2565b6001600160a01b03160361150f5760405162461bcd60e51b815260206004820152602260248201527f4d7573742062652063616c6c65642066726f6d2070726f787920636f6e74726160448201526118dd60f21b6064820152608401611479565b81611518613d87565b5561152284613bb4565b61152b84613e1a565b61153483613e3d565b8015611579576001805461ff00191681556040519081527f7f26b83ff96e1f2b6a682f133852f6798a09c465da95921460cefb38474024989060200160405180910390a15b50505050565b60405163b55c692f60e01b815260009073__$e7d72ce98f1dce1f33c815a57604cff5ab$__9063b55c692f906115bf908690859087908290600401614b11565b61016060405180830381865af41580156115dd573d6000803e3d6000fd5b505050506040513d601f19601f820116820180604052508101906116019190614bca565b519392505050565b6000611613613e99565b600092835260205250604090206001015490565b61166f60405180610100016040528060008152602001600081526020016000815260200160008152602001600081526020016000815260200160008152602001600081525090565b61169d8461167b613d87565b6001600160a01b0386166000908152600d919091016020526040902090613ec7565b1561114d576116e56040518060e00160405280600080191681526020016000815260200160008152602001600081526020016000815260200160008152602001600081525090565b60408051639349fb4160e01b8152600481018790526001600160a01b03861660248201528251604482015260208301516064820152908201516084820152606082015160a4820152608082015160c482015260a082015160e482015260c0820151610104820152610124810184905273__$e7d72ce98f1dce1f33c815a57604cff5ab$__90639349fb41906101440161010060405180830381865af4158015611792573d6000803e3d6000fd5b505050506040513d601f19601f820116820180604052508101906117b69190614c5d565b91505061114d565b60408051808201909152600080825260208201526117da613d87565b6001600160a01b039092166000908152601092909201602090815260409283902083518085019094528054845260010154908301525090565b600061181d611bf6565b905060005b815181101561198c57600082828151811061183f5761183f614ced565b602002602001015190506000611853613db5565b54604080517f5265736f6c766572206d697373696e67207461726765743a200000000000000060208201526039808201869052825180830390910181526059820192839052636795dbcd60e01b9092526001600160a01b0390921691636795dbcd916118c491869190605d01614d03565b602060405180830381865afa1580156118e1573d6000803e3d6000fd5b505050506040513d601f19601f820116820180604052508101906119059190614d1c565b905080611910613db5565b6000848152600191909101602090815260409182902080546001600160a01b0319166001600160a01b039485161790558151858152928416908301527f88a93678a3692f6789d9546fc621bf7234b101ddb7d4fe479455112831b8aa68910160405180910390a15050808061198490614d4f565b915050611822565b5050565b600061199a613d87565b6000938452600a01602090815260408085209385529290525090205460ff161590565b6000806119c8611bf6565b905060005b8151811015611ae65760008282815181106119ea576119ea614ced565b602002602001015190506119fc613db5565b600082815260019190910160205260409020546001600160a01b0316611a20613db5565b546040516321f8a72160e01b8152600481018490526001600160a01b03909116906321f8a72190602401602060405180830381865afa158015611a67573d6000803e3d6000fd5b505050506040513d601f19601f82011682018060405250810190611a8b9190614d1c565b6001600160a01b0316141580611ac457506000611aa6613db5565b600083815260019190910160205260409020546001600160a01b0316145b15611ad3576000935050505090565b5080611ade81614d4f565b9150506119cd565b50600191505090565b6000611af9613d87565b6000928352600801602052506040902054151590565b6000611b19613d2e565b8585611b258282611990565b15611b43576040516318f4d05960e31b815260040160405180910390fd5b611b4b6133e3565b15611b69576040516319a90b2f60e21b815260040160405180910390fd5b60405163aeb2d5bd60e01b815273__$bfa1fc126f9f960b1bd3bae8c14d9c594e$__9063aeb2d5bd9061139b908b908b9033908c908c908c90600401614ad3565b611bb382611609565b611bbc81613edf565b611bc68383613ee9565b505050565b604051631eb5512b60e31b8152600481018390526001600160a01b0382166024820152604401611479565b60408051600580825260c082019092526060916020820160a080368337019050509050742132b0b1b7b7283937bc3ca1b7b73a3937b63632b960591b81600081518110611c4557611c45614ced565b6020026020010181815250507121bab93932b731bca1b7b73a3937b63632b960711b81600181518110611c7a57611c7a614ced565b6020026020010181815250507011d95b995cda5cd5985b1d5955985d5b1d607a1b81600281518110611cae57611cae614ced565b6020026020010181815250506a14995cd95c9d99519d5b9960aa1b81600381518110611cdc57611cdc614ced565b60200260200101818152505069151bdad95b95985d5b1d60b21b81600481518110611d0957611d09614ced565b60200260200101818152505090565b6000611d226133e3565b15611d40576040516319a90b2f60e21b815260040160405180910390fd5b611d586000805160206158a983398151915233612974565b611d755760405163a5523ee560e01b815260040160405180910390fd5b60405163428c3a8160e01b81526004810183905273__$53b43b4bdeb2460d1113627ef627de0cf6$__9063428c3a81906024015b60006040518083038186803b158015611dc157600080fd5b505af4158015611dd5573d6000803e3d6000fd5b50505050600190505b919050565b6000611ded613d2e565b8383611df98282611990565b15611e17576040516318f4d05960e31b815260040160405180910390fd5b611e1f6133e3565b15611e3d576040516319a90b2f60e21b815260040160405180910390fd5b611e45613d87565b600087815260059190910160205260409020546001600160a01b031663f3f7f452611e6e613d87565b6000898152600a91909101602090815260408083208a84529091529081902054905160e083901b6001600160e01b031916815260ff909116600482015233602482015265ffffffffffff87166044820152606401600060405180830381600087803b158015611edc57600080fd5b505af1158015611ef0573d6000803e3d6000fd5b5050505060019250505061114d6001600055565b6000611f0e613d87565b60008381526005919091016020908152604091829020548251631e25031760e01b815292516001600160a01b0390911692631e2503179260048083019391928290030181865afa1580156111b6573d6000803e3d6000fd5b611f6e6133e3565b15611f8c576040516319a90b2f60e21b815260040160405180910390fd5b33611f9561296a565b6001600160a01b031614611fbb5760405162461bcd60e51b815260040161147990614d68565b604051634ebeb04960e01b815260048101849052602481018390526044810182905273__$53b43b4bdeb2460d1113627ef627de0cf6$__90634ebeb0499060640160006040518083038186803b15801561201457600080fd5b505af4158015612028573d6000803e3d6000fd5b50505050505050565b600061203b613d87565b600092835260070160205250604090205490565b612057613d2e565b61205f6133e3565b1561207d576040516319a90b2f60e21b815260040160405180910390fd5b6040516353571ee760e01b81526004810182905273__$53b43b4bdeb2460d1113627ef627de0cf6$__906353571ee79060240160006040518083038186803b1580156120c857600080fd5b505af41580156120dc573d6000803e3d6000fd5b5050505073__$e7d72ce98f1dce1f33c815a57604cff5ab$__639519832b82612103613f60565b6040516001600160e01b031960e085901b16815260048101929092526001600160a01b03166024820152604401602060405180830381865af415801561214d573d6000803e3d6000fd5b505050506040513d601f19601f820116820180604052508101906121719190614a74565b5061217c6001600055565b50565b6000612189613d87565b600092835260030160205250604090205490565b336121a661296a565b6001600160a01b0316146121cc5760405162461bcd60e51b815260040161147990614d68565b6121d4613d87565b6000838152600591909101602052604090819020549051636aa65aaf60e01b8152600481018390526001600160a01b0390911690636aa65aaf906024015b600060405180830381600087803b15801561222c57600080fd5b505af1158015612240573d6000803e3d6000fd5b505050505050565b6000612252613d2e565b61225a6133e3565b15612278576040516319a90b2f60e21b815260040160405180910390fd5b604051631a88ea5760e21b81526004810184905260248101839052600090819073__$53b43b4bdeb2460d1113627ef627de0cf6$__90636a23a95c9060440161010060405180830381865af41580156122d5573d6000803e3d6000fd5b505050506040513d601f19601f820116820180604052508101906122f99190614e17565b6040516305ed050d60e51b8152919350915073__$bfa1fc126f9f960b1bd3bae8c14d9c594e$__9063bda0a1a09061233c90889088906000908890600401614e4d565b60006040518083038186803b15801561235457600080fd5b505af4158015612368573d6000803e3d6000fd5b50506040516305ed050d60e51b815273__$bfa1fc126f9f960b1bd3bae8c14d9c594e$__925063bda0a1a09150610ff990889088906001908790600401614e4d565b60405163386320d360e11b8152600481018390526001600160a01b03821660248201526000908190819073__$e7d72ce98f1dce1f33c815a57604cff5ab$__906370c641a690604401606060405180830381865af4158015612410573d6000803e3d6000fd5b505050506040513d601f19601f820116820180604052508101906124349190614ea9565b9250925092509250925092565b3361244a61296a565b6001600160a01b0316146124705760405162461bcd60e51b815260040161147990614d68565b61247a6000613f6a565b565b6000612486613d87565b54919050565b3361249561296a565b6001600160a01b0316146124bb5760405162461bcd60e51b815260040161147990614d68565b6124c3613d87565b6000838152600591909101602052604090819020549051636c5d6df160e01b8152600481018390526001600160a01b0390911690636c5d6df190602401612212565b600061250f613d87565b6000938452600a01602090815260408085209385529290525090205460ff1690565b600061253b613d87565b60009283526006016020525060409020546001600160a01b031690565b6000612562613d2e565b60405163104d68fd60e31b81526001600160a01b038316600482015273__$e7d72ce98f1dce1f33c815a57604cff5ab$__9063826b47e89060240160006040518083038186803b1580156125b557600080fd5b505af41580156125c9573d6000803e3d6000fd5b5050505060019050611dde6001600055565b336125e461296a565b6001600160a01b03161461260a5760405162461bcd60e51b815260040161147990614d68565b60405163083c2b5f60e41b8152600481018390526024810182905273__$53b43b4bdeb2460d1113627ef627de0cf6$__906383c2b5f0906044015b60006040518083038186803b15801561265d57600080fd5b505af4158015612240573d6000803e3d6000fd5b600033301461279f576001546201000090046001600160a01b0316156126aa576040516337affdbf60e11b815260040160405180910390fd5b6001805462010000600160b01b03191633620100000217905583836126cf8282611990565b156126ed576040516318f4d05960e31b815260040160405180910390fd5b6126f56133e3565b15612713576040516319a90b2f60e21b815260040160405180910390fd5b604051633099b3fd60e21b815273__$ddd42798825952179f0fb056787c1ba3b9$__9063c266cff49061275290339088908c908c908c90600401614ed7565b60006040518083038186803b15801561276a57600080fd5b505af415801561277e573d6000803e3d6000fd5b505050506001925050506001805462010000600160b01b0319169055612865565b83836127ab8282611990565b156127c9576040516318f4d05960e31b815260040160405180910390fd5b6127d16133e3565b156127ef576040516319a90b2f60e21b815260040160405180910390fd5b604051633099b3fd60e21b815273__$ddd42798825952179f0fb056787c1ba3b9$__9063c266cff49061282e90339088908c908c908c90600401614ed7565b60006040518083038186803b15801561284657600080fd5b505af415801561285a573d6000803e3d6000fd5b505050506001925050505b949350505050565b60006128776133e3565b80156110395750612886613d87565b6001600160a01b0383166000908152600e91909101602052604090205460ff161592915050565b60006128b7613d2e565b82826128c38282611990565b156128e1576040516318f4d05960e31b815260040160405180910390fd5b6128e96133e3565b15612907576040516319a90b2f60e21b815260040160405180910390fd5b6040516332b3123760e11b8152600481018690526024810185905233604482015273__$e7d72ce98f1dce1f33c815a57604cff5ab$__90636566246e90606401610ff9565b6000612956613d87565b600092835260080160205250604090205490565b60006111e4613fd7565b600061297e613e99565b6000938452602090815260408085206001600160a01b039490941685529290525090205460ff1690565b60006129b2613d2e565b6129ba6133e3565b6129d7576040516304d824a560e41b815260040160405180910390fd5b604051635dd3a2c160e01b815233600482015273__$e7d72ce98f1dce1f33c815a57604cff5ab$__90635dd3a2c19060240160006040518083038186803b158015612a2157600080fd5b505af4158015612a35573d6000803e3d6000fd5b5050505060019050612a476001600055565b90565b6000612a54613d2e565b604051639519832b60e01b8152600481018490526001600160a01b038316602482015273__$e7d72ce98f1dce1f33c815a57604cff5ab$__90639519832b90604401602060405180830381865af4158015612ab3573d6000803e3d6000fd5b505050506040513d601f19601f82011682018060405250810190612ad79190614a74565b90506110396001600055565b61217c6000805160206158a983398151915282611baa565b612b4a6040518061012001604052806000815260200160008152602001600081526020016000815260200160008152602001600081526020016000815260200160008152602001600081525090565b604080516345f1848f60e11b81526001600160a01b0386166004820152843560248201526020850135604482015290840135606482015260608401356084820152608084013560a482015260a084013560c482015260c084013560e4820152610104810183905273__$e7d72ce98f1dce1f33c815a57604cff5ab$__90638be3091e906101240161012060405180830381865af4158015612bef573d6000803e3d6000fd5b505050506040513d601f19601f8201168201806040525081019061114a9190614f08565b6000612c1d613d87565b60009283526005016020525060409020546001600160a01b031690565b6060612c44613d87565b600083815260059190910160205260409020546001600160a01b03166338b05852612c6d613d87565b6000858152600491820160205260409081902090516001600160e01b031960e085901b168152612c9d9201614f83565b600060405180830381865afa158015612cba573d6000803e3d6000fd5b505050506040513d6000823e601f3d908101601f191682016040526110399190810190615564565b612cea613d2e565b8115801590612cfe5750612cfe8383611990565b15612d1c576040516318f4d05960e31b815260040160405180910390fd5b60405163e21bd62360e01b815273__$bfa1fc126f9f960b1bd3bae8c14d9c594e$__9063e21bd62390612d59908690869033908790600401614b11565b60006040518083038186803b158015612d7157600080fd5b505af4158015612d85573d6000803e3d6000fd5b50505050611bc66001600055565b600080612d9e613d87565b6001600160a01b0384166000908152600d919091016020526040812091505b612dc682614005565b811015612efc576000612dd9838361400f565b9050600073__$e7d72ce98f1dce1f33c815a57604cff5ab$__63b55c692f8360008960006040518563ffffffff1660e01b8152600401612e1c9493929190614b11565b61016060405180830381865af4158015612e3a573d6000803e3d6000fd5b505050506040513d601f19601f82011682018060405250810190612e5e9190614bca565b519050612e6961401b565b604051633c7f634960e11b815260048101849052602481018390526001600160a01b0391909116906378fec69290604401602060405180830381865afa158015612eb7573d6000803e3d6000fd5b505050506040513d601f19601f82011682018060405250810190612edb9190614a74565b612ee5908661560a565b945050508080612ef490614d4f565b915050612dbd565b5050919050565b600080600080600080600073__$bfa1fc126f9f960b1bd3bae8c14d9c594e$__63724160ad896040518263ffffffff1660e01b8152600401612f459190615640565b60e060405180830381865af4158015612f62573d6000803e3d6000fd5b505050506040513d601f19601f82011682018060405250810190612f8691906156c4565b959e949d50929b5090995097509550909350915050565b61217c6000805160206158a9833981519152826133f8565b60608167ffffffffffffffff811115612fd057612fd0614b35565b60405190808252806020026020018201604052801561300357816020015b6060815260200190600190039081612fee5790505b50905060005b828110156130a3576130733085858481811061302757613027614ced565b90506020028101906130399190615724565b8080601f01602080910402602001604051908101604052809392919081815260200183838082843760009201919091525061402592505050565b82828151811061308557613085614ced565b6020026020010181905250808061309b90614d4f565b915050613009565b5092915050565b60006130b4613d2e565b82826130c08282611990565b156130de576040516318f4d05960e31b815260040160405180910390fd5b6130e66133e3565b15613104576040516319a90b2f60e21b815260040160405180910390fd5b6040516301402dfb60e31b815273__$e7d72ce98f1dce1f33c815a57604cff5ab$__90630a016fd89061314290889088903390600090600401614b11565b602060405180830381865af415801561315f573d6000803e3d6000fd5b505050506040513d601f19601f820116820180604052508101906131839190614a74565b506001925050506110396001600055565b600061319e613d87565b6000938452600f0160209081526040808520938552929052509020546001600160a01b031690565b6131ce6133e3565b156131ec576040516319a90b2f60e21b815260040160405180910390fd5b336131f561296a565b6001600160a01b03161461321b5760405162461bcd60e51b815260040161147990614d68565b73__$53b43b4bdeb2460d1113627ef627de0cf6$__63b8f117cd6040518163ffffffff1660e01b815260040160006040518083038186803b15801561325f57600080fd5b505af4158015611579573d6000803e3d6000fd5b6000333014613354576001546201000090046001600160a01b0316156132ac576040516337affdbf60e11b815260040160405180910390fd5b6001805462010000600160b01b03191633620100000217905583836132d18282611990565b156132ef576040516318f4d05960e31b815260040160405180910390fd5b6132f76133e3565b15613315576040516319a90b2f60e21b815260040160405180910390fd5b604051635436151f60e11b815273__$ddd42798825952179f0fb056787c1ba3b9$__9063a86c2a3e9061275290339088908c908c908c90600401614ed7565b83836133608282611990565b1561337e576040516318f4d05960e31b815260040160405180910390fd5b6133866133e3565b156133a4576040516319a90b2f60e21b815260040160405180910390fd5b604051635436151f60e11b815273__$ddd42798825952179f0fb056787c1ba3b9$__9063a86c2a3e9061282e90339088908c908c908c90600401614ed7565b6000806133ee613d87565b6001015411905090565b336001600160a01b0382160361343357604051631eb5512b60e31b8152600481018390526001600160a01b0382166024820152604401611479565b61198c828261404a565b6000613447613d2e565b85856134538282611990565b15613471576040516318f4d05960e31b815260040160405180910390fd5b6134796133e3565b15613497576040516319a90b2f60e21b815260040160405180910390fd5b61349f613de3565b6040516396994e3760e01b8152336004820152602481018a9052604481018790526001600160a01b0391909116906396994e379034906064016000604051808303818588803b1580156134f157600080fd5b505af1158015613505573d6000803e3d6000fd5b505060405163aeb2d5bd60e01b815273__$bfa1fc126f9f960b1bd3bae8c14d9c594e$__935063aeb2d5bd925061139b91508b908b9033908c908c908c90600401614ad3565b6000613555613d2e565b89896135618282611990565b1561357f576040516318f4d05960e31b815260040160405180910390fd5b6135876133e3565b156135a5576040516319a90b2f60e21b815260040160405180910390fd5b6135ad613de3565b6001600160a01b03166360819025338e8c8b8b8b8b6040518863ffffffff1660e01b81526004016135e49796959493929190615772565b600060405180830381600087803b1580156135fe57600080fd5b505af1158015613612573d6000803e3d6000fd5b5050505073__$bfa1fc126f9f960b1bd3bae8c14d9c594e$__63606c3acd8d8d338e8e8e6040518763ffffffff1660e01b815260040161365796959493929190614ad3565b60006040518083038186803b15801561366f57600080fd5b505af4158015613683573d6000803e3d6000fd5b505050506001925050506136976001600055565b9998505050505050505050565b6136ac6133e3565b156136ca576040516319a90b2f60e21b815260040160405180910390fd5b336136d361296a565b6001600160a01b0316146136f95760405162461bcd60e51b815260040161147990614d68565b60405163e3a9833360e01b8152600481018390526024810182905273__$53b43b4bdeb2460d1113627ef627de0cf6$__9063e3a9833390604401612645565b6060613742613d87565b60040160008381526020019081526020016000208054806020026020016040519081016040528092919081815260200182805480156137be57602002820191906000526020600020906000905b825461010083900a900460ff1681526020600192830181810494850194909303909202910180841161378f5790505b50505050509050919050565b600073__$e7d72ce98f1dce1f33c815a57604cff5ab$__63c59cf0e9836137ef613d87565b6007016000878152602001908152602001600020546040518363ffffffff1660e01b815260040161382a929190918252602082015260400190565b602060405180830381865af4158015613847573d6000803e3d6000fd5b505050506040513d601f19601f8201168201806040525081019061114d9190614a74565b613873613d2e565b61387b6133e3565b15613899576040516319a90b2f60e21b815260040160405180910390fd5b81158015906138ad57506138ad8383611990565b156138cb576040516318f4d05960e31b815260040160405180910390fd5b60405163912da51560e01b815273__$bfa1fc126f9f960b1bd3bae8c14d9c594e$__9063912da51590612d59908690869033908790600401614b11565b3361391161296a565b6001600160a01b0316146139375760405162461bcd60e51b815260040161147990614d68565b61394086611aef565b1561395d5760405162dc149f60e41b815260040160405180910390fd5b60405163ea57481760e01b8152600481018790526024810186905260448101859052606481018490526084810183905260a4810182905273__$53b43b4bdeb2460d1113627ef627de0cf6$__9063ea5748179060c40160006040518083038186803b1580156139cb57600080fd5b505af41580156139df573d6000803e3d6000fd5b50505050505050505050565b60006139f5613d2e565b8989613a018282611990565b15613a1f576040516318f4d05960e31b815260040160405180910390fd5b613a276133e3565b15613a45576040516319a90b2f60e21b815260040160405180910390fd5b613a4d613de3565b6001600160a01b03166360819025338e8c8b8b8b8b6040518863ffffffff1660e01b8152600401613a849796959493929190615772565b600060405180830381600087803b158015613a9e57600080fd5b505af1158015613ab2573d6000803e3d6000fd5b5050505073__$bfa1fc126f9f960b1bd3bae8c14d9c594e$__63aeb2d5bd8d8d338e8e8e6040518763ffffffff1660e01b815260040161365796959493929190614ad3565b6000613b01613d87565b6000938452600901602090815260408085209385529290525090205490565b33613b2961296a565b6001600160a01b031614613b4f5760405162461bcd60e51b815260040161147990614d68565b6001600160a01b038116613bb45760405162461bcd60e51b815260206004820152602660248201527f4f776e61626c653a206e6577206f776e657220697320746865207a65726f206160448201526564647265737360d01b6064820152608401611479565b61217c81613f6a565b6000613bc7613d2e565b8585613bd38282611990565b15613bf1576040516318f4d05960e31b815260040160405180910390fd5b613bf96133e3565b15613c17576040516319a90b2f60e21b815260040160405180910390fd5b60405163606c3acd60e01b815273__$bfa1fc126f9f960b1bd3bae8c14d9c594e$__9063606c3acd9061139b908b908b9033908c908c908c90600401614ad3565b6000613c626133e3565b15613c80576040516319a90b2f60e21b815260040160405180910390fd5b613c986000805160206158a983398151915233612974565b613cb55760405163a5523ee560e01b815260040160405180910390fd5b60405163f4a0997f60e01b81526004810183905273__$53b43b4bdeb2460d1113627ef627de0cf6$__9063f4a0997f90602401611da9565b6060611039613cfa613d87565b6001600160a01b0384166000908152600d9190910160205260409020614066565b6000613d25613d87565b60010154905090565b600260005403613d805760405162461bcd60e51b815260206004820152601f60248201527f5265656e7472616e637947756172643a207265656e7472616e742063616c6c006044820152606401611479565b6002600055565b60008061103960017f8041b8421ebd495cc61f38c788c9eb100daccf9bd36aa0bb920b7a15b2e049656157b0565b60008061103960017f4abde63c3e81aefa5764b017968bc473e83e093d7e1a10247d19e0a3e41240186157b0565b6000613ded614073565b905090565b60007f360894a13ba1a3210667c828492db98dca3e2076cc3735a920a3ca505d382bbc6111e4565b613e25600082613ee9565b61217c6000805160206158a983398151915282613ee9565b6000613e47613db5565b546001600160a01b031614613e6f576040516304b79d6360e51b815260040160405180910390fd5b80613e78613db5565b80546001600160a01b0319166001600160a01b039290921691909117905550565b60008061103960017f35e4a72724550e3953b041d501f29ff9ff417812c2917a203d9c4833b9d1d6f96157b0565b6000818152600183016020526040812054151561114d565b61217c813361408b565b613ef38282612974565b61198c576001613f01613e99565b6000848152602091825260408082206001600160a01b0386168084529352808220805460ff1916941515949094179093559151339285917f2f8788117e7eff1d82e926ec794901d17c78024a50270940304540a733656f0d9190a45050565b6000613ded6140ef565b6000613f74613fd7565b546001600160a01b0316905081613f89613fd7565b80546001600160a01b0319166001600160a01b03928316179055604051838216918316907f8be0079c531659141344cd1fd0a4f28419497f9722a3daafe3b4186f6b6457e090600090a35050565b60008061103960017f9acda75aebd150dd434541a4747a6dc606f4f1a59662477e67daf1fc0bf9e0aa6157b0565b6000611039825490565b600061114d8383614108565b6000613ded614132565b606061114d83836040518060600160405280602781526020016158c960279139614152565b61405382611609565b61405c81613edf565b611bc683836141ca565b6060600061114d83614242565b6000613ded69151bdad95b95985d5b1d60b21b61429d565b6140958282612974565b61198c576140ad816001600160a01b031660146142fe565b6140b88360206142fe565b6040516020016140c99291906157c3565b60408051601f198184030181529082905262461bcd60e51b825261147991600401615838565b6000613ded6a14995cd95c9d99519d5b9960aa1b61429d565b600082600001828154811061411f5761411f614ced565b9060005260206000200154905092915050565b6000613ded7121bab93932b731bca1b7b73a3937b63632b960711b61429d565b6060600080856001600160a01b03168560405161416f919061584b565b600060405180830381855af49150503d80600081146141aa576040519150601f19603f3d011682016040523d82523d6000602084013e6141af565b606091505b50915091506141c08683838761449a565b9695505050505050565b6141d48282612974565b1561198c5760006141e3613e99565b6000848152602091825260408082206001600160a01b0386168084529352808220805460ff1916941515949094179093559151339285917ff6391f5c32d9c69d2a47ea670b442974b53935d1edc7fd64eb21e047a839171b9190a45050565b6060816000018054806020026020016040519081016040528092919081815260200182805480156137be57602002820191906000526020600020905b81548152602001906001019080831161427e5750505050509050919050565b6000806142a8613db5565b600084815260019190910160205260409020546001600160a01b03169050806110395760408051602081018590520160408051601f19818403018152908290526346e2ec9360e01b825261147991600401615838565b6060600061430d836002615867565b61431890600261587e565b67ffffffffffffffff81111561433057614330614b35565b6040519080825280601f01601f19166020018201604052801561435a576020820181803683370190505b509050600360fc1b8160008151811061437557614375614ced565b60200101906001600160f81b031916908160001a905350600f60fb1b816001815181106143a4576143a4614ced565b60200101906001600160f81b031916908160001a90535060006143c8846002615867565b6143d390600161587e565b90505b600181111561444b576f181899199a1a9b1b9c1cb0b131b232b360811b85600f166010811061440757614407614ced565b1a60f81b82828151811061441d5761441d614ced565b60200101906001600160f81b031916908160001a90535060049490941c9361444481615891565b90506143d6565b50831561114d5760405162461bcd60e51b815260206004820181905260248201527f537472696e67733a20686578206c656e67746820696e73756666696369656e746044820152606401611479565b60608315614509578251600003614502576001600160a01b0385163b6145025760405162461bcd60e51b815260206004820152601d60248201527f416464726573733a2063616c6c20746f206e6f6e2d636f6e74726163740000006044820152606401611479565b5081612865565b612865838381511561451e5781518083602001fd5b8060405162461bcd60e51b81526004016114799190615838565b6000806040838503121561454b57600080fd5b50508035926020909101359150565b60006020828403121561456c57600080fd5b81356001600160e01b03198116811461114d57600080fd5b60006020828403121561459657600080fd5b5035919050565b6001600160a01b038116811461217c57600080fd5b6000806000606084860312156145c757600080fd5b833592506020840135915060408401356145e08161459d565b809150509250925092565b803560028110611dde57600080fd5b600080600080600060a0868803121561461257600080fd5b8535945060208601359350614629604087016145eb565b94979396509394606081013594506080013592915050565b60008060006060848603121561465657600080fd5b83356146618161459d565b925060208401356146718161459d565b929592945050506040919091013590565b6000806040838503121561469557600080fd5b8235915060208301356146a78161459d565b809150509250929050565b6000806000606084860312156146c757600080fd5b8335925060208401356146718161459d565b6000602082840312156146eb57600080fd5b813561114d8161459d565b6020808252825182820181905260009190848201906040850190845b8181101561472e57835183529284019291840191600101614712565b50909695505050505050565b65ffffffffffff8116811461217c57600080fd5b60008060006060848603121561476357600080fd5b833592506020840135915060408401356145e08161473a565b60008060006060848603121561479157600080fd5b505081359360208301359350604090920135919050565b600080600080608085870312156147be57600080fd5b84359350602085013592506040850135915060608501356147de8161459d565b939692955090935050565b600080600083850361012081121561480057600080fd5b843561480b8161459d565b935060e0601f198201121561481f57600080fd5b5060208401915061010084013590509250925092565b6000610100828403121561484857600080fd5b50919050565b6000806020838503121561486157600080fd5b823567ffffffffffffffff8082111561487957600080fd5b818501915085601f83011261488d57600080fd5b81358181111561489c57600080fd5b8660208260051b85010111156148b157600080fd5b60209290920196919550909350505050565b60005b838110156148de5781810151838201526020016148c6565b50506000910152565b600081518084526148ff8160208601602086016148c3565b601f01601f19169290920160200192915050565b6000602080830181845280855180835260408601915060408160051b870101925083870160005b8281101561496857603f198886030184526149568583516148e7565b9450928501929085019060010161493a565b5092979650505050505050565b60008060008060008060008060006101208a8c03121561499457600080fd5b8935985060208a013597506149ab60408b016145eb565b965060608a0135955060808a0135945060a08a0135935060c08a013560ff811681146149d657600080fd5b8093505060e08a013591506101008a013590509295985092959850929598565b6020808252825182820181905260009190848201906040850190845b8181101561472e57835160ff1683529284019291840191600101614a12565b60008060008060008060c08789031215614a4a57600080fd5b505084359660208601359650604086013595606081013595506080810135945060a0013592509050565b600060208284031215614a8657600080fd5b5051919050565b60008060408385031215614aa057600080fd5b505080516020909101519092909150565b60028110614acf57634e487b7160e01b600052602160045260246000fd5b9052565b868152602081018690526001600160a01b038516604082015260c08101614afd6060830186614ab1565b608082019390935260a00152949350505050565b93845260208401929092526001600160a01b03166040830152606082015260800190565b634e487b7160e01b600052604160045260246000fd5b604051610160810167ffffffffffffffff81118282101715614b6f57614b6f614b35565b60405290565b604051610120810167ffffffffffffffff81118282101715614b6f57614b6f614b35565b604051601f8201601f1916810167ffffffffffffffff81118282101715614bc257614bc2614b35565b604052919050565b60006101608284031215614bdd57600080fd5b614be5614b4b565b825181526020830151602082015260408301516040820152606083015160608201526080830151608082015260a083015160a082015260c083015160c082015260e083015160e08201526101008084015181830152506101208084015181830152506101408084015181830152508091505092915050565b6000610100808385031215614c7157600080fd5b6040519081019067ffffffffffffffff82118183101715614c9457614c94614b35565b81604052835181526020840151602082015260408401516040820152606084015160608201526080840151608082015260a084015160a082015260c084015160c082015260e084015160e0820152809250505092915050565b634e487b7160e01b600052603260045260246000fd5b82815260406020820152600061114a60408301846148e7565b600060208284031215614d2e57600080fd5b815161114d8161459d565b634e487b7160e01b600052601160045260246000fd5b600060018201614d6157614d61614d39565b5060010190565b6020808252818101527f4f776e61626c653a2063616c6c6572206973206e6f7420746865206f776e6572604082015260600190565b600060808284031215614daf57600080fd5b6040516080810181811067ffffffffffffffff82111715614dd257614dd2614b35565b80604052508091508251614de58161473a565b81526020830151614df58161459d565b8060208301525060408301516040820152606083015160608201525092915050565b6000806101008385031215614e2b57600080fd5b614e358484614d9d565b9150614e448460808501614d9d565b90509250929050565b8481526020810184905260e08101614e686040830185614ab1565b825165ffffffffffff1660608381019190915260208401516001600160a01b03166080840152604084015160a08401529092015160c0909101529392505050565b600080600060608486031215614ebe57600080fd5b8351925060208401519150604084015190509250925092565b6001600160a01b03958616815293909416602084015260408301919091526060820152608081019190915260a00190565b60006101208284031215614f1b57600080fd5b614f23614b75565b825181526020830151602082015260408301516040820152606083015160608201526080830151608082015260a083015160a082015260c083015160c082015260e083015160e08201526101008084015181830152508091505092915050565b60006020808301818452808554614f9e818490815260200190565b60008881526020812094509092505b81601f8201101561522757835460ff8082168552600882901c8116878601526040614fe1818701838560101c1660ff169052565b6060614ff6818801848660181c1660ff169052565b608061500a81890185878d1c1660ff169052565b60a061501f818a01868860281c1660ff169052565b60c0615034818b01878960301c1660ff169052565b60e0615049818c01888a60381c1660ff169052565b60ff88871c8816166101008c015261506c6101208c01888a60481c1660ff169052565b6150816101408c01888a60501c1660ff169052565b6150966101608c01888a60581c1660ff169052565b60ff88861c8816166101808c01526150b96101a08c01888a60681c1660ff169052565b6150ce6101c08c01888a60701c1660ff169052565b6150e36101e08c01888a60781c1660ff169052565b60ff88851c8816166102008c01526151066102208c01888a60881c1660ff169052565b61511b6102408c01888a60901c1660ff169052565b6151306102608c01888a60981c1660ff169052565b60ff88841c8816166102808c01526151536102a08c01888a60a81c1660ff169052565b6151686102c08c01888a60b01c1660ff169052565b61517d6102e08c01888a60b81c1660ff169052565b60ff88831c8816166103008c01526151a06103208c01888a60c81c1660ff169052565b6151b56103408c01888a60d01c1660ff169052565b6151ca6103608c01888a60d81c1660ff169052565b60ff88821c8816166103808c01525050505050506151f36103a08601828460e81c1660ff169052565b6152086103c08601828460f01c1660ff169052565b5060f81c6103e084015260019390930192610400909201918401614fad565b925492818110156152405760ff84168352918401916001015b8181101561525a57600884901c60ff168352918401916001015b8181101561527457601084901c60ff168352918401916001015b8181101561528e57601884901c60ff168352918401916001015b818110156152a65783851c60ff168352918401916001015b818110156152c057602884901c60ff168352918401916001015b818110156152da57603084901c60ff168352918401916001015b818110156152f457603884901c60ff168352918401916001015b8181101561530e57604084901c60ff168352918401916001015b8181101561532857604884901c60ff168352918401916001015b8181101561534257605084901c60ff168352918401916001015b8181101561535c57605884901c60ff168352918401916001015b8181101561537657606084901c60ff168352918401916001015b8181101561539057606884901c60ff168352918401916001015b818110156153aa57607084901c60ff168352918401916001015b818110156153c457607884901c60ff168352918401916001015b818110156153de57608084901c60ff168352918401916001015b818110156153f857608884901c60ff168352918401916001015b8181101561541257609084901c60ff168352918401916001015b8181101561542c57609884901c60ff168352918401916001015b818110156154465760a084901c60ff168352918401916001015b818110156154605760a884901c60ff168352918401916001015b8181101561547a5760b084901c60ff168352918401916001015b818110156154945760b884901c60ff168352918401916001015b818110156154ae5760c084901c60ff168352918401916001015b818110156154c85760c884901c60ff168352918401916001015b818110156154e25760d084901c60ff168352918401916001015b818110156154fc5760d884901c60ff168352918401916001015b818110156155165760e084901c60ff168352918401916001015b818110156155305760e884901c60ff168352918401916001015b8181101561554a5760f084901c60ff168352918401916001015b8181101561472e57505060f89190911c8152019392505050565b6000602080838503121561557757600080fd5b825167ffffffffffffffff8082111561558f57600080fd5b818501915085601f8301126155a357600080fd5b8151818111156155b5576155b5614b35565b8060051b91506155c6848301614b99565b81815291830184019184810190888411156155e057600080fd5b938501935b838510156155fe578451825293850193908501906155e5565b98975050505050505050565b808201828112600083128015821682158216171561562a5761562a614d39565b505092915050565b801515811461217c57600080fd5b8135815260208083013590820152610100810160408301356156618161459d565b6001600160a01b0316604083015261567b606084016145eb565b6156886060840182614ab1565b506080830135608083015260a083013560a083015260c083013560c083015260e08301356156b581615632565b80151560e08401525092915050565b600080600080600080600060e0888a0312156156df57600080fd5b875196506020880151955060408801519450606088015193506080880151925060a0880151915060c088015161571481615632565b8091505092959891949750929550565b6000808335601e1984360301811261573b57600080fd5b83018035915067ffffffffffffffff82111561575657600080fd5b60200191503681900382131561576b57600080fd5b9250929050565b6001600160a01b0397909716875260208701959095526040860193909352606085019190915260ff16608084015260a083015260c082015260e00190565b8181038181111561103957611039614d39565b7f416363657373436f6e74726f6c3a206163636f756e74200000000000000000008152600083516157fb8160178501602088016148c3565b7001034b99036b4b9b9b4b733903937b6329607d1b601791840191820152835161582c8160288401602088016148c3565b01602801949350505050565b60208152600061114d60208301846148e7565b6000825161585d8184602087016148c3565b9190910192915050565b808202811582820484141761103957611039614d39565b8082018082111561103957611039614d39565b6000816158a0576158a0614d39565b50600019019056fe97667070c54ef182b0f5858b034beac1b6f3089aa2d3188bb1e8929f4fa9b929416464726573733a206c6f772d6c6576656c2064656c65676174652063616c6c206661696c6564a2646970667358221220ea946036fe7a92761569896ce543b2e1fd66e39e8b4985d2aac32f0e38456a2c64736f6c63430008130033",
  "libraries": {
    "FundManagementLogic": "0xC75560416a5749aECAFEB1e9950071E646762333",
    "LendingMarketOperationLogic": "0xF711f5fC74761c6EF8a13bBcA496c263F28c5278",
    "LendingMarketUserLogic": "0x10B4d625752E921c10135B5F8b8Be4864cb4a47f",
    "LiquidationLogic": "0xD7F3A4E32490e0584f22b12062a0dCdEc9f3571e"
  },
  "implementation": "0x5ec189EaFe5C2F0B755687AE8FeE791c9267b465",
  "devdoc": {
    "events": {
      "Initialized(uint8)": {
        "details": "Triggered when the contract has been initialized or reinitialized."
      },
      "RoleAdminChanged(bytes32,bytes32,bytes32)": {
        "details": "Emitted when `newAdminRole` is set as ``role``'s admin role, replacing `previousAdminRole` `DEFAULT_ADMIN_ROLE` is the starting admin for all roles, despite {RoleAdminChanged} not being emitted signaling this. _Available since v3.1._"
      },
      "RoleGranted(bytes32,address,address)": {
        "details": "Emitted when `account` is granted `role`. `sender` is the account that originated the contract call, an admin role bearer except when using {AccessControl-_setupRole}."
      },
      "RoleRevoked(bytes32,address,address)": {
        "details": "Emitted when `account` is revoked `role`. `sender` is the account that originated the contract call:   - if using `revokeRole`, it is the admin role bearer   - if using `renounceRole`, it is the role bearer (i.e. `account`)"
      }
    },
    "kind": "dev",
    "methods": {
      "addOperator(address)": {
        "params": {
          "admin": "The address of the new admin"
        }
      },
      "calculateFunds(bytes32,address,uint256)": {
        "params": {
          "_ccy": "Currency name in bytes32",
          "_liquidationThresholdRate": "The liquidation threshold rate",
          "_user": "User's address"
        },
        "returns": {
          "funds": "The funds calculated from the user's lending and borrowing order list"
        }
      },
      "calculateTotalFundsInBaseCurrency(address,(bytes32,uint256,uint256,uint256,uint256,uint256,uint256),uint256)": {
        "params": {
          "_additionalFunds": "The funds to be added for calculating the total funds",
          "_liquidationThresholdRate": "The liquidation threshold rate",
          "_user": "User's address"
        },
        "returns": {
          "funds": "The total funds calculated from the user's lending and borrowing order list"
        }
      },
      "cancelOrder(bytes32,uint256,uint48)": {
        "params": {
          "_ccy": "Currency name in bytes32 of the selected order book",
          "_maturity": "The maturity of the selected order book",
          "_orderId": "Market order id"
        }
      },
      "cleanUpAllFunds(address)": {
        "params": {
          "_user": "User's address"
        }
      },
      "cleanUpFunds(bytes32,address)": {
        "params": {
          "_ccy": "Currency name in bytes32",
          "_user": "User's address"
        }
      },
      "createOrderBook(bytes32,uint256,uint256)": {
        "params": {
          "_ccy": "Main currency for new order book",
          "_openingDate": "The timestamp when the order book opens",
          "_preOpeningDate": "The timestamp when the order book pre-opens"
        }
      },
      "depositAndExecuteOrder(bytes32,uint256,uint8,uint256,uint256)": {
        "params": {
          "_amount": "Amount of funds the maker wants to borrow/lend",
          "_ccy": "Currency name in bytes32 of the selected order book",
          "_maturity": "The maturity of the selected order book",
          "_side": "Order position type, Borrow or Lend",
          "_unitPrice": "Amount of unit price taker wish to borrow/lend"
        },
        "returns": {
          "_0": "True if the execution of the operation succeeds"
        }
      },
      "depositAndExecutesPreOrder(bytes32,uint256,uint8,uint256,uint256)": {
        "params": {
          "_amount": "Amount of funds the maker wants to borrow/lend",
          "_ccy": "Currency name in bytes32 of the selected order book",
          "_maturity": "The maturity of the selected order book",
          "_side": "Order position type, Borrow or Lend",
          "_unitPrice": "Amount of unit price taker wish to borrow/lend"
        },
        "returns": {
          "_0": "True if the execution of the operation succeeds"
        }
      },
      "depositWithPermitAndExecuteOrder(bytes32,uint256,uint8,uint256,uint256,uint256,uint8,bytes32,bytes32)": {
        "params": {
          "_amount": "Amount of funds the maker wants to borrow/lend",
          "_ccy": "Currency name in bytes32 of the selected order book",
          "_deadline": "The deadline timestamp that the permit is valid",
          "_maturity": "The maturity of the selected order book",
          "_permitR": "The R parameter of ERC712 permit sig",
          "_permitS": "The S parameter of ERC712 permit sig",
          "_permitV": "The V parameter of ERC712 permit sig",
          "_side": "Order position type, Borrow or Lend",
          "_unitPrice": "Amount of unit price taker wish to borrow/lend"
        },
        "returns": {
          "_0": "True if the execution of the operation succeeds"
        }
      },
      "depositWithPermitAndExecutePreOrder(bytes32,uint256,uint8,uint256,uint256,uint256,uint8,bytes32,bytes32)": {
        "params": {
          "_amount": "Amount of funds the maker wants to borrow/lend",
          "_ccy": "Currency name in bytes32 of the selected order book",
          "_deadline": "The deadline timestamp that the permit is valid",
          "_maturity": "The maturity of the selected order book",
          "_permitR": "The R parameter of ERC712 permit sig",
          "_permitS": "The S parameter of ERC712 permit sig",
          "_permitV": "The V parameter of ERC712 permit sig",
          "_side": "Order position type, Borrow or Lend",
          "_unitPrice": "Amount of unit price taker wish to borrow/lend"
        },
        "returns": {
          "_0": "True if the execution of the operation succeeds"
        }
      },
      "depositZCToken(bytes32,uint256,uint256)": {
        "params": {
          "_amount": "The amount of ZCToken to burn",
          "_ccy": "Currency name in bytes32",
          "_maturity": "The maturity of the order book"
        }
      },
      "executeEmergencySettlement()": {
        "returns": {
          "_0": "True if the execution of the operation succeeds"
        }
      },
      "executeForcedRepayment(bytes32,bytes32,uint256,address)": {
        "params": {
          "_collateralCcy": "Currency name to be used as collateral",
          "_debtCcy": "Currency name to be used as debt",
          "_debtMaturity": "The order book maturity of the debt",
          "_user": "User's address"
        },
        "returns": {
          "_0": "True if the execution of the operation succeeds"
        }
      },
      "executeItayoseCall(bytes32,uint256)": {
        "params": {
          "_ccy": "Currency name in bytes32",
          "_maturity": "The maturity of the selected order book"
        }
      },
      "executeLiquidationCall(bytes32,bytes32,uint256,address)": {
        "params": {
          "_collateralCcy": "Currency name to be used as collateral",
          "_debtCcy": "Currency name to be used as debt",
          "_debtMaturity": "The order book maturity of the debt",
          "_user": "User's address"
        },
        "returns": {
          "_0": "True if the execution of the operation succeeds"
        }
      },
      "executeOrder(bytes32,uint256,uint8,uint256,uint256)": {
        "params": {
          "_amount": "Amount of funds the maker wants to borrow/lend",
          "_ccy": "Currency name in bytes32 of the selected order book",
          "_maturity": "The maturity of the selected order book",
          "_side": "Order position type, Borrow or Lend",
          "_unitPrice": "Amount of unit price taker wish to borrow/lend"
        },
        "returns": {
          "_0": "True if the execution of the operation succeeds"
        }
      },
      "executePreOrder(bytes32,uint256,uint8,uint256,uint256)": {
        "params": {
          "_amount": "Amount of funds the maker wants to borrow/lend",
          "_ccy": "Currency name in bytes32 of the selected order book",
          "_maturity": "The maturity of the selected order book",
          "_side": "Order position type, Borrow or Lend",
          "_unitPrice": "Amount of unit price taker wish to borrow/lend"
        },
        "returns": {
          "_0": "True if the execution of the operation succeeds"
        }
      },
      "executeRedemption(bytes32,uint256)": {
        "params": {
          "_ccy": "Currency name in bytes32 of the selected order book",
          "_maturity": "The maturity of the selected order book"
        }
      },
      "executeRepayment(bytes32,uint256)": {
        "params": {
          "_ccy": "Currency name in bytes32 of the selected order book",
          "_maturity": "The maturity of the selected order book"
        }
      },
      "getCircuitBreakerLimitRange(bytes32)": {
        "params": {
          "_ccy": "Currency name in bytes32"
        },
        "returns": {
          "_0": "The auto-roll fee rate received by protocol"
        }
      },
      "getCurrentMinDebtUnitPrice(bytes32,uint256)": {
        "params": {
          "_ccy": "Currency name in bytes32",
          "_maturity": "The maturity of the order book"
        },
        "returns": {
          "_0": "The current min debt unit price"
        }
      },
      "getFutureValueVault(bytes32)": {
        "params": {
          "_ccy": "Currency name in bytes32"
        },
        "returns": {
          "_0": "The future value vault address"
        }
      },
      "getGenesisDate(bytes32)": {
        "params": {
          "_ccy": "Currency name in bytes32"
        },
        "returns": {
          "_0": "The genesis date"
        }
      },
      "getGenesisValue(bytes32,address)": {
        "params": {
          "_ccy": "Currency name in bytes32 for Lending Market",
          "_user": "User's address"
        },
        "returns": {
          "amount": "The genesis value amount",
          "amountInFV": "The genesis value amount in future value",
          "amountInPV": "The genesis value amount in present value"
        }
      },
      "getLendingMarket(bytes32)": {
        "params": {
          "_ccy": "Currency name in bytes32"
        },
        "returns": {
          "_0": "Array with the lending market address"
        }
      },
      "getMarketBasePeriod()": {
        "returns": {
          "_0": "The base period"
        }
      },
      "getMaturities(bytes32)": {
        "params": {
          "_ccy": "Currency name in bytes32"
        },
        "returns": {
          "_0": "Array with the lending market maturity"
        }
      },
      "getMinDebtUnitPrice(bytes32)": {
        "params": {
          "_ccy": "Currency name in bytes32"
        },
        "returns": {
          "_0": "The genesis date"
        }
      },
      "getOrderBookId(bytes32,uint256)": {
        "params": {
          "_ccy": "Currency name in bytes32",
          "_maturity": "The maturity of the order book"
        },
        "returns": {
          "_0": "The order book id"
        }
      },
      "getOrderBookIds(bytes32)": {
        "params": {
          "_ccy": "Currency name in bytes32"
        },
        "returns": {
          "_0": "The array of order book id"
        }
      },
      "getOrderEstimation((bytes32,uint256,address,uint8,uint256,uint256,uint256,bool))": {
        "params": {
          "_params": "The parameters to calculate the order estimation <br> - ccy: Currency name in bytes32 of the selected market <br> - maturity: The maturity of the market <br> - side: Order position type, Borrow or Lend <br> - amount: Amount of funds the maker wants to borrow/lend <br> - unitPrice: Amount of unit price taker wish to borrow/lend <br> - additionalDepositAmount: Additional amount to be deposited with the lending order <br> - ignoreBorrowedAmount: The boolean if the borrowed amount is ignored and not used as collateral or not"
        },
        "returns": {
          "coverage": "The rate of collateral used",
          "filledAmount": "The amount that is filled on the order book",
          "filledAmountInFV": "The amount in the future value that is filled on the order book",
          "isInsufficientDepositAmount": "The boolean if the order amount for lending in the selected currency is insufficient for the deposit amount or not",
          "lastUnitPrice": "The last unit price that is filled on the order book",
          "orderFeeInFV": "The order fee amount in the future value",
          "placedAmount": "The amount that is placed to the order book"
        }
      },
      "getOrderFeeRate(bytes32)": {
        "params": {
          "_ccy": "Currency name in bytes32"
        },
        "returns": {
          "_0": "The order fee rate received by protocol"
        }
      },
      "getPendingOrderAmount(bytes32,uint256)": {
        "params": {
          "_ccy": "Currency name in bytes32",
          "_maturity": "The maturity of the order book"
        },
        "returns": {
          "_0": "The total amount"
        }
      },
      "getPosition(bytes32,uint256,address)": {
        "params": {
          "_ccy": "Currency name in bytes32",
          "_maturity": "The maturity of the selected order book",
          "_user": "User's address"
        },
        "returns": {
          "futureValue": "The future value of the position",
          "presentValue": "The present value of the position"
        }
      },
      "getRevision()": {
        "returns": {
          "_0": "The revision number"
        }
      },
      "getRoleAdmin(bytes32)": {
        "details": "Returns the admin role that controls `role`. See {grantRole} and {revokeRole}. To change a role's admin, use {_setRoleAdmin}."
      },
      "getTerminationCollateralRatio(bytes32)": {
        "params": {
          "_ccy": "Currency name in bytes32"
        },
        "returns": {
          "_0": "The ratio"
        }
      },
      "getTerminationCurrencyCache(bytes32)": {
        "params": {
          "_ccy": "Currency name in bytes32"
        },
        "returns": {
          "_0": "The price cached"
        }
      },
      "getTerminationDate()": {
        "returns": {
          "_0": "The termination date"
        }
      },
      "getTotalPresentValue(bytes32,address)": {
        "params": {
          "_ccy": "Currency name in bytes32 for Lending Market",
          "_user": "User's address"
        },
        "returns": {
          "totalPresentValue": "The total present value"
        }
      },
      "getTotalPresentValueInBaseCurrency(address)": {
        "params": {
          "_user": "User's address"
        },
        "returns": {
          "totalPresentValue": "The total present value in base currency"
        }
      },
      "getUsedCurrencies(address)": {
        "params": {
          "_user": "User's address"
        },
        "returns": {
          "_0": "The array of the currency"
        }
      },
      "getWithdrawableZCTokenAmount(bytes32,uint256,address)": {
        "params": {
          "_ccy": "Currency name in bytes32",
          "_maturity": "The maturity of the order book",
          "_user": "User's address"
        },
        "returns": {
          "amount": "The total amount of ZCToken that can be minted"
        }
      },
      "getZCToken(bytes32,uint256)": {
        "params": {
          "_ccy": "Currency name in bytes32",
          "_maturity": "The maturity of the selected order book"
        },
        "returns": {
          "_0": "The zcToken address"
        }
      },
      "getZCTokenInfo(address)": {
        "params": {
          "_zcToken": "The zcToken address"
        },
        "returns": {
          "_0": "The zcToken data"
        }
      },
      "grantRole(bytes32,address)": {
        "details": "Grants `role` to `account`. If `account` had not been already granted `role`, emits a {RoleGranted} event. Requirements: - the caller must have ``role``'s admin role. May emit a {RoleGranted} event."
      },
      "hasRole(bytes32,address)": {
        "details": "Returns `true` if `account` has been granted `role`."
      },
      "initialize(address,address,uint256)": {
        "details": "Function is invoked by the proxy contract when the contract is added to the ProxyController.",
        "params": {
          "_marketBasePeriod": "The base period for market maturity",
          "_owner": "The address of the contract owner",
          "_resolver": "The address of the Address Resolver contract"
        }
      },
      "initializeLendingMarket(bytes32,uint256,uint256,uint256,uint256,uint256)": {
        "params": {
          "_ccy": "Currency name in bytes32",
          "_circuitBreakerLimitRange": "The circuit breaker limit range",
          "_compoundFactor": "The initial compound factor when the initial market is opened",
          "_genesisDate": "The genesis date when the initial market is opened",
          "_orderFeeRate": "The order fee rate received by protocol"
        }
      },
      "isInitializedLendingMarket(bytes32)": {
        "params": {
          "_ccy": "Currency name in bytes32"
        },
        "returns": {
          "_0": "The boolean if the lending market is initialized or not"
        }
      },
      "isRedemptionRequired(address)": {
        "returns": {
          "_0": "The boolean if the user needs to redeem the funds"
        }
      },
      "isTerminated()": {
        "returns": {
          "_0": "The boolean if the protocol has not been terminated"
        }
      },
      "isValidMaturity(bytes32,uint256)": {
        "params": {
          "_ccy": "Currency name in bytes32",
          "_maturity": "The maturity of the order book"
        },
        "returns": {
          "_0": "The boolean if the maturity is valid"
        }
      },
      "migrateLendingMarket(bytes32,uint256)": {
        "details": "ZCTokens do not exist in markets that were deployed before the contract upgrade, so they must be configured individually. This function can be deleted after executing for all currencies and maturities.",
        "params": {
          "_ccy": "Currency name in bytes32",
          "_maturity": "The maturity of the ZCToken"
        }
      },
      "multicall(bytes[])": {
        "custom:oz-upgrades-unsafe-allow-reachable": "delegatecall",
        "details": "Receives and executes a batch of function calls on this contract."
      },
      "owner()": {
        "details": "Returns the address of the current owner."
      },
      "pauseLendingMarket(bytes32)": {
        "params": {
          "_ccy": "Currency for pausing all lending markets"
        },
        "returns": {
          "_0": "True if the execution of the operation succeeds"
        }
      },
      "removeOperator(address)": {
        "params": {
          "admin": "The address of the admin to remove"
        }
      },
      "renounceOwnership()": {
        "details": "Leaves the contract without owner. It will not be possible to call `onlyOwner` functions anymore. Can only be called by the current owner. NOTE: Renouncing ownership will leave the contract without an owner, thereby removing any functionality that is only available to the owner."
      },
      "renounceRole(bytes32,address)": {
        "params": {
          "account": "The address of the account to revoke the role from",
          "role": "The role to be revoked"
        }
      },
      "requiredContracts()": {
        "details": "The contract name list is in `./libraries/Contracts.sol`."
      },
      "revokeRole(bytes32,address)": {
        "details": "Revokes `role` from `account`.",
        "params": {
          "account": "The address of the account to revoke the role from",
          "role": "The role to be revoked"
        }
      },
      "rotateOrderBooks(bytes32)": {
        "params": {
          "_ccy": "Currency name in bytes32 of the selected order book"
        }
      },
      "supportsInterface(bytes4)": {
        "details": "See {IERC165-supportsInterface}."
      },
      "transferOwnership(address)": {
        "details": "Transfers ownership of the contract to a new account (`newOwner`). Can only be called by the current owner."
      },
      "unpauseLendingMarket(bytes32)": {
        "params": {
          "_ccy": "Currency name in bytes32"
        },
        "returns": {
          "_0": "True if the execution of the operation succeeds"
        }
      },
      "unwindPosition(bytes32,uint256)": {
        "params": {
          "_ccy": "Currency name in bytes32 of the selected order book",
          "_maturity": "The maturity of the selected order book"
        }
      },
      "updateCircuitBreakerLimitRange(bytes32,uint256)": {
        "params": {
          "_cbLimitRange": "The circuit breaker limit range",
          "_ccy": "Currency name in bytes32"
        }
      },
      "updateMinDebtUnitPrice(bytes32,uint256)": {
        "params": {
          "_ccy": "Currency name in bytes32",
          "_minDebtUnitPrice": "The min debt unit price"
        }
      },
      "updateOrderFeeRate(bytes32,uint256)": {
        "params": {
          "_ccy": "Currency name in bytes32",
          "_orderFeeRate": "The order fee rate received by protocol"
        }
      },
      "withdrawZCToken(bytes32,uint256,uint256)": {
        "params": {
          "_amount": "The amount of ZCToken to mint",
          "_ccy": "Currency name in bytes32",
          "_maturity": "The maturity of the order book"
        }
      }
    },
    "version": 1
  },
  "userdoc": {
    "kind": "user",
    "methods": {
      "addOperator(address)": {
        "notice": "Adds a new admin as Operator"
      },
      "calculateFunds(bytes32,address,uint256)": {
        "notice": "Gets the funds that are calculated from the user's lending and borrowing order list for the selected currency."
      },
      "calculateTotalFundsInBaseCurrency(address,(bytes32,uint256,uint256,uint256,uint256,uint256,uint256),uint256)": {
        "notice": "Gets the funds that are calculated from the user's lending and borrowing order list for all currencies in base currency."
      },
      "cancelOrder(bytes32,uint256,uint48)": {
        "notice": "Cancels the own order."
      },
      "cleanUpAllFunds(address)": {
        "notice": "Clean up all funds of the user"
      },
      "cleanUpFunds(bytes32,address)": {
        "notice": "Clean up user funds used for lazy evaluation by the following actions: - Removes order IDs that is already filled on the order book. - Convert Future values that have already been auto-rolled to Genesis values."
      },
      "createOrderBook(bytes32,uint256,uint256)": {
        "notice": "Creates new order book."
      },
      "depositAndExecuteOrder(bytes32,uint256,uint8,uint256,uint256)": {
        "notice": "Deposits funds and executes an order at the same time."
      },
      "depositAndExecutesPreOrder(bytes32,uint256,uint8,uint256,uint256)": {
        "notice": "Deposits funds and executes a pre-order at the same time."
      },
      "depositWithPermitAndExecuteOrder(bytes32,uint256,uint8,uint256,uint256,uint256,uint8,bytes32,bytes32)": {
        "notice": "Deposits funds with transfer approval of asset via permit function and executes an order at the same time."
      },
      "depositWithPermitAndExecutePreOrder(bytes32,uint256,uint8,uint256,uint256,uint256,uint8,bytes32,bytes32)": {
        "notice": "Deposits funds with transfer approval of asset via permit function and executes a pre-order at the same time."
      },
      "depositZCToken(bytes32,uint256,uint256)": {
        "notice": "Deposits ZCToken for the selected currency and maturity. ZC perpetual token can be deposited only when the maturity is 0. This function is not inactivated after the emergency termination to allow users to redeem ZCToken."
      },
      "executeEmergencySettlement()": {
        "notice": "Force settlement of all lending and borrowing positions. This function is executed under the present value as of the termination date."
      },
      "executeEmergencyTermination()": {
        "notice": "Executes an emergency termination to stop the protocol. Once this function is executed, the protocol cannot be run again. Also, users will only be able to redeem and withdraw."
      },
      "executeForcedRepayment(bytes32,bytes32,uint256,address)": {
        "notice": "Execute forced repayment for a borrowing position if repayment date is over."
      },
      "executeItayoseCall(bytes32,uint256)": {
        "notice": "Executes the Itayose call per selected currency."
      },
      "executeLiquidationCall(bytes32,bytes32,uint256,address)": {
        "notice": "Liquidates a lending or borrowing position if the user's coverage is hight."
      },
      "executeOrder(bytes32,uint256,uint8,uint256,uint256)": {
        "notice": "Executes an order. Takes orders if the order is matched, and places new order if not match it. In addition, converts the future value to the genesis value if there is future value in past maturity before the execution of order creation."
      },
      "executePreOrder(bytes32,uint256,uint8,uint256,uint256)": {
        "notice": "Executes a pre-order. A pre-order will only be accepted from 168 hours (7 days) to 1 hour before the order book opens (Pre-order period). At the end of this period, Itayose will be executed."
      },
      "executeRedemption(bytes32,uint256)": {
        "notice": "Redeem user's lending positions. Redemption can only be executed once the order book has matured after the currency has been delisted."
      },
      "executeRepayment(bytes32,uint256)": {
        "notice": "Repay user's borrowing positions. Repayment can only be executed once the order book has matured after the currency has been delisted."
      },
      "getCircuitBreakerLimitRange(bytes32)": {
        "notice": "Gets the limit range in unit price for the circuit breaker"
      },
      "getCurrentMinDebtUnitPrice(bytes32,uint256)": {
        "notice": "Gets the current min debt unit price. This price fluctuates depending on the current maturity."
      },
      "getFutureValueVault(bytes32)": {
        "notice": "Gets the future value contract address for the selected currency and maturity."
      },
      "getGenesisDate(bytes32)": {
        "notice": "Gets the genesis date when the first market opens for the selected currency."
      },
      "getGenesisValue(bytes32,address)": {
        "notice": "Gets the genesis value of the account."
      },
      "getLendingMarket(bytes32)": {
        "notice": "Gets the lending market contract address for the selected currency."
      },
      "getMarketBasePeriod()": {
        "notice": "Gets the base period for market maturity"
      },
      "getMaturities(bytes32)": {
        "notice": "Gets maturities for the selected currency."
      },
      "getMinDebtUnitPrice(bytes32)": {
        "notice": "Gets the min debt unit price for the selected currency. This price is based on a one-year maturity."
      },
      "getOrderBookId(bytes32,uint256)": {
        "notice": "Gets the order book id for the selected currency and maturity."
      },
      "getOrderBookIds(bytes32)": {
        "notice": "Gets the order book ids."
      },
      "getOrderEstimation((bytes32,uint256,address,uint8,uint256,uint256,uint256,bool))": {
        "notice": "Gets the estimated order result by the calculation of the amount to be filled when executing an order in the order books."
      },
      "getOrderFeeRate(bytes32)": {
        "notice": "Gets the order fee rate"
      },
      "getPendingOrderAmount(bytes32,uint256)": {
        "notice": "Gets the total amount of pending orders that is not cleaned up yet."
      },
      "getPosition(bytes32,uint256,address)": {
        "notice": "Gets user's active position from the future value vault"
      },
      "getRevision()": {
        "notice": "Gets the revision number of the contract"
      },
      "getTerminationCollateralRatio(bytes32)": {
        "notice": "Gets the collateral ratio of each token in TokenVault at the emergency termination."
      },
      "getTerminationCurrencyCache(bytes32)": {
        "notice": "Gets the currency information cached at the emergency termination."
      },
      "getTerminationDate()": {
        "notice": "Gets the date at the emergency termination."
      },
      "getTotalPresentValue(bytes32,address)": {
        "notice": "Gets the total present value of the account for selected currency."
      },
      "getTotalPresentValueInBaseCurrency(address)": {
        "notice": "Gets the total present value of the account converted to base currency."
      },
      "getUsedCurrencies(address)": {
        "notice": "Get all the currencies in which the user has lending positions or orders."
      },
      "getWithdrawableZCTokenAmount(bytes32,uint256,address)": {
        "notice": "Gets the withdrawable ZCToken amount for the selected currency and maturity. ZC perpetual token amount is returned only when the maturity is 0."
      },
      "getZCToken(bytes32,uint256)": {
        "notice": "Gets ZC Token address for the selected currency and maturity."
      },
      "getZCTokenInfo(address)": {
        "notice": "Gets ZC Token info for the selected ZC Token address."
      },
      "initialize(address,address,uint256)": {
        "notice": "Initializes the contract."
      },
      "initializeLendingMarket(bytes32,uint256,uint256,uint256,uint256,uint256)": {
        "notice": "Initialize the lending market to set a genesis date and compound factor"
      },
      "isInitializedLendingMarket(bytes32)": {
        "notice": "Gets if the lending market is initialized."
      },
      "isRedemptionRequired(address)": {
        "notice": "Gets if the user needs to redeem the funds."
      },
      "isTerminated()": {
        "notice": "Gets if the protocol has not been terminated."
      },
      "isValidMaturity(bytes32,uint256)": {
        "notice": "Gets if the maturity is valid."
      },
      "migrateLendingMarket(bytes32,uint256)": {
        "notice": "Migrate the lending market to the new version."
      },
      "pauseLendingMarket(bytes32)": {
        "notice": "Pauses the lending market by currency"
      },
      "removeOperator(address)": {
        "notice": "Removes an admin as Operator"
      },
      "renounceRole(bytes32,address)": {
        "notice": "Revokes `role` from the calling account. This function is disabled by overriding it with a revert."
      },
      "requiredContracts()": {
        "notice": "Returns the contract names used in this contract."
      },
      "rotateOrderBooks(bytes32)": {
        "notice": "Rotates the order books. In this rotation, the following actions are happened. - Updates the maturity at the beginning of the order book array. - Moves the beginning of the order book array to the end of it (Market rotation). - Update the compound factor in this contract using the next order book unit price. (Auto-rolls) - Clean up the reserve fund contract"
      },
      "unpauseLendingMarket(bytes32)": {
        "notice": "Unpauses the lending market by currency"
      },
      "unwindPosition(bytes32,uint256)": {
        "notice": "Unwinds user's lending or borrowing positions by creating an opposite position order."
      },
      "updateCircuitBreakerLimitRange(bytes32,uint256)": {
        "notice": "Updates the auto-roll fee rate"
      },
      "updateMinDebtUnitPrice(bytes32,uint256)": {
        "notice": "Updates the min debt unit price for the selected currency."
      },
      "updateOrderFeeRate(bytes32,uint256)": {
        "notice": "Updates the order fee rate"
      },
      "withdrawZCToken(bytes32,uint256,uint256)": {
        "notice": "Withdraws ZCToken for the selected currency and maturity. ZC perpetual token can be withdrawn only when the maturity is 0."
      }
    },
    "notice": "Implements the module to manage separated lending market contracts per currency. This contract also works as a factory contract that can deploy(start)a new lending market & order book for selected currency and maturity and has the calculation logic for the following user's funds in addition. - Present Value(PV) - Future Value(FV) - Genesis Value(GV) Once the order book is created, it will be rotated and reused once it reaches its maturity date. At the time of rotation, a new maturity date is set and the compound factor is updated. The users mainly call this contract to execute orders to lend or borrow funds.",
    "version": 1
  },
  "storageLayout": {
    "storage": [
      {
        "astId": 1618,
        "contract": "contracts/protocol/LendingMarketController.sol:LendingMarketController",
        "label": "_status",
        "offset": 0,
        "slot": "0",
        "type": "t_uint256"
      },
      {
        "astId": 1445,
        "contract": "contracts/protocol/LendingMarketController.sol:LendingMarketController",
        "label": "_initialized",
        "offset": 0,
        "slot": "1",
        "type": "t_uint8"
      },
      {
        "astId": 1448,
        "contract": "contracts/protocol/LendingMarketController.sol:LendingMarketController",
        "label": "_initializing",
        "offset": 1,
        "slot": "1",
        "type": "t_bool"
      },
      {
        "astId": 51708,
        "contract": "contracts/protocol/LendingMarketController.sol:LendingMarketController",
        "label": "lockedBy",
        "offset": 2,
        "slot": "1",
        "type": "t_address"
      }
    ],
    "types": {
      "t_address": {
        "encoding": "inplace",
        "label": "address",
        "numberOfBytes": "20"
      },
      "t_bool": {
        "encoding": "inplace",
        "label": "bool",
        "numberOfBytes": "1"
      },
      "t_uint256": {
        "encoding": "inplace",
        "label": "uint256",
        "numberOfBytes": "32"
      },
      "t_uint8": {
        "encoding": "inplace",
        "label": "uint8",
        "numberOfBytes": "1"
      }
    }
  }
}