{
  "address": "0xDc0bd01f7168080864c1B45cD2c725fC9FAE90d1",
  "abi": [
    {
      "inputs": [
        {
          "internalType": "address",
          "name": "tokenAddress",
          "type": "address"
        }
      ],
      "name": "AlreadyZCTokenExists",
      "type": "error"
    },
    {
      "inputs": [],
      "name": "InvalidCompoundFactor",
      "type": "error"
    },
    {
      "inputs": [],
      "name": "InvalidCurrency",
      "type": "error"
    },
    {
      "inputs": [
        {
          "internalType": "uint256",
          "name": "maturity",
          "type": "uint256"
        }
      ],
      "name": "InvalidMaturity",
      "type": "error"
    },
    {
      "inputs": [],
      "name": "InvalidMinDebtUnitPrice",
      "type": "error"
    },
    {
      "inputs": [],
      "name": "InvalidOpeningDate",
      "type": "error"
    },
    {
      "inputs": [],
      "name": "InvalidPreOpeningDate",
      "type": "error"
    },
    {
      "inputs": [],
      "name": "InvalidTimestamp",
      "type": "error"
    },
    {
      "inputs": [],
      "name": "LendingMarketNotInitialized",
      "type": "error"
    },
    {
      "inputs": [
        {
          "internalType": "string",
          "name": "name",
          "type": "string"
        }
      ],
      "name": "MissingAddress",
      "type": "error"
    },
    {
      "inputs": [],
      "name": "NotEnoughOrderBooks",
      "type": "error"
    },
    {
      "anonymous": false,
      "inputs": [
        {
          "indexed": false,
          "internalType": "uint256",
          "name": "timestamp",
          "type": "uint256"
        }
      ],
      "name": "EmergencyTerminationExecuted",
      "type": "event"
    },
    {
      "anonymous": false,
      "inputs": [
        {
          "indexed": true,
          "internalType": "bytes32",
          "name": "ccy",
          "type": "bytes32"
        },
        {
          "indexed": false,
          "internalType": "uint256",
          "name": "genesisDate",
          "type": "uint256"
        },
        {
          "indexed": false,
          "internalType": "uint256",
          "name": "compoundFactor",
          "type": "uint256"
        },
        {
          "indexed": false,
          "internalType": "uint256",
          "name": "orderFeeRate",
          "type": "uint256"
        },
        {
          "indexed": false,
          "internalType": "uint256",
          "name": "circuitBreakerLimitRange",
          "type": "uint256"
        },
        {
          "indexed": false,
          "internalType": "address",
          "name": "lendingMarket",
          "type": "address"
        },
        {
          "indexed": false,
          "internalType": "address",
          "name": "futureValueVault",
          "type": "address"
        }
      ],
      "name": "LendingMarketInitialized",
      "type": "event"
    },
    {
      "anonymous": false,
      "inputs": [
        {
          "indexed": true,
          "internalType": "bytes32",
          "name": "ccy",
          "type": "bytes32"
        },
        {
          "indexed": false,
          "internalType": "uint256",
          "name": "minDebtUnitPrice",
          "type": "uint256"
        }
      ],
      "name": "MinDebtUnitPriceUpdated",
      "type": "event"
    },
    {
      "anonymous": false,
      "inputs": [
        {
          "indexed": true,
          "internalType": "bytes32",
          "name": "ccy",
          "type": "bytes32"
        },
        {
          "indexed": true,
          "internalType": "uint8",
          "name": "orderBookId",
          "type": "uint8"
        },
        {
          "indexed": false,
          "internalType": "uint256",
          "name": "openingDate",
          "type": "uint256"
        },
        {
          "indexed": false,
          "internalType": "uint256",
          "name": "preOpeningDate",
          "type": "uint256"
        },
        {
          "indexed": false,
          "internalType": "uint256",
          "name": "maturity",
          "type": "uint256"
        }
      ],
      "name": "OrderBookCreated",
      "type": "event"
    },
    {
      "anonymous": false,
      "inputs": [
        {
          "indexed": false,
          "internalType": "bytes32",
          "name": "ccy",
          "type": "bytes32"
        },
        {
          "indexed": false,
          "internalType": "uint256",
          "name": "oldMaturity",
          "type": "uint256"
        },
        {
          "indexed": false,
          "internalType": "uint256",
          "name": "newMaturity",
          "type": "uint256"
        }
      ],
      "name": "OrderBooksRotated",
      "type": "event"
    },
    {
      "anonymous": false,
      "inputs": [
        {
          "indexed": true,
          "internalType": "bytes32",
          "name": "ccy",
          "type": "bytes32"
        },
        {
          "indexed": true,
          "internalType": "uint256",
          "name": "maturity",
          "type": "uint256"
        },
        {
          "indexed": false,
          "internalType": "string",
          "name": "name",
          "type": "string"
        },
        {
          "indexed": false,
          "internalType": "string",
          "name": "symbol",
          "type": "string"
        },
        {
          "indexed": false,
          "internalType": "uint8",
          "name": "decimals",
          "type": "uint8"
        },
        {
          "indexed": false,
          "internalType": "address",
          "name": "tokenAddress",
          "type": "address"
        }
      ],
      "name": "ZCTokenCreated",
      "type": "event"
    },
    {
      "inputs": [],
      "name": "COMPOUND_FACTOR_DECIMALS",
      "outputs": [
        {
          "internalType": "uint8",
          "name": "",
          "type": "uint8"
        }
      ],
      "stateMutability": "view",
      "type": "function"
    },
    {
      "inputs": [],
      "name": "GENESIS_VALUE_BASE_DECIMALS",
      "outputs": [
        {
          "internalType": "uint8",
          "name": "",
          "type": "uint8"
        }
      ],
      "stateMutability": "view",
      "type": "function"
    },
    {
      "inputs": [],
      "name": "OBSERVATION_PERIOD",
      "outputs": [
        {
          "internalType": "uint256",
          "name": "",
          "type": "uint256"
        }
      ],
      "stateMutability": "view",
      "type": "function"
    },
    {
      "inputs": [],
      "name": "PRE_ORDER_BASE_PERIOD",
      "outputs": [
        {
          "internalType": "uint256",
          "name": "",
          "type": "uint256"
        }
      ],
      "stateMutability": "view",
      "type": "function"
    },
    {
      "inputs": [
        {
          "internalType": "bytes32",
          "name": "_bytes32",
          "type": "bytes32"
        }
      ],
      "name": "bytes32ToString",
      "outputs": [
        {
          "internalType": "string",
          "name": "",
          "type": "string"
        }
      ],
      "stateMutability": "pure",
      "type": "function"
    },
    {
      "inputs": [
        {
          "internalType": "uint256",
          "name": "_timestamp",
          "type": "uint256"
        },
        {
          "internalType": "uint256",
          "name": "_period",
          "type": "uint256"
        }
      ],
      "name": "calculateNextMaturity",
      "outputs": [
        {
          "internalType": "uint256",
          "name": "",
          "type": "uint256"
        }
      ],
      "stateMutability": "pure",
      "type": "function"
    }
  ],
  "transactionHash": "0xa63509fd017b7626d82f273f1700e618eb2de4fe5abe3291f1987ad86c02768c",
  "args": [],
  "numDeployments": 2,
  "solcInputHash": "4b80e782bfeebd0947331735599d1f32",
  "bytecode": "0x613b2f61003a600b82828239805160001a60731461002d57634e487b7160e01b600052600060045260246000fd5b30600052607381538281f3fe730000000000000000000000000000000000000000301460806040526004361061010a5760003560e01c8063aa3b5e83116100a1578063e3a9833311610070578063e3a983331461024f578063ea5748171461026f578063f4a0997f1461028f578063f75eb059146102af57600080fd5b8063aa3b5e831461020e578063b8f117cd14610218578063ce59203d1461022d578063cf41d3111461024757600080fd5b806353571ee7116100dd57806353571ee7146101805780636a23a95c146101a05780639201de55146101ce5780639ca38598146101ee57600080fd5b806313821bf71461010f578063420eadb71461012b578063428c3a811461013e5780634ebeb04914610160575b600080fd5b61011861546081565b6040519081526020015b60405180910390f35b610118610139366004612c05565b6102cf565b81801561014a57600080fd5b5061015e610159366004612c27565b6102fb565b005b81801561016c57600080fd5b5061015e61017b366004612c40565b610374565b81801561018c57600080fd5b5061015e61019b366004612c27565b6107ae565b8180156101ac57600080fd5b506101c06101bb366004612c05565b610c9a565b604051610122929190612c6c565b6101e16101dc366004612c27565b610ee7565b6040516101229190612d2f565b8180156101fa57600080fd5b5061015e610209366004612d42565b611009565b61011862093a8081565b81801561022457600080fd5b5061015e611204565b610235602481565b60405160ff9091168152602001610122565b610235601281565b81801561025b57600080fd5b5061015e61026a366004612c05565b611672565b81801561027b57600080fd5b5061015e61028a366004612d74565b6116f4565b81801561029b57600080fd5b5061015e6102aa366004612c27565b611a37565b8180156102bb57600080fd5b5061015e6102ca366004612c05565b611a94565b6000816000036102eb576102e4836007611ef0565b90506102f5565b6102e48383611f18565b92915050565b6000610305611fc2565b60008381526005919091016020526040808220548151631fa5d41d60e11b815291516001600160a01b0390911693508392633f4ba83a926004808201939182900301818387803b15801561035857600080fd5b505af115801561036c573d6000803e3d6000fd5b505050505050565b61037c611ff0565b6001600160a01b031663f7b637bb846040518263ffffffff1660e01b81526004016103a991815260200190565b602060405180830381865afa1580156103c6573d6000803e3d6000fd5b505050506040513d601f19601f820116820180604052508101906103ea9190612db7565b610407576040516381c91e4f60e01b815260040160405180910390fd5b61040f612014565b6001600160a01b0316631eae0893846040518263ffffffff1660e01b815260040161043c91815260200190565b602060405180830381865afa158015610459573d6000803e3d6000fd5b505050506040513d601f19601f8201168201806040525081019061047d9190612db7565b61049a57604051631eb3268560e31b815260040160405180910390fd5b818111156104bb57604051633654cc1160e11b815260040160405180910390fd5b60006104c5611fc2565b600085815260059190910160205260408120546001600160a01b03169150816338b058526104f1611fc2565b6000888152600491820160205260409081902090516001600160e01b031960e085901b16815261052192016133fb565b600060405180830381865afa15801561053e573d6000803e3d6000fd5b505050506040513d6000823e601f3d908101601f1916820160405261056691908101906134e4565b9050600081516000036105f05761057b611ff0565b6001600160a01b03166349a1d218876040518263ffffffff1660e01b81526004016105a891815260200190565b602060405180830381865afa1580156105c5573d6000803e3d6000fd5b505050506040513d601f19601f820116820180604052508101906105e99190613519565b9050610631565b600082600184516106019190613548565b815181106106115761061161355b565b6020026020010151905061062d81610627611fc2565b546102cf565b9150505b80851061065157604051634b36da7b60e01b815260040160405180910390fd5b604051632abae3cb60e11b81526004810182905260248101869052604481018590526000906001600160a01b03851690635575c796906064016020604051808303816000875af11580156106a9573d6000803e3d6000fd5b505050506040513d601f19601f820116820180604052508101906106cd9190613571565b90506106d7611fc2565b600088815260049190910160209081526040822080546001810182559083529181902090820401805460ff808516601f9094166101000a9384029302191691909117905580610724611fc2565b6000898152600a91909101602090815260408083208684529091529020805460ff191660ff9290921691909117905561075d8783611a94565b604080518781526020810187905290810183905260ff82169088907f90706ef3bc1bd0ad6605be3bcacf1198a970a27dfcd1790a440fa7e468ad11569060600160405180910390a350505050505050565b6107b6612014565b6001600160a01b0316631eae0893826040518263ffffffff1660e01b81526004016107e391815260200190565b602060405180830381865afa158015610800573d6000803e3d6000fd5b505050506040513d601f19601f820116820180604052508101906108249190612db7565b61084157604051631eb3268560e31b815260040160405180910390fd5b600061084b611fc2565b600083815260049190910160205260409020805490915060021115610883576040516358fa2af160e01b815260040160405180910390fd5b600061088d611fc2565b60008481526005919091016020526040808220549051631c582c2960e11b81526001600160a01b03909116925082906338b05852906108d09086906004016133fb565b600060405180830381865afa1580156108ed573d6000803e3d6000fd5b505050506040513d6000823e601f3d908101601f1916820160405261091591908101906134e4565b905060008360008154811061092c5761092c61355b565b90600052602060002090602091828204019190069054906101000a900460ff1690506000846001815481106109635761096361355b565b90600052602060002090602091828204019190069054906101000a900460ff16905060008360008151811061099a5761099a61355b565b602002602001015190506000846001815181106109b9576109b961355b565b6020026020010151905060006109f786600188516109d79190613548565b815181106109e7576109e761355b565b6020026020010151610627611fc2565b905060005b8854610a0a90600190613548565b811015610a9c5788610a1d826001613594565b81548110610a2d57610a2d61355b565b90600052602060002090602091828204019190069054906101000a900460ff16898281548110610a5f57610a5f61355b565b90600052602060002090602091828204019190066101000a81548160ff021916908360ff1602179055508080610a94906135a7565b9150506109fc565b5087805480610aad57610aad6135c0565b60008281526020808220600019909301908104909201805460ff601f85166101000a02191690559155610ae38a8585888c612034565b604051639beff3e360e01b815260ff808916600483015287166024820152604481018290529091506001600160a01b03891690639beff3e390606401600060405180830381600087803b158015610b3957600080fd5b505af1158015610b4d573d6000803e3d6000fd5b50505050610b658a8462093a808661017b9190613548565b610b6d611ff0565b6001600160a01b031663fb8439048b8686858d6001600160a01b031663128e5b856040518163ffffffff1660e01b8152600401602060405180830381865afa158015610bbd573d6000803e3d6000fd5b505050506040513d601f19601f82011682018060405250810190610be19190613519565b6040516001600160e01b031960e088901b1681526004810195909552602485019390935260448401919091526064830152608482015260a401600060405180830381600087803b158015610c3457600080fd5b505af1158015610c48573d6000803e3d6000fd5b5050604080518d8152602081018890529081018590527f134ffefb84024e6cd2bb0455365b114f82b012f23b0b0cf931045b8020f26ba59250606001905060405180910390a150505050505050505050565b610ca2612bcc565b610caa612bcc565b6000610cb4611fc2565b600086815260059190910160205260408120546001600160a01b03169150610cda611fc2565b6000878152600a919091016020908152604080832088845290915280822054905163130e60d960e11b815260ff909116600482018190529250819081906001600160a01b0386169063261cc1b290602401610160604051808303816000875af1158015610d4b573d6000803e3d6000fd5b505050506040513d601f19601f82011682018060405250810190610d6f919061367a565b60408082015190830151929c50909a50939650909450909250610d938360026136cd565b610d9d9190613548565b610da79190613548565b610daf611fc2565b60008b8152600991909101602090815260408083208c845290915281208054909190610ddc908490613594565b90915550508215801590610e3f57508360ff16610df7611fc2565b60040160008b8152602001908152602001600020600081548110610e1d57610e1d61355b565b60009182526020918290209181049091015460ff601f9092166101000a900416145b15610edb576000610e6c848a85610e54611fc2565b60008f81526008919091016020526040902054612217565b9050610e76611ff0565b60405163a969285f60e01b8152600481018c9052602481018390526001600160a01b03919091169063a969285f90604401600060405180830381600087803b158015610ec157600080fd5b505af1158015610ed5573d6000803e3d6000fd5b50505050505b50505050509250929050565b606060005b602081108015610f1a5750828160208110610f0957610f0961355b565b1a60f81b6001600160f81b03191615155b15610f315780610f29816135a7565b915050610eec565b60008167ffffffffffffffff811115610f4c57610f4c61340e565b6040519080825280601f01601f191660200182016040528015610f76576020820181803683370190505b509050600091505b602082108015610fac5750838260208110610f9b57610f9b61355b565b1a60f81b6001600160f81b03191615155b1561100257838260208110610fc357610fc361355b565b1a60f81b818381518110610fd957610fd961355b565b60200101906001600160f81b031916908160001a90535081610ffa816135a7565b925050610f7e565b9392505050565b6000611013611fc2565b6000868152600a919091016020908152604080832087845290915290205460ff1690508061103f611fc2565b60040160008781526020019081526020016000206001815481106110655761106561355b565b60009182526020918290209181049091015460ff601f9092166101000a900416036111fd576000611094611fc2565b600087815260059190910160205260409020546001600160a01b031663a4ff243a6110bd611fc2565b60040160008981526020019081526020016000206000815481106110e3576110e361355b565b60009182526020918290209181049091015460405160e084901b6001600160e01b0319168152601f9092166101000a900460ff166004820152602401602060405180830381865afa15801561113c573d6000803e3d6000fd5b505050506040513d601f19601f820116820180604052508101906111609190613519565b9050804210801561117c575061117861546082613548565b4210155b1561036c578361118a611fc2565b6000888152600c9190910160209081526040808320898452909152812080549091906111b7908490613594565b909155508390506111c6611fc2565b6000888152600c9190910160209081526040808320898452909152812060010180549091906111f6908490613594565b9091555050505b5050505050565b4261120d611fc2565b60010155600061121b612014565b6001600160a01b03166361c661de6040518163ffffffff1660e01b8152600401600060405180830381865afa158015611258573d6000803e3d6000fd5b505050506040513d6000823e601f3d908101601f1916820160405261128091908101906136e4565b9050600061128c61228b565b6001600160a01b031663d5e190d06040518163ffffffff1660e01b8152600401600060405180830381865afa1580156112c9573d6000803e3d6000fd5b505050506040513d6000823e601f3d908101601f191682016040526112f191908101906136e4565b905060005b82518110156114675760008382815181106113135761131361355b565b602002602001015190506040518060400160405280611330612014565b6001600160a01b0316637d11cfda846040518263ffffffff1660e01b815260040161135d91815260200190565b602060405180830381865afa15801561137a573d6000803e3d6000fd5b505050506040513d601f19601f8201168201806040525081019061139e9190613519565b81526020016113ab612014565b6001600160a01b03166312105fea846040518263ffffffff1660e01b81526004016113d891815260200190565b602060405180830381865afa1580156113f5573d6000803e3d6000fd5b505050506040513d601f19601f820116820180604052508101906114199190613571565b60ff169052611426611fc2565b600092835260020160209081526040909220815181559101516001909101805460ff191660ff9092169190911790558061145f816135a7565b9150506112f6565b5060005b815181101561163a5760008282815181106114885761148861355b565b60200260200101519050600061149c61228b565b6001600160a01b031663b12e4410836040518263ffffffff1660e01b81526004016114c991815260200190565b602060405180830381865afa1580156114e6573d6000803e3d6000fd5b505050506040513d601f19601f8201168201806040525081019061150a919061376a565b90506000816001600160a01b03166370a0823161152561228b565b6040516001600160e01b031960e084901b1681526001600160a01b039091166004820152602401602060405180830381865afa158015611569573d6000803e3d6000fd5b505050506040513d601f19601f8201168201806040525081019061158d9190613519565b9050611597612014565b604051636ed2f1db60e01b815260048101859052602481018390526001600160a01b039190911690636ed2f1db90604401602060405180830381865afa1580156115e5573d6000803e3d6000fd5b505050506040513d601f19601f820116820180604052508101906116099190613519565b611611611fc2565b600094855260030160205260409093209290925550819050611632816135a7565b91505061146b565b506040514281527f5bd5e5214bcf42a851f8883889177591b93dbd526076c7b5e96bd8eed5931a539060200160405180910390a15050565b6127108111156116955760405163a6ffa62b60e01b815260040160405180910390fd5b8061169e611fc2565b600701600084815260200190815260200160002081905550817f6525e6746b8e4306bc5600943b820fb3b2562be01561ff4e1a6c5207df3a6402826040516116e891815260200190565b60405180910390a25050565b6116fc612014565b6001600160a01b0316631eae0893876040518263ffffffff1660e01b815260040161172991815260200190565b602060405180830381865afa158015611746573d6000803e3d6000fd5b505050506040513d601f19601f8201168201806040525081019061176a9190612db7565b61178757604051631eb3268560e31b815260040160405180910390fd5b836000036117a857604051632feb431160e01b815260040160405180910390fd5b6117b0611ff0565b6001600160a01b031663a2d7d02d876024876117ce8a610627611fc2565b6040516001600160e01b031960e087901b168152600481019490945260ff909216602484015260448301526064820152608401600060405180830381600087803b15801561181b57600080fd5b505af115801561182f573d6000803e3d6000fd5b50505050600061183d6122a3565b604051634672758f60e01b81526004810189905260248101869052604481018590526001600160a01b039190911690634672758f906064016020604051808303816000875af1158015611894573d6000803e3d6000fd5b505050506040513d601f19601f820116820180604052508101906118b8919061376a565b905060006118c46122a3565b6001600160a01b031663a97c4b536040518163ffffffff1660e01b81526004016020604051808303816000875af1158015611903573d6000803e3d6000fd5b505050506040513d601f19601f82011682018060405250810190611927919061376a565b905086611932611fc2565b60008a815260089190910160205260409020558161194e611fc2565b60008a81526005919091016020526040902080546001600160a01b0319166001600160a01b039290921691909117905580611987611fc2565b60008a81526006919091016020526040902080546001600160a01b0319166001600160a01b03929092169190911790556119c18884611672565b6119cc886000611a94565b6040805188815260208101889052908101869052606081018590526001600160a01b038084166080830152821660a082015288907fe00c92761ad716218582d39142ce84d836cc05a3514de15a8b358b69276d55b89060c00160405180910390a25050505050505050565b6000611a41611fc2565b60008381526005919091016020526040808220548151638456cb5960e01b815291516001600160a01b0390911693508392638456cb59926004808201939182900301818387803b15801561035857600080fd5b6000611a9e611fc2565b6000848152600f91909101602090815260408083208584529091529020546001600160a01b031614611b1b57611ad2611fc2565b6000838152600f9190910160209081526040808320848452909152908190205490516366d23a4d60e11b81526001600160a01b0390911660048201526024015b60405180910390fd5b8015801590611b505750611b2d611fc2565b6000838152600a919091016020908152604080832084845290915290205460ff16155b15611b71576040516325bba35960e21b815260048101829052602401611b12565b6000611b7b61228b565b6001600160a01b031663b12e4410846040518263ffffffff1660e01b8152600401611ba891815260200190565b602060405180830381865afa158015611bc5573d6000803e3d6000fd5b505050506040513d601f19601f82011682018060405250810190611be9919061376a565b90506000611bf684610ee7565b9050600081604051602001611c0b9190613785565b6040516020818303038152906040529050600082604051602001611c2f91906137af565b604051602081830303815290604052905060006012856001600160a01b031663313ce5676040518163ffffffff1660e01b8152600401602060405180830381865afa158015611c82573d6000803e3d6000fd5b505050506040513d601f19601f82011682018060405250810190611ca69190613571565b611cb091906137da565b90508515611d8957600080611cc4886122c6565b50915091506000611cd4836122ec565b600a8310611cea57611ce5836122ec565b611d13565b611cf3836122ec565b604051602001611d0391906137f3565b6040516020818303038152906040525b604051602001611d2492919061381c565b60405160208183030381529060405290508581604051602001611d4892919061381c565b604051602081830303815290604052955084611d638a61237f565b604051602001611d74929190613858565b60405160208183030381529060405294505050505b6000611d936122a3565b6001600160a01b0316637c35befe8486858a8c6040518663ffffffff1660e01b8152600401611dc6959493929190613888565b6020604051808303816000875af1158015611de5573d6000803e3d6000fd5b505050506040513d601f19601f82011682018060405250810190611e09919061376a565b905080611e14611fc2565b60008a8152600f91909101602090815260408083208b845282529182902080546001600160a01b0319166001600160a01b0394909416939093179092558051808201909152898152908101889052611e6a611fc2565b6010016000836001600160a01b03166001600160a01b03168152602001908152602001600020600082015181600001556020820151816001015590505086887f8b541090c3b3f5b687eb529d35c6544769bed00fa888769d775fb8f6c64e37f985878686604051611ede94939291906138d7565b60405180910390a35050505050505050565b6000611eff62015180836136cd565b611f099084613594565b9050828110156102f557600080fd5b60008080611f38611f3386611f2e876001613594565b612537565b6122c6565b50915091506000611f4b83836000612609565b90506000611f588261262c565b9050600060058260058410611f6e576000611f71565b60075b60ff16611f7e9190613594565b611f889190613548565b9050611f948382612660565b955085600003611fb75760405163b7d0949760e01b815260040160405180910390fd5b505050505092915050565b6000806102f560017f8041b8421ebd495cc61f38c788c9eb100daccf9bd36aa0bb920b7a15b2e04965613548565b600061200f7011d95b995cda5cd5985b1d5955985d5b1d607a1b612688565b905090565b600061200f7121bab93932b731bca1b7b73a3937b63632b960711b612688565b60008061203f611fc2565b6000888152600c919091016020908152604080832088845282529182902082518084019093528054835260010154908201819052909150156120a25761209b8160200151612710836000015161209591906136cd565b906126e9565b915061220d565b60405162fcc52160e51b815260ff8516600482015260009081906001600160a01b03861690631f98a42090602401600060405180830381865afa1580156120ed573d6000803e3d6000fd5b505050506040513d6000823e601f3d908101601f191682016040526121159190810190613921565b915091506000612123611ff0565b6001600160a01b031663d637c15f8b6040518263ffffffff1660e01b815260040161215091815260200190565b60a060405180830381865afa15801561216d573d6000803e3d6000fd5b505050506040513d601f19601f82011682018060405250810190612191919061396f565b9050826000815181106121a6576121a661355b565b60200260200101516000141580156121ca575080608001518265ffffffffffff1610155b15612204576121fd836000815181106121e5576121e561355b565b6020026020010151898465ffffffffffff168c612217565b9450612209565b805194505b5050505b5095945050505050565b6000806122248486613548565b905060006122328487613548565b905061223e82886136cd565b8161224b89612710613548565b61225591906136cd565b61225f9190613594565b8261226c896127106136cd565b61227691906136cd565b61228091906139f5565b979650505050505050565b600061200f69151bdad95b95985d5b1d60b21b612688565b600061200f742132b0b1b7b7283937bc3ca1b7b73a3937b63632b960591b612688565b600080806122df6122da62015180866139f5565b612753565b9196909550909350915050565b606060006122f9836128c7565b600101905060008167ffffffffffffffff8111156123195761231961340e565b6040519080825280601f01601f191660200182016040528015612343576020820181803683370190505b5090508181016020015b600019016f181899199a1a9b1b9c1cb0b131b232b360811b600a86061a8153600a850494508461234d57509392505050565b606060008061238d846122c6565b50604080516101c08101825260036101808201818152622520a760e91b6101a0840152825282518084018452818152622322a160e91b60208281019190915280840191909152835180850185528281526226a0a960e91b8183015283850152835180850185528281526220a82960e91b81830152606084015283518085018552828152624d415960e81b8183015260808401528351808501855282815262252aa760e91b8183015260a0840152835180850185528281526212955360ea1b8183015260c0840152835180850185528281526241554760e81b8183015260e0840152835180850185528281526205345560ec1b81830152610100840152835180850185528281526213d0d560ea1b8183015261012084015283518085018552828152622727ab60e91b8183015261014084015283518085019094529083526244454360e81b908301526101608101919091529193509150806124ef600184613548565b600c81106124ff576124ff61355b565b602002015161250d846122ec565b60405160200161251e929190613a09565b6040516020818303038152906040529350505050919050565b600080808061254c6122da62015180886139f5565b9194509250905061255d8583613594565b9150600c61256c600184613548565b61257691906139f5565b6125809084613594565b9250600c61258f600184613548565b6125999190613a38565b6125a4906001613594565b915060006125b2848461299f565b9050808211156125c0578091505b6125cd6201518088613a38565b620151806125dc868686612a25565b6125e691906136cd565b6125f09190613594565b9450868510156125ff57600080fd5b5050505092915050565b60006201518061261a858585612a25565b61262491906136cd565b949350505050565b60008061263c62015180846139f5565b9050600761264b826003613594565b6126559190613a38565b611002906001613594565b600061266f62015180836136cd565b6126799084613548565b9050828111156102f557600080fd5b600080612693612b62565b600084815260019190910160205260409020546001600160a01b03169050806102f55760408051602081018590520160408051601f19818403018152908290526346e2ec9360e01b8252611b1291600401612d2f565b60008082116126f757600080fd5b600561270383856139f5565b61270e90600a6136cd565b8361271a86600a6136cd565b61272491906139f5565b61272e9190613548565b101561273e576102e482846139f5565b61274882846139f5565b6102e4906001613594565b60008080838162253d8c61276a8362010bd9613a4c565b6127749190613a4c565b9050600062023ab1612787836004613a74565b6127919190613aa4565b905060046127a28262023ab1613a74565b6127ad906003613a4c565b6127b79190613aa4565b6127c19083613ad2565b9150600062164b096127d4846001613a4c565b6127e090610fa0613a74565b6127ea9190613aa4565b905060046127fa826105b5613a74565b6128049190613aa4565b61280e9084613ad2565b61281990601f613a4c565b9250600061098f61282b856050613a74565b6128359190613aa4565b9050600060506128478361098f613a74565b6128519190613aa4565b61285b9086613ad2565b9050612868600b83613aa4565b945061287585600c613a74565b612880836002613a4c565b61288a9190613ad2565b91508483612899603187613ad2565b6128a4906064613a74565b6128ae9190613a4c565b6128b89190613a4c565b9a919950975095505050505050565b60008072184f03e93ff9f4daa797ed6e38ed64bf6a1f0160401b83106129065772184f03e93ff9f4daa797ed6e38ed64bf6a1f0160401b830492506040015b6d04ee2d6d415b85acef81000000008310612932576d04ee2d6d415b85acef8100000000830492506020015b662386f26fc10000831061295057662386f26fc10000830492506010015b6305f5e1008310612968576305f5e100830492506008015b612710831061297c57612710830492506004015b6064831061298e576064830492506002015b600a83106102f55760010192915050565b600081600114806129b05750816003145b806129bb5750816005145b806129c65750816007145b806129d15750816008145b806129dc575081600a145b806129e7575081600c145b156129f45750601f6102f5565b81600214612a045750601e6102f5565b612a0d83612b90565b612a1857601c612a1b565b601d5b60ff169392505050565b60006107b2841015612a3657600080fd5b838383600062253d8c60046064600c612a50600e88613ad2565b612a5a9190613aa4565b612a6688611324613a4c565b612a709190613a4c565b612a7a9190613aa4565b612a85906003613a74565b612a8f9190613aa4565b600c80612a9d600e88613ad2565b612aa79190613aa4565b612ab290600c613a74565b612abd600288613ad2565b612ac79190613ad2565b612ad39061016f613a74565b612add9190613aa4565b6004600c612aec600e89613ad2565b612af69190613aa4565b612b02896112c0613a4c565b612b0c9190613a4c565b612b18906105b5613a74565b612b229190613aa4565b612b2e617d4b87613ad2565b612b389190613a4c565b612b429190613a4c565b612b4c9190613ad2565b612b569190613ad2565b98975050505050505050565b6000806102f560017f4abde63c3e81aefa5764b017968bc473e83e093d7e1a10247d19e0a3e4124018613548565b6000612b9d600483613a38565b158015612bb35750612bb0606483613a38565b15155b806102f55750612bc561019083613a38565b1592915050565b6040518060800160405280600065ffffffffffff16815260200160006001600160a01b0316815260200160008152602001600081525090565b60008060408385031215612c1857600080fd5b50508035926020909101359150565b600060208284031215612c3957600080fd5b5035919050565b600080600060608486031215612c5557600080fd5b505081359360208301359350604090920135919050565b825165ffffffffffff1681526020808401516001600160a01b03169082015260408084015190820152606080840151908201526101008101825165ffffffffffff16608083015260208301516001600160a01b031660a0830152604083015160c0830152606083015160e0830152611002565b60005b83811015612cfa578181015183820152602001612ce2565b50506000910152565b60008151808452612d1b816020860160208601612cdf565b601f01601f19169290920160200192915050565b6020815260006110026020830184612d03565b60008060008060808587031215612d5857600080fd5b5050823594602084013594506040840135936060013592509050565b60008060008060008060c08789031215612d8d57600080fd5b505084359660208601359650604086013595606081013595506080810135945060a0013592509050565b600060208284031215612dc957600080fd5b8151801515811461100257600080fd5b805480835260008281526020808220940193909190825b82601f8201101561307757815460ff80821688526020612e19818a01838560081c1660ff169052565b6040612e2e818b01848660101c1660ff169052565b6060612e43818c01858760181c1660ff169052565b6080612e57818d018688871c1660ff169052565b60a09350612e6e848d01868860281c1660ff169052565b60c0612e83818e01878960301c1660ff169052565b60e0612e98818f01888a60381c1660ff169052565b60ff88861c8816166101008f0152612ebb6101208f01888a60481c1660ff169052565b612ed06101408f01888a60501c1660ff169052565b612ee56101608f01888a60581c1660ff169052565b60ff88851c8816166101808f0152612f086101a08f01888a60681c1660ff169052565b612f1d6101c08f01888a60701c1660ff169052565b612f326101e08f01888a60781c1660ff169052565b60ff88841c8816166102008f0152612f556102208f01888a60881c1660ff169052565b612f6a6102408f01888a60901c1660ff169052565b612f7f6102608f01888a60981c1660ff169052565b60ff88871c8816166102808f0152612fa26102a08f01888a60a81c1660ff169052565b612fb76102c08f01888a60b01c1660ff169052565b612fcc6102e08f01888a60b81c1660ff169052565b60ff88831c8816166103008f0152612fef6103208f01888a60c81c1660ff169052565b6130046103408f01888a60d01c1660ff169052565b6130196103608f01888a60d81c1660ff169052565b60ff88821c8816166103808f01525050505050506130426103a08901828460e81c1660ff169052565b6130576103c08901828460f01c1660ff169052565b5060f81c6103e08701526104009095019460019190910190602001612df0565b905490828110156130925760ff821686526020909501946001015b828110156130ae5760ff600883901c1686526020909501946001015b828110156130ca5760ff601083901c1686526020909501946001015b828110156130e65760ff601883901c1686526020909501946001015b8281101561310357602082901c60ff168652602095909501946001015b8281101561311f5760ff602883901c1686526020909501946001015b8281101561313b5760ff603083901c1686526020909501946001015b828110156131575760ff603883901c1686526020909501946001015b828110156131735760ff604083901c1686526020909501946001015b8281101561318f5760ff604883901c1686526020909501946001015b828110156131ab5760ff605083901c1686526020909501946001015b828110156131c75760ff605883901c1686526020909501946001015b828110156131e35760ff606083901c1686526020909501946001015b828110156131ff5760ff606883901c1686526020909501946001015b8281101561321b5760ff607083901c1686526020909501946001015b828110156132375760ff607883901c1686526020909501946001015b828110156132535760ff608083901c1686526020909501946001015b8281101561326f5760ff608883901c1686526020909501946001015b8281101561328b5760ff609083901c1686526020909501946001015b828110156132a75760ff609883901c1686526020909501946001015b828110156132c35760ff60a083901c1686526020909501946001015b828110156132df5760ff60a883901c1686526020909501946001015b828110156132fb5760ff60b083901c1686526020909501946001015b828110156133175760ff60b883901c1686526020909501946001015b828110156133335760ff60c083901c1686526020909501946001015b8281101561334f5760ff60c883901c1686526020909501946001015b8281101561336b5760ff60d083901c1686526020909501946001015b828110156133875760ff60d883901c1686526020909501946001015b828110156133a35760ff60e083901c1686526020909501946001015b828110156133bf5760ff60e883901c1686526020909501946001015b828110156133db5760ff60f083901c1686526020909501946001015b828110156133f15760f882901c86526020860195505b5093949350505050565b6020815260006110026020830184612dd9565b634e487b7160e01b600052604160045260246000fd5b604051601f8201601f1916810167ffffffffffffffff8111828210171561344d5761344d61340e565b604052919050565b600067ffffffffffffffff82111561346f5761346f61340e565b5060051b60200190565b600082601f83011261348a57600080fd5b8151602061349f61349a83613455565b613424565b82815260059290921b840181019181810190868411156134be57600080fd5b8286015b848110156134d957805183529183019183016134c2565b509695505050505050565b6000602082840312156134f657600080fd5b815167ffffffffffffffff81111561350d57600080fd5b61262484828501613479565b60006020828403121561352b57600080fd5b5051919050565b634e487b7160e01b600052601160045260246000fd5b818103818111156102f5576102f5613532565b634e487b7160e01b600052603260045260246000fd5b60006020828403121561358357600080fd5b815160ff8116811461100257600080fd5b808201808211156102f5576102f5613532565b6000600182016135b9576135b9613532565b5060010190565b634e487b7160e01b600052603160045260246000fd5b805165ffffffffffff811681146135ec57600080fd5b919050565b80516001600160a01b03811681146135ec57600080fd5b60006080828403121561361a57600080fd5b6040516080810181811067ffffffffffffffff8211171561363d5761363d61340e565b60405290508061364c836135d6565b815261365a602084016135f1565b602082015260408301516040820152606083015160608201525092915050565b6000806000806000610160868803121561369357600080fd5b8551945060208601519350604086015192506136b28760608801613608565b91506136c18760e08801613608565b90509295509295909350565b80820281158282048414176102f5576102f5613532565b600060208083850312156136f757600080fd5b825167ffffffffffffffff81111561370e57600080fd5b8301601f8101851361371f57600080fd5b805161372d61349a82613455565b81815260059190911b8201830190838101908783111561374c57600080fd5b928401925b8284101561228057835182529284019290840190613751565b60006020828403121561377c57600080fd5b611002826135f1565b617a6360f01b8152600082516137a2816002850160208701612cdf565b9190910160020192915050565b6202d21960ed1b8152600082516137cd816003850160208701612cdf565b9190910160030192915050565b60ff81811683821601908111156102f5576102f5613532565b600360fc1b81526000825161380f816001850160208701612cdf565b9190910160010192915050565b6000835161382e818460208801612cdf565b602d60f81b908301908152835161384c816001840160208801612cdf565b01600101949350505050565b6000835161386a818460208801612cdf565b600160fd1b908301908152835161384c816001840160208801612cdf565b60a08152600061389b60a0830188612d03565b82810360208401526138ad8188612d03565b60ff96909616604084015250506001600160a01b0392909216606083015260809091015292915050565b6080815260006138ea6080830187612d03565b82810360208401526138fc8187612d03565b60ff95909516604084015250506001600160a01b039190911660609091015292915050565b6000806040838503121561393457600080fd5b825167ffffffffffffffff81111561394b57600080fd5b61395785828601613479565b925050613966602084016135d6565b90509250929050565b600060a0828403121561398157600080fd5b60405160a0810181811067ffffffffffffffff821117156139a4576139a461340e565b806040525082518152602083015160208201526040830151604082015260608301516060820152608083015160808201528091505092915050565b634e487b7160e01b600052601260045260246000fd5b600082613a0457613a046139df565b500490565b60008351613a1b818460208801612cdf565b835190830190613a2f818360208801612cdf565b01949350505050565b600082613a4757613a476139df565b500690565b8082018281126000831280158216821582161715613a6c57613a6c613532565b505092915050565b80820260008212600160ff1b84141615613a9057613a90613532565b81810583148215176102f5576102f5613532565b600082613ab357613ab36139df565b600160ff1b821460001984141615613acd57613acd613532565b500590565b8181036000831280158383131683831282161715613af257613af2613532565b509291505056fea2646970667358221220b5cc15612e510c8df4512f3c3fc94760ffa7ee5780edbc7bf336b067d9b5176264736f6c63430008130033",
  "devdoc": {
    "kind": "dev",
    "methods": {},
    "version": 1
  },
  "userdoc": {
    "kind": "user",
    "methods": {},
    "version": 1
  },
  "storageLayout": {
    "storage": [],
    "types": null
  }
}