{
  "address": "0xe9EB91d8C005C540EA65579eBF9be127e36a4905",
  "abi": [
    {
      "inputs": [
        {
          "internalType": "uint8",
          "name": "_orderBookId",
          "type": "uint8"
        },
        {
          "internalType": "enum ProtocolTypes.Side",
          "name": "_side",
          "type": "ProtocolTypes.Side"
        },
        {
          "internalType": "uint256",
          "name": "_amount",
          "type": "uint256"
        },
        {
          "internalType": "uint256",
          "name": "_unitPrice",
          "type": "uint256"
        }
      ],
      "name": "calculateFilledAmount",
      "outputs": [
        {
          "internalType": "uint256",
          "name": "lastUnitPrice",
          "type": "uint256"
        },
        {
          "internalType": "uint256",
          "name": "filledAmount",
          "type": "uint256"
        },
        {
          "internalType": "uint256",
          "name": "filledAmountInFV",
          "type": "uint256"
        },
        {
          "internalType": "uint256",
          "name": "orderFeeInFV",
          "type": "uint256"
        },
        {
          "internalType": "uint256",
          "name": "placedAmount",
          "type": "uint256"
        }
      ],
      "stateMutability": "view",
      "type": "function"
    },
    {
      "inputs": [
        {
          "internalType": "uint256",
          "name": "_maturity",
          "type": "uint256"
        },
        {
          "internalType": "uint256",
          "name": "_amount",
          "type": "uint256"
        }
      ],
      "name": "calculateOrderFeeAmount",
      "outputs": [
        {
          "internalType": "uint256",
          "name": "orderFeeAmount",
          "type": "uint256"
        }
      ],
      "stateMutability": "view",
      "type": "function"
    },
    {
      "inputs": [
        {
          "internalType": "uint8",
          "name": "_orderBookId",
          "type": "uint8"
        },
        {
          "internalType": "address",
          "name": "_user",
          "type": "address"
        }
      ],
      "name": "getBorrowOrderIds",
      "outputs": [
        {
          "internalType": "uint48[]",
          "name": "activeOrderIds",
          "type": "uint48[]"
        },
        {
          "internalType": "uint48[]",
          "name": "inActiveOrderIds",
          "type": "uint48[]"
        }
      ],
      "stateMutability": "view",
      "type": "function"
    },
    {
      "inputs": [
        {
          "internalType": "uint8",
          "name": "_orderBookId",
          "type": "uint8"
        },
        {
          "internalType": "address",
          "name": "_user",
          "type": "address"
        }
      ],
      "name": "getLendOrderIds",
      "outputs": [
        {
          "internalType": "uint48[]",
          "name": "activeOrderIds",
          "type": "uint48[]"
        },
        {
          "internalType": "uint48[]",
          "name": "inActiveOrderIds",
          "type": "uint48[]"
        }
      ],
      "stateMutability": "view",
      "type": "function"
    },
    {
      "inputs": [
        {
          "internalType": "uint8",
          "name": "_orderBookId",
          "type": "uint8"
        },
        {
          "internalType": "uint48",
          "name": "_orderId",
          "type": "uint48"
        }
      ],
      "name": "getOrder",
      "outputs": [
        {
          "internalType": "enum ProtocolTypes.Side",
          "name": "side",
          "type": "ProtocolTypes.Side"
        },
        {
          "internalType": "uint256",
          "name": "unitPrice",
          "type": "uint256"
        },
        {
          "internalType": "uint256",
          "name": "maturity",
          "type": "uint256"
        },
        {
          "internalType": "address",
          "name": "maker",
          "type": "address"
        },
        {
          "internalType": "uint256",
          "name": "amount",
          "type": "uint256"
        },
        {
          "internalType": "uint256",
          "name": "timestamp",
          "type": "uint256"
        },
        {
          "internalType": "bool",
          "name": "isPreOrder",
          "type": "bool"
        }
      ],
      "stateMutability": "view",
      "type": "function"
    },
    {
      "inputs": [
        {
          "internalType": "uint8",
          "name": "_orderBookId",
          "type": "uint8"
        },
        {
          "internalType": "address",
          "name": "_user",
          "type": "address"
        },
        {
          "internalType": "uint256",
          "name": "_minUnitPrice",
          "type": "uint256"
        }
      ],
      "name": "getTotalAmountFromBorrowOrders",
      "outputs": [
        {
          "internalType": "uint256",
          "name": "activeAmount",
          "type": "uint256"
        },
        {
          "internalType": "uint256",
          "name": "inactiveAmount",
          "type": "uint256"
        },
        {
          "internalType": "uint256",
          "name": "inactiveFutureValue",
          "type": "uint256"
        },
        {
          "internalType": "uint256",
          "name": "maturity",
          "type": "uint256"
        }
      ],
      "stateMutability": "view",
      "type": "function"
    },
    {
      "inputs": [
        {
          "internalType": "uint8",
          "name": "_orderBookId",
          "type": "uint8"
        },
        {
          "internalType": "address",
          "name": "_user",
          "type": "address"
        }
      ],
      "name": "getTotalAmountFromLendOrders",
      "outputs": [
        {
          "internalType": "uint256",
          "name": "activeAmount",
          "type": "uint256"
        },
        {
          "internalType": "uint256",
          "name": "inactiveAmount",
          "type": "uint256"
        },
        {
          "internalType": "uint256",
          "name": "inactiveFutureValue",
          "type": "uint256"
        },
        {
          "internalType": "uint256",
          "name": "maturity",
          "type": "uint256"
        }
      ],
      "stateMutability": "view",
      "type": "function"
    }
  ],
  "transactionHash": "0x26e2ef54fce597926f97ad7e9191431b457ab8de710abf1b025a69d57cfab963",
  "args": [],
  "numDeployments": 2,
  "solcInputHash": "4b80e782bfeebd0947331735599d1f32",
  "bytecode": "0x611ee461003a600b82828239805160001a60731461002d57634e487b7160e01b600052600060045260246000fd5b30600052607381538281f3fe730000000000000000000000000000000000000000301460806040526004361061009d5760003560e01c80635fee0bba116100705780635fee0bba14610150578063c022097a14610171578063c870772314610192578063de9f5fed146101c0578063ff5cce97146101e657600080fd5b806313a4451c146100a25780633d0157ef146100da5780634a864e22146101025780634c60afc81461013d575b600080fd5b6100b56100b0366004611b73565b6101f9565b6040805194855260208501939093529183015260608201526080015b60405180910390f35b6100ed6100e8366004611bbc565b610342565b604080519283526020830191909152016100d1565b610115610110366004611bdf565b6103dd565b604080519586526020860194909452928401919091526060830152608082015260a0016100d1565b6100b561014b366004611c27565b61046b565b61016361015e366004611b73565b61057a565b6040516100d1929190611ca6565b61018461017f366004611ccb565b61059b565b6040519081526020016100d1565b6101a56101a0366004611bbc565b6105f9565b604080519384526020840192909252908201526060016100d1565b6101d36101ce366004611ced565b61068b565b6040516100d19796959493929190611d2d565b6101636101f4366004611b73565b61078b565b600080600080600061020a876107a1565b905060008061021983896107c6565b6001600160a01b038a166000908152600886016020526040812054965091935091505b82518110156102db57600061027384838151811061025c5761025c611d88565b602002602001015186610a6190919063ffffffff16565b905060006102c1826020015186858151811061029157610291611d88565b602002602001015188600b0160008a600001548152602001908152602001600020610afc9092919063ffffffff16565b91506102cf9050818b611db4565b9950505060010161023c565b5060005b81518110156103355760008061030e8685858151811061030157610301611d88565b6020026020010151610342565b909250905061031d828a611db4565b98506103298189611db4565b975050506001016102df565b5050505092959194509250565b600080806103508585610a61565b6020808201516040808401516000908152600b8a01909352822092935090916103799187610afc565b835160408086015160208088015165ffffffffffff8c166000908152600a8e019092529281205494965094506103b49390919060ff16610b7c565b90508194506103d181612710846103cb9190611dc7565b90610c4d565b93505050509250929050565b6000806000806000806103ef8a6107a1565b905060008060006104128c8b610403610cbe565b60030154879291906001610cec565b5092509250925082156104535761042b848d8d85610dee565b919a509850965061043c888c611dde565b945061044c84600001548861059b565b955061045c565b8061045c578a94505b50505050945094509450945094565b600080600080600061047c886107a1565b905060008061048b838a610e73565b6001600160a01b038b166000908152600886016020526040812054965091935091505b825181101561051f5760008060006104df878786815181106104d2576104d2611d88565b60200260200101516105f9565b9250925092508b811015610502576104fd6127106103cb8e85611dc7565b610504565b825b61050e908c611db4565b9a5050600190920191506104ae9050565b5060005b815181101561056d57600080610545868585815181106104d2576104d2611d88565b509092509050610555828a611db4565b98506105618189611db4565b97505050600101610523565b5050505093509350935093565b6060806105908361058a866107a1565b906107c6565b909590945092505050565b60008242106105ac575060006105f3565b60006105b84285611dde565b90506105ef6105cd6127106301e13380611dc7565b84836105d7610cbe565b600201546105e59190611dc7565b6103cb9190611dc7565b9150505b92915050565b60008080806106088686610a61565b6020808201516040808401516000908152600c8b01909352822092935090916106319188610afc565b835160408086015160208088015165ffffffffffff8d166000908152600a8f019092529290205493955061066a9450919260ff16610b7c565b909450915083610680836103cb61271084611dc7565b935050509250925092565b6000806000806000806000806106a08a6107a1565b905060006106ae828b610a61565b90506000815160018111156106c5576106c5611d17565b036106f9576020808201516040808401516000908152600b86019093529091206106ef918c610afc565b9096509450610724565b6020808201516040808401516000908152600c860190935290912061071e918c610afc565b90965094505b6001600160a01b0386161561077d578051604080830151606084015165ffffffffffff8e166000908152600a870160209081529390205492850151939c50909950955060ff16935061077a908a90899086610b7c565b97505b505092959891949750929550565b6060806105908361079b866107a1565b90610e73565b60006107ab610cbe565b60ff9092166000908152600492909201602052506040902090565b6001600160a01b03811660009081526008830160209081526040808320546006860183528184208054835181860281018601909452808452606095869590948594934285111593869383018282801561086e57602002820191906000526020600020906000905b82829054906101000a900465ffffffffffff1665ffffffffffff168152602001906006019060208260050104928301926001038202915080841161082d5790505b50505050509050600081519050826108865780610889565b60005b67ffffffffffffffff8111156108a1576108a1611df1565b6040519080825280602002602001820160405280156108ca578160200160208202803683370190505b5097508067ffffffffffffffff8111156108e6576108e6611df1565b60405190808252806020026020018201604052801561090f578160200160208202803683370190505b50965060005b81811015610a5357600083828151811061093157610931611d88565b60200260200101519050600061096b8d60090160008465ffffffffffff1665ffffffffffff16815260200190815260200160002054611100565b505091505061099981838f600b0160008b81526020019081526020016000206111469092919063ffffffff16565b6109f05760019790970196818a6109b08b86611dde565b815181106109c0576109c0611d88565b602002602001019065ffffffffffff16908165ffffffffffff1681525050856109eb5760018b51038b525b610a3e565b60018901985085610a3657818b610a078a86611dde565b81518110610a1757610a17611d88565b602002602001019065ffffffffffff16908165ffffffffffff16815250505b60018a51038a525b50508080610a4b90611e07565b915050610915565b505050505050509250929050565b610a8d604080516080810190915280600081526020016000815260200160008152602001600081525090565b65ffffffffffff82166000908152600984016020526040812054819081908190610ab690611100565b93509350935093506040518060800160405280856001811115610adb57610adb611d17565b81526020018481526020018381526020018281525094505050505092915050565b600091825260019283016020908152604080842065ffffffffffff9384168552600601825292839020835160a08101855281548085168252600160301b8104851693820193909352600160601b90920490921692810192909252918201546001600160a01b03166060820181905260029092015460809091018190529091565b600081610b8a575081610c45565b6000610b94610cbe565b6006016000868152602001908152602001600020604051806060016040529081600082015481526020016001820154815260200160028201548152505090508060000151600014158015610c3357506001866001811115610bf757610bf7611d17565b148015610c08575080604001518411155b80610c3357506000866001811115610c2257610c22611d17565b148015610c33575080602001518410155b15610c4057519050610c45565b839150505b949350505050565b6000808211610c5b57600080fd5b6005610c678385611e20565b610c7290600a611dc7565b83610c7e86600a611dc7565b610c889190611e20565b610c929190611dde565b1015610ca957610ca28284611e20565b90506105f3565b610cb38284611e20565b610ca2906001611db4565b6000806105f360017ffc2836757f9146445fc75bc3c897a210ec004e4ee60fc8627ef5cbf2842b3d0a611dde565b60008080808080896001811115610d0557610d05611d17565b1490506000808215610d40578b546000908152600c8d0160205260409020610d2c9061116e565b9050610d398c8a8a6111b5565b9150610d6b565b8b546000908152600b8d0160205260409020610d5b90611236565b9050610d688c8a8a611278565b91505b8015159350891580610daa5750838015610d8457508115155b8015610daa5750828015610d975750818a115b80610daa575082158015610daa5750818a105b15610dbb5781955060019450610dc3565b899550600094505b8315610ddf5782610dd75785811015610ddc565b858111155b96505b50505095509550955095915050565b600080600084600003610e0957506000915081905080610e69565b6000866001811115610e1d57610e1d611d17565b03610e4b5786546000908152600c880160205260408120610e40918790876112dd565b925092509250610e69565b86546000908152600b880160205260408120610e409187908761130a565b9450945094915050565b6001600160a01b038116600090815260088301602090815260408083205460078601835281842080548351818602810186019094528084526060958695909485949342851115938693830182828015610f1b57602002820191906000526020600020906000905b82829054906101000a900465ffffffffffff1665ffffffffffff1681526020019060060190602082600501049283019260010382029150808411610eda5790505b5050505050905060008151905082610f335780610f36565b60005b67ffffffffffffffff811115610f4e57610f4e611df1565b604051908082528060200260200182016040528015610f77578160200160208202803683370190505b5097508067ffffffffffffffff811115610f9357610f93611df1565b604051908082528060200260200182016040528015610fbc578160200160208202803683370190505b50965060005b81811015610a53576000838281518110610fde57610fde611d88565b6020026020010151905060006110188d60090160008465ffffffffffff1665ffffffffffff16815260200190815260200160002054611100565b505091505061104681838f600c0160008b81526020019081526020016000206111469092919063ffffffff16565b61109d5760019790970196818a61105d8b86611dde565b8151811061106d5761106d611d88565b602002602001019065ffffffffffff16908165ffffffffffff1681525050856110985760018b51038b525b6110eb565b600189019850856110e357818b6110b48a86611dde565b815181106110c4576110c4611d88565b602002602001019065ffffffffffff16908165ffffffffffff16815250505b60018a51038a525b505080806110f890611e07565b915050610fc2565b6000806000808460ff16600181111561111b5761111b611d17565b9561ffff600887901c169567ffffffffffffffff601882901c8116965060589190911c169350915050565b6000611153848484611324565b801561116457506111648484611459565b90505b9392505050565b80548061117d57506000919050565b5b6000818152600180840160205260409091200154156111b057600090815260018083016020526040909120015461117e565b919050565b6000806111c4856003856114ea565b90506111ed6127106111d7866002611dc7565b6111e390612710611db4565b6103cb9084611dc7565b91506127108211806111fd575080155b1561120c57612710915061122e565b6112186102bc82611db4565b82101561122e5761122b6102bc82611db4565b91505b509392505050565b80548061124557506000919050565b5b6000818152600183016020526040902060020154156111b0576000908152600182016020526040902060020154611246565b600080611287856005856114ea565b90506112996127106111e38682611dde565b91508115806112a6575080155b806112b2575060c88111155b156112c0576001915061122e565b6112cb60c883611db4565b81101561122e5761122b60c882611dde565b60008060006112f7878787876112f28c61116e565b611626565b50949c919b509950975050505050505050565b60008060006112f78787878761131f8c611236565b611751565b600082815260018085016020908152604080842065ffffffffffff808716808752600683018552838720845160a0810186528154808516808352600160301b8204861698830198909852600160601b900490931694830194909452948301546001600160a01b03166060820152600290920154608083015285939092146113b15760009350505050611167565b5b604081015165ffffffffffff161561143a5760409081015165ffffffffffff808216600090815260068501602090815290849020845160a08101865281548085168252600160301b8104851693820193909352600160601b9092049092169381019390935260018101546001600160a01b0316606084015260020154608083015292506113b2565b5060030154610100900465ffffffffffff908116911614949350505050565b8154600090820361146c575060016105f3565b815b6000818152600185016020526040902054156114e0576000818152600180860160205260408083205480845292209081015483148015906114b3575082816002015414155b156114c457600093505050506105f3565b855482036114d857600193505050506105f3565b50905061146e565b5060009392505050565b60008061150d85600301600d9054906101000a90046001600160501b0316611847565b8051600387015491925090600090819065ffffffffffff600160301b90910416421415806115385750855b801561154f57506003880154600160601b900460ff165b156115825761156e88600501546127108a600401546103cb9190611dc7565b9150600190508661157e81611e42565b9750505b60005b878110156116005783811015806115b557508481815181106115a9576115a9611d88565b60200260200101516000145b611600578481815181106115cb576115cb611d88565b6020026020010151836115de9190611db4565b9250816115ea81611e07565b92505080806115f890611e07565b915050611585565b506000811161161057600061161a565b61161a8282610c4d565b98975050505050505050565b60008181808080805b8a84108061163b57508a155b801561164e57508983108061164e575089155b801561165957508515155b801561166d5750888611158061166d575088155b1561171c57600086815260018d016020526040902060050154959650869594506116978686611957565b6116a19084611db4565b92506116ad8585611db4565b93508a841180156116bd57508a15155b156116df576116cc8b85611dde565b91506116d88683611957565b905061170b565b89831180156116ed57508915155b1561170b576116fc8a84611dde565b90506117088682611969565b91505b6117158c8761197b565b955061162f565b811561172f5761172c8285611dde565b93505b80156117425761173f8184611dde565b92505b959b949a509550955095509550565b60008181808080805b8a84108061176657508a155b8015611779575089831080611779575089155b801561178457508515155b801561179857508886101580611798575088155b1561171c57600086815260018d016020526040902060050154959650869594506117c28686611957565b6117cc9084611db4565b92506117d88585611db4565b93508a841180156117e857508a15155b1561180a576117f78b85611dde565b91506118038683611957565b9050611836565b898311801561181857508915155b15611836576118278a84611dde565b90506118338682611969565b91505b6118408c87611a2d565b955061175a565b60408051600580825260c082019092526060916020820160a0803683370190505090508161ffff168160008151811061188257611882611d88565b6020026020010181815250506010826001600160501b0316901c61ffff16816001815181106118b3576118b3611d88565b6020026020010181815250506020826001600160501b0316901c61ffff16816002815181106118e4576118e4611d88565b6020026020010181815250506030826001600160501b0316901c61ffff168160038151811061191557611915611d88565b6020026020010181815250506040826001600160501b0316901c61ffff168160048151811061194657611946611d88565b602002602001018181525050919050565b6000611167836103cb61271085611dc7565b60006111676127106103cb8585611dc7565b6000816119a35760405162461bcd60e51b815260040161199a90611e59565b60405180910390fd5b6000828152600184016020526040902060020154156119db576000828152600184016020526040902060020154610ca2908490611ad6565b5060008181526001830160205260409020545b8015801590611a0f5750600081815260018401602052604090206002015482145b156105f35760008181526001840160205260409020549091506119ee565b600081611a4c5760405162461bcd60e51b815260040161199a90611e59565b600082815260018085016020526040909120015415611a84576000828152600180850160205260409091200154610ca2908490611b14565b5060008181526001830160205260409020545b8015801590611ab85750600081815260018085016020526040909120015482145b156105f3576000818152600184016020526040902054909150611a97565b60005b600082815260018085016020526040909120015415611b0e576000918252600180840160205260409092209091015490611ad9565b50919050565b60005b600082815260018401602052604090206002015415611b0e5760009182526001830160205260409091206002015490611b17565b803560ff811681146111b057600080fd5b80356001600160a01b03811681146111b057600080fd5b60008060408385031215611b8657600080fd5b611b8f83611b4b565b9150611b9d60208401611b5c565b90509250929050565b803565ffffffffffff811681146111b057600080fd5b60008060408385031215611bcf57600080fd5b82359150611b9d60208401611ba6565b60008060008060808587031215611bf557600080fd5b611bfe85611b4b565b9350602085013560028110611c1257600080fd5b93969395505050506040820135916060013590565b600080600060608486031215611c3c57600080fd5b611c4584611b4b565b9250611c5360208501611b5c565b9150604084013590509250925092565b600081518084526020808501945080840160005b83811015611c9b57815165ffffffffffff1687529582019590820190600101611c77565b509495945050505050565b604081526000611cb96040830185611c63565b828103602084015261122b8185611c63565b60008060408385031215611cde57600080fd5b50508035926020909101359150565b60008060408385031215611d0057600080fd5b611d0983611b4b565b9150611b9d60208401611ba6565b634e487b7160e01b600052602160045260246000fd5b60e0810160028910611d4f57634e487b7160e01b600052602160045260246000fd5b978152602081019690965260408601949094526001600160a01b03929092166060850152608084015260a0830152151560c09091015290565b634e487b7160e01b600052603260045260246000fd5b634e487b7160e01b600052601160045260246000fd5b808201808211156105f3576105f3611d9e565b80820281158282048414176105f3576105f3611d9e565b818103818111156105f3576105f3611d9e565b634e487b7160e01b600052604160045260246000fd5b600060018201611e1957611e19611d9e565b5060010190565b600082611e3d57634e487b7160e01b600052601260045260246000fd5b500490565b600081611e5157611e51611d9e565b506000190190565b60208082526035908201527f4f7264657253746174697374696373547265654c69623a205374617274696e676040820152742076616c75652063616e6e6f74206265207a65726f60581b60608201526080019056fea26469706673582212203544227b31bc6647e8cace9bc0c797a39ef990b8b858ce09011d69457cf79bf764736f6c63430008130033",
  "devdoc": {
    "kind": "dev",
    "methods": {},
    "version": 1
  },
  "userdoc": {
    "kind": "user",
    "methods": {},
    "version": 1
  },
  "storageLayout": {
    "storage": [],
    "types": null
  }
}