{
  "address": "0x62E09A147445AF26EDB7a67F51AE11E09eD37407",
  "abi": [
    {
      "inputs": [
        {
          "internalType": "bytes32",
          "name": "_ccy",
          "type": "bytes32"
        },
        {
          "internalType": "address",
          "name": "_tokenAddress",
          "type": "address"
        },
        {
          "internalType": "address",
          "name": "_collateralAggregator",
          "type": "address"
        },
        {
          "internalType": "address",
          "name": "_currencyController",
          "type": "address"
        },
        {
          "internalType": "address",
          "name": "_WETH9",
          "type": "address"
        }
      ],
      "stateMutability": "nonpayable",
      "type": "constructor"
    },
    {
      "anonymous": false,
      "inputs": [
        {
          "indexed": false,
          "internalType": "address",
          "name": "user",
          "type": "address"
        },
        {
          "indexed": false,
          "internalType": "uint256",
          "name": "amount",
          "type": "uint256"
        }
      ],
      "name": "Deposit",
      "type": "event"
    },
    {
      "anonymous": false,
      "inputs": [
        {
          "indexed": false,
          "internalType": "address",
          "name": "from",
          "type": "address"
        },
        {
          "indexed": false,
          "internalType": "address",
          "name": "to",
          "type": "address"
        },
        {
          "indexed": false,
          "internalType": "uint256",
          "name": "amount",
          "type": "uint256"
        }
      ],
      "name": "Liquidate",
      "type": "event"
    },
    {
      "anonymous": false,
      "inputs": [
        {
          "indexed": false,
          "internalType": "address",
          "name": "from",
          "type": "address"
        },
        {
          "indexed": false,
          "internalType": "address",
          "name": "to",
          "type": "address"
        },
        {
          "indexed": false,
          "internalType": "uint256",
          "name": "amount",
          "type": "uint256"
        }
      ],
      "name": "LiquidateIndependent",
      "type": "event"
    },
    {
      "anonymous": false,
      "inputs": [
        {
          "indexed": false,
          "internalType": "address",
          "name": "user",
          "type": "address"
        },
        {
          "indexed": false,
          "internalType": "address",
          "name": "counterparty",
          "type": "address"
        },
        {
          "indexed": false,
          "internalType": "uint256",
          "name": "amount",
          "type": "uint256"
        }
      ],
      "name": "PositionDeposit",
      "type": "event"
    },
    {
      "anonymous": false,
      "inputs": [
        {
          "indexed": false,
          "internalType": "address",
          "name": "from",
          "type": "address"
        },
        {
          "indexed": false,
          "internalType": "address",
          "name": "counterparty",
          "type": "address"
        },
        {
          "indexed": false,
          "internalType": "uint256",
          "name": "amount",
          "type": "uint256"
        }
      ],
      "name": "PositionWithdraw",
      "type": "event"
    },
    {
      "anonymous": false,
      "inputs": [
        {
          "indexed": false,
          "internalType": "address",
          "name": "user",
          "type": "address"
        },
        {
          "indexed": false,
          "internalType": "address",
          "name": "fromCounterparty",
          "type": "address"
        },
        {
          "indexed": false,
          "internalType": "address",
          "name": "toCounterparty",
          "type": "address"
        },
        {
          "indexed": false,
          "internalType": "uint256",
          "name": "amount",
          "type": "uint256"
        }
      ],
      "name": "RebalanceBetween",
      "type": "event"
    },
    {
      "anonymous": false,
      "inputs": [
        {
          "indexed": false,
          "internalType": "address",
          "name": "user",
          "type": "address"
        },
        {
          "indexed": false,
          "internalType": "address",
          "name": "counterparty",
          "type": "address"
        },
        {
          "indexed": false,
          "internalType": "uint256",
          "name": "amount",
          "type": "uint256"
        }
      ],
      "name": "RebalanceFrom",
      "type": "event"
    },
    {
      "anonymous": false,
      "inputs": [
        {
          "indexed": false,
          "internalType": "address",
          "name": "user",
          "type": "address"
        },
        {
          "indexed": false,
          "internalType": "address",
          "name": "counterparty",
          "type": "address"
        },
        {
          "indexed": false,
          "internalType": "uint256",
          "name": "amount",
          "type": "uint256"
        }
      ],
      "name": "RebalanceTo",
      "type": "event"
    },
    {
      "anonymous": false,
      "inputs": [
        {
          "indexed": false,
          "internalType": "address",
          "name": "from",
          "type": "address"
        },
        {
          "indexed": false,
          "internalType": "uint256",
          "name": "amount",
          "type": "uint256"
        }
      ],
      "name": "Withdraw",
      "type": "event"
    },
    {
      "inputs": [],
      "name": "WETH9",
      "outputs": [
        {
          "internalType": "address",
          "name": "",
          "type": "address"
        }
      ],
      "stateMutability": "view",
      "type": "function"
    },
    {
      "inputs": [],
      "name": "ccy",
      "outputs": [
        {
          "internalType": "bytes32",
          "name": "",
          "type": "bytes32"
        }
      ],
      "stateMutability": "view",
      "type": "function"
    },
    {
      "inputs": [],
      "name": "collateralAggregator",
      "outputs": [
        {
          "internalType": "contract ICollateralAggregator",
          "name": "",
          "type": "address"
        }
      ],
      "stateMutability": "view",
      "type": "function"
    },
    {
      "inputs": [],
      "name": "currencyController",
      "outputs": [
        {
          "internalType": "contract ICurrencyController",
          "name": "",
          "type": "address"
        }
      ],
      "stateMutability": "view",
      "type": "function"
    },
    {
      "inputs": [
        {
          "internalType": "address",
          "name": "_counterparty",
          "type": "address"
        },
        {
          "internalType": "uint256",
          "name": "_amount",
          "type": "uint256"
        }
      ],
      "name": "deposit",
      "outputs": [],
      "stateMutability": "nonpayable",
      "type": "function"
    },
    {
      "inputs": [
        {
          "internalType": "uint256",
          "name": "_amount",
          "type": "uint256"
        }
      ],
      "name": "deposit",
      "outputs": [],
      "stateMutability": "payable",
      "type": "function"
    },
    {
      "inputs": [
        {
          "internalType": "address",
          "name": "_user",
          "type": "address"
        }
      ],
      "name": "getIndependentCollateral",
      "outputs": [
        {
          "internalType": "uint256",
          "name": "",
          "type": "uint256"
        }
      ],
      "stateMutability": "view",
      "type": "function"
    },
    {
      "inputs": [
        {
          "internalType": "address",
          "name": "_user",
          "type": "address"
        }
      ],
      "name": "getIndependentCollateralInETH",
      "outputs": [
        {
          "internalType": "uint256",
          "name": "",
          "type": "uint256"
        }
      ],
      "stateMutability": "view",
      "type": "function"
    },
    {
      "inputs": [
        {
          "internalType": "address",
          "name": "_partyA",
          "type": "address"
        },
        {
          "internalType": "address",
          "name": "_partyB",
          "type": "address"
        }
      ],
      "name": "getLockedCollateral",
      "outputs": [
        {
          "internalType": "uint256",
          "name": "",
          "type": "uint256"
        },
        {
          "internalType": "uint256",
          "name": "",
          "type": "uint256"
        }
      ],
      "stateMutability": "view",
      "type": "function"
    },
    {
      "inputs": [
        {
          "internalType": "address",
          "name": "_user",
          "type": "address"
        }
      ],
      "name": "getLockedCollateral",
      "outputs": [
        {
          "internalType": "uint256",
          "name": "",
          "type": "uint256"
        }
      ],
      "stateMutability": "view",
      "type": "function"
    },
    {
      "inputs": [
        {
          "internalType": "address",
          "name": "_partyA",
          "type": "address"
        },
        {
          "internalType": "address",
          "name": "_partyB",
          "type": "address"
        }
      ],
      "name": "getLockedCollateralInETH",
      "outputs": [
        {
          "internalType": "uint256",
          "name": "",
          "type": "uint256"
        },
        {
          "internalType": "uint256",
          "name": "",
          "type": "uint256"
        }
      ],
      "stateMutability": "view",
      "type": "function"
    },
    {
      "inputs": [
        {
          "internalType": "address",
          "name": "_user",
          "type": "address"
        }
      ],
      "name": "getLockedCollateralInETH",
      "outputs": [
        {
          "internalType": "uint256",
          "name": "",
          "type": "uint256"
        }
      ],
      "stateMutability": "view",
      "type": "function"
    },
    {
      "inputs": [
        {
          "internalType": "address",
          "name": "_from",
          "type": "address"
        },
        {
          "internalType": "address",
          "name": "_to",
          "type": "address"
        },
        {
          "internalType": "uint256",
          "name": "_amountETH",
          "type": "uint256"
        }
      ],
      "name": "liquidate",
      "outputs": [
        {
          "internalType": "uint256",
          "name": "liquidationLeftETH",
          "type": "uint256"
        }
      ],
      "stateMutability": "nonpayable",
      "type": "function"
    },
    {
      "inputs": [],
      "name": "owner",
      "outputs": [
        {
          "internalType": "address",
          "name": "",
          "type": "address"
        }
      ],
      "stateMutability": "view",
      "type": "function"
    },
    {
      "inputs": [
        {
          "internalType": "address",
          "name": "_user",
          "type": "address"
        },
        {
          "internalType": "address",
          "name": "_fromParty",
          "type": "address"
        },
        {
          "internalType": "address",
          "name": "_toParty",
          "type": "address"
        },
        {
          "internalType": "uint256",
          "name": "_amountETH",
          "type": "uint256"
        }
      ],
      "name": "rebalanceBetween",
      "outputs": [
        {
          "internalType": "uint256",
          "name": "",
          "type": "uint256"
        }
      ],
      "stateMutability": "nonpayable",
      "type": "function"
    },
    {
      "inputs": [
        {
          "internalType": "address",
          "name": "_user",
          "type": "address"
        },
        {
          "internalType": "address",
          "name": "_counterparty",
          "type": "address"
        },
        {
          "internalType": "uint256",
          "name": "_amountETH",
          "type": "uint256"
        }
      ],
      "name": "rebalanceFrom",
      "outputs": [
        {
          "internalType": "uint256",
          "name": "",
          "type": "uint256"
        }
      ],
      "stateMutability": "nonpayable",
      "type": "function"
    },
    {
      "inputs": [
        {
          "internalType": "address",
          "name": "_user",
          "type": "address"
        },
        {
          "internalType": "address",
          "name": "_counterparty",
          "type": "address"
        },
        {
          "internalType": "uint256",
          "name": "_amountETH",
          "type": "uint256"
        }
      ],
      "name": "rebalanceTo",
      "outputs": [
        {
          "internalType": "uint256",
          "name": "",
          "type": "uint256"
        }
      ],
      "stateMutability": "nonpayable",
      "type": "function"
    },
    {
      "inputs": [],
      "name": "tokenAddress",
      "outputs": [
        {
          "internalType": "address",
          "name": "",
          "type": "address"
        }
      ],
      "stateMutability": "view",
      "type": "function"
    },
    {
      "inputs": [
        {
          "internalType": "uint256",
          "name": "_amount",
          "type": "uint256"
        }
      ],
      "name": "withdraw",
      "outputs": [],
      "stateMutability": "nonpayable",
      "type": "function"
    },
    {
      "inputs": [
        {
          "internalType": "address",
          "name": "_counterparty",
          "type": "address"
        },
        {
          "internalType": "uint256",
          "name": "_amount",
          "type": "uint256"
        }
      ],
      "name": "withdrawFrom",
      "outputs": [],
      "stateMutability": "nonpayable",
      "type": "function"
    },
    {
      "stateMutability": "payable",
      "type": "receive"
    }
  ],
  "transactionHash": "0x9f8677bddbe372eca22e6e596832b401775820e6a19330a6c1dad7e4a7ba9769",
  "args": [
    "0x4554480000000000000000000000000000000000000000000000000000000000",
    "0x088E36970FC2222b244c0480671171e7E7C3a9eA",
    "0x74B405Ec5dC45e5c7ea9d581D4A3907e60B724d4",
    "0x8682Fa83785B7F51A14101122CCb1DCb4A247B80",
    "0x088E36970FC2222b244c0480671171e7E7C3a9eA"
  ],
  "numDeployments": 1,
  "solcInputHash": "48d264388c4204a72ee447cb1af8bee3",
  "bytecode": "0x60a06040523480156200001157600080fd5b5060405162002e0d38038062002e0d833981810160405260a08110156200003757600080fd5b5080516020808301516040808501516060808701516080978801519182901b6001600160601b03191690975260028054336001600160a01b0319918216179091556003805482166001600160a01b0380881691909117909155600488815560008054841683871617905560018054909316828b1617928390558551632ecaefc560e11b815290810189905294519798959793969294911692635d95df8a92602480840193919291829003018186803b158015620000f357600080fd5b505afa15801562000108573d6000803e3d6000fd5b505050506040513d60208110156200011f57600080fd5b505162000173576040805162461bcd60e51b815260206004820152601e60248201527f434f4c4c41544552414c5f41535345545f4e4f545f535550504f525445440000604482015290519081900360640190fd5b505050505060805160601c612c54620001b9600039806101335280610ddc5280611f4252806120f152806124a4528061258f528061278f52806128035250612c546000f3fe6080604052600436106101235760003560e01c80639d76ea58116100a0578063d1eb9ea411610064578063d1eb9ea4146104a7578063d49ab22c146104da578063d98e91851461050d578063e361cdb014610540578063e5a148131461055557610193565b80639d76ea58146103ea578063a5f7379f146103ff578063b108daa614610414578063b6b55f2514610457578063bb8eaa3c1461047457610193565b80634aa4a4fc116100e75780634aa4a4fc146102df578063788169af146103105780638da5cb5b146103595780639470b0bd1461036e57806398c9e43a146103a757610193565b806326c01303146101985780632e1a7d4d146101ed57806340f895ea1461021757806347e7ef241461026b57806348cb13d4146102a457610193565b3661019357336001600160a01b037f00000000000000000000000000000000000000000000000000000000000000001614610191576040805162461bcd60e51b81526020600482015260096024820152684e6f7420574554483960b81b604482015290519081900360640190fd5b005b600080fd5b3480156101a457600080fd5b506101db600480360360608110156101bb57600080fd5b506001600160a01b0381358116916020810135909116906040013561056a565b60408051918252519081900360200190f35b3480156101f957600080fd5b506101916004803603602081101561021057600080fd5b5035610773565b34801561022357600080fd5b506102526004803603604081101561023a57600080fd5b506001600160a01b0381358116916020013516610a19565b6040805192835260208301919091528051918290030190f35b34801561027757600080fd5b506101916004803603604081101561028e57600080fd5b506001600160a01b038135169060200135610a34565b3480156102b057600080fd5b50610252600480360360408110156102c757600080fd5b506001600160a01b0381358116916020013516610bd6565b3480156102eb57600080fd5b506102f4610dda565b604080516001600160a01b039092168252519081900360200190f35b34801561031c57600080fd5b506101db6004803603608081101561033357600080fd5b506001600160a01b03813581169160208101358216916040820135169060600135610dfe565b34801561036557600080fd5b506102f4610fb2565b34801561037a57600080fd5b506101916004803603604081101561039157600080fd5b506001600160a01b038135169060200135610fc1565b3480156103b357600080fd5b506101db600480360360608110156103ca57600080fd5b506001600160a01b03813581169160208101359091169060400135611293565b3480156103f657600080fd5b506102f461147f565b34801561040b57600080fd5b506101db61148e565b34801561042057600080fd5b506101db6004803603606081101561043757600080fd5b506001600160a01b03813581169160208101359091169060400135611494565b6101916004803603602081101561046d57600080fd5b5035611691565b34801561048057600080fd5b506101db6004803603602081101561049757600080fd5b50356001600160a01b0316611811565b3480156104b357600080fd5b506101db600480360360208110156104ca57600080fd5b50356001600160a01b03166118ad565b3480156104e657600080fd5b506101db600480360360208110156104fd57600080fd5b50356001600160a01b03166118c8565b34801561051957600080fd5b506101db6004803603602081101561053057600080fd5b50356001600160a01b03166118e6565b34801561054c57600080fd5b506102f461194b565b34801561056157600080fd5b506102f461195a565b600080546001600160a01b031633146105bc576040805162461bcd60e51b815260206004820152600f60248201526e494e56414c49445f4143434545535360881b604482015290519081900360640190fd5b6001546004805460408051630ba1ffe760e11b815292830191909152516000926001600160a01b031691631743ffce916024808301926020929190829003018186803b15801561060b57600080fd5b505afa15801561061f573d6000803e3d6000fd5b505050506040513d602081101561063557600080fd5b5051905060006106578261065186670de0b6b3a7640000611969565b906119cb565b905060006106686006888885611a32565b6001600160a01b03881660009081526005602052604090206001810154919250906106939083611ade565b6001918201556001600160a01b0387166000908152600560205260409020908101546106bf9083611b3b565b6001820155811561071f576106d48888611b95565b604080516001600160a01b03808b1682528916602082015280820184905290517faef3faf684172084346f7dc2cc3bb1328d1cc23caec12dd9a82d4a4e56c00b179181900360600190a15b600061072b8484611ade565b905080156107505760006107408a8a84611d73565b905061074c8282611ade565b9150505b610766670de0b6b3a76400006106518388611969565b9998505050505050505050565b6000546040805163221c053f60e01b815233600482015290516001600160a01b039092169163221c053f91602480820192602092909190829003018186803b1580156107be57600080fd5b505afa1580156107d2573d6000803e3d6000fd5b505050506040513d60208110156107e857600080fd5b5051610831576040805162461bcd60e51b81526020600482015260136024820152722727a72fa922a3a4a9aa22a922a22faaa9a2a960691b604482015290519081900360640190fd5b60008111610877576040805162461bcd60e51b815260206004820152600e60248201526d1253959053125117d05353d5539560921b604482015290519081900360640190fd5b6000805460408051636b06fabd60e11b8152336004820181905291519193926001600160a01b03169163d60df57a91602480820192602092909190829003018186803b1580156108c657600080fd5b505afa1580156108da573d6000803e3d6000fd5b505050506040513d60208110156108f057600080fd5b505160015460048054604080516306d062ad60e01b81529283019190915260248201849052519293506000926001600160a01b03909216916306d062ad91604480820192602092909190829003018186803b15801561094e57600080fd5b505afa158015610962573d6000803e3d6000fd5b505050506040513d602081101561097857600080fd5b50519050600081851161098b578461098d565b815b6001600160a01b03851660009081526005602052604090208054919250906109b59083611ade565b81556003546109ce906001600160a01b03163384611f40565b6109d6611f99565b604080513381526020810184905281517f884edad9ce6fa2440d8a54cc123490eb96d2768479d49ff9c7366125a9424364929181900390910190a1505050505050565b600080610a286006858561208d565b915091505b9250929050565b6000546040805163221c053f60e01b815233600482015290516001600160a01b039092169163221c053f91602480820192602092909190829003018186803b158015610a7f57600080fd5b505afa158015610a93573d6000803e3d6000fd5b505050506040513d6020811015610aa957600080fd5b5051610af2576040805162461bcd60e51b81526020600482015260136024820152722727a72fa922a3a4a9aa22a922a22faaa9a2a960691b604482015290519081900360640190fd5b60008111610b38576040805162461bcd60e51b815260206004820152600e60248201526d1253959053125117d05353d5539560921b604482015290519081900360640190fd5b600354610b50906001600160a01b03163330846120ef565b610b5d600633848461216c565b3360009081526005602052604090206001810154610b7b9083611b3b565b6001820155610b89836121c2565b604080513381526001600160a01b038516602082015280820184905290517f9721b956489a518f6d0a682e2456129cc27982178d1f92f57e5dec7b4282e2bc9181900360600190a1505050565b600080600080610be86006878761208d565b6040805160028082526060808301845294965092945091906020830190803683370190505090508281600081518110610c1d57fe5b6020026020010181815250508181600181518110610c3757fe5b602090810291909101810191909152600154600480546040805163cc106de160e01b8152928301828152602484019182528651604485015286516001600160a01b039095169563cc106de19593948894929392606490910191858101910280838360005b83811015610cb3578181015183820152602001610c9b565b50505050905001935050505060006040518083038186803b158015610cd757600080fd5b505afa158015610ceb573d6000803e3d6000fd5b505050506040513d6000823e601f3d908101601f191682016040526020811015610d1457600080fd5b8101908080516040519392919084640100000000821115610d3457600080fd5b908301906020820185811115610d4957600080fd5b8251866020820283011164010000000082111715610d6657600080fd5b82525081516020918201928201910280838360005b83811015610d93578181015183820152602001610d7b565b50505050905001604052505050905080600081518110610daf57fe5b602002602001015181600181518110610dc457fe5b6020026020010151945094505050509250929050565b7f000000000000000000000000000000000000000000000000000000000000000081565b600080546001600160a01b03163314610e50576040805162461bcd60e51b815260206004820152600f60248201526e494e56414c49445f4143434545535360881b604482015290519081900360640190fd5b610e58612b74565b6001546004805460408051630ba1ffe760e11b815292830191909152516001600160a01b0390921691631743ffce91602480820192602092909190829003018186803b158015610ea757600080fd5b505afa158015610ebb573d6000803e3d6000fd5b505050506040513d6020811015610ed157600080fd5b5051808252610eec9061065185670de0b6b3a7640000611969565b60208201819052610f05906006908890889088906121cf565b604082018190526020820151610f1a91611ade565b6060820152610f298686611b95565b610f338685611b95565b60408082015181516001600160a01b03808a1682528089166020830152871681840152606081019190915290517f3f353462d6e0e00e5d479a8e53bbacf36843f1eb1e577d15d107ebefe5cd533e9181900360800190a180516060820151610fa891670de0b6b3a76400009161065191611969565b9695505050505050565b6002546001600160a01b031681565b6000546040805163221c053f60e01b815233600482015290516001600160a01b039092169163221c053f91602480820192602092909190829003018186803b15801561100c57600080fd5b505afa158015611020573d6000803e3d6000fd5b505050506040513d602081101561103657600080fd5b505161107f576040805162461bcd60e51b81526020600482015260136024820152722727a72fa922a3a4a9aa22a922a22faaa9a2a960691b604482015290519081900360640190fd5b600081116110c5576040805162461bcd60e51b815260206004820152600e60248201526d1253959053125117d05353d5539560921b604482015290519081900360640190fd5b6000805460408051635a0c753d60e11b815233600482018190526001600160a01b0387811660248401528351919594169263b418ea7a9260448082019391829003018186803b15801561111757600080fd5b505afa15801561112b573d6000803e3d6000fd5b505050506040513d604081101561114157600080fd5b505160015460048054604080516306d062ad60e01b81529283019190915260248201849052519293506000926001600160a01b03909216916306d062ad91604480820192602092909190829003018186803b15801561119f57600080fd5b505afa1580156111b3573d6000803e3d6000fd5b505050506040513d60208110156111c957600080fd5b5051905060008185116111dc57846111de565b815b905060006111ef60068689856122a6565b6001600160a01b038616600090815260056020526040902060018101549192509061121a9083611ade565b6001820155600354611236906001600160a01b03163384611f40565b61123f886121c2565b604080516001600160a01b0380891682528a16602082015280820184905290517f256d352c9624d670977a706659e9ef3cfa4ca71dd1cc609e23245dd857e16c3f9181900360600190a15050505050505050565b600080546001600160a01b031633146112e5576040805162461bcd60e51b815260206004820152600f60248201526e494e56414c49445f4143434545535360881b604482015290519081900360640190fd5b6112ed612b74565b6001546004805460408051630ba1ffe760e11b815292830191909152516001600160a01b0390921691631743ffce91602480820192602092909190829003018186803b15801561133c57600080fd5b505afa158015611350573d6000803e3d6000fd5b505050506040513d602081101561136657600080fd5b50518082526113819061065185670de0b6b3a7640000611969565b6020820181905261139890600690879087906122a6565b6040820181905215611442576001600160a01b038516600090815260056020526040908190209082015160018201546113d091611ade565b6001820155604082015181546113e591611b3b565b81556113f18686611b95565b60408083015181516001600160a01b03808a168252881660208201528083019190915290517f628c86b641d0481cc9ad4f394a1c56153ac2e181c46a5da991068574adb524019181900360600190a1505b6040810151602082015161145591611ade565b60608201819052815161147691670de0b6b3a7640000916106519190611969565b95945050505050565b6003546001600160a01b031681565b60045481565b600080546001600160a01b031633146114e6576040805162461bcd60e51b815260206004820152600f60248201526e494e56414c49445f4143434545535360881b604482015290519081900360640190fd5b6114ee612b74565b6001546004805460408051630ba1ffe760e11b815292830191909152516001600160a01b0390921691631743ffce91602480820192602092909190829003018186803b15801561153d57600080fd5b505afa158015611551573d6000803e3d6000fd5b505050506040513d602081101561156757600080fd5b50518082526115829061065185670de0b6b3a7640000611969565b60208083019182526001600160a01b03871660009081526005909152604090209051815410156115b35780546115b9565b81602001515b604083018190521561165d57604082015181546115d591611ade565b8155604082015160018201546115ea91611b3b565b816001018190555061160360068787856040015161216c565b61160d8686611b95565b60408083015181516001600160a01b03808a168252881660208201528083019190915290517fe3d9367ba2bfd4023910a3324b74e17931c8b3a005b5fac91b462449e48eea7e9181900360600190a15b6040820151602083015161167091611ade565b606083018190528251610fa891670de0b6b3a7640000916106519190611969565b6000546040805163221c053f60e01b815233600482015290516001600160a01b039092169163221c053f91602480820192602092909190829003018186803b1580156116dc57600080fd5b505afa1580156116f0573d6000803e3d6000fd5b505050506040513d602081101561170657600080fd5b505161174f576040805162461bcd60e51b81526020600482015260136024820152722727a72fa922a3a4a9aa22a922a22faaa9a2a960691b604482015290519081900360640190fd5b60008111611795576040805162461bcd60e51b815260206004820152600e60248201526d1253959053125117d05353d5539560921b604482015290519081900360640190fd5b6003546117ad906001600160a01b03163330846120ef565b33600090815260056020526040902080546117c89083611b3b565b81556117d2611f99565b604080513381526020810184905281517fe1fffcc4923d04b559f4d29a8bfc6cda04eb5b0d3c460751c2402c5c5cc9109c929181900390910190a15050565b6001600160a01b03808216600090815260056020908152604080832060019081015490546004805484516344a6ecdd60e01b815291820152602481018390529251949591949116926344a6ecdd9260448082019391829003018186803b15801561187a57600080fd5b505afa15801561188e573d6000803e3d6000fd5b505050506040513d60208110156118a457600080fd5b50519392505050565b6001600160a01b031660009081526005602052604090205490565b6001600160a01b031660009081526005602052604090206001015490565b6001600160a01b038082166000908152600560209081526040808320546001546004805484516344a6ecdd60e01b815291820152602481018390529251949591949116926344a6ecdd9260448082019391829003018186803b15801561187a57600080fd5b6000546001600160a01b031681565b6001546001600160a01b031681565b600082611978575060006119c5565b8282028284828161198557fe5b04146119c25760405162461bcd60e51b8152600401808060200182810382526021815260200180612bb76021913960400191505060405180910390fd5b90505b92915050565b6000808211611a21576040805162461bcd60e51b815260206004820152601a60248201527f536166654d6174683a206469766973696f6e206279207a65726f000000000000604482015290519081900360640190fd5b818381611a2a57fe5b049392505050565b6000806000611a41868661232f565b600082815260208a905260409020919350915081611a95578054851115611a69578054611a6b565b845b8154909450611a7a9085611ade565b81556001810154611a8b9085611b3b565b6001820155611ad3565b8481600101541015611aab578060010154611aad565b845b6001820154909450611abf9085611ade565b60018201558054611ad09085611b3b565b81555b505050949350505050565b600082821115611b35576040805162461bcd60e51b815260206004820152601e60248201527f536166654d6174683a207375627472616374696f6e206f766572666c6f770000604482015290519081900360640190fd5b50900390565b6000828201838110156119c2576040805162461bcd60e51b815260206004820152601b60248201527f536166654d6174683a206164646974696f6e206f766572666c6f770000000000604482015290519081900360640190fd5b600080611ba46006858561208d565b90925090508115611c1357600080546040805163066e64fb60e31b81526001600160a01b0388811660048301529151919092169263337327d8926024808201939182900301818387803b158015611bfa57600080fd5b505af1158015611c0e573d6000803e3d6000fd5b505050505b8015611c7d57600080546040805163066e64fb60e31b81526001600160a01b0387811660048301529151919092169263337327d8926024808201939182900301818387803b158015611c6457600080fd5b505af1158015611c78573d6000803e3d6000fd5b505050505b6000821180611c8c5750600081115b15611d0157600080546040805163b3fb2e4b60e01b81526001600160a01b03888116600483015287811660248301529151919092169263b3fb2e4b926044808201939182900301818387803b158015611ce457600080fd5b505af1158015611cf8573d6000803e3d6000fd5b50505050611d6d565b6000805460408051631130807d60e21b81526001600160a01b0388811660048301528781166024830152915191909216926344c201f4926044808201939182900301818387803b158015611d5457600080fd5b505af1158015611d68573d6000803e3d6000fd5b505050505b50505050565b6000805460408051636b06fabd60e11b81526001600160a01b03878116600483015291518493929092169163d60df57a91602480820192602092909190829003018186803b158015611dc457600080fd5b505afa158015611dd8573d6000803e3d6000fd5b505050506040513d6020811015611dee57600080fd5b505160015460048054604080516306d062ad60e01b81529283019190915260248201849052519293506000926001600160a01b03909216916306d062ad91604480820192602092909190829003018186803b158015611e4c57600080fd5b505afa158015611e60573d6000803e3d6000fd5b505050506040513d6020811015611e7657600080fd5b50519050808411611e875783611e89565b805b6001600160a01b0387166000908152600560205260409020805491945090611eb19085611ade565b90556001600160a01b03851660009081526005602052604090206001810154611eda9085611b3b565b6001820155611eec600687898761216c565b604080516001600160a01b03808a1682528816602082015280820186905290517f2b70e0aa79138aba60947feefd37a911a99cccef16f61d352f5dd814f1ebb1c79181900360600190a15050509392505050565b7f00000000000000000000000000000000000000000000000000000000000000006001600160a01b0316836001600160a01b03161415611f8957611f8482826124a0565b611f94565b611f94838383612615565b505050565b33600090815260056020526040902054151580611fc757503360009081526005602052604090206001015415155b1561203057600080546040805163066e64fb60e31b815233600482015290516001600160a01b039092169263337327d89260248084019382900301818387803b15801561201357600080fd5b505af1158015612027573d6000803e3d6000fd5b5050505061208b565b60008054604080516301ce3a7f60e21b815233600482015290516001600160a01b0390921692630738e9fc9260248084019382900301818387803b15801561207757600080fd5b505af1158015611d6d573d6000803e3d6000fd5b565b60008060008061209d868661232f565b915091506120a9612b9c565b506000828152602088815260409182902082518084019093528054835260010154908201526120d88183612769565b805160209091015190999098509650505050505050565b7f00000000000000000000000000000000000000000000000000000000000000006001600160a01b0316846001600160a01b03161480156121305750804710155b156121445761213f828261278a565b611d6d565b6001600160a01b0382163014156121605761213f8484836128a2565b611d6d84848484612924565b600080612179858561232f565b60008281526020899052604090209193509150816121a457805461219d9085611b3b565b81556121b9565b60018101546121b39085611b3b565b60018201555b50505050505050565b6121cc3382611b95565b50565b60008060006121de878761232f565b600082815260208b90526040902091935091508161221e578054851115612206578054612208565b845b81549094506122179085611ade565b815561224e565b8481600101541015612234578060010154612236565b845b60018201549094506122489085611ade565b60018201555b612258888761232f565b600082815260208c905260409020919450925090508161228557805461227e9085611b3b565b815561229a565b60018101546122949085611b3b565b60018201555b50505095945050505050565b60008060006122b5868661232f565b600082815260208a9052604090209193509150816122f55780548511156122dd5780546122df565b845b81549094506122ee9085611ade565b8155611ad3565b848160010154101561230b57806001015461230d565b845b600182015490945061231f9085611ade565b6001820155505050949350505050565b600080826001600160a01b0316846001600160a01b0316141561238f576040805162461bcd60e51b81526020600482015260136024820152724964656e746963616c2061646472657373657360681b604482015290519081900360640190fd5b600080846001600160a01b0316866001600160a01b0316106123b25784866123b5565b85855b90925090506001600160a01b038216612407576040805162461bcd60e51b815260206004820152600f60248201526e496e76616c6964206164647265737360881b604482015290519081900360640190fd5b856001600160a01b0316826001600160a01b03161461246057604080516001600160a01b039384166020808301919091529390921682820152805180830382018152606090920190528051910120915060019050610a2d565b604080516001600160a01b039384166020808301919091529390921682820152805180830382018152606090920190528051910120915060009050610a2d565b60007f00000000000000000000000000000000000000000000000000000000000000006001600160a01b03166370a08231306040518263ffffffff1660e01b815260040180826001600160a01b0316815260200191505060206040518083038186803b15801561250f57600080fd5b505afa158015612523573d6000803e3d6000fd5b505050506040513d602081101561253957600080fd5b5051905081811015612587576040805162461bcd60e51b8152602060048201526012602482015271496e73756666696369656e7420574554483960701b604482015290519081900360640190fd5b8015611f94577f00000000000000000000000000000000000000000000000000000000000000006001600160a01b0316632e1a7d4d836040518263ffffffff1660e01b815260040180828152602001915050600060405180830381600087803b1580156125f357600080fd5b505af1158015612607573d6000803e3d6000fd5b50505050611f948383612a81565b604080516001600160a01b038481166024830152604480830185905283518084039091018152606490920183526020820180516001600160e01b031663a9059cbb60e01b178152925182516000946060949389169392918291908083835b602083106126925780518252601f199092019160209182019101612673565b6001836020036101000a0380198251168184511680821785525050505050509050019150506000604051808303816000865af19150503d80600081146126f4576040519150601f19603f3d011682016040523d82523d6000602084013e6126f9565b606091505b5091509150818015612727575080511580612727575080806020019051602081101561272457600080fd5b50515b6127625760405162461bcd60e51b8152600401808060200182810382526024815260200180612bfb6024913960400191505060405180910390fd5b5050505050565b612771612b9c565b81156127835782516020840180518552525b5090919050565b3490507f00000000000000000000000000000000000000000000000000000000000000006001600160a01b031663d0e30db0826040518263ffffffff1660e01b81526004016000604051808303818588803b1580156127e857600080fd5b505af11580156127fc573d6000803e3d6000fd5b50505050507f00000000000000000000000000000000000000000000000000000000000000006001600160a01b031663a9059cbb83836040518363ffffffff1660e01b815260040180836001600160a01b0316815260200182815260200192505050602060405180830381600087803b15801561287857600080fd5b505af115801561288c573d6000803e3d6000fd5b505050506040513d6020811015611d6d57600080fd5b604080516001600160a01b038481166024830152306044830152606480830185905283518084039091018152608490920183526020820180516001600160e01b03166323b872dd60e01b17815292518251600094606094938916939291829190808383602083106126925780518252601f199092019160209182019101612673565b604080516001600160a01b0385811660248301528481166044830152606480830185905283518084039091018152608490920183526020820180516001600160e01b03166323b872dd60e01b17815292518251600094606094938a169392918291908083835b602083106129a95780518252601f19909201916020918201910161298a565b6001836020036101000a0380198251168184511680821785525050505050509050019150506000604051808303816000865af19150503d8060008114612a0b576040519150601f19603f3d011682016040523d82523d6000602084013e612a10565b606091505b5091509150818015612a3e575080511580612a3e5750808060200190516020811015612a3b57600080fd5b50515b612a795760405162461bcd60e51b8152600401808060200182810382526024815260200180612bfb6024913960400191505060405180910390fd5b505050505050565b604080516000808252602082019092526001600160a01b0384169083906040518082805190602001908083835b60208310612acd5780518252601f199092019160209182019101612aae565b6001836020036101000a03801982511681845116808217855250505050505090500191505060006040518083038185875af1925050503d8060008114612b2f576040519150601f19603f3d011682016040523d82523d6000602084013e612b34565b606091505b5050905080611f945760405162461bcd60e51b8152600401808060200182810382526023815260200180612bd86023913960400191505060405180910390fd5b6040518060800160405280600081526020016000815260200160008152602001600081525090565b60405180604001604052806000815260200160008152509056fe536166654d6174683a206d756c7469706c69636174696f6e206f766572666c6f775472616e7366657248656c7065723a204554485f5452414e534645525f4641494c45445472616e7366657248656c7065723a205452414e534645525f46524f4d5f4641494c4544a2646970667358221220d9af8713b707347a1188fc5eefe0ae22286341f031801b7a8647732aaae4b44a64736f6c634300060c0033",
  "devdoc": {
    "kind": "dev",
    "methods": {
      "constructor": {
        "details": "Contract constructor function."
      },
      "deposit(address,uint256)": {
        "details": "Deposit collateral funds into bilateral position against counterparty",
        "params": {
          "_counterparty": "Counterparty address in bilateral position"
        }
      },
      "deposit(uint256)": {
        "details": "Trigers to deposit funds by the msg.sender into collateral book",
        "params": {
          "_amount": "Number of funds to deposit"
        }
      },
      "getIndependentCollateral(address)": {
        "params": {
          "_user": "Address of collateral user"
        }
      },
      "getIndependentCollateralInETH(address)": {
        "params": {
          "_user": "Address of collateral user"
        }
      },
      "getLockedCollateral(address)": {
        "params": {
          "_user": "Address of collateral user"
        }
      },
      "getLockedCollateral(address,address)": {
        "params": {
          "_partyA": "First counterparty address",
          "_partyB": "Second counterparty address."
        }
      },
      "getLockedCollateralInETH(address)": {
        "params": {
          "_user": "Address of collateral user"
        }
      },
      "getLockedCollateralInETH(address,address)": {
        "params": {
          "_partyA": "First counterparty address",
          "_partyB": "Second counterparty address."
        }
      },
      "liquidate(address,address,uint256)": {
        "details": "Liquidates collateral from bilateral position between parties returns the amount of ETH to be liquidated in other vault if all available funds have been liquidated here",
        "params": {
          "_amountETH": "Liquidation amount in ETH",
          "_from": "Address for liquidating collateral from",
          "_to": "Address for sending collateral to"
        }
      },
      "rebalanceBetween(address,address,address,uint256)": {
        "details": "Rebalances collateral between 2 different bilateral positions, as it's executed by collateral aggregator function returns the amount of ETH left to rebalance for other collateral vaults",
        "params": {
          "_amountETH": "Amount of funds in ETH required to rebalance",
          "_fromParty": "Counterparty address to rebalance from",
          "_toParty": "Counterparty address to rebalance to",
          "_user": "Main user address to rebalance collateral from"
        },
        "returns": {
          "_0": "Amount of funds in ETH left to rebalance for other vault"
        }
      },
      "rebalanceFrom(address,address,uint256)": {
        "details": "Rebalances collateral from bilateral position to user's book, as it's executed by collateral aggregator function returns the amount of ETH left to rebalance for other collateral vaults",
        "params": {
          "_amountETH": "Amount of funds in ETH required to rebalance",
          "_counterparty": "Counterparty address in bilateral position",
          "_user": "Main user address to rebalance collateral from"
        },
        "returns": {
          "_0": "Amount of funds in ETH left to rebalance for other vault"
        }
      },
      "rebalanceTo(address,address,uint256)": {
        "details": "Rebalances collateral from user's book to bilateral position, as it's executed by collateral aggregator function returns the amount of ETH left to rebalance for other collateral vaults",
        "params": {
          "_amountETH": "Amount of funds in ETH required to rebalance",
          "_counterparty": "Counterparty address in bilateral position",
          "_user": "Main user address to rebalance collateral from"
        },
        "returns": {
          "_0": "Amount of funds in ETH left to rebalance for other vault"
        }
      },
      "withdraw(uint256)": {
        "params": {
          "_amount": "Number of funds to withdraw."
        }
      },
      "withdrawFrom(address,uint256)": {
        "params": {
          "_amount": "Number of funds to withdraw.",
          "_counterparty": "Counterparty address."
        }
      }
    },
    "title": "CollateralVault is the main implementation contract for storing and keeping user's collateral This contract allows users to deposit and withdraw their funds to fulfill their collateral obligations against different trades. CollateralVault is working with ETH or ERC20 token with specified on deployment `tokenAddress`. CollateralAggregator uses independent Collateral vaults for rebalancing collateral between global books and bilateral positions, and liquidating collateral while performing single or multi-deal liquidation.",
    "version": 1
  },
  "userdoc": {
    "kind": "user",
    "methods": {
      "constructor": "sets contract deployer as owner of this contract and links with collateral aggregator and currency controller contracts",
      "deposit(address,uint256)": {
        "notice": "payable function increases locked collateral by msg.value"
      },
      "getIndependentCollateral(address)": {
        "notice": "Returns independent collateral from `_user` collateral book"
      },
      "getIndependentCollateralInETH(address)": {
        "notice": "Returns independent collateral from `_user` collateral book converted to ETH"
      },
      "getLockedCollateral(address)": {
        "notice": "Returns locked collateral by `_user` in collateral book"
      },
      "getLockedCollateral(address,address)": {
        "notice": "Returns locked collateral by counterparties in a bilateral position in native `ccy`"
      },
      "getLockedCollateralInETH(address)": {
        "notice": "Returns locked collateral by `_user` in collateral book converted to ETH"
      },
      "getLockedCollateralInETH(address,address)": {
        "notice": "Returns locked collateral by counterparties in a bilateral position converted to ETH"
      },
      "liquidate(address,address,uint256)": {
        "notice": "Trigers only be Loan contract"
      },
      "withdraw(uint256)": {
        "notice": "Trigers to withdraw funds by the msg.sender from non-locked funds"
      },
      "withdrawFrom(address,uint256)": {
        "notice": "Trigers to withdraw funds from bilateral position between msg.sender and _counterparty"
      }
    },
    "version": 1
  },
  "storageLayout": {
    "storage": [
      {
        "astId": 10431,
        "contract": "contracts/CollateralVault.sol:CollateralVault",
        "label": "collateralAggregator",
        "offset": 0,
        "slot": "0",
        "type": "t_contract(ICollateralAggregator)20605"
      },
      {
        "astId": 10433,
        "contract": "contracts/CollateralVault.sol:CollateralVault",
        "label": "currencyController",
        "offset": 0,
        "slot": "1",
        "type": "t_contract(ICurrencyController)21317"
      },
      {
        "astId": 10436,
        "contract": "contracts/CollateralVault.sol:CollateralVault",
        "label": "owner",
        "offset": 0,
        "slot": "2",
        "type": "t_address"
      },
      {
        "astId": 10439,
        "contract": "contracts/CollateralVault.sol:CollateralVault",
        "label": "tokenAddress",
        "offset": 0,
        "slot": "3",
        "type": "t_address"
      },
      {
        "astId": 10442,
        "contract": "contracts/CollateralVault.sol:CollateralVault",
        "label": "ccy",
        "offset": 0,
        "slot": "4",
        "type": "t_bytes32"
      },
      {
        "astId": 10446,
        "contract": "contracts/CollateralVault.sol:CollateralVault",
        "label": "books",
        "offset": 0,
        "slot": "5",
        "type": "t_mapping(t_address,t_struct(Book)10429_storage)"
      },
      {
        "astId": 10450,
        "contract": "contracts/CollateralVault.sol:CollateralVault",
        "label": "_positions",
        "offset": 0,
        "slot": "6",
        "type": "t_mapping(t_bytes32,t_struct(Position)24891_storage)"
      }
    ],
    "types": {
      "t_address": {
        "encoding": "inplace",
        "label": "address",
        "numberOfBytes": "20"
      },
      "t_bytes32": {
        "encoding": "inplace",
        "label": "bytes32",
        "numberOfBytes": "32"
      },
      "t_contract(ICollateralAggregator)20605": {
        "encoding": "inplace",
        "label": "contract ICollateralAggregator",
        "numberOfBytes": "20"
      },
      "t_contract(ICurrencyController)21317": {
        "encoding": "inplace",
        "label": "contract ICurrencyController",
        "numberOfBytes": "20"
      },
      "t_mapping(t_address,t_struct(Book)10429_storage)": {
        "encoding": "mapping",
        "key": "t_address",
        "label": "mapping(address => struct CollateralVault.Book)",
        "numberOfBytes": "32",
        "value": "t_struct(Book)10429_storage"
      },
      "t_mapping(t_bytes32,t_struct(Position)24891_storage)": {
        "encoding": "mapping",
        "key": "t_bytes32",
        "label": "mapping(bytes32 => struct CollateralPosition.Position)",
        "numberOfBytes": "32",
        "value": "t_struct(Position)24891_storage"
      },
      "t_struct(Book)10429_storage": {
        "encoding": "inplace",
        "label": "struct CollateralVault.Book",
        "members": [
          {
            "astId": 10426,
            "contract": "contracts/CollateralVault.sol:CollateralVault",
            "label": "independentAmount",
            "offset": 0,
            "slot": "0",
            "type": "t_uint256"
          },
          {
            "astId": 10428,
            "contract": "contracts/CollateralVault.sol:CollateralVault",
            "label": "lockedCollateral",
            "offset": 0,
            "slot": "1",
            "type": "t_uint256"
          }
        ],
        "numberOfBytes": "64"
      },
      "t_struct(Position)24891_storage": {
        "encoding": "inplace",
        "label": "struct CollateralPosition.Position",
        "members": [
          {
            "astId": 24888,
            "contract": "contracts/CollateralVault.sol:CollateralVault",
            "label": "lockedCollateralA",
            "offset": 0,
            "slot": "0",
            "type": "t_uint256"
          },
          {
            "astId": 24890,
            "contract": "contracts/CollateralVault.sol:CollateralVault",
            "label": "lockedCollateralB",
            "offset": 0,
            "slot": "1",
            "type": "t_uint256"
          }
        ],
        "numberOfBytes": "64"
      },
      "t_uint256": {
        "encoding": "inplace",
        "label": "uint256",
        "numberOfBytes": "32"
      }
    }
  }
}