{
  "address": "0x4E599754188C4772696BB9A85F435Df02275cE29",
  "abi": [
    {
      "inputs": [
        {
          "internalType": "address",
          "name": "_productResolver",
          "type": "address"
        }
      ],
      "stateMutability": "nonpayable",
      "type": "constructor"
    },
    {
      "inputs": [],
      "name": "owner",
      "outputs": [
        {
          "internalType": "address",
          "name": "",
          "type": "address"
        }
      ],
      "stateMutability": "view",
      "type": "function"
    },
    {
      "inputs": [
        {
          "internalType": "bytes32",
          "name": "dealId",
          "type": "bytes32"
        }
      ],
      "name": "updatePV",
      "outputs": [],
      "stateMutability": "nonpayable",
      "type": "function"
    },
    {
      "inputs": [
        {
          "internalType": "bytes32[]",
          "name": "dealIds",
          "type": "bytes32[]"
        }
      ],
      "name": "updatePVs",
      "outputs": [],
      "stateMutability": "nonpayable",
      "type": "function"
    }
  ],
  "transactionHash": "0xdd678c0ab604c179a5b79c940cce173db729036de9f3645b5bd1c878e514a320",
  "args": [
    "0x3Bb006345DA94AA05BEBD0Ec70CBe6f28A017cEe"
  ],
  "numDeployments": 1,
  "solcInputHash": "48d264388c4204a72ee447cb1af8bee3",
  "bytecode": "0x608060405234801561001057600080fd5b506040516105ba3803806105ba83398101604081905261002f91610062565b60008054336001600160a01b031991821617909155600180549091166001600160a01b0392909216919091179055610090565b600060208284031215610073578081fd5b81516001600160a01b0381168114610089578182fd5b9392505050565b61051b8061009f6000396000f3fe608060405234801561001057600080fd5b50600436106100415760003560e01c8063175cfff4146100465780634d283d5c1461005b5780638da5cb5b1461006e575b600080fd5b610059610054366004610432565b61008c565b005b61005961006936600461037d565b6101b7565b610076610312565b604051610083919061044a565b60405180910390f35b600154604051634d86283f60e01b81526000916001600160a01b031690634d86283f906100bd90859060040161045e565b60206040518083038186803b1580156100d557600080fd5b505afa1580156100e9573d6000803e3d6000fd5b505050506040513d601f19601f8201168201806040525081019061010d919061034f565b604051639ad9a69160e01b81529091506001600160a01b03821690639ad9a6919061013c90859060040161045e565b602060405180830381600087803b15801561015657600080fd5b505af115801561016a573d6000803e3d6000fd5b505050506040513d601f19601f8201168201806040525081019061018e9190610412565b6101b35760405162461bcd60e51b81526004016101aa90610467565b60405180910390fd5b5050565b6101bf610321565b60005b825181101561030d5760008382815181106101d957fe5b6020908102919091010151600154604051634d86283f60e01b81529192506001600160a01b031690634d86283f9061021590849060040161045e565b60206040518083038186803b15801561022d57600080fd5b505afa158015610241573d6000803e3d6000fd5b505050506040513d601f19601f82011682018060405250810190610265919061034f565b6001600160a01b031660608401819052604051639ad9a69160e01b8152639ad9a6919061029690849060040161045e565b602060405180830381600087803b1580156102b057600080fd5b505af11580156102c4573d6000803e3d6000fd5b505050506040513d601f19601f820116820180604052508101906102e89190610412565b6103045760405162461bcd60e51b81526004016101aa90610467565b506001016101c2565b505050565b6000546001600160a01b031681565b6040805160a08101825260008082526020820181905291810182905260608101829052608081019190915290565b600060208284031215610360578081fd5b81516001600160a01b0381168114610376578182fd5b9392505050565b6000602080838503121561038f578182fd5b823567ffffffffffffffff8111156103a5578283fd5b8301601f810185136103b5578283fd5b80356103c86103c3826104c5565b61049e565b81815283810190838501858402850186018910156103e4578687fd5b8694505b838510156104065780358352600194909401939185019185016103e8565b50979650505050505050565b600060208284031215610423578081fd5b81518015158114610376578182fd5b600060208284031215610443578081fd5b5035919050565b6001600160a01b0391909116815260200190565b90815260200190565b60208082526017908201527f43414e275420444f204d41524b2d544f2d4d41524b4554000000000000000000604082015260600190565b60405181810167ffffffffffffffff811182821017156104bd57600080fd5b604052919050565b600067ffffffffffffffff8211156104db578081fd5b506020908102019056fea26469706673582212207690b78cf5b1d41d5a27f3be9056a56f3ea9787924929ff445dfa8281b825cd464736f6c634300060c0033",
  "devdoc": {
    "kind": "dev",
    "methods": {
      "constructor": {
        "details": "Contract constructor function."
      },
      "updatePV(bytes32)": {
        "details": "Triggers to update present value for a single deal.",
        "params": {
          "dealId": "Deal ID to update PV for"
        }
      },
      "updatePVs(bytes32[])": {
        "details": "Triggers to update present value for a multiple deals.",
        "params": {
          "dealIds": "Array of Deal IDs to update PV for"
        }
      }
    },
    "version": 1
  },
  "userdoc": {
    "kind": "user",
    "methods": {
      "constructor": "sets contract deployer as owner of this contract and connects to product address resolver contract"
    },
    "version": 1
  },
  "storageLayout": {
    "storage": [
      {
        "astId": 17465,
        "contract": "contracts/MarkToMarket.sol:MarkToMarket",
        "label": "owner",
        "offset": 0,
        "slot": "0",
        "type": "t_address"
      },
      {
        "astId": 17467,
        "contract": "contracts/MarkToMarket.sol:MarkToMarket",
        "label": "productResolver",
        "offset": 0,
        "slot": "1",
        "type": "t_contract(IProductAddressResolver)22478"
      },
      {
        "astId": 17469,
        "contract": "contracts/MarkToMarket.sol:MarkToMarket",
        "label": "paymentAggregator",
        "offset": 0,
        "slot": "2",
        "type": "t_contract(IPaymentAggregator)22284"
      }
    ],
    "types": {
      "t_address": {
        "encoding": "inplace",
        "label": "address",
        "numberOfBytes": "20"
      },
      "t_contract(IPaymentAggregator)22284": {
        "encoding": "inplace",
        "label": "contract IPaymentAggregator",
        "numberOfBytes": "20"
      },
      "t_contract(IProductAddressResolver)22478": {
        "encoding": "inplace",
        "label": "contract IProductAddressResolver",
        "numberOfBytes": "20"
      }
    }
  }
}