{
  "address": "0xbf5c6641ab47307F48Ca74644011B8a76e37241b",
  "abi": [
    {
      "inputs": [],
      "stateMutability": "nonpayable",
      "type": "constructor"
    },
    {
      "anonymous": false,
      "inputs": [
        {
          "indexed": true,
          "internalType": "address",
          "name": "party0",
          "type": "address"
        },
        {
          "indexed": true,
          "internalType": "address",
          "name": "party1",
          "type": "address"
        },
        {
          "indexed": false,
          "internalType": "bytes32",
          "name": "ccy",
          "type": "bytes32"
        },
        {
          "indexed": false,
          "internalType": "bytes32",
          "name": "timeSlot",
          "type": "bytes32"
        },
        {
          "indexed": false,
          "internalType": "uint256",
          "name": "year",
          "type": "uint256"
        },
        {
          "indexed": false,
          "internalType": "uint256",
          "name": "month",
          "type": "uint256"
        },
        {
          "indexed": false,
          "internalType": "uint256",
          "name": "day",
          "type": "uint256"
        },
        {
          "indexed": false,
          "internalType": "uint256",
          "name": "payment0",
          "type": "uint256"
        },
        {
          "indexed": false,
          "internalType": "uint256",
          "name": "payment1",
          "type": "uint256"
        }
      ],
      "name": "RegisterPayment",
      "type": "event"
    },
    {
      "anonymous": false,
      "inputs": [
        {
          "indexed": true,
          "internalType": "address",
          "name": "party0",
          "type": "address"
        },
        {
          "indexed": true,
          "internalType": "address",
          "name": "party1",
          "type": "address"
        },
        {
          "indexed": false,
          "internalType": "bytes32",
          "name": "ccy",
          "type": "bytes32"
        },
        {
          "indexed": false,
          "internalType": "bytes32",
          "name": "timeSlot",
          "type": "bytes32"
        },
        {
          "indexed": false,
          "internalType": "uint256",
          "name": "year",
          "type": "uint256"
        },
        {
          "indexed": false,
          "internalType": "uint256",
          "name": "month",
          "type": "uint256"
        },
        {
          "indexed": false,
          "internalType": "uint256",
          "name": "day",
          "type": "uint256"
        },
        {
          "indexed": false,
          "internalType": "uint256",
          "name": "payment0",
          "type": "uint256"
        },
        {
          "indexed": false,
          "internalType": "uint256",
          "name": "payment1",
          "type": "uint256"
        }
      ],
      "name": "RemovePayment",
      "type": "event"
    },
    {
      "anonymous": false,
      "inputs": [
        {
          "indexed": true,
          "internalType": "address",
          "name": "verifier",
          "type": "address"
        },
        {
          "indexed": true,
          "internalType": "address",
          "name": "counterparty",
          "type": "address"
        },
        {
          "indexed": false,
          "internalType": "bytes32",
          "name": "ccy",
          "type": "bytes32"
        },
        {
          "indexed": false,
          "internalType": "bytes32",
          "name": "timeSlot",
          "type": "bytes32"
        },
        {
          "indexed": false,
          "internalType": "uint256",
          "name": "year",
          "type": "uint256"
        },
        {
          "indexed": false,
          "internalType": "uint256",
          "name": "month",
          "type": "uint256"
        },
        {
          "indexed": false,
          "internalType": "uint256",
          "name": "day",
          "type": "uint256"
        },
        {
          "indexed": false,
          "internalType": "bytes32",
          "name": "txHash",
          "type": "bytes32"
        }
      ],
      "name": "SettlePayment",
      "type": "event"
    },
    {
      "anonymous": false,
      "inputs": [
        {
          "indexed": true,
          "internalType": "address",
          "name": "prevContract",
          "type": "address"
        },
        {
          "indexed": true,
          "internalType": "address",
          "name": "closeOutNetting",
          "type": "address"
        }
      ],
      "name": "UpdateCloseOutNetting",
      "type": "event"
    },
    {
      "anonymous": false,
      "inputs": [
        {
          "indexed": true,
          "internalType": "address",
          "name": "prevContract",
          "type": "address"
        },
        {
          "indexed": true,
          "internalType": "address",
          "name": "closeOutNetting",
          "type": "address"
        }
      ],
      "name": "UpdateMarkToMarket",
      "type": "event"
    },
    {
      "anonymous": false,
      "inputs": [
        {
          "indexed": true,
          "internalType": "address",
          "name": "verifier",
          "type": "address"
        },
        {
          "indexed": true,
          "internalType": "address",
          "name": "counterparty",
          "type": "address"
        },
        {
          "indexed": false,
          "internalType": "bytes32",
          "name": "ccy",
          "type": "bytes32"
        },
        {
          "indexed": false,
          "internalType": "bytes32",
          "name": "timeSlot",
          "type": "bytes32"
        },
        {
          "indexed": false,
          "internalType": "uint256",
          "name": "year",
          "type": "uint256"
        },
        {
          "indexed": false,
          "internalType": "uint256",
          "name": "month",
          "type": "uint256"
        },
        {
          "indexed": false,
          "internalType": "uint256",
          "name": "day",
          "type": "uint256"
        },
        {
          "indexed": false,
          "internalType": "uint256",
          "name": "payment",
          "type": "uint256"
        },
        {
          "indexed": false,
          "internalType": "bytes32",
          "name": "txHash",
          "type": "bytes32"
        }
      ],
      "name": "VerifyPayment",
      "type": "event"
    },
    {
      "inputs": [
        {
          "internalType": "address",
          "name": "_user",
          "type": "address"
        }
      ],
      "name": "addPaymentAggregatorUser",
      "outputs": [
        {
          "internalType": "bool",
          "name": "",
          "type": "bool"
        }
      ],
      "stateMutability": "nonpayable",
      "type": "function"
    },
    {
      "inputs": [
        {
          "internalType": "address",
          "name": "party0",
          "type": "address"
        },
        {
          "internalType": "address",
          "name": "party1",
          "type": "address"
        },
        {
          "internalType": "bytes32",
          "name": "ccy",
          "type": "bytes32"
        },
        {
          "internalType": "bytes32",
          "name": "slotPosition",
          "type": "bytes32"
        }
      ],
      "name": "getDealsFromSlot",
      "outputs": [
        {
          "internalType": "bytes32[]",
          "name": "",
          "type": "bytes32[]"
        }
      ],
      "stateMutability": "view",
      "type": "function"
    },
    {
      "inputs": [
        {
          "internalType": "address",
          "name": "party0",
          "type": "address"
        },
        {
          "internalType": "address",
          "name": "party1",
          "type": "address"
        },
        {
          "internalType": "bytes32",
          "name": "ccy",
          "type": "bytes32"
        },
        {
          "internalType": "uint256",
          "name": "year",
          "type": "uint256"
        },
        {
          "internalType": "uint256",
          "name": "month",
          "type": "uint256"
        },
        {
          "internalType": "uint256",
          "name": "day",
          "type": "uint256"
        }
      ],
      "name": "getTimeSlotByDate",
      "outputs": [
        {
          "components": [
            {
              "internalType": "uint256",
              "name": "totalPayment0",
              "type": "uint256"
            },
            {
              "internalType": "uint256",
              "name": "totalPayment1",
              "type": "uint256"
            },
            {
              "internalType": "uint256",
              "name": "netPayment",
              "type": "uint256"
            },
            {
              "internalType": "bool",
              "name": "flipped",
              "type": "bool"
            },
            {
              "internalType": "bytes32",
              "name": "paymentProof",
              "type": "bytes32"
            },
            {
              "internalType": "address",
              "name": "verificationParty",
              "type": "address"
            },
            {
              "internalType": "bool",
              "name": "isSettled",
              "type": "bool"
            }
          ],
          "internalType": "struct TimeSlot.Slot",
          "name": "timeSlot",
          "type": "tuple"
        }
      ],
      "stateMutability": "view",
      "type": "function"
    },
    {
      "inputs": [
        {
          "internalType": "address",
          "name": "party0",
          "type": "address"
        },
        {
          "internalType": "address",
          "name": "party1",
          "type": "address"
        },
        {
          "internalType": "bytes32",
          "name": "ccy",
          "type": "bytes32"
        },
        {
          "internalType": "bytes32",
          "name": "slot",
          "type": "bytes32"
        }
      ],
      "name": "getTimeSlotBySlotId",
      "outputs": [
        {
          "components": [
            {
              "internalType": "uint256",
              "name": "totalPayment0",
              "type": "uint256"
            },
            {
              "internalType": "uint256",
              "name": "totalPayment1",
              "type": "uint256"
            },
            {
              "internalType": "uint256",
              "name": "netPayment",
              "type": "uint256"
            },
            {
              "internalType": "bool",
              "name": "flipped",
              "type": "bool"
            },
            {
              "internalType": "bytes32",
              "name": "paymentProof",
              "type": "bytes32"
            },
            {
              "internalType": "address",
              "name": "verificationParty",
              "type": "address"
            },
            {
              "internalType": "bool",
              "name": "isSettled",
              "type": "bool"
            }
          ],
          "internalType": "struct TimeSlot.Slot",
          "name": "timeSlot",
          "type": "tuple"
        }
      ],
      "stateMutability": "view",
      "type": "function"
    },
    {
      "inputs": [
        {
          "internalType": "address",
          "name": "_user",
          "type": "address"
        }
      ],
      "name": "isPaymentAggregatorUser",
      "outputs": [
        {
          "internalType": "bool",
          "name": "",
          "type": "bool"
        }
      ],
      "stateMutability": "view",
      "type": "function"
    },
    {
      "inputs": [
        {
          "internalType": "address",
          "name": "party0",
          "type": "address"
        },
        {
          "internalType": "address",
          "name": "party1",
          "type": "address"
        },
        {
          "internalType": "bytes32",
          "name": "ccy",
          "type": "bytes32"
        },
        {
          "internalType": "uint256",
          "name": "timestamp",
          "type": "uint256"
        }
      ],
      "name": "isSettled",
      "outputs": [
        {
          "internalType": "bool",
          "name": "status",
          "type": "bool"
        }
      ],
      "stateMutability": "view",
      "type": "function"
    },
    {
      "inputs": [],
      "name": "owner",
      "outputs": [
        {
          "internalType": "address",
          "name": "",
          "type": "address"
        }
      ],
      "stateMutability": "view",
      "type": "function"
    },
    {
      "inputs": [
        {
          "internalType": "address",
          "name": "party0",
          "type": "address"
        },
        {
          "internalType": "address",
          "name": "party1",
          "type": "address"
        },
        {
          "internalType": "bytes32",
          "name": "ccy",
          "type": "bytes32"
        },
        {
          "internalType": "bytes32",
          "name": "dealId",
          "type": "bytes32"
        },
        {
          "internalType": "uint256[]",
          "name": "timestamps",
          "type": "uint256[]"
        },
        {
          "internalType": "uint256[]",
          "name": "payments0",
          "type": "uint256[]"
        },
        {
          "internalType": "uint256[]",
          "name": "payments1",
          "type": "uint256[]"
        }
      ],
      "name": "registerPayments",
      "outputs": [],
      "stateMutability": "nonpayable",
      "type": "function"
    },
    {
      "inputs": [
        {
          "internalType": "address",
          "name": "_user",
          "type": "address"
        }
      ],
      "name": "removePaymentAggregatorUser",
      "outputs": [
        {
          "internalType": "bool",
          "name": "",
          "type": "bool"
        }
      ],
      "stateMutability": "nonpayable",
      "type": "function"
    },
    {
      "inputs": [
        {
          "internalType": "address",
          "name": "party0",
          "type": "address"
        },
        {
          "internalType": "address",
          "name": "party1",
          "type": "address"
        },
        {
          "internalType": "bytes32",
          "name": "ccy",
          "type": "bytes32"
        },
        {
          "internalType": "bytes32",
          "name": "dealId",
          "type": "bytes32"
        },
        {
          "internalType": "uint256[]",
          "name": "timestamps",
          "type": "uint256[]"
        },
        {
          "internalType": "uint256[]",
          "name": "payments0",
          "type": "uint256[]"
        },
        {
          "internalType": "uint256[]",
          "name": "payments1",
          "type": "uint256[]"
        }
      ],
      "name": "removePayments",
      "outputs": [],
      "stateMutability": "nonpayable",
      "type": "function"
    },
    {
      "inputs": [
        {
          "internalType": "address",
          "name": "_contract",
          "type": "address"
        }
      ],
      "name": "setCloseOutNetting",
      "outputs": [],
      "stateMutability": "nonpayable",
      "type": "function"
    },
    {
      "inputs": [
        {
          "internalType": "address",
          "name": "_contract",
          "type": "address"
        }
      ],
      "name": "setMarkToMarket",
      "outputs": [],
      "stateMutability": "nonpayable",
      "type": "function"
    },
    {
      "inputs": [
        {
          "internalType": "address",
          "name": "verifier",
          "type": "address"
        },
        {
          "internalType": "address",
          "name": "counterparty",
          "type": "address"
        },
        {
          "internalType": "bytes32",
          "name": "ccy",
          "type": "bytes32"
        },
        {
          "internalType": "uint256",
          "name": "timestamp",
          "type": "uint256"
        },
        {
          "internalType": "bytes32",
          "name": "txHash",
          "type": "bytes32"
        }
      ],
      "name": "settlePayment",
      "outputs": [],
      "stateMutability": "nonpayable",
      "type": "function"
    },
    {
      "inputs": [],
      "name": "settlementWindow",
      "outputs": [
        {
          "internalType": "uint256",
          "name": "",
          "type": "uint256"
        }
      ],
      "stateMutability": "view",
      "type": "function"
    },
    {
      "inputs": [
        {
          "internalType": "address",
          "name": "verifier",
          "type": "address"
        },
        {
          "internalType": "address",
          "name": "counterparty",
          "type": "address"
        },
        {
          "internalType": "bytes32",
          "name": "ccy",
          "type": "bytes32"
        },
        {
          "internalType": "uint256",
          "name": "timestamp",
          "type": "uint256"
        },
        {
          "internalType": "uint256",
          "name": "payment",
          "type": "uint256"
        },
        {
          "internalType": "bytes32",
          "name": "txHash",
          "type": "bytes32"
        }
      ],
      "name": "verifyPayment",
      "outputs": [],
      "stateMutability": "nonpayable",
      "type": "function"
    }
  ],
  "transactionHash": "0xc6ab7dacb16c7942cffbe4340058c68e4c92972f7f4a366b6ce315a0e9db7ac3",
  "args": [],
  "numDeployments": 1,
  "solcInputHash": "48d264388c4204a72ee447cb1af8bee3",
  "bytecode": "0x6080604052600260015534801561001557600080fd5b50600080546001600160a01b03191633179055612206806100376000396000f3fe608060405234801561001057600080fd5b50600436106100f55760003560e01c80638da5cb5b11610097578063b4a7bdf911610066578063b4a7bdf9146101ff578063b73cdacd14610214578063dff7f74414610227578063ee0474c21461023a576100f5565b80638da5cb5b146101b1578063955c8736146101c6578063a0a65e40146101d9578063b116a259146101ec576100f5565b8063393b6e17116100d3578063393b6e171461015857806375dc0d211461016b57806381dc26c71461017e578063891e37211461019e576100f5565b806306710fff146100fa578063117979f41461010f5780632eb4602314610138575b600080fd5b61010d6101083660046119d1565b61024d565b005b61012261011d3660046119d1565b61031f565b60405161012f9190611d2d565b60405180910390f35b61014b6101463660046119ec565b610332565b60405161012f9190611ce9565b61010d610166366004611afe565b6103fd565b610122610179366004611bb9565b6106bc565b61019161018c3660046119ec565b6106fb565b60405161012f9190612159565b61010d6101ac3660046119d1565b61071a565b6101b96107e3565b60405161012f9190611c8a565b61010d6101d4366004611c1e565b6107f2565b61010d6101e7366004611bce565b6108fc565b6101916101fa366004611c1e565b610b01565b610207610b24565b60405161012f91906121af565b61010d610222366004611a2f565b610b2a565b6101226102353660046119d1565b610dd9565b6101226102483660046119d1565b610e23565b6000546001600160a01b0316331461026457600080fd5b806001600160a01b0381166102945760405162461bcd60e51b815260040161028b90611dd2565b60405180910390fd5b6102a6816001600160a01b0316610ec2565b6102c25760405162461bcd60e51b815260040161028b906120fc565b6005546040516001600160a01b038085169216907ff378eee4e3430742e191ff7fea453b7eeba44c869e8b2f2ba2653b129b7b864390600090a350600580546001600160a01b0319166001600160a01b0392909216919091179055565b600061032c600283610ec8565b92915050565b606060006103408686610ee4565b5060008181526007602090815260408083208884528252808320878452909152812091925061036e82610ff2565b905060608167ffffffffffffffff8111801561038957600080fd5b506040519080825280602002602001820160405280156103b3578160200160208202803683370190505b50905060005b828110156103f05760006103cd8583610ffd565b9050808383815181106103dc57fe5b6020908102919091010152506001016103b9565b5098975050505050505050565b610408600233610ec8565b6104245760405162461bcd60e51b815260040161028b90612023565b61042c611810565b6104368888610ee4565b50815260005b845181101561063f5784818151811061045157fe5b60200260200101516000141561046657610637565b61048285828151811061047557fe5b6020026020010151611009565b60e0850181905260c0850182905260a085018390526104a2929190611028565b60808301908152825160009081526007602090815260408083208b8452825280832093518352929052206104d6908761105e565b5060008482815181106104e557fe5b602002602001015111156105235761051d84828151811061050257fe5b6020026020010151836040015161106a90919063ffffffff16565b60408301525b600083828151811061053157fe5b6020026020010151111561056f5761056983828151811061054e57fe5b6020026020010151836060015161106a90919063ffffffff16565b60608301525b6105a960068a8a8a866080015189878151811061058857fe5b602002602001015189888151811061059c57fe5b602002602001015161108f565b876001600160a01b0316896001600160a01b03167f7e5ab2f9d27f1d9cb69c5757129eba9a1250928ade66885dc5caec90c4b7641b8985608001518660a001518760c001518860e001518b89815181106105ff57fe5b60200260200101518b8a8151811061061357fe5b602002602001015160405161062e9796959493929190611d60565b60405180910390a35b60010161043c565b50600480546040808401516060850151915163ca2da52960e01b81526001600160a01b039093169363ca2da52993610680938e938e938e9391929101611cb8565b600060405180830381600087803b15801561069a57600080fd5b505af11580156106ae573d6000803e3d6000fd5b505050505050505050505050565b6000806000806106cb85611009565b92509250925060006106de848484611028565b90506106ee60068a8a8a8561114b565b9998505050505050505050565b61070361185d565b61071160068686868661118f565b95945050505050565b6000546001600160a01b0316331461073157600080fd5b806001600160a01b0381166107585760405162461bcd60e51b815260040161028b90611dd2565b61076a816001600160a01b0316610ec2565b6107865760405162461bcd60e51b815260040161028b906120fc565b6004546040516001600160a01b038085169216907fe6834f0ea4acfb5ea8ca76f27d2246c6359d96899ec53f5c4bc96e56dcd146ce90600090a350600480546001600160a01b0319166001600160a01b0392909216919091179055565b6000546001600160a01b031681565b6107fb8361129f565b6108175760405162461bcd60e51b815260040161028b90611fec565b61081f611899565b6060810183905260a081018290526001600160a01b038716608082015261084584611009565b610100840181905260e0840182905260c08401839052610866929190611028565b81604001818152505061088b6006888888856040015186606001518760a001516112ba565b856001600160a01b0316876001600160a01b03167fcb48cecc076f9cad1de25f21319ce962ff151d316749e31680b49ed5e2c6fa538784604001518560c001518660e001518761010001518a8a6040516108eb9796959493929190611d60565b60405180910390a350505050505050565b6109058261129f565b6109215760405162461bcd60e51b815260040161028b90611fec565b610929611899565b60a081018290526001600160a01b038616608082015261094883611009565b610100840181905260e0840182905260c08401839052610969929190611028565b604082015261097661185d565b61099360068888888660c001518760e001518861010001516113e6565b90506109ac600688888886604001518760a00151611425565b60606109be8888888660400151610332565b60055460405163134a0f5760e21b81529192506001600160a01b031690634d283d5c906109ef908490600401611ce9565b600060405180830381600087803b158015610a0957600080fd5b505af1158015610a1d573d6000803e3d6000fd5b505060048054855160208701516040516308c9165b60e41b81526001600160a01b039093169550638c9165b09450610a5f938e938e938e939092909101611cb8565b600060405180830381600087803b158015610a7957600080fd5b505af1158015610a8d573d6000803e3d6000fd5b50505050866001600160a01b0316886001600160a01b03167f60d5560fb6dcb96ba7b9e138a06d94234a893a7e79def188502193bf71bc46638886604001518760c001518860e001518961010001518b604051610aef96959493929190611d38565b60405180910390a35050505050505050565b610b0961185d565b610b1960068888888888886113e6565b979650505050505050565b60015481565b610b35600233610ec8565b610b515760405162461bcd60e51b815260040161028b90612023565b610b59611810565b610b638b8b610ee4565b50815260005b86811015610d4857878782818110610b7d57fe5b9050602002013560001415610b9157610d40565b610bac888883818110610ba057fe5b90506020020135611009565b60e0850181905260c0850182905260a08501839052610bcc929190611028565b60808301908152825160009081526007602090815260408083208e845282528083209351835292905220610c00908a6114f1565b610c1c5760405162461bcd60e51b815260040161028b90612068565b610c45868683818110610c2b57fe5b90506020020135836040015161106a90919063ffffffff16565b6040830152610c73848483818110610c5957fe5b90506020020135836060015161106a90919063ffffffff16565b826060018181525050610cb460068d8d8d86608001518b8b88818110610c9557fe5b905060200201358a8a89818110610ca857fe5b905060200201356114fd565b8a6001600160a01b03168c6001600160a01b03167fc90213e03f0aa26b07d0e75565000d17a8ff1134595b78597d0f4c3cf51aee208c85608001518660a001518760c001518860e001518d8d8a818110610d0a57fe5b905060200201358c8c8b818110610d1d57fe5b90506020020135604051610d379796959493929190611d60565b60405180910390a35b600101610b69565b50600460009054906101000a90046001600160a01b03166001600160a01b0316638c9165b08c8c8c856040015186606001516040518663ffffffff1660e01b8152600401610d9a959493929190611cb8565b600060405180830381600087803b158015610db457600080fd5b505af1158015610dc8573d6000803e3d6000fd5b505050505050505050505050505050565b600080546001600160a01b03163314610df157600080fd5b610dfc600283610ec8565b610e185760405162461bcd60e51b815260040161028b90611f7e565b61032c60028361159c565b600080546001600160a01b03163314610e3b57600080fd5b6001600160a01b038216610e615760405162461bcd60e51b815260040161028b90611ef6565b610e73826001600160a01b0316610ec2565b610e8f5760405162461bcd60e51b815260040161028b90611f47565b610e9a600283610ec8565b15610eb75760405162461bcd60e51b815260040161028b906120c5565b61032c6002836115b1565b3b151590565b6000610edd836001600160a01b0384166115c6565b9392505050565b600080826001600160a01b0316846001600160a01b03161415610f195760405162461bcd60e51b815260040161028b90611dfb565b600080846001600160a01b0316866001600160a01b031610610f3c578486610f3f565b85855b90925090506001600160a01b038216610f6a5760405162461bcd60e51b815260040161028b90611e28565b856001600160a01b0316826001600160a01b031614610fb9578181604051602001610f96929190611c9e565b604051602081830303815290604052805190602001206001935093505050610feb565b8181604051602001610fcc929190611c9e565b6040516020818303038152906040528051906020012060009350935050505b9250929050565b600061032c826115de565b6000610edd83836115e2565b6000808061101b620151808504611627565b9196909550909350915050565b600083838360405160200161103f93929190611c74565b6040516020818303038152906040528051906020012090509392505050565b6000610edd83836116bd565b600082820183811015610edd5760405162461bcd60e51b815260040161028b90611e88565b60008061109c8888610ee4565b600082815260208c815260408083208b845282528083208a84529091529020600581015492945090925090600160a01b900460ff16156110ee5760405162461bcd60e51b815260040161028b90611e51565b816111045780546110ff908661106a565b611110565b8054611110908561106a565b81558161112b576001810154611126908561106a565b61113a565b600181015461113a908661106a565b600190910155505050505050505050565b6000806111588686610ee4565b5060009081526020978852604080822095825294885284812093815292909652502060050154600160a01b900460ff169392505050565b61119761185d565b6000806111a48787610ee4565b915091506111b061185d565b506000828152602089815260408083208884528252808320878452825291829020825160e08101845281548152600182015492810192909252600281015492820192909252600382015460ff90811615156060830152600483015460808301526005909201546001600160a01b03811660a0830152600160a01b9004909116151560c082015281156112485780516020820180518352525b805160208201511115611276578051602082015161126591611707565b604082015260016060820152611293565b6020810151815161128691611707565b6040820152600060608201525b98975050505050505050565b600042816112ad828561172f565b6001541015949350505050565b6000806112c78888610ee4565b600082815260208c815260408083208b845282528083208a84529091529020600581015492945090925090600160a01b900460ff16156113195760405162461bcd60e51b815260040161028b90611e51565b6000821561135c5781546001830154116113455760405162461bcd60e51b815260040161028b90611fb5565b8154600183015461135591611707565b9050611393565b60018201548254116113805760405162461bcd60e51b815260040161028b90611fb5565b6001820154825461139091611707565b90505b8581146113b25760405162461bcd60e51b815260040161028b90612122565b506004810193909355505060050180546001600160a01b0319166001600160a01b0396909616959095179094555050505050565b6113ee61185d565b6112938888888888888860405160200161140a93929190611c74565b6040516020818303038152906040528051906020012061118f565b60006114318686610ee4565b5060008181526020898152604080832088845282528083208784529091529020600581015491925090600160a01b900460ff16156114815760405162461bcd60e51b815260040161028b90611e51565b828160040154146114a45760405162461bcd60e51b815260040161028b90611f1c565b60058101546001600160a01b03888116911614156114d45760405162461bcd60e51b815260040161028b90612095565b600501805460ff60a01b1916600160a01b17905550505050505050565b6000610edd838361174a565b60008061150a8888610ee4565b600082815260208c815260408083208b845282528083208a84529091529020600581015492945090925090600160a01b900460ff161561154c57505050611593565b8161156257805461155d9086611707565b61156e565b805461156e9085611707565b8155816115845760018101546111269085611707565b600181015461113a9086611707565b50505050505050565b6000610edd836001600160a01b03841661174a565b6000610edd836001600160a01b0384166116bd565b60009081526001919091016020526040902054151590565b5490565b815460009082106116055760405162461bcd60e51b815260040161028b90611d90565b82600001828154811061161457fe5b9060005260206000200154905092915050565b60008080836226496581018262023ab1600483020590506004600362023ab18302010590910390600062164b09610fa0600185010205905060046105b58202058303601f019250600061098f846050028161167e57fe5b0590506000605061098f83020585039050600b820560301994909401606402929092018301996002600c90940290910392909201975095509350505050565b60006116c983836115c6565b6116ff5750815460018181018455600084815260208082209093018490558454848252828601909352604090209190915561032c565b50600061032c565b6000828211156117295760405162461bcd60e51b815260040161028b90611ebf565b50900390565b60008183111561173e57600080fd5b50620151809190030490565b60008181526001830160205260408120548015611806578354600019808301919081019060009087908390811061177d57fe5b906000526020600020015490508087600001848154811061179a57fe5b6000918252602080832090910192909255828152600189810190925260409020908401905586548790806117ca57fe5b6001900381819060005260206000200160009055905586600101600087815260200190815260200160002060009055600194505050505061032c565b600091505061032c565b604051806101000160405280600080191681526020016000151581526020016000815260200160008152602001600080191681526020016000815260200160008152602001600081525090565b6040805160e081018252600080825260208201819052918101829052606081018290526080810182905260a0810182905260c081019190915290565b6040805161012081018252600080825260208201819052918101829052606081018290526080810182905260a0810182905260c0810182905260e0810182905261010081019190915290565b80356001600160a01b038116811461032c57600080fd5b60008083601f84011261190d578182fd5b50813567ffffffffffffffff811115611924578182fd5b6020830191508360208083028501011115610feb57600080fd5b600082601f83011261194e578081fd5b813567ffffffffffffffff80821115611965578283fd5b602080830260405182828201018181108582111715611982578687fd5b6040528481529450818501925085820181870183018810156119a357600080fd5b600091505b848210156119c65780358452928201926001919091019082016119a8565b505050505092915050565b6000602082840312156119e2578081fd5b610edd83836118e5565b60008060008060808587031215611a01578283fd5b611a0b86866118e5565b9350611a1a86602087016118e5565b93969395505050506040820135916060013590565b60008060008060008060008060008060e08b8d031215611a4d578586fd5b611a578c8c6118e5565b9950611a668c60208d016118e5565b985060408b0135975060608b0135965060808b013567ffffffffffffffff80821115611a90578788fd5b611a9c8e838f016118fc565b909850965060a08d0135915080821115611ab4578586fd5b611ac08e838f016118fc565b909650945060c08d0135915080821115611ad8578384fd5b50611ae58d828e016118fc565b915080935050809150509295989b9194979a5092959850565b600080600080600080600060e0888a031215611b18578283fd5b611b2289896118e5565b9650611b318960208a016118e5565b95506040880135945060608801359350608088013567ffffffffffffffff80821115611b5b578485fd5b611b678b838c0161193e565b945060a08a0135915080821115611b7c578384fd5b611b888b838c0161193e565b935060c08a0135915080821115611b9d578283fd5b50611baa8a828b0161193e565b91505092959891949750929550565b60008060008060808587031215611a01578384fd5b600080600080600060a08688031215611be5578081fd5b8535611bf0816121b8565b94506020860135611c00816121b8565b94979496505050506040830135926060810135926080909101359150565b60008060008060008060c08789031215611c36578182fd5b611c4088886118e5565b9550611c4f88602089016118e5565b95989597505050506040840135936060810135936080820135935060a0909101359150565b9283526020830191909152604082015260600190565b6001600160a01b0391909116815260200190565b6001600160a01b0392831681529116602082015260400190565b6001600160a01b03958616815293909416602084015260408301919091526060820152608081019190915260a00190565b6020808252825182820181905260009190848201906040850190845b81811015611d2157835183529284019291840191600101611d05565b50909695505050505050565b901515815260200190565b958652602086019490945260408501929092526060840152608083015260a082015260c00190565b968752602087019590955260408601939093526060850191909152608084015260a083015260c082015260e00190565b60208082526022908201527f456e756d657261626c655365743a20696e646578206f7574206f6620626f756e604082015261647360f01b606082015260800190565b6020808252600f908201526e494e56414c49445f4144445245535360881b604082015260600190565b6020808252601390820152724964656e746963616c2061646472657373657360681b604082015260600190565b6020808252600f908201526e496e76616c6964206164647265737360881b604082015260600190565b60208082526018908201527f54494d45534c4f5420534554544c454420414c52454144590000000000000000604082015260600190565b6020808252601b908201527f536166654d6174683a206164646974696f6e206f766572666c6f770000000000604082015260600190565b6020808252601e908201527f536166654d6174683a207375627472616374696f6e206f766572666c6f770000604082015260600190565b6020808252600c908201526b5a65726f206164647265737360a01b604082015260600190565b6020808252601190820152700929c869ea4a48a86a8bea8b0be9082a69607b1b604082015260600190565b6020808252601e908201527f43616e277420616464206e6f6e2d636f6e747261637420616464726573730000604082015260600190565b6020808252601e908201527f43616e27742072656d6f7665206e6f6e2d6578697374696e6720757365720000604082015260600190565b6020808252601c908201527f496e636f727265637420766572696669636174696f6e20706172747900000000604082015260600190565b60208082526018908201527f4f5554204f4620534554544c454d454e542057494e444f570000000000000000604082015260600190565b60208082526025908201527f6e6f7420616c6c6f77656420746f20757365207061796d656e7420616767726560408201526433b0ba37b960d91b606082015260800190565b6020808252601390820152721393d397d49151d254d51154915117d1115053606a1b604082015260600190565b602080825260169082015275494e434f52524543545f434f554e544552504152545960501b604082015260600190565b6020808252601a908201527f43616e277420616464206578697374696e672061646472657373000000000000604082015260600190565b6020808252600c908201526b1393d517d0d3d395149050d560a21b604082015260600190565b6020808252601b908201527f496e636f727265637420736574746c656d656e7420616d6f756e740000000000604082015260600190565b8151815260208083015190820152604080830151908201526060808301511515908201526080808301519082015260a0808301516001600160a01b03169082015260c09182015115159181019190915260e00190565b90815260200190565b6001600160a01b03811681146121cd57600080fd5b5056fea264697066735822122094a0e208989d5ce766b430b6a858cee84d63ddf3a5531bd57b2d7fd46964ecd664736f6c634300060c0033",
  "devdoc": {
    "kind": "dev",
    "methods": {
      "addPaymentAggregatorUser(address)": {
        "details": "Trigers to add contract address to payment aggregator users address set",
        "params": {
          "_user": "Payment aggregator user smart contract address"
        }
      },
      "constructor": {
        "details": "Contract constructor function."
      },
      "getTimeSlotByDate(address,address,bytes32,uint256,uint256,uint256)": {
        "details": "Returns the time slot between parties using slot id.",
        "params": {
          "ccy": "Main payment settlement currency",
          "party0": "First counterparty address",
          "party1": "Second counterparty address"
        }
      },
      "getTimeSlotBySlotId(address,address,bytes32,bytes32)": {
        "details": "Returns the time slot between parties using slot id.",
        "params": {
          "ccy": "Main payment settlement currency",
          "party0": "First counterparty address",
          "party1": "Second counterparty address",
          "slot": "TimeSlot position"
        }
      },
      "isPaymentAggregatorUser(address)": {
        "details": "Trigers to check if provided `addr` is a payment aggregator user from address set",
        "params": {
          "_user": "Contract address to check if it's a payment aggregator user"
        }
      },
      "isSettled(address,address,bytes32,uint256)": {
        "details": "Triggers settlement status of the time slot",
        "params": {
          "ccy": "Main payment settlement currency",
          "party0": "First counterparty address",
          "party1": "Second counterparty address",
          "timestamp": "TimeSlot timestamp"
        },
        "returns": {
          "status": "Boolean if slot was settled"
        }
      },
      "registerPayments(address,address,bytes32,bytes32,uint256[],uint256[],uint256[])": {
        "details": "Triggered to add new payments for a deal",
        "params": {
          "ccy": "Main settlement currency in a deal",
          "dealId": "Deal unique ID with prefix",
          "party0": "First counterparty address",
          "party1": "Second counterparty address",
          "payments0": "Array of cashflows owed by the first party",
          "payments1": "Array of cashflows owed by the second party",
          "timestamps": "Array of timestamps for timeslot identification"
        }
      },
      "removePaymentAggregatorUser(address)": {
        "details": "Trigers to remove payment aggregator user from address set",
        "params": {
          "_user": "Payment aggregator user smart contract address"
        }
      },
      "removePayments(address,address,bytes32,bytes32,uint256[],uint256[],uint256[])": {
        "details": "Triggered to remove existing payments for a deal",
        "params": {
          "ccy": "Main settlement currency in a deal",
          "dealId": "Deal unique ID with prefix",
          "party0": "First counterparty address",
          "party1": "Second counterparty address",
          "payments0": "Array of cashflows owed by the first party",
          "payments1": "Array of cashflows owed by the second party",
          "timestamps": "Array of timestamps for timeslot identification"
        }
      },
      "setCloseOutNetting(address)": {
        "details": "Trigers to set close out netting smart contract",
        "params": {
          "_contract": "CloseOutNetting smart contract address"
        }
      },
      "setMarkToMarket(address)": {
        "details": "Trigers to set mark to market smart contract",
        "params": {
          "_contract": "MarkToMarket smart contract address"
        }
      },
      "settlePayment(address,address,bytes32,uint256,bytes32)": {
        "details": "External function to settle payment using timestamp to identify TimeSlot.",
        "params": {
          "ccy": "Main payment settlement currency",
          "counterparty": "Counterparty address",
          "timestamp": "Main timestamp for TimeSlot",
          "txHash": "Main payment settlement currency",
          "verifier": "Payment settlement verifier address"
        }
      },
      "verifyPayment(address,address,bytes32,uint256,uint256,bytes32)": {
        "details": "External function to verify payment by msg.sender, uses timestamp to identify TimeSlot.",
        "params": {
          "ccy": "Main payment settlement currency",
          "counterparty": "Counterparty address",
          "payment": "Main payment settlement currency",
          "timestamp": "Main timestamp for TimeSlot",
          "txHash": "Main payment settlement currency",
          "verifier": "Payment verifier address"
        }
      }
    },
    "title": "Payment Aggregator contract is used to aggregate payments between counterparties in bilateral relationships. Those payments are defined per counterparties addresses (packed into one bytes32), main settlement currency and payment date. Contract linked to all product based contracts like Loan, Swap, etc.",
    "version": 1
  },
  "userdoc": {
    "kind": "user",
    "methods": {
      "addPaymentAggregatorUser(address)": {
        "notice": "Trigers only be contract ownerReverts on saving 0x0 address"
      },
      "constructor": "sets contract deployer as owner of this contract",
      "removePaymentAggregatorUser(address)": {
        "notice": "Trigers only be contract ownerReverts on removing non-existing payment aggregator user"
      },
      "setCloseOutNetting(address)": {
        "notice": "Trigers only be contract ownerReverts on saving 0x0 address"
      },
      "setMarkToMarket(address)": {
        "notice": "Trigers only be contract ownerReverts on saving 0x0 address"
      }
    },
    "version": 1
  },
  "storageLayout": {
    "storage": [
      {
        "astId": 17624,
        "contract": "contracts/PaymentAggregator.sol:PaymentAggregator",
        "label": "owner",
        "offset": 0,
        "slot": "0",
        "type": "t_address"
      },
      {
        "astId": 17628,
        "contract": "contracts/PaymentAggregator.sol:PaymentAggregator",
        "label": "settlementWindow",
        "offset": 0,
        "slot": "1",
        "type": "t_uint256"
      },
      {
        "astId": 17633,
        "contract": "contracts/PaymentAggregator.sol:PaymentAggregator",
        "label": "paymentAggregatorUsers",
        "offset": 0,
        "slot": "2",
        "type": "t_struct(AddressSet)1812_storage"
      },
      {
        "astId": 17635,
        "contract": "contracts/PaymentAggregator.sol:PaymentAggregator",
        "label": "closeOutNetting",
        "offset": 0,
        "slot": "4",
        "type": "t_contract(ICloseOutNetting)19824"
      },
      {
        "astId": 17637,
        "contract": "contracts/PaymentAggregator.sol:PaymentAggregator",
        "label": "markToMarket",
        "offset": 0,
        "slot": "5",
        "type": "t_contract(IMarkToMarket)22011"
      },
      {
        "astId": 17645,
        "contract": "contracts/PaymentAggregator.sol:PaymentAggregator",
        "label": "_timeSlots",
        "offset": 0,
        "slot": "6",
        "type": "t_mapping(t_bytes32,t_mapping(t_bytes32,t_mapping(t_bytes32,t_struct(Slot)31691_storage)))"
      },
      {
        "astId": 17653,
        "contract": "contracts/PaymentAggregator.sol:PaymentAggregator",
        "label": "deals",
        "offset": 0,
        "slot": "7",
        "type": "t_mapping(t_bytes32,t_mapping(t_bytes32,t_mapping(t_bytes32,t_struct(Bytes32Set)1727_storage)))"
      }
    ],
    "types": {
      "t_address": {
        "encoding": "inplace",
        "label": "address",
        "numberOfBytes": "20"
      },
      "t_array(t_bytes32)dyn_storage": {
        "base": "t_bytes32",
        "encoding": "dynamic_array",
        "label": "bytes32[]",
        "numberOfBytes": "32"
      },
      "t_bool": {
        "encoding": "inplace",
        "label": "bool",
        "numberOfBytes": "1"
      },
      "t_bytes32": {
        "encoding": "inplace",
        "label": "bytes32",
        "numberOfBytes": "32"
      },
      "t_contract(ICloseOutNetting)19824": {
        "encoding": "inplace",
        "label": "contract ICloseOutNetting",
        "numberOfBytes": "20"
      },
      "t_contract(IMarkToMarket)22011": {
        "encoding": "inplace",
        "label": "contract IMarkToMarket",
        "numberOfBytes": "20"
      },
      "t_mapping(t_bytes32,t_mapping(t_bytes32,t_mapping(t_bytes32,t_struct(Bytes32Set)1727_storage)))": {
        "encoding": "mapping",
        "key": "t_bytes32",
        "label": "mapping(bytes32 => mapping(bytes32 => mapping(bytes32 => struct EnumerableSet.Bytes32Set)))",
        "numberOfBytes": "32",
        "value": "t_mapping(t_bytes32,t_mapping(t_bytes32,t_struct(Bytes32Set)1727_storage))"
      },
      "t_mapping(t_bytes32,t_mapping(t_bytes32,t_mapping(t_bytes32,t_struct(Slot)31691_storage)))": {
        "encoding": "mapping",
        "key": "t_bytes32",
        "label": "mapping(bytes32 => mapping(bytes32 => mapping(bytes32 => struct TimeSlot.Slot)))",
        "numberOfBytes": "32",
        "value": "t_mapping(t_bytes32,t_mapping(t_bytes32,t_struct(Slot)31691_storage))"
      },
      "t_mapping(t_bytes32,t_mapping(t_bytes32,t_struct(Bytes32Set)1727_storage))": {
        "encoding": "mapping",
        "key": "t_bytes32",
        "label": "mapping(bytes32 => mapping(bytes32 => struct EnumerableSet.Bytes32Set))",
        "numberOfBytes": "32",
        "value": "t_mapping(t_bytes32,t_struct(Bytes32Set)1727_storage)"
      },
      "t_mapping(t_bytes32,t_mapping(t_bytes32,t_struct(Slot)31691_storage))": {
        "encoding": "mapping",
        "key": "t_bytes32",
        "label": "mapping(bytes32 => mapping(bytes32 => struct TimeSlot.Slot))",
        "numberOfBytes": "32",
        "value": "t_mapping(t_bytes32,t_struct(Slot)31691_storage)"
      },
      "t_mapping(t_bytes32,t_struct(Bytes32Set)1727_storage)": {
        "encoding": "mapping",
        "key": "t_bytes32",
        "label": "mapping(bytes32 => struct EnumerableSet.Bytes32Set)",
        "numberOfBytes": "32",
        "value": "t_struct(Bytes32Set)1727_storage"
      },
      "t_mapping(t_bytes32,t_struct(Slot)31691_storage)": {
        "encoding": "mapping",
        "key": "t_bytes32",
        "label": "mapping(bytes32 => struct TimeSlot.Slot)",
        "numberOfBytes": "32",
        "value": "t_struct(Slot)31691_storage"
      },
      "t_mapping(t_bytes32,t_uint256)": {
        "encoding": "mapping",
        "key": "t_bytes32",
        "label": "mapping(bytes32 => uint256)",
        "numberOfBytes": "32",
        "value": "t_uint256"
      },
      "t_struct(AddressSet)1812_storage": {
        "encoding": "inplace",
        "label": "struct EnumerableSet.AddressSet",
        "members": [
          {
            "astId": 1811,
            "contract": "contracts/PaymentAggregator.sol:PaymentAggregator",
            "label": "_inner",
            "offset": 0,
            "slot": "0",
            "type": "t_struct(Set)1547_storage"
          }
        ],
        "numberOfBytes": "64"
      },
      "t_struct(Bytes32Set)1727_storage": {
        "encoding": "inplace",
        "label": "struct EnumerableSet.Bytes32Set",
        "members": [
          {
            "astId": 1726,
            "contract": "contracts/PaymentAggregator.sol:PaymentAggregator",
            "label": "_inner",
            "offset": 0,
            "slot": "0",
            "type": "t_struct(Set)1547_storage"
          }
        ],
        "numberOfBytes": "64"
      },
      "t_struct(Set)1547_storage": {
        "encoding": "inplace",
        "label": "struct EnumerableSet.Set",
        "members": [
          {
            "astId": 1542,
            "contract": "contracts/PaymentAggregator.sol:PaymentAggregator",
            "label": "_values",
            "offset": 0,
            "slot": "0",
            "type": "t_array(t_bytes32)dyn_storage"
          },
          {
            "astId": 1546,
            "contract": "contracts/PaymentAggregator.sol:PaymentAggregator",
            "label": "_indexes",
            "offset": 0,
            "slot": "1",
            "type": "t_mapping(t_bytes32,t_uint256)"
          }
        ],
        "numberOfBytes": "64"
      },
      "t_struct(Slot)31691_storage": {
        "encoding": "inplace",
        "label": "struct TimeSlot.Slot",
        "members": [
          {
            "astId": 31678,
            "contract": "contracts/PaymentAggregator.sol:PaymentAggregator",
            "label": "totalPayment0",
            "offset": 0,
            "slot": "0",
            "type": "t_uint256"
          },
          {
            "astId": 31680,
            "contract": "contracts/PaymentAggregator.sol:PaymentAggregator",
            "label": "totalPayment1",
            "offset": 0,
            "slot": "1",
            "type": "t_uint256"
          },
          {
            "astId": 31682,
            "contract": "contracts/PaymentAggregator.sol:PaymentAggregator",
            "label": "netPayment",
            "offset": 0,
            "slot": "2",
            "type": "t_uint256"
          },
          {
            "astId": 31684,
            "contract": "contracts/PaymentAggregator.sol:PaymentAggregator",
            "label": "flipped",
            "offset": 0,
            "slot": "3",
            "type": "t_bool"
          },
          {
            "astId": 31686,
            "contract": "contracts/PaymentAggregator.sol:PaymentAggregator",
            "label": "paymentProof",
            "offset": 0,
            "slot": "4",
            "type": "t_bytes32"
          },
          {
            "astId": 31688,
            "contract": "contracts/PaymentAggregator.sol:PaymentAggregator",
            "label": "verificationParty",
            "offset": 0,
            "slot": "5",
            "type": "t_address"
          },
          {
            "astId": 31690,
            "contract": "contracts/PaymentAggregator.sol:PaymentAggregator",
            "label": "isSettled",
            "offset": 20,
            "slot": "5",
            "type": "t_bool"
          }
        ],
        "numberOfBytes": "192"
      },
      "t_uint256": {
        "encoding": "inplace",
        "label": "uint256",
        "numberOfBytes": "32"
      }
    }
  }
}