{
  "address": "0xB6AD6A3a356f208832e46aF4409e59B53287E44E",
  "abi": [
    {
      "inputs": [
        {
          "internalType": "address",
          "name": "_currencyController",
          "type": "address"
        },
        {
          "internalType": "address",
          "name": "_productAddressResolver",
          "type": "address"
        }
      ],
      "stateMutability": "nonpayable",
      "type": "constructor"
    },
    {
      "anonymous": false,
      "inputs": [
        {
          "indexed": true,
          "internalType": "address",
          "name": "oldOwner",
          "type": "address"
        },
        {
          "indexed": true,
          "internalType": "address",
          "name": "newOwner",
          "type": "address"
        }
      ],
      "name": "OwnerChanged",
      "type": "event"
    },
    {
      "anonymous": false,
      "inputs": [
        {
          "indexed": false,
          "internalType": "uint256",
          "name": "numDays",
          "type": "uint256"
        },
        {
          "indexed": false,
          "internalType": "bytes4",
          "name": "product",
          "type": "bytes4"
        },
        {
          "indexed": false,
          "internalType": "bytes32",
          "name": "_ccy",
          "type": "bytes32"
        },
        {
          "indexed": false,
          "internalType": "bool",
          "name": "isSupported",
          "type": "bool"
        }
      ],
      "name": "ProductTermSupportUpdated",
      "type": "event"
    },
    {
      "anonymous": false,
      "inputs": [
        {
          "indexed": false,
          "internalType": "uint256",
          "name": "numDays",
          "type": "uint256"
        }
      ],
      "name": "TermAdded",
      "type": "event"
    },
    {
      "anonymous": false,
      "inputs": [
        {
          "indexed": false,
          "internalType": "uint256",
          "name": "numDays",
          "type": "uint256"
        },
        {
          "indexed": false,
          "internalType": "bool",
          "name": "isSupported",
          "type": "bool"
        }
      ],
      "name": "TermSupportUpdated",
      "type": "event"
    },
    {
      "inputs": [
        {
          "internalType": "uint256",
          "name": "_numDays",
          "type": "uint256"
        }
      ],
      "name": "getDfFrac",
      "outputs": [
        {
          "internalType": "uint256",
          "name": "",
          "type": "uint256"
        }
      ],
      "stateMutability": "view",
      "type": "function"
    },
    {
      "inputs": [
        {
          "internalType": "uint256",
          "name": "_numDays",
          "type": "uint256"
        }
      ],
      "name": "getNumDays",
      "outputs": [
        {
          "internalType": "uint256",
          "name": "",
          "type": "uint256"
        }
      ],
      "stateMutability": "view",
      "type": "function"
    },
    {
      "inputs": [
        {
          "internalType": "uint256",
          "name": "_numDays",
          "type": "uint256"
        },
        {
          "internalType": "uint8",
          "name": "_frequency",
          "type": "uint8"
        }
      ],
      "name": "getNumPayments",
      "outputs": [
        {
          "internalType": "uint256",
          "name": "",
          "type": "uint256"
        }
      ],
      "stateMutability": "view",
      "type": "function"
    },
    {
      "inputs": [
        {
          "internalType": "uint256",
          "name": "_numDays",
          "type": "uint256"
        },
        {
          "internalType": "uint8",
          "name": "_frequency",
          "type": "uint8"
        }
      ],
      "name": "getTerm",
      "outputs": [
        {
          "internalType": "uint256",
          "name": "",
          "type": "uint256"
        },
        {
          "internalType": "uint256",
          "name": "",
          "type": "uint256"
        },
        {
          "internalType": "uint256",
          "name": "",
          "type": "uint256"
        }
      ],
      "stateMutability": "view",
      "type": "function"
    },
    {
      "inputs": [
        {
          "internalType": "uint256",
          "name": "_numDays",
          "type": "uint256"
        },
        {
          "internalType": "uint8",
          "name": "_frequency",
          "type": "uint8"
        }
      ],
      "name": "getTermSchedule",
      "outputs": [
        {
          "internalType": "uint256[]",
          "name": "",
          "type": "uint256[]"
        }
      ],
      "stateMutability": "view",
      "type": "function"
    },
    {
      "inputs": [
        {
          "internalType": "bytes4",
          "name": "_product",
          "type": "bytes4"
        },
        {
          "internalType": "bytes32",
          "name": "_ccy",
          "type": "bytes32"
        },
        {
          "internalType": "bool",
          "name": "sort",
          "type": "bool"
        }
      ],
      "name": "getTermsForProductAndCcy",
      "outputs": [
        {
          "internalType": "uint256[]",
          "name": "",
          "type": "uint256[]"
        }
      ],
      "stateMutability": "view",
      "type": "function"
    },
    {
      "inputs": [
        {
          "internalType": "uint256",
          "name": "_numDays",
          "type": "uint256"
        },
        {
          "internalType": "bytes4",
          "name": "_product",
          "type": "bytes4"
        },
        {
          "internalType": "bytes32",
          "name": "_ccy",
          "type": "bytes32"
        }
      ],
      "name": "isSupportedTerm",
      "outputs": [
        {
          "internalType": "bool",
          "name": "",
          "type": "bool"
        }
      ],
      "stateMutability": "view",
      "type": "function"
    },
    {
      "inputs": [],
      "name": "last_term_index",
      "outputs": [
        {
          "internalType": "uint8",
          "name": "",
          "type": "uint8"
        }
      ],
      "stateMutability": "view",
      "type": "function"
    },
    {
      "inputs": [],
      "name": "owner",
      "outputs": [
        {
          "internalType": "address",
          "name": "",
          "type": "address"
        }
      ],
      "stateMutability": "view",
      "type": "function"
    },
    {
      "inputs": [
        {
          "internalType": "address",
          "name": "_currencyController",
          "type": "address"
        }
      ],
      "name": "setCurrencyController",
      "outputs": [],
      "stateMutability": "nonpayable",
      "type": "function"
    },
    {
      "inputs": [
        {
          "internalType": "address",
          "name": "_owner",
          "type": "address"
        }
      ],
      "name": "setOwner",
      "outputs": [],
      "stateMutability": "nonpayable",
      "type": "function"
    },
    {
      "inputs": [
        {
          "internalType": "uint256",
          "name": "_numDays",
          "type": "uint256"
        },
        {
          "internalType": "bytes4[]",
          "name": "_products",
          "type": "bytes4[]"
        },
        {
          "internalType": "bytes32[]",
          "name": "_currencies",
          "type": "bytes32[]"
        }
      ],
      "name": "supportTerm",
      "outputs": [
        {
          "internalType": "bool",
          "name": "",
          "type": "bool"
        }
      ],
      "stateMutability": "nonpayable",
      "type": "function"
    },
    {
      "inputs": [
        {
          "internalType": "uint256",
          "name": "_numDays",
          "type": "uint256"
        },
        {
          "internalType": "bytes4",
          "name": "_product",
          "type": "bytes4"
        },
        {
          "internalType": "bytes32",
          "name": "_ccy",
          "type": "bytes32"
        },
        {
          "internalType": "bool",
          "name": "_isSupported",
          "type": "bool"
        }
      ],
      "name": "updateTermSupport",
      "outputs": [
        {
          "internalType": "bool",
          "name": "",
          "type": "bool"
        }
      ],
      "stateMutability": "nonpayable",
      "type": "function"
    }
  ],
  "transactionHash": "0xde176b663e370cb332c56f6dd78735966d5caaeee23259ff1f2f18b9022f8fd6",
  "args": [
    "0x8682Fa83785B7F51A14101122CCb1DCb4A247B80",
    "0x3Bb006345DA94AA05BEBD0Ec70CBe6f28A017cEe"
  ],
  "numDeployments": 1,
  "solcInputHash": "48d264388c4204a72ee447cb1af8bee3",
  "bytecode": "0x608060405234801561001057600080fd5b50604051620017c4380380620017c48339810160408190526100319161006d565b600080546001600160a01b03199081163317909155600180546001600160a01b03948516908316179055600280549290931691161790556100be565b6000806040838503121561007f578182fd5b825161008a816100a6565b602084015190925061009b816100a6565b809150509250929050565b6001600160a01b03811681146100bb57600080fd5b50565b6116f680620000ce6000396000f3fe608060405234801561001057600080fd5b50600436106100cf5760003560e01c80638b1e26a41161008c578063aec86de611610066578063aec86de6146101b3578063b1547add146101c8578063d04cad02146101db578063fd86c90c146101ee576100cf565b80638b1e26a41461016b5780638da5cb5b1461018b57806399c2e2c4146101a0576100cf565b806302ccf015146100d4578063072d3da5146100fd57806313af40351461011d57806346b0575d146101325780635cdbcd2714610145578063849d7a5014610158575b600080fd5b6100e76100e23660046111ff565b610210565b6040516100f49190611405565b60405180910390f35b61011061010b3660046112e2565b610223565b6040516100f491906113fa565b61013061012b3660046110eb565b61025a565b005b6100e76101403660046111ff565b6102fb565b610110610153366004611217565b61030d565b6100e761016636600461136e565b610410565b61017e6101793660046111be565b610425565b6040516100f491906113b6565b610193610576565b6040516100f491906113a2565b6101106101ae366004611325565b610585565b6101bb6107b4565b6040516100f49190611644565b61017e6101d636600461136e565b6107c4565b6101306101e93660046110eb565b6107d0565b6102016101fc36600461136e565b610809565b6040516100f49392919061162e565b600061021b8261085b565b90505b919050565b6001600160e01b0319821660009081526004602090815260408083208484529091528120610251818661089d565b95945050505050565b6000546001600160a01b0316331461027157600080fd5b6001600160a01b0381166102a05760405162461bcd60e51b81526004016102979061149c565b60405180910390fd5b600080546040516001600160a01b03808516939216917fb532073b38c83145e3e5135377a08bf9aab55bc0fd7c1179cd4fb995d2a5159c91a3600080546001600160a01b0319166001600160a01b0392909216919091179055565b60009081526003602052604090205490565b600080546001600160a01b0316331461032557600080fd5b6000805460ff600160a01b808304821680820260019091019092160260ff60a01b19928316179091161781558481526003602052604090208490558251156103d25760005b83518110156103d057600084828151811061038157fe5b6020026020010151905060005b84518110156103c65760008582815181106103a557fe5b602002602001015190506103bc8884836001610585565b505060010161038e565b505060010161036a565b505b7f85b976c846042e714c80a25af4c8110d83d827086708b873b3fb04ff98e52144846040516104019190611405565b60405180910390a19392505050565b600061041c83836108a9565b90505b92915050565b6001600160e01b031983166000908152600460209081526040808320858452909152812060609161045582610a65565b905060608167ffffffffffffffff8111801561047057600080fd5b5060405190808252806020026020018201604052801561049a578160200160208202803683370190505b50905060005b828110156104d75760006104b48583610a70565b9050808383815181106104c357fe5b6020908102919091010152506001016104a0565b50841561056c57604051634f64581360e11b815273eAE7Ee84269af9E9F6F68AF57eAd4f8EB495dB8d90639ec8b026906105159084906004016113b6565b60006040518083038186803b15801561052d57600080fd5b505af4158015610541573d6000803e3d6000fd5b505050506040513d6000823e601f3d908101601f191682016040526105699190810190611112565b90505b9695505050505050565b6000546001600160a01b031681565b600080546001600160a01b0316331461059d57600080fd5b600085815260036020526040902054859081146105cc5760405162461bcd60e51b815260040161029790611539565b600254604051631356c4d160e11b81526001600160a01b03909116906326ad89a2906105fc90889060040161140e565b60206040518083038186803b15801561061457600080fd5b505afa158015610628573d6000803e3d6000fd5b505050506040513d601f19601f8201168201806040525081019061064c91906111a2565b6106685760405162461bcd60e51b8152600401610297906114d3565b600154604051636a6a7b6760e11b81526001600160a01b039091169063d4d4f6ce90610698908790600401611405565b60206040518083038186803b1580156106b057600080fd5b505afa1580156106c4573d6000803e3d6000fd5b505050506040513d601f19601f820116820180604052508101906106e891906111a2565b6107045760405162461bcd60e51b81526004016102979061159b565b821561073e576001600160e01b03198516600090815260046020908152604080832087845290915290206107389087610a7c565b5061076e565b6001600160e01b031985166000908152600460209081526040808320878452909152902061076c9087610a88565b505b7f8b5c8e8024eb720a3028fc80e6a6b7a02e67c1b1d3a40d7063ac37140d3ffe59868686866040516107a39493929190611607565b60405180910390a150949350505050565b600054600160a01b900460ff1681565b606061041c8383610a94565b6000546001600160a01b031633146107e757600080fd5b600180546001600160a01b0319166001600160a01b0392909216919091179055565b600080600061081661105c565b600086815260036020526040902054815261083086610210565b602082015261083f8686610410565b6040820181905281516020909201519197919650945092505050565b600061016d821061086f575061271061021e565b61016d82101561021e57600061088761016884610e3a565b905061089561271082610e3a565b91505061021e565b600061041c8383610e6c565b6000808260ff1660048111156108bb57fe5b60048111156108c657fe5b14156109035761016d83106108e8576108e18361016d610e3a565b905061041f565b82156108f65750600161041f565b50600061041f565b61041f565b60018260ff16600481111561091457fe5b600481111561091f57fe5b14156109795761016d831061096657600061095161094a60056109448761016d610e3a565b90610e84565b8590610ebe565b905061095e8160b4610e3a565b91505061041f565b60b483106108e8576108e18360b4610e3a565b60028260ff16600481111561098a57fe5b600481111561099557fe5b14156109da5761016d83106109c75760006109ba61094a60056109448761016d610e3a565b905061095e81605a610e3a565b605a83106108e8576108e183605a610e3a565b60038260ff1660048111156109eb57fe5b60048111156109f657fe5b1415610a3b5761016d8310610a28576000610a1b61094a60056109448761016d610e3a565b905061095e81601e610e3a565b601e83106108e8576108e183601e610e3a565b60048260ff166004811115610a4c57fe5b6004811115610a5757fe5b141561041f5750600161041f565b600061021b82610ee6565b600061041c8383610eea565b600061041c8383610f2f565b600061041c8383610f71565b606060008260ff166004811115610aa757fe5b6004811115610ab257fe5b1415610bc15761016d8310610b67576000610acf8461016d610e3a565b905060608167ffffffffffffffff81118015610aea57600080fd5b50604051908082528060200260200182016040528015610b14578160200160208202803683370190505b50905060005b82811015610b5d576000610b2f826001611037565b9050610b3d8161016d610e84565b838381518110610b4957fe5b602090810291909101015250600101610b1a565b50915061041f9050565b82156108fe576060600160005b50604051908082528060200260200182016040528015610b9e578160200160208202803683370190505b5090508381600081518110610baf57fe5b6020908102919091010152905061041f565b60018260ff166004811115610bd257fe5b6004811115610bdd57fe5b1415610c855760b48310610b67576000610bf88460b4610e3a565b905060608167ffffffffffffffff81118015610c1357600080fd5b50604051908082528060200260200182016040528015610c3d578160200160208202803683370190505b50905060005b82811015610b5d576000610c58826001611037565b9050610c658160b4610e84565b838381518110610c7157fe5b602090810291909101015250600101610c43565b60028260ff166004811115610c9657fe5b6004811115610ca157fe5b1415610d4957605a8310610b67576000610cbc84605a610e3a565b905060608167ffffffffffffffff81118015610cd757600080fd5b50604051908082528060200260200182016040528015610d01578160200160208202803683370190505b50905060005b82811015610b5d576000610d1c826001611037565b9050610d2981605a610e84565b838381518110610d3557fe5b602090810291909101015250600101610d07565b60038260ff166004811115610d5a57fe5b6004811115610d6557fe5b1415610e0d57601e8310610b67576000610d8084601e610e3a565b905060608167ffffffffffffffff81118015610d9b57600080fd5b50604051908082528060200260200182016040528015610dc5578160200160208202803683370190505b50905060005b82811015610b5d576000610de0826001611037565b9050610ded81601e610e84565b838381518110610df957fe5b602090810291909101015250600101610dcb565b60048260ff166004811115610e1e57fe5b6004811115610e2957fe5b141561041f57606060016000610b74565b6000808211610e5b5760405162461bcd60e51b815260040161029790611564565b818381610e6457fe5b049392505050565b60009081526001919091016020526040902054151590565b600082610e935750600061041f565b82820282848281610ea057fe5b041461041c5760405162461bcd60e51b8152600401610297906115c6565b600082821115610ee05760405162461bcd60e51b815260040161029790611502565b50900390565b5490565b81546000908210610f0d5760405162461bcd60e51b815260040161029790611423565b826000018281548110610f1c57fe5b9060005260206000200154905092915050565b6000610f3b8383610e6c565b6108f65750815460018181018455600084815260208082209093018490558454848252828601909352604090209190915561041f565b6000818152600183016020526040812054801561102d5783546000198083019190810190600090879083908110610fa457fe5b9060005260206000200154905080876000018481548110610fc157fe5b600091825260208083209091019290925582815260018981019092526040902090840190558654879080610ff157fe5b6001900381819060005260206000200160009055905586600101600087815260200190815260200160002060009055600194505050505061041f565b600091505061041f565b60008282018381101561041c5760405162461bcd60e51b815260040161029790611465565b60405180606001604052806000815260200160008152602001600081525090565b600082601f83011261108d578081fd5b81356110a061109b82611679565b611652565b8181529150602080830190848101818402860182018710156110c157600080fd5b60005b848110156110e0578135845292820192908201906001016110c4565b505050505092915050565b6000602082840312156110fc578081fd5b81356001600160a01b038116811461041c578182fd5b60006020808385031215611124578182fd5b825167ffffffffffffffff81111561113a578283fd5b8301601f8101851361114a578283fd5b805161115861109b82611679565b8181528381019083850185840285018601891015611174578687fd5b8694505b83851015611196578051835260019490940193918501918501611178565b50979650505050505050565b6000602082840312156111b3578081fd5b815161041c81611699565b6000806000606084860312156111d2578182fd5b83356111dd816116aa565b92506020840135915060408401356111f481611699565b809150509250925092565b600060208284031215611210578081fd5b5035919050565b60008060006060848603121561122b578283fd5b8335925060208085013567ffffffffffffffff8082111561124a578485fd5b818701915087601f83011261125d578485fd5b813561126b61109b82611679565b81815284810190848601868402860187018c1015611287578889fd5b8895505b838610156112b257803561129e816116aa565b83526001959095019491860191860161128b565b509650505060408701359250808311156112ca578384fd5b50506112d88682870161107d565b9150509250925092565b6000806000606084860312156112f6578283fd5b8335925060208401356001600160e01b031981168114611314578283fd5b929592945050506040919091013590565b6000806000806080858703121561133a578081fd5b84359350602085013561134c816116aa565b925060408501359150606085013561136381611699565b939692955090935050565b60008060408385031215611380578182fd5b82359150602083013560ff81168114611397578182fd5b809150509250929050565b6001600160a01b0391909116815260200190565b6020808252825182820181905260009190848201906040850190845b818110156113ee578351835292840192918401916001016113d2565b50909695505050505050565b901515815260200190565b90815260200190565b6001600160e01b031991909116815260200190565b60208082526022908201527f456e756d657261626c655365743a20696e646578206f7574206f6620626f756e604082015261647360f01b606082015260800190565b6020808252601b908201527f536166654d6174683a206164646974696f6e206f766572666c6f770000000000604082015260600190565b6020808252601d908201527f6e6577206f776e657220697320746865207a65726f2061646472657373000000604082015260600190565b6020808252601590820152741393d38814d5541413d495115108141493d11550d5605a1b604082015260600190565b6020808252601e908201527f536166654d6174683a207375627472616374696f6e206f766572666c6f770000604082015260600190565b6020808252601190820152704e4f4e204558495354494e47205445524d60781b604082015260600190565b6020808252601a908201527f536166654d6174683a206469766973696f6e206279207a65726f000000000000604082015260600190565b6020808252601190820152704e4f4e20535550504f525445442043435960781b604082015260600190565b60208082526021908201527f536166654d6174683a206d756c7469706c69636174696f6e206f766572666c6f6040820152607760f81b606082015260800190565b9384526001600160e01b031992909216602084015260408301521515606082015260800190565b9283526020830191909152604082015260600190565b60ff91909116815260200190565b60405181810167ffffffffffffffff8111828210171561167157600080fd5b604052919050565b600067ffffffffffffffff82111561168f578081fd5b5060209081020190565b80151581146116a757600080fd5b50565b6001600160e01b0319811681146116a757600080fdfea2646970667358221220c82fac9471748941a68758d621ebb21f48e157e6fb2f411cee21c6530ee8f8dc64736f6c634300060c0033",
  "deployedBytecode": "0x608060405234801561001057600080fd5b50600436106100cf5760003560e01c80638b1e26a41161008c578063aec86de611610066578063aec86de6146101b3578063b1547add146101c8578063d04cad02146101db578063fd86c90c146101ee576100cf565b80638b1e26a41461016b5780638da5cb5b1461018b57806399c2e2c4146101a0576100cf565b806302ccf015146100d4578063072d3da5146100fd57806313af40351461011d57806346b0575d146101325780635cdbcd2714610145578063849d7a5014610158575b600080fd5b6100e76100e23660046111ff565b610210565b6040516100f49190611405565b60405180910390f35b61011061010b3660046112e2565b610223565b6040516100f491906113fa565b61013061012b3660046110eb565b61025a565b005b6100e76101403660046111ff565b6102fb565b610110610153366004611217565b61030d565b6100e761016636600461136e565b610410565b61017e6101793660046111be565b610425565b6040516100f491906113b6565b610193610576565b6040516100f491906113a2565b6101106101ae366004611325565b610585565b6101bb6107b4565b6040516100f49190611644565b61017e6101d636600461136e565b6107c4565b6101306101e93660046110eb565b6107d0565b6102016101fc36600461136e565b610809565b6040516100f49392919061162e565b600061021b8261085b565b90505b919050565b6001600160e01b0319821660009081526004602090815260408083208484529091528120610251818661089d565b95945050505050565b6000546001600160a01b0316331461027157600080fd5b6001600160a01b0381166102a05760405162461bcd60e51b81526004016102979061149c565b60405180910390fd5b600080546040516001600160a01b03808516939216917fb532073b38c83145e3e5135377a08bf9aab55bc0fd7c1179cd4fb995d2a5159c91a3600080546001600160a01b0319166001600160a01b0392909216919091179055565b60009081526003602052604090205490565b600080546001600160a01b0316331461032557600080fd5b6000805460ff600160a01b808304821680820260019091019092160260ff60a01b19928316179091161781558481526003602052604090208490558251156103d25760005b83518110156103d057600084828151811061038157fe5b6020026020010151905060005b84518110156103c65760008582815181106103a557fe5b602002602001015190506103bc8884836001610585565b505060010161038e565b505060010161036a565b505b7f85b976c846042e714c80a25af4c8110d83d827086708b873b3fb04ff98e52144846040516104019190611405565b60405180910390a19392505050565b600061041c83836108a9565b90505b92915050565b6001600160e01b031983166000908152600460209081526040808320858452909152812060609161045582610a65565b905060608167ffffffffffffffff8111801561047057600080fd5b5060405190808252806020026020018201604052801561049a578160200160208202803683370190505b50905060005b828110156104d75760006104b48583610a70565b9050808383815181106104c357fe5b6020908102919091010152506001016104a0565b50841561056c57604051634f64581360e11b815273__$69df8f3ef0941d5dac5ad52c193381be4b$__90639ec8b026906105159084906004016113b6565b60006040518083038186803b15801561052d57600080fd5b505af4158015610541573d6000803e3d6000fd5b505050506040513d6000823e601f3d908101601f191682016040526105699190810190611112565b90505b9695505050505050565b6000546001600160a01b031681565b600080546001600160a01b0316331461059d57600080fd5b600085815260036020526040902054859081146105cc5760405162461bcd60e51b815260040161029790611539565b600254604051631356c4d160e11b81526001600160a01b03909116906326ad89a2906105fc90889060040161140e565b60206040518083038186803b15801561061457600080fd5b505afa158015610628573d6000803e3d6000fd5b505050506040513d601f19601f8201168201806040525081019061064c91906111a2565b6106685760405162461bcd60e51b8152600401610297906114d3565b600154604051636a6a7b6760e11b81526001600160a01b039091169063d4d4f6ce90610698908790600401611405565b60206040518083038186803b1580156106b057600080fd5b505afa1580156106c4573d6000803e3d6000fd5b505050506040513d601f19601f820116820180604052508101906106e891906111a2565b6107045760405162461bcd60e51b81526004016102979061159b565b821561073e576001600160e01b03198516600090815260046020908152604080832087845290915290206107389087610a7c565b5061076e565b6001600160e01b031985166000908152600460209081526040808320878452909152902061076c9087610a88565b505b7f8b5c8e8024eb720a3028fc80e6a6b7a02e67c1b1d3a40d7063ac37140d3ffe59868686866040516107a39493929190611607565b60405180910390a150949350505050565b600054600160a01b900460ff1681565b606061041c8383610a94565b6000546001600160a01b031633146107e757600080fd5b600180546001600160a01b0319166001600160a01b0392909216919091179055565b600080600061081661105c565b600086815260036020526040902054815261083086610210565b602082015261083f8686610410565b6040820181905281516020909201519197919650945092505050565b600061016d821061086f575061271061021e565b61016d82101561021e57600061088761016884610e3a565b905061089561271082610e3a565b91505061021e565b600061041c8383610e6c565b6000808260ff1660048111156108bb57fe5b60048111156108c657fe5b14156109035761016d83106108e8576108e18361016d610e3a565b905061041f565b82156108f65750600161041f565b50600061041f565b61041f565b60018260ff16600481111561091457fe5b600481111561091f57fe5b14156109795761016d831061096657600061095161094a60056109448761016d610e3a565b90610e84565b8590610ebe565b905061095e8160b4610e3a565b91505061041f565b60b483106108e8576108e18360b4610e3a565b60028260ff16600481111561098a57fe5b600481111561099557fe5b14156109da5761016d83106109c75760006109ba61094a60056109448761016d610e3a565b905061095e81605a610e3a565b605a83106108e8576108e183605a610e3a565b60038260ff1660048111156109eb57fe5b60048111156109f657fe5b1415610a3b5761016d8310610a28576000610a1b61094a60056109448761016d610e3a565b905061095e81601e610e3a565b601e83106108e8576108e183601e610e3a565b60048260ff166004811115610a4c57fe5b6004811115610a5757fe5b141561041f5750600161041f565b600061021b82610ee6565b600061041c8383610eea565b600061041c8383610f2f565b600061041c8383610f71565b606060008260ff166004811115610aa757fe5b6004811115610ab257fe5b1415610bc15761016d8310610b67576000610acf8461016d610e3a565b905060608167ffffffffffffffff81118015610aea57600080fd5b50604051908082528060200260200182016040528015610b14578160200160208202803683370190505b50905060005b82811015610b5d576000610b2f826001611037565b9050610b3d8161016d610e84565b838381518110610b4957fe5b602090810291909101015250600101610b1a565b50915061041f9050565b82156108fe576060600160005b50604051908082528060200260200182016040528015610b9e578160200160208202803683370190505b5090508381600081518110610baf57fe5b6020908102919091010152905061041f565b60018260ff166004811115610bd257fe5b6004811115610bdd57fe5b1415610c855760b48310610b67576000610bf88460b4610e3a565b905060608167ffffffffffffffff81118015610c1357600080fd5b50604051908082528060200260200182016040528015610c3d578160200160208202803683370190505b50905060005b82811015610b5d576000610c58826001611037565b9050610c658160b4610e84565b838381518110610c7157fe5b602090810291909101015250600101610c43565b60028260ff166004811115610c9657fe5b6004811115610ca157fe5b1415610d4957605a8310610b67576000610cbc84605a610e3a565b905060608167ffffffffffffffff81118015610cd757600080fd5b50604051908082528060200260200182016040528015610d01578160200160208202803683370190505b50905060005b82811015610b5d576000610d1c826001611037565b9050610d2981605a610e84565b838381518110610d3557fe5b602090810291909101015250600101610d07565b60038260ff166004811115610d5a57fe5b6004811115610d6557fe5b1415610e0d57601e8310610b67576000610d8084601e610e3a565b905060608167ffffffffffffffff81118015610d9b57600080fd5b50604051908082528060200260200182016040528015610dc5578160200160208202803683370190505b50905060005b82811015610b5d576000610de0826001611037565b9050610ded81601e610e84565b838381518110610df957fe5b602090810291909101015250600101610dcb565b60048260ff166004811115610e1e57fe5b6004811115610e2957fe5b141561041f57606060016000610b74565b6000808211610e5b5760405162461bcd60e51b815260040161029790611564565b818381610e6457fe5b049392505050565b60009081526001919091016020526040902054151590565b600082610e935750600061041f565b82820282848281610ea057fe5b041461041c5760405162461bcd60e51b8152600401610297906115c6565b600082821115610ee05760405162461bcd60e51b815260040161029790611502565b50900390565b5490565b81546000908210610f0d5760405162461bcd60e51b815260040161029790611423565b826000018281548110610f1c57fe5b9060005260206000200154905092915050565b6000610f3b8383610e6c565b6108f65750815460018181018455600084815260208082209093018490558454848252828601909352604090209190915561041f565b6000818152600183016020526040812054801561102d5783546000198083019190810190600090879083908110610fa457fe5b9060005260206000200154905080876000018481548110610fc157fe5b600091825260208083209091019290925582815260018981019092526040902090840190558654879080610ff157fe5b6001900381819060005260206000200160009055905586600101600087815260200190815260200160002060009055600194505050505061041f565b600091505061041f565b60008282018381101561041c5760405162461bcd60e51b815260040161029790611465565b60405180606001604052806000815260200160008152602001600081525090565b600082601f83011261108d578081fd5b81356110a061109b82611679565b611652565b8181529150602080830190848101818402860182018710156110c157600080fd5b60005b848110156110e0578135845292820192908201906001016110c4565b505050505092915050565b6000602082840312156110fc578081fd5b81356001600160a01b038116811461041c578182fd5b60006020808385031215611124578182fd5b825167ffffffffffffffff81111561113a578283fd5b8301601f8101851361114a578283fd5b805161115861109b82611679565b8181528381019083850185840285018601891015611174578687fd5b8694505b83851015611196578051835260019490940193918501918501611178565b50979650505050505050565b6000602082840312156111b3578081fd5b815161041c81611699565b6000806000606084860312156111d2578182fd5b83356111dd816116aa565b92506020840135915060408401356111f481611699565b809150509250925092565b600060208284031215611210578081fd5b5035919050565b60008060006060848603121561122b578283fd5b8335925060208085013567ffffffffffffffff8082111561124a578485fd5b818701915087601f83011261125d578485fd5b813561126b61109b82611679565b81815284810190848601868402860187018c1015611287578889fd5b8895505b838610156112b257803561129e816116aa565b83526001959095019491860191860161128b565b509650505060408701359250808311156112ca578384fd5b50506112d88682870161107d565b9150509250925092565b6000806000606084860312156112f6578283fd5b8335925060208401356001600160e01b031981168114611314578283fd5b929592945050506040919091013590565b6000806000806080858703121561133a578081fd5b84359350602085013561134c816116aa565b925060408501359150606085013561136381611699565b939692955090935050565b60008060408385031215611380578182fd5b82359150602083013560ff81168114611397578182fd5b809150509250929050565b6001600160a01b0391909116815260200190565b6020808252825182820181905260009190848201906040850190845b818110156113ee578351835292840192918401916001016113d2565b50909695505050505050565b901515815260200190565b90815260200190565b6001600160e01b031991909116815260200190565b60208082526022908201527f456e756d657261626c655365743a20696e646578206f7574206f6620626f756e604082015261647360f01b606082015260800190565b6020808252601b908201527f536166654d6174683a206164646974696f6e206f766572666c6f770000000000604082015260600190565b6020808252601d908201527f6e6577206f776e657220697320746865207a65726f2061646472657373000000604082015260600190565b6020808252601590820152741393d38814d5541413d495115108141493d11550d5605a1b604082015260600190565b6020808252601e908201527f536166654d6174683a207375627472616374696f6e206f766572666c6f770000604082015260600190565b6020808252601190820152704e4f4e204558495354494e47205445524d60781b604082015260600190565b6020808252601a908201527f536166654d6174683a206469766973696f6e206279207a65726f000000000000604082015260600190565b6020808252601190820152704e4f4e20535550504f525445442043435960781b604082015260600190565b60208082526021908201527f536166654d6174683a206d756c7469706c69636174696f6e206f766572666c6f6040820152607760f81b606082015260800190565b9384526001600160e01b031992909216602084015260408301521515606082015260800190565b9283526020830191909152604082015260600190565b60ff91909116815260200190565b60405181810167ffffffffffffffff8111828210171561167157600080fd5b604052919050565b600067ffffffffffffffff82111561168f578081fd5b5060209081020190565b80151581146116a757600080fd5b50565b6001600160e01b0319811681146116a757600080fdfea2646970667358221220c82fac9471748941a68758d621ebb21f48e157e6fb2f411cee21c6530ee8f8dc64736f6c634300060c0033",
  "libraries": {
    "QuickSort": "0xeAE7Ee84269af9E9F6F68AF57eAd4f8EB495dB8d"
  },
  "devdoc": {
    "details": "Term Structure contract is responsible for managing supported terms in Secured Finance Protocol per product and currency",
    "kind": "dev",
    "methods": {
      "constructor": {
        "details": "Term Structure Constructor."
      },
      "getDfFrac(uint256)": {
        "details": "Triggers to get discount factor fractions.",
        "params": {
          "_numDays": "Number of days in term"
        }
      },
      "getNumDays(uint256)": {
        "details": "Triggers to get number of days for supported term. number of days follows ACT365 market convention",
        "params": {
          "_numDays": "Number of days in term"
        }
      },
      "getNumPayments(uint256,uint8)": {
        "details": "Triggers to get number of coupon payments.",
        "params": {
          "_frequency": "Payment frequency (like annual, semi-annual, etc.)",
          "_numDays": "Number of days in term"
        }
      },
      "getTerm(uint256,uint8)": {
        "details": "Triggers to get term structure.",
        "params": {
          "_numDays": "Number of days in term"
        }
      },
      "getTermSchedule(uint256,uint8)": {
        "details": "Triggers to get payment schedule for supported term according to the payment frequency number of days follows ACT365 market convention",
        "params": {
          "_frequency": "Payment frequency (like annual, semi-annual, etc.)",
          "_numDays": "Number of days in term"
        }
      },
      "getTermsForProductAndCcy(bytes4,bytes32,bool)": {
        "details": "Returns an array of supported terms for a specific product and currency",
        "params": {
          "_ccy": "Currency short identifier",
          "_product": "Product prefix"
        }
      },
      "isSupportedTerm(uint256,bytes4,bytes32)": {
        "details": "Triggers to get if specified term is supported for a particular ccy and product.",
        "params": {
          "_ccy": "Currency short identifier",
          "_numDays": "Number of days in term",
          "_product": "Product prefix"
        }
      },
      "setCurrencyController(address)": {
        "details": "Triggers to link with Currency Controller contract.",
        "params": {
          "_currencyController": "CurrencyController smart contract address"
        }
      },
      "setOwner(address)": {
        "details": "Sets owner of the controller market.",
        "params": {
          "_owner": "Address of new owner"
        }
      },
      "supportTerm(uint256,bytes4[],bytes32[])": {
        "details": "Triggers to add new term into the protocol",
        "params": {
          "_currencies": "Array of currencies supporting this term",
          "_numDays": "Number of calendar days in a term",
          "_products": "Array of products supporting this term"
        }
      },
      "updateTermSupport(uint256,bytes4,bytes32,bool)": {
        "details": "Triggers to update product and currency support for term",
        "params": {
          "_ccy": "Currency short identifier",
          "_isSupported": "Boolean whether term supported for specified `_product` and `_ccy`",
          "_numDays": "Number of days in term",
          "_product": "Product prefix"
        }
      }
    },
    "version": 1
  },
  "userdoc": {
    "kind": "user",
    "methods": {
      "setCurrencyController(address)": {
        "notice": "Executed only by contract owner"
      }
    },
    "version": 1
  },
  "storageLayout": {
    "storage": [
      {
        "astId": 19215,
        "contract": "contracts/TermStructure.sol:TermStructure",
        "label": "owner",
        "offset": 0,
        "slot": "0",
        "type": "t_address"
      },
      {
        "astId": 19218,
        "contract": "contracts/TermStructure.sol:TermStructure",
        "label": "last_term_index",
        "offset": 20,
        "slot": "0",
        "type": "t_uint8"
      },
      {
        "astId": 19220,
        "contract": "contracts/TermStructure.sol:TermStructure",
        "label": "currencyController",
        "offset": 0,
        "slot": "1",
        "type": "t_contract(ICurrencyController)21317"
      },
      {
        "astId": 19222,
        "contract": "contracts/TermStructure.sol:TermStructure",
        "label": "productResolver",
        "offset": 0,
        "slot": "2",
        "type": "t_contract(IProductAddressResolver)22478"
      },
      {
        "astId": 19233,
        "contract": "contracts/TermStructure.sol:TermStructure",
        "label": "terms",
        "offset": 0,
        "slot": "3",
        "type": "t_mapping(t_uint256,t_uint256)"
      },
      {
        "astId": 19239,
        "contract": "contracts/TermStructure.sol:TermStructure",
        "label": "termsForProductAndCcy",
        "offset": 0,
        "slot": "4",
        "type": "t_mapping(t_bytes4,t_mapping(t_bytes32,t_struct(UintSet)1933_storage))"
      }
    ],
    "types": {
      "t_address": {
        "encoding": "inplace",
        "label": "address",
        "numberOfBytes": "20"
      },
      "t_array(t_bytes32)dyn_storage": {
        "base": "t_bytes32",
        "encoding": "dynamic_array",
        "label": "bytes32[]",
        "numberOfBytes": "32"
      },
      "t_bytes32": {
        "encoding": "inplace",
        "label": "bytes32",
        "numberOfBytes": "32"
      },
      "t_bytes4": {
        "encoding": "inplace",
        "label": "bytes4",
        "numberOfBytes": "4"
      },
      "t_contract(ICurrencyController)21317": {
        "encoding": "inplace",
        "label": "contract ICurrencyController",
        "numberOfBytes": "20"
      },
      "t_contract(IProductAddressResolver)22478": {
        "encoding": "inplace",
        "label": "contract IProductAddressResolver",
        "numberOfBytes": "20"
      },
      "t_mapping(t_bytes32,t_struct(UintSet)1933_storage)": {
        "encoding": "mapping",
        "key": "t_bytes32",
        "label": "mapping(bytes32 => struct EnumerableSet.UintSet)",
        "numberOfBytes": "32",
        "value": "t_struct(UintSet)1933_storage"
      },
      "t_mapping(t_bytes32,t_uint256)": {
        "encoding": "mapping",
        "key": "t_bytes32",
        "label": "mapping(bytes32 => uint256)",
        "numberOfBytes": "32",
        "value": "t_uint256"
      },
      "t_mapping(t_bytes4,t_mapping(t_bytes32,t_struct(UintSet)1933_storage))": {
        "encoding": "mapping",
        "key": "t_bytes4",
        "label": "mapping(bytes4 => mapping(bytes32 => struct EnumerableSet.UintSet))",
        "numberOfBytes": "32",
        "value": "t_mapping(t_bytes32,t_struct(UintSet)1933_storage)"
      },
      "t_mapping(t_uint256,t_uint256)": {
        "encoding": "mapping",
        "key": "t_uint256",
        "label": "mapping(uint256 => uint256)",
        "numberOfBytes": "32",
        "value": "t_uint256"
      },
      "t_struct(Set)1547_storage": {
        "encoding": "inplace",
        "label": "struct EnumerableSet.Set",
        "members": [
          {
            "astId": 1542,
            "contract": "contracts/TermStructure.sol:TermStructure",
            "label": "_values",
            "offset": 0,
            "slot": "0",
            "type": "t_array(t_bytes32)dyn_storage"
          },
          {
            "astId": 1546,
            "contract": "contracts/TermStructure.sol:TermStructure",
            "label": "_indexes",
            "offset": 0,
            "slot": "1",
            "type": "t_mapping(t_bytes32,t_uint256)"
          }
        ],
        "numberOfBytes": "64"
      },
      "t_struct(UintSet)1933_storage": {
        "encoding": "inplace",
        "label": "struct EnumerableSet.UintSet",
        "members": [
          {
            "astId": 1932,
            "contract": "contracts/TermStructure.sol:TermStructure",
            "label": "_inner",
            "offset": 0,
            "slot": "0",
            "type": "t_struct(Set)1547_storage"
          }
        ],
        "numberOfBytes": "64"
      },
      "t_uint256": {
        "encoding": "inplace",
        "label": "uint256",
        "numberOfBytes": "32"
      },
      "t_uint8": {
        "encoding": "inplace",
        "label": "uint8",
        "numberOfBytes": "1"
      }
    }
  }
}