{
  "address": "0x8a7f362cE3c1Dbf1Dae50B3350A6cAc84c19CAad",
  "abi": [
    {
      "inputs": [],
      "name": "InvalidProxyContract",
      "type": "error"
    },
    {
      "inputs": [
        {
          "internalType": "string",
          "name": "name",
          "type": "string"
        }
      ],
      "name": "MissingAddress",
      "type": "error"
    },
    {
      "inputs": [],
      "name": "NoBeaconProxyContract",
      "type": "error"
    },
    {
      "inputs": [
        {
          "internalType": "string",
          "name": "name",
          "type": "string"
        }
      ],
      "name": "OnlyAcceptedContract",
      "type": "error"
    },
    {
      "inputs": [],
      "name": "ResolverAlreadyRegistered",
      "type": "error"
    },
    {
      "anonymous": false,
      "inputs": [
        {
          "indexed": true,
          "internalType": "bytes32",
          "name": "id",
          "type": "bytes32"
        },
        {
          "indexed": true,
          "internalType": "address",
          "name": "proxyAddress",
          "type": "address"
        },
        {
          "indexed": true,
          "internalType": "address",
          "name": "newImplementationAddress",
          "type": "address"
        },
        {
          "indexed": false,
          "internalType": "address",
          "name": "oldImplementationAddress",
          "type": "address"
        }
      ],
      "name": "BeaconProxyUpdated",
      "type": "event"
    },
    {
      "anonymous": false,
      "inputs": [
        {
          "indexed": false,
          "internalType": "bytes32",
          "name": "name",
          "type": "bytes32"
        },
        {
          "indexed": false,
          "internalType": "address",
          "name": "destination",
          "type": "address"
        }
      ],
      "name": "CacheUpdated",
      "type": "event"
    },
    {
      "anonymous": false,
      "inputs": [
        {
          "indexed": false,
          "internalType": "uint8",
          "name": "version",
          "type": "uint8"
        }
      ],
      "name": "Initialized",
      "type": "event"
    },
    {
      "anonymous": false,
      "inputs": [
        {
          "indexed": true,
          "internalType": "address",
          "name": "previousOwner",
          "type": "address"
        },
        {
          "indexed": true,
          "internalType": "address",
          "name": "newOwner",
          "type": "address"
        }
      ],
      "name": "OwnershipTransferred",
      "type": "event"
    },
    {
      "inputs": [],
      "name": "buildCache",
      "outputs": [],
      "stateMutability": "nonpayable",
      "type": "function"
    },
    {
      "inputs": [
        {
          "internalType": "address",
          "name": "newAdmin",
          "type": "address"
        },
        {
          "internalType": "address[]",
          "name": "destinations",
          "type": "address[]"
        }
      ],
      "name": "changeBeaconProxyAdmins",
      "outputs": [],
      "stateMutability": "nonpayable",
      "type": "function"
    },
    {
      "inputs": [],
      "name": "deployFutureValueVault",
      "outputs": [
        {
          "internalType": "address",
          "name": "futureValue",
          "type": "address"
        }
      ],
      "stateMutability": "nonpayable",
      "type": "function"
    },
    {
      "inputs": [
        {
          "internalType": "bytes32",
          "name": "_ccy",
          "type": "bytes32"
        },
        {
          "internalType": "uint256",
          "name": "_orderFeeRate",
          "type": "uint256"
        },
        {
          "internalType": "uint256",
          "name": "_cbLimitRange",
          "type": "uint256"
        }
      ],
      "name": "deployLendingMarket",
      "outputs": [
        {
          "internalType": "address",
          "name": "market",
          "type": "address"
        }
      ],
      "stateMutability": "nonpayable",
      "type": "function"
    },
    {
      "inputs": [
        {
          "internalType": "string",
          "name": "_name",
          "type": "string"
        },
        {
          "internalType": "string",
          "name": "_symbol",
          "type": "string"
        },
        {
          "internalType": "uint8",
          "name": "_decimals",
          "type": "uint8"
        },
        {
          "internalType": "address",
          "name": "_asset",
          "type": "address"
        },
        {
          "internalType": "uint256",
          "name": "_maturity",
          "type": "uint256"
        }
      ],
      "name": "deployZCToken",
      "outputs": [
        {
          "internalType": "address",
          "name": "futureValueToken",
          "type": "address"
        }
      ],
      "stateMutability": "nonpayable",
      "type": "function"
    },
    {
      "inputs": [
        {
          "internalType": "bytes32",
          "name": "beaconName",
          "type": "bytes32"
        }
      ],
      "name": "getBeaconProxyAddress",
      "outputs": [
        {
          "internalType": "address",
          "name": "beaconProxyAddress",
          "type": "address"
        }
      ],
      "stateMutability": "view",
      "type": "function"
    },
    {
      "inputs": [],
      "name": "getRevision",
      "outputs": [
        {
          "internalType": "uint256",
          "name": "",
          "type": "uint256"
        }
      ],
      "stateMutability": "pure",
      "type": "function"
    },
    {
      "inputs": [
        {
          "internalType": "address",
          "name": "_owner",
          "type": "address"
        },
        {
          "internalType": "address",
          "name": "_resolver",
          "type": "address"
        }
      ],
      "name": "initialize",
      "outputs": [],
      "stateMutability": "nonpayable",
      "type": "function"
    },
    {
      "inputs": [],
      "name": "isResolverCached",
      "outputs": [
        {
          "internalType": "bool",
          "name": "",
          "type": "bool"
        }
      ],
      "stateMutability": "view",
      "type": "function"
    },
    {
      "inputs": [
        {
          "internalType": "bytes[]",
          "name": "data",
          "type": "bytes[]"
        }
      ],
      "name": "multicall",
      "outputs": [
        {
          "internalType": "bytes[]",
          "name": "results",
          "type": "bytes[]"
        }
      ],
      "stateMutability": "nonpayable",
      "type": "function"
    },
    {
      "inputs": [],
      "name": "owner",
      "outputs": [
        {
          "internalType": "address",
          "name": "",
          "type": "address"
        }
      ],
      "stateMutability": "view",
      "type": "function"
    },
    {
      "inputs": [],
      "name": "renounceOwnership",
      "outputs": [],
      "stateMutability": "nonpayable",
      "type": "function"
    },
    {
      "inputs": [],
      "name": "requiredContracts",
      "outputs": [
        {
          "internalType": "bytes32[]",
          "name": "contracts",
          "type": "bytes32[]"
        }
      ],
      "stateMutability": "pure",
      "type": "function"
    },
    {
      "inputs": [],
      "name": "resolver",
      "outputs": [
        {
          "internalType": "contract IAddressResolver",
          "name": "",
          "type": "address"
        }
      ],
      "stateMutability": "view",
      "type": "function"
    },
    {
      "inputs": [
        {
          "internalType": "address",
          "name": "newImpl",
          "type": "address"
        }
      ],
      "name": "setFutureValueVaultImpl",
      "outputs": [],
      "stateMutability": "nonpayable",
      "type": "function"
    },
    {
      "inputs": [
        {
          "internalType": "address",
          "name": "newImpl",
          "type": "address"
        }
      ],
      "name": "setLendingMarketImpl",
      "outputs": [],
      "stateMutability": "nonpayable",
      "type": "function"
    },
    {
      "inputs": [
        {
          "internalType": "address",
          "name": "newImpl",
          "type": "address"
        }
      ],
      "name": "setZCTokenImpl",
      "outputs": [],
      "stateMutability": "nonpayable",
      "type": "function"
    },
    {
      "inputs": [
        {
          "internalType": "address",
          "name": "newOwner",
          "type": "address"
        }
      ],
      "name": "transferOwnership",
      "outputs": [],
      "stateMutability": "nonpayable",
      "type": "function"
    }
  ],
  "transactionHash": "0xe73787e56ea2e25c9c298454893165309a14749b7d814a5cdecc8d0af2a70fb5",
  "args": [],
  "numDeployments": 2,
  "solcInputHash": "f3aa1cfa8e4de6a118da5c4500d93b3f",
  "bytecode": "0x608060405234801561001057600080fd5b50612c97806100206000396000f3fe60806040523480156200001157600080fd5b50600436106200012d5760003560e01c8063715018a611620000af578063a97c4b53116200007a578063a97c4b531462000247578063ac9650d81462000251578063e03b525b1462000277578063f2fde38b146200028e578063f541c92a14620002a557600080fd5b8063715018a614620002055780637c35befe146200020f5780638077959214620002265780638da5cb5b146200023d57600080fd5b80632af64bd311620000fc5780632af64bd3146200018c5780633d03b9da14620001a75780634672758f14620001c0578063485cc95514620001d75780636bce0a2a14620001ee57600080fd5b806304707844146200013257806304f3bcec146200014b5780631316529d146200017257806329985e5a1462000182575b600080fd5b6200014962000143366004620014d0565b620002bc565b005b6200015562000319565b6040516001600160a01b0390911681526020015b60405180910390f35b6040516001815260200162000169565b6200014962000334565b62000196620004bf565b604051901515815260200162000169565b620001b162000605565b604051620001699190620014f0565b62000155620001d136600462001536565b62000667565b62000149620001e836600462001563565b6200072f565b62000149620001ff366004620015f0565b620008c6565b62000149620009b2565b6200015562000220366004620016f6565b620009f4565b620001556200023736600462001797565b62000aa9565b6200015562000b92565b6200015562000b9e565b6200026862000262366004620017b1565b62000c51565b6040516200016991906200184b565b6200014962000288366004620014d0565b62000d5a565b620001496200029f366004620014d0565b62000da4565b62000149620002b6366004620014d0565b62000e4d565b33620002c762000b92565b6001600160a01b031614620002f95760405162461bcd60e51b8152600401620002f090620018b1565b60405180910390fd5b620003156c13195b991a5b99d3585c9ad95d609a1b8262000e9b565b5050565b60006200032562001095565b546001600160a01b0316919050565b60006200034062000605565b905060005b815181101562000315576000828281518110620003665762000366620018e6565b6020026020010151905060006200037c62001095565b54604080517f5265736f6c766572206d697373696e67207461726765743a200000000000000060208201526039808201869052825180830390910181526059820192839052636795dbcd60e01b9092526001600160a01b0390921691636795dbcd91620003ef91869190605d01620018fc565b602060405180830381865afa1580156200040d573d6000803e3d6000fd5b505050506040513d601f19601f8201168201806040525081019062000433919062001917565b9050806200044062001095565b6000848152600191909101602090815260409182902080546001600160a01b0319166001600160a01b039485161790558151858152928416908301527f88a93678a3692f6789d9546fc621bf7234b101ddb7d4fe479455112831b8aa68910160405180910390a150508080620004b6906200194d565b91505062000345565b600080620004cc62000605565b905060005b8151811015620005fc576000828281518110620004f257620004f2620018e6565b602002602001015190506200050662001095565b600082815260019190910160205260409020546001600160a01b03166200052c62001095565b546040516321f8a72160e01b8152600481018490526001600160a01b03909116906321f8a72190602401602060405180830381865afa15801562000574573d6000803e3d6000fd5b505050506040513d601f19601f820116820180604052508101906200059a919062001917565b6001600160a01b0316141580620005d657506000620005b862001095565b600083815260019190910160205260409020546001600160a01b0316145b15620005e6576000935050505090565b5080620005f3816200194d565b915050620004d1565b50600191505090565b60408051600180825281830190925260609160208083019080368337019050509050762632b73234b733a6b0b935b2ba21b7b73a3937b63632b960491b81600081518110620006585762000658620018e6565b60200260200101818152505090565b600062000673620010c5565b6001600160a01b0316336001600160a01b031614620006a757604051637b3f42c160e01b8152600401620002f09062001969565b6000620006b362000319565b6040516001600160a01b03909116602482015260448101869052606481018590526084810184905260a40160408051601f198184030181529190526020810180516001600160e01b031663b7c1d52760e01b1790529050620007266c13195b991a5b99d3585c9ad95d609a1b82620010f1565b95945050505050565b600054610100900460ff1615808015620007505750600054600160ff909116105b806200076c5750303b1580156200076c575060005460ff166001145b620007d15760405162461bcd60e51b815260206004820152602e60248201527f496e697469616c697a61626c653a20636f6e747261637420697320616c72656160448201526d191e481a5b9a5d1a585b1a5e995960921b6064820152608401620002f0565b6000805460ff191660011790558015620007f5576000805461ff0019166101001790555b6000620008016200117b565b6001600160a01b031603620008645760405162461bcd60e51b815260206004820152602260248201527f4d7573742062652063616c6c65642066726f6d2070726f787920636f6e74726160448201526118dd60f21b6064820152608401620002f0565b6200086f83620011a4565b6200087a8262001215565b8015620008c1576000805461ff0019169055604051600181527f7f26b83ff96e1f2b6a682f133852f6798a09c465da95921460cefb38474024989060200160405180910390a15b505050565b33620008d162000b92565b6001600160a01b031614620008fa5760405162461bcd60e51b8152600401620002f090620018b1565b60005b81811015620009ac5760008383838181106200091d576200091d620018e6565b9050602002016020810190620009349190620014d0565b6040516308f2839760e41b81526001600160a01b03878116600483015291925090821690638f28397090602401600060405180830381600087803b1580156200097c57600080fd5b505af115801562000991573d6000803e3d6000fd5b50505050508080620009a3906200194d565b915050620008fd565b50505050565b33620009bd62000b92565b6001600160a01b031614620009e65760405162461bcd60e51b8152600401620002f090620018b1565b620009f26000620011a4565b565b600062000a00620010c5565b6001600160a01b0316336001600160a01b03161462000a3457604051637b3f42c160e01b8152600401620002f09062001969565b600062000a4062000319565b878787878760405160240162000a5c969594939291906200199a565b60408051601f198184030181529190526020810180516001600160e01b031663966dfcab60e01b179052905062000a9e662d21aa37b5b2b760c91b82620010f1565b979650505050505050565b600062000ab562001276565b600083815260209190915260409020546001600160a01b031690508062000aef576040516305e3dbc560e51b815260040160405180910390fd5b600081905060006001600160a01b0316816001600160a01b0316635c60da1b6040518163ffffffff1660e01b8152600401602060405180830381865afa15801562000b3e573d6000803e3d6000fd5b505050506040513d601f19601f8201168201806040525081019062000b64919062001917565b6001600160a01b03160362000b8c576040516304123fed60e51b815260040160405180910390fd5b50919050565b600062000325620012a6565b600062000baa620010c5565b6001600160a01b0316336001600160a01b03161462000bde57604051637b3f42c160e01b8152600401620002f09062001969565b600062000bea62000319565b6040516001600160a01b03909116602482015260440160408051601f198184030181529190526020810180516001600160e01b031663189acdbd60e31b179052905062000c4b6f119d5d1d5c9955985b1d5955985d5b1d60821b82620010f1565b91505090565b60608167ffffffffffffffff81111562000c6f5762000c6f6200164b565b60405190808252806020026020018201604052801562000ca457816020015b606081526020019060019003908162000c8e5790505b50905060005b8281101562000d525762000d1c3085858481811062000ccd5762000ccd620018e6565b905060200281019062000ce19190620019f3565b8080601f016020809104026020016040519081016040528093929190818152602001838380828437600092019190915250620012d692505050565b82828151811062000d315762000d31620018e6565b6020026020010181905250808062000d49906200194d565b91505062000caa565b505b92915050565b3362000d6562000b92565b6001600160a01b03161462000d8e5760405162461bcd60e51b8152600401620002f090620018b1565b62000315662d21aa37b5b2b760c91b8262000e9b565b3362000daf62000b92565b6001600160a01b03161462000dd85760405162461bcd60e51b8152600401620002f090620018b1565b6001600160a01b03811662000e3f5760405162461bcd60e51b815260206004820152602660248201527f4f776e61626c653a206e6577206f776e657220697320746865207a65726f206160448201526564647265737360d01b6064820152608401620002f0565b62000e4a81620011a4565b50565b3362000e5862000b92565b6001600160a01b03161462000e815760405162461bcd60e51b8152600401620002f090620018b1565b620003156f119d5d1d5c9955985b1d5955985d5b1d60821b825b600062000ea762001276565b600084815260209190915260408120546001600160a01b031691508162000f7c578260405162000ed7906200149e565b6001600160a01b039091168152602001604051809103906000f08015801562000f04573d6000803e3d6000fd5b5090508091508162000f1562001276565b60008681526020918252604080822080546001600160a01b0319166001600160a01b03958616179055519081528583169285169187917fd1beadd7ba3c8b48046a052671c2a5c0ebb8063834cd8035aaf3da097d85111a910160405180910390a462000d52565b8190506000816001600160a01b0316635c60da1b6040518163ffffffff1660e01b8152600401602060405180830381865afa15801562000fc0573d6000803e3d6000fd5b505050506040513d601f19601f8201168201806040525081019062000fe6919062001917565b604051631b2ce7f360e11b81526001600160a01b03868116600483015291925090831690633659cfe690602401600060405180830381600087803b1580156200102e57600080fd5b505af115801562001043573d6000803e3d6000fd5b50506040516001600160a01b03848116825280881693508616915087907fd1beadd7ba3c8b48046a052671c2a5c0ebb8063834cd8035aaf3da097d85111a9060200160405180910390a4505092915050565b60008062000d5460017f4abde63c3e81aefa5764b017968bc473e83e093d7e1a10247d19e0a3e412401862001a3d565b6000620010ec762632b73234b733a6b0b935b2ba21b7b73a3937b63632b960491b62001305565b905090565b600080620010fe62001276565b600085815260209190915260409020546001600160a01b031690508062001138576040516305e3dbc560e51b815260040160405180910390fd5b80836040516200114890620014ac565b6200115592919062001a53565b604051809103906000f08015801562001172573d6000803e3d6000fd5b50949350505050565b60007f360894a13ba1a3210667c828492db98dca3e2076cc3735a920a3ca505d382bbc62000325565b6000620011b0620012a6565b546001600160a01b0316905081620011c7620012a6565b80546001600160a01b0319166001600160a01b03928316179055604051838216918316907f8be0079c531659141344cd1fd0a4f28419497f9722a3daafe3b4186f6b6457e090600090a35050565b60006200122162001095565b546001600160a01b0316146200124a576040516304b79d6360e51b815260040160405180910390fd5b806200125562001095565b80546001600160a01b0319166001600160a01b039290921691909117905550565b60008062000d5460017fd25af282180dbd50d3ba79f291b857e1b411793b87e22e0b91e41df4deff13a962001a3d565b60008062000d5460017f9acda75aebd150dd434541a4747a6dc606f4f1a59662477e67daf1fc0bf9e0aa62001a3d565b6060620012fe838360405180606001604052806027815260200162002c3b602791396200136b565b9392505050565b6000806200131262001095565b600084815260019190910160205260409020546001600160a01b031690508062000d545760408051602081018590520160408051601f19818403018152908290526346e2ec9360e01b8252620002f09160040162001a79565b6060600080856001600160a01b0316856040516200138a919062001a8e565b600060405180830381855af49150503d8060008114620013c7576040519150601f19603f3d011682016040523d82523d6000602084013e620013cc565b606091505b5091509150620013df86838387620013e9565b9695505050505050565b606083156200145d57825160000362001455576001600160a01b0385163b620014555760405162461bcd60e51b815260206004820152601d60248201527f416464726573733a2063616c6c20746f206e6f6e2d636f6e74726163740000006044820152606401620002f0565b508162001469565b62001469838362001471565b949350505050565b815115620014825781518083602001fd5b8060405162461bcd60e51b8152600401620002f0919062001a79565b6106068062001aad83390190565b610b8880620020b383390190565b6001600160a01b038116811462000e4a57600080fd5b600060208284031215620014e357600080fd5b8135620012fe81620014ba565b6020808252825182820181905260009190848201906040850190845b818110156200152a578351835292840192918401916001016200150c565b50909695505050505050565b6000806000606084860312156200154c57600080fd5b505081359360208301359350604090920135919050565b600080604083850312156200157757600080fd5b82356200158481620014ba565b915060208301356200159681620014ba565b809150509250929050565b60008083601f840112620015b457600080fd5b50813567ffffffffffffffff811115620015cd57600080fd5b6020830191508360208260051b8501011115620015e957600080fd5b9250929050565b6000806000604084860312156200160657600080fd5b83356200161381620014ba565b9250602084013567ffffffffffffffff8111156200163057600080fd5b6200163e86828701620015a1565b9497909650939450505050565b634e487b7160e01b600052604160045260246000fd5b600082601f8301126200167357600080fd5b813567ffffffffffffffff808211156200169157620016916200164b565b604051601f8301601f19908116603f01168101908282118183101715620016bc57620016bc6200164b565b81604052838152866020858801011115620016d657600080fd5b836020870160208301376000602085830101528094505050505092915050565b600080600080600060a086880312156200170f57600080fd5b853567ffffffffffffffff808211156200172857600080fd5b6200173689838a0162001661565b965060208801359150808211156200174d57600080fd5b506200175c8882890162001661565b945050604086013560ff811681146200177457600080fd5b925060608601356200178681620014ba565b949793965091946080013592915050565b600060208284031215620017aa57600080fd5b5035919050565b60008060208385031215620017c557600080fd5b823567ffffffffffffffff811115620017dd57600080fd5b620017eb85828601620015a1565b90969095509350505050565b60005b8381101562001814578181015183820152602001620017fa565b50506000910152565b6000815180845262001837816020860160208601620017f7565b601f01601f19169290920160200192915050565b6000602080830181845280855180835260408601915060408160051b870101925083870160005b82811015620018a457603f19888603018452620018918583516200181d565b9450928501929085019060010162001872565b5092979650505050505050565b6020808252818101527f4f776e61626c653a2063616c6c6572206973206e6f7420746865206f776e6572604082015260600190565b634e487b7160e01b600052603260045260246000fd5b8281526040602082015260006200146960408301846200181d565b6000602082840312156200192a57600080fd5b8151620012fe81620014ba565b634e487b7160e01b600052601160045260246000fd5b60006001820162001962576200196262001937565b5060010190565b6020808252601790820152762632b73234b733a6b0b935b2ba21b7b73a3937b63632b960491b604082015260600190565b600060018060a01b03808916835260c06020840152620019be60c08401896200181d565b8381036040850152620019d281896200181d565b60ff9790971660608501525093909316608082015260a00152509392505050565b6000808335601e1984360301811262001a0b57600080fd5b83018035915067ffffffffffffffff82111562001a2757600080fd5b602001915036819003821315620015e957600080fd5b8181038181111562000d545762000d5462001937565b6001600160a01b038316815260406020820181905260009062001469908301846200181d565b602081526000620012fe60208301846200181d565b6000825162001aa2818460208701620017f7565b919091019291505056fe608060405234801561001057600080fd5b5060405161060638038061060683398101604081905261002f9161018b565b61003833610047565b610041816100b4565b506101dc565b6000610051610157565b546001600160a01b0316905081610066610157565b80546001600160a01b0319166001600160a01b03928316179055604051838216918316907f8be0079c531659141344cd1fd0a4f28419497f9722a3daafe3b4186f6b6457e090600090a35050565b6001600160a01b0381163b6101355760405162461bcd60e51b815260206004820152603360248201527f5570677261646561626c65426561636f6e3a20696d706c656d656e746174696f60448201527f6e206973206e6f74206120636f6e747261637400000000000000000000000000606482015260840160405180910390fd5b600080546001600160a01b0319166001600160a01b0392909216919091179055565b60008061018560017f9acda75aebd150dd434541a4747a6dc606f4f1a59662477e67daf1fc0bf9e0aa6101bb565b92915050565b60006020828403121561019d57600080fd5b81516001600160a01b03811681146101b457600080fd5b9392505050565b8181038181111561018557634e487b7160e01b600052601160045260246000fd5b61041b806101eb6000396000f3fe608060405234801561001057600080fd5b50600436106100575760003560e01c80633659cfe61461005c5780635c60da1b14610071578063715018a61461009a5780638da5cb5b146100a2578063f2fde38b146100aa575b600080fd5b61006f61006a36600461035f565b6100bd565b005b6000546001600160a01b03165b6040516001600160a01b03909116815260200160405180910390f35b61006f610135565b61007e610170565b61006f6100b836600461035f565b610189565b336100c6610170565b6001600160a01b0316146100f55760405162461bcd60e51b81526004016100ec9061038f565b60405180910390fd5b6100fe81610229565b6040516001600160a01b038216907fbc7cd75a20ee27fd9adebab32041f755214dbc6bffa90cc0225b39da2e5c2d3b90600090a250565b3361013e610170565b6001600160a01b0316146101645760405162461bcd60e51b81526004016100ec9061038f565b61016e60006102be565b565b600061017a61032b565b546001600160a01b0316919050565b33610192610170565b6001600160a01b0316146101b85760405162461bcd60e51b81526004016100ec9061038f565b6001600160a01b03811661021d5760405162461bcd60e51b815260206004820152602660248201527f4f776e61626c653a206e6577206f776e657220697320746865207a65726f206160448201526564647265737360d01b60648201526084016100ec565b610226816102be565b50565b6001600160a01b0381163b61029c5760405162461bcd60e51b815260206004820152603360248201527f5570677261646561626c65426561636f6e3a20696d706c656d656e746174696f6044820152721b881a5cc81b9bdd08184818dbdb9d1c9858dd606a1b60648201526084016100ec565b600080546001600160a01b0319166001600160a01b0392909216919091179055565b60006102c861032b565b546001600160a01b03169050816102dd61032b565b80546001600160a01b0319166001600160a01b03928316179055604051838216918316907f8be0079c531659141344cd1fd0a4f28419497f9722a3daafe3b4186f6b6457e090600090a35050565b60008061035960017f9acda75aebd150dd434541a4747a6dc606f4f1a59662477e67daf1fc0bf9e0aa6103c4565b92915050565b60006020828403121561037157600080fd5b81356001600160a01b038116811461038857600080fd5b9392505050565b6020808252818101527f4f776e61626c653a2063616c6c6572206973206e6f7420746865206f776e6572604082015260600190565b8181038181111561035957634e487b7160e01b600052601160045260246000fdfea2646970667358221220f02c14aba19266da4bc7a522826a1c0f1d36778a7711ffcda8db59802cde044864736f6c63430008130033608060405260405162000b8838038062000b88833981016040819052620000269162000550565b818162000036828260006200004c565b506200004490503362000116565b50506200068f565b620000578362000188565b6040516001600160a01b038416907f1cf3b03a6cf19fa2baba4df148e9dcabedea7f8a5c07840e207e5c089be95d3e90600090a2600082511180620000995750805b1562000111576200010f836001600160a01b0316635c60da1b6040518163ffffffff1660e01b8152600401602060405180830381865afa158015620000e2573d6000803e3d6000fd5b505050506040513d601f19601f820116820180604052508101906200010891906200061e565b8362000316565b505b505050565b7f7e644d79422f17c01e4894b5f4f588d331ebfa28653d42ae832dc59e38c9798f6200015860008051602062000b41833981519152546001600160a01b031690565b604080516001600160a01b03928316815291841660208301520160405180910390a1620001858162000345565b50565b6001600160a01b0381163b620001f35760405162461bcd60e51b815260206004820152602560248201527f455243313936373a206e657720626561636f6e206973206e6f74206120636f6e6044820152641d1c9858dd60da1b60648201526084015b60405180910390fd5b6200026b816001600160a01b0316635c60da1b6040518163ffffffff1660e01b8152600401602060405180830381865afa15801562000236573d6000803e3d6000fd5b505050506040513d601f19601f820116820180604052508101906200025c91906200061e565b6001600160a01b03163b151590565b620002d25760405162461bcd60e51b815260206004820152603060248201527f455243313936373a20626561636f6e20696d706c656d656e746174696f6e206960448201526f1cc81b9bdd08184818dbdb9d1c9858dd60821b6064820152608401620001ea565b807fa3f0ad74e5423aebfd80d3ef4346578335a9a72aeaee59ff6cb3582b35133d505b80546001600160a01b0319166001600160a01b039290921691909117905550565b60606200033e838360405180606001604052806027815260200162000b6160279139620003c3565b9392505050565b6001600160a01b038116620003ac5760405162461bcd60e51b815260206004820152602660248201527f455243313936373a206e65772061646d696e20697320746865207a65726f206160448201526564647265737360d01b6064820152608401620001ea565b8060008051602062000b41833981519152620002f5565b6060600080856001600160a01b031685604051620003e291906200063c565b600060405180830381855af49150503d80600081146200041f576040519150601f19603f3d011682016040523d82523d6000602084013e62000424565b606091505b509092509050620004388683838762000442565b9695505050505050565b60608315620004b6578251600003620004ae576001600160a01b0385163b620004ae5760405162461bcd60e51b815260206004820152601d60248201527f416464726573733a2063616c6c20746f206e6f6e2d636f6e74726163740000006044820152606401620001ea565b5081620004c2565b620004c28383620004ca565b949350505050565b815115620004db5781518083602001fd5b8060405162461bcd60e51b8152600401620001ea91906200065a565b80516001600160a01b03811681146200050f57600080fd5b919050565b634e487b7160e01b600052604160045260246000fd5b60005b83811015620005475781810151838201526020016200052d565b50506000910152565b600080604083850312156200056457600080fd5b6200056f83620004f7565b60208401519092506001600160401b03808211156200058d57600080fd5b818501915085601f830112620005a257600080fd5b815181811115620005b757620005b762000514565b604051601f8201601f19908116603f01168101908382118183101715620005e257620005e262000514565b81604052828152886020848701011115620005fc57600080fd5b6200060f8360208301602088016200052a565b80955050505050509250929050565b6000602082840312156200063157600080fd5b6200033e82620004f7565b60008251620006508184602087016200052a565b9190910192915050565b60208152600082518060208401526200067b8160408501602087016200052a565b601f01601f19169190910160400192915050565b6104a2806200069f6000396000f3fe6080604052600436106100435760003560e01c80633659cfe61461005a5780635c60da1b1461007a5780638f283970146100ab578063f851a440146100cb57610052565b36610052576100506100e0565b005b6100506100e0565b34801561006657600080fd5b5061005061007536600461042b565b6100f2565b34801561008657600080fd5b5061008f61011d565b6040516001600160a01b03909116815260200160405180910390f35b3480156100b757600080fd5b506100506100c636600461042b565b61012c565b3480156100d757600080fd5b5061008f61014c565b6100f06100eb610156565b6101c1565b565b6100fa6101e5565b6001600160a01b031633036101155761011281610218565b50565b6101126100e0565b6000610127610156565b905090565b6101346101e5565b6001600160a01b031633036101155761011281610258565b60006101276101e5565b60006101606102ac565b6001600160a01b0316635c60da1b6040518163ffffffff1660e01b8152600401602060405180830381865afa15801561019d573d6000803e3d6000fd5b505050506040513d601f19601f82011682018060405250810190610127919061044f565b3660008037600080366000845af43d6000803e8080156101e0573d6000f35b3d6000fd5b60007fb53127684a568b3173ae13b9f8a6016e243e63b6e8ee1178d6a717850b5d61035b546001600160a01b0316919050565b610221816102d4565b6040516001600160a01b038216907fbc7cd75a20ee27fd9adebab32041f755214dbc6bffa90cc0225b39da2e5c2d3b90600090a250565b7f7e644d79422f17c01e4894b5f4f588d331ebfa28653d42ae832dc59e38c9798f6102816101e5565b604080516001600160a01b03928316815291841660208301520160405180910390a16101128161038a565b60007fa3f0ad74e5423aebfd80d3ef4346578335a9a72aeaee59ff6cb3582b35133d50610209565b6001600160a01b0381163b6103465760405162461bcd60e51b815260206004820152602d60248201527f455243313936373a206e657720696d706c656d656e746174696f6e206973206e60448201526c1bdd08184818dbdb9d1c9858dd609a1b60648201526084015b60405180910390fd5b807f360894a13ba1a3210667c828492db98dca3e2076cc3735a920a3ca505d382bbc5b80546001600160a01b0319166001600160a01b039290921691909117905550565b6001600160a01b0381166103ef5760405162461bcd60e51b815260206004820152602660248201527f455243313936373a206e65772061646d696e20697320746865207a65726f206160448201526564647265737360d01b606482015260840161033d565b807fb53127684a568b3173ae13b9f8a6016e243e63b6e8ee1178d6a717850b5d6103610369565b6001600160a01b038116811461011257600080fd5b60006020828403121561043d57600080fd5b813561044881610416565b9392505050565b60006020828403121561046157600080fd5b81516104488161041656fea26469706673582212204e62bddcb8f6e0fda8d8f39f3a9f6853fd3da1fe787ae5fd82bdef44524fae0c64736f6c63430008130033b53127684a568b3173ae13b9f8a6016e243e63b6e8ee1178d6a717850b5d6103416464726573733a206c6f772d6c6576656c2064656c65676174652063616c6c206661696c6564416464726573733a206c6f772d6c6576656c2064656c65676174652063616c6c206661696c6564a2646970667358221220288f25575c1271827e39ce2ddaf09ed8f5135ee7ea03f7aa91d5fe5cb414c2eb64736f6c63430008130033",
  "implementation": "0xbfD3311fac28e8eE1786881B41727AA7072a6281",
  "devdoc": {
    "events": {
      "Initialized(uint8)": {
        "details": "Triggered when the contract has been initialized or reinitialized."
      }
    },
    "kind": "dev",
    "methods": {
      "changeBeaconProxyAdmins(address,address[])": {
        "params": {
          "destinations": "The destination contract addresses",
          "newAdmin": "The address of new admin"
        }
      },
      "deployLendingMarket(bytes32,uint256,uint256)": {
        "params": {
          "_cbLimitRange": "The circuit breaker limit range",
          "_ccy": "Main currency for new lending market",
          "_orderFeeRate": "The order fee rate received by protocol"
        },
        "returns": {
          "market": "The proxy contract address of created lending market"
        }
      },
      "deployZCToken(string,string,uint8,address,uint256)": {
        "params": {
          "_asset": "The address of the token's underlying asset",
          "_decimals": "The number of decimals the token uses",
          "_maturity": "The maturity of the token",
          "_name": "The name of the future value token",
          "_symbol": "The symbol of the future value token"
        },
        "returns": {
          "futureValueToken": "The proxy contract address of created future value token"
        }
      },
      "getBeaconProxyAddress(bytes32)": {
        "params": {
          "beaconName": "The cache name of the beacon proxy"
        },
        "returns": {
          "beaconProxyAddress": "The beacon proxy address"
        }
      },
      "getRevision()": {
        "returns": {
          "_0": "The revision number"
        }
      },
      "initialize(address,address)": {
        "details": "Function is invoked by the proxy contract when the contract is added to the ProxyController.",
        "params": {
          "_owner": "The address of the contract owner",
          "_resolver": "The address of the Address Resolver contract"
        }
      },
      "multicall(bytes[])": {
        "custom:oz-upgrades-unsafe-allow-reachable": "delegatecall",
        "details": "Receives and executes a batch of function calls on this contract."
      },
      "owner()": {
        "details": "Returns the address of the current owner."
      },
      "renounceOwnership()": {
        "details": "Leaves the contract without owner. It will not be possible to call `onlyOwner` functions anymore. Can only be called by the current owner. NOTE: Renouncing ownership will leave the contract without an owner, thereby removing any functionality that is only available to the owner."
      },
      "requiredContracts()": {
        "details": "The contract name list is in `./libraries/Contracts.sol`."
      },
      "setFutureValueVaultImpl(address)": {
        "params": {
          "newImpl": "The address of implementation contract"
        }
      },
      "setLendingMarketImpl(address)": {
        "params": {
          "newImpl": "The address of implementation contract"
        }
      },
      "setZCTokenImpl(address)": {
        "params": {
          "newImpl": "The address of implementation contract"
        }
      },
      "transferOwnership(address)": {
        "details": "Transfers ownership of the contract to a new account (`newOwner`). Can only be called by the current owner."
      }
    },
    "version": 1
  },
  "userdoc": {
    "kind": "user",
    "methods": {
      "changeBeaconProxyAdmins(address,address[])": {
        "notice": "Updates admin addresses of beacon proxy contract"
      },
      "deployFutureValueVault()": {
        "notice": "Deploys new FutureValueVaultReverts on deployment market with existing currency and term"
      },
      "deployLendingMarket(bytes32,uint256,uint256)": {
        "notice": "Deploys new LendingMarket"
      },
      "deployZCToken(string,string,uint8,address,uint256)": {
        "notice": "Deploys new ZCToken"
      },
      "getBeaconProxyAddress(bytes32)": {
        "notice": "Gets the beacon proxy address to the selected name."
      },
      "getRevision()": {
        "notice": "Gets the revision number of the contract"
      },
      "initialize(address,address)": {
        "notice": "Initializes the contract."
      },
      "requiredContracts()": {
        "notice": "Returns the contract names used in this contract."
      },
      "setFutureValueVaultImpl(address)": {
        "notice": "Sets the implementation contract of FutureValueVault"
      },
      "setLendingMarketImpl(address)": {
        "notice": "Sets the implementation contract of LendingMarket"
      },
      "setZCTokenImpl(address)": {
        "notice": "Sets the implementation contract of ZCToken"
      }
    },
    "notice": "Implements the management of beacon proxy contracts. All beacon proxy contracts are deployed from this contract. This contract is also used to update the beacon proxy implementation.",
    "version": 1
  },
  "storageLayout": {
    "storage": [
      {
        "astId": 1618,
        "contract": "contracts/protocol/BeaconProxyController.sol:BeaconProxyController",
        "label": "_initialized",
        "offset": 0,
        "slot": "0",
        "type": "t_uint8"
      },
      {
        "astId": 1621,
        "contract": "contracts/protocol/BeaconProxyController.sol:BeaconProxyController",
        "label": "_initializing",
        "offset": 1,
        "slot": "0",
        "type": "t_bool"
      }
    ],
    "types": {
      "t_bool": {
        "encoding": "inplace",
        "label": "bool",
        "numberOfBytes": "1"
      },
      "t_uint8": {
        "encoding": "inplace",
        "label": "uint8",
        "numberOfBytes": "1"
      }
    }
  }
}