{
  "address": "0x2faa06B6981E93594aBF439036e7fA633F46b2d3",
  "abi": [
    {
      "inputs": [],
      "name": "InvalidCircuitBreakerLimitRange",
      "type": "error"
    },
    {
      "inputs": [],
      "name": "InvalidOrderFeeRate",
      "type": "error"
    },
    {
      "inputs": [],
      "name": "OrderBookNotMatured",
      "type": "error"
    },
    {
      "anonymous": false,
      "inputs": [
        {
          "indexed": false,
          "internalType": "bytes32",
          "name": "ccy",
          "type": "bytes32"
        },
        {
          "indexed": false,
          "internalType": "uint256",
          "name": "previousRate",
          "type": "uint256"
        },
        {
          "indexed": false,
          "internalType": "uint256",
          "name": "rate",
          "type": "uint256"
        }
      ],
      "name": "CircuitBreakerLimitRangeUpdated",
      "type": "event"
    },
    {
      "anonymous": false,
      "inputs": [
        {
          "indexed": false,
          "internalType": "bytes32",
          "name": "ccy",
          "type": "bytes32"
        },
        {
          "indexed": false,
          "internalType": "uint256",
          "name": "maturity",
          "type": "uint256"
        },
        {
          "indexed": false,
          "internalType": "uint256",
          "name": "openingUnitPrice",
          "type": "uint256"
        },
        {
          "indexed": false,
          "internalType": "uint256",
          "name": "lastLendUnitPrice",
          "type": "uint256"
        },
        {
          "indexed": false,
          "internalType": "uint256",
          "name": "lastBorrowUnitPrice",
          "type": "uint256"
        },
        {
          "indexed": false,
          "internalType": "uint256",
          "name": "offsetAmount",
          "type": "uint256"
        }
      ],
      "name": "ItayoseExecuted",
      "type": "event"
    },
    {
      "anonymous": false,
      "inputs": [
        {
          "indexed": false,
          "internalType": "uint8",
          "name": "orderBookId",
          "type": "uint8"
        },
        {
          "indexed": false,
          "internalType": "uint256",
          "name": "maturity",
          "type": "uint256"
        },
        {
          "indexed": false,
          "internalType": "uint256",
          "name": "openingDate",
          "type": "uint256"
        }
      ],
      "name": "OrderBookCreated",
      "type": "event"
    },
    {
      "anonymous": false,
      "inputs": [
        {
          "indexed": false,
          "internalType": "bytes32",
          "name": "ccy",
          "type": "bytes32"
        },
        {
          "indexed": false,
          "internalType": "uint256",
          "name": "previousRate",
          "type": "uint256"
        },
        {
          "indexed": false,
          "internalType": "uint256",
          "name": "rate",
          "type": "uint256"
        }
      ],
      "name": "OrderFeeRateUpdated",
      "type": "event"
    },
    {
      "inputs": [
        {
          "internalType": "uint8",
          "name": "_orderBookId",
          "type": "uint8"
        }
      ],
      "name": "getBestBorrowUnitPrice",
      "outputs": [
        {
          "internalType": "uint256",
          "name": "",
          "type": "uint256"
        }
      ],
      "stateMutability": "view",
      "type": "function"
    },
    {
      "inputs": [
        {
          "internalType": "uint8[]",
          "name": "_orderBookIds",
          "type": "uint8[]"
        }
      ],
      "name": "getBestBorrowUnitPrices",
      "outputs": [
        {
          "internalType": "uint256[]",
          "name": "unitPrices",
          "type": "uint256[]"
        }
      ],
      "stateMutability": "view",
      "type": "function"
    },
    {
      "inputs": [
        {
          "internalType": "uint8",
          "name": "_orderBookId",
          "type": "uint8"
        }
      ],
      "name": "getBestLendUnitPrice",
      "outputs": [
        {
          "internalType": "uint256",
          "name": "",
          "type": "uint256"
        }
      ],
      "stateMutability": "view",
      "type": "function"
    },
    {
      "inputs": [
        {
          "internalType": "uint8[]",
          "name": "_orderBookIds",
          "type": "uint8[]"
        }
      ],
      "name": "getBestLendUnitPrices",
      "outputs": [
        {
          "internalType": "uint256[]",
          "name": "unitPrices",
          "type": "uint256[]"
        }
      ],
      "stateMutability": "view",
      "type": "function"
    },
    {
      "inputs": [
        {
          "internalType": "uint8",
          "name": "_orderBookId",
          "type": "uint8"
        },
        {
          "internalType": "uint256",
          "name": "_count",
          "type": "uint256"
        }
      ],
      "name": "getBlockUnitPriceAverage",
      "outputs": [
        {
          "internalType": "uint256",
          "name": "",
          "type": "uint256"
        }
      ],
      "stateMutability": "view",
      "type": "function"
    },
    {
      "inputs": [
        {
          "internalType": "uint8",
          "name": "_orderBookId",
          "type": "uint8"
        }
      ],
      "name": "getBlockUnitPriceHistory",
      "outputs": [
        {
          "internalType": "uint256[]",
          "name": "unitPrices",
          "type": "uint256[]"
        },
        {
          "internalType": "uint48",
          "name": "timestamp",
          "type": "uint48"
        }
      ],
      "stateMutability": "view",
      "type": "function"
    },
    {
      "inputs": [
        {
          "internalType": "uint8",
          "name": "_orderBookId",
          "type": "uint8"
        },
        {
          "internalType": "uint256",
          "name": "_start",
          "type": "uint256"
        },
        {
          "internalType": "uint256",
          "name": "_limit",
          "type": "uint256"
        }
      ],
      "name": "getBorrowOrderBook",
      "outputs": [
        {
          "internalType": "uint256[]",
          "name": "unitPrices",
          "type": "uint256[]"
        },
        {
          "internalType": "uint256[]",
          "name": "amounts",
          "type": "uint256[]"
        },
        {
          "internalType": "uint256[]",
          "name": "quantities",
          "type": "uint256[]"
        },
        {
          "internalType": "uint256",
          "name": "next",
          "type": "uint256"
        }
      ],
      "stateMutability": "view",
      "type": "function"
    },
    {
      "inputs": [
        {
          "internalType": "uint8",
          "name": "_orderBookId",
          "type": "uint8"
        }
      ],
      "name": "getCircuitBreakerThresholds",
      "outputs": [
        {
          "internalType": "uint256",
          "name": "maxLendUnitPrice",
          "type": "uint256"
        },
        {
          "internalType": "uint256",
          "name": "minBorrowUnitPrice",
          "type": "uint256"
        }
      ],
      "stateMutability": "view",
      "type": "function"
    },
    {
      "inputs": [
        {
          "internalType": "uint8",
          "name": "_orderBookId",
          "type": "uint8"
        }
      ],
      "name": "getItayoseEstimation",
      "outputs": [
        {
          "internalType": "uint256",
          "name": "openingUnitPrice",
          "type": "uint256"
        },
        {
          "internalType": "uint256",
          "name": "lastLendUnitPrice",
          "type": "uint256"
        },
        {
          "internalType": "uint256",
          "name": "lastBorrowUnitPrice",
          "type": "uint256"
        },
        {
          "internalType": "uint256",
          "name": "totalOffsetAmount",
          "type": "uint256"
        }
      ],
      "stateMutability": "view",
      "type": "function"
    },
    {
      "inputs": [
        {
          "internalType": "uint8",
          "name": "_orderBookId",
          "type": "uint8"
        }
      ],
      "name": "getLastOrderTimestamp",
      "outputs": [
        {
          "internalType": "uint48",
          "name": "",
          "type": "uint48"
        }
      ],
      "stateMutability": "view",
      "type": "function"
    },
    {
      "inputs": [
        {
          "internalType": "uint8",
          "name": "_orderBookId",
          "type": "uint8"
        },
        {
          "internalType": "uint256",
          "name": "_start",
          "type": "uint256"
        },
        {
          "internalType": "uint256",
          "name": "_limit",
          "type": "uint256"
        }
      ],
      "name": "getLendOrderBook",
      "outputs": [
        {
          "internalType": "uint256[]",
          "name": "unitPrices",
          "type": "uint256[]"
        },
        {
          "internalType": "uint256[]",
          "name": "amounts",
          "type": "uint256[]"
        },
        {
          "internalType": "uint256[]",
          "name": "quantities",
          "type": "uint256[]"
        },
        {
          "internalType": "uint256",
          "name": "next",
          "type": "uint256"
        }
      ],
      "stateMutability": "view",
      "type": "function"
    },
    {
      "inputs": [
        {
          "internalType": "uint8",
          "name": "_orderBookId",
          "type": "uint8"
        }
      ],
      "name": "getMarketUnitPrice",
      "outputs": [
        {
          "internalType": "uint256",
          "name": "",
          "type": "uint256"
        }
      ],
      "stateMutability": "view",
      "type": "function"
    },
    {
      "inputs": [
        {
          "internalType": "uint8[]",
          "name": "_orderBookIds",
          "type": "uint8[]"
        }
      ],
      "name": "getMaturities",
      "outputs": [
        {
          "internalType": "uint256[]",
          "name": "maturities",
          "type": "uint256[]"
        }
      ],
      "stateMutability": "view",
      "type": "function"
    },
    {
      "inputs": [
        {
          "internalType": "uint8",
          "name": "_orderBookId",
          "type": "uint8"
        }
      ],
      "name": "getOrderBookDetail",
      "outputs": [
        {
          "internalType": "bytes32",
          "name": "ccy",
          "type": "bytes32"
        },
        {
          "internalType": "uint256",
          "name": "maturity",
          "type": "uint256"
        },
        {
          "internalType": "uint256",
          "name": "openingDate",
          "type": "uint256"
        },
        {
          "internalType": "uint256",
          "name": "preOpeningDate",
          "type": "uint256"
        }
      ],
      "stateMutability": "view",
      "type": "function"
    },
    {
      "inputs": [
        {
          "internalType": "uint8",
          "name": "_orderBookId",
          "type": "uint8"
        }
      ],
      "name": "isItayosePeriod",
      "outputs": [
        {
          "internalType": "bool",
          "name": "",
          "type": "bool"
        }
      ],
      "stateMutability": "view",
      "type": "function"
    },
    {
      "inputs": [
        {
          "internalType": "uint8",
          "name": "_orderBookId",
          "type": "uint8"
        }
      ],
      "name": "isMatured",
      "outputs": [
        {
          "internalType": "bool",
          "name": "",
          "type": "bool"
        }
      ],
      "stateMutability": "view",
      "type": "function"
    },
    {
      "inputs": [
        {
          "internalType": "uint8",
          "name": "_orderBookId",
          "type": "uint8"
        }
      ],
      "name": "isOpened",
      "outputs": [
        {
          "internalType": "bool",
          "name": "",
          "type": "bool"
        }
      ],
      "stateMutability": "view",
      "type": "function"
    },
    {
      "inputs": [
        {
          "internalType": "uint8",
          "name": "_orderBookId",
          "type": "uint8"
        }
      ],
      "name": "isPreOrderPeriod",
      "outputs": [
        {
          "internalType": "bool",
          "name": "",
          "type": "bool"
        }
      ],
      "stateMutability": "view",
      "type": "function"
    },
    {
      "inputs": [
        {
          "internalType": "uint8",
          "name": "_orderBookId",
          "type": "uint8"
        }
      ],
      "name": "isReady",
      "outputs": [
        {
          "internalType": "bool",
          "name": "",
          "type": "bool"
        }
      ],
      "stateMutability": "view",
      "type": "function"
    }
  ],
  "transactionHash": "0xc5fd644a46c9262246dd3ca2d4a34a0c7c64414ddca0ca613fa4927da06007e2",
  "args": [],
  "numDeployments": 2,
  "solcInputHash": "884f6674a3716f33c276f68b0a799238",
  "bytecode": "0x61373161003a600b82828239805160001a60731461002d57634e487b7160e01b600052600060045260246000fd5b30600052607381538281f3fe73000000000000000000000000000000000000000030146080604052600436106101625760003560e01c80636aa65aaf116100cd578063a3b88aa011610086578063a3b88aa0146103aa578063ba1cbe98146103bd578063cd458662146103d0578063dded339b146103e3578063fbb759b4146103f6578063fffa87b81461042057600080fd5b80636aa65aaf146102df5780636c5d6df11461030157806380d5b6091461032157806382bdfed51461035457806389efbab1146103675780639beff3e31461038a57600080fd5b806350e187011161011f57806350e18701146102395780635575c79614610261578063576737171461029357806358e64897146102a65780635f7f8b45146102b95780636a5138d6146102cc57600080fd5b80631f98a42014610167578063261cc1b21461019157806329d6dd13146101c25780632bfa7c13146101e5578063381e93441461020657806338b0585214610219575b600080fd5b61017a610175366004613296565b610433565b6040516101889291906132ec565b60405180910390f35b81801561019d57600080fd5b506101b16101ac366004613296565b610454565b604051610188959493929190613316565b6101d56101d0366004613296565b61068a565b6040519015158152602001610188565b6101f86101f3366004613296565b6106bd565b604051908152602001610188565b6101d5610214366004613296565b6106d9565b61022c6102273660046133c1565b61070f565b604051610188919061347a565b61024c610247366004613296565b6107be565b60408051928352602083019190915201610188565b81801561026d57600080fd5b5061028161027c36600461348d565b61080c565b60405160ff9091168152602001610188565b61022c6102a13660046133c1565b6108a4565b6101f86102b4366004613296565b610944565b6101f86102c7366004613296565b610952565b6101d56102da366004613296565b610965565b8180156102eb57600080fd5b506102ff6102fa3660046134b9565b61099f565b005b81801561030d57600080fd5b506102ff61031c3660046134b9565b610a32565b61033461032f366004613296565b610aa1565b604080519485526020850193909352918301526060820152608001610188565b6101d5610362366004613296565b610ad9565b61037a6103753660046134d2565b610aee565b6040516101889493929190613505565b81801561039657600080fd5b506102ff6103a5366004613550565b610b1b565b6101f86103b836600461358c565b610baa565b61037a6103cb3660046134d2565b610bc9565b61022c6103de3660046133c1565b610be5565b6103346103f1366004613296565b610c80565b610409610404366004613296565b610ca7565b60405165ffffffffffff9091168152602001610188565b6101d561042e366004613296565b610ccb565b6060600061044b600161044585610d03565b90610d28565b91509150915091565b600080600061046161324c565b61046961324c565b600080600061047789610d03565b905061048281610e92565b929a509198509350915086156105ee57604080518082019091526000808252600160208301525b600281101561058b5760006104bc61324c565b6104e76040518060800160405280600081526020016000815260200160008152602001600081525090565b61050c8585600281106104fc576104fc6135cc565b602002015187908e6000806110af565b505060408201519093509091501561052857610528868e6111fa565b606082015115610575576000858560028110610546576105466135cc565b6020020151600181111561055c5761055c6135b6565b0361056d5760019250819850610575565b600092508199505b5050508080610583906135f8565b9150506104a9565b507fa9952c3d01896ca75bba3aede761be10089d8d4725c9fee6b99245515986ef606105b5611266565b54835460408051928352602083019190915281018b9052606081018690526080810185905260a081018a905260c00160405180910390a1505b60016105f8611266565b825460009081526005919091016020908152604091829020805460ff19169315159390931790925580516060810182528a8152918201859052810183905261063e611266565b6006016000836000015481526020019081526020016000206000820151816000015560208201518160010155604082015181600201559050508060010154955050505091939590929450565b6000610694611266565b60050160006106a284610d03565b54815260208101919091526040016000205460ff1692915050565b60006106d360016106cd84610d03565b90611294565b92915050565b6000610e106106e783610d03565b600101546106f59190613611565b42101580156106d357506107088261068a565b1592915050565b6060815167ffffffffffffffff81111561072b5761072b6133ab565b604051908082528060200260200182016040528015610754578160200160208202803683370190505b50905060005b82518110156107b857610785838281518110610778576107786135cc565b6020026020010151610d03565b6000015482828151811061079b5761079b6135cc565b6020908102919091010152806107b0816135f8565b91505061075a565b50919050565b6000806107e26107cc611266565b6003015460016107db86610d03565b919061133a565b91506108056107ef611266565b6003015460016107fe86610d03565b91906113bb565b9050915091565b6000610816611420565b905061082f84848461082785610d03565b9291906114a6565b610837611266565b60008681526005919091016020908152604091829020805460ff191693151593909317909255805160ff8416815291820186905281018490527f04ec0e7cdb609ffd421993d30756b50a4c420e88ce7f59bb3e29b5a8fe1fcf4a9060600160405180910390a19392505050565b6060815167ffffffffffffffff8111156108c0576108c06133ab565b6040519080825280602002602001820160405280156108e9578160200160208202803683370190505b50905060005b82518110156107b857610915610910848381518110610778576107786135cc565b6114fd565b828281518110610927576109276135cc565b60209081029190910101528061093c816135f8565b9150506108ef565b60006106d361091083610d03565b60006106d361096083610d03565b611518565b60006109708261068a565b8015610982575061098082610ad9565b155b80156106d3575061099282610d03565b6001015442101592915050565b61271081106109c157604051636d3872b560e11b815260040160405180910390fd5b60006109cb611266565b600201549050808214610a2e57816109e1611266565b600201557fad24e9bff76148b1b779fc330ea225198d2b44136c7a8e5fbec46c99c7775632610a0e611266565b546040805191825260208201849052810184905260600160405180910390a15b5050565b6127108110610a5457604051631ce2ca3b60e31b815260040160405180910390fd5b6000610a5e611266565b600301549050808214610a2e5781610a74611266565b600301557fee52d515b96986517a19b501c0a50b03f4edace46ba0484faaea7590969adcf6610a0e611266565b6000806000806000610ab286610d03565b9050610abc611266565b548154600183015460029093015491989097509195509350915050565b60006106d3610ae783610d03565b5442101590565b60608060606000610b0a8686610b038a610d03565b919061154d565b935093509350935093509350935093565b6000610b25611266565b60ff85166000908152600491909101602052604090209050610b48815442101590565b610b6557604051632e98f16560e11b815260040160405180910390fd5b6000610b6f611266565b60ff85166000908152600491909101602052604081209150610b92908290611294565b600003610ba357610ba381846111fa565b5050505050565b6000610bc2826001610bbb86610d03565b9190611866565b9392505050565b60608060606000610b0a8686610bde8a610d03565b91906119a2565b6060815167ffffffffffffffff811115610c0157610c016133ab565b604051908082528060200260200182016040528015610c2a578160200160208202803683370190505b50905060005b82518110156107b857610c51610960848381518110610778576107786135cc565b828281518110610c6357610c636135cc565b602090810291909101015280610c78816135f8565b915050610c30565b600080600080610c97610c9286610d03565b610e92565b93509350935093505b9193509193565b6000610cb282610d03565b60030154600160301b900465ffffffffffff1692915050565b600080610cd783610d03565b905080600201544210158015610bc25750610e108160010154610cfa9190613611565b42109392505050565b6000610d0d611266565b60ff9092166000908152600492909201602052506040902090565b60606000610d4c84600301600d9054906101000a90046001600160501b0316611cae565b600385015490925065ffffffffffff600160301b9091041642141580610d8c575081600081518110610d8057610d806135cc565b60200260200101516000145b80610d945750825b8015610dab57506003840154600160601b900460ff165b15610e7557600060018351610dc09190613611565b90505b8015610e1c5782610dd5600183613611565b81518110610de557610de56135cc565b6020026020010151838281518110610dff57610dff6135cc565b602090810291909101015280610e1481613624565b915050610dc3565b50610e3d84600501546127108660040154610e37919061363b565b90611dbe565b82600081518110610e5057610e506135cc565b6020908102919091010152506003830154600160301b900465ffffffffffff16610e8b565b506003830154600160b81b900465ffffffffffff165b9250929050565b80546000908152600b8201602052604081208190819081908190610eb590611e2f565b86546000908152600c88016020526040812091925090610ed490611e76565b87546000908152600b8901602090815260408083208684526001019091528120600501549192509088546000908152600c8a01602090815260408083208684526001019091528120600501549192509089546000908152600c8b0160209081526040808320600b8e019092529091209192509085851180610f53575084155b80610f5c575085155b15610f7a576000806000809950995099509950505050505050610ca0565b858511158015610f8a5750600085115b8015610f965750600086115b156110a25785985084975082841115610fef578599508287610fb89190613652565b9650610fc48385613611565b9350610fd08286611eb8565b60008181526001840160205260409020600501549095505b9250610f7a565b8284101561103c5784995083876110069190613652565b96506110128484613611565b925061101e8187611f6a565b60008181526001830160205260409020600501549096509350610f7a565b61104b6002610e378789613652565b99506110578488613652565b96506110638187611f6a565b955061106f8286611eb8565b60008781526001830160205260409020600501549095506000868152600184016020526040902060050154909450610fe8565b5050505050509193509193565b6110da6040518060800160405280600081526020016000815260200160008152602001600081525090565b6110e261324c565b6000806110ed61324c565b6001896001811115611101576111016135b6565b0361114d5789546000908152600b8b0160205260409020611124818a8a8a612013565b60408b01929092529189526020890192909252945091506111458154151590565b9250506111a9565b6000896001811115611161576111616135b6565b036111a95789546000908152600c8b0160205260409020611184818a8a8a61225d565b60408b01929092529189526020890192909252945091506111a58154151590565b9250505b6040518060800160405280826000015165ffffffffffff16815260200182602001516001600160a01b0316815260200182604001518152602001826060015181525093505095509550955095915050565b60039190910180546fffffffffffffffffffffffffffffffff60681b191661ffff909216600160681b0265ffffffffffff60b81b191691909117600160b81b4265ffffffffffff16908102919091176bffffffffffff0000000000001916600160301b91909102179055565b6000806106d360017ffc2836757f9146445fc75bc3c897a210ec004e4ee60fc8627ef5cbf2842b3d0a613611565b60038201546000906112b590600160681b90046001600160501b0316611cae565b6000815181106112c7576112c76135cc565b60200260200101519050428360030160069054906101000a900465ffffffffffff1665ffffffffffff161415806112fc575080155b806113045750815b801561131b57506003830154600160601b900460ff165b156106d357610bc283600501546127108560040154610e37919061363b565b60008061134985600385611866565b905061137261271061135c86600261363b565b61136890612710613652565b610e37908461363b565b9150612710821180611382575080155b156113915761271091506113b3565b61139d6102bc82613652565b8210156113b3576113b06102bc82613652565b91505b509392505050565b6000806113ca85600585611866565b90506113dc6127106113688682613611565b91508115806113e9575080155b806113f5575060c88111155b1561140357600191506113b3565b61140e60c883613652565b8110156113b3576113b060c882613611565b600060ff61142c611266565b6001015460ff160361145c576001611442611266565b600101805460ff191660ff92909216919091179055611492565b611464611266565b600101805460ff1690600061147883613665565b91906101000a81548160ff021916908360ff160217905550505b61149a611266565b6001015460ff16919050565b8284556001840182905560028401819055600060048501819055600585018190556003850180546601000000000000600160e81b03191690556114eb610e1084613611565b42106114f5575060015b949350505050565b80546000908152600b8201602052604081206106d390611e2f565b80546000908152600c820160205260408120819061153590611e76565b905080156115435780610bc2565b6127109392505050565b606080606060008467ffffffffffffffff81111561156d5761156d6133ab565b604051908082528060200260200182016040528015611596578160200160208202803683370190505b5093508467ffffffffffffffff8111156115b2576115b26133ab565b6040519080825280602002602001820160405280156115db578160200160208202803683370190505b5092508467ffffffffffffffff8111156115f7576115f76133ab565b604051908082528060200260200182016040528015611620578160200160208202803683370190505b50915060008660000361164f5787546000908152600c89016020526040902061164890611e76565b90506116b1565b87546000908152600c890160205260408120819061166d908a6124ab565b91509150811561167f578892506116ae565b8881111561168f578092506116ae565b89546000908152600c8b01602052604090206116ab9082611eb8565b92505b50505b80856000815181106116c5576116c56135cc565b60209081029190910181019190915288546000908152600c8a0182526040808220848352600101909252206005015484600081518110611707576117076135cc565b60209081029190910181019190915288546000908152600c8a0182526040808220848352600101909252206004015483600081518110611749576117496135cc565b602090810291909101015260015b85518110156118365781156118365788546000908152600c8a01602052604090206117829083611eb8565b915081868281518110611797576117976135cc565b60209081029190910181019190915289546000908152600c8b018252604080822085835260010190925220600501548582815181106117d8576117d86135cc565b60209081029190910181019190915289546000908152600c8b01825260408082208583526001019092522060040154848281518110611819576118196135cc565b60209081029190910101528061182e816135f8565b915050611757565b50801561185c5787546000908152600c8901602052604090206118599082611eb8565b91505b5093509350935093565b60008061188985600301600d9054906101000a90046001600160501b0316611cae565b8051600387015491925090600090819065ffffffffffff600160301b90910416421415806118b45750855b80156118cb57506003880154600160601b900460ff165b156118fe576118ea88600501546127108a60040154610e37919061363b565b915060019050866118fa81613624565b9750505b60005b8781101561197c5783811015806119315750848181518110611925576119256135cc565b60200260200101516000145b61197c57848181518110611947576119476135cc565b60200260200101518361195a9190613652565b925081611966816135f8565b9250508080611974906135f8565b915050611901565b506000811161198c576000611996565b6119968282611dbe565b98975050505050505050565b606080606060008467ffffffffffffffff8111156119c2576119c26133ab565b6040519080825280602002602001820160405280156119eb578160200160208202803683370190505b5093508467ffffffffffffffff811115611a0757611a076133ab565b604051908082528060200260200182016040528015611a30578160200160208202803683370190505b5092508467ffffffffffffffff811115611a4c57611a4c6133ab565b604051908082528060200260200182016040528015611a75578160200160208202803683370190505b509150600086600003611aa45787546000908152600b890160205260409020611a9d90611e2f565b9050611b06565b87546000908152600b8901602052604081208190611ac2908a6124ab565b915091508115611ad457889250611b03565b88811015611ae457809250611b03565b89546000908152600b8b0160205260409020611b009082611f6a565b92505b50505b8085600081518110611b1a57611b1a6135cc565b60209081029190910181019190915288546000908152600b8a0182526040808220848352600101909252206005015484600081518110611b5c57611b5c6135cc565b60209081029190910181019190915288546000908152600b8a0182526040808220848352600101909252206004015483600081518110611b9e57611b9e6135cc565b602090810291909101015260015b8551811015611c8b578115611c8b5788546000908152600b8a0160205260409020611bd79083611f6a565b915081868281518110611bec57611bec6135cc565b60209081029190910181019190915289546000908152600b8b01825260408082208583526001019092522060050154858281518110611c2d57611c2d6135cc565b60209081029190910181019190915289546000908152600b8b01825260408082208583526001019092522060040154848281518110611c6e57611c6e6135cc565b602090810291909101015280611c83816135f8565b915050611bac565b50801561185c5787546000908152600b8901602052604090206118599082611f6a565b60408051600580825260c082019092526060916020820160a0803683370190505090508161ffff1681600081518110611ce957611ce96135cc565b6020026020010181815250506010826001600160501b0316901c61ffff1681600181518110611d1a57611d1a6135cc565b6020026020010181815250506020826001600160501b0316901c61ffff1681600281518110611d4b57611d4b6135cc565b6020026020010181815250506030826001600160501b0316901c61ffff1681600381518110611d7c57611d7c6135cc565b6020026020010181815250506040826001600160501b0316901c61ffff1681600481518110611dad57611dad6135cc565b602002602001018181525050919050565b6000808211611dcc57600080fd5b6005611dd88385613684565b611de390600a61363b565b83611def86600a61363b565b611df99190613684565b611e039190613611565b1015611e1a57611e138284613684565b90506106d3565b611e248284613684565b611e13906001613652565b805480611e3e57506000919050565b5b600081815260018301602052604090206002015415611e71576000908152600182016020526040902060020154611e3f565b919050565b805480611e8557506000919050565b5b600081815260018084016020526040909120015415611e71576000908152600180830160205260409091200154611e86565b600081611ee05760405162461bcd60e51b8152600401611ed7906136a6565b60405180910390fd5b600082815260018401602052604090206002015415611f18576000828152600184016020526040902060020154611e13908490612510565b5060008181526001830160205260409020545b8015801590611f4c5750600081815260018401602052604090206002015482145b156106d3576000818152600184016020526040902054909150611f2b565b600081611f895760405162461bcd60e51b8152600401611ed7906136a6565b600082815260018085016020526040909120015415611fc1576000828152600180850160205260409091200154611e13908490612548565b5060008181526001830160205260409020545b8015801590611ff55750600081815260018085016020526040909120015482145b156106d3576000818152600184016020526040902054909150611fd4565b60008060008061202161324c565b600061202c8a611e2f565b905060008060008984101580612040575089155b6120875760405162461bcd60e51b8152602060048201526018602482015277496e73756666696369656e74206c696d69742076616c756560401b6044820152606401611ed7565b6120948d8d8d8d8861257f565b959e50919c509a5091965094509250905060006120b1838a613652565b905080156121a65782156120dd578994506120d68e866120d18688613611565b6126aa565b9550612102565b8115612102578994506120ff8e866120f588866129c1565b6120d19088613611565b95505b600085815260018f016020526040812060028101919091555485156121a4575b80156121a4578581101561218e57808f6001016000888152602001908152602001600020600001541461218a57808f600101600088815260200190815260200160002060000181905550858f6001016000838152602001908152602001600020600201819055505b8095505b600090815260018f016020526040902054612122565b505b808d11156121bb576121b8818e613611565b96505b60006121c68f611e76565b90508a811480156121ef57508e6001016000828152602001908152602001600020600501546000145b156121fd5760008f55612243565b8e548b108061221657508e548b1480156122165750818a145b1561224357858f6000018190555060008f6001016000888152602001908152602001600020600001819055505b61224c8f6129d3565b505050505050945094509450945094565b60008060008061226b61324c565b60006122768a611e76565b90506000806000898411158061228a575089155b6122d15760405162461bcd60e51b8152602060048201526018602482015277496e73756666696369656e74206c696d69742076616c756560401b6044820152606401611ed7565b6122de8d8d8d8d88612aa2565b959e50919c509a5091965094509250905060006122fb838a613652565b905080156124055782156123225789945061231b8e866120d18688613611565b955061233d565b811561233d5789945061233a8e866120f588866129c1565b95505b60008e60010160008781526020019081526020016000206001018190555060008e600101600087815260200190815260200160002060000154905060008614612403575b801561240357858111156123ed57808f600101600088815260200190815260200160002060000154146123e957808f600101600088815260200190815260200160002060000181905550858f6001016000838152602001908152602001600020600101819055505b8095505b600090815260018f016020526040902054612381565b505b808d111561241a57612417818e613611565b96505b60006124258f611e2f565b90508a8114801561244e57508e6001016000828152602001908152602001600020600501546000145b1561245c5760008f556124a2565b8e548b118061247557508e548b1480156124755750818a145b156124a257858f6000018190555060008f6001016000888152602001908152602001600020600001819055505b61224c8f612b98565b815460009081905b801561250557808410156124dd5760008181526001808701602052604090912001549091506124fd565b808411156124fd5760008181526001860160205260409020600201549091505b8381036124b3575b151594909350915050565b60005b6000828152600180850160205260409091200154156107b8576000918252600180840160205260409092209091015490612513565b60005b6000828152600184016020526040902060020154156107b8576000918252600183016020526040909120600201549061254b565b60008181808080805b8a84108061259457508a155b80156125a75750898310806125a7575089155b80156125b257508515155b80156125c6575088861015806125c6575088155b1561267557600086815260018d016020526040902060050154959650869594506125f08686612c27565b6125fa9084613652565b92506126068585613652565b93508a8411801561261657508a15155b15612638576126258b85613611565b91506126318683612c27565b9050612664565b898311801561264657508915155b15612664576126558a84613611565b905061266186826129c1565b91505b61266e8c87611f6a565b9550612588565b8115612688576126858285613611565b93505b801561269b576126988184613611565b92505b959b949a509550955095509550565b6126b261324c565b60008381526001850160205260409020600581015483111561273c5760405162461bcd60e51b815260206004820152603860248201527f4f7264657253746174697374696373547265654c69623a20416d6f756e74207460448201527f6f2072656d6f766520697320696e73756666696369656e7400000000000000006064820152608401611ed7565b600381015465ffffffffffff61010090910481166000818152600684016020908152604091829020825160a08101845281548087168252600160301b8104871693820193909352600160601b9092049094169181019190915260018301546001600160a01b0316606082015260029092015460808301528491905b65ffffffffffff8116158015906127cd57508215155b1561291b5765ffffffffffff8082166000908152600686016020908152604091829020825160a08101845281548086168252600160301b8104861693820193909352600160601b9092049093169181019190915260018201546001600160a01b031660608201526002909101546080820181905290925083106128675760808201516128599084613611565b9250816020015190506127b7565b6040518060800160405280836000015165ffffffffffff16815260200183606001516001600160a01b031681526020018481526020016128a78986612c27565b905260409283015165ffffffffffff908116600090815260068701602090815290859020855160a08101875281548085168252600160301b8104851693820193909352600160601b9092049092169481019490945260018101546001600160a01b0316606085015260020154608084015294505b815165ffffffffffff16156129395761293988888460000151612c39565b6040850151156129b657604080860151600089815260018b016020908152838220895165ffffffffffff1683526006019052918220600201805491929091612982908490613611565b9091555050604080860151600089815260018b016020529182206005018054919290916129b0908490613611565b90915550505b505050509392505050565b6000610bc2612710610e37858561363b565b80546000908152600182016020526040902060020154158015612a0a57508054600090815260018083016020526040909120015415155b15612a6357805460009081526001808301602052604080832090910154825290206002015415612a555780546000908152600180830160205260409091200154612a55908290612e85565b612a63818260000154612f5c565b8054600090815260018201602052604090206003015460ff1615612a9f57805460009081526001820160205260409020600301805460ff191690555b50565b60008181808080805b8a841080612ab757508a155b8015612aca575089831080612aca575089155b8015612ad557508515155b8015612ae957508886111580612ae9575088155b1561267557600086815260018d01602052604090206005015495965086959450612b138686612c27565b612b1d9084613652565b9250612b298585613652565b93508a84118015612b3957508a15155b15612b5b57612b488b85613611565b9150612b548683612c27565b9050612b87565b8983118015612b6957508915155b15612b8757612b788a84613611565b9050612b8486826129c1565b91505b612b918c87611eb8565b9550612aab565b80546000908152600180830160205260409091200154158015612bcf57508054600090815260018201602052604090206002015415155b15612a63578054600090815260018083016020526040808320600201548352909120015415612c195780546000908152600182016020526040902060020154612c19908290612f5c565b612a63818260000154612e85565b6000610bc283610e376127108561363b565b612c44838383613030565b612ca55760405162461bcd60e51b815260206004820152602c60248201527f4f7264657253746174697374696373547265654c69623a204f7264657220646f60448201526b195cc81b9bdd08195e1a5cdd60a21b6064820152608401611ed7565b600082815260018085016020908152604080842065ffffffffffff808716865260068201808552838720845160a08101865281548085168252600160301b8104851682890152600160601b9004841681870152818801546001600160a01b0316606082015260029182015460808201526003850154610100900490931680895291909552929095209092015491939290915b8565ffffffffffff168365ffffffffffff1614612db05765ffffffffffff9283166000908152600686016020526040902054600160301b90049092169181612d7e816135f8565b65ffffffffffff85166000908152600688016020526040902060020154909350612da9915082613652565b9050612d37565b600385015465ffffffffffff8088166701000000000000009092041603612e0957612ddd8888600061304e565b6000878152600189016020526040902060030180546cffffffffffff0000000000000019169055612e47565b612e188888866020015161304e565b60208085015165ffffffffffff1660009081526006870190915260409020805465ffffffffffff60601b191690555b81856004016000828254612e5b9190613611565b9250508190555080856005016000828254612e769190613611565b90915550505050505050505050565b600081815260018084016020526040808320600281018054915482865292852090930154938590529183905590918015612ecd57600081815260018601602052604090208490555b6000838152600186016020526040902082905581612eed57828555612f39565b60008281526001808701602052604090912001548403612f225760008281526001808701602052604090912001839055612f39565b600082815260018601602052604090206002018390555b505060008181526001938401602052604080822090940183905591825291902055565b60008181526001808401602052604080832091820180549254838552918420600201549385905283905590918015612fa257600081815260018601602052604090208490555b6000838152600186016020526040902082905581612fc25782855561300e565b60008281526001860160205260409020600201548403612ff7576000828152600186016020526040902060020183905561300e565b600082815260018087016020526040909120018390555b5050600081815260019093016020526040808420600201839055918352912055565b600061303d848484613086565b80156114f557506114f584846131bb565b6000918252600190920160205260409020600301805465ffffffffffff9092166101000266ffffffffffff0019909216919091179055565b600082815260018085016020908152604080842065ffffffffffff808716808752600683018552838720845160a0810186528154808516808352600160301b8204861698830198909852600160601b900490931694830194909452948301546001600160a01b03166060820152600290920154608083015285939092146131135760009350505050610bc2565b5b604081015165ffffffffffff161561319c5760409081015165ffffffffffff808216600090815260068501602090815290849020845160a08101865281548085168252600160301b8104851693820193909352600160601b9092049092169381019390935260018101546001600160a01b031660608401526002015460808301529250613114565b5060030154610100900465ffffffffffff908116911614949350505050565b815460009082036131ce575060016106d3565b815b60008181526001850160205260409020541561324257600081815260018086016020526040808320548084529220908101548314801590613215575082816002015414155b1561322657600093505050506106d3565b8554820361323a57600193505050506106d3565b5090506131d0565b5060009392505050565b6040518060800160405280600065ffffffffffff16815260200160006001600160a01b0316815260200160008152602001600081525090565b803560ff81168114611e7157600080fd5b6000602082840312156132a857600080fd5b610bc282613285565b600081518084526020808501945080840160005b838110156132e1578151875295820195908201906001016132c5565b509495945050505050565b6040815260006132ff60408301856132b1565b905065ffffffffffff831660208301529392505050565b858152602081018590526040810184905261016081016133686060830185805165ffffffffffff1682526020808201516001600160a01b03169083015260408082015190830152606090810151910152565b825165ffffffffffff1660e083015260208301516001600160a01b0316610100830152604083015161012083015260608301516101408301529695505050505050565b634e487b7160e01b600052604160045260246000fd5b600060208083850312156133d457600080fd5b823567ffffffffffffffff808211156133ec57600080fd5b818501915085601f83011261340057600080fd5b813581811115613412576134126133ab565b8060051b604051601f19603f83011681018181108582111715613437576134376133ab565b60405291825284820192508381018501918883111561345557600080fd5b938501935b828510156119965761346b85613285565b8452938501939285019261345a565b602081526000610bc260208301846132b1565b6000806000606084860312156134a257600080fd5b505081359360208301359350604090920135919050565b6000602082840312156134cb57600080fd5b5035919050565b6000806000606084860312156134e757600080fd5b6134f084613285565b95602085013595506040909401359392505050565b60808152600061351860808301876132b1565b828103602084015261352a81876132b1565b9050828103604084015261353e81866132b1565b91505082606083015295945050505050565b60008060006060848603121561356557600080fd5b61356e84613285565b925061357c60208501613285565b9150604084013590509250925092565b6000806040838503121561359f57600080fd5b6135a883613285565b946020939093013593505050565b634e487b7160e01b600052602160045260246000fd5b634e487b7160e01b600052603260045260246000fd5b634e487b7160e01b600052601160045260246000fd5b60006001820161360a5761360a6135e2565b5060010190565b818103818111156106d3576106d36135e2565b600081613633576136336135e2565b506000190190565b80820281158282048414176106d3576106d36135e2565b808201808211156106d3576106d36135e2565b600060ff821660ff810361367b5761367b6135e2565b60010192915050565b6000826136a157634e487b7160e01b600052601260045260246000fd5b500490565b60208082526035908201527f4f7264657253746174697374696373547265654c69623a205374617274696e676040820152742076616c75652063616e6e6f74206265207a65726f60581b60608201526080019056fea2646970667358221220e5d109928a791290228fd4d11a676fb3232a0c5857abdd3901fcaa2fcc08102a64736f6c63430008130033",
  "devdoc": {
    "kind": "dev",
    "methods": {},
    "version": 1
  },
  "userdoc": {
    "kind": "user",
    "methods": {},
    "version": 1
  },
  "storageLayout": {
    "storage": [],
    "types": null
  }
}