{
  "address": "0xE2accB646261308B30899C4C83B47C0dBC6A3308",
  "abi": [
    {
      "anonymous": false,
      "inputs": [
        {
          "indexed": true,
          "internalType": "bytes32",
          "name": "id",
          "type": "bytes32"
        },
        {
          "indexed": true,
          "internalType": "address",
          "name": "proxyAddress",
          "type": "address"
        },
        {
          "indexed": true,
          "internalType": "address",
          "name": "implementationAddress",
          "type": "address"
        }
      ],
      "name": "BeaconProxyCreated",
      "type": "event"
    },
    {
      "anonymous": false,
      "inputs": [
        {
          "indexed": true,
          "internalType": "bytes32",
          "name": "id",
          "type": "bytes32"
        },
        {
          "indexed": true,
          "internalType": "address",
          "name": "proxyAddress",
          "type": "address"
        },
        {
          "indexed": true,
          "internalType": "address",
          "name": "newImplementationAddress",
          "type": "address"
        },
        {
          "indexed": false,
          "internalType": "address",
          "name": "oldImplementationAddress",
          "type": "address"
        }
      ],
      "name": "BeaconProxyUpdated",
      "type": "event"
    },
    {
      "anonymous": false,
      "inputs": [
        {
          "indexed": false,
          "internalType": "bytes32",
          "name": "name",
          "type": "bytes32"
        },
        {
          "indexed": false,
          "internalType": "address",
          "name": "destination",
          "type": "address"
        }
      ],
      "name": "CacheUpdated",
      "type": "event"
    },
    {
      "anonymous": false,
      "inputs": [
        {
          "indexed": false,
          "internalType": "uint8",
          "name": "version",
          "type": "uint8"
        }
      ],
      "name": "Initialized",
      "type": "event"
    },
    {
      "anonymous": false,
      "inputs": [
        {
          "indexed": true,
          "internalType": "address",
          "name": "previousOwner",
          "type": "address"
        },
        {
          "indexed": true,
          "internalType": "address",
          "name": "newOwner",
          "type": "address"
        }
      ],
      "name": "OwnershipTransferred",
      "type": "event"
    },
    {
      "inputs": [],
      "name": "acceptedContracts",
      "outputs": [
        {
          "internalType": "bytes32[]",
          "name": "contracts",
          "type": "bytes32[]"
        }
      ],
      "stateMutability": "pure",
      "type": "function"
    },
    {
      "inputs": [],
      "name": "buildCache",
      "outputs": [],
      "stateMutability": "nonpayable",
      "type": "function"
    },
    {
      "inputs": [
        {
          "internalType": "bytes32",
          "name": "_ccy",
          "type": "bytes32"
        },
        {
          "internalType": "uint256",
          "name": "_basisDate",
          "type": "uint256"
        },
        {
          "internalType": "uint256",
          "name": "_maturity",
          "type": "uint256"
        }
      ],
      "name": "deployLendingMarket",
      "outputs": [
        {
          "internalType": "address",
          "name": "market",
          "type": "address"
        }
      ],
      "stateMutability": "nonpayable",
      "type": "function"
    },
    {
      "inputs": [
        {
          "internalType": "bytes32",
          "name": "beaconName",
          "type": "bytes32"
        }
      ],
      "name": "getBeaconProxyAddress",
      "outputs": [
        {
          "internalType": "address",
          "name": "beaconProxyAddress",
          "type": "address"
        }
      ],
      "stateMutability": "view",
      "type": "function"
    },
    {
      "inputs": [
        {
          "internalType": "address",
          "name": "_owner",
          "type": "address"
        },
        {
          "internalType": "address",
          "name": "_resolver",
          "type": "address"
        }
      ],
      "name": "initialize",
      "outputs": [],
      "stateMutability": "nonpayable",
      "type": "function"
    },
    {
      "inputs": [],
      "name": "isResolverCached",
      "outputs": [
        {
          "internalType": "bool",
          "name": "",
          "type": "bool"
        }
      ],
      "stateMutability": "view",
      "type": "function"
    },
    {
      "inputs": [],
      "name": "owner",
      "outputs": [
        {
          "internalType": "address",
          "name": "",
          "type": "address"
        }
      ],
      "stateMutability": "view",
      "type": "function"
    },
    {
      "inputs": [],
      "name": "renounceOwnership",
      "outputs": [],
      "stateMutability": "nonpayable",
      "type": "function"
    },
    {
      "inputs": [],
      "name": "requiredContracts",
      "outputs": [
        {
          "internalType": "bytes32[]",
          "name": "contracts",
          "type": "bytes32[]"
        }
      ],
      "stateMutability": "pure",
      "type": "function"
    },
    {
      "inputs": [],
      "name": "resolver",
      "outputs": [
        {
          "internalType": "contract IAddressResolver",
          "name": "",
          "type": "address"
        }
      ],
      "stateMutability": "view",
      "type": "function"
    },
    {
      "inputs": [
        {
          "internalType": "address",
          "name": "newImpl",
          "type": "address"
        }
      ],
      "name": "setLendingMarketImpl",
      "outputs": [],
      "stateMutability": "nonpayable",
      "type": "function"
    },
    {
      "inputs": [
        {
          "internalType": "address",
          "name": "newOwner",
          "type": "address"
        }
      ],
      "name": "transferOwnership",
      "outputs": [],
      "stateMutability": "nonpayable",
      "type": "function"
    }
  ],
  "transactionHash": "0x83856b882fbccea495a2931494c027ebb2bbc049f3e53a9b8575f0b1f80ff305",
  "args": [],
  "numDeployments": 4,
  "solcInputHash": "5a771bea4833c0e50741ce01d014de75",
  "bytecode": "0x608060405234801561001057600080fd5b50612500806100206000396000f3fe60806040523480156200001157600080fd5b5060043610620000c35760003560e01c8063485cc955116200007a578063485cc955146200015d578063715018a6146200017457806380779592146200017e5780638da5cb5b1462000195578063e0997659146200019f578063f2fde38b14620001a757600080fd5b80630470784414620000c857806304f3bcec14620000e157806329985e5a14620001085780632af64bd314620001125780633d03b9da146200012d5780634672758f1462000146575b600080fd5b620000df620000d936600462000f45565b620001be565b005b620000eb6200021b565b6040516001600160a01b0390911681526020015b60405180910390f35b620000df6200023d565b6200011c620003f7565b6040519015158152602001620000ff565b620001376200056f565b604051620000ff919062000f6c565b620000eb6200015736600462000fb2565b620005d1565b620000df6200016e36600462000fdf565b620006eb565b620000df62000883565b620000eb6200018f3660046200101d565b620008c5565b620000eb620009c2565b606062000137565b620000df620001b836600462000f45565b620009eb565b33620001c9620009c2565b6001600160a01b031614620001fb5760405162461bcd60e51b8152600401620001f29062001037565b60405180910390fd5b620002176c13195b991a5b99d3585c9ad95d609a1b8262000a94565b5050565b60006000805160206200248b8339815191525b546001600160a01b0316919050565b6000620002496200056f565b905060005b8151811015620002175760008282815181106200026f576200026f6200106c565b602002602001015190506000620002926000805160206200248b83398151915290565b54604080517f5265736f6c766572206d697373696e67207461726765743a200000000000000060208201526039808201869052825180830390910181526059820192839052636795dbcd60e01b9092526001600160a01b0390921691636795dbcd916200030591869190605d01620010d2565b60206040518083038186803b1580156200031e57600080fd5b505afa15801562000333573d6000803e3d6000fd5b505050506040513d601f19601f82011682018060405250810190620003599190620010f5565b60008381527f4abde63c3e81aefa5764b017968bc473e83e093d7e1a10247d19e0a3e4124019602090815260409182902080546001600160a01b0319166001600160a01b03851690811790915582518681529182015281519293507f88a93678a3692f6789d9546fc621bf7234b101ddb7d4fe479455112831b8aa68929081900390910190a150508080620003ee9062001115565b9150506200024e565b600080620004046200056f565b905060005b8151811015620005665760008282815181106200042a576200042a6200106c565b602002602001015190506200044b6000805160206200248b83398151915290565b600082815260019190910160205260409020546001600160a01b03166000805160206200248b833981519152546040516321f8a72160e01b8152600481018490526001600160a01b03909116906321f8a7219060240160206040518083038186803b158015620004ba57600080fd5b505afa158015620004cf573d6000803e3d6000fd5b505050506040513d601f19601f82011682018060405250810190620004f59190620010f5565b6001600160a01b031614158062000540575060008181527f4abde63c3e81aefa5764b017968bc473e83e093d7e1a10247d19e0a3e412401960205260409020546001600160a01b0316155b1562000550576000935050505090565b50806200055d8162001115565b91505062000409565b50600191505090565b60408051600180825281830190925260609160208083019080368337019050509050762632b73234b733a6b0b935b2ba21b7b73a3937b63632b960491b81600081518110620005c257620005c26200106c565b60200260200101818152505090565b600033620005f9762632b73234b733a6b0b935b2ba21b7b73a3937b63632b960491b62000c9c565b6001600160a01b031614620006635760405162461bcd60e51b815260206004820152602960248201527f43616c6c6572206973206e6f7420746865204c656e64696e674d61726b65744360448201526837b73a3937b63632b960b91b6064820152608401620001f2565b60006200066f6200021b565b6040516001600160a01b03909116602482015260448101869052606481018490526084810185905260a40160408051601f198184030181529190526020810180516001600160e01b031663b7c1d52760e01b1790529050620006e26c13195b991a5b99d3585c9ad95d609a1b8262000d30565b95945050505050565b600054610100900460ff16158080156200070c5750600054600160ff909116105b80620007285750303b15801562000728575060005460ff166001145b6200078d5760405162461bcd60e51b815260206004820152602e60248201527f496e697469616c697a61626c653a20636f6e747261637420697320616c72656160448201526d191e481a5b9a5d1a585b1a5e995960921b6064820152608401620001f2565b6000805460ff191660011790558015620007b1576000805461ff0019166101001790555b6000620007bd62000de0565b6001600160a01b03161415620008215760405162461bcd60e51b815260206004820152602260248201527f4d7573742062652063616c6c65642066726f6d2070726f787920636f6e74726160448201526118dd60f21b6064820152608401620001f2565b6200082c8362000e09565b620008378262000e7a565b80156200087e576000805461ff0019169055604051600181527f7f26b83ff96e1f2b6a682f133852f6798a09c465da95921460cefb38474024989060200160405180910390a15b505050565b336200088e620009c2565b6001600160a01b031614620008b75760405162461bcd60e51b8152600401620001f29062001037565b620008c3600062000e09565b565b6000600080516020620024ab833981519152600083815260209182526040808220548151635c60da1b60e01b815291516001600160a01b03909116945084938492635c60da1b9260048083019392829003018186803b1580156200092857600080fd5b505afa1580156200093d573d6000803e3d6000fd5b505050506040513d601f19601f82011682018060405250810190620009639190620010f5565b6001600160a01b03161415620009bc5760405162461bcd60e51b815260206004820152601e60248201527f426561636f6e2070726f78792061646472657373206e6f7420666f756e6400006044820152606401620001f2565b50919050565b60007f9acda75aebd150dd434541a4747a6dc606f4f1a59662477e67daf1fc0bf9e0aa6200022e565b33620009f6620009c2565b6001600160a01b03161462000a1f5760405162461bcd60e51b8152600401620001f29062001037565b6001600160a01b03811662000a865760405162461bcd60e51b815260206004820152602660248201527f4f776e61626c653a206e6577206f776e657220697320746865207a65726f206160448201526564647265737360d01b6064820152608401620001f2565b62000a918162000e09565b50565b6000828152600080516020620024ab83398151915260205260408120546001600160a01b0316908162000b72578260405162000ad09062000f13565b6001600160a01b039091168152602001604051809103906000f08015801562000afd573d6000803e3d6000fd5b50915081905080600080516020620024ab8339815191526000868152602091909152604080822080546001600160a01b0319166001600160a01b03948516179055518583169285169187917f78043d67bf0de36bf75931f0f0f0acb1716d44b7b6d13ed5acd8c71b231463489190a462000c95565b8190506000816001600160a01b0316635c60da1b6040518163ffffffff1660e01b815260040160206040518083038186803b15801562000bb157600080fd5b505afa15801562000bc6573d6000803e3d6000fd5b505050506040513d601f19601f8201168201806040525081019062000bec9190620010f5565b604051631b2ce7f360e11b81526001600160a01b03868116600483015291925090831690633659cfe690602401600060405180830381600087803b15801562000c3457600080fd5b505af115801562000c49573d6000803e3d6000fd5b50506040516001600160a01b03848116825280881693508616915087907fd1beadd7ba3c8b48046a052671c2a5c0ebb8063834cd8035aaf3da097d85111a9060200160405180910390a4505b5092915050565b60008181527f4abde63c3e81aefa5764b017968bc473e83e093d7e1a10247d19e0a3e41240196020908152604080832054815170026b4b9b9b4b7339030b2323932b9b99d1607d1b9381019390935260318084018690528251808503909101815260519093019091526001600160a01b0316908162000c955760405162461bcd60e51b8152600401620001f291906200113f565b6000828152600080516020620024ab83398151915260205260408120546001600160a01b03168062000d9d5760405162461bcd60e51b8152602060048201526015602482015274426561636f6e2070726f787920697320656d70747960581b6044820152606401620001f2565b808360405162000dad9062000f21565b62000dba92919062001154565b604051809103906000f08015801562000dd7573d6000803e3d6000fd5b50949350505050565b60007f360894a13ba1a3210667c828492db98dca3e2076cc3735a920a3ca505d382bbc6200022e565b7f9acda75aebd150dd434541a4747a6dc606f4f1a59662477e67daf1fc0bf9e0aa80546001600160a01b038381166001600160a01b0319831681179093556040519116919082907f8be0079c531659141344cd1fd0a4f28419497f9722a3daafe3b4186f6b6457e090600090a35050565b6000805160206200248b833981519152546001600160a01b03161562000ee35760405162461bcd60e51b815260206004820152601b60248201527f7265736f6c766572207265676973746572656420616c726561647900000000006044820152606401620001f2565b6000805160206200248b83398151915280546001600160a01b0319166001600160a01b0392909216919091179055565b6104e4806200117b83390190565b610e2c806200165f83390190565b6001600160a01b038116811462000a9157600080fd5b60006020828403121562000f5857600080fd5b813562000f658162000f2f565b9392505050565b6020808252825182820181905260009190848201906040850190845b8181101562000fa65783518352928401929184019160010162000f88565b50909695505050505050565b60008060006060848603121562000fc857600080fd5b505081359360208301359350604090920135919050565b6000806040838503121562000ff357600080fd5b8235620010008162000f2f565b91506020830135620010128162000f2f565b809150509250929050565b6000602082840312156200103057600080fd5b5035919050565b6020808252818101527f4f776e61626c653a2063616c6c6572206973206e6f7420746865206f776e6572604082015260600190565b634e487b7160e01b600052603260045260246000fd5b6000815180845260005b81811015620010aa576020818501810151868301820152016200108c565b81811115620010bd576000602083870101525b50601f01601f19169290920160200192915050565b828152604060208201526000620010ed604083018462001082565b949350505050565b6000602082840312156200110857600080fd5b815162000f658162000f2f565b60006000198214156200113857634e487b7160e01b600052601160045260246000fd5b5060010190565b60208152600062000f65602083018462001082565b6001600160a01b0383168152604060208201819052600090620010ed908301846200108256fe608060405234801561001057600080fd5b506040516104e43803806104e483398101604081905261002f91610151565b61003833610047565b61004181610097565b50610181565b600080546001600160a01b038381166001600160a01b0319831681178455604051919092169283917f8be0079c531659141344cd1fd0a4f28419497f9722a3daafe3b4186f6b6457e09190a35050565b6100aa8161014260201b6101a01760201c565b6101205760405162461bcd60e51b815260206004820152603360248201527f5570677261646561626c65426561636f6e3a20696d706c656d656e746174696f60448201527f6e206973206e6f74206120636f6e747261637400000000000000000000000000606482015260840160405180910390fd5b600180546001600160a01b0319166001600160a01b0392909216919091179055565b6001600160a01b03163b151590565b60006020828403121561016357600080fd5b81516001600160a01b038116811461017a57600080fd5b9392505050565b610354806101906000396000f3fe608060405234801561001057600080fd5b50600436106100575760003560e01c80633659cfe61461005c5780635c60da1b14610071578063715018a61461009a5780638da5cb5b146100a2578063f2fde38b146100b3575b600080fd5b61006f61006a3660046102ee565b6100c6565b005b6001546001600160a01b03165b6040516001600160a01b03909116815260200160405180910390f35b61006f61010e565b6000546001600160a01b031661007e565b61006f6100c13660046102ee565b610122565b6100ce6101af565b6100d781610209565b6040516001600160a01b038216907fbc7cd75a20ee27fd9adebab32041f755214dbc6bffa90cc0225b39da2e5c2d3b90600090a250565b6101166101af565b610120600061029e565b565b61012a6101af565b6001600160a01b0381166101945760405162461bcd60e51b815260206004820152602660248201527f4f776e61626c653a206e6577206f776e657220697320746865207a65726f206160448201526564647265737360d01b60648201526084015b60405180910390fd5b61019d8161029e565b50565b6001600160a01b03163b151590565b6000546001600160a01b031633146101205760405162461bcd60e51b815260206004820181905260248201527f4f776e61626c653a2063616c6c6572206973206e6f7420746865206f776e6572604482015260640161018b565b6001600160a01b0381163b61027c5760405162461bcd60e51b815260206004820152603360248201527f5570677261646561626c65426561636f6e3a20696d706c656d656e746174696f6044820152721b881a5cc81b9bdd08184818dbdb9d1c9858dd606a1b606482015260840161018b565b600180546001600160a01b0319166001600160a01b0392909216919091179055565b600080546001600160a01b038381166001600160a01b0319831681178455604051919092169283917f8be0079c531659141344cd1fd0a4f28419497f9722a3daafe3b4186f6b6457e09190a35050565b60006020828403121561030057600080fd5b81356001600160a01b038116811461031757600080fd5b939250505056fea2646970667358221220bd860f3c6256e61fa4d4dc310eb9766051e97afa33b7bf53183da7de49afe63a64736f6c63430008090033608060405260405162000e2c38038062000e2c8339810160408190526200002691620005de565b818162000036828260006200004c565b506200004490503362000131565b50506200071d565b62000057836200018c565b6040516001600160a01b038416907f1cf3b03a6cf19fa2baba4df148e9dcabedea7f8a5c07840e207e5c089be95d3e90600090a2600082511180620000995750805b156200012c576200012a836001600160a01b0316635c60da1b6040518163ffffffff1660e01b815260040160206040518083038186803b158015620000dd57600080fd5b505afa158015620000f2573d6000803e3d6000fd5b505050506040513d601f19601f82011682018060405250810190620001189190620006ac565b836200034e60201b6200016a1760201c565b505b505050565b7f7e644d79422f17c01e4894b5f4f588d331ebfa28653d42ae832dc59e38c9798f6200015c6200037d565b604080516001600160a01b03928316815291841660208301520160405180910390a16200018981620003b6565b50565b620001a2816200044660201b620001961760201c565b620002025760405162461bcd60e51b815260206004820152602560248201527f455243313936373a206e657720626561636f6e206973206e6f74206120636f6e6044820152641d1c9858dd60da1b60648201526084015b60405180910390fd5b6200028c816001600160a01b0316635c60da1b6040518163ffffffff1660e01b815260040160206040518083038186803b1580156200024057600080fd5b505afa15801562000255573d6000803e3d6000fd5b505050506040513d601f19601f820116820180604052508101906200027b9190620006ac565b6200044660201b620001961760201c565b620002f35760405162461bcd60e51b815260206004820152603060248201527f455243313936373a20626561636f6e20696d706c656d656e746174696f6e206960448201526f1cc81b9bdd08184818dbdb9d1c9858dd60821b6064820152608401620001f9565b806200032d7fa3f0ad74e5423aebfd80d3ef4346578335a9a72aeaee59ff6cb3582b35133d5060001b6200045560201b620001a51760201c565b80546001600160a01b0319166001600160a01b039290921691909117905550565b606062000376838360405180606001604052806027815260200162000e056027913962000458565b9392505050565b6000620003a760008051602062000de583398151915260001b6200045560201b620001a51760201c565b546001600160a01b0316919050565b6001600160a01b0381166200041d5760405162461bcd60e51b815260206004820152602660248201527f455243313936373a206e65772061646d696e20697320746865207a65726f206160448201526564647265737360d01b6064820152608401620001f9565b806200032d60008051602062000de583398151915260001b6200045560201b620001a51760201c565b6001600160a01b03163b151590565b90565b60606001600160a01b0384163b620004c25760405162461bcd60e51b815260206004820152602660248201527f416464726573733a2064656c65676174652063616c6c20746f206e6f6e2d636f6044820152651b9d1c9858dd60d21b6064820152608401620001f9565b600080856001600160a01b031685604051620004df9190620006ca565b600060405180830381855af49150503d80600081146200051c576040519150601f19603f3d011682016040523d82523d6000602084013e62000521565b606091505b509092509050620005348282866200053e565b9695505050505050565b606083156200054f57508162000376565b825115620005605782518084602001fd5b8160405162461bcd60e51b8152600401620001f99190620006e8565b80516001600160a01b03811681146200059457600080fd5b919050565b634e487b7160e01b600052604160045260246000fd5b60005b83811015620005cc578181015183820152602001620005b2565b838111156200012a5750506000910152565b60008060408385031215620005f257600080fd5b620005fd836200057c565b60208401519092506001600160401b03808211156200061b57600080fd5b818501915085601f8301126200063057600080fd5b81518181111562000645576200064562000599565b604051601f8201601f19908116603f0116810190838211818310171562000670576200067062000599565b816040528281528860208487010111156200068a57600080fd5b6200069d836020830160208801620005af565b80955050505050509250929050565b600060208284031215620006bf57600080fd5b62000376826200057c565b60008251620006de818460208701620005af565b9190910192915050565b602081526000825180602084015262000709816040850160208701620005af565b601f01601f19169190910160400192915050565b6106b8806200072d6000396000f3fe6080604052600436106100435760003560e01c80633659cfe61461005a5780635c60da1b1461007a5780638f283970146100ab578063f851a440146100cb57610052565b36610052576100506100e0565b005b6100506100e0565b34801561006657600080fd5b506100506100753660046105a2565b6100f2565b34801561008657600080fd5b5061008f610127565b6040516001600160a01b03909116815260200160405180910390f35b3480156100b757600080fd5b506100506100c63660046105a2565b610136565b3480156100d757600080fd5b5061008f610160565b6100f06100eb6101a8565b610222565b565b6100fa610246565b6001600160a01b0316336001600160a01b0316141561011f5761011c81610279565b50565b61011c6100e0565b60006101316101a8565b905090565b61013e610246565b6001600160a01b0316336001600160a01b0316141561011f5761011c816102b9565b6000610131610246565b606061018f838360405180606001604052806027815260200161065c6027913961030d565b9392505050565b6001600160a01b03163b151590565b90565b60006101b26103ef565b6001600160a01b0316635c60da1b6040518163ffffffff1660e01b815260040160206040518083038186803b1580156101ea57600080fd5b505afa1580156101fe573d6000803e3d6000fd5b505050506040513d601f19601f8201168201806040525081019061013191906105bf565b3660008037600080366000845af43d6000803e808015610241573d6000f35b3d6000fd5b60007fb53127684a568b3173ae13b9f8a6016e243e63b6e8ee1178d6a717850b5d61035b546001600160a01b0316919050565b61028281610417565b6040516001600160a01b038216907fbc7cd75a20ee27fd9adebab32041f755214dbc6bffa90cc0225b39da2e5c2d3b90600090a250565b7f7e644d79422f17c01e4894b5f4f588d331ebfa28653d42ae832dc59e38c9798f6102e2610246565b604080516001600160a01b03928316815291841660208301520160405180910390a161011c816104c8565b60606001600160a01b0384163b61037a5760405162461bcd60e51b815260206004820152602660248201527f416464726573733a2064656c65676174652063616c6c20746f206e6f6e2d636f6044820152651b9d1c9858dd60d21b60648201526084015b60405180910390fd5b600080856001600160a01b031685604051610395919061060c565b600060405180830381855af49150503d80600081146103d0576040519150601f19603f3d011682016040523d82523d6000602084013e6103d5565b606091505b50915091506103e5828286610554565b9695505050505050565b60007fa3f0ad74e5423aebfd80d3ef4346578335a9a72aeaee59ff6cb3582b35133d5061026a565b6001600160a01b0381163b6104845760405162461bcd60e51b815260206004820152602d60248201527f455243313936373a206e657720696d706c656d656e746174696f6e206973206e60448201526c1bdd08184818dbdb9d1c9858dd609a1b6064820152608401610371565b807f360894a13ba1a3210667c828492db98dca3e2076cc3735a920a3ca505d382bbc5b80546001600160a01b0319166001600160a01b039290921691909117905550565b6001600160a01b03811661052d5760405162461bcd60e51b815260206004820152602660248201527f455243313936373a206e65772061646d696e20697320746865207a65726f206160448201526564647265737360d01b6064820152608401610371565b807fb53127684a568b3173ae13b9f8a6016e243e63b6e8ee1178d6a717850b5d61036104a7565b6060831561056357508161018f565b8251156105735782518084602001fd5b8160405162461bcd60e51b81526004016103719190610628565b6001600160a01b038116811461011c57600080fd5b6000602082840312156105b457600080fd5b813561018f8161058d565b6000602082840312156105d157600080fd5b815161018f8161058d565b60005b838110156105f75781810151838201526020016105df565b83811115610606576000848401525b50505050565b6000825161061e8184602087016105dc565b9190910192915050565b60208152600082518060208401526106478160408501602087016105dc565b601f01601f1916919091016040019291505056fe416464726573733a206c6f772d6c6576656c2064656c65676174652063616c6c206661696c6564a2646970667358221220f6fee21bb8eb753a42dfc1c8f826e6d7277c4b10f8ce653b156cb600671172c864736f6c63430008090033b53127684a568b3173ae13b9f8a6016e243e63b6e8ee1178d6a717850b5d6103416464726573733a206c6f772d6c6576656c2064656c65676174652063616c6c206661696c65644abde63c3e81aefa5764b017968bc473e83e093d7e1a10247d19e0a3e4124018d25af282180dbd50d3ba79f291b857e1b411793b87e22e0b91e41df4deff13a9a2646970667358221220cbd0fb49c0e69294883126a72e24416a1b1bba4d6be26ea7112cdf94b17d478064736f6c63430008090033",
  "implementation": "0xea1E1492235F7997f928517e08F824fA0cA1AaB1",
  "devdoc": {
    "kind": "dev",
    "methods": {
      "acceptedContracts()": {
        "details": "The contact name listed in this method is also needed to be listed `requiredContracts` method."
      },
      "deployLendingMarket(bytes32,uint256,uint256)": {
        "params": {
          "_ccy": "Main currency for new lending market"
        },
        "returns": {
          "market": "The proxy contract address of created lending market"
        }
      },
      "getBeaconProxyAddress(bytes32)": {
        "params": {
          "beaconName": "The cache name of the beacon proxy"
        },
        "returns": {
          "beaconProxyAddress": "The beacon proxy address"
        }
      },
      "initialize(address,address)": {
        "details": "Function is invoked by the proxy contract when the contract is added to the ProxyController.",
        "params": {
          "_owner": "The address of the contract owner",
          "_resolver": "The address of the Address Resolver contract"
        }
      },
      "owner()": {
        "details": "Returns the address of the current owner."
      },
      "renounceOwnership()": {
        "details": "Leaves the contract without owner. It will not be possible to call `onlyOwner` functions anymore. Can only be called by the current owner. NOTE: Renouncing ownership will leave the contract without an owner, thereby removing any functionality that is only available to the owner."
      },
      "requiredContracts()": {
        "details": "The contract name list is in `./libraries/Contracts.sol`."
      },
      "setLendingMarketImpl(address)": {
        "params": {
          "newImpl": "The address of implementation contract"
        }
      },
      "transferOwnership(address)": {
        "details": "Transfers ownership of the contract to a new account (`newOwner`). Can only be called by the current owner."
      }
    },
    "version": 1
  },
  "userdoc": {
    "kind": "user",
    "methods": {
      "acceptedContracts()": {
        "notice": "Returns contract names that can call this contract."
      },
      "deployLendingMarket(bytes32,uint256,uint256)": {
        "notice": "Deploys new Lending Market and save address at lendingMarkets mapping.Reverts on deployment market with existing currency and term"
      },
      "getBeaconProxyAddress(bytes32)": {
        "notice": "Gets the beacon proxy address to the selected name."
      },
      "initialize(address,address)": {
        "notice": "Initializes the contract."
      },
      "requiredContracts()": {
        "notice": "Returns the contract names used in this contract."
      },
      "setLendingMarketImpl(address)": {
        "notice": "Sets the implementation contract of LendingMarket"
      }
    },
    "notice": "Implements the management of beacon proxy contracts. All beacon proxy contracts are deployed from this contract. This contract is also used to update the beacon proxy implementation.",
    "version": 1
  },
  "storageLayout": {
    "storage": [
      {
        "astId": 790,
        "contract": "contracts/BeaconProxyController.sol:BeaconProxyController",
        "label": "_initialized",
        "offset": 0,
        "slot": "0",
        "type": "t_uint8"
      },
      {
        "astId": 793,
        "contract": "contracts/BeaconProxyController.sol:BeaconProxyController",
        "label": "_initializing",
        "offset": 1,
        "slot": "0",
        "type": "t_bool"
      }
    ],
    "types": {
      "t_bool": {
        "encoding": "inplace",
        "label": "bool",
        "numberOfBytes": "1"
      },
      "t_uint8": {
        "encoding": "inplace",
        "label": "uint8",
        "numberOfBytes": "1"
      }
    }
  }
}