{
  "address": "0x5db49184815393e994292592A44D6aFfbF6090a9",
  "abi": [
    {
      "anonymous": false,
      "inputs": [
        {
          "indexed": true,
          "internalType": "bytes32",
          "name": "ccy",
          "type": "bytes32"
        },
        {
          "indexed": false,
          "internalType": "uint256",
          "name": "haircut",
          "type": "uint256"
        }
      ],
      "name": "CurrencyAdded",
      "type": "event"
    },
    {
      "anonymous": false,
      "inputs": [
        {
          "indexed": true,
          "internalType": "bytes32",
          "name": "ccy",
          "type": "bytes32"
        }
      ],
      "name": "CurrencyRemoved",
      "type": "event"
    },
    {
      "anonymous": false,
      "inputs": [
        {
          "indexed": true,
          "internalType": "bytes32",
          "name": "ccy",
          "type": "bytes32"
        },
        {
          "indexed": false,
          "internalType": "uint256",
          "name": "haircut",
          "type": "uint256"
        }
      ],
      "name": "HaircutUpdated",
      "type": "event"
    },
    {
      "anonymous": false,
      "inputs": [
        {
          "indexed": false,
          "internalType": "uint8",
          "name": "version",
          "type": "uint8"
        }
      ],
      "name": "Initialized",
      "type": "event"
    },
    {
      "anonymous": false,
      "inputs": [
        {
          "indexed": true,
          "internalType": "address",
          "name": "previousOwner",
          "type": "address"
        },
        {
          "indexed": true,
          "internalType": "address",
          "name": "newOwner",
          "type": "address"
        }
      ],
      "name": "OwnershipTransferred",
      "type": "event"
    },
    {
      "anonymous": false,
      "inputs": [
        {
          "indexed": false,
          "internalType": "bytes32",
          "name": "ccy",
          "type": "bytes32"
        }
      ],
      "name": "PriceFeedRemoved",
      "type": "event"
    },
    {
      "anonymous": false,
      "inputs": [
        {
          "indexed": false,
          "internalType": "bytes32",
          "name": "ccy",
          "type": "bytes32"
        },
        {
          "indexed": false,
          "internalType": "uint256",
          "name": "decimals",
          "type": "uint256"
        },
        {
          "indexed": true,
          "internalType": "address[]",
          "name": "priceFeeds",
          "type": "address[]"
        }
      ],
      "name": "PriceFeedUpdated",
      "type": "event"
    },
    {
      "inputs": [
        {
          "internalType": "bytes32",
          "name": "_ccy",
          "type": "bytes32"
        },
        {
          "internalType": "uint8",
          "name": "_decimals",
          "type": "uint8"
        },
        {
          "internalType": "uint256",
          "name": "_haircut",
          "type": "uint256"
        },
        {
          "internalType": "address[]",
          "name": "_priceFeeds",
          "type": "address[]"
        }
      ],
      "name": "addCurrency",
      "outputs": [],
      "stateMutability": "nonpayable",
      "type": "function"
    },
    {
      "inputs": [
        {
          "internalType": "bytes32",
          "name": "_fromCcy",
          "type": "bytes32"
        },
        {
          "internalType": "bytes32",
          "name": "_toCcy",
          "type": "bytes32"
        },
        {
          "internalType": "uint256",
          "name": "_amount",
          "type": "uint256"
        }
      ],
      "name": "convert",
      "outputs": [
        {
          "internalType": "uint256",
          "name": "amount",
          "type": "uint256"
        }
      ],
      "stateMutability": "view",
      "type": "function"
    },
    {
      "inputs": [
        {
          "internalType": "bytes32",
          "name": "_ccy",
          "type": "bytes32"
        },
        {
          "internalType": "uint256",
          "name": "_amount",
          "type": "uint256"
        }
      ],
      "name": "convertFromBaseCurrency",
      "outputs": [
        {
          "internalType": "uint256",
          "name": "amount",
          "type": "uint256"
        }
      ],
      "stateMutability": "view",
      "type": "function"
    },
    {
      "inputs": [
        {
          "internalType": "bytes32",
          "name": "_ccy",
          "type": "bytes32"
        },
        {
          "internalType": "uint256",
          "name": "_amount",
          "type": "uint256"
        }
      ],
      "name": "convertToBaseCurrency",
      "outputs": [
        {
          "internalType": "uint256",
          "name": "amount",
          "type": "uint256"
        }
      ],
      "stateMutability": "view",
      "type": "function"
    },
    {
      "inputs": [
        {
          "internalType": "bytes32",
          "name": "_ccy",
          "type": "bytes32"
        },
        {
          "internalType": "int256",
          "name": "_amount",
          "type": "int256"
        }
      ],
      "name": "convertToBaseCurrency",
      "outputs": [
        {
          "internalType": "int256",
          "name": "amount",
          "type": "int256"
        }
      ],
      "stateMutability": "view",
      "type": "function"
    },
    {
      "inputs": [
        {
          "internalType": "bytes32",
          "name": "_ccy",
          "type": "bytes32"
        },
        {
          "internalType": "uint256[]",
          "name": "_amounts",
          "type": "uint256[]"
        }
      ],
      "name": "convertToBaseCurrency",
      "outputs": [
        {
          "internalType": "uint256[]",
          "name": "amounts",
          "type": "uint256[]"
        }
      ],
      "stateMutability": "view",
      "type": "function"
    },
    {
      "inputs": [
        {
          "internalType": "bytes32",
          "name": "_ccy",
          "type": "bytes32"
        }
      ],
      "name": "currencyExists",
      "outputs": [
        {
          "internalType": "bool",
          "name": "",
          "type": "bool"
        }
      ],
      "stateMutability": "view",
      "type": "function"
    },
    {
      "inputs": [],
      "name": "getBaseCurrency",
      "outputs": [
        {
          "internalType": "bytes32",
          "name": "",
          "type": "bytes32"
        }
      ],
      "stateMutability": "view",
      "type": "function"
    },
    {
      "inputs": [],
      "name": "getCurrencies",
      "outputs": [
        {
          "internalType": "bytes32[]",
          "name": "",
          "type": "bytes32[]"
        }
      ],
      "stateMutability": "view",
      "type": "function"
    },
    {
      "inputs": [
        {
          "internalType": "bytes32",
          "name": "_ccy",
          "type": "bytes32"
        }
      ],
      "name": "getDecimals",
      "outputs": [
        {
          "internalType": "uint8",
          "name": "",
          "type": "uint8"
        }
      ],
      "stateMutability": "view",
      "type": "function"
    },
    {
      "inputs": [
        {
          "internalType": "bytes32",
          "name": "_ccy",
          "type": "bytes32"
        }
      ],
      "name": "getHaircut",
      "outputs": [
        {
          "internalType": "uint256",
          "name": "",
          "type": "uint256"
        }
      ],
      "stateMutability": "view",
      "type": "function"
    },
    {
      "inputs": [
        {
          "internalType": "bytes32",
          "name": "_ccy",
          "type": "bytes32"
        }
      ],
      "name": "getLastPrice",
      "outputs": [
        {
          "internalType": "int256",
          "name": "price",
          "type": "int256"
        }
      ],
      "stateMutability": "view",
      "type": "function"
    },
    {
      "inputs": [
        {
          "internalType": "address",
          "name": "_owner",
          "type": "address"
        },
        {
          "internalType": "bytes32",
          "name": "_baseCcy",
          "type": "bytes32"
        }
      ],
      "name": "initialize",
      "outputs": [],
      "stateMutability": "nonpayable",
      "type": "function"
    },
    {
      "inputs": [],
      "name": "owner",
      "outputs": [
        {
          "internalType": "address",
          "name": "",
          "type": "address"
        }
      ],
      "stateMutability": "view",
      "type": "function"
    },
    {
      "inputs": [
        {
          "internalType": "bytes32",
          "name": "_ccy",
          "type": "bytes32"
        }
      ],
      "name": "removeCurrency",
      "outputs": [],
      "stateMutability": "nonpayable",
      "type": "function"
    },
    {
      "inputs": [
        {
          "internalType": "bytes32",
          "name": "_ccy",
          "type": "bytes32"
        }
      ],
      "name": "removePriceFeed",
      "outputs": [],
      "stateMutability": "nonpayable",
      "type": "function"
    },
    {
      "inputs": [],
      "name": "renounceOwnership",
      "outputs": [],
      "stateMutability": "nonpayable",
      "type": "function"
    },
    {
      "inputs": [
        {
          "internalType": "address",
          "name": "newOwner",
          "type": "address"
        }
      ],
      "name": "transferOwnership",
      "outputs": [],
      "stateMutability": "nonpayable",
      "type": "function"
    },
    {
      "inputs": [
        {
          "internalType": "bytes32",
          "name": "_ccy",
          "type": "bytes32"
        },
        {
          "internalType": "uint256",
          "name": "_haircut",
          "type": "uint256"
        }
      ],
      "name": "updateHaircut",
      "outputs": [],
      "stateMutability": "nonpayable",
      "type": "function"
    },
    {
      "inputs": [
        {
          "internalType": "bytes32",
          "name": "_ccy",
          "type": "bytes32"
        },
        {
          "internalType": "uint8",
          "name": "_decimals",
          "type": "uint8"
        },
        {
          "internalType": "address[]",
          "name": "_priceFeeds",
          "type": "address[]"
        }
      ],
      "name": "updatePriceFeed",
      "outputs": [],
      "stateMutability": "nonpayable",
      "type": "function"
    }
  ],
  "transactionHash": "0xa23785beea93c4e199e635b3da60d9ec5fb1da9a13fca48c76d6fd8ab1bd88a2",
  "args": [],
  "numDeployments": 4,
  "solcInputHash": "b57600b51ef0b115c52371ee9eb0c58d",
  "bytecode": "0x608060405234801561001057600080fd5b50611f38806100206000396000f3fe608060405234801561001057600080fd5b506004361061012c5760003560e01c80638a2eae92116100ad578063be13f47c11610071578063be13f47c14610289578063ecd8d2fb1461029c578063efd4ad5a146102a4578063f2fde38b146102b7578063f44a1b35146102ca57600080fd5b80638a2eae921461021d5780638da5cb5b14610230578063964a9d4d146102505780639abdb38a14610263578063b99c6ca81461027657600080fd5b806361c661de116100f457806361c661de146101c75780636ed2f1db146101dc578063715018a6146101ef57806371bee4a1146101f757806378fec6921461020a57600080fd5b806312105fea146101315780631c637a041461015b5780631eae08931461017c5780632491dc8c1461019f5780633d55f475146101b2575b600080fd5b61014461013f3660046117ae565b6102dd565b60405160ff90911681526020015b60405180910390f35b61016e6101693660046117c7565b6102fe565b604051908152602001610152565b61018f61018a3660046117ae565b61036b565b6040519015158152602001610152565b61016e6101ad3660046117ae565b610382565b6101c56101c0366004611844565b6103aa565b005b6101cf610455565b60405161015291906118ae565b61016e6101ea3660046117c7565b61046f565b6101c56104cb565b6101c56102053660046117c7565b610506565b61016e6102183660046117c7565b61056a565b6101cf61022b366004611908565b6105db565b6102386106ff565b6040516001600160a01b039091168152602001610152565b6101c561025e3660046119d2565b610732565b61016e6102713660046117ae565b61079a565b61016e610284366004611a2e565b6107b8565b6101c5610297366004611a76565b6108a7565b61016e610a31565b6101c56102b23660046117ae565b610a41565b6101c56102c5366004611aa0565b610ab4565b6101c56102d83660046117ae565b610b54565b60006102e7610ce0565b600092835260050160205250604090205460ff1690565b600061030983610d04565b15610315575080610365565b61036261032961032485610d18565b610e5d565b610331610ce0565b600086815260059190910160205260409020546103529060ff16600a611bb5565b61035c9085611bc4565b90610eb3565b90505b92915050565b600061036582610379610ce0565b60010190610f24565b600061038d82610d04565b156103a15750670de0b6b3a7640000919050565b61036582610d18565b336103b36106ff565b6001600160a01b0316146103e25760405162461bcd60e51b81526004016103d990611be3565b60405180910390fd5b6103f7856103ee610ce0565b60010190610f3c565b506104028584610f48565b80156104145761041485858484610ff2565b847f79e8862930b44b699510a91d2ef96e28ebbdb9963c1a41053f16b6b09a02f63a8460405161044691815260200190565b60405180910390a25050505050565b606061046a610462610ce0565b6001016113d3565b905090565b600061047a83610d04565b15610486575080610365565b8161049357506000610365565b61036261049e610ce0565b600085815260059190910160205260409020546104bf9060ff16600a611bb5565b61035261032486610d18565b336104d46106ff565b6001600160a01b0316146104fa5760405162461bcd60e51b81526004016103d990611be3565b61050460006113de565b565b3361050f6106ff565b6001600160a01b0316146105355760405162461bcd60e51b81526004016103d990611be3565b8161053f8161036b565b61055b5760405162461bcd60e51b81526004016103d990611c18565b6105658383610f48565b505050565b600061057583610d04565b15610581575080610365565b8161058e57506000610365565b6103626105c261059c610ce0565b600086815260059190910160205260409020546105bd9060ff16600a611bb5565b61144f565b6105cb85610d18565b6105d59085611c43565b906114b9565b60606105e683610d04565b156105f2575080610365565b815167ffffffffffffffff81111561060c5761060c6118f2565b604051908082528060200260200182016040528015610635578160200160208202803683370190505b50905060005b82518110156106f85782818151811061065657610656611cc8565b60200260200101516000141561066b576106e6565b6106c7610676610ce0565b600086815260059190910160205260409020546106979060ff16600a611bb5565b6106a361032487610d18565b8584815181106106b5576106b5611cc8565b602002602001015161035c9190611bc4565b8282815181106106d9576106d9611cc8565b6020026020010181815250505b806106f081611cde565b91505061063b565b5092915050565b60007f9acda75aebd150dd434541a4747a6dc606f4f1a59662477e67daf1fc0bf9e0aa5b546001600160a01b0316919050565b3361073b6106ff565b6001600160a01b0316146107615760405162461bcd60e51b81526004016103d990611be3565b8361076b8161036b565b6107875760405162461bcd60e51b81526004016103d990611c18565b61079385858585610ff2565b5050505050565b60006107a4610ce0565b600092835260030160205250604090205490565b6000828414156107c95750806108a0565b816107d6575060006108a0565b6107df84610d04565b156107f5576107ee83836102fe565b90506108a0565b6107fe83610d04565b1561080d576107ee848361046f565b600061081885610d18565b9050600061082585610d18565b905061089b81610833610ce0565b600089815260059190910160205260409020546108549060ff16600a611bb5565b61085e9190611bc4565b610866610ce0565b600088815260059190910160205260409020546108879060ff16600a611bb5565b6108918588611bc4565b61035c9190611bc4565b925050505b9392505050565b600054610100900460ff16158080156108c75750600054600160ff909116105b806108e15750303b1580156108e1575060005460ff166001145b6109445760405162461bcd60e51b815260206004820152602e60248201527f496e697469616c697a61626c653a20636f6e747261637420697320616c72656160448201526d191e481a5b9a5d1a585b1a5e995960921b60648201526084016103d9565b6000805460ff191660011790558015610967576000805461ff0019166101001790555b600061097161154c565b6001600160a01b031614156109d35760405162461bcd60e51b815260206004820152602260248201527f4d7573742062652063616c6c65642066726f6d2070726f787920636f6e74726160448201526118dd60f21b60648201526084016103d9565b6109dc836113de565b816109e5610ce0565b558015610565576000805461ff0019169055604051600181527f7f26b83ff96e1f2b6a682f133852f6798a09c465da95921460cefb3847402498906020015b60405180910390a1505050565b6000610a3b610ce0565b54919050565b33610a4a6106ff565b6001600160a01b031614610a705760405162461bcd60e51b81526004016103d990611be3565b610a8581610a7c610ce0565b60010190611574565b5060405181907fa3c6a408fb053e3ef5e9bcd22e3574324a5ae99fad263cc4080da481842d3d4c90600090a250565b33610abd6106ff565b6001600160a01b031614610ae35760405162461bcd60e51b81526004016103d990611be3565b6001600160a01b038116610b485760405162461bcd60e51b815260206004820152602660248201527f4f776e61626c653a206e6577206f776e657220697320746865207a65726f206160448201526564647265737360d01b60648201526084016103d9565b610b51816113de565b50565b33610b5d6106ff565b6001600160a01b031614610b835760405162461bcd60e51b81526004016103d990611be3565b80610b8d8161036b565b610ba95760405162461bcd60e51b81526004016103d990611c18565b6000610bb3610ce0565b6004016000848152602001908152602001600020805480602002602001604051908101604052809291908181526020018280548015610c1b57602002820191906000526020600020905b81546001600160a01b03168152600190910190602001808311610bfd575b50505050509050805160001415610c695760405162461bcd60e51b8152602060048201526012602482015271496e76616c6964205072696365466565647360701b60448201526064016103d9565b610c71610ce0565b600084815260049190910160205260408120610c8c9161171e565b610c94610ce0565b6000848152600591909101602052604090819020805460ff19169055517f0a216b769c52442ef5c8d765614bdde4b5257f3510ed38c82f78dd7a800c64f990610a249085815260200190565b7fbf1f6da7b18d0b1bd723139ae003962c8fa874ed2f9ff2b1948edfe1e7915f5d90565b6000610d0e610ce0565b5491909114919050565b600080610d23610ce0565b6004016000848152602001908152602001600020805480602002602001604051908101604052809291908181526020018280548015610d8b57602002820191906000526020600020905b81546001600160a01b03168152600190910190602001808311610d6d575b505050505090506001915060005b8151811015610e56576000828281518110610db657610db6611cc8565b60200260200101516001600160a01b031663feaf968c6040518163ffffffff1660e01b815260040160a06040518083038186803b158015610df657600080fd5b505afa158015610e0a573d6000803e3d6000fd5b505050506040513d601f19601f82011682018060405250810190610e2e9190611d13565b5050509150508084610e409190611c43565b9350508080610e4e90611cde565b915050610d99565b5050919050565b600080821215610eaf5760405162461bcd60e51b815260206004820181905260248201527f53616665436173743a2076616c7565206d75737420626520706f73697469766560448201526064016103d9565b5090565b6000808211610ec157600080fd5b6005610ecd8385611d79565b610ed890600a611bc4565b83610ee486600a611bc4565b610eee9190611d79565b610ef89190611d8d565b1015610f0f57610f088284611d79565b9050610365565b610f198284611d79565b610f08906001611da4565b60008181526001830160205260408120541515610362565b60006103628383611580565b612710811115610f935760405162461bcd60e51b81526020600482015260166024820152754861697263757420726174696f206f766572666c6f7760501b60448201526064016103d9565b80610f9c610ce0565b600301600084815260200190815260200160002081905550817f99d976082a5e53ffddd334dbf2aec9b617affac6394470feb508f5fb662e0a1a82604051610fe691815260200190565b60405180910390a25050565b60008167ffffffffffffffff81111561100d5761100d6118f2565b604051908082528060200260200182016040528015611036578160200160208202803683370190505b5090506000805b838110156113195784848281811061105757611057611cc8565b905060200201602081019061106c9190611aa0565b83828151811061107e5761107e611cc8565b60200260200101906001600160a01b031690816001600160a01b03168152505060008382815181106110b2576110b2611cc8565b60200260200101516001600160a01b031663feaf968c6040518163ffffffff1660e01b815260040160a06040518083038186803b1580156110f257600080fd5b505afa158015611106573d6000803e3d6000fd5b505050506040513d601f19601f8201168201806040525081019061112a9190611d13565b50505091505060008112156111755760405162461bcd60e51b8152602060048201526011602482015270125b9d985b1a5908141c9a58d951995959607a1b60448201526064016103d9565b600084838151811061118957611189611cc8565b60200260200101516001600160a01b031663313ce5676040518163ffffffff1660e01b815260040160206040518083038186803b1580156111c957600080fd5b505afa1580156111dd573d6000803e3d6000fd5b505050506040513d601f19601f820116820180604052508101906112019190611dbc565b905060128160ff16111561124a5760405162461bcd60e51b815260206004820152601060248201526f496e76616c696420646563696d616c7360801b60448201526064016103d9565b82156112f657868661125d600186611d8d565b81811061126c5761126c611cc8565b90506020020160208101906112819190611aa0565b6001600160a01b031663313ce5676040518163ffffffff1660e01b815260040160206040518083038186803b1580156112b957600080fd5b505afa1580156112cd573d6000803e3d6000fd5b505050506040513d601f19601f820116820180604052508101906112f19190611dbc565b6112f8565b875b6113029085611dd9565b93505050808061131190611cde565b91505061103d565b5081611323610ce0565b6004016000888152602001908152602001600020908051906020019061134a92919061173c565b5080611354610ce0565b6000888152600591909101602052604090819020805460ff191660ff9390931692909217909155516113899085908590611dfe565b6040805191829003822088835260ff88166020840152917faf2416e0ffd277a1c2a1fef2ff896a40da9811f6feda6a84c1ce6d4ff5d7067e910160405180910390a2505050505050565b6060610365826115cf565b7f9acda75aebd150dd434541a4747a6dc606f4f1a59662477e67daf1fc0bf9e0aa80546001600160a01b038381166001600160a01b0319831681179093556040519116919082907f8be0079c531659141344cd1fd0a4f28419497f9722a3daafe3b4186f6b6457e090600090a35050565b60006001600160ff1b03821115610eaf5760405162461bcd60e51b815260206004820152602860248201527f53616665436173743a2076616c756520646f65736e27742066697420696e2061604482015267371034b73a191a9b60c11b60648201526084016103d9565b6000816114c557600080fd5b60006114d18385611e3e565b6114dc90600a611c43565b836114e886600a611c43565b6114f29190611e3e565b6114fc9190611e6c565b905060058112611523576115108385611e3e565b61151b906001611eab565b915050610365565b60041981136115425760016115388486611e3e565b61151b9190611e6c565b61151b8385611e3e565b60007f360894a13ba1a3210667c828492db98dca3e2076cc3735a920a3ca505d382bbc610723565b6000610362838361162b565b60008181526001830160205260408120546115c757508154600181810184556000848152602080822090930184905584548482528286019093526040902091909155610365565b506000610365565b60608160000180548060200260200160405190810160405280929190818152602001828054801561161f57602002820191906000526020600020905b81548152602001906001019080831161160b575b50505050509050919050565b6000818152600183016020526040812054801561171457600061164f600183611d8d565b855490915060009061166390600190611d8d565b90508181146116c857600086600001828154811061168357611683611cc8565b90600052602060002001549050808760000184815481106116a6576116a6611cc8565b6000918252602080832090910192909255918252600188019052604090208390555b85548690806116d9576116d9611eec565b600190038181906000526020600020016000905590558560010160008681526020019081526020016000206000905560019350505050610365565b6000915050610365565b5080546000825590600052602060002090810190610b519190611799565b828054828255906000526020600020908101928215611791579160200282015b8281111561179157825182546001600160a01b0319166001600160a01b0390911617825560209092019160019091019061175c565b50610eaf9291505b5b80821115610eaf576000815560010161179a565b6000602082840312156117c057600080fd5b5035919050565b600080604083850312156117da57600080fd5b50508035926020909101359150565b60ff81168114610b5157600080fd5b60008083601f84011261180a57600080fd5b50813567ffffffffffffffff81111561182257600080fd5b6020830191508360208260051b850101111561183d57600080fd5b9250929050565b60008060008060006080868803121561185c57600080fd5b85359450602086013561186e816117e9565b935060408601359250606086013567ffffffffffffffff81111561189157600080fd5b61189d888289016117f8565b969995985093965092949392505050565b6020808252825182820181905260009190848201906040850190845b818110156118e6578351835292840192918401916001016118ca565b50909695505050505050565b634e487b7160e01b600052604160045260246000fd5b6000806040838503121561191b57600080fd5b8235915060208084013567ffffffffffffffff8082111561193b57600080fd5b818601915086601f83011261194f57600080fd5b813581811115611961576119616118f2565b8060051b604051601f19603f83011681018181108582111715611986576119866118f2565b6040529182528482019250838101850191898311156119a457600080fd5b938501935b828510156119c2578435845293850193928501926119a9565b8096505050505050509250929050565b600080600080606085870312156119e857600080fd5b8435935060208501356119fa816117e9565b9250604085013567ffffffffffffffff811115611a1657600080fd5b611a22878288016117f8565b95989497509550505050565b600080600060608486031215611a4357600080fd5b505081359360208301359350604090920135919050565b80356001600160a01b0381168114611a7157600080fd5b919050565b60008060408385031215611a8957600080fd5b611a9283611a5a565b946020939093013593505050565b600060208284031215611ab257600080fd5b61036282611a5a565b634e487b7160e01b600052601160045260246000fd5b600181815b80851115611b0c578160001904821115611af257611af2611abb565b80851615611aff57918102915b93841c9390800290611ad6565b509250929050565b600082611b2357506001610365565b81611b3057506000610365565b8160018114611b465760028114611b5057611b6c565b6001915050610365565b60ff841115611b6157611b61611abb565b50506001821b610365565b5060208310610133831016604e8410600b8410161715611b8f575081810a610365565b611b998383611ad1565b8060001904821115611bad57611bad611abb565b029392505050565b600061036260ff841683611b14565b6000816000190483118215151615611bde57611bde611abb565b500290565b6020808252818101527f4f776e61626c653a2063616c6c6572206973206e6f7420746865206f776e6572604082015260600190565b602080825260119082015270155b9cdd5c1c1bdc9d195908185cdcd95d607a1b604082015260600190565b60006001600160ff1b0381841382841380821686840486111615611c6957611c69611abb565b600160ff1b6000871282811687830589121615611c8857611c88611abb565b60008712925087820587128484161615611ca457611ca4611abb565b87850587128184161615611cba57611cba611abb565b505050929093029392505050565b634e487b7160e01b600052603260045260246000fd5b6000600019821415611cf257611cf2611abb565b5060010190565b805169ffffffffffffffffffff81168114611a7157600080fd5b600080600080600060a08688031215611d2b57600080fd5b611d3486611cf9565b9450602086015193506040860151925060608601519150611d5760808701611cf9565b90509295509295909350565b634e487b7160e01b600052601260045260246000fd5b600082611d8857611d88611d63565b500490565b600082821015611d9f57611d9f611abb565b500390565b60008219821115611db757611db7611abb565b500190565b600060208284031215611dce57600080fd5b81516108a0816117e9565b600060ff821660ff84168060ff03821115611df657611df6611abb565b019392505050565b60008184825b85811015611e33576001600160a01b03611e1d83611a5a565b1683526020928301929190910190600101611e04565b509095945050505050565b600082611e4d57611e4d611d63565b600160ff1b821460001984141615611e6757611e67611abb565b500590565b60008083128015600160ff1b850184121615611e8a57611e8a611abb565b6001600160ff1b0384018313811615611ea557611ea5611abb565b50500390565b600080821280156001600160ff1b0384900385131615611ecd57611ecd611abb565b600160ff1b8390038412811615611ee657611ee6611abb565b50500190565b634e487b7160e01b600052603160045260246000fdfea2646970667358221220a35999b2db8a60a38000971f12d1f128563e446c820db6a2d28912f7a57f4f7564736f6c63430008090033",
  "implementation": "0xD851D2D55c83aE1E0194f009d2B8867AA9cD5541",
  "devdoc": {
    "kind": "dev",
    "methods": {
      "addCurrency(bytes32,uint8,uint256,address[])": {
        "params": {
          "_ccy": "Currency name in bytes32k",
          "_decimals": "Currency decimals",
          "_haircut": "Remaining ratio after haircut",
          "_priceFeeds": "Array with the contract address of price feed"
        }
      },
      "convert(bytes32,bytes32,uint256)": {
        "params": {
          "_amount": "Amount to be converted",
          "_fromCcy": "Currency to convert from",
          "_toCcy": "Currency to convert to"
        },
        "returns": {
          "amount": "The converted amount"
        }
      },
      "convertFromBaseCurrency(bytes32,uint256)": {
        "params": {
          "_amount": "Amount in the base currency to be converted",
          "_ccy": "Currency that has to be converted from the base currency."
        },
        "returns": {
          "amount": "The converted amount"
        }
      },
      "convertToBaseCurrency(bytes32,int256)": {
        "params": {
          "_amount": "Amount to be converted",
          "_ccy": "Currency that has to be converted to the base currency."
        },
        "returns": {
          "amount": "The converted amount"
        }
      },
      "convertToBaseCurrency(bytes32,uint256)": {
        "params": {
          "_amount": "Amount to be converted",
          "_ccy": "Currency that has to be converted to the base currency"
        },
        "returns": {
          "amount": "The converted amount"
        }
      },
      "convertToBaseCurrency(bytes32,uint256[])": {
        "params": {
          "_amounts": "Amounts to be converted",
          "_ccy": "Currency that has to be converted to the base currency."
        },
        "returns": {
          "amounts": "The converted amounts"
        }
      },
      "currencyExists(bytes32)": {
        "params": {
          "_ccy": "Currency name in bytes32"
        },
        "returns": {
          "_0": "The boolean if the selected currency is supported or not"
        }
      },
      "getBaseCurrency()": {
        "returns": {
          "_0": "Currency name in bytes32"
        }
      },
      "getCurrencies()": {
        "returns": {
          "_0": "The array of the currency"
        }
      },
      "getDecimals(bytes32)": {
        "params": {
          "_ccy": "Currency name in bytes32"
        }
      },
      "getHaircut(bytes32)": {
        "params": {
          "_ccy": "Currency name in bytes32"
        }
      },
      "getLastPrice(bytes32)": {
        "params": {
          "_ccy": "Currency name in bytes32"
        },
        "returns": {
          "price": "The last price"
        }
      },
      "initialize(address,bytes32)": {
        "details": "Function is invoked by the proxy contract when the contract is added to the ProxyController.",
        "params": {
          "_baseCcy": "The base currency name in bytes32",
          "_owner": "The address of the contract owner"
        }
      },
      "owner()": {
        "details": "Returns the address of the current owner."
      },
      "removeCurrency(bytes32)": {
        "params": {
          "_ccy": "Currency name in bytes32"
        }
      },
      "removePriceFeed(bytes32)": {
        "params": {
          "_ccy": "Currency name in bytes32"
        }
      },
      "renounceOwnership()": {
        "details": "Leaves the contract without owner. It will not be possible to call `onlyOwner` functions anymore. Can only be called by the current owner. NOTE: Renouncing ownership will leave the contract without an owner, thereby removing any functionality that is only available to the owner."
      },
      "transferOwnership(address)": {
        "details": "Transfers ownership of the contract to a new account (`newOwner`). Can only be called by the current owner."
      },
      "updateHaircut(bytes32,uint256)": {
        "params": {
          "_ccy": "Currency name in bytes32",
          "_haircut": "Remaining ratio after haircut"
        }
      },
      "updatePriceFeed(bytes32,uint8,address[])": {
        "params": {
          "_ccy": "Currency name in bytes32",
          "_decimals": "Currency decimals",
          "_priceFeeds": "Array with the contract address of price feed"
        }
      }
    },
    "version": 1
  },
  "userdoc": {
    "kind": "user",
    "methods": {
      "addCurrency(bytes32,uint8,uint256,address[])": {
        "notice": "Adds new currency into the protocol and links with existing price feed."
      },
      "convert(bytes32,bytes32,uint256)": {
        "notice": "Gets the converted amount of currency."
      },
      "convertFromBaseCurrency(bytes32,uint256)": {
        "notice": "Gets the converted amount to the selected currency from the base currency."
      },
      "convertToBaseCurrency(bytes32,int256)": {
        "notice": "Gets the converted amount in the base currency."
      },
      "convertToBaseCurrency(bytes32,uint256)": {
        "notice": "Gets the converted amount in the base currency."
      },
      "convertToBaseCurrency(bytes32,uint256[])": {
        "notice": "Gets the converted amounts in the base currency."
      },
      "currencyExists(bytes32)": {
        "notice": "Gets if the selected currency is supported."
      },
      "getBaseCurrency()": {
        "notice": "Gets the base currency name."
      },
      "getCurrencies()": {
        "notice": "Gets all currencies."
      },
      "getDecimals(bytes32)": {
        "notice": "Gets cached decimal of the price feed for the selected currency."
      },
      "getHaircut(bytes32)": {
        "notice": "Gets haircut ratio for the selected currency. Haircut is used in bilateral netting cross-calculation."
      },
      "getLastPrice(bytes32)": {
        "notice": "Gets the last price for the selected currency."
      },
      "initialize(address,bytes32)": {
        "notice": "Initializes the contract."
      },
      "removeCurrency(bytes32)": {
        "notice": "Updates the flag indicating if the currency is supported in the protocol."
      },
      "removePriceFeed(bytes32)": {
        "notice": "Removes existing Chainlink price feed."
      },
      "updateHaircut(bytes32,uint256)": {
        "notice": "Updates the haircut ratio for supported currency"
      },
      "updatePriceFeed(bytes32,uint8,address[])": {
        "notice": "Update the price feed contract addresses."
      }
    },
    "notice": "Implements managing of the supported currencies in the protocol. This contract links new currencies to Chainlink price feeds. To add a new currency to the protocol except for the base currency, the owner needs to also add an existing price feed contract.",
    "version": 1
  },
  "storageLayout": {
    "storage": [
      {
        "astId": 995,
        "contract": "contracts/protocol/CurrencyController.sol:CurrencyController",
        "label": "_initialized",
        "offset": 0,
        "slot": "0",
        "type": "t_uint8"
      },
      {
        "astId": 998,
        "contract": "contracts/protocol/CurrencyController.sol:CurrencyController",
        "label": "_initializing",
        "offset": 1,
        "slot": "0",
        "type": "t_bool"
      }
    ],
    "types": {
      "t_bool": {
        "encoding": "inplace",
        "label": "bool",
        "numberOfBytes": "1"
      },
      "t_uint8": {
        "encoding": "inplace",
        "label": "uint8",
        "numberOfBytes": "1"
      }
    }
  }
}