{
  "address": "0x8CF64566963f383bF546C14Ab4cdfFbc59B1501d",
  "abi": [
    {
      "inputs": [
        {
          "internalType": "address",
          "name": "_user",
          "type": "address"
        },
        {
          "internalType": "bytes32",
          "name": "_unsettledOrderCcy",
          "type": "bytes32"
        },
        {
          "internalType": "uint256",
          "name": "_unsettledOrderAmount",
          "type": "uint256"
        },
        {
          "internalType": "bool",
          "name": "_isUnsettledBorrowOrder",
          "type": "bool"
        }
      ],
      "name": "getCollateralAmount",
      "outputs": [
        {
          "internalType": "uint256",
          "name": "totalCollateral",
          "type": "uint256"
        },
        {
          "internalType": "uint256",
          "name": "totalUsedCollateral",
          "type": "uint256"
        },
        {
          "internalType": "uint256",
          "name": "totalActualCollateral",
          "type": "uint256"
        }
      ],
      "stateMutability": "view",
      "type": "function"
    },
    {
      "inputs": [
        {
          "internalType": "address",
          "name": "_user",
          "type": "address"
        }
      ],
      "name": "getCollateralAmount",
      "outputs": [
        {
          "internalType": "uint256",
          "name": "totalCollateral",
          "type": "uint256"
        },
        {
          "internalType": "uint256",
          "name": "totalUsedCollateral",
          "type": "uint256"
        },
        {
          "internalType": "uint256",
          "name": "totalActualCollateral",
          "type": "uint256"
        }
      ],
      "stateMutability": "view",
      "type": "function"
    },
    {
      "inputs": [
        {
          "internalType": "address",
          "name": "_user",
          "type": "address"
        },
        {
          "internalType": "bytes32",
          "name": "_ccy",
          "type": "bytes32"
        }
      ],
      "name": "getDepositAmount",
      "outputs": [
        {
          "internalType": "uint256",
          "name": "",
          "type": "uint256"
        }
      ],
      "stateMutability": "view",
      "type": "function"
    },
    {
      "inputs": [
        {
          "internalType": "address",
          "name": "_user",
          "type": "address"
        },
        {
          "internalType": "bytes32",
          "name": "_liquidationCcy",
          "type": "bytes32"
        },
        {
          "internalType": "uint256",
          "name": "_liquidationAmountMaximum",
          "type": "uint256"
        }
      ],
      "name": "getLiquidationAmount",
      "outputs": [
        {
          "internalType": "uint256",
          "name": "liquidationAmount",
          "type": "uint256"
        },
        {
          "internalType": "uint256",
          "name": "protocolFee",
          "type": "uint256"
        },
        {
          "internalType": "uint256",
          "name": "liquidatorFee",
          "type": "uint256"
        }
      ],
      "stateMutability": "view",
      "type": "function"
    },
    {
      "inputs": [
        {
          "internalType": "address",
          "name": "_user",
          "type": "address"
        }
      ],
      "name": "getUsedCurrencies",
      "outputs": [
        {
          "internalType": "bytes32[]",
          "name": "",
          "type": "bytes32[]"
        }
      ],
      "stateMutability": "view",
      "type": "function"
    },
    {
      "inputs": [
        {
          "internalType": "bytes32",
          "name": "_ccy",
          "type": "bytes32"
        },
        {
          "internalType": "address",
          "name": "_user",
          "type": "address"
        }
      ],
      "name": "getWithdrawableCollateral",
      "outputs": [
        {
          "internalType": "uint256",
          "name": "withdrawableAmount",
          "type": "uint256"
        }
      ],
      "stateMutability": "view",
      "type": "function"
    },
    {
      "inputs": [
        {
          "internalType": "address",
          "name": "_user",
          "type": "address"
        }
      ],
      "name": "getWithdrawableCollateral",
      "outputs": [
        {
          "internalType": "uint256",
          "name": "",
          "type": "uint256"
        }
      ],
      "stateMutability": "view",
      "type": "function"
    },
    {
      "inputs": [
        {
          "internalType": "address",
          "name": "_user",
          "type": "address"
        },
        {
          "internalType": "bytes32",
          "name": "_unsettledOrderCcy",
          "type": "bytes32"
        },
        {
          "internalType": "uint256",
          "name": "_unsettledOrderAmount",
          "type": "uint256"
        },
        {
          "internalType": "bool",
          "name": "_isUnsettledBorrowOrder",
          "type": "bool"
        }
      ],
      "name": "isCovered",
      "outputs": [
        {
          "internalType": "bool",
          "name": "",
          "type": "bool"
        }
      ],
      "stateMutability": "view",
      "type": "function"
    }
  ],
  "transactionHash": "0x8a92127a155289f254d95078cbee3d9e79f03e069b3769f2789255a08e79706a",
  "args": [],
  "numDeployments": 2,
  "solcInputHash": "b57600b51ef0b115c52371ee9eb0c58d",
  "bytecode": "0x611fbb61003a600b82828239805160001a60731461002d57634e487b7160e01b600052600060045260246000fd5b30600052607381538281f3fe73000000000000000000000000000000000000000030146080604052600436106100f45760003560e01c80635257ed6711610096578063eb2243f811610070578063eb2243f81461021b578063fb7bd3b41461023b578063fc7008101461025b578063fd2117fb1461027b57600080fd5b80635257ed67146101e2578063654c6295146101f5578063948060dd1461020857600080fd5b80632917173a116100d25780632917173a1461015257806346b1cb2c146101725780634ba0c9b5146101a0578063500d2f6d146101c257600080fd5b80630253cd7e146100f9578063055d237a1461011f5780630eadd2441461013f575b600080fd5b61010c610107366004611a9c565b61029e565b6040519081526020015b60405180910390f35b81801561012b57600080fd5b5061010c61013a366004611a9c565b610395565b61010c61014d366004611ac6565b61042e565b81801561015e57600080fd5b5061010c61016d366004611af2565b61053f565b610185610180366004611b36565b610637565b60408051938452602084019290925290820152606001610116565b8180156101ac57600080fd5b506101c06101bb366004611af2565b6109d0565b005b8180156101ce57600080fd5b5061010c6101dd366004611b7e565b610a25565b6101856101f0366004611af2565b610a98565b610185610203366004611bc2565b610cc8565b61010c610216366004611bc2565b610ce8565b81801561022757600080fd5b506101c0610236366004611af2565b610da7565b81801561024757600080fd5b506101c0610256366004611af2565b610e17565b61026e610269366004611bc2565b610ea6565b6040516101169190611bdd565b61028e610289366004611b36565b610f75565b6040519015158152602001610116565b6000806000806102ac610fc9565b604051635c34776560e01b8152600481018790526001600160a01b0388811660248301529190911690635c3477659060440160e06040518083038186803b1580156102f657600080fd5b505afa15801561030a573d6000803e3d6000fd5b505050506040513d601f19601f8201168201806040525081019061032e9190611c21565b96505050945050509250828282610343610ff9565b6001600160a01b038a166000908152600591909101602090815260408083208b84529091529020546103759190611c8b565b61037f9190611ca3565b6103899190611ca3565b93505050505b92915050565b600061039f610ff9565b6001600160a01b03841660009081526005919091016020908152604080832085845290915281205491506103d1610ff9565b6001600160a01b03851660009081526005919091016020908152604080832086845290915290205561042782610405610ff9565b6001600160a01b0386166000908152600391909101602052604090209061101d565b5092915050565b600080610439610ff9565b6001600160a01b03841660009081526005919091016020908152604080832087845290915290205490506104758461046f610ff9565b90611029565b1561052d57600061048584610ce8565b90506000610491611041565b604051630718de8160e21b815260048101889052602481018490526001600160a01b039190911690631c637a049060440160206040518083038186803b1580156104da57600080fd5b505afa1580156104ee573d6000803e3d6000fd5b505050506040513d601f19601f820116820180604052508101906105129190611cba565b9050808310156105225782610524565b805b93505050610427565b610537838561029e565b949350505050565b600061054b838561042e565b905080821161055a578161055c565b805b905080610567610ff9565b6000858152600491909101602052604090205410156105c55760405162461bcd60e51b8152602060048201526015602482015274141c9bdd1bd8dbdb081a5cc81a5b9cdbdb1d995b9d605a1b60448201526064015b60405180910390fd5b806105ce610ff9565b600401600085815260200190815260200160002060008282546105f19190611ca3565b909155506106029050848483610e17565b61063061060d610ff9565b600085815260029190910160205260409020546001600160a01b03168583611061565b9392505050565b600080600061067e6040518060e001604052806000815260200160008152602001600081526020016000815260200160008152602001600081526020016000151581525090565b6000610688610ff9565b6001600160a01b038a166000908152600591909101602090815260408083208b84529091528120549150871561082757861561074e576106c6611041565b604051636ed2f1db60e01b8152600481018b9052602481018a90526001600160a01b039190911690636ed2f1db9060440160206040518083038186803b15801561070f57600080fd5b505afa158015610723573d6000803e3d6000fd5b505050506040513d601f19601f820116820180604052508101906107479190611cba565b9050610827565b8782101561076e5760405162461bcd60e51b81526004016105bc90611cd3565b6107788883611ca3565b91506107868961046f610ff9565b1561082757610793611041565b604051636ed2f1db60e01b8152600481018b9052602481018a90526001600160a01b039190911690636ed2f1db9060440160206040518083038186803b1580156107dc57600080fd5b505afa1580156107f0573d6000803e3d6000fd5b505050506040513d601f19601f820116820180604052508101906108149190611cba565b83518490610823908390611c8b565b9052505b61082f610fc9565b604051637ea2c27360e11b81526001600160a01b038c81166004830152602482018c905260448201859052919091169063fd4584e6906064016101006040518083038186803b15801561088157600080fd5b505afa158015610895573d6000803e3d6000fd5b505050506040513d601f19601f820116820180604052508101906108b99190611d21565b151560c08b0181905260a08b019190915260808a019190915260608901919091526040880191909152602087019190915291855250806108f65750865b806108ff575087155b61091b5760405162461bcd60e51b81526004016105bc90611cd3565b60006109268b611099565b905060008460a001518261093a9190611c8b565b90506000856040015186600001516109529190611c8b565b905060008660200151836109669190611c8b565b905081811015610977576000610981565b6109818282611ca3565b995084876080015188606001516109989190611c8b565b6109a29190611c8b565b9850818310156109b35760006109bd565b6109bd8284611ca3565b9750505050505050509450945094915050565b806109d9610ff9565b6001600160a01b03851660009081526005919091016020908152604080832086845290915281208054909190610a10908490611c8b565b90915550610a20905083836111d5565b505050565b600080610a30610ff9565b6001600160a01b038616600090815260059190910160209081526040808320898452909152812054915083821015610a685781610a6a565b835b9050610a768185611ca3565b9250610a83868883610e17565b610a8e8588836109d0565b5050949350505050565b6000806000806000610aa988610cc8565b50915091506000610ac6600080516020611f068339815191525490565b610ad09083611d8b565b610adc61271085611d8b565b1015610af257610aed826002611269565b610af5565b60005b9050610aff611041565b604051630718de8160e21b8152600481018a9052602481018390526001600160a01b039190911690631c637a049060440160206040518083038186803b158015610b4857600080fd5b505afa158015610b5c573d6000803e3d6000fd5b505050506040513d601f19601f82011682018060405250810190610b809190611cba565b9550610bae612710610b9e600080516020611f468339815191525490565b610ba89089611d8b565b90611269565b9450610bcc612710610b9e600080516020611f268339815191525490565b9350600084610bdb8789611c8b565b610be59190611c8b565b905087811115610cbb575086610c4b610c0a600080516020611f468339815191525490565b600080516020611f2683398151915254610c2690612710611c8b565b610c309190611c8b565b600080516020611f46833981519152545b610ba89084611d8b565b9550610ca1610c66600080516020611f468339815191525490565b600080516020611f2683398151915254610c8290612710611c8b565b610c8c9190611c8b565b600080516020611f2683398151915254610c41565b945084610cae8783611ca3565b610cb89190611ca3565b96505b5050505093509350939050565b6000806000610cdb846000806000610637565b9250925092509193909250565b600080600080610cf785610cc8565b9250925092508160001415610d0e57949350505050565b600080516020611f0683398151915254610d289083611d8b565b610d3461271085611d8b565b1115610d94576000610d78612710610d58600080516020611f068339815191525490565b610d629086611d8b565b610d6e61271088611d8b565b610ba89190611ca3565b905081811015610d885780610d8a565b815b9695505050505050565b506000949350505050565b505050919050565b610dd6610db2610ff9565b600084815260029190910160205260409020546001600160a01b03168430846112da565b610de18383836109d0565b80610dea610ff9565b60040160008481526020019081526020016000206000828254610e0d9190611c8b565b9091555050505050565b80610e20610ff9565b6001600160a01b0385166000908152600591909101602090815260408083208684529091529020541015610e665760405162461bcd60e51b81526004016105bc90611cd3565b80610e6f610ff9565b6001600160a01b03851660009081526005919091016020908152604080832086845290915281208054909190610a10908490611ca3565b60606000610eb2610ff9565b6001600160a01b0384166000908152600391909101602052604081209150610ed98261131e565b905060008167ffffffffffffffff811115610ef657610ef6611daa565b604051908082528060200260200182016040528015610f1f578160200160208202803683370190505b50905060005b82811015610f6c576000610f398583611328565b905080838381518110610f4e57610f4e611dc0565b60209081029190910101525080610f6481611dd6565b915050610f25565b50949350505050565b6000806000610f8687878787610637565b50915091508060001480610fbe5750600080516020611f0683398151915254610faf9082611d8b565b610fbb61271084611d8b565b10155b979650505050505050565b6000610ff47f4c656e64696e674d61726b6574436f6e74726f6c6c6572000000000000000000611334565b905090565b7f53832330c92cb5d80f0e1ff6fdb9886f7fad39132543bafb7497316eae2a831790565b600061063083836113c5565b60008181526001830160205260408120541515610630565b6000610ff47121bab93932b731bca1b7b73a3937b63632b960711b611334565b600080516020611f66833981519152546001600160a01b038481169116141561108e57610a2082826114b8565b610a20838383611606565b6000806110a4610ff9565b6001600160a01b03841660009081526003919091016020526040812091506110cb8261131e565b905060005b81811015610d9f5760006110e48483611328565b90506110f28161046f610ff9565b156111c2576000611101610ff9565b6001600160a01b0388166000908152600591909101602090815260408083208584529091529020549050611133611041565b604051636ed2f1db60e01b815260048101849052602481018390526001600160a01b039190911690636ed2f1db9060440160206040518083038186803b15801561117c57600080fd5b505afa158015611190573d6000803e3d6000fd5b505050506040513d601f19601f820116820180604052508101906111b49190611cba565b6111be9087611c8b565b9550505b50806111cd81611dd6565b9150506110d0565b60006111df610ff9565b6001600160a01b038416600090815260059190910160209081526040808320858452909152902054111561123b57610a2081611219610ff9565b6001600160a01b038516600090815260039190910160205260409020906116f1565b610a2081611247610ff9565b6001600160a01b0385166000908152600391909101602052604090209061101d565b600080821161127757600080fd5b60056112838385611df1565b61128e90600a611d8b565b8361129a86600a611d8b565b6112a49190611df1565b6112ae9190611ca3565b10156112c5576112be8284611df1565b905061038f565b6112cf8284611df1565b6112be906001611c8b565b600080516020611f66833981519152546001600160a01b038581169116141561130c5761130782826116fd565b611318565b6113188484848461184a565b50505050565b600061038f825490565b6000610630838361193e565b60008181527f4abde63c3e81aefa5764b017968bc473e83e093d7e1a10247d19e0a3e41240196020908152604080832054815170026b4b9b9b4b7339030b2323932b9b99d1607d1b9381019390935260318084018690528251808503909101815260519093019091526001600160a01b031690816104275760405162461bcd60e51b81526004016105bc9190611e3f565b600081815260018301602052604081205480156114ae5760006113e9600183611ca3565b85549091506000906113fd90600190611ca3565b905081811461146257600086600001828154811061141d5761141d611dc0565b906000526020600020015490508087600001848154811061144057611440611dc0565b6000918252602080832090910192909255918252600188019052604090208390555b855486908061147357611473611e72565b60019003818190600052602060002001600090559055856001016000868152602001908152602001600020600090556001935050505061038f565b600091505061038f565b6000600080516020611f66833981519152546040516370a0823160e01b81523060048201526001600160a01b03909116906370a082319060240160206040518083038186803b15801561150a57600080fd5b505afa15801561151e573d6000803e3d6000fd5b505050506040513d601f19601f820116820180604052508101906115429190611cba565b90508181101561158b5760405162461bcd60e51b8152602060048201526014602482015273496e73756666696369656e742062616c616e636560601b60448201526064016105bc565b8015610a2057600080516020611f6683398151915254604051632e1a7d4d60e01b8152600481018490526001600160a01b0390911690632e1a7d4d90602401600060405180830381600087803b1580156115e457600080fd5b505af11580156115f8573d6000803e3d6000fd5b50505050610a208383611968565b604080516001600160a01b038481166024830152604480830185905283518084039091018152606490920183526020820180516001600160e01b031663a9059cbb60e01b17905291516000928392908716916116629190611e88565b6000604051808303816000865af19150503d806000811461169f576040519150601f19603f3d011682016040523d82523d6000602084013e6116a4565b606091505b50915091508180156116ce5750805115806116ce5750808060200190518101906116ce9190611ea4565b6116ea5760405162461bcd60e51b81526004016105bc90611ec1565b5050505050565b60006106308383611a31565b804710156117445760405162461bcd60e51b8152602060048201526014602482015273496e73756666696369656e742062616c616e636560601b60448201526064016105bc565b600080516020611f668339815191525460408051630d0e30db60e41b815290516001600160a01b039092169163d0e30db0918491600480830192600092919082900301818588803b15801561179857600080fd5b505af11580156117ac573d6000803e3d6000fd5b50505050506117c6600080516020611f6683398151915290565b5460405163a9059cbb60e01b81526001600160a01b038481166004830152602482018490529091169063a9059cbb90604401602060405180830381600087803b15801561181257600080fd5b505af1158015611826573d6000803e3d6000fd5b505050506040513d601f19601f82011682018060405250810190610a209190611ea4565b604080516001600160a01b0385811660248301528481166044830152606480830185905283518084039091018152608490920183526020820180516001600160e01b03166323b872dd60e01b17905291516000928392908816916118ae9190611e88565b6000604051808303816000865af19150503d80600081146118eb576040519150601f19603f3d011682016040523d82523d6000602084013e6118f0565b606091505b509150915081801561191a57508051158061191a57508080602001905181019061191a9190611ea4565b6119365760405162461bcd60e51b81526004016105bc90611ec1565b505050505050565b600082600001828154811061195557611955611dc0565b9060005260206000200154905092915050565b604080516000808252602082019092526001600160a01b0384169083906040516119929190611e88565b60006040518083038185875af1925050503d80600081146119cf576040519150601f19603f3d011682016040523d82523d6000602084013e6119d4565b606091505b5050905080610a205760405162461bcd60e51b815260206004820152602360248201527f5472616e7366657248656c7065723a204554485f5452414e534645525f46414960448201526213115160ea1b60648201526084016105bc565b6000818152600183016020526040812054611a785750815460018181018455600084815260208082209093018490558454848252828601909352604090209190915561038f565b50600061038f565b80356001600160a01b0381168114611a9757600080fd5b919050565b60008060408385031215611aaf57600080fd5b611ab883611a80565b946020939093013593505050565b60008060408385031215611ad957600080fd5b82359150611ae960208401611a80565b90509250929050565b600080600060608486031215611b0757600080fd5b611b1084611a80565b95602085013595506040909401359392505050565b8015158114611b3357600080fd5b50565b60008060008060808587031215611b4c57600080fd5b611b5585611a80565b935060208501359250604085013591506060850135611b7381611b25565b939692955090935050565b60008060008060808587031215611b9457600080fd5b84359350611ba460208601611a80565b9250611bb260408601611a80565b9396929550929360600135925050565b600060208284031215611bd457600080fd5b61063082611a80565b6020808252825182820181905260009190848201906040850190845b81811015611c1557835183529284019291840191600101611bf9565b50909695505050505050565b600080600080600080600060e0888a031215611c3c57600080fd5b5050855160208701516040880151606089015160808a015160a08b015160c0909b0151949c939b50919990985090965094509092509050565b634e487b7160e01b600052601160045260246000fd5b60008219821115611c9e57611c9e611c75565b500190565b600082821015611cb557611cb5611c75565b500390565b600060208284031215611ccc57600080fd5b5051919050565b6020808252602e908201527f4e6f7420656e6f75676820636f6c6c61746572616c20696e207468652073656c60408201526d65637465642063757272656e637960901b606082015260800190565b600080600080600080600080610100898b031215611d3e57600080fd5b885197506020890151965060408901519550606089015194506080890151935060a0890151925060c0890151915060e0890151611d7a81611b25565b809150509295985092959890939650565b6000816000190483118215151615611da557611da5611c75565b500290565b634e487b7160e01b600052604160045260246000fd5b634e487b7160e01b600052603260045260246000fd5b6000600019821415611dea57611dea611c75565b5060010190565b600082611e0e57634e487b7160e01b600052601260045260246000fd5b500490565b60005b83811015611e2e578181015183820152602001611e16565b838111156113185750506000910152565b6020815260008251806020840152611e5e816040850160208701611e13565b601f01601f19169190910160400192915050565b634e487b7160e01b600052603160045260246000fd5b60008251611e9a818460208701611e13565b9190910192915050565b600060208284031215611eb657600080fd5b815161063081611b25565b60208082526024908201527f5472616e7366657248656c7065723a205452414e534645525f46524f4d5f46416040820152631253115160e21b60608201526080019056fe1aaabb4945989eb9ee8150fddc35fcfc125664a7b898aa2de5931bb12484d0521aaabb4945989eb9ee8150fddc35fcfc125664a7b898aa2de5931bb12484d0541aaabb4945989eb9ee8150fddc35fcfc125664a7b898aa2de5931bb12484d0533a2b81b27c095d6e2aecbb7be5d317f24d3f11a9eb2b6e2d16957fe4c0b4ddf3a2646970667358221220972627eaccb7b8d5f542128b6d458ccb16705b603c74577043758e660fdeaf3264736f6c63430008090033",
  "devdoc": {
    "kind": "dev",
    "methods": {},
    "version": 1
  },
  "userdoc": {
    "kind": "user",
    "methods": {},
    "version": 1
  },
  "storageLayout": {
    "storage": [],
    "types": null
  }
}