{
  "address": "0x6Ab9207FbA812CFe6464C89bC32A725f49C4f4b7",
  "abi": [
    {
      "inputs": [
        {
          "internalType": "bytes32",
          "name": "ccy",
          "type": "bytes32"
        }
      ],
      "name": "CollateralIsZero",
      "type": "error"
    },
    {
      "inputs": [
        {
          "internalType": "string",
          "name": "name",
          "type": "string"
        }
      ],
      "name": "MissingAddress",
      "type": "error"
    },
    {
      "inputs": [
        {
          "internalType": "bytes32",
          "name": "ccy",
          "type": "bytes32"
        }
      ],
      "name": "NotEnoughDeposit",
      "type": "error"
    },
    {
      "inputs": [
        {
          "internalType": "bytes32",
          "name": "ccy",
          "type": "bytes32"
        }
      ],
      "name": "ProtocolIsInsolvent",
      "type": "error"
    },
    {
      "inputs": [
        {
          "internalType": "address",
          "name": "_user",
          "type": "address"
        },
        {
          "components": [
            {
              "internalType": "bytes32",
              "name": "ccy",
              "type": "bytes32"
            },
            {
              "internalType": "uint256",
              "name": "workingLendOrdersAmount",
              "type": "uint256"
            },
            {
              "internalType": "uint256",
              "name": "claimableAmount",
              "type": "uint256"
            },
            {
              "internalType": "uint256",
              "name": "workingBorrowOrdersAmount",
              "type": "uint256"
            },
            {
              "internalType": "uint256",
              "name": "debtAmount",
              "type": "uint256"
            },
            {
              "internalType": "uint256",
              "name": "lentAmount",
              "type": "uint256"
            },
            {
              "internalType": "uint256",
              "name": "borrowedAmount",
              "type": "uint256"
            }
          ],
          "internalType": "struct ILendingMarketController.AdditionalFunds",
          "name": "_additionalFunds",
          "type": "tuple"
        }
      ],
      "name": "calculateCoverage",
      "outputs": [
        {
          "internalType": "uint256",
          "name": "coverage",
          "type": "uint256"
        },
        {
          "internalType": "bool",
          "name": "isInsufficientDepositAmount",
          "type": "bool"
        }
      ],
      "stateMutability": "view",
      "type": "function"
    },
    {
      "inputs": [
        {
          "internalType": "uint256",
          "name": "_amount",
          "type": "uint256"
        }
      ],
      "name": "calculateLiquidationFees",
      "outputs": [
        {
          "internalType": "uint256",
          "name": "protocolFee",
          "type": "uint256"
        },
        {
          "internalType": "uint256",
          "name": "liquidatorFee",
          "type": "uint256"
        }
      ],
      "stateMutability": "view",
      "type": "function"
    },
    {
      "inputs": [
        {
          "internalType": "address",
          "name": "_user",
          "type": "address"
        },
        {
          "internalType": "bytes32",
          "name": "_ccy",
          "type": "bytes32"
        }
      ],
      "name": "getCollateralAmount",
      "outputs": [
        {
          "internalType": "uint256",
          "name": "totalCollateral",
          "type": "uint256"
        },
        {
          "internalType": "uint256",
          "name": "totalUsedCollateral",
          "type": "uint256"
        },
        {
          "internalType": "uint256",
          "name": "totalDeposit",
          "type": "uint256"
        }
      ],
      "stateMutability": "view",
      "type": "function"
    },
    {
      "inputs": [
        {
          "internalType": "address",
          "name": "_user",
          "type": "address"
        }
      ],
      "name": "getCoverage",
      "outputs": [
        {
          "internalType": "uint256",
          "name": "coverage",
          "type": "uint256"
        }
      ],
      "stateMutability": "view",
      "type": "function"
    },
    {
      "inputs": [
        {
          "internalType": "address",
          "name": "_user",
          "type": "address"
        },
        {
          "internalType": "bytes32",
          "name": "_ccy",
          "type": "bytes32"
        }
      ],
      "name": "getDepositAmount",
      "outputs": [
        {
          "internalType": "uint256",
          "name": "",
          "type": "uint256"
        }
      ],
      "stateMutability": "view",
      "type": "function"
    },
    {
      "inputs": [
        {
          "internalType": "address",
          "name": "_user",
          "type": "address"
        },
        {
          "internalType": "bytes32",
          "name": "_liquidationCcy",
          "type": "bytes32"
        },
        {
          "internalType": "uint256",
          "name": "_liquidationAmountMaximum",
          "type": "uint256"
        }
      ],
      "name": "getLiquidationAmount",
      "outputs": [
        {
          "internalType": "uint256",
          "name": "liquidationAmount",
          "type": "uint256"
        },
        {
          "internalType": "uint256",
          "name": "protocolFee",
          "type": "uint256"
        },
        {
          "internalType": "uint256",
          "name": "liquidatorFee",
          "type": "uint256"
        }
      ],
      "stateMutability": "view",
      "type": "function"
    },
    {
      "inputs": [
        {
          "internalType": "address",
          "name": "_user",
          "type": "address"
        }
      ],
      "name": "getTotalCollateralAmount",
      "outputs": [
        {
          "internalType": "uint256",
          "name": "totalCollateral",
          "type": "uint256"
        },
        {
          "internalType": "uint256",
          "name": "totalUsedCollateral",
          "type": "uint256"
        },
        {
          "internalType": "uint256",
          "name": "totalDeposit",
          "type": "uint256"
        },
        {
          "internalType": "uint256",
          "name": "minRequiredCollateral",
          "type": "uint256"
        }
      ],
      "stateMutability": "view",
      "type": "function"
    },
    {
      "inputs": [
        {
          "internalType": "address",
          "name": "_user",
          "type": "address"
        }
      ],
      "name": "getUsedCurrencies",
      "outputs": [
        {
          "internalType": "bytes32[]",
          "name": "",
          "type": "bytes32[]"
        }
      ],
      "stateMutability": "view",
      "type": "function"
    },
    {
      "inputs": [
        {
          "internalType": "bytes32",
          "name": "_ccy",
          "type": "bytes32"
        },
        {
          "internalType": "address",
          "name": "_user",
          "type": "address"
        }
      ],
      "name": "getWithdrawableCollateral",
      "outputs": [
        {
          "internalType": "uint256",
          "name": "withdrawableAmount",
          "type": "uint256"
        }
      ],
      "stateMutability": "view",
      "type": "function"
    },
    {
      "inputs": [
        {
          "internalType": "address",
          "name": "_user",
          "type": "address"
        }
      ],
      "name": "getWithdrawableCollateral",
      "outputs": [
        {
          "internalType": "uint256",
          "name": "",
          "type": "uint256"
        }
      ],
      "stateMutability": "view",
      "type": "function"
    },
    {
      "inputs": [
        {
          "internalType": "address",
          "name": "_user",
          "type": "address"
        }
      ],
      "name": "isCovered",
      "outputs": [
        {
          "internalType": "bool",
          "name": "",
          "type": "bool"
        }
      ],
      "stateMutability": "view",
      "type": "function"
    }
  ],
  "transactionHash": "0x1775db05c682524bcaa96bec76d834d812d501f51ec2460f93223bc34c90de49",
  "args": [],
  "numDeployments": 1,
  "solcInputHash": "1399b139f3dcd64cfe268917bffdbfb5",
  "bytecode": "0x6123b461003a600b82828239805160001a60731461002d57634e487b7160e01b600052600060045260246000fd5b30600052607381538281f3fe73000000000000000000000000000000000000000030146080604052600436106101145760003560e01c80635257ed67116100ac578063948060dd1161007b578063948060dd146102bb578063ca423031146102ce578063eb2243f8146102e1578063fb7bd3b414610301578063fc7008101461032157600080fd5b80635257ed671461022757806354821c21146102555780637d044b43146102885780637d44828e146102a857600080fd5b80632910ae9d116100e85780632910ae9d1461019d5780632917173a146101c55780634ba0c9b5146101e5578063500d2f6d1461020757600080fd5b8062fcf262146101195780630253cd7e146101465780630eadd2441461016757806325e1f09f1461017a575b600080fd5b61012c610127366004611cd6565b610341565b604080519283526020830191909152015b60405180910390f35b610159610154366004611d0b565b61038b565b60405190815260200161013d565b610159610175366004611d35565b61049d565b61018d610188366004611d61565b6105b0565b604051901515815260200161013d565b6101b06101ab366004611e10565b6105f8565b6040805192835290151560208301520161013d565b8180156101d157600080fd5b506101596101e0366004611e99565b610652565b8180156101f157600080fd5b50610205610200366004611e99565b610726565b005b81801561021357600080fd5b50610159610222366004611ecc565b61077b565b61023a610235366004611e99565b6107ee565b6040805193845260208401929092529082015260600161013d565b610268610263366004611d61565b610a82565b60408051948552602085019390935291830152606082015260800161013d565b81801561029457600080fd5b506101596102a3366004611d0b565b610ae6565b61023a6102b6366004611d0b565b610b78565b6101596102c9366004611d61565b610cec565b6101596102dc366004611d61565b610daa565b8180156102ed57600080fd5b506102056102fc366004611e99565b610e01565b81801561030d57600080fd5b5061020561031c366004611e99565b610e71565b61033461032f366004611d61565b610f04565b60405161013d9190611f10565b600080610366612710610352610fd3565b600101546103609086611f6a565b90610ff7565b9150610384612710610376610fd3565b600201546103609086611f6a565b9050915091565b600080610396611068565b6001600160a01b03166324e4ae0584866103ae610fd3565b5460405160e085901b6001600160e01b031916815260048101939093526001600160a01b03909116602483015260448201526064016101006040518083038186803b1580156103fc57600080fd5b505afa158015610410573d6000803e3d6000fd5b505050506040513d601f19601f820116820180604052508101906104349190611f89565b9050806000015181606001518260c0015161044d610fd3565b6001600160a01b03881660009081526008919091016020908152604080832089845290915290205461047f9190612019565b6104899190612031565b6104939190612031565b9150505b92915050565b6000806104a8610fd3565b6001600160a01b03841660009081526008919091016020908152604080832087845290915290205490506104e7846104de610fd3565b60030190611098565b1561059f5760006104f784610cec565b905060006105036110b0565b604051630718de8160e21b815260048101889052602481018490526001600160a01b039190911690631c637a049060440160206040518083038186803b15801561054c57600080fd5b505afa158015610560573d6000803e3d6000fd5b505050506040513d601f19601f820116820180604052508101906105849190612048565b9050808310156105945782610596565b805b935050506105a9565b610493838561038b565b5092915050565b60008060006105be84610a82565b50509150915080600014806105f057506105d6610fd3565b546105e19082611f6a565b6105ed61271084611f6a565b10155b949350505050565b60008060008061060886866110d0565b965092945090925050508161062f57801561062557600019610628565b60005b9350610649565b8161063c61271083611f6a565b6106469190612061565b93505b50509250929050565b600061065e838561049d565b905080821161066d578161066f565b805b90508061067a610fd3565b6000858152600791909101602052604090205410156106b4576040516334b7c99360e11b8152600481018490526024015b60405180910390fd5b806106bd610fd3565b600701600085815260200190815260200160002060008282546106e09190612031565b909155506106f19050848483610e71565b61071f6106fc610fd3565b600085815260059190910160205260409020546001600160a01b03168583611388565b9392505050565b8061072f610fd3565b6001600160a01b03851660009081526008919091016020908152604080832086845290915281208054909190610766908490612019565b90915550610776905083836113c0565b505050565b600080610786610fd3565b6001600160a01b0386166000908152600891909101602090815260408083208984529091528120549150838210156107be57816107c0565b835b90506107cc8185612031565b92506107d9868883610e71565b6107e4858883610726565b5050949350505050565b60008060008060006107ff88610a82565b50509150915060006108118989610b78565b50509050806000141561083a5760405163fef5e62b60e01b8152600481018990526024016106ab565b6000610844610fd3565b5461084f9084611f6a565b61085b61271086611f6a565b10156108715761086c836002610ff7565b610874565b60005b604080516002808252606082018352929350600092909160208301908036833701905050905081816000815181106108ae576108ae612083565b60200260200101818152505084816001815181106108ce576108ce612083565b60200260200101818152505060006108e46110b0565b6001600160a01b031663fa4571908c846040518363ffffffff1660e01b8152600401610911929190612099565b60006040518083038186803b15801561092957600080fd5b505afa15801561093d573d6000803e3d6000fd5b505050506040513d6000823e601f3d908101601f1916820160405261096591908101906120e7565b90508060008151811061097a5761097a612083565b6020026020010151985060008160018151811061099957610999612083565b602002602001015190508a8a11156109af578a99505b6109b88a610341565b90995097506000886109ca8b8d612019565b6109d49190612019565b905085811180156109e457508582115b15610a7157508460006109f5610fd3565b6002015490506000610a05610fd3565b600101549050610a2f81610a1b84612710612019565b610a259190612019565b6103608386611f6a565b9b50610a5581610a4184612710612019565b610a4b9190612019565b6103608486611f6a565b9a508a610a628d85612031565b610a6c9190612031565b9c5050505b505050505050505093509350939050565b600080600080610acb6040518060e00160405280600080191681526020016000815260200160008152602001600081526020016000815260200160008152602001600081525090565b610ad586826110d0565b509299919850965090945092505050565b6000610af0610fd3565b6001600160a01b0384166000908152600891909101602090815260408083208584529091528120549150610b22610fd3565b6001600160a01b0385166000908152600891909101602090815260408083208684529091529020556105a982610b56610fd3565b6001600160a01b03861660009081526006919091016020526040902090611450565b600080600080610b86611068565b6001600160a01b03166324e4ae058688610b9e610fd3565b5460405160e085901b6001600160e01b031916815260048101939093526001600160a01b03909116602483015260448201526064016101006040518083038186803b158015610bec57600080fd5b505afa158015610c00573d6000803e3d6000fd5b505050506040513d601f19601f82011682018060405250810190610c249190611f89565b905060008160c00151610c35610fd3565b6001600160a01b0389166000908152600891909101602090815260408083208a8452909152902054610c679190612019565b9050600082606001518360000151610c7f9190612019565b90506000836040015183610c939190612019565b905081811015610ca4576000610cae565b610cae8282612031565b96508360a001518460800151610cc49190612019565b955081831015610cd5576000610cdf565b610cdf8284612031565b9450505050509250925092565b6000806000806000610cfd86610a82565b9350935093509350600081841015610d155781610d17565b835b905080610d2957509095945050505050565b610d31610fd3565b54610d3c9082611f6a565b610d4861271087611f6a565b1115610d9d576000610d7f612710610d5e610fd3565b54610d699085611f6a565b610d756127108a611f6a565b6103609190612031565b905083811015610d8f5780610d91565b835b98975050505050505050565b5060009695505050505050565b6000610def6040518060e00160405280600080191681526020016000815260200160008152602001600081526020016000815260200160008152602001600081525090565b610df983826105f8565b509392505050565b610e30610e0c610fd3565b600084815260059190910160205260409020546001600160a01b031684308461145c565b610e3b838383610726565b80610e44610fd3565b60070160008481526020019081526020016000206000828254610e679190612019565b9091555050505050565b80610e7a610fd3565b6001600160a01b0385166000908152600891909101602090815260408083208684529091529020541015610ec4576040516337597dbd60e11b8152600481018390526024016106ab565b80610ecd610fd3565b6001600160a01b03851660009081526008919091016020908152604080832086845290915281208054909190610766908490612031565b60606000610f10610fd3565b6001600160a01b0384166000908152600691909101602052604081209150610f37826114a0565b905060008167ffffffffffffffff811115610f5457610f54611d7c565b604051908082528060200260200182016040528015610f7d578160200160208202803683370190505b50905060005b82811015610fca576000610f9785836114aa565b905080838381518110610fac57610fac612083565b60209081029190910101525080610fc281612181565b915050610f83565b50949350505050565b7f53832330c92cb5d80f0e1ff6fdb9886f7fad39132543bafb7497316eae2a831790565b600080821161100557600080fd5b60056110118385612061565b61101c90600a611f6a565b8361102886600a611f6a565b6110329190612061565b61103c9190612031565b10156110535761104c8284612061565b9050610497565b61105d8284612061565b61104c906001612019565b60006110937f4c656e64696e674d61726b6574436f6e74726f6c6c65720000000000000000006114b6565b905090565b6000818152600183016020526040812054151561071f565b60006110937121bab93932b731bca1b7b73a3937b63632b960711b6114b6565b60008060008060006111276040518061012001604052806000815260200160008152602001600081526020016000815260200160008152602001600081526020016000815260200160008152602001600081525090565b6000611131611068565b6001600160a01b0316639e0998b28a8a611149610fd3565b546040805160e086901b6001600160e01b03191681526001600160a01b0390941660048501528251602485015260208301516044850152820151606484015260608201516084840152608082015160a484015260a082015160c484015260c09091015160e4830152610104820152610124016101406040518083038186803b1580156111d457600080fd5b505afa1580156111e8573d6000803e3d6000fd5b505050506040513d601f19601f8201168201806040525081019061120c919061219c565b805183526020808201519084015260408082015190840152608080820151606085015260a0808301519185019190915260c0808301518286015260e08084015191860191909152610100808401519186019190915261012083015190850152890151909150158015906112be57508160200151611287610fd3565b6001600160a01b038b166000908152600891909101602090815260408083208c51845290915290205483516112bc9190612019565b105b156112c857600192505b60006112d38a611525565b905060008360e00151826112e79190612019565b90506000846080015185604001516112ff9190612019565b905060008560600151836113139190612019565b90508181101561132457600061132e565b61132e8282612031565b9a508560c001518660a001516113449190612019565b99508561010001518660a0015161135b9190612019565b97508183101561136c576000611376565b6113768284612031565b98505050505050509295509295909350565b60008051602061235f833981519152546001600160a01b03848116911614156113b5576107768282611669565b610776838383611790565b60006113ca610fd3565b6001600160a01b03841660009081526008919091016020908152604080832085845290915290205411156114265761077681611404610fd3565b6001600160a01b0385166000908152600691909101602052604090209061187b565b61077681611432610fd3565b6001600160a01b038516600090815260069190910160205260409020905b600061071f8383611887565b60008051602061235f833981519152546001600160a01b038581169116141561148e57611489828261197a565b61149a565b61149a84848484611aa0565b50505050565b6000610497825490565b600061071f8383611b94565b60008181527f4abde63c3e81aefa5764b017968bc473e83e093d7e1a10247d19e0a3e412401960205260408120546001600160a01b0316806104975760408051602081018590520160408051601f19818403018152908290526346e2ec9360e01b82526106ab9160040161224f565b600080611530610fd3565b6001600160a01b0384166000908152600691909101602052604081209150611557826114a0565b905060005b8181101561166157600061157084836114aa565b905061157e816104de610fd3565b1561164e57600061158d610fd3565b6001600160a01b03881660009081526008919091016020908152604080832085845290915290205490506115bf6110b0565b604051636ed2f1db60e01b815260048101849052602481018390526001600160a01b039190911690636ed2f1db9060440160206040518083038186803b15801561160857600080fd5b505afa15801561161c573d6000803e3d6000fd5b505050506040513d601f19601f820116820180604052508101906116409190612048565b61164a9087612019565b9550505b508061165981612181565b91505061155c565b505050919050565b600060008051602061235f833981519152546040516370a0823160e01b81523060048201526001600160a01b03909116906370a082319060240160206040518083038186803b1580156116bb57600080fd5b505afa1580156116cf573d6000803e3d6000fd5b505050506040513d601f19601f820116820180604052508101906116f39190612048565b9050818110156117155760405162461bcd60e51b81526004016106ab90612282565b80156107765760008051602061235f83398151915254604051632e1a7d4d60e01b8152600481018490526001600160a01b0390911690632e1a7d4d90602401600060405180830381600087803b15801561176e57600080fd5b505af1158015611782573d6000803e3d6000fd5b505050506107768383611bbe565b604080516001600160a01b038481166024830152604480830185905283518084039091018152606490920183526020820180516001600160e01b031663a9059cbb60e01b17905291516000928392908716916117ec91906122c6565b6000604051808303816000865af19150503d8060008114611829576040519150601f19603f3d011682016040523d82523d6000602084013e61182e565b606091505b509150915081801561185857508051158061185857508080602001905181019061185891906122e2565b6118745760405162461bcd60e51b81526004016106ab90612304565b5050505050565b600061071f8383611c87565b600081815260018301602052604081205480156119705760006118ab600183612031565b85549091506000906118bf90600190612031565b90508181146119245760008660000182815481106118df576118df612083565b906000526020600020015490508087600001848154811061190257611902612083565b6000918252602080832090910192909255918252600188019052604090208390555b855486908061193557611935612348565b600190038181906000526020600020016000905590558560010160008681526020019081526020016000206000905560019350505050610497565b6000915050610497565b8047101561199a5760405162461bcd60e51b81526004016106ab90612282565b60008051602061235f8339815191525460408051630d0e30db60e41b815290516001600160a01b039092169163d0e30db0918491600480830192600092919082900301818588803b1580156119ee57600080fd5b505af1158015611a02573d6000803e3d6000fd5b5050505050611a1c60008051602061235f83398151915290565b5460405163a9059cbb60e01b81526001600160a01b038481166004830152602482018490529091169063a9059cbb90604401602060405180830381600087803b158015611a6857600080fd5b505af1158015611a7c573d6000803e3d6000fd5b505050506040513d601f19601f8201168201806040525081019061077691906122e2565b604080516001600160a01b0385811660248301528481166044830152606480830185905283518084039091018152608490920183526020820180516001600160e01b03166323b872dd60e01b1790529151600092839290881691611b0491906122c6565b6000604051808303816000865af19150503d8060008114611b41576040519150601f19603f3d011682016040523d82523d6000602084013e611b46565b606091505b5091509150818015611b70575080511580611b70575080806020019051810190611b7091906122e2565b611b8c5760405162461bcd60e51b81526004016106ab90612304565b505050505050565b6000826000018281548110611bab57611bab612083565b9060005260206000200154905092915050565b604080516000808252602082019092526001600160a01b038416908390604051611be891906122c6565b60006040518083038185875af1925050503d8060008114611c25576040519150601f19603f3d011682016040523d82523d6000602084013e611c2a565b606091505b50509050806107765760405162461bcd60e51b815260206004820152602360248201527f5472616e7366657248656c7065723a204554485f5452414e534645525f46414960448201526213115160ea1b60648201526084016106ab565b6000818152600183016020526040812054611cce57508154600181810184556000848152602080822090930184905584548482528286019093526040902091909155610497565b506000610497565b600060208284031215611ce857600080fd5b5035919050565b80356001600160a01b0381168114611d0657600080fd5b919050565b60008060408385031215611d1e57600080fd5b611d2783611cef565b946020939093013593505050565b60008060408385031215611d4857600080fd5b82359150611d5860208401611cef565b90509250929050565b600060208284031215611d7357600080fd5b61071f82611cef565b634e487b7160e01b600052604160045260246000fd5b60405160e0810167ffffffffffffffff81118282101715611db557611db5611d7c565b60405290565b604051610140810167ffffffffffffffff81118282101715611db557611db5611d7c565b604051601f8201601f1916810167ffffffffffffffff81118282101715611e0857611e08611d7c565b604052919050565b600080828403610100811215611e2557600080fd5b611e2e84611cef565b925060e0601f1982011215611e4257600080fd5b50611e4b611d92565b6020840135815260408401356020820152606084013560408201526080840135606082015260a0840135608082015260c084013560a082015260e084013560c0820152809150509250929050565b600080600060608486031215611eae57600080fd5b611eb784611cef565b95602085013595506040909401359392505050565b60008060008060808587031215611ee257600080fd5b84359350611ef260208601611cef565b9250611f0060408601611cef565b9396929550929360600135925050565b6020808252825182820181905260009190848201906040850190845b81811015611f4857835183529284019291840191600101611f2c565b50909695505050505050565b634e487b7160e01b600052601160045260246000fd5b6000816000190483118215151615611f8457611f84611f54565b500290565b6000610100808385031215611f9d57600080fd5b6040519081019067ffffffffffffffff82118183101715611fc057611fc0611d7c565b81604052835181526020840151602082015260408401516040820152606084015160608201526080840151608082015260a084015160a082015260c084015160c082015260e084015160e0820152809250505092915050565b6000821982111561202c5761202c611f54565b500190565b60008282101561204357612043611f54565b500390565b60006020828403121561205a57600080fd5b5051919050565b60008261207e57634e487b7160e01b600052601260045260246000fd5b500490565b634e487b7160e01b600052603260045260246000fd5b6000604082018483526020604081850152818551808452606086019150828701935060005b818110156120da578451835293830193918301916001016120be565b5090979650505050505050565b600060208083850312156120fa57600080fd5b825167ffffffffffffffff8082111561211257600080fd5b818501915085601f83011261212657600080fd5b81518181111561213857612138611d7c565b8060051b9150612149848301611ddf565b818152918301840191848101908884111561216357600080fd5b938501935b83851015610d9157845182529385019390850190612168565b600060001982141561219557612195611f54565b5060010190565b600061014082840312156121af57600080fd5b6121b7611dbb565b825181526020830151602082015260408301516040820152606083015160608201526080830151608082015260a083015160a082015260c083015160c082015260e083015160e08201526101008084015181830152506101208084015181830152508091505092915050565b60005b8381101561223e578181015183820152602001612226565b8381111561149a5750506000910152565b602081526000825180602084015261226e816040850160208701612223565b601f01601f19169190910160400192915050565b60208082526024908201527f5472616e7366657248656c7065723a20496e73756666696369656e742062616c604082015263616e636560e01b606082015260800190565b600082516122d8818460208701612223565b9190910192915050565b6000602082840312156122f457600080fd5b8151801515811461071f57600080fd5b60208082526024908201527f5472616e7366657248656c7065723a205452414e534645525f46524f4d5f46416040820152631253115160e21b606082015260800190565b634e487b7160e01b600052603160045260246000fdfe6f969d660e14559aec53d066903ba87981d0679d31bf1d3793a220e70e02808ba26469706673582212209416e8e82bd1af35ad1ff6e5df740c162bd56bb01d814771cbe1ec5e1d71528764736f6c63430008090033",
  "devdoc": {
    "kind": "dev",
    "methods": {},
    "version": 1
  },
  "userdoc": {
    "kind": "user",
    "methods": {},
    "version": 1
  },
  "storageLayout": {
    "storage": [],
    "types": null
  }
}