{
  "address": "0xE1Bca95415f50d4aA079a6867B038E81f10Abf83",
  "abi": [
    {
      "anonymous": false,
      "inputs": [
        {
          "indexed": true,
          "internalType": "address",
          "name": "user",
          "type": "address"
        },
        {
          "indexed": false,
          "internalType": "bytes32",
          "name": "collateralCcy",
          "type": "bytes32"
        },
        {
          "indexed": true,
          "internalType": "bytes32",
          "name": "debtCcy",
          "type": "bytes32"
        },
        {
          "indexed": true,
          "internalType": "uint256",
          "name": "debtMaturity",
          "type": "uint256"
        },
        {
          "indexed": false,
          "internalType": "uint256",
          "name": "debtAmount",
          "type": "uint256"
        }
      ],
      "name": "LiquidationExecuted",
      "type": "event"
    },
    {
      "anonymous": false,
      "inputs": [
        {
          "indexed": true,
          "internalType": "address",
          "name": "taker",
          "type": "address"
        },
        {
          "indexed": true,
          "internalType": "bytes32",
          "name": "ccy",
          "type": "bytes32"
        },
        {
          "indexed": false,
          "internalType": "enum ProtocolTypes.Side",
          "name": "side",
          "type": "uint8"
        },
        {
          "indexed": true,
          "internalType": "uint256",
          "name": "maturity",
          "type": "uint256"
        },
        {
          "indexed": false,
          "internalType": "uint256",
          "name": "amount",
          "type": "uint256"
        },
        {
          "indexed": false,
          "internalType": "uint256",
          "name": "futureValue",
          "type": "uint256"
        }
      ],
      "name": "OrderFilled",
      "type": "event"
    },
    {
      "anonymous": false,
      "inputs": [
        {
          "indexed": true,
          "internalType": "address",
          "name": "taker",
          "type": "address"
        },
        {
          "indexed": true,
          "internalType": "bytes32",
          "name": "ccy",
          "type": "bytes32"
        },
        {
          "indexed": false,
          "internalType": "enum ProtocolTypes.Side",
          "name": "side",
          "type": "uint8"
        },
        {
          "indexed": true,
          "internalType": "uint256",
          "name": "maturity",
          "type": "uint256"
        },
        {
          "indexed": false,
          "internalType": "uint256",
          "name": "amount",
          "type": "uint256"
        },
        {
          "indexed": false,
          "internalType": "uint256",
          "name": "futureValue",
          "type": "uint256"
        }
      ],
      "name": "OrdersFilledInAsync",
      "type": "event"
    },
    {
      "anonymous": false,
      "inputs": [
        {
          "indexed": true,
          "internalType": "address",
          "name": "user",
          "type": "address"
        },
        {
          "indexed": false,
          "internalType": "uint256",
          "name": "amount",
          "type": "uint256"
        }
      ],
      "name": "RedemptionCompleted",
      "type": "event"
    },
    {
      "inputs": [
        {
          "internalType": "bytes32",
          "name": "_ccy",
          "type": "bytes32"
        },
        {
          "internalType": "uint256",
          "name": "_maturity",
          "type": "uint256"
        },
        {
          "internalType": "address",
          "name": "_user",
          "type": "address"
        }
      ],
      "name": "calculateActualFunds",
      "outputs": [
        {
          "components": [
            {
              "internalType": "int256",
              "name": "presentValue",
              "type": "int256"
            },
            {
              "internalType": "uint256",
              "name": "claimableAmount",
              "type": "uint256"
            },
            {
              "internalType": "uint256",
              "name": "debtAmount",
              "type": "uint256"
            },
            {
              "internalType": "int256",
              "name": "futureValue",
              "type": "int256"
            },
            {
              "internalType": "uint256",
              "name": "workingLendOrdersAmount",
              "type": "uint256"
            },
            {
              "internalType": "uint256",
              "name": "lentAmount",
              "type": "uint256"
            },
            {
              "internalType": "uint256",
              "name": "workingBorrowOrdersAmount",
              "type": "uint256"
            },
            {
              "internalType": "uint256",
              "name": "borrowedAmount",
              "type": "uint256"
            },
            {
              "internalType": "int256",
              "name": "genesisValue",
              "type": "int256"
            }
          ],
          "internalType": "struct FundManagementLogic.ActualFunds",
          "name": "actualFunds",
          "type": "tuple"
        }
      ],
      "stateMutability": "view",
      "type": "function"
    },
    {
      "inputs": [
        {
          "internalType": "bytes32",
          "name": "_ccy",
          "type": "bytes32"
        },
        {
          "internalType": "address",
          "name": "_user",
          "type": "address"
        }
      ],
      "name": "calculateFunds",
      "outputs": [
        {
          "internalType": "uint256",
          "name": "workingLendOrdersAmount",
          "type": "uint256"
        },
        {
          "internalType": "uint256",
          "name": "claimableAmount",
          "type": "uint256"
        },
        {
          "internalType": "uint256",
          "name": "collateralAmount",
          "type": "uint256"
        },
        {
          "internalType": "uint256",
          "name": "lentAmount",
          "type": "uint256"
        },
        {
          "internalType": "uint256",
          "name": "workingBorrowOrdersAmount",
          "type": "uint256"
        },
        {
          "internalType": "uint256",
          "name": "debtAmount",
          "type": "uint256"
        },
        {
          "internalType": "uint256",
          "name": "borrowedAmount",
          "type": "uint256"
        }
      ],
      "stateMutability": "view",
      "type": "function"
    },
    {
      "inputs": [
        {
          "internalType": "address",
          "name": "_user",
          "type": "address"
        },
        {
          "internalType": "bytes32",
          "name": "_depositCcy",
          "type": "bytes32"
        },
        {
          "internalType": "uint256",
          "name": "_depositAmount",
          "type": "uint256"
        }
      ],
      "name": "calculateTotalFundsInBaseCurrency",
      "outputs": [
        {
          "internalType": "uint256",
          "name": "totalWorkingLendOrdersAmount",
          "type": "uint256"
        },
        {
          "internalType": "uint256",
          "name": "totalClaimableAmount",
          "type": "uint256"
        },
        {
          "internalType": "uint256",
          "name": "totalCollateralAmount",
          "type": "uint256"
        },
        {
          "internalType": "uint256",
          "name": "totalLentAmount",
          "type": "uint256"
        },
        {
          "internalType": "uint256",
          "name": "totalWorkingBorrowOrdersAmount",
          "type": "uint256"
        },
        {
          "internalType": "uint256",
          "name": "totalDebtAmount",
          "type": "uint256"
        },
        {
          "internalType": "uint256",
          "name": "totalBorrowedAmount",
          "type": "uint256"
        },
        {
          "internalType": "bool",
          "name": "isEnoughDeposit",
          "type": "bool"
        }
      ],
      "stateMutability": "view",
      "type": "function"
    },
    {
      "inputs": [
        {
          "internalType": "bytes32",
          "name": "_ccy",
          "type": "bytes32"
        },
        {
          "internalType": "uint256",
          "name": "_maturity",
          "type": "uint256"
        },
        {
          "internalType": "address",
          "name": "_user",
          "type": "address"
        }
      ],
      "name": "getPosition",
      "outputs": [
        {
          "internalType": "int256",
          "name": "presentValue",
          "type": "int256"
        },
        {
          "internalType": "int256",
          "name": "futureValue",
          "type": "int256"
        }
      ],
      "stateMutability": "view",
      "type": "function"
    },
    {
      "inputs": [
        {
          "internalType": "bytes32[]",
          "name": "_ccys",
          "type": "bytes32[]"
        },
        {
          "internalType": "address",
          "name": "_user",
          "type": "address"
        }
      ],
      "name": "getPositions",
      "outputs": [
        {
          "components": [
            {
              "internalType": "bytes32",
              "name": "ccy",
              "type": "bytes32"
            },
            {
              "internalType": "uint256",
              "name": "maturity",
              "type": "uint256"
            },
            {
              "internalType": "int256",
              "name": "presentValue",
              "type": "int256"
            },
            {
              "internalType": "int256",
              "name": "futureValue",
              "type": "int256"
            }
          ],
          "internalType": "struct ILendingMarketController.Position[]",
          "name": "positions",
          "type": "tuple[]"
        }
      ],
      "stateMutability": "view",
      "type": "function"
    },
    {
      "inputs": [
        {
          "internalType": "bytes32",
          "name": "_ccy",
          "type": "bytes32"
        },
        {
          "internalType": "address",
          "name": "_user",
          "type": "address"
        }
      ],
      "name": "getPositionsPerCurrency",
      "outputs": [
        {
          "components": [
            {
              "internalType": "bytes32",
              "name": "ccy",
              "type": "bytes32"
            },
            {
              "internalType": "uint256",
              "name": "maturity",
              "type": "uint256"
            },
            {
              "internalType": "int256",
              "name": "presentValue",
              "type": "int256"
            },
            {
              "internalType": "int256",
              "name": "futureValue",
              "type": "int256"
            }
          ],
          "internalType": "struct ILendingMarketController.Position[]",
          "name": "positions",
          "type": "tuple[]"
        }
      ],
      "stateMutability": "view",
      "type": "function"
    },
    {
      "inputs": [
        {
          "internalType": "bytes32",
          "name": "_ccy",
          "type": "bytes32"
        },
        {
          "internalType": "address",
          "name": "_user",
          "type": "address"
        }
      ],
      "name": "getUsedMaturities",
      "outputs": [
        {
          "internalType": "uint256[]",
          "name": "maturities",
          "type": "uint256[]"
        }
      ],
      "stateMutability": "view",
      "type": "function"
    }
  ],
  "transactionHash": "0x0061fe0cd6cf32d99619f10a60b3bc51b1e6b79bebab578bb26f84540c5e3822",
  "args": [],
  "numDeployments": 4,
  "solcInputHash": "6825000ef597f2c360d7e15edb13df2c",
  "bytecode": "0x6157b06200003b600b82828239805160001a60731461002e57634e487b7160e01b600052600060045260246000fd5b30600052607381538281f3fe73000000000000000000000000000000000000000030146080604052600436106100f45760003560e01c8063826b47e811610096578063b61ef55a11610070578063b61ef55a146102de578063b6eb033d146102fe578063e079842b1461031e578063fd4584e61461033157600080fd5b8063826b47e81461027e5780639519832b1461029e578063a86c2a3e146102be57600080fd5b8063390e5d12116100d2578063390e5d12146101765780634ad23880146101965780635c34776514610216578063798ac0c01461025e57600080fd5b8063062ea294146100f957806312d09d3c14610126578063300074c914610148575b600080fd5b61010c610107366004614ceb565b610381565b604080519283526020830191909152015b60405180910390f35b81801561013257600080fd5b50610146610141366004614d20565b6103a6565b005b81801561015457600080fd5b50610168610163366004614ceb565b6108ed565b60405190815260200161011d565b81801561018257600080fd5b50610146610191366004614d4c565b610ae6565b6101a96101a4366004614ceb565b610e1a565b60405161011d9190600061012082019050825182526020830151602083015260408301516040830152606083015160608301526080830151608083015260a083015160a083015260c083015160c083015260e083015160e083015261010080840151818401525092915050565b610229610224366004614dca565b61173a565b604080519788526020880196909652948601939093526060850191909152608084015260a083015260c082015260e00161011d565b61027161026c366004614e61565b611831565b60405161011d9190614f09565b81801561028a57600080fd5b50610146610299366004614d20565b611a48565b8180156102aa57600080fd5b506101686102b9366004614dca565b611aac565b8180156102ca57600080fd5b506101466102d9366004614f6d565b611e18565b6102f16102ec366004614dca565b61284f565b60405161011d9190614fba565b81801561030a57600080fd5b50610146610319366004614ceb565b612925565b61027161032c366004614dca565b612a00565b61034461033f366004614ffe565b612c1c565b604080519889526020890197909752958701949094526060860192909252608085015260a084015260c0830152151560e08201526101000161011d565b6000806000610391868686610e1a565b80516060909101519097909650945050505050565b6103ae61312b565b6001600160a01b0382166000908152600d91909101602052604090205460ff16156104135760405162461bcd60e51b815260206004820152601060248201526f105b1c9958591e481c995919595b595960821b60448201526064015b60405180910390fd5b60008061044261042161312b565b6001600160a01b03851660009081526009919091016020526040902061314f565b905060005b81518110156104ba57600061047583838151811061046757610467615031565b60200260200101518661315a565b905061049a83838151811061048c5761048c615031565b602002602001015182613342565b6104a4908561505d565b93505080806104b29061509e565b915050610447565b5060006104c5613428565b6001600160a01b031663d5e190d06040518163ffffffff1660e01b815260040160006040518083038186803b1580156104fd57600080fd5b505afa158015610511573d6000803e3d6000fd5b505050506040513d6000823e601f3d908101601f1916820160405261053991908101906150b9565b905060005b815181101561063c576000610605610554613428565b6001600160a01b031663055d237a8886868151811061057557610575615031565b60200260200101516040518363ffffffff1660e01b81526004016105ae9291906001600160a01b03929092168252602082015260400190565b602060405180830381600087803b1580156105c857600080fd5b505af11580156105dc573d6000803e3d6000fd5b505050506040513d601f19601f82011682018060405250810190610600919061514a565b613445565b905061061c83838151811061048c5761048c615031565b610626908661505d565b94505080806106349061509e565b91505061053e565b506000831315610824576000815167ffffffffffffffff81111561066257610662614df6565b60405190808252806020026020018201604052801561068b578160200160208202803683370190505b5090506000805b835181101561072f5760008482815181106106af576106af615031565b602002602001015190506106c161312b565b6004016000828152602001908152602001600020548483815181106106e8576106e8615031565b60200260200101818152505083828151811061070657610706615031565b6020026020010151836107199190615163565b92505080806107279061509e565b915050610692565b5060005b835181101561081c57600084828151811061075057610750615031565b60200260200101519050600061079c826107978688878151811061077657610776615031565b60200260200101516107878d6134b3565b610791919061517b565b90613505565b613576565b90506107a6613428565b6001600160a01b0316634ba0c9b58a84846040518463ffffffff1660e01b81526004016107d59392919061519a565b600060405180830381600087803b1580156107ef57600080fd5b505af1158015610803573d6000803e3d6000fd5b50505050505080806108149061509e565b915050610733565b505050610875565b60008312156108755760405162461bcd60e51b815260206004820152601760248201527f496e73756666696369656e7420636f6c6c61746572616c000000000000000000604482015260640161040a565b600161087f61312b565b6001600160a01b0386166000818152600d929092016020526040909120805460ff1916921515929092179091557f7845dd5b7d075bcbcd271a1ce948b21c833ffa06e4034b3119276a79ff9a02896108d6856134b3565b60405190815260200160405180910390a250505050565b6000806108f861312b565b6000868152600691909101602052604081209061091361312b565b6000888152600791909101602090815260408083208984528252808320546001600160a01b03908116855291840194909452918301812054925163ae100e6d60e01b815286831660048201526024810188905292909116925090819081908190859063ae100e6d90604401608060405180830381600087803b15801561099857600080fd5b505af11580156109ac573d6000803e3d6000fd5b505050506040513d601f19601f820116820180604052508101906109d091906151bb565b935093509350935083600014610ad9578015610a5e576109ee613653565b60405163312c474560e01b8152600481018b90526001600160a01b03898116602483015260448201859052919091169063312c474590606401600060405180830381600087803b158015610a4157600080fd5b505af1158015610a55573d6000803e3d6000fd5b50505050610ad9565b610a66613653565b6040516360e3f72960e11b8152600481018b90526001600160a01b0389811660248301526044820185905260648201879052919091169063c1c7ee5290608401600060405180830381600087803b158015610ac057600080fd5b505af1158015610ad4573d6000803e3d6000fd5b505050505b5090979650505050505050565b6000610af061312b565b60008a81526006919091016020526040812090610b0b61312b565b60008c8152600791909101602090815260408083208d84528252808320546001600160a01b039081168552918401949094529190920182205416915082610b53576000610b5e565b610b5e898686613672565b90506001876001811115610b7457610b746151fc565b1415610c5757610b82613428565b6001600160a01b0316634ba0c9b5898c896040518463ffffffff1660e01b8152600401610bb19392919061519a565b600060405180830381600087803b158015610bcb57600080fd5b505af1158015610bdf573d6000803e3d6000fd5b50505050816001600160a01b0316635b0b2930898388610bff9190615163565b8c876040518563ffffffff1660e01b8152600401610c209493929190615212565b600060405180830381600087803b158015610c3a57600080fd5b505af1158015610c4e573d6000803e3d6000fd5b50505050610d30565b610c5f613428565b6001600160a01b031663fb7bd3b4898c896040518463ffffffff1660e01b8152600401610c8e9392919061519a565b600060405180830381600087803b158015610ca857600080fd5b505af1158015610cbc573d6000803e3d6000fd5b50505050816001600160a01b0316639e8d3d55898388610cdc919061523a565b8c876040518563ffffffff1660e01b8152600401610cfd9493929190615212565b600060405180830381600087803b158015610d1757600080fd5b505af1158015610d2b573d6000803e3d6000fd5b505050505b8015610dc7576000610d406136eb565b90506001600160a01b038316639e8d3d5582848d60008d6001811115610d6857610d686151fc565b146040518563ffffffff1660e01b8152600401610d889493929190615212565b600060405180830381600087803b158015610da257600080fd5b505af1158015610db6573d6000803e3d6000fd5b50505050610dc58b8b83612925565b505b888a896001600160a01b03167ff80dd09632f046e05472e1c239271a3b2ad3de73c27a1b03d0bb0329ba6716df8a8a8a604051610e0693929190615251565b60405180910390a450505050505050505050565b610e696040518061012001604052806000815260200160008152602001600081526020016000815260200160008152602001600081526020016000815260200160008152602001600081525090565b6040805160a081018252600080825260208201819052918101829052606080820152608081019190915283610ef05760018152610ea461312b565b6005016000868152602001908152602001600020600081548110610eca57610eca615031565b600091825260209182902001546001600160a01b03169082015260016040820152610f7a565b60008152610efc61312b565b6000868152600791909101602090815260408083208784528252909120546001600160a01b031690820152610f2f61312b565b6005016000868152602001908152602001600020600081548110610f5557610f55615031565b60009182526020918290200154908201516001600160a01b0390811691161460408201525b610f82613653565b60405163386320d360e11b8152600481018790526001600160a01b03858116602483015291909116906370c641a69060440160206040518083038186803b158015610fcc57600080fd5b505afa158015610fe0573d6000803e3d6000fd5b505050506040513d601f19601f82011682018060405250810190611004919061514a565b610100830152611014858461284f565b606082015260005b81606001515181101561146f57600061103361312b565b600701600088815260200190815260200160002060008460600151848151811061105f5761105f615031565b6020026020010151815260200190815260200160002060009054906101000a90046001600160a01b031690506000816001600160a01b031663e16695b56040518163ffffffff1660e01b815260040160206040518083038186803b1580156110c657600080fd5b505afa1580156110da573d6000803e3d6000fd5b505050506040513d601f19601f820116820180604052508101906110fe919061514a565b9050600061110a61312b565b60050160008a815260200190815260200160002060008154811061113057611130615031565b60009182526020909120015460408601516001600160a01b03858116921691909114915080611174575084602001516001600160a01b0316836001600160a01b0316145b156114595760006111898a8988868887613704565b9050600061119b8b8a898789886138f4565b905060006111ad8c8b8a888a89613a87565b80518351855192935090916111c29190615287565b6111cc919061505d565b89610100018181516111de919061505d565b90525060208082015183820151918501516000926111fb91615287565b611205919061505d565b9050808a600001818151611219919061505d565b905250841561122a57608089018190525b60008113156112555761123c816134b3565b8a60200181815161124d9190615163565b905250611284565b60008112156112845761126f61126a826152c6565b6134b3565b8a6040018181516112809190615163565b9052505b88516112c2578160400151836040015185604001516112a39190615287565b6112ad919061505d565b8a6060018181516112be919061505d565b9052505b82606001518a60c0018181516112d89190615163565b905250606082015160808b0180516112f1908390615163565b905250608083015160e08b01805161130a908390615163565b905250608082015160a08b018051611323908390615163565b9052506101008a01516000131561145457600061133e613653565b6001600160a01b031663aee1311e8f8d61010001518d606001518d8151811061136957611369615031565b602002602001015160018f6060015151611383919061523a565b8e146113b65760608f01516113998f6001615163565b815181106113a9576113a9615031565b60200260200101516113b9565b60005b6040516001600160e01b031960e087901b168152600481019490945260248401929092526044830152606482015260840160206040518083038186803b15801561140257600080fd5b505afa158015611416573d6000803e3d6000fd5b505050506040513d601f19601f8201168201806040525081019061143a919061514a565b9050808b6101000181815161144f919061505d565b905250505b505050505b50505080806114679061509e565b91505061101c565b5080604001518015611485575061010082015115155b15611732576000611494613653565b610100840151604051637636e94160e01b8152600481018990526000602482015260448101919091526001600160a01b039190911690637636e9419060640160206040518083038186803b1580156114eb57600080fd5b505afa1580156114ff573d6000803e3d6000fd5b505050506040513d601f19601f82011682018060405250810190611523919061514a565b905060006115df8261153361312b565b60050160008a815260200190815260200160002060008154811061155957611559615031565b60009182526020918290200154604080516371613c2d60e01b815290516001600160a01b03909216926371613c2d92600480840193829003018186803b1580156115a257600080fd5b505afa1580156115b6573d6000803e3d6000fd5b505050506040513d601f19601f820116820180604052508101906115da919061514a565b613c17565b905080846000018181516115f3919061505d565b905250600081131561168557600083608001511215611663576000836080015161161c906152c6565b82136116285781611636565b8360800151611636906152c6565b9050611641816134b3565b85604001818151611652919061523a565b90525061165f8183615287565b9150505b61166c816134b3565b8460200181815161167d9190615163565b905250611713565b6000811215611713576000836080015113156116f25760008360800151826116ac906152c6565b136116bf576116ba826152c6565b6116c5565b83608001515b90506116d0816134b3565b856020018181516116e1919061523a565b9052506116ee818361505d565b9150505b6116fe61126a826152c6565b8460400181815161170f9190615163565b9052505b825161172f57818460600181815161172b919061505d565b9052505b50505b509392505050565b6000806000806000806000806117528a60008b610e1a565b9050806080015197508060a0015194508060c0015193508060e00151915080602001519650806040015192506000871115611824576000611791613c3a565b6001600160a01b0316639abdb38a8c6040518263ffffffff1660e01b81526004016117be91815260200190565b60206040518083038186803b1580156117d657600080fd5b505afa1580156117ea573d6000803e3d6000fd5b505050506040513d601f19601f8201168201806040525081019061180e919061514a565b9050611820612710610791838b61517b565b9650505b5092959891949750929550565b6060600080845167ffffffffffffffff81111561185057611850614df6565b60405190808252806020026020018201604052801561188357816020015b606081526020019060019003908161186e5790505b50905060005b855181101561190c576118b58682815181106118a7576118a7615031565b602002602001015186612a00565b8282815181106118c7576118c7615031565b60200260200101819052508181815181106118e4576118e4615031565b602002602001015151836118f89190615163565b9250806119048161509e565b915050611889565b508167ffffffffffffffff81111561192657611926614df6565b60405190808252806020026020018201604052801561198557816020015b6119726040518060800160405280600080191681526020016000815260200160008152602001600081525090565b8152602001906001900390816119445790505b5092506000805b8251811015611a3e5760005b8382815181106119aa576119aa615031565b602002602001015151811015611a2b578382815181106119cc576119cc615031565b602002602001015181815181106119e5576119e5615031565b60200260200101518684815181106119ff576119ff615031565b60200260200101819052508280611a159061509e565b9350508080611a239061509e565b915050611998565b5080611a368161509e565b91505061198c565b5050505092915050565b6000611a5261312b565b6001600160a01b03831660009081526009919091016020526040812091505b611a7a82613c5a565b811015611aa757611a94611a8e8383613c64565b84611aac565b5080611a9f8161509e565b915050611a71565b505050565b60008080611aba858561284f565b905060005b8151811015611d3b576000611ad261312b565b60070160008881526020019081526020016000206000848481518110611afa57611afa615031565b6020026020010151815260200190815260200160002060009054906101000a90046001600160a01b031690506000816001600160a01b031663e16695b56040518163ffffffff1660e01b815260040160206040518083038186803b158015611b6157600080fd5b505afa158015611b75573d6000803e3d6000fd5b505050506040513d601f19601f82011682018060405250810190611b99919061514a565b90506000611ba889838a6108ed565b9050600080611bb88b858c613c70565b9092509050611bc7828a615163565b98508015611bdd57611bda8b858c6108ed565b92505b8215611be857600197505b82158015611bf4575081155b15611c6557611c63878781518110611c0e57611c0e615031565b6020026020010151611c1e61312b565b600a0160008e815260200190815260200160002060008d6001600160a01b03166001600160a01b0316815260200190815260200160002061401890919063ffffffff16565b505b611c6d613653565b6001600160a01b031663eeac29d88c8c60018b51611c8b919061523a565b8a14611cba578a611c9d8b6001615163565b81518110611cad57611cad615031565b6020026020010151611cbd565b60005b6040516001600160e01b031960e086901b16815260048101939093526001600160a01b0390911660248301526044820152606401600060405180830381600087803b158015611d0b57600080fd5b505af1158015611d1f573d6000803e3d6000fd5b5050505050505050508080611d339061509e565b915050611abf565b5082158015611d48575081155b8015611ddb5750611d57613653565b60405163386320d360e11b8152600481018790526001600160a01b03868116602483015291909116906370c641a69060440160206040518083038186803b158015611da157600080fd5b505afa158015611db5573d6000803e3d6000fd5b505050506040513d601f19601f82011682018060405250810190611dd9919061514a565b155b15611e1057611e0e85611dec61312b565b6001600160a01b03871660009081526009919091016020526040902090614018565b505b505092915050565b611e6d60405180610100016040528060006001600160a01b0316815260200160008152602001600081526020016000815260200160001515815260200160001515815260200160008152602001600081525090565b611e778486611aac565b50611e828386611aac565b506000611e90848488610e1a565b60400151905080611ee35760405162461bcd60e51b815260206004820181905260248201527f4e6f206465627420696e207468652073656c6563746564206d61747572697479604482015260640161040a565b611eeb613428565b6001600160a01b0316635257ed678787611f03613c3a565b6040516317338d9560e31b8152600481018a9052602481018b9052604481018790526001600160a01b03919091169063b99c6ca89060640160206040518083038186803b158015611f5357600080fd5b505afa158015611f67573d6000803e3d6000fd5b505050506040513d601f19601f82011682018060405250810190611f8b919061514a565b6040518463ffffffff1660e01b8152600401611fa99392919061519a565b60606040518083038186803b158015611fc157600080fd5b505afa158015611fd5573d6000803e3d6000fd5b505050506040513d601f19601f82011682018060405250810190611ff991906152e3565b60608501526040840152602083018190526120565760405162461bcd60e51b815260206004820152601a60248201527f557365722068617320656e6f75676820636f6c6c61746572616c000000000000604482015260640161040a565b6000612060613c3a565b60208401516040516317338d9560e31b8152600481018990526024810188905260448101919091526001600160a01b03919091169063b99c6ca89060640160206040518083038186803b1580156120b657600080fd5b505afa1580156120ca573d6000803e3d6000fd5b505050506040513d601f19601f820116820180604052508101906120ee919061514a565b90506120f861312b565b600501600086815260200190815260200160002060008154811061211e5761211e615031565b6000918252602090912001546001600160a01b031661213b61312b565b6000878152600791909101602090815260408083208884529091529020546001600160a01b03161460808401526121706136eb565b6001600160a01b031663b187bd266040518163ffffffff1660e01b815260040160206040518083038186803b1580156121a857600080fd5b505afa1580156121bc573d6000803e3d6000fd5b505050506040513d601f19601f820116820180604052508101906121e09190615311565b151560a08401526121ef6136eb565b6001600160a01b031683526060830151602084015161220e9190615163565b60c0840152600061221d613428565b8451604080870151905163500d2f6d60e01b8152600481018b90526001600160a01b038c811660248301529283166044820152606481019190915291169063500d2f6d90608401602060405180830381600087803b15801561227e57600080fd5b505af1158015612292573d6000803e3d6000fd5b505050506040513d601f19601f820116820180604052508101906122b6919061514a565b905080156122e2576122d6888560000151896122d185613445565b614024565b505060c0830151612384565b6122ea613428565b60c085015160405163500d2f6d60e01b8152600481018a90526001600160a01b038b811660248301528c81166044830152606482019290925291169063500d2f6d90608401602060405180830381600087803b15801561234957600080fd5b505af115801561235d573d6000803e3d6000fd5b505050506040513d601f19601f82011682018060405250810190612381919061514a565b90505b801561239f5761239c61126a898b8a6122d186613445565b90505b6000811180156123b157508360a00151155b156125035760006123c0613c3a565b6040516317338d9560e31b8152600481018a905260248101899052604481018490526001600160a01b03919091169063b99c6ca89060640160206040518083038186803b15801561241057600080fd5b505afa158015612424573d6000803e3d6000fd5b505050506040513d601f19601f82011682018060405250810190612448919061514a565b9050612452613428565b6040516354821c2160e01b81526001600160a01b038b8116600483015291909116906354821c219060240160206040518083038186803b15801561249557600080fd5b505afa1580156124a9573d6000803e3d6000fd5b505050506040513d601f19601f820116820180604052508101906124cd919061514a565b6124f5576124f261126a86600001518c8a8a6124e887613445565b8b60800151614134565b90505b6124ff818461523a565b9250505b6001600160a01b0389163b156125f55760c0840151604051630fa3ece160e11b81526001600160a01b038b811660048301819052908b166024830152604482018a90526064820192909252631f47d9c290608401602060405180830381600087803b15801561257157600080fd5b505af1158015612585573d6000803e3d6000fd5b505050506040513d601f19601f820116820180604052508101906125a99190615311565b6125f55760405162461bcd60e51b815260206004820152601b60248201527f496e76616c6964206f7065726174696f6e20657865637574696f6e0000000000604482015260640161040a565b81156127335760e08401829052612625888a888861261287613445565b61261b906152c6565b8960800151614134565b506001600160a01b0389163b156127335760c084015160e085015160405163091cad1b60e31b81526001600160a01b038c811660048301819052908c166024830152604482018b905260648201939093526084810189905260a4810188905260c48101919091526348e568d89060e401602060405180830381600087803b1580156126af57600080fd5b505af11580156126c3573d6000803e3d6000fd5b505050506040513d601f19601f820116820180604052508101906126e79190615311565b6127335760405162461bcd60e51b815260206004820152601b60248201527f496e76616c6964206f7065726174696f6e20657865637574696f6e0000000000604482015260640161040a565b61273b613428565b6040516325e1f09f60e01b81523360048201526001600160a01b0391909116906325e1f09f9060240160206040518083038186803b15801561277c57600080fd5b505afa158015612790573d6000803e3d6000fd5b505050506040513d601f19601f820116820180604052508101906127b49190615311565b6127f65760405162461bcd60e51b815260206004820152601360248201527224b73b30b634b2103634b8bab4b230ba34b7b760691b604482015260640161040a565b8486896001600160a01b03167f347d8f9576f47b3bd7a4821cd3d3d4171968cdd36680d4abaca7de302d836f998a8660405161283c929190918252602082015260400190565b60405180910390a4505050505050505050565b606061288761285c61312b565b6000858152600a91909101602090815260408083206001600160a01b03871684529091529020614647565b80519091501561291f57604051634f64581360e11b8152739aDD6A675fc7E008cB3a22560A575606ED3302c290639ec8b026906128c8908490600401614fba565b60006040518083038186803b1580156128e057600080fd5b505af41580156128f4573d6000803e3d6000fd5b505050506040513d6000823e601f3d908101601f1916820160405261291c91908101906150b9565b90505b92915050565b61295d8261293161312b565b6000868152600a91909101602090815260408083206001600160a01b038716845290915290209061465b565b611aa7576129998261296d61312b565b6000868152600a91909101602090815260408083206001600160a01b0387168452909152902090614673565b506129c8836129a661312b565b6001600160a01b0384166000908152600991909101602052604090209061465b565b611aa7576129fa836129d861312b565b6001600160a01b03841660009081526009919091016020526040902090614673565b50505050565b60606000612a0c61312b565b6005016000858152602001908152602001600020805480602002602001604051908101604052809291908181526020018280548015612a7457602002820191906000526020600020905b81546001600160a01b03168152600190910190602001808311612a56575b50505050509050805167ffffffffffffffff811115612a9557612a95614df6565b604051908082528060200260200182016040528015612af457816020015b612ae16040518060800160405280600080191681526020016000815260200160008152602001600081525090565b815260200190600190039081612ab35790505b5091506000805b8251811015611e0e576000838281518110612b1857612b18615031565b60200260200101516001600160a01b031663e16695b56040518163ffffffff1660e01b815260040160206040518083038186803b158015612b5857600080fd5b505afa158015612b6c573d6000803e3d6000fd5b505050506040513d601f19601f82011682018060405250810190612b90919061514a565b9050600080612ba089848a610381565b915091508060001415612bb95760018751038752612c06565b60405180608001604052808a815260200184815260200183815260200182815250878681518110612bec57612bec615031565b60200260200101819052508480612c029061509e565b9550505b5050508080612c149061509e565b915050612afb565b6000806000806000806000806000612c3261312b565b60090160008d6001600160a01b03166001600160a01b031681526020019081526020016000209050612c966040518060c001604052806060815260200160008019168152602001606081526020016060815260200160008152602001600081525090565b612c9e613428565b6001600160a01b0316633f90a08e612cb58461314f565b6040518263ffffffff1660e01b8152600401612cd19190614fba565b60006040518083038186803b158015612ce957600080fd5b505afa158015612cfd573d6000803e3d6000fd5b505050506040513d6000823e601f3d908101601f19168201604052612d25919081019061532e565b8152608081018b905260005b612d3a83613c5a565b81101561310d57612d4b8382613c64565b602083015260408051600780825261010082019092529081602001602082028036833750505060408301526020820151612d85908f61173a565b8860400151600081518110612d9c57612d9c615031565b602002602001018960400151600181518110612dba57612dba615031565b602002602001018a60400151600281518110612dd857612dd8615031565b602002602001018b60400151600381518110612df657612df6615031565b602002602001018c60400151600481518110612e1457612e14615031565b602002602001018d60400151600581518110612e3257612e32615031565b602002602001018e60400151600681518110612e5057612e50615031565b6020908102919091018101979097529690965295909452949093529390529290529190528201518d1415612f0f578160400151600681518110612e9557612e95615031565b602002602001015182608001818151612eae9190615163565b905250604082015180516003908110612ec957612ec9615031565b60200260200101518260400151600081518110612ee857612ee8615031565b6020026020010151612efa9190615163565b8260a001818151612f0b9190615163565b9052505b612f17613c3a565b6001600160a01b0316638a2eae92836020015184604001516040518363ffffffff1660e01b8152600401612f4c9291906153bd565b60006040518083038186803b158015612f6457600080fd5b505afa158015612f78573d6000803e3d6000fd5b505050506040513d6000823e601f3d908101601f19168201604052612fa091908101906150b9565b6060830181905280516001908110612fba57612fba615031565b60200260200101518a612fcd9190615163565b99508160600151600281518110612fe657612fe6615031565b602002602001015189612ff99190615163565b9850816060015160048151811061301257613012615031565b6020026020010151876130259190615163565b9650816060015160058151811061303e5761303e615031565b6020026020010151866130519190615163565b95508160000151818151811061306957613069615031565b6020026020010151156130fb57816060015160008151811061308d5761308d615031565b60200260200101518b6130a09190615163565b9a5081606001516003815181106130b9576130b9615031565b6020026020010151886130cc9190615163565b975081606001516006815181106130e5576130e5615031565b6020026020010151856130f89190615163565b94505b806131058161509e565b915050612d31565b508060a0015181608001511015925050509397509397509397509397565b7f8041b8421ebd495cc61f38c788c9eb100daccf9bd36aa0bb920b7a15b2e0496590565b606061291f8261467f565b60006131668383611aac565b5061317383600084610e1a565b51905060006131ae61318361312b565b6000868152600a91909101602090815260408083206001600160a01b03881684529091529020614647565b905060005b81518110156132a7576131c461312b565b600086815260069190910160205260408120906131df61312b565b6007016000888152602001908152602001600020600085858151811061320757613207615031565b60209081029190910181015182528181019290925260409081016000908120546001600160a01b039081168552928401949094529182019092205490516366c9d55160e01b815286831660048201529116906366c9d55190602401600060405180830381600087803b15801561327c57600080fd5b505af1158015613290573d6000803e3d6000fd5b50505050808061329f9061509e565b9150506131b3565b506132b0613653565b60405163b340398d60e01b8152600481018690526001600160a01b038581166024830152919091169063b340398d90604401600060405180830381600087803b1580156132fc57600080fd5b505af1158015613310573d6000803e3d6000fd5b50505050611e108461332061312b565b6001600160a01b03861660009081526009919091016020526040902090614018565b600061334c61312b565b5483141561335b57508061291f565b6000613365613c3a565b6001600160a01b03166312105fea856040518263ffffffff1660e01b815260040161339291815260200190565b60206040518083038186803b1580156133aa57600080fd5b505afa1580156133be573d6000803e3d6000fd5b505050506040513d601f19601f820116820180604052508101906133e291906153fe565b90506134206133f561060083600a615505565b6133fd61312b565b6000878152600391909101602052604090205461341a9086615514565b906146db565b91505061291f565b600061344069151bdad95b95985d5b1d60b21b614766565b905090565b60006001600160ff1b038211156134af5760405162461bcd60e51b815260206004820152602860248201527f53616665436173743a2076616c756520646f65736e27742066697420696e2061604482015267371034b73a191a9b60c11b606482015260840161040a565b5090565b6000808212156134af5760405162461bcd60e51b815260206004820181905260248201527f53616665436173743a2076616c7565206d75737420626520706f736974697665604482015260640161040a565b600080821161351357600080fd5b600561351f83856155af565b61352a90600a61517b565b8361353686600a61517b565b61354091906155af565b61354a919061523a565b10156135615761355a82846155af565b905061291f565b61356b82846155af565b61355a906001615163565b600061358061312b565b5483141561358f57508061291f565b6000613599613c3a565b6001600160a01b03166312105fea856040518263ffffffff1660e01b81526004016135c691815260200190565b60206040518083038186803b1580156135de57600080fd5b505afa1580156135f2573d6000803e3d6000fd5b505050506040513d601f19601f8201168201806040525081019061361691906153fe565b905061342061363e61362661312b565b600087815260039190910160205260409020546134b3565b61364983600a615505565b610791908661517b565b60006134407011d95b995cda5cd5985b1d5955985d5b1d607a1b614766565b60008342106136b65760405162461bcd60e51b815260206004820152601060248201526f496e76616c6964206d6174757269747960801b604482015260640161040a565b60006136c2428661523a565b90506136e26136d76127106301e1338061517b565b85610787848761517b565b95945050505050565b60006134406a14995cd95c9d99519d5b9960aa1b614766565b61372860405180606001604052806000815260200160008152602001600081525090565b60008061373361312b565b60008a8152600691909101602090815260408083206001600160a01b03898116855292529182902054915163070da1af60e11b81528a82166004820152911690630e1b435e90602401604080518083038186803b15801561379357600080fd5b505afa1580156137a7573d6000803e3d6000fd5b505050506040513d601f19601f820116820180604052508101906137cb91906155c3565b91509150816000146138e8578086146138815786604001511561387c576137f0613653565b604051630c30971960e11b8152600481018b905260248101839052604481018490526001600160a01b0391909116906318612e32906064015b60206040518083038186803b15801561384157600080fd5b505afa158015613855573d6000803e3d6000fd5b505050506040513d601f19601f82011682018060405250810190613879919061514a565b83525b6138e8565b808614156138e85786518015613895575083155b156138b4576138a58982846147fe565b604085015260208401526138e8565b8651806138c357508660400151155b806138cb5750835b156138e857604083018290526138e2898284614a2b565b60208401525b50509695505050505050565b6139266040518060a0016040528060008152602001600081526020016000815260200160008152602001600081525090565b604051631c7b209b60e31b81526001600160a01b038781166004830152600091829186169063e3d904d89060240160806040518083038186803b15801561396c57600080fd5b505afa158015613980573d6000803e3d6000fd5b505050506040513d601f19601f820116820180604052508101906139a491906155e7565b60808701929092526060860192909252909250905081156138e857808614613a225786604001511561387c576139d8613653565b6001600160a01b03166318612e328a836139f186613445565b6040516001600160e01b031960e086901b168152600481019390935260248301919091526044820152606401613829565b808614156138e85786518015613a36575083155b15613a4e576138a58982613a4985613445565b6147fe565b865180613a5d57508660400151155b80613a655750835b156138e857613a7382613445565b604084018190526138e2908a908390614a2b565b613ab96040518060a0016040528060008152602001600081526020016000815260200160008152602001600081525090565b6040516339f7dda360e21b81526001600160a01b038781166004830152600091829186169063e7df768c9060240160806040518083038186803b158015613aff57600080fd5b505afa158015613b13573d6000803e3d6000fd5b505050506040513d601f19601f82011682018060405250810190613b3791906155e7565b60808701929092526060860192909252909250905081156138e857808614613a225786604001511561387c57613b6b613653565b6001600160a01b03166318612e328a83613b8486613445565b6040516001600160e01b031960e086901b16815260048101939093526024830191909152604482015260640160206040518083038186803b158015613bc857600080fd5b505afa158015613bdc573d6000803e3d6000fd5b505050506040513d601f19601f82011682018060405250810190613c00919061514a565b83518490613c0f90839061505d565b9052506138e8565b600061291c613c27612710613445565b613c3084613445565b61341a9086615514565b60006134407121bab93932b731bca1b7b73a3937b63632b960711b614766565b600061291f825490565b600061291c8383614ad5565b6000806000613c7d61312b565b60008781526006919091016020526040812090613c9861312b565b6000898152600791909101602090815260408083208a84528252808320546001600160a01b0390811685529184019490945291909201822054169150808080808080613ce261312b565b60008e8152600791909101602090815260408083208f845290915290819020549051633d4eccdf60e01b81526001600160a01b038d8116600483015290911690633d4eccdf9060240160e060405180830381600087803b158015613d4557600080fd5b505af1158015613d59573d6000803e3d6000fd5b505050506040513d601f19601f82011682018060405250810190613d7d919061561d565b965096509650965096509650965081831115613e0a57613d9b613428565b6001600160a01b031663fb7bd3b48c8f613db5868861523a565b6040518463ffffffff1660e01b8152600401613dd39392919061519a565b600060405180830381600087803b158015613ded57600080fd5b505af1158015613e01573d6000803e3d6000fd5b50505050613e85565b81831015613e8557613e1a613428565b6001600160a01b0316634ba0c9b58c8f613e34878761523a565b6040518463ffffffff1660e01b8152600401613e529392919061519a565b600060405180830381600087803b158015613e6c57600080fd5b505af1158015613e80573d6000803e3d6000fd5b505050505b8415613f3957604051639e8d3d5560e01b81526001600160a01b03891690639e8d3d5590613ebe908e9089908690600090600401615212565b600060405180830381600087803b158015613ed857600080fd5b505af1158015613eec573d6000803e3d6000fd5b50505050808d8c6001600160a01b03167fba00994778888e87ce0908fd360c4b0417bfe7e274cce4cb72ed8a60b38b3e386000878a604051613f3093929190615251565b60405180910390a45b8315613fed576040516305b0b29360e41b81526001600160a01b03891690635b0b293090613f72908e9088908690600090600401615212565b600060405180830381600087803b158015613f8c57600080fd5b505af1158015613fa0573d6000803e3d6000fd5b50505050808d8c6001600160a01b03167fba00994778888e87ce0908fd360c4b0417bfe7e274cce4cb72ed8a60b38b3e3860018689604051613fe493929190615251565b60405180910390a45b6000613ff98587615163565b1198506140068688615163565b99505050505050505050935093915050565b600061291c8383614aff565b600080614031848761284f565b9050600061403d61312b565b600501600086815260200190815260200160002060008154811061406357614063615031565b60009182526020822001548594506001600160a01b031691505b8251811015614129578361409057614129565b6141158888888685815181106140a8576140a8615031565b602002602001015188876001600160a01b03166140c361312b565b60070160008e815260200190815260200160002060008b8a815181106140eb576140eb615031565b6020908102919091018101518252810191909152604001600020546001600160a01b031614614134565b9350806141218161509e565b91505061407d565b505050949350505050565b8160008112821561446d576000614149613653565b60405163386320d360e11b8152600481018990526001600160a01b038b8116602483015291909116906370c641a69060440160206040518083038186803b15801561419357600080fd5b505afa1580156141a7573d6000803e3d6000fd5b505050506040513d601f19601f820116820180604052508101906141cb919061514a565b90508180156141da5750600081125b806141ee5750811580156141ee5750600081135b1561446b5760006141fd613653565b6001600160a01b03166349a1d218896040518263ffffffff1660e01b815260040161422a91815260200190565b60206040518083038186803b15801561424257600080fd5b505afa158015614256573d6000803e3d6000fd5b505050506040513d601f19601f8201168201806040525081019061427a919061514a565b90506000614286613653565b6001600160a01b03166318612e328a60006142a28d878b614bf2565b6040516001600160e01b031960e086901b16815260048101939093526024830191909152604482015260640160206040518083038186803b1580156142e657600080fd5b505afa1580156142fa573d6000803e3d6000fd5b505050506040513d601f19601f8201168201806040525081019061431e919061514a565b905083801561432c57508083135b8061433f57508315801561433f57508083125b156143475750815b61434f613653565b604051633916cf2b60e21b8152600481018b90526001600160a01b038d811660248301528c8116604483015260648201849052919091169063e45b3cac90608401600060405180830381600087803b1580156143aa57600080fd5b505af11580156143be573d6000803e3d6000fd5b5050505061445c89836143cf613653565b604051637636e94160e01b8152600481018e905260006024820152604481018690526001600160a01b039190911690637636e9419060640160206040518083038186803b15801561441f57600080fd5b505afa158015614433573d6000803e3d6000fd5b505050506040513d601f19601f82011682018060405250810190614457919061514a565b614a2b565b6144669086615287565b945050505b505b600061447761312b565b6000888152600691909101602052604081209061449261312b565b60008a8152600791909101602090815260408083208b84528252808320546001600160a01b03908116855291840194909452918301812054925163070da1af60e11b81528c83166004820152929091169250908290630e1b435e90602401604080518083038186803b15801561450757600080fd5b505afa15801561451b573d6000803e3d6000fd5b505050506040513d601f19601f8201168201806040525081019061453f91906155c3565b50905082801561454f5750600081125b806145635750821580156145635750600081135b15614628576000614575898987614bf2565b905083801561458357508082135b8061459657508315801561459657508082125b1561459e5750805b604051630c02764960e31b81526001600160a01b038c811660048301528b8116602483015260448201839052606482018a9052841690636013b24890608401600060405180830381600087803b1580156145f757600080fd5b505af115801561460b573d6000803e3d6000fd5b5050505061461a898983614a2b565b6146249086615287565b9450505b83861461463a5761463a88888b612925565b5050509695505050505050565b606060006146548361467f565b9392505050565b6000818152600183016020526040812054151561291c565b600061291c8383614c80565b6060816000018054806020026020016040519081016040528092919081815260200182805480156146cf57602002820191906000526020600020905b8154815260200190600101908083116146bb575b50505050509050919050565b6000816146e757600080fd5b60006146f38385615671565b6146fe90600a615514565b8361470a86600a615514565b6147149190615671565b61471e9190615287565b90506005811261473d576147328385615671565b61342090600161505d565b600419811361475c5760016147528486615671565b6134209190615287565b6134208385615671565b60008181527f4abde63c3e81aefa5764b017968bc473e83e093d7e1a10247d19e0a3e41240196020908152604080832054815170026b4b9b9b4b7339030b2323932b9b99d1607d1b9381019390935260318084018690528251808503909101815260519093019091526001600160a01b031690816147f75760405162461bcd60e51b815260040161040a919061569f565b5092915050565b600080600061480b61312b565b600501600087815260200190815260200160002060008154811061483157614831615031565b6000918252602080832090910154604080516371613c2d60e01b815290516001600160a01b03909216945084926371613c2d92600480840193829003018186803b15801561487e57600080fd5b505afa158015614892573d6000803e3d6000fd5b505050506040513d601f19601f820116820180604052508101906148b6919061514a565b90506148c0613653565b60405163474611f160e01b815260048101899052602481018890526001600160a01b03919091169063474611f19060440160a06040518083038186803b15801561490957600080fd5b505afa15801561491d573d6000803e3d6000fd5b505050506040513d601f19601f8201168201806040525081019061494191906156f4565b5161497b57614951878787614a2b565b935061497461495f82613445565b61496a612710613445565b61341a9087615514565b9250614a21565b614983613653565b604051631b736f6760e31b8152600481018990526024810188905260006044820152606481018790526001600160a01b03919091169063db9b7b389060840160206040518083038186803b1580156149da57600080fd5b505afa1580156149ee573d6000803e3d6000fd5b505050506040513d601f19601f82011682018060405250810190614a12919061514a565b9250614a1e8382613c17565b93505b5050935093915050565b600080614a3661312b565b6000868152600791909101602090815260408083208784528252918290205482516371613c2d60e01b815292516001600160a01b03909116926371613c2d926004808301939192829003018186803b158015614a9157600080fd5b505afa158015614aa5573d6000803e3d6000fd5b505050506040513d601f19601f82011682018060405250810190614ac9919061514a565b90506136e28382613c17565b6000826000018281548110614aec57614aec615031565b9060005260206000200154905092915050565b60008181526001830160205260408120548015614be8576000614b2360018361523a565b8554909150600090614b379060019061523a565b9050818114614b9c576000866000018281548110614b5757614b57615031565b9060005260206000200154905080876000018481548110614b7a57614b7a615031565b6000918252602080832090910192909255918252600188019052604090208390555b8554869080614bad57614bad615764565b60019003818190600052602060002001600090559055856001016000868152602001908152602001600020600090556001935050505061291f565b600091505061291f565b600080614c6f614c0061312b565b6000878152600791909101602090815260408083208884528252918290205482516371613c2d60e01b815292516001600160a01b03909116926371613c2d926004808301939192829003018186803b158015614c5b57600080fd5b505afa1580156105dc573d6000803e3d6000fd5b90506136e281613c30612710613445565b6000818152600183016020526040812054614cc75750815460018181018455600084815260208082209093018490558454848252828601909352604090209190915561291f565b50600061291f565b80356001600160a01b0381168114614ce657600080fd5b919050565b600080600060608486031215614d0057600080fd5b8335925060208401359150614d1760408501614ccf565b90509250925092565b600060208284031215614d3257600080fd5b61291c82614ccf565b8015158114614d4957600080fd5b50565b600080600080600080600080610100898b031215614d6957600080fd5b8835975060208901359650614d8060408a01614ccf565b9550606089013560028110614d9457600080fd5b94506080890135935060a0890135925060c0890135915060e0890135614db981614d3b565b809150509295985092959890939650565b60008060408385031215614ddd57600080fd5b82359150614ded60208401614ccf565b90509250929050565b634e487b7160e01b600052604160045260246000fd5b604051601f8201601f1916810167ffffffffffffffff81118282101715614e3557614e35614df6565b604052919050565b600067ffffffffffffffff821115614e5757614e57614df6565b5060051b60200190565b60008060408385031215614e7457600080fd5b823567ffffffffffffffff811115614e8b57600080fd5b8301601f81018513614e9c57600080fd5b80356020614eb1614eac83614e3d565b614e0c565b82815260059290921b83018101918181019088841115614ed057600080fd5b938201935b83851015614eee57843582529382019390820190614ed5565b9550614efd9050868201614ccf565b93505050509250929050565b602080825282518282018190526000919060409081850190868401855b82811015614f6057815180518552868101518786015285810151868601526060908101519085015260809093019290850190600101614f26565b5091979650505050505050565b600080600080600060a08688031215614f8557600080fd5b614f8e86614ccf565b9450614f9c60208701614ccf565b94979496505050506040830135926060810135926080909101359150565b6020808252825182820181905260009190848201906040850190845b81811015614ff257835183529284019291840191600101614fd6565b50909695505050505050565b60008060006060848603121561501357600080fd5b61501c84614ccf565b95602085013595506040909401359392505050565b634e487b7160e01b600052603260045260246000fd5b634e487b7160e01b600052601160045260246000fd5b600080821280156001600160ff1b038490038513161561507f5761507f615047565b600160ff1b839003841281161561509857615098615047565b50500190565b60006000198214156150b2576150b2615047565b5060010190565b600060208083850312156150cc57600080fd5b825167ffffffffffffffff8111156150e357600080fd5b8301601f810185136150f457600080fd5b8051615102614eac82614e3d565b81815260059190911b8201830190838101908783111561512157600080fd5b928401925b8284101561513f57835182529284019290840190615126565b979650505050505050565b60006020828403121561515c57600080fd5b5051919050565b6000821982111561517657615176615047565b500190565b600081600019048311821515161561519557615195615047565b500290565b6001600160a01b039390931683526020830191909152604082015260600190565b600080600080608085870312156151d157600080fd5b84519350602085015192506040850151915060608501516151f181614d3b565b939692955090935050565b634e487b7160e01b600052602160045260246000fd5b6001600160a01b03949094168452602084019290925260408301521515606082015260800190565b60008282101561524c5761524c615047565b500390565b606081016002851061527357634e487b7160e01b600052602160045260246000fd5b938152602081019290925260409091015290565b60008083128015600160ff1b8501841216156152a5576152a5615047565b6001600160ff1b03840183138116156152c0576152c0615047565b50500390565b6000600160ff1b8214156152dc576152dc615047565b5060000390565b6000806000606084860312156152f857600080fd5b8351925060208401519150604084015190509250925092565b60006020828403121561532357600080fd5b815161465481614d3b565b6000602080838503121561534157600080fd5b825167ffffffffffffffff81111561535857600080fd5b8301601f8101851361536957600080fd5b8051615377614eac82614e3d565b81815260059190911b8201830190838101908783111561539657600080fd5b928401925b8284101561513f5783516153ae81614d3b565b8252928401929084019061539b565b6000604082018483526020604081850152818551808452606086019150828701935060005b81811015610ad9578451835293830193918301916001016153e2565b60006020828403121561541057600080fd5b815160ff8116811461465457600080fd5b600181815b8085111561545c57816000190482111561544257615442615047565b8085161561544f57918102915b93841c9390800290615426565b509250929050565b6000826154735750600161291f565b816154805750600061291f565b816001811461549657600281146154a0576154bc565b600191505061291f565b60ff8411156154b1576154b1615047565b50506001821b61291f565b5060208310610133831016604e8410600b84101617156154df575081810a61291f565b6154e98383615421565b80600019048211156154fd576154fd615047565b029392505050565b600061291c60ff841683615464565b60006001600160ff1b038184138284138082168684048611161561553a5761553a615047565b600160ff1b600087128281168783058912161561555957615559615047565b6000871292508782058712848416161561557557615575615047565b8785058712818416161561558b5761558b615047565b505050929093029392505050565b634e487b7160e01b600052601260045260246000fd5b6000826155be576155be615599565b500490565b600080604083850312156155d657600080fd5b505080516020909101519092909150565b600080600080608085870312156155fd57600080fd5b505082516020840151604085015160609095015191969095509092509050565b600080600080600080600060e0888a03121561563857600080fd5b5050855160208701516040880151606089015160808a015160a08b015160c0909b0151949c939b50919990985090965094509092509050565b60008261568057615680615599565b600160ff1b82146000198414161561569a5761569a615047565b500590565b600060208083528351808285015260005b818110156156cc578581018301518582016040015282016156b0565b818111156156de576000604083870101525b50601f01601f1916929092016040019392505050565b600060a0828403121561570657600080fd5b60405160a0810181811067ffffffffffffffff8211171561572957615729614df6565b806040525082518152602083015160208201526040830151604082015260608301516060820152608083015160808201528091505092915050565b634e487b7160e01b600052603160045260246000fdfea26469706673582212201f37ee11567e0d1b9653b5c11df35f272383d4dfb1e12d797d77b12bf137a4cd64736f6c63430008090033",
  "deployedBytecode": "0x73000000000000000000000000000000000000000030146080604052600436106100f45760003560e01c8063826b47e811610096578063b61ef55a11610070578063b61ef55a146102de578063b6eb033d146102fe578063e079842b1461031e578063fd4584e61461033157600080fd5b8063826b47e81461027e5780639519832b1461029e578063a86c2a3e146102be57600080fd5b8063390e5d12116100d2578063390e5d12146101765780634ad23880146101965780635c34776514610216578063798ac0c01461025e57600080fd5b8063062ea294146100f957806312d09d3c14610126578063300074c914610148575b600080fd5b61010c610107366004614ceb565b610381565b604080519283526020830191909152015b60405180910390f35b81801561013257600080fd5b50610146610141366004614d20565b6103a6565b005b81801561015457600080fd5b50610168610163366004614ceb565b6108ed565b60405190815260200161011d565b81801561018257600080fd5b50610146610191366004614d4c565b610ae6565b6101a96101a4366004614ceb565b610e1a565b60405161011d9190600061012082019050825182526020830151602083015260408301516040830152606083015160608301526080830151608083015260a083015160a083015260c083015160c083015260e083015160e083015261010080840151818401525092915050565b610229610224366004614dca565b61173a565b604080519788526020880196909652948601939093526060850191909152608084015260a083015260c082015260e00161011d565b61027161026c366004614e61565b611831565b60405161011d9190614f09565b81801561028a57600080fd5b50610146610299366004614d20565b611a48565b8180156102aa57600080fd5b506101686102b9366004614dca565b611aac565b8180156102ca57600080fd5b506101466102d9366004614f6d565b611e18565b6102f16102ec366004614dca565b61284f565b60405161011d9190614fba565b81801561030a57600080fd5b50610146610319366004614ceb565b612925565b61027161032c366004614dca565b612a00565b61034461033f366004614ffe565b612c1c565b604080519889526020890197909752958701949094526060860192909252608085015260a084015260c0830152151560e08201526101000161011d565b6000806000610391868686610e1a565b80516060909101519097909650945050505050565b6103ae61312b565b6001600160a01b0382166000908152600d91909101602052604090205460ff16156104135760405162461bcd60e51b815260206004820152601060248201526f105b1c9958591e481c995919595b595960821b60448201526064015b60405180910390fd5b60008061044261042161312b565b6001600160a01b03851660009081526009919091016020526040902061314f565b905060005b81518110156104ba57600061047583838151811061046757610467615031565b60200260200101518661315a565b905061049a83838151811061048c5761048c615031565b602002602001015182613342565b6104a4908561505d565b93505080806104b29061509e565b915050610447565b5060006104c5613428565b6001600160a01b031663d5e190d06040518163ffffffff1660e01b815260040160006040518083038186803b1580156104fd57600080fd5b505afa158015610511573d6000803e3d6000fd5b505050506040513d6000823e601f3d908101601f1916820160405261053991908101906150b9565b905060005b815181101561063c576000610605610554613428565b6001600160a01b031663055d237a8886868151811061057557610575615031565b60200260200101516040518363ffffffff1660e01b81526004016105ae9291906001600160a01b03929092168252602082015260400190565b602060405180830381600087803b1580156105c857600080fd5b505af11580156105dc573d6000803e3d6000fd5b505050506040513d601f19601f82011682018060405250810190610600919061514a565b613445565b905061061c83838151811061048c5761048c615031565b610626908661505d565b94505080806106349061509e565b91505061053e565b506000831315610824576000815167ffffffffffffffff81111561066257610662614df6565b60405190808252806020026020018201604052801561068b578160200160208202803683370190505b5090506000805b835181101561072f5760008482815181106106af576106af615031565b602002602001015190506106c161312b565b6004016000828152602001908152602001600020548483815181106106e8576106e8615031565b60200260200101818152505083828151811061070657610706615031565b6020026020010151836107199190615163565b92505080806107279061509e565b915050610692565b5060005b835181101561081c57600084828151811061075057610750615031565b60200260200101519050600061079c826107978688878151811061077657610776615031565b60200260200101516107878d6134b3565b610791919061517b565b90613505565b613576565b90506107a6613428565b6001600160a01b0316634ba0c9b58a84846040518463ffffffff1660e01b81526004016107d59392919061519a565b600060405180830381600087803b1580156107ef57600080fd5b505af1158015610803573d6000803e3d6000fd5b50505050505080806108149061509e565b915050610733565b505050610875565b60008312156108755760405162461bcd60e51b815260206004820152601760248201527f496e73756666696369656e7420636f6c6c61746572616c000000000000000000604482015260640161040a565b600161087f61312b565b6001600160a01b0386166000818152600d929092016020526040909120805460ff1916921515929092179091557f7845dd5b7d075bcbcd271a1ce948b21c833ffa06e4034b3119276a79ff9a02896108d6856134b3565b60405190815260200160405180910390a250505050565b6000806108f861312b565b6000868152600691909101602052604081209061091361312b565b6000888152600791909101602090815260408083208984528252808320546001600160a01b03908116855291840194909452918301812054925163ae100e6d60e01b815286831660048201526024810188905292909116925090819081908190859063ae100e6d90604401608060405180830381600087803b15801561099857600080fd5b505af11580156109ac573d6000803e3d6000fd5b505050506040513d601f19601f820116820180604052508101906109d091906151bb565b935093509350935083600014610ad9578015610a5e576109ee613653565b60405163312c474560e01b8152600481018b90526001600160a01b03898116602483015260448201859052919091169063312c474590606401600060405180830381600087803b158015610a4157600080fd5b505af1158015610a55573d6000803e3d6000fd5b50505050610ad9565b610a66613653565b6040516360e3f72960e11b8152600481018b90526001600160a01b0389811660248301526044820185905260648201879052919091169063c1c7ee5290608401600060405180830381600087803b158015610ac057600080fd5b505af1158015610ad4573d6000803e3d6000fd5b505050505b5090979650505050505050565b6000610af061312b565b60008a81526006919091016020526040812090610b0b61312b565b60008c8152600791909101602090815260408083208d84528252808320546001600160a01b039081168552918401949094529190920182205416915082610b53576000610b5e565b610b5e898686613672565b90506001876001811115610b7457610b746151fc565b1415610c5757610b82613428565b6001600160a01b0316634ba0c9b5898c896040518463ffffffff1660e01b8152600401610bb19392919061519a565b600060405180830381600087803b158015610bcb57600080fd5b505af1158015610bdf573d6000803e3d6000fd5b50505050816001600160a01b0316635b0b2930898388610bff9190615163565b8c876040518563ffffffff1660e01b8152600401610c209493929190615212565b600060405180830381600087803b158015610c3a57600080fd5b505af1158015610c4e573d6000803e3d6000fd5b50505050610d30565b610c5f613428565b6001600160a01b031663fb7bd3b4898c896040518463ffffffff1660e01b8152600401610c8e9392919061519a565b600060405180830381600087803b158015610ca857600080fd5b505af1158015610cbc573d6000803e3d6000fd5b50505050816001600160a01b0316639e8d3d55898388610cdc919061523a565b8c876040518563ffffffff1660e01b8152600401610cfd9493929190615212565b600060405180830381600087803b158015610d1757600080fd5b505af1158015610d2b573d6000803e3d6000fd5b505050505b8015610dc7576000610d406136eb565b90506001600160a01b038316639e8d3d5582848d60008d6001811115610d6857610d686151fc565b146040518563ffffffff1660e01b8152600401610d889493929190615212565b600060405180830381600087803b158015610da257600080fd5b505af1158015610db6573d6000803e3d6000fd5b50505050610dc58b8b83612925565b505b888a896001600160a01b03167ff80dd09632f046e05472e1c239271a3b2ad3de73c27a1b03d0bb0329ba6716df8a8a8a604051610e0693929190615251565b60405180910390a450505050505050505050565b610e696040518061012001604052806000815260200160008152602001600081526020016000815260200160008152602001600081526020016000815260200160008152602001600081525090565b6040805160a081018252600080825260208201819052918101829052606080820152608081019190915283610ef05760018152610ea461312b565b6005016000868152602001908152602001600020600081548110610eca57610eca615031565b600091825260209182902001546001600160a01b03169082015260016040820152610f7a565b60008152610efc61312b565b6000868152600791909101602090815260408083208784528252909120546001600160a01b031690820152610f2f61312b565b6005016000868152602001908152602001600020600081548110610f5557610f55615031565b60009182526020918290200154908201516001600160a01b0390811691161460408201525b610f82613653565b60405163386320d360e11b8152600481018790526001600160a01b03858116602483015291909116906370c641a69060440160206040518083038186803b158015610fcc57600080fd5b505afa158015610fe0573d6000803e3d6000fd5b505050506040513d601f19601f82011682018060405250810190611004919061514a565b610100830152611014858461284f565b606082015260005b81606001515181101561146f57600061103361312b565b600701600088815260200190815260200160002060008460600151848151811061105f5761105f615031565b6020026020010151815260200190815260200160002060009054906101000a90046001600160a01b031690506000816001600160a01b031663e16695b56040518163ffffffff1660e01b815260040160206040518083038186803b1580156110c657600080fd5b505afa1580156110da573d6000803e3d6000fd5b505050506040513d601f19601f820116820180604052508101906110fe919061514a565b9050600061110a61312b565b60050160008a815260200190815260200160002060008154811061113057611130615031565b60009182526020909120015460408601516001600160a01b03858116921691909114915080611174575084602001516001600160a01b0316836001600160a01b0316145b156114595760006111898a8988868887613704565b9050600061119b8b8a898789886138f4565b905060006111ad8c8b8a888a89613a87565b80518351855192935090916111c29190615287565b6111cc919061505d565b89610100018181516111de919061505d565b90525060208082015183820151918501516000926111fb91615287565b611205919061505d565b9050808a600001818151611219919061505d565b905250841561122a57608089018190525b60008113156112555761123c816134b3565b8a60200181815161124d9190615163565b905250611284565b60008112156112845761126f61126a826152c6565b6134b3565b8a6040018181516112809190615163565b9052505b88516112c2578160400151836040015185604001516112a39190615287565b6112ad919061505d565b8a6060018181516112be919061505d565b9052505b82606001518a60c0018181516112d89190615163565b905250606082015160808b0180516112f1908390615163565b905250608083015160e08b01805161130a908390615163565b905250608082015160a08b018051611323908390615163565b9052506101008a01516000131561145457600061133e613653565b6001600160a01b031663aee1311e8f8d61010001518d606001518d8151811061136957611369615031565b602002602001015160018f6060015151611383919061523a565b8e146113b65760608f01516113998f6001615163565b815181106113a9576113a9615031565b60200260200101516113b9565b60005b6040516001600160e01b031960e087901b168152600481019490945260248401929092526044830152606482015260840160206040518083038186803b15801561140257600080fd5b505afa158015611416573d6000803e3d6000fd5b505050506040513d601f19601f8201168201806040525081019061143a919061514a565b9050808b6101000181815161144f919061505d565b905250505b505050505b50505080806114679061509e565b91505061101c565b5080604001518015611485575061010082015115155b15611732576000611494613653565b610100840151604051637636e94160e01b8152600481018990526000602482015260448101919091526001600160a01b039190911690637636e9419060640160206040518083038186803b1580156114eb57600080fd5b505afa1580156114ff573d6000803e3d6000fd5b505050506040513d601f19601f82011682018060405250810190611523919061514a565b905060006115df8261153361312b565b60050160008a815260200190815260200160002060008154811061155957611559615031565b60009182526020918290200154604080516371613c2d60e01b815290516001600160a01b03909216926371613c2d92600480840193829003018186803b1580156115a257600080fd5b505afa1580156115b6573d6000803e3d6000fd5b505050506040513d601f19601f820116820180604052508101906115da919061514a565b613c17565b905080846000018181516115f3919061505d565b905250600081131561168557600083608001511215611663576000836080015161161c906152c6565b82136116285781611636565b8360800151611636906152c6565b9050611641816134b3565b85604001818151611652919061523a565b90525061165f8183615287565b9150505b61166c816134b3565b8460200181815161167d9190615163565b905250611713565b6000811215611713576000836080015113156116f25760008360800151826116ac906152c6565b136116bf576116ba826152c6565b6116c5565b83608001515b90506116d0816134b3565b856020018181516116e1919061523a565b9052506116ee818361505d565b9150505b6116fe61126a826152c6565b8460400181815161170f9190615163565b9052505b825161172f57818460600181815161172b919061505d565b9052505b50505b509392505050565b6000806000806000806000806117528a60008b610e1a565b9050806080015197508060a0015194508060c0015193508060e00151915080602001519650806040015192506000871115611824576000611791613c3a565b6001600160a01b0316639abdb38a8c6040518263ffffffff1660e01b81526004016117be91815260200190565b60206040518083038186803b1580156117d657600080fd5b505afa1580156117ea573d6000803e3d6000fd5b505050506040513d601f19601f8201168201806040525081019061180e919061514a565b9050611820612710610791838b61517b565b9650505b5092959891949750929550565b6060600080845167ffffffffffffffff81111561185057611850614df6565b60405190808252806020026020018201604052801561188357816020015b606081526020019060019003908161186e5790505b50905060005b855181101561190c576118b58682815181106118a7576118a7615031565b602002602001015186612a00565b8282815181106118c7576118c7615031565b60200260200101819052508181815181106118e4576118e4615031565b602002602001015151836118f89190615163565b9250806119048161509e565b915050611889565b508167ffffffffffffffff81111561192657611926614df6565b60405190808252806020026020018201604052801561198557816020015b6119726040518060800160405280600080191681526020016000815260200160008152602001600081525090565b8152602001906001900390816119445790505b5092506000805b8251811015611a3e5760005b8382815181106119aa576119aa615031565b602002602001015151811015611a2b578382815181106119cc576119cc615031565b602002602001015181815181106119e5576119e5615031565b60200260200101518684815181106119ff576119ff615031565b60200260200101819052508280611a159061509e565b9350508080611a239061509e565b915050611998565b5080611a368161509e565b91505061198c565b5050505092915050565b6000611a5261312b565b6001600160a01b03831660009081526009919091016020526040812091505b611a7a82613c5a565b811015611aa757611a94611a8e8383613c64565b84611aac565b5080611a9f8161509e565b915050611a71565b505050565b60008080611aba858561284f565b905060005b8151811015611d3b576000611ad261312b565b60070160008881526020019081526020016000206000848481518110611afa57611afa615031565b6020026020010151815260200190815260200160002060009054906101000a90046001600160a01b031690506000816001600160a01b031663e16695b56040518163ffffffff1660e01b815260040160206040518083038186803b158015611b6157600080fd5b505afa158015611b75573d6000803e3d6000fd5b505050506040513d601f19601f82011682018060405250810190611b99919061514a565b90506000611ba889838a6108ed565b9050600080611bb88b858c613c70565b9092509050611bc7828a615163565b98508015611bdd57611bda8b858c6108ed565b92505b8215611be857600197505b82158015611bf4575081155b15611c6557611c63878781518110611c0e57611c0e615031565b6020026020010151611c1e61312b565b600a0160008e815260200190815260200160002060008d6001600160a01b03166001600160a01b0316815260200190815260200160002061401890919063ffffffff16565b505b611c6d613653565b6001600160a01b031663eeac29d88c8c60018b51611c8b919061523a565b8a14611cba578a611c9d8b6001615163565b81518110611cad57611cad615031565b6020026020010151611cbd565b60005b6040516001600160e01b031960e086901b16815260048101939093526001600160a01b0390911660248301526044820152606401600060405180830381600087803b158015611d0b57600080fd5b505af1158015611d1f573d6000803e3d6000fd5b5050505050505050508080611d339061509e565b915050611abf565b5082158015611d48575081155b8015611ddb5750611d57613653565b60405163386320d360e11b8152600481018790526001600160a01b03868116602483015291909116906370c641a69060440160206040518083038186803b158015611da157600080fd5b505afa158015611db5573d6000803e3d6000fd5b505050506040513d601f19601f82011682018060405250810190611dd9919061514a565b155b15611e1057611e0e85611dec61312b565b6001600160a01b03871660009081526009919091016020526040902090614018565b505b505092915050565b611e6d60405180610100016040528060006001600160a01b0316815260200160008152602001600081526020016000815260200160001515815260200160001515815260200160008152602001600081525090565b611e778486611aac565b50611e828386611aac565b506000611e90848488610e1a565b60400151905080611ee35760405162461bcd60e51b815260206004820181905260248201527f4e6f206465627420696e207468652073656c6563746564206d61747572697479604482015260640161040a565b611eeb613428565b6001600160a01b0316635257ed678787611f03613c3a565b6040516317338d9560e31b8152600481018a9052602481018b9052604481018790526001600160a01b03919091169063b99c6ca89060640160206040518083038186803b158015611f5357600080fd5b505afa158015611f67573d6000803e3d6000fd5b505050506040513d601f19601f82011682018060405250810190611f8b919061514a565b6040518463ffffffff1660e01b8152600401611fa99392919061519a565b60606040518083038186803b158015611fc157600080fd5b505afa158015611fd5573d6000803e3d6000fd5b505050506040513d601f19601f82011682018060405250810190611ff991906152e3565b60608501526040840152602083018190526120565760405162461bcd60e51b815260206004820152601a60248201527f557365722068617320656e6f75676820636f6c6c61746572616c000000000000604482015260640161040a565b6000612060613c3a565b60208401516040516317338d9560e31b8152600481018990526024810188905260448101919091526001600160a01b03919091169063b99c6ca89060640160206040518083038186803b1580156120b657600080fd5b505afa1580156120ca573d6000803e3d6000fd5b505050506040513d601f19601f820116820180604052508101906120ee919061514a565b90506120f861312b565b600501600086815260200190815260200160002060008154811061211e5761211e615031565b6000918252602090912001546001600160a01b031661213b61312b565b6000878152600791909101602090815260408083208884529091529020546001600160a01b03161460808401526121706136eb565b6001600160a01b031663b187bd266040518163ffffffff1660e01b815260040160206040518083038186803b1580156121a857600080fd5b505afa1580156121bc573d6000803e3d6000fd5b505050506040513d601f19601f820116820180604052508101906121e09190615311565b151560a08401526121ef6136eb565b6001600160a01b031683526060830151602084015161220e9190615163565b60c0840152600061221d613428565b8451604080870151905163500d2f6d60e01b8152600481018b90526001600160a01b038c811660248301529283166044820152606481019190915291169063500d2f6d90608401602060405180830381600087803b15801561227e57600080fd5b505af1158015612292573d6000803e3d6000fd5b505050506040513d601f19601f820116820180604052508101906122b6919061514a565b905080156122e2576122d6888560000151896122d185613445565b614024565b505060c0830151612384565b6122ea613428565b60c085015160405163500d2f6d60e01b8152600481018a90526001600160a01b038b811660248301528c81166044830152606482019290925291169063500d2f6d90608401602060405180830381600087803b15801561234957600080fd5b505af115801561235d573d6000803e3d6000fd5b505050506040513d601f19601f82011682018060405250810190612381919061514a565b90505b801561239f5761239c61126a898b8a6122d186613445565b90505b6000811180156123b157508360a00151155b156125035760006123c0613c3a565b6040516317338d9560e31b8152600481018a905260248101899052604481018490526001600160a01b03919091169063b99c6ca89060640160206040518083038186803b15801561241057600080fd5b505afa158015612424573d6000803e3d6000fd5b505050506040513d601f19601f82011682018060405250810190612448919061514a565b9050612452613428565b6040516354821c2160e01b81526001600160a01b038b8116600483015291909116906354821c219060240160206040518083038186803b15801561249557600080fd5b505afa1580156124a9573d6000803e3d6000fd5b505050506040513d601f19601f820116820180604052508101906124cd919061514a565b6124f5576124f261126a86600001518c8a8a6124e887613445565b8b60800151614134565b90505b6124ff818461523a565b9250505b6001600160a01b0389163b156125f55760c0840151604051630fa3ece160e11b81526001600160a01b038b811660048301819052908b166024830152604482018a90526064820192909252631f47d9c290608401602060405180830381600087803b15801561257157600080fd5b505af1158015612585573d6000803e3d6000fd5b505050506040513d601f19601f820116820180604052508101906125a99190615311565b6125f55760405162461bcd60e51b815260206004820152601b60248201527f496e76616c6964206f7065726174696f6e20657865637574696f6e0000000000604482015260640161040a565b81156127335760e08401829052612625888a888861261287613445565b61261b906152c6565b8960800151614134565b506001600160a01b0389163b156127335760c084015160e085015160405163091cad1b60e31b81526001600160a01b038c811660048301819052908c166024830152604482018b905260648201939093526084810189905260a4810188905260c48101919091526348e568d89060e401602060405180830381600087803b1580156126af57600080fd5b505af11580156126c3573d6000803e3d6000fd5b505050506040513d601f19601f820116820180604052508101906126e79190615311565b6127335760405162461bcd60e51b815260206004820152601b60248201527f496e76616c6964206f7065726174696f6e20657865637574696f6e0000000000604482015260640161040a565b61273b613428565b6040516325e1f09f60e01b81523360048201526001600160a01b0391909116906325e1f09f9060240160206040518083038186803b15801561277c57600080fd5b505afa158015612790573d6000803e3d6000fd5b505050506040513d601f19601f820116820180604052508101906127b49190615311565b6127f65760405162461bcd60e51b815260206004820152601360248201527224b73b30b634b2103634b8bab4b230ba34b7b760691b604482015260640161040a565b8486896001600160a01b03167f347d8f9576f47b3bd7a4821cd3d3d4171968cdd36680d4abaca7de302d836f998a8660405161283c929190918252602082015260400190565b60405180910390a4505050505050505050565b606061288761285c61312b565b6000858152600a91909101602090815260408083206001600160a01b03871684529091529020614647565b80519091501561291f57604051634f64581360e11b815273__$cd9358e65801d13c280787f44717df25ed$__90639ec8b026906128c8908490600401614fba565b60006040518083038186803b1580156128e057600080fd5b505af41580156128f4573d6000803e3d6000fd5b505050506040513d6000823e601f3d908101601f1916820160405261291c91908101906150b9565b90505b92915050565b61295d8261293161312b565b6000868152600a91909101602090815260408083206001600160a01b038716845290915290209061465b565b611aa7576129998261296d61312b565b6000868152600a91909101602090815260408083206001600160a01b0387168452909152902090614673565b506129c8836129a661312b565b6001600160a01b0384166000908152600991909101602052604090209061465b565b611aa7576129fa836129d861312b565b6001600160a01b03841660009081526009919091016020526040902090614673565b50505050565b60606000612a0c61312b565b6005016000858152602001908152602001600020805480602002602001604051908101604052809291908181526020018280548015612a7457602002820191906000526020600020905b81546001600160a01b03168152600190910190602001808311612a56575b50505050509050805167ffffffffffffffff811115612a9557612a95614df6565b604051908082528060200260200182016040528015612af457816020015b612ae16040518060800160405280600080191681526020016000815260200160008152602001600081525090565b815260200190600190039081612ab35790505b5091506000805b8251811015611e0e576000838281518110612b1857612b18615031565b60200260200101516001600160a01b031663e16695b56040518163ffffffff1660e01b815260040160206040518083038186803b158015612b5857600080fd5b505afa158015612b6c573d6000803e3d6000fd5b505050506040513d601f19601f82011682018060405250810190612b90919061514a565b9050600080612ba089848a610381565b915091508060001415612bb95760018751038752612c06565b60405180608001604052808a815260200184815260200183815260200182815250878681518110612bec57612bec615031565b60200260200101819052508480612c029061509e565b9550505b5050508080612c149061509e565b915050612afb565b6000806000806000806000806000612c3261312b565b60090160008d6001600160a01b03166001600160a01b031681526020019081526020016000209050612c966040518060c001604052806060815260200160008019168152602001606081526020016060815260200160008152602001600081525090565b612c9e613428565b6001600160a01b0316633f90a08e612cb58461314f565b6040518263ffffffff1660e01b8152600401612cd19190614fba565b60006040518083038186803b158015612ce957600080fd5b505afa158015612cfd573d6000803e3d6000fd5b505050506040513d6000823e601f3d908101601f19168201604052612d25919081019061532e565b8152608081018b905260005b612d3a83613c5a565b81101561310d57612d4b8382613c64565b602083015260408051600780825261010082019092529081602001602082028036833750505060408301526020820151612d85908f61173a565b8860400151600081518110612d9c57612d9c615031565b602002602001018960400151600181518110612dba57612dba615031565b602002602001018a60400151600281518110612dd857612dd8615031565b602002602001018b60400151600381518110612df657612df6615031565b602002602001018c60400151600481518110612e1457612e14615031565b602002602001018d60400151600581518110612e3257612e32615031565b602002602001018e60400151600681518110612e5057612e50615031565b6020908102919091018101979097529690965295909452949093529390529290529190528201518d1415612f0f578160400151600681518110612e9557612e95615031565b602002602001015182608001818151612eae9190615163565b905250604082015180516003908110612ec957612ec9615031565b60200260200101518260400151600081518110612ee857612ee8615031565b6020026020010151612efa9190615163565b8260a001818151612f0b9190615163565b9052505b612f17613c3a565b6001600160a01b0316638a2eae92836020015184604001516040518363ffffffff1660e01b8152600401612f4c9291906153bd565b60006040518083038186803b158015612f6457600080fd5b505afa158015612f78573d6000803e3d6000fd5b505050506040513d6000823e601f3d908101601f19168201604052612fa091908101906150b9565b6060830181905280516001908110612fba57612fba615031565b60200260200101518a612fcd9190615163565b99508160600151600281518110612fe657612fe6615031565b602002602001015189612ff99190615163565b9850816060015160048151811061301257613012615031565b6020026020010151876130259190615163565b9650816060015160058151811061303e5761303e615031565b6020026020010151866130519190615163565b95508160000151818151811061306957613069615031565b6020026020010151156130fb57816060015160008151811061308d5761308d615031565b60200260200101518b6130a09190615163565b9a5081606001516003815181106130b9576130b9615031565b6020026020010151886130cc9190615163565b975081606001516006815181106130e5576130e5615031565b6020026020010151856130f89190615163565b94505b806131058161509e565b915050612d31565b508060a0015181608001511015925050509397509397509397509397565b7f8041b8421ebd495cc61f38c788c9eb100daccf9bd36aa0bb920b7a15b2e0496590565b606061291f8261467f565b60006131668383611aac565b5061317383600084610e1a565b51905060006131ae61318361312b565b6000868152600a91909101602090815260408083206001600160a01b03881684529091529020614647565b905060005b81518110156132a7576131c461312b565b600086815260069190910160205260408120906131df61312b565b6007016000888152602001908152602001600020600085858151811061320757613207615031565b60209081029190910181015182528181019290925260409081016000908120546001600160a01b039081168552928401949094529182019092205490516366c9d55160e01b815286831660048201529116906366c9d55190602401600060405180830381600087803b15801561327c57600080fd5b505af1158015613290573d6000803e3d6000fd5b50505050808061329f9061509e565b9150506131b3565b506132b0613653565b60405163b340398d60e01b8152600481018690526001600160a01b038581166024830152919091169063b340398d90604401600060405180830381600087803b1580156132fc57600080fd5b505af1158015613310573d6000803e3d6000fd5b50505050611e108461332061312b565b6001600160a01b03861660009081526009919091016020526040902090614018565b600061334c61312b565b5483141561335b57508061291f565b6000613365613c3a565b6001600160a01b03166312105fea856040518263ffffffff1660e01b815260040161339291815260200190565b60206040518083038186803b1580156133aa57600080fd5b505afa1580156133be573d6000803e3d6000fd5b505050506040513d601f19601f820116820180604052508101906133e291906153fe565b90506134206133f561060083600a615505565b6133fd61312b565b6000878152600391909101602052604090205461341a9086615514565b906146db565b91505061291f565b600061344069151bdad95b95985d5b1d60b21b614766565b905090565b60006001600160ff1b038211156134af5760405162461bcd60e51b815260206004820152602860248201527f53616665436173743a2076616c756520646f65736e27742066697420696e2061604482015267371034b73a191a9b60c11b606482015260840161040a565b5090565b6000808212156134af5760405162461bcd60e51b815260206004820181905260248201527f53616665436173743a2076616c7565206d75737420626520706f736974697665604482015260640161040a565b600080821161351357600080fd5b600561351f83856155af565b61352a90600a61517b565b8361353686600a61517b565b61354091906155af565b61354a919061523a565b10156135615761355a82846155af565b905061291f565b61356b82846155af565b61355a906001615163565b600061358061312b565b5483141561358f57508061291f565b6000613599613c3a565b6001600160a01b03166312105fea856040518263ffffffff1660e01b81526004016135c691815260200190565b60206040518083038186803b1580156135de57600080fd5b505afa1580156135f2573d6000803e3d6000fd5b505050506040513d601f19601f8201168201806040525081019061361691906153fe565b905061342061363e61362661312b565b600087815260039190910160205260409020546134b3565b61364983600a615505565b610791908661517b565b60006134407011d95b995cda5cd5985b1d5955985d5b1d607a1b614766565b60008342106136b65760405162461bcd60e51b815260206004820152601060248201526f496e76616c6964206d6174757269747960801b604482015260640161040a565b60006136c2428661523a565b90506136e26136d76127106301e1338061517b565b85610787848761517b565b95945050505050565b60006134406a14995cd95c9d99519d5b9960aa1b614766565b61372860405180606001604052806000815260200160008152602001600081525090565b60008061373361312b565b60008a8152600691909101602090815260408083206001600160a01b03898116855292529182902054915163070da1af60e11b81528a82166004820152911690630e1b435e90602401604080518083038186803b15801561379357600080fd5b505afa1580156137a7573d6000803e3d6000fd5b505050506040513d601f19601f820116820180604052508101906137cb91906155c3565b91509150816000146138e8578086146138815786604001511561387c576137f0613653565b604051630c30971960e11b8152600481018b905260248101839052604481018490526001600160a01b0391909116906318612e32906064015b60206040518083038186803b15801561384157600080fd5b505afa158015613855573d6000803e3d6000fd5b505050506040513d601f19601f82011682018060405250810190613879919061514a565b83525b6138e8565b808614156138e85786518015613895575083155b156138b4576138a58982846147fe565b604085015260208401526138e8565b8651806138c357508660400151155b806138cb5750835b156138e857604083018290526138e2898284614a2b565b60208401525b50509695505050505050565b6139266040518060a0016040528060008152602001600081526020016000815260200160008152602001600081525090565b604051631c7b209b60e31b81526001600160a01b038781166004830152600091829186169063e3d904d89060240160806040518083038186803b15801561396c57600080fd5b505afa158015613980573d6000803e3d6000fd5b505050506040513d601f19601f820116820180604052508101906139a491906155e7565b60808701929092526060860192909252909250905081156138e857808614613a225786604001511561387c576139d8613653565b6001600160a01b03166318612e328a836139f186613445565b6040516001600160e01b031960e086901b168152600481019390935260248301919091526044820152606401613829565b808614156138e85786518015613a36575083155b15613a4e576138a58982613a4985613445565b6147fe565b865180613a5d57508660400151155b80613a655750835b156138e857613a7382613445565b604084018190526138e2908a908390614a2b565b613ab96040518060a0016040528060008152602001600081526020016000815260200160008152602001600081525090565b6040516339f7dda360e21b81526001600160a01b038781166004830152600091829186169063e7df768c9060240160806040518083038186803b158015613aff57600080fd5b505afa158015613b13573d6000803e3d6000fd5b505050506040513d601f19601f82011682018060405250810190613b3791906155e7565b60808701929092526060860192909252909250905081156138e857808614613a225786604001511561387c57613b6b613653565b6001600160a01b03166318612e328a83613b8486613445565b6040516001600160e01b031960e086901b16815260048101939093526024830191909152604482015260640160206040518083038186803b158015613bc857600080fd5b505afa158015613bdc573d6000803e3d6000fd5b505050506040513d601f19601f82011682018060405250810190613c00919061514a565b83518490613c0f90839061505d565b9052506138e8565b600061291c613c27612710613445565b613c3084613445565b61341a9086615514565b60006134407121bab93932b731bca1b7b73a3937b63632b960711b614766565b600061291f825490565b600061291c8383614ad5565b6000806000613c7d61312b565b60008781526006919091016020526040812090613c9861312b565b6000898152600791909101602090815260408083208a84528252808320546001600160a01b0390811685529184019490945291909201822054169150808080808080613ce261312b565b60008e8152600791909101602090815260408083208f845290915290819020549051633d4eccdf60e01b81526001600160a01b038d8116600483015290911690633d4eccdf9060240160e060405180830381600087803b158015613d4557600080fd5b505af1158015613d59573d6000803e3d6000fd5b505050506040513d601f19601f82011682018060405250810190613d7d919061561d565b965096509650965096509650965081831115613e0a57613d9b613428565b6001600160a01b031663fb7bd3b48c8f613db5868861523a565b6040518463ffffffff1660e01b8152600401613dd39392919061519a565b600060405180830381600087803b158015613ded57600080fd5b505af1158015613e01573d6000803e3d6000fd5b50505050613e85565b81831015613e8557613e1a613428565b6001600160a01b0316634ba0c9b58c8f613e34878761523a565b6040518463ffffffff1660e01b8152600401613e529392919061519a565b600060405180830381600087803b158015613e6c57600080fd5b505af1158015613e80573d6000803e3d6000fd5b505050505b8415613f3957604051639e8d3d5560e01b81526001600160a01b03891690639e8d3d5590613ebe908e9089908690600090600401615212565b600060405180830381600087803b158015613ed857600080fd5b505af1158015613eec573d6000803e3d6000fd5b50505050808d8c6001600160a01b03167fba00994778888e87ce0908fd360c4b0417bfe7e274cce4cb72ed8a60b38b3e386000878a604051613f3093929190615251565b60405180910390a45b8315613fed576040516305b0b29360e41b81526001600160a01b03891690635b0b293090613f72908e9088908690600090600401615212565b600060405180830381600087803b158015613f8c57600080fd5b505af1158015613fa0573d6000803e3d6000fd5b50505050808d8c6001600160a01b03167fba00994778888e87ce0908fd360c4b0417bfe7e274cce4cb72ed8a60b38b3e3860018689604051613fe493929190615251565b60405180910390a45b6000613ff98587615163565b1198506140068688615163565b99505050505050505050935093915050565b600061291c8383614aff565b600080614031848761284f565b9050600061403d61312b565b600501600086815260200190815260200160002060008154811061406357614063615031565b60009182526020822001548594506001600160a01b031691505b8251811015614129578361409057614129565b6141158888888685815181106140a8576140a8615031565b602002602001015188876001600160a01b03166140c361312b565b60070160008e815260200190815260200160002060008b8a815181106140eb576140eb615031565b6020908102919091018101518252810191909152604001600020546001600160a01b031614614134565b9350806141218161509e565b91505061407d565b505050949350505050565b8160008112821561446d576000614149613653565b60405163386320d360e11b8152600481018990526001600160a01b038b8116602483015291909116906370c641a69060440160206040518083038186803b15801561419357600080fd5b505afa1580156141a7573d6000803e3d6000fd5b505050506040513d601f19601f820116820180604052508101906141cb919061514a565b90508180156141da5750600081125b806141ee5750811580156141ee5750600081135b1561446b5760006141fd613653565b6001600160a01b03166349a1d218896040518263ffffffff1660e01b815260040161422a91815260200190565b60206040518083038186803b15801561424257600080fd5b505afa158015614256573d6000803e3d6000fd5b505050506040513d601f19601f8201168201806040525081019061427a919061514a565b90506000614286613653565b6001600160a01b03166318612e328a60006142a28d878b614bf2565b6040516001600160e01b031960e086901b16815260048101939093526024830191909152604482015260640160206040518083038186803b1580156142e657600080fd5b505afa1580156142fa573d6000803e3d6000fd5b505050506040513d601f19601f8201168201806040525081019061431e919061514a565b905083801561432c57508083135b8061433f57508315801561433f57508083125b156143475750815b61434f613653565b604051633916cf2b60e21b8152600481018b90526001600160a01b038d811660248301528c8116604483015260648201849052919091169063e45b3cac90608401600060405180830381600087803b1580156143aa57600080fd5b505af11580156143be573d6000803e3d6000fd5b5050505061445c89836143cf613653565b604051637636e94160e01b8152600481018e905260006024820152604481018690526001600160a01b039190911690637636e9419060640160206040518083038186803b15801561441f57600080fd5b505afa158015614433573d6000803e3d6000fd5b505050506040513d601f19601f82011682018060405250810190614457919061514a565b614a2b565b6144669086615287565b945050505b505b600061447761312b565b6000888152600691909101602052604081209061449261312b565b60008a8152600791909101602090815260408083208b84528252808320546001600160a01b03908116855291840194909452918301812054925163070da1af60e11b81528c83166004820152929091169250908290630e1b435e90602401604080518083038186803b15801561450757600080fd5b505afa15801561451b573d6000803e3d6000fd5b505050506040513d601f19601f8201168201806040525081019061453f91906155c3565b50905082801561454f5750600081125b806145635750821580156145635750600081135b15614628576000614575898987614bf2565b905083801561458357508082135b8061459657508315801561459657508082125b1561459e5750805b604051630c02764960e31b81526001600160a01b038c811660048301528b8116602483015260448201839052606482018a9052841690636013b24890608401600060405180830381600087803b1580156145f757600080fd5b505af115801561460b573d6000803e3d6000fd5b5050505061461a898983614a2b565b6146249086615287565b9450505b83861461463a5761463a88888b612925565b5050509695505050505050565b606060006146548361467f565b9392505050565b6000818152600183016020526040812054151561291c565b600061291c8383614c80565b6060816000018054806020026020016040519081016040528092919081815260200182805480156146cf57602002820191906000526020600020905b8154815260200190600101908083116146bb575b50505050509050919050565b6000816146e757600080fd5b60006146f38385615671565b6146fe90600a615514565b8361470a86600a615514565b6147149190615671565b61471e9190615287565b90506005811261473d576147328385615671565b61342090600161505d565b600419811361475c5760016147528486615671565b6134209190615287565b6134208385615671565b60008181527f4abde63c3e81aefa5764b017968bc473e83e093d7e1a10247d19e0a3e41240196020908152604080832054815170026b4b9b9b4b7339030b2323932b9b99d1607d1b9381019390935260318084018690528251808503909101815260519093019091526001600160a01b031690816147f75760405162461bcd60e51b815260040161040a919061569f565b5092915050565b600080600061480b61312b565b600501600087815260200190815260200160002060008154811061483157614831615031565b6000918252602080832090910154604080516371613c2d60e01b815290516001600160a01b03909216945084926371613c2d92600480840193829003018186803b15801561487e57600080fd5b505afa158015614892573d6000803e3d6000fd5b505050506040513d601f19601f820116820180604052508101906148b6919061514a565b90506148c0613653565b60405163474611f160e01b815260048101899052602481018890526001600160a01b03919091169063474611f19060440160a06040518083038186803b15801561490957600080fd5b505afa15801561491d573d6000803e3d6000fd5b505050506040513d601f19601f8201168201806040525081019061494191906156f4565b5161497b57614951878787614a2b565b935061497461495f82613445565b61496a612710613445565b61341a9087615514565b9250614a21565b614983613653565b604051631b736f6760e31b8152600481018990526024810188905260006044820152606481018790526001600160a01b03919091169063db9b7b389060840160206040518083038186803b1580156149da57600080fd5b505afa1580156149ee573d6000803e3d6000fd5b505050506040513d601f19601f82011682018060405250810190614a12919061514a565b9250614a1e8382613c17565b93505b5050935093915050565b600080614a3661312b565b6000868152600791909101602090815260408083208784528252918290205482516371613c2d60e01b815292516001600160a01b03909116926371613c2d926004808301939192829003018186803b158015614a9157600080fd5b505afa158015614aa5573d6000803e3d6000fd5b505050506040513d601f19601f82011682018060405250810190614ac9919061514a565b90506136e28382613c17565b6000826000018281548110614aec57614aec615031565b9060005260206000200154905092915050565b60008181526001830160205260408120548015614be8576000614b2360018361523a565b8554909150600090614b379060019061523a565b9050818114614b9c576000866000018281548110614b5757614b57615031565b9060005260206000200154905080876000018481548110614b7a57614b7a615031565b6000918252602080832090910192909255918252600188019052604090208390555b8554869080614bad57614bad615764565b60019003818190600052602060002001600090559055856001016000868152602001908152602001600020600090556001935050505061291f565b600091505061291f565b600080614c6f614c0061312b565b6000878152600791909101602090815260408083208884528252918290205482516371613c2d60e01b815292516001600160a01b03909116926371613c2d926004808301939192829003018186803b158015614c5b57600080fd5b505afa1580156105dc573d6000803e3d6000fd5b90506136e281613c30612710613445565b6000818152600183016020526040812054614cc75750815460018181018455600084815260208082209093018490558454848252828601909352604090209190915561291f565b50600061291f565b80356001600160a01b0381168114614ce657600080fd5b919050565b600080600060608486031215614d0057600080fd5b8335925060208401359150614d1760408501614ccf565b90509250925092565b600060208284031215614d3257600080fd5b61291c82614ccf565b8015158114614d4957600080fd5b50565b600080600080600080600080610100898b031215614d6957600080fd5b8835975060208901359650614d8060408a01614ccf565b9550606089013560028110614d9457600080fd5b94506080890135935060a0890135925060c0890135915060e0890135614db981614d3b565b809150509295985092959890939650565b60008060408385031215614ddd57600080fd5b82359150614ded60208401614ccf565b90509250929050565b634e487b7160e01b600052604160045260246000fd5b604051601f8201601f1916810167ffffffffffffffff81118282101715614e3557614e35614df6565b604052919050565b600067ffffffffffffffff821115614e5757614e57614df6565b5060051b60200190565b60008060408385031215614e7457600080fd5b823567ffffffffffffffff811115614e8b57600080fd5b8301601f81018513614e9c57600080fd5b80356020614eb1614eac83614e3d565b614e0c565b82815260059290921b83018101918181019088841115614ed057600080fd5b938201935b83851015614eee57843582529382019390820190614ed5565b9550614efd9050868201614ccf565b93505050509250929050565b602080825282518282018190526000919060409081850190868401855b82811015614f6057815180518552868101518786015285810151868601526060908101519085015260809093019290850190600101614f26565b5091979650505050505050565b600080600080600060a08688031215614f8557600080fd5b614f8e86614ccf565b9450614f9c60208701614ccf565b94979496505050506040830135926060810135926080909101359150565b6020808252825182820181905260009190848201906040850190845b81811015614ff257835183529284019291840191600101614fd6565b50909695505050505050565b60008060006060848603121561501357600080fd5b61501c84614ccf565b95602085013595506040909401359392505050565b634e487b7160e01b600052603260045260246000fd5b634e487b7160e01b600052601160045260246000fd5b600080821280156001600160ff1b038490038513161561507f5761507f615047565b600160ff1b839003841281161561509857615098615047565b50500190565b60006000198214156150b2576150b2615047565b5060010190565b600060208083850312156150cc57600080fd5b825167ffffffffffffffff8111156150e357600080fd5b8301601f810185136150f457600080fd5b8051615102614eac82614e3d565b81815260059190911b8201830190838101908783111561512157600080fd5b928401925b8284101561513f57835182529284019290840190615126565b979650505050505050565b60006020828403121561515c57600080fd5b5051919050565b6000821982111561517657615176615047565b500190565b600081600019048311821515161561519557615195615047565b500290565b6001600160a01b039390931683526020830191909152604082015260600190565b600080600080608085870312156151d157600080fd5b84519350602085015192506040850151915060608501516151f181614d3b565b939692955090935050565b634e487b7160e01b600052602160045260246000fd5b6001600160a01b03949094168452602084019290925260408301521515606082015260800190565b60008282101561524c5761524c615047565b500390565b606081016002851061527357634e487b7160e01b600052602160045260246000fd5b938152602081019290925260409091015290565b60008083128015600160ff1b8501841216156152a5576152a5615047565b6001600160ff1b03840183138116156152c0576152c0615047565b50500390565b6000600160ff1b8214156152dc576152dc615047565b5060000390565b6000806000606084860312156152f857600080fd5b8351925060208401519150604084015190509250925092565b60006020828403121561532357600080fd5b815161465481614d3b565b6000602080838503121561534157600080fd5b825167ffffffffffffffff81111561535857600080fd5b8301601f8101851361536957600080fd5b8051615377614eac82614e3d565b81815260059190911b8201830190838101908783111561539657600080fd5b928401925b8284101561513f5783516153ae81614d3b565b8252928401929084019061539b565b6000604082018483526020604081850152818551808452606086019150828701935060005b81811015610ad9578451835293830193918301916001016153e2565b60006020828403121561541057600080fd5b815160ff8116811461465457600080fd5b600181815b8085111561545c57816000190482111561544257615442615047565b8085161561544f57918102915b93841c9390800290615426565b509250929050565b6000826154735750600161291f565b816154805750600061291f565b816001811461549657600281146154a0576154bc565b600191505061291f565b60ff8411156154b1576154b1615047565b50506001821b61291f565b5060208310610133831016604e8410600b84101617156154df575081810a61291f565b6154e98383615421565b80600019048211156154fd576154fd615047565b029392505050565b600061291c60ff841683615464565b60006001600160ff1b038184138284138082168684048611161561553a5761553a615047565b600160ff1b600087128281168783058912161561555957615559615047565b6000871292508782058712848416161561557557615575615047565b8785058712818416161561558b5761558b615047565b505050929093029392505050565b634e487b7160e01b600052601260045260246000fd5b6000826155be576155be615599565b500490565b600080604083850312156155d657600080fd5b505080516020909101519092909150565b600080600080608085870312156155fd57600080fd5b505082516020840151604085015160609095015191969095509092509050565b600080600080600080600060e0888a03121561563857600080fd5b5050855160208701516040880151606089015160808a015160a08b015160c0909b0151949c939b50919990985090965094509092509050565b60008261568057615680615599565b600160ff1b82146000198414161561569a5761569a615047565b500590565b600060208083528351808285015260005b818110156156cc578581018301518582016040015282016156b0565b818111156156de576000604083870101525b50601f01601f1916929092016040019392505050565b600060a0828403121561570657600080fd5b60405160a0810181811067ffffffffffffffff8211171561572957615729614df6565b806040525082518152602083015160208201526040830151604082015260608301516060820152608083015160808201528091505092915050565b634e487b7160e01b600052603160045260246000fdfea26469706673582212201f37ee11567e0d1b9653b5c11df35f272383d4dfb1e12d797d77b12bf137a4cd64736f6c63430008090033",
  "libraries": {
    "QuickSort": "0x9aDD6A675fc7E008cB3a22560A575606ED3302c2"
  },
  "devdoc": {
    "kind": "dev",
    "methods": {
      "convertFutureValueToGenesisValue(bytes32,uint256,address)": {
        "params": {
          "_ccy": "Currency for pausing all lending markets",
          "_user": "User's address"
        },
        "returns": {
          "_0": "Current future value amount after update"
        }
      }
    },
    "version": 1
  },
  "userdoc": {
    "kind": "user",
    "methods": {
      "convertFutureValueToGenesisValue(bytes32,uint256,address)": {
        "notice": "Converts the future value to the genesis value if there is balance in the past maturity."
      }
    },
    "version": 1
  },
  "storageLayout": {
    "storage": [],
    "types": null
  }
}