{
  "address": "0xBC9D90ABd43D856218d64971731Fe014bd7Aa300",
  "abi": [
    {
      "anonymous": false,
      "inputs": [
        {
          "indexed": false,
          "internalType": "bytes32",
          "name": "name",
          "type": "bytes32"
        },
        {
          "indexed": false,
          "internalType": "address",
          "name": "destination",
          "type": "address"
        }
      ],
      "name": "CacheUpdated",
      "type": "event"
    },
    {
      "anonymous": false,
      "inputs": [
        {
          "indexed": false,
          "internalType": "uint8",
          "name": "version",
          "type": "uint8"
        }
      ],
      "name": "Initialized",
      "type": "event"
    },
    {
      "anonymous": false,
      "inputs": [
        {
          "indexed": false,
          "internalType": "bytes32",
          "name": "ccy",
          "type": "bytes32"
        },
        {
          "indexed": false,
          "internalType": "uint256",
          "name": "maturity",
          "type": "uint256"
        },
        {
          "indexed": false,
          "internalType": "uint256",
          "name": "openingPrice",
          "type": "uint256"
        }
      ],
      "name": "ItayoseExecuted",
      "type": "event"
    },
    {
      "anonymous": false,
      "inputs": [
        {
          "indexed": false,
          "internalType": "uint256",
          "name": "maturity",
          "type": "uint256"
        },
        {
          "indexed": false,
          "internalType": "uint256",
          "name": "prevMaturity",
          "type": "uint256"
        }
      ],
      "name": "MarketOpened",
      "type": "event"
    },
    {
      "anonymous": false,
      "inputs": [
        {
          "indexed": false,
          "internalType": "uint48",
          "name": "orderId",
          "type": "uint48"
        },
        {
          "indexed": true,
          "internalType": "address",
          "name": "maker",
          "type": "address"
        },
        {
          "indexed": false,
          "internalType": "enum ProtocolTypes.Side",
          "name": "side",
          "type": "uint8"
        },
        {
          "indexed": false,
          "internalType": "bytes32",
          "name": "ccy",
          "type": "bytes32"
        },
        {
          "indexed": false,
          "internalType": "uint256",
          "name": "maturity",
          "type": "uint256"
        },
        {
          "indexed": false,
          "internalType": "uint256",
          "name": "amount",
          "type": "uint256"
        },
        {
          "indexed": false,
          "internalType": "uint256",
          "name": "unitPrice",
          "type": "uint256"
        }
      ],
      "name": "OrderCanceled",
      "type": "event"
    },
    {
      "anonymous": false,
      "inputs": [
        {
          "indexed": false,
          "internalType": "uint48",
          "name": "orderId",
          "type": "uint48"
        },
        {
          "indexed": false,
          "internalType": "uint48",
          "name": "originalOrderId",
          "type": "uint48"
        },
        {
          "indexed": true,
          "internalType": "address",
          "name": "maker",
          "type": "address"
        },
        {
          "indexed": false,
          "internalType": "enum ProtocolTypes.Side",
          "name": "side",
          "type": "uint8"
        },
        {
          "indexed": false,
          "internalType": "bytes32",
          "name": "ccy",
          "type": "bytes32"
        },
        {
          "indexed": false,
          "internalType": "uint256",
          "name": "maturity",
          "type": "uint256"
        },
        {
          "indexed": false,
          "internalType": "uint256",
          "name": "amount",
          "type": "uint256"
        },
        {
          "indexed": false,
          "internalType": "uint256",
          "name": "unitPrice",
          "type": "uint256"
        }
      ],
      "name": "OrderMade",
      "type": "event"
    },
    {
      "anonymous": false,
      "inputs": [
        {
          "indexed": false,
          "internalType": "uint48[]",
          "name": "orderIds",
          "type": "uint48[]"
        },
        {
          "indexed": true,
          "internalType": "address",
          "name": "maker",
          "type": "address"
        },
        {
          "indexed": false,
          "internalType": "enum ProtocolTypes.Side",
          "name": "side",
          "type": "uint8"
        },
        {
          "indexed": true,
          "internalType": "bytes32",
          "name": "ccy",
          "type": "bytes32"
        },
        {
          "indexed": false,
          "internalType": "uint256",
          "name": "maturity",
          "type": "uint256"
        }
      ],
      "name": "OrdersCleaned",
      "type": "event"
    },
    {
      "anonymous": false,
      "inputs": [
        {
          "indexed": true,
          "internalType": "address",
          "name": "taker",
          "type": "address"
        },
        {
          "indexed": false,
          "internalType": "enum ProtocolTypes.Side",
          "name": "side",
          "type": "uint8"
        },
        {
          "indexed": false,
          "internalType": "bytes32",
          "name": "ccy",
          "type": "bytes32"
        },
        {
          "indexed": false,
          "internalType": "uint256",
          "name": "maturity",
          "type": "uint256"
        },
        {
          "indexed": false,
          "internalType": "uint256",
          "name": "filledAmount",
          "type": "uint256"
        },
        {
          "indexed": false,
          "internalType": "uint256",
          "name": "unitPrice",
          "type": "uint256"
        },
        {
          "indexed": false,
          "internalType": "uint256",
          "name": "filledFutureValue",
          "type": "uint256"
        }
      ],
      "name": "OrdersTaken",
      "type": "event"
    },
    {
      "anonymous": false,
      "inputs": [
        {
          "indexed": false,
          "internalType": "address",
          "name": "account",
          "type": "address"
        }
      ],
      "name": "Paused",
      "type": "event"
    },
    {
      "anonymous": false,
      "inputs": [
        {
          "indexed": false,
          "internalType": "address",
          "name": "account",
          "type": "address"
        }
      ],
      "name": "Unpaused",
      "type": "event"
    },
    {
      "inputs": [],
      "name": "acceptedContracts",
      "outputs": [
        {
          "internalType": "bytes32[]",
          "name": "contracts",
          "type": "bytes32[]"
        }
      ],
      "stateMutability": "pure",
      "type": "function"
    },
    {
      "inputs": [],
      "name": "buildCache",
      "outputs": [],
      "stateMutability": "nonpayable",
      "type": "function"
    },
    {
      "inputs": [
        {
          "internalType": "address",
          "name": "_user",
          "type": "address"
        },
        {
          "internalType": "uint48",
          "name": "_orderId",
          "type": "uint48"
        }
      ],
      "name": "cancelOrder",
      "outputs": [
        {
          "internalType": "enum ProtocolTypes.Side",
          "name": "side",
          "type": "uint8"
        },
        {
          "internalType": "uint256",
          "name": "removedAmount",
          "type": "uint256"
        },
        {
          "internalType": "uint256",
          "name": "unitPrice",
          "type": "uint256"
        }
      ],
      "stateMutability": "nonpayable",
      "type": "function"
    },
    {
      "inputs": [
        {
          "internalType": "address",
          "name": "_user",
          "type": "address"
        }
      ],
      "name": "cleanOrders",
      "outputs": [
        {
          "internalType": "uint256",
          "name": "activeLendOrderCount",
          "type": "uint256"
        },
        {
          "internalType": "uint256",
          "name": "activeBorrowOrderCount",
          "type": "uint256"
        },
        {
          "internalType": "uint256",
          "name": "removedLendOrderFutureValue",
          "type": "uint256"
        },
        {
          "internalType": "uint256",
          "name": "removedBorrowOrderFutureValue",
          "type": "uint256"
        },
        {
          "internalType": "uint256",
          "name": "removedLendOrderAmount",
          "type": "uint256"
        },
        {
          "internalType": "uint256",
          "name": "removedBorrowOrderAmount",
          "type": "uint256"
        },
        {
          "internalType": "uint256",
          "name": "maturity",
          "type": "uint256"
        }
      ],
      "stateMutability": "nonpayable",
      "type": "function"
    },
    {
      "inputs": [
        {
          "internalType": "enum ProtocolTypes.Side",
          "name": "_side",
          "type": "uint8"
        },
        {
          "internalType": "address",
          "name": "_user",
          "type": "address"
        },
        {
          "internalType": "uint256",
          "name": "_amount",
          "type": "uint256"
        },
        {
          "internalType": "uint256",
          "name": "_unitPrice",
          "type": "uint256"
        },
        {
          "internalType": "bool",
          "name": "_ignoreRemainingAmount",
          "type": "bool"
        }
      ],
      "name": "createOrder",
      "outputs": [
        {
          "internalType": "uint256",
          "name": "filledFutureValue",
          "type": "uint256"
        },
        {
          "internalType": "uint256",
          "name": "remainingAmount",
          "type": "uint256"
        }
      ],
      "stateMutability": "nonpayable",
      "type": "function"
    },
    {
      "inputs": [
        {
          "internalType": "enum ProtocolTypes.Side",
          "name": "_side",
          "type": "uint8"
        },
        {
          "internalType": "address",
          "name": "_user",
          "type": "address"
        },
        {
          "internalType": "uint256",
          "name": "_amount",
          "type": "uint256"
        },
        {
          "internalType": "uint256",
          "name": "_unitPrice",
          "type": "uint256"
        }
      ],
      "name": "createPreOrder",
      "outputs": [],
      "stateMutability": "nonpayable",
      "type": "function"
    },
    {
      "inputs": [
        {
          "internalType": "enum ProtocolTypes.Side",
          "name": "_side",
          "type": "uint8"
        },
        {
          "internalType": "uint256",
          "name": "_futureValue",
          "type": "uint256"
        }
      ],
      "name": "estimateFilledAmount",
      "outputs": [
        {
          "internalType": "uint256",
          "name": "amount",
          "type": "uint256"
        }
      ],
      "stateMutability": "view",
      "type": "function"
    },
    {
      "inputs": [],
      "name": "executeItayoseCall",
      "outputs": [],
      "stateMutability": "nonpayable",
      "type": "function"
    },
    {
      "inputs": [
        {
          "internalType": "address",
          "name": "_user",
          "type": "address"
        }
      ],
      "name": "getActiveBorrowOrderIds",
      "outputs": [
        {
          "internalType": "uint48[]",
          "name": "activeOrderIds",
          "type": "uint48[]"
        }
      ],
      "stateMutability": "view",
      "type": "function"
    },
    {
      "inputs": [
        {
          "internalType": "address",
          "name": "_user",
          "type": "address"
        }
      ],
      "name": "getActiveLendOrderIds",
      "outputs": [
        {
          "internalType": "uint48[]",
          "name": "activeOrderIds",
          "type": "uint48[]"
        }
      ],
      "stateMutability": "view",
      "type": "function"
    },
    {
      "inputs": [
        {
          "internalType": "uint256",
          "name": "_limit",
          "type": "uint256"
        }
      ],
      "name": "getBorrowOrderBook",
      "outputs": [
        {
          "internalType": "uint256[]",
          "name": "unitPrices",
          "type": "uint256[]"
        },
        {
          "internalType": "uint256[]",
          "name": "amounts",
          "type": "uint256[]"
        },
        {
          "internalType": "uint256[]",
          "name": "quantities",
          "type": "uint256[]"
        }
      ],
      "stateMutability": "view",
      "type": "function"
    },
    {
      "inputs": [],
      "name": "getBorrowUnitPrice",
      "outputs": [
        {
          "internalType": "uint256",
          "name": "",
          "type": "uint256"
        }
      ],
      "stateMutability": "view",
      "type": "function"
    },
    {
      "inputs": [],
      "name": "getCurrency",
      "outputs": [
        {
          "internalType": "bytes32",
          "name": "currency",
          "type": "bytes32"
        }
      ],
      "stateMutability": "view",
      "type": "function"
    },
    {
      "inputs": [
        {
          "internalType": "uint256",
          "name": "_limit",
          "type": "uint256"
        }
      ],
      "name": "getLendOrderBook",
      "outputs": [
        {
          "internalType": "uint256[]",
          "name": "unitPrices",
          "type": "uint256[]"
        },
        {
          "internalType": "uint256[]",
          "name": "amounts",
          "type": "uint256[]"
        },
        {
          "internalType": "uint256[]",
          "name": "quantities",
          "type": "uint256[]"
        }
      ],
      "stateMutability": "view",
      "type": "function"
    },
    {
      "inputs": [],
      "name": "getLendUnitPrice",
      "outputs": [
        {
          "internalType": "uint256",
          "name": "",
          "type": "uint256"
        }
      ],
      "stateMutability": "view",
      "type": "function"
    },
    {
      "inputs": [],
      "name": "getMarket",
      "outputs": [
        {
          "components": [
            {
              "internalType": "bytes32",
              "name": "ccy",
              "type": "bytes32"
            },
            {
              "internalType": "uint256",
              "name": "maturity",
              "type": "uint256"
            },
            {
              "internalType": "uint256",
              "name": "openingDate",
              "type": "uint256"
            },
            {
              "internalType": "uint256",
              "name": "borrowUnitPrice",
              "type": "uint256"
            },
            {
              "internalType": "uint256",
              "name": "lendUnitPrice",
              "type": "uint256"
            },
            {
              "internalType": "uint256",
              "name": "midUnitPrice",
              "type": "uint256"
            }
          ],
          "internalType": "struct ILendingMarket.Market",
          "name": "market",
          "type": "tuple"
        }
      ],
      "stateMutability": "view",
      "type": "function"
    },
    {
      "inputs": [],
      "name": "getMaturity",
      "outputs": [
        {
          "internalType": "uint256",
          "name": "maturity",
          "type": "uint256"
        }
      ],
      "stateMutability": "view",
      "type": "function"
    },
    {
      "inputs": [],
      "name": "getMidUnitPrice",
      "outputs": [
        {
          "internalType": "uint256",
          "name": "",
          "type": "uint256"
        }
      ],
      "stateMutability": "view",
      "type": "function"
    },
    {
      "inputs": [],
      "name": "getOpeningDate",
      "outputs": [
        {
          "internalType": "uint256",
          "name": "",
          "type": "uint256"
        }
      ],
      "stateMutability": "view",
      "type": "function"
    },
    {
      "inputs": [],
      "name": "getOpeningUnitPrice",
      "outputs": [
        {
          "internalType": "uint256",
          "name": "",
          "type": "uint256"
        }
      ],
      "stateMutability": "view",
      "type": "function"
    },
    {
      "inputs": [
        {
          "internalType": "uint48",
          "name": "_orderId",
          "type": "uint48"
        }
      ],
      "name": "getOrder",
      "outputs": [
        {
          "internalType": "enum ProtocolTypes.Side",
          "name": "side",
          "type": "uint8"
        },
        {
          "internalType": "uint256",
          "name": "unitPrice",
          "type": "uint256"
        },
        {
          "internalType": "uint256",
          "name": "maturity",
          "type": "uint256"
        },
        {
          "internalType": "address",
          "name": "maker",
          "type": "address"
        },
        {
          "internalType": "uint256",
          "name": "amount",
          "type": "uint256"
        },
        {
          "internalType": "uint256",
          "name": "timestamp",
          "type": "uint256"
        }
      ],
      "stateMutability": "view",
      "type": "function"
    },
    {
      "inputs": [
        {
          "internalType": "address",
          "name": "_user",
          "type": "address"
        }
      ],
      "name": "getTotalAmountFromBorrowOrders",
      "outputs": [
        {
          "internalType": "uint256",
          "name": "activeAmount",
          "type": "uint256"
        },
        {
          "internalType": "uint256",
          "name": "inactiveAmount",
          "type": "uint256"
        },
        {
          "internalType": "uint256",
          "name": "inactiveFutureValue",
          "type": "uint256"
        },
        {
          "internalType": "uint256",
          "name": "maturity",
          "type": "uint256"
        }
      ],
      "stateMutability": "view",
      "type": "function"
    },
    {
      "inputs": [
        {
          "internalType": "address",
          "name": "_user",
          "type": "address"
        }
      ],
      "name": "getTotalAmountFromLendOrders",
      "outputs": [
        {
          "internalType": "uint256",
          "name": "activeAmount",
          "type": "uint256"
        },
        {
          "internalType": "uint256",
          "name": "inactiveAmount",
          "type": "uint256"
        },
        {
          "internalType": "uint256",
          "name": "inactiveFutureValue",
          "type": "uint256"
        },
        {
          "internalType": "uint256",
          "name": "maturity",
          "type": "uint256"
        }
      ],
      "stateMutability": "view",
      "type": "function"
    },
    {
      "inputs": [
        {
          "internalType": "address",
          "name": "_resolver",
          "type": "address"
        },
        {
          "internalType": "bytes32",
          "name": "_ccy",
          "type": "bytes32"
        },
        {
          "internalType": "uint256",
          "name": "_maturity",
          "type": "uint256"
        },
        {
          "internalType": "uint256",
          "name": "_openingDate",
          "type": "uint256"
        }
      ],
      "name": "initialize",
      "outputs": [],
      "stateMutability": "nonpayable",
      "type": "function"
    },
    {
      "inputs": [],
      "name": "isItayosePeriod",
      "outputs": [
        {
          "internalType": "bool",
          "name": "",
          "type": "bool"
        }
      ],
      "stateMutability": "view",
      "type": "function"
    },
    {
      "inputs": [],
      "name": "isMatured",
      "outputs": [
        {
          "internalType": "bool",
          "name": "",
          "type": "bool"
        }
      ],
      "stateMutability": "view",
      "type": "function"
    },
    {
      "inputs": [],
      "name": "isOpened",
      "outputs": [
        {
          "internalType": "bool",
          "name": "",
          "type": "bool"
        }
      ],
      "stateMutability": "view",
      "type": "function"
    },
    {
      "inputs": [],
      "name": "isPreOrderPeriod",
      "outputs": [
        {
          "internalType": "bool",
          "name": "",
          "type": "bool"
        }
      ],
      "stateMutability": "view",
      "type": "function"
    },
    {
      "inputs": [],
      "name": "isResolverCached",
      "outputs": [
        {
          "internalType": "bool",
          "name": "",
          "type": "bool"
        }
      ],
      "stateMutability": "view",
      "type": "function"
    },
    {
      "inputs": [
        {
          "internalType": "uint256",
          "name": "_maturity",
          "type": "uint256"
        },
        {
          "internalType": "uint256",
          "name": "_openingDate",
          "type": "uint256"
        }
      ],
      "name": "openMarket",
      "outputs": [
        {
          "internalType": "uint256",
          "name": "prevMaturity",
          "type": "uint256"
        }
      ],
      "stateMutability": "nonpayable",
      "type": "function"
    },
    {
      "inputs": [],
      "name": "pauseMarket",
      "outputs": [],
      "stateMutability": "nonpayable",
      "type": "function"
    },
    {
      "inputs": [],
      "name": "paused",
      "outputs": [
        {
          "internalType": "bool",
          "name": "",
          "type": "bool"
        }
      ],
      "stateMutability": "view",
      "type": "function"
    },
    {
      "inputs": [],
      "name": "requiredContracts",
      "outputs": [
        {
          "internalType": "bytes32[]",
          "name": "contracts",
          "type": "bytes32[]"
        }
      ],
      "stateMutability": "pure",
      "type": "function"
    },
    {
      "inputs": [],
      "name": "resolver",
      "outputs": [
        {
          "internalType": "contract IAddressResolver",
          "name": "",
          "type": "address"
        }
      ],
      "stateMutability": "view",
      "type": "function"
    },
    {
      "inputs": [],
      "name": "unpauseMarket",
      "outputs": [],
      "stateMutability": "nonpayable",
      "type": "function"
    }
  ],
  "transactionHash": "0x69cffa584528be09ce86fde87e6816604f7452c711097a862dc6e3b0e5444419",
  "args": [],
  "numDeployments": 1,
  "solcInputHash": "0f98fd637c6f1ab13c3502083f0ead61",
  "bytecode": "0x608060405234801561001057600080fd5b506000805460ff19169055600180556131218061002e6000396000f3fe608060405234801561001057600080fd5b50600436106102115760003560e01c80637c6cd94d11610125578063cd4a1c14116100ad578063e16695b51161007c578063e16695b51461044b578063e3d904d814610453578063e7df768c14610486578063eebc28f914610499578063f1be1679146104ac57600080fd5b8063cd4a1c1414610408578063d866d35514610430578063e0997659146102e9578063e0dbc76e1461044357600080fd5b806386e613a0116100f457806386e613a0146103b25780639d652907146103c5578063a03738dc146103cd578063a452c3f8146103d5578063b7c1d527146103f557600080fd5b80637c6cd94d146103755780637ce219aa1461037d5780637e706938146103a25780637f2b6a0d146103aa57600080fd5b80633d03b9da116101a85780635e0b54da116101775780635e0b54da1461034d578063692aa97e146103555780636945c1fd1461035d5780636a2c42741461036557806371613c2d1461036d57600080fd5b80633d03b9da146102e95780634bf62d16146102fe578063504b89bd146103205780635c975abb1461034257600080fd5b80631e007d1d116101e45780631e007d1d146102a357806328378aab146102b657806329985e5a146102c95780632af64bd3146102d157600080fd5b806304f3bcec146102165780630a2db1921461023b5780631610c7ce146102835780631b3508b71461028d575b600080fd5b61021e610500565b6040516001600160a01b0390911681526020015b60405180910390f35b61024e61024936600461265c565b610521565b604080519788526020880196909652948601939093526060850191909152608084015260a083015260c082015260e001610232565b61028b610762565b005b61029561079a565b604051908152602001610232565b6102956102b1366004612686565b61081d565b61028b6102c43660046126b2565b6108b0565b61028b6109d4565b6102d9610b81565b6040519015158152602001610232565b6102f1610ce7565b60405161023291906126f8565b61031161030c36600461273c565b610d4c565b60405161023293929190612790565b61033361032e3660046127e7565b610deb565b60405161023293929190612858565b60005460ff166102d9565b610295610fdd565b6102d9611023565b61029561107e565b61029561108e565b6102956110bd565b6102d96111db565b61039061038b366004612877565b611221565b60405161023296959493929190612894565b61028b6112cc565b6102d961160b565b6102956103c03660046128d3565b611621565b6102d96116fb565b61028b611753565b6103e86103e336600461265c565b611780565b604051610232919061292d565b61028b610403366004612940565b61181a565b61041b61041636600461297b565b611a26565b60408051928352602083019190915201610232565b61031161043e36600461273c565b611c5a565b610295611c98565b610295611cab565b61046661046136600461265c565b611cbe565b604080519485526020850193909352918301526060820152608001610232565b61046661049436600461265c565b611d62565b6103e86104a736600461265c565b611dab565b6104b4611dee565b6040516102329190600060c082019050825182526020830151602083015260408301516040830152606083015160608301526080830151608083015260a083015160a083015292915050565b60006000805160206130cc8339815191525b546001600160a01b0316919050565b6000806000806000806000610534611f76565b6001600160a01b038916600081815260089290920160205260409182902054915163914551f160e01b81526004810191909152602481018290529091506060908190734FDe2C2EF703dFe5caaCc1A02ae82FBf4F61F11C9063914551f19060440160006040518083038186803b1580156105ad57600080fd5b505af41580156105c1573d6000803e3d6000fd5b505050506040513d6000823e601f3d908101601f191682016040526105e99190810190612abe565b604051634a53967b60e01b81526001600160a01b038f16600482015260248101889052929c509099509650909250734FDe2C2EF703dFe5caaCc1A02ae82FBf4F61F11C90634a53967b9060440160006040518083038186803b15801561064e57600080fd5b505af4158015610662573d6000803e3d6000fd5b505050506040513d6000823e601f3d908101601f1916820160405261068a9190810190612abe565b919a5097509450905084156106f4576106a1611f76565b546001600160a01b038b167ffba0ebcbd5c3adaf135b8956666cd643ded961350fd5a61526d7fb0c637f709c8460006106d8611f76565b600301546040516106eb93929190612b16565b60405180910390a35b831561075557610702611f76565b546001600160a01b038b167ffba0ebcbd5c3adaf135b8956666cd643ded961350fd5a61526d7fb0c637f709c836001610739611f76565b6003015460405161074c93929190612b16565b60405180910390a35b5050919395979092949650565b61076b33611f9a565b6107905760405162461bcd60e51b815260040161078790612b46565b60405180910390fd5b610798612014565b565b6000734FDe2C2EF703dFe5caaCc1A02ae82FBf4F61F11C63e2afb0416040518163ffffffff1660e01b815260040160206040518083038186803b1580156107e057600080fd5b505af41580156107f4573d6000803e3d6000fd5b505050506040513d601f19601f820116820180604052508101906108189190612b7d565b905090565b604051637d3093d560e11b8152600090734FDe2C2EF703dFe5caaCc1A02ae82FBf4F61F11C9063fa6127aa906108599086908690600401612b96565b60206040518083038186803b15801561087157600080fd5b505af4158015610885573d6000803e3d6000fd5b505050506040513d601f19601f820116820180604052508101906108a99190612b7d565b9392505050565b6108b8612066565b6108c133611f9a565b6108dd5760405162461bcd60e51b815260040161078790612b46565b6108e56111db565b6109315760405162461bcd60e51b815260206004820152601b60248201527f4e6f7420696e20746865207072652d6f7264657220706572696f6400000000006044820152606401610787565b6000821161097c5760405162461bcd60e51b815260206004820152601860248201527710d85b89dd081c1b1858d948195b5c1d1e48185b5bdd5b9d60421b6044820152606401610787565b610985836120ac565b6000610996858585856000806121e7565b905060016109a2611f76565b65ffffffffffff929092166000908152600a9092016020526040909120805460ff191691151591909117905550505050565b60006109de610ce7565b905060005b8151811015610b7d576000828281518110610a0057610a00612bb1565b602002602001015190506000610a216000805160206130cc83398151915290565b54604080517f5265736f6c766572206d697373696e67207461726765743a200000000000000060208201526039808201869052825180830390910181526059820192839052636795dbcd60e01b9092526001600160a01b0390921691636795dbcd91610a9291869190605d01612c14565b60206040518083038186803b158015610aaa57600080fd5b505afa158015610abe573d6000803e3d6000fd5b505050506040513d601f19601f82011682018060405250810190610ae29190612c35565b60008381527f4abde63c3e81aefa5764b017968bc473e83e093d7e1a10247d19e0a3e4124019602090815260409182902080546001600160a01b0319166001600160a01b03851690811790915582518681529182015281519293507f88a93678a3692f6789d9546fc621bf7234b101ddb7d4fe479455112831b8aa68929081900390910190a150508080610b7590612c68565b9150506109e3565b5050565b600080610b8c610ce7565b905060005b8151811015610cde576000828281518110610bae57610bae612bb1565b60200260200101519050610bcd6000805160206130cc83398151915290565b600082815260019190910160205260409020546001600160a01b03166000805160206130cc833981519152546040516321f8a72160e01b8152600481018490526001600160a01b03909116906321f8a7219060240160206040518083038186803b158015610c3a57600080fd5b505afa158015610c4e573d6000803e3d6000fd5b505050506040513d601f19601f82011682018060405250810190610c729190612c35565b6001600160a01b0316141580610cbc575060008181527f4abde63c3e81aefa5764b017968bc473e83e093d7e1a10247d19e0a3e412401960205260409020546001600160a01b0316155b15610ccb576000935050505090565b5080610cd681612c68565b915050610b91565b50600191505090565b604080516001808252818301909252606091602080830190803683370190505090507f4c656e64696e674d61726b6574436f6e74726f6c6c657200000000000000000081600081518110610d3d57610d3d612bb1565b60200260200101818152505090565b6060806060734FDe2C2EF703dFe5caaCc1A02ae82FBf4F61F11C634bf62d16856040518263ffffffff1660e01b8152600401610d8a91815260200190565b60006040518083038186803b158015610da257600080fd5b505af4158015610db6573d6000803e3d6000fd5b505050506040513d6000823e601f3d908101601f19168201604052610dde9190810190612cde565b9250925092509193909250565b600080600084846000610dfd82611221565b509094505050506001600160a01b03821615159050610e505760405162461bcd60e51b815260206004820152600f60248201526e13dc99195c881b9bdd08199bdd5b99608a1b6044820152606401610787565b806001600160a01b0316836001600160a01b031614610eb15760405162461bcd60e51b815260206004820152601760248201527f43616c6c6572206973206e6f7420746865206d616b65720000000000000000006044820152606401610787565b610eb9612066565b610ec233611f9a565b610ede5760405162461bcd60e51b815260040161078790612b46565b604051636c5db84360e01b81526001600160a01b038916600482015265ffffffffffff88166024820152734FDe2C2EF703dFe5caaCc1A02ae82FBf4F61F11C90636c5db8439060440160606040518083038186803b158015610f3f57600080fd5b505af4158015610f53573d6000803e3d6000fd5b505050506040513d601f19601f82011682018060405250810190610f779190612d66565b91975095509350337f8a73e656799f8fbd4ea08e9420225176f98f85ef9a2a11a5a011580b65c8f1458888610faa611f76565b54610fb3611f76565b600301548a8a604051610fcb96959493929190612d9d565b60405180910390a25050509250925092565b6000734FDe2C2EF703dFe5caaCc1A02ae82FBf4F61F11C63614152b96040518163ffffffff1660e01b815260040160206040518083038186803b1580156107e057600080fd5b600061102d611f76565b600501600061103a611f76565b60030154815260208101919091526040016000205460ff168015611063575061106161160b565b155b80156108185750611072611f76565b60020154421015905090565b6000611088611f76565b54919050565b6000611098611f76565b60040160006110a5611f76565b60030154815260200190815260200160002054905090565b600080734FDe2C2EF703dFe5caaCc1A02ae82FBf4F61F11C63614152b96040518163ffffffff1660e01b815260040160206040518083038186803b15801561110457600080fd5b505af4158015611118573d6000803e3d6000fd5b505050506040513d601f19601f8201168201806040525081019061113c9190612b7d565b90506000734FDe2C2EF703dFe5caaCc1A02ae82FBf4F61F11C63e2afb0416040518163ffffffff1660e01b815260040160206040518083038186803b15801561118457600080fd5b505af4158015611198573d6000803e3d6000fd5b505050506040513d601f19601f820116820180604052508101906111bc9190612b7d565b905060026111ca8284612ddc565b6111d49190612df4565b9250505090565b60006202a3006111e9611f76565b600201546111f79190612e16565b42101580156108185750610e1061120c611f76565b6002015461121a9190612e16565b4210905090565b604051633e710cd560e11b815265ffffffffffff8216600482015260009081908190819081908190734FDe2C2EF703dFe5caaCc1A02ae82FBf4F61F11C90637ce219aa9060240160c06040518083038186803b15801561128057600080fd5b505af4158015611294573d6000803e3d6000fd5b505050506040513d601f19601f820116820180604052508101906112b89190612e2d565b949c939b5091995097509550909350915050565b6002600154141561131f5760405162461bcd60e51b815260206004820152601f60248201527f5265656e7472616e637947756172643a207265656e7472616e742063616c6c006044820152606401610787565b600260015561132c612066565b6113346116fb565b6113805760405162461bcd60e51b815260206004820152601960248201527f4e6f7420696e2074686520497461796f736520706572696f64000000000000006044820152606401610787565b600080734FDe2C2EF703dFe5caaCc1A02ae82FBf4F61F11C636a2c42746040518163ffffffff1660e01b8152600401604080518083038186803b1580156113c657600080fd5b505af41580156113da573d6000803e3d6000fd5b505050506040513d601f19601f820116820180604052508101906113fe9190612e8d565b9092509050801561159e57604080518082019091526000808252600160208301525b6002811015611546576000734FDe2C2EF703dFe5caaCc1A02ae82FBf4F61F11C6363978ac884846002811061145757611457612bb1565b60200201518660006040518463ffffffff1660e01b815260040161147d93929190612858565b60c06040518083038186803b15801561149557600080fd5b505af41580156114a9573d6000803e3d6000fd5b505050506040513d601f19601f820116820180604052508101906114cd9190612eb1565b50506040810151909150156115335761153160018484600281106114f3576114f3612bb1565b6020020151600181111561150957611509612820565b14611515576001611518565b60005b60208301516040840151606085015185516001906121e7565b505b508061153e81612c68565b915050611420565b507fdb070045d659ddca1851a8cf1181cfd454167280ce233e2411721eda429248ff611570611f76565b54611579611f76565b60030154604080519283526020830191909152810185905260600160405180910390a1505b60016115a8611f76565b60050160006115b5611f76565b6003015481526020810191909152604001600020805460ff1916911515919091179055816115e1611f76565b60040160006115ee611f76565b600301548152602081019190915260400160002055505060018055565b6000611615611f76565b60030154421015905090565b600061162b61160b565b61166f5760405162461bcd60e51b815260206004820152601560248201527413585c9ad95d081a5cc81b9bdd081b585d1d5c9959605a1b6044820152606401610787565b61167833611f9a565b6116945760405162461bcd60e51b815260040161078790612b46565b61169c611f76565b600301549050826116ab611f76565b60030155816116b8611f76565b6002015560408051848152602081018390527ffa1e4c93514398092ad307a4842a760bacdd4ff71b27d486bcdc636d9249db34910160405180910390a192915050565b6000610e10611708611f76565b600201546117169190612e16565b42101580156108185750611728611f76565b6005016000611735611f76565b60030154815260208101919091526040016000205460ff1615905090565b61175c33611f9a565b6117785760405162461bcd60e51b815260040161078790612b46565b6107986122e5565b60405163148a587f60e31b81526001600160a01b0382166004820152606090734FDe2C2EF703dFe5caaCc1A02ae82FBf4F61F11C9063a452c3f8906024015b60006040518083038186803b1580156117d757600080fd5b505af41580156117eb573d6000803e3d6000fd5b505050506040513d6000823e601f3d908101601f191682016040526118139190810190612f47565b5092915050565b60005462010000900460ff161580801561183f5750600054600161010090910460ff16105b8061185f5750303b15801561185f575060005460ff610100909104166001145b6118c25760405162461bcd60e51b815260206004820152602e60248201527f496e697469616c697a61626c653a20636f6e747261637420697320616c72656160448201526d191e481a5b9a5d1a585b1a5e995960921b6064820152608401610787565b6000805461ff00191661010017905580156118e9576000805462ff00001916620100001790555b60006118f3612322565b6001600160a01b031614156119565760405162461bcd60e51b815260206004820152602360248201527f4d7573742062652063616c6c65642066726f6d20626561636f6e20636f6e74726044820152621858dd60ea1b6064820152608401610787565b61195f8561234a565b83611968611f76565b5582611972611f76565b600301558161197f611f76565b6002015561198f610e1083612e16565b42106119d057600161199f611f76565b60050160006119ac611f76565b6003015481526020810191909152604001600020805460ff19169115159190911790555b6119d86109d4565b8015611a1f576000805462ff000019169055604051600181527f7f26b83ff96e1f2b6a682f133852f6798a09c465da95921460cefb38474024989060200160405180910390a15b5050505050565b600080611a31612066565b611a3a33611f9a565b611a565760405162461bcd60e51b815260040161078790612b46565b611a5e611023565b611aa15760405162461bcd60e51b815260206004820152601460248201527313585c9ad95d081a5cc81b9bdd081bdc195b995960621b6044820152606401610787565b60008511611aec5760405162461bcd60e51b815260206004820152601860248201527710d85b89dd081c1b1858d948195b5c1d1e48185b5bdd5b9d60421b6044820152606401610787565b611af5866120ac565b6000841580611c1c57506000886001811115611b1357611b13612820565b14611b9c5784734FDe2C2EF703dFe5caaCc1A02ae82FBf4F61F11C63e2afb0416040518163ffffffff1660e01b815260040160206040518083038186803b158015611b5d57600080fd5b505af4158015611b71573d6000803e3d6000fd5b505050506040513d601f19601f82011682018060405250810190611b959190612b7d565b1015611c1c565b84734FDe2C2EF703dFe5caaCc1A02ae82FBf4F61F11C63614152b96040518163ffffffff1660e01b815260040160206040518083038186803b158015611be157600080fd5b505af4158015611bf5573d6000803e3d6000fd5b505050506040513d601f19601f82011682018060405250810190611c199190612b7d565b11155b90508015611c3b57611c3188888888886123df565b9093509150611c4f565b611c4a888888886000806121e7565b508591505b509550959350505050565b6060806060734FDe2C2EF703dFe5caaCc1A02ae82FBf4F61F11C63d866d355856040518263ffffffff1660e01b8152600401610d8a91815260200190565b6000611ca2611f76565b60020154905090565b6000611cb5611f76565b60030154905090565b604051631c7b209b60e31b81526001600160a01b0382166004820152600090819081908190734FDe2C2EF703dFe5caaCc1A02ae82FBf4F61F11C9063e3d904d8906024015b60806040518083038186803b158015611d1b57600080fd5b505af4158015611d2f573d6000803e3d6000fd5b505050506040513d601f19601f82011682018060405250810190611d539190612fab565b93509350935093509193509193565b6040516339f7dda360e21b81526001600160a01b0382166004820152600090819081908190734FDe2C2EF703dFe5caaCc1A02ae82FBf4F61F11C9063e7df768c90602401611d03565b60405163eebc28f960e01b81526001600160a01b0382166004820152606090734FDe2C2EF703dFe5caaCc1A02ae82FBf4F61F11C9063eebc28f9906024016117bf565b611e2a6040518060c001604052806000801916815260200160008152602001600081526020016000815260200160008152602001600081525090565b6040518060c00160405280611e3d611f76565b548152602001611e4b611f76565b600301548152602001611e5c611f76565b600201548152602001734FDe2C2EF703dFe5caaCc1A02ae82FBf4F61F11C63614152b96040518163ffffffff1660e01b815260040160206040518083038186803b158015611ea957600080fd5b505af4158015611ebd573d6000803e3d6000fd5b505050506040513d601f19601f82011682018060405250810190611ee19190612b7d565b8152602001734FDe2C2EF703dFe5caaCc1A02ae82FBf4F61F11C63e2afb0416040518163ffffffff1660e01b815260040160206040518083038186803b158015611f2a57600080fd5b505af4158015611f3e573d6000803e3d6000fd5b505050506040513d601f19601f82011682018060405250810190611f629190612b7d565b8152602001611f6f6110bd565b9052919050565b7ffc2836757f9146445fc75bc3c897a210ec004e4ee60fc8627ef5cbf2842b3d0a90565b600080611fa5610ce7565b905060005b815181101561200a57611fd5828281518110611fc857611fc8612bb1565b6020026020010151612559565b6001600160a01b0316846001600160a01b03161415611ff8575060019392505050565b8061200281612c68565b915050611faa565b5060009392505050565b61201c61256a565b6000805460ff191690557f5db9ee0a495bf2e6ff9c91a7834c1ba4fdd244a5e8aa4e537bd38aeae4b073aa335b6040516001600160a01b03909116815260200160405180910390a1565b60005460ff16156107985760405162461bcd60e51b815260206004820152601060248201526f14185d5cd8589b194e881c185d5cd95960821b6044820152606401610787565b60006120b6611f76565b6001600160a01b0383166000908152600891909101602052604090205490506120dd611f76565b6003015481148061215457506120f1611f76565b6003015481141580156121265750612107611f76565b6001600160a01b03831660009081526006919091016020526040902054155b80156121545750612135611f76565b6001600160a01b03831660009081526007919091016020526040902054155b6121a05760405162461bcd60e51b815260206004820152601d60248201527f4f7264657220666f756e6420696e2070617374206d617475726974792e0000006044820152606401610787565b6121a8611f76565b600301548114610b7d576121ba611f76565b600301546121c6611f76565b6001600160a01b038416600090815260089190910160205260409020555050565b604051631b4269f560e11b8152600090734FDe2C2EF703dFe5caaCc1A02ae82FBf4F61F11C90633684d3ea90612229908a908a908a908a908a90600401612fe1565b60206040518083038186803b15801561224157600080fd5b505af4158015612255573d6000803e3d6000fd5b505050506040513d601f19601f82011682018060405250810190612279919061301d565b9050856001600160a01b03167f0e334d2db0839cda8370e6b1f20682e64bbd2be77e8a2f8a3c55f99b868142ba82848a6122b1611f76565b546122ba611f76565b600301548b8b6040516122d3979695949392919061303a565b60405180910390a29695505050505050565b6122ed612066565b6000805460ff191660011790557f62e78cea01bee320cd4e420270b5ea74000d11b0c9f74754ebdbfc544b05a2586120493390565b60007fa3f0ad74e5423aebfd80d3ef4346578335a9a72aeaee59ff6cb3582b35133d50610512565b6000805160206130cc833981519152546001600160a01b0316156123b05760405162461bcd60e51b815260206004820152601b60248201527f7265736f6c766572207265676973746572656420616c726561647900000000006044820152606401610787565b6000805160206130cc83398151915280546001600160a01b0319166001600160a01b0392909216919091179055565b60408051608081018252600080825260208201819052918101829052606081018290528190604051630c72f15960e31b8152734FDe2C2EF703dFe5caaCc1A02ae82FBf4F61F11C906363978ac89061243f908b908a908a90600401612858565b60c06040518083038186803b15801561245757600080fd5b505af415801561246b573d6000803e3d6000fd5b505050506040513d601f19601f8201168201806040525081019061248f9190612eb1565b909450925090506001600160a01b0387167fc04a2a96be20651da4fad0b7590bfd81e9bff0ad9c86556c936423baaf1e3e80896124ca611f76565b546124d3611f76565b600301546124e1878c612e16565b8a896040516124f596959493929190613082565b60405180910390a26040810151156125205761251e600189600181111561150957611509612820565b505b60008211801561252f57508415155b8015612539575083155b15611c4f5761254d888884886000806121e7565b50509550959350505050565b6000612564826125b3565b92915050565b60005460ff166107985760405162461bcd60e51b815260206004820152601460248201527314185d5cd8589b194e881b9bdd081c185d5cd95960621b6044820152606401610787565b60008181527f4abde63c3e81aefa5764b017968bc473e83e093d7e1a10247d19e0a3e41240196020908152604080832054815170026b4b9b9b4b7339030b2323932b9b99d1607d1b9381019390935260318084018690528251808503909101815260519093019091526001600160a01b031690816118135760405162461bcd60e51b815260040161078791906130b8565b6001600160a01b038116811461265957600080fd5b50565b60006020828403121561266e57600080fd5b81356108a981612644565b6002811061265957600080fd5b6000806040838503121561269957600080fd5b82356126a481612679565b946020939093013593505050565b600080600080608085870312156126c857600080fd5b84356126d381612679565b935060208501356126e381612644565b93969395505050506040820135916060013590565b6020808252825182820181905260009190848201906040850190845b8181101561273057835183529284019291840191600101612714565b50909695505050505050565b60006020828403121561274e57600080fd5b5035919050565b600081518084526020808501945080840160005b8381101561278557815187529582019590820190600101612769565b509495945050505050565b6060815260006127a36060830186612755565b82810360208401526127b58186612755565b905082810360408401526127c98185612755565b9695505050505050565b65ffffffffffff8116811461265957600080fd5b600080604083850312156127fa57600080fd5b823561280581612644565b91506020830135612815816127d3565b809150509250929050565b634e487b7160e01b600052602160045260246000fd5b6002811061285457634e487b7160e01b600052602160045260246000fd5b9052565b606081016128668286612836565b602082019390935260400152919050565b60006020828403121561288957600080fd5b81356108a9816127d3565b60c081016128a28289612836565b602082019690965260408101949094526001600160a01b03929092166060840152608083015260a090910152919050565b600080604083850312156128e657600080fd5b50508035926020909101359150565b600081518084526020808501945080840160005b8381101561278557815165ffffffffffff1687529582019590820190600101612909565b6020815260006108a960208301846128f5565b6000806000806080858703121561295657600080fd5b843561296181612644565b966020860135965060408601359560600135945092505050565b600080600080600060a0868803121561299357600080fd5b853561299e81612679565b945060208601356129ae81612644565b93506040860135925060608601359150608086013580151581146129d157600080fd5b809150509295509295909350565b634e487b7160e01b600052604160045260246000fd5b604051601f8201601f1916810167ffffffffffffffff81118282101715612a1e57612a1e6129df565b604052919050565b600067ffffffffffffffff821115612a4057612a406129df565b5060051b60200190565b600082601f830112612a5b57600080fd5b81516020612a70612a6b83612a26565b6129f5565b82815260059290921b84018101918181019086841115612a8f57600080fd5b8286015b84811015612ab3578051612aa6816127d3565b8352918301918301612a93565b509695505050505050565b60008060008060808587031215612ad457600080fd5b845167ffffffffffffffff811115612aeb57600080fd5b612af787828801612a4a565b6020870151604088015160609098015191999098509095509350505050565b606081526000612b2960608301866128f5565b9050612b386020830185612836565b826040830152949350505050565b60208082526017908201527f4f6e6c7920416363657074656420436f6e747261637473000000000000000000604082015260600190565b600060208284031215612b8f57600080fd5b5051919050565b60408101612ba48285612836565b8260208301529392505050565b634e487b7160e01b600052603260045260246000fd5b6000815180845260005b81811015612bed57602081850181015186830182015201612bd1565b81811115612bff576000602083870101525b50601f01601f19169290920160200192915050565b828152604060208201526000612c2d6040830184612bc7565b949350505050565b600060208284031215612c4757600080fd5b81516108a981612644565b634e487b7160e01b600052601160045260246000fd5b6000600019821415612c7c57612c7c612c52565b5060010190565b600082601f830112612c9457600080fd5b81516020612ca4612a6b83612a26565b82815260059290921b84018101918181019086841115612cc357600080fd5b8286015b84811015612ab35780518352918301918301612cc7565b600080600060608486031215612cf357600080fd5b835167ffffffffffffffff80821115612d0b57600080fd5b612d1787838801612c83565b94506020860151915080821115612d2d57600080fd5b612d3987838801612c83565b93506040860151915080821115612d4f57600080fd5b50612d5c86828701612c83565b9150509250925092565b600080600060608486031215612d7b57600080fd5b8351612d8681612679565b602085015160409095015190969495509392505050565b65ffffffffffff8716815260c08101612db96020830188612836565b8560408301528460608301528360808301528260a0830152979650505050505050565b60008219821115612def57612def612c52565b500190565b600082612e1157634e487b7160e01b600052601260045260246000fd5b500490565b600082821015612e2857612e28612c52565b500390565b60008060008060008060c08789031215612e4657600080fd5b8651612e5181612679565b8096505060208701519450604087015193506060870151612e7181612644565b809350506080870151915060a087015190509295509295509295565b60008060408385031215612ea057600080fd5b505080516020909101519092909150565b600080600083850360c0811215612ec757600080fd5b6080811215612ed557600080fd5b506040516080810181811067ffffffffffffffff82111715612ef957612ef96129df565b6040528451612f07816127d3565b81526020850151612f1781612644565b60208201526040858101519082015260608086015190820152608085015160a09095015190969495509392505050565b60008060408385031215612f5a57600080fd5b825167ffffffffffffffff80821115612f7257600080fd5b612f7e86838701612a4a565b93506020850151915080821115612f9457600080fd5b50612fa185828601612a4a565b9150509250929050565b60008060008060808587031215612fc157600080fd5b505082516020840151604085015160609095015191969095509092509050565b60a08101612fef8288612836565b6001600160a01b03959095166020820152604081019390935260608301919091521515608090910152919050565b60006020828403121561302f57600080fd5b81516108a9816127d3565b65ffffffffffff88811682528716602082015260e0810161305e6040830188612836565b8560608301528460808301528360a08301528260c083015298975050505050505050565b60c081016130908289612836565b602082019690965260408101949094526060840192909252608083015260a090910152919050565b6020815260006108a96020830184612bc756fe4abde63c3e81aefa5764b017968bc473e83e093d7e1a10247d19e0a3e4124018a26469706673582212201a9f3e111e12809ddd0835d2a49f9b935bfe56d841dea1322b90d137342f51a864736f6c63430008090033",
  "deployedBytecode": "0x608060405234801561001057600080fd5b50600436106102115760003560e01c80637c6cd94d11610125578063cd4a1c14116100ad578063e16695b51161007c578063e16695b51461044b578063e3d904d814610453578063e7df768c14610486578063eebc28f914610499578063f1be1679146104ac57600080fd5b8063cd4a1c1414610408578063d866d35514610430578063e0997659146102e9578063e0dbc76e1461044357600080fd5b806386e613a0116100f457806386e613a0146103b25780639d652907146103c5578063a03738dc146103cd578063a452c3f8146103d5578063b7c1d527146103f557600080fd5b80637c6cd94d146103755780637ce219aa1461037d5780637e706938146103a25780637f2b6a0d146103aa57600080fd5b80633d03b9da116101a85780635e0b54da116101775780635e0b54da1461034d578063692aa97e146103555780636945c1fd1461035d5780636a2c42741461036557806371613c2d1461036d57600080fd5b80633d03b9da146102e95780634bf62d16146102fe578063504b89bd146103205780635c975abb1461034257600080fd5b80631e007d1d116101e45780631e007d1d146102a357806328378aab146102b657806329985e5a146102c95780632af64bd3146102d157600080fd5b806304f3bcec146102165780630a2db1921461023b5780631610c7ce146102835780631b3508b71461028d575b600080fd5b61021e610500565b6040516001600160a01b0390911681526020015b60405180910390f35b61024e61024936600461265c565b610521565b604080519788526020880196909652948601939093526060850191909152608084015260a083015260c082015260e001610232565b61028b610762565b005b61029561079a565b604051908152602001610232565b6102956102b1366004612686565b61081d565b61028b6102c43660046126b2565b6108b0565b61028b6109d4565b6102d9610b81565b6040519015158152602001610232565b6102f1610ce7565b60405161023291906126f8565b61031161030c36600461273c565b610d4c565b60405161023293929190612790565b61033361032e3660046127e7565b610deb565b60405161023293929190612858565b60005460ff166102d9565b610295610fdd565b6102d9611023565b61029561107e565b61029561108e565b6102956110bd565b6102d96111db565b61039061038b366004612877565b611221565b60405161023296959493929190612894565b61028b6112cc565b6102d961160b565b6102956103c03660046128d3565b611621565b6102d96116fb565b61028b611753565b6103e86103e336600461265c565b611780565b604051610232919061292d565b61028b610403366004612940565b61181a565b61041b61041636600461297b565b611a26565b60408051928352602083019190915201610232565b61031161043e36600461273c565b611c5a565b610295611c98565b610295611cab565b61046661046136600461265c565b611cbe565b604080519485526020850193909352918301526060820152608001610232565b61046661049436600461265c565b611d62565b6103e86104a736600461265c565b611dab565b6104b4611dee565b6040516102329190600060c082019050825182526020830151602083015260408301516040830152606083015160608301526080830151608083015260a083015160a083015292915050565b60006000805160206130cc8339815191525b546001600160a01b0316919050565b6000806000806000806000610534611f76565b6001600160a01b038916600081815260089290920160205260409182902054915163914551f160e01b8152600481019190915260248101829052909150606090819073__$a34264682c70740163cb4ccc2812b693c5$__9063914551f19060440160006040518083038186803b1580156105ad57600080fd5b505af41580156105c1573d6000803e3d6000fd5b505050506040513d6000823e601f3d908101601f191682016040526105e99190810190612abe565b604051634a53967b60e01b81526001600160a01b038f16600482015260248101889052929c50909950965090925073__$a34264682c70740163cb4ccc2812b693c5$__90634a53967b9060440160006040518083038186803b15801561064e57600080fd5b505af4158015610662573d6000803e3d6000fd5b505050506040513d6000823e601f3d908101601f1916820160405261068a9190810190612abe565b919a5097509450905084156106f4576106a1611f76565b546001600160a01b038b167ffba0ebcbd5c3adaf135b8956666cd643ded961350fd5a61526d7fb0c637f709c8460006106d8611f76565b600301546040516106eb93929190612b16565b60405180910390a35b831561075557610702611f76565b546001600160a01b038b167ffba0ebcbd5c3adaf135b8956666cd643ded961350fd5a61526d7fb0c637f709c836001610739611f76565b6003015460405161074c93929190612b16565b60405180910390a35b5050919395979092949650565b61076b33611f9a565b6107905760405162461bcd60e51b815260040161078790612b46565b60405180910390fd5b610798612014565b565b600073__$a34264682c70740163cb4ccc2812b693c5$__63e2afb0416040518163ffffffff1660e01b815260040160206040518083038186803b1580156107e057600080fd5b505af41580156107f4573d6000803e3d6000fd5b505050506040513d601f19601f820116820180604052508101906108189190612b7d565b905090565b604051637d3093d560e11b815260009073__$a34264682c70740163cb4ccc2812b693c5$__9063fa6127aa906108599086908690600401612b96565b60206040518083038186803b15801561087157600080fd5b505af4158015610885573d6000803e3d6000fd5b505050506040513d601f19601f820116820180604052508101906108a99190612b7d565b9392505050565b6108b8612066565b6108c133611f9a565b6108dd5760405162461bcd60e51b815260040161078790612b46565b6108e56111db565b6109315760405162461bcd60e51b815260206004820152601b60248201527f4e6f7420696e20746865207072652d6f7264657220706572696f6400000000006044820152606401610787565b6000821161097c5760405162461bcd60e51b815260206004820152601860248201527710d85b89dd081c1b1858d948195b5c1d1e48185b5bdd5b9d60421b6044820152606401610787565b610985836120ac565b6000610996858585856000806121e7565b905060016109a2611f76565b65ffffffffffff929092166000908152600a9092016020526040909120805460ff191691151591909117905550505050565b60006109de610ce7565b905060005b8151811015610b7d576000828281518110610a0057610a00612bb1565b602002602001015190506000610a216000805160206130cc83398151915290565b54604080517f5265736f6c766572206d697373696e67207461726765743a200000000000000060208201526039808201869052825180830390910181526059820192839052636795dbcd60e01b9092526001600160a01b0390921691636795dbcd91610a9291869190605d01612c14565b60206040518083038186803b158015610aaa57600080fd5b505afa158015610abe573d6000803e3d6000fd5b505050506040513d601f19601f82011682018060405250810190610ae29190612c35565b60008381527f4abde63c3e81aefa5764b017968bc473e83e093d7e1a10247d19e0a3e4124019602090815260409182902080546001600160a01b0319166001600160a01b03851690811790915582518681529182015281519293507f88a93678a3692f6789d9546fc621bf7234b101ddb7d4fe479455112831b8aa68929081900390910190a150508080610b7590612c68565b9150506109e3565b5050565b600080610b8c610ce7565b905060005b8151811015610cde576000828281518110610bae57610bae612bb1565b60200260200101519050610bcd6000805160206130cc83398151915290565b600082815260019190910160205260409020546001600160a01b03166000805160206130cc833981519152546040516321f8a72160e01b8152600481018490526001600160a01b03909116906321f8a7219060240160206040518083038186803b158015610c3a57600080fd5b505afa158015610c4e573d6000803e3d6000fd5b505050506040513d601f19601f82011682018060405250810190610c729190612c35565b6001600160a01b0316141580610cbc575060008181527f4abde63c3e81aefa5764b017968bc473e83e093d7e1a10247d19e0a3e412401960205260409020546001600160a01b0316155b15610ccb576000935050505090565b5080610cd681612c68565b915050610b91565b50600191505090565b604080516001808252818301909252606091602080830190803683370190505090507f4c656e64696e674d61726b6574436f6e74726f6c6c657200000000000000000081600081518110610d3d57610d3d612bb1565b60200260200101818152505090565b606080606073__$a34264682c70740163cb4ccc2812b693c5$__634bf62d16856040518263ffffffff1660e01b8152600401610d8a91815260200190565b60006040518083038186803b158015610da257600080fd5b505af4158015610db6573d6000803e3d6000fd5b505050506040513d6000823e601f3d908101601f19168201604052610dde9190810190612cde565b9250925092509193909250565b600080600084846000610dfd82611221565b509094505050506001600160a01b03821615159050610e505760405162461bcd60e51b815260206004820152600f60248201526e13dc99195c881b9bdd08199bdd5b99608a1b6044820152606401610787565b806001600160a01b0316836001600160a01b031614610eb15760405162461bcd60e51b815260206004820152601760248201527f43616c6c6572206973206e6f7420746865206d616b65720000000000000000006044820152606401610787565b610eb9612066565b610ec233611f9a565b610ede5760405162461bcd60e51b815260040161078790612b46565b604051636c5db84360e01b81526001600160a01b038916600482015265ffffffffffff8816602482015273__$a34264682c70740163cb4ccc2812b693c5$__90636c5db8439060440160606040518083038186803b158015610f3f57600080fd5b505af4158015610f53573d6000803e3d6000fd5b505050506040513d601f19601f82011682018060405250810190610f779190612d66565b91975095509350337f8a73e656799f8fbd4ea08e9420225176f98f85ef9a2a11a5a011580b65c8f1458888610faa611f76565b54610fb3611f76565b600301548a8a604051610fcb96959493929190612d9d565b60405180910390a25050509250925092565b600073__$a34264682c70740163cb4ccc2812b693c5$__63614152b96040518163ffffffff1660e01b815260040160206040518083038186803b1580156107e057600080fd5b600061102d611f76565b600501600061103a611f76565b60030154815260208101919091526040016000205460ff168015611063575061106161160b565b155b80156108185750611072611f76565b60020154421015905090565b6000611088611f76565b54919050565b6000611098611f76565b60040160006110a5611f76565b60030154815260200190815260200160002054905090565b60008073__$a34264682c70740163cb4ccc2812b693c5$__63614152b96040518163ffffffff1660e01b815260040160206040518083038186803b15801561110457600080fd5b505af4158015611118573d6000803e3d6000fd5b505050506040513d601f19601f8201168201806040525081019061113c9190612b7d565b9050600073__$a34264682c70740163cb4ccc2812b693c5$__63e2afb0416040518163ffffffff1660e01b815260040160206040518083038186803b15801561118457600080fd5b505af4158015611198573d6000803e3d6000fd5b505050506040513d601f19601f820116820180604052508101906111bc9190612b7d565b905060026111ca8284612ddc565b6111d49190612df4565b9250505090565b60006202a3006111e9611f76565b600201546111f79190612e16565b42101580156108185750610e1061120c611f76565b6002015461121a9190612e16565b4210905090565b604051633e710cd560e11b815265ffffffffffff821660048201526000908190819081908190819073__$a34264682c70740163cb4ccc2812b693c5$__90637ce219aa9060240160c06040518083038186803b15801561128057600080fd5b505af4158015611294573d6000803e3d6000fd5b505050506040513d601f19601f820116820180604052508101906112b89190612e2d565b949c939b5091995097509550909350915050565b6002600154141561131f5760405162461bcd60e51b815260206004820152601f60248201527f5265656e7472616e637947756172643a207265656e7472616e742063616c6c006044820152606401610787565b600260015561132c612066565b6113346116fb565b6113805760405162461bcd60e51b815260206004820152601960248201527f4e6f7420696e2074686520497461796f736520706572696f64000000000000006044820152606401610787565b60008073__$a34264682c70740163cb4ccc2812b693c5$__636a2c42746040518163ffffffff1660e01b8152600401604080518083038186803b1580156113c657600080fd5b505af41580156113da573d6000803e3d6000fd5b505050506040513d601f19601f820116820180604052508101906113fe9190612e8d565b9092509050801561159e57604080518082019091526000808252600160208301525b600281101561154657600073__$a34264682c70740163cb4ccc2812b693c5$__6363978ac884846002811061145757611457612bb1565b60200201518660006040518463ffffffff1660e01b815260040161147d93929190612858565b60c06040518083038186803b15801561149557600080fd5b505af41580156114a9573d6000803e3d6000fd5b505050506040513d601f19601f820116820180604052508101906114cd9190612eb1565b50506040810151909150156115335761153160018484600281106114f3576114f3612bb1565b6020020151600181111561150957611509612820565b14611515576001611518565b60005b60208301516040840151606085015185516001906121e7565b505b508061153e81612c68565b915050611420565b507fdb070045d659ddca1851a8cf1181cfd454167280ce233e2411721eda429248ff611570611f76565b54611579611f76565b60030154604080519283526020830191909152810185905260600160405180910390a1505b60016115a8611f76565b60050160006115b5611f76565b6003015481526020810191909152604001600020805460ff1916911515919091179055816115e1611f76565b60040160006115ee611f76565b600301548152602081019190915260400160002055505060018055565b6000611615611f76565b60030154421015905090565b600061162b61160b565b61166f5760405162461bcd60e51b815260206004820152601560248201527413585c9ad95d081a5cc81b9bdd081b585d1d5c9959605a1b6044820152606401610787565b61167833611f9a565b6116945760405162461bcd60e51b815260040161078790612b46565b61169c611f76565b600301549050826116ab611f76565b60030155816116b8611f76565b6002015560408051848152602081018390527ffa1e4c93514398092ad307a4842a760bacdd4ff71b27d486bcdc636d9249db34910160405180910390a192915050565b6000610e10611708611f76565b600201546117169190612e16565b42101580156108185750611728611f76565b6005016000611735611f76565b60030154815260208101919091526040016000205460ff1615905090565b61175c33611f9a565b6117785760405162461bcd60e51b815260040161078790612b46565b6107986122e5565b60405163148a587f60e31b81526001600160a01b038216600482015260609073__$a34264682c70740163cb4ccc2812b693c5$__9063a452c3f8906024015b60006040518083038186803b1580156117d757600080fd5b505af41580156117eb573d6000803e3d6000fd5b505050506040513d6000823e601f3d908101601f191682016040526118139190810190612f47565b5092915050565b60005462010000900460ff161580801561183f5750600054600161010090910460ff16105b8061185f5750303b15801561185f575060005460ff610100909104166001145b6118c25760405162461bcd60e51b815260206004820152602e60248201527f496e697469616c697a61626c653a20636f6e747261637420697320616c72656160448201526d191e481a5b9a5d1a585b1a5e995960921b6064820152608401610787565b6000805461ff00191661010017905580156118e9576000805462ff00001916620100001790555b60006118f3612322565b6001600160a01b031614156119565760405162461bcd60e51b815260206004820152602360248201527f4d7573742062652063616c6c65642066726f6d20626561636f6e20636f6e74726044820152621858dd60ea1b6064820152608401610787565b61195f8561234a565b83611968611f76565b5582611972611f76565b600301558161197f611f76565b6002015561198f610e1083612e16565b42106119d057600161199f611f76565b60050160006119ac611f76565b6003015481526020810191909152604001600020805460ff19169115159190911790555b6119d86109d4565b8015611a1f576000805462ff000019169055604051600181527f7f26b83ff96e1f2b6a682f133852f6798a09c465da95921460cefb38474024989060200160405180910390a15b5050505050565b600080611a31612066565b611a3a33611f9a565b611a565760405162461bcd60e51b815260040161078790612b46565b611a5e611023565b611aa15760405162461bcd60e51b815260206004820152601460248201527313585c9ad95d081a5cc81b9bdd081bdc195b995960621b6044820152606401610787565b60008511611aec5760405162461bcd60e51b815260206004820152601860248201527710d85b89dd081c1b1858d948195b5c1d1e48185b5bdd5b9d60421b6044820152606401610787565b611af5866120ac565b6000841580611c1c57506000886001811115611b1357611b13612820565b14611b9c578473__$a34264682c70740163cb4ccc2812b693c5$__63e2afb0416040518163ffffffff1660e01b815260040160206040518083038186803b158015611b5d57600080fd5b505af4158015611b71573d6000803e3d6000fd5b505050506040513d601f19601f82011682018060405250810190611b959190612b7d565b1015611c1c565b8473__$a34264682c70740163cb4ccc2812b693c5$__63614152b96040518163ffffffff1660e01b815260040160206040518083038186803b158015611be157600080fd5b505af4158015611bf5573d6000803e3d6000fd5b505050506040513d601f19601f82011682018060405250810190611c199190612b7d565b11155b90508015611c3b57611c3188888888886123df565b9093509150611c4f565b611c4a888888886000806121e7565b508591505b509550959350505050565b606080606073__$a34264682c70740163cb4ccc2812b693c5$__63d866d355856040518263ffffffff1660e01b8152600401610d8a91815260200190565b6000611ca2611f76565b60020154905090565b6000611cb5611f76565b60030154905090565b604051631c7b209b60e31b81526001600160a01b038216600482015260009081908190819073__$a34264682c70740163cb4ccc2812b693c5$__9063e3d904d8906024015b60806040518083038186803b158015611d1b57600080fd5b505af4158015611d2f573d6000803e3d6000fd5b505050506040513d601f19601f82011682018060405250810190611d539190612fab565b93509350935093509193509193565b6040516339f7dda360e21b81526001600160a01b038216600482015260009081908190819073__$a34264682c70740163cb4ccc2812b693c5$__9063e7df768c90602401611d03565b60405163eebc28f960e01b81526001600160a01b038216600482015260609073__$a34264682c70740163cb4ccc2812b693c5$__9063eebc28f9906024016117bf565b611e2a6040518060c001604052806000801916815260200160008152602001600081526020016000815260200160008152602001600081525090565b6040518060c00160405280611e3d611f76565b548152602001611e4b611f76565b600301548152602001611e5c611f76565b60020154815260200173__$a34264682c70740163cb4ccc2812b693c5$__63614152b96040518163ffffffff1660e01b815260040160206040518083038186803b158015611ea957600080fd5b505af4158015611ebd573d6000803e3d6000fd5b505050506040513d601f19601f82011682018060405250810190611ee19190612b7d565b815260200173__$a34264682c70740163cb4ccc2812b693c5$__63e2afb0416040518163ffffffff1660e01b815260040160206040518083038186803b158015611f2a57600080fd5b505af4158015611f3e573d6000803e3d6000fd5b505050506040513d601f19601f82011682018060405250810190611f629190612b7d565b8152602001611f6f6110bd565b9052919050565b7ffc2836757f9146445fc75bc3c897a210ec004e4ee60fc8627ef5cbf2842b3d0a90565b600080611fa5610ce7565b905060005b815181101561200a57611fd5828281518110611fc857611fc8612bb1565b6020026020010151612559565b6001600160a01b0316846001600160a01b03161415611ff8575060019392505050565b8061200281612c68565b915050611faa565b5060009392505050565b61201c61256a565b6000805460ff191690557f5db9ee0a495bf2e6ff9c91a7834c1ba4fdd244a5e8aa4e537bd38aeae4b073aa335b6040516001600160a01b03909116815260200160405180910390a1565b60005460ff16156107985760405162461bcd60e51b815260206004820152601060248201526f14185d5cd8589b194e881c185d5cd95960821b6044820152606401610787565b60006120b6611f76565b6001600160a01b0383166000908152600891909101602052604090205490506120dd611f76565b6003015481148061215457506120f1611f76565b6003015481141580156121265750612107611f76565b6001600160a01b03831660009081526006919091016020526040902054155b80156121545750612135611f76565b6001600160a01b03831660009081526007919091016020526040902054155b6121a05760405162461bcd60e51b815260206004820152601d60248201527f4f7264657220666f756e6420696e2070617374206d617475726974792e0000006044820152606401610787565b6121a8611f76565b600301548114610b7d576121ba611f76565b600301546121c6611f76565b6001600160a01b038416600090815260089190910160205260409020555050565b604051631b4269f560e11b815260009073__$a34264682c70740163cb4ccc2812b693c5$__90633684d3ea90612229908a908a908a908a908a90600401612fe1565b60206040518083038186803b15801561224157600080fd5b505af4158015612255573d6000803e3d6000fd5b505050506040513d601f19601f82011682018060405250810190612279919061301d565b9050856001600160a01b03167f0e334d2db0839cda8370e6b1f20682e64bbd2be77e8a2f8a3c55f99b868142ba82848a6122b1611f76565b546122ba611f76565b600301548b8b6040516122d3979695949392919061303a565b60405180910390a29695505050505050565b6122ed612066565b6000805460ff191660011790557f62e78cea01bee320cd4e420270b5ea74000d11b0c9f74754ebdbfc544b05a2586120493390565b60007fa3f0ad74e5423aebfd80d3ef4346578335a9a72aeaee59ff6cb3582b35133d50610512565b6000805160206130cc833981519152546001600160a01b0316156123b05760405162461bcd60e51b815260206004820152601b60248201527f7265736f6c766572207265676973746572656420616c726561647900000000006044820152606401610787565b6000805160206130cc83398151915280546001600160a01b0319166001600160a01b0392909216919091179055565b60408051608081018252600080825260208201819052918101829052606081018290528190604051630c72f15960e31b815273__$a34264682c70740163cb4ccc2812b693c5$__906363978ac89061243f908b908a908a90600401612858565b60c06040518083038186803b15801561245757600080fd5b505af415801561246b573d6000803e3d6000fd5b505050506040513d601f19601f8201168201806040525081019061248f9190612eb1565b909450925090506001600160a01b0387167fc04a2a96be20651da4fad0b7590bfd81e9bff0ad9c86556c936423baaf1e3e80896124ca611f76565b546124d3611f76565b600301546124e1878c612e16565b8a896040516124f596959493929190613082565b60405180910390a26040810151156125205761251e600189600181111561150957611509612820565b505b60008211801561252f57508415155b8015612539575083155b15611c4f5761254d888884886000806121e7565b50509550959350505050565b6000612564826125b3565b92915050565b60005460ff166107985760405162461bcd60e51b815260206004820152601460248201527314185d5cd8589b194e881b9bdd081c185d5cd95960621b6044820152606401610787565b60008181527f4abde63c3e81aefa5764b017968bc473e83e093d7e1a10247d19e0a3e41240196020908152604080832054815170026b4b9b9b4b7339030b2323932b9b99d1607d1b9381019390935260318084018690528251808503909101815260519093019091526001600160a01b031690816118135760405162461bcd60e51b815260040161078791906130b8565b6001600160a01b038116811461265957600080fd5b50565b60006020828403121561266e57600080fd5b81356108a981612644565b6002811061265957600080fd5b6000806040838503121561269957600080fd5b82356126a481612679565b946020939093013593505050565b600080600080608085870312156126c857600080fd5b84356126d381612679565b935060208501356126e381612644565b93969395505050506040820135916060013590565b6020808252825182820181905260009190848201906040850190845b8181101561273057835183529284019291840191600101612714565b50909695505050505050565b60006020828403121561274e57600080fd5b5035919050565b600081518084526020808501945080840160005b8381101561278557815187529582019590820190600101612769565b509495945050505050565b6060815260006127a36060830186612755565b82810360208401526127b58186612755565b905082810360408401526127c98185612755565b9695505050505050565b65ffffffffffff8116811461265957600080fd5b600080604083850312156127fa57600080fd5b823561280581612644565b91506020830135612815816127d3565b809150509250929050565b634e487b7160e01b600052602160045260246000fd5b6002811061285457634e487b7160e01b600052602160045260246000fd5b9052565b606081016128668286612836565b602082019390935260400152919050565b60006020828403121561288957600080fd5b81356108a9816127d3565b60c081016128a28289612836565b602082019690965260408101949094526001600160a01b03929092166060840152608083015260a090910152919050565b600080604083850312156128e657600080fd5b50508035926020909101359150565b600081518084526020808501945080840160005b8381101561278557815165ffffffffffff1687529582019590820190600101612909565b6020815260006108a960208301846128f5565b6000806000806080858703121561295657600080fd5b843561296181612644565b966020860135965060408601359560600135945092505050565b600080600080600060a0868803121561299357600080fd5b853561299e81612679565b945060208601356129ae81612644565b93506040860135925060608601359150608086013580151581146129d157600080fd5b809150509295509295909350565b634e487b7160e01b600052604160045260246000fd5b604051601f8201601f1916810167ffffffffffffffff81118282101715612a1e57612a1e6129df565b604052919050565b600067ffffffffffffffff821115612a4057612a406129df565b5060051b60200190565b600082601f830112612a5b57600080fd5b81516020612a70612a6b83612a26565b6129f5565b82815260059290921b84018101918181019086841115612a8f57600080fd5b8286015b84811015612ab3578051612aa6816127d3565b8352918301918301612a93565b509695505050505050565b60008060008060808587031215612ad457600080fd5b845167ffffffffffffffff811115612aeb57600080fd5b612af787828801612a4a565b6020870151604088015160609098015191999098509095509350505050565b606081526000612b2960608301866128f5565b9050612b386020830185612836565b826040830152949350505050565b60208082526017908201527f4f6e6c7920416363657074656420436f6e747261637473000000000000000000604082015260600190565b600060208284031215612b8f57600080fd5b5051919050565b60408101612ba48285612836565b8260208301529392505050565b634e487b7160e01b600052603260045260246000fd5b6000815180845260005b81811015612bed57602081850181015186830182015201612bd1565b81811115612bff576000602083870101525b50601f01601f19169290920160200192915050565b828152604060208201526000612c2d6040830184612bc7565b949350505050565b600060208284031215612c4757600080fd5b81516108a981612644565b634e487b7160e01b600052601160045260246000fd5b6000600019821415612c7c57612c7c612c52565b5060010190565b600082601f830112612c9457600080fd5b81516020612ca4612a6b83612a26565b82815260059290921b84018101918181019086841115612cc357600080fd5b8286015b84811015612ab35780518352918301918301612cc7565b600080600060608486031215612cf357600080fd5b835167ffffffffffffffff80821115612d0b57600080fd5b612d1787838801612c83565b94506020860151915080821115612d2d57600080fd5b612d3987838801612c83565b93506040860151915080821115612d4f57600080fd5b50612d5c86828701612c83565b9150509250925092565b600080600060608486031215612d7b57600080fd5b8351612d8681612679565b602085015160409095015190969495509392505050565b65ffffffffffff8716815260c08101612db96020830188612836565b8560408301528460608301528360808301528260a0830152979650505050505050565b60008219821115612def57612def612c52565b500190565b600082612e1157634e487b7160e01b600052601260045260246000fd5b500490565b600082821015612e2857612e28612c52565b500390565b60008060008060008060c08789031215612e4657600080fd5b8651612e5181612679565b8096505060208701519450604087015193506060870151612e7181612644565b809350506080870151915060a087015190509295509295509295565b60008060408385031215612ea057600080fd5b505080516020909101519092909150565b600080600083850360c0811215612ec757600080fd5b6080811215612ed557600080fd5b506040516080810181811067ffffffffffffffff82111715612ef957612ef96129df565b6040528451612f07816127d3565b81526020850151612f1781612644565b60208201526040858101519082015260608086015190820152608085015160a09095015190969495509392505050565b60008060408385031215612f5a57600080fd5b825167ffffffffffffffff80821115612f7257600080fd5b612f7e86838701612a4a565b93506020850151915080821115612f9457600080fd5b50612fa185828601612a4a565b9150509250929050565b60008060008060808587031215612fc157600080fd5b505082516020840151604085015160609095015191969095509092509050565b60a08101612fef8288612836565b6001600160a01b03959095166020820152604081019390935260608301919091521515608090910152919050565b60006020828403121561302f57600080fd5b81516108a9816127d3565b65ffffffffffff88811682528716602082015260e0810161305e6040830188612836565b8560608301528460808301528360a08301528260c083015298975050505050505050565b60c081016130908289612836565b602082019690965260408101949094526060840192909252608083015260a090910152919050565b6020815260006108a96020830184612bc756fe4abde63c3e81aefa5764b017968bc473e83e093d7e1a10247d19e0a3e4124018a26469706673582212201a9f3e111e12809ddd0835d2a49f9b935bfe56d841dea1322b90d137342f51a864736f6c63430008090033",
  "libraries": {
    "OrderBookLogic": "0x4FDe2C2EF703dFe5caaCc1A02ae82FBf4F61F11C"
  },
  "devdoc": {
    "details": "The market orders is stored in structured red-black trees and doubly linked lists in each node.",
    "kind": "dev",
    "methods": {
      "acceptedContracts()": {
        "details": "The contact name listed in this method is also needed to be listed `requiredContracts` method."
      },
      "cancelOrder(address,uint48)": {
        "params": {
          "_orderId": "Market order id",
          "_user": "User address"
        },
        "returns": {
          "removedAmount": "The removed order amount from the order book by canceling",
          "side": "The canceled order position type",
          "unitPrice": "The canceled order unit price"
        }
      },
      "cleanOrders(address)": {
        "details": "The order list per user is not updated in real-time when an order is filled. This function removes the filled order from that order list per user to reduce gas costs for calculating if the collateral is enough or not.",
        "params": {
          "_user": "User address"
        },
        "returns": {
          "activeBorrowOrderCount": "The total amount of active borrow order on the order book",
          "activeLendOrderCount": "The total amount of active lend order on the order book",
          "maturity": "The maturity of the removed orders",
          "removedBorrowOrderAmount": "The total PV amount of the removed borrow order amount from the order book",
          "removedBorrowOrderFutureValue": "The total FV amount of the removed borrow order amount from the order book",
          "removedLendOrderAmount": "The total PV amount of the removed lend order amount from the order book",
          "removedLendOrderFutureValue": "The total FV amount of the removed lend order amount from the order book"
        }
      },
      "createOrder(uint8,address,uint256,uint256,bool)": {
        "params": {
          "_amount": "Amount of funds the maker wants to borrow/lend",
          "_ignoreRemainingAmount": "Boolean for whether to ignore the remaining amount after taking orders",
          "_side": "Order position type, Borrow or Lend",
          "_unitPrice": "Amount of unit price taker wish to borrow/lend",
          "_user": "User's address"
        },
        "returns": {
          "filledFutureValue": "The total FV amount of the filled order amount on the order book",
          "remainingAmount": "The remaining amount that is not filled in the order book"
        }
      },
      "createPreOrder(uint8,address,uint256,uint256)": {
        "params": {
          "_amount": "Amount of funds the maker wants to borrow/lend",
          "_side": "Order position type, Borrow or Lend",
          "_unitPrice": "Amount of unit price taker wish to borrow/lend"
        }
      },
      "estimateFilledAmount(uint8,uint256)": {
        "params": {
          "_futureValue": "Future value amount",
          "_side": "Order position type, Borrow or Lend"
        },
        "returns": {
          "amount": "The estimated amount in the present value that is filled on the order book"
        }
      },
      "executeItayoseCall()": {
        "details": "If the opening date had already passed when this contract was created, this Itayose need not be executed."
      },
      "getActiveBorrowOrderIds(address)": {
        "params": {
          "_user": "User's address"
        }
      },
      "getActiveLendOrderIds(address)": {
        "params": {
          "_user": "User's address"
        }
      },
      "getBorrowOrderBook(uint256)": {
        "params": {
          "_limit": "Max limit to get unit prices"
        },
        "returns": {
          "unitPrices": "The array of borrow unit prices"
        }
      },
      "getBorrowUnitPrice()": {
        "returns": {
          "_0": "The highest borrow price per future value"
        }
      },
      "getCurrency()": {
        "returns": {
          "currency": "The market currency"
        }
      },
      "getLendOrderBook(uint256)": {
        "params": {
          "_limit": "Max limit to get unit prices"
        },
        "returns": {
          "unitPrices": "The array of lending unit prices"
        }
      },
      "getLendUnitPrice()": {
        "returns": {
          "_0": "The lowest lend price per future value"
        }
      },
      "getMarket()": {
        "returns": {
          "market": "The market data"
        }
      },
      "getMaturity()": {
        "returns": {
          "maturity": "The market maturity"
        }
      },
      "getMidUnitPrice()": {
        "returns": {
          "_0": "The mid price per future value"
        }
      },
      "getOrder(uint48)": {
        "params": {
          "_orderId": "The market order id"
        },
        "returns": {
          "amount": "Order amount",
          "maker": "The order maker",
          "maturity": "The maturity of the selected order",
          "side": "Order position type, Borrow or Lend",
          "timestamp": "Timestamp when the order was created",
          "unitPrice": "Amount of interest unit price"
        }
      },
      "getTotalAmountFromBorrowOrders(address)": {
        "params": {
          "_user": "User's address"
        },
        "returns": {
          "activeAmount": "The total amount of active order on the order book",
          "inactiveAmount": "The total amount of inactive orders filled on the order book",
          "inactiveFutureValue": "The total future value amount of inactive orders filled on the order book",
          "maturity": "The maturity of market that orders were placed."
        }
      },
      "getTotalAmountFromLendOrders(address)": {
        "params": {
          "_user": "User's address"
        },
        "returns": {
          "activeAmount": "The total amount of active order on the order book",
          "inactiveAmount": "The total amount of inactive orders filled on the order book",
          "inactiveFutureValue": "The total future value amount of inactive orders filled on the order book",
          "maturity": "The maturity of market that orders were placed."
        }
      },
      "initialize(address,bytes32,uint256,uint256)": {
        "details": "Function is invoked by the proxy contract when the contract is added to the ProxyController.",
        "params": {
          "_ccy": "The main currency for the order book",
          "_maturity": "The initial maturity of the market",
          "_openingDate": "The timestamp when the market opens",
          "_resolver": "The address of the Address Resolver contract"
        }
      },
      "isMatured()": {
        "returns": {
          "_0": "The boolean if the market is matured or not"
        }
      },
      "isOpened()": {
        "returns": {
          "_0": "The boolean if the market is opened or not"
        }
      },
      "openMarket(uint256,uint256)": {
        "params": {
          "_maturity": "The new maturity",
          "_openingDate": "The timestamp when the market opens"
        },
        "returns": {
          "prevMaturity": "The previous maturity updated"
        }
      },
      "paused()": {
        "details": "Returns true if the contract is paused, and false otherwise."
      },
      "requiredContracts()": {
        "details": "The contract name list is in `./libraries/Contracts.sol`."
      }
    },
    "version": 1
  },
  "userdoc": {
    "kind": "user",
    "methods": {
      "acceptedContracts()": {
        "notice": "Returns contract names that can call this contract."
      },
      "cancelOrder(address,uint48)": {
        "notice": "Cancels the order."
      },
      "cleanOrders(address)": {
        "notice": "Cleans own orders to remove order ids that are already filled on the order book."
      },
      "createOrder(uint8,address,uint256,uint256,bool)": {
        "notice": "Creates the order. Takes the order if the order is matched, and places new order if not match it."
      },
      "createPreOrder(uint8,address,uint256,uint256)": {
        "notice": "Creates a pre-order. A pre-order will only be accepted from 48 hours to 1 hour before the market opens (Pre-order period). At the end of this period, Itayose will be executed."
      },
      "estimateFilledAmount(uint8,uint256)": {
        "notice": "Estimates the filled amount at the time of order creation on the order book using the future value amount."
      },
      "executeItayoseCall()": {
        "notice": "Executes Itayose to aggregate pre-orders and determine the opening unit price. After this action, the market opens."
      },
      "getActiveBorrowOrderIds(address)": {
        "notice": "Gets the order ids of active borrowing order on the order book"
      },
      "getActiveLendOrderIds(address)": {
        "notice": "Gets the order ids of active lending order on the order book"
      },
      "getBorrowOrderBook(uint256)": {
        "notice": "Gets the order book of borrow."
      },
      "getBorrowUnitPrice()": {
        "notice": "Gets the highest borrow price per future value."
      },
      "getCurrency()": {
        "notice": "Gets the market currency."
      },
      "getLendOrderBook(uint256)": {
        "notice": "Gets the order book of lend."
      },
      "getLendUnitPrice()": {
        "notice": "Gets the lowest lend price per future value."
      },
      "getMarket()": {
        "notice": "Gets the market data."
      },
      "getMaturity()": {
        "notice": "Gets the current market maturity."
      },
      "getMidUnitPrice()": {
        "notice": "Gets the mid price per future value."
      },
      "getOrder(uint48)": {
        "notice": "Gets the market order from the order book."
      },
      "getTotalAmountFromBorrowOrders(address)": {
        "notice": "Calculates and gets the active and inactive amounts from the user orders of borrowing deals."
      },
      "getTotalAmountFromLendOrders(address)": {
        "notice": "Calculates and gets the active and inactive amounts from the user orders of lending deals."
      },
      "initialize(address,bytes32,uint256,uint256)": {
        "notice": "Initializes the contract."
      },
      "isMatured()": {
        "notice": "Gets if the market is matured."
      },
      "isOpened()": {
        "notice": "Gets if the market is opened."
      },
      "openMarket(uint256,uint256)": {
        "notice": "Opens market"
      },
      "pauseMarket()": {
        "notice": "Pauses the lending market."
      },
      "requiredContracts()": {
        "notice": "Returns the contract names used in this contract."
      },
      "unpauseMarket()": {
        "notice": "Unpauses the lending market."
      }
    },
    "notice": "Implements the module that allows lending market participants to create/cancel market orders, and also provides a future value calculation module. For updates, this contract is basically called from `LendingMarketController.sol`instead of being called \\ directly by the user.",
    "version": 1
  },
  "storageLayout": {
    "storage": [
      {
        "astId": 1345,
        "contract": "contracts/LendingMarket.sol:LendingMarket",
        "label": "_paused",
        "offset": 0,
        "slot": "0",
        "type": "t_bool"
      },
      {
        "astId": 1183,
        "contract": "contracts/LendingMarket.sol:LendingMarket",
        "label": "_initialized",
        "offset": 1,
        "slot": "0",
        "type": "t_uint8"
      },
      {
        "astId": 1186,
        "contract": "contracts/LendingMarket.sol:LendingMarket",
        "label": "_initializing",
        "offset": 2,
        "slot": "0",
        "type": "t_bool"
      },
      {
        "astId": 1446,
        "contract": "contracts/LendingMarket.sol:LendingMarket",
        "label": "_status",
        "offset": 0,
        "slot": "1",
        "type": "t_uint256"
      }
    ],
    "types": {
      "t_bool": {
        "encoding": "inplace",
        "label": "bool",
        "numberOfBytes": "1"
      },
      "t_uint256": {
        "encoding": "inplace",
        "label": "uint256",
        "numberOfBytes": "32"
      },
      "t_uint8": {
        "encoding": "inplace",
        "label": "uint8",
        "numberOfBytes": "1"
      }
    }
  }
}