{
  "address": "0xf651467aecD1A7905efb4Cd35502F16880eE0C23",
  "abi": [
    {
      "inputs": [],
      "name": "ContractLocked",
      "type": "error"
    },
    {
      "anonymous": false,
      "inputs": [
        {
          "indexed": false,
          "internalType": "bytes32",
          "name": "name",
          "type": "bytes32"
        },
        {
          "indexed": false,
          "internalType": "address",
          "name": "destination",
          "type": "address"
        }
      ],
      "name": "CacheUpdated",
      "type": "event"
    },
    {
      "anonymous": false,
      "inputs": [
        {
          "indexed": false,
          "internalType": "uint8",
          "name": "version",
          "type": "uint8"
        }
      ],
      "name": "Initialized",
      "type": "event"
    },
    {
      "anonymous": false,
      "inputs": [
        {
          "indexed": true,
          "internalType": "address",
          "name": "previousOwner",
          "type": "address"
        },
        {
          "indexed": true,
          "internalType": "address",
          "name": "newOwner",
          "type": "address"
        }
      ],
      "name": "OwnershipTransferred",
      "type": "event"
    },
    {
      "inputs": [],
      "name": "acceptedContracts",
      "outputs": [
        {
          "internalType": "bytes32[]",
          "name": "contracts",
          "type": "bytes32[]"
        }
      ],
      "stateMutability": "pure",
      "type": "function"
    },
    {
      "inputs": [],
      "name": "buildCache",
      "outputs": [],
      "stateMutability": "nonpayable",
      "type": "function"
    },
    {
      "inputs": [
        {
          "internalType": "bytes32",
          "name": "_ccy",
          "type": "bytes32"
        },
        {
          "internalType": "address",
          "name": "_user",
          "type": "address"
        }
      ],
      "name": "calculateFunds",
      "outputs": [
        {
          "internalType": "uint256",
          "name": "workingLendOrdersAmount",
          "type": "uint256"
        },
        {
          "internalType": "uint256",
          "name": "claimableAmount",
          "type": "uint256"
        },
        {
          "internalType": "uint256",
          "name": "collateralAmount",
          "type": "uint256"
        },
        {
          "internalType": "uint256",
          "name": "lentAmount",
          "type": "uint256"
        },
        {
          "internalType": "uint256",
          "name": "workingBorrowOrdersAmount",
          "type": "uint256"
        },
        {
          "internalType": "uint256",
          "name": "debtAmount",
          "type": "uint256"
        },
        {
          "internalType": "uint256",
          "name": "borrowedAmount",
          "type": "uint256"
        }
      ],
      "stateMutability": "view",
      "type": "function"
    },
    {
      "inputs": [
        {
          "internalType": "address",
          "name": "_user",
          "type": "address"
        },
        {
          "internalType": "bytes32",
          "name": "_depositCcy",
          "type": "bytes32"
        },
        {
          "internalType": "uint256",
          "name": "_depositAmount",
          "type": "uint256"
        }
      ],
      "name": "calculateTotalFundsInBaseCurrency",
      "outputs": [
        {
          "internalType": "uint256",
          "name": "totalWorkingLendOrdersAmount",
          "type": "uint256"
        },
        {
          "internalType": "uint256",
          "name": "totalClaimableAmount",
          "type": "uint256"
        },
        {
          "internalType": "uint256",
          "name": "totalCollateralAmount",
          "type": "uint256"
        },
        {
          "internalType": "uint256",
          "name": "totalLentAmount",
          "type": "uint256"
        },
        {
          "internalType": "uint256",
          "name": "totalWorkingBorrowOrdersAmount",
          "type": "uint256"
        },
        {
          "internalType": "uint256",
          "name": "totalDebtAmount",
          "type": "uint256"
        },
        {
          "internalType": "uint256",
          "name": "totalBorrowedAmount",
          "type": "uint256"
        },
        {
          "internalType": "bool",
          "name": "isEnoughDeposit",
          "type": "bool"
        }
      ],
      "stateMutability": "view",
      "type": "function"
    },
    {
      "inputs": [
        {
          "internalType": "bytes32",
          "name": "_ccy",
          "type": "bytes32"
        },
        {
          "internalType": "uint256",
          "name": "_maturity",
          "type": "uint256"
        },
        {
          "internalType": "uint48",
          "name": "_orderId",
          "type": "uint48"
        }
      ],
      "name": "cancelOrder",
      "outputs": [
        {
          "internalType": "bool",
          "name": "",
          "type": "bool"
        }
      ],
      "stateMutability": "nonpayable",
      "type": "function"
    },
    {
      "inputs": [
        {
          "internalType": "address",
          "name": "_user",
          "type": "address"
        }
      ],
      "name": "cleanUpAllFunds",
      "outputs": [
        {
          "internalType": "bool",
          "name": "",
          "type": "bool"
        }
      ],
      "stateMutability": "nonpayable",
      "type": "function"
    },
    {
      "inputs": [
        {
          "internalType": "bytes32",
          "name": "_ccy",
          "type": "bytes32"
        },
        {
          "internalType": "address",
          "name": "_user",
          "type": "address"
        }
      ],
      "name": "cleanUpFunds",
      "outputs": [
        {
          "internalType": "uint256",
          "name": "totalActiveOrderCount",
          "type": "uint256"
        }
      ],
      "stateMutability": "nonpayable",
      "type": "function"
    },
    {
      "inputs": [
        {
          "internalType": "bytes32",
          "name": "_ccy",
          "type": "bytes32"
        },
        {
          "internalType": "uint256",
          "name": "_openingDate",
          "type": "uint256"
        }
      ],
      "name": "createLendingMarket",
      "outputs": [],
      "stateMutability": "nonpayable",
      "type": "function"
    },
    {
      "inputs": [
        {
          "internalType": "bytes32",
          "name": "_ccy",
          "type": "bytes32"
        },
        {
          "internalType": "uint256",
          "name": "_maturity",
          "type": "uint256"
        },
        {
          "internalType": "enum ProtocolTypes.Side",
          "name": "_side",
          "type": "uint8"
        },
        {
          "internalType": "uint256",
          "name": "_amount",
          "type": "uint256"
        },
        {
          "internalType": "uint256",
          "name": "_unitPrice",
          "type": "uint256"
        }
      ],
      "name": "createOrder",
      "outputs": [
        {
          "internalType": "bool",
          "name": "",
          "type": "bool"
        }
      ],
      "stateMutability": "nonpayable",
      "type": "function"
    },
    {
      "inputs": [
        {
          "internalType": "bytes32",
          "name": "_ccy",
          "type": "bytes32"
        },
        {
          "internalType": "uint256",
          "name": "_maturity",
          "type": "uint256"
        },
        {
          "internalType": "enum ProtocolTypes.Side",
          "name": "_side",
          "type": "uint8"
        },
        {
          "internalType": "uint256",
          "name": "_amount",
          "type": "uint256"
        },
        {
          "internalType": "uint256",
          "name": "_unitPrice",
          "type": "uint256"
        }
      ],
      "name": "createPreOrder",
      "outputs": [
        {
          "internalType": "bool",
          "name": "",
          "type": "bool"
        }
      ],
      "stateMutability": "nonpayable",
      "type": "function"
    },
    {
      "inputs": [
        {
          "internalType": "bytes32",
          "name": "_ccy",
          "type": "bytes32"
        },
        {
          "internalType": "uint256",
          "name": "_maturity",
          "type": "uint256"
        },
        {
          "internalType": "enum ProtocolTypes.Side",
          "name": "_side",
          "type": "uint8"
        },
        {
          "internalType": "uint256",
          "name": "_amount",
          "type": "uint256"
        },
        {
          "internalType": "uint256",
          "name": "_unitPrice",
          "type": "uint256"
        }
      ],
      "name": "depositAndCreateOrder",
      "outputs": [
        {
          "internalType": "bool",
          "name": "",
          "type": "bool"
        }
      ],
      "stateMutability": "payable",
      "type": "function"
    },
    {
      "inputs": [
        {
          "internalType": "bytes32",
          "name": "_ccy",
          "type": "bytes32"
        },
        {
          "internalType": "uint256",
          "name": "_maturity",
          "type": "uint256"
        },
        {
          "internalType": "enum ProtocolTypes.Side",
          "name": "_side",
          "type": "uint8"
        },
        {
          "internalType": "uint256",
          "name": "_amount",
          "type": "uint256"
        },
        {
          "internalType": "uint256",
          "name": "_unitPrice",
          "type": "uint256"
        }
      ],
      "name": "depositAndCreatePreOrder",
      "outputs": [
        {
          "internalType": "bool",
          "name": "",
          "type": "bool"
        }
      ],
      "stateMutability": "payable",
      "type": "function"
    },
    {
      "inputs": [],
      "name": "executeEmergencyTermination",
      "outputs": [],
      "stateMutability": "nonpayable",
      "type": "function"
    },
    {
      "inputs": [
        {
          "internalType": "bytes32[]",
          "name": "_currencies",
          "type": "bytes32[]"
        },
        {
          "internalType": "uint256",
          "name": "_maturity",
          "type": "uint256"
        }
      ],
      "name": "executeItayoseCalls",
      "outputs": [
        {
          "internalType": "bool",
          "name": "",
          "type": "bool"
        }
      ],
      "stateMutability": "nonpayable",
      "type": "function"
    },
    {
      "inputs": [
        {
          "internalType": "bytes32",
          "name": "_collateralCcy",
          "type": "bytes32"
        },
        {
          "internalType": "bytes32",
          "name": "_debtCcy",
          "type": "bytes32"
        },
        {
          "internalType": "uint256",
          "name": "_debtMaturity",
          "type": "uint256"
        },
        {
          "internalType": "address",
          "name": "_user",
          "type": "address"
        }
      ],
      "name": "executeLiquidationCall",
      "outputs": [
        {
          "internalType": "bool",
          "name": "",
          "type": "bool"
        }
      ],
      "stateMutability": "nonpayable",
      "type": "function"
    },
    {
      "inputs": [],
      "name": "executeRedemption",
      "outputs": [
        {
          "internalType": "bool",
          "name": "",
          "type": "bool"
        }
      ],
      "stateMutability": "nonpayable",
      "type": "function"
    },
    {
      "inputs": [
        {
          "internalType": "bytes32",
          "name": "_ccy",
          "type": "bytes32"
        },
        {
          "internalType": "uint256",
          "name": "_maturity",
          "type": "uint256"
        },
        {
          "internalType": "uint256",
          "name": "_limit",
          "type": "uint256"
        }
      ],
      "name": "getBorrowOrderBook",
      "outputs": [
        {
          "internalType": "uint256[]",
          "name": "unitPrices",
          "type": "uint256[]"
        },
        {
          "internalType": "uint256[]",
          "name": "amounts",
          "type": "uint256[]"
        },
        {
          "internalType": "uint256[]",
          "name": "quantities",
          "type": "uint256[]"
        }
      ],
      "stateMutability": "view",
      "type": "function"
    },
    {
      "inputs": [
        {
          "internalType": "bytes32",
          "name": "_ccy",
          "type": "bytes32"
        }
      ],
      "name": "getBorrowUnitPrices",
      "outputs": [
        {
          "internalType": "uint256[]",
          "name": "",
          "type": "uint256[]"
        }
      ],
      "stateMutability": "view",
      "type": "function"
    },
    {
      "inputs": [
        {
          "internalType": "bytes32",
          "name": "_ccy",
          "type": "bytes32"
        }
      ],
      "name": "getCircuitBreakerLimitRange",
      "outputs": [
        {
          "internalType": "uint256",
          "name": "",
          "type": "uint256"
        }
      ],
      "stateMutability": "view",
      "type": "function"
    },
    {
      "inputs": [
        {
          "internalType": "bytes32",
          "name": "_ccy",
          "type": "bytes32"
        },
        {
          "internalType": "uint256",
          "name": "_maturity",
          "type": "uint256"
        }
      ],
      "name": "getFutureValueVault",
      "outputs": [
        {
          "internalType": "address",
          "name": "",
          "type": "address"
        }
      ],
      "stateMutability": "view",
      "type": "function"
    },
    {
      "inputs": [
        {
          "internalType": "bytes32",
          "name": "_ccy",
          "type": "bytes32"
        }
      ],
      "name": "getGenesisDate",
      "outputs": [
        {
          "internalType": "uint256",
          "name": "",
          "type": "uint256"
        }
      ],
      "stateMutability": "view",
      "type": "function"
    },
    {
      "inputs": [
        {
          "internalType": "bytes32",
          "name": "_ccy",
          "type": "bytes32"
        },
        {
          "internalType": "address",
          "name": "_user",
          "type": "address"
        }
      ],
      "name": "getGenesisValue",
      "outputs": [
        {
          "internalType": "int256",
          "name": "genesisValue",
          "type": "int256"
        }
      ],
      "stateMutability": "view",
      "type": "function"
    },
    {
      "inputs": [
        {
          "internalType": "bytes32",
          "name": "_ccy",
          "type": "bytes32"
        },
        {
          "internalType": "uint256",
          "name": "_maturity",
          "type": "uint256"
        },
        {
          "internalType": "uint256",
          "name": "_limit",
          "type": "uint256"
        }
      ],
      "name": "getLendOrderBook",
      "outputs": [
        {
          "internalType": "uint256[]",
          "name": "unitPrices",
          "type": "uint256[]"
        },
        {
          "internalType": "uint256[]",
          "name": "amounts",
          "type": "uint256[]"
        },
        {
          "internalType": "uint256[]",
          "name": "quantities",
          "type": "uint256[]"
        }
      ],
      "stateMutability": "view",
      "type": "function"
    },
    {
      "inputs": [
        {
          "internalType": "bytes32",
          "name": "_ccy",
          "type": "bytes32"
        }
      ],
      "name": "getLendUnitPrices",
      "outputs": [
        {
          "internalType": "uint256[]",
          "name": "",
          "type": "uint256[]"
        }
      ],
      "stateMutability": "view",
      "type": "function"
    },
    {
      "inputs": [
        {
          "internalType": "bytes32",
          "name": "_ccy",
          "type": "bytes32"
        },
        {
          "internalType": "uint256",
          "name": "_maturity",
          "type": "uint256"
        }
      ],
      "name": "getLendingMarket",
      "outputs": [
        {
          "internalType": "address",
          "name": "",
          "type": "address"
        }
      ],
      "stateMutability": "view",
      "type": "function"
    },
    {
      "inputs": [
        {
          "internalType": "bytes32",
          "name": "_ccy",
          "type": "bytes32"
        }
      ],
      "name": "getLendingMarkets",
      "outputs": [
        {
          "internalType": "address[]",
          "name": "",
          "type": "address[]"
        }
      ],
      "stateMutability": "view",
      "type": "function"
    },
    {
      "inputs": [
        {
          "internalType": "bytes32",
          "name": "_ccy",
          "type": "bytes32"
        }
      ],
      "name": "getMaturities",
      "outputs": [
        {
          "internalType": "uint256[]",
          "name": "",
          "type": "uint256[]"
        }
      ],
      "stateMutability": "view",
      "type": "function"
    },
    {
      "inputs": [
        {
          "internalType": "bytes32",
          "name": "_ccy",
          "type": "bytes32"
        }
      ],
      "name": "getMidUnitPrices",
      "outputs": [
        {
          "internalType": "uint256[]",
          "name": "",
          "type": "uint256[]"
        }
      ],
      "stateMutability": "view",
      "type": "function"
    },
    {
      "inputs": [],
      "name": "getObservationPeriod",
      "outputs": [
        {
          "internalType": "uint256",
          "name": "",
          "type": "uint256"
        }
      ],
      "stateMutability": "view",
      "type": "function"
    },
    {
      "inputs": [
        {
          "internalType": "bytes32",
          "name": "_ccy",
          "type": "bytes32"
        }
      ],
      "name": "getOrderFeeRate",
      "outputs": [
        {
          "internalType": "uint256",
          "name": "",
          "type": "uint256"
        }
      ],
      "stateMutability": "view",
      "type": "function"
    },
    {
      "inputs": [
        {
          "internalType": "bytes32[]",
          "name": "_ccys",
          "type": "bytes32[]"
        },
        {
          "internalType": "address",
          "name": "_user",
          "type": "address"
        }
      ],
      "name": "getOrders",
      "outputs": [
        {
          "components": [
            {
              "internalType": "uint48",
              "name": "orderId",
              "type": "uint48"
            },
            {
              "internalType": "bytes32",
              "name": "ccy",
              "type": "bytes32"
            },
            {
              "internalType": "uint256",
              "name": "maturity",
              "type": "uint256"
            },
            {
              "internalType": "enum ProtocolTypes.Side",
              "name": "side",
              "type": "uint8"
            },
            {
              "internalType": "uint256",
              "name": "unitPrice",
              "type": "uint256"
            },
            {
              "internalType": "uint256",
              "name": "amount",
              "type": "uint256"
            },
            {
              "internalType": "uint256",
              "name": "timestamp",
              "type": "uint256"
            },
            {
              "internalType": "bool",
              "name": "isPreOrder",
              "type": "bool"
            }
          ],
          "internalType": "struct ILendingMarketController.Order[]",
          "name": "activeOrders",
          "type": "tuple[]"
        },
        {
          "components": [
            {
              "internalType": "uint48",
              "name": "orderId",
              "type": "uint48"
            },
            {
              "internalType": "bytes32",
              "name": "ccy",
              "type": "bytes32"
            },
            {
              "internalType": "uint256",
              "name": "maturity",
              "type": "uint256"
            },
            {
              "internalType": "enum ProtocolTypes.Side",
              "name": "side",
              "type": "uint8"
            },
            {
              "internalType": "uint256",
              "name": "unitPrice",
              "type": "uint256"
            },
            {
              "internalType": "uint256",
              "name": "amount",
              "type": "uint256"
            },
            {
              "internalType": "uint256",
              "name": "timestamp",
              "type": "uint256"
            },
            {
              "internalType": "bool",
              "name": "isPreOrder",
              "type": "bool"
            }
          ],
          "internalType": "struct ILendingMarketController.Order[]",
          "name": "inactiveOrders",
          "type": "tuple[]"
        }
      ],
      "stateMutability": "view",
      "type": "function"
    },
    {
      "inputs": [
        {
          "internalType": "bytes32",
          "name": "_ccy",
          "type": "bytes32"
        },
        {
          "internalType": "uint256",
          "name": "_maturity",
          "type": "uint256"
        },
        {
          "internalType": "address",
          "name": "_user",
          "type": "address"
        }
      ],
      "name": "getPosition",
      "outputs": [
        {
          "internalType": "int256",
          "name": "presentValue",
          "type": "int256"
        },
        {
          "internalType": "int256",
          "name": "futureValue",
          "type": "int256"
        }
      ],
      "stateMutability": "view",
      "type": "function"
    },
    {
      "inputs": [
        {
          "internalType": "bytes32[]",
          "name": "_ccys",
          "type": "bytes32[]"
        },
        {
          "internalType": "address",
          "name": "_user",
          "type": "address"
        }
      ],
      "name": "getPositions",
      "outputs": [
        {
          "components": [
            {
              "internalType": "bytes32",
              "name": "ccy",
              "type": "bytes32"
            },
            {
              "internalType": "uint256",
              "name": "maturity",
              "type": "uint256"
            },
            {
              "internalType": "int256",
              "name": "presentValue",
              "type": "int256"
            },
            {
              "internalType": "int256",
              "name": "futureValue",
              "type": "int256"
            }
          ],
          "internalType": "struct ILendingMarketController.Position[]",
          "name": "positions",
          "type": "tuple[]"
        }
      ],
      "stateMutability": "view",
      "type": "function"
    },
    {
      "inputs": [
        {
          "internalType": "bytes32",
          "name": "_ccy",
          "type": "bytes32"
        },
        {
          "internalType": "address",
          "name": "_user",
          "type": "address"
        }
      ],
      "name": "getTotalPresentValue",
      "outputs": [
        {
          "internalType": "int256",
          "name": "totalPresentValue",
          "type": "int256"
        }
      ],
      "stateMutability": "view",
      "type": "function"
    },
    {
      "inputs": [
        {
          "internalType": "address",
          "name": "_user",
          "type": "address"
        }
      ],
      "name": "getTotalPresentValueInBaseCurrency",
      "outputs": [
        {
          "internalType": "int256",
          "name": "totalPresentValue",
          "type": "int256"
        }
      ],
      "stateMutability": "view",
      "type": "function"
    },
    {
      "inputs": [
        {
          "internalType": "address",
          "name": "_user",
          "type": "address"
        }
      ],
      "name": "getUsedCurrencies",
      "outputs": [
        {
          "internalType": "bytes32[]",
          "name": "",
          "type": "bytes32[]"
        }
      ],
      "stateMutability": "view",
      "type": "function"
    },
    {
      "inputs": [
        {
          "internalType": "address",
          "name": "_owner",
          "type": "address"
        },
        {
          "internalType": "address",
          "name": "_resolver",
          "type": "address"
        },
        {
          "internalType": "uint256",
          "name": "_marketBasePeriod",
          "type": "uint256"
        },
        {
          "internalType": "uint256",
          "name": "_observationPeriod",
          "type": "uint256"
        }
      ],
      "name": "initialize",
      "outputs": [],
      "stateMutability": "nonpayable",
      "type": "function"
    },
    {
      "inputs": [
        {
          "internalType": "bytes32",
          "name": "_ccy",
          "type": "bytes32"
        },
        {
          "internalType": "uint256",
          "name": "_genesisDate",
          "type": "uint256"
        },
        {
          "internalType": "uint256",
          "name": "_compoundFactor",
          "type": "uint256"
        },
        {
          "internalType": "uint256",
          "name": "_orderFeeRate",
          "type": "uint256"
        },
        {
          "internalType": "uint256",
          "name": "_circuitBreakerLimitRange",
          "type": "uint256"
        }
      ],
      "name": "initializeLendingMarket",
      "outputs": [],
      "stateMutability": "nonpayable",
      "type": "function"
    },
    {
      "inputs": [
        {
          "internalType": "bytes32",
          "name": "_ccy",
          "type": "bytes32"
        }
      ],
      "name": "isInitializedLendingMarket",
      "outputs": [
        {
          "internalType": "bool",
          "name": "",
          "type": "bool"
        }
      ],
      "stateMutability": "view",
      "type": "function"
    },
    {
      "inputs": [
        {
          "internalType": "address",
          "name": "_user",
          "type": "address"
        }
      ],
      "name": "isRedemptionRequired",
      "outputs": [
        {
          "internalType": "bool",
          "name": "",
          "type": "bool"
        }
      ],
      "stateMutability": "view",
      "type": "function"
    },
    {
      "inputs": [],
      "name": "isResolverCached",
      "outputs": [
        {
          "internalType": "bool",
          "name": "",
          "type": "bool"
        }
      ],
      "stateMutability": "view",
      "type": "function"
    },
    {
      "inputs": [],
      "name": "isTerminated",
      "outputs": [
        {
          "internalType": "bool",
          "name": "",
          "type": "bool"
        }
      ],
      "stateMutability": "view",
      "type": "function"
    },
    {
      "inputs": [],
      "name": "owner",
      "outputs": [
        {
          "internalType": "address",
          "name": "",
          "type": "address"
        }
      ],
      "stateMutability": "view",
      "type": "function"
    },
    {
      "inputs": [
        {
          "internalType": "bytes32",
          "name": "_ccy",
          "type": "bytes32"
        }
      ],
      "name": "pauseLendingMarkets",
      "outputs": [
        {
          "internalType": "bool",
          "name": "",
          "type": "bool"
        }
      ],
      "stateMutability": "nonpayable",
      "type": "function"
    },
    {
      "inputs": [],
      "name": "renounceOwnership",
      "outputs": [],
      "stateMutability": "nonpayable",
      "type": "function"
    },
    {
      "inputs": [],
      "name": "requiredContracts",
      "outputs": [
        {
          "internalType": "bytes32[]",
          "name": "contracts",
          "type": "bytes32[]"
        }
      ],
      "stateMutability": "pure",
      "type": "function"
    },
    {
      "inputs": [],
      "name": "resolver",
      "outputs": [
        {
          "internalType": "contract IAddressResolver",
          "name": "",
          "type": "address"
        }
      ],
      "stateMutability": "view",
      "type": "function"
    },
    {
      "inputs": [
        {
          "internalType": "bytes32",
          "name": "_ccy",
          "type": "bytes32"
        }
      ],
      "name": "rotateLendingMarkets",
      "outputs": [],
      "stateMutability": "nonpayable",
      "type": "function"
    },
    {
      "inputs": [
        {
          "internalType": "address",
          "name": "newOwner",
          "type": "address"
        }
      ],
      "name": "transferOwnership",
      "outputs": [],
      "stateMutability": "nonpayable",
      "type": "function"
    },
    {
      "inputs": [
        {
          "internalType": "bytes32",
          "name": "_ccy",
          "type": "bytes32"
        }
      ],
      "name": "unpauseLendingMarkets",
      "outputs": [
        {
          "internalType": "bool",
          "name": "",
          "type": "bool"
        }
      ],
      "stateMutability": "nonpayable",
      "type": "function"
    },
    {
      "inputs": [
        {
          "internalType": "bytes32",
          "name": "_ccy",
          "type": "bytes32"
        },
        {
          "internalType": "uint256",
          "name": "_maturity",
          "type": "uint256"
        }
      ],
      "name": "unwindPosition",
      "outputs": [
        {
          "internalType": "bool",
          "name": "",
          "type": "bool"
        }
      ],
      "stateMutability": "nonpayable",
      "type": "function"
    },
    {
      "inputs": [
        {
          "internalType": "bytes32",
          "name": "_ccy",
          "type": "bytes32"
        },
        {
          "internalType": "uint256",
          "name": "_limitRange",
          "type": "uint256"
        }
      ],
      "name": "updateCircuitBreakerLimitRange",
      "outputs": [],
      "stateMutability": "nonpayable",
      "type": "function"
    },
    {
      "inputs": [
        {
          "internalType": "uint256",
          "name": "_observationPeriod",
          "type": "uint256"
        }
      ],
      "name": "updateObservationPeriod",
      "outputs": [],
      "stateMutability": "nonpayable",
      "type": "function"
    },
    {
      "inputs": [
        {
          "internalType": "bytes32",
          "name": "_ccy",
          "type": "bytes32"
        },
        {
          "internalType": "uint256",
          "name": "_orderFeeRate",
          "type": "uint256"
        }
      ],
      "name": "updateOrderFeeRate",
      "outputs": [],
      "stateMutability": "nonpayable",
      "type": "function"
    }
  ],
  "transactionHash": "0x5c98c1029762cc6c2bf34d9706f4f075880869c268483c47b8821edaaf40501b",
  "args": [],
  "numDeployments": 8,
  "solcInputHash": "6825000ef597f2c360d7e15edb13df2c",
  "bytecode": "0x608060405234801561001057600080fd5b506001600055614910806100256000396000f3fe6080604052600436106103355760003560e01c806385323e1a116101ab578063bfd10cf6116100f7578063eb990c5911610095578063f2fde38b1161006f578063f2fde38b14610a36578063faca409b14610a56578063fc70081014610a76578063fd4584e614610a9657600080fd5b8063eb990c59146109c2578063ebb91416146109e2578063f1eaebae14610a0257600080fd5b8063d1cc9976116100d1578063d1cc997614610958578063e09976591461096d578063e99d053814610982578063eb092a26146109a257600080fd5b8063bfd10cf614610905578063bfe61a2814610925578063c11333b11461093857600080fd5b80638da5cb5b11610164578063a02be3dc1161013e578063a02be3dc14610890578063a4c66bde146108b0578063b3cb8450146108d0578063b8f117cd146108f057600080fd5b80638da5cb5b1461083b5780639519832b14610850578063953dbcaa1461087057600080fd5b806385323e1a1461077b578063862fd6e51461079b578063891d5965146107bb5780638a981745146107db5780638b36d833146107fb5780638c197d8d1461081b57600080fd5b806349f2ccbf1161028557806372d563ef116102235780637b588aaa116101fd5780637b588aaa146107065780637c63039d146107265780637deb671e14610746578063826b47e81461075b57600080fd5b806372d563ef14610699578063766cb64e146106b9578063798ac0c0146106d957600080fd5b80635c3477651161025f5780635c347765146105ef5780635ca65d571461064457806370c641a614610664578063715018a61461068457600080fd5b806349f2ccbf146105565780634e78fecc1461057657806355aceb4e146105c257600080fd5b806329985e5a116102f2578063381ada1f116102cc578063381ada1f146104c65780633d03b9da146104f3578063448255c714610515578063482f267a1461052857600080fd5b806329985e5a1461047a5780632af64bd3146104915780632e6c5e67146104a657600080fd5b806301cf22351461033a57806303e5fb591461036f57806304f3bcec146103c95780630594de6e146103f6578063062ea2941461042557806317b72ff41461045a575b600080fd5b34801561034657600080fd5b5061035a610355366004613a23565b610af3565b60405190151581526020015b60405180910390f35b34801561037b57600080fd5b506103bb61038a366004613a45565b60009081527ffd57fda692f2d6ebd63634bcff565f4a5bd9da5175c220bd0ae0da0b8f69d317602052604090205490565b604051908152602001610366565b3480156103d557600080fd5b506103de610c1a565b6040516001600160a01b039091168152602001610366565b34801561040257600080fd5b50610416610411366004613a5e565b610c3b565b60405161036693929190613ac5565b34801561043157600080fd5b50610445610440366004613b1d565b610cfa565b60408051928352602083019190915201610366565b34801561046657600080fd5b506103bb610475366004613b56565b610d93565b34801561048657600080fd5b5061048f610e29565b005b34801561049d57600080fd5b5061035a610fde565b3480156104b257600080fd5b5061035a6104c1366004613a45565b611144565b3480156104d257600080fd5b506104e66104e1366004613a45565b611164565b6040516103669190613b86565b3480156104ff57600080fd5b506105086111e2565b6040516103669190613bd3565b61035a610523366004613c18565b611304565b34801561053457600080fd5b50610548610543366004613da3565b61149e565b604051610366929190613e98565b34801561056257600080fd5b5061035a610571366004613eda565b611539565b34801561058257600080fd5b506103bb610591366004613a45565b60009081527ffd57fda692f2d6ebd63634bcff565f4a5bd9da5175c220bd0ae0da0b8f69d319602052604090205490565b3480156105ce57600080fd5b506105e26105dd366004613a45565b611682565b6040516103669190613f08565b3480156105fb57600080fd5b5061060f61060a366004613b56565b6117f3565b604080519788526020880196909652948601939093526060850191909152608084015260a083015260c082015260e001610366565b34801561065057600080fd5b5061048f61065f366004613a23565b6118de565b34801561067057600080fd5b506103bb61067f366004613b56565b61197c565b34801561069057600080fd5b5061048f611a16565b3480156106a557600080fd5b5061048f6106b4366004613a23565b611a51565b3480156106c557600080fd5b5061048f6106d4366004613f1b565b611ae4565b3480156106e557600080fd5b506106f96106f4366004613da3565b611c3b565b6040516103669190613f56565b34801561071257600080fd5b5061048f610721366004613a23565b611cd2565b34801561073257600080fd5b5061035a610741366004613fba565b611d40565b34801561075257600080fd5b5061035a611f55565b34801561076757600080fd5b5061035a610776366004613ffe565b612032565b34801561078757600080fd5b506103de610796366004613a23565b6120a9565b3480156107a757600080fd5b5061035a6107b6366004613ffe565b61210b565b3480156107c757600080fd5b506103bb6107d6366004613a45565b61214c565b3480156107e757600080fd5b506103de6107f6366004613a23565b61216a565b34801561080757600080fd5b5061048f610816366004613a45565b61219c565b34801561082757600080fd5b5061048f610836366004613a45565b6123d3565b34801561084757600080fd5b506103de612461565b34801561085c57600080fd5b506103bb61086b366004613b56565b612489565b34801561087c57600080fd5b5061041661088b366004613a5e565b61251e565b34801561089c57600080fd5b506105e26108ab366004613a45565b61257d565b3480156108bc57600080fd5b506103bb6108cb366004613ffe565b6126e7565b3480156108dc57600080fd5b5061035a6108eb366004613a45565b612872565b3480156108fc57600080fd5b5061048f612905565b34801561091157600080fd5b506105e2610920366004613a45565b6129d9565b61035a610933366004613c18565b612b43565b34801561094457600080fd5b5061035a61095336600461401b565b612c99565b34801561096457600080fd5b5061035a612f0f565b34801561097957600080fd5b50610508612f24565b34801561098e57600080fd5b5061035a61099d366004613a45565b612f67565b3480156109ae57600080fd5b506105e26109bd366004613a45565b612ff5565b3480156109ce57600080fd5b5061048f6109dd36600461405c565b61315f565b3480156109ee57600080fd5b5061035a6109fd366004613c18565b6132f1565b348015610a0e57600080fd5b507ffd57fda692f2d6ebd63634bcff565f4a5bd9da5175c220bd0ae0da0b8f69d31a546103bb565b348015610a4257600080fd5b5061048f610a51366004613ffe565b6133d4565b348015610a6257600080fd5b5061035a610a71366004613c18565b613471565b348015610a8257600080fd5b50610508610a91366004613ffe565b613554565b348015610aa257600080fd5b50610ab6610ab13660046140a2565b613582565b604080519889526020890197909752958701949094526060860192909252608085015260a084015260c0830152151560e082015261010001610366565b600060026000541415610b215760405162461bcd60e51b8152600401610b18906140d7565b60405180910390fd5b6002600090815583908390610b3461364a565b6000848152600791909101602090815260408083208584529091529020546001600160a01b03161415610b795760405162461bcd60e51b8152600401610b189061410e565b610b81612f0f565b15610b9e5760405162461bcd60e51b8152600401610b1890614138565b604051632097fb8960e01b815273E0eA0cF692b9432081F89514b1bC8B7960c2c3EE90632097fb8990610bd990889088903390600401614164565b60006040518083038186803b158015610bf157600080fd5b505af4158015610c05573d6000803e3d6000fd5b50505050600192505050600160005592915050565b60006000805160206148bb8339815191525b546001600160a01b0316919050565b60608060606000610c4a61364a565b600088815260079190910160209081526040808320898452909152908190205490516325fb168b60e11b8152600481018790526001600160a01b0390911691508190634bf62d16906024015b60006040518083038186803b158015610cae57600080fd5b505afa158015610cc2573d6000803e3d6000fd5b505050506040513d6000823e601f3d908101601f19168201604052610cea91908101906141de565b9350935093505093509350939050565b60008073E1Bca95415f50d4aA079a6867B038E81f10Abf8363062ea2948686866040518463ffffffff1660e01b8152600401610d3893929190614164565b604080518083038186803b158015610d4f57600080fd5b505af4158015610d63573d6000803e3d6000fd5b505050506040513d601f19601f82011682018060405250810190610d879190614265565b90969095509350505050565b6040516295a47160e71b815260009073E1Bca95415f50d4aA079a6867B038E81f10Abf8390634ad2388090610dd090869085908790600401614164565b6101206040518083038186803b158015610de957600080fd5b505af4158015610dfd573d6000803e3d6000fd5b505050506040513d601f19601f82011682018060405250810190610e219190614289565b519392505050565b6000610e336111e2565b905060005b8151811015610fd2576000828281518110610e5557610e55614304565b602002602001015190506000610e766000805160206148bb83398151915290565b54604080517f5265736f6c766572206d697373696e67207461726765743a200000000000000060208201526039808201869052825180830390910181526059820192839052636795dbcd60e01b9092526001600160a01b0390921691636795dbcd91610ee791869190605d01614367565b60206040518083038186803b158015610eff57600080fd5b505afa158015610f13573d6000803e3d6000fd5b505050506040513d601f19601f82011682018060405250810190610f379190614380565b60008381527f4abde63c3e81aefa5764b017968bc473e83e093d7e1a10247d19e0a3e4124019602090815260409182902080546001600160a01b0319166001600160a01b03851690811790915582518681529182015281519293507f88a93678a3692f6789d9546fc621bf7234b101ddb7d4fe479455112831b8aa68929081900390910190a150508080610fca906143b3565b915050610e38565b50610fdb61366e565b50565b600080610fe96111e2565b905060005b815181101561113b57600082828151811061100b5761100b614304565b6020026020010151905061102a6000805160206148bb83398151915290565b600082815260019190910160205260409020546001600160a01b03166000805160206148bb833981519152546040516321f8a72160e01b8152600481018490526001600160a01b03909116906321f8a7219060240160206040518083038186803b15801561109757600080fd5b505afa1580156110ab573d6000803e3d6000fd5b505050506040513d601f19601f820116820180604052508101906110cf9190614380565b6001600160a01b0316141580611119575060008181527f4abde63c3e81aefa5764b017968bc473e83e093d7e1a10247d19e0a3e412401960205260409020546001600160a01b0316155b15611128576000935050505090565b5080611133816143b3565b915050610fee565b50600191505090565b600061114e61364a565b6000928352600801602052506040902054151590565b606061116e61364a565b60050160008381526020019081526020016000208054806020026020016040519081016040528092919081815260200182805480156111d657602002820191906000526020600020905b81546001600160a01b031681526001909101906020018083116111b8575b50505050509050919050565b60408051600580825260c082019092526060916020820160a080368337019050509050742132b0b1b7b7283937bc3ca1b7b73a3937b63632b960591b8160008151811061123157611231614304565b6020026020010181815250507121bab93932b731bca1b7b73a3937b63632b960711b8160018151811061126657611266614304565b6020026020010181815250507011d95b995cda5cd5985b1d5955985d5b1d607a1b8160028151811061129a5761129a614304565b6020026020010181815250506a14995cd95c9d99519d5b9960aa1b816003815181106112c8576112c8614304565b60200260200101818152505069151bdad95b95985d5b1d60b21b816004815181106112f5576112f5614304565b60200260200101818152505090565b6000600260005414156113295760405162461bcd60e51b8152600401610b18906140d7565b600260009081558690869061133c61364a565b6000848152600791909101602090815260408083208584529091529020546001600160a01b031614156113815760405162461bcd60e51b8152600401610b189061410e565b611389612f0f565b156113a65760405162461bcd60e51b8152600401610b1890614138565b6113ae6136f1565b6040516396994e3760e01b8152336004820152602481018a9052604481018790526001600160a01b0391909116906396994e379034906064016000604051808303818588803b15801561140057600080fd5b505af1158015611414573d6000803e3d6000fd5b505060405163102cdc6b60e11b815273E0eA0cF692b9432081F89514b1bC8B7960c2c3EE9350632059b8d6925061145a91508b908b9033908c908c908c906004016143ce565b60006040518083038186803b15801561147257600080fd5b505af4158015611486573d6000803e3d6000fd5b50505050600192505050600160005595945050505050565b60608073E0eA0cF692b9432081F89514b1bC8B7960c2c3EE63482f267a85856040518363ffffffff1660e01b81526004016114da92919061440c565b60006040518083038186803b1580156114f257600080fd5b505af4158015611506573d6000803e3d6000fd5b505050506040513d6000823e601f3d908101601f1916820160405261152e919081019061454f565b909590945092505050565b60006002600054141561155e5760405162461bcd60e51b8152600401610b18906140d7565b600260009081558490849061157161364a565b6000848152600791909101602090815260408083208584529091529020546001600160a01b031614156115b65760405162461bcd60e51b8152600401610b189061410e565b6115be612f0f565b156115db5760405162461bcd60e51b8152600401610b1890614138565b60006115e561364a565b6000888152600791909101602090815260408083208984529091529081902054905163504b89bd60e01b815233600482015265ffffffffffff871660248201526001600160a01b039091169150819063504b89bd90604401600060405180830381600087803b15801561165757600080fd5b505af115801561166b573d6000803e3d6000fd5b505050506001935050505060016000559392505050565b6060600061168e61364a565b600084815260059190910160205260409020546001600160401b038111156116b8576116b8613c61565b6040519080825280602002602001820160405280156116e1578160200160208202803683370190505b50905060005b6116ef61364a565b600085815260059190910160205260409020548110156117ec57600061171361364a565b6005016000868152602001908152602001600020828154811061173857611738614304565b6000918252602091829020015460408051631b3508b760e01b815290516001600160a01b0390921693508392631b3508b792600480840193829003018186803b15801561178457600080fd5b505afa158015611798573d6000803e3d6000fd5b505050506040513d601f19601f820116820180604052508101906117bc91906145b2565b8383815181106117ce576117ce614304565b602090810291909101015250806117e4816143b3565b9150506116e7565b5092915050565b600080600080600080600061182c8961180a61364a565b6001600160a01b038b1660009081526009919091016020526040902090613700565b156118d257604051635c34776560e01b8152600481018a90526001600160a01b038916602482015273E1Bca95415f50d4aA079a6867B038E81f10Abf8390635c3477659060440160e06040518083038186803b15801561188b57600080fd5b505af415801561189f573d6000803e3d6000fd5b505050506040513d601f19601f820116820180604052508101906118c391906145cb565b96509650965096509650965096505b92959891949750929550565b336118e7612461565b6001600160a01b03161461190d5760405162461bcd60e51b8152600401610b189061461f565b604051635ca65d5760e01b81526004810183905260248101829052736cd068A7aD872B3bFfCE344964e54c007F1504F890635ca65d57906044015b60006040518083038186803b15801561196057600080fd5b505af4158015611974573d6000803e3d6000fd5b505050505050565b6040516295a47160e71b815260009073E1Bca95415f50d4aA079a6867B038E81f10Abf8390634ad23880906119b990869085908790600401614164565b6101206040518083038186803b1580156119d257600080fd5b505af41580156119e6573d6000803e3d6000fd5b505050506040513d601f19601f82011682018060405250810190611a0a9190614289565b61010001519392505050565b33611a1f612461565b6001600160a01b031614611a455760405162461bcd60e51b8152600401610b189061461f565b611a4f6000613718565b565b611a59612f0f565b15611a765760405162461bcd60e51b8152600401610b1890614138565b33611a7f612461565b6001600160a01b031614611aa55760405162461bcd60e51b8152600401610b189061461f565b6040516372d563ef60e01b8152600481018390526024810182905273532c59030709889E6f18213D7C430944891ab5e3906372d563ef90604401611948565b33611aed612461565b6001600160a01b031614611b135760405162461bcd60e51b8152600401610b189061461f565b60008311611b635760405162461bcd60e51b815260206004820152601760248201527f496e76616c696420636f6d706f756e6420666163746f720000000000000000006044820152606401610b18565b611b6c85611144565b15611baf5760405162461bcd60e51b8152602060048201526013602482015272105b1c9958591e481a5b9a5d1a585b1a5e9959606a1b6044820152606401610b18565b60405163d3f43b7960e01b815260048101869052602481018590526044810184905273532c59030709889E6f18213D7C430944891ab5e39063d3f43b799060640160006040518083038186803b158015611c0857600080fd5b505af4158015611c1c573d6000803e3d6000fd5b50505050611c2a85836118de565b611c348582611cd2565b5050505050565b6040516301e62b0360e61b815260609073E1Bca95415f50d4aA079a6867B038E81f10Abf839063798ac0c090611c77908690869060040161440c565b60006040518083038186803b158015611c8f57600080fd5b505af4158015611ca3573d6000803e3d6000fd5b505050506040513d6000823e601f3d908101601f19168201604052611ccb9190810190614654565b9392505050565b33611cdb612461565b6001600160a01b031614611d015760405162461bcd60e51b8152600401610b189061461f565b604051633dac455560e11b81526004810183905260248101829052736cd068A7aD872B3bFfCE344964e54c007F1504F890637b588aaa90604401611948565b600060026000541415611d655760405162461bcd60e51b8152600401610b18906140d7565b6002600055611d72612f0f565b15611d8f5760405162461bcd60e51b8152600401610b1890614138565b60005b8351811015611f45576000848281518110611daf57611daf614304565b6020026020010151905060008073532c59030709889E6f18213D7C430944891ab5e3636a23a95c84886040518363ffffffff1660e01b8152600401611dfe929190918252602082015260400190565b60c06040518083038186803b158015611e1657600080fd5b505af4158015611e2a573d6000803e3d6000fd5b505050506040513d601f19601f82011682018060405250810190611e4e9190614783565b6040516397fe451560e01b8152919350915073E0eA0cF692b9432081F89514b1bC8B7960c2c3EE906397fe451590611e919086908a9060009088906004016147b8565b60006040518083038186803b158015611ea957600080fd5b505af4158015611ebd573d6000803e3d6000fd5b50506040516397fe451560e01b815273E0eA0cF692b9432081F89514b1bC8B7960c2c3EE92506397fe45159150611eff9086908a9060019087906004016147b8565b60006040518083038186803b158015611f1757600080fd5b505af4158015611f2b573d6000803e3d6000fd5b505050505050508080611f3d906143b3565b915050611d92565b5060019050600160005592915050565b600060026000541415611f7a5760405162461bcd60e51b8152600401610b18906140d7565b6002600055611f87612f0f565b611fc45760405162461bcd60e51b815260206004820152600e60248201526d139bdd081d195c9b5a5b985d195960921b6044820152606401610b18565b6040516304b4274f60e21b815233600482015273E1Bca95415f50d4aA079a6867B038E81f10Abf83906312d09d3c9060240160006040518083038186803b15801561200e57600080fd5b505af4158015612022573d6000803e3d6000fd5b5050505060019050600160005590565b60405163104d68fd60e31b81526001600160a01b038216600482015260009073E1Bca95415f50d4aA079a6867B038E81f10Abf839063826b47e8906024015b60006040518083038186803b15801561208957600080fd5b505af415801561209d573d6000803e3d6000fd5b50600195945050505050565b60006120b361364a565b600084815260069190910160205260408120906120ce61364a565b600095865260070160209081526040808720958752948152848620546001600160a01b039081168352908201929092529092019092205416919050565b6000612115612f0f565b8015612146575061212461364a565b6001600160a01b0383166000908152600d91909101602052604090205460ff16155b92915050565b600061215661364a565b600092835260080160205250604090205490565b600061217461364a565b600093845260070160209081526040808520938552929052509020546001600160a01b031690565b600260005414156121bf5760405162461bcd60e51b8152600401610b18906140d7565b6002600090815581906121d061364a565b60008381526005919091016020526040902054116122495760405162461bcd60e51b815260206004820152603060248201527f4e6f206c656e64696e67206d61726b65747320657869737420666f722061207360448201526f706563696669632063757272656e637960801b6064820152608401610b18565b612251612f0f565b1561226e5760405162461bcd60e51b8152600401610b1890614138565b600073532c59030709889E6f18213D7C430944891ab5e363a3d54d8c846122c08660009081527ffd57fda692f2d6ebd63634bcff565f4a5bd9da5175c220bd0ae0da0b8f69d317602052604090205490565b6040516001600160e01b031960e085901b1681526004810192909252602482015260440160206040518083038186803b1580156122fc57600080fd5b505af4158015612310573d6000803e3d6000fd5b505050506040513d601f19601f8201168201806040525081019061233491906145b2565b905073E1Bca95415f50d4aA079a6867B038E81f10Abf8363300074c9848361235a613789565b6040518463ffffffff1660e01b815260040161237893929190614164565b60206040518083038186803b15801561239057600080fd5b505af41580156123a4573d6000803e3d6000fd5b505050506040513d601f19601f820116820180604052508101906123c891906145b2565b505060016000555050565b336123dc612461565b6001600160a01b0316146124025760405162461bcd60e51b8152600401610b189061461f565b604051638c197d8d60e01b815260048101829052736cd068A7aD872B3bFfCE344964e54c007F1504F890638c197d8d9060240160006040518083038186803b15801561244d57600080fd5b505af4158015611c34573d6000803e3d6000fd5b60007f9acda75aebd150dd434541a4747a6dc606f4f1a59662477e67daf1fc0bf9e0aa610c2c565b604051639519832b60e01b8152600481018390526001600160a01b038216602482015260009073E1Bca95415f50d4aA079a6867B038E81f10Abf8390639519832b9060440160206040518083038186803b1580156124e657600080fd5b505af41580156124fa573d6000803e3d6000fd5b505050506040513d601f19601f82011682018060405250810190611ccb91906145b2565b6060806060600061252d61364a565b6000888152600791909101602090815260408083208984529091529081902054905163d866d35560e01b8152600481018790526001600160a01b039091169150819063d866d35590602401610c96565b6060600061258961364a565b600084815260059190910160205260409020546001600160401b038111156125b3576125b3613c61565b6040519080825280602002602001820160405280156125dc578160200160208202803683370190505b50905060005b6125ea61364a565b600085815260059190910160205260409020548110156117ec57600061260e61364a565b6005016000868152602001908152602001600020828154811061263357612633614304565b600091825260209182902001546040805163e16695b560e01b815290516001600160a01b039092169350839263e16695b592600480840193829003018186803b15801561267f57600080fd5b505afa158015612693573d6000803e3d6000fd5b505050506040513d601f19601f820116820180604052508101906126b791906145b2565b8383815181106126c9576126c9614304565b602090810291909101015250806126df816143b3565b9150506125e2565b6000806126f261364a565b6001600160a01b03841660009081526009919091016020526040812091505b61271a82613793565b81101561286b57600061272d838361379d565b9050600073E1Bca95415f50d4aA079a6867B038E81f10Abf83634ad23880836000896040518463ffffffff1660e01b815260040161276d93929190614164565b6101206040518083038186803b15801561278657600080fd5b505af415801561279a573d6000803e3d6000fd5b505050506040513d601f19601f820116820180604052508101906127be9190614289565b5190506127c96137a9565b604051633c7f634960e11b815260048101849052602481018390526001600160a01b0391909116906378fec6929060440160206040518083038186803b15801561281257600080fd5b505afa158015612826573d6000803e3d6000fd5b505050506040513d601f19601f8201168201806040525081019061284a91906145b2565b6128549086614800565b945050508080612863906143b3565b915050612711565b5050919050565b600061287c612f0f565b156128995760405162461bcd60e51b8152600401610b1890614138565b336128a2612461565b6001600160a01b0316146128c85760405162461bcd60e51b8152600401610b189061461f565b604051630b3cb84560e41b81526004810183905273532c59030709889E6f18213D7C430944891ab5e39063b3cb845090602401612071565b919050565b600260005414156129285760405162461bcd60e51b8152600401610b18906140d7565b6002600055612935612f0f565b156129525760405162461bcd60e51b8152600401610b1890614138565b3361295b612461565b6001600160a01b0316146129815760405162461bcd60e51b8152600401610b189061461f565b73532c59030709889E6f18213D7C430944891ab5e363b8f117cd6040518163ffffffff1660e01b815260040160006040518083038186803b1580156129c557600080fd5b505af41580156123c8573d6000803e3d6000fd5b606060006129e561364a565b600084815260059190910160205260409020546001600160401b03811115612a0f57612a0f613c61565b604051908082528060200260200182016040528015612a38578160200160208202803683370190505b50905060005b612a4661364a565b600085815260059190910160205260409020548110156117ec576000612a6a61364a565b60050160008681526020019081526020016000208281548110612a8f57612a8f614304565b60009182526020918290200154604080516371613c2d60e01b815290516001600160a01b03909216935083926371613c2d92600480840193829003018186803b158015612adb57600080fd5b505afa158015612aef573d6000803e3d6000fd5b505050506040513d601f19601f82011682018060405250810190612b1391906145b2565b838381518110612b2557612b25614304565b60209081029190910101525080612b3b816143b3565b915050612a3e565b600060026000541415612b685760405162461bcd60e51b8152600401610b18906140d7565b6002600090815586908690612b7b61364a565b6000848152600791909101602090815260408083208584529091529020546001600160a01b03161415612bc05760405162461bcd60e51b8152600401610b189061410e565b612bc8612f0f565b15612be55760405162461bcd60e51b8152600401610b1890614138565b612bed6136f1565b6040516396994e3760e01b8152336004820152602481018a9052604481018790526001600160a01b0391909116906396994e379034906064016000604051808303818588803b158015612c3f57600080fd5b505af1158015612c53573d6000803e3d6000fd5b50506040516317992e1960e01b815273E0eA0cF692b9432081F89514b1bC8B7960c2c3EE93506317992e19925061145a91508b908b9033908c908c908c906004016143ce565b6000333014612e04576001546201000090046001600160a01b031615612cd2576040516337affdbf60e11b815260040160405180910390fd5b6001805462010000600160b01b03191633620100000217905583836000612cf761364a565b6000848152600791909101602090815260408083208584529091529020546001600160a01b03161415612d3c5760405162461bcd60e51b8152600401610b189061410e565b612d44612f0f565b15612d615760405162461bcd60e51b8152600401610b1890614138565b604051635436151f60e11b81523360048201526001600160a01b038516602482015260448101889052606481018790526084810186905273E1Bca95415f50d4aA079a6867B038E81f10Abf839063a86c2a3e9060a40160006040518083038186803b158015612dcf57600080fd5b505af4158015612de3573d6000803e3d6000fd5b505050506001925050506001805462010000600160b01b0319169055612f07565b83836000612e1061364a565b6000848152600791909101602090815260408083208584529091529020546001600160a01b03161415612e555760405162461bcd60e51b8152600401610b189061410e565b612e5d612f0f565b15612e7a5760405162461bcd60e51b8152600401610b1890614138565b604051635436151f60e11b81523360048201526001600160a01b038516602482015260448101889052606481018790526084810186905273E1Bca95415f50d4aA079a6867B038E81f10Abf839063a86c2a3e9060a40160006040518083038186803b158015612ee857600080fd5b505af4158015612efc573d6000803e3d6000fd5b505050506001925050505b949350505050565b600080612f1a61364a565b6002015411905090565b6040805160018082528183019092526060916020808301908036833701905050905069151bdad95b95985d5b1d60b21b816000815181106112f5576112f5614304565b6000612f71612f0f565b15612f8e5760405162461bcd60e51b8152600401610b1890614138565b33612f97612461565b6001600160a01b031614612fbd5760405162461bcd60e51b8152600401610b189061461f565b604051631d33a0a760e31b81526004810183905273532c59030709889E6f18213D7C430944891ab5e39063e99d053890602401612071565b6060600061300161364a565b600084815260059190910160205260409020546001600160401b0381111561302b5761302b613c61565b604051908082528060200260200182016040528015613054578160200160208202803683370190505b50905060005b61306261364a565b600085815260059190910160205260409020548110156117ec57600061308661364a565b600501600086815260200190815260200160002082815481106130ab576130ab614304565b6000918252602091829020015460408051632f05aa6d60e11b815290516001600160a01b0390921693508392635e0b54da92600480840193829003018186803b1580156130f757600080fd5b505afa15801561310b573d6000803e3d6000fd5b505050506040513d601f19601f8201168201806040525081019061312f91906145b2565b83838151811061314157613141614304565b60209081029190910101525080613157816143b3565b91505061305a565b600154610100900460ff161580801561317c57506001805460ff16105b806131955750303b15801561319557506001805460ff16145b6131f85760405162461bcd60e51b815260206004820152602e60248201527f496e697469616c697a61626c653a20636f6e747261637420697320616c72656160448201526d191e481a5b9a5d1a585b1a5e995960921b6064820152608401610b18565b6001805460ff191681179055801561321a576001805461ff0019166101001790555b60006132246137b3565b6001600160a01b031614156132865760405162461bcd60e51b815260206004820152602260248201527f4d7573742062652063616c6c65642066726f6d2070726f787920636f6e74726160448201526118dd60f21b6064820152608401610b18565b8261328f61364a565b6001015561329d85836137db565b6132a68461381c565b8015611c34576001805461ff00191681556040519081527f7f26b83ff96e1f2b6a682f133852f6798a09c465da95921460cefb38474024989060200160405180910390a15050505050565b6000600260005414156133165760405162461bcd60e51b8152600401610b18906140d7565b600260009081558690869061332961364a565b6000848152600791909101602090815260408083208584529091529020546001600160a01b0316141561336e5760405162461bcd60e51b8152600401610b189061410e565b613376612f0f565b156133935760405162461bcd60e51b8152600401610b1890614138565b6040516317992e1960e01b815273E0eA0cF692b9432081F89514b1bC8B7960c2c3EE906317992e199061145a908b908b9033908c908c908c906004016143ce565b336133dd612461565b6001600160a01b0316146134035760405162461bcd60e51b8152600401610b189061461f565b6001600160a01b0381166134685760405162461bcd60e51b815260206004820152602660248201527f4f776e61626c653a206e6577206f776e657220697320746865207a65726f206160448201526564647265737360d01b6064820152608401610b18565b610fdb81613718565b6000600260005414156134965760405162461bcd60e51b8152600401610b18906140d7565b60026000908155869086906134a961364a565b6000848152600791909101602090815260408083208584529091529020546001600160a01b031614156134ee5760405162461bcd60e51b8152600401610b189061410e565b6134f6612f0f565b156135135760405162461bcd60e51b8152600401610b1890614138565b60405163102cdc6b60e11b815273E0eA0cF692b9432081F89514b1bC8B7960c2c3EE90632059b8d69061145a908b908b9033908c908c908c906004016143ce565b606061214661356161364a565b6001600160a01b0384166000908152600991909101602052604090206138b1565b604051637ea2c27360e11b81526001600160a01b03841660048201526024810183905260448101829052600090819081908190819081908190819073E1Bca95415f50d4aA079a6867B038E81f10Abf839063fd4584e6906064016101006040518083038186803b1580156135f557600080fd5b505af4158015613609573d6000803e3d6000fd5b505050506040513d601f19601f8201168201806040525081019061362d9190614841565b975097509750975097509750975097509397509397509397509397565b7f8041b8421ebd495cc61f38c788c9eb100daccf9bd36aa0bb920b7a15b2e0496590565b6136766137a9565b6001600160a01b031663ecd8d2fb6040518163ffffffff1660e01b815260040160206040518083038186803b1580156136ae57600080fd5b505afa1580156136c2573d6000803e3d6000fd5b505050506040513d601f19601f820116820180604052508101906136e691906145b2565b6136ee61364a565b55565b60006136fb6138bc565b905090565b60008181526001830160205260408120541515611ccb565b7f9acda75aebd150dd434541a4747a6dc606f4f1a59662477e67daf1fc0bf9e0aa80546001600160a01b038381166001600160a01b0319831681179093556040519116919082907f8be0079c531659141344cd1fd0a4f28419497f9722a3daafe3b4186f6b6457e090600090a35050565b60006136fb6138d4565b6000612146825490565b6000611ccb83836138ed565b60006136fb613917565b60007f360894a13ba1a3210667c828492db98dca3e2076cc3735a920a3ca505d382bbc610c2c565b6137e482613718565b604051638c197d8d60e01b815260048101829052736cd068A7aD872B3bFfCE344964e54c007F1504F890638c197d8d90602401611948565b6000805160206148bb833981519152546001600160a01b0316156138825760405162461bcd60e51b815260206004820152601b60248201527f5265736f6c766572207265676973746572656420616c726561647900000000006044820152606401610b18565b6000805160206148bb83398151915280546001600160a01b0319166001600160a01b0392909216919091179055565b606061214682613937565b60006136fb69151bdad95b95985d5b1d60b21b613992565b60006136fb6a14995cd95c9d99519d5b9960aa1b613992565b600082600001828154811061390457613904614304565b9060005260206000200154905092915050565b60006136fb7121bab93932b731bca1b7b73a3937b63632b960711b613992565b6060816000018054806020026020016040519081016040528092919081815260200182805480156111d657602002820191906000526020600020905b8154815260200190600101908083116139735750505050509050919050565b60008181527f4abde63c3e81aefa5764b017968bc473e83e093d7e1a10247d19e0a3e41240196020908152604080832054815170026b4b9b9b4b7339030b2323932b9b99d1607d1b9381019390935260318084018690528251808503909101815260519093019091526001600160a01b031690816117ec5760405162461bcd60e51b8152600401610b1891906148a7565b60008060408385031215613a3657600080fd5b50508035926020909101359150565b600060208284031215613a5757600080fd5b5035919050565b600080600060608486031215613a7357600080fd5b505081359360208301359350604090920135919050565b600081518084526020808501945080840160005b83811015613aba57815187529582019590820190600101613a9e565b509495945050505050565b606081526000613ad86060830186613a8a565b8281036020840152613aea8186613a8a565b90508281036040840152613afe8185613a8a565b9695505050505050565b6001600160a01b0381168114610fdb57600080fd5b600080600060608486031215613b3257600080fd5b83359250602084013591506040840135613b4b81613b08565b809150509250925092565b60008060408385031215613b6957600080fd5b823591506020830135613b7b81613b08565b809150509250929050565b6020808252825182820181905260009190848201906040850190845b81811015613bc75783516001600160a01b031683529284019291840191600101613ba2565b50909695505050505050565b6020808252825182820181905260009190848201906040850190845b81811015613bc757835183529284019291840191600101613bef565b60028110610fdb57600080fd5b600080600080600060a08688031215613c3057600080fd5b85359450602086013593506040860135613c4981613c0b565b94979396509394606081013594506080013592915050565b634e487b7160e01b600052604160045260246000fd5b60405161012081016001600160401b0381118282101715613c9a57613c9a613c61565b60405290565b60405161010081016001600160401b0381118282101715613c9a57613c9a613c61565b604051608081016001600160401b0381118282101715613c9a57613c9a613c61565b604051601f8201601f191681016001600160401b0381118282101715613d0d57613d0d613c61565b604052919050565b60006001600160401b03821115613d2e57613d2e613c61565b5060051b60200190565b600082601f830112613d4957600080fd5b81356020613d5e613d5983613d15565b613ce5565b82815260059290921b84018101918181019086841115613d7d57600080fd5b8286015b84811015613d985780358352918301918301613d81565b509695505050505050565b60008060408385031215613db657600080fd5b82356001600160401b03811115613dcc57600080fd5b613dd885828601613d38565b9250506020830135613b7b81613b08565b60028110613e0757634e487b7160e01b600052602160045260246000fd5b9052565b600081518084526020808501945080840160005b83811015613aba578151805165ffffffffffff168852838101518489015260408082015190890152606080820151613e59828b0182613de9565b50506080818101519089015260a0808201519089015260c0808201519089015260e0908101511515908801526101009096019590820190600101613e1f565b604081526000613eab6040830185613e0b565b8281036020840152613ebd8185613e0b565b95945050505050565b65ffffffffffff81168114610fdb57600080fd5b600080600060608486031215613eef57600080fd5b83359250602084013591506040840135613b4b81613ec6565b602081526000611ccb6020830184613a8a565b600080600080600060a08688031215613f3357600080fd5b505083359560208501359550604085013594606081013594506080013592509050565b602080825282518282018190526000919060409081850190868401855b82811015613fad57815180518552868101518786015285810151868601526060908101519085015260809093019290850190600101613f73565b5091979650505050505050565b60008060408385031215613fcd57600080fd5b82356001600160401b03811115613fe357600080fd5b613fef85828601613d38565b95602094909401359450505050565b60006020828403121561401057600080fd5b8135611ccb81613b08565b6000806000806080858703121561403157600080fd5b843593506020850135925060408501359150606085013561405181613b08565b939692955090935050565b6000806000806080858703121561407257600080fd5b843561407d81613b08565b9350602085013561408d81613b08565b93969395505050506040820135916060013590565b6000806000606084860312156140b757600080fd5b83356140c281613b08565b95602085013595506040909401359392505050565b6020808252601f908201527f5265656e7472616e637947756172643a207265656e7472616e742063616c6c00604082015260600190565b60208082526010908201526f496e76616c6964206d6174757269747960801b604082015260600190565b602080825260129082015271105b1c9958591e481d195c9b5a5b985d195960721b604082015260600190565b92835260208301919091526001600160a01b0316604082015260600190565b600082601f83011261419457600080fd5b815160206141a4613d5983613d15565b82815260059290921b840181019181810190868411156141c357600080fd5b8286015b84811015613d9857805183529183019183016141c7565b6000806000606084860312156141f357600080fd5b83516001600160401b038082111561420a57600080fd5b61421687838801614183565b9450602086015191508082111561422c57600080fd5b61423887838801614183565b9350604086015191508082111561424e57600080fd5b5061425b86828701614183565b9150509250925092565b6000806040838503121561427857600080fd5b505080516020909101519092909150565b6000610120828403121561429c57600080fd5b6142a4613c77565b825181526020830151602082015260408301516040820152606083015160608201526080830151608082015260a083015160a082015260c083015160c082015260e083015160e08201526101008084015181830152508091505092915050565b634e487b7160e01b600052603260045260246000fd5b6000815180845260005b8181101561434057602081850181015186830182015201614324565b81811115614352576000602083870101525b50601f01601f19169290920160200192915050565b828152604060208201526000612f07604083018461431a565b60006020828403121561439257600080fd5b8151611ccb81613b08565b634e487b7160e01b600052601160045260246000fd5b60006000198214156143c7576143c761439d565b5060010190565b868152602081018690526001600160a01b038516604082015260c081016143f86060830186613de9565b608082019390935260a00152949350505050565b604080825283519082018190526000906020906060840190828701845b8281101561444557815184529284019290840190600101614429565b5050506001600160a01b039490941692019190915250919050565b805161290081613c0b565b8051801515811461290057600080fd5b600082601f83011261448c57600080fd5b8151602061449c613d5983613d15565b82815260089290921b840181019181810190868411156144bb57600080fd5b8286015b84811015613d985761010081890312156144d95760008081fd5b6144e1613ca0565b81516144ec81613ec6565b8152818501518582015260408083015190820152606061450d818401614460565b908201526080828101519082015260a0808301519082015260c0808301519082015260e061453c81840161446b565b90820152835291830191610100016144bf565b6000806040838503121561456257600080fd5b82516001600160401b038082111561457957600080fd5b6145858683870161447b565b9350602085015191508082111561459b57600080fd5b506145a88582860161447b565b9150509250929050565b6000602082840312156145c457600080fd5b5051919050565b600080600080600080600060e0888a0312156145e657600080fd5b5050855160208701516040880151606089015160808a015160a08b015160c0909b0151949c939b50919990985090965094509092509050565b6020808252818101527f4f776e61626c653a2063616c6c6572206973206e6f7420746865206f776e6572604082015260600190565b6000602080838503121561466757600080fd5b82516001600160401b0381111561467d57600080fd5b8301601f8101851361468e57600080fd5b805161469c613d5982613d15565b81815260079190911b820183019083810190878311156146bb57600080fd5b928401925b8284101561471257608084890312156146d95760008081fd5b6146e1613cc3565b84518152858501518682015260408086015190820152606080860151908201528252608090930192908401906146c0565b979650505050505050565b60006060828403121561472f57600080fd5b604051606081018181106001600160401b038211171561475157614751613c61565b8060405250809150825161476481613b08565b8082525060208301516020820152604083015160408201525092915050565b60008060c0838503121561479657600080fd5b6147a0848461471d565b91506147af846060850161471d565b90509250929050565b8481526020810184905260c081016147d36040830185613de9565b82516001600160a01b031660608301526020830151608083015260409092015160a0909101529392505050565b600080821280156001600160ff1b03849003851316156148225761482261439d565b600160ff1b839003841281161561483b5761483b61439d565b50500190565b600080600080600080600080610100898b03121561485e57600080fd5b885197506020890151965060408901519550606089015194506080890151935060a0890151925060c0890151915061489860e08a0161446b565b90509295985092959890939650565b602081526000611ccb602083018461431a56fe4abde63c3e81aefa5764b017968bc473e83e093d7e1a10247d19e0a3e4124018a26469706673582212206734e48768a77e3bf5671c4f7c76fc2ff62d2764d38d8d17c35feacbad57063464736f6c63430008090033",
  "deployedBytecode": "0x6080604052600436106103355760003560e01c806385323e1a116101ab578063bfd10cf6116100f7578063eb990c5911610095578063f2fde38b1161006f578063f2fde38b14610a36578063faca409b14610a56578063fc70081014610a76578063fd4584e614610a9657600080fd5b8063eb990c59146109c2578063ebb91416146109e2578063f1eaebae14610a0257600080fd5b8063d1cc9976116100d1578063d1cc997614610958578063e09976591461096d578063e99d053814610982578063eb092a26146109a257600080fd5b8063bfd10cf614610905578063bfe61a2814610925578063c11333b11461093857600080fd5b80638da5cb5b11610164578063a02be3dc1161013e578063a02be3dc14610890578063a4c66bde146108b0578063b3cb8450146108d0578063b8f117cd146108f057600080fd5b80638da5cb5b1461083b5780639519832b14610850578063953dbcaa1461087057600080fd5b806385323e1a1461077b578063862fd6e51461079b578063891d5965146107bb5780638a981745146107db5780638b36d833146107fb5780638c197d8d1461081b57600080fd5b806349f2ccbf1161028557806372d563ef116102235780637b588aaa116101fd5780637b588aaa146107065780637c63039d146107265780637deb671e14610746578063826b47e81461075b57600080fd5b806372d563ef14610699578063766cb64e146106b9578063798ac0c0146106d957600080fd5b80635c3477651161025f5780635c347765146105ef5780635ca65d571461064457806370c641a614610664578063715018a61461068457600080fd5b806349f2ccbf146105565780634e78fecc1461057657806355aceb4e146105c257600080fd5b806329985e5a116102f2578063381ada1f116102cc578063381ada1f146104c65780633d03b9da146104f3578063448255c714610515578063482f267a1461052857600080fd5b806329985e5a1461047a5780632af64bd3146104915780632e6c5e67146104a657600080fd5b806301cf22351461033a57806303e5fb591461036f57806304f3bcec146103c95780630594de6e146103f6578063062ea2941461042557806317b72ff41461045a575b600080fd5b34801561034657600080fd5b5061035a610355366004613a23565b610af3565b60405190151581526020015b60405180910390f35b34801561037b57600080fd5b506103bb61038a366004613a45565b60009081527ffd57fda692f2d6ebd63634bcff565f4a5bd9da5175c220bd0ae0da0b8f69d317602052604090205490565b604051908152602001610366565b3480156103d557600080fd5b506103de610c1a565b6040516001600160a01b039091168152602001610366565b34801561040257600080fd5b50610416610411366004613a5e565b610c3b565b60405161036693929190613ac5565b34801561043157600080fd5b50610445610440366004613b1d565b610cfa565b60408051928352602083019190915201610366565b34801561046657600080fd5b506103bb610475366004613b56565b610d93565b34801561048657600080fd5b5061048f610e29565b005b34801561049d57600080fd5b5061035a610fde565b3480156104b257600080fd5b5061035a6104c1366004613a45565b611144565b3480156104d257600080fd5b506104e66104e1366004613a45565b611164565b6040516103669190613b86565b3480156104ff57600080fd5b506105086111e2565b6040516103669190613bd3565b61035a610523366004613c18565b611304565b34801561053457600080fd5b50610548610543366004613da3565b61149e565b604051610366929190613e98565b34801561056257600080fd5b5061035a610571366004613eda565b611539565b34801561058257600080fd5b506103bb610591366004613a45565b60009081527ffd57fda692f2d6ebd63634bcff565f4a5bd9da5175c220bd0ae0da0b8f69d319602052604090205490565b3480156105ce57600080fd5b506105e26105dd366004613a45565b611682565b6040516103669190613f08565b3480156105fb57600080fd5b5061060f61060a366004613b56565b6117f3565b604080519788526020880196909652948601939093526060850191909152608084015260a083015260c082015260e001610366565b34801561065057600080fd5b5061048f61065f366004613a23565b6118de565b34801561067057600080fd5b506103bb61067f366004613b56565b61197c565b34801561069057600080fd5b5061048f611a16565b3480156106a557600080fd5b5061048f6106b4366004613a23565b611a51565b3480156106c557600080fd5b5061048f6106d4366004613f1b565b611ae4565b3480156106e557600080fd5b506106f96106f4366004613da3565b611c3b565b6040516103669190613f56565b34801561071257600080fd5b5061048f610721366004613a23565b611cd2565b34801561073257600080fd5b5061035a610741366004613fba565b611d40565b34801561075257600080fd5b5061035a611f55565b34801561076757600080fd5b5061035a610776366004613ffe565b612032565b34801561078757600080fd5b506103de610796366004613a23565b6120a9565b3480156107a757600080fd5b5061035a6107b6366004613ffe565b61210b565b3480156107c757600080fd5b506103bb6107d6366004613a45565b61214c565b3480156107e757600080fd5b506103de6107f6366004613a23565b61216a565b34801561080757600080fd5b5061048f610816366004613a45565b61219c565b34801561082757600080fd5b5061048f610836366004613a45565b6123d3565b34801561084757600080fd5b506103de612461565b34801561085c57600080fd5b506103bb61086b366004613b56565b612489565b34801561087c57600080fd5b5061041661088b366004613a5e565b61251e565b34801561089c57600080fd5b506105e26108ab366004613a45565b61257d565b3480156108bc57600080fd5b506103bb6108cb366004613ffe565b6126e7565b3480156108dc57600080fd5b5061035a6108eb366004613a45565b612872565b3480156108fc57600080fd5b5061048f612905565b34801561091157600080fd5b506105e2610920366004613a45565b6129d9565b61035a610933366004613c18565b612b43565b34801561094457600080fd5b5061035a61095336600461401b565b612c99565b34801561096457600080fd5b5061035a612f0f565b34801561097957600080fd5b50610508612f24565b34801561098e57600080fd5b5061035a61099d366004613a45565b612f67565b3480156109ae57600080fd5b506105e26109bd366004613a45565b612ff5565b3480156109ce57600080fd5b5061048f6109dd36600461405c565b61315f565b3480156109ee57600080fd5b5061035a6109fd366004613c18565b6132f1565b348015610a0e57600080fd5b507ffd57fda692f2d6ebd63634bcff565f4a5bd9da5175c220bd0ae0da0b8f69d31a546103bb565b348015610a4257600080fd5b5061048f610a51366004613ffe565b6133d4565b348015610a6257600080fd5b5061035a610a71366004613c18565b613471565b348015610a8257600080fd5b50610508610a91366004613ffe565b613554565b348015610aa257600080fd5b50610ab6610ab13660046140a2565b613582565b604080519889526020890197909752958701949094526060860192909252608085015260a084015260c0830152151560e082015261010001610366565b600060026000541415610b215760405162461bcd60e51b8152600401610b18906140d7565b60405180910390fd5b6002600090815583908390610b3461364a565b6000848152600791909101602090815260408083208584529091529020546001600160a01b03161415610b795760405162461bcd60e51b8152600401610b189061410e565b610b81612f0f565b15610b9e5760405162461bcd60e51b8152600401610b1890614138565b604051632097fb8960e01b815273__$bfa1fc126f9f960b1bd3bae8c14d9c594e$__90632097fb8990610bd990889088903390600401614164565b60006040518083038186803b158015610bf157600080fd5b505af4158015610c05573d6000803e3d6000fd5b50505050600192505050600160005592915050565b60006000805160206148bb8339815191525b546001600160a01b0316919050565b60608060606000610c4a61364a565b600088815260079190910160209081526040808320898452909152908190205490516325fb168b60e11b8152600481018790526001600160a01b0390911691508190634bf62d16906024015b60006040518083038186803b158015610cae57600080fd5b505afa158015610cc2573d6000803e3d6000fd5b505050506040513d6000823e601f3d908101601f19168201604052610cea91908101906141de565b9350935093505093509350939050565b60008073__$e7d72ce98f1dce1f33c815a57604cff5ab$__63062ea2948686866040518463ffffffff1660e01b8152600401610d3893929190614164565b604080518083038186803b158015610d4f57600080fd5b505af4158015610d63573d6000803e3d6000fd5b505050506040513d601f19601f82011682018060405250810190610d879190614265565b90969095509350505050565b6040516295a47160e71b815260009073__$e7d72ce98f1dce1f33c815a57604cff5ab$__90634ad2388090610dd090869085908790600401614164565b6101206040518083038186803b158015610de957600080fd5b505af4158015610dfd573d6000803e3d6000fd5b505050506040513d601f19601f82011682018060405250810190610e219190614289565b519392505050565b6000610e336111e2565b905060005b8151811015610fd2576000828281518110610e5557610e55614304565b602002602001015190506000610e766000805160206148bb83398151915290565b54604080517f5265736f6c766572206d697373696e67207461726765743a200000000000000060208201526039808201869052825180830390910181526059820192839052636795dbcd60e01b9092526001600160a01b0390921691636795dbcd91610ee791869190605d01614367565b60206040518083038186803b158015610eff57600080fd5b505afa158015610f13573d6000803e3d6000fd5b505050506040513d601f19601f82011682018060405250810190610f379190614380565b60008381527f4abde63c3e81aefa5764b017968bc473e83e093d7e1a10247d19e0a3e4124019602090815260409182902080546001600160a01b0319166001600160a01b03851690811790915582518681529182015281519293507f88a93678a3692f6789d9546fc621bf7234b101ddb7d4fe479455112831b8aa68929081900390910190a150508080610fca906143b3565b915050610e38565b50610fdb61366e565b50565b600080610fe96111e2565b905060005b815181101561113b57600082828151811061100b5761100b614304565b6020026020010151905061102a6000805160206148bb83398151915290565b600082815260019190910160205260409020546001600160a01b03166000805160206148bb833981519152546040516321f8a72160e01b8152600481018490526001600160a01b03909116906321f8a7219060240160206040518083038186803b15801561109757600080fd5b505afa1580156110ab573d6000803e3d6000fd5b505050506040513d601f19601f820116820180604052508101906110cf9190614380565b6001600160a01b0316141580611119575060008181527f4abde63c3e81aefa5764b017968bc473e83e093d7e1a10247d19e0a3e412401960205260409020546001600160a01b0316155b15611128576000935050505090565b5080611133816143b3565b915050610fee565b50600191505090565b600061114e61364a565b6000928352600801602052506040902054151590565b606061116e61364a565b60050160008381526020019081526020016000208054806020026020016040519081016040528092919081815260200182805480156111d657602002820191906000526020600020905b81546001600160a01b031681526001909101906020018083116111b8575b50505050509050919050565b60408051600580825260c082019092526060916020820160a080368337019050509050742132b0b1b7b7283937bc3ca1b7b73a3937b63632b960591b8160008151811061123157611231614304565b6020026020010181815250507121bab93932b731bca1b7b73a3937b63632b960711b8160018151811061126657611266614304565b6020026020010181815250507011d95b995cda5cd5985b1d5955985d5b1d607a1b8160028151811061129a5761129a614304565b6020026020010181815250506a14995cd95c9d99519d5b9960aa1b816003815181106112c8576112c8614304565b60200260200101818152505069151bdad95b95985d5b1d60b21b816004815181106112f5576112f5614304565b60200260200101818152505090565b6000600260005414156113295760405162461bcd60e51b8152600401610b18906140d7565b600260009081558690869061133c61364a565b6000848152600791909101602090815260408083208584529091529020546001600160a01b031614156113815760405162461bcd60e51b8152600401610b189061410e565b611389612f0f565b156113a65760405162461bcd60e51b8152600401610b1890614138565b6113ae6136f1565b6040516396994e3760e01b8152336004820152602481018a9052604481018790526001600160a01b0391909116906396994e379034906064016000604051808303818588803b15801561140057600080fd5b505af1158015611414573d6000803e3d6000fd5b505060405163102cdc6b60e11b815273__$bfa1fc126f9f960b1bd3bae8c14d9c594e$__9350632059b8d6925061145a91508b908b9033908c908c908c906004016143ce565b60006040518083038186803b15801561147257600080fd5b505af4158015611486573d6000803e3d6000fd5b50505050600192505050600160005595945050505050565b60608073__$bfa1fc126f9f960b1bd3bae8c14d9c594e$__63482f267a85856040518363ffffffff1660e01b81526004016114da92919061440c565b60006040518083038186803b1580156114f257600080fd5b505af4158015611506573d6000803e3d6000fd5b505050506040513d6000823e601f3d908101601f1916820160405261152e919081019061454f565b909590945092505050565b60006002600054141561155e5760405162461bcd60e51b8152600401610b18906140d7565b600260009081558490849061157161364a565b6000848152600791909101602090815260408083208584529091529020546001600160a01b031614156115b65760405162461bcd60e51b8152600401610b189061410e565b6115be612f0f565b156115db5760405162461bcd60e51b8152600401610b1890614138565b60006115e561364a565b6000888152600791909101602090815260408083208984529091529081902054905163504b89bd60e01b815233600482015265ffffffffffff871660248201526001600160a01b039091169150819063504b89bd90604401600060405180830381600087803b15801561165757600080fd5b505af115801561166b573d6000803e3d6000fd5b505050506001935050505060016000559392505050565b6060600061168e61364a565b600084815260059190910160205260409020546001600160401b038111156116b8576116b8613c61565b6040519080825280602002602001820160405280156116e1578160200160208202803683370190505b50905060005b6116ef61364a565b600085815260059190910160205260409020548110156117ec57600061171361364a565b6005016000868152602001908152602001600020828154811061173857611738614304565b6000918252602091829020015460408051631b3508b760e01b815290516001600160a01b0390921693508392631b3508b792600480840193829003018186803b15801561178457600080fd5b505afa158015611798573d6000803e3d6000fd5b505050506040513d601f19601f820116820180604052508101906117bc91906145b2565b8383815181106117ce576117ce614304565b602090810291909101015250806117e4816143b3565b9150506116e7565b5092915050565b600080600080600080600061182c8961180a61364a565b6001600160a01b038b1660009081526009919091016020526040902090613700565b156118d257604051635c34776560e01b8152600481018a90526001600160a01b038916602482015273__$e7d72ce98f1dce1f33c815a57604cff5ab$__90635c3477659060440160e06040518083038186803b15801561188b57600080fd5b505af415801561189f573d6000803e3d6000fd5b505050506040513d601f19601f820116820180604052508101906118c391906145cb565b96509650965096509650965096505b92959891949750929550565b336118e7612461565b6001600160a01b03161461190d5760405162461bcd60e51b8152600401610b189061461f565b604051635ca65d5760e01b8152600481018390526024810182905273__$e049441b2d898ade92927f540debd09cf4$__90635ca65d57906044015b60006040518083038186803b15801561196057600080fd5b505af4158015611974573d6000803e3d6000fd5b505050505050565b6040516295a47160e71b815260009073__$e7d72ce98f1dce1f33c815a57604cff5ab$__90634ad23880906119b990869085908790600401614164565b6101206040518083038186803b1580156119d257600080fd5b505af41580156119e6573d6000803e3d6000fd5b505050506040513d601f19601f82011682018060405250810190611a0a9190614289565b61010001519392505050565b33611a1f612461565b6001600160a01b031614611a455760405162461bcd60e51b8152600401610b189061461f565b611a4f6000613718565b565b611a59612f0f565b15611a765760405162461bcd60e51b8152600401610b1890614138565b33611a7f612461565b6001600160a01b031614611aa55760405162461bcd60e51b8152600401610b189061461f565b6040516372d563ef60e01b8152600481018390526024810182905273__$53b43b4bdeb2460d1113627ef627de0cf6$__906372d563ef90604401611948565b33611aed612461565b6001600160a01b031614611b135760405162461bcd60e51b8152600401610b189061461f565b60008311611b635760405162461bcd60e51b815260206004820152601760248201527f496e76616c696420636f6d706f756e6420666163746f720000000000000000006044820152606401610b18565b611b6c85611144565b15611baf5760405162461bcd60e51b8152602060048201526013602482015272105b1c9958591e481a5b9a5d1a585b1a5e9959606a1b6044820152606401610b18565b60405163d3f43b7960e01b815260048101869052602481018590526044810184905273__$53b43b4bdeb2460d1113627ef627de0cf6$__9063d3f43b799060640160006040518083038186803b158015611c0857600080fd5b505af4158015611c1c573d6000803e3d6000fd5b50505050611c2a85836118de565b611c348582611cd2565b5050505050565b6040516301e62b0360e61b815260609073__$e7d72ce98f1dce1f33c815a57604cff5ab$__9063798ac0c090611c77908690869060040161440c565b60006040518083038186803b158015611c8f57600080fd5b505af4158015611ca3573d6000803e3d6000fd5b505050506040513d6000823e601f3d908101601f19168201604052611ccb9190810190614654565b9392505050565b33611cdb612461565b6001600160a01b031614611d015760405162461bcd60e51b8152600401610b189061461f565b604051633dac455560e11b8152600481018390526024810182905273__$e049441b2d898ade92927f540debd09cf4$__90637b588aaa90604401611948565b600060026000541415611d655760405162461bcd60e51b8152600401610b18906140d7565b6002600055611d72612f0f565b15611d8f5760405162461bcd60e51b8152600401610b1890614138565b60005b8351811015611f45576000848281518110611daf57611daf614304565b6020026020010151905060008073__$53b43b4bdeb2460d1113627ef627de0cf6$__636a23a95c84886040518363ffffffff1660e01b8152600401611dfe929190918252602082015260400190565b60c06040518083038186803b158015611e1657600080fd5b505af4158015611e2a573d6000803e3d6000fd5b505050506040513d601f19601f82011682018060405250810190611e4e9190614783565b6040516397fe451560e01b8152919350915073__$bfa1fc126f9f960b1bd3bae8c14d9c594e$__906397fe451590611e919086908a9060009088906004016147b8565b60006040518083038186803b158015611ea957600080fd5b505af4158015611ebd573d6000803e3d6000fd5b50506040516397fe451560e01b815273__$bfa1fc126f9f960b1bd3bae8c14d9c594e$__92506397fe45159150611eff9086908a9060019087906004016147b8565b60006040518083038186803b158015611f1757600080fd5b505af4158015611f2b573d6000803e3d6000fd5b505050505050508080611f3d906143b3565b915050611d92565b5060019050600160005592915050565b600060026000541415611f7a5760405162461bcd60e51b8152600401610b18906140d7565b6002600055611f87612f0f565b611fc45760405162461bcd60e51b815260206004820152600e60248201526d139bdd081d195c9b5a5b985d195960921b6044820152606401610b18565b6040516304b4274f60e21b815233600482015273__$e7d72ce98f1dce1f33c815a57604cff5ab$__906312d09d3c9060240160006040518083038186803b15801561200e57600080fd5b505af4158015612022573d6000803e3d6000fd5b5050505060019050600160005590565b60405163104d68fd60e31b81526001600160a01b038216600482015260009073__$e7d72ce98f1dce1f33c815a57604cff5ab$__9063826b47e8906024015b60006040518083038186803b15801561208957600080fd5b505af415801561209d573d6000803e3d6000fd5b50600195945050505050565b60006120b361364a565b600084815260069190910160205260408120906120ce61364a565b600095865260070160209081526040808720958752948152848620546001600160a01b039081168352908201929092529092019092205416919050565b6000612115612f0f565b8015612146575061212461364a565b6001600160a01b0383166000908152600d91909101602052604090205460ff16155b92915050565b600061215661364a565b600092835260080160205250604090205490565b600061217461364a565b600093845260070160209081526040808520938552929052509020546001600160a01b031690565b600260005414156121bf5760405162461bcd60e51b8152600401610b18906140d7565b6002600090815581906121d061364a565b60008381526005919091016020526040902054116122495760405162461bcd60e51b815260206004820152603060248201527f4e6f206c656e64696e67206d61726b65747320657869737420666f722061207360448201526f706563696669632063757272656e637960801b6064820152608401610b18565b612251612f0f565b1561226e5760405162461bcd60e51b8152600401610b1890614138565b600073__$53b43b4bdeb2460d1113627ef627de0cf6$__63a3d54d8c846122c08660009081527ffd57fda692f2d6ebd63634bcff565f4a5bd9da5175c220bd0ae0da0b8f69d317602052604090205490565b6040516001600160e01b031960e085901b1681526004810192909252602482015260440160206040518083038186803b1580156122fc57600080fd5b505af4158015612310573d6000803e3d6000fd5b505050506040513d601f19601f8201168201806040525081019061233491906145b2565b905073__$e7d72ce98f1dce1f33c815a57604cff5ab$__63300074c9848361235a613789565b6040518463ffffffff1660e01b815260040161237893929190614164565b60206040518083038186803b15801561239057600080fd5b505af41580156123a4573d6000803e3d6000fd5b505050506040513d601f19601f820116820180604052508101906123c891906145b2565b505060016000555050565b336123dc612461565b6001600160a01b0316146124025760405162461bcd60e51b8152600401610b189061461f565b604051638c197d8d60e01b81526004810182905273__$e049441b2d898ade92927f540debd09cf4$__90638c197d8d9060240160006040518083038186803b15801561244d57600080fd5b505af4158015611c34573d6000803e3d6000fd5b60007f9acda75aebd150dd434541a4747a6dc606f4f1a59662477e67daf1fc0bf9e0aa610c2c565b604051639519832b60e01b8152600481018390526001600160a01b038216602482015260009073__$e7d72ce98f1dce1f33c815a57604cff5ab$__90639519832b9060440160206040518083038186803b1580156124e657600080fd5b505af41580156124fa573d6000803e3d6000fd5b505050506040513d601f19601f82011682018060405250810190611ccb91906145b2565b6060806060600061252d61364a565b6000888152600791909101602090815260408083208984529091529081902054905163d866d35560e01b8152600481018790526001600160a01b039091169150819063d866d35590602401610c96565b6060600061258961364a565b600084815260059190910160205260409020546001600160401b038111156125b3576125b3613c61565b6040519080825280602002602001820160405280156125dc578160200160208202803683370190505b50905060005b6125ea61364a565b600085815260059190910160205260409020548110156117ec57600061260e61364a565b6005016000868152602001908152602001600020828154811061263357612633614304565b600091825260209182902001546040805163e16695b560e01b815290516001600160a01b039092169350839263e16695b592600480840193829003018186803b15801561267f57600080fd5b505afa158015612693573d6000803e3d6000fd5b505050506040513d601f19601f820116820180604052508101906126b791906145b2565b8383815181106126c9576126c9614304565b602090810291909101015250806126df816143b3565b9150506125e2565b6000806126f261364a565b6001600160a01b03841660009081526009919091016020526040812091505b61271a82613793565b81101561286b57600061272d838361379d565b9050600073__$e7d72ce98f1dce1f33c815a57604cff5ab$__634ad23880836000896040518463ffffffff1660e01b815260040161276d93929190614164565b6101206040518083038186803b15801561278657600080fd5b505af415801561279a573d6000803e3d6000fd5b505050506040513d601f19601f820116820180604052508101906127be9190614289565b5190506127c96137a9565b604051633c7f634960e11b815260048101849052602481018390526001600160a01b0391909116906378fec6929060440160206040518083038186803b15801561281257600080fd5b505afa158015612826573d6000803e3d6000fd5b505050506040513d601f19601f8201168201806040525081019061284a91906145b2565b6128549086614800565b945050508080612863906143b3565b915050612711565b5050919050565b600061287c612f0f565b156128995760405162461bcd60e51b8152600401610b1890614138565b336128a2612461565b6001600160a01b0316146128c85760405162461bcd60e51b8152600401610b189061461f565b604051630b3cb84560e41b81526004810183905273__$53b43b4bdeb2460d1113627ef627de0cf6$__9063b3cb845090602401612071565b919050565b600260005414156129285760405162461bcd60e51b8152600401610b18906140d7565b6002600055612935612f0f565b156129525760405162461bcd60e51b8152600401610b1890614138565b3361295b612461565b6001600160a01b0316146129815760405162461bcd60e51b8152600401610b189061461f565b73__$53b43b4bdeb2460d1113627ef627de0cf6$__63b8f117cd6040518163ffffffff1660e01b815260040160006040518083038186803b1580156129c557600080fd5b505af41580156123c8573d6000803e3d6000fd5b606060006129e561364a565b600084815260059190910160205260409020546001600160401b03811115612a0f57612a0f613c61565b604051908082528060200260200182016040528015612a38578160200160208202803683370190505b50905060005b612a4661364a565b600085815260059190910160205260409020548110156117ec576000612a6a61364a565b60050160008681526020019081526020016000208281548110612a8f57612a8f614304565b60009182526020918290200154604080516371613c2d60e01b815290516001600160a01b03909216935083926371613c2d92600480840193829003018186803b158015612adb57600080fd5b505afa158015612aef573d6000803e3d6000fd5b505050506040513d601f19601f82011682018060405250810190612b1391906145b2565b838381518110612b2557612b25614304565b60209081029190910101525080612b3b816143b3565b915050612a3e565b600060026000541415612b685760405162461bcd60e51b8152600401610b18906140d7565b6002600090815586908690612b7b61364a565b6000848152600791909101602090815260408083208584529091529020546001600160a01b03161415612bc05760405162461bcd60e51b8152600401610b189061410e565b612bc8612f0f565b15612be55760405162461bcd60e51b8152600401610b1890614138565b612bed6136f1565b6040516396994e3760e01b8152336004820152602481018a9052604481018790526001600160a01b0391909116906396994e379034906064016000604051808303818588803b158015612c3f57600080fd5b505af1158015612c53573d6000803e3d6000fd5b50506040516317992e1960e01b815273__$bfa1fc126f9f960b1bd3bae8c14d9c594e$__93506317992e19925061145a91508b908b9033908c908c908c906004016143ce565b6000333014612e04576001546201000090046001600160a01b031615612cd2576040516337affdbf60e11b815260040160405180910390fd5b6001805462010000600160b01b03191633620100000217905583836000612cf761364a565b6000848152600791909101602090815260408083208584529091529020546001600160a01b03161415612d3c5760405162461bcd60e51b8152600401610b189061410e565b612d44612f0f565b15612d615760405162461bcd60e51b8152600401610b1890614138565b604051635436151f60e11b81523360048201526001600160a01b038516602482015260448101889052606481018790526084810186905273__$e7d72ce98f1dce1f33c815a57604cff5ab$__9063a86c2a3e9060a40160006040518083038186803b158015612dcf57600080fd5b505af4158015612de3573d6000803e3d6000fd5b505050506001925050506001805462010000600160b01b0319169055612f07565b83836000612e1061364a565b6000848152600791909101602090815260408083208584529091529020546001600160a01b03161415612e555760405162461bcd60e51b8152600401610b189061410e565b612e5d612f0f565b15612e7a5760405162461bcd60e51b8152600401610b1890614138565b604051635436151f60e11b81523360048201526001600160a01b038516602482015260448101889052606481018790526084810186905273__$e7d72ce98f1dce1f33c815a57604cff5ab$__9063a86c2a3e9060a40160006040518083038186803b158015612ee857600080fd5b505af4158015612efc573d6000803e3d6000fd5b505050506001925050505b949350505050565b600080612f1a61364a565b6002015411905090565b6040805160018082528183019092526060916020808301908036833701905050905069151bdad95b95985d5b1d60b21b816000815181106112f5576112f5614304565b6000612f71612f0f565b15612f8e5760405162461bcd60e51b8152600401610b1890614138565b33612f97612461565b6001600160a01b031614612fbd5760405162461bcd60e51b8152600401610b189061461f565b604051631d33a0a760e31b81526004810183905273__$53b43b4bdeb2460d1113627ef627de0cf6$__9063e99d053890602401612071565b6060600061300161364a565b600084815260059190910160205260409020546001600160401b0381111561302b5761302b613c61565b604051908082528060200260200182016040528015613054578160200160208202803683370190505b50905060005b61306261364a565b600085815260059190910160205260409020548110156117ec57600061308661364a565b600501600086815260200190815260200160002082815481106130ab576130ab614304565b6000918252602091829020015460408051632f05aa6d60e11b815290516001600160a01b0390921693508392635e0b54da92600480840193829003018186803b1580156130f757600080fd5b505afa15801561310b573d6000803e3d6000fd5b505050506040513d601f19601f8201168201806040525081019061312f91906145b2565b83838151811061314157613141614304565b60209081029190910101525080613157816143b3565b91505061305a565b600154610100900460ff161580801561317c57506001805460ff16105b806131955750303b15801561319557506001805460ff16145b6131f85760405162461bcd60e51b815260206004820152602e60248201527f496e697469616c697a61626c653a20636f6e747261637420697320616c72656160448201526d191e481a5b9a5d1a585b1a5e995960921b6064820152608401610b18565b6001805460ff191681179055801561321a576001805461ff0019166101001790555b60006132246137b3565b6001600160a01b031614156132865760405162461bcd60e51b815260206004820152602260248201527f4d7573742062652063616c6c65642066726f6d2070726f787920636f6e74726160448201526118dd60f21b6064820152608401610b18565b8261328f61364a565b6001015561329d85836137db565b6132a68461381c565b8015611c34576001805461ff00191681556040519081527f7f26b83ff96e1f2b6a682f133852f6798a09c465da95921460cefb38474024989060200160405180910390a15050505050565b6000600260005414156133165760405162461bcd60e51b8152600401610b18906140d7565b600260009081558690869061332961364a565b6000848152600791909101602090815260408083208584529091529020546001600160a01b0316141561336e5760405162461bcd60e51b8152600401610b189061410e565b613376612f0f565b156133935760405162461bcd60e51b8152600401610b1890614138565b6040516317992e1960e01b815273__$bfa1fc126f9f960b1bd3bae8c14d9c594e$__906317992e199061145a908b908b9033908c908c908c906004016143ce565b336133dd612461565b6001600160a01b0316146134035760405162461bcd60e51b8152600401610b189061461f565b6001600160a01b0381166134685760405162461bcd60e51b815260206004820152602660248201527f4f776e61626c653a206e6577206f776e657220697320746865207a65726f206160448201526564647265737360d01b6064820152608401610b18565b610fdb81613718565b6000600260005414156134965760405162461bcd60e51b8152600401610b18906140d7565b60026000908155869086906134a961364a565b6000848152600791909101602090815260408083208584529091529020546001600160a01b031614156134ee5760405162461bcd60e51b8152600401610b189061410e565b6134f6612f0f565b156135135760405162461bcd60e51b8152600401610b1890614138565b60405163102cdc6b60e11b815273__$bfa1fc126f9f960b1bd3bae8c14d9c594e$__90632059b8d69061145a908b908b9033908c908c908c906004016143ce565b606061214661356161364a565b6001600160a01b0384166000908152600991909101602052604090206138b1565b604051637ea2c27360e11b81526001600160a01b03841660048201526024810183905260448101829052600090819081908190819081908190819073__$e7d72ce98f1dce1f33c815a57604cff5ab$__9063fd4584e6906064016101006040518083038186803b1580156135f557600080fd5b505af4158015613609573d6000803e3d6000fd5b505050506040513d601f19601f8201168201806040525081019061362d9190614841565b975097509750975097509750975097509397509397509397509397565b7f8041b8421ebd495cc61f38c788c9eb100daccf9bd36aa0bb920b7a15b2e0496590565b6136766137a9565b6001600160a01b031663ecd8d2fb6040518163ffffffff1660e01b815260040160206040518083038186803b1580156136ae57600080fd5b505afa1580156136c2573d6000803e3d6000fd5b505050506040513d601f19601f820116820180604052508101906136e691906145b2565b6136ee61364a565b55565b60006136fb6138bc565b905090565b60008181526001830160205260408120541515611ccb565b7f9acda75aebd150dd434541a4747a6dc606f4f1a59662477e67daf1fc0bf9e0aa80546001600160a01b038381166001600160a01b0319831681179093556040519116919082907f8be0079c531659141344cd1fd0a4f28419497f9722a3daafe3b4186f6b6457e090600090a35050565b60006136fb6138d4565b6000612146825490565b6000611ccb83836138ed565b60006136fb613917565b60007f360894a13ba1a3210667c828492db98dca3e2076cc3735a920a3ca505d382bbc610c2c565b6137e482613718565b604051638c197d8d60e01b81526004810182905273__$e049441b2d898ade92927f540debd09cf4$__90638c197d8d90602401611948565b6000805160206148bb833981519152546001600160a01b0316156138825760405162461bcd60e51b815260206004820152601b60248201527f5265736f6c766572207265676973746572656420616c726561647900000000006044820152606401610b18565b6000805160206148bb83398151915280546001600160a01b0319166001600160a01b0392909216919091179055565b606061214682613937565b60006136fb69151bdad95b95985d5b1d60b21b613992565b60006136fb6a14995cd95c9d99519d5b9960aa1b613992565b600082600001828154811061390457613904614304565b9060005260206000200154905092915050565b60006136fb7121bab93932b731bca1b7b73a3937b63632b960711b613992565b6060816000018054806020026020016040519081016040528092919081815260200182805480156111d657602002820191906000526020600020905b8154815260200190600101908083116139735750505050509050919050565b60008181527f4abde63c3e81aefa5764b017968bc473e83e093d7e1a10247d19e0a3e41240196020908152604080832054815170026b4b9b9b4b7339030b2323932b9b99d1607d1b9381019390935260318084018690528251808503909101815260519093019091526001600160a01b031690816117ec5760405162461bcd60e51b8152600401610b1891906148a7565b60008060408385031215613a3657600080fd5b50508035926020909101359150565b600060208284031215613a5757600080fd5b5035919050565b600080600060608486031215613a7357600080fd5b505081359360208301359350604090920135919050565b600081518084526020808501945080840160005b83811015613aba57815187529582019590820190600101613a9e565b509495945050505050565b606081526000613ad86060830186613a8a565b8281036020840152613aea8186613a8a565b90508281036040840152613afe8185613a8a565b9695505050505050565b6001600160a01b0381168114610fdb57600080fd5b600080600060608486031215613b3257600080fd5b83359250602084013591506040840135613b4b81613b08565b809150509250925092565b60008060408385031215613b6957600080fd5b823591506020830135613b7b81613b08565b809150509250929050565b6020808252825182820181905260009190848201906040850190845b81811015613bc75783516001600160a01b031683529284019291840191600101613ba2565b50909695505050505050565b6020808252825182820181905260009190848201906040850190845b81811015613bc757835183529284019291840191600101613bef565b60028110610fdb57600080fd5b600080600080600060a08688031215613c3057600080fd5b85359450602086013593506040860135613c4981613c0b565b94979396509394606081013594506080013592915050565b634e487b7160e01b600052604160045260246000fd5b60405161012081016001600160401b0381118282101715613c9a57613c9a613c61565b60405290565b60405161010081016001600160401b0381118282101715613c9a57613c9a613c61565b604051608081016001600160401b0381118282101715613c9a57613c9a613c61565b604051601f8201601f191681016001600160401b0381118282101715613d0d57613d0d613c61565b604052919050565b60006001600160401b03821115613d2e57613d2e613c61565b5060051b60200190565b600082601f830112613d4957600080fd5b81356020613d5e613d5983613d15565b613ce5565b82815260059290921b84018101918181019086841115613d7d57600080fd5b8286015b84811015613d985780358352918301918301613d81565b509695505050505050565b60008060408385031215613db657600080fd5b82356001600160401b03811115613dcc57600080fd5b613dd885828601613d38565b9250506020830135613b7b81613b08565b60028110613e0757634e487b7160e01b600052602160045260246000fd5b9052565b600081518084526020808501945080840160005b83811015613aba578151805165ffffffffffff168852838101518489015260408082015190890152606080820151613e59828b0182613de9565b50506080818101519089015260a0808201519089015260c0808201519089015260e0908101511515908801526101009096019590820190600101613e1f565b604081526000613eab6040830185613e0b565b8281036020840152613ebd8185613e0b565b95945050505050565b65ffffffffffff81168114610fdb57600080fd5b600080600060608486031215613eef57600080fd5b83359250602084013591506040840135613b4b81613ec6565b602081526000611ccb6020830184613a8a565b600080600080600060a08688031215613f3357600080fd5b505083359560208501359550604085013594606081013594506080013592509050565b602080825282518282018190526000919060409081850190868401855b82811015613fad57815180518552868101518786015285810151868601526060908101519085015260809093019290850190600101613f73565b5091979650505050505050565b60008060408385031215613fcd57600080fd5b82356001600160401b03811115613fe357600080fd5b613fef85828601613d38565b95602094909401359450505050565b60006020828403121561401057600080fd5b8135611ccb81613b08565b6000806000806080858703121561403157600080fd5b843593506020850135925060408501359150606085013561405181613b08565b939692955090935050565b6000806000806080858703121561407257600080fd5b843561407d81613b08565b9350602085013561408d81613b08565b93969395505050506040820135916060013590565b6000806000606084860312156140b757600080fd5b83356140c281613b08565b95602085013595506040909401359392505050565b6020808252601f908201527f5265656e7472616e637947756172643a207265656e7472616e742063616c6c00604082015260600190565b60208082526010908201526f496e76616c6964206d6174757269747960801b604082015260600190565b602080825260129082015271105b1c9958591e481d195c9b5a5b985d195960721b604082015260600190565b92835260208301919091526001600160a01b0316604082015260600190565b600082601f83011261419457600080fd5b815160206141a4613d5983613d15565b82815260059290921b840181019181810190868411156141c357600080fd5b8286015b84811015613d9857805183529183019183016141c7565b6000806000606084860312156141f357600080fd5b83516001600160401b038082111561420a57600080fd5b61421687838801614183565b9450602086015191508082111561422c57600080fd5b61423887838801614183565b9350604086015191508082111561424e57600080fd5b5061425b86828701614183565b9150509250925092565b6000806040838503121561427857600080fd5b505080516020909101519092909150565b6000610120828403121561429c57600080fd5b6142a4613c77565b825181526020830151602082015260408301516040820152606083015160608201526080830151608082015260a083015160a082015260c083015160c082015260e083015160e08201526101008084015181830152508091505092915050565b634e487b7160e01b600052603260045260246000fd5b6000815180845260005b8181101561434057602081850181015186830182015201614324565b81811115614352576000602083870101525b50601f01601f19169290920160200192915050565b828152604060208201526000612f07604083018461431a565b60006020828403121561439257600080fd5b8151611ccb81613b08565b634e487b7160e01b600052601160045260246000fd5b60006000198214156143c7576143c761439d565b5060010190565b868152602081018690526001600160a01b038516604082015260c081016143f86060830186613de9565b608082019390935260a00152949350505050565b604080825283519082018190526000906020906060840190828701845b8281101561444557815184529284019290840190600101614429565b5050506001600160a01b039490941692019190915250919050565b805161290081613c0b565b8051801515811461290057600080fd5b600082601f83011261448c57600080fd5b8151602061449c613d5983613d15565b82815260089290921b840181019181810190868411156144bb57600080fd5b8286015b84811015613d985761010081890312156144d95760008081fd5b6144e1613ca0565b81516144ec81613ec6565b8152818501518582015260408083015190820152606061450d818401614460565b908201526080828101519082015260a0808301519082015260c0808301519082015260e061453c81840161446b565b90820152835291830191610100016144bf565b6000806040838503121561456257600080fd5b82516001600160401b038082111561457957600080fd5b6145858683870161447b565b9350602085015191508082111561459b57600080fd5b506145a88582860161447b565b9150509250929050565b6000602082840312156145c457600080fd5b5051919050565b600080600080600080600060e0888a0312156145e657600080fd5b5050855160208701516040880151606089015160808a015160a08b015160c0909b0151949c939b50919990985090965094509092509050565b6020808252818101527f4f776e61626c653a2063616c6c6572206973206e6f7420746865206f776e6572604082015260600190565b6000602080838503121561466757600080fd5b82516001600160401b0381111561467d57600080fd5b8301601f8101851361468e57600080fd5b805161469c613d5982613d15565b81815260079190911b820183019083810190878311156146bb57600080fd5b928401925b8284101561471257608084890312156146d95760008081fd5b6146e1613cc3565b84518152858501518682015260408086015190820152606080860151908201528252608090930192908401906146c0565b979650505050505050565b60006060828403121561472f57600080fd5b604051606081018181106001600160401b038211171561475157614751613c61565b8060405250809150825161476481613b08565b8082525060208301516020820152604083015160408201525092915050565b60008060c0838503121561479657600080fd5b6147a0848461471d565b91506147af846060850161471d565b90509250929050565b8481526020810184905260c081016147d36040830185613de9565b82516001600160a01b031660608301526020830151608083015260409092015160a0909101529392505050565b600080821280156001600160ff1b03849003851316156148225761482261439d565b600160ff1b839003841281161561483b5761483b61439d565b50500190565b600080600080600080600080610100898b03121561485e57600080fd5b885197506020890151965060408901519550606089015194506080890151935060a0890151925060c0890151915061489860e08a0161446b565b90509295985092959890939650565b602081526000611ccb602083018461431a56fe4abde63c3e81aefa5764b017968bc473e83e093d7e1a10247d19e0a3e4124018a26469706673582212206734e48768a77e3bf5671c4f7c76fc2ff62d2764d38d8d17c35feacbad57063464736f6c63430008090033",
  "libraries": {
    "FundManagementLogic": "0xE1Bca95415f50d4aA079a6867B038E81f10Abf83",
    "LendingMarketOperationLogic": "0x532c59030709889E6f18213D7C430944891ab5e3",
    "LendingMarketUserLogic": "0xE0eA0cF692b9432081F89514b1bC8B7960c2c3EE",
    "LendingMarketConfigurationLogic": "0x6cd068A7aD872B3bFfCE344964e54c007F1504F8"
  },
  "implementation": "0x02333262bC18D8377c78192CeB525FCF2B19D178",
  "devdoc": {
    "kind": "dev",
    "methods": {
      "acceptedContracts()": {
        "details": "The contact name listed in this method is also needed to be listed `requiredContracts` method."
      },
      "calculateFunds(bytes32,address)": {
        "params": {
          "_ccy": "Currency name in bytes32",
          "_user": "User's address"
        },
        "returns": {
          "borrowedAmount": "The borrowed amount due to the borrow orders being filled on the order book",
          "claimableAmount": "The claimable amount due to the lending orders being filled on the order book",
          "collateralAmount": "The actual collateral amount that is calculated by netting using the haircut.",
          "debtAmount": "The debt amount due to the borrow orders being filled on the order book",
          "lentAmount": "The lent amount due to the lend orders being filled on the order book",
          "workingBorrowOrdersAmount": "The working orders amount on the borrow order book",
          "workingLendOrdersAmount": "The working orders amount on the lend order book"
        }
      },
      "calculateTotalFundsInBaseCurrency(address,bytes32,uint256)": {
        "params": {
          "_depositAmount": "Amount to deposit",
          "_depositCcy": "Currency name to be used as deposit",
          "_user": "User's address"
        }
      },
      "cancelOrder(bytes32,uint256,uint48)": {
        "params": {
          "_ccy": "Currency name in bytes32 of the selected market",
          "_maturity": "The maturity of the selected market",
          "_orderId": "Market order id"
        }
      },
      "cleanUpAllFunds(address)": {
        "params": {
          "_user": "User's address"
        }
      },
      "cleanUpFunds(bytes32,address)": {
        "params": {
          "_ccy": "Currency name in bytes32",
          "_user": "User's address"
        }
      },
      "createLendingMarket(bytes32,uint256)": {
        "params": {
          "_ccy": "Main currency for new lending market",
          "_openingDate": "Timestamp when the lending market opens"
        }
      },
      "createOrder(bytes32,uint256,uint8,uint256,uint256)": {
        "params": {
          "_amount": "Amount of funds the maker wants to borrow/lend",
          "_ccy": "Currency name in bytes32 of the selected market",
          "_maturity": "The maturity of the selected market",
          "_side": "Order position type, Borrow or Lend",
          "_unitPrice": "Amount of unit price taker wish to borrow/lend"
        },
        "returns": {
          "_0": "True if the execution of the operation succeeds"
        }
      },
      "createPreOrder(bytes32,uint256,uint8,uint256,uint256)": {
        "params": {
          "_amount": "Amount of funds the maker wants to borrow/lend",
          "_ccy": "Currency name in bytes32 of the selected market",
          "_maturity": "The maturity of the selected market",
          "_side": "Order position type, Borrow or Lend",
          "_unitPrice": "Amount of unit price taker wish to borrow/lend"
        },
        "returns": {
          "_0": "True if the execution of the operation succeeds"
        }
      },
      "depositAndCreateOrder(bytes32,uint256,uint8,uint256,uint256)": {
        "params": {
          "_amount": "Amount of funds the maker wants to borrow/lend",
          "_ccy": "Currency name in bytes32 of the selected market",
          "_maturity": "The maturity of the selected market",
          "_side": "Order position type, Borrow or Lend",
          "_unitPrice": "Amount of unit price taker wish to borrow/lend"
        },
        "returns": {
          "_0": "True if the execution of the operation succeeds"
        }
      },
      "depositAndCreatePreOrder(bytes32,uint256,uint8,uint256,uint256)": {
        "params": {
          "_amount": "Amount of funds the maker wants to borrow/lend",
          "_ccy": "Currency name in bytes32 of the selected market",
          "_maturity": "The maturity of the selected market",
          "_side": "Order position type, Borrow or Lend",
          "_unitPrice": "Amount of unit price taker wish to borrow/lend"
        },
        "returns": {
          "_0": "True if the execution of the operation succeeds"
        }
      },
      "executeItayoseCalls(bytes32[],uint256)": {
        "params": {
          "_currencies": "Currency name list in bytes32",
          "_maturity": "The maturity of the selected market"
        }
      },
      "executeLiquidationCall(bytes32,bytes32,uint256,address)": {
        "params": {
          "_collateralCcy": "Currency name to be used as collateral",
          "_debtCcy": "Currency name to be used as debt",
          "_debtMaturity": "The market maturity of the debt",
          "_user": "User's address"
        },
        "returns": {
          "_0": "True if the execution of the operation succeeds"
        }
      },
      "executeRedemption()": {
        "returns": {
          "_0": "True if the execution of the operation succeeds"
        }
      },
      "getBorrowOrderBook(bytes32,uint256,uint256)": {
        "params": {
          "_ccy": "Currency name in bytes32",
          "_limit": "The limit number to get",
          "_maturity": "The maturity of the market"
        },
        "returns": {
          "amounts": "The array of borrow order amounts",
          "quantities": "The array of borrow order quantities",
          "unitPrices": "The array of borrow unit prices"
        }
      },
      "getBorrowUnitPrices(bytes32)": {
        "params": {
          "_ccy": "Currency name in bytes32"
        },
        "returns": {
          "_0": "Array with the borrowing prices per future value of the lending market"
        }
      },
      "getCircuitBreakerLimitRange(bytes32)": {
        "params": {
          "_ccy": "Currency name in bytes32"
        },
        "returns": {
          "_0": "The auto-roll fee rate received by protocol"
        }
      },
      "getFutureValueVault(bytes32,uint256)": {
        "params": {
          "_ccy": "Currency name in bytes32",
          "_maturity": "The maturity of the market"
        },
        "returns": {
          "_0": "The lending market address"
        }
      },
      "getGenesisDate(bytes32)": {
        "params": {
          "_ccy": "Currency name in bytes32"
        },
        "returns": {
          "_0": "The genesis date"
        }
      },
      "getGenesisValue(bytes32,address)": {
        "params": {
          "_ccy": "Currency name in bytes32 for Lending Market",
          "_user": "User's address"
        },
        "returns": {
          "genesisValue": "The genesis value"
        }
      },
      "getLendOrderBook(bytes32,uint256,uint256)": {
        "params": {
          "_ccy": "Currency name in bytes32",
          "_limit": "The limit number to get",
          "_maturity": "The maturity of the market"
        },
        "returns": {
          "amounts": "The array of lend order amounts",
          "quantities": "The array of lend order quantities",
          "unitPrices": "The array of borrow unit prices"
        }
      },
      "getLendUnitPrices(bytes32)": {
        "params": {
          "_ccy": "Currency name in bytes32"
        },
        "returns": {
          "_0": "Array with the lending prices per future value of the lending market"
        }
      },
      "getLendingMarket(bytes32,uint256)": {
        "params": {
          "_ccy": "Currency name in bytes32",
          "_maturity": "The maturity of the market"
        },
        "returns": {
          "_0": "The lending market address"
        }
      },
      "getLendingMarkets(bytes32)": {
        "params": {
          "_ccy": "Currency name in bytes32"
        },
        "returns": {
          "_0": "Array with the lending market address"
        }
      },
      "getMaturities(bytes32)": {
        "params": {
          "_ccy": "Currency name in bytes32"
        },
        "returns": {
          "_0": "Array with the lending market maturity"
        }
      },
      "getMidUnitPrices(bytes32)": {
        "params": {
          "_ccy": "Currency name in bytes32"
        },
        "returns": {
          "_0": "Array with the mid prices per future value of the lending market"
        }
      },
      "getObservationPeriod()": {
        "returns": {
          "_0": "The observation period to calculate the volume-weighted average price of transactions"
        }
      },
      "getOrderFeeRate(bytes32)": {
        "params": {
          "_ccy": "Currency name in bytes32"
        },
        "returns": {
          "_0": "The order fee rate received by protocol"
        }
      },
      "getOrders(bytes32[],address)": {
        "params": {
          "_ccys": "Currency name list in bytes32",
          "_user": "User's address"
        },
        "returns": {
          "activeOrders": "The array of active orders in the order book",
          "inactiveOrders": "The array of inactive orders"
        }
      },
      "getPosition(bytes32,uint256,address)": {
        "params": {
          "_ccy": "Currency name in bytes32",
          "_maturity": "The maturity of the selected market",
          "_user": "User's address"
        },
        "returns": {
          "futureValue": "The future value of the position",
          "presentValue": "The present value of the position"
        }
      },
      "getPositions(bytes32[],address)": {
        "params": {
          "_ccys": "Currency name list in bytes32",
          "_user": "User's address"
        },
        "returns": {
          "positions": "The array of active positions"
        }
      },
      "getTotalPresentValue(bytes32,address)": {
        "params": {
          "_ccy": "Currency name in bytes32 for Lending Market",
          "_user": "User's address"
        },
        "returns": {
          "totalPresentValue": "The total present value"
        }
      },
      "getTotalPresentValueInBaseCurrency(address)": {
        "params": {
          "_user": "User's address"
        },
        "returns": {
          "totalPresentValue": "The total present value in base currency"
        }
      },
      "getUsedCurrencies(address)": {
        "params": {
          "_user": "User's address"
        },
        "returns": {
          "_0": "The array of the currency"
        }
      },
      "initialize(address,address,uint256,uint256)": {
        "details": "Function is invoked by the proxy contract when the contract is added to the ProxyController.",
        "params": {
          "_marketBasePeriod": "The base period for market maturity",
          "_observationPeriod": "The observation period to calculate the volume-weighted average price of transactions",
          "_owner": "The address of the contract owner",
          "_resolver": "The address of the Address Resolver contract"
        }
      },
      "initializeLendingMarket(bytes32,uint256,uint256,uint256,uint256)": {
        "params": {
          "_ccy": "Currency name in bytes32",
          "_circuitBreakerLimitRange": "The circuit breaker limit range",
          "_compoundFactor": "The initial compound factor when the initial market is opened",
          "_genesisDate": "The genesis date when the initial market is opened",
          "_orderFeeRate": "The order fee rate received by protocol"
        }
      },
      "isInitializedLendingMarket(bytes32)": {
        "params": {
          "_ccy": "Currency name in bytes32"
        },
        "returns": {
          "_0": "The boolean if the lending market is initialized or not"
        }
      },
      "isRedemptionRequired(address)": {
        "returns": {
          "_0": "The boolean if the user needs to redeem the funds"
        }
      },
      "isTerminated()": {
        "returns": {
          "_0": "The boolean if the protocol has not been terminated"
        }
      },
      "owner()": {
        "details": "Returns the address of the current owner."
      },
      "pauseLendingMarkets(bytes32)": {
        "params": {
          "_ccy": "Currency for pausing all lending markets"
        },
        "returns": {
          "_0": "True if the execution of the operation succeeds"
        }
      },
      "renounceOwnership()": {
        "details": "Leaves the contract without owner. It will not be possible to call `onlyOwner` functions anymore. Can only be called by the current owner. NOTE: Renouncing ownership will leave the contract without an owner, thereby removing any functionality that is only available to the owner."
      },
      "requiredContracts()": {
        "details": "The contract name list is in `./libraries/Contracts.sol`."
      },
      "rotateLendingMarkets(bytes32)": {
        "params": {
          "_ccy": "Currency name in bytes32 of the selected market"
        }
      },
      "transferOwnership(address)": {
        "details": "Transfers ownership of the contract to a new account (`newOwner`). Can only be called by the current owner."
      },
      "unpauseLendingMarkets(bytes32)": {
        "params": {
          "_ccy": "Currency name in bytes32"
        },
        "returns": {
          "_0": "True if the execution of the operation succeeds"
        }
      },
      "unwindPosition(bytes32,uint256)": {
        "params": {
          "_ccy": "Currency name in bytes32 of the selected market",
          "_maturity": "The maturity of the selected market"
        }
      },
      "updateCircuitBreakerLimitRange(bytes32,uint256)": {
        "params": {
          "_ccy": "Currency name in bytes32",
          "_limitRange": "The circuit breaker limit range"
        }
      },
      "updateObservationPeriod(uint256)": {
        "params": {
          "_observationPeriod": "The observation period to calculate the volume-weighted average price of transactions"
        }
      },
      "updateOrderFeeRate(bytes32,uint256)": {
        "params": {
          "_ccy": "Currency name in bytes32",
          "_orderFeeRate": "The order fee rate received by protocol"
        }
      }
    },
    "version": 1
  },
  "userdoc": {
    "kind": "user",
    "methods": {
      "acceptedContracts()": {
        "notice": "Returns contract names that can call this contract."
      },
      "calculateFunds(bytes32,address)": {
        "notice": "Gets the funds that are calculated from the user's lending and borrowing order list for the selected currency."
      },
      "calculateTotalFundsInBaseCurrency(address,bytes32,uint256)": {
        "notice": "Gets the funds that are calculated from the user's lending and borrowing order list for all currencies in base currency."
      },
      "cancelOrder(bytes32,uint256,uint48)": {
        "notice": "Cancels the own order."
      },
      "cleanUpAllFunds(address)": {
        "notice": "Clean up all funds of the user"
      },
      "cleanUpFunds(bytes32,address)": {
        "notice": "Clean up user funds used for lazy evaluation by the following actions: - Removes order IDs that is already filled on the order book. - Convert Future values that have already been auto-rolled to Genesis values."
      },
      "createLendingMarket(bytes32,uint256)": {
        "notice": "Deploys new Lending Market and save address at lendingMarkets mapping.Reverts on deployment market with existing currency and term"
      },
      "createOrder(bytes32,uint256,uint8,uint256,uint256)": {
        "notice": "Creates an order. Takes orders if the orders are matched, and places new order if not match it. In addition, converts the future value to the genesis value if there is future value in past maturity before the execution of order creation."
      },
      "createPreOrder(bytes32,uint256,uint8,uint256,uint256)": {
        "notice": "Creates a pre-order. A pre-order will only be accepted from 168 hours (7 days) to 1 hour before the market opens (Pre-order period). At the end of this period, Itayose will be executed."
      },
      "depositAndCreateOrder(bytes32,uint256,uint8,uint256,uint256)": {
        "notice": "Deposits funds and creates an order at the same time."
      },
      "depositAndCreatePreOrder(bytes32,uint256,uint8,uint256,uint256)": {
        "notice": "Deposits funds and creates a pre-order at the same time."
      },
      "executeEmergencyTermination()": {
        "notice": "Executes an emergency termination to stop the protocol. Once this function is executed, the protocol cannot be run again. Also, users will only be able to redeem and withdraw."
      },
      "executeItayoseCalls(bytes32[],uint256)": {
        "notice": "Executes Itayose calls per selected currencies."
      },
      "executeLiquidationCall(bytes32,bytes32,uint256,address)": {
        "notice": "Liquidates a lending or borrowing position if the user's coverage is hight."
      },
      "executeRedemption()": {
        "notice": "Redeems all lending and borrowing positions. This function uses the present value as of the termination date."
      },
      "getBorrowOrderBook(bytes32,uint256,uint256)": {
        "notice": "Gets the order book of borrow."
      },
      "getBorrowUnitPrices(bytes32)": {
        "notice": "Gets borrow prices per future value for the selected currency."
      },
      "getCircuitBreakerLimitRange(bytes32)": {
        "notice": "Gets the limit range in unit price for the circuit breaker"
      },
      "getFutureValueVault(bytes32,uint256)": {
        "notice": "Gets the feture value contract address for the selected currency and maturity."
      },
      "getGenesisDate(bytes32)": {
        "notice": "Gets the genesis date when the first market opens for the selected currency."
      },
      "getGenesisValue(bytes32,address)": {
        "notice": "Gets the genesis value of the account."
      },
      "getLendOrderBook(bytes32,uint256,uint256)": {
        "notice": "Gets the order book of lend."
      },
      "getLendUnitPrices(bytes32)": {
        "notice": "Gets lend prices per future value for the selected currency."
      },
      "getLendingMarket(bytes32,uint256)": {
        "notice": "Gets the lending market contract address for the selected currency and maturity."
      },
      "getLendingMarkets(bytes32)": {
        "notice": "Gets the lending market contract addresses for the selected currency."
      },
      "getMaturities(bytes32)": {
        "notice": "Gets maturities for the selected currency."
      },
      "getMidUnitPrices(bytes32)": {
        "notice": "Gets mid prices per future value for the selected currency."
      },
      "getObservationPeriod()": {
        "notice": "Gets the observation period"
      },
      "getOrderFeeRate(bytes32)": {
        "notice": "Gets the order fee rate"
      },
      "getOrders(bytes32[],address)": {
        "notice": "Gets user's active and inactive orders in the order book"
      },
      "getPosition(bytes32,uint256,address)": {
        "notice": "Gets user's active position from the future value vault"
      },
      "getPositions(bytes32[],address)": {
        "notice": "Gets user's active positions from the future value vaults"
      },
      "getTotalPresentValue(bytes32,address)": {
        "notice": "Gets the total present value of the account for selected currency."
      },
      "getTotalPresentValueInBaseCurrency(address)": {
        "notice": "Gets the total present value of the account converted to base currency."
      },
      "getUsedCurrencies(address)": {
        "notice": "Get all the currencies in which the user has lending positions or orders."
      },
      "initialize(address,address,uint256,uint256)": {
        "notice": "Initializes the contract."
      },
      "initializeLendingMarket(bytes32,uint256,uint256,uint256,uint256)": {
        "notice": "Initialize the lending market to set a genesis date and compound factor"
      },
      "isInitializedLendingMarket(bytes32)": {
        "notice": "Gets if the lending market is initialized."
      },
      "isRedemptionRequired(address)": {
        "notice": "Gets if the user needs to redeem the funds."
      },
      "isTerminated()": {
        "notice": "Gets if the protocol has not been terminated."
      },
      "pauseLendingMarkets(bytes32)": {
        "notice": "Pauses previously deployed lending market by currency"
      },
      "requiredContracts()": {
        "notice": "Returns the contract names used in this contract."
      },
      "rotateLendingMarkets(bytes32)": {
        "notice": "Rotates the lending markets. In this rotation, the following actions are happened. - Updates the maturity at the beginning of the market array. - Moves the beginning of the market array to the end of it (Market rotation). - Update the compound factor in this contract using the next market unit price. (Auto-rolls) - Convert the future value held by reserve funds into the genesis value"
      },
      "unpauseLendingMarkets(bytes32)": {
        "notice": "Unpauses previously deployed lending market by currency"
      },
      "unwindPosition(bytes32,uint256)": {
        "notice": "Unwinds user's lending or borrowing positions by creating an opposite position order."
      },
      "updateCircuitBreakerLimitRange(bytes32,uint256)": {
        "notice": "Updates the auto-roll fee rate"
      },
      "updateObservationPeriod(uint256)": {
        "notice": "Updates the observation period"
      },
      "updateOrderFeeRate(bytes32,uint256)": {
        "notice": "Updates the order fee rate"
      }
    },
    "notice": "Implements the module to manage separated lending order-book markets per maturity. This contract also works as a factory contract that can deploy(start)a new lending market for selected currency and maturity and has the calculation logic for the Genesis value in addition. Deployed Lending Markets are rotated and reused as it reaches the maturity date. At the time of rotation, a new maturity date is set and the compound factor is updated. The users mainly call this contract to create orders to lend or borrow funds.",
    "version": 1
  },
  "storageLayout": {
    "storage": [
      {
        "astId": 1150,
        "contract": "contracts/protocol/LendingMarketController.sol:LendingMarketController",
        "label": "_status",
        "offset": 0,
        "slot": "0",
        "type": "t_uint256"
      },
      {
        "astId": 995,
        "contract": "contracts/protocol/LendingMarketController.sol:LendingMarketController",
        "label": "_initialized",
        "offset": 0,
        "slot": "1",
        "type": "t_uint8"
      },
      {
        "astId": 998,
        "contract": "contracts/protocol/LendingMarketController.sol:LendingMarketController",
        "label": "_initializing",
        "offset": 1,
        "slot": "1",
        "type": "t_bool"
      },
      {
        "astId": 37412,
        "contract": "contracts/protocol/LendingMarketController.sol:LendingMarketController",
        "label": "lockedBy",
        "offset": 2,
        "slot": "1",
        "type": "t_address"
      }
    ],
    "types": {
      "t_address": {
        "encoding": "inplace",
        "label": "address",
        "numberOfBytes": "20"
      },
      "t_bool": {
        "encoding": "inplace",
        "label": "bool",
        "numberOfBytes": "1"
      },
      "t_uint256": {
        "encoding": "inplace",
        "label": "uint256",
        "numberOfBytes": "32"
      },
      "t_uint8": {
        "encoding": "inplace",
        "label": "uint8",
        "numberOfBytes": "1"
      }
    }
  }
}