{
  "address": "0x4925Bb46b4349033c11196A5B9a3e38BD939a471",
  "abi": [
    {
      "anonymous": false,
      "inputs": [
        {
          "indexed": false,
          "internalType": "bytes32",
          "name": "name",
          "type": "bytes32"
        },
        {
          "indexed": false,
          "internalType": "address",
          "name": "destination",
          "type": "address"
        }
      ],
      "name": "CacheUpdated",
      "type": "event"
    },
    {
      "anonymous": false,
      "inputs": [
        {
          "indexed": false,
          "internalType": "uint8",
          "name": "version",
          "type": "uint8"
        }
      ],
      "name": "Initialized",
      "type": "event"
    },
    {
      "anonymous": false,
      "inputs": [
        {
          "indexed": false,
          "internalType": "bytes32",
          "name": "ccy",
          "type": "bytes32"
        },
        {
          "indexed": false,
          "internalType": "uint256",
          "name": "term",
          "type": "uint256"
        },
        {
          "indexed": true,
          "internalType": "address",
          "name": "marketAddr",
          "type": "address"
        }
      ],
      "name": "LendingMarketCreated",
      "type": "event"
    },
    {
      "anonymous": false,
      "inputs": [
        {
          "indexed": false,
          "internalType": "bytes32",
          "name": "ccy",
          "type": "bytes32"
        }
      ],
      "name": "LendingMarketsPaused",
      "type": "event"
    },
    {
      "anonymous": false,
      "inputs": [
        {
          "indexed": false,
          "internalType": "bytes32",
          "name": "ccy",
          "type": "bytes32"
        }
      ],
      "name": "LendingMarketsUnpaused",
      "type": "event"
    },
    {
      "anonymous": false,
      "inputs": [
        {
          "indexed": true,
          "internalType": "address",
          "name": "previousOwner",
          "type": "address"
        },
        {
          "indexed": true,
          "internalType": "address",
          "name": "newOwner",
          "type": "address"
        }
      ],
      "name": "OwnershipTransferred",
      "type": "event"
    },
    {
      "inputs": [],
      "name": "acceptedContracts",
      "outputs": [
        {
          "internalType": "bytes32[]",
          "name": "contracts",
          "type": "bytes32[]"
        }
      ],
      "stateMutability": "pure",
      "type": "function"
    },
    {
      "inputs": [],
      "name": "buildCache",
      "outputs": [],
      "stateMutability": "nonpayable",
      "type": "function"
    },
    {
      "inputs": [
        {
          "internalType": "bytes32",
          "name": "_ccy",
          "type": "bytes32"
        },
        {
          "internalType": "uint256",
          "name": "_term",
          "type": "uint256"
        }
      ],
      "name": "deployLendingMarket",
      "outputs": [
        {
          "internalType": "address",
          "name": "market",
          "type": "address"
        }
      ],
      "stateMutability": "nonpayable",
      "type": "function"
    },
    {
      "inputs": [
        {
          "internalType": "bytes32",
          "name": "_ccy",
          "type": "bytes32"
        }
      ],
      "name": "getBorrowRatesForCcy",
      "outputs": [
        {
          "internalType": "uint256[]",
          "name": "",
          "type": "uint256[]"
        }
      ],
      "stateMutability": "view",
      "type": "function"
    },
    {
      "inputs": [
        {
          "internalType": "bytes32",
          "name": "_ccy",
          "type": "bytes32"
        }
      ],
      "name": "getDiscountFactorsForCcy",
      "outputs": [
        {
          "internalType": "uint256[]",
          "name": "",
          "type": "uint256[]"
        },
        {
          "internalType": "uint256[]",
          "name": "",
          "type": "uint256[]"
        }
      ],
      "stateMutability": "view",
      "type": "function"
    },
    {
      "inputs": [
        {
          "internalType": "bytes32",
          "name": "_ccy",
          "type": "bytes32"
        }
      ],
      "name": "getLendRatesForCcy",
      "outputs": [
        {
          "internalType": "uint256[]",
          "name": "",
          "type": "uint256[]"
        }
      ],
      "stateMutability": "view",
      "type": "function"
    },
    {
      "inputs": [
        {
          "internalType": "bytes32",
          "name": "_ccy",
          "type": "bytes32"
        },
        {
          "internalType": "uint256",
          "name": "_term",
          "type": "uint256"
        }
      ],
      "name": "getLendingMarket",
      "outputs": [
        {
          "internalType": "address",
          "name": "",
          "type": "address"
        }
      ],
      "stateMutability": "view",
      "type": "function"
    },
    {
      "inputs": [
        {
          "internalType": "bytes32",
          "name": "_ccy",
          "type": "bytes32"
        }
      ],
      "name": "getMidRatesForCcy",
      "outputs": [
        {
          "internalType": "uint256[]",
          "name": "",
          "type": "uint256[]"
        }
      ],
      "stateMutability": "view",
      "type": "function"
    },
    {
      "inputs": [
        {
          "internalType": "bytes32",
          "name": "_ccy",
          "type": "bytes32"
        }
      ],
      "name": "getSupportedTerms",
      "outputs": [
        {
          "internalType": "uint256[]",
          "name": "",
          "type": "uint256[]"
        }
      ],
      "stateMutability": "view",
      "type": "function"
    },
    {
      "inputs": [
        {
          "internalType": "address",
          "name": "owner",
          "type": "address"
        },
        {
          "internalType": "address",
          "name": "resolver",
          "type": "address"
        }
      ],
      "name": "initialize",
      "outputs": [],
      "stateMutability": "nonpayable",
      "type": "function"
    },
    {
      "inputs": [],
      "name": "isResolverCached",
      "outputs": [
        {
          "internalType": "bool",
          "name": "",
          "type": "bool"
        }
      ],
      "stateMutability": "view",
      "type": "function"
    },
    {
      "inputs": [],
      "name": "owner",
      "outputs": [
        {
          "internalType": "address",
          "name": "",
          "type": "address"
        }
      ],
      "stateMutability": "view",
      "type": "function"
    },
    {
      "inputs": [
        {
          "internalType": "bytes32",
          "name": "_ccy",
          "type": "bytes32"
        }
      ],
      "name": "pauseLendingMarkets",
      "outputs": [
        {
          "internalType": "bool",
          "name": "",
          "type": "bool"
        }
      ],
      "stateMutability": "nonpayable",
      "type": "function"
    },
    {
      "inputs": [
        {
          "components": [
            {
              "internalType": "bytes32",
              "name": "ccy",
              "type": "bytes32"
            },
            {
              "internalType": "uint256",
              "name": "term",
              "type": "uint256"
            },
            {
              "internalType": "enum ProtocolTypes.Side",
              "name": "side",
              "type": "uint8"
            },
            {
              "internalType": "uint256",
              "name": "amount",
              "type": "uint256"
            },
            {
              "internalType": "uint256",
              "name": "rate",
              "type": "uint256"
            }
          ],
          "internalType": "struct Order[]",
          "name": "orders",
          "type": "tuple[]"
        }
      ],
      "name": "placeBulkOrders",
      "outputs": [
        {
          "internalType": "bool",
          "name": "",
          "type": "bool"
        }
      ],
      "stateMutability": "nonpayable",
      "type": "function"
    },
    {
      "inputs": [],
      "name": "renounceOwnership",
      "outputs": [],
      "stateMutability": "nonpayable",
      "type": "function"
    },
    {
      "inputs": [],
      "name": "requiredContracts",
      "outputs": [
        {
          "internalType": "bytes32[]",
          "name": "contracts",
          "type": "bytes32[]"
        }
      ],
      "stateMutability": "pure",
      "type": "function"
    },
    {
      "inputs": [],
      "name": "resolver",
      "outputs": [
        {
          "internalType": "contract IAddressResolver",
          "name": "",
          "type": "address"
        }
      ],
      "stateMutability": "view",
      "type": "function"
    },
    {
      "inputs": [
        {
          "internalType": "address",
          "name": "newOwner",
          "type": "address"
        }
      ],
      "name": "transferOwnership",
      "outputs": [],
      "stateMutability": "nonpayable",
      "type": "function"
    },
    {
      "inputs": [
        {
          "internalType": "bytes32",
          "name": "_ccy",
          "type": "bytes32"
        }
      ],
      "name": "unpauseLendingMarkets",
      "outputs": [
        {
          "internalType": "bool",
          "name": "",
          "type": "bool"
        }
      ],
      "stateMutability": "nonpayable",
      "type": "function"
    }
  ],
  "transactionHash": "0x2efc804734b19747feeb3519a43c43bc5e363721412c70c1e464e4c274b04901",
  "args": [],
  "numDeployments": 2,
  "solcInputHash": "59521d43dda390ded85a5f23871f6cb8",
  "bytecode": "0x608060405234801561001057600080fd5b50615ac9806100206000396000f3fe60806040523480156200001157600080fd5b5060043610620001395760003560e01c806378f7b51611620000bb578063b3cb8450116200007a578063b3cb8450146200029a578063e099765914620002b1578063e52f2a9214620002b9578063e99d053814620002d0578063f2fde38b14620002e757600080fd5b806378f7b51614620002345780638a981745146200024b5780638da5cb5b146200026257806393e7c107146200026c5780639ccec206146200028357600080fd5b806329985e5a116200010857806329985e5a14620001d35780632af64bd314620001df5780633d03b9da14620001fa578063485cc9551462000213578063715018a6146200022a57600080fd5b806304f3bcec146200013e5780630a2b2008146200016f5780631b30a28814620001965780632717547f14620001bc575b600080fd5b60005462000152906001600160a01b031681565b6040516001600160a01b0390911681526020015b60405180910390f35b620001866200018036600462001b50565b620002fe565b6040516200016692919062001ba7565b620001ad620001a736600462001b50565b620003ca565b60405162000166919062001bd9565b620001ad620001cd36600462001b50565b62000599565b620001dd62000760565b005b620001e962000903565b604051901515815260200162000166565b6200020462000a30565b60405162000166919062001bf5565b620001dd6200022436600462001c51565b62000abe565b620001dd62000bbb565b620001526200024536600462001c8f565b62000bfd565b620001526200025c36600462001c8f565b620010a1565b62000152620010d2565b620001ad6200027d36600462001b50565b62001105565b620001e96200029436600462001d4f565b6200117d565b620001e9620002ab36600462001b50565b62001294565b606062000204565b620001ad620002ca36600462001b50565b62001440565b620001e9620002e136600462001b50565b62001607565b620001dd620002f836600462001e42565b620017a7565b60608060006200030e84620003ca565b90507380C3B044C44a894Ff257E572502F40fE0C28F508635e1a1383826200033562001850565b60010160008881526020019081526020016000206040518363ffffffff1660e01b81526004016200036892919062001e62565b60006040518083038186803b1580156200038157600080fd5b505af415801562000396573d6000803e3d6000fd5b505050506040513d6000823e601f3d908101601f19168201604052620003c0919081019062001f30565b9250925050915091565b60606000620003d862001850565b60010160008481526020019081526020016000208054806020026020016040519081016040528092919081815260200182805480156200043857602002820191906000526020600020905b81548152602001906001019080831162000423575b505050505090506000815167ffffffffffffffff8111156200045e576200045e62001cb2565b60405190808252806020026020018201604052801562000488578160200160208202803683370190505b50905060005b825181101562000591576000838281518110620004af57620004af62001f9b565b602002602001015190506000620004c562001850565b600088815260209182526040808220858352835290819020548151637d37adff60e11b815291516001600160a01b039091169350839263fa6f5bfe9260048082019391829003018186803b1580156200051d57600080fd5b505afa15801562000532573d6000803e3d6000fd5b505050506040513d601f19601f8201168201806040525081019062000558919062001fb1565b8484815181106200056d576200056d62001f9b565b60200260200101818152505050508080620005889062001fe1565b9150506200048e565b509392505050565b60606000620005a762001850565b60010160008481526020019081526020016000208054806020026020016040519081016040528092919081815260200182805480156200060757602002820191906000526020600020905b815481526020019060010190808311620005f2575b505050505090506000815167ffffffffffffffff8111156200062d576200062d62001cb2565b60405190808252806020026020018201604052801562000657578160200160208202803683370190505b50905060005b8251811015620005915760008382815181106200067e576200067e62001f9b565b6020026020010151905060006200069462001850565b600088815260209182526040808220858352835290819020548151634474638b60e11b815291516001600160a01b03909116935083926388e8c7169260048082019391829003018186803b158015620006ec57600080fd5b505afa15801562000701573d6000803e3d6000fd5b505050506040513d601f19601f8201168201806040525081019062000727919062001fb1565b8484815181106200073c576200073c62001f9b565b60200260200101818152505050508080620007579062001fe1565b9150506200065d565b60006200076c62000a30565b905060005b8151811015620008ff57600082828151811062000792576200079262001f9b565b6020026020010151905060008060009054906101000a90046001600160a01b03166001600160a01b0316636795dbcd83846040516020016200080091907f5265736f6c766572206d697373696e67207461726765743a20000000000000008152601981019190915260390190565b6040516020818303038152906040526040518363ffffffff1660e01b81526004016200082e9291906200204f565b60206040518083038186803b1580156200084757600080fd5b505afa1580156200085c573d6000803e3d6000fd5b505050506040513d601f19601f8201168201806040525081019062000882919062002072565b60008381526001602090815260409182902080546001600160a01b0319166001600160a01b0385169081179091558251868152918201529192507f88a93678a3692f6789d9546fc621bf7234b101ddb7d4fe479455112831b8aa68910160405180910390a150508080620008f69062001fe1565b91505062000771565b5050565b6000806200091062000a30565b905060005b815181101562000a2757600082828151811062000936576200093662001f9b565b60209081029190910181015160008181526001909252604080832054925490516321f8a72160e01b8152600481018390529193506001600160a01b039283169216906321f8a7219060240160206040518083038186803b1580156200099a57600080fd5b505afa158015620009af573d6000803e3d6000fd5b505050506040513d601f19601f82011682018060405250810190620009d5919062002072565b6001600160a01b031614158062000a0157506000818152600160205260409020546001600160a01b0316155b1562000a11576000935050505090565b508062000a1e8162001fe1565b91505062000915565b50600191505090565b60408051600280825260608083018452926020830190803683370190505090507121bab93932b731bca1b7b73a3937b63632b960711b8160008151811062000a7c5762000a7c62001f9b565b6020026020010181815250506c5465726d53747275637475726560981b8160018151811062000aaf5762000aaf62001f9b565b60200260200101818152505090565b600062000acc600162001874565b9050801562000ae5576002805461ff0019166101001790555b600062000af162001906565b6001600160a01b0316141562000b595760405162461bcd60e51b815260206004820152602260248201527f4d7573742062652063616c6c65642066726f6d2070726f787920636f6e74726160448201526118dd60f21b60648201526084015b60405180910390fd5b62000b64836200192f565b62000b6f82620019a0565b801562000bb6576002805461ff0019169055604051600181527f7f26b83ff96e1f2b6a682f133852f6798a09c465da95921460cefb38474024989060200160405180910390a15b505050565b3362000bc6620010d2565b6001600160a01b03161462000bef5760405162461bcd60e51b815260040162000b509062002092565b62000bfb60006200192f565b565b60003362000c0a620010d2565b6001600160a01b03161462000c335760405162461bcd60e51b815260040162000b509062002092565b62000c3d62001a1d565b6001600160a01b031663d4d4f6ce846040518263ffffffff1660e01b815260040162000c6b91815260200190565b60206040518083038186803b15801562000c8457600080fd5b505afa15801562000c99573d6000803e3d6000fd5b505050506040513d601f19601f8201168201806040525081019062000cbf9190620020c7565b62000d015760405162461bcd60e51b81526020600482015260116024820152704e4f4e20535550504f525445442043435960781b604482015260640162000b50565b62000d0b62001a44565b60405163072d3da560e01b8152600481018490526321aaa47b60e01b6024820152604481018590526001600160a01b03919091169063072d3da59060640160206040518083038186803b15801562000d6257600080fd5b505afa15801562000d77573d6000803e3d6000fd5b505050506040513d601f19601f8201168201806040525081019062000d9d9190620020c7565b62000de05760405162461bcd60e51b81526020600482015260126024820152714e4f4e20535550504f52544544205445524d60701b604482015260640162000b50565b600062000dec62001850565b60008581526020918252604080822086835290925220546001600160a01b03161462000e5b5760405162461bcd60e51b815260206004820181905260248201527f436f756c646e27742072657772697465206578697374696e67206d61726b6574604482015260640162000b50565b6000546040516001600160a01b03909116908490849062000e7c9062001adb565b6001600160a01b03909316835260208301919091526040820152606001604051809103906000f08015801562000eb6573d6000803e3d6000fd5b5090508062000ec462001850565b6000858152602091825260408082208683529092522080546001600160a01b0319166001600160a01b039290921691909117905562000f0262001850565b6000848152600191820160209081526040822080549384018155825290200182905562000f2e62001850565b600101600084815260200190815260200160002080548060200260200160405190810160405280929190818152602001828054801562000f8e57602002820191906000526020600020905b81548152602001906001019080831162000f79575b5050604051634f64581360e11b8152738Eb68e256006e6E73Ea3A8911f7AcF60C9c4A7E394639ec8b026945062000fcb9350915060040162001bd9565b60006040518083038186803b15801562000fe457600080fd5b505af415801562000ff9573d6000803e3d6000fd5b505050506040513d6000823e601f3d908101601f19168201604052620010239190810190620020eb565b6200102d62001850565b600101600085815260200190815260200160002090805190602001906200105692919062001ae9565b5060408051848152602081018490526001600160a01b038316917fc7a36e305c24c29c70a857e8120aadffc2c02608f44c29aac2c49d3a5f4c9812910160405180910390a292915050565b6000620010ad62001850565b600093845260209081526040808520938552929052509020546001600160a01b031690565b60007f9acda75aebd150dd434541a4747a6dc606f4f1a59662477e67daf1fc0bf9e0aa5b546001600160a01b0316919050565b60606200111162001850565b60010160008381526020019081526020016000208054806020026020016040519081016040528092919081815260200182805480156200117157602002820191906000526020600020905b8154815260200190600101908083116200115c575b50505050509050919050565b6000805b82518160ff1610156200128b576000838260ff1681518110620011a857620011a862001f9b565b602002602001015190506000620011be62001850565b8251600090815260209182526040808220838601518352909252819020548184015160608501516080860151935163db77751d60e01b81526001600160a01b039093169450849363db77751d936200121c9392919060040162002124565b602060405180830381600087803b1580156200123757600080fd5b505af11580156200124c573d6000803e3d6000fd5b505050506040513d601f19601f82011682018060405250810190620012729190620020c7565b505050808062001282906200215b565b91505062001181565b50600192915050565b600033620012a1620010d2565b6001600160a01b031614620012ca5760405162461bcd60e51b815260040162000b509062002092565b6000620012d662001850565b60010160008481526020019081526020016000208054806020026020016040519081016040528092919081815260200182805480156200133657602002820191906000526020600020905b81548152602001906001019080831162001321575b5050505050905060005b81518110156200140257600082828151811062001361576200136162001f9b565b6020026020010151905060006200137762001850565b60008781526020918252604080822085835290925281812054825163280dce3760e21b815292516001600160a01b039091169350839263a03738dc92600480830193919282900301818387803b158015620013d157600080fd5b505af1158015620013e6573d6000803e3d6000fd5b5050505050508080620013f99062001fe1565b91505062001340565b506040518381527f2925c70165043bf69d7a10fd5715a4f22827df42deaa6bf1968dcd8f83866e5a906020015b60405180910390a150600192915050565b606060006200144e62001850565b6001016000848152602001908152602001600020805480602002602001604051908101604052809291908181526020018280548015620014ae57602002820191906000526020600020905b81548152602001906001019080831162001499575b505050505090506000815167ffffffffffffffff811115620014d457620014d462001cb2565b604051908082528060200260200182016040528015620014fe578160200160208202803683370190505b50905060005b82518110156200059157600083828151811062001525576200152562001f9b565b6020026020010151905060006200153b62001850565b60008881526020918252604080822085835283529081902054815163017438bd60e71b815291516001600160a01b039091169350839263ba1c5e809260048082019391829003018186803b1580156200159357600080fd5b505afa158015620015a8573d6000803e3d6000fd5b505050506040513d601f19601f82011682018060405250810190620015ce919062001fb1565b848481518110620015e357620015e362001f9b565b60200260200101818152505050508080620015fe9062001fe1565b91505062001504565b60003362001614620010d2565b6001600160a01b0316146200163d5760405162461bcd60e51b815260040162000b509062002092565b60006200164962001850565b6001016000848152602001908152602001600020805480602002602001604051908101604052809291908181526020018280548015620016a957602002820191906000526020600020905b81548152602001906001019080831162001694575b5050505050905060005b815181101562001775576000828281518110620016d457620016d462001f9b565b602002602001015190506000620016ea62001850565b600087815260209182526040808220858352909252818120548251630b0863e760e11b815292516001600160a01b0390911693508392631610c7ce92600480830193919282900301818387803b1580156200174457600080fd5b505af115801562001759573d6000803e3d6000fd5b50505050505080806200176c9062001fe1565b915050620016b3565b506040518381527f13b9f265593f671f36073448e3ef1b7690f184c135f5392b1025e38781a5a1ea906020016200142f565b33620017b2620010d2565b6001600160a01b031614620017db5760405162461bcd60e51b815260040162000b509062002092565b6001600160a01b038116620018425760405162461bcd60e51b815260206004820152602660248201527f4f776e61626c653a206e6577206f776e657220697320746865207a65726f206160448201526564647265737360d01b606482015260840162000b50565b6200184d816200192f565b50565b7f8041b8421ebd495cc61f38c788c9eb100daccf9bd36aa0bb920b7a15b2e0496590565b600254600090610100900460ff1615620018c2578160ff1660011480156200189b5750303b155b620018ba5760405162461bcd60e51b815260040162000b50906200217e565b506000919050565b60025460ff808416911610620018ec5760405162461bcd60e51b815260040162000b50906200217e565b506002805460ff191660ff92909216919091179055600190565b60007f360894a13ba1a3210667c828492db98dca3e2076cc3735a920a3ca505d382bbc620010f6565b7f9acda75aebd150dd434541a4747a6dc606f4f1a59662477e67daf1fc0bf9e0aa80546001600160a01b038381166001600160a01b0319831681179093556040519116919082907f8be0079c531659141344cd1fd0a4f28419497f9722a3daafe3b4186f6b6457e090600090a35050565b6000546001600160a01b031615620019fb5760405162461bcd60e51b815260206004820152601b60248201527f7265736f6c766572207265676973746572656420616c72656164790000000000604482015260640162000b50565b600080546001600160a01b0319166001600160a01b0392909216919091179055565b600062001a3f7121bab93932b731bca1b7b73a3937b63632b960711b62001a5c565b905090565b600062001a3f6c5465726d53747275637475726560981b5b600081815260016020908152604080832054905170026b4b9b9b4b7339030b2323932b9b99d1607d1b92810192909252603182018490526001600160a01b031690811515906051016040516020818303038152906040529062001ad45760405162461bcd60e51b815260040162000b509190620021cc565b5092915050565b6138b280620021e283390190565b82805482825590600052602060002090810192821562001b27579160200282015b8281111562001b2757825182559160200191906001019062001b0a565b5062001b3592915062001b39565b5090565b5b8082111562001b35576000815560010162001b3a565b60006020828403121562001b6357600080fd5b5035919050565b600081518084526020808501945080840160005b8381101562001b9c5781518752958201959082019060010162001b7e565b509495945050505050565b60408152600062001bbc604083018562001b6a565b828103602084015262001bd0818562001b6a565b95945050505050565b60208152600062001bee602083018462001b6a565b9392505050565b6020808252825182820181905260009190848201906040850190845b8181101562001c2f5783518352928401929184019160010162001c11565b50909695505050505050565b6001600160a01b03811681146200184d57600080fd5b6000806040838503121562001c6557600080fd5b823562001c728162001c3b565b9150602083013562001c848162001c3b565b809150509250929050565b6000806040838503121562001ca357600080fd5b50508035926020909101359150565b634e487b7160e01b600052604160045260246000fd5b60405160a0810167ffffffffffffffff8111828210171562001cee5762001cee62001cb2565b60405290565b604051601f8201601f1916810167ffffffffffffffff8111828210171562001d205762001d2062001cb2565b604052919050565b600067ffffffffffffffff82111562001d455762001d4562001cb2565b5060051b60200190565b6000602080838503121562001d6357600080fd5b823567ffffffffffffffff81111562001d7b57600080fd5b8301601f8101851362001d8d57600080fd5b803562001da462001d9e8262001d28565b62001cf4565b81815260a0918202830184019184820191908884111562001dc457600080fd5b938501935b8385101562001e365780858a03121562001de35760008081fd5b62001ded62001cc8565b8535815286860135878201526040808701356002811062001e0e5760008081fd5b9082015260608681013590820152608080870135908201528352938401939185019162001dc9565b50979650505050505050565b60006020828403121562001e5557600080fd5b813562001bee8162001c3b565b60408152600062001e77604083018562001b6a565b60208382038185015281855480845282840191508660005282600020935060005b8181101562001eb65784548352600194850194928401920162001e98565b5090979650505050505050565b600082601f83011262001ed557600080fd5b8151602062001ee862001d9e8362001d28565b82815260059290921b8401810191818101908684111562001f0857600080fd5b8286015b8481101562001f25578051835291830191830162001f0c565b509695505050505050565b6000806040838503121562001f4457600080fd5b825167ffffffffffffffff8082111562001f5d57600080fd5b62001f6b8683870162001ec3565b9350602085015191508082111562001f8257600080fd5b5062001f918582860162001ec3565b9150509250929050565b634e487b7160e01b600052603260045260246000fd5b60006020828403121562001fc457600080fd5b5051919050565b634e487b7160e01b600052601160045260246000fd5b600060001982141562001ff85762001ff862001fcb565b5060010190565b6000815180845260005b81811015620020275760208185018101518683018201520162002009565b818111156200203a576000602083870101525b50601f01601f19169290920160200192915050565b8281526040602082015260006200206a604083018462001fff565b949350505050565b6000602082840312156200208557600080fd5b815162001bee8162001c3b565b6020808252818101527f4f776e61626c653a2063616c6c6572206973206e6f7420746865206f776e6572604082015260600190565b600060208284031215620020da57600080fd5b8151801515811462001bee57600080fd5b600060208284031215620020fe57600080fd5b815167ffffffffffffffff8111156200211657600080fd5b6200206a8482850162001ec3565b60608101600285106200214757634e487b7160e01b600052602160045260246000fd5b938152602081019290925260409091015290565b600060ff821660ff81141562002175576200217562001fcb565b60010192915050565b6020808252602e908201527f496e697469616c697a61626c653a20636f6e747261637420697320616c72656160408201526d191e481a5b9a5d1a585b1a5e995960921b606082015260800190565b60208152600062001bee602083018462001fff56fe60806040523480156200001157600080fd5b50604051620038b2380380620038b2833981016040819052620000349162000399565b60016002556003805460ff191690556200004e836200006b565b6005829055600681905562000062620000eb565b50505062000496565b6000546001600160a01b031615620000c95760405162461bcd60e51b815260206004820152601b60248201527f7265736f6c766572207265676973746572656420616c72656164790000000000604482015260640160405180910390fd5b600080546001600160a01b0319166001600160a01b0392909216919091179055565b6000620000f76200028e565b905060005b81518110156200028a5760008282815181106200011d576200011d620003d1565b6020026020010151905060008060009054906101000a90046001600160a01b03166001600160a01b0316636795dbcd83846040516020016200018b91907f5265736f6c766572206d697373696e67207461726765743a20000000000000008152601981019190915260390190565b6040516020818303038152906040526040518363ffffffff1660e01b8152600401620001b9929190620003e7565b60206040518083038186803b158015620001d257600080fd5b505afa158015620001e7573d6000803e3d6000fd5b505050506040513d601f19601f820116820180604052508101906200020d919062000447565b60008381526001602090815260409182902080546001600160a01b0319166001600160a01b0385169081179091558251868152918201529192507f88a93678a3692f6789d9546fc621bf7234b101ddb7d4fe479455112831b8aa68910160405180910390a15050808062000281906200046c565b915050620000fc565b5050565b604080516003808252608082019092526060916020820183803683370190505090507f436f6c6c61746572616c41676772656761746f7200000000000000000000000081600081518110620002e757620002e7620003d1565b6020026020010181815250507f4c656e64696e674d61726b6574436f6e74726f6c6c6572000000000000000000816001815181106200032a576200032a620003d1565b6020026020010181815250507f50726f64756374416464726573735265736f6c76657200000000000000000000816002815181106200036d576200036d620003d1565b60200260200101818152505090565b80516001600160a01b03811681146200039457600080fd5b919050565b600080600060608486031215620003af57600080fd5b620003ba846200037c565b925060208401519150604084015190509250925092565b634e487b7160e01b600052603260045260246000fd5b82815260006020604081840152835180604085015260005b818110156200041d57858101830151858201606001528201620003ff565b8181111562000430576000606083870101525b50601f01601f191692909201606001949350505050565b6000602082840312156200045a57600080fd5b62000465826200037c565b9392505050565b60006000198214156200048f57634e487b7160e01b600052601160045260246000fd5b5060010190565b61340c80620004a66000396000f3fe608060405234801561001057600080fd5b50600436106101375760003560e01c8063687e3b0b116100b8578063ba1c5e801161007c578063ba1c5e80146102c5578063d09ef241146102cd578063db77751d146102ed578063e099765914610300578063fa52dc0a14610308578063fa6f5bfe1461031157600080fd5b8063687e3b0b1461021f57806388e8c71614610228578063a03738dc14610230578063a85c38ef14610238578063abdddddd1461028a57600080fd5b80633d03b9da116100ff5780633d03b9da146101b7578063514fcac7146101cc57806354141a63146101df57806356861532146101e85780635c975abb1461021457600080fd5b806304f3bcec1461013c5780631610c7ce1461016c57806329985e5a146101765780632af64bd31461017e5780633644ca4514610196575b600080fd5b60005461014f906001600160a01b031681565b6040516001600160a01b0390911681526020015b60405180910390f35b610174610319565b005b610174610377565b61018661050a565b6040519015158152602001610163565b6101a96101a4366004613001565b610628565b604051908152602001610163565b6101bf6106b7565b604051610163919061303a565b6101866101da36600461307e565b610786565b6101a960045481565b61014f6101f636600461307e565b6000908152600760205260409020600301546001600160a01b031690565b60035460ff16610186565b6101a960055481565b6101a9610a0a565b610174610a1b565b61027a61024636600461307e565b600760205260009081526040902080546001820154600283015460039093015460ff9092169290916001600160a01b031684565b60405161016394939291906130cf565b61029d61029836600461307e565b610a72565b604080519586526020860194909452928401919091526060830152608082015260a001610163565b6101a9610b44565b6102e06102db36600461307e565b610b50565b6040516101639190613101565b6101866102fb366004613001565b610be7565b6101bf610cc5565b6101a960065481565b6101a9610d15565b61032233610d4f565b61036d5760405162461bcd60e51b81526020600482015260176024820152764f6e6c7920416363657074656420436f6e74726163747360481b60448201526064015b60405180910390fd5b610375610dc9565b565b60006103816106b7565b905060005b81518110156105065760008282815181106103a3576103a3613140565b6020026020010151905060008060009054906101000a90046001600160a01b03166001600160a01b0316636795dbcd838460405160200161041091907f5265736f6c766572206d697373696e67207461726765743a20000000000000008152601981019190915260390190565b6040516020818303038152906040526040518363ffffffff1660e01b815260040161043c9291906131a3565b60206040518083038186803b15801561045457600080fd5b505afa158015610468573d6000803e3d6000fd5b505050506040513d601f19601f8201168201806040525081019061048c91906131bc565b60008381526001602090815260409182902080546001600160a01b0319166001600160a01b0385169081179091558251868152918201529192507f88a93678a3692f6789d9546fc621bf7234b101ddb7d4fe479455112831b8aa68910160405180910390a1505080806104fe906131fb565b915050610386565b5050565b6000806105156106b7565b905060005b815181101561061f57600082828151811061053757610537613140565b60209081029190910181015160008181526001909252604080832054925490516321f8a72160e01b8152600481018390529193506001600160a01b039283169216906321f8a7219060240160206040518083038186803b15801561059a57600080fd5b505afa1580156105ae573d6000803e3d6000fd5b505050506040513d601f19601f820116820180604052508101906105d291906131bc565b6001600160a01b03161415806105fd57506000818152600160205260409020546001600160a01b0316155b1561060c576000935050505090565b5080610617816131fb565b91505061051a565b50600191505090565b60008084600181111561063d5761063d613097565b141561067d5761064e600a83610e5c565b61066a5760405162461bcd60e51b815260040161036490613216565b610676600a8385610ea4565b90506106b0565b610688600883610e5c565b6106a45760405162461bcd60e51b815260040161036490613216565b61067660088385610ea4565b9392505050565b604080516003808252608082019092526060916020820183803683370190505090507321b7b63630ba32b930b620b3b3b932b3b0ba37b960611b8160008151811061070457610704613140565b602002602001018181525050762632b73234b733a6b0b935b2ba21b7b73a3937b63632b960491b8160018151811061073e5761073e613140565b60200260200101818152505075283937b23ab1ba20b2323932b9b9a932b9b7b63b32b960511b8160028151811061077757610777613140565b60200260200101818152505090565b60008181526007602052604081206003015482906001600160a01b031633146107f15760405162461bcd60e51b815260206004820152601960248201527f4e6f2061636365737320746f2063616e63656c206f72646572000000000000006044820152606401610364565b6107f9610f90565b6000838152600760205260408082208151608081019092528054829060ff16600181111561082957610829613097565b600181111561083a5761083a613097565b815260018201546020820152600282015460408201526003909101546001600160a01b0316606090910152905060008151600181111561087c5761087c613097565b141561089e57602081015160408201516108999160089187610fd3565b6108d0565b6001815160018111156108b3576108b3613097565b14156108d057602081015160408201516108d091600a9187610fd3565b6000848152600760205260408120805460ff1916815560018101829055600281019190915560030180546001600160a01b031916905561090e611319565b6001600160a01b0316638cbf5e7882606001516005546127106107d086602001516109399190613261565b6109439190613280565b6040516001600160e01b031960e086901b1681526001600160a01b03909316600484015260248301919091526044820152606401600060405180830381600087803b15801561099157600080fd5b505af11580156109a5573d6000803e3d6000fd5b5050505080606001516001600160a01b03167ff523a00826d700cad9c1a6b2bb68b57937b6f76e89dc6fe5206389e1a97d3f80858360000151846020015185604001516040516109f894939291906132a2565b60405180910390a25060019392505050565b6000610a16600861133b565b905090565b610a2433610d4f565b610a6a5760405162461bcd60e51b81526020600482015260176024820152764f6e6c7920416363657074656420436f6e74726163747360481b6044820152606401610364565b610375611382565b6000818152600760205260408082208151608081019092528054839283928392839283929091829060ff166001811115610aae57610aae613097565b6001811115610abf57610abf613097565b815260018201546020820152600282015460408201526003909101546001600160a01b03166060909101529050600081516001811115610b0157610b01613097565b1415610b29576040810151610b1990600890896113fd565b9550955095509550955050610b3b565b6040810151610b1990600a90896113fd565b91939590929450565b6000610a16600a61133b565b604080516080810182526000808252602082018190529181018290526060810191909152600082815260076020526040908190208151608081019092528054829060ff166001811115610ba557610ba5613097565b6001811115610bb657610bb6613097565b815260018201546020820152600282015460408201526003909101546001600160a01b031660609091015292915050565b6000600280541415610c3b5760405162461bcd60e51b815260206004820152601f60248201527f5265656e7472616e637947756172643a207265656e7472616e742063616c6c006044820152606401610364565b60028055600080856001811115610c5457610c54613097565b1415610c8757610c66600a8486610ea4565b90508015610c8257610c7a60018286611499565b915050610cb9565b610ca7565b610c9360088486610ea4565b90508015610ca757610c7a60008286611499565b610cb285858561189b565b5060019150505b60016002559392505050565b60408051600180825281830190925260609160208083019080368337019050509050762632b73234b733a6b0b935b2ba21b7b73a3937b63632b960491b8160008151811061077757610777613140565b600080610d20610b44565b90506000610d2c610a0a565b90506000610d3a82846132c8565b9050610d47600282613280565b935050505090565b600080610d5a610cc5565b905060005b8151811015610dbf57610d8a828281518110610d7d57610d7d613140565b6020026020010151611b87565b6001600160a01b0316846001600160a01b03161415610dad575060019392505050565b80610db7816131fb565b915050610d5f565b5060009392505050565b60035460ff16610e125760405162461bcd60e51b815260206004820152601460248201527314185d5cd8589b194e881b9bdd081c185d5cd95960621b6044820152606401610364565b6003805460ff191690557f5db9ee0a495bf2e6ff9c91a7834c1ba4fdd244a5e8aa4e537bd38aeae4b073aa335b6040516001600160a01b03909116815260200160405180910390a1565b600081610e6b57506000610e9e565b8254821415610e7c57506001610e9e565b600082815260018401602052604090205415610e9a57506001610e9e565b5060005b92915050565b60008281526001808501602090815260408084206004808201548652600782018452828620835160a081018552815481529581015494860194909452600284015492850192909252600383015460608501529101546080830152905b6005820154815114801590610f185750838160800151105b15610f70576020908101516000908152600783018252604090819020815160a0810183528154815260018201549381019390935260028101549183019190915260038101546060830152600401546080820152610f00565b83816080015110610f85575191506106b09050565b6000925050506106b0565b60035460ff16156103755760405162461bcd60e51b815260206004820152600d60248201526c13585c9ad95d081c185d5cd959609a1b6044820152606401610364565b816110465760405162461bcd60e51b815260206004820152603960248201527f4f7264657253746174697374696373547265652834303729202d2056616c756560448201527f20746f2064656c6574652063616e6e6f74206265207a65726f000000000000006064820152608401610364565b61105284848484611c03565b6110c45760405162461bcd60e51b815260206004820152603a60248201527f4f7264657253746174697374696373547265652834303829202d2056616c756560448201527f20746f2064656c65746520646f6573206e6f742065786973742e0000000000006064820152608401610364565b600082815260018501602052604090206110df858484611c32565b600080826006015460001415611310576000858152600180890160205260409091200154158061112057506000858152600188016020526040902060020154155b1561112c575083611174565b5060008481526001870160205260409020600201545b600081815260018089016020526040909120015415611174576000908152600180880160205260409091200154611142565b6000818152600180890160205260409091200154156111a857600081815260018089016020526040909120015491506111bf565b600081815260018801602052604090206002015491505b600081815260018801602052604080822054848352912081905580156112305760008181526001808a01602052604090912001548214156112155760008181526001808a01602052604090912001839055611234565b60008181526001890160205260409020600201839055611234565b8288555b600082815260018901602052604090206003015460ff16158683146112be5761125e898489611ddf565b600087815260018a8101602052604080832080830154878552828520938401819055845281842087905560028082015490840181905584529083208690556003908101549286905201805460ff191660ff90921615159190911790559195915b80156112ce576112ce8985611e59565b505060008181526001808901602052604082208281559081018290556002810182905560038101805460ff191690556004810182905560058101829055600601555b50505050505050565b6000610a167321b7b63630ba32b930b620b3b3b932b3b0ba37b960611b611b87565b80548061134a57506000919050565b5b60008181526001830160205260409020600201541561137d57600090815260018201602052604090206002015461134b565b919050565b60035460ff16156113c85760405162461bcd60e51b815260206004820152601060248201526f14185d5cd8589b194e881c185d5cd95960821b6044820152606401610364565b6003805460ff191660011790557f62e78cea01bee320cd4e420270b5ea74000d11b0c9f74754ebdbfc544b05a258610e3f3390565b600080600080600061140f8888610e5c565b61142b5760405162461bcd60e51b8152600401610364906132e0565b505050600093845250506001928301602090815260408084209284526007909201815291819020815160a08101835281548082529482015493810184905260028201549281018390526003820154606082018190526004909201546080909101819052939492939192909190565b600082815260076020526040808220815160808101909252805483929190829060ff1660018111156114cd576114cd613097565b60018111156114de576114de613097565b81526001820154602080830191909152600283015460408301526003909201546001600160a01b03166060909101528101519091508311156115325760405162461bcd60e51b815260040161036490613330565b60608101516001600160a01b031633141561158f5760405162461bcd60e51b815260206004820152601d60248201527f4d616b657220636f756c646e27742074616b6520697473206f726465720000006044820152606401610364565b611597610f90565b8281602001516115a7919061335c565b600085815260076020526040812060010191909155815160018111156115cf576115cf613097565b141561162f5760408101516115e8906008908686612273565b61162a5760405162461bcd60e51b815260206004820152601360248201527221b7bab6323713ba103334b6361037b93232b960691b6044820152606401610364565b61169f565b60018151600181111561164457611644613097565b141561169f57604081015161165d90600a908686612273565b61169f5760405162461bcd60e51b815260206004820152601360248201527221b7bab6323713ba103334b6361037b93232b960691b6044820152606401610364565b60006116a9612549565b604051631009103960e01b81526321aaa47b60e01b60048201526001600160a01b03919091169063100910399060240160206040518083038186803b1580156116f157600080fd5b505afa158015611705573d6000803e3d6000fd5b505050506040513d601f19601f8201168201806040525081019061172991906131bc565b9050806001600160a01b031663114cc2ec8360600151338560000151600181111561175657611756613097565b6005546006546040808a015190516001600160e01b031960e089901b1681526001600160a01b03968716600482015295909416602486015260ff90921660448501526064840152608483015260a4820188905260c482015260e401602060405180830381600087803b1580156117cb57600080fd5b505af11580156117df573d6000803e3d6000fd5b505050506040513d601f19601f820116820180604052508101906118039190613373565b50336001600160a01b03167f966c5ef9d077123e79f6a459e7ced8ef6f2a106683fa26d6ea3a4b0df8a34b5b868887866040015160405161184794939291906132a2565b60405180910390a2602082015161188f576000858152600760205260408120805460ff1916815560018101829055600281019190915560030180546001600160a01b03191690555b50600195945050505050565b60408051608081018252600080825260208201819052918101829052606081018290526000841161190e5760405162461bcd60e51b815260206004820152601860248201527f43616e277420706c61636520656d70747920616d6f756e7400000000000000006044820152606401610364565b600083116119575760405162461bcd60e51b815260206004820152601660248201527543616e277420706c61636520656d707479207261746560501b6044820152606401610364565b61195f610f90565b8085600181111561197257611972613097565b9081600181111561198557611985613097565b90525060208101849052604081018390523360608201526119a461256d565b6000818152600760205260409020825181549294508392829060ff1916600183818111156119d4576119d4613097565b02179055506020820151600182015560408201516002820155606090910151600390910180546001600160a01b0319166001600160a01b03909216919091179055611a1d611319565b6001600160a01b0316639fcaebfa336005546127106107d089611a409190613261565b611a4a9190613280565b6040516001600160e01b031960e086901b1681526001600160a01b03909316600484015260248301919091526044820152606401600060405180830381600087803b158015611a9857600080fd5b505af1158015611aac573d6000803e3d6000fd5b5060009250611ab9915050565b81516001811115611acc57611acc613097565b1415611aee5760208101516040820151611ae9916008918561258b565b611b20565b600181516001811115611b0357611b03613097565b1415611b205760208101516040820151611b2091600a918561258b565b80606001516001600160a01b03167f9baa679e9516a3acae8c0deb69798eb2824dd6984b54d21dd4942c76511f4d3183836000015160055460065486602001518760400151604051611b779695949392919061338c565b60405180910390a2509392505050565b600081815260016020908152604080832054905170026b4b9b9b4b7339030b2323932b9b99d1607d1b92810192909252603182018490526001600160a01b0316908115159060510160405160208183030381529060405290611bfc5760405162461bcd60e51b815260040161036491906133c3565b5092915050565b6000611c0f8584610e5c565b611c1b57506000611c2a565b611c27858486856126fd565b90505b949350505050565b611c3c8383610e5c565b611c585760405162461bcd60e51b8152600401610364906132e0565b600082815260018085016020908152604080842085855260078101835293819020815160a08101835281548152938101549284019290925260028201549083015260038101546060830152600490810154608083015282015483148015611cc25750828260050154145b15611ce757600084815260018601602052604081206004810182905560050155611d8b565b8282600401541415611d3357611d1485858360200151600091825260019092016020526040902060040155565b6020808201516000908152600784019091526040812060020155611d8b565b8282600501541415611d7757604080820151600086815260018801602052919091206005015560408082015160009081526007840160205290812060010155611d8b565b611d8b858583604001518460200151612778565b80516000908152600783016020526040812081815560018082018390556002820183905560038201839055600490910182905560068401805491929091611dd390849061335c565b90915550505050505050565b600081815260018401602052604080822054848352912081905580611e0657828455611e53565b6000818152600180860160205260409091200154821415611e3c5760008181526001808601602052604090912001839055611e53565b600081815260018501602052604090206002018390555b50505050565b60005b82548214801590611e815750600082815260018401602052604090206003015460ff16155b1561225457600082815260018085016020526040808320548084529220015483141561207d5760008181526001850160205260408082206002015480835291206003015490925060ff1615611f25576000828152600180860160205260408083206003908101805460ff19908116909155858552919093209092018054909216179055611f0e84826127a9565b600081815260018501602052604090206002015491505b60008281526001808601602052604080832090910154825290206003015460ff16158015611f705750600082815260018501602052604080822060020154825290206003015460ff16155b15611f9d57600082815260018581016020526040909120600301805460ff1916909117905591508161224e565b600082815260018501602052604080822060020154825290206003015460ff1661201a576000828152600180860160205260408083208083015484529083206003908101805460ff19908116909155938690520180549092161790556120038483612881565b600081815260018501602052604090206002015491505b600081815260018501602052604080822060039081018054868552838520808401805460ff909316151560ff19938416179055825482169092556002909101548452919092209091018054909116905561207484826127a9565b8354925061224e565b6000818152600180860160205260408083209091015480835291206003015490925060ff16156120fc576000828152600180860160205260408083206003908101805460ff199081169091558585529190932090920180549092161790556120e58482612881565b600081815260018086016020526040909120015491505b600082815260018501602052604080822060020154825290206003015460ff16158015612147575060008281526001808601602052604080832090910154825290206003015460ff16155b1561217457600082815260018581016020526040909120600301805460ff1916909117905591508161224e565b60008281526001808601602052604080832090910154825290206003015460ff166121f357600082815260018086016020526040808320600281015484529083206003908101805460ff19908116909155938690520180549092161790556121dc84836127a9565b600081815260018086016020526040909120015491505b60008181526001808601602052604080832060039081018054878652838620808401805460ff909316151560ff199384161790558254821690925593015484529220909101805490911690556122498482612881565b835492505b50611e5c565b506000908152600190910160205260409020600301805460ff19169055565b6000838152600180860160209081526040808420868552600781018352818520825160a081018452815481529481015493850193909352600283015491840191909152600382015460608401526004909101546080830181905290919083906122dd90869061335c565b6000878152600785016020526040902060040181905590508061230b5761230688828989610fd3565b61253b565b6004808401546000908152600785016020526040902001548111156124f1576004808401546000908152600785016020908152604091829020825160a081018452815481526001820154928101929092526002810154928201929092526003820154606082015291015460808201525b60058401548151148015906123935750818160800151105b156123eb576020908101516000908152600785018252604090819020815160a081018352815481526001820154938101939093526002810154918301919091526003810154606083015260040154608082015261237b565b858360800151111561247457604080820151600090815260078601602090815290829020825160a081018452815481526001820154928101929092526002810154928201929092526003820154606082015260049091015460808201528351825161245a918c918c9190612778565b61246e8a8a83600001518760000151612778565b506124eb565b6020808201516000908152600786018252604090819020815160a081018352815480825260018301549482019490945260028201549281019290925260038101546060830152600401546080820152845190916124d5918c918c9190612778565b6124e98a8a84600001518760000151612778565b505b5061253b565b612505888884600001518660040154612778565b8151600088815260018a016020526040902060040155600583015461253b578151600088815260018a0160205260409020600501555b506001979650505050505050565b6000610a1675283937b23ab1ba20b2323932b9b9a932b9b7b63b32b960511b611b87565b600480546000918261257e836131fb565b9190505550600454905090565b816125fe5760405162461bcd60e51b815260206004820152603960248201527f4f7264657253746174697374696373547265652834303529202d2056616c756560448201527f20746f20696e736572742063616e6e6f74206265207a65726f000000000000006064820152608401610364565b83546000905b801561266f578091508084101561262e576000908152600180870160205260409091200154612604565b8084111561264f576000908152600186016020526040902060020154612604565b8084141561266a5761266386828786612956565b5050611e53565b612604565b6000848152600180880160205260408220848155808201839055600281019290925560038201805460ff191690911790556126ac87868887612956565b826126b9578487556126f3565b828510156126dc57600083815260018089016020526040909120018590556126f3565b600083815260018801602052604090206002018590555b6113108786612acb565b6000838152600180860160209081526040808420858552600781018352818520825160a0810184528154815294810154938501939093526002830154918401919091526003820154606084015260049091015460808301819052909190851461276b57600092505050611c2a565b5060019695505050505050565b6000928352600193840160209081526040808520848652600701909152808420909401819055825291902060020155565b6000818152600180840160205260408083206002810180549154828652928520909301549385905291839055909180156127f157600081815260018601602052604090208490555b60008381526001860160205260409020829055816128115782855561285e565b6000828152600180870160205260409091200154841415612847576000828152600180870160205260409091200183905561285e565b600082815260018601602052604090206002018390555b505060008181526001938401602052604080822090940183905591825291902055565b600081815260018084016020526040808320918201805492548385529184206002015493859052839055909180156128c757600081815260018601602052604090208490555b60008381526001860160205260409020829055816128e757828555612934565b600082815260018601602052604090206002015484141561291d5760008281526001860160205260409020600201839055612934565b600082815260018087016020526040909120018390555b5050600081815260019093016020526040808420600201839055918352912055565b600082116129765760405162461bcd60e51b815260040161036490613330565b6000838152600185016020526040902060048101546129a05761299b85858585612d36565b612ac4565b600480820154600090815260078301602052604090200154831115612ab8576004808201546000908152600783016020908152604091829020825160a081018452815481526001820154928101929092526002810154928201929092526003820154606082015291015460808201525b602081015115801590612a27575083816080015111155b15612a7f576020908101516000908152600783018252604090819020815160a0810183528154815260018201549381019390935260028101549183019190915260038101546060830152600401546080820152612a10565b8381608001511115612aa157612a9c868683600001518787612da3565b612ab2565b612ab2868683600001518787612def565b50612ac4565b612ac485858585612d36565b5050505050565b60005b82548214801590612af85750600082815260018401602052604080822054825290206003015460ff165b15612d14576000828152600180850160205260408083205480845281842054845292200154811415612c1b5760008181526001850160205260408082205482528082206002015480835291206003015490925060ff1615612ba1576000818152600180860160205260408083206003808201805460ff19908116909155878652838620820180548216905582548652928520018054909216909217905590829052549250612d0e565b6000818152600185016020526040902060020154831415612bc957809250612bc984846127a9565b50600082815260018085016020526040808320548084528184206003808201805460ff19908116909155825487529386200180549093169093179091559182905254612c16908590612881565b612d0e565b6000818152600180860160205260408083205483528083209091015480835291206003015490925060ff1615612c99576000818152600180860160205260408083206003808201805460ff19908116909155878652838620820180548216905582548652928520018054909216909217905590829052549250612d0e565b6000818152600180860160205260409091200154831415612cc157809250612cc18484612881565b50600082815260018085016020526040808320548084528184206003808201805460ff19908116909155825487529386200180549093169093179091559182905254612d0e9085906127a9565b50612ace565b505080546000908152600190910160205260409020600301805460ff19169055565b6000838152600185016020526040812090612d5386868686612f00565b9050612d658686838560040154612778565b600085815260018701602052604090206004018190556005820154612d9b57600085815260018701602052604090206005018190555b505050505050565b600084815260018601602052604090206004810154841415612dd057612dcb86868585612d36565b612d9b565b6000848152600782016020526040902060020154612d9b908790879086865b60008211612e0f5760405162461bcd60e51b815260040161036490613330565b600084815260018601602052604090206005810154841415612e3757612dcb86868585612fa1565b60008481526007820160208181526040808420815160a080820184528254825260018084015483870181905260028086015485880152600380870154606080880191909152600497880154608080890191909152938c52998952878b20885195860189528054865293840154988501989098528201549583019590955294850154958101959095529201549083015291612ed389898888612f00565b9050612ee58989838560000151612778565b612ef58989856000015184612778565b505050505050505050565b6000838152600185016020526040812060068101548290612f1f575060015b6001826006016000828254612f3491906132c8565b90915550506040805160a081018252858152600060208083018281528385018381524260608601908152608086019b8c5299845260079790970190915292902090518082559151600182015592516002840155935160038301555092516004909301929092559392505050565b600083815260018501602052604090206004810154612fc65761299b85858585612d36565b6000612fd486868686612f00565b9050612fe68686846005015484612778565b60008581526001870160205260409020600501819055612d9b565b60008060006060848603121561301657600080fd5b83356002811061302557600080fd5b95602085013595506040909401359392505050565b6020808252825182820181905260009190848201906040850190845b8181101561307257835183529284019291840191600101613056565b50909695505050505050565b60006020828403121561309057600080fd5b5035919050565b634e487b7160e01b600052602160045260246000fd5b600281106130cb57634e487b7160e01b600052602160045260246000fd5b9052565b608081016130dd82876130ad565b602082019490945260408101929092526001600160a01b0316606090910152919050565b60006080820190506131148284516130ad565b602083015160208301526040830151604083015260018060a01b03606084015116606083015292915050565b634e487b7160e01b600052603260045260246000fd5b6000815180845260005b8181101561317c57602081850181015186830182015201613160565b8181111561318e576000602083870101525b50601f01601f19169290920160200192915050565b828152604060208201526000611c2a6040830184613156565b6000602082840312156131ce57600080fd5b81516001600160a01b03811681146106b057600080fd5b634e487b7160e01b600052601160045260246000fd5b600060001982141561320f5761320f6131e5565b5060010190565b6020808252602b908201527f4e6f206f72646572732065786973747320666f722073656c656374656420696e60408201526a746572657374207261746560a81b606082015260800190565b600081600019048311821515161561327b5761327b6131e5565b500290565b60008261329d57634e487b7160e01b600052601260045260246000fd5b500490565b848152608081016132b660208301866130ad565b60408201939093526060015292915050565b600082198211156132db576132db6131e5565b500190565b60208082526030908201527f4f7264657253746174697374696373547265652834303329202d2056616c756560408201526f103237b2b9903737ba1032bc34b9ba1760811b606082015260800190565b602080825260129082015271125b9cdd599a58da595b9d08185b5bdd5b9d60721b604082015260600190565b60008282101561336e5761336e6131e5565b500390565b60006020828403121561338557600080fd5b5051919050565b86815260c081016133a060208301886130ad565b8560408301528460608301528360808301528260a0830152979650505050505050565b6020815260006106b0602083018461315656fea26469706673582212207e45e5c22e335d9591621dbb33a6b5a5a44e82b64ad0aacd5dcb4de2039f74b164736f6c63430008090033a2646970667358221220078e07cbf311a84f373593793820fd2dd4d662ee05f2d6443779b37cd478b3dd64736f6c63430008090033",
  "deployedBytecode": "0x60806040523480156200001157600080fd5b5060043610620001395760003560e01c806378f7b51611620000bb578063b3cb8450116200007a578063b3cb8450146200029a578063e099765914620002b1578063e52f2a9214620002b9578063e99d053814620002d0578063f2fde38b14620002e757600080fd5b806378f7b51614620002345780638a981745146200024b5780638da5cb5b146200026257806393e7c107146200026c5780639ccec206146200028357600080fd5b806329985e5a116200010857806329985e5a14620001d35780632af64bd314620001df5780633d03b9da14620001fa578063485cc9551462000213578063715018a6146200022a57600080fd5b806304f3bcec146200013e5780630a2b2008146200016f5780631b30a28814620001965780632717547f14620001bc575b600080fd5b60005462000152906001600160a01b031681565b6040516001600160a01b0390911681526020015b60405180910390f35b620001866200018036600462001b50565b620002fe565b6040516200016692919062001ba7565b620001ad620001a736600462001b50565b620003ca565b60405162000166919062001bd9565b620001ad620001cd36600462001b50565b62000599565b620001dd62000760565b005b620001e962000903565b604051901515815260200162000166565b6200020462000a30565b60405162000166919062001bf5565b620001dd6200022436600462001c51565b62000abe565b620001dd62000bbb565b620001526200024536600462001c8f565b62000bfd565b620001526200025c36600462001c8f565b620010a1565b62000152620010d2565b620001ad6200027d36600462001b50565b62001105565b620001e96200029436600462001d4f565b6200117d565b620001e9620002ab36600462001b50565b62001294565b606062000204565b620001ad620002ca36600462001b50565b62001440565b620001e9620002e136600462001b50565b62001607565b620001dd620002f836600462001e42565b620017a7565b60608060006200030e84620003ca565b905073__$f506ca7a99b3e1b46d3b28bedafd5dc4fc$__635e1a1383826200033562001850565b60010160008881526020019081526020016000206040518363ffffffff1660e01b81526004016200036892919062001e62565b60006040518083038186803b1580156200038157600080fd5b505af415801562000396573d6000803e3d6000fd5b505050506040513d6000823e601f3d908101601f19168201604052620003c0919081019062001f30565b9250925050915091565b60606000620003d862001850565b60010160008481526020019081526020016000208054806020026020016040519081016040528092919081815260200182805480156200043857602002820191906000526020600020905b81548152602001906001019080831162000423575b505050505090506000815167ffffffffffffffff8111156200045e576200045e62001cb2565b60405190808252806020026020018201604052801562000488578160200160208202803683370190505b50905060005b825181101562000591576000838281518110620004af57620004af62001f9b565b602002602001015190506000620004c562001850565b600088815260209182526040808220858352835290819020548151637d37adff60e11b815291516001600160a01b039091169350839263fa6f5bfe9260048082019391829003018186803b1580156200051d57600080fd5b505afa15801562000532573d6000803e3d6000fd5b505050506040513d601f19601f8201168201806040525081019062000558919062001fb1565b8484815181106200056d576200056d62001f9b565b60200260200101818152505050508080620005889062001fe1565b9150506200048e565b509392505050565b60606000620005a762001850565b60010160008481526020019081526020016000208054806020026020016040519081016040528092919081815260200182805480156200060757602002820191906000526020600020905b815481526020019060010190808311620005f2575b505050505090506000815167ffffffffffffffff8111156200062d576200062d62001cb2565b60405190808252806020026020018201604052801562000657578160200160208202803683370190505b50905060005b8251811015620005915760008382815181106200067e576200067e62001f9b565b6020026020010151905060006200069462001850565b600088815260209182526040808220858352835290819020548151634474638b60e11b815291516001600160a01b03909116935083926388e8c7169260048082019391829003018186803b158015620006ec57600080fd5b505afa15801562000701573d6000803e3d6000fd5b505050506040513d601f19601f8201168201806040525081019062000727919062001fb1565b8484815181106200073c576200073c62001f9b565b60200260200101818152505050508080620007579062001fe1565b9150506200065d565b60006200076c62000a30565b905060005b8151811015620008ff57600082828151811062000792576200079262001f9b565b6020026020010151905060008060009054906101000a90046001600160a01b03166001600160a01b0316636795dbcd83846040516020016200080091907f5265736f6c766572206d697373696e67207461726765743a20000000000000008152601981019190915260390190565b6040516020818303038152906040526040518363ffffffff1660e01b81526004016200082e9291906200204f565b60206040518083038186803b1580156200084757600080fd5b505afa1580156200085c573d6000803e3d6000fd5b505050506040513d601f19601f8201168201806040525081019062000882919062002072565b60008381526001602090815260409182902080546001600160a01b0319166001600160a01b0385169081179091558251868152918201529192507f88a93678a3692f6789d9546fc621bf7234b101ddb7d4fe479455112831b8aa68910160405180910390a150508080620008f69062001fe1565b91505062000771565b5050565b6000806200091062000a30565b905060005b815181101562000a2757600082828151811062000936576200093662001f9b565b60209081029190910181015160008181526001909252604080832054925490516321f8a72160e01b8152600481018390529193506001600160a01b039283169216906321f8a7219060240160206040518083038186803b1580156200099a57600080fd5b505afa158015620009af573d6000803e3d6000fd5b505050506040513d601f19601f82011682018060405250810190620009d5919062002072565b6001600160a01b031614158062000a0157506000818152600160205260409020546001600160a01b0316155b1562000a11576000935050505090565b508062000a1e8162001fe1565b91505062000915565b50600191505090565b60408051600280825260608083018452926020830190803683370190505090507121bab93932b731bca1b7b73a3937b63632b960711b8160008151811062000a7c5762000a7c62001f9b565b6020026020010181815250506c5465726d53747275637475726560981b8160018151811062000aaf5762000aaf62001f9b565b60200260200101818152505090565b600062000acc600162001874565b9050801562000ae5576002805461ff0019166101001790555b600062000af162001906565b6001600160a01b0316141562000b595760405162461bcd60e51b815260206004820152602260248201527f4d7573742062652063616c6c65642066726f6d2070726f787920636f6e74726160448201526118dd60f21b60648201526084015b60405180910390fd5b62000b64836200192f565b62000b6f82620019a0565b801562000bb6576002805461ff0019169055604051600181527f7f26b83ff96e1f2b6a682f133852f6798a09c465da95921460cefb38474024989060200160405180910390a15b505050565b3362000bc6620010d2565b6001600160a01b03161462000bef5760405162461bcd60e51b815260040162000b509062002092565b62000bfb60006200192f565b565b60003362000c0a620010d2565b6001600160a01b03161462000c335760405162461bcd60e51b815260040162000b509062002092565b62000c3d62001a1d565b6001600160a01b031663d4d4f6ce846040518263ffffffff1660e01b815260040162000c6b91815260200190565b60206040518083038186803b15801562000c8457600080fd5b505afa15801562000c99573d6000803e3d6000fd5b505050506040513d601f19601f8201168201806040525081019062000cbf9190620020c7565b62000d015760405162461bcd60e51b81526020600482015260116024820152704e4f4e20535550504f525445442043435960781b604482015260640162000b50565b62000d0b62001a44565b60405163072d3da560e01b8152600481018490526321aaa47b60e01b6024820152604481018590526001600160a01b03919091169063072d3da59060640160206040518083038186803b15801562000d6257600080fd5b505afa15801562000d77573d6000803e3d6000fd5b505050506040513d601f19601f8201168201806040525081019062000d9d9190620020c7565b62000de05760405162461bcd60e51b81526020600482015260126024820152714e4f4e20535550504f52544544205445524d60701b604482015260640162000b50565b600062000dec62001850565b60008581526020918252604080822086835290925220546001600160a01b03161462000e5b5760405162461bcd60e51b815260206004820181905260248201527f436f756c646e27742072657772697465206578697374696e67206d61726b6574604482015260640162000b50565b6000546040516001600160a01b03909116908490849062000e7c9062001adb565b6001600160a01b03909316835260208301919091526040820152606001604051809103906000f08015801562000eb6573d6000803e3d6000fd5b5090508062000ec462001850565b6000858152602091825260408082208683529092522080546001600160a01b0319166001600160a01b039290921691909117905562000f0262001850565b6000848152600191820160209081526040822080549384018155825290200182905562000f2e62001850565b600101600084815260200190815260200160002080548060200260200160405190810160405280929190818152602001828054801562000f8e57602002820191906000526020600020905b81548152602001906001019080831162000f79575b5050604051634f64581360e11b815273__$69df8f3ef0941d5dac5ad52c193381be4b$__94639ec8b026945062000fcb9350915060040162001bd9565b60006040518083038186803b15801562000fe457600080fd5b505af415801562000ff9573d6000803e3d6000fd5b505050506040513d6000823e601f3d908101601f19168201604052620010239190810190620020eb565b6200102d62001850565b600101600085815260200190815260200160002090805190602001906200105692919062001ae9565b5060408051848152602081018490526001600160a01b038316917fc7a36e305c24c29c70a857e8120aadffc2c02608f44c29aac2c49d3a5f4c9812910160405180910390a292915050565b6000620010ad62001850565b600093845260209081526040808520938552929052509020546001600160a01b031690565b60007f9acda75aebd150dd434541a4747a6dc606f4f1a59662477e67daf1fc0bf9e0aa5b546001600160a01b0316919050565b60606200111162001850565b60010160008381526020019081526020016000208054806020026020016040519081016040528092919081815260200182805480156200117157602002820191906000526020600020905b8154815260200190600101908083116200115c575b50505050509050919050565b6000805b82518160ff1610156200128b576000838260ff1681518110620011a857620011a862001f9b565b602002602001015190506000620011be62001850565b8251600090815260209182526040808220838601518352909252819020548184015160608501516080860151935163db77751d60e01b81526001600160a01b039093169450849363db77751d936200121c9392919060040162002124565b602060405180830381600087803b1580156200123757600080fd5b505af11580156200124c573d6000803e3d6000fd5b505050506040513d601f19601f82011682018060405250810190620012729190620020c7565b505050808062001282906200215b565b91505062001181565b50600192915050565b600033620012a1620010d2565b6001600160a01b031614620012ca5760405162461bcd60e51b815260040162000b509062002092565b6000620012d662001850565b60010160008481526020019081526020016000208054806020026020016040519081016040528092919081815260200182805480156200133657602002820191906000526020600020905b81548152602001906001019080831162001321575b5050505050905060005b81518110156200140257600082828151811062001361576200136162001f9b565b6020026020010151905060006200137762001850565b60008781526020918252604080822085835290925281812054825163280dce3760e21b815292516001600160a01b039091169350839263a03738dc92600480830193919282900301818387803b158015620013d157600080fd5b505af1158015620013e6573d6000803e3d6000fd5b5050505050508080620013f99062001fe1565b91505062001340565b506040518381527f2925c70165043bf69d7a10fd5715a4f22827df42deaa6bf1968dcd8f83866e5a906020015b60405180910390a150600192915050565b606060006200144e62001850565b6001016000848152602001908152602001600020805480602002602001604051908101604052809291908181526020018280548015620014ae57602002820191906000526020600020905b81548152602001906001019080831162001499575b505050505090506000815167ffffffffffffffff811115620014d457620014d462001cb2565b604051908082528060200260200182016040528015620014fe578160200160208202803683370190505b50905060005b82518110156200059157600083828151811062001525576200152562001f9b565b6020026020010151905060006200153b62001850565b60008881526020918252604080822085835283529081902054815163017438bd60e71b815291516001600160a01b039091169350839263ba1c5e809260048082019391829003018186803b1580156200159357600080fd5b505afa158015620015a8573d6000803e3d6000fd5b505050506040513d601f19601f82011682018060405250810190620015ce919062001fb1565b848481518110620015e357620015e362001f9b565b60200260200101818152505050508080620015fe9062001fe1565b91505062001504565b60003362001614620010d2565b6001600160a01b0316146200163d5760405162461bcd60e51b815260040162000b509062002092565b60006200164962001850565b6001016000848152602001908152602001600020805480602002602001604051908101604052809291908181526020018280548015620016a957602002820191906000526020600020905b81548152602001906001019080831162001694575b5050505050905060005b815181101562001775576000828281518110620016d457620016d462001f9b565b602002602001015190506000620016ea62001850565b600087815260209182526040808220858352909252818120548251630b0863e760e11b815292516001600160a01b0390911693508392631610c7ce92600480830193919282900301818387803b1580156200174457600080fd5b505af115801562001759573d6000803e3d6000fd5b50505050505080806200176c9062001fe1565b915050620016b3565b506040518381527f13b9f265593f671f36073448e3ef1b7690f184c135f5392b1025e38781a5a1ea906020016200142f565b33620017b2620010d2565b6001600160a01b031614620017db5760405162461bcd60e51b815260040162000b509062002092565b6001600160a01b038116620018425760405162461bcd60e51b815260206004820152602660248201527f4f776e61626c653a206e6577206f776e657220697320746865207a65726f206160448201526564647265737360d01b606482015260840162000b50565b6200184d816200192f565b50565b7f8041b8421ebd495cc61f38c788c9eb100daccf9bd36aa0bb920b7a15b2e0496590565b600254600090610100900460ff1615620018c2578160ff1660011480156200189b5750303b155b620018ba5760405162461bcd60e51b815260040162000b50906200217e565b506000919050565b60025460ff808416911610620018ec5760405162461bcd60e51b815260040162000b50906200217e565b506002805460ff191660ff92909216919091179055600190565b60007f360894a13ba1a3210667c828492db98dca3e2076cc3735a920a3ca505d382bbc620010f6565b7f9acda75aebd150dd434541a4747a6dc606f4f1a59662477e67daf1fc0bf9e0aa80546001600160a01b038381166001600160a01b0319831681179093556040519116919082907f8be0079c531659141344cd1fd0a4f28419497f9722a3daafe3b4186f6b6457e090600090a35050565b6000546001600160a01b031615620019fb5760405162461bcd60e51b815260206004820152601b60248201527f7265736f6c766572207265676973746572656420616c72656164790000000000604482015260640162000b50565b600080546001600160a01b0319166001600160a01b0392909216919091179055565b600062001a3f7121bab93932b731bca1b7b73a3937b63632b960711b62001a5c565b905090565b600062001a3f6c5465726d53747275637475726560981b5b600081815260016020908152604080832054905170026b4b9b9b4b7339030b2323932b9b99d1607d1b92810192909252603182018490526001600160a01b031690811515906051016040516020818303038152906040529062001ad45760405162461bcd60e51b815260040162000b509190620021cc565b5092915050565b6138b280620021e283390190565b82805482825590600052602060002090810192821562001b27579160200282015b8281111562001b2757825182559160200191906001019062001b0a565b5062001b3592915062001b39565b5090565b5b8082111562001b35576000815560010162001b3a565b60006020828403121562001b6357600080fd5b5035919050565b600081518084526020808501945080840160005b8381101562001b9c5781518752958201959082019060010162001b7e565b509495945050505050565b60408152600062001bbc604083018562001b6a565b828103602084015262001bd0818562001b6a565b95945050505050565b60208152600062001bee602083018462001b6a565b9392505050565b6020808252825182820181905260009190848201906040850190845b8181101562001c2f5783518352928401929184019160010162001c11565b50909695505050505050565b6001600160a01b03811681146200184d57600080fd5b6000806040838503121562001c6557600080fd5b823562001c728162001c3b565b9150602083013562001c848162001c3b565b809150509250929050565b6000806040838503121562001ca357600080fd5b50508035926020909101359150565b634e487b7160e01b600052604160045260246000fd5b60405160a0810167ffffffffffffffff8111828210171562001cee5762001cee62001cb2565b60405290565b604051601f8201601f1916810167ffffffffffffffff8111828210171562001d205762001d2062001cb2565b604052919050565b600067ffffffffffffffff82111562001d455762001d4562001cb2565b5060051b60200190565b6000602080838503121562001d6357600080fd5b823567ffffffffffffffff81111562001d7b57600080fd5b8301601f8101851362001d8d57600080fd5b803562001da462001d9e8262001d28565b62001cf4565b81815260a0918202830184019184820191908884111562001dc457600080fd5b938501935b8385101562001e365780858a03121562001de35760008081fd5b62001ded62001cc8565b8535815286860135878201526040808701356002811062001e0e5760008081fd5b9082015260608681013590820152608080870135908201528352938401939185019162001dc9565b50979650505050505050565b60006020828403121562001e5557600080fd5b813562001bee8162001c3b565b60408152600062001e77604083018562001b6a565b60208382038185015281855480845282840191508660005282600020935060005b8181101562001eb65784548352600194850194928401920162001e98565b5090979650505050505050565b600082601f83011262001ed557600080fd5b8151602062001ee862001d9e8362001d28565b82815260059290921b8401810191818101908684111562001f0857600080fd5b8286015b8481101562001f25578051835291830191830162001f0c565b509695505050505050565b6000806040838503121562001f4457600080fd5b825167ffffffffffffffff8082111562001f5d57600080fd5b62001f6b8683870162001ec3565b9350602085015191508082111562001f8257600080fd5b5062001f918582860162001ec3565b9150509250929050565b634e487b7160e01b600052603260045260246000fd5b60006020828403121562001fc457600080fd5b5051919050565b634e487b7160e01b600052601160045260246000fd5b600060001982141562001ff85762001ff862001fcb565b5060010190565b6000815180845260005b81811015620020275760208185018101518683018201520162002009565b818111156200203a576000602083870101525b50601f01601f19169290920160200192915050565b8281526040602082015260006200206a604083018462001fff565b949350505050565b6000602082840312156200208557600080fd5b815162001bee8162001c3b565b6020808252818101527f4f776e61626c653a2063616c6c6572206973206e6f7420746865206f776e6572604082015260600190565b600060208284031215620020da57600080fd5b8151801515811462001bee57600080fd5b600060208284031215620020fe57600080fd5b815167ffffffffffffffff8111156200211657600080fd5b6200206a8482850162001ec3565b60608101600285106200214757634e487b7160e01b600052602160045260246000fd5b938152602081019290925260409091015290565b600060ff821660ff81141562002175576200217562001fcb565b60010192915050565b6020808252602e908201527f496e697469616c697a61626c653a20636f6e747261637420697320616c72656160408201526d191e481a5b9a5d1a585b1a5e995960921b606082015260800190565b60208152600062001bee602083018462001fff56fe60806040523480156200001157600080fd5b50604051620038b2380380620038b2833981016040819052620000349162000399565b60016002556003805460ff191690556200004e836200006b565b6005829055600681905562000062620000eb565b50505062000496565b6000546001600160a01b031615620000c95760405162461bcd60e51b815260206004820152601b60248201527f7265736f6c766572207265676973746572656420616c72656164790000000000604482015260640160405180910390fd5b600080546001600160a01b0319166001600160a01b0392909216919091179055565b6000620000f76200028e565b905060005b81518110156200028a5760008282815181106200011d576200011d620003d1565b6020026020010151905060008060009054906101000a90046001600160a01b03166001600160a01b0316636795dbcd83846040516020016200018b91907f5265736f6c766572206d697373696e67207461726765743a20000000000000008152601981019190915260390190565b6040516020818303038152906040526040518363ffffffff1660e01b8152600401620001b9929190620003e7565b60206040518083038186803b158015620001d257600080fd5b505afa158015620001e7573d6000803e3d6000fd5b505050506040513d601f19601f820116820180604052508101906200020d919062000447565b60008381526001602090815260409182902080546001600160a01b0319166001600160a01b0385169081179091558251868152918201529192507f88a93678a3692f6789d9546fc621bf7234b101ddb7d4fe479455112831b8aa68910160405180910390a15050808062000281906200046c565b915050620000fc565b5050565b604080516003808252608082019092526060916020820183803683370190505090507f436f6c6c61746572616c41676772656761746f7200000000000000000000000081600081518110620002e757620002e7620003d1565b6020026020010181815250507f4c656e64696e674d61726b6574436f6e74726f6c6c6572000000000000000000816001815181106200032a576200032a620003d1565b6020026020010181815250507f50726f64756374416464726573735265736f6c76657200000000000000000000816002815181106200036d576200036d620003d1565b60200260200101818152505090565b80516001600160a01b03811681146200039457600080fd5b919050565b600080600060608486031215620003af57600080fd5b620003ba846200037c565b925060208401519150604084015190509250925092565b634e487b7160e01b600052603260045260246000fd5b82815260006020604081840152835180604085015260005b818110156200041d57858101830151858201606001528201620003ff565b8181111562000430576000606083870101525b50601f01601f191692909201606001949350505050565b6000602082840312156200045a57600080fd5b62000465826200037c565b9392505050565b60006000198214156200048f57634e487b7160e01b600052601160045260246000fd5b5060010190565b61340c80620004a66000396000f3fe608060405234801561001057600080fd5b50600436106101375760003560e01c8063687e3b0b116100b8578063ba1c5e801161007c578063ba1c5e80146102c5578063d09ef241146102cd578063db77751d146102ed578063e099765914610300578063fa52dc0a14610308578063fa6f5bfe1461031157600080fd5b8063687e3b0b1461021f57806388e8c71614610228578063a03738dc14610230578063a85c38ef14610238578063abdddddd1461028a57600080fd5b80633d03b9da116100ff5780633d03b9da146101b7578063514fcac7146101cc57806354141a63146101df57806356861532146101e85780635c975abb1461021457600080fd5b806304f3bcec1461013c5780631610c7ce1461016c57806329985e5a146101765780632af64bd31461017e5780633644ca4514610196575b600080fd5b60005461014f906001600160a01b031681565b6040516001600160a01b0390911681526020015b60405180910390f35b610174610319565b005b610174610377565b61018661050a565b6040519015158152602001610163565b6101a96101a4366004613001565b610628565b604051908152602001610163565b6101bf6106b7565b604051610163919061303a565b6101866101da36600461307e565b610786565b6101a960045481565b61014f6101f636600461307e565b6000908152600760205260409020600301546001600160a01b031690565b60035460ff16610186565b6101a960055481565b6101a9610a0a565b610174610a1b565b61027a61024636600461307e565b600760205260009081526040902080546001820154600283015460039093015460ff9092169290916001600160a01b031684565b60405161016394939291906130cf565b61029d61029836600461307e565b610a72565b604080519586526020860194909452928401919091526060830152608082015260a001610163565b6101a9610b44565b6102e06102db36600461307e565b610b50565b6040516101639190613101565b6101866102fb366004613001565b610be7565b6101bf610cc5565b6101a960065481565b6101a9610d15565b61032233610d4f565b61036d5760405162461bcd60e51b81526020600482015260176024820152764f6e6c7920416363657074656420436f6e74726163747360481b60448201526064015b60405180910390fd5b610375610dc9565b565b60006103816106b7565b905060005b81518110156105065760008282815181106103a3576103a3613140565b6020026020010151905060008060009054906101000a90046001600160a01b03166001600160a01b0316636795dbcd838460405160200161041091907f5265736f6c766572206d697373696e67207461726765743a20000000000000008152601981019190915260390190565b6040516020818303038152906040526040518363ffffffff1660e01b815260040161043c9291906131a3565b60206040518083038186803b15801561045457600080fd5b505afa158015610468573d6000803e3d6000fd5b505050506040513d601f19601f8201168201806040525081019061048c91906131bc565b60008381526001602090815260409182902080546001600160a01b0319166001600160a01b0385169081179091558251868152918201529192507f88a93678a3692f6789d9546fc621bf7234b101ddb7d4fe479455112831b8aa68910160405180910390a1505080806104fe906131fb565b915050610386565b5050565b6000806105156106b7565b905060005b815181101561061f57600082828151811061053757610537613140565b60209081029190910181015160008181526001909252604080832054925490516321f8a72160e01b8152600481018390529193506001600160a01b039283169216906321f8a7219060240160206040518083038186803b15801561059a57600080fd5b505afa1580156105ae573d6000803e3d6000fd5b505050506040513d601f19601f820116820180604052508101906105d291906131bc565b6001600160a01b03161415806105fd57506000818152600160205260409020546001600160a01b0316155b1561060c576000935050505090565b5080610617816131fb565b91505061051a565b50600191505090565b60008084600181111561063d5761063d613097565b141561067d5761064e600a83610e5c565b61066a5760405162461bcd60e51b815260040161036490613216565b610676600a8385610ea4565b90506106b0565b610688600883610e5c565b6106a45760405162461bcd60e51b815260040161036490613216565b61067660088385610ea4565b9392505050565b604080516003808252608082019092526060916020820183803683370190505090507321b7b63630ba32b930b620b3b3b932b3b0ba37b960611b8160008151811061070457610704613140565b602002602001018181525050762632b73234b733a6b0b935b2ba21b7b73a3937b63632b960491b8160018151811061073e5761073e613140565b60200260200101818152505075283937b23ab1ba20b2323932b9b9a932b9b7b63b32b960511b8160028151811061077757610777613140565b60200260200101818152505090565b60008181526007602052604081206003015482906001600160a01b031633146107f15760405162461bcd60e51b815260206004820152601960248201527f4e6f2061636365737320746f2063616e63656c206f72646572000000000000006044820152606401610364565b6107f9610f90565b6000838152600760205260408082208151608081019092528054829060ff16600181111561082957610829613097565b600181111561083a5761083a613097565b815260018201546020820152600282015460408201526003909101546001600160a01b0316606090910152905060008151600181111561087c5761087c613097565b141561089e57602081015160408201516108999160089187610fd3565b6108d0565b6001815160018111156108b3576108b3613097565b14156108d057602081015160408201516108d091600a9187610fd3565b6000848152600760205260408120805460ff1916815560018101829055600281019190915560030180546001600160a01b031916905561090e611319565b6001600160a01b0316638cbf5e7882606001516005546127106107d086602001516109399190613261565b6109439190613280565b6040516001600160e01b031960e086901b1681526001600160a01b03909316600484015260248301919091526044820152606401600060405180830381600087803b15801561099157600080fd5b505af11580156109a5573d6000803e3d6000fd5b5050505080606001516001600160a01b03167ff523a00826d700cad9c1a6b2bb68b57937b6f76e89dc6fe5206389e1a97d3f80858360000151846020015185604001516040516109f894939291906132a2565b60405180910390a25060019392505050565b6000610a16600861133b565b905090565b610a2433610d4f565b610a6a5760405162461bcd60e51b81526020600482015260176024820152764f6e6c7920416363657074656420436f6e74726163747360481b6044820152606401610364565b610375611382565b6000818152600760205260408082208151608081019092528054839283928392839283929091829060ff166001811115610aae57610aae613097565b6001811115610abf57610abf613097565b815260018201546020820152600282015460408201526003909101546001600160a01b03166060909101529050600081516001811115610b0157610b01613097565b1415610b29576040810151610b1990600890896113fd565b9550955095509550955050610b3b565b6040810151610b1990600a90896113fd565b91939590929450565b6000610a16600a61133b565b604080516080810182526000808252602082018190529181018290526060810191909152600082815260076020526040908190208151608081019092528054829060ff166001811115610ba557610ba5613097565b6001811115610bb657610bb6613097565b815260018201546020820152600282015460408201526003909101546001600160a01b031660609091015292915050565b6000600280541415610c3b5760405162461bcd60e51b815260206004820152601f60248201527f5265656e7472616e637947756172643a207265656e7472616e742063616c6c006044820152606401610364565b60028055600080856001811115610c5457610c54613097565b1415610c8757610c66600a8486610ea4565b90508015610c8257610c7a60018286611499565b915050610cb9565b610ca7565b610c9360088486610ea4565b90508015610ca757610c7a60008286611499565b610cb285858561189b565b5060019150505b60016002559392505050565b60408051600180825281830190925260609160208083019080368337019050509050762632b73234b733a6b0b935b2ba21b7b73a3937b63632b960491b8160008151811061077757610777613140565b600080610d20610b44565b90506000610d2c610a0a565b90506000610d3a82846132c8565b9050610d47600282613280565b935050505090565b600080610d5a610cc5565b905060005b8151811015610dbf57610d8a828281518110610d7d57610d7d613140565b6020026020010151611b87565b6001600160a01b0316846001600160a01b03161415610dad575060019392505050565b80610db7816131fb565b915050610d5f565b5060009392505050565b60035460ff16610e125760405162461bcd60e51b815260206004820152601460248201527314185d5cd8589b194e881b9bdd081c185d5cd95960621b6044820152606401610364565b6003805460ff191690557f5db9ee0a495bf2e6ff9c91a7834c1ba4fdd244a5e8aa4e537bd38aeae4b073aa335b6040516001600160a01b03909116815260200160405180910390a1565b600081610e6b57506000610e9e565b8254821415610e7c57506001610e9e565b600082815260018401602052604090205415610e9a57506001610e9e565b5060005b92915050565b60008281526001808501602090815260408084206004808201548652600782018452828620835160a081018552815481529581015494860194909452600284015492850192909252600383015460608501529101546080830152905b6005820154815114801590610f185750838160800151105b15610f70576020908101516000908152600783018252604090819020815160a0810183528154815260018201549381019390935260028101549183019190915260038101546060830152600401546080820152610f00565b83816080015110610f85575191506106b09050565b6000925050506106b0565b60035460ff16156103755760405162461bcd60e51b815260206004820152600d60248201526c13585c9ad95d081c185d5cd959609a1b6044820152606401610364565b816110465760405162461bcd60e51b815260206004820152603960248201527f4f7264657253746174697374696373547265652834303729202d2056616c756560448201527f20746f2064656c6574652063616e6e6f74206265207a65726f000000000000006064820152608401610364565b61105284848484611c03565b6110c45760405162461bcd60e51b815260206004820152603a60248201527f4f7264657253746174697374696373547265652834303829202d2056616c756560448201527f20746f2064656c65746520646f6573206e6f742065786973742e0000000000006064820152608401610364565b600082815260018501602052604090206110df858484611c32565b600080826006015460001415611310576000858152600180890160205260409091200154158061112057506000858152600188016020526040902060020154155b1561112c575083611174565b5060008481526001870160205260409020600201545b600081815260018089016020526040909120015415611174576000908152600180880160205260409091200154611142565b6000818152600180890160205260409091200154156111a857600081815260018089016020526040909120015491506111bf565b600081815260018801602052604090206002015491505b600081815260018801602052604080822054848352912081905580156112305760008181526001808a01602052604090912001548214156112155760008181526001808a01602052604090912001839055611234565b60008181526001890160205260409020600201839055611234565b8288555b600082815260018901602052604090206003015460ff16158683146112be5761125e898489611ddf565b600087815260018a8101602052604080832080830154878552828520938401819055845281842087905560028082015490840181905584529083208690556003908101549286905201805460ff191660ff90921615159190911790559195915b80156112ce576112ce8985611e59565b505060008181526001808901602052604082208281559081018290556002810182905560038101805460ff191690556004810182905560058101829055600601555b50505050505050565b6000610a167321b7b63630ba32b930b620b3b3b932b3b0ba37b960611b611b87565b80548061134a57506000919050565b5b60008181526001830160205260409020600201541561137d57600090815260018201602052604090206002015461134b565b919050565b60035460ff16156113c85760405162461bcd60e51b815260206004820152601060248201526f14185d5cd8589b194e881c185d5cd95960821b6044820152606401610364565b6003805460ff191660011790557f62e78cea01bee320cd4e420270b5ea74000d11b0c9f74754ebdbfc544b05a258610e3f3390565b600080600080600061140f8888610e5c565b61142b5760405162461bcd60e51b8152600401610364906132e0565b505050600093845250506001928301602090815260408084209284526007909201815291819020815160a08101835281548082529482015493810184905260028201549281018390526003820154606082018190526004909201546080909101819052939492939192909190565b600082815260076020526040808220815160808101909252805483929190829060ff1660018111156114cd576114cd613097565b60018111156114de576114de613097565b81526001820154602080830191909152600283015460408301526003909201546001600160a01b03166060909101528101519091508311156115325760405162461bcd60e51b815260040161036490613330565b60608101516001600160a01b031633141561158f5760405162461bcd60e51b815260206004820152601d60248201527f4d616b657220636f756c646e27742074616b6520697473206f726465720000006044820152606401610364565b611597610f90565b8281602001516115a7919061335c565b600085815260076020526040812060010191909155815160018111156115cf576115cf613097565b141561162f5760408101516115e8906008908686612273565b61162a5760405162461bcd60e51b815260206004820152601360248201527221b7bab6323713ba103334b6361037b93232b960691b6044820152606401610364565b61169f565b60018151600181111561164457611644613097565b141561169f57604081015161165d90600a908686612273565b61169f5760405162461bcd60e51b815260206004820152601360248201527221b7bab6323713ba103334b6361037b93232b960691b6044820152606401610364565b60006116a9612549565b604051631009103960e01b81526321aaa47b60e01b60048201526001600160a01b03919091169063100910399060240160206040518083038186803b1580156116f157600080fd5b505afa158015611705573d6000803e3d6000fd5b505050506040513d601f19601f8201168201806040525081019061172991906131bc565b9050806001600160a01b031663114cc2ec8360600151338560000151600181111561175657611756613097565b6005546006546040808a015190516001600160e01b031960e089901b1681526001600160a01b03968716600482015295909416602486015260ff90921660448501526064840152608483015260a4820188905260c482015260e401602060405180830381600087803b1580156117cb57600080fd5b505af11580156117df573d6000803e3d6000fd5b505050506040513d601f19601f820116820180604052508101906118039190613373565b50336001600160a01b03167f966c5ef9d077123e79f6a459e7ced8ef6f2a106683fa26d6ea3a4b0df8a34b5b868887866040015160405161184794939291906132a2565b60405180910390a2602082015161188f576000858152600760205260408120805460ff1916815560018101829055600281019190915560030180546001600160a01b03191690555b50600195945050505050565b60408051608081018252600080825260208201819052918101829052606081018290526000841161190e5760405162461bcd60e51b815260206004820152601860248201527f43616e277420706c61636520656d70747920616d6f756e7400000000000000006044820152606401610364565b600083116119575760405162461bcd60e51b815260206004820152601660248201527543616e277420706c61636520656d707479207261746560501b6044820152606401610364565b61195f610f90565b8085600181111561197257611972613097565b9081600181111561198557611985613097565b90525060208101849052604081018390523360608201526119a461256d565b6000818152600760205260409020825181549294508392829060ff1916600183818111156119d4576119d4613097565b02179055506020820151600182015560408201516002820155606090910151600390910180546001600160a01b0319166001600160a01b03909216919091179055611a1d611319565b6001600160a01b0316639fcaebfa336005546127106107d089611a409190613261565b611a4a9190613280565b6040516001600160e01b031960e086901b1681526001600160a01b03909316600484015260248301919091526044820152606401600060405180830381600087803b158015611a9857600080fd5b505af1158015611aac573d6000803e3d6000fd5b5060009250611ab9915050565b81516001811115611acc57611acc613097565b1415611aee5760208101516040820151611ae9916008918561258b565b611b20565b600181516001811115611b0357611b03613097565b1415611b205760208101516040820151611b2091600a918561258b565b80606001516001600160a01b03167f9baa679e9516a3acae8c0deb69798eb2824dd6984b54d21dd4942c76511f4d3183836000015160055460065486602001518760400151604051611b779695949392919061338c565b60405180910390a2509392505050565b600081815260016020908152604080832054905170026b4b9b9b4b7339030b2323932b9b99d1607d1b92810192909252603182018490526001600160a01b0316908115159060510160405160208183030381529060405290611bfc5760405162461bcd60e51b815260040161036491906133c3565b5092915050565b6000611c0f8584610e5c565b611c1b57506000611c2a565b611c27858486856126fd565b90505b949350505050565b611c3c8383610e5c565b611c585760405162461bcd60e51b8152600401610364906132e0565b600082815260018085016020908152604080842085855260078101835293819020815160a08101835281548152938101549284019290925260028201549083015260038101546060830152600490810154608083015282015483148015611cc25750828260050154145b15611ce757600084815260018601602052604081206004810182905560050155611d8b565b8282600401541415611d3357611d1485858360200151600091825260019092016020526040902060040155565b6020808201516000908152600784019091526040812060020155611d8b565b8282600501541415611d7757604080820151600086815260018801602052919091206005015560408082015160009081526007840160205290812060010155611d8b565b611d8b858583604001518460200151612778565b80516000908152600783016020526040812081815560018082018390556002820183905560038201839055600490910182905560068401805491929091611dd390849061335c565b90915550505050505050565b600081815260018401602052604080822054848352912081905580611e0657828455611e53565b6000818152600180860160205260409091200154821415611e3c5760008181526001808601602052604090912001839055611e53565b600081815260018501602052604090206002018390555b50505050565b60005b82548214801590611e815750600082815260018401602052604090206003015460ff16155b1561225457600082815260018085016020526040808320548084529220015483141561207d5760008181526001850160205260408082206002015480835291206003015490925060ff1615611f25576000828152600180860160205260408083206003908101805460ff19908116909155858552919093209092018054909216179055611f0e84826127a9565b600081815260018501602052604090206002015491505b60008281526001808601602052604080832090910154825290206003015460ff16158015611f705750600082815260018501602052604080822060020154825290206003015460ff16155b15611f9d57600082815260018581016020526040909120600301805460ff1916909117905591508161224e565b600082815260018501602052604080822060020154825290206003015460ff1661201a576000828152600180860160205260408083208083015484529083206003908101805460ff19908116909155938690520180549092161790556120038483612881565b600081815260018501602052604090206002015491505b600081815260018501602052604080822060039081018054868552838520808401805460ff909316151560ff19938416179055825482169092556002909101548452919092209091018054909116905561207484826127a9565b8354925061224e565b6000818152600180860160205260408083209091015480835291206003015490925060ff16156120fc576000828152600180860160205260408083206003908101805460ff199081169091558585529190932090920180549092161790556120e58482612881565b600081815260018086016020526040909120015491505b600082815260018501602052604080822060020154825290206003015460ff16158015612147575060008281526001808601602052604080832090910154825290206003015460ff16155b1561217457600082815260018581016020526040909120600301805460ff1916909117905591508161224e565b60008281526001808601602052604080832090910154825290206003015460ff166121f357600082815260018086016020526040808320600281015484529083206003908101805460ff19908116909155938690520180549092161790556121dc84836127a9565b600081815260018086016020526040909120015491505b60008181526001808601602052604080832060039081018054878652838620808401805460ff909316151560ff199384161790558254821690925593015484529220909101805490911690556122498482612881565b835492505b50611e5c565b506000908152600190910160205260409020600301805460ff19169055565b6000838152600180860160209081526040808420868552600781018352818520825160a081018452815481529481015493850193909352600283015491840191909152600382015460608401526004909101546080830181905290919083906122dd90869061335c565b6000878152600785016020526040902060040181905590508061230b5761230688828989610fd3565b61253b565b6004808401546000908152600785016020526040902001548111156124f1576004808401546000908152600785016020908152604091829020825160a081018452815481526001820154928101929092526002810154928201929092526003820154606082015291015460808201525b60058401548151148015906123935750818160800151105b156123eb576020908101516000908152600785018252604090819020815160a081018352815481526001820154938101939093526002810154918301919091526003810154606083015260040154608082015261237b565b858360800151111561247457604080820151600090815260078601602090815290829020825160a081018452815481526001820154928101929092526002810154928201929092526003820154606082015260049091015460808201528351825161245a918c918c9190612778565b61246e8a8a83600001518760000151612778565b506124eb565b6020808201516000908152600786018252604090819020815160a081018352815480825260018301549482019490945260028201549281019290925260038101546060830152600401546080820152845190916124d5918c918c9190612778565b6124e98a8a84600001518760000151612778565b505b5061253b565b612505888884600001518660040154612778565b8151600088815260018a016020526040902060040155600583015461253b578151600088815260018a0160205260409020600501555b506001979650505050505050565b6000610a1675283937b23ab1ba20b2323932b9b9a932b9b7b63b32b960511b611b87565b600480546000918261257e836131fb565b9190505550600454905090565b816125fe5760405162461bcd60e51b815260206004820152603960248201527f4f7264657253746174697374696373547265652834303529202d2056616c756560448201527f20746f20696e736572742063616e6e6f74206265207a65726f000000000000006064820152608401610364565b83546000905b801561266f578091508084101561262e576000908152600180870160205260409091200154612604565b8084111561264f576000908152600186016020526040902060020154612604565b8084141561266a5761266386828786612956565b5050611e53565b612604565b6000848152600180880160205260408220848155808201839055600281019290925560038201805460ff191690911790556126ac87868887612956565b826126b9578487556126f3565b828510156126dc57600083815260018089016020526040909120018590556126f3565b600083815260018801602052604090206002018590555b6113108786612acb565b6000838152600180860160209081526040808420858552600781018352818520825160a0810184528154815294810154938501939093526002830154918401919091526003820154606084015260049091015460808301819052909190851461276b57600092505050611c2a565b5060019695505050505050565b6000928352600193840160209081526040808520848652600701909152808420909401819055825291902060020155565b6000818152600180840160205260408083206002810180549154828652928520909301549385905291839055909180156127f157600081815260018601602052604090208490555b60008381526001860160205260409020829055816128115782855561285e565b6000828152600180870160205260409091200154841415612847576000828152600180870160205260409091200183905561285e565b600082815260018601602052604090206002018390555b505060008181526001938401602052604080822090940183905591825291902055565b600081815260018084016020526040808320918201805492548385529184206002015493859052839055909180156128c757600081815260018601602052604090208490555b60008381526001860160205260409020829055816128e757828555612934565b600082815260018601602052604090206002015484141561291d5760008281526001860160205260409020600201839055612934565b600082815260018087016020526040909120018390555b5050600081815260019093016020526040808420600201839055918352912055565b600082116129765760405162461bcd60e51b815260040161036490613330565b6000838152600185016020526040902060048101546129a05761299b85858585612d36565b612ac4565b600480820154600090815260078301602052604090200154831115612ab8576004808201546000908152600783016020908152604091829020825160a081018452815481526001820154928101929092526002810154928201929092526003820154606082015291015460808201525b602081015115801590612a27575083816080015111155b15612a7f576020908101516000908152600783018252604090819020815160a0810183528154815260018201549381019390935260028101549183019190915260038101546060830152600401546080820152612a10565b8381608001511115612aa157612a9c868683600001518787612da3565b612ab2565b612ab2868683600001518787612def565b50612ac4565b612ac485858585612d36565b5050505050565b60005b82548214801590612af85750600082815260018401602052604080822054825290206003015460ff165b15612d14576000828152600180850160205260408083205480845281842054845292200154811415612c1b5760008181526001850160205260408082205482528082206002015480835291206003015490925060ff1615612ba1576000818152600180860160205260408083206003808201805460ff19908116909155878652838620820180548216905582548652928520018054909216909217905590829052549250612d0e565b6000818152600185016020526040902060020154831415612bc957809250612bc984846127a9565b50600082815260018085016020526040808320548084528184206003808201805460ff19908116909155825487529386200180549093169093179091559182905254612c16908590612881565b612d0e565b6000818152600180860160205260408083205483528083209091015480835291206003015490925060ff1615612c99576000818152600180860160205260408083206003808201805460ff19908116909155878652838620820180548216905582548652928520018054909216909217905590829052549250612d0e565b6000818152600180860160205260409091200154831415612cc157809250612cc18484612881565b50600082815260018085016020526040808320548084528184206003808201805460ff19908116909155825487529386200180549093169093179091559182905254612d0e9085906127a9565b50612ace565b505080546000908152600190910160205260409020600301805460ff19169055565b6000838152600185016020526040812090612d5386868686612f00565b9050612d658686838560040154612778565b600085815260018701602052604090206004018190556005820154612d9b57600085815260018701602052604090206005018190555b505050505050565b600084815260018601602052604090206004810154841415612dd057612dcb86868585612d36565b612d9b565b6000848152600782016020526040902060020154612d9b908790879086865b60008211612e0f5760405162461bcd60e51b815260040161036490613330565b600084815260018601602052604090206005810154841415612e3757612dcb86868585612fa1565b60008481526007820160208181526040808420815160a080820184528254825260018084015483870181905260028086015485880152600380870154606080880191909152600497880154608080890191909152938c52998952878b20885195860189528054865293840154988501989098528201549583019590955294850154958101959095529201549083015291612ed389898888612f00565b9050612ee58989838560000151612778565b612ef58989856000015184612778565b505050505050505050565b6000838152600185016020526040812060068101548290612f1f575060015b6001826006016000828254612f3491906132c8565b90915550506040805160a081018252858152600060208083018281528385018381524260608601908152608086019b8c5299845260079790970190915292902090518082559151600182015592516002840155935160038301555092516004909301929092559392505050565b600083815260018501602052604090206004810154612fc65761299b85858585612d36565b6000612fd486868686612f00565b9050612fe68686846005015484612778565b60008581526001870160205260409020600501819055612d9b565b60008060006060848603121561301657600080fd5b83356002811061302557600080fd5b95602085013595506040909401359392505050565b6020808252825182820181905260009190848201906040850190845b8181101561307257835183529284019291840191600101613056565b50909695505050505050565b60006020828403121561309057600080fd5b5035919050565b634e487b7160e01b600052602160045260246000fd5b600281106130cb57634e487b7160e01b600052602160045260246000fd5b9052565b608081016130dd82876130ad565b602082019490945260408101929092526001600160a01b0316606090910152919050565b60006080820190506131148284516130ad565b602083015160208301526040830151604083015260018060a01b03606084015116606083015292915050565b634e487b7160e01b600052603260045260246000fd5b6000815180845260005b8181101561317c57602081850181015186830182015201613160565b8181111561318e576000602083870101525b50601f01601f19169290920160200192915050565b828152604060208201526000611c2a6040830184613156565b6000602082840312156131ce57600080fd5b81516001600160a01b03811681146106b057600080fd5b634e487b7160e01b600052601160045260246000fd5b600060001982141561320f5761320f6131e5565b5060010190565b6020808252602b908201527f4e6f206f72646572732065786973747320666f722073656c656374656420696e60408201526a746572657374207261746560a81b606082015260800190565b600081600019048311821515161561327b5761327b6131e5565b500290565b60008261329d57634e487b7160e01b600052601260045260246000fd5b500490565b848152608081016132b660208301866130ad565b60408201939093526060015292915050565b600082198211156132db576132db6131e5565b500190565b60208082526030908201527f4f7264657253746174697374696373547265652834303329202d2056616c756560408201526f103237b2b9903737ba1032bc34b9ba1760811b606082015260800190565b602080825260129082015271125b9cdd599a58da595b9d08185b5bdd5b9d60721b604082015260600190565b60008282101561336e5761336e6131e5565b500390565b60006020828403121561338557600080fd5b5051919050565b86815260c081016133a060208301886130ad565b8560408301528460608301528360808301528260a0830152979650505050505050565b6020815260006106b0602083018461315656fea26469706673582212207e45e5c22e335d9591621dbb33a6b5a5a44e82b64ad0aacd5dcb4de2039f74b164736f6c63430008090033a2646970667358221220078e07cbf311a84f373593793820fd2dd4d662ee05f2d6443779b37cd478b3dd64736f6c63430008090033",
  "libraries": {
    "QuickSort": "0x8Eb68e256006e6E73Ea3A8911f7AcF60C9c4A7E3",
    "DiscountFactor": "0x80C3B044C44a894Ff257E572502F40fE0C28F508"
  },
  "implementation": "0x4C7994eeeD52c1906B9baB73E320DBc9FccB1285",
  "devdoc": {
    "details": "Lending Market Controller contract is managing separated lending order-book markets (per term) and responsible to calculate Discount Factors per currency and construct yield curve It will store lending market addresses by ccy and term in lendingMarkets mapping.",
    "kind": "dev",
    "methods": {
      "acceptedContracts()": {
        "details": "Returns contract names that can call this contract."
      },
      "deployLendingMarket(bytes32,uint256)": {
        "details": "Deploys new Lending Market and save address at lendingMarkets mapping.",
        "params": {
          "_ccy": "Main currency for new lending market",
          "_term": "Term for new Lending Market"
        }
      },
      "getBorrowRatesForCcy(bytes32)": {
        "details": "Triggers to get borrow rates for selected currency.",
        "params": {
          "_ccy": "Currency"
        }
      },
      "getDiscountFactorsForCcy(bytes32)": {
        "details": "Triggers to discount factor for selected currency.",
        "params": {
          "_ccy": "Currency"
        }
      },
      "getLendRatesForCcy(bytes32)": {
        "details": "Triggers to get lend rates for selected currency.",
        "params": {
          "_ccy": "Currency"
        }
      },
      "getLendingMarket(bytes32,uint256)": {
        "details": "Triggers to get lending market.",
        "params": {
          "_ccy": "Currency for Lending Market",
          "_term": "Term for Lending Market"
        }
      },
      "getMidRatesForCcy(bytes32)": {
        "details": "Triggers to get mid rates for selected currency.",
        "params": {
          "_ccy": "Currency"
        }
      },
      "getSupportedTerms(bytes32)": {
        "details": "Triggers to supported terms for selected currency.",
        "params": {
          "_ccy": "Currency"
        }
      },
      "initialize(address,address)": {
        "details": "Function is invoked by the proxy contract when the contract is added to the ProxyController"
      },
      "owner()": {
        "details": "Returns the address of the current owner."
      },
      "pauseLendingMarkets(bytes32)": {
        "details": "Pauses previously deployed lending market by currency",
        "params": {
          "_ccy": "Currency for pausing all lending markets"
        }
      },
      "placeBulkOrders((bytes32,uint256,uint8,uint256,uint256)[])": {
        "details": "Places orders in multiple Lending Markets.",
        "params": {
          "orders": "Lending Market orders array with ccy and terms to identify right market"
        }
      },
      "renounceOwnership()": {
        "details": "Leaves the contract without owner. It will not be possible to call `onlyOwner` functions anymore. Can only be called by the current owner. NOTE: Renouncing ownership will leave the contract without an owner, thereby removing any functionality that is only available to the owner."
      },
      "requiredContracts()": {
        "details": "Returns required contract names in this contract"
      },
      "transferOwnership(address)": {
        "details": "Transfers ownership of the contract to a new account (`newOwner`). Can only be called by the current owner."
      },
      "unpauseLendingMarkets(bytes32)": {
        "details": "Unpauses previously deployed lending market by currency",
        "params": {
          "_ccy": "Currency for pausing all lending markets"
        }
      }
    },
    "version": 1
  },
  "userdoc": {
    "kind": "user",
    "methods": {
      "deployLendingMarket(bytes32,uint256)": {
        "notice": "Reverts on deployment market with existing currency and term"
      },
      "initialize(address,address)": {
        "notice": "Initializes the contract."
      }
    },
    "version": 1
  },
  "storageLayout": {
    "storage": [
      {
        "astId": 35871,
        "contract": "contracts/LendingMarketController.sol:LendingMarketController",
        "label": "resolver",
        "offset": 0,
        "slot": "0",
        "type": "t_contract(IAddressResolver)23433"
      },
      {
        "astId": 35875,
        "contract": "contracts/LendingMarketController.sol:LendingMarketController",
        "label": "addressCache",
        "offset": 0,
        "slot": "1",
        "type": "t_mapping(t_bytes32,t_address)"
      },
      {
        "astId": 2990,
        "contract": "contracts/LendingMarketController.sol:LendingMarketController",
        "label": "_initialized",
        "offset": 0,
        "slot": "2",
        "type": "t_uint8"
      },
      {
        "astId": 2993,
        "contract": "contracts/LendingMarketController.sol:LendingMarketController",
        "label": "_initializing",
        "offset": 1,
        "slot": "2",
        "type": "t_bool"
      }
    ],
    "types": {
      "t_address": {
        "encoding": "inplace",
        "label": "address",
        "numberOfBytes": "20"
      },
      "t_bool": {
        "encoding": "inplace",
        "label": "bool",
        "numberOfBytes": "1"
      },
      "t_bytes32": {
        "encoding": "inplace",
        "label": "bytes32",
        "numberOfBytes": "32"
      },
      "t_contract(IAddressResolver)23433": {
        "encoding": "inplace",
        "label": "contract IAddressResolver",
        "numberOfBytes": "20"
      },
      "t_mapping(t_bytes32,t_address)": {
        "encoding": "mapping",
        "key": "t_bytes32",
        "label": "mapping(bytes32 => address)",
        "numberOfBytes": "32",
        "value": "t_address"
      },
      "t_uint8": {
        "encoding": "inplace",
        "label": "uint8",
        "numberOfBytes": "1"
      }
    }
  }
}