{
  "address": "0x836791688E0BA9b38eFA9ac1e080C8eea2f45f34",
  "abi": [
    {
      "anonymous": false,
      "inputs": [
        {
          "indexed": false,
          "internalType": "uint256",
          "name": "timestamp",
          "type": "uint256"
        }
      ],
      "name": "EmergencyTerminationExecuted",
      "type": "event"
    },
    {
      "anonymous": false,
      "inputs": [
        {
          "indexed": true,
          "internalType": "bytes32",
          "name": "ccy",
          "type": "bytes32"
        },
        {
          "indexed": true,
          "internalType": "address",
          "name": "marketAddr",
          "type": "address"
        },
        {
          "indexed": false,
          "internalType": "address",
          "name": "futureValueVault",
          "type": "address"
        },
        {
          "indexed": false,
          "internalType": "uint256",
          "name": "index",
          "type": "uint256"
        },
        {
          "indexed": false,
          "internalType": "uint256",
          "name": "openingDate",
          "type": "uint256"
        },
        {
          "indexed": false,
          "internalType": "uint256",
          "name": "maturity",
          "type": "uint256"
        }
      ],
      "name": "LendingMarketCreated",
      "type": "event"
    },
    {
      "anonymous": false,
      "inputs": [
        {
          "indexed": false,
          "internalType": "bytes32",
          "name": "ccy",
          "type": "bytes32"
        },
        {
          "indexed": false,
          "internalType": "uint256",
          "name": "oldMaturity",
          "type": "uint256"
        },
        {
          "indexed": false,
          "internalType": "uint256",
          "name": "newMaturity",
          "type": "uint256"
        }
      ],
      "name": "LendingMarketsRotated",
      "type": "event"
    },
    {
      "inputs": [
        {
          "internalType": "uint256",
          "name": "_timestamp",
          "type": "uint256"
        },
        {
          "internalType": "uint256",
          "name": "_period",
          "type": "uint256"
        }
      ],
      "name": "calculateNextMaturity",
      "outputs": [
        {
          "internalType": "uint256",
          "name": "",
          "type": "uint256"
        }
      ],
      "stateMutability": "pure",
      "type": "function"
    }
  ],
  "transactionHash": "0x1a5018358f63bc2a5a4188f85ecaf46a0e9498041a90d9f5acbb2d6922156b00",
  "args": [],
  "numDeployments": 3,
  "solcInputHash": "49f3d973681da0e5bc4548a0b597287d",
  "bytecode": "0x61279e61003a600b82828239805160001a60731461002d57634e487b7160e01b600052600060045260246000fd5b30600052607381538281f3fe730000000000000000000000000000000000000000301460806040526004361061009d5760003560e01c8063b3cb845011610070578063b3cb845014610138578063b8f117cd14610158578063d3f43b791461016d578063e88e18371461018d578063e99d0538146101ad57600080fd5b8063420eadb7146100a25780636a23a95c146100c857806372d563ef146100f6578063a3d54d8c14610118575b600080fd5b6100b56100b036600461219e565b6101cd565b6040519081526020015b60405180910390f35b8180156100d457600080fd5b506100e86100e336600461219e565b6101f6565b6040516100bf9291906121c0565b81801561010257600080fd5b5061011661011136600461219e565b610536565b005b81801561012457600080fd5b506100b561013336600461219e565b610b50565b81801561014457600080fd5b5061011661015336600461220e565b610f3a565b81801561016457600080fd5b50610116611009565b81801561017957600080fd5b50610116610188366004612227565b611447565b81801561019957600080fd5b506101166101a8366004612253565b6114f3565b8180156101b957600080fd5b506101166101c836600461220e565b61171d565b6000816101e6576101df8360076117e8565b90506101f0565b6101df8383611810565b92915050565b610223604051806060016040528060006001600160a01b0316815260200160008152602001600081525090565b610250604051806060016040528060006001600160a01b0316815260200160008152602001600081525090565b600061025a6118dd565b600086815260079190910160209081526040808320878452825291829020548251639d65290760e01b815292516001600160a01b03909116935083928392639d65290792600480840193829003018186803b1580156102b857600080fd5b505afa1580156102cc573d6000803e3d6000fd5b505050506040513d601f19601f820116820180604052508101906102f09190612296565b1561052d576000806000836001600160a01b0316637e7069386040518163ffffffff1660e01b815260040161012060405180830381600087803b15801561033657600080fd5b505af115801561034a573d6000803e3d6000fd5b505050506040513d601f19601f8201168201806040525081019061036e919061237c565b909a5098509194509092509050801561043357600061038b6118dd565b60008b8152600691909101602090815260408083206001600160a01b03808b16855292529091205416905080635e695dd58a6103db6103d6886103d0612710896123e5565b90611901565b61196b565b6040516001600160e01b031960e085901b16815260048101929092526024820152604401600060405180830381600087803b15801561041957600080fd5b505af115801561042d573d6000803e3d6000fd5b50505050505b60008311801561048d5750836001600160a01b03166104506118dd565b60050160008b815260200190815260200160002060008154811061047657610476612404565b6000918252602090912001546001600160a01b0316145b156105295760006104ba848a856104a26118dd565b60008f815260089190910160205260409020546119d9565b90506104c4611a4d565b60405163a969285f60e01b8152600481018c9052602481018390526001600160a01b03919091169063a969285f90604401600060405180830381600087803b15801561050f57600080fd5b505af1158015610523573d6000803e3d6000fd5b50505050505b5050505b50509250929050565b61053e611a4d565b6001600160a01b031663f7b637bb836040518263ffffffff1660e01b815260040161056b91815260200190565b60206040518083038186803b15801561058357600080fd5b505afa158015610597573d6000803e3d6000fd5b505050506040513d601f19601f820116820180604052508101906105bb9190612296565b61062b5760405162461bcd60e51b815260206004820152603660248201527f4c656e64696e67206d61726b6574206861736e2774206265656e20696e697469604482015275616c697a656420696e207468652063757272656e637960501b60648201526084015b60405180910390fd5b610633611a71565b6001600160a01b0316631eae0893836040518263ffffffff1660e01b815260040161066091815260200190565b60206040518083038186803b15801561067857600080fd5b505afa15801561068c573d6000803e3d6000fd5b505050506040513d601f19601f820116820180604052508101906106b09190612296565b6106f55760405162461bcd60e51b81526020600482015260166024820152754e6f6e20737570706f727465642063757272656e637960501b6044820152606401610622565b60006106ff6118dd565b600084815260059190910160205260409020546107a25761071e611a4d565b6001600160a01b03166349a1d218846040518263ffffffff1660e01b815260040161074b91815260200190565b60206040518083038186803b15801561076357600080fd5b505afa158015610777573d6000803e3d6000fd5b505050506040513d601f19601f8201168201806040525081019061079b919061241a565b9050610891565b60006107ac6118dd565b60008581526005919091016020526040902060016107c86118dd565b600087815260059190910160205260409020546107e59190612433565b815481106107f5576107f5612404565b600091825260209182902001546040805163e16695b560e01b815290516001600160a01b039092169263e16695b592600480840193829003018186803b15801561083e57600080fd5b505afa158015610852573d6000803e3d6000fd5b505050506040513d601f19601f82011682018060405250810190610876919061241a565b905061088d816108846118dd565b600101546101cd565b9150505b8082106108f95760405162461bcd60e51b815260206004820152603060248201527f4d61726b6574206f70656e696e672064617465206d757374206265206265666f60448201526f7265206d61747572697479206461746560801b6064820152608401610622565b6000610903611a91565b604051634672758f60e01b81526004810186905260248101849052604481018590526001600160a01b039190911690634672758f90606401602060405180830381600087803b15801561095557600080fd5b505af1158015610969573d6000803e3d6000fd5b505050506040513d601f19601f8201168201806040525081019061098d919061244a565b90506000610999611a91565b6001600160a01b031663a97c4b536040518163ffffffff1660e01b8152600401602060405180830381600087803b1580156109d357600080fd5b505af11580156109e7573d6000803e3d6000fd5b505050506040513d601f19601f82011682018060405250810190610a0b919061244a565b9050610a156118dd565b6000868152600591909101602090815260408220805460018101825590835291200180546001600160a01b0319166001600160a01b03841617905581610a596118dd565b600087815260079190910160209081526040808320878452909152902080546001600160a01b0319166001600160a01b039290921691909117905580610a9d6118dd565b6000878152600691909101602090815260408083206001600160a01b0387811680865291909352922080546001600160a01b0319169390911692909217909155857fc29f3eef4e596f3e26da74f3482ffe2325449509e985d19f0a099240429add4e83610b086118dd565b60008a815260059190910160209081526040918290205482516001600160a01b0390941684529083015281018890526060810187905260800160405180910390a35050505050565b600080610b5b6118dd565b60050160008581526020019081526020016000209050600081600081548110610b8657610b86612404565b600091825260208220015483546001600160a01b03909116925083906001908110610bb357610bb3612404565b60009182526020808320909101546040805163e16695b560e01b815290516001600160a01b039092169450849263e16695b592600480840193829003018186803b158015610c0057600080fd5b505afa158015610c14573d6000803e3d6000fd5b505050506040513d601f19601f82011682018060405250810190610c38919061241a565b9050610ce88460018680549050610c4f9190612433565b81548110610c5f57610c5f612404565b600091825260209182902001546040805163e16695b560e01b815290516001600160a01b039092169263e16695b592600480840193829003018186803b158015610ca857600080fd5b505afa158015610cbc573d6000803e3d6000fd5b505050506040513d601f19601f82011682018060405250810190610ce0919061241a565b6108846118dd565b604051630437309d60e51b815260048101829052602481018390529095506000906001600160a01b038516906386e613a090604401602060405180830381600087803b158015610d3757600080fd5b505af1158015610d4b573d6000803e3d6000fd5b505050506040513d601f19601f82011682018060405250810190610d6f919061241a565b905060005b8554811015610e1e5785546000908290610d9090600190612433565b14610dcb5786610da1836001612465565b81548110610db157610db1612404565b6000918252602090912001546001600160a01b0316610dcd565b855b905080878381548110610de257610de2612404565b600091825260209091200180546001600160a01b0319166001600160a01b03929092169190911790555080610e168161247d565b915050610d74565b50610e27611a4d565b6001600160a01b031663fb843904898385610e428d88611ab4565b6040516001600160e01b031960e087901b1681526004810194909452602484019290925260448301526064820152608481018a905260a401600060405180830381600087803b158015610e9457600080fd5b505af1158015610ea8573d6000803e3d6000fd5b5050505083610eb56118dd565b60008a8152600791909101602090815260408083208a845282529182902080546001600160a01b0319166001600160a01b03949094169390931790925580518a815291820183905281018790527f0c6f5a3bc801362dc3d24c87799fa831f5a601c5dbd8bed4064907844eef97369060600160405180910390a1505050505092915050565b60005b610f456118dd565b60008381526005919091016020526040902054811015611005576000610f696118dd565b60050160008481526020019081526020016000208281548110610f8e57610f8e612404565b60009182526020822001546040805163280dce3760e21b815290516001600160a01b039092169350839263a03738dc9260048084019382900301818387803b158015610fd957600080fd5b505af1158015610fed573d6000803e3d6000fd5b50505050508080610ffd9061247d565b915050610f3d565b5050565b426110126118dd565b600201556000611020611a71565b6001600160a01b03166361c661de6040518163ffffffff1660e01b815260040160006040518083038186803b15801561105857600080fd5b505afa15801561106c573d6000803e3d6000fd5b505050506040513d6000823e601f3d908101601f191682016040526110949190810190612498565b905060006110a0611c04565b6001600160a01b031663d5e190d06040518163ffffffff1660e01b815260040160006040518083038186803b1580156110d857600080fd5b505afa1580156110ec573d6000803e3d6000fd5b505050506040513d6000823e601f3d908101601f191682016040526111149190810190612498565b905060005b82518110156111f957600083828151811061113657611136612404565b6020026020010151905061114981610f3a565b611151611a71565b6001600160a01b0316632491dc8c826040518263ffffffff1660e01b815260040161117e91815260200190565b60206040518083038186803b15801561119657600080fd5b505afa1580156111aa573d6000803e3d6000fd5b505050506040513d601f19601f820116820180604052508101906111ce919061241a565b6111d66118dd565b6000928352600301602052604090912055806111f18161247d565b915050611119565b5060005b815181101561140f57600082828151811061121a5761121a612404565b60200260200101519050600061122e611c04565b6001600160a01b031663b12e4410836040518263ffffffff1660e01b815260040161125b91815260200190565b60206040518083038186803b15801561127357600080fd5b505afa158015611287573d6000803e3d6000fd5b505050506040513d601f19601f820116820180604052508101906112ab919061244a565b90506000816001600160a01b03166370a082316112c6611c04565b6040516001600160e01b031960e084901b1681526001600160a01b03909116600482015260240160206040518083038186803b15801561130557600080fd5b505afa158015611319573d6000803e3d6000fd5b505050506040513d601f19601f8201168201806040525081019061133d919061241a565b90506113476118dd565b5483146113dc57611356611a71565b604051636ed2f1db60e01b815260048101859052602481018390526001600160a01b039190911690636ed2f1db9060440160206040518083038186803b15801561139f57600080fd5b505afa1580156113b3573d6000803e3d6000fd5b505050506040513d601f19601f820116820180604052508101906113d7919061241a565b6113de565b805b6113e66118dd565b6000948552600401602052604090932092909255508190506114078161247d565b9150506111fd565b506040514281527f5bd5e5214bcf42a851f8883889177591b93dbd526076c7b5e96bd8eed5931a539060200160405180910390a15050565b61144f611a4d565b6001600160a01b031663a2d7d02d8460248461146d876108846118dd565b6040516001600160e01b031960e087901b168152600481019490945260ff909216602484015260448301526064820152608401600060405180830381600087803b1580156114ba57600080fd5b505af11580156114ce573d6000803e3d6000fd5b50505050816114db6118dd565b60009485526008016020526040909320929092555050565b6114fb6118dd565b6000878152600791909101602090815260408083208884529091529020546001600160a01b031661152a6118dd565b600501600088815260200190815260200160002060018154811061155057611550612404565b6000918252602090912001546001600160a01b031614156117155760006115756118dd565b600501600088815260200190815260200160002060008154811061159b5761159b612404565b600091825260209182902001546040805163e16695b560e01b815290516001600160a01b039092169263e16695b592600480840193829003018186803b1580156115e457600080fd5b505afa1580156115f8573d6000803e3d6000fd5b505050506040513d601f19601f8201168201806040525081019061161c919061241a565b90506116266118dd565b6000888152600b919091016020908152604080832089845290915290205461167b57611654848742846119d9565b61165c6118dd565b6000898152600c91909101602090815260408083208a84529091529020555b8042108015611693575061168f8582612433565b4210155b1561171357826116a16118dd565b6000898152600b91909101602090815260408083208a8452909152812080549091906116ce908490612465565b909155508290506116dd6118dd565b6000898152600b91909101602090815260408083208a84529091528120600101805490919061170d908490612465565b90915550505b505b505050505050565b60005b6117286118dd565b6000838152600591909101602052604090205481101561100557600061174c6118dd565b6005016000848152602001908152602001600020828154811061177157611771612404565b600091825260208220015460408051630b0863e760e11b815290516001600160a01b0390921693508392631610c7ce9260048084019382900301818387803b1580156117bc57600080fd5b505af11580156117d0573d6000803e3d6000fd5b505050505080806117e09061247d565b915050611720565b60006117f762015180836123e5565b6118019084612465565b9050828110156101f057600080fd5b6000808061183061182b86611826876001612465565b611c1c565b611cf3565b5091509150600061184383836000611d14565b9050600061185082611d37565b9050600060058260058410611866576000611869565b60075b60ff166118769190612465565b6118809190612433565b905061188c8382611d72565b9550600086116118d25760405162461bcd60e51b81526020600482015260116024820152700496e76616c69642054696d657374616d7607c1b6044820152606401610622565b505050505092915050565b7f8041b8421ebd495cc61f38c788c9eb100daccf9bd36aa0bb920b7a15b2e0496590565b600080821161190f57600080fd5b600561191b8385612548565b61192690600a6123e5565b8361193286600a6123e5565b61193c9190612548565b6119469190612433565b1015611956576101df8284612548565b6119608284612548565b6101df906001612465565b60006001600160ff1b038211156119d55760405162461bcd60e51b815260206004820152602860248201527f53616665436173743a2076616c756520646f65736e27742066697420696e2061604482015267371034b73a191a9b60c11b6064820152608401610622565b5090565b6000806119e68486612433565b905060006119f48487612433565b9050611a0082886123e5565b81611a0d89612710612433565b611a1791906123e5565b611a219190612465565b82611a2e896127106123e5565b611a3891906123e5565b611a429190612548565b979650505050505050565b6000611a6c7011d95b995cda5cd5985b1d5955985d5b1d607a1b611d9a565b905090565b6000611a6c7121bab93932b731bca1b7b73a3937b63632b960711b611d9a565b6000611a6c742132b0b1b7b7283937bc3ca1b7b73a3937b63632b960591b611d9a565b600080611abf6118dd565b6000858152600b91909101602090815260408083208684528252918290208251808401909352805483526001015490820181905290915015611b1c57611b15816020015161271083600001516103d091906123e5565b9150611bfd565b611b246118dd565b6000858152600c919091016020908152604080832086845290915290205415611b7457611b4f6118dd565b6000858152600c91909101602090815260408083208684529091529020549150611bfd565b611b7c611a4d565b6001600160a01b031663d637c15f856040518263ffffffff1660e01b8152600401611ba991815260200190565b60a06040518083038186803b158015611bc157600080fd5b505afa158015611bd5573d6000803e3d6000fd5b505050506040513d601f19601f82011682018060405250810190611bf9919061255c565b5191505b5092915050565b6000611a6c69151bdad95b95985d5b1d60b21b611d9a565b6000808080611c36611c316201518088612548565b611e2b565b91945092509050611c478583612465565b9150600c611c56600184612433565b611c609190612548565b611c6a9084612465565b9250600c611c79600184612433565b611c8391906125cc565b611c8e906001612465565b91506000611c9c8484611f9f565b905080821115611caa578091505b611cb762015180886125cc565b62015180611cc6868686612025565b611cd091906123e5565b611cda9190612465565b945086851015611ce957600080fd5b5050505092915050565b60008080611d07611c316201518086612548565b9196909550909350915050565b600062015180611d25858585612025565b611d2f91906123e5565b949350505050565b600080611d476201518084612548565b90506007611d56826003612465565b611d6091906125cc565b611d6b906001612465565b9392505050565b6000611d8162015180836123e5565b611d8b9084612433565b9050828111156101f057600080fd5b60008181527f4abde63c3e81aefa5764b017968bc473e83e093d7e1a10247d19e0a3e41240196020908152604080832054815170026b4b9b9b4b7339030b2323932b9b99d1607d1b9381019390935260318084018690528251808503909101815260519093019091526001600160a01b03169081611bfd5760405162461bcd60e51b815260040161062291906125e0565b60008080838162253d8c611e428362010bd9612635565b611e4c9190612635565b9050600062023ab1611e5f836004612676565b611e6991906126fb565b90506004611e7a8262023ab1612676565b611e85906003612635565b611e8f91906126fb565b611e999083612729565b9150600062164b09611eac846001612635565b611eb890610fa0612676565b611ec291906126fb565b90506004611ed2826105b5612676565b611edc91906126fb565b611ee69084612729565b611ef190601f612635565b9250600061098f611f03856050612676565b611f0d91906126fb565b905060006050611f1f8361098f612676565b611f2991906126fb565b611f339086612729565b9050611f40600b836126fb565b9450611f4d85600c612676565b611f58836002612635565b611f629190612729565b91508483611f71603187612729565b611f7c906064612676565b611f869190612635565b611f909190612635565b9a919950975095505050505050565b60008160011480611fb05750816003145b80611fbb5750816005145b80611fc65750816007145b80611fd15750816008145b80611fdc575081600a145b80611fe7575081600c145b15611ff45750601f6101f0565b816002146120045750601e6101f0565b61200d83612162565b61201857601c61201b565b601d5b60ff169392505050565b60006107b284101561203657600080fd5b838383600062253d8c60046064600c612050600e88612729565b61205a91906126fb565b61206688611324612635565b6120709190612635565b61207a91906126fb565b612085906003612676565b61208f91906126fb565b600c8061209d600e88612729565b6120a791906126fb565b6120b290600c612676565b6120bd600288612729565b6120c79190612729565b6120d39061016f612676565b6120dd91906126fb565b6004600c6120ec600e89612729565b6120f691906126fb565b612102896112c0612635565b61210c9190612635565b612118906105b5612676565b61212291906126fb565b61212e617d4b87612729565b6121389190612635565b6121429190612635565b61214c9190612729565b6121569190612729565b98975050505050505050565b600061216f6004836125cc565b15801561218557506121826064836125cc565b15155b806101f05750612197610190836125cc565b1592915050565b600080604083850312156121b157600080fd5b50508035926020909101359150565b82516001600160a01b03168152602080840151908201526040808401519082015260c0810182516001600160a01b0316606083015260208301516080830152604083015160a0830152611d6b565b60006020828403121561222057600080fd5b5035919050565b60008060006060848603121561223c57600080fd5b505081359360208301359350604090920135919050565b60008060008060008060c0878903121561226c57600080fd5b505084359660208601359650604086013595606081013595506080810135945060a0013592509050565b6000602082840312156122a857600080fd5b81518015158114611d6b57600080fd5b634e487b7160e01b600052604160045260246000fd5b604051601f8201601f1916810167ffffffffffffffff811182821017156122f7576122f76122b8565b604052919050565b80516001600160a01b038116811461231657600080fd5b919050565b60006060828403121561232d57600080fd5b6040516060810181811067ffffffffffffffff82111715612350576123506122b8565b60405290508061235f836122ff565b815260208301516020820152604083015160408201525092915050565b6000806000806000610120868803121561239557600080fd5b8551945060208601519350604086015192506123b4876060880161231b565b91506123c38760c0880161231b565b90509295509295909350565b634e487b7160e01b600052601160045260246000fd5b60008160001904831182151516156123ff576123ff6123cf565b500290565b634e487b7160e01b600052603260045260246000fd5b60006020828403121561242c57600080fd5b5051919050565b600082821015612445576124456123cf565b500390565b60006020828403121561245c57600080fd5b611d6b826122ff565b60008219821115612478576124786123cf565b500190565b6000600019821415612491576124916123cf565b5060010190565b600060208083850312156124ab57600080fd5b825167ffffffffffffffff808211156124c357600080fd5b818501915085601f8301126124d757600080fd5b8151818111156124e9576124e96122b8565b8060051b91506124fa8483016122ce565b818152918301840191848101908884111561251457600080fd5b938501935b8385101561215657845182529385019390850190612519565b634e487b7160e01b600052601260045260246000fd5b60008261255757612557612532565b500490565b600060a0828403121561256e57600080fd5b60405160a0810181811067ffffffffffffffff82111715612591576125916122b8565b806040525082518152602083015160208201526040830151604082015260608301516060820152608083015160808201528091505092915050565b6000826125db576125db612532565b500690565b600060208083528351808285015260005b8181101561260d578581018301518582016040015282016125f1565b8181111561261f576000604083870101525b50601f01601f1916929092016040019392505050565b600080821280156001600160ff1b0384900385131615612657576126576123cf565b600160ff1b8390038412811615612670576126706123cf565b50500190565b60006001600160ff1b038184138284138082168684048611161561269c5761269c6123cf565b600160ff1b60008712828116878305891216156126bb576126bb6123cf565b600087129250878205871284841616156126d7576126d76123cf565b878505871281841616156126ed576126ed6123cf565b505050929093029392505050565b60008261270a5761270a612532565b600160ff1b821460001984141615612724576127246123cf565b500590565b60008083128015600160ff1b850184121615612747576127476123cf565b6001600160ff1b0384018313811615612762576127626123cf565b5050039056fea2646970667358221220f0b3d2a469ebb312d6aa67c78d242ee81bb6c4773e16eeddabc848004048dd8a64736f6c63430008090033",
  "devdoc": {
    "kind": "dev",
    "methods": {},
    "version": 1
  },
  "userdoc": {
    "kind": "user",
    "methods": {},
    "version": 1
  },
  "storageLayout": {
    "storage": [],
    "types": null
  }
}