{
  "address": "0x8aC7A10Da0f14F704DFF5BFAc1264b813Eb1e7Ef",
  "abi": [
    {
      "inputs": [
        {
          "internalType": "uint256",
          "name": "_minimumReliableAmount",
          "type": "uint256"
        }
      ],
      "stateMutability": "nonpayable",
      "type": "constructor"
    },
    {
      "inputs": [],
      "name": "CallerNotMaker",
      "type": "error"
    },
    {
      "inputs": [],
      "name": "MarketNotOpened",
      "type": "error"
    },
    {
      "inputs": [
        {
          "internalType": "string",
          "name": "name",
          "type": "string"
        }
      ],
      "name": "MissingAddress",
      "type": "error"
    },
    {
      "inputs": [],
      "name": "NoOrderExists",
      "type": "error"
    },
    {
      "inputs": [],
      "name": "NotItayosePeriod",
      "type": "error"
    },
    {
      "inputs": [],
      "name": "NotPreOrderPeriod",
      "type": "error"
    },
    {
      "inputs": [],
      "name": "OnlyAcceptedContracts",
      "type": "error"
    },
    {
      "inputs": [],
      "name": "ResolverAlreadyRegistered",
      "type": "error"
    },
    {
      "anonymous": false,
      "inputs": [
        {
          "indexed": false,
          "internalType": "bytes32",
          "name": "name",
          "type": "bytes32"
        },
        {
          "indexed": false,
          "internalType": "address",
          "name": "destination",
          "type": "address"
        }
      ],
      "name": "CacheUpdated",
      "type": "event"
    },
    {
      "anonymous": false,
      "inputs": [
        {
          "indexed": false,
          "internalType": "uint8",
          "name": "version",
          "type": "uint8"
        }
      ],
      "name": "Initialized",
      "type": "event"
    },
    {
      "anonymous": false,
      "inputs": [
        {
          "indexed": false,
          "internalType": "address",
          "name": "account",
          "type": "address"
        }
      ],
      "name": "Paused",
      "type": "event"
    },
    {
      "anonymous": false,
      "inputs": [
        {
          "indexed": false,
          "internalType": "address",
          "name": "account",
          "type": "address"
        }
      ],
      "name": "Unpaused",
      "type": "event"
    },
    {
      "inputs": [],
      "name": "acceptedContracts",
      "outputs": [
        {
          "internalType": "bytes32[]",
          "name": "contracts",
          "type": "bytes32[]"
        }
      ],
      "stateMutability": "pure",
      "type": "function"
    },
    {
      "inputs": [],
      "name": "buildCache",
      "outputs": [],
      "stateMutability": "nonpayable",
      "type": "function"
    },
    {
      "inputs": [
        {
          "internalType": "uint8",
          "name": "_orderBookId",
          "type": "uint8"
        },
        {
          "internalType": "enum ProtocolTypes.Side",
          "name": "_side",
          "type": "uint8"
        },
        {
          "internalType": "uint256",
          "name": "_amount",
          "type": "uint256"
        },
        {
          "internalType": "uint256",
          "name": "_unitPrice",
          "type": "uint256"
        }
      ],
      "name": "calculateFilledAmount",
      "outputs": [
        {
          "internalType": "uint256",
          "name": "lastUnitPrice",
          "type": "uint256"
        },
        {
          "internalType": "uint256",
          "name": "filledAmount",
          "type": "uint256"
        },
        {
          "internalType": "uint256",
          "name": "filledAmountInFV",
          "type": "uint256"
        },
        {
          "internalType": "uint256",
          "name": "orderFeeInFV",
          "type": "uint256"
        },
        {
          "internalType": "uint256",
          "name": "placedAmount",
          "type": "uint256"
        }
      ],
      "stateMutability": "view",
      "type": "function"
    },
    {
      "inputs": [
        {
          "internalType": "uint8",
          "name": "_orderBookId",
          "type": "uint8"
        },
        {
          "internalType": "address",
          "name": "_user",
          "type": "address"
        },
        {
          "internalType": "uint48",
          "name": "_orderId",
          "type": "uint48"
        }
      ],
      "name": "cancelOrder",
      "outputs": [],
      "stateMutability": "nonpayable",
      "type": "function"
    },
    {
      "inputs": [
        {
          "internalType": "uint8",
          "name": "_orderBookId",
          "type": "uint8"
        },
        {
          "internalType": "address",
          "name": "_user",
          "type": "address"
        }
      ],
      "name": "cleanUpOrders",
      "outputs": [
        {
          "internalType": "uint256",
          "name": "activeLendOrderCount",
          "type": "uint256"
        },
        {
          "internalType": "uint256",
          "name": "activeBorrowOrderCount",
          "type": "uint256"
        },
        {
          "internalType": "uint256",
          "name": "removedLendOrderFutureValue",
          "type": "uint256"
        },
        {
          "internalType": "uint256",
          "name": "removedBorrowOrderFutureValue",
          "type": "uint256"
        },
        {
          "internalType": "uint256",
          "name": "removedLendOrderAmount",
          "type": "uint256"
        },
        {
          "internalType": "uint256",
          "name": "removedBorrowOrderAmount",
          "type": "uint256"
        },
        {
          "internalType": "uint256",
          "name": "maturity",
          "type": "uint256"
        }
      ],
      "stateMutability": "nonpayable",
      "type": "function"
    },
    {
      "inputs": [
        {
          "internalType": "uint256",
          "name": "_maturity",
          "type": "uint256"
        },
        {
          "internalType": "uint256",
          "name": "_openingDate",
          "type": "uint256"
        },
        {
          "internalType": "uint256",
          "name": "_preOpeningDate",
          "type": "uint256"
        }
      ],
      "name": "createOrderBook",
      "outputs": [
        {
          "internalType": "uint8",
          "name": "orderBookId",
          "type": "uint8"
        }
      ],
      "stateMutability": "nonpayable",
      "type": "function"
    },
    {
      "inputs": [
        {
          "internalType": "uint8",
          "name": "_maturedOrderBookId",
          "type": "uint8"
        },
        {
          "internalType": "uint8",
          "name": "_newNearestOrderBookId",
          "type": "uint8"
        },
        {
          "internalType": "uint256",
          "name": "_newMaturity",
          "type": "uint256"
        },
        {
          "internalType": "uint256",
          "name": "_openingDate",
          "type": "uint256"
        },
        {
          "internalType": "uint256",
          "name": "_autoRollUnitPrice",
          "type": "uint256"
        }
      ],
      "name": "executeAutoRoll",
      "outputs": [],
      "stateMutability": "nonpayable",
      "type": "function"
    },
    {
      "inputs": [
        {
          "internalType": "uint8",
          "name": "_orderBookId",
          "type": "uint8"
        }
      ],
      "name": "executeItayoseCall",
      "outputs": [
        {
          "internalType": "uint256",
          "name": "openingUnitPrice",
          "type": "uint256"
        },
        {
          "internalType": "uint256",
          "name": "totalOffsetAmount",
          "type": "uint256"
        },
        {
          "internalType": "uint256",
          "name": "openingDate",
          "type": "uint256"
        },
        {
          "components": [
            {
              "internalType": "uint48",
              "name": "orderId",
              "type": "uint48"
            },
            {
              "internalType": "address",
              "name": "maker",
              "type": "address"
            },
            {
              "internalType": "uint256",
              "name": "amount",
              "type": "uint256"
            },
            {
              "internalType": "uint256",
              "name": "futureValue",
              "type": "uint256"
            }
          ],
          "internalType": "struct PartiallyFilledOrder",
          "name": "partiallyFilledLendingOrder",
          "type": "tuple"
        },
        {
          "components": [
            {
              "internalType": "uint48",
              "name": "orderId",
              "type": "uint48"
            },
            {
              "internalType": "address",
              "name": "maker",
              "type": "address"
            },
            {
              "internalType": "uint256",
              "name": "amount",
              "type": "uint256"
            },
            {
              "internalType": "uint256",
              "name": "futureValue",
              "type": "uint256"
            }
          ],
          "internalType": "struct PartiallyFilledOrder",
          "name": "partiallyFilledBorrowingOrder",
          "type": "tuple"
        }
      ],
      "stateMutability": "nonpayable",
      "type": "function"
    },
    {
      "inputs": [
        {
          "internalType": "uint8",
          "name": "_orderBookId",
          "type": "uint8"
        },
        {
          "internalType": "enum ProtocolTypes.Side",
          "name": "_side",
          "type": "uint8"
        },
        {
          "internalType": "address",
          "name": "_user",
          "type": "address"
        },
        {
          "internalType": "uint256",
          "name": "_amount",
          "type": "uint256"
        },
        {
          "internalType": "uint256",
          "name": "_unitPrice",
          "type": "uint256"
        }
      ],
      "name": "executeOrder",
      "outputs": [
        {
          "components": [
            {
              "internalType": "uint256",
              "name": "amount",
              "type": "uint256"
            },
            {
              "internalType": "uint256",
              "name": "unitPrice",
              "type": "uint256"
            },
            {
              "internalType": "uint256",
              "name": "futureValue",
              "type": "uint256"
            },
            {
              "internalType": "uint256",
              "name": "ignoredAmount",
              "type": "uint256"
            }
          ],
          "internalType": "struct FilledOrder",
          "name": "filledOrder",
          "type": "tuple"
        },
        {
          "components": [
            {
              "internalType": "uint48",
              "name": "orderId",
              "type": "uint48"
            },
            {
              "internalType": "address",
              "name": "maker",
              "type": "address"
            },
            {
              "internalType": "uint256",
              "name": "amount",
              "type": "uint256"
            },
            {
              "internalType": "uint256",
              "name": "futureValue",
              "type": "uint256"
            }
          ],
          "internalType": "struct PartiallyFilledOrder",
          "name": "partiallyFilledOrder",
          "type": "tuple"
        },
        {
          "internalType": "uint256",
          "name": "feeInFV",
          "type": "uint256"
        }
      ],
      "stateMutability": "nonpayable",
      "type": "function"
    },
    {
      "inputs": [
        {
          "internalType": "uint8",
          "name": "_orderBookId",
          "type": "uint8"
        },
        {
          "internalType": "enum ProtocolTypes.Side",
          "name": "_side",
          "type": "uint8"
        },
        {
          "internalType": "address",
          "name": "_user",
          "type": "address"
        },
        {
          "internalType": "uint256",
          "name": "_amount",
          "type": "uint256"
        },
        {
          "internalType": "uint256",
          "name": "_unitPrice",
          "type": "uint256"
        }
      ],
      "name": "executePreOrder",
      "outputs": [],
      "stateMutability": "nonpayable",
      "type": "function"
    },
    {
      "inputs": [
        {
          "internalType": "uint8",
          "name": "_orderBookId",
          "type": "uint8"
        }
      ],
      "name": "getBestBorrowUnitPrice",
      "outputs": [
        {
          "internalType": "uint256",
          "name": "",
          "type": "uint256"
        }
      ],
      "stateMutability": "view",
      "type": "function"
    },
    {
      "inputs": [
        {
          "internalType": "uint8[]",
          "name": "_orderBookIds",
          "type": "uint8[]"
        }
      ],
      "name": "getBestBorrowUnitPrices",
      "outputs": [
        {
          "internalType": "uint256[]",
          "name": "",
          "type": "uint256[]"
        }
      ],
      "stateMutability": "view",
      "type": "function"
    },
    {
      "inputs": [
        {
          "internalType": "uint8",
          "name": "_orderBookId",
          "type": "uint8"
        }
      ],
      "name": "getBestLendUnitPrice",
      "outputs": [
        {
          "internalType": "uint256",
          "name": "",
          "type": "uint256"
        }
      ],
      "stateMutability": "view",
      "type": "function"
    },
    {
      "inputs": [
        {
          "internalType": "uint8[]",
          "name": "_orderBookIds",
          "type": "uint8[]"
        }
      ],
      "name": "getBestLendUnitPrices",
      "outputs": [
        {
          "internalType": "uint256[]",
          "name": "",
          "type": "uint256[]"
        }
      ],
      "stateMutability": "view",
      "type": "function"
    },
    {
      "inputs": [
        {
          "internalType": "uint8",
          "name": "_orderBookId",
          "type": "uint8"
        },
        {
          "internalType": "uint256",
          "name": "_count",
          "type": "uint256"
        }
      ],
      "name": "getBlockUnitPriceAverage",
      "outputs": [
        {
          "internalType": "uint256",
          "name": "",
          "type": "uint256"
        }
      ],
      "stateMutability": "view",
      "type": "function"
    },
    {
      "inputs": [
        {
          "internalType": "uint8",
          "name": "_orderBookId",
          "type": "uint8"
        }
      ],
      "name": "getBlockUnitPriceHistory",
      "outputs": [
        {
          "internalType": "uint256[]",
          "name": "",
          "type": "uint256[]"
        }
      ],
      "stateMutability": "view",
      "type": "function"
    },
    {
      "inputs": [
        {
          "internalType": "uint8",
          "name": "_orderBookId",
          "type": "uint8"
        },
        {
          "internalType": "uint256",
          "name": "_limit",
          "type": "uint256"
        }
      ],
      "name": "getBorrowOrderBook",
      "outputs": [
        {
          "internalType": "uint256[]",
          "name": "unitPrices",
          "type": "uint256[]"
        },
        {
          "internalType": "uint256[]",
          "name": "amounts",
          "type": "uint256[]"
        },
        {
          "internalType": "uint256[]",
          "name": "quantities",
          "type": "uint256[]"
        }
      ],
      "stateMutability": "view",
      "type": "function"
    },
    {
      "inputs": [
        {
          "internalType": "uint8",
          "name": "_orderBookId",
          "type": "uint8"
        },
        {
          "internalType": "address",
          "name": "_user",
          "type": "address"
        }
      ],
      "name": "getBorrowOrderIds",
      "outputs": [
        {
          "internalType": "uint48[]",
          "name": "activeOrderIds",
          "type": "uint48[]"
        },
        {
          "internalType": "uint48[]",
          "name": "inActiveOrderIds",
          "type": "uint48[]"
        }
      ],
      "stateMutability": "view",
      "type": "function"
    },
    {
      "inputs": [],
      "name": "getCircuitBreakerLimitRange",
      "outputs": [
        {
          "internalType": "uint256",
          "name": "",
          "type": "uint256"
        }
      ],
      "stateMutability": "view",
      "type": "function"
    },
    {
      "inputs": [
        {
          "internalType": "uint8",
          "name": "_orderBookId",
          "type": "uint8"
        }
      ],
      "name": "getCircuitBreakerThresholds",
      "outputs": [
        {
          "internalType": "uint256",
          "name": "maxLendUnitPrice",
          "type": "uint256"
        },
        {
          "internalType": "uint256",
          "name": "minBorrowUnitPrice",
          "type": "uint256"
        }
      ],
      "stateMutability": "view",
      "type": "function"
    },
    {
      "inputs": [],
      "name": "getCurrency",
      "outputs": [
        {
          "internalType": "bytes32",
          "name": "currency",
          "type": "bytes32"
        }
      ],
      "stateMutability": "view",
      "type": "function"
    },
    {
      "inputs": [
        {
          "internalType": "uint8",
          "name": "_orderBookId",
          "type": "uint8"
        }
      ],
      "name": "getItayoseEstimation",
      "outputs": [
        {
          "internalType": "uint256",
          "name": "openingUnitPrice",
          "type": "uint256"
        },
        {
          "internalType": "uint256",
          "name": "lastLendUnitPrice",
          "type": "uint256"
        },
        {
          "internalType": "uint256",
          "name": "lastBorrowUnitPrice",
          "type": "uint256"
        },
        {
          "internalType": "uint256",
          "name": "totalOffsetAmount",
          "type": "uint256"
        }
      ],
      "stateMutability": "view",
      "type": "function"
    },
    {
      "inputs": [
        {
          "internalType": "uint256",
          "name": "_maturity",
          "type": "uint256"
        }
      ],
      "name": "getItayoseLog",
      "outputs": [
        {
          "components": [
            {
              "internalType": "uint256",
              "name": "openingUnitPrice",
              "type": "uint256"
            },
            {
              "internalType": "uint256",
              "name": "lastLendUnitPrice",
              "type": "uint256"
            },
            {
              "internalType": "uint256",
              "name": "lastBorrowUnitPrice",
              "type": "uint256"
            }
          ],
          "internalType": "struct ItayoseLog",
          "name": "",
          "type": "tuple"
        }
      ],
      "stateMutability": "view",
      "type": "function"
    },
    {
      "inputs": [
        {
          "internalType": "uint8",
          "name": "_orderBookId",
          "type": "uint8"
        }
      ],
      "name": "getLastOrderBlockNumber",
      "outputs": [
        {
          "internalType": "uint256",
          "name": "",
          "type": "uint256"
        }
      ],
      "stateMutability": "view",
      "type": "function"
    },
    {
      "inputs": [
        {
          "internalType": "uint8",
          "name": "_orderBookId",
          "type": "uint8"
        },
        {
          "internalType": "uint256",
          "name": "_limit",
          "type": "uint256"
        }
      ],
      "name": "getLendOrderBook",
      "outputs": [
        {
          "internalType": "uint256[]",
          "name": "unitPrices",
          "type": "uint256[]"
        },
        {
          "internalType": "uint256[]",
          "name": "amounts",
          "type": "uint256[]"
        },
        {
          "internalType": "uint256[]",
          "name": "quantities",
          "type": "uint256[]"
        }
      ],
      "stateMutability": "view",
      "type": "function"
    },
    {
      "inputs": [
        {
          "internalType": "uint8",
          "name": "_orderBookId",
          "type": "uint8"
        },
        {
          "internalType": "address",
          "name": "_user",
          "type": "address"
        }
      ],
      "name": "getLendOrderIds",
      "outputs": [
        {
          "internalType": "uint48[]",
          "name": "activeOrderIds",
          "type": "uint48[]"
        },
        {
          "internalType": "uint48[]",
          "name": "inActiveOrderIds",
          "type": "uint48[]"
        }
      ],
      "stateMutability": "view",
      "type": "function"
    },
    {
      "inputs": [
        {
          "internalType": "uint8",
          "name": "_orderBookId",
          "type": "uint8"
        }
      ],
      "name": "getMarketUnitPrice",
      "outputs": [
        {
          "internalType": "uint256",
          "name": "",
          "type": "uint256"
        }
      ],
      "stateMutability": "view",
      "type": "function"
    },
    {
      "inputs": [
        {
          "internalType": "uint8[]",
          "name": "_orderBookIds",
          "type": "uint8[]"
        }
      ],
      "name": "getMaturities",
      "outputs": [
        {
          "internalType": "uint256[]",
          "name": "maturities",
          "type": "uint256[]"
        }
      ],
      "stateMutability": "view",
      "type": "function"
    },
    {
      "inputs": [
        {
          "internalType": "uint8",
          "name": "_orderBookId",
          "type": "uint8"
        }
      ],
      "name": "getMaturity",
      "outputs": [
        {
          "internalType": "uint256",
          "name": "maturity",
          "type": "uint256"
        }
      ],
      "stateMutability": "view",
      "type": "function"
    },
    {
      "inputs": [
        {
          "internalType": "uint8",
          "name": "_orderBookId",
          "type": "uint8"
        }
      ],
      "name": "getOpeningDate",
      "outputs": [
        {
          "internalType": "uint256",
          "name": "openingDate",
          "type": "uint256"
        }
      ],
      "stateMutability": "view",
      "type": "function"
    },
    {
      "inputs": [
        {
          "internalType": "uint8",
          "name": "_orderBookId",
          "type": "uint8"
        },
        {
          "internalType": "uint48",
          "name": "_orderId",
          "type": "uint48"
        }
      ],
      "name": "getOrder",
      "outputs": [
        {
          "internalType": "enum ProtocolTypes.Side",
          "name": "side",
          "type": "uint8"
        },
        {
          "internalType": "uint256",
          "name": "unitPrice",
          "type": "uint256"
        },
        {
          "internalType": "uint256",
          "name": "maturity",
          "type": "uint256"
        },
        {
          "internalType": "address",
          "name": "maker",
          "type": "address"
        },
        {
          "internalType": "uint256",
          "name": "amount",
          "type": "uint256"
        },
        {
          "internalType": "uint256",
          "name": "timestamp",
          "type": "uint256"
        },
        {
          "internalType": "bool",
          "name": "isPreOrder",
          "type": "bool"
        }
      ],
      "stateMutability": "view",
      "type": "function"
    },
    {
      "inputs": [
        {
          "internalType": "uint8",
          "name": "_orderBookId",
          "type": "uint8"
        }
      ],
      "name": "getOrderBookDetail",
      "outputs": [
        {
          "internalType": "bytes32",
          "name": "ccy",
          "type": "bytes32"
        },
        {
          "internalType": "uint256",
          "name": "maturity",
          "type": "uint256"
        },
        {
          "internalType": "uint256",
          "name": "openingDate",
          "type": "uint256"
        },
        {
          "internalType": "uint256",
          "name": "preOpeningDate",
          "type": "uint256"
        }
      ],
      "stateMutability": "view",
      "type": "function"
    },
    {
      "inputs": [],
      "name": "getOrderFeeRate",
      "outputs": [
        {
          "internalType": "uint256",
          "name": "",
          "type": "uint256"
        }
      ],
      "stateMutability": "view",
      "type": "function"
    },
    {
      "inputs": [],
      "name": "getRevision",
      "outputs": [
        {
          "internalType": "uint256",
          "name": "",
          "type": "uint256"
        }
      ],
      "stateMutability": "pure",
      "type": "function"
    },
    {
      "inputs": [
        {
          "internalType": "uint8",
          "name": "_orderBookId",
          "type": "uint8"
        },
        {
          "internalType": "address",
          "name": "_user",
          "type": "address"
        },
        {
          "internalType": "uint256",
          "name": "_minUnitPrice",
          "type": "uint256"
        }
      ],
      "name": "getTotalAmountFromBorrowOrders",
      "outputs": [
        {
          "internalType": "uint256",
          "name": "activeAmount",
          "type": "uint256"
        },
        {
          "internalType": "uint256",
          "name": "inactiveAmount",
          "type": "uint256"
        },
        {
          "internalType": "uint256",
          "name": "inactiveFutureValue",
          "type": "uint256"
        },
        {
          "internalType": "uint256",
          "name": "maturity",
          "type": "uint256"
        }
      ],
      "stateMutability": "view",
      "type": "function"
    },
    {
      "inputs": [
        {
          "internalType": "uint8",
          "name": "_orderBookId",
          "type": "uint8"
        },
        {
          "internalType": "address",
          "name": "_user",
          "type": "address"
        }
      ],
      "name": "getTotalAmountFromLendOrders",
      "outputs": [
        {
          "internalType": "uint256",
          "name": "activeAmount",
          "type": "uint256"
        },
        {
          "internalType": "uint256",
          "name": "inactiveAmount",
          "type": "uint256"
        },
        {
          "internalType": "uint256",
          "name": "inactiveFutureValue",
          "type": "uint256"
        },
        {
          "internalType": "uint256",
          "name": "maturity",
          "type": "uint256"
        }
      ],
      "stateMutability": "view",
      "type": "function"
    },
    {
      "inputs": [
        {
          "internalType": "address",
          "name": "_resolver",
          "type": "address"
        },
        {
          "internalType": "bytes32",
          "name": "_ccy",
          "type": "bytes32"
        },
        {
          "internalType": "uint256",
          "name": "_orderFeeRate",
          "type": "uint256"
        },
        {
          "internalType": "uint256",
          "name": "_cbLimitRange",
          "type": "uint256"
        }
      ],
      "name": "initialize",
      "outputs": [],
      "stateMutability": "nonpayable",
      "type": "function"
    },
    {
      "inputs": [
        {
          "internalType": "uint8",
          "name": "_orderBookId",
          "type": "uint8"
        }
      ],
      "name": "isItayosePeriod",
      "outputs": [
        {
          "internalType": "bool",
          "name": "",
          "type": "bool"
        }
      ],
      "stateMutability": "view",
      "type": "function"
    },
    {
      "inputs": [
        {
          "internalType": "uint8",
          "name": "_orderBookId",
          "type": "uint8"
        }
      ],
      "name": "isMatured",
      "outputs": [
        {
          "internalType": "bool",
          "name": "",
          "type": "bool"
        }
      ],
      "stateMutability": "view",
      "type": "function"
    },
    {
      "inputs": [
        {
          "internalType": "uint8",
          "name": "_orderBookId",
          "type": "uint8"
        }
      ],
      "name": "isOpened",
      "outputs": [
        {
          "internalType": "bool",
          "name": "",
          "type": "bool"
        }
      ],
      "stateMutability": "view",
      "type": "function"
    },
    {
      "inputs": [
        {
          "internalType": "uint8",
          "name": "_orderBookId",
          "type": "uint8"
        }
      ],
      "name": "isPreOrderPeriod",
      "outputs": [
        {
          "internalType": "bool",
          "name": "",
          "type": "bool"
        }
      ],
      "stateMutability": "view",
      "type": "function"
    },
    {
      "inputs": [
        {
          "internalType": "uint8",
          "name": "_orderBookId",
          "type": "uint8"
        }
      ],
      "name": "isReady",
      "outputs": [
        {
          "internalType": "bool",
          "name": "",
          "type": "bool"
        }
      ],
      "stateMutability": "view",
      "type": "function"
    },
    {
      "inputs": [],
      "name": "isResolverCached",
      "outputs": [
        {
          "internalType": "bool",
          "name": "",
          "type": "bool"
        }
      ],
      "stateMutability": "view",
      "type": "function"
    },
    {
      "inputs": [],
      "name": "pause",
      "outputs": [],
      "stateMutability": "nonpayable",
      "type": "function"
    },
    {
      "inputs": [],
      "name": "paused",
      "outputs": [
        {
          "internalType": "bool",
          "name": "",
          "type": "bool"
        }
      ],
      "stateMutability": "view",
      "type": "function"
    },
    {
      "inputs": [],
      "name": "requiredContracts",
      "outputs": [
        {
          "internalType": "bytes32[]",
          "name": "contracts",
          "type": "bytes32[]"
        }
      ],
      "stateMutability": "pure",
      "type": "function"
    },
    {
      "inputs": [],
      "name": "resolver",
      "outputs": [
        {
          "internalType": "contract IAddressResolver",
          "name": "",
          "type": "address"
        }
      ],
      "stateMutability": "view",
      "type": "function"
    },
    {
      "inputs": [],
      "name": "unpause",
      "outputs": [],
      "stateMutability": "nonpayable",
      "type": "function"
    },
    {
      "inputs": [
        {
          "internalType": "uint8",
          "name": "_orderBookId",
          "type": "uint8"
        },
        {
          "internalType": "enum ProtocolTypes.Side",
          "name": "_side",
          "type": "uint8"
        },
        {
          "internalType": "address",
          "name": "_user",
          "type": "address"
        },
        {
          "internalType": "uint256",
          "name": "_futureValue",
          "type": "uint256"
        }
      ],
      "name": "unwindPosition",
      "outputs": [
        {
          "components": [
            {
              "internalType": "uint256",
              "name": "amount",
              "type": "uint256"
            },
            {
              "internalType": "uint256",
              "name": "unitPrice",
              "type": "uint256"
            },
            {
              "internalType": "uint256",
              "name": "futureValue",
              "type": "uint256"
            },
            {
              "internalType": "uint256",
              "name": "ignoredAmount",
              "type": "uint256"
            }
          ],
          "internalType": "struct FilledOrder",
          "name": "filledOrder",
          "type": "tuple"
        },
        {
          "components": [
            {
              "internalType": "uint48",
              "name": "orderId",
              "type": "uint48"
            },
            {
              "internalType": "address",
              "name": "maker",
              "type": "address"
            },
            {
              "internalType": "uint256",
              "name": "amount",
              "type": "uint256"
            },
            {
              "internalType": "uint256",
              "name": "futureValue",
              "type": "uint256"
            }
          ],
          "internalType": "struct PartiallyFilledOrder",
          "name": "partiallyFilledOrder",
          "type": "tuple"
        },
        {
          "internalType": "uint256",
          "name": "feeInFV",
          "type": "uint256"
        }
      ],
      "stateMutability": "nonpayable",
      "type": "function"
    },
    {
      "inputs": [
        {
          "internalType": "uint256",
          "name": "_cbLimitRange",
          "type": "uint256"
        }
      ],
      "name": "updateCircuitBreakerLimitRange",
      "outputs": [],
      "stateMutability": "nonpayable",
      "type": "function"
    },
    {
      "inputs": [
        {
          "internalType": "uint256",
          "name": "_orderFeeRate",
          "type": "uint256"
        }
      ],
      "name": "updateOrderFeeRate",
      "outputs": [],
      "stateMutability": "nonpayable",
      "type": "function"
    }
  ],
  "transactionHash": "0xeb47b89a3c1c388954331da6c212fc093191ec819e07339559afae20a29bb2f6",
  "args": [
    "100000000000"
  ],
  "numDeployments": 1,
  "solcInputHash": "779b1d8459d9078db8690c7abff4d93c",
  "bytecode": "0x60a06040523480156200001157600080fd5b50604051620034ad380380620034ad83398101604081905262000034916200003d565b60805262000057565b6000602082840312156200005057600080fd5b5051919050565b6080516134336200007a60003960008181610a0a0152611e8b01526134336000f3fe608060405234801561001057600080fd5b50600436106102f15760003560e01c80636945c1fd1161019d578063b7c1d527116100e9578063de9f5fed116100a2578063f506ad301161007c578063f506ad30146107de578063f8044e6c14610826578063ff5cce9714610839578063fffa87b81461084c57600080fd5b8063de9f5fed1461079d578063e0997659146107c3578063f3f7f452146107cb57600080fd5b8063b7c1d52714610703578063cd45866214610716578063cdbd403e14610729578063d73b584a1461073c578063d88ad1e114610777578063dded339b1461078a57600080fd5b806382bdfed511610156578063932c938511610130578063932c938514610647578063936d6d2e14610669578063a3b88aa0146106ae578063a4ff243a146106c157600080fd5b806382bdfed5146106195780638456cb591461062c57806385ad3bf21461063457600080fd5b80636945c1fd146105835780636a5138d6146105985780636aa65aaf146105ab5780636c5d6df1146105be5780636d9bf95a146105d157806380d5b6091461060657600080fd5b8063381e93441161025c57806350e187011161021557806358e64897116101ef57806358e64897146105245780635c975abb146105375780635f7f8b451461054f5780635fee0bba1461056257600080fd5b806350e18701146104c45780635575c796146104ec578063576737171461051157600080fd5b8063381e93441461045b57806338b058521461046e5780633a9a3ecc146104815780633d03b9da146104945780633f4ba83a146104a95780634c60afc8146104b157600080fd5b80631f98a420116102ae5780631f98a420146103cf578063261cc1b2146103ef57806329985e5a1461041357806329d6dd131461041d5780632af64bd3146104405780632bfa7c131461044857600080fd5b806304f3bcec146102f6578063128e5b851461031b5780631316529d1461034c57806313a4451c1461035357806315a46bb3146103865780631e250317146103a8575b600080fd5b6102fe61085f565b6040516001600160a01b0390911681526020015b60405180910390f35b7ffc2836757f9146445fc75bc3c897a210ec004e4ee60fc8627ef5cbf2842b3d0c545b604051908152602001610312565b600161033e565b61036661036136600461269f565b610880565b604080519485526020850193909352918301526060820152608001610312565b6103996103943660046126e5565b61091e565b6040516103129392919061276a565b7ffc2836757f9146445fc75bc3c897a210ec004e4ee60fc8627ef5cbf2842b3d0d5461033e565b6103e26103dd3660046127b1565b610ae5565b6040516103129190612809565b6104026103fd3660046127b1565b610b67565b60405161031295949392919061281c565b61041b610c5b565b005b61043061042b3660046127b1565b610df9565b6040519015158152602001610312565b610430610e73565b61033e6104563660046127b1565b610fca565b6104306104693660046127b1565b611044565b6103e261047c366004612856565b611081565b61041b61048f3660046128cb565b611109565b61049c6111b8565b604051610312919061291c565b61041b61124a565b6103666104bf366004612960565b61127a565b6104d76104d23660046127b1565b611320565b60408051928352602083019190915201610312565b6104ff6104fa3660046129a1565b6113a3565b60405160ff9091168152602001610312565b6103e261051f366004612856565b611455565b61033e6105323660046127b1565b611491565b6000805160206133be8339815191525460ff16610430565b61033e61055d3660046127b1565b6114ce565b61057561057036600461269f565b61150b565b604051610312929190612a05565b6000805160206133de8339815191525461033e565b6104306105a63660046127b1565b6115a5565b61041b6105b9366004612a33565b6115e2565b61041b6105cc366004612a33565b61166f565b6105e46105df366004612a33565b6116cd565b6040805182518152602080840151908201529181015190820152606001610312565b6103666106143660046127b1565b611749565b6104306106273660046127b1565b6117d8565b61041b611815565b61033e6106423660046127b1565b611843565b61065a610655366004612a4c565b611880565b60405161031293929190612a78565b61033e6106773660046127b1565b60ff1660009081527ffc2836757f9146445fc75bc3c897a210ec004e4ee60fc8627ef5cbf2842b3d0e602052604090206001015490565b61033e6106bc366004612a4c565b611916565b61033e6106cf3660046127b1565b60ff1660009081527ffc2836757f9146445fc75bc3c897a210ec004e4ee60fc8627ef5cbf2842b3d0e602052604090205490565b61041b610711366004612ab1565b611996565b6103e2610724366004612856565b611bfb565b61041b610737366004612aec565b611c37565b61074f61074a366004612b47565b611d03565b604080519586526020860194909452928401919091526060830152608082015260a001610312565b610399610785366004612aec565b611d9e565b6103666107983660046127b1565b611f68565b6107b06107ab366004612ba1565b611fab565b6040516103129796959493929190612bf1565b61049c612056565b61041b6107d9366004612c3a565b6120a6565b6107f16107ec36600461269f565b6121d2565b604080519788526020880196909652948601939093526060850191909152608084015260a083015260c082015260e001610312565b61065a610834366004612a4c565b612266565b61057561084736600461269f565b6122ae565b61043061085a3660046127b1565b6122ff565b600060008051602061339e8339815191525b546001600160a01b0316919050565b6040516304e9114760e21b815260ff831660048201526001600160a01b0382166024820152600090819081908190735F466bE75361bfd61Fe38Ed6B96F6AF1c1f02814906313a4451c90604401608060405180830381865af41580156108ea573d6000803e3d6000fd5b505050506040513d601f19601f8201168201806040525081019061090e9190612c85565b9299919850965090945092505050565b6109496040518060800160405280600081526020016000815260200160008152602001600081525090565b61095161263f565b600061095b61233e565b61096433612391565b610981576040516330de277560e21b815260040160405180910390fd5b8661098b816115a5565b6109a85760405163627524cd60e01b815260040160405180910390fd5b73D8AEd6A8B7e0A357b5E65b5b145FBdB26DA0c62863ad89fe1a898989896109ce61240a565b6001600160a01b0316631c637a046000805160206133de8339815191525460405160e083901b6001600160e01b031916815260048101919091527f00000000000000000000000000000000000000000000000000000000000000006024820152604401602060405180830381865afa158015610a4e573d6000803e3d6000fd5b505050506040513d601f19601f82011682018060405250810190610a729190612cbb565b6040518663ffffffff1660e01b8152600401610a92959493929190612cd4565b61012060405180830381865af4158015610ab0573d6000803e3d6000fd5b505050506040513d601f19601f82011682018060405250810190610ad49190612dd8565b935093509350509450945094915050565b60405162fcc52160e51b815260ff821660048201526060907319a18343599b9e174E955BB462bD563bf556D14490631f98a42090602401600060405180830381865af4158015610b39573d6000803e3d6000fd5b505050506040513d6000823e601f3d908101601f19168201604052610b619190810190612ed9565b92915050565b6000806000610b7461263f565b610b7c61263f565b610b8461233e565b610b8d33612391565b610baa576040516330de277560e21b815260040160405180910390fd5b85610bb481611044565b610bd15760405163ad668d2560e01b815260040160405180910390fd5b60405163130e60d960e11b815260ff881660048201527319a18343599b9e174E955BB462bD563bf556D1449063261cc1b29060240161016060405180830381865af4158015610c24573d6000803e3d6000fd5b505050506040513d601f19601f82011682018060405250810190610c489190612f0e565b939b929a50909850965090945092505050565b6000610c656111b8565b905060005b8151811015610df5576000828281518110610c8757610c87612f61565b602002602001015190506000610ca860008051602061339e83398151915290565b54604080517f5265736f6c766572206d697373696e67207461726765743a200000000000000060208201526039808201869052825180830390910181526059820192839052636795dbcd60e01b9092526001600160a01b0390921691636795dbcd91610d1991869190605d01612fbd565b602060405180830381865afa158015610d36573d6000803e3d6000fd5b505050506040513d601f19601f82011682018060405250810190610d5a9190612fd6565b60008381527f4abde63c3e81aefa5764b017968bc473e83e093d7e1a10247d19e0a3e4124019602090815260409182902080546001600160a01b0319166001600160a01b03851690811790915582518681529182015281519293507f88a93678a3692f6789d9546fc621bf7234b101ddb7d4fe479455112831b8aa68929081900390910190a150508080610ded90612ff3565b915050610c6a565b5050565b6040516329d6dd1360e01b815260ff821660048201526000907319a18343599b9e174E955BB462bD563bf556D144906329d6dd13906024015b602060405180830381865af4158015610e4f573d6000803e3d6000fd5b505050506040513d601f19601f82011682018060405250810190610b61919061302f565b600080610e7e6111b8565b905060005b8151811015610fc1576000828281518110610ea057610ea0612f61565b60200260200101519050610ebf60008051602061339e83398151915290565b600082815260019190910160205260409020546001600160a01b031660008051602061339e833981519152546040516321f8a72160e01b8152600481018490526001600160a01b03909116906321f8a72190602401602060405180830381865afa158015610f31573d6000803e3d6000fd5b505050506040513d601f19601f82011682018060405250810190610f559190612fd6565b6001600160a01b0316141580610f9f575060008181527f4abde63c3e81aefa5764b017968bc473e83e093d7e1a10247d19e0a3e412401960205260409020546001600160a01b0316155b15610fae576000935050505090565b5080610fb981612ff3565b915050610e83565b50600191505090565b604051632bfa7c1360e01b815260ff821660048201526000907319a18343599b9e174E955BB462bD563bf556D14490632bfa7c13906024015b602060405180830381865af4158015611020573d6000803e3d6000fd5b505050506040513d601f19601f82011682018060405250810190610b619190612cbb565b604051630e07a4d160e21b815260ff821660048201526000907319a18343599b9e174E955BB462bD563bf556D1449063381e934490602401610e32565b604051631c582c2960e11b81526060907319a18343599b9e174E955BB462bD563bf556D144906338b05852906110bd908690869060040161304a565b600060405180830381865af41580156110da573d6000803e3d6000fd5b505050506040513d6000823e601f3d908101601f191682016040526111029190810190612ed9565b9392505050565b61111233612391565b61112f576040516330de277560e21b815260040160405180910390fd5b604051630ea68fb360e21b815260ff8087166004830152851660248201526044810184905260648101839052608481018290527319a18343599b9e174E955BB462bD563bf556D14490633a9a3ecc9060a40160006040518083038186803b15801561119957600080fd5b505af41580156111ad573d6000803e3d6000fd5b505050505050505050565b60408051600280825260608083018452926020830190803683370190505090507121bab93932b731bca1b7b73a3937b63632b960711b8160008151811061120157611201612f61565b602002602001018181525050762632b73234b733a6b0b935b2ba21b7b73a3937b63632b960491b8160018151811061123b5761123b612f61565b60200260200101818152505090565b61125333612391565b611270576040516330de277560e21b815260040160405180910390fd5b611278612419565b565b60405163098c15f960e31b815260ff841660048201526001600160a01b038316602482015260448101829052600090819081908190735F466bE75361bfd61Fe38Ed6B96F6AF1c1f0281490634c60afc890606401608060405180830381865af41580156112eb573d6000803e3d6000fd5b505050506040513d601f19601f8201168201806040525081019061130f9190612c85565b935093509350935093509350935093565b6040516350e1870160e01b815260ff8216600482015260009081907319a18343599b9e174E955BB462bD563bf556D144906350e18701906024016040805180830381865af4158015611376573d6000803e3d6000fd5b505050506040513d601f19601f8201168201806040525081019061139a9190613087565b91509150915091565b60006113ae33612391565b6113cb576040516330de277560e21b815260040160405180910390fd5b604051632abae3cb60e11b81526004810185905260248101849052604481018390527319a18343599b9e174E955BB462bD563bf556D14490635575c79690606401602060405180830381865af4158015611429573d6000803e3d6000fd5b505050506040513d601f19601f8201168201806040525081019061144d91906130ab565b949350505050565b604051635767371760e01b81526060907319a18343599b9e174E955BB462bD563bf556D144906357673717906110bd908690869060040161304a565b6040516358e6489760e01b815260ff821660048201526000907319a18343599b9e174E955BB462bD563bf556D144906358e6489790602401611003565b604051635f7f8b4560e01b815260ff821660048201526000907319a18343599b9e174E955BB462bD563bf556D14490635f7f8b4590602401611003565b604051632ff705dd60e11b815260ff831660048201526001600160a01b03821660248201526060908190735F466bE75361bfd61Fe38Ed6B96F6AF1c1f0281490635fee0bba906044015b600060405180830381865af4158015611572573d6000803e3d6000fd5b505050506040513d6000823e601f3d908101601f1916820160405261159a919081019061312c565b915091509250929050565b6040516335289c6b60e11b815260ff821660048201526000907319a18343599b9e174E955BB462bD563bf556D14490636a5138d690602401610e32565b6115eb33612391565b611608576040516330de277560e21b815260040160405180910390fd5b604051636aa65aaf60e01b8152600481018290527319a18343599b9e174E955BB462bD563bf556D14490636aa65aaf906024015b60006040518083038186803b15801561165457600080fd5b505af4158015611668573d6000803e3d6000fd5b5050505050565b61167833612391565b611695576040516330de277560e21b815260040160405180910390fd5b604051636c5d6df160e01b8152600481018290527319a18343599b9e174E955BB462bD563bf556D14490636c5d6df19060240161163c565b6116f160405180606001604052806000815260200160008152602001600081525090565b5060009081527ffc2836757f9146445fc75bc3c897a210ec004e4ee60fc8627ef5cbf2842b3d106020908152604091829020825160608101845281548152600182015492810192909252600201549181019190915290565b6040516380d5b60960e01b815260ff821660048201526000908190819081907319a18343599b9e174E955BB462bD563bf556D144906380d5b609906024015b608060405180830381865af41580156117a5573d6000803e3d6000fd5b505050506040513d601f19601f820116820180604052508101906117c99190612c85565b93509350935093509193509193565b6040516382bdfed560e01b815260ff821660048201526000907319a18343599b9e174E955BB462bD563bf556D144906382bdfed590602401610e32565b61181e33612391565b61183b576040516330de277560e21b815260040160405180910390fd5b611278612478565b6040516342d69df960e11b815260ff821660048201526000907319a18343599b9e174E955BB462bD563bf556D144906385ad3bf290602401611003565b60405163932c938560e01b815260ff8316600482015260248101829052606090819081907319a18343599b9e174E955BB462bD563bf556D1449063932c9385906044015b600060405180830381865af41580156118e1573d6000803e3d6000fd5b505050506040513d6000823e601f3d908101601f191682016040526119099190810190613190565b9250925092509250925092565b60405163051dc45560e51b815260ff83166004820152602481018290526000907319a18343599b9e174E955BB462bD563bf556D1449063a3b88aa090604401602060405180830381865af4158015611972573d6000803e3d6000fd5b505050506040513d601f19601f820116820180604052508101906111029190612cbb565b600054610100900460ff16158080156119b65750600054600160ff909116105b806119d05750303b1580156119d0575060005460ff166001145b611a385760405162461bcd60e51b815260206004820152602e60248201527f496e697469616c697a61626c653a20636f6e747261637420697320616c72656160448201526d191e481a5b9a5d1a585b1a5e995960921b60648201526084015b60405180910390fd5b6000805460ff191660011790558015611a5b576000805461ff0019166101001790555b6000611a656124c1565b6001600160a01b031603611ac75760405162461bcd60e51b815260206004820152602360248201527f4d7573742062652063616c6c65642066726f6d20626561636f6e20636f6e74726044820152621858dd60ea1b6064820152608401611a2f565b611ad0856124e9565b836000805160206133de83398151915255604051636aa65aaf60e01b8152600481018490527319a18343599b9e174E955BB462bD563bf556D14490636aa65aaf9060240160006040518083038186803b158015611b2c57600080fd5b505af4158015611b40573d6000803e3d6000fd5b5050604051636c5d6df160e01b8152600481018590527319a18343599b9e174E955BB462bD563bf556D1449250636c5d6df1915060240160006040518083038186803b158015611b8f57600080fd5b505af4158015611ba3573d6000803e3d6000fd5b50505050611baf610c5b565b8015611668576000805461ff0019169055604051600181527f7f26b83ff96e1f2b6a682f133852f6798a09c465da95921460cefb38474024989060200160405180910390a15050505050565b6040516366a2c33160e11b81526060907319a18343599b9e174E955BB462bD563bf556D1449063cd458662906110bd908690869060040161304a565b611c3f61233e565b611c4833612391565b611c65576040516330de277560e21b815260040160405180910390fd5b84611c6f816122ff565b611c8c576040516336b3c46360e21b815260040160405180910390fd5b60405163ed94d50f60e01b815273D8AEd6A8B7e0A357b5E65b5b145FBdB26DA0c6289063ed94d50f90611ccb9089908990899089908990600401612cd4565b60006040518083038186803b158015611ce357600080fd5b505af4158015611cf7573d6000803e3d6000fd5b50505050505050505050565b6000806000806000735F466bE75361bfd61Fe38Ed6B96F6AF1c1f02814634a864e228a8a8a8a6040518563ffffffff1660e01b8152600401611d489493929190613218565b60a060405180830381865af4158015611d65573d6000803e3d6000fd5b505050506040513d601f19601f82011682018060405250810190611d899190613241565b94509450945094509450945094509450945094565b611dc96040518060800160405280600081526020016000815260200160008152602001600081525090565b611dd161263f565b6000611ddb61233e565b611de433612391565b611e01576040516330de277560e21b815260040160405180910390fd5b87611e0b816115a5565b611e285760405163627524cd60e01b815260040160405180910390fd5b73D8AEd6A8B7e0A357b5E65b5b145FBdB26DA0c62863447265be8a8a8a8a8a611e4f61240a565b6001600160a01b0316631c637a046000805160206133de8339815191525460405160e083901b6001600160e01b031916815260048101919091527f00000000000000000000000000000000000000000000000000000000000000006024820152604401602060405180830381865afa158015611ecf573d6000803e3d6000fd5b505050506040513d601f19601f82011682018060405250810190611ef39190612cbb565b6040518763ffffffff1660e01b8152600401611f1496959493929190613281565b61012060405180830381865af4158015611f32573d6000803e3d6000fd5b505050506040513d601f19601f82011682018060405250810190611f569190612dd8565b93509350935050955095509592505050565b60405163dded339b60e01b815260ff821660048201526000908190819081907319a18343599b9e174E955BB462bD563bf556D1449063dded339b90602401611788565b60405163de9f5fed60e01b815260ff8316600482015265ffffffffffff82166024820152600090819081908190819081908190735F466bE75361bfd61Fe38Ed6B96F6AF1c1f028149063de9f5fed9060440160e060405180830381865af415801561201a573d6000803e3d6000fd5b505050506040513d601f19601f8201168201806040525081019061203e91906132c5565b959f949e50929c50909a509850965090945092505050565b60408051600180825281830190925260609160208083019080368337019050509050762632b73234b733a6b0b935b2ba21b7b73a3937b63632b960491b8160008151811061123b5761123b612f61565b82828260006120b58483611fab565b50919550506001600160a01b03851693506120e7925050505760405163cf3c6cab60e01b815260040160405180910390fd5b806001600160a01b0316836001600160a01b0316146121195760405163a512216b60e01b815260040160405180910390fd5b61212161233e565b61212a33612391565b612147576040516330de277560e21b815260040160405180910390fd5b6040516379fbfa2960e11b815260ff881660048201526001600160a01b038716602482015265ffffffffffff8616604482015273D8AEd6A8B7e0A357b5E65b5b145FBdB26DA0c6289063f3f7f4529060640160006040518083038186803b1580156121b157600080fd5b505af41580156121c5573d6000803e3d6000fd5b5050505050505050505050565b604051630f506ad360e41b815260ff831660048201526001600160a01b038216602482015260009081908190819081908190819073D8AEd6A8B7e0A357b5E65b5b145FBdB26DA0c6289063f506ad309060440160e060405180830381865af4158015612242573d6000803e3d6000fd5b505050506040513d601f19601f8201168201806040525081019061203e9190613336565b604051633e01139b60e21b815260ff8316600482015260248101829052606090819081907319a18343599b9e174E955BB462bD563bf556D1449063f8044e6c906044016118c4565b604051600162a3316960e01b0319815260ff831660048201526001600160a01b03821660248201526060908190735F466bE75361bfd61Fe38Ed6B96F6AF1c1f028149063ff5cce9790604401611555565b604051600161af0960e31b0319815260ff821660048201526000907319a18343599b9e174E955BB462bD563bf556D1449063fffa87b890602401610e32565b6000805160206133be8339815191525460ff16156112785760405162461bcd60e51b815260206004820152601060248201526f14185d5cd8589b194e881c185d5cd95960821b6044820152606401611a2f565b60008061239c612056565b905060005b8151811015612400576123cc8282815181106123bf576123bf612f61565b602002602001015161254f565b6001600160a01b0316846001600160a01b0316036123ee575060019392505050565b806123f881612ff3565b9150506123a1565b5060009392505050565b600061241461255a565b905090565b61242161257a565b6000805160206133be833981519152805460ff191690557f5db9ee0a495bf2e6ff9c91a7834c1ba4fdd244a5e8aa4e537bd38aeae4b073aa335b6040516001600160a01b03909116815260200160405180910390a1565b61248061233e565b6000805160206133be833981519152805460ff191660011790557f62e78cea01bee320cd4e420270b5ea74000d11b0c9f74754ebdbfc544b05a2583361245b565b60007fa3f0ad74e5423aebfd80d3ef4346578335a9a72aeaee59ff6cb3582b35133d50610871565b60008051602061339e833981519152546001600160a01b031615612520576040516304b79d6360e51b815260040160405180910390fd5b60008051602061339e83398151915280546001600160a01b0319166001600160a01b0392909216919091179055565b6000610b61826125d0565b60006124147121bab93932b731bca1b7b73a3937b63632b960711b6125d0565b6000805160206133be8339815191525460ff166112785760405162461bcd60e51b815260206004820152601460248201527314185d5cd8589b194e881b9bdd081c185d5cd95960621b6044820152606401611a2f565b60008181527f4abde63c3e81aefa5764b017968bc473e83e093d7e1a10247d19e0a3e412401960205260408120546001600160a01b031680610b615760408051602081018590520160408051601f19818403018152908290526346e2ec9360e01b8252611a2f9160040161338a565b6040518060800160405280600065ffffffffffff16815260200160006001600160a01b0316815260200160008152602001600081525090565b60ff8116811461268757600080fd5b50565b6001600160a01b038116811461268757600080fd5b600080604083850312156126b257600080fd5b82356126bd81612678565b915060208301356126cd8161268a565b809150509250929050565b6002811061268757600080fd5b600080600080608085870312156126fb57600080fd5b843561270681612678565b93506020850135612716816126d8565b925060408501356127268161268a565b9396929550929360600135925050565b805165ffffffffffff1682526020808201516001600160a01b03169083015260408082015190830152606090810151910152565b600061012082019050845182526020850151602083015260408501516040830152606085015160608301526127a26080830185612736565b82610100830152949350505050565b6000602082840312156127c357600080fd5b813561110281612678565b600081518084526020808501945080840160005b838110156127fe578151875295820195908201906001016127e2565b509495945050505050565b60208152600061110260208301846127ce565b8581526020810185905260408101849052610160810161283f6060830185612736565b61284c60e0830184612736565b9695505050505050565b6000806020838503121561286957600080fd5b823567ffffffffffffffff8082111561288157600080fd5b818501915085601f83011261289557600080fd5b8135818111156128a457600080fd5b8660208260051b85010111156128b957600080fd5b60209290920196919550909350505050565b600080600080600060a086880312156128e357600080fd5b85356128ee81612678565b945060208601356128fe81612678565b94979496505050506040830135926060810135926080909101359150565b6020808252825182820181905260009190848201906040850190845b8181101561295457835183529284019291840191600101612938565b50909695505050505050565b60008060006060848603121561297557600080fd5b833561298081612678565b925060208401356129908161268a565b929592945050506040919091013590565b6000806000606084860312156129b657600080fd5b505081359360208301359350604090920135919050565b600081518084526020808501945080840160005b838110156127fe57815165ffffffffffff16875295820195908201906001016129e1565b604081526000612a1860408301856129cd565b8281036020840152612a2a81856129cd565b95945050505050565b600060208284031215612a4557600080fd5b5035919050565b60008060408385031215612a5f57600080fd5b8235612a6a81612678565b946020939093013593505050565b606081526000612a8b60608301866127ce565b8281036020840152612a9d81866127ce565b9050828103604084015261284c81856127ce565b60008060008060808587031215612ac757600080fd5b8435612ad28161268a565b966020860135965060408601359560600135945092505050565b600080600080600060a08688031215612b0457600080fd5b8535612b0f81612678565b94506020860135612b1f816126d8565b93506040860135612b2f8161268a565b94979396509394606081013594506080013592915050565b60008060008060808587031215612b5d57600080fd5b8435612b6881612678565b93506020850135612b78816126d8565b93969395505050506040820135916060013590565b65ffffffffffff8116811461268757600080fd5b60008060408385031215612bb457600080fd5b8235612bbf81612678565b915060208301356126cd81612b8d565b60028110612bed57634e487b7160e01b600052602160045260246000fd5b9052565b60e08101612bff828a612bcf565b602082019790975260408101959095526001600160a01b03939093166060850152608084019190915260a0830152151560c090910152919050565b600080600060608486031215612c4f57600080fd5b8335612c5a81612678565b92506020840135612c6a8161268a565b91506040840135612c7a81612b8d565b809150509250925092565b60008060008060808587031215612c9b57600080fd5b505082516020840151604085015160609095015191969095509092509050565b600060208284031215612ccd57600080fd5b5051919050565b60ff8616815260a08101612ceb6020830187612bcf565b6001600160a01b03949094166040820152606081019290925260809091015292915050565b634e487b7160e01b600052604160045260246000fd5b6040516080810167ffffffffffffffff81118282101715612d4957612d49612d10565b60405290565b604051601f8201601f1916810167ffffffffffffffff81118282101715612d7857612d78612d10565b604052919050565b600060808284031215612d9257600080fd5b612d9a612d26565b90508151612da781612b8d565b81526020820151612db78161268a565b80602083015250604082015160408201526060820151606082015292915050565b6000806000838503610120811215612def57600080fd5b6080811215612dfd57600080fd5b50612e06612d26565b8451815260208501516020820152604085015160408201526060850151606082015280935050612e398560808601612d80565b915061010084015190509250925092565b600067ffffffffffffffff821115612e6457612e64612d10565b5060051b60200190565b600082601f830112612e7f57600080fd5b81516020612e94612e8f83612e4a565b612d4f565b82815260059290921b84018101918181019086841115612eb357600080fd5b8286015b84811015612ece5780518352918301918301612eb7565b509695505050505050565b600060208284031215612eeb57600080fd5b815167ffffffffffffffff811115612f0257600080fd5b61144d84828501612e6e565b60008060008060006101608688031215612f2757600080fd5b855194506020860151935060408601519250612f468760608801612d80565b9150612f558760e08801612d80565b90509295509295909350565b634e487b7160e01b600052603260045260246000fd5b6000815180845260005b81811015612f9d57602081850181015186830182015201612f81565b506000602082860101526020601f19601f83011685010191505092915050565b82815260406020820152600061144d6040830184612f77565b600060208284031215612fe857600080fd5b81516111028161268a565b60006001820161301357634e487b7160e01b600052601160045260246000fd5b5060010190565b8051801515811461302a57600080fd5b919050565b60006020828403121561304157600080fd5b6111028261301a565b60208082528181018390526000908460408401835b86811015612ece57823561307281612678565b60ff168252918301919083019060010161305f565b6000806040838503121561309a57600080fd5b505080516020909101519092909150565b6000602082840312156130bd57600080fd5b815161110281612678565b600082601f8301126130d957600080fd5b815160206130e9612e8f83612e4a565b82815260059290921b8401810191818101908684111561310857600080fd5b8286015b84811015612ece57805161311f81612b8d565b835291830191830161310c565b6000806040838503121561313f57600080fd5b825167ffffffffffffffff8082111561315757600080fd5b613163868387016130c8565b9350602085015191508082111561317957600080fd5b50613186858286016130c8565b9150509250929050565b6000806000606084860312156131a557600080fd5b835167ffffffffffffffff808211156131bd57600080fd5b6131c987838801612e6e565b945060208601519150808211156131df57600080fd5b6131eb87838801612e6e565b9350604086015191508082111561320157600080fd5b5061320e86828701612e6e565b9150509250925092565b60ff851681526080810161322f6020830186612bcf565b60408201939093526060015292915050565b600080600080600060a0868803121561325957600080fd5b5050835160208501516040860151606087015160809097015192989197509594509092509050565b60ff8716815260c081016132986020830188612bcf565b6001600160a01b039590951660408201526060810193909352608083019190915260a09091015292915050565b600080600080600080600060e0888a0312156132e057600080fd5b87516132eb816126d8565b809750506020880151955060408801519450606088015161330b8161268a565b608089015160a08a01519195509350915061332860c0890161301a565b905092959891949750929550565b600080600080600080600060e0888a03121561335157600080fd5b5050855160208701516040880151606089015160808a015160a08b015160c0909b0151949c939b50919990985090965094509092509050565b6020815260006111026020830184612f7756fe4abde63c3e81aefa5764b017968bc473e83e093d7e1a10247d19e0a3e41240189c789132bdb3678132848a8dcd780bffd2b1abdce3984c522ac1d8aeb48f05f3fc2836757f9146445fc75bc3c897a210ec004e4ee60fc8627ef5cbf2842b3d0aa264697066735822122061af60723bd1fc84bd23858df316f061ef8f1c591e0de26a53f14b269b1b412564736f6c63430008130033",
  "deployedBytecode": "0x608060405234801561001057600080fd5b50600436106102f15760003560e01c80636945c1fd1161019d578063b7c1d527116100e9578063de9f5fed116100a2578063f506ad301161007c578063f506ad30146107de578063f8044e6c14610826578063ff5cce9714610839578063fffa87b81461084c57600080fd5b8063de9f5fed1461079d578063e0997659146107c3578063f3f7f452146107cb57600080fd5b8063b7c1d52714610703578063cd45866214610716578063cdbd403e14610729578063d73b584a1461073c578063d88ad1e114610777578063dded339b1461078a57600080fd5b806382bdfed511610156578063932c938511610130578063932c938514610647578063936d6d2e14610669578063a3b88aa0146106ae578063a4ff243a146106c157600080fd5b806382bdfed5146106195780638456cb591461062c57806385ad3bf21461063457600080fd5b80636945c1fd146105835780636a5138d6146105985780636aa65aaf146105ab5780636c5d6df1146105be5780636d9bf95a146105d157806380d5b6091461060657600080fd5b8063381e93441161025c57806350e187011161021557806358e64897116101ef57806358e64897146105245780635c975abb146105375780635f7f8b451461054f5780635fee0bba1461056257600080fd5b806350e18701146104c45780635575c796146104ec578063576737171461051157600080fd5b8063381e93441461045b57806338b058521461046e5780633a9a3ecc146104815780633d03b9da146104945780633f4ba83a146104a95780634c60afc8146104b157600080fd5b80631f98a420116102ae5780631f98a420146103cf578063261cc1b2146103ef57806329985e5a1461041357806329d6dd131461041d5780632af64bd3146104405780632bfa7c131461044857600080fd5b806304f3bcec146102f6578063128e5b851461031b5780631316529d1461034c57806313a4451c1461035357806315a46bb3146103865780631e250317146103a8575b600080fd5b6102fe61085f565b6040516001600160a01b0390911681526020015b60405180910390f35b7ffc2836757f9146445fc75bc3c897a210ec004e4ee60fc8627ef5cbf2842b3d0c545b604051908152602001610312565b600161033e565b61036661036136600461269f565b610880565b604080519485526020850193909352918301526060820152608001610312565b6103996103943660046126e5565b61091e565b6040516103129392919061276a565b7ffc2836757f9146445fc75bc3c897a210ec004e4ee60fc8627ef5cbf2842b3d0d5461033e565b6103e26103dd3660046127b1565b610ae5565b6040516103129190612809565b6104026103fd3660046127b1565b610b67565b60405161031295949392919061281c565b61041b610c5b565b005b61043061042b3660046127b1565b610df9565b6040519015158152602001610312565b610430610e73565b61033e6104563660046127b1565b610fca565b6104306104693660046127b1565b611044565b6103e261047c366004612856565b611081565b61041b61048f3660046128cb565b611109565b61049c6111b8565b604051610312919061291c565b61041b61124a565b6103666104bf366004612960565b61127a565b6104d76104d23660046127b1565b611320565b60408051928352602083019190915201610312565b6104ff6104fa3660046129a1565b6113a3565b60405160ff9091168152602001610312565b6103e261051f366004612856565b611455565b61033e6105323660046127b1565b611491565b6000805160206133be8339815191525460ff16610430565b61033e61055d3660046127b1565b6114ce565b61057561057036600461269f565b61150b565b604051610312929190612a05565b6000805160206133de8339815191525461033e565b6104306105a63660046127b1565b6115a5565b61041b6105b9366004612a33565b6115e2565b61041b6105cc366004612a33565b61166f565b6105e46105df366004612a33565b6116cd565b6040805182518152602080840151908201529181015190820152606001610312565b6103666106143660046127b1565b611749565b6104306106273660046127b1565b6117d8565b61041b611815565b61033e6106423660046127b1565b611843565b61065a610655366004612a4c565b611880565b60405161031293929190612a78565b61033e6106773660046127b1565b60ff1660009081527ffc2836757f9146445fc75bc3c897a210ec004e4ee60fc8627ef5cbf2842b3d0e602052604090206001015490565b61033e6106bc366004612a4c565b611916565b61033e6106cf3660046127b1565b60ff1660009081527ffc2836757f9146445fc75bc3c897a210ec004e4ee60fc8627ef5cbf2842b3d0e602052604090205490565b61041b610711366004612ab1565b611996565b6103e2610724366004612856565b611bfb565b61041b610737366004612aec565b611c37565b61074f61074a366004612b47565b611d03565b604080519586526020860194909452928401919091526060830152608082015260a001610312565b610399610785366004612aec565b611d9e565b6103666107983660046127b1565b611f68565b6107b06107ab366004612ba1565b611fab565b6040516103129796959493929190612bf1565b61049c612056565b61041b6107d9366004612c3a565b6120a6565b6107f16107ec36600461269f565b6121d2565b604080519788526020880196909652948601939093526060850191909152608084015260a083015260c082015260e001610312565b61065a610834366004612a4c565b612266565b61057561084736600461269f565b6122ae565b61043061085a3660046127b1565b6122ff565b600060008051602061339e8339815191525b546001600160a01b0316919050565b6040516304e9114760e21b815260ff831660048201526001600160a01b038216602482015260009081908190819073__$62400fcf056c2b33063fc11a9740c72847$__906313a4451c90604401608060405180830381865af41580156108ea573d6000803e3d6000fd5b505050506040513d601f19601f8201168201806040525081019061090e9190612c85565b9299919850965090945092505050565b6109496040518060800160405280600081526020016000815260200160008152602001600081525090565b61095161263f565b600061095b61233e565b61096433612391565b610981576040516330de277560e21b815260040160405180910390fd5b8661098b816115a5565b6109a85760405163627524cd60e01b815260040160405180910390fd5b73__$61caf4c2bb53b95485f5a2f3428ccc66af$__63ad89fe1a898989896109ce61240a565b6001600160a01b0316631c637a046000805160206133de8339815191525460405160e083901b6001600160e01b031916815260048101919091527f00000000000000000000000000000000000000000000000000000000000000006024820152604401602060405180830381865afa158015610a4e573d6000803e3d6000fd5b505050506040513d601f19601f82011682018060405250810190610a729190612cbb565b6040518663ffffffff1660e01b8152600401610a92959493929190612cd4565b61012060405180830381865af4158015610ab0573d6000803e3d6000fd5b505050506040513d601f19601f82011682018060405250810190610ad49190612dd8565b935093509350509450945094915050565b60405162fcc52160e51b815260ff8216600482015260609073__$ddd2182d6f392994445e6b8b482a37128a$__90631f98a42090602401600060405180830381865af4158015610b39573d6000803e3d6000fd5b505050506040513d6000823e601f3d908101601f19168201604052610b619190810190612ed9565b92915050565b6000806000610b7461263f565b610b7c61263f565b610b8461233e565b610b8d33612391565b610baa576040516330de277560e21b815260040160405180910390fd5b85610bb481611044565b610bd15760405163ad668d2560e01b815260040160405180910390fd5b60405163130e60d960e11b815260ff8816600482015273__$ddd2182d6f392994445e6b8b482a37128a$__9063261cc1b29060240161016060405180830381865af4158015610c24573d6000803e3d6000fd5b505050506040513d601f19601f82011682018060405250810190610c489190612f0e565b939b929a50909850965090945092505050565b6000610c656111b8565b905060005b8151811015610df5576000828281518110610c8757610c87612f61565b602002602001015190506000610ca860008051602061339e83398151915290565b54604080517f5265736f6c766572206d697373696e67207461726765743a200000000000000060208201526039808201869052825180830390910181526059820192839052636795dbcd60e01b9092526001600160a01b0390921691636795dbcd91610d1991869190605d01612fbd565b602060405180830381865afa158015610d36573d6000803e3d6000fd5b505050506040513d601f19601f82011682018060405250810190610d5a9190612fd6565b60008381527f4abde63c3e81aefa5764b017968bc473e83e093d7e1a10247d19e0a3e4124019602090815260409182902080546001600160a01b0319166001600160a01b03851690811790915582518681529182015281519293507f88a93678a3692f6789d9546fc621bf7234b101ddb7d4fe479455112831b8aa68929081900390910190a150508080610ded90612ff3565b915050610c6a565b5050565b6040516329d6dd1360e01b815260ff8216600482015260009073__$ddd2182d6f392994445e6b8b482a37128a$__906329d6dd13906024015b602060405180830381865af4158015610e4f573d6000803e3d6000fd5b505050506040513d601f19601f82011682018060405250810190610b61919061302f565b600080610e7e6111b8565b905060005b8151811015610fc1576000828281518110610ea057610ea0612f61565b60200260200101519050610ebf60008051602061339e83398151915290565b600082815260019190910160205260409020546001600160a01b031660008051602061339e833981519152546040516321f8a72160e01b8152600481018490526001600160a01b03909116906321f8a72190602401602060405180830381865afa158015610f31573d6000803e3d6000fd5b505050506040513d601f19601f82011682018060405250810190610f559190612fd6565b6001600160a01b0316141580610f9f575060008181527f4abde63c3e81aefa5764b017968bc473e83e093d7e1a10247d19e0a3e412401960205260409020546001600160a01b0316155b15610fae576000935050505090565b5080610fb981612ff3565b915050610e83565b50600191505090565b604051632bfa7c1360e01b815260ff8216600482015260009073__$ddd2182d6f392994445e6b8b482a37128a$__90632bfa7c13906024015b602060405180830381865af4158015611020573d6000803e3d6000fd5b505050506040513d601f19601f82011682018060405250810190610b619190612cbb565b604051630e07a4d160e21b815260ff8216600482015260009073__$ddd2182d6f392994445e6b8b482a37128a$__9063381e934490602401610e32565b604051631c582c2960e11b815260609073__$ddd2182d6f392994445e6b8b482a37128a$__906338b05852906110bd908690869060040161304a565b600060405180830381865af41580156110da573d6000803e3d6000fd5b505050506040513d6000823e601f3d908101601f191682016040526111029190810190612ed9565b9392505050565b61111233612391565b61112f576040516330de277560e21b815260040160405180910390fd5b604051630ea68fb360e21b815260ff80871660048301528516602482015260448101849052606481018390526084810182905273__$ddd2182d6f392994445e6b8b482a37128a$__90633a9a3ecc9060a40160006040518083038186803b15801561119957600080fd5b505af41580156111ad573d6000803e3d6000fd5b505050505050505050565b60408051600280825260608083018452926020830190803683370190505090507121bab93932b731bca1b7b73a3937b63632b960711b8160008151811061120157611201612f61565b602002602001018181525050762632b73234b733a6b0b935b2ba21b7b73a3937b63632b960491b8160018151811061123b5761123b612f61565b60200260200101818152505090565b61125333612391565b611270576040516330de277560e21b815260040160405180910390fd5b611278612419565b565b60405163098c15f960e31b815260ff841660048201526001600160a01b03831660248201526044810182905260009081908190819073__$62400fcf056c2b33063fc11a9740c72847$__90634c60afc890606401608060405180830381865af41580156112eb573d6000803e3d6000fd5b505050506040513d601f19601f8201168201806040525081019061130f9190612c85565b935093509350935093509350935093565b6040516350e1870160e01b815260ff82166004820152600090819073__$ddd2182d6f392994445e6b8b482a37128a$__906350e18701906024016040805180830381865af4158015611376573d6000803e3d6000fd5b505050506040513d601f19601f8201168201806040525081019061139a9190613087565b91509150915091565b60006113ae33612391565b6113cb576040516330de277560e21b815260040160405180910390fd5b604051632abae3cb60e11b815260048101859052602481018490526044810183905273__$ddd2182d6f392994445e6b8b482a37128a$__90635575c79690606401602060405180830381865af4158015611429573d6000803e3d6000fd5b505050506040513d601f19601f8201168201806040525081019061144d91906130ab565b949350505050565b604051635767371760e01b815260609073__$ddd2182d6f392994445e6b8b482a37128a$__906357673717906110bd908690869060040161304a565b6040516358e6489760e01b815260ff8216600482015260009073__$ddd2182d6f392994445e6b8b482a37128a$__906358e6489790602401611003565b604051635f7f8b4560e01b815260ff8216600482015260009073__$ddd2182d6f392994445e6b8b482a37128a$__90635f7f8b4590602401611003565b604051632ff705dd60e11b815260ff831660048201526001600160a01b0382166024820152606090819073__$62400fcf056c2b33063fc11a9740c72847$__90635fee0bba906044015b600060405180830381865af4158015611572573d6000803e3d6000fd5b505050506040513d6000823e601f3d908101601f1916820160405261159a919081019061312c565b915091509250929050565b6040516335289c6b60e11b815260ff8216600482015260009073__$ddd2182d6f392994445e6b8b482a37128a$__90636a5138d690602401610e32565b6115eb33612391565b611608576040516330de277560e21b815260040160405180910390fd5b604051636aa65aaf60e01b81526004810182905273__$ddd2182d6f392994445e6b8b482a37128a$__90636aa65aaf906024015b60006040518083038186803b15801561165457600080fd5b505af4158015611668573d6000803e3d6000fd5b5050505050565b61167833612391565b611695576040516330de277560e21b815260040160405180910390fd5b604051636c5d6df160e01b81526004810182905273__$ddd2182d6f392994445e6b8b482a37128a$__90636c5d6df19060240161163c565b6116f160405180606001604052806000815260200160008152602001600081525090565b5060009081527ffc2836757f9146445fc75bc3c897a210ec004e4ee60fc8627ef5cbf2842b3d106020908152604091829020825160608101845281548152600182015492810192909252600201549181019190915290565b6040516380d5b60960e01b815260ff8216600482015260009081908190819073__$ddd2182d6f392994445e6b8b482a37128a$__906380d5b609906024015b608060405180830381865af41580156117a5573d6000803e3d6000fd5b505050506040513d601f19601f820116820180604052508101906117c99190612c85565b93509350935093509193509193565b6040516382bdfed560e01b815260ff8216600482015260009073__$ddd2182d6f392994445e6b8b482a37128a$__906382bdfed590602401610e32565b61181e33612391565b61183b576040516330de277560e21b815260040160405180910390fd5b611278612478565b6040516342d69df960e11b815260ff8216600482015260009073__$ddd2182d6f392994445e6b8b482a37128a$__906385ad3bf290602401611003565b60405163932c938560e01b815260ff83166004820152602481018290526060908190819073__$ddd2182d6f392994445e6b8b482a37128a$__9063932c9385906044015b600060405180830381865af41580156118e1573d6000803e3d6000fd5b505050506040513d6000823e601f3d908101601f191682016040526119099190810190613190565b9250925092509250925092565b60405163051dc45560e51b815260ff831660048201526024810182905260009073__$ddd2182d6f392994445e6b8b482a37128a$__9063a3b88aa090604401602060405180830381865af4158015611972573d6000803e3d6000fd5b505050506040513d601f19601f820116820180604052508101906111029190612cbb565b600054610100900460ff16158080156119b65750600054600160ff909116105b806119d05750303b1580156119d0575060005460ff166001145b611a385760405162461bcd60e51b815260206004820152602e60248201527f496e697469616c697a61626c653a20636f6e747261637420697320616c72656160448201526d191e481a5b9a5d1a585b1a5e995960921b60648201526084015b60405180910390fd5b6000805460ff191660011790558015611a5b576000805461ff0019166101001790555b6000611a656124c1565b6001600160a01b031603611ac75760405162461bcd60e51b815260206004820152602360248201527f4d7573742062652063616c6c65642066726f6d20626561636f6e20636f6e74726044820152621858dd60ea1b6064820152608401611a2f565b611ad0856124e9565b836000805160206133de83398151915255604051636aa65aaf60e01b81526004810184905273__$ddd2182d6f392994445e6b8b482a37128a$__90636aa65aaf9060240160006040518083038186803b158015611b2c57600080fd5b505af4158015611b40573d6000803e3d6000fd5b5050604051636c5d6df160e01b81526004810185905273__$ddd2182d6f392994445e6b8b482a37128a$__9250636c5d6df1915060240160006040518083038186803b158015611b8f57600080fd5b505af4158015611ba3573d6000803e3d6000fd5b50505050611baf610c5b565b8015611668576000805461ff0019169055604051600181527f7f26b83ff96e1f2b6a682f133852f6798a09c465da95921460cefb38474024989060200160405180910390a15050505050565b6040516366a2c33160e11b815260609073__$ddd2182d6f392994445e6b8b482a37128a$__9063cd458662906110bd908690869060040161304a565b611c3f61233e565b611c4833612391565b611c65576040516330de277560e21b815260040160405180910390fd5b84611c6f816122ff565b611c8c576040516336b3c46360e21b815260040160405180910390fd5b60405163ed94d50f60e01b815273__$61caf4c2bb53b95485f5a2f3428ccc66af$__9063ed94d50f90611ccb9089908990899089908990600401612cd4565b60006040518083038186803b158015611ce357600080fd5b505af4158015611cf7573d6000803e3d6000fd5b50505050505050505050565b600080600080600073__$62400fcf056c2b33063fc11a9740c72847$__634a864e228a8a8a8a6040518563ffffffff1660e01b8152600401611d489493929190613218565b60a060405180830381865af4158015611d65573d6000803e3d6000fd5b505050506040513d601f19601f82011682018060405250810190611d899190613241565b94509450945094509450945094509450945094565b611dc96040518060800160405280600081526020016000815260200160008152602001600081525090565b611dd161263f565b6000611ddb61233e565b611de433612391565b611e01576040516330de277560e21b815260040160405180910390fd5b87611e0b816115a5565b611e285760405163627524cd60e01b815260040160405180910390fd5b73__$61caf4c2bb53b95485f5a2f3428ccc66af$__63447265be8a8a8a8a8a611e4f61240a565b6001600160a01b0316631c637a046000805160206133de8339815191525460405160e083901b6001600160e01b031916815260048101919091527f00000000000000000000000000000000000000000000000000000000000000006024820152604401602060405180830381865afa158015611ecf573d6000803e3d6000fd5b505050506040513d601f19601f82011682018060405250810190611ef39190612cbb565b6040518763ffffffff1660e01b8152600401611f1496959493929190613281565b61012060405180830381865af4158015611f32573d6000803e3d6000fd5b505050506040513d601f19601f82011682018060405250810190611f569190612dd8565b93509350935050955095509592505050565b60405163dded339b60e01b815260ff8216600482015260009081908190819073__$ddd2182d6f392994445e6b8b482a37128a$__9063dded339b90602401611788565b60405163de9f5fed60e01b815260ff8316600482015265ffffffffffff8216602482015260009081908190819081908190819073__$62400fcf056c2b33063fc11a9740c72847$__9063de9f5fed9060440160e060405180830381865af415801561201a573d6000803e3d6000fd5b505050506040513d601f19601f8201168201806040525081019061203e91906132c5565b959f949e50929c50909a509850965090945092505050565b60408051600180825281830190925260609160208083019080368337019050509050762632b73234b733a6b0b935b2ba21b7b73a3937b63632b960491b8160008151811061123b5761123b612f61565b82828260006120b58483611fab565b50919550506001600160a01b03851693506120e7925050505760405163cf3c6cab60e01b815260040160405180910390fd5b806001600160a01b0316836001600160a01b0316146121195760405163a512216b60e01b815260040160405180910390fd5b61212161233e565b61212a33612391565b612147576040516330de277560e21b815260040160405180910390fd5b6040516379fbfa2960e11b815260ff881660048201526001600160a01b038716602482015265ffffffffffff8616604482015273__$61caf4c2bb53b95485f5a2f3428ccc66af$__9063f3f7f4529060640160006040518083038186803b1580156121b157600080fd5b505af41580156121c5573d6000803e3d6000fd5b5050505050505050505050565b604051630f506ad360e41b815260ff831660048201526001600160a01b038216602482015260009081908190819081908190819073__$61caf4c2bb53b95485f5a2f3428ccc66af$__9063f506ad309060440160e060405180830381865af4158015612242573d6000803e3d6000fd5b505050506040513d601f19601f8201168201806040525081019061203e9190613336565b604051633e01139b60e21b815260ff83166004820152602481018290526060908190819073__$ddd2182d6f392994445e6b8b482a37128a$__9063f8044e6c906044016118c4565b604051600162a3316960e01b0319815260ff831660048201526001600160a01b0382166024820152606090819073__$62400fcf056c2b33063fc11a9740c72847$__9063ff5cce9790604401611555565b604051600161af0960e31b0319815260ff8216600482015260009073__$ddd2182d6f392994445e6b8b482a37128a$__9063fffa87b890602401610e32565b6000805160206133be8339815191525460ff16156112785760405162461bcd60e51b815260206004820152601060248201526f14185d5cd8589b194e881c185d5cd95960821b6044820152606401611a2f565b60008061239c612056565b905060005b8151811015612400576123cc8282815181106123bf576123bf612f61565b602002602001015161254f565b6001600160a01b0316846001600160a01b0316036123ee575060019392505050565b806123f881612ff3565b9150506123a1565b5060009392505050565b600061241461255a565b905090565b61242161257a565b6000805160206133be833981519152805460ff191690557f5db9ee0a495bf2e6ff9c91a7834c1ba4fdd244a5e8aa4e537bd38aeae4b073aa335b6040516001600160a01b03909116815260200160405180910390a1565b61248061233e565b6000805160206133be833981519152805460ff191660011790557f62e78cea01bee320cd4e420270b5ea74000d11b0c9f74754ebdbfc544b05a2583361245b565b60007fa3f0ad74e5423aebfd80d3ef4346578335a9a72aeaee59ff6cb3582b35133d50610871565b60008051602061339e833981519152546001600160a01b031615612520576040516304b79d6360e51b815260040160405180910390fd5b60008051602061339e83398151915280546001600160a01b0319166001600160a01b0392909216919091179055565b6000610b61826125d0565b60006124147121bab93932b731bca1b7b73a3937b63632b960711b6125d0565b6000805160206133be8339815191525460ff166112785760405162461bcd60e51b815260206004820152601460248201527314185d5cd8589b194e881b9bdd081c185d5cd95960621b6044820152606401611a2f565b60008181527f4abde63c3e81aefa5764b017968bc473e83e093d7e1a10247d19e0a3e412401960205260408120546001600160a01b031680610b615760408051602081018590520160408051601f19818403018152908290526346e2ec9360e01b8252611a2f9160040161338a565b6040518060800160405280600065ffffffffffff16815260200160006001600160a01b0316815260200160008152602001600081525090565b60ff8116811461268757600080fd5b50565b6001600160a01b038116811461268757600080fd5b600080604083850312156126b257600080fd5b82356126bd81612678565b915060208301356126cd8161268a565b809150509250929050565b6002811061268757600080fd5b600080600080608085870312156126fb57600080fd5b843561270681612678565b93506020850135612716816126d8565b925060408501356127268161268a565b9396929550929360600135925050565b805165ffffffffffff1682526020808201516001600160a01b03169083015260408082015190830152606090810151910152565b600061012082019050845182526020850151602083015260408501516040830152606085015160608301526127a26080830185612736565b82610100830152949350505050565b6000602082840312156127c357600080fd5b813561110281612678565b600081518084526020808501945080840160005b838110156127fe578151875295820195908201906001016127e2565b509495945050505050565b60208152600061110260208301846127ce565b8581526020810185905260408101849052610160810161283f6060830185612736565b61284c60e0830184612736565b9695505050505050565b6000806020838503121561286957600080fd5b823567ffffffffffffffff8082111561288157600080fd5b818501915085601f83011261289557600080fd5b8135818111156128a457600080fd5b8660208260051b85010111156128b957600080fd5b60209290920196919550909350505050565b600080600080600060a086880312156128e357600080fd5b85356128ee81612678565b945060208601356128fe81612678565b94979496505050506040830135926060810135926080909101359150565b6020808252825182820181905260009190848201906040850190845b8181101561295457835183529284019291840191600101612938565b50909695505050505050565b60008060006060848603121561297557600080fd5b833561298081612678565b925060208401356129908161268a565b929592945050506040919091013590565b6000806000606084860312156129b657600080fd5b505081359360208301359350604090920135919050565b600081518084526020808501945080840160005b838110156127fe57815165ffffffffffff16875295820195908201906001016129e1565b604081526000612a1860408301856129cd565b8281036020840152612a2a81856129cd565b95945050505050565b600060208284031215612a4557600080fd5b5035919050565b60008060408385031215612a5f57600080fd5b8235612a6a81612678565b946020939093013593505050565b606081526000612a8b60608301866127ce565b8281036020840152612a9d81866127ce565b9050828103604084015261284c81856127ce565b60008060008060808587031215612ac757600080fd5b8435612ad28161268a565b966020860135965060408601359560600135945092505050565b600080600080600060a08688031215612b0457600080fd5b8535612b0f81612678565b94506020860135612b1f816126d8565b93506040860135612b2f8161268a565b94979396509394606081013594506080013592915050565b60008060008060808587031215612b5d57600080fd5b8435612b6881612678565b93506020850135612b78816126d8565b93969395505050506040820135916060013590565b65ffffffffffff8116811461268757600080fd5b60008060408385031215612bb457600080fd5b8235612bbf81612678565b915060208301356126cd81612b8d565b60028110612bed57634e487b7160e01b600052602160045260246000fd5b9052565b60e08101612bff828a612bcf565b602082019790975260408101959095526001600160a01b03939093166060850152608084019190915260a0830152151560c090910152919050565b600080600060608486031215612c4f57600080fd5b8335612c5a81612678565b92506020840135612c6a8161268a565b91506040840135612c7a81612b8d565b809150509250925092565b60008060008060808587031215612c9b57600080fd5b505082516020840151604085015160609095015191969095509092509050565b600060208284031215612ccd57600080fd5b5051919050565b60ff8616815260a08101612ceb6020830187612bcf565b6001600160a01b03949094166040820152606081019290925260809091015292915050565b634e487b7160e01b600052604160045260246000fd5b6040516080810167ffffffffffffffff81118282101715612d4957612d49612d10565b60405290565b604051601f8201601f1916810167ffffffffffffffff81118282101715612d7857612d78612d10565b604052919050565b600060808284031215612d9257600080fd5b612d9a612d26565b90508151612da781612b8d565b81526020820151612db78161268a565b80602083015250604082015160408201526060820151606082015292915050565b6000806000838503610120811215612def57600080fd5b6080811215612dfd57600080fd5b50612e06612d26565b8451815260208501516020820152604085015160408201526060850151606082015280935050612e398560808601612d80565b915061010084015190509250925092565b600067ffffffffffffffff821115612e6457612e64612d10565b5060051b60200190565b600082601f830112612e7f57600080fd5b81516020612e94612e8f83612e4a565b612d4f565b82815260059290921b84018101918181019086841115612eb357600080fd5b8286015b84811015612ece5780518352918301918301612eb7565b509695505050505050565b600060208284031215612eeb57600080fd5b815167ffffffffffffffff811115612f0257600080fd5b61144d84828501612e6e565b60008060008060006101608688031215612f2757600080fd5b855194506020860151935060408601519250612f468760608801612d80565b9150612f558760e08801612d80565b90509295509295909350565b634e487b7160e01b600052603260045260246000fd5b6000815180845260005b81811015612f9d57602081850181015186830182015201612f81565b506000602082860101526020601f19601f83011685010191505092915050565b82815260406020820152600061144d6040830184612f77565b600060208284031215612fe857600080fd5b81516111028161268a565b60006001820161301357634e487b7160e01b600052601160045260246000fd5b5060010190565b8051801515811461302a57600080fd5b919050565b60006020828403121561304157600080fd5b6111028261301a565b60208082528181018390526000908460408401835b86811015612ece57823561307281612678565b60ff168252918301919083019060010161305f565b6000806040838503121561309a57600080fd5b505080516020909101519092909150565b6000602082840312156130bd57600080fd5b815161110281612678565b600082601f8301126130d957600080fd5b815160206130e9612e8f83612e4a565b82815260059290921b8401810191818101908684111561310857600080fd5b8286015b84811015612ece57805161311f81612b8d565b835291830191830161310c565b6000806040838503121561313f57600080fd5b825167ffffffffffffffff8082111561315757600080fd5b613163868387016130c8565b9350602085015191508082111561317957600080fd5b50613186858286016130c8565b9150509250929050565b6000806000606084860312156131a557600080fd5b835167ffffffffffffffff808211156131bd57600080fd5b6131c987838801612e6e565b945060208601519150808211156131df57600080fd5b6131eb87838801612e6e565b9350604086015191508082111561320157600080fd5b5061320e86828701612e6e565b9150509250925092565b60ff851681526080810161322f6020830186612bcf565b60408201939093526060015292915050565b600080600080600060a0868803121561325957600080fd5b5050835160208501516040860151606087015160809097015192989197509594509092509050565b60ff8716815260c081016132986020830188612bcf565b6001600160a01b039590951660408201526060810193909352608083019190915260a09091015292915050565b600080600080600080600060e0888a0312156132e057600080fd5b87516132eb816126d8565b809750506020880151955060408801519450606088015161330b8161268a565b608089015160a08a01519195509350915061332860c0890161301a565b905092959891949750929550565b600080600080600080600060e0888a03121561335157600080fd5b5050855160208701516040880151606089015160808a015160a08b015160c0909b0151949c939b50919990985090965094509092509050565b6020815260006111026020830184612f7756fe4abde63c3e81aefa5764b017968bc473e83e093d7e1a10247d19e0a3e41240189c789132bdb3678132848a8dcd780bffd2b1abdce3984c522ac1d8aeb48f05f3fc2836757f9146445fc75bc3c897a210ec004e4ee60fc8627ef5cbf2842b3d0aa264697066735822122061af60723bd1fc84bd23858df316f061ef8f1c591e0de26a53f14b269b1b412564736f6c63430008130033",
  "libraries": {
    "OrderActionLogic": "0xD8AEd6A8B7e0A357b5E65b5b145FBdB26DA0c628",
    "OrderReaderLogic": "0x5F466bE75361bfd61Fe38Ed6B96F6AF1c1f02814",
    "OrderBookLogic": "0x19a18343599b9e174E955BB462bD563bf556D144"
  },
  "devdoc": {
    "details": "Open orders is stored in structured red-black trees and doubly linked lists in each node.",
    "events": {
      "Initialized(uint8)": {
        "details": "Triggered when the contract has been initialized or reinitialized."
      },
      "Paused(address)": {
        "details": "Emitted when the pause is triggered by `account`."
      },
      "Unpaused(address)": {
        "details": "Emitted when the pause is lifted by `account`."
      }
    },
    "kind": "dev",
    "methods": {
      "acceptedContracts()": {
        "details": "The contact name listed in this method is also needed to be listed `requiredContracts` method."
      },
      "calculateFilledAmount(uint8,uint8,uint256,uint256)": {
        "params": {
          "_amount": "Amount of funds the user wants to borrow/lend",
          "_orderBookId": "The order book id",
          "_side": "Order position type, Borrow or Lend",
          "_unitPrice": "Unit price user want to borrow/lend"
        },
        "returns": {
          "filledAmount": "The amount that is filled on the order book",
          "filledAmountInFV": "The amount in the future value that is filled on the order book",
          "lastUnitPrice": "The last unit price that is filled on the order book",
          "orderFeeInFV": "The order fee amount in the future value",
          "placedAmount": "The amount that is placed to the order book"
        }
      },
      "cancelOrder(uint8,address,uint48)": {
        "params": {
          "_orderBookId": "The order book id",
          "_orderId": "Market order id",
          "_user": "User address"
        }
      },
      "cleanUpOrders(uint8,address)": {
        "details": "The order list per user is not updated in real-time when an order is filled. This function removes the filled order from that order list per user to reduce gas costs for lazy evaluation if the collateral is enough or not.",
        "params": {
          "_user": "User address"
        },
        "returns": {
          "activeBorrowOrderCount": "The total amount of active borrow order on the order book",
          "activeLendOrderCount": "The total amount of active lend order on the order book",
          "maturity": "The maturity of the removed orders",
          "removedBorrowOrderAmount": "The total PV amount of the removed borrow order amount from the order book",
          "removedBorrowOrderFutureValue": "The total FV amount of the removed borrow order amount from the order book",
          "removedLendOrderAmount": "The total PV amount of the removed lend order amount from the order book",
          "removedLendOrderFutureValue": "The total FV amount of the removed lend order amount from the order book"
        }
      },
      "constructor": {
        "params": {
          "_minimumReliableAmount": "The minimum reliable amount the base currency for calculating block unit price"
        }
      },
      "createOrderBook(uint256,uint256,uint256)": {
        "params": {
          "_maturity": "The initial maturity of the order book",
          "_openingDate": "The timestamp when the order book opens",
          "_preOpeningDate": "The timestamp when the order book pre-opens"
        }
      },
      "executeItayoseCall(uint8)": {
        "details": "If the opening date had already passed when this contract was created, this Itayose need not be executed.",
        "params": {
          "_orderBookId": "The order book id"
        },
        "returns": {
          "openingDate": "The timestamp when the market opens",
          "openingUnitPrice": "The opening price when Itayose is executed",
          "partiallyFilledBorrowingOrder": "Partially filled borrowing order on the order book",
          "partiallyFilledLendingOrder": "Partially filled lending order on the order book",
          "totalOffsetAmount": "The total filled amount when Itayose is executed"
        }
      },
      "executeOrder(uint8,uint8,address,uint256,uint256)": {
        "params": {
          "_amount": "Amount of funds the user wants to borrow/lend",
          "_orderBookId": "The order book id",
          "_side": "Order position type, Borrow or Lend",
          "_unitPrice": "Unit price user wish to borrow/lend",
          "_user": "User's address"
        },
        "returns": {
          "filledOrder": "User's Filled order of the user",
          "partiallyFilledOrder": "Partially filled order on the order book"
        }
      },
      "executePreOrder(uint8,uint8,address,uint256,uint256)": {
        "params": {
          "_amount": "Amount of funds the maker wants to borrow/lend",
          "_orderBookId": "The order book id",
          "_side": "Order position type, Borrow or Lend",
          "_unitPrice": "Unit price taker wish to borrow/lend"
        }
      },
      "getBestBorrowUnitPrice(uint8)": {
        "params": {
          "_orderBookId": "The order book id"
        },
        "returns": {
          "_0": "The best price for borrowing"
        }
      },
      "getBestBorrowUnitPrices(uint8[])": {
        "returns": {
          "_0": "The array of the best price for borrowing"
        }
      },
      "getBestLendUnitPrice(uint8)": {
        "params": {
          "_orderBookId": "The order book id"
        },
        "returns": {
          "_0": "The best price for lending"
        }
      },
      "getBestLendUnitPrices(uint8[])": {
        "returns": {
          "_0": "The array of the best price for lending"
        }
      },
      "getBlockUnitPriceAverage(uint8,uint256)": {
        "params": {
          "_count": "Count of data used for averaging",
          "_orderBookId": "The order book id"
        },
        "returns": {
          "_0": "The block unit price average"
        }
      },
      "getBlockUnitPriceHistory(uint8)": {
        "params": {
          "_orderBookId": "The order book id"
        },
        "returns": {
          "_0": "The array of the block unit price"
        }
      },
      "getBorrowOrderBook(uint8,uint256)": {
        "params": {
          "_limit": "Max limit to get unit prices",
          "_orderBookId": "The order book id"
        },
        "returns": {
          "unitPrices": "The array of borrow unit prices"
        }
      },
      "getBorrowOrderIds(uint8,address)": {
        "params": {
          "_orderBookId": "The order book id",
          "_user": "User's address"
        }
      },
      "getCircuitBreakerLimitRange()": {
        "returns": {
          "_0": "The limit range in unit price for the circuit breaker"
        }
      },
      "getCircuitBreakerThresholds(uint8)": {
        "params": {
          "_orderBookId": "The order book id"
        },
        "returns": {
          "maxLendUnitPrice": "The maximum unit price for lending",
          "minBorrowUnitPrice": "The minimum unit price for borrowing"
        }
      },
      "getCurrency()": {
        "returns": {
          "currency": "The market currency"
        }
      },
      "getItayoseEstimation(uint8)": {
        "params": {
          "_orderBookId": "The order book id"
        },
        "returns": {
          "lastBorrowUnitPrice": "The price of the last borrow order filled by Itayose.",
          "lastLendUnitPrice": "The price of the last lend order filled by Itayose.",
          "openingUnitPrice": "The opening price when Itayose is executed",
          "totalOffsetAmount": "The total amount of the orders filled by Itayose."
        }
      },
      "getItayoseLog(uint256)": {
        "params": {
          "_maturity": "The market maturity"
        },
        "returns": {
          "_0": "ItayoseLog of the market"
        }
      },
      "getLastOrderBlockNumber(uint8)": {
        "params": {
          "_orderBookId": "The order book id"
        },
        "returns": {
          "_0": "The block number"
        }
      },
      "getLendOrderBook(uint8,uint256)": {
        "params": {
          "_limit": "Max limit to get unit prices",
          "_orderBookId": "The order book id"
        },
        "returns": {
          "unitPrices": "The array of lending unit prices"
        }
      },
      "getLendOrderIds(uint8,address)": {
        "params": {
          "_orderBookId": "The order book id",
          "_user": "User's address"
        }
      },
      "getMarketUnitPrice(uint8)": {
        "params": {
          "_orderBookId": "The order book id"
        },
        "returns": {
          "_0": "The market unit price"
        }
      },
      "getMaturities(uint8[])": {
        "returns": {
          "maturities": "The array of maturity"
        }
      },
      "getMaturity(uint8)": {
        "params": {
          "_orderBookId": "The order book id"
        },
        "returns": {
          "maturity": "The market maturity"
        }
      },
      "getOpeningDate(uint8)": {
        "params": {
          "_orderBookId": "The order book id"
        },
        "returns": {
          "openingDate": "The market opening date"
        }
      },
      "getOrder(uint8,uint48)": {
        "params": {
          "_orderBookId": "The order book id",
          "_orderId": "The market order id"
        },
        "returns": {
          "amount": "Order amount",
          "isPreOrder": "The boolean if the order is a pre-order.",
          "maker": "The order maker",
          "maturity": "The maturity of the selected order",
          "side": "Order position type, Borrow or Lend",
          "timestamp": "Timestamp when the order was created",
          "unitPrice": "Amount of interest unit price"
        }
      },
      "getOrderBookDetail(uint8)": {
        "params": {
          "_orderBookId": "The order book id"
        },
        "returns": {
          "ccy": "The currency of the order book",
          "maturity": "The maturity of the order book",
          "openingDate": "The opening date of the order book",
          "preOpeningDate": "The pre-opening date of the order book"
        }
      },
      "getOrderFeeRate()": {
        "returns": {
          "_0": "The order fee rate received by protocol"
        }
      },
      "getTotalAmountFromBorrowOrders(uint8,address,uint256)": {
        "params": {
          "_orderBookId": "The order book id",
          "_user": "User's address"
        },
        "returns": {
          "activeAmount": "The total amount of active order on the order book",
          "inactiveAmount": "The total amount of inactive orders filled on the order book",
          "inactiveFutureValue": "The total future value amount of inactive orders filled on the order book",
          "maturity": "The maturity of market that orders were placed."
        }
      },
      "getTotalAmountFromLendOrders(uint8,address)": {
        "params": {
          "_orderBookId": "The order book id",
          "_user": "User's address"
        },
        "returns": {
          "activeAmount": "The total amount of active order on the order book",
          "inactiveAmount": "The total amount of inactive orders filled on the order book",
          "inactiveFutureValue": "The total future value amount of inactive orders filled on the order book",
          "maturity": "The maturity of market that orders were placed."
        }
      },
      "initialize(address,bytes32,uint256,uint256)": {
        "details": "Function is invoked by the proxy contract when the contract is added to the ProxyController.",
        "params": {
          "_ccy": "The main currency for the order book",
          "_resolver": "The address of the Address Resolver contract"
        }
      },
      "isItayosePeriod(uint8)": {
        "params": {
          "_orderBookId": "The order book id"
        },
        "returns": {
          "_0": "The boolean if the market is under the Itayose period."
        }
      },
      "isMatured(uint8)": {
        "params": {
          "_orderBookId": "The order book id"
        },
        "returns": {
          "_0": "The boolean if the market is matured or not"
        }
      },
      "isOpened(uint8)": {
        "params": {
          "_orderBookId": "The order book id"
        },
        "returns": {
          "_0": "The boolean if the market is opened or not"
        }
      },
      "isPreOrderPeriod(uint8)": {
        "params": {
          "_orderBookId": "The order book id"
        },
        "returns": {
          "_0": "The boolean if the market is under the pre-order period."
        }
      },
      "isReady(uint8)": {
        "params": {
          "_orderBookId": "The order book id"
        },
        "returns": {
          "_0": "The boolean if the market is ready or not"
        }
      },
      "paused()": {
        "details": "Returns true if the contract is paused, and false otherwise."
      },
      "requiredContracts()": {
        "details": "The contract name list is in `./libraries/Contracts.sol`."
      },
      "unwindPosition(uint8,uint8,address,uint256)": {
        "params": {
          "_futureValue": "Amount of future value unwound",
          "_orderBookId": "The order book id",
          "_side": "Order position type, Borrow or Lend",
          "_user": "User's address"
        },
        "returns": {
          "filledOrder": "User's Filled order of the user",
          "partiallyFilledOrder": "Partially filled order"
        }
      },
      "updateCircuitBreakerLimitRange(uint256)": {
        "params": {
          "_cbLimitRange": "The circuit breaker limit range"
        }
      },
      "updateOrderFeeRate(uint256)": {
        "params": {
          "_orderFeeRate": "The order fee rate received by protocol"
        }
      }
    },
    "stateVariables": {
      "MINIMUM_RELIABLE_AMOUNT_IN_BASE_CURRENCY": {
        "details": "Used for minimum reliable amount in base currency for block unit price"
      }
    },
    "version": 1
  },
  "userdoc": {
    "kind": "user",
    "methods": {
      "acceptedContracts()": {
        "notice": "Returns contract names that can call this contract."
      },
      "calculateFilledAmount(uint8,uint8,uint256,uint256)": {
        "notice": "Calculates the amount to be filled when executing an order in the order book."
      },
      "cancelOrder(uint8,address,uint48)": {
        "notice": "Cancels the order."
      },
      "cleanUpOrders(uint8,address)": {
        "notice": "Cleans up own orders to remove order ids that are already filled on the order book."
      },
      "constructor": {
        "notice": "Contract constructor function."
      },
      "createOrderBook(uint256,uint256,uint256)": {
        "notice": "Creates a new order book."
      },
      "executeItayoseCall(uint8)": {
        "notice": "Executes Itayose to aggregate pre-orders and determine the opening unit price. After this action, the market opens."
      },
      "executeOrder(uint8,uint8,address,uint256,uint256)": {
        "notice": "Executes an order. Takes orders if the order is matched, and places new order if not match it."
      },
      "executePreOrder(uint8,uint8,address,uint256,uint256)": {
        "notice": "Executes a pre-order. A pre-order will only be accepted from 168 hours (7 days) to 1 hour before the market opens (Pre-order period). At the end of this period, Itayose will be executed."
      },
      "getBestBorrowUnitPrice(uint8)": {
        "notice": "Gets the best price for borrowing."
      },
      "getBestBorrowUnitPrices(uint8[])": {
        "notice": "Gets the best prices for borrowing."
      },
      "getBestLendUnitPrice(uint8)": {
        "notice": "Gets the best price for lending."
      },
      "getBestLendUnitPrices(uint8[])": {
        "notice": "Gets the best prices for lending."
      },
      "getBlockUnitPriceAverage(uint8,uint256)": {
        "notice": "Gets the block unit price average."
      },
      "getBlockUnitPriceHistory(uint8)": {
        "notice": "Gets the block unit price history"
      },
      "getBorrowOrderBook(uint8,uint256)": {
        "notice": "Gets the order book of borrow."
      },
      "getBorrowOrderIds(uint8,address)": {
        "notice": "Gets active and inactive order IDs in the borrowing order book."
      },
      "getCircuitBreakerLimitRange()": {
        "notice": "Gets the limit range in unit price for the circuit breaker"
      },
      "getCircuitBreakerThresholds(uint8)": {
        "notice": "Gets unit price Thresholds by CircuitBreaker."
      },
      "getCurrency()": {
        "notice": "Gets the market currency."
      },
      "getItayoseEstimation(uint8)": {
        "notice": "Gets the estimation of the Itayose process."
      },
      "getItayoseLog(uint256)": {
        "notice": "Gets the market itayose logs."
      },
      "getLastOrderBlockNumber(uint8)": {
        "notice": "Gets the block number of the last filled order."
      },
      "getLendOrderBook(uint8,uint256)": {
        "notice": "Gets the order book of lend."
      },
      "getLendOrderIds(uint8,address)": {
        "notice": "Gets active and inactive order IDs in the lending order book."
      },
      "getMarketUnitPrice(uint8)": {
        "notice": "Gets the market unit price"
      },
      "getMaturities(uint8[])": {
        "notice": "Gets the order book maturities."
      },
      "getMaturity(uint8)": {
        "notice": "Gets the current market maturity."
      },
      "getOpeningDate(uint8)": {
        "notice": "Gets the market opening date."
      },
      "getOrder(uint8,uint48)": {
        "notice": "Gets the market order from the order book."
      },
      "getOrderBookDetail(uint8)": {
        "notice": "Gets the order book detail."
      },
      "getOrderFeeRate()": {
        "notice": "Gets the order fee rate"
      },
      "getTotalAmountFromBorrowOrders(uint8,address,uint256)": {
        "notice": "Calculates and gets the active and inactive amounts from the user orders of borrowing deals."
      },
      "getTotalAmountFromLendOrders(uint8,address)": {
        "notice": "Calculates and gets the active and inactive amounts from the user orders of lending deals."
      },
      "initialize(address,bytes32,uint256,uint256)": {
        "notice": "Initializes the contract."
      },
      "isItayosePeriod(uint8)": {
        "notice": "Gets if the market is under the Itayose period."
      },
      "isMatured(uint8)": {
        "notice": "Gets if the market is matured."
      },
      "isOpened(uint8)": {
        "notice": "Gets if the market is opened."
      },
      "isPreOrderPeriod(uint8)": {
        "notice": "Gets if the market is under the pre-order period."
      },
      "isReady(uint8)": {
        "notice": "Gets if the market is ready."
      },
      "pause()": {
        "notice": "Pauses the lending market."
      },
      "requiredContracts()": {
        "notice": "Returns the contract names used in this contract."
      },
      "unpause()": {
        "notice": "Unpauses the lending market."
      },
      "unwindPosition(uint8,uint8,address,uint256)": {
        "notice": "Unwinds lending or borrowing positions by a specified future value amount."
      },
      "updateCircuitBreakerLimitRange(uint256)": {
        "notice": "Updates the auto-roll fee rate"
      },
      "updateOrderFeeRate(uint256)": {
        "notice": "Updates the order fee rate"
      }
    },
    "notice": "Implements the module that allows order book participants to execute/cancel/unwind orders. For updates, this contract is basically called from `LendingMarketController.sol`instead of being called directly by the user.",
    "version": 1
  },
  "storageLayout": {
    "storage": [
      {
        "astId": 995,
        "contract": "contracts/protocol/LendingMarket.sol:LendingMarket",
        "label": "_initialized",
        "offset": 0,
        "slot": "0",
        "type": "t_uint8"
      },
      {
        "astId": 998,
        "contract": "contracts/protocol/LendingMarket.sol:LendingMarket",
        "label": "_initializing",
        "offset": 1,
        "slot": "0",
        "type": "t_bool"
      }
    ],
    "types": {
      "t_bool": {
        "encoding": "inplace",
        "label": "bool",
        "numberOfBytes": "1"
      },
      "t_uint8": {
        "encoding": "inplace",
        "label": "uint8",
        "numberOfBytes": "1"
      }
    }
  }
}