{
  "address": "0x2f39a624580Dc46171c2dA1C0E00b0013583948c",
  "abi": [
    {
      "inputs": [
        {
          "internalType": "bytes32[]",
          "name": "_ccys",
          "type": "bytes32[]"
        },
        {
          "internalType": "address",
          "name": "_user",
          "type": "address"
        }
      ],
      "name": "getOrders",
      "outputs": [
        {
          "components": [
            {
              "internalType": "uint48",
              "name": "orderId",
              "type": "uint48"
            },
            {
              "internalType": "bytes32",
              "name": "ccy",
              "type": "bytes32"
            },
            {
              "internalType": "uint256",
              "name": "maturity",
              "type": "uint256"
            },
            {
              "internalType": "enum ProtocolTypes.Side",
              "name": "side",
              "type": "ProtocolTypes.Side"
            },
            {
              "internalType": "uint256",
              "name": "unitPrice",
              "type": "uint256"
            },
            {
              "internalType": "uint256",
              "name": "amount",
              "type": "uint256"
            },
            {
              "internalType": "uint256",
              "name": "timestamp",
              "type": "uint256"
            }
          ],
          "internalType": "struct ILendingMarketController.Order[]",
          "name": "activeOrders",
          "type": "tuple[]"
        },
        {
          "components": [
            {
              "internalType": "uint48",
              "name": "orderId",
              "type": "uint48"
            },
            {
              "internalType": "bytes32",
              "name": "ccy",
              "type": "bytes32"
            },
            {
              "internalType": "uint256",
              "name": "maturity",
              "type": "uint256"
            },
            {
              "internalType": "enum ProtocolTypes.Side",
              "name": "side",
              "type": "ProtocolTypes.Side"
            },
            {
              "internalType": "uint256",
              "name": "unitPrice",
              "type": "uint256"
            },
            {
              "internalType": "uint256",
              "name": "amount",
              "type": "uint256"
            },
            {
              "internalType": "uint256",
              "name": "timestamp",
              "type": "uint256"
            }
          ],
          "internalType": "struct ILendingMarketController.Order[]",
          "name": "inactiveOrders",
          "type": "tuple[]"
        }
      ],
      "stateMutability": "view",
      "type": "function"
    }
  ],
  "transactionHash": "0x4fe5e29c30e4ed7643884f8fcb0532108f52ea928bb58f36546f6ec08c9923b7",
  "args": [],
  "numDeployments": 1,
  "solcInputHash": "6f01400ba717e365335694f7dd4a1baf",
  "bytecode": "0x61266e61003a600b82828239805160001a60731461002d57634e487b7160e01b600052600060045260246000fd5b30600052607381538281f3fe730000000000000000000000000000000000000000301460806040526004361061006c5760003560e01c806317992e19146100715780632059b8d6146100935780632097fb89146100c6578063482f267a146100e657806397fe451514610107578063e7c4947414610127575b600080fd5b81801561007d57600080fd5b5061009161008c366004611d72565b610147565b005b81801561009f57600080fd5b506100b36100ae366004611d72565b610454565b6040519081526020015b60405180910390f35b8180156100d257600080fd5b506100916100e1366004611dce565b6108bb565b6100f96100f4366004611edd565b610b20565b6040516100bd929190612047565b81801561011357600080fd5b50610091610122366004612075565b610cb7565b81801561013357600080fd5b506100916101423660046120f2565b610d42565b6000821161018d5760405162461bcd60e51b815260206004820152600e60248201526d125b9d985b1a5908185b5bdd5b9d60921b60448201526064015b60405180910390fd5b604051639519832b60e01b8152600481018790526001600160a01b0385166024820152600090738dd7E5Ca3C14543408aD715C770d86B961cad79a90639519832b9060440160206040518083038186803b1580156101ea57600080fd5b505af41580156101fe573d6000803e3d6000fd5b505050506040513d601f19601f820116820180604052508101906102229190612157565b90506014610231826001612186565b11156102785760405162461bcd60e51b8152602060048201526016602482015275546f6f206d616e7920616374697665206f726465727360501b6044820152606401610184565b60405163b6eb033d60e01b815260048101889052602481018790526001600160a01b0386166044820152738dd7E5Ca3C14543408aD715C770d86B961cad79a9063b6eb033d9060640160006040518083038186803b1580156102d957600080fd5b505af41580156102ed573d6000803e3d6000fd5b505050506102f9610f2e565b6001600160a01b03166328ff7a42868986886040518563ffffffff1660e01b815260040161032a949392919061219e565b60206040518083038186803b15801561034257600080fd5b505afa158015610356573d6000803e3d6000fd5b505050506040513d601f19601f8201168201806040525081019061037a91906121c9565b6103be5760405162461bcd60e51b8152602060048201526015602482015274139bdd08195b9bdd59da0818dbdb1b185d195c985b605a1b6044820152606401610184565b600087815260008051602061261983398151915260209081526040808320898452909152908190205490516328378aab60e01b81526001600160a01b03909116906328378aab906104199087908990889088906004016121eb565b600060405180830381600087803b15801561043357600080fd5b505af1158015610447573d6000803e3d6000fd5b5050505050505050505050565b60008083116104965760405162461bcd60e51b815260206004820152600e60248201526d125b9d985b1a5908185b5bdd5b9d60921b6044820152606401610184565b604051639519832b60e01b8152600481018890526001600160a01b0386166024820152600090738dd7E5Ca3C14543408aD715C770d86B961cad79a90639519832b9060440160206040518083038186803b1580156104f357600080fd5b505af4158015610507573d6000803e3d6000fd5b505050506040513d601f19601f8201168201806040525081019061052b9190612157565b60405163b6eb033d60e01b8152600481018a9052602481018990526001600160a01b0388166044820152909150738dd7E5Ca3C14543408aD715C770d86B961cad79a9063b6eb033d9060640160006040518083038186803b15801561058f57600080fd5b505af41580156105a3573d6000803e3d6000fd5b505050506105af610f2e565b6001600160a01b03166328ff7a42878a87896040518563ffffffff1660e01b81526004016105e0949392919061219e565b60206040518083038186803b1580156105f857600080fd5b505afa15801561060c573d6000803e3d6000fd5b505050506040513d601f19601f8201168201806040525081019061063091906121c9565b6106745760405162461bcd60e51b8152602060048201526015602482015274139bdd08195b9bdd59da0818dbdb1b185d195c985b605a1b6044820152606401610184565b60405163139e3fb360e21b815260048101899052600090735963a13fc8b4755Ddc619663e1250257702c733490634e78fecc9060240160206040518083038186803b1580156106c257600080fd5b505af41580156106d6573d6000803e3d6000fd5b505050506040513d601f19601f820116820180604052508101906106fa9190612157565b60008a8152600080516020612619833981519152602090815260408083208c8452909152808220549051632111b03d60e11b8152929350909182916001600160a01b031690634223607a9061075b908b908d908c908c908a9060040161221d565b60e060405180830381600087803b15801561077557600080fd5b505af1158015610789573d6000803e3d6000fd5b505050506040513d601f19601f820116820180604052508101906107ad9190612257565b9150915081602001519450868260600151866107c99190612186565b146107dc576107d9600185612186565b93505b60148411156108265760405162461bcd60e51b8152602060048201526016602482015275546f6f206d616e7920616374697665206f726465727360501b6044820152606401610184565b61083d8b8b8b8b8987604001518860000151610d42565b61086b8b8b60008b600181111561085657610856611f84565b14610862576000610865565b60015b84610cb7565b6001600160a01b03891660009081527f8041b8421ebd495cc61f38c788c9eb100daccf9bd36aa0bb920b7a15b2e0496e602052604090206108ac908c610f4b565b50505050509695505050505050565b6040516295a47160e71b815260048101849052602481018390526001600160a01b0382166044820152600090738dd7E5Ca3C14543408aD715C770d86B961cad79a90634ad23880906064016101206040518083038186803b15801561091f57600080fd5b505af4158015610933573d6000803e3d6000fd5b505050506040513d601f19601f8201168201806040525081019061095791906122ee565b606001519050600080600061096e87878787610f60565b92509250925061098f87878784876020015188604001518960000151610d42565b6109bd878760008460018111156109a8576109a8611f84565b146109b45760006109b7565b60015b85610cb7565b60008781527f8041b8421ebd495cc61f38c788c9eb100daccf9bd36aa0bb920b7a15b2e0496b6020908152604080832060008051602061261983398151915283528184208a85528352818420546001600160a01b039081168552925280832054815163070da1af60e11b8152898416600482015282519190931692630e1b435e926024808301939192829003018186803b158015610a5a57600080fd5b505afa158015610a6e573d6000803e3d6000fd5b505050506040513d601f19601f82011682018060405250810190610a929190612369565b5090508015610b165760405163b6eb033d60e01b815260048101899052602481018890526001600160a01b0387166044820152738dd7E5Ca3C14543408aD715C770d86B961cad79a9063b6eb033d906064015b60006040518083038186803b158015610afd57600080fd5b505af4158015610b11573d6000803e3d6000fd5b505050505b5050505050505050565b606080600080600086516001600160401b03811115610b4157610b41611e07565b604051908082528060200260200182016040528015610b7457816020015b6060815260200190600190039081610b5f5790505b509050600087516001600160401b03811115610b9257610b92611e07565b604051908082528060200260200182016040528015610bc557816020015b6060815260200190600190039081610bb05790505b50905060005b8851811015610c9357610bf7898281518110610be957610be961238d565b602002602001015189611357565b848381518110610c0957610c0961238d565b60200260200101848481518110610c2257610c2261238d565b602002602001018290528290525050828181518110610c4357610c4361238d565b60200260200101515185610c579190612186565b9450818181518110610c6b57610c6b61238d565b60200260200101515184610c7f9190612186565b935080610c8b816123a3565b915050610bcb565b50610c9e828561153f565b9550610caa818461153f565b9450505050509250929050565b604081015115610d3c57805160208201516040808401519051631c872e8960e11b8152738dd7E5Ca3C14543408aD715C770d86B961cad79a9363390e5d1293610d10938a938a93928a92909160009081906004016123be565b60006040518083038186803b158015610d2857600080fd5b505af4158015610b16573d6000803e3d6000fd5b50505050565b8115610f25576040516303e5fb5960e01b815260048101889052600090735963a13fc8b4755Ddc619663e1250257702c7334906303e5fb599060240160206040518083038186803b158015610d9657600080fd5b505af4158015610daa573d6000803e3d6000fd5b505050506040513d601f19601f82011682018060405250810190610dce9190612157565b604051631c872e8960e11b8152909150738dd7E5Ca3C14543408aD715C770d86B961cad79a9063390e5d1290610e17908b908b908b908b908b908b908a906001906004016123be565b60006040518083038186803b158015610e2f57600080fd5b505af4158015610e43573d6000803e3d6000fd5b50505050731bEF597df25D43d46dFDf6551EA481E0a6ac847A63e88e18378989735963a13fc8b4755Ddc619663e1250257702c733463f1eaebae6040518163ffffffff1660e01b815260040160206040518083038186803b158015610ea757600080fd5b505af4158015610ebb573d6000803e3d6000fd5b505050506040513d601f19601f82011682018060405250810190610edf9190612157565b6040516001600160e01b031960e086901b168152600481019390935260248301919091526044820152606481018590526084810187905260a4810186905260c401610ae5565b50505050505050565b6000610f4669151bdad95b95985d5b1d60b21b611653565b905090565b6000610f5783836116eb565b90505b92915050565b610f8b6040518060800160405280600081526020016000815260200160008152602001600081525090565b610fb8604051806060016040528060006001600160a01b0316815260200160008152602001600081525090565b600083610ffe5760405162461bcd60e51b81526020600482015260146024820152734675747572652056616c7565206973207a65726f60601b6044820152606401610184565b60405163139e3fb360e21b815260048101889052600090735963a13fc8b4755Ddc619663e1250257702c733490634e78fecc9060240160206040518083038186803b15801561104c57600080fd5b505af4158015611060573d6000803e3d6000fd5b505050506040513d601f19601f820116820180604052508101906110849190612157565b6040516303e5fb5960e01b8152600481018a9052909150600090735963a13fc8b4755Ddc619663e1250257702c7334906303e5fb599060240160206040518083038186803b1580156110d557600080fd5b505af41580156110e9573d6000803e3d6000fd5b505050506040513d601f19601f8201168201806040525081019061110d9190612157565b9050600086131561123957600192506000611128428a612410565b9050600061117e6111398385612427565b6111496127106301e13380612427565b6111539190612186565b6127106301e133806111648c61173a565b61116e9190612427565b6111789190612427565b90611790565b60008c8152600080516020612619833981519152602090815260408083208e84529091529081902054905163eca3107f60e01b81529192506001600160a01b03169063eca3107f906111da9088908d9086908a906004016121eb565b60e060405180830381600087803b1580156111f457600080fd5b505af1158015611208573d6000803e3d6000fd5b505050506040513d601f19601f8201168201806040525081019061122c9190612257565b909750955061134b915050565b600086121561134b576000925082611251428a612410565b905060006112956112628385612427565b6112726127106301e13380612427565b61127c9190612410565b6127106301e133806111646112908d612446565b61173a565b60008c8152600080516020612619833981519152602090815260408083208e84529091529081902054905163eca3107f60e01b81529192506001600160a01b03169063eca3107f906112f19088908d9086908a906004016121eb565b60e060405180830381600087803b15801561130b57600080fd5b505af115801561131f573d6000803e3d6000fd5b505050506040513d601f19601f820116820180604052508101906113439190612257565b909750955050505b50509450945094915050565b60008281527f8041b8421ebd495cc61f38c788c9eb100daccf9bd36aa0bb920b7a15b2e0496f602090815260408083206001600160a01b038516845290915281206060918291819081906113aa90611801565b9050600081516001600160401b038111156113c7576113c7611e07565b6040519080825280602002602001820160405280156113fa57816020015b60608152602001906001900390816113e55790505b509050600082516001600160401b0381111561141857611418611e07565b60405190808252806020026020018201604052801561144b57816020015b60608152602001906001900390816114365790505b50905060005b835181101561151a5761147e8a8583815181106114705761147061238d565b60200260200101518b611815565b8483815181106114905761149061238d565b602002602001018484815181106114a9576114a961238d565b6020026020010182905282905250508281815181106114ca576114ca61238d565b602002602001015151866114de9190612186565b95508181815181106114f2576114f261238d565b602002602001015151856115069190612186565b945080611512816123a3565b915050611451565b50611525828661153f565b9650611531818561153f565b955050505050509250929050565b6060816001600160401b0381111561155957611559611e07565b60405190808252806020026020018201604052801561159257816020015b61157f611d00565b8152602001906001900390816115775790505b5090506000805b845181101561164b5760005b8582815181106115b7576115b761238d565b602002602001015151811015611638578582815181106115d9576115d961238d565b602002602001015181815181106115f2576115f261238d565b602002602001015184848151811061160c5761160c61238d565b60200260200101819052508280611622906123a3565b9350508080611630906123a3565b9150506115a5565b5080611643816123a3565b915050611599565b505092915050565b60008181527f4abde63c3e81aefa5764b017968bc473e83e093d7e1a10247d19e0a3e41240196020908152604080832054815170026b4b9b9b4b7339030b2323932b9b99d1607d1b9381019390935260318084018690528251808503909101815260519093019091526001600160a01b031690816116e45760405162461bcd60e51b81526004016101849190612463565b5092915050565b600081815260018301602052604081205461173257508154600181810184556000848152602080822090930184905584548482528286019093526040902091909155610f5a565b506000610f5a565b60008082121561178c5760405162461bcd60e51b815260206004820181905260248201527f53616665436173743a2076616c7565206d75737420626520706f7369746976656044820152606401610184565b5090565b600080821161179e57600080fd5b60056117aa83856124b8565b6117b590600a612427565b836117c186600a612427565b6117cb91906124b8565b6117d59190612410565b10156117ec576117e582846124b8565b9050610f5a565b6117f682846124b8565b6117e5906001612186565b6060600061180e83611bad565b9392505050565b60608060007f8041b8421ebd495cc61f38c788c9eb100daccf9bd36aa0bb920b7a15b2e04965600087815260079190910160209081526040808320888452909152808220549051638152b17360e01b81526001600160a01b038781166004830152909116925081908390638152b1739060240160006040518083038186803b1580156118a057600080fd5b505afa1580156118b4573d6000803e3d6000fd5b505050506040513d6000823e601f3d908101601f191682016040526118dc9190810190612555565b60405163bcc012ad60e01b81526001600160a01b03898116600483015292945090925060009182919086169063bcc012ad9060240160006040518083038186803b15801561192957600080fd5b505afa15801561193d573d6000803e3d6000fd5b505050506040513d6000823e601f3d908101601f191682016040526119659190810190612555565b91509150815184516119779190612186565b6001600160401b0381111561198e5761198e611e07565b6040519080825280602002602001820160405280156119c757816020015b6119b4611d00565b8152602001906001900390816119ac5790505b509650805183516119d89190612186565b6001600160401b038111156119ef576119ef611e07565b604051908082528060200260200182016040528015611a2857816020015b611a15611d00565b815260200190600190039081611a0d5790505b50955060005b8451811015611a8b57611a5b8b87878481518110611a4e57611a4e61238d565b6020026020010151611c09565b888281518110611a6d57611a6d61238d565b60200260200101819052508080611a83906123a3565b915050611a2e565b5060005b8251811015611aeb57611aaf8b87858481518110611a4e57611a4e61238d565b88828751611abd9190612186565b81518110611acd57611acd61238d565b60200260200101819052508080611ae3906123a3565b915050611a8f565b5060005b8351811015611b3f57611b0f8b87868481518110611a4e57611a4e61238d565b878281518110611b2157611b2161238d565b60200260200101819052508080611b37906123a3565b915050611aef565b5060005b8151811015611b9f57611b638b87848481518110611a4e57611a4e61238d565b87828651611b719190612186565b81518110611b8157611b8161238d565b60200260200101819052508080611b97906123a3565b915050611b43565b505050505050935093915050565b606081600001805480602002602001604051908101604052809291908181526020018280548015611bfd57602002820191906000526020600020905b815481526020019060010190808311611be9575b50505050509050919050565b611c11611d00565b604051633e710cd560e11b815265ffffffffffff8316600482015260009081908190819081906001600160a01b03891690637ce219aa9060240160c06040518083038186803b158015611c6357600080fd5b505afa158015611c77573d6000803e3d6000fd5b505050506040513d601f19601f82011682018060405250810190611c9b91906125b8565b95509550509450945094506040518060e001604052808865ffffffffffff1681526020018a8152602001848152602001866001811115611cdd57611cdd611f84565b815260200185815260200183815260200182815250955050505050509392505050565b6040805160e08101825260008082526020820181905291810182905290606082019081526020016000815260200160008152602001600081525090565b6001600160a01b0381168114611d5257600080fd5b50565b8035611d6081611d3d565b919050565b60028110611d5257600080fd5b60008060008060008060c08789031215611d8b57600080fd5b86359550602087013594506040870135611da481611d3d565b93506060870135611db481611d65565b9598949750929560808101359460a0909101359350915050565b600080600060608486031215611de357600080fd5b83359250602084013591506040840135611dfc81611d3d565b809150509250925092565b634e487b7160e01b600052604160045260246000fd5b604051606081016001600160401b0381118282101715611e3f57611e3f611e07565b60405290565b604051608081016001600160401b0381118282101715611e3f57611e3f611e07565b60405161012081016001600160401b0381118282101715611e3f57611e3f611e07565b604051601f8201601f191681016001600160401b0381118282101715611eb257611eb2611e07565b604052919050565b60006001600160401b03821115611ed357611ed3611e07565b5060051b60200190565b60008060408385031215611ef057600080fd5b82356001600160401b03811115611f0657600080fd5b8301601f81018513611f1757600080fd5b80356020611f2c611f2783611eba565b611e8a565b82815260059290921b83018101918181019088841115611f4b57600080fd5b938201935b83851015611f6957843582529382019390820190611f50565b9550611f789050868201611d55565b93505050509250929050565b634e487b7160e01b600052602160045260246000fd5b60028110611fb857634e487b7160e01b600052602160045260246000fd5b9052565b600081518084526020808501945080840160005b8381101561203c578151805165ffffffffffff16885283810151848901526040808201519089015260608082015161200a828b0182611f9a565b50506080818101519089015260a0808201519089015260c0908101519088015260e09096019590820190600101611fd0565b509495945050505050565b60408152600061205a6040830185611fbc565b828103602084015261206c8185611fbc565b95945050505050565b60008060008084860360c081121561208c57600080fd5b853594506020860135935060408601356120a581611d65565b92506060605f19820112156120b957600080fd5b506120c2611e1d565b60608601356120d081611d3d565b81526080860135602082015260a0909501356040860152509194909350909190565b600080600080600080600060e0888a03121561210d57600080fd5b8735965060208801359550604088013561212681611d3d565b9450606088013561213681611d65565b9699959850939660808101359560a0820135955060c0909101359350915050565b60006020828403121561216957600080fd5b5051919050565b634e487b7160e01b600052601160045260246000fd5b6000821982111561219957612199612170565b500190565b6001600160a01b038516815260208101849052604081018390526080810161206c6060830184611f9a565b6000602082840312156121db57600080fd5b8151801515811461180e57600080fd5b608081016121f98287611f9a565b6001600160a01b039490941660208201526040810192909252606090910152919050565b60a0810161222b8288611f9a565b6001600160a01b0395909516602082015260408101939093526060830191909152608090910152919050565b60008082840360e081121561226b57600080fd5b608081121561227957600080fd5b612281611e45565b84518152602085015160208201526040850151604082015260608501516060820152809350506060607f19820112156122b957600080fd5b506122c2611e1d565b60808401516122d081611d3d565b815260a0840151602082015260c09093015160408401525092909150565b6000610120828403121561230157600080fd5b612309611e67565b825181526020830151602082015260408301516040820152606083015160608201526080830151608082015260a083015160a082015260c083015160c082015260e083015160e08201526101008084015181830152508091505092915050565b6000806040838503121561237c57600080fd5b505080516020909101519092909150565b634e487b7160e01b600052603260045260246000fd5b60006000198214156123b7576123b7612170565b5060010190565b888152602081018890526001600160a01b038716604082015261010081016123e96060830188611f9a565b8560808301528460a08301528360c083015282151560e08301529998505050505050505050565b60008282101561242257612422612170565b500390565b600081600019048311821515161561244157612441612170565b500290565b6000600160ff1b82141561245c5761245c612170565b5060000390565b600060208083528351808285015260005b8181101561249057858101830151858201604001528201612474565b818111156124a2576000604083870101525b50601f01601f1916929092016040019392505050565b6000826124d557634e487b7160e01b600052601260045260246000fd5b500490565b600082601f8301126124eb57600080fd5b815160206124fb611f2783611eba565b82815260059290921b8401810191818101908684111561251a57600080fd5b8286015b8481101561254a57805165ffffffffffff8116811461253d5760008081fd5b835291830191830161251e565b509695505050505050565b6000806040838503121561256857600080fd5b82516001600160401b038082111561257f57600080fd5b61258b868387016124da565b935060208501519150808211156125a157600080fd5b506125ae858286016124da565b9150509250929050565b60008060008060008060c087890312156125d157600080fd5b86516125dc81611d65565b80965050602087015194506040870151935060608701516125fc81611d3d565b809350506080870151915060a08701519050929550929550929556fe8041b8421ebd495cc61f38c788c9eb100daccf9bd36aa0bb920b7a15b2e0496ca264697066735822122056497f76daffa5b60046be2993d31f5a7a22b543cc2a3421235e08b85bba124b64736f6c63430008090033",
  "deployedBytecode": "0x730000000000000000000000000000000000000000301460806040526004361061006c5760003560e01c806317992e19146100715780632059b8d6146100935780632097fb89146100c6578063482f267a146100e657806397fe451514610107578063e7c4947414610127575b600080fd5b81801561007d57600080fd5b5061009161008c366004611d72565b610147565b005b81801561009f57600080fd5b506100b36100ae366004611d72565b610454565b6040519081526020015b60405180910390f35b8180156100d257600080fd5b506100916100e1366004611dce565b6108bb565b6100f96100f4366004611edd565b610b20565b6040516100bd929190612047565b81801561011357600080fd5b50610091610122366004612075565b610cb7565b81801561013357600080fd5b506100916101423660046120f2565b610d42565b6000821161018d5760405162461bcd60e51b815260206004820152600e60248201526d125b9d985b1a5908185b5bdd5b9d60921b60448201526064015b60405180910390fd5b604051639519832b60e01b8152600481018790526001600160a01b038516602482015260009073__$e7d72ce98f1dce1f33c815a57604cff5ab$__90639519832b9060440160206040518083038186803b1580156101ea57600080fd5b505af41580156101fe573d6000803e3d6000fd5b505050506040513d601f19601f820116820180604052508101906102229190612157565b90506014610231826001612186565b11156102785760405162461bcd60e51b8152602060048201526016602482015275546f6f206d616e7920616374697665206f726465727360501b6044820152606401610184565b60405163b6eb033d60e01b815260048101889052602481018790526001600160a01b038616604482015273__$e7d72ce98f1dce1f33c815a57604cff5ab$__9063b6eb033d9060640160006040518083038186803b1580156102d957600080fd5b505af41580156102ed573d6000803e3d6000fd5b505050506102f9610f2e565b6001600160a01b03166328ff7a42868986886040518563ffffffff1660e01b815260040161032a949392919061219e565b60206040518083038186803b15801561034257600080fd5b505afa158015610356573d6000803e3d6000fd5b505050506040513d601f19601f8201168201806040525081019061037a91906121c9565b6103be5760405162461bcd60e51b8152602060048201526015602482015274139bdd08195b9bdd59da0818dbdb1b185d195c985b605a1b6044820152606401610184565b600087815260008051602061261983398151915260209081526040808320898452909152908190205490516328378aab60e01b81526001600160a01b03909116906328378aab906104199087908990889088906004016121eb565b600060405180830381600087803b15801561043357600080fd5b505af1158015610447573d6000803e3d6000fd5b5050505050505050505050565b60008083116104965760405162461bcd60e51b815260206004820152600e60248201526d125b9d985b1a5908185b5bdd5b9d60921b6044820152606401610184565b604051639519832b60e01b8152600481018890526001600160a01b038616602482015260009073__$e7d72ce98f1dce1f33c815a57604cff5ab$__90639519832b9060440160206040518083038186803b1580156104f357600080fd5b505af4158015610507573d6000803e3d6000fd5b505050506040513d601f19601f8201168201806040525081019061052b9190612157565b60405163b6eb033d60e01b8152600481018a9052602481018990526001600160a01b038816604482015290915073__$e7d72ce98f1dce1f33c815a57604cff5ab$__9063b6eb033d9060640160006040518083038186803b15801561058f57600080fd5b505af41580156105a3573d6000803e3d6000fd5b505050506105af610f2e565b6001600160a01b03166328ff7a42878a87896040518563ffffffff1660e01b81526004016105e0949392919061219e565b60206040518083038186803b1580156105f857600080fd5b505afa15801561060c573d6000803e3d6000fd5b505050506040513d601f19601f8201168201806040525081019061063091906121c9565b6106745760405162461bcd60e51b8152602060048201526015602482015274139bdd08195b9bdd59da0818dbdb1b185d195c985b605a1b6044820152606401610184565b60405163139e3fb360e21b81526004810189905260009073__$e049441b2d898ade92927f540debd09cf4$__90634e78fecc9060240160206040518083038186803b1580156106c257600080fd5b505af41580156106d6573d6000803e3d6000fd5b505050506040513d601f19601f820116820180604052508101906106fa9190612157565b60008a8152600080516020612619833981519152602090815260408083208c8452909152808220549051632111b03d60e11b8152929350909182916001600160a01b031690634223607a9061075b908b908d908c908c908a9060040161221d565b60e060405180830381600087803b15801561077557600080fd5b505af1158015610789573d6000803e3d6000fd5b505050506040513d601f19601f820116820180604052508101906107ad9190612257565b9150915081602001519450868260600151866107c99190612186565b146107dc576107d9600185612186565b93505b60148411156108265760405162461bcd60e51b8152602060048201526016602482015275546f6f206d616e7920616374697665206f726465727360501b6044820152606401610184565b61083d8b8b8b8b8987604001518860000151610d42565b61086b8b8b60008b600181111561085657610856611f84565b14610862576000610865565b60015b84610cb7565b6001600160a01b03891660009081527f8041b8421ebd495cc61f38c788c9eb100daccf9bd36aa0bb920b7a15b2e0496e602052604090206108ac908c610f4b565b50505050509695505050505050565b6040516295a47160e71b815260048101849052602481018390526001600160a01b038216604482015260009073__$e7d72ce98f1dce1f33c815a57604cff5ab$__90634ad23880906064016101206040518083038186803b15801561091f57600080fd5b505af4158015610933573d6000803e3d6000fd5b505050506040513d601f19601f8201168201806040525081019061095791906122ee565b606001519050600080600061096e87878787610f60565b92509250925061098f87878784876020015188604001518960000151610d42565b6109bd878760008460018111156109a8576109a8611f84565b146109b45760006109b7565b60015b85610cb7565b60008781527f8041b8421ebd495cc61f38c788c9eb100daccf9bd36aa0bb920b7a15b2e0496b6020908152604080832060008051602061261983398151915283528184208a85528352818420546001600160a01b039081168552925280832054815163070da1af60e11b8152898416600482015282519190931692630e1b435e926024808301939192829003018186803b158015610a5a57600080fd5b505afa158015610a6e573d6000803e3d6000fd5b505050506040513d601f19601f82011682018060405250810190610a929190612369565b5090508015610b165760405163b6eb033d60e01b815260048101899052602481018890526001600160a01b038716604482015273__$e7d72ce98f1dce1f33c815a57604cff5ab$__9063b6eb033d906064015b60006040518083038186803b158015610afd57600080fd5b505af4158015610b11573d6000803e3d6000fd5b505050505b5050505050505050565b606080600080600086516001600160401b03811115610b4157610b41611e07565b604051908082528060200260200182016040528015610b7457816020015b6060815260200190600190039081610b5f5790505b509050600087516001600160401b03811115610b9257610b92611e07565b604051908082528060200260200182016040528015610bc557816020015b6060815260200190600190039081610bb05790505b50905060005b8851811015610c9357610bf7898281518110610be957610be961238d565b602002602001015189611357565b848381518110610c0957610c0961238d565b60200260200101848481518110610c2257610c2261238d565b602002602001018290528290525050828181518110610c4357610c4361238d565b60200260200101515185610c579190612186565b9450818181518110610c6b57610c6b61238d565b60200260200101515184610c7f9190612186565b935080610c8b816123a3565b915050610bcb565b50610c9e828561153f565b9550610caa818461153f565b9450505050509250929050565b604081015115610d3c57805160208201516040808401519051631c872e8960e11b815273__$e7d72ce98f1dce1f33c815a57604cff5ab$__9363390e5d1293610d10938a938a93928a92909160009081906004016123be565b60006040518083038186803b158015610d2857600080fd5b505af4158015610b16573d6000803e3d6000fd5b50505050565b8115610f25576040516303e5fb5960e01b81526004810188905260009073__$e049441b2d898ade92927f540debd09cf4$__906303e5fb599060240160206040518083038186803b158015610d9657600080fd5b505af4158015610daa573d6000803e3d6000fd5b505050506040513d601f19601f82011682018060405250810190610dce9190612157565b604051631c872e8960e11b815290915073__$e7d72ce98f1dce1f33c815a57604cff5ab$__9063390e5d1290610e17908b908b908b908b908b908b908a906001906004016123be565b60006040518083038186803b158015610e2f57600080fd5b505af4158015610e43573d6000803e3d6000fd5b5050505073__$53b43b4bdeb2460d1113627ef627de0cf6$__63e88e1837898973__$e049441b2d898ade92927f540debd09cf4$__63f1eaebae6040518163ffffffff1660e01b815260040160206040518083038186803b158015610ea757600080fd5b505af4158015610ebb573d6000803e3d6000fd5b505050506040513d601f19601f82011682018060405250810190610edf9190612157565b6040516001600160e01b031960e086901b168152600481019390935260248301919091526044820152606481018590526084810187905260a4810186905260c401610ae5565b50505050505050565b6000610f4669151bdad95b95985d5b1d60b21b611653565b905090565b6000610f5783836116eb565b90505b92915050565b610f8b6040518060800160405280600081526020016000815260200160008152602001600081525090565b610fb8604051806060016040528060006001600160a01b0316815260200160008152602001600081525090565b600083610ffe5760405162461bcd60e51b81526020600482015260146024820152734675747572652056616c7565206973207a65726f60601b6044820152606401610184565b60405163139e3fb360e21b81526004810188905260009073__$e049441b2d898ade92927f540debd09cf4$__90634e78fecc9060240160206040518083038186803b15801561104c57600080fd5b505af4158015611060573d6000803e3d6000fd5b505050506040513d601f19601f820116820180604052508101906110849190612157565b6040516303e5fb5960e01b8152600481018a905290915060009073__$e049441b2d898ade92927f540debd09cf4$__906303e5fb599060240160206040518083038186803b1580156110d557600080fd5b505af41580156110e9573d6000803e3d6000fd5b505050506040513d601f19601f8201168201806040525081019061110d9190612157565b9050600086131561123957600192506000611128428a612410565b9050600061117e6111398385612427565b6111496127106301e13380612427565b6111539190612186565b6127106301e133806111648c61173a565b61116e9190612427565b6111789190612427565b90611790565b60008c8152600080516020612619833981519152602090815260408083208e84529091529081902054905163eca3107f60e01b81529192506001600160a01b03169063eca3107f906111da9088908d9086908a906004016121eb565b60e060405180830381600087803b1580156111f457600080fd5b505af1158015611208573d6000803e3d6000fd5b505050506040513d601f19601f8201168201806040525081019061122c9190612257565b909750955061134b915050565b600086121561134b576000925082611251428a612410565b905060006112956112628385612427565b6112726127106301e13380612427565b61127c9190612410565b6127106301e133806111646112908d612446565b61173a565b60008c8152600080516020612619833981519152602090815260408083208e84529091529081902054905163eca3107f60e01b81529192506001600160a01b03169063eca3107f906112f19088908d9086908a906004016121eb565b60e060405180830381600087803b15801561130b57600080fd5b505af115801561131f573d6000803e3d6000fd5b505050506040513d601f19601f820116820180604052508101906113439190612257565b909750955050505b50509450945094915050565b60008281527f8041b8421ebd495cc61f38c788c9eb100daccf9bd36aa0bb920b7a15b2e0496f602090815260408083206001600160a01b038516845290915281206060918291819081906113aa90611801565b9050600081516001600160401b038111156113c7576113c7611e07565b6040519080825280602002602001820160405280156113fa57816020015b60608152602001906001900390816113e55790505b509050600082516001600160401b0381111561141857611418611e07565b60405190808252806020026020018201604052801561144b57816020015b60608152602001906001900390816114365790505b50905060005b835181101561151a5761147e8a8583815181106114705761147061238d565b60200260200101518b611815565b8483815181106114905761149061238d565b602002602001018484815181106114a9576114a961238d565b6020026020010182905282905250508281815181106114ca576114ca61238d565b602002602001015151866114de9190612186565b95508181815181106114f2576114f261238d565b602002602001015151856115069190612186565b945080611512816123a3565b915050611451565b50611525828661153f565b9650611531818561153f565b955050505050509250929050565b6060816001600160401b0381111561155957611559611e07565b60405190808252806020026020018201604052801561159257816020015b61157f611d00565b8152602001906001900390816115775790505b5090506000805b845181101561164b5760005b8582815181106115b7576115b761238d565b602002602001015151811015611638578582815181106115d9576115d961238d565b602002602001015181815181106115f2576115f261238d565b602002602001015184848151811061160c5761160c61238d565b60200260200101819052508280611622906123a3565b9350508080611630906123a3565b9150506115a5565b5080611643816123a3565b915050611599565b505092915050565b60008181527f4abde63c3e81aefa5764b017968bc473e83e093d7e1a10247d19e0a3e41240196020908152604080832054815170026b4b9b9b4b7339030b2323932b9b99d1607d1b9381019390935260318084018690528251808503909101815260519093019091526001600160a01b031690816116e45760405162461bcd60e51b81526004016101849190612463565b5092915050565b600081815260018301602052604081205461173257508154600181810184556000848152602080822090930184905584548482528286019093526040902091909155610f5a565b506000610f5a565b60008082121561178c5760405162461bcd60e51b815260206004820181905260248201527f53616665436173743a2076616c7565206d75737420626520706f7369746976656044820152606401610184565b5090565b600080821161179e57600080fd5b60056117aa83856124b8565b6117b590600a612427565b836117c186600a612427565b6117cb91906124b8565b6117d59190612410565b10156117ec576117e582846124b8565b9050610f5a565b6117f682846124b8565b6117e5906001612186565b6060600061180e83611bad565b9392505050565b60608060007f8041b8421ebd495cc61f38c788c9eb100daccf9bd36aa0bb920b7a15b2e04965600087815260079190910160209081526040808320888452909152808220549051638152b17360e01b81526001600160a01b038781166004830152909116925081908390638152b1739060240160006040518083038186803b1580156118a057600080fd5b505afa1580156118b4573d6000803e3d6000fd5b505050506040513d6000823e601f3d908101601f191682016040526118dc9190810190612555565b60405163bcc012ad60e01b81526001600160a01b03898116600483015292945090925060009182919086169063bcc012ad9060240160006040518083038186803b15801561192957600080fd5b505afa15801561193d573d6000803e3d6000fd5b505050506040513d6000823e601f3d908101601f191682016040526119659190810190612555565b91509150815184516119779190612186565b6001600160401b0381111561198e5761198e611e07565b6040519080825280602002602001820160405280156119c757816020015b6119b4611d00565b8152602001906001900390816119ac5790505b509650805183516119d89190612186565b6001600160401b038111156119ef576119ef611e07565b604051908082528060200260200182016040528015611a2857816020015b611a15611d00565b815260200190600190039081611a0d5790505b50955060005b8451811015611a8b57611a5b8b87878481518110611a4e57611a4e61238d565b6020026020010151611c09565b888281518110611a6d57611a6d61238d565b60200260200101819052508080611a83906123a3565b915050611a2e565b5060005b8251811015611aeb57611aaf8b87858481518110611a4e57611a4e61238d565b88828751611abd9190612186565b81518110611acd57611acd61238d565b60200260200101819052508080611ae3906123a3565b915050611a8f565b5060005b8351811015611b3f57611b0f8b87868481518110611a4e57611a4e61238d565b878281518110611b2157611b2161238d565b60200260200101819052508080611b37906123a3565b915050611aef565b5060005b8151811015611b9f57611b638b87848481518110611a4e57611a4e61238d565b87828651611b719190612186565b81518110611b8157611b8161238d565b60200260200101819052508080611b97906123a3565b915050611b43565b505050505050935093915050565b606081600001805480602002602001604051908101604052809291908181526020018280548015611bfd57602002820191906000526020600020905b815481526020019060010190808311611be9575b50505050509050919050565b611c11611d00565b604051633e710cd560e11b815265ffffffffffff8316600482015260009081908190819081906001600160a01b03891690637ce219aa9060240160c06040518083038186803b158015611c6357600080fd5b505afa158015611c77573d6000803e3d6000fd5b505050506040513d601f19601f82011682018060405250810190611c9b91906125b8565b95509550509450945094506040518060e001604052808865ffffffffffff1681526020018a8152602001848152602001866001811115611cdd57611cdd611f84565b815260200185815260200183815260200182815250955050505050509392505050565b6040805160e08101825260008082526020820181905291810182905290606082019081526020016000815260200160008152602001600081525090565b6001600160a01b0381168114611d5257600080fd5b50565b8035611d6081611d3d565b919050565b60028110611d5257600080fd5b60008060008060008060c08789031215611d8b57600080fd5b86359550602087013594506040870135611da481611d3d565b93506060870135611db481611d65565b9598949750929560808101359460a0909101359350915050565b600080600060608486031215611de357600080fd5b83359250602084013591506040840135611dfc81611d3d565b809150509250925092565b634e487b7160e01b600052604160045260246000fd5b604051606081016001600160401b0381118282101715611e3f57611e3f611e07565b60405290565b604051608081016001600160401b0381118282101715611e3f57611e3f611e07565b60405161012081016001600160401b0381118282101715611e3f57611e3f611e07565b604051601f8201601f191681016001600160401b0381118282101715611eb257611eb2611e07565b604052919050565b60006001600160401b03821115611ed357611ed3611e07565b5060051b60200190565b60008060408385031215611ef057600080fd5b82356001600160401b03811115611f0657600080fd5b8301601f81018513611f1757600080fd5b80356020611f2c611f2783611eba565b611e8a565b82815260059290921b83018101918181019088841115611f4b57600080fd5b938201935b83851015611f6957843582529382019390820190611f50565b9550611f789050868201611d55565b93505050509250929050565b634e487b7160e01b600052602160045260246000fd5b60028110611fb857634e487b7160e01b600052602160045260246000fd5b9052565b600081518084526020808501945080840160005b8381101561203c578151805165ffffffffffff16885283810151848901526040808201519089015260608082015161200a828b0182611f9a565b50506080818101519089015260a0808201519089015260c0908101519088015260e09096019590820190600101611fd0565b509495945050505050565b60408152600061205a6040830185611fbc565b828103602084015261206c8185611fbc565b95945050505050565b60008060008084860360c081121561208c57600080fd5b853594506020860135935060408601356120a581611d65565b92506060605f19820112156120b957600080fd5b506120c2611e1d565b60608601356120d081611d3d565b81526080860135602082015260a0909501356040860152509194909350909190565b600080600080600080600060e0888a03121561210d57600080fd5b8735965060208801359550604088013561212681611d3d565b9450606088013561213681611d65565b9699959850939660808101359560a0820135955060c0909101359350915050565b60006020828403121561216957600080fd5b5051919050565b634e487b7160e01b600052601160045260246000fd5b6000821982111561219957612199612170565b500190565b6001600160a01b038516815260208101849052604081018390526080810161206c6060830184611f9a565b6000602082840312156121db57600080fd5b8151801515811461180e57600080fd5b608081016121f98287611f9a565b6001600160a01b039490941660208201526040810192909252606090910152919050565b60a0810161222b8288611f9a565b6001600160a01b0395909516602082015260408101939093526060830191909152608090910152919050565b60008082840360e081121561226b57600080fd5b608081121561227957600080fd5b612281611e45565b84518152602085015160208201526040850151604082015260608501516060820152809350506060607f19820112156122b957600080fd5b506122c2611e1d565b60808401516122d081611d3d565b815260a0840151602082015260c09093015160408401525092909150565b6000610120828403121561230157600080fd5b612309611e67565b825181526020830151602082015260408301516040820152606083015160608201526080830151608082015260a083015160a082015260c083015160c082015260e083015160e08201526101008084015181830152508091505092915050565b6000806040838503121561237c57600080fd5b505080516020909101519092909150565b634e487b7160e01b600052603260045260246000fd5b60006000198214156123b7576123b7612170565b5060010190565b888152602081018890526001600160a01b038716604082015261010081016123e96060830188611f9a565b8560808301528460a08301528360c083015282151560e08301529998505050505050505050565b60008282101561242257612422612170565b500390565b600081600019048311821515161561244157612441612170565b500290565b6000600160ff1b82141561245c5761245c612170565b5060000390565b600060208083528351808285015260005b8181101561249057858101830151858201604001528201612474565b818111156124a2576000604083870101525b50601f01601f1916929092016040019392505050565b6000826124d557634e487b7160e01b600052601260045260246000fd5b500490565b600082601f8301126124eb57600080fd5b815160206124fb611f2783611eba565b82815260059290921b8401810191818101908684111561251a57600080fd5b8286015b8481101561254a57805165ffffffffffff8116811461253d5760008081fd5b835291830191830161251e565b509695505050505050565b6000806040838503121561256857600080fd5b82516001600160401b038082111561257f57600080fd5b61258b868387016124da565b935060208501519150808211156125a157600080fd5b506125ae858286016124da565b9150509250929050565b60008060008060008060c087890312156125d157600080fd5b86516125dc81611d65565b80965050602087015194506040870151935060608701516125fc81611d3d565b809350506080870151915060a08701519050929550929550929556fe8041b8421ebd495cc61f38c788c9eb100daccf9bd36aa0bb920b7a15b2e0496ca264697066735822122056497f76daffa5b60046be2993d31f5a7a22b543cc2a3421235e08b85bba124b64736f6c63430008090033",
  "libraries": {
    "FundManagementLogic": "0x8dd7E5Ca3C14543408aD715C770d86B961cad79a",
    "LendingMarketConfigurationLogic": "0x5963a13fc8b4755Ddc619663e1250257702c7334",
    "LendingMarketOperationLogic": "0x1bEF597df25D43d46dFDf6551EA481E0a6ac847A"
  },
  "devdoc": {
    "kind": "dev",
    "methods": {},
    "version": 1
  },
  "userdoc": {
    "kind": "user",
    "methods": {},
    "version": 1
  },
  "storageLayout": {
    "storage": [],
    "types": null
  }
}