{
  "address": "0xf651467aecD1A7905efb4Cd35502F16880eE0C23",
  "abi": [
    {
      "inputs": [],
      "name": "ContractLocked",
      "type": "error"
    },
    {
      "anonymous": false,
      "inputs": [
        {
          "indexed": false,
          "internalType": "bytes32",
          "name": "name",
          "type": "bytes32"
        },
        {
          "indexed": false,
          "internalType": "address",
          "name": "destination",
          "type": "address"
        }
      ],
      "name": "CacheUpdated",
      "type": "event"
    },
    {
      "anonymous": false,
      "inputs": [
        {
          "indexed": false,
          "internalType": "uint8",
          "name": "version",
          "type": "uint8"
        }
      ],
      "name": "Initialized",
      "type": "event"
    },
    {
      "anonymous": false,
      "inputs": [
        {
          "indexed": true,
          "internalType": "address",
          "name": "previousOwner",
          "type": "address"
        },
        {
          "indexed": true,
          "internalType": "address",
          "name": "newOwner",
          "type": "address"
        }
      ],
      "name": "OwnershipTransferred",
      "type": "event"
    },
    {
      "inputs": [],
      "name": "acceptedContracts",
      "outputs": [
        {
          "internalType": "bytes32[]",
          "name": "contracts",
          "type": "bytes32[]"
        }
      ],
      "stateMutability": "pure",
      "type": "function"
    },
    {
      "inputs": [],
      "name": "buildCache",
      "outputs": [],
      "stateMutability": "nonpayable",
      "type": "function"
    },
    {
      "inputs": [
        {
          "internalType": "bytes32",
          "name": "_ccy",
          "type": "bytes32"
        },
        {
          "internalType": "address",
          "name": "_user",
          "type": "address"
        }
      ],
      "name": "calculateFunds",
      "outputs": [
        {
          "internalType": "uint256",
          "name": "workingLendOrdersAmount",
          "type": "uint256"
        },
        {
          "internalType": "uint256",
          "name": "claimableAmount",
          "type": "uint256"
        },
        {
          "internalType": "uint256",
          "name": "collateralAmount",
          "type": "uint256"
        },
        {
          "internalType": "uint256",
          "name": "lentAmount",
          "type": "uint256"
        },
        {
          "internalType": "uint256",
          "name": "workingBorrowOrdersAmount",
          "type": "uint256"
        },
        {
          "internalType": "uint256",
          "name": "debtAmount",
          "type": "uint256"
        },
        {
          "internalType": "uint256",
          "name": "borrowedAmount",
          "type": "uint256"
        }
      ],
      "stateMutability": "view",
      "type": "function"
    },
    {
      "inputs": [
        {
          "internalType": "address",
          "name": "_user",
          "type": "address"
        },
        {
          "internalType": "bytes32",
          "name": "_depositCcy",
          "type": "bytes32"
        },
        {
          "internalType": "uint256",
          "name": "_depositAmount",
          "type": "uint256"
        }
      ],
      "name": "calculateTotalFundsInBaseCurrency",
      "outputs": [
        {
          "internalType": "uint256",
          "name": "totalWorkingLendOrdersAmount",
          "type": "uint256"
        },
        {
          "internalType": "uint256",
          "name": "totalClaimableAmount",
          "type": "uint256"
        },
        {
          "internalType": "uint256",
          "name": "totalCollateralAmount",
          "type": "uint256"
        },
        {
          "internalType": "uint256",
          "name": "totalLentAmount",
          "type": "uint256"
        },
        {
          "internalType": "uint256",
          "name": "totalWorkingBorrowOrdersAmount",
          "type": "uint256"
        },
        {
          "internalType": "uint256",
          "name": "totalDebtAmount",
          "type": "uint256"
        },
        {
          "internalType": "uint256",
          "name": "totalBorrowedAmount",
          "type": "uint256"
        },
        {
          "internalType": "bool",
          "name": "isEnoughDeposit",
          "type": "bool"
        }
      ],
      "stateMutability": "view",
      "type": "function"
    },
    {
      "inputs": [
        {
          "internalType": "bytes32",
          "name": "_ccy",
          "type": "bytes32"
        },
        {
          "internalType": "uint256",
          "name": "_maturity",
          "type": "uint256"
        },
        {
          "internalType": "uint48",
          "name": "_orderId",
          "type": "uint48"
        }
      ],
      "name": "cancelOrder",
      "outputs": [
        {
          "internalType": "bool",
          "name": "",
          "type": "bool"
        }
      ],
      "stateMutability": "nonpayable",
      "type": "function"
    },
    {
      "inputs": [
        {
          "internalType": "address",
          "name": "_user",
          "type": "address"
        }
      ],
      "name": "cleanUpAllFunds",
      "outputs": [
        {
          "internalType": "bool",
          "name": "",
          "type": "bool"
        }
      ],
      "stateMutability": "nonpayable",
      "type": "function"
    },
    {
      "inputs": [
        {
          "internalType": "bytes32",
          "name": "_ccy",
          "type": "bytes32"
        },
        {
          "internalType": "address",
          "name": "_user",
          "type": "address"
        }
      ],
      "name": "cleanUpFunds",
      "outputs": [
        {
          "internalType": "uint256",
          "name": "totalActiveOrderCount",
          "type": "uint256"
        }
      ],
      "stateMutability": "nonpayable",
      "type": "function"
    },
    {
      "inputs": [
        {
          "internalType": "bytes32",
          "name": "_ccy",
          "type": "bytes32"
        },
        {
          "internalType": "uint256",
          "name": "_openingDate",
          "type": "uint256"
        }
      ],
      "name": "createLendingMarket",
      "outputs": [],
      "stateMutability": "nonpayable",
      "type": "function"
    },
    {
      "inputs": [
        {
          "internalType": "bytes32",
          "name": "_ccy",
          "type": "bytes32"
        },
        {
          "internalType": "uint256",
          "name": "_maturity",
          "type": "uint256"
        },
        {
          "internalType": "enum ProtocolTypes.Side",
          "name": "_side",
          "type": "uint8"
        },
        {
          "internalType": "uint256",
          "name": "_amount",
          "type": "uint256"
        },
        {
          "internalType": "uint256",
          "name": "_unitPrice",
          "type": "uint256"
        }
      ],
      "name": "createOrder",
      "outputs": [
        {
          "internalType": "bool",
          "name": "",
          "type": "bool"
        }
      ],
      "stateMutability": "nonpayable",
      "type": "function"
    },
    {
      "inputs": [
        {
          "internalType": "bytes32",
          "name": "_ccy",
          "type": "bytes32"
        },
        {
          "internalType": "uint256",
          "name": "_maturity",
          "type": "uint256"
        },
        {
          "internalType": "enum ProtocolTypes.Side",
          "name": "_side",
          "type": "uint8"
        },
        {
          "internalType": "uint256",
          "name": "_amount",
          "type": "uint256"
        },
        {
          "internalType": "uint256",
          "name": "_unitPrice",
          "type": "uint256"
        }
      ],
      "name": "createPreOrder",
      "outputs": [
        {
          "internalType": "bool",
          "name": "",
          "type": "bool"
        }
      ],
      "stateMutability": "nonpayable",
      "type": "function"
    },
    {
      "inputs": [
        {
          "internalType": "bytes32",
          "name": "_ccy",
          "type": "bytes32"
        },
        {
          "internalType": "uint256",
          "name": "_maturity",
          "type": "uint256"
        },
        {
          "internalType": "enum ProtocolTypes.Side",
          "name": "_side",
          "type": "uint8"
        },
        {
          "internalType": "uint256",
          "name": "_amount",
          "type": "uint256"
        },
        {
          "internalType": "uint256",
          "name": "_unitPrice",
          "type": "uint256"
        }
      ],
      "name": "depositAndCreateOrder",
      "outputs": [
        {
          "internalType": "bool",
          "name": "",
          "type": "bool"
        }
      ],
      "stateMutability": "payable",
      "type": "function"
    },
    {
      "inputs": [
        {
          "internalType": "bytes32",
          "name": "_ccy",
          "type": "bytes32"
        },
        {
          "internalType": "uint256",
          "name": "_maturity",
          "type": "uint256"
        },
        {
          "internalType": "enum ProtocolTypes.Side",
          "name": "_side",
          "type": "uint8"
        },
        {
          "internalType": "uint256",
          "name": "_amount",
          "type": "uint256"
        },
        {
          "internalType": "uint256",
          "name": "_unitPrice",
          "type": "uint256"
        }
      ],
      "name": "depositAndCreatePreOrder",
      "outputs": [
        {
          "internalType": "bool",
          "name": "",
          "type": "bool"
        }
      ],
      "stateMutability": "payable",
      "type": "function"
    },
    {
      "inputs": [],
      "name": "executeEmergencyTermination",
      "outputs": [],
      "stateMutability": "nonpayable",
      "type": "function"
    },
    {
      "inputs": [
        {
          "internalType": "bytes32[]",
          "name": "_currencies",
          "type": "bytes32[]"
        },
        {
          "internalType": "uint256",
          "name": "_maturity",
          "type": "uint256"
        }
      ],
      "name": "executeItayoseCalls",
      "outputs": [
        {
          "internalType": "bool",
          "name": "",
          "type": "bool"
        }
      ],
      "stateMutability": "nonpayable",
      "type": "function"
    },
    {
      "inputs": [
        {
          "internalType": "bytes32",
          "name": "_collateralCcy",
          "type": "bytes32"
        },
        {
          "internalType": "bytes32",
          "name": "_debtCcy",
          "type": "bytes32"
        },
        {
          "internalType": "uint256",
          "name": "_debtMaturity",
          "type": "uint256"
        },
        {
          "internalType": "address",
          "name": "_user",
          "type": "address"
        }
      ],
      "name": "executeLiquidationCall",
      "outputs": [
        {
          "internalType": "bool",
          "name": "",
          "type": "bool"
        }
      ],
      "stateMutability": "nonpayable",
      "type": "function"
    },
    {
      "inputs": [],
      "name": "executeRedemption",
      "outputs": [
        {
          "internalType": "bool",
          "name": "",
          "type": "bool"
        }
      ],
      "stateMutability": "nonpayable",
      "type": "function"
    },
    {
      "inputs": [
        {
          "internalType": "bytes32",
          "name": "_ccy",
          "type": "bytes32"
        }
      ],
      "name": "getAutoRollFeeRate",
      "outputs": [
        {
          "internalType": "uint256",
          "name": "",
          "type": "uint256"
        }
      ],
      "stateMutability": "view",
      "type": "function"
    },
    {
      "inputs": [
        {
          "internalType": "bytes32",
          "name": "_ccy",
          "type": "bytes32"
        },
        {
          "internalType": "uint256",
          "name": "_maturity",
          "type": "uint256"
        },
        {
          "internalType": "uint256",
          "name": "_limit",
          "type": "uint256"
        }
      ],
      "name": "getBorrowOrderBook",
      "outputs": [
        {
          "internalType": "uint256[]",
          "name": "unitPrices",
          "type": "uint256[]"
        },
        {
          "internalType": "uint256[]",
          "name": "amounts",
          "type": "uint256[]"
        },
        {
          "internalType": "uint256[]",
          "name": "quantities",
          "type": "uint256[]"
        }
      ],
      "stateMutability": "view",
      "type": "function"
    },
    {
      "inputs": [
        {
          "internalType": "bytes32",
          "name": "_ccy",
          "type": "bytes32"
        }
      ],
      "name": "getBorrowUnitPrices",
      "outputs": [
        {
          "internalType": "uint256[]",
          "name": "",
          "type": "uint256[]"
        }
      ],
      "stateMutability": "view",
      "type": "function"
    },
    {
      "inputs": [
        {
          "internalType": "bytes32",
          "name": "_ccy",
          "type": "bytes32"
        }
      ],
      "name": "getCircuitBreakerLimitRange",
      "outputs": [
        {
          "internalType": "uint256",
          "name": "",
          "type": "uint256"
        }
      ],
      "stateMutability": "view",
      "type": "function"
    },
    {
      "inputs": [
        {
          "internalType": "bytes32",
          "name": "_ccy",
          "type": "bytes32"
        },
        {
          "internalType": "uint256",
          "name": "_maturity",
          "type": "uint256"
        }
      ],
      "name": "getFutureValueVault",
      "outputs": [
        {
          "internalType": "address",
          "name": "",
          "type": "address"
        }
      ],
      "stateMutability": "view",
      "type": "function"
    },
    {
      "inputs": [
        {
          "internalType": "bytes32",
          "name": "_ccy",
          "type": "bytes32"
        }
      ],
      "name": "getGenesisDate",
      "outputs": [
        {
          "internalType": "uint256",
          "name": "",
          "type": "uint256"
        }
      ],
      "stateMutability": "view",
      "type": "function"
    },
    {
      "inputs": [
        {
          "internalType": "bytes32",
          "name": "_ccy",
          "type": "bytes32"
        },
        {
          "internalType": "address",
          "name": "_user",
          "type": "address"
        }
      ],
      "name": "getGenesisValue",
      "outputs": [
        {
          "internalType": "int256",
          "name": "genesisValue",
          "type": "int256"
        }
      ],
      "stateMutability": "view",
      "type": "function"
    },
    {
      "inputs": [
        {
          "internalType": "bytes32",
          "name": "_ccy",
          "type": "bytes32"
        },
        {
          "internalType": "uint256",
          "name": "_maturity",
          "type": "uint256"
        },
        {
          "internalType": "uint256",
          "name": "_limit",
          "type": "uint256"
        }
      ],
      "name": "getLendOrderBook",
      "outputs": [
        {
          "internalType": "uint256[]",
          "name": "unitPrices",
          "type": "uint256[]"
        },
        {
          "internalType": "uint256[]",
          "name": "amounts",
          "type": "uint256[]"
        },
        {
          "internalType": "uint256[]",
          "name": "quantities",
          "type": "uint256[]"
        }
      ],
      "stateMutability": "view",
      "type": "function"
    },
    {
      "inputs": [
        {
          "internalType": "bytes32",
          "name": "_ccy",
          "type": "bytes32"
        }
      ],
      "name": "getLendUnitPrices",
      "outputs": [
        {
          "internalType": "uint256[]",
          "name": "",
          "type": "uint256[]"
        }
      ],
      "stateMutability": "view",
      "type": "function"
    },
    {
      "inputs": [
        {
          "internalType": "bytes32",
          "name": "_ccy",
          "type": "bytes32"
        },
        {
          "internalType": "uint256",
          "name": "_maturity",
          "type": "uint256"
        }
      ],
      "name": "getLendingMarket",
      "outputs": [
        {
          "internalType": "address",
          "name": "",
          "type": "address"
        }
      ],
      "stateMutability": "view",
      "type": "function"
    },
    {
      "inputs": [
        {
          "internalType": "bytes32",
          "name": "_ccy",
          "type": "bytes32"
        }
      ],
      "name": "getLendingMarkets",
      "outputs": [
        {
          "internalType": "address[]",
          "name": "",
          "type": "address[]"
        }
      ],
      "stateMutability": "view",
      "type": "function"
    },
    {
      "inputs": [
        {
          "internalType": "bytes32",
          "name": "_ccy",
          "type": "bytes32"
        }
      ],
      "name": "getMaturities",
      "outputs": [
        {
          "internalType": "uint256[]",
          "name": "",
          "type": "uint256[]"
        }
      ],
      "stateMutability": "view",
      "type": "function"
    },
    {
      "inputs": [
        {
          "internalType": "bytes32",
          "name": "_ccy",
          "type": "bytes32"
        }
      ],
      "name": "getMidUnitPrices",
      "outputs": [
        {
          "internalType": "uint256[]",
          "name": "",
          "type": "uint256[]"
        }
      ],
      "stateMutability": "view",
      "type": "function"
    },
    {
      "inputs": [],
      "name": "getObservationPeriod",
      "outputs": [
        {
          "internalType": "uint256",
          "name": "",
          "type": "uint256"
        }
      ],
      "stateMutability": "view",
      "type": "function"
    },
    {
      "inputs": [
        {
          "internalType": "bytes32",
          "name": "_ccy",
          "type": "bytes32"
        }
      ],
      "name": "getOrderFeeRate",
      "outputs": [
        {
          "internalType": "uint256",
          "name": "",
          "type": "uint256"
        }
      ],
      "stateMutability": "view",
      "type": "function"
    },
    {
      "inputs": [
        {
          "internalType": "bytes32[]",
          "name": "_ccys",
          "type": "bytes32[]"
        },
        {
          "internalType": "address",
          "name": "_user",
          "type": "address"
        }
      ],
      "name": "getOrders",
      "outputs": [
        {
          "components": [
            {
              "internalType": "uint48",
              "name": "orderId",
              "type": "uint48"
            },
            {
              "internalType": "bytes32",
              "name": "ccy",
              "type": "bytes32"
            },
            {
              "internalType": "uint256",
              "name": "maturity",
              "type": "uint256"
            },
            {
              "internalType": "enum ProtocolTypes.Side",
              "name": "side",
              "type": "uint8"
            },
            {
              "internalType": "uint256",
              "name": "unitPrice",
              "type": "uint256"
            },
            {
              "internalType": "uint256",
              "name": "amount",
              "type": "uint256"
            },
            {
              "internalType": "uint256",
              "name": "timestamp",
              "type": "uint256"
            },
            {
              "internalType": "bool",
              "name": "isPreOrder",
              "type": "bool"
            }
          ],
          "internalType": "struct ILendingMarketController.Order[]",
          "name": "activeOrders",
          "type": "tuple[]"
        },
        {
          "components": [
            {
              "internalType": "uint48",
              "name": "orderId",
              "type": "uint48"
            },
            {
              "internalType": "bytes32",
              "name": "ccy",
              "type": "bytes32"
            },
            {
              "internalType": "uint256",
              "name": "maturity",
              "type": "uint256"
            },
            {
              "internalType": "enum ProtocolTypes.Side",
              "name": "side",
              "type": "uint8"
            },
            {
              "internalType": "uint256",
              "name": "unitPrice",
              "type": "uint256"
            },
            {
              "internalType": "uint256",
              "name": "amount",
              "type": "uint256"
            },
            {
              "internalType": "uint256",
              "name": "timestamp",
              "type": "uint256"
            },
            {
              "internalType": "bool",
              "name": "isPreOrder",
              "type": "bool"
            }
          ],
          "internalType": "struct ILendingMarketController.Order[]",
          "name": "inactiveOrders",
          "type": "tuple[]"
        }
      ],
      "stateMutability": "view",
      "type": "function"
    },
    {
      "inputs": [
        {
          "internalType": "bytes32",
          "name": "_ccy",
          "type": "bytes32"
        },
        {
          "internalType": "uint256",
          "name": "_maturity",
          "type": "uint256"
        },
        {
          "internalType": "address",
          "name": "_user",
          "type": "address"
        }
      ],
      "name": "getPosition",
      "outputs": [
        {
          "internalType": "int256",
          "name": "presentValue",
          "type": "int256"
        },
        {
          "internalType": "int256",
          "name": "futureValue",
          "type": "int256"
        }
      ],
      "stateMutability": "view",
      "type": "function"
    },
    {
      "inputs": [
        {
          "internalType": "bytes32[]",
          "name": "_ccys",
          "type": "bytes32[]"
        },
        {
          "internalType": "address",
          "name": "_user",
          "type": "address"
        }
      ],
      "name": "getPositions",
      "outputs": [
        {
          "components": [
            {
              "internalType": "bytes32",
              "name": "ccy",
              "type": "bytes32"
            },
            {
              "internalType": "uint256",
              "name": "maturity",
              "type": "uint256"
            },
            {
              "internalType": "int256",
              "name": "presentValue",
              "type": "int256"
            },
            {
              "internalType": "int256",
              "name": "futureValue",
              "type": "int256"
            }
          ],
          "internalType": "struct ILendingMarketController.Position[]",
          "name": "positions",
          "type": "tuple[]"
        }
      ],
      "stateMutability": "view",
      "type": "function"
    },
    {
      "inputs": [
        {
          "internalType": "bytes32",
          "name": "_ccy",
          "type": "bytes32"
        },
        {
          "internalType": "address",
          "name": "_user",
          "type": "address"
        }
      ],
      "name": "getTotalPresentValue",
      "outputs": [
        {
          "internalType": "int256",
          "name": "totalPresentValue",
          "type": "int256"
        }
      ],
      "stateMutability": "view",
      "type": "function"
    },
    {
      "inputs": [
        {
          "internalType": "address",
          "name": "_user",
          "type": "address"
        }
      ],
      "name": "getTotalPresentValueInBaseCurrency",
      "outputs": [
        {
          "internalType": "int256",
          "name": "totalPresentValue",
          "type": "int256"
        }
      ],
      "stateMutability": "view",
      "type": "function"
    },
    {
      "inputs": [
        {
          "internalType": "address",
          "name": "_user",
          "type": "address"
        }
      ],
      "name": "getUsedCurrencies",
      "outputs": [
        {
          "internalType": "bytes32[]",
          "name": "",
          "type": "bytes32[]"
        }
      ],
      "stateMutability": "view",
      "type": "function"
    },
    {
      "inputs": [
        {
          "internalType": "address",
          "name": "_owner",
          "type": "address"
        },
        {
          "internalType": "address",
          "name": "_resolver",
          "type": "address"
        },
        {
          "internalType": "uint256",
          "name": "_marketBasePeriod",
          "type": "uint256"
        },
        {
          "internalType": "uint256",
          "name": "_observationPeriod",
          "type": "uint256"
        }
      ],
      "name": "initialize",
      "outputs": [],
      "stateMutability": "nonpayable",
      "type": "function"
    },
    {
      "inputs": [
        {
          "internalType": "bytes32",
          "name": "_ccy",
          "type": "bytes32"
        },
        {
          "internalType": "uint256",
          "name": "_genesisDate",
          "type": "uint256"
        },
        {
          "internalType": "uint256",
          "name": "_compoundFactor",
          "type": "uint256"
        },
        {
          "internalType": "uint256",
          "name": "_orderFeeRate",
          "type": "uint256"
        },
        {
          "internalType": "uint256",
          "name": "_autoRollFeeRate",
          "type": "uint256"
        },
        {
          "internalType": "uint256",
          "name": "_circuitBreakerLimitRange",
          "type": "uint256"
        }
      ],
      "name": "initializeLendingMarket",
      "outputs": [],
      "stateMutability": "nonpayable",
      "type": "function"
    },
    {
      "inputs": [
        {
          "internalType": "bytes32",
          "name": "_ccy",
          "type": "bytes32"
        }
      ],
      "name": "isInitializedLendingMarket",
      "outputs": [
        {
          "internalType": "bool",
          "name": "",
          "type": "bool"
        }
      ],
      "stateMutability": "view",
      "type": "function"
    },
    {
      "inputs": [
        {
          "internalType": "address",
          "name": "_user",
          "type": "address"
        }
      ],
      "name": "isRedemptionRequired",
      "outputs": [
        {
          "internalType": "bool",
          "name": "",
          "type": "bool"
        }
      ],
      "stateMutability": "view",
      "type": "function"
    },
    {
      "inputs": [],
      "name": "isResolverCached",
      "outputs": [
        {
          "internalType": "bool",
          "name": "",
          "type": "bool"
        }
      ],
      "stateMutability": "view",
      "type": "function"
    },
    {
      "inputs": [],
      "name": "isTerminated",
      "outputs": [
        {
          "internalType": "bool",
          "name": "",
          "type": "bool"
        }
      ],
      "stateMutability": "view",
      "type": "function"
    },
    {
      "inputs": [],
      "name": "owner",
      "outputs": [
        {
          "internalType": "address",
          "name": "",
          "type": "address"
        }
      ],
      "stateMutability": "view",
      "type": "function"
    },
    {
      "inputs": [
        {
          "internalType": "bytes32",
          "name": "_ccy",
          "type": "bytes32"
        }
      ],
      "name": "pauseLendingMarkets",
      "outputs": [
        {
          "internalType": "bool",
          "name": "",
          "type": "bool"
        }
      ],
      "stateMutability": "nonpayable",
      "type": "function"
    },
    {
      "inputs": [],
      "name": "renounceOwnership",
      "outputs": [],
      "stateMutability": "nonpayable",
      "type": "function"
    },
    {
      "inputs": [],
      "name": "requiredContracts",
      "outputs": [
        {
          "internalType": "bytes32[]",
          "name": "contracts",
          "type": "bytes32[]"
        }
      ],
      "stateMutability": "pure",
      "type": "function"
    },
    {
      "inputs": [],
      "name": "resolver",
      "outputs": [
        {
          "internalType": "contract IAddressResolver",
          "name": "",
          "type": "address"
        }
      ],
      "stateMutability": "view",
      "type": "function"
    },
    {
      "inputs": [
        {
          "internalType": "bytes32",
          "name": "_ccy",
          "type": "bytes32"
        }
      ],
      "name": "rotateLendingMarkets",
      "outputs": [],
      "stateMutability": "nonpayable",
      "type": "function"
    },
    {
      "inputs": [
        {
          "internalType": "address",
          "name": "newOwner",
          "type": "address"
        }
      ],
      "name": "transferOwnership",
      "outputs": [],
      "stateMutability": "nonpayable",
      "type": "function"
    },
    {
      "inputs": [
        {
          "internalType": "bytes32",
          "name": "_ccy",
          "type": "bytes32"
        }
      ],
      "name": "unpauseLendingMarkets",
      "outputs": [
        {
          "internalType": "bool",
          "name": "",
          "type": "bool"
        }
      ],
      "stateMutability": "nonpayable",
      "type": "function"
    },
    {
      "inputs": [
        {
          "internalType": "bytes32",
          "name": "_ccy",
          "type": "bytes32"
        },
        {
          "internalType": "uint256",
          "name": "_maturity",
          "type": "uint256"
        }
      ],
      "name": "unwindPosition",
      "outputs": [
        {
          "internalType": "bool",
          "name": "",
          "type": "bool"
        }
      ],
      "stateMutability": "nonpayable",
      "type": "function"
    },
    {
      "inputs": [
        {
          "internalType": "bytes32",
          "name": "_ccy",
          "type": "bytes32"
        },
        {
          "internalType": "uint256",
          "name": "_autoRollFeeRate",
          "type": "uint256"
        }
      ],
      "name": "updateAutoRollFeeRate",
      "outputs": [],
      "stateMutability": "nonpayable",
      "type": "function"
    },
    {
      "inputs": [
        {
          "internalType": "bytes32",
          "name": "_ccy",
          "type": "bytes32"
        },
        {
          "internalType": "uint256",
          "name": "_limitRange",
          "type": "uint256"
        }
      ],
      "name": "updateCircuitBreakerLimitRange",
      "outputs": [],
      "stateMutability": "nonpayable",
      "type": "function"
    },
    {
      "inputs": [
        {
          "internalType": "uint256",
          "name": "_observationPeriod",
          "type": "uint256"
        }
      ],
      "name": "updateObservationPeriod",
      "outputs": [],
      "stateMutability": "nonpayable",
      "type": "function"
    },
    {
      "inputs": [
        {
          "internalType": "bytes32",
          "name": "_ccy",
          "type": "bytes32"
        },
        {
          "internalType": "uint256",
          "name": "_orderFeeRate",
          "type": "uint256"
        }
      ],
      "name": "updateOrderFeeRate",
      "outputs": [],
      "stateMutability": "nonpayable",
      "type": "function"
    }
  ],
  "transactionHash": "0x597ccf2a404614a7cf04851a9ac8dfc148157809bcc582cd8ffeaf92c4601859",
  "args": [],
  "numDeployments": 6,
  "solcInputHash": "49f3d973681da0e5bc4548a0b597287d",
  "bytecode": "0x608060405234801561001057600080fd5b506001600055614a32806100256000396000f3fe60806040526004361061036b5760003560e01c8063862fd6e5116101c6578063c11333b1116100f7578063eb990c5911610095578063f2fde38b1161006f578063f2fde38b14610ad8578063faca409b14610af8578063fc70081014610b18578063fd4584e614610b3857600080fd5b8063eb990c5914610a64578063ebb9141614610a84578063f1eaebae14610aa457600080fd5b8063e0997659116100d1578063e0997659146109ef578063e99d053814610a04578063ea57481714610a24578063eb092a2614610a4457600080fd5b8063c11333b11461096e578063cb9d74011461098e578063d1cc9976146109da57600080fd5b8063953dbcaa11610164578063b3cb84501161013e578063b3cb845014610906578063b8f117cd14610926578063bfd10cf61461093b578063bfe61a281461095b57600080fd5b8063953dbcaa146108a6578063a02be3dc146108c6578063a4c66bde146108e657600080fd5b80638b36d833116101a05780638b36d833146108315780638c197d8d146108515780638da5cb5b146108715780639519832b1461088657600080fd5b8063862fd6e5146107d1578063891d5965146107f15780638a9817451461081157600080fd5b806349f2ccbf116102a057806372d563ef1161023e5780637c63039d116102185780637c63039d1461075c5780637deb671e1461077c578063826b47e81461079157806385323e1a146107b157600080fd5b806372d563ef146106ef578063798ac0c01461070f5780637b588aaa1461073c57600080fd5b80635c3477651161027a5780635c347765146106455780635ca65d571461069a57806370c641a6146106ba578063715018a6146106da57600080fd5b806349f2ccbf146105ac5780634e78fecc146105cc57806355aceb4e1461061857600080fd5b80632af64bd31161030d578063381ada1f116102e7578063381ada1f1461051c5780633d03b9da14610549578063448255c71461056b578063482f267a1461057e57600080fd5b80632af64bd3146104c75780632e6c5e67146104dc5780632f749574146104fc57600080fd5b80630594de6e116103495780630594de6e1461042c578063062ea2941461045b57806317b72ff41461049057806329985e5a146104b057600080fd5b806301cf22351461037057806303e5fb59146103a557806304f3bcec146103ff575b600080fd5b34801561037c57600080fd5b5061039061038b366004613b3d565b610b95565b60405190151581526020015b60405180910390f35b3480156103b157600080fd5b506103f16103c0366004613b5f565b60009081527ffd57fda692f2d6ebd63634bcff565f4a5bd9da5175c220bd0ae0da0b8f69d317602052604090205490565b60405190815260200161039c565b34801561040b57600080fd5b50610414610cbc565b6040516001600160a01b03909116815260200161039c565b34801561043857600080fd5b5061044c610447366004613b78565b610cdd565b60405161039c93929190613bdf565b34801561046757600080fd5b5061047b610476366004613c37565b610d9c565b6040805192835260208301919091520161039c565b34801561049c57600080fd5b506103f16104ab366004613c70565b610e35565b3480156104bc57600080fd5b506104c5610ecb565b005b3480156104d357600080fd5b50610390611080565b3480156104e857600080fd5b506103906104f7366004613b5f565b6111e6565b34801561050857600080fd5b506104c5610517366004613b3d565b611206565b34801561052857600080fd5b5061053c610537366004613b5f565b6112a4565b60405161039c9190613ca0565b34801561055557600080fd5b5061055e611322565b60405161039c9190613ced565b610390610579366004613d32565b611444565b34801561058a57600080fd5b5061059e610599366004613ebd565b6115de565b60405161039c929190613fb2565b3480156105b857600080fd5b506103906105c7366004613ff4565b611679565b3480156105d857600080fd5b506103f16105e7366004613b5f565b60009081527ffd57fda692f2d6ebd63634bcff565f4a5bd9da5175c220bd0ae0da0b8f69d319602052604090205490565b34801561062457600080fd5b50610638610633366004613b5f565b6117c2565b60405161039c9190614022565b34801561065157600080fd5b50610665610660366004613c70565b611933565b604080519788526020880196909652948601939093526060850191909152608084015260a083015260c082015260e00161039c565b3480156106a657600080fd5b506104c56106b5366004613b3d565b611a1e565b3480156106c657600080fd5b506103f16106d5366004613c70565b611a8c565b3480156106e657600080fd5b506104c5611b26565b3480156106fb57600080fd5b506104c561070a366004613b3d565b611b61565b34801561071b57600080fd5b5061072f61072a366004613ebd565b611bf4565b60405161039c9190614035565b34801561074857600080fd5b506104c5610757366004613b3d565b611c8b565b34801561076857600080fd5b50610390610777366004614099565b611cf9565b34801561078857600080fd5b50610390611f0e565b34801561079d57600080fd5b506103906107ac3660046140dd565b611feb565b3480156107bd57600080fd5b506104146107cc366004613b3d565b612062565b3480156107dd57600080fd5b506103906107ec3660046140dd565b6120c4565b3480156107fd57600080fd5b506103f161080c366004613b5f565b612105565b34801561081d57600080fd5b5061041461082c366004613b3d565b612123565b34801561083d57600080fd5b506104c561084c366004613b5f565b612155565b34801561085d57600080fd5b506104c561086c366004613b5f565b61238c565b34801561087d57600080fd5b50610414612421565b34801561089257600080fd5b506103f16108a1366004613c70565b612449565b3480156108b257600080fd5b5061044c6108c1366004613b78565b6124de565b3480156108d257600080fd5b506106386108e1366004613b5f565b61253d565b3480156108f257600080fd5b506103f16109013660046140dd565b6126a7565b34801561091257600080fd5b50610390610921366004613b5f565b612832565b34801561093257600080fd5b506104c56128c5565b34801561094757600080fd5b50610638610956366004613b5f565b612999565b610390610969366004613d32565b612b03565b34801561097a57600080fd5b506103906109893660046140fa565b612c59565b34801561099a57600080fd5b506103f16109a9366004613b5f565b60009081527ffd57fda692f2d6ebd63634bcff565f4a5bd9da5175c220bd0ae0da0b8f69d318602052604090205490565b3480156109e657600080fd5b50610390612ecf565b3480156109fb57600080fd5b5061055e612ee4565b348015610a1057600080fd5b50610390610a1f366004613b5f565b612f27565b348015610a3057600080fd5b506104c5610a3f36600461413b565b612fb5565b348015610a5057600080fd5b50610638610a5f366004613b5f565b61310f565b348015610a7057600080fd5b506104c5610a7f36600461417e565b613279565b348015610a9057600080fd5b50610390610a9f366004613d32565b61340b565b348015610ab057600080fd5b507ffd57fda692f2d6ebd63634bcff565f4a5bd9da5175c220bd0ae0da0b8f69d31a546103f1565b348015610ae457600080fd5b506104c5610af33660046140dd565b6134ee565b348015610b0457600080fd5b50610390610b13366004613d32565b61358b565b348015610b2457600080fd5b5061055e610b333660046140dd565b61366e565b348015610b4457600080fd5b50610b58610b533660046141c4565b61369c565b604080519889526020890197909752958701949094526060860192909252608085015260a084015260c0830152151560e08201526101000161039c565b600060026000541415610bc35760405162461bcd60e51b8152600401610bba906141f9565b60405180910390fd5b6002600090815583908390610bd6613764565b6000848152600791909101602090815260408083208584529091529020546001600160a01b03161415610c1b5760405162461bcd60e51b8152600401610bba90614230565b610c23612ecf565b15610c405760405162461bcd60e51b8152600401610bba9061425a565b604051632097fb8960e01b81527370925C28f25ACa0bd57360582CCd3d85787c4ff290632097fb8990610c7b90889088903390600401614286565b60006040518083038186803b158015610c9357600080fd5b505af4158015610ca7573d6000803e3d6000fd5b50505050600192505050600160005592915050565b60006000805160206149dd8339815191525b546001600160a01b0316919050565b60608060606000610cec613764565b600088815260079190910160209081526040808320898452909152908190205490516325fb168b60e11b8152600481018790526001600160a01b0390911691508190634bf62d16906024015b60006040518083038186803b158015610d5057600080fd5b505afa158015610d64573d6000803e3d6000fd5b505050506040513d6000823e601f3d908101601f19168201604052610d8c9190810190614300565b9350935093505093509350939050565b60008073A8167a4a1FA273f13ea309749069BF4cD6F5304363062ea2948686866040518463ffffffff1660e01b8152600401610dda93929190614286565b604080518083038186803b158015610df157600080fd5b505af4158015610e05573d6000803e3d6000fd5b505050506040513d601f19601f82011682018060405250810190610e299190614387565b90969095509350505050565b6040516295a47160e71b815260009073A8167a4a1FA273f13ea309749069BF4cD6F5304390634ad2388090610e7290869085908790600401614286565b6101206040518083038186803b158015610e8b57600080fd5b505af4158015610e9f573d6000803e3d6000fd5b505050506040513d601f19601f82011682018060405250810190610ec391906143ab565b519392505050565b6000610ed5611322565b905060005b8151811015611074576000828281518110610ef757610ef7614426565b602002602001015190506000610f186000805160206149dd83398151915290565b54604080517f5265736f6c766572206d697373696e67207461726765743a200000000000000060208201526039808201869052825180830390910181526059820192839052636795dbcd60e01b9092526001600160a01b0390921691636795dbcd91610f8991869190605d01614489565b60206040518083038186803b158015610fa157600080fd5b505afa158015610fb5573d6000803e3d6000fd5b505050506040513d601f19601f82011682018060405250810190610fd991906144a2565b60008381527f4abde63c3e81aefa5764b017968bc473e83e093d7e1a10247d19e0a3e4124019602090815260409182902080546001600160a01b0319166001600160a01b03851690811790915582518681529182015281519293507f88a93678a3692f6789d9546fc621bf7234b101ddb7d4fe479455112831b8aa68929081900390910190a15050808061106c906144d5565b915050610eda565b5061107d613788565b50565b60008061108b611322565b905060005b81518110156111dd5760008282815181106110ad576110ad614426565b602002602001015190506110cc6000805160206149dd83398151915290565b600082815260019190910160205260409020546001600160a01b03166000805160206149dd833981519152546040516321f8a72160e01b8152600481018490526001600160a01b03909116906321f8a7219060240160206040518083038186803b15801561113957600080fd5b505afa15801561114d573d6000803e3d6000fd5b505050506040513d601f19601f8201168201806040525081019061117191906144a2565b6001600160a01b03161415806111bb575060008181527f4abde63c3e81aefa5764b017968bc473e83e093d7e1a10247d19e0a3e412401960205260409020546001600160a01b0316155b156111ca576000935050505090565b50806111d5816144d5565b915050611090565b50600191505090565b60006111f0613764565b6000928352600801602052506040902054151590565b3361120f612421565b6001600160a01b0316146112355760405162461bcd60e51b8152600401610bba906144f0565b604051630bdd255d60e21b8152600481018390526024810182905273Ed6B4b75fc3ee750D17e37F71d82f1b6a66AF9b590632f749574906044015b60006040518083038186803b15801561128857600080fd5b505af415801561129c573d6000803e3d6000fd5b505050505050565b60606112ae613764565b600501600083815260200190815260200160002080548060200260200160405190810160405280929190818152602001828054801561131657602002820191906000526020600020905b81546001600160a01b031681526001909101906020018083116112f8575b50505050509050919050565b60408051600580825260c082019092526060916020820160a080368337019050509050742132b0b1b7b7283937bc3ca1b7b73a3937b63632b960591b8160008151811061137157611371614426565b6020026020010181815250507121bab93932b731bca1b7b73a3937b63632b960711b816001815181106113a6576113a6614426565b6020026020010181815250507011d95b995cda5cd5985b1d5955985d5b1d607a1b816002815181106113da576113da614426565b6020026020010181815250506a14995cd95c9d99519d5b9960aa1b8160038151811061140857611408614426565b60200260200101818152505069151bdad95b95985d5b1d60b21b8160048151811061143557611435614426565b60200260200101818152505090565b6000600260005414156114695760405162461bcd60e51b8152600401610bba906141f9565b600260009081558690869061147c613764565b6000848152600791909101602090815260408083208584529091529020546001600160a01b031614156114c15760405162461bcd60e51b8152600401610bba90614230565b6114c9612ecf565b156114e65760405162461bcd60e51b8152600401610bba9061425a565b6114ee61380b565b6040516396994e3760e01b8152336004820152602481018a9052604481018790526001600160a01b0391909116906396994e379034906064016000604051808303818588803b15801561154057600080fd5b505af1158015611554573d6000803e3d6000fd5b505060405163102cdc6b60e11b81527370925C28f25ACa0bd57360582CCd3d85787c4ff29350632059b8d6925061159a91508b908b9033908c908c908c90600401614525565b60006040518083038186803b1580156115b257600080fd5b505af41580156115c6573d6000803e3d6000fd5b50505050600192505050600160005595945050505050565b6060807370925C28f25ACa0bd57360582CCd3d85787c4ff263482f267a85856040518363ffffffff1660e01b815260040161161a929190614563565b60006040518083038186803b15801561163257600080fd5b505af4158015611646573d6000803e3d6000fd5b505050506040513d6000823e601f3d908101601f1916820160405261166e91908101906146a6565b909590945092505050565b60006002600054141561169e5760405162461bcd60e51b8152600401610bba906141f9565b60026000908155849084906116b1613764565b6000848152600791909101602090815260408083208584529091529020546001600160a01b031614156116f65760405162461bcd60e51b8152600401610bba90614230565b6116fe612ecf565b1561171b5760405162461bcd60e51b8152600401610bba9061425a565b6000611725613764565b6000888152600791909101602090815260408083208984529091529081902054905163504b89bd60e01b815233600482015265ffffffffffff871660248201526001600160a01b039091169150819063504b89bd90604401600060405180830381600087803b15801561179757600080fd5b505af11580156117ab573d6000803e3d6000fd5b505050506001935050505060016000559392505050565b606060006117ce613764565b600084815260059190910160205260409020546001600160401b038111156117f8576117f8613d7b565b604051908082528060200260200182016040528015611821578160200160208202803683370190505b50905060005b61182f613764565b6000858152600591909101602052604090205481101561192c576000611853613764565b6005016000868152602001908152602001600020828154811061187857611878614426565b6000918252602091829020015460408051631b3508b760e01b815290516001600160a01b0390921693508392631b3508b792600480840193829003018186803b1580156118c457600080fd5b505afa1580156118d8573d6000803e3d6000fd5b505050506040513d601f19601f820116820180604052508101906118fc9190614709565b83838151811061190e5761190e614426565b60209081029190910101525080611924816144d5565b915050611827565b5092915050565b600080600080600080600061196c8961194a613764565b6001600160a01b038b166000908152600991909101602052604090209061381a565b15611a1257604051635c34776560e01b8152600481018a90526001600160a01b038916602482015273A8167a4a1FA273f13ea309749069BF4cD6F5304390635c3477659060440160e06040518083038186803b1580156119cb57600080fd5b505af41580156119df573d6000803e3d6000fd5b505050506040513d601f19601f82011682018060405250810190611a039190614722565b96509650965096509650965096505b92959891949750929550565b33611a27612421565b6001600160a01b031614611a4d5760405162461bcd60e51b8152600401610bba906144f0565b604051635ca65d5760e01b8152600481018390526024810182905273Ed6B4b75fc3ee750D17e37F71d82f1b6a66AF9b590635ca65d5790604401611270565b6040516295a47160e71b815260009073A8167a4a1FA273f13ea309749069BF4cD6F5304390634ad2388090611ac990869085908790600401614286565b6101206040518083038186803b158015611ae257600080fd5b505af4158015611af6573d6000803e3d6000fd5b505050506040513d601f19601f82011682018060405250810190611b1a91906143ab565b61010001519392505050565b33611b2f612421565b6001600160a01b031614611b555760405162461bcd60e51b8152600401610bba906144f0565b611b5f6000613832565b565b611b69612ecf565b15611b865760405162461bcd60e51b8152600401610bba9061425a565b33611b8f612421565b6001600160a01b031614611bb55760405162461bcd60e51b8152600401610bba906144f0565b6040516372d563ef60e01b8152600481018390526024810182905273836791688E0BA9b38eFA9ac1e080C8eea2f45f34906372d563ef90604401611270565b6040516301e62b0360e61b815260609073A8167a4a1FA273f13ea309749069BF4cD6F530439063798ac0c090611c309086908690600401614563565b60006040518083038186803b158015611c4857600080fd5b505af4158015611c5c573d6000803e3d6000fd5b505050506040513d6000823e601f3d908101601f19168201604052611c849190810190614776565b9392505050565b33611c94612421565b6001600160a01b031614611cba5760405162461bcd60e51b8152600401610bba906144f0565b604051633dac455560e11b8152600481018390526024810182905273Ed6B4b75fc3ee750D17e37F71d82f1b6a66AF9b590637b588aaa90604401611270565b600060026000541415611d1e5760405162461bcd60e51b8152600401610bba906141f9565b6002600055611d2b612ecf565b15611d485760405162461bcd60e51b8152600401610bba9061425a565b60005b8351811015611efe576000848281518110611d6857611d68614426565b6020026020010151905060008073836791688E0BA9b38eFA9ac1e080C8eea2f45f34636a23a95c84886040518363ffffffff1660e01b8152600401611db7929190918252602082015260400190565b60c06040518083038186803b158015611dcf57600080fd5b505af4158015611de3573d6000803e3d6000fd5b505050506040513d601f19601f82011682018060405250810190611e0791906148a5565b6040516397fe451560e01b815291935091507370925C28f25ACa0bd57360582CCd3d85787c4ff2906397fe451590611e4a9086908a9060009088906004016148da565b60006040518083038186803b158015611e6257600080fd5b505af4158015611e76573d6000803e3d6000fd5b50506040516397fe451560e01b81527370925C28f25ACa0bd57360582CCd3d85787c4ff292506397fe45159150611eb89086908a9060019087906004016148da565b60006040518083038186803b158015611ed057600080fd5b505af4158015611ee4573d6000803e3d6000fd5b505050505050508080611ef6906144d5565b915050611d4b565b5060019050600160005592915050565b600060026000541415611f335760405162461bcd60e51b8152600401610bba906141f9565b6002600055611f40612ecf565b611f7d5760405162461bcd60e51b815260206004820152600e60248201526d139bdd081d195c9b5a5b985d195960921b6044820152606401610bba565b6040516304b4274f60e21b815233600482015273A8167a4a1FA273f13ea309749069BF4cD6F53043906312d09d3c9060240160006040518083038186803b158015611fc757600080fd5b505af4158015611fdb573d6000803e3d6000fd5b5050505060019050600160005590565b60405163104d68fd60e31b81526001600160a01b038216600482015260009073A8167a4a1FA273f13ea309749069BF4cD6F530439063826b47e8906024015b60006040518083038186803b15801561204257600080fd5b505af4158015612056573d6000803e3d6000fd5b50600195945050505050565b600061206c613764565b60008481526006919091016020526040812090612087613764565b600095865260070160209081526040808720958752948152848620546001600160a01b039081168352908201929092529092019092205416919050565b60006120ce612ecf565b80156120ff57506120dd613764565b6001600160a01b0383166000908152600d91909101602052604090205460ff16155b92915050565b600061210f613764565b600092835260080160205250604090205490565b600061212d613764565b600093845260070160209081526040808520938552929052509020546001600160a01b031690565b600260005414156121785760405162461bcd60e51b8152600401610bba906141f9565b600260009081558190612189613764565b60008381526005919091016020526040902054116122025760405162461bcd60e51b815260206004820152603060248201527f4e6f206c656e64696e67206d61726b65747320657869737420666f722061207360448201526f706563696669632063757272656e637960801b6064820152608401610bba565b61220a612ecf565b156122275760405162461bcd60e51b8152600401610bba9061425a565b600073836791688E0BA9b38eFA9ac1e080C8eea2f45f3463a3d54d8c846122798660009081527ffd57fda692f2d6ebd63634bcff565f4a5bd9da5175c220bd0ae0da0b8f69d318602052604090205490565b6040516001600160e01b031960e085901b1681526004810192909252602482015260440160206040518083038186803b1580156122b557600080fd5b505af41580156122c9573d6000803e3d6000fd5b505050506040513d601f19601f820116820180604052508101906122ed9190614709565b905073A8167a4a1FA273f13ea309749069BF4cD6F5304363300074c984836123136138a3565b6040518463ffffffff1660e01b815260040161233193929190614286565b60206040518083038186803b15801561234957600080fd5b505af415801561235d573d6000803e3d6000fd5b505050506040513d601f19601f820116820180604052508101906123819190614709565b505060016000555050565b33612395612421565b6001600160a01b0316146123bb5760405162461bcd60e51b8152600401610bba906144f0565b604051638c197d8d60e01b81526004810182905273Ed6B4b75fc3ee750D17e37F71d82f1b6a66AF9b590638c197d8d9060240160006040518083038186803b15801561240657600080fd5b505af415801561241a573d6000803e3d6000fd5b5050505050565b60007f9acda75aebd150dd434541a4747a6dc606f4f1a59662477e67daf1fc0bf9e0aa610cce565b604051639519832b60e01b8152600481018390526001600160a01b038216602482015260009073A8167a4a1FA273f13ea309749069BF4cD6F5304390639519832b9060440160206040518083038186803b1580156124a657600080fd5b505af41580156124ba573d6000803e3d6000fd5b505050506040513d601f19601f82011682018060405250810190611c849190614709565b606080606060006124ed613764565b6000888152600791909101602090815260408083208984529091529081902054905163d866d35560e01b8152600481018790526001600160a01b039091169150819063d866d35590602401610d38565b60606000612549613764565b600084815260059190910160205260409020546001600160401b0381111561257357612573613d7b565b60405190808252806020026020018201604052801561259c578160200160208202803683370190505b50905060005b6125aa613764565b6000858152600591909101602052604090205481101561192c5760006125ce613764565b600501600086815260200190815260200160002082815481106125f3576125f3614426565b600091825260209182902001546040805163e16695b560e01b815290516001600160a01b039092169350839263e16695b592600480840193829003018186803b15801561263f57600080fd5b505afa158015612653573d6000803e3d6000fd5b505050506040513d601f19601f820116820180604052508101906126779190614709565b83838151811061268957612689614426565b6020908102919091010152508061269f816144d5565b9150506125a2565b6000806126b2613764565b6001600160a01b03841660009081526009919091016020526040812091505b6126da826138ad565b81101561282b5760006126ed83836138b7565b9050600073A8167a4a1FA273f13ea309749069BF4cD6F53043634ad23880836000896040518463ffffffff1660e01b815260040161272d93929190614286565b6101206040518083038186803b15801561274657600080fd5b505af415801561275a573d6000803e3d6000fd5b505050506040513d601f19601f8201168201806040525081019061277e91906143ab565b5190506127896138c3565b604051633c7f634960e11b815260048101849052602481018390526001600160a01b0391909116906378fec6929060440160206040518083038186803b1580156127d257600080fd5b505afa1580156127e6573d6000803e3d6000fd5b505050506040513d601f19601f8201168201806040525081019061280a9190614709565b6128149086614922565b945050508080612823906144d5565b9150506126d1565b5050919050565b600061283c612ecf565b156128595760405162461bcd60e51b8152600401610bba9061425a565b33612862612421565b6001600160a01b0316146128885760405162461bcd60e51b8152600401610bba906144f0565b604051630b3cb84560e41b81526004810183905273836791688E0BA9b38eFA9ac1e080C8eea2f45f349063b3cb84509060240161202a565b919050565b600260005414156128e85760405162461bcd60e51b8152600401610bba906141f9565b60026000556128f5612ecf565b156129125760405162461bcd60e51b8152600401610bba9061425a565b3361291b612421565b6001600160a01b0316146129415760405162461bcd60e51b8152600401610bba906144f0565b73836791688E0BA9b38eFA9ac1e080C8eea2f45f3463b8f117cd6040518163ffffffff1660e01b815260040160006040518083038186803b15801561298557600080fd5b505af4158015612381573d6000803e3d6000fd5b606060006129a5613764565b600084815260059190910160205260409020546001600160401b038111156129cf576129cf613d7b565b6040519080825280602002602001820160405280156129f8578160200160208202803683370190505b50905060005b612a06613764565b6000858152600591909101602052604090205481101561192c576000612a2a613764565b60050160008681526020019081526020016000208281548110612a4f57612a4f614426565b60009182526020918290200154604080516371613c2d60e01b815290516001600160a01b03909216935083926371613c2d92600480840193829003018186803b158015612a9b57600080fd5b505afa158015612aaf573d6000803e3d6000fd5b505050506040513d601f19601f82011682018060405250810190612ad39190614709565b838381518110612ae557612ae5614426565b60209081029190910101525080612afb816144d5565b9150506129fe565b600060026000541415612b285760405162461bcd60e51b8152600401610bba906141f9565b6002600090815586908690612b3b613764565b6000848152600791909101602090815260408083208584529091529020546001600160a01b03161415612b805760405162461bcd60e51b8152600401610bba90614230565b612b88612ecf565b15612ba55760405162461bcd60e51b8152600401610bba9061425a565b612bad61380b565b6040516396994e3760e01b8152336004820152602481018a9052604481018790526001600160a01b0391909116906396994e379034906064016000604051808303818588803b158015612bff57600080fd5b505af1158015612c13573d6000803e3d6000fd5b50506040516317992e1960e01b81527370925C28f25ACa0bd57360582CCd3d85787c4ff293506317992e19925061159a91508b908b9033908c908c908c90600401614525565b6000333014612dc4576001546201000090046001600160a01b031615612c92576040516337affdbf60e11b815260040160405180910390fd5b6001805462010000600160b01b03191633620100000217905583836000612cb7613764565b6000848152600791909101602090815260408083208584529091529020546001600160a01b03161415612cfc5760405162461bcd60e51b8152600401610bba90614230565b612d04612ecf565b15612d215760405162461bcd60e51b8152600401610bba9061425a565b604051635436151f60e11b81523360048201526001600160a01b038516602482015260448101889052606481018790526084810186905273A8167a4a1FA273f13ea309749069BF4cD6F530439063a86c2a3e9060a40160006040518083038186803b158015612d8f57600080fd5b505af4158015612da3573d6000803e3d6000fd5b505050506001925050506001805462010000600160b01b0319169055612ec7565b83836000612dd0613764565b6000848152600791909101602090815260408083208584529091529020546001600160a01b03161415612e155760405162461bcd60e51b8152600401610bba90614230565b612e1d612ecf565b15612e3a5760405162461bcd60e51b8152600401610bba9061425a565b604051635436151f60e11b81523360048201526001600160a01b038516602482015260448101889052606481018790526084810186905273A8167a4a1FA273f13ea309749069BF4cD6F530439063a86c2a3e9060a40160006040518083038186803b158015612ea857600080fd5b505af4158015612ebc573d6000803e3d6000fd5b505050506001925050505b949350505050565b600080612eda613764565b6002015411905090565b6040805160018082528183019092526060916020808301908036833701905050905069151bdad95b95985d5b1d60b21b8160008151811061143557611435614426565b6000612f31612ecf565b15612f4e5760405162461bcd60e51b8152600401610bba9061425a565b33612f57612421565b6001600160a01b031614612f7d5760405162461bcd60e51b8152600401610bba906144f0565b604051631d33a0a760e31b81526004810183905273836791688E0BA9b38eFA9ac1e080C8eea2f45f349063e99d05389060240161202a565b33612fbe612421565b6001600160a01b031614612fe45760405162461bcd60e51b8152600401610bba906144f0565b600084116130345760405162461bcd60e51b815260206004820152601760248201527f496e76616c696420636f6d706f756e6420666163746f720000000000000000006044820152606401610bba565b61303d866111e6565b156130805760405162461bcd60e51b8152602060048201526013602482015272105b1c9958591e481a5b9a5d1a585b1a5e9959606a1b6044820152606401610bba565b60405163d3f43b7960e01b815260048101879052602481018690526044810185905273836791688E0BA9b38eFA9ac1e080C8eea2f45f349063d3f43b799060640160006040518083038186803b1580156130d957600080fd5b505af41580156130ed573d6000803e3d6000fd5b505050506130fb8684611a1e565b6131058683611206565b61129c8682611c8b565b6060600061311b613764565b600084815260059190910160205260409020546001600160401b0381111561314557613145613d7b565b60405190808252806020026020018201604052801561316e578160200160208202803683370190505b50905060005b61317c613764565b6000858152600591909101602052604090205481101561192c5760006131a0613764565b600501600086815260200190815260200160002082815481106131c5576131c5614426565b6000918252602091829020015460408051632f05aa6d60e11b815290516001600160a01b0390921693508392635e0b54da92600480840193829003018186803b15801561321157600080fd5b505afa158015613225573d6000803e3d6000fd5b505050506040513d601f19601f820116820180604052508101906132499190614709565b83838151811061325b5761325b614426565b60209081029190910101525080613271816144d5565b915050613174565b600154610100900460ff161580801561329657506001805460ff16105b806132af5750303b1580156132af57506001805460ff16145b6133125760405162461bcd60e51b815260206004820152602e60248201527f496e697469616c697a61626c653a20636f6e747261637420697320616c72656160448201526d191e481a5b9a5d1a585b1a5e995960921b6064820152608401610bba565b6001805460ff1916811790558015613334576001805461ff0019166101001790555b600061333e6138cd565b6001600160a01b031614156133a05760405162461bcd60e51b815260206004820152602260248201527f4d7573742062652063616c6c65642066726f6d2070726f787920636f6e74726160448201526118dd60f21b6064820152608401610bba565b826133a9613764565b600101556133b785836138f5565b6133c084613936565b801561241a576001805461ff00191681556040519081527f7f26b83ff96e1f2b6a682f133852f6798a09c465da95921460cefb38474024989060200160405180910390a15050505050565b6000600260005414156134305760405162461bcd60e51b8152600401610bba906141f9565b6002600090815586908690613443613764565b6000848152600791909101602090815260408083208584529091529020546001600160a01b031614156134885760405162461bcd60e51b8152600401610bba90614230565b613490612ecf565b156134ad5760405162461bcd60e51b8152600401610bba9061425a565b6040516317992e1960e01b81527370925C28f25ACa0bd57360582CCd3d85787c4ff2906317992e199061159a908b908b9033908c908c908c90600401614525565b336134f7612421565b6001600160a01b03161461351d5760405162461bcd60e51b8152600401610bba906144f0565b6001600160a01b0381166135825760405162461bcd60e51b815260206004820152602660248201527f4f776e61626c653a206e6577206f776e657220697320746865207a65726f206160448201526564647265737360d01b6064820152608401610bba565b61107d81613832565b6000600260005414156135b05760405162461bcd60e51b8152600401610bba906141f9565b60026000908155869086906135c3613764565b6000848152600791909101602090815260408083208584529091529020546001600160a01b031614156136085760405162461bcd60e51b8152600401610bba90614230565b613610612ecf565b1561362d5760405162461bcd60e51b8152600401610bba9061425a565b60405163102cdc6b60e11b81527370925C28f25ACa0bd57360582CCd3d85787c4ff290632059b8d69061159a908b908b9033908c908c908c90600401614525565b60606120ff61367b613764565b6001600160a01b0384166000908152600991909101602052604090206139cb565b604051637ea2c27360e11b81526001600160a01b03841660048201526024810183905260448101829052600090819081908190819081908190819073A8167a4a1FA273f13ea309749069BF4cD6F530439063fd4584e6906064016101006040518083038186803b15801561370f57600080fd5b505af4158015613723573d6000803e3d6000fd5b505050506040513d601f19601f820116820180604052508101906137479190614963565b975097509750975097509750975097509397509397509397509397565b7f8041b8421ebd495cc61f38c788c9eb100daccf9bd36aa0bb920b7a15b2e0496590565b6137906138c3565b6001600160a01b031663ecd8d2fb6040518163ffffffff1660e01b815260040160206040518083038186803b1580156137c857600080fd5b505afa1580156137dc573d6000803e3d6000fd5b505050506040513d601f19601f820116820180604052508101906138009190614709565b613808613764565b55565b60006138156139d6565b905090565b60008181526001830160205260408120541515611c84565b7f9acda75aebd150dd434541a4747a6dc606f4f1a59662477e67daf1fc0bf9e0aa80546001600160a01b038381166001600160a01b0319831681179093556040519116919082907f8be0079c531659141344cd1fd0a4f28419497f9722a3daafe3b4186f6b6457e090600090a35050565b60006138156139ee565b60006120ff825490565b6000611c848383613a07565b6000613815613a31565b60007f360894a13ba1a3210667c828492db98dca3e2076cc3735a920a3ca505d382bbc610cce565b6138fe82613832565b604051638c197d8d60e01b81526004810182905273Ed6B4b75fc3ee750D17e37F71d82f1b6a66AF9b590638c197d8d90602401611270565b6000805160206149dd833981519152546001600160a01b03161561399c5760405162461bcd60e51b815260206004820152601b60248201527f5265736f6c766572207265676973746572656420616c726561647900000000006044820152606401610bba565b6000805160206149dd83398151915280546001600160a01b0319166001600160a01b0392909216919091179055565b60606120ff82613a51565b600061381569151bdad95b95985d5b1d60b21b613aac565b60006138156a14995cd95c9d99519d5b9960aa1b613aac565b6000826000018281548110613a1e57613a1e614426565b9060005260206000200154905092915050565b60006138157121bab93932b731bca1b7b73a3937b63632b960711b613aac565b60608160000180548060200260200160405190810160405280929190818152602001828054801561131657602002820191906000526020600020905b815481526020019060010190808311613a8d5750505050509050919050565b60008181527f4abde63c3e81aefa5764b017968bc473e83e093d7e1a10247d19e0a3e41240196020908152604080832054815170026b4b9b9b4b7339030b2323932b9b99d1607d1b9381019390935260318084018690528251808503909101815260519093019091526001600160a01b0316908161192c5760405162461bcd60e51b8152600401610bba91906149c9565b60008060408385031215613b5057600080fd5b50508035926020909101359150565b600060208284031215613b7157600080fd5b5035919050565b600080600060608486031215613b8d57600080fd5b505081359360208301359350604090920135919050565b600081518084526020808501945080840160005b83811015613bd457815187529582019590820190600101613bb8565b509495945050505050565b606081526000613bf26060830186613ba4565b8281036020840152613c048186613ba4565b90508281036040840152613c188185613ba4565b9695505050505050565b6001600160a01b038116811461107d57600080fd5b600080600060608486031215613c4c57600080fd5b83359250602084013591506040840135613c6581613c22565b809150509250925092565b60008060408385031215613c8357600080fd5b823591506020830135613c9581613c22565b809150509250929050565b6020808252825182820181905260009190848201906040850190845b81811015613ce15783516001600160a01b031683529284019291840191600101613cbc565b50909695505050505050565b6020808252825182820181905260009190848201906040850190845b81811015613ce157835183529284019291840191600101613d09565b6002811061107d57600080fd5b600080600080600060a08688031215613d4a57600080fd5b85359450602086013593506040860135613d6381613d25565b94979396509394606081013594506080013592915050565b634e487b7160e01b600052604160045260246000fd5b60405161012081016001600160401b0381118282101715613db457613db4613d7b565b60405290565b60405161010081016001600160401b0381118282101715613db457613db4613d7b565b604051608081016001600160401b0381118282101715613db457613db4613d7b565b604051601f8201601f191681016001600160401b0381118282101715613e2757613e27613d7b565b604052919050565b60006001600160401b03821115613e4857613e48613d7b565b5060051b60200190565b600082601f830112613e6357600080fd5b81356020613e78613e7383613e2f565b613dff565b82815260059290921b84018101918181019086841115613e9757600080fd5b8286015b84811015613eb25780358352918301918301613e9b565b509695505050505050565b60008060408385031215613ed057600080fd5b82356001600160401b03811115613ee657600080fd5b613ef285828601613e52565b9250506020830135613c9581613c22565b60028110613f2157634e487b7160e01b600052602160045260246000fd5b9052565b600081518084526020808501945080840160005b83811015613bd4578151805165ffffffffffff168852838101518489015260408082015190890152606080820151613f73828b0182613f03565b50506080818101519089015260a0808201519089015260c0808201519089015260e0908101511515908801526101009096019590820190600101613f39565b604081526000613fc56040830185613f25565b8281036020840152613fd78185613f25565b95945050505050565b65ffffffffffff8116811461107d57600080fd5b60008060006060848603121561400957600080fd5b83359250602084013591506040840135613c6581613fe0565b602081526000611c846020830184613ba4565b602080825282518282018190526000919060409081850190868401855b8281101561408c57815180518552868101518786015285810151868601526060908101519085015260809093019290850190600101614052565b5091979650505050505050565b600080604083850312156140ac57600080fd5b82356001600160401b038111156140c257600080fd5b6140ce85828601613e52565b95602094909401359450505050565b6000602082840312156140ef57600080fd5b8135611c8481613c22565b6000806000806080858703121561411057600080fd5b843593506020850135925060408501359150606085013561413081613c22565b939692955090935050565b60008060008060008060c0878903121561415457600080fd5b505084359660208601359650604086013595606081013595506080810135945060a0013592509050565b6000806000806080858703121561419457600080fd5b843561419f81613c22565b935060208501356141af81613c22565b93969395505050506040820135916060013590565b6000806000606084860312156141d957600080fd5b83356141e481613c22565b95602085013595506040909401359392505050565b6020808252601f908201527f5265656e7472616e637947756172643a207265656e7472616e742063616c6c00604082015260600190565b60208082526010908201526f496e76616c6964206d6174757269747960801b604082015260600190565b602080825260129082015271105b1c9958591e481d195c9b5a5b985d195960721b604082015260600190565b92835260208301919091526001600160a01b0316604082015260600190565b600082601f8301126142b657600080fd5b815160206142c6613e7383613e2f565b82815260059290921b840181019181810190868411156142e557600080fd5b8286015b84811015613eb257805183529183019183016142e9565b60008060006060848603121561431557600080fd5b83516001600160401b038082111561432c57600080fd5b614338878388016142a5565b9450602086015191508082111561434e57600080fd5b61435a878388016142a5565b9350604086015191508082111561437057600080fd5b5061437d868287016142a5565b9150509250925092565b6000806040838503121561439a57600080fd5b505080516020909101519092909150565b600061012082840312156143be57600080fd5b6143c6613d91565b825181526020830151602082015260408301516040820152606083015160608201526080830151608082015260a083015160a082015260c083015160c082015260e083015160e08201526101008084015181830152508091505092915050565b634e487b7160e01b600052603260045260246000fd5b6000815180845260005b8181101561446257602081850181015186830182015201614446565b81811115614474576000602083870101525b50601f01601f19169290920160200192915050565b828152604060208201526000612ec7604083018461443c565b6000602082840312156144b457600080fd5b8151611c8481613c22565b634e487b7160e01b600052601160045260246000fd5b60006000198214156144e9576144e96144bf565b5060010190565b6020808252818101527f4f776e61626c653a2063616c6c6572206973206e6f7420746865206f776e6572604082015260600190565b868152602081018690526001600160a01b038516604082015260c0810161454f6060830186613f03565b608082019390935260a00152949350505050565b604080825283519082018190526000906020906060840190828701845b8281101561459c57815184529284019290840190600101614580565b5050506001600160a01b039490941692019190915250919050565b80516128c081613d25565b805180151581146128c057600080fd5b600082601f8301126145e357600080fd5b815160206145f3613e7383613e2f565b82815260089290921b8401810191818101908684111561461257600080fd5b8286015b84811015613eb25761010081890312156146305760008081fd5b614638613dba565b815161464381613fe0565b815281850151858201526040808301519082015260606146648184016145b7565b908201526080828101519082015260a0808301519082015260c0808301519082015260e06146938184016145c2565b9082015283529183019161010001614616565b600080604083850312156146b957600080fd5b82516001600160401b03808211156146d057600080fd5b6146dc868387016145d2565b935060208501519150808211156146f257600080fd5b506146ff858286016145d2565b9150509250929050565b60006020828403121561471b57600080fd5b5051919050565b600080600080600080600060e0888a03121561473d57600080fd5b5050855160208701516040880151606089015160808a015160a08b015160c0909b0151949c939b50919990985090965094509092509050565b6000602080838503121561478957600080fd5b82516001600160401b0381111561479f57600080fd5b8301601f810185136147b057600080fd5b80516147be613e7382613e2f565b81815260079190911b820183019083810190878311156147dd57600080fd5b928401925b8284101561483457608084890312156147fb5760008081fd5b614803613ddd565b84518152858501518682015260408086015190820152606080860151908201528252608090930192908401906147e2565b979650505050505050565b60006060828403121561485157600080fd5b604051606081018181106001600160401b038211171561487357614873613d7b565b8060405250809150825161488681613c22565b8082525060208301516020820152604083015160408201525092915050565b60008060c083850312156148b857600080fd5b6148c2848461483f565b91506148d1846060850161483f565b90509250929050565b8481526020810184905260c081016148f56040830185613f03565b82516001600160a01b031660608301526020830151608083015260409092015160a0909101529392505050565b600080821280156001600160ff1b0384900385131615614944576149446144bf565b600160ff1b839003841281161561495d5761495d6144bf565b50500190565b600080600080600080600080610100898b03121561498057600080fd5b885197506020890151965060408901519550606089015194506080890151935060a0890151925060c089015191506149ba60e08a016145c2565b90509295985092959890939650565b602081526000611c84602083018461443c56fe4abde63c3e81aefa5764b017968bc473e83e093d7e1a10247d19e0a3e4124018a26469706673582212207ee4c01b2b31380072578b012e1aabacd65ac5afdcd368a432d879c00c7b30e564736f6c63430008090033",
  "deployedBytecode": "0x60806040526004361061036b5760003560e01c8063862fd6e5116101c6578063c11333b1116100f7578063eb990c5911610095578063f2fde38b1161006f578063f2fde38b14610ad8578063faca409b14610af8578063fc70081014610b18578063fd4584e614610b3857600080fd5b8063eb990c5914610a64578063ebb9141614610a84578063f1eaebae14610aa457600080fd5b8063e0997659116100d1578063e0997659146109ef578063e99d053814610a04578063ea57481714610a24578063eb092a2614610a4457600080fd5b8063c11333b11461096e578063cb9d74011461098e578063d1cc9976146109da57600080fd5b8063953dbcaa11610164578063b3cb84501161013e578063b3cb845014610906578063b8f117cd14610926578063bfd10cf61461093b578063bfe61a281461095b57600080fd5b8063953dbcaa146108a6578063a02be3dc146108c6578063a4c66bde146108e657600080fd5b80638b36d833116101a05780638b36d833146108315780638c197d8d146108515780638da5cb5b146108715780639519832b1461088657600080fd5b8063862fd6e5146107d1578063891d5965146107f15780638a9817451461081157600080fd5b806349f2ccbf116102a057806372d563ef1161023e5780637c63039d116102185780637c63039d1461075c5780637deb671e1461077c578063826b47e81461079157806385323e1a146107b157600080fd5b806372d563ef146106ef578063798ac0c01461070f5780637b588aaa1461073c57600080fd5b80635c3477651161027a5780635c347765146106455780635ca65d571461069a57806370c641a6146106ba578063715018a6146106da57600080fd5b806349f2ccbf146105ac5780634e78fecc146105cc57806355aceb4e1461061857600080fd5b80632af64bd31161030d578063381ada1f116102e7578063381ada1f1461051c5780633d03b9da14610549578063448255c71461056b578063482f267a1461057e57600080fd5b80632af64bd3146104c75780632e6c5e67146104dc5780632f749574146104fc57600080fd5b80630594de6e116103495780630594de6e1461042c578063062ea2941461045b57806317b72ff41461049057806329985e5a146104b057600080fd5b806301cf22351461037057806303e5fb59146103a557806304f3bcec146103ff575b600080fd5b34801561037c57600080fd5b5061039061038b366004613b3d565b610b95565b60405190151581526020015b60405180910390f35b3480156103b157600080fd5b506103f16103c0366004613b5f565b60009081527ffd57fda692f2d6ebd63634bcff565f4a5bd9da5175c220bd0ae0da0b8f69d317602052604090205490565b60405190815260200161039c565b34801561040b57600080fd5b50610414610cbc565b6040516001600160a01b03909116815260200161039c565b34801561043857600080fd5b5061044c610447366004613b78565b610cdd565b60405161039c93929190613bdf565b34801561046757600080fd5b5061047b610476366004613c37565b610d9c565b6040805192835260208301919091520161039c565b34801561049c57600080fd5b506103f16104ab366004613c70565b610e35565b3480156104bc57600080fd5b506104c5610ecb565b005b3480156104d357600080fd5b50610390611080565b3480156104e857600080fd5b506103906104f7366004613b5f565b6111e6565b34801561050857600080fd5b506104c5610517366004613b3d565b611206565b34801561052857600080fd5b5061053c610537366004613b5f565b6112a4565b60405161039c9190613ca0565b34801561055557600080fd5b5061055e611322565b60405161039c9190613ced565b610390610579366004613d32565b611444565b34801561058a57600080fd5b5061059e610599366004613ebd565b6115de565b60405161039c929190613fb2565b3480156105b857600080fd5b506103906105c7366004613ff4565b611679565b3480156105d857600080fd5b506103f16105e7366004613b5f565b60009081527ffd57fda692f2d6ebd63634bcff565f4a5bd9da5175c220bd0ae0da0b8f69d319602052604090205490565b34801561062457600080fd5b50610638610633366004613b5f565b6117c2565b60405161039c9190614022565b34801561065157600080fd5b50610665610660366004613c70565b611933565b604080519788526020880196909652948601939093526060850191909152608084015260a083015260c082015260e00161039c565b3480156106a657600080fd5b506104c56106b5366004613b3d565b611a1e565b3480156106c657600080fd5b506103f16106d5366004613c70565b611a8c565b3480156106e657600080fd5b506104c5611b26565b3480156106fb57600080fd5b506104c561070a366004613b3d565b611b61565b34801561071b57600080fd5b5061072f61072a366004613ebd565b611bf4565b60405161039c9190614035565b34801561074857600080fd5b506104c5610757366004613b3d565b611c8b565b34801561076857600080fd5b50610390610777366004614099565b611cf9565b34801561078857600080fd5b50610390611f0e565b34801561079d57600080fd5b506103906107ac3660046140dd565b611feb565b3480156107bd57600080fd5b506104146107cc366004613b3d565b612062565b3480156107dd57600080fd5b506103906107ec3660046140dd565b6120c4565b3480156107fd57600080fd5b506103f161080c366004613b5f565b612105565b34801561081d57600080fd5b5061041461082c366004613b3d565b612123565b34801561083d57600080fd5b506104c561084c366004613b5f565b612155565b34801561085d57600080fd5b506104c561086c366004613b5f565b61238c565b34801561087d57600080fd5b50610414612421565b34801561089257600080fd5b506103f16108a1366004613c70565b612449565b3480156108b257600080fd5b5061044c6108c1366004613b78565b6124de565b3480156108d257600080fd5b506106386108e1366004613b5f565b61253d565b3480156108f257600080fd5b506103f16109013660046140dd565b6126a7565b34801561091257600080fd5b50610390610921366004613b5f565b612832565b34801561093257600080fd5b506104c56128c5565b34801561094757600080fd5b50610638610956366004613b5f565b612999565b610390610969366004613d32565b612b03565b34801561097a57600080fd5b506103906109893660046140fa565b612c59565b34801561099a57600080fd5b506103f16109a9366004613b5f565b60009081527ffd57fda692f2d6ebd63634bcff565f4a5bd9da5175c220bd0ae0da0b8f69d318602052604090205490565b3480156109e657600080fd5b50610390612ecf565b3480156109fb57600080fd5b5061055e612ee4565b348015610a1057600080fd5b50610390610a1f366004613b5f565b612f27565b348015610a3057600080fd5b506104c5610a3f36600461413b565b612fb5565b348015610a5057600080fd5b50610638610a5f366004613b5f565b61310f565b348015610a7057600080fd5b506104c5610a7f36600461417e565b613279565b348015610a9057600080fd5b50610390610a9f366004613d32565b61340b565b348015610ab057600080fd5b507ffd57fda692f2d6ebd63634bcff565f4a5bd9da5175c220bd0ae0da0b8f69d31a546103f1565b348015610ae457600080fd5b506104c5610af33660046140dd565b6134ee565b348015610b0457600080fd5b50610390610b13366004613d32565b61358b565b348015610b2457600080fd5b5061055e610b333660046140dd565b61366e565b348015610b4457600080fd5b50610b58610b533660046141c4565b61369c565b604080519889526020890197909752958701949094526060860192909252608085015260a084015260c0830152151560e08201526101000161039c565b600060026000541415610bc35760405162461bcd60e51b8152600401610bba906141f9565b60405180910390fd5b6002600090815583908390610bd6613764565b6000848152600791909101602090815260408083208584529091529020546001600160a01b03161415610c1b5760405162461bcd60e51b8152600401610bba90614230565b610c23612ecf565b15610c405760405162461bcd60e51b8152600401610bba9061425a565b604051632097fb8960e01b815273__$bfa1fc126f9f960b1bd3bae8c14d9c594e$__90632097fb8990610c7b90889088903390600401614286565b60006040518083038186803b158015610c9357600080fd5b505af4158015610ca7573d6000803e3d6000fd5b50505050600192505050600160005592915050565b60006000805160206149dd8339815191525b546001600160a01b0316919050565b60608060606000610cec613764565b600088815260079190910160209081526040808320898452909152908190205490516325fb168b60e11b8152600481018790526001600160a01b0390911691508190634bf62d16906024015b60006040518083038186803b158015610d5057600080fd5b505afa158015610d64573d6000803e3d6000fd5b505050506040513d6000823e601f3d908101601f19168201604052610d8c9190810190614300565b9350935093505093509350939050565b60008073__$e7d72ce98f1dce1f33c815a57604cff5ab$__63062ea2948686866040518463ffffffff1660e01b8152600401610dda93929190614286565b604080518083038186803b158015610df157600080fd5b505af4158015610e05573d6000803e3d6000fd5b505050506040513d601f19601f82011682018060405250810190610e299190614387565b90969095509350505050565b6040516295a47160e71b815260009073__$e7d72ce98f1dce1f33c815a57604cff5ab$__90634ad2388090610e7290869085908790600401614286565b6101206040518083038186803b158015610e8b57600080fd5b505af4158015610e9f573d6000803e3d6000fd5b505050506040513d601f19601f82011682018060405250810190610ec391906143ab565b519392505050565b6000610ed5611322565b905060005b8151811015611074576000828281518110610ef757610ef7614426565b602002602001015190506000610f186000805160206149dd83398151915290565b54604080517f5265736f6c766572206d697373696e67207461726765743a200000000000000060208201526039808201869052825180830390910181526059820192839052636795dbcd60e01b9092526001600160a01b0390921691636795dbcd91610f8991869190605d01614489565b60206040518083038186803b158015610fa157600080fd5b505afa158015610fb5573d6000803e3d6000fd5b505050506040513d601f19601f82011682018060405250810190610fd991906144a2565b60008381527f4abde63c3e81aefa5764b017968bc473e83e093d7e1a10247d19e0a3e4124019602090815260409182902080546001600160a01b0319166001600160a01b03851690811790915582518681529182015281519293507f88a93678a3692f6789d9546fc621bf7234b101ddb7d4fe479455112831b8aa68929081900390910190a15050808061106c906144d5565b915050610eda565b5061107d613788565b50565b60008061108b611322565b905060005b81518110156111dd5760008282815181106110ad576110ad614426565b602002602001015190506110cc6000805160206149dd83398151915290565b600082815260019190910160205260409020546001600160a01b03166000805160206149dd833981519152546040516321f8a72160e01b8152600481018490526001600160a01b03909116906321f8a7219060240160206040518083038186803b15801561113957600080fd5b505afa15801561114d573d6000803e3d6000fd5b505050506040513d601f19601f8201168201806040525081019061117191906144a2565b6001600160a01b03161415806111bb575060008181527f4abde63c3e81aefa5764b017968bc473e83e093d7e1a10247d19e0a3e412401960205260409020546001600160a01b0316155b156111ca576000935050505090565b50806111d5816144d5565b915050611090565b50600191505090565b60006111f0613764565b6000928352600801602052506040902054151590565b3361120f612421565b6001600160a01b0316146112355760405162461bcd60e51b8152600401610bba906144f0565b604051630bdd255d60e21b8152600481018390526024810182905273__$e049441b2d898ade92927f540debd09cf4$__90632f749574906044015b60006040518083038186803b15801561128857600080fd5b505af415801561129c573d6000803e3d6000fd5b505050505050565b60606112ae613764565b600501600083815260200190815260200160002080548060200260200160405190810160405280929190818152602001828054801561131657602002820191906000526020600020905b81546001600160a01b031681526001909101906020018083116112f8575b50505050509050919050565b60408051600580825260c082019092526060916020820160a080368337019050509050742132b0b1b7b7283937bc3ca1b7b73a3937b63632b960591b8160008151811061137157611371614426565b6020026020010181815250507121bab93932b731bca1b7b73a3937b63632b960711b816001815181106113a6576113a6614426565b6020026020010181815250507011d95b995cda5cd5985b1d5955985d5b1d607a1b816002815181106113da576113da614426565b6020026020010181815250506a14995cd95c9d99519d5b9960aa1b8160038151811061140857611408614426565b60200260200101818152505069151bdad95b95985d5b1d60b21b8160048151811061143557611435614426565b60200260200101818152505090565b6000600260005414156114695760405162461bcd60e51b8152600401610bba906141f9565b600260009081558690869061147c613764565b6000848152600791909101602090815260408083208584529091529020546001600160a01b031614156114c15760405162461bcd60e51b8152600401610bba90614230565b6114c9612ecf565b156114e65760405162461bcd60e51b8152600401610bba9061425a565b6114ee61380b565b6040516396994e3760e01b8152336004820152602481018a9052604481018790526001600160a01b0391909116906396994e379034906064016000604051808303818588803b15801561154057600080fd5b505af1158015611554573d6000803e3d6000fd5b505060405163102cdc6b60e11b815273__$bfa1fc126f9f960b1bd3bae8c14d9c594e$__9350632059b8d6925061159a91508b908b9033908c908c908c90600401614525565b60006040518083038186803b1580156115b257600080fd5b505af41580156115c6573d6000803e3d6000fd5b50505050600192505050600160005595945050505050565b60608073__$bfa1fc126f9f960b1bd3bae8c14d9c594e$__63482f267a85856040518363ffffffff1660e01b815260040161161a929190614563565b60006040518083038186803b15801561163257600080fd5b505af4158015611646573d6000803e3d6000fd5b505050506040513d6000823e601f3d908101601f1916820160405261166e91908101906146a6565b909590945092505050565b60006002600054141561169e5760405162461bcd60e51b8152600401610bba906141f9565b60026000908155849084906116b1613764565b6000848152600791909101602090815260408083208584529091529020546001600160a01b031614156116f65760405162461bcd60e51b8152600401610bba90614230565b6116fe612ecf565b1561171b5760405162461bcd60e51b8152600401610bba9061425a565b6000611725613764565b6000888152600791909101602090815260408083208984529091529081902054905163504b89bd60e01b815233600482015265ffffffffffff871660248201526001600160a01b039091169150819063504b89bd90604401600060405180830381600087803b15801561179757600080fd5b505af11580156117ab573d6000803e3d6000fd5b505050506001935050505060016000559392505050565b606060006117ce613764565b600084815260059190910160205260409020546001600160401b038111156117f8576117f8613d7b565b604051908082528060200260200182016040528015611821578160200160208202803683370190505b50905060005b61182f613764565b6000858152600591909101602052604090205481101561192c576000611853613764565b6005016000868152602001908152602001600020828154811061187857611878614426565b6000918252602091829020015460408051631b3508b760e01b815290516001600160a01b0390921693508392631b3508b792600480840193829003018186803b1580156118c457600080fd5b505afa1580156118d8573d6000803e3d6000fd5b505050506040513d601f19601f820116820180604052508101906118fc9190614709565b83838151811061190e5761190e614426565b60209081029190910101525080611924816144d5565b915050611827565b5092915050565b600080600080600080600061196c8961194a613764565b6001600160a01b038b166000908152600991909101602052604090209061381a565b15611a1257604051635c34776560e01b8152600481018a90526001600160a01b038916602482015273__$e7d72ce98f1dce1f33c815a57604cff5ab$__90635c3477659060440160e06040518083038186803b1580156119cb57600080fd5b505af41580156119df573d6000803e3d6000fd5b505050506040513d601f19601f82011682018060405250810190611a039190614722565b96509650965096509650965096505b92959891949750929550565b33611a27612421565b6001600160a01b031614611a4d5760405162461bcd60e51b8152600401610bba906144f0565b604051635ca65d5760e01b8152600481018390526024810182905273__$e049441b2d898ade92927f540debd09cf4$__90635ca65d5790604401611270565b6040516295a47160e71b815260009073__$e7d72ce98f1dce1f33c815a57604cff5ab$__90634ad2388090611ac990869085908790600401614286565b6101206040518083038186803b158015611ae257600080fd5b505af4158015611af6573d6000803e3d6000fd5b505050506040513d601f19601f82011682018060405250810190611b1a91906143ab565b61010001519392505050565b33611b2f612421565b6001600160a01b031614611b555760405162461bcd60e51b8152600401610bba906144f0565b611b5f6000613832565b565b611b69612ecf565b15611b865760405162461bcd60e51b8152600401610bba9061425a565b33611b8f612421565b6001600160a01b031614611bb55760405162461bcd60e51b8152600401610bba906144f0565b6040516372d563ef60e01b8152600481018390526024810182905273__$53b43b4bdeb2460d1113627ef627de0cf6$__906372d563ef90604401611270565b6040516301e62b0360e61b815260609073__$e7d72ce98f1dce1f33c815a57604cff5ab$__9063798ac0c090611c309086908690600401614563565b60006040518083038186803b158015611c4857600080fd5b505af4158015611c5c573d6000803e3d6000fd5b505050506040513d6000823e601f3d908101601f19168201604052611c849190810190614776565b9392505050565b33611c94612421565b6001600160a01b031614611cba5760405162461bcd60e51b8152600401610bba906144f0565b604051633dac455560e11b8152600481018390526024810182905273__$e049441b2d898ade92927f540debd09cf4$__90637b588aaa90604401611270565b600060026000541415611d1e5760405162461bcd60e51b8152600401610bba906141f9565b6002600055611d2b612ecf565b15611d485760405162461bcd60e51b8152600401610bba9061425a565b60005b8351811015611efe576000848281518110611d6857611d68614426565b6020026020010151905060008073__$53b43b4bdeb2460d1113627ef627de0cf6$__636a23a95c84886040518363ffffffff1660e01b8152600401611db7929190918252602082015260400190565b60c06040518083038186803b158015611dcf57600080fd5b505af4158015611de3573d6000803e3d6000fd5b505050506040513d601f19601f82011682018060405250810190611e0791906148a5565b6040516397fe451560e01b8152919350915073__$bfa1fc126f9f960b1bd3bae8c14d9c594e$__906397fe451590611e4a9086908a9060009088906004016148da565b60006040518083038186803b158015611e6257600080fd5b505af4158015611e76573d6000803e3d6000fd5b50506040516397fe451560e01b815273__$bfa1fc126f9f960b1bd3bae8c14d9c594e$__92506397fe45159150611eb89086908a9060019087906004016148da565b60006040518083038186803b158015611ed057600080fd5b505af4158015611ee4573d6000803e3d6000fd5b505050505050508080611ef6906144d5565b915050611d4b565b5060019050600160005592915050565b600060026000541415611f335760405162461bcd60e51b8152600401610bba906141f9565b6002600055611f40612ecf565b611f7d5760405162461bcd60e51b815260206004820152600e60248201526d139bdd081d195c9b5a5b985d195960921b6044820152606401610bba565b6040516304b4274f60e21b815233600482015273__$e7d72ce98f1dce1f33c815a57604cff5ab$__906312d09d3c9060240160006040518083038186803b158015611fc757600080fd5b505af4158015611fdb573d6000803e3d6000fd5b5050505060019050600160005590565b60405163104d68fd60e31b81526001600160a01b038216600482015260009073__$e7d72ce98f1dce1f33c815a57604cff5ab$__9063826b47e8906024015b60006040518083038186803b15801561204257600080fd5b505af4158015612056573d6000803e3d6000fd5b50600195945050505050565b600061206c613764565b60008481526006919091016020526040812090612087613764565b600095865260070160209081526040808720958752948152848620546001600160a01b039081168352908201929092529092019092205416919050565b60006120ce612ecf565b80156120ff57506120dd613764565b6001600160a01b0383166000908152600d91909101602052604090205460ff16155b92915050565b600061210f613764565b600092835260080160205250604090205490565b600061212d613764565b600093845260070160209081526040808520938552929052509020546001600160a01b031690565b600260005414156121785760405162461bcd60e51b8152600401610bba906141f9565b600260009081558190612189613764565b60008381526005919091016020526040902054116122025760405162461bcd60e51b815260206004820152603060248201527f4e6f206c656e64696e67206d61726b65747320657869737420666f722061207360448201526f706563696669632063757272656e637960801b6064820152608401610bba565b61220a612ecf565b156122275760405162461bcd60e51b8152600401610bba9061425a565b600073__$53b43b4bdeb2460d1113627ef627de0cf6$__63a3d54d8c846122798660009081527ffd57fda692f2d6ebd63634bcff565f4a5bd9da5175c220bd0ae0da0b8f69d318602052604090205490565b6040516001600160e01b031960e085901b1681526004810192909252602482015260440160206040518083038186803b1580156122b557600080fd5b505af41580156122c9573d6000803e3d6000fd5b505050506040513d601f19601f820116820180604052508101906122ed9190614709565b905073__$e7d72ce98f1dce1f33c815a57604cff5ab$__63300074c984836123136138a3565b6040518463ffffffff1660e01b815260040161233193929190614286565b60206040518083038186803b15801561234957600080fd5b505af415801561235d573d6000803e3d6000fd5b505050506040513d601f19601f820116820180604052508101906123819190614709565b505060016000555050565b33612395612421565b6001600160a01b0316146123bb5760405162461bcd60e51b8152600401610bba906144f0565b604051638c197d8d60e01b81526004810182905273__$e049441b2d898ade92927f540debd09cf4$__90638c197d8d9060240160006040518083038186803b15801561240657600080fd5b505af415801561241a573d6000803e3d6000fd5b5050505050565b60007f9acda75aebd150dd434541a4747a6dc606f4f1a59662477e67daf1fc0bf9e0aa610cce565b604051639519832b60e01b8152600481018390526001600160a01b038216602482015260009073__$e7d72ce98f1dce1f33c815a57604cff5ab$__90639519832b9060440160206040518083038186803b1580156124a657600080fd5b505af41580156124ba573d6000803e3d6000fd5b505050506040513d601f19601f82011682018060405250810190611c849190614709565b606080606060006124ed613764565b6000888152600791909101602090815260408083208984529091529081902054905163d866d35560e01b8152600481018790526001600160a01b039091169150819063d866d35590602401610d38565b60606000612549613764565b600084815260059190910160205260409020546001600160401b0381111561257357612573613d7b565b60405190808252806020026020018201604052801561259c578160200160208202803683370190505b50905060005b6125aa613764565b6000858152600591909101602052604090205481101561192c5760006125ce613764565b600501600086815260200190815260200160002082815481106125f3576125f3614426565b600091825260209182902001546040805163e16695b560e01b815290516001600160a01b039092169350839263e16695b592600480840193829003018186803b15801561263f57600080fd5b505afa158015612653573d6000803e3d6000fd5b505050506040513d601f19601f820116820180604052508101906126779190614709565b83838151811061268957612689614426565b6020908102919091010152508061269f816144d5565b9150506125a2565b6000806126b2613764565b6001600160a01b03841660009081526009919091016020526040812091505b6126da826138ad565b81101561282b5760006126ed83836138b7565b9050600073__$e7d72ce98f1dce1f33c815a57604cff5ab$__634ad23880836000896040518463ffffffff1660e01b815260040161272d93929190614286565b6101206040518083038186803b15801561274657600080fd5b505af415801561275a573d6000803e3d6000fd5b505050506040513d601f19601f8201168201806040525081019061277e91906143ab565b5190506127896138c3565b604051633c7f634960e11b815260048101849052602481018390526001600160a01b0391909116906378fec6929060440160206040518083038186803b1580156127d257600080fd5b505afa1580156127e6573d6000803e3d6000fd5b505050506040513d601f19601f8201168201806040525081019061280a9190614709565b6128149086614922565b945050508080612823906144d5565b9150506126d1565b5050919050565b600061283c612ecf565b156128595760405162461bcd60e51b8152600401610bba9061425a565b33612862612421565b6001600160a01b0316146128885760405162461bcd60e51b8152600401610bba906144f0565b604051630b3cb84560e41b81526004810183905273__$53b43b4bdeb2460d1113627ef627de0cf6$__9063b3cb84509060240161202a565b919050565b600260005414156128e85760405162461bcd60e51b8152600401610bba906141f9565b60026000556128f5612ecf565b156129125760405162461bcd60e51b8152600401610bba9061425a565b3361291b612421565b6001600160a01b0316146129415760405162461bcd60e51b8152600401610bba906144f0565b73__$53b43b4bdeb2460d1113627ef627de0cf6$__63b8f117cd6040518163ffffffff1660e01b815260040160006040518083038186803b15801561298557600080fd5b505af4158015612381573d6000803e3d6000fd5b606060006129a5613764565b600084815260059190910160205260409020546001600160401b038111156129cf576129cf613d7b565b6040519080825280602002602001820160405280156129f8578160200160208202803683370190505b50905060005b612a06613764565b6000858152600591909101602052604090205481101561192c576000612a2a613764565b60050160008681526020019081526020016000208281548110612a4f57612a4f614426565b60009182526020918290200154604080516371613c2d60e01b815290516001600160a01b03909216935083926371613c2d92600480840193829003018186803b158015612a9b57600080fd5b505afa158015612aaf573d6000803e3d6000fd5b505050506040513d601f19601f82011682018060405250810190612ad39190614709565b838381518110612ae557612ae5614426565b60209081029190910101525080612afb816144d5565b9150506129fe565b600060026000541415612b285760405162461bcd60e51b8152600401610bba906141f9565b6002600090815586908690612b3b613764565b6000848152600791909101602090815260408083208584529091529020546001600160a01b03161415612b805760405162461bcd60e51b8152600401610bba90614230565b612b88612ecf565b15612ba55760405162461bcd60e51b8152600401610bba9061425a565b612bad61380b565b6040516396994e3760e01b8152336004820152602481018a9052604481018790526001600160a01b0391909116906396994e379034906064016000604051808303818588803b158015612bff57600080fd5b505af1158015612c13573d6000803e3d6000fd5b50506040516317992e1960e01b815273__$bfa1fc126f9f960b1bd3bae8c14d9c594e$__93506317992e19925061159a91508b908b9033908c908c908c90600401614525565b6000333014612dc4576001546201000090046001600160a01b031615612c92576040516337affdbf60e11b815260040160405180910390fd5b6001805462010000600160b01b03191633620100000217905583836000612cb7613764565b6000848152600791909101602090815260408083208584529091529020546001600160a01b03161415612cfc5760405162461bcd60e51b8152600401610bba90614230565b612d04612ecf565b15612d215760405162461bcd60e51b8152600401610bba9061425a565b604051635436151f60e11b81523360048201526001600160a01b038516602482015260448101889052606481018790526084810186905273__$e7d72ce98f1dce1f33c815a57604cff5ab$__9063a86c2a3e9060a40160006040518083038186803b158015612d8f57600080fd5b505af4158015612da3573d6000803e3d6000fd5b505050506001925050506001805462010000600160b01b0319169055612ec7565b83836000612dd0613764565b6000848152600791909101602090815260408083208584529091529020546001600160a01b03161415612e155760405162461bcd60e51b8152600401610bba90614230565b612e1d612ecf565b15612e3a5760405162461bcd60e51b8152600401610bba9061425a565b604051635436151f60e11b81523360048201526001600160a01b038516602482015260448101889052606481018790526084810186905273__$e7d72ce98f1dce1f33c815a57604cff5ab$__9063a86c2a3e9060a40160006040518083038186803b158015612ea857600080fd5b505af4158015612ebc573d6000803e3d6000fd5b505050506001925050505b949350505050565b600080612eda613764565b6002015411905090565b6040805160018082528183019092526060916020808301908036833701905050905069151bdad95b95985d5b1d60b21b8160008151811061143557611435614426565b6000612f31612ecf565b15612f4e5760405162461bcd60e51b8152600401610bba9061425a565b33612f57612421565b6001600160a01b031614612f7d5760405162461bcd60e51b8152600401610bba906144f0565b604051631d33a0a760e31b81526004810183905273__$53b43b4bdeb2460d1113627ef627de0cf6$__9063e99d05389060240161202a565b33612fbe612421565b6001600160a01b031614612fe45760405162461bcd60e51b8152600401610bba906144f0565b600084116130345760405162461bcd60e51b815260206004820152601760248201527f496e76616c696420636f6d706f756e6420666163746f720000000000000000006044820152606401610bba565b61303d866111e6565b156130805760405162461bcd60e51b8152602060048201526013602482015272105b1c9958591e481a5b9a5d1a585b1a5e9959606a1b6044820152606401610bba565b60405163d3f43b7960e01b815260048101879052602481018690526044810185905273__$53b43b4bdeb2460d1113627ef627de0cf6$__9063d3f43b799060640160006040518083038186803b1580156130d957600080fd5b505af41580156130ed573d6000803e3d6000fd5b505050506130fb8684611a1e565b6131058683611206565b61129c8682611c8b565b6060600061311b613764565b600084815260059190910160205260409020546001600160401b0381111561314557613145613d7b565b60405190808252806020026020018201604052801561316e578160200160208202803683370190505b50905060005b61317c613764565b6000858152600591909101602052604090205481101561192c5760006131a0613764565b600501600086815260200190815260200160002082815481106131c5576131c5614426565b6000918252602091829020015460408051632f05aa6d60e11b815290516001600160a01b0390921693508392635e0b54da92600480840193829003018186803b15801561321157600080fd5b505afa158015613225573d6000803e3d6000fd5b505050506040513d601f19601f820116820180604052508101906132499190614709565b83838151811061325b5761325b614426565b60209081029190910101525080613271816144d5565b915050613174565b600154610100900460ff161580801561329657506001805460ff16105b806132af5750303b1580156132af57506001805460ff16145b6133125760405162461bcd60e51b815260206004820152602e60248201527f496e697469616c697a61626c653a20636f6e747261637420697320616c72656160448201526d191e481a5b9a5d1a585b1a5e995960921b6064820152608401610bba565b6001805460ff1916811790558015613334576001805461ff0019166101001790555b600061333e6138cd565b6001600160a01b031614156133a05760405162461bcd60e51b815260206004820152602260248201527f4d7573742062652063616c6c65642066726f6d2070726f787920636f6e74726160448201526118dd60f21b6064820152608401610bba565b826133a9613764565b600101556133b785836138f5565b6133c084613936565b801561241a576001805461ff00191681556040519081527f7f26b83ff96e1f2b6a682f133852f6798a09c465da95921460cefb38474024989060200160405180910390a15050505050565b6000600260005414156134305760405162461bcd60e51b8152600401610bba906141f9565b6002600090815586908690613443613764565b6000848152600791909101602090815260408083208584529091529020546001600160a01b031614156134885760405162461bcd60e51b8152600401610bba90614230565b613490612ecf565b156134ad5760405162461bcd60e51b8152600401610bba9061425a565b6040516317992e1960e01b815273__$bfa1fc126f9f960b1bd3bae8c14d9c594e$__906317992e199061159a908b908b9033908c908c908c90600401614525565b336134f7612421565b6001600160a01b03161461351d5760405162461bcd60e51b8152600401610bba906144f0565b6001600160a01b0381166135825760405162461bcd60e51b815260206004820152602660248201527f4f776e61626c653a206e6577206f776e657220697320746865207a65726f206160448201526564647265737360d01b6064820152608401610bba565b61107d81613832565b6000600260005414156135b05760405162461bcd60e51b8152600401610bba906141f9565b60026000908155869086906135c3613764565b6000848152600791909101602090815260408083208584529091529020546001600160a01b031614156136085760405162461bcd60e51b8152600401610bba90614230565b613610612ecf565b1561362d5760405162461bcd60e51b8152600401610bba9061425a565b60405163102cdc6b60e11b815273__$bfa1fc126f9f960b1bd3bae8c14d9c594e$__90632059b8d69061159a908b908b9033908c908c908c90600401614525565b60606120ff61367b613764565b6001600160a01b0384166000908152600991909101602052604090206139cb565b604051637ea2c27360e11b81526001600160a01b03841660048201526024810183905260448101829052600090819081908190819081908190819073__$e7d72ce98f1dce1f33c815a57604cff5ab$__9063fd4584e6906064016101006040518083038186803b15801561370f57600080fd5b505af4158015613723573d6000803e3d6000fd5b505050506040513d601f19601f820116820180604052508101906137479190614963565b975097509750975097509750975097509397509397509397509397565b7f8041b8421ebd495cc61f38c788c9eb100daccf9bd36aa0bb920b7a15b2e0496590565b6137906138c3565b6001600160a01b031663ecd8d2fb6040518163ffffffff1660e01b815260040160206040518083038186803b1580156137c857600080fd5b505afa1580156137dc573d6000803e3d6000fd5b505050506040513d601f19601f820116820180604052508101906138009190614709565b613808613764565b55565b60006138156139d6565b905090565b60008181526001830160205260408120541515611c84565b7f9acda75aebd150dd434541a4747a6dc606f4f1a59662477e67daf1fc0bf9e0aa80546001600160a01b038381166001600160a01b0319831681179093556040519116919082907f8be0079c531659141344cd1fd0a4f28419497f9722a3daafe3b4186f6b6457e090600090a35050565b60006138156139ee565b60006120ff825490565b6000611c848383613a07565b6000613815613a31565b60007f360894a13ba1a3210667c828492db98dca3e2076cc3735a920a3ca505d382bbc610cce565b6138fe82613832565b604051638c197d8d60e01b81526004810182905273__$e049441b2d898ade92927f540debd09cf4$__90638c197d8d90602401611270565b6000805160206149dd833981519152546001600160a01b03161561399c5760405162461bcd60e51b815260206004820152601b60248201527f5265736f6c766572207265676973746572656420616c726561647900000000006044820152606401610bba565b6000805160206149dd83398151915280546001600160a01b0319166001600160a01b0392909216919091179055565b60606120ff82613a51565b600061381569151bdad95b95985d5b1d60b21b613aac565b60006138156a14995cd95c9d99519d5b9960aa1b613aac565b6000826000018281548110613a1e57613a1e614426565b9060005260206000200154905092915050565b60006138157121bab93932b731bca1b7b73a3937b63632b960711b613aac565b60608160000180548060200260200160405190810160405280929190818152602001828054801561131657602002820191906000526020600020905b815481526020019060010190808311613a8d5750505050509050919050565b60008181527f4abde63c3e81aefa5764b017968bc473e83e093d7e1a10247d19e0a3e41240196020908152604080832054815170026b4b9b9b4b7339030b2323932b9b99d1607d1b9381019390935260318084018690528251808503909101815260519093019091526001600160a01b0316908161192c5760405162461bcd60e51b8152600401610bba91906149c9565b60008060408385031215613b5057600080fd5b50508035926020909101359150565b600060208284031215613b7157600080fd5b5035919050565b600080600060608486031215613b8d57600080fd5b505081359360208301359350604090920135919050565b600081518084526020808501945080840160005b83811015613bd457815187529582019590820190600101613bb8565b509495945050505050565b606081526000613bf26060830186613ba4565b8281036020840152613c048186613ba4565b90508281036040840152613c188185613ba4565b9695505050505050565b6001600160a01b038116811461107d57600080fd5b600080600060608486031215613c4c57600080fd5b83359250602084013591506040840135613c6581613c22565b809150509250925092565b60008060408385031215613c8357600080fd5b823591506020830135613c9581613c22565b809150509250929050565b6020808252825182820181905260009190848201906040850190845b81811015613ce15783516001600160a01b031683529284019291840191600101613cbc565b50909695505050505050565b6020808252825182820181905260009190848201906040850190845b81811015613ce157835183529284019291840191600101613d09565b6002811061107d57600080fd5b600080600080600060a08688031215613d4a57600080fd5b85359450602086013593506040860135613d6381613d25565b94979396509394606081013594506080013592915050565b634e487b7160e01b600052604160045260246000fd5b60405161012081016001600160401b0381118282101715613db457613db4613d7b565b60405290565b60405161010081016001600160401b0381118282101715613db457613db4613d7b565b604051608081016001600160401b0381118282101715613db457613db4613d7b565b604051601f8201601f191681016001600160401b0381118282101715613e2757613e27613d7b565b604052919050565b60006001600160401b03821115613e4857613e48613d7b565b5060051b60200190565b600082601f830112613e6357600080fd5b81356020613e78613e7383613e2f565b613dff565b82815260059290921b84018101918181019086841115613e9757600080fd5b8286015b84811015613eb25780358352918301918301613e9b565b509695505050505050565b60008060408385031215613ed057600080fd5b82356001600160401b03811115613ee657600080fd5b613ef285828601613e52565b9250506020830135613c9581613c22565b60028110613f2157634e487b7160e01b600052602160045260246000fd5b9052565b600081518084526020808501945080840160005b83811015613bd4578151805165ffffffffffff168852838101518489015260408082015190890152606080820151613f73828b0182613f03565b50506080818101519089015260a0808201519089015260c0808201519089015260e0908101511515908801526101009096019590820190600101613f39565b604081526000613fc56040830185613f25565b8281036020840152613fd78185613f25565b95945050505050565b65ffffffffffff8116811461107d57600080fd5b60008060006060848603121561400957600080fd5b83359250602084013591506040840135613c6581613fe0565b602081526000611c846020830184613ba4565b602080825282518282018190526000919060409081850190868401855b8281101561408c57815180518552868101518786015285810151868601526060908101519085015260809093019290850190600101614052565b5091979650505050505050565b600080604083850312156140ac57600080fd5b82356001600160401b038111156140c257600080fd5b6140ce85828601613e52565b95602094909401359450505050565b6000602082840312156140ef57600080fd5b8135611c8481613c22565b6000806000806080858703121561411057600080fd5b843593506020850135925060408501359150606085013561413081613c22565b939692955090935050565b60008060008060008060c0878903121561415457600080fd5b505084359660208601359650604086013595606081013595506080810135945060a0013592509050565b6000806000806080858703121561419457600080fd5b843561419f81613c22565b935060208501356141af81613c22565b93969395505050506040820135916060013590565b6000806000606084860312156141d957600080fd5b83356141e481613c22565b95602085013595506040909401359392505050565b6020808252601f908201527f5265656e7472616e637947756172643a207265656e7472616e742063616c6c00604082015260600190565b60208082526010908201526f496e76616c6964206d6174757269747960801b604082015260600190565b602080825260129082015271105b1c9958591e481d195c9b5a5b985d195960721b604082015260600190565b92835260208301919091526001600160a01b0316604082015260600190565b600082601f8301126142b657600080fd5b815160206142c6613e7383613e2f565b82815260059290921b840181019181810190868411156142e557600080fd5b8286015b84811015613eb257805183529183019183016142e9565b60008060006060848603121561431557600080fd5b83516001600160401b038082111561432c57600080fd5b614338878388016142a5565b9450602086015191508082111561434e57600080fd5b61435a878388016142a5565b9350604086015191508082111561437057600080fd5b5061437d868287016142a5565b9150509250925092565b6000806040838503121561439a57600080fd5b505080516020909101519092909150565b600061012082840312156143be57600080fd5b6143c6613d91565b825181526020830151602082015260408301516040820152606083015160608201526080830151608082015260a083015160a082015260c083015160c082015260e083015160e08201526101008084015181830152508091505092915050565b634e487b7160e01b600052603260045260246000fd5b6000815180845260005b8181101561446257602081850181015186830182015201614446565b81811115614474576000602083870101525b50601f01601f19169290920160200192915050565b828152604060208201526000612ec7604083018461443c565b6000602082840312156144b457600080fd5b8151611c8481613c22565b634e487b7160e01b600052601160045260246000fd5b60006000198214156144e9576144e96144bf565b5060010190565b6020808252818101527f4f776e61626c653a2063616c6c6572206973206e6f7420746865206f776e6572604082015260600190565b868152602081018690526001600160a01b038516604082015260c0810161454f6060830186613f03565b608082019390935260a00152949350505050565b604080825283519082018190526000906020906060840190828701845b8281101561459c57815184529284019290840190600101614580565b5050506001600160a01b039490941692019190915250919050565b80516128c081613d25565b805180151581146128c057600080fd5b600082601f8301126145e357600080fd5b815160206145f3613e7383613e2f565b82815260089290921b8401810191818101908684111561461257600080fd5b8286015b84811015613eb25761010081890312156146305760008081fd5b614638613dba565b815161464381613fe0565b815281850151858201526040808301519082015260606146648184016145b7565b908201526080828101519082015260a0808301519082015260c0808301519082015260e06146938184016145c2565b9082015283529183019161010001614616565b600080604083850312156146b957600080fd5b82516001600160401b03808211156146d057600080fd5b6146dc868387016145d2565b935060208501519150808211156146f257600080fd5b506146ff858286016145d2565b9150509250929050565b60006020828403121561471b57600080fd5b5051919050565b600080600080600080600060e0888a03121561473d57600080fd5b5050855160208701516040880151606089015160808a015160a08b015160c0909b0151949c939b50919990985090965094509092509050565b6000602080838503121561478957600080fd5b82516001600160401b0381111561479f57600080fd5b8301601f810185136147b057600080fd5b80516147be613e7382613e2f565b81815260079190911b820183019083810190878311156147dd57600080fd5b928401925b8284101561483457608084890312156147fb5760008081fd5b614803613ddd565b84518152858501518682015260408086015190820152606080860151908201528252608090930192908401906147e2565b979650505050505050565b60006060828403121561485157600080fd5b604051606081018181106001600160401b038211171561487357614873613d7b565b8060405250809150825161488681613c22565b8082525060208301516020820152604083015160408201525092915050565b60008060c083850312156148b857600080fd5b6148c2848461483f565b91506148d1846060850161483f565b90509250929050565b8481526020810184905260c081016148f56040830185613f03565b82516001600160a01b031660608301526020830151608083015260409092015160a0909101529392505050565b600080821280156001600160ff1b0384900385131615614944576149446144bf565b600160ff1b839003841281161561495d5761495d6144bf565b50500190565b600080600080600080600080610100898b03121561498057600080fd5b885197506020890151965060408901519550606089015194506080890151935060a0890151925060c089015191506149ba60e08a016145c2565b90509295985092959890939650565b602081526000611c84602083018461443c56fe4abde63c3e81aefa5764b017968bc473e83e093d7e1a10247d19e0a3e4124018a26469706673582212207ee4c01b2b31380072578b012e1aabacd65ac5afdcd368a432d879c00c7b30e564736f6c63430008090033",
  "libraries": {
    "FundManagementLogic": "0xA8167a4a1FA273f13ea309749069BF4cD6F53043",
    "LendingMarketOperationLogic": "0x836791688E0BA9b38eFA9ac1e080C8eea2f45f34",
    "LendingMarketUserLogic": "0x70925C28f25ACa0bd57360582CCd3d85787c4ff2",
    "LendingMarketConfigurationLogic": "0xEd6B4b75fc3ee750D17e37F71d82f1b6a66AF9b5"
  },
  "implementation": "0x9a1C6e3f6b7812d2258c88e10B032041C704a9d4",
  "devdoc": {
    "kind": "dev",
    "methods": {
      "acceptedContracts()": {
        "details": "The contact name listed in this method is also needed to be listed `requiredContracts` method."
      },
      "calculateFunds(bytes32,address)": {
        "params": {
          "_ccy": "Currency name in bytes32",
          "_user": "User's address"
        },
        "returns": {
          "borrowedAmount": "The borrowed amount due to the borrow orders being filled on the order book",
          "claimableAmount": "The claimable amount due to the lending orders being filled on the order book",
          "collateralAmount": "The actual collateral amount that is calculated by netting using the haircut.",
          "debtAmount": "The debt amount due to the borrow orders being filled on the order book",
          "lentAmount": "The lent amount due to the lend orders being filled on the order book",
          "workingBorrowOrdersAmount": "The working orders amount on the borrow order book",
          "workingLendOrdersAmount": "The working orders amount on the lend order book"
        }
      },
      "calculateTotalFundsInBaseCurrency(address,bytes32,uint256)": {
        "params": {
          "_depositAmount": "Amount to deposit",
          "_depositCcy": "Currency name to be used as deposit",
          "_user": "User's address"
        }
      },
      "cancelOrder(bytes32,uint256,uint48)": {
        "params": {
          "_ccy": "Currency name in bytes32 of the selected market",
          "_maturity": "The maturity of the selected market",
          "_orderId": "Market order id"
        }
      },
      "cleanUpAllFunds(address)": {
        "params": {
          "_user": "User's address"
        }
      },
      "cleanUpFunds(bytes32,address)": {
        "params": {
          "_ccy": "Currency name in bytes32",
          "_user": "User's address"
        }
      },
      "createLendingMarket(bytes32,uint256)": {
        "params": {
          "_ccy": "Main currency for new lending market",
          "_openingDate": "Timestamp when the lending market opens"
        }
      },
      "createOrder(bytes32,uint256,uint8,uint256,uint256)": {
        "params": {
          "_amount": "Amount of funds the maker wants to borrow/lend",
          "_ccy": "Currency name in bytes32 of the selected market",
          "_maturity": "The maturity of the selected market",
          "_side": "Order position type, Borrow or Lend",
          "_unitPrice": "Amount of unit price taker wish to borrow/lend"
        },
        "returns": {
          "_0": "True if the execution of the operation succeeds"
        }
      },
      "createPreOrder(bytes32,uint256,uint8,uint256,uint256)": {
        "params": {
          "_amount": "Amount of funds the maker wants to borrow/lend",
          "_ccy": "Currency name in bytes32 of the selected market",
          "_maturity": "The maturity of the selected market",
          "_side": "Order position type, Borrow or Lend",
          "_unitPrice": "Amount of unit price taker wish to borrow/lend"
        },
        "returns": {
          "_0": "True if the execution of the operation succeeds"
        }
      },
      "depositAndCreateOrder(bytes32,uint256,uint8,uint256,uint256)": {
        "params": {
          "_amount": "Amount of funds the maker wants to borrow/lend",
          "_ccy": "Currency name in bytes32 of the selected market",
          "_maturity": "The maturity of the selected market",
          "_side": "Order position type, Borrow or Lend",
          "_unitPrice": "Amount of unit price taker wish to borrow/lend"
        },
        "returns": {
          "_0": "True if the execution of the operation succeeds"
        }
      },
      "depositAndCreatePreOrder(bytes32,uint256,uint8,uint256,uint256)": {
        "params": {
          "_amount": "Amount of funds the maker wants to borrow/lend",
          "_ccy": "Currency name in bytes32 of the selected market",
          "_maturity": "The maturity of the selected market",
          "_side": "Order position type, Borrow or Lend",
          "_unitPrice": "Amount of unit price taker wish to borrow/lend"
        },
        "returns": {
          "_0": "True if the execution of the operation succeeds"
        }
      },
      "executeItayoseCalls(bytes32[],uint256)": {
        "params": {
          "_currencies": "Currency name list in bytes32",
          "_maturity": "The maturity of the selected market"
        }
      },
      "executeLiquidationCall(bytes32,bytes32,uint256,address)": {
        "params": {
          "_collateralCcy": "Currency name to be used as collateral",
          "_debtCcy": "Currency name to be used as debt",
          "_debtMaturity": "The market maturity of the debt",
          "_user": "User's address"
        },
        "returns": {
          "_0": "True if the execution of the operation succeeds"
        }
      },
      "executeRedemption()": {
        "returns": {
          "_0": "True if the execution of the operation succeeds"
        }
      },
      "getAutoRollFeeRate(bytes32)": {
        "params": {
          "_ccy": "Currency name in bytes32"
        },
        "returns": {
          "_0": "The auto-roll fee rate received by protocol"
        }
      },
      "getBorrowOrderBook(bytes32,uint256,uint256)": {
        "params": {
          "_ccy": "Currency name in bytes32",
          "_limit": "The limit number to get",
          "_maturity": "The maturity of the market"
        },
        "returns": {
          "amounts": "The array of borrow order amounts",
          "quantities": "The array of borrow order quantities",
          "unitPrices": "The array of borrow unit prices"
        }
      },
      "getBorrowUnitPrices(bytes32)": {
        "params": {
          "_ccy": "Currency name in bytes32"
        },
        "returns": {
          "_0": "Array with the borrowing prices per future value of the lending market"
        }
      },
      "getCircuitBreakerLimitRange(bytes32)": {
        "params": {
          "_ccy": "Currency name in bytes32"
        },
        "returns": {
          "_0": "The auto-roll fee rate received by protocol"
        }
      },
      "getFutureValueVault(bytes32,uint256)": {
        "params": {
          "_ccy": "Currency name in bytes32",
          "_maturity": "The maturity of the market"
        },
        "returns": {
          "_0": "The lending market address"
        }
      },
      "getGenesisDate(bytes32)": {
        "params": {
          "_ccy": "Currency name in bytes32"
        },
        "returns": {
          "_0": "The genesis date"
        }
      },
      "getGenesisValue(bytes32,address)": {
        "params": {
          "_ccy": "Currency name in bytes32 for Lending Market",
          "_user": "User's address"
        },
        "returns": {
          "genesisValue": "The genesis value"
        }
      },
      "getLendOrderBook(bytes32,uint256,uint256)": {
        "params": {
          "_ccy": "Currency name in bytes32",
          "_limit": "The limit number to get",
          "_maturity": "The maturity of the market"
        },
        "returns": {
          "amounts": "The array of lend order amounts",
          "quantities": "The array of lend order quantities",
          "unitPrices": "The array of borrow unit prices"
        }
      },
      "getLendUnitPrices(bytes32)": {
        "params": {
          "_ccy": "Currency name in bytes32"
        },
        "returns": {
          "_0": "Array with the lending prices per future value of the lending market"
        }
      },
      "getLendingMarket(bytes32,uint256)": {
        "params": {
          "_ccy": "Currency name in bytes32",
          "_maturity": "The maturity of the market"
        },
        "returns": {
          "_0": "The lending market address"
        }
      },
      "getLendingMarkets(bytes32)": {
        "params": {
          "_ccy": "Currency name in bytes32"
        },
        "returns": {
          "_0": "Array with the lending market address"
        }
      },
      "getMaturities(bytes32)": {
        "params": {
          "_ccy": "Currency name in bytes32"
        },
        "returns": {
          "_0": "Array with the lending market maturity"
        }
      },
      "getMidUnitPrices(bytes32)": {
        "params": {
          "_ccy": "Currency name in bytes32"
        },
        "returns": {
          "_0": "Array with the mid prices per future value of the lending market"
        }
      },
      "getObservationPeriod()": {
        "returns": {
          "_0": "The observation period to calculate the volume-weighted average price of transactions"
        }
      },
      "getOrderFeeRate(bytes32)": {
        "params": {
          "_ccy": "Currency name in bytes32"
        },
        "returns": {
          "_0": "The order fee rate received by protocol"
        }
      },
      "getOrders(bytes32[],address)": {
        "params": {
          "_ccys": "Currency name list in bytes32",
          "_user": "User's address"
        },
        "returns": {
          "activeOrders": "The array of active orders in the order book",
          "inactiveOrders": "The array of inactive orders"
        }
      },
      "getPosition(bytes32,uint256,address)": {
        "params": {
          "_ccy": "Currency name in bytes32",
          "_maturity": "The maturity of the selected market",
          "_user": "User's address"
        },
        "returns": {
          "futureValue": "The future value of the position",
          "presentValue": "The present value of the position"
        }
      },
      "getPositions(bytes32[],address)": {
        "params": {
          "_ccys": "Currency name list in bytes32",
          "_user": "User's address"
        },
        "returns": {
          "positions": "The array of active positions"
        }
      },
      "getTotalPresentValue(bytes32,address)": {
        "params": {
          "_ccy": "Currency name in bytes32 for Lending Market",
          "_user": "User's address"
        },
        "returns": {
          "totalPresentValue": "The total present value"
        }
      },
      "getTotalPresentValueInBaseCurrency(address)": {
        "params": {
          "_user": "User's address"
        },
        "returns": {
          "totalPresentValue": "The total present value in base currency"
        }
      },
      "getUsedCurrencies(address)": {
        "params": {
          "_user": "User's address"
        },
        "returns": {
          "_0": "The array of the currency"
        }
      },
      "initialize(address,address,uint256,uint256)": {
        "details": "Function is invoked by the proxy contract when the contract is added to the ProxyController.",
        "params": {
          "_marketBasePeriod": "The base period for market maturity",
          "_observationPeriod": "The observation period to calculate the volume-weighted average price of transactions",
          "_owner": "The address of the contract owner",
          "_resolver": "The address of the Address Resolver contract"
        }
      },
      "initializeLendingMarket(bytes32,uint256,uint256,uint256,uint256,uint256)": {
        "params": {
          "_autoRollFeeRate": "The auto roll fee rate received by protocol",
          "_ccy": "Currency name in bytes32",
          "_circuitBreakerLimitRange": "The circuit breaker limit range",
          "_compoundFactor": "The initial compound factor when the initial market is opened",
          "_genesisDate": "The genesis date when the initial market is opened",
          "_orderFeeRate": "The order fee rate received by protocol"
        }
      },
      "isInitializedLendingMarket(bytes32)": {
        "params": {
          "_ccy": "Currency name in bytes32"
        },
        "returns": {
          "_0": "The boolean if the lending market is initialized or not"
        }
      },
      "isRedemptionRequired(address)": {
        "returns": {
          "_0": "The boolean if the user needs to redeem the funds"
        }
      },
      "isTerminated()": {
        "returns": {
          "_0": "The boolean if the protocol has not been terminated"
        }
      },
      "owner()": {
        "details": "Returns the address of the current owner."
      },
      "pauseLendingMarkets(bytes32)": {
        "params": {
          "_ccy": "Currency for pausing all lending markets"
        },
        "returns": {
          "_0": "True if the execution of the operation succeeds"
        }
      },
      "renounceOwnership()": {
        "details": "Leaves the contract without owner. It will not be possible to call `onlyOwner` functions anymore. Can only be called by the current owner. NOTE: Renouncing ownership will leave the contract without an owner, thereby removing any functionality that is only available to the owner."
      },
      "requiredContracts()": {
        "details": "The contract name list is in `./libraries/Contracts.sol`."
      },
      "rotateLendingMarkets(bytes32)": {
        "params": {
          "_ccy": "Currency name in bytes32 of the selected market"
        }
      },
      "transferOwnership(address)": {
        "details": "Transfers ownership of the contract to a new account (`newOwner`). Can only be called by the current owner."
      },
      "unpauseLendingMarkets(bytes32)": {
        "params": {
          "_ccy": "Currency name in bytes32"
        },
        "returns": {
          "_0": "True if the execution of the operation succeeds"
        }
      },
      "unwindPosition(bytes32,uint256)": {
        "params": {
          "_ccy": "Currency name in bytes32 of the selected market",
          "_maturity": "The maturity of the selected market"
        }
      },
      "updateAutoRollFeeRate(bytes32,uint256)": {
        "params": {
          "_autoRollFeeRate": "The order fee rate received by protocol",
          "_ccy": "Currency name in bytes32"
        }
      },
      "updateCircuitBreakerLimitRange(bytes32,uint256)": {
        "params": {
          "_ccy": "Currency name in bytes32",
          "_limitRange": "The circuit breaker limit range"
        }
      },
      "updateObservationPeriod(uint256)": {
        "params": {
          "_observationPeriod": "The observation period to calculate the volume-weighted average price of transactions"
        }
      },
      "updateOrderFeeRate(bytes32,uint256)": {
        "params": {
          "_ccy": "Currency name in bytes32",
          "_orderFeeRate": "The order fee rate received by protocol"
        }
      }
    },
    "version": 1
  },
  "userdoc": {
    "kind": "user",
    "methods": {
      "acceptedContracts()": {
        "notice": "Returns contract names that can call this contract."
      },
      "calculateFunds(bytes32,address)": {
        "notice": "Gets the funds that are calculated from the user's lending and borrowing order list for the selected currency."
      },
      "calculateTotalFundsInBaseCurrency(address,bytes32,uint256)": {
        "notice": "Gets the funds that are calculated from the user's lending and borrowing order list for all currencies in base currency."
      },
      "cancelOrder(bytes32,uint256,uint48)": {
        "notice": "Cancels the own order."
      },
      "cleanUpAllFunds(address)": {
        "notice": "Clean up all funds of the user"
      },
      "cleanUpFunds(bytes32,address)": {
        "notice": "Clean up user funds used for lazy evaluation by the following actions: - Removes order IDs that is already filled on the order book. - Convert Future values that have already been auto-rolled to Genesis values."
      },
      "createLendingMarket(bytes32,uint256)": {
        "notice": "Deploys new Lending Market and save address at lendingMarkets mapping.Reverts on deployment market with existing currency and term"
      },
      "createOrder(bytes32,uint256,uint8,uint256,uint256)": {
        "notice": "Creates an order. Takes orders if the orders are matched, and places new order if not match it. In addition, converts the future value to the genesis value if there is future value in past maturity before the execution of order creation."
      },
      "createPreOrder(bytes32,uint256,uint8,uint256,uint256)": {
        "notice": "Creates a pre-order. A pre-order will only be accepted from 168 hours (7 days) to 1 hour before the market opens (Pre-order period). At the end of this period, Itayose will be executed."
      },
      "depositAndCreateOrder(bytes32,uint256,uint8,uint256,uint256)": {
        "notice": "Deposits funds and creates an order at the same time."
      },
      "depositAndCreatePreOrder(bytes32,uint256,uint8,uint256,uint256)": {
        "notice": "Deposits funds and creates a pre-order at the same time."
      },
      "executeEmergencyTermination()": {
        "notice": "Executes an emergency termination to stop the protocol. Once this function is executed, the protocol cannot be run again. Also, users will only be able to redeem and withdraw."
      },
      "executeItayoseCalls(bytes32[],uint256)": {
        "notice": "Executes Itayose calls per selected currencies."
      },
      "executeLiquidationCall(bytes32,bytes32,uint256,address)": {
        "notice": "Liquidates a lending or borrowing position if the user's coverage is hight."
      },
      "executeRedemption()": {
        "notice": "Redeems all lending and borrowing positions. This function uses the present value as of the termination date."
      },
      "getAutoRollFeeRate(bytes32)": {
        "notice": "Gets the auto-roll fee rate"
      },
      "getBorrowOrderBook(bytes32,uint256,uint256)": {
        "notice": "Gets the order book of borrow."
      },
      "getBorrowUnitPrices(bytes32)": {
        "notice": "Gets borrow prices per future value for the selected currency."
      },
      "getCircuitBreakerLimitRange(bytes32)": {
        "notice": "Gets the limit range in unit price for the circuit breaker"
      },
      "getFutureValueVault(bytes32,uint256)": {
        "notice": "Gets the feture value contract address for the selected currency and maturity."
      },
      "getGenesisDate(bytes32)": {
        "notice": "Gets the genesis date when the first market opens for the selected currency."
      },
      "getGenesisValue(bytes32,address)": {
        "notice": "Gets the genesis value of the account."
      },
      "getLendOrderBook(bytes32,uint256,uint256)": {
        "notice": "Gets the order book of lend."
      },
      "getLendUnitPrices(bytes32)": {
        "notice": "Gets lend prices per future value for the selected currency."
      },
      "getLendingMarket(bytes32,uint256)": {
        "notice": "Gets the lending market contract address for the selected currency and maturity."
      },
      "getLendingMarkets(bytes32)": {
        "notice": "Gets the lending market contract addresses for the selected currency."
      },
      "getMaturities(bytes32)": {
        "notice": "Gets maturities for the selected currency."
      },
      "getMidUnitPrices(bytes32)": {
        "notice": "Gets mid prices per future value for the selected currency."
      },
      "getObservationPeriod()": {
        "notice": "Gets the observation period"
      },
      "getOrderFeeRate(bytes32)": {
        "notice": "Gets the order fee rate"
      },
      "getOrders(bytes32[],address)": {
        "notice": "Gets user's active and inactive orders in the order book"
      },
      "getPosition(bytes32,uint256,address)": {
        "notice": "Gets user's active position from the future value vault"
      },
      "getPositions(bytes32[],address)": {
        "notice": "Gets user's active positions from the future value vaults"
      },
      "getTotalPresentValue(bytes32,address)": {
        "notice": "Gets the total present value of the account for selected currency."
      },
      "getTotalPresentValueInBaseCurrency(address)": {
        "notice": "Gets the total present value of the account converted to base currency."
      },
      "getUsedCurrencies(address)": {
        "notice": "Get all the currencies in which the user has lending positions or orders."
      },
      "initialize(address,address,uint256,uint256)": {
        "notice": "Initializes the contract."
      },
      "initializeLendingMarket(bytes32,uint256,uint256,uint256,uint256,uint256)": {
        "notice": "Initialize the lending market to set a genesis date and compound factor"
      },
      "isInitializedLendingMarket(bytes32)": {
        "notice": "Gets if the lending market is initialized."
      },
      "isRedemptionRequired(address)": {
        "notice": "Gets if the user needs to redeem the funds."
      },
      "isTerminated()": {
        "notice": "Gets if the protocol has not been terminated."
      },
      "pauseLendingMarkets(bytes32)": {
        "notice": "Pauses previously deployed lending market by currency"
      },
      "requiredContracts()": {
        "notice": "Returns the contract names used in this contract."
      },
      "rotateLendingMarkets(bytes32)": {
        "notice": "Rotates the lending markets. In this rotation, the following actions are happened. - Updates the maturity at the beginning of the market array. - Moves the beginning of the market array to the end of it (Market rotation). - Update the compound factor in this contract using the next market unit price. (Auto-rolls) - Convert the future value held by reserve funds into the genesis value"
      },
      "unpauseLendingMarkets(bytes32)": {
        "notice": "Unpauses previously deployed lending market by currency"
      },
      "unwindPosition(bytes32,uint256)": {
        "notice": "Unwinds user's lending or borrowing positions by creating an opposite position order."
      },
      "updateAutoRollFeeRate(bytes32,uint256)": {
        "notice": "Updates the auto-roll fee rate"
      },
      "updateCircuitBreakerLimitRange(bytes32,uint256)": {
        "notice": "Updates the auto-roll fee rate"
      },
      "updateObservationPeriod(uint256)": {
        "notice": "Updates the observation period"
      },
      "updateOrderFeeRate(bytes32,uint256)": {
        "notice": "Updates the order fee rate"
      }
    },
    "notice": "Implements the module to manage separated lending order-book markets per maturity. This contract also works as a factory contract that can deploy(start)a new lending market for selected currency and maturity and has the calculation logic for the Genesis value in addition. Deployed Lending Markets are rotated and reused as it reaches the maturity date. At the time of rotation, a new maturity date is set and the compound factor is updated. The users mainly call this contract to create orders to lend or borrow funds.",
    "version": 1
  },
  "storageLayout": {
    "storage": [
      {
        "astId": 1150,
        "contract": "contracts/protocol/LendingMarketController.sol:LendingMarketController",
        "label": "_status",
        "offset": 0,
        "slot": "0",
        "type": "t_uint256"
      },
      {
        "astId": 995,
        "contract": "contracts/protocol/LendingMarketController.sol:LendingMarketController",
        "label": "_initialized",
        "offset": 0,
        "slot": "1",
        "type": "t_uint8"
      },
      {
        "astId": 998,
        "contract": "contracts/protocol/LendingMarketController.sol:LendingMarketController",
        "label": "_initializing",
        "offset": 1,
        "slot": "1",
        "type": "t_bool"
      },
      {
        "astId": 37404,
        "contract": "contracts/protocol/LendingMarketController.sol:LendingMarketController",
        "label": "lockedBy",
        "offset": 2,
        "slot": "1",
        "type": "t_address"
      }
    ],
    "types": {
      "t_address": {
        "encoding": "inplace",
        "label": "address",
        "numberOfBytes": "20"
      },
      "t_bool": {
        "encoding": "inplace",
        "label": "bool",
        "numberOfBytes": "1"
      },
      "t_uint256": {
        "encoding": "inplace",
        "label": "uint256",
        "numberOfBytes": "32"
      },
      "t_uint8": {
        "encoding": "inplace",
        "label": "uint8",
        "numberOfBytes": "1"
      }
    }
  }
}