{
  "address": "0xEd6B4b75fc3ee750D17e37F71d82f1b6a66AF9b5",
  "abi": [
    {
      "anonymous": false,
      "inputs": [
        {
          "indexed": false,
          "internalType": "bytes32",
          "name": "ccy",
          "type": "bytes32"
        },
        {
          "indexed": false,
          "internalType": "uint256",
          "name": "previousRate",
          "type": "uint256"
        },
        {
          "indexed": false,
          "internalType": "uint256",
          "name": "rate",
          "type": "uint256"
        }
      ],
      "name": "AutoRollFeeRateUpdated",
      "type": "event"
    },
    {
      "anonymous": false,
      "inputs": [
        {
          "indexed": false,
          "internalType": "bytes32",
          "name": "ccy",
          "type": "bytes32"
        },
        {
          "indexed": false,
          "internalType": "uint256",
          "name": "previousRate",
          "type": "uint256"
        },
        {
          "indexed": false,
          "internalType": "uint256",
          "name": "rate",
          "type": "uint256"
        }
      ],
      "name": "CircuitBreakerLimitRangeUpdated",
      "type": "event"
    },
    {
      "anonymous": false,
      "inputs": [
        {
          "indexed": false,
          "internalType": "uint256",
          "name": "previousPeriod",
          "type": "uint256"
        },
        {
          "indexed": false,
          "internalType": "uint256",
          "name": "period",
          "type": "uint256"
        }
      ],
      "name": "ObservationPeriodUpdated",
      "type": "event"
    },
    {
      "anonymous": false,
      "inputs": [
        {
          "indexed": false,
          "internalType": "bytes32",
          "name": "ccy",
          "type": "bytes32"
        },
        {
          "indexed": false,
          "internalType": "uint256",
          "name": "previousRate",
          "type": "uint256"
        },
        {
          "indexed": false,
          "internalType": "uint256",
          "name": "rate",
          "type": "uint256"
        }
      ],
      "name": "OrderFeeRateUpdated",
      "type": "event"
    },
    {
      "inputs": [
        {
          "internalType": "bytes32",
          "name": "_ccy",
          "type": "bytes32"
        },
        {
          "internalType": "uint256",
          "name": "_amount",
          "type": "uint256"
        },
        {
          "internalType": "uint256",
          "name": "_maturity",
          "type": "uint256"
        }
      ],
      "name": "calculateOrderFeeAmount",
      "outputs": [
        {
          "internalType": "uint256",
          "name": "orderFeeAmount",
          "type": "uint256"
        }
      ],
      "stateMutability": "view",
      "type": "function"
    },
    {
      "inputs": [
        {
          "internalType": "bytes32",
          "name": "_ccy",
          "type": "bytes32"
        }
      ],
      "name": "getCircuitBreakerLimitRange",
      "outputs": [
        {
          "internalType": "uint256",
          "name": "",
          "type": "uint256"
        }
      ],
      "stateMutability": "view",
      "type": "function"
    },
    {
      "inputs": [],
      "name": "getObservationPeriod",
      "outputs": [
        {
          "internalType": "uint256",
          "name": "",
          "type": "uint256"
        }
      ],
      "stateMutability": "view",
      "type": "function"
    },
    {
      "inputs": [
        {
          "internalType": "bytes32",
          "name": "_ccy",
          "type": "bytes32"
        }
      ],
      "name": "getOrderFeeRate",
      "outputs": [
        {
          "internalType": "uint256",
          "name": "",
          "type": "uint256"
        }
      ],
      "stateMutability": "view",
      "type": "function"
    }
  ],
  "transactionHash": "0x46a0f05d8efc9e5059e8b8c611dcf03cdd8a9a46eb981047d1db8f2fe4e69de6",
  "args": [],
  "numDeployments": 2,
  "solcInputHash": "b57600b51ef0b115c52371ee9eb0c58d",
  "bytecode": "0x61077f61003a600b82828239805160001a60731461002d57634e487b7160e01b600052600060045260246000fd5b30600052607381538281f3fe73000000000000000000000000000000000000000030146080604052600436106100925760003560e01c80637b588aaa116100655780637b588aaa146101575780638ba14e38146101775780638c197d8d1461018a578063f1eaebae146101aa57600080fd5b806303e5fb59146100975780632f749574146100d65780634e78fecc146100f85780635ca65d5714610137575b600080fd5b6100c46100a536600461063c565b600090815260008051602061072a833981519152602052604090205490565b60405190815260200160405180910390f35b8180156100e257600080fd5b506100f66100f1366004610655565b6101d1565b005b6100c461010636600461063c565b60009081527ffd57fda692f2d6ebd63634bcff565f4a5bd9da5175c220bd0ae0da0b8f69d319602052604090205490565b81801561014357600080fd5b506100f6610152366004610655565b6102d6565b81801561016357600080fd5b506100f6610172366004610655565b6103a1565b6100c4610185366004610677565b6104a3565b81801561019657600080fd5b506100f66101a536600461063c565b61054a565b7ffd57fda692f2d6ebd63634bcff565f4a5bd9da5175c220bd0ae0da0b8f69d31a546100c4565b6127108111156102285760405162461bcd60e51b815260206004820152601a60248201527f496e76616c6964206175746f2d726f6c6c20666565207261746500000000000060448201526064015b60405180910390fd5b60008281527ffd57fda692f2d6ebd63634bcff565f4a5bd9da5175c220bd0ae0da0b8f69d31860205260409020548181146102d15760008381527ffd57fda692f2d6ebd63634bcff565f4a5bd9da5175c220bd0ae0da0b8f69d318602090815260409182902084905581518581529081018390529081018390527ff9b6ff302b45c656a6ddc9cb245bb27b3eb84bea81cb723687c350971fef2420906060015b60405180910390a15b505050565b6127108111156103215760405162461bcd60e51b8152602060048201526016602482015275496e76616c6964206f7264657220666565207261746560501b604482015260640161021f565b600082815260008051602061072a83398151915260205260409020548181146102d157600083815260008051602061072a833981519152602090815260409182902084905581518581529081018390529081018390527fad24e9bff76148b1b779fc330ea225198d2b44136c7a8e5fbec46c99c7775632906060016102c8565b6127108111156103ff5760405162461bcd60e51b815260206004820152602360248201527f496e76616c6964206369726375697420627265616b6572206c696d69742072616044820152626e676560e81b606482015260840161021f565b60008281527ffd57fda692f2d6ebd63634bcff565f4a5bd9da5175c220bd0ae0da0b8f69d31960205260409020548181146102d15760008381527ffd57fda692f2d6ebd63634bcff565f4a5bd9da5175c220bd0ae0da0b8f69d319602090815260409182902084905581518581529081018390529081018390527fee52d515b96986517a19b501c0a50b03f4edace46ba0484faaea7590969adcf6906060016102c8565b60008142106104e75760405162461bcd60e51b815260206004820152601060248201526f496e76616c6964206d6174757269747960801b604482015260640161021f565b60006104f342846106b9565b90506105416105086127106301e133806106d0565b600087815260008051602061072a833981519152602052604090205486906105319085906106d0565b61053b91906106d0565b906105c5565b95945050505050565b7ffd57fda692f2d6ebd63634bcff565f4a5bd9da5175c220bd0ae0da0b8f69d31a548181146105c1578160008051602061072a8339815191526003015560408051828152602081018490527fb310034e792eb345456b77ee9b3ade0d30b9866d547921c8f4d5e9273c941a90910160405180910390a15b5050565b60008082116105d357600080fd5b60056105df83856106ef565b6105ea90600a6106d0565b836105f686600a6106d0565b61060091906106ef565b61060a91906106b9565b10156106215761061a82846106ef565b9050610636565b61062b82846106ef565b61061a906001610711565b92915050565b60006020828403121561064e57600080fd5b5035919050565b6000806040838503121561066857600080fd5b50508035926020909101359150565b60008060006060848603121561068c57600080fd5b505081359360208301359350604090920135919050565b634e487b7160e01b600052601160045260246000fd5b6000828210156106cb576106cb6106a3565b500390565b60008160001904831182151516156106ea576106ea6106a3565b500290565b60008261070c57634e487b7160e01b600052601260045260246000fd5b500490565b60008219821115610724576107246106a3565b50019056fefd57fda692f2d6ebd63634bcff565f4a5bd9da5175c220bd0ae0da0b8f69d317a2646970667358221220b732294c732f1a9bb6c9d0d188f532f3ee2b539f6e7013df9b419a647d6ebdf364736f6c63430008090033",
  "devdoc": {
    "kind": "dev",
    "methods": {},
    "version": 1
  },
  "userdoc": {
    "kind": "user",
    "methods": {},
    "version": 1
  },
  "storageLayout": {
    "storage": [],
    "types": null
  }
}