{
  "address": "0xC11fA5f6F5C2436F48E0568a0170caE498254372",
  "abi": [
    {
      "inputs": [
        {
          "internalType": "enum ProtocolTypes.Side",
          "name": "_side",
          "type": "ProtocolTypes.Side"
        },
        {
          "internalType": "uint256",
          "name": "_futureValue",
          "type": "uint256"
        }
      ],
      "name": "estimateFilledAmount",
      "outputs": [
        {
          "internalType": "uint256",
          "name": "amount",
          "type": "uint256"
        }
      ],
      "stateMutability": "view",
      "type": "function"
    },
    {
      "inputs": [
        {
          "internalType": "uint256",
          "name": "_limit",
          "type": "uint256"
        }
      ],
      "name": "getBorrowOrderBook",
      "outputs": [
        {
          "internalType": "uint256[]",
          "name": "unitPrices",
          "type": "uint256[]"
        },
        {
          "internalType": "uint256[]",
          "name": "amounts",
          "type": "uint256[]"
        },
        {
          "internalType": "uint256[]",
          "name": "quantities",
          "type": "uint256[]"
        }
      ],
      "stateMutability": "view",
      "type": "function"
    },
    {
      "inputs": [
        {
          "internalType": "address",
          "name": "_user",
          "type": "address"
        }
      ],
      "name": "getBorrowOrderIds",
      "outputs": [
        {
          "internalType": "uint48[]",
          "name": "activeOrderIds",
          "type": "uint48[]"
        },
        {
          "internalType": "uint48[]",
          "name": "inActiveOrderIds",
          "type": "uint48[]"
        }
      ],
      "stateMutability": "view",
      "type": "function"
    },
    {
      "inputs": [],
      "name": "getHighestLendingUnitPrice",
      "outputs": [
        {
          "internalType": "uint256",
          "name": "",
          "type": "uint256"
        }
      ],
      "stateMutability": "view",
      "type": "function"
    },
    {
      "inputs": [
        {
          "internalType": "uint256",
          "name": "_limit",
          "type": "uint256"
        }
      ],
      "name": "getLendOrderBook",
      "outputs": [
        {
          "internalType": "uint256[]",
          "name": "unitPrices",
          "type": "uint256[]"
        },
        {
          "internalType": "uint256[]",
          "name": "amounts",
          "type": "uint256[]"
        },
        {
          "internalType": "uint256[]",
          "name": "quantities",
          "type": "uint256[]"
        }
      ],
      "stateMutability": "view",
      "type": "function"
    },
    {
      "inputs": [
        {
          "internalType": "address",
          "name": "_user",
          "type": "address"
        }
      ],
      "name": "getLendOrderIds",
      "outputs": [
        {
          "internalType": "uint48[]",
          "name": "activeOrderIds",
          "type": "uint48[]"
        },
        {
          "internalType": "uint48[]",
          "name": "inActiveOrderIds",
          "type": "uint48[]"
        }
      ],
      "stateMutability": "view",
      "type": "function"
    },
    {
      "inputs": [],
      "name": "getLowestBorrowingUnitPrice",
      "outputs": [
        {
          "internalType": "uint256",
          "name": "",
          "type": "uint256"
        }
      ],
      "stateMutability": "view",
      "type": "function"
    },
    {
      "inputs": [],
      "name": "getOpeningUnitPrice",
      "outputs": [
        {
          "internalType": "uint256",
          "name": "openingUnitPrice",
          "type": "uint256"
        },
        {
          "internalType": "uint256",
          "name": "lastLendUnitPrice",
          "type": "uint256"
        },
        {
          "internalType": "uint256",
          "name": "lastBorrowUnitPrice",
          "type": "uint256"
        },
        {
          "internalType": "uint256",
          "name": "totalOffsetAmount",
          "type": "uint256"
        }
      ],
      "stateMutability": "view",
      "type": "function"
    },
    {
      "inputs": [
        {
          "internalType": "uint48",
          "name": "_orderId",
          "type": "uint48"
        }
      ],
      "name": "getOrder",
      "outputs": [
        {
          "internalType": "enum ProtocolTypes.Side",
          "name": "side",
          "type": "ProtocolTypes.Side"
        },
        {
          "internalType": "uint256",
          "name": "unitPrice",
          "type": "uint256"
        },
        {
          "internalType": "uint256",
          "name": "maturity",
          "type": "uint256"
        },
        {
          "internalType": "address",
          "name": "maker",
          "type": "address"
        },
        {
          "internalType": "uint256",
          "name": "amount",
          "type": "uint256"
        },
        {
          "internalType": "uint256",
          "name": "timestamp",
          "type": "uint256"
        },
        {
          "internalType": "bool",
          "name": "isPreOrder",
          "type": "bool"
        }
      ],
      "stateMutability": "view",
      "type": "function"
    },
    {
      "inputs": [
        {
          "internalType": "address",
          "name": "_user",
          "type": "address"
        }
      ],
      "name": "getTotalAmountFromBorrowOrders",
      "outputs": [
        {
          "internalType": "uint256",
          "name": "activeAmount",
          "type": "uint256"
        },
        {
          "internalType": "uint256",
          "name": "inactiveAmount",
          "type": "uint256"
        },
        {
          "internalType": "uint256",
          "name": "inactiveFutureValue",
          "type": "uint256"
        },
        {
          "internalType": "uint256",
          "name": "maturity",
          "type": "uint256"
        }
      ],
      "stateMutability": "view",
      "type": "function"
    },
    {
      "inputs": [
        {
          "internalType": "address",
          "name": "_user",
          "type": "address"
        }
      ],
      "name": "getTotalAmountFromLendOrders",
      "outputs": [
        {
          "internalType": "uint256",
          "name": "activeAmount",
          "type": "uint256"
        },
        {
          "internalType": "uint256",
          "name": "inactiveAmount",
          "type": "uint256"
        },
        {
          "internalType": "uint256",
          "name": "inactiveFutureValue",
          "type": "uint256"
        },
        {
          "internalType": "uint256",
          "name": "maturity",
          "type": "uint256"
        }
      ],
      "stateMutability": "view",
      "type": "function"
    },
    {
      "inputs": [
        {
          "internalType": "address",
          "name": "_user",
          "type": "address"
        }
      ],
      "name": "hasBorrowOrder",
      "outputs": [
        {
          "internalType": "bool",
          "name": "",
          "type": "bool"
        }
      ],
      "stateMutability": "view",
      "type": "function"
    },
    {
      "inputs": [
        {
          "internalType": "address",
          "name": "_user",
          "type": "address"
        }
      ],
      "name": "hasLendOrder",
      "outputs": [
        {
          "internalType": "bool",
          "name": "",
          "type": "bool"
        }
      ],
      "stateMutability": "view",
      "type": "function"
    }
  ],
  "transactionHash": "0xfb6b5bec887e86c0d834f27374ebea7923058c851eb40fce63b4a2ca8f4bc594",
  "args": [],
  "numDeployments": 4,
  "solcInputHash": "6825000ef597f2c360d7e15edb13df2c",
  "bytecode": "0x6156336200003b600b82828239805160001a60731461002e57634e487b7160e01b600052600060045260246000fd5b30600052607381538281f3fe730000000000000000000000000000000000000000301460806040526004361061012b5760003560e01c80638152b173116100b7578063e2afb0411161007b578063e2afb04114610378578063e3d904d814610380578063e7df768c14610393578063fa6127aa146103a6578063fe199197146103b957600080fd5b80638152b173146102b3578063a117eff5146102d4578063bcc012ad1461033f578063ceff498f14610352578063d866d3551461036557600080fd5b8063614152b9116100fe578063614152b9146101fd5780636814ed84146102135780636a2c4274146102365780636c5db8431461025e5780637ce219aa1461028d57600080fd5b806330318f1c1461013057806339ef2b0a1461016c5780634bf62d16146101ab5780635f897211146101cd575b600080fd5b81801561013c57600080fd5b5061015061014b366004615181565b6103d9565b60405165ffffffffffff90911681526020015b60405180910390f35b81801561017857600080fd5b5061018c6101873660046151c3565b6105e0565b6040805193151584526020840192909252151590820152606001610163565b6101be6101b93660046151f6565b6108cb565b6040516101639392919061524a565b8180156101d957600080fd5b506101ed6101e836600461528d565b610b5b565b60405161016394939291906152e0565b610205610cb8565b604051908152602001610163565b61022661022136600461528d565b610cde565b6040519015158152602001610163565b61023e610d0c565b604080519485526020850193909352918301526060820152608001610163565b81801561026a57600080fd5b5061027e610279366004615325565b610f17565b60405161016393929190615390565b6102a061029b3660046153af565b6110b5565b60405161016397969594939291906153ca565b6102c66102c136600461528d565b611269565b604051610163929190615413565b8180156102e057600080fd5b506102f46102ef366004615441565b6115c5565b6040805198895260208901979097529587019490945265ffffffffffff90921660608601526001600160a01b0316608085015260a084015260c083015260e082015261010001610163565b6102c661034d36600461528d565b6116ce565b61022661036036600461528d565b6119dd565b6101be6103733660046151f6565b611a0b565b610205611c45565b61023e61038e36600461528d565b611c57565b61023e6103a136600461528d565b611e57565b6102056103b436600461547a565b611ffa565b8180156103c557600080fd5b506101ed6103d436600461528d565b612095565b60006103e36121da565b9050604051806080016040528086600181111561040257610402615358565b8152602001838152602001610415612239565b6003015481526020014281525061042a612239565b65ffffffffffff831660009081526009919091016020526040902081518154829060ff19166001838181111561046257610462615358565b02179055506020820151600182015560408201516002820155606090910151600390910155600085600181111561049b5761049b615358565b1415610544576104e0828286866104b0612239565b600b0160006104bd612239565b60030154815260200190815260200160002061225d90949392919063ffffffff16565b6104e8612239565b6001600160a01b03851660009081526006918201602090815260408220805460018101825590835291206005808304909101805465ffffffffffff808716939094069094026101000a91820292909102199092161790556105d8565b600185600181111561055857610558615358565b14156105d85761057a8282868661056d612239565b600c0160006104bd612239565b610582612239565b6001600160a01b03851660009081526007919091016020908152604082208054600181018255908352912060058083049091018054919092066006026101000a65ffffffffffff81810219909216918416021790555b949350505050565b6000806000612710841061063b5760405162461bcd60e51b815260206004820152601b60248201527f4342206c696d69742063616e206e6f7420626520736f2068696768000000000060448201526064015b60405180910390fd5b6000610645612239565b600d016000438152602001908152602001600020600088600181111561066d5761066d615358565b600181111561067e5761067e615358565b815260208101919091526040016000908120549150808860018111156106a6576106a6615358565b149050600080821561075f576106e16106bd612239565b600c0160006106ca612239565b600301548152602001908152602001600020612308565b9050806000141591508180156106f5575083155b1561075a57610704888261234f565b93508361070f612239565b600d01600043815260200190815260200160002060008c600181111561073757610737615358565b600181111561074857610748615358565b81526020810191909152604001600020555b610807565b61078e61076a612239565b600b016000610777612239565b60030154815260200190815260200160002061241b565b9050806000141591508180156107a2575083155b15610807576107b1888261245d565b9350836107bc612239565b600d01600043815260200190815260200160002060008c60018111156107e4576107e4615358565b60018111156107f5576107f5615358565b81526020810191909152604001600020555b88158015610813575081155b156108525760405162461bcd60e51b815260206004820152600f60248201526e13dc99195c881b9bdd08199bdd5b99608a1b6044820152606401610632565b8815806108815750818015610881575082801561086e57508389115b8061088157508215801561088157508389105b15610892578395506001945061089a565b889550600094505b826108a857858110156108bc565b8581156108b557816108b9565b6127105b11155b96505050505093509350939050565b60608060608367ffffffffffffffff8111156108e9576108e96154a4565b604051908082528060200260200182016040528015610912578160200160208202803683370190505b5092508367ffffffffffffffff81111561092e5761092e6154a4565b604051908082528060200260200182016040528015610957578160200160208202803683370190505b5091508367ffffffffffffffff811115610973576109736154a4565b60405190808252806020026020018201604052801561099c578160200160208202803683370190505b50905060006109ac61076a612239565b905080846000815181106109c2576109c26154ba565b602002602001018181525050610a07816109da612239565b600b0160006109e7612239565b60030154815260200190815260200160002061250a90919063ffffffff16565b83600081518110610a1a57610a1a6154ba565b602002602001018181525050610a5f81610a32612239565b600b016000610a3f612239565b60030154815260200190815260200160002061252390919063ffffffff16565b82600081518110610a7257610a726154ba565b602090810291909101015260015b8451811015610b525781610a9357610b52565b610acc82610a9f612239565b600b016000610aac612239565b60030154815260200190815260200160002061253c90919063ffffffff16565b915081858281518110610ae157610ae16154ba565b602002602001018181525050610af9826109da612239565b848281518110610b0b57610b0b6154ba565b602002602001018181525050610b2382610a32612239565b838281518110610b3557610b356154ba565b602090810291909101015280610b4a816154e6565b915050610a80565b50509193909250565b60606000806000806000610b6e87611269565b9150915081610b7b612239565b6006016000896001600160a01b03166001600160a01b031681526020019081526020016000209080519060200190610bb4929190615058565b50815181519095508067ffffffffffffffff811115610bd557610bd56154a4565b604051908082528060200260200182016040528015610bfe578160200160208202803683370190505b50965060005b81811015610cad57600080610c31858481518110610c2457610c246154ba565b6020026020010151612636565b9092509050610c408288615501565b9650610c4c8189615501565b9750848381518110610c6057610c606154ba565b60200260200101518a8481518110610c7a57610c7a6154ba565b602002602001019065ffffffffffff16908165ffffffffffff168152505050508080610ca5906154e6565b915050610c04565b505050509193509193565b600080610cc66106bd612239565b90508015610cd45780610cd8565b6127105b91505090565b6000610ce8612239565b6001600160a01b039092166000908152600792909201602052506040902054151590565b6000806000806000610d1c611c45565b90506000610d28610cb8565b90506000610d38836109da612239565b90506000610d5583610d48612239565b600c0160006109e7612239565b90506000610d61612239565b600c016000610d6e612239565b60030154815260200190815260200160002090506000610d8c612239565b600b016000610d99612239565b600301548152602001908152602001600020905085851115610de257610dca6002610dc48789615501565b90612777565b995060009850889750879650610f1195505050505050565b858511158015610df25750600085115b8015610dfe5750600086115b15610f0a5785985084975082841115610e57578599508287610e209190615501565b9650610e2c8385615519565b9350610e3882866127e1565b60008181526001840160205260409020600501549095505b9250610de2565b82841015610ea4578499508387610e6e9190615501565b9650610e7a8484615519565b9250610e86818761253c565b60008181526001830160205260409020600501549096509350610de2565b610eb36002610dc48789615501565b9950610ebf8488615501565b9650610ecb818761253c565b9550610ed782866127e1565b60008781526001830160205260409020600501549095506000868152600184016020526040902060050154909450610e50565b5050505050505b90919293565b600080600080610f25612239565b65ffffffffffff861660009081526009919091016020526040908190208151608081019092528054829060ff166001811115610f6357610f63615358565b6001811115610f7457610f74615358565b81526001820154602082015260028201546040820152600390910154606090910152905060008082516001811115610fae57610fae615358565b141561102f57610ff3826020015187610fc5612239565b600b016000610fd2612239565b6003015481526020019081526020016000206128db9092919063ffffffff16565b905061102a611000612239565b6001600160a01b03891660009081526006919091016020526040902065ffffffffffff88166128fb565b61109f565b60018251600181111561104457611044615358565b141561109f5761106882602001518761105b612239565b600c016000610fd2612239565b905061109f611075612239565b6001600160a01b03891660009081526007919091016020526040902065ffffffffffff88166128fb565b8151602090920151919450925090509250925092565b6000806000806000806000806110c9612239565b65ffffffffffff8a1660009081526009919091016020526040908190208151608081019092528054829060ff16600181111561110757611107615358565b600181111561111857611118615358565b8152602001600182015481526020016002820154815260200160038201548152505090506111746040805160c081018252600080825260208201819052918101829052606081018290526080810182905260a081019190915290565b60008251600181111561118957611189615358565b14156111c4576111bd82602001518b6111a0612239565b6040808701516000908152600b9290920160205290209190612a51565b90506111f5565b6111f282602001518b6111d5612239565b6040808701516000908152600c9290920160205290209190612a51565b90505b60608101516001600160a01b03161561125c57816000015198508160200151975081604001519650806060015195508060a0015194508060800151935061123a612239565b65ffffffffffff8b166000908152600a91909101602052604090205460ff1692505b5050919395979092949650565b6060806000806000611279612239565b60030154611285612239565b6001600160a01b0388166000908152600891909101602052604090205414159050806112d5576112b3612239565b6001600160a01b038716600090815260069190910160205260409020546112d8565b60005b67ffffffffffffffff8111156112f0576112f06154a4565b604051908082528060200260200182016040528015611319578160200160208202803683370190505b509450611324612239565b6001600160a01b0387166000908152600691909101602052604090205467ffffffffffffffff811115611359576113596154a4565b604051908082528060200260200182016040528015611382578160200160208202803683370190505b50935060005b611390612239565b6001600160a01b038816600090815260069190910160205260409020548110156115bc5760006113be612239565b6001600160a01b0389166000908152600691909101602052604090208054839081106113ec576113ec6154ba565b90600052602060002090600591828204019190066006029054906101000a900465ffffffffffff1690506000611420612239565b65ffffffffffff831660009081526009919091016020526040908190208151608081019092528054829060ff16600181111561145e5761145e615358565b600181111561146f5761146f615358565b8152602001600182015481526020016002820154815260200160038201548152505090506114f58160200151836114a4612239565b600b0160006114b1612239565b60080160008f6001600160a01b03166001600160a01b03168152602001908152602001600020548152602001908152602001600020612b089092919063ffffffff16565b61155257611504600186615501565b945081876115128886615519565b81518110611522576115226154ba565b602002602001019065ffffffffffff16908165ffffffffffff16815250508361154d57600188510388525b6115a7565b8361159f57611562600187615501565b955081886115708786615519565b81518110611580576115806154ba565b602002602001019065ffffffffffff16908165ffffffffffff16815250505b600187510387525b505080806115b4906154e6565b915050611388565b50505050915091565b6000806000806000806000806115d961510d565b60018d60018111156115ed576115ed615358565b1415611641576116308c8b8d611601612239565b600b01600061160e612239565b600301548152602001908152602001600020612b26909392919063ffffffff16565b939c50919a509850925090506116a5565b60008d600181111561165557611655615358565b14156116a5576116988c8b8d611669612239565b600c016000611676612239565b600301548152602001908152602001600020612e64909392919063ffffffff16565b939c50919a509850925090505b8051602082015160408301516060909301519a9f999e50979c509a509598509496959350505050565b60608060008060006116de612239565b600301546116ea612239565b6001600160a01b03881660009081526008919091016020526040902054141590508061173a57611718612239565b6001600160a01b0387166000908152600791909101602052604090205461173d565b60005b67ffffffffffffffff811115611755576117556154a4565b60405190808252806020026020018201604052801561177e578160200160208202803683370190505b509450611789612239565b6001600160a01b0387166000908152600791909101602052604090205467ffffffffffffffff8111156117be576117be6154a4565b6040519080825280602002602001820160405280156117e7578160200160208202803683370190505b50935060005b6117f5612239565b6001600160a01b038816600090815260079190910160205260409020548110156115bc576000611823612239565b6001600160a01b038916600090815260079190910160205260409020805483908110611851576118516154ba565b90600052602060002090600591828204019190066006029054906101000a900465ffffffffffff1690506000611885612239565b65ffffffffffff831660009081526009919091016020526040908190208151608081019092528054829060ff1660018111156118c3576118c3615358565b60018111156118d4576118d4615358565b815260200160018201548152602001600282015481526020016003820154815250509050611916816020015183611909612239565b600c0160006114b1612239565b61197357611925600186615501565b945081876119338886615519565b81518110611943576119436154ba565b602002602001019065ffffffffffff16908165ffffffffffff16815250508361196e57600188510388525b6119c8565b61197e600187615501565b9550836119c05781886119918786615519565b815181106119a1576119a16154ba565b602002602001019065ffffffffffff16908165ffffffffffff16815250505b600187510387525b505080806119d5906154e6565b9150506117ed565b60006119e7612239565b6001600160a01b039092166000908152600692909201602052506040902054151590565b60608060608367ffffffffffffffff811115611a2957611a296154a4565b604051908082528060200260200182016040528015611a52578160200160208202803683370190505b5092508367ffffffffffffffff811115611a6e57611a6e6154a4565b604051908082528060200260200182016040528015611a97578160200160208202803683370190505b5091508367ffffffffffffffff811115611ab357611ab36154a4565b604051908082528060200260200182016040528015611adc578160200160208202803683370190505b5090506000611aec6106bd612239565b90508084600081518110611b0257611b026154ba565b602002602001018181525050611b1a81610d48612239565b83600081518110611b2d57611b2d6154ba565b602002602001018181525050611b5281611b45612239565b600c016000610a3f612239565b82600081518110611b6557611b656154ba565b602090810291909101015260015b8451811015610b525781611b8657610b52565b611bbf82611b92612239565b600c016000611b9f612239565b6003015481526020019081526020016000206127e190919063ffffffff16565b915081858281518110611bd457611bd46154ba565b602002602001018181525050611bec82610d48612239565b848281518110611bfe57611bfe6154ba565b602002602001018181525050611c1682611b45612239565b838281518110611c2857611c286154ba565b602090810291909101015280611c3d816154e6565b915050611b73565b6000611c5261076a612239565b905090565b600080600080600080611c69876116ce565b91509150611c75612239565b6001600160a01b0388166000908152600891909101602052604081205493505b8251811015611dc4576000611ca8612239565b6009016000858481518110611cbf57611cbf6154ba565b602002602001015165ffffffffffff1681526020019081526020016000206040518060800160405290816000820160009054906101000a900460ff166001811115611d0c57611d0c615358565b6001811115611d1d57611d1d615358565b8152602001600182015481526020016002820154815260200160038201548152505090506000611d9b8260200151868581518110611d5d57611d5d6154ba565b6020026020010151611d6d612239565b600c016000611d7a612239565b600301548152602001908152602001600020612a519092919063ffffffff16565b90508060a0015189611dad9190615501565b985050508080611dbc906154e6565b915050611c95565b50611dcd612239565b6001600160a01b0388166000908152600891909101602052604081205493505b8151811015611e4d57600080611e1b848481518110611e0e57611e0e6154ba565b60200260200101516131a6565b9092509050611e2a8289615501565b9750611e368188615501565b965050508080611e45906154e6565b915050611ded565b5050509193509193565b600080600080600080611e6987611269565b91509150611e75612239565b6001600160a01b0388166000908152600891909101602052604081205493505b8251811015611fa3576000611ea8612239565b6009016000858481518110611ebf57611ebf6154ba565b602002602001015165ffffffffffff1681526020019081526020016000206040518060800160405290816000820160009054906101000a900460ff166001811115611f0c57611f0c615358565b6001811115611f1d57611f1d615358565b8152602001600182015481526020016002820154815260200160038201548152505090506000611f7a8260200151868581518110611f5d57611f5d6154ba565b6020026020010151611f6d612239565b600b016000611d7a612239565b90508060a0015189611f8c9190615501565b985050508080611f9b906154e6565b915050611e95565b5060005b8151811015611e4d57600080611fc8848481518110610c2457610c246154ba565b9092509050611fd78289615501565b9750611fe38188615501565b965050508080611ff2906154e6565b915050611fa7565b6000600183600181111561201057612010615358565b14156120565761204f82612022612239565b600b01600061202f612239565b6003015481526020019081526020016000206132c490919063ffffffff16565b905061208f565b61204f82612062612239565b600c01600061206f612239565b60030154815260200190815260200160002061337890919063ffffffff16565b92915050565b606060008060008060006120a8876116ce565b91509150816120b5612239565b6007016000896001600160a01b03166001600160a01b0316815260200190815260200160002090805190602001906120ee929190615058565b50815181519095508067ffffffffffffffff81111561210f5761210f6154a4565b604051908082528060200260200182016040528015612138578160200160208202803683370190505b50965060005b81811015610cad5760008061215e858481518110611e0e57611e0e6154ba565b909250905061216d8288615501565b96506121798189615501565b975084838151811061218d5761218d6154ba565b60200260200101518a84815181106121a7576121a76154ba565b602002602001019065ffffffffffff16908165ffffffffffff1681525050505080806121d2906154e6565b91505061213e565b60006121e4612239565b600101805465ffffffffffff169060006121fd83615530565b91906101000a81548165ffffffffffff021916908365ffffffffffff16021790555050612228612239565b6001015465ffffffffffff16919050565b7ffc2836757f9146445fc75bc3c897a210ec004e4ee60fc8627ef5cbf2842b3d0a90565b600081116122a35760405162461bcd60e51b8152602060048201526013602482015272125b9cdd59999a58da595b9d08185b5bdd5b9d606a1b6044820152606401610632565b6127108411156122ea5760405162461bcd60e51b8152602060048201526012602482015271496e73756666696369656e742076616c756560701b6044820152606401610632565b6122f4858561342c565b61230185858585856135f5565b5050505050565b80548061231757506000919050565b5b60008181526001808401602052604090912001541561234a576000908152600180830160205260409091200154612318565b919050565b60008061271061235f8185615556565b6123699190615556565b9050600061237985612710615519565b61238585612710615519565b61238f9190615556565b61239b61271086615556565b6123a59190615501565b90506123b18282612777565b92506123be60c885615501565b8311156123d7576123d060c885615501565b9250612413565b6123e2600a85615501565b831015612413576127106123f7600a86615501565b111561240557612710612410565b612410600a85615501565b92505b505092915050565b80548061242a57506000919050565b5b60008181526001830160205260409020600201541561234a57600090815260018201602052604090206002015461242b565b60008061271061246d8185615556565b6124779190615556565b9050600061248785612710615501565b61249385612710615519565b61249d9190615556565b6124a961271086615556565b6124b39190615501565b90506124bf8282612777565b92506124cc60c884615501565b8411156124de576123d060c885615519565b6124e9600a84615501565b84101561241357600a84116124ff576001612410565b612410600a85615519565b6000908152600191909101602052604090206005015490565b6000908152600191909101602052604090206004015490565b6000816125ac5760405162461bcd60e51b815260206004820152603860248201527f4f7264657253746174697374696373547265652834303229202d205374617274604482015277696e672076616c75652063616e6e6f74206265207a65726f60401b6064820152608401610632565b6000828152600180850160205260409091200154156125e457600082815260018085016020526040909120015461204f908490613675565b5060008181526001830160205260409020545b80158015906126185750600081815260018085016020526040909120015482145b1561208f5760008181526001840160205260409020549091506125f7565b6000806000612643612239565b65ffffffffffff851660009081526009919091016020526040908190208151608081019092528054829060ff16600181111561268157612681615358565b600181111561269257612692615358565b81526020016001820154815260200160028201548152602001600382015481525050905060006126c98260200151866111a0612239565b60208301519091506126d9612239565b65ffffffffffff87166000908152600a91909101602052604090205460ff1615612756576000612707612239565b60408086015160009081526004929092016020528120549150612728612239565b6040808701516000908152600e9290920160205290205490508281111561274f5782612751565b815b925050505b60a0820151945061276d81610dc461271088615556565b9350505050915091565b600080821161278557600080fd5b60056127918385615575565b61279c90600a615556565b836127a886600a615556565b6127b29190615575565b6127bc9190615519565b10156127cc5761204f8284615575565b6127d68284615575565b61204f906001615501565b6000816128515760405162461bcd60e51b815260206004820152603860248201527f4f7264657253746174697374696373547265652834303129202d205374617274604482015277696e672076616c75652063616e6e6f74206265207a65726f60401b6064820152608401610632565b60008281526001840160205260409020600201541561288957600082815260018401602052604090206002015461204f9084906136b2565b5060008181526001830160205260409020545b80158015906128bd5750600081815260018401602052604090206002015482145b1561208f57600081815260018401602052604090205490915061289c565b60006128e88484846136ea565b90506128f48484613956565b9392505050565b815460009061290c90600190615519565b905060005b818111612a4b578284828154811061292b5761292b6154ba565b90600052602060002090600591828204019190066006029054906101000a900465ffffffffffff1665ffffffffffff161415612a39578181146129f257600084838154811061297c5761297c6154ba565b90600052602060002090600591828204019190066006029054906101000a900465ffffffffffff169050808583815481106129b9576129b96154ba565b90600052602060002090600591828204019190066006026101000a81548165ffffffffffff021916908365ffffffffffff160217905550505b83805480612a0257612a02615597565b60019003818190600052602060002090600591828204019190066006026101000a81549065ffffffffffff02191690559055612a4b565b80612a43816154e6565b915050612911565b50505050565b6040805160c081018252600080825260208201819052918101829052606081018290526080810182905260a081019190915250600091825260019283016020908152604080842065ffffffffffff9384168552600601825292839020835160c08101855281548085168252600160301b8104851693820193909352600160601b90920490921692810192909252918201546001600160a01b031660608201526002820154608082015260039091015460a082015290565b6000612b15848484613c13565b80156105d857506105d88484613d5c565b600080600080612b3461510d565b6000612b3f8a61241b565b90506000808983101580612b51575089155b612b985760405162461bcd60e51b8152602060048201526018602482015277496e73756666696369656e74206c696d69742076616c756560401b6044820152606401610632565b6000805b8c831080612ba857508c155b8015612bbb57508a881080612bbb57508a155b8015612bc657508415155b8015612bda57508b85101580612bda57508b155b15612c9357600085815260018f0160205260409020600501549350612bff8484615501565b9250849950612c0e8585613e15565b612c189089615501565b9750612c24848a615501565b98508c83118015612c3457508c15155b15612c5657612c438d84615519565b9150612c4f8583613e15565b9050612c82565b8a88118015612c6457508a15155b15612c8257612c738b89615519565b9050612c7f8582613e27565b91505b612c8c8e8661253c565b9450612b9c565b8115612ca657612ca3828a615519565b98505b8015612cb957612cb68189615519565b97505b8215612dac578115612ce357899450612cdc8e86612cd78588615519565b613e39565b9550612d08565b8015612d0857899450612d058e86612cfb8885613e27565b612cd79088615519565b95505b600085815260018f01602052604081206002810191909155548515612daa575b8015612daa5785811015612d9457808f60010160008881526020019081526020016000206000015414612d9057808f600101600088815260200190815260200160002060000181905550858f6001016000838152602001908152602001600020600201819055505b8095505b600090815260018f016020526040902054612d28565b505b828d1115612dc157612dbe838e615519565b96505b6000612dcc8f612308565b90508a81148015612df557508e6001016000828152602001908152602001600020600501546000145b15612e035760008f55612e4a565b8e548b1080612e1d57508e548b148015612e1d5750838a10155b15612e4a57858f6000018190555060008f6001016000888152602001908152602001600020600001819055505b612e538f61416f565b505050505050945094509450945094565b600080600080612e7261510d565b6000612e7d8a612308565b90506000808983111580612e8f575089155b612ed65760405162461bcd60e51b8152602060048201526018602482015277496e73756666696369656e74206c696d69742076616c756560401b6044820152606401610632565b6000805b8c831080612ee657508c155b8015612ef957508a881080612ef957508a155b8015612f0457508415155b8015612f1857508b85111580612f1857508b155b15612fd157600085815260018f0160205260409020600501549350612f3d8484615501565b9250849950612f4c8585613e15565b612f569089615501565b9750612f62848a615501565b98508c83118015612f7257508c15155b15612f9457612f818d84615519565b9150612f8d8583613e15565b9050612fc0565b8a88118015612fa257508a15155b15612fc057612fb18b89615519565b9050612fbd8582613e27565b91505b612fca8e866127e1565b9450612eda565b8115612fe457612fe1828a615519565b98505b8015612ff757612ff48189615519565b97505b82156130ff57811561301c578994506130158e86612cd78588615519565b9550613037565b8015613037578994506130348e86612cfb8885613e27565b95505b60008e60010160008781526020019081526020016000206001018190555060008e6001016000878152602001908152602001600020600001549050600086146130fd575b80156130fd57858111156130e757808f600101600088815260200190815260200160002060000154146130e357808f600101600088815260200190815260200160002060000181905550858f6001016000838152602001908152602001600020600101819055505b8095505b600090815260018f01602052604090205461307b565b505b828d111561311457613111838e615519565b96505b600061311f8f61241b565b90508a8114801561314857508e6001016000828152602001908152602001600020600501546000145b156131565760008f5561319d565b8e548b118061317057508e548b1480156131705750838a10155b1561319d57858f6000018190555060008f6001016000888152602001908152602001600020600001819055505b612e538f61423e565b60008060006131b3612239565b65ffffffffffff851660009081526009919091016020526040908190208151608081019092528054829060ff1660018111156131f1576131f1615358565b600181111561320257613202615358565b81526020016001820154815260200160028201548152602001600382015481525050905060006132398260200151866111d5612239565b6020830151909150613249612239565b65ffffffffffff87166000908152600a91909101602052604090205460ff1615612756576000613277612239565b60408086015160009081526004929092016020528120549150613298612239565b600e016000866040015181526020019081526020016000206001015490508281101561274f5782612751565b6000806132d08461241b565b905060008092505b83811080156132e657508115155b156124135760008281526001860160205260408120600501549061330a8483613e15565b90506133168184615501565b92508583111561335857600061332c8785615519565b6133369083615519565b905061334682610dc48386615556565b6133509087615501565b955050613365565b6133628286615501565b94505b61336f878561253c565b935050506132d8565b60008061338484612308565b905060008092505b838110801561339a57508115155b15612413576000828152600186016020526040812060050154906133be8483613e15565b90506133ca8184615501565b92508583111561340c5760006133e08785615519565b6133ea9083615519565b90506133fa82610dc48386615556565b6134049087615501565b955050613419565b6134168286615501565b94505b61342387856127e1565b9350505061338c565b8061349f5760405162461bcd60e51b815260206004820152603960248201527f4f7264657253746174697374696373547265652834303529202d2056616c756560448201527f20746f20696e736572742063616e6e6f74206265207a65726f000000000000006064820152608401610632565b81546000905b801561350357809150808310156134cf5760009081526001808501602052604090912001546134a5565b808311156134f05760009081526001840160205260409020600201546134a5565b808314156134fe5750505050565b6134a5565b6000838152600185016020526040902084541580613552575060008381526001808701602052604090912001548414801590613552575060008381526001860160205260409020600201548414155b15613580576000600482018190556005820181905561357490869086906142cd565b61358085856000614305565b82815560006001808301829055600283019190915560038201805460ff19169091179055826135b1578385556135eb565b828410156135d457600083815260018087016020526040909120018490556135eb565b600083815260018601602052604090206002018490555b6123018585614345565b600084815260018601602052604090206003810154610100900465ffffffffffff1661362d5761362886868686866145b0565b61366d565b600061363c8787878787614620565b905061366087878460030160079054906101000a900465ffffffffffff16846147bf565b61366b878783614305565b505b505050505050565b60005b6000828152600184016020526040902060020154156136ac5760009182526001830160205260409091206002015490613678565b50919050565b60005b6000828152600180850160205260409091200154156136ac5760009182526001808401602052604090922090910154906136b5565b60006136f7848484612b08565b6137135760405162461bcd60e51b8152600401610632906155ad565b50600082815260018085016020908152604080842065ffffffffffff80871680875260068301855295839020835160c08101855281548084168252600160301b8104841696820196909652600160601b909504821693850193909352938201546001600160a01b031660608401526002820154608084015260039182015460a0840181905291810154919490936101009092049091161480156137cb5750600382015465ffffffffffff858116600160381b90920416145b156137ed576137dc868660006142cd565b6137e886866000614305565b6138bf565b600382015465ffffffffffff85811661010090920416141561384b57613818868683602001516142cd565b60208082015165ffffffffffff1660009081526006840190915260409020805465ffffffffffff60601b191690556138bf565b600382015465ffffffffffff858116600160381b9092041614156138ab5761387886868360400151614305565b60408082015165ffffffffffff166000908152600684016020522080546bffffffffffff000000000000191690556138bf565b6138bf8686836040015184602001516147bf565b805165ffffffffffff1660009081526006830160205260408120805471ffffffffffffffffffffffffffffffffffff19168155600180820180546001600160a01b031916905560028201839055600390910182905560048401805491929091613929908490615519565b909155505060a0810151600583018054600090613947908490615519565b90915550929695505050505050565b806139c95760405162461bcd60e51b815260206004820152603960248201527f4f7264657253746174697374696373547265652834303729202d2056616c756560448201527f20746f2064656c6574652063616e6e6f74206265207a65726f000000000000006064820152608401610632565b60008181526001830160205260408120600481015490919081906123015760008481526001808701602052604090912001541580613a1857506000848152600186016020526040902060020154155b15613a24575082613a6c565b5060008381526001850160205260409020600201545b600081815260018087016020526040909120015415613a6c576000908152600180860160205260409091200154613a3a565b600081815260018087016020526040909120015415613aa05760008181526001808701602052604090912001549150613ab7565b600081815260018601602052604090206002015491505b60008181526001860160205260408082205484835291208190558015613b28576000818152600180880160205260409091200154821415613b0d5760008181526001808801602052604090912001839055613b2c565b60008181526001870160205260409020600201839055613b2c565b8286555b600082815260018701602052604090206003015460ff1615858314613bb657613b56878488614834565b60008681526001888101602052604080832080830154878552828520938401819055845281842087905560028082015490840181905584529083208690556003908101549286905201805460ff191660ff90921615159190911790559194915b8015613bc657613bc687856148ab565b50506000818152600180870160205260408220828155908101829055600281018290556003810180546cffffffffffffffffffffffffff1916905560048101829055600501555050505050565b600082815260018085016020908152604080842065ffffffffffff808716808752600683018552838720845160c0810186528154808516808352600160301b8204861698830198909852600160601b900490931694830194909452948301546001600160a01b031660608201526002830154608082015260039092015460a08301528593909214613caa57600093505050506128f4565b5b604081015165ffffffffffff1615613d3d5760409081015165ffffffffffff808216600090815260068501602090815290849020845160c08101865281548085168252600160301b8104851693820193909352600160601b9092049092169381019390935260018101546001600160a01b03166060840152600281015460808401526003015460a08301529250613cab565b5060030154610100900465ffffffffffff908116911614949350505050565b600081613d6b5750600061208f565b8254821415613d7c5750600161208f565b815b600081815260018501602052604090205415613e0b5760008181526001808601602052604080832054808452922001548214801590613dd0575060008181526001860160205260409020600201548214155b15613de05760009250505061208f565b8454811415613df45760019250505061208f565b506000908152600184016020526040902054613d7e565b5060009392505050565b60006128f483610dc461271085615556565b60006128f4612710610dc48585615556565b613e4161510d565b600083815260018501602052604090206005810154831115613ecb5760405162461bcd60e51b815260206004820152603960248201527f4f7264657253746174697374696373547265652834313029202d20416d6f756e60448201527f7420746f2066696c6c20697320696e73756666696369656e74000000000000006064820152608401610632565b60038082015465ffffffffffff61010090910481166000818152600685016020908152604091829020825160c08101845281548087168252600160301b8104871693820193909352600160601b9092049094169181019190915260018301546001600160a01b0316606082015260028301546080820152919092015460a082015284915b65ffffffffffff811615801590613f6557508215155b156140c75765ffffffffffff8082166000908152600686016020908152604091829020825160c08101845281548086168252600160301b8104861693820193909352600160601b9092049093169181019190915260018201546001600160a01b031660608201526002820154608082015260039091015460a0820181905290925083106140095760a0820151613ffb9084615519565b925081602001519050613f4f565b6040518060800160405280836000015165ffffffffffff16815260200183606001516001600160a01b031681526020018481526020016140498986613e15565b905260409283015165ffffffffffff908116600090815260068701602090815290859020855160c08101875281548085168252600160301b8104851693820193909352600160601b9092049092169481019490945260018101546001600160a01b03166060850152600281015460808501526003015460a084015294505b815165ffffffffffff16156140e7576140e588888460000151614cc5565b505b60408501511561416457604080860151600089815260018b016020908152838220895165ffffffffffff1683526006019052918220600301805491929091614130908490615519565b9091555050604080860151600089815260018b0160205291822060050180549192909161415e908490615519565b90915550505b505050509392505050565b805460009081526001820160205260409020600201541580156141a657508054600090815260018083016020526040909120015415155b156141ff578054600090815260018083016020526040808320909101548252902060020154156141f157805460009081526001808301602052604090912001546141f1908290614eab565b6141ff818260000154614f83565b8054600090815260018201602052604090206003015460ff161561423b57805460009081526001820160205260409020600301805460ff191690555b50565b8054600090815260018083016020526040909120015415801561427557508054600090815260018201602052604090206002015415155b156141ff5780546000908152600180830160205260408083206002015483529091200154156142bf57805460009081526001820160205260409020600201546142bf908290614f83565b6141ff818260000154614eab565b6000918252600190920160205260409020600301805465ffffffffffff9092166101000266ffffffffffff0019909216919091179055565b6000918252600190920160205260409020600301805465ffffffffffff909216600160381b026cffffffffffff0000000000000019909216919091179055565b60005b825482148015906143725750600082815260018401602052604080822054825290206003015460ff165b1561458e5760008281526001808501602052604080832054808452818420548452922001548114156144955760008181526001850160205260408082205482528082206002015480835291206003015490925060ff161561441b576000818152600180860160205260408083206003808201805460ff19908116909155878652838620820180548216905582548652928520018054909216909217905590829052549250614588565b6000818152600185016020526040902060020154831415614443578092506144438484614eab565b50600082815260018085016020526040808320548084528184206003808201805460ff19908116909155825487529386200180549093169093179091559182905254614490908590614f83565b614588565b6000818152600180860160205260408083205483528083209091015480835291206003015490925060ff1615614513576000818152600180860160205260408083206003808201805460ff19908116909155878652838620820180548216905582548652928520018054909216909217905590829052549250614588565b600081815260018086016020526040909120015483141561453b5780925061453b8484614f83565b50600082815260018085016020526040808320548084528184206003808201805460ff19908116909155825487529386200180549093169093179091559182905254614588908590614eab565b50614348565b505080546000908152600190910160205260409020600301805460ff19169055565b60008481526001860160205260408120906145ce8787878787614620565b90506145f28787838560030160019054906101000a900465ffffffffffff166147bf565b6145fd8787836142cd565b6003820154600160381b900465ffffffffffff1661366b5761366b878783614305565b6000848152600186016020908152604080832065ffffffffffff8716845260068101909252822060020154156146b35760405162461bcd60e51b815260206004820152603260248201527f4f7264657253746174697374696373547265652834303929202d204f726465726044820152711034b21030b63932b0b23c9032bc34b9ba1760711b6064820152608401610632565b60018160040160008282546146c89190615501565b92505081905550828160050160008282546146e39190615501565b90915550506040805160c08101825265ffffffffffff808816808352600060208085018281528587018381526001600160a01b03808d16606089019081524260808a0190815260a08a018e81529787526006909b019094529790932095518654915193518616600160601b0265ffffffffffff60601b19948716600160301b026bffffffffffffffffffffffff199093169682169690961791909117929092169390931784559151600184018054919095166001600160a01b031990911617909355925160028201559051600390910155905095945050505050565b60009283526001939093016020908152604080842065ffffffffffff938416808652600690910190925280842080546bffffffffffff0000000000001916600160301b9490961693840295909517909455908252919020805465ffffffffffff60601b1916600160601b909202919091179055565b60008181526001840160205260408082205484835291208190558061485b57828455612a4b565b60008181526001808601602052604090912001548214156148915760008181526001808601602052604090912001839055612a4b565b600090815260019390930160205250604090912060020155565b60005b825482148015906148d35750600082815260018401602052604090206003015460ff16155b15614ca6576000828152600180850160205260408083205480845292200154831415614acf5760008181526001850160205260408082206002015480835291206003015490925060ff1615614977576000828152600180860160205260408083206003908101805460ff199081169091558585529190932090920180549092161790556149608482614eab565b600081815260018501602052604090206002015491505b60008281526001808601602052604080832090910154825290206003015460ff161580156149c25750600082815260018501602052604080822060020154825290206003015460ff16155b156149ef57600082815260018581016020526040909120600301805460ff19169091179055915081614ca0565b600082815260018501602052604080822060020154825290206003015460ff16614a6c576000828152600180860160205260408083208083015484529083206003908101805460ff1990811690915593869052018054909216179055614a558483614f83565b600081815260018501602052604090206002015491505b600081815260018501602052604080822060039081018054868552838520808401805460ff909316151560ff199384161790558254821690925560029091015484529190922090910180549091169055614ac68482614eab565b83549250614ca0565b6000818152600180860160205260408083209091015480835291206003015490925060ff1615614b4e576000828152600180860160205260408083206003908101805460ff19908116909155858552919093209092018054909216179055614b378482614f83565b600081815260018086016020526040909120015491505b600082815260018501602052604080822060020154825290206003015460ff16158015614b99575060008281526001808601602052604080832090910154825290206003015460ff16155b15614bc657600082815260018581016020526040909120600301805460ff19169091179055915081614ca0565b60008281526001808601602052604080832090910154825290206003015460ff16614c4557600082815260018086016020526040808320600281015484529083206003908101805460ff1990811690915593869052018054909216179055614c2e8483614eab565b600081815260018086016020526040909120015491505b60008181526001808601602052604080832060039081018054878652838620808401805460ff909316151560ff19938416179055825482169092559301548452922090910180549091169055614c9b8482614f83565b835492505b506148ae565b506000908152600190910160205260409020600301805460ff19169055565b6000614cd2848484612b08565b614cee5760405162461bcd60e51b8152600401610632906155ad565b50600082815260018085016020908152604080842065ffffffffffff808716865260068201808552838720845160c08101865281548085168252600160301b8104851682890152600160601b9004841681870152818801546001600160a01b031660608201526002820154608082015260039182015460a08201819052828601546101009004909416808a529290965293909620909201549194909390915b8665ffffffffffff168314614df157600092835260068501602052604090922054600160301b900465ffffffffffff169181614dc8816154e6565b6000858152600688016020526040902060030154909350614dea915082615501565b9050614d8d565b600385015465ffffffffffff888116600160381b909204161415614e2c57614e1b898960006142cd565b614e2789896000614305565b614e6a565b614e3b898986602001516142cd565b60208085015165ffffffffffff1660009081526006870190915260409020805465ffffffffffff60601b191690555b81856004016000828254614e7e9190615519565b9250508190555080856005016000828254614e999190615519565b90915550959998505050505050505050565b600081815260018084016020526040808320600281018054915482865292852090930154938590529183905590918015614ef357600081815260018601602052604090208490555b6000838152600186016020526040902082905581614f1357828555614f60565b6000828152600180870160205260409091200154841415614f495760008281526001808701602052604090912001839055614f60565b600082815260018601602052604090206002018390555b505060008181526001938401602052604080822090940183905591825291902055565b60008181526001808401602052604080832091820180549254838552918420600201549385905283905590918015614fc957600081815260018601602052604090208490555b6000838152600186016020526040902082905581614fe957828555615036565b600082815260018601602052604090206002015484141561501f5760008281526001860160205260409020600201839055615036565b600082815260018087016020526040909120018390555b5050600081815260019093016020526040808420600201839055918352912055565b828054828255906000526020600020906004016005900481019282156150fd5791602002820160005b838211156150c957835183826101000a81548165ffffffffffff021916908365ffffffffffff1602179055509260200192600601602081600501049283019260010302615081565b80156150fb5782816101000a81549065ffffffffffff02191690556006016020816005010492830192600103026150c9565b505b50615109929150615146565b5090565b6040518060800160405280600065ffffffffffff16815260200160006001600160a01b0316815260200160008152602001600081525090565b5b808211156151095760008155600101615147565b80356002811061234a57600080fd5b80356001600160a01b038116811461234a57600080fd5b6000806000806080858703121561519757600080fd5b6151a08561515b565b93506151ae6020860161516a565b93969395505050506040820135916060013590565b6000806000606084860312156151d857600080fd5b6151e18461515b565b95602085013595506040909401359392505050565b60006020828403121561520857600080fd5b5035919050565b600081518084526020808501945080840160005b8381101561523f57815187529582019590820190600101615223565b509495945050505050565b60608152600061525d606083018661520f565b828103602084015261526f818661520f565b90508281036040840152615283818561520f565b9695505050505050565b60006020828403121561529f57600080fd5b6128f48261516a565b600081518084526020808501945080840160005b8381101561523f57815165ffffffffffff16875295820195908201906001016152bc565b6080815260006152f360808301876152a8565b6020830195909552506040810192909252606090910152919050565b803565ffffffffffff8116811461234a57600080fd5b6000806040838503121561533857600080fd5b6153418361516a565b915061534f6020840161530f565b90509250929050565b634e487b7160e01b600052602160045260246000fd5b6002811061538c57634e487b7160e01b600052602160045260246000fd5b9052565b6060810161539e828661536e565b602082019390935260400152919050565b6000602082840312156153c157600080fd5b6128f48261530f565b60e081016153d8828a61536e565b602082019790975260408101959095526001600160a01b03939093166060850152608084019190915260a0830152151560c090910152919050565b60408152600061542660408301856152a8565b828103602084015261543881856152a8565b95945050505050565b6000806000806080858703121561545757600080fd5b6154608561515b565b966020860135965060408601359560600135945092505050565b6000806040838503121561548d57600080fd5b6154968361515b565b946020939093013593505050565b634e487b7160e01b600052604160045260246000fd5b634e487b7160e01b600052603260045260246000fd5b634e487b7160e01b600052601160045260246000fd5b60006000198214156154fa576154fa6154d0565b5060010190565b60008219821115615514576155146154d0565b500190565b60008282101561552b5761552b6154d0565b500390565b600065ffffffffffff8083168181141561554c5761554c6154d0565b6001019392505050565b6000816000190483118215151615615570576155706154d0565b500290565b60008261559257634e487b7160e01b600052601260045260246000fd5b500490565b634e487b7160e01b600052603160045260246000fd5b60208082526030908201527f4f7264657253746174697374696373547265652834313029202d204f7264657260408201526f103237b2b9903737ba1032bc34b9ba1760811b60608201526080019056fea2646970667358221220a7983b565a8b4ac4846abd2fa29d2fc5d6bbc6364133b2596e194ea5d14f282564736f6c63430008090033",
  "devdoc": {
    "kind": "dev",
    "methods": {},
    "version": 1
  },
  "userdoc": {
    "kind": "user",
    "methods": {},
    "version": 1
  },
  "storageLayout": {
    "storage": [],
    "types": null
  }
}