{
  "address": "0x6F1497deaD970267637b389C499c0a74338B48e0",
  "abi": [
    {
      "inputs": [],
      "name": "InvalidCircuitBreakerLimitRange",
      "type": "error"
    },
    {
      "inputs": [],
      "name": "InvalidOrderFeeRate",
      "type": "error"
    },
    {
      "inputs": [],
      "name": "OrderBookNotMatured",
      "type": "error"
    },
    {
      "anonymous": false,
      "inputs": [
        {
          "indexed": false,
          "internalType": "bytes32",
          "name": "ccy",
          "type": "bytes32"
        },
        {
          "indexed": false,
          "internalType": "uint256",
          "name": "previousRate",
          "type": "uint256"
        },
        {
          "indexed": false,
          "internalType": "uint256",
          "name": "rate",
          "type": "uint256"
        }
      ],
      "name": "CircuitBreakerLimitRangeUpdated",
      "type": "event"
    },
    {
      "anonymous": false,
      "inputs": [
        {
          "indexed": false,
          "internalType": "bytes32",
          "name": "ccy",
          "type": "bytes32"
        },
        {
          "indexed": false,
          "internalType": "uint256",
          "name": "maturity",
          "type": "uint256"
        },
        {
          "indexed": false,
          "internalType": "uint256",
          "name": "openingUnitPrice",
          "type": "uint256"
        },
        {
          "indexed": false,
          "internalType": "uint256",
          "name": "lastLendUnitPrice",
          "type": "uint256"
        },
        {
          "indexed": false,
          "internalType": "uint256",
          "name": "lastBorrowUnitPrice",
          "type": "uint256"
        },
        {
          "indexed": false,
          "internalType": "uint256",
          "name": "offsetAmount",
          "type": "uint256"
        }
      ],
      "name": "ItayoseExecuted",
      "type": "event"
    },
    {
      "anonymous": false,
      "inputs": [
        {
          "indexed": false,
          "internalType": "uint8",
          "name": "orderBookId",
          "type": "uint8"
        },
        {
          "indexed": false,
          "internalType": "uint256",
          "name": "maturity",
          "type": "uint256"
        },
        {
          "indexed": false,
          "internalType": "uint256",
          "name": "openingDate",
          "type": "uint256"
        }
      ],
      "name": "OrderBookCreated",
      "type": "event"
    },
    {
      "anonymous": false,
      "inputs": [
        {
          "indexed": false,
          "internalType": "bytes32",
          "name": "ccy",
          "type": "bytes32"
        },
        {
          "indexed": false,
          "internalType": "uint256",
          "name": "previousRate",
          "type": "uint256"
        },
        {
          "indexed": false,
          "internalType": "uint256",
          "name": "rate",
          "type": "uint256"
        }
      ],
      "name": "OrderFeeRateUpdated",
      "type": "event"
    },
    {
      "inputs": [
        {
          "internalType": "uint8",
          "name": "_orderBookId",
          "type": "uint8"
        }
      ],
      "name": "getBestBorrowUnitPrice",
      "outputs": [
        {
          "internalType": "uint256",
          "name": "",
          "type": "uint256"
        }
      ],
      "stateMutability": "view",
      "type": "function"
    },
    {
      "inputs": [
        {
          "internalType": "uint8[]",
          "name": "_orderBookIds",
          "type": "uint8[]"
        }
      ],
      "name": "getBestBorrowUnitPrices",
      "outputs": [
        {
          "internalType": "uint256[]",
          "name": "unitPrices",
          "type": "uint256[]"
        }
      ],
      "stateMutability": "view",
      "type": "function"
    },
    {
      "inputs": [
        {
          "internalType": "uint8",
          "name": "_orderBookId",
          "type": "uint8"
        }
      ],
      "name": "getBestLendUnitPrice",
      "outputs": [
        {
          "internalType": "uint256",
          "name": "",
          "type": "uint256"
        }
      ],
      "stateMutability": "view",
      "type": "function"
    },
    {
      "inputs": [
        {
          "internalType": "uint8[]",
          "name": "_orderBookIds",
          "type": "uint8[]"
        }
      ],
      "name": "getBestLendUnitPrices",
      "outputs": [
        {
          "internalType": "uint256[]",
          "name": "unitPrices",
          "type": "uint256[]"
        }
      ],
      "stateMutability": "view",
      "type": "function"
    },
    {
      "inputs": [
        {
          "internalType": "uint8",
          "name": "_orderBookId",
          "type": "uint8"
        },
        {
          "internalType": "uint256",
          "name": "_count",
          "type": "uint256"
        }
      ],
      "name": "getBlockUnitPriceAverage",
      "outputs": [
        {
          "internalType": "uint256",
          "name": "",
          "type": "uint256"
        }
      ],
      "stateMutability": "view",
      "type": "function"
    },
    {
      "inputs": [
        {
          "internalType": "uint8",
          "name": "_orderBookId",
          "type": "uint8"
        }
      ],
      "name": "getBlockUnitPriceHistory",
      "outputs": [
        {
          "internalType": "uint256[]",
          "name": "",
          "type": "uint256[]"
        }
      ],
      "stateMutability": "view",
      "type": "function"
    },
    {
      "inputs": [
        {
          "internalType": "uint8",
          "name": "_orderBookId",
          "type": "uint8"
        },
        {
          "internalType": "uint256",
          "name": "_limit",
          "type": "uint256"
        }
      ],
      "name": "getBorrowOrderBook",
      "outputs": [
        {
          "internalType": "uint256[]",
          "name": "unitPrices",
          "type": "uint256[]"
        },
        {
          "internalType": "uint256[]",
          "name": "amounts",
          "type": "uint256[]"
        },
        {
          "internalType": "uint256[]",
          "name": "quantities",
          "type": "uint256[]"
        }
      ],
      "stateMutability": "view",
      "type": "function"
    },
    {
      "inputs": [
        {
          "internalType": "uint8",
          "name": "_orderBookId",
          "type": "uint8"
        }
      ],
      "name": "getCircuitBreakerThresholds",
      "outputs": [
        {
          "internalType": "uint256",
          "name": "maxLendUnitPrice",
          "type": "uint256"
        },
        {
          "internalType": "uint256",
          "name": "minBorrowUnitPrice",
          "type": "uint256"
        }
      ],
      "stateMutability": "view",
      "type": "function"
    },
    {
      "inputs": [
        {
          "internalType": "uint8",
          "name": "_orderBookId",
          "type": "uint8"
        }
      ],
      "name": "getItayoseEstimation",
      "outputs": [
        {
          "internalType": "uint256",
          "name": "openingUnitPrice",
          "type": "uint256"
        },
        {
          "internalType": "uint256",
          "name": "lastLendUnitPrice",
          "type": "uint256"
        },
        {
          "internalType": "uint256",
          "name": "lastBorrowUnitPrice",
          "type": "uint256"
        },
        {
          "internalType": "uint256",
          "name": "totalOffsetAmount",
          "type": "uint256"
        }
      ],
      "stateMutability": "view",
      "type": "function"
    },
    {
      "inputs": [
        {
          "internalType": "uint8",
          "name": "_orderBookId",
          "type": "uint8"
        }
      ],
      "name": "getLastOrderBlockNumber",
      "outputs": [
        {
          "internalType": "uint256",
          "name": "",
          "type": "uint256"
        }
      ],
      "stateMutability": "view",
      "type": "function"
    },
    {
      "inputs": [
        {
          "internalType": "uint8",
          "name": "_orderBookId",
          "type": "uint8"
        },
        {
          "internalType": "uint256",
          "name": "_limit",
          "type": "uint256"
        }
      ],
      "name": "getLendOrderBook",
      "outputs": [
        {
          "internalType": "uint256[]",
          "name": "unitPrices",
          "type": "uint256[]"
        },
        {
          "internalType": "uint256[]",
          "name": "amounts",
          "type": "uint256[]"
        },
        {
          "internalType": "uint256[]",
          "name": "quantities",
          "type": "uint256[]"
        }
      ],
      "stateMutability": "view",
      "type": "function"
    },
    {
      "inputs": [
        {
          "internalType": "uint8",
          "name": "_orderBookId",
          "type": "uint8"
        }
      ],
      "name": "getMarketUnitPrice",
      "outputs": [
        {
          "internalType": "uint256",
          "name": "",
          "type": "uint256"
        }
      ],
      "stateMutability": "view",
      "type": "function"
    },
    {
      "inputs": [
        {
          "internalType": "uint8[]",
          "name": "_orderBookIds",
          "type": "uint8[]"
        }
      ],
      "name": "getMaturities",
      "outputs": [
        {
          "internalType": "uint256[]",
          "name": "maturities",
          "type": "uint256[]"
        }
      ],
      "stateMutability": "view",
      "type": "function"
    },
    {
      "inputs": [
        {
          "internalType": "uint8",
          "name": "_orderBookId",
          "type": "uint8"
        }
      ],
      "name": "getOrderBookDetail",
      "outputs": [
        {
          "internalType": "bytes32",
          "name": "ccy",
          "type": "bytes32"
        },
        {
          "internalType": "uint256",
          "name": "maturity",
          "type": "uint256"
        },
        {
          "internalType": "uint256",
          "name": "openingDate",
          "type": "uint256"
        },
        {
          "internalType": "uint256",
          "name": "preOpeningDate",
          "type": "uint256"
        }
      ],
      "stateMutability": "view",
      "type": "function"
    },
    {
      "inputs": [
        {
          "internalType": "uint8",
          "name": "_orderBookId",
          "type": "uint8"
        }
      ],
      "name": "isItayosePeriod",
      "outputs": [
        {
          "internalType": "bool",
          "name": "",
          "type": "bool"
        }
      ],
      "stateMutability": "view",
      "type": "function"
    },
    {
      "inputs": [
        {
          "internalType": "uint8",
          "name": "_orderBookId",
          "type": "uint8"
        }
      ],
      "name": "isMatured",
      "outputs": [
        {
          "internalType": "bool",
          "name": "",
          "type": "bool"
        }
      ],
      "stateMutability": "view",
      "type": "function"
    },
    {
      "inputs": [
        {
          "internalType": "uint8",
          "name": "_orderBookId",
          "type": "uint8"
        }
      ],
      "name": "isOpened",
      "outputs": [
        {
          "internalType": "bool",
          "name": "",
          "type": "bool"
        }
      ],
      "stateMutability": "view",
      "type": "function"
    },
    {
      "inputs": [
        {
          "internalType": "uint8",
          "name": "_orderBookId",
          "type": "uint8"
        }
      ],
      "name": "isPreOrderPeriod",
      "outputs": [
        {
          "internalType": "bool",
          "name": "",
          "type": "bool"
        }
      ],
      "stateMutability": "view",
      "type": "function"
    },
    {
      "inputs": [
        {
          "internalType": "uint8",
          "name": "_orderBookId",
          "type": "uint8"
        }
      ],
      "name": "isReady",
      "outputs": [
        {
          "internalType": "bool",
          "name": "",
          "type": "bool"
        }
      ],
      "stateMutability": "view",
      "type": "function"
    }
  ],
  "transactionHash": "0x50ba4c33d4dae691023721e819481360ae2df8d5d0f4ab82683a05185cd3f7b4",
  "args": [],
  "numDeployments": 1,
  "solcInputHash": "779b1d8459d9078db8690c7abff4d93c",
  "bytecode": "0x6134e761003a600b82828239805160001a60731461002d57634e487b7160e01b600052600060045260246000fd5b30600052607381538281f3fe73000000000000000000000000000000000000000030146080604052600436106101625760003560e01c80636a5138d6116100cd578063932c938511610086578063932c93851461038c578063a3b88aa0146103ae578063cd458662146103c1578063dded339b146103d4578063f8044e6c146103e7578063fffa87b8146103fa57600080fd5b80636a5138d6146102e05780636aa65aaf146102f35780636c5d6df11461031357806380d5b6091461033357806382bdfed51461036657806385ad3bf21461037957600080fd5b80633a9a3ecc1161011f5780633a9a3ecc1461022b57806350e187011461024d5780635575c7961461027557806357673717146102a757806358e64897146102ba5780635f7f8b45146102cd57600080fd5b80631f98a42014610167578063261cc1b21461019057806329d6dd13146101c15780632bfa7c13146101e4578063381e93441461020557806338b0585214610218575b600080fd5b61017a6101753660046130a9565b61040d565b60405161018791906130ff565b60405180910390f35b81801561019c57600080fd5b506101b06101ab3660046130a9565b610429565b604051610187959493929190613112565b6101d46101cf3660046130a9565b61065f565b6040519015158152602001610187565b6101f76101f23660046130a9565b610692565b604051908152602001610187565b6101d46102133660046130a9565b6106a8565b61017a6102263660046131be565b6106de565b81801561023757600080fd5b5061024b610246366004613277565b61078d565b005b61026061025b3660046130a9565b610861565b60408051928352602083019190915201610187565b81801561028157600080fd5b506102956102903660046132c4565b6108af565b60405160ff9091168152602001610187565b61017a6102b53660046131be565b610947565b6101f76102c83660046130a9565b6109e7565b6101f76102db3660046130a9565b6109f5565b6101d46102ee3660046130a9565b610a08565b8180156102ff57600080fd5b5061024b61030e3660046132f0565b610a42565b81801561031f57600080fd5b5061024b61032e3660046132f0565b610ad5565b6103466103413660046130a9565b610b44565b604080519485526020850193909352918301526060820152608001610187565b6101d46103743660046130a9565b610b7c565b6101f76103873660046130a9565b610b91565b61039f61039a366004613309565b610bb5565b60405161018793929190613333565b6101f76103bc366004613309565b610bda565b61017a6103cf3660046131be565b610bf9565b6103466103e23660046130a9565b610c94565b61039f6103f5366004613309565b610cbb565b6101d46104083660046130a9565b610cd3565b6060610423600161041d84610d0b565b90610d30565b92915050565b600080600061043661305f565b61043e61305f565b600080600061044c89610d0b565b905061045781610e67565b929a509198509350915086156105c357604080518082019091526000808252600160208301525b600281101561056057600061049161305f565b6104bc6040518060800160405280600081526020016000815260200160008152602001600081525090565b6104e18585600281106104d1576104d1613382565b602002015187908e600080611095565b50506040820151909350909150156104fd576104fd868e6111e0565b60608201511561054a57600085856002811061051b5761051b613382565b602002015160018111156105315761053161336c565b03610542576001925081985061054a565b600092508199505b5050508080610558906133ae565b91505061047e565b507fa9952c3d01896ca75bba3aede761be10089d8d4725c9fee6b99245515986ef6061058a611235565b54835460408051928352602083019190915281018b9052606081018690526080810185905260a081018a905260c00160405180910390a1505b60016105cd611235565b825460009081526005919091016020908152604091829020805460ff19169315159390931790925580516060810182528a81529182018590528101839052610613611235565b6006016000836000015481526020019081526020016000206000820151816000015560208201518160010155604082015181600201559050508060010154955050505091939590929450565b6000610669611235565b600501600061067784610d0b565b54815260208101919091526040016000205460ff1692915050565b600061042360016106a284610d0b565b90611259565b6000610e106106b683610d0b565b600101546106c491906133c7565b421015801561042357506106d78261065f565b1592915050565b6060815167ffffffffffffffff8111156106fa576106fa6131a8565b604051908082528060200260200182016040528015610723578160200160208202803683370190505b50905060005b82518110156107875761075483828151811061074757610747613382565b6020026020010151610d0b565b6000015482828151811061076a5761076a613382565b60209081029190910101528061077f816133ae565b915050610729565b50919050565b6000610797611235565b60ff871660009081526004919091016020526040902090506107ba815442101590565b6107d757604051632e98f16560e11b815260040160405180910390fd5b6107f284846107e962093a80826133c7565b849291906112ff565b6107fa611235565b600086815260059190910160205260408120805460ff191692151592909217909155610824611235565b60ff87166000908152600491909101602052604081209150610847908290611259565b6000036108585761085881846111e0565b50505050505050565b60008061088561086f611235565b60030154600161087e86610d0b565b9190611363565b91506108a8610892611235565b6003015460016108a186610d0b565b91906113e4565b9050915091565b60006108b9611449565b90506108d28484846108ca85610d0b565b9291906112ff565b6108da611235565b60008681526005919091016020908152604091829020805460ff191693151593909317909255805160ff8416815291820186905281018490527f04ec0e7cdb609ffd421993d30756b50a4c420e88ce7f59bb3e29b5a8fe1fcf4a9060600160405180910390a19392505050565b6060815167ffffffffffffffff811115610963576109636131a8565b60405190808252806020026020018201604052801561098c578160200160208202803683370190505b50905060005b8251811015610787576109b86109b384838151811061074757610747613382565b611494565b8282815181106109ca576109ca613382565b6020908102919091010152806109df816133ae565b915050610992565b60006104236109b383610d0b565b6000610423610a0383610d0b565b6114af565b6000610a138261065f565b8015610a255750610a2382610b7c565b155b80156104235750610a3582610d0b565b6001015442101592915050565b6127108110610a6457604051636d3872b560e11b815260040160405180910390fd5b6000610a6e611235565b600201549050808214610ad15781610a84611235565b600201557fad24e9bff76148b1b779fc330ea225198d2b44136c7a8e5fbec46c99c7775632610ab1611235565b546040805191825260208201849052810184905260600160405180910390a15b5050565b6127108110610af757604051631ce2ca3b60e31b815260040160405180910390fd5b6000610b01611235565b600301549050808214610ad15781610b17611235565b600301557fee52d515b96986517a19b501c0a50b03f4edace46ba0484faaea7590969adcf6610ab1611235565b6000806000806000610b5586610d0b565b9050610b5f611235565b548154600183015460029093015491989097509195509350915050565b6000610423610b8a83610d0b565b5442101590565b6000610b9c82610d0b565b60030154600160301b900465ffffffffffff1692915050565b6060806060610bcd84610bc787610d0b565b906114e4565b9250925092509250925092565b6000610bf2826001610beb86610d0b565b9190611765565b9392505050565b6060815167ffffffffffffffff811115610c1557610c156131a8565b604051908082528060200260200182016040528015610c3e578160200160208202803683370190505b50905060005b825181101561078757610c65610a0384838151811061074757610747613382565b828281518110610c7757610c77613382565b602090810291909101015280610c8c816133ae565b915050610c44565b600080600080610cab610ca686610d0b565b610e67565b93509350935093505b9193509193565b6060806060610bcd84610ccd87610d0b565b906118a1565b600080610cdf83610d0b565b905080600201544210158015610bf25750610e108160010154610d0291906133c7565b42109392505050565b6000610d15611235565b60ff9092166000908152600492909201602052506040902090565b6003820154606090610d5190600160681b90046001600160501b0316611b19565b600384015490915065ffffffffffff600160301b9091041643141580610d91575080600081518110610d8557610d85613382565b60200260200101516000145b80610d995750815b8015610db057506003830154600160601b900460ff165b1561042357600060018251610dc591906133c7565b90505b8015610e215781610dda6001836133c7565b81518110610dea57610dea613382565b6020026020010151828281518110610e0457610e04613382565b602090810291909101015280610e19816133da565b915050610dc8565b50610e4283600501546127108560040154610e3c91906133f1565b90611c29565b81600081518110610e5557610e55613382565b60200260200101818152505092915050565b80546000908152600b8201602052604081208190819081908190610e8a90611c9a565b86546000908152600c88016020526040812091925090610ea990611ce1565b87546000908152600b8901602090815260408083208684526001019091528120600501549192509088546000908152600c8a01602090815260408083208684526001019091528120600501549192509089546000908152600c8b0160209081526040808320600b8e019092529091209192509085851180610f28575084155b80610f31575085155b15610f6057610f456002610e3c8789613408565b99506000806000809950995099509950505050505050610cb4565b858511158015610f705750600085115b8015610f7c5750600086115b156110885785985084975082841115610fd5578599508287610f9e9190613408565b9650610faa83856133c7565b9350610fb68286611d23565b60008181526001840160205260409020600501549095505b9250610f60565b82841015611022578499508387610fec9190613408565b9650610ff884846133c7565b92506110048187611dd5565b60008181526001830160205260409020600501549096509350610f60565b6110316002610e3c8789613408565b995061103d8488613408565b96506110498187611dd5565b95506110558286611d23565b60008781526001830160205260409020600501549095506000868152600184016020526040902060050154909450610fce565b5050505050509193509193565b6110c06040518060800160405280600081526020016000815260200160008152602001600081525090565b6110c861305f565b6000806110d361305f565b60018960018111156110e7576110e761336c565b036111335789546000908152600b8b016020526040902061110a818a8a8a611e7e565b60408b019290925291895260208901929092529450915061112b8154151590565b92505061118f565b60008960018111156111475761114761336c565b0361118f5789546000908152600c8b016020526040902061116a818a8a8a6120c9565b60408b019290925291895260208901929092529450915061118b8154151590565b9250505b6040518060800160405280826000015165ffffffffffff16815260200182602001516001600160a01b0316815260200182604001518152602001826060015181525093505095509550955095915050565b600391909101805476ffffffffffffffffffff00ffffffffffff000000000000191661ffff909216600160681b026bffffffffffff000000000000191691909117600160301b4365ffffffffffff1602179055565b7ffc2836757f9146445fc75bc3c897a210ec004e4ee60fc8627ef5cbf2842b3d0a90565b600382015460009061127a90600160681b90046001600160501b0316611b19565b60008151811061128c5761128c613382565b60200260200101519050438360030160069054906101000a900465ffffffffffff1665ffffffffffff161415806112c1575080155b806112c95750815b80156112e057506003830154600160601b900460ff165b1561042357610bf283600501546127108560040154610e3c91906133f1565b82845560018401829055600284018190556003840180546000600487018190556005870181905576ffffffffffffffffffffffffffffffffff00000000000019909116909155611351610e10846133c7565b421061135b575060015b949350505050565b60008061137285600385611765565b905061139b6127106113858660026133f1565b61139190612710613408565b610e3c90846133f1565b91506127108211806113ab575080155b156113ba5761271091506113dc565b6113c66102bc82613408565b8210156113dc576113d96102bc82613408565b91505b509392505050565b6000806113f385600585611765565b905061140561271061139186826133c7565b9150811580611412575080155b8061141e575060c88111155b1561142c57600191506113dc565b61143760c883613408565b8110156113dc576113d960c8826133c7565b6000611453611235565b600101805460ff169060006114678361341b565b91906101000a81548160ff021916908360ff16021790555050611488611235565b6001015460ff16919050565b80546000908152600b82016020526040812061042390611c9a565b80546000908152600c82016020526040812081906114cc90611ce1565b905080156114da5780610bf2565b6127109392505050565b60608060608367ffffffffffffffff811115611502576115026131a8565b60405190808252806020026020018201604052801561152b578160200160208202803683370190505b5092508367ffffffffffffffff811115611547576115476131a8565b604051908082528060200260200182016040528015611570578160200160208202803683370190505b5091508367ffffffffffffffff81111561158c5761158c6131a8565b6040519080825280602002602001820160405280156115b5578160200160208202803683370190505b5085546000908152600c870160205260408120919250906115d590611ce1565b905080846000815181106115eb576115eb613382565b60209081029190910181019190915286546000908152600c88018252604080822084835260010190925220600501548360008151811061162d5761162d613382565b60209081029190910181019190915286546000908152600c88018252604080822084835260010190925220600401548260008151811061166f5761166f613382565b602090810291909101015260015b845181101561175c57811561175c5786546000908152600c8801602052604090206116a89083611d23565b9150818582815181106116bd576116bd613382565b60209081029190910181019190915287546000908152600c89018252604080822085835260010190925220600501548482815181106116fe576116fe613382565b60209081029190910181019190915287546000908152600c890182526040808220858352600101909252206004015483828151811061173f5761173f613382565b602090810291909101015280611754816133ae565b91505061167d565b50509250925092565b60008061178885600301600d9054906101000a90046001600160501b0316611b19565b8051600387015491925090600090819065ffffffffffff600160301b90910416431415806117b35750855b80156117ca57506003880154600160601b900460ff165b156117fd576117e988600501546127108a60040154610e3c91906133f1565b915060019050866117f9816133da565b9750505b60005b8781101561187b578381101580611830575084818151811061182457611824613382565b60200260200101516000145b61187b5784818151811061184657611846613382565b6020026020010151836118599190613408565b925081611865816133ae565b9250508080611873906133ae565b915050611800565b506000811161188b576000611895565b6118958282611c29565b98975050505050505050565b60608060608367ffffffffffffffff8111156118bf576118bf6131a8565b6040519080825280602002602001820160405280156118e8578160200160208202803683370190505b5092508367ffffffffffffffff811115611904576119046131a8565b60405190808252806020026020018201604052801561192d578160200160208202803683370190505b5091508367ffffffffffffffff811115611949576119496131a8565b604051908082528060200260200182016040528015611972578160200160208202803683370190505b5085546000908152600b8701602052604081209192509061199290611c9a565b905080846000815181106119a8576119a8613382565b60209081029190910181019190915286546000908152600b8801825260408082208483526001019092522060050154836000815181106119ea576119ea613382565b60209081029190910181019190915286546000908152600b880182526040808220848352600101909252206004015482600081518110611a2c57611a2c613382565b602090810291909101015260015b845181101561175c57811561175c5786546000908152600b880160205260409020611a659083611dd5565b915081858281518110611a7a57611a7a613382565b60209081029190910181019190915287546000908152600b8901825260408082208583526001019092522060050154848281518110611abb57611abb613382565b60209081029190910181019190915287546000908152600b8901825260408082208583526001019092522060040154838281518110611afc57611afc613382565b602090810291909101015280611b11816133ae565b915050611a3a565b60408051600580825260c082019092526060916020820160a0803683370190505090508161ffff1681600081518110611b5457611b54613382565b6020026020010181815250506010826001600160501b0316901c61ffff1681600181518110611b8557611b85613382565b6020026020010181815250506020826001600160501b0316901c61ffff1681600281518110611bb657611bb6613382565b6020026020010181815250506030826001600160501b0316901c61ffff1681600381518110611be757611be7613382565b6020026020010181815250506040826001600160501b0316901c61ffff1681600481518110611c1857611c18613382565b602002602001018181525050919050565b6000808211611c3757600080fd5b6005611c43838561343a565b611c4e90600a6133f1565b83611c5a86600a6133f1565b611c64919061343a565b611c6e91906133c7565b1015611c8557611c7e828461343a565b9050610423565b611c8f828461343a565b611c7e906001613408565b805480611ca957506000919050565b5b600081815260018301602052604090206002015415611cdc576000908152600182016020526040902060020154611caa565b919050565b805480611cf057506000919050565b5b600081815260018084016020526040909120015415611cdc576000908152600180830160205260409091200154611cf1565b600081611d4b5760405162461bcd60e51b8152600401611d429061345c565b60405180910390fd5b600082815260018401602052604090206002015415611d83576000828152600184016020526040902060020154611c7e908490612318565b5060008181526001830160205260409020545b8015801590611db75750600081815260018401602052604090206002015482145b15610423576000818152600184016020526040902054909150611d96565b600081611df45760405162461bcd60e51b8152600401611d429061345c565b600082815260018085016020526040909120015415611e2c576000828152600180850160205260409091200154611c7e908490612350565b5060008181526001830160205260409020545b8015801590611e605750600081815260018085016020526040909120015482145b15610423576000818152600184016020526040902054909150611e3f565b600080600080611e8c61305f565b6000611e978a611c9a565b905060008060008984101580611eab575089155b611ef25760405162461bcd60e51b8152602060048201526018602482015277496e73756666696369656e74206c696d69742076616c756560401b6044820152606401611d42565b611eff8d8d8d8d88612387565b959e50919c509a509196509450925090506000611f1c838a613408565b90508015612011578215611f4857899450611f418e86611f3c86886133c7565b6124b2565b9550611f6d565b8115611f6d57899450611f6a8e86611f6088866127cb565b611f3c90886133c7565b95505b600085815260018f0160205260408120600281019190915554851561200f575b801561200f5785811015611ff957808f60010160008881526020019081526020016000206000015414611ff557808f600101600088815260200190815260200160002060000181905550858f6001016000838152602001908152602001600020600201819055505b8095505b600090815260018f016020526040902054611f8d565b505b808d111561202657612023818e6133c7565b96505b60006120318f611ce1565b90508a8114801561205a57508e6001016000828152602001908152602001600020600501546000145b156120685760008f556120af565b8e548b108061208257508e548b1480156120825750818a10155b156120af57858f6000018190555060008f6001016000888152602001908152602001600020600001819055505b6120b88f6127dd565b505050505050945094509450945094565b6000806000806120d761305f565b60006120e28a611ce1565b9050600080600089841115806120f6575089155b61213d5760405162461bcd60e51b8152602060048201526018602482015277496e73756666696369656e74206c696d69742076616c756560401b6044820152606401611d42565b61214a8d8d8d8d886128ac565b959e50919c509a509196509450925090506000612167838a613408565b9050801561227157821561218e578994506121878e86611f3c86886133c7565b95506121a9565b81156121a9578994506121a68e86611f6088866127cb565b95505b60008e60010160008781526020019081526020016000206001018190555060008e60010160008781526020019081526020016000206000015490506000861461226f575b801561226f578581111561225957808f6001016000888152602001908152602001600020600001541461225557808f600101600088815260200190815260200160002060000181905550858f6001016000838152602001908152602001600020600101819055505b8095505b600090815260018f0160205260409020546121ed565b505b808d111561228657612283818e6133c7565b96505b60006122918f611c9a565b90508a811480156122ba57508e6001016000828152602001908152602001600020600501546000145b156122c85760008f5561230f565b8e548b11806122e257508e548b1480156122e25750818a10155b1561230f57858f6000018190555060008f6001016000888152602001908152602001600020600001819055505b6120b88f6129a2565b60005b60008281526001808501602052604090912001541561078757600091825260018084016020526040909220909101549061231b565b60005b6000828152600184016020526040902060020154156107875760009182526001830160205260409091206002015490612353565b60008181808080805b8a84108061239c57508a155b80156123af5750898310806123af575089155b80156123ba57508515155b80156123ce575088861015806123ce575088155b1561247d57600086815260018d016020526040902060050154959650869594506123f88686612a31565b6124029084613408565b925061240e8585613408565b93508a8411801561241e57508a15155b156124405761242d8b856133c7565b91506124398683612a31565b905061246c565b898311801561244e57508915155b1561246c5761245d8a846133c7565b905061246986826127cb565b91505b6124768c87611dd5565b9550612390565b81156124905761248d82856133c7565b93505b80156124a3576124a081846133c7565b92505b959b949a509550955095509550565b6124ba61305f565b6000838152600185016020526040902060058101548311156125445760405162461bcd60e51b815260206004820152603860248201527f4f7264657253746174697374696373547265654c69623a20416d6f756e74207460448201527f6f2072656d6f766520697320696e73756666696369656e7400000000000000006064820152608401611d42565b600381015465ffffffffffff61010090910481166000818152600684016020908152604091829020825160a08101845281548087168252600160301b8104871693820193909352600160601b9092049094169181019190915260018301546001600160a01b0316606082015260029092015460808301528491905b65ffffffffffff8116158015906125d557508215155b156127235765ffffffffffff8082166000908152600686016020908152604091829020825160a08101845281548086168252600160301b8104861693820193909352600160601b9092049093169181019190915260018201546001600160a01b0316606082015260029091015460808201819052909250831061266f57608082015161266190846133c7565b9250816020015190506125bf565b6040518060800160405280836000015165ffffffffffff16815260200183606001516001600160a01b031681526020018481526020016126af8986612a31565b905260409283015165ffffffffffff908116600090815260068701602090815290859020855160a08101875281548085168252600160301b8104851693820193909352600160601b9092049092169481019490945260018101546001600160a01b0316606085015260020154608084015294505b815165ffffffffffff16156127435761274188888460000151612a43565b505b6040850151156127c057604080860151600089815260018b016020908152838220895165ffffffffffff168352600601905291822060020180549192909161278c9084906133c7565b9091555050604080860151600089815260018b016020529182206005018054919290916127ba9084906133c7565b90915550505b505050509392505050565b6000610bf2612710610e3c85856133f1565b8054600090815260018201602052604090206002015415801561281457508054600090815260018083016020526040909120015415155b1561286d5780546000908152600180830160205260408083209091015482529020600201541561285f578054600090815260018083016020526040909120015461285f908290612c98565b61286d818260000154612d6f565b8054600090815260018201602052604090206003015460ff16156128a957805460009081526001820160205260409020600301805460ff191690555b50565b60008181808080805b8a8410806128c157508a155b80156128d45750898310806128d4575089155b80156128df57508515155b80156128f3575088861115806128f3575088155b1561247d57600086815260018d0160205260409020600501549596508695945061291d8686612a31565b6129279084613408565b92506129338585613408565b93508a8411801561294357508a15155b15612965576129528b856133c7565b915061295e8683612a31565b9050612991565b898311801561297357508915155b15612991576129828a846133c7565b905061298e86826127cb565b91505b61299b8c87611d23565b95506128b5565b805460009081526001808301602052604090912001541580156129d957508054600090815260018201602052604090206002015415155b1561286d578054600090815260018083016020526040808320600201548352909120015415612a235780546000908152600182016020526040902060020154612a23908290612d6f565b61286d818260000154612c98565b6000610bf283610e3c612710856133f1565b6000612a50848484612e43565b612ab15760405162461bcd60e51b815260206004820152602c60248201527f4f7264657253746174697374696373547265654c69623a204f7264657220646f60448201526b195cc81b9bdd08195e1a5cdd60a21b6064820152608401611d42565b50600082815260018085016020908152604080842065ffffffffffff808716865260068201808552838720845160a08101865281548085168252600160301b8104851682890152600160601b9004841681870152818801546001600160a01b031660608201526002918201546080820181905260038601546101009004909416808a529290965293909620909201549194909390915b8665ffffffffffff168365ffffffffffff1614612bc05765ffffffffffff9283166000908152600686016020526040902054600160301b90049092169181612b8e816133ae565b65ffffffffffff85166000908152600688016020526040902060020154909350612bb9915082613408565b9050612b47565b600385015465ffffffffffff8089166701000000000000009092041603612c1957612bed89896000612e61565b600088815260018a016020526040902060030180546cffffffffffff0000000000000019169055612c57565b612c2889898660200151612e61565b60208085015165ffffffffffff1660009081526006870190915260409020805465ffffffffffff60601b191690555b81856004016000828254612c6b91906133c7565b9250508190555080856005016000828254612c8691906133c7565b90915550959998505050505050505050565b600081815260018084016020526040808320600281018054915482865292852090930154938590529183905590918015612ce057600081815260018601602052604090208490555b6000838152600186016020526040902082905581612d0057828555612d4c565b60008281526001808701602052604090912001548403612d355760008281526001808701602052604090912001839055612d4c565b600082815260018601602052604090206002018390555b505060008181526001938401602052604080822090940183905591825291902055565b60008181526001808401602052604080832091820180549254838552918420600201549385905283905590918015612db557600081815260018601602052604090208490555b6000838152600186016020526040902082905581612dd557828555612e21565b60008281526001860160205260409020600201548403612e0a5760008281526001860160205260409020600201839055612e21565b600082815260018087016020526040909120018390555b5050600081815260019093016020526040808420600201839055918352912055565b6000612e50848484612e99565b801561135b575061135b8484612fce565b6000918252600190920160205260409020600301805465ffffffffffff9092166101000266ffffffffffff0019909216919091179055565b600082815260018085016020908152604080842065ffffffffffff808716808752600683018552838720845160a0810186528154808516808352600160301b8204861698830198909852600160601b900490931694830194909452948301546001600160a01b0316606082015260029092015460808301528593909214612f265760009350505050610bf2565b5b604081015165ffffffffffff1615612faf5760409081015165ffffffffffff808216600090815260068501602090815290849020845160a08101865281548085168252600160301b8104851693820193909352600160601b9092049092169381019390935260018101546001600160a01b031660608401526002015460808301529250612f27565b5060030154610100900465ffffffffffff908116911614949350505050565b81546000908203612fe157506001610423565b815b60008181526001850160205260409020541561305557600081815260018086016020526040808320548084529220908101548314801590613028575082816002015414155b156130395760009350505050610423565b8554820361304d5760019350505050610423565b509050612fe3565b5060009392505050565b6040518060800160405280600065ffffffffffff16815260200160006001600160a01b0316815260200160008152602001600081525090565b803560ff81168114611cdc57600080fd5b6000602082840312156130bb57600080fd5b610bf282613098565b600081518084526020808501945080840160005b838110156130f4578151875295820195908201906001016130d8565b509495945050505050565b602081526000610bf260208301846130c4565b858152602081018590526040810184905261016081016131646060830185805165ffffffffffff1682526020808201516001600160a01b03169083015260408082015190830152606090810151910152565b825165ffffffffffff1660e083015260208301516001600160a01b0316610100830152604083015161012083015260608301516101408301525b9695505050505050565b634e487b7160e01b600052604160045260246000fd5b600060208083850312156131d157600080fd5b823567ffffffffffffffff808211156131e957600080fd5b818501915085601f8301126131fd57600080fd5b81358181111561320f5761320f6131a8565b8060051b604051601f19603f83011681018181108582111715613234576132346131a8565b60405291825284820192508381018501918883111561325257600080fd5b938501935b828510156118955761326885613098565b84529385019392850192613257565b600080600080600060a0868803121561328f57600080fd5b61329886613098565b94506132a660208701613098565b94979496505050506040830135926060810135926080909101359150565b6000806000606084860312156132d957600080fd5b505081359360208301359350604090920135919050565b60006020828403121561330257600080fd5b5035919050565b6000806040838503121561331c57600080fd5b61332583613098565b946020939093013593505050565b60608152600061334660608301866130c4565b828103602084015261335881866130c4565b9050828103604084015261319e81856130c4565b634e487b7160e01b600052602160045260246000fd5b634e487b7160e01b600052603260045260246000fd5b634e487b7160e01b600052601160045260246000fd5b6000600182016133c0576133c0613398565b5060010190565b8181038181111561042357610423613398565b6000816133e9576133e9613398565b506000190190565b808202811582820484141761042357610423613398565b8082018082111561042357610423613398565b600060ff821660ff810361343157613431613398565b60010192915050565b60008261345757634e487b7160e01b600052601260045260246000fd5b500490565b60208082526035908201527f4f7264657253746174697374696373547265654c69623a205374617274696e676040820152742076616c75652063616e6e6f74206265207a65726f60581b60608201526080019056fea2646970667358221220daa0ea08c9ac5c745e27cf00d3cdef2148b1ce354fd442ffccebd3e70e98b4cc64736f6c63430008130033",
  "devdoc": {
    "kind": "dev",
    "methods": {},
    "version": 1
  },
  "userdoc": {
    "kind": "user",
    "methods": {},
    "version": 1
  },
  "storageLayout": {
    "storage": [],
    "types": null
  }
}