{
  "address": "0x9567D460d9CFC98c41aba884cb3AC1Df87572491",
  "abi": [
    {
      "inputs": [
        {
          "internalType": "string",
          "name": "name",
          "type": "string"
        }
      ],
      "name": "MissingAddress",
      "type": "error"
    },
    {
      "inputs": [],
      "name": "OnlyAcceptedContracts",
      "type": "error"
    },
    {
      "inputs": [],
      "name": "ResolverAlreadyRegistered",
      "type": "error"
    },
    {
      "inputs": [
        {
          "internalType": "uint256",
          "name": "index",
          "type": "uint256"
        }
      ],
      "name": "TransactionFailed",
      "type": "error"
    },
    {
      "inputs": [],
      "name": "WrongArrayLengths",
      "type": "error"
    },
    {
      "anonymous": false,
      "inputs": [
        {
          "indexed": false,
          "internalType": "bytes32",
          "name": "name",
          "type": "bytes32"
        },
        {
          "indexed": false,
          "internalType": "address",
          "name": "destination",
          "type": "address"
        }
      ],
      "name": "CacheUpdated",
      "type": "event"
    },
    {
      "anonymous": false,
      "inputs": [
        {
          "indexed": false,
          "internalType": "uint8",
          "name": "version",
          "type": "uint8"
        }
      ],
      "name": "Initialized",
      "type": "event"
    },
    {
      "anonymous": false,
      "inputs": [
        {
          "indexed": true,
          "internalType": "address",
          "name": "previousOwner",
          "type": "address"
        },
        {
          "indexed": true,
          "internalType": "address",
          "name": "newOwner",
          "type": "address"
        }
      ],
      "name": "OwnershipTransferred",
      "type": "event"
    },
    {
      "anonymous": false,
      "inputs": [
        {
          "indexed": false,
          "internalType": "address",
          "name": "account",
          "type": "address"
        }
      ],
      "name": "Pause",
      "type": "event"
    },
    {
      "anonymous": false,
      "inputs": [
        {
          "indexed": false,
          "internalType": "address",
          "name": "from",
          "type": "address"
        },
        {
          "indexed": false,
          "internalType": "address",
          "name": "target",
          "type": "address"
        },
        {
          "indexed": false,
          "internalType": "uint256",
          "name": "value",
          "type": "uint256"
        },
        {
          "indexed": false,
          "internalType": "bytes",
          "name": "data",
          "type": "bytes"
        }
      ],
      "name": "TransactionExecuted",
      "type": "event"
    },
    {
      "anonymous": false,
      "inputs": [
        {
          "indexed": false,
          "internalType": "address",
          "name": "from",
          "type": "address"
        },
        {
          "indexed": false,
          "internalType": "address[]",
          "name": "targets",
          "type": "address[]"
        },
        {
          "indexed": false,
          "internalType": "uint256[]",
          "name": "values",
          "type": "uint256[]"
        },
        {
          "indexed": false,
          "internalType": "bytes[]",
          "name": "data",
          "type": "bytes[]"
        }
      ],
      "name": "TransactionsExecuted",
      "type": "event"
    },
    {
      "anonymous": false,
      "inputs": [
        {
          "indexed": false,
          "internalType": "address",
          "name": "account",
          "type": "address"
        }
      ],
      "name": "Unpause",
      "type": "event"
    },
    {
      "inputs": [],
      "name": "acceptedContracts",
      "outputs": [
        {
          "internalType": "bytes32[]",
          "name": "contracts",
          "type": "bytes32[]"
        }
      ],
      "stateMutability": "pure",
      "type": "function"
    },
    {
      "inputs": [],
      "name": "buildCache",
      "outputs": [],
      "stateMutability": "nonpayable",
      "type": "function"
    },
    {
      "inputs": [
        {
          "internalType": "bytes32",
          "name": "_ccy",
          "type": "bytes32"
        },
        {
          "internalType": "uint256",
          "name": "_amount",
          "type": "uint256"
        }
      ],
      "name": "deposit",
      "outputs": [],
      "stateMutability": "payable",
      "type": "function"
    },
    {
      "inputs": [
        {
          "internalType": "address",
          "name": "_target",
          "type": "address"
        },
        {
          "internalType": "bytes",
          "name": "_data",
          "type": "bytes"
        }
      ],
      "name": "executeTransaction",
      "outputs": [],
      "stateMutability": "payable",
      "type": "function"
    },
    {
      "inputs": [
        {
          "internalType": "address[]",
          "name": "_targets",
          "type": "address[]"
        },
        {
          "internalType": "uint256[]",
          "name": "_values",
          "type": "uint256[]"
        },
        {
          "internalType": "bytes[]",
          "name": "_data",
          "type": "bytes[]"
        }
      ],
      "name": "executeTransactions",
      "outputs": [],
      "stateMutability": "nonpayable",
      "type": "function"
    },
    {
      "inputs": [
        {
          "internalType": "address",
          "name": "_owner",
          "type": "address"
        },
        {
          "internalType": "address",
          "name": "_resolver",
          "type": "address"
        },
        {
          "internalType": "address",
          "name": "_nativeToken",
          "type": "address"
        }
      ],
      "name": "initialize",
      "outputs": [],
      "stateMutability": "nonpayable",
      "type": "function"
    },
    {
      "inputs": [],
      "name": "isPaused",
      "outputs": [
        {
          "internalType": "bool",
          "name": "",
          "type": "bool"
        }
      ],
      "stateMutability": "view",
      "type": "function"
    },
    {
      "inputs": [],
      "name": "isResolverCached",
      "outputs": [
        {
          "internalType": "bool",
          "name": "",
          "type": "bool"
        }
      ],
      "stateMutability": "view",
      "type": "function"
    },
    {
      "inputs": [],
      "name": "owner",
      "outputs": [
        {
          "internalType": "address",
          "name": "",
          "type": "address"
        }
      ],
      "stateMutability": "view",
      "type": "function"
    },
    {
      "inputs": [],
      "name": "pause",
      "outputs": [],
      "stateMutability": "nonpayable",
      "type": "function"
    },
    {
      "inputs": [],
      "name": "renounceOwnership",
      "outputs": [],
      "stateMutability": "nonpayable",
      "type": "function"
    },
    {
      "inputs": [],
      "name": "requiredContracts",
      "outputs": [
        {
          "internalType": "bytes32[]",
          "name": "contracts",
          "type": "bytes32[]"
        }
      ],
      "stateMutability": "pure",
      "type": "function"
    },
    {
      "inputs": [],
      "name": "resolver",
      "outputs": [
        {
          "internalType": "contract IAddressResolver",
          "name": "",
          "type": "address"
        }
      ],
      "stateMutability": "view",
      "type": "function"
    },
    {
      "inputs": [
        {
          "internalType": "address",
          "name": "newOwner",
          "type": "address"
        }
      ],
      "name": "transferOwnership",
      "outputs": [],
      "stateMutability": "nonpayable",
      "type": "function"
    },
    {
      "inputs": [],
      "name": "unpause",
      "outputs": [],
      "stateMutability": "nonpayable",
      "type": "function"
    },
    {
      "inputs": [
        {
          "internalType": "bytes32",
          "name": "_ccy",
          "type": "bytes32"
        },
        {
          "internalType": "uint256",
          "name": "_amount",
          "type": "uint256"
        }
      ],
      "name": "withdraw",
      "outputs": [],
      "stateMutability": "nonpayable",
      "type": "function"
    },
    {
      "stateMutability": "payable",
      "type": "receive"
    }
  ],
  "transactionHash": "0x3b0dd8bea3a9273f2aa177371c78406f3920033a25b0f4542cd23709b97f74e1",
  "args": [],
  "numDeployments": 2,
  "solcInputHash": "ea2e21b776e9624cd11ce2b04f319a72",
  "bytecode": "0x608060405234801561001057600080fd5b50611ba9806100206000396000f3fe6080604052600436106100f75760003560e01c80636ca0f8141161008a578063b187bd2611610059578063b187bd261461024d578063c0c53b8b14610272578063e099765914610292578063f2fde38b146102a657600080fd5b80636ca0f814146101fb578063715018a61461020e5780638456cb59146102235780638da5cb5b1461023857600080fd5b806329985e5a116100c657806329985e5a1461018a5780632af64bd31461019f5780633d03b9da146101c45780633f4ba83a146101e657600080fd5b8063040cf0201461010357806304f3bcec1461012557806312e8eaef146101575780631de26e161461017757600080fd5b366100fe57005b600080fd5b34801561010f57600080fd5b5061012361011e366004611522565b6102c6565b005b34801561013157600080fd5b5061013a610314565b6040516001600160a01b0390911681526020015b60405180910390f35b34801561016357600080fd5b50610123610172366004611590565b610335565b610123610185366004611522565b6104df565b34801561019657600080fd5b50610123610520565b3480156101ab57600080fd5b506101b46106c9565b604051901515815260200161014e565b3480156101d057600080fd5b506101d961082f565b60405161014e919061162a565b3480156101f257600080fd5b506101236108bf565b610123610209366004611683565b61090c565b34801561021a57600080fd5b50610123610a04565b34801561022f57600080fd5b50610123610a3f565b34801561024457600080fd5b5061013a610a89565b34801561025957600080fd5b50600080516020611b348339815191525460ff166101b4565b34801561027e57600080fd5b5061012361028d366004611708565b610ab1565b34801561029e57600080fd5b5060606101d9565b3480156102b257600080fd5b506101236102c1366004611753565b610c4f565b336102cf610a89565b6001600160a01b0316146102fe5760405162461bcd60e51b81526004016102f590611777565b60405180910390fd5b610310610309610cef565b8383610cfe565b5050565b6000600080516020611b148339815191525b546001600160a01b0316919050565b3361033e610a89565b6001600160a01b0316146103645760405162461bcd60e51b81526004016102f590611777565b84811415806103735750848314155b1561039157604051639e63483b60e01b815260040160405180910390fd5b60005b858110156104935760008787838181106103b0576103b06117ac565b90506020020160208101906103c59190611753565b6001600160a01b03168686848181106103e0576103e06117ac565b905060200201358585858181106103f9576103f96117ac565b905060200281019061040b91906117c2565b604051610419929190611809565b60006040518083038185875af1925050503d8060008114610456576040519150601f19603f3d011682016040523d82523d6000602084013e61045b565b606091505b50509050806104805760405163e23a6a9560e01b8152600481018390526024016102f5565b508061048b81611819565b915050610394565b507f05030b5afcf536666aa9b6a8ed0d3d4800c382786981220d1f7cc14f17fe2ed4338787878787876040516104cf97969594939291906118fc565b60405180910390a1505050505050565b336104e8610a89565b6001600160a01b03161461050e5760405162461bcd60e51b81526004016102f590611777565b610310610519610cef565b8383610e19565b600061052a61082f565b905060005b815181101561031057600082828151811061054c5761054c6117ac565b60200260200101519050600061056d600080516020611b1483398151915290565b54604080517f5265736f6c766572206d697373696e67207461726765743a200000000000000060208201526039808201869052825180830390910181526059820192839052636795dbcd60e01b9092526001600160a01b0390921691636795dbcd916105de91869190605d01611a01565b60206040518083038186803b1580156105f657600080fd5b505afa15801561060a573d6000803e3d6000fd5b505050506040513d601f19601f8201168201806040525081019061062e9190611a22565b60008381527f4abde63c3e81aefa5764b017968bc473e83e093d7e1a10247d19e0a3e4124019602090815260409182902080546001600160a01b0319166001600160a01b03851690811790915582518681529182015281519293507f88a93678a3692f6789d9546fc621bf7234b101ddb7d4fe479455112831b8aa68929081900390910190a1505080806106c190611819565b91505061052f565b6000806106d461082f565b905060005b81518110156108265760008282815181106106f6576106f66117ac565b60200260200101519050610715600080516020611b1483398151915290565b600082815260019190910160205260409020546001600160a01b0316600080516020611b14833981519152546040516321f8a72160e01b8152600481018490526001600160a01b03909116906321f8a7219060240160206040518083038186803b15801561078257600080fd5b505afa158015610796573d6000803e3d6000fd5b505050506040513d601f19601f820116820180604052508101906107ba9190611a22565b6001600160a01b0316141580610804575060008181527f4abde63c3e81aefa5764b017968bc473e83e093d7e1a10247d19e0a3e412401960205260409020546001600160a01b0316155b15610813576000935050505090565b508061081e81611819565b9150506106d9565b50600191505090565b60408051600280825260608083018452926020830190803683370190505090507f4c656e64696e674d61726b6574436f6e74726f6c6c657200000000000000000081600081518110610883576108836117ac565b60200260200101818152505069151bdad95b95985d5b1d60b21b816001815181106108b0576108b06117ac565b60200260200101818152505090565b600080516020611b34833981519152805460ff191690556040513381527faeb196d352664784d1900b0e7414a8face7d29f4dae8c4b0cf68ed477423bbf4906020015b60405180910390a1565b33610915610a89565b6001600160a01b03161461093b5760405162461bcd60e51b81526004016102f590611777565b6000836001600160a01b0316348484604051610958929190611809565b60006040518083038185875af1925050503d8060008114610995576040519150601f19603f3d011682016040523d82523d6000602084013e61099a565b606091505b50509050806109bf5760405163e23a6a9560e01b8152600060048201526024016102f5565b7f9b9454e35c96c025dbfe5fc6ac29b7e4595138f5bd9b8a84c26ef3b16660e0a033853486866040516109f6959493929190611a3f565b60405180910390a150505050565b33610a0d610a89565b6001600160a01b031614610a335760405162461bcd60e51b81526004016102f590611777565b610a3d6000610f39565b565b600080516020611b34833981519152805460ff191660011790556040513381527f5ee71a369c8672edded508e624ffc9257fa1ae6886ef32905c18e60196bca39990602001610902565b60007f9acda75aebd150dd434541a4747a6dc606f4f1a59662477e67daf1fc0bf9e0aa610326565b600054610100900460ff1615808015610ad15750600054600160ff909116105b80610aeb5750303b158015610aeb575060005460ff166001145b610b4e5760405162461bcd60e51b815260206004820152602e60248201527f496e697469616c697a61626c653a20636f6e747261637420697320616c72656160448201526d191e481a5b9a5d1a585b1a5e995960921b60648201526084016102f5565b6000805460ff191660011790558015610b71576000805461ff0019166101001790555b6000610b7b610faa565b6001600160a01b03161415610bdd5760405162461bcd60e51b815260206004820152602260248201527f4d7573742062652063616c6c65642066726f6d2070726f787920636f6e74726160448201526118dd60f21b60648201526084016102f5565b600080516020611b34833981519152805460ff19169055610bfd83610fd2565b610c07848361103b565b8015610c49576000805461ff0019169055604051600181527f7f26b83ff96e1f2b6a682f133852f6798a09c465da95921460cefb3847402498906020016109f6565b50505050565b33610c58610a89565b6001600160a01b031614610c7e5760405162461bcd60e51b81526004016102f590611777565b6001600160a01b038116610ce35760405162461bcd60e51b815260206004820152602660248201527f4f776e61626c653a206e6577206f776e657220697320746865207a65726f206160448201526564647265737360d01b60648201526084016102f5565b610cec81610f39565b50565b6000610cf961104d565b905090565b6040516220678160e51b815260048101839052602481018290526001600160a01b0384169063040cf02090604401600060405180830381600087803b158015610d4657600080fd5b505af1158015610d5a573d6000803e3d6000fd5b5050604051630b12e44160e41b815260048101859052600092506001600160a01b038616915063b12e44109060240160206040518083038186803b158015610da157600080fd5b505afa158015610db5573d6000803e3d6000fd5b505050506040513d601f19601f82011682018060405250810190610dd99190611a22565b600080516020611b54833981519152549091506001600160a01b0380831691161415610e0e57610e093383611065565b610c49565b610c49813384611133565b604051630b12e44160e41b8152600481018390526000906001600160a01b0385169063b12e44109060240160206040518083038186803b158015610e5c57600080fd5b505afa158015610e70573d6000803e3d6000fd5b505050506040513d601f19601f82011682018060405250810190610e949190611a22565b600080516020611b54833981519152549091506001600160a01b03808316911614610ed057610ec58133308561121e565b610ed0818584611312565b604051630ef1370b60e11b815260048101849052602481018390526001600160a01b03851690631de26e169034906044016000604051808303818588803b158015610f1a57600080fd5b505af1158015610f2e573d6000803e3d6000fd5b505050505050505050565b7f9acda75aebd150dd434541a4747a6dc606f4f1a59662477e67daf1fc0bf9e0aa80546001600160a01b038381166001600160a01b0319831681179093556040519116919082907f8be0079c531659141344cd1fd0a4f28419497f9722a3daafe3b4186f6b6457e090600090a35050565b60007f360894a13ba1a3210667c828492db98dca3e2076cc3735a920a3ca505d382bbc610326565b600080516020611b14833981519152546001600160a01b031615611009576040516304b79d6360e51b815260040160405180910390fd5b80600080516020611b148339815191525b80546001600160a01b0319166001600160a01b039290921691909117905550565b61104482610f39565b61031081611426565b6000610cf969151bdad95b95985d5b1d60b21b6114ad565b604080516000808252602082019092526001600160a01b03841690839060405161108f9190611a7e565b60006040518083038185875af1925050503d80600081146110cc576040519150601f19603f3d011682016040523d82523d6000602084013e6110d1565b606091505b505090508061112e5760405162461bcd60e51b815260206004820152602360248201527f5472616e7366657248656c7065723a204554485f5452414e534645525f46414960448201526213115160ea1b60648201526084016102f5565b505050565b604080516001600160a01b038481166024830152604480830185905283518084039091018152606490920183526020820180516001600160e01b031663a9059cbb60e01b179052915160009283929087169161118f9190611a7e565b6000604051808303816000865af19150503d80600081146111cc576040519150601f19603f3d011682016040523d82523d6000602084013e6111d1565b606091505b50915091508180156111fb5750805115806111fb5750808060200190518101906111fb9190611a9a565b6112175760405162461bcd60e51b81526004016102f590611abc565b5050505050565b604080516001600160a01b0385811660248301528481166044830152606480830185905283518084039091018152608490920183526020820180516001600160e01b03166323b872dd60e01b17905291516000928392908816916112829190611a7e565b6000604051808303816000865af19150503d80600081146112bf576040519150601f19603f3d011682016040523d82523d6000602084013e6112c4565b606091505b50915091508180156112ee5750805115806112ee5750808060200190518101906112ee9190611a9a565b61130a5760405162461bcd60e51b81526004016102f590611abc565b505050505050565b604080516001600160a01b038481166024830152604480830185905283518084039091018152606490920183526020820180516001600160e01b031663095ea7b360e01b179052915160009283929087169161136e9190611a7e565b6000604051808303816000865af19150503d80600081146113ab576040519150601f19603f3d011682016040523d82523d6000602084013e6113b0565b606091505b50915091508180156113da5750805115806113da5750808060200190518101906113da9190611a9a565b6112175760405162461bcd60e51b815260206004820152601e60248201527f5472616e7366657248656c7065723a20415050524f56455f4641494c4544000060448201526064016102f5565b600080516020611b54833981519152546001600160a01b0316156114985760405162461bcd60e51b815260206004820152602360248201527f5472616e7366657248656c7065723a20416c726561647920696e697469616c696044820152621e995960ea1b60648201526084016102f5565b80600080516020611b5483398151915261101a565b60008181527f4abde63c3e81aefa5764b017968bc473e83e093d7e1a10247d19e0a3e412401960205260408120546001600160a01b03168061151c5760408051602081018590520160408051601f19818403018152908290526346e2ec9360e01b82526102f591600401611b00565b92915050565b6000806040838503121561153557600080fd5b50508035926020909101359150565b60008083601f84011261155657600080fd5b50813567ffffffffffffffff81111561156e57600080fd5b6020830191508360208260051b850101111561158957600080fd5b9250929050565b600080600080600080606087890312156115a957600080fd5b863567ffffffffffffffff808211156115c157600080fd5b6115cd8a838b01611544565b909850965060208901359150808211156115e657600080fd5b6115f28a838b01611544565b9096509450604089013591508082111561160b57600080fd5b5061161889828a01611544565b979a9699509497509295939492505050565b6020808252825182820181905260009190848201906040850190845b8181101561166257835183529284019291840191600101611646565b50909695505050505050565b6001600160a01b0381168114610cec57600080fd5b60008060006040848603121561169857600080fd5b83356116a38161166e565b9250602084013567ffffffffffffffff808211156116c057600080fd5b818601915086601f8301126116d457600080fd5b8135818111156116e357600080fd5b8760208285010111156116f557600080fd5b6020830194508093505050509250925092565b60008060006060848603121561171d57600080fd5b83356117288161166e565b925060208401356117388161166e565b915060408401356117488161166e565b809150509250925092565b60006020828403121561176557600080fd5b81356117708161166e565b9392505050565b6020808252818101527f4f776e61626c653a2063616c6c6572206973206e6f7420746865206f776e6572604082015260600190565b634e487b7160e01b600052603260045260246000fd5b6000808335601e198436030181126117d957600080fd5b83018035915067ffffffffffffffff8211156117f457600080fd5b60200191503681900382131561158957600080fd5b8183823760009101908152919050565b600060001982141561183b57634e487b7160e01b600052601160045260246000fd5b5060010190565b81835281816020850137506000828201602090810191909152601f909101601f19169091010190565b81835260006020808501808196508560051b810191508460005b878110156118ef5782840389528135601e198836030181126118a657600080fd5b8701803567ffffffffffffffff8111156118bf57600080fd5b8036038913156118ce57600080fd5b6118db8682898501611842565b9a87019a9550505090840190600101611885565b5091979650505050505050565b6001600160a01b03888116825260806020808401829052908301889052600091899160a08501845b8b81101561194b5784356119378161166e565b841682529382019390820190600101611924565b5085810360408701528881526001600160fb1b0389111561196b57600080fd5b8860051b9350838a8383013760009301818101938452858103909101606086015291905061199a81868861186b565b9b9a5050505050505050505050565b60005b838110156119c45781810151838201526020016119ac565b83811115610c495750506000910152565b600081518084526119ed8160208601602086016119a9565b601f01601f19169290920160200192915050565b828152604060208201526000611a1a60408301846119d5565b949350505050565b600060208284031215611a3457600080fd5b81516117708161166e565b6001600160a01b0386811682528516602082015260408101849052608060608201819052600090611a739083018486611842565b979650505050505050565b60008251611a908184602087016119a9565b9190910192915050565b600060208284031215611aac57600080fd5b8151801515811461177057600080fd5b60208082526024908201527f5472616e7366657248656c7065723a205452414e534645525f46524f4d5f46416040820152631253115160e21b606082015260800190565b60208152600061177060208301846119d556fe4abde63c3e81aefa5764b017968bc473e83e093d7e1a10247d19e0a3e41240186f3088bd2046115232bd6d07a71df2fcaf1e55c5eb2db67ff171bb3e2086b0673a2b81b27c095d6e2aecbb7be5d317f24d3f11a9eb2b6e2d16957fe4c0b4ddf3a26469706673582212207be138c7395f6e3fb15280ce977ad930e1d77bb17d8c12e3502962dcee99857464736f6c63430008090033",
  "implementation": "0x1b82C0A0C1Aff16E12740236A4223b3AAD0f812a",
  "devdoc": {
    "kind": "dev",
    "methods": {
      "acceptedContracts()": {
        "details": "The contact name listed in this method is also needed to be listed `requiredContracts` method."
      },
      "deposit(bytes32,uint256)": {
        "details": "Deposits funds by the caller into the token vault as reserve fund.",
        "params": {
          "_amount": "Amount of funds to deposit",
          "_ccy": "Currency name in bytes32"
        }
      },
      "executeTransaction(address,bytes)": {
        "details": "Executes an arbitrary transaction by Secured Finance admin.",
        "params": {
          "_data": "Encoded function data to be executed",
          "_target": "Address to be called"
        }
      },
      "executeTransactions(address[],uint256[],bytes[])": {
        "details": "Executes arbitrary transactions by Secured Finance admin.",
        "params": {
          "_data": "Encoded function data to be executed",
          "_targets": "Array of Addresses to be called",
          "_values": "Array of values to be sent to _targets addresses"
        }
      },
      "initialize(address,address,address)": {
        "details": "Function is invoked by the proxy contract when the contract is added to the ProxyController.",
        "params": {
          "_nativeToken": "The address of wrapped token of native currency",
          "_owner": "The address of the contract owner",
          "_resolver": "The address of the Address Resolver contract"
        }
      },
      "isPaused()": {
        "returns": {
          "_0": "The boolean if the reserve fund is paused"
        }
      },
      "owner()": {
        "details": "Returns the address of the current owner."
      },
      "renounceOwnership()": {
        "details": "Leaves the contract without owner. It will not be possible to call `onlyOwner` functions anymore. Can only be called by the current owner. NOTE: Renouncing ownership will leave the contract without an owner, thereby removing any functionality that is only available to the owner."
      },
      "requiredContracts()": {
        "details": "The contract name list is in `./libraries/Contracts.sol`."
      },
      "transferOwnership(address)": {
        "details": "Transfers ownership of the contract to a new account (`newOwner`). Can only be called by the current owner."
      },
      "withdraw(bytes32,uint256)": {
        "details": "Withdraw funds by the caller from the token vault.",
        "params": {
          "_amount": "Amount of funds to deposit",
          "_ccy": "Currency name in bytes32"
        }
      }
    },
    "version": 1
  },
  "userdoc": {
    "kind": "user",
    "methods": {
      "acceptedContracts()": {
        "notice": "Returns contract names that can call this contract."
      },
      "initialize(address,address,address)": {
        "notice": "Initializes the contract."
      },
      "isPaused()": {
        "notice": "Gets if the reserve fund is paused."
      },
      "pause()": {
        "notice": "Pauses the reserve fund."
      },
      "requiredContracts()": {
        "notice": "Returns the contract names used in this contract."
      },
      "unpause()": {
        "notice": "Unpauses the reserve fund."
      }
    },
    "notice": "Implements managing of the reserve fund.",
    "version": 1
  },
  "storageLayout": {
    "storage": [
      {
        "astId": 995,
        "contract": "contracts/protocol/ReserveFund.sol:ReserveFund",
        "label": "_initialized",
        "offset": 0,
        "slot": "0",
        "type": "t_uint8"
      },
      {
        "astId": 998,
        "contract": "contracts/protocol/ReserveFund.sol:ReserveFund",
        "label": "_initializing",
        "offset": 1,
        "slot": "0",
        "type": "t_bool"
      }
    ],
    "types": {
      "t_bool": {
        "encoding": "inplace",
        "label": "bool",
        "numberOfBytes": "1"
      },
      "t_uint8": {
        "encoding": "inplace",
        "label": "uint8",
        "numberOfBytes": "1"
      }
    }
  }
}