{
  "address": "0xa2700D5feDB13b86Bba3228008C7a0d464a07f2b",
  "abi": [
    {
      "inputs": [
        {
          "internalType": "uint256",
          "name": "currentMaturity",
          "type": "uint256"
        },
        {
          "internalType": "uint256",
          "name": "nextMaturity",
          "type": "uint256"
        }
      ],
      "name": "AutoRollLogAlreadyUpdated",
      "type": "error"
    },
    {
      "inputs": [],
      "name": "CompoundFactorIsZero",
      "type": "error"
    },
    {
      "inputs": [],
      "name": "CurrencyAlreadyInitialized",
      "type": "error"
    },
    {
      "inputs": [],
      "name": "InitialCompoundFactorAlreadyFinalized",
      "type": "error"
    },
    {
      "inputs": [],
      "name": "InvalidAmount",
      "type": "error"
    },
    {
      "inputs": [],
      "name": "InvalidMaturity",
      "type": "error"
    },
    {
      "inputs": [],
      "name": "InvalidOrderFeeRate",
      "type": "error"
    },
    {
      "inputs": [
        {
          "internalType": "string",
          "name": "name",
          "type": "string"
        }
      ],
      "name": "MissingAddress",
      "type": "error"
    },
    {
      "inputs": [
        {
          "internalType": "uint256",
          "name": "maturity",
          "type": "uint256"
        }
      ],
      "name": "NoCompoundFactorExists",
      "type": "error"
    },
    {
      "inputs": [
        {
          "internalType": "string",
          "name": "name",
          "type": "string"
        }
      ],
      "name": "OnlyAcceptedContract",
      "type": "error"
    },
    {
      "inputs": [],
      "name": "ResidualAmountIsNotZero",
      "type": "error"
    },
    {
      "inputs": [],
      "name": "ResolverAlreadyRegistered",
      "type": "error"
    },
    {
      "inputs": [],
      "name": "UnitPriceIsZero",
      "type": "error"
    },
    {
      "anonymous": false,
      "inputs": [
        {
          "indexed": true,
          "internalType": "bytes32",
          "name": "ccy",
          "type": "bytes32"
        },
        {
          "indexed": false,
          "internalType": "uint256",
          "name": "lendingCompoundFactor",
          "type": "uint256"
        },
        {
          "indexed": false,
          "internalType": "uint256",
          "name": "borrowingCompoundFactor",
          "type": "uint256"
        },
        {
          "indexed": false,
          "internalType": "uint256",
          "name": "unitPrice",
          "type": "uint256"
        },
        {
          "indexed": false,
          "internalType": "uint256",
          "name": "currentMaturity",
          "type": "uint256"
        },
        {
          "indexed": false,
          "internalType": "uint256",
          "name": "previousMaturity",
          "type": "uint256"
        }
      ],
      "name": "AutoRollExecuted",
      "type": "event"
    },
    {
      "anonymous": false,
      "inputs": [
        {
          "indexed": false,
          "internalType": "bytes32",
          "name": "name",
          "type": "bytes32"
        },
        {
          "indexed": false,
          "internalType": "address",
          "name": "destination",
          "type": "address"
        }
      ],
      "name": "CacheUpdated",
      "type": "event"
    },
    {
      "anonymous": false,
      "inputs": [
        {
          "indexed": false,
          "internalType": "uint8",
          "name": "version",
          "type": "uint8"
        }
      ],
      "name": "Initialized",
      "type": "event"
    },
    {
      "anonymous": false,
      "inputs": [
        {
          "indexed": true,
          "internalType": "bytes32",
          "name": "ccy",
          "type": "bytes32"
        },
        {
          "indexed": true,
          "internalType": "address",
          "name": "from",
          "type": "address"
        },
        {
          "indexed": true,
          "internalType": "address",
          "name": "to",
          "type": "address"
        },
        {
          "indexed": false,
          "internalType": "int256",
          "name": "value",
          "type": "int256"
        }
      ],
      "name": "Transfer",
      "type": "event"
    },
    {
      "inputs": [],
      "name": "buildCache",
      "outputs": [],
      "stateMutability": "nonpayable",
      "type": "function"
    },
    {
      "inputs": [
        {
          "internalType": "bytes32",
          "name": "_ccy",
          "type": "bytes32"
        },
        {
          "internalType": "int256",
          "name": "_balance",
          "type": "int256"
        },
        {
          "internalType": "uint256",
          "name": "_fromMaturity",
          "type": "uint256"
        },
        {
          "internalType": "uint256",
          "name": "_toMaturity",
          "type": "uint256"
        }
      ],
      "name": "calculateBalanceFluctuationByAutoRolls",
      "outputs": [
        {
          "internalType": "int256",
          "name": "fluctuation",
          "type": "int256"
        }
      ],
      "stateMutability": "view",
      "type": "function"
    },
    {
      "inputs": [
        {
          "internalType": "bytes32",
          "name": "_ccy",
          "type": "bytes32"
        },
        {
          "internalType": "uint256",
          "name": "_basisMaturity",
          "type": "uint256"
        },
        {
          "internalType": "uint256",
          "name": "_destinationMaturity",
          "type": "uint256"
        },
        {
          "internalType": "int256",
          "name": "_futureValue",
          "type": "int256"
        }
      ],
      "name": "calculateFVFromFV",
      "outputs": [
        {
          "internalType": "int256",
          "name": "",
          "type": "int256"
        }
      ],
      "stateMutability": "view",
      "type": "function"
    },
    {
      "inputs": [
        {
          "internalType": "bytes32",
          "name": "_ccy",
          "type": "bytes32"
        },
        {
          "internalType": "uint256",
          "name": "_basisMaturity",
          "type": "uint256"
        },
        {
          "internalType": "int256",
          "name": "_genesisValue",
          "type": "int256"
        }
      ],
      "name": "calculateFVFromGV",
      "outputs": [
        {
          "internalType": "int256",
          "name": "",
          "type": "int256"
        }
      ],
      "stateMutability": "view",
      "type": "function"
    },
    {
      "inputs": [
        {
          "internalType": "bytes32",
          "name": "_ccy",
          "type": "bytes32"
        },
        {
          "internalType": "uint256",
          "name": "_basisMaturity",
          "type": "uint256"
        },
        {
          "internalType": "int256",
          "name": "_futureValue",
          "type": "int256"
        }
      ],
      "name": "calculateGVFromFV",
      "outputs": [
        {
          "internalType": "int256",
          "name": "",
          "type": "int256"
        }
      ],
      "stateMutability": "view",
      "type": "function"
    },
    {
      "inputs": [
        {
          "internalType": "bytes32",
          "name": "_ccy",
          "type": "bytes32"
        },
        {
          "internalType": "address",
          "name": "_user",
          "type": "address"
        },
        {
          "internalType": "uint256",
          "name": "_maturity",
          "type": "uint256"
        }
      ],
      "name": "cleanUpBalance",
      "outputs": [],
      "stateMutability": "nonpayable",
      "type": "function"
    },
    {
      "inputs": [
        {
          "internalType": "bytes32",
          "name": "_ccy",
          "type": "bytes32"
        }
      ],
      "name": "decimals",
      "outputs": [
        {
          "internalType": "uint8",
          "name": "",
          "type": "uint8"
        }
      ],
      "stateMutability": "view",
      "type": "function"
    },
    {
      "inputs": [
        {
          "internalType": "bytes32",
          "name": "_ccy",
          "type": "bytes32"
        },
        {
          "internalType": "uint256",
          "name": "_maturity",
          "type": "uint256"
        },
        {
          "internalType": "uint256",
          "name": "_nextMaturity",
          "type": "uint256"
        },
        {
          "internalType": "uint256",
          "name": "_unitPrice",
          "type": "uint256"
        },
        {
          "internalType": "uint256",
          "name": "_orderFeeRate",
          "type": "uint256"
        }
      ],
      "name": "executeAutoRoll",
      "outputs": [],
      "stateMutability": "nonpayable",
      "type": "function"
    },
    {
      "inputs": [
        {
          "internalType": "bytes32",
          "name": "_ccy",
          "type": "bytes32"
        },
        {
          "internalType": "uint256",
          "name": "_maturity",
          "type": "uint256"
        },
        {
          "internalType": "address",
          "name": "_user",
          "type": "address"
        },
        {
          "internalType": "int256",
          "name": "_amountInFV",
          "type": "int256"
        }
      ],
      "name": "executeForcedReset",
      "outputs": [
        {
          "internalType": "int256",
          "name": "removedAmountInFV",
          "type": "int256"
        },
        {
          "internalType": "int256",
          "name": "balance",
          "type": "int256"
        }
      ],
      "stateMutability": "nonpayable",
      "type": "function"
    },
    {
      "inputs": [
        {
          "internalType": "bytes32",
          "name": "_ccy",
          "type": "bytes32"
        },
        {
          "internalType": "address",
          "name": "_user",
          "type": "address"
        }
      ],
      "name": "executeForcedReset",
      "outputs": [],
      "stateMutability": "nonpayable",
      "type": "function"
    },
    {
      "inputs": [
        {
          "internalType": "bytes32",
          "name": "_ccy",
          "type": "bytes32"
        },
        {
          "internalType": "uint256",
          "name": "_maturity",
          "type": "uint256"
        }
      ],
      "name": "getAutoRollLog",
      "outputs": [
        {
          "components": [
            {
              "internalType": "uint256",
              "name": "unitPrice",
              "type": "uint256"
            },
            {
              "internalType": "uint256",
              "name": "lendingCompoundFactor",
              "type": "uint256"
            },
            {
              "internalType": "uint256",
              "name": "borrowingCompoundFactor",
              "type": "uint256"
            },
            {
              "internalType": "uint256",
              "name": "next",
              "type": "uint256"
            },
            {
              "internalType": "uint256",
              "name": "prev",
              "type": "uint256"
            }
          ],
          "internalType": "struct AutoRollLog",
          "name": "",
          "type": "tuple"
        }
      ],
      "stateMutability": "view",
      "type": "function"
    },
    {
      "inputs": [
        {
          "internalType": "bytes32",
          "name": "_ccy",
          "type": "bytes32"
        },
        {
          "internalType": "address",
          "name": "_user",
          "type": "address"
        }
      ],
      "name": "getBalance",
      "outputs": [
        {
          "internalType": "int256",
          "name": "",
          "type": "int256"
        }
      ],
      "stateMutability": "view",
      "type": "function"
    },
    {
      "inputs": [
        {
          "internalType": "bytes32",
          "name": "_ccy",
          "type": "bytes32"
        },
        {
          "internalType": "address",
          "name": "_user",
          "type": "address"
        },
        {
          "internalType": "uint256",
          "name": "_maturity",
          "type": "uint256"
        }
      ],
      "name": "getBalanceFluctuationByAutoRolls",
      "outputs": [
        {
          "internalType": "int256",
          "name": "fluctuation",
          "type": "int256"
        }
      ],
      "stateMutability": "view",
      "type": "function"
    },
    {
      "inputs": [
        {
          "internalType": "bytes32",
          "name": "_ccy",
          "type": "bytes32"
        },
        {
          "internalType": "address",
          "name": "_user",
          "type": "address"
        }
      ],
      "name": "getBalanceInFutureValue",
      "outputs": [
        {
          "internalType": "int256",
          "name": "",
          "type": "int256"
        }
      ],
      "stateMutability": "view",
      "type": "function"
    },
    {
      "inputs": [
        {
          "internalType": "bytes32",
          "name": "_ccy",
          "type": "bytes32"
        }
      ],
      "name": "getBorrowingCompoundFactor",
      "outputs": [
        {
          "internalType": "uint256",
          "name": "",
          "type": "uint256"
        }
      ],
      "stateMutability": "view",
      "type": "function"
    },
    {
      "inputs": [
        {
          "internalType": "bytes32",
          "name": "_ccy",
          "type": "bytes32"
        }
      ],
      "name": "getCurrentMaturity",
      "outputs": [
        {
          "internalType": "uint256",
          "name": "",
          "type": "uint256"
        }
      ],
      "stateMutability": "view",
      "type": "function"
    },
    {
      "inputs": [
        {
          "internalType": "bytes32",
          "name": "_ccy",
          "type": "bytes32"
        }
      ],
      "name": "getLatestAutoRollLog",
      "outputs": [
        {
          "components": [
            {
              "internalType": "uint256",
              "name": "unitPrice",
              "type": "uint256"
            },
            {
              "internalType": "uint256",
              "name": "lendingCompoundFactor",
              "type": "uint256"
            },
            {
              "internalType": "uint256",
              "name": "borrowingCompoundFactor",
              "type": "uint256"
            },
            {
              "internalType": "uint256",
              "name": "next",
              "type": "uint256"
            },
            {
              "internalType": "uint256",
              "name": "prev",
              "type": "uint256"
            }
          ],
          "internalType": "struct AutoRollLog",
          "name": "",
          "type": "tuple"
        }
      ],
      "stateMutability": "view",
      "type": "function"
    },
    {
      "inputs": [
        {
          "internalType": "bytes32",
          "name": "_ccy",
          "type": "bytes32"
        }
      ],
      "name": "getLendingCompoundFactor",
      "outputs": [
        {
          "internalType": "uint256",
          "name": "",
          "type": "uint256"
        }
      ],
      "stateMutability": "view",
      "type": "function"
    },
    {
      "inputs": [
        {
          "internalType": "bytes32",
          "name": "_ccy",
          "type": "bytes32"
        },
        {
          "internalType": "uint256",
          "name": "_maturity",
          "type": "uint256"
        }
      ],
      "name": "getMaturityGenesisValue",
      "outputs": [
        {
          "internalType": "int256",
          "name": "",
          "type": "int256"
        }
      ],
      "stateMutability": "view",
      "type": "function"
    },
    {
      "inputs": [],
      "name": "getRevision",
      "outputs": [
        {
          "internalType": "uint256",
          "name": "",
          "type": "uint256"
        }
      ],
      "stateMutability": "pure",
      "type": "function"
    },
    {
      "inputs": [
        {
          "internalType": "bytes32",
          "name": "_ccy",
          "type": "bytes32"
        }
      ],
      "name": "getTotalBorrowingSupply",
      "outputs": [
        {
          "internalType": "uint256",
          "name": "",
          "type": "uint256"
        }
      ],
      "stateMutability": "view",
      "type": "function"
    },
    {
      "inputs": [
        {
          "internalType": "bytes32",
          "name": "_ccy",
          "type": "bytes32"
        }
      ],
      "name": "getTotalLendingSupply",
      "outputs": [
        {
          "internalType": "uint256",
          "name": "",
          "type": "uint256"
        }
      ],
      "stateMutability": "view",
      "type": "function"
    },
    {
      "inputs": [
        {
          "internalType": "address",
          "name": "_resolver",
          "type": "address"
        }
      ],
      "name": "initialize",
      "outputs": [],
      "stateMutability": "nonpayable",
      "type": "function"
    },
    {
      "inputs": [
        {
          "internalType": "bytes32",
          "name": "_ccy",
          "type": "bytes32"
        },
        {
          "internalType": "uint8",
          "name": "_decimals",
          "type": "uint8"
        },
        {
          "internalType": "uint256",
          "name": "_compoundFactor",
          "type": "uint256"
        },
        {
          "internalType": "uint256",
          "name": "_maturity",
          "type": "uint256"
        }
      ],
      "name": "initializeCurrencySetting",
      "outputs": [],
      "stateMutability": "nonpayable",
      "type": "function"
    },
    {
      "inputs": [
        {
          "internalType": "bytes32",
          "name": "_ccy",
          "type": "bytes32"
        }
      ],
      "name": "isInitialized",
      "outputs": [
        {
          "internalType": "bool",
          "name": "",
          "type": "bool"
        }
      ],
      "stateMutability": "view",
      "type": "function"
    },
    {
      "inputs": [],
      "name": "isResolverCached",
      "outputs": [
        {
          "internalType": "bool",
          "name": "",
          "type": "bool"
        }
      ],
      "stateMutability": "view",
      "type": "function"
    },
    {
      "inputs": [],
      "name": "requiredContracts",
      "outputs": [
        {
          "internalType": "bytes32[]",
          "name": "contracts",
          "type": "bytes32[]"
        }
      ],
      "stateMutability": "pure",
      "type": "function"
    },
    {
      "inputs": [],
      "name": "resolver",
      "outputs": [
        {
          "internalType": "contract IAddressResolver",
          "name": "",
          "type": "address"
        }
      ],
      "stateMutability": "view",
      "type": "function"
    },
    {
      "inputs": [
        {
          "internalType": "bytes32",
          "name": "_ccy",
          "type": "bytes32"
        },
        {
          "internalType": "address",
          "name": "_sender",
          "type": "address"
        },
        {
          "internalType": "address",
          "name": "_receiver",
          "type": "address"
        },
        {
          "internalType": "int256",
          "name": "_amount",
          "type": "int256"
        }
      ],
      "name": "transferFrom",
      "outputs": [],
      "stateMutability": "nonpayable",
      "type": "function"
    },
    {
      "inputs": [
        {
          "internalType": "bytes32",
          "name": "_ccy",
          "type": "bytes32"
        },
        {
          "internalType": "address",
          "name": "_user",
          "type": "address"
        },
        {
          "internalType": "uint256",
          "name": "_basisMaturity",
          "type": "uint256"
        },
        {
          "internalType": "int256",
          "name": "_fvAmount",
          "type": "int256"
        }
      ],
      "name": "updateGenesisValueWithFutureValue",
      "outputs": [],
      "stateMutability": "nonpayable",
      "type": "function"
    },
    {
      "inputs": [
        {
          "internalType": "bytes32",
          "name": "_ccy",
          "type": "bytes32"
        },
        {
          "internalType": "address",
          "name": "_user",
          "type": "address"
        },
        {
          "internalType": "uint256",
          "name": "_basisMaturity",
          "type": "uint256"
        }
      ],
      "name": "updateGenesisValueWithResidualAmount",
      "outputs": [],
      "stateMutability": "nonpayable",
      "type": "function"
    },
    {
      "inputs": [
        {
          "internalType": "bytes32",
          "name": "_ccy",
          "type": "bytes32"
        },
        {
          "internalType": "uint256",
          "name": "_unitPrice",
          "type": "uint256"
        }
      ],
      "name": "updateInitialCompoundFactor",
      "outputs": [],
      "stateMutability": "nonpayable",
      "type": "function"
    }
  ],
  "transactionHash": "0x1d71adad5aa7dd7950d67955928dfe4960e00a0ee49edc8786c643602a8cfc39",
  "args": [],
  "numDeployments": 4,
  "solcInputHash": "3f36eff6b272d47f9a9fd9117b40f48f",
  "bytecode": "0x608060405234801561001057600080fd5b50612d9c806100206000396000f3fe608060405234801561001057600080fd5b50600436106101f05760003560e01c80637dec489e1161010f578063c4d66de8116100a2578063e45b3cac11610071578063e45b3cac14610484578063f7b637bb14610497578063fb843904146104aa578063ff6dfc45146104bd57600080fd5b8063c4d66de814610438578063d637c15f1461044b578063db9b7b381461045e578063dc6a8ce41461047157600080fd5b8063ab5deaf2116100de578063ab5deaf2146103ec578063aee1311e146103ff578063c1c7ee5214610412578063c2188b641461042557600080fd5b80637dec489e146103a05780639af50c00146103b3578063a2d7d02d146103c6578063a969285f146103d957600080fd5b8063352a38a311610187578063530e931c11610156578063530e931c1461032d5780635f18aa0c146103405780636aea0c59146103655780637636e9411461038d57600080fd5b8063352a38a31461029d5780633d03b9da146102b0578063474611f1146102c557806349a1d2181461031a57600080fd5b806318612e32116101c357806318612e321461025557806329985e5a146102685780632af64bd314610272578063312c47451461028a57600080fd5b806304f3bcec146101f55780630c8f25ed1461021a5780630d3946671461023b5780631316529d1461024e575b600080fd5b6101fd6104d0565b6040516001600160a01b0390911681526020015b60405180910390f35b61022d6102283660046127a6565b6104e9565b604051908152602001610211565b61022d6102493660046127d6565b610539565b600161022d565b61022d6102633660046127f8565b610562565b610270610674565b005b61027a6107f1565b6040519015158152602001610211565b610270610298366004612824565b610923565b61022d6102ab366004612824565b6109e4565b6102b8610a12565b604051610211919061285c565b6102d86102d33660046127d6565b610a9d565b6040516102119190600060a082019050825182526020830151602083015260408301516040830152606083015160608301526080830151608083015292915050565b61022d6103283660046128a0565b610b2e565b61022d61033b3660046127a6565b610b4c565b61035361034e3660046128a0565b610b73565b60405160ff9091168152602001610211565b6103786103733660046128b9565b610b94565b60408051928352602083019190915201610211565b61022d61039b3660046127f8565b610d44565b6102706103ae366004612824565b610e0a565b61022d6103c13660046128a0565b610ffc565b6102706103d43660046128f8565b61101a565b6102706103e73660046127d6565b6111e5565b6102706103fa3660046127a6565b611346565b61022d61040d36600461293b565b611416565b61027061042036600461296d565b611446565b61022d6104333660046128a0565b61149a565b610270610446366004612995565b6114b8565b6102d86104593660046128a0565b611635565b61022d61046c36600461293b565b6116f1565b61022d61047f3660046128a0565b611737565b6102706104923660046129b2565b611755565b61027a6104a53660046128a0565b61185b565b6102706104b83660046129ea565b611879565b61022d6104cb3660046128a0565b61199e565b60006104da6119bc565b546001600160a01b0316919050565b600061053061050a6104fa85610b73565b61050590600a612b1f565b6119ea565b6105166105058661199e565b6105208686610b4c565b61052a9190612b2e565b90611a58565b90505b92915050565b6000610543611af5565b6000938452600901602090815260408085209385529290525090205490565b60008083158061058b5750610575611af5565b6000868152600491909101602052604090205484145b6105bd57610597611af5565b6000868152600a91909101602090815260408083208784529091529020600101546105c6565b6105c68561199e565b9050806000036105f157604051632280b40f60e01b8152600481018590526024015b60405180910390fd5b6000808413906106138261060d5761060886612b5e565b611b22565b85611b22565b9050600061063f846106248a610b73565b61062f90600a612b1f565b6106399085612b7a565b90611b74565b90508261065d5761064f816119ea565b61065890612b5e565b610666565b610666816119ea565b9450505050505b9392505050565b600061067e610a12565b905060005b81518110156107ed5760008282815181106106a0576106a0612b91565b6020026020010151905060006106b46119bc565b54604080517f5265736f6c766572206d697373696e67207461726765743a200000000000000060208201526039808201869052825180830390910181526059820192839052636795dbcd60e01b9092526001600160a01b0390921691636795dbcd9161072591869190605d01612bed565b602060405180830381865afa158015610742573d6000803e3d6000fd5b505050506040513d601f19601f820116820180604052508101906107669190612c06565b9050806107716119bc565b6000848152600191909101602090815260409182902080546001600160a01b0319166001600160a01b039485161790558151858152928416908301527f88a93678a3692f6789d9546fc621bf7234b101ddb7d4fe479455112831b8aa68910160405180910390a1505080806107e590612c23565b915050610683565b5050565b6000806107fc610a12565b905060005b815181101561091a57600082828151811061081e5761081e612b91565b602002602001015190506108306119bc565b600082815260019190910160205260409020546001600160a01b03166108546119bc565b546040516321f8a72160e01b8152600481018490526001600160a01b03909116906321f8a72190602401602060405180830381865afa15801561089b573d6000803e3d6000fd5b505050506040513d601f19601f820116820180604052508101906108bf9190612c06565b6001600160a01b03161415806108f8575060006108da6119bc565b600083815260019190910160205260409020546001600160a01b0316145b15610907576000935050505090565b508061091281612c23565b915050610801565b50600191505090565b61092b611be5565b6001600160a01b0316336001600160a01b03161461095c57604051637b3f42c160e01b81526004016105e890612c3c565b6000610966611af5565b600085815260099190910160209081526040808320858452909152902054905061099a84848461099585612b5e565b611c0f565b6109a2611af5565b600085815260099190910160209081526040808320858452909152902054156109de576040516375a2b8a360e11b815260040160405180910390fd5b50505050565b60008082156109f357826109fc565b6109fc85610b2e565b9050610a09858583611e00565b95945050505050565b6040805160028082526060808301845292602083019080368337019050509050762632b73234b733a6b0b935b2ba21b7b73a3937b63632b960491b81600081518110610a6057610a60612b91565b6020026020010181815250506a14995cd95c9d99519d5b9960aa1b81600181518110610a8e57610a8e612b91565b60200260200101818152505090565b610acf6040518060a0016040528060008152602001600081526020016000815260200160008152602001600081525090565b610ad7611af5565b6000938452600a016020908152604080852093855292815292829020825160a08101845281548152600182015494810194909452600281015492840192909252506003810154606083015260040154608082015290565b6000610b38611af5565b600092835260040160205250604090205490565b6000806000610b648585610b5f88610b2e565b611e71565b9092509050610a098183612c6d565b6000610b7d611af5565b600092835260050160205250604090205460ff1690565b600080610b9f611be5565b6001600160a01b0316336001600160a01b031614610bd057604051637b3f42c160e01b81526004016105e890612c3c565b6000610bdd878786610562565b90506000610be9611af5565b6000898152600691909101602090815260408083206001600160a01b038a168452909152812054915082138015610c205750600081125b80610c365750600082128015610c365750600081135b15610c545760405163162908e360e11b815260040160405180910390fd5b600082138015610c6357508082125b80610c785750600082128015610c7857508082135b15610c805750805b8015610cfc5780610c8f611af5565b60008a8152600691909101602090815260408083206001600160a01b038b16845290915281208054909190610cc5908490612c95565b90915550506040518181526000906001600160a01b038816908a90600080516020612d478339815191529060200160405180910390a45b610d07888883610d44565b9350610d11611af5565b600098895260060160209081526040808a206001600160a01b039098168a52969052505050919093205490939092509050565b600080831580610d6d5750610d57611af5565b6000868152600491909101602052604090205484145b610d9f57610d79611af5565b6000868152600a9190910160209081526040808320878452909152902060010154610da8565b610da88561199e565b905080600003610dce57604051632280b40f60e01b8152600481018590526024016105e8565b600080841390610de58261060d5761060886612b5e565b9050600061063f610df589610b73565b610e0090600a612b1f565b6106398685612b7a565b610e12611be5565b6001600160a01b0316336001600160a01b031614610e4357604051637b3f42c160e01b81526004016105e890612c3c565b60008115610e515781610e5a565b610e5a84610b2e565b90506000610e69858584611e00565b90506000811215610ff5576000610e7e611eb7565b9050610eb98683610e8d611af5565b60008a8152600691909101602090815260408083206001600160a01b038c168452909152902054611ec1565b610efa86610ec684612b5e565b610ece611af5565b60008a8152600691909101602090815260408083206001600160a01b0388168452909152902054611ec1565b82610f03611af5565b6000888152600b91909101602090815260408083206001600160a01b038a16845290915290205581610f33611af5565b6000888152600691909101602090815260408083206001600160a01b038a16845290915281208054909190610f69908490612c6d565b90915550610f78905082612b5e565b610f80611af5565b6000888152600691909101602090815260408083206001600160a01b038616845290915281208054909190610fb6908490612c6d565b90915550506001600160a01b0380821690861687600080516020612d47833981519152610fe286612b5e565b60405190815260200160405180910390a4505b5050505050565b6000611006611af5565b600092835260080160205250604090205490565b611022611be5565b6001600160a01b0316336001600160a01b03161461105357604051637b3f42c160e01b81526004016105e890612c3c565b8160000361107457604051633188263760e11b815260040160405180910390fd5b61107d8461185b565b1561109b5760405163c275b3a360e01b815260040160405180910390fd5b60016110a5611af5565b600086815260209190915260409020805460ff1916911515919091179055826110cc611af5565b600086815260059190910160205260409020805460ff191660ff92909216919091179055816110f9611af5565b6000868152600191909101602052604090205581611115611af5565b6000868152600291909101602052604090205581611131611af5565b600086815260039190910160205260409020558061114d611af5565b6004016000868152602001908152602001600020819055506040518060a001604052806127108152602001838152602001838152602001600081526020016000815250611198611af5565b6000958652600a0160209081526040808720938752928152948290208151815594810151600186015590810151600285015560608101516003850155608001516004909301929092555050565b6111ed611be5565b6001600160a01b0316336001600160a01b03161461121e57604051637b3f42c160e01b81526004016105e890612c3c565b6000611228611af5565b600084815260049190910160205260409020549050611245611af5565b6000848152600a91909101602090815260408083208484529091529020600401541561128457604051639252f4c160e01b815260040160405180910390fd5b61129183836000806120d6565b6040518060a001604052808381526020016112aa611af5565b60020160008681526020019081526020016000205481526020016112cc611af5565b60030160008681526020019081526020016000205481526020016000815260200160008152506112fa611af5565b6000948552600a01602090815260408086209386529281529382902081518155938101516001850155908101516002840155606081015160038401556080015160049092019190915550565b61134e611be5565b6001600160a01b0316336001600160a01b03161461137f57604051637b3f42c160e01b81526004016105e890612c3c565b6000611389611af5565b6000848152600691909101602090815260408083206001600160a01b0386168452909152902054905080156114115760006113c2611af5565b6000858152600691909101602090815260408083206001600160a01b03871680855290835281842094909455518481529192918691600080516020612d47833981519152910160405180910390a45b505050565b6000808215611425578261142e565b61142e86610b2e565b905061143c8686868461221b565b9695505050505050565b61144e611be5565b6001600160a01b0316336001600160a01b03161461147f57604051637b3f42c160e01b81526004016105e890612c3c565b600061148c858484610562565b9050610ff585858584611c0f565b60006114a4611af5565b600092835260070160205250604090205490565b600054610100900460ff16158080156114d85750600054600160ff909116105b806114f25750303b1580156114f2575060005460ff166001145b6115555760405162461bcd60e51b815260206004820152602e60248201527f496e697469616c697a61626c653a20636f6e747261637420697320616c72656160448201526d191e481a5b9a5d1a585b1a5e995960921b60648201526084016105e8565b6000805460ff191660011790558015611578576000805461ff0019166101001790555b60006115826123bd565b6001600160a01b0316036115e35760405162461bcd60e51b815260206004820152602260248201527f4d7573742062652063616c6c65642066726f6d2070726f787920636f6e74726160448201526118dd60f21b60648201526084016105e8565b6115ec826123e5565b80156107ed576000805461ff0019169055604051600181527f7f26b83ff96e1f2b6a682f133852f6798a09c465da95921460cefb38474024989060200160405180910390a15050565b6116676040518060a0016040528060008152602001600081526020016000815260200160008152602001600081525090565b61166f611af5565b6000838152600a91909101602052604081209061168a611af5565b60040160008581526020019081526020016000205481526020019081526020016000206040518060a0016040529081600082015481526020016001820154815260200160028201548152602001600382015481526020016004820154815250509050919050565b6000816000036117035750600061172f565b82840361171157508061172f565b600061171e868685610562565b905061172b868583610d44565b9150505b949350505050565b6000611741611af5565b600092835260030160205250604090205490565b61175d611be5565b6001600160a01b0316336001600160a01b03161461178e57604051637b3f42c160e01b81526004016105e890612c3c565b80611797611af5565b6000868152600691909101602090815260408083206001600160a01b0388168452909152812080549091906117cd908490612c95565b909155508190506117dc611af5565b6000868152600691909101602090815260408083206001600160a01b038716845290915281208054909190611812908490612c6d565b92505081905550816001600160a01b0316836001600160a01b031685600080516020612d478339815191528460405161184d91815260200190565b60405180910390a450505050565b6000611865611af5565b600092835260205250604090205460ff1690565b611881611be5565b6001600160a01b0316336001600160a01b0316146118b257604051637b3f42c160e01b81526004016105e890612c3c565b816000036118d357604051632fd1c54d60e21b815260040160405180910390fd5b8383116118f3576040516318f4d05960e31b815260040160405180910390fd5b6119088583836119038888612cb5565b6120d6565b61191485858585612441565b847f90675b73d2aa47e7572569090cae87a7c67eff7a715ee461bae1b0256bde716061193e611af5565b60008881526002919091016020526040902054611959611af5565b60008981526003919091016020908152604091829020548251938452908301528101859052606081018690526080810187905260a00160405180910390a25050505050565b60006119a8611af5565b600092835260020160205250604090205490565b60008061053360017f4abde63c3e81aefa5764b017968bc473e83e093d7e1a10247d19e0a3e4124018612cb5565b60006001600160ff1b03821115611a545760405162461bcd60e51b815260206004820152602860248201527f53616665436173743a2076616c756520646f65736e27742066697420696e2061604482015267371034b73a191a9b60c11b60648201526084016105e8565b5090565b600081600003611a6757600080fd5b6000611a738385612cde565b611a7e90600a612b2e565b83611a8a86600a612b2e565b611a949190612cde565b611a9e9190612c95565b905060058112611ac557611ab28385612cde565b611abd906001612c6d565b915050610533565b6004198113611ae4576001611ada8486612cde565b611abd9190612c95565b611abd8385612cde565b5092915050565b60008061053360017eeb125d2cd445fcbd619aab5c9493ddf1b2fb2fb0a82715c79a670dddbf7d65612cb5565b600080821215611a545760405162461bcd60e51b815260206004820181905260248201527f53616665436173743a2076616c7565206d75737420626520706f73697469766560448201526064016105e8565b6000808211611b8257600080fd5b6005611b8e8385612d0c565b611b9990600a612b7a565b83611ba586600a612b7a565b611baf9190612d0c565b611bb99190612cb5565b1015611bd057611bc98284612d0c565b9050610533565b611bda8284612d0c565b611bc9906001612d20565b6000611c0a762632b73234b733a6b0b935b2ba21b7b73a3937b63632b960491b612665565b905090565b600080611c1d868686611e71565b9092509050826000821215611d0b57611c368282612c6d565b90506000611c42611eb7565b9050611c8588611c5185612b5e565b611c59611af5565b60008c8152600691909101602090815260408083206001600160a01b0388168452909152902054611ec1565b611c8e83612b5e565b611c96611af5565b60008a8152600691909101602090815260408083206001600160a01b038616845290915281208054909190611ccc908490612c6d565b90915550506001600160a01b0380821690881689600080516020612d47833981519152611cf887612b5e565b60405190815260200160405180910390a4505b611d16878285611ec1565b84611d1f611af5565b6000898152600b91909101602090815260408083206001600160a01b038b16845290915290205580611d4f611af5565b6000898152600691909101602090815260408083206001600160a01b038b16845290915281208054909190611d85908490612c6d565b90915550849050611d94611af5565b60008981526009919091016020908152604080832089845290915281208054909190611dc1908490612c6d565b90915550506040518481526001600160a01b038716906000908990600080516020612d478339815191529060200160405180910390a450505050505050565b600080611e0b611af5565b6000868152600691909101602090815260408083206001600160a01b03881684529091528120549150611e3c611af5565b6000878152600b91909101602090815260408083206001600160a01b0389168452909152902054905061143c8683838761221b565b600080611e7f858585611e00565b9050611e89611af5565b6000958652600601602090815260408087206001600160a01b03909616875294905292909320549391925050565b6000611c0a6126c6565b60008212611fdf576000611ed483611b22565b905060008212611f155780611ee7611af5565b60070160008681526020019081526020016000206000828254611f0a9190612d20565b909155506109de9050565b6000611f218385612c6d565b905060008112611fa757611f3481611b22565b611f3c611af5565b60070160008781526020019081526020016000206000828254611f5f9190612d20565b90915550611f71905061060884612b5e565b611f79611af5565b60080160008781526020019081526020016000206000828254611f9c9190612cb5565b90915550610ff59050565b81611fb0611af5565b60080160008781526020019081526020016000206000828254611fd39190612cb5565b90915550505050505050565b6000611fed61060884612b5e565b9050600082136120235780612000611af5565b60080160008681526020019081526020016000206000828254611f0a9190612d20565b600061202f8385612c6d565b9050600081136120aa5761204561060882612b5e565b61204d611af5565b600801600087815260200190815260200160002060008282546120709190612d20565b9091555061207f905083611b22565b612087611af5565b60070160008781526020019081526020016000206000828254611f9c9190612cb5565b816120b3611af5565b60070160008781526020019081526020016000206000828254611fd39190612cb5565b6127108211156120f957604051636d3872b560e11b815260040160405180910390fd5b60008361210c6301e13380612710612b7a565b6121169190612b7a565b905061217b81856121278587612b7a565b6121319190612b7a565b6301e1338061214261271080612b7a565b61214c9190612b7a565b6121569190612cb5565b61215e611af5565b600089815260029190910160205260409020546106399190612b7a565b612183611af5565b600087815260029190910160205260409020556121f981856121a58587612b7a565b6121af9190612b7a565b6301e133806121c061271080612b7a565b6121ca9190612b7a565b6121d49190612d20565b6121dc611af5565b600089815260039190910160205260409020546106399190612b7a565b612201611af5565b600096875260030160205260409095209490945550505050565b6000808412158061222c5750828211155b80612235575082155b156122425750600061172f565b600061224c611af5565b6000878152600a91909101602090815260408083208784528252808320815160a0810183528154815260018201549381019390935260028101549183019190915260038101546060830152600401546080820152915080806122ad89610b2e565b9050808611156122c457600094505050505061172f565b80860361230a576122d3611af5565b60008a8152600391909101602052604090205492506122f0611af5565b60008a815260029190910160205260409020549150612371565b6000612314611af5565b60008b8152600a91909101602090815260408083208a8452825291829020825160a0810184528154815260018201549281018390526002820154938101849052600382015460608201526004909101546080909101529094509250505b8761239d61050561239261238761060885612b5e565b8789604001516126df565b8760200151866126df565b6123a690612b5e565b6123b09190612c95565b9998505050505050505050565b60007f360894a13ba1a3210667c828492db98dca3e2076cc3735a920a3ca505d382bbc6104da565b60006123ef6119bc565b546001600160a01b031614612417576040516304b79d6360e51b815260040160405180910390fd5b806124206119bc565b80546001600160a01b0319166001600160a01b039290921691909117905550565b600061244b611af5565b6000868152600a91909101602090815260408083208784528252808320815160a081018352815481526001820154938101939093526002810154918301919091526003810154606083015260040154608082015291506124a9611af5565b600a01600087815260200190815260200160002060008581526020019081526020016000206040518060a00160405290816000820154815260200160018201548152602001600282015481526020016003820154815260200160048201548152505090508160600151600014158061252357506020820151155b8061253057506040820151155b8061253e5750602081015115155b156125665760405163725c083360e11b815260048101869052602481018590526044016105e8565b8361256f611af5565b600088815260049190910160205260409020558361258b611af5565b6000888152600a919091016020908152604080832089845282529182902060030192909255805160a081019091528481529081016125c7611af5565b60020160008981526020019081526020016000205481526020016125e9611af5565b60030160008981526020019081526020016000205481526020016000815260200186815250612616611af5565b6000978852600a01602090815260408089209689529581529685902081518155968101516001880155938401516002870155505050606081015160038401556080015160049092019190915550565b6000806126706119bc565b600084815260019190910160205260409020546001600160a01b03169050806105335760408051602081018590520160408051601f19818403018152908290526346e2ec9360e01b82526105e891600401612d33565b6000611c0a6a14995cd95c9d99519d5b9960aa1b612665565b60008080600019858709858702925082811083820303915050806000036127195783828161270f5761270f612cc8565b049250505061066d565b80841161272557600080fd5b60008486880960026001871981018816978890046003810283188082028403028082028403028082028403028082028403028082028403029081029092039091026000889003889004909101858311909403939093029303949094049190911702949350505050565b6001600160a01b03811681146127a357600080fd5b50565b600080604083850312156127b957600080fd5b8235915060208301356127cb8161278e565b809150509250929050565b600080604083850312156127e957600080fd5b50508035926020909101359150565b60008060006060848603121561280d57600080fd5b505081359360208301359350604090920135919050565b60008060006060848603121561283957600080fd5b83359250602084013561284b8161278e565b929592945050506040919091013590565b6020808252825182820181905260009190848201906040850190845b8181101561289457835183529284019291840191600101612878565b50909695505050505050565b6000602082840312156128b257600080fd5b5035919050565b600080600080608085870312156128cf57600080fd5b843593506020850135925060408501356128e88161278e565b9396929550929360600135925050565b6000806000806080858703121561290e57600080fd5b84359350602085013560ff8116811461292657600080fd5b93969395505050506040820135916060013590565b6000806000806080858703121561295157600080fd5b5050823594602084013594506040840135936060013592509050565b6000806000806080858703121561298357600080fd5b8435935060208501356129268161278e565b6000602082840312156129a757600080fd5b813561066d8161278e565b600080600080608085870312156129c857600080fd5b8435935060208501356129da8161278e565b925060408501356128e88161278e565b600080600080600060a08688031215612a0257600080fd5b505083359560208501359550604085013594606081013594506080013592509050565b634e487b7160e01b600052601160045260246000fd5b600181815b80851115612a76578160001904821115612a5c57612a5c612a25565b80851615612a6957918102915b93841c9390800290612a40565b509250929050565b600082612a8d57506001610533565b81612a9a57506000610533565b8160018114612ab05760028114612aba57612ad6565b6001915050610533565b60ff841115612acb57612acb612a25565b50506001821b610533565b5060208310610133831016604e8410600b8410161715612af9575081810a610533565b612b038383612a3b565b8060001904821115612b1757612b17612a25565b029392505050565b600061053060ff841683612a7e565b80820260008212600160ff1b84141615612b4a57612b4a612a25565b818105831482151761053357610533612a25565b6000600160ff1b8201612b7357612b73612a25565b5060000390565b808202811582820484141761053357610533612a25565b634e487b7160e01b600052603260045260246000fd5b6000815180845260005b81811015612bcd57602081850181015186830182015201612bb1565b506000602082860101526020601f19601f83011685010191505092915050565b82815260406020820152600061172f6040830184612ba7565b600060208284031215612c1857600080fd5b815161066d8161278e565b600060018201612c3557612c35612a25565b5060010190565b6020808252601790820152762632b73234b733a6b0b935b2ba21b7b73a3937b63632b960491b604082015260600190565b8082018281126000831280158216821582161715612c8d57612c8d612a25565b505092915050565b8181036000831280158383131683831282161715611aee57611aee612a25565b8181038181111561053357610533612a25565b634e487b7160e01b600052601260045260246000fd5b600082612ced57612ced612cc8565b600160ff1b821460001984141615612d0757612d07612a25565b500590565b600082612d1b57612d1b612cc8565b500490565b8082018082111561053357610533612a25565b6020815260006105306020830184612ba756fe224d4ee1e2931416deb62bbde4f281397249c4a54319c43ee455efc348c13f4fa2646970667358221220a9f625256a6699596d398bc3e90eb74193b00aaef105ca620f561b944f70c2c364736f6c63430008130033",
  "implementation": "0xBBD1797Aa0ee9cD65B62Aa1Bc63cF5F22b414bb4",
  "devdoc": {
    "events": {
      "Initialized(uint8)": {
        "details": "Triggered when the contract has been initialized or reinitialized."
      }
    },
    "kind": "dev",
    "methods": {
      "calculateBalanceFluctuationByAutoRolls(bytes32,int256,uint256,uint256)": {
        "params": {
          "_balance": "User's balance",
          "_ccy": "Currency name in bytes32",
          "_fromMaturity": "The maturity at start",
          "_toMaturity": "The maturity at end"
        }
      },
      "calculateFVFromFV(bytes32,uint256,uint256,int256)": {
        "params": {
          "_ccy": "Currency name in bytes32"
        },
        "returns": {
          "_0": "The future value at the destination maturity"
        }
      },
      "calculateFVFromGV(bytes32,uint256,int256)": {
        "params": {
          "_ccy": "Currency name in bytes32"
        },
        "returns": {
          "_0": "The future value"
        }
      },
      "calculateGVFromFV(bytes32,uint256,int256)": {
        "params": {
          "_ccy": "Currency name in bytes32"
        },
        "returns": {
          "_0": "The genesis value"
        }
      },
      "cleanUpBalance(bytes32,address,uint256)": {
        "details": "The genesis value of borrowing fluctuates when it is auto-rolled, but it is not updated in real-time. This function removes the fluctuation amount calculated by lazy evaluation to reduce gas costs.",
        "params": {
          "_ccy": "Currency name in bytes32",
          "_maturity": "The maturity",
          "_user": "User's address"
        }
      },
      "decimals(bytes32)": {
        "params": {
          "_ccy": "Currency name in bytes32"
        },
        "returns": {
          "_0": "The decimals of the genesis value."
        }
      },
      "executeAutoRoll(bytes32,uint256,uint256,uint256,uint256)": {
        "params": {
          "_ccy": "Currency name in bytes32",
          "_maturity": "Current maturity",
          "_nextMaturity": "Next maturity to be rolled",
          "_orderFeeRate": "Order fee rate used to calculate the auto-roll fee",
          "_unitPrice": "Unit price of auto-roll"
        }
      },
      "executeForcedReset(bytes32,address)": {
        "params": {
          "_ccy": "Currency name in bytes32",
          "_user": "User's address"
        }
      },
      "executeForcedReset(bytes32,uint256,address,int256)": {
        "params": {
          "_amountInFV": "The amount in the future value to reset",
          "_ccy": "Currency name in bytes32",
          "_user": "User's address"
        }
      },
      "getAutoRollLog(bytes32,uint256)": {
        "params": {
          "_ccy": "Currency name in bytes32",
          "_maturity": "The maturity"
        },
        "returns": {
          "_0": "The auto-roll log"
        }
      },
      "getBalance(bytes32,address)": {
        "params": {
          "_ccy": "Currency name in bytes32",
          "_user": "User's address"
        },
        "returns": {
          "_0": "The user balance"
        }
      },
      "getBalanceFluctuationByAutoRolls(bytes32,address,uint256)": {
        "params": {
          "_ccy": "Currency name in bytes32",
          "_maturity": "The maturity",
          "_user": "User's address"
        }
      },
      "getBalanceInFutureValue(bytes32,address)": {
        "params": {
          "_ccy": "Currency name in bytes32",
          "_user": "User's address"
        },
        "returns": {
          "_0": "The future value of the user balance"
        }
      },
      "getBorrowingCompoundFactor(bytes32)": {
        "params": {
          "_ccy": "Currency name in bytes32"
        },
        "returns": {
          "_0": "The lending compound factor"
        }
      },
      "getCurrentMaturity(bytes32)": {
        "params": {
          "_ccy": "Currency name in bytes32"
        },
        "returns": {
          "_0": "The current maturity"
        }
      },
      "getLatestAutoRollLog(bytes32)": {
        "params": {
          "_ccy": "Currency name in bytes32"
        },
        "returns": {
          "_0": "The auto-roll log"
        }
      },
      "getLendingCompoundFactor(bytes32)": {
        "params": {
          "_ccy": "Currency name in bytes32"
        },
        "returns": {
          "_0": "The lending compound factor"
        }
      },
      "getMaturityGenesisValue(bytes32,uint256)": {
        "params": {
          "_ccy": "Currency name in bytes32",
          "_maturity": "The maturity"
        },
        "returns": {
          "_0": "The current total supply"
        }
      },
      "getTotalBorrowingSupply(bytes32)": {
        "params": {
          "_ccy": "Currency name in bytes32"
        },
        "returns": {
          "_0": "The total supply of borrowing"
        }
      },
      "getTotalLendingSupply(bytes32)": {
        "params": {
          "_ccy": "Currency name in bytes32"
        },
        "returns": {
          "_0": "The total supply of lending"
        }
      },
      "initialize(address)": {
        "details": "Function is invoked by the proxy contract when the contract is added to the ProxyController.",
        "params": {
          "_resolver": "The address of the Address Resolver contract"
        }
      },
      "initializeCurrencySetting(bytes32,uint8,uint256,uint256)": {
        "params": {
          "_ccy": "Currency name in bytes32",
          "_compoundFactor": "Initial compound factor",
          "_decimals": "Compound factor decimals",
          "_maturity": "Initial maturity"
        }
      },
      "isInitialized(bytes32)": {
        "params": {
          "_ccy": "Currency name in bytes32"
        },
        "returns": {
          "_0": "The boolean if the currency is initialized or not"
        }
      },
      "requiredContracts()": {
        "details": "The contract name list is in `./libraries/Contracts.sol`."
      },
      "transferFrom(bytes32,address,address,int256)": {
        "params": {
          "_amount": "Amount of funds to sent",
          "_ccy": "Currency name in bytes32",
          "_receiver": "Receiver's address",
          "_sender": "Sender's address"
        }
      },
      "updateGenesisValueWithFutureValue(bytes32,address,uint256,int256)": {
        "params": {
          "_basisMaturity": "The basis maturity",
          "_ccy": "Currency name in bytes32",
          "_fvAmount": "The amount in the future value",
          "_user": "User's address"
        }
      },
      "updateGenesisValueWithResidualAmount(bytes32,address,uint256)": {
        "details": "This function is used only in the case that the user is the last person who updates the genesis value at maturity, and called only one time per maturity.",
        "params": {
          "_basisMaturity": "The basis maturity",
          "_ccy": "Currency name in bytes32",
          "_user": "User's address"
        }
      },
      "updateInitialCompoundFactor(bytes32,uint256)": {
        "details": "This function is allowed to be called only before the initial compound factor is finalized.",
        "params": {
          "_ccy": "Currency name in bytes32",
          "_unitPrice": "The unit price used to calculate the compound factor"
        }
      }
    },
    "version": 1
  },
  "userdoc": {
    "kind": "user",
    "methods": {
      "calculateBalanceFluctuationByAutoRolls(bytes32,int256,uint256,uint256)": {
        "notice": "Calculates the fluctuation amount of genesis value caused by auto-rolls at a certain maturity"
      },
      "calculateFVFromFV(bytes32,uint256,uint256,int256)": {
        "notice": "Calculates the future value from the basis maturity to the destination maturity using the compound factor."
      },
      "calculateFVFromGV(bytes32,uint256,int256)": {
        "notice": "Calculates the future value at the basis maturity from the genesis value using the compound factor."
      },
      "calculateGVFromFV(bytes32,uint256,int256)": {
        "notice": "Calculates the genesis value from the future value at the basis maturity using the compound factor."
      },
      "cleanUpBalance(bytes32,address,uint256)": {
        "notice": "Clean up balance of the user per maturity."
      },
      "decimals(bytes32)": {
        "notice": "Gets if the decimals of the genesis value."
      },
      "executeAutoRoll(bytes32,uint256,uint256,uint256,uint256)": {
        "notice": "Executes the auto-roll."
      },
      "executeForcedReset(bytes32,address)": {
        "notice": "Forces a reset of the user's genesis value."
      },
      "executeForcedReset(bytes32,uint256,address,int256)": {
        "notice": "Forces a reset of the user's genesis value."
      },
      "getAutoRollLog(bytes32,uint256)": {
        "notice": "Gets the auto-roll log"
      },
      "getBalance(bytes32,address)": {
        "notice": "Gets the user balance."
      },
      "getBalanceFluctuationByAutoRolls(bytes32,address,uint256)": {
        "notice": "Gets the fluctuation amount of genesis value caused by auto-rolls."
      },
      "getBalanceInFutureValue(bytes32,address)": {
        "notice": "Gets the future value of the user balance."
      },
      "getBorrowingCompoundFactor(bytes32)": {
        "notice": "Gets the borrowing compound factor"
      },
      "getCurrentMaturity(bytes32)": {
        "notice": "Gets the current maturity"
      },
      "getLatestAutoRollLog(bytes32)": {
        "notice": "Gets the latest auto-roll log"
      },
      "getLendingCompoundFactor(bytes32)": {
        "notice": "Gets the lending compound factor"
      },
      "getMaturityGenesisValue(bytes32,uint256)": {
        "notice": "Gets the current total supply per maturity"
      },
      "getTotalBorrowingSupply(bytes32)": {
        "notice": "Gets the total supply of borrowing"
      },
      "getTotalLendingSupply(bytes32)": {
        "notice": "Gets the total supply of lending"
      },
      "initialize(address)": {
        "notice": "Initializes the contract."
      },
      "initializeCurrencySetting(bytes32,uint8,uint256,uint256)": {
        "notice": "Initializes the currency setting."
      },
      "isInitialized(bytes32)": {
        "notice": "Gets if the currency is initialized."
      },
      "requiredContracts()": {
        "notice": "Returns the contract names used in this contract."
      },
      "transferFrom(bytes32,address,address,int256)": {
        "notice": "Transfers the genesis value from sender to receiver."
      },
      "updateGenesisValueWithFutureValue(bytes32,address,uint256,int256)": {
        "notice": "Updates the user's balance of the genesis value with the input future value."
      },
      "updateGenesisValueWithResidualAmount(bytes32,address,uint256)": {
        "notice": "Updates the user's balance of the genesis value without the input future value."
      },
      "updateInitialCompoundFactor(bytes32,uint256)": {
        "notice": "Update the currency setting."
      }
    },
    "notice": "Implements the management of the genesis value as an amount for Lending positions.",
    "version": 1
  },
  "storageLayout": {
    "storage": [
      {
        "astId": 995,
        "contract": "contracts/protocol/GenesisValueVault.sol:GenesisValueVault",
        "label": "_initialized",
        "offset": 0,
        "slot": "0",
        "type": "t_uint8"
      },
      {
        "astId": 998,
        "contract": "contracts/protocol/GenesisValueVault.sol:GenesisValueVault",
        "label": "_initializing",
        "offset": 1,
        "slot": "0",
        "type": "t_bool"
      }
    ],
    "types": {
      "t_bool": {
        "encoding": "inplace",
        "label": "bool",
        "numberOfBytes": "1"
      },
      "t_uint8": {
        "encoding": "inplace",
        "label": "uint8",
        "numberOfBytes": "1"
      }
    }
  }
}