{
  "address": "0x4742ad58d8ebF6358B9016CEA2abC07371865866",
  "abi": [
    {
      "inputs": [
        {
          "internalType": "uint256",
          "name": "_minimumReliableAmount",
          "type": "uint256"
        }
      ],
      "stateMutability": "nonpayable",
      "type": "constructor"
    },
    {
      "inputs": [],
      "name": "AlreadyItayosePeriod",
      "type": "error"
    },
    {
      "inputs": [],
      "name": "CallerNotMaker",
      "type": "error"
    },
    {
      "inputs": [],
      "name": "MarketNotOpened",
      "type": "error"
    },
    {
      "inputs": [
        {
          "internalType": "string",
          "name": "name",
          "type": "string"
        }
      ],
      "name": "MissingAddress",
      "type": "error"
    },
    {
      "inputs": [],
      "name": "NoOrderExists",
      "type": "error"
    },
    {
      "inputs": [],
      "name": "NotItayosePeriod",
      "type": "error"
    },
    {
      "inputs": [],
      "name": "NotPreOrderPeriod",
      "type": "error"
    },
    {
      "inputs": [
        {
          "internalType": "string",
          "name": "name",
          "type": "string"
        }
      ],
      "name": "OnlyAcceptedContract",
      "type": "error"
    },
    {
      "inputs": [],
      "name": "ResolverAlreadyRegistered",
      "type": "error"
    },
    {
      "anonymous": false,
      "inputs": [
        {
          "indexed": false,
          "internalType": "bytes32",
          "name": "name",
          "type": "bytes32"
        },
        {
          "indexed": false,
          "internalType": "address",
          "name": "destination",
          "type": "address"
        }
      ],
      "name": "CacheUpdated",
      "type": "event"
    },
    {
      "anonymous": false,
      "inputs": [
        {
          "indexed": false,
          "internalType": "uint8",
          "name": "version",
          "type": "uint8"
        }
      ],
      "name": "Initialized",
      "type": "event"
    },
    {
      "anonymous": false,
      "inputs": [
        {
          "indexed": false,
          "internalType": "address",
          "name": "account",
          "type": "address"
        }
      ],
      "name": "Paused",
      "type": "event"
    },
    {
      "anonymous": false,
      "inputs": [
        {
          "indexed": false,
          "internalType": "address",
          "name": "account",
          "type": "address"
        }
      ],
      "name": "Unpaused",
      "type": "event"
    },
    {
      "inputs": [],
      "name": "buildCache",
      "outputs": [],
      "stateMutability": "nonpayable",
      "type": "function"
    },
    {
      "inputs": [
        {
          "internalType": "uint8",
          "name": "_orderBookId",
          "type": "uint8"
        },
        {
          "internalType": "enum ProtocolTypes.Side",
          "name": "_side",
          "type": "uint8"
        },
        {
          "internalType": "uint256",
          "name": "_amount",
          "type": "uint256"
        },
        {
          "internalType": "uint256",
          "name": "_unitPrice",
          "type": "uint256"
        }
      ],
      "name": "calculateFilledAmount",
      "outputs": [
        {
          "internalType": "uint256",
          "name": "lastUnitPrice",
          "type": "uint256"
        },
        {
          "internalType": "uint256",
          "name": "filledAmount",
          "type": "uint256"
        },
        {
          "internalType": "uint256",
          "name": "filledAmountInFV",
          "type": "uint256"
        },
        {
          "internalType": "uint256",
          "name": "orderFeeInFV",
          "type": "uint256"
        },
        {
          "internalType": "uint256",
          "name": "placedAmount",
          "type": "uint256"
        }
      ],
      "stateMutability": "view",
      "type": "function"
    },
    {
      "inputs": [
        {
          "internalType": "uint8",
          "name": "_orderBookId",
          "type": "uint8"
        },
        {
          "internalType": "enum ProtocolTypes.Side",
          "name": "_side",
          "type": "uint8"
        },
        {
          "internalType": "uint256",
          "name": "_amountInFV",
          "type": "uint256"
        }
      ],
      "name": "calculateFilledAmountFromFV",
      "outputs": [
        {
          "internalType": "uint256",
          "name": "lastUnitPrice",
          "type": "uint256"
        },
        {
          "internalType": "uint256",
          "name": "filledAmount",
          "type": "uint256"
        },
        {
          "internalType": "uint256",
          "name": "filledAmountInFV",
          "type": "uint256"
        },
        {
          "internalType": "uint256",
          "name": "orderFeeInFV",
          "type": "uint256"
        }
      ],
      "stateMutability": "view",
      "type": "function"
    },
    {
      "inputs": [
        {
          "internalType": "uint8",
          "name": "_orderBookId",
          "type": "uint8"
        },
        {
          "internalType": "address",
          "name": "_user",
          "type": "address"
        },
        {
          "internalType": "uint48",
          "name": "_orderId",
          "type": "uint48"
        }
      ],
      "name": "cancelOrder",
      "outputs": [],
      "stateMutability": "nonpayable",
      "type": "function"
    },
    {
      "inputs": [
        {
          "internalType": "uint8",
          "name": "_orderBookId",
          "type": "uint8"
        },
        {
          "internalType": "address",
          "name": "_user",
          "type": "address"
        }
      ],
      "name": "cleanUpOrders",
      "outputs": [
        {
          "internalType": "uint256",
          "name": "activeLendOrderCount",
          "type": "uint256"
        },
        {
          "internalType": "uint256",
          "name": "activeBorrowOrderCount",
          "type": "uint256"
        },
        {
          "internalType": "uint256",
          "name": "removedLendOrderFutureValue",
          "type": "uint256"
        },
        {
          "internalType": "uint256",
          "name": "removedBorrowOrderFutureValue",
          "type": "uint256"
        },
        {
          "internalType": "uint256",
          "name": "removedLendOrderAmount",
          "type": "uint256"
        },
        {
          "internalType": "uint256",
          "name": "removedBorrowOrderAmount",
          "type": "uint256"
        },
        {
          "internalType": "uint256",
          "name": "maturity",
          "type": "uint256"
        }
      ],
      "stateMutability": "nonpayable",
      "type": "function"
    },
    {
      "inputs": [
        {
          "internalType": "uint256",
          "name": "_maturity",
          "type": "uint256"
        },
        {
          "internalType": "uint256",
          "name": "_openingDate",
          "type": "uint256"
        },
        {
          "internalType": "uint256",
          "name": "_preOpeningDate",
          "type": "uint256"
        }
      ],
      "name": "createOrderBook",
      "outputs": [
        {
          "internalType": "uint8",
          "name": "orderBookId",
          "type": "uint8"
        }
      ],
      "stateMutability": "nonpayable",
      "type": "function"
    },
    {
      "inputs": [
        {
          "internalType": "uint8",
          "name": "_maturedOrderBookId",
          "type": "uint8"
        },
        {
          "internalType": "uint8",
          "name": "_newNearestOrderBookId",
          "type": "uint8"
        },
        {
          "internalType": "uint256",
          "name": "_autoRollUnitPrice",
          "type": "uint256"
        }
      ],
      "name": "executeAutoRoll",
      "outputs": [],
      "stateMutability": "nonpayable",
      "type": "function"
    },
    {
      "inputs": [
        {
          "internalType": "uint8",
          "name": "_orderBookId",
          "type": "uint8"
        }
      ],
      "name": "executeItayoseCall",
      "outputs": [
        {
          "internalType": "uint256",
          "name": "openingUnitPrice",
          "type": "uint256"
        },
        {
          "internalType": "uint256",
          "name": "totalOffsetAmount",
          "type": "uint256"
        },
        {
          "internalType": "uint256",
          "name": "openingDate",
          "type": "uint256"
        },
        {
          "components": [
            {
              "internalType": "uint48",
              "name": "orderId",
              "type": "uint48"
            },
            {
              "internalType": "address",
              "name": "maker",
              "type": "address"
            },
            {
              "internalType": "uint256",
              "name": "amount",
              "type": "uint256"
            },
            {
              "internalType": "uint256",
              "name": "futureValue",
              "type": "uint256"
            }
          ],
          "internalType": "struct PartiallyFilledOrder",
          "name": "partiallyFilledLendingOrder",
          "type": "tuple"
        },
        {
          "components": [
            {
              "internalType": "uint48",
              "name": "orderId",
              "type": "uint48"
            },
            {
              "internalType": "address",
              "name": "maker",
              "type": "address"
            },
            {
              "internalType": "uint256",
              "name": "amount",
              "type": "uint256"
            },
            {
              "internalType": "uint256",
              "name": "futureValue",
              "type": "uint256"
            }
          ],
          "internalType": "struct PartiallyFilledOrder",
          "name": "partiallyFilledBorrowingOrder",
          "type": "tuple"
        }
      ],
      "stateMutability": "nonpayable",
      "type": "function"
    },
    {
      "inputs": [
        {
          "internalType": "uint8",
          "name": "_orderBookId",
          "type": "uint8"
        },
        {
          "internalType": "enum ProtocolTypes.Side",
          "name": "_side",
          "type": "uint8"
        },
        {
          "internalType": "address",
          "name": "_user",
          "type": "address"
        },
        {
          "internalType": "uint256",
          "name": "_amount",
          "type": "uint256"
        },
        {
          "internalType": "uint256",
          "name": "_unitPrice",
          "type": "uint256"
        }
      ],
      "name": "executeOrder",
      "outputs": [
        {
          "components": [
            {
              "internalType": "uint256",
              "name": "amount",
              "type": "uint256"
            },
            {
              "internalType": "uint256",
              "name": "unitPrice",
              "type": "uint256"
            },
            {
              "internalType": "uint256",
              "name": "futureValue",
              "type": "uint256"
            },
            {
              "internalType": "uint256",
              "name": "ignoredAmount",
              "type": "uint256"
            }
          ],
          "internalType": "struct FilledOrder",
          "name": "filledOrder",
          "type": "tuple"
        },
        {
          "components": [
            {
              "internalType": "uint48",
              "name": "orderId",
              "type": "uint48"
            },
            {
              "internalType": "address",
              "name": "maker",
              "type": "address"
            },
            {
              "internalType": "uint256",
              "name": "amount",
              "type": "uint256"
            },
            {
              "internalType": "uint256",
              "name": "futureValue",
              "type": "uint256"
            }
          ],
          "internalType": "struct PartiallyFilledOrder",
          "name": "partiallyFilledOrder",
          "type": "tuple"
        },
        {
          "internalType": "uint256",
          "name": "feeInFV",
          "type": "uint256"
        }
      ],
      "stateMutability": "nonpayable",
      "type": "function"
    },
    {
      "inputs": [
        {
          "internalType": "uint8",
          "name": "_orderBookId",
          "type": "uint8"
        },
        {
          "internalType": "enum ProtocolTypes.Side",
          "name": "_side",
          "type": "uint8"
        },
        {
          "internalType": "address",
          "name": "_user",
          "type": "address"
        },
        {
          "internalType": "uint256",
          "name": "_amount",
          "type": "uint256"
        },
        {
          "internalType": "uint256",
          "name": "_unitPrice",
          "type": "uint256"
        }
      ],
      "name": "executePreOrder",
      "outputs": [],
      "stateMutability": "nonpayable",
      "type": "function"
    },
    {
      "inputs": [
        {
          "internalType": "uint8",
          "name": "_orderBookId",
          "type": "uint8"
        }
      ],
      "name": "getBestBorrowUnitPrice",
      "outputs": [
        {
          "internalType": "uint256",
          "name": "",
          "type": "uint256"
        }
      ],
      "stateMutability": "view",
      "type": "function"
    },
    {
      "inputs": [
        {
          "internalType": "uint8[]",
          "name": "_orderBookIds",
          "type": "uint8[]"
        }
      ],
      "name": "getBestBorrowUnitPrices",
      "outputs": [
        {
          "internalType": "uint256[]",
          "name": "",
          "type": "uint256[]"
        }
      ],
      "stateMutability": "view",
      "type": "function"
    },
    {
      "inputs": [
        {
          "internalType": "uint8",
          "name": "_orderBookId",
          "type": "uint8"
        }
      ],
      "name": "getBestLendUnitPrice",
      "outputs": [
        {
          "internalType": "uint256",
          "name": "",
          "type": "uint256"
        }
      ],
      "stateMutability": "view",
      "type": "function"
    },
    {
      "inputs": [
        {
          "internalType": "uint8[]",
          "name": "_orderBookIds",
          "type": "uint8[]"
        }
      ],
      "name": "getBestLendUnitPrices",
      "outputs": [
        {
          "internalType": "uint256[]",
          "name": "",
          "type": "uint256[]"
        }
      ],
      "stateMutability": "view",
      "type": "function"
    },
    {
      "inputs": [
        {
          "internalType": "uint8",
          "name": "_orderBookId",
          "type": "uint8"
        },
        {
          "internalType": "uint256",
          "name": "_count",
          "type": "uint256"
        }
      ],
      "name": "getBlockUnitPriceAverage",
      "outputs": [
        {
          "internalType": "uint256",
          "name": "",
          "type": "uint256"
        }
      ],
      "stateMutability": "view",
      "type": "function"
    },
    {
      "inputs": [
        {
          "internalType": "uint8",
          "name": "_orderBookId",
          "type": "uint8"
        }
      ],
      "name": "getBlockUnitPriceHistory",
      "outputs": [
        {
          "internalType": "uint256[]",
          "name": "unitPrices",
          "type": "uint256[]"
        },
        {
          "internalType": "uint48",
          "name": "timestamp",
          "type": "uint48"
        }
      ],
      "stateMutability": "view",
      "type": "function"
    },
    {
      "inputs": [
        {
          "internalType": "uint8",
          "name": "_orderBookId",
          "type": "uint8"
        },
        {
          "internalType": "uint256",
          "name": "_start",
          "type": "uint256"
        },
        {
          "internalType": "uint256",
          "name": "_limit",
          "type": "uint256"
        }
      ],
      "name": "getBorrowOrderBook",
      "outputs": [
        {
          "internalType": "uint256[]",
          "name": "unitPrices",
          "type": "uint256[]"
        },
        {
          "internalType": "uint256[]",
          "name": "amounts",
          "type": "uint256[]"
        },
        {
          "internalType": "uint256[]",
          "name": "quantities",
          "type": "uint256[]"
        },
        {
          "internalType": "uint256",
          "name": "next",
          "type": "uint256"
        }
      ],
      "stateMutability": "view",
      "type": "function"
    },
    {
      "inputs": [
        {
          "internalType": "uint8",
          "name": "_orderBookId",
          "type": "uint8"
        },
        {
          "internalType": "address",
          "name": "_user",
          "type": "address"
        }
      ],
      "name": "getBorrowOrderIds",
      "outputs": [
        {
          "internalType": "uint48[]",
          "name": "activeOrderIds",
          "type": "uint48[]"
        },
        {
          "internalType": "uint48[]",
          "name": "inActiveOrderIds",
          "type": "uint48[]"
        }
      ],
      "stateMutability": "view",
      "type": "function"
    },
    {
      "inputs": [],
      "name": "getCircuitBreakerLimitRange",
      "outputs": [
        {
          "internalType": "uint256",
          "name": "",
          "type": "uint256"
        }
      ],
      "stateMutability": "view",
      "type": "function"
    },
    {
      "inputs": [
        {
          "internalType": "uint8",
          "name": "_orderBookId",
          "type": "uint8"
        }
      ],
      "name": "getCircuitBreakerThresholds",
      "outputs": [
        {
          "internalType": "uint256",
          "name": "maxLendUnitPrice",
          "type": "uint256"
        },
        {
          "internalType": "uint256",
          "name": "minBorrowUnitPrice",
          "type": "uint256"
        }
      ],
      "stateMutability": "view",
      "type": "function"
    },
    {
      "inputs": [],
      "name": "getCurrency",
      "outputs": [
        {
          "internalType": "bytes32",
          "name": "currency",
          "type": "bytes32"
        }
      ],
      "stateMutability": "view",
      "type": "function"
    },
    {
      "inputs": [
        {
          "internalType": "uint8",
          "name": "_orderBookId",
          "type": "uint8"
        }
      ],
      "name": "getItayoseEstimation",
      "outputs": [
        {
          "internalType": "uint256",
          "name": "openingUnitPrice",
          "type": "uint256"
        },
        {
          "internalType": "uint256",
          "name": "lastLendUnitPrice",
          "type": "uint256"
        },
        {
          "internalType": "uint256",
          "name": "lastBorrowUnitPrice",
          "type": "uint256"
        },
        {
          "internalType": "uint256",
          "name": "totalOffsetAmount",
          "type": "uint256"
        }
      ],
      "stateMutability": "view",
      "type": "function"
    },
    {
      "inputs": [
        {
          "internalType": "uint256",
          "name": "_maturity",
          "type": "uint256"
        }
      ],
      "name": "getItayoseLog",
      "outputs": [
        {
          "components": [
            {
              "internalType": "uint256",
              "name": "openingUnitPrice",
              "type": "uint256"
            },
            {
              "internalType": "uint256",
              "name": "lastLendUnitPrice",
              "type": "uint256"
            },
            {
              "internalType": "uint256",
              "name": "lastBorrowUnitPrice",
              "type": "uint256"
            }
          ],
          "internalType": "struct ItayoseLog",
          "name": "",
          "type": "tuple"
        }
      ],
      "stateMutability": "view",
      "type": "function"
    },
    {
      "inputs": [
        {
          "internalType": "uint8",
          "name": "_orderBookId",
          "type": "uint8"
        }
      ],
      "name": "getLastOrderTimestamp",
      "outputs": [
        {
          "internalType": "uint48",
          "name": "",
          "type": "uint48"
        }
      ],
      "stateMutability": "view",
      "type": "function"
    },
    {
      "inputs": [
        {
          "internalType": "uint8",
          "name": "_orderBookId",
          "type": "uint8"
        },
        {
          "internalType": "uint256",
          "name": "_start",
          "type": "uint256"
        },
        {
          "internalType": "uint256",
          "name": "_limit",
          "type": "uint256"
        }
      ],
      "name": "getLendOrderBook",
      "outputs": [
        {
          "internalType": "uint256[]",
          "name": "unitPrices",
          "type": "uint256[]"
        },
        {
          "internalType": "uint256[]",
          "name": "amounts",
          "type": "uint256[]"
        },
        {
          "internalType": "uint256[]",
          "name": "quantities",
          "type": "uint256[]"
        },
        {
          "internalType": "uint256",
          "name": "next",
          "type": "uint256"
        }
      ],
      "stateMutability": "view",
      "type": "function"
    },
    {
      "inputs": [
        {
          "internalType": "uint8",
          "name": "_orderBookId",
          "type": "uint8"
        },
        {
          "internalType": "address",
          "name": "_user",
          "type": "address"
        }
      ],
      "name": "getLendOrderIds",
      "outputs": [
        {
          "internalType": "uint48[]",
          "name": "activeOrderIds",
          "type": "uint48[]"
        },
        {
          "internalType": "uint48[]",
          "name": "inActiveOrderIds",
          "type": "uint48[]"
        }
      ],
      "stateMutability": "view",
      "type": "function"
    },
    {
      "inputs": [
        {
          "internalType": "uint8",
          "name": "_orderBookId",
          "type": "uint8"
        }
      ],
      "name": "getMarketUnitPrice",
      "outputs": [
        {
          "internalType": "uint256",
          "name": "",
          "type": "uint256"
        }
      ],
      "stateMutability": "view",
      "type": "function"
    },
    {
      "inputs": [
        {
          "internalType": "uint8[]",
          "name": "_orderBookIds",
          "type": "uint8[]"
        }
      ],
      "name": "getMaturities",
      "outputs": [
        {
          "internalType": "uint256[]",
          "name": "maturities",
          "type": "uint256[]"
        }
      ],
      "stateMutability": "view",
      "type": "function"
    },
    {
      "inputs": [
        {
          "internalType": "uint8",
          "name": "_orderBookId",
          "type": "uint8"
        }
      ],
      "name": "getMaturity",
      "outputs": [
        {
          "internalType": "uint256",
          "name": "maturity",
          "type": "uint256"
        }
      ],
      "stateMutability": "view",
      "type": "function"
    },
    {
      "inputs": [
        {
          "internalType": "uint8",
          "name": "_orderBookId",
          "type": "uint8"
        }
      ],
      "name": "getOpeningDate",
      "outputs": [
        {
          "internalType": "uint256",
          "name": "openingDate",
          "type": "uint256"
        }
      ],
      "stateMutability": "view",
      "type": "function"
    },
    {
      "inputs": [
        {
          "internalType": "uint8",
          "name": "_orderBookId",
          "type": "uint8"
        },
        {
          "internalType": "uint48",
          "name": "_orderId",
          "type": "uint48"
        }
      ],
      "name": "getOrder",
      "outputs": [
        {
          "internalType": "enum ProtocolTypes.Side",
          "name": "side",
          "type": "uint8"
        },
        {
          "internalType": "uint256",
          "name": "unitPrice",
          "type": "uint256"
        },
        {
          "internalType": "uint256",
          "name": "maturity",
          "type": "uint256"
        },
        {
          "internalType": "address",
          "name": "maker",
          "type": "address"
        },
        {
          "internalType": "uint256",
          "name": "amount",
          "type": "uint256"
        },
        {
          "internalType": "uint256",
          "name": "timestamp",
          "type": "uint256"
        },
        {
          "internalType": "bool",
          "name": "isPreOrder",
          "type": "bool"
        }
      ],
      "stateMutability": "view",
      "type": "function"
    },
    {
      "inputs": [
        {
          "internalType": "uint8",
          "name": "_orderBookId",
          "type": "uint8"
        }
      ],
      "name": "getOrderBookDetail",
      "outputs": [
        {
          "internalType": "bytes32",
          "name": "ccy",
          "type": "bytes32"
        },
        {
          "internalType": "uint256",
          "name": "maturity",
          "type": "uint256"
        },
        {
          "internalType": "uint256",
          "name": "openingDate",
          "type": "uint256"
        },
        {
          "internalType": "uint256",
          "name": "preOpeningDate",
          "type": "uint256"
        }
      ],
      "stateMutability": "view",
      "type": "function"
    },
    {
      "inputs": [],
      "name": "getOrderFeeRate",
      "outputs": [
        {
          "internalType": "uint256",
          "name": "",
          "type": "uint256"
        }
      ],
      "stateMutability": "view",
      "type": "function"
    },
    {
      "inputs": [],
      "name": "getRevision",
      "outputs": [
        {
          "internalType": "uint256",
          "name": "",
          "type": "uint256"
        }
      ],
      "stateMutability": "pure",
      "type": "function"
    },
    {
      "inputs": [
        {
          "internalType": "uint8",
          "name": "_orderBookId",
          "type": "uint8"
        },
        {
          "internalType": "address",
          "name": "_user",
          "type": "address"
        },
        {
          "internalType": "uint256",
          "name": "_minUnitPrice",
          "type": "uint256"
        }
      ],
      "name": "getTotalAmountFromBorrowOrders",
      "outputs": [
        {
          "internalType": "uint256",
          "name": "activeAmount",
          "type": "uint256"
        },
        {
          "internalType": "uint256",
          "name": "inactiveAmount",
          "type": "uint256"
        },
        {
          "internalType": "uint256",
          "name": "inactiveFutureValue",
          "type": "uint256"
        },
        {
          "internalType": "uint256",
          "name": "maturity",
          "type": "uint256"
        }
      ],
      "stateMutability": "view",
      "type": "function"
    },
    {
      "inputs": [
        {
          "internalType": "uint8",
          "name": "_orderBookId",
          "type": "uint8"
        },
        {
          "internalType": "address",
          "name": "_user",
          "type": "address"
        }
      ],
      "name": "getTotalAmountFromLendOrders",
      "outputs": [
        {
          "internalType": "uint256",
          "name": "activeAmount",
          "type": "uint256"
        },
        {
          "internalType": "uint256",
          "name": "inactiveAmount",
          "type": "uint256"
        },
        {
          "internalType": "uint256",
          "name": "inactiveFutureValue",
          "type": "uint256"
        },
        {
          "internalType": "uint256",
          "name": "maturity",
          "type": "uint256"
        }
      ],
      "stateMutability": "view",
      "type": "function"
    },
    {
      "inputs": [
        {
          "internalType": "address",
          "name": "_resolver",
          "type": "address"
        },
        {
          "internalType": "bytes32",
          "name": "_ccy",
          "type": "bytes32"
        },
        {
          "internalType": "uint256",
          "name": "_orderFeeRate",
          "type": "uint256"
        },
        {
          "internalType": "uint256",
          "name": "_cbLimitRange",
          "type": "uint256"
        }
      ],
      "name": "initialize",
      "outputs": [],
      "stateMutability": "nonpayable",
      "type": "function"
    },
    {
      "inputs": [
        {
          "internalType": "uint8",
          "name": "_orderBookId",
          "type": "uint8"
        }
      ],
      "name": "isItayosePeriod",
      "outputs": [
        {
          "internalType": "bool",
          "name": "",
          "type": "bool"
        }
      ],
      "stateMutability": "view",
      "type": "function"
    },
    {
      "inputs": [
        {
          "internalType": "uint8",
          "name": "_orderBookId",
          "type": "uint8"
        }
      ],
      "name": "isMatured",
      "outputs": [
        {
          "internalType": "bool",
          "name": "",
          "type": "bool"
        }
      ],
      "stateMutability": "view",
      "type": "function"
    },
    {
      "inputs": [
        {
          "internalType": "uint8",
          "name": "_orderBookId",
          "type": "uint8"
        }
      ],
      "name": "isOpened",
      "outputs": [
        {
          "internalType": "bool",
          "name": "",
          "type": "bool"
        }
      ],
      "stateMutability": "view",
      "type": "function"
    },
    {
      "inputs": [
        {
          "internalType": "uint8",
          "name": "_orderBookId",
          "type": "uint8"
        }
      ],
      "name": "isPreOrderPeriod",
      "outputs": [
        {
          "internalType": "bool",
          "name": "",
          "type": "bool"
        }
      ],
      "stateMutability": "view",
      "type": "function"
    },
    {
      "inputs": [
        {
          "internalType": "uint8",
          "name": "_orderBookId",
          "type": "uint8"
        }
      ],
      "name": "isReady",
      "outputs": [
        {
          "internalType": "bool",
          "name": "",
          "type": "bool"
        }
      ],
      "stateMutability": "view",
      "type": "function"
    },
    {
      "inputs": [],
      "name": "isResolverCached",
      "outputs": [
        {
          "internalType": "bool",
          "name": "",
          "type": "bool"
        }
      ],
      "stateMutability": "view",
      "type": "function"
    },
    {
      "inputs": [],
      "name": "minimumReliableAmountInBaseCurrency",
      "outputs": [
        {
          "internalType": "uint256",
          "name": "",
          "type": "uint256"
        }
      ],
      "stateMutability": "view",
      "type": "function"
    },
    {
      "inputs": [],
      "name": "pause",
      "outputs": [],
      "stateMutability": "nonpayable",
      "type": "function"
    },
    {
      "inputs": [],
      "name": "paused",
      "outputs": [
        {
          "internalType": "bool",
          "name": "",
          "type": "bool"
        }
      ],
      "stateMutability": "view",
      "type": "function"
    },
    {
      "inputs": [],
      "name": "requiredContracts",
      "outputs": [
        {
          "internalType": "bytes32[]",
          "name": "contracts",
          "type": "bytes32[]"
        }
      ],
      "stateMutability": "pure",
      "type": "function"
    },
    {
      "inputs": [],
      "name": "resolver",
      "outputs": [
        {
          "internalType": "contract IAddressResolver",
          "name": "",
          "type": "address"
        }
      ],
      "stateMutability": "view",
      "type": "function"
    },
    {
      "inputs": [],
      "name": "unpause",
      "outputs": [],
      "stateMutability": "nonpayable",
      "type": "function"
    },
    {
      "inputs": [
        {
          "internalType": "uint8",
          "name": "_orderBookId",
          "type": "uint8"
        },
        {
          "internalType": "enum ProtocolTypes.Side",
          "name": "_side",
          "type": "uint8"
        },
        {
          "internalType": "address",
          "name": "_user",
          "type": "address"
        },
        {
          "internalType": "uint256",
          "name": "_futureValue",
          "type": "uint256"
        }
      ],
      "name": "unwindPosition",
      "outputs": [
        {
          "components": [
            {
              "internalType": "uint256",
              "name": "amount",
              "type": "uint256"
            },
            {
              "internalType": "uint256",
              "name": "unitPrice",
              "type": "uint256"
            },
            {
              "internalType": "uint256",
              "name": "futureValue",
              "type": "uint256"
            },
            {
              "internalType": "uint256",
              "name": "ignoredAmount",
              "type": "uint256"
            }
          ],
          "internalType": "struct FilledOrder",
          "name": "filledOrder",
          "type": "tuple"
        },
        {
          "components": [
            {
              "internalType": "uint48",
              "name": "orderId",
              "type": "uint48"
            },
            {
              "internalType": "address",
              "name": "maker",
              "type": "address"
            },
            {
              "internalType": "uint256",
              "name": "amount",
              "type": "uint256"
            },
            {
              "internalType": "uint256",
              "name": "futureValue",
              "type": "uint256"
            }
          ],
          "internalType": "struct PartiallyFilledOrder",
          "name": "partiallyFilledOrder",
          "type": "tuple"
        },
        {
          "internalType": "uint256",
          "name": "feeInFV",
          "type": "uint256"
        }
      ],
      "stateMutability": "nonpayable",
      "type": "function"
    },
    {
      "inputs": [
        {
          "internalType": "uint256",
          "name": "_cbLimitRange",
          "type": "uint256"
        }
      ],
      "name": "updateCircuitBreakerLimitRange",
      "outputs": [],
      "stateMutability": "nonpayable",
      "type": "function"
    },
    {
      "inputs": [
        {
          "internalType": "uint256",
          "name": "_orderFeeRate",
          "type": "uint256"
        }
      ],
      "name": "updateOrderFeeRate",
      "outputs": [],
      "stateMutability": "nonpayable",
      "type": "function"
    }
  ],
  "transactionHash": "0x8afc7c43c78ed701b000df9183d045804e8354672550deb8a94ec09c7694b72e",
  "args": [
    "10000000000"
  ],
  "numDeployments": 1,
  "solcInputHash": "a0a29dee42d641b5a802c82edf34e81a",
  "bytecode": "0x60a06040523480156200001157600080fd5b50604051620036e3380380620036e383398101604081905262000034916200003d565b60805262000057565b6000602082840312156200005057600080fd5b5051919050565b608051613662620000816000396000818161062b015281816109e40152611f6d01526136626000f3fe608060405234801561001057600080fd5b506004361061030c5760003560e01c80636aa65aaf1161019d578063ba1cbe98116100e9578063dded339b116100a2578063f506ad301161007c578063f506ad3014610781578063fbb759b4146107c9578063ff5cce97146107f3578063fffa87b81461080657600080fd5b8063dded339b14610735578063de9f5fed14610748578063f3f7f4521461076e57600080fd5b8063ba1cbe981461069b578063cd458662146106ae578063cdbd403e146106c1578063d50de22a146106d4578063d73b584a146106e7578063d88ad1e11461072257600080fd5b806389efbab1116101565780639beff3e3116101305780639beff3e31461064f578063a3b88aa014610662578063a4ff243a14610675578063b7c1d5271461068857600080fd5b806389efbab1146105f3578063936d6d2e1461061657806399a2a33f1461062957600080fd5b80636aa65aaf1461056a5780636c5d6df11461057d5780636d9bf95a1461059057806380d5b609146105c557806382bdfed5146105d85780638456cb59146105eb57600080fd5b806338b058521161025c57806357673717116102155780635f7f8b45116101ef5780635f7f8b451461051b5780635fee0bba1461052e5780636945c1fd1461054f5780636a5138d61461055757600080fd5b806357673717146104ed57806358e64897146105005780635c975abb1461051357600080fd5b806338b05852146104505780633d03b9da146104705780633f4ba83a146104855780634c60afc81461048d57806350e18701146104a05780635575c796146104c857600080fd5b80631f98a420116102c957806329d6dd13116102a357806329d6dd13146103ff5780632af64bd3146104225780632bfa7c131461042a578063381e93441461043d57600080fd5b80631f98a420146103b0578063261cc1b2146103d157806329985e5a146103f557600080fd5b806304f3bcec14610311578063128e5b85146103365780631316529d1461034c57806313a4451c1461035357806315a46bb3146103865780631e250317146103a8575b600080fd5b610319610819565b6040516001600160a01b0390911681526020015b60405180910390f35b61033e610832565b60405190815260200161032d565b600361033e565b6103666103613660046127d1565b610845565b60408051948552602085019390935291830152606082015260800161032d565b610399610394366004612817565b6108e3565b60405161032d9392919061289c565b61033e610abf565b6103c36103be3660046128e3565b610ad2565b60405161032d92919061293b565b6103e46103df3660046128e3565b610b5a565b60405161032d959493929190612965565b6103fd610c61565b005b61041261040d3660046128e3565b610dde565b604051901515815260200161032d565b610412610e5e565b61033e6104383660046128e3565b610f90565b61041261044b3660046128e3565b61100a565b61046361045e36600461299f565b611047565b60405161032d9190612a14565b6104786110cf565b60405161032d9190612a27565b6103fd611161565b61036661049b366004612a6b565b6111a4565b6104b36104ae3660046128e3565b61124b565b6040805192835260208301919091520161032d565b6104db6104d6366004612aac565b6112c5565b60405160ff909116815260200161032d565b6104636104fb36600461299f565b61138a565b61033e61050e3660046128e3565b6113c6565b610412611403565b61033e6105293660046128e3565b611416565b61054161053c3660046127d1565b611453565b60405161032d929190612b10565b61033e6114ed565b6104126105653660046128e3565b6114fd565b6103fd610578366004612b3e565b61153a565b6103fd61058b366004612b3e565b6115da565b6105a361059e366004612b3e565b61164b565b604080518251815260208084015190820152918101519082015260600161032d565b6103666105d33660046128e3565b6116b1565b6104126105e63660046128e3565b611740565b6103fd61177d565b610606610601366004612b57565b6117be565b60405161032d9493929190612b8c565b61033e6106243660046128e3565b611851565b7f000000000000000000000000000000000000000000000000000000000000000061033e565b6103fd61065d366004612bd7565b61187a565b61033e610670366004612c07565b61192c565b61033e6106833660046128e3565b6119ac565b6103fd610696366004612c33565b6119d2565b6106066106a9366004612b57565b611c2b565b6104636106bc36600461299f565b611c7d565b6103fd6106cf366004612c6e565b611cb9565b6103666106e2366004612cc9565b611d98565b6106fa6106f5366004612cf9565b611dd9565b604080519586526020860194909452928401919091526060830152608082015260a00161032d565b610399610730366004612c6e565b611e74565b6103666107433660046128e3565b61204a565b61075b610756366004612d53565b61208d565b60405161032d9796959493929190612da3565b6103fd61077c366004612dec565b612138565b61079461078f3660046127d1565b6122a0565b604080519788526020880196909652948601939093526060850191909152608084015260a083015260c082015260e00161032d565b6107dc6107d73660046128e3565b612369565b60405165ffffffffffff909116815260200161032d565b6105416108013660046127d1565b6123e2565b6104126108143660046128e3565b612433565b6000610823612472565b546001600160a01b0316919050565b600061083c6124a0565b60020154905090565b6040516304e9114760e21b815260ff831660048201526001600160a01b038216602482015260009081908190819073F87De2964D4F5Fb1351FF3Dab5e357750E106943906313a4451c90604401608060405180830381865af41580156108af573d6000803e3d6000fd5b505050506040513d601f19601f820116820180604052508101906108d39190612e37565b9299919850965090945092505050565b61090e6040518060800160405280600081526020016000815260200160008152602001600081525090565b610916612771565b60006109206124ce565b610928612516565b6001600160a01b0316336001600160a01b03161461096257604051637b3f42c160e01b815260040161095990612e6d565b60405180910390fd5b8661096c816114fd565b6109895760405163627524cd60e01b815260040160405180910390fd5b73D84BDEeb9D147Ca3FF4b3fAa59857CcE16ac740a63ad89fe1a898989896109af612540565b6001600160a01b0316631c637a046109c56124a0565b5460405160e083901b6001600160e01b031916815260048101919091527f00000000000000000000000000000000000000000000000000000000000000006024820152604401602060405180830381865afa158015610a28573d6000803e3d6000fd5b505050506040513d601f19601f82011682018060405250810190610a4c9190612e9e565b6040518663ffffffff1660e01b8152600401610a6c959493929190612eb7565b61012060405180830381865af4158015610a8a573d6000803e3d6000fd5b505050506040513d601f19601f82011682018060405250810190610aae9190612fbb565b935093509350509450945094915050565b6000610ac96124a0565b60030154905090565b60405162fcc52160e51b815260ff8216600482015260609060009073E4b99030fD0F109f40E2ad1d5932E61A4Ed97aB890631f98a42090602401600060405180830381865af4158015610b29573d6000803e3d6000fd5b505050506040513d6000823e601f3d908101601f19168201604052610b5191908101906130bc565b91509150915091565b6000806000610b67612771565b610b6f612771565b610b776124ce565b610b7f612516565b6001600160a01b0316336001600160a01b031614610bb057604051637b3f42c160e01b815260040161095990612e6d565b85610bba8161100a565b610bd75760405163ad668d2560e01b815260040160405180910390fd5b60405163130e60d960e11b815260ff8816600482015273E4b99030fD0F109f40E2ad1d5932E61A4Ed97aB89063261cc1b29060240161016060405180830381865af4158015610c2a573d6000803e3d6000fd5b505050506040513d601f19601f82011682018060405250810190610c4e9190613103565b939b929a50909850965090945092505050565b6000610c6b6110cf565b905060005b8151811015610dda576000828281518110610c8d57610c8d613156565b602002602001015190506000610ca1612472565b54604080517f5265736f6c766572206d697373696e67207461726765743a200000000000000060208201526039808201869052825180830390910181526059820192839052636795dbcd60e01b9092526001600160a01b0390921691636795dbcd91610d1291869190605d016131b2565b602060405180830381865afa158015610d2f573d6000803e3d6000fd5b505050506040513d601f19601f82011682018060405250810190610d5391906131cb565b905080610d5e612472565b6000848152600191909101602090815260409182902080546001600160a01b0319166001600160a01b039485161790558151858152928416908301527f88a93678a3692f6789d9546fc621bf7234b101ddb7d4fe479455112831b8aa68910160405180910390a150508080610dd2906131fe565b915050610c70565b5050565b6040516329d6dd1360e01b815260ff8216600482015260009073E4b99030fD0F109f40E2ad1d5932E61A4Ed97aB8906329d6dd13906024015b602060405180830381865af4158015610e34573d6000803e3d6000fd5b505050506040513d601f19601f82011682018060405250810190610e58919061322c565b92915050565b600080610e696110cf565b905060005b8151811015610f87576000828281518110610e8b57610e8b613156565b60200260200101519050610e9d612472565b600082815260019190910160205260409020546001600160a01b0316610ec1612472565b546040516321f8a72160e01b8152600481018490526001600160a01b03909116906321f8a72190602401602060405180830381865afa158015610f08573d6000803e3d6000fd5b505050506040513d601f19601f82011682018060405250810190610f2c91906131cb565b6001600160a01b0316141580610f6557506000610f47612472565b600083815260019190910160205260409020546001600160a01b0316145b15610f74576000935050505090565b5080610f7f816131fe565b915050610e6e565b50600191505090565b604051632bfa7c1360e01b815260ff8216600482015260009073E4b99030fD0F109f40E2ad1d5932E61A4Ed97aB890632bfa7c13906024015b602060405180830381865af4158015610fe6573d6000803e3d6000fd5b505050506040513d601f19601f82011682018060405250810190610e589190612e9e565b604051630e07a4d160e21b815260ff8216600482015260009073E4b99030fD0F109f40E2ad1d5932E61A4Ed97aB89063381e934490602401610e17565b604051631c582c2960e11b815260609073E4b99030fD0F109f40E2ad1d5932E61A4Ed97aB8906338b05852906110839086908690600401613247565b600060405180830381865af41580156110a0573d6000803e3d6000fd5b505050506040513d6000823e601f3d908101601f191682016040526110c89190810190613284565b9392505050565b60408051600280825260608083018452926020830190803683370190505090507121bab93932b731bca1b7b73a3937b63632b960711b8160008151811061111857611118613156565b602002602001018181525050762632b73234b733a6b0b935b2ba21b7b73a3937b63632b960491b8160018151811061115257611152613156565b60200260200101818152505090565b611169612516565b6001600160a01b0316336001600160a01b03161461119a57604051637b3f42c160e01b815260040161095990612e6d565b6111a261254a565b565b60405163098c15f960e31b815260ff841660048201526001600160a01b03831660248201526044810182905260009081908190819073F87De2964D4F5Fb1351FF3Dab5e357750E10694390634c60afc8906064015b608060405180830381865af4158015611216573d6000803e3d6000fd5b505050506040513d601f19601f8201168201806040525081019061123a9190612e37565b935093509350935093509350935093565b6040516350e1870160e01b815260ff82166004820152600090819073E4b99030fD0F109f40E2ad1d5932E61A4Ed97aB8906350e18701906024016040805180830381865af41580156112a1573d6000803e3d6000fd5b505050506040513d601f19601f82011682018060405250810190610b5191906132b9565b60006112cf612516565b6001600160a01b0316336001600160a01b03161461130057604051637b3f42c160e01b815260040161095990612e6d565b604051632abae3cb60e11b815260048101859052602481018490526044810183905273E4b99030fD0F109f40E2ad1d5932E61A4Ed97aB890635575c79690606401602060405180830381865af415801561135e573d6000803e3d6000fd5b505050506040513d601f19601f8201168201806040525081019061138291906132dd565b949350505050565b604051635767371760e01b815260609073E4b99030fD0F109f40E2ad1d5932E61A4Ed97aB8906357673717906110839086908690600401613247565b6040516358e6489760e01b815260ff8216600482015260009073E4b99030fD0F109f40E2ad1d5932E61A4Ed97aB8906358e6489790602401610fc9565b600061140d6125ab565b5460ff16919050565b604051635f7f8b4560e01b815260ff8216600482015260009073E4b99030fD0F109f40E2ad1d5932E61A4Ed97aB890635f7f8b4590602401610fc9565b604051632ff705dd60e11b815260ff831660048201526001600160a01b0382166024820152606090819073F87De2964D4F5Fb1351FF3Dab5e357750E10694390635fee0bba906044015b600060405180830381865af41580156114ba573d6000803e3d6000fd5b505050506040513d6000823e601f3d908101601f191682016040526114e2919081019061335e565b915091509250929050565b60006114f76124a0565b54919050565b6040516335289c6b60e11b815260ff8216600482015260009073E4b99030fD0F109f40E2ad1d5932E61A4Ed97aB890636a5138d690602401610e17565b611542612516565b6001600160a01b0316336001600160a01b03161461157357604051637b3f42c160e01b815260040161095990612e6d565b604051636aa65aaf60e01b81526004810182905273E4b99030fD0F109f40E2ad1d5932E61A4Ed97aB890636aa65aaf906024015b60006040518083038186803b1580156115bf57600080fd5b505af41580156115d3573d6000803e3d6000fd5b5050505050565b6115e2612516565b6001600160a01b0316336001600160a01b03161461161357604051637b3f42c160e01b815260040161095990612e6d565b604051636c5d6df160e01b81526004810182905273E4b99030fD0F109f40E2ad1d5932E61A4Ed97aB890636c5d6df1906024016115a7565b61166f60405180606001604052806000815260200160008152602001600081525090565b6116776124a0565b6000928352600601602090815260409283902083516060810185528154815260018201549281019290925260020154928101929092525090565b6040516380d5b60960e01b815260ff8216600482015260009081908190819073E4b99030fD0F109f40E2ad1d5932E61A4Ed97aB8906380d5b609906024015b608060405180830381865af415801561170d573d6000803e3d6000fd5b505050506040513d601f19601f820116820180604052508101906117319190612e37565b93509350935093509193509193565b6040516382bdfed560e01b815260ff8216600482015260009073E4b99030fD0F109f40E2ad1d5932E61A4Ed97aB8906382bdfed590602401610e17565b611785612516565b6001600160a01b0316336001600160a01b0316146117b657604051637b3f42c160e01b815260040161095990612e6d565b6111a26125d9565b6040516389efbab160e01b815260ff8416600482015260248101839052604481018290526060908190819060009073E4b99030fD0F109f40E2ad1d5932E61A4Ed97aB8906389efbab1906064015b600060405180830381865af4158015611829573d6000803e3d6000fd5b505050506040513d6000823e601f3d908101601f1916820160405261123a91908101906133c2565b600061185b6124a0565b60ff909216600090815260049290920160205250604090206001015490565b611882612516565b6001600160a01b0316336001600160a01b0316146118b357604051637b3f42c160e01b815260040161095990612e6d565b604051639beff3e360e01b815260ff8085166004830152831660248201526044810182905273E4b99030fD0F109f40E2ad1d5932E61A4Ed97aB890639beff3e39060640160006040518083038186803b15801561190f57600080fd5b505af4158015611923573d6000803e3d6000fd5b50505050505050565b60405163051dc45560e51b815260ff831660048201526024810182905260009073E4b99030fD0F109f40E2ad1d5932E61A4Ed97aB89063a3b88aa090604401602060405180830381865af4158015611988573d6000803e3d6000fd5b505050506040513d601f19601f820116820180604052508101906110c89190612e9e565b60006119b66124a0565b60ff909216600090815260049290920160205250604090205490565b600054610100900460ff16158080156119f25750600054600160ff909116105b80611a0c5750303b158015611a0c575060005460ff166001145b611a6f5760405162461bcd60e51b815260206004820152602e60248201527f496e697469616c697a61626c653a20636f6e747261637420697320616c72656160448201526d191e481a5b9a5d1a585b1a5e995960921b6064820152608401610959565b6000805460ff191660011790558015611a92576000805461ff0019166101001790555b6000611a9c612621565b6001600160a01b031603611afe5760405162461bcd60e51b815260206004820152602360248201527f4d7573742062652063616c6c65642066726f6d20626561636f6e20636f6e74726044820152621858dd60ea1b6064820152608401610959565b611b0785612649565b83611b106124a0565b55604051636aa65aaf60e01b81526004810184905273E4b99030fD0F109f40E2ad1d5932E61A4Ed97aB890636aa65aaf9060240160006040518083038186803b158015611b5c57600080fd5b505af4158015611b70573d6000803e3d6000fd5b5050604051636c5d6df160e01b81526004810185905273E4b99030fD0F109f40E2ad1d5932E61A4Ed97aB89250636c5d6df1915060240160006040518083038186803b158015611bbf57600080fd5b505af4158015611bd3573d6000803e3d6000fd5b50505050611bdf610c61565b80156115d3576000805461ff0019169055604051600181527f7f26b83ff96e1f2b6a682f133852f6798a09c465da95921460cefb38474024989060200160405180910390a15050505050565b60405163174397d360e31b815260ff8416600482015260248101839052604481018290526060908190819060009073E4b99030fD0F109f40E2ad1d5932E61A4Ed97aB89063ba1cbe989060640161180c565b6040516366a2c33160e11b815260609073E4b99030fD0F109f40E2ad1d5932E61A4Ed97aB89063cd458662906110839086908690600401613247565b611cc16124ce565b611cc9612516565b6001600160a01b0316336001600160a01b031614611cfa57604051637b3f42c160e01b815260040161095990612e6d565b84611d0481612433565b611d21576040516336b3c46360e21b815260040160405180910390fd5b60405163ed94d50f60e01b815273D84BDEeb9D147Ca3FF4b3fAa59857CcE16ac740a9063ed94d50f90611d609089908990899089908990600401612eb7565b60006040518083038186803b158015611d7857600080fd5b505af4158015611d8c573d6000803e3d6000fd5b50505050505050505050565b60008060008073F87De2964D4F5Fb1351FF3Dab5e357750E106943637ce518618888886040518463ffffffff1660e01b81526004016111f993929190613452565b600080600080600073F87De2964D4F5Fb1351FF3Dab5e357750E106943634a864e228a8a8a8a6040518563ffffffff1660e01b8152600401611e1e9493929190613477565b60a060405180830381865af4158015611e3b573d6000803e3d6000fd5b505050506040513d601f19601f82011682018060405250810190611e5f91906134a0565b94509450945094509450945094509450945094565b611e9f6040518060800160405280600081526020016000815260200160008152602001600081525090565b611ea7612771565b6000611eb16124ce565b611eb9612516565b6001600160a01b0316336001600160a01b031614611eea57604051637b3f42c160e01b815260040161095990612e6d565b87611ef4816114fd565b611f115760405163627524cd60e01b815260040160405180910390fd5b73D84BDEeb9D147Ca3FF4b3fAa59857CcE16ac740a63447265be8a8a8a8a8a611f38612540565b6001600160a01b0316631c637a04611f4e6124a0565b5460405160e083901b6001600160e01b031916815260048101919091527f00000000000000000000000000000000000000000000000000000000000000006024820152604401602060405180830381865afa158015611fb1573d6000803e3d6000fd5b505050506040513d601f19601f82011682018060405250810190611fd59190612e9e565b6040518763ffffffff1660e01b8152600401611ff6969594939291906134e0565b61012060405180830381865af4158015612014573d6000803e3d6000fd5b505050506040513d601f19601f820116820180604052508101906120389190612fbb565b93509350935050955095509592505050565b60405163dded339b60e01b815260ff8216600482015260009081908190819073E4b99030fD0F109f40E2ad1d5932E61A4Ed97aB89063dded339b906024016116f0565b60405163de9f5fed60e01b815260ff8316600482015265ffffffffffff8216602482015260009081908190819081908190819073F87De2964D4F5Fb1351FF3Dab5e357750E1069439063de9f5fed9060440160e060405180830381865af41580156120fc573d6000803e3d6000fd5b505050506040513d601f19601f820116820180604052508101906121209190613524565b959f949e50929c50909a509850965090945092505050565b6121406124ce565b612148612516565b6001600160a01b0316336001600160a01b03161461217957604051637b3f42c160e01b815260040161095990612e6d565b8282826000612188848361208d565b50919550506001600160a01b03851693506121ba925050505760405163cf3c6cab60e01b815260040160405180910390fd5b806001600160a01b0316836001600160a01b0316146121ec5760405163a512216b60e01b815260040160405180910390fd5b866121f68161100a565b156122145760405163e622d7f560e01b815260040160405180910390fd5b6040516379fbfa2960e11b815260ff891660048201526001600160a01b038816602482015265ffffffffffff8716604482015273D84BDEeb9D147Ca3FF4b3fAa59857CcE16ac740a9063f3f7f4529060640160006040518083038186803b15801561227e57600080fd5b505af4158015612292573d6000803e3d6000fd5b505050505050505050505050565b60008060008060008060006122b3612516565b6001600160a01b0316336001600160a01b0316146122e457604051637b3f42c160e01b815260040161095990612e6d565b604051630f506ad360e41b815260ff8a1660048201526001600160a01b038916602482015273D84BDEeb9D147Ca3FF4b3fAa59857CcE16ac740a9063f506ad309060440160e060405180830381865af4158015612345573d6000803e3d6000fd5b505050506040513d601f19601f820116820180604052508101906121209190613595565b604051633eedd66d60e21b815260ff8216600482015260009073E4b99030fD0F109f40E2ad1d5932E61A4Ed97aB89063fbb759b490602401602060405180830381865af41580156123be573d6000803e3d6000fd5b505050506040513d601f19601f82011682018060405250810190610e5891906135e9565b604051600162a3316960e01b0319815260ff831660048201526001600160a01b0382166024820152606090819073F87De2964D4F5Fb1351FF3Dab5e357750E1069439063ff5cce979060440161149d565b604051600161af0960e31b0319815260ff8216600482015260009073E4b99030fD0F109f40E2ad1d5932E61A4Ed97aB89063fffa87b890602401610e17565b600080610e5860017f4abde63c3e81aefa5764b017968bc473e83e093d7e1a10247d19e0a3e4124018613606565b600080610e5860017ffc2836757f9146445fc75bc3c897a210ec004e4ee60fc8627ef5cbf2842b3d0a613606565b6124d6611403565b156111a25760405162461bcd60e51b815260206004820152601060248201526f14185d5cd8589b194e881c185d5cd95960821b6044820152606401610959565b600061253b762632b73234b733a6b0b935b2ba21b7b73a3937b63632b960491b6126a5565b905090565b600061253b612706565b612552612726565b600061255c6125ab565b805460ff19169115159190911790557f5db9ee0a495bf2e6ff9c91a7834c1ba4fdd244a5e8aa4e537bd38aeae4b073aa335b6040516001600160a01b03909116815260200160405180910390a1565b600080610e5860017f9c789132bdb3678132848a8dcd780bffd2b1abdce3984c522ac1d8aeb48f05f3613606565b6125e16124ce565b60016125eb6125ab565b805460ff19169115159190911790557f62e78cea01bee320cd4e420270b5ea74000d11b0c9f74754ebdbfc544b05a2583361258e565b60007fa3f0ad74e5423aebfd80d3ef4346578335a9a72aeaee59ff6cb3582b35133d50610823565b6000612653612472565b546001600160a01b03161461267b576040516304b79d6360e51b815260040160405180910390fd5b80612684612472565b80546001600160a01b0319166001600160a01b039290921691909117905550565b6000806126b0612472565b600084815260019190910160205260409020546001600160a01b0316905080610e585760408051602081018590520160408051601f19818403018152908290526346e2ec9360e01b825261095991600401613619565b600061253b7121bab93932b731bca1b7b73a3937b63632b960711b6126a5565b61272e611403565b6111a25760405162461bcd60e51b815260206004820152601460248201527314185d5cd8589b194e881b9bdd081c185d5cd95960621b6044820152606401610959565b6040518060800160405280600065ffffffffffff16815260200160006001600160a01b0316815260200160008152602001600081525090565b60ff811681146127b957600080fd5b50565b6001600160a01b03811681146127b957600080fd5b600080604083850312156127e457600080fd5b82356127ef816127aa565b915060208301356127ff816127bc565b809150509250929050565b600281106127b957600080fd5b6000806000806080858703121561282d57600080fd5b8435612838816127aa565b935060208501356128488161280a565b92506040850135612858816127bc565b9396929550929360600135925050565b805165ffffffffffff1682526020808201516001600160a01b03169083015260408082015190830152606090810151910152565b600061012082019050845182526020850151602083015260408501516040830152606085015160608301526128d46080830185612868565b82610100830152949350505050565b6000602082840312156128f557600080fd5b81356110c8816127aa565b600081518084526020808501945080840160005b8381101561293057815187529582019590820190600101612914565b509495945050505050565b60408152600061294e6040830185612900565b905065ffffffffffff831660208301529392505050565b858152602081018590526040810184905261016081016129886060830185612868565b61299560e0830184612868565b9695505050505050565b600080602083850312156129b257600080fd5b823567ffffffffffffffff808211156129ca57600080fd5b818501915085601f8301126129de57600080fd5b8135818111156129ed57600080fd5b8660208260051b8501011115612a0257600080fd5b60209290920196919550909350505050565b6020815260006110c86020830184612900565b6020808252825182820181905260009190848201906040850190845b81811015612a5f57835183529284019291840191600101612a43565b50909695505050505050565b600080600060608486031215612a8057600080fd5b8335612a8b816127aa565b92506020840135612a9b816127bc565b929592945050506040919091013590565b600080600060608486031215612ac157600080fd5b505081359360208301359350604090920135919050565b600081518084526020808501945080840160005b8381101561293057815165ffffffffffff1687529582019590820190600101612aec565b604081526000612b236040830185612ad8565b8281036020840152612b358185612ad8565b95945050505050565b600060208284031215612b5057600080fd5b5035919050565b600080600060608486031215612b6c57600080fd5b8335612b77816127aa565b95602085013595506040909401359392505050565b608081526000612b9f6080830187612900565b8281036020840152612bb18187612900565b90508281036040840152612bc58186612900565b91505082606083015295945050505050565b600080600060608486031215612bec57600080fd5b8335612bf7816127aa565b92506020840135612a9b816127aa565b60008060408385031215612c1a57600080fd5b8235612c25816127aa565b946020939093013593505050565b60008060008060808587031215612c4957600080fd5b8435612c54816127bc565b966020860135965060408601359560600135945092505050565b600080600080600060a08688031215612c8657600080fd5b8535612c91816127aa565b94506020860135612ca18161280a565b93506040860135612cb1816127bc565b94979396509394606081013594506080013592915050565b600080600060608486031215612cde57600080fd5b8335612ce9816127aa565b92506020840135612a9b8161280a565b60008060008060808587031215612d0f57600080fd5b8435612d1a816127aa565b93506020850135612d2a8161280a565b93969395505050506040820135916060013590565b65ffffffffffff811681146127b957600080fd5b60008060408385031215612d6657600080fd5b8235612d71816127aa565b915060208301356127ff81612d3f565b60028110612d9f57634e487b7160e01b600052602160045260246000fd5b9052565b60e08101612db1828a612d81565b602082019790975260408101959095526001600160a01b03939093166060850152608084019190915260a0830152151560c090910152919050565b600080600060608486031215612e0157600080fd5b8335612e0c816127aa565b92506020840135612e1c816127bc565b91506040840135612e2c81612d3f565b809150509250925092565b60008060008060808587031215612e4d57600080fd5b505082516020840151604085015160609095015191969095509092509050565b6020808252601790820152762632b73234b733a6b0b935b2ba21b7b73a3937b63632b960491b604082015260600190565b600060208284031215612eb057600080fd5b5051919050565b60ff8616815260a08101612ece6020830187612d81565b6001600160a01b03949094166040820152606081019290925260809091015292915050565b634e487b7160e01b600052604160045260246000fd5b6040516080810167ffffffffffffffff81118282101715612f2c57612f2c612ef3565b60405290565b604051601f8201601f1916810167ffffffffffffffff81118282101715612f5b57612f5b612ef3565b604052919050565b600060808284031215612f7557600080fd5b612f7d612f09565b90508151612f8a81612d3f565b81526020820151612f9a816127bc565b80602083015250604082015160408201526060820151606082015292915050565b6000806000838503610120811215612fd257600080fd5b6080811215612fe057600080fd5b50612fe9612f09565b845181526020850151602082015260408501516040820152606085015160608201528093505061301c8560808601612f63565b915061010084015190509250925092565b600067ffffffffffffffff82111561304757613047612ef3565b5060051b60200190565b600082601f83011261306257600080fd5b815160206130776130728361302d565b612f32565b82815260059290921b8401810191818101908684111561309657600080fd5b8286015b848110156130b1578051835291830191830161309a565b509695505050505050565b600080604083850312156130cf57600080fd5b825167ffffffffffffffff8111156130e657600080fd5b6130f285828601613051565b92505060208301516127ff81612d3f565b6000806000806000610160868803121561311c57600080fd5b85519450602086015193506040860151925061313b8760608801612f63565b915061314a8760e08801612f63565b90509295509295909350565b634e487b7160e01b600052603260045260246000fd5b6000815180845260005b8181101561319257602081850181015186830182015201613176565b506000602082860101526020601f19601f83011685010191505092915050565b828152604060208201526000611382604083018461316c565b6000602082840312156131dd57600080fd5b81516110c8816127bc565b634e487b7160e01b600052601160045260246000fd5b600060018201613210576132106131e8565b5060010190565b8051801515811461322757600080fd5b919050565b60006020828403121561323e57600080fd5b6110c882613217565b60208082528181018390526000908460408401835b868110156130b157823561326f816127aa565b60ff168252918301919083019060010161325c565b60006020828403121561329657600080fd5b815167ffffffffffffffff8111156132ad57600080fd5b61138284828501613051565b600080604083850312156132cc57600080fd5b505080516020909101519092909150565b6000602082840312156132ef57600080fd5b81516110c8816127aa565b600082601f83011261330b57600080fd5b8151602061331b6130728361302d565b82815260059290921b8401810191818101908684111561333a57600080fd5b8286015b848110156130b157805161335181612d3f565b835291830191830161333e565b6000806040838503121561337157600080fd5b825167ffffffffffffffff8082111561338957600080fd5b613395868387016132fa565b935060208501519150808211156133ab57600080fd5b506133b8858286016132fa565b9150509250929050565b600080600080608085870312156133d857600080fd5b845167ffffffffffffffff808211156133f057600080fd5b6133fc88838901613051565b9550602087015191508082111561341257600080fd5b61341e88838901613051565b9450604087015191508082111561343457600080fd5b5061344187828801613051565b606096909601519497939650505050565b60ff84168152606081016134696020830185612d81565b826040830152949350505050565b60ff851681526080810161348e6020830186612d81565b60408201939093526060015292915050565b600080600080600060a086880312156134b857600080fd5b5050835160208501516040860151606087015160809097015192989197509594509092509050565b60ff8716815260c081016134f76020830188612d81565b6001600160a01b039590951660408201526060810193909352608083019190915260a09091015292915050565b600080600080600080600060e0888a03121561353f57600080fd5b875161354a8161280a565b809750506020880151955060408801519450606088015161356a816127bc565b608089015160a08a01519195509350915061358760c08901613217565b905092959891949750929550565b600080600080600080600060e0888a0312156135b057600080fd5b5050855160208701516040880151606089015160808a015160a08b015160c0909b0151949c939b50919990985090965094509092509050565b6000602082840312156135fb57600080fd5b81516110c881612d3f565b81810381811115610e5857610e586131e8565b6020815260006110c8602083018461316c56fea2646970667358221220b9db55a38df0e50454f443d6e64df8e65ab10fea92c09f64cb274315ce78d48a64736f6c63430008130033",
  "deployedBytecode": "0x608060405234801561001057600080fd5b506004361061030c5760003560e01c80636aa65aaf1161019d578063ba1cbe98116100e9578063dded339b116100a2578063f506ad301161007c578063f506ad3014610781578063fbb759b4146107c9578063ff5cce97146107f3578063fffa87b81461080657600080fd5b8063dded339b14610735578063de9f5fed14610748578063f3f7f4521461076e57600080fd5b8063ba1cbe981461069b578063cd458662146106ae578063cdbd403e146106c1578063d50de22a146106d4578063d73b584a146106e7578063d88ad1e11461072257600080fd5b806389efbab1116101565780639beff3e3116101305780639beff3e31461064f578063a3b88aa014610662578063a4ff243a14610675578063b7c1d5271461068857600080fd5b806389efbab1146105f3578063936d6d2e1461061657806399a2a33f1461062957600080fd5b80636aa65aaf1461056a5780636c5d6df11461057d5780636d9bf95a1461059057806380d5b609146105c557806382bdfed5146105d85780638456cb59146105eb57600080fd5b806338b058521161025c57806357673717116102155780635f7f8b45116101ef5780635f7f8b451461051b5780635fee0bba1461052e5780636945c1fd1461054f5780636a5138d61461055757600080fd5b806357673717146104ed57806358e64897146105005780635c975abb1461051357600080fd5b806338b05852146104505780633d03b9da146104705780633f4ba83a146104855780634c60afc81461048d57806350e18701146104a05780635575c796146104c857600080fd5b80631f98a420116102c957806329d6dd13116102a357806329d6dd13146103ff5780632af64bd3146104225780632bfa7c131461042a578063381e93441461043d57600080fd5b80631f98a420146103b0578063261cc1b2146103d157806329985e5a146103f557600080fd5b806304f3bcec14610311578063128e5b85146103365780631316529d1461034c57806313a4451c1461035357806315a46bb3146103865780631e250317146103a8575b600080fd5b610319610819565b6040516001600160a01b0390911681526020015b60405180910390f35b61033e610832565b60405190815260200161032d565b600361033e565b6103666103613660046127d1565b610845565b60408051948552602085019390935291830152606082015260800161032d565b610399610394366004612817565b6108e3565b60405161032d9392919061289c565b61033e610abf565b6103c36103be3660046128e3565b610ad2565b60405161032d92919061293b565b6103e46103df3660046128e3565b610b5a565b60405161032d959493929190612965565b6103fd610c61565b005b61041261040d3660046128e3565b610dde565b604051901515815260200161032d565b610412610e5e565b61033e6104383660046128e3565b610f90565b61041261044b3660046128e3565b61100a565b61046361045e36600461299f565b611047565b60405161032d9190612a14565b6104786110cf565b60405161032d9190612a27565b6103fd611161565b61036661049b366004612a6b565b6111a4565b6104b36104ae3660046128e3565b61124b565b6040805192835260208301919091520161032d565b6104db6104d6366004612aac565b6112c5565b60405160ff909116815260200161032d565b6104636104fb36600461299f565b61138a565b61033e61050e3660046128e3565b6113c6565b610412611403565b61033e6105293660046128e3565b611416565b61054161053c3660046127d1565b611453565b60405161032d929190612b10565b61033e6114ed565b6104126105653660046128e3565b6114fd565b6103fd610578366004612b3e565b61153a565b6103fd61058b366004612b3e565b6115da565b6105a361059e366004612b3e565b61164b565b604080518251815260208084015190820152918101519082015260600161032d565b6103666105d33660046128e3565b6116b1565b6104126105e63660046128e3565b611740565b6103fd61177d565b610606610601366004612b57565b6117be565b60405161032d9493929190612b8c565b61033e6106243660046128e3565b611851565b7f000000000000000000000000000000000000000000000000000000000000000061033e565b6103fd61065d366004612bd7565b61187a565b61033e610670366004612c07565b61192c565b61033e6106833660046128e3565b6119ac565b6103fd610696366004612c33565b6119d2565b6106066106a9366004612b57565b611c2b565b6104636106bc36600461299f565b611c7d565b6103fd6106cf366004612c6e565b611cb9565b6103666106e2366004612cc9565b611d98565b6106fa6106f5366004612cf9565b611dd9565b604080519586526020860194909452928401919091526060830152608082015260a00161032d565b610399610730366004612c6e565b611e74565b6103666107433660046128e3565b61204a565b61075b610756366004612d53565b61208d565b60405161032d9796959493929190612da3565b6103fd61077c366004612dec565b612138565b61079461078f3660046127d1565b6122a0565b604080519788526020880196909652948601939093526060850191909152608084015260a083015260c082015260e00161032d565b6107dc6107d73660046128e3565b612369565b60405165ffffffffffff909116815260200161032d565b6105416108013660046127d1565b6123e2565b6104126108143660046128e3565b612433565b6000610823612472565b546001600160a01b0316919050565b600061083c6124a0565b60020154905090565b6040516304e9114760e21b815260ff831660048201526001600160a01b038216602482015260009081908190819073__$62400fcf056c2b33063fc11a9740c72847$__906313a4451c90604401608060405180830381865af41580156108af573d6000803e3d6000fd5b505050506040513d601f19601f820116820180604052508101906108d39190612e37565b9299919850965090945092505050565b61090e6040518060800160405280600081526020016000815260200160008152602001600081525090565b610916612771565b60006109206124ce565b610928612516565b6001600160a01b0316336001600160a01b03161461096257604051637b3f42c160e01b815260040161095990612e6d565b60405180910390fd5b8661096c816114fd565b6109895760405163627524cd60e01b815260040160405180910390fd5b73__$61caf4c2bb53b95485f5a2f3428ccc66af$__63ad89fe1a898989896109af612540565b6001600160a01b0316631c637a046109c56124a0565b5460405160e083901b6001600160e01b031916815260048101919091527f00000000000000000000000000000000000000000000000000000000000000006024820152604401602060405180830381865afa158015610a28573d6000803e3d6000fd5b505050506040513d601f19601f82011682018060405250810190610a4c9190612e9e565b6040518663ffffffff1660e01b8152600401610a6c959493929190612eb7565b61012060405180830381865af4158015610a8a573d6000803e3d6000fd5b505050506040513d601f19601f82011682018060405250810190610aae9190612fbb565b935093509350509450945094915050565b6000610ac96124a0565b60030154905090565b60405162fcc52160e51b815260ff8216600482015260609060009073__$ddd2182d6f392994445e6b8b482a37128a$__90631f98a42090602401600060405180830381865af4158015610b29573d6000803e3d6000fd5b505050506040513d6000823e601f3d908101601f19168201604052610b5191908101906130bc565b91509150915091565b6000806000610b67612771565b610b6f612771565b610b776124ce565b610b7f612516565b6001600160a01b0316336001600160a01b031614610bb057604051637b3f42c160e01b815260040161095990612e6d565b85610bba8161100a565b610bd75760405163ad668d2560e01b815260040160405180910390fd5b60405163130e60d960e11b815260ff8816600482015273__$ddd2182d6f392994445e6b8b482a37128a$__9063261cc1b29060240161016060405180830381865af4158015610c2a573d6000803e3d6000fd5b505050506040513d601f19601f82011682018060405250810190610c4e9190613103565b939b929a50909850965090945092505050565b6000610c6b6110cf565b905060005b8151811015610dda576000828281518110610c8d57610c8d613156565b602002602001015190506000610ca1612472565b54604080517f5265736f6c766572206d697373696e67207461726765743a200000000000000060208201526039808201869052825180830390910181526059820192839052636795dbcd60e01b9092526001600160a01b0390921691636795dbcd91610d1291869190605d016131b2565b602060405180830381865afa158015610d2f573d6000803e3d6000fd5b505050506040513d601f19601f82011682018060405250810190610d5391906131cb565b905080610d5e612472565b6000848152600191909101602090815260409182902080546001600160a01b0319166001600160a01b039485161790558151858152928416908301527f88a93678a3692f6789d9546fc621bf7234b101ddb7d4fe479455112831b8aa68910160405180910390a150508080610dd2906131fe565b915050610c70565b5050565b6040516329d6dd1360e01b815260ff8216600482015260009073__$ddd2182d6f392994445e6b8b482a37128a$__906329d6dd13906024015b602060405180830381865af4158015610e34573d6000803e3d6000fd5b505050506040513d601f19601f82011682018060405250810190610e58919061322c565b92915050565b600080610e696110cf565b905060005b8151811015610f87576000828281518110610e8b57610e8b613156565b60200260200101519050610e9d612472565b600082815260019190910160205260409020546001600160a01b0316610ec1612472565b546040516321f8a72160e01b8152600481018490526001600160a01b03909116906321f8a72190602401602060405180830381865afa158015610f08573d6000803e3d6000fd5b505050506040513d601f19601f82011682018060405250810190610f2c91906131cb565b6001600160a01b0316141580610f6557506000610f47612472565b600083815260019190910160205260409020546001600160a01b0316145b15610f74576000935050505090565b5080610f7f816131fe565b915050610e6e565b50600191505090565b604051632bfa7c1360e01b815260ff8216600482015260009073__$ddd2182d6f392994445e6b8b482a37128a$__90632bfa7c13906024015b602060405180830381865af4158015610fe6573d6000803e3d6000fd5b505050506040513d601f19601f82011682018060405250810190610e589190612e9e565b604051630e07a4d160e21b815260ff8216600482015260009073__$ddd2182d6f392994445e6b8b482a37128a$__9063381e934490602401610e17565b604051631c582c2960e11b815260609073__$ddd2182d6f392994445e6b8b482a37128a$__906338b05852906110839086908690600401613247565b600060405180830381865af41580156110a0573d6000803e3d6000fd5b505050506040513d6000823e601f3d908101601f191682016040526110c89190810190613284565b9392505050565b60408051600280825260608083018452926020830190803683370190505090507121bab93932b731bca1b7b73a3937b63632b960711b8160008151811061111857611118613156565b602002602001018181525050762632b73234b733a6b0b935b2ba21b7b73a3937b63632b960491b8160018151811061115257611152613156565b60200260200101818152505090565b611169612516565b6001600160a01b0316336001600160a01b03161461119a57604051637b3f42c160e01b815260040161095990612e6d565b6111a261254a565b565b60405163098c15f960e31b815260ff841660048201526001600160a01b03831660248201526044810182905260009081908190819073__$62400fcf056c2b33063fc11a9740c72847$__90634c60afc8906064015b608060405180830381865af4158015611216573d6000803e3d6000fd5b505050506040513d601f19601f8201168201806040525081019061123a9190612e37565b935093509350935093509350935093565b6040516350e1870160e01b815260ff82166004820152600090819073__$ddd2182d6f392994445e6b8b482a37128a$__906350e18701906024016040805180830381865af41580156112a1573d6000803e3d6000fd5b505050506040513d601f19601f82011682018060405250810190610b5191906132b9565b60006112cf612516565b6001600160a01b0316336001600160a01b03161461130057604051637b3f42c160e01b815260040161095990612e6d565b604051632abae3cb60e11b815260048101859052602481018490526044810183905273__$ddd2182d6f392994445e6b8b482a37128a$__90635575c79690606401602060405180830381865af415801561135e573d6000803e3d6000fd5b505050506040513d601f19601f8201168201806040525081019061138291906132dd565b949350505050565b604051635767371760e01b815260609073__$ddd2182d6f392994445e6b8b482a37128a$__906357673717906110839086908690600401613247565b6040516358e6489760e01b815260ff8216600482015260009073__$ddd2182d6f392994445e6b8b482a37128a$__906358e6489790602401610fc9565b600061140d6125ab565b5460ff16919050565b604051635f7f8b4560e01b815260ff8216600482015260009073__$ddd2182d6f392994445e6b8b482a37128a$__90635f7f8b4590602401610fc9565b604051632ff705dd60e11b815260ff831660048201526001600160a01b0382166024820152606090819073__$62400fcf056c2b33063fc11a9740c72847$__90635fee0bba906044015b600060405180830381865af41580156114ba573d6000803e3d6000fd5b505050506040513d6000823e601f3d908101601f191682016040526114e2919081019061335e565b915091509250929050565b60006114f76124a0565b54919050565b6040516335289c6b60e11b815260ff8216600482015260009073__$ddd2182d6f392994445e6b8b482a37128a$__90636a5138d690602401610e17565b611542612516565b6001600160a01b0316336001600160a01b03161461157357604051637b3f42c160e01b815260040161095990612e6d565b604051636aa65aaf60e01b81526004810182905273__$ddd2182d6f392994445e6b8b482a37128a$__90636aa65aaf906024015b60006040518083038186803b1580156115bf57600080fd5b505af41580156115d3573d6000803e3d6000fd5b5050505050565b6115e2612516565b6001600160a01b0316336001600160a01b03161461161357604051637b3f42c160e01b815260040161095990612e6d565b604051636c5d6df160e01b81526004810182905273__$ddd2182d6f392994445e6b8b482a37128a$__90636c5d6df1906024016115a7565b61166f60405180606001604052806000815260200160008152602001600081525090565b6116776124a0565b6000928352600601602090815260409283902083516060810185528154815260018201549281019290925260020154928101929092525090565b6040516380d5b60960e01b815260ff8216600482015260009081908190819073__$ddd2182d6f392994445e6b8b482a37128a$__906380d5b609906024015b608060405180830381865af415801561170d573d6000803e3d6000fd5b505050506040513d601f19601f820116820180604052508101906117319190612e37565b93509350935093509193509193565b6040516382bdfed560e01b815260ff8216600482015260009073__$ddd2182d6f392994445e6b8b482a37128a$__906382bdfed590602401610e17565b611785612516565b6001600160a01b0316336001600160a01b0316146117b657604051637b3f42c160e01b815260040161095990612e6d565b6111a26125d9565b6040516389efbab160e01b815260ff8416600482015260248101839052604481018290526060908190819060009073__$ddd2182d6f392994445e6b8b482a37128a$__906389efbab1906064015b600060405180830381865af4158015611829573d6000803e3d6000fd5b505050506040513d6000823e601f3d908101601f1916820160405261123a91908101906133c2565b600061185b6124a0565b60ff909216600090815260049290920160205250604090206001015490565b611882612516565b6001600160a01b0316336001600160a01b0316146118b357604051637b3f42c160e01b815260040161095990612e6d565b604051639beff3e360e01b815260ff8085166004830152831660248201526044810182905273__$ddd2182d6f392994445e6b8b482a37128a$__90639beff3e39060640160006040518083038186803b15801561190f57600080fd5b505af4158015611923573d6000803e3d6000fd5b50505050505050565b60405163051dc45560e51b815260ff831660048201526024810182905260009073__$ddd2182d6f392994445e6b8b482a37128a$__9063a3b88aa090604401602060405180830381865af4158015611988573d6000803e3d6000fd5b505050506040513d601f19601f820116820180604052508101906110c89190612e9e565b60006119b66124a0565b60ff909216600090815260049290920160205250604090205490565b600054610100900460ff16158080156119f25750600054600160ff909116105b80611a0c5750303b158015611a0c575060005460ff166001145b611a6f5760405162461bcd60e51b815260206004820152602e60248201527f496e697469616c697a61626c653a20636f6e747261637420697320616c72656160448201526d191e481a5b9a5d1a585b1a5e995960921b6064820152608401610959565b6000805460ff191660011790558015611a92576000805461ff0019166101001790555b6000611a9c612621565b6001600160a01b031603611afe5760405162461bcd60e51b815260206004820152602360248201527f4d7573742062652063616c6c65642066726f6d20626561636f6e20636f6e74726044820152621858dd60ea1b6064820152608401610959565b611b0785612649565b83611b106124a0565b55604051636aa65aaf60e01b81526004810184905273__$ddd2182d6f392994445e6b8b482a37128a$__90636aa65aaf9060240160006040518083038186803b158015611b5c57600080fd5b505af4158015611b70573d6000803e3d6000fd5b5050604051636c5d6df160e01b81526004810185905273__$ddd2182d6f392994445e6b8b482a37128a$__9250636c5d6df1915060240160006040518083038186803b158015611bbf57600080fd5b505af4158015611bd3573d6000803e3d6000fd5b50505050611bdf610c61565b80156115d3576000805461ff0019169055604051600181527f7f26b83ff96e1f2b6a682f133852f6798a09c465da95921460cefb38474024989060200160405180910390a15050505050565b60405163174397d360e31b815260ff8416600482015260248101839052604481018290526060908190819060009073__$ddd2182d6f392994445e6b8b482a37128a$__9063ba1cbe989060640161180c565b6040516366a2c33160e11b815260609073__$ddd2182d6f392994445e6b8b482a37128a$__9063cd458662906110839086908690600401613247565b611cc16124ce565b611cc9612516565b6001600160a01b0316336001600160a01b031614611cfa57604051637b3f42c160e01b815260040161095990612e6d565b84611d0481612433565b611d21576040516336b3c46360e21b815260040160405180910390fd5b60405163ed94d50f60e01b815273__$61caf4c2bb53b95485f5a2f3428ccc66af$__9063ed94d50f90611d609089908990899089908990600401612eb7565b60006040518083038186803b158015611d7857600080fd5b505af4158015611d8c573d6000803e3d6000fd5b50505050505050505050565b60008060008073__$62400fcf056c2b33063fc11a9740c72847$__637ce518618888886040518463ffffffff1660e01b81526004016111f993929190613452565b600080600080600073__$62400fcf056c2b33063fc11a9740c72847$__634a864e228a8a8a8a6040518563ffffffff1660e01b8152600401611e1e9493929190613477565b60a060405180830381865af4158015611e3b573d6000803e3d6000fd5b505050506040513d601f19601f82011682018060405250810190611e5f91906134a0565b94509450945094509450945094509450945094565b611e9f6040518060800160405280600081526020016000815260200160008152602001600081525090565b611ea7612771565b6000611eb16124ce565b611eb9612516565b6001600160a01b0316336001600160a01b031614611eea57604051637b3f42c160e01b815260040161095990612e6d565b87611ef4816114fd565b611f115760405163627524cd60e01b815260040160405180910390fd5b73__$61caf4c2bb53b95485f5a2f3428ccc66af$__63447265be8a8a8a8a8a611f38612540565b6001600160a01b0316631c637a04611f4e6124a0565b5460405160e083901b6001600160e01b031916815260048101919091527f00000000000000000000000000000000000000000000000000000000000000006024820152604401602060405180830381865afa158015611fb1573d6000803e3d6000fd5b505050506040513d601f19601f82011682018060405250810190611fd59190612e9e565b6040518763ffffffff1660e01b8152600401611ff6969594939291906134e0565b61012060405180830381865af4158015612014573d6000803e3d6000fd5b505050506040513d601f19601f820116820180604052508101906120389190612fbb565b93509350935050955095509592505050565b60405163dded339b60e01b815260ff8216600482015260009081908190819073__$ddd2182d6f392994445e6b8b482a37128a$__9063dded339b906024016116f0565b60405163de9f5fed60e01b815260ff8316600482015265ffffffffffff8216602482015260009081908190819081908190819073__$62400fcf056c2b33063fc11a9740c72847$__9063de9f5fed9060440160e060405180830381865af41580156120fc573d6000803e3d6000fd5b505050506040513d601f19601f820116820180604052508101906121209190613524565b959f949e50929c50909a509850965090945092505050565b6121406124ce565b612148612516565b6001600160a01b0316336001600160a01b03161461217957604051637b3f42c160e01b815260040161095990612e6d565b8282826000612188848361208d565b50919550506001600160a01b03851693506121ba925050505760405163cf3c6cab60e01b815260040160405180910390fd5b806001600160a01b0316836001600160a01b0316146121ec5760405163a512216b60e01b815260040160405180910390fd5b866121f68161100a565b156122145760405163e622d7f560e01b815260040160405180910390fd5b6040516379fbfa2960e11b815260ff891660048201526001600160a01b038816602482015265ffffffffffff8716604482015273__$61caf4c2bb53b95485f5a2f3428ccc66af$__9063f3f7f4529060640160006040518083038186803b15801561227e57600080fd5b505af4158015612292573d6000803e3d6000fd5b505050505050505050505050565b60008060008060008060006122b3612516565b6001600160a01b0316336001600160a01b0316146122e457604051637b3f42c160e01b815260040161095990612e6d565b604051630f506ad360e41b815260ff8a1660048201526001600160a01b038916602482015273__$61caf4c2bb53b95485f5a2f3428ccc66af$__9063f506ad309060440160e060405180830381865af4158015612345573d6000803e3d6000fd5b505050506040513d601f19601f820116820180604052508101906121209190613595565b604051633eedd66d60e21b815260ff8216600482015260009073__$ddd2182d6f392994445e6b8b482a37128a$__9063fbb759b490602401602060405180830381865af41580156123be573d6000803e3d6000fd5b505050506040513d601f19601f82011682018060405250810190610e5891906135e9565b604051600162a3316960e01b0319815260ff831660048201526001600160a01b0382166024820152606090819073__$62400fcf056c2b33063fc11a9740c72847$__9063ff5cce979060440161149d565b604051600161af0960e31b0319815260ff8216600482015260009073__$ddd2182d6f392994445e6b8b482a37128a$__9063fffa87b890602401610e17565b600080610e5860017f4abde63c3e81aefa5764b017968bc473e83e093d7e1a10247d19e0a3e4124018613606565b600080610e5860017ffc2836757f9146445fc75bc3c897a210ec004e4ee60fc8627ef5cbf2842b3d0a613606565b6124d6611403565b156111a25760405162461bcd60e51b815260206004820152601060248201526f14185d5cd8589b194e881c185d5cd95960821b6044820152606401610959565b600061253b762632b73234b733a6b0b935b2ba21b7b73a3937b63632b960491b6126a5565b905090565b600061253b612706565b612552612726565b600061255c6125ab565b805460ff19169115159190911790557f5db9ee0a495bf2e6ff9c91a7834c1ba4fdd244a5e8aa4e537bd38aeae4b073aa335b6040516001600160a01b03909116815260200160405180910390a1565b600080610e5860017f9c789132bdb3678132848a8dcd780bffd2b1abdce3984c522ac1d8aeb48f05f3613606565b6125e16124ce565b60016125eb6125ab565b805460ff19169115159190911790557f62e78cea01bee320cd4e420270b5ea74000d11b0c9f74754ebdbfc544b05a2583361258e565b60007fa3f0ad74e5423aebfd80d3ef4346578335a9a72aeaee59ff6cb3582b35133d50610823565b6000612653612472565b546001600160a01b03161461267b576040516304b79d6360e51b815260040160405180910390fd5b80612684612472565b80546001600160a01b0319166001600160a01b039290921691909117905550565b6000806126b0612472565b600084815260019190910160205260409020546001600160a01b0316905080610e585760408051602081018590520160408051601f19818403018152908290526346e2ec9360e01b825261095991600401613619565b600061253b7121bab93932b731bca1b7b73a3937b63632b960711b6126a5565b61272e611403565b6111a25760405162461bcd60e51b815260206004820152601460248201527314185d5cd8589b194e881b9bdd081c185d5cd95960621b6044820152606401610959565b6040518060800160405280600065ffffffffffff16815260200160006001600160a01b0316815260200160008152602001600081525090565b60ff811681146127b957600080fd5b50565b6001600160a01b03811681146127b957600080fd5b600080604083850312156127e457600080fd5b82356127ef816127aa565b915060208301356127ff816127bc565b809150509250929050565b600281106127b957600080fd5b6000806000806080858703121561282d57600080fd5b8435612838816127aa565b935060208501356128488161280a565b92506040850135612858816127bc565b9396929550929360600135925050565b805165ffffffffffff1682526020808201516001600160a01b03169083015260408082015190830152606090810151910152565b600061012082019050845182526020850151602083015260408501516040830152606085015160608301526128d46080830185612868565b82610100830152949350505050565b6000602082840312156128f557600080fd5b81356110c8816127aa565b600081518084526020808501945080840160005b8381101561293057815187529582019590820190600101612914565b509495945050505050565b60408152600061294e6040830185612900565b905065ffffffffffff831660208301529392505050565b858152602081018590526040810184905261016081016129886060830185612868565b61299560e0830184612868565b9695505050505050565b600080602083850312156129b257600080fd5b823567ffffffffffffffff808211156129ca57600080fd5b818501915085601f8301126129de57600080fd5b8135818111156129ed57600080fd5b8660208260051b8501011115612a0257600080fd5b60209290920196919550909350505050565b6020815260006110c86020830184612900565b6020808252825182820181905260009190848201906040850190845b81811015612a5f57835183529284019291840191600101612a43565b50909695505050505050565b600080600060608486031215612a8057600080fd5b8335612a8b816127aa565b92506020840135612a9b816127bc565b929592945050506040919091013590565b600080600060608486031215612ac157600080fd5b505081359360208301359350604090920135919050565b600081518084526020808501945080840160005b8381101561293057815165ffffffffffff1687529582019590820190600101612aec565b604081526000612b236040830185612ad8565b8281036020840152612b358185612ad8565b95945050505050565b600060208284031215612b5057600080fd5b5035919050565b600080600060608486031215612b6c57600080fd5b8335612b77816127aa565b95602085013595506040909401359392505050565b608081526000612b9f6080830187612900565b8281036020840152612bb18187612900565b90508281036040840152612bc58186612900565b91505082606083015295945050505050565b600080600060608486031215612bec57600080fd5b8335612bf7816127aa565b92506020840135612a9b816127aa565b60008060408385031215612c1a57600080fd5b8235612c25816127aa565b946020939093013593505050565b60008060008060808587031215612c4957600080fd5b8435612c54816127bc565b966020860135965060408601359560600135945092505050565b600080600080600060a08688031215612c8657600080fd5b8535612c91816127aa565b94506020860135612ca18161280a565b93506040860135612cb1816127bc565b94979396509394606081013594506080013592915050565b600080600060608486031215612cde57600080fd5b8335612ce9816127aa565b92506020840135612a9b8161280a565b60008060008060808587031215612d0f57600080fd5b8435612d1a816127aa565b93506020850135612d2a8161280a565b93969395505050506040820135916060013590565b65ffffffffffff811681146127b957600080fd5b60008060408385031215612d6657600080fd5b8235612d71816127aa565b915060208301356127ff81612d3f565b60028110612d9f57634e487b7160e01b600052602160045260246000fd5b9052565b60e08101612db1828a612d81565b602082019790975260408101959095526001600160a01b03939093166060850152608084019190915260a0830152151560c090910152919050565b600080600060608486031215612e0157600080fd5b8335612e0c816127aa565b92506020840135612e1c816127bc565b91506040840135612e2c81612d3f565b809150509250925092565b60008060008060808587031215612e4d57600080fd5b505082516020840151604085015160609095015191969095509092509050565b6020808252601790820152762632b73234b733a6b0b935b2ba21b7b73a3937b63632b960491b604082015260600190565b600060208284031215612eb057600080fd5b5051919050565b60ff8616815260a08101612ece6020830187612d81565b6001600160a01b03949094166040820152606081019290925260809091015292915050565b634e487b7160e01b600052604160045260246000fd5b6040516080810167ffffffffffffffff81118282101715612f2c57612f2c612ef3565b60405290565b604051601f8201601f1916810167ffffffffffffffff81118282101715612f5b57612f5b612ef3565b604052919050565b600060808284031215612f7557600080fd5b612f7d612f09565b90508151612f8a81612d3f565b81526020820151612f9a816127bc565b80602083015250604082015160408201526060820151606082015292915050565b6000806000838503610120811215612fd257600080fd5b6080811215612fe057600080fd5b50612fe9612f09565b845181526020850151602082015260408501516040820152606085015160608201528093505061301c8560808601612f63565b915061010084015190509250925092565b600067ffffffffffffffff82111561304757613047612ef3565b5060051b60200190565b600082601f83011261306257600080fd5b815160206130776130728361302d565b612f32565b82815260059290921b8401810191818101908684111561309657600080fd5b8286015b848110156130b1578051835291830191830161309a565b509695505050505050565b600080604083850312156130cf57600080fd5b825167ffffffffffffffff8111156130e657600080fd5b6130f285828601613051565b92505060208301516127ff81612d3f565b6000806000806000610160868803121561311c57600080fd5b85519450602086015193506040860151925061313b8760608801612f63565b915061314a8760e08801612f63565b90509295509295909350565b634e487b7160e01b600052603260045260246000fd5b6000815180845260005b8181101561319257602081850181015186830182015201613176565b506000602082860101526020601f19601f83011685010191505092915050565b828152604060208201526000611382604083018461316c565b6000602082840312156131dd57600080fd5b81516110c8816127bc565b634e487b7160e01b600052601160045260246000fd5b600060018201613210576132106131e8565b5060010190565b8051801515811461322757600080fd5b919050565b60006020828403121561323e57600080fd5b6110c882613217565b60208082528181018390526000908460408401835b868110156130b157823561326f816127aa565b60ff168252918301919083019060010161325c565b60006020828403121561329657600080fd5b815167ffffffffffffffff8111156132ad57600080fd5b61138284828501613051565b600080604083850312156132cc57600080fd5b505080516020909101519092909150565b6000602082840312156132ef57600080fd5b81516110c8816127aa565b600082601f83011261330b57600080fd5b8151602061331b6130728361302d565b82815260059290921b8401810191818101908684111561333a57600080fd5b8286015b848110156130b157805161335181612d3f565b835291830191830161333e565b6000806040838503121561337157600080fd5b825167ffffffffffffffff8082111561338957600080fd5b613395868387016132fa565b935060208501519150808211156133ab57600080fd5b506133b8858286016132fa565b9150509250929050565b600080600080608085870312156133d857600080fd5b845167ffffffffffffffff808211156133f057600080fd5b6133fc88838901613051565b9550602087015191508082111561341257600080fd5b61341e88838901613051565b9450604087015191508082111561343457600080fd5b5061344187828801613051565b606096909601519497939650505050565b60ff84168152606081016134696020830185612d81565b826040830152949350505050565b60ff851681526080810161348e6020830186612d81565b60408201939093526060015292915050565b600080600080600060a086880312156134b857600080fd5b5050835160208501516040860151606087015160809097015192989197509594509092509050565b60ff8716815260c081016134f76020830188612d81565b6001600160a01b039590951660408201526060810193909352608083019190915260a09091015292915050565b600080600080600080600060e0888a03121561353f57600080fd5b875161354a8161280a565b809750506020880151955060408801519450606088015161356a816127bc565b608089015160a08a01519195509350915061358760c08901613217565b905092959891949750929550565b600080600080600080600060e0888a0312156135b057600080fd5b5050855160208701516040880151606089015160808a015160a08b015160c0909b0151949c939b50919990985090965094509092509050565b6000602082840312156135fb57600080fd5b81516110c881612d3f565b81810381811115610e5857610e586131e8565b6020815260006110c8602083018461316c56fea2646970667358221220b9db55a38df0e50454f443d6e64df8e65ab10fea92c09f64cb274315ce78d48a64736f6c63430008130033",
  "libraries": {
    "OrderActionLogic": "0xD84BDEeb9D147Ca3FF4b3fAa59857CcE16ac740a",
    "OrderReaderLogic": "0xF87De2964D4F5Fb1351FF3Dab5e357750E106943",
    "OrderBookLogic": "0xE4b99030fD0F109f40E2ad1d5932E61A4Ed97aB8"
  },
  "devdoc": {
    "details": "Open orders is stored in structured red-black trees and doubly linked lists in each node.",
    "events": {
      "Initialized(uint8)": {
        "details": "Triggered when the contract has been initialized or reinitialized."
      },
      "Paused(address)": {
        "details": "Emitted when the pause is triggered by `account`."
      },
      "Unpaused(address)": {
        "details": "Emitted when the pause is lifted by `account`."
      }
    },
    "kind": "dev",
    "methods": {
      "calculateFilledAmount(uint8,uint8,uint256,uint256)": {
        "params": {
          "_amount": "Amount of funds the user wants to borrow/lend",
          "_orderBookId": "The order book id",
          "_side": "Order position type, Borrow or Lend",
          "_unitPrice": "Unit price user want to borrow/lend"
        },
        "returns": {
          "filledAmount": "The amount that is filled on the order book",
          "filledAmountInFV": "The amount in the future value that is filled on the order book",
          "lastUnitPrice": "The last unit price that is filled on the order book",
          "orderFeeInFV": "The order fee amount in the future value",
          "placedAmount": "The amount that is placed to the order book"
        }
      },
      "calculateFilledAmountFromFV(uint8,uint8,uint256)": {
        "params": {
          "_amountInFV": "Amount of funds the user wants to borrow/lend in future value",
          "_orderBookId": "The order book id",
          "_side": "Order position type, Borrow or Lend"
        },
        "returns": {
          "filledAmount": "The amount that is filled on the order book",
          "filledAmountInFV": "The amount in the future value that is filled on the order book",
          "lastUnitPrice": "The last unit price that is filled on the order book",
          "orderFeeInFV": "The order fee amount in the future value"
        }
      },
      "cancelOrder(uint8,address,uint48)": {
        "params": {
          "_orderBookId": "The order book id",
          "_orderId": "Market order id",
          "_user": "User address"
        }
      },
      "cleanUpOrders(uint8,address)": {
        "details": "The order list per user is not updated in real-time when an order is filled. This function removes the filled order from that order list per user to reduce gas costs for lazy evaluation if the collateral is enough or not.",
        "params": {
          "_user": "User address"
        },
        "returns": {
          "activeBorrowOrderCount": "The total amount of active borrow order on the order book",
          "activeLendOrderCount": "The total amount of active lend order on the order book",
          "maturity": "The maturity of the removed orders",
          "removedBorrowOrderAmount": "The total PV amount of the removed borrow order amount from the order book",
          "removedBorrowOrderFutureValue": "The total FV amount of the removed borrow order amount from the order book",
          "removedLendOrderAmount": "The total PV amount of the removed lend order amount from the order book",
          "removedLendOrderFutureValue": "The total FV amount of the removed lend order amount from the order book"
        }
      },
      "constructor": {
        "params": {
          "_minimumReliableAmount": "The minimum reliable amount the base currency for calculating block unit price"
        }
      },
      "createOrderBook(uint256,uint256,uint256)": {
        "params": {
          "_maturity": "The initial maturity of the order book",
          "_openingDate": "The timestamp when the order book opens",
          "_preOpeningDate": "The timestamp when the order book pre-opens"
        }
      },
      "executeItayoseCall(uint8)": {
        "details": "If the opening date had already passed when this contract was created, this Itayose need not be executed.",
        "params": {
          "_orderBookId": "The order book id"
        },
        "returns": {
          "openingDate": "The timestamp when the market opens",
          "openingUnitPrice": "The opening price when Itayose is executed",
          "partiallyFilledBorrowingOrder": "Partially filled borrowing order on the order book",
          "partiallyFilledLendingOrder": "Partially filled lending order on the order book",
          "totalOffsetAmount": "The total filled amount when Itayose is executed"
        }
      },
      "executeOrder(uint8,uint8,address,uint256,uint256)": {
        "params": {
          "_amount": "Amount of funds the user wants to borrow/lend",
          "_orderBookId": "The order book id",
          "_side": "Order position type, Borrow or Lend",
          "_unitPrice": "Unit price user wish to borrow/lend",
          "_user": "User's address"
        },
        "returns": {
          "filledOrder": "User's Filled order of the user",
          "partiallyFilledOrder": "Partially filled order on the order book"
        }
      },
      "executePreOrder(uint8,uint8,address,uint256,uint256)": {
        "params": {
          "_amount": "Amount of funds the maker wants to borrow/lend",
          "_orderBookId": "The order book id",
          "_side": "Order position type, Borrow or Lend",
          "_unitPrice": "Unit price taker wish to borrow/lend"
        }
      },
      "getBestBorrowUnitPrice(uint8)": {
        "params": {
          "_orderBookId": "The order book id"
        },
        "returns": {
          "_0": "The best price for borrowing"
        }
      },
      "getBestBorrowUnitPrices(uint8[])": {
        "returns": {
          "_0": "The array of the best price for borrowing"
        }
      },
      "getBestLendUnitPrice(uint8)": {
        "params": {
          "_orderBookId": "The order book id"
        },
        "returns": {
          "_0": "The best price for lending"
        }
      },
      "getBestLendUnitPrices(uint8[])": {
        "returns": {
          "_0": "The array of the best price for lending"
        }
      },
      "getBlockUnitPriceAverage(uint8,uint256)": {
        "params": {
          "_count": "Count of data used for averaging",
          "_orderBookId": "The order book id"
        },
        "returns": {
          "_0": "The block unit price average"
        }
      },
      "getBlockUnitPriceHistory(uint8)": {
        "params": {
          "_orderBookId": "The order book id"
        },
        "returns": {
          "timestamp": "Timestamp of the last block unit price",
          "unitPrices": "The array of the block unit price"
        }
      },
      "getBorrowOrderBook(uint8,uint256,uint256)": {
        "params": {
          "_limit": "The max limit for getting unit prices",
          "_orderBookId": "The order book id",
          "_start": "The starting unit price to get order book"
        },
        "returns": {
          "amounts": "The array of order amounts",
          "next": "The next starting unit price to get order book",
          "quantities": "The array of order quantities",
          "unitPrices": "The array of order unit prices"
        }
      },
      "getBorrowOrderIds(uint8,address)": {
        "params": {
          "_orderBookId": "The order book id",
          "_user": "User's address"
        }
      },
      "getCircuitBreakerLimitRange()": {
        "returns": {
          "_0": "The limit range in unit price for the circuit breaker"
        }
      },
      "getCircuitBreakerThresholds(uint8)": {
        "params": {
          "_orderBookId": "The order book id"
        },
        "returns": {
          "maxLendUnitPrice": "The maximum unit price for lending",
          "minBorrowUnitPrice": "The minimum unit price for borrowing"
        }
      },
      "getCurrency()": {
        "returns": {
          "currency": "The market currency"
        }
      },
      "getItayoseEstimation(uint8)": {
        "params": {
          "_orderBookId": "The order book id"
        },
        "returns": {
          "lastBorrowUnitPrice": "The price of the last borrow order filled by Itayose.",
          "lastLendUnitPrice": "The price of the last lend order filled by Itayose.",
          "openingUnitPrice": "The opening price when Itayose is executed",
          "totalOffsetAmount": "The total amount of the orders filled by Itayose."
        }
      },
      "getItayoseLog(uint256)": {
        "params": {
          "_maturity": "The market maturity"
        },
        "returns": {
          "_0": "ItayoseLog of the market"
        }
      },
      "getLastOrderTimestamp(uint8)": {
        "params": {
          "_orderBookId": "The order book id"
        },
        "returns": {
          "_0": "The block number"
        }
      },
      "getLendOrderBook(uint8,uint256,uint256)": {
        "params": {
          "_limit": "The max limit for getting unit prices",
          "_orderBookId": "The order book id",
          "_start": "The starting unit price to get order book"
        },
        "returns": {
          "amounts": "The array of order amounts",
          "next": "The next starting unit price to get order book",
          "quantities": "The array of order quantities",
          "unitPrices": "The array of order unit prices"
        }
      },
      "getLendOrderIds(uint8,address)": {
        "params": {
          "_orderBookId": "The order book id",
          "_user": "User's address"
        }
      },
      "getMarketUnitPrice(uint8)": {
        "params": {
          "_orderBookId": "The order book id"
        },
        "returns": {
          "_0": "The market unit price"
        }
      },
      "getMaturities(uint8[])": {
        "returns": {
          "maturities": "The array of maturity"
        }
      },
      "getMaturity(uint8)": {
        "params": {
          "_orderBookId": "The order book id"
        },
        "returns": {
          "maturity": "The market maturity"
        }
      },
      "getOpeningDate(uint8)": {
        "params": {
          "_orderBookId": "The order book id"
        },
        "returns": {
          "openingDate": "The market opening date"
        }
      },
      "getOrder(uint8,uint48)": {
        "params": {
          "_orderBookId": "The order book id",
          "_orderId": "The market order id"
        },
        "returns": {
          "amount": "Order amount",
          "isPreOrder": "The boolean if the order is a pre-order.",
          "maker": "The order maker",
          "maturity": "The maturity of the selected order",
          "side": "Order position type, Borrow or Lend",
          "timestamp": "Timestamp when the order was created",
          "unitPrice": "Amount of interest unit price"
        }
      },
      "getOrderBookDetail(uint8)": {
        "params": {
          "_orderBookId": "The order book id"
        },
        "returns": {
          "ccy": "The currency of the order book",
          "maturity": "The maturity of the order book",
          "openingDate": "The opening date of the order book",
          "preOpeningDate": "The pre-opening date of the order book"
        }
      },
      "getOrderFeeRate()": {
        "returns": {
          "_0": "The order fee rate received by protocol"
        }
      },
      "getRevision()": {
        "returns": {
          "_0": "The revision number"
        }
      },
      "getTotalAmountFromBorrowOrders(uint8,address,uint256)": {
        "params": {
          "_orderBookId": "The order book id",
          "_user": "User's address"
        },
        "returns": {
          "activeAmount": "The total amount of active order on the order book",
          "inactiveAmount": "The total amount of inactive orders filled on the order book",
          "inactiveFutureValue": "The total future value amount of inactive orders filled on the order book",
          "maturity": "The maturity of market that orders were placed."
        }
      },
      "getTotalAmountFromLendOrders(uint8,address)": {
        "params": {
          "_orderBookId": "The order book id",
          "_user": "User's address"
        },
        "returns": {
          "activeAmount": "The total amount of active order on the order book",
          "inactiveAmount": "The total amount of inactive orders filled on the order book",
          "inactiveFutureValue": "The total future value amount of inactive orders filled on the order book",
          "maturity": "The maturity of market that orders were placed."
        }
      },
      "initialize(address,bytes32,uint256,uint256)": {
        "details": "Function is invoked by the proxy contract when the contract is added to the ProxyController.",
        "params": {
          "_ccy": "The main currency for the order book",
          "_resolver": "The address of the Address Resolver contract"
        }
      },
      "isItayosePeriod(uint8)": {
        "params": {
          "_orderBookId": "The order book id"
        },
        "returns": {
          "_0": "The boolean if the market is under the Itayose period."
        }
      },
      "isMatured(uint8)": {
        "params": {
          "_orderBookId": "The order book id"
        },
        "returns": {
          "_0": "The boolean if the market is matured or not"
        }
      },
      "isOpened(uint8)": {
        "params": {
          "_orderBookId": "The order book id"
        },
        "returns": {
          "_0": "The boolean if the market is opened or not"
        }
      },
      "isPreOrderPeriod(uint8)": {
        "params": {
          "_orderBookId": "The order book id"
        },
        "returns": {
          "_0": "The boolean if the market is under the pre-order period."
        }
      },
      "isReady(uint8)": {
        "params": {
          "_orderBookId": "The order book id"
        },
        "returns": {
          "_0": "The boolean if the market is ready or not"
        }
      },
      "minimumReliableAmountInBaseCurrency()": {
        "returns": {
          "_0": "The minimum reliable amount in base currency"
        }
      },
      "paused()": {
        "details": "Returns true if the contract is paused, and false otherwise."
      },
      "requiredContracts()": {
        "details": "The contract name list is in `./libraries/Contracts.sol`."
      },
      "unwindPosition(uint8,uint8,address,uint256)": {
        "params": {
          "_futureValue": "Amount of future value unwound",
          "_orderBookId": "The order book id",
          "_side": "Order position type, Borrow or Lend",
          "_user": "User's address"
        },
        "returns": {
          "filledOrder": "User's Filled order of the user",
          "partiallyFilledOrder": "Partially filled order"
        }
      },
      "updateCircuitBreakerLimitRange(uint256)": {
        "params": {
          "_cbLimitRange": "The circuit breaker limit range"
        }
      },
      "updateOrderFeeRate(uint256)": {
        "params": {
          "_orderFeeRate": "The order fee rate received by protocol"
        }
      }
    },
    "stateVariables": {
      "MINIMUM_RELIABLE_AMOUNT_IN_BASE_CURRENCY": {
        "details": "Used for minimum reliable amount in base currency for block unit price"
      }
    },
    "version": 1
  },
  "userdoc": {
    "kind": "user",
    "methods": {
      "calculateFilledAmount(uint8,uint8,uint256,uint256)": {
        "notice": "Calculates the amount to be filled when executing an order in the order book."
      },
      "calculateFilledAmountFromFV(uint8,uint8,uint256)": {
        "notice": "Calculates the amount to be filled when executing an order in the order book from the future value."
      },
      "cancelOrder(uint8,address,uint48)": {
        "notice": "Cancels the order."
      },
      "cleanUpOrders(uint8,address)": {
        "notice": "Cleans up own orders to remove order ids that are already filled on the order book."
      },
      "constructor": {
        "notice": "Contract constructor function."
      },
      "createOrderBook(uint256,uint256,uint256)": {
        "notice": "Creates a new order book."
      },
      "executeItayoseCall(uint8)": {
        "notice": "Executes Itayose to aggregate pre-orders and determine the opening unit price. After this action, the market opens."
      },
      "executeOrder(uint8,uint8,address,uint256,uint256)": {
        "notice": "Executes an order. Takes orders if the order is matched, and places new order if not match it."
      },
      "executePreOrder(uint8,uint8,address,uint256,uint256)": {
        "notice": "Executes a pre-order. A pre-order will only be accepted from 168 hours (7 days) to 1 hour before the market opens (Pre-order period). At the end of this period, Itayose will be executed."
      },
      "getBestBorrowUnitPrice(uint8)": {
        "notice": "Gets the best price for borrowing."
      },
      "getBestBorrowUnitPrices(uint8[])": {
        "notice": "Gets the best prices for borrowing."
      },
      "getBestLendUnitPrice(uint8)": {
        "notice": "Gets the best price for lending."
      },
      "getBestLendUnitPrices(uint8[])": {
        "notice": "Gets the best prices for lending."
      },
      "getBlockUnitPriceAverage(uint8,uint256)": {
        "notice": "Gets the block unit price average."
      },
      "getBlockUnitPriceHistory(uint8)": {
        "notice": "Gets the block unit price history"
      },
      "getBorrowOrderBook(uint8,uint256,uint256)": {
        "notice": "Gets the order book of borrow orders. This function supports pagination. If a unit price is specified in `_start`, the orders are returned for the _limit from there. The unit price that can be set to `_start` of the next data fetching is set to the return value, `next`. If `_start` is 0, this function returns from the first order."
      },
      "getBorrowOrderIds(uint8,address)": {
        "notice": "Gets active and inactive order IDs in the borrowing order book."
      },
      "getCircuitBreakerLimitRange()": {
        "notice": "Gets the limit range in unit price for the circuit breaker"
      },
      "getCircuitBreakerThresholds(uint8)": {
        "notice": "Gets unit price Thresholds by CircuitBreaker."
      },
      "getCurrency()": {
        "notice": "Gets the market currency."
      },
      "getItayoseEstimation(uint8)": {
        "notice": "Gets the estimation of the Itayose process."
      },
      "getItayoseLog(uint256)": {
        "notice": "Gets the market itayose logs."
      },
      "getLastOrderTimestamp(uint8)": {
        "notice": "Gets the block timestamp of the last filled order."
      },
      "getLendOrderBook(uint8,uint256,uint256)": {
        "notice": "Gets the order book of lend orders. This function supports pagination. If a unit price is specified in `_start`, the orders are returned for the _limit from there. The unit price that can be set to `_start` of the next data fetching is set to the return value, `next`. If `_start` is 0, this function returns from the first order."
      },
      "getLendOrderIds(uint8,address)": {
        "notice": "Gets active and inactive order IDs in the lending order book."
      },
      "getMarketUnitPrice(uint8)": {
        "notice": "Gets the market unit price"
      },
      "getMaturities(uint8[])": {
        "notice": "Gets the order book maturities."
      },
      "getMaturity(uint8)": {
        "notice": "Gets the current market maturity."
      },
      "getOpeningDate(uint8)": {
        "notice": "Gets the market opening date."
      },
      "getOrder(uint8,uint48)": {
        "notice": "Gets the market order from the order book."
      },
      "getOrderBookDetail(uint8)": {
        "notice": "Gets the order book detail."
      },
      "getOrderFeeRate()": {
        "notice": "Gets the order fee rate"
      },
      "getRevision()": {
        "notice": "Gets the revision number of the contract"
      },
      "getTotalAmountFromBorrowOrders(uint8,address,uint256)": {
        "notice": "Calculates and gets the active and inactive amounts from the user orders of borrowing deals."
      },
      "getTotalAmountFromLendOrders(uint8,address)": {
        "notice": "Calculates and gets the active and inactive amounts from the user orders of lending deals."
      },
      "initialize(address,bytes32,uint256,uint256)": {
        "notice": "Initializes the contract."
      },
      "isItayosePeriod(uint8)": {
        "notice": "Gets if the market is under the Itayose period."
      },
      "isMatured(uint8)": {
        "notice": "Gets if the market is matured."
      },
      "isOpened(uint8)": {
        "notice": "Gets if the market is opened."
      },
      "isPreOrderPeriod(uint8)": {
        "notice": "Gets if the market is under the pre-order period."
      },
      "isReady(uint8)": {
        "notice": "Gets if the market is ready."
      },
      "minimumReliableAmountInBaseCurrency()": {
        "notice": "Gets the minimum reliable amount in base currency for calculating block unit price."
      },
      "pause()": {
        "notice": "Pauses the lending market."
      },
      "requiredContracts()": {
        "notice": "Returns the contract names used in this contract."
      },
      "unpause()": {
        "notice": "Unpauses the lending market."
      },
      "unwindPosition(uint8,uint8,address,uint256)": {
        "notice": "Unwinds lending or borrowing positions by a specified future value amount."
      },
      "updateCircuitBreakerLimitRange(uint256)": {
        "notice": "Updates the auto-roll fee rate"
      },
      "updateOrderFeeRate(uint256)": {
        "notice": "Updates the order fee rate"
      }
    },
    "notice": "Implements the module that allows order book participants to execute/cancel/unwind orders. For updates, this contract is basically called from `LendingMarketController.sol`instead of being called directly by the user.",
    "version": 1
  },
  "storageLayout": {
    "storage": [
      {
        "astId": 1035,
        "contract": "contracts/protocol/LendingMarket.sol:LendingMarket",
        "label": "_initialized",
        "offset": 0,
        "slot": "0",
        "type": "t_uint8"
      },
      {
        "astId": 1038,
        "contract": "contracts/protocol/LendingMarket.sol:LendingMarket",
        "label": "_initializing",
        "offset": 1,
        "slot": "0",
        "type": "t_bool"
      }
    ],
    "types": {
      "t_bool": {
        "encoding": "inplace",
        "label": "bool",
        "numberOfBytes": "1"
      },
      "t_uint8": {
        "encoding": "inplace",
        "label": "uint8",
        "numberOfBytes": "1"
      }
    }
  }
}