{
  "address": "0xb034d52712b3eD6010ab38Bdb077D85098D56BaB",
  "abi": [
    {
      "inputs": [],
      "name": "InvalidShortString",
      "type": "error"
    },
    {
      "inputs": [
        {
          "internalType": "string",
          "name": "name",
          "type": "string"
        }
      ],
      "name": "MissingAddress",
      "type": "error"
    },
    {
      "inputs": [
        {
          "internalType": "string",
          "name": "name",
          "type": "string"
        }
      ],
      "name": "OnlyAcceptedContract",
      "type": "error"
    },
    {
      "inputs": [],
      "name": "ResolverAlreadyRegistered",
      "type": "error"
    },
    {
      "inputs": [
        {
          "internalType": "string",
          "name": "str",
          "type": "string"
        }
      ],
      "name": "StringTooLong",
      "type": "error"
    },
    {
      "anonymous": false,
      "inputs": [
        {
          "indexed": true,
          "internalType": "address",
          "name": "owner",
          "type": "address"
        },
        {
          "indexed": true,
          "internalType": "address",
          "name": "spender",
          "type": "address"
        },
        {
          "indexed": false,
          "internalType": "uint256",
          "name": "value",
          "type": "uint256"
        }
      ],
      "name": "Approval",
      "type": "event"
    },
    {
      "anonymous": false,
      "inputs": [
        {
          "indexed": false,
          "internalType": "bytes32",
          "name": "name",
          "type": "bytes32"
        },
        {
          "indexed": false,
          "internalType": "address",
          "name": "destination",
          "type": "address"
        }
      ],
      "name": "CacheUpdated",
      "type": "event"
    },
    {
      "anonymous": false,
      "inputs": [],
      "name": "EIP712DomainChanged",
      "type": "event"
    },
    {
      "anonymous": false,
      "inputs": [
        {
          "indexed": false,
          "internalType": "uint8",
          "name": "version",
          "type": "uint8"
        }
      ],
      "name": "Initialized",
      "type": "event"
    },
    {
      "anonymous": false,
      "inputs": [
        {
          "indexed": true,
          "internalType": "address",
          "name": "from",
          "type": "address"
        },
        {
          "indexed": true,
          "internalType": "address",
          "name": "to",
          "type": "address"
        },
        {
          "indexed": false,
          "internalType": "uint256",
          "name": "value",
          "type": "uint256"
        }
      ],
      "name": "Transfer",
      "type": "event"
    },
    {
      "inputs": [],
      "name": "DOMAIN_SEPARATOR",
      "outputs": [
        {
          "internalType": "bytes32",
          "name": "",
          "type": "bytes32"
        }
      ],
      "stateMutability": "view",
      "type": "function"
    },
    {
      "inputs": [
        {
          "internalType": "address",
          "name": "owner",
          "type": "address"
        },
        {
          "internalType": "address",
          "name": "spender",
          "type": "address"
        }
      ],
      "name": "allowance",
      "outputs": [
        {
          "internalType": "uint256",
          "name": "",
          "type": "uint256"
        }
      ],
      "stateMutability": "view",
      "type": "function"
    },
    {
      "inputs": [
        {
          "internalType": "address",
          "name": "spender",
          "type": "address"
        },
        {
          "internalType": "uint256",
          "name": "amount",
          "type": "uint256"
        }
      ],
      "name": "approve",
      "outputs": [
        {
          "internalType": "bool",
          "name": "",
          "type": "bool"
        }
      ],
      "stateMutability": "nonpayable",
      "type": "function"
    },
    {
      "inputs": [],
      "name": "asset",
      "outputs": [
        {
          "internalType": "address",
          "name": "",
          "type": "address"
        }
      ],
      "stateMutability": "view",
      "type": "function"
    },
    {
      "inputs": [
        {
          "internalType": "address",
          "name": "account",
          "type": "address"
        }
      ],
      "name": "balanceOf",
      "outputs": [
        {
          "internalType": "uint256",
          "name": "",
          "type": "uint256"
        }
      ],
      "stateMutability": "view",
      "type": "function"
    },
    {
      "inputs": [],
      "name": "buildCache",
      "outputs": [],
      "stateMutability": "nonpayable",
      "type": "function"
    },
    {
      "inputs": [
        {
          "internalType": "address",
          "name": "from",
          "type": "address"
        },
        {
          "internalType": "uint256",
          "name": "amount",
          "type": "uint256"
        }
      ],
      "name": "burn",
      "outputs": [],
      "stateMutability": "nonpayable",
      "type": "function"
    },
    {
      "inputs": [],
      "name": "decimals",
      "outputs": [
        {
          "internalType": "uint8",
          "name": "",
          "type": "uint8"
        }
      ],
      "stateMutability": "view",
      "type": "function"
    },
    {
      "inputs": [
        {
          "internalType": "address",
          "name": "spender",
          "type": "address"
        },
        {
          "internalType": "uint256",
          "name": "subtractedValue",
          "type": "uint256"
        }
      ],
      "name": "decreaseAllowance",
      "outputs": [
        {
          "internalType": "bool",
          "name": "",
          "type": "bool"
        }
      ],
      "stateMutability": "nonpayable",
      "type": "function"
    },
    {
      "inputs": [],
      "name": "eip712Domain",
      "outputs": [
        {
          "internalType": "bytes1",
          "name": "fields",
          "type": "bytes1"
        },
        {
          "internalType": "string",
          "name": "name",
          "type": "string"
        },
        {
          "internalType": "string",
          "name": "version",
          "type": "string"
        },
        {
          "internalType": "uint256",
          "name": "chainId",
          "type": "uint256"
        },
        {
          "internalType": "address",
          "name": "verifyingContract",
          "type": "address"
        },
        {
          "internalType": "bytes32",
          "name": "salt",
          "type": "bytes32"
        },
        {
          "internalType": "uint256[]",
          "name": "extensions",
          "type": "uint256[]"
        }
      ],
      "stateMutability": "view",
      "type": "function"
    },
    {
      "inputs": [],
      "name": "getRevision",
      "outputs": [
        {
          "internalType": "uint256",
          "name": "",
          "type": "uint256"
        }
      ],
      "stateMutability": "pure",
      "type": "function"
    },
    {
      "inputs": [
        {
          "internalType": "address",
          "name": "spender",
          "type": "address"
        },
        {
          "internalType": "uint256",
          "name": "addedValue",
          "type": "uint256"
        }
      ],
      "name": "increaseAllowance",
      "outputs": [
        {
          "internalType": "bool",
          "name": "",
          "type": "bool"
        }
      ],
      "stateMutability": "nonpayable",
      "type": "function"
    },
    {
      "inputs": [
        {
          "internalType": "address",
          "name": "_resolver",
          "type": "address"
        },
        {
          "internalType": "string",
          "name": "_name",
          "type": "string"
        },
        {
          "internalType": "string",
          "name": "_symbol",
          "type": "string"
        },
        {
          "internalType": "uint8",
          "name": "_decimals",
          "type": "uint8"
        },
        {
          "internalType": "address",
          "name": "_asset",
          "type": "address"
        },
        {
          "internalType": "uint256",
          "name": "_maturity",
          "type": "uint256"
        }
      ],
      "name": "initialize",
      "outputs": [],
      "stateMutability": "nonpayable",
      "type": "function"
    },
    {
      "inputs": [],
      "name": "isResolverCached",
      "outputs": [
        {
          "internalType": "bool",
          "name": "",
          "type": "bool"
        }
      ],
      "stateMutability": "view",
      "type": "function"
    },
    {
      "inputs": [],
      "name": "maturity",
      "outputs": [
        {
          "internalType": "uint256",
          "name": "",
          "type": "uint256"
        }
      ],
      "stateMutability": "view",
      "type": "function"
    },
    {
      "inputs": [
        {
          "internalType": "address",
          "name": "to",
          "type": "address"
        },
        {
          "internalType": "uint256",
          "name": "amount",
          "type": "uint256"
        }
      ],
      "name": "mint",
      "outputs": [],
      "stateMutability": "nonpayable",
      "type": "function"
    },
    {
      "inputs": [],
      "name": "name",
      "outputs": [
        {
          "internalType": "string",
          "name": "",
          "type": "string"
        }
      ],
      "stateMutability": "view",
      "type": "function"
    },
    {
      "inputs": [
        {
          "internalType": "address",
          "name": "owner",
          "type": "address"
        }
      ],
      "name": "nonces",
      "outputs": [
        {
          "internalType": "uint256",
          "name": "",
          "type": "uint256"
        }
      ],
      "stateMutability": "view",
      "type": "function"
    },
    {
      "inputs": [
        {
          "internalType": "address",
          "name": "owner",
          "type": "address"
        },
        {
          "internalType": "address",
          "name": "spender",
          "type": "address"
        },
        {
          "internalType": "uint256",
          "name": "value",
          "type": "uint256"
        },
        {
          "internalType": "uint256",
          "name": "deadline",
          "type": "uint256"
        },
        {
          "internalType": "uint8",
          "name": "v",
          "type": "uint8"
        },
        {
          "internalType": "bytes32",
          "name": "r",
          "type": "bytes32"
        },
        {
          "internalType": "bytes32",
          "name": "s",
          "type": "bytes32"
        }
      ],
      "name": "permit",
      "outputs": [],
      "stateMutability": "nonpayable",
      "type": "function"
    },
    {
      "inputs": [],
      "name": "requiredContracts",
      "outputs": [
        {
          "internalType": "bytes32[]",
          "name": "contracts",
          "type": "bytes32[]"
        }
      ],
      "stateMutability": "pure",
      "type": "function"
    },
    {
      "inputs": [],
      "name": "resolver",
      "outputs": [
        {
          "internalType": "contract IAddressResolver",
          "name": "",
          "type": "address"
        }
      ],
      "stateMutability": "view",
      "type": "function"
    },
    {
      "inputs": [],
      "name": "symbol",
      "outputs": [
        {
          "internalType": "string",
          "name": "",
          "type": "string"
        }
      ],
      "stateMutability": "view",
      "type": "function"
    },
    {
      "inputs": [],
      "name": "totalSupply",
      "outputs": [
        {
          "internalType": "uint256",
          "name": "",
          "type": "uint256"
        }
      ],
      "stateMutability": "view",
      "type": "function"
    },
    {
      "inputs": [
        {
          "internalType": "address",
          "name": "to",
          "type": "address"
        },
        {
          "internalType": "uint256",
          "name": "amount",
          "type": "uint256"
        }
      ],
      "name": "transfer",
      "outputs": [
        {
          "internalType": "bool",
          "name": "",
          "type": "bool"
        }
      ],
      "stateMutability": "nonpayable",
      "type": "function"
    },
    {
      "inputs": [
        {
          "internalType": "address",
          "name": "from",
          "type": "address"
        },
        {
          "internalType": "address",
          "name": "to",
          "type": "address"
        },
        {
          "internalType": "uint256",
          "name": "amount",
          "type": "uint256"
        }
      ],
      "name": "transferFrom",
      "outputs": [
        {
          "internalType": "bool",
          "name": "",
          "type": "bool"
        }
      ],
      "stateMutability": "nonpayable",
      "type": "function"
    }
  ],
  "transactionHash": "0x2fd9d280c64b9807ced3b0ab8fdfea512736fb06a88b2337896786e066f58b48",
  "args": [],
  "numDeployments": 1,
  "solcInputHash": "a0a29dee42d641b5a802c82edf34e81a",
  "bytecode": "0x608060405234801561001057600080fd5b50612173806100206000396000f3fe608060405234801561001057600080fd5b50600436106101735760003560e01c806339509351116100de57806395d89b4111610097578063a457c2d711610071578063a457c2d7146102ef578063a9059cbb14610302578063d505accf14610315578063dd62ed3e1461032857600080fd5b806395d89b41146102c1578063966dfcab146102c95780639dc29fac146102dc57600080fd5b806339509351146102455780633d03b9da1461025857806340c10f191461026d57806370a08231146102805780637ecebe001461029357806384b0196e146102a657600080fd5b806323b872dd1161013057806323b872dd146101f657806329985e5a146102095780632af64bd314610213578063313ce5671461021b5780633644e5151461023557806338d52e0f1461023d57600080fd5b806304f3bcec1461017857806306fdde031461019d578063095ea7b3146101b25780631316529d146101d557806318160ddd146101e6578063204f83f9146101ee575b600080fd5b61018061033b565b6040516001600160a01b0390911681526020015b60405180910390f35b6101a5610354565b6040516101949190611b81565b6101c56101c0366004611bb0565b6103ef565b6040519015158152602001610194565b60015b604051908152602001610194565b6101d8610409565b6101d861041c565b6101c5610204366004611bdc565b61042f565b610211610453565b005b6101c56105d0565b610223610702565b60405160ff9091168152602001610194565b6101d8610715565b610180610724565b6101c5610253366004611bb0565b610742565b610260610764565b6040516101949190611c1d565b61021161027b366004611bb0565b6107c3565b6101d861028e366004611c61565b610835565b6101d86102a1366004611c61565b61085e565b6102ae610888565b6040516101949796959493929190611c7e565b6101a56108fe565b6102116102d7366004611dcd565b610916565b6102116102ea366004611bb0565b610b05565b6101c56102fd366004611bb0565b610b72565b6101c5610310366004611bb0565b610bed565b610211610323366004611e71565b610bfb565b6101d8610336366004611edf565b610d5f565b6000610345610d99565b546001600160a01b0316919050565b606061035e610dc7565b600301805461036c90611f18565b80601f016020809104026020016040519081016040528092919081815260200182805461039890611f18565b80156103e55780601f106103ba576101008083540402835291602001916103e5565b820191906000526020600020905b8154815290600101906020018083116103c857829003601f168201915b5050505050905090565b6000336103fd818585610df5565b60019150505b92915050565b6000610413610dc7565b60020154905090565b6000610426610f29565b60010154905090565b60003361043d858285610f57565b610448858585610fd1565b506001949350505050565b600061045d610764565b905060005b81518110156105cc57600082828151811061047f5761047f611f4c565b602002602001015190506000610493610d99565b54604080517f5265736f6c766572206d697373696e67207461726765743a200000000000000060208201526039808201869052825180830390910181526059820192839052636795dbcd60e01b9092526001600160a01b0390921691636795dbcd9161050491869190605d01611f62565b602060405180830381865afa158015610521573d6000803e3d6000fd5b505050506040513d601f19601f820116820180604052508101906105459190611f83565b905080610550610d99565b6000848152600191909101602090815260409182902080546001600160a01b0319166001600160a01b039485161790558151858152928416908301527f88a93678a3692f6789d9546fc621bf7234b101ddb7d4fe479455112831b8aa68910160405180910390a1505080806105c490611fb6565b915050610462565b5050565b6000806105db610764565b905060005b81518110156106f95760008282815181106105fd576105fd611f4c565b6020026020010151905061060f610d99565b600082815260019190910160205260409020546001600160a01b0316610633610d99565b546040516321f8a72160e01b8152600481018490526001600160a01b03909116906321f8a72190602401602060405180830381865afa15801561067a573d6000803e3d6000fd5b505050506040513d601f19601f8201168201806040525081019061069e9190611f83565b6001600160a01b03161415806106d7575060006106b9610d99565b600083815260019190910160205260409020546001600160a01b0316145b156106e6576000935050505090565b50806106f181611fb6565b9150506105e0565b50600191505090565b600061070c610f29565b5460ff16919050565b600061071f6111a7565b905090565b600061072e610f29565b5461010090046001600160a01b0316919050565b6000336103fd8185856107558383610d5f565b61075f9190611fcf565b610df5565b60408051600180825281830190925260609160208083019080368337019050509050762632b73234b733a6b0b935b2ba21b7b73a3937b63632b960491b816000815181106107b4576107b4611f4c565b60200260200101818152505090565b6107cb6111f1565b6001600160a01b0316336001600160a01b03161461082b57604051637b3f42c160e01b81526020600482015260176024820152762632b73234b733a6b0b935b2ba21b7b73a3937b63632b960491b60448201526064015b60405180910390fd5b6105cc8282611216565b600061083f610dc7565b6001600160a01b03909216600090815260209290925250604090205490565b600061040361086b6112f5565b6001600160a01b0384166000908152602091909152604090205490565b6000606080600080600060606108b461089f611323565b6007016108aa611323565b6005015490611351565b6108d46108bf611323565b6008016108ca611323565b6006015490611351565b60408051600080825260208201909252600f60f81b9b939a50919850469750309650945092509050565b6060610908610dc7565b600401805461036c90611f18565b600154610100900460ff161580801561093357506001805460ff16105b8061094c5750303b15801561094c57506001805460ff16145b6109af5760405162461bcd60e51b815260206004820152602e60248201527f496e697469616c697a61626c653a20636f6e747261637420697320616c72656160448201526d191e481a5b9a5d1a585b1a5e995960921b6064820152608401610822565b6001805460ff19168117905580156109d1576001805461ff0019166101001790555b60006109db6113fc565b6001600160a01b031603610a3d5760405162461bcd60e51b815260206004820152602360248201527f4d7573742062652063616c6c65642066726f6d20626561636f6e20636f6e74726044820152621858dd60ea1b6064820152608401610822565b82610a46610f29565b80546001600160a01b039290921661010002610100600160a81b031990921691909117905581610a74610f29565b6001015583610a81610f29565b805460ff191660ff92909216919091179055610a9c87611424565b610aa68686611480565b610aaf866114b4565b610ab7610453565b8015610afc576001805461ff00191681556040519081527f7f26b83ff96e1f2b6a682f133852f6798a09c465da95921460cefb38474024989060200160405180910390a15b50505050505050565b610b0d6111f1565b6001600160a01b0316336001600160a01b031614610b6857604051637b3f42c160e01b81526020600482015260176024820152762632b73234b733a6b0b935b2ba21b7b73a3937b63632b960491b6044820152606401610822565b6105cc82826114da565b60003381610b808286610d5f565b905083811015610be05760405162461bcd60e51b815260206004820152602560248201527f45524332303a2064656372656173656420616c6c6f77616e63652062656c6f77604482015264207a65726f60d81b6064820152608401610822565b6104488286868403610df5565b6000336103fd818585610fd1565b83421115610c4b5760405162461bcd60e51b815260206004820152601d60248201527f45524332305065726d69743a206578706972656420646561646c696e650000006044820152606401610822565b60007f6e71edae12b1b97f4d1f60370fef10105fa2faae0126114a169c64845d6126c9888888610c7a8c61163a565b6040805160208101969096526001600160a01b0394851690860152929091166060840152608083015260a082015260c0810186905260e0016040516020818303038152906040528051906020012090506000610cd582611678565b90506000610ce5828787876116a5565b9050896001600160a01b0316816001600160a01b031614610d485760405162461bcd60e51b815260206004820152601e60248201527f45524332305065726d69743a20696e76616c6964207369676e617475726500006044820152606401610822565b610d538a8a8a610df5565b50505050505050505050565b6000610d69610dc7565b6001600160a01b039384166000908152600191909101602090815260408083209490951682529290925250205490565b60008061040360017f4abde63c3e81aefa5764b017968bc473e83e093d7e1a10247d19e0a3e4124018611fe2565b60008061040360017f1e8cb7f658f99b9765ed3726150311becb3ba2f599fde0fea83be1412ed12b0f611fe2565b6001600160a01b038316610e575760405162461bcd60e51b8152602060048201526024808201527f45524332303a20617070726f76652066726f6d20746865207a65726f206164646044820152637265737360e01b6064820152608401610822565b6001600160a01b038216610eb85760405162461bcd60e51b815260206004820152602260248201527f45524332303a20617070726f766520746f20746865207a65726f206164647265604482015261737360f01b6064820152608401610822565b80610ec1610dc7565b6001600160a01b038581166000818152600193909301602090815260408085209388168086529382529384902094909455915184815290927f8c5be1e5ebec7d5bd14f71427d1e84f3dd0314c0f7b2291e5b200ac8c7c3b925910160405180910390a3505050565b60008061040360017f8da771c095b9c176fdc0aa8fb9fddaac16f2d475d6ff4caf8e2419538af1a909611fe2565b6000610f638484610d5f565b90506000198114610fcb5781811015610fbe5760405162461bcd60e51b815260206004820152601d60248201527f45524332303a20696e73756666696369656e7420616c6c6f77616e63650000006044820152606401610822565b610fcb8484848403610df5565b50505050565b6001600160a01b0383166110355760405162461bcd60e51b815260206004820152602560248201527f45524332303a207472616e736665722066726f6d20746865207a65726f206164604482015264647265737360d81b6064820152608401610822565b6001600160a01b0382166110975760405162461bcd60e51b815260206004820152602360248201527f45524332303a207472616e7366657220746f20746865207a65726f206164647260448201526265737360e81b6064820152608401610822565b60006110a1610dc7565b6001600160a01b0385166000908152602091909152604090205490508181101561111c5760405162461bcd60e51b815260206004820152602660248201527f45524332303a207472616e7366657220616d6f756e7420657863656564732062604482015265616c616e636560d01b6064820152608401610822565b818103611127610dc7565b6001600160a01b038616600090815260209190915260409020558161114a610dc7565b6001600160a01b03858116600081815260209384526040908190208054959095019094559251858152908716917fddf252ad1be2c89b69c2b068fc378daa952ba7f163c4a11628f55a4df523b3ef910160405180910390a3610fcb565b60006111b1611323565b600201546001600160a01b0316301480156111d657506111cf611323565b6001015446145b156111e9576111e3611323565b54919050565b61071f6116cd565b600061071f762632b73234b733a6b0b935b2ba21b7b73a3937b63632b960491b611749565b6001600160a01b03821661126c5760405162461bcd60e51b815260206004820152601f60248201527f45524332303a206d696e7420746f20746865207a65726f2061646472657373006044820152606401610822565b80611275610dc7565b60020160008282546112879190611fcf565b90915550819050611296610dc7565b6001600160a01b03841660008181526020929092526040808320805490940190935591517fddf252ad1be2c89b69c2b068fc378daa952ba7f163c4a11628f55a4df523b3ef906112e99085815260200190565b60405180910390a35050565b60008061040360017f73a1786aad448e28e682a17cd079d9385d2a0861c27de0e0bf0be870da0cf811611fe2565b60008061040360017f0c3c367ca9839d60ec8125ab200aa040687fe584fe7eb042567ae78c59e1275b611fe2565b606060ff831461136b57611364836117aa565b9050610403565b81805461137790611f18565b80601f01602080910402602001604051908101604052809291908181526020018280546113a390611f18565b80156113f05780601f106113c5576101008083540402835291602001916113f0565b820191906000526020600020905b8154815290600101906020018083116113d357829003601f168201915b50505050509050610403565b60007fa3f0ad74e5423aebfd80d3ef4346578335a9a72aeaee59ff6cb3582b35133d50610345565b600061142e610d99565b546001600160a01b031614611456576040516304b79d6360e51b815260040160405180910390fd5b8061145f610d99565b80546001600160a01b0319166001600160a01b039290921691909117905550565b81611489610dc7565b600301906114979082612043565b50806114a1610dc7565b600401906114af9082612043565b505050565b6114d781604051806040016040528060018152602001603160f81b8152506117e9565b50565b6001600160a01b03821661153a5760405162461bcd60e51b815260206004820152602160248201527f45524332303a206275726e2066726f6d20746865207a65726f206164647265736044820152607360f81b6064820152608401610822565b6000611544610dc7565b6001600160a01b038416600090815260209190915260409020549050818110156115bb5760405162461bcd60e51b815260206004820152602260248201527f45524332303a206275726e20616d6f756e7420657863656564732062616c616e604482015261636560f01b6064820152608401610822565b8181036115c6610dc7565b6001600160a01b03851660009081526020919091526040902055816115e9610dc7565b60020180549190910390556040518281526000906001600160a01b038516907fddf252ad1be2c89b69c2b068fc378daa952ba7f163c4a11628f55a4df523b3ef9060200160405180910390a3505050565b6000806116456112f5565b6001600160a01b0384166000908152602091909152604090209050611668815490565b8154600101825591505b50919050565b60006104036116856111a7565b8360405161190160f01b8152600281019290925260228201526042902090565b60008060006116b68787878761189d565b915091506116c381611961565b5095945050505050565b60007f8b73c3c69bb8fe3d512ecc4cf759cc79239f7b179b0ffacaa9a75d522b39400f6116f8611323565b60030154611704611323565b6004015460408051602081019490945283019190915260608201524660808201523060a082015260c00160405160208183030381529060405280519060200120905090565b600080611754610d99565b600084815260019190910160205260409020546001600160a01b03169050806104035760408051602081018590520160408051601f19818403018152908290526346e2ec9360e01b825261082291600401611b81565b606060006117b783611aab565b604080516020808252818301909252919250600091906020820181803683375050509182525060208101929092525090565b6117fe6117f4611323565b8390600701611ad3565b611806611323565b6005015561181f611815611323565b8290600801611ad3565b611827611323565b600601558151602083012061183a611323565b600301558051602082012061184d611323565b600401554661185a611323565b600101556118666116cd565b61186e611323565b5530611878611323565b60020180546001600160a01b0319166001600160a01b03929092169190911790555050565b6000807f7fffffffffffffffffffffffffffffff5d576e7357a4501ddfe92f46681b20a08311156118d45750600090506003611958565b6040805160008082526020820180845289905260ff881692820192909252606081018690526080810185905260019060a0016020604051602081039080840390855afa158015611928573d6000803e3d6000fd5b5050604051601f1901519150506001600160a01b03811661195157600060019250925050611958565b9150600090505b94509492505050565b600081600481111561197557611975612103565b0361197d5750565b600181600481111561199157611991612103565b036119de5760405162461bcd60e51b815260206004820152601860248201527f45434453413a20696e76616c6964207369676e617475726500000000000000006044820152606401610822565b60028160048111156119f2576119f2612103565b03611a3f5760405162461bcd60e51b815260206004820152601f60248201527f45434453413a20696e76616c6964207369676e6174757265206c656e677468006044820152606401610822565b6003816004811115611a5357611a53612103565b036114d75760405162461bcd60e51b815260206004820152602260248201527f45434453413a20696e76616c6964207369676e6174757265202773272076616c604482015261756560f01b6064820152608401610822565b600060ff8216601f81111561040357604051632cd44ac360e21b815260040160405180910390fd5b6000602083511015611ae85761136483611afd565b81611af38482612043565b5060ff9050610403565b600080829050601f81511115611b28578260405163305a27a960e01b81526004016108229190611b81565b8051611b3382612119565b179392505050565b6000815180845260005b81811015611b6157602081850181015186830182015201611b45565b506000602082860101526020601f19601f83011685010191505092915050565b602081526000611b946020830184611b3b565b9392505050565b6001600160a01b03811681146114d757600080fd5b60008060408385031215611bc357600080fd5b8235611bce81611b9b565b946020939093013593505050565b600080600060608486031215611bf157600080fd5b8335611bfc81611b9b565b92506020840135611c0c81611b9b565b929592945050506040919091013590565b6020808252825182820181905260009190848201906040850190845b81811015611c5557835183529284019291840191600101611c39565b50909695505050505050565b600060208284031215611c7357600080fd5b8135611b9481611b9b565b60ff60f81b881681526000602060e081840152611c9e60e084018a611b3b565b8381036040850152611cb0818a611b3b565b606085018990526001600160a01b038816608086015260a0850187905284810360c0860152855180825283870192509083019060005b81811015611d0257835183529284019291840191600101611ce6565b50909c9b505050505050505050505050565b634e487b7160e01b600052604160045260246000fd5b600082601f830112611d3b57600080fd5b813567ffffffffffffffff80821115611d5657611d56611d14565b604051601f8301601f19908116603f01168101908282118183101715611d7e57611d7e611d14565b81604052838152866020858801011115611d9757600080fd5b836020870160208301376000602085830101528094505050505092915050565b803560ff81168114611dc857600080fd5b919050565b60008060008060008060c08789031215611de657600080fd5b8635611df181611b9b565b9550602087013567ffffffffffffffff80821115611e0e57600080fd5b611e1a8a838b01611d2a565b96506040890135915080821115611e3057600080fd5b50611e3d89828a01611d2a565b945050611e4c60608801611db7565b92506080870135611e5c81611b9b565b8092505060a087013590509295509295509295565b600080600080600080600060e0888a031215611e8c57600080fd5b8735611e9781611b9b565b96506020880135611ea781611b9b565b95506040880135945060608801359350611ec360808901611db7565b925060a0880135915060c0880135905092959891949750929550565b60008060408385031215611ef257600080fd5b8235611efd81611b9b565b91506020830135611f0d81611b9b565b809150509250929050565b600181811c90821680611f2c57607f821691505b60208210810361167257634e487b7160e01b600052602260045260246000fd5b634e487b7160e01b600052603260045260246000fd5b828152604060208201526000611f7b6040830184611b3b565b949350505050565b600060208284031215611f9557600080fd5b8151611b9481611b9b565b634e487b7160e01b600052601160045260246000fd5b600060018201611fc857611fc8611fa0565b5060010190565b8082018082111561040357610403611fa0565b8181038181111561040357610403611fa0565b601f8211156114af57600081815260208120601f850160051c8101602086101561201c5750805b601f850160051c820191505b8181101561203b57828155600101612028565b505050505050565b815167ffffffffffffffff81111561205d5761205d611d14565b6120718161206b8454611f18565b84611ff5565b602080601f8311600181146120a6576000841561208e5750858301515b600019600386901b1c1916600185901b17855561203b565b600085815260208120601f198616915b828110156120d5578886015182559484019460019091019084016120b6565b50858210156120f35787850151600019600388901b60f8161c191681555b5050505050600190811b01905550565b634e487b7160e01b600052602160045260246000fd5b805160208083015191908110156116725760001960209190910360031b1b1691905056fea26469706673582212208f6fe07a608e6121538ce3e4ceb5e0fbab9d6ee4a6fe0fc2a04bbba07e2b036b64736f6c63430008130033",
  "devdoc": {
    "events": {
      "Approval(address,address,uint256)": {
        "details": "Emitted when the allowance of a `spender` for an `owner` is set by a call to {approve}. `value` is the new allowance."
      },
      "EIP712DomainChanged()": {
        "details": "MAY be emitted to signal that the domain could have changed."
      },
      "Initialized(uint8)": {
        "details": "Triggered when the contract has been initialized or reinitialized."
      },
      "Transfer(address,address,uint256)": {
        "details": "Emitted when `value` tokens are moved from one account (`from`) to another (`to`). Note that `value` may be zero."
      }
    },
    "kind": "dev",
    "methods": {
      "DOMAIN_SEPARATOR()": {
        "details": "See {IERC20Permit-DOMAIN_SEPARATOR}."
      },
      "allowance(address,address)": {
        "details": "See {IERC20-allowance}."
      },
      "approve(address,uint256)": {
        "details": "See {IERC20-approve}. NOTE: If `amount` is the maximum `uint256`, the allowance is not updated on `transferFrom`. This is semantically equivalent to an infinite approval. Requirements: - `spender` cannot be the zero address."
      },
      "asset()": {
        "returns": {
          "_0": "The address of the token's underlying asset"
        }
      },
      "balanceOf(address)": {
        "details": "See {IERC20-balanceOf}."
      },
      "burn(address,uint256)": {
        "params": {
          "amount": "The amount of tokens to burn",
          "from": "The address to burn the tokens from"
        }
      },
      "decimals()": {
        "details": "Returns the number of decimals used to get its user representation. For example, if `decimals` equals `2`, a balance of `505` tokens should be displayed to a user as `5.05` (`505 / 10 ** 2`). Tokens usually opt for a value of 18, imitating the relationship between Ether and Wei. This is the default value returned by this function, unless it's overridden. NOTE: This information is only used for _display_ purposes: it in no way affects any of the arithmetic of the contract, including {IERC20-balanceOf} and {IERC20-transfer}."
      },
      "decreaseAllowance(address,uint256)": {
        "details": "Atomically decreases the allowance granted to `spender` by the caller. This is an alternative to {approve} that can be used as a mitigation for problems described in {IERC20-approve}. Emits an {Approval} event indicating the updated allowance. Requirements: - `spender` cannot be the zero address. - `spender` must have allowance for the caller of at least `subtractedValue`."
      },
      "eip712Domain()": {
        "details": "See {EIP-5267}. _Available since v4.9._"
      },
      "getRevision()": {
        "returns": {
          "_0": "The revision number"
        }
      },
      "increaseAllowance(address,uint256)": {
        "details": "Atomically increases the allowance granted to `spender` by the caller. This is an alternative to {approve} that can be used as a mitigation for problems described in {IERC20-approve}. Emits an {Approval} event indicating the updated allowance. Requirements: - `spender` cannot be the zero address."
      },
      "initialize(address,string,string,uint8,address,uint256)": {
        "params": {
          "_asset": "The address of the token's underlying asset",
          "_decimals": "The number of decimals the token uses",
          "_maturity": "The maturity of the token",
          "_name": "The name of the token",
          "_resolver": "The address resolver to be used.",
          "_symbol": "The symbol of the token"
        }
      },
      "maturity()": {
        "returns": {
          "_0": "The maturity of the token"
        }
      },
      "mint(address,uint256)": {
        "params": {
          "amount": "The amount of tokens to mint",
          "to": "The address to receive the new tokens"
        }
      },
      "name()": {
        "details": "Returns the name of the token."
      },
      "nonces(address)": {
        "details": "See {IERC20Permit-nonces}."
      },
      "permit(address,address,uint256,uint256,uint8,bytes32,bytes32)": {
        "details": "See {IERC20Permit-permit}."
      },
      "requiredContracts()": {
        "details": "The contract name list is in `./libraries/Contracts.sol`."
      },
      "symbol()": {
        "details": "Returns the symbol of the token, usually a shorter version of the name."
      },
      "totalSupply()": {
        "details": "See {IERC20-totalSupply}."
      },
      "transfer(address,uint256)": {
        "details": "See {IERC20-transfer}. Requirements: - `to` cannot be the zero address. - the caller must have a balance of at least `amount`."
      },
      "transferFrom(address,address,uint256)": {
        "details": "See {IERC20-transferFrom}. Emits an {Approval} event indicating the updated allowance. This is not required by the EIP. See the note at the beginning of {ERC20}. NOTE: Does not update the allowance if the current allowance is the maximum `uint256`. Requirements: - `from` and `to` cannot be the zero address. - `from` must have a balance of at least `amount`. - the caller must have allowance for ``from``'s tokens of at least `amount`."
      }
    },
    "version": 1
  },
  "userdoc": {
    "kind": "user",
    "methods": {
      "asset()": {
        "notice": "Gets the address of the token's underlying asset"
      },
      "burn(address,uint256)": {
        "notice": "Burns tokens"
      },
      "getRevision()": {
        "notice": "Gets the revision number of the contract"
      },
      "initialize(address,string,string,uint8,address,uint256)": {
        "notice": "Initializes the contract."
      },
      "maturity()": {
        "notice": "Gets the maturity of the token"
      },
      "mint(address,uint256)": {
        "notice": "Mints new tokens"
      },
      "requiredContracts()": {
        "notice": "Returns the contract names used in this contract."
      }
    },
    "notice": "Implements a token that represents zero-coupon bonds.",
    "version": 1
  },
  "storageLayout": {
    "storage": [
      {
        "astId": 45278,
        "contract": "contracts/protocol/ZCToken.sol:ZCToken",
        "label": "_PERMIT_TYPEHASH_DEPRECATED_SLOT",
        "offset": 0,
        "slot": "0",
        "type": "t_bytes32"
      },
      {
        "astId": 1035,
        "contract": "contracts/protocol/ZCToken.sol:ZCToken",
        "label": "_initialized",
        "offset": 0,
        "slot": "1",
        "type": "t_uint8"
      },
      {
        "astId": 1038,
        "contract": "contracts/protocol/ZCToken.sol:ZCToken",
        "label": "_initializing",
        "offset": 1,
        "slot": "1",
        "type": "t_bool"
      }
    ],
    "types": {
      "t_bool": {
        "encoding": "inplace",
        "label": "bool",
        "numberOfBytes": "1"
      },
      "t_bytes32": {
        "encoding": "inplace",
        "label": "bytes32",
        "numberOfBytes": "32"
      },
      "t_uint8": {
        "encoding": "inplace",
        "label": "uint8",
        "numberOfBytes": "1"
      }
    }
  }
}