{
	"data": {
		"bytecode": {
			"linkReferences": {},
			"object": "60806040526040518060c001604052806276a70063ffffffff16815260200162ed4e0063ffffffff1681526020016301e1338063ffffffff1681526020016303c2670063ffffffff1681526020016305a39a8063ffffffff168152602001630966018063ffffffff1681525060009060066200007d92919062000603565b506040518060c00160405280610168605a61271002816200009a57fe5b04815260200161016860b46127100281620000b157fe5b0481526020016001612710028152602001600161271002815260200160016127100281526020016001612710028152506006906006620000f392919062000650565b5060405180602001604052806276a70062ffffff16815250600c9060016200011d92919062000695565b50604051806020016040528062ed4e0062ffffff1681525060119060016200014792919062000695565b5060405180602001604052806301e1338063ffffffff16815250601690600162000173929190620006e1565b5060405180604001604052806301e1338063ffffffff1681526020016303c2670063ffffffff16815250601b906002620001af9291906200072e565b5060405180606001604052806301e1338063ffffffff1681526020016303c2670063ffffffff1681526020016305a39a8063ffffffff168152506020906003620001fb9291906200077b565b506040518060a001604052806301e1338063ffffffff1681526020016303c2670063ffffffff1681526020016305a39a8063ffffffff168152602001630784ce0063ffffffff168152602001630966018063ffffffff16815250602590600562000267929190620007c8565b506040518060c00160405280600c600580602002604051908101604052809291908260058015620002ae576020028201915b81548152602001906001019080831162000299575b505050505081526020016011600580602002604051908101604052809291908260058015620002f3576020028201915b815481526020019060010190808311620002de575b50505050508152602001601660058060200260405190810160405280929190826005801562000338576020028201915b81548152602001906001019080831162000323575b50505050508152602001601b6005806020026040519081016040528092919082600580156200037d576020028201915b81548152602001906001019080831162000368575b505050505081526020016020600580602002604051908101604052809291908260058015620003c2576020028201915b815481526020019060010190808311620003ad575b50505050508152602001602560058060200260405190810160405280929190826005801562000407576020028201915b815481526020019060010190808311620003f2575b5050505050815250602a9060066200042192919062000815565b506040518060c00160405280600160ff168152602001600160ff168152602001600160ff168152602001600260ff168152602001600360ff168152602001600560ff168152506048906006620004799291906200086d565b506040518060e001604052806276a70063ffffffff16815260200162ed4e0063ffffffff1681526020016301e1338063ffffffff1681526020016303c2670063ffffffff1681526020016305a39a8063ffffffff168152602001630784ce0063ffffffff168152602001630966018063ffffffff16815250604e90600762000503929190620008b7565b503480156200051157600080fd5b5060405162003fe238038062003fe28339818101604052810190620005379190620009ca565b82605760006101000a81548173ffffffffffffffffffffffffffffffffffffffff021916908373ffffffffffffffffffffffffffffffffffffffff16021790555081605860006101000a81548173ffffffffffffffffffffffffffffffffffffffff021916908373ffffffffffffffffffffffffffffffffffffffff16021790555080605960006101000a81548173ffffffffffffffffffffffffffffffffffffffff021916908373ffffffffffffffffffffffffffffffffffffffff16021790555050505062000a6e565b82600681019282156200063d579160200282015b828111156200063c578251829063ffffffff1690559160200191906001019062000617565b5b5090506200064c919062000904565b5090565b826006810192821562000682579160200282015b828111156200068157825182559160200191906001019062000664565b5b50905062000691919062000904565b5090565b8260058101928215620006ce579160200282015b82811115620006cd578251829062ffffff16905591602001919060010190620006a9565b5b509050620006dd919062000904565b5090565b82600581019282156200071b579160200282015b828111156200071a578251829063ffffffff16905591602001919060010190620006f5565b5b5090506200072a919062000904565b5090565b826005810192821562000768579160200282015b8281111562000767578251829063ffffffff1690559160200191906001019062000742565b5b50905062000777919062000904565b5090565b8260058101928215620007b5579160200282015b82811115620007b4578251829063ffffffff169055916020019190600101906200078f565b5b509050620007c4919062000904565b5090565b826005810192821562000802579160200282015b8281111562000801578251829063ffffffff16905591602001919060010190620007dc565b5b50905062000811919062000904565b5090565b82600660050281019282156200085a579160200282015b8281111562000859578251829060056200084892919062000923565b50916020019190600501906200082c565b5b50905062000869919062000968565b5090565b8260068101928215620008a4579160200282015b82811115620008a3578251829060ff1690559160200191906001019062000881565b5b509050620008b3919062000904565b5090565b8260078101928215620008f1579160200282015b82811115620008f0578251829063ffffffff16905591602001919060010190620008cb565b5b50905062000900919062000904565b5090565b5b808211156200091f57600081600090555060010162000905565b5090565b826005810192821562000955579160200282015b828111156200095457825182559160200191906001019062000937565b5b50905062000964919062000904565b5090565b5b808211156200098c576000818162000982919062000990565b5060050162000969565b5090565b506000815560010160008155600101600081556001016000815560010160009055565b600081519050620009c48162000a54565b92915050565b600080600060608486031215620009e057600080fd5b6000620009f086828701620009b3565b935050602062000a0386828701620009b3565b925050604062000a1686828701620009b3565b9150509250925092565b600062000a2d8262000a34565b9050919050565b600073ffffffffffffffffffffffffffffffffffffffff82169050919050565b62000a5f8162000a20565b811462000a6b57600080fd5b50565b6135648062000a7e6000396000f3fe608060405234801561001057600080fd5b50600436106100ea5760003560e01c8063ac6c5e381161008c578063d003a97e11610066578063d003a97e146101fb578063dc570d2d14610205578063e2842d7914610235578063f2d055e214610253576100ea565b8063ac6c5e38146101cb578063b677aa2e146101d5578063cb105188146101f1576100ea565b806357d8df5a116100c857806357d8df5a1461014557806361fda82a146101755780636b6ae44c146101a5578063995a2001146101af576100ea565b80631d78babf146100ef578063354528e81461010b5780634ef8fe5b14610129575b600080fd5b61010960048036038101906101049190612500565b61026f565b005b610113610497565b6040516101209190612fd1565b60405180910390f35b610143600480360381019061013e9190612439565b6108d9565b005b61015f600480360381019061015a9190612439565b610962565b60405161016c9190613174565b60405180910390f35b61018f600480360381019061018a9190612694565b610ce4565b60405161019c9190613196565b60405180910390f35b6101ad610dae565b005b6101c960048036038101906101c49190612563565b610db0565b005b6101d36113fb565b005b6101ef60048036038101906101ea9190612462565b6113fd565b005b6101f961158c565b005b61020361158e565b005b61021f600480360381019061021a9190612604565b61166b565b60405161022c91906131b2565b60405180910390f35b61023d61189d565b60405161024a9190612faf565b60405180910390f35b61026d60048036038101906102689190612653565b61192b565b005b6000605560008673ffffffffffffffffffffffffffffffffffffffff1673ffffffffffffffffffffffffffffffffffffffff168152602001908152602001600020905060008160000184815481106102c357fe5b9060005260206000209060190201905080600301548314610319576040517f08c379a0000000000000000000000000000000000000000000000000000000008152600401610310906130f4565b60405180910390fd5b6000600581111561032657fe5b8160180160019054906101000a900460ff16600581111561034357fe5b141561048f578060020160009054906101000a900473ffffffffffffffffffffffffffffffffffffffff1673ffffffffffffffffffffffffffffffffffffffff168573ffffffffffffffffffffffffffffffffffffffff16146103db576040517f08c379a00000000000000000000000000000000000000000000000000000000081526004016103d290613154565b60405180910390fd5b60018160180160016101000a81548160ff021916908360058111156103fc57fe5b0217905550605960009054906101000a900473ffffffffffffffffffffffffffffffffffffffff1673ffffffffffffffffffffffffffffffffffffffff166374e8de77866040518263ffffffff1660e01b815260040161045c9190612ee0565b600060405180830381600087803b15801561047657600080fd5b505af115801561048a573d6000803e3d6000fd5b505050505b505050505050565b60608060568054905067ffffffffffffffff811180156104b657600080fd5b506040519080825280602002602001820160405280156104f057816020015b6104dd611fa6565b8152602001906001900390816104d55790505b50905060005b6056805490508110156108d157605560006056838154811061051457fe5b9060005260206000200160009054906101000a900473ffffffffffffffffffffffffffffffffffffffff1673ffffffffffffffffffffffffffffffffffffffff1673ffffffffffffffffffffffffffffffffffffffff16815260200190815260200160002060405180606001604052908160008201805480602002602001604051908101604052809291908181526020016000905b828210156108805783829060005260206000209060190201604051806101a0016040529081600082015481526020016001820160009054906101000a900473ffffffffffffffffffffffffffffffffffffffff1673ffffffffffffffffffffffffffffffffffffffff1673ffffffffffffffffffffffffffffffffffffffff1681526020016002820160009054906101000a900473ffffffffffffffffffffffffffffffffffffffff1673ffffffffffffffffffffffffffffffffffffffff1673ffffffffffffffffffffffffffffffffffffffff1681526020016002820160149054906101000a900460ff1660018111156106a157fe5b60018111156106ac57fe5b81526020016002820160159054906101000a900460ff1660028111156106ce57fe5b60028111156106d957fe5b81526020016002820160169054906101000a900460ff1660058111156106fb57fe5b600581111561070657fe5b81526020016003820154815260200160048201548152602001600582016040518060a001604052908160008201548152602001600182015481526020016002820160058060200260405190810160405280929190826005801561077e576020028201915b81548152602001906001019080831161076a575b50505050508152602001600782016005806020026040519081016040528092919082600580156107c3576020028201915b8154815260200190600101908083116107af575b50505050508152602001600c8201600580602002604051908101604052809291908260058015610808576020028201915b8154815260200190600101908083116107f4575b505050505081525050815260200160168201548152602001601782015481526020016018820160009054906101000a900460ff161515151581526020016018820160019054906101000a900460ff16600581111561086257fe5b600581111561086d57fe5b81525050815260200190600101906105a9565b505050508152602001600182015481526020016002820160009054906101000a900460ff1615151515815250508282815181106108b957fe5b602002602001018190525080806001019150506104f6565b508091505090565b6000605560008373ffffffffffffffffffffffffffffffffffffffff1673ffffffffffffffffffffffffffffffffffffffff168152602001908152602001600020600001905060005b818054905081101561095d5761095082828154811061093d57fe5b9060005260206000209060190201611987565b8080600101915050610922565b505050565b61096a611fa6565b605560008373ffffffffffffffffffffffffffffffffffffffff1673ffffffffffffffffffffffffffffffffffffffff16815260200190815260200160002060405180606001604052908160008201805480602002602001604051908101604052809291908181526020016000905b82821015610cb05783829060005260206000209060190201604051806101a0016040529081600082015481526020016001820160009054906101000a900473ffffffffffffffffffffffffffffffffffffffff1673ffffffffffffffffffffffffffffffffffffffff1673ffffffffffffffffffffffffffffffffffffffff1681526020016002820160009054906101000a900473ffffffffffffffffffffffffffffffffffffffff1673ffffffffffffffffffffffffffffffffffffffff1673ffffffffffffffffffffffffffffffffffffffff1681526020016002820160149054906101000a900460ff166001811115610ad157fe5b6001811115610adc57fe5b81526020016002820160159054906101000a900460ff166002811115610afe57fe5b6002811115610b0957fe5b81526020016002820160169054906101000a900460ff166005811115610b2b57fe5b6005811115610b3657fe5b81526020016003820154815260200160048201548152602001600582016040518060a0016040529081600082015481526020016001820154815260200160028201600580602002604051908101604052809291908260058015610bae576020028201915b815481526020019060010190808311610b9a575b5050505050815260200160078201600580602002604051908101604052809291908260058015610bf3576020028201915b815481526020019060010190808311610bdf575b50505050508152602001600c8201600580602002604051908101604052809291908260058015610c38576020028201915b815481526020019060010190808311610c24575b505050505081525050815260200160168201548152602001601782015481526020016018820160009054906101000a900460ff161515151581526020016018820160019054906101000a900460ff166005811115610c9257fe5b6005811115610c9d57fe5b81525050815260200190600101906109d9565b505050508152602001600182015481526020016002820160009054906101000a900460ff1615151515815250509050919050565b610cec611fc9565b605560003373ffffffffffffffffffffffffffffffffffffffff1673ffffffffffffffffffffffffffffffffffffffff16815260200190815260200160002060020160009054906101000a900460ff16610d7b576040517f08c379a0000000000000000000000000000000000000000000000000000000008152600401610d72906130d4565b60405180910390fd5b610d83611fa6565b610d8c33610962565b905080600001518381518110610d9e57fe5b6020026020010151915050919050565b565b3373ffffffffffffffffffffffffffffffffffffffff168573ffffffffffffffffffffffffffffffffffffffff161415610e1f576040517f08c379a0000000000000000000000000000000000000000000000000000000008152600401610e16906130b4565b60405180910390fd5b60006001811115610e2c57fe5b846001811115610e3857fe5b1415610ed057605960009054906101000a900473ffffffffffffffffffffffffffffffffffffffff1673ffffffffffffffffffffffffffffffffffffffff166331f652db8483336040518463ffffffff1660e01b8152600401610e9d9392919061302a565b600060405180830381600087803b158015610eb757600080fd5b505af1158015610ecb573d6000803e3d6000fd5b505050505b600180811115610edc57fe5b846001811115610ee857fe5b1415610f8057605960009054906101000a900473ffffffffffffffffffffffffffffffffffffffff1673ffffffffffffffffffffffffffffffffffffffff166331f652db8483886040518463ffffffff1660e01b8152600401610f4d93929190612ff3565b600060405180830381600087803b158015610f6757600080fd5b505af1158015610f7b573d6000803e3d6000fd5b505050505b6000605760009054906101000a900473ffffffffffffffffffffffffffffffffffffffff1673ffffffffffffffffffffffffffffffffffffffff1663524bc34a87878787876040518663ffffffff1660e01b8152600401610fe5959493929190612efb565b602060405180830381600087803b158015610fff57600080fd5b505af1158015611013573d6000803e3d6000fd5b505050506040513d601f19601f8201168201806040525081019061103791906126bd565b90506000605560008873ffffffffffffffffffffffffffffffffffffffff1673ffffffffffffffffffffffffffffffffffffffff1681526020019081526020016000209050611084612091565b6040518060a001604052808973ffffffffffffffffffffffffffffffffffffffff1681526020018860018111156110b757fe5b81526020018760028111156110c857fe5b81526020018660058111156110d957fe5b81526020018581525090506110ec611fc9565b611109828585600101600081548092919060010191905055611c74565b9050826000018190806001815401808255809150506001900390600052602060002090601902016000909190919091506000820151816000015560208201518160010160006101000a81548173ffffffffffffffffffffffffffffffffffffffff021916908373ffffffffffffffffffffffffffffffffffffffff16021790555060408201518160020160006101000a81548173ffffffffffffffffffffffffffffffffffffffff021916908373ffffffffffffffffffffffffffffffffffffffff16021790555060608201518160020160146101000a81548160ff021916908360018111156111f557fe5b021790555060808201518160020160156101000a81548160ff0219169083600281111561121e57fe5b021790555060a08201518160020160166101000a81548160ff0219169083600581111561124757fe5b021790555060c0820151816003015560e082015181600401556101008201518160050160008201518160000155602082015181600101556040820151816002019060056112959291906120f7565b506060820151816007019060056112ad9291906120f7565b50608082015181600c019060056112c59291906120f7565b505050610120820151816016015561014082015181601701556101608201518160180160006101000a81548160ff0219169083151502179055506101808201518160180160016101000a81548160ff0219169083600581111561132457fe5b0217905550505060018360020160006101000a81548160ff0219169083151502179055506056339080600181540180825580915050600190039060005260206000200160009091909190916101000a81548173ffffffffffffffffffffffffffffffffffffffff021916908373ffffffffffffffffffffffffffffffffffffffff1602179055507f787a470148c364ff9c70e82b2c6c1b0becbca7969011737f1f93ce9307b424e9898989898988600101546040516113e896959493929190612f4e565b60405180910390a1505050505050505050565b565b6000600181111561140a57fe5b85600181111561141657fe5b141561149b578573ffffffffffffffffffffffffffffffffffffffff163373ffffffffffffffffffffffffffffffffffffffff161461148a576040517f08c379a000000000000000000000000000000000000000000000000000000000815260040161148190613114565b60405180910390fd5b6114968787838561026f565b611516565b8673ffffffffffffffffffffffffffffffffffffffff163373ffffffffffffffffffffffffffffffffffffffff1614611509576040517f08c379a000000000000000000000000000000000000000000000000000000000815260040161150090613134565b60405180910390fd5b6115158787838561026f565b5b8573ffffffffffffffffffffffffffffffffffffffff168773ffffffffffffffffffffffffffffffffffffffff167f52f2cbddb551a0cd4ad65095542b2efd13cd261642f4034c3b0c01b232c2591d878787878760405161157b959493929190613061565b60405180910390a350505050505050565b565b60005b60568054905081101561166857600060556000605684815481106115b157fe5b9060005260206000200160009054906101000a900473ffffffffffffffffffffffffffffffffffffffff1673ffffffffffffffffffffffffffffffffffffffff1673ffffffffffffffffffffffffffffffffffffffff168152602001908152602001600020600001905060005b81805490508110156116595761164c82828154811061163957fe5b9060005260206000209060190201611987565b808060010191505061161e565b50508080600101915050611591565b50565b611673612137565b61167b612178565b602a85600581111561168957fe5b6006811061169357fe5b600502016005806020026040519081016040528092919082600580156116ce576020028201915b8154815260200190600101908083116116ba575b505050505090506116dd612178565b602a8660058111156116eb57fe5b600681106116f557fe5b60050201600580602002604051908101604052809291908260058015611730576020028201915b81548152602001906001019080831161171c575b5050505050905061173f612178565b602a87600581111561174d57fe5b6006811061175757fe5b60050201600580602002604051908101604052809291908260058015611792576020028201915b81548152602001906001019080831161177e575b5050505050905060005b60488860058111156117aa57fe5b600681106117b457fe5b015481101561184e576212750042038482600581106117cf57fe5b602002018181510191508181525050428382600581106117eb57fe5b6020020181815101915081815250506127108060068a600581111561180c57fe5b6006811061181657fe5b0154888a02028161182357fe5b048161182b57fe5b0482826005811061183857fe5b602002018181525050808060010191505061179c565b506040518060a00160405280428152602001600089600581111561186e57fe5b6006811061187857fe5b0154420181526020018481526020018381526020018281525093505050509392505050565b6060605680548060200260200160405190810160405280929190818152602001828054801561192157602002820191906000526020600020905b8160009054906101000a900473ffffffffffffffffffffffffffffffffffffffff1673ffffffffffffffffffffffffffffffffffffffff16815260200190600101908083116118d7575b5050505050905090565b806040516119399190612ec9565b60405180910390203373ffffffffffffffffffffffffffffffffffffffff167fcaae09dd31620e2c5bcf9e6dad95456038e24d2e3cace50697de61f62f30687260405160405180910390a350565b61198f61219a565b605760009054906101000a900473ffffffffffffffffffffffffffffffffffffffff1673ffffffffffffffffffffffffffffffffffffffff1663069fa00c6040518163ffffffff1660e01b81526004016102a06040518083038186803b1580156119f857600080fd5b505afa158015611a0c573d6000803e3d6000fd5b505050506040513d601f19601f82011682018060405250810190611a3091906125da565b9050611a3a6121c7565b818360020160159054906101000a900460ff166002811115611a5857fe5b60038110611a6257fe5b60200201519050611a71612204565b6040518060e0016040528083600001518152602001836020015181526020018360400151815260200183606001518152602001836080015181526020018360a0015181526020018360c001518152509050611aca612178565b84600501600701600580602002604051908101604052809291908260058015611b08576020028201915b815481526020019060010190808311611af4575b50505050509050611b17612178565b85600501600c01600580602002604051908101604052809291908260058015611b55576020028201915b815481526020019060010190808311611b41575b50505050509050611b64612178565b6000805b60488960020160169054906101000a900460ff166005811115611b8757fe5b60068110611b9157fe5b0154811015611bfe576000611bb687878460058110611bac57fe5b6020020151611e58565b905080848360058110611bc557fe5b60200201818152505061271081868460058110611bde57fe5b60200201510281611beb57fe5b0483019250508080600101915050611b68565b506000600160488a60020160169054906101000a900460ff166005811115611c2257fe5b60068110611c2c57fe5b0154039050612710838260058110611c4057fe5b60200201518a600301540281611c5257fe5b0482019150818960160181905550428960170181905550505050505050505050565b611c7c611fc9565b611c84611fc9565b8281600001818152505060006001811115611c9b57fe5b85602001516001811115611cab57fe5b14611cb65733611cbc565b84600001515b816020019073ffffffffffffffffffffffffffffffffffffffff16908173ffffffffffffffffffffffffffffffffffffffff1681525050600180811115611cff57fe5b85602001516001811115611d0f57fe5b14611d1a5733611d20565b84600001515b816040019073ffffffffffffffffffffffffffffffffffffffff16908173ffffffffffffffffffffffffffffffffffffffff1681525050846020015181606001906001811115611d6c57fe5b90816001811115611d7957fe5b81525050846040015181608001906002811115611d9257fe5b90816002811115611d9f57fe5b8152505084606001518160a001906005811115611db857fe5b90816005811115611dc557fe5b8152505084608001518160c0018181525050838160e0018181525050611df4856060015186608001518661166b565b816101000181905250846080015181610120018181525050428161014001818152505060018161016001901515908115158152505060008161018001906005811115611e3c57fe5b90816005811115611e4957fe5b81525050809150509392505050565b6000428211611e6a5760009050611fa0565b60004283039050604e600060078110611e7f57fe5b01548111611ebb57604e600060078110611e9557fe5b01548185600060078110611ea557fe5b60200201510281611eb257fe5b04915050611fa0565b6000600190505b6007811015611f9d5781604e6001830360078110611edc57fe5b0154108015611ef95750604e8160078110611ef357fe5b01548211155b15611f90576000604e6001830360078110611f1057fe5b015483039050600083604e8460078110611f2657fe5b01540390506000604e6001850360078110611f3d57fe5b0154604e8560078110611f4c57fe5b01540390508083898660078110611f5f57fe5b602002015102838a6001880360078110611f7557fe5b6020020151020181611f8357fe5b0495505050505050611fa0565b8080600101915050611ec2565b50505b92915050565b604051806060016040528060608152602001600081526020016000151581525090565b604051806101a0016040528060008152602001600073ffffffffffffffffffffffffffffffffffffffff168152602001600073ffffffffffffffffffffffffffffffffffffffff1681526020016000600181111561202357fe5b81526020016000600281111561203557fe5b81526020016000600581111561204757fe5b81526020016000815260200160008152602001612062612137565b815260200160008152602001600081526020016000151581526020016000600581111561208b57fe5b81525090565b6040518060a00160405280600073ffffffffffffffffffffffffffffffffffffffff168152602001600060018111156120c657fe5b8152602001600060028111156120d857fe5b8152602001600060058111156120ea57fe5b8152602001600081525090565b8260058101928215612126579160200282015b8281111561212557825182559160200191906001019061210a565b5b5090506121339190612226565b5090565b6040518060a001604052806000815260200160008152602001612158612178565b8152602001612165612178565b8152602001612172612178565b81525090565b6040518060a00160405280600590602082028036833780820191505090505090565b60405180606001604052806003905b6121b16121c7565b8152602001906001900390816121a95790505090565b6040518060e00160405280600081526020016000815260200160008152602001600081526020016000815260200160008152602001600081525090565b6040518060e00160405280600790602082028036833780820191505090505090565b5b8082111561223f576000816000905550600101612227565b5090565b600081359050612252816134d0565b92915050565b600082601f83011261226957600080fd5b600361227c612277826131fb565b6131ce565b915081838560e084028201111561229257600080fd5b60005b838110156122c257816122a8888261235f565b845260208401935060e08301925050600181019050612295565b5050505092915050565b6000813590506122db816134e7565b92915050565b6000813590506122f0816134f7565b92915050565b60008135905061230581613507565b92915050565b600082601f83011261231c57600080fd5b813561232f61232a8261321d565b6131ce565b9150808252602083016020830185838301111561234b57600080fd5b61235683828461345a565b50505092915050565b600060e0828403121561237157600080fd5b61237b60e06131ce565b9050600061238b84828501612424565b600083015250602061239f84828501612424565b60208301525060406123b384828501612424565b60408301525060606123c784828501612424565b60608301525060806123db84828501612424565b60808301525060a06123ef84828501612424565b60a08301525060c061240384828501612424565b60c08301525092915050565b60008135905061241e81613517565b92915050565b60008151905061243381613517565b92915050565b60006020828403121561244b57600080fd5b600061245984828501612243565b91505092915050565b600080600080600080600060e0888a03121561247d57600080fd5b600061248b8a828b01612243565b975050602061249c8a828b01612243565b96505060406124ad8a828b016122e1565b95505060606124be8a828b016122cc565b94505060806124cf8a828b0161240f565b93505060a06124e08a828b0161240f565b92505060c06124f18a828b0161240f565b91505092959891949750929550565b6000806000806080858703121561251657600080fd5b600061252487828801612243565b945050602061253587828801612243565b93505060406125468782880161240f565b92505060606125578782880161240f565b91505092959194509250565b600080600080600060a0868803121561257b57600080fd5b600061258988828901612243565b955050602061259a888289016122e1565b94505060406125ab888289016122cc565b93505060606125bc888289016122f6565b92505060806125cd8882890161240f565b9150509295509295909350565b60006102a082840312156125ed57600080fd5b60006125fb84828501612258565b91505092915050565b60008060006060848603121561261957600080fd5b6000612627868287016122f6565b93505060206126388682870161240f565b92505060406126498682870161240f565b9150509250925092565b60006020828403121561266557600080fd5b600082013567ffffffffffffffff81111561267f57600080fd5b61268b8482850161230b565b91505092915050565b6000602082840312156126a657600080fd5b60006126b48482850161240f565b91505092915050565b6000602082840312156126cf57600080fd5b60006126dd84828501612424565b91505092915050565b60006126f28383612752565b60208301905092915050565b600061270a8383612b21565b905092915050565b600061271e8383612bc1565b6103a08301905092915050565b60006127378383612eab565b60208301905092915050565b61274c816133dc565b82525050565b61275b81613348565b82525050565b61276a81613348565b82525050565b600061277b82613283565b61278581856132ee565b935061279083613249565b8060005b838110156127c15781516127a888826126e6565b97506127b3836132ba565b925050600181019050612794565b5085935050505092915050565b60006127d98261328e565b6127e381856132ff565b9350836020820285016127f585613259565b8060005b85811015612831578484038952815161281285826126fe565b945061281d836132c7565b925060208a019950506001810190506127f9565b50829750879550505050505092915050565b600061284e82613299565b6128588185613310565b935061286383613269565b8060005b8381101561289457815161287b8882612712565b9750612886836132d4565b925050600181019050612867565b5085935050505092915050565b6128aa816132a4565b6128b48184613321565b92506128bf82613279565b8060005b838110156128f05781516128d7878261272b565b96506128e2836132e1565b9250506001810190506128c3565b505050505050565b6129018161335a565b82525050565b612910816133ee565b82525050565b61291f816133ee565b82525050565b61292e81613400565b82525050565b61293d81613400565b82525050565b61294c81613412565b82525050565b61295b81613424565b82525050565b61296a81613424565b82525050565b600061297b826132af565b612985818561333d565b9350612995818560208601613469565b80840191505092915050565b60006129ae601f8361332c565b91507f53616d6520706572736f6e206465616c206973206e6f7420616c6c6f776564006000830152602082019050919050565b60006129ee60128361332c565b91507f6e6f206c6f616e206974656d20666f756e6400000000000000000000000000006000830152602082019050919050565b6000612a2e60188361332c565b91507f636f6e6669726d20616d6f756e74206e6f74206d6174636800000000000000006000830152602082019050919050565b6000612a6e601a8361332c565b91507f6d73672e73656e646572206973206e6f7420626f72726f7765720000000000006000830152602082019050919050565b6000612aae60188361332c565b91507f6d73672e73656e646572206973206e6f74206c656e64657200000000000000006000830152602082019050919050565b6000612aee60158361332c565b91507f626f72726f776572206d75737420636f6e6669726d00000000000000000000006000830152602082019050919050565b60006060830160008301518482036000860152612b3e8282612843565b9150506020830151612b536020860182612eab565b506040830151612b6660408601826128f8565b508091505092915050565b60006060830160008301518482036000860152612b8e8282612843565b9150506020830151612ba36020860182612eab565b506040830151612bb660408601826128f8565b508091505092915050565b6103a082016000820151612bd86000850182612eab565b506020820151612beb6020850182612752565b506040820151612bfe6040850182612752565b506060820151612c116060850182612925565b506080820151612c246080850182612907565b5060a0820151612c3760a0850182612952565b5060c0820151612c4a60c0850182612eab565b5060e0820151612c5d60e0850182612eab565b50610100820151612c72610100850182612dd7565b50610120820151612c87610320850182612eab565b50610140820151612c9c610340850182612eab565b50610160820151612cb16103608501826128f8565b50610180820151612cc6610380850182612943565b50505050565b6103a082016000820151612ce36000850182612eab565b506020820151612cf66020850182612752565b506040820151612d096040850182612752565b506060820151612d1c6060850182612925565b506080820151612d2f6080850182612907565b5060a0820151612d4260a0850182612952565b5060c0820151612d5560c0850182612eab565b5060e0820151612d6860e0850182612eab565b50610100820151612d7d610100850182612dd7565b50610120820151612d92610320850182612eab565b50610140820151612da7610340850182612eab565b50610160820151612dbc6103608501826128f8565b50610180820151612dd1610380850182612943565b50505050565b61022082016000820151612dee6000850182612eab565b506020820151612e016020850182612eab565b506040820151612e1460408501826128a1565b506060820151612e2760e08501826128a1565b506080820151612e3b6101808501826128a1565b50505050565b61022082016000820151612e586000850182612eab565b506020820151612e6b6020850182612eab565b506040820151612e7e60408501826128a1565b506060820151612e9160e08501826128a1565b506080820151612ea56101808501826128a1565b50505050565b612eb4816133d2565b82525050565b612ec3816133d2565b82525050565b6000612ed58284612970565b915081905092915050565b6000602082019050612ef56000830184612761565b92915050565b600060a082019050612f106000830188612761565b612f1d6020830187612934565b612f2a6040830186612916565b612f376060830185612961565b612f446080830184612eba565b9695505050505050565b600060c082019050612f636000830189612761565b612f706020830188612934565b612f7d6040830187612916565b612f8a6060830186612961565b612f976080830185612eba565b612fa460a0830184612eba565b979650505050505050565b60006020820190508181036000830152612fc98184612770565b905092915050565b60006020820190508181036000830152612feb81846127ce565b905092915050565b60006060820190506130086000830186612916565b6130156020830185612eba565b6130226040830184612761565b949350505050565b600060608201905061303f6000830186612916565b61304c6020830185612eba565b6130596040830184612743565b949350505050565b600060a0820190506130766000830188612934565b6130836020830187612916565b6130906040830186612eba565b61309d6060830185612eba565b6130aa6080830184612eba565b9695505050505050565b600060208201905081810360008301526130cd816129a1565b9050919050565b600060208201905081810360008301526130ed816129e1565b9050919050565b6000602082019050818103600083015261310d81612a21565b9050919050565b6000602082019050818103600083015261312d81612a61565b9050919050565b6000602082019050818103600083015261314d81612aa1565b9050919050565b6000602082019050818103600083015261316d81612ae1565b9050919050565b6000602082019050818103600083015261318e8184612b71565b905092915050565b60006103a0820190506131ac6000830184612ccc565b92915050565b6000610220820190506131c86000830184612e41565b92915050565b6000604051905081810181811067ffffffffffffffff821117156131f157600080fd5b8060405250919050565b600067ffffffffffffffff82111561321257600080fd5b602082029050919050565b600067ffffffffffffffff82111561323457600080fd5b601f19601f8301169050602081019050919050565b6000819050602082019050919050565b6000819050602082019050919050565b6000819050602082019050919050565b6000819050919050565b600081519050919050565b600081519050919050565b600081519050919050565b600060059050919050565b600081519050919050565b6000602082019050919050565b6000602082019050919050565b6000602082019050919050565b6000602082019050919050565b600082825260208201905092915050565b600082825260208201905092915050565b600082825260208201905092915050565b600081905092915050565b600082825260208201905092915050565b600081905092915050565b6000613353826133b2565b9050919050565b60008115159050919050565b60008190506133748261349c565b919050565b6000819050613387826134a9565b919050565b600081905061339a826134b6565b919050565b60008190506133ad826134c3565b919050565b600073ffffffffffffffffffffffffffffffffffffffff82169050919050565b6000819050919050565b60006133e782613436565b9050919050565b60006133f982613366565b9050919050565b600061340b82613379565b9050919050565b600061341d8261338c565b9050919050565b600061342f8261339f565b9050919050565b600061344182613448565b9050919050565b6000613453826133b2565b9050919050565b82818337600083830152505050565b60005b8381101561348757808201518184015260208101905061346c565b83811115613496576000848401525b50505050565b600381106134a657fe5b50565b600281106134b357fe5b50565b600681106134c057fe5b50565b600681106134cd57fe5b50565b6134d981613348565b81146134e457600080fd5b50565b600381106134f457600080fd5b50565b6002811061350457600080fd5b50565b6006811061351457600080fd5b50565b613520816133d2565b811461352b57600080fd5b5056fea26469706673582212203b6e68011aaa0247c1417f68f462280ac6eeb6ba14031ff42aa630455f4e422a64736f6c634300060c0033",
			"opcodes": "PUSH1 0x80 PUSH1 0x40 MSTORE PUSH1 0x40 MLOAD DUP1 PUSH1 0xC0 ADD PUSH1 0x40 MSTORE DUP1 PUSH3 0x76A700 PUSH4 0xFFFFFFFF AND DUP2 MSTORE PUSH1 0x20 ADD PUSH3 0xED4E00 PUSH4 0xFFFFFFFF AND DUP2 MSTORE PUSH1 0x20 ADD PUSH4 0x1E13380 PUSH4 0xFFFFFFFF AND DUP2 MSTORE PUSH1 0x20 ADD PUSH4 0x3C26700 PUSH4 0xFFFFFFFF AND DUP2 MSTORE PUSH1 0x20 ADD PUSH4 0x5A39A80 PUSH4 0xFFFFFFFF AND DUP2 MSTORE PUSH1 0x20 ADD PUSH4 0x9660180 PUSH4 0xFFFFFFFF AND DUP2 MSTORE POP PUSH1 0x0 SWAP1 PUSH1 0x6 PUSH3 0x7D SWAP3 SWAP2 SWAP1 PUSH3 0x603 JUMP JUMPDEST POP PUSH1 0x40 MLOAD DUP1 PUSH1 0xC0 ADD PUSH1 0x40 MSTORE DUP1 PUSH2 0x168 PUSH1 0x5A PUSH2 0x2710 MUL DUP2 PUSH3 0x9A JUMPI INVALID JUMPDEST DIV DUP2 MSTORE PUSH1 0x20 ADD PUSH2 0x168 PUSH1 0xB4 PUSH2 0x2710 MUL DUP2 PUSH3 0xB1 JUMPI INVALID JUMPDEST DIV DUP2 MSTORE PUSH1 0x20 ADD PUSH1 0x1 PUSH2 0x2710 MUL DUP2 MSTORE PUSH1 0x20 ADD PUSH1 0x1 PUSH2 0x2710 MUL DUP2 MSTORE PUSH1 0x20 ADD PUSH1 0x1 PUSH2 0x2710 MUL DUP2 MSTORE PUSH1 0x20 ADD PUSH1 0x1 PUSH2 0x2710 MUL DUP2 MSTORE POP PUSH1 0x6 SWAP1 PUSH1 0x6 PUSH3 0xF3 SWAP3 SWAP2 SWAP1 PUSH3 0x650 JUMP JUMPDEST POP PUSH1 0x40 MLOAD DUP1 PUSH1 0x20 ADD PUSH1 0x40 MSTORE DUP1 PUSH3 0x76A700 PUSH3 0xFFFFFF AND DUP2 MSTORE POP PUSH1 0xC SWAP1 PUSH1 0x1 PUSH3 0x11D SWAP3 SWAP2 SWAP1 PUSH3 0x695 JUMP JUMPDEST POP PUSH1 0x40 MLOAD DUP1 PUSH1 0x20 ADD PUSH1 0x40 MSTORE DUP1 PUSH3 0xED4E00 PUSH3 0xFFFFFF AND DUP2 MSTORE POP PUSH1 0x11 SWAP1 PUSH1 0x1 PUSH3 0x147 SWAP3 SWAP2 SWAP1 PUSH3 0x695 JUMP JUMPDEST POP PUSH1 0x40 MLOAD DUP1 PUSH1 0x20 ADD PUSH1 0x40 MSTORE DUP1 PUSH4 0x1E13380 PUSH4 0xFFFFFFFF AND DUP2 MSTORE POP PUSH1 0x16 SWAP1 PUSH1 0x1 PUSH3 0x173 SWAP3 SWAP2 SWAP1 PUSH3 0x6E1 JUMP JUMPDEST POP PUSH1 0x40 MLOAD DUP1 PUSH1 0x40 ADD PUSH1 0x40 MSTORE DUP1 PUSH4 0x1E13380 PUSH4 0xFFFFFFFF AND DUP2 MSTORE PUSH1 0x20 ADD PUSH4 0x3C26700 PUSH4 0xFFFFFFFF AND DUP2 MSTORE POP PUSH1 0x1B SWAP1 PUSH1 0x2 PUSH3 0x1AF SWAP3 SWAP2 SWAP1 PUSH3 0x72E JUMP JUMPDEST POP PUSH1 0x40 MLOAD DUP1 PUSH1 0x60 ADD PUSH1 0x40 MSTORE DUP1 PUSH4 0x1E13380 PUSH4 0xFFFFFFFF AND DUP2 MSTORE PUSH1 0x20 ADD PUSH4 0x3C26700 PUSH4 0xFFFFFFFF AND DUP2 MSTORE PUSH1 0x20 ADD PUSH4 0x5A39A80 PUSH4 0xFFFFFFFF AND DUP2 MSTORE POP PUSH1 0x20 SWAP1 PUSH1 0x3 PUSH3 0x1FB SWAP3 SWAP2 SWAP1 PUSH3 0x77B JUMP JUMPDEST POP PUSH1 0x40 MLOAD DUP1 PUSH1 0xA0 ADD PUSH1 0x40 MSTORE DUP1 PUSH4 0x1E13380 PUSH4 0xFFFFFFFF AND DUP2 MSTORE PUSH1 0x20 ADD PUSH4 0x3C26700 PUSH4 0xFFFFFFFF AND DUP2 MSTORE PUSH1 0x20 ADD PUSH4 0x5A39A80 PUSH4 0xFFFFFFFF AND DUP2 MSTORE PUSH1 0x20 ADD PUSH4 0x784CE00 PUSH4 0xFFFFFFFF AND DUP2 MSTORE PUSH1 0x20 ADD PUSH4 0x9660180 PUSH4 0xFFFFFFFF AND DUP2 MSTORE POP PUSH1 0x25 SWAP1 PUSH1 0x5 PUSH3 0x267 SWAP3 SWAP2 SWAP1 PUSH3 0x7C8 JUMP JUMPDEST POP PUSH1 0x40 MLOAD DUP1 PUSH1 0xC0 ADD PUSH1 0x40 MSTORE DUP1 PUSH1 0xC PUSH1 0x5 DUP1 PUSH1 0x20 MUL PUSH1 0x40 MLOAD SWAP1 DUP2 ADD PUSH1 0x40 MSTORE DUP1 SWAP3 SWAP2 SWAP1 DUP3 PUSH1 0x5 DUP1 ISZERO PUSH3 0x2AE JUMPI PUSH1 0x20 MUL DUP3 ADD SWAP2 JUMPDEST DUP2 SLOAD DUP2 MSTORE PUSH1 0x20 ADD SWAP1 PUSH1 0x1 ADD SWAP1 DUP1 DUP4 GT PUSH3 0x299 JUMPI JUMPDEST POP POP POP POP POP DUP2 MSTORE PUSH1 0x20 ADD PUSH1 0x11 PUSH1 0x5 DUP1 PUSH1 0x20 MUL PUSH1 0x40 MLOAD SWAP1 DUP2 ADD PUSH1 0x40 MSTORE DUP1 SWAP3 SWAP2 SWAP1 DUP3 PUSH1 0x5 DUP1 ISZERO PUSH3 0x2F3 JUMPI PUSH1 0x20 MUL DUP3 ADD SWAP2 JUMPDEST DUP2 SLOAD DUP2 MSTORE PUSH1 0x20 ADD SWAP1 PUSH1 0x1 ADD SWAP1 DUP1 DUP4 GT PUSH3 0x2DE JUMPI JUMPDEST POP POP POP POP POP DUP2 MSTORE PUSH1 0x20 ADD PUSH1 0x16 PUSH1 0x5 DUP1 PUSH1 0x20 MUL PUSH1 0x40 MLOAD SWAP1 DUP2 ADD PUSH1 0x40 MSTORE DUP1 SWAP3 SWAP2 SWAP1 DUP3 PUSH1 0x5 DUP1 ISZERO PUSH3 0x338 JUMPI PUSH1 0x20 MUL DUP3 ADD SWAP2 JUMPDEST DUP2 SLOAD DUP2 MSTORE PUSH1 0x20 ADD SWAP1 PUSH1 0x1 ADD SWAP1 DUP1 DUP4 GT PUSH3 0x323 JUMPI JUMPDEST POP POP POP POP POP DUP2 MSTORE PUSH1 0x20 ADD PUSH1 0x1B PUSH1 0x5 DUP1 PUSH1 0x20 MUL PUSH1 0x40 MLOAD SWAP1 DUP2 ADD PUSH1 0x40 MSTORE DUP1 SWAP3 SWAP2 SWAP1 DUP3 PUSH1 0x5 DUP1 ISZERO PUSH3 0x37D JUMPI PUSH1 0x20 MUL DUP3 ADD SWAP2 JUMPDEST DUP2 SLOAD DUP2 MSTORE PUSH1 0x20 ADD SWAP1 PUSH1 0x1 ADD SWAP1 DUP1 DUP4 GT PUSH3 0x368 JUMPI JUMPDEST POP POP POP POP POP DUP2 MSTORE PUSH1 0x20 ADD PUSH1 0x20 PUSH1 0x5 DUP1 PUSH1 0x20 MUL PUSH1 0x40 MLOAD SWAP1 DUP2 ADD PUSH1 0x40 MSTORE DUP1 SWAP3 SWAP2 SWAP1 DUP3 PUSH1 0x5 DUP1 ISZERO PUSH3 0x3C2 JUMPI PUSH1 0x20 MUL DUP3 ADD SWAP2 JUMPDEST DUP2 SLOAD DUP2 MSTORE PUSH1 0x20 ADD SWAP1 PUSH1 0x1 ADD SWAP1 DUP1 DUP4 GT PUSH3 0x3AD JUMPI JUMPDEST POP POP POP POP POP DUP2 MSTORE PUSH1 0x20 ADD PUSH1 0x25 PUSH1 0x5 DUP1 PUSH1 0x20 MUL PUSH1 0x40 MLOAD SWAP1 DUP2 ADD PUSH1 0x40 MSTORE DUP1 SWAP3 SWAP2 SWAP1 DUP3 PUSH1 0x5 DUP1 ISZERO PUSH3 0x407 JUMPI PUSH1 0x20 MUL DUP3 ADD SWAP2 JUMPDEST DUP2 SLOAD DUP2 MSTORE PUSH1 0x20 ADD SWAP1 PUSH1 0x1 ADD SWAP1 DUP1 DUP4 GT PUSH3 0x3F2 JUMPI JUMPDEST POP POP POP POP POP DUP2 MSTORE POP PUSH1 0x2A SWAP1 PUSH1 0x6 PUSH3 0x421 SWAP3 SWAP2 SWAP1 PUSH3 0x815 JUMP JUMPDEST POP PUSH1 0x40 MLOAD DUP1 PUSH1 0xC0 ADD PUSH1 0x40 MSTORE DUP1 PUSH1 0x1 PUSH1 0xFF AND DUP2 MSTORE PUSH1 0x20 ADD PUSH1 0x1 PUSH1 0xFF AND DUP2 MSTORE PUSH1 0x20 ADD PUSH1 0x1 PUSH1 0xFF AND DUP2 MSTORE PUSH1 0x20 ADD PUSH1 0x2 PUSH1 0xFF AND DUP2 MSTORE PUSH1 0x20 ADD PUSH1 0x3 PUSH1 0xFF AND DUP2 MSTORE PUSH1 0x20 ADD PUSH1 0x5 PUSH1 0xFF AND DUP2 MSTORE POP PUSH1 0x48 SWAP1 PUSH1 0x6 PUSH3 0x479 SWAP3 SWAP2 SWAP1 PUSH3 0x86D JUMP JUMPDEST POP PUSH1 0x40 MLOAD DUP1 PUSH1 0xE0 ADD PUSH1 0x40 MSTORE DUP1 PUSH3 0x76A700 PUSH4 0xFFFFFFFF AND DUP2 MSTORE PUSH1 0x20 ADD PUSH3 0xED4E00 PUSH4 0xFFFFFFFF AND DUP2 MSTORE PUSH1 0x20 ADD PUSH4 0x1E13380 PUSH4 0xFFFFFFFF AND DUP2 MSTORE PUSH1 0x20 ADD PUSH4 0x3C26700 PUSH4 0xFFFFFFFF AND DUP2 MSTORE PUSH1 0x20 ADD PUSH4 0x5A39A80 PUSH4 0xFFFFFFFF AND DUP2 MSTORE PUSH1 0x20 ADD PUSH4 0x784CE00 PUSH4 0xFFFFFFFF AND DUP2 MSTORE PUSH1 0x20 ADD PUSH4 0x9660180 PUSH4 0xFFFFFFFF AND DUP2 MSTORE POP PUSH1 0x4E SWAP1 PUSH1 0x7 PUSH3 0x503 SWAP3 SWAP2 SWAP1 PUSH3 0x8B7 JUMP JUMPDEST POP CALLVALUE DUP1 ISZERO PUSH3 0x511 JUMPI PUSH1 0x0 DUP1 REVERT JUMPDEST POP PUSH1 0x40 MLOAD PUSH3 0x3FE2 CODESIZE SUB DUP1 PUSH3 0x3FE2 DUP4 CODECOPY DUP2 DUP2 ADD PUSH1 0x40 MSTORE DUP2 ADD SWAP1 PUSH3 0x537 SWAP2 SWAP1 PUSH3 0x9CA JUMP JUMPDEST DUP3 PUSH1 0x57 PUSH1 0x0 PUSH2 0x100 EXP DUP2 SLOAD DUP2 PUSH20 0xFFFFFFFFFFFFFFFFFFFFFFFFFFFFFFFFFFFFFFFF MUL NOT AND SWAP1 DUP4 PUSH20 0xFFFFFFFFFFFFFFFFFFFFFFFFFFFFFFFFFFFFFFFF AND MUL OR SWAP1 SSTORE POP DUP2 PUSH1 0x58 PUSH1 0x0 PUSH2 0x100 EXP DUP2 SLOAD DUP2 PUSH20 0xFFFFFFFFFFFFFFFFFFFFFFFFFFFFFFFFFFFFFFFF MUL NOT AND SWAP1 DUP4 PUSH20 0xFFFFFFFFFFFFFFFFFFFFFFFFFFFFFFFFFFFFFFFF AND MUL OR SWAP1 SSTORE POP DUP1 PUSH1 0x59 PUSH1 0x0 PUSH2 0x100 EXP DUP2 SLOAD DUP2 PUSH20 0xFFFFFFFFFFFFFFFFFFFFFFFFFFFFFFFFFFFFFFFF MUL NOT AND SWAP1 DUP4 PUSH20 0xFFFFFFFFFFFFFFFFFFFFFFFFFFFFFFFFFFFFFFFF AND MUL OR SWAP1 SSTORE POP POP POP POP PUSH3 0xA6E JUMP JUMPDEST DUP3 PUSH1 0x6 DUP2 ADD SWAP3 DUP3 ISZERO PUSH3 0x63D JUMPI SWAP2 PUSH1 0x20 MUL DUP3 ADD JUMPDEST DUP3 DUP2 GT ISZERO PUSH3 0x63C JUMPI DUP3 MLOAD DUP3 SWAP1 PUSH4 0xFFFFFFFF AND SWAP1 SSTORE SWAP2 PUSH1 0x20 ADD SWAP2 SWAP1 PUSH1 0x1 ADD SWAP1 PUSH3 0x617 JUMP JUMPDEST JUMPDEST POP SWAP1 POP PUSH3 0x64C SWAP2 SWAP1 PUSH3 0x904 JUMP JUMPDEST POP SWAP1 JUMP JUMPDEST DUP3 PUSH1 0x6 DUP2 ADD SWAP3 DUP3 ISZERO PUSH3 0x682 JUMPI SWAP2 PUSH1 0x20 MUL DUP3 ADD JUMPDEST DUP3 DUP2 GT ISZERO PUSH3 0x681 JUMPI DUP3 MLOAD DUP3 SSTORE SWAP2 PUSH1 0x20 ADD SWAP2 SWAP1 PUSH1 0x1 ADD SWAP1 PUSH3 0x664 JUMP JUMPDEST JUMPDEST POP SWAP1 POP PUSH3 0x691 SWAP2 SWAP1 PUSH3 0x904 JUMP JUMPDEST POP SWAP1 JUMP JUMPDEST DUP3 PUSH1 0x5 DUP2 ADD SWAP3 DUP3 ISZERO PUSH3 0x6CE JUMPI SWAP2 PUSH1 0x20 MUL DUP3 ADD JUMPDEST DUP3 DUP2 GT ISZERO PUSH3 0x6CD JUMPI DUP3 MLOAD DUP3 SWAP1 PUSH3 0xFFFFFF AND SWAP1 SSTORE SWAP2 PUSH1 0x20 ADD SWAP2 SWAP1 PUSH1 0x1 ADD SWAP1 PUSH3 0x6A9 JUMP JUMPDEST JUMPDEST POP SWAP1 POP PUSH3 0x6DD SWAP2 SWAP1 PUSH3 0x904 JUMP JUMPDEST POP SWAP1 JUMP JUMPDEST DUP3 PUSH1 0x5 DUP2 ADD SWAP3 DUP3 ISZERO PUSH3 0x71B JUMPI SWAP2 PUSH1 0x20 MUL DUP3 ADD JUMPDEST DUP3 DUP2 GT ISZERO PUSH3 0x71A JUMPI DUP3 MLOAD DUP3 SWAP1 PUSH4 0xFFFFFFFF AND SWAP1 SSTORE SWAP2 PUSH1 0x20 ADD SWAP2 SWAP1 PUSH1 0x1 ADD SWAP1 PUSH3 0x6F5 JUMP JUMPDEST JUMPDEST POP SWAP1 POP PUSH3 0x72A SWAP2 SWAP1 PUSH3 0x904 JUMP JUMPDEST POP SWAP1 JUMP JUMPDEST DUP3 PUSH1 0x5 DUP2 ADD SWAP3 DUP3 ISZERO PUSH3 0x768 JUMPI SWAP2 PUSH1 0x20 MUL DUP3 ADD JUMPDEST DUP3 DUP2 GT ISZERO PUSH3 0x767 JUMPI DUP3 MLOAD DUP3 SWAP1 PUSH4 0xFFFFFFFF AND SWAP1 SSTORE SWAP2 PUSH1 0x20 ADD SWAP2 SWAP1 PUSH1 0x1 ADD SWAP1 PUSH3 0x742 JUMP JUMPDEST JUMPDEST POP SWAP1 POP PUSH3 0x777 SWAP2 SWAP1 PUSH3 0x904 JUMP JUMPDEST POP SWAP1 JUMP JUMPDEST DUP3 PUSH1 0x5 DUP2 ADD SWAP3 DUP3 ISZERO PUSH3 0x7B5 JUMPI SWAP2 PUSH1 0x20 MUL DUP3 ADD JUMPDEST DUP3 DUP2 GT ISZERO PUSH3 0x7B4 JUMPI DUP3 MLOAD DUP3 SWAP1 PUSH4 0xFFFFFFFF AND SWAP1 SSTORE SWAP2 PUSH1 0x20 ADD SWAP2 SWAP1 PUSH1 0x1 ADD SWAP1 PUSH3 0x78F JUMP JUMPDEST JUMPDEST POP SWAP1 POP PUSH3 0x7C4 SWAP2 SWAP1 PUSH3 0x904 JUMP JUMPDEST POP SWAP1 JUMP JUMPDEST DUP3 PUSH1 0x5 DUP2 ADD SWAP3 DUP3 ISZERO PUSH3 0x802 JUMPI SWAP2 PUSH1 0x20 MUL DUP3 ADD JUMPDEST DUP3 DUP2 GT ISZERO PUSH3 0x801 JUMPI DUP3 MLOAD DUP3 SWAP1 PUSH4 0xFFFFFFFF AND SWAP1 SSTORE SWAP2 PUSH1 0x20 ADD SWAP2 SWAP1 PUSH1 0x1 ADD SWAP1 PUSH3 0x7DC JUMP JUMPDEST JUMPDEST POP SWAP1 POP PUSH3 0x811 SWAP2 SWAP1 PUSH3 0x904 JUMP JUMPDEST POP SWAP1 JUMP JUMPDEST DUP3 PUSH1 0x6 PUSH1 0x5 MUL DUP2 ADD SWAP3 DUP3 ISZERO PUSH3 0x85A JUMPI SWAP2 PUSH1 0x20 MUL DUP3 ADD JUMPDEST DUP3 DUP2 GT ISZERO PUSH3 0x859 JUMPI DUP3 MLOAD DUP3 SWAP1 PUSH1 0x5 PUSH3 0x848 SWAP3 SWAP2 SWAP1 PUSH3 0x923 JUMP JUMPDEST POP SWAP2 PUSH1 0x20 ADD SWAP2 SWAP1 PUSH1 0x5 ADD SWAP1 PUSH3 0x82C JUMP JUMPDEST JUMPDEST POP SWAP1 POP PUSH3 0x869 SWAP2 SWAP1 PUSH3 0x968 JUMP JUMPDEST POP SWAP1 JUMP JUMPDEST DUP3 PUSH1 0x6 DUP2 ADD SWAP3 DUP3 ISZERO PUSH3 0x8A4 JUMPI SWAP2 PUSH1 0x20 MUL DUP3 ADD JUMPDEST DUP3 DUP2 GT ISZERO PUSH3 0x8A3 JUMPI DUP3 MLOAD DUP3 SWAP1 PUSH1 0xFF AND SWAP1 SSTORE SWAP2 PUSH1 0x20 ADD SWAP2 SWAP1 PUSH1 0x1 ADD SWAP1 PUSH3 0x881 JUMP JUMPDEST JUMPDEST POP SWAP1 POP PUSH3 0x8B3 SWAP2 SWAP1 PUSH3 0x904 JUMP JUMPDEST POP SWAP1 JUMP JUMPDEST DUP3 PUSH1 0x7 DUP2 ADD SWAP3 DUP3 ISZERO PUSH3 0x8F1 JUMPI SWAP2 PUSH1 0x20 MUL DUP3 ADD JUMPDEST DUP3 DUP2 GT ISZERO PUSH3 0x8F0 JUMPI DUP3 MLOAD DUP3 SWAP1 PUSH4 0xFFFFFFFF AND SWAP1 SSTORE SWAP2 PUSH1 0x20 ADD SWAP2 SWAP1 PUSH1 0x1 ADD SWAP1 PUSH3 0x8CB JUMP JUMPDEST JUMPDEST POP SWAP1 POP PUSH3 0x900 SWAP2 SWAP1 PUSH3 0x904 JUMP JUMPDEST POP SWAP1 JUMP JUMPDEST JUMPDEST DUP1 DUP3 GT ISZERO PUSH3 0x91F JUMPI PUSH1 0x0 DUP2 PUSH1 0x0 SWAP1 SSTORE POP PUSH1 0x1 ADD PUSH3 0x905 JUMP JUMPDEST POP SWAP1 JUMP JUMPDEST DUP3 PUSH1 0x5 DUP2 ADD SWAP3 DUP3 ISZERO PUSH3 0x955 JUMPI SWAP2 PUSH1 0x20 MUL DUP3 ADD JUMPDEST DUP3 DUP2 GT ISZERO PUSH3 0x954 JUMPI DUP3 MLOAD DUP3 SSTORE SWAP2 PUSH1 0x20 ADD SWAP2 SWAP1 PUSH1 0x1 ADD SWAP1 PUSH3 0x937 JUMP JUMPDEST JUMPDEST POP SWAP1 POP PUSH3 0x964 SWAP2 SWAP1 PUSH3 0x904 JUMP JUMPDEST POP SWAP1 JUMP JUMPDEST JUMPDEST DUP1 DUP3 GT ISZERO PUSH3 0x98C JUMPI PUSH1 0x0 DUP2 DUP2 PUSH3 0x982 SWAP2 SWAP1 PUSH3 0x990 JUMP JUMPDEST POP PUSH1 0x5 ADD PUSH3 0x969 JUMP JUMPDEST POP SWAP1 JUMP JUMPDEST POP PUSH1 0x0 DUP2 SSTORE PUSH1 0x1 ADD PUSH1 0x0 DUP2 SSTORE PUSH1 0x1 ADD PUSH1 0x0 DUP2 SSTORE PUSH1 0x1 ADD PUSH1 0x0 DUP2 SSTORE PUSH1 0x1 ADD PUSH1 0x0 SWAP1 SSTORE JUMP JUMPDEST PUSH1 0x0 DUP2 MLOAD SWAP1 POP PUSH3 0x9C4 DUP2 PUSH3 0xA54 JUMP JUMPDEST SWAP3 SWAP2 POP POP JUMP JUMPDEST PUSH1 0x0 DUP1 PUSH1 0x0 PUSH1 0x60 DUP5 DUP7 SUB SLT ISZERO PUSH3 0x9E0 JUMPI PUSH1 0x0 DUP1 REVERT JUMPDEST PUSH1 0x0 PUSH3 0x9F0 DUP7 DUP3 DUP8 ADD PUSH3 0x9B3 JUMP JUMPDEST SWAP4 POP POP PUSH1 0x20 PUSH3 0xA03 DUP7 DUP3 DUP8 ADD PUSH3 0x9B3 JUMP JUMPDEST SWAP3 POP POP PUSH1 0x40 PUSH3 0xA16 DUP7 DUP3 DUP8 ADD PUSH3 0x9B3 JUMP JUMPDEST SWAP2 POP POP SWAP3 POP SWAP3 POP SWAP3 JUMP JUMPDEST PUSH1 0x0 PUSH3 0xA2D DUP3 PUSH3 0xA34 JUMP JUMPDEST SWAP1 POP SWAP2 SWAP1 POP JUMP JUMPDEST PUSH1 0x0 PUSH20 0xFFFFFFFFFFFFFFFFFFFFFFFFFFFFFFFFFFFFFFFF DUP3 AND SWAP1 POP SWAP2 SWAP1 POP JUMP JUMPDEST PUSH3 0xA5F DUP2 PUSH3 0xA20 JUMP JUMPDEST DUP2 EQ PUSH3 0xA6B JUMPI PUSH1 0x0 DUP1 REVERT JUMPDEST POP JUMP JUMPDEST PUSH2 0x3564 DUP1 PUSH3 0xA7E PUSH1 0x0 CODECOPY PUSH1 0x0 RETURN INVALID PUSH1 0x80 PUSH1 0x40 MSTORE CALLVALUE DUP1 ISZERO PUSH2 0x10 JUMPI PUSH1 0x0 DUP1 REVERT JUMPDEST POP PUSH1 0x4 CALLDATASIZE LT PUSH2 0xEA JUMPI PUSH1 0x0 CALLDATALOAD PUSH1 0xE0 SHR DUP1 PUSH4 0xAC6C5E38 GT PUSH2 0x8C JUMPI DUP1 PUSH4 0xD003A97E GT PUSH2 0x66 JUMPI DUP1 PUSH4 0xD003A97E EQ PUSH2 0x1FB JUMPI DUP1 PUSH4 0xDC570D2D EQ PUSH2 0x205 JUMPI DUP1 PUSH4 0xE2842D79 EQ PUSH2 0x235 JUMPI DUP1 PUSH4 0xF2D055E2 EQ PUSH2 0x253 JUMPI PUSH2 0xEA JUMP JUMPDEST DUP1 PUSH4 0xAC6C5E38 EQ PUSH2 0x1CB JUMPI DUP1 PUSH4 0xB677AA2E EQ PUSH2 0x1D5 JUMPI DUP1 PUSH4 0xCB105188 EQ PUSH2 0x1F1 JUMPI PUSH2 0xEA JUMP JUMPDEST DUP1 PUSH4 0x57D8DF5A GT PUSH2 0xC8 JUMPI DUP1 PUSH4 0x57D8DF5A EQ PUSH2 0x145 JUMPI DUP1 PUSH4 0x61FDA82A EQ PUSH2 0x175 JUMPI DUP1 PUSH4 0x6B6AE44C EQ PUSH2 0x1A5 JUMPI DUP1 PUSH4 0x995A2001 EQ PUSH2 0x1AF JUMPI PUSH2 0xEA JUMP JUMPDEST DUP1 PUSH4 0x1D78BABF EQ PUSH2 0xEF JUMPI DUP1 PUSH4 0x354528E8 EQ PUSH2 0x10B JUMPI DUP1 PUSH4 0x4EF8FE5B EQ PUSH2 0x129 JUMPI JUMPDEST PUSH1 0x0 DUP1 REVERT JUMPDEST PUSH2 0x109 PUSH1 0x4 DUP1 CALLDATASIZE SUB DUP2 ADD SWAP1 PUSH2 0x104 SWAP2 SWAP1 PUSH2 0x2500 JUMP JUMPDEST PUSH2 0x26F JUMP JUMPDEST STOP JUMPDEST PUSH2 0x113 PUSH2 0x497 JUMP JUMPDEST PUSH1 0x40 MLOAD PUSH2 0x120 SWAP2 SWAP1 PUSH2 0x2FD1 JUMP JUMPDEST PUSH1 0x40 MLOAD DUP1 SWAP2 SUB SWAP1 RETURN JUMPDEST PUSH2 0x143 PUSH1 0x4 DUP1 CALLDATASIZE SUB DUP2 ADD SWAP1 PUSH2 0x13E SWAP2 SWAP1 PUSH2 0x2439 JUMP JUMPDEST PUSH2 0x8D9 JUMP JUMPDEST STOP JUMPDEST PUSH2 0x15F PUSH1 0x4 DUP1 CALLDATASIZE SUB DUP2 ADD SWAP1 PUSH2 0x15A SWAP2 SWAP1 PUSH2 0x2439 JUMP JUMPDEST PUSH2 0x962 JUMP JUMPDEST PUSH1 0x40 MLOAD PUSH2 0x16C SWAP2 SWAP1 PUSH2 0x3174 JUMP JUMPDEST PUSH1 0x40 MLOAD DUP1 SWAP2 SUB SWAP1 RETURN JUMPDEST PUSH2 0x18F PUSH1 0x4 DUP1 CALLDATASIZE SUB DUP2 ADD SWAP1 PUSH2 0x18A SWAP2 SWAP1 PUSH2 0x2694 JUMP JUMPDEST PUSH2 0xCE4 JUMP JUMPDEST PUSH1 0x40 MLOAD PUSH2 0x19C SWAP2 SWAP1 PUSH2 0x3196 JUMP JUMPDEST PUSH1 0x40 MLOAD DUP1 SWAP2 SUB SWAP1 RETURN JUMPDEST PUSH2 0x1AD PUSH2 0xDAE JUMP JUMPDEST STOP JUMPDEST PUSH2 0x1C9 PUSH1 0x4 DUP1 CALLDATASIZE SUB DUP2 ADD SWAP1 PUSH2 0x1C4 SWAP2 SWAP1 PUSH2 0x2563 JUMP JUMPDEST PUSH2 0xDB0 JUMP JUMPDEST STOP JUMPDEST PUSH2 0x1D3 PUSH2 0x13FB JUMP JUMPDEST STOP JUMPDEST PUSH2 0x1EF PUSH1 0x4 DUP1 CALLDATASIZE SUB DUP2 ADD SWAP1 PUSH2 0x1EA SWAP2 SWAP1 PUSH2 0x2462 JUMP JUMPDEST PUSH2 0x13FD JUMP JUMPDEST STOP JUMPDEST PUSH2 0x1F9 PUSH2 0x158C JUMP JUMPDEST STOP JUMPDEST PUSH2 0x203 PUSH2 0x158E JUMP JUMPDEST STOP JUMPDEST PUSH2 0x21F PUSH1 0x4 DUP1 CALLDATASIZE SUB DUP2 ADD SWAP1 PUSH2 0x21A SWAP2 SWAP1 PUSH2 0x2604 JUMP JUMPDEST PUSH2 0x166B JUMP JUMPDEST PUSH1 0x40 MLOAD PUSH2 0x22C SWAP2 SWAP1 PUSH2 0x31B2 JUMP JUMPDEST PUSH1 0x40 MLOAD DUP1 SWAP2 SUB SWAP1 RETURN JUMPDEST PUSH2 0x23D PUSH2 0x189D JUMP JUMPDEST PUSH1 0x40 MLOAD PUSH2 0x24A SWAP2 SWAP1 PUSH2 0x2FAF JUMP JUMPDEST PUSH1 0x40 MLOAD DUP1 SWAP2 SUB SWAP1 RETURN JUMPDEST PUSH2 0x26D PUSH1 0x4 DUP1 CALLDATASIZE SUB DUP2 ADD SWAP1 PUSH2 0x268 SWAP2 SWAP1 PUSH2 0x2653 JUMP JUMPDEST PUSH2 0x192B JUMP JUMPDEST STOP JUMPDEST PUSH1 0x0 PUSH1 0x55 PUSH1 0x0 DUP7 PUSH20 0xFFFFFFFFFFFFFFFFFFFFFFFFFFFFFFFFFFFFFFFF AND PUSH20 0xFFFFFFFFFFFFFFFFFFFFFFFFFFFFFFFFFFFFFFFF AND DUP2 MSTORE PUSH1 0x20 ADD SWAP1 DUP2 MSTORE PUSH1 0x20 ADD PUSH1 0x0 KECCAK256 SWAP1 POP PUSH1 0x0 DUP2 PUSH1 0x0 ADD DUP5 DUP2 SLOAD DUP2 LT PUSH2 0x2C3 JUMPI INVALID JUMPDEST SWAP1 PUSH1 0x0 MSTORE PUSH1 0x20 PUSH1 0x0 KECCAK256 SWAP1 PUSH1 0x19 MUL ADD SWAP1 POP DUP1 PUSH1 0x3 ADD SLOAD DUP4 EQ PUSH2 0x319 JUMPI PUSH1 0x40 MLOAD PUSH32 0x8C379A000000000000000000000000000000000000000000000000000000000 DUP2 MSTORE PUSH1 0x4 ADD PUSH2 0x310 SWAP1 PUSH2 0x30F4 JUMP JUMPDEST PUSH1 0x40 MLOAD DUP1 SWAP2 SUB SWAP1 REVERT JUMPDEST PUSH1 0x0 PUSH1 0x5 DUP2 GT ISZERO PUSH2 0x326 JUMPI INVALID JUMPDEST DUP2 PUSH1 0x18 ADD PUSH1 0x1 SWAP1 SLOAD SWAP1 PUSH2 0x100 EXP SWAP1 DIV PUSH1 0xFF AND PUSH1 0x5 DUP2 GT ISZERO PUSH2 0x343 JUMPI INVALID JUMPDEST EQ ISZERO PUSH2 0x48F JUMPI DUP1 PUSH1 0x2 ADD PUSH1 0x0 SWAP1 SLOAD SWAP1 PUSH2 0x100 EXP SWAP1 DIV PUSH20 0xFFFFFFFFFFFFFFFFFFFFFFFFFFFFFFFFFFFFFFFF AND PUSH20 0xFFFFFFFFFFFFFFFFFFFFFFFFFFFFFFFFFFFFFFFF AND DUP6 PUSH20 0xFFFFFFFFFFFFFFFFFFFFFFFFFFFFFFFFFFFFFFFF AND EQ PUSH2 0x3DB JUMPI PUSH1 0x40 MLOAD PUSH32 0x8C379A000000000000000000000000000000000000000000000000000000000 DUP2 MSTORE PUSH1 0x4 ADD PUSH2 0x3D2 SWAP1 PUSH2 0x3154 JUMP JUMPDEST PUSH1 0x40 MLOAD DUP1 SWAP2 SUB SWAP1 REVERT JUMPDEST PUSH1 0x1 DUP2 PUSH1 0x18 ADD PUSH1 0x1 PUSH2 0x100 EXP DUP2 SLOAD DUP2 PUSH1 0xFF MUL NOT AND SWAP1 DUP4 PUSH1 0x5 DUP2 GT ISZERO PUSH2 0x3FC JUMPI INVALID JUMPDEST MUL OR SWAP1 SSTORE POP PUSH1 0x59 PUSH1 0x0 SWAP1 SLOAD SWAP1 PUSH2 0x100 EXP SWAP1 DIV PUSH20 0xFFFFFFFFFFFFFFFFFFFFFFFFFFFFFFFFFFFFFFFF AND PUSH20 0xFFFFFFFFFFFFFFFFFFFFFFFFFFFFFFFFFFFFFFFF AND PUSH4 0x74E8DE77 DUP7 PUSH1 0x40 MLOAD DUP3 PUSH4 0xFFFFFFFF AND PUSH1 0xE0 SHL DUP2 MSTORE PUSH1 0x4 ADD PUSH2 0x45C SWAP2 SWAP1 PUSH2 0x2EE0 JUMP JUMPDEST PUSH1 0x0 PUSH1 0x40 MLOAD DUP1 DUP4 SUB DUP2 PUSH1 0x0 DUP8 DUP1 EXTCODESIZE ISZERO DUP1 ISZERO PUSH2 0x476 JUMPI PUSH1 0x0 DUP1 REVERT JUMPDEST POP GAS CALL ISZERO DUP1 ISZERO PUSH2 0x48A JUMPI RETURNDATASIZE PUSH1 0x0 DUP1 RETURNDATACOPY RETURNDATASIZE PUSH1 0x0 REVERT JUMPDEST POP POP POP POP JUMPDEST POP POP POP POP POP POP JUMP JUMPDEST PUSH1 0x60 DUP1 PUSH1 0x56 DUP1 SLOAD SWAP1 POP PUSH8 0xFFFFFFFFFFFFFFFF DUP2 GT DUP1 ISZERO PUSH2 0x4B6 JUMPI PUSH1 0x0 DUP1 REVERT JUMPDEST POP PUSH1 0x40 MLOAD SWAP1 DUP1 DUP3 MSTORE DUP1 PUSH1 0x20 MUL PUSH1 0x20 ADD DUP3 ADD PUSH1 0x40 MSTORE DUP1 ISZERO PUSH2 0x4F0 JUMPI DUP2 PUSH1 0x20 ADD JUMPDEST PUSH2 0x4DD PUSH2 0x1FA6 JUMP JUMPDEST DUP2 MSTORE PUSH1 0x20 ADD SWAP1 PUSH1 0x1 SWAP1 SUB SWAP1 DUP2 PUSH2 0x4D5 JUMPI SWAP1 POP JUMPDEST POP SWAP1 POP PUSH1 0x0 JUMPDEST PUSH1 0x56 DUP1 SLOAD SWAP1 POP DUP2 LT ISZERO PUSH2 0x8D1 JUMPI PUSH1 0x55 PUSH1 0x0 PUSH1 0x56 DUP4 DUP2 SLOAD DUP2 LT PUSH2 0x514 JUMPI INVALID JUMPDEST SWAP1 PUSH1 0x0 MSTORE PUSH1 0x20 PUSH1 0x0 KECCAK256 ADD PUSH1 0x0 SWAP1 SLOAD SWAP1 PUSH2 0x100 EXP SWAP1 DIV PUSH20 0xFFFFFFFFFFFFFFFFFFFFFFFFFFFFFFFFFFFFFFFF AND PUSH20 0xFFFFFFFFFFFFFFFFFFFFFFFFFFFFFFFFFFFFFFFF AND PUSH20 0xFFFFFFFFFFFFFFFFFFFFFFFFFFFFFFFFFFFFFFFF AND DUP2 MSTORE PUSH1 0x20 ADD SWAP1 DUP2 MSTORE PUSH1 0x20 ADD PUSH1 0x0 KECCAK256 PUSH1 0x40 MLOAD DUP1 PUSH1 0x60 ADD PUSH1 0x40 MSTORE SWAP1 DUP2 PUSH1 0x0 DUP3 ADD DUP1 SLOAD DUP1 PUSH1 0x20 MUL PUSH1 0x20 ADD PUSH1 0x40 MLOAD SWAP1 DUP2 ADD PUSH1 0x40 MSTORE DUP1 SWAP3 SWAP2 SWAP1 DUP2 DUP2 MSTORE PUSH1 0x20 ADD PUSH1 0x0 SWAP1 JUMPDEST DUP3 DUP3 LT ISZERO PUSH2 0x880 JUMPI DUP4 DUP3 SWAP1 PUSH1 0x0 MSTORE PUSH1 0x20 PUSH1 0x0 KECCAK256 SWAP1 PUSH1 0x19 MUL ADD PUSH1 0x40 MLOAD DUP1 PUSH2 0x1A0 ADD PUSH1 0x40 MSTORE SWAP1 DUP2 PUSH1 0x0 DUP3 ADD SLOAD DUP2 MSTORE PUSH1 0x20 ADD PUSH1 0x1 DUP3 ADD PUSH1 0x0 SWAP1 SLOAD SWAP1 PUSH2 0x100 EXP SWAP1 DIV PUSH20 0xFFFFFFFFFFFFFFFFFFFFFFFFFFFFFFFFFFFFFFFF AND PUSH20 0xFFFFFFFFFFFFFFFFFFFFFFFFFFFFFFFFFFFFFFFF AND PUSH20 0xFFFFFFFFFFFFFFFFFFFFFFFFFFFFFFFFFFFFFFFF AND DUP2 MSTORE PUSH1 0x20 ADD PUSH1 0x2 DUP3 ADD PUSH1 0x0 SWAP1 SLOAD SWAP1 PUSH2 0x100 EXP SWAP1 DIV PUSH20 0xFFFFFFFFFFFFFFFFFFFFFFFFFFFFFFFFFFFFFFFF AND PUSH20 0xFFFFFFFFFFFFFFFFFFFFFFFFFFFFFFFFFFFFFFFF AND PUSH20 0xFFFFFFFFFFFFFFFFFFFFFFFFFFFFFFFFFFFFFFFF AND DUP2 MSTORE PUSH1 0x20 ADD PUSH1 0x2 DUP3 ADD PUSH1 0x14 SWAP1 SLOAD SWAP1 PUSH2 0x100 EXP SWAP1 DIV PUSH1 0xFF AND PUSH1 0x1 DUP2 GT ISZERO PUSH2 0x6A1 JUMPI INVALID JUMPDEST PUSH1 0x1 DUP2 GT ISZERO PUSH2 0x6AC JUMPI INVALID JUMPDEST DUP2 MSTORE PUSH1 0x20 ADD PUSH1 0x2 DUP3 ADD PUSH1 0x15 SWAP1 SLOAD SWAP1 PUSH2 0x100 EXP SWAP1 DIV PUSH1 0xFF AND PUSH1 0x2 DUP2 GT ISZERO PUSH2 0x6CE JUMPI INVALID JUMPDEST PUSH1 0x2 DUP2 GT ISZERO PUSH2 0x6D9 JUMPI INVALID JUMPDEST DUP2 MSTORE PUSH1 0x20 ADD PUSH1 0x2 DUP3 ADD PUSH1 0x16 SWAP1 SLOAD SWAP1 PUSH2 0x100 EXP SWAP1 DIV PUSH1 0xFF AND PUSH1 0x5 DUP2 GT ISZERO PUSH2 0x6FB JUMPI INVALID JUMPDEST PUSH1 0x5 DUP2 GT ISZERO PUSH2 0x706 JUMPI INVALID JUMPDEST DUP2 MSTORE PUSH1 0x20 ADD PUSH1 0x3 DUP3 ADD SLOAD DUP2 MSTORE PUSH1 0x20 ADD PUSH1 0x4 DUP3 ADD SLOAD DUP2 MSTORE PUSH1 0x20 ADD PUSH1 0x5 DUP3 ADD PUSH1 0x40 MLOAD DUP1 PUSH1 0xA0 ADD PUSH1 0x40 MSTORE SWAP1 DUP2 PUSH1 0x0 DUP3 ADD SLOAD DUP2 MSTORE PUSH1 0x20 ADD PUSH1 0x1 DUP3 ADD SLOAD DUP2 MSTORE PUSH1 0x20 ADD PUSH1 0x2 DUP3 ADD PUSH1 0x5 DUP1 PUSH1 0x20 MUL PUSH1 0x40 MLOAD SWAP1 DUP2 ADD PUSH1 0x40 MSTORE DUP1 SWAP3 SWAP2 SWAP1 DUP3 PUSH1 0x5 DUP1 ISZERO PUSH2 0x77E JUMPI PUSH1 0x20 MUL DUP3 ADD SWAP2 JUMPDEST DUP2 SLOAD DUP2 MSTORE PUSH1 0x20 ADD SWAP1 PUSH1 0x1 ADD SWAP1 DUP1 DUP4 GT PUSH2 0x76A JUMPI JUMPDEST POP POP POP POP POP DUP2 MSTORE PUSH1 0x20 ADD PUSH1 0x7 DUP3 ADD PUSH1 0x5 DUP1 PUSH1 0x20 MUL PUSH1 0x40 MLOAD SWAP1 DUP2 ADD PUSH1 0x40 MSTORE DUP1 SWAP3 SWAP2 SWAP1 DUP3 PUSH1 0x5 DUP1 ISZERO PUSH2 0x7C3 JUMPI PUSH1 0x20 MUL DUP3 ADD SWAP2 JUMPDEST DUP2 SLOAD DUP2 MSTORE PUSH1 0x20 ADD SWAP1 PUSH1 0x1 ADD SWAP1 DUP1 DUP4 GT PUSH2 0x7AF JUMPI JUMPDEST POP POP POP POP POP DUP2 MSTORE PUSH1 0x20 ADD PUSH1 0xC DUP3 ADD PUSH1 0x5 DUP1 PUSH1 0x20 MUL PUSH1 0x40 MLOAD SWAP1 DUP2 ADD PUSH1 0x40 MSTORE DUP1 SWAP3 SWAP2 SWAP1 DUP3 PUSH1 0x5 DUP1 ISZERO PUSH2 0x808 JUMPI PUSH1 0x20 MUL DUP3 ADD SWAP2 JUMPDEST DUP2 SLOAD DUP2 MSTORE PUSH1 0x20 ADD SWAP1 PUSH1 0x1 ADD SWAP1 DUP1 DUP4 GT PUSH2 0x7F4 JUMPI JUMPDEST POP POP POP POP POP DUP2 MSTORE POP POP DUP2 MSTORE PUSH1 0x20 ADD PUSH1 0x16 DUP3 ADD SLOAD DUP2 MSTORE PUSH1 0x20 ADD PUSH1 0x17 DUP3 ADD SLOAD DUP2 MSTORE PUSH1 0x20 ADD PUSH1 0x18 DUP3 ADD PUSH1 0x0 SWAP1 SLOAD SWAP1 PUSH2 0x100 EXP SWAP1 DIV PUSH1 0xFF AND ISZERO ISZERO ISZERO ISZERO DUP2 MSTORE PUSH1 0x20 ADD PUSH1 0x18 DUP3 ADD PUSH1 0x1 SWAP1 SLOAD SWAP1 PUSH2 0x100 EXP SWAP1 DIV PUSH1 0xFF AND PUSH1 0x5 DUP2 GT ISZERO PUSH2 0x862 JUMPI INVALID JUMPDEST PUSH1 0x5 DUP2 GT ISZERO PUSH2 0x86D JUMPI INVALID JUMPDEST DUP2 MSTORE POP POP DUP2 MSTORE PUSH1 0x20 ADD SWAP1 PUSH1 0x1 ADD SWAP1 PUSH2 0x5A9 JUMP JUMPDEST POP POP POP POP DUP2 MSTORE PUSH1 0x20 ADD PUSH1 0x1 DUP3 ADD SLOAD DUP2 MSTORE PUSH1 0x20 ADD PUSH1 0x2 DUP3 ADD PUSH1 0x0 SWAP1 SLOAD SWAP1 PUSH2 0x100 EXP SWAP1 DIV PUSH1 0xFF AND ISZERO ISZERO ISZERO ISZERO DUP2 MSTORE POP POP DUP3 DUP3 DUP2 MLOAD DUP2 LT PUSH2 0x8B9 JUMPI INVALID JUMPDEST PUSH1 0x20 MUL PUSH1 0x20 ADD ADD DUP2 SWAP1 MSTORE POP DUP1 DUP1 PUSH1 0x1 ADD SWAP2 POP POP PUSH2 0x4F6 JUMP JUMPDEST POP DUP1 SWAP2 POP POP SWAP1 JUMP JUMPDEST PUSH1 0x0 PUSH1 0x55 PUSH1 0x0 DUP4 PUSH20 0xFFFFFFFFFFFFFFFFFFFFFFFFFFFFFFFFFFFFFFFF AND PUSH20 0xFFFFFFFFFFFFFFFFFFFFFFFFFFFFFFFFFFFFFFFF AND DUP2 MSTORE PUSH1 0x20 ADD SWAP1 DUP2 MSTORE PUSH1 0x20 ADD PUSH1 0x0 KECCAK256 PUSH1 0x0 ADD SWAP1 POP PUSH1 0x0 JUMPDEST DUP2 DUP1 SLOAD SWAP1 POP DUP2 LT ISZERO PUSH2 0x95D JUMPI PUSH2 0x950 DUP3 DUP3 DUP2 SLOAD DUP2 LT PUSH2 0x93D JUMPI INVALID JUMPDEST SWAP1 PUSH1 0x0 MSTORE PUSH1 0x20 PUSH1 0x0 KECCAK256 SWAP1 PUSH1 0x19 MUL ADD PUSH2 0x1987 JUMP JUMPDEST DUP1 DUP1 PUSH1 0x1 ADD SWAP2 POP POP PUSH2 0x922 JUMP JUMPDEST POP POP POP JUMP JUMPDEST PUSH2 0x96A PUSH2 0x1FA6 JUMP JUMPDEST PUSH1 0x55 PUSH1 0x0 DUP4 PUSH20 0xFFFFFFFFFFFFFFFFFFFFFFFFFFFFFFFFFFFFFFFF AND PUSH20 0xFFFFFFFFFFFFFFFFFFFFFFFFFFFFFFFFFFFFFFFF AND DUP2 MSTORE PUSH1 0x20 ADD SWAP1 DUP2 MSTORE PUSH1 0x20 ADD PUSH1 0x0 KECCAK256 PUSH1 0x40 MLOAD DUP1 PUSH1 0x60 ADD PUSH1 0x40 MSTORE SWAP1 DUP2 PUSH1 0x0 DUP3 ADD DUP1 SLOAD DUP1 PUSH1 0x20 MUL PUSH1 0x20 ADD PUSH1 0x40 MLOAD SWAP1 DUP2 ADD PUSH1 0x40 MSTORE DUP1 SWAP3 SWAP2 SWAP1 DUP2 DUP2 MSTORE PUSH1 0x20 ADD PUSH1 0x0 SWAP1 JUMPDEST DUP3 DUP3 LT ISZERO PUSH2 0xCB0 JUMPI DUP4 DUP3 SWAP1 PUSH1 0x0 MSTORE PUSH1 0x20 PUSH1 0x0 KECCAK256 SWAP1 PUSH1 0x19 MUL ADD PUSH1 0x40 MLOAD DUP1 PUSH2 0x1A0 ADD PUSH1 0x40 MSTORE SWAP1 DUP2 PUSH1 0x0 DUP3 ADD SLOAD DUP2 MSTORE PUSH1 0x20 ADD PUSH1 0x1 DUP3 ADD PUSH1 0x0 SWAP1 SLOAD SWAP1 PUSH2 0x100 EXP SWAP1 DIV PUSH20 0xFFFFFFFFFFFFFFFFFFFFFFFFFFFFFFFFFFFFFFFF AND PUSH20 0xFFFFFFFFFFFFFFFFFFFFFFFFFFFFFFFFFFFFFFFF AND PUSH20 0xFFFFFFFFFFFFFFFFFFFFFFFFFFFFFFFFFFFFFFFF AND DUP2 MSTORE PUSH1 0x20 ADD PUSH1 0x2 DUP3 ADD PUSH1 0x0 SWAP1 SLOAD SWAP1 PUSH2 0x100 EXP SWAP1 DIV PUSH20 0xFFFFFFFFFFFFFFFFFFFFFFFFFFFFFFFFFFFFFFFF AND PUSH20 0xFFFFFFFFFFFFFFFFFFFFFFFFFFFFFFFFFFFFFFFF AND PUSH20 0xFFFFFFFFFFFFFFFFFFFFFFFFFFFFFFFFFFFFFFFF AND DUP2 MSTORE PUSH1 0x20 ADD PUSH1 0x2 DUP3 ADD PUSH1 0x14 SWAP1 SLOAD SWAP1 PUSH2 0x100 EXP SWAP1 DIV PUSH1 0xFF AND PUSH1 0x1 DUP2 GT ISZERO PUSH2 0xAD1 JUMPI INVALID JUMPDEST PUSH1 0x1 DUP2 GT ISZERO PUSH2 0xADC JUMPI INVALID JUMPDEST DUP2 MSTORE PUSH1 0x20 ADD PUSH1 0x2 DUP3 ADD PUSH1 0x15 SWAP1 SLOAD SWAP1 PUSH2 0x100 EXP SWAP1 DIV PUSH1 0xFF AND PUSH1 0x2 DUP2 GT ISZERO PUSH2 0xAFE JUMPI INVALID JUMPDEST PUSH1 0x2 DUP2 GT ISZERO PUSH2 0xB09 JUMPI INVALID JUMPDEST DUP2 MSTORE PUSH1 0x20 ADD PUSH1 0x2 DUP3 ADD PUSH1 0x16 SWAP1 SLOAD SWAP1 PUSH2 0x100 EXP SWAP1 DIV PUSH1 0xFF AND PUSH1 0x5 DUP2 GT ISZERO PUSH2 0xB2B JUMPI INVALID JUMPDEST PUSH1 0x5 DUP2 GT ISZERO PUSH2 0xB36 JUMPI INVALID JUMPDEST DUP2 MSTORE PUSH1 0x20 ADD PUSH1 0x3 DUP3 ADD SLOAD DUP2 MSTORE PUSH1 0x20 ADD PUSH1 0x4 DUP3 ADD SLOAD DUP2 MSTORE PUSH1 0x20 ADD PUSH1 0x5 DUP3 ADD PUSH1 0x40 MLOAD DUP1 PUSH1 0xA0 ADD PUSH1 0x40 MSTORE SWAP1 DUP2 PUSH1 0x0 DUP3 ADD SLOAD DUP2 MSTORE PUSH1 0x20 ADD PUSH1 0x1 DUP3 ADD SLOAD DUP2 MSTORE PUSH1 0x20 ADD PUSH1 0x2 DUP3 ADD PUSH1 0x5 DUP1 PUSH1 0x20 MUL PUSH1 0x40 MLOAD SWAP1 DUP2 ADD PUSH1 0x40 MSTORE DUP1 SWAP3 SWAP2 SWAP1 DUP3 PUSH1 0x5 DUP1 ISZERO PUSH2 0xBAE JUMPI PUSH1 0x20 MUL DUP3 ADD SWAP2 JUMPDEST DUP2 SLOAD DUP2 MSTORE PUSH1 0x20 ADD SWAP1 PUSH1 0x1 ADD SWAP1 DUP1 DUP4 GT PUSH2 0xB9A JUMPI JUMPDEST POP POP POP POP POP DUP2 MSTORE PUSH1 0x20 ADD PUSH1 0x7 DUP3 ADD PUSH1 0x5 DUP1 PUSH1 0x20 MUL PUSH1 0x40 MLOAD SWAP1 DUP2 ADD PUSH1 0x40 MSTORE DUP1 SWAP3 SWAP2 SWAP1 DUP3 PUSH1 0x5 DUP1 ISZERO PUSH2 0xBF3 JUMPI PUSH1 0x20 MUL DUP3 ADD SWAP2 JUMPDEST DUP2 SLOAD DUP2 MSTORE PUSH1 0x20 ADD SWAP1 PUSH1 0x1 ADD SWAP1 DUP1 DUP4 GT PUSH2 0xBDF JUMPI JUMPDEST POP POP POP POP POP DUP2 MSTORE PUSH1 0x20 ADD PUSH1 0xC DUP3 ADD PUSH1 0x5 DUP1 PUSH1 0x20 MUL PUSH1 0x40 MLOAD SWAP1 DUP2 ADD PUSH1 0x40 MSTORE DUP1 SWAP3 SWAP2 SWAP1 DUP3 PUSH1 0x5 DUP1 ISZERO PUSH2 0xC38 JUMPI PUSH1 0x20 MUL DUP3 ADD SWAP2 JUMPDEST DUP2 SLOAD DUP2 MSTORE PUSH1 0x20 ADD SWAP1 PUSH1 0x1 ADD SWAP1 DUP1 DUP4 GT PUSH2 0xC24 JUMPI JUMPDEST POP POP POP POP POP DUP2 MSTORE POP POP DUP2 MSTORE PUSH1 0x20 ADD PUSH1 0x16 DUP3 ADD SLOAD DUP2 MSTORE PUSH1 0x20 ADD PUSH1 0x17 DUP3 ADD SLOAD DUP2 MSTORE PUSH1 0x20 ADD PUSH1 0x18 DUP3 ADD PUSH1 0x0 SWAP1 SLOAD SWAP1 PUSH2 0x100 EXP SWAP1 DIV PUSH1 0xFF AND ISZERO ISZERO ISZERO ISZERO DUP2 MSTORE PUSH1 0x20 ADD PUSH1 0x18 DUP3 ADD PUSH1 0x1 SWAP1 SLOAD SWAP1 PUSH2 0x100 EXP SWAP1 DIV PUSH1 0xFF AND PUSH1 0x5 DUP2 GT ISZERO PUSH2 0xC92 JUMPI INVALID JUMPDEST PUSH1 0x5 DUP2 GT ISZERO PUSH2 0xC9D JUMPI INVALID JUMPDEST DUP2 MSTORE POP POP DUP2 MSTORE PUSH1 0x20 ADD SWAP1 PUSH1 0x1 ADD SWAP1 PUSH2 0x9D9 JUMP JUMPDEST POP POP POP POP DUP2 MSTORE PUSH1 0x20 ADD PUSH1 0x1 DUP3 ADD SLOAD DUP2 MSTORE PUSH1 0x20 ADD PUSH1 0x2 DUP3 ADD PUSH1 0x0 SWAP1 SLOAD SWAP1 PUSH2 0x100 EXP SWAP1 DIV PUSH1 0xFF AND ISZERO ISZERO ISZERO ISZERO DUP2 MSTORE POP POP SWAP1 POP SWAP2 SWAP1 POP JUMP JUMPDEST PUSH2 0xCEC PUSH2 0x1FC9 JUMP JUMPDEST PUSH1 0x55 PUSH1 0x0 CALLER PUSH20 0xFFFFFFFFFFFFFFFFFFFFFFFFFFFFFFFFFFFFFFFF AND PUSH20 0xFFFFFFFFFFFFFFFFFFFFFFFFFFFFFFFFFFFFFFFF AND DUP2 MSTORE PUSH1 0x20 ADD SWAP1 DUP2 MSTORE PUSH1 0x20 ADD PUSH1 0x0 KECCAK256 PUSH1 0x2 ADD PUSH1 0x0 SWAP1 SLOAD SWAP1 PUSH2 0x100 EXP SWAP1 DIV PUSH1 0xFF AND PUSH2 0xD7B JUMPI PUSH1 0x40 MLOAD PUSH32 0x8C379A000000000000000000000000000000000000000000000000000000000 DUP2 MSTORE PUSH1 0x4 ADD PUSH2 0xD72 SWAP1 PUSH2 0x30D4 JUMP JUMPDEST PUSH1 0x40 MLOAD DUP1 SWAP2 SUB SWAP1 REVERT JUMPDEST PUSH2 0xD83 PUSH2 0x1FA6 JUMP JUMPDEST PUSH2 0xD8C CALLER PUSH2 0x962 JUMP JUMPDEST SWAP1 POP DUP1 PUSH1 0x0 ADD MLOAD DUP4 DUP2 MLOAD DUP2 LT PUSH2 0xD9E JUMPI INVALID JUMPDEST PUSH1 0x20 MUL PUSH1 0x20 ADD ADD MLOAD SWAP2 POP POP SWAP2 SWAP1 POP JUMP JUMPDEST JUMP JUMPDEST CALLER PUSH20 0xFFFFFFFFFFFFFFFFFFFFFFFFFFFFFFFFFFFFFFFF AND DUP6 PUSH20 0xFFFFFFFFFFFFFFFFFFFFFFFFFFFFFFFFFFFFFFFF AND EQ ISZERO PUSH2 0xE1F JUMPI PUSH1 0x40 MLOAD PUSH32 0x8C379A000000000000000000000000000000000000000000000000000000000 DUP2 MSTORE PUSH1 0x4 ADD PUSH2 0xE16 SWAP1 PUSH2 0x30B4 JUMP JUMPDEST PUSH1 0x40 MLOAD DUP1 SWAP2 SUB SWAP1 REVERT JUMPDEST PUSH1 0x0 PUSH1 0x1 DUP2 GT ISZERO PUSH2 0xE2C JUMPI INVALID JUMPDEST DUP5 PUSH1 0x1 DUP2 GT ISZERO PUSH2 0xE38 JUMPI INVALID JUMPDEST EQ ISZERO PUSH2 0xED0 JUMPI PUSH1 0x59 PUSH1 0x0 SWAP1 SLOAD SWAP1 PUSH2 0x100 EXP SWAP1 DIV PUSH20 0xFFFFFFFFFFFFFFFFFFFFFFFFFFFFFFFFFFFFFFFF AND PUSH20 0xFFFFFFFFFFFFFFFFFFFFFFFFFFFFFFFFFFFFFFFF AND PUSH4 0x31F652DB DUP5 DUP4 CALLER PUSH1 0x40 MLOAD DUP5 PUSH4 0xFFFFFFFF AND PUSH1 0xE0 SHL DUP2 MSTORE PUSH1 0x4 ADD PUSH2 0xE9D SWAP4 SWAP3 SWAP2 SWAP1 PUSH2 0x302A JUMP JUMPDEST PUSH1 0x0 PUSH1 0x40 MLOAD DUP1 DUP4 SUB DUP2 PUSH1 0x0 DUP8 DUP1 EXTCODESIZE ISZERO DUP1 ISZERO PUSH2 0xEB7 JUMPI PUSH1 0x0 DUP1 REVERT JUMPDEST POP GAS CALL ISZERO DUP1 ISZERO PUSH2 0xECB JUMPI RETURNDATASIZE PUSH1 0x0 DUP1 RETURNDATACOPY RETURNDATASIZE PUSH1 0x0 REVERT JUMPDEST POP POP POP POP JUMPDEST PUSH1 0x1 DUP1 DUP2 GT ISZERO PUSH2 0xEDC JUMPI INVALID JUMPDEST DUP5 PUSH1 0x1 DUP2 GT ISZERO PUSH2 0xEE8 JUMPI INVALID JUMPDEST EQ ISZERO PUSH2 0xF80 JUMPI PUSH1 0x59 PUSH1 0x0 SWAP1 SLOAD SWAP1 PUSH2 0x100 EXP SWAP1 DIV PUSH20 0xFFFFFFFFFFFFFFFFFFFFFFFFFFFFFFFFFFFFFFFF AND PUSH20 0xFFFFFFFFFFFFFFFFFFFFFFFFFFFFFFFFFFFFFFFF AND PUSH4 0x31F652DB DUP5 DUP4 DUP9 PUSH1 0x40 MLOAD DUP5 PUSH4 0xFFFFFFFF AND PUSH1 0xE0 SHL DUP2 MSTORE PUSH1 0x4 ADD PUSH2 0xF4D SWAP4 SWAP3 SWAP2 SWAP1 PUSH2 0x2FF3 JUMP JUMPDEST PUSH1 0x0 PUSH1 0x40 MLOAD DUP1 DUP4 SUB DUP2 PUSH1 0x0 DUP8 DUP1 EXTCODESIZE ISZERO DUP1 ISZERO PUSH2 0xF67 JUMPI PUSH1 0x0 DUP1 REVERT JUMPDEST POP GAS CALL ISZERO DUP1 ISZERO PUSH2 0xF7B JUMPI RETURNDATASIZE PUSH1 0x0 DUP1 RETURNDATACOPY RETURNDATASIZE PUSH1 0x0 REVERT JUMPDEST POP POP POP POP JUMPDEST PUSH1 0x0 PUSH1 0x57 PUSH1 0x0 SWAP1 SLOAD SWAP1 PUSH2 0x100 EXP SWAP1 DIV PUSH20 0xFFFFFFFFFFFFFFFFFFFFFFFFFFFFFFFFFFFFFFFF AND PUSH20 0xFFFFFFFFFFFFFFFFFFFFFFFFFFFFFFFFFFFFFFFF AND PUSH4 0x524BC34A DUP8 DUP8 DUP8 DUP8 DUP8 PUSH1 0x40 MLOAD DUP7 PUSH4 0xFFFFFFFF AND PUSH1 0xE0 SHL DUP2 MSTORE PUSH1 0x4 ADD PUSH2 0xFE5 SWAP6 SWAP5 SWAP4 SWAP3 SWAP2 SWAP1 PUSH2 0x2EFB JUMP JUMPDEST PUSH1 0x20 PUSH1 0x40 MLOAD DUP1 DUP4 SUB DUP2 PUSH1 0x0 DUP8 DUP1 EXTCODESIZE ISZERO DUP1 ISZERO PUSH2 0xFFF JUMPI PUSH1 0x0 DUP1 REVERT JUMPDEST POP GAS CALL ISZERO DUP1 ISZERO PUSH2 0x1013 JUMPI RETURNDATASIZE PUSH1 0x0 DUP1 RETURNDATACOPY RETURNDATASIZE PUSH1 0x0 REVERT JUMPDEST POP POP POP POP PUSH1 0x40 MLOAD RETURNDATASIZE PUSH1 0x1F NOT PUSH1 0x1F DUP3 ADD AND DUP3 ADD DUP1 PUSH1 0x40 MSTORE POP DUP2 ADD SWAP1 PUSH2 0x1037 SWAP2 SWAP1 PUSH2 0x26BD JUMP JUMPDEST SWAP1 POP PUSH1 0x0 PUSH1 0x55 PUSH1 0x0 DUP9 PUSH20 0xFFFFFFFFFFFFFFFFFFFFFFFFFFFFFFFFFFFFFFFF AND PUSH20 0xFFFFFFFFFFFFFFFFFFFFFFFFFFFFFFFFFFFFFFFF AND DUP2 MSTORE PUSH1 0x20 ADD SWAP1 DUP2 MSTORE PUSH1 0x20 ADD PUSH1 0x0 KECCAK256 SWAP1 POP PUSH2 0x1084 PUSH2 0x2091 JUMP JUMPDEST PUSH1 0x40 MLOAD DUP1 PUSH1 0xA0 ADD PUSH1 0x40 MSTORE DUP1 DUP10 PUSH20 0xFFFFFFFFFFFFFFFFFFFFFFFFFFFFFFFFFFFFFFFF AND DUP2 MSTORE PUSH1 0x20 ADD DUP9 PUSH1 0x1 DUP2 GT ISZERO PUSH2 0x10B7 JUMPI INVALID JUMPDEST DUP2 MSTORE PUSH1 0x20 ADD DUP8 PUSH1 0x2 DUP2 GT ISZERO PUSH2 0x10C8 JUMPI INVALID JUMPDEST DUP2 MSTORE PUSH1 0x20 ADD DUP7 PUSH1 0x5 DUP2 GT ISZERO PUSH2 0x10D9 JUMPI INVALID JUMPDEST DUP2 MSTORE PUSH1 0x20 ADD DUP6 DUP2 MSTORE POP SWAP1 POP PUSH2 0x10EC PUSH2 0x1FC9 JUMP JUMPDEST PUSH2 0x1109 DUP3 DUP6 DUP6 PUSH1 0x1 ADD PUSH1 0x0 DUP2 SLOAD DUP1 SWAP3 SWAP2 SWAP1 PUSH1 0x1 ADD SWAP2 SWAP1 POP SSTORE PUSH2 0x1C74 JUMP JUMPDEST SWAP1 POP DUP3 PUSH1 0x0 ADD DUP2 SWAP1 DUP1 PUSH1 0x1 DUP2 SLOAD ADD DUP1 DUP3 SSTORE DUP1 SWAP2 POP POP PUSH1 0x1 SWAP1 SUB SWAP1 PUSH1 0x0 MSTORE PUSH1 0x20 PUSH1 0x0 KECCAK256 SWAP1 PUSH1 0x19 MUL ADD PUSH1 0x0 SWAP1 SWAP2 SWAP1 SWAP2 SWAP1 SWAP2 POP PUSH1 0x0 DUP3 ADD MLOAD DUP2 PUSH1 0x0 ADD SSTORE PUSH1 0x20 DUP3 ADD MLOAD DUP2 PUSH1 0x1 ADD PUSH1 0x0 PUSH2 0x100 EXP DUP2 SLOAD DUP2 PUSH20 0xFFFFFFFFFFFFFFFFFFFFFFFFFFFFFFFFFFFFFFFF MUL NOT AND SWAP1 DUP4 PUSH20 0xFFFFFFFFFFFFFFFFFFFFFFFFFFFFFFFFFFFFFFFF AND MUL OR SWAP1 SSTORE POP PUSH1 0x40 DUP3 ADD MLOAD DUP2 PUSH1 0x2 ADD PUSH1 0x0 PUSH2 0x100 EXP DUP2 SLOAD DUP2 PUSH20 0xFFFFFFFFFFFFFFFFFFFFFFFFFFFFFFFFFFFFFFFF MUL NOT AND SWAP1 DUP4 PUSH20 0xFFFFFFFFFFFFFFFFFFFFFFFFFFFFFFFFFFFFFFFF AND MUL OR SWAP1 SSTORE POP PUSH1 0x60 DUP3 ADD MLOAD DUP2 PUSH1 0x2 ADD PUSH1 0x14 PUSH2 0x100 EXP DUP2 SLOAD DUP2 PUSH1 0xFF MUL NOT AND SWAP1 DUP4 PUSH1 0x1 DUP2 GT ISZERO PUSH2 0x11F5 JUMPI INVALID JUMPDEST MUL OR SWAP1 SSTORE POP PUSH1 0x80 DUP3 ADD MLOAD DUP2 PUSH1 0x2 ADD PUSH1 0x15 PUSH2 0x100 EXP DUP2 SLOAD DUP2 PUSH1 0xFF MUL NOT AND SWAP1 DUP4 PUSH1 0x2 DUP2 GT ISZERO PUSH2 0x121E JUMPI INVALID JUMPDEST MUL OR SWAP1 SSTORE POP PUSH1 0xA0 DUP3 ADD MLOAD DUP2 PUSH1 0x2 ADD PUSH1 0x16 PUSH2 0x100 EXP DUP2 SLOAD DUP2 PUSH1 0xFF MUL NOT AND SWAP1 DUP4 PUSH1 0x5 DUP2 GT ISZERO PUSH2 0x1247 JUMPI INVALID JUMPDEST MUL OR SWAP1 SSTORE POP PUSH1 0xC0 DUP3 ADD MLOAD DUP2 PUSH1 0x3 ADD SSTORE PUSH1 0xE0 DUP3 ADD MLOAD DUP2 PUSH1 0x4 ADD SSTORE PUSH2 0x100 DUP3 ADD MLOAD DUP2 PUSH1 0x5 ADD PUSH1 0x0 DUP3 ADD MLOAD DUP2 PUSH1 0x0 ADD SSTORE PUSH1 0x20 DUP3 ADD MLOAD DUP2 PUSH1 0x1 ADD SSTORE PUSH1 0x40 DUP3 ADD MLOAD DUP2 PUSH1 0x2 ADD SWAP1 PUSH1 0x5 PUSH2 0x1295 SWAP3 SWAP2 SWAP1 PUSH2 0x20F7 JUMP JUMPDEST POP PUSH1 0x60 DUP3 ADD MLOAD DUP2 PUSH1 0x7 ADD SWAP1 PUSH1 0x5 PUSH2 0x12AD SWAP3 SWAP2 SWAP1 PUSH2 0x20F7 JUMP JUMPDEST POP PUSH1 0x80 DUP3 ADD MLOAD DUP2 PUSH1 0xC ADD SWAP1 PUSH1 0x5 PUSH2 0x12C5 SWAP3 SWAP2 SWAP1 PUSH2 0x20F7 JUMP JUMPDEST POP POP POP PUSH2 0x120 DUP3 ADD MLOAD DUP2 PUSH1 0x16 ADD SSTORE PUSH2 0x140 DUP3 ADD MLOAD DUP2 PUSH1 0x17 ADD SSTORE PUSH2 0x160 DUP3 ADD MLOAD DUP2 PUSH1 0x18 ADD PUSH1 0x0 PUSH2 0x100 EXP DUP2 SLOAD DUP2 PUSH1 0xFF MUL NOT AND SWAP1 DUP4 ISZERO ISZERO MUL OR SWAP1 SSTORE POP PUSH2 0x180 DUP3 ADD MLOAD DUP2 PUSH1 0x18 ADD PUSH1 0x1 PUSH2 0x100 EXP DUP2 SLOAD DUP2 PUSH1 0xFF MUL NOT AND SWAP1 DUP4 PUSH1 0x5 DUP2 GT ISZERO PUSH2 0x1324 JUMPI INVALID JUMPDEST MUL OR SWAP1 SSTORE POP POP POP PUSH1 0x1 DUP4 PUSH1 0x2 ADD PUSH1 0x0 PUSH2 0x100 EXP DUP2 SLOAD DUP2 PUSH1 0xFF MUL NOT AND SWAP1 DUP4 ISZERO ISZERO MUL OR SWAP1 SSTORE POP PUSH1 0x56 CALLER SWAP1 DUP1 PUSH1 0x1 DUP2 SLOAD ADD DUP1 DUP3 SSTORE DUP1 SWAP2 POP POP PUSH1 0x1 SWAP1 SUB SWAP1 PUSH1 0x0 MSTORE PUSH1 0x20 PUSH1 0x0 KECCAK256 ADD PUSH1 0x0 SWAP1 SWAP2 SWAP1 SWAP2 SWAP1 SWAP2 PUSH2 0x100 EXP DUP2 SLOAD DUP2 PUSH20 0xFFFFFFFFFFFFFFFFFFFFFFFFFFFFFFFFFFFFFFFF MUL NOT AND SWAP1 DUP4 PUSH20 0xFFFFFFFFFFFFFFFFFFFFFFFFFFFFFFFFFFFFFFFF AND MUL OR SWAP1 SSTORE POP PUSH32 0x787A470148C364FF9C70E82B2C6C1B0BECBCA7969011737F1F93CE9307B424E9 DUP10 DUP10 DUP10 DUP10 DUP10 DUP9 PUSH1 0x1 ADD SLOAD PUSH1 0x40 MLOAD PUSH2 0x13E8 SWAP7 SWAP6 SWAP5 SWAP4 SWAP3 SWAP2 SWAP1 PUSH2 0x2F4E JUMP JUMPDEST PUSH1 0x40 MLOAD DUP1 SWAP2 SUB SWAP1 LOG1 POP POP POP POP POP POP POP POP POP JUMP JUMPDEST JUMP JUMPDEST PUSH1 0x0 PUSH1 0x1 DUP2 GT ISZERO PUSH2 0x140A JUMPI INVALID JUMPDEST DUP6 PUSH1 0x1 DUP2 GT ISZERO PUSH2 0x1416 JUMPI INVALID JUMPDEST EQ ISZERO PUSH2 0x149B JUMPI DUP6 PUSH20 0xFFFFFFFFFFFFFFFFFFFFFFFFFFFFFFFFFFFFFFFF AND CALLER PUSH20 0xFFFFFFFFFFFFFFFFFFFFFFFFFFFFFFFFFFFFFFFF AND EQ PUSH2 0x148A JUMPI PUSH1 0x40 MLOAD PUSH32 0x8C379A000000000000000000000000000000000000000000000000000000000 DUP2 MSTORE PUSH1 0x4 ADD PUSH2 0x1481 SWAP1 PUSH2 0x3114 JUMP JUMPDEST PUSH1 0x40 MLOAD DUP1 SWAP2 SUB SWAP1 REVERT JUMPDEST PUSH2 0x1496 DUP8 DUP8 DUP4 DUP6 PUSH2 0x26F JUMP JUMPDEST PUSH2 0x1516 JUMP JUMPDEST DUP7 PUSH20 0xFFFFFFFFFFFFFFFFFFFFFFFFFFFFFFFFFFFFFFFF AND CALLER PUSH20 0xFFFFFFFFFFFFFFFFFFFFFFFFFFFFFFFFFFFFFFFF AND EQ PUSH2 0x1509 JUMPI PUSH1 0x40 MLOAD PUSH32 0x8C379A000000000000000000000000000000000000000000000000000000000 DUP2 MSTORE PUSH1 0x4 ADD PUSH2 0x1500 SWAP1 PUSH2 0x3134 JUMP JUMPDEST PUSH1 0x40 MLOAD DUP1 SWAP2 SUB SWAP1 REVERT JUMPDEST PUSH2 0x1515 DUP8 DUP8 DUP4 DUP6 PUSH2 0x26F JUMP JUMPDEST JUMPDEST DUP6 PUSH20 0xFFFFFFFFFFFFFFFFFFFFFFFFFFFFFFFFFFFFFFFF AND DUP8 PUSH20 0xFFFFFFFFFFFFFFFFFFFFFFFFFFFFFFFFFFFFFFFF AND PUSH32 0x52F2CBDDB551A0CD4AD65095542B2EFD13CD261642F4034C3B0C01B232C2591D DUP8 DUP8 DUP8 DUP8 DUP8 PUSH1 0x40 MLOAD PUSH2 0x157B SWAP6 SWAP5 SWAP4 SWAP3 SWAP2 SWAP1 PUSH2 0x3061 JUMP JUMPDEST PUSH1 0x40 MLOAD DUP1 SWAP2 SUB SWAP1 LOG3 POP POP POP POP POP POP POP JUMP JUMPDEST JUMP JUMPDEST PUSH1 0x0 JUMPDEST PUSH1 0x56 DUP1 SLOAD SWAP1 POP DUP2 LT ISZERO PUSH2 0x1668 JUMPI PUSH1 0x0 PUSH1 0x55 PUSH1 0x0 PUSH1 0x56 DUP5 DUP2 SLOAD DUP2 LT PUSH2 0x15B1 JUMPI INVALID JUMPDEST SWAP1 PUSH1 0x0 MSTORE PUSH1 0x20 PUSH1 0x0 KECCAK256 ADD PUSH1 0x0 SWAP1 SLOAD SWAP1 PUSH2 0x100 EXP SWAP1 DIV PUSH20 0xFFFFFFFFFFFFFFFFFFFFFFFFFFFFFFFFFFFFFFFF AND PUSH20 0xFFFFFFFFFFFFFFFFFFFFFFFFFFFFFFFFFFFFFFFF AND PUSH20 0xFFFFFFFFFFFFFFFFFFFFFFFFFFFFFFFFFFFFFFFF AND DUP2 MSTORE PUSH1 0x20 ADD SWAP1 DUP2 MSTORE PUSH1 0x20 ADD PUSH1 0x0 KECCAK256 PUSH1 0x0 ADD SWAP1 POP PUSH1 0x0 JUMPDEST DUP2 DUP1 SLOAD SWAP1 POP DUP2 LT ISZERO PUSH2 0x1659 JUMPI PUSH2 0x164C DUP3 DUP3 DUP2 SLOAD DUP2 LT PUSH2 0x1639 JUMPI INVALID JUMPDEST SWAP1 PUSH1 0x0 MSTORE PUSH1 0x20 PUSH1 0x0 KECCAK256 SWAP1 PUSH1 0x19 MUL ADD PUSH2 0x1987 JUMP JUMPDEST DUP1 DUP1 PUSH1 0x1 ADD SWAP2 POP POP PUSH2 0x161E JUMP JUMPDEST POP POP DUP1 DUP1 PUSH1 0x1 ADD SWAP2 POP POP PUSH2 0x1591 JUMP JUMPDEST POP JUMP JUMPDEST PUSH2 0x1673 PUSH2 0x2137 JUMP JUMPDEST PUSH2 0x167B PUSH2 0x2178 JUMP JUMPDEST PUSH1 0x2A DUP6 PUSH1 0x5 DUP2 GT ISZERO PUSH2 0x1689 JUMPI INVALID JUMPDEST PUSH1 0x6 DUP2 LT PUSH2 0x1693 JUMPI INVALID JUMPDEST PUSH1 0x5 MUL ADD PUSH1 0x5 DUP1 PUSH1 0x20 MUL PUSH1 0x40 MLOAD SWAP1 DUP2 ADD PUSH1 0x40 MSTORE DUP1 SWAP3 SWAP2 SWAP1 DUP3 PUSH1 0x5 DUP1 ISZERO PUSH2 0x16CE JUMPI PUSH1 0x20 MUL DUP3 ADD SWAP2 JUMPDEST DUP2 SLOAD DUP2 MSTORE PUSH1 0x20 ADD SWAP1 PUSH1 0x1 ADD SWAP1 DUP1 DUP4 GT PUSH2 0x16BA JUMPI JUMPDEST POP POP POP POP POP SWAP1 POP PUSH2 0x16DD PUSH2 0x2178 JUMP JUMPDEST PUSH1 0x2A DUP7 PUSH1 0x5 DUP2 GT ISZERO PUSH2 0x16EB JUMPI INVALID JUMPDEST PUSH1 0x6 DUP2 LT PUSH2 0x16F5 JUMPI INVALID JUMPDEST PUSH1 0x5 MUL ADD PUSH1 0x5 DUP1 PUSH1 0x20 MUL PUSH1 0x40 MLOAD SWAP1 DUP2 ADD PUSH1 0x40 MSTORE DUP1 SWAP3 SWAP2 SWAP1 DUP3 PUSH1 0x5 DUP1 ISZERO PUSH2 0x1730 JUMPI PUSH1 0x20 MUL DUP3 ADD SWAP2 JUMPDEST DUP2 SLOAD DUP2 MSTORE PUSH1 0x20 ADD SWAP1 PUSH1 0x1 ADD SWAP1 DUP1 DUP4 GT PUSH2 0x171C JUMPI JUMPDEST POP POP POP POP POP SWAP1 POP PUSH2 0x173F PUSH2 0x2178 JUMP JUMPDEST PUSH1 0x2A DUP8 PUSH1 0x5 DUP2 GT ISZERO PUSH2 0x174D JUMPI INVALID JUMPDEST PUSH1 0x6 DUP2 LT PUSH2 0x1757 JUMPI INVALID JUMPDEST PUSH1 0x5 MUL ADD PUSH1 0x5 DUP1 PUSH1 0x20 MUL PUSH1 0x40 MLOAD SWAP1 DUP2 ADD PUSH1 0x40 MSTORE DUP1 SWAP3 SWAP2 SWAP1 DUP3 PUSH1 0x5 DUP1 ISZERO PUSH2 0x1792 JUMPI PUSH1 0x20 MUL DUP3 ADD SWAP2 JUMPDEST DUP2 SLOAD DUP2 MSTORE PUSH1 0x20 ADD SWAP1 PUSH1 0x1 ADD SWAP1 DUP1 DUP4 GT PUSH2 0x177E JUMPI JUMPDEST POP POP POP POP POP SWAP1 POP PUSH1 0x0 JUMPDEST PUSH1 0x48 DUP9 PUSH1 0x5 DUP2 GT ISZERO PUSH2 0x17AA JUMPI INVALID JUMPDEST PUSH1 0x6 DUP2 LT PUSH2 0x17B4 JUMPI INVALID JUMPDEST ADD SLOAD DUP2 LT ISZERO PUSH2 0x184E JUMPI PUSH3 0x127500 TIMESTAMP SUB DUP5 DUP3 PUSH1 0x5 DUP2 LT PUSH2 0x17CF JUMPI INVALID JUMPDEST PUSH1 0x20 MUL ADD DUP2 DUP2 MLOAD ADD SWAP2 POP DUP2 DUP2 MSTORE POP POP TIMESTAMP DUP4 DUP3 PUSH1 0x5 DUP2 LT PUSH2 0x17EB JUMPI INVALID JUMPDEST PUSH1 0x20 MUL ADD DUP2 DUP2 MLOAD ADD SWAP2 POP DUP2 DUP2 MSTORE POP POP PUSH2 0x2710 DUP1 PUSH1 0x6 DUP11 PUSH1 0x5 DUP2 GT ISZERO PUSH2 0x180C JUMPI INVALID JUMPDEST PUSH1 0x6 DUP2 LT PUSH2 0x1816 JUMPI INVALID JUMPDEST ADD SLOAD DUP9 DUP11 MUL MUL DUP2 PUSH2 0x1823 JUMPI INVALID JUMPDEST DIV DUP2 PUSH2 0x182B JUMPI INVALID JUMPDEST DIV DUP3 DUP3 PUSH1 0x5 DUP2 LT PUSH2 0x1838 JUMPI INVALID JUMPDEST PUSH1 0x20 MUL ADD DUP2 DUP2 MSTORE POP POP DUP1 DUP1 PUSH1 0x1 ADD SWAP2 POP POP PUSH2 0x179C JUMP JUMPDEST POP PUSH1 0x40 MLOAD DUP1 PUSH1 0xA0 ADD PUSH1 0x40 MSTORE DUP1 TIMESTAMP DUP2 MSTORE PUSH1 0x20 ADD PUSH1 0x0 DUP10 PUSH1 0x5 DUP2 GT ISZERO PUSH2 0x186E JUMPI INVALID JUMPDEST PUSH1 0x6 DUP2 LT PUSH2 0x1878 JUMPI INVALID JUMPDEST ADD SLOAD TIMESTAMP ADD DUP2 MSTORE PUSH1 0x20 ADD DUP5 DUP2 MSTORE PUSH1 0x20 ADD DUP4 DUP2 MSTORE PUSH1 0x20 ADD DUP3 DUP2 MSTORE POP SWAP4 POP POP POP POP SWAP4 SWAP3 POP POP POP JUMP JUMPDEST PUSH1 0x60 PUSH1 0x56 DUP1 SLOAD DUP1 PUSH1 0x20 MUL PUSH1 0x20 ADD PUSH1 0x40 MLOAD SWAP1 DUP2 ADD PUSH1 0x40 MSTORE DUP1 SWAP3 SWAP2 SWAP1 DUP2 DUP2 MSTORE PUSH1 0x20 ADD DUP3 DUP1 SLOAD DUP1 ISZERO PUSH2 0x1921 JUMPI PUSH1 0x20 MUL DUP3 ADD SWAP2 SWAP1 PUSH1 0x0 MSTORE PUSH1 0x20 PUSH1 0x0 KECCAK256 SWAP1 JUMPDEST DUP2 PUSH1 0x0 SWAP1 SLOAD SWAP1 PUSH2 0x100 EXP SWAP1 DIV PUSH20 0xFFFFFFFFFFFFFFFFFFFFFFFFFFFFFFFFFFFFFFFF AND PUSH20 0xFFFFFFFFFFFFFFFFFFFFFFFFFFFFFFFFFFFFFFFF AND DUP2 MSTORE PUSH1 0x20 ADD SWAP1 PUSH1 0x1 ADD SWAP1 DUP1 DUP4 GT PUSH2 0x18D7 JUMPI JUMPDEST POP POP POP POP POP SWAP1 POP SWAP1 JUMP JUMPDEST DUP1 PUSH1 0x40 MLOAD PUSH2 0x1939 SWAP2 SWAP1 PUSH2 0x2EC9 JUMP JUMPDEST PUSH1 0x40 MLOAD DUP1 SWAP2 SUB SWAP1 KECCAK256 CALLER PUSH20 0xFFFFFFFFFFFFFFFFFFFFFFFFFFFFFFFFFFFFFFFF AND PUSH32 0xCAAE09DD31620E2C5BCF9E6DAD95456038E24D2E3CACE50697DE61F62F306872 PUSH1 0x40 MLOAD PUSH1 0x40 MLOAD DUP1 SWAP2 SUB SWAP1 LOG3 POP JUMP JUMPDEST PUSH2 0x198F PUSH2 0x219A JUMP JUMPDEST PUSH1 0x57 PUSH1 0x0 SWAP1 SLOAD SWAP1 PUSH2 0x100 EXP SWAP1 DIV PUSH20 0xFFFFFFFFFFFFFFFFFFFFFFFFFFFFFFFFFFFFFFFF AND PUSH20 0xFFFFFFFFFFFFFFFFFFFFFFFFFFFFFFFFFFFFFFFF AND PUSH4 0x69FA00C PUSH1 0x40 MLOAD DUP2 PUSH4 0xFFFFFFFF AND PUSH1 0xE0 SHL DUP2 MSTORE PUSH1 0x4 ADD PUSH2 0x2A0 PUSH1 0x40 MLOAD DUP1 DUP4 SUB DUP2 DUP7 DUP1 EXTCODESIZE ISZERO DUP1 ISZERO PUSH2 0x19F8 JUMPI PUSH1 0x0 DUP1 REVERT JUMPDEST POP GAS STATICCALL ISZERO DUP1 ISZERO PUSH2 0x1A0C JUMPI RETURNDATASIZE PUSH1 0x0 DUP1 RETURNDATACOPY RETURNDATASIZE PUSH1 0x0 REVERT JUMPDEST POP POP POP POP PUSH1 0x40 MLOAD RETURNDATASIZE PUSH1 0x1F NOT PUSH1 0x1F DUP3 ADD AND DUP3 ADD DUP1 PUSH1 0x40 MSTORE POP DUP2 ADD SWAP1 PUSH2 0x1A30 SWAP2 SWAP1 PUSH2 0x25DA JUMP JUMPDEST SWAP1 POP PUSH2 0x1A3A PUSH2 0x21C7 JUMP JUMPDEST DUP2 DUP4 PUSH1 0x2 ADD PUSH1 0x15 SWAP1 SLOAD SWAP1 PUSH2 0x100 EXP SWAP1 DIV PUSH1 0xFF AND PUSH1 0x2 DUP2 GT ISZERO PUSH2 0x1A58 JUMPI INVALID JUMPDEST PUSH1 0x3 DUP2 LT PUSH2 0x1A62 JUMPI INVALID JUMPDEST PUSH1 0x20 MUL ADD MLOAD SWAP1 POP PUSH2 0x1A71 PUSH2 0x2204 JUMP JUMPDEST PUSH1 0x40 MLOAD DUP1 PUSH1 0xE0 ADD PUSH1 0x40 MSTORE DUP1 DUP4 PUSH1 0x0 ADD MLOAD DUP2 MSTORE PUSH1 0x20 ADD DUP4 PUSH1 0x20 ADD MLOAD DUP2 MSTORE PUSH1 0x20 ADD DUP4 PUSH1 0x40 ADD MLOAD DUP2 MSTORE PUSH1 0x20 ADD DUP4 PUSH1 0x60 ADD MLOAD DUP2 MSTORE PUSH1 0x20 ADD DUP4 PUSH1 0x80 ADD MLOAD DUP2 MSTORE PUSH1 0x20 ADD DUP4 PUSH1 0xA0 ADD MLOAD DUP2 MSTORE PUSH1 0x20 ADD DUP4 PUSH1 0xC0 ADD MLOAD DUP2 MSTORE POP SWAP1 POP PUSH2 0x1ACA PUSH2 0x2178 JUMP JUMPDEST DUP5 PUSH1 0x5 ADD PUSH1 0x7 ADD PUSH1 0x5 DUP1 PUSH1 0x20 MUL PUSH1 0x40 MLOAD SWAP1 DUP2 ADD PUSH1 0x40 MSTORE DUP1 SWAP3 SWAP2 SWAP1 DUP3 PUSH1 0x5 DUP1 ISZERO PUSH2 0x1B08 JUMPI PUSH1 0x20 MUL DUP3 ADD SWAP2 JUMPDEST DUP2 SLOAD DUP2 MSTORE PUSH1 0x20 ADD SWAP1 PUSH1 0x1 ADD SWAP1 DUP1 DUP4 GT PUSH2 0x1AF4 JUMPI JUMPDEST POP POP POP POP POP SWAP1 POP PUSH2 0x1B17 PUSH2 0x2178 JUMP JUMPDEST DUP6 PUSH1 0x5 ADD PUSH1 0xC ADD PUSH1 0x5 DUP1 PUSH1 0x20 MUL PUSH1 0x40 MLOAD SWAP1 DUP2 ADD PUSH1 0x40 MSTORE DUP1 SWAP3 SWAP2 SWAP1 DUP3 PUSH1 0x5 DUP1 ISZERO PUSH2 0x1B55 JUMPI PUSH1 0x20 MUL DUP3 ADD SWAP2 JUMPDEST DUP2 SLOAD DUP2 MSTORE PUSH1 0x20 ADD SWAP1 PUSH1 0x1 ADD SWAP1 DUP1 DUP4 GT PUSH2 0x1B41 JUMPI JUMPDEST POP POP POP POP POP SWAP1 POP PUSH2 0x1B64 PUSH2 0x2178 JUMP JUMPDEST PUSH1 0x0 DUP1 JUMPDEST PUSH1 0x48 DUP10 PUSH1 0x2 ADD PUSH1 0x16 SWAP1 SLOAD SWAP1 PUSH2 0x100 EXP SWAP1 DIV PUSH1 0xFF AND PUSH1 0x5 DUP2 GT ISZERO PUSH2 0x1B87 JUMPI INVALID JUMPDEST PUSH1 0x6 DUP2 LT PUSH2 0x1B91 JUMPI INVALID JUMPDEST ADD SLOAD DUP2 LT ISZERO PUSH2 0x1BFE JUMPI PUSH1 0x0 PUSH2 0x1BB6 DUP8 DUP8 DUP5 PUSH1 0x5 DUP2 LT PUSH2 0x1BAC JUMPI INVALID JUMPDEST PUSH1 0x20 MUL ADD MLOAD PUSH2 0x1E58 JUMP JUMPDEST SWAP1 POP DUP1 DUP5 DUP4 PUSH1 0x5 DUP2 LT PUSH2 0x1BC5 JUMPI INVALID JUMPDEST PUSH1 0x20 MUL ADD DUP2 DUP2 MSTORE POP POP PUSH2 0x2710 DUP2 DUP7 DUP5 PUSH1 0x5 DUP2 LT PUSH2 0x1BDE JUMPI INVALID JUMPDEST PUSH1 0x20 MUL ADD MLOAD MUL DUP2 PUSH2 0x1BEB JUMPI INVALID JUMPDEST DIV DUP4 ADD SWAP3 POP POP DUP1 DUP1 PUSH1 0x1 ADD SWAP2 POP POP PUSH2 0x1B68 JUMP JUMPDEST POP PUSH1 0x0 PUSH1 0x1 PUSH1 0x48 DUP11 PUSH1 0x2 ADD PUSH1 0x16 SWAP1 SLOAD SWAP1 PUSH2 0x100 EXP SWAP1 DIV PUSH1 0xFF AND PUSH1 0x5 DUP2 GT ISZERO PUSH2 0x1C22 JUMPI INVALID JUMPDEST PUSH1 0x6 DUP2 LT PUSH2 0x1C2C JUMPI INVALID JUMPDEST ADD SLOAD SUB SWAP1 POP PUSH2 0x2710 DUP4 DUP3 PUSH1 0x5 DUP2 LT PUSH2 0x1C40 JUMPI INVALID JUMPDEST PUSH1 0x20 MUL ADD MLOAD DUP11 PUSH1 0x3 ADD SLOAD MUL DUP2 PUSH2 0x1C52 JUMPI INVALID JUMPDEST DIV DUP3 ADD SWAP2 POP DUP2 DUP10 PUSH1 0x16 ADD DUP2 SWAP1 SSTORE POP TIMESTAMP DUP10 PUSH1 0x17 ADD DUP2 SWAP1 SSTORE POP POP POP POP POP POP POP POP POP POP JUMP JUMPDEST PUSH2 0x1C7C PUSH2 0x1FC9 JUMP JUMPDEST PUSH2 0x1C84 PUSH2 0x1FC9 JUMP JUMPDEST DUP3 DUP2 PUSH1 0x0 ADD DUP2 DUP2 MSTORE POP POP PUSH1 0x0 PUSH1 0x1 DUP2 GT ISZERO PUSH2 0x1C9B JUMPI INVALID JUMPDEST DUP6 PUSH1 0x20 ADD MLOAD PUSH1 0x1 DUP2 GT ISZERO PUSH2 0x1CAB JUMPI INVALID JUMPDEST EQ PUSH2 0x1CB6 JUMPI CALLER PUSH2 0x1CBC JUMP JUMPDEST DUP5 PUSH1 0x0 ADD MLOAD JUMPDEST DUP2 PUSH1 0x20 ADD SWAP1 PUSH20 0xFFFFFFFFFFFFFFFFFFFFFFFFFFFFFFFFFFFFFFFF AND SWAP1 DUP2 PUSH20 0xFFFFFFFFFFFFFFFFFFFFFFFFFFFFFFFFFFFFFFFF AND DUP2 MSTORE POP POP PUSH1 0x1 DUP1 DUP2 GT ISZERO PUSH2 0x1CFF JUMPI INVALID JUMPDEST DUP6 PUSH1 0x20 ADD MLOAD PUSH1 0x1 DUP2 GT ISZERO PUSH2 0x1D0F JUMPI INVALID JUMPDEST EQ PUSH2 0x1D1A JUMPI CALLER PUSH2 0x1D20 JUMP JUMPDEST DUP5 PUSH1 0x0 ADD MLOAD JUMPDEST DUP2 PUSH1 0x40 ADD SWAP1 PUSH20 0xFFFFFFFFFFFFFFFFFFFFFFFFFFFFFFFFFFFFFFFF AND SWAP1 DUP2 PUSH20 0xFFFFFFFFFFFFFFFFFFFFFFFFFFFFFFFFFFFFFFFF AND DUP2 MSTORE POP POP DUP5 PUSH1 0x20 ADD MLOAD DUP2 PUSH1 0x60 ADD SWAP1 PUSH1 0x1 DUP2 GT ISZERO PUSH2 0x1D6C JUMPI INVALID JUMPDEST SWAP1 DUP2 PUSH1 0x1 DUP2 GT ISZERO PUSH2 0x1D79 JUMPI INVALID JUMPDEST DUP2 MSTORE POP POP DUP5 PUSH1 0x40 ADD MLOAD DUP2 PUSH1 0x80 ADD SWAP1 PUSH1 0x2 DUP2 GT ISZERO PUSH2 0x1D92 JUMPI INVALID JUMPDEST SWAP1 DUP2 PUSH1 0x2 DUP2 GT ISZERO PUSH2 0x1D9F JUMPI INVALID JUMPDEST DUP2 MSTORE POP POP DUP5 PUSH1 0x60 ADD MLOAD DUP2 PUSH1 0xA0 ADD SWAP1 PUSH1 0x5 DUP2 GT ISZERO PUSH2 0x1DB8 JUMPI INVALID JUMPDEST SWAP1 DUP2 PUSH1 0x5 DUP2 GT ISZERO PUSH2 0x1DC5 JUMPI INVALID JUMPDEST DUP2 MSTORE POP POP DUP5 PUSH1 0x80 ADD MLOAD DUP2 PUSH1 0xC0 ADD DUP2 DUP2 MSTORE POP POP DUP4 DUP2 PUSH1 0xE0 ADD DUP2 DUP2 MSTORE POP POP PUSH2 0x1DF4 DUP6 PUSH1 0x60 ADD MLOAD DUP7 PUSH1 0x80 ADD MLOAD DUP7 PUSH2 0x166B JUMP JUMPDEST DUP2 PUSH2 0x100 ADD DUP2 SWAP1 MSTORE POP DUP5 PUSH1 0x80 ADD MLOAD DUP2 PUSH2 0x120 ADD DUP2 DUP2 MSTORE POP POP TIMESTAMP DUP2 PUSH2 0x140 ADD DUP2 DUP2 MSTORE POP POP PUSH1 0x1 DUP2 PUSH2 0x160 ADD SWAP1 ISZERO ISZERO SWAP1 DUP2 ISZERO ISZERO DUP2 MSTORE POP POP PUSH1 0x0 DUP2 PUSH2 0x180 ADD SWAP1 PUSH1 0x5 DUP2 GT ISZERO PUSH2 0x1E3C JUMPI INVALID JUMPDEST SWAP1 DUP2 PUSH1 0x5 DUP2 GT ISZERO PUSH2 0x1E49 JUMPI INVALID JUMPDEST DUP2 MSTORE POP POP DUP1 SWAP2 POP POP SWAP4 SWAP3 POP POP POP JUMP JUMPDEST PUSH1 0x0 TIMESTAMP DUP3 GT PUSH2 0x1E6A JUMPI PUSH1 0x0 SWAP1 POP PUSH2 0x1FA0 JUMP JUMPDEST PUSH1 0x0 TIMESTAMP DUP4 SUB SWAP1 POP PUSH1 0x4E PUSH1 0x0 PUSH1 0x7 DUP2 LT PUSH2 0x1E7F JUMPI INVALID JUMPDEST ADD SLOAD DUP2 GT PUSH2 0x1EBB JUMPI PUSH1 0x4E PUSH1 0x0 PUSH1 0x7 DUP2 LT PUSH2 0x1E95 JUMPI INVALID JUMPDEST ADD SLOAD DUP2 DUP6 PUSH1 0x0 PUSH1 0x7 DUP2 LT PUSH2 0x1EA5 JUMPI INVALID JUMPDEST PUSH1 0x20 MUL ADD MLOAD MUL DUP2 PUSH2 0x1EB2 JUMPI INVALID JUMPDEST DIV SWAP2 POP POP PUSH2 0x1FA0 JUMP JUMPDEST PUSH1 0x0 PUSH1 0x1 SWAP1 POP JUMPDEST PUSH1 0x7 DUP2 LT ISZERO PUSH2 0x1F9D JUMPI DUP2 PUSH1 0x4E PUSH1 0x1 DUP4 SUB PUSH1 0x7 DUP2 LT PUSH2 0x1EDC JUMPI INVALID JUMPDEST ADD SLOAD LT DUP1 ISZERO PUSH2 0x1EF9 JUMPI POP PUSH1 0x4E DUP2 PUSH1 0x7 DUP2 LT PUSH2 0x1EF3 JUMPI INVALID JUMPDEST ADD SLOAD DUP3 GT ISZERO JUMPDEST ISZERO PUSH2 0x1F90 JUMPI PUSH1 0x0 PUSH1 0x4E PUSH1 0x1 DUP4 SUB PUSH1 0x7 DUP2 LT PUSH2 0x1F10 JUMPI INVALID JUMPDEST ADD SLOAD DUP4 SUB SWAP1 POP PUSH1 0x0 DUP4 PUSH1 0x4E DUP5 PUSH1 0x7 DUP2 LT PUSH2 0x1F26 JUMPI INVALID JUMPDEST ADD SLOAD SUB SWAP1 POP PUSH1 0x0 PUSH1 0x4E PUSH1 0x1 DUP6 SUB PUSH1 0x7 DUP2 LT PUSH2 0x1F3D JUMPI INVALID JUMPDEST ADD SLOAD PUSH1 0x4E DUP6 PUSH1 0x7 DUP2 LT PUSH2 0x1F4C JUMPI INVALID JUMPDEST ADD SLOAD SUB SWAP1 POP DUP1 DUP4 DUP10 DUP7 PUSH1 0x7 DUP2 LT PUSH2 0x1F5F JUMPI INVALID JUMPDEST PUSH1 0x20 MUL ADD MLOAD MUL DUP4 DUP11 PUSH1 0x1 DUP9 SUB PUSH1 0x7 DUP2 LT PUSH2 0x1F75 JUMPI INVALID JUMPDEST PUSH1 0x20 MUL ADD MLOAD MUL ADD DUP2 PUSH2 0x1F83 JUMPI INVALID JUMPDEST DIV SWAP6 POP POP POP POP POP POP PUSH2 0x1FA0 JUMP JUMPDEST DUP1 DUP1 PUSH1 0x1 ADD SWAP2 POP POP PUSH2 0x1EC2 JUMP JUMPDEST POP POP JUMPDEST SWAP3 SWAP2 POP POP JUMP JUMPDEST PUSH1 0x40 MLOAD DUP1 PUSH1 0x60 ADD PUSH1 0x40 MSTORE DUP1 PUSH1 0x60 DUP2 MSTORE PUSH1 0x20 ADD PUSH1 0x0 DUP2 MSTORE PUSH1 0x20 ADD PUSH1 0x0 ISZERO ISZERO DUP2 MSTORE POP SWAP1 JUMP JUMPDEST PUSH1 0x40 MLOAD DUP1 PUSH2 0x1A0 ADD PUSH1 0x40 MSTORE DUP1 PUSH1 0x0 DUP2 MSTORE PUSH1 0x20 ADD PUSH1 0x0 PUSH20 0xFFFFFFFFFFFFFFFFFFFFFFFFFFFFFFFFFFFFFFFF AND DUP2 MSTORE PUSH1 0x20 ADD PUSH1 0x0 PUSH20 0xFFFFFFFFFFFFFFFFFFFFFFFFFFFFFFFFFFFFFFFF AND DUP2 MSTORE PUSH1 0x20 ADD PUSH1 0x0 PUSH1 0x1 DUP2 GT ISZERO PUSH2 0x2023 JUMPI INVALID JUMPDEST DUP2 MSTORE PUSH1 0x20 ADD PUSH1 0x0 PUSH1 0x2 DUP2 GT ISZERO PUSH2 0x2035 JUMPI INVALID JUMPDEST DUP2 MSTORE PUSH1 0x20 ADD PUSH1 0x0 PUSH1 0x5 DUP2 GT ISZERO PUSH2 0x2047 JUMPI INVALID JUMPDEST DUP2 MSTORE PUSH1 0x20 ADD PUSH1 0x0 DUP2 MSTORE PUSH1 0x20 ADD PUSH1 0x0 DUP2 MSTORE PUSH1 0x20 ADD PUSH2 0x2062 PUSH2 0x2137 JUMP JUMPDEST DUP2 MSTORE PUSH1 0x20 ADD PUSH1 0x0 DUP2 MSTORE PUSH1 0x20 ADD PUSH1 0x0 DUP2 MSTORE PUSH1 0x20 ADD PUSH1 0x0 ISZERO ISZERO DUP2 MSTORE PUSH1 0x20 ADD PUSH1 0x0 PUSH1 0x5 DUP2 GT ISZERO PUSH2 0x208B JUMPI INVALID JUMPDEST DUP2 MSTORE POP SWAP1 JUMP JUMPDEST PUSH1 0x40 MLOAD DUP1 PUSH1 0xA0 ADD PUSH1 0x40 MSTORE DUP1 PUSH1 0x0 PUSH20 0xFFFFFFFFFFFFFFFFFFFFFFFFFFFFFFFFFFFFFFFF AND DUP2 MSTORE PUSH1 0x20 ADD PUSH1 0x0 PUSH1 0x1 DUP2 GT ISZERO PUSH2 0x20C6 JUMPI INVALID JUMPDEST DUP2 MSTORE PUSH1 0x20 ADD PUSH1 0x0 PUSH1 0x2 DUP2 GT ISZERO PUSH2 0x20D8 JUMPI INVALID JUMPDEST DUP2 MSTORE PUSH1 0x20 ADD PUSH1 0x0 PUSH1 0x5 DUP2 GT ISZERO PUSH2 0x20EA JUMPI INVALID JUMPDEST DUP2 MSTORE PUSH1 0x20 ADD PUSH1 0x0 DUP2 MSTORE POP SWAP1 JUMP JUMPDEST DUP3 PUSH1 0x5 DUP2 ADD SWAP3 DUP3 ISZERO PUSH2 0x2126 JUMPI SWAP2 PUSH1 0x20 MUL DUP3 ADD JUMPDEST DUP3 DUP2 GT ISZERO PUSH2 0x2125 JUMPI DUP3 MLOAD DUP3 SSTORE SWAP2 PUSH1 0x20 ADD SWAP2 SWAP1 PUSH1 0x1 ADD SWAP1 PUSH2 0x210A JUMP JUMPDEST JUMPDEST POP SWAP1 POP PUSH2 0x2133 SWAP2 SWAP1 PUSH2 0x2226 JUMP JUMPDEST POP SWAP1 JUMP JUMPDEST PUSH1 0x40 MLOAD DUP1 PUSH1 0xA0 ADD PUSH1 0x40 MSTORE DUP1 PUSH1 0x0 DUP2 MSTORE PUSH1 0x20 ADD PUSH1 0x0 DUP2 MSTORE PUSH1 0x20 ADD PUSH2 0x2158 PUSH2 0x2178 JUMP JUMPDEST DUP2 MSTORE PUSH1 0x20 ADD PUSH2 0x2165 PUSH2 0x2178 JUMP JUMPDEST DUP2 MSTORE PUSH1 0x20 ADD PUSH2 0x2172 PUSH2 0x2178 JUMP JUMPDEST DUP2 MSTORE POP SWAP1 JUMP JUMPDEST PUSH1 0x40 MLOAD DUP1 PUSH1 0xA0 ADD PUSH1 0x40 MSTORE DUP1 PUSH1 0x5 SWAP1 PUSH1 0x20 DUP3 MUL DUP1 CALLDATASIZE DUP4 CALLDATACOPY DUP1 DUP3 ADD SWAP2 POP POP SWAP1 POP POP SWAP1 JUMP JUMPDEST PUSH1 0x40 MLOAD DUP1 PUSH1 0x60 ADD PUSH1 0x40 MSTORE DUP1 PUSH1 0x3 SWAP1 JUMPDEST PUSH2 0x21B1 PUSH2 0x21C7 JUMP JUMPDEST DUP2 MSTORE PUSH1 0x20 ADD SWAP1 PUSH1 0x1 SWAP1 SUB SWAP1 DUP2 PUSH2 0x21A9 JUMPI SWAP1 POP POP SWAP1 JUMP JUMPDEST PUSH1 0x40 MLOAD DUP1 PUSH1 0xE0 ADD PUSH1 0x40 MSTORE DUP1 PUSH1 0x0 DUP2 MSTORE PUSH1 0x20 ADD PUSH1 0x0 DUP2 MSTORE PUSH1 0x20 ADD PUSH1 0x0 DUP2 MSTORE PUSH1 0x20 ADD PUSH1 0x0 DUP2 MSTORE PUSH1 0x20 ADD PUSH1 0x0 DUP2 MSTORE PUSH1 0x20 ADD PUSH1 0x0 DUP2 MSTORE PUSH1 0x20 ADD PUSH1 0x0 DUP2 MSTORE POP SWAP1 JUMP JUMPDEST PUSH1 0x40 MLOAD DUP1 PUSH1 0xE0 ADD PUSH1 0x40 MSTORE DUP1 PUSH1 0x7 SWAP1 PUSH1 0x20 DUP3 MUL DUP1 CALLDATASIZE DUP4 CALLDATACOPY DUP1 DUP3 ADD SWAP2 POP POP SWAP1 POP POP SWAP1 JUMP JUMPDEST JUMPDEST DUP1 DUP3 GT ISZERO PUSH2 0x223F JUMPI PUSH1 0x0 DUP2 PUSH1 0x0 SWAP1 SSTORE POP PUSH1 0x1 ADD PUSH2 0x2227 JUMP JUMPDEST POP SWAP1 JUMP JUMPDEST PUSH1 0x0 DUP2 CALLDATALOAD SWAP1 POP PUSH2 0x2252 DUP2 PUSH2 0x34D0 JUMP JUMPDEST SWAP3 SWAP2 POP POP JUMP JUMPDEST PUSH1 0x0 DUP3 PUSH1 0x1F DUP4 ADD SLT PUSH2 0x2269 JUMPI PUSH1 0x0 DUP1 REVERT JUMPDEST PUSH1 0x3 PUSH2 0x227C PUSH2 0x2277 DUP3 PUSH2 0x31FB JUMP JUMPDEST PUSH2 0x31CE JUMP JUMPDEST SWAP2 POP DUP2 DUP4 DUP6 PUSH1 0xE0 DUP5 MUL DUP3 ADD GT ISZERO PUSH2 0x2292 JUMPI PUSH1 0x0 DUP1 REVERT JUMPDEST PUSH1 0x0 JUMPDEST DUP4 DUP2 LT ISZERO PUSH2 0x22C2 JUMPI DUP2 PUSH2 0x22A8 DUP9 DUP3 PUSH2 0x235F JUMP JUMPDEST DUP5 MSTORE PUSH1 0x20 DUP5 ADD SWAP4 POP PUSH1 0xE0 DUP4 ADD SWAP3 POP POP PUSH1 0x1 DUP2 ADD SWAP1 POP PUSH2 0x2295 JUMP JUMPDEST POP POP POP POP SWAP3 SWAP2 POP POP JUMP JUMPDEST PUSH1 0x0 DUP2 CALLDATALOAD SWAP1 POP PUSH2 0x22DB DUP2 PUSH2 0x34E7 JUMP JUMPDEST SWAP3 SWAP2 POP POP JUMP JUMPDEST PUSH1 0x0 DUP2 CALLDATALOAD SWAP1 POP PUSH2 0x22F0 DUP2 PUSH2 0x34F7 JUMP JUMPDEST SWAP3 SWAP2 POP POP JUMP JUMPDEST PUSH1 0x0 DUP2 CALLDATALOAD SWAP1 POP PUSH2 0x2305 DUP2 PUSH2 0x3507 JUMP JUMPDEST SWAP3 SWAP2 POP POP JUMP JUMPDEST PUSH1 0x0 DUP3 PUSH1 0x1F DUP4 ADD SLT PUSH2 0x231C JUMPI PUSH1 0x0 DUP1 REVERT JUMPDEST DUP2 CALLDATALOAD PUSH2 0x232F PUSH2 0x232A DUP3 PUSH2 0x321D JUMP JUMPDEST PUSH2 0x31CE JUMP JUMPDEST SWAP2 POP DUP1 DUP3 MSTORE PUSH1 0x20 DUP4 ADD PUSH1 0x20 DUP4 ADD DUP6 DUP4 DUP4 ADD GT ISZERO PUSH2 0x234B JUMPI PUSH1 0x0 DUP1 REVERT JUMPDEST PUSH2 0x2356 DUP4 DUP3 DUP5 PUSH2 0x345A JUMP JUMPDEST POP POP POP SWAP3 SWAP2 POP POP JUMP JUMPDEST PUSH1 0x0 PUSH1 0xE0 DUP3 DUP5 SUB SLT ISZERO PUSH2 0x2371 JUMPI PUSH1 0x0 DUP1 REVERT JUMPDEST PUSH2 0x237B PUSH1 0xE0 PUSH2 0x31CE JUMP JUMPDEST SWAP1 POP PUSH1 0x0 PUSH2 0x238B DUP5 DUP3 DUP6 ADD PUSH2 0x2424 JUMP JUMPDEST PUSH1 0x0 DUP4 ADD MSTORE POP PUSH1 0x20 PUSH2 0x239F DUP5 DUP3 DUP6 ADD PUSH2 0x2424 JUMP JUMPDEST PUSH1 0x20 DUP4 ADD MSTORE POP PUSH1 0x40 PUSH2 0x23B3 DUP5 DUP3 DUP6 ADD PUSH2 0x2424 JUMP JUMPDEST PUSH1 0x40 DUP4 ADD MSTORE POP PUSH1 0x60 PUSH2 0x23C7 DUP5 DUP3 DUP6 ADD PUSH2 0x2424 JUMP JUMPDEST PUSH1 0x60 DUP4 ADD MSTORE POP PUSH1 0x80 PUSH2 0x23DB DUP5 DUP3 DUP6 ADD PUSH2 0x2424 JUMP JUMPDEST PUSH1 0x80 DUP4 ADD MSTORE POP PUSH1 0xA0 PUSH2 0x23EF DUP5 DUP3 DUP6 ADD PUSH2 0x2424 JUMP JUMPDEST PUSH1 0xA0 DUP4 ADD MSTORE POP PUSH1 0xC0 PUSH2 0x2403 DUP5 DUP3 DUP6 ADD PUSH2 0x2424 JUMP JUMPDEST PUSH1 0xC0 DUP4 ADD MSTORE POP SWAP3 SWAP2 POP POP JUMP JUMPDEST PUSH1 0x0 DUP2 CALLDATALOAD SWAP1 POP PUSH2 0x241E DUP2 PUSH2 0x3517 JUMP JUMPDEST SWAP3 SWAP2 POP POP JUMP JUMPDEST PUSH1 0x0 DUP2 MLOAD SWAP1 POP PUSH2 0x2433 DUP2 PUSH2 0x3517 JUMP JUMPDEST SWAP3 SWAP2 POP POP JUMP JUMPDEST PUSH1 0x0 PUSH1 0x20 DUP3 DUP5 SUB SLT ISZERO PUSH2 0x244B JUMPI PUSH1 0x0 DUP1 REVERT JUMPDEST PUSH1 0x0 PUSH2 0x2459 DUP5 DUP3 DUP6 ADD PUSH2 0x2243 JUMP JUMPDEST SWAP2 POP POP SWAP3 SWAP2 POP POP JUMP JUMPDEST PUSH1 0x0 DUP1 PUSH1 0x0 DUP1 PUSH1 0x0 DUP1 PUSH1 0x0 PUSH1 0xE0 DUP9 DUP11 SUB SLT ISZERO PUSH2 0x247D JUMPI PUSH1 0x0 DUP1 REVERT JUMPDEST PUSH1 0x0 PUSH2 0x248B DUP11 DUP3 DUP12 ADD PUSH2 0x2243 JUMP JUMPDEST SWAP8 POP POP PUSH1 0x20 PUSH2 0x249C DUP11 DUP3 DUP12 ADD PUSH2 0x2243 JUMP JUMPDEST SWAP7 POP POP PUSH1 0x40 PUSH2 0x24AD DUP11 DUP3 DUP12 ADD PUSH2 0x22E1 JUMP JUMPDEST SWAP6 POP POP PUSH1 0x60 PUSH2 0x24BE DUP11 DUP3 DUP12 ADD PUSH2 0x22CC JUMP JUMPDEST SWAP5 POP POP PUSH1 0x80 PUSH2 0x24CF DUP11 DUP3 DUP12 ADD PUSH2 0x240F JUMP JUMPDEST SWAP4 POP POP PUSH1 0xA0 PUSH2 0x24E0 DUP11 DUP3 DUP12 ADD PUSH2 0x240F JUMP JUMPDEST SWAP3 POP POP PUSH1 0xC0 PUSH2 0x24F1 DUP11 DUP3 DUP12 ADD PUSH2 0x240F JUMP JUMPDEST SWAP2 POP POP SWAP3 SWAP6 SWAP9 SWAP2 SWAP5 SWAP8 POP SWAP3 SWAP6 POP JUMP JUMPDEST PUSH1 0x0 DUP1 PUSH1 0x0 DUP1 PUSH1 0x80 DUP6 DUP8 SUB SLT ISZERO PUSH2 0x2516 JUMPI PUSH1 0x0 DUP1 REVERT JUMPDEST PUSH1 0x0 PUSH2 0x2524 DUP8 DUP3 DUP9 ADD PUSH2 0x2243 JUMP JUMPDEST SWAP5 POP POP PUSH1 0x20 PUSH2 0x2535 DUP8 DUP3 DUP9 ADD PUSH2 0x2243 JUMP JUMPDEST SWAP4 POP POP PUSH1 0x40 PUSH2 0x2546 DUP8 DUP3 DUP9 ADD PUSH2 0x240F JUMP JUMPDEST SWAP3 POP POP PUSH1 0x60 PUSH2 0x2557 DUP8 DUP3 DUP9 ADD PUSH2 0x240F JUMP JUMPDEST SWAP2 POP POP SWAP3 SWAP6 SWAP2 SWAP5 POP SWAP3 POP JUMP JUMPDEST PUSH1 0x0 DUP1 PUSH1 0x0 DUP1 PUSH1 0x0 PUSH1 0xA0 DUP7 DUP9 SUB SLT ISZERO PUSH2 0x257B JUMPI PUSH1 0x0 DUP1 REVERT JUMPDEST PUSH1 0x0 PUSH2 0x2589 DUP9 DUP3 DUP10 ADD PUSH2 0x2243 JUMP JUMPDEST SWAP6 POP POP PUSH1 0x20 PUSH2 0x259A DUP9 DUP3 DUP10 ADD PUSH2 0x22E1 JUMP JUMPDEST SWAP5 POP POP PUSH1 0x40 PUSH2 0x25AB DUP9 DUP3 DUP10 ADD PUSH2 0x22CC JUMP JUMPDEST SWAP4 POP POP PUSH1 0x60 PUSH2 0x25BC DUP9 DUP3 DUP10 ADD PUSH2 0x22F6 JUMP JUMPDEST SWAP3 POP POP PUSH1 0x80 PUSH2 0x25CD DUP9 DUP3 DUP10 ADD PUSH2 0x240F JUMP JUMPDEST SWAP2 POP POP SWAP3 SWAP6 POP SWAP3 SWAP6 SWAP1 SWAP4 POP JUMP JUMPDEST PUSH1 0x0 PUSH2 0x2A0 DUP3 DUP5 SUB SLT ISZERO PUSH2 0x25ED JUMPI PUSH1 0x0 DUP1 REVERT JUMPDEST PUSH1 0x0 PUSH2 0x25FB DUP5 DUP3 DUP6 ADD PUSH2 0x2258 JUMP JUMPDEST SWAP2 POP POP SWAP3 SWAP2 POP POP JUMP JUMPDEST PUSH1 0x0 DUP1 PUSH1 0x0 PUSH1 0x60 DUP5 DUP7 SUB SLT ISZERO PUSH2 0x2619 JUMPI PUSH1 0x0 DUP1 REVERT JUMPDEST PUSH1 0x0 PUSH2 0x2627 DUP7 DUP3 DUP8 ADD PUSH2 0x22F6 JUMP JUMPDEST SWAP4 POP POP PUSH1 0x20 PUSH2 0x2638 DUP7 DUP3 DUP8 ADD PUSH2 0x240F JUMP JUMPDEST SWAP3 POP POP PUSH1 0x40 PUSH2 0x2649 DUP7 DUP3 DUP8 ADD PUSH2 0x240F JUMP JUMPDEST SWAP2 POP POP SWAP3 POP SWAP3 POP SWAP3 JUMP JUMPDEST PUSH1 0x0 PUSH1 0x20 DUP3 DUP5 SUB SLT ISZERO PUSH2 0x2665 JUMPI PUSH1 0x0 DUP1 REVERT JUMPDEST PUSH1 0x0 DUP3 ADD CALLDATALOAD PUSH8 0xFFFFFFFFFFFFFFFF DUP2 GT ISZERO PUSH2 0x267F JUMPI PUSH1 0x0 DUP1 REVERT JUMPDEST PUSH2 0x268B DUP5 DUP3 DUP6 ADD PUSH2 0x230B JUMP JUMPDEST SWAP2 POP POP SWAP3 SWAP2 POP POP JUMP JUMPDEST PUSH1 0x0 PUSH1 0x20 DUP3 DUP5 SUB SLT ISZERO PUSH2 0x26A6 JUMPI PUSH1 0x0 DUP1 REVERT JUMPDEST PUSH1 0x0 PUSH2 0x26B4 DUP5 DUP3 DUP6 ADD PUSH2 0x240F JUMP JUMPDEST SWAP2 POP POP SWAP3 SWAP2 POP POP JUMP JUMPDEST PUSH1 0x0 PUSH1 0x20 DUP3 DUP5 SUB SLT ISZERO PUSH2 0x26CF JUMPI PUSH1 0x0 DUP1 REVERT JUMPDEST PUSH1 0x0 PUSH2 0x26DD DUP5 DUP3 DUP6 ADD PUSH2 0x2424 JUMP JUMPDEST SWAP2 POP POP SWAP3 SWAP2 POP POP JUMP JUMPDEST PUSH1 0x0 PUSH2 0x26F2 DUP4 DUP4 PUSH2 0x2752 JUMP JUMPDEST PUSH1 0x20 DUP4 ADD SWAP1 POP SWAP3 SWAP2 POP POP JUMP JUMPDEST PUSH1 0x0 PUSH2 0x270A DUP4 DUP4 PUSH2 0x2B21 JUMP JUMPDEST SWAP1 POP SWAP3 SWAP2 POP POP JUMP JUMPDEST PUSH1 0x0 PUSH2 0x271E DUP4 DUP4 PUSH2 0x2BC1 JUMP JUMPDEST PUSH2 0x3A0 DUP4 ADD SWAP1 POP SWAP3 SWAP2 POP POP JUMP JUMPDEST PUSH1 0x0 PUSH2 0x2737 DUP4 DUP4 PUSH2 0x2EAB JUMP JUMPDEST PUSH1 0x20 DUP4 ADD SWAP1 POP SWAP3 SWAP2 POP POP JUMP JUMPDEST PUSH2 0x274C DUP2 PUSH2 0x33DC JUMP JUMPDEST DUP3 MSTORE POP POP JUMP JUMPDEST PUSH2 0x275B DUP2 PUSH2 0x3348 JUMP JUMPDEST DUP3 MSTORE POP POP JUMP JUMPDEST PUSH2 0x276A DUP2 PUSH2 0x3348 JUMP JUMPDEST DUP3 MSTORE POP POP JUMP JUMPDEST PUSH1 0x0 PUSH2 0x277B DUP3 PUSH2 0x3283 JUMP JUMPDEST PUSH2 0x2785 DUP2 DUP6 PUSH2 0x32EE JUMP JUMPDEST SWAP4 POP PUSH2 0x2790 DUP4 PUSH2 0x3249 JUMP JUMPDEST DUP1 PUSH1 0x0 JUMPDEST DUP4 DUP2 LT ISZERO PUSH2 0x27C1 JUMPI DUP2 MLOAD PUSH2 0x27A8 DUP9 DUP3 PUSH2 0x26E6 JUMP JUMPDEST SWAP8 POP PUSH2 0x27B3 DUP4 PUSH2 0x32BA JUMP JUMPDEST SWAP3 POP POP PUSH1 0x1 DUP2 ADD SWAP1 POP PUSH2 0x2794 JUMP JUMPDEST POP DUP6 SWAP4 POP POP POP POP SWAP3 SWAP2 POP POP JUMP JUMPDEST PUSH1 0x0 PUSH2 0x27D9 DUP3 PUSH2 0x328E JUMP JUMPDEST PUSH2 0x27E3 DUP2 DUP6 PUSH2 0x32FF JUMP JUMPDEST SWAP4 POP DUP4 PUSH1 0x20 DUP3 MUL DUP6 ADD PUSH2 0x27F5 DUP6 PUSH2 0x3259 JUMP JUMPDEST DUP1 PUSH1 0x0 JUMPDEST DUP6 DUP2 LT ISZERO PUSH2 0x2831 JUMPI DUP5 DUP5 SUB DUP10 MSTORE DUP2 MLOAD PUSH2 0x2812 DUP6 DUP3 PUSH2 0x26FE JUMP JUMPDEST SWAP5 POP PUSH2 0x281D DUP4 PUSH2 0x32C7 JUMP JUMPDEST SWAP3 POP PUSH1 0x20 DUP11 ADD SWAP10 POP POP PUSH1 0x1 DUP2 ADD SWAP1 POP PUSH2 0x27F9 JUMP JUMPDEST POP DUP3 SWAP8 POP DUP8 SWAP6 POP POP POP POP POP POP SWAP3 SWAP2 POP POP JUMP JUMPDEST PUSH1 0x0 PUSH2 0x284E DUP3 PUSH2 0x3299 JUMP JUMPDEST PUSH2 0x2858 DUP2 DUP6 PUSH2 0x3310 JUMP JUMPDEST SWAP4 POP PUSH2 0x2863 DUP4 PUSH2 0x3269 JUMP JUMPDEST DUP1 PUSH1 0x0 JUMPDEST DUP4 DUP2 LT ISZERO PUSH2 0x2894 JUMPI DUP2 MLOAD PUSH2 0x287B DUP9 DUP3 PUSH2 0x2712 JUMP JUMPDEST SWAP8 POP PUSH2 0x2886 DUP4 PUSH2 0x32D4 JUMP JUMPDEST SWAP3 POP POP PUSH1 0x1 DUP2 ADD SWAP1 POP PUSH2 0x2867 JUMP JUMPDEST POP DUP6 SWAP4 POP POP POP POP SWAP3 SWAP2 POP POP JUMP JUMPDEST PUSH2 0x28AA DUP2 PUSH2 0x32A4 JUMP JUMPDEST PUSH2 0x28B4 DUP2 DUP5 PUSH2 0x3321 JUMP JUMPDEST SWAP3 POP PUSH2 0x28BF DUP3 PUSH2 0x3279 JUMP JUMPDEST DUP1 PUSH1 0x0 JUMPDEST DUP4 DUP2 LT ISZERO PUSH2 0x28F0 JUMPI DUP2 MLOAD PUSH2 0x28D7 DUP8 DUP3 PUSH2 0x272B JUMP JUMPDEST SWAP7 POP PUSH2 0x28E2 DUP4 PUSH2 0x32E1 JUMP JUMPDEST SWAP3 POP POP PUSH1 0x1 DUP2 ADD SWAP1 POP PUSH2 0x28C3 JUMP JUMPDEST POP POP POP POP POP POP JUMP JUMPDEST PUSH2 0x2901 DUP2 PUSH2 0x335A JUMP JUMPDEST DUP3 MSTORE POP POP JUMP JUMPDEST PUSH2 0x2910 DUP2 PUSH2 0x33EE JUMP JUMPDEST DUP3 MSTORE POP POP JUMP JUMPDEST PUSH2 0x291F DUP2 PUSH2 0x33EE JUMP JUMPDEST DUP3 MSTORE POP POP JUMP JUMPDEST PUSH2 0x292E DUP2 PUSH2 0x3400 JUMP JUMPDEST DUP3 MSTORE POP POP JUMP JUMPDEST PUSH2 0x293D DUP2 PUSH2 0x3400 JUMP JUMPDEST DUP3 MSTORE POP POP JUMP JUMPDEST PUSH2 0x294C DUP2 PUSH2 0x3412 JUMP JUMPDEST DUP3 MSTORE POP POP JUMP JUMPDEST PUSH2 0x295B DUP2 PUSH2 0x3424 JUMP JUMPDEST DUP3 MSTORE POP POP JUMP JUMPDEST PUSH2 0x296A DUP2 PUSH2 0x3424 JUMP JUMPDEST DUP3 MSTORE POP POP JUMP JUMPDEST PUSH1 0x0 PUSH2 0x297B DUP3 PUSH2 0x32AF JUMP JUMPDEST PUSH2 0x2985 DUP2 DUP6 PUSH2 0x333D JUMP JUMPDEST SWAP4 POP PUSH2 0x2995 DUP2 DUP6 PUSH1 0x20 DUP7 ADD PUSH2 0x3469 JUMP JUMPDEST DUP1 DUP5 ADD SWAP2 POP POP SWAP3 SWAP2 POP POP JUMP JUMPDEST PUSH1 0x0 PUSH2 0x29AE PUSH1 0x1F DUP4 PUSH2 0x332C JUMP JUMPDEST SWAP2 POP PUSH32 0x53616D6520706572736F6E206465616C206973206E6F7420616C6C6F77656400 PUSH1 0x0 DUP4 ADD MSTORE PUSH1 0x20 DUP3 ADD SWAP1 POP SWAP2 SWAP1 POP JUMP JUMPDEST PUSH1 0x0 PUSH2 0x29EE PUSH1 0x12 DUP4 PUSH2 0x332C JUMP JUMPDEST SWAP2 POP PUSH32 0x6E6F206C6F616E206974656D20666F756E640000000000000000000000000000 PUSH1 0x0 DUP4 ADD MSTORE PUSH1 0x20 DUP3 ADD SWAP1 POP SWAP2 SWAP1 POP JUMP JUMPDEST PUSH1 0x0 PUSH2 0x2A2E PUSH1 0x18 DUP4 PUSH2 0x332C JUMP JUMPDEST SWAP2 POP PUSH32 0x636F6E6669726D20616D6F756E74206E6F74206D617463680000000000000000 PUSH1 0x0 DUP4 ADD MSTORE PUSH1 0x20 DUP3 ADD SWAP1 POP SWAP2 SWAP1 POP JUMP JUMPDEST PUSH1 0x0 PUSH2 0x2A6E PUSH1 0x1A DUP4 PUSH2 0x332C JUMP JUMPDEST SWAP2 POP PUSH32 0x6D73672E73656E646572206973206E6F7420626F72726F776572000000000000 PUSH1 0x0 DUP4 ADD MSTORE PUSH1 0x20 DUP3 ADD SWAP1 POP SWAP2 SWAP1 POP JUMP JUMPDEST PUSH1 0x0 PUSH2 0x2AAE PUSH1 0x18 DUP4 PUSH2 0x332C JUMP JUMPDEST SWAP2 POP PUSH32 0x6D73672E73656E646572206973206E6F74206C656E6465720000000000000000 PUSH1 0x0 DUP4 ADD MSTORE PUSH1 0x20 DUP3 ADD SWAP1 POP SWAP2 SWAP1 POP JUMP JUMPDEST PUSH1 0x0 PUSH2 0x2AEE PUSH1 0x15 DUP4 PUSH2 0x332C JUMP JUMPDEST SWAP2 POP PUSH32 0x626F72726F776572206D75737420636F6E6669726D0000000000000000000000 PUSH1 0x0 DUP4 ADD MSTORE PUSH1 0x20 DUP3 ADD SWAP1 POP SWAP2 SWAP1 POP JUMP JUMPDEST PUSH1 0x0 PUSH1 0x60 DUP4 ADD PUSH1 0x0 DUP4 ADD MLOAD DUP5 DUP3 SUB PUSH1 0x0 DUP7 ADD MSTORE PUSH2 0x2B3E DUP3 DUP3 PUSH2 0x2843 JUMP JUMPDEST SWAP2 POP POP PUSH1 0x20 DUP4 ADD MLOAD PUSH2 0x2B53 PUSH1 0x20 DUP7 ADD DUP3 PUSH2 0x2EAB JUMP JUMPDEST POP PUSH1 0x40 DUP4 ADD MLOAD PUSH2 0x2B66 PUSH1 0x40 DUP7 ADD DUP3 PUSH2 0x28F8 JUMP JUMPDEST POP DUP1 SWAP2 POP POP SWAP3 SWAP2 POP POP JUMP JUMPDEST PUSH1 0x0 PUSH1 0x60 DUP4 ADD PUSH1 0x0 DUP4 ADD MLOAD DUP5 DUP3 SUB PUSH1 0x0 DUP7 ADD MSTORE PUSH2 0x2B8E DUP3 DUP3 PUSH2 0x2843 JUMP JUMPDEST SWAP2 POP POP PUSH1 0x20 DUP4 ADD MLOAD PUSH2 0x2BA3 PUSH1 0x20 DUP7 ADD DUP3 PUSH2 0x2EAB JUMP JUMPDEST POP PUSH1 0x40 DUP4 ADD MLOAD PUSH2 0x2BB6 PUSH1 0x40 DUP7 ADD DUP3 PUSH2 0x28F8 JUMP JUMPDEST POP DUP1 SWAP2 POP POP SWAP3 SWAP2 POP POP JUMP JUMPDEST PUSH2 0x3A0 DUP3 ADD PUSH1 0x0 DUP3 ADD MLOAD PUSH2 0x2BD8 PUSH1 0x0 DUP6 ADD DUP3 PUSH2 0x2EAB JUMP JUMPDEST POP PUSH1 0x20 DUP3 ADD MLOAD PUSH2 0x2BEB PUSH1 0x20 DUP6 ADD DUP3 PUSH2 0x2752 JUMP JUMPDEST POP PUSH1 0x40 DUP3 ADD MLOAD PUSH2 0x2BFE PUSH1 0x40 DUP6 ADD DUP3 PUSH2 0x2752 JUMP JUMPDEST POP PUSH1 0x60 DUP3 ADD MLOAD PUSH2 0x2C11 PUSH1 0x60 DUP6 ADD DUP3 PUSH2 0x2925 JUMP JUMPDEST POP PUSH1 0x80 DUP3 ADD MLOAD PUSH2 0x2C24 PUSH1 0x80 DUP6 ADD DUP3 PUSH2 0x2907 JUMP JUMPDEST POP PUSH1 0xA0 DUP3 ADD MLOAD PUSH2 0x2C37 PUSH1 0xA0 DUP6 ADD DUP3 PUSH2 0x2952 JUMP JUMPDEST POP PUSH1 0xC0 DUP3 ADD MLOAD PUSH2 0x2C4A PUSH1 0xC0 DUP6 ADD DUP3 PUSH2 0x2EAB JUMP JUMPDEST POP PUSH1 0xE0 DUP3 ADD MLOAD PUSH2 0x2C5D PUSH1 0xE0 DUP6 ADD DUP3 PUSH2 0x2EAB JUMP JUMPDEST POP PUSH2 0x100 DUP3 ADD MLOAD PUSH2 0x2C72 PUSH2 0x100 DUP6 ADD DUP3 PUSH2 0x2DD7 JUMP JUMPDEST POP PUSH2 0x120 DUP3 ADD MLOAD PUSH2 0x2C87 PUSH2 0x320 DUP6 ADD DUP3 PUSH2 0x2EAB JUMP JUMPDEST POP PUSH2 0x140 DUP3 ADD MLOAD PUSH2 0x2C9C PUSH2 0x340 DUP6 ADD DUP3 PUSH2 0x2EAB JUMP JUMPDEST POP PUSH2 0x160 DUP3 ADD MLOAD PUSH2 0x2CB1 PUSH2 0x360 DUP6 ADD DUP3 PUSH2 0x28F8 JUMP JUMPDEST POP PUSH2 0x180 DUP3 ADD MLOAD PUSH2 0x2CC6 PUSH2 0x380 DUP6 ADD DUP3 PUSH2 0x2943 JUMP JUMPDEST POP POP POP POP JUMP JUMPDEST PUSH2 0x3A0 DUP3 ADD PUSH1 0x0 DUP3 ADD MLOAD PUSH2 0x2CE3 PUSH1 0x0 DUP6 ADD DUP3 PUSH2 0x2EAB JUMP JUMPDEST POP PUSH1 0x20 DUP3 ADD MLOAD PUSH2 0x2CF6 PUSH1 0x20 DUP6 ADD DUP3 PUSH2 0x2752 JUMP JUMPDEST POP PUSH1 0x40 DUP3 ADD MLOAD PUSH2 0x2D09 PUSH1 0x40 DUP6 ADD DUP3 PUSH2 0x2752 JUMP JUMPDEST POP PUSH1 0x60 DUP3 ADD MLOAD PUSH2 0x2D1C PUSH1 0x60 DUP6 ADD DUP3 PUSH2 0x2925 JUMP JUMPDEST POP PUSH1 0x80 DUP3 ADD MLOAD PUSH2 0x2D2F PUSH1 0x80 DUP6 ADD DUP3 PUSH2 0x2907 JUMP JUMPDEST POP PUSH1 0xA0 DUP3 ADD MLOAD PUSH2 0x2D42 PUSH1 0xA0 DUP6 ADD DUP3 PUSH2 0x2952 JUMP JUMPDEST POP PUSH1 0xC0 DUP3 ADD MLOAD PUSH2 0x2D55 PUSH1 0xC0 DUP6 ADD DUP3 PUSH2 0x2EAB JUMP JUMPDEST POP PUSH1 0xE0 DUP3 ADD MLOAD PUSH2 0x2D68 PUSH1 0xE0 DUP6 ADD DUP3 PUSH2 0x2EAB JUMP JUMPDEST POP PUSH2 0x100 DUP3 ADD MLOAD PUSH2 0x2D7D PUSH2 0x100 DUP6 ADD DUP3 PUSH2 0x2DD7 JUMP JUMPDEST POP PUSH2 0x120 DUP3 ADD MLOAD PUSH2 0x2D92 PUSH2 0x320 DUP6 ADD DUP3 PUSH2 0x2EAB JUMP JUMPDEST POP PUSH2 0x140 DUP3 ADD MLOAD PUSH2 0x2DA7 PUSH2 0x340 DUP6 ADD DUP3 PUSH2 0x2EAB JUMP JUMPDEST POP PUSH2 0x160 DUP3 ADD MLOAD PUSH2 0x2DBC PUSH2 0x360 DUP6 ADD DUP3 PUSH2 0x28F8 JUMP JUMPDEST POP PUSH2 0x180 DUP3 ADD MLOAD PUSH2 0x2DD1 PUSH2 0x380 DUP6 ADD DUP3 PUSH2 0x2943 JUMP JUMPDEST POP POP POP POP JUMP JUMPDEST PUSH2 0x220 DUP3 ADD PUSH1 0x0 DUP3 ADD MLOAD PUSH2 0x2DEE PUSH1 0x0 DUP6 ADD DUP3 PUSH2 0x2EAB JUMP JUMPDEST POP PUSH1 0x20 DUP3 ADD MLOAD PUSH2 0x2E01 PUSH1 0x20 DUP6 ADD DUP3 PUSH2 0x2EAB JUMP JUMPDEST POP PUSH1 0x40 DUP3 ADD MLOAD PUSH2 0x2E14 PUSH1 0x40 DUP6 ADD DUP3 PUSH2 0x28A1 JUMP JUMPDEST POP PUSH1 0x60 DUP3 ADD MLOAD PUSH2 0x2E27 PUSH1 0xE0 DUP6 ADD DUP3 PUSH2 0x28A1 JUMP JUMPDEST POP PUSH1 0x80 DUP3 ADD MLOAD PUSH2 0x2E3B PUSH2 0x180 DUP6 ADD DUP3 PUSH2 0x28A1 JUMP JUMPDEST POP POP POP POP JUMP JUMPDEST PUSH2 0x220 DUP3 ADD PUSH1 0x0 DUP3 ADD MLOAD PUSH2 0x2E58 PUSH1 0x0 DUP6 ADD DUP3 PUSH2 0x2EAB JUMP JUMPDEST POP PUSH1 0x20 DUP3 ADD MLOAD PUSH2 0x2E6B PUSH1 0x20 DUP6 ADD DUP3 PUSH2 0x2EAB JUMP JUMPDEST POP PUSH1 0x40 DUP3 ADD MLOAD PUSH2 0x2E7E PUSH1 0x40 DUP6 ADD DUP3 PUSH2 0x28A1 JUMP JUMPDEST POP PUSH1 0x60 DUP3 ADD MLOAD PUSH2 0x2E91 PUSH1 0xE0 DUP6 ADD DUP3 PUSH2 0x28A1 JUMP JUMPDEST POP PUSH1 0x80 DUP3 ADD MLOAD PUSH2 0x2EA5 PUSH2 0x180 DUP6 ADD DUP3 PUSH2 0x28A1 JUMP JUMPDEST POP POP POP POP JUMP JUMPDEST PUSH2 0x2EB4 DUP2 PUSH2 0x33D2 JUMP JUMPDEST DUP3 MSTORE POP POP JUMP JUMPDEST PUSH2 0x2EC3 DUP2 PUSH2 0x33D2 JUMP JUMPDEST DUP3 MSTORE POP POP JUMP JUMPDEST PUSH1 0x0 PUSH2 0x2ED5 DUP3 DUP5 PUSH2 0x2970 JUMP JUMPDEST SWAP2 POP DUP2 SWAP1 POP SWAP3 SWAP2 POP POP JUMP JUMPDEST PUSH1 0x0 PUSH1 0x20 DUP3 ADD SWAP1 POP PUSH2 0x2EF5 PUSH1 0x0 DUP4 ADD DUP5 PUSH2 0x2761 JUMP JUMPDEST SWAP3 SWAP2 POP POP JUMP JUMPDEST PUSH1 0x0 PUSH1 0xA0 DUP3 ADD SWAP1 POP PUSH2 0x2F10 PUSH1 0x0 DUP4 ADD DUP9 PUSH2 0x2761 JUMP JUMPDEST PUSH2 0x2F1D PUSH1 0x20 DUP4 ADD DUP8 PUSH2 0x2934 JUMP JUMPDEST PUSH2 0x2F2A PUSH1 0x40 DUP4 ADD DUP7 PUSH2 0x2916 JUMP JUMPDEST PUSH2 0x2F37 PUSH1 0x60 DUP4 ADD DUP6 PUSH2 0x2961 JUMP JUMPDEST PUSH2 0x2F44 PUSH1 0x80 DUP4 ADD DUP5 PUSH2 0x2EBA JUMP JUMPDEST SWAP7 SWAP6 POP POP POP POP POP POP JUMP JUMPDEST PUSH1 0x0 PUSH1 0xC0 DUP3 ADD SWAP1 POP PUSH2 0x2F63 PUSH1 0x0 DUP4 ADD DUP10 PUSH2 0x2761 JUMP JUMPDEST PUSH2 0x2F70 PUSH1 0x20 DUP4 ADD DUP9 PUSH2 0x2934 JUMP JUMPDEST PUSH2 0x2F7D PUSH1 0x40 DUP4 ADD DUP8 PUSH2 0x2916 JUMP JUMPDEST PUSH2 0x2F8A PUSH1 0x60 DUP4 ADD DUP7 PUSH2 0x2961 JUMP JUMPDEST PUSH2 0x2F97 PUSH1 0x80 DUP4 ADD DUP6 PUSH2 0x2EBA JUMP JUMPDEST PUSH2 0x2FA4 PUSH1 0xA0 DUP4 ADD DUP5 PUSH2 0x2EBA JUMP JUMPDEST SWAP8 SWAP7 POP POP POP POP POP POP POP JUMP JUMPDEST PUSH1 0x0 PUSH1 0x20 DUP3 ADD SWAP1 POP DUP2 DUP2 SUB PUSH1 0x0 DUP4 ADD MSTORE PUSH2 0x2FC9 DUP2 DUP5 PUSH2 0x2770 JUMP JUMPDEST SWAP1 POP SWAP3 SWAP2 POP POP JUMP JUMPDEST PUSH1 0x0 PUSH1 0x20 DUP3 ADD SWAP1 POP DUP2 DUP2 SUB PUSH1 0x0 DUP4 ADD MSTORE PUSH2 0x2FEB DUP2 DUP5 PUSH2 0x27CE JUMP JUMPDEST SWAP1 POP SWAP3 SWAP2 POP POP JUMP JUMPDEST PUSH1 0x0 PUSH1 0x60 DUP3 ADD SWAP1 POP PUSH2 0x3008 PUSH1 0x0 DUP4 ADD DUP7 PUSH2 0x2916 JUMP JUMPDEST PUSH2 0x3015 PUSH1 0x20 DUP4 ADD DUP6 PUSH2 0x2EBA JUMP JUMPDEST PUSH2 0x3022 PUSH1 0x40 DUP4 ADD DUP5 PUSH2 0x2761 JUMP JUMPDEST SWAP5 SWAP4 POP POP POP POP JUMP JUMPDEST PUSH1 0x0 PUSH1 0x60 DUP3 ADD SWAP1 POP PUSH2 0x303F PUSH1 0x0 DUP4 ADD DUP7 PUSH2 0x2916 JUMP JUMPDEST PUSH2 0x304C PUSH1 0x20 DUP4 ADD DUP6 PUSH2 0x2EBA JUMP JUMPDEST PUSH2 0x3059 PUSH1 0x40 DUP4 ADD DUP5 PUSH2 0x2743 JUMP JUMPDEST SWAP5 SWAP4 POP POP POP POP JUMP JUMPDEST PUSH1 0x0 PUSH1 0xA0 DUP3 ADD SWAP1 POP PUSH2 0x3076 PUSH1 0x0 DUP4 ADD DUP9 PUSH2 0x2934 JUMP JUMPDEST PUSH2 0x3083 PUSH1 0x20 DUP4 ADD DUP8 PUSH2 0x2916 JUMP JUMPDEST PUSH2 0x3090 PUSH1 0x40 DUP4 ADD DUP7 PUSH2 0x2EBA JUMP JUMPDEST PUSH2 0x309D PUSH1 0x60 DUP4 ADD DUP6 PUSH2 0x2EBA JUMP JUMPDEST PUSH2 0x30AA PUSH1 0x80 DUP4 ADD DUP5 PUSH2 0x2EBA JUMP JUMPDEST SWAP7 SWAP6 POP POP POP POP POP POP JUMP JUMPDEST PUSH1 0x0 PUSH1 0x20 DUP3 ADD SWAP1 POP DUP2 DUP2 SUB PUSH1 0x0 DUP4 ADD MSTORE PUSH2 0x30CD DUP2 PUSH2 0x29A1 JUMP JUMPDEST SWAP1 POP SWAP2 SWAP1 POP JUMP JUMPDEST PUSH1 0x0 PUSH1 0x20 DUP3 ADD SWAP1 POP DUP2 DUP2 SUB PUSH1 0x0 DUP4 ADD MSTORE PUSH2 0x30ED DUP2 PUSH2 0x29E1 JUMP JUMPDEST SWAP1 POP SWAP2 SWAP1 POP JUMP JUMPDEST PUSH1 0x0 PUSH1 0x20 DUP3 ADD SWAP1 POP DUP2 DUP2 SUB PUSH1 0x0 DUP4 ADD MSTORE PUSH2 0x310D DUP2 PUSH2 0x2A21 JUMP JUMPDEST SWAP1 POP SWAP2 SWAP1 POP JUMP JUMPDEST PUSH1 0x0 PUSH1 0x20 DUP3 ADD SWAP1 POP DUP2 DUP2 SUB PUSH1 0x0 DUP4 ADD MSTORE PUSH2 0x312D DUP2 PUSH2 0x2A61 JUMP JUMPDEST SWAP1 POP SWAP2 SWAP1 POP JUMP JUMPDEST PUSH1 0x0 PUSH1 0x20 DUP3 ADD SWAP1 POP DUP2 DUP2 SUB PUSH1 0x0 DUP4 ADD MSTORE PUSH2 0x314D DUP2 PUSH2 0x2AA1 JUMP JUMPDEST SWAP1 POP SWAP2 SWAP1 POP JUMP JUMPDEST PUSH1 0x0 PUSH1 0x20 DUP3 ADD SWAP1 POP DUP2 DUP2 SUB PUSH1 0x0 DUP4 ADD MSTORE PUSH2 0x316D DUP2 PUSH2 0x2AE1 JUMP JUMPDEST SWAP1 POP SWAP2 SWAP1 POP JUMP JUMPDEST PUSH1 0x0 PUSH1 0x20 DUP3 ADD SWAP1 POP DUP2 DUP2 SUB PUSH1 0x0 DUP4 ADD MSTORE PUSH2 0x318E DUP2 DUP5 PUSH2 0x2B71 JUMP JUMPDEST SWAP1 POP SWAP3 SWAP2 POP POP JUMP JUMPDEST PUSH1 0x0 PUSH2 0x3A0 DUP3 ADD SWAP1 POP PUSH2 0x31AC PUSH1 0x0 DUP4 ADD DUP5 PUSH2 0x2CCC JUMP JUMPDEST SWAP3 SWAP2 POP POP JUMP JUMPDEST PUSH1 0x0 PUSH2 0x220 DUP3 ADD SWAP1 POP PUSH2 0x31C8 PUSH1 0x0 DUP4 ADD DUP5 PUSH2 0x2E41 JUMP JUMPDEST SWAP3 SWAP2 POP POP JUMP JUMPDEST PUSH1 0x0 PUSH1 0x40 MLOAD SWAP1 POP DUP2 DUP2 ADD DUP2 DUP2 LT PUSH8 0xFFFFFFFFFFFFFFFF DUP3 GT OR ISZERO PUSH2 0x31F1 JUMPI PUSH1 0x0 DUP1 REVERT JUMPDEST DUP1 PUSH1 0x40 MSTORE POP SWAP2 SWAP1 POP JUMP JUMPDEST PUSH1 0x0 PUSH8 0xFFFFFFFFFFFFFFFF DUP3 GT ISZERO PUSH2 0x3212 JUMPI PUSH1 0x0 DUP1 REVERT JUMPDEST PUSH1 0x20 DUP3 MUL SWAP1 POP SWAP2 SWAP1 POP JUMP JUMPDEST PUSH1 0x0 PUSH8 0xFFFFFFFFFFFFFFFF DUP3 GT ISZERO PUSH2 0x3234 JUMPI PUSH1 0x0 DUP1 REVERT JUMPDEST PUSH1 0x1F NOT PUSH1 0x1F DUP4 ADD AND SWAP1 POP PUSH1 0x20 DUP2 ADD SWAP1 POP SWAP2 SWAP1 POP JUMP JUMPDEST PUSH1 0x0 DUP2 SWAP1 POP PUSH1 0x20 DUP3 ADD SWAP1 POP SWAP2 SWAP1 POP JUMP JUMPDEST PUSH1 0x0 DUP2 SWAP1 POP PUSH1 0x20 DUP3 ADD SWAP1 POP SWAP2 SWAP1 POP JUMP JUMPDEST PUSH1 0x0 DUP2 SWAP1 POP PUSH1 0x20 DUP3 ADD SWAP1 POP SWAP2 SWAP1 POP JUMP JUMPDEST PUSH1 0x0 DUP2 SWAP1 POP SWAP2 SWAP1 POP JUMP JUMPDEST PUSH1 0x0 DUP2 MLOAD SWAP1 POP SWAP2 SWAP1 POP JUMP JUMPDEST PUSH1 0x0 DUP2 MLOAD SWAP1 POP SWAP2 SWAP1 POP JUMP JUMPDEST PUSH1 0x0 DUP2 MLOAD SWAP1 POP SWAP2 SWAP1 POP JUMP JUMPDEST PUSH1 0x0 PUSH1 0x5 SWAP1 POP SWAP2 SWAP1 POP JUMP JUMPDEST PUSH1 0x0 DUP2 MLOAD SWAP1 POP SWAP2 SWAP1 POP JUMP JUMPDEST PUSH1 0x0 PUSH1 0x20 DUP3 ADD SWAP1 POP SWAP2 SWAP1 POP JUMP JUMPDEST PUSH1 0x0 PUSH1 0x20 DUP3 ADD SWAP1 POP SWAP2 SWAP1 POP JUMP JUMPDEST PUSH1 0x0 PUSH1 0x20 DUP3 ADD SWAP1 POP SWAP2 SWAP1 POP JUMP JUMPDEST PUSH1 0x0 PUSH1 0x20 DUP3 ADD SWAP1 POP SWAP2 SWAP1 POP JUMP JUMPDEST PUSH1 0x0 DUP3 DUP3 MSTORE PUSH1 0x20 DUP3 ADD SWAP1 POP SWAP3 SWAP2 POP POP JUMP JUMPDEST PUSH1 0x0 DUP3 DUP3 MSTORE PUSH1 0x20 DUP3 ADD SWAP1 POP SWAP3 SWAP2 POP POP JUMP JUMPDEST PUSH1 0x0 DUP3 DUP3 MSTORE PUSH1 0x20 DUP3 ADD SWAP1 POP SWAP3 SWAP2 POP POP JUMP JUMPDEST PUSH1 0x0 DUP2 SWAP1 POP SWAP3 SWAP2 POP POP JUMP JUMPDEST PUSH1 0x0 DUP3 DUP3 MSTORE PUSH1 0x20 DUP3 ADD SWAP1 POP SWAP3 SWAP2 POP POP JUMP JUMPDEST PUSH1 0x0 DUP2 SWAP1 POP SWAP3 SWAP2 POP POP JUMP JUMPDEST PUSH1 0x0 PUSH2 0x3353 DUP3 PUSH2 0x33B2 JUMP JUMPDEST SWAP1 POP SWAP2 SWAP1 POP JUMP JUMPDEST PUSH1 0x0 DUP2 ISZERO ISZERO SWAP1 POP SWAP2 SWAP1 POP JUMP JUMPDEST PUSH1 0x0 DUP2 SWAP1 POP PUSH2 0x3374 DUP3 PUSH2 0x349C JUMP JUMPDEST SWAP2 SWAP1 POP JUMP JUMPDEST PUSH1 0x0 DUP2 SWAP1 POP PUSH2 0x3387 DUP3 PUSH2 0x34A9 JUMP JUMPDEST SWAP2 SWAP1 POP JUMP JUMPDEST PUSH1 0x0 DUP2 SWAP1 POP PUSH2 0x339A DUP3 PUSH2 0x34B6 JUMP JUMPDEST SWAP2 SWAP1 POP JUMP JUMPDEST PUSH1 0x0 DUP2 SWAP1 POP PUSH2 0x33AD DUP3 PUSH2 0x34C3 JUMP JUMPDEST SWAP2 SWAP1 POP JUMP JUMPDEST PUSH1 0x0 PUSH20 0xFFFFFFFFFFFFFFFFFFFFFFFFFFFFFFFFFFFFFFFF DUP3 AND SWAP1 POP SWAP2 SWAP1 POP JUMP JUMPDEST PUSH1 0x0 DUP2 SWAP1 POP SWAP2 SWAP1 POP JUMP JUMPDEST PUSH1 0x0 PUSH2 0x33E7 DUP3 PUSH2 0x3436 JUMP JUMPDEST SWAP1 POP SWAP2 SWAP1 POP JUMP JUMPDEST PUSH1 0x0 PUSH2 0x33F9 DUP3 PUSH2 0x3366 JUMP JUMPDEST SWAP1 POP SWAP2 SWAP1 POP JUMP JUMPDEST PUSH1 0x0 PUSH2 0x340B DUP3 PUSH2 0x3379 JUMP JUMPDEST SWAP1 POP SWAP2 SWAP1 POP JUMP JUMPDEST PUSH1 0x0 PUSH2 0x341D DUP3 PUSH2 0x338C JUMP JUMPDEST SWAP1 POP SWAP2 SWAP1 POP JUMP JUMPDEST PUSH1 0x0 PUSH2 0x342F DUP3 PUSH2 0x339F JUMP JUMPDEST SWAP1 POP SWAP2 SWAP1 POP JUMP JUMPDEST PUSH1 0x0 PUSH2 0x3441 DUP3 PUSH2 0x3448 JUMP JUMPDEST SWAP1 POP SWAP2 SWAP1 POP JUMP JUMPDEST PUSH1 0x0 PUSH2 0x3453 DUP3 PUSH2 0x33B2 JUMP JUMPDEST SWAP1 POP SWAP2 SWAP1 POP JUMP JUMPDEST DUP3 DUP2 DUP4 CALLDATACOPY PUSH1 0x0 DUP4 DUP4 ADD MSTORE POP POP POP JUMP JUMPDEST PUSH1 0x0 JUMPDEST DUP4 DUP2 LT ISZERO PUSH2 0x3487 JUMPI DUP1 DUP3 ADD MLOAD DUP2 DUP5 ADD MSTORE PUSH1 0x20 DUP2 ADD SWAP1 POP PUSH2 0x346C JUMP JUMPDEST DUP4 DUP2 GT ISZERO PUSH2 0x3496 JUMPI PUSH1 0x0 DUP5 DUP5 ADD MSTORE JUMPDEST POP POP POP POP JUMP JUMPDEST PUSH1 0x3 DUP2 LT PUSH2 0x34A6 JUMPI INVALID JUMPDEST POP JUMP JUMPDEST PUSH1 0x2 DUP2 LT PUSH2 0x34B3 JUMPI INVALID JUMPDEST POP JUMP JUMPDEST PUSH1 0x6 DUP2 LT PUSH2 0x34C0 JUMPI INVALID JUMPDEST POP JUMP JUMPDEST PUSH1 0x6 DUP2 LT PUSH2 0x34CD JUMPI INVALID JUMPDEST POP JUMP JUMPDEST PUSH2 0x34D9 DUP2 PUSH2 0x3348 JUMP JUMPDEST DUP2 EQ PUSH2 0x34E4 JUMPI PUSH1 0x0 DUP1 REVERT JUMPDEST POP JUMP JUMPDEST PUSH1 0x3 DUP2 LT PUSH2 0x34F4 JUMPI PUSH1 0x0 DUP1 REVERT JUMPDEST POP JUMP JUMPDEST PUSH1 0x2 DUP2 LT PUSH2 0x3504 JUMPI PUSH1 0x0 DUP1 REVERT JUMPDEST POP JUMP JUMPDEST PUSH1 0x6 DUP2 LT PUSH2 0x3514 JUMPI PUSH1 0x0 DUP1 REVERT JUMPDEST POP JUMP JUMPDEST PUSH2 0x3520 DUP2 PUSH2 0x33D2 JUMP JUMPDEST DUP2 EQ PUSH2 0x352B JUMPI PUSH1 0x0 DUP1 REVERT JUMPDEST POP JUMP INVALID LOG2 PUSH5 0x6970667358 0x22 SLT KECCAK256 EXTCODESIZE PUSH15 0x68011AAA0247C1417F68F462280AC6 0xEE 0xB6 0xBA EQ SUB 0x1F DELEGATECALL 0x2A 0xA6 ADDRESS GASLIMIT 0x5F 0x4E TIMESTAMP 0x2A PUSH5 0x736F6C6343 STOP MOD 0xC STOP CALLER "
		},
		"gasEstimates": {
			"creation": {
				"codeDepositCost": "2733600",
				"executionCost": "infinite",
				"totalCost": "infinite"
			},
			"external": {
				"confirmETHPayment()": "167",
				"confirmPayment(address,address,uint8,uint8,uint256,uint256,uint256)": "infinite",
				"getAllBooks()": "infinite",
				"getAllUsers()": "infinite",
				"getLoanItem(uint256)": "infinite",
				"getOneBook(address)": "infinite",
				"getSchedule(uint8,uint256,uint256)": "infinite",
				"makeLoanDeal(address,uint8,uint8,uint8,uint256)": "infinite",
				"notifyETHPayment()": "211",
				"notifyFILPayment(string)": "infinite",
				"updateAllPV()": "infinite",
				"updateAllState()": "211",
				"updateState(address,address,uint256,uint256)": "infinite",
				"updateUserPV(address)": "infinite"
			},
			"internal": {
				"calcDF(uint256[7] memory,uint256)": "infinite",
				"inputToItem(struct Loan.LoanInput memory,uint256,uint256)": "infinite",
				"updateOnePV(struct Loan.LoanItem storage pointer)": "infinite"
			}
		},
		"methodIdentifiers": {
			"confirmETHPayment()": "ac6c5e38",
			"confirmPayment(address,address,uint8,uint8,uint256,uint256,uint256)": "b677aa2e",
			"getAllBooks()": "354528e8",
			"getAllUsers()": "e2842d79",
			"getLoanItem(uint256)": "61fda82a",
			"getOneBook(address)": "57d8df5a",
			"getSchedule(uint8,uint256,uint256)": "dc570d2d",
			"makeLoanDeal(address,uint8,uint8,uint8,uint256)": "995a2001",
			"notifyETHPayment()": "6b6ae44c",
			"notifyFILPayment(string)": "f2d055e2",
			"updateAllPV()": "d003a97e",
			"updateAllState()": "cb105188",
			"updateState(address,address,uint256,uint256)": "1d78babf",
			"updateUserPV(address)": "4ef8fe5b"
		}
	},
	"abi": [
		{
			"inputs": [
				{
					"internalType": "address",
					"name": "moneyAddr",
					"type": "address"
				},
				{
					"internalType": "address",
					"name": "fxAddr",
					"type": "address"
				},
				{
					"internalType": "address",
					"name": "colAddr",
					"type": "address"
				}
			],
			"stateMutability": "nonpayable",
			"type": "constructor"
		},
		{
			"anonymous": false,
			"inputs": [
				{
					"indexed": true,
					"internalType": "address",
					"name": "sender",
					"type": "address"
				}
			],
			"name": "ConfirmFILPayment",
			"type": "event"
		},
		{
			"anonymous": false,
			"inputs": [
				{
					"indexed": true,
					"internalType": "address",
					"name": "loanMaker",
					"type": "address"
				},
				{
					"indexed": true,
					"internalType": "address",
					"name": "colUser",
					"type": "address"
				},
				{
					"indexed": false,
					"internalType": "enum MoneyMarket.Side",
					"name": "side",
					"type": "uint8"
				},
				{
					"indexed": false,
					"internalType": "enum MoneyMarket.Ccy",
					"name": "ccy",
					"type": "uint8"
				},
				{
					"indexed": false,
					"internalType": "uint256",
					"name": "term",
					"type": "uint256"
				},
				{
					"indexed": false,
					"internalType": "uint256",
					"name": "amt",
					"type": "uint256"
				},
				{
					"indexed": false,
					"internalType": "uint256",
					"name": "loanId",
					"type": "uint256"
				}
			],
			"name": "ConfirmPayment",
			"type": "event"
		},
		{
			"anonymous": false,
			"inputs": [
				{
					"indexed": false,
					"internalType": "address",
					"name": "makerAddr",
					"type": "address"
				},
				{
					"indexed": false,
					"internalType": "enum MoneyMarket.Side",
					"name": "side",
					"type": "uint8"
				},
				{
					"indexed": false,
					"internalType": "enum MoneyMarket.Ccy",
					"name": "ccy",
					"type": "uint8"
				},
				{
					"indexed": false,
					"internalType": "enum MoneyMarket.Term",
					"name": "term",
					"type": "uint8"
				},
				{
					"indexed": false,
					"internalType": "uint256",
					"name": "amt",
					"type": "uint256"
				},
				{
					"indexed": false,
					"internalType": "uint256",
					"name": "loanId",
					"type": "uint256"
				}
			],
			"name": "MakeLoanDeal",
			"type": "event"
		},
		{
			"anonymous": false,
			"inputs": [
				{
					"indexed": true,
					"internalType": "address",
					"name": "",
					"type": "address"
				},
				{
					"indexed": true,
					"internalType": "string",
					"name": "txHash",
					"type": "string"
				}
			],
			"name": "NoitfyFILPayment",
			"type": "event"
		},
		{
			"inputs": [],
			"name": "confirmETHPayment",
			"outputs": [],
			"stateMutability": "nonpayable",
			"type": "function"
		},
		{
			"inputs": [
				{
					"internalType": "address",
					"name": "loanMaker",
					"type": "address"
				},
				{
					"internalType": "address",
					"name": "colUser",
					"type": "address"
				},
				{
					"internalType": "enum MoneyMarket.Side",
					"name": "side",
					"type": "uint8"
				},
				{
					"internalType": "enum MoneyMarket.Ccy",
					"name": "ccy",
					"type": "uint8"
				},
				{
					"internalType": "uint256",
					"name": "term",
					"type": "uint256"
				},
				{
					"internalType": "uint256",
					"name": "amt",
					"type": "uint256"
				},
				{
					"internalType": "uint256",
					"name": "loanId",
					"type": "uint256"
				}
			],
			"name": "confirmPayment",
			"outputs": [],
			"stateMutability": "nonpayable",
			"type": "function"
		},
		{
			"inputs": [],
			"name": "getAllBooks",
			"outputs": [
				{
					"components": [
						{
							"components": [
								{
									"internalType": "uint256",
									"name": "loanId",
									"type": "uint256"
								},
								{
									"internalType": "address",
									"name": "lender",
									"type": "address"
								},
								{
									"internalType": "address",
									"name": "borrower",
									"type": "address"
								},
								{
									"internalType": "enum MoneyMarket.Side",
									"name": "side",
									"type": "uint8"
								},
								{
									"internalType": "enum MoneyMarket.Ccy",
									"name": "ccy",
									"type": "uint8"
								},
								{
									"internalType": "enum MoneyMarket.Term",
									"name": "term",
									"type": "uint8"
								},
								{
									"internalType": "uint256",
									"name": "amt",
									"type": "uint256"
								},
								{
									"internalType": "uint256",
									"name": "rate",
									"type": "uint256"
								},
								{
									"components": [
										{
											"internalType": "uint256",
											"name": "start",
											"type": "uint256"
										},
										{
											"internalType": "uint256",
											"name": "end",
											"type": "uint256"
										},
										{
											"internalType": "uint256[5]",
											"name": "notices",
											"type": "uint256[5]"
										},
										{
											"internalType": "uint256[5]",
											"name": "payments",
											"type": "uint256[5]"
										},
										{
											"internalType": "uint256[5]",
											"name": "amounts",
											"type": "uint256[5]"
										}
									],
									"internalType": "struct Loan.Schedule",
									"name": "schedule",
									"type": "tuple"
								},
								{
									"internalType": "uint256",
									"name": "pv",
									"type": "uint256"
								},
								{
									"internalType": "uint256",
									"name": "asOf",
									"type": "uint256"
								},
								{
									"internalType": "bool",
									"name": "isAvailable",
									"type": "bool"
								},
								{
									"internalType": "enum Loan.State",
									"name": "state",
									"type": "uint8"
								}
							],
							"internalType": "struct Loan.LoanItem[]",
							"name": "loans",
							"type": "tuple[]"
						},
						{
							"internalType": "uint256",
							"name": "loanNum",
							"type": "uint256"
						},
						{
							"internalType": "bool",
							"name": "isValue",
							"type": "bool"
						}
					],
					"internalType": "struct Loan.LoanBook[]",
					"name": "",
					"type": "tuple[]"
				}
			],
			"stateMutability": "view",
			"type": "function"
		},
		{
			"inputs": [],
			"name": "getAllUsers",
			"outputs": [
				{
					"internalType": "address[]",
					"name": "",
					"type": "address[]"
				}
			],
			"stateMutability": "view",
			"type": "function"
		},
		{
			"inputs": [
				{
					"internalType": "uint256",
					"name": "loanId",
					"type": "uint256"
				}
			],
			"name": "getLoanItem",
			"outputs": [
				{
					"components": [
						{
							"internalType": "uint256",
							"name": "loanId",
							"type": "uint256"
						},
						{
							"internalType": "address",
							"name": "lender",
							"type": "address"
						},
						{
							"internalType": "address",
							"name": "borrower",
							"type": "address"
						},
						{
							"internalType": "enum MoneyMarket.Side",
							"name": "side",
							"type": "uint8"
						},
						{
							"internalType": "enum MoneyMarket.Ccy",
							"name": "ccy",
							"type": "uint8"
						},
						{
							"internalType": "enum MoneyMarket.Term",
							"name": "term",
							"type": "uint8"
						},
						{
							"internalType": "uint256",
							"name": "amt",
							"type": "uint256"
						},
						{
							"internalType": "uint256",
							"name": "rate",
							"type": "uint256"
						},
						{
							"components": [
								{
									"internalType": "uint256",
									"name": "start",
									"type": "uint256"
								},
								{
									"internalType": "uint256",
									"name": "end",
									"type": "uint256"
								},
								{
									"internalType": "uint256[5]",
									"name": "notices",
									"type": "uint256[5]"
								},
								{
									"internalType": "uint256[5]",
									"name": "payments",
									"type": "uint256[5]"
								},
								{
									"internalType": "uint256[5]",
									"name": "amounts",
									"type": "uint256[5]"
								}
							],
							"internalType": "struct Loan.Schedule",
							"name": "schedule",
							"type": "tuple"
						},
						{
							"internalType": "uint256",
							"name": "pv",
							"type": "uint256"
						},
						{
							"internalType": "uint256",
							"name": "asOf",
							"type": "uint256"
						},
						{
							"internalType": "bool",
							"name": "isAvailable",
							"type": "bool"
						},
						{
							"internalType": "enum Loan.State",
							"name": "state",
							"type": "uint8"
						}
					],
					"internalType": "struct Loan.LoanItem",
					"name": "",
					"type": "tuple"
				}
			],
			"stateMutability": "view",
			"type": "function"
		},
		{
			"inputs": [
				{
					"internalType": "address",
					"name": "addr",
					"type": "address"
				}
			],
			"name": "getOneBook",
			"outputs": [
				{
					"components": [
						{
							"components": [
								{
									"internalType": "uint256",
									"name": "loanId",
									"type": "uint256"
								},
								{
									"internalType": "address",
									"name": "lender",
									"type": "address"
								},
								{
									"internalType": "address",
									"name": "borrower",
									"type": "address"
								},
								{
									"internalType": "enum MoneyMarket.Side",
									"name": "side",
									"type": "uint8"
								},
								{
									"internalType": "enum MoneyMarket.Ccy",
									"name": "ccy",
									"type": "uint8"
								},
								{
									"internalType": "enum MoneyMarket.Term",
									"name": "term",
									"type": "uint8"
								},
								{
									"internalType": "uint256",
									"name": "amt",
									"type": "uint256"
								},
								{
									"internalType": "uint256",
									"name": "rate",
									"type": "uint256"
								},
								{
									"components": [
										{
											"internalType": "uint256",
											"name": "start",
											"type": "uint256"
										},
										{
											"internalType": "uint256",
											"name": "end",
											"type": "uint256"
										},
										{
											"internalType": "uint256[5]",
											"name": "notices",
											"type": "uint256[5]"
										},
										{
											"internalType": "uint256[5]",
											"name": "payments",
											"type": "uint256[5]"
										},
										{
											"internalType": "uint256[5]",
											"name": "amounts",
											"type": "uint256[5]"
										}
									],
									"internalType": "struct Loan.Schedule",
									"name": "schedule",
									"type": "tuple"
								},
								{
									"internalType": "uint256",
									"name": "pv",
									"type": "uint256"
								},
								{
									"internalType": "uint256",
									"name": "asOf",
									"type": "uint256"
								},
								{
									"internalType": "bool",
									"name": "isAvailable",
									"type": "bool"
								},
								{
									"internalType": "enum Loan.State",
									"name": "state",
									"type": "uint8"
								}
							],
							"internalType": "struct Loan.LoanItem[]",
							"name": "loans",
							"type": "tuple[]"
						},
						{
							"internalType": "uint256",
							"name": "loanNum",
							"type": "uint256"
						},
						{
							"internalType": "bool",
							"name": "isValue",
							"type": "bool"
						}
					],
					"internalType": "struct Loan.LoanBook",
					"name": "",
					"type": "tuple"
				}
			],
			"stateMutability": "view",
			"type": "function"
		},
		{
			"inputs": [
				{
					"internalType": "enum MoneyMarket.Term",
					"name": "term",
					"type": "uint8"
				},
				{
					"internalType": "uint256",
					"name": "amt",
					"type": "uint256"
				},
				{
					"internalType": "uint256",
					"name": "rate",
					"type": "uint256"
				}
			],
			"name": "getSchedule",
			"outputs": [
				{
					"components": [
						{
							"internalType": "uint256",
							"name": "start",
							"type": "uint256"
						},
						{
							"internalType": "uint256",
							"name": "end",
							"type": "uint256"
						},
						{
							"internalType": "uint256[5]",
							"name": "notices",
							"type": "uint256[5]"
						},
						{
							"internalType": "uint256[5]",
							"name": "payments",
							"type": "uint256[5]"
						},
						{
							"internalType": "uint256[5]",
							"name": "amounts",
							"type": "uint256[5]"
						}
					],
					"internalType": "struct Loan.Schedule",
					"name": "",
					"type": "tuple"
				}
			],
			"stateMutability": "view",
			"type": "function"
		},
		{
			"inputs": [
				{
					"internalType": "address",
					"name": "makerAddr",
					"type": "address"
				},
				{
					"internalType": "enum MoneyMarket.Side",
					"name": "side",
					"type": "uint8"
				},
				{
					"internalType": "enum MoneyMarket.Ccy",
					"name": "ccy",
					"type": "uint8"
				},
				{
					"internalType": "enum MoneyMarket.Term",
					"name": "term",
					"type": "uint8"
				},
				{
					"internalType": "uint256",
					"name": "amt",
					"type": "uint256"
				}
			],
			"name": "makeLoanDeal",
			"outputs": [],
			"stateMutability": "nonpayable",
			"type": "function"
		},
		{
			"inputs": [],
			"name": "notifyETHPayment",
			"outputs": [],
			"stateMutability": "nonpayable",
			"type": "function"
		},
		{
			"inputs": [
				{
					"internalType": "string",
					"name": "txHash",
					"type": "string"
				}
			],
			"name": "notifyFILPayment",
			"outputs": [],
			"stateMutability": "nonpayable",
			"type": "function"
		},
		{
			"inputs": [],
			"name": "updateAllPV",
			"outputs": [],
			"stateMutability": "nonpayable",
			"type": "function"
		},
		{
			"inputs": [],
			"name": "updateAllState",
			"outputs": [],
			"stateMutability": "nonpayable",
			"type": "function"
		},
		{
			"inputs": [
				{
					"internalType": "address",
					"name": "loanMaker",
					"type": "address"
				},
				{
					"internalType": "address",
					"name": "colUser",
					"type": "address"
				},
				{
					"internalType": "uint256",
					"name": "loanId",
					"type": "uint256"
				},
				{
					"internalType": "uint256",
					"name": "amt",
					"type": "uint256"
				}
			],
			"name": "updateState",
			"outputs": [],
			"stateMutability": "nonpayable",
			"type": "function"
		},
		{
			"inputs": [
				{
					"internalType": "address",
					"name": "addr",
					"type": "address"
				}
			],
			"name": "updateUserPV",
			"outputs": [],
			"stateMutability": "nonpayable",
			"type": "function"
		}
	]
}