{
	"data": {
		"bytecode": {
			"linkReferences": {},
			"object": "60806040526040518060c001604052806276a70063ffffffff16815260200162ed4e0063ffffffff1681526020016301e1338063ffffffff1681526020016303c2670063ffffffff1681526020016305a39a8063ffffffff168152602001630966018063ffffffff1681525060009060066200007d92919062000600565b506040518060c00160405280610168605a61271002816200009a57fe5b04815260200161016860b46127100281620000b157fe5b0481526020016001612710028152602001600161271002815260200160016127100281526020016001612710028152506006906006620000f39291906200064d565b5060405180602001604052806276a70062ffffff16815250600c9060016200011d92919062000692565b50604051806020016040528062ed4e0062ffffff1681525060119060016200014792919062000692565b5060405180602001604052806301e1338063ffffffff16815250601690600162000173929190620006de565b5060405180604001604052806301e1338063ffffffff1681526020016303c2670063ffffffff16815250601b906002620001af9291906200072b565b5060405180606001604052806301e1338063ffffffff1681526020016303c2670063ffffffff1681526020016305a39a8063ffffffff168152506020906003620001fb92919062000778565b506040518060a001604052806301e1338063ffffffff1681526020016303c2670063ffffffff1681526020016305a39a8063ffffffff168152602001630784ce0063ffffffff168152602001630966018063ffffffff16815250602590600562000267929190620007c5565b506040518060c00160405280600c600580602002604051908101604052809291908260058015620002ae576020028201915b81548152602001906001019080831162000299575b505050505081526020016011600580602002604051908101604052809291908260058015620002f3576020028201915b815481526020019060010190808311620002de575b50505050508152602001601660058060200260405190810160405280929190826005801562000338576020028201915b81548152602001906001019080831162000323575b50505050508152602001601b6005806020026040519081016040528092919082600580156200037d576020028201915b81548152602001906001019080831162000368575b505050505081526020016020600580602002604051908101604052809291908260058015620003c2576020028201915b815481526020019060010190808311620003ad575b50505050508152602001602560058060200260405190810160405280929190826005801562000407576020028201915b815481526020019060010190808311620003f2575b5050505050815250602a9060066200042192919062000812565b506040518060c00160405280600180028152602001600180028152602001600180028152602001600160020281526020016001600302815260200160016005028152506048906006620004769291906200064d565b506040518060e001604052806276a70063ffffffff16815260200162ed4e0063ffffffff1681526020016301e1338063ffffffff1681526020016303c2670063ffffffff1681526020016305a39a8063ffffffff168152602001630784ce0063ffffffff168152602001630966018063ffffffff16815250604e906007620005009291906200086a565b503480156200050e57600080fd5b5060405162004ab938038062004ab983398181016040528101906200053491906200097d565b82605760006101000a81548173ffffffffffffffffffffffffffffffffffffffff021916908373ffffffffffffffffffffffffffffffffffffffff16021790555081605860006101000a81548173ffffffffffffffffffffffffffffffffffffffff021916908373ffffffffffffffffffffffffffffffffffffffff16021790555080605960006101000a81548173ffffffffffffffffffffffffffffffffffffffff021916908373ffffffffffffffffffffffffffffffffffffffff16021790555050505062000a21565b82600681019282156200063a579160200282015b8281111562000639578251829063ffffffff1690559160200191906001019062000614565b5b509050620006499190620008b7565b5090565b82600681019282156200067f579160200282015b828111156200067e57825182559160200191906001019062000661565b5b5090506200068e9190620008b7565b5090565b8260058101928215620006cb579160200282015b82811115620006ca578251829062ffffff16905591602001919060010190620006a6565b5b509050620006da9190620008b7565b5090565b826005810192821562000718579160200282015b8281111562000717578251829063ffffffff16905591602001919060010190620006f2565b5b509050620007279190620008b7565b5090565b826005810192821562000765579160200282015b8281111562000764578251829063ffffffff169055916020019190600101906200073f565b5b509050620007749190620008b7565b5090565b8260058101928215620007b2579160200282015b82811115620007b1578251829063ffffffff169055916020019190600101906200078c565b5b509050620007c19190620008b7565b5090565b8260058101928215620007ff579160200282015b82811115620007fe578251829063ffffffff16905591602001919060010190620007d9565b5b5090506200080e9190620008b7565b5090565b826006600502810192821562000857579160200282015b82811115620008565782518290600562000845929190620008d6565b509160200191906005019062000829565b5b5090506200086691906200091b565b5090565b8260078101928215620008a4579160200282015b82811115620008a3578251829063ffffffff169055916020019190600101906200087e565b5b509050620008b39190620008b7565b5090565b5b80821115620008d2576000816000905550600101620008b8565b5090565b826005810192821562000908579160200282015b8281111562000907578251825591602001919060010190620008ea565b5b509050620009179190620008b7565b5090565b5b808211156200093f576000818162000935919062000943565b506005016200091c565b5090565b506000815560010160008155600101600081556001016000815560010160009055565b600081519050620009778162000a07565b92915050565b6000806000606084860312156200099357600080fd5b6000620009a38682870162000966565b9350506020620009b68682870162000966565b9250506040620009c98682870162000966565b9150509250925092565b6000620009e082620009e7565b9050919050565b600073ffffffffffffffffffffffffffffffffffffffff82169050919050565b62000a1281620009d3565b811462000a1e57600080fd5b50565b6140888062000a316000396000f3fe608060405234801561001057600080fd5b50600436106100cf5760003560e01c806373b18b4c1161008c578063b677aa2e11610066578063b677aa2e1461020e578063cb1051881461022a578063d003a97e14610234578063e2842d791461023e576100cf565b806373b18b4c146101a65780638257a504146101c2578063995a2001146101f2576100cf565b80631d244afa146100d4578063354528e8146100f057806345cf5cc01461010e5780634ef8fe5b1461012a57806357d8df5a1461014657806361fda82a14610176575b600080fd5b6100ee60048036038101906100e99190612f7c565b61025c565b005b6100f86102a0565b6040516101059190613a0c565b60405180910390f35b61012860048036038101906101239190612e8c565b61074c565b005b610144600480360381019061013f9190612dc5565b610e1c565b005b610160600480360381019061015b9190612dc5565b610ea5565b60405161016d9190613c16565b60405180910390f35b610190600480360381019061018b9190613088565b611291565b60405161019d9190613c38565b60405180910390f35b6101c060048036038101906101bb9190612ff7565b61135b565b005b6101dc60048036038101906101d7919061305e565b6114d9565b6040516101e99190613b3b565b60405180910390f35b61020c60048036038101906102079190612edb565b611598565b005b61022860048036038101906102239190612dee565b611bfd565b005b610232611e36565b005b61023c611e38565b005b610246611f15565b60405161025391906139ea565b60405180910390f35b817fc078863e7ade0c5659980a387d8552e7ee23b544977aa247769231095482a60c853386856040516102929493929190613a2e565b60405180910390a250505050565b60608060568054905067ffffffffffffffff811180156102bf57600080fd5b506040519080825280602002602001820160405280156102f957816020015b6102e6612559565b8152602001906001900390816102de5790505b50905060005b60568054905081101561074457605560006056838154811061031d57fe5b9060005260206000200160009054906101000a900473ffffffffffffffffffffffffffffffffffffffff1673ffffffffffffffffffffffffffffffffffffffff1673ffffffffffffffffffffffffffffffffffffffff16815260200190815260200160002060405180606001604052908160008201805480602002602001604051908101604052809291908181526020016000905b828210156106f357838290600052602060002090601a0201604051806101e0016040529081600082015481526020016001820160009054906101000a900473ffffffffffffffffffffffffffffffffffffffff1673ffffffffffffffffffffffffffffffffffffffff1673ffffffffffffffffffffffffffffffffffffffff1681526020016002820160009054906101000a900473ffffffffffffffffffffffffffffffffffffffff1673ffffffffffffffffffffffffffffffffffffffff1673ffffffffffffffffffffffffffffffffffffffff1681526020016002820160149054906101000a900460ff1660018111156104aa57fe5b60018111156104b557fe5b81526020016002820160159054906101000a900460ff1660028111156104d757fe5b60028111156104e257fe5b81526020016002820160169054906101000a900460ff16600581111561050457fe5b600581111561050f57fe5b8152602001600382015481526020016004820154815260200160058201548152602001600682015481526020016007820160405180608001604052908160008201600580602002604051908101604052809291908260058015610587576020028201915b815481526020019060010190808311610573575b50505050508152602001600582016005806020026040519081016040528092919082600580156105cc576020028201915b8154815260200190600101908083116105b8575b50505050508152602001600a8201600580602002604051908101604052809291908260058015610611576020028201915b8154815260200190600101908083116105fd575b50505050508152602001600f820160058060200260405190810160405280929190826005801561067b576020028201916000905b82829054906101000a900460ff161515815260200190600101906020826000010492830192600103820291508084116106455790505b505050505081525050815260200160178201548152602001601882015481526020016019820160009054906101000a900460ff161515151581526020016019820160019054906101000a900460ff1660058111156106d557fe5b60058111156106e057fe5b81525050815260200190600101906103b2565b505050508152602001600182015481526020016002820160009054906101000a900460ff16151515158152505082828151811061072c57fe5b602002602001018190525080806001019150506102ff565b508091505090565b6000605560008573ffffffffffffffffffffffffffffffffffffffff1673ffffffffffffffffffffffffffffffffffffffff168152602001908152602001600020905060008160000183815481106107a057fe5b90600052602060002090601a02019050600060058111156107bd57fe5b8160190160019054906101000a900460ff1660058111156107da57fe5b1415610926578060020160009054906101000a900473ffffffffffffffffffffffffffffffffffffffff1673ffffffffffffffffffffffffffffffffffffffff168473ffffffffffffffffffffffffffffffffffffffff1614610872576040517f08c379a000000000000000000000000000000000000000000000000000000000815260040161086990613bf6565b60405180910390fd5b60018160190160016101000a81548160ff0219169083600581111561089357fe5b0217905550605960009054906101000a900473ffffffffffffffffffffffffffffffffffffffff1673ffffffffffffffffffffffffffffffffffffffff166374e8de77856040518263ffffffff1660e01b81526004016108f3919061391b565b600060405180830381600087803b15801561090d57600080fd5b505af1158015610921573d6000803e3d6000fd5b505050505b6001600581111561093357fe5b8160190160019054906101000a900460ff16600581111561095057fe5b1415610acb57610aa681600701604051806080016040529081600082016005806020026040519081016040528092919082600580156109a4576020028201915b815481526020019060010190808311610990575b50505050508152602001600582016005806020026040519081016040528092919082600580156109e9576020028201915b8154815260200190600101908083116109d5575b50505050508152602001600a8201600580602002604051908101604052809291908260058015610a2e576020028201915b815481526020019060010190808311610a1a575b50505050508152602001600f8201600580602002604051908101604052809291908260058015610a98576020028201916000905b82829054906101000a900460ff16151581526020019060010190602082600001049283019260010382029150808411610a625790505b5050505050815250506114d9565b8160190160016101000a81548160ff02191690836005811115610ac557fe5b02179055505b60026005811115610ad857fe5b8160190160019054906101000a900460ff166005811115610af557fe5b1415610c7057610c4b8160070160405180608001604052908160008201600580602002604051908101604052809291908260058015610b49576020028201915b815481526020019060010190808311610b35575b5050505050815260200160058201600580602002604051908101604052809291908260058015610b8e576020028201915b815481526020019060010190808311610b7a575b50505050508152602001600a8201600580602002604051908101604052809291908260058015610bd3576020028201915b815481526020019060010190808311610bbf575b50505050508152602001600f8201600580602002604051908101604052809291908260058015610c3d576020028201916000905b82829054906101000a900460ff16151581526020019060010190602082600001049283019260010382029150808411610c075790505b5050505050815250506114d9565b8160190160016101000a81548160ff02191690836005811115610c6a57fe5b02179055505b60036005811115610c7d57fe5b8160190160019054906101000a900460ff166005811115610c9a57fe5b1415610e1557610df08160070160405180608001604052908160008201600580602002604051908101604052809291908260058015610cee576020028201915b815481526020019060010190808311610cda575b5050505050815260200160058201600580602002604051908101604052809291908260058015610d33576020028201915b815481526020019060010190808311610d1f575b50505050508152602001600a8201600580602002604051908101604052809291908260058015610d78576020028201915b815481526020019060010190808311610d64575b50505050508152602001600f8201600580602002604051908101604052809291908260058015610de2576020028201916000905b82829054906101000a900460ff16151581526020019060010190602082600001049283019260010382029150808411610dac5790505b5050505050815250506114d9565b8160190160016101000a81548160ff02191690836005811115610e0f57fe5b02179055505b5050505050565b6000605560008373ffffffffffffffffffffffffffffffffffffffff1673ffffffffffffffffffffffffffffffffffffffff168152602001908152602001600020600001905060005b8180549050811015610ea057610e93828281548110610e8057fe5b90600052602060002090601a0201611fa3565b8080600101915050610e65565b505050565b610ead612559565b605560008373ffffffffffffffffffffffffffffffffffffffff1673ffffffffffffffffffffffffffffffffffffffff16815260200190815260200160002060405180606001604052908160008201805480602002602001604051908101604052809291908181526020016000905b8282101561125d57838290600052602060002090601a0201604051806101e0016040529081600082015481526020016001820160009054906101000a900473ffffffffffffffffffffffffffffffffffffffff1673ffffffffffffffffffffffffffffffffffffffff1673ffffffffffffffffffffffffffffffffffffffff1681526020016002820160009054906101000a900473ffffffffffffffffffffffffffffffffffffffff1673ffffffffffffffffffffffffffffffffffffffff1673ffffffffffffffffffffffffffffffffffffffff1681526020016002820160149054906101000a900460ff16600181111561101457fe5b600181111561101f57fe5b81526020016002820160159054906101000a900460ff16600281111561104157fe5b600281111561104c57fe5b81526020016002820160169054906101000a900460ff16600581111561106e57fe5b600581111561107957fe5b81526020016003820154815260200160048201548152602001600582015481526020016006820154815260200160078201604051806080016040529081600082016005806020026040519081016040528092919082600580156110f1576020028201915b8154815260200190600101908083116110dd575b5050505050815260200160058201600580602002604051908101604052809291908260058015611136576020028201915b815481526020019060010190808311611122575b50505050508152602001600a820160058060200260405190810160405280929190826005801561117b576020028201915b815481526020019060010190808311611167575b50505050508152602001600f82016005806020026040519081016040528092919082600580156111e5576020028201916000905b82829054906101000a900460ff161515815260200190600101906020826000010492830192600103820291508084116111af5790505b505050505081525050815260200160178201548152602001601882015481526020016019820160009054906101000a900460ff161515151581526020016019820160019054906101000a900460ff16600581111561123f57fe5b600581111561124a57fe5b8152505081526020019060010190610f1c565b505050508152602001600182015481526020016002820160009054906101000a900460ff1615151515815250509050919050565b61129961257c565b605560003373ffffffffffffffffffffffffffffffffffffffff1673ffffffffffffffffffffffffffffffffffffffff16815260200190815260200160002060020160009054906101000a900460ff16611328576040517f08c379a000000000000000000000000000000000000000000000000000000000815260040161131f90613b76565b60405180910390fd5b611330612559565b61133933610ea5565b90508060000151838151811061134b57fe5b6020026020010151915050919050565b6000604884600581111561136b57fe5b6006811061137557fe5b01549050611381612652565b602a85600581111561138f57fe5b6006811061139957fe5b600502016005806020026040519081016040528092919082600580156113d4576020028201915b8154815260200190600101908083116113c0575b5050505050905060005b828110156114d05762127500428383600581106113f757fe5b6020020151010387610140015160000151826005811061141357fe5b6020020181815250504282826005811061142957fe5b60200201510187610140015160200151826005811061144457fe5b60200201818152505061271080600688600581111561145f57fe5b6006811061146957fe5b0154868802028161147657fe5b048161147e57fe5b0487610140015160400151826005811061149457fe5b60200201818152505060008761014001516060015182600581106114b457fe5b60200201901515908115158152505080806001019150506113de565b50505050505050565b600080600090505b600560010281101561152057600015158360600151826005811061150157fe5b60200201511515141561151357611520565b80806001019150506114e1565b8260000151816005811061153057fe5b6020020151421015611546576001915050611593565b8260200151816005811061155657fe5b6020020151421161156b576002915050611593565b428360200151826005811061157c57fe5b60200201511015611591576003915050611593565b505b919050565b3373ffffffffffffffffffffffffffffffffffffffff168573ffffffffffffffffffffffffffffffffffffffff161415611607576040517f08c379a00000000000000000000000000000000000000000000000000000000081526004016115fe90613b56565b60405180910390fd5b6000600181111561161457fe5b84600181111561162057fe5b14156116b857605960009054906101000a900473ffffffffffffffffffffffffffffffffffffffff1673ffffffffffffffffffffffffffffffffffffffff166331f652db8483336040518463ffffffff1660e01b815260040161168593929190613ab1565b600060405180830381600087803b15801561169f57600080fd5b505af11580156116b3573d6000803e3d6000fd5b505050505b6001808111156116c457fe5b8460018111156116d057fe5b141561176857605960009054906101000a900473ffffffffffffffffffffffffffffffffffffffff1673ffffffffffffffffffffffffffffffffffffffff166331f652db8483886040518463ffffffff1660e01b815260040161173593929190613a7a565b600060405180830381600087803b15801561174f57600080fd5b505af1158015611763573d6000803e3d6000fd5b505050505b6000605760009054906101000a900473ffffffffffffffffffffffffffffffffffffffff1673ffffffffffffffffffffffffffffffffffffffff1663524bc34a87878787876040518663ffffffff1660e01b81526004016117cd959493929190613936565b602060405180830381600087803b1580156117e757600080fd5b505af11580156117fb573d6000803e3d6000fd5b505050506040513d601f19601f8201168201806040525081019061181f91906130b1565b90506000605560008873ffffffffffffffffffffffffffffffffffffffff1673ffffffffffffffffffffffffffffffffffffffff168152602001908152602001600020905061186c612674565b6040518060a001604052808973ffffffffffffffffffffffffffffffffffffffff16815260200188600181111561189f57fe5b81526020018760028111156118b057fe5b81526020018660058111156118c157fe5b81526020018581525090506118d461257c565b6118f18285856001016000815480929190600101919050556121fa565b9050826000018190806001815401808255809150506001900390600052602060002090601a02016000909190919091506000820151816000015560208201518160010160006101000a81548173ffffffffffffffffffffffffffffffffffffffff021916908373ffffffffffffffffffffffffffffffffffffffff16021790555060408201518160020160006101000a81548173ffffffffffffffffffffffffffffffffffffffff021916908373ffffffffffffffffffffffffffffffffffffffff16021790555060608201518160020160146101000a81548160ff021916908360018111156119dd57fe5b021790555060808201518160020160156101000a81548160ff02191690836002811115611a0657fe5b021790555060a08201518160020160166101000a81548160ff02191690836005811115611a2f57fe5b021790555060c0820151816003015560e082015181600401556101008201518160050155610120820151816006015561014082015181600701600082015181600001906005611a7f9291906126da565b50602082015181600501906005611a979291906126da565b50604082015181600a01906005611aaf9291906126da565b50606082015181600f01906005611ac792919061271a565b505050610160820151816017015561018082015181601801556101a08201518160190160006101000a81548160ff0219169083151502179055506101c08201518160190160016101000a81548160ff02191690836005811115611b2657fe5b0217905550505060018360020160006101000a81548160ff0219169083151502179055506056339080600181540180825580915050600190039060005260206000200160009091909190916101000a81548173ffffffffffffffffffffffffffffffffffffffff021916908373ffffffffffffffffffffffffffffffffffffffff1602179055507f787a470148c364ff9c70e82b2c6c1b0becbca7969011737f1f93ce9307b424e989898989898660000151604051611bea96959493929190613989565b60405180910390a1505050505050505050565b6000605560008973ffffffffffffffffffffffffffffffffffffffff1673ffffffffffffffffffffffffffffffffffffffff16815260200190815260200160002090506000816000018381548110611c5157fe5b90600052602060002090601a0201905080600301548414611ca7576040517f08c379a0000000000000000000000000000000000000000000000000000000008152600401611c9e90613b96565b60405180910390fd5b60006001811115611cb457fe5b876001811115611cc057fe5b1415611d44578773ffffffffffffffffffffffffffffffffffffffff163373ffffffffffffffffffffffffffffffffffffffff1614611d34576040517f08c379a0000000000000000000000000000000000000000000000000000000008152600401611d2b90613bb6565b60405180910390fd5b611d3f89898561074c565b611dbe565b8873ffffffffffffffffffffffffffffffffffffffff163373ffffffffffffffffffffffffffffffffffffffff1614611db2576040517f08c379a0000000000000000000000000000000000000000000000000000000008152600401611da990613bd6565b60405180910390fd5b611dbd89898561074c565b5b8773ffffffffffffffffffffffffffffffffffffffff168973ffffffffffffffffffffffffffffffffffffffff167f52f2cbddb551a0cd4ad65095542b2efd13cd261642f4034c3b0c01b232c2591d8989898989604051611e23959493929190613ae8565b60405180910390a3505050505050505050565b565b60005b605680549050811015611f125760006055600060568481548110611e5b57fe5b9060005260206000200160009054906101000a900473ffffffffffffffffffffffffffffffffffffffff1673ffffffffffffffffffffffffffffffffffffffff1673ffffffffffffffffffffffffffffffffffffffff168152602001908152602001600020600001905060005b8180549050811015611f0357611ef6828281548110611ee357fe5b90600052602060002090601a0201611fa3565b8080600101915050611ec8565b50508080600101915050611e3b565b50565b60606056805480602002602001604051908101604052809291908181526020018280548015611f9957602002820191906000526020600020905b8160009054906101000a900473ffffffffffffffffffffffffffffffffffffffff1673ffffffffffffffffffffffffffffffffffffffff1681526020019060010190808311611f4f575b5050505050905090565b611fab6127b3565b605760009054906101000a900473ffffffffffffffffffffffffffffffffffffffff1673ffffffffffffffffffffffffffffffffffffffff1663069fa00c6040518163ffffffff1660e01b81526004016102a06040518083038186803b15801561201457600080fd5b505afa158015612028573d6000803e3d6000fd5b505050506040513d601f19601f8201168201806040525081019061204c9190612f52565b90506120566127e0565b818360020160159054906101000a900460ff16600281111561207457fe5b6003811061207e57fe5b6020020151905061208d61281d565b6040518060e0016040528083600001518152602001836020015181526020018360400151815260200183606001518152602001836080015181526020018360a0015181526020018360c0015181525090506120e6612652565b6000805b60488760020160169054906101000a900460ff16600581111561210957fe5b6006811061211357fe5b015481101561218657600061213b8589600701600501846005811061213457fe5b015461240b565b90508084836005811061214a57fe5b6020020181815250506127108189600701600a01846005811061216957fe5b0154028161217357fe5b04830192505080806001019150506120ea565b506000600160488860020160169054906101000a900460ff1660058111156121aa57fe5b600681106121b457fe5b01540390506127108382600581106121c857fe5b6020020151886003015402816121da57fe5b048201915081876017018190555042876018018190555050505050505050565b61220261257c565b61220a61257c565b828160000181815250506000600181111561222157fe5b8560200151600181111561223157fe5b1461223c5733612242565b84600001515b816020019073ffffffffffffffffffffffffffffffffffffffff16908173ffffffffffffffffffffffffffffffffffffffff168152505060018081111561228557fe5b8560200151600181111561229557fe5b146122a057336122a6565b84600001515b816040019073ffffffffffffffffffffffffffffffffffffffff16908173ffffffffffffffffffffffffffffffffffffffff16815250508460200151816060019060018111156122f257fe5b908160018111156122ff57fe5b8152505084604001518160800190600281111561231857fe5b9081600281111561232557fe5b8152505084606001518160a00190600581111561233e57fe5b9081600581111561234b57fe5b8152505084608001518160c0018181525050838160e0018181525050428161010001818152505060008560600151600581111561238457fe5b6006811061238e57fe5b01544201816101200181815250506123b081866060015187608001518761135b565b84608001518161016001818152505042816101800181815250506001816101a00190151590811515815250506000816101c0019060058111156123ef57fe5b908160058111156123fc57fe5b81525050809150509392505050565b600042821161241d5760009050612553565b60004283039050604e60006007811061243257fe5b0154811161246e57604e60006007811061244857fe5b0154818560006007811061245857fe5b6020020151028161246557fe5b04915050612553565b6000600190505b60078110156125505781604e600183036007811061248f57fe5b01541080156124ac5750604e81600781106124a657fe5b01548211155b15612543576000604e60018303600781106124c357fe5b015483039050600083604e84600781106124d957fe5b01540390506000604e60018503600781106124f057fe5b0154604e85600781106124ff57fe5b0154039050808389866007811061251257fe5b602002015102838a600188036007811061252857fe5b602002015102018161253657fe5b0495505050505050612553565b8080600101915050612475565b50505b92915050565b604051806060016040528060608152602001600081526020016000151581525090565b604051806101e0016040528060008152602001600073ffffffffffffffffffffffffffffffffffffffff168152602001600073ffffffffffffffffffffffffffffffffffffffff168152602001600060018111156125d657fe5b8152602001600060028111156125e857fe5b8152602001600060058111156125fa57fe5b81526020016000815260200160008152602001600081526020016000815260200161262361283f565b815260200160008152602001600081526020016000151581526020016000600581111561264c57fe5b81525090565b6040518060a00160405280600590602082028036833780820191505090505090565b6040518060a00160405280600073ffffffffffffffffffffffffffffffffffffffff168152602001600060018111156126a957fe5b8152602001600060028111156126bb57fe5b8152602001600060058111156126cd57fe5b8152602001600081525090565b8260058101928215612709579160200282015b828111156127085782518255916020019190600101906126ed565b5b509050612716919061287f565b5090565b826005601f016020900481019282156127a25791602002820160005b8382111561277357835183826101000a81548160ff0219169083151502179055509260200192600101602081600001049283019260010302612736565b80156127a05782816101000a81549060ff0219169055600101602081600001049283019260010302612773565b505b5090506127af919061289c565b5090565b60405180606001604052806003905b6127ca6127e0565b8152602001906001900390816127c25790505090565b6040518060e00160405280600081526020016000815260200160008152602001600081526020016000815260200160008152602001600081525090565b6040518060e00160405280600790602082028036833780820191505090505090565b6040518060800160405280612852612652565b815260200161285f612652565b815260200161286c612652565b81526020016128796128c4565b81525090565b5b80821115612898576000816000905550600101612880565b5090565b5b808211156128c057600081816101000a81549060ff02191690555060010161289d565b5090565b6040518060a00160405280600590602082028036833780820191505090505090565b6000813590506128f581613fcd565b92915050565b600082601f83011261290c57600080fd5b600561291f61291a82613c81565b613c54565b9150818385602084028201111561293557600080fd5b60005b83811015612965578161294b8882612a57565b845260208401935060208301925050600181019050612938565b5050505092915050565b600082601f83011261298057600080fd5b600361299361298e82613ca3565b613c54565b915081838560e08402820111156129a957600080fd5b60005b838110156129d957816129bf8882612b14565b845260208401935060e083019250506001810190506129ac565b5050505092915050565b600082601f8301126129f457600080fd5b6005612a07612a0282613cc5565b613c54565b91508183856020840282011115612a1d57600080fd5b60005b83811015612a4d5781612a338882612d9b565b845260208401935060208301925050600181019050612a20565b5050505092915050565b600081359050612a6681613fe4565b92915050565b600081359050612a7b81613ffb565b92915050565b600081359050612a908161400b565b92915050565b600081359050612aa58161401b565b92915050565b600081359050612aba8161402b565b92915050565b600082601f830112612ad157600080fd5b8135612ae4612adf82613ce7565b613c54565b91508082526020830160208301858383011115612b0057600080fd5b612b0b838284613f46565b50505092915050565b600060e08284031215612b2657600080fd5b612b3060e0613c54565b90506000612b4084828501612db0565b6000830152506020612b5484828501612db0565b6020830152506040612b6884828501612db0565b6040830152506060612b7c84828501612db0565b6060830152506080612b9084828501612db0565b60808301525060a0612ba484828501612db0565b60a08301525060c0612bb884828501612db0565b60c08301525092915050565b60006104408284031215612bd757600080fd5b612be26101e0613c54565b90506000612bf284828501612d9b565b6000830152506020612c06848285016128e6565b6020830152506040612c1a848285016128e6565b6040830152506060612c2e84828501612a81565b6060830152506080612c4284828501612a6c565b60808301525060a0612c5684828501612aab565b60a08301525060c0612c6a84828501612d9b565b60c08301525060e0612c7e84828501612d9b565b60e083015250610100612c9384828501612d9b565b61010083015250610120612ca984828501612d9b565b61012083015250610140612cbf84828501612d24565b610140830152506103c0612cd584828501612d9b565b610160830152506103e0612ceb84828501612d9b565b61018083015250610400612d0184828501612a57565b6101a083015250610420612d1784828501612a96565b6101c08301525092915050565b60006102808284031215612d3757600080fd5b612d416080613c54565b90506000612d51848285016129e3565b60008301525060a0612d65848285016129e3565b602083015250610140612d7a848285016129e3565b6040830152506101e0612d8f848285016128fb565b60608301525092915050565b600081359050612daa8161403b565b92915050565b600081519050612dbf8161403b565b92915050565b600060208284031215612dd757600080fd5b6000612de5848285016128e6565b91505092915050565b600080600080600080600060e0888a031215612e0957600080fd5b6000612e178a828b016128e6565b9750506020612e288a828b016128e6565b9650506040612e398a828b01612a81565b9550506060612e4a8a828b01612a6c565b9450506080612e5b8a828b01612d9b565b93505060a0612e6c8a828b01612d9b565b92505060c0612e7d8a828b01612d9b565b91505092959891949750929550565b600080600060608486031215612ea157600080fd5b6000612eaf868287016128e6565b9350506020612ec0868287016128e6565b9250506040612ed186828701612d9b565b9150509250925092565b600080600080600060a08688031215612ef357600080fd5b6000612f01888289016128e6565b9550506020612f1288828901612a81565b9450506040612f2388828901612a6c565b9350506060612f3488828901612aab565b9250506080612f4588828901612d9b565b9150509295509295909350565b60006102a08284031215612f6557600080fd5b6000612f738482850161296f565b91505092915050565b60008060008060808587031215612f9257600080fd5b6000612fa087828801612a6c565b9450506020612fb1878288016128e6565b9350506040612fc287828801612d9b565b925050606085013567ffffffffffffffff811115612fdf57600080fd5b612feb87828801612ac0565b91505092959194509250565b6000806000806104a0858703121561300e57600080fd5b600061301c87828801612bc4565b94505061044061302e87828801612aab565b93505061046061304087828801612d9b565b92505061048061305287828801612d9b565b91505092959194509250565b6000610280828403121561307157600080fd5b600061307f84828501612d24565b91505092915050565b60006020828403121561309a57600080fd5b60006130a884828501612d9b565b91505092915050565b6000602082840312156130c357600080fd5b60006130d184828501612db0565b91505092915050565b60006130e6838361315e565b60208301905092915050565b60006130fe838361335b565b60208301905092915050565b6000613116838361359b565b905092915050565b600061312a838361363b565b6104408301905092915050565b600061314383836138fd565b60208301905092915050565b61315881613ec8565b82525050565b61316781613e34565b82525050565b61317681613e34565b82525050565b600061318782613d57565b6131918185613dda565b935061319c83613d13565b8060005b838110156131cd5781516131b488826130da565b97506131bf83613d99565b9250506001810190506131a0565b5085935050505092915050565b6131e381613d62565b6131ed8184613deb565b92506131f882613d23565b8060005b8381101561322957815161321087826130f2565b965061321b83613da6565b9250506001810190506131fc565b505050505050565b600061323c82613d6d565b6132468185613df6565b93508360208202850161325885613d2d565b8060005b858110156132945784840389528151613275858261310a565b945061328083613db3565b925060208a0199505060018101905061325c565b50829750879550505050505092915050565b60006132b182613d78565b6132bb8185613e07565b93506132c683613d3d565b8060005b838110156132f75781516132de888261311e565b97506132e983613dc0565b9250506001810190506132ca565b5085935050505092915050565b61330d81613d83565b6133178184613e18565b925061332282613d4d565b8060005b8381101561335357815161333a8782613137565b965061334583613dcd565b925050600181019050613326565b505050505050565b61336481613e46565b82525050565b61337381613eda565b82525050565b61338281613eda565b82525050565b61339181613eec565b82525050565b6133a081613eec565b82525050565b6133af81613efe565b82525050565b6133be81613efe565b82525050565b6133cd81613f10565b82525050565b6133dc81613f10565b82525050565b60006133ed82613d8e565b6133f78185613e23565b9350613407818560208601613f55565b61341081613f88565b840191505092915050565b6000613428601f83613e23565b91507f53616d6520706572736f6e206465616c206973206e6f7420616c6c6f776564006000830152602082019050919050565b6000613468601283613e23565b91507f6e6f206c6f616e206974656d20666f756e6400000000000000000000000000006000830152602082019050919050565b60006134a8601883613e23565b91507f636f6e6669726d20616d6f756e74206e6f74206d6174636800000000000000006000830152602082019050919050565b60006134e8601a83613e23565b91507f6d73672e73656e646572206973206e6f7420626f72726f7765720000000000006000830152602082019050919050565b6000613528601883613e23565b91507f6d73672e73656e646572206973206e6f74206c656e64657200000000000000006000830152602082019050919050565b6000613568601583613e23565b91507f626f72726f776572206d75737420636f6e6669726d00000000000000000000006000830152602082019050919050565b600060608301600083015184820360008601526135b882826132a6565b91505060208301516135cd60208601826138fd565b5060408301516135e0604086018261335b565b508091505092915050565b6000606083016000830151848203600086015261360882826132a6565b915050602083015161361d60208601826138fd565b506040830151613630604086018261335b565b508091505092915050565b6104408201600082015161365260008501826138fd565b506020820151613665602085018261315e565b506040820151613678604085018261315e565b50606082015161368b6060850182613388565b50608082015161369e608085018261336a565b5060a08201516136b160a08501826133c4565b5060c08201516136c460c08501826138fd565b5060e08201516136d760e08501826138fd565b506101008201516136ec6101008501826138fd565b506101208201516137016101208501826138fd565b506101408201516137166101408501826138a5565b5061016082015161372b6103c08501826138fd565b506101808201516137406103e08501826138fd565b506101a082015161375561040085018261335b565b506101c082015161376a6104208501826133a6565b50505050565b6104408201600082015161378760008501826138fd565b50602082015161379a602085018261315e565b5060408201516137ad604085018261315e565b5060608201516137c06060850182613388565b5060808201516137d3608085018261336a565b5060a08201516137e660a08501826133c4565b5060c08201516137f960c08501826138fd565b5060e082015161380c60e08501826138fd565b506101008201516138216101008501826138fd565b506101208201516138366101208501826138fd565b5061014082015161384b6101408501826138a5565b506101608201516138606103c08501826138fd565b506101808201516138756103e08501826138fd565b506101a082015161388a61040085018261335b565b506101c082015161389f6104208501826133a6565b50505050565b610280820160008201516138bc6000850182613304565b5060208201516138cf60a0850182613304565b5060408201516138e3610140850182613304565b5060608201516138f76101e08501826131da565b50505050565b61390681613ebe565b82525050565b61391581613ebe565b82525050565b6000602082019050613930600083018461316d565b92915050565b600060a08201905061394b600083018861316d565b6139586020830187613397565b6139656040830186613379565b61397260608301856133d3565b61397f608083018461390c565b9695505050505050565b600060c08201905061399e600083018961316d565b6139ab6020830188613397565b6139b86040830187613379565b6139c560608301866133d3565b6139d2608083018561390c565b6139df60a083018461390c565b979650505050505050565b60006020820190508181036000830152613a04818461317c565b905092915050565b60006020820190508181036000830152613a268184613231565b905092915050565b6000608082019050613a436000830187613379565b613a50602083018661314f565b613a5d604083018561316d565b8181036060830152613a6f81846133e2565b905095945050505050565b6000606082019050613a8f6000830186613379565b613a9c602083018561390c565b613aa9604083018461316d565b949350505050565b6000606082019050613ac66000830186613379565b613ad3602083018561390c565b613ae0604083018461314f565b949350505050565b600060a082019050613afd6000830188613397565b613b0a6020830187613379565b613b17604083018661390c565b613b24606083018561390c565b613b31608083018461390c565b9695505050505050565b6000602082019050613b5060008301846133b5565b92915050565b60006020820190508181036000830152613b6f8161341b565b9050919050565b60006020820190508181036000830152613b8f8161345b565b9050919050565b60006020820190508181036000830152613baf8161349b565b9050919050565b60006020820190508181036000830152613bcf816134db565b9050919050565b60006020820190508181036000830152613bef8161351b565b9050919050565b60006020820190508181036000830152613c0f8161355b565b9050919050565b60006020820190508181036000830152613c3081846135eb565b905092915050565b600061044082019050613c4e6000830184613770565b92915050565b6000604051905081810181811067ffffffffffffffff82111715613c7757600080fd5b8060405250919050565b600067ffffffffffffffff821115613c9857600080fd5b602082029050919050565b600067ffffffffffffffff821115613cba57600080fd5b602082029050919050565b600067ffffffffffffffff821115613cdc57600080fd5b602082029050919050565b600067ffffffffffffffff821115613cfe57600080fd5b601f19601f8301169050602081019050919050565b6000819050602082019050919050565b6000819050919050565b6000819050602082019050919050565b6000819050602082019050919050565b6000819050919050565b600081519050919050565b600060059050919050565b600081519050919050565b600081519050919050565b600060059050919050565b600081519050919050565b6000602082019050919050565b6000602082019050919050565b6000602082019050919050565b6000602082019050919050565b6000602082019050919050565b600082825260208201905092915050565b600081905092915050565b600082825260208201905092915050565b600082825260208201905092915050565b600081905092915050565b600082825260208201905092915050565b6000613e3f82613e9e565b9050919050565b60008115159050919050565b6000819050613e6082613f99565b919050565b6000819050613e7382613fa6565b919050565b6000819050613e8682613fb3565b919050565b6000819050613e9982613fc0565b919050565b600073ffffffffffffffffffffffffffffffffffffffff82169050919050565b6000819050919050565b6000613ed382613f22565b9050919050565b6000613ee582613e52565b9050919050565b6000613ef782613e65565b9050919050565b6000613f0982613e78565b9050919050565b6000613f1b82613e8b565b9050919050565b6000613f2d82613f34565b9050919050565b6000613f3f82613e9e565b9050919050565b82818337600083830152505050565b60005b83811015613f73578082015181840152602081019050613f58565b83811115613f82576000848401525b50505050565b6000601f19601f8301169050919050565b60038110613fa357fe5b50565b60028110613fb057fe5b50565b60068110613fbd57fe5b50565b60068110613fca57fe5b50565b613fd681613e34565b8114613fe157600080fd5b50565b613fed81613e46565b8114613ff857600080fd5b50565b6003811061400857600080fd5b50565b6002811061401857600080fd5b50565b6006811061402857600080fd5b50565b6006811061403857600080fd5b50565b61404481613ebe565b811461404f57600080fd5b5056fea26469706673582212200e04d395d368b0da5f3f930f75f8518b61be6c073dc537ff454334ea293f1abb64736f6c634300060c0033",
			"opcodes": "PUSH1 0x80 PUSH1 0x40 MSTORE PUSH1 0x40 MLOAD DUP1 PUSH1 0xC0 ADD PUSH1 0x40 MSTORE DUP1 PUSH3 0x76A700 PUSH4 0xFFFFFFFF AND DUP2 MSTORE PUSH1 0x20 ADD PUSH3 0xED4E00 PUSH4 0xFFFFFFFF AND DUP2 MSTORE PUSH1 0x20 ADD PUSH4 0x1E13380 PUSH4 0xFFFFFFFF AND DUP2 MSTORE PUSH1 0x20 ADD PUSH4 0x3C26700 PUSH4 0xFFFFFFFF AND DUP2 MSTORE PUSH1 0x20 ADD PUSH4 0x5A39A80 PUSH4 0xFFFFFFFF AND DUP2 MSTORE PUSH1 0x20 ADD PUSH4 0x9660180 PUSH4 0xFFFFFFFF AND DUP2 MSTORE POP PUSH1 0x0 SWAP1 PUSH1 0x6 PUSH3 0x7D SWAP3 SWAP2 SWAP1 PUSH3 0x600 JUMP JUMPDEST POP PUSH1 0x40 MLOAD DUP1 PUSH1 0xC0 ADD PUSH1 0x40 MSTORE DUP1 PUSH2 0x168 PUSH1 0x5A PUSH2 0x2710 MUL DUP2 PUSH3 0x9A JUMPI INVALID JUMPDEST DIV DUP2 MSTORE PUSH1 0x20 ADD PUSH2 0x168 PUSH1 0xB4 PUSH2 0x2710 MUL DUP2 PUSH3 0xB1 JUMPI INVALID JUMPDEST DIV DUP2 MSTORE PUSH1 0x20 ADD PUSH1 0x1 PUSH2 0x2710 MUL DUP2 MSTORE PUSH1 0x20 ADD PUSH1 0x1 PUSH2 0x2710 MUL DUP2 MSTORE PUSH1 0x20 ADD PUSH1 0x1 PUSH2 0x2710 MUL DUP2 MSTORE PUSH1 0x20 ADD PUSH1 0x1 PUSH2 0x2710 MUL DUP2 MSTORE POP PUSH1 0x6 SWAP1 PUSH1 0x6 PUSH3 0xF3 SWAP3 SWAP2 SWAP1 PUSH3 0x64D JUMP JUMPDEST POP PUSH1 0x40 MLOAD DUP1 PUSH1 0x20 ADD PUSH1 0x40 MSTORE DUP1 PUSH3 0x76A700 PUSH3 0xFFFFFF AND DUP2 MSTORE POP PUSH1 0xC SWAP1 PUSH1 0x1 PUSH3 0x11D SWAP3 SWAP2 SWAP1 PUSH3 0x692 JUMP JUMPDEST POP PUSH1 0x40 MLOAD DUP1 PUSH1 0x20 ADD PUSH1 0x40 MSTORE DUP1 PUSH3 0xED4E00 PUSH3 0xFFFFFF AND DUP2 MSTORE POP PUSH1 0x11 SWAP1 PUSH1 0x1 PUSH3 0x147 SWAP3 SWAP2 SWAP1 PUSH3 0x692 JUMP JUMPDEST POP PUSH1 0x40 MLOAD DUP1 PUSH1 0x20 ADD PUSH1 0x40 MSTORE DUP1 PUSH4 0x1E13380 PUSH4 0xFFFFFFFF AND DUP2 MSTORE POP PUSH1 0x16 SWAP1 PUSH1 0x1 PUSH3 0x173 SWAP3 SWAP2 SWAP1 PUSH3 0x6DE JUMP JUMPDEST POP PUSH1 0x40 MLOAD DUP1 PUSH1 0x40 ADD PUSH1 0x40 MSTORE DUP1 PUSH4 0x1E13380 PUSH4 0xFFFFFFFF AND DUP2 MSTORE PUSH1 0x20 ADD PUSH4 0x3C26700 PUSH4 0xFFFFFFFF AND DUP2 MSTORE POP PUSH1 0x1B SWAP1 PUSH1 0x2 PUSH3 0x1AF SWAP3 SWAP2 SWAP1 PUSH3 0x72B JUMP JUMPDEST POP PUSH1 0x40 MLOAD DUP1 PUSH1 0x60 ADD PUSH1 0x40 MSTORE DUP1 PUSH4 0x1E13380 PUSH4 0xFFFFFFFF AND DUP2 MSTORE PUSH1 0x20 ADD PUSH4 0x3C26700 PUSH4 0xFFFFFFFF AND DUP2 MSTORE PUSH1 0x20 ADD PUSH4 0x5A39A80 PUSH4 0xFFFFFFFF AND DUP2 MSTORE POP PUSH1 0x20 SWAP1 PUSH1 0x3 PUSH3 0x1FB SWAP3 SWAP2 SWAP1 PUSH3 0x778 JUMP JUMPDEST POP PUSH1 0x40 MLOAD DUP1 PUSH1 0xA0 ADD PUSH1 0x40 MSTORE DUP1 PUSH4 0x1E13380 PUSH4 0xFFFFFFFF AND DUP2 MSTORE PUSH1 0x20 ADD PUSH4 0x3C26700 PUSH4 0xFFFFFFFF AND DUP2 MSTORE PUSH1 0x20 ADD PUSH4 0x5A39A80 PUSH4 0xFFFFFFFF AND DUP2 MSTORE PUSH1 0x20 ADD PUSH4 0x784CE00 PUSH4 0xFFFFFFFF AND DUP2 MSTORE PUSH1 0x20 ADD PUSH4 0x9660180 PUSH4 0xFFFFFFFF AND DUP2 MSTORE POP PUSH1 0x25 SWAP1 PUSH1 0x5 PUSH3 0x267 SWAP3 SWAP2 SWAP1 PUSH3 0x7C5 JUMP JUMPDEST POP PUSH1 0x40 MLOAD DUP1 PUSH1 0xC0 ADD PUSH1 0x40 MSTORE DUP1 PUSH1 0xC PUSH1 0x5 DUP1 PUSH1 0x20 MUL PUSH1 0x40 MLOAD SWAP1 DUP2 ADD PUSH1 0x40 MSTORE DUP1 SWAP3 SWAP2 SWAP1 DUP3 PUSH1 0x5 DUP1 ISZERO PUSH3 0x2AE JUMPI PUSH1 0x20 MUL DUP3 ADD SWAP2 JUMPDEST DUP2 SLOAD DUP2 MSTORE PUSH1 0x20 ADD SWAP1 PUSH1 0x1 ADD SWAP1 DUP1 DUP4 GT PUSH3 0x299 JUMPI JUMPDEST POP POP POP POP POP DUP2 MSTORE PUSH1 0x20 ADD PUSH1 0x11 PUSH1 0x5 DUP1 PUSH1 0x20 MUL PUSH1 0x40 MLOAD SWAP1 DUP2 ADD PUSH1 0x40 MSTORE DUP1 SWAP3 SWAP2 SWAP1 DUP3 PUSH1 0x5 DUP1 ISZERO PUSH3 0x2F3 JUMPI PUSH1 0x20 MUL DUP3 ADD SWAP2 JUMPDEST DUP2 SLOAD DUP2 MSTORE PUSH1 0x20 ADD SWAP1 PUSH1 0x1 ADD SWAP1 DUP1 DUP4 GT PUSH3 0x2DE JUMPI JUMPDEST POP POP POP POP POP DUP2 MSTORE PUSH1 0x20 ADD PUSH1 0x16 PUSH1 0x5 DUP1 PUSH1 0x20 MUL PUSH1 0x40 MLOAD SWAP1 DUP2 ADD PUSH1 0x40 MSTORE DUP1 SWAP3 SWAP2 SWAP1 DUP3 PUSH1 0x5 DUP1 ISZERO PUSH3 0x338 JUMPI PUSH1 0x20 MUL DUP3 ADD SWAP2 JUMPDEST DUP2 SLOAD DUP2 MSTORE PUSH1 0x20 ADD SWAP1 PUSH1 0x1 ADD SWAP1 DUP1 DUP4 GT PUSH3 0x323 JUMPI JUMPDEST POP POP POP POP POP DUP2 MSTORE PUSH1 0x20 ADD PUSH1 0x1B PUSH1 0x5 DUP1 PUSH1 0x20 MUL PUSH1 0x40 MLOAD SWAP1 DUP2 ADD PUSH1 0x40 MSTORE DUP1 SWAP3 SWAP2 SWAP1 DUP3 PUSH1 0x5 DUP1 ISZERO PUSH3 0x37D JUMPI PUSH1 0x20 MUL DUP3 ADD SWAP2 JUMPDEST DUP2 SLOAD DUP2 MSTORE PUSH1 0x20 ADD SWAP1 PUSH1 0x1 ADD SWAP1 DUP1 DUP4 GT PUSH3 0x368 JUMPI JUMPDEST POP POP POP POP POP DUP2 MSTORE PUSH1 0x20 ADD PUSH1 0x20 PUSH1 0x5 DUP1 PUSH1 0x20 MUL PUSH1 0x40 MLOAD SWAP1 DUP2 ADD PUSH1 0x40 MSTORE DUP1 SWAP3 SWAP2 SWAP1 DUP3 PUSH1 0x5 DUP1 ISZERO PUSH3 0x3C2 JUMPI PUSH1 0x20 MUL DUP3 ADD SWAP2 JUMPDEST DUP2 SLOAD DUP2 MSTORE PUSH1 0x20 ADD SWAP1 PUSH1 0x1 ADD SWAP1 DUP1 DUP4 GT PUSH3 0x3AD JUMPI JUMPDEST POP POP POP POP POP DUP2 MSTORE PUSH1 0x20 ADD PUSH1 0x25 PUSH1 0x5 DUP1 PUSH1 0x20 MUL PUSH1 0x40 MLOAD SWAP1 DUP2 ADD PUSH1 0x40 MSTORE DUP1 SWAP3 SWAP2 SWAP1 DUP3 PUSH1 0x5 DUP1 ISZERO PUSH3 0x407 JUMPI PUSH1 0x20 MUL DUP3 ADD SWAP2 JUMPDEST DUP2 SLOAD DUP2 MSTORE PUSH1 0x20 ADD SWAP1 PUSH1 0x1 ADD SWAP1 DUP1 DUP4 GT PUSH3 0x3F2 JUMPI JUMPDEST POP POP POP POP POP DUP2 MSTORE POP PUSH1 0x2A SWAP1 PUSH1 0x6 PUSH3 0x421 SWAP3 SWAP2 SWAP1 PUSH3 0x812 JUMP JUMPDEST POP PUSH1 0x40 MLOAD DUP1 PUSH1 0xC0 ADD PUSH1 0x40 MSTORE DUP1 PUSH1 0x1 DUP1 MUL DUP2 MSTORE PUSH1 0x20 ADD PUSH1 0x1 DUP1 MUL DUP2 MSTORE PUSH1 0x20 ADD PUSH1 0x1 DUP1 MUL DUP2 MSTORE PUSH1 0x20 ADD PUSH1 0x1 PUSH1 0x2 MUL DUP2 MSTORE PUSH1 0x20 ADD PUSH1 0x1 PUSH1 0x3 MUL DUP2 MSTORE PUSH1 0x20 ADD PUSH1 0x1 PUSH1 0x5 MUL DUP2 MSTORE POP PUSH1 0x48 SWAP1 PUSH1 0x6 PUSH3 0x476 SWAP3 SWAP2 SWAP1 PUSH3 0x64D JUMP JUMPDEST POP PUSH1 0x40 MLOAD DUP1 PUSH1 0xE0 ADD PUSH1 0x40 MSTORE DUP1 PUSH3 0x76A700 PUSH4 0xFFFFFFFF AND DUP2 MSTORE PUSH1 0x20 ADD PUSH3 0xED4E00 PUSH4 0xFFFFFFFF AND DUP2 MSTORE PUSH1 0x20 ADD PUSH4 0x1E13380 PUSH4 0xFFFFFFFF AND DUP2 MSTORE PUSH1 0x20 ADD PUSH4 0x3C26700 PUSH4 0xFFFFFFFF AND DUP2 MSTORE PUSH1 0x20 ADD PUSH4 0x5A39A80 PUSH4 0xFFFFFFFF AND DUP2 MSTORE PUSH1 0x20 ADD PUSH4 0x784CE00 PUSH4 0xFFFFFFFF AND DUP2 MSTORE PUSH1 0x20 ADD PUSH4 0x9660180 PUSH4 0xFFFFFFFF AND DUP2 MSTORE POP PUSH1 0x4E SWAP1 PUSH1 0x7 PUSH3 0x500 SWAP3 SWAP2 SWAP1 PUSH3 0x86A JUMP JUMPDEST POP CALLVALUE DUP1 ISZERO PUSH3 0x50E JUMPI PUSH1 0x0 DUP1 REVERT JUMPDEST POP PUSH1 0x40 MLOAD PUSH3 0x4AB9 CODESIZE SUB DUP1 PUSH3 0x4AB9 DUP4 CODECOPY DUP2 DUP2 ADD PUSH1 0x40 MSTORE DUP2 ADD SWAP1 PUSH3 0x534 SWAP2 SWAP1 PUSH3 0x97D JUMP JUMPDEST DUP3 PUSH1 0x57 PUSH1 0x0 PUSH2 0x100 EXP DUP2 SLOAD DUP2 PUSH20 0xFFFFFFFFFFFFFFFFFFFFFFFFFFFFFFFFFFFFFFFF MUL NOT AND SWAP1 DUP4 PUSH20 0xFFFFFFFFFFFFFFFFFFFFFFFFFFFFFFFFFFFFFFFF AND MUL OR SWAP1 SSTORE POP DUP2 PUSH1 0x58 PUSH1 0x0 PUSH2 0x100 EXP DUP2 SLOAD DUP2 PUSH20 0xFFFFFFFFFFFFFFFFFFFFFFFFFFFFFFFFFFFFFFFF MUL NOT AND SWAP1 DUP4 PUSH20 0xFFFFFFFFFFFFFFFFFFFFFFFFFFFFFFFFFFFFFFFF AND MUL OR SWAP1 SSTORE POP DUP1 PUSH1 0x59 PUSH1 0x0 PUSH2 0x100 EXP DUP2 SLOAD DUP2 PUSH20 0xFFFFFFFFFFFFFFFFFFFFFFFFFFFFFFFFFFFFFFFF MUL NOT AND SWAP1 DUP4 PUSH20 0xFFFFFFFFFFFFFFFFFFFFFFFFFFFFFFFFFFFFFFFF AND MUL OR SWAP1 SSTORE POP POP POP POP PUSH3 0xA21 JUMP JUMPDEST DUP3 PUSH1 0x6 DUP2 ADD SWAP3 DUP3 ISZERO PUSH3 0x63A JUMPI SWAP2 PUSH1 0x20 MUL DUP3 ADD JUMPDEST DUP3 DUP2 GT ISZERO PUSH3 0x639 JUMPI DUP3 MLOAD DUP3 SWAP1 PUSH4 0xFFFFFFFF AND SWAP1 SSTORE SWAP2 PUSH1 0x20 ADD SWAP2 SWAP1 PUSH1 0x1 ADD SWAP1 PUSH3 0x614 JUMP JUMPDEST JUMPDEST POP SWAP1 POP PUSH3 0x649 SWAP2 SWAP1 PUSH3 0x8B7 JUMP JUMPDEST POP SWAP1 JUMP JUMPDEST DUP3 PUSH1 0x6 DUP2 ADD SWAP3 DUP3 ISZERO PUSH3 0x67F JUMPI SWAP2 PUSH1 0x20 MUL DUP3 ADD JUMPDEST DUP3 DUP2 GT ISZERO PUSH3 0x67E JUMPI DUP3 MLOAD DUP3 SSTORE SWAP2 PUSH1 0x20 ADD SWAP2 SWAP1 PUSH1 0x1 ADD SWAP1 PUSH3 0x661 JUMP JUMPDEST JUMPDEST POP SWAP1 POP PUSH3 0x68E SWAP2 SWAP1 PUSH3 0x8B7 JUMP JUMPDEST POP SWAP1 JUMP JUMPDEST DUP3 PUSH1 0x5 DUP2 ADD SWAP3 DUP3 ISZERO PUSH3 0x6CB JUMPI SWAP2 PUSH1 0x20 MUL DUP3 ADD JUMPDEST DUP3 DUP2 GT ISZERO PUSH3 0x6CA JUMPI DUP3 MLOAD DUP3 SWAP1 PUSH3 0xFFFFFF AND SWAP1 SSTORE SWAP2 PUSH1 0x20 ADD SWAP2 SWAP1 PUSH1 0x1 ADD SWAP1 PUSH3 0x6A6 JUMP JUMPDEST JUMPDEST POP SWAP1 POP PUSH3 0x6DA SWAP2 SWAP1 PUSH3 0x8B7 JUMP JUMPDEST POP SWAP1 JUMP JUMPDEST DUP3 PUSH1 0x5 DUP2 ADD SWAP3 DUP3 ISZERO PUSH3 0x718 JUMPI SWAP2 PUSH1 0x20 MUL DUP3 ADD JUMPDEST DUP3 DUP2 GT ISZERO PUSH3 0x717 JUMPI DUP3 MLOAD DUP3 SWAP1 PUSH4 0xFFFFFFFF AND SWAP1 SSTORE SWAP2 PUSH1 0x20 ADD SWAP2 SWAP1 PUSH1 0x1 ADD SWAP1 PUSH3 0x6F2 JUMP JUMPDEST JUMPDEST POP SWAP1 POP PUSH3 0x727 SWAP2 SWAP1 PUSH3 0x8B7 JUMP JUMPDEST POP SWAP1 JUMP JUMPDEST DUP3 PUSH1 0x5 DUP2 ADD SWAP3 DUP3 ISZERO PUSH3 0x765 JUMPI SWAP2 PUSH1 0x20 MUL DUP3 ADD JUMPDEST DUP3 DUP2 GT ISZERO PUSH3 0x764 JUMPI DUP3 MLOAD DUP3 SWAP1 PUSH4 0xFFFFFFFF AND SWAP1 SSTORE SWAP2 PUSH1 0x20 ADD SWAP2 SWAP1 PUSH1 0x1 ADD SWAP1 PUSH3 0x73F JUMP JUMPDEST JUMPDEST POP SWAP1 POP PUSH3 0x774 SWAP2 SWAP1 PUSH3 0x8B7 JUMP JUMPDEST POP SWAP1 JUMP JUMPDEST DUP3 PUSH1 0x5 DUP2 ADD SWAP3 DUP3 ISZERO PUSH3 0x7B2 JUMPI SWAP2 PUSH1 0x20 MUL DUP3 ADD JUMPDEST DUP3 DUP2 GT ISZERO PUSH3 0x7B1 JUMPI DUP3 MLOAD DUP3 SWAP1 PUSH4 0xFFFFFFFF AND SWAP1 SSTORE SWAP2 PUSH1 0x20 ADD SWAP2 SWAP1 PUSH1 0x1 ADD SWAP1 PUSH3 0x78C JUMP JUMPDEST JUMPDEST POP SWAP1 POP PUSH3 0x7C1 SWAP2 SWAP1 PUSH3 0x8B7 JUMP JUMPDEST POP SWAP1 JUMP JUMPDEST DUP3 PUSH1 0x5 DUP2 ADD SWAP3 DUP3 ISZERO PUSH3 0x7FF JUMPI SWAP2 PUSH1 0x20 MUL DUP3 ADD JUMPDEST DUP3 DUP2 GT ISZERO PUSH3 0x7FE JUMPI DUP3 MLOAD DUP3 SWAP1 PUSH4 0xFFFFFFFF AND SWAP1 SSTORE SWAP2 PUSH1 0x20 ADD SWAP2 SWAP1 PUSH1 0x1 ADD SWAP1 PUSH3 0x7D9 JUMP JUMPDEST JUMPDEST POP SWAP1 POP PUSH3 0x80E SWAP2 SWAP1 PUSH3 0x8B7 JUMP JUMPDEST POP SWAP1 JUMP JUMPDEST DUP3 PUSH1 0x6 PUSH1 0x5 MUL DUP2 ADD SWAP3 DUP3 ISZERO PUSH3 0x857 JUMPI SWAP2 PUSH1 0x20 MUL DUP3 ADD JUMPDEST DUP3 DUP2 GT ISZERO PUSH3 0x856 JUMPI DUP3 MLOAD DUP3 SWAP1 PUSH1 0x5 PUSH3 0x845 SWAP3 SWAP2 SWAP1 PUSH3 0x8D6 JUMP JUMPDEST POP SWAP2 PUSH1 0x20 ADD SWAP2 SWAP1 PUSH1 0x5 ADD SWAP1 PUSH3 0x829 JUMP JUMPDEST JUMPDEST POP SWAP1 POP PUSH3 0x866 SWAP2 SWAP1 PUSH3 0x91B JUMP JUMPDEST POP SWAP1 JUMP JUMPDEST DUP3 PUSH1 0x7 DUP2 ADD SWAP3 DUP3 ISZERO PUSH3 0x8A4 JUMPI SWAP2 PUSH1 0x20 MUL DUP3 ADD JUMPDEST DUP3 DUP2 GT ISZERO PUSH3 0x8A3 JUMPI DUP3 MLOAD DUP3 SWAP1 PUSH4 0xFFFFFFFF AND SWAP1 SSTORE SWAP2 PUSH1 0x20 ADD SWAP2 SWAP1 PUSH1 0x1 ADD SWAP1 PUSH3 0x87E JUMP JUMPDEST JUMPDEST POP SWAP1 POP PUSH3 0x8B3 SWAP2 SWAP1 PUSH3 0x8B7 JUMP JUMPDEST POP SWAP1 JUMP JUMPDEST JUMPDEST DUP1 DUP3 GT ISZERO PUSH3 0x8D2 JUMPI PUSH1 0x0 DUP2 PUSH1 0x0 SWAP1 SSTORE POP PUSH1 0x1 ADD PUSH3 0x8B8 JUMP JUMPDEST POP SWAP1 JUMP JUMPDEST DUP3 PUSH1 0x5 DUP2 ADD SWAP3 DUP3 ISZERO PUSH3 0x908 JUMPI SWAP2 PUSH1 0x20 MUL DUP3 ADD JUMPDEST DUP3 DUP2 GT ISZERO PUSH3 0x907 JUMPI DUP3 MLOAD DUP3 SSTORE SWAP2 PUSH1 0x20 ADD SWAP2 SWAP1 PUSH1 0x1 ADD SWAP1 PUSH3 0x8EA JUMP JUMPDEST JUMPDEST POP SWAP1 POP PUSH3 0x917 SWAP2 SWAP1 PUSH3 0x8B7 JUMP JUMPDEST POP SWAP1 JUMP JUMPDEST JUMPDEST DUP1 DUP3 GT ISZERO PUSH3 0x93F JUMPI PUSH1 0x0 DUP2 DUP2 PUSH3 0x935 SWAP2 SWAP1 PUSH3 0x943 JUMP JUMPDEST POP PUSH1 0x5 ADD PUSH3 0x91C JUMP JUMPDEST POP SWAP1 JUMP JUMPDEST POP PUSH1 0x0 DUP2 SSTORE PUSH1 0x1 ADD PUSH1 0x0 DUP2 SSTORE PUSH1 0x1 ADD PUSH1 0x0 DUP2 SSTORE PUSH1 0x1 ADD PUSH1 0x0 DUP2 SSTORE PUSH1 0x1 ADD PUSH1 0x0 SWAP1 SSTORE JUMP JUMPDEST PUSH1 0x0 DUP2 MLOAD SWAP1 POP PUSH3 0x977 DUP2 PUSH3 0xA07 JUMP JUMPDEST SWAP3 SWAP2 POP POP JUMP JUMPDEST PUSH1 0x0 DUP1 PUSH1 0x0 PUSH1 0x60 DUP5 DUP7 SUB SLT ISZERO PUSH3 0x993 JUMPI PUSH1 0x0 DUP1 REVERT JUMPDEST PUSH1 0x0 PUSH3 0x9A3 DUP7 DUP3 DUP8 ADD PUSH3 0x966 JUMP JUMPDEST SWAP4 POP POP PUSH1 0x20 PUSH3 0x9B6 DUP7 DUP3 DUP8 ADD PUSH3 0x966 JUMP JUMPDEST SWAP3 POP POP PUSH1 0x40 PUSH3 0x9C9 DUP7 DUP3 DUP8 ADD PUSH3 0x966 JUMP JUMPDEST SWAP2 POP POP SWAP3 POP SWAP3 POP SWAP3 JUMP JUMPDEST PUSH1 0x0 PUSH3 0x9E0 DUP3 PUSH3 0x9E7 JUMP JUMPDEST SWAP1 POP SWAP2 SWAP1 POP JUMP JUMPDEST PUSH1 0x0 PUSH20 0xFFFFFFFFFFFFFFFFFFFFFFFFFFFFFFFFFFFFFFFF DUP3 AND SWAP1 POP SWAP2 SWAP1 POP JUMP JUMPDEST PUSH3 0xA12 DUP2 PUSH3 0x9D3 JUMP JUMPDEST DUP2 EQ PUSH3 0xA1E JUMPI PUSH1 0x0 DUP1 REVERT JUMPDEST POP JUMP JUMPDEST PUSH2 0x4088 DUP1 PUSH3 0xA31 PUSH1 0x0 CODECOPY PUSH1 0x0 RETURN INVALID PUSH1 0x80 PUSH1 0x40 MSTORE CALLVALUE DUP1 ISZERO PUSH2 0x10 JUMPI PUSH1 0x0 DUP1 REVERT JUMPDEST POP PUSH1 0x4 CALLDATASIZE LT PUSH2 0xCF JUMPI PUSH1 0x0 CALLDATALOAD PUSH1 0xE0 SHR DUP1 PUSH4 0x73B18B4C GT PUSH2 0x8C JUMPI DUP1 PUSH4 0xB677AA2E GT PUSH2 0x66 JUMPI DUP1 PUSH4 0xB677AA2E EQ PUSH2 0x20E JUMPI DUP1 PUSH4 0xCB105188 EQ PUSH2 0x22A JUMPI DUP1 PUSH4 0xD003A97E EQ PUSH2 0x234 JUMPI DUP1 PUSH4 0xE2842D79 EQ PUSH2 0x23E JUMPI PUSH2 0xCF JUMP JUMPDEST DUP1 PUSH4 0x73B18B4C EQ PUSH2 0x1A6 JUMPI DUP1 PUSH4 0x8257A504 EQ PUSH2 0x1C2 JUMPI DUP1 PUSH4 0x995A2001 EQ PUSH2 0x1F2 JUMPI PUSH2 0xCF JUMP JUMPDEST DUP1 PUSH4 0x1D244AFA EQ PUSH2 0xD4 JUMPI DUP1 PUSH4 0x354528E8 EQ PUSH2 0xF0 JUMPI DUP1 PUSH4 0x45CF5CC0 EQ PUSH2 0x10E JUMPI DUP1 PUSH4 0x4EF8FE5B EQ PUSH2 0x12A JUMPI DUP1 PUSH4 0x57D8DF5A EQ PUSH2 0x146 JUMPI DUP1 PUSH4 0x61FDA82A EQ PUSH2 0x176 JUMPI JUMPDEST PUSH1 0x0 DUP1 REVERT JUMPDEST PUSH2 0xEE PUSH1 0x4 DUP1 CALLDATASIZE SUB DUP2 ADD SWAP1 PUSH2 0xE9 SWAP2 SWAP1 PUSH2 0x2F7C JUMP JUMPDEST PUSH2 0x25C JUMP JUMPDEST STOP JUMPDEST PUSH2 0xF8 PUSH2 0x2A0 JUMP JUMPDEST PUSH1 0x40 MLOAD PUSH2 0x105 SWAP2 SWAP1 PUSH2 0x3A0C JUMP JUMPDEST PUSH1 0x40 MLOAD DUP1 SWAP2 SUB SWAP1 RETURN JUMPDEST PUSH2 0x128 PUSH1 0x4 DUP1 CALLDATASIZE SUB DUP2 ADD SWAP1 PUSH2 0x123 SWAP2 SWAP1 PUSH2 0x2E8C JUMP JUMPDEST PUSH2 0x74C JUMP JUMPDEST STOP JUMPDEST PUSH2 0x144 PUSH1 0x4 DUP1 CALLDATASIZE SUB DUP2 ADD SWAP1 PUSH2 0x13F SWAP2 SWAP1 PUSH2 0x2DC5 JUMP JUMPDEST PUSH2 0xE1C JUMP JUMPDEST STOP JUMPDEST PUSH2 0x160 PUSH1 0x4 DUP1 CALLDATASIZE SUB DUP2 ADD SWAP1 PUSH2 0x15B SWAP2 SWAP1 PUSH2 0x2DC5 JUMP JUMPDEST PUSH2 0xEA5 JUMP JUMPDEST PUSH1 0x40 MLOAD PUSH2 0x16D SWAP2 SWAP1 PUSH2 0x3C16 JUMP JUMPDEST PUSH1 0x40 MLOAD DUP1 SWAP2 SUB SWAP1 RETURN JUMPDEST PUSH2 0x190 PUSH1 0x4 DUP1 CALLDATASIZE SUB DUP2 ADD SWAP1 PUSH2 0x18B SWAP2 SWAP1 PUSH2 0x3088 JUMP JUMPDEST PUSH2 0x1291 JUMP JUMPDEST PUSH1 0x40 MLOAD PUSH2 0x19D SWAP2 SWAP1 PUSH2 0x3C38 JUMP JUMPDEST PUSH1 0x40 MLOAD DUP1 SWAP2 SUB SWAP1 RETURN JUMPDEST PUSH2 0x1C0 PUSH1 0x4 DUP1 CALLDATASIZE SUB DUP2 ADD SWAP1 PUSH2 0x1BB SWAP2 SWAP1 PUSH2 0x2FF7 JUMP JUMPDEST PUSH2 0x135B JUMP JUMPDEST STOP JUMPDEST PUSH2 0x1DC PUSH1 0x4 DUP1 CALLDATASIZE SUB DUP2 ADD SWAP1 PUSH2 0x1D7 SWAP2 SWAP1 PUSH2 0x305E JUMP JUMPDEST PUSH2 0x14D9 JUMP JUMPDEST PUSH1 0x40 MLOAD PUSH2 0x1E9 SWAP2 SWAP1 PUSH2 0x3B3B JUMP JUMPDEST PUSH1 0x40 MLOAD DUP1 SWAP2 SUB SWAP1 RETURN JUMPDEST PUSH2 0x20C PUSH1 0x4 DUP1 CALLDATASIZE SUB DUP2 ADD SWAP1 PUSH2 0x207 SWAP2 SWAP1 PUSH2 0x2EDB JUMP JUMPDEST PUSH2 0x1598 JUMP JUMPDEST STOP JUMPDEST PUSH2 0x228 PUSH1 0x4 DUP1 CALLDATASIZE SUB DUP2 ADD SWAP1 PUSH2 0x223 SWAP2 SWAP1 PUSH2 0x2DEE JUMP JUMPDEST PUSH2 0x1BFD JUMP JUMPDEST STOP JUMPDEST PUSH2 0x232 PUSH2 0x1E36 JUMP JUMPDEST STOP JUMPDEST PUSH2 0x23C PUSH2 0x1E38 JUMP JUMPDEST STOP JUMPDEST PUSH2 0x246 PUSH2 0x1F15 JUMP JUMPDEST PUSH1 0x40 MLOAD PUSH2 0x253 SWAP2 SWAP1 PUSH2 0x39EA JUMP JUMPDEST PUSH1 0x40 MLOAD DUP1 SWAP2 SUB SWAP1 RETURN JUMPDEST DUP2 PUSH32 0xC078863E7ADE0C5659980A387D8552E7EE23B544977AA247769231095482A60C DUP6 CALLER DUP7 DUP6 PUSH1 0x40 MLOAD PUSH2 0x292 SWAP5 SWAP4 SWAP3 SWAP2 SWAP1 PUSH2 0x3A2E JUMP JUMPDEST PUSH1 0x40 MLOAD DUP1 SWAP2 SUB SWAP1 LOG2 POP POP POP POP JUMP JUMPDEST PUSH1 0x60 DUP1 PUSH1 0x56 DUP1 SLOAD SWAP1 POP PUSH8 0xFFFFFFFFFFFFFFFF DUP2 GT DUP1 ISZERO PUSH2 0x2BF JUMPI PUSH1 0x0 DUP1 REVERT JUMPDEST POP PUSH1 0x40 MLOAD SWAP1 DUP1 DUP3 MSTORE DUP1 PUSH1 0x20 MUL PUSH1 0x20 ADD DUP3 ADD PUSH1 0x40 MSTORE DUP1 ISZERO PUSH2 0x2F9 JUMPI DUP2 PUSH1 0x20 ADD JUMPDEST PUSH2 0x2E6 PUSH2 0x2559 JUMP JUMPDEST DUP2 MSTORE PUSH1 0x20 ADD SWAP1 PUSH1 0x1 SWAP1 SUB SWAP1 DUP2 PUSH2 0x2DE JUMPI SWAP1 POP JUMPDEST POP SWAP1 POP PUSH1 0x0 JUMPDEST PUSH1 0x56 DUP1 SLOAD SWAP1 POP DUP2 LT ISZERO PUSH2 0x744 JUMPI PUSH1 0x55 PUSH1 0x0 PUSH1 0x56 DUP4 DUP2 SLOAD DUP2 LT PUSH2 0x31D JUMPI INVALID JUMPDEST SWAP1 PUSH1 0x0 MSTORE PUSH1 0x20 PUSH1 0x0 KECCAK256 ADD PUSH1 0x0 SWAP1 SLOAD SWAP1 PUSH2 0x100 EXP SWAP1 DIV PUSH20 0xFFFFFFFFFFFFFFFFFFFFFFFFFFFFFFFFFFFFFFFF AND PUSH20 0xFFFFFFFFFFFFFFFFFFFFFFFFFFFFFFFFFFFFFFFF AND PUSH20 0xFFFFFFFFFFFFFFFFFFFFFFFFFFFFFFFFFFFFFFFF AND DUP2 MSTORE PUSH1 0x20 ADD SWAP1 DUP2 MSTORE PUSH1 0x20 ADD PUSH1 0x0 KECCAK256 PUSH1 0x40 MLOAD DUP1 PUSH1 0x60 ADD PUSH1 0x40 MSTORE SWAP1 DUP2 PUSH1 0x0 DUP3 ADD DUP1 SLOAD DUP1 PUSH1 0x20 MUL PUSH1 0x20 ADD PUSH1 0x40 MLOAD SWAP1 DUP2 ADD PUSH1 0x40 MSTORE DUP1 SWAP3 SWAP2 SWAP1 DUP2 DUP2 MSTORE PUSH1 0x20 ADD PUSH1 0x0 SWAP1 JUMPDEST DUP3 DUP3 LT ISZERO PUSH2 0x6F3 JUMPI DUP4 DUP3 SWAP1 PUSH1 0x0 MSTORE PUSH1 0x20 PUSH1 0x0 KECCAK256 SWAP1 PUSH1 0x1A MUL ADD PUSH1 0x40 MLOAD DUP1 PUSH2 0x1E0 ADD PUSH1 0x40 MSTORE SWAP1 DUP2 PUSH1 0x0 DUP3 ADD SLOAD DUP2 MSTORE PUSH1 0x20 ADD PUSH1 0x1 DUP3 ADD PUSH1 0x0 SWAP1 SLOAD SWAP1 PUSH2 0x100 EXP SWAP1 DIV PUSH20 0xFFFFFFFFFFFFFFFFFFFFFFFFFFFFFFFFFFFFFFFF AND PUSH20 0xFFFFFFFFFFFFFFFFFFFFFFFFFFFFFFFFFFFFFFFF AND PUSH20 0xFFFFFFFFFFFFFFFFFFFFFFFFFFFFFFFFFFFFFFFF AND DUP2 MSTORE PUSH1 0x20 ADD PUSH1 0x2 DUP3 ADD PUSH1 0x0 SWAP1 SLOAD SWAP1 PUSH2 0x100 EXP SWAP1 DIV PUSH20 0xFFFFFFFFFFFFFFFFFFFFFFFFFFFFFFFFFFFFFFFF AND PUSH20 0xFFFFFFFFFFFFFFFFFFFFFFFFFFFFFFFFFFFFFFFF AND PUSH20 0xFFFFFFFFFFFFFFFFFFFFFFFFFFFFFFFFFFFFFFFF AND DUP2 MSTORE PUSH1 0x20 ADD PUSH1 0x2 DUP3 ADD PUSH1 0x14 SWAP1 SLOAD SWAP1 PUSH2 0x100 EXP SWAP1 DIV PUSH1 0xFF AND PUSH1 0x1 DUP2 GT ISZERO PUSH2 0x4AA JUMPI INVALID JUMPDEST PUSH1 0x1 DUP2 GT ISZERO PUSH2 0x4B5 JUMPI INVALID JUMPDEST DUP2 MSTORE PUSH1 0x20 ADD PUSH1 0x2 DUP3 ADD PUSH1 0x15 SWAP1 SLOAD SWAP1 PUSH2 0x100 EXP SWAP1 DIV PUSH1 0xFF AND PUSH1 0x2 DUP2 GT ISZERO PUSH2 0x4D7 JUMPI INVALID JUMPDEST PUSH1 0x2 DUP2 GT ISZERO PUSH2 0x4E2 JUMPI INVALID JUMPDEST DUP2 MSTORE PUSH1 0x20 ADD PUSH1 0x2 DUP3 ADD PUSH1 0x16 SWAP1 SLOAD SWAP1 PUSH2 0x100 EXP SWAP1 DIV PUSH1 0xFF AND PUSH1 0x5 DUP2 GT ISZERO PUSH2 0x504 JUMPI INVALID JUMPDEST PUSH1 0x5 DUP2 GT ISZERO PUSH2 0x50F JUMPI INVALID JUMPDEST DUP2 MSTORE PUSH1 0x20 ADD PUSH1 0x3 DUP3 ADD SLOAD DUP2 MSTORE PUSH1 0x20 ADD PUSH1 0x4 DUP3 ADD SLOAD DUP2 MSTORE PUSH1 0x20 ADD PUSH1 0x5 DUP3 ADD SLOAD DUP2 MSTORE PUSH1 0x20 ADD PUSH1 0x6 DUP3 ADD SLOAD DUP2 MSTORE PUSH1 0x20 ADD PUSH1 0x7 DUP3 ADD PUSH1 0x40 MLOAD DUP1 PUSH1 0x80 ADD PUSH1 0x40 MSTORE SWAP1 DUP2 PUSH1 0x0 DUP3 ADD PUSH1 0x5 DUP1 PUSH1 0x20 MUL PUSH1 0x40 MLOAD SWAP1 DUP2 ADD PUSH1 0x40 MSTORE DUP1 SWAP3 SWAP2 SWAP1 DUP3 PUSH1 0x5 DUP1 ISZERO PUSH2 0x587 JUMPI PUSH1 0x20 MUL DUP3 ADD SWAP2 JUMPDEST DUP2 SLOAD DUP2 MSTORE PUSH1 0x20 ADD SWAP1 PUSH1 0x1 ADD SWAP1 DUP1 DUP4 GT PUSH2 0x573 JUMPI JUMPDEST POP POP POP POP POP DUP2 MSTORE PUSH1 0x20 ADD PUSH1 0x5 DUP3 ADD PUSH1 0x5 DUP1 PUSH1 0x20 MUL PUSH1 0x40 MLOAD SWAP1 DUP2 ADD PUSH1 0x40 MSTORE DUP1 SWAP3 SWAP2 SWAP1 DUP3 PUSH1 0x5 DUP1 ISZERO PUSH2 0x5CC JUMPI PUSH1 0x20 MUL DUP3 ADD SWAP2 JUMPDEST DUP2 SLOAD DUP2 MSTORE PUSH1 0x20 ADD SWAP1 PUSH1 0x1 ADD SWAP1 DUP1 DUP4 GT PUSH2 0x5B8 JUMPI JUMPDEST POP POP POP POP POP DUP2 MSTORE PUSH1 0x20 ADD PUSH1 0xA DUP3 ADD PUSH1 0x5 DUP1 PUSH1 0x20 MUL PUSH1 0x40 MLOAD SWAP1 DUP2 ADD PUSH1 0x40 MSTORE DUP1 SWAP3 SWAP2 SWAP1 DUP3 PUSH1 0x5 DUP1 ISZERO PUSH2 0x611 JUMPI PUSH1 0x20 MUL DUP3 ADD SWAP2 JUMPDEST DUP2 SLOAD DUP2 MSTORE PUSH1 0x20 ADD SWAP1 PUSH1 0x1 ADD SWAP1 DUP1 DUP4 GT PUSH2 0x5FD JUMPI JUMPDEST POP POP POP POP POP DUP2 MSTORE PUSH1 0x20 ADD PUSH1 0xF DUP3 ADD PUSH1 0x5 DUP1 PUSH1 0x20 MUL PUSH1 0x40 MLOAD SWAP1 DUP2 ADD PUSH1 0x40 MSTORE DUP1 SWAP3 SWAP2 SWAP1 DUP3 PUSH1 0x5 DUP1 ISZERO PUSH2 0x67B JUMPI PUSH1 0x20 MUL DUP3 ADD SWAP2 PUSH1 0x0 SWAP1 JUMPDEST DUP3 DUP3 SWAP1 SLOAD SWAP1 PUSH2 0x100 EXP SWAP1 DIV PUSH1 0xFF AND ISZERO ISZERO DUP2 MSTORE PUSH1 0x20 ADD SWAP1 PUSH1 0x1 ADD SWAP1 PUSH1 0x20 DUP3 PUSH1 0x0 ADD DIV SWAP3 DUP4 ADD SWAP3 PUSH1 0x1 SUB DUP3 MUL SWAP2 POP DUP1 DUP5 GT PUSH2 0x645 JUMPI SWAP1 POP JUMPDEST POP POP POP POP POP DUP2 MSTORE POP POP DUP2 MSTORE PUSH1 0x20 ADD PUSH1 0x17 DUP3 ADD SLOAD DUP2 MSTORE PUSH1 0x20 ADD PUSH1 0x18 DUP3 ADD SLOAD DUP2 MSTORE PUSH1 0x20 ADD PUSH1 0x19 DUP3 ADD PUSH1 0x0 SWAP1 SLOAD SWAP1 PUSH2 0x100 EXP SWAP1 DIV PUSH1 0xFF AND ISZERO ISZERO ISZERO ISZERO DUP2 MSTORE PUSH1 0x20 ADD PUSH1 0x19 DUP3 ADD PUSH1 0x1 SWAP1 SLOAD SWAP1 PUSH2 0x100 EXP SWAP1 DIV PUSH1 0xFF AND PUSH1 0x5 DUP2 GT ISZERO PUSH2 0x6D5 JUMPI INVALID JUMPDEST PUSH1 0x5 DUP2 GT ISZERO PUSH2 0x6E0 JUMPI INVALID JUMPDEST DUP2 MSTORE POP POP DUP2 MSTORE PUSH1 0x20 ADD SWAP1 PUSH1 0x1 ADD SWAP1 PUSH2 0x3B2 JUMP JUMPDEST POP POP POP POP DUP2 MSTORE PUSH1 0x20 ADD PUSH1 0x1 DUP3 ADD SLOAD DUP2 MSTORE PUSH1 0x20 ADD PUSH1 0x2 DUP3 ADD PUSH1 0x0 SWAP1 SLOAD SWAP1 PUSH2 0x100 EXP SWAP1 DIV PUSH1 0xFF AND ISZERO ISZERO ISZERO ISZERO DUP2 MSTORE POP POP DUP3 DUP3 DUP2 MLOAD DUP2 LT PUSH2 0x72C JUMPI INVALID JUMPDEST PUSH1 0x20 MUL PUSH1 0x20 ADD ADD DUP2 SWAP1 MSTORE POP DUP1 DUP1 PUSH1 0x1 ADD SWAP2 POP POP PUSH2 0x2FF JUMP JUMPDEST POP DUP1 SWAP2 POP POP SWAP1 JUMP JUMPDEST PUSH1 0x0 PUSH1 0x55 PUSH1 0x0 DUP6 PUSH20 0xFFFFFFFFFFFFFFFFFFFFFFFFFFFFFFFFFFFFFFFF AND PUSH20 0xFFFFFFFFFFFFFFFFFFFFFFFFFFFFFFFFFFFFFFFF AND DUP2 MSTORE PUSH1 0x20 ADD SWAP1 DUP2 MSTORE PUSH1 0x20 ADD PUSH1 0x0 KECCAK256 SWAP1 POP PUSH1 0x0 DUP2 PUSH1 0x0 ADD DUP4 DUP2 SLOAD DUP2 LT PUSH2 0x7A0 JUMPI INVALID JUMPDEST SWAP1 PUSH1 0x0 MSTORE PUSH1 0x20 PUSH1 0x0 KECCAK256 SWAP1 PUSH1 0x1A MUL ADD SWAP1 POP PUSH1 0x0 PUSH1 0x5 DUP2 GT ISZERO PUSH2 0x7BD JUMPI INVALID JUMPDEST DUP2 PUSH1 0x19 ADD PUSH1 0x1 SWAP1 SLOAD SWAP1 PUSH2 0x100 EXP SWAP1 DIV PUSH1 0xFF AND PUSH1 0x5 DUP2 GT ISZERO PUSH2 0x7DA JUMPI INVALID JUMPDEST EQ ISZERO PUSH2 0x926 JUMPI DUP1 PUSH1 0x2 ADD PUSH1 0x0 SWAP1 SLOAD SWAP1 PUSH2 0x100 EXP SWAP1 DIV PUSH20 0xFFFFFFFFFFFFFFFFFFFFFFFFFFFFFFFFFFFFFFFF AND PUSH20 0xFFFFFFFFFFFFFFFFFFFFFFFFFFFFFFFFFFFFFFFF AND DUP5 PUSH20 0xFFFFFFFFFFFFFFFFFFFFFFFFFFFFFFFFFFFFFFFF AND EQ PUSH2 0x872 JUMPI PUSH1 0x40 MLOAD PUSH32 0x8C379A000000000000000000000000000000000000000000000000000000000 DUP2 MSTORE PUSH1 0x4 ADD PUSH2 0x869 SWAP1 PUSH2 0x3BF6 JUMP JUMPDEST PUSH1 0x40 MLOAD DUP1 SWAP2 SUB SWAP1 REVERT JUMPDEST PUSH1 0x1 DUP2 PUSH1 0x19 ADD PUSH1 0x1 PUSH2 0x100 EXP DUP2 SLOAD DUP2 PUSH1 0xFF MUL NOT AND SWAP1 DUP4 PUSH1 0x5 DUP2 GT ISZERO PUSH2 0x893 JUMPI INVALID JUMPDEST MUL OR SWAP1 SSTORE POP PUSH1 0x59 PUSH1 0x0 SWAP1 SLOAD SWAP1 PUSH2 0x100 EXP SWAP1 DIV PUSH20 0xFFFFFFFFFFFFFFFFFFFFFFFFFFFFFFFFFFFFFFFF AND PUSH20 0xFFFFFFFFFFFFFFFFFFFFFFFFFFFFFFFFFFFFFFFF AND PUSH4 0x74E8DE77 DUP6 PUSH1 0x40 MLOAD DUP3 PUSH4 0xFFFFFFFF AND PUSH1 0xE0 SHL DUP2 MSTORE PUSH1 0x4 ADD PUSH2 0x8F3 SWAP2 SWAP1 PUSH2 0x391B JUMP JUMPDEST PUSH1 0x0 PUSH1 0x40 MLOAD DUP1 DUP4 SUB DUP2 PUSH1 0x0 DUP8 DUP1 EXTCODESIZE ISZERO DUP1 ISZERO PUSH2 0x90D JUMPI PUSH1 0x0 DUP1 REVERT JUMPDEST POP GAS CALL ISZERO DUP1 ISZERO PUSH2 0x921 JUMPI RETURNDATASIZE PUSH1 0x0 DUP1 RETURNDATACOPY RETURNDATASIZE PUSH1 0x0 REVERT JUMPDEST POP POP POP POP JUMPDEST PUSH1 0x1 PUSH1 0x5 DUP2 GT ISZERO PUSH2 0x933 JUMPI INVALID JUMPDEST DUP2 PUSH1 0x19 ADD PUSH1 0x1 SWAP1 SLOAD SWAP1 PUSH2 0x100 EXP SWAP1 DIV PUSH1 0xFF AND PUSH1 0x5 DUP2 GT ISZERO PUSH2 0x950 JUMPI INVALID JUMPDEST EQ ISZERO PUSH2 0xACB JUMPI PUSH2 0xAA6 DUP2 PUSH1 0x7 ADD PUSH1 0x40 MLOAD DUP1 PUSH1 0x80 ADD PUSH1 0x40 MSTORE SWAP1 DUP2 PUSH1 0x0 DUP3 ADD PUSH1 0x5 DUP1 PUSH1 0x20 MUL PUSH1 0x40 MLOAD SWAP1 DUP2 ADD PUSH1 0x40 MSTORE DUP1 SWAP3 SWAP2 SWAP1 DUP3 PUSH1 0x5 DUP1 ISZERO PUSH2 0x9A4 JUMPI PUSH1 0x20 MUL DUP3 ADD SWAP2 JUMPDEST DUP2 SLOAD DUP2 MSTORE PUSH1 0x20 ADD SWAP1 PUSH1 0x1 ADD SWAP1 DUP1 DUP4 GT PUSH2 0x990 JUMPI JUMPDEST POP POP POP POP POP DUP2 MSTORE PUSH1 0x20 ADD PUSH1 0x5 DUP3 ADD PUSH1 0x5 DUP1 PUSH1 0x20 MUL PUSH1 0x40 MLOAD SWAP1 DUP2 ADD PUSH1 0x40 MSTORE DUP1 SWAP3 SWAP2 SWAP1 DUP3 PUSH1 0x5 DUP1 ISZERO PUSH2 0x9E9 JUMPI PUSH1 0x20 MUL DUP3 ADD SWAP2 JUMPDEST DUP2 SLOAD DUP2 MSTORE PUSH1 0x20 ADD SWAP1 PUSH1 0x1 ADD SWAP1 DUP1 DUP4 GT PUSH2 0x9D5 JUMPI JUMPDEST POP POP POP POP POP DUP2 MSTORE PUSH1 0x20 ADD PUSH1 0xA DUP3 ADD PUSH1 0x5 DUP1 PUSH1 0x20 MUL PUSH1 0x40 MLOAD SWAP1 DUP2 ADD PUSH1 0x40 MSTORE DUP1 SWAP3 SWAP2 SWAP1 DUP3 PUSH1 0x5 DUP1 ISZERO PUSH2 0xA2E JUMPI PUSH1 0x20 MUL DUP3 ADD SWAP2 JUMPDEST DUP2 SLOAD DUP2 MSTORE PUSH1 0x20 ADD SWAP1 PUSH1 0x1 ADD SWAP1 DUP1 DUP4 GT PUSH2 0xA1A JUMPI JUMPDEST POP POP POP POP POP DUP2 MSTORE PUSH1 0x20 ADD PUSH1 0xF DUP3 ADD PUSH1 0x5 DUP1 PUSH1 0x20 MUL PUSH1 0x40 MLOAD SWAP1 DUP2 ADD PUSH1 0x40 MSTORE DUP1 SWAP3 SWAP2 SWAP1 DUP3 PUSH1 0x5 DUP1 ISZERO PUSH2 0xA98 JUMPI PUSH1 0x20 MUL DUP3 ADD SWAP2 PUSH1 0x0 SWAP1 JUMPDEST DUP3 DUP3 SWAP1 SLOAD SWAP1 PUSH2 0x100 EXP SWAP1 DIV PUSH1 0xFF AND ISZERO ISZERO DUP2 MSTORE PUSH1 0x20 ADD SWAP1 PUSH1 0x1 ADD SWAP1 PUSH1 0x20 DUP3 PUSH1 0x0 ADD DIV SWAP3 DUP4 ADD SWAP3 PUSH1 0x1 SUB DUP3 MUL SWAP2 POP DUP1 DUP5 GT PUSH2 0xA62 JUMPI SWAP1 POP JUMPDEST POP POP POP POP POP DUP2 MSTORE POP POP PUSH2 0x14D9 JUMP JUMPDEST DUP2 PUSH1 0x19 ADD PUSH1 0x1 PUSH2 0x100 EXP DUP2 SLOAD DUP2 PUSH1 0xFF MUL NOT AND SWAP1 DUP4 PUSH1 0x5 DUP2 GT ISZERO PUSH2 0xAC5 JUMPI INVALID JUMPDEST MUL OR SWAP1 SSTORE POP JUMPDEST PUSH1 0x2 PUSH1 0x5 DUP2 GT ISZERO PUSH2 0xAD8 JUMPI INVALID JUMPDEST DUP2 PUSH1 0x19 ADD PUSH1 0x1 SWAP1 SLOAD SWAP1 PUSH2 0x100 EXP SWAP1 DIV PUSH1 0xFF AND PUSH1 0x5 DUP2 GT ISZERO PUSH2 0xAF5 JUMPI INVALID JUMPDEST EQ ISZERO PUSH2 0xC70 JUMPI PUSH2 0xC4B DUP2 PUSH1 0x7 ADD PUSH1 0x40 MLOAD DUP1 PUSH1 0x80 ADD PUSH1 0x40 MSTORE SWAP1 DUP2 PUSH1 0x0 DUP3 ADD PUSH1 0x5 DUP1 PUSH1 0x20 MUL PUSH1 0x40 MLOAD SWAP1 DUP2 ADD PUSH1 0x40 MSTORE DUP1 SWAP3 SWAP2 SWAP1 DUP3 PUSH1 0x5 DUP1 ISZERO PUSH2 0xB49 JUMPI PUSH1 0x20 MUL DUP3 ADD SWAP2 JUMPDEST DUP2 SLOAD DUP2 MSTORE PUSH1 0x20 ADD SWAP1 PUSH1 0x1 ADD SWAP1 DUP1 DUP4 GT PUSH2 0xB35 JUMPI JUMPDEST POP POP POP POP POP DUP2 MSTORE PUSH1 0x20 ADD PUSH1 0x5 DUP3 ADD PUSH1 0x5 DUP1 PUSH1 0x20 MUL PUSH1 0x40 MLOAD SWAP1 DUP2 ADD PUSH1 0x40 MSTORE DUP1 SWAP3 SWAP2 SWAP1 DUP3 PUSH1 0x5 DUP1 ISZERO PUSH2 0xB8E JUMPI PUSH1 0x20 MUL DUP3 ADD SWAP2 JUMPDEST DUP2 SLOAD DUP2 MSTORE PUSH1 0x20 ADD SWAP1 PUSH1 0x1 ADD SWAP1 DUP1 DUP4 GT PUSH2 0xB7A JUMPI JUMPDEST POP POP POP POP POP DUP2 MSTORE PUSH1 0x20 ADD PUSH1 0xA DUP3 ADD PUSH1 0x5 DUP1 PUSH1 0x20 MUL PUSH1 0x40 MLOAD SWAP1 DUP2 ADD PUSH1 0x40 MSTORE DUP1 SWAP3 SWAP2 SWAP1 DUP3 PUSH1 0x5 DUP1 ISZERO PUSH2 0xBD3 JUMPI PUSH1 0x20 MUL DUP3 ADD SWAP2 JUMPDEST DUP2 SLOAD DUP2 MSTORE PUSH1 0x20 ADD SWAP1 PUSH1 0x1 ADD SWAP1 DUP1 DUP4 GT PUSH2 0xBBF JUMPI JUMPDEST POP POP POP POP POP DUP2 MSTORE PUSH1 0x20 ADD PUSH1 0xF DUP3 ADD PUSH1 0x5 DUP1 PUSH1 0x20 MUL PUSH1 0x40 MLOAD SWAP1 DUP2 ADD PUSH1 0x40 MSTORE DUP1 SWAP3 SWAP2 SWAP1 DUP3 PUSH1 0x5 DUP1 ISZERO PUSH2 0xC3D JUMPI PUSH1 0x20 MUL DUP3 ADD SWAP2 PUSH1 0x0 SWAP1 JUMPDEST DUP3 DUP3 SWAP1 SLOAD SWAP1 PUSH2 0x100 EXP SWAP1 DIV PUSH1 0xFF AND ISZERO ISZERO DUP2 MSTORE PUSH1 0x20 ADD SWAP1 PUSH1 0x1 ADD SWAP1 PUSH1 0x20 DUP3 PUSH1 0x0 ADD DIV SWAP3 DUP4 ADD SWAP3 PUSH1 0x1 SUB DUP3 MUL SWAP2 POP DUP1 DUP5 GT PUSH2 0xC07 JUMPI SWAP1 POP JUMPDEST POP POP POP POP POP DUP2 MSTORE POP POP PUSH2 0x14D9 JUMP JUMPDEST DUP2 PUSH1 0x19 ADD PUSH1 0x1 PUSH2 0x100 EXP DUP2 SLOAD DUP2 PUSH1 0xFF MUL NOT AND SWAP1 DUP4 PUSH1 0x5 DUP2 GT ISZERO PUSH2 0xC6A JUMPI INVALID JUMPDEST MUL OR SWAP1 SSTORE POP JUMPDEST PUSH1 0x3 PUSH1 0x5 DUP2 GT ISZERO PUSH2 0xC7D JUMPI INVALID JUMPDEST DUP2 PUSH1 0x19 ADD PUSH1 0x1 SWAP1 SLOAD SWAP1 PUSH2 0x100 EXP SWAP1 DIV PUSH1 0xFF AND PUSH1 0x5 DUP2 GT ISZERO PUSH2 0xC9A JUMPI INVALID JUMPDEST EQ ISZERO PUSH2 0xE15 JUMPI PUSH2 0xDF0 DUP2 PUSH1 0x7 ADD PUSH1 0x40 MLOAD DUP1 PUSH1 0x80 ADD PUSH1 0x40 MSTORE SWAP1 DUP2 PUSH1 0x0 DUP3 ADD PUSH1 0x5 DUP1 PUSH1 0x20 MUL PUSH1 0x40 MLOAD SWAP1 DUP2 ADD PUSH1 0x40 MSTORE DUP1 SWAP3 SWAP2 SWAP1 DUP3 PUSH1 0x5 DUP1 ISZERO PUSH2 0xCEE JUMPI PUSH1 0x20 MUL DUP3 ADD SWAP2 JUMPDEST DUP2 SLOAD DUP2 MSTORE PUSH1 0x20 ADD SWAP1 PUSH1 0x1 ADD SWAP1 DUP1 DUP4 GT PUSH2 0xCDA JUMPI JUMPDEST POP POP POP POP POP DUP2 MSTORE PUSH1 0x20 ADD PUSH1 0x5 DUP3 ADD PUSH1 0x5 DUP1 PUSH1 0x20 MUL PUSH1 0x40 MLOAD SWAP1 DUP2 ADD PUSH1 0x40 MSTORE DUP1 SWAP3 SWAP2 SWAP1 DUP3 PUSH1 0x5 DUP1 ISZERO PUSH2 0xD33 JUMPI PUSH1 0x20 MUL DUP3 ADD SWAP2 JUMPDEST DUP2 SLOAD DUP2 MSTORE PUSH1 0x20 ADD SWAP1 PUSH1 0x1 ADD SWAP1 DUP1 DUP4 GT PUSH2 0xD1F JUMPI JUMPDEST POP POP POP POP POP DUP2 MSTORE PUSH1 0x20 ADD PUSH1 0xA DUP3 ADD PUSH1 0x5 DUP1 PUSH1 0x20 MUL PUSH1 0x40 MLOAD SWAP1 DUP2 ADD PUSH1 0x40 MSTORE DUP1 SWAP3 SWAP2 SWAP1 DUP3 PUSH1 0x5 DUP1 ISZERO PUSH2 0xD78 JUMPI PUSH1 0x20 MUL DUP3 ADD SWAP2 JUMPDEST DUP2 SLOAD DUP2 MSTORE PUSH1 0x20 ADD SWAP1 PUSH1 0x1 ADD SWAP1 DUP1 DUP4 GT PUSH2 0xD64 JUMPI JUMPDEST POP POP POP POP POP DUP2 MSTORE PUSH1 0x20 ADD PUSH1 0xF DUP3 ADD PUSH1 0x5 DUP1 PUSH1 0x20 MUL PUSH1 0x40 MLOAD SWAP1 DUP2 ADD PUSH1 0x40 MSTORE DUP1 SWAP3 SWAP2 SWAP1 DUP3 PUSH1 0x5 DUP1 ISZERO PUSH2 0xDE2 JUMPI PUSH1 0x20 MUL DUP3 ADD SWAP2 PUSH1 0x0 SWAP1 JUMPDEST DUP3 DUP3 SWAP1 SLOAD SWAP1 PUSH2 0x100 EXP SWAP1 DIV PUSH1 0xFF AND ISZERO ISZERO DUP2 MSTORE PUSH1 0x20 ADD SWAP1 PUSH1 0x1 ADD SWAP1 PUSH1 0x20 DUP3 PUSH1 0x0 ADD DIV SWAP3 DUP4 ADD SWAP3 PUSH1 0x1 SUB DUP3 MUL SWAP2 POP DUP1 DUP5 GT PUSH2 0xDAC JUMPI SWAP1 POP JUMPDEST POP POP POP POP POP DUP2 MSTORE POP POP PUSH2 0x14D9 JUMP JUMPDEST DUP2 PUSH1 0x19 ADD PUSH1 0x1 PUSH2 0x100 EXP DUP2 SLOAD DUP2 PUSH1 0xFF MUL NOT AND SWAP1 DUP4 PUSH1 0x5 DUP2 GT ISZERO PUSH2 0xE0F JUMPI INVALID JUMPDEST MUL OR SWAP1 SSTORE POP JUMPDEST POP POP POP POP POP JUMP JUMPDEST PUSH1 0x0 PUSH1 0x55 PUSH1 0x0 DUP4 PUSH20 0xFFFFFFFFFFFFFFFFFFFFFFFFFFFFFFFFFFFFFFFF AND PUSH20 0xFFFFFFFFFFFFFFFFFFFFFFFFFFFFFFFFFFFFFFFF AND DUP2 MSTORE PUSH1 0x20 ADD SWAP1 DUP2 MSTORE PUSH1 0x20 ADD PUSH1 0x0 KECCAK256 PUSH1 0x0 ADD SWAP1 POP PUSH1 0x0 JUMPDEST DUP2 DUP1 SLOAD SWAP1 POP DUP2 LT ISZERO PUSH2 0xEA0 JUMPI PUSH2 0xE93 DUP3 DUP3 DUP2 SLOAD DUP2 LT PUSH2 0xE80 JUMPI INVALID JUMPDEST SWAP1 PUSH1 0x0 MSTORE PUSH1 0x20 PUSH1 0x0 KECCAK256 SWAP1 PUSH1 0x1A MUL ADD PUSH2 0x1FA3 JUMP JUMPDEST DUP1 DUP1 PUSH1 0x1 ADD SWAP2 POP POP PUSH2 0xE65 JUMP JUMPDEST POP POP POP JUMP JUMPDEST PUSH2 0xEAD PUSH2 0x2559 JUMP JUMPDEST PUSH1 0x55 PUSH1 0x0 DUP4 PUSH20 0xFFFFFFFFFFFFFFFFFFFFFFFFFFFFFFFFFFFFFFFF AND PUSH20 0xFFFFFFFFFFFFFFFFFFFFFFFFFFFFFFFFFFFFFFFF AND DUP2 MSTORE PUSH1 0x20 ADD SWAP1 DUP2 MSTORE PUSH1 0x20 ADD PUSH1 0x0 KECCAK256 PUSH1 0x40 MLOAD DUP1 PUSH1 0x60 ADD PUSH1 0x40 MSTORE SWAP1 DUP2 PUSH1 0x0 DUP3 ADD DUP1 SLOAD DUP1 PUSH1 0x20 MUL PUSH1 0x20 ADD PUSH1 0x40 MLOAD SWAP1 DUP2 ADD PUSH1 0x40 MSTORE DUP1 SWAP3 SWAP2 SWAP1 DUP2 DUP2 MSTORE PUSH1 0x20 ADD PUSH1 0x0 SWAP1 JUMPDEST DUP3 DUP3 LT ISZERO PUSH2 0x125D JUMPI DUP4 DUP3 SWAP1 PUSH1 0x0 MSTORE PUSH1 0x20 PUSH1 0x0 KECCAK256 SWAP1 PUSH1 0x1A MUL ADD PUSH1 0x40 MLOAD DUP1 PUSH2 0x1E0 ADD PUSH1 0x40 MSTORE SWAP1 DUP2 PUSH1 0x0 DUP3 ADD SLOAD DUP2 MSTORE PUSH1 0x20 ADD PUSH1 0x1 DUP3 ADD PUSH1 0x0 SWAP1 SLOAD SWAP1 PUSH2 0x100 EXP SWAP1 DIV PUSH20 0xFFFFFFFFFFFFFFFFFFFFFFFFFFFFFFFFFFFFFFFF AND PUSH20 0xFFFFFFFFFFFFFFFFFFFFFFFFFFFFFFFFFFFFFFFF AND PUSH20 0xFFFFFFFFFFFFFFFFFFFFFFFFFFFFFFFFFFFFFFFF AND DUP2 MSTORE PUSH1 0x20 ADD PUSH1 0x2 DUP3 ADD PUSH1 0x0 SWAP1 SLOAD SWAP1 PUSH2 0x100 EXP SWAP1 DIV PUSH20 0xFFFFFFFFFFFFFFFFFFFFFFFFFFFFFFFFFFFFFFFF AND PUSH20 0xFFFFFFFFFFFFFFFFFFFFFFFFFFFFFFFFFFFFFFFF AND PUSH20 0xFFFFFFFFFFFFFFFFFFFFFFFFFFFFFFFFFFFFFFFF AND DUP2 MSTORE PUSH1 0x20 ADD PUSH1 0x2 DUP3 ADD PUSH1 0x14 SWAP1 SLOAD SWAP1 PUSH2 0x100 EXP SWAP1 DIV PUSH1 0xFF AND PUSH1 0x1 DUP2 GT ISZERO PUSH2 0x1014 JUMPI INVALID JUMPDEST PUSH1 0x1 DUP2 GT ISZERO PUSH2 0x101F JUMPI INVALID JUMPDEST DUP2 MSTORE PUSH1 0x20 ADD PUSH1 0x2 DUP3 ADD PUSH1 0x15 SWAP1 SLOAD SWAP1 PUSH2 0x100 EXP SWAP1 DIV PUSH1 0xFF AND PUSH1 0x2 DUP2 GT ISZERO PUSH2 0x1041 JUMPI INVALID JUMPDEST PUSH1 0x2 DUP2 GT ISZERO PUSH2 0x104C JUMPI INVALID JUMPDEST DUP2 MSTORE PUSH1 0x20 ADD PUSH1 0x2 DUP3 ADD PUSH1 0x16 SWAP1 SLOAD SWAP1 PUSH2 0x100 EXP SWAP1 DIV PUSH1 0xFF AND PUSH1 0x5 DUP2 GT ISZERO PUSH2 0x106E JUMPI INVALID JUMPDEST PUSH1 0x5 DUP2 GT ISZERO PUSH2 0x1079 JUMPI INVALID JUMPDEST DUP2 MSTORE PUSH1 0x20 ADD PUSH1 0x3 DUP3 ADD SLOAD DUP2 MSTORE PUSH1 0x20 ADD PUSH1 0x4 DUP3 ADD SLOAD DUP2 MSTORE PUSH1 0x20 ADD PUSH1 0x5 DUP3 ADD SLOAD DUP2 MSTORE PUSH1 0x20 ADD PUSH1 0x6 DUP3 ADD SLOAD DUP2 MSTORE PUSH1 0x20 ADD PUSH1 0x7 DUP3 ADD PUSH1 0x40 MLOAD DUP1 PUSH1 0x80 ADD PUSH1 0x40 MSTORE SWAP1 DUP2 PUSH1 0x0 DUP3 ADD PUSH1 0x5 DUP1 PUSH1 0x20 MUL PUSH1 0x40 MLOAD SWAP1 DUP2 ADD PUSH1 0x40 MSTORE DUP1 SWAP3 SWAP2 SWAP1 DUP3 PUSH1 0x5 DUP1 ISZERO PUSH2 0x10F1 JUMPI PUSH1 0x20 MUL DUP3 ADD SWAP2 JUMPDEST DUP2 SLOAD DUP2 MSTORE PUSH1 0x20 ADD SWAP1 PUSH1 0x1 ADD SWAP1 DUP1 DUP4 GT PUSH2 0x10DD JUMPI JUMPDEST POP POP POP POP POP DUP2 MSTORE PUSH1 0x20 ADD PUSH1 0x5 DUP3 ADD PUSH1 0x5 DUP1 PUSH1 0x20 MUL PUSH1 0x40 MLOAD SWAP1 DUP2 ADD PUSH1 0x40 MSTORE DUP1 SWAP3 SWAP2 SWAP1 DUP3 PUSH1 0x5 DUP1 ISZERO PUSH2 0x1136 JUMPI PUSH1 0x20 MUL DUP3 ADD SWAP2 JUMPDEST DUP2 SLOAD DUP2 MSTORE PUSH1 0x20 ADD SWAP1 PUSH1 0x1 ADD SWAP1 DUP1 DUP4 GT PUSH2 0x1122 JUMPI JUMPDEST POP POP POP POP POP DUP2 MSTORE PUSH1 0x20 ADD PUSH1 0xA DUP3 ADD PUSH1 0x5 DUP1 PUSH1 0x20 MUL PUSH1 0x40 MLOAD SWAP1 DUP2 ADD PUSH1 0x40 MSTORE DUP1 SWAP3 SWAP2 SWAP1 DUP3 PUSH1 0x5 DUP1 ISZERO PUSH2 0x117B JUMPI PUSH1 0x20 MUL DUP3 ADD SWAP2 JUMPDEST DUP2 SLOAD DUP2 MSTORE PUSH1 0x20 ADD SWAP1 PUSH1 0x1 ADD SWAP1 DUP1 DUP4 GT PUSH2 0x1167 JUMPI JUMPDEST POP POP POP POP POP DUP2 MSTORE PUSH1 0x20 ADD PUSH1 0xF DUP3 ADD PUSH1 0x5 DUP1 PUSH1 0x20 MUL PUSH1 0x40 MLOAD SWAP1 DUP2 ADD PUSH1 0x40 MSTORE DUP1 SWAP3 SWAP2 SWAP1 DUP3 PUSH1 0x5 DUP1 ISZERO PUSH2 0x11E5 JUMPI PUSH1 0x20 MUL DUP3 ADD SWAP2 PUSH1 0x0 SWAP1 JUMPDEST DUP3 DUP3 SWAP1 SLOAD SWAP1 PUSH2 0x100 EXP SWAP1 DIV PUSH1 0xFF AND ISZERO ISZERO DUP2 MSTORE PUSH1 0x20 ADD SWAP1 PUSH1 0x1 ADD SWAP1 PUSH1 0x20 DUP3 PUSH1 0x0 ADD DIV SWAP3 DUP4 ADD SWAP3 PUSH1 0x1 SUB DUP3 MUL SWAP2 POP DUP1 DUP5 GT PUSH2 0x11AF JUMPI SWAP1 POP JUMPDEST POP POP POP POP POP DUP2 MSTORE POP POP DUP2 MSTORE PUSH1 0x20 ADD PUSH1 0x17 DUP3 ADD SLOAD DUP2 MSTORE PUSH1 0x20 ADD PUSH1 0x18 DUP3 ADD SLOAD DUP2 MSTORE PUSH1 0x20 ADD PUSH1 0x19 DUP3 ADD PUSH1 0x0 SWAP1 SLOAD SWAP1 PUSH2 0x100 EXP SWAP1 DIV PUSH1 0xFF AND ISZERO ISZERO ISZERO ISZERO DUP2 MSTORE PUSH1 0x20 ADD PUSH1 0x19 DUP3 ADD PUSH1 0x1 SWAP1 SLOAD SWAP1 PUSH2 0x100 EXP SWAP1 DIV PUSH1 0xFF AND PUSH1 0x5 DUP2 GT ISZERO PUSH2 0x123F JUMPI INVALID JUMPDEST PUSH1 0x5 DUP2 GT ISZERO PUSH2 0x124A JUMPI INVALID JUMPDEST DUP2 MSTORE POP POP DUP2 MSTORE PUSH1 0x20 ADD SWAP1 PUSH1 0x1 ADD SWAP1 PUSH2 0xF1C JUMP JUMPDEST POP POP POP POP DUP2 MSTORE PUSH1 0x20 ADD PUSH1 0x1 DUP3 ADD SLOAD DUP2 MSTORE PUSH1 0x20 ADD PUSH1 0x2 DUP3 ADD PUSH1 0x0 SWAP1 SLOAD SWAP1 PUSH2 0x100 EXP SWAP1 DIV PUSH1 0xFF AND ISZERO ISZERO ISZERO ISZERO DUP2 MSTORE POP POP SWAP1 POP SWAP2 SWAP1 POP JUMP JUMPDEST PUSH2 0x1299 PUSH2 0x257C JUMP JUMPDEST PUSH1 0x55 PUSH1 0x0 CALLER PUSH20 0xFFFFFFFFFFFFFFFFFFFFFFFFFFFFFFFFFFFFFFFF AND PUSH20 0xFFFFFFFFFFFFFFFFFFFFFFFFFFFFFFFFFFFFFFFF AND DUP2 MSTORE PUSH1 0x20 ADD SWAP1 DUP2 MSTORE PUSH1 0x20 ADD PUSH1 0x0 KECCAK256 PUSH1 0x2 ADD PUSH1 0x0 SWAP1 SLOAD SWAP1 PUSH2 0x100 EXP SWAP1 DIV PUSH1 0xFF AND PUSH2 0x1328 JUMPI PUSH1 0x40 MLOAD PUSH32 0x8C379A000000000000000000000000000000000000000000000000000000000 DUP2 MSTORE PUSH1 0x4 ADD PUSH2 0x131F SWAP1 PUSH2 0x3B76 JUMP JUMPDEST PUSH1 0x40 MLOAD DUP1 SWAP2 SUB SWAP1 REVERT JUMPDEST PUSH2 0x1330 PUSH2 0x2559 JUMP JUMPDEST PUSH2 0x1339 CALLER PUSH2 0xEA5 JUMP JUMPDEST SWAP1 POP DUP1 PUSH1 0x0 ADD MLOAD DUP4 DUP2 MLOAD DUP2 LT PUSH2 0x134B JUMPI INVALID JUMPDEST PUSH1 0x20 MUL PUSH1 0x20 ADD ADD MLOAD SWAP2 POP POP SWAP2 SWAP1 POP JUMP JUMPDEST PUSH1 0x0 PUSH1 0x48 DUP5 PUSH1 0x5 DUP2 GT ISZERO PUSH2 0x136B JUMPI INVALID JUMPDEST PUSH1 0x6 DUP2 LT PUSH2 0x1375 JUMPI INVALID JUMPDEST ADD SLOAD SWAP1 POP PUSH2 0x1381 PUSH2 0x2652 JUMP JUMPDEST PUSH1 0x2A DUP6 PUSH1 0x5 DUP2 GT ISZERO PUSH2 0x138F JUMPI INVALID JUMPDEST PUSH1 0x6 DUP2 LT PUSH2 0x1399 JUMPI INVALID JUMPDEST PUSH1 0x5 MUL ADD PUSH1 0x5 DUP1 PUSH1 0x20 MUL PUSH1 0x40 MLOAD SWAP1 DUP2 ADD PUSH1 0x40 MSTORE DUP1 SWAP3 SWAP2 SWAP1 DUP3 PUSH1 0x5 DUP1 ISZERO PUSH2 0x13D4 JUMPI PUSH1 0x20 MUL DUP3 ADD SWAP2 JUMPDEST DUP2 SLOAD DUP2 MSTORE PUSH1 0x20 ADD SWAP1 PUSH1 0x1 ADD SWAP1 DUP1 DUP4 GT PUSH2 0x13C0 JUMPI JUMPDEST POP POP POP POP POP SWAP1 POP PUSH1 0x0 JUMPDEST DUP3 DUP2 LT ISZERO PUSH2 0x14D0 JUMPI PUSH3 0x127500 TIMESTAMP DUP4 DUP4 PUSH1 0x5 DUP2 LT PUSH2 0x13F7 JUMPI INVALID JUMPDEST PUSH1 0x20 MUL ADD MLOAD ADD SUB DUP8 PUSH2 0x140 ADD MLOAD PUSH1 0x0 ADD MLOAD DUP3 PUSH1 0x5 DUP2 LT PUSH2 0x1413 JUMPI INVALID JUMPDEST PUSH1 0x20 MUL ADD DUP2 DUP2 MSTORE POP POP TIMESTAMP DUP3 DUP3 PUSH1 0x5 DUP2 LT PUSH2 0x1429 JUMPI INVALID JUMPDEST PUSH1 0x20 MUL ADD MLOAD ADD DUP8 PUSH2 0x140 ADD MLOAD PUSH1 0x20 ADD MLOAD DUP3 PUSH1 0x5 DUP2 LT PUSH2 0x1444 JUMPI INVALID JUMPDEST PUSH1 0x20 MUL ADD DUP2 DUP2 MSTORE POP POP PUSH2 0x2710 DUP1 PUSH1 0x6 DUP9 PUSH1 0x5 DUP2 GT ISZERO PUSH2 0x145F JUMPI INVALID JUMPDEST PUSH1 0x6 DUP2 LT PUSH2 0x1469 JUMPI INVALID JUMPDEST ADD SLOAD DUP7 DUP9 MUL MUL DUP2 PUSH2 0x1476 JUMPI INVALID JUMPDEST DIV DUP2 PUSH2 0x147E JUMPI INVALID JUMPDEST DIV DUP8 PUSH2 0x140 ADD MLOAD PUSH1 0x40 ADD MLOAD DUP3 PUSH1 0x5 DUP2 LT PUSH2 0x1494 JUMPI INVALID JUMPDEST PUSH1 0x20 MUL ADD DUP2 DUP2 MSTORE POP POP PUSH1 0x0 DUP8 PUSH2 0x140 ADD MLOAD PUSH1 0x60 ADD MLOAD DUP3 PUSH1 0x5 DUP2 LT PUSH2 0x14B4 JUMPI INVALID JUMPDEST PUSH1 0x20 MUL ADD SWAP1 ISZERO ISZERO SWAP1 DUP2 ISZERO ISZERO DUP2 MSTORE POP POP DUP1 DUP1 PUSH1 0x1 ADD SWAP2 POP POP PUSH2 0x13DE JUMP JUMPDEST POP POP POP POP POP POP POP JUMP JUMPDEST PUSH1 0x0 DUP1 PUSH1 0x0 SWAP1 POP JUMPDEST PUSH1 0x5 PUSH1 0x1 MUL DUP2 LT ISZERO PUSH2 0x1520 JUMPI PUSH1 0x0 ISZERO ISZERO DUP4 PUSH1 0x60 ADD MLOAD DUP3 PUSH1 0x5 DUP2 LT PUSH2 0x1501 JUMPI INVALID JUMPDEST PUSH1 0x20 MUL ADD MLOAD ISZERO ISZERO EQ ISZERO PUSH2 0x1513 JUMPI PUSH2 0x1520 JUMP JUMPDEST DUP1 DUP1 PUSH1 0x1 ADD SWAP2 POP POP PUSH2 0x14E1 JUMP JUMPDEST DUP3 PUSH1 0x0 ADD MLOAD DUP2 PUSH1 0x5 DUP2 LT PUSH2 0x1530 JUMPI INVALID JUMPDEST PUSH1 0x20 MUL ADD MLOAD TIMESTAMP LT ISZERO PUSH2 0x1546 JUMPI PUSH1 0x1 SWAP2 POP POP PUSH2 0x1593 JUMP JUMPDEST DUP3 PUSH1 0x20 ADD MLOAD DUP2 PUSH1 0x5 DUP2 LT PUSH2 0x1556 JUMPI INVALID JUMPDEST PUSH1 0x20 MUL ADD MLOAD TIMESTAMP GT PUSH2 0x156B JUMPI PUSH1 0x2 SWAP2 POP POP PUSH2 0x1593 JUMP JUMPDEST TIMESTAMP DUP4 PUSH1 0x20 ADD MLOAD DUP3 PUSH1 0x5 DUP2 LT PUSH2 0x157C JUMPI INVALID JUMPDEST PUSH1 0x20 MUL ADD MLOAD LT ISZERO PUSH2 0x1591 JUMPI PUSH1 0x3 SWAP2 POP POP PUSH2 0x1593 JUMP JUMPDEST POP JUMPDEST SWAP2 SWAP1 POP JUMP JUMPDEST CALLER PUSH20 0xFFFFFFFFFFFFFFFFFFFFFFFFFFFFFFFFFFFFFFFF AND DUP6 PUSH20 0xFFFFFFFFFFFFFFFFFFFFFFFFFFFFFFFFFFFFFFFF AND EQ ISZERO PUSH2 0x1607 JUMPI PUSH1 0x40 MLOAD PUSH32 0x8C379A000000000000000000000000000000000000000000000000000000000 DUP2 MSTORE PUSH1 0x4 ADD PUSH2 0x15FE SWAP1 PUSH2 0x3B56 JUMP JUMPDEST PUSH1 0x40 MLOAD DUP1 SWAP2 SUB SWAP1 REVERT JUMPDEST PUSH1 0x0 PUSH1 0x1 DUP2 GT ISZERO PUSH2 0x1614 JUMPI INVALID JUMPDEST DUP5 PUSH1 0x1 DUP2 GT ISZERO PUSH2 0x1620 JUMPI INVALID JUMPDEST EQ ISZERO PUSH2 0x16B8 JUMPI PUSH1 0x59 PUSH1 0x0 SWAP1 SLOAD SWAP1 PUSH2 0x100 EXP SWAP1 DIV PUSH20 0xFFFFFFFFFFFFFFFFFFFFFFFFFFFFFFFFFFFFFFFF AND PUSH20 0xFFFFFFFFFFFFFFFFFFFFFFFFFFFFFFFFFFFFFFFF AND PUSH4 0x31F652DB DUP5 DUP4 CALLER PUSH1 0x40 MLOAD DUP5 PUSH4 0xFFFFFFFF AND PUSH1 0xE0 SHL DUP2 MSTORE PUSH1 0x4 ADD PUSH2 0x1685 SWAP4 SWAP3 SWAP2 SWAP1 PUSH2 0x3AB1 JUMP JUMPDEST PUSH1 0x0 PUSH1 0x40 MLOAD DUP1 DUP4 SUB DUP2 PUSH1 0x0 DUP8 DUP1 EXTCODESIZE ISZERO DUP1 ISZERO PUSH2 0x169F JUMPI PUSH1 0x0 DUP1 REVERT JUMPDEST POP GAS CALL ISZERO DUP1 ISZERO PUSH2 0x16B3 JUMPI RETURNDATASIZE PUSH1 0x0 DUP1 RETURNDATACOPY RETURNDATASIZE PUSH1 0x0 REVERT JUMPDEST POP POP POP POP JUMPDEST PUSH1 0x1 DUP1 DUP2 GT ISZERO PUSH2 0x16C4 JUMPI INVALID JUMPDEST DUP5 PUSH1 0x1 DUP2 GT ISZERO PUSH2 0x16D0 JUMPI INVALID JUMPDEST EQ ISZERO PUSH2 0x1768 JUMPI PUSH1 0x59 PUSH1 0x0 SWAP1 SLOAD SWAP1 PUSH2 0x100 EXP SWAP1 DIV PUSH20 0xFFFFFFFFFFFFFFFFFFFFFFFFFFFFFFFFFFFFFFFF AND PUSH20 0xFFFFFFFFFFFFFFFFFFFFFFFFFFFFFFFFFFFFFFFF AND PUSH4 0x31F652DB DUP5 DUP4 DUP9 PUSH1 0x40 MLOAD DUP5 PUSH4 0xFFFFFFFF AND PUSH1 0xE0 SHL DUP2 MSTORE PUSH1 0x4 ADD PUSH2 0x1735 SWAP4 SWAP3 SWAP2 SWAP1 PUSH2 0x3A7A JUMP JUMPDEST PUSH1 0x0 PUSH1 0x40 MLOAD DUP1 DUP4 SUB DUP2 PUSH1 0x0 DUP8 DUP1 EXTCODESIZE ISZERO DUP1 ISZERO PUSH2 0x174F JUMPI PUSH1 0x0 DUP1 REVERT JUMPDEST POP GAS CALL ISZERO DUP1 ISZERO PUSH2 0x1763 JUMPI RETURNDATASIZE PUSH1 0x0 DUP1 RETURNDATACOPY RETURNDATASIZE PUSH1 0x0 REVERT JUMPDEST POP POP POP POP JUMPDEST PUSH1 0x0 PUSH1 0x57 PUSH1 0x0 SWAP1 SLOAD SWAP1 PUSH2 0x100 EXP SWAP1 DIV PUSH20 0xFFFFFFFFFFFFFFFFFFFFFFFFFFFFFFFFFFFFFFFF AND PUSH20 0xFFFFFFFFFFFFFFFFFFFFFFFFFFFFFFFFFFFFFFFF AND PUSH4 0x524BC34A DUP8 DUP8 DUP8 DUP8 DUP8 PUSH1 0x40 MLOAD DUP7 PUSH4 0xFFFFFFFF AND PUSH1 0xE0 SHL DUP2 MSTORE PUSH1 0x4 ADD PUSH2 0x17CD SWAP6 SWAP5 SWAP4 SWAP3 SWAP2 SWAP1 PUSH2 0x3936 JUMP JUMPDEST PUSH1 0x20 PUSH1 0x40 MLOAD DUP1 DUP4 SUB DUP2 PUSH1 0x0 DUP8 DUP1 EXTCODESIZE ISZERO DUP1 ISZERO PUSH2 0x17E7 JUMPI PUSH1 0x0 DUP1 REVERT JUMPDEST POP GAS CALL ISZERO DUP1 ISZERO PUSH2 0x17FB JUMPI RETURNDATASIZE PUSH1 0x0 DUP1 RETURNDATACOPY RETURNDATASIZE PUSH1 0x0 REVERT JUMPDEST POP POP POP POP PUSH1 0x40 MLOAD RETURNDATASIZE PUSH1 0x1F NOT PUSH1 0x1F DUP3 ADD AND DUP3 ADD DUP1 PUSH1 0x40 MSTORE POP DUP2 ADD SWAP1 PUSH2 0x181F SWAP2 SWAP1 PUSH2 0x30B1 JUMP JUMPDEST SWAP1 POP PUSH1 0x0 PUSH1 0x55 PUSH1 0x0 DUP9 PUSH20 0xFFFFFFFFFFFFFFFFFFFFFFFFFFFFFFFFFFFFFFFF AND PUSH20 0xFFFFFFFFFFFFFFFFFFFFFFFFFFFFFFFFFFFFFFFF AND DUP2 MSTORE PUSH1 0x20 ADD SWAP1 DUP2 MSTORE PUSH1 0x20 ADD PUSH1 0x0 KECCAK256 SWAP1 POP PUSH2 0x186C PUSH2 0x2674 JUMP JUMPDEST PUSH1 0x40 MLOAD DUP1 PUSH1 0xA0 ADD PUSH1 0x40 MSTORE DUP1 DUP10 PUSH20 0xFFFFFFFFFFFFFFFFFFFFFFFFFFFFFFFFFFFFFFFF AND DUP2 MSTORE PUSH1 0x20 ADD DUP9 PUSH1 0x1 DUP2 GT ISZERO PUSH2 0x189F JUMPI INVALID JUMPDEST DUP2 MSTORE PUSH1 0x20 ADD DUP8 PUSH1 0x2 DUP2 GT ISZERO PUSH2 0x18B0 JUMPI INVALID JUMPDEST DUP2 MSTORE PUSH1 0x20 ADD DUP7 PUSH1 0x5 DUP2 GT ISZERO PUSH2 0x18C1 JUMPI INVALID JUMPDEST DUP2 MSTORE PUSH1 0x20 ADD DUP6 DUP2 MSTORE POP SWAP1 POP PUSH2 0x18D4 PUSH2 0x257C JUMP JUMPDEST PUSH2 0x18F1 DUP3 DUP6 DUP6 PUSH1 0x1 ADD PUSH1 0x0 DUP2 SLOAD DUP1 SWAP3 SWAP2 SWAP1 PUSH1 0x1 ADD SWAP2 SWAP1 POP SSTORE PUSH2 0x21FA JUMP JUMPDEST SWAP1 POP DUP3 PUSH1 0x0 ADD DUP2 SWAP1 DUP1 PUSH1 0x1 DUP2 SLOAD ADD DUP1 DUP3 SSTORE DUP1 SWAP2 POP POP PUSH1 0x1 SWAP1 SUB SWAP1 PUSH1 0x0 MSTORE PUSH1 0x20 PUSH1 0x0 KECCAK256 SWAP1 PUSH1 0x1A MUL ADD PUSH1 0x0 SWAP1 SWAP2 SWAP1 SWAP2 SWAP1 SWAP2 POP PUSH1 0x0 DUP3 ADD MLOAD DUP2 PUSH1 0x0 ADD SSTORE PUSH1 0x20 DUP3 ADD MLOAD DUP2 PUSH1 0x1 ADD PUSH1 0x0 PUSH2 0x100 EXP DUP2 SLOAD DUP2 PUSH20 0xFFFFFFFFFFFFFFFFFFFFFFFFFFFFFFFFFFFFFFFF MUL NOT AND SWAP1 DUP4 PUSH20 0xFFFFFFFFFFFFFFFFFFFFFFFFFFFFFFFFFFFFFFFF AND MUL OR SWAP1 SSTORE POP PUSH1 0x40 DUP3 ADD MLOAD DUP2 PUSH1 0x2 ADD PUSH1 0x0 PUSH2 0x100 EXP DUP2 SLOAD DUP2 PUSH20 0xFFFFFFFFFFFFFFFFFFFFFFFFFFFFFFFFFFFFFFFF MUL NOT AND SWAP1 DUP4 PUSH20 0xFFFFFFFFFFFFFFFFFFFFFFFFFFFFFFFFFFFFFFFF AND MUL OR SWAP1 SSTORE POP PUSH1 0x60 DUP3 ADD MLOAD DUP2 PUSH1 0x2 ADD PUSH1 0x14 PUSH2 0x100 EXP DUP2 SLOAD DUP2 PUSH1 0xFF MUL NOT AND SWAP1 DUP4 PUSH1 0x1 DUP2 GT ISZERO PUSH2 0x19DD JUMPI INVALID JUMPDEST MUL OR SWAP1 SSTORE POP PUSH1 0x80 DUP3 ADD MLOAD DUP2 PUSH1 0x2 ADD PUSH1 0x15 PUSH2 0x100 EXP DUP2 SLOAD DUP2 PUSH1 0xFF MUL NOT AND SWAP1 DUP4 PUSH1 0x2 DUP2 GT ISZERO PUSH2 0x1A06 JUMPI INVALID JUMPDEST MUL OR SWAP1 SSTORE POP PUSH1 0xA0 DUP3 ADD MLOAD DUP2 PUSH1 0x2 ADD PUSH1 0x16 PUSH2 0x100 EXP DUP2 SLOAD DUP2 PUSH1 0xFF MUL NOT AND SWAP1 DUP4 PUSH1 0x5 DUP2 GT ISZERO PUSH2 0x1A2F JUMPI INVALID JUMPDEST MUL OR SWAP1 SSTORE POP PUSH1 0xC0 DUP3 ADD MLOAD DUP2 PUSH1 0x3 ADD SSTORE PUSH1 0xE0 DUP3 ADD MLOAD DUP2 PUSH1 0x4 ADD SSTORE PUSH2 0x100 DUP3 ADD MLOAD DUP2 PUSH1 0x5 ADD SSTORE PUSH2 0x120 DUP3 ADD MLOAD DUP2 PUSH1 0x6 ADD SSTORE PUSH2 0x140 DUP3 ADD MLOAD DUP2 PUSH1 0x7 ADD PUSH1 0x0 DUP3 ADD MLOAD DUP2 PUSH1 0x0 ADD SWAP1 PUSH1 0x5 PUSH2 0x1A7F SWAP3 SWAP2 SWAP1 PUSH2 0x26DA JUMP JUMPDEST POP PUSH1 0x20 DUP3 ADD MLOAD DUP2 PUSH1 0x5 ADD SWAP1 PUSH1 0x5 PUSH2 0x1A97 SWAP3 SWAP2 SWAP1 PUSH2 0x26DA JUMP JUMPDEST POP PUSH1 0x40 DUP3 ADD MLOAD DUP2 PUSH1 0xA ADD SWAP1 PUSH1 0x5 PUSH2 0x1AAF SWAP3 SWAP2 SWAP1 PUSH2 0x26DA JUMP JUMPDEST POP PUSH1 0x60 DUP3 ADD MLOAD DUP2 PUSH1 0xF ADD SWAP1 PUSH1 0x5 PUSH2 0x1AC7 SWAP3 SWAP2 SWAP1 PUSH2 0x271A JUMP JUMPDEST POP POP POP PUSH2 0x160 DUP3 ADD MLOAD DUP2 PUSH1 0x17 ADD SSTORE PUSH2 0x180 DUP3 ADD MLOAD DUP2 PUSH1 0x18 ADD SSTORE PUSH2 0x1A0 DUP3 ADD MLOAD DUP2 PUSH1 0x19 ADD PUSH1 0x0 PUSH2 0x100 EXP DUP2 SLOAD DUP2 PUSH1 0xFF MUL NOT AND SWAP1 DUP4 ISZERO ISZERO MUL OR SWAP1 SSTORE POP PUSH2 0x1C0 DUP3 ADD MLOAD DUP2 PUSH1 0x19 ADD PUSH1 0x1 PUSH2 0x100 EXP DUP2 SLOAD DUP2 PUSH1 0xFF MUL NOT AND SWAP1 DUP4 PUSH1 0x5 DUP2 GT ISZERO PUSH2 0x1B26 JUMPI INVALID JUMPDEST MUL OR SWAP1 SSTORE POP POP POP PUSH1 0x1 DUP4 PUSH1 0x2 ADD PUSH1 0x0 PUSH2 0x100 EXP DUP2 SLOAD DUP2 PUSH1 0xFF MUL NOT AND SWAP1 DUP4 ISZERO ISZERO MUL OR SWAP1 SSTORE POP PUSH1 0x56 CALLER SWAP1 DUP1 PUSH1 0x1 DUP2 SLOAD ADD DUP1 DUP3 SSTORE DUP1 SWAP2 POP POP PUSH1 0x1 SWAP1 SUB SWAP1 PUSH1 0x0 MSTORE PUSH1 0x20 PUSH1 0x0 KECCAK256 ADD PUSH1 0x0 SWAP1 SWAP2 SWAP1 SWAP2 SWAP1 SWAP2 PUSH2 0x100 EXP DUP2 SLOAD DUP2 PUSH20 0xFFFFFFFFFFFFFFFFFFFFFFFFFFFFFFFFFFFFFFFF MUL NOT AND SWAP1 DUP4 PUSH20 0xFFFFFFFFFFFFFFFFFFFFFFFFFFFFFFFFFFFFFFFF AND MUL OR SWAP1 SSTORE POP PUSH32 0x787A470148C364FF9C70E82B2C6C1B0BECBCA7969011737F1F93CE9307B424E9 DUP10 DUP10 DUP10 DUP10 DUP10 DUP7 PUSH1 0x0 ADD MLOAD PUSH1 0x40 MLOAD PUSH2 0x1BEA SWAP7 SWAP6 SWAP5 SWAP4 SWAP3 SWAP2 SWAP1 PUSH2 0x3989 JUMP JUMPDEST PUSH1 0x40 MLOAD DUP1 SWAP2 SUB SWAP1 LOG1 POP POP POP POP POP POP POP POP POP JUMP JUMPDEST PUSH1 0x0 PUSH1 0x55 PUSH1 0x0 DUP10 PUSH20 0xFFFFFFFFFFFFFFFFFFFFFFFFFFFFFFFFFFFFFFFF AND PUSH20 0xFFFFFFFFFFFFFFFFFFFFFFFFFFFFFFFFFFFFFFFF AND DUP2 MSTORE PUSH1 0x20 ADD SWAP1 DUP2 MSTORE PUSH1 0x20 ADD PUSH1 0x0 KECCAK256 SWAP1 POP PUSH1 0x0 DUP2 PUSH1 0x0 ADD DUP4 DUP2 SLOAD DUP2 LT PUSH2 0x1C51 JUMPI INVALID JUMPDEST SWAP1 PUSH1 0x0 MSTORE PUSH1 0x20 PUSH1 0x0 KECCAK256 SWAP1 PUSH1 0x1A MUL ADD SWAP1 POP DUP1 PUSH1 0x3 ADD SLOAD DUP5 EQ PUSH2 0x1CA7 JUMPI PUSH1 0x40 MLOAD PUSH32 0x8C379A000000000000000000000000000000000000000000000000000000000 DUP2 MSTORE PUSH1 0x4 ADD PUSH2 0x1C9E SWAP1 PUSH2 0x3B96 JUMP JUMPDEST PUSH1 0x40 MLOAD DUP1 SWAP2 SUB SWAP1 REVERT JUMPDEST PUSH1 0x0 PUSH1 0x1 DUP2 GT ISZERO PUSH2 0x1CB4 JUMPI INVALID JUMPDEST DUP8 PUSH1 0x1 DUP2 GT ISZERO PUSH2 0x1CC0 JUMPI INVALID JUMPDEST EQ ISZERO PUSH2 0x1D44 JUMPI DUP8 PUSH20 0xFFFFFFFFFFFFFFFFFFFFFFFFFFFFFFFFFFFFFFFF AND CALLER PUSH20 0xFFFFFFFFFFFFFFFFFFFFFFFFFFFFFFFFFFFFFFFF AND EQ PUSH2 0x1D34 JUMPI PUSH1 0x40 MLOAD PUSH32 0x8C379A000000000000000000000000000000000000000000000000000000000 DUP2 MSTORE PUSH1 0x4 ADD PUSH2 0x1D2B SWAP1 PUSH2 0x3BB6 JUMP JUMPDEST PUSH1 0x40 MLOAD DUP1 SWAP2 SUB SWAP1 REVERT JUMPDEST PUSH2 0x1D3F DUP10 DUP10 DUP6 PUSH2 0x74C JUMP JUMPDEST PUSH2 0x1DBE JUMP JUMPDEST DUP9 PUSH20 0xFFFFFFFFFFFFFFFFFFFFFFFFFFFFFFFFFFFFFFFF AND CALLER PUSH20 0xFFFFFFFFFFFFFFFFFFFFFFFFFFFFFFFFFFFFFFFF AND EQ PUSH2 0x1DB2 JUMPI PUSH1 0x40 MLOAD PUSH32 0x8C379A000000000000000000000000000000000000000000000000000000000 DUP2 MSTORE PUSH1 0x4 ADD PUSH2 0x1DA9 SWAP1 PUSH2 0x3BD6 JUMP JUMPDEST PUSH1 0x40 MLOAD DUP1 SWAP2 SUB SWAP1 REVERT JUMPDEST PUSH2 0x1DBD DUP10 DUP10 DUP6 PUSH2 0x74C JUMP JUMPDEST JUMPDEST DUP8 PUSH20 0xFFFFFFFFFFFFFFFFFFFFFFFFFFFFFFFFFFFFFFFF AND DUP10 PUSH20 0xFFFFFFFFFFFFFFFFFFFFFFFFFFFFFFFFFFFFFFFF AND PUSH32 0x52F2CBDDB551A0CD4AD65095542B2EFD13CD261642F4034C3B0C01B232C2591D DUP10 DUP10 DUP10 DUP10 DUP10 PUSH1 0x40 MLOAD PUSH2 0x1E23 SWAP6 SWAP5 SWAP4 SWAP3 SWAP2 SWAP1 PUSH2 0x3AE8 JUMP JUMPDEST PUSH1 0x40 MLOAD DUP1 SWAP2 SUB SWAP1 LOG3 POP POP POP POP POP POP POP POP POP JUMP JUMPDEST JUMP JUMPDEST PUSH1 0x0 JUMPDEST PUSH1 0x56 DUP1 SLOAD SWAP1 POP DUP2 LT ISZERO PUSH2 0x1F12 JUMPI PUSH1 0x0 PUSH1 0x55 PUSH1 0x0 PUSH1 0x56 DUP5 DUP2 SLOAD DUP2 LT PUSH2 0x1E5B JUMPI INVALID JUMPDEST SWAP1 PUSH1 0x0 MSTORE PUSH1 0x20 PUSH1 0x0 KECCAK256 ADD PUSH1 0x0 SWAP1 SLOAD SWAP1 PUSH2 0x100 EXP SWAP1 DIV PUSH20 0xFFFFFFFFFFFFFFFFFFFFFFFFFFFFFFFFFFFFFFFF AND PUSH20 0xFFFFFFFFFFFFFFFFFFFFFFFFFFFFFFFFFFFFFFFF AND PUSH20 0xFFFFFFFFFFFFFFFFFFFFFFFFFFFFFFFFFFFFFFFF AND DUP2 MSTORE PUSH1 0x20 ADD SWAP1 DUP2 MSTORE PUSH1 0x20 ADD PUSH1 0x0 KECCAK256 PUSH1 0x0 ADD SWAP1 POP PUSH1 0x0 JUMPDEST DUP2 DUP1 SLOAD SWAP1 POP DUP2 LT ISZERO PUSH2 0x1F03 JUMPI PUSH2 0x1EF6 DUP3 DUP3 DUP2 SLOAD DUP2 LT PUSH2 0x1EE3 JUMPI INVALID JUMPDEST SWAP1 PUSH1 0x0 MSTORE PUSH1 0x20 PUSH1 0x0 KECCAK256 SWAP1 PUSH1 0x1A MUL ADD PUSH2 0x1FA3 JUMP JUMPDEST DUP1 DUP1 PUSH1 0x1 ADD SWAP2 POP POP PUSH2 0x1EC8 JUMP JUMPDEST POP POP DUP1 DUP1 PUSH1 0x1 ADD SWAP2 POP POP PUSH2 0x1E3B JUMP JUMPDEST POP JUMP JUMPDEST PUSH1 0x60 PUSH1 0x56 DUP1 SLOAD DUP1 PUSH1 0x20 MUL PUSH1 0x20 ADD PUSH1 0x40 MLOAD SWAP1 DUP2 ADD PUSH1 0x40 MSTORE DUP1 SWAP3 SWAP2 SWAP1 DUP2 DUP2 MSTORE PUSH1 0x20 ADD DUP3 DUP1 SLOAD DUP1 ISZERO PUSH2 0x1F99 JUMPI PUSH1 0x20 MUL DUP3 ADD SWAP2 SWAP1 PUSH1 0x0 MSTORE PUSH1 0x20 PUSH1 0x0 KECCAK256 SWAP1 JUMPDEST DUP2 PUSH1 0x0 SWAP1 SLOAD SWAP1 PUSH2 0x100 EXP SWAP1 DIV PUSH20 0xFFFFFFFFFFFFFFFFFFFFFFFFFFFFFFFFFFFFFFFF AND PUSH20 0xFFFFFFFFFFFFFFFFFFFFFFFFFFFFFFFFFFFFFFFF AND DUP2 MSTORE PUSH1 0x20 ADD SWAP1 PUSH1 0x1 ADD SWAP1 DUP1 DUP4 GT PUSH2 0x1F4F JUMPI JUMPDEST POP POP POP POP POP SWAP1 POP SWAP1 JUMP JUMPDEST PUSH2 0x1FAB PUSH2 0x27B3 JUMP JUMPDEST PUSH1 0x57 PUSH1 0x0 SWAP1 SLOAD SWAP1 PUSH2 0x100 EXP SWAP1 DIV PUSH20 0xFFFFFFFFFFFFFFFFFFFFFFFFFFFFFFFFFFFFFFFF AND PUSH20 0xFFFFFFFFFFFFFFFFFFFFFFFFFFFFFFFFFFFFFFFF AND PUSH4 0x69FA00C PUSH1 0x40 MLOAD DUP2 PUSH4 0xFFFFFFFF AND PUSH1 0xE0 SHL DUP2 MSTORE PUSH1 0x4 ADD PUSH2 0x2A0 PUSH1 0x40 MLOAD DUP1 DUP4 SUB DUP2 DUP7 DUP1 EXTCODESIZE ISZERO DUP1 ISZERO PUSH2 0x2014 JUMPI PUSH1 0x0 DUP1 REVERT JUMPDEST POP GAS STATICCALL ISZERO DUP1 ISZERO PUSH2 0x2028 JUMPI RETURNDATASIZE PUSH1 0x0 DUP1 RETURNDATACOPY RETURNDATASIZE PUSH1 0x0 REVERT JUMPDEST POP POP POP POP PUSH1 0x40 MLOAD RETURNDATASIZE PUSH1 0x1F NOT PUSH1 0x1F DUP3 ADD AND DUP3 ADD DUP1 PUSH1 0x40 MSTORE POP DUP2 ADD SWAP1 PUSH2 0x204C SWAP2 SWAP1 PUSH2 0x2F52 JUMP JUMPDEST SWAP1 POP PUSH2 0x2056 PUSH2 0x27E0 JUMP JUMPDEST DUP2 DUP4 PUSH1 0x2 ADD PUSH1 0x15 SWAP1 SLOAD SWAP1 PUSH2 0x100 EXP SWAP1 DIV PUSH1 0xFF AND PUSH1 0x2 DUP2 GT ISZERO PUSH2 0x2074 JUMPI INVALID JUMPDEST PUSH1 0x3 DUP2 LT PUSH2 0x207E JUMPI INVALID JUMPDEST PUSH1 0x20 MUL ADD MLOAD SWAP1 POP PUSH2 0x208D PUSH2 0x281D JUMP JUMPDEST PUSH1 0x40 MLOAD DUP1 PUSH1 0xE0 ADD PUSH1 0x40 MSTORE DUP1 DUP4 PUSH1 0x0 ADD MLOAD DUP2 MSTORE PUSH1 0x20 ADD DUP4 PUSH1 0x20 ADD MLOAD DUP2 MSTORE PUSH1 0x20 ADD DUP4 PUSH1 0x40 ADD MLOAD DUP2 MSTORE PUSH1 0x20 ADD DUP4 PUSH1 0x60 ADD MLOAD DUP2 MSTORE PUSH1 0x20 ADD DUP4 PUSH1 0x80 ADD MLOAD DUP2 MSTORE PUSH1 0x20 ADD DUP4 PUSH1 0xA0 ADD MLOAD DUP2 MSTORE PUSH1 0x20 ADD DUP4 PUSH1 0xC0 ADD MLOAD DUP2 MSTORE POP SWAP1 POP PUSH2 0x20E6 PUSH2 0x2652 JUMP JUMPDEST PUSH1 0x0 DUP1 JUMPDEST PUSH1 0x48 DUP8 PUSH1 0x2 ADD PUSH1 0x16 SWAP1 SLOAD SWAP1 PUSH2 0x100 EXP SWAP1 DIV PUSH1 0xFF AND PUSH1 0x5 DUP2 GT ISZERO PUSH2 0x2109 JUMPI INVALID JUMPDEST PUSH1 0x6 DUP2 LT PUSH2 0x2113 JUMPI INVALID JUMPDEST ADD SLOAD DUP2 LT ISZERO PUSH2 0x2186 JUMPI PUSH1 0x0 PUSH2 0x213B DUP6 DUP10 PUSH1 0x7 ADD PUSH1 0x5 ADD DUP5 PUSH1 0x5 DUP2 LT PUSH2 0x2134 JUMPI INVALID JUMPDEST ADD SLOAD PUSH2 0x240B JUMP JUMPDEST SWAP1 POP DUP1 DUP5 DUP4 PUSH1 0x5 DUP2 LT PUSH2 0x214A JUMPI INVALID JUMPDEST PUSH1 0x20 MUL ADD DUP2 DUP2 MSTORE POP POP PUSH2 0x2710 DUP2 DUP10 PUSH1 0x7 ADD PUSH1 0xA ADD DUP5 PUSH1 0x5 DUP2 LT PUSH2 0x2169 JUMPI INVALID JUMPDEST ADD SLOAD MUL DUP2 PUSH2 0x2173 JUMPI INVALID JUMPDEST DIV DUP4 ADD SWAP3 POP POP DUP1 DUP1 PUSH1 0x1 ADD SWAP2 POP POP PUSH2 0x20EA JUMP JUMPDEST POP PUSH1 0x0 PUSH1 0x1 PUSH1 0x48 DUP9 PUSH1 0x2 ADD PUSH1 0x16 SWAP1 SLOAD SWAP1 PUSH2 0x100 EXP SWAP1 DIV PUSH1 0xFF AND PUSH1 0x5 DUP2 GT ISZERO PUSH2 0x21AA JUMPI INVALID JUMPDEST PUSH1 0x6 DUP2 LT PUSH2 0x21B4 JUMPI INVALID JUMPDEST ADD SLOAD SUB SWAP1 POP PUSH2 0x2710 DUP4 DUP3 PUSH1 0x5 DUP2 LT PUSH2 0x21C8 JUMPI INVALID JUMPDEST PUSH1 0x20 MUL ADD MLOAD DUP9 PUSH1 0x3 ADD SLOAD MUL DUP2 PUSH2 0x21DA JUMPI INVALID JUMPDEST DIV DUP3 ADD SWAP2 POP DUP2 DUP8 PUSH1 0x17 ADD DUP2 SWAP1 SSTORE POP TIMESTAMP DUP8 PUSH1 0x18 ADD DUP2 SWAP1 SSTORE POP POP POP POP POP POP POP POP JUMP JUMPDEST PUSH2 0x2202 PUSH2 0x257C JUMP JUMPDEST PUSH2 0x220A PUSH2 0x257C JUMP JUMPDEST DUP3 DUP2 PUSH1 0x0 ADD DUP2 DUP2 MSTORE POP POP PUSH1 0x0 PUSH1 0x1 DUP2 GT ISZERO PUSH2 0x2221 JUMPI INVALID JUMPDEST DUP6 PUSH1 0x20 ADD MLOAD PUSH1 0x1 DUP2 GT ISZERO PUSH2 0x2231 JUMPI INVALID JUMPDEST EQ PUSH2 0x223C JUMPI CALLER PUSH2 0x2242 JUMP JUMPDEST DUP5 PUSH1 0x0 ADD MLOAD JUMPDEST DUP2 PUSH1 0x20 ADD SWAP1 PUSH20 0xFFFFFFFFFFFFFFFFFFFFFFFFFFFFFFFFFFFFFFFF AND SWAP1 DUP2 PUSH20 0xFFFFFFFFFFFFFFFFFFFFFFFFFFFFFFFFFFFFFFFF AND DUP2 MSTORE POP POP PUSH1 0x1 DUP1 DUP2 GT ISZERO PUSH2 0x2285 JUMPI INVALID JUMPDEST DUP6 PUSH1 0x20 ADD MLOAD PUSH1 0x1 DUP2 GT ISZERO PUSH2 0x2295 JUMPI INVALID JUMPDEST EQ PUSH2 0x22A0 JUMPI CALLER PUSH2 0x22A6 JUMP JUMPDEST DUP5 PUSH1 0x0 ADD MLOAD JUMPDEST DUP2 PUSH1 0x40 ADD SWAP1 PUSH20 0xFFFFFFFFFFFFFFFFFFFFFFFFFFFFFFFFFFFFFFFF AND SWAP1 DUP2 PUSH20 0xFFFFFFFFFFFFFFFFFFFFFFFFFFFFFFFFFFFFFFFF AND DUP2 MSTORE POP POP DUP5 PUSH1 0x20 ADD MLOAD DUP2 PUSH1 0x60 ADD SWAP1 PUSH1 0x1 DUP2 GT ISZERO PUSH2 0x22F2 JUMPI INVALID JUMPDEST SWAP1 DUP2 PUSH1 0x1 DUP2 GT ISZERO PUSH2 0x22FF JUMPI INVALID JUMPDEST DUP2 MSTORE POP POP DUP5 PUSH1 0x40 ADD MLOAD DUP2 PUSH1 0x80 ADD SWAP1 PUSH1 0x2 DUP2 GT ISZERO PUSH2 0x2318 JUMPI INVALID JUMPDEST SWAP1 DUP2 PUSH1 0x2 DUP2 GT ISZERO PUSH2 0x2325 JUMPI INVALID JUMPDEST DUP2 MSTORE POP POP DUP5 PUSH1 0x60 ADD MLOAD DUP2 PUSH1 0xA0 ADD SWAP1 PUSH1 0x5 DUP2 GT ISZERO PUSH2 0x233E JUMPI INVALID JUMPDEST SWAP1 DUP2 PUSH1 0x5 DUP2 GT ISZERO PUSH2 0x234B JUMPI INVALID JUMPDEST DUP2 MSTORE POP POP DUP5 PUSH1 0x80 ADD MLOAD DUP2 PUSH1 0xC0 ADD DUP2 DUP2 MSTORE POP POP DUP4 DUP2 PUSH1 0xE0 ADD DUP2 DUP2 MSTORE POP POP TIMESTAMP DUP2 PUSH2 0x100 ADD DUP2 DUP2 MSTORE POP POP PUSH1 0x0 DUP6 PUSH1 0x60 ADD MLOAD PUSH1 0x5 DUP2 GT ISZERO PUSH2 0x2384 JUMPI INVALID JUMPDEST PUSH1 0x6 DUP2 LT PUSH2 0x238E JUMPI INVALID JUMPDEST ADD SLOAD TIMESTAMP ADD DUP2 PUSH2 0x120 ADD DUP2 DUP2 MSTORE POP POP PUSH2 0x23B0 DUP2 DUP7 PUSH1 0x60 ADD MLOAD DUP8 PUSH1 0x80 ADD MLOAD DUP8 PUSH2 0x135B JUMP JUMPDEST DUP5 PUSH1 0x80 ADD MLOAD DUP2 PUSH2 0x160 ADD DUP2 DUP2 MSTORE POP POP TIMESTAMP DUP2 PUSH2 0x180 ADD DUP2 DUP2 MSTORE POP POP PUSH1 0x1 DUP2 PUSH2 0x1A0 ADD SWAP1 ISZERO ISZERO SWAP1 DUP2 ISZERO ISZERO DUP2 MSTORE POP POP PUSH1 0x0 DUP2 PUSH2 0x1C0 ADD SWAP1 PUSH1 0x5 DUP2 GT ISZERO PUSH2 0x23EF JUMPI INVALID JUMPDEST SWAP1 DUP2 PUSH1 0x5 DUP2 GT ISZERO PUSH2 0x23FC JUMPI INVALID JUMPDEST DUP2 MSTORE POP POP DUP1 SWAP2 POP POP SWAP4 SWAP3 POP POP POP JUMP JUMPDEST PUSH1 0x0 TIMESTAMP DUP3 GT PUSH2 0x241D JUMPI PUSH1 0x0 SWAP1 POP PUSH2 0x2553 JUMP JUMPDEST PUSH1 0x0 TIMESTAMP DUP4 SUB SWAP1 POP PUSH1 0x4E PUSH1 0x0 PUSH1 0x7 DUP2 LT PUSH2 0x2432 JUMPI INVALID JUMPDEST ADD SLOAD DUP2 GT PUSH2 0x246E JUMPI PUSH1 0x4E PUSH1 0x0 PUSH1 0x7 DUP2 LT PUSH2 0x2448 JUMPI INVALID JUMPDEST ADD SLOAD DUP2 DUP6 PUSH1 0x0 PUSH1 0x7 DUP2 LT PUSH2 0x2458 JUMPI INVALID JUMPDEST PUSH1 0x20 MUL ADD MLOAD MUL DUP2 PUSH2 0x2465 JUMPI INVALID JUMPDEST DIV SWAP2 POP POP PUSH2 0x2553 JUMP JUMPDEST PUSH1 0x0 PUSH1 0x1 SWAP1 POP JUMPDEST PUSH1 0x7 DUP2 LT ISZERO PUSH2 0x2550 JUMPI DUP2 PUSH1 0x4E PUSH1 0x1 DUP4 SUB PUSH1 0x7 DUP2 LT PUSH2 0x248F JUMPI INVALID JUMPDEST ADD SLOAD LT DUP1 ISZERO PUSH2 0x24AC JUMPI POP PUSH1 0x4E DUP2 PUSH1 0x7 DUP2 LT PUSH2 0x24A6 JUMPI INVALID JUMPDEST ADD SLOAD DUP3 GT ISZERO JUMPDEST ISZERO PUSH2 0x2543 JUMPI PUSH1 0x0 PUSH1 0x4E PUSH1 0x1 DUP4 SUB PUSH1 0x7 DUP2 LT PUSH2 0x24C3 JUMPI INVALID JUMPDEST ADD SLOAD DUP4 SUB SWAP1 POP PUSH1 0x0 DUP4 PUSH1 0x4E DUP5 PUSH1 0x7 DUP2 LT PUSH2 0x24D9 JUMPI INVALID JUMPDEST ADD SLOAD SUB SWAP1 POP PUSH1 0x0 PUSH1 0x4E PUSH1 0x1 DUP6 SUB PUSH1 0x7 DUP2 LT PUSH2 0x24F0 JUMPI INVALID JUMPDEST ADD SLOAD PUSH1 0x4E DUP6 PUSH1 0x7 DUP2 LT PUSH2 0x24FF JUMPI INVALID JUMPDEST ADD SLOAD SUB SWAP1 POP DUP1 DUP4 DUP10 DUP7 PUSH1 0x7 DUP2 LT PUSH2 0x2512 JUMPI INVALID JUMPDEST PUSH1 0x20 MUL ADD MLOAD MUL DUP4 DUP11 PUSH1 0x1 DUP9 SUB PUSH1 0x7 DUP2 LT PUSH2 0x2528 JUMPI INVALID JUMPDEST PUSH1 0x20 MUL ADD MLOAD MUL ADD DUP2 PUSH2 0x2536 JUMPI INVALID JUMPDEST DIV SWAP6 POP POP POP POP POP POP PUSH2 0x2553 JUMP JUMPDEST DUP1 DUP1 PUSH1 0x1 ADD SWAP2 POP POP PUSH2 0x2475 JUMP JUMPDEST POP POP JUMPDEST SWAP3 SWAP2 POP POP JUMP JUMPDEST PUSH1 0x40 MLOAD DUP1 PUSH1 0x60 ADD PUSH1 0x40 MSTORE DUP1 PUSH1 0x60 DUP2 MSTORE PUSH1 0x20 ADD PUSH1 0x0 DUP2 MSTORE PUSH1 0x20 ADD PUSH1 0x0 ISZERO ISZERO DUP2 MSTORE POP SWAP1 JUMP JUMPDEST PUSH1 0x40 MLOAD DUP1 PUSH2 0x1E0 ADD PUSH1 0x40 MSTORE DUP1 PUSH1 0x0 DUP2 MSTORE PUSH1 0x20 ADD PUSH1 0x0 PUSH20 0xFFFFFFFFFFFFFFFFFFFFFFFFFFFFFFFFFFFFFFFF AND DUP2 MSTORE PUSH1 0x20 ADD PUSH1 0x0 PUSH20 0xFFFFFFFFFFFFFFFFFFFFFFFFFFFFFFFFFFFFFFFF AND DUP2 MSTORE PUSH1 0x20 ADD PUSH1 0x0 PUSH1 0x1 DUP2 GT ISZERO PUSH2 0x25D6 JUMPI INVALID JUMPDEST DUP2 MSTORE PUSH1 0x20 ADD PUSH1 0x0 PUSH1 0x2 DUP2 GT ISZERO PUSH2 0x25E8 JUMPI INVALID JUMPDEST DUP2 MSTORE PUSH1 0x20 ADD PUSH1 0x0 PUSH1 0x5 DUP2 GT ISZERO PUSH2 0x25FA JUMPI INVALID JUMPDEST DUP2 MSTORE PUSH1 0x20 ADD PUSH1 0x0 DUP2 MSTORE PUSH1 0x20 ADD PUSH1 0x0 DUP2 MSTORE PUSH1 0x20 ADD PUSH1 0x0 DUP2 MSTORE PUSH1 0x20 ADD PUSH1 0x0 DUP2 MSTORE PUSH1 0x20 ADD PUSH2 0x2623 PUSH2 0x283F JUMP JUMPDEST DUP2 MSTORE PUSH1 0x20 ADD PUSH1 0x0 DUP2 MSTORE PUSH1 0x20 ADD PUSH1 0x0 DUP2 MSTORE PUSH1 0x20 ADD PUSH1 0x0 ISZERO ISZERO DUP2 MSTORE PUSH1 0x20 ADD PUSH1 0x0 PUSH1 0x5 DUP2 GT ISZERO PUSH2 0x264C JUMPI INVALID JUMPDEST DUP2 MSTORE POP SWAP1 JUMP JUMPDEST PUSH1 0x40 MLOAD DUP1 PUSH1 0xA0 ADD PUSH1 0x40 MSTORE DUP1 PUSH1 0x5 SWAP1 PUSH1 0x20 DUP3 MUL DUP1 CALLDATASIZE DUP4 CALLDATACOPY DUP1 DUP3 ADD SWAP2 POP POP SWAP1 POP POP SWAP1 JUMP JUMPDEST PUSH1 0x40 MLOAD DUP1 PUSH1 0xA0 ADD PUSH1 0x40 MSTORE DUP1 PUSH1 0x0 PUSH20 0xFFFFFFFFFFFFFFFFFFFFFFFFFFFFFFFFFFFFFFFF AND DUP2 MSTORE PUSH1 0x20 ADD PUSH1 0x0 PUSH1 0x1 DUP2 GT ISZERO PUSH2 0x26A9 JUMPI INVALID JUMPDEST DUP2 MSTORE PUSH1 0x20 ADD PUSH1 0x0 PUSH1 0x2 DUP2 GT ISZERO PUSH2 0x26BB JUMPI INVALID JUMPDEST DUP2 MSTORE PUSH1 0x20 ADD PUSH1 0x0 PUSH1 0x5 DUP2 GT ISZERO PUSH2 0x26CD JUMPI INVALID JUMPDEST DUP2 MSTORE PUSH1 0x20 ADD PUSH1 0x0 DUP2 MSTORE POP SWAP1 JUMP JUMPDEST DUP3 PUSH1 0x5 DUP2 ADD SWAP3 DUP3 ISZERO PUSH2 0x2709 JUMPI SWAP2 PUSH1 0x20 MUL DUP3 ADD JUMPDEST DUP3 DUP2 GT ISZERO PUSH2 0x2708 JUMPI DUP3 MLOAD DUP3 SSTORE SWAP2 PUSH1 0x20 ADD SWAP2 SWAP1 PUSH1 0x1 ADD SWAP1 PUSH2 0x26ED JUMP JUMPDEST JUMPDEST POP SWAP1 POP PUSH2 0x2716 SWAP2 SWAP1 PUSH2 0x287F JUMP JUMPDEST POP SWAP1 JUMP JUMPDEST DUP3 PUSH1 0x5 PUSH1 0x1F ADD PUSH1 0x20 SWAP1 DIV DUP2 ADD SWAP3 DUP3 ISZERO PUSH2 0x27A2 JUMPI SWAP2 PUSH1 0x20 MUL DUP3 ADD PUSH1 0x0 JUMPDEST DUP4 DUP3 GT ISZERO PUSH2 0x2773 JUMPI DUP4 MLOAD DUP4 DUP3 PUSH2 0x100 EXP DUP2 SLOAD DUP2 PUSH1 0xFF MUL NOT AND SWAP1 DUP4 ISZERO ISZERO MUL OR SWAP1 SSTORE POP SWAP3 PUSH1 0x20 ADD SWAP3 PUSH1 0x1 ADD PUSH1 0x20 DUP2 PUSH1 0x0 ADD DIV SWAP3 DUP4 ADD SWAP3 PUSH1 0x1 SUB MUL PUSH2 0x2736 JUMP JUMPDEST DUP1 ISZERO PUSH2 0x27A0 JUMPI DUP3 DUP2 PUSH2 0x100 EXP DUP2 SLOAD SWAP1 PUSH1 0xFF MUL NOT AND SWAP1 SSTORE PUSH1 0x1 ADD PUSH1 0x20 DUP2 PUSH1 0x0 ADD DIV SWAP3 DUP4 ADD SWAP3 PUSH1 0x1 SUB MUL PUSH2 0x2773 JUMP JUMPDEST POP JUMPDEST POP SWAP1 POP PUSH2 0x27AF SWAP2 SWAP1 PUSH2 0x289C JUMP JUMPDEST POP SWAP1 JUMP JUMPDEST PUSH1 0x40 MLOAD DUP1 PUSH1 0x60 ADD PUSH1 0x40 MSTORE DUP1 PUSH1 0x3 SWAP1 JUMPDEST PUSH2 0x27CA PUSH2 0x27E0 JUMP JUMPDEST DUP2 MSTORE PUSH1 0x20 ADD SWAP1 PUSH1 0x1 SWAP1 SUB SWAP1 DUP2 PUSH2 0x27C2 JUMPI SWAP1 POP POP SWAP1 JUMP JUMPDEST PUSH1 0x40 MLOAD DUP1 PUSH1 0xE0 ADD PUSH1 0x40 MSTORE DUP1 PUSH1 0x0 DUP2 MSTORE PUSH1 0x20 ADD PUSH1 0x0 DUP2 MSTORE PUSH1 0x20 ADD PUSH1 0x0 DUP2 MSTORE PUSH1 0x20 ADD PUSH1 0x0 DUP2 MSTORE PUSH1 0x20 ADD PUSH1 0x0 DUP2 MSTORE PUSH1 0x20 ADD PUSH1 0x0 DUP2 MSTORE PUSH1 0x20 ADD PUSH1 0x0 DUP2 MSTORE POP SWAP1 JUMP JUMPDEST PUSH1 0x40 MLOAD DUP1 PUSH1 0xE0 ADD PUSH1 0x40 MSTORE DUP1 PUSH1 0x7 SWAP1 PUSH1 0x20 DUP3 MUL DUP1 CALLDATASIZE DUP4 CALLDATACOPY DUP1 DUP3 ADD SWAP2 POP POP SWAP1 POP POP SWAP1 JUMP JUMPDEST PUSH1 0x40 MLOAD DUP1 PUSH1 0x80 ADD PUSH1 0x40 MSTORE DUP1 PUSH2 0x2852 PUSH2 0x2652 JUMP JUMPDEST DUP2 MSTORE PUSH1 0x20 ADD PUSH2 0x285F PUSH2 0x2652 JUMP JUMPDEST DUP2 MSTORE PUSH1 0x20 ADD PUSH2 0x286C PUSH2 0x2652 JUMP JUMPDEST DUP2 MSTORE PUSH1 0x20 ADD PUSH2 0x2879 PUSH2 0x28C4 JUMP JUMPDEST DUP2 MSTORE POP SWAP1 JUMP JUMPDEST JUMPDEST DUP1 DUP3 GT ISZERO PUSH2 0x2898 JUMPI PUSH1 0x0 DUP2 PUSH1 0x0 SWAP1 SSTORE POP PUSH1 0x1 ADD PUSH2 0x2880 JUMP JUMPDEST POP SWAP1 JUMP JUMPDEST JUMPDEST DUP1 DUP3 GT ISZERO PUSH2 0x28C0 JUMPI PUSH1 0x0 DUP2 DUP2 PUSH2 0x100 EXP DUP2 SLOAD SWAP1 PUSH1 0xFF MUL NOT AND SWAP1 SSTORE POP PUSH1 0x1 ADD PUSH2 0x289D JUMP JUMPDEST POP SWAP1 JUMP JUMPDEST PUSH1 0x40 MLOAD DUP1 PUSH1 0xA0 ADD PUSH1 0x40 MSTORE DUP1 PUSH1 0x5 SWAP1 PUSH1 0x20 DUP3 MUL DUP1 CALLDATASIZE DUP4 CALLDATACOPY DUP1 DUP3 ADD SWAP2 POP POP SWAP1 POP POP SWAP1 JUMP JUMPDEST PUSH1 0x0 DUP2 CALLDATALOAD SWAP1 POP PUSH2 0x28F5 DUP2 PUSH2 0x3FCD JUMP JUMPDEST SWAP3 SWAP2 POP POP JUMP JUMPDEST PUSH1 0x0 DUP3 PUSH1 0x1F DUP4 ADD SLT PUSH2 0x290C JUMPI PUSH1 0x0 DUP1 REVERT JUMPDEST PUSH1 0x5 PUSH2 0x291F PUSH2 0x291A DUP3 PUSH2 0x3C81 JUMP JUMPDEST PUSH2 0x3C54 JUMP JUMPDEST SWAP2 POP DUP2 DUP4 DUP6 PUSH1 0x20 DUP5 MUL DUP3 ADD GT ISZERO PUSH2 0x2935 JUMPI PUSH1 0x0 DUP1 REVERT JUMPDEST PUSH1 0x0 JUMPDEST DUP4 DUP2 LT ISZERO PUSH2 0x2965 JUMPI DUP2 PUSH2 0x294B DUP9 DUP3 PUSH2 0x2A57 JUMP JUMPDEST DUP5 MSTORE PUSH1 0x20 DUP5 ADD SWAP4 POP PUSH1 0x20 DUP4 ADD SWAP3 POP POP PUSH1 0x1 DUP2 ADD SWAP1 POP PUSH2 0x2938 JUMP JUMPDEST POP POP POP POP SWAP3 SWAP2 POP POP JUMP JUMPDEST PUSH1 0x0 DUP3 PUSH1 0x1F DUP4 ADD SLT PUSH2 0x2980 JUMPI PUSH1 0x0 DUP1 REVERT JUMPDEST PUSH1 0x3 PUSH2 0x2993 PUSH2 0x298E DUP3 PUSH2 0x3CA3 JUMP JUMPDEST PUSH2 0x3C54 JUMP JUMPDEST SWAP2 POP DUP2 DUP4 DUP6 PUSH1 0xE0 DUP5 MUL DUP3 ADD GT ISZERO PUSH2 0x29A9 JUMPI PUSH1 0x0 DUP1 REVERT JUMPDEST PUSH1 0x0 JUMPDEST DUP4 DUP2 LT ISZERO PUSH2 0x29D9 JUMPI DUP2 PUSH2 0x29BF DUP9 DUP3 PUSH2 0x2B14 JUMP JUMPDEST DUP5 MSTORE PUSH1 0x20 DUP5 ADD SWAP4 POP PUSH1 0xE0 DUP4 ADD SWAP3 POP POP PUSH1 0x1 DUP2 ADD SWAP1 POP PUSH2 0x29AC JUMP JUMPDEST POP POP POP POP SWAP3 SWAP2 POP POP JUMP JUMPDEST PUSH1 0x0 DUP3 PUSH1 0x1F DUP4 ADD SLT PUSH2 0x29F4 JUMPI PUSH1 0x0 DUP1 REVERT JUMPDEST PUSH1 0x5 PUSH2 0x2A07 PUSH2 0x2A02 DUP3 PUSH2 0x3CC5 JUMP JUMPDEST PUSH2 0x3C54 JUMP JUMPDEST SWAP2 POP DUP2 DUP4 DUP6 PUSH1 0x20 DUP5 MUL DUP3 ADD GT ISZERO PUSH2 0x2A1D JUMPI PUSH1 0x0 DUP1 REVERT JUMPDEST PUSH1 0x0 JUMPDEST DUP4 DUP2 LT ISZERO PUSH2 0x2A4D JUMPI DUP2 PUSH2 0x2A33 DUP9 DUP3 PUSH2 0x2D9B JUMP JUMPDEST DUP5 MSTORE PUSH1 0x20 DUP5 ADD SWAP4 POP PUSH1 0x20 DUP4 ADD SWAP3 POP POP PUSH1 0x1 DUP2 ADD SWAP1 POP PUSH2 0x2A20 JUMP JUMPDEST POP POP POP POP SWAP3 SWAP2 POP POP JUMP JUMPDEST PUSH1 0x0 DUP2 CALLDATALOAD SWAP1 POP PUSH2 0x2A66 DUP2 PUSH2 0x3FE4 JUMP JUMPDEST SWAP3 SWAP2 POP POP JUMP JUMPDEST PUSH1 0x0 DUP2 CALLDATALOAD SWAP1 POP PUSH2 0x2A7B DUP2 PUSH2 0x3FFB JUMP JUMPDEST SWAP3 SWAP2 POP POP JUMP JUMPDEST PUSH1 0x0 DUP2 CALLDATALOAD SWAP1 POP PUSH2 0x2A90 DUP2 PUSH2 0x400B JUMP JUMPDEST SWAP3 SWAP2 POP POP JUMP JUMPDEST PUSH1 0x0 DUP2 CALLDATALOAD SWAP1 POP PUSH2 0x2AA5 DUP2 PUSH2 0x401B JUMP JUMPDEST SWAP3 SWAP2 POP POP JUMP JUMPDEST PUSH1 0x0 DUP2 CALLDATALOAD SWAP1 POP PUSH2 0x2ABA DUP2 PUSH2 0x402B JUMP JUMPDEST SWAP3 SWAP2 POP POP JUMP JUMPDEST PUSH1 0x0 DUP3 PUSH1 0x1F DUP4 ADD SLT PUSH2 0x2AD1 JUMPI PUSH1 0x0 DUP1 REVERT JUMPDEST DUP2 CALLDATALOAD PUSH2 0x2AE4 PUSH2 0x2ADF DUP3 PUSH2 0x3CE7 JUMP JUMPDEST PUSH2 0x3C54 JUMP JUMPDEST SWAP2 POP DUP1 DUP3 MSTORE PUSH1 0x20 DUP4 ADD PUSH1 0x20 DUP4 ADD DUP6 DUP4 DUP4 ADD GT ISZERO PUSH2 0x2B00 JUMPI PUSH1 0x0 DUP1 REVERT JUMPDEST PUSH2 0x2B0B DUP4 DUP3 DUP5 PUSH2 0x3F46 JUMP JUMPDEST POP POP POP SWAP3 SWAP2 POP POP JUMP JUMPDEST PUSH1 0x0 PUSH1 0xE0 DUP3 DUP5 SUB SLT ISZERO PUSH2 0x2B26 JUMPI PUSH1 0x0 DUP1 REVERT JUMPDEST PUSH2 0x2B30 PUSH1 0xE0 PUSH2 0x3C54 JUMP JUMPDEST SWAP1 POP PUSH1 0x0 PUSH2 0x2B40 DUP5 DUP3 DUP6 ADD PUSH2 0x2DB0 JUMP JUMPDEST PUSH1 0x0 DUP4 ADD MSTORE POP PUSH1 0x20 PUSH2 0x2B54 DUP5 DUP3 DUP6 ADD PUSH2 0x2DB0 JUMP JUMPDEST PUSH1 0x20 DUP4 ADD MSTORE POP PUSH1 0x40 PUSH2 0x2B68 DUP5 DUP3 DUP6 ADD PUSH2 0x2DB0 JUMP JUMPDEST PUSH1 0x40 DUP4 ADD MSTORE POP PUSH1 0x60 PUSH2 0x2B7C DUP5 DUP3 DUP6 ADD PUSH2 0x2DB0 JUMP JUMPDEST PUSH1 0x60 DUP4 ADD MSTORE POP PUSH1 0x80 PUSH2 0x2B90 DUP5 DUP3 DUP6 ADD PUSH2 0x2DB0 JUMP JUMPDEST PUSH1 0x80 DUP4 ADD MSTORE POP PUSH1 0xA0 PUSH2 0x2BA4 DUP5 DUP3 DUP6 ADD PUSH2 0x2DB0 JUMP JUMPDEST PUSH1 0xA0 DUP4 ADD MSTORE POP PUSH1 0xC0 PUSH2 0x2BB8 DUP5 DUP3 DUP6 ADD PUSH2 0x2DB0 JUMP JUMPDEST PUSH1 0xC0 DUP4 ADD MSTORE POP SWAP3 SWAP2 POP POP JUMP JUMPDEST PUSH1 0x0 PUSH2 0x440 DUP3 DUP5 SUB SLT ISZERO PUSH2 0x2BD7 JUMPI PUSH1 0x0 DUP1 REVERT JUMPDEST PUSH2 0x2BE2 PUSH2 0x1E0 PUSH2 0x3C54 JUMP JUMPDEST SWAP1 POP PUSH1 0x0 PUSH2 0x2BF2 DUP5 DUP3 DUP6 ADD PUSH2 0x2D9B JUMP JUMPDEST PUSH1 0x0 DUP4 ADD MSTORE POP PUSH1 0x20 PUSH2 0x2C06 DUP5 DUP3 DUP6 ADD PUSH2 0x28E6 JUMP JUMPDEST PUSH1 0x20 DUP4 ADD MSTORE POP PUSH1 0x40 PUSH2 0x2C1A DUP5 DUP3 DUP6 ADD PUSH2 0x28E6 JUMP JUMPDEST PUSH1 0x40 DUP4 ADD MSTORE POP PUSH1 0x60 PUSH2 0x2C2E DUP5 DUP3 DUP6 ADD PUSH2 0x2A81 JUMP JUMPDEST PUSH1 0x60 DUP4 ADD MSTORE POP PUSH1 0x80 PUSH2 0x2C42 DUP5 DUP3 DUP6 ADD PUSH2 0x2A6C JUMP JUMPDEST PUSH1 0x80 DUP4 ADD MSTORE POP PUSH1 0xA0 PUSH2 0x2C56 DUP5 DUP3 DUP6 ADD PUSH2 0x2AAB JUMP JUMPDEST PUSH1 0xA0 DUP4 ADD MSTORE POP PUSH1 0xC0 PUSH2 0x2C6A DUP5 DUP3 DUP6 ADD PUSH2 0x2D9B JUMP JUMPDEST PUSH1 0xC0 DUP4 ADD MSTORE POP PUSH1 0xE0 PUSH2 0x2C7E DUP5 DUP3 DUP6 ADD PUSH2 0x2D9B JUMP JUMPDEST PUSH1 0xE0 DUP4 ADD MSTORE POP PUSH2 0x100 PUSH2 0x2C93 DUP5 DUP3 DUP6 ADD PUSH2 0x2D9B JUMP JUMPDEST PUSH2 0x100 DUP4 ADD MSTORE POP PUSH2 0x120 PUSH2 0x2CA9 DUP5 DUP3 DUP6 ADD PUSH2 0x2D9B JUMP JUMPDEST PUSH2 0x120 DUP4 ADD MSTORE POP PUSH2 0x140 PUSH2 0x2CBF DUP5 DUP3 DUP6 ADD PUSH2 0x2D24 JUMP JUMPDEST PUSH2 0x140 DUP4 ADD MSTORE POP PUSH2 0x3C0 PUSH2 0x2CD5 DUP5 DUP3 DUP6 ADD PUSH2 0x2D9B JUMP JUMPDEST PUSH2 0x160 DUP4 ADD MSTORE POP PUSH2 0x3E0 PUSH2 0x2CEB DUP5 DUP3 DUP6 ADD PUSH2 0x2D9B JUMP JUMPDEST PUSH2 0x180 DUP4 ADD MSTORE POP PUSH2 0x400 PUSH2 0x2D01 DUP5 DUP3 DUP6 ADD PUSH2 0x2A57 JUMP JUMPDEST PUSH2 0x1A0 DUP4 ADD MSTORE POP PUSH2 0x420 PUSH2 0x2D17 DUP5 DUP3 DUP6 ADD PUSH2 0x2A96 JUMP JUMPDEST PUSH2 0x1C0 DUP4 ADD MSTORE POP SWAP3 SWAP2 POP POP JUMP JUMPDEST PUSH1 0x0 PUSH2 0x280 DUP3 DUP5 SUB SLT ISZERO PUSH2 0x2D37 JUMPI PUSH1 0x0 DUP1 REVERT JUMPDEST PUSH2 0x2D41 PUSH1 0x80 PUSH2 0x3C54 JUMP JUMPDEST SWAP1 POP PUSH1 0x0 PUSH2 0x2D51 DUP5 DUP3 DUP6 ADD PUSH2 0x29E3 JUMP JUMPDEST PUSH1 0x0 DUP4 ADD MSTORE POP PUSH1 0xA0 PUSH2 0x2D65 DUP5 DUP3 DUP6 ADD PUSH2 0x29E3 JUMP JUMPDEST PUSH1 0x20 DUP4 ADD MSTORE POP PUSH2 0x140 PUSH2 0x2D7A DUP5 DUP3 DUP6 ADD PUSH2 0x29E3 JUMP JUMPDEST PUSH1 0x40 DUP4 ADD MSTORE POP PUSH2 0x1E0 PUSH2 0x2D8F DUP5 DUP3 DUP6 ADD PUSH2 0x28FB JUMP JUMPDEST PUSH1 0x60 DUP4 ADD MSTORE POP SWAP3 SWAP2 POP POP JUMP JUMPDEST PUSH1 0x0 DUP2 CALLDATALOAD SWAP1 POP PUSH2 0x2DAA DUP2 PUSH2 0x403B JUMP JUMPDEST SWAP3 SWAP2 POP POP JUMP JUMPDEST PUSH1 0x0 DUP2 MLOAD SWAP1 POP PUSH2 0x2DBF DUP2 PUSH2 0x403B JUMP JUMPDEST SWAP3 SWAP2 POP POP JUMP JUMPDEST PUSH1 0x0 PUSH1 0x20 DUP3 DUP5 SUB SLT ISZERO PUSH2 0x2DD7 JUMPI PUSH1 0x0 DUP1 REVERT JUMPDEST PUSH1 0x0 PUSH2 0x2DE5 DUP5 DUP3 DUP6 ADD PUSH2 0x28E6 JUMP JUMPDEST SWAP2 POP POP SWAP3 SWAP2 POP POP JUMP JUMPDEST PUSH1 0x0 DUP1 PUSH1 0x0 DUP1 PUSH1 0x0 DUP1 PUSH1 0x0 PUSH1 0xE0 DUP9 DUP11 SUB SLT ISZERO PUSH2 0x2E09 JUMPI PUSH1 0x0 DUP1 REVERT JUMPDEST PUSH1 0x0 PUSH2 0x2E17 DUP11 DUP3 DUP12 ADD PUSH2 0x28E6 JUMP JUMPDEST SWAP8 POP POP PUSH1 0x20 PUSH2 0x2E28 DUP11 DUP3 DUP12 ADD PUSH2 0x28E6 JUMP JUMPDEST SWAP7 POP POP PUSH1 0x40 PUSH2 0x2E39 DUP11 DUP3 DUP12 ADD PUSH2 0x2A81 JUMP JUMPDEST SWAP6 POP POP PUSH1 0x60 PUSH2 0x2E4A DUP11 DUP3 DUP12 ADD PUSH2 0x2A6C JUMP JUMPDEST SWAP5 POP POP PUSH1 0x80 PUSH2 0x2E5B DUP11 DUP3 DUP12 ADD PUSH2 0x2D9B JUMP JUMPDEST SWAP4 POP POP PUSH1 0xA0 PUSH2 0x2E6C DUP11 DUP3 DUP12 ADD PUSH2 0x2D9B JUMP JUMPDEST SWAP3 POP POP PUSH1 0xC0 PUSH2 0x2E7D DUP11 DUP3 DUP12 ADD PUSH2 0x2D9B JUMP JUMPDEST SWAP2 POP POP SWAP3 SWAP6 SWAP9 SWAP2 SWAP5 SWAP8 POP SWAP3 SWAP6 POP JUMP JUMPDEST PUSH1 0x0 DUP1 PUSH1 0x0 PUSH1 0x60 DUP5 DUP7 SUB SLT ISZERO PUSH2 0x2EA1 JUMPI PUSH1 0x0 DUP1 REVERT JUMPDEST PUSH1 0x0 PUSH2 0x2EAF DUP7 DUP3 DUP8 ADD PUSH2 0x28E6 JUMP JUMPDEST SWAP4 POP POP PUSH1 0x20 PUSH2 0x2EC0 DUP7 DUP3 DUP8 ADD PUSH2 0x28E6 JUMP JUMPDEST SWAP3 POP POP PUSH1 0x40 PUSH2 0x2ED1 DUP7 DUP3 DUP8 ADD PUSH2 0x2D9B JUMP JUMPDEST SWAP2 POP POP SWAP3 POP SWAP3 POP SWAP3 JUMP JUMPDEST PUSH1 0x0 DUP1 PUSH1 0x0 DUP1 PUSH1 0x0 PUSH1 0xA0 DUP7 DUP9 SUB SLT ISZERO PUSH2 0x2EF3 JUMPI PUSH1 0x0 DUP1 REVERT JUMPDEST PUSH1 0x0 PUSH2 0x2F01 DUP9 DUP3 DUP10 ADD PUSH2 0x28E6 JUMP JUMPDEST SWAP6 POP POP PUSH1 0x20 PUSH2 0x2F12 DUP9 DUP3 DUP10 ADD PUSH2 0x2A81 JUMP JUMPDEST SWAP5 POP POP PUSH1 0x40 PUSH2 0x2F23 DUP9 DUP3 DUP10 ADD PUSH2 0x2A6C JUMP JUMPDEST SWAP4 POP POP PUSH1 0x60 PUSH2 0x2F34 DUP9 DUP3 DUP10 ADD PUSH2 0x2AAB JUMP JUMPDEST SWAP3 POP POP PUSH1 0x80 PUSH2 0x2F45 DUP9 DUP3 DUP10 ADD PUSH2 0x2D9B JUMP JUMPDEST SWAP2 POP POP SWAP3 SWAP6 POP SWAP3 SWAP6 SWAP1 SWAP4 POP JUMP JUMPDEST PUSH1 0x0 PUSH2 0x2A0 DUP3 DUP5 SUB SLT ISZERO PUSH2 0x2F65 JUMPI PUSH1 0x0 DUP1 REVERT JUMPDEST PUSH1 0x0 PUSH2 0x2F73 DUP5 DUP3 DUP6 ADD PUSH2 0x296F JUMP JUMPDEST SWAP2 POP POP SWAP3 SWAP2 POP POP JUMP JUMPDEST PUSH1 0x0 DUP1 PUSH1 0x0 DUP1 PUSH1 0x80 DUP6 DUP8 SUB SLT ISZERO PUSH2 0x2F92 JUMPI PUSH1 0x0 DUP1 REVERT JUMPDEST PUSH1 0x0 PUSH2 0x2FA0 DUP8 DUP3 DUP9 ADD PUSH2 0x2A6C JUMP JUMPDEST SWAP5 POP POP PUSH1 0x20 PUSH2 0x2FB1 DUP8 DUP3 DUP9 ADD PUSH2 0x28E6 JUMP JUMPDEST SWAP4 POP POP PUSH1 0x40 PUSH2 0x2FC2 DUP8 DUP3 DUP9 ADD PUSH2 0x2D9B JUMP JUMPDEST SWAP3 POP POP PUSH1 0x60 DUP6 ADD CALLDATALOAD PUSH8 0xFFFFFFFFFFFFFFFF DUP2 GT ISZERO PUSH2 0x2FDF JUMPI PUSH1 0x0 DUP1 REVERT JUMPDEST PUSH2 0x2FEB DUP8 DUP3 DUP9 ADD PUSH2 0x2AC0 JUMP JUMPDEST SWAP2 POP POP SWAP3 SWAP6 SWAP2 SWAP5 POP SWAP3 POP JUMP JUMPDEST PUSH1 0x0 DUP1 PUSH1 0x0 DUP1 PUSH2 0x4A0 DUP6 DUP8 SUB SLT ISZERO PUSH2 0x300E JUMPI PUSH1 0x0 DUP1 REVERT JUMPDEST PUSH1 0x0 PUSH2 0x301C DUP8 DUP3 DUP9 ADD PUSH2 0x2BC4 JUMP JUMPDEST SWAP5 POP POP PUSH2 0x440 PUSH2 0x302E DUP8 DUP3 DUP9 ADD PUSH2 0x2AAB JUMP JUMPDEST SWAP4 POP POP PUSH2 0x460 PUSH2 0x3040 DUP8 DUP3 DUP9 ADD PUSH2 0x2D9B JUMP JUMPDEST SWAP3 POP POP PUSH2 0x480 PUSH2 0x3052 DUP8 DUP3 DUP9 ADD PUSH2 0x2D9B JUMP JUMPDEST SWAP2 POP POP SWAP3 SWAP6 SWAP2 SWAP5 POP SWAP3 POP JUMP JUMPDEST PUSH1 0x0 PUSH2 0x280 DUP3 DUP5 SUB SLT ISZERO PUSH2 0x3071 JUMPI PUSH1 0x0 DUP1 REVERT JUMPDEST PUSH1 0x0 PUSH2 0x307F DUP5 DUP3 DUP6 ADD PUSH2 0x2D24 JUMP JUMPDEST SWAP2 POP POP SWAP3 SWAP2 POP POP JUMP JUMPDEST PUSH1 0x0 PUSH1 0x20 DUP3 DUP5 SUB SLT ISZERO PUSH2 0x309A JUMPI PUSH1 0x0 DUP1 REVERT JUMPDEST PUSH1 0x0 PUSH2 0x30A8 DUP5 DUP3 DUP6 ADD PUSH2 0x2D9B JUMP JUMPDEST SWAP2 POP POP SWAP3 SWAP2 POP POP JUMP JUMPDEST PUSH1 0x0 PUSH1 0x20 DUP3 DUP5 SUB SLT ISZERO PUSH2 0x30C3 JUMPI PUSH1 0x0 DUP1 REVERT JUMPDEST PUSH1 0x0 PUSH2 0x30D1 DUP5 DUP3 DUP6 ADD PUSH2 0x2DB0 JUMP JUMPDEST SWAP2 POP POP SWAP3 SWAP2 POP POP JUMP JUMPDEST PUSH1 0x0 PUSH2 0x30E6 DUP4 DUP4 PUSH2 0x315E JUMP JUMPDEST PUSH1 0x20 DUP4 ADD SWAP1 POP SWAP3 SWAP2 POP POP JUMP JUMPDEST PUSH1 0x0 PUSH2 0x30FE DUP4 DUP4 PUSH2 0x335B JUMP JUMPDEST PUSH1 0x20 DUP4 ADD SWAP1 POP SWAP3 SWAP2 POP POP JUMP JUMPDEST PUSH1 0x0 PUSH2 0x3116 DUP4 DUP4 PUSH2 0x359B JUMP JUMPDEST SWAP1 POP SWAP3 SWAP2 POP POP JUMP JUMPDEST PUSH1 0x0 PUSH2 0x312A DUP4 DUP4 PUSH2 0x363B JUMP JUMPDEST PUSH2 0x440 DUP4 ADD SWAP1 POP SWAP3 SWAP2 POP POP JUMP JUMPDEST PUSH1 0x0 PUSH2 0x3143 DUP4 DUP4 PUSH2 0x38FD JUMP JUMPDEST PUSH1 0x20 DUP4 ADD SWAP1 POP SWAP3 SWAP2 POP POP JUMP JUMPDEST PUSH2 0x3158 DUP2 PUSH2 0x3EC8 JUMP JUMPDEST DUP3 MSTORE POP POP JUMP JUMPDEST PUSH2 0x3167 DUP2 PUSH2 0x3E34 JUMP JUMPDEST DUP3 MSTORE POP POP JUMP JUMPDEST PUSH2 0x3176 DUP2 PUSH2 0x3E34 JUMP JUMPDEST DUP3 MSTORE POP POP JUMP JUMPDEST PUSH1 0x0 PUSH2 0x3187 DUP3 PUSH2 0x3D57 JUMP JUMPDEST PUSH2 0x3191 DUP2 DUP6 PUSH2 0x3DDA JUMP JUMPDEST SWAP4 POP PUSH2 0x319C DUP4 PUSH2 0x3D13 JUMP JUMPDEST DUP1 PUSH1 0x0 JUMPDEST DUP4 DUP2 LT ISZERO PUSH2 0x31CD JUMPI DUP2 MLOAD PUSH2 0x31B4 DUP9 DUP3 PUSH2 0x30DA JUMP JUMPDEST SWAP8 POP PUSH2 0x31BF DUP4 PUSH2 0x3D99 JUMP JUMPDEST SWAP3 POP POP PUSH1 0x1 DUP2 ADD SWAP1 POP PUSH2 0x31A0 JUMP JUMPDEST POP DUP6 SWAP4 POP POP POP POP SWAP3 SWAP2 POP POP JUMP JUMPDEST PUSH2 0x31E3 DUP2 PUSH2 0x3D62 JUMP JUMPDEST PUSH2 0x31ED DUP2 DUP5 PUSH2 0x3DEB JUMP JUMPDEST SWAP3 POP PUSH2 0x31F8 DUP3 PUSH2 0x3D23 JUMP JUMPDEST DUP1 PUSH1 0x0 JUMPDEST DUP4 DUP2 LT ISZERO PUSH2 0x3229 JUMPI DUP2 MLOAD PUSH2 0x3210 DUP8 DUP3 PUSH2 0x30F2 JUMP JUMPDEST SWAP7 POP PUSH2 0x321B DUP4 PUSH2 0x3DA6 JUMP JUMPDEST SWAP3 POP POP PUSH1 0x1 DUP2 ADD SWAP1 POP PUSH2 0x31FC JUMP JUMPDEST POP POP POP POP POP POP JUMP JUMPDEST PUSH1 0x0 PUSH2 0x323C DUP3 PUSH2 0x3D6D JUMP JUMPDEST PUSH2 0x3246 DUP2 DUP6 PUSH2 0x3DF6 JUMP JUMPDEST SWAP4 POP DUP4 PUSH1 0x20 DUP3 MUL DUP6 ADD PUSH2 0x3258 DUP6 PUSH2 0x3D2D JUMP JUMPDEST DUP1 PUSH1 0x0 JUMPDEST DUP6 DUP2 LT ISZERO PUSH2 0x3294 JUMPI DUP5 DUP5 SUB DUP10 MSTORE DUP2 MLOAD PUSH2 0x3275 DUP6 DUP3 PUSH2 0x310A JUMP JUMPDEST SWAP5 POP PUSH2 0x3280 DUP4 PUSH2 0x3DB3 JUMP JUMPDEST SWAP3 POP PUSH1 0x20 DUP11 ADD SWAP10 POP POP PUSH1 0x1 DUP2 ADD SWAP1 POP PUSH2 0x325C JUMP JUMPDEST POP DUP3 SWAP8 POP DUP8 SWAP6 POP POP POP POP POP POP SWAP3 SWAP2 POP POP JUMP JUMPDEST PUSH1 0x0 PUSH2 0x32B1 DUP3 PUSH2 0x3D78 JUMP JUMPDEST PUSH2 0x32BB DUP2 DUP6 PUSH2 0x3E07 JUMP JUMPDEST SWAP4 POP PUSH2 0x32C6 DUP4 PUSH2 0x3D3D JUMP JUMPDEST DUP1 PUSH1 0x0 JUMPDEST DUP4 DUP2 LT ISZERO PUSH2 0x32F7 JUMPI DUP2 MLOAD PUSH2 0x32DE DUP9 DUP3 PUSH2 0x311E JUMP JUMPDEST SWAP8 POP PUSH2 0x32E9 DUP4 PUSH2 0x3DC0 JUMP JUMPDEST SWAP3 POP POP PUSH1 0x1 DUP2 ADD SWAP1 POP PUSH2 0x32CA JUMP JUMPDEST POP DUP6 SWAP4 POP POP POP POP SWAP3 SWAP2 POP POP JUMP JUMPDEST PUSH2 0x330D DUP2 PUSH2 0x3D83 JUMP JUMPDEST PUSH2 0x3317 DUP2 DUP5 PUSH2 0x3E18 JUMP JUMPDEST SWAP3 POP PUSH2 0x3322 DUP3 PUSH2 0x3D4D JUMP JUMPDEST DUP1 PUSH1 0x0 JUMPDEST DUP4 DUP2 LT ISZERO PUSH2 0x3353 JUMPI DUP2 MLOAD PUSH2 0x333A DUP8 DUP3 PUSH2 0x3137 JUMP JUMPDEST SWAP7 POP PUSH2 0x3345 DUP4 PUSH2 0x3DCD JUMP JUMPDEST SWAP3 POP POP PUSH1 0x1 DUP2 ADD SWAP1 POP PUSH2 0x3326 JUMP JUMPDEST POP POP POP POP POP POP JUMP JUMPDEST PUSH2 0x3364 DUP2 PUSH2 0x3E46 JUMP JUMPDEST DUP3 MSTORE POP POP JUMP JUMPDEST PUSH2 0x3373 DUP2 PUSH2 0x3EDA JUMP JUMPDEST DUP3 MSTORE POP POP JUMP JUMPDEST PUSH2 0x3382 DUP2 PUSH2 0x3EDA JUMP JUMPDEST DUP3 MSTORE POP POP JUMP JUMPDEST PUSH2 0x3391 DUP2 PUSH2 0x3EEC JUMP JUMPDEST DUP3 MSTORE POP POP JUMP JUMPDEST PUSH2 0x33A0 DUP2 PUSH2 0x3EEC JUMP JUMPDEST DUP3 MSTORE POP POP JUMP JUMPDEST PUSH2 0x33AF DUP2 PUSH2 0x3EFE JUMP JUMPDEST DUP3 MSTORE POP POP JUMP JUMPDEST PUSH2 0x33BE DUP2 PUSH2 0x3EFE JUMP JUMPDEST DUP3 MSTORE POP POP JUMP JUMPDEST PUSH2 0x33CD DUP2 PUSH2 0x3F10 JUMP JUMPDEST DUP3 MSTORE POP POP JUMP JUMPDEST PUSH2 0x33DC DUP2 PUSH2 0x3F10 JUMP JUMPDEST DUP3 MSTORE POP POP JUMP JUMPDEST PUSH1 0x0 PUSH2 0x33ED DUP3 PUSH2 0x3D8E JUMP JUMPDEST PUSH2 0x33F7 DUP2 DUP6 PUSH2 0x3E23 JUMP JUMPDEST SWAP4 POP PUSH2 0x3407 DUP2 DUP6 PUSH1 0x20 DUP7 ADD PUSH2 0x3F55 JUMP JUMPDEST PUSH2 0x3410 DUP2 PUSH2 0x3F88 JUMP JUMPDEST DUP5 ADD SWAP2 POP POP SWAP3 SWAP2 POP POP JUMP JUMPDEST PUSH1 0x0 PUSH2 0x3428 PUSH1 0x1F DUP4 PUSH2 0x3E23 JUMP JUMPDEST SWAP2 POP PUSH32 0x53616D6520706572736F6E206465616C206973206E6F7420616C6C6F77656400 PUSH1 0x0 DUP4 ADD MSTORE PUSH1 0x20 DUP3 ADD SWAP1 POP SWAP2 SWAP1 POP JUMP JUMPDEST PUSH1 0x0 PUSH2 0x3468 PUSH1 0x12 DUP4 PUSH2 0x3E23 JUMP JUMPDEST SWAP2 POP PUSH32 0x6E6F206C6F616E206974656D20666F756E640000000000000000000000000000 PUSH1 0x0 DUP4 ADD MSTORE PUSH1 0x20 DUP3 ADD SWAP1 POP SWAP2 SWAP1 POP JUMP JUMPDEST PUSH1 0x0 PUSH2 0x34A8 PUSH1 0x18 DUP4 PUSH2 0x3E23 JUMP JUMPDEST SWAP2 POP PUSH32 0x636F6E6669726D20616D6F756E74206E6F74206D617463680000000000000000 PUSH1 0x0 DUP4 ADD MSTORE PUSH1 0x20 DUP3 ADD SWAP1 POP SWAP2 SWAP1 POP JUMP JUMPDEST PUSH1 0x0 PUSH2 0x34E8 PUSH1 0x1A DUP4 PUSH2 0x3E23 JUMP JUMPDEST SWAP2 POP PUSH32 0x6D73672E73656E646572206973206E6F7420626F72726F776572000000000000 PUSH1 0x0 DUP4 ADD MSTORE PUSH1 0x20 DUP3 ADD SWAP1 POP SWAP2 SWAP1 POP JUMP JUMPDEST PUSH1 0x0 PUSH2 0x3528 PUSH1 0x18 DUP4 PUSH2 0x3E23 JUMP JUMPDEST SWAP2 POP PUSH32 0x6D73672E73656E646572206973206E6F74206C656E6465720000000000000000 PUSH1 0x0 DUP4 ADD MSTORE PUSH1 0x20 DUP3 ADD SWAP1 POP SWAP2 SWAP1 POP JUMP JUMPDEST PUSH1 0x0 PUSH2 0x3568 PUSH1 0x15 DUP4 PUSH2 0x3E23 JUMP JUMPDEST SWAP2 POP PUSH32 0x626F72726F776572206D75737420636F6E6669726D0000000000000000000000 PUSH1 0x0 DUP4 ADD MSTORE PUSH1 0x20 DUP3 ADD SWAP1 POP SWAP2 SWAP1 POP JUMP JUMPDEST PUSH1 0x0 PUSH1 0x60 DUP4 ADD PUSH1 0x0 DUP4 ADD MLOAD DUP5 DUP3 SUB PUSH1 0x0 DUP7 ADD MSTORE PUSH2 0x35B8 DUP3 DUP3 PUSH2 0x32A6 JUMP JUMPDEST SWAP2 POP POP PUSH1 0x20 DUP4 ADD MLOAD PUSH2 0x35CD PUSH1 0x20 DUP7 ADD DUP3 PUSH2 0x38FD JUMP JUMPDEST POP PUSH1 0x40 DUP4 ADD MLOAD PUSH2 0x35E0 PUSH1 0x40 DUP7 ADD DUP3 PUSH2 0x335B JUMP JUMPDEST POP DUP1 SWAP2 POP POP SWAP3 SWAP2 POP POP JUMP JUMPDEST PUSH1 0x0 PUSH1 0x60 DUP4 ADD PUSH1 0x0 DUP4 ADD MLOAD DUP5 DUP3 SUB PUSH1 0x0 DUP7 ADD MSTORE PUSH2 0x3608 DUP3 DUP3 PUSH2 0x32A6 JUMP JUMPDEST SWAP2 POP POP PUSH1 0x20 DUP4 ADD MLOAD PUSH2 0x361D PUSH1 0x20 DUP7 ADD DUP3 PUSH2 0x38FD JUMP JUMPDEST POP PUSH1 0x40 DUP4 ADD MLOAD PUSH2 0x3630 PUSH1 0x40 DUP7 ADD DUP3 PUSH2 0x335B JUMP JUMPDEST POP DUP1 SWAP2 POP POP SWAP3 SWAP2 POP POP JUMP JUMPDEST PUSH2 0x440 DUP3 ADD PUSH1 0x0 DUP3 ADD MLOAD PUSH2 0x3652 PUSH1 0x0 DUP6 ADD DUP3 PUSH2 0x38FD JUMP JUMPDEST POP PUSH1 0x20 DUP3 ADD MLOAD PUSH2 0x3665 PUSH1 0x20 DUP6 ADD DUP3 PUSH2 0x315E JUMP JUMPDEST POP PUSH1 0x40 DUP3 ADD MLOAD PUSH2 0x3678 PUSH1 0x40 DUP6 ADD DUP3 PUSH2 0x315E JUMP JUMPDEST POP PUSH1 0x60 DUP3 ADD MLOAD PUSH2 0x368B PUSH1 0x60 DUP6 ADD DUP3 PUSH2 0x3388 JUMP JUMPDEST POP PUSH1 0x80 DUP3 ADD MLOAD PUSH2 0x369E PUSH1 0x80 DUP6 ADD DUP3 PUSH2 0x336A JUMP JUMPDEST POP PUSH1 0xA0 DUP3 ADD MLOAD PUSH2 0x36B1 PUSH1 0xA0 DUP6 ADD DUP3 PUSH2 0x33C4 JUMP JUMPDEST POP PUSH1 0xC0 DUP3 ADD MLOAD PUSH2 0x36C4 PUSH1 0xC0 DUP6 ADD DUP3 PUSH2 0x38FD JUMP JUMPDEST POP PUSH1 0xE0 DUP3 ADD MLOAD PUSH2 0x36D7 PUSH1 0xE0 DUP6 ADD DUP3 PUSH2 0x38FD JUMP JUMPDEST POP PUSH2 0x100 DUP3 ADD MLOAD PUSH2 0x36EC PUSH2 0x100 DUP6 ADD DUP3 PUSH2 0x38FD JUMP JUMPDEST POP PUSH2 0x120 DUP3 ADD MLOAD PUSH2 0x3701 PUSH2 0x120 DUP6 ADD DUP3 PUSH2 0x38FD JUMP JUMPDEST POP PUSH2 0x140 DUP3 ADD MLOAD PUSH2 0x3716 PUSH2 0x140 DUP6 ADD DUP3 PUSH2 0x38A5 JUMP JUMPDEST POP PUSH2 0x160 DUP3 ADD MLOAD PUSH2 0x372B PUSH2 0x3C0 DUP6 ADD DUP3 PUSH2 0x38FD JUMP JUMPDEST POP PUSH2 0x180 DUP3 ADD MLOAD PUSH2 0x3740 PUSH2 0x3E0 DUP6 ADD DUP3 PUSH2 0x38FD JUMP JUMPDEST POP PUSH2 0x1A0 DUP3 ADD MLOAD PUSH2 0x3755 PUSH2 0x400 DUP6 ADD DUP3 PUSH2 0x335B JUMP JUMPDEST POP PUSH2 0x1C0 DUP3 ADD MLOAD PUSH2 0x376A PUSH2 0x420 DUP6 ADD DUP3 PUSH2 0x33A6 JUMP JUMPDEST POP POP POP POP JUMP JUMPDEST PUSH2 0x440 DUP3 ADD PUSH1 0x0 DUP3 ADD MLOAD PUSH2 0x3787 PUSH1 0x0 DUP6 ADD DUP3 PUSH2 0x38FD JUMP JUMPDEST POP PUSH1 0x20 DUP3 ADD MLOAD PUSH2 0x379A PUSH1 0x20 DUP6 ADD DUP3 PUSH2 0x315E JUMP JUMPDEST POP PUSH1 0x40 DUP3 ADD MLOAD PUSH2 0x37AD PUSH1 0x40 DUP6 ADD DUP3 PUSH2 0x315E JUMP JUMPDEST POP PUSH1 0x60 DUP3 ADD MLOAD PUSH2 0x37C0 PUSH1 0x60 DUP6 ADD DUP3 PUSH2 0x3388 JUMP JUMPDEST POP PUSH1 0x80 DUP3 ADD MLOAD PUSH2 0x37D3 PUSH1 0x80 DUP6 ADD DUP3 PUSH2 0x336A JUMP JUMPDEST POP PUSH1 0xA0 DUP3 ADD MLOAD PUSH2 0x37E6 PUSH1 0xA0 DUP6 ADD DUP3 PUSH2 0x33C4 JUMP JUMPDEST POP PUSH1 0xC0 DUP3 ADD MLOAD PUSH2 0x37F9 PUSH1 0xC0 DUP6 ADD DUP3 PUSH2 0x38FD JUMP JUMPDEST POP PUSH1 0xE0 DUP3 ADD MLOAD PUSH2 0x380C PUSH1 0xE0 DUP6 ADD DUP3 PUSH2 0x38FD JUMP JUMPDEST POP PUSH2 0x100 DUP3 ADD MLOAD PUSH2 0x3821 PUSH2 0x100 DUP6 ADD DUP3 PUSH2 0x38FD JUMP JUMPDEST POP PUSH2 0x120 DUP3 ADD MLOAD PUSH2 0x3836 PUSH2 0x120 DUP6 ADD DUP3 PUSH2 0x38FD JUMP JUMPDEST POP PUSH2 0x140 DUP3 ADD MLOAD PUSH2 0x384B PUSH2 0x140 DUP6 ADD DUP3 PUSH2 0x38A5 JUMP JUMPDEST POP PUSH2 0x160 DUP3 ADD MLOAD PUSH2 0x3860 PUSH2 0x3C0 DUP6 ADD DUP3 PUSH2 0x38FD JUMP JUMPDEST POP PUSH2 0x180 DUP3 ADD MLOAD PUSH2 0x3875 PUSH2 0x3E0 DUP6 ADD DUP3 PUSH2 0x38FD JUMP JUMPDEST POP PUSH2 0x1A0 DUP3 ADD MLOAD PUSH2 0x388A PUSH2 0x400 DUP6 ADD DUP3 PUSH2 0x335B JUMP JUMPDEST POP PUSH2 0x1C0 DUP3 ADD MLOAD PUSH2 0x389F PUSH2 0x420 DUP6 ADD DUP3 PUSH2 0x33A6 JUMP JUMPDEST POP POP POP POP JUMP JUMPDEST PUSH2 0x280 DUP3 ADD PUSH1 0x0 DUP3 ADD MLOAD PUSH2 0x38BC PUSH1 0x0 DUP6 ADD DUP3 PUSH2 0x3304 JUMP JUMPDEST POP PUSH1 0x20 DUP3 ADD MLOAD PUSH2 0x38CF PUSH1 0xA0 DUP6 ADD DUP3 PUSH2 0x3304 JUMP JUMPDEST POP PUSH1 0x40 DUP3 ADD MLOAD PUSH2 0x38E3 PUSH2 0x140 DUP6 ADD DUP3 PUSH2 0x3304 JUMP JUMPDEST POP PUSH1 0x60 DUP3 ADD MLOAD PUSH2 0x38F7 PUSH2 0x1E0 DUP6 ADD DUP3 PUSH2 0x31DA JUMP JUMPDEST POP POP POP POP JUMP JUMPDEST PUSH2 0x3906 DUP2 PUSH2 0x3EBE JUMP JUMPDEST DUP3 MSTORE POP POP JUMP JUMPDEST PUSH2 0x3915 DUP2 PUSH2 0x3EBE JUMP JUMPDEST DUP3 MSTORE POP POP JUMP JUMPDEST PUSH1 0x0 PUSH1 0x20 DUP3 ADD SWAP1 POP PUSH2 0x3930 PUSH1 0x0 DUP4 ADD DUP5 PUSH2 0x316D JUMP JUMPDEST SWAP3 SWAP2 POP POP JUMP JUMPDEST PUSH1 0x0 PUSH1 0xA0 DUP3 ADD SWAP1 POP PUSH2 0x394B PUSH1 0x0 DUP4 ADD DUP9 PUSH2 0x316D JUMP JUMPDEST PUSH2 0x3958 PUSH1 0x20 DUP4 ADD DUP8 PUSH2 0x3397 JUMP JUMPDEST PUSH2 0x3965 PUSH1 0x40 DUP4 ADD DUP7 PUSH2 0x3379 JUMP JUMPDEST PUSH2 0x3972 PUSH1 0x60 DUP4 ADD DUP6 PUSH2 0x33D3 JUMP JUMPDEST PUSH2 0x397F PUSH1 0x80 DUP4 ADD DUP5 PUSH2 0x390C JUMP JUMPDEST SWAP7 SWAP6 POP POP POP POP POP POP JUMP JUMPDEST PUSH1 0x0 PUSH1 0xC0 DUP3 ADD SWAP1 POP PUSH2 0x399E PUSH1 0x0 DUP4 ADD DUP10 PUSH2 0x316D JUMP JUMPDEST PUSH2 0x39AB PUSH1 0x20 DUP4 ADD DUP9 PUSH2 0x3397 JUMP JUMPDEST PUSH2 0x39B8 PUSH1 0x40 DUP4 ADD DUP8 PUSH2 0x3379 JUMP JUMPDEST PUSH2 0x39C5 PUSH1 0x60 DUP4 ADD DUP7 PUSH2 0x33D3 JUMP JUMPDEST PUSH2 0x39D2 PUSH1 0x80 DUP4 ADD DUP6 PUSH2 0x390C JUMP JUMPDEST PUSH2 0x39DF PUSH1 0xA0 DUP4 ADD DUP5 PUSH2 0x390C JUMP JUMPDEST SWAP8 SWAP7 POP POP POP POP POP POP POP JUMP JUMPDEST PUSH1 0x0 PUSH1 0x20 DUP3 ADD SWAP1 POP DUP2 DUP2 SUB PUSH1 0x0 DUP4 ADD MSTORE PUSH2 0x3A04 DUP2 DUP5 PUSH2 0x317C JUMP JUMPDEST SWAP1 POP SWAP3 SWAP2 POP POP JUMP JUMPDEST PUSH1 0x0 PUSH1 0x20 DUP3 ADD SWAP1 POP DUP2 DUP2 SUB PUSH1 0x0 DUP4 ADD MSTORE PUSH2 0x3A26 DUP2 DUP5 PUSH2 0x3231 JUMP JUMPDEST SWAP1 POP SWAP3 SWAP2 POP POP JUMP JUMPDEST PUSH1 0x0 PUSH1 0x80 DUP3 ADD SWAP1 POP PUSH2 0x3A43 PUSH1 0x0 DUP4 ADD DUP8 PUSH2 0x3379 JUMP JUMPDEST PUSH2 0x3A50 PUSH1 0x20 DUP4 ADD DUP7 PUSH2 0x314F JUMP JUMPDEST PUSH2 0x3A5D PUSH1 0x40 DUP4 ADD DUP6 PUSH2 0x316D JUMP JUMPDEST DUP2 DUP2 SUB PUSH1 0x60 DUP4 ADD MSTORE PUSH2 0x3A6F DUP2 DUP5 PUSH2 0x33E2 JUMP JUMPDEST SWAP1 POP SWAP6 SWAP5 POP POP POP POP POP JUMP JUMPDEST PUSH1 0x0 PUSH1 0x60 DUP3 ADD SWAP1 POP PUSH2 0x3A8F PUSH1 0x0 DUP4 ADD DUP7 PUSH2 0x3379 JUMP JUMPDEST PUSH2 0x3A9C PUSH1 0x20 DUP4 ADD DUP6 PUSH2 0x390C JUMP JUMPDEST PUSH2 0x3AA9 PUSH1 0x40 DUP4 ADD DUP5 PUSH2 0x316D JUMP JUMPDEST SWAP5 SWAP4 POP POP POP POP JUMP JUMPDEST PUSH1 0x0 PUSH1 0x60 DUP3 ADD SWAP1 POP PUSH2 0x3AC6 PUSH1 0x0 DUP4 ADD DUP7 PUSH2 0x3379 JUMP JUMPDEST PUSH2 0x3AD3 PUSH1 0x20 DUP4 ADD DUP6 PUSH2 0x390C JUMP JUMPDEST PUSH2 0x3AE0 PUSH1 0x40 DUP4 ADD DUP5 PUSH2 0x314F JUMP JUMPDEST SWAP5 SWAP4 POP POP POP POP JUMP JUMPDEST PUSH1 0x0 PUSH1 0xA0 DUP3 ADD SWAP1 POP PUSH2 0x3AFD PUSH1 0x0 DUP4 ADD DUP9 PUSH2 0x3397 JUMP JUMPDEST PUSH2 0x3B0A PUSH1 0x20 DUP4 ADD DUP8 PUSH2 0x3379 JUMP JUMPDEST PUSH2 0x3B17 PUSH1 0x40 DUP4 ADD DUP7 PUSH2 0x390C JUMP JUMPDEST PUSH2 0x3B24 PUSH1 0x60 DUP4 ADD DUP6 PUSH2 0x390C JUMP JUMPDEST PUSH2 0x3B31 PUSH1 0x80 DUP4 ADD DUP5 PUSH2 0x390C JUMP JUMPDEST SWAP7 SWAP6 POP POP POP POP POP POP JUMP JUMPDEST PUSH1 0x0 PUSH1 0x20 DUP3 ADD SWAP1 POP PUSH2 0x3B50 PUSH1 0x0 DUP4 ADD DUP5 PUSH2 0x33B5 JUMP JUMPDEST SWAP3 SWAP2 POP POP JUMP JUMPDEST PUSH1 0x0 PUSH1 0x20 DUP3 ADD SWAP1 POP DUP2 DUP2 SUB PUSH1 0x0 DUP4 ADD MSTORE PUSH2 0x3B6F DUP2 PUSH2 0x341B JUMP JUMPDEST SWAP1 POP SWAP2 SWAP1 POP JUMP JUMPDEST PUSH1 0x0 PUSH1 0x20 DUP3 ADD SWAP1 POP DUP2 DUP2 SUB PUSH1 0x0 DUP4 ADD MSTORE PUSH2 0x3B8F DUP2 PUSH2 0x345B JUMP JUMPDEST SWAP1 POP SWAP2 SWAP1 POP JUMP JUMPDEST PUSH1 0x0 PUSH1 0x20 DUP3 ADD SWAP1 POP DUP2 DUP2 SUB PUSH1 0x0 DUP4 ADD MSTORE PUSH2 0x3BAF DUP2 PUSH2 0x349B JUMP JUMPDEST SWAP1 POP SWAP2 SWAP1 POP JUMP JUMPDEST PUSH1 0x0 PUSH1 0x20 DUP3 ADD SWAP1 POP DUP2 DUP2 SUB PUSH1 0x0 DUP4 ADD MSTORE PUSH2 0x3BCF DUP2 PUSH2 0x34DB JUMP JUMPDEST SWAP1 POP SWAP2 SWAP1 POP JUMP JUMPDEST PUSH1 0x0 PUSH1 0x20 DUP3 ADD SWAP1 POP DUP2 DUP2 SUB PUSH1 0x0 DUP4 ADD MSTORE PUSH2 0x3BEF DUP2 PUSH2 0x351B JUMP JUMPDEST SWAP1 POP SWAP2 SWAP1 POP JUMP JUMPDEST PUSH1 0x0 PUSH1 0x20 DUP3 ADD SWAP1 POP DUP2 DUP2 SUB PUSH1 0x0 DUP4 ADD MSTORE PUSH2 0x3C0F DUP2 PUSH2 0x355B JUMP JUMPDEST SWAP1 POP SWAP2 SWAP1 POP JUMP JUMPDEST PUSH1 0x0 PUSH1 0x20 DUP3 ADD SWAP1 POP DUP2 DUP2 SUB PUSH1 0x0 DUP4 ADD MSTORE PUSH2 0x3C30 DUP2 DUP5 PUSH2 0x35EB JUMP JUMPDEST SWAP1 POP SWAP3 SWAP2 POP POP JUMP JUMPDEST PUSH1 0x0 PUSH2 0x440 DUP3 ADD SWAP1 POP PUSH2 0x3C4E PUSH1 0x0 DUP4 ADD DUP5 PUSH2 0x3770 JUMP JUMPDEST SWAP3 SWAP2 POP POP JUMP JUMPDEST PUSH1 0x0 PUSH1 0x40 MLOAD SWAP1 POP DUP2 DUP2 ADD DUP2 DUP2 LT PUSH8 0xFFFFFFFFFFFFFFFF DUP3 GT OR ISZERO PUSH2 0x3C77 JUMPI PUSH1 0x0 DUP1 REVERT JUMPDEST DUP1 PUSH1 0x40 MSTORE POP SWAP2 SWAP1 POP JUMP JUMPDEST PUSH1 0x0 PUSH8 0xFFFFFFFFFFFFFFFF DUP3 GT ISZERO PUSH2 0x3C98 JUMPI PUSH1 0x0 DUP1 REVERT JUMPDEST PUSH1 0x20 DUP3 MUL SWAP1 POP SWAP2 SWAP1 POP JUMP JUMPDEST PUSH1 0x0 PUSH8 0xFFFFFFFFFFFFFFFF DUP3 GT ISZERO PUSH2 0x3CBA JUMPI PUSH1 0x0 DUP1 REVERT JUMPDEST PUSH1 0x20 DUP3 MUL SWAP1 POP SWAP2 SWAP1 POP JUMP JUMPDEST PUSH1 0x0 PUSH8 0xFFFFFFFFFFFFFFFF DUP3 GT ISZERO PUSH2 0x3CDC JUMPI PUSH1 0x0 DUP1 REVERT JUMPDEST PUSH1 0x20 DUP3 MUL SWAP1 POP SWAP2 SWAP1 POP JUMP JUMPDEST PUSH1 0x0 PUSH8 0xFFFFFFFFFFFFFFFF DUP3 GT ISZERO PUSH2 0x3CFE JUMPI PUSH1 0x0 DUP1 REVERT JUMPDEST PUSH1 0x1F NOT PUSH1 0x1F DUP4 ADD AND SWAP1 POP PUSH1 0x20 DUP2 ADD SWAP1 POP SWAP2 SWAP1 POP JUMP JUMPDEST PUSH1 0x0 DUP2 SWAP1 POP PUSH1 0x20 DUP3 ADD SWAP1 POP SWAP2 SWAP1 POP JUMP JUMPDEST PUSH1 0x0 DUP2 SWAP1 POP SWAP2 SWAP1 POP JUMP JUMPDEST PUSH1 0x0 DUP2 SWAP1 POP PUSH1 0x20 DUP3 ADD SWAP1 POP SWAP2 SWAP1 POP JUMP JUMPDEST PUSH1 0x0 DUP2 SWAP1 POP PUSH1 0x20 DUP3 ADD SWAP1 POP SWAP2 SWAP1 POP JUMP JUMPDEST PUSH1 0x0 DUP2 SWAP1 POP SWAP2 SWAP1 POP JUMP JUMPDEST PUSH1 0x0 DUP2 MLOAD SWAP1 POP SWAP2 SWAP1 POP JUMP JUMPDEST PUSH1 0x0 PUSH1 0x5 SWAP1 POP SWAP2 SWAP1 POP JUMP JUMPDEST PUSH1 0x0 DUP2 MLOAD SWAP1 POP SWAP2 SWAP1 POP JUMP JUMPDEST PUSH1 0x0 DUP2 MLOAD SWAP1 POP SWAP2 SWAP1 POP JUMP JUMPDEST PUSH1 0x0 PUSH1 0x5 SWAP1 POP SWAP2 SWAP1 POP JUMP JUMPDEST PUSH1 0x0 DUP2 MLOAD SWAP1 POP SWAP2 SWAP1 POP JUMP JUMPDEST PUSH1 0x0 PUSH1 0x20 DUP3 ADD SWAP1 POP SWAP2 SWAP1 POP JUMP JUMPDEST PUSH1 0x0 PUSH1 0x20 DUP3 ADD SWAP1 POP SWAP2 SWAP1 POP JUMP JUMPDEST PUSH1 0x0 PUSH1 0x20 DUP3 ADD SWAP1 POP SWAP2 SWAP1 POP JUMP JUMPDEST PUSH1 0x0 PUSH1 0x20 DUP3 ADD SWAP1 POP SWAP2 SWAP1 POP JUMP JUMPDEST PUSH1 0x0 PUSH1 0x20 DUP3 ADD SWAP1 POP SWAP2 SWAP1 POP JUMP JUMPDEST PUSH1 0x0 DUP3 DUP3 MSTORE PUSH1 0x20 DUP3 ADD SWAP1 POP SWAP3 SWAP2 POP POP JUMP JUMPDEST PUSH1 0x0 DUP2 SWAP1 POP SWAP3 SWAP2 POP POP JUMP JUMPDEST PUSH1 0x0 DUP3 DUP3 MSTORE PUSH1 0x20 DUP3 ADD SWAP1 POP SWAP3 SWAP2 POP POP JUMP JUMPDEST PUSH1 0x0 DUP3 DUP3 MSTORE PUSH1 0x20 DUP3 ADD SWAP1 POP SWAP3 SWAP2 POP POP JUMP JUMPDEST PUSH1 0x0 DUP2 SWAP1 POP SWAP3 SWAP2 POP POP JUMP JUMPDEST PUSH1 0x0 DUP3 DUP3 MSTORE PUSH1 0x20 DUP3 ADD SWAP1 POP SWAP3 SWAP2 POP POP JUMP JUMPDEST PUSH1 0x0 PUSH2 0x3E3F DUP3 PUSH2 0x3E9E JUMP JUMPDEST SWAP1 POP SWAP2 SWAP1 POP JUMP JUMPDEST PUSH1 0x0 DUP2 ISZERO ISZERO SWAP1 POP SWAP2 SWAP1 POP JUMP JUMPDEST PUSH1 0x0 DUP2 SWAP1 POP PUSH2 0x3E60 DUP3 PUSH2 0x3F99 JUMP JUMPDEST SWAP2 SWAP1 POP JUMP JUMPDEST PUSH1 0x0 DUP2 SWAP1 POP PUSH2 0x3E73 DUP3 PUSH2 0x3FA6 JUMP JUMPDEST SWAP2 SWAP1 POP JUMP JUMPDEST PUSH1 0x0 DUP2 SWAP1 POP PUSH2 0x3E86 DUP3 PUSH2 0x3FB3 JUMP JUMPDEST SWAP2 SWAP1 POP JUMP JUMPDEST PUSH1 0x0 DUP2 SWAP1 POP PUSH2 0x3E99 DUP3 PUSH2 0x3FC0 JUMP JUMPDEST SWAP2 SWAP1 POP JUMP JUMPDEST PUSH1 0x0 PUSH20 0xFFFFFFFFFFFFFFFFFFFFFFFFFFFFFFFFFFFFFFFF DUP3 AND SWAP1 POP SWAP2 SWAP1 POP JUMP JUMPDEST PUSH1 0x0 DUP2 SWAP1 POP SWAP2 SWAP1 POP JUMP JUMPDEST PUSH1 0x0 PUSH2 0x3ED3 DUP3 PUSH2 0x3F22 JUMP JUMPDEST SWAP1 POP SWAP2 SWAP1 POP JUMP JUMPDEST PUSH1 0x0 PUSH2 0x3EE5 DUP3 PUSH2 0x3E52 JUMP JUMPDEST SWAP1 POP SWAP2 SWAP1 POP JUMP JUMPDEST PUSH1 0x0 PUSH2 0x3EF7 DUP3 PUSH2 0x3E65 JUMP JUMPDEST SWAP1 POP SWAP2 SWAP1 POP JUMP JUMPDEST PUSH1 0x0 PUSH2 0x3F09 DUP3 PUSH2 0x3E78 JUMP JUMPDEST SWAP1 POP SWAP2 SWAP1 POP JUMP JUMPDEST PUSH1 0x0 PUSH2 0x3F1B DUP3 PUSH2 0x3E8B JUMP JUMPDEST SWAP1 POP SWAP2 SWAP1 POP JUMP JUMPDEST PUSH1 0x0 PUSH2 0x3F2D DUP3 PUSH2 0x3F34 JUMP JUMPDEST SWAP1 POP SWAP2 SWAP1 POP JUMP JUMPDEST PUSH1 0x0 PUSH2 0x3F3F DUP3 PUSH2 0x3E9E JUMP JUMPDEST SWAP1 POP SWAP2 SWAP1 POP JUMP JUMPDEST DUP3 DUP2 DUP4 CALLDATACOPY PUSH1 0x0 DUP4 DUP4 ADD MSTORE POP POP POP JUMP JUMPDEST PUSH1 0x0 JUMPDEST DUP4 DUP2 LT ISZERO PUSH2 0x3F73 JUMPI DUP1 DUP3 ADD MLOAD DUP2 DUP5 ADD MSTORE PUSH1 0x20 DUP2 ADD SWAP1 POP PUSH2 0x3F58 JUMP JUMPDEST DUP4 DUP2 GT ISZERO PUSH2 0x3F82 JUMPI PUSH1 0x0 DUP5 DUP5 ADD MSTORE JUMPDEST POP POP POP POP JUMP JUMPDEST PUSH1 0x0 PUSH1 0x1F NOT PUSH1 0x1F DUP4 ADD AND SWAP1 POP SWAP2 SWAP1 POP JUMP JUMPDEST PUSH1 0x3 DUP2 LT PUSH2 0x3FA3 JUMPI INVALID JUMPDEST POP JUMP JUMPDEST PUSH1 0x2 DUP2 LT PUSH2 0x3FB0 JUMPI INVALID JUMPDEST POP JUMP JUMPDEST PUSH1 0x6 DUP2 LT PUSH2 0x3FBD JUMPI INVALID JUMPDEST POP JUMP JUMPDEST PUSH1 0x6 DUP2 LT PUSH2 0x3FCA JUMPI INVALID JUMPDEST POP JUMP JUMPDEST PUSH2 0x3FD6 DUP2 PUSH2 0x3E34 JUMP JUMPDEST DUP2 EQ PUSH2 0x3FE1 JUMPI PUSH1 0x0 DUP1 REVERT JUMPDEST POP JUMP JUMPDEST PUSH2 0x3FED DUP2 PUSH2 0x3E46 JUMP JUMPDEST DUP2 EQ PUSH2 0x3FF8 JUMPI PUSH1 0x0 DUP1 REVERT JUMPDEST POP JUMP JUMPDEST PUSH1 0x3 DUP2 LT PUSH2 0x4008 JUMPI PUSH1 0x0 DUP1 REVERT JUMPDEST POP JUMP JUMPDEST PUSH1 0x2 DUP2 LT PUSH2 0x4018 JUMPI PUSH1 0x0 DUP1 REVERT JUMPDEST POP JUMP JUMPDEST PUSH1 0x6 DUP2 LT PUSH2 0x4028 JUMPI PUSH1 0x0 DUP1 REVERT JUMPDEST POP JUMP JUMPDEST PUSH1 0x6 DUP2 LT PUSH2 0x4038 JUMPI PUSH1 0x0 DUP1 REVERT JUMPDEST POP JUMP JUMPDEST PUSH2 0x4044 DUP2 PUSH2 0x3EBE JUMP JUMPDEST DUP2 EQ PUSH2 0x404F JUMPI PUSH1 0x0 DUP1 REVERT JUMPDEST POP JUMP INVALID LOG2 PUSH5 0x6970667358 0x22 SLT KECCAK256 0xE DIV 0xD3 SWAP6 0xD3 PUSH9 0xB0DA5F3F930F75F851 DUP12 PUSH2 0xBE6C SMOD RETURNDATASIZE 0xC5 CALLDATACOPY SELFDESTRUCT GASLIMIT NUMBER CALLVALUE 0xEA 0x29 EXTCODEHASH BYTE 0xBB PUSH5 0x736F6C6343 STOP MOD 0xC STOP CALLER "
		},
		"gasEstimates": {
			"creation": {
				"codeDepositCost": "3304000",
				"executionCost": "infinite",
				"totalCost": "infinite"
			},
			"external": {
				"confirmPayment(address,address,uint8,uint8,uint256,uint256,uint256)": "infinite",
				"fillSchedule((uint256,address,address,uint8,uint8,uint8,uint256,uint256,uint256,uint256,(uint256[5],uint256[5],uint256[5],bool[5]),uint256,uint256,bool,uint8),uint8,uint256,uint256)": "infinite",
				"getAllBooks()": "infinite",
				"getAllUsers()": "infinite",
				"getCurrentState((uint256[5],uint256[5],uint256[5],bool[5]))": "infinite",
				"getLoanItem(uint256)": "infinite",
				"getOneBook(address)": "infinite",
				"makeLoanDeal(address,uint8,uint8,uint8,uint256)": "infinite",
				"notifyPayment(uint8,address,uint256,string)": "infinite",
				"updateAllPV()": "infinite",
				"updateAllState()": "188",
				"updateState(address,address,uint256)": "infinite",
				"updateUserPV(address)": "infinite"
			},
			"internal": {
				"calcDF(uint256[7] memory,uint256)": "infinite",
				"inputToItem(struct Loan.LoanInput memory,uint256,uint256)": "infinite",
				"updateOnePV(struct Loan.LoanItem storage pointer)": "infinite"
			}
		},
		"methodIdentifiers": {
			"confirmPayment(address,address,uint8,uint8,uint256,uint256,uint256)": "b677aa2e",
			"fillSchedule((uint256,address,address,uint8,uint8,uint8,uint256,uint256,uint256,uint256,(uint256[5],uint256[5],uint256[5],bool[5]),uint256,uint256,bool,uint8),uint8,uint256,uint256)": "73b18b4c",
			"getAllBooks()": "354528e8",
			"getAllUsers()": "e2842d79",
			"getCurrentState((uint256[5],uint256[5],uint256[5],bool[5]))": "8257a504",
			"getLoanItem(uint256)": "61fda82a",
			"getOneBook(address)": "57d8df5a",
			"makeLoanDeal(address,uint8,uint8,uint8,uint256)": "995a2001",
			"notifyPayment(uint8,address,uint256,string)": "1d244afa",
			"updateAllPV()": "d003a97e",
			"updateAllState()": "cb105188",
			"updateState(address,address,uint256)": "45cf5cc0",
			"updateUserPV(address)": "4ef8fe5b"
		}
	},
	"abi": [
		{
			"inputs": [
				{
					"internalType": "address",
					"name": "moneyAddr",
					"type": "address"
				},
				{
					"internalType": "address",
					"name": "fxAddr",
					"type": "address"
				},
				{
					"internalType": "address",
					"name": "colAddr",
					"type": "address"
				}
			],
			"stateMutability": "nonpayable",
			"type": "constructor"
		},
		{
			"anonymous": false,
			"inputs": [
				{
					"indexed": true,
					"internalType": "address",
					"name": "loanMaker",
					"type": "address"
				},
				{
					"indexed": true,
					"internalType": "address",
					"name": "colUser",
					"type": "address"
				},
				{
					"indexed": false,
					"internalType": "enum MoneyMarket.Side",
					"name": "side",
					"type": "uint8"
				},
				{
					"indexed": false,
					"internalType": "enum MoneyMarket.Ccy",
					"name": "ccy",
					"type": "uint8"
				},
				{
					"indexed": false,
					"internalType": "uint256",
					"name": "term",
					"type": "uint256"
				},
				{
					"indexed": false,
					"internalType": "uint256",
					"name": "amt",
					"type": "uint256"
				},
				{
					"indexed": false,
					"internalType": "uint256",
					"name": "loanId",
					"type": "uint256"
				}
			],
			"name": "ConfirmPayment",
			"type": "event"
		},
		{
			"anonymous": false,
			"inputs": [
				{
					"indexed": false,
					"internalType": "address",
					"name": "makerAddr",
					"type": "address"
				},
				{
					"indexed": false,
					"internalType": "enum MoneyMarket.Side",
					"name": "side",
					"type": "uint8"
				},
				{
					"indexed": false,
					"internalType": "enum MoneyMarket.Ccy",
					"name": "ccy",
					"type": "uint8"
				},
				{
					"indexed": false,
					"internalType": "enum MoneyMarket.Term",
					"name": "term",
					"type": "uint8"
				},
				{
					"indexed": false,
					"internalType": "uint256",
					"name": "amt",
					"type": "uint256"
				},
				{
					"indexed": false,
					"internalType": "uint256",
					"name": "loanId",
					"type": "uint256"
				}
			],
			"name": "MakeLoanDeal",
			"type": "event"
		},
		{
			"anonymous": false,
			"inputs": [
				{
					"indexed": false,
					"internalType": "enum MoneyMarket.Ccy",
					"name": "ccy",
					"type": "uint8"
				},
				{
					"indexed": false,
					"internalType": "address",
					"name": "sender",
					"type": "address"
				},
				{
					"indexed": false,
					"internalType": "address",
					"name": "receiver",
					"type": "address"
				},
				{
					"indexed": true,
					"internalType": "uint256",
					"name": "loanId",
					"type": "uint256"
				},
				{
					"indexed": false,
					"internalType": "string",
					"name": "txHash",
					"type": "string"
				}
			],
			"name": "NoitfyPayment",
			"type": "event"
		},
		{
			"inputs": [
				{
					"internalType": "address",
					"name": "loanMaker",
					"type": "address"
				},
				{
					"internalType": "address",
					"name": "colUser",
					"type": "address"
				},
				{
					"internalType": "enum MoneyMarket.Side",
					"name": "side",
					"type": "uint8"
				},
				{
					"internalType": "enum MoneyMarket.Ccy",
					"name": "ccy",
					"type": "uint8"
				},
				{
					"internalType": "uint256",
					"name": "term",
					"type": "uint256"
				},
				{
					"internalType": "uint256",
					"name": "amt",
					"type": "uint256"
				},
				{
					"internalType": "uint256",
					"name": "loanId",
					"type": "uint256"
				}
			],
			"name": "confirmPayment",
			"outputs": [],
			"stateMutability": "nonpayable",
			"type": "function"
		},
		{
			"inputs": [
				{
					"components": [
						{
							"internalType": "uint256",
							"name": "loanId",
							"type": "uint256"
						},
						{
							"internalType": "address",
							"name": "lender",
							"type": "address"
						},
						{
							"internalType": "address",
							"name": "borrower",
							"type": "address"
						},
						{
							"internalType": "enum MoneyMarket.Side",
							"name": "side",
							"type": "uint8"
						},
						{
							"internalType": "enum MoneyMarket.Ccy",
							"name": "ccy",
							"type": "uint8"
						},
						{
							"internalType": "enum MoneyMarket.Term",
							"name": "term",
							"type": "uint8"
						},
						{
							"internalType": "uint256",
							"name": "amt",
							"type": "uint256"
						},
						{
							"internalType": "uint256",
							"name": "rate",
							"type": "uint256"
						},
						{
							"internalType": "uint256",
							"name": "start",
							"type": "uint256"
						},
						{
							"internalType": "uint256",
							"name": "end",
							"type": "uint256"
						},
						{
							"components": [
								{
									"internalType": "uint256[5]",
									"name": "notices",
									"type": "uint256[5]"
								},
								{
									"internalType": "uint256[5]",
									"name": "payments",
									"type": "uint256[5]"
								},
								{
									"internalType": "uint256[5]",
									"name": "amounts",
									"type": "uint256[5]"
								},
								{
									"internalType": "bool[5]",
									"name": "isDone",
									"type": "bool[5]"
								}
							],
							"internalType": "struct Loan.Schedule",
							"name": "schedule",
							"type": "tuple"
						},
						{
							"internalType": "uint256",
							"name": "pv",
							"type": "uint256"
						},
						{
							"internalType": "uint256",
							"name": "asOf",
							"type": "uint256"
						},
						{
							"internalType": "bool",
							"name": "isAvailable",
							"type": "bool"
						},
						{
							"internalType": "enum Loan.State",
							"name": "state",
							"type": "uint8"
						}
					],
					"internalType": "struct Loan.LoanItem",
					"name": "item",
					"type": "tuple"
				},
				{
					"internalType": "enum MoneyMarket.Term",
					"name": "term",
					"type": "uint8"
				},
				{
					"internalType": "uint256",
					"name": "amt",
					"type": "uint256"
				},
				{
					"internalType": "uint256",
					"name": "rate",
					"type": "uint256"
				}
			],
			"name": "fillSchedule",
			"outputs": [],
			"stateMutability": "view",
			"type": "function"
		},
		{
			"inputs": [],
			"name": "getAllBooks",
			"outputs": [
				{
					"components": [
						{
							"components": [
								{
									"internalType": "uint256",
									"name": "loanId",
									"type": "uint256"
								},
								{
									"internalType": "address",
									"name": "lender",
									"type": "address"
								},
								{
									"internalType": "address",
									"name": "borrower",
									"type": "address"
								},
								{
									"internalType": "enum MoneyMarket.Side",
									"name": "side",
									"type": "uint8"
								},
								{
									"internalType": "enum MoneyMarket.Ccy",
									"name": "ccy",
									"type": "uint8"
								},
								{
									"internalType": "enum MoneyMarket.Term",
									"name": "term",
									"type": "uint8"
								},
								{
									"internalType": "uint256",
									"name": "amt",
									"type": "uint256"
								},
								{
									"internalType": "uint256",
									"name": "rate",
									"type": "uint256"
								},
								{
									"internalType": "uint256",
									"name": "start",
									"type": "uint256"
								},
								{
									"internalType": "uint256",
									"name": "end",
									"type": "uint256"
								},
								{
									"components": [
										{
											"internalType": "uint256[5]",
											"name": "notices",
											"type": "uint256[5]"
										},
										{
											"internalType": "uint256[5]",
											"name": "payments",
											"type": "uint256[5]"
										},
										{
											"internalType": "uint256[5]",
											"name": "amounts",
											"type": "uint256[5]"
										},
										{
											"internalType": "bool[5]",
											"name": "isDone",
											"type": "bool[5]"
										}
									],
									"internalType": "struct Loan.Schedule",
									"name": "schedule",
									"type": "tuple"
								},
								{
									"internalType": "uint256",
									"name": "pv",
									"type": "uint256"
								},
								{
									"internalType": "uint256",
									"name": "asOf",
									"type": "uint256"
								},
								{
									"internalType": "bool",
									"name": "isAvailable",
									"type": "bool"
								},
								{
									"internalType": "enum Loan.State",
									"name": "state",
									"type": "uint8"
								}
							],
							"internalType": "struct Loan.LoanItem[]",
							"name": "loans",
							"type": "tuple[]"
						},
						{
							"internalType": "uint256",
							"name": "loanNum",
							"type": "uint256"
						},
						{
							"internalType": "bool",
							"name": "isValue",
							"type": "bool"
						}
					],
					"internalType": "struct Loan.LoanBook[]",
					"name": "",
					"type": "tuple[]"
				}
			],
			"stateMutability": "view",
			"type": "function"
		},
		{
			"inputs": [],
			"name": "getAllUsers",
			"outputs": [
				{
					"internalType": "address[]",
					"name": "",
					"type": "address[]"
				}
			],
			"stateMutability": "view",
			"type": "function"
		},
		{
			"inputs": [
				{
					"components": [
						{
							"internalType": "uint256[5]",
							"name": "notices",
							"type": "uint256[5]"
						},
						{
							"internalType": "uint256[5]",
							"name": "payments",
							"type": "uint256[5]"
						},
						{
							"internalType": "uint256[5]",
							"name": "amounts",
							"type": "uint256[5]"
						},
						{
							"internalType": "bool[5]",
							"name": "isDone",
							"type": "bool[5]"
						}
					],
					"internalType": "struct Loan.Schedule",
					"name": "schedule",
					"type": "tuple"
				}
			],
			"name": "getCurrentState",
			"outputs": [
				{
					"internalType": "enum Loan.State",
					"name": "",
					"type": "uint8"
				}
			],
			"stateMutability": "view",
			"type": "function"
		},
		{
			"inputs": [
				{
					"internalType": "uint256",
					"name": "loanId",
					"type": "uint256"
				}
			],
			"name": "getLoanItem",
			"outputs": [
				{
					"components": [
						{
							"internalType": "uint256",
							"name": "loanId",
							"type": "uint256"
						},
						{
							"internalType": "address",
							"name": "lender",
							"type": "address"
						},
						{
							"internalType": "address",
							"name": "borrower",
							"type": "address"
						},
						{
							"internalType": "enum MoneyMarket.Side",
							"name": "side",
							"type": "uint8"
						},
						{
							"internalType": "enum MoneyMarket.Ccy",
							"name": "ccy",
							"type": "uint8"
						},
						{
							"internalType": "enum MoneyMarket.Term",
							"name": "term",
							"type": "uint8"
						},
						{
							"internalType": "uint256",
							"name": "amt",
							"type": "uint256"
						},
						{
							"internalType": "uint256",
							"name": "rate",
							"type": "uint256"
						},
						{
							"internalType": "uint256",
							"name": "start",
							"type": "uint256"
						},
						{
							"internalType": "uint256",
							"name": "end",
							"type": "uint256"
						},
						{
							"components": [
								{
									"internalType": "uint256[5]",
									"name": "notices",
									"type": "uint256[5]"
								},
								{
									"internalType": "uint256[5]",
									"name": "payments",
									"type": "uint256[5]"
								},
								{
									"internalType": "uint256[5]",
									"name": "amounts",
									"type": "uint256[5]"
								},
								{
									"internalType": "bool[5]",
									"name": "isDone",
									"type": "bool[5]"
								}
							],
							"internalType": "struct Loan.Schedule",
							"name": "schedule",
							"type": "tuple"
						},
						{
							"internalType": "uint256",
							"name": "pv",
							"type": "uint256"
						},
						{
							"internalType": "uint256",
							"name": "asOf",
							"type": "uint256"
						},
						{
							"internalType": "bool",
							"name": "isAvailable",
							"type": "bool"
						},
						{
							"internalType": "enum Loan.State",
							"name": "state",
							"type": "uint8"
						}
					],
					"internalType": "struct Loan.LoanItem",
					"name": "",
					"type": "tuple"
				}
			],
			"stateMutability": "view",
			"type": "function"
		},
		{
			"inputs": [
				{
					"internalType": "address",
					"name": "addr",
					"type": "address"
				}
			],
			"name": "getOneBook",
			"outputs": [
				{
					"components": [
						{
							"components": [
								{
									"internalType": "uint256",
									"name": "loanId",
									"type": "uint256"
								},
								{
									"internalType": "address",
									"name": "lender",
									"type": "address"
								},
								{
									"internalType": "address",
									"name": "borrower",
									"type": "address"
								},
								{
									"internalType": "enum MoneyMarket.Side",
									"name": "side",
									"type": "uint8"
								},
								{
									"internalType": "enum MoneyMarket.Ccy",
									"name": "ccy",
									"type": "uint8"
								},
								{
									"internalType": "enum MoneyMarket.Term",
									"name": "term",
									"type": "uint8"
								},
								{
									"internalType": "uint256",
									"name": "amt",
									"type": "uint256"
								},
								{
									"internalType": "uint256",
									"name": "rate",
									"type": "uint256"
								},
								{
									"internalType": "uint256",
									"name": "start",
									"type": "uint256"
								},
								{
									"internalType": "uint256",
									"name": "end",
									"type": "uint256"
								},
								{
									"components": [
										{
											"internalType": "uint256[5]",
											"name": "notices",
											"type": "uint256[5]"
										},
										{
											"internalType": "uint256[5]",
											"name": "payments",
											"type": "uint256[5]"
										},
										{
											"internalType": "uint256[5]",
											"name": "amounts",
											"type": "uint256[5]"
										},
										{
											"internalType": "bool[5]",
											"name": "isDone",
											"type": "bool[5]"
										}
									],
									"internalType": "struct Loan.Schedule",
									"name": "schedule",
									"type": "tuple"
								},
								{
									"internalType": "uint256",
									"name": "pv",
									"type": "uint256"
								},
								{
									"internalType": "uint256",
									"name": "asOf",
									"type": "uint256"
								},
								{
									"internalType": "bool",
									"name": "isAvailable",
									"type": "bool"
								},
								{
									"internalType": "enum Loan.State",
									"name": "state",
									"type": "uint8"
								}
							],
							"internalType": "struct Loan.LoanItem[]",
							"name": "loans",
							"type": "tuple[]"
						},
						{
							"internalType": "uint256",
							"name": "loanNum",
							"type": "uint256"
						},
						{
							"internalType": "bool",
							"name": "isValue",
							"type": "bool"
						}
					],
					"internalType": "struct Loan.LoanBook",
					"name": "",
					"type": "tuple"
				}
			],
			"stateMutability": "view",
			"type": "function"
		},
		{
			"inputs": [
				{
					"internalType": "address",
					"name": "makerAddr",
					"type": "address"
				},
				{
					"internalType": "enum MoneyMarket.Side",
					"name": "side",
					"type": "uint8"
				},
				{
					"internalType": "enum MoneyMarket.Ccy",
					"name": "ccy",
					"type": "uint8"
				},
				{
					"internalType": "enum MoneyMarket.Term",
					"name": "term",
					"type": "uint8"
				},
				{
					"internalType": "uint256",
					"name": "amt",
					"type": "uint256"
				}
			],
			"name": "makeLoanDeal",
			"outputs": [],
			"stateMutability": "nonpayable",
			"type": "function"
		},
		{
			"inputs": [
				{
					"internalType": "enum MoneyMarket.Ccy",
					"name": "ccy",
					"type": "uint8"
				},
				{
					"internalType": "address",
					"name": "receiver",
					"type": "address"
				},
				{
					"internalType": "uint256",
					"name": "loanId",
					"type": "uint256"
				},
				{
					"internalType": "string",
					"name": "txHash",
					"type": "string"
				}
			],
			"name": "notifyPayment",
			"outputs": [],
			"stateMutability": "nonpayable",
			"type": "function"
		},
		{
			"inputs": [],
			"name": "updateAllPV",
			"outputs": [],
			"stateMutability": "nonpayable",
			"type": "function"
		},
		{
			"inputs": [],
			"name": "updateAllState",
			"outputs": [],
			"stateMutability": "nonpayable",
			"type": "function"
		},
		{
			"inputs": [
				{
					"internalType": "address",
					"name": "loanMaker",
					"type": "address"
				},
				{
					"internalType": "address",
					"name": "colUser",
					"type": "address"
				},
				{
					"internalType": "uint256",
					"name": "loanId",
					"type": "uint256"
				}
			],
			"name": "updateState",
			"outputs": [],
			"stateMutability": "nonpayable",
			"type": "function"
		},
		{
			"inputs": [
				{
					"internalType": "address",
					"name": "addr",
					"type": "address"
				}
			],
			"name": "updateUserPV",
			"outputs": [],
			"stateMutability": "nonpayable",
			"type": "function"
		}
	]
}