{
	"data": {
		"bytecode": {
			"linkReferences": {},
			"object": "60806040526040518060c001604052806276a70063ffffffff16815260200162ed4e0063ffffffff1681526020016301e1338063ffffffff1681526020016303c2670063ffffffff1681526020016305a39a8063ffffffff168152602001630966018063ffffffff1681525060009060066200007d92919062000600565b506040518060c00160405280610168605a61271002816200009a57fe5b04815260200161016860b46127100281620000b157fe5b0481526020016001612710028152602001600161271002815260200160016127100281526020016001612710028152506006906006620000f39291906200064d565b5060405180602001604052806276a70062ffffff16815250600c9060016200011d92919062000692565b50604051806020016040528062ed4e0062ffffff1681525060119060016200014792919062000692565b5060405180602001604052806301e1338063ffffffff16815250601690600162000173929190620006de565b5060405180604001604052806301e1338063ffffffff1681526020016303c2670063ffffffff16815250601b906002620001af9291906200072b565b5060405180606001604052806301e1338063ffffffff1681526020016303c2670063ffffffff1681526020016305a39a8063ffffffff168152506020906003620001fb92919062000778565b506040518060a001604052806301e1338063ffffffff1681526020016303c2670063ffffffff1681526020016305a39a8063ffffffff168152602001630784ce0063ffffffff168152602001630966018063ffffffff16815250602590600562000267929190620007c5565b506040518060c00160405280600c600580602002604051908101604052809291908260058015620002ae576020028201915b81548152602001906001019080831162000299575b505050505081526020016011600580602002604051908101604052809291908260058015620002f3576020028201915b815481526020019060010190808311620002de575b50505050508152602001601660058060200260405190810160405280929190826005801562000338576020028201915b81548152602001906001019080831162000323575b50505050508152602001601b6005806020026040519081016040528092919082600580156200037d576020028201915b81548152602001906001019080831162000368575b505050505081526020016020600580602002604051908101604052809291908260058015620003c2576020028201915b815481526020019060010190808311620003ad575b50505050508152602001602560058060200260405190810160405280929190826005801562000407576020028201915b815481526020019060010190808311620003f2575b5050505050815250602a9060066200042192919062000812565b506040518060c00160405280600180028152602001600180028152602001600180028152602001600160020281526020016001600302815260200160016005028152506048906006620004769291906200064d565b506040518060e001604052806276a70063ffffffff16815260200162ed4e0063ffffffff1681526020016301e1338063ffffffff1681526020016303c2670063ffffffff1681526020016305a39a8063ffffffff168152602001630784ce0063ffffffff168152602001630966018063ffffffff16815250604e906007620005009291906200086a565b503480156200050e57600080fd5b506040516200476f3803806200476f83398181016040528101906200053491906200097d565b82605760006101000a81548173ffffffffffffffffffffffffffffffffffffffff021916908373ffffffffffffffffffffffffffffffffffffffff16021790555081605860006101000a81548173ffffffffffffffffffffffffffffffffffffffff021916908373ffffffffffffffffffffffffffffffffffffffff16021790555080605960006101000a81548173ffffffffffffffffffffffffffffffffffffffff021916908373ffffffffffffffffffffffffffffffffffffffff16021790555050505062000a21565b82600681019282156200063a579160200282015b8281111562000639578251829063ffffffff1690559160200191906001019062000614565b5b509050620006499190620008b7565b5090565b82600681019282156200067f579160200282015b828111156200067e57825182559160200191906001019062000661565b5b5090506200068e9190620008b7565b5090565b8260058101928215620006cb579160200282015b82811115620006ca578251829062ffffff16905591602001919060010190620006a6565b5b509050620006da9190620008b7565b5090565b826005810192821562000718579160200282015b8281111562000717578251829063ffffffff16905591602001919060010190620006f2565b5b509050620007279190620008b7565b5090565b826005810192821562000765579160200282015b8281111562000764578251829063ffffffff169055916020019190600101906200073f565b5b509050620007749190620008b7565b5090565b8260058101928215620007b2579160200282015b82811115620007b1578251829063ffffffff169055916020019190600101906200078c565b5b509050620007c19190620008b7565b5090565b8260058101928215620007ff579160200282015b82811115620007fe578251829063ffffffff16905591602001919060010190620007d9565b5b5090506200080e9190620008b7565b5090565b826006600502810192821562000857579160200282015b82811115620008565782518290600562000845929190620008d6565b509160200191906005019062000829565b5b5090506200086691906200091b565b5090565b8260078101928215620008a4579160200282015b82811115620008a3578251829063ffffffff169055916020019190600101906200087e565b5b509050620008b39190620008b7565b5090565b5b80821115620008d2576000816000905550600101620008b8565b5090565b826005810192821562000908579160200282015b8281111562000907578251825591602001919060010190620008ea565b5b509050620009179190620008b7565b5090565b5b808211156200093f576000818162000935919062000943565b506005016200091c565b5090565b506000815560010160008155600101600081556001016000815560010160009055565b600081519050620009778162000a07565b92915050565b6000806000606084860312156200099357600080fd5b6000620009a38682870162000966565b9350506020620009b68682870162000966565b9250506040620009c98682870162000966565b9150509250925092565b6000620009e082620009e7565b9050919050565b600073ffffffffffffffffffffffffffffffffffffffff82169050919050565b62000a1281620009d3565b811462000a1e57600080fd5b50565b613d3e8062000a316000396000f3fe608060405234801561001057600080fd5b50600436106100cf5760003560e01c806373b18b4c1161008c578063b677aa2e11610066578063b677aa2e1461020e578063cb1051881461022a578063d003a97e14610234578063e2842d791461023e576100cf565b806373b18b4c146101a65780638257a504146101c2578063995a2001146101f2576100cf565b80631d244afa146100d4578063354528e8146100f057806345cf5cc01461010e5780634ef8fe5b1461012a57806357d8df5a1461014657806361fda82a14610176575b600080fd5b6100ee60048036038101906100e99190612c32565b61025c565b005b6100f86102a0565b60405161010591906136c2565b60405180910390f35b61012860048036038101906101239190612b42565b61074c565b005b610144600480360381019061013f9190612a7b565b610ad2565b005b610160600480360381019061015b9190612a7b565b610b5b565b60405161016d91906138cc565b60405180910390f35b610190600480360381019061018b9190612d3e565b610f47565b60405161019d91906138ee565b60405180910390f35b6101c060048036038101906101bb9190612cad565b611011565b005b6101dc60048036038101906101d79190612d14565b61118f565b6040516101e991906137f1565b60405180910390f35b61020c60048036038101906102079190612b91565b61124e565b005b61022860048036038101906102239190612aa4565b6118b3565b005b610232611aec565b005b61023c611aee565b005b610246611bcb565b60405161025391906136a0565b60405180910390f35b817fc078863e7ade0c5659980a387d8552e7ee23b544977aa247769231095482a60c8533868560405161029294939291906136e4565b60405180910390a250505050565b60608060568054905067ffffffffffffffff811180156102bf57600080fd5b506040519080825280602002602001820160405280156102f957816020015b6102e661220f565b8152602001906001900390816102de5790505b50905060005b60568054905081101561074457605560006056838154811061031d57fe5b9060005260206000200160009054906101000a900473ffffffffffffffffffffffffffffffffffffffff1673ffffffffffffffffffffffffffffffffffffffff1673ffffffffffffffffffffffffffffffffffffffff16815260200190815260200160002060405180606001604052908160008201805480602002602001604051908101604052809291908181526020016000905b828210156106f357838290600052602060002090601a0201604051806101e0016040529081600082015481526020016001820160009054906101000a900473ffffffffffffffffffffffffffffffffffffffff1673ffffffffffffffffffffffffffffffffffffffff1673ffffffffffffffffffffffffffffffffffffffff1681526020016002820160009054906101000a900473ffffffffffffffffffffffffffffffffffffffff1673ffffffffffffffffffffffffffffffffffffffff1673ffffffffffffffffffffffffffffffffffffffff1681526020016002820160149054906101000a900460ff1660018111156104aa57fe5b60018111156104b557fe5b81526020016002820160159054906101000a900460ff1660028111156104d757fe5b60028111156104e257fe5b81526020016002820160169054906101000a900460ff16600581111561050457fe5b600581111561050f57fe5b8152602001600382015481526020016004820154815260200160058201548152602001600682015481526020016007820160405180608001604052908160008201600580602002604051908101604052809291908260058015610587576020028201915b815481526020019060010190808311610573575b50505050508152602001600582016005806020026040519081016040528092919082600580156105cc576020028201915b8154815260200190600101908083116105b8575b50505050508152602001600a8201600580602002604051908101604052809291908260058015610611576020028201915b8154815260200190600101908083116105fd575b50505050508152602001600f820160058060200260405190810160405280929190826005801561067b576020028201916000905b82829054906101000a900460ff161515815260200190600101906020826000010492830192600103820291508084116106455790505b505050505081525050815260200160178201548152602001601882015481526020016019820160009054906101000a900460ff161515151581526020016019820160019054906101000a900460ff1660058111156106d557fe5b60058111156106e057fe5b81525050815260200190600101906103b2565b505050508152602001600182015481526020016002820160009054906101000a900460ff16151515158152505082828151811061072c57fe5b602002602001018190525080806001019150506102ff565b508091505090565b6000605560008573ffffffffffffffffffffffffffffffffffffffff1673ffffffffffffffffffffffffffffffffffffffff168152602001908152602001600020905060008160000183815481106107a057fe5b90600052602060002090601a02019050600060058111156107bd57fe5b8160190160019054906101000a900460ff1660058111156107da57fe5b1415610926578060020160009054906101000a900473ffffffffffffffffffffffffffffffffffffffff1673ffffffffffffffffffffffffffffffffffffffff168473ffffffffffffffffffffffffffffffffffffffff1614610872576040517f08c379a0000000000000000000000000000000000000000000000000000000008152600401610869906138ac565b60405180910390fd5b60018160190160016101000a81548160ff0219169083600581111561089357fe5b0217905550605960009054906101000a900473ffffffffffffffffffffffffffffffffffffffff1673ffffffffffffffffffffffffffffffffffffffff166374e8de77856040518263ffffffff1660e01b81526004016108f391906135d1565b600060405180830381600087803b15801561090d57600080fd5b505af1158015610921573d6000803e3d6000fd5b505050505b6001600581111561093357fe5b8160190160019054906101000a900460ff16600581111561095057fe5b1415610acb57610aa681600701604051806080016040529081600082016005806020026040519081016040528092919082600580156109a4576020028201915b815481526020019060010190808311610990575b50505050508152602001600582016005806020026040519081016040528092919082600580156109e9576020028201915b8154815260200190600101908083116109d5575b50505050508152602001600a8201600580602002604051908101604052809291908260058015610a2e576020028201915b815481526020019060010190808311610a1a575b50505050508152602001600f8201600580602002604051908101604052809291908260058015610a98576020028201916000905b82829054906101000a900460ff16151581526020019060010190602082600001049283019260010382029150808411610a625790505b50505050508152505061118f565b8160190160016101000a81548160ff02191690836005811115610ac557fe5b02179055505b5050505050565b6000605560008373ffffffffffffffffffffffffffffffffffffffff1673ffffffffffffffffffffffffffffffffffffffff168152602001908152602001600020600001905060005b8180549050811015610b5657610b49828281548110610b3657fe5b90600052602060002090601a0201611c59565b8080600101915050610b1b565b505050565b610b6361220f565b605560008373ffffffffffffffffffffffffffffffffffffffff1673ffffffffffffffffffffffffffffffffffffffff16815260200190815260200160002060405180606001604052908160008201805480602002602001604051908101604052809291908181526020016000905b82821015610f1357838290600052602060002090601a0201604051806101e0016040529081600082015481526020016001820160009054906101000a900473ffffffffffffffffffffffffffffffffffffffff1673ffffffffffffffffffffffffffffffffffffffff1673ffffffffffffffffffffffffffffffffffffffff1681526020016002820160009054906101000a900473ffffffffffffffffffffffffffffffffffffffff1673ffffffffffffffffffffffffffffffffffffffff1673ffffffffffffffffffffffffffffffffffffffff1681526020016002820160149054906101000a900460ff166001811115610cca57fe5b6001811115610cd557fe5b81526020016002820160159054906101000a900460ff166002811115610cf757fe5b6002811115610d0257fe5b81526020016002820160169054906101000a900460ff166005811115610d2457fe5b6005811115610d2f57fe5b8152602001600382015481526020016004820154815260200160058201548152602001600682015481526020016007820160405180608001604052908160008201600580602002604051908101604052809291908260058015610da7576020028201915b815481526020019060010190808311610d93575b5050505050815260200160058201600580602002604051908101604052809291908260058015610dec576020028201915b815481526020019060010190808311610dd8575b50505050508152602001600a8201600580602002604051908101604052809291908260058015610e31576020028201915b815481526020019060010190808311610e1d575b50505050508152602001600f8201600580602002604051908101604052809291908260058015610e9b576020028201916000905b82829054906101000a900460ff16151581526020019060010190602082600001049283019260010382029150808411610e655790505b505050505081525050815260200160178201548152602001601882015481526020016019820160009054906101000a900460ff161515151581526020016019820160019054906101000a900460ff166005811115610ef557fe5b6005811115610f0057fe5b8152505081526020019060010190610bd2565b505050508152602001600182015481526020016002820160009054906101000a900460ff1615151515815250509050919050565b610f4f612232565b605560003373ffffffffffffffffffffffffffffffffffffffff1673ffffffffffffffffffffffffffffffffffffffff16815260200190815260200160002060020160009054906101000a900460ff16610fde576040517f08c379a0000000000000000000000000000000000000000000000000000000008152600401610fd59061382c565b60405180910390fd5b610fe661220f565b610fef33610b5b565b90508060000151838151811061100157fe5b6020026020010151915050919050565b6000604884600581111561102157fe5b6006811061102b57fe5b01549050611037612308565b602a85600581111561104557fe5b6006811061104f57fe5b6005020160058060200260405190810160405280929190826005801561108a576020028201915b815481526020019060010190808311611076575b5050505050905060005b828110156111865762127500428383600581106110ad57fe5b602002015101038761014001516000015182600581106110c957fe5b602002018181525050428282600581106110df57fe5b6020020151018761014001516020015182600581106110fa57fe5b60200201818152505061271080600688600581111561111557fe5b6006811061111f57fe5b0154868802028161112c57fe5b048161113457fe5b0487610140015160400151826005811061114a57fe5b602002018181525050600087610140015160600151826005811061116a57fe5b6020020190151590811515815250508080600101915050611094565b50505050505050565b600080600090505b60056001028110156111d65760001515836060015182600581106111b757fe5b6020020151151514156111c9576111d6565b8080600101915050611197565b826000015181600581106111e657fe5b60200201514210156111fc576001915050611249565b8260200151816005811061120c57fe5b60200201514211611221576002915050611249565b428360200151826005811061123257fe5b60200201511015611247576003915050611249565b505b919050565b3373ffffffffffffffffffffffffffffffffffffffff168573ffffffffffffffffffffffffffffffffffffffff1614156112bd576040517f08c379a00000000000000000000000000000000000000000000000000000000081526004016112b49061380c565b60405180910390fd5b600060018111156112ca57fe5b8460018111156112d657fe5b141561136e57605960009054906101000a900473ffffffffffffffffffffffffffffffffffffffff1673ffffffffffffffffffffffffffffffffffffffff166331f652db8483336040518463ffffffff1660e01b815260040161133b93929190613767565b600060405180830381600087803b15801561135557600080fd5b505af1158015611369573d6000803e3d6000fd5b505050505b60018081111561137a57fe5b84600181111561138657fe5b141561141e57605960009054906101000a900473ffffffffffffffffffffffffffffffffffffffff1673ffffffffffffffffffffffffffffffffffffffff166331f652db8483886040518463ffffffff1660e01b81526004016113eb93929190613730565b600060405180830381600087803b15801561140557600080fd5b505af1158015611419573d6000803e3d6000fd5b505050505b6000605760009054906101000a900473ffffffffffffffffffffffffffffffffffffffff1673ffffffffffffffffffffffffffffffffffffffff1663524bc34a87878787876040518663ffffffff1660e01b81526004016114839594939291906135ec565b602060405180830381600087803b15801561149d57600080fd5b505af11580156114b1573d6000803e3d6000fd5b505050506040513d601f19601f820116820180604052508101906114d59190612d67565b90506000605560008873ffffffffffffffffffffffffffffffffffffffff1673ffffffffffffffffffffffffffffffffffffffff168152602001908152602001600020905061152261232a565b6040518060a001604052808973ffffffffffffffffffffffffffffffffffffffff16815260200188600181111561155557fe5b815260200187600281111561156657fe5b815260200186600581111561157757fe5b815260200185815250905061158a612232565b6115a7828585600101600081548092919060010191905055611eb0565b9050826000018190806001815401808255809150506001900390600052602060002090601a02016000909190919091506000820151816000015560208201518160010160006101000a81548173ffffffffffffffffffffffffffffffffffffffff021916908373ffffffffffffffffffffffffffffffffffffffff16021790555060408201518160020160006101000a81548173ffffffffffffffffffffffffffffffffffffffff021916908373ffffffffffffffffffffffffffffffffffffffff16021790555060608201518160020160146101000a81548160ff0219169083600181111561169357fe5b021790555060808201518160020160156101000a81548160ff021916908360028111156116bc57fe5b021790555060a08201518160020160166101000a81548160ff021916908360058111156116e557fe5b021790555060c0820151816003015560e082015181600401556101008201518160050155610120820151816006015561014082015181600701600082015181600001906005611735929190612390565b5060208201518160050190600561174d929190612390565b50604082015181600a01906005611765929190612390565b50606082015181600f0190600561177d9291906123d0565b505050610160820151816017015561018082015181601801556101a08201518160190160006101000a81548160ff0219169083151502179055506101c08201518160190160016101000a81548160ff021916908360058111156117dc57fe5b0217905550505060018360020160006101000a81548160ff0219169083151502179055506056339080600181540180825580915050600190039060005260206000200160009091909190916101000a81548173ffffffffffffffffffffffffffffffffffffffff021916908373ffffffffffffffffffffffffffffffffffffffff1602179055507f787a470148c364ff9c70e82b2c6c1b0becbca7969011737f1f93ce9307b424e9898989898986600001516040516118a09695949392919061363f565b60405180910390a1505050505050505050565b6000605560008973ffffffffffffffffffffffffffffffffffffffff1673ffffffffffffffffffffffffffffffffffffffff1681526020019081526020016000209050600081600001838154811061190757fe5b90600052602060002090601a020190508060030154841461195d576040517f08c379a00000000000000000000000000000000000000000000000000000000081526004016119549061384c565b60405180910390fd5b6000600181111561196a57fe5b87600181111561197657fe5b14156119fa578773ffffffffffffffffffffffffffffffffffffffff163373ffffffffffffffffffffffffffffffffffffffff16146119ea576040517f08c379a00000000000000000000000000000000000000000000000000000000081526004016119e19061386c565b60405180910390fd5b6119f589898561074c565b611a74565b8873ffffffffffffffffffffffffffffffffffffffff163373ffffffffffffffffffffffffffffffffffffffff1614611a68576040517f08c379a0000000000000000000000000000000000000000000000000000000008152600401611a5f9061388c565b60405180910390fd5b611a7389898561074c565b5b8773ffffffffffffffffffffffffffffffffffffffff168973ffffffffffffffffffffffffffffffffffffffff167f52f2cbddb551a0cd4ad65095542b2efd13cd261642f4034c3b0c01b232c2591d8989898989604051611ad995949392919061379e565b60405180910390a3505050505050505050565b565b60005b605680549050811015611bc85760006055600060568481548110611b1157fe5b9060005260206000200160009054906101000a900473ffffffffffffffffffffffffffffffffffffffff1673ffffffffffffffffffffffffffffffffffffffff1673ffffffffffffffffffffffffffffffffffffffff168152602001908152602001600020600001905060005b8180549050811015611bb957611bac828281548110611b9957fe5b90600052602060002090601a0201611c59565b8080600101915050611b7e565b50508080600101915050611af1565b50565b60606056805480602002602001604051908101604052809291908181526020018280548015611c4f57602002820191906000526020600020905b8160009054906101000a900473ffffffffffffffffffffffffffffffffffffffff1673ffffffffffffffffffffffffffffffffffffffff1681526020019060010190808311611c05575b5050505050905090565b611c61612469565b605760009054906101000a900473ffffffffffffffffffffffffffffffffffffffff1673ffffffffffffffffffffffffffffffffffffffff1663069fa00c6040518163ffffffff1660e01b81526004016102a06040518083038186803b158015611cca57600080fd5b505afa158015611cde573d6000803e3d6000fd5b505050506040513d601f19601f82011682018060405250810190611d029190612c08565b9050611d0c612496565b818360020160159054906101000a900460ff166002811115611d2a57fe5b60038110611d3457fe5b60200201519050611d436124d3565b6040518060e0016040528083600001518152602001836020015181526020018360400151815260200183606001518152602001836080015181526020018360a0015181526020018360c001518152509050611d9c612308565b6000805b60488760020160169054906101000a900460ff166005811115611dbf57fe5b60068110611dc957fe5b0154811015611e3c576000611df185896007016005018460058110611dea57fe5b01546120c1565b905080848360058110611e0057fe5b6020020181815250506127108189600701600a018460058110611e1f57fe5b01540281611e2957fe5b0483019250508080600101915050611da0565b506000600160488860020160169054906101000a900460ff166005811115611e6057fe5b60068110611e6a57fe5b0154039050612710838260058110611e7e57fe5b602002015188600301540281611e9057fe5b048201915081876017018190555042876018018190555050505050505050565b611eb8612232565b611ec0612232565b8281600001818152505060006001811115611ed757fe5b85602001516001811115611ee757fe5b14611ef25733611ef8565b84600001515b816020019073ffffffffffffffffffffffffffffffffffffffff16908173ffffffffffffffffffffffffffffffffffffffff1681525050600180811115611f3b57fe5b85602001516001811115611f4b57fe5b14611f565733611f5c565b84600001515b816040019073ffffffffffffffffffffffffffffffffffffffff16908173ffffffffffffffffffffffffffffffffffffffff1681525050846020015181606001906001811115611fa857fe5b90816001811115611fb557fe5b81525050846040015181608001906002811115611fce57fe5b90816002811115611fdb57fe5b8152505084606001518160a001906005811115611ff457fe5b9081600581111561200157fe5b8152505084608001518160c0018181525050838160e0018181525050428161010001818152505060008560600151600581111561203a57fe5b6006811061204457fe5b0154420181610120018181525050612066818660600151876080015187611011565b84608001518161016001818152505042816101800181815250506001816101a00190151590811515815250506000816101c0019060058111156120a557fe5b908160058111156120b257fe5b81525050809150509392505050565b60004282116120d35760009050612209565b60004283039050604e6000600781106120e857fe5b0154811161212457604e6000600781106120fe57fe5b0154818560006007811061210e57fe5b6020020151028161211b57fe5b04915050612209565b6000600190505b60078110156122065781604e600183036007811061214557fe5b01541080156121625750604e816007811061215c57fe5b01548211155b156121f9576000604e600183036007811061217957fe5b015483039050600083604e846007811061218f57fe5b01540390506000604e60018503600781106121a657fe5b0154604e85600781106121b557fe5b015403905080838986600781106121c857fe5b602002015102838a60018803600781106121de57fe5b60200201510201816121ec57fe5b0495505050505050612209565b808060010191505061212b565b50505b92915050565b604051806060016040528060608152602001600081526020016000151581525090565b604051806101e0016040528060008152602001600073ffffffffffffffffffffffffffffffffffffffff168152602001600073ffffffffffffffffffffffffffffffffffffffff1681526020016000600181111561228c57fe5b81526020016000600281111561229e57fe5b8152602001600060058111156122b057fe5b8152602001600081526020016000815260200160008152602001600081526020016122d96124f5565b815260200160008152602001600081526020016000151581526020016000600581111561230257fe5b81525090565b6040518060a00160405280600590602082028036833780820191505090505090565b6040518060a00160405280600073ffffffffffffffffffffffffffffffffffffffff1681526020016000600181111561235f57fe5b81526020016000600281111561237157fe5b81526020016000600581111561238357fe5b8152602001600081525090565b82600581019282156123bf579160200282015b828111156123be5782518255916020019190600101906123a3565b5b5090506123cc9190612535565b5090565b826005601f016020900481019282156124585791602002820160005b8382111561242957835183826101000a81548160ff02191690831515021790555092602001926001016020816000010492830192600103026123ec565b80156124565782816101000a81549060ff0219169055600101602081600001049283019260010302612429565b505b5090506124659190612552565b5090565b60405180606001604052806003905b612480612496565b8152602001906001900390816124785790505090565b6040518060e00160405280600081526020016000815260200160008152602001600081526020016000815260200160008152602001600081525090565b6040518060e00160405280600790602082028036833780820191505090505090565b6040518060800160405280612508612308565b8152602001612515612308565b8152602001612522612308565b815260200161252f61257a565b81525090565b5b8082111561254e576000816000905550600101612536565b5090565b5b8082111561257657600081816101000a81549060ff021916905550600101612553565b5090565b6040518060a00160405280600590602082028036833780820191505090505090565b6000813590506125ab81613c83565b92915050565b600082601f8301126125c257600080fd5b60056125d56125d082613937565b61390a565b915081838560208402820111156125eb57600080fd5b60005b8381101561261b5781612601888261270d565b8452602084019350602083019250506001810190506125ee565b5050505092915050565b600082601f83011261263657600080fd5b600361264961264482613959565b61390a565b915081838560e084028201111561265f57600080fd5b60005b8381101561268f578161267588826127ca565b845260208401935060e08301925050600181019050612662565b5050505092915050565b600082601f8301126126aa57600080fd5b60056126bd6126b88261397b565b61390a565b915081838560208402820111156126d357600080fd5b60005b8381101561270357816126e98882612a51565b8452602084019350602083019250506001810190506126d6565b5050505092915050565b60008135905061271c81613c9a565b92915050565b60008135905061273181613cb1565b92915050565b60008135905061274681613cc1565b92915050565b60008135905061275b81613cd1565b92915050565b60008135905061277081613ce1565b92915050565b600082601f83011261278757600080fd5b813561279a6127958261399d565b61390a565b915080825260208301602083018583830111156127b657600080fd5b6127c1838284613bfc565b50505092915050565b600060e082840312156127dc57600080fd5b6127e660e061390a565b905060006127f684828501612a66565b600083015250602061280a84828501612a66565b602083015250604061281e84828501612a66565b604083015250606061283284828501612a66565b606083015250608061284684828501612a66565b60808301525060a061285a84828501612a66565b60a08301525060c061286e84828501612a66565b60c08301525092915050565b6000610440828403121561288d57600080fd5b6128986101e061390a565b905060006128a884828501612a51565b60008301525060206128bc8482850161259c565b60208301525060406128d08482850161259c565b60408301525060606128e484828501612737565b60608301525060806128f884828501612722565b60808301525060a061290c84828501612761565b60a08301525060c061292084828501612a51565b60c08301525060e061293484828501612a51565b60e08301525061010061294984828501612a51565b6101008301525061012061295f84828501612a51565b61012083015250610140612975848285016129da565b610140830152506103c061298b84828501612a51565b610160830152506103e06129a184828501612a51565b610180830152506104006129b78482850161270d565b6101a0830152506104206129cd8482850161274c565b6101c08301525092915050565b600061028082840312156129ed57600080fd5b6129f7608061390a565b90506000612a0784828501612699565b60008301525060a0612a1b84828501612699565b602083015250610140612a3084828501612699565b6040830152506101e0612a45848285016125b1565b60608301525092915050565b600081359050612a6081613cf1565b92915050565b600081519050612a7581613cf1565b92915050565b600060208284031215612a8d57600080fd5b6000612a9b8482850161259c565b91505092915050565b600080600080600080600060e0888a031215612abf57600080fd5b6000612acd8a828b0161259c565b9750506020612ade8a828b0161259c565b9650506040612aef8a828b01612737565b9550506060612b008a828b01612722565b9450506080612b118a828b01612a51565b93505060a0612b228a828b01612a51565b92505060c0612b338a828b01612a51565b91505092959891949750929550565b600080600060608486031215612b5757600080fd5b6000612b658682870161259c565b9350506020612b768682870161259c565b9250506040612b8786828701612a51565b9150509250925092565b600080600080600060a08688031215612ba957600080fd5b6000612bb78882890161259c565b9550506020612bc888828901612737565b9450506040612bd988828901612722565b9350506060612bea88828901612761565b9250506080612bfb88828901612a51565b9150509295509295909350565b60006102a08284031215612c1b57600080fd5b6000612c2984828501612625565b91505092915050565b60008060008060808587031215612c4857600080fd5b6000612c5687828801612722565b9450506020612c678782880161259c565b9350506040612c7887828801612a51565b925050606085013567ffffffffffffffff811115612c9557600080fd5b612ca187828801612776565b91505092959194509250565b6000806000806104a08587031215612cc457600080fd5b6000612cd28782880161287a565b945050610440612ce487828801612761565b935050610460612cf687828801612a51565b925050610480612d0887828801612a51565b91505092959194509250565b60006102808284031215612d2757600080fd5b6000612d35848285016129da565b91505092915050565b600060208284031215612d5057600080fd5b6000612d5e84828501612a51565b91505092915050565b600060208284031215612d7957600080fd5b6000612d8784828501612a66565b91505092915050565b6000612d9c8383612e14565b60208301905092915050565b6000612db48383613011565b60208301905092915050565b6000612dcc8383613251565b905092915050565b6000612de083836132f1565b6104408301905092915050565b6000612df983836135b3565b60208301905092915050565b612e0e81613b7e565b82525050565b612e1d81613aea565b82525050565b612e2c81613aea565b82525050565b6000612e3d82613a0d565b612e478185613a90565b9350612e52836139c9565b8060005b83811015612e83578151612e6a8882612d90565b9750612e7583613a4f565b925050600181019050612e56565b5085935050505092915050565b612e9981613a18565b612ea38184613aa1565b9250612eae826139d9565b8060005b83811015612edf578151612ec68782612da8565b9650612ed183613a5c565b925050600181019050612eb2565b505050505050565b6000612ef282613a23565b612efc8185613aac565b935083602082028501612f0e856139e3565b8060005b85811015612f4a5784840389528151612f2b8582612dc0565b9450612f3683613a69565b925060208a01995050600181019050612f12565b50829750879550505050505092915050565b6000612f6782613a2e565b612f718185613abd565b9350612f7c836139f3565b8060005b83811015612fad578151612f948882612dd4565b9750612f9f83613a76565b925050600181019050612f80565b5085935050505092915050565b612fc381613a39565b612fcd8184613ace565b9250612fd882613a03565b8060005b83811015613009578151612ff08782612ded565b9650612ffb83613a83565b925050600181019050612fdc565b505050505050565b61301a81613afc565b82525050565b61302981613b90565b82525050565b61303881613b90565b82525050565b61304781613ba2565b82525050565b61305681613ba2565b82525050565b61306581613bb4565b82525050565b61307481613bb4565b82525050565b61308381613bc6565b82525050565b61309281613bc6565b82525050565b60006130a382613a44565b6130ad8185613ad9565b93506130bd818560208601613c0b565b6130c681613c3e565b840191505092915050565b60006130de601f83613ad9565b91507f53616d6520706572736f6e206465616c206973206e6f7420616c6c6f776564006000830152602082019050919050565b600061311e601283613ad9565b91507f6e6f206c6f616e206974656d20666f756e6400000000000000000000000000006000830152602082019050919050565b600061315e601883613ad9565b91507f636f6e6669726d20616d6f756e74206e6f74206d6174636800000000000000006000830152602082019050919050565b600061319e601a83613ad9565b91507f6d73672e73656e646572206973206e6f7420626f72726f7765720000000000006000830152602082019050919050565b60006131de601883613ad9565b91507f6d73672e73656e646572206973206e6f74206c656e64657200000000000000006000830152602082019050919050565b600061321e601583613ad9565b91507f626f72726f776572206d75737420636f6e6669726d00000000000000000000006000830152602082019050919050565b6000606083016000830151848203600086015261326e8282612f5c565b915050602083015161328360208601826135b3565b5060408301516132966040860182613011565b508091505092915050565b600060608301600083015184820360008601526132be8282612f5c565b91505060208301516132d360208601826135b3565b5060408301516132e66040860182613011565b508091505092915050565b6104408201600082015161330860008501826135b3565b50602082015161331b6020850182612e14565b50604082015161332e6040850182612e14565b506060820151613341606085018261303e565b5060808201516133546080850182613020565b5060a082015161336760a085018261307a565b5060c082015161337a60c08501826135b3565b5060e082015161338d60e08501826135b3565b506101008201516133a26101008501826135b3565b506101208201516133b76101208501826135b3565b506101408201516133cc61014085018261355b565b506101608201516133e16103c08501826135b3565b506101808201516133f66103e08501826135b3565b506101a082015161340b610400850182613011565b506101c082015161342061042085018261305c565b50505050565b6104408201600082015161343d60008501826135b3565b5060208201516134506020850182612e14565b5060408201516134636040850182612e14565b506060820151613476606085018261303e565b5060808201516134896080850182613020565b5060a082015161349c60a085018261307a565b5060c08201516134af60c08501826135b3565b5060e08201516134c260e08501826135b3565b506101008201516134d76101008501826135b3565b506101208201516134ec6101208501826135b3565b5061014082015161350161014085018261355b565b506101608201516135166103c08501826135b3565b5061018082015161352b6103e08501826135b3565b506101a0820151613540610400850182613011565b506101c082015161355561042085018261305c565b50505050565b610280820160008201516135726000850182612fba565b50602082015161358560a0850182612fba565b506040820151613599610140850182612fba565b5060608201516135ad6101e0850182612e90565b50505050565b6135bc81613b74565b82525050565b6135cb81613b74565b82525050565b60006020820190506135e66000830184612e23565b92915050565b600060a0820190506136016000830188612e23565b61360e602083018761304d565b61361b604083018661302f565b6136286060830185613089565b61363560808301846135c2565b9695505050505050565b600060c0820190506136546000830189612e23565b613661602083018861304d565b61366e604083018761302f565b61367b6060830186613089565b61368860808301856135c2565b61369560a08301846135c2565b979650505050505050565b600060208201905081810360008301526136ba8184612e32565b905092915050565b600060208201905081810360008301526136dc8184612ee7565b905092915050565b60006080820190506136f9600083018761302f565b6137066020830186612e05565b6137136040830185612e23565b81810360608301526137258184613098565b905095945050505050565b6000606082019050613745600083018661302f565b61375260208301856135c2565b61375f6040830184612e23565b949350505050565b600060608201905061377c600083018661302f565b61378960208301856135c2565b6137966040830184612e05565b949350505050565b600060a0820190506137b3600083018861304d565b6137c0602083018761302f565b6137cd60408301866135c2565b6137da60608301856135c2565b6137e760808301846135c2565b9695505050505050565b6000602082019050613806600083018461306b565b92915050565b60006020820190508181036000830152613825816130d1565b9050919050565b6000602082019050818103600083015261384581613111565b9050919050565b6000602082019050818103600083015261386581613151565b9050919050565b6000602082019050818103600083015261388581613191565b9050919050565b600060208201905081810360008301526138a5816131d1565b9050919050565b600060208201905081810360008301526138c581613211565b9050919050565b600060208201905081810360008301526138e681846132a1565b905092915050565b6000610440820190506139046000830184613426565b92915050565b6000604051905081810181811067ffffffffffffffff8211171561392d57600080fd5b8060405250919050565b600067ffffffffffffffff82111561394e57600080fd5b602082029050919050565b600067ffffffffffffffff82111561397057600080fd5b602082029050919050565b600067ffffffffffffffff82111561399257600080fd5b602082029050919050565b600067ffffffffffffffff8211156139b457600080fd5b601f19601f8301169050602081019050919050565b6000819050602082019050919050565b6000819050919050565b6000819050602082019050919050565b6000819050602082019050919050565b6000819050919050565b600081519050919050565b600060059050919050565b600081519050919050565b600081519050919050565b600060059050919050565b600081519050919050565b6000602082019050919050565b6000602082019050919050565b6000602082019050919050565b6000602082019050919050565b6000602082019050919050565b600082825260208201905092915050565b600081905092915050565b600082825260208201905092915050565b600082825260208201905092915050565b600081905092915050565b600082825260208201905092915050565b6000613af582613b54565b9050919050565b60008115159050919050565b6000819050613b1682613c4f565b919050565b6000819050613b2982613c5c565b919050565b6000819050613b3c82613c69565b919050565b6000819050613b4f82613c76565b919050565b600073ffffffffffffffffffffffffffffffffffffffff82169050919050565b6000819050919050565b6000613b8982613bd8565b9050919050565b6000613b9b82613b08565b9050919050565b6000613bad82613b1b565b9050919050565b6000613bbf82613b2e565b9050919050565b6000613bd182613b41565b9050919050565b6000613be382613bea565b9050919050565b6000613bf582613b54565b9050919050565b82818337600083830152505050565b60005b83811015613c29578082015181840152602081019050613c0e565b83811115613c38576000848401525b50505050565b6000601f19601f8301169050919050565b60038110613c5957fe5b50565b60028110613c6657fe5b50565b60068110613c7357fe5b50565b60068110613c8057fe5b50565b613c8c81613aea565b8114613c9757600080fd5b50565b613ca381613afc565b8114613cae57600080fd5b50565b60038110613cbe57600080fd5b50565b60028110613cce57600080fd5b50565b60068110613cde57600080fd5b50565b60068110613cee57600080fd5b50565b613cfa81613b74565b8114613d0557600080fd5b5056fea2646970667358221220d035ab1052a690a6e507f11f2c941f771bcb79f2595ecf8a5df1378890a8c6ba64736f6c634300060c0033",
			"opcodes": "PUSH1 0x80 PUSH1 0x40 MSTORE PUSH1 0x40 MLOAD DUP1 PUSH1 0xC0 ADD PUSH1 0x40 MSTORE DUP1 PUSH3 0x76A700 PUSH4 0xFFFFFFFF AND DUP2 MSTORE PUSH1 0x20 ADD PUSH3 0xED4E00 PUSH4 0xFFFFFFFF AND DUP2 MSTORE PUSH1 0x20 ADD PUSH4 0x1E13380 PUSH4 0xFFFFFFFF AND DUP2 MSTORE PUSH1 0x20 ADD PUSH4 0x3C26700 PUSH4 0xFFFFFFFF AND DUP2 MSTORE PUSH1 0x20 ADD PUSH4 0x5A39A80 PUSH4 0xFFFFFFFF AND DUP2 MSTORE PUSH1 0x20 ADD PUSH4 0x9660180 PUSH4 0xFFFFFFFF AND DUP2 MSTORE POP PUSH1 0x0 SWAP1 PUSH1 0x6 PUSH3 0x7D SWAP3 SWAP2 SWAP1 PUSH3 0x600 JUMP JUMPDEST POP PUSH1 0x40 MLOAD DUP1 PUSH1 0xC0 ADD PUSH1 0x40 MSTORE DUP1 PUSH2 0x168 PUSH1 0x5A PUSH2 0x2710 MUL DUP2 PUSH3 0x9A JUMPI INVALID JUMPDEST DIV DUP2 MSTORE PUSH1 0x20 ADD PUSH2 0x168 PUSH1 0xB4 PUSH2 0x2710 MUL DUP2 PUSH3 0xB1 JUMPI INVALID JUMPDEST DIV DUP2 MSTORE PUSH1 0x20 ADD PUSH1 0x1 PUSH2 0x2710 MUL DUP2 MSTORE PUSH1 0x20 ADD PUSH1 0x1 PUSH2 0x2710 MUL DUP2 MSTORE PUSH1 0x20 ADD PUSH1 0x1 PUSH2 0x2710 MUL DUP2 MSTORE PUSH1 0x20 ADD PUSH1 0x1 PUSH2 0x2710 MUL DUP2 MSTORE POP PUSH1 0x6 SWAP1 PUSH1 0x6 PUSH3 0xF3 SWAP3 SWAP2 SWAP1 PUSH3 0x64D JUMP JUMPDEST POP PUSH1 0x40 MLOAD DUP1 PUSH1 0x20 ADD PUSH1 0x40 MSTORE DUP1 PUSH3 0x76A700 PUSH3 0xFFFFFF AND DUP2 MSTORE POP PUSH1 0xC SWAP1 PUSH1 0x1 PUSH3 0x11D SWAP3 SWAP2 SWAP1 PUSH3 0x692 JUMP JUMPDEST POP PUSH1 0x40 MLOAD DUP1 PUSH1 0x20 ADD PUSH1 0x40 MSTORE DUP1 PUSH3 0xED4E00 PUSH3 0xFFFFFF AND DUP2 MSTORE POP PUSH1 0x11 SWAP1 PUSH1 0x1 PUSH3 0x147 SWAP3 SWAP2 SWAP1 PUSH3 0x692 JUMP JUMPDEST POP PUSH1 0x40 MLOAD DUP1 PUSH1 0x20 ADD PUSH1 0x40 MSTORE DUP1 PUSH4 0x1E13380 PUSH4 0xFFFFFFFF AND DUP2 MSTORE POP PUSH1 0x16 SWAP1 PUSH1 0x1 PUSH3 0x173 SWAP3 SWAP2 SWAP1 PUSH3 0x6DE JUMP JUMPDEST POP PUSH1 0x40 MLOAD DUP1 PUSH1 0x40 ADD PUSH1 0x40 MSTORE DUP1 PUSH4 0x1E13380 PUSH4 0xFFFFFFFF AND DUP2 MSTORE PUSH1 0x20 ADD PUSH4 0x3C26700 PUSH4 0xFFFFFFFF AND DUP2 MSTORE POP PUSH1 0x1B SWAP1 PUSH1 0x2 PUSH3 0x1AF SWAP3 SWAP2 SWAP1 PUSH3 0x72B JUMP JUMPDEST POP PUSH1 0x40 MLOAD DUP1 PUSH1 0x60 ADD PUSH1 0x40 MSTORE DUP1 PUSH4 0x1E13380 PUSH4 0xFFFFFFFF AND DUP2 MSTORE PUSH1 0x20 ADD PUSH4 0x3C26700 PUSH4 0xFFFFFFFF AND DUP2 MSTORE PUSH1 0x20 ADD PUSH4 0x5A39A80 PUSH4 0xFFFFFFFF AND DUP2 MSTORE POP PUSH1 0x20 SWAP1 PUSH1 0x3 PUSH3 0x1FB SWAP3 SWAP2 SWAP1 PUSH3 0x778 JUMP JUMPDEST POP PUSH1 0x40 MLOAD DUP1 PUSH1 0xA0 ADD PUSH1 0x40 MSTORE DUP1 PUSH4 0x1E13380 PUSH4 0xFFFFFFFF AND DUP2 MSTORE PUSH1 0x20 ADD PUSH4 0x3C26700 PUSH4 0xFFFFFFFF AND DUP2 MSTORE PUSH1 0x20 ADD PUSH4 0x5A39A80 PUSH4 0xFFFFFFFF AND DUP2 MSTORE PUSH1 0x20 ADD PUSH4 0x784CE00 PUSH4 0xFFFFFFFF AND DUP2 MSTORE PUSH1 0x20 ADD PUSH4 0x9660180 PUSH4 0xFFFFFFFF AND DUP2 MSTORE POP PUSH1 0x25 SWAP1 PUSH1 0x5 PUSH3 0x267 SWAP3 SWAP2 SWAP1 PUSH3 0x7C5 JUMP JUMPDEST POP PUSH1 0x40 MLOAD DUP1 PUSH1 0xC0 ADD PUSH1 0x40 MSTORE DUP1 PUSH1 0xC PUSH1 0x5 DUP1 PUSH1 0x20 MUL PUSH1 0x40 MLOAD SWAP1 DUP2 ADD PUSH1 0x40 MSTORE DUP1 SWAP3 SWAP2 SWAP1 DUP3 PUSH1 0x5 DUP1 ISZERO PUSH3 0x2AE JUMPI PUSH1 0x20 MUL DUP3 ADD SWAP2 JUMPDEST DUP2 SLOAD DUP2 MSTORE PUSH1 0x20 ADD SWAP1 PUSH1 0x1 ADD SWAP1 DUP1 DUP4 GT PUSH3 0x299 JUMPI JUMPDEST POP POP POP POP POP DUP2 MSTORE PUSH1 0x20 ADD PUSH1 0x11 PUSH1 0x5 DUP1 PUSH1 0x20 MUL PUSH1 0x40 MLOAD SWAP1 DUP2 ADD PUSH1 0x40 MSTORE DUP1 SWAP3 SWAP2 SWAP1 DUP3 PUSH1 0x5 DUP1 ISZERO PUSH3 0x2F3 JUMPI PUSH1 0x20 MUL DUP3 ADD SWAP2 JUMPDEST DUP2 SLOAD DUP2 MSTORE PUSH1 0x20 ADD SWAP1 PUSH1 0x1 ADD SWAP1 DUP1 DUP4 GT PUSH3 0x2DE JUMPI JUMPDEST POP POP POP POP POP DUP2 MSTORE PUSH1 0x20 ADD PUSH1 0x16 PUSH1 0x5 DUP1 PUSH1 0x20 MUL PUSH1 0x40 MLOAD SWAP1 DUP2 ADD PUSH1 0x40 MSTORE DUP1 SWAP3 SWAP2 SWAP1 DUP3 PUSH1 0x5 DUP1 ISZERO PUSH3 0x338 JUMPI PUSH1 0x20 MUL DUP3 ADD SWAP2 JUMPDEST DUP2 SLOAD DUP2 MSTORE PUSH1 0x20 ADD SWAP1 PUSH1 0x1 ADD SWAP1 DUP1 DUP4 GT PUSH3 0x323 JUMPI JUMPDEST POP POP POP POP POP DUP2 MSTORE PUSH1 0x20 ADD PUSH1 0x1B PUSH1 0x5 DUP1 PUSH1 0x20 MUL PUSH1 0x40 MLOAD SWAP1 DUP2 ADD PUSH1 0x40 MSTORE DUP1 SWAP3 SWAP2 SWAP1 DUP3 PUSH1 0x5 DUP1 ISZERO PUSH3 0x37D JUMPI PUSH1 0x20 MUL DUP3 ADD SWAP2 JUMPDEST DUP2 SLOAD DUP2 MSTORE PUSH1 0x20 ADD SWAP1 PUSH1 0x1 ADD SWAP1 DUP1 DUP4 GT PUSH3 0x368 JUMPI JUMPDEST POP POP POP POP POP DUP2 MSTORE PUSH1 0x20 ADD PUSH1 0x20 PUSH1 0x5 DUP1 PUSH1 0x20 MUL PUSH1 0x40 MLOAD SWAP1 DUP2 ADD PUSH1 0x40 MSTORE DUP1 SWAP3 SWAP2 SWAP1 DUP3 PUSH1 0x5 DUP1 ISZERO PUSH3 0x3C2 JUMPI PUSH1 0x20 MUL DUP3 ADD SWAP2 JUMPDEST DUP2 SLOAD DUP2 MSTORE PUSH1 0x20 ADD SWAP1 PUSH1 0x1 ADD SWAP1 DUP1 DUP4 GT PUSH3 0x3AD JUMPI JUMPDEST POP POP POP POP POP DUP2 MSTORE PUSH1 0x20 ADD PUSH1 0x25 PUSH1 0x5 DUP1 PUSH1 0x20 MUL PUSH1 0x40 MLOAD SWAP1 DUP2 ADD PUSH1 0x40 MSTORE DUP1 SWAP3 SWAP2 SWAP1 DUP3 PUSH1 0x5 DUP1 ISZERO PUSH3 0x407 JUMPI PUSH1 0x20 MUL DUP3 ADD SWAP2 JUMPDEST DUP2 SLOAD DUP2 MSTORE PUSH1 0x20 ADD SWAP1 PUSH1 0x1 ADD SWAP1 DUP1 DUP4 GT PUSH3 0x3F2 JUMPI JUMPDEST POP POP POP POP POP DUP2 MSTORE POP PUSH1 0x2A SWAP1 PUSH1 0x6 PUSH3 0x421 SWAP3 SWAP2 SWAP1 PUSH3 0x812 JUMP JUMPDEST POP PUSH1 0x40 MLOAD DUP1 PUSH1 0xC0 ADD PUSH1 0x40 MSTORE DUP1 PUSH1 0x1 DUP1 MUL DUP2 MSTORE PUSH1 0x20 ADD PUSH1 0x1 DUP1 MUL DUP2 MSTORE PUSH1 0x20 ADD PUSH1 0x1 DUP1 MUL DUP2 MSTORE PUSH1 0x20 ADD PUSH1 0x1 PUSH1 0x2 MUL DUP2 MSTORE PUSH1 0x20 ADD PUSH1 0x1 PUSH1 0x3 MUL DUP2 MSTORE PUSH1 0x20 ADD PUSH1 0x1 PUSH1 0x5 MUL DUP2 MSTORE POP PUSH1 0x48 SWAP1 PUSH1 0x6 PUSH3 0x476 SWAP3 SWAP2 SWAP1 PUSH3 0x64D JUMP JUMPDEST POP PUSH1 0x40 MLOAD DUP1 PUSH1 0xE0 ADD PUSH1 0x40 MSTORE DUP1 PUSH3 0x76A700 PUSH4 0xFFFFFFFF AND DUP2 MSTORE PUSH1 0x20 ADD PUSH3 0xED4E00 PUSH4 0xFFFFFFFF AND DUP2 MSTORE PUSH1 0x20 ADD PUSH4 0x1E13380 PUSH4 0xFFFFFFFF AND DUP2 MSTORE PUSH1 0x20 ADD PUSH4 0x3C26700 PUSH4 0xFFFFFFFF AND DUP2 MSTORE PUSH1 0x20 ADD PUSH4 0x5A39A80 PUSH4 0xFFFFFFFF AND DUP2 MSTORE PUSH1 0x20 ADD PUSH4 0x784CE00 PUSH4 0xFFFFFFFF AND DUP2 MSTORE PUSH1 0x20 ADD PUSH4 0x9660180 PUSH4 0xFFFFFFFF AND DUP2 MSTORE POP PUSH1 0x4E SWAP1 PUSH1 0x7 PUSH3 0x500 SWAP3 SWAP2 SWAP1 PUSH3 0x86A JUMP JUMPDEST POP CALLVALUE DUP1 ISZERO PUSH3 0x50E JUMPI PUSH1 0x0 DUP1 REVERT JUMPDEST POP PUSH1 0x40 MLOAD PUSH3 0x476F CODESIZE SUB DUP1 PUSH3 0x476F DUP4 CODECOPY DUP2 DUP2 ADD PUSH1 0x40 MSTORE DUP2 ADD SWAP1 PUSH3 0x534 SWAP2 SWAP1 PUSH3 0x97D JUMP JUMPDEST DUP3 PUSH1 0x57 PUSH1 0x0 PUSH2 0x100 EXP DUP2 SLOAD DUP2 PUSH20 0xFFFFFFFFFFFFFFFFFFFFFFFFFFFFFFFFFFFFFFFF MUL NOT AND SWAP1 DUP4 PUSH20 0xFFFFFFFFFFFFFFFFFFFFFFFFFFFFFFFFFFFFFFFF AND MUL OR SWAP1 SSTORE POP DUP2 PUSH1 0x58 PUSH1 0x0 PUSH2 0x100 EXP DUP2 SLOAD DUP2 PUSH20 0xFFFFFFFFFFFFFFFFFFFFFFFFFFFFFFFFFFFFFFFF MUL NOT AND SWAP1 DUP4 PUSH20 0xFFFFFFFFFFFFFFFFFFFFFFFFFFFFFFFFFFFFFFFF AND MUL OR SWAP1 SSTORE POP DUP1 PUSH1 0x59 PUSH1 0x0 PUSH2 0x100 EXP DUP2 SLOAD DUP2 PUSH20 0xFFFFFFFFFFFFFFFFFFFFFFFFFFFFFFFFFFFFFFFF MUL NOT AND SWAP1 DUP4 PUSH20 0xFFFFFFFFFFFFFFFFFFFFFFFFFFFFFFFFFFFFFFFF AND MUL OR SWAP1 SSTORE POP POP POP POP PUSH3 0xA21 JUMP JUMPDEST DUP3 PUSH1 0x6 DUP2 ADD SWAP3 DUP3 ISZERO PUSH3 0x63A JUMPI SWAP2 PUSH1 0x20 MUL DUP3 ADD JUMPDEST DUP3 DUP2 GT ISZERO PUSH3 0x639 JUMPI DUP3 MLOAD DUP3 SWAP1 PUSH4 0xFFFFFFFF AND SWAP1 SSTORE SWAP2 PUSH1 0x20 ADD SWAP2 SWAP1 PUSH1 0x1 ADD SWAP1 PUSH3 0x614 JUMP JUMPDEST JUMPDEST POP SWAP1 POP PUSH3 0x649 SWAP2 SWAP1 PUSH3 0x8B7 JUMP JUMPDEST POP SWAP1 JUMP JUMPDEST DUP3 PUSH1 0x6 DUP2 ADD SWAP3 DUP3 ISZERO PUSH3 0x67F JUMPI SWAP2 PUSH1 0x20 MUL DUP3 ADD JUMPDEST DUP3 DUP2 GT ISZERO PUSH3 0x67E JUMPI DUP3 MLOAD DUP3 SSTORE SWAP2 PUSH1 0x20 ADD SWAP2 SWAP1 PUSH1 0x1 ADD SWAP1 PUSH3 0x661 JUMP JUMPDEST JUMPDEST POP SWAP1 POP PUSH3 0x68E SWAP2 SWAP1 PUSH3 0x8B7 JUMP JUMPDEST POP SWAP1 JUMP JUMPDEST DUP3 PUSH1 0x5 DUP2 ADD SWAP3 DUP3 ISZERO PUSH3 0x6CB JUMPI SWAP2 PUSH1 0x20 MUL DUP3 ADD JUMPDEST DUP3 DUP2 GT ISZERO PUSH3 0x6CA JUMPI DUP3 MLOAD DUP3 SWAP1 PUSH3 0xFFFFFF AND SWAP1 SSTORE SWAP2 PUSH1 0x20 ADD SWAP2 SWAP1 PUSH1 0x1 ADD SWAP1 PUSH3 0x6A6 JUMP JUMPDEST JUMPDEST POP SWAP1 POP PUSH3 0x6DA SWAP2 SWAP1 PUSH3 0x8B7 JUMP JUMPDEST POP SWAP1 JUMP JUMPDEST DUP3 PUSH1 0x5 DUP2 ADD SWAP3 DUP3 ISZERO PUSH3 0x718 JUMPI SWAP2 PUSH1 0x20 MUL DUP3 ADD JUMPDEST DUP3 DUP2 GT ISZERO PUSH3 0x717 JUMPI DUP3 MLOAD DUP3 SWAP1 PUSH4 0xFFFFFFFF AND SWAP1 SSTORE SWAP2 PUSH1 0x20 ADD SWAP2 SWAP1 PUSH1 0x1 ADD SWAP1 PUSH3 0x6F2 JUMP JUMPDEST JUMPDEST POP SWAP1 POP PUSH3 0x727 SWAP2 SWAP1 PUSH3 0x8B7 JUMP JUMPDEST POP SWAP1 JUMP JUMPDEST DUP3 PUSH1 0x5 DUP2 ADD SWAP3 DUP3 ISZERO PUSH3 0x765 JUMPI SWAP2 PUSH1 0x20 MUL DUP3 ADD JUMPDEST DUP3 DUP2 GT ISZERO PUSH3 0x764 JUMPI DUP3 MLOAD DUP3 SWAP1 PUSH4 0xFFFFFFFF AND SWAP1 SSTORE SWAP2 PUSH1 0x20 ADD SWAP2 SWAP1 PUSH1 0x1 ADD SWAP1 PUSH3 0x73F JUMP JUMPDEST JUMPDEST POP SWAP1 POP PUSH3 0x774 SWAP2 SWAP1 PUSH3 0x8B7 JUMP JUMPDEST POP SWAP1 JUMP JUMPDEST DUP3 PUSH1 0x5 DUP2 ADD SWAP3 DUP3 ISZERO PUSH3 0x7B2 JUMPI SWAP2 PUSH1 0x20 MUL DUP3 ADD JUMPDEST DUP3 DUP2 GT ISZERO PUSH3 0x7B1 JUMPI DUP3 MLOAD DUP3 SWAP1 PUSH4 0xFFFFFFFF AND SWAP1 SSTORE SWAP2 PUSH1 0x20 ADD SWAP2 SWAP1 PUSH1 0x1 ADD SWAP1 PUSH3 0x78C JUMP JUMPDEST JUMPDEST POP SWAP1 POP PUSH3 0x7C1 SWAP2 SWAP1 PUSH3 0x8B7 JUMP JUMPDEST POP SWAP1 JUMP JUMPDEST DUP3 PUSH1 0x5 DUP2 ADD SWAP3 DUP3 ISZERO PUSH3 0x7FF JUMPI SWAP2 PUSH1 0x20 MUL DUP3 ADD JUMPDEST DUP3 DUP2 GT ISZERO PUSH3 0x7FE JUMPI DUP3 MLOAD DUP3 SWAP1 PUSH4 0xFFFFFFFF AND SWAP1 SSTORE SWAP2 PUSH1 0x20 ADD SWAP2 SWAP1 PUSH1 0x1 ADD SWAP1 PUSH3 0x7D9 JUMP JUMPDEST JUMPDEST POP SWAP1 POP PUSH3 0x80E SWAP2 SWAP1 PUSH3 0x8B7 JUMP JUMPDEST POP SWAP1 JUMP JUMPDEST DUP3 PUSH1 0x6 PUSH1 0x5 MUL DUP2 ADD SWAP3 DUP3 ISZERO PUSH3 0x857 JUMPI SWAP2 PUSH1 0x20 MUL DUP3 ADD JUMPDEST DUP3 DUP2 GT ISZERO PUSH3 0x856 JUMPI DUP3 MLOAD DUP3 SWAP1 PUSH1 0x5 PUSH3 0x845 SWAP3 SWAP2 SWAP1 PUSH3 0x8D6 JUMP JUMPDEST POP SWAP2 PUSH1 0x20 ADD SWAP2 SWAP1 PUSH1 0x5 ADD SWAP1 PUSH3 0x829 JUMP JUMPDEST JUMPDEST POP SWAP1 POP PUSH3 0x866 SWAP2 SWAP1 PUSH3 0x91B JUMP JUMPDEST POP SWAP1 JUMP JUMPDEST DUP3 PUSH1 0x7 DUP2 ADD SWAP3 DUP3 ISZERO PUSH3 0x8A4 JUMPI SWAP2 PUSH1 0x20 MUL DUP3 ADD JUMPDEST DUP3 DUP2 GT ISZERO PUSH3 0x8A3 JUMPI DUP3 MLOAD DUP3 SWAP1 PUSH4 0xFFFFFFFF AND SWAP1 SSTORE SWAP2 PUSH1 0x20 ADD SWAP2 SWAP1 PUSH1 0x1 ADD SWAP1 PUSH3 0x87E JUMP JUMPDEST JUMPDEST POP SWAP1 POP PUSH3 0x8B3 SWAP2 SWAP1 PUSH3 0x8B7 JUMP JUMPDEST POP SWAP1 JUMP JUMPDEST JUMPDEST DUP1 DUP3 GT ISZERO PUSH3 0x8D2 JUMPI PUSH1 0x0 DUP2 PUSH1 0x0 SWAP1 SSTORE POP PUSH1 0x1 ADD PUSH3 0x8B8 JUMP JUMPDEST POP SWAP1 JUMP JUMPDEST DUP3 PUSH1 0x5 DUP2 ADD SWAP3 DUP3 ISZERO PUSH3 0x908 JUMPI SWAP2 PUSH1 0x20 MUL DUP3 ADD JUMPDEST DUP3 DUP2 GT ISZERO PUSH3 0x907 JUMPI DUP3 MLOAD DUP3 SSTORE SWAP2 PUSH1 0x20 ADD SWAP2 SWAP1 PUSH1 0x1 ADD SWAP1 PUSH3 0x8EA JUMP JUMPDEST JUMPDEST POP SWAP1 POP PUSH3 0x917 SWAP2 SWAP1 PUSH3 0x8B7 JUMP JUMPDEST POP SWAP1 JUMP JUMPDEST JUMPDEST DUP1 DUP3 GT ISZERO PUSH3 0x93F JUMPI PUSH1 0x0 DUP2 DUP2 PUSH3 0x935 SWAP2 SWAP1 PUSH3 0x943 JUMP JUMPDEST POP PUSH1 0x5 ADD PUSH3 0x91C JUMP JUMPDEST POP SWAP1 JUMP JUMPDEST POP PUSH1 0x0 DUP2 SSTORE PUSH1 0x1 ADD PUSH1 0x0 DUP2 SSTORE PUSH1 0x1 ADD PUSH1 0x0 DUP2 SSTORE PUSH1 0x1 ADD PUSH1 0x0 DUP2 SSTORE PUSH1 0x1 ADD PUSH1 0x0 SWAP1 SSTORE JUMP JUMPDEST PUSH1 0x0 DUP2 MLOAD SWAP1 POP PUSH3 0x977 DUP2 PUSH3 0xA07 JUMP JUMPDEST SWAP3 SWAP2 POP POP JUMP JUMPDEST PUSH1 0x0 DUP1 PUSH1 0x0 PUSH1 0x60 DUP5 DUP7 SUB SLT ISZERO PUSH3 0x993 JUMPI PUSH1 0x0 DUP1 REVERT JUMPDEST PUSH1 0x0 PUSH3 0x9A3 DUP7 DUP3 DUP8 ADD PUSH3 0x966 JUMP JUMPDEST SWAP4 POP POP PUSH1 0x20 PUSH3 0x9B6 DUP7 DUP3 DUP8 ADD PUSH3 0x966 JUMP JUMPDEST SWAP3 POP POP PUSH1 0x40 PUSH3 0x9C9 DUP7 DUP3 DUP8 ADD PUSH3 0x966 JUMP JUMPDEST SWAP2 POP POP SWAP3 POP SWAP3 POP SWAP3 JUMP JUMPDEST PUSH1 0x0 PUSH3 0x9E0 DUP3 PUSH3 0x9E7 JUMP JUMPDEST SWAP1 POP SWAP2 SWAP1 POP JUMP JUMPDEST PUSH1 0x0 PUSH20 0xFFFFFFFFFFFFFFFFFFFFFFFFFFFFFFFFFFFFFFFF DUP3 AND SWAP1 POP SWAP2 SWAP1 POP JUMP JUMPDEST PUSH3 0xA12 DUP2 PUSH3 0x9D3 JUMP JUMPDEST DUP2 EQ PUSH3 0xA1E JUMPI PUSH1 0x0 DUP1 REVERT JUMPDEST POP JUMP JUMPDEST PUSH2 0x3D3E DUP1 PUSH3 0xA31 PUSH1 0x0 CODECOPY PUSH1 0x0 RETURN INVALID PUSH1 0x80 PUSH1 0x40 MSTORE CALLVALUE DUP1 ISZERO PUSH2 0x10 JUMPI PUSH1 0x0 DUP1 REVERT JUMPDEST POP PUSH1 0x4 CALLDATASIZE LT PUSH2 0xCF JUMPI PUSH1 0x0 CALLDATALOAD PUSH1 0xE0 SHR DUP1 PUSH4 0x73B18B4C GT PUSH2 0x8C JUMPI DUP1 PUSH4 0xB677AA2E GT PUSH2 0x66 JUMPI DUP1 PUSH4 0xB677AA2E EQ PUSH2 0x20E JUMPI DUP1 PUSH4 0xCB105188 EQ PUSH2 0x22A JUMPI DUP1 PUSH4 0xD003A97E EQ PUSH2 0x234 JUMPI DUP1 PUSH4 0xE2842D79 EQ PUSH2 0x23E JUMPI PUSH2 0xCF JUMP JUMPDEST DUP1 PUSH4 0x73B18B4C EQ PUSH2 0x1A6 JUMPI DUP1 PUSH4 0x8257A504 EQ PUSH2 0x1C2 JUMPI DUP1 PUSH4 0x995A2001 EQ PUSH2 0x1F2 JUMPI PUSH2 0xCF JUMP JUMPDEST DUP1 PUSH4 0x1D244AFA EQ PUSH2 0xD4 JUMPI DUP1 PUSH4 0x354528E8 EQ PUSH2 0xF0 JUMPI DUP1 PUSH4 0x45CF5CC0 EQ PUSH2 0x10E JUMPI DUP1 PUSH4 0x4EF8FE5B EQ PUSH2 0x12A JUMPI DUP1 PUSH4 0x57D8DF5A EQ PUSH2 0x146 JUMPI DUP1 PUSH4 0x61FDA82A EQ PUSH2 0x176 JUMPI JUMPDEST PUSH1 0x0 DUP1 REVERT JUMPDEST PUSH2 0xEE PUSH1 0x4 DUP1 CALLDATASIZE SUB DUP2 ADD SWAP1 PUSH2 0xE9 SWAP2 SWAP1 PUSH2 0x2C32 JUMP JUMPDEST PUSH2 0x25C JUMP JUMPDEST STOP JUMPDEST PUSH2 0xF8 PUSH2 0x2A0 JUMP JUMPDEST PUSH1 0x40 MLOAD PUSH2 0x105 SWAP2 SWAP1 PUSH2 0x36C2 JUMP JUMPDEST PUSH1 0x40 MLOAD DUP1 SWAP2 SUB SWAP1 RETURN JUMPDEST PUSH2 0x128 PUSH1 0x4 DUP1 CALLDATASIZE SUB DUP2 ADD SWAP1 PUSH2 0x123 SWAP2 SWAP1 PUSH2 0x2B42 JUMP JUMPDEST PUSH2 0x74C JUMP JUMPDEST STOP JUMPDEST PUSH2 0x144 PUSH1 0x4 DUP1 CALLDATASIZE SUB DUP2 ADD SWAP1 PUSH2 0x13F SWAP2 SWAP1 PUSH2 0x2A7B JUMP JUMPDEST PUSH2 0xAD2 JUMP JUMPDEST STOP JUMPDEST PUSH2 0x160 PUSH1 0x4 DUP1 CALLDATASIZE SUB DUP2 ADD SWAP1 PUSH2 0x15B SWAP2 SWAP1 PUSH2 0x2A7B JUMP JUMPDEST PUSH2 0xB5B JUMP JUMPDEST PUSH1 0x40 MLOAD PUSH2 0x16D SWAP2 SWAP1 PUSH2 0x38CC JUMP JUMPDEST PUSH1 0x40 MLOAD DUP1 SWAP2 SUB SWAP1 RETURN JUMPDEST PUSH2 0x190 PUSH1 0x4 DUP1 CALLDATASIZE SUB DUP2 ADD SWAP1 PUSH2 0x18B SWAP2 SWAP1 PUSH2 0x2D3E JUMP JUMPDEST PUSH2 0xF47 JUMP JUMPDEST PUSH1 0x40 MLOAD PUSH2 0x19D SWAP2 SWAP1 PUSH2 0x38EE JUMP JUMPDEST PUSH1 0x40 MLOAD DUP1 SWAP2 SUB SWAP1 RETURN JUMPDEST PUSH2 0x1C0 PUSH1 0x4 DUP1 CALLDATASIZE SUB DUP2 ADD SWAP1 PUSH2 0x1BB SWAP2 SWAP1 PUSH2 0x2CAD JUMP JUMPDEST PUSH2 0x1011 JUMP JUMPDEST STOP JUMPDEST PUSH2 0x1DC PUSH1 0x4 DUP1 CALLDATASIZE SUB DUP2 ADD SWAP1 PUSH2 0x1D7 SWAP2 SWAP1 PUSH2 0x2D14 JUMP JUMPDEST PUSH2 0x118F JUMP JUMPDEST PUSH1 0x40 MLOAD PUSH2 0x1E9 SWAP2 SWAP1 PUSH2 0x37F1 JUMP JUMPDEST PUSH1 0x40 MLOAD DUP1 SWAP2 SUB SWAP1 RETURN JUMPDEST PUSH2 0x20C PUSH1 0x4 DUP1 CALLDATASIZE SUB DUP2 ADD SWAP1 PUSH2 0x207 SWAP2 SWAP1 PUSH2 0x2B91 JUMP JUMPDEST PUSH2 0x124E JUMP JUMPDEST STOP JUMPDEST PUSH2 0x228 PUSH1 0x4 DUP1 CALLDATASIZE SUB DUP2 ADD SWAP1 PUSH2 0x223 SWAP2 SWAP1 PUSH2 0x2AA4 JUMP JUMPDEST PUSH2 0x18B3 JUMP JUMPDEST STOP JUMPDEST PUSH2 0x232 PUSH2 0x1AEC JUMP JUMPDEST STOP JUMPDEST PUSH2 0x23C PUSH2 0x1AEE JUMP JUMPDEST STOP JUMPDEST PUSH2 0x246 PUSH2 0x1BCB JUMP JUMPDEST PUSH1 0x40 MLOAD PUSH2 0x253 SWAP2 SWAP1 PUSH2 0x36A0 JUMP JUMPDEST PUSH1 0x40 MLOAD DUP1 SWAP2 SUB SWAP1 RETURN JUMPDEST DUP2 PUSH32 0xC078863E7ADE0C5659980A387D8552E7EE23B544977AA247769231095482A60C DUP6 CALLER DUP7 DUP6 PUSH1 0x40 MLOAD PUSH2 0x292 SWAP5 SWAP4 SWAP3 SWAP2 SWAP1 PUSH2 0x36E4 JUMP JUMPDEST PUSH1 0x40 MLOAD DUP1 SWAP2 SUB SWAP1 LOG2 POP POP POP POP JUMP JUMPDEST PUSH1 0x60 DUP1 PUSH1 0x56 DUP1 SLOAD SWAP1 POP PUSH8 0xFFFFFFFFFFFFFFFF DUP2 GT DUP1 ISZERO PUSH2 0x2BF JUMPI PUSH1 0x0 DUP1 REVERT JUMPDEST POP PUSH1 0x40 MLOAD SWAP1 DUP1 DUP3 MSTORE DUP1 PUSH1 0x20 MUL PUSH1 0x20 ADD DUP3 ADD PUSH1 0x40 MSTORE DUP1 ISZERO PUSH2 0x2F9 JUMPI DUP2 PUSH1 0x20 ADD JUMPDEST PUSH2 0x2E6 PUSH2 0x220F JUMP JUMPDEST DUP2 MSTORE PUSH1 0x20 ADD SWAP1 PUSH1 0x1 SWAP1 SUB SWAP1 DUP2 PUSH2 0x2DE JUMPI SWAP1 POP JUMPDEST POP SWAP1 POP PUSH1 0x0 JUMPDEST PUSH1 0x56 DUP1 SLOAD SWAP1 POP DUP2 LT ISZERO PUSH2 0x744 JUMPI PUSH1 0x55 PUSH1 0x0 PUSH1 0x56 DUP4 DUP2 SLOAD DUP2 LT PUSH2 0x31D JUMPI INVALID JUMPDEST SWAP1 PUSH1 0x0 MSTORE PUSH1 0x20 PUSH1 0x0 KECCAK256 ADD PUSH1 0x0 SWAP1 SLOAD SWAP1 PUSH2 0x100 EXP SWAP1 DIV PUSH20 0xFFFFFFFFFFFFFFFFFFFFFFFFFFFFFFFFFFFFFFFF AND PUSH20 0xFFFFFFFFFFFFFFFFFFFFFFFFFFFFFFFFFFFFFFFF AND PUSH20 0xFFFFFFFFFFFFFFFFFFFFFFFFFFFFFFFFFFFFFFFF AND DUP2 MSTORE PUSH1 0x20 ADD SWAP1 DUP2 MSTORE PUSH1 0x20 ADD PUSH1 0x0 KECCAK256 PUSH1 0x40 MLOAD DUP1 PUSH1 0x60 ADD PUSH1 0x40 MSTORE SWAP1 DUP2 PUSH1 0x0 DUP3 ADD DUP1 SLOAD DUP1 PUSH1 0x20 MUL PUSH1 0x20 ADD PUSH1 0x40 MLOAD SWAP1 DUP2 ADD PUSH1 0x40 MSTORE DUP1 SWAP3 SWAP2 SWAP1 DUP2 DUP2 MSTORE PUSH1 0x20 ADD PUSH1 0x0 SWAP1 JUMPDEST DUP3 DUP3 LT ISZERO PUSH2 0x6F3 JUMPI DUP4 DUP3 SWAP1 PUSH1 0x0 MSTORE PUSH1 0x20 PUSH1 0x0 KECCAK256 SWAP1 PUSH1 0x1A MUL ADD PUSH1 0x40 MLOAD DUP1 PUSH2 0x1E0 ADD PUSH1 0x40 MSTORE SWAP1 DUP2 PUSH1 0x0 DUP3 ADD SLOAD DUP2 MSTORE PUSH1 0x20 ADD PUSH1 0x1 DUP3 ADD PUSH1 0x0 SWAP1 SLOAD SWAP1 PUSH2 0x100 EXP SWAP1 DIV PUSH20 0xFFFFFFFFFFFFFFFFFFFFFFFFFFFFFFFFFFFFFFFF AND PUSH20 0xFFFFFFFFFFFFFFFFFFFFFFFFFFFFFFFFFFFFFFFF AND PUSH20 0xFFFFFFFFFFFFFFFFFFFFFFFFFFFFFFFFFFFFFFFF AND DUP2 MSTORE PUSH1 0x20 ADD PUSH1 0x2 DUP3 ADD PUSH1 0x0 SWAP1 SLOAD SWAP1 PUSH2 0x100 EXP SWAP1 DIV PUSH20 0xFFFFFFFFFFFFFFFFFFFFFFFFFFFFFFFFFFFFFFFF AND PUSH20 0xFFFFFFFFFFFFFFFFFFFFFFFFFFFFFFFFFFFFFFFF AND PUSH20 0xFFFFFFFFFFFFFFFFFFFFFFFFFFFFFFFFFFFFFFFF AND DUP2 MSTORE PUSH1 0x20 ADD PUSH1 0x2 DUP3 ADD PUSH1 0x14 SWAP1 SLOAD SWAP1 PUSH2 0x100 EXP SWAP1 DIV PUSH1 0xFF AND PUSH1 0x1 DUP2 GT ISZERO PUSH2 0x4AA JUMPI INVALID JUMPDEST PUSH1 0x1 DUP2 GT ISZERO PUSH2 0x4B5 JUMPI INVALID JUMPDEST DUP2 MSTORE PUSH1 0x20 ADD PUSH1 0x2 DUP3 ADD PUSH1 0x15 SWAP1 SLOAD SWAP1 PUSH2 0x100 EXP SWAP1 DIV PUSH1 0xFF AND PUSH1 0x2 DUP2 GT ISZERO PUSH2 0x4D7 JUMPI INVALID JUMPDEST PUSH1 0x2 DUP2 GT ISZERO PUSH2 0x4E2 JUMPI INVALID JUMPDEST DUP2 MSTORE PUSH1 0x20 ADD PUSH1 0x2 DUP3 ADD PUSH1 0x16 SWAP1 SLOAD SWAP1 PUSH2 0x100 EXP SWAP1 DIV PUSH1 0xFF AND PUSH1 0x5 DUP2 GT ISZERO PUSH2 0x504 JUMPI INVALID JUMPDEST PUSH1 0x5 DUP2 GT ISZERO PUSH2 0x50F JUMPI INVALID JUMPDEST DUP2 MSTORE PUSH1 0x20 ADD PUSH1 0x3 DUP3 ADD SLOAD DUP2 MSTORE PUSH1 0x20 ADD PUSH1 0x4 DUP3 ADD SLOAD DUP2 MSTORE PUSH1 0x20 ADD PUSH1 0x5 DUP3 ADD SLOAD DUP2 MSTORE PUSH1 0x20 ADD PUSH1 0x6 DUP3 ADD SLOAD DUP2 MSTORE PUSH1 0x20 ADD PUSH1 0x7 DUP3 ADD PUSH1 0x40 MLOAD DUP1 PUSH1 0x80 ADD PUSH1 0x40 MSTORE SWAP1 DUP2 PUSH1 0x0 DUP3 ADD PUSH1 0x5 DUP1 PUSH1 0x20 MUL PUSH1 0x40 MLOAD SWAP1 DUP2 ADD PUSH1 0x40 MSTORE DUP1 SWAP3 SWAP2 SWAP1 DUP3 PUSH1 0x5 DUP1 ISZERO PUSH2 0x587 JUMPI PUSH1 0x20 MUL DUP3 ADD SWAP2 JUMPDEST DUP2 SLOAD DUP2 MSTORE PUSH1 0x20 ADD SWAP1 PUSH1 0x1 ADD SWAP1 DUP1 DUP4 GT PUSH2 0x573 JUMPI JUMPDEST POP POP POP POP POP DUP2 MSTORE PUSH1 0x20 ADD PUSH1 0x5 DUP3 ADD PUSH1 0x5 DUP1 PUSH1 0x20 MUL PUSH1 0x40 MLOAD SWAP1 DUP2 ADD PUSH1 0x40 MSTORE DUP1 SWAP3 SWAP2 SWAP1 DUP3 PUSH1 0x5 DUP1 ISZERO PUSH2 0x5CC JUMPI PUSH1 0x20 MUL DUP3 ADD SWAP2 JUMPDEST DUP2 SLOAD DUP2 MSTORE PUSH1 0x20 ADD SWAP1 PUSH1 0x1 ADD SWAP1 DUP1 DUP4 GT PUSH2 0x5B8 JUMPI JUMPDEST POP POP POP POP POP DUP2 MSTORE PUSH1 0x20 ADD PUSH1 0xA DUP3 ADD PUSH1 0x5 DUP1 PUSH1 0x20 MUL PUSH1 0x40 MLOAD SWAP1 DUP2 ADD PUSH1 0x40 MSTORE DUP1 SWAP3 SWAP2 SWAP1 DUP3 PUSH1 0x5 DUP1 ISZERO PUSH2 0x611 JUMPI PUSH1 0x20 MUL DUP3 ADD SWAP2 JUMPDEST DUP2 SLOAD DUP2 MSTORE PUSH1 0x20 ADD SWAP1 PUSH1 0x1 ADD SWAP1 DUP1 DUP4 GT PUSH2 0x5FD JUMPI JUMPDEST POP POP POP POP POP DUP2 MSTORE PUSH1 0x20 ADD PUSH1 0xF DUP3 ADD PUSH1 0x5 DUP1 PUSH1 0x20 MUL PUSH1 0x40 MLOAD SWAP1 DUP2 ADD PUSH1 0x40 MSTORE DUP1 SWAP3 SWAP2 SWAP1 DUP3 PUSH1 0x5 DUP1 ISZERO PUSH2 0x67B JUMPI PUSH1 0x20 MUL DUP3 ADD SWAP2 PUSH1 0x0 SWAP1 JUMPDEST DUP3 DUP3 SWAP1 SLOAD SWAP1 PUSH2 0x100 EXP SWAP1 DIV PUSH1 0xFF AND ISZERO ISZERO DUP2 MSTORE PUSH1 0x20 ADD SWAP1 PUSH1 0x1 ADD SWAP1 PUSH1 0x20 DUP3 PUSH1 0x0 ADD DIV SWAP3 DUP4 ADD SWAP3 PUSH1 0x1 SUB DUP3 MUL SWAP2 POP DUP1 DUP5 GT PUSH2 0x645 JUMPI SWAP1 POP JUMPDEST POP POP POP POP POP DUP2 MSTORE POP POP DUP2 MSTORE PUSH1 0x20 ADD PUSH1 0x17 DUP3 ADD SLOAD DUP2 MSTORE PUSH1 0x20 ADD PUSH1 0x18 DUP3 ADD SLOAD DUP2 MSTORE PUSH1 0x20 ADD PUSH1 0x19 DUP3 ADD PUSH1 0x0 SWAP1 SLOAD SWAP1 PUSH2 0x100 EXP SWAP1 DIV PUSH1 0xFF AND ISZERO ISZERO ISZERO ISZERO DUP2 MSTORE PUSH1 0x20 ADD PUSH1 0x19 DUP3 ADD PUSH1 0x1 SWAP1 SLOAD SWAP1 PUSH2 0x100 EXP SWAP1 DIV PUSH1 0xFF AND PUSH1 0x5 DUP2 GT ISZERO PUSH2 0x6D5 JUMPI INVALID JUMPDEST PUSH1 0x5 DUP2 GT ISZERO PUSH2 0x6E0 JUMPI INVALID JUMPDEST DUP2 MSTORE POP POP DUP2 MSTORE PUSH1 0x20 ADD SWAP1 PUSH1 0x1 ADD SWAP1 PUSH2 0x3B2 JUMP JUMPDEST POP POP POP POP DUP2 MSTORE PUSH1 0x20 ADD PUSH1 0x1 DUP3 ADD SLOAD DUP2 MSTORE PUSH1 0x20 ADD PUSH1 0x2 DUP3 ADD PUSH1 0x0 SWAP1 SLOAD SWAP1 PUSH2 0x100 EXP SWAP1 DIV PUSH1 0xFF AND ISZERO ISZERO ISZERO ISZERO DUP2 MSTORE POP POP DUP3 DUP3 DUP2 MLOAD DUP2 LT PUSH2 0x72C JUMPI INVALID JUMPDEST PUSH1 0x20 MUL PUSH1 0x20 ADD ADD DUP2 SWAP1 MSTORE POP DUP1 DUP1 PUSH1 0x1 ADD SWAP2 POP POP PUSH2 0x2FF JUMP JUMPDEST POP DUP1 SWAP2 POP POP SWAP1 JUMP JUMPDEST PUSH1 0x0 PUSH1 0x55 PUSH1 0x0 DUP6 PUSH20 0xFFFFFFFFFFFFFFFFFFFFFFFFFFFFFFFFFFFFFFFF AND PUSH20 0xFFFFFFFFFFFFFFFFFFFFFFFFFFFFFFFFFFFFFFFF AND DUP2 MSTORE PUSH1 0x20 ADD SWAP1 DUP2 MSTORE PUSH1 0x20 ADD PUSH1 0x0 KECCAK256 SWAP1 POP PUSH1 0x0 DUP2 PUSH1 0x0 ADD DUP4 DUP2 SLOAD DUP2 LT PUSH2 0x7A0 JUMPI INVALID JUMPDEST SWAP1 PUSH1 0x0 MSTORE PUSH1 0x20 PUSH1 0x0 KECCAK256 SWAP1 PUSH1 0x1A MUL ADD SWAP1 POP PUSH1 0x0 PUSH1 0x5 DUP2 GT ISZERO PUSH2 0x7BD JUMPI INVALID JUMPDEST DUP2 PUSH1 0x19 ADD PUSH1 0x1 SWAP1 SLOAD SWAP1 PUSH2 0x100 EXP SWAP1 DIV PUSH1 0xFF AND PUSH1 0x5 DUP2 GT ISZERO PUSH2 0x7DA JUMPI INVALID JUMPDEST EQ ISZERO PUSH2 0x926 JUMPI DUP1 PUSH1 0x2 ADD PUSH1 0x0 SWAP1 SLOAD SWAP1 PUSH2 0x100 EXP SWAP1 DIV PUSH20 0xFFFFFFFFFFFFFFFFFFFFFFFFFFFFFFFFFFFFFFFF AND PUSH20 0xFFFFFFFFFFFFFFFFFFFFFFFFFFFFFFFFFFFFFFFF AND DUP5 PUSH20 0xFFFFFFFFFFFFFFFFFFFFFFFFFFFFFFFFFFFFFFFF AND EQ PUSH2 0x872 JUMPI PUSH1 0x40 MLOAD PUSH32 0x8C379A000000000000000000000000000000000000000000000000000000000 DUP2 MSTORE PUSH1 0x4 ADD PUSH2 0x869 SWAP1 PUSH2 0x38AC JUMP JUMPDEST PUSH1 0x40 MLOAD DUP1 SWAP2 SUB SWAP1 REVERT JUMPDEST PUSH1 0x1 DUP2 PUSH1 0x19 ADD PUSH1 0x1 PUSH2 0x100 EXP DUP2 SLOAD DUP2 PUSH1 0xFF MUL NOT AND SWAP1 DUP4 PUSH1 0x5 DUP2 GT ISZERO PUSH2 0x893 JUMPI INVALID JUMPDEST MUL OR SWAP1 SSTORE POP PUSH1 0x59 PUSH1 0x0 SWAP1 SLOAD SWAP1 PUSH2 0x100 EXP SWAP1 DIV PUSH20 0xFFFFFFFFFFFFFFFFFFFFFFFFFFFFFFFFFFFFFFFF AND PUSH20 0xFFFFFFFFFFFFFFFFFFFFFFFFFFFFFFFFFFFFFFFF AND PUSH4 0x74E8DE77 DUP6 PUSH1 0x40 MLOAD DUP3 PUSH4 0xFFFFFFFF AND PUSH1 0xE0 SHL DUP2 MSTORE PUSH1 0x4 ADD PUSH2 0x8F3 SWAP2 SWAP1 PUSH2 0x35D1 JUMP JUMPDEST PUSH1 0x0 PUSH1 0x40 MLOAD DUP1 DUP4 SUB DUP2 PUSH1 0x0 DUP8 DUP1 EXTCODESIZE ISZERO DUP1 ISZERO PUSH2 0x90D JUMPI PUSH1 0x0 DUP1 REVERT JUMPDEST POP GAS CALL ISZERO DUP1 ISZERO PUSH2 0x921 JUMPI RETURNDATASIZE PUSH1 0x0 DUP1 RETURNDATACOPY RETURNDATASIZE PUSH1 0x0 REVERT JUMPDEST POP POP POP POP JUMPDEST PUSH1 0x1 PUSH1 0x5 DUP2 GT ISZERO PUSH2 0x933 JUMPI INVALID JUMPDEST DUP2 PUSH1 0x19 ADD PUSH1 0x1 SWAP1 SLOAD SWAP1 PUSH2 0x100 EXP SWAP1 DIV PUSH1 0xFF AND PUSH1 0x5 DUP2 GT ISZERO PUSH2 0x950 JUMPI INVALID JUMPDEST EQ ISZERO PUSH2 0xACB JUMPI PUSH2 0xAA6 DUP2 PUSH1 0x7 ADD PUSH1 0x40 MLOAD DUP1 PUSH1 0x80 ADD PUSH1 0x40 MSTORE SWAP1 DUP2 PUSH1 0x0 DUP3 ADD PUSH1 0x5 DUP1 PUSH1 0x20 MUL PUSH1 0x40 MLOAD SWAP1 DUP2 ADD PUSH1 0x40 MSTORE DUP1 SWAP3 SWAP2 SWAP1 DUP3 PUSH1 0x5 DUP1 ISZERO PUSH2 0x9A4 JUMPI PUSH1 0x20 MUL DUP3 ADD SWAP2 JUMPDEST DUP2 SLOAD DUP2 MSTORE PUSH1 0x20 ADD SWAP1 PUSH1 0x1 ADD SWAP1 DUP1 DUP4 GT PUSH2 0x990 JUMPI JUMPDEST POP POP POP POP POP DUP2 MSTORE PUSH1 0x20 ADD PUSH1 0x5 DUP3 ADD PUSH1 0x5 DUP1 PUSH1 0x20 MUL PUSH1 0x40 MLOAD SWAP1 DUP2 ADD PUSH1 0x40 MSTORE DUP1 SWAP3 SWAP2 SWAP1 DUP3 PUSH1 0x5 DUP1 ISZERO PUSH2 0x9E9 JUMPI PUSH1 0x20 MUL DUP3 ADD SWAP2 JUMPDEST DUP2 SLOAD DUP2 MSTORE PUSH1 0x20 ADD SWAP1 PUSH1 0x1 ADD SWAP1 DUP1 DUP4 GT PUSH2 0x9D5 JUMPI JUMPDEST POP POP POP POP POP DUP2 MSTORE PUSH1 0x20 ADD PUSH1 0xA DUP3 ADD PUSH1 0x5 DUP1 PUSH1 0x20 MUL PUSH1 0x40 MLOAD SWAP1 DUP2 ADD PUSH1 0x40 MSTORE DUP1 SWAP3 SWAP2 SWAP1 DUP3 PUSH1 0x5 DUP1 ISZERO PUSH2 0xA2E JUMPI PUSH1 0x20 MUL DUP3 ADD SWAP2 JUMPDEST DUP2 SLOAD DUP2 MSTORE PUSH1 0x20 ADD SWAP1 PUSH1 0x1 ADD SWAP1 DUP1 DUP4 GT PUSH2 0xA1A JUMPI JUMPDEST POP POP POP POP POP DUP2 MSTORE PUSH1 0x20 ADD PUSH1 0xF DUP3 ADD PUSH1 0x5 DUP1 PUSH1 0x20 MUL PUSH1 0x40 MLOAD SWAP1 DUP2 ADD PUSH1 0x40 MSTORE DUP1 SWAP3 SWAP2 SWAP1 DUP3 PUSH1 0x5 DUP1 ISZERO PUSH2 0xA98 JUMPI PUSH1 0x20 MUL DUP3 ADD SWAP2 PUSH1 0x0 SWAP1 JUMPDEST DUP3 DUP3 SWAP1 SLOAD SWAP1 PUSH2 0x100 EXP SWAP1 DIV PUSH1 0xFF AND ISZERO ISZERO DUP2 MSTORE PUSH1 0x20 ADD SWAP1 PUSH1 0x1 ADD SWAP1 PUSH1 0x20 DUP3 PUSH1 0x0 ADD DIV SWAP3 DUP4 ADD SWAP3 PUSH1 0x1 SUB DUP3 MUL SWAP2 POP DUP1 DUP5 GT PUSH2 0xA62 JUMPI SWAP1 POP JUMPDEST POP POP POP POP POP DUP2 MSTORE POP POP PUSH2 0x118F JUMP JUMPDEST DUP2 PUSH1 0x19 ADD PUSH1 0x1 PUSH2 0x100 EXP DUP2 SLOAD DUP2 PUSH1 0xFF MUL NOT AND SWAP1 DUP4 PUSH1 0x5 DUP2 GT ISZERO PUSH2 0xAC5 JUMPI INVALID JUMPDEST MUL OR SWAP1 SSTORE POP JUMPDEST POP POP POP POP POP JUMP JUMPDEST PUSH1 0x0 PUSH1 0x55 PUSH1 0x0 DUP4 PUSH20 0xFFFFFFFFFFFFFFFFFFFFFFFFFFFFFFFFFFFFFFFF AND PUSH20 0xFFFFFFFFFFFFFFFFFFFFFFFFFFFFFFFFFFFFFFFF AND DUP2 MSTORE PUSH1 0x20 ADD SWAP1 DUP2 MSTORE PUSH1 0x20 ADD PUSH1 0x0 KECCAK256 PUSH1 0x0 ADD SWAP1 POP PUSH1 0x0 JUMPDEST DUP2 DUP1 SLOAD SWAP1 POP DUP2 LT ISZERO PUSH2 0xB56 JUMPI PUSH2 0xB49 DUP3 DUP3 DUP2 SLOAD DUP2 LT PUSH2 0xB36 JUMPI INVALID JUMPDEST SWAP1 PUSH1 0x0 MSTORE PUSH1 0x20 PUSH1 0x0 KECCAK256 SWAP1 PUSH1 0x1A MUL ADD PUSH2 0x1C59 JUMP JUMPDEST DUP1 DUP1 PUSH1 0x1 ADD SWAP2 POP POP PUSH2 0xB1B JUMP JUMPDEST POP POP POP JUMP JUMPDEST PUSH2 0xB63 PUSH2 0x220F JUMP JUMPDEST PUSH1 0x55 PUSH1 0x0 DUP4 PUSH20 0xFFFFFFFFFFFFFFFFFFFFFFFFFFFFFFFFFFFFFFFF AND PUSH20 0xFFFFFFFFFFFFFFFFFFFFFFFFFFFFFFFFFFFFFFFF AND DUP2 MSTORE PUSH1 0x20 ADD SWAP1 DUP2 MSTORE PUSH1 0x20 ADD PUSH1 0x0 KECCAK256 PUSH1 0x40 MLOAD DUP1 PUSH1 0x60 ADD PUSH1 0x40 MSTORE SWAP1 DUP2 PUSH1 0x0 DUP3 ADD DUP1 SLOAD DUP1 PUSH1 0x20 MUL PUSH1 0x20 ADD PUSH1 0x40 MLOAD SWAP1 DUP2 ADD PUSH1 0x40 MSTORE DUP1 SWAP3 SWAP2 SWAP1 DUP2 DUP2 MSTORE PUSH1 0x20 ADD PUSH1 0x0 SWAP1 JUMPDEST DUP3 DUP3 LT ISZERO PUSH2 0xF13 JUMPI DUP4 DUP3 SWAP1 PUSH1 0x0 MSTORE PUSH1 0x20 PUSH1 0x0 KECCAK256 SWAP1 PUSH1 0x1A MUL ADD PUSH1 0x40 MLOAD DUP1 PUSH2 0x1E0 ADD PUSH1 0x40 MSTORE SWAP1 DUP2 PUSH1 0x0 DUP3 ADD SLOAD DUP2 MSTORE PUSH1 0x20 ADD PUSH1 0x1 DUP3 ADD PUSH1 0x0 SWAP1 SLOAD SWAP1 PUSH2 0x100 EXP SWAP1 DIV PUSH20 0xFFFFFFFFFFFFFFFFFFFFFFFFFFFFFFFFFFFFFFFF AND PUSH20 0xFFFFFFFFFFFFFFFFFFFFFFFFFFFFFFFFFFFFFFFF AND PUSH20 0xFFFFFFFFFFFFFFFFFFFFFFFFFFFFFFFFFFFFFFFF AND DUP2 MSTORE PUSH1 0x20 ADD PUSH1 0x2 DUP3 ADD PUSH1 0x0 SWAP1 SLOAD SWAP1 PUSH2 0x100 EXP SWAP1 DIV PUSH20 0xFFFFFFFFFFFFFFFFFFFFFFFFFFFFFFFFFFFFFFFF AND PUSH20 0xFFFFFFFFFFFFFFFFFFFFFFFFFFFFFFFFFFFFFFFF AND PUSH20 0xFFFFFFFFFFFFFFFFFFFFFFFFFFFFFFFFFFFFFFFF AND DUP2 MSTORE PUSH1 0x20 ADD PUSH1 0x2 DUP3 ADD PUSH1 0x14 SWAP1 SLOAD SWAP1 PUSH2 0x100 EXP SWAP1 DIV PUSH1 0xFF AND PUSH1 0x1 DUP2 GT ISZERO PUSH2 0xCCA JUMPI INVALID JUMPDEST PUSH1 0x1 DUP2 GT ISZERO PUSH2 0xCD5 JUMPI INVALID JUMPDEST DUP2 MSTORE PUSH1 0x20 ADD PUSH1 0x2 DUP3 ADD PUSH1 0x15 SWAP1 SLOAD SWAP1 PUSH2 0x100 EXP SWAP1 DIV PUSH1 0xFF AND PUSH1 0x2 DUP2 GT ISZERO PUSH2 0xCF7 JUMPI INVALID JUMPDEST PUSH1 0x2 DUP2 GT ISZERO PUSH2 0xD02 JUMPI INVALID JUMPDEST DUP2 MSTORE PUSH1 0x20 ADD PUSH1 0x2 DUP3 ADD PUSH1 0x16 SWAP1 SLOAD SWAP1 PUSH2 0x100 EXP SWAP1 DIV PUSH1 0xFF AND PUSH1 0x5 DUP2 GT ISZERO PUSH2 0xD24 JUMPI INVALID JUMPDEST PUSH1 0x5 DUP2 GT ISZERO PUSH2 0xD2F JUMPI INVALID JUMPDEST DUP2 MSTORE PUSH1 0x20 ADD PUSH1 0x3 DUP3 ADD SLOAD DUP2 MSTORE PUSH1 0x20 ADD PUSH1 0x4 DUP3 ADD SLOAD DUP2 MSTORE PUSH1 0x20 ADD PUSH1 0x5 DUP3 ADD SLOAD DUP2 MSTORE PUSH1 0x20 ADD PUSH1 0x6 DUP3 ADD SLOAD DUP2 MSTORE PUSH1 0x20 ADD PUSH1 0x7 DUP3 ADD PUSH1 0x40 MLOAD DUP1 PUSH1 0x80 ADD PUSH1 0x40 MSTORE SWAP1 DUP2 PUSH1 0x0 DUP3 ADD PUSH1 0x5 DUP1 PUSH1 0x20 MUL PUSH1 0x40 MLOAD SWAP1 DUP2 ADD PUSH1 0x40 MSTORE DUP1 SWAP3 SWAP2 SWAP1 DUP3 PUSH1 0x5 DUP1 ISZERO PUSH2 0xDA7 JUMPI PUSH1 0x20 MUL DUP3 ADD SWAP2 JUMPDEST DUP2 SLOAD DUP2 MSTORE PUSH1 0x20 ADD SWAP1 PUSH1 0x1 ADD SWAP1 DUP1 DUP4 GT PUSH2 0xD93 JUMPI JUMPDEST POP POP POP POP POP DUP2 MSTORE PUSH1 0x20 ADD PUSH1 0x5 DUP3 ADD PUSH1 0x5 DUP1 PUSH1 0x20 MUL PUSH1 0x40 MLOAD SWAP1 DUP2 ADD PUSH1 0x40 MSTORE DUP1 SWAP3 SWAP2 SWAP1 DUP3 PUSH1 0x5 DUP1 ISZERO PUSH2 0xDEC JUMPI PUSH1 0x20 MUL DUP3 ADD SWAP2 JUMPDEST DUP2 SLOAD DUP2 MSTORE PUSH1 0x20 ADD SWAP1 PUSH1 0x1 ADD SWAP1 DUP1 DUP4 GT PUSH2 0xDD8 JUMPI JUMPDEST POP POP POP POP POP DUP2 MSTORE PUSH1 0x20 ADD PUSH1 0xA DUP3 ADD PUSH1 0x5 DUP1 PUSH1 0x20 MUL PUSH1 0x40 MLOAD SWAP1 DUP2 ADD PUSH1 0x40 MSTORE DUP1 SWAP3 SWAP2 SWAP1 DUP3 PUSH1 0x5 DUP1 ISZERO PUSH2 0xE31 JUMPI PUSH1 0x20 MUL DUP3 ADD SWAP2 JUMPDEST DUP2 SLOAD DUP2 MSTORE PUSH1 0x20 ADD SWAP1 PUSH1 0x1 ADD SWAP1 DUP1 DUP4 GT PUSH2 0xE1D JUMPI JUMPDEST POP POP POP POP POP DUP2 MSTORE PUSH1 0x20 ADD PUSH1 0xF DUP3 ADD PUSH1 0x5 DUP1 PUSH1 0x20 MUL PUSH1 0x40 MLOAD SWAP1 DUP2 ADD PUSH1 0x40 MSTORE DUP1 SWAP3 SWAP2 SWAP1 DUP3 PUSH1 0x5 DUP1 ISZERO PUSH2 0xE9B JUMPI PUSH1 0x20 MUL DUP3 ADD SWAP2 PUSH1 0x0 SWAP1 JUMPDEST DUP3 DUP3 SWAP1 SLOAD SWAP1 PUSH2 0x100 EXP SWAP1 DIV PUSH1 0xFF AND ISZERO ISZERO DUP2 MSTORE PUSH1 0x20 ADD SWAP1 PUSH1 0x1 ADD SWAP1 PUSH1 0x20 DUP3 PUSH1 0x0 ADD DIV SWAP3 DUP4 ADD SWAP3 PUSH1 0x1 SUB DUP3 MUL SWAP2 POP DUP1 DUP5 GT PUSH2 0xE65 JUMPI SWAP1 POP JUMPDEST POP POP POP POP POP DUP2 MSTORE POP POP DUP2 MSTORE PUSH1 0x20 ADD PUSH1 0x17 DUP3 ADD SLOAD DUP2 MSTORE PUSH1 0x20 ADD PUSH1 0x18 DUP3 ADD SLOAD DUP2 MSTORE PUSH1 0x20 ADD PUSH1 0x19 DUP3 ADD PUSH1 0x0 SWAP1 SLOAD SWAP1 PUSH2 0x100 EXP SWAP1 DIV PUSH1 0xFF AND ISZERO ISZERO ISZERO ISZERO DUP2 MSTORE PUSH1 0x20 ADD PUSH1 0x19 DUP3 ADD PUSH1 0x1 SWAP1 SLOAD SWAP1 PUSH2 0x100 EXP SWAP1 DIV PUSH1 0xFF AND PUSH1 0x5 DUP2 GT ISZERO PUSH2 0xEF5 JUMPI INVALID JUMPDEST PUSH1 0x5 DUP2 GT ISZERO PUSH2 0xF00 JUMPI INVALID JUMPDEST DUP2 MSTORE POP POP DUP2 MSTORE PUSH1 0x20 ADD SWAP1 PUSH1 0x1 ADD SWAP1 PUSH2 0xBD2 JUMP JUMPDEST POP POP POP POP DUP2 MSTORE PUSH1 0x20 ADD PUSH1 0x1 DUP3 ADD SLOAD DUP2 MSTORE PUSH1 0x20 ADD PUSH1 0x2 DUP3 ADD PUSH1 0x0 SWAP1 SLOAD SWAP1 PUSH2 0x100 EXP SWAP1 DIV PUSH1 0xFF AND ISZERO ISZERO ISZERO ISZERO DUP2 MSTORE POP POP SWAP1 POP SWAP2 SWAP1 POP JUMP JUMPDEST PUSH2 0xF4F PUSH2 0x2232 JUMP JUMPDEST PUSH1 0x55 PUSH1 0x0 CALLER PUSH20 0xFFFFFFFFFFFFFFFFFFFFFFFFFFFFFFFFFFFFFFFF AND PUSH20 0xFFFFFFFFFFFFFFFFFFFFFFFFFFFFFFFFFFFFFFFF AND DUP2 MSTORE PUSH1 0x20 ADD SWAP1 DUP2 MSTORE PUSH1 0x20 ADD PUSH1 0x0 KECCAK256 PUSH1 0x2 ADD PUSH1 0x0 SWAP1 SLOAD SWAP1 PUSH2 0x100 EXP SWAP1 DIV PUSH1 0xFF AND PUSH2 0xFDE JUMPI PUSH1 0x40 MLOAD PUSH32 0x8C379A000000000000000000000000000000000000000000000000000000000 DUP2 MSTORE PUSH1 0x4 ADD PUSH2 0xFD5 SWAP1 PUSH2 0x382C JUMP JUMPDEST PUSH1 0x40 MLOAD DUP1 SWAP2 SUB SWAP1 REVERT JUMPDEST PUSH2 0xFE6 PUSH2 0x220F JUMP JUMPDEST PUSH2 0xFEF CALLER PUSH2 0xB5B JUMP JUMPDEST SWAP1 POP DUP1 PUSH1 0x0 ADD MLOAD DUP4 DUP2 MLOAD DUP2 LT PUSH2 0x1001 JUMPI INVALID JUMPDEST PUSH1 0x20 MUL PUSH1 0x20 ADD ADD MLOAD SWAP2 POP POP SWAP2 SWAP1 POP JUMP JUMPDEST PUSH1 0x0 PUSH1 0x48 DUP5 PUSH1 0x5 DUP2 GT ISZERO PUSH2 0x1021 JUMPI INVALID JUMPDEST PUSH1 0x6 DUP2 LT PUSH2 0x102B JUMPI INVALID JUMPDEST ADD SLOAD SWAP1 POP PUSH2 0x1037 PUSH2 0x2308 JUMP JUMPDEST PUSH1 0x2A DUP6 PUSH1 0x5 DUP2 GT ISZERO PUSH2 0x1045 JUMPI INVALID JUMPDEST PUSH1 0x6 DUP2 LT PUSH2 0x104F JUMPI INVALID JUMPDEST PUSH1 0x5 MUL ADD PUSH1 0x5 DUP1 PUSH1 0x20 MUL PUSH1 0x40 MLOAD SWAP1 DUP2 ADD PUSH1 0x40 MSTORE DUP1 SWAP3 SWAP2 SWAP1 DUP3 PUSH1 0x5 DUP1 ISZERO PUSH2 0x108A JUMPI PUSH1 0x20 MUL DUP3 ADD SWAP2 JUMPDEST DUP2 SLOAD DUP2 MSTORE PUSH1 0x20 ADD SWAP1 PUSH1 0x1 ADD SWAP1 DUP1 DUP4 GT PUSH2 0x1076 JUMPI JUMPDEST POP POP POP POP POP SWAP1 POP PUSH1 0x0 JUMPDEST DUP3 DUP2 LT ISZERO PUSH2 0x1186 JUMPI PUSH3 0x127500 TIMESTAMP DUP4 DUP4 PUSH1 0x5 DUP2 LT PUSH2 0x10AD JUMPI INVALID JUMPDEST PUSH1 0x20 MUL ADD MLOAD ADD SUB DUP8 PUSH2 0x140 ADD MLOAD PUSH1 0x0 ADD MLOAD DUP3 PUSH1 0x5 DUP2 LT PUSH2 0x10C9 JUMPI INVALID JUMPDEST PUSH1 0x20 MUL ADD DUP2 DUP2 MSTORE POP POP TIMESTAMP DUP3 DUP3 PUSH1 0x5 DUP2 LT PUSH2 0x10DF JUMPI INVALID JUMPDEST PUSH1 0x20 MUL ADD MLOAD ADD DUP8 PUSH2 0x140 ADD MLOAD PUSH1 0x20 ADD MLOAD DUP3 PUSH1 0x5 DUP2 LT PUSH2 0x10FA JUMPI INVALID JUMPDEST PUSH1 0x20 MUL ADD DUP2 DUP2 MSTORE POP POP PUSH2 0x2710 DUP1 PUSH1 0x6 DUP9 PUSH1 0x5 DUP2 GT ISZERO PUSH2 0x1115 JUMPI INVALID JUMPDEST PUSH1 0x6 DUP2 LT PUSH2 0x111F JUMPI INVALID JUMPDEST ADD SLOAD DUP7 DUP9 MUL MUL DUP2 PUSH2 0x112C JUMPI INVALID JUMPDEST DIV DUP2 PUSH2 0x1134 JUMPI INVALID JUMPDEST DIV DUP8 PUSH2 0x140 ADD MLOAD PUSH1 0x40 ADD MLOAD DUP3 PUSH1 0x5 DUP2 LT PUSH2 0x114A JUMPI INVALID JUMPDEST PUSH1 0x20 MUL ADD DUP2 DUP2 MSTORE POP POP PUSH1 0x0 DUP8 PUSH2 0x140 ADD MLOAD PUSH1 0x60 ADD MLOAD DUP3 PUSH1 0x5 DUP2 LT PUSH2 0x116A JUMPI INVALID JUMPDEST PUSH1 0x20 MUL ADD SWAP1 ISZERO ISZERO SWAP1 DUP2 ISZERO ISZERO DUP2 MSTORE POP POP DUP1 DUP1 PUSH1 0x1 ADD SWAP2 POP POP PUSH2 0x1094 JUMP JUMPDEST POP POP POP POP POP POP POP JUMP JUMPDEST PUSH1 0x0 DUP1 PUSH1 0x0 SWAP1 POP JUMPDEST PUSH1 0x5 PUSH1 0x1 MUL DUP2 LT ISZERO PUSH2 0x11D6 JUMPI PUSH1 0x0 ISZERO ISZERO DUP4 PUSH1 0x60 ADD MLOAD DUP3 PUSH1 0x5 DUP2 LT PUSH2 0x11B7 JUMPI INVALID JUMPDEST PUSH1 0x20 MUL ADD MLOAD ISZERO ISZERO EQ ISZERO PUSH2 0x11C9 JUMPI PUSH2 0x11D6 JUMP JUMPDEST DUP1 DUP1 PUSH1 0x1 ADD SWAP2 POP POP PUSH2 0x1197 JUMP JUMPDEST DUP3 PUSH1 0x0 ADD MLOAD DUP2 PUSH1 0x5 DUP2 LT PUSH2 0x11E6 JUMPI INVALID JUMPDEST PUSH1 0x20 MUL ADD MLOAD TIMESTAMP LT ISZERO PUSH2 0x11FC JUMPI PUSH1 0x1 SWAP2 POP POP PUSH2 0x1249 JUMP JUMPDEST DUP3 PUSH1 0x20 ADD MLOAD DUP2 PUSH1 0x5 DUP2 LT PUSH2 0x120C JUMPI INVALID JUMPDEST PUSH1 0x20 MUL ADD MLOAD TIMESTAMP GT PUSH2 0x1221 JUMPI PUSH1 0x2 SWAP2 POP POP PUSH2 0x1249 JUMP JUMPDEST TIMESTAMP DUP4 PUSH1 0x20 ADD MLOAD DUP3 PUSH1 0x5 DUP2 LT PUSH2 0x1232 JUMPI INVALID JUMPDEST PUSH1 0x20 MUL ADD MLOAD LT ISZERO PUSH2 0x1247 JUMPI PUSH1 0x3 SWAP2 POP POP PUSH2 0x1249 JUMP JUMPDEST POP JUMPDEST SWAP2 SWAP1 POP JUMP JUMPDEST CALLER PUSH20 0xFFFFFFFFFFFFFFFFFFFFFFFFFFFFFFFFFFFFFFFF AND DUP6 PUSH20 0xFFFFFFFFFFFFFFFFFFFFFFFFFFFFFFFFFFFFFFFF AND EQ ISZERO PUSH2 0x12BD JUMPI PUSH1 0x40 MLOAD PUSH32 0x8C379A000000000000000000000000000000000000000000000000000000000 DUP2 MSTORE PUSH1 0x4 ADD PUSH2 0x12B4 SWAP1 PUSH2 0x380C JUMP JUMPDEST PUSH1 0x40 MLOAD DUP1 SWAP2 SUB SWAP1 REVERT JUMPDEST PUSH1 0x0 PUSH1 0x1 DUP2 GT ISZERO PUSH2 0x12CA JUMPI INVALID JUMPDEST DUP5 PUSH1 0x1 DUP2 GT ISZERO PUSH2 0x12D6 JUMPI INVALID JUMPDEST EQ ISZERO PUSH2 0x136E JUMPI PUSH1 0x59 PUSH1 0x0 SWAP1 SLOAD SWAP1 PUSH2 0x100 EXP SWAP1 DIV PUSH20 0xFFFFFFFFFFFFFFFFFFFFFFFFFFFFFFFFFFFFFFFF AND PUSH20 0xFFFFFFFFFFFFFFFFFFFFFFFFFFFFFFFFFFFFFFFF AND PUSH4 0x31F652DB DUP5 DUP4 CALLER PUSH1 0x40 MLOAD DUP5 PUSH4 0xFFFFFFFF AND PUSH1 0xE0 SHL DUP2 MSTORE PUSH1 0x4 ADD PUSH2 0x133B SWAP4 SWAP3 SWAP2 SWAP1 PUSH2 0x3767 JUMP JUMPDEST PUSH1 0x0 PUSH1 0x40 MLOAD DUP1 DUP4 SUB DUP2 PUSH1 0x0 DUP8 DUP1 EXTCODESIZE ISZERO DUP1 ISZERO PUSH2 0x1355 JUMPI PUSH1 0x0 DUP1 REVERT JUMPDEST POP GAS CALL ISZERO DUP1 ISZERO PUSH2 0x1369 JUMPI RETURNDATASIZE PUSH1 0x0 DUP1 RETURNDATACOPY RETURNDATASIZE PUSH1 0x0 REVERT JUMPDEST POP POP POP POP JUMPDEST PUSH1 0x1 DUP1 DUP2 GT ISZERO PUSH2 0x137A JUMPI INVALID JUMPDEST DUP5 PUSH1 0x1 DUP2 GT ISZERO PUSH2 0x1386 JUMPI INVALID JUMPDEST EQ ISZERO PUSH2 0x141E JUMPI PUSH1 0x59 PUSH1 0x0 SWAP1 SLOAD SWAP1 PUSH2 0x100 EXP SWAP1 DIV PUSH20 0xFFFFFFFFFFFFFFFFFFFFFFFFFFFFFFFFFFFFFFFF AND PUSH20 0xFFFFFFFFFFFFFFFFFFFFFFFFFFFFFFFFFFFFFFFF AND PUSH4 0x31F652DB DUP5 DUP4 DUP9 PUSH1 0x40 MLOAD DUP5 PUSH4 0xFFFFFFFF AND PUSH1 0xE0 SHL DUP2 MSTORE PUSH1 0x4 ADD PUSH2 0x13EB SWAP4 SWAP3 SWAP2 SWAP1 PUSH2 0x3730 JUMP JUMPDEST PUSH1 0x0 PUSH1 0x40 MLOAD DUP1 DUP4 SUB DUP2 PUSH1 0x0 DUP8 DUP1 EXTCODESIZE ISZERO DUP1 ISZERO PUSH2 0x1405 JUMPI PUSH1 0x0 DUP1 REVERT JUMPDEST POP GAS CALL ISZERO DUP1 ISZERO PUSH2 0x1419 JUMPI RETURNDATASIZE PUSH1 0x0 DUP1 RETURNDATACOPY RETURNDATASIZE PUSH1 0x0 REVERT JUMPDEST POP POP POP POP JUMPDEST PUSH1 0x0 PUSH1 0x57 PUSH1 0x0 SWAP1 SLOAD SWAP1 PUSH2 0x100 EXP SWAP1 DIV PUSH20 0xFFFFFFFFFFFFFFFFFFFFFFFFFFFFFFFFFFFFFFFF AND PUSH20 0xFFFFFFFFFFFFFFFFFFFFFFFFFFFFFFFFFFFFFFFF AND PUSH4 0x524BC34A DUP8 DUP8 DUP8 DUP8 DUP8 PUSH1 0x40 MLOAD DUP7 PUSH4 0xFFFFFFFF AND PUSH1 0xE0 SHL DUP2 MSTORE PUSH1 0x4 ADD PUSH2 0x1483 SWAP6 SWAP5 SWAP4 SWAP3 SWAP2 SWAP1 PUSH2 0x35EC JUMP JUMPDEST PUSH1 0x20 PUSH1 0x40 MLOAD DUP1 DUP4 SUB DUP2 PUSH1 0x0 DUP8 DUP1 EXTCODESIZE ISZERO DUP1 ISZERO PUSH2 0x149D JUMPI PUSH1 0x0 DUP1 REVERT JUMPDEST POP GAS CALL ISZERO DUP1 ISZERO PUSH2 0x14B1 JUMPI RETURNDATASIZE PUSH1 0x0 DUP1 RETURNDATACOPY RETURNDATASIZE PUSH1 0x0 REVERT JUMPDEST POP POP POP POP PUSH1 0x40 MLOAD RETURNDATASIZE PUSH1 0x1F NOT PUSH1 0x1F DUP3 ADD AND DUP3 ADD DUP1 PUSH1 0x40 MSTORE POP DUP2 ADD SWAP1 PUSH2 0x14D5 SWAP2 SWAP1 PUSH2 0x2D67 JUMP JUMPDEST SWAP1 POP PUSH1 0x0 PUSH1 0x55 PUSH1 0x0 DUP9 PUSH20 0xFFFFFFFFFFFFFFFFFFFFFFFFFFFFFFFFFFFFFFFF AND PUSH20 0xFFFFFFFFFFFFFFFFFFFFFFFFFFFFFFFFFFFFFFFF AND DUP2 MSTORE PUSH1 0x20 ADD SWAP1 DUP2 MSTORE PUSH1 0x20 ADD PUSH1 0x0 KECCAK256 SWAP1 POP PUSH2 0x1522 PUSH2 0x232A JUMP JUMPDEST PUSH1 0x40 MLOAD DUP1 PUSH1 0xA0 ADD PUSH1 0x40 MSTORE DUP1 DUP10 PUSH20 0xFFFFFFFFFFFFFFFFFFFFFFFFFFFFFFFFFFFFFFFF AND DUP2 MSTORE PUSH1 0x20 ADD DUP9 PUSH1 0x1 DUP2 GT ISZERO PUSH2 0x1555 JUMPI INVALID JUMPDEST DUP2 MSTORE PUSH1 0x20 ADD DUP8 PUSH1 0x2 DUP2 GT ISZERO PUSH2 0x1566 JUMPI INVALID JUMPDEST DUP2 MSTORE PUSH1 0x20 ADD DUP7 PUSH1 0x5 DUP2 GT ISZERO PUSH2 0x1577 JUMPI INVALID JUMPDEST DUP2 MSTORE PUSH1 0x20 ADD DUP6 DUP2 MSTORE POP SWAP1 POP PUSH2 0x158A PUSH2 0x2232 JUMP JUMPDEST PUSH2 0x15A7 DUP3 DUP6 DUP6 PUSH1 0x1 ADD PUSH1 0x0 DUP2 SLOAD DUP1 SWAP3 SWAP2 SWAP1 PUSH1 0x1 ADD SWAP2 SWAP1 POP SSTORE PUSH2 0x1EB0 JUMP JUMPDEST SWAP1 POP DUP3 PUSH1 0x0 ADD DUP2 SWAP1 DUP1 PUSH1 0x1 DUP2 SLOAD ADD DUP1 DUP3 SSTORE DUP1 SWAP2 POP POP PUSH1 0x1 SWAP1 SUB SWAP1 PUSH1 0x0 MSTORE PUSH1 0x20 PUSH1 0x0 KECCAK256 SWAP1 PUSH1 0x1A MUL ADD PUSH1 0x0 SWAP1 SWAP2 SWAP1 SWAP2 SWAP1 SWAP2 POP PUSH1 0x0 DUP3 ADD MLOAD DUP2 PUSH1 0x0 ADD SSTORE PUSH1 0x20 DUP3 ADD MLOAD DUP2 PUSH1 0x1 ADD PUSH1 0x0 PUSH2 0x100 EXP DUP2 SLOAD DUP2 PUSH20 0xFFFFFFFFFFFFFFFFFFFFFFFFFFFFFFFFFFFFFFFF MUL NOT AND SWAP1 DUP4 PUSH20 0xFFFFFFFFFFFFFFFFFFFFFFFFFFFFFFFFFFFFFFFF AND MUL OR SWAP1 SSTORE POP PUSH1 0x40 DUP3 ADD MLOAD DUP2 PUSH1 0x2 ADD PUSH1 0x0 PUSH2 0x100 EXP DUP2 SLOAD DUP2 PUSH20 0xFFFFFFFFFFFFFFFFFFFFFFFFFFFFFFFFFFFFFFFF MUL NOT AND SWAP1 DUP4 PUSH20 0xFFFFFFFFFFFFFFFFFFFFFFFFFFFFFFFFFFFFFFFF AND MUL OR SWAP1 SSTORE POP PUSH1 0x60 DUP3 ADD MLOAD DUP2 PUSH1 0x2 ADD PUSH1 0x14 PUSH2 0x100 EXP DUP2 SLOAD DUP2 PUSH1 0xFF MUL NOT AND SWAP1 DUP4 PUSH1 0x1 DUP2 GT ISZERO PUSH2 0x1693 JUMPI INVALID JUMPDEST MUL OR SWAP1 SSTORE POP PUSH1 0x80 DUP3 ADD MLOAD DUP2 PUSH1 0x2 ADD PUSH1 0x15 PUSH2 0x100 EXP DUP2 SLOAD DUP2 PUSH1 0xFF MUL NOT AND SWAP1 DUP4 PUSH1 0x2 DUP2 GT ISZERO PUSH2 0x16BC JUMPI INVALID JUMPDEST MUL OR SWAP1 SSTORE POP PUSH1 0xA0 DUP3 ADD MLOAD DUP2 PUSH1 0x2 ADD PUSH1 0x16 PUSH2 0x100 EXP DUP2 SLOAD DUP2 PUSH1 0xFF MUL NOT AND SWAP1 DUP4 PUSH1 0x5 DUP2 GT ISZERO PUSH2 0x16E5 JUMPI INVALID JUMPDEST MUL OR SWAP1 SSTORE POP PUSH1 0xC0 DUP3 ADD MLOAD DUP2 PUSH1 0x3 ADD SSTORE PUSH1 0xE0 DUP3 ADD MLOAD DUP2 PUSH1 0x4 ADD SSTORE PUSH2 0x100 DUP3 ADD MLOAD DUP2 PUSH1 0x5 ADD SSTORE PUSH2 0x120 DUP3 ADD MLOAD DUP2 PUSH1 0x6 ADD SSTORE PUSH2 0x140 DUP3 ADD MLOAD DUP2 PUSH1 0x7 ADD PUSH1 0x0 DUP3 ADD MLOAD DUP2 PUSH1 0x0 ADD SWAP1 PUSH1 0x5 PUSH2 0x1735 SWAP3 SWAP2 SWAP1 PUSH2 0x2390 JUMP JUMPDEST POP PUSH1 0x20 DUP3 ADD MLOAD DUP2 PUSH1 0x5 ADD SWAP1 PUSH1 0x5 PUSH2 0x174D SWAP3 SWAP2 SWAP1 PUSH2 0x2390 JUMP JUMPDEST POP PUSH1 0x40 DUP3 ADD MLOAD DUP2 PUSH1 0xA ADD SWAP1 PUSH1 0x5 PUSH2 0x1765 SWAP3 SWAP2 SWAP1 PUSH2 0x2390 JUMP JUMPDEST POP PUSH1 0x60 DUP3 ADD MLOAD DUP2 PUSH1 0xF ADD SWAP1 PUSH1 0x5 PUSH2 0x177D SWAP3 SWAP2 SWAP1 PUSH2 0x23D0 JUMP JUMPDEST POP POP POP PUSH2 0x160 DUP3 ADD MLOAD DUP2 PUSH1 0x17 ADD SSTORE PUSH2 0x180 DUP3 ADD MLOAD DUP2 PUSH1 0x18 ADD SSTORE PUSH2 0x1A0 DUP3 ADD MLOAD DUP2 PUSH1 0x19 ADD PUSH1 0x0 PUSH2 0x100 EXP DUP2 SLOAD DUP2 PUSH1 0xFF MUL NOT AND SWAP1 DUP4 ISZERO ISZERO MUL OR SWAP1 SSTORE POP PUSH2 0x1C0 DUP3 ADD MLOAD DUP2 PUSH1 0x19 ADD PUSH1 0x1 PUSH2 0x100 EXP DUP2 SLOAD DUP2 PUSH1 0xFF MUL NOT AND SWAP1 DUP4 PUSH1 0x5 DUP2 GT ISZERO PUSH2 0x17DC JUMPI INVALID JUMPDEST MUL OR SWAP1 SSTORE POP POP POP PUSH1 0x1 DUP4 PUSH1 0x2 ADD PUSH1 0x0 PUSH2 0x100 EXP DUP2 SLOAD DUP2 PUSH1 0xFF MUL NOT AND SWAP1 DUP4 ISZERO ISZERO MUL OR SWAP1 SSTORE POP PUSH1 0x56 CALLER SWAP1 DUP1 PUSH1 0x1 DUP2 SLOAD ADD DUP1 DUP3 SSTORE DUP1 SWAP2 POP POP PUSH1 0x1 SWAP1 SUB SWAP1 PUSH1 0x0 MSTORE PUSH1 0x20 PUSH1 0x0 KECCAK256 ADD PUSH1 0x0 SWAP1 SWAP2 SWAP1 SWAP2 SWAP1 SWAP2 PUSH2 0x100 EXP DUP2 SLOAD DUP2 PUSH20 0xFFFFFFFFFFFFFFFFFFFFFFFFFFFFFFFFFFFFFFFF MUL NOT AND SWAP1 DUP4 PUSH20 0xFFFFFFFFFFFFFFFFFFFFFFFFFFFFFFFFFFFFFFFF AND MUL OR SWAP1 SSTORE POP PUSH32 0x787A470148C364FF9C70E82B2C6C1B0BECBCA7969011737F1F93CE9307B424E9 DUP10 DUP10 DUP10 DUP10 DUP10 DUP7 PUSH1 0x0 ADD MLOAD PUSH1 0x40 MLOAD PUSH2 0x18A0 SWAP7 SWAP6 SWAP5 SWAP4 SWAP3 SWAP2 SWAP1 PUSH2 0x363F JUMP JUMPDEST PUSH1 0x40 MLOAD DUP1 SWAP2 SUB SWAP1 LOG1 POP POP POP POP POP POP POP POP POP JUMP JUMPDEST PUSH1 0x0 PUSH1 0x55 PUSH1 0x0 DUP10 PUSH20 0xFFFFFFFFFFFFFFFFFFFFFFFFFFFFFFFFFFFFFFFF AND PUSH20 0xFFFFFFFFFFFFFFFFFFFFFFFFFFFFFFFFFFFFFFFF AND DUP2 MSTORE PUSH1 0x20 ADD SWAP1 DUP2 MSTORE PUSH1 0x20 ADD PUSH1 0x0 KECCAK256 SWAP1 POP PUSH1 0x0 DUP2 PUSH1 0x0 ADD DUP4 DUP2 SLOAD DUP2 LT PUSH2 0x1907 JUMPI INVALID JUMPDEST SWAP1 PUSH1 0x0 MSTORE PUSH1 0x20 PUSH1 0x0 KECCAK256 SWAP1 PUSH1 0x1A MUL ADD SWAP1 POP DUP1 PUSH1 0x3 ADD SLOAD DUP5 EQ PUSH2 0x195D JUMPI PUSH1 0x40 MLOAD PUSH32 0x8C379A000000000000000000000000000000000000000000000000000000000 DUP2 MSTORE PUSH1 0x4 ADD PUSH2 0x1954 SWAP1 PUSH2 0x384C JUMP JUMPDEST PUSH1 0x40 MLOAD DUP1 SWAP2 SUB SWAP1 REVERT JUMPDEST PUSH1 0x0 PUSH1 0x1 DUP2 GT ISZERO PUSH2 0x196A JUMPI INVALID JUMPDEST DUP8 PUSH1 0x1 DUP2 GT ISZERO PUSH2 0x1976 JUMPI INVALID JUMPDEST EQ ISZERO PUSH2 0x19FA JUMPI DUP8 PUSH20 0xFFFFFFFFFFFFFFFFFFFFFFFFFFFFFFFFFFFFFFFF AND CALLER PUSH20 0xFFFFFFFFFFFFFFFFFFFFFFFFFFFFFFFFFFFFFFFF AND EQ PUSH2 0x19EA JUMPI PUSH1 0x40 MLOAD PUSH32 0x8C379A000000000000000000000000000000000000000000000000000000000 DUP2 MSTORE PUSH1 0x4 ADD PUSH2 0x19E1 SWAP1 PUSH2 0x386C JUMP JUMPDEST PUSH1 0x40 MLOAD DUP1 SWAP2 SUB SWAP1 REVERT JUMPDEST PUSH2 0x19F5 DUP10 DUP10 DUP6 PUSH2 0x74C JUMP JUMPDEST PUSH2 0x1A74 JUMP JUMPDEST DUP9 PUSH20 0xFFFFFFFFFFFFFFFFFFFFFFFFFFFFFFFFFFFFFFFF AND CALLER PUSH20 0xFFFFFFFFFFFFFFFFFFFFFFFFFFFFFFFFFFFFFFFF AND EQ PUSH2 0x1A68 JUMPI PUSH1 0x40 MLOAD PUSH32 0x8C379A000000000000000000000000000000000000000000000000000000000 DUP2 MSTORE PUSH1 0x4 ADD PUSH2 0x1A5F SWAP1 PUSH2 0x388C JUMP JUMPDEST PUSH1 0x40 MLOAD DUP1 SWAP2 SUB SWAP1 REVERT JUMPDEST PUSH2 0x1A73 DUP10 DUP10 DUP6 PUSH2 0x74C JUMP JUMPDEST JUMPDEST DUP8 PUSH20 0xFFFFFFFFFFFFFFFFFFFFFFFFFFFFFFFFFFFFFFFF AND DUP10 PUSH20 0xFFFFFFFFFFFFFFFFFFFFFFFFFFFFFFFFFFFFFFFF AND PUSH32 0x52F2CBDDB551A0CD4AD65095542B2EFD13CD261642F4034C3B0C01B232C2591D DUP10 DUP10 DUP10 DUP10 DUP10 PUSH1 0x40 MLOAD PUSH2 0x1AD9 SWAP6 SWAP5 SWAP4 SWAP3 SWAP2 SWAP1 PUSH2 0x379E JUMP JUMPDEST PUSH1 0x40 MLOAD DUP1 SWAP2 SUB SWAP1 LOG3 POP POP POP POP POP POP POP POP POP JUMP JUMPDEST JUMP JUMPDEST PUSH1 0x0 JUMPDEST PUSH1 0x56 DUP1 SLOAD SWAP1 POP DUP2 LT ISZERO PUSH2 0x1BC8 JUMPI PUSH1 0x0 PUSH1 0x55 PUSH1 0x0 PUSH1 0x56 DUP5 DUP2 SLOAD DUP2 LT PUSH2 0x1B11 JUMPI INVALID JUMPDEST SWAP1 PUSH1 0x0 MSTORE PUSH1 0x20 PUSH1 0x0 KECCAK256 ADD PUSH1 0x0 SWAP1 SLOAD SWAP1 PUSH2 0x100 EXP SWAP1 DIV PUSH20 0xFFFFFFFFFFFFFFFFFFFFFFFFFFFFFFFFFFFFFFFF AND PUSH20 0xFFFFFFFFFFFFFFFFFFFFFFFFFFFFFFFFFFFFFFFF AND PUSH20 0xFFFFFFFFFFFFFFFFFFFFFFFFFFFFFFFFFFFFFFFF AND DUP2 MSTORE PUSH1 0x20 ADD SWAP1 DUP2 MSTORE PUSH1 0x20 ADD PUSH1 0x0 KECCAK256 PUSH1 0x0 ADD SWAP1 POP PUSH1 0x0 JUMPDEST DUP2 DUP1 SLOAD SWAP1 POP DUP2 LT ISZERO PUSH2 0x1BB9 JUMPI PUSH2 0x1BAC DUP3 DUP3 DUP2 SLOAD DUP2 LT PUSH2 0x1B99 JUMPI INVALID JUMPDEST SWAP1 PUSH1 0x0 MSTORE PUSH1 0x20 PUSH1 0x0 KECCAK256 SWAP1 PUSH1 0x1A MUL ADD PUSH2 0x1C59 JUMP JUMPDEST DUP1 DUP1 PUSH1 0x1 ADD SWAP2 POP POP PUSH2 0x1B7E JUMP JUMPDEST POP POP DUP1 DUP1 PUSH1 0x1 ADD SWAP2 POP POP PUSH2 0x1AF1 JUMP JUMPDEST POP JUMP JUMPDEST PUSH1 0x60 PUSH1 0x56 DUP1 SLOAD DUP1 PUSH1 0x20 MUL PUSH1 0x20 ADD PUSH1 0x40 MLOAD SWAP1 DUP2 ADD PUSH1 0x40 MSTORE DUP1 SWAP3 SWAP2 SWAP1 DUP2 DUP2 MSTORE PUSH1 0x20 ADD DUP3 DUP1 SLOAD DUP1 ISZERO PUSH2 0x1C4F JUMPI PUSH1 0x20 MUL DUP3 ADD SWAP2 SWAP1 PUSH1 0x0 MSTORE PUSH1 0x20 PUSH1 0x0 KECCAK256 SWAP1 JUMPDEST DUP2 PUSH1 0x0 SWAP1 SLOAD SWAP1 PUSH2 0x100 EXP SWAP1 DIV PUSH20 0xFFFFFFFFFFFFFFFFFFFFFFFFFFFFFFFFFFFFFFFF AND PUSH20 0xFFFFFFFFFFFFFFFFFFFFFFFFFFFFFFFFFFFFFFFF AND DUP2 MSTORE PUSH1 0x20 ADD SWAP1 PUSH1 0x1 ADD SWAP1 DUP1 DUP4 GT PUSH2 0x1C05 JUMPI JUMPDEST POP POP POP POP POP SWAP1 POP SWAP1 JUMP JUMPDEST PUSH2 0x1C61 PUSH2 0x2469 JUMP JUMPDEST PUSH1 0x57 PUSH1 0x0 SWAP1 SLOAD SWAP1 PUSH2 0x100 EXP SWAP1 DIV PUSH20 0xFFFFFFFFFFFFFFFFFFFFFFFFFFFFFFFFFFFFFFFF AND PUSH20 0xFFFFFFFFFFFFFFFFFFFFFFFFFFFFFFFFFFFFFFFF AND PUSH4 0x69FA00C PUSH1 0x40 MLOAD DUP2 PUSH4 0xFFFFFFFF AND PUSH1 0xE0 SHL DUP2 MSTORE PUSH1 0x4 ADD PUSH2 0x2A0 PUSH1 0x40 MLOAD DUP1 DUP4 SUB DUP2 DUP7 DUP1 EXTCODESIZE ISZERO DUP1 ISZERO PUSH2 0x1CCA JUMPI PUSH1 0x0 DUP1 REVERT JUMPDEST POP GAS STATICCALL ISZERO DUP1 ISZERO PUSH2 0x1CDE JUMPI RETURNDATASIZE PUSH1 0x0 DUP1 RETURNDATACOPY RETURNDATASIZE PUSH1 0x0 REVERT JUMPDEST POP POP POP POP PUSH1 0x40 MLOAD RETURNDATASIZE PUSH1 0x1F NOT PUSH1 0x1F DUP3 ADD AND DUP3 ADD DUP1 PUSH1 0x40 MSTORE POP DUP2 ADD SWAP1 PUSH2 0x1D02 SWAP2 SWAP1 PUSH2 0x2C08 JUMP JUMPDEST SWAP1 POP PUSH2 0x1D0C PUSH2 0x2496 JUMP JUMPDEST DUP2 DUP4 PUSH1 0x2 ADD PUSH1 0x15 SWAP1 SLOAD SWAP1 PUSH2 0x100 EXP SWAP1 DIV PUSH1 0xFF AND PUSH1 0x2 DUP2 GT ISZERO PUSH2 0x1D2A JUMPI INVALID JUMPDEST PUSH1 0x3 DUP2 LT PUSH2 0x1D34 JUMPI INVALID JUMPDEST PUSH1 0x20 MUL ADD MLOAD SWAP1 POP PUSH2 0x1D43 PUSH2 0x24D3 JUMP JUMPDEST PUSH1 0x40 MLOAD DUP1 PUSH1 0xE0 ADD PUSH1 0x40 MSTORE DUP1 DUP4 PUSH1 0x0 ADD MLOAD DUP2 MSTORE PUSH1 0x20 ADD DUP4 PUSH1 0x20 ADD MLOAD DUP2 MSTORE PUSH1 0x20 ADD DUP4 PUSH1 0x40 ADD MLOAD DUP2 MSTORE PUSH1 0x20 ADD DUP4 PUSH1 0x60 ADD MLOAD DUP2 MSTORE PUSH1 0x20 ADD DUP4 PUSH1 0x80 ADD MLOAD DUP2 MSTORE PUSH1 0x20 ADD DUP4 PUSH1 0xA0 ADD MLOAD DUP2 MSTORE PUSH1 0x20 ADD DUP4 PUSH1 0xC0 ADD MLOAD DUP2 MSTORE POP SWAP1 POP PUSH2 0x1D9C PUSH2 0x2308 JUMP JUMPDEST PUSH1 0x0 DUP1 JUMPDEST PUSH1 0x48 DUP8 PUSH1 0x2 ADD PUSH1 0x16 SWAP1 SLOAD SWAP1 PUSH2 0x100 EXP SWAP1 DIV PUSH1 0xFF AND PUSH1 0x5 DUP2 GT ISZERO PUSH2 0x1DBF JUMPI INVALID JUMPDEST PUSH1 0x6 DUP2 LT PUSH2 0x1DC9 JUMPI INVALID JUMPDEST ADD SLOAD DUP2 LT ISZERO PUSH2 0x1E3C JUMPI PUSH1 0x0 PUSH2 0x1DF1 DUP6 DUP10 PUSH1 0x7 ADD PUSH1 0x5 ADD DUP5 PUSH1 0x5 DUP2 LT PUSH2 0x1DEA JUMPI INVALID JUMPDEST ADD SLOAD PUSH2 0x20C1 JUMP JUMPDEST SWAP1 POP DUP1 DUP5 DUP4 PUSH1 0x5 DUP2 LT PUSH2 0x1E00 JUMPI INVALID JUMPDEST PUSH1 0x20 MUL ADD DUP2 DUP2 MSTORE POP POP PUSH2 0x2710 DUP2 DUP10 PUSH1 0x7 ADD PUSH1 0xA ADD DUP5 PUSH1 0x5 DUP2 LT PUSH2 0x1E1F JUMPI INVALID JUMPDEST ADD SLOAD MUL DUP2 PUSH2 0x1E29 JUMPI INVALID JUMPDEST DIV DUP4 ADD SWAP3 POP POP DUP1 DUP1 PUSH1 0x1 ADD SWAP2 POP POP PUSH2 0x1DA0 JUMP JUMPDEST POP PUSH1 0x0 PUSH1 0x1 PUSH1 0x48 DUP9 PUSH1 0x2 ADD PUSH1 0x16 SWAP1 SLOAD SWAP1 PUSH2 0x100 EXP SWAP1 DIV PUSH1 0xFF AND PUSH1 0x5 DUP2 GT ISZERO PUSH2 0x1E60 JUMPI INVALID JUMPDEST PUSH1 0x6 DUP2 LT PUSH2 0x1E6A JUMPI INVALID JUMPDEST ADD SLOAD SUB SWAP1 POP PUSH2 0x2710 DUP4 DUP3 PUSH1 0x5 DUP2 LT PUSH2 0x1E7E JUMPI INVALID JUMPDEST PUSH1 0x20 MUL ADD MLOAD DUP9 PUSH1 0x3 ADD SLOAD MUL DUP2 PUSH2 0x1E90 JUMPI INVALID JUMPDEST DIV DUP3 ADD SWAP2 POP DUP2 DUP8 PUSH1 0x17 ADD DUP2 SWAP1 SSTORE POP TIMESTAMP DUP8 PUSH1 0x18 ADD DUP2 SWAP1 SSTORE POP POP POP POP POP POP POP POP JUMP JUMPDEST PUSH2 0x1EB8 PUSH2 0x2232 JUMP JUMPDEST PUSH2 0x1EC0 PUSH2 0x2232 JUMP JUMPDEST DUP3 DUP2 PUSH1 0x0 ADD DUP2 DUP2 MSTORE POP POP PUSH1 0x0 PUSH1 0x1 DUP2 GT ISZERO PUSH2 0x1ED7 JUMPI INVALID JUMPDEST DUP6 PUSH1 0x20 ADD MLOAD PUSH1 0x1 DUP2 GT ISZERO PUSH2 0x1EE7 JUMPI INVALID JUMPDEST EQ PUSH2 0x1EF2 JUMPI CALLER PUSH2 0x1EF8 JUMP JUMPDEST DUP5 PUSH1 0x0 ADD MLOAD JUMPDEST DUP2 PUSH1 0x20 ADD SWAP1 PUSH20 0xFFFFFFFFFFFFFFFFFFFFFFFFFFFFFFFFFFFFFFFF AND SWAP1 DUP2 PUSH20 0xFFFFFFFFFFFFFFFFFFFFFFFFFFFFFFFFFFFFFFFF AND DUP2 MSTORE POP POP PUSH1 0x1 DUP1 DUP2 GT ISZERO PUSH2 0x1F3B JUMPI INVALID JUMPDEST DUP6 PUSH1 0x20 ADD MLOAD PUSH1 0x1 DUP2 GT ISZERO PUSH2 0x1F4B JUMPI INVALID JUMPDEST EQ PUSH2 0x1F56 JUMPI CALLER PUSH2 0x1F5C JUMP JUMPDEST DUP5 PUSH1 0x0 ADD MLOAD JUMPDEST DUP2 PUSH1 0x40 ADD SWAP1 PUSH20 0xFFFFFFFFFFFFFFFFFFFFFFFFFFFFFFFFFFFFFFFF AND SWAP1 DUP2 PUSH20 0xFFFFFFFFFFFFFFFFFFFFFFFFFFFFFFFFFFFFFFFF AND DUP2 MSTORE POP POP DUP5 PUSH1 0x20 ADD MLOAD DUP2 PUSH1 0x60 ADD SWAP1 PUSH1 0x1 DUP2 GT ISZERO PUSH2 0x1FA8 JUMPI INVALID JUMPDEST SWAP1 DUP2 PUSH1 0x1 DUP2 GT ISZERO PUSH2 0x1FB5 JUMPI INVALID JUMPDEST DUP2 MSTORE POP POP DUP5 PUSH1 0x40 ADD MLOAD DUP2 PUSH1 0x80 ADD SWAP1 PUSH1 0x2 DUP2 GT ISZERO PUSH2 0x1FCE JUMPI INVALID JUMPDEST SWAP1 DUP2 PUSH1 0x2 DUP2 GT ISZERO PUSH2 0x1FDB JUMPI INVALID JUMPDEST DUP2 MSTORE POP POP DUP5 PUSH1 0x60 ADD MLOAD DUP2 PUSH1 0xA0 ADD SWAP1 PUSH1 0x5 DUP2 GT ISZERO PUSH2 0x1FF4 JUMPI INVALID JUMPDEST SWAP1 DUP2 PUSH1 0x5 DUP2 GT ISZERO PUSH2 0x2001 JUMPI INVALID JUMPDEST DUP2 MSTORE POP POP DUP5 PUSH1 0x80 ADD MLOAD DUP2 PUSH1 0xC0 ADD DUP2 DUP2 MSTORE POP POP DUP4 DUP2 PUSH1 0xE0 ADD DUP2 DUP2 MSTORE POP POP TIMESTAMP DUP2 PUSH2 0x100 ADD DUP2 DUP2 MSTORE POP POP PUSH1 0x0 DUP6 PUSH1 0x60 ADD MLOAD PUSH1 0x5 DUP2 GT ISZERO PUSH2 0x203A JUMPI INVALID JUMPDEST PUSH1 0x6 DUP2 LT PUSH2 0x2044 JUMPI INVALID JUMPDEST ADD SLOAD TIMESTAMP ADD DUP2 PUSH2 0x120 ADD DUP2 DUP2 MSTORE POP POP PUSH2 0x2066 DUP2 DUP7 PUSH1 0x60 ADD MLOAD DUP8 PUSH1 0x80 ADD MLOAD DUP8 PUSH2 0x1011 JUMP JUMPDEST DUP5 PUSH1 0x80 ADD MLOAD DUP2 PUSH2 0x160 ADD DUP2 DUP2 MSTORE POP POP TIMESTAMP DUP2 PUSH2 0x180 ADD DUP2 DUP2 MSTORE POP POP PUSH1 0x1 DUP2 PUSH2 0x1A0 ADD SWAP1 ISZERO ISZERO SWAP1 DUP2 ISZERO ISZERO DUP2 MSTORE POP POP PUSH1 0x0 DUP2 PUSH2 0x1C0 ADD SWAP1 PUSH1 0x5 DUP2 GT ISZERO PUSH2 0x20A5 JUMPI INVALID JUMPDEST SWAP1 DUP2 PUSH1 0x5 DUP2 GT ISZERO PUSH2 0x20B2 JUMPI INVALID JUMPDEST DUP2 MSTORE POP POP DUP1 SWAP2 POP POP SWAP4 SWAP3 POP POP POP JUMP JUMPDEST PUSH1 0x0 TIMESTAMP DUP3 GT PUSH2 0x20D3 JUMPI PUSH1 0x0 SWAP1 POP PUSH2 0x2209 JUMP JUMPDEST PUSH1 0x0 TIMESTAMP DUP4 SUB SWAP1 POP PUSH1 0x4E PUSH1 0x0 PUSH1 0x7 DUP2 LT PUSH2 0x20E8 JUMPI INVALID JUMPDEST ADD SLOAD DUP2 GT PUSH2 0x2124 JUMPI PUSH1 0x4E PUSH1 0x0 PUSH1 0x7 DUP2 LT PUSH2 0x20FE JUMPI INVALID JUMPDEST ADD SLOAD DUP2 DUP6 PUSH1 0x0 PUSH1 0x7 DUP2 LT PUSH2 0x210E JUMPI INVALID JUMPDEST PUSH1 0x20 MUL ADD MLOAD MUL DUP2 PUSH2 0x211B JUMPI INVALID JUMPDEST DIV SWAP2 POP POP PUSH2 0x2209 JUMP JUMPDEST PUSH1 0x0 PUSH1 0x1 SWAP1 POP JUMPDEST PUSH1 0x7 DUP2 LT ISZERO PUSH2 0x2206 JUMPI DUP2 PUSH1 0x4E PUSH1 0x1 DUP4 SUB PUSH1 0x7 DUP2 LT PUSH2 0x2145 JUMPI INVALID JUMPDEST ADD SLOAD LT DUP1 ISZERO PUSH2 0x2162 JUMPI POP PUSH1 0x4E DUP2 PUSH1 0x7 DUP2 LT PUSH2 0x215C JUMPI INVALID JUMPDEST ADD SLOAD DUP3 GT ISZERO JUMPDEST ISZERO PUSH2 0x21F9 JUMPI PUSH1 0x0 PUSH1 0x4E PUSH1 0x1 DUP4 SUB PUSH1 0x7 DUP2 LT PUSH2 0x2179 JUMPI INVALID JUMPDEST ADD SLOAD DUP4 SUB SWAP1 POP PUSH1 0x0 DUP4 PUSH1 0x4E DUP5 PUSH1 0x7 DUP2 LT PUSH2 0x218F JUMPI INVALID JUMPDEST ADD SLOAD SUB SWAP1 POP PUSH1 0x0 PUSH1 0x4E PUSH1 0x1 DUP6 SUB PUSH1 0x7 DUP2 LT PUSH2 0x21A6 JUMPI INVALID JUMPDEST ADD SLOAD PUSH1 0x4E DUP6 PUSH1 0x7 DUP2 LT PUSH2 0x21B5 JUMPI INVALID JUMPDEST ADD SLOAD SUB SWAP1 POP DUP1 DUP4 DUP10 DUP7 PUSH1 0x7 DUP2 LT PUSH2 0x21C8 JUMPI INVALID JUMPDEST PUSH1 0x20 MUL ADD MLOAD MUL DUP4 DUP11 PUSH1 0x1 DUP9 SUB PUSH1 0x7 DUP2 LT PUSH2 0x21DE JUMPI INVALID JUMPDEST PUSH1 0x20 MUL ADD MLOAD MUL ADD DUP2 PUSH2 0x21EC JUMPI INVALID JUMPDEST DIV SWAP6 POP POP POP POP POP POP PUSH2 0x2209 JUMP JUMPDEST DUP1 DUP1 PUSH1 0x1 ADD SWAP2 POP POP PUSH2 0x212B JUMP JUMPDEST POP POP JUMPDEST SWAP3 SWAP2 POP POP JUMP JUMPDEST PUSH1 0x40 MLOAD DUP1 PUSH1 0x60 ADD PUSH1 0x40 MSTORE DUP1 PUSH1 0x60 DUP2 MSTORE PUSH1 0x20 ADD PUSH1 0x0 DUP2 MSTORE PUSH1 0x20 ADD PUSH1 0x0 ISZERO ISZERO DUP2 MSTORE POP SWAP1 JUMP JUMPDEST PUSH1 0x40 MLOAD DUP1 PUSH2 0x1E0 ADD PUSH1 0x40 MSTORE DUP1 PUSH1 0x0 DUP2 MSTORE PUSH1 0x20 ADD PUSH1 0x0 PUSH20 0xFFFFFFFFFFFFFFFFFFFFFFFFFFFFFFFFFFFFFFFF AND DUP2 MSTORE PUSH1 0x20 ADD PUSH1 0x0 PUSH20 0xFFFFFFFFFFFFFFFFFFFFFFFFFFFFFFFFFFFFFFFF AND DUP2 MSTORE PUSH1 0x20 ADD PUSH1 0x0 PUSH1 0x1 DUP2 GT ISZERO PUSH2 0x228C JUMPI INVALID JUMPDEST DUP2 MSTORE PUSH1 0x20 ADD PUSH1 0x0 PUSH1 0x2 DUP2 GT ISZERO PUSH2 0x229E JUMPI INVALID JUMPDEST DUP2 MSTORE PUSH1 0x20 ADD PUSH1 0x0 PUSH1 0x5 DUP2 GT ISZERO PUSH2 0x22B0 JUMPI INVALID JUMPDEST DUP2 MSTORE PUSH1 0x20 ADD PUSH1 0x0 DUP2 MSTORE PUSH1 0x20 ADD PUSH1 0x0 DUP2 MSTORE PUSH1 0x20 ADD PUSH1 0x0 DUP2 MSTORE PUSH1 0x20 ADD PUSH1 0x0 DUP2 MSTORE PUSH1 0x20 ADD PUSH2 0x22D9 PUSH2 0x24F5 JUMP JUMPDEST DUP2 MSTORE PUSH1 0x20 ADD PUSH1 0x0 DUP2 MSTORE PUSH1 0x20 ADD PUSH1 0x0 DUP2 MSTORE PUSH1 0x20 ADD PUSH1 0x0 ISZERO ISZERO DUP2 MSTORE PUSH1 0x20 ADD PUSH1 0x0 PUSH1 0x5 DUP2 GT ISZERO PUSH2 0x2302 JUMPI INVALID JUMPDEST DUP2 MSTORE POP SWAP1 JUMP JUMPDEST PUSH1 0x40 MLOAD DUP1 PUSH1 0xA0 ADD PUSH1 0x40 MSTORE DUP1 PUSH1 0x5 SWAP1 PUSH1 0x20 DUP3 MUL DUP1 CALLDATASIZE DUP4 CALLDATACOPY DUP1 DUP3 ADD SWAP2 POP POP SWAP1 POP POP SWAP1 JUMP JUMPDEST PUSH1 0x40 MLOAD DUP1 PUSH1 0xA0 ADD PUSH1 0x40 MSTORE DUP1 PUSH1 0x0 PUSH20 0xFFFFFFFFFFFFFFFFFFFFFFFFFFFFFFFFFFFFFFFF AND DUP2 MSTORE PUSH1 0x20 ADD PUSH1 0x0 PUSH1 0x1 DUP2 GT ISZERO PUSH2 0x235F JUMPI INVALID JUMPDEST DUP2 MSTORE PUSH1 0x20 ADD PUSH1 0x0 PUSH1 0x2 DUP2 GT ISZERO PUSH2 0x2371 JUMPI INVALID JUMPDEST DUP2 MSTORE PUSH1 0x20 ADD PUSH1 0x0 PUSH1 0x5 DUP2 GT ISZERO PUSH2 0x2383 JUMPI INVALID JUMPDEST DUP2 MSTORE PUSH1 0x20 ADD PUSH1 0x0 DUP2 MSTORE POP SWAP1 JUMP JUMPDEST DUP3 PUSH1 0x5 DUP2 ADD SWAP3 DUP3 ISZERO PUSH2 0x23BF JUMPI SWAP2 PUSH1 0x20 MUL DUP3 ADD JUMPDEST DUP3 DUP2 GT ISZERO PUSH2 0x23BE JUMPI DUP3 MLOAD DUP3 SSTORE SWAP2 PUSH1 0x20 ADD SWAP2 SWAP1 PUSH1 0x1 ADD SWAP1 PUSH2 0x23A3 JUMP JUMPDEST JUMPDEST POP SWAP1 POP PUSH2 0x23CC SWAP2 SWAP1 PUSH2 0x2535 JUMP JUMPDEST POP SWAP1 JUMP JUMPDEST DUP3 PUSH1 0x5 PUSH1 0x1F ADD PUSH1 0x20 SWAP1 DIV DUP2 ADD SWAP3 DUP3 ISZERO PUSH2 0x2458 JUMPI SWAP2 PUSH1 0x20 MUL DUP3 ADD PUSH1 0x0 JUMPDEST DUP4 DUP3 GT ISZERO PUSH2 0x2429 JUMPI DUP4 MLOAD DUP4 DUP3 PUSH2 0x100 EXP DUP2 SLOAD DUP2 PUSH1 0xFF MUL NOT AND SWAP1 DUP4 ISZERO ISZERO MUL OR SWAP1 SSTORE POP SWAP3 PUSH1 0x20 ADD SWAP3 PUSH1 0x1 ADD PUSH1 0x20 DUP2 PUSH1 0x0 ADD DIV SWAP3 DUP4 ADD SWAP3 PUSH1 0x1 SUB MUL PUSH2 0x23EC JUMP JUMPDEST DUP1 ISZERO PUSH2 0x2456 JUMPI DUP3 DUP2 PUSH2 0x100 EXP DUP2 SLOAD SWAP1 PUSH1 0xFF MUL NOT AND SWAP1 SSTORE PUSH1 0x1 ADD PUSH1 0x20 DUP2 PUSH1 0x0 ADD DIV SWAP3 DUP4 ADD SWAP3 PUSH1 0x1 SUB MUL PUSH2 0x2429 JUMP JUMPDEST POP JUMPDEST POP SWAP1 POP PUSH2 0x2465 SWAP2 SWAP1 PUSH2 0x2552 JUMP JUMPDEST POP SWAP1 JUMP JUMPDEST PUSH1 0x40 MLOAD DUP1 PUSH1 0x60 ADD PUSH1 0x40 MSTORE DUP1 PUSH1 0x3 SWAP1 JUMPDEST PUSH2 0x2480 PUSH2 0x2496 JUMP JUMPDEST DUP2 MSTORE PUSH1 0x20 ADD SWAP1 PUSH1 0x1 SWAP1 SUB SWAP1 DUP2 PUSH2 0x2478 JUMPI SWAP1 POP POP SWAP1 JUMP JUMPDEST PUSH1 0x40 MLOAD DUP1 PUSH1 0xE0 ADD PUSH1 0x40 MSTORE DUP1 PUSH1 0x0 DUP2 MSTORE PUSH1 0x20 ADD PUSH1 0x0 DUP2 MSTORE PUSH1 0x20 ADD PUSH1 0x0 DUP2 MSTORE PUSH1 0x20 ADD PUSH1 0x0 DUP2 MSTORE PUSH1 0x20 ADD PUSH1 0x0 DUP2 MSTORE PUSH1 0x20 ADD PUSH1 0x0 DUP2 MSTORE PUSH1 0x20 ADD PUSH1 0x0 DUP2 MSTORE POP SWAP1 JUMP JUMPDEST PUSH1 0x40 MLOAD DUP1 PUSH1 0xE0 ADD PUSH1 0x40 MSTORE DUP1 PUSH1 0x7 SWAP1 PUSH1 0x20 DUP3 MUL DUP1 CALLDATASIZE DUP4 CALLDATACOPY DUP1 DUP3 ADD SWAP2 POP POP SWAP1 POP POP SWAP1 JUMP JUMPDEST PUSH1 0x40 MLOAD DUP1 PUSH1 0x80 ADD PUSH1 0x40 MSTORE DUP1 PUSH2 0x2508 PUSH2 0x2308 JUMP JUMPDEST DUP2 MSTORE PUSH1 0x20 ADD PUSH2 0x2515 PUSH2 0x2308 JUMP JUMPDEST DUP2 MSTORE PUSH1 0x20 ADD PUSH2 0x2522 PUSH2 0x2308 JUMP JUMPDEST DUP2 MSTORE PUSH1 0x20 ADD PUSH2 0x252F PUSH2 0x257A JUMP JUMPDEST DUP2 MSTORE POP SWAP1 JUMP JUMPDEST JUMPDEST DUP1 DUP3 GT ISZERO PUSH2 0x254E JUMPI PUSH1 0x0 DUP2 PUSH1 0x0 SWAP1 SSTORE POP PUSH1 0x1 ADD PUSH2 0x2536 JUMP JUMPDEST POP SWAP1 JUMP JUMPDEST JUMPDEST DUP1 DUP3 GT ISZERO PUSH2 0x2576 JUMPI PUSH1 0x0 DUP2 DUP2 PUSH2 0x100 EXP DUP2 SLOAD SWAP1 PUSH1 0xFF MUL NOT AND SWAP1 SSTORE POP PUSH1 0x1 ADD PUSH2 0x2553 JUMP JUMPDEST POP SWAP1 JUMP JUMPDEST PUSH1 0x40 MLOAD DUP1 PUSH1 0xA0 ADD PUSH1 0x40 MSTORE DUP1 PUSH1 0x5 SWAP1 PUSH1 0x20 DUP3 MUL DUP1 CALLDATASIZE DUP4 CALLDATACOPY DUP1 DUP3 ADD SWAP2 POP POP SWAP1 POP POP SWAP1 JUMP JUMPDEST PUSH1 0x0 DUP2 CALLDATALOAD SWAP1 POP PUSH2 0x25AB DUP2 PUSH2 0x3C83 JUMP JUMPDEST SWAP3 SWAP2 POP POP JUMP JUMPDEST PUSH1 0x0 DUP3 PUSH1 0x1F DUP4 ADD SLT PUSH2 0x25C2 JUMPI PUSH1 0x0 DUP1 REVERT JUMPDEST PUSH1 0x5 PUSH2 0x25D5 PUSH2 0x25D0 DUP3 PUSH2 0x3937 JUMP JUMPDEST PUSH2 0x390A JUMP JUMPDEST SWAP2 POP DUP2 DUP4 DUP6 PUSH1 0x20 DUP5 MUL DUP3 ADD GT ISZERO PUSH2 0x25EB JUMPI PUSH1 0x0 DUP1 REVERT JUMPDEST PUSH1 0x0 JUMPDEST DUP4 DUP2 LT ISZERO PUSH2 0x261B JUMPI DUP2 PUSH2 0x2601 DUP9 DUP3 PUSH2 0x270D JUMP JUMPDEST DUP5 MSTORE PUSH1 0x20 DUP5 ADD SWAP4 POP PUSH1 0x20 DUP4 ADD SWAP3 POP POP PUSH1 0x1 DUP2 ADD SWAP1 POP PUSH2 0x25EE JUMP JUMPDEST POP POP POP POP SWAP3 SWAP2 POP POP JUMP JUMPDEST PUSH1 0x0 DUP3 PUSH1 0x1F DUP4 ADD SLT PUSH2 0x2636 JUMPI PUSH1 0x0 DUP1 REVERT JUMPDEST PUSH1 0x3 PUSH2 0x2649 PUSH2 0x2644 DUP3 PUSH2 0x3959 JUMP JUMPDEST PUSH2 0x390A JUMP JUMPDEST SWAP2 POP DUP2 DUP4 DUP6 PUSH1 0xE0 DUP5 MUL DUP3 ADD GT ISZERO PUSH2 0x265F JUMPI PUSH1 0x0 DUP1 REVERT JUMPDEST PUSH1 0x0 JUMPDEST DUP4 DUP2 LT ISZERO PUSH2 0x268F JUMPI DUP2 PUSH2 0x2675 DUP9 DUP3 PUSH2 0x27CA JUMP JUMPDEST DUP5 MSTORE PUSH1 0x20 DUP5 ADD SWAP4 POP PUSH1 0xE0 DUP4 ADD SWAP3 POP POP PUSH1 0x1 DUP2 ADD SWAP1 POP PUSH2 0x2662 JUMP JUMPDEST POP POP POP POP SWAP3 SWAP2 POP POP JUMP JUMPDEST PUSH1 0x0 DUP3 PUSH1 0x1F DUP4 ADD SLT PUSH2 0x26AA JUMPI PUSH1 0x0 DUP1 REVERT JUMPDEST PUSH1 0x5 PUSH2 0x26BD PUSH2 0x26B8 DUP3 PUSH2 0x397B JUMP JUMPDEST PUSH2 0x390A JUMP JUMPDEST SWAP2 POP DUP2 DUP4 DUP6 PUSH1 0x20 DUP5 MUL DUP3 ADD GT ISZERO PUSH2 0x26D3 JUMPI PUSH1 0x0 DUP1 REVERT JUMPDEST PUSH1 0x0 JUMPDEST DUP4 DUP2 LT ISZERO PUSH2 0x2703 JUMPI DUP2 PUSH2 0x26E9 DUP9 DUP3 PUSH2 0x2A51 JUMP JUMPDEST DUP5 MSTORE PUSH1 0x20 DUP5 ADD SWAP4 POP PUSH1 0x20 DUP4 ADD SWAP3 POP POP PUSH1 0x1 DUP2 ADD SWAP1 POP PUSH2 0x26D6 JUMP JUMPDEST POP POP POP POP SWAP3 SWAP2 POP POP JUMP JUMPDEST PUSH1 0x0 DUP2 CALLDATALOAD SWAP1 POP PUSH2 0x271C DUP2 PUSH2 0x3C9A JUMP JUMPDEST SWAP3 SWAP2 POP POP JUMP JUMPDEST PUSH1 0x0 DUP2 CALLDATALOAD SWAP1 POP PUSH2 0x2731 DUP2 PUSH2 0x3CB1 JUMP JUMPDEST SWAP3 SWAP2 POP POP JUMP JUMPDEST PUSH1 0x0 DUP2 CALLDATALOAD SWAP1 POP PUSH2 0x2746 DUP2 PUSH2 0x3CC1 JUMP JUMPDEST SWAP3 SWAP2 POP POP JUMP JUMPDEST PUSH1 0x0 DUP2 CALLDATALOAD SWAP1 POP PUSH2 0x275B DUP2 PUSH2 0x3CD1 JUMP JUMPDEST SWAP3 SWAP2 POP POP JUMP JUMPDEST PUSH1 0x0 DUP2 CALLDATALOAD SWAP1 POP PUSH2 0x2770 DUP2 PUSH2 0x3CE1 JUMP JUMPDEST SWAP3 SWAP2 POP POP JUMP JUMPDEST PUSH1 0x0 DUP3 PUSH1 0x1F DUP4 ADD SLT PUSH2 0x2787 JUMPI PUSH1 0x0 DUP1 REVERT JUMPDEST DUP2 CALLDATALOAD PUSH2 0x279A PUSH2 0x2795 DUP3 PUSH2 0x399D JUMP JUMPDEST PUSH2 0x390A JUMP JUMPDEST SWAP2 POP DUP1 DUP3 MSTORE PUSH1 0x20 DUP4 ADD PUSH1 0x20 DUP4 ADD DUP6 DUP4 DUP4 ADD GT ISZERO PUSH2 0x27B6 JUMPI PUSH1 0x0 DUP1 REVERT JUMPDEST PUSH2 0x27C1 DUP4 DUP3 DUP5 PUSH2 0x3BFC JUMP JUMPDEST POP POP POP SWAP3 SWAP2 POP POP JUMP JUMPDEST PUSH1 0x0 PUSH1 0xE0 DUP3 DUP5 SUB SLT ISZERO PUSH2 0x27DC JUMPI PUSH1 0x0 DUP1 REVERT JUMPDEST PUSH2 0x27E6 PUSH1 0xE0 PUSH2 0x390A JUMP JUMPDEST SWAP1 POP PUSH1 0x0 PUSH2 0x27F6 DUP5 DUP3 DUP6 ADD PUSH2 0x2A66 JUMP JUMPDEST PUSH1 0x0 DUP4 ADD MSTORE POP PUSH1 0x20 PUSH2 0x280A DUP5 DUP3 DUP6 ADD PUSH2 0x2A66 JUMP JUMPDEST PUSH1 0x20 DUP4 ADD MSTORE POP PUSH1 0x40 PUSH2 0x281E DUP5 DUP3 DUP6 ADD PUSH2 0x2A66 JUMP JUMPDEST PUSH1 0x40 DUP4 ADD MSTORE POP PUSH1 0x60 PUSH2 0x2832 DUP5 DUP3 DUP6 ADD PUSH2 0x2A66 JUMP JUMPDEST PUSH1 0x60 DUP4 ADD MSTORE POP PUSH1 0x80 PUSH2 0x2846 DUP5 DUP3 DUP6 ADD PUSH2 0x2A66 JUMP JUMPDEST PUSH1 0x80 DUP4 ADD MSTORE POP PUSH1 0xA0 PUSH2 0x285A DUP5 DUP3 DUP6 ADD PUSH2 0x2A66 JUMP JUMPDEST PUSH1 0xA0 DUP4 ADD MSTORE POP PUSH1 0xC0 PUSH2 0x286E DUP5 DUP3 DUP6 ADD PUSH2 0x2A66 JUMP JUMPDEST PUSH1 0xC0 DUP4 ADD MSTORE POP SWAP3 SWAP2 POP POP JUMP JUMPDEST PUSH1 0x0 PUSH2 0x440 DUP3 DUP5 SUB SLT ISZERO PUSH2 0x288D JUMPI PUSH1 0x0 DUP1 REVERT JUMPDEST PUSH2 0x2898 PUSH2 0x1E0 PUSH2 0x390A JUMP JUMPDEST SWAP1 POP PUSH1 0x0 PUSH2 0x28A8 DUP5 DUP3 DUP6 ADD PUSH2 0x2A51 JUMP JUMPDEST PUSH1 0x0 DUP4 ADD MSTORE POP PUSH1 0x20 PUSH2 0x28BC DUP5 DUP3 DUP6 ADD PUSH2 0x259C JUMP JUMPDEST PUSH1 0x20 DUP4 ADD MSTORE POP PUSH1 0x40 PUSH2 0x28D0 DUP5 DUP3 DUP6 ADD PUSH2 0x259C JUMP JUMPDEST PUSH1 0x40 DUP4 ADD MSTORE POP PUSH1 0x60 PUSH2 0x28E4 DUP5 DUP3 DUP6 ADD PUSH2 0x2737 JUMP JUMPDEST PUSH1 0x60 DUP4 ADD MSTORE POP PUSH1 0x80 PUSH2 0x28F8 DUP5 DUP3 DUP6 ADD PUSH2 0x2722 JUMP JUMPDEST PUSH1 0x80 DUP4 ADD MSTORE POP PUSH1 0xA0 PUSH2 0x290C DUP5 DUP3 DUP6 ADD PUSH2 0x2761 JUMP JUMPDEST PUSH1 0xA0 DUP4 ADD MSTORE POP PUSH1 0xC0 PUSH2 0x2920 DUP5 DUP3 DUP6 ADD PUSH2 0x2A51 JUMP JUMPDEST PUSH1 0xC0 DUP4 ADD MSTORE POP PUSH1 0xE0 PUSH2 0x2934 DUP5 DUP3 DUP6 ADD PUSH2 0x2A51 JUMP JUMPDEST PUSH1 0xE0 DUP4 ADD MSTORE POP PUSH2 0x100 PUSH2 0x2949 DUP5 DUP3 DUP6 ADD PUSH2 0x2A51 JUMP JUMPDEST PUSH2 0x100 DUP4 ADD MSTORE POP PUSH2 0x120 PUSH2 0x295F DUP5 DUP3 DUP6 ADD PUSH2 0x2A51 JUMP JUMPDEST PUSH2 0x120 DUP4 ADD MSTORE POP PUSH2 0x140 PUSH2 0x2975 DUP5 DUP3 DUP6 ADD PUSH2 0x29DA JUMP JUMPDEST PUSH2 0x140 DUP4 ADD MSTORE POP PUSH2 0x3C0 PUSH2 0x298B DUP5 DUP3 DUP6 ADD PUSH2 0x2A51 JUMP JUMPDEST PUSH2 0x160 DUP4 ADD MSTORE POP PUSH2 0x3E0 PUSH2 0x29A1 DUP5 DUP3 DUP6 ADD PUSH2 0x2A51 JUMP JUMPDEST PUSH2 0x180 DUP4 ADD MSTORE POP PUSH2 0x400 PUSH2 0x29B7 DUP5 DUP3 DUP6 ADD PUSH2 0x270D JUMP JUMPDEST PUSH2 0x1A0 DUP4 ADD MSTORE POP PUSH2 0x420 PUSH2 0x29CD DUP5 DUP3 DUP6 ADD PUSH2 0x274C JUMP JUMPDEST PUSH2 0x1C0 DUP4 ADD MSTORE POP SWAP3 SWAP2 POP POP JUMP JUMPDEST PUSH1 0x0 PUSH2 0x280 DUP3 DUP5 SUB SLT ISZERO PUSH2 0x29ED JUMPI PUSH1 0x0 DUP1 REVERT JUMPDEST PUSH2 0x29F7 PUSH1 0x80 PUSH2 0x390A JUMP JUMPDEST SWAP1 POP PUSH1 0x0 PUSH2 0x2A07 DUP5 DUP3 DUP6 ADD PUSH2 0x2699 JUMP JUMPDEST PUSH1 0x0 DUP4 ADD MSTORE POP PUSH1 0xA0 PUSH2 0x2A1B DUP5 DUP3 DUP6 ADD PUSH2 0x2699 JUMP JUMPDEST PUSH1 0x20 DUP4 ADD MSTORE POP PUSH2 0x140 PUSH2 0x2A30 DUP5 DUP3 DUP6 ADD PUSH2 0x2699 JUMP JUMPDEST PUSH1 0x40 DUP4 ADD MSTORE POP PUSH2 0x1E0 PUSH2 0x2A45 DUP5 DUP3 DUP6 ADD PUSH2 0x25B1 JUMP JUMPDEST PUSH1 0x60 DUP4 ADD MSTORE POP SWAP3 SWAP2 POP POP JUMP JUMPDEST PUSH1 0x0 DUP2 CALLDATALOAD SWAP1 POP PUSH2 0x2A60 DUP2 PUSH2 0x3CF1 JUMP JUMPDEST SWAP3 SWAP2 POP POP JUMP JUMPDEST PUSH1 0x0 DUP2 MLOAD SWAP1 POP PUSH2 0x2A75 DUP2 PUSH2 0x3CF1 JUMP JUMPDEST SWAP3 SWAP2 POP POP JUMP JUMPDEST PUSH1 0x0 PUSH1 0x20 DUP3 DUP5 SUB SLT ISZERO PUSH2 0x2A8D JUMPI PUSH1 0x0 DUP1 REVERT JUMPDEST PUSH1 0x0 PUSH2 0x2A9B DUP5 DUP3 DUP6 ADD PUSH2 0x259C JUMP JUMPDEST SWAP2 POP POP SWAP3 SWAP2 POP POP JUMP JUMPDEST PUSH1 0x0 DUP1 PUSH1 0x0 DUP1 PUSH1 0x0 DUP1 PUSH1 0x0 PUSH1 0xE0 DUP9 DUP11 SUB SLT ISZERO PUSH2 0x2ABF JUMPI PUSH1 0x0 DUP1 REVERT JUMPDEST PUSH1 0x0 PUSH2 0x2ACD DUP11 DUP3 DUP12 ADD PUSH2 0x259C JUMP JUMPDEST SWAP8 POP POP PUSH1 0x20 PUSH2 0x2ADE DUP11 DUP3 DUP12 ADD PUSH2 0x259C JUMP JUMPDEST SWAP7 POP POP PUSH1 0x40 PUSH2 0x2AEF DUP11 DUP3 DUP12 ADD PUSH2 0x2737 JUMP JUMPDEST SWAP6 POP POP PUSH1 0x60 PUSH2 0x2B00 DUP11 DUP3 DUP12 ADD PUSH2 0x2722 JUMP JUMPDEST SWAP5 POP POP PUSH1 0x80 PUSH2 0x2B11 DUP11 DUP3 DUP12 ADD PUSH2 0x2A51 JUMP JUMPDEST SWAP4 POP POP PUSH1 0xA0 PUSH2 0x2B22 DUP11 DUP3 DUP12 ADD PUSH2 0x2A51 JUMP JUMPDEST SWAP3 POP POP PUSH1 0xC0 PUSH2 0x2B33 DUP11 DUP3 DUP12 ADD PUSH2 0x2A51 JUMP JUMPDEST SWAP2 POP POP SWAP3 SWAP6 SWAP9 SWAP2 SWAP5 SWAP8 POP SWAP3 SWAP6 POP JUMP JUMPDEST PUSH1 0x0 DUP1 PUSH1 0x0 PUSH1 0x60 DUP5 DUP7 SUB SLT ISZERO PUSH2 0x2B57 JUMPI PUSH1 0x0 DUP1 REVERT JUMPDEST PUSH1 0x0 PUSH2 0x2B65 DUP7 DUP3 DUP8 ADD PUSH2 0x259C JUMP JUMPDEST SWAP4 POP POP PUSH1 0x20 PUSH2 0x2B76 DUP7 DUP3 DUP8 ADD PUSH2 0x259C JUMP JUMPDEST SWAP3 POP POP PUSH1 0x40 PUSH2 0x2B87 DUP7 DUP3 DUP8 ADD PUSH2 0x2A51 JUMP JUMPDEST SWAP2 POP POP SWAP3 POP SWAP3 POP SWAP3 JUMP JUMPDEST PUSH1 0x0 DUP1 PUSH1 0x0 DUP1 PUSH1 0x0 PUSH1 0xA0 DUP7 DUP9 SUB SLT ISZERO PUSH2 0x2BA9 JUMPI PUSH1 0x0 DUP1 REVERT JUMPDEST PUSH1 0x0 PUSH2 0x2BB7 DUP9 DUP3 DUP10 ADD PUSH2 0x259C JUMP JUMPDEST SWAP6 POP POP PUSH1 0x20 PUSH2 0x2BC8 DUP9 DUP3 DUP10 ADD PUSH2 0x2737 JUMP JUMPDEST SWAP5 POP POP PUSH1 0x40 PUSH2 0x2BD9 DUP9 DUP3 DUP10 ADD PUSH2 0x2722 JUMP JUMPDEST SWAP4 POP POP PUSH1 0x60 PUSH2 0x2BEA DUP9 DUP3 DUP10 ADD PUSH2 0x2761 JUMP JUMPDEST SWAP3 POP POP PUSH1 0x80 PUSH2 0x2BFB DUP9 DUP3 DUP10 ADD PUSH2 0x2A51 JUMP JUMPDEST SWAP2 POP POP SWAP3 SWAP6 POP SWAP3 SWAP6 SWAP1 SWAP4 POP JUMP JUMPDEST PUSH1 0x0 PUSH2 0x2A0 DUP3 DUP5 SUB SLT ISZERO PUSH2 0x2C1B JUMPI PUSH1 0x0 DUP1 REVERT JUMPDEST PUSH1 0x0 PUSH2 0x2C29 DUP5 DUP3 DUP6 ADD PUSH2 0x2625 JUMP JUMPDEST SWAP2 POP POP SWAP3 SWAP2 POP POP JUMP JUMPDEST PUSH1 0x0 DUP1 PUSH1 0x0 DUP1 PUSH1 0x80 DUP6 DUP8 SUB SLT ISZERO PUSH2 0x2C48 JUMPI PUSH1 0x0 DUP1 REVERT JUMPDEST PUSH1 0x0 PUSH2 0x2C56 DUP8 DUP3 DUP9 ADD PUSH2 0x2722 JUMP JUMPDEST SWAP5 POP POP PUSH1 0x20 PUSH2 0x2C67 DUP8 DUP3 DUP9 ADD PUSH2 0x259C JUMP JUMPDEST SWAP4 POP POP PUSH1 0x40 PUSH2 0x2C78 DUP8 DUP3 DUP9 ADD PUSH2 0x2A51 JUMP JUMPDEST SWAP3 POP POP PUSH1 0x60 DUP6 ADD CALLDATALOAD PUSH8 0xFFFFFFFFFFFFFFFF DUP2 GT ISZERO PUSH2 0x2C95 JUMPI PUSH1 0x0 DUP1 REVERT JUMPDEST PUSH2 0x2CA1 DUP8 DUP3 DUP9 ADD PUSH2 0x2776 JUMP JUMPDEST SWAP2 POP POP SWAP3 SWAP6 SWAP2 SWAP5 POP SWAP3 POP JUMP JUMPDEST PUSH1 0x0 DUP1 PUSH1 0x0 DUP1 PUSH2 0x4A0 DUP6 DUP8 SUB SLT ISZERO PUSH2 0x2CC4 JUMPI PUSH1 0x0 DUP1 REVERT JUMPDEST PUSH1 0x0 PUSH2 0x2CD2 DUP8 DUP3 DUP9 ADD PUSH2 0x287A JUMP JUMPDEST SWAP5 POP POP PUSH2 0x440 PUSH2 0x2CE4 DUP8 DUP3 DUP9 ADD PUSH2 0x2761 JUMP JUMPDEST SWAP4 POP POP PUSH2 0x460 PUSH2 0x2CF6 DUP8 DUP3 DUP9 ADD PUSH2 0x2A51 JUMP JUMPDEST SWAP3 POP POP PUSH2 0x480 PUSH2 0x2D08 DUP8 DUP3 DUP9 ADD PUSH2 0x2A51 JUMP JUMPDEST SWAP2 POP POP SWAP3 SWAP6 SWAP2 SWAP5 POP SWAP3 POP JUMP JUMPDEST PUSH1 0x0 PUSH2 0x280 DUP3 DUP5 SUB SLT ISZERO PUSH2 0x2D27 JUMPI PUSH1 0x0 DUP1 REVERT JUMPDEST PUSH1 0x0 PUSH2 0x2D35 DUP5 DUP3 DUP6 ADD PUSH2 0x29DA JUMP JUMPDEST SWAP2 POP POP SWAP3 SWAP2 POP POP JUMP JUMPDEST PUSH1 0x0 PUSH1 0x20 DUP3 DUP5 SUB SLT ISZERO PUSH2 0x2D50 JUMPI PUSH1 0x0 DUP1 REVERT JUMPDEST PUSH1 0x0 PUSH2 0x2D5E DUP5 DUP3 DUP6 ADD PUSH2 0x2A51 JUMP JUMPDEST SWAP2 POP POP SWAP3 SWAP2 POP POP JUMP JUMPDEST PUSH1 0x0 PUSH1 0x20 DUP3 DUP5 SUB SLT ISZERO PUSH2 0x2D79 JUMPI PUSH1 0x0 DUP1 REVERT JUMPDEST PUSH1 0x0 PUSH2 0x2D87 DUP5 DUP3 DUP6 ADD PUSH2 0x2A66 JUMP JUMPDEST SWAP2 POP POP SWAP3 SWAP2 POP POP JUMP JUMPDEST PUSH1 0x0 PUSH2 0x2D9C DUP4 DUP4 PUSH2 0x2E14 JUMP JUMPDEST PUSH1 0x20 DUP4 ADD SWAP1 POP SWAP3 SWAP2 POP POP JUMP JUMPDEST PUSH1 0x0 PUSH2 0x2DB4 DUP4 DUP4 PUSH2 0x3011 JUMP JUMPDEST PUSH1 0x20 DUP4 ADD SWAP1 POP SWAP3 SWAP2 POP POP JUMP JUMPDEST PUSH1 0x0 PUSH2 0x2DCC DUP4 DUP4 PUSH2 0x3251 JUMP JUMPDEST SWAP1 POP SWAP3 SWAP2 POP POP JUMP JUMPDEST PUSH1 0x0 PUSH2 0x2DE0 DUP4 DUP4 PUSH2 0x32F1 JUMP JUMPDEST PUSH2 0x440 DUP4 ADD SWAP1 POP SWAP3 SWAP2 POP POP JUMP JUMPDEST PUSH1 0x0 PUSH2 0x2DF9 DUP4 DUP4 PUSH2 0x35B3 JUMP JUMPDEST PUSH1 0x20 DUP4 ADD SWAP1 POP SWAP3 SWAP2 POP POP JUMP JUMPDEST PUSH2 0x2E0E DUP2 PUSH2 0x3B7E JUMP JUMPDEST DUP3 MSTORE POP POP JUMP JUMPDEST PUSH2 0x2E1D DUP2 PUSH2 0x3AEA JUMP JUMPDEST DUP3 MSTORE POP POP JUMP JUMPDEST PUSH2 0x2E2C DUP2 PUSH2 0x3AEA JUMP JUMPDEST DUP3 MSTORE POP POP JUMP JUMPDEST PUSH1 0x0 PUSH2 0x2E3D DUP3 PUSH2 0x3A0D JUMP JUMPDEST PUSH2 0x2E47 DUP2 DUP6 PUSH2 0x3A90 JUMP JUMPDEST SWAP4 POP PUSH2 0x2E52 DUP4 PUSH2 0x39C9 JUMP JUMPDEST DUP1 PUSH1 0x0 JUMPDEST DUP4 DUP2 LT ISZERO PUSH2 0x2E83 JUMPI DUP2 MLOAD PUSH2 0x2E6A DUP9 DUP3 PUSH2 0x2D90 JUMP JUMPDEST SWAP8 POP PUSH2 0x2E75 DUP4 PUSH2 0x3A4F JUMP JUMPDEST SWAP3 POP POP PUSH1 0x1 DUP2 ADD SWAP1 POP PUSH2 0x2E56 JUMP JUMPDEST POP DUP6 SWAP4 POP POP POP POP SWAP3 SWAP2 POP POP JUMP JUMPDEST PUSH2 0x2E99 DUP2 PUSH2 0x3A18 JUMP JUMPDEST PUSH2 0x2EA3 DUP2 DUP5 PUSH2 0x3AA1 JUMP JUMPDEST SWAP3 POP PUSH2 0x2EAE DUP3 PUSH2 0x39D9 JUMP JUMPDEST DUP1 PUSH1 0x0 JUMPDEST DUP4 DUP2 LT ISZERO PUSH2 0x2EDF JUMPI DUP2 MLOAD PUSH2 0x2EC6 DUP8 DUP3 PUSH2 0x2DA8 JUMP JUMPDEST SWAP7 POP PUSH2 0x2ED1 DUP4 PUSH2 0x3A5C JUMP JUMPDEST SWAP3 POP POP PUSH1 0x1 DUP2 ADD SWAP1 POP PUSH2 0x2EB2 JUMP JUMPDEST POP POP POP POP POP POP JUMP JUMPDEST PUSH1 0x0 PUSH2 0x2EF2 DUP3 PUSH2 0x3A23 JUMP JUMPDEST PUSH2 0x2EFC DUP2 DUP6 PUSH2 0x3AAC JUMP JUMPDEST SWAP4 POP DUP4 PUSH1 0x20 DUP3 MUL DUP6 ADD PUSH2 0x2F0E DUP6 PUSH2 0x39E3 JUMP JUMPDEST DUP1 PUSH1 0x0 JUMPDEST DUP6 DUP2 LT ISZERO PUSH2 0x2F4A JUMPI DUP5 DUP5 SUB DUP10 MSTORE DUP2 MLOAD PUSH2 0x2F2B DUP6 DUP3 PUSH2 0x2DC0 JUMP JUMPDEST SWAP5 POP PUSH2 0x2F36 DUP4 PUSH2 0x3A69 JUMP JUMPDEST SWAP3 POP PUSH1 0x20 DUP11 ADD SWAP10 POP POP PUSH1 0x1 DUP2 ADD SWAP1 POP PUSH2 0x2F12 JUMP JUMPDEST POP DUP3 SWAP8 POP DUP8 SWAP6 POP POP POP POP POP POP SWAP3 SWAP2 POP POP JUMP JUMPDEST PUSH1 0x0 PUSH2 0x2F67 DUP3 PUSH2 0x3A2E JUMP JUMPDEST PUSH2 0x2F71 DUP2 DUP6 PUSH2 0x3ABD JUMP JUMPDEST SWAP4 POP PUSH2 0x2F7C DUP4 PUSH2 0x39F3 JUMP JUMPDEST DUP1 PUSH1 0x0 JUMPDEST DUP4 DUP2 LT ISZERO PUSH2 0x2FAD JUMPI DUP2 MLOAD PUSH2 0x2F94 DUP9 DUP3 PUSH2 0x2DD4 JUMP JUMPDEST SWAP8 POP PUSH2 0x2F9F DUP4 PUSH2 0x3A76 JUMP JUMPDEST SWAP3 POP POP PUSH1 0x1 DUP2 ADD SWAP1 POP PUSH2 0x2F80 JUMP JUMPDEST POP DUP6 SWAP4 POP POP POP POP SWAP3 SWAP2 POP POP JUMP JUMPDEST PUSH2 0x2FC3 DUP2 PUSH2 0x3A39 JUMP JUMPDEST PUSH2 0x2FCD DUP2 DUP5 PUSH2 0x3ACE JUMP JUMPDEST SWAP3 POP PUSH2 0x2FD8 DUP3 PUSH2 0x3A03 JUMP JUMPDEST DUP1 PUSH1 0x0 JUMPDEST DUP4 DUP2 LT ISZERO PUSH2 0x3009 JUMPI DUP2 MLOAD PUSH2 0x2FF0 DUP8 DUP3 PUSH2 0x2DED JUMP JUMPDEST SWAP7 POP PUSH2 0x2FFB DUP4 PUSH2 0x3A83 JUMP JUMPDEST SWAP3 POP POP PUSH1 0x1 DUP2 ADD SWAP1 POP PUSH2 0x2FDC JUMP JUMPDEST POP POP POP POP POP POP JUMP JUMPDEST PUSH2 0x301A DUP2 PUSH2 0x3AFC JUMP JUMPDEST DUP3 MSTORE POP POP JUMP JUMPDEST PUSH2 0x3029 DUP2 PUSH2 0x3B90 JUMP JUMPDEST DUP3 MSTORE POP POP JUMP JUMPDEST PUSH2 0x3038 DUP2 PUSH2 0x3B90 JUMP JUMPDEST DUP3 MSTORE POP POP JUMP JUMPDEST PUSH2 0x3047 DUP2 PUSH2 0x3BA2 JUMP JUMPDEST DUP3 MSTORE POP POP JUMP JUMPDEST PUSH2 0x3056 DUP2 PUSH2 0x3BA2 JUMP JUMPDEST DUP3 MSTORE POP POP JUMP JUMPDEST PUSH2 0x3065 DUP2 PUSH2 0x3BB4 JUMP JUMPDEST DUP3 MSTORE POP POP JUMP JUMPDEST PUSH2 0x3074 DUP2 PUSH2 0x3BB4 JUMP JUMPDEST DUP3 MSTORE POP POP JUMP JUMPDEST PUSH2 0x3083 DUP2 PUSH2 0x3BC6 JUMP JUMPDEST DUP3 MSTORE POP POP JUMP JUMPDEST PUSH2 0x3092 DUP2 PUSH2 0x3BC6 JUMP JUMPDEST DUP3 MSTORE POP POP JUMP JUMPDEST PUSH1 0x0 PUSH2 0x30A3 DUP3 PUSH2 0x3A44 JUMP JUMPDEST PUSH2 0x30AD DUP2 DUP6 PUSH2 0x3AD9 JUMP JUMPDEST SWAP4 POP PUSH2 0x30BD DUP2 DUP6 PUSH1 0x20 DUP7 ADD PUSH2 0x3C0B JUMP JUMPDEST PUSH2 0x30C6 DUP2 PUSH2 0x3C3E JUMP JUMPDEST DUP5 ADD SWAP2 POP POP SWAP3 SWAP2 POP POP JUMP JUMPDEST PUSH1 0x0 PUSH2 0x30DE PUSH1 0x1F DUP4 PUSH2 0x3AD9 JUMP JUMPDEST SWAP2 POP PUSH32 0x53616D6520706572736F6E206465616C206973206E6F7420616C6C6F77656400 PUSH1 0x0 DUP4 ADD MSTORE PUSH1 0x20 DUP3 ADD SWAP1 POP SWAP2 SWAP1 POP JUMP JUMPDEST PUSH1 0x0 PUSH2 0x311E PUSH1 0x12 DUP4 PUSH2 0x3AD9 JUMP JUMPDEST SWAP2 POP PUSH32 0x6E6F206C6F616E206974656D20666F756E640000000000000000000000000000 PUSH1 0x0 DUP4 ADD MSTORE PUSH1 0x20 DUP3 ADD SWAP1 POP SWAP2 SWAP1 POP JUMP JUMPDEST PUSH1 0x0 PUSH2 0x315E PUSH1 0x18 DUP4 PUSH2 0x3AD9 JUMP JUMPDEST SWAP2 POP PUSH32 0x636F6E6669726D20616D6F756E74206E6F74206D617463680000000000000000 PUSH1 0x0 DUP4 ADD MSTORE PUSH1 0x20 DUP3 ADD SWAP1 POP SWAP2 SWAP1 POP JUMP JUMPDEST PUSH1 0x0 PUSH2 0x319E PUSH1 0x1A DUP4 PUSH2 0x3AD9 JUMP JUMPDEST SWAP2 POP PUSH32 0x6D73672E73656E646572206973206E6F7420626F72726F776572000000000000 PUSH1 0x0 DUP4 ADD MSTORE PUSH1 0x20 DUP3 ADD SWAP1 POP SWAP2 SWAP1 POP JUMP JUMPDEST PUSH1 0x0 PUSH2 0x31DE PUSH1 0x18 DUP4 PUSH2 0x3AD9 JUMP JUMPDEST SWAP2 POP PUSH32 0x6D73672E73656E646572206973206E6F74206C656E6465720000000000000000 PUSH1 0x0 DUP4 ADD MSTORE PUSH1 0x20 DUP3 ADD SWAP1 POP SWAP2 SWAP1 POP JUMP JUMPDEST PUSH1 0x0 PUSH2 0x321E PUSH1 0x15 DUP4 PUSH2 0x3AD9 JUMP JUMPDEST SWAP2 POP PUSH32 0x626F72726F776572206D75737420636F6E6669726D0000000000000000000000 PUSH1 0x0 DUP4 ADD MSTORE PUSH1 0x20 DUP3 ADD SWAP1 POP SWAP2 SWAP1 POP JUMP JUMPDEST PUSH1 0x0 PUSH1 0x60 DUP4 ADD PUSH1 0x0 DUP4 ADD MLOAD DUP5 DUP3 SUB PUSH1 0x0 DUP7 ADD MSTORE PUSH2 0x326E DUP3 DUP3 PUSH2 0x2F5C JUMP JUMPDEST SWAP2 POP POP PUSH1 0x20 DUP4 ADD MLOAD PUSH2 0x3283 PUSH1 0x20 DUP7 ADD DUP3 PUSH2 0x35B3 JUMP JUMPDEST POP PUSH1 0x40 DUP4 ADD MLOAD PUSH2 0x3296 PUSH1 0x40 DUP7 ADD DUP3 PUSH2 0x3011 JUMP JUMPDEST POP DUP1 SWAP2 POP POP SWAP3 SWAP2 POP POP JUMP JUMPDEST PUSH1 0x0 PUSH1 0x60 DUP4 ADD PUSH1 0x0 DUP4 ADD MLOAD DUP5 DUP3 SUB PUSH1 0x0 DUP7 ADD MSTORE PUSH2 0x32BE DUP3 DUP3 PUSH2 0x2F5C JUMP JUMPDEST SWAP2 POP POP PUSH1 0x20 DUP4 ADD MLOAD PUSH2 0x32D3 PUSH1 0x20 DUP7 ADD DUP3 PUSH2 0x35B3 JUMP JUMPDEST POP PUSH1 0x40 DUP4 ADD MLOAD PUSH2 0x32E6 PUSH1 0x40 DUP7 ADD DUP3 PUSH2 0x3011 JUMP JUMPDEST POP DUP1 SWAP2 POP POP SWAP3 SWAP2 POP POP JUMP JUMPDEST PUSH2 0x440 DUP3 ADD PUSH1 0x0 DUP3 ADD MLOAD PUSH2 0x3308 PUSH1 0x0 DUP6 ADD DUP3 PUSH2 0x35B3 JUMP JUMPDEST POP PUSH1 0x20 DUP3 ADD MLOAD PUSH2 0x331B PUSH1 0x20 DUP6 ADD DUP3 PUSH2 0x2E14 JUMP JUMPDEST POP PUSH1 0x40 DUP3 ADD MLOAD PUSH2 0x332E PUSH1 0x40 DUP6 ADD DUP3 PUSH2 0x2E14 JUMP JUMPDEST POP PUSH1 0x60 DUP3 ADD MLOAD PUSH2 0x3341 PUSH1 0x60 DUP6 ADD DUP3 PUSH2 0x303E JUMP JUMPDEST POP PUSH1 0x80 DUP3 ADD MLOAD PUSH2 0x3354 PUSH1 0x80 DUP6 ADD DUP3 PUSH2 0x3020 JUMP JUMPDEST POP PUSH1 0xA0 DUP3 ADD MLOAD PUSH2 0x3367 PUSH1 0xA0 DUP6 ADD DUP3 PUSH2 0x307A JUMP JUMPDEST POP PUSH1 0xC0 DUP3 ADD MLOAD PUSH2 0x337A PUSH1 0xC0 DUP6 ADD DUP3 PUSH2 0x35B3 JUMP JUMPDEST POP PUSH1 0xE0 DUP3 ADD MLOAD PUSH2 0x338D PUSH1 0xE0 DUP6 ADD DUP3 PUSH2 0x35B3 JUMP JUMPDEST POP PUSH2 0x100 DUP3 ADD MLOAD PUSH2 0x33A2 PUSH2 0x100 DUP6 ADD DUP3 PUSH2 0x35B3 JUMP JUMPDEST POP PUSH2 0x120 DUP3 ADD MLOAD PUSH2 0x33B7 PUSH2 0x120 DUP6 ADD DUP3 PUSH2 0x35B3 JUMP JUMPDEST POP PUSH2 0x140 DUP3 ADD MLOAD PUSH2 0x33CC PUSH2 0x140 DUP6 ADD DUP3 PUSH2 0x355B JUMP JUMPDEST POP PUSH2 0x160 DUP3 ADD MLOAD PUSH2 0x33E1 PUSH2 0x3C0 DUP6 ADD DUP3 PUSH2 0x35B3 JUMP JUMPDEST POP PUSH2 0x180 DUP3 ADD MLOAD PUSH2 0x33F6 PUSH2 0x3E0 DUP6 ADD DUP3 PUSH2 0x35B3 JUMP JUMPDEST POP PUSH2 0x1A0 DUP3 ADD MLOAD PUSH2 0x340B PUSH2 0x400 DUP6 ADD DUP3 PUSH2 0x3011 JUMP JUMPDEST POP PUSH2 0x1C0 DUP3 ADD MLOAD PUSH2 0x3420 PUSH2 0x420 DUP6 ADD DUP3 PUSH2 0x305C JUMP JUMPDEST POP POP POP POP JUMP JUMPDEST PUSH2 0x440 DUP3 ADD PUSH1 0x0 DUP3 ADD MLOAD PUSH2 0x343D PUSH1 0x0 DUP6 ADD DUP3 PUSH2 0x35B3 JUMP JUMPDEST POP PUSH1 0x20 DUP3 ADD MLOAD PUSH2 0x3450 PUSH1 0x20 DUP6 ADD DUP3 PUSH2 0x2E14 JUMP JUMPDEST POP PUSH1 0x40 DUP3 ADD MLOAD PUSH2 0x3463 PUSH1 0x40 DUP6 ADD DUP3 PUSH2 0x2E14 JUMP JUMPDEST POP PUSH1 0x60 DUP3 ADD MLOAD PUSH2 0x3476 PUSH1 0x60 DUP6 ADD DUP3 PUSH2 0x303E JUMP JUMPDEST POP PUSH1 0x80 DUP3 ADD MLOAD PUSH2 0x3489 PUSH1 0x80 DUP6 ADD DUP3 PUSH2 0x3020 JUMP JUMPDEST POP PUSH1 0xA0 DUP3 ADD MLOAD PUSH2 0x349C PUSH1 0xA0 DUP6 ADD DUP3 PUSH2 0x307A JUMP JUMPDEST POP PUSH1 0xC0 DUP3 ADD MLOAD PUSH2 0x34AF PUSH1 0xC0 DUP6 ADD DUP3 PUSH2 0x35B3 JUMP JUMPDEST POP PUSH1 0xE0 DUP3 ADD MLOAD PUSH2 0x34C2 PUSH1 0xE0 DUP6 ADD DUP3 PUSH2 0x35B3 JUMP JUMPDEST POP PUSH2 0x100 DUP3 ADD MLOAD PUSH2 0x34D7 PUSH2 0x100 DUP6 ADD DUP3 PUSH2 0x35B3 JUMP JUMPDEST POP PUSH2 0x120 DUP3 ADD MLOAD PUSH2 0x34EC PUSH2 0x120 DUP6 ADD DUP3 PUSH2 0x35B3 JUMP JUMPDEST POP PUSH2 0x140 DUP3 ADD MLOAD PUSH2 0x3501 PUSH2 0x140 DUP6 ADD DUP3 PUSH2 0x355B JUMP JUMPDEST POP PUSH2 0x160 DUP3 ADD MLOAD PUSH2 0x3516 PUSH2 0x3C0 DUP6 ADD DUP3 PUSH2 0x35B3 JUMP JUMPDEST POP PUSH2 0x180 DUP3 ADD MLOAD PUSH2 0x352B PUSH2 0x3E0 DUP6 ADD DUP3 PUSH2 0x35B3 JUMP JUMPDEST POP PUSH2 0x1A0 DUP3 ADD MLOAD PUSH2 0x3540 PUSH2 0x400 DUP6 ADD DUP3 PUSH2 0x3011 JUMP JUMPDEST POP PUSH2 0x1C0 DUP3 ADD MLOAD PUSH2 0x3555 PUSH2 0x420 DUP6 ADD DUP3 PUSH2 0x305C JUMP JUMPDEST POP POP POP POP JUMP JUMPDEST PUSH2 0x280 DUP3 ADD PUSH1 0x0 DUP3 ADD MLOAD PUSH2 0x3572 PUSH1 0x0 DUP6 ADD DUP3 PUSH2 0x2FBA JUMP JUMPDEST POP PUSH1 0x20 DUP3 ADD MLOAD PUSH2 0x3585 PUSH1 0xA0 DUP6 ADD DUP3 PUSH2 0x2FBA JUMP JUMPDEST POP PUSH1 0x40 DUP3 ADD MLOAD PUSH2 0x3599 PUSH2 0x140 DUP6 ADD DUP3 PUSH2 0x2FBA JUMP JUMPDEST POP PUSH1 0x60 DUP3 ADD MLOAD PUSH2 0x35AD PUSH2 0x1E0 DUP6 ADD DUP3 PUSH2 0x2E90 JUMP JUMPDEST POP POP POP POP JUMP JUMPDEST PUSH2 0x35BC DUP2 PUSH2 0x3B74 JUMP JUMPDEST DUP3 MSTORE POP POP JUMP JUMPDEST PUSH2 0x35CB DUP2 PUSH2 0x3B74 JUMP JUMPDEST DUP3 MSTORE POP POP JUMP JUMPDEST PUSH1 0x0 PUSH1 0x20 DUP3 ADD SWAP1 POP PUSH2 0x35E6 PUSH1 0x0 DUP4 ADD DUP5 PUSH2 0x2E23 JUMP JUMPDEST SWAP3 SWAP2 POP POP JUMP JUMPDEST PUSH1 0x0 PUSH1 0xA0 DUP3 ADD SWAP1 POP PUSH2 0x3601 PUSH1 0x0 DUP4 ADD DUP9 PUSH2 0x2E23 JUMP JUMPDEST PUSH2 0x360E PUSH1 0x20 DUP4 ADD DUP8 PUSH2 0x304D JUMP JUMPDEST PUSH2 0x361B PUSH1 0x40 DUP4 ADD DUP7 PUSH2 0x302F JUMP JUMPDEST PUSH2 0x3628 PUSH1 0x60 DUP4 ADD DUP6 PUSH2 0x3089 JUMP JUMPDEST PUSH2 0x3635 PUSH1 0x80 DUP4 ADD DUP5 PUSH2 0x35C2 JUMP JUMPDEST SWAP7 SWAP6 POP POP POP POP POP POP JUMP JUMPDEST PUSH1 0x0 PUSH1 0xC0 DUP3 ADD SWAP1 POP PUSH2 0x3654 PUSH1 0x0 DUP4 ADD DUP10 PUSH2 0x2E23 JUMP JUMPDEST PUSH2 0x3661 PUSH1 0x20 DUP4 ADD DUP9 PUSH2 0x304D JUMP JUMPDEST PUSH2 0x366E PUSH1 0x40 DUP4 ADD DUP8 PUSH2 0x302F JUMP JUMPDEST PUSH2 0x367B PUSH1 0x60 DUP4 ADD DUP7 PUSH2 0x3089 JUMP JUMPDEST PUSH2 0x3688 PUSH1 0x80 DUP4 ADD DUP6 PUSH2 0x35C2 JUMP JUMPDEST PUSH2 0x3695 PUSH1 0xA0 DUP4 ADD DUP5 PUSH2 0x35C2 JUMP JUMPDEST SWAP8 SWAP7 POP POP POP POP POP POP POP JUMP JUMPDEST PUSH1 0x0 PUSH1 0x20 DUP3 ADD SWAP1 POP DUP2 DUP2 SUB PUSH1 0x0 DUP4 ADD MSTORE PUSH2 0x36BA DUP2 DUP5 PUSH2 0x2E32 JUMP JUMPDEST SWAP1 POP SWAP3 SWAP2 POP POP JUMP JUMPDEST PUSH1 0x0 PUSH1 0x20 DUP3 ADD SWAP1 POP DUP2 DUP2 SUB PUSH1 0x0 DUP4 ADD MSTORE PUSH2 0x36DC DUP2 DUP5 PUSH2 0x2EE7 JUMP JUMPDEST SWAP1 POP SWAP3 SWAP2 POP POP JUMP JUMPDEST PUSH1 0x0 PUSH1 0x80 DUP3 ADD SWAP1 POP PUSH2 0x36F9 PUSH1 0x0 DUP4 ADD DUP8 PUSH2 0x302F JUMP JUMPDEST PUSH2 0x3706 PUSH1 0x20 DUP4 ADD DUP7 PUSH2 0x2E05 JUMP JUMPDEST PUSH2 0x3713 PUSH1 0x40 DUP4 ADD DUP6 PUSH2 0x2E23 JUMP JUMPDEST DUP2 DUP2 SUB PUSH1 0x60 DUP4 ADD MSTORE PUSH2 0x3725 DUP2 DUP5 PUSH2 0x3098 JUMP JUMPDEST SWAP1 POP SWAP6 SWAP5 POP POP POP POP POP JUMP JUMPDEST PUSH1 0x0 PUSH1 0x60 DUP3 ADD SWAP1 POP PUSH2 0x3745 PUSH1 0x0 DUP4 ADD DUP7 PUSH2 0x302F JUMP JUMPDEST PUSH2 0x3752 PUSH1 0x20 DUP4 ADD DUP6 PUSH2 0x35C2 JUMP JUMPDEST PUSH2 0x375F PUSH1 0x40 DUP4 ADD DUP5 PUSH2 0x2E23 JUMP JUMPDEST SWAP5 SWAP4 POP POP POP POP JUMP JUMPDEST PUSH1 0x0 PUSH1 0x60 DUP3 ADD SWAP1 POP PUSH2 0x377C PUSH1 0x0 DUP4 ADD DUP7 PUSH2 0x302F JUMP JUMPDEST PUSH2 0x3789 PUSH1 0x20 DUP4 ADD DUP6 PUSH2 0x35C2 JUMP JUMPDEST PUSH2 0x3796 PUSH1 0x40 DUP4 ADD DUP5 PUSH2 0x2E05 JUMP JUMPDEST SWAP5 SWAP4 POP POP POP POP JUMP JUMPDEST PUSH1 0x0 PUSH1 0xA0 DUP3 ADD SWAP1 POP PUSH2 0x37B3 PUSH1 0x0 DUP4 ADD DUP9 PUSH2 0x304D JUMP JUMPDEST PUSH2 0x37C0 PUSH1 0x20 DUP4 ADD DUP8 PUSH2 0x302F JUMP JUMPDEST PUSH2 0x37CD PUSH1 0x40 DUP4 ADD DUP7 PUSH2 0x35C2 JUMP JUMPDEST PUSH2 0x37DA PUSH1 0x60 DUP4 ADD DUP6 PUSH2 0x35C2 JUMP JUMPDEST PUSH2 0x37E7 PUSH1 0x80 DUP4 ADD DUP5 PUSH2 0x35C2 JUMP JUMPDEST SWAP7 SWAP6 POP POP POP POP POP POP JUMP JUMPDEST PUSH1 0x0 PUSH1 0x20 DUP3 ADD SWAP1 POP PUSH2 0x3806 PUSH1 0x0 DUP4 ADD DUP5 PUSH2 0x306B JUMP JUMPDEST SWAP3 SWAP2 POP POP JUMP JUMPDEST PUSH1 0x0 PUSH1 0x20 DUP3 ADD SWAP1 POP DUP2 DUP2 SUB PUSH1 0x0 DUP4 ADD MSTORE PUSH2 0x3825 DUP2 PUSH2 0x30D1 JUMP JUMPDEST SWAP1 POP SWAP2 SWAP1 POP JUMP JUMPDEST PUSH1 0x0 PUSH1 0x20 DUP3 ADD SWAP1 POP DUP2 DUP2 SUB PUSH1 0x0 DUP4 ADD MSTORE PUSH2 0x3845 DUP2 PUSH2 0x3111 JUMP JUMPDEST SWAP1 POP SWAP2 SWAP1 POP JUMP JUMPDEST PUSH1 0x0 PUSH1 0x20 DUP3 ADD SWAP1 POP DUP2 DUP2 SUB PUSH1 0x0 DUP4 ADD MSTORE PUSH2 0x3865 DUP2 PUSH2 0x3151 JUMP JUMPDEST SWAP1 POP SWAP2 SWAP1 POP JUMP JUMPDEST PUSH1 0x0 PUSH1 0x20 DUP3 ADD SWAP1 POP DUP2 DUP2 SUB PUSH1 0x0 DUP4 ADD MSTORE PUSH2 0x3885 DUP2 PUSH2 0x3191 JUMP JUMPDEST SWAP1 POP SWAP2 SWAP1 POP JUMP JUMPDEST PUSH1 0x0 PUSH1 0x20 DUP3 ADD SWAP1 POP DUP2 DUP2 SUB PUSH1 0x0 DUP4 ADD MSTORE PUSH2 0x38A5 DUP2 PUSH2 0x31D1 JUMP JUMPDEST SWAP1 POP SWAP2 SWAP1 POP JUMP JUMPDEST PUSH1 0x0 PUSH1 0x20 DUP3 ADD SWAP1 POP DUP2 DUP2 SUB PUSH1 0x0 DUP4 ADD MSTORE PUSH2 0x38C5 DUP2 PUSH2 0x3211 JUMP JUMPDEST SWAP1 POP SWAP2 SWAP1 POP JUMP JUMPDEST PUSH1 0x0 PUSH1 0x20 DUP3 ADD SWAP1 POP DUP2 DUP2 SUB PUSH1 0x0 DUP4 ADD MSTORE PUSH2 0x38E6 DUP2 DUP5 PUSH2 0x32A1 JUMP JUMPDEST SWAP1 POP SWAP3 SWAP2 POP POP JUMP JUMPDEST PUSH1 0x0 PUSH2 0x440 DUP3 ADD SWAP1 POP PUSH2 0x3904 PUSH1 0x0 DUP4 ADD DUP5 PUSH2 0x3426 JUMP JUMPDEST SWAP3 SWAP2 POP POP JUMP JUMPDEST PUSH1 0x0 PUSH1 0x40 MLOAD SWAP1 POP DUP2 DUP2 ADD DUP2 DUP2 LT PUSH8 0xFFFFFFFFFFFFFFFF DUP3 GT OR ISZERO PUSH2 0x392D JUMPI PUSH1 0x0 DUP1 REVERT JUMPDEST DUP1 PUSH1 0x40 MSTORE POP SWAP2 SWAP1 POP JUMP JUMPDEST PUSH1 0x0 PUSH8 0xFFFFFFFFFFFFFFFF DUP3 GT ISZERO PUSH2 0x394E JUMPI PUSH1 0x0 DUP1 REVERT JUMPDEST PUSH1 0x20 DUP3 MUL SWAP1 POP SWAP2 SWAP1 POP JUMP JUMPDEST PUSH1 0x0 PUSH8 0xFFFFFFFFFFFFFFFF DUP3 GT ISZERO PUSH2 0x3970 JUMPI PUSH1 0x0 DUP1 REVERT JUMPDEST PUSH1 0x20 DUP3 MUL SWAP1 POP SWAP2 SWAP1 POP JUMP JUMPDEST PUSH1 0x0 PUSH8 0xFFFFFFFFFFFFFFFF DUP3 GT ISZERO PUSH2 0x3992 JUMPI PUSH1 0x0 DUP1 REVERT JUMPDEST PUSH1 0x20 DUP3 MUL SWAP1 POP SWAP2 SWAP1 POP JUMP JUMPDEST PUSH1 0x0 PUSH8 0xFFFFFFFFFFFFFFFF DUP3 GT ISZERO PUSH2 0x39B4 JUMPI PUSH1 0x0 DUP1 REVERT JUMPDEST PUSH1 0x1F NOT PUSH1 0x1F DUP4 ADD AND SWAP1 POP PUSH1 0x20 DUP2 ADD SWAP1 POP SWAP2 SWAP1 POP JUMP JUMPDEST PUSH1 0x0 DUP2 SWAP1 POP PUSH1 0x20 DUP3 ADD SWAP1 POP SWAP2 SWAP1 POP JUMP JUMPDEST PUSH1 0x0 DUP2 SWAP1 POP SWAP2 SWAP1 POP JUMP JUMPDEST PUSH1 0x0 DUP2 SWAP1 POP PUSH1 0x20 DUP3 ADD SWAP1 POP SWAP2 SWAP1 POP JUMP JUMPDEST PUSH1 0x0 DUP2 SWAP1 POP PUSH1 0x20 DUP3 ADD SWAP1 POP SWAP2 SWAP1 POP JUMP JUMPDEST PUSH1 0x0 DUP2 SWAP1 POP SWAP2 SWAP1 POP JUMP JUMPDEST PUSH1 0x0 DUP2 MLOAD SWAP1 POP SWAP2 SWAP1 POP JUMP JUMPDEST PUSH1 0x0 PUSH1 0x5 SWAP1 POP SWAP2 SWAP1 POP JUMP JUMPDEST PUSH1 0x0 DUP2 MLOAD SWAP1 POP SWAP2 SWAP1 POP JUMP JUMPDEST PUSH1 0x0 DUP2 MLOAD SWAP1 POP SWAP2 SWAP1 POP JUMP JUMPDEST PUSH1 0x0 PUSH1 0x5 SWAP1 POP SWAP2 SWAP1 POP JUMP JUMPDEST PUSH1 0x0 DUP2 MLOAD SWAP1 POP SWAP2 SWAP1 POP JUMP JUMPDEST PUSH1 0x0 PUSH1 0x20 DUP3 ADD SWAP1 POP SWAP2 SWAP1 POP JUMP JUMPDEST PUSH1 0x0 PUSH1 0x20 DUP3 ADD SWAP1 POP SWAP2 SWAP1 POP JUMP JUMPDEST PUSH1 0x0 PUSH1 0x20 DUP3 ADD SWAP1 POP SWAP2 SWAP1 POP JUMP JUMPDEST PUSH1 0x0 PUSH1 0x20 DUP3 ADD SWAP1 POP SWAP2 SWAP1 POP JUMP JUMPDEST PUSH1 0x0 PUSH1 0x20 DUP3 ADD SWAP1 POP SWAP2 SWAP1 POP JUMP JUMPDEST PUSH1 0x0 DUP3 DUP3 MSTORE PUSH1 0x20 DUP3 ADD SWAP1 POP SWAP3 SWAP2 POP POP JUMP JUMPDEST PUSH1 0x0 DUP2 SWAP1 POP SWAP3 SWAP2 POP POP JUMP JUMPDEST PUSH1 0x0 DUP3 DUP3 MSTORE PUSH1 0x20 DUP3 ADD SWAP1 POP SWAP3 SWAP2 POP POP JUMP JUMPDEST PUSH1 0x0 DUP3 DUP3 MSTORE PUSH1 0x20 DUP3 ADD SWAP1 POP SWAP3 SWAP2 POP POP JUMP JUMPDEST PUSH1 0x0 DUP2 SWAP1 POP SWAP3 SWAP2 POP POP JUMP JUMPDEST PUSH1 0x0 DUP3 DUP3 MSTORE PUSH1 0x20 DUP3 ADD SWAP1 POP SWAP3 SWAP2 POP POP JUMP JUMPDEST PUSH1 0x0 PUSH2 0x3AF5 DUP3 PUSH2 0x3B54 JUMP JUMPDEST SWAP1 POP SWAP2 SWAP1 POP JUMP JUMPDEST PUSH1 0x0 DUP2 ISZERO ISZERO SWAP1 POP SWAP2 SWAP1 POP JUMP JUMPDEST PUSH1 0x0 DUP2 SWAP1 POP PUSH2 0x3B16 DUP3 PUSH2 0x3C4F JUMP JUMPDEST SWAP2 SWAP1 POP JUMP JUMPDEST PUSH1 0x0 DUP2 SWAP1 POP PUSH2 0x3B29 DUP3 PUSH2 0x3C5C JUMP JUMPDEST SWAP2 SWAP1 POP JUMP JUMPDEST PUSH1 0x0 DUP2 SWAP1 POP PUSH2 0x3B3C DUP3 PUSH2 0x3C69 JUMP JUMPDEST SWAP2 SWAP1 POP JUMP JUMPDEST PUSH1 0x0 DUP2 SWAP1 POP PUSH2 0x3B4F DUP3 PUSH2 0x3C76 JUMP JUMPDEST SWAP2 SWAP1 POP JUMP JUMPDEST PUSH1 0x0 PUSH20 0xFFFFFFFFFFFFFFFFFFFFFFFFFFFFFFFFFFFFFFFF DUP3 AND SWAP1 POP SWAP2 SWAP1 POP JUMP JUMPDEST PUSH1 0x0 DUP2 SWAP1 POP SWAP2 SWAP1 POP JUMP JUMPDEST PUSH1 0x0 PUSH2 0x3B89 DUP3 PUSH2 0x3BD8 JUMP JUMPDEST SWAP1 POP SWAP2 SWAP1 POP JUMP JUMPDEST PUSH1 0x0 PUSH2 0x3B9B DUP3 PUSH2 0x3B08 JUMP JUMPDEST SWAP1 POP SWAP2 SWAP1 POP JUMP JUMPDEST PUSH1 0x0 PUSH2 0x3BAD DUP3 PUSH2 0x3B1B JUMP JUMPDEST SWAP1 POP SWAP2 SWAP1 POP JUMP JUMPDEST PUSH1 0x0 PUSH2 0x3BBF DUP3 PUSH2 0x3B2E JUMP JUMPDEST SWAP1 POP SWAP2 SWAP1 POP JUMP JUMPDEST PUSH1 0x0 PUSH2 0x3BD1 DUP3 PUSH2 0x3B41 JUMP JUMPDEST SWAP1 POP SWAP2 SWAP1 POP JUMP JUMPDEST PUSH1 0x0 PUSH2 0x3BE3 DUP3 PUSH2 0x3BEA JUMP JUMPDEST SWAP1 POP SWAP2 SWAP1 POP JUMP JUMPDEST PUSH1 0x0 PUSH2 0x3BF5 DUP3 PUSH2 0x3B54 JUMP JUMPDEST SWAP1 POP SWAP2 SWAP1 POP JUMP JUMPDEST DUP3 DUP2 DUP4 CALLDATACOPY PUSH1 0x0 DUP4 DUP4 ADD MSTORE POP POP POP JUMP JUMPDEST PUSH1 0x0 JUMPDEST DUP4 DUP2 LT ISZERO PUSH2 0x3C29 JUMPI DUP1 DUP3 ADD MLOAD DUP2 DUP5 ADD MSTORE PUSH1 0x20 DUP2 ADD SWAP1 POP PUSH2 0x3C0E JUMP JUMPDEST DUP4 DUP2 GT ISZERO PUSH2 0x3C38 JUMPI PUSH1 0x0 DUP5 DUP5 ADD MSTORE JUMPDEST POP POP POP POP JUMP JUMPDEST PUSH1 0x0 PUSH1 0x1F NOT PUSH1 0x1F DUP4 ADD AND SWAP1 POP SWAP2 SWAP1 POP JUMP JUMPDEST PUSH1 0x3 DUP2 LT PUSH2 0x3C59 JUMPI INVALID JUMPDEST POP JUMP JUMPDEST PUSH1 0x2 DUP2 LT PUSH2 0x3C66 JUMPI INVALID JUMPDEST POP JUMP JUMPDEST PUSH1 0x6 DUP2 LT PUSH2 0x3C73 JUMPI INVALID JUMPDEST POP JUMP JUMPDEST PUSH1 0x6 DUP2 LT PUSH2 0x3C80 JUMPI INVALID JUMPDEST POP JUMP JUMPDEST PUSH2 0x3C8C DUP2 PUSH2 0x3AEA JUMP JUMPDEST DUP2 EQ PUSH2 0x3C97 JUMPI PUSH1 0x0 DUP1 REVERT JUMPDEST POP JUMP JUMPDEST PUSH2 0x3CA3 DUP2 PUSH2 0x3AFC JUMP JUMPDEST DUP2 EQ PUSH2 0x3CAE JUMPI PUSH1 0x0 DUP1 REVERT JUMPDEST POP JUMP JUMPDEST PUSH1 0x3 DUP2 LT PUSH2 0x3CBE JUMPI PUSH1 0x0 DUP1 REVERT JUMPDEST POP JUMP JUMPDEST PUSH1 0x2 DUP2 LT PUSH2 0x3CCE JUMPI PUSH1 0x0 DUP1 REVERT JUMPDEST POP JUMP JUMPDEST PUSH1 0x6 DUP2 LT PUSH2 0x3CDE JUMPI PUSH1 0x0 DUP1 REVERT JUMPDEST POP JUMP JUMPDEST PUSH1 0x6 DUP2 LT PUSH2 0x3CEE JUMPI PUSH1 0x0 DUP1 REVERT JUMPDEST POP JUMP JUMPDEST PUSH2 0x3CFA DUP2 PUSH2 0x3B74 JUMP JUMPDEST DUP2 EQ PUSH2 0x3D05 JUMPI PUSH1 0x0 DUP1 REVERT JUMPDEST POP JUMP INVALID LOG2 PUSH5 0x6970667358 0x22 SLT KECCAK256 0xD0 CALLDATALOAD 0xAB LT MSTORE 0xA6 SWAP1 0xA6 0xE5 SMOD CALL 0x1F 0x2C SWAP5 0x1F PUSH24 0x1BCB79F2595ECF8A5DF1378890A8C6BA64736F6C63430006 0xC STOP CALLER "
		},
		"gasEstimates": {
			"creation": {
				"codeDepositCost": "3135600",
				"executionCost": "infinite",
				"totalCost": "infinite"
			},
			"external": {
				"confirmPayment(address,address,uint8,uint8,uint256,uint256,uint256)": "infinite",
				"fillSchedule((uint256,address,address,uint8,uint8,uint8,uint256,uint256,uint256,uint256,(uint256[5],uint256[5],uint256[5],bool[5]),uint256,uint256,bool,uint8),uint8,uint256,uint256)": "infinite",
				"getAllBooks()": "infinite",
				"getAllUsers()": "infinite",
				"getCurrentState((uint256[5],uint256[5],uint256[5],bool[5]))": "infinite",
				"getLoanItem(uint256)": "infinite",
				"getOneBook(address)": "infinite",
				"makeLoanDeal(address,uint8,uint8,uint8,uint256)": "infinite",
				"notifyPayment(uint8,address,uint256,string)": "infinite",
				"updateAllPV()": "infinite",
				"updateAllState()": "188",
				"updateState(address,address,uint256)": "infinite",
				"updateUserPV(address)": "infinite"
			},
			"internal": {
				"calcDF(uint256[7] memory,uint256)": "infinite",
				"inputToItem(struct Loan.LoanInput memory,uint256,uint256)": "infinite",
				"updateOnePV(struct Loan.LoanItem storage pointer)": "infinite"
			}
		},
		"methodIdentifiers": {
			"confirmPayment(address,address,uint8,uint8,uint256,uint256,uint256)": "b677aa2e",
			"fillSchedule((uint256,address,address,uint8,uint8,uint8,uint256,uint256,uint256,uint256,(uint256[5],uint256[5],uint256[5],bool[5]),uint256,uint256,bool,uint8),uint8,uint256,uint256)": "73b18b4c",
			"getAllBooks()": "354528e8",
			"getAllUsers()": "e2842d79",
			"getCurrentState((uint256[5],uint256[5],uint256[5],bool[5]))": "8257a504",
			"getLoanItem(uint256)": "61fda82a",
			"getOneBook(address)": "57d8df5a",
			"makeLoanDeal(address,uint8,uint8,uint8,uint256)": "995a2001",
			"notifyPayment(uint8,address,uint256,string)": "1d244afa",
			"updateAllPV()": "d003a97e",
			"updateAllState()": "cb105188",
			"updateState(address,address,uint256)": "45cf5cc0",
			"updateUserPV(address)": "4ef8fe5b"
		}
	},
	"abi": [
		{
			"inputs": [
				{
					"internalType": "address",
					"name": "moneyAddr",
					"type": "address"
				},
				{
					"internalType": "address",
					"name": "fxAddr",
					"type": "address"
				},
				{
					"internalType": "address",
					"name": "colAddr",
					"type": "address"
				}
			],
			"stateMutability": "nonpayable",
			"type": "constructor"
		},
		{
			"anonymous": false,
			"inputs": [
				{
					"indexed": true,
					"internalType": "address",
					"name": "loanMaker",
					"type": "address"
				},
				{
					"indexed": true,
					"internalType": "address",
					"name": "colUser",
					"type": "address"
				},
				{
					"indexed": false,
					"internalType": "enum MoneyMarket.Side",
					"name": "side",
					"type": "uint8"
				},
				{
					"indexed": false,
					"internalType": "enum MoneyMarket.Ccy",
					"name": "ccy",
					"type": "uint8"
				},
				{
					"indexed": false,
					"internalType": "uint256",
					"name": "term",
					"type": "uint256"
				},
				{
					"indexed": false,
					"internalType": "uint256",
					"name": "amt",
					"type": "uint256"
				},
				{
					"indexed": false,
					"internalType": "uint256",
					"name": "loanId",
					"type": "uint256"
				}
			],
			"name": "ConfirmPayment",
			"type": "event"
		},
		{
			"anonymous": false,
			"inputs": [
				{
					"indexed": false,
					"internalType": "address",
					"name": "makerAddr",
					"type": "address"
				},
				{
					"indexed": false,
					"internalType": "enum MoneyMarket.Side",
					"name": "side",
					"type": "uint8"
				},
				{
					"indexed": false,
					"internalType": "enum MoneyMarket.Ccy",
					"name": "ccy",
					"type": "uint8"
				},
				{
					"indexed": false,
					"internalType": "enum MoneyMarket.Term",
					"name": "term",
					"type": "uint8"
				},
				{
					"indexed": false,
					"internalType": "uint256",
					"name": "amt",
					"type": "uint256"
				},
				{
					"indexed": false,
					"internalType": "uint256",
					"name": "loanId",
					"type": "uint256"
				}
			],
			"name": "MakeLoanDeal",
			"type": "event"
		},
		{
			"anonymous": false,
			"inputs": [
				{
					"indexed": false,
					"internalType": "enum MoneyMarket.Ccy",
					"name": "ccy",
					"type": "uint8"
				},
				{
					"indexed": false,
					"internalType": "address",
					"name": "sender",
					"type": "address"
				},
				{
					"indexed": false,
					"internalType": "address",
					"name": "receiver",
					"type": "address"
				},
				{
					"indexed": true,
					"internalType": "uint256",
					"name": "loanId",
					"type": "uint256"
				},
				{
					"indexed": false,
					"internalType": "string",
					"name": "txHash",
					"type": "string"
				}
			],
			"name": "NoitfyPayment",
			"type": "event"
		},
		{
			"inputs": [
				{
					"internalType": "address",
					"name": "loanMaker",
					"type": "address"
				},
				{
					"internalType": "address",
					"name": "colUser",
					"type": "address"
				},
				{
					"internalType": "enum MoneyMarket.Side",
					"name": "side",
					"type": "uint8"
				},
				{
					"internalType": "enum MoneyMarket.Ccy",
					"name": "ccy",
					"type": "uint8"
				},
				{
					"internalType": "uint256",
					"name": "term",
					"type": "uint256"
				},
				{
					"internalType": "uint256",
					"name": "amt",
					"type": "uint256"
				},
				{
					"internalType": "uint256",
					"name": "loanId",
					"type": "uint256"
				}
			],
			"name": "confirmPayment",
			"outputs": [],
			"stateMutability": "nonpayable",
			"type": "function"
		},
		{
			"inputs": [
				{
					"components": [
						{
							"internalType": "uint256",
							"name": "loanId",
							"type": "uint256"
						},
						{
							"internalType": "address",
							"name": "lender",
							"type": "address"
						},
						{
							"internalType": "address",
							"name": "borrower",
							"type": "address"
						},
						{
							"internalType": "enum MoneyMarket.Side",
							"name": "side",
							"type": "uint8"
						},
						{
							"internalType": "enum MoneyMarket.Ccy",
							"name": "ccy",
							"type": "uint8"
						},
						{
							"internalType": "enum MoneyMarket.Term",
							"name": "term",
							"type": "uint8"
						},
						{
							"internalType": "uint256",
							"name": "amt",
							"type": "uint256"
						},
						{
							"internalType": "uint256",
							"name": "rate",
							"type": "uint256"
						},
						{
							"internalType": "uint256",
							"name": "start",
							"type": "uint256"
						},
						{
							"internalType": "uint256",
							"name": "end",
							"type": "uint256"
						},
						{
							"components": [
								{
									"internalType": "uint256[5]",
									"name": "notices",
									"type": "uint256[5]"
								},
								{
									"internalType": "uint256[5]",
									"name": "payments",
									"type": "uint256[5]"
								},
								{
									"internalType": "uint256[5]",
									"name": "amounts",
									"type": "uint256[5]"
								},
								{
									"internalType": "bool[5]",
									"name": "isDone",
									"type": "bool[5]"
								}
							],
							"internalType": "struct Loan.Schedule",
							"name": "schedule",
							"type": "tuple"
						},
						{
							"internalType": "uint256",
							"name": "pv",
							"type": "uint256"
						},
						{
							"internalType": "uint256",
							"name": "asOf",
							"type": "uint256"
						},
						{
							"internalType": "bool",
							"name": "isAvailable",
							"type": "bool"
						},
						{
							"internalType": "enum Loan.State",
							"name": "state",
							"type": "uint8"
						}
					],
					"internalType": "struct Loan.LoanItem",
					"name": "item",
					"type": "tuple"
				},
				{
					"internalType": "enum MoneyMarket.Term",
					"name": "term",
					"type": "uint8"
				},
				{
					"internalType": "uint256",
					"name": "amt",
					"type": "uint256"
				},
				{
					"internalType": "uint256",
					"name": "rate",
					"type": "uint256"
				}
			],
			"name": "fillSchedule",
			"outputs": [],
			"stateMutability": "view",
			"type": "function"
		},
		{
			"inputs": [],
			"name": "getAllBooks",
			"outputs": [
				{
					"components": [
						{
							"components": [
								{
									"internalType": "uint256",
									"name": "loanId",
									"type": "uint256"
								},
								{
									"internalType": "address",
									"name": "lender",
									"type": "address"
								},
								{
									"internalType": "address",
									"name": "borrower",
									"type": "address"
								},
								{
									"internalType": "enum MoneyMarket.Side",
									"name": "side",
									"type": "uint8"
								},
								{
									"internalType": "enum MoneyMarket.Ccy",
									"name": "ccy",
									"type": "uint8"
								},
								{
									"internalType": "enum MoneyMarket.Term",
									"name": "term",
									"type": "uint8"
								},
								{
									"internalType": "uint256",
									"name": "amt",
									"type": "uint256"
								},
								{
									"internalType": "uint256",
									"name": "rate",
									"type": "uint256"
								},
								{
									"internalType": "uint256",
									"name": "start",
									"type": "uint256"
								},
								{
									"internalType": "uint256",
									"name": "end",
									"type": "uint256"
								},
								{
									"components": [
										{
											"internalType": "uint256[5]",
											"name": "notices",
											"type": "uint256[5]"
										},
										{
											"internalType": "uint256[5]",
											"name": "payments",
											"type": "uint256[5]"
										},
										{
											"internalType": "uint256[5]",
											"name": "amounts",
											"type": "uint256[5]"
										},
										{
											"internalType": "bool[5]",
											"name": "isDone",
											"type": "bool[5]"
										}
									],
									"internalType": "struct Loan.Schedule",
									"name": "schedule",
									"type": "tuple"
								},
								{
									"internalType": "uint256",
									"name": "pv",
									"type": "uint256"
								},
								{
									"internalType": "uint256",
									"name": "asOf",
									"type": "uint256"
								},
								{
									"internalType": "bool",
									"name": "isAvailable",
									"type": "bool"
								},
								{
									"internalType": "enum Loan.State",
									"name": "state",
									"type": "uint8"
								}
							],
							"internalType": "struct Loan.LoanItem[]",
							"name": "loans",
							"type": "tuple[]"
						},
						{
							"internalType": "uint256",
							"name": "loanNum",
							"type": "uint256"
						},
						{
							"internalType": "bool",
							"name": "isValue",
							"type": "bool"
						}
					],
					"internalType": "struct Loan.LoanBook[]",
					"name": "",
					"type": "tuple[]"
				}
			],
			"stateMutability": "view",
			"type": "function"
		},
		{
			"inputs": [],
			"name": "getAllUsers",
			"outputs": [
				{
					"internalType": "address[]",
					"name": "",
					"type": "address[]"
				}
			],
			"stateMutability": "view",
			"type": "function"
		},
		{
			"inputs": [
				{
					"components": [
						{
							"internalType": "uint256[5]",
							"name": "notices",
							"type": "uint256[5]"
						},
						{
							"internalType": "uint256[5]",
							"name": "payments",
							"type": "uint256[5]"
						},
						{
							"internalType": "uint256[5]",
							"name": "amounts",
							"type": "uint256[5]"
						},
						{
							"internalType": "bool[5]",
							"name": "isDone",
							"type": "bool[5]"
						}
					],
					"internalType": "struct Loan.Schedule",
					"name": "schedule",
					"type": "tuple"
				}
			],
			"name": "getCurrentState",
			"outputs": [
				{
					"internalType": "enum Loan.State",
					"name": "",
					"type": "uint8"
				}
			],
			"stateMutability": "view",
			"type": "function"
		},
		{
			"inputs": [
				{
					"internalType": "uint256",
					"name": "loanId",
					"type": "uint256"
				}
			],
			"name": "getLoanItem",
			"outputs": [
				{
					"components": [
						{
							"internalType": "uint256",
							"name": "loanId",
							"type": "uint256"
						},
						{
							"internalType": "address",
							"name": "lender",
							"type": "address"
						},
						{
							"internalType": "address",
							"name": "borrower",
							"type": "address"
						},
						{
							"internalType": "enum MoneyMarket.Side",
							"name": "side",
							"type": "uint8"
						},
						{
							"internalType": "enum MoneyMarket.Ccy",
							"name": "ccy",
							"type": "uint8"
						},
						{
							"internalType": "enum MoneyMarket.Term",
							"name": "term",
							"type": "uint8"
						},
						{
							"internalType": "uint256",
							"name": "amt",
							"type": "uint256"
						},
						{
							"internalType": "uint256",
							"name": "rate",
							"type": "uint256"
						},
						{
							"internalType": "uint256",
							"name": "start",
							"type": "uint256"
						},
						{
							"internalType": "uint256",
							"name": "end",
							"type": "uint256"
						},
						{
							"components": [
								{
									"internalType": "uint256[5]",
									"name": "notices",
									"type": "uint256[5]"
								},
								{
									"internalType": "uint256[5]",
									"name": "payments",
									"type": "uint256[5]"
								},
								{
									"internalType": "uint256[5]",
									"name": "amounts",
									"type": "uint256[5]"
								},
								{
									"internalType": "bool[5]",
									"name": "isDone",
									"type": "bool[5]"
								}
							],
							"internalType": "struct Loan.Schedule",
							"name": "schedule",
							"type": "tuple"
						},
						{
							"internalType": "uint256",
							"name": "pv",
							"type": "uint256"
						},
						{
							"internalType": "uint256",
							"name": "asOf",
							"type": "uint256"
						},
						{
							"internalType": "bool",
							"name": "isAvailable",
							"type": "bool"
						},
						{
							"internalType": "enum Loan.State",
							"name": "state",
							"type": "uint8"
						}
					],
					"internalType": "struct Loan.LoanItem",
					"name": "",
					"type": "tuple"
				}
			],
			"stateMutability": "view",
			"type": "function"
		},
		{
			"inputs": [
				{
					"internalType": "address",
					"name": "addr",
					"type": "address"
				}
			],
			"name": "getOneBook",
			"outputs": [
				{
					"components": [
						{
							"components": [
								{
									"internalType": "uint256",
									"name": "loanId",
									"type": "uint256"
								},
								{
									"internalType": "address",
									"name": "lender",
									"type": "address"
								},
								{
									"internalType": "address",
									"name": "borrower",
									"type": "address"
								},
								{
									"internalType": "enum MoneyMarket.Side",
									"name": "side",
									"type": "uint8"
								},
								{
									"internalType": "enum MoneyMarket.Ccy",
									"name": "ccy",
									"type": "uint8"
								},
								{
									"internalType": "enum MoneyMarket.Term",
									"name": "term",
									"type": "uint8"
								},
								{
									"internalType": "uint256",
									"name": "amt",
									"type": "uint256"
								},
								{
									"internalType": "uint256",
									"name": "rate",
									"type": "uint256"
								},
								{
									"internalType": "uint256",
									"name": "start",
									"type": "uint256"
								},
								{
									"internalType": "uint256",
									"name": "end",
									"type": "uint256"
								},
								{
									"components": [
										{
											"internalType": "uint256[5]",
											"name": "notices",
											"type": "uint256[5]"
										},
										{
											"internalType": "uint256[5]",
											"name": "payments",
											"type": "uint256[5]"
										},
										{
											"internalType": "uint256[5]",
											"name": "amounts",
											"type": "uint256[5]"
										},
										{
											"internalType": "bool[5]",
											"name": "isDone",
											"type": "bool[5]"
										}
									],
									"internalType": "struct Loan.Schedule",
									"name": "schedule",
									"type": "tuple"
								},
								{
									"internalType": "uint256",
									"name": "pv",
									"type": "uint256"
								},
								{
									"internalType": "uint256",
									"name": "asOf",
									"type": "uint256"
								},
								{
									"internalType": "bool",
									"name": "isAvailable",
									"type": "bool"
								},
								{
									"internalType": "enum Loan.State",
									"name": "state",
									"type": "uint8"
								}
							],
							"internalType": "struct Loan.LoanItem[]",
							"name": "loans",
							"type": "tuple[]"
						},
						{
							"internalType": "uint256",
							"name": "loanNum",
							"type": "uint256"
						},
						{
							"internalType": "bool",
							"name": "isValue",
							"type": "bool"
						}
					],
					"internalType": "struct Loan.LoanBook",
					"name": "",
					"type": "tuple"
				}
			],
			"stateMutability": "view",
			"type": "function"
		},
		{
			"inputs": [
				{
					"internalType": "address",
					"name": "makerAddr",
					"type": "address"
				},
				{
					"internalType": "enum MoneyMarket.Side",
					"name": "side",
					"type": "uint8"
				},
				{
					"internalType": "enum MoneyMarket.Ccy",
					"name": "ccy",
					"type": "uint8"
				},
				{
					"internalType": "enum MoneyMarket.Term",
					"name": "term",
					"type": "uint8"
				},
				{
					"internalType": "uint256",
					"name": "amt",
					"type": "uint256"
				}
			],
			"name": "makeLoanDeal",
			"outputs": [],
			"stateMutability": "nonpayable",
			"type": "function"
		},
		{
			"inputs": [
				{
					"internalType": "enum MoneyMarket.Ccy",
					"name": "ccy",
					"type": "uint8"
				},
				{
					"internalType": "address",
					"name": "receiver",
					"type": "address"
				},
				{
					"internalType": "uint256",
					"name": "loanId",
					"type": "uint256"
				},
				{
					"internalType": "string",
					"name": "txHash",
					"type": "string"
				}
			],
			"name": "notifyPayment",
			"outputs": [],
			"stateMutability": "nonpayable",
			"type": "function"
		},
		{
			"inputs": [],
			"name": "updateAllPV",
			"outputs": [],
			"stateMutability": "nonpayable",
			"type": "function"
		},
		{
			"inputs": [],
			"name": "updateAllState",
			"outputs": [],
			"stateMutability": "nonpayable",
			"type": "function"
		},
		{
			"inputs": [
				{
					"internalType": "address",
					"name": "loanMaker",
					"type": "address"
				},
				{
					"internalType": "address",
					"name": "colUser",
					"type": "address"
				},
				{
					"internalType": "uint256",
					"name": "loanId",
					"type": "uint256"
				}
			],
			"name": "updateState",
			"outputs": [],
			"stateMutability": "nonpayable",
			"type": "function"
		},
		{
			"inputs": [
				{
					"internalType": "address",
					"name": "addr",
					"type": "address"
				}
			],
			"name": "updateUserPV",
			"outputs": [],
			"stateMutability": "nonpayable",
			"type": "function"
		}
	]
}