{
	"data": {
		"bytecode": {
			"linkReferences": {},
			"object": "60806040526040518060c001604052806276a70063ffffffff16815260200162ed4e0063ffffffff1681526020016301e1338063ffffffff1681526020016303c2670063ffffffff1681526020016305a39a8063ffffffff168152602001630966018063ffffffff1681525060009060066200007d92919062000600565b506040518060c00160405280610168605a61271002816200009a57fe5b04815260200161016860b46127100281620000b157fe5b0481526020016001612710028152602001600161271002815260200160016127100281526020016001612710028152506006906006620000f39291906200064d565b5060405180602001604052806276a70062ffffff16815250600c9060016200011d92919062000692565b50604051806020016040528062ed4e0062ffffff1681525060119060016200014792919062000692565b5060405180602001604052806301e1338063ffffffff16815250601690600162000173929190620006de565b5060405180604001604052806301e1338063ffffffff1681526020016303c2670063ffffffff16815250601b906002620001af9291906200072b565b5060405180606001604052806301e1338063ffffffff1681526020016303c2670063ffffffff1681526020016305a39a8063ffffffff168152506020906003620001fb92919062000778565b506040518060a001604052806301e1338063ffffffff1681526020016303c2670063ffffffff1681526020016305a39a8063ffffffff168152602001630784ce0063ffffffff168152602001630966018063ffffffff16815250602590600562000267929190620007c5565b506040518060c00160405280600c600580602002604051908101604052809291908260058015620002ae576020028201915b81548152602001906001019080831162000299575b505050505081526020016011600580602002604051908101604052809291908260058015620002f3576020028201915b815481526020019060010190808311620002de575b50505050508152602001601660058060200260405190810160405280929190826005801562000338576020028201915b81548152602001906001019080831162000323575b50505050508152602001601b6005806020026040519081016040528092919082600580156200037d576020028201915b81548152602001906001019080831162000368575b505050505081526020016020600580602002604051908101604052809291908260058015620003c2576020028201915b815481526020019060010190808311620003ad575b50505050508152602001602560058060200260405190810160405280929190826005801562000407576020028201915b815481526020019060010190808311620003f2575b5050505050815250602a9060066200042192919062000812565b506040518060c00160405280600180028152602001600180028152602001600180028152602001600160020281526020016001600302815260200160016005028152506048906006620004769291906200064d565b506040518060e001604052806276a70063ffffffff16815260200162ed4e0063ffffffff1681526020016301e1338063ffffffff1681526020016303c2670063ffffffff1681526020016305a39a8063ffffffff168152602001630784ce0063ffffffff168152602001630966018063ffffffff16815250604e906007620005009291906200086a565b503480156200050e57600080fd5b50604051620045833803806200458383398181016040528101906200053491906200097d565b82605760006101000a81548173ffffffffffffffffffffffffffffffffffffffff021916908373ffffffffffffffffffffffffffffffffffffffff16021790555081605860006101000a81548173ffffffffffffffffffffffffffffffffffffffff021916908373ffffffffffffffffffffffffffffffffffffffff16021790555080605960006101000a81548173ffffffffffffffffffffffffffffffffffffffff021916908373ffffffffffffffffffffffffffffffffffffffff16021790555050505062000a21565b82600681019282156200063a579160200282015b8281111562000639578251829063ffffffff1690559160200191906001019062000614565b5b509050620006499190620008b7565b5090565b82600681019282156200067f579160200282015b828111156200067e57825182559160200191906001019062000661565b5b5090506200068e9190620008b7565b5090565b8260058101928215620006cb579160200282015b82811115620006ca578251829062ffffff16905591602001919060010190620006a6565b5b509050620006da9190620008b7565b5090565b826005810192821562000718579160200282015b8281111562000717578251829063ffffffff16905591602001919060010190620006f2565b5b509050620007279190620008b7565b5090565b826005810192821562000765579160200282015b8281111562000764578251829063ffffffff169055916020019190600101906200073f565b5b509050620007749190620008b7565b5090565b8260058101928215620007b2579160200282015b82811115620007b1578251829063ffffffff169055916020019190600101906200078c565b5b509050620007c19190620008b7565b5090565b8260058101928215620007ff579160200282015b82811115620007fe578251829063ffffffff16905591602001919060010190620007d9565b5b5090506200080e9190620008b7565b5090565b826006600502810192821562000857579160200282015b82811115620008565782518290600562000845929190620008d6565b509160200191906005019062000829565b5b5090506200086691906200091b565b5090565b8260078101928215620008a4579160200282015b82811115620008a3578251829063ffffffff169055916020019190600101906200087e565b5b509050620008b39190620008b7565b5090565b5b80821115620008d2576000816000905550600101620008b8565b5090565b826005810192821562000908579160200282015b8281111562000907578251825591602001919060010190620008ea565b5b509050620009179190620008b7565b5090565b5b808211156200093f576000818162000935919062000943565b506005016200091c565b5090565b506000815560010160008155600101600081556001016000815560010160009055565b600081519050620009778162000a07565b92915050565b6000806000606084860312156200099357600080fd5b6000620009a38682870162000966565b9350506020620009b68682870162000966565b9250506040620009c98682870162000966565b9150509250925092565b6000620009e082620009e7565b9050919050565b600073ffffffffffffffffffffffffffffffffffffffff82169050919050565b62000a1281620009d3565b811462000a1e57600080fd5b50565b613b528062000a316000396000f3fe608060405234801561001057600080fd5b50600436106100b45760003560e01c806386caaf011161007157806386caaf011461018b578063995a2001146101a7578063b677aa2e146101c3578063cb105188146101df578063d003a97e146101e9578063e2842d79146101f3576100b4565b80631d244afa146100b95780631d78babf146100d5578063354528e8146100f15780634ef8fe5b1461010f57806357d8df5a1461012b57806361fda82a1461015b575b600080fd5b6100d360048036038101906100ce9190612a70565b610211565b005b6100ef60048036038101906100ea919061296c565b610255565b005b6100f96104a9565b60405161010691906134f1565b60405180910390f35b610129600480360381019061012491906128a5565b6109bf565b005b610145600480360381019061014091906128a5565b610a48565b60405161015291906136e0565b60405180910390f35b61017560048036038101906101709190612b52565b610e9e565b6040516101829190613702565b60405180910390f35b6101a560048036038101906101a09190612aeb565b610f68565b005b6101c160048036038101906101bc91906129cf565b6110e6565b005b6101dd60048036038101906101d891906128ce565b611764565b005b6101e76118f3565b005b6101f16118f5565b005b6101fb6119d2565b60405161020891906134cf565b60405180910390f35b817fc078863e7ade0c5659980a387d8552e7ee23b544977aa247769231095482a60c853386856040516102479493929190613513565b60405180910390a250505050565b6000605560008673ffffffffffffffffffffffffffffffffffffffff1673ffffffffffffffffffffffffffffffffffffffff168152602001908152602001600020905060008160000184815481106102a957fe5b90600052602060002090601b02019050806003015483146102ff576040517f08c379a00000000000000000000000000000000000000000000000000000000081526004016102f690613660565b60405180910390fd5b6000600581111561030c57fe5b81601a0160019054906101000a900460ff16600581111561032957fe5b1415610475578060020160009054906101000a900473ffffffffffffffffffffffffffffffffffffffff1673ffffffffffffffffffffffffffffffffffffffff168573ffffffffffffffffffffffffffffffffffffffff16146103c1576040517f08c379a00000000000000000000000000000000000000000000000000000000081526004016103b8906136c0565b60405180910390fd5b600181601a0160016101000a81548160ff021916908360058111156103e257fe5b0217905550605960009054906101000a900473ffffffffffffffffffffffffffffffffffffffff1673ffffffffffffffffffffffffffffffffffffffff166374e8de77866040518263ffffffff1660e01b81526004016104429190613400565b600060405180830381600087803b15801561045c57600080fd5b505af1158015610470573d6000803e3d6000fd5b505050505b6001600581111561048257fe5b81601a0160019054906101000a900460ff16600581111561049f57fe5b5050505050505050565b60608060568054905067ffffffffffffffff811180156104c857600080fd5b5060405190808252806020026020018201604052801561050257816020015b6104ef612016565b8152602001906001900390816104e75790505b50905060005b6056805490508110156109b757605560006056838154811061052657fe5b9060005260206000200160009054906101000a900473ffffffffffffffffffffffffffffffffffffffff1673ffffffffffffffffffffffffffffffffffffffff1673ffffffffffffffffffffffffffffffffffffffff16815260200190815260200160002060405180606001604052908160008201805480602002602001604051908101604052809291908181526020016000905b8282101561096657838290600052602060002090601b020160405180610200016040529081600082015481526020016001820160009054906101000a900473ffffffffffffffffffffffffffffffffffffffff1673ffffffffffffffffffffffffffffffffffffffff1673ffffffffffffffffffffffffffffffffffffffff1681526020016002820160009054906101000a900473ffffffffffffffffffffffffffffffffffffffff1673ffffffffffffffffffffffffffffffffffffffff1673ffffffffffffffffffffffffffffffffffffffff1681526020016002820160149054906101000a900460ff1660018111156106b357fe5b60018111156106be57fe5b81526020016002820160159054906101000a900460ff1660028111156106e057fe5b60028111156106eb57fe5b81526020016002820160169054906101000a900460ff16600581111561070d57fe5b600581111561071857fe5b8152602001600382015481526020016004820154815260200160058201548152602001600682015481526020016007820160405180608001604052908160008201600580602002604051908101604052809291908260058015610790576020028201915b81548152602001906001019080831161077c575b50505050508152602001600582016005806020026040519081016040528092919082600580156107d5576020028201915b8154815260200190600101908083116107c1575b50505050508152602001600a820160058060200260405190810160405280929190826005801561081a576020028201915b815481526020019060010190808311610806575b50505050508152602001600f8201600580602002604051908101604052809291908260058015610884576020028201916000905b82829054906101000a900460ff1615158152602001906001019060208260000104928301926001038202915080841161084e5790505b5050505050815250508152602001601782016005806020026040519081016040528092919082600580156108f2576020028201916000905b82829054906101000a900460ff161515815260200190600101906020826000010492830192600103820291508084116108bc5790505b505050505081526020016018820154815260200160198201548152602001601a820160009054906101000a900460ff16151515158152602001601a820160019054906101000a900460ff16600581111561094857fe5b600581111561095357fe5b81525050815260200190600101906105bb565b505050508152602001600182015481526020016002820160009054906101000a900460ff16151515158152505082828151811061099f57fe5b60200260200101819052508080600101915050610508565b508091505090565b6000605560008373ffffffffffffffffffffffffffffffffffffffff1673ffffffffffffffffffffffffffffffffffffffff168152602001908152602001600020600001905060005b8180549050811015610a4357610a36828281548110610a2357fe5b90600052602060002090601b0201611a60565b8080600101915050610a08565b505050565b610a50612016565b605560008373ffffffffffffffffffffffffffffffffffffffff1673ffffffffffffffffffffffffffffffffffffffff16815260200190815260200160002060405180606001604052908160008201805480602002602001604051908101604052809291908181526020016000905b82821015610e6a57838290600052602060002090601b020160405180610200016040529081600082015481526020016001820160009054906101000a900473ffffffffffffffffffffffffffffffffffffffff1673ffffffffffffffffffffffffffffffffffffffff1673ffffffffffffffffffffffffffffffffffffffff1681526020016002820160009054906101000a900473ffffffffffffffffffffffffffffffffffffffff1673ffffffffffffffffffffffffffffffffffffffff1673ffffffffffffffffffffffffffffffffffffffff1681526020016002820160149054906101000a900460ff166001811115610bb757fe5b6001811115610bc257fe5b81526020016002820160159054906101000a900460ff166002811115610be457fe5b6002811115610bef57fe5b81526020016002820160169054906101000a900460ff166005811115610c1157fe5b6005811115610c1c57fe5b8152602001600382015481526020016004820154815260200160058201548152602001600682015481526020016007820160405180608001604052908160008201600580602002604051908101604052809291908260058015610c94576020028201915b815481526020019060010190808311610c80575b5050505050815260200160058201600580602002604051908101604052809291908260058015610cd9576020028201915b815481526020019060010190808311610cc5575b50505050508152602001600a8201600580602002604051908101604052809291908260058015610d1e576020028201915b815481526020019060010190808311610d0a575b50505050508152602001600f8201600580602002604051908101604052809291908260058015610d88576020028201916000905b82829054906101000a900460ff16151581526020019060010190602082600001049283019260010382029150808411610d525790505b505050505081525050815260200160178201600580602002604051908101604052809291908260058015610df6576020028201916000905b82829054906101000a900460ff16151581526020019060010190602082600001049283019260010382029150808411610dc05790505b505050505081526020016018820154815260200160198201548152602001601a820160009054906101000a900460ff16151515158152602001601a820160019054906101000a900460ff166005811115610e4c57fe5b6005811115610e5757fe5b8152505081526020019060010190610abf565b505050508152602001600182015481526020016002820160009054906101000a900460ff1615151515815250509050919050565b610ea6612039565b605560003373ffffffffffffffffffffffffffffffffffffffff1673ffffffffffffffffffffffffffffffffffffffff16815260200190815260200160002060020160009054906101000a900460ff16610f35576040517f08c379a0000000000000000000000000000000000000000000000000000000008152600401610f2c90613640565b60405180910390fd5b610f3d612016565b610f4633610a48565b905080600001518381518110610f5857fe5b6020026020010151915050919050565b60006048846005811115610f7857fe5b60068110610f8257fe5b01549050610f8e61211c565b602a856005811115610f9c57fe5b60068110610fa657fe5b60050201600580602002604051908101604052809291908260058015610fe1576020028201915b815481526020019060010190808311610fcd575b5050505050905060005b828110156110dd57621275004283836005811061100457fe5b6020020151010387610140015160000151826005811061102057fe5b6020020181815250504282826005811061103657fe5b60200201510187610140015160200151826005811061105157fe5b60200201818152505061271080600688600581111561106c57fe5b6006811061107657fe5b0154868802028161108357fe5b048161108b57fe5b048761014001516040015182600581106110a157fe5b60200201818152505060008761014001516060015182600581106110c157fe5b6020020190151590811515815250508080600101915050610feb565b50505050505050565b3373ffffffffffffffffffffffffffffffffffffffff168573ffffffffffffffffffffffffffffffffffffffff161415611155576040517f08c379a000000000000000000000000000000000000000000000000000000000815260040161114c90613620565b60405180910390fd5b6000600181111561116257fe5b84600181111561116e57fe5b141561120657605960009054906101000a900473ffffffffffffffffffffffffffffffffffffffff1673ffffffffffffffffffffffffffffffffffffffff166331f652db8483336040518463ffffffff1660e01b81526004016111d393929190613596565b600060405180830381600087803b1580156111ed57600080fd5b505af1158015611201573d6000803e3d6000fd5b505050505b60018081111561121257fe5b84600181111561121e57fe5b14156112b657605960009054906101000a900473ffffffffffffffffffffffffffffffffffffffff1673ffffffffffffffffffffffffffffffffffffffff166331f652db8483886040518463ffffffff1660e01b81526004016112839392919061355f565b600060405180830381600087803b15801561129d57600080fd5b505af11580156112b1573d6000803e3d6000fd5b505050505b6000605760009054906101000a900473ffffffffffffffffffffffffffffffffffffffff1673ffffffffffffffffffffffffffffffffffffffff1663524bc34a87878787876040518663ffffffff1660e01b815260040161131b95949392919061341b565b602060405180830381600087803b15801561133557600080fd5b505af1158015611349573d6000803e3d6000fd5b505050506040513d601f19601f8201168201806040525081019061136d9190612b7b565b90506000605560008873ffffffffffffffffffffffffffffffffffffffff1673ffffffffffffffffffffffffffffffffffffffff16815260200190815260200160002090506113ba61213e565b6040518060a001604052808973ffffffffffffffffffffffffffffffffffffffff1681526020018860018111156113ed57fe5b81526020018760028111156113fe57fe5b815260200186600581111561140f57fe5b8152602001858152509050611422612039565b61143f828585600101600081548092919060010191905055611cb7565b9050826000018190806001815401808255809150506001900390600052602060002090601b02016000909190919091506000820151816000015560208201518160010160006101000a81548173ffffffffffffffffffffffffffffffffffffffff021916908373ffffffffffffffffffffffffffffffffffffffff16021790555060408201518160020160006101000a81548173ffffffffffffffffffffffffffffffffffffffff021916908373ffffffffffffffffffffffffffffffffffffffff16021790555060608201518160020160146101000a81548160ff0219169083600181111561152b57fe5b021790555060808201518160020160156101000a81548160ff0219169083600281111561155457fe5b021790555060a08201518160020160166101000a81548160ff0219169083600581111561157d57fe5b021790555060c0820151816003015560e0820151816004015561010082015181600501556101208201518160060155610140820151816007016000820151816000019060056115cd9291906121a4565b506020820151816005019060056115e59291906121a4565b50604082015181600a019060056115fd9291906121a4565b50606082015181600f019060056116159291906121e4565b505050610160820151816017019060056116309291906121e4565b5061018082015181601801556101a082015181601901556101c082015181601a0160006101000a81548160ff0219169083151502179055506101e082015181601a0160016101000a81548160ff0219169083600581111561168d57fe5b0217905550505060018360020160006101000a81548160ff0219169083151502179055506056339080600181540180825580915050600190039060005260206000200160009091909190916101000a81548173ffffffffffffffffffffffffffffffffffffffff021916908373ffffffffffffffffffffffffffffffffffffffff1602179055507f787a470148c364ff9c70e82b2c6c1b0becbca7969011737f1f93ce9307b424e9898989898986600001516040516117519695949392919061346e565b60405180910390a1505050505050505050565b6000600181111561177157fe5b85600181111561177d57fe5b1415611802578573ffffffffffffffffffffffffffffffffffffffff163373ffffffffffffffffffffffffffffffffffffffff16146117f1576040517f08c379a00000000000000000000000000000000000000000000000000000000081526004016117e890613680565b60405180910390fd5b6117fd87878385610255565b61187d565b8673ffffffffffffffffffffffffffffffffffffffff163373ffffffffffffffffffffffffffffffffffffffff1614611870576040517f08c379a0000000000000000000000000000000000000000000000000000000008152600401611867906136a0565b60405180910390fd5b61187c87878385610255565b5b8573ffffffffffffffffffffffffffffffffffffffff168773ffffffffffffffffffffffffffffffffffffffff167f52f2cbddb551a0cd4ad65095542b2efd13cd261642f4034c3b0c01b232c2591d87878787876040516118e29594939291906135cd565b60405180910390a350505050505050565b565b60005b6056805490508110156119cf576000605560006056848154811061191857fe5b9060005260206000200160009054906101000a900473ffffffffffffffffffffffffffffffffffffffff1673ffffffffffffffffffffffffffffffffffffffff1673ffffffffffffffffffffffffffffffffffffffff168152602001908152602001600020600001905060005b81805490508110156119c0576119b38282815481106119a057fe5b90600052602060002090601b0201611a60565b8080600101915050611985565b505080806001019150506118f8565b50565b60606056805480602002602001604051908101604052809291908181526020018280548015611a5657602002820191906000526020600020905b8160009054906101000a900473ffffffffffffffffffffffffffffffffffffffff1673ffffffffffffffffffffffffffffffffffffffff1681526020019060010190808311611a0c575b5050505050905090565b611a6861227d565b605760009054906101000a900473ffffffffffffffffffffffffffffffffffffffff1673ffffffffffffffffffffffffffffffffffffffff1663069fa00c6040518163ffffffff1660e01b81526004016102a06040518083038186803b158015611ad157600080fd5b505afa158015611ae5573d6000803e3d6000fd5b505050506040513d601f19601f82011682018060405250810190611b099190612a46565b9050611b136122aa565b818360020160159054906101000a900460ff166002811115611b3157fe5b60038110611b3b57fe5b60200201519050611b4a6122e7565b6040518060e0016040528083600001518152602001836020015181526020018360400151815260200183606001518152602001836080015181526020018360a0015181526020018360c001518152509050611ba361211c565b6000805b60488760020160169054906101000a900460ff166005811115611bc657fe5b60068110611bd057fe5b0154811015611c43576000611bf885896007016005018460058110611bf157fe5b0154611ec8565b905080848360058110611c0757fe5b6020020181815250506127108189600701600a018460058110611c2657fe5b01540281611c3057fe5b0483019250508080600101915050611ba7565b506000600160488860020160169054906101000a900460ff166005811115611c6757fe5b60068110611c7157fe5b0154039050612710838260058110611c8557fe5b602002015188600301540281611c9757fe5b048201915081876018018190555042876019018190555050505050505050565b611cbf612039565b611cc7612039565b8281600001818152505060006001811115611cde57fe5b85602001516001811115611cee57fe5b14611cf95733611cff565b84600001515b816020019073ffffffffffffffffffffffffffffffffffffffff16908173ffffffffffffffffffffffffffffffffffffffff1681525050600180811115611d4257fe5b85602001516001811115611d5257fe5b14611d5d5733611d63565b84600001515b816040019073ffffffffffffffffffffffffffffffffffffffff16908173ffffffffffffffffffffffffffffffffffffffff1681525050846020015181606001906001811115611daf57fe5b90816001811115611dbc57fe5b81525050846040015181608001906002811115611dd557fe5b90816002811115611de257fe5b8152505084606001518160a001906005811115611dfb57fe5b90816005811115611e0857fe5b8152505084608001518160c0018181525050838160e00181815250504281610100018181525050600085606001516005811115611e4157fe5b60068110611e4b57fe5b0154420181610120018181525050611e6d818660600151876080015187610f68565b84608001518161018001818152505042816101a00181815250506001816101c00190151590811515815250506000816101e001906005811115611eac57fe5b90816005811115611eb957fe5b81525050809150509392505050565b6000428211611eda5760009050612010565b60004283039050604e600060078110611eef57fe5b01548111611f2b57604e600060078110611f0557fe5b01548185600060078110611f1557fe5b60200201510281611f2257fe5b04915050612010565b6000600190505b600781101561200d5781604e6001830360078110611f4c57fe5b0154108015611f695750604e8160078110611f6357fe5b01548211155b15612000576000604e6001830360078110611f8057fe5b015483039050600083604e8460078110611f9657fe5b01540390506000604e6001850360078110611fad57fe5b0154604e8560078110611fbc57fe5b01540390508083898660078110611fcf57fe5b602002015102838a6001880360078110611fe557fe5b6020020151020181611ff357fe5b0495505050505050612010565b8080600101915050611f32565b50505b92915050565b604051806060016040528060608152602001600081526020016000151581525090565b60405180610200016040528060008152602001600073ffffffffffffffffffffffffffffffffffffffff168152602001600073ffffffffffffffffffffffffffffffffffffffff1681526020016000600181111561209357fe5b8152602001600060028111156120a557fe5b8152602001600060058111156120b757fe5b8152602001600081526020016000815260200160008152602001600081526020016120e0612309565b81526020016120ed612349565b815260200160008152602001600081526020016000151581526020016000600581111561211657fe5b81525090565b6040518060a00160405280600590602082028036833780820191505090505090565b6040518060a00160405280600073ffffffffffffffffffffffffffffffffffffffff1681526020016000600181111561217357fe5b81526020016000600281111561218557fe5b81526020016000600581111561219757fe5b8152602001600081525090565b82600581019282156121d3579160200282015b828111156121d25782518255916020019190600101906121b7565b5b5090506121e0919061236b565b5090565b826005601f0160209004810192821561226c5791602002820160005b8382111561223d57835183826101000a81548160ff0219169083151502179055509260200192600101602081600001049283019260010302612200565b801561226a5782816101000a81549060ff021916905560010160208160000104928301926001030261223d565b505b5090506122799190612388565b5090565b60405180606001604052806003905b6122946122aa565b81526020019060019003908161228c5790505090565b6040518060e00160405280600081526020016000815260200160008152602001600081526020016000815260200160008152602001600081525090565b6040518060e00160405280600790602082028036833780820191505090505090565b604051806080016040528061231c61211c565b815260200161232961211c565b815260200161233661211c565b8152602001612343612349565b81525090565b6040518060a00160405280600590602082028036833780820191505090505090565b5b8082111561238457600081600090555060010161236c565b5090565b5b808211156123ac57600081816101000a81549060ff021916905550600101612389565b5090565b6000813590506123bf81613a97565b92915050565b600082601f8301126123d657600080fd5b60056123e96123e48261374b565b61371e565b915081838560208402820111156123ff57600080fd5b60005b8381101561242f57816124158882612521565b845260208401935060208301925050600181019050612402565b5050505092915050565b600082601f83011261244a57600080fd5b600361245d6124588261376d565b61371e565b915081838560e084028201111561247357600080fd5b60005b838110156124a3578161248988826125de565b845260208401935060e08301925050600181019050612476565b5050505092915050565b600082601f8301126124be57600080fd5b60056124d16124cc8261378f565b61371e565b915081838560208402820111156124e757600080fd5b60005b8381101561251757816124fd888261287b565b8452602084019350602083019250506001810190506124ea565b5050505092915050565b60008135905061253081613aae565b92915050565b60008135905061254581613ac5565b92915050565b60008135905061255a81613ad5565b92915050565b60008135905061256f81613ae5565b92915050565b60008135905061258481613af5565b92915050565b600082601f83011261259b57600080fd5b81356125ae6125a9826137b1565b61371e565b915080825260208301602083018583830111156125ca57600080fd5b6125d5838284613a10565b50505092915050565b600060e082840312156125f057600080fd5b6125fa60e061371e565b9050600061260a84828501612890565b600083015250602061261e84828501612890565b602083015250604061263284828501612890565b604083015250606061264684828501612890565b606083015250608061265a84828501612890565b60808301525060a061266e84828501612890565b60a08301525060c061268284828501612890565b60c08301525092915050565b60006104e082840312156126a157600080fd5b6126ac61020061371e565b905060006126bc8482850161287b565b60008301525060206126d0848285016123b0565b60208301525060406126e4848285016123b0565b60408301525060606126f88482850161254b565b606083015250608061270c84828501612536565b60808301525060a061272084828501612575565b60a08301525060c06127348482850161287b565b60c08301525060e06127488482850161287b565b60e08301525061010061275d8482850161287b565b610100830152506101206127738482850161287b565b6101208301525061014061278984828501612804565b610140830152506103c061279f848285016123c5565b610160830152506104606127b58482850161287b565b610180830152506104806127cb8482850161287b565b6101a0830152506104a06127e184828501612521565b6101c0830152506104c06127f784828501612560565b6101e08301525092915050565b6000610280828403121561281757600080fd5b612821608061371e565b90506000612831848285016124ad565b60008301525060a0612845848285016124ad565b60208301525061014061285a848285016124ad565b6040830152506101e061286f848285016123c5565b60608301525092915050565b60008135905061288a81613b05565b92915050565b60008151905061289f81613b05565b92915050565b6000602082840312156128b757600080fd5b60006128c5848285016123b0565b91505092915050565b600080600080600080600060e0888a0312156128e957600080fd5b60006128f78a828b016123b0565b97505060206129088a828b016123b0565b96505060406129198a828b0161254b565b955050606061292a8a828b01612536565b945050608061293b8a828b0161287b565b93505060a061294c8a828b0161287b565b92505060c061295d8a828b0161287b565b91505092959891949750929550565b6000806000806080858703121561298257600080fd5b6000612990878288016123b0565b94505060206129a1878288016123b0565b93505060406129b28782880161287b565b92505060606129c38782880161287b565b91505092959194509250565b600080600080600060a086880312156129e757600080fd5b60006129f5888289016123b0565b9550506020612a068882890161254b565b9450506040612a1788828901612536565b9350506060612a2888828901612575565b9250506080612a398882890161287b565b9150509295509295909350565b60006102a08284031215612a5957600080fd5b6000612a6784828501612439565b91505092915050565b60008060008060808587031215612a8657600080fd5b6000612a9487828801612536565b9450506020612aa5878288016123b0565b9350506040612ab68782880161287b565b925050606085013567ffffffffffffffff811115612ad357600080fd5b612adf8782880161258a565b91505092959194509250565b6000806000806105408587031215612b0257600080fd5b6000612b108782880161268e565b9450506104e0612b2287828801612575565b935050610500612b348782880161287b565b925050610520612b468782880161287b565b91505092959194509250565b600060208284031215612b6457600080fd5b6000612b728482850161287b565b91505092915050565b600060208284031215612b8d57600080fd5b6000612b9b84828501612890565b91505092915050565b6000612bb08383612c28565b60208301905092915050565b6000612bc88383612e25565b60208301905092915050565b6000612be08383613056565b905092915050565b6000612bf483836130f6565b6104e08301905092915050565b6000612c0d83836133e2565b60208301905092915050565b612c2281613992565b82525050565b612c31816138fe565b82525050565b612c40816138fe565b82525050565b6000612c5182613821565b612c5b81856138a4565b9350612c66836137dd565b8060005b83811015612c97578151612c7e8882612ba4565b9750612c8983613863565b925050600181019050612c6a565b5085935050505092915050565b612cad8161382c565b612cb781846138b5565b9250612cc2826137ed565b8060005b83811015612cf3578151612cda8782612bbc565b9650612ce583613870565b925050600181019050612cc6565b505050505050565b6000612d0682613837565b612d1081856138c0565b935083602082028501612d22856137f7565b8060005b85811015612d5e5784840389528151612d3f8582612bd4565b9450612d4a8361387d565b925060208a01995050600181019050612d26565b50829750879550505050505092915050565b6000612d7b82613842565b612d8581856138d1565b9350612d9083613807565b8060005b83811015612dc1578151612da88882612be8565b9750612db38361388a565b925050600181019050612d94565b5085935050505092915050565b612dd78161384d565b612de181846138e2565b9250612dec82613817565b8060005b83811015612e1d578151612e048782612c01565b9650612e0f83613897565b925050600181019050612df0565b505050505050565b612e2e81613910565b82525050565b612e3d816139a4565b82525050565b612e4c816139a4565b82525050565b612e5b816139b6565b82525050565b612e6a816139b6565b82525050565b612e79816139c8565b82525050565b612e88816139da565b82525050565b612e97816139da565b82525050565b6000612ea882613858565b612eb281856138ed565b9350612ec2818560208601613a1f565b612ecb81613a52565b840191505092915050565b6000612ee3601f836138ed565b91507f53616d6520706572736f6e206465616c206973206e6f7420616c6c6f776564006000830152602082019050919050565b6000612f236012836138ed565b91507f6e6f206c6f616e206974656d20666f756e6400000000000000000000000000006000830152602082019050919050565b6000612f636018836138ed565b91507f636f6e6669726d20616d6f756e74206e6f74206d6174636800000000000000006000830152602082019050919050565b6000612fa3601a836138ed565b91507f6d73672e73656e646572206973206e6f7420626f72726f7765720000000000006000830152602082019050919050565b6000612fe36018836138ed565b91507f6d73672e73656e646572206973206e6f74206c656e64657200000000000000006000830152602082019050919050565b60006130236015836138ed565b91507f626f72726f776572206d75737420636f6e6669726d00000000000000000000006000830152602082019050919050565b600060608301600083015184820360008601526130738282612d70565b915050602083015161308860208601826133e2565b50604083015161309b6040860182612e25565b508091505092915050565b600060608301600083015184820360008601526130c38282612d70565b91505060208301516130d860208601826133e2565b5060408301516130eb6040860182612e25565b508091505092915050565b6104e08201600082015161310d60008501826133e2565b5060208201516131206020850182612c28565b5060408201516131336040850182612c28565b5060608201516131466060850182612e52565b5060808201516131596080850182612e34565b5060a082015161316c60a0850182612e7f565b5060c082015161317f60c08501826133e2565b5060e082015161319260e08501826133e2565b506101008201516131a76101008501826133e2565b506101208201516131bc6101208501826133e2565b506101408201516131d161014085018261338a565b506101608201516131e66103c0850182612ca4565b506101808201516131fb6104608501826133e2565b506101a08201516132106104808501826133e2565b506101c08201516132256104a0850182612e25565b506101e082015161323a6104c0850182612e70565b50505050565b6104e08201600082015161325760008501826133e2565b50602082015161326a6020850182612c28565b50604082015161327d6040850182612c28565b5060608201516132906060850182612e52565b5060808201516132a36080850182612e34565b5060a08201516132b660a0850182612e7f565b5060c08201516132c960c08501826133e2565b5060e08201516132dc60e08501826133e2565b506101008201516132f16101008501826133e2565b506101208201516133066101208501826133e2565b5061014082015161331b61014085018261338a565b506101608201516133306103c0850182612ca4565b506101808201516133456104608501826133e2565b506101a082015161335a6104808501826133e2565b506101c082015161336f6104a0850182612e25565b506101e08201516133846104c0850182612e70565b50505050565b610280820160008201516133a16000850182612dce565b5060208201516133b460a0850182612dce565b5060408201516133c8610140850182612dce565b5060608201516133dc6101e0850182612ca4565b50505050565b6133eb81613988565b82525050565b6133fa81613988565b82525050565b60006020820190506134156000830184612c37565b92915050565b600060a0820190506134306000830188612c37565b61343d6020830187612e61565b61344a6040830186612e43565b6134576060830185612e8e565b61346460808301846133f1565b9695505050505050565b600060c0820190506134836000830189612c37565b6134906020830188612e61565b61349d6040830187612e43565b6134aa6060830186612e8e565b6134b760808301856133f1565b6134c460a08301846133f1565b979650505050505050565b600060208201905081810360008301526134e98184612c46565b905092915050565b6000602082019050818103600083015261350b8184612cfb565b905092915050565b60006080820190506135286000830187612e43565b6135356020830186612c19565b6135426040830185612c37565b81810360608301526135548184612e9d565b905095945050505050565b60006060820190506135746000830186612e43565b61358160208301856133f1565b61358e6040830184612c37565b949350505050565b60006060820190506135ab6000830186612e43565b6135b860208301856133f1565b6135c56040830184612c19565b949350505050565b600060a0820190506135e26000830188612e61565b6135ef6020830187612e43565b6135fc60408301866133f1565b61360960608301856133f1565b61361660808301846133f1565b9695505050505050565b6000602082019050818103600083015261363981612ed6565b9050919050565b6000602082019050818103600083015261365981612f16565b9050919050565b6000602082019050818103600083015261367981612f56565b9050919050565b6000602082019050818103600083015261369981612f96565b9050919050565b600060208201905081810360008301526136b981612fd6565b9050919050565b600060208201905081810360008301526136d981613016565b9050919050565b600060208201905081810360008301526136fa81846130a6565b905092915050565b60006104e0820190506137186000830184613240565b92915050565b6000604051905081810181811067ffffffffffffffff8211171561374157600080fd5b8060405250919050565b600067ffffffffffffffff82111561376257600080fd5b602082029050919050565b600067ffffffffffffffff82111561378457600080fd5b602082029050919050565b600067ffffffffffffffff8211156137a657600080fd5b602082029050919050565b600067ffffffffffffffff8211156137c857600080fd5b601f19601f8301169050602081019050919050565b6000819050602082019050919050565b6000819050919050565b6000819050602082019050919050565b6000819050602082019050919050565b6000819050919050565b600081519050919050565b600060059050919050565b600081519050919050565b600081519050919050565b600060059050919050565b600081519050919050565b6000602082019050919050565b6000602082019050919050565b6000602082019050919050565b6000602082019050919050565b6000602082019050919050565b600082825260208201905092915050565b600081905092915050565b600082825260208201905092915050565b600082825260208201905092915050565b600081905092915050565b600082825260208201905092915050565b600061390982613968565b9050919050565b60008115159050919050565b600081905061392a82613a63565b919050565b600081905061393d82613a70565b919050565b600081905061395082613a7d565b919050565b600081905061396382613a8a565b919050565b600073ffffffffffffffffffffffffffffffffffffffff82169050919050565b6000819050919050565b600061399d826139ec565b9050919050565b60006139af8261391c565b9050919050565b60006139c18261392f565b9050919050565b60006139d382613942565b9050919050565b60006139e582613955565b9050919050565b60006139f7826139fe565b9050919050565b6000613a0982613968565b9050919050565b82818337600083830152505050565b60005b83811015613a3d578082015181840152602081019050613a22565b83811115613a4c576000848401525b50505050565b6000601f19601f8301169050919050565b60038110613a6d57fe5b50565b60028110613a7a57fe5b50565b60068110613a8757fe5b50565b60068110613a9457fe5b50565b613aa0816138fe565b8114613aab57600080fd5b50565b613ab781613910565b8114613ac257600080fd5b50565b60038110613ad257600080fd5b50565b60028110613ae257600080fd5b50565b60068110613af257600080fd5b50565b60068110613b0257600080fd5b50565b613b0e81613988565b8114613b1957600080fd5b5056fea2646970667358221220abc6a7d22196985527a99ae499b168fb6408fa710d1f3430026ecc3bd9b52c9a64736f6c634300060c0033",
			"opcodes": "PUSH1 0x80 PUSH1 0x40 MSTORE PUSH1 0x40 MLOAD DUP1 PUSH1 0xC0 ADD PUSH1 0x40 MSTORE DUP1 PUSH3 0x76A700 PUSH4 0xFFFFFFFF AND DUP2 MSTORE PUSH1 0x20 ADD PUSH3 0xED4E00 PUSH4 0xFFFFFFFF AND DUP2 MSTORE PUSH1 0x20 ADD PUSH4 0x1E13380 PUSH4 0xFFFFFFFF AND DUP2 MSTORE PUSH1 0x20 ADD PUSH4 0x3C26700 PUSH4 0xFFFFFFFF AND DUP2 MSTORE PUSH1 0x20 ADD PUSH4 0x5A39A80 PUSH4 0xFFFFFFFF AND DUP2 MSTORE PUSH1 0x20 ADD PUSH4 0x9660180 PUSH4 0xFFFFFFFF AND DUP2 MSTORE POP PUSH1 0x0 SWAP1 PUSH1 0x6 PUSH3 0x7D SWAP3 SWAP2 SWAP1 PUSH3 0x600 JUMP JUMPDEST POP PUSH1 0x40 MLOAD DUP1 PUSH1 0xC0 ADD PUSH1 0x40 MSTORE DUP1 PUSH2 0x168 PUSH1 0x5A PUSH2 0x2710 MUL DUP2 PUSH3 0x9A JUMPI INVALID JUMPDEST DIV DUP2 MSTORE PUSH1 0x20 ADD PUSH2 0x168 PUSH1 0xB4 PUSH2 0x2710 MUL DUP2 PUSH3 0xB1 JUMPI INVALID JUMPDEST DIV DUP2 MSTORE PUSH1 0x20 ADD PUSH1 0x1 PUSH2 0x2710 MUL DUP2 MSTORE PUSH1 0x20 ADD PUSH1 0x1 PUSH2 0x2710 MUL DUP2 MSTORE PUSH1 0x20 ADD PUSH1 0x1 PUSH2 0x2710 MUL DUP2 MSTORE PUSH1 0x20 ADD PUSH1 0x1 PUSH2 0x2710 MUL DUP2 MSTORE POP PUSH1 0x6 SWAP1 PUSH1 0x6 PUSH3 0xF3 SWAP3 SWAP2 SWAP1 PUSH3 0x64D JUMP JUMPDEST POP PUSH1 0x40 MLOAD DUP1 PUSH1 0x20 ADD PUSH1 0x40 MSTORE DUP1 PUSH3 0x76A700 PUSH3 0xFFFFFF AND DUP2 MSTORE POP PUSH1 0xC SWAP1 PUSH1 0x1 PUSH3 0x11D SWAP3 SWAP2 SWAP1 PUSH3 0x692 JUMP JUMPDEST POP PUSH1 0x40 MLOAD DUP1 PUSH1 0x20 ADD PUSH1 0x40 MSTORE DUP1 PUSH3 0xED4E00 PUSH3 0xFFFFFF AND DUP2 MSTORE POP PUSH1 0x11 SWAP1 PUSH1 0x1 PUSH3 0x147 SWAP3 SWAP2 SWAP1 PUSH3 0x692 JUMP JUMPDEST POP PUSH1 0x40 MLOAD DUP1 PUSH1 0x20 ADD PUSH1 0x40 MSTORE DUP1 PUSH4 0x1E13380 PUSH4 0xFFFFFFFF AND DUP2 MSTORE POP PUSH1 0x16 SWAP1 PUSH1 0x1 PUSH3 0x173 SWAP3 SWAP2 SWAP1 PUSH3 0x6DE JUMP JUMPDEST POP PUSH1 0x40 MLOAD DUP1 PUSH1 0x40 ADD PUSH1 0x40 MSTORE DUP1 PUSH4 0x1E13380 PUSH4 0xFFFFFFFF AND DUP2 MSTORE PUSH1 0x20 ADD PUSH4 0x3C26700 PUSH4 0xFFFFFFFF AND DUP2 MSTORE POP PUSH1 0x1B SWAP1 PUSH1 0x2 PUSH3 0x1AF SWAP3 SWAP2 SWAP1 PUSH3 0x72B JUMP JUMPDEST POP PUSH1 0x40 MLOAD DUP1 PUSH1 0x60 ADD PUSH1 0x40 MSTORE DUP1 PUSH4 0x1E13380 PUSH4 0xFFFFFFFF AND DUP2 MSTORE PUSH1 0x20 ADD PUSH4 0x3C26700 PUSH4 0xFFFFFFFF AND DUP2 MSTORE PUSH1 0x20 ADD PUSH4 0x5A39A80 PUSH4 0xFFFFFFFF AND DUP2 MSTORE POP PUSH1 0x20 SWAP1 PUSH1 0x3 PUSH3 0x1FB SWAP3 SWAP2 SWAP1 PUSH3 0x778 JUMP JUMPDEST POP PUSH1 0x40 MLOAD DUP1 PUSH1 0xA0 ADD PUSH1 0x40 MSTORE DUP1 PUSH4 0x1E13380 PUSH4 0xFFFFFFFF AND DUP2 MSTORE PUSH1 0x20 ADD PUSH4 0x3C26700 PUSH4 0xFFFFFFFF AND DUP2 MSTORE PUSH1 0x20 ADD PUSH4 0x5A39A80 PUSH4 0xFFFFFFFF AND DUP2 MSTORE PUSH1 0x20 ADD PUSH4 0x784CE00 PUSH4 0xFFFFFFFF AND DUP2 MSTORE PUSH1 0x20 ADD PUSH4 0x9660180 PUSH4 0xFFFFFFFF AND DUP2 MSTORE POP PUSH1 0x25 SWAP1 PUSH1 0x5 PUSH3 0x267 SWAP3 SWAP2 SWAP1 PUSH3 0x7C5 JUMP JUMPDEST POP PUSH1 0x40 MLOAD DUP1 PUSH1 0xC0 ADD PUSH1 0x40 MSTORE DUP1 PUSH1 0xC PUSH1 0x5 DUP1 PUSH1 0x20 MUL PUSH1 0x40 MLOAD SWAP1 DUP2 ADD PUSH1 0x40 MSTORE DUP1 SWAP3 SWAP2 SWAP1 DUP3 PUSH1 0x5 DUP1 ISZERO PUSH3 0x2AE JUMPI PUSH1 0x20 MUL DUP3 ADD SWAP2 JUMPDEST DUP2 SLOAD DUP2 MSTORE PUSH1 0x20 ADD SWAP1 PUSH1 0x1 ADD SWAP1 DUP1 DUP4 GT PUSH3 0x299 JUMPI JUMPDEST POP POP POP POP POP DUP2 MSTORE PUSH1 0x20 ADD PUSH1 0x11 PUSH1 0x5 DUP1 PUSH1 0x20 MUL PUSH1 0x40 MLOAD SWAP1 DUP2 ADD PUSH1 0x40 MSTORE DUP1 SWAP3 SWAP2 SWAP1 DUP3 PUSH1 0x5 DUP1 ISZERO PUSH3 0x2F3 JUMPI PUSH1 0x20 MUL DUP3 ADD SWAP2 JUMPDEST DUP2 SLOAD DUP2 MSTORE PUSH1 0x20 ADD SWAP1 PUSH1 0x1 ADD SWAP1 DUP1 DUP4 GT PUSH3 0x2DE JUMPI JUMPDEST POP POP POP POP POP DUP2 MSTORE PUSH1 0x20 ADD PUSH1 0x16 PUSH1 0x5 DUP1 PUSH1 0x20 MUL PUSH1 0x40 MLOAD SWAP1 DUP2 ADD PUSH1 0x40 MSTORE DUP1 SWAP3 SWAP2 SWAP1 DUP3 PUSH1 0x5 DUP1 ISZERO PUSH3 0x338 JUMPI PUSH1 0x20 MUL DUP3 ADD SWAP2 JUMPDEST DUP2 SLOAD DUP2 MSTORE PUSH1 0x20 ADD SWAP1 PUSH1 0x1 ADD SWAP1 DUP1 DUP4 GT PUSH3 0x323 JUMPI JUMPDEST POP POP POP POP POP DUP2 MSTORE PUSH1 0x20 ADD PUSH1 0x1B PUSH1 0x5 DUP1 PUSH1 0x20 MUL PUSH1 0x40 MLOAD SWAP1 DUP2 ADD PUSH1 0x40 MSTORE DUP1 SWAP3 SWAP2 SWAP1 DUP3 PUSH1 0x5 DUP1 ISZERO PUSH3 0x37D JUMPI PUSH1 0x20 MUL DUP3 ADD SWAP2 JUMPDEST DUP2 SLOAD DUP2 MSTORE PUSH1 0x20 ADD SWAP1 PUSH1 0x1 ADD SWAP1 DUP1 DUP4 GT PUSH3 0x368 JUMPI JUMPDEST POP POP POP POP POP DUP2 MSTORE PUSH1 0x20 ADD PUSH1 0x20 PUSH1 0x5 DUP1 PUSH1 0x20 MUL PUSH1 0x40 MLOAD SWAP1 DUP2 ADD PUSH1 0x40 MSTORE DUP1 SWAP3 SWAP2 SWAP1 DUP3 PUSH1 0x5 DUP1 ISZERO PUSH3 0x3C2 JUMPI PUSH1 0x20 MUL DUP3 ADD SWAP2 JUMPDEST DUP2 SLOAD DUP2 MSTORE PUSH1 0x20 ADD SWAP1 PUSH1 0x1 ADD SWAP1 DUP1 DUP4 GT PUSH3 0x3AD JUMPI JUMPDEST POP POP POP POP POP DUP2 MSTORE PUSH1 0x20 ADD PUSH1 0x25 PUSH1 0x5 DUP1 PUSH1 0x20 MUL PUSH1 0x40 MLOAD SWAP1 DUP2 ADD PUSH1 0x40 MSTORE DUP1 SWAP3 SWAP2 SWAP1 DUP3 PUSH1 0x5 DUP1 ISZERO PUSH3 0x407 JUMPI PUSH1 0x20 MUL DUP3 ADD SWAP2 JUMPDEST DUP2 SLOAD DUP2 MSTORE PUSH1 0x20 ADD SWAP1 PUSH1 0x1 ADD SWAP1 DUP1 DUP4 GT PUSH3 0x3F2 JUMPI JUMPDEST POP POP POP POP POP DUP2 MSTORE POP PUSH1 0x2A SWAP1 PUSH1 0x6 PUSH3 0x421 SWAP3 SWAP2 SWAP1 PUSH3 0x812 JUMP JUMPDEST POP PUSH1 0x40 MLOAD DUP1 PUSH1 0xC0 ADD PUSH1 0x40 MSTORE DUP1 PUSH1 0x1 DUP1 MUL DUP2 MSTORE PUSH1 0x20 ADD PUSH1 0x1 DUP1 MUL DUP2 MSTORE PUSH1 0x20 ADD PUSH1 0x1 DUP1 MUL DUP2 MSTORE PUSH1 0x20 ADD PUSH1 0x1 PUSH1 0x2 MUL DUP2 MSTORE PUSH1 0x20 ADD PUSH1 0x1 PUSH1 0x3 MUL DUP2 MSTORE PUSH1 0x20 ADD PUSH1 0x1 PUSH1 0x5 MUL DUP2 MSTORE POP PUSH1 0x48 SWAP1 PUSH1 0x6 PUSH3 0x476 SWAP3 SWAP2 SWAP1 PUSH3 0x64D JUMP JUMPDEST POP PUSH1 0x40 MLOAD DUP1 PUSH1 0xE0 ADD PUSH1 0x40 MSTORE DUP1 PUSH3 0x76A700 PUSH4 0xFFFFFFFF AND DUP2 MSTORE PUSH1 0x20 ADD PUSH3 0xED4E00 PUSH4 0xFFFFFFFF AND DUP2 MSTORE PUSH1 0x20 ADD PUSH4 0x1E13380 PUSH4 0xFFFFFFFF AND DUP2 MSTORE PUSH1 0x20 ADD PUSH4 0x3C26700 PUSH4 0xFFFFFFFF AND DUP2 MSTORE PUSH1 0x20 ADD PUSH4 0x5A39A80 PUSH4 0xFFFFFFFF AND DUP2 MSTORE PUSH1 0x20 ADD PUSH4 0x784CE00 PUSH4 0xFFFFFFFF AND DUP2 MSTORE PUSH1 0x20 ADD PUSH4 0x9660180 PUSH4 0xFFFFFFFF AND DUP2 MSTORE POP PUSH1 0x4E SWAP1 PUSH1 0x7 PUSH3 0x500 SWAP3 SWAP2 SWAP1 PUSH3 0x86A JUMP JUMPDEST POP CALLVALUE DUP1 ISZERO PUSH3 0x50E JUMPI PUSH1 0x0 DUP1 REVERT JUMPDEST POP PUSH1 0x40 MLOAD PUSH3 0x4583 CODESIZE SUB DUP1 PUSH3 0x4583 DUP4 CODECOPY DUP2 DUP2 ADD PUSH1 0x40 MSTORE DUP2 ADD SWAP1 PUSH3 0x534 SWAP2 SWAP1 PUSH3 0x97D JUMP JUMPDEST DUP3 PUSH1 0x57 PUSH1 0x0 PUSH2 0x100 EXP DUP2 SLOAD DUP2 PUSH20 0xFFFFFFFFFFFFFFFFFFFFFFFFFFFFFFFFFFFFFFFF MUL NOT AND SWAP1 DUP4 PUSH20 0xFFFFFFFFFFFFFFFFFFFFFFFFFFFFFFFFFFFFFFFF AND MUL OR SWAP1 SSTORE POP DUP2 PUSH1 0x58 PUSH1 0x0 PUSH2 0x100 EXP DUP2 SLOAD DUP2 PUSH20 0xFFFFFFFFFFFFFFFFFFFFFFFFFFFFFFFFFFFFFFFF MUL NOT AND SWAP1 DUP4 PUSH20 0xFFFFFFFFFFFFFFFFFFFFFFFFFFFFFFFFFFFFFFFF AND MUL OR SWAP1 SSTORE POP DUP1 PUSH1 0x59 PUSH1 0x0 PUSH2 0x100 EXP DUP2 SLOAD DUP2 PUSH20 0xFFFFFFFFFFFFFFFFFFFFFFFFFFFFFFFFFFFFFFFF MUL NOT AND SWAP1 DUP4 PUSH20 0xFFFFFFFFFFFFFFFFFFFFFFFFFFFFFFFFFFFFFFFF AND MUL OR SWAP1 SSTORE POP POP POP POP PUSH3 0xA21 JUMP JUMPDEST DUP3 PUSH1 0x6 DUP2 ADD SWAP3 DUP3 ISZERO PUSH3 0x63A JUMPI SWAP2 PUSH1 0x20 MUL DUP3 ADD JUMPDEST DUP3 DUP2 GT ISZERO PUSH3 0x639 JUMPI DUP3 MLOAD DUP3 SWAP1 PUSH4 0xFFFFFFFF AND SWAP1 SSTORE SWAP2 PUSH1 0x20 ADD SWAP2 SWAP1 PUSH1 0x1 ADD SWAP1 PUSH3 0x614 JUMP JUMPDEST JUMPDEST POP SWAP1 POP PUSH3 0x649 SWAP2 SWAP1 PUSH3 0x8B7 JUMP JUMPDEST POP SWAP1 JUMP JUMPDEST DUP3 PUSH1 0x6 DUP2 ADD SWAP3 DUP3 ISZERO PUSH3 0x67F JUMPI SWAP2 PUSH1 0x20 MUL DUP3 ADD JUMPDEST DUP3 DUP2 GT ISZERO PUSH3 0x67E JUMPI DUP3 MLOAD DUP3 SSTORE SWAP2 PUSH1 0x20 ADD SWAP2 SWAP1 PUSH1 0x1 ADD SWAP1 PUSH3 0x661 JUMP JUMPDEST JUMPDEST POP SWAP1 POP PUSH3 0x68E SWAP2 SWAP1 PUSH3 0x8B7 JUMP JUMPDEST POP SWAP1 JUMP JUMPDEST DUP3 PUSH1 0x5 DUP2 ADD SWAP3 DUP3 ISZERO PUSH3 0x6CB JUMPI SWAP2 PUSH1 0x20 MUL DUP3 ADD JUMPDEST DUP3 DUP2 GT ISZERO PUSH3 0x6CA JUMPI DUP3 MLOAD DUP3 SWAP1 PUSH3 0xFFFFFF AND SWAP1 SSTORE SWAP2 PUSH1 0x20 ADD SWAP2 SWAP1 PUSH1 0x1 ADD SWAP1 PUSH3 0x6A6 JUMP JUMPDEST JUMPDEST POP SWAP1 POP PUSH3 0x6DA SWAP2 SWAP1 PUSH3 0x8B7 JUMP JUMPDEST POP SWAP1 JUMP JUMPDEST DUP3 PUSH1 0x5 DUP2 ADD SWAP3 DUP3 ISZERO PUSH3 0x718 JUMPI SWAP2 PUSH1 0x20 MUL DUP3 ADD JUMPDEST DUP3 DUP2 GT ISZERO PUSH3 0x717 JUMPI DUP3 MLOAD DUP3 SWAP1 PUSH4 0xFFFFFFFF AND SWAP1 SSTORE SWAP2 PUSH1 0x20 ADD SWAP2 SWAP1 PUSH1 0x1 ADD SWAP1 PUSH3 0x6F2 JUMP JUMPDEST JUMPDEST POP SWAP1 POP PUSH3 0x727 SWAP2 SWAP1 PUSH3 0x8B7 JUMP JUMPDEST POP SWAP1 JUMP JUMPDEST DUP3 PUSH1 0x5 DUP2 ADD SWAP3 DUP3 ISZERO PUSH3 0x765 JUMPI SWAP2 PUSH1 0x20 MUL DUP3 ADD JUMPDEST DUP3 DUP2 GT ISZERO PUSH3 0x764 JUMPI DUP3 MLOAD DUP3 SWAP1 PUSH4 0xFFFFFFFF AND SWAP1 SSTORE SWAP2 PUSH1 0x20 ADD SWAP2 SWAP1 PUSH1 0x1 ADD SWAP1 PUSH3 0x73F JUMP JUMPDEST JUMPDEST POP SWAP1 POP PUSH3 0x774 SWAP2 SWAP1 PUSH3 0x8B7 JUMP JUMPDEST POP SWAP1 JUMP JUMPDEST DUP3 PUSH1 0x5 DUP2 ADD SWAP3 DUP3 ISZERO PUSH3 0x7B2 JUMPI SWAP2 PUSH1 0x20 MUL DUP3 ADD JUMPDEST DUP3 DUP2 GT ISZERO PUSH3 0x7B1 JUMPI DUP3 MLOAD DUP3 SWAP1 PUSH4 0xFFFFFFFF AND SWAP1 SSTORE SWAP2 PUSH1 0x20 ADD SWAP2 SWAP1 PUSH1 0x1 ADD SWAP1 PUSH3 0x78C JUMP JUMPDEST JUMPDEST POP SWAP1 POP PUSH3 0x7C1 SWAP2 SWAP1 PUSH3 0x8B7 JUMP JUMPDEST POP SWAP1 JUMP JUMPDEST DUP3 PUSH1 0x5 DUP2 ADD SWAP3 DUP3 ISZERO PUSH3 0x7FF JUMPI SWAP2 PUSH1 0x20 MUL DUP3 ADD JUMPDEST DUP3 DUP2 GT ISZERO PUSH3 0x7FE JUMPI DUP3 MLOAD DUP3 SWAP1 PUSH4 0xFFFFFFFF AND SWAP1 SSTORE SWAP2 PUSH1 0x20 ADD SWAP2 SWAP1 PUSH1 0x1 ADD SWAP1 PUSH3 0x7D9 JUMP JUMPDEST JUMPDEST POP SWAP1 POP PUSH3 0x80E SWAP2 SWAP1 PUSH3 0x8B7 JUMP JUMPDEST POP SWAP1 JUMP JUMPDEST DUP3 PUSH1 0x6 PUSH1 0x5 MUL DUP2 ADD SWAP3 DUP3 ISZERO PUSH3 0x857 JUMPI SWAP2 PUSH1 0x20 MUL DUP3 ADD JUMPDEST DUP3 DUP2 GT ISZERO PUSH3 0x856 JUMPI DUP3 MLOAD DUP3 SWAP1 PUSH1 0x5 PUSH3 0x845 SWAP3 SWAP2 SWAP1 PUSH3 0x8D6 JUMP JUMPDEST POP SWAP2 PUSH1 0x20 ADD SWAP2 SWAP1 PUSH1 0x5 ADD SWAP1 PUSH3 0x829 JUMP JUMPDEST JUMPDEST POP SWAP1 POP PUSH3 0x866 SWAP2 SWAP1 PUSH3 0x91B JUMP JUMPDEST POP SWAP1 JUMP JUMPDEST DUP3 PUSH1 0x7 DUP2 ADD SWAP3 DUP3 ISZERO PUSH3 0x8A4 JUMPI SWAP2 PUSH1 0x20 MUL DUP3 ADD JUMPDEST DUP3 DUP2 GT ISZERO PUSH3 0x8A3 JUMPI DUP3 MLOAD DUP3 SWAP1 PUSH4 0xFFFFFFFF AND SWAP1 SSTORE SWAP2 PUSH1 0x20 ADD SWAP2 SWAP1 PUSH1 0x1 ADD SWAP1 PUSH3 0x87E JUMP JUMPDEST JUMPDEST POP SWAP1 POP PUSH3 0x8B3 SWAP2 SWAP1 PUSH3 0x8B7 JUMP JUMPDEST POP SWAP1 JUMP JUMPDEST JUMPDEST DUP1 DUP3 GT ISZERO PUSH3 0x8D2 JUMPI PUSH1 0x0 DUP2 PUSH1 0x0 SWAP1 SSTORE POP PUSH1 0x1 ADD PUSH3 0x8B8 JUMP JUMPDEST POP SWAP1 JUMP JUMPDEST DUP3 PUSH1 0x5 DUP2 ADD SWAP3 DUP3 ISZERO PUSH3 0x908 JUMPI SWAP2 PUSH1 0x20 MUL DUP3 ADD JUMPDEST DUP3 DUP2 GT ISZERO PUSH3 0x907 JUMPI DUP3 MLOAD DUP3 SSTORE SWAP2 PUSH1 0x20 ADD SWAP2 SWAP1 PUSH1 0x1 ADD SWAP1 PUSH3 0x8EA JUMP JUMPDEST JUMPDEST POP SWAP1 POP PUSH3 0x917 SWAP2 SWAP1 PUSH3 0x8B7 JUMP JUMPDEST POP SWAP1 JUMP JUMPDEST JUMPDEST DUP1 DUP3 GT ISZERO PUSH3 0x93F JUMPI PUSH1 0x0 DUP2 DUP2 PUSH3 0x935 SWAP2 SWAP1 PUSH3 0x943 JUMP JUMPDEST POP PUSH1 0x5 ADD PUSH3 0x91C JUMP JUMPDEST POP SWAP1 JUMP JUMPDEST POP PUSH1 0x0 DUP2 SSTORE PUSH1 0x1 ADD PUSH1 0x0 DUP2 SSTORE PUSH1 0x1 ADD PUSH1 0x0 DUP2 SSTORE PUSH1 0x1 ADD PUSH1 0x0 DUP2 SSTORE PUSH1 0x1 ADD PUSH1 0x0 SWAP1 SSTORE JUMP JUMPDEST PUSH1 0x0 DUP2 MLOAD SWAP1 POP PUSH3 0x977 DUP2 PUSH3 0xA07 JUMP JUMPDEST SWAP3 SWAP2 POP POP JUMP JUMPDEST PUSH1 0x0 DUP1 PUSH1 0x0 PUSH1 0x60 DUP5 DUP7 SUB SLT ISZERO PUSH3 0x993 JUMPI PUSH1 0x0 DUP1 REVERT JUMPDEST PUSH1 0x0 PUSH3 0x9A3 DUP7 DUP3 DUP8 ADD PUSH3 0x966 JUMP JUMPDEST SWAP4 POP POP PUSH1 0x20 PUSH3 0x9B6 DUP7 DUP3 DUP8 ADD PUSH3 0x966 JUMP JUMPDEST SWAP3 POP POP PUSH1 0x40 PUSH3 0x9C9 DUP7 DUP3 DUP8 ADD PUSH3 0x966 JUMP JUMPDEST SWAP2 POP POP SWAP3 POP SWAP3 POP SWAP3 JUMP JUMPDEST PUSH1 0x0 PUSH3 0x9E0 DUP3 PUSH3 0x9E7 JUMP JUMPDEST SWAP1 POP SWAP2 SWAP1 POP JUMP JUMPDEST PUSH1 0x0 PUSH20 0xFFFFFFFFFFFFFFFFFFFFFFFFFFFFFFFFFFFFFFFF DUP3 AND SWAP1 POP SWAP2 SWAP1 POP JUMP JUMPDEST PUSH3 0xA12 DUP2 PUSH3 0x9D3 JUMP JUMPDEST DUP2 EQ PUSH3 0xA1E JUMPI PUSH1 0x0 DUP1 REVERT JUMPDEST POP JUMP JUMPDEST PUSH2 0x3B52 DUP1 PUSH3 0xA31 PUSH1 0x0 CODECOPY PUSH1 0x0 RETURN INVALID PUSH1 0x80 PUSH1 0x40 MSTORE CALLVALUE DUP1 ISZERO PUSH2 0x10 JUMPI PUSH1 0x0 DUP1 REVERT JUMPDEST POP PUSH1 0x4 CALLDATASIZE LT PUSH2 0xB4 JUMPI PUSH1 0x0 CALLDATALOAD PUSH1 0xE0 SHR DUP1 PUSH4 0x86CAAF01 GT PUSH2 0x71 JUMPI DUP1 PUSH4 0x86CAAF01 EQ PUSH2 0x18B JUMPI DUP1 PUSH4 0x995A2001 EQ PUSH2 0x1A7 JUMPI DUP1 PUSH4 0xB677AA2E EQ PUSH2 0x1C3 JUMPI DUP1 PUSH4 0xCB105188 EQ PUSH2 0x1DF JUMPI DUP1 PUSH4 0xD003A97E EQ PUSH2 0x1E9 JUMPI DUP1 PUSH4 0xE2842D79 EQ PUSH2 0x1F3 JUMPI PUSH2 0xB4 JUMP JUMPDEST DUP1 PUSH4 0x1D244AFA EQ PUSH2 0xB9 JUMPI DUP1 PUSH4 0x1D78BABF EQ PUSH2 0xD5 JUMPI DUP1 PUSH4 0x354528E8 EQ PUSH2 0xF1 JUMPI DUP1 PUSH4 0x4EF8FE5B EQ PUSH2 0x10F JUMPI DUP1 PUSH4 0x57D8DF5A EQ PUSH2 0x12B JUMPI DUP1 PUSH4 0x61FDA82A EQ PUSH2 0x15B JUMPI JUMPDEST PUSH1 0x0 DUP1 REVERT JUMPDEST PUSH2 0xD3 PUSH1 0x4 DUP1 CALLDATASIZE SUB DUP2 ADD SWAP1 PUSH2 0xCE SWAP2 SWAP1 PUSH2 0x2A70 JUMP JUMPDEST PUSH2 0x211 JUMP JUMPDEST STOP JUMPDEST PUSH2 0xEF PUSH1 0x4 DUP1 CALLDATASIZE SUB DUP2 ADD SWAP1 PUSH2 0xEA SWAP2 SWAP1 PUSH2 0x296C JUMP JUMPDEST PUSH2 0x255 JUMP JUMPDEST STOP JUMPDEST PUSH2 0xF9 PUSH2 0x4A9 JUMP JUMPDEST PUSH1 0x40 MLOAD PUSH2 0x106 SWAP2 SWAP1 PUSH2 0x34F1 JUMP JUMPDEST PUSH1 0x40 MLOAD DUP1 SWAP2 SUB SWAP1 RETURN JUMPDEST PUSH2 0x129 PUSH1 0x4 DUP1 CALLDATASIZE SUB DUP2 ADD SWAP1 PUSH2 0x124 SWAP2 SWAP1 PUSH2 0x28A5 JUMP JUMPDEST PUSH2 0x9BF JUMP JUMPDEST STOP JUMPDEST PUSH2 0x145 PUSH1 0x4 DUP1 CALLDATASIZE SUB DUP2 ADD SWAP1 PUSH2 0x140 SWAP2 SWAP1 PUSH2 0x28A5 JUMP JUMPDEST PUSH2 0xA48 JUMP JUMPDEST PUSH1 0x40 MLOAD PUSH2 0x152 SWAP2 SWAP1 PUSH2 0x36E0 JUMP JUMPDEST PUSH1 0x40 MLOAD DUP1 SWAP2 SUB SWAP1 RETURN JUMPDEST PUSH2 0x175 PUSH1 0x4 DUP1 CALLDATASIZE SUB DUP2 ADD SWAP1 PUSH2 0x170 SWAP2 SWAP1 PUSH2 0x2B52 JUMP JUMPDEST PUSH2 0xE9E JUMP JUMPDEST PUSH1 0x40 MLOAD PUSH2 0x182 SWAP2 SWAP1 PUSH2 0x3702 JUMP JUMPDEST PUSH1 0x40 MLOAD DUP1 SWAP2 SUB SWAP1 RETURN JUMPDEST PUSH2 0x1A5 PUSH1 0x4 DUP1 CALLDATASIZE SUB DUP2 ADD SWAP1 PUSH2 0x1A0 SWAP2 SWAP1 PUSH2 0x2AEB JUMP JUMPDEST PUSH2 0xF68 JUMP JUMPDEST STOP JUMPDEST PUSH2 0x1C1 PUSH1 0x4 DUP1 CALLDATASIZE SUB DUP2 ADD SWAP1 PUSH2 0x1BC SWAP2 SWAP1 PUSH2 0x29CF JUMP JUMPDEST PUSH2 0x10E6 JUMP JUMPDEST STOP JUMPDEST PUSH2 0x1DD PUSH1 0x4 DUP1 CALLDATASIZE SUB DUP2 ADD SWAP1 PUSH2 0x1D8 SWAP2 SWAP1 PUSH2 0x28CE JUMP JUMPDEST PUSH2 0x1764 JUMP JUMPDEST STOP JUMPDEST PUSH2 0x1E7 PUSH2 0x18F3 JUMP JUMPDEST STOP JUMPDEST PUSH2 0x1F1 PUSH2 0x18F5 JUMP JUMPDEST STOP JUMPDEST PUSH2 0x1FB PUSH2 0x19D2 JUMP JUMPDEST PUSH1 0x40 MLOAD PUSH2 0x208 SWAP2 SWAP1 PUSH2 0x34CF JUMP JUMPDEST PUSH1 0x40 MLOAD DUP1 SWAP2 SUB SWAP1 RETURN JUMPDEST DUP2 PUSH32 0xC078863E7ADE0C5659980A387D8552E7EE23B544977AA247769231095482A60C DUP6 CALLER DUP7 DUP6 PUSH1 0x40 MLOAD PUSH2 0x247 SWAP5 SWAP4 SWAP3 SWAP2 SWAP1 PUSH2 0x3513 JUMP JUMPDEST PUSH1 0x40 MLOAD DUP1 SWAP2 SUB SWAP1 LOG2 POP POP POP POP JUMP JUMPDEST PUSH1 0x0 PUSH1 0x55 PUSH1 0x0 DUP7 PUSH20 0xFFFFFFFFFFFFFFFFFFFFFFFFFFFFFFFFFFFFFFFF AND PUSH20 0xFFFFFFFFFFFFFFFFFFFFFFFFFFFFFFFFFFFFFFFF AND DUP2 MSTORE PUSH1 0x20 ADD SWAP1 DUP2 MSTORE PUSH1 0x20 ADD PUSH1 0x0 KECCAK256 SWAP1 POP PUSH1 0x0 DUP2 PUSH1 0x0 ADD DUP5 DUP2 SLOAD DUP2 LT PUSH2 0x2A9 JUMPI INVALID JUMPDEST SWAP1 PUSH1 0x0 MSTORE PUSH1 0x20 PUSH1 0x0 KECCAK256 SWAP1 PUSH1 0x1B MUL ADD SWAP1 POP DUP1 PUSH1 0x3 ADD SLOAD DUP4 EQ PUSH2 0x2FF JUMPI PUSH1 0x40 MLOAD PUSH32 0x8C379A000000000000000000000000000000000000000000000000000000000 DUP2 MSTORE PUSH1 0x4 ADD PUSH2 0x2F6 SWAP1 PUSH2 0x3660 JUMP JUMPDEST PUSH1 0x40 MLOAD DUP1 SWAP2 SUB SWAP1 REVERT JUMPDEST PUSH1 0x0 PUSH1 0x5 DUP2 GT ISZERO PUSH2 0x30C JUMPI INVALID JUMPDEST DUP2 PUSH1 0x1A ADD PUSH1 0x1 SWAP1 SLOAD SWAP1 PUSH2 0x100 EXP SWAP1 DIV PUSH1 0xFF AND PUSH1 0x5 DUP2 GT ISZERO PUSH2 0x329 JUMPI INVALID JUMPDEST EQ ISZERO PUSH2 0x475 JUMPI DUP1 PUSH1 0x2 ADD PUSH1 0x0 SWAP1 SLOAD SWAP1 PUSH2 0x100 EXP SWAP1 DIV PUSH20 0xFFFFFFFFFFFFFFFFFFFFFFFFFFFFFFFFFFFFFFFF AND PUSH20 0xFFFFFFFFFFFFFFFFFFFFFFFFFFFFFFFFFFFFFFFF AND DUP6 PUSH20 0xFFFFFFFFFFFFFFFFFFFFFFFFFFFFFFFFFFFFFFFF AND EQ PUSH2 0x3C1 JUMPI PUSH1 0x40 MLOAD PUSH32 0x8C379A000000000000000000000000000000000000000000000000000000000 DUP2 MSTORE PUSH1 0x4 ADD PUSH2 0x3B8 SWAP1 PUSH2 0x36C0 JUMP JUMPDEST PUSH1 0x40 MLOAD DUP1 SWAP2 SUB SWAP1 REVERT JUMPDEST PUSH1 0x1 DUP2 PUSH1 0x1A ADD PUSH1 0x1 PUSH2 0x100 EXP DUP2 SLOAD DUP2 PUSH1 0xFF MUL NOT AND SWAP1 DUP4 PUSH1 0x5 DUP2 GT ISZERO PUSH2 0x3E2 JUMPI INVALID JUMPDEST MUL OR SWAP1 SSTORE POP PUSH1 0x59 PUSH1 0x0 SWAP1 SLOAD SWAP1 PUSH2 0x100 EXP SWAP1 DIV PUSH20 0xFFFFFFFFFFFFFFFFFFFFFFFFFFFFFFFFFFFFFFFF AND PUSH20 0xFFFFFFFFFFFFFFFFFFFFFFFFFFFFFFFFFFFFFFFF AND PUSH4 0x74E8DE77 DUP7 PUSH1 0x40 MLOAD DUP3 PUSH4 0xFFFFFFFF AND PUSH1 0xE0 SHL DUP2 MSTORE PUSH1 0x4 ADD PUSH2 0x442 SWAP2 SWAP1 PUSH2 0x3400 JUMP JUMPDEST PUSH1 0x0 PUSH1 0x40 MLOAD DUP1 DUP4 SUB DUP2 PUSH1 0x0 DUP8 DUP1 EXTCODESIZE ISZERO DUP1 ISZERO PUSH2 0x45C JUMPI PUSH1 0x0 DUP1 REVERT JUMPDEST POP GAS CALL ISZERO DUP1 ISZERO PUSH2 0x470 JUMPI RETURNDATASIZE PUSH1 0x0 DUP1 RETURNDATACOPY RETURNDATASIZE PUSH1 0x0 REVERT JUMPDEST POP POP POP POP JUMPDEST PUSH1 0x1 PUSH1 0x5 DUP2 GT ISZERO PUSH2 0x482 JUMPI INVALID JUMPDEST DUP2 PUSH1 0x1A ADD PUSH1 0x1 SWAP1 SLOAD SWAP1 PUSH2 0x100 EXP SWAP1 DIV PUSH1 0xFF AND PUSH1 0x5 DUP2 GT ISZERO PUSH2 0x49F JUMPI INVALID JUMPDEST POP POP POP POP POP POP POP POP JUMP JUMPDEST PUSH1 0x60 DUP1 PUSH1 0x56 DUP1 SLOAD SWAP1 POP PUSH8 0xFFFFFFFFFFFFFFFF DUP2 GT DUP1 ISZERO PUSH2 0x4C8 JUMPI PUSH1 0x0 DUP1 REVERT JUMPDEST POP PUSH1 0x40 MLOAD SWAP1 DUP1 DUP3 MSTORE DUP1 PUSH1 0x20 MUL PUSH1 0x20 ADD DUP3 ADD PUSH1 0x40 MSTORE DUP1 ISZERO PUSH2 0x502 JUMPI DUP2 PUSH1 0x20 ADD JUMPDEST PUSH2 0x4EF PUSH2 0x2016 JUMP JUMPDEST DUP2 MSTORE PUSH1 0x20 ADD SWAP1 PUSH1 0x1 SWAP1 SUB SWAP1 DUP2 PUSH2 0x4E7 JUMPI SWAP1 POP JUMPDEST POP SWAP1 POP PUSH1 0x0 JUMPDEST PUSH1 0x56 DUP1 SLOAD SWAP1 POP DUP2 LT ISZERO PUSH2 0x9B7 JUMPI PUSH1 0x55 PUSH1 0x0 PUSH1 0x56 DUP4 DUP2 SLOAD DUP2 LT PUSH2 0x526 JUMPI INVALID JUMPDEST SWAP1 PUSH1 0x0 MSTORE PUSH1 0x20 PUSH1 0x0 KECCAK256 ADD PUSH1 0x0 SWAP1 SLOAD SWAP1 PUSH2 0x100 EXP SWAP1 DIV PUSH20 0xFFFFFFFFFFFFFFFFFFFFFFFFFFFFFFFFFFFFFFFF AND PUSH20 0xFFFFFFFFFFFFFFFFFFFFFFFFFFFFFFFFFFFFFFFF AND PUSH20 0xFFFFFFFFFFFFFFFFFFFFFFFFFFFFFFFFFFFFFFFF AND DUP2 MSTORE PUSH1 0x20 ADD SWAP1 DUP2 MSTORE PUSH1 0x20 ADD PUSH1 0x0 KECCAK256 PUSH1 0x40 MLOAD DUP1 PUSH1 0x60 ADD PUSH1 0x40 MSTORE SWAP1 DUP2 PUSH1 0x0 DUP3 ADD DUP1 SLOAD DUP1 PUSH1 0x20 MUL PUSH1 0x20 ADD PUSH1 0x40 MLOAD SWAP1 DUP2 ADD PUSH1 0x40 MSTORE DUP1 SWAP3 SWAP2 SWAP1 DUP2 DUP2 MSTORE PUSH1 0x20 ADD PUSH1 0x0 SWAP1 JUMPDEST DUP3 DUP3 LT ISZERO PUSH2 0x966 JUMPI DUP4 DUP3 SWAP1 PUSH1 0x0 MSTORE PUSH1 0x20 PUSH1 0x0 KECCAK256 SWAP1 PUSH1 0x1B MUL ADD PUSH1 0x40 MLOAD DUP1 PUSH2 0x200 ADD PUSH1 0x40 MSTORE SWAP1 DUP2 PUSH1 0x0 DUP3 ADD SLOAD DUP2 MSTORE PUSH1 0x20 ADD PUSH1 0x1 DUP3 ADD PUSH1 0x0 SWAP1 SLOAD SWAP1 PUSH2 0x100 EXP SWAP1 DIV PUSH20 0xFFFFFFFFFFFFFFFFFFFFFFFFFFFFFFFFFFFFFFFF AND PUSH20 0xFFFFFFFFFFFFFFFFFFFFFFFFFFFFFFFFFFFFFFFF AND PUSH20 0xFFFFFFFFFFFFFFFFFFFFFFFFFFFFFFFFFFFFFFFF AND DUP2 MSTORE PUSH1 0x20 ADD PUSH1 0x2 DUP3 ADD PUSH1 0x0 SWAP1 SLOAD SWAP1 PUSH2 0x100 EXP SWAP1 DIV PUSH20 0xFFFFFFFFFFFFFFFFFFFFFFFFFFFFFFFFFFFFFFFF AND PUSH20 0xFFFFFFFFFFFFFFFFFFFFFFFFFFFFFFFFFFFFFFFF AND PUSH20 0xFFFFFFFFFFFFFFFFFFFFFFFFFFFFFFFFFFFFFFFF AND DUP2 MSTORE PUSH1 0x20 ADD PUSH1 0x2 DUP3 ADD PUSH1 0x14 SWAP1 SLOAD SWAP1 PUSH2 0x100 EXP SWAP1 DIV PUSH1 0xFF AND PUSH1 0x1 DUP2 GT ISZERO PUSH2 0x6B3 JUMPI INVALID JUMPDEST PUSH1 0x1 DUP2 GT ISZERO PUSH2 0x6BE JUMPI INVALID JUMPDEST DUP2 MSTORE PUSH1 0x20 ADD PUSH1 0x2 DUP3 ADD PUSH1 0x15 SWAP1 SLOAD SWAP1 PUSH2 0x100 EXP SWAP1 DIV PUSH1 0xFF AND PUSH1 0x2 DUP2 GT ISZERO PUSH2 0x6E0 JUMPI INVALID JUMPDEST PUSH1 0x2 DUP2 GT ISZERO PUSH2 0x6EB JUMPI INVALID JUMPDEST DUP2 MSTORE PUSH1 0x20 ADD PUSH1 0x2 DUP3 ADD PUSH1 0x16 SWAP1 SLOAD SWAP1 PUSH2 0x100 EXP SWAP1 DIV PUSH1 0xFF AND PUSH1 0x5 DUP2 GT ISZERO PUSH2 0x70D JUMPI INVALID JUMPDEST PUSH1 0x5 DUP2 GT ISZERO PUSH2 0x718 JUMPI INVALID JUMPDEST DUP2 MSTORE PUSH1 0x20 ADD PUSH1 0x3 DUP3 ADD SLOAD DUP2 MSTORE PUSH1 0x20 ADD PUSH1 0x4 DUP3 ADD SLOAD DUP2 MSTORE PUSH1 0x20 ADD PUSH1 0x5 DUP3 ADD SLOAD DUP2 MSTORE PUSH1 0x20 ADD PUSH1 0x6 DUP3 ADD SLOAD DUP2 MSTORE PUSH1 0x20 ADD PUSH1 0x7 DUP3 ADD PUSH1 0x40 MLOAD DUP1 PUSH1 0x80 ADD PUSH1 0x40 MSTORE SWAP1 DUP2 PUSH1 0x0 DUP3 ADD PUSH1 0x5 DUP1 PUSH1 0x20 MUL PUSH1 0x40 MLOAD SWAP1 DUP2 ADD PUSH1 0x40 MSTORE DUP1 SWAP3 SWAP2 SWAP1 DUP3 PUSH1 0x5 DUP1 ISZERO PUSH2 0x790 JUMPI PUSH1 0x20 MUL DUP3 ADD SWAP2 JUMPDEST DUP2 SLOAD DUP2 MSTORE PUSH1 0x20 ADD SWAP1 PUSH1 0x1 ADD SWAP1 DUP1 DUP4 GT PUSH2 0x77C JUMPI JUMPDEST POP POP POP POP POP DUP2 MSTORE PUSH1 0x20 ADD PUSH1 0x5 DUP3 ADD PUSH1 0x5 DUP1 PUSH1 0x20 MUL PUSH1 0x40 MLOAD SWAP1 DUP2 ADD PUSH1 0x40 MSTORE DUP1 SWAP3 SWAP2 SWAP1 DUP3 PUSH1 0x5 DUP1 ISZERO PUSH2 0x7D5 JUMPI PUSH1 0x20 MUL DUP3 ADD SWAP2 JUMPDEST DUP2 SLOAD DUP2 MSTORE PUSH1 0x20 ADD SWAP1 PUSH1 0x1 ADD SWAP1 DUP1 DUP4 GT PUSH2 0x7C1 JUMPI JUMPDEST POP POP POP POP POP DUP2 MSTORE PUSH1 0x20 ADD PUSH1 0xA DUP3 ADD PUSH1 0x5 DUP1 PUSH1 0x20 MUL PUSH1 0x40 MLOAD SWAP1 DUP2 ADD PUSH1 0x40 MSTORE DUP1 SWAP3 SWAP2 SWAP1 DUP3 PUSH1 0x5 DUP1 ISZERO PUSH2 0x81A JUMPI PUSH1 0x20 MUL DUP3 ADD SWAP2 JUMPDEST DUP2 SLOAD DUP2 MSTORE PUSH1 0x20 ADD SWAP1 PUSH1 0x1 ADD SWAP1 DUP1 DUP4 GT PUSH2 0x806 JUMPI JUMPDEST POP POP POP POP POP DUP2 MSTORE PUSH1 0x20 ADD PUSH1 0xF DUP3 ADD PUSH1 0x5 DUP1 PUSH1 0x20 MUL PUSH1 0x40 MLOAD SWAP1 DUP2 ADD PUSH1 0x40 MSTORE DUP1 SWAP3 SWAP2 SWAP1 DUP3 PUSH1 0x5 DUP1 ISZERO PUSH2 0x884 JUMPI PUSH1 0x20 MUL DUP3 ADD SWAP2 PUSH1 0x0 SWAP1 JUMPDEST DUP3 DUP3 SWAP1 SLOAD SWAP1 PUSH2 0x100 EXP SWAP1 DIV PUSH1 0xFF AND ISZERO ISZERO DUP2 MSTORE PUSH1 0x20 ADD SWAP1 PUSH1 0x1 ADD SWAP1 PUSH1 0x20 DUP3 PUSH1 0x0 ADD DIV SWAP3 DUP4 ADD SWAP3 PUSH1 0x1 SUB DUP3 MUL SWAP2 POP DUP1 DUP5 GT PUSH2 0x84E JUMPI SWAP1 POP JUMPDEST POP POP POP POP POP DUP2 MSTORE POP POP DUP2 MSTORE PUSH1 0x20 ADD PUSH1 0x17 DUP3 ADD PUSH1 0x5 DUP1 PUSH1 0x20 MUL PUSH1 0x40 MLOAD SWAP1 DUP2 ADD PUSH1 0x40 MSTORE DUP1 SWAP3 SWAP2 SWAP1 DUP3 PUSH1 0x5 DUP1 ISZERO PUSH2 0x8F2 JUMPI PUSH1 0x20 MUL DUP3 ADD SWAP2 PUSH1 0x0 SWAP1 JUMPDEST DUP3 DUP3 SWAP1 SLOAD SWAP1 PUSH2 0x100 EXP SWAP1 DIV PUSH1 0xFF AND ISZERO ISZERO DUP2 MSTORE PUSH1 0x20 ADD SWAP1 PUSH1 0x1 ADD SWAP1 PUSH1 0x20 DUP3 PUSH1 0x0 ADD DIV SWAP3 DUP4 ADD SWAP3 PUSH1 0x1 SUB DUP3 MUL SWAP2 POP DUP1 DUP5 GT PUSH2 0x8BC JUMPI SWAP1 POP JUMPDEST POP POP POP POP POP DUP2 MSTORE PUSH1 0x20 ADD PUSH1 0x18 DUP3 ADD SLOAD DUP2 MSTORE PUSH1 0x20 ADD PUSH1 0x19 DUP3 ADD SLOAD DUP2 MSTORE PUSH1 0x20 ADD PUSH1 0x1A DUP3 ADD PUSH1 0x0 SWAP1 SLOAD SWAP1 PUSH2 0x100 EXP SWAP1 DIV PUSH1 0xFF AND ISZERO ISZERO ISZERO ISZERO DUP2 MSTORE PUSH1 0x20 ADD PUSH1 0x1A DUP3 ADD PUSH1 0x1 SWAP1 SLOAD SWAP1 PUSH2 0x100 EXP SWAP1 DIV PUSH1 0xFF AND PUSH1 0x5 DUP2 GT ISZERO PUSH2 0x948 JUMPI INVALID JUMPDEST PUSH1 0x5 DUP2 GT ISZERO PUSH2 0x953 JUMPI INVALID JUMPDEST DUP2 MSTORE POP POP DUP2 MSTORE PUSH1 0x20 ADD SWAP1 PUSH1 0x1 ADD SWAP1 PUSH2 0x5BB JUMP JUMPDEST POP POP POP POP DUP2 MSTORE PUSH1 0x20 ADD PUSH1 0x1 DUP3 ADD SLOAD DUP2 MSTORE PUSH1 0x20 ADD PUSH1 0x2 DUP3 ADD PUSH1 0x0 SWAP1 SLOAD SWAP1 PUSH2 0x100 EXP SWAP1 DIV PUSH1 0xFF AND ISZERO ISZERO ISZERO ISZERO DUP2 MSTORE POP POP DUP3 DUP3 DUP2 MLOAD DUP2 LT PUSH2 0x99F JUMPI INVALID JUMPDEST PUSH1 0x20 MUL PUSH1 0x20 ADD ADD DUP2 SWAP1 MSTORE POP DUP1 DUP1 PUSH1 0x1 ADD SWAP2 POP POP PUSH2 0x508 JUMP JUMPDEST POP DUP1 SWAP2 POP POP SWAP1 JUMP JUMPDEST PUSH1 0x0 PUSH1 0x55 PUSH1 0x0 DUP4 PUSH20 0xFFFFFFFFFFFFFFFFFFFFFFFFFFFFFFFFFFFFFFFF AND PUSH20 0xFFFFFFFFFFFFFFFFFFFFFFFFFFFFFFFFFFFFFFFF AND DUP2 MSTORE PUSH1 0x20 ADD SWAP1 DUP2 MSTORE PUSH1 0x20 ADD PUSH1 0x0 KECCAK256 PUSH1 0x0 ADD SWAP1 POP PUSH1 0x0 JUMPDEST DUP2 DUP1 SLOAD SWAP1 POP DUP2 LT ISZERO PUSH2 0xA43 JUMPI PUSH2 0xA36 DUP3 DUP3 DUP2 SLOAD DUP2 LT PUSH2 0xA23 JUMPI INVALID JUMPDEST SWAP1 PUSH1 0x0 MSTORE PUSH1 0x20 PUSH1 0x0 KECCAK256 SWAP1 PUSH1 0x1B MUL ADD PUSH2 0x1A60 JUMP JUMPDEST DUP1 DUP1 PUSH1 0x1 ADD SWAP2 POP POP PUSH2 0xA08 JUMP JUMPDEST POP POP POP JUMP JUMPDEST PUSH2 0xA50 PUSH2 0x2016 JUMP JUMPDEST PUSH1 0x55 PUSH1 0x0 DUP4 PUSH20 0xFFFFFFFFFFFFFFFFFFFFFFFFFFFFFFFFFFFFFFFF AND PUSH20 0xFFFFFFFFFFFFFFFFFFFFFFFFFFFFFFFFFFFFFFFF AND DUP2 MSTORE PUSH1 0x20 ADD SWAP1 DUP2 MSTORE PUSH1 0x20 ADD PUSH1 0x0 KECCAK256 PUSH1 0x40 MLOAD DUP1 PUSH1 0x60 ADD PUSH1 0x40 MSTORE SWAP1 DUP2 PUSH1 0x0 DUP3 ADD DUP1 SLOAD DUP1 PUSH1 0x20 MUL PUSH1 0x20 ADD PUSH1 0x40 MLOAD SWAP1 DUP2 ADD PUSH1 0x40 MSTORE DUP1 SWAP3 SWAP2 SWAP1 DUP2 DUP2 MSTORE PUSH1 0x20 ADD PUSH1 0x0 SWAP1 JUMPDEST DUP3 DUP3 LT ISZERO PUSH2 0xE6A JUMPI DUP4 DUP3 SWAP1 PUSH1 0x0 MSTORE PUSH1 0x20 PUSH1 0x0 KECCAK256 SWAP1 PUSH1 0x1B MUL ADD PUSH1 0x40 MLOAD DUP1 PUSH2 0x200 ADD PUSH1 0x40 MSTORE SWAP1 DUP2 PUSH1 0x0 DUP3 ADD SLOAD DUP2 MSTORE PUSH1 0x20 ADD PUSH1 0x1 DUP3 ADD PUSH1 0x0 SWAP1 SLOAD SWAP1 PUSH2 0x100 EXP SWAP1 DIV PUSH20 0xFFFFFFFFFFFFFFFFFFFFFFFFFFFFFFFFFFFFFFFF AND PUSH20 0xFFFFFFFFFFFFFFFFFFFFFFFFFFFFFFFFFFFFFFFF AND PUSH20 0xFFFFFFFFFFFFFFFFFFFFFFFFFFFFFFFFFFFFFFFF AND DUP2 MSTORE PUSH1 0x20 ADD PUSH1 0x2 DUP3 ADD PUSH1 0x0 SWAP1 SLOAD SWAP1 PUSH2 0x100 EXP SWAP1 DIV PUSH20 0xFFFFFFFFFFFFFFFFFFFFFFFFFFFFFFFFFFFFFFFF AND PUSH20 0xFFFFFFFFFFFFFFFFFFFFFFFFFFFFFFFFFFFFFFFF AND PUSH20 0xFFFFFFFFFFFFFFFFFFFFFFFFFFFFFFFFFFFFFFFF AND DUP2 MSTORE PUSH1 0x20 ADD PUSH1 0x2 DUP3 ADD PUSH1 0x14 SWAP1 SLOAD SWAP1 PUSH2 0x100 EXP SWAP1 DIV PUSH1 0xFF AND PUSH1 0x1 DUP2 GT ISZERO PUSH2 0xBB7 JUMPI INVALID JUMPDEST PUSH1 0x1 DUP2 GT ISZERO PUSH2 0xBC2 JUMPI INVALID JUMPDEST DUP2 MSTORE PUSH1 0x20 ADD PUSH1 0x2 DUP3 ADD PUSH1 0x15 SWAP1 SLOAD SWAP1 PUSH2 0x100 EXP SWAP1 DIV PUSH1 0xFF AND PUSH1 0x2 DUP2 GT ISZERO PUSH2 0xBE4 JUMPI INVALID JUMPDEST PUSH1 0x2 DUP2 GT ISZERO PUSH2 0xBEF JUMPI INVALID JUMPDEST DUP2 MSTORE PUSH1 0x20 ADD PUSH1 0x2 DUP3 ADD PUSH1 0x16 SWAP1 SLOAD SWAP1 PUSH2 0x100 EXP SWAP1 DIV PUSH1 0xFF AND PUSH1 0x5 DUP2 GT ISZERO PUSH2 0xC11 JUMPI INVALID JUMPDEST PUSH1 0x5 DUP2 GT ISZERO PUSH2 0xC1C JUMPI INVALID JUMPDEST DUP2 MSTORE PUSH1 0x20 ADD PUSH1 0x3 DUP3 ADD SLOAD DUP2 MSTORE PUSH1 0x20 ADD PUSH1 0x4 DUP3 ADD SLOAD DUP2 MSTORE PUSH1 0x20 ADD PUSH1 0x5 DUP3 ADD SLOAD DUP2 MSTORE PUSH1 0x20 ADD PUSH1 0x6 DUP3 ADD SLOAD DUP2 MSTORE PUSH1 0x20 ADD PUSH1 0x7 DUP3 ADD PUSH1 0x40 MLOAD DUP1 PUSH1 0x80 ADD PUSH1 0x40 MSTORE SWAP1 DUP2 PUSH1 0x0 DUP3 ADD PUSH1 0x5 DUP1 PUSH1 0x20 MUL PUSH1 0x40 MLOAD SWAP1 DUP2 ADD PUSH1 0x40 MSTORE DUP1 SWAP3 SWAP2 SWAP1 DUP3 PUSH1 0x5 DUP1 ISZERO PUSH2 0xC94 JUMPI PUSH1 0x20 MUL DUP3 ADD SWAP2 JUMPDEST DUP2 SLOAD DUP2 MSTORE PUSH1 0x20 ADD SWAP1 PUSH1 0x1 ADD SWAP1 DUP1 DUP4 GT PUSH2 0xC80 JUMPI JUMPDEST POP POP POP POP POP DUP2 MSTORE PUSH1 0x20 ADD PUSH1 0x5 DUP3 ADD PUSH1 0x5 DUP1 PUSH1 0x20 MUL PUSH1 0x40 MLOAD SWAP1 DUP2 ADD PUSH1 0x40 MSTORE DUP1 SWAP3 SWAP2 SWAP1 DUP3 PUSH1 0x5 DUP1 ISZERO PUSH2 0xCD9 JUMPI PUSH1 0x20 MUL DUP3 ADD SWAP2 JUMPDEST DUP2 SLOAD DUP2 MSTORE PUSH1 0x20 ADD SWAP1 PUSH1 0x1 ADD SWAP1 DUP1 DUP4 GT PUSH2 0xCC5 JUMPI JUMPDEST POP POP POP POP POP DUP2 MSTORE PUSH1 0x20 ADD PUSH1 0xA DUP3 ADD PUSH1 0x5 DUP1 PUSH1 0x20 MUL PUSH1 0x40 MLOAD SWAP1 DUP2 ADD PUSH1 0x40 MSTORE DUP1 SWAP3 SWAP2 SWAP1 DUP3 PUSH1 0x5 DUP1 ISZERO PUSH2 0xD1E JUMPI PUSH1 0x20 MUL DUP3 ADD SWAP2 JUMPDEST DUP2 SLOAD DUP2 MSTORE PUSH1 0x20 ADD SWAP1 PUSH1 0x1 ADD SWAP1 DUP1 DUP4 GT PUSH2 0xD0A JUMPI JUMPDEST POP POP POP POP POP DUP2 MSTORE PUSH1 0x20 ADD PUSH1 0xF DUP3 ADD PUSH1 0x5 DUP1 PUSH1 0x20 MUL PUSH1 0x40 MLOAD SWAP1 DUP2 ADD PUSH1 0x40 MSTORE DUP1 SWAP3 SWAP2 SWAP1 DUP3 PUSH1 0x5 DUP1 ISZERO PUSH2 0xD88 JUMPI PUSH1 0x20 MUL DUP3 ADD SWAP2 PUSH1 0x0 SWAP1 JUMPDEST DUP3 DUP3 SWAP1 SLOAD SWAP1 PUSH2 0x100 EXP SWAP1 DIV PUSH1 0xFF AND ISZERO ISZERO DUP2 MSTORE PUSH1 0x20 ADD SWAP1 PUSH1 0x1 ADD SWAP1 PUSH1 0x20 DUP3 PUSH1 0x0 ADD DIV SWAP3 DUP4 ADD SWAP3 PUSH1 0x1 SUB DUP3 MUL SWAP2 POP DUP1 DUP5 GT PUSH2 0xD52 JUMPI SWAP1 POP JUMPDEST POP POP POP POP POP DUP2 MSTORE POP POP DUP2 MSTORE PUSH1 0x20 ADD PUSH1 0x17 DUP3 ADD PUSH1 0x5 DUP1 PUSH1 0x20 MUL PUSH1 0x40 MLOAD SWAP1 DUP2 ADD PUSH1 0x40 MSTORE DUP1 SWAP3 SWAP2 SWAP1 DUP3 PUSH1 0x5 DUP1 ISZERO PUSH2 0xDF6 JUMPI PUSH1 0x20 MUL DUP3 ADD SWAP2 PUSH1 0x0 SWAP1 JUMPDEST DUP3 DUP3 SWAP1 SLOAD SWAP1 PUSH2 0x100 EXP SWAP1 DIV PUSH1 0xFF AND ISZERO ISZERO DUP2 MSTORE PUSH1 0x20 ADD SWAP1 PUSH1 0x1 ADD SWAP1 PUSH1 0x20 DUP3 PUSH1 0x0 ADD DIV SWAP3 DUP4 ADD SWAP3 PUSH1 0x1 SUB DUP3 MUL SWAP2 POP DUP1 DUP5 GT PUSH2 0xDC0 JUMPI SWAP1 POP JUMPDEST POP POP POP POP POP DUP2 MSTORE PUSH1 0x20 ADD PUSH1 0x18 DUP3 ADD SLOAD DUP2 MSTORE PUSH1 0x20 ADD PUSH1 0x19 DUP3 ADD SLOAD DUP2 MSTORE PUSH1 0x20 ADD PUSH1 0x1A DUP3 ADD PUSH1 0x0 SWAP1 SLOAD SWAP1 PUSH2 0x100 EXP SWAP1 DIV PUSH1 0xFF AND ISZERO ISZERO ISZERO ISZERO DUP2 MSTORE PUSH1 0x20 ADD PUSH1 0x1A DUP3 ADD PUSH1 0x1 SWAP1 SLOAD SWAP1 PUSH2 0x100 EXP SWAP1 DIV PUSH1 0xFF AND PUSH1 0x5 DUP2 GT ISZERO PUSH2 0xE4C JUMPI INVALID JUMPDEST PUSH1 0x5 DUP2 GT ISZERO PUSH2 0xE57 JUMPI INVALID JUMPDEST DUP2 MSTORE POP POP DUP2 MSTORE PUSH1 0x20 ADD SWAP1 PUSH1 0x1 ADD SWAP1 PUSH2 0xABF JUMP JUMPDEST POP POP POP POP DUP2 MSTORE PUSH1 0x20 ADD PUSH1 0x1 DUP3 ADD SLOAD DUP2 MSTORE PUSH1 0x20 ADD PUSH1 0x2 DUP3 ADD PUSH1 0x0 SWAP1 SLOAD SWAP1 PUSH2 0x100 EXP SWAP1 DIV PUSH1 0xFF AND ISZERO ISZERO ISZERO ISZERO DUP2 MSTORE POP POP SWAP1 POP SWAP2 SWAP1 POP JUMP JUMPDEST PUSH2 0xEA6 PUSH2 0x2039 JUMP JUMPDEST PUSH1 0x55 PUSH1 0x0 CALLER PUSH20 0xFFFFFFFFFFFFFFFFFFFFFFFFFFFFFFFFFFFFFFFF AND PUSH20 0xFFFFFFFFFFFFFFFFFFFFFFFFFFFFFFFFFFFFFFFF AND DUP2 MSTORE PUSH1 0x20 ADD SWAP1 DUP2 MSTORE PUSH1 0x20 ADD PUSH1 0x0 KECCAK256 PUSH1 0x2 ADD PUSH1 0x0 SWAP1 SLOAD SWAP1 PUSH2 0x100 EXP SWAP1 DIV PUSH1 0xFF AND PUSH2 0xF35 JUMPI PUSH1 0x40 MLOAD PUSH32 0x8C379A000000000000000000000000000000000000000000000000000000000 DUP2 MSTORE PUSH1 0x4 ADD PUSH2 0xF2C SWAP1 PUSH2 0x3640 JUMP JUMPDEST PUSH1 0x40 MLOAD DUP1 SWAP2 SUB SWAP1 REVERT JUMPDEST PUSH2 0xF3D PUSH2 0x2016 JUMP JUMPDEST PUSH2 0xF46 CALLER PUSH2 0xA48 JUMP JUMPDEST SWAP1 POP DUP1 PUSH1 0x0 ADD MLOAD DUP4 DUP2 MLOAD DUP2 LT PUSH2 0xF58 JUMPI INVALID JUMPDEST PUSH1 0x20 MUL PUSH1 0x20 ADD ADD MLOAD SWAP2 POP POP SWAP2 SWAP1 POP JUMP JUMPDEST PUSH1 0x0 PUSH1 0x48 DUP5 PUSH1 0x5 DUP2 GT ISZERO PUSH2 0xF78 JUMPI INVALID JUMPDEST PUSH1 0x6 DUP2 LT PUSH2 0xF82 JUMPI INVALID JUMPDEST ADD SLOAD SWAP1 POP PUSH2 0xF8E PUSH2 0x211C JUMP JUMPDEST PUSH1 0x2A DUP6 PUSH1 0x5 DUP2 GT ISZERO PUSH2 0xF9C JUMPI INVALID JUMPDEST PUSH1 0x6 DUP2 LT PUSH2 0xFA6 JUMPI INVALID JUMPDEST PUSH1 0x5 MUL ADD PUSH1 0x5 DUP1 PUSH1 0x20 MUL PUSH1 0x40 MLOAD SWAP1 DUP2 ADD PUSH1 0x40 MSTORE DUP1 SWAP3 SWAP2 SWAP1 DUP3 PUSH1 0x5 DUP1 ISZERO PUSH2 0xFE1 JUMPI PUSH1 0x20 MUL DUP3 ADD SWAP2 JUMPDEST DUP2 SLOAD DUP2 MSTORE PUSH1 0x20 ADD SWAP1 PUSH1 0x1 ADD SWAP1 DUP1 DUP4 GT PUSH2 0xFCD JUMPI JUMPDEST POP POP POP POP POP SWAP1 POP PUSH1 0x0 JUMPDEST DUP3 DUP2 LT ISZERO PUSH2 0x10DD JUMPI PUSH3 0x127500 TIMESTAMP DUP4 DUP4 PUSH1 0x5 DUP2 LT PUSH2 0x1004 JUMPI INVALID JUMPDEST PUSH1 0x20 MUL ADD MLOAD ADD SUB DUP8 PUSH2 0x140 ADD MLOAD PUSH1 0x0 ADD MLOAD DUP3 PUSH1 0x5 DUP2 LT PUSH2 0x1020 JUMPI INVALID JUMPDEST PUSH1 0x20 MUL ADD DUP2 DUP2 MSTORE POP POP TIMESTAMP DUP3 DUP3 PUSH1 0x5 DUP2 LT PUSH2 0x1036 JUMPI INVALID JUMPDEST PUSH1 0x20 MUL ADD MLOAD ADD DUP8 PUSH2 0x140 ADD MLOAD PUSH1 0x20 ADD MLOAD DUP3 PUSH1 0x5 DUP2 LT PUSH2 0x1051 JUMPI INVALID JUMPDEST PUSH1 0x20 MUL ADD DUP2 DUP2 MSTORE POP POP PUSH2 0x2710 DUP1 PUSH1 0x6 DUP9 PUSH1 0x5 DUP2 GT ISZERO PUSH2 0x106C JUMPI INVALID JUMPDEST PUSH1 0x6 DUP2 LT PUSH2 0x1076 JUMPI INVALID JUMPDEST ADD SLOAD DUP7 DUP9 MUL MUL DUP2 PUSH2 0x1083 JUMPI INVALID JUMPDEST DIV DUP2 PUSH2 0x108B JUMPI INVALID JUMPDEST DIV DUP8 PUSH2 0x140 ADD MLOAD PUSH1 0x40 ADD MLOAD DUP3 PUSH1 0x5 DUP2 LT PUSH2 0x10A1 JUMPI INVALID JUMPDEST PUSH1 0x20 MUL ADD DUP2 DUP2 MSTORE POP POP PUSH1 0x0 DUP8 PUSH2 0x140 ADD MLOAD PUSH1 0x60 ADD MLOAD DUP3 PUSH1 0x5 DUP2 LT PUSH2 0x10C1 JUMPI INVALID JUMPDEST PUSH1 0x20 MUL ADD SWAP1 ISZERO ISZERO SWAP1 DUP2 ISZERO ISZERO DUP2 MSTORE POP POP DUP1 DUP1 PUSH1 0x1 ADD SWAP2 POP POP PUSH2 0xFEB JUMP JUMPDEST POP POP POP POP POP POP POP JUMP JUMPDEST CALLER PUSH20 0xFFFFFFFFFFFFFFFFFFFFFFFFFFFFFFFFFFFFFFFF AND DUP6 PUSH20 0xFFFFFFFFFFFFFFFFFFFFFFFFFFFFFFFFFFFFFFFF AND EQ ISZERO PUSH2 0x1155 JUMPI PUSH1 0x40 MLOAD PUSH32 0x8C379A000000000000000000000000000000000000000000000000000000000 DUP2 MSTORE PUSH1 0x4 ADD PUSH2 0x114C SWAP1 PUSH2 0x3620 JUMP JUMPDEST PUSH1 0x40 MLOAD DUP1 SWAP2 SUB SWAP1 REVERT JUMPDEST PUSH1 0x0 PUSH1 0x1 DUP2 GT ISZERO PUSH2 0x1162 JUMPI INVALID JUMPDEST DUP5 PUSH1 0x1 DUP2 GT ISZERO PUSH2 0x116E JUMPI INVALID JUMPDEST EQ ISZERO PUSH2 0x1206 JUMPI PUSH1 0x59 PUSH1 0x0 SWAP1 SLOAD SWAP1 PUSH2 0x100 EXP SWAP1 DIV PUSH20 0xFFFFFFFFFFFFFFFFFFFFFFFFFFFFFFFFFFFFFFFF AND PUSH20 0xFFFFFFFFFFFFFFFFFFFFFFFFFFFFFFFFFFFFFFFF AND PUSH4 0x31F652DB DUP5 DUP4 CALLER PUSH1 0x40 MLOAD DUP5 PUSH4 0xFFFFFFFF AND PUSH1 0xE0 SHL DUP2 MSTORE PUSH1 0x4 ADD PUSH2 0x11D3 SWAP4 SWAP3 SWAP2 SWAP1 PUSH2 0x3596 JUMP JUMPDEST PUSH1 0x0 PUSH1 0x40 MLOAD DUP1 DUP4 SUB DUP2 PUSH1 0x0 DUP8 DUP1 EXTCODESIZE ISZERO DUP1 ISZERO PUSH2 0x11ED JUMPI PUSH1 0x0 DUP1 REVERT JUMPDEST POP GAS CALL ISZERO DUP1 ISZERO PUSH2 0x1201 JUMPI RETURNDATASIZE PUSH1 0x0 DUP1 RETURNDATACOPY RETURNDATASIZE PUSH1 0x0 REVERT JUMPDEST POP POP POP POP JUMPDEST PUSH1 0x1 DUP1 DUP2 GT ISZERO PUSH2 0x1212 JUMPI INVALID JUMPDEST DUP5 PUSH1 0x1 DUP2 GT ISZERO PUSH2 0x121E JUMPI INVALID JUMPDEST EQ ISZERO PUSH2 0x12B6 JUMPI PUSH1 0x59 PUSH1 0x0 SWAP1 SLOAD SWAP1 PUSH2 0x100 EXP SWAP1 DIV PUSH20 0xFFFFFFFFFFFFFFFFFFFFFFFFFFFFFFFFFFFFFFFF AND PUSH20 0xFFFFFFFFFFFFFFFFFFFFFFFFFFFFFFFFFFFFFFFF AND PUSH4 0x31F652DB DUP5 DUP4 DUP9 PUSH1 0x40 MLOAD DUP5 PUSH4 0xFFFFFFFF AND PUSH1 0xE0 SHL DUP2 MSTORE PUSH1 0x4 ADD PUSH2 0x1283 SWAP4 SWAP3 SWAP2 SWAP1 PUSH2 0x355F JUMP JUMPDEST PUSH1 0x0 PUSH1 0x40 MLOAD DUP1 DUP4 SUB DUP2 PUSH1 0x0 DUP8 DUP1 EXTCODESIZE ISZERO DUP1 ISZERO PUSH2 0x129D JUMPI PUSH1 0x0 DUP1 REVERT JUMPDEST POP GAS CALL ISZERO DUP1 ISZERO PUSH2 0x12B1 JUMPI RETURNDATASIZE PUSH1 0x0 DUP1 RETURNDATACOPY RETURNDATASIZE PUSH1 0x0 REVERT JUMPDEST POP POP POP POP JUMPDEST PUSH1 0x0 PUSH1 0x57 PUSH1 0x0 SWAP1 SLOAD SWAP1 PUSH2 0x100 EXP SWAP1 DIV PUSH20 0xFFFFFFFFFFFFFFFFFFFFFFFFFFFFFFFFFFFFFFFF AND PUSH20 0xFFFFFFFFFFFFFFFFFFFFFFFFFFFFFFFFFFFFFFFF AND PUSH4 0x524BC34A DUP8 DUP8 DUP8 DUP8 DUP8 PUSH1 0x40 MLOAD DUP7 PUSH4 0xFFFFFFFF AND PUSH1 0xE0 SHL DUP2 MSTORE PUSH1 0x4 ADD PUSH2 0x131B SWAP6 SWAP5 SWAP4 SWAP3 SWAP2 SWAP1 PUSH2 0x341B JUMP JUMPDEST PUSH1 0x20 PUSH1 0x40 MLOAD DUP1 DUP4 SUB DUP2 PUSH1 0x0 DUP8 DUP1 EXTCODESIZE ISZERO DUP1 ISZERO PUSH2 0x1335 JUMPI PUSH1 0x0 DUP1 REVERT JUMPDEST POP GAS CALL ISZERO DUP1 ISZERO PUSH2 0x1349 JUMPI RETURNDATASIZE PUSH1 0x0 DUP1 RETURNDATACOPY RETURNDATASIZE PUSH1 0x0 REVERT JUMPDEST POP POP POP POP PUSH1 0x40 MLOAD RETURNDATASIZE PUSH1 0x1F NOT PUSH1 0x1F DUP3 ADD AND DUP3 ADD DUP1 PUSH1 0x40 MSTORE POP DUP2 ADD SWAP1 PUSH2 0x136D SWAP2 SWAP1 PUSH2 0x2B7B JUMP JUMPDEST SWAP1 POP PUSH1 0x0 PUSH1 0x55 PUSH1 0x0 DUP9 PUSH20 0xFFFFFFFFFFFFFFFFFFFFFFFFFFFFFFFFFFFFFFFF AND PUSH20 0xFFFFFFFFFFFFFFFFFFFFFFFFFFFFFFFFFFFFFFFF AND DUP2 MSTORE PUSH1 0x20 ADD SWAP1 DUP2 MSTORE PUSH1 0x20 ADD PUSH1 0x0 KECCAK256 SWAP1 POP PUSH2 0x13BA PUSH2 0x213E JUMP JUMPDEST PUSH1 0x40 MLOAD DUP1 PUSH1 0xA0 ADD PUSH1 0x40 MSTORE DUP1 DUP10 PUSH20 0xFFFFFFFFFFFFFFFFFFFFFFFFFFFFFFFFFFFFFFFF AND DUP2 MSTORE PUSH1 0x20 ADD DUP9 PUSH1 0x1 DUP2 GT ISZERO PUSH2 0x13ED JUMPI INVALID JUMPDEST DUP2 MSTORE PUSH1 0x20 ADD DUP8 PUSH1 0x2 DUP2 GT ISZERO PUSH2 0x13FE JUMPI INVALID JUMPDEST DUP2 MSTORE PUSH1 0x20 ADD DUP7 PUSH1 0x5 DUP2 GT ISZERO PUSH2 0x140F JUMPI INVALID JUMPDEST DUP2 MSTORE PUSH1 0x20 ADD DUP6 DUP2 MSTORE POP SWAP1 POP PUSH2 0x1422 PUSH2 0x2039 JUMP JUMPDEST PUSH2 0x143F DUP3 DUP6 DUP6 PUSH1 0x1 ADD PUSH1 0x0 DUP2 SLOAD DUP1 SWAP3 SWAP2 SWAP1 PUSH1 0x1 ADD SWAP2 SWAP1 POP SSTORE PUSH2 0x1CB7 JUMP JUMPDEST SWAP1 POP DUP3 PUSH1 0x0 ADD DUP2 SWAP1 DUP1 PUSH1 0x1 DUP2 SLOAD ADD DUP1 DUP3 SSTORE DUP1 SWAP2 POP POP PUSH1 0x1 SWAP1 SUB SWAP1 PUSH1 0x0 MSTORE PUSH1 0x20 PUSH1 0x0 KECCAK256 SWAP1 PUSH1 0x1B MUL ADD PUSH1 0x0 SWAP1 SWAP2 SWAP1 SWAP2 SWAP1 SWAP2 POP PUSH1 0x0 DUP3 ADD MLOAD DUP2 PUSH1 0x0 ADD SSTORE PUSH1 0x20 DUP3 ADD MLOAD DUP2 PUSH1 0x1 ADD PUSH1 0x0 PUSH2 0x100 EXP DUP2 SLOAD DUP2 PUSH20 0xFFFFFFFFFFFFFFFFFFFFFFFFFFFFFFFFFFFFFFFF MUL NOT AND SWAP1 DUP4 PUSH20 0xFFFFFFFFFFFFFFFFFFFFFFFFFFFFFFFFFFFFFFFF AND MUL OR SWAP1 SSTORE POP PUSH1 0x40 DUP3 ADD MLOAD DUP2 PUSH1 0x2 ADD PUSH1 0x0 PUSH2 0x100 EXP DUP2 SLOAD DUP2 PUSH20 0xFFFFFFFFFFFFFFFFFFFFFFFFFFFFFFFFFFFFFFFF MUL NOT AND SWAP1 DUP4 PUSH20 0xFFFFFFFFFFFFFFFFFFFFFFFFFFFFFFFFFFFFFFFF AND MUL OR SWAP1 SSTORE POP PUSH1 0x60 DUP3 ADD MLOAD DUP2 PUSH1 0x2 ADD PUSH1 0x14 PUSH2 0x100 EXP DUP2 SLOAD DUP2 PUSH1 0xFF MUL NOT AND SWAP1 DUP4 PUSH1 0x1 DUP2 GT ISZERO PUSH2 0x152B JUMPI INVALID JUMPDEST MUL OR SWAP1 SSTORE POP PUSH1 0x80 DUP3 ADD MLOAD DUP2 PUSH1 0x2 ADD PUSH1 0x15 PUSH2 0x100 EXP DUP2 SLOAD DUP2 PUSH1 0xFF MUL NOT AND SWAP1 DUP4 PUSH1 0x2 DUP2 GT ISZERO PUSH2 0x1554 JUMPI INVALID JUMPDEST MUL OR SWAP1 SSTORE POP PUSH1 0xA0 DUP3 ADD MLOAD DUP2 PUSH1 0x2 ADD PUSH1 0x16 PUSH2 0x100 EXP DUP2 SLOAD DUP2 PUSH1 0xFF MUL NOT AND SWAP1 DUP4 PUSH1 0x5 DUP2 GT ISZERO PUSH2 0x157D JUMPI INVALID JUMPDEST MUL OR SWAP1 SSTORE POP PUSH1 0xC0 DUP3 ADD MLOAD DUP2 PUSH1 0x3 ADD SSTORE PUSH1 0xE0 DUP3 ADD MLOAD DUP2 PUSH1 0x4 ADD SSTORE PUSH2 0x100 DUP3 ADD MLOAD DUP2 PUSH1 0x5 ADD SSTORE PUSH2 0x120 DUP3 ADD MLOAD DUP2 PUSH1 0x6 ADD SSTORE PUSH2 0x140 DUP3 ADD MLOAD DUP2 PUSH1 0x7 ADD PUSH1 0x0 DUP3 ADD MLOAD DUP2 PUSH1 0x0 ADD SWAP1 PUSH1 0x5 PUSH2 0x15CD SWAP3 SWAP2 SWAP1 PUSH2 0x21A4 JUMP JUMPDEST POP PUSH1 0x20 DUP3 ADD MLOAD DUP2 PUSH1 0x5 ADD SWAP1 PUSH1 0x5 PUSH2 0x15E5 SWAP3 SWAP2 SWAP1 PUSH2 0x21A4 JUMP JUMPDEST POP PUSH1 0x40 DUP3 ADD MLOAD DUP2 PUSH1 0xA ADD SWAP1 PUSH1 0x5 PUSH2 0x15FD SWAP3 SWAP2 SWAP1 PUSH2 0x21A4 JUMP JUMPDEST POP PUSH1 0x60 DUP3 ADD MLOAD DUP2 PUSH1 0xF ADD SWAP1 PUSH1 0x5 PUSH2 0x1615 SWAP3 SWAP2 SWAP1 PUSH2 0x21E4 JUMP JUMPDEST POP POP POP PUSH2 0x160 DUP3 ADD MLOAD DUP2 PUSH1 0x17 ADD SWAP1 PUSH1 0x5 PUSH2 0x1630 SWAP3 SWAP2 SWAP1 PUSH2 0x21E4 JUMP JUMPDEST POP PUSH2 0x180 DUP3 ADD MLOAD DUP2 PUSH1 0x18 ADD SSTORE PUSH2 0x1A0 DUP3 ADD MLOAD DUP2 PUSH1 0x19 ADD SSTORE PUSH2 0x1C0 DUP3 ADD MLOAD DUP2 PUSH1 0x1A ADD PUSH1 0x0 PUSH2 0x100 EXP DUP2 SLOAD DUP2 PUSH1 0xFF MUL NOT AND SWAP1 DUP4 ISZERO ISZERO MUL OR SWAP1 SSTORE POP PUSH2 0x1E0 DUP3 ADD MLOAD DUP2 PUSH1 0x1A ADD PUSH1 0x1 PUSH2 0x100 EXP DUP2 SLOAD DUP2 PUSH1 0xFF MUL NOT AND SWAP1 DUP4 PUSH1 0x5 DUP2 GT ISZERO PUSH2 0x168D JUMPI INVALID JUMPDEST MUL OR SWAP1 SSTORE POP POP POP PUSH1 0x1 DUP4 PUSH1 0x2 ADD PUSH1 0x0 PUSH2 0x100 EXP DUP2 SLOAD DUP2 PUSH1 0xFF MUL NOT AND SWAP1 DUP4 ISZERO ISZERO MUL OR SWAP1 SSTORE POP PUSH1 0x56 CALLER SWAP1 DUP1 PUSH1 0x1 DUP2 SLOAD ADD DUP1 DUP3 SSTORE DUP1 SWAP2 POP POP PUSH1 0x1 SWAP1 SUB SWAP1 PUSH1 0x0 MSTORE PUSH1 0x20 PUSH1 0x0 KECCAK256 ADD PUSH1 0x0 SWAP1 SWAP2 SWAP1 SWAP2 SWAP1 SWAP2 PUSH2 0x100 EXP DUP2 SLOAD DUP2 PUSH20 0xFFFFFFFFFFFFFFFFFFFFFFFFFFFFFFFFFFFFFFFF MUL NOT AND SWAP1 DUP4 PUSH20 0xFFFFFFFFFFFFFFFFFFFFFFFFFFFFFFFFFFFFFFFF AND MUL OR SWAP1 SSTORE POP PUSH32 0x787A470148C364FF9C70E82B2C6C1B0BECBCA7969011737F1F93CE9307B424E9 DUP10 DUP10 DUP10 DUP10 DUP10 DUP7 PUSH1 0x0 ADD MLOAD PUSH1 0x40 MLOAD PUSH2 0x1751 SWAP7 SWAP6 SWAP5 SWAP4 SWAP3 SWAP2 SWAP1 PUSH2 0x346E JUMP JUMPDEST PUSH1 0x40 MLOAD DUP1 SWAP2 SUB SWAP1 LOG1 POP POP POP POP POP POP POP POP POP JUMP JUMPDEST PUSH1 0x0 PUSH1 0x1 DUP2 GT ISZERO PUSH2 0x1771 JUMPI INVALID JUMPDEST DUP6 PUSH1 0x1 DUP2 GT ISZERO PUSH2 0x177D JUMPI INVALID JUMPDEST EQ ISZERO PUSH2 0x1802 JUMPI DUP6 PUSH20 0xFFFFFFFFFFFFFFFFFFFFFFFFFFFFFFFFFFFFFFFF AND CALLER PUSH20 0xFFFFFFFFFFFFFFFFFFFFFFFFFFFFFFFFFFFFFFFF AND EQ PUSH2 0x17F1 JUMPI PUSH1 0x40 MLOAD PUSH32 0x8C379A000000000000000000000000000000000000000000000000000000000 DUP2 MSTORE PUSH1 0x4 ADD PUSH2 0x17E8 SWAP1 PUSH2 0x3680 JUMP JUMPDEST PUSH1 0x40 MLOAD DUP1 SWAP2 SUB SWAP1 REVERT JUMPDEST PUSH2 0x17FD DUP8 DUP8 DUP4 DUP6 PUSH2 0x255 JUMP JUMPDEST PUSH2 0x187D JUMP JUMPDEST DUP7 PUSH20 0xFFFFFFFFFFFFFFFFFFFFFFFFFFFFFFFFFFFFFFFF AND CALLER PUSH20 0xFFFFFFFFFFFFFFFFFFFFFFFFFFFFFFFFFFFFFFFF AND EQ PUSH2 0x1870 JUMPI PUSH1 0x40 MLOAD PUSH32 0x8C379A000000000000000000000000000000000000000000000000000000000 DUP2 MSTORE PUSH1 0x4 ADD PUSH2 0x1867 SWAP1 PUSH2 0x36A0 JUMP JUMPDEST PUSH1 0x40 MLOAD DUP1 SWAP2 SUB SWAP1 REVERT JUMPDEST PUSH2 0x187C DUP8 DUP8 DUP4 DUP6 PUSH2 0x255 JUMP JUMPDEST JUMPDEST DUP6 PUSH20 0xFFFFFFFFFFFFFFFFFFFFFFFFFFFFFFFFFFFFFFFF AND DUP8 PUSH20 0xFFFFFFFFFFFFFFFFFFFFFFFFFFFFFFFFFFFFFFFF AND PUSH32 0x52F2CBDDB551A0CD4AD65095542B2EFD13CD261642F4034C3B0C01B232C2591D DUP8 DUP8 DUP8 DUP8 DUP8 PUSH1 0x40 MLOAD PUSH2 0x18E2 SWAP6 SWAP5 SWAP4 SWAP3 SWAP2 SWAP1 PUSH2 0x35CD JUMP JUMPDEST PUSH1 0x40 MLOAD DUP1 SWAP2 SUB SWAP1 LOG3 POP POP POP POP POP POP POP JUMP JUMPDEST JUMP JUMPDEST PUSH1 0x0 JUMPDEST PUSH1 0x56 DUP1 SLOAD SWAP1 POP DUP2 LT ISZERO PUSH2 0x19CF JUMPI PUSH1 0x0 PUSH1 0x55 PUSH1 0x0 PUSH1 0x56 DUP5 DUP2 SLOAD DUP2 LT PUSH2 0x1918 JUMPI INVALID JUMPDEST SWAP1 PUSH1 0x0 MSTORE PUSH1 0x20 PUSH1 0x0 KECCAK256 ADD PUSH1 0x0 SWAP1 SLOAD SWAP1 PUSH2 0x100 EXP SWAP1 DIV PUSH20 0xFFFFFFFFFFFFFFFFFFFFFFFFFFFFFFFFFFFFFFFF AND PUSH20 0xFFFFFFFFFFFFFFFFFFFFFFFFFFFFFFFFFFFFFFFF AND PUSH20 0xFFFFFFFFFFFFFFFFFFFFFFFFFFFFFFFFFFFFFFFF AND DUP2 MSTORE PUSH1 0x20 ADD SWAP1 DUP2 MSTORE PUSH1 0x20 ADD PUSH1 0x0 KECCAK256 PUSH1 0x0 ADD SWAP1 POP PUSH1 0x0 JUMPDEST DUP2 DUP1 SLOAD SWAP1 POP DUP2 LT ISZERO PUSH2 0x19C0 JUMPI PUSH2 0x19B3 DUP3 DUP3 DUP2 SLOAD DUP2 LT PUSH2 0x19A0 JUMPI INVALID JUMPDEST SWAP1 PUSH1 0x0 MSTORE PUSH1 0x20 PUSH1 0x0 KECCAK256 SWAP1 PUSH1 0x1B MUL ADD PUSH2 0x1A60 JUMP JUMPDEST DUP1 DUP1 PUSH1 0x1 ADD SWAP2 POP POP PUSH2 0x1985 JUMP JUMPDEST POP POP DUP1 DUP1 PUSH1 0x1 ADD SWAP2 POP POP PUSH2 0x18F8 JUMP JUMPDEST POP JUMP JUMPDEST PUSH1 0x60 PUSH1 0x56 DUP1 SLOAD DUP1 PUSH1 0x20 MUL PUSH1 0x20 ADD PUSH1 0x40 MLOAD SWAP1 DUP2 ADD PUSH1 0x40 MSTORE DUP1 SWAP3 SWAP2 SWAP1 DUP2 DUP2 MSTORE PUSH1 0x20 ADD DUP3 DUP1 SLOAD DUP1 ISZERO PUSH2 0x1A56 JUMPI PUSH1 0x20 MUL DUP3 ADD SWAP2 SWAP1 PUSH1 0x0 MSTORE PUSH1 0x20 PUSH1 0x0 KECCAK256 SWAP1 JUMPDEST DUP2 PUSH1 0x0 SWAP1 SLOAD SWAP1 PUSH2 0x100 EXP SWAP1 DIV PUSH20 0xFFFFFFFFFFFFFFFFFFFFFFFFFFFFFFFFFFFFFFFF AND PUSH20 0xFFFFFFFFFFFFFFFFFFFFFFFFFFFFFFFFFFFFFFFF AND DUP2 MSTORE PUSH1 0x20 ADD SWAP1 PUSH1 0x1 ADD SWAP1 DUP1 DUP4 GT PUSH2 0x1A0C JUMPI JUMPDEST POP POP POP POP POP SWAP1 POP SWAP1 JUMP JUMPDEST PUSH2 0x1A68 PUSH2 0x227D JUMP JUMPDEST PUSH1 0x57 PUSH1 0x0 SWAP1 SLOAD SWAP1 PUSH2 0x100 EXP SWAP1 DIV PUSH20 0xFFFFFFFFFFFFFFFFFFFFFFFFFFFFFFFFFFFFFFFF AND PUSH20 0xFFFFFFFFFFFFFFFFFFFFFFFFFFFFFFFFFFFFFFFF AND PUSH4 0x69FA00C PUSH1 0x40 MLOAD DUP2 PUSH4 0xFFFFFFFF AND PUSH1 0xE0 SHL DUP2 MSTORE PUSH1 0x4 ADD PUSH2 0x2A0 PUSH1 0x40 MLOAD DUP1 DUP4 SUB DUP2 DUP7 DUP1 EXTCODESIZE ISZERO DUP1 ISZERO PUSH2 0x1AD1 JUMPI PUSH1 0x0 DUP1 REVERT JUMPDEST POP GAS STATICCALL ISZERO DUP1 ISZERO PUSH2 0x1AE5 JUMPI RETURNDATASIZE PUSH1 0x0 DUP1 RETURNDATACOPY RETURNDATASIZE PUSH1 0x0 REVERT JUMPDEST POP POP POP POP PUSH1 0x40 MLOAD RETURNDATASIZE PUSH1 0x1F NOT PUSH1 0x1F DUP3 ADD AND DUP3 ADD DUP1 PUSH1 0x40 MSTORE POP DUP2 ADD SWAP1 PUSH2 0x1B09 SWAP2 SWAP1 PUSH2 0x2A46 JUMP JUMPDEST SWAP1 POP PUSH2 0x1B13 PUSH2 0x22AA JUMP JUMPDEST DUP2 DUP4 PUSH1 0x2 ADD PUSH1 0x15 SWAP1 SLOAD SWAP1 PUSH2 0x100 EXP SWAP1 DIV PUSH1 0xFF AND PUSH1 0x2 DUP2 GT ISZERO PUSH2 0x1B31 JUMPI INVALID JUMPDEST PUSH1 0x3 DUP2 LT PUSH2 0x1B3B JUMPI INVALID JUMPDEST PUSH1 0x20 MUL ADD MLOAD SWAP1 POP PUSH2 0x1B4A PUSH2 0x22E7 JUMP JUMPDEST PUSH1 0x40 MLOAD DUP1 PUSH1 0xE0 ADD PUSH1 0x40 MSTORE DUP1 DUP4 PUSH1 0x0 ADD MLOAD DUP2 MSTORE PUSH1 0x20 ADD DUP4 PUSH1 0x20 ADD MLOAD DUP2 MSTORE PUSH1 0x20 ADD DUP4 PUSH1 0x40 ADD MLOAD DUP2 MSTORE PUSH1 0x20 ADD DUP4 PUSH1 0x60 ADD MLOAD DUP2 MSTORE PUSH1 0x20 ADD DUP4 PUSH1 0x80 ADD MLOAD DUP2 MSTORE PUSH1 0x20 ADD DUP4 PUSH1 0xA0 ADD MLOAD DUP2 MSTORE PUSH1 0x20 ADD DUP4 PUSH1 0xC0 ADD MLOAD DUP2 MSTORE POP SWAP1 POP PUSH2 0x1BA3 PUSH2 0x211C JUMP JUMPDEST PUSH1 0x0 DUP1 JUMPDEST PUSH1 0x48 DUP8 PUSH1 0x2 ADD PUSH1 0x16 SWAP1 SLOAD SWAP1 PUSH2 0x100 EXP SWAP1 DIV PUSH1 0xFF AND PUSH1 0x5 DUP2 GT ISZERO PUSH2 0x1BC6 JUMPI INVALID JUMPDEST PUSH1 0x6 DUP2 LT PUSH2 0x1BD0 JUMPI INVALID JUMPDEST ADD SLOAD DUP2 LT ISZERO PUSH2 0x1C43 JUMPI PUSH1 0x0 PUSH2 0x1BF8 DUP6 DUP10 PUSH1 0x7 ADD PUSH1 0x5 ADD DUP5 PUSH1 0x5 DUP2 LT PUSH2 0x1BF1 JUMPI INVALID JUMPDEST ADD SLOAD PUSH2 0x1EC8 JUMP JUMPDEST SWAP1 POP DUP1 DUP5 DUP4 PUSH1 0x5 DUP2 LT PUSH2 0x1C07 JUMPI INVALID JUMPDEST PUSH1 0x20 MUL ADD DUP2 DUP2 MSTORE POP POP PUSH2 0x2710 DUP2 DUP10 PUSH1 0x7 ADD PUSH1 0xA ADD DUP5 PUSH1 0x5 DUP2 LT PUSH2 0x1C26 JUMPI INVALID JUMPDEST ADD SLOAD MUL DUP2 PUSH2 0x1C30 JUMPI INVALID JUMPDEST DIV DUP4 ADD SWAP3 POP POP DUP1 DUP1 PUSH1 0x1 ADD SWAP2 POP POP PUSH2 0x1BA7 JUMP JUMPDEST POP PUSH1 0x0 PUSH1 0x1 PUSH1 0x48 DUP9 PUSH1 0x2 ADD PUSH1 0x16 SWAP1 SLOAD SWAP1 PUSH2 0x100 EXP SWAP1 DIV PUSH1 0xFF AND PUSH1 0x5 DUP2 GT ISZERO PUSH2 0x1C67 JUMPI INVALID JUMPDEST PUSH1 0x6 DUP2 LT PUSH2 0x1C71 JUMPI INVALID JUMPDEST ADD SLOAD SUB SWAP1 POP PUSH2 0x2710 DUP4 DUP3 PUSH1 0x5 DUP2 LT PUSH2 0x1C85 JUMPI INVALID JUMPDEST PUSH1 0x20 MUL ADD MLOAD DUP9 PUSH1 0x3 ADD SLOAD MUL DUP2 PUSH2 0x1C97 JUMPI INVALID JUMPDEST DIV DUP3 ADD SWAP2 POP DUP2 DUP8 PUSH1 0x18 ADD DUP2 SWAP1 SSTORE POP TIMESTAMP DUP8 PUSH1 0x19 ADD DUP2 SWAP1 SSTORE POP POP POP POP POP POP POP POP JUMP JUMPDEST PUSH2 0x1CBF PUSH2 0x2039 JUMP JUMPDEST PUSH2 0x1CC7 PUSH2 0x2039 JUMP JUMPDEST DUP3 DUP2 PUSH1 0x0 ADD DUP2 DUP2 MSTORE POP POP PUSH1 0x0 PUSH1 0x1 DUP2 GT ISZERO PUSH2 0x1CDE JUMPI INVALID JUMPDEST DUP6 PUSH1 0x20 ADD MLOAD PUSH1 0x1 DUP2 GT ISZERO PUSH2 0x1CEE JUMPI INVALID JUMPDEST EQ PUSH2 0x1CF9 JUMPI CALLER PUSH2 0x1CFF JUMP JUMPDEST DUP5 PUSH1 0x0 ADD MLOAD JUMPDEST DUP2 PUSH1 0x20 ADD SWAP1 PUSH20 0xFFFFFFFFFFFFFFFFFFFFFFFFFFFFFFFFFFFFFFFF AND SWAP1 DUP2 PUSH20 0xFFFFFFFFFFFFFFFFFFFFFFFFFFFFFFFFFFFFFFFF AND DUP2 MSTORE POP POP PUSH1 0x1 DUP1 DUP2 GT ISZERO PUSH2 0x1D42 JUMPI INVALID JUMPDEST DUP6 PUSH1 0x20 ADD MLOAD PUSH1 0x1 DUP2 GT ISZERO PUSH2 0x1D52 JUMPI INVALID JUMPDEST EQ PUSH2 0x1D5D JUMPI CALLER PUSH2 0x1D63 JUMP JUMPDEST DUP5 PUSH1 0x0 ADD MLOAD JUMPDEST DUP2 PUSH1 0x40 ADD SWAP1 PUSH20 0xFFFFFFFFFFFFFFFFFFFFFFFFFFFFFFFFFFFFFFFF AND SWAP1 DUP2 PUSH20 0xFFFFFFFFFFFFFFFFFFFFFFFFFFFFFFFFFFFFFFFF AND DUP2 MSTORE POP POP DUP5 PUSH1 0x20 ADD MLOAD DUP2 PUSH1 0x60 ADD SWAP1 PUSH1 0x1 DUP2 GT ISZERO PUSH2 0x1DAF JUMPI INVALID JUMPDEST SWAP1 DUP2 PUSH1 0x1 DUP2 GT ISZERO PUSH2 0x1DBC JUMPI INVALID JUMPDEST DUP2 MSTORE POP POP DUP5 PUSH1 0x40 ADD MLOAD DUP2 PUSH1 0x80 ADD SWAP1 PUSH1 0x2 DUP2 GT ISZERO PUSH2 0x1DD5 JUMPI INVALID JUMPDEST SWAP1 DUP2 PUSH1 0x2 DUP2 GT ISZERO PUSH2 0x1DE2 JUMPI INVALID JUMPDEST DUP2 MSTORE POP POP DUP5 PUSH1 0x60 ADD MLOAD DUP2 PUSH1 0xA0 ADD SWAP1 PUSH1 0x5 DUP2 GT ISZERO PUSH2 0x1DFB JUMPI INVALID JUMPDEST SWAP1 DUP2 PUSH1 0x5 DUP2 GT ISZERO PUSH2 0x1E08 JUMPI INVALID JUMPDEST DUP2 MSTORE POP POP DUP5 PUSH1 0x80 ADD MLOAD DUP2 PUSH1 0xC0 ADD DUP2 DUP2 MSTORE POP POP DUP4 DUP2 PUSH1 0xE0 ADD DUP2 DUP2 MSTORE POP POP TIMESTAMP DUP2 PUSH2 0x100 ADD DUP2 DUP2 MSTORE POP POP PUSH1 0x0 DUP6 PUSH1 0x60 ADD MLOAD PUSH1 0x5 DUP2 GT ISZERO PUSH2 0x1E41 JUMPI INVALID JUMPDEST PUSH1 0x6 DUP2 LT PUSH2 0x1E4B JUMPI INVALID JUMPDEST ADD SLOAD TIMESTAMP ADD DUP2 PUSH2 0x120 ADD DUP2 DUP2 MSTORE POP POP PUSH2 0x1E6D DUP2 DUP7 PUSH1 0x60 ADD MLOAD DUP8 PUSH1 0x80 ADD MLOAD DUP8 PUSH2 0xF68 JUMP JUMPDEST DUP5 PUSH1 0x80 ADD MLOAD DUP2 PUSH2 0x180 ADD DUP2 DUP2 MSTORE POP POP TIMESTAMP DUP2 PUSH2 0x1A0 ADD DUP2 DUP2 MSTORE POP POP PUSH1 0x1 DUP2 PUSH2 0x1C0 ADD SWAP1 ISZERO ISZERO SWAP1 DUP2 ISZERO ISZERO DUP2 MSTORE POP POP PUSH1 0x0 DUP2 PUSH2 0x1E0 ADD SWAP1 PUSH1 0x5 DUP2 GT ISZERO PUSH2 0x1EAC JUMPI INVALID JUMPDEST SWAP1 DUP2 PUSH1 0x5 DUP2 GT ISZERO PUSH2 0x1EB9 JUMPI INVALID JUMPDEST DUP2 MSTORE POP POP DUP1 SWAP2 POP POP SWAP4 SWAP3 POP POP POP JUMP JUMPDEST PUSH1 0x0 TIMESTAMP DUP3 GT PUSH2 0x1EDA JUMPI PUSH1 0x0 SWAP1 POP PUSH2 0x2010 JUMP JUMPDEST PUSH1 0x0 TIMESTAMP DUP4 SUB SWAP1 POP PUSH1 0x4E PUSH1 0x0 PUSH1 0x7 DUP2 LT PUSH2 0x1EEF JUMPI INVALID JUMPDEST ADD SLOAD DUP2 GT PUSH2 0x1F2B JUMPI PUSH1 0x4E PUSH1 0x0 PUSH1 0x7 DUP2 LT PUSH2 0x1F05 JUMPI INVALID JUMPDEST ADD SLOAD DUP2 DUP6 PUSH1 0x0 PUSH1 0x7 DUP2 LT PUSH2 0x1F15 JUMPI INVALID JUMPDEST PUSH1 0x20 MUL ADD MLOAD MUL DUP2 PUSH2 0x1F22 JUMPI INVALID JUMPDEST DIV SWAP2 POP POP PUSH2 0x2010 JUMP JUMPDEST PUSH1 0x0 PUSH1 0x1 SWAP1 POP JUMPDEST PUSH1 0x7 DUP2 LT ISZERO PUSH2 0x200D JUMPI DUP2 PUSH1 0x4E PUSH1 0x1 DUP4 SUB PUSH1 0x7 DUP2 LT PUSH2 0x1F4C JUMPI INVALID JUMPDEST ADD SLOAD LT DUP1 ISZERO PUSH2 0x1F69 JUMPI POP PUSH1 0x4E DUP2 PUSH1 0x7 DUP2 LT PUSH2 0x1F63 JUMPI INVALID JUMPDEST ADD SLOAD DUP3 GT ISZERO JUMPDEST ISZERO PUSH2 0x2000 JUMPI PUSH1 0x0 PUSH1 0x4E PUSH1 0x1 DUP4 SUB PUSH1 0x7 DUP2 LT PUSH2 0x1F80 JUMPI INVALID JUMPDEST ADD SLOAD DUP4 SUB SWAP1 POP PUSH1 0x0 DUP4 PUSH1 0x4E DUP5 PUSH1 0x7 DUP2 LT PUSH2 0x1F96 JUMPI INVALID JUMPDEST ADD SLOAD SUB SWAP1 POP PUSH1 0x0 PUSH1 0x4E PUSH1 0x1 DUP6 SUB PUSH1 0x7 DUP2 LT PUSH2 0x1FAD JUMPI INVALID JUMPDEST ADD SLOAD PUSH1 0x4E DUP6 PUSH1 0x7 DUP2 LT PUSH2 0x1FBC JUMPI INVALID JUMPDEST ADD SLOAD SUB SWAP1 POP DUP1 DUP4 DUP10 DUP7 PUSH1 0x7 DUP2 LT PUSH2 0x1FCF JUMPI INVALID JUMPDEST PUSH1 0x20 MUL ADD MLOAD MUL DUP4 DUP11 PUSH1 0x1 DUP9 SUB PUSH1 0x7 DUP2 LT PUSH2 0x1FE5 JUMPI INVALID JUMPDEST PUSH1 0x20 MUL ADD MLOAD MUL ADD DUP2 PUSH2 0x1FF3 JUMPI INVALID JUMPDEST DIV SWAP6 POP POP POP POP POP POP PUSH2 0x2010 JUMP JUMPDEST DUP1 DUP1 PUSH1 0x1 ADD SWAP2 POP POP PUSH2 0x1F32 JUMP JUMPDEST POP POP JUMPDEST SWAP3 SWAP2 POP POP JUMP JUMPDEST PUSH1 0x40 MLOAD DUP1 PUSH1 0x60 ADD PUSH1 0x40 MSTORE DUP1 PUSH1 0x60 DUP2 MSTORE PUSH1 0x20 ADD PUSH1 0x0 DUP2 MSTORE PUSH1 0x20 ADD PUSH1 0x0 ISZERO ISZERO DUP2 MSTORE POP SWAP1 JUMP JUMPDEST PUSH1 0x40 MLOAD DUP1 PUSH2 0x200 ADD PUSH1 0x40 MSTORE DUP1 PUSH1 0x0 DUP2 MSTORE PUSH1 0x20 ADD PUSH1 0x0 PUSH20 0xFFFFFFFFFFFFFFFFFFFFFFFFFFFFFFFFFFFFFFFF AND DUP2 MSTORE PUSH1 0x20 ADD PUSH1 0x0 PUSH20 0xFFFFFFFFFFFFFFFFFFFFFFFFFFFFFFFFFFFFFFFF AND DUP2 MSTORE PUSH1 0x20 ADD PUSH1 0x0 PUSH1 0x1 DUP2 GT ISZERO PUSH2 0x2093 JUMPI INVALID JUMPDEST DUP2 MSTORE PUSH1 0x20 ADD PUSH1 0x0 PUSH1 0x2 DUP2 GT ISZERO PUSH2 0x20A5 JUMPI INVALID JUMPDEST DUP2 MSTORE PUSH1 0x20 ADD PUSH1 0x0 PUSH1 0x5 DUP2 GT ISZERO PUSH2 0x20B7 JUMPI INVALID JUMPDEST DUP2 MSTORE PUSH1 0x20 ADD PUSH1 0x0 DUP2 MSTORE PUSH1 0x20 ADD PUSH1 0x0 DUP2 MSTORE PUSH1 0x20 ADD PUSH1 0x0 DUP2 MSTORE PUSH1 0x20 ADD PUSH1 0x0 DUP2 MSTORE PUSH1 0x20 ADD PUSH2 0x20E0 PUSH2 0x2309 JUMP JUMPDEST DUP2 MSTORE PUSH1 0x20 ADD PUSH2 0x20ED PUSH2 0x2349 JUMP JUMPDEST DUP2 MSTORE PUSH1 0x20 ADD PUSH1 0x0 DUP2 MSTORE PUSH1 0x20 ADD PUSH1 0x0 DUP2 MSTORE PUSH1 0x20 ADD PUSH1 0x0 ISZERO ISZERO DUP2 MSTORE PUSH1 0x20 ADD PUSH1 0x0 PUSH1 0x5 DUP2 GT ISZERO PUSH2 0x2116 JUMPI INVALID JUMPDEST DUP2 MSTORE POP SWAP1 JUMP JUMPDEST PUSH1 0x40 MLOAD DUP1 PUSH1 0xA0 ADD PUSH1 0x40 MSTORE DUP1 PUSH1 0x5 SWAP1 PUSH1 0x20 DUP3 MUL DUP1 CALLDATASIZE DUP4 CALLDATACOPY DUP1 DUP3 ADD SWAP2 POP POP SWAP1 POP POP SWAP1 JUMP JUMPDEST PUSH1 0x40 MLOAD DUP1 PUSH1 0xA0 ADD PUSH1 0x40 MSTORE DUP1 PUSH1 0x0 PUSH20 0xFFFFFFFFFFFFFFFFFFFFFFFFFFFFFFFFFFFFFFFF AND DUP2 MSTORE PUSH1 0x20 ADD PUSH1 0x0 PUSH1 0x1 DUP2 GT ISZERO PUSH2 0x2173 JUMPI INVALID JUMPDEST DUP2 MSTORE PUSH1 0x20 ADD PUSH1 0x0 PUSH1 0x2 DUP2 GT ISZERO PUSH2 0x2185 JUMPI INVALID JUMPDEST DUP2 MSTORE PUSH1 0x20 ADD PUSH1 0x0 PUSH1 0x5 DUP2 GT ISZERO PUSH2 0x2197 JUMPI INVALID JUMPDEST DUP2 MSTORE PUSH1 0x20 ADD PUSH1 0x0 DUP2 MSTORE POP SWAP1 JUMP JUMPDEST DUP3 PUSH1 0x5 DUP2 ADD SWAP3 DUP3 ISZERO PUSH2 0x21D3 JUMPI SWAP2 PUSH1 0x20 MUL DUP3 ADD JUMPDEST DUP3 DUP2 GT ISZERO PUSH2 0x21D2 JUMPI DUP3 MLOAD DUP3 SSTORE SWAP2 PUSH1 0x20 ADD SWAP2 SWAP1 PUSH1 0x1 ADD SWAP1 PUSH2 0x21B7 JUMP JUMPDEST JUMPDEST POP SWAP1 POP PUSH2 0x21E0 SWAP2 SWAP1 PUSH2 0x236B JUMP JUMPDEST POP SWAP1 JUMP JUMPDEST DUP3 PUSH1 0x5 PUSH1 0x1F ADD PUSH1 0x20 SWAP1 DIV DUP2 ADD SWAP3 DUP3 ISZERO PUSH2 0x226C JUMPI SWAP2 PUSH1 0x20 MUL DUP3 ADD PUSH1 0x0 JUMPDEST DUP4 DUP3 GT ISZERO PUSH2 0x223D JUMPI DUP4 MLOAD DUP4 DUP3 PUSH2 0x100 EXP DUP2 SLOAD DUP2 PUSH1 0xFF MUL NOT AND SWAP1 DUP4 ISZERO ISZERO MUL OR SWAP1 SSTORE POP SWAP3 PUSH1 0x20 ADD SWAP3 PUSH1 0x1 ADD PUSH1 0x20 DUP2 PUSH1 0x0 ADD DIV SWAP3 DUP4 ADD SWAP3 PUSH1 0x1 SUB MUL PUSH2 0x2200 JUMP JUMPDEST DUP1 ISZERO PUSH2 0x226A JUMPI DUP3 DUP2 PUSH2 0x100 EXP DUP2 SLOAD SWAP1 PUSH1 0xFF MUL NOT AND SWAP1 SSTORE PUSH1 0x1 ADD PUSH1 0x20 DUP2 PUSH1 0x0 ADD DIV SWAP3 DUP4 ADD SWAP3 PUSH1 0x1 SUB MUL PUSH2 0x223D JUMP JUMPDEST POP JUMPDEST POP SWAP1 POP PUSH2 0x2279 SWAP2 SWAP1 PUSH2 0x2388 JUMP JUMPDEST POP SWAP1 JUMP JUMPDEST PUSH1 0x40 MLOAD DUP1 PUSH1 0x60 ADD PUSH1 0x40 MSTORE DUP1 PUSH1 0x3 SWAP1 JUMPDEST PUSH2 0x2294 PUSH2 0x22AA JUMP JUMPDEST DUP2 MSTORE PUSH1 0x20 ADD SWAP1 PUSH1 0x1 SWAP1 SUB SWAP1 DUP2 PUSH2 0x228C JUMPI SWAP1 POP POP SWAP1 JUMP JUMPDEST PUSH1 0x40 MLOAD DUP1 PUSH1 0xE0 ADD PUSH1 0x40 MSTORE DUP1 PUSH1 0x0 DUP2 MSTORE PUSH1 0x20 ADD PUSH1 0x0 DUP2 MSTORE PUSH1 0x20 ADD PUSH1 0x0 DUP2 MSTORE PUSH1 0x20 ADD PUSH1 0x0 DUP2 MSTORE PUSH1 0x20 ADD PUSH1 0x0 DUP2 MSTORE PUSH1 0x20 ADD PUSH1 0x0 DUP2 MSTORE PUSH1 0x20 ADD PUSH1 0x0 DUP2 MSTORE POP SWAP1 JUMP JUMPDEST PUSH1 0x40 MLOAD DUP1 PUSH1 0xE0 ADD PUSH1 0x40 MSTORE DUP1 PUSH1 0x7 SWAP1 PUSH1 0x20 DUP3 MUL DUP1 CALLDATASIZE DUP4 CALLDATACOPY DUP1 DUP3 ADD SWAP2 POP POP SWAP1 POP POP SWAP1 JUMP JUMPDEST PUSH1 0x40 MLOAD DUP1 PUSH1 0x80 ADD PUSH1 0x40 MSTORE DUP1 PUSH2 0x231C PUSH2 0x211C JUMP JUMPDEST DUP2 MSTORE PUSH1 0x20 ADD PUSH2 0x2329 PUSH2 0x211C JUMP JUMPDEST DUP2 MSTORE PUSH1 0x20 ADD PUSH2 0x2336 PUSH2 0x211C JUMP JUMPDEST DUP2 MSTORE PUSH1 0x20 ADD PUSH2 0x2343 PUSH2 0x2349 JUMP JUMPDEST DUP2 MSTORE POP SWAP1 JUMP JUMPDEST PUSH1 0x40 MLOAD DUP1 PUSH1 0xA0 ADD PUSH1 0x40 MSTORE DUP1 PUSH1 0x5 SWAP1 PUSH1 0x20 DUP3 MUL DUP1 CALLDATASIZE DUP4 CALLDATACOPY DUP1 DUP3 ADD SWAP2 POP POP SWAP1 POP POP SWAP1 JUMP JUMPDEST JUMPDEST DUP1 DUP3 GT ISZERO PUSH2 0x2384 JUMPI PUSH1 0x0 DUP2 PUSH1 0x0 SWAP1 SSTORE POP PUSH1 0x1 ADD PUSH2 0x236C JUMP JUMPDEST POP SWAP1 JUMP JUMPDEST JUMPDEST DUP1 DUP3 GT ISZERO PUSH2 0x23AC JUMPI PUSH1 0x0 DUP2 DUP2 PUSH2 0x100 EXP DUP2 SLOAD SWAP1 PUSH1 0xFF MUL NOT AND SWAP1 SSTORE POP PUSH1 0x1 ADD PUSH2 0x2389 JUMP JUMPDEST POP SWAP1 JUMP JUMPDEST PUSH1 0x0 DUP2 CALLDATALOAD SWAP1 POP PUSH2 0x23BF DUP2 PUSH2 0x3A97 JUMP JUMPDEST SWAP3 SWAP2 POP POP JUMP JUMPDEST PUSH1 0x0 DUP3 PUSH1 0x1F DUP4 ADD SLT PUSH2 0x23D6 JUMPI PUSH1 0x0 DUP1 REVERT JUMPDEST PUSH1 0x5 PUSH2 0x23E9 PUSH2 0x23E4 DUP3 PUSH2 0x374B JUMP JUMPDEST PUSH2 0x371E JUMP JUMPDEST SWAP2 POP DUP2 DUP4 DUP6 PUSH1 0x20 DUP5 MUL DUP3 ADD GT ISZERO PUSH2 0x23FF JUMPI PUSH1 0x0 DUP1 REVERT JUMPDEST PUSH1 0x0 JUMPDEST DUP4 DUP2 LT ISZERO PUSH2 0x242F JUMPI DUP2 PUSH2 0x2415 DUP9 DUP3 PUSH2 0x2521 JUMP JUMPDEST DUP5 MSTORE PUSH1 0x20 DUP5 ADD SWAP4 POP PUSH1 0x20 DUP4 ADD SWAP3 POP POP PUSH1 0x1 DUP2 ADD SWAP1 POP PUSH2 0x2402 JUMP JUMPDEST POP POP POP POP SWAP3 SWAP2 POP POP JUMP JUMPDEST PUSH1 0x0 DUP3 PUSH1 0x1F DUP4 ADD SLT PUSH2 0x244A JUMPI PUSH1 0x0 DUP1 REVERT JUMPDEST PUSH1 0x3 PUSH2 0x245D PUSH2 0x2458 DUP3 PUSH2 0x376D JUMP JUMPDEST PUSH2 0x371E JUMP JUMPDEST SWAP2 POP DUP2 DUP4 DUP6 PUSH1 0xE0 DUP5 MUL DUP3 ADD GT ISZERO PUSH2 0x2473 JUMPI PUSH1 0x0 DUP1 REVERT JUMPDEST PUSH1 0x0 JUMPDEST DUP4 DUP2 LT ISZERO PUSH2 0x24A3 JUMPI DUP2 PUSH2 0x2489 DUP9 DUP3 PUSH2 0x25DE JUMP JUMPDEST DUP5 MSTORE PUSH1 0x20 DUP5 ADD SWAP4 POP PUSH1 0xE0 DUP4 ADD SWAP3 POP POP PUSH1 0x1 DUP2 ADD SWAP1 POP PUSH2 0x2476 JUMP JUMPDEST POP POP POP POP SWAP3 SWAP2 POP POP JUMP JUMPDEST PUSH1 0x0 DUP3 PUSH1 0x1F DUP4 ADD SLT PUSH2 0x24BE JUMPI PUSH1 0x0 DUP1 REVERT JUMPDEST PUSH1 0x5 PUSH2 0x24D1 PUSH2 0x24CC DUP3 PUSH2 0x378F JUMP JUMPDEST PUSH2 0x371E JUMP JUMPDEST SWAP2 POP DUP2 DUP4 DUP6 PUSH1 0x20 DUP5 MUL DUP3 ADD GT ISZERO PUSH2 0x24E7 JUMPI PUSH1 0x0 DUP1 REVERT JUMPDEST PUSH1 0x0 JUMPDEST DUP4 DUP2 LT ISZERO PUSH2 0x2517 JUMPI DUP2 PUSH2 0x24FD DUP9 DUP3 PUSH2 0x287B JUMP JUMPDEST DUP5 MSTORE PUSH1 0x20 DUP5 ADD SWAP4 POP PUSH1 0x20 DUP4 ADD SWAP3 POP POP PUSH1 0x1 DUP2 ADD SWAP1 POP PUSH2 0x24EA JUMP JUMPDEST POP POP POP POP SWAP3 SWAP2 POP POP JUMP JUMPDEST PUSH1 0x0 DUP2 CALLDATALOAD SWAP1 POP PUSH2 0x2530 DUP2 PUSH2 0x3AAE JUMP JUMPDEST SWAP3 SWAP2 POP POP JUMP JUMPDEST PUSH1 0x0 DUP2 CALLDATALOAD SWAP1 POP PUSH2 0x2545 DUP2 PUSH2 0x3AC5 JUMP JUMPDEST SWAP3 SWAP2 POP POP JUMP JUMPDEST PUSH1 0x0 DUP2 CALLDATALOAD SWAP1 POP PUSH2 0x255A DUP2 PUSH2 0x3AD5 JUMP JUMPDEST SWAP3 SWAP2 POP POP JUMP JUMPDEST PUSH1 0x0 DUP2 CALLDATALOAD SWAP1 POP PUSH2 0x256F DUP2 PUSH2 0x3AE5 JUMP JUMPDEST SWAP3 SWAP2 POP POP JUMP JUMPDEST PUSH1 0x0 DUP2 CALLDATALOAD SWAP1 POP PUSH2 0x2584 DUP2 PUSH2 0x3AF5 JUMP JUMPDEST SWAP3 SWAP2 POP POP JUMP JUMPDEST PUSH1 0x0 DUP3 PUSH1 0x1F DUP4 ADD SLT PUSH2 0x259B JUMPI PUSH1 0x0 DUP1 REVERT JUMPDEST DUP2 CALLDATALOAD PUSH2 0x25AE PUSH2 0x25A9 DUP3 PUSH2 0x37B1 JUMP JUMPDEST PUSH2 0x371E JUMP JUMPDEST SWAP2 POP DUP1 DUP3 MSTORE PUSH1 0x20 DUP4 ADD PUSH1 0x20 DUP4 ADD DUP6 DUP4 DUP4 ADD GT ISZERO PUSH2 0x25CA JUMPI PUSH1 0x0 DUP1 REVERT JUMPDEST PUSH2 0x25D5 DUP4 DUP3 DUP5 PUSH2 0x3A10 JUMP JUMPDEST POP POP POP SWAP3 SWAP2 POP POP JUMP JUMPDEST PUSH1 0x0 PUSH1 0xE0 DUP3 DUP5 SUB SLT ISZERO PUSH2 0x25F0 JUMPI PUSH1 0x0 DUP1 REVERT JUMPDEST PUSH2 0x25FA PUSH1 0xE0 PUSH2 0x371E JUMP JUMPDEST SWAP1 POP PUSH1 0x0 PUSH2 0x260A DUP5 DUP3 DUP6 ADD PUSH2 0x2890 JUMP JUMPDEST PUSH1 0x0 DUP4 ADD MSTORE POP PUSH1 0x20 PUSH2 0x261E DUP5 DUP3 DUP6 ADD PUSH2 0x2890 JUMP JUMPDEST PUSH1 0x20 DUP4 ADD MSTORE POP PUSH1 0x40 PUSH2 0x2632 DUP5 DUP3 DUP6 ADD PUSH2 0x2890 JUMP JUMPDEST PUSH1 0x40 DUP4 ADD MSTORE POP PUSH1 0x60 PUSH2 0x2646 DUP5 DUP3 DUP6 ADD PUSH2 0x2890 JUMP JUMPDEST PUSH1 0x60 DUP4 ADD MSTORE POP PUSH1 0x80 PUSH2 0x265A DUP5 DUP3 DUP6 ADD PUSH2 0x2890 JUMP JUMPDEST PUSH1 0x80 DUP4 ADD MSTORE POP PUSH1 0xA0 PUSH2 0x266E DUP5 DUP3 DUP6 ADD PUSH2 0x2890 JUMP JUMPDEST PUSH1 0xA0 DUP4 ADD MSTORE POP PUSH1 0xC0 PUSH2 0x2682 DUP5 DUP3 DUP6 ADD PUSH2 0x2890 JUMP JUMPDEST PUSH1 0xC0 DUP4 ADD MSTORE POP SWAP3 SWAP2 POP POP JUMP JUMPDEST PUSH1 0x0 PUSH2 0x4E0 DUP3 DUP5 SUB SLT ISZERO PUSH2 0x26A1 JUMPI PUSH1 0x0 DUP1 REVERT JUMPDEST PUSH2 0x26AC PUSH2 0x200 PUSH2 0x371E JUMP JUMPDEST SWAP1 POP PUSH1 0x0 PUSH2 0x26BC DUP5 DUP3 DUP6 ADD PUSH2 0x287B JUMP JUMPDEST PUSH1 0x0 DUP4 ADD MSTORE POP PUSH1 0x20 PUSH2 0x26D0 DUP5 DUP3 DUP6 ADD PUSH2 0x23B0 JUMP JUMPDEST PUSH1 0x20 DUP4 ADD MSTORE POP PUSH1 0x40 PUSH2 0x26E4 DUP5 DUP3 DUP6 ADD PUSH2 0x23B0 JUMP JUMPDEST PUSH1 0x40 DUP4 ADD MSTORE POP PUSH1 0x60 PUSH2 0x26F8 DUP5 DUP3 DUP6 ADD PUSH2 0x254B JUMP JUMPDEST PUSH1 0x60 DUP4 ADD MSTORE POP PUSH1 0x80 PUSH2 0x270C DUP5 DUP3 DUP6 ADD PUSH2 0x2536 JUMP JUMPDEST PUSH1 0x80 DUP4 ADD MSTORE POP PUSH1 0xA0 PUSH2 0x2720 DUP5 DUP3 DUP6 ADD PUSH2 0x2575 JUMP JUMPDEST PUSH1 0xA0 DUP4 ADD MSTORE POP PUSH1 0xC0 PUSH2 0x2734 DUP5 DUP3 DUP6 ADD PUSH2 0x287B JUMP JUMPDEST PUSH1 0xC0 DUP4 ADD MSTORE POP PUSH1 0xE0 PUSH2 0x2748 DUP5 DUP3 DUP6 ADD PUSH2 0x287B JUMP JUMPDEST PUSH1 0xE0 DUP4 ADD MSTORE POP PUSH2 0x100 PUSH2 0x275D DUP5 DUP3 DUP6 ADD PUSH2 0x287B JUMP JUMPDEST PUSH2 0x100 DUP4 ADD MSTORE POP PUSH2 0x120 PUSH2 0x2773 DUP5 DUP3 DUP6 ADD PUSH2 0x287B JUMP JUMPDEST PUSH2 0x120 DUP4 ADD MSTORE POP PUSH2 0x140 PUSH2 0x2789 DUP5 DUP3 DUP6 ADD PUSH2 0x2804 JUMP JUMPDEST PUSH2 0x140 DUP4 ADD MSTORE POP PUSH2 0x3C0 PUSH2 0x279F DUP5 DUP3 DUP6 ADD PUSH2 0x23C5 JUMP JUMPDEST PUSH2 0x160 DUP4 ADD MSTORE POP PUSH2 0x460 PUSH2 0x27B5 DUP5 DUP3 DUP6 ADD PUSH2 0x287B JUMP JUMPDEST PUSH2 0x180 DUP4 ADD MSTORE POP PUSH2 0x480 PUSH2 0x27CB DUP5 DUP3 DUP6 ADD PUSH2 0x287B JUMP JUMPDEST PUSH2 0x1A0 DUP4 ADD MSTORE POP PUSH2 0x4A0 PUSH2 0x27E1 DUP5 DUP3 DUP6 ADD PUSH2 0x2521 JUMP JUMPDEST PUSH2 0x1C0 DUP4 ADD MSTORE POP PUSH2 0x4C0 PUSH2 0x27F7 DUP5 DUP3 DUP6 ADD PUSH2 0x2560 JUMP JUMPDEST PUSH2 0x1E0 DUP4 ADD MSTORE POP SWAP3 SWAP2 POP POP JUMP JUMPDEST PUSH1 0x0 PUSH2 0x280 DUP3 DUP5 SUB SLT ISZERO PUSH2 0x2817 JUMPI PUSH1 0x0 DUP1 REVERT JUMPDEST PUSH2 0x2821 PUSH1 0x80 PUSH2 0x371E JUMP JUMPDEST SWAP1 POP PUSH1 0x0 PUSH2 0x2831 DUP5 DUP3 DUP6 ADD PUSH2 0x24AD JUMP JUMPDEST PUSH1 0x0 DUP4 ADD MSTORE POP PUSH1 0xA0 PUSH2 0x2845 DUP5 DUP3 DUP6 ADD PUSH2 0x24AD JUMP JUMPDEST PUSH1 0x20 DUP4 ADD MSTORE POP PUSH2 0x140 PUSH2 0x285A DUP5 DUP3 DUP6 ADD PUSH2 0x24AD JUMP JUMPDEST PUSH1 0x40 DUP4 ADD MSTORE POP PUSH2 0x1E0 PUSH2 0x286F DUP5 DUP3 DUP6 ADD PUSH2 0x23C5 JUMP JUMPDEST PUSH1 0x60 DUP4 ADD MSTORE POP SWAP3 SWAP2 POP POP JUMP JUMPDEST PUSH1 0x0 DUP2 CALLDATALOAD SWAP1 POP PUSH2 0x288A DUP2 PUSH2 0x3B05 JUMP JUMPDEST SWAP3 SWAP2 POP POP JUMP JUMPDEST PUSH1 0x0 DUP2 MLOAD SWAP1 POP PUSH2 0x289F DUP2 PUSH2 0x3B05 JUMP JUMPDEST SWAP3 SWAP2 POP POP JUMP JUMPDEST PUSH1 0x0 PUSH1 0x20 DUP3 DUP5 SUB SLT ISZERO PUSH2 0x28B7 JUMPI PUSH1 0x0 DUP1 REVERT JUMPDEST PUSH1 0x0 PUSH2 0x28C5 DUP5 DUP3 DUP6 ADD PUSH2 0x23B0 JUMP JUMPDEST SWAP2 POP POP SWAP3 SWAP2 POP POP JUMP JUMPDEST PUSH1 0x0 DUP1 PUSH1 0x0 DUP1 PUSH1 0x0 DUP1 PUSH1 0x0 PUSH1 0xE0 DUP9 DUP11 SUB SLT ISZERO PUSH2 0x28E9 JUMPI PUSH1 0x0 DUP1 REVERT JUMPDEST PUSH1 0x0 PUSH2 0x28F7 DUP11 DUP3 DUP12 ADD PUSH2 0x23B0 JUMP JUMPDEST SWAP8 POP POP PUSH1 0x20 PUSH2 0x2908 DUP11 DUP3 DUP12 ADD PUSH2 0x23B0 JUMP JUMPDEST SWAP7 POP POP PUSH1 0x40 PUSH2 0x2919 DUP11 DUP3 DUP12 ADD PUSH2 0x254B JUMP JUMPDEST SWAP6 POP POP PUSH1 0x60 PUSH2 0x292A DUP11 DUP3 DUP12 ADD PUSH2 0x2536 JUMP JUMPDEST SWAP5 POP POP PUSH1 0x80 PUSH2 0x293B DUP11 DUP3 DUP12 ADD PUSH2 0x287B JUMP JUMPDEST SWAP4 POP POP PUSH1 0xA0 PUSH2 0x294C DUP11 DUP3 DUP12 ADD PUSH2 0x287B JUMP JUMPDEST SWAP3 POP POP PUSH1 0xC0 PUSH2 0x295D DUP11 DUP3 DUP12 ADD PUSH2 0x287B JUMP JUMPDEST SWAP2 POP POP SWAP3 SWAP6 SWAP9 SWAP2 SWAP5 SWAP8 POP SWAP3 SWAP6 POP JUMP JUMPDEST PUSH1 0x0 DUP1 PUSH1 0x0 DUP1 PUSH1 0x80 DUP6 DUP8 SUB SLT ISZERO PUSH2 0x2982 JUMPI PUSH1 0x0 DUP1 REVERT JUMPDEST PUSH1 0x0 PUSH2 0x2990 DUP8 DUP3 DUP9 ADD PUSH2 0x23B0 JUMP JUMPDEST SWAP5 POP POP PUSH1 0x20 PUSH2 0x29A1 DUP8 DUP3 DUP9 ADD PUSH2 0x23B0 JUMP JUMPDEST SWAP4 POP POP PUSH1 0x40 PUSH2 0x29B2 DUP8 DUP3 DUP9 ADD PUSH2 0x287B JUMP JUMPDEST SWAP3 POP POP PUSH1 0x60 PUSH2 0x29C3 DUP8 DUP3 DUP9 ADD PUSH2 0x287B JUMP JUMPDEST SWAP2 POP POP SWAP3 SWAP6 SWAP2 SWAP5 POP SWAP3 POP JUMP JUMPDEST PUSH1 0x0 DUP1 PUSH1 0x0 DUP1 PUSH1 0x0 PUSH1 0xA0 DUP7 DUP9 SUB SLT ISZERO PUSH2 0x29E7 JUMPI PUSH1 0x0 DUP1 REVERT JUMPDEST PUSH1 0x0 PUSH2 0x29F5 DUP9 DUP3 DUP10 ADD PUSH2 0x23B0 JUMP JUMPDEST SWAP6 POP POP PUSH1 0x20 PUSH2 0x2A06 DUP9 DUP3 DUP10 ADD PUSH2 0x254B JUMP JUMPDEST SWAP5 POP POP PUSH1 0x40 PUSH2 0x2A17 DUP9 DUP3 DUP10 ADD PUSH2 0x2536 JUMP JUMPDEST SWAP4 POP POP PUSH1 0x60 PUSH2 0x2A28 DUP9 DUP3 DUP10 ADD PUSH2 0x2575 JUMP JUMPDEST SWAP3 POP POP PUSH1 0x80 PUSH2 0x2A39 DUP9 DUP3 DUP10 ADD PUSH2 0x287B JUMP JUMPDEST SWAP2 POP POP SWAP3 SWAP6 POP SWAP3 SWAP6 SWAP1 SWAP4 POP JUMP JUMPDEST PUSH1 0x0 PUSH2 0x2A0 DUP3 DUP5 SUB SLT ISZERO PUSH2 0x2A59 JUMPI PUSH1 0x0 DUP1 REVERT JUMPDEST PUSH1 0x0 PUSH2 0x2A67 DUP5 DUP3 DUP6 ADD PUSH2 0x2439 JUMP JUMPDEST SWAP2 POP POP SWAP3 SWAP2 POP POP JUMP JUMPDEST PUSH1 0x0 DUP1 PUSH1 0x0 DUP1 PUSH1 0x80 DUP6 DUP8 SUB SLT ISZERO PUSH2 0x2A86 JUMPI PUSH1 0x0 DUP1 REVERT JUMPDEST PUSH1 0x0 PUSH2 0x2A94 DUP8 DUP3 DUP9 ADD PUSH2 0x2536 JUMP JUMPDEST SWAP5 POP POP PUSH1 0x20 PUSH2 0x2AA5 DUP8 DUP3 DUP9 ADD PUSH2 0x23B0 JUMP JUMPDEST SWAP4 POP POP PUSH1 0x40 PUSH2 0x2AB6 DUP8 DUP3 DUP9 ADD PUSH2 0x287B JUMP JUMPDEST SWAP3 POP POP PUSH1 0x60 DUP6 ADD CALLDATALOAD PUSH8 0xFFFFFFFFFFFFFFFF DUP2 GT ISZERO PUSH2 0x2AD3 JUMPI PUSH1 0x0 DUP1 REVERT JUMPDEST PUSH2 0x2ADF DUP8 DUP3 DUP9 ADD PUSH2 0x258A JUMP JUMPDEST SWAP2 POP POP SWAP3 SWAP6 SWAP2 SWAP5 POP SWAP3 POP JUMP JUMPDEST PUSH1 0x0 DUP1 PUSH1 0x0 DUP1 PUSH2 0x540 DUP6 DUP8 SUB SLT ISZERO PUSH2 0x2B02 JUMPI PUSH1 0x0 DUP1 REVERT JUMPDEST PUSH1 0x0 PUSH2 0x2B10 DUP8 DUP3 DUP9 ADD PUSH2 0x268E JUMP JUMPDEST SWAP5 POP POP PUSH2 0x4E0 PUSH2 0x2B22 DUP8 DUP3 DUP9 ADD PUSH2 0x2575 JUMP JUMPDEST SWAP4 POP POP PUSH2 0x500 PUSH2 0x2B34 DUP8 DUP3 DUP9 ADD PUSH2 0x287B JUMP JUMPDEST SWAP3 POP POP PUSH2 0x520 PUSH2 0x2B46 DUP8 DUP3 DUP9 ADD PUSH2 0x287B JUMP JUMPDEST SWAP2 POP POP SWAP3 SWAP6 SWAP2 SWAP5 POP SWAP3 POP JUMP JUMPDEST PUSH1 0x0 PUSH1 0x20 DUP3 DUP5 SUB SLT ISZERO PUSH2 0x2B64 JUMPI PUSH1 0x0 DUP1 REVERT JUMPDEST PUSH1 0x0 PUSH2 0x2B72 DUP5 DUP3 DUP6 ADD PUSH2 0x287B JUMP JUMPDEST SWAP2 POP POP SWAP3 SWAP2 POP POP JUMP JUMPDEST PUSH1 0x0 PUSH1 0x20 DUP3 DUP5 SUB SLT ISZERO PUSH2 0x2B8D JUMPI PUSH1 0x0 DUP1 REVERT JUMPDEST PUSH1 0x0 PUSH2 0x2B9B DUP5 DUP3 DUP6 ADD PUSH2 0x2890 JUMP JUMPDEST SWAP2 POP POP SWAP3 SWAP2 POP POP JUMP JUMPDEST PUSH1 0x0 PUSH2 0x2BB0 DUP4 DUP4 PUSH2 0x2C28 JUMP JUMPDEST PUSH1 0x20 DUP4 ADD SWAP1 POP SWAP3 SWAP2 POP POP JUMP JUMPDEST PUSH1 0x0 PUSH2 0x2BC8 DUP4 DUP4 PUSH2 0x2E25 JUMP JUMPDEST PUSH1 0x20 DUP4 ADD SWAP1 POP SWAP3 SWAP2 POP POP JUMP JUMPDEST PUSH1 0x0 PUSH2 0x2BE0 DUP4 DUP4 PUSH2 0x3056 JUMP JUMPDEST SWAP1 POP SWAP3 SWAP2 POP POP JUMP JUMPDEST PUSH1 0x0 PUSH2 0x2BF4 DUP4 DUP4 PUSH2 0x30F6 JUMP JUMPDEST PUSH2 0x4E0 DUP4 ADD SWAP1 POP SWAP3 SWAP2 POP POP JUMP JUMPDEST PUSH1 0x0 PUSH2 0x2C0D DUP4 DUP4 PUSH2 0x33E2 JUMP JUMPDEST PUSH1 0x20 DUP4 ADD SWAP1 POP SWAP3 SWAP2 POP POP JUMP JUMPDEST PUSH2 0x2C22 DUP2 PUSH2 0x3992 JUMP JUMPDEST DUP3 MSTORE POP POP JUMP JUMPDEST PUSH2 0x2C31 DUP2 PUSH2 0x38FE JUMP JUMPDEST DUP3 MSTORE POP POP JUMP JUMPDEST PUSH2 0x2C40 DUP2 PUSH2 0x38FE JUMP JUMPDEST DUP3 MSTORE POP POP JUMP JUMPDEST PUSH1 0x0 PUSH2 0x2C51 DUP3 PUSH2 0x3821 JUMP JUMPDEST PUSH2 0x2C5B DUP2 DUP6 PUSH2 0x38A4 JUMP JUMPDEST SWAP4 POP PUSH2 0x2C66 DUP4 PUSH2 0x37DD JUMP JUMPDEST DUP1 PUSH1 0x0 JUMPDEST DUP4 DUP2 LT ISZERO PUSH2 0x2C97 JUMPI DUP2 MLOAD PUSH2 0x2C7E DUP9 DUP3 PUSH2 0x2BA4 JUMP JUMPDEST SWAP8 POP PUSH2 0x2C89 DUP4 PUSH2 0x3863 JUMP JUMPDEST SWAP3 POP POP PUSH1 0x1 DUP2 ADD SWAP1 POP PUSH2 0x2C6A JUMP JUMPDEST POP DUP6 SWAP4 POP POP POP POP SWAP3 SWAP2 POP POP JUMP JUMPDEST PUSH2 0x2CAD DUP2 PUSH2 0x382C JUMP JUMPDEST PUSH2 0x2CB7 DUP2 DUP5 PUSH2 0x38B5 JUMP JUMPDEST SWAP3 POP PUSH2 0x2CC2 DUP3 PUSH2 0x37ED JUMP JUMPDEST DUP1 PUSH1 0x0 JUMPDEST DUP4 DUP2 LT ISZERO PUSH2 0x2CF3 JUMPI DUP2 MLOAD PUSH2 0x2CDA DUP8 DUP3 PUSH2 0x2BBC JUMP JUMPDEST SWAP7 POP PUSH2 0x2CE5 DUP4 PUSH2 0x3870 JUMP JUMPDEST SWAP3 POP POP PUSH1 0x1 DUP2 ADD SWAP1 POP PUSH2 0x2CC6 JUMP JUMPDEST POP POP POP POP POP POP JUMP JUMPDEST PUSH1 0x0 PUSH2 0x2D06 DUP3 PUSH2 0x3837 JUMP JUMPDEST PUSH2 0x2D10 DUP2 DUP6 PUSH2 0x38C0 JUMP JUMPDEST SWAP4 POP DUP4 PUSH1 0x20 DUP3 MUL DUP6 ADD PUSH2 0x2D22 DUP6 PUSH2 0x37F7 JUMP JUMPDEST DUP1 PUSH1 0x0 JUMPDEST DUP6 DUP2 LT ISZERO PUSH2 0x2D5E JUMPI DUP5 DUP5 SUB DUP10 MSTORE DUP2 MLOAD PUSH2 0x2D3F DUP6 DUP3 PUSH2 0x2BD4 JUMP JUMPDEST SWAP5 POP PUSH2 0x2D4A DUP4 PUSH2 0x387D JUMP JUMPDEST SWAP3 POP PUSH1 0x20 DUP11 ADD SWAP10 POP POP PUSH1 0x1 DUP2 ADD SWAP1 POP PUSH2 0x2D26 JUMP JUMPDEST POP DUP3 SWAP8 POP DUP8 SWAP6 POP POP POP POP POP POP SWAP3 SWAP2 POP POP JUMP JUMPDEST PUSH1 0x0 PUSH2 0x2D7B DUP3 PUSH2 0x3842 JUMP JUMPDEST PUSH2 0x2D85 DUP2 DUP6 PUSH2 0x38D1 JUMP JUMPDEST SWAP4 POP PUSH2 0x2D90 DUP4 PUSH2 0x3807 JUMP JUMPDEST DUP1 PUSH1 0x0 JUMPDEST DUP4 DUP2 LT ISZERO PUSH2 0x2DC1 JUMPI DUP2 MLOAD PUSH2 0x2DA8 DUP9 DUP3 PUSH2 0x2BE8 JUMP JUMPDEST SWAP8 POP PUSH2 0x2DB3 DUP4 PUSH2 0x388A JUMP JUMPDEST SWAP3 POP POP PUSH1 0x1 DUP2 ADD SWAP1 POP PUSH2 0x2D94 JUMP JUMPDEST POP DUP6 SWAP4 POP POP POP POP SWAP3 SWAP2 POP POP JUMP JUMPDEST PUSH2 0x2DD7 DUP2 PUSH2 0x384D JUMP JUMPDEST PUSH2 0x2DE1 DUP2 DUP5 PUSH2 0x38E2 JUMP JUMPDEST SWAP3 POP PUSH2 0x2DEC DUP3 PUSH2 0x3817 JUMP JUMPDEST DUP1 PUSH1 0x0 JUMPDEST DUP4 DUP2 LT ISZERO PUSH2 0x2E1D JUMPI DUP2 MLOAD PUSH2 0x2E04 DUP8 DUP3 PUSH2 0x2C01 JUMP JUMPDEST SWAP7 POP PUSH2 0x2E0F DUP4 PUSH2 0x3897 JUMP JUMPDEST SWAP3 POP POP PUSH1 0x1 DUP2 ADD SWAP1 POP PUSH2 0x2DF0 JUMP JUMPDEST POP POP POP POP POP POP JUMP JUMPDEST PUSH2 0x2E2E DUP2 PUSH2 0x3910 JUMP JUMPDEST DUP3 MSTORE POP POP JUMP JUMPDEST PUSH2 0x2E3D DUP2 PUSH2 0x39A4 JUMP JUMPDEST DUP3 MSTORE POP POP JUMP JUMPDEST PUSH2 0x2E4C DUP2 PUSH2 0x39A4 JUMP JUMPDEST DUP3 MSTORE POP POP JUMP JUMPDEST PUSH2 0x2E5B DUP2 PUSH2 0x39B6 JUMP JUMPDEST DUP3 MSTORE POP POP JUMP JUMPDEST PUSH2 0x2E6A DUP2 PUSH2 0x39B6 JUMP JUMPDEST DUP3 MSTORE POP POP JUMP JUMPDEST PUSH2 0x2E79 DUP2 PUSH2 0x39C8 JUMP JUMPDEST DUP3 MSTORE POP POP JUMP JUMPDEST PUSH2 0x2E88 DUP2 PUSH2 0x39DA JUMP JUMPDEST DUP3 MSTORE POP POP JUMP JUMPDEST PUSH2 0x2E97 DUP2 PUSH2 0x39DA JUMP JUMPDEST DUP3 MSTORE POP POP JUMP JUMPDEST PUSH1 0x0 PUSH2 0x2EA8 DUP3 PUSH2 0x3858 JUMP JUMPDEST PUSH2 0x2EB2 DUP2 DUP6 PUSH2 0x38ED JUMP JUMPDEST SWAP4 POP PUSH2 0x2EC2 DUP2 DUP6 PUSH1 0x20 DUP7 ADD PUSH2 0x3A1F JUMP JUMPDEST PUSH2 0x2ECB DUP2 PUSH2 0x3A52 JUMP JUMPDEST DUP5 ADD SWAP2 POP POP SWAP3 SWAP2 POP POP JUMP JUMPDEST PUSH1 0x0 PUSH2 0x2EE3 PUSH1 0x1F DUP4 PUSH2 0x38ED JUMP JUMPDEST SWAP2 POP PUSH32 0x53616D6520706572736F6E206465616C206973206E6F7420616C6C6F77656400 PUSH1 0x0 DUP4 ADD MSTORE PUSH1 0x20 DUP3 ADD SWAP1 POP SWAP2 SWAP1 POP JUMP JUMPDEST PUSH1 0x0 PUSH2 0x2F23 PUSH1 0x12 DUP4 PUSH2 0x38ED JUMP JUMPDEST SWAP2 POP PUSH32 0x6E6F206C6F616E206974656D20666F756E640000000000000000000000000000 PUSH1 0x0 DUP4 ADD MSTORE PUSH1 0x20 DUP3 ADD SWAP1 POP SWAP2 SWAP1 POP JUMP JUMPDEST PUSH1 0x0 PUSH2 0x2F63 PUSH1 0x18 DUP4 PUSH2 0x38ED JUMP JUMPDEST SWAP2 POP PUSH32 0x636F6E6669726D20616D6F756E74206E6F74206D617463680000000000000000 PUSH1 0x0 DUP4 ADD MSTORE PUSH1 0x20 DUP3 ADD SWAP1 POP SWAP2 SWAP1 POP JUMP JUMPDEST PUSH1 0x0 PUSH2 0x2FA3 PUSH1 0x1A DUP4 PUSH2 0x38ED JUMP JUMPDEST SWAP2 POP PUSH32 0x6D73672E73656E646572206973206E6F7420626F72726F776572000000000000 PUSH1 0x0 DUP4 ADD MSTORE PUSH1 0x20 DUP3 ADD SWAP1 POP SWAP2 SWAP1 POP JUMP JUMPDEST PUSH1 0x0 PUSH2 0x2FE3 PUSH1 0x18 DUP4 PUSH2 0x38ED JUMP JUMPDEST SWAP2 POP PUSH32 0x6D73672E73656E646572206973206E6F74206C656E6465720000000000000000 PUSH1 0x0 DUP4 ADD MSTORE PUSH1 0x20 DUP3 ADD SWAP1 POP SWAP2 SWAP1 POP JUMP JUMPDEST PUSH1 0x0 PUSH2 0x3023 PUSH1 0x15 DUP4 PUSH2 0x38ED JUMP JUMPDEST SWAP2 POP PUSH32 0x626F72726F776572206D75737420636F6E6669726D0000000000000000000000 PUSH1 0x0 DUP4 ADD MSTORE PUSH1 0x20 DUP3 ADD SWAP1 POP SWAP2 SWAP1 POP JUMP JUMPDEST PUSH1 0x0 PUSH1 0x60 DUP4 ADD PUSH1 0x0 DUP4 ADD MLOAD DUP5 DUP3 SUB PUSH1 0x0 DUP7 ADD MSTORE PUSH2 0x3073 DUP3 DUP3 PUSH2 0x2D70 JUMP JUMPDEST SWAP2 POP POP PUSH1 0x20 DUP4 ADD MLOAD PUSH2 0x3088 PUSH1 0x20 DUP7 ADD DUP3 PUSH2 0x33E2 JUMP JUMPDEST POP PUSH1 0x40 DUP4 ADD MLOAD PUSH2 0x309B PUSH1 0x40 DUP7 ADD DUP3 PUSH2 0x2E25 JUMP JUMPDEST POP DUP1 SWAP2 POP POP SWAP3 SWAP2 POP POP JUMP JUMPDEST PUSH1 0x0 PUSH1 0x60 DUP4 ADD PUSH1 0x0 DUP4 ADD MLOAD DUP5 DUP3 SUB PUSH1 0x0 DUP7 ADD MSTORE PUSH2 0x30C3 DUP3 DUP3 PUSH2 0x2D70 JUMP JUMPDEST SWAP2 POP POP PUSH1 0x20 DUP4 ADD MLOAD PUSH2 0x30D8 PUSH1 0x20 DUP7 ADD DUP3 PUSH2 0x33E2 JUMP JUMPDEST POP PUSH1 0x40 DUP4 ADD MLOAD PUSH2 0x30EB PUSH1 0x40 DUP7 ADD DUP3 PUSH2 0x2E25 JUMP JUMPDEST POP DUP1 SWAP2 POP POP SWAP3 SWAP2 POP POP JUMP JUMPDEST PUSH2 0x4E0 DUP3 ADD PUSH1 0x0 DUP3 ADD MLOAD PUSH2 0x310D PUSH1 0x0 DUP6 ADD DUP3 PUSH2 0x33E2 JUMP JUMPDEST POP PUSH1 0x20 DUP3 ADD MLOAD PUSH2 0x3120 PUSH1 0x20 DUP6 ADD DUP3 PUSH2 0x2C28 JUMP JUMPDEST POP PUSH1 0x40 DUP3 ADD MLOAD PUSH2 0x3133 PUSH1 0x40 DUP6 ADD DUP3 PUSH2 0x2C28 JUMP JUMPDEST POP PUSH1 0x60 DUP3 ADD MLOAD PUSH2 0x3146 PUSH1 0x60 DUP6 ADD DUP3 PUSH2 0x2E52 JUMP JUMPDEST POP PUSH1 0x80 DUP3 ADD MLOAD PUSH2 0x3159 PUSH1 0x80 DUP6 ADD DUP3 PUSH2 0x2E34 JUMP JUMPDEST POP PUSH1 0xA0 DUP3 ADD MLOAD PUSH2 0x316C PUSH1 0xA0 DUP6 ADD DUP3 PUSH2 0x2E7F JUMP JUMPDEST POP PUSH1 0xC0 DUP3 ADD MLOAD PUSH2 0x317F PUSH1 0xC0 DUP6 ADD DUP3 PUSH2 0x33E2 JUMP JUMPDEST POP PUSH1 0xE0 DUP3 ADD MLOAD PUSH2 0x3192 PUSH1 0xE0 DUP6 ADD DUP3 PUSH2 0x33E2 JUMP JUMPDEST POP PUSH2 0x100 DUP3 ADD MLOAD PUSH2 0x31A7 PUSH2 0x100 DUP6 ADD DUP3 PUSH2 0x33E2 JUMP JUMPDEST POP PUSH2 0x120 DUP3 ADD MLOAD PUSH2 0x31BC PUSH2 0x120 DUP6 ADD DUP3 PUSH2 0x33E2 JUMP JUMPDEST POP PUSH2 0x140 DUP3 ADD MLOAD PUSH2 0x31D1 PUSH2 0x140 DUP6 ADD DUP3 PUSH2 0x338A JUMP JUMPDEST POP PUSH2 0x160 DUP3 ADD MLOAD PUSH2 0x31E6 PUSH2 0x3C0 DUP6 ADD DUP3 PUSH2 0x2CA4 JUMP JUMPDEST POP PUSH2 0x180 DUP3 ADD MLOAD PUSH2 0x31FB PUSH2 0x460 DUP6 ADD DUP3 PUSH2 0x33E2 JUMP JUMPDEST POP PUSH2 0x1A0 DUP3 ADD MLOAD PUSH2 0x3210 PUSH2 0x480 DUP6 ADD DUP3 PUSH2 0x33E2 JUMP JUMPDEST POP PUSH2 0x1C0 DUP3 ADD MLOAD PUSH2 0x3225 PUSH2 0x4A0 DUP6 ADD DUP3 PUSH2 0x2E25 JUMP JUMPDEST POP PUSH2 0x1E0 DUP3 ADD MLOAD PUSH2 0x323A PUSH2 0x4C0 DUP6 ADD DUP3 PUSH2 0x2E70 JUMP JUMPDEST POP POP POP POP JUMP JUMPDEST PUSH2 0x4E0 DUP3 ADD PUSH1 0x0 DUP3 ADD MLOAD PUSH2 0x3257 PUSH1 0x0 DUP6 ADD DUP3 PUSH2 0x33E2 JUMP JUMPDEST POP PUSH1 0x20 DUP3 ADD MLOAD PUSH2 0x326A PUSH1 0x20 DUP6 ADD DUP3 PUSH2 0x2C28 JUMP JUMPDEST POP PUSH1 0x40 DUP3 ADD MLOAD PUSH2 0x327D PUSH1 0x40 DUP6 ADD DUP3 PUSH2 0x2C28 JUMP JUMPDEST POP PUSH1 0x60 DUP3 ADD MLOAD PUSH2 0x3290 PUSH1 0x60 DUP6 ADD DUP3 PUSH2 0x2E52 JUMP JUMPDEST POP PUSH1 0x80 DUP3 ADD MLOAD PUSH2 0x32A3 PUSH1 0x80 DUP6 ADD DUP3 PUSH2 0x2E34 JUMP JUMPDEST POP PUSH1 0xA0 DUP3 ADD MLOAD PUSH2 0x32B6 PUSH1 0xA0 DUP6 ADD DUP3 PUSH2 0x2E7F JUMP JUMPDEST POP PUSH1 0xC0 DUP3 ADD MLOAD PUSH2 0x32C9 PUSH1 0xC0 DUP6 ADD DUP3 PUSH2 0x33E2 JUMP JUMPDEST POP PUSH1 0xE0 DUP3 ADD MLOAD PUSH2 0x32DC PUSH1 0xE0 DUP6 ADD DUP3 PUSH2 0x33E2 JUMP JUMPDEST POP PUSH2 0x100 DUP3 ADD MLOAD PUSH2 0x32F1 PUSH2 0x100 DUP6 ADD DUP3 PUSH2 0x33E2 JUMP JUMPDEST POP PUSH2 0x120 DUP3 ADD MLOAD PUSH2 0x3306 PUSH2 0x120 DUP6 ADD DUP3 PUSH2 0x33E2 JUMP JUMPDEST POP PUSH2 0x140 DUP3 ADD MLOAD PUSH2 0x331B PUSH2 0x140 DUP6 ADD DUP3 PUSH2 0x338A JUMP JUMPDEST POP PUSH2 0x160 DUP3 ADD MLOAD PUSH2 0x3330 PUSH2 0x3C0 DUP6 ADD DUP3 PUSH2 0x2CA4 JUMP JUMPDEST POP PUSH2 0x180 DUP3 ADD MLOAD PUSH2 0x3345 PUSH2 0x460 DUP6 ADD DUP3 PUSH2 0x33E2 JUMP JUMPDEST POP PUSH2 0x1A0 DUP3 ADD MLOAD PUSH2 0x335A PUSH2 0x480 DUP6 ADD DUP3 PUSH2 0x33E2 JUMP JUMPDEST POP PUSH2 0x1C0 DUP3 ADD MLOAD PUSH2 0x336F PUSH2 0x4A0 DUP6 ADD DUP3 PUSH2 0x2E25 JUMP JUMPDEST POP PUSH2 0x1E0 DUP3 ADD MLOAD PUSH2 0x3384 PUSH2 0x4C0 DUP6 ADD DUP3 PUSH2 0x2E70 JUMP JUMPDEST POP POP POP POP JUMP JUMPDEST PUSH2 0x280 DUP3 ADD PUSH1 0x0 DUP3 ADD MLOAD PUSH2 0x33A1 PUSH1 0x0 DUP6 ADD DUP3 PUSH2 0x2DCE JUMP JUMPDEST POP PUSH1 0x20 DUP3 ADD MLOAD PUSH2 0x33B4 PUSH1 0xA0 DUP6 ADD DUP3 PUSH2 0x2DCE JUMP JUMPDEST POP PUSH1 0x40 DUP3 ADD MLOAD PUSH2 0x33C8 PUSH2 0x140 DUP6 ADD DUP3 PUSH2 0x2DCE JUMP JUMPDEST POP PUSH1 0x60 DUP3 ADD MLOAD PUSH2 0x33DC PUSH2 0x1E0 DUP6 ADD DUP3 PUSH2 0x2CA4 JUMP JUMPDEST POP POP POP POP JUMP JUMPDEST PUSH2 0x33EB DUP2 PUSH2 0x3988 JUMP JUMPDEST DUP3 MSTORE POP POP JUMP JUMPDEST PUSH2 0x33FA DUP2 PUSH2 0x3988 JUMP JUMPDEST DUP3 MSTORE POP POP JUMP JUMPDEST PUSH1 0x0 PUSH1 0x20 DUP3 ADD SWAP1 POP PUSH2 0x3415 PUSH1 0x0 DUP4 ADD DUP5 PUSH2 0x2C37 JUMP JUMPDEST SWAP3 SWAP2 POP POP JUMP JUMPDEST PUSH1 0x0 PUSH1 0xA0 DUP3 ADD SWAP1 POP PUSH2 0x3430 PUSH1 0x0 DUP4 ADD DUP9 PUSH2 0x2C37 JUMP JUMPDEST PUSH2 0x343D PUSH1 0x20 DUP4 ADD DUP8 PUSH2 0x2E61 JUMP JUMPDEST PUSH2 0x344A PUSH1 0x40 DUP4 ADD DUP7 PUSH2 0x2E43 JUMP JUMPDEST PUSH2 0x3457 PUSH1 0x60 DUP4 ADD DUP6 PUSH2 0x2E8E JUMP JUMPDEST PUSH2 0x3464 PUSH1 0x80 DUP4 ADD DUP5 PUSH2 0x33F1 JUMP JUMPDEST SWAP7 SWAP6 POP POP POP POP POP POP JUMP JUMPDEST PUSH1 0x0 PUSH1 0xC0 DUP3 ADD SWAP1 POP PUSH2 0x3483 PUSH1 0x0 DUP4 ADD DUP10 PUSH2 0x2C37 JUMP JUMPDEST PUSH2 0x3490 PUSH1 0x20 DUP4 ADD DUP9 PUSH2 0x2E61 JUMP JUMPDEST PUSH2 0x349D PUSH1 0x40 DUP4 ADD DUP8 PUSH2 0x2E43 JUMP JUMPDEST PUSH2 0x34AA PUSH1 0x60 DUP4 ADD DUP7 PUSH2 0x2E8E JUMP JUMPDEST PUSH2 0x34B7 PUSH1 0x80 DUP4 ADD DUP6 PUSH2 0x33F1 JUMP JUMPDEST PUSH2 0x34C4 PUSH1 0xA0 DUP4 ADD DUP5 PUSH2 0x33F1 JUMP JUMPDEST SWAP8 SWAP7 POP POP POP POP POP POP POP JUMP JUMPDEST PUSH1 0x0 PUSH1 0x20 DUP3 ADD SWAP1 POP DUP2 DUP2 SUB PUSH1 0x0 DUP4 ADD MSTORE PUSH2 0x34E9 DUP2 DUP5 PUSH2 0x2C46 JUMP JUMPDEST SWAP1 POP SWAP3 SWAP2 POP POP JUMP JUMPDEST PUSH1 0x0 PUSH1 0x20 DUP3 ADD SWAP1 POP DUP2 DUP2 SUB PUSH1 0x0 DUP4 ADD MSTORE PUSH2 0x350B DUP2 DUP5 PUSH2 0x2CFB JUMP JUMPDEST SWAP1 POP SWAP3 SWAP2 POP POP JUMP JUMPDEST PUSH1 0x0 PUSH1 0x80 DUP3 ADD SWAP1 POP PUSH2 0x3528 PUSH1 0x0 DUP4 ADD DUP8 PUSH2 0x2E43 JUMP JUMPDEST PUSH2 0x3535 PUSH1 0x20 DUP4 ADD DUP7 PUSH2 0x2C19 JUMP JUMPDEST PUSH2 0x3542 PUSH1 0x40 DUP4 ADD DUP6 PUSH2 0x2C37 JUMP JUMPDEST DUP2 DUP2 SUB PUSH1 0x60 DUP4 ADD MSTORE PUSH2 0x3554 DUP2 DUP5 PUSH2 0x2E9D JUMP JUMPDEST SWAP1 POP SWAP6 SWAP5 POP POP POP POP POP JUMP JUMPDEST PUSH1 0x0 PUSH1 0x60 DUP3 ADD SWAP1 POP PUSH2 0x3574 PUSH1 0x0 DUP4 ADD DUP7 PUSH2 0x2E43 JUMP JUMPDEST PUSH2 0x3581 PUSH1 0x20 DUP4 ADD DUP6 PUSH2 0x33F1 JUMP JUMPDEST PUSH2 0x358E PUSH1 0x40 DUP4 ADD DUP5 PUSH2 0x2C37 JUMP JUMPDEST SWAP5 SWAP4 POP POP POP POP JUMP JUMPDEST PUSH1 0x0 PUSH1 0x60 DUP3 ADD SWAP1 POP PUSH2 0x35AB PUSH1 0x0 DUP4 ADD DUP7 PUSH2 0x2E43 JUMP JUMPDEST PUSH2 0x35B8 PUSH1 0x20 DUP4 ADD DUP6 PUSH2 0x33F1 JUMP JUMPDEST PUSH2 0x35C5 PUSH1 0x40 DUP4 ADD DUP5 PUSH2 0x2C19 JUMP JUMPDEST SWAP5 SWAP4 POP POP POP POP JUMP JUMPDEST PUSH1 0x0 PUSH1 0xA0 DUP3 ADD SWAP1 POP PUSH2 0x35E2 PUSH1 0x0 DUP4 ADD DUP9 PUSH2 0x2E61 JUMP JUMPDEST PUSH2 0x35EF PUSH1 0x20 DUP4 ADD DUP8 PUSH2 0x2E43 JUMP JUMPDEST PUSH2 0x35FC PUSH1 0x40 DUP4 ADD DUP7 PUSH2 0x33F1 JUMP JUMPDEST PUSH2 0x3609 PUSH1 0x60 DUP4 ADD DUP6 PUSH2 0x33F1 JUMP JUMPDEST PUSH2 0x3616 PUSH1 0x80 DUP4 ADD DUP5 PUSH2 0x33F1 JUMP JUMPDEST SWAP7 SWAP6 POP POP POP POP POP POP JUMP JUMPDEST PUSH1 0x0 PUSH1 0x20 DUP3 ADD SWAP1 POP DUP2 DUP2 SUB PUSH1 0x0 DUP4 ADD MSTORE PUSH2 0x3639 DUP2 PUSH2 0x2ED6 JUMP JUMPDEST SWAP1 POP SWAP2 SWAP1 POP JUMP JUMPDEST PUSH1 0x0 PUSH1 0x20 DUP3 ADD SWAP1 POP DUP2 DUP2 SUB PUSH1 0x0 DUP4 ADD MSTORE PUSH2 0x3659 DUP2 PUSH2 0x2F16 JUMP JUMPDEST SWAP1 POP SWAP2 SWAP1 POP JUMP JUMPDEST PUSH1 0x0 PUSH1 0x20 DUP3 ADD SWAP1 POP DUP2 DUP2 SUB PUSH1 0x0 DUP4 ADD MSTORE PUSH2 0x3679 DUP2 PUSH2 0x2F56 JUMP JUMPDEST SWAP1 POP SWAP2 SWAP1 POP JUMP JUMPDEST PUSH1 0x0 PUSH1 0x20 DUP3 ADD SWAP1 POP DUP2 DUP2 SUB PUSH1 0x0 DUP4 ADD MSTORE PUSH2 0x3699 DUP2 PUSH2 0x2F96 JUMP JUMPDEST SWAP1 POP SWAP2 SWAP1 POP JUMP JUMPDEST PUSH1 0x0 PUSH1 0x20 DUP3 ADD SWAP1 POP DUP2 DUP2 SUB PUSH1 0x0 DUP4 ADD MSTORE PUSH2 0x36B9 DUP2 PUSH2 0x2FD6 JUMP JUMPDEST SWAP1 POP SWAP2 SWAP1 POP JUMP JUMPDEST PUSH1 0x0 PUSH1 0x20 DUP3 ADD SWAP1 POP DUP2 DUP2 SUB PUSH1 0x0 DUP4 ADD MSTORE PUSH2 0x36D9 DUP2 PUSH2 0x3016 JUMP JUMPDEST SWAP1 POP SWAP2 SWAP1 POP JUMP JUMPDEST PUSH1 0x0 PUSH1 0x20 DUP3 ADD SWAP1 POP DUP2 DUP2 SUB PUSH1 0x0 DUP4 ADD MSTORE PUSH2 0x36FA DUP2 DUP5 PUSH2 0x30A6 JUMP JUMPDEST SWAP1 POP SWAP3 SWAP2 POP POP JUMP JUMPDEST PUSH1 0x0 PUSH2 0x4E0 DUP3 ADD SWAP1 POP PUSH2 0x3718 PUSH1 0x0 DUP4 ADD DUP5 PUSH2 0x3240 JUMP JUMPDEST SWAP3 SWAP2 POP POP JUMP JUMPDEST PUSH1 0x0 PUSH1 0x40 MLOAD SWAP1 POP DUP2 DUP2 ADD DUP2 DUP2 LT PUSH8 0xFFFFFFFFFFFFFFFF DUP3 GT OR ISZERO PUSH2 0x3741 JUMPI PUSH1 0x0 DUP1 REVERT JUMPDEST DUP1 PUSH1 0x40 MSTORE POP SWAP2 SWAP1 POP JUMP JUMPDEST PUSH1 0x0 PUSH8 0xFFFFFFFFFFFFFFFF DUP3 GT ISZERO PUSH2 0x3762 JUMPI PUSH1 0x0 DUP1 REVERT JUMPDEST PUSH1 0x20 DUP3 MUL SWAP1 POP SWAP2 SWAP1 POP JUMP JUMPDEST PUSH1 0x0 PUSH8 0xFFFFFFFFFFFFFFFF DUP3 GT ISZERO PUSH2 0x3784 JUMPI PUSH1 0x0 DUP1 REVERT JUMPDEST PUSH1 0x20 DUP3 MUL SWAP1 POP SWAP2 SWAP1 POP JUMP JUMPDEST PUSH1 0x0 PUSH8 0xFFFFFFFFFFFFFFFF DUP3 GT ISZERO PUSH2 0x37A6 JUMPI PUSH1 0x0 DUP1 REVERT JUMPDEST PUSH1 0x20 DUP3 MUL SWAP1 POP SWAP2 SWAP1 POP JUMP JUMPDEST PUSH1 0x0 PUSH8 0xFFFFFFFFFFFFFFFF DUP3 GT ISZERO PUSH2 0x37C8 JUMPI PUSH1 0x0 DUP1 REVERT JUMPDEST PUSH1 0x1F NOT PUSH1 0x1F DUP4 ADD AND SWAP1 POP PUSH1 0x20 DUP2 ADD SWAP1 POP SWAP2 SWAP1 POP JUMP JUMPDEST PUSH1 0x0 DUP2 SWAP1 POP PUSH1 0x20 DUP3 ADD SWAP1 POP SWAP2 SWAP1 POP JUMP JUMPDEST PUSH1 0x0 DUP2 SWAP1 POP SWAP2 SWAP1 POP JUMP JUMPDEST PUSH1 0x0 DUP2 SWAP1 POP PUSH1 0x20 DUP3 ADD SWAP1 POP SWAP2 SWAP1 POP JUMP JUMPDEST PUSH1 0x0 DUP2 SWAP1 POP PUSH1 0x20 DUP3 ADD SWAP1 POP SWAP2 SWAP1 POP JUMP JUMPDEST PUSH1 0x0 DUP2 SWAP1 POP SWAP2 SWAP1 POP JUMP JUMPDEST PUSH1 0x0 DUP2 MLOAD SWAP1 POP SWAP2 SWAP1 POP JUMP JUMPDEST PUSH1 0x0 PUSH1 0x5 SWAP1 POP SWAP2 SWAP1 POP JUMP JUMPDEST PUSH1 0x0 DUP2 MLOAD SWAP1 POP SWAP2 SWAP1 POP JUMP JUMPDEST PUSH1 0x0 DUP2 MLOAD SWAP1 POP SWAP2 SWAP1 POP JUMP JUMPDEST PUSH1 0x0 PUSH1 0x5 SWAP1 POP SWAP2 SWAP1 POP JUMP JUMPDEST PUSH1 0x0 DUP2 MLOAD SWAP1 POP SWAP2 SWAP1 POP JUMP JUMPDEST PUSH1 0x0 PUSH1 0x20 DUP3 ADD SWAP1 POP SWAP2 SWAP1 POP JUMP JUMPDEST PUSH1 0x0 PUSH1 0x20 DUP3 ADD SWAP1 POP SWAP2 SWAP1 POP JUMP JUMPDEST PUSH1 0x0 PUSH1 0x20 DUP3 ADD SWAP1 POP SWAP2 SWAP1 POP JUMP JUMPDEST PUSH1 0x0 PUSH1 0x20 DUP3 ADD SWAP1 POP SWAP2 SWAP1 POP JUMP JUMPDEST PUSH1 0x0 PUSH1 0x20 DUP3 ADD SWAP1 POP SWAP2 SWAP1 POP JUMP JUMPDEST PUSH1 0x0 DUP3 DUP3 MSTORE PUSH1 0x20 DUP3 ADD SWAP1 POP SWAP3 SWAP2 POP POP JUMP JUMPDEST PUSH1 0x0 DUP2 SWAP1 POP SWAP3 SWAP2 POP POP JUMP JUMPDEST PUSH1 0x0 DUP3 DUP3 MSTORE PUSH1 0x20 DUP3 ADD SWAP1 POP SWAP3 SWAP2 POP POP JUMP JUMPDEST PUSH1 0x0 DUP3 DUP3 MSTORE PUSH1 0x20 DUP3 ADD SWAP1 POP SWAP3 SWAP2 POP POP JUMP JUMPDEST PUSH1 0x0 DUP2 SWAP1 POP SWAP3 SWAP2 POP POP JUMP JUMPDEST PUSH1 0x0 DUP3 DUP3 MSTORE PUSH1 0x20 DUP3 ADD SWAP1 POP SWAP3 SWAP2 POP POP JUMP JUMPDEST PUSH1 0x0 PUSH2 0x3909 DUP3 PUSH2 0x3968 JUMP JUMPDEST SWAP1 POP SWAP2 SWAP1 POP JUMP JUMPDEST PUSH1 0x0 DUP2 ISZERO ISZERO SWAP1 POP SWAP2 SWAP1 POP JUMP JUMPDEST PUSH1 0x0 DUP2 SWAP1 POP PUSH2 0x392A DUP3 PUSH2 0x3A63 JUMP JUMPDEST SWAP2 SWAP1 POP JUMP JUMPDEST PUSH1 0x0 DUP2 SWAP1 POP PUSH2 0x393D DUP3 PUSH2 0x3A70 JUMP JUMPDEST SWAP2 SWAP1 POP JUMP JUMPDEST PUSH1 0x0 DUP2 SWAP1 POP PUSH2 0x3950 DUP3 PUSH2 0x3A7D JUMP JUMPDEST SWAP2 SWAP1 POP JUMP JUMPDEST PUSH1 0x0 DUP2 SWAP1 POP PUSH2 0x3963 DUP3 PUSH2 0x3A8A JUMP JUMPDEST SWAP2 SWAP1 POP JUMP JUMPDEST PUSH1 0x0 PUSH20 0xFFFFFFFFFFFFFFFFFFFFFFFFFFFFFFFFFFFFFFFF DUP3 AND SWAP1 POP SWAP2 SWAP1 POP JUMP JUMPDEST PUSH1 0x0 DUP2 SWAP1 POP SWAP2 SWAP1 POP JUMP JUMPDEST PUSH1 0x0 PUSH2 0x399D DUP3 PUSH2 0x39EC JUMP JUMPDEST SWAP1 POP SWAP2 SWAP1 POP JUMP JUMPDEST PUSH1 0x0 PUSH2 0x39AF DUP3 PUSH2 0x391C JUMP JUMPDEST SWAP1 POP SWAP2 SWAP1 POP JUMP JUMPDEST PUSH1 0x0 PUSH2 0x39C1 DUP3 PUSH2 0x392F JUMP JUMPDEST SWAP1 POP SWAP2 SWAP1 POP JUMP JUMPDEST PUSH1 0x0 PUSH2 0x39D3 DUP3 PUSH2 0x3942 JUMP JUMPDEST SWAP1 POP SWAP2 SWAP1 POP JUMP JUMPDEST PUSH1 0x0 PUSH2 0x39E5 DUP3 PUSH2 0x3955 JUMP JUMPDEST SWAP1 POP SWAP2 SWAP1 POP JUMP JUMPDEST PUSH1 0x0 PUSH2 0x39F7 DUP3 PUSH2 0x39FE JUMP JUMPDEST SWAP1 POP SWAP2 SWAP1 POP JUMP JUMPDEST PUSH1 0x0 PUSH2 0x3A09 DUP3 PUSH2 0x3968 JUMP JUMPDEST SWAP1 POP SWAP2 SWAP1 POP JUMP JUMPDEST DUP3 DUP2 DUP4 CALLDATACOPY PUSH1 0x0 DUP4 DUP4 ADD MSTORE POP POP POP JUMP JUMPDEST PUSH1 0x0 JUMPDEST DUP4 DUP2 LT ISZERO PUSH2 0x3A3D JUMPI DUP1 DUP3 ADD MLOAD DUP2 DUP5 ADD MSTORE PUSH1 0x20 DUP2 ADD SWAP1 POP PUSH2 0x3A22 JUMP JUMPDEST DUP4 DUP2 GT ISZERO PUSH2 0x3A4C JUMPI PUSH1 0x0 DUP5 DUP5 ADD MSTORE JUMPDEST POP POP POP POP JUMP JUMPDEST PUSH1 0x0 PUSH1 0x1F NOT PUSH1 0x1F DUP4 ADD AND SWAP1 POP SWAP2 SWAP1 POP JUMP JUMPDEST PUSH1 0x3 DUP2 LT PUSH2 0x3A6D JUMPI INVALID JUMPDEST POP JUMP JUMPDEST PUSH1 0x2 DUP2 LT PUSH2 0x3A7A JUMPI INVALID JUMPDEST POP JUMP JUMPDEST PUSH1 0x6 DUP2 LT PUSH2 0x3A87 JUMPI INVALID JUMPDEST POP JUMP JUMPDEST PUSH1 0x6 DUP2 LT PUSH2 0x3A94 JUMPI INVALID JUMPDEST POP JUMP JUMPDEST PUSH2 0x3AA0 DUP2 PUSH2 0x38FE JUMP JUMPDEST DUP2 EQ PUSH2 0x3AAB JUMPI PUSH1 0x0 DUP1 REVERT JUMPDEST POP JUMP JUMPDEST PUSH2 0x3AB7 DUP2 PUSH2 0x3910 JUMP JUMPDEST DUP2 EQ PUSH2 0x3AC2 JUMPI PUSH1 0x0 DUP1 REVERT JUMPDEST POP JUMP JUMPDEST PUSH1 0x3 DUP2 LT PUSH2 0x3AD2 JUMPI PUSH1 0x0 DUP1 REVERT JUMPDEST POP JUMP JUMPDEST PUSH1 0x2 DUP2 LT PUSH2 0x3AE2 JUMPI PUSH1 0x0 DUP1 REVERT JUMPDEST POP JUMP JUMPDEST PUSH1 0x6 DUP2 LT PUSH2 0x3AF2 JUMPI PUSH1 0x0 DUP1 REVERT JUMPDEST POP JUMP JUMPDEST PUSH1 0x6 DUP2 LT PUSH2 0x3B02 JUMPI PUSH1 0x0 DUP1 REVERT JUMPDEST POP JUMP JUMPDEST PUSH2 0x3B0E DUP2 PUSH2 0x3988 JUMP JUMPDEST DUP2 EQ PUSH2 0x3B19 JUMPI PUSH1 0x0 DUP1 REVERT JUMPDEST POP JUMP INVALID LOG2 PUSH5 0x6970667358 0x22 SLT KECCAK256 0xAB 0xC6 0xA7 0xD2 0x21 SWAP7 SWAP9 SSTORE 0x27 0xA9 SWAP11 0xE4 SWAP10 0xB1 PUSH9 0xFB6408FA710D1F3430 MUL PUSH15 0xCC3BD9B52C9A64736F6C634300060C STOP CALLER "
		},
		"gasEstimates": {
			"creation": {
				"codeDepositCost": "3037200",
				"executionCost": "infinite",
				"totalCost": "infinite"
			},
			"external": {
				"confirmPayment(address,address,uint8,uint8,uint256,uint256,uint256)": "infinite",
				"fillSchedule((uint256,address,address,uint8,uint8,uint8,uint256,uint256,uint256,uint256,(uint256[5],uint256[5],uint256[5],bool[5]),bool[5],uint256,uint256,bool,uint8),uint8,uint256,uint256)": "infinite",
				"getAllBooks()": "infinite",
				"getAllUsers()": "infinite",
				"getLoanItem(uint256)": "infinite",
				"getOneBook(address)": "infinite",
				"makeLoanDeal(address,uint8,uint8,uint8,uint256)": "infinite",
				"notifyPayment(uint8,address,uint256,string)": "infinite",
				"updateAllPV()": "infinite",
				"updateAllState()": "210",
				"updateState(address,address,uint256,uint256)": "infinite",
				"updateUserPV(address)": "infinite"
			},
			"internal": {
				"calcDF(uint256[7] memory,uint256)": "infinite",
				"inputToItem(struct Loan.LoanInput memory,uint256,uint256)": "infinite",
				"updateOnePV(struct Loan.LoanItem storage pointer)": "infinite"
			}
		},
		"methodIdentifiers": {
			"confirmPayment(address,address,uint8,uint8,uint256,uint256,uint256)": "b677aa2e",
			"fillSchedule((uint256,address,address,uint8,uint8,uint8,uint256,uint256,uint256,uint256,(uint256[5],uint256[5],uint256[5],bool[5]),bool[5],uint256,uint256,bool,uint8),uint8,uint256,uint256)": "86caaf01",
			"getAllBooks()": "354528e8",
			"getAllUsers()": "e2842d79",
			"getLoanItem(uint256)": "61fda82a",
			"getOneBook(address)": "57d8df5a",
			"makeLoanDeal(address,uint8,uint8,uint8,uint256)": "995a2001",
			"notifyPayment(uint8,address,uint256,string)": "1d244afa",
			"updateAllPV()": "d003a97e",
			"updateAllState()": "cb105188",
			"updateState(address,address,uint256,uint256)": "1d78babf",
			"updateUserPV(address)": "4ef8fe5b"
		}
	},
	"abi": [
		{
			"inputs": [
				{
					"internalType": "address",
					"name": "moneyAddr",
					"type": "address"
				},
				{
					"internalType": "address",
					"name": "fxAddr",
					"type": "address"
				},
				{
					"internalType": "address",
					"name": "colAddr",
					"type": "address"
				}
			],
			"stateMutability": "nonpayable",
			"type": "constructor"
		},
		{
			"anonymous": false,
			"inputs": [
				{
					"indexed": true,
					"internalType": "address",
					"name": "loanMaker",
					"type": "address"
				},
				{
					"indexed": true,
					"internalType": "address",
					"name": "colUser",
					"type": "address"
				},
				{
					"indexed": false,
					"internalType": "enum MoneyMarket.Side",
					"name": "side",
					"type": "uint8"
				},
				{
					"indexed": false,
					"internalType": "enum MoneyMarket.Ccy",
					"name": "ccy",
					"type": "uint8"
				},
				{
					"indexed": false,
					"internalType": "uint256",
					"name": "term",
					"type": "uint256"
				},
				{
					"indexed": false,
					"internalType": "uint256",
					"name": "amt",
					"type": "uint256"
				},
				{
					"indexed": false,
					"internalType": "uint256",
					"name": "loanId",
					"type": "uint256"
				}
			],
			"name": "ConfirmPayment",
			"type": "event"
		},
		{
			"anonymous": false,
			"inputs": [
				{
					"indexed": false,
					"internalType": "address",
					"name": "makerAddr",
					"type": "address"
				},
				{
					"indexed": false,
					"internalType": "enum MoneyMarket.Side",
					"name": "side",
					"type": "uint8"
				},
				{
					"indexed": false,
					"internalType": "enum MoneyMarket.Ccy",
					"name": "ccy",
					"type": "uint8"
				},
				{
					"indexed": false,
					"internalType": "enum MoneyMarket.Term",
					"name": "term",
					"type": "uint8"
				},
				{
					"indexed": false,
					"internalType": "uint256",
					"name": "amt",
					"type": "uint256"
				},
				{
					"indexed": false,
					"internalType": "uint256",
					"name": "loanId",
					"type": "uint256"
				}
			],
			"name": "MakeLoanDeal",
			"type": "event"
		},
		{
			"anonymous": false,
			"inputs": [
				{
					"indexed": false,
					"internalType": "enum MoneyMarket.Ccy",
					"name": "ccy",
					"type": "uint8"
				},
				{
					"indexed": false,
					"internalType": "address",
					"name": "sender",
					"type": "address"
				},
				{
					"indexed": false,
					"internalType": "address",
					"name": "receiver",
					"type": "address"
				},
				{
					"indexed": true,
					"internalType": "uint256",
					"name": "loanId",
					"type": "uint256"
				},
				{
					"indexed": false,
					"internalType": "string",
					"name": "txHash",
					"type": "string"
				}
			],
			"name": "NoitfyPayment",
			"type": "event"
		},
		{
			"inputs": [
				{
					"internalType": "address",
					"name": "loanMaker",
					"type": "address"
				},
				{
					"internalType": "address",
					"name": "colUser",
					"type": "address"
				},
				{
					"internalType": "enum MoneyMarket.Side",
					"name": "side",
					"type": "uint8"
				},
				{
					"internalType": "enum MoneyMarket.Ccy",
					"name": "ccy",
					"type": "uint8"
				},
				{
					"internalType": "uint256",
					"name": "term",
					"type": "uint256"
				},
				{
					"internalType": "uint256",
					"name": "amt",
					"type": "uint256"
				},
				{
					"internalType": "uint256",
					"name": "loanId",
					"type": "uint256"
				}
			],
			"name": "confirmPayment",
			"outputs": [],
			"stateMutability": "nonpayable",
			"type": "function"
		},
		{
			"inputs": [
				{
					"components": [
						{
							"internalType": "uint256",
							"name": "loanId",
							"type": "uint256"
						},
						{
							"internalType": "address",
							"name": "lender",
							"type": "address"
						},
						{
							"internalType": "address",
							"name": "borrower",
							"type": "address"
						},
						{
							"internalType": "enum MoneyMarket.Side",
							"name": "side",
							"type": "uint8"
						},
						{
							"internalType": "enum MoneyMarket.Ccy",
							"name": "ccy",
							"type": "uint8"
						},
						{
							"internalType": "enum MoneyMarket.Term",
							"name": "term",
							"type": "uint8"
						},
						{
							"internalType": "uint256",
							"name": "amt",
							"type": "uint256"
						},
						{
							"internalType": "uint256",
							"name": "rate",
							"type": "uint256"
						},
						{
							"internalType": "uint256",
							"name": "start",
							"type": "uint256"
						},
						{
							"internalType": "uint256",
							"name": "end",
							"type": "uint256"
						},
						{
							"components": [
								{
									"internalType": "uint256[5]",
									"name": "notices",
									"type": "uint256[5]"
								},
								{
									"internalType": "uint256[5]",
									"name": "payments",
									"type": "uint256[5]"
								},
								{
									"internalType": "uint256[5]",
									"name": "amounts",
									"type": "uint256[5]"
								},
								{
									"internalType": "bool[5]",
									"name": "isDone",
									"type": "bool[5]"
								}
							],
							"internalType": "struct Loan.Schedule",
							"name": "schedule",
							"type": "tuple"
						},
						{
							"internalType": "bool[5]",
							"name": "isDone",
							"type": "bool[5]"
						},
						{
							"internalType": "uint256",
							"name": "pv",
							"type": "uint256"
						},
						{
							"internalType": "uint256",
							"name": "asOf",
							"type": "uint256"
						},
						{
							"internalType": "bool",
							"name": "isAvailable",
							"type": "bool"
						},
						{
							"internalType": "enum Loan.State",
							"name": "state",
							"type": "uint8"
						}
					],
					"internalType": "struct Loan.LoanItem",
					"name": "item",
					"type": "tuple"
				},
				{
					"internalType": "enum MoneyMarket.Term",
					"name": "term",
					"type": "uint8"
				},
				{
					"internalType": "uint256",
					"name": "amt",
					"type": "uint256"
				},
				{
					"internalType": "uint256",
					"name": "rate",
					"type": "uint256"
				}
			],
			"name": "fillSchedule",
			"outputs": [],
			"stateMutability": "view",
			"type": "function"
		},
		{
			"inputs": [],
			"name": "getAllBooks",
			"outputs": [
				{
					"components": [
						{
							"components": [
								{
									"internalType": "uint256",
									"name": "loanId",
									"type": "uint256"
								},
								{
									"internalType": "address",
									"name": "lender",
									"type": "address"
								},
								{
									"internalType": "address",
									"name": "borrower",
									"type": "address"
								},
								{
									"internalType": "enum MoneyMarket.Side",
									"name": "side",
									"type": "uint8"
								},
								{
									"internalType": "enum MoneyMarket.Ccy",
									"name": "ccy",
									"type": "uint8"
								},
								{
									"internalType": "enum MoneyMarket.Term",
									"name": "term",
									"type": "uint8"
								},
								{
									"internalType": "uint256",
									"name": "amt",
									"type": "uint256"
								},
								{
									"internalType": "uint256",
									"name": "rate",
									"type": "uint256"
								},
								{
									"internalType": "uint256",
									"name": "start",
									"type": "uint256"
								},
								{
									"internalType": "uint256",
									"name": "end",
									"type": "uint256"
								},
								{
									"components": [
										{
											"internalType": "uint256[5]",
											"name": "notices",
											"type": "uint256[5]"
										},
										{
											"internalType": "uint256[5]",
											"name": "payments",
											"type": "uint256[5]"
										},
										{
											"internalType": "uint256[5]",
											"name": "amounts",
											"type": "uint256[5]"
										},
										{
											"internalType": "bool[5]",
											"name": "isDone",
											"type": "bool[5]"
										}
									],
									"internalType": "struct Loan.Schedule",
									"name": "schedule",
									"type": "tuple"
								},
								{
									"internalType": "bool[5]",
									"name": "isDone",
									"type": "bool[5]"
								},
								{
									"internalType": "uint256",
									"name": "pv",
									"type": "uint256"
								},
								{
									"internalType": "uint256",
									"name": "asOf",
									"type": "uint256"
								},
								{
									"internalType": "bool",
									"name": "isAvailable",
									"type": "bool"
								},
								{
									"internalType": "enum Loan.State",
									"name": "state",
									"type": "uint8"
								}
							],
							"internalType": "struct Loan.LoanItem[]",
							"name": "loans",
							"type": "tuple[]"
						},
						{
							"internalType": "uint256",
							"name": "loanNum",
							"type": "uint256"
						},
						{
							"internalType": "bool",
							"name": "isValue",
							"type": "bool"
						}
					],
					"internalType": "struct Loan.LoanBook[]",
					"name": "",
					"type": "tuple[]"
				}
			],
			"stateMutability": "view",
			"type": "function"
		},
		{
			"inputs": [],
			"name": "getAllUsers",
			"outputs": [
				{
					"internalType": "address[]",
					"name": "",
					"type": "address[]"
				}
			],
			"stateMutability": "view",
			"type": "function"
		},
		{
			"inputs": [
				{
					"internalType": "uint256",
					"name": "loanId",
					"type": "uint256"
				}
			],
			"name": "getLoanItem",
			"outputs": [
				{
					"components": [
						{
							"internalType": "uint256",
							"name": "loanId",
							"type": "uint256"
						},
						{
							"internalType": "address",
							"name": "lender",
							"type": "address"
						},
						{
							"internalType": "address",
							"name": "borrower",
							"type": "address"
						},
						{
							"internalType": "enum MoneyMarket.Side",
							"name": "side",
							"type": "uint8"
						},
						{
							"internalType": "enum MoneyMarket.Ccy",
							"name": "ccy",
							"type": "uint8"
						},
						{
							"internalType": "enum MoneyMarket.Term",
							"name": "term",
							"type": "uint8"
						},
						{
							"internalType": "uint256",
							"name": "amt",
							"type": "uint256"
						},
						{
							"internalType": "uint256",
							"name": "rate",
							"type": "uint256"
						},
						{
							"internalType": "uint256",
							"name": "start",
							"type": "uint256"
						},
						{
							"internalType": "uint256",
							"name": "end",
							"type": "uint256"
						},
						{
							"components": [
								{
									"internalType": "uint256[5]",
									"name": "notices",
									"type": "uint256[5]"
								},
								{
									"internalType": "uint256[5]",
									"name": "payments",
									"type": "uint256[5]"
								},
								{
									"internalType": "uint256[5]",
									"name": "amounts",
									"type": "uint256[5]"
								},
								{
									"internalType": "bool[5]",
									"name": "isDone",
									"type": "bool[5]"
								}
							],
							"internalType": "struct Loan.Schedule",
							"name": "schedule",
							"type": "tuple"
						},
						{
							"internalType": "bool[5]",
							"name": "isDone",
							"type": "bool[5]"
						},
						{
							"internalType": "uint256",
							"name": "pv",
							"type": "uint256"
						},
						{
							"internalType": "uint256",
							"name": "asOf",
							"type": "uint256"
						},
						{
							"internalType": "bool",
							"name": "isAvailable",
							"type": "bool"
						},
						{
							"internalType": "enum Loan.State",
							"name": "state",
							"type": "uint8"
						}
					],
					"internalType": "struct Loan.LoanItem",
					"name": "",
					"type": "tuple"
				}
			],
			"stateMutability": "view",
			"type": "function"
		},
		{
			"inputs": [
				{
					"internalType": "address",
					"name": "addr",
					"type": "address"
				}
			],
			"name": "getOneBook",
			"outputs": [
				{
					"components": [
						{
							"components": [
								{
									"internalType": "uint256",
									"name": "loanId",
									"type": "uint256"
								},
								{
									"internalType": "address",
									"name": "lender",
									"type": "address"
								},
								{
									"internalType": "address",
									"name": "borrower",
									"type": "address"
								},
								{
									"internalType": "enum MoneyMarket.Side",
									"name": "side",
									"type": "uint8"
								},
								{
									"internalType": "enum MoneyMarket.Ccy",
									"name": "ccy",
									"type": "uint8"
								},
								{
									"internalType": "enum MoneyMarket.Term",
									"name": "term",
									"type": "uint8"
								},
								{
									"internalType": "uint256",
									"name": "amt",
									"type": "uint256"
								},
								{
									"internalType": "uint256",
									"name": "rate",
									"type": "uint256"
								},
								{
									"internalType": "uint256",
									"name": "start",
									"type": "uint256"
								},
								{
									"internalType": "uint256",
									"name": "end",
									"type": "uint256"
								},
								{
									"components": [
										{
											"internalType": "uint256[5]",
											"name": "notices",
											"type": "uint256[5]"
										},
										{
											"internalType": "uint256[5]",
											"name": "payments",
											"type": "uint256[5]"
										},
										{
											"internalType": "uint256[5]",
											"name": "amounts",
											"type": "uint256[5]"
										},
										{
											"internalType": "bool[5]",
											"name": "isDone",
											"type": "bool[5]"
										}
									],
									"internalType": "struct Loan.Schedule",
									"name": "schedule",
									"type": "tuple"
								},
								{
									"internalType": "bool[5]",
									"name": "isDone",
									"type": "bool[5]"
								},
								{
									"internalType": "uint256",
									"name": "pv",
									"type": "uint256"
								},
								{
									"internalType": "uint256",
									"name": "asOf",
									"type": "uint256"
								},
								{
									"internalType": "bool",
									"name": "isAvailable",
									"type": "bool"
								},
								{
									"internalType": "enum Loan.State",
									"name": "state",
									"type": "uint8"
								}
							],
							"internalType": "struct Loan.LoanItem[]",
							"name": "loans",
							"type": "tuple[]"
						},
						{
							"internalType": "uint256",
							"name": "loanNum",
							"type": "uint256"
						},
						{
							"internalType": "bool",
							"name": "isValue",
							"type": "bool"
						}
					],
					"internalType": "struct Loan.LoanBook",
					"name": "",
					"type": "tuple"
				}
			],
			"stateMutability": "view",
			"type": "function"
		},
		{
			"inputs": [
				{
					"internalType": "address",
					"name": "makerAddr",
					"type": "address"
				},
				{
					"internalType": "enum MoneyMarket.Side",
					"name": "side",
					"type": "uint8"
				},
				{
					"internalType": "enum MoneyMarket.Ccy",
					"name": "ccy",
					"type": "uint8"
				},
				{
					"internalType": "enum MoneyMarket.Term",
					"name": "term",
					"type": "uint8"
				},
				{
					"internalType": "uint256",
					"name": "amt",
					"type": "uint256"
				}
			],
			"name": "makeLoanDeal",
			"outputs": [],
			"stateMutability": "nonpayable",
			"type": "function"
		},
		{
			"inputs": [
				{
					"internalType": "enum MoneyMarket.Ccy",
					"name": "ccy",
					"type": "uint8"
				},
				{
					"internalType": "address",
					"name": "receiver",
					"type": "address"
				},
				{
					"internalType": "uint256",
					"name": "loanId",
					"type": "uint256"
				},
				{
					"internalType": "string",
					"name": "txHash",
					"type": "string"
				}
			],
			"name": "notifyPayment",
			"outputs": [],
			"stateMutability": "nonpayable",
			"type": "function"
		},
		{
			"inputs": [],
			"name": "updateAllPV",
			"outputs": [],
			"stateMutability": "nonpayable",
			"type": "function"
		},
		{
			"inputs": [],
			"name": "updateAllState",
			"outputs": [],
			"stateMutability": "nonpayable",
			"type": "function"
		},
		{
			"inputs": [
				{
					"internalType": "address",
					"name": "loanMaker",
					"type": "address"
				},
				{
					"internalType": "address",
					"name": "colUser",
					"type": "address"
				},
				{
					"internalType": "uint256",
					"name": "loanId",
					"type": "uint256"
				},
				{
					"internalType": "uint256",
					"name": "amt",
					"type": "uint256"
				}
			],
			"name": "updateState",
			"outputs": [],
			"stateMutability": "nonpayable",
			"type": "function"
		},
		{
			"inputs": [
				{
					"internalType": "address",
					"name": "addr",
					"type": "address"
				}
			],
			"name": "updateUserPV",
			"outputs": [],
			"stateMutability": "nonpayable",
			"type": "function"
		}
	]
}