{
	"data": {
		"bytecode": {
			"linkReferences": {},
			"object": "60806040526040518060c001604052806276a70063ffffffff16815260200162ed4e0063ffffffff1681526020016301e1338063ffffffff1681526020016303c2670063ffffffff1681526020016305a39a8063ffffffff168152602001630966018063ffffffff1681525060009060066200007d92919062000603565b506040518060c00160405280610168605a61271002816200009a57fe5b04815260200161016860b46127100281620000b157fe5b0481526020016001612710028152602001600161271002815260200160016127100281526020016001612710028152506006906006620000f392919062000650565b5060405180602001604052806276a70062ffffff16815250600c9060016200011d92919062000695565b50604051806020016040528062ed4e0062ffffff1681525060119060016200014792919062000695565b5060405180602001604052806301e1338063ffffffff16815250601690600162000173929190620006e1565b5060405180604001604052806301e1338063ffffffff1681526020016303c2670063ffffffff16815250601b906002620001af9291906200072e565b5060405180606001604052806301e1338063ffffffff1681526020016303c2670063ffffffff1681526020016305a39a8063ffffffff168152506020906003620001fb9291906200077b565b506040518060a001604052806301e1338063ffffffff1681526020016303c2670063ffffffff1681526020016305a39a8063ffffffff168152602001630784ce0063ffffffff168152602001630966018063ffffffff16815250602590600562000267929190620007c8565b506040518060c00160405280600c600580602002604051908101604052809291908260058015620002ae576020028201915b81548152602001906001019080831162000299575b505050505081526020016011600580602002604051908101604052809291908260058015620002f3576020028201915b815481526020019060010190808311620002de575b50505050508152602001601660058060200260405190810160405280929190826005801562000338576020028201915b81548152602001906001019080831162000323575b50505050508152602001601b6005806020026040519081016040528092919082600580156200037d576020028201915b81548152602001906001019080831162000368575b505050505081526020016020600580602002604051908101604052809291908260058015620003c2576020028201915b815481526020019060010190808311620003ad575b50505050508152602001602560058060200260405190810160405280929190826005801562000407576020028201915b815481526020019060010190808311620003f2575b5050505050815250602a9060066200042192919062000815565b506040518060c00160405280600160ff168152602001600160ff168152602001600160ff168152602001600260ff168152602001600360ff168152602001600560ff168152506048906006620004799291906200086d565b506040518060e001604052806276a70063ffffffff16815260200162ed4e0063ffffffff1681526020016301e1338063ffffffff1681526020016303c2670063ffffffff1681526020016305a39a8063ffffffff168152602001630784ce0063ffffffff168152602001630966018063ffffffff16815250604e90600762000503929190620008b7565b503480156200051157600080fd5b5060405162003ff938038062003ff98339818101604052810190620005379190620009ca565b82605760006101000a81548173ffffffffffffffffffffffffffffffffffffffff021916908373ffffffffffffffffffffffffffffffffffffffff16021790555081605860006101000a81548173ffffffffffffffffffffffffffffffffffffffff021916908373ffffffffffffffffffffffffffffffffffffffff16021790555080605960006101000a81548173ffffffffffffffffffffffffffffffffffffffff021916908373ffffffffffffffffffffffffffffffffffffffff16021790555050505062000a6e565b82600681019282156200063d579160200282015b828111156200063c578251829063ffffffff1690559160200191906001019062000617565b5b5090506200064c919062000904565b5090565b826006810192821562000682579160200282015b828111156200068157825182559160200191906001019062000664565b5b50905062000691919062000904565b5090565b8260058101928215620006ce579160200282015b82811115620006cd578251829062ffffff16905591602001919060010190620006a9565b5b509050620006dd919062000904565b5090565b82600581019282156200071b579160200282015b828111156200071a578251829063ffffffff16905591602001919060010190620006f5565b5b5090506200072a919062000904565b5090565b826005810192821562000768579160200282015b8281111562000767578251829063ffffffff1690559160200191906001019062000742565b5b50905062000777919062000904565b5090565b8260058101928215620007b5579160200282015b82811115620007b4578251829063ffffffff169055916020019190600101906200078f565b5b509050620007c4919062000904565b5090565b826005810192821562000802579160200282015b8281111562000801578251829063ffffffff16905591602001919060010190620007dc565b5b50905062000811919062000904565b5090565b82600660050281019282156200085a579160200282015b8281111562000859578251829060056200084892919062000923565b50916020019190600501906200082c565b5b50905062000869919062000968565b5090565b8260068101928215620008a4579160200282015b82811115620008a3578251829060ff1690559160200191906001019062000881565b5b509050620008b3919062000904565b5090565b8260078101928215620008f1579160200282015b82811115620008f0578251829063ffffffff16905591602001919060010190620008cb565b5b50905062000900919062000904565b5090565b5b808211156200091f57600081600090555060010162000905565b5090565b826005810192821562000955579160200282015b828111156200095457825182559160200191906001019062000937565b5b50905062000964919062000904565b5090565b5b808211156200098c576000818162000982919062000990565b5060050162000969565b5090565b506000815560010160008155600101600081556001016000815560010160009055565b600081519050620009c48162000a54565b92915050565b600080600060608486031215620009e057600080fd5b6000620009f086828701620009b3565b935050602062000a0386828701620009b3565b925050604062000a1686828701620009b3565b9150509250925092565b600062000a2d8262000a34565b9050919050565b600073ffffffffffffffffffffffffffffffffffffffff82169050919050565b62000a5f8162000a20565b811462000a6b57600080fd5b50565b61357b8062000a7e6000396000f3fe608060405234801561001057600080fd5b50600436106100b45760003560e01c8063995a200111610071578063995a20011461018b578063b677aa2e146101a7578063cb105188146101c3578063d003a97e146101cd578063dc570d2d146101d7578063e2842d7914610207576100b4565b80631d244afa146100b95780631d78babf146100d5578063354528e8146100f15780634ef8fe5b1461010f57806357d8df5a1461012b57806361fda82a1461015b575b600080fd5b6100d360048036038101906100ce919061259e565b610225565b005b6100ef60048036038101906100ea919061249a565b610269565b005b6100f9610491565b6040516101069190612f96565b60405180910390f35b610129600480360381019061012491906123d3565b6108d3565b005b610145600480360381019061014091906123d3565b61095c565b6040516101529190613185565b60405180910390f35b61017560048036038101906101709190612668565b610cde565b60405161018291906131a7565b60405180910390f35b6101a560048036038101906101a091906124fd565b610da8565b005b6101c160048036038101906101bc91906123fc565b6113f3565b005b6101cb611582565b005b6101d5611584565b005b6101f160048036038101906101ec9190612619565b611661565b6040516101fe91906131c3565b60405180910390f35b61020f611893565b60405161021c9190612f74565b60405180910390f35b817fc078863e7ade0c5659980a387d8552e7ee23b544977aa247769231095482a60c8533868560405161025b9493929190612fb8565b60405180910390a250505050565b6000605560008673ffffffffffffffffffffffffffffffffffffffff1673ffffffffffffffffffffffffffffffffffffffff168152602001908152602001600020905060008160000184815481106102bd57fe5b9060005260206000209060190201905080600301548314610313576040517f08c379a000000000000000000000000000000000000000000000000000000000815260040161030a90613105565b60405180910390fd5b6000600581111561032057fe5b8160180160019054906101000a900460ff16600581111561033d57fe5b1415610489578060020160009054906101000a900473ffffffffffffffffffffffffffffffffffffffff1673ffffffffffffffffffffffffffffffffffffffff168573ffffffffffffffffffffffffffffffffffffffff16146103d5576040517f08c379a00000000000000000000000000000000000000000000000000000000081526004016103cc90613165565b60405180910390fd5b60018160180160016101000a81548160ff021916908360058111156103f657fe5b0217905550605960009054906101000a900473ffffffffffffffffffffffffffffffffffffffff1673ffffffffffffffffffffffffffffffffffffffff166374e8de77866040518263ffffffff1660e01b81526004016104569190612ea5565b600060405180830381600087803b15801561047057600080fd5b505af1158015610484573d6000803e3d6000fd5b505050505b505050505050565b60608060568054905067ffffffffffffffff811180156104b057600080fd5b506040519080825280602002602001820160405280156104ea57816020015b6104d7611f40565b8152602001906001900390816104cf5790505b50905060005b6056805490508110156108cb57605560006056838154811061050e57fe5b9060005260206000200160009054906101000a900473ffffffffffffffffffffffffffffffffffffffff1673ffffffffffffffffffffffffffffffffffffffff1673ffffffffffffffffffffffffffffffffffffffff16815260200190815260200160002060405180606001604052908160008201805480602002602001604051908101604052809291908181526020016000905b8282101561087a5783829060005260206000209060190201604051806101a0016040529081600082015481526020016001820160009054906101000a900473ffffffffffffffffffffffffffffffffffffffff1673ffffffffffffffffffffffffffffffffffffffff1673ffffffffffffffffffffffffffffffffffffffff1681526020016002820160009054906101000a900473ffffffffffffffffffffffffffffffffffffffff1673ffffffffffffffffffffffffffffffffffffffff1673ffffffffffffffffffffffffffffffffffffffff1681526020016002820160149054906101000a900460ff16600181111561069b57fe5b60018111156106a657fe5b81526020016002820160159054906101000a900460ff1660028111156106c857fe5b60028111156106d357fe5b81526020016002820160169054906101000a900460ff1660058111156106f557fe5b600581111561070057fe5b81526020016003820154815260200160048201548152602001600582016040518060a0016040529081600082015481526020016001820154815260200160028201600580602002604051908101604052809291908260058015610778576020028201915b815481526020019060010190808311610764575b50505050508152602001600782016005806020026040519081016040528092919082600580156107bd576020028201915b8154815260200190600101908083116107a9575b50505050508152602001600c8201600580602002604051908101604052809291908260058015610802576020028201915b8154815260200190600101908083116107ee575b505050505081525050815260200160168201548152602001601782015481526020016018820160009054906101000a900460ff161515151581526020016018820160019054906101000a900460ff16600581111561085c57fe5b600581111561086757fe5b81525050815260200190600101906105a3565b505050508152602001600182015481526020016002820160009054906101000a900460ff1615151515815250508282815181106108b357fe5b602002602001018190525080806001019150506104f0565b508091505090565b6000605560008373ffffffffffffffffffffffffffffffffffffffff1673ffffffffffffffffffffffffffffffffffffffff168152602001908152602001600020600001905060005b81805490508110156109575761094a82828154811061093757fe5b9060005260206000209060190201611921565b808060010191505061091c565b505050565b610964611f40565b605560008373ffffffffffffffffffffffffffffffffffffffff1673ffffffffffffffffffffffffffffffffffffffff16815260200190815260200160002060405180606001604052908160008201805480602002602001604051908101604052809291908181526020016000905b82821015610caa5783829060005260206000209060190201604051806101a0016040529081600082015481526020016001820160009054906101000a900473ffffffffffffffffffffffffffffffffffffffff1673ffffffffffffffffffffffffffffffffffffffff1673ffffffffffffffffffffffffffffffffffffffff1681526020016002820160009054906101000a900473ffffffffffffffffffffffffffffffffffffffff1673ffffffffffffffffffffffffffffffffffffffff1673ffffffffffffffffffffffffffffffffffffffff1681526020016002820160149054906101000a900460ff166001811115610acb57fe5b6001811115610ad657fe5b81526020016002820160159054906101000a900460ff166002811115610af857fe5b6002811115610b0357fe5b81526020016002820160169054906101000a900460ff166005811115610b2557fe5b6005811115610b3057fe5b81526020016003820154815260200160048201548152602001600582016040518060a0016040529081600082015481526020016001820154815260200160028201600580602002604051908101604052809291908260058015610ba8576020028201915b815481526020019060010190808311610b94575b5050505050815260200160078201600580602002604051908101604052809291908260058015610bed576020028201915b815481526020019060010190808311610bd9575b50505050508152602001600c8201600580602002604051908101604052809291908260058015610c32576020028201915b815481526020019060010190808311610c1e575b505050505081525050815260200160168201548152602001601782015481526020016018820160009054906101000a900460ff161515151581526020016018820160019054906101000a900460ff166005811115610c8c57fe5b6005811115610c9757fe5b81525050815260200190600101906109d3565b505050508152602001600182015481526020016002820160009054906101000a900460ff1615151515815250509050919050565b610ce6611f63565b605560003373ffffffffffffffffffffffffffffffffffffffff1673ffffffffffffffffffffffffffffffffffffffff16815260200190815260200160002060020160009054906101000a900460ff16610d75576040517f08c379a0000000000000000000000000000000000000000000000000000000008152600401610d6c906130e5565b60405180910390fd5b610d7d611f40565b610d863361095c565b905080600001518381518110610d9857fe5b6020026020010151915050919050565b3373ffffffffffffffffffffffffffffffffffffffff168573ffffffffffffffffffffffffffffffffffffffff161415610e17576040517f08c379a0000000000000000000000000000000000000000000000000000000008152600401610e0e906130c5565b60405180910390fd5b60006001811115610e2457fe5b846001811115610e3057fe5b1415610ec857605960009054906101000a900473ffffffffffffffffffffffffffffffffffffffff1673ffffffffffffffffffffffffffffffffffffffff166331f652db8483336040518463ffffffff1660e01b8152600401610e959392919061303b565b600060405180830381600087803b158015610eaf57600080fd5b505af1158015610ec3573d6000803e3d6000fd5b505050505b600180811115610ed457fe5b846001811115610ee057fe5b1415610f7857605960009054906101000a900473ffffffffffffffffffffffffffffffffffffffff1673ffffffffffffffffffffffffffffffffffffffff166331f652db8483886040518463ffffffff1660e01b8152600401610f4593929190613004565b600060405180830381600087803b158015610f5f57600080fd5b505af1158015610f73573d6000803e3d6000fd5b505050505b6000605760009054906101000a900473ffffffffffffffffffffffffffffffffffffffff1673ffffffffffffffffffffffffffffffffffffffff1663524bc34a87878787876040518663ffffffff1660e01b8152600401610fdd959493929190612ec0565b602060405180830381600087803b158015610ff757600080fd5b505af115801561100b573d6000803e3d6000fd5b505050506040513d601f19601f8201168201806040525081019061102f9190612691565b90506000605560008873ffffffffffffffffffffffffffffffffffffffff1673ffffffffffffffffffffffffffffffffffffffff168152602001908152602001600020905061107c61202b565b6040518060a001604052808973ffffffffffffffffffffffffffffffffffffffff1681526020018860018111156110af57fe5b81526020018760028111156110c057fe5b81526020018660058111156110d157fe5b81526020018581525090506110e4611f63565b611101828585600101600081548092919060010191905055611c0e565b9050826000018190806001815401808255809150506001900390600052602060002090601902016000909190919091506000820151816000015560208201518160010160006101000a81548173ffffffffffffffffffffffffffffffffffffffff021916908373ffffffffffffffffffffffffffffffffffffffff16021790555060408201518160020160006101000a81548173ffffffffffffffffffffffffffffffffffffffff021916908373ffffffffffffffffffffffffffffffffffffffff16021790555060608201518160020160146101000a81548160ff021916908360018111156111ed57fe5b021790555060808201518160020160156101000a81548160ff0219169083600281111561121657fe5b021790555060a08201518160020160166101000a81548160ff0219169083600581111561123f57fe5b021790555060c0820151816003015560e0820151816004015561010082015181600501600082015181600001556020820151816001015560408201518160020190600561128d929190612091565b506060820151816007019060056112a5929190612091565b50608082015181600c019060056112bd929190612091565b505050610120820151816016015561014082015181601701556101608201518160180160006101000a81548160ff0219169083151502179055506101808201518160180160016101000a81548160ff0219169083600581111561131c57fe5b0217905550505060018360020160006101000a81548160ff0219169083151502179055506056339080600181540180825580915050600190039060005260206000200160009091909190916101000a81548173ffffffffffffffffffffffffffffffffffffffff021916908373ffffffffffffffffffffffffffffffffffffffff1602179055507f787a470148c364ff9c70e82b2c6c1b0becbca7969011737f1f93ce9307b424e9898989898986600001516040516113e096959493929190612f13565b60405180910390a1505050505050505050565b6000600181111561140057fe5b85600181111561140c57fe5b1415611491578573ffffffffffffffffffffffffffffffffffffffff163373ffffffffffffffffffffffffffffffffffffffff1614611480576040517f08c379a000000000000000000000000000000000000000000000000000000000815260040161147790613125565b60405180910390fd5b61148c87878385610269565b61150c565b8673ffffffffffffffffffffffffffffffffffffffff163373ffffffffffffffffffffffffffffffffffffffff16146114ff576040517f08c379a00000000000000000000000000000000000000000000000000000000081526004016114f690613145565b60405180910390fd5b61150b87878385610269565b5b8573ffffffffffffffffffffffffffffffffffffffff168773ffffffffffffffffffffffffffffffffffffffff167f52f2cbddb551a0cd4ad65095542b2efd13cd261642f4034c3b0c01b232c2591d8787878787604051611571959493929190613072565b60405180910390a350505050505050565b565b60005b60568054905081101561165e57600060556000605684815481106115a757fe5b9060005260206000200160009054906101000a900473ffffffffffffffffffffffffffffffffffffffff1673ffffffffffffffffffffffffffffffffffffffff1673ffffffffffffffffffffffffffffffffffffffff168152602001908152602001600020600001905060005b818054905081101561164f5761164282828154811061162f57fe5b9060005260206000209060190201611921565b8080600101915050611614565b50508080600101915050611587565b50565b6116696120d1565b611671612112565b602a85600581111561167f57fe5b6006811061168957fe5b600502016005806020026040519081016040528092919082600580156116c4576020028201915b8154815260200190600101908083116116b0575b505050505090506116d3612112565b602a8660058111156116e157fe5b600681106116eb57fe5b60050201600580602002604051908101604052809291908260058015611726576020028201915b815481526020019060010190808311611712575b50505050509050611735612112565b602a87600581111561174357fe5b6006811061174d57fe5b60050201600580602002604051908101604052809291908260058015611788576020028201915b815481526020019060010190808311611774575b5050505050905060005b60488860058111156117a057fe5b600681106117aa57fe5b0154811015611844576212750042038482600581106117c557fe5b602002018181510191508181525050428382600581106117e157fe5b6020020181815101915081815250506127108060068a600581111561180257fe5b6006811061180c57fe5b0154888a02028161181957fe5b048161182157fe5b0482826005811061182e57fe5b6020020181815250508080600101915050611792565b506040518060a00160405280428152602001600089600581111561186457fe5b6006811061186e57fe5b0154420181526020018481526020018381526020018281525093505050509392505050565b6060605680548060200260200160405190810160405280929190818152602001828054801561191757602002820191906000526020600020905b8160009054906101000a900473ffffffffffffffffffffffffffffffffffffffff1673ffffffffffffffffffffffffffffffffffffffff16815260200190600101908083116118cd575b5050505050905090565b611929612134565b605760009054906101000a900473ffffffffffffffffffffffffffffffffffffffff1673ffffffffffffffffffffffffffffffffffffffff1663069fa00c6040518163ffffffff1660e01b81526004016102a06040518083038186803b15801561199257600080fd5b505afa1580156119a6573d6000803e3d6000fd5b505050506040513d601f19601f820116820180604052508101906119ca9190612574565b90506119d4612161565b818360020160159054906101000a900460ff1660028111156119f257fe5b600381106119fc57fe5b60200201519050611a0b61219e565b6040518060e0016040528083600001518152602001836020015181526020018360400151815260200183606001518152602001836080015181526020018360a0015181526020018360c001518152509050611a64612112565b84600501600701600580602002604051908101604052809291908260058015611aa2576020028201915b815481526020019060010190808311611a8e575b50505050509050611ab1612112565b85600501600c01600580602002604051908101604052809291908260058015611aef576020028201915b815481526020019060010190808311611adb575b50505050509050611afe612112565b6000805b60488960020160169054906101000a900460ff166005811115611b2157fe5b60068110611b2b57fe5b0154811015611b98576000611b5087878460058110611b4657fe5b6020020151611df2565b905080848360058110611b5f57fe5b60200201818152505061271081868460058110611b7857fe5b60200201510281611b8557fe5b0483019250508080600101915050611b02565b506000600160488a60020160169054906101000a900460ff166005811115611bbc57fe5b60068110611bc657fe5b0154039050612710838260058110611bda57fe5b60200201518a600301540281611bec57fe5b0482019150818960160181905550428960170181905550505050505050505050565b611c16611f63565b611c1e611f63565b8281600001818152505060006001811115611c3557fe5b85602001516001811115611c4557fe5b14611c505733611c56565b84600001515b816020019073ffffffffffffffffffffffffffffffffffffffff16908173ffffffffffffffffffffffffffffffffffffffff1681525050600180811115611c9957fe5b85602001516001811115611ca957fe5b14611cb45733611cba565b84600001515b816040019073ffffffffffffffffffffffffffffffffffffffff16908173ffffffffffffffffffffffffffffffffffffffff1681525050846020015181606001906001811115611d0657fe5b90816001811115611d1357fe5b81525050846040015181608001906002811115611d2c57fe5b90816002811115611d3957fe5b8152505084606001518160a001906005811115611d5257fe5b90816005811115611d5f57fe5b8152505084608001518160c0018181525050838160e0018181525050611d8e8560600151866080015186611661565b816101000181905250846080015181610120018181525050428161014001818152505060018161016001901515908115158152505060008161018001906005811115611dd657fe5b90816005811115611de357fe5b81525050809150509392505050565b6000428211611e045760009050611f3a565b60004283039050604e600060078110611e1957fe5b01548111611e5557604e600060078110611e2f57fe5b01548185600060078110611e3f57fe5b60200201510281611e4c57fe5b04915050611f3a565b6000600190505b6007811015611f375781604e6001830360078110611e7657fe5b0154108015611e935750604e8160078110611e8d57fe5b01548211155b15611f2a576000604e6001830360078110611eaa57fe5b015483039050600083604e8460078110611ec057fe5b01540390506000604e6001850360078110611ed757fe5b0154604e8560078110611ee657fe5b01540390508083898660078110611ef957fe5b602002015102838a6001880360078110611f0f57fe5b6020020151020181611f1d57fe5b0495505050505050611f3a565b8080600101915050611e5c565b50505b92915050565b604051806060016040528060608152602001600081526020016000151581525090565b604051806101a0016040528060008152602001600073ffffffffffffffffffffffffffffffffffffffff168152602001600073ffffffffffffffffffffffffffffffffffffffff16815260200160006001811115611fbd57fe5b815260200160006002811115611fcf57fe5b815260200160006005811115611fe157fe5b81526020016000815260200160008152602001611ffc6120d1565b815260200160008152602001600081526020016000151581526020016000600581111561202557fe5b81525090565b6040518060a00160405280600073ffffffffffffffffffffffffffffffffffffffff1681526020016000600181111561206057fe5b81526020016000600281111561207257fe5b81526020016000600581111561208457fe5b8152602001600081525090565b82600581019282156120c0579160200282015b828111156120bf5782518255916020019190600101906120a4565b5b5090506120cd91906121c0565b5090565b6040518060a0016040528060008152602001600081526020016120f2612112565b81526020016120ff612112565b815260200161210c612112565b81525090565b6040518060a00160405280600590602082028036833780820191505090505090565b60405180606001604052806003905b61214b612161565b8152602001906001900390816121435790505090565b6040518060e00160405280600081526020016000815260200160008152602001600081526020016000815260200160008152602001600081525090565b6040518060e00160405280600790602082028036833780820191505090505090565b5b808211156121d95760008160009055506001016121c1565b5090565b6000813590506121ec816134e7565b92915050565b600082601f83011261220357600080fd5b60036122166122118261320c565b6131df565b915081838560e084028201111561222c57600080fd5b60005b8381101561225c578161224288826122f9565b845260208401935060e0830192505060018101905061222f565b5050505092915050565b600081359050612275816134fe565b92915050565b60008135905061228a8161350e565b92915050565b60008135905061229f8161351e565b92915050565b600082601f8301126122b657600080fd5b81356122c96122c48261322e565b6131df565b915080825260208301602083018583830111156122e557600080fd5b6122f0838284613460565b50505092915050565b600060e0828403121561230b57600080fd5b61231560e06131df565b90506000612325848285016123be565b6000830152506020612339848285016123be565b602083015250604061234d848285016123be565b6040830152506060612361848285016123be565b6060830152506080612375848285016123be565b60808301525060a0612389848285016123be565b60a08301525060c061239d848285016123be565b60c08301525092915050565b6000813590506123b88161352e565b92915050565b6000815190506123cd8161352e565b92915050565b6000602082840312156123e557600080fd5b60006123f3848285016121dd565b91505092915050565b600080600080600080600060e0888a03121561241757600080fd5b60006124258a828b016121dd565b97505060206124368a828b016121dd565b96505060406124478a828b0161227b565b95505060606124588a828b01612266565b94505060806124698a828b016123a9565b93505060a061247a8a828b016123a9565b92505060c061248b8a828b016123a9565b91505092959891949750929550565b600080600080608085870312156124b057600080fd5b60006124be878288016121dd565b94505060206124cf878288016121dd565b93505060406124e0878288016123a9565b92505060606124f1878288016123a9565b91505092959194509250565b600080600080600060a0868803121561251557600080fd5b6000612523888289016121dd565b95505060206125348882890161227b565b945050604061254588828901612266565b935050606061255688828901612290565b9250506080612567888289016123a9565b9150509295509295909350565b60006102a0828403121561258757600080fd5b6000612595848285016121f2565b91505092915050565b600080600080608085870312156125b457600080fd5b60006125c287828801612266565b94505060206125d3878288016121dd565b93505060406125e4878288016123a9565b925050606085013567ffffffffffffffff81111561260157600080fd5b61260d878288016122a5565b91505092959194509250565b60008060006060848603121561262e57600080fd5b600061263c86828701612290565b935050602061264d868287016123a9565b925050604061265e868287016123a9565b9150509250925092565b60006020828403121561267a57600080fd5b6000612688848285016123a9565b91505092915050565b6000602082840312156126a357600080fd5b60006126b1848285016123be565b91505092915050565b60006126c68383612726565b60208301905092915050565b60006126de8383612afd565b905092915050565b60006126f28383612b9d565b6103a08301905092915050565b600061270b8383612e87565b60208301905092915050565b612720816133e2565b82525050565b61272f8161334e565b82525050565b61273e8161334e565b82525050565b600061274f82613294565b61275981856132ff565b93506127648361325a565b8060005b8381101561279557815161277c88826126ba565b9750612787836132cb565b925050600181019050612768565b5085935050505092915050565b60006127ad8261329f565b6127b78185613310565b9350836020820285016127c98561326a565b8060005b8581101561280557848403895281516127e685826126d2565b94506127f1836132d8565b925060208a019950506001810190506127cd565b50829750879550505050505092915050565b6000612822826132aa565b61282c8185613321565b93506128378361327a565b8060005b8381101561286857815161284f88826126e6565b975061285a836132e5565b92505060018101905061283b565b5085935050505092915050565b61287e816132b5565b6128888184613332565b92506128938261328a565b8060005b838110156128c45781516128ab87826126ff565b96506128b6836132f2565b925050600181019050612897565b505050505050565b6128d581613360565b82525050565b6128e4816133f4565b82525050565b6128f3816133f4565b82525050565b61290281613406565b82525050565b61291181613406565b82525050565b61292081613418565b82525050565b61292f8161342a565b82525050565b61293e8161342a565b82525050565b600061294f826132c0565b612959818561333d565b935061296981856020860161346f565b612972816134a2565b840191505092915050565b600061298a601f8361333d565b91507f53616d6520706572736f6e206465616c206973206e6f7420616c6c6f776564006000830152602082019050919050565b60006129ca60128361333d565b91507f6e6f206c6f616e206974656d20666f756e6400000000000000000000000000006000830152602082019050919050565b6000612a0a60188361333d565b91507f636f6e6669726d20616d6f756e74206e6f74206d6174636800000000000000006000830152602082019050919050565b6000612a4a601a8361333d565b91507f6d73672e73656e646572206973206e6f7420626f72726f7765720000000000006000830152602082019050919050565b6000612a8a60188361333d565b91507f6d73672e73656e646572206973206e6f74206c656e64657200000000000000006000830152602082019050919050565b6000612aca60158361333d565b91507f626f72726f776572206d75737420636f6e6669726d00000000000000000000006000830152602082019050919050565b60006060830160008301518482036000860152612b1a8282612817565b9150506020830151612b2f6020860182612e87565b506040830151612b4260408601826128cc565b508091505092915050565b60006060830160008301518482036000860152612b6a8282612817565b9150506020830151612b7f6020860182612e87565b506040830151612b9260408601826128cc565b508091505092915050565b6103a082016000820151612bb46000850182612e87565b506020820151612bc76020850182612726565b506040820151612bda6040850182612726565b506060820151612bed60608501826128f9565b506080820151612c0060808501826128db565b5060a0820151612c1360a0850182612926565b5060c0820151612c2660c0850182612e87565b5060e0820151612c3960e0850182612e87565b50610100820151612c4e610100850182612db3565b50610120820151612c63610320850182612e87565b50610140820151612c78610340850182612e87565b50610160820151612c8d6103608501826128cc565b50610180820151612ca2610380850182612917565b50505050565b6103a082016000820151612cbf6000850182612e87565b506020820151612cd26020850182612726565b506040820151612ce56040850182612726565b506060820151612cf860608501826128f9565b506080820151612d0b60808501826128db565b5060a0820151612d1e60a0850182612926565b5060c0820151612d3160c0850182612e87565b5060e0820151612d4460e0850182612e87565b50610100820151612d59610100850182612db3565b50610120820151612d6e610320850182612e87565b50610140820151612d83610340850182612e87565b50610160820151612d986103608501826128cc565b50610180820151612dad610380850182612917565b50505050565b61022082016000820151612dca6000850182612e87565b506020820151612ddd6020850182612e87565b506040820151612df06040850182612875565b506060820151612e0360e0850182612875565b506080820151612e17610180850182612875565b50505050565b61022082016000820151612e346000850182612e87565b506020820151612e476020850182612e87565b506040820151612e5a6040850182612875565b506060820151612e6d60e0850182612875565b506080820151612e81610180850182612875565b50505050565b612e90816133d8565b82525050565b612e9f816133d8565b82525050565b6000602082019050612eba6000830184612735565b92915050565b600060a082019050612ed56000830188612735565b612ee26020830187612908565b612eef60408301866128ea565b612efc6060830185612935565b612f096080830184612e96565b9695505050505050565b600060c082019050612f286000830189612735565b612f356020830188612908565b612f4260408301876128ea565b612f4f6060830186612935565b612f5c6080830185612e96565b612f6960a0830184612e96565b979650505050505050565b60006020820190508181036000830152612f8e8184612744565b905092915050565b60006020820190508181036000830152612fb081846127a2565b905092915050565b6000608082019050612fcd60008301876128ea565b612fda6020830186612717565b612fe76040830185612735565b8181036060830152612ff98184612944565b905095945050505050565b600060608201905061301960008301866128ea565b6130266020830185612e96565b6130336040830184612735565b949350505050565b600060608201905061305060008301866128ea565b61305d6020830185612e96565b61306a6040830184612717565b949350505050565b600060a0820190506130876000830188612908565b61309460208301876128ea565b6130a16040830186612e96565b6130ae6060830185612e96565b6130bb6080830184612e96565b9695505050505050565b600060208201905081810360008301526130de8161297d565b9050919050565b600060208201905081810360008301526130fe816129bd565b9050919050565b6000602082019050818103600083015261311e816129fd565b9050919050565b6000602082019050818103600083015261313e81612a3d565b9050919050565b6000602082019050818103600083015261315e81612a7d565b9050919050565b6000602082019050818103600083015261317e81612abd565b9050919050565b6000602082019050818103600083015261319f8184612b4d565b905092915050565b60006103a0820190506131bd6000830184612ca8565b92915050565b6000610220820190506131d96000830184612e1d565b92915050565b6000604051905081810181811067ffffffffffffffff8211171561320257600080fd5b8060405250919050565b600067ffffffffffffffff82111561322357600080fd5b602082029050919050565b600067ffffffffffffffff82111561324557600080fd5b601f19601f8301169050602081019050919050565b6000819050602082019050919050565b6000819050602082019050919050565b6000819050602082019050919050565b6000819050919050565b600081519050919050565b600081519050919050565b600081519050919050565b600060059050919050565b600081519050919050565b6000602082019050919050565b6000602082019050919050565b6000602082019050919050565b6000602082019050919050565b600082825260208201905092915050565b600082825260208201905092915050565b600082825260208201905092915050565b600081905092915050565b600082825260208201905092915050565b6000613359826133b8565b9050919050565b60008115159050919050565b600081905061337a826134b3565b919050565b600081905061338d826134c0565b919050565b60008190506133a0826134cd565b919050565b60008190506133b3826134da565b919050565b600073ffffffffffffffffffffffffffffffffffffffff82169050919050565b6000819050919050565b60006133ed8261343c565b9050919050565b60006133ff8261336c565b9050919050565b60006134118261337f565b9050919050565b600061342382613392565b9050919050565b6000613435826133a5565b9050919050565b60006134478261344e565b9050919050565b6000613459826133b8565b9050919050565b82818337600083830152505050565b60005b8381101561348d578082015181840152602081019050613472565b8381111561349c576000848401525b50505050565b6000601f19601f8301169050919050565b600381106134bd57fe5b50565b600281106134ca57fe5b50565b600681106134d757fe5b50565b600681106134e457fe5b50565b6134f08161334e565b81146134fb57600080fd5b50565b6003811061350b57600080fd5b50565b6002811061351b57600080fd5b50565b6006811061352b57600080fd5b50565b613537816133d8565b811461354257600080fd5b5056fea26469706673582212202a494e004bfde28e33f09916282bd514bc8cf1f1ef509c7172aba6b8e6d3ba7764736f6c634300060c0033",
			"opcodes": "PUSH1 0x80 PUSH1 0x40 MSTORE PUSH1 0x40 MLOAD DUP1 PUSH1 0xC0 ADD PUSH1 0x40 MSTORE DUP1 PUSH3 0x76A700 PUSH4 0xFFFFFFFF AND DUP2 MSTORE PUSH1 0x20 ADD PUSH3 0xED4E00 PUSH4 0xFFFFFFFF AND DUP2 MSTORE PUSH1 0x20 ADD PUSH4 0x1E13380 PUSH4 0xFFFFFFFF AND DUP2 MSTORE PUSH1 0x20 ADD PUSH4 0x3C26700 PUSH4 0xFFFFFFFF AND DUP2 MSTORE PUSH1 0x20 ADD PUSH4 0x5A39A80 PUSH4 0xFFFFFFFF AND DUP2 MSTORE PUSH1 0x20 ADD PUSH4 0x9660180 PUSH4 0xFFFFFFFF AND DUP2 MSTORE POP PUSH1 0x0 SWAP1 PUSH1 0x6 PUSH3 0x7D SWAP3 SWAP2 SWAP1 PUSH3 0x603 JUMP JUMPDEST POP PUSH1 0x40 MLOAD DUP1 PUSH1 0xC0 ADD PUSH1 0x40 MSTORE DUP1 PUSH2 0x168 PUSH1 0x5A PUSH2 0x2710 MUL DUP2 PUSH3 0x9A JUMPI INVALID JUMPDEST DIV DUP2 MSTORE PUSH1 0x20 ADD PUSH2 0x168 PUSH1 0xB4 PUSH2 0x2710 MUL DUP2 PUSH3 0xB1 JUMPI INVALID JUMPDEST DIV DUP2 MSTORE PUSH1 0x20 ADD PUSH1 0x1 PUSH2 0x2710 MUL DUP2 MSTORE PUSH1 0x20 ADD PUSH1 0x1 PUSH2 0x2710 MUL DUP2 MSTORE PUSH1 0x20 ADD PUSH1 0x1 PUSH2 0x2710 MUL DUP2 MSTORE PUSH1 0x20 ADD PUSH1 0x1 PUSH2 0x2710 MUL DUP2 MSTORE POP PUSH1 0x6 SWAP1 PUSH1 0x6 PUSH3 0xF3 SWAP3 SWAP2 SWAP1 PUSH3 0x650 JUMP JUMPDEST POP PUSH1 0x40 MLOAD DUP1 PUSH1 0x20 ADD PUSH1 0x40 MSTORE DUP1 PUSH3 0x76A700 PUSH3 0xFFFFFF AND DUP2 MSTORE POP PUSH1 0xC SWAP1 PUSH1 0x1 PUSH3 0x11D SWAP3 SWAP2 SWAP1 PUSH3 0x695 JUMP JUMPDEST POP PUSH1 0x40 MLOAD DUP1 PUSH1 0x20 ADD PUSH1 0x40 MSTORE DUP1 PUSH3 0xED4E00 PUSH3 0xFFFFFF AND DUP2 MSTORE POP PUSH1 0x11 SWAP1 PUSH1 0x1 PUSH3 0x147 SWAP3 SWAP2 SWAP1 PUSH3 0x695 JUMP JUMPDEST POP PUSH1 0x40 MLOAD DUP1 PUSH1 0x20 ADD PUSH1 0x40 MSTORE DUP1 PUSH4 0x1E13380 PUSH4 0xFFFFFFFF AND DUP2 MSTORE POP PUSH1 0x16 SWAP1 PUSH1 0x1 PUSH3 0x173 SWAP3 SWAP2 SWAP1 PUSH3 0x6E1 JUMP JUMPDEST POP PUSH1 0x40 MLOAD DUP1 PUSH1 0x40 ADD PUSH1 0x40 MSTORE DUP1 PUSH4 0x1E13380 PUSH4 0xFFFFFFFF AND DUP2 MSTORE PUSH1 0x20 ADD PUSH4 0x3C26700 PUSH4 0xFFFFFFFF AND DUP2 MSTORE POP PUSH1 0x1B SWAP1 PUSH1 0x2 PUSH3 0x1AF SWAP3 SWAP2 SWAP1 PUSH3 0x72E JUMP JUMPDEST POP PUSH1 0x40 MLOAD DUP1 PUSH1 0x60 ADD PUSH1 0x40 MSTORE DUP1 PUSH4 0x1E13380 PUSH4 0xFFFFFFFF AND DUP2 MSTORE PUSH1 0x20 ADD PUSH4 0x3C26700 PUSH4 0xFFFFFFFF AND DUP2 MSTORE PUSH1 0x20 ADD PUSH4 0x5A39A80 PUSH4 0xFFFFFFFF AND DUP2 MSTORE POP PUSH1 0x20 SWAP1 PUSH1 0x3 PUSH3 0x1FB SWAP3 SWAP2 SWAP1 PUSH3 0x77B JUMP JUMPDEST POP PUSH1 0x40 MLOAD DUP1 PUSH1 0xA0 ADD PUSH1 0x40 MSTORE DUP1 PUSH4 0x1E13380 PUSH4 0xFFFFFFFF AND DUP2 MSTORE PUSH1 0x20 ADD PUSH4 0x3C26700 PUSH4 0xFFFFFFFF AND DUP2 MSTORE PUSH1 0x20 ADD PUSH4 0x5A39A80 PUSH4 0xFFFFFFFF AND DUP2 MSTORE PUSH1 0x20 ADD PUSH4 0x784CE00 PUSH4 0xFFFFFFFF AND DUP2 MSTORE PUSH1 0x20 ADD PUSH4 0x9660180 PUSH4 0xFFFFFFFF AND DUP2 MSTORE POP PUSH1 0x25 SWAP1 PUSH1 0x5 PUSH3 0x267 SWAP3 SWAP2 SWAP1 PUSH3 0x7C8 JUMP JUMPDEST POP PUSH1 0x40 MLOAD DUP1 PUSH1 0xC0 ADD PUSH1 0x40 MSTORE DUP1 PUSH1 0xC PUSH1 0x5 DUP1 PUSH1 0x20 MUL PUSH1 0x40 MLOAD SWAP1 DUP2 ADD PUSH1 0x40 MSTORE DUP1 SWAP3 SWAP2 SWAP1 DUP3 PUSH1 0x5 DUP1 ISZERO PUSH3 0x2AE JUMPI PUSH1 0x20 MUL DUP3 ADD SWAP2 JUMPDEST DUP2 SLOAD DUP2 MSTORE PUSH1 0x20 ADD SWAP1 PUSH1 0x1 ADD SWAP1 DUP1 DUP4 GT PUSH3 0x299 JUMPI JUMPDEST POP POP POP POP POP DUP2 MSTORE PUSH1 0x20 ADD PUSH1 0x11 PUSH1 0x5 DUP1 PUSH1 0x20 MUL PUSH1 0x40 MLOAD SWAP1 DUP2 ADD PUSH1 0x40 MSTORE DUP1 SWAP3 SWAP2 SWAP1 DUP3 PUSH1 0x5 DUP1 ISZERO PUSH3 0x2F3 JUMPI PUSH1 0x20 MUL DUP3 ADD SWAP2 JUMPDEST DUP2 SLOAD DUP2 MSTORE PUSH1 0x20 ADD SWAP1 PUSH1 0x1 ADD SWAP1 DUP1 DUP4 GT PUSH3 0x2DE JUMPI JUMPDEST POP POP POP POP POP DUP2 MSTORE PUSH1 0x20 ADD PUSH1 0x16 PUSH1 0x5 DUP1 PUSH1 0x20 MUL PUSH1 0x40 MLOAD SWAP1 DUP2 ADD PUSH1 0x40 MSTORE DUP1 SWAP3 SWAP2 SWAP1 DUP3 PUSH1 0x5 DUP1 ISZERO PUSH3 0x338 JUMPI PUSH1 0x20 MUL DUP3 ADD SWAP2 JUMPDEST DUP2 SLOAD DUP2 MSTORE PUSH1 0x20 ADD SWAP1 PUSH1 0x1 ADD SWAP1 DUP1 DUP4 GT PUSH3 0x323 JUMPI JUMPDEST POP POP POP POP POP DUP2 MSTORE PUSH1 0x20 ADD PUSH1 0x1B PUSH1 0x5 DUP1 PUSH1 0x20 MUL PUSH1 0x40 MLOAD SWAP1 DUP2 ADD PUSH1 0x40 MSTORE DUP1 SWAP3 SWAP2 SWAP1 DUP3 PUSH1 0x5 DUP1 ISZERO PUSH3 0x37D JUMPI PUSH1 0x20 MUL DUP3 ADD SWAP2 JUMPDEST DUP2 SLOAD DUP2 MSTORE PUSH1 0x20 ADD SWAP1 PUSH1 0x1 ADD SWAP1 DUP1 DUP4 GT PUSH3 0x368 JUMPI JUMPDEST POP POP POP POP POP DUP2 MSTORE PUSH1 0x20 ADD PUSH1 0x20 PUSH1 0x5 DUP1 PUSH1 0x20 MUL PUSH1 0x40 MLOAD SWAP1 DUP2 ADD PUSH1 0x40 MSTORE DUP1 SWAP3 SWAP2 SWAP1 DUP3 PUSH1 0x5 DUP1 ISZERO PUSH3 0x3C2 JUMPI PUSH1 0x20 MUL DUP3 ADD SWAP2 JUMPDEST DUP2 SLOAD DUP2 MSTORE PUSH1 0x20 ADD SWAP1 PUSH1 0x1 ADD SWAP1 DUP1 DUP4 GT PUSH3 0x3AD JUMPI JUMPDEST POP POP POP POP POP DUP2 MSTORE PUSH1 0x20 ADD PUSH1 0x25 PUSH1 0x5 DUP1 PUSH1 0x20 MUL PUSH1 0x40 MLOAD SWAP1 DUP2 ADD PUSH1 0x40 MSTORE DUP1 SWAP3 SWAP2 SWAP1 DUP3 PUSH1 0x5 DUP1 ISZERO PUSH3 0x407 JUMPI PUSH1 0x20 MUL DUP3 ADD SWAP2 JUMPDEST DUP2 SLOAD DUP2 MSTORE PUSH1 0x20 ADD SWAP1 PUSH1 0x1 ADD SWAP1 DUP1 DUP4 GT PUSH3 0x3F2 JUMPI JUMPDEST POP POP POP POP POP DUP2 MSTORE POP PUSH1 0x2A SWAP1 PUSH1 0x6 PUSH3 0x421 SWAP3 SWAP2 SWAP1 PUSH3 0x815 JUMP JUMPDEST POP PUSH1 0x40 MLOAD DUP1 PUSH1 0xC0 ADD PUSH1 0x40 MSTORE DUP1 PUSH1 0x1 PUSH1 0xFF AND DUP2 MSTORE PUSH1 0x20 ADD PUSH1 0x1 PUSH1 0xFF AND DUP2 MSTORE PUSH1 0x20 ADD PUSH1 0x1 PUSH1 0xFF AND DUP2 MSTORE PUSH1 0x20 ADD PUSH1 0x2 PUSH1 0xFF AND DUP2 MSTORE PUSH1 0x20 ADD PUSH1 0x3 PUSH1 0xFF AND DUP2 MSTORE PUSH1 0x20 ADD PUSH1 0x5 PUSH1 0xFF AND DUP2 MSTORE POP PUSH1 0x48 SWAP1 PUSH1 0x6 PUSH3 0x479 SWAP3 SWAP2 SWAP1 PUSH3 0x86D JUMP JUMPDEST POP PUSH1 0x40 MLOAD DUP1 PUSH1 0xE0 ADD PUSH1 0x40 MSTORE DUP1 PUSH3 0x76A700 PUSH4 0xFFFFFFFF AND DUP2 MSTORE PUSH1 0x20 ADD PUSH3 0xED4E00 PUSH4 0xFFFFFFFF AND DUP2 MSTORE PUSH1 0x20 ADD PUSH4 0x1E13380 PUSH4 0xFFFFFFFF AND DUP2 MSTORE PUSH1 0x20 ADD PUSH4 0x3C26700 PUSH4 0xFFFFFFFF AND DUP2 MSTORE PUSH1 0x20 ADD PUSH4 0x5A39A80 PUSH4 0xFFFFFFFF AND DUP2 MSTORE PUSH1 0x20 ADD PUSH4 0x784CE00 PUSH4 0xFFFFFFFF AND DUP2 MSTORE PUSH1 0x20 ADD PUSH4 0x9660180 PUSH4 0xFFFFFFFF AND DUP2 MSTORE POP PUSH1 0x4E SWAP1 PUSH1 0x7 PUSH3 0x503 SWAP3 SWAP2 SWAP1 PUSH3 0x8B7 JUMP JUMPDEST POP CALLVALUE DUP1 ISZERO PUSH3 0x511 JUMPI PUSH1 0x0 DUP1 REVERT JUMPDEST POP PUSH1 0x40 MLOAD PUSH3 0x3FF9 CODESIZE SUB DUP1 PUSH3 0x3FF9 DUP4 CODECOPY DUP2 DUP2 ADD PUSH1 0x40 MSTORE DUP2 ADD SWAP1 PUSH3 0x537 SWAP2 SWAP1 PUSH3 0x9CA JUMP JUMPDEST DUP3 PUSH1 0x57 PUSH1 0x0 PUSH2 0x100 EXP DUP2 SLOAD DUP2 PUSH20 0xFFFFFFFFFFFFFFFFFFFFFFFFFFFFFFFFFFFFFFFF MUL NOT AND SWAP1 DUP4 PUSH20 0xFFFFFFFFFFFFFFFFFFFFFFFFFFFFFFFFFFFFFFFF AND MUL OR SWAP1 SSTORE POP DUP2 PUSH1 0x58 PUSH1 0x0 PUSH2 0x100 EXP DUP2 SLOAD DUP2 PUSH20 0xFFFFFFFFFFFFFFFFFFFFFFFFFFFFFFFFFFFFFFFF MUL NOT AND SWAP1 DUP4 PUSH20 0xFFFFFFFFFFFFFFFFFFFFFFFFFFFFFFFFFFFFFFFF AND MUL OR SWAP1 SSTORE POP DUP1 PUSH1 0x59 PUSH1 0x0 PUSH2 0x100 EXP DUP2 SLOAD DUP2 PUSH20 0xFFFFFFFFFFFFFFFFFFFFFFFFFFFFFFFFFFFFFFFF MUL NOT AND SWAP1 DUP4 PUSH20 0xFFFFFFFFFFFFFFFFFFFFFFFFFFFFFFFFFFFFFFFF AND MUL OR SWAP1 SSTORE POP POP POP POP PUSH3 0xA6E JUMP JUMPDEST DUP3 PUSH1 0x6 DUP2 ADD SWAP3 DUP3 ISZERO PUSH3 0x63D JUMPI SWAP2 PUSH1 0x20 MUL DUP3 ADD JUMPDEST DUP3 DUP2 GT ISZERO PUSH3 0x63C JUMPI DUP3 MLOAD DUP3 SWAP1 PUSH4 0xFFFFFFFF AND SWAP1 SSTORE SWAP2 PUSH1 0x20 ADD SWAP2 SWAP1 PUSH1 0x1 ADD SWAP1 PUSH3 0x617 JUMP JUMPDEST JUMPDEST POP SWAP1 POP PUSH3 0x64C SWAP2 SWAP1 PUSH3 0x904 JUMP JUMPDEST POP SWAP1 JUMP JUMPDEST DUP3 PUSH1 0x6 DUP2 ADD SWAP3 DUP3 ISZERO PUSH3 0x682 JUMPI SWAP2 PUSH1 0x20 MUL DUP3 ADD JUMPDEST DUP3 DUP2 GT ISZERO PUSH3 0x681 JUMPI DUP3 MLOAD DUP3 SSTORE SWAP2 PUSH1 0x20 ADD SWAP2 SWAP1 PUSH1 0x1 ADD SWAP1 PUSH3 0x664 JUMP JUMPDEST JUMPDEST POP SWAP1 POP PUSH3 0x691 SWAP2 SWAP1 PUSH3 0x904 JUMP JUMPDEST POP SWAP1 JUMP JUMPDEST DUP3 PUSH1 0x5 DUP2 ADD SWAP3 DUP3 ISZERO PUSH3 0x6CE JUMPI SWAP2 PUSH1 0x20 MUL DUP3 ADD JUMPDEST DUP3 DUP2 GT ISZERO PUSH3 0x6CD JUMPI DUP3 MLOAD DUP3 SWAP1 PUSH3 0xFFFFFF AND SWAP1 SSTORE SWAP2 PUSH1 0x20 ADD SWAP2 SWAP1 PUSH1 0x1 ADD SWAP1 PUSH3 0x6A9 JUMP JUMPDEST JUMPDEST POP SWAP1 POP PUSH3 0x6DD SWAP2 SWAP1 PUSH3 0x904 JUMP JUMPDEST POP SWAP1 JUMP JUMPDEST DUP3 PUSH1 0x5 DUP2 ADD SWAP3 DUP3 ISZERO PUSH3 0x71B JUMPI SWAP2 PUSH1 0x20 MUL DUP3 ADD JUMPDEST DUP3 DUP2 GT ISZERO PUSH3 0x71A JUMPI DUP3 MLOAD DUP3 SWAP1 PUSH4 0xFFFFFFFF AND SWAP1 SSTORE SWAP2 PUSH1 0x20 ADD SWAP2 SWAP1 PUSH1 0x1 ADD SWAP1 PUSH3 0x6F5 JUMP JUMPDEST JUMPDEST POP SWAP1 POP PUSH3 0x72A SWAP2 SWAP1 PUSH3 0x904 JUMP JUMPDEST POP SWAP1 JUMP JUMPDEST DUP3 PUSH1 0x5 DUP2 ADD SWAP3 DUP3 ISZERO PUSH3 0x768 JUMPI SWAP2 PUSH1 0x20 MUL DUP3 ADD JUMPDEST DUP3 DUP2 GT ISZERO PUSH3 0x767 JUMPI DUP3 MLOAD DUP3 SWAP1 PUSH4 0xFFFFFFFF AND SWAP1 SSTORE SWAP2 PUSH1 0x20 ADD SWAP2 SWAP1 PUSH1 0x1 ADD SWAP1 PUSH3 0x742 JUMP JUMPDEST JUMPDEST POP SWAP1 POP PUSH3 0x777 SWAP2 SWAP1 PUSH3 0x904 JUMP JUMPDEST POP SWAP1 JUMP JUMPDEST DUP3 PUSH1 0x5 DUP2 ADD SWAP3 DUP3 ISZERO PUSH3 0x7B5 JUMPI SWAP2 PUSH1 0x20 MUL DUP3 ADD JUMPDEST DUP3 DUP2 GT ISZERO PUSH3 0x7B4 JUMPI DUP3 MLOAD DUP3 SWAP1 PUSH4 0xFFFFFFFF AND SWAP1 SSTORE SWAP2 PUSH1 0x20 ADD SWAP2 SWAP1 PUSH1 0x1 ADD SWAP1 PUSH3 0x78F JUMP JUMPDEST JUMPDEST POP SWAP1 POP PUSH3 0x7C4 SWAP2 SWAP1 PUSH3 0x904 JUMP JUMPDEST POP SWAP1 JUMP JUMPDEST DUP3 PUSH1 0x5 DUP2 ADD SWAP3 DUP3 ISZERO PUSH3 0x802 JUMPI SWAP2 PUSH1 0x20 MUL DUP3 ADD JUMPDEST DUP3 DUP2 GT ISZERO PUSH3 0x801 JUMPI DUP3 MLOAD DUP3 SWAP1 PUSH4 0xFFFFFFFF AND SWAP1 SSTORE SWAP2 PUSH1 0x20 ADD SWAP2 SWAP1 PUSH1 0x1 ADD SWAP1 PUSH3 0x7DC JUMP JUMPDEST JUMPDEST POP SWAP1 POP PUSH3 0x811 SWAP2 SWAP1 PUSH3 0x904 JUMP JUMPDEST POP SWAP1 JUMP JUMPDEST DUP3 PUSH1 0x6 PUSH1 0x5 MUL DUP2 ADD SWAP3 DUP3 ISZERO PUSH3 0x85A JUMPI SWAP2 PUSH1 0x20 MUL DUP3 ADD JUMPDEST DUP3 DUP2 GT ISZERO PUSH3 0x859 JUMPI DUP3 MLOAD DUP3 SWAP1 PUSH1 0x5 PUSH3 0x848 SWAP3 SWAP2 SWAP1 PUSH3 0x923 JUMP JUMPDEST POP SWAP2 PUSH1 0x20 ADD SWAP2 SWAP1 PUSH1 0x5 ADD SWAP1 PUSH3 0x82C JUMP JUMPDEST JUMPDEST POP SWAP1 POP PUSH3 0x869 SWAP2 SWAP1 PUSH3 0x968 JUMP JUMPDEST POP SWAP1 JUMP JUMPDEST DUP3 PUSH1 0x6 DUP2 ADD SWAP3 DUP3 ISZERO PUSH3 0x8A4 JUMPI SWAP2 PUSH1 0x20 MUL DUP3 ADD JUMPDEST DUP3 DUP2 GT ISZERO PUSH3 0x8A3 JUMPI DUP3 MLOAD DUP3 SWAP1 PUSH1 0xFF AND SWAP1 SSTORE SWAP2 PUSH1 0x20 ADD SWAP2 SWAP1 PUSH1 0x1 ADD SWAP1 PUSH3 0x881 JUMP JUMPDEST JUMPDEST POP SWAP1 POP PUSH3 0x8B3 SWAP2 SWAP1 PUSH3 0x904 JUMP JUMPDEST POP SWAP1 JUMP JUMPDEST DUP3 PUSH1 0x7 DUP2 ADD SWAP3 DUP3 ISZERO PUSH3 0x8F1 JUMPI SWAP2 PUSH1 0x20 MUL DUP3 ADD JUMPDEST DUP3 DUP2 GT ISZERO PUSH3 0x8F0 JUMPI DUP3 MLOAD DUP3 SWAP1 PUSH4 0xFFFFFFFF AND SWAP1 SSTORE SWAP2 PUSH1 0x20 ADD SWAP2 SWAP1 PUSH1 0x1 ADD SWAP1 PUSH3 0x8CB JUMP JUMPDEST JUMPDEST POP SWAP1 POP PUSH3 0x900 SWAP2 SWAP1 PUSH3 0x904 JUMP JUMPDEST POP SWAP1 JUMP JUMPDEST JUMPDEST DUP1 DUP3 GT ISZERO PUSH3 0x91F JUMPI PUSH1 0x0 DUP2 PUSH1 0x0 SWAP1 SSTORE POP PUSH1 0x1 ADD PUSH3 0x905 JUMP JUMPDEST POP SWAP1 JUMP JUMPDEST DUP3 PUSH1 0x5 DUP2 ADD SWAP3 DUP3 ISZERO PUSH3 0x955 JUMPI SWAP2 PUSH1 0x20 MUL DUP3 ADD JUMPDEST DUP3 DUP2 GT ISZERO PUSH3 0x954 JUMPI DUP3 MLOAD DUP3 SSTORE SWAP2 PUSH1 0x20 ADD SWAP2 SWAP1 PUSH1 0x1 ADD SWAP1 PUSH3 0x937 JUMP JUMPDEST JUMPDEST POP SWAP1 POP PUSH3 0x964 SWAP2 SWAP1 PUSH3 0x904 JUMP JUMPDEST POP SWAP1 JUMP JUMPDEST JUMPDEST DUP1 DUP3 GT ISZERO PUSH3 0x98C JUMPI PUSH1 0x0 DUP2 DUP2 PUSH3 0x982 SWAP2 SWAP1 PUSH3 0x990 JUMP JUMPDEST POP PUSH1 0x5 ADD PUSH3 0x969 JUMP JUMPDEST POP SWAP1 JUMP JUMPDEST POP PUSH1 0x0 DUP2 SSTORE PUSH1 0x1 ADD PUSH1 0x0 DUP2 SSTORE PUSH1 0x1 ADD PUSH1 0x0 DUP2 SSTORE PUSH1 0x1 ADD PUSH1 0x0 DUP2 SSTORE PUSH1 0x1 ADD PUSH1 0x0 SWAP1 SSTORE JUMP JUMPDEST PUSH1 0x0 DUP2 MLOAD SWAP1 POP PUSH3 0x9C4 DUP2 PUSH3 0xA54 JUMP JUMPDEST SWAP3 SWAP2 POP POP JUMP JUMPDEST PUSH1 0x0 DUP1 PUSH1 0x0 PUSH1 0x60 DUP5 DUP7 SUB SLT ISZERO PUSH3 0x9E0 JUMPI PUSH1 0x0 DUP1 REVERT JUMPDEST PUSH1 0x0 PUSH3 0x9F0 DUP7 DUP3 DUP8 ADD PUSH3 0x9B3 JUMP JUMPDEST SWAP4 POP POP PUSH1 0x20 PUSH3 0xA03 DUP7 DUP3 DUP8 ADD PUSH3 0x9B3 JUMP JUMPDEST SWAP3 POP POP PUSH1 0x40 PUSH3 0xA16 DUP7 DUP3 DUP8 ADD PUSH3 0x9B3 JUMP JUMPDEST SWAP2 POP POP SWAP3 POP SWAP3 POP SWAP3 JUMP JUMPDEST PUSH1 0x0 PUSH3 0xA2D DUP3 PUSH3 0xA34 JUMP JUMPDEST SWAP1 POP SWAP2 SWAP1 POP JUMP JUMPDEST PUSH1 0x0 PUSH20 0xFFFFFFFFFFFFFFFFFFFFFFFFFFFFFFFFFFFFFFFF DUP3 AND SWAP1 POP SWAP2 SWAP1 POP JUMP JUMPDEST PUSH3 0xA5F DUP2 PUSH3 0xA20 JUMP JUMPDEST DUP2 EQ PUSH3 0xA6B JUMPI PUSH1 0x0 DUP1 REVERT JUMPDEST POP JUMP JUMPDEST PUSH2 0x357B DUP1 PUSH3 0xA7E PUSH1 0x0 CODECOPY PUSH1 0x0 RETURN INVALID PUSH1 0x80 PUSH1 0x40 MSTORE CALLVALUE DUP1 ISZERO PUSH2 0x10 JUMPI PUSH1 0x0 DUP1 REVERT JUMPDEST POP PUSH1 0x4 CALLDATASIZE LT PUSH2 0xB4 JUMPI PUSH1 0x0 CALLDATALOAD PUSH1 0xE0 SHR DUP1 PUSH4 0x995A2001 GT PUSH2 0x71 JUMPI DUP1 PUSH4 0x995A2001 EQ PUSH2 0x18B JUMPI DUP1 PUSH4 0xB677AA2E EQ PUSH2 0x1A7 JUMPI DUP1 PUSH4 0xCB105188 EQ PUSH2 0x1C3 JUMPI DUP1 PUSH4 0xD003A97E EQ PUSH2 0x1CD JUMPI DUP1 PUSH4 0xDC570D2D EQ PUSH2 0x1D7 JUMPI DUP1 PUSH4 0xE2842D79 EQ PUSH2 0x207 JUMPI PUSH2 0xB4 JUMP JUMPDEST DUP1 PUSH4 0x1D244AFA EQ PUSH2 0xB9 JUMPI DUP1 PUSH4 0x1D78BABF EQ PUSH2 0xD5 JUMPI DUP1 PUSH4 0x354528E8 EQ PUSH2 0xF1 JUMPI DUP1 PUSH4 0x4EF8FE5B EQ PUSH2 0x10F JUMPI DUP1 PUSH4 0x57D8DF5A EQ PUSH2 0x12B JUMPI DUP1 PUSH4 0x61FDA82A EQ PUSH2 0x15B JUMPI JUMPDEST PUSH1 0x0 DUP1 REVERT JUMPDEST PUSH2 0xD3 PUSH1 0x4 DUP1 CALLDATASIZE SUB DUP2 ADD SWAP1 PUSH2 0xCE SWAP2 SWAP1 PUSH2 0x259E JUMP JUMPDEST PUSH2 0x225 JUMP JUMPDEST STOP JUMPDEST PUSH2 0xEF PUSH1 0x4 DUP1 CALLDATASIZE SUB DUP2 ADD SWAP1 PUSH2 0xEA SWAP2 SWAP1 PUSH2 0x249A JUMP JUMPDEST PUSH2 0x269 JUMP JUMPDEST STOP JUMPDEST PUSH2 0xF9 PUSH2 0x491 JUMP JUMPDEST PUSH1 0x40 MLOAD PUSH2 0x106 SWAP2 SWAP1 PUSH2 0x2F96 JUMP JUMPDEST PUSH1 0x40 MLOAD DUP1 SWAP2 SUB SWAP1 RETURN JUMPDEST PUSH2 0x129 PUSH1 0x4 DUP1 CALLDATASIZE SUB DUP2 ADD SWAP1 PUSH2 0x124 SWAP2 SWAP1 PUSH2 0x23D3 JUMP JUMPDEST PUSH2 0x8D3 JUMP JUMPDEST STOP JUMPDEST PUSH2 0x145 PUSH1 0x4 DUP1 CALLDATASIZE SUB DUP2 ADD SWAP1 PUSH2 0x140 SWAP2 SWAP1 PUSH2 0x23D3 JUMP JUMPDEST PUSH2 0x95C JUMP JUMPDEST PUSH1 0x40 MLOAD PUSH2 0x152 SWAP2 SWAP1 PUSH2 0x3185 JUMP JUMPDEST PUSH1 0x40 MLOAD DUP1 SWAP2 SUB SWAP1 RETURN JUMPDEST PUSH2 0x175 PUSH1 0x4 DUP1 CALLDATASIZE SUB DUP2 ADD SWAP1 PUSH2 0x170 SWAP2 SWAP1 PUSH2 0x2668 JUMP JUMPDEST PUSH2 0xCDE JUMP JUMPDEST PUSH1 0x40 MLOAD PUSH2 0x182 SWAP2 SWAP1 PUSH2 0x31A7 JUMP JUMPDEST PUSH1 0x40 MLOAD DUP1 SWAP2 SUB SWAP1 RETURN JUMPDEST PUSH2 0x1A5 PUSH1 0x4 DUP1 CALLDATASIZE SUB DUP2 ADD SWAP1 PUSH2 0x1A0 SWAP2 SWAP1 PUSH2 0x24FD JUMP JUMPDEST PUSH2 0xDA8 JUMP JUMPDEST STOP JUMPDEST PUSH2 0x1C1 PUSH1 0x4 DUP1 CALLDATASIZE SUB DUP2 ADD SWAP1 PUSH2 0x1BC SWAP2 SWAP1 PUSH2 0x23FC JUMP JUMPDEST PUSH2 0x13F3 JUMP JUMPDEST STOP JUMPDEST PUSH2 0x1CB PUSH2 0x1582 JUMP JUMPDEST STOP JUMPDEST PUSH2 0x1D5 PUSH2 0x1584 JUMP JUMPDEST STOP JUMPDEST PUSH2 0x1F1 PUSH1 0x4 DUP1 CALLDATASIZE SUB DUP2 ADD SWAP1 PUSH2 0x1EC SWAP2 SWAP1 PUSH2 0x2619 JUMP JUMPDEST PUSH2 0x1661 JUMP JUMPDEST PUSH1 0x40 MLOAD PUSH2 0x1FE SWAP2 SWAP1 PUSH2 0x31C3 JUMP JUMPDEST PUSH1 0x40 MLOAD DUP1 SWAP2 SUB SWAP1 RETURN JUMPDEST PUSH2 0x20F PUSH2 0x1893 JUMP JUMPDEST PUSH1 0x40 MLOAD PUSH2 0x21C SWAP2 SWAP1 PUSH2 0x2F74 JUMP JUMPDEST PUSH1 0x40 MLOAD DUP1 SWAP2 SUB SWAP1 RETURN JUMPDEST DUP2 PUSH32 0xC078863E7ADE0C5659980A387D8552E7EE23B544977AA247769231095482A60C DUP6 CALLER DUP7 DUP6 PUSH1 0x40 MLOAD PUSH2 0x25B SWAP5 SWAP4 SWAP3 SWAP2 SWAP1 PUSH2 0x2FB8 JUMP JUMPDEST PUSH1 0x40 MLOAD DUP1 SWAP2 SUB SWAP1 LOG2 POP POP POP POP JUMP JUMPDEST PUSH1 0x0 PUSH1 0x55 PUSH1 0x0 DUP7 PUSH20 0xFFFFFFFFFFFFFFFFFFFFFFFFFFFFFFFFFFFFFFFF AND PUSH20 0xFFFFFFFFFFFFFFFFFFFFFFFFFFFFFFFFFFFFFFFF AND DUP2 MSTORE PUSH1 0x20 ADD SWAP1 DUP2 MSTORE PUSH1 0x20 ADD PUSH1 0x0 KECCAK256 SWAP1 POP PUSH1 0x0 DUP2 PUSH1 0x0 ADD DUP5 DUP2 SLOAD DUP2 LT PUSH2 0x2BD JUMPI INVALID JUMPDEST SWAP1 PUSH1 0x0 MSTORE PUSH1 0x20 PUSH1 0x0 KECCAK256 SWAP1 PUSH1 0x19 MUL ADD SWAP1 POP DUP1 PUSH1 0x3 ADD SLOAD DUP4 EQ PUSH2 0x313 JUMPI PUSH1 0x40 MLOAD PUSH32 0x8C379A000000000000000000000000000000000000000000000000000000000 DUP2 MSTORE PUSH1 0x4 ADD PUSH2 0x30A SWAP1 PUSH2 0x3105 JUMP JUMPDEST PUSH1 0x40 MLOAD DUP1 SWAP2 SUB SWAP1 REVERT JUMPDEST PUSH1 0x0 PUSH1 0x5 DUP2 GT ISZERO PUSH2 0x320 JUMPI INVALID JUMPDEST DUP2 PUSH1 0x18 ADD PUSH1 0x1 SWAP1 SLOAD SWAP1 PUSH2 0x100 EXP SWAP1 DIV PUSH1 0xFF AND PUSH1 0x5 DUP2 GT ISZERO PUSH2 0x33D JUMPI INVALID JUMPDEST EQ ISZERO PUSH2 0x489 JUMPI DUP1 PUSH1 0x2 ADD PUSH1 0x0 SWAP1 SLOAD SWAP1 PUSH2 0x100 EXP SWAP1 DIV PUSH20 0xFFFFFFFFFFFFFFFFFFFFFFFFFFFFFFFFFFFFFFFF AND PUSH20 0xFFFFFFFFFFFFFFFFFFFFFFFFFFFFFFFFFFFFFFFF AND DUP6 PUSH20 0xFFFFFFFFFFFFFFFFFFFFFFFFFFFFFFFFFFFFFFFF AND EQ PUSH2 0x3D5 JUMPI PUSH1 0x40 MLOAD PUSH32 0x8C379A000000000000000000000000000000000000000000000000000000000 DUP2 MSTORE PUSH1 0x4 ADD PUSH2 0x3CC SWAP1 PUSH2 0x3165 JUMP JUMPDEST PUSH1 0x40 MLOAD DUP1 SWAP2 SUB SWAP1 REVERT JUMPDEST PUSH1 0x1 DUP2 PUSH1 0x18 ADD PUSH1 0x1 PUSH2 0x100 EXP DUP2 SLOAD DUP2 PUSH1 0xFF MUL NOT AND SWAP1 DUP4 PUSH1 0x5 DUP2 GT ISZERO PUSH2 0x3F6 JUMPI INVALID JUMPDEST MUL OR SWAP1 SSTORE POP PUSH1 0x59 PUSH1 0x0 SWAP1 SLOAD SWAP1 PUSH2 0x100 EXP SWAP1 DIV PUSH20 0xFFFFFFFFFFFFFFFFFFFFFFFFFFFFFFFFFFFFFFFF AND PUSH20 0xFFFFFFFFFFFFFFFFFFFFFFFFFFFFFFFFFFFFFFFF AND PUSH4 0x74E8DE77 DUP7 PUSH1 0x40 MLOAD DUP3 PUSH4 0xFFFFFFFF AND PUSH1 0xE0 SHL DUP2 MSTORE PUSH1 0x4 ADD PUSH2 0x456 SWAP2 SWAP1 PUSH2 0x2EA5 JUMP JUMPDEST PUSH1 0x0 PUSH1 0x40 MLOAD DUP1 DUP4 SUB DUP2 PUSH1 0x0 DUP8 DUP1 EXTCODESIZE ISZERO DUP1 ISZERO PUSH2 0x470 JUMPI PUSH1 0x0 DUP1 REVERT JUMPDEST POP GAS CALL ISZERO DUP1 ISZERO PUSH2 0x484 JUMPI RETURNDATASIZE PUSH1 0x0 DUP1 RETURNDATACOPY RETURNDATASIZE PUSH1 0x0 REVERT JUMPDEST POP POP POP POP JUMPDEST POP POP POP POP POP POP JUMP JUMPDEST PUSH1 0x60 DUP1 PUSH1 0x56 DUP1 SLOAD SWAP1 POP PUSH8 0xFFFFFFFFFFFFFFFF DUP2 GT DUP1 ISZERO PUSH2 0x4B0 JUMPI PUSH1 0x0 DUP1 REVERT JUMPDEST POP PUSH1 0x40 MLOAD SWAP1 DUP1 DUP3 MSTORE DUP1 PUSH1 0x20 MUL PUSH1 0x20 ADD DUP3 ADD PUSH1 0x40 MSTORE DUP1 ISZERO PUSH2 0x4EA JUMPI DUP2 PUSH1 0x20 ADD JUMPDEST PUSH2 0x4D7 PUSH2 0x1F40 JUMP JUMPDEST DUP2 MSTORE PUSH1 0x20 ADD SWAP1 PUSH1 0x1 SWAP1 SUB SWAP1 DUP2 PUSH2 0x4CF JUMPI SWAP1 POP JUMPDEST POP SWAP1 POP PUSH1 0x0 JUMPDEST PUSH1 0x56 DUP1 SLOAD SWAP1 POP DUP2 LT ISZERO PUSH2 0x8CB JUMPI PUSH1 0x55 PUSH1 0x0 PUSH1 0x56 DUP4 DUP2 SLOAD DUP2 LT PUSH2 0x50E JUMPI INVALID JUMPDEST SWAP1 PUSH1 0x0 MSTORE PUSH1 0x20 PUSH1 0x0 KECCAK256 ADD PUSH1 0x0 SWAP1 SLOAD SWAP1 PUSH2 0x100 EXP SWAP1 DIV PUSH20 0xFFFFFFFFFFFFFFFFFFFFFFFFFFFFFFFFFFFFFFFF AND PUSH20 0xFFFFFFFFFFFFFFFFFFFFFFFFFFFFFFFFFFFFFFFF AND PUSH20 0xFFFFFFFFFFFFFFFFFFFFFFFFFFFFFFFFFFFFFFFF AND DUP2 MSTORE PUSH1 0x20 ADD SWAP1 DUP2 MSTORE PUSH1 0x20 ADD PUSH1 0x0 KECCAK256 PUSH1 0x40 MLOAD DUP1 PUSH1 0x60 ADD PUSH1 0x40 MSTORE SWAP1 DUP2 PUSH1 0x0 DUP3 ADD DUP1 SLOAD DUP1 PUSH1 0x20 MUL PUSH1 0x20 ADD PUSH1 0x40 MLOAD SWAP1 DUP2 ADD PUSH1 0x40 MSTORE DUP1 SWAP3 SWAP2 SWAP1 DUP2 DUP2 MSTORE PUSH1 0x20 ADD PUSH1 0x0 SWAP1 JUMPDEST DUP3 DUP3 LT ISZERO PUSH2 0x87A JUMPI DUP4 DUP3 SWAP1 PUSH1 0x0 MSTORE PUSH1 0x20 PUSH1 0x0 KECCAK256 SWAP1 PUSH1 0x19 MUL ADD PUSH1 0x40 MLOAD DUP1 PUSH2 0x1A0 ADD PUSH1 0x40 MSTORE SWAP1 DUP2 PUSH1 0x0 DUP3 ADD SLOAD DUP2 MSTORE PUSH1 0x20 ADD PUSH1 0x1 DUP3 ADD PUSH1 0x0 SWAP1 SLOAD SWAP1 PUSH2 0x100 EXP SWAP1 DIV PUSH20 0xFFFFFFFFFFFFFFFFFFFFFFFFFFFFFFFFFFFFFFFF AND PUSH20 0xFFFFFFFFFFFFFFFFFFFFFFFFFFFFFFFFFFFFFFFF AND PUSH20 0xFFFFFFFFFFFFFFFFFFFFFFFFFFFFFFFFFFFFFFFF AND DUP2 MSTORE PUSH1 0x20 ADD PUSH1 0x2 DUP3 ADD PUSH1 0x0 SWAP1 SLOAD SWAP1 PUSH2 0x100 EXP SWAP1 DIV PUSH20 0xFFFFFFFFFFFFFFFFFFFFFFFFFFFFFFFFFFFFFFFF AND PUSH20 0xFFFFFFFFFFFFFFFFFFFFFFFFFFFFFFFFFFFFFFFF AND PUSH20 0xFFFFFFFFFFFFFFFFFFFFFFFFFFFFFFFFFFFFFFFF AND DUP2 MSTORE PUSH1 0x20 ADD PUSH1 0x2 DUP3 ADD PUSH1 0x14 SWAP1 SLOAD SWAP1 PUSH2 0x100 EXP SWAP1 DIV PUSH1 0xFF AND PUSH1 0x1 DUP2 GT ISZERO PUSH2 0x69B JUMPI INVALID JUMPDEST PUSH1 0x1 DUP2 GT ISZERO PUSH2 0x6A6 JUMPI INVALID JUMPDEST DUP2 MSTORE PUSH1 0x20 ADD PUSH1 0x2 DUP3 ADD PUSH1 0x15 SWAP1 SLOAD SWAP1 PUSH2 0x100 EXP SWAP1 DIV PUSH1 0xFF AND PUSH1 0x2 DUP2 GT ISZERO PUSH2 0x6C8 JUMPI INVALID JUMPDEST PUSH1 0x2 DUP2 GT ISZERO PUSH2 0x6D3 JUMPI INVALID JUMPDEST DUP2 MSTORE PUSH1 0x20 ADD PUSH1 0x2 DUP3 ADD PUSH1 0x16 SWAP1 SLOAD SWAP1 PUSH2 0x100 EXP SWAP1 DIV PUSH1 0xFF AND PUSH1 0x5 DUP2 GT ISZERO PUSH2 0x6F5 JUMPI INVALID JUMPDEST PUSH1 0x5 DUP2 GT ISZERO PUSH2 0x700 JUMPI INVALID JUMPDEST DUP2 MSTORE PUSH1 0x20 ADD PUSH1 0x3 DUP3 ADD SLOAD DUP2 MSTORE PUSH1 0x20 ADD PUSH1 0x4 DUP3 ADD SLOAD DUP2 MSTORE PUSH1 0x20 ADD PUSH1 0x5 DUP3 ADD PUSH1 0x40 MLOAD DUP1 PUSH1 0xA0 ADD PUSH1 0x40 MSTORE SWAP1 DUP2 PUSH1 0x0 DUP3 ADD SLOAD DUP2 MSTORE PUSH1 0x20 ADD PUSH1 0x1 DUP3 ADD SLOAD DUP2 MSTORE PUSH1 0x20 ADD PUSH1 0x2 DUP3 ADD PUSH1 0x5 DUP1 PUSH1 0x20 MUL PUSH1 0x40 MLOAD SWAP1 DUP2 ADD PUSH1 0x40 MSTORE DUP1 SWAP3 SWAP2 SWAP1 DUP3 PUSH1 0x5 DUP1 ISZERO PUSH2 0x778 JUMPI PUSH1 0x20 MUL DUP3 ADD SWAP2 JUMPDEST DUP2 SLOAD DUP2 MSTORE PUSH1 0x20 ADD SWAP1 PUSH1 0x1 ADD SWAP1 DUP1 DUP4 GT PUSH2 0x764 JUMPI JUMPDEST POP POP POP POP POP DUP2 MSTORE PUSH1 0x20 ADD PUSH1 0x7 DUP3 ADD PUSH1 0x5 DUP1 PUSH1 0x20 MUL PUSH1 0x40 MLOAD SWAP1 DUP2 ADD PUSH1 0x40 MSTORE DUP1 SWAP3 SWAP2 SWAP1 DUP3 PUSH1 0x5 DUP1 ISZERO PUSH2 0x7BD JUMPI PUSH1 0x20 MUL DUP3 ADD SWAP2 JUMPDEST DUP2 SLOAD DUP2 MSTORE PUSH1 0x20 ADD SWAP1 PUSH1 0x1 ADD SWAP1 DUP1 DUP4 GT PUSH2 0x7A9 JUMPI JUMPDEST POP POP POP POP POP DUP2 MSTORE PUSH1 0x20 ADD PUSH1 0xC DUP3 ADD PUSH1 0x5 DUP1 PUSH1 0x20 MUL PUSH1 0x40 MLOAD SWAP1 DUP2 ADD PUSH1 0x40 MSTORE DUP1 SWAP3 SWAP2 SWAP1 DUP3 PUSH1 0x5 DUP1 ISZERO PUSH2 0x802 JUMPI PUSH1 0x20 MUL DUP3 ADD SWAP2 JUMPDEST DUP2 SLOAD DUP2 MSTORE PUSH1 0x20 ADD SWAP1 PUSH1 0x1 ADD SWAP1 DUP1 DUP4 GT PUSH2 0x7EE JUMPI JUMPDEST POP POP POP POP POP DUP2 MSTORE POP POP DUP2 MSTORE PUSH1 0x20 ADD PUSH1 0x16 DUP3 ADD SLOAD DUP2 MSTORE PUSH1 0x20 ADD PUSH1 0x17 DUP3 ADD SLOAD DUP2 MSTORE PUSH1 0x20 ADD PUSH1 0x18 DUP3 ADD PUSH1 0x0 SWAP1 SLOAD SWAP1 PUSH2 0x100 EXP SWAP1 DIV PUSH1 0xFF AND ISZERO ISZERO ISZERO ISZERO DUP2 MSTORE PUSH1 0x20 ADD PUSH1 0x18 DUP3 ADD PUSH1 0x1 SWAP1 SLOAD SWAP1 PUSH2 0x100 EXP SWAP1 DIV PUSH1 0xFF AND PUSH1 0x5 DUP2 GT ISZERO PUSH2 0x85C JUMPI INVALID JUMPDEST PUSH1 0x5 DUP2 GT ISZERO PUSH2 0x867 JUMPI INVALID JUMPDEST DUP2 MSTORE POP POP DUP2 MSTORE PUSH1 0x20 ADD SWAP1 PUSH1 0x1 ADD SWAP1 PUSH2 0x5A3 JUMP JUMPDEST POP POP POP POP DUP2 MSTORE PUSH1 0x20 ADD PUSH1 0x1 DUP3 ADD SLOAD DUP2 MSTORE PUSH1 0x20 ADD PUSH1 0x2 DUP3 ADD PUSH1 0x0 SWAP1 SLOAD SWAP1 PUSH2 0x100 EXP SWAP1 DIV PUSH1 0xFF AND ISZERO ISZERO ISZERO ISZERO DUP2 MSTORE POP POP DUP3 DUP3 DUP2 MLOAD DUP2 LT PUSH2 0x8B3 JUMPI INVALID JUMPDEST PUSH1 0x20 MUL PUSH1 0x20 ADD ADD DUP2 SWAP1 MSTORE POP DUP1 DUP1 PUSH1 0x1 ADD SWAP2 POP POP PUSH2 0x4F0 JUMP JUMPDEST POP DUP1 SWAP2 POP POP SWAP1 JUMP JUMPDEST PUSH1 0x0 PUSH1 0x55 PUSH1 0x0 DUP4 PUSH20 0xFFFFFFFFFFFFFFFFFFFFFFFFFFFFFFFFFFFFFFFF AND PUSH20 0xFFFFFFFFFFFFFFFFFFFFFFFFFFFFFFFFFFFFFFFF AND DUP2 MSTORE PUSH1 0x20 ADD SWAP1 DUP2 MSTORE PUSH1 0x20 ADD PUSH1 0x0 KECCAK256 PUSH1 0x0 ADD SWAP1 POP PUSH1 0x0 JUMPDEST DUP2 DUP1 SLOAD SWAP1 POP DUP2 LT ISZERO PUSH2 0x957 JUMPI PUSH2 0x94A DUP3 DUP3 DUP2 SLOAD DUP2 LT PUSH2 0x937 JUMPI INVALID JUMPDEST SWAP1 PUSH1 0x0 MSTORE PUSH1 0x20 PUSH1 0x0 KECCAK256 SWAP1 PUSH1 0x19 MUL ADD PUSH2 0x1921 JUMP JUMPDEST DUP1 DUP1 PUSH1 0x1 ADD SWAP2 POP POP PUSH2 0x91C JUMP JUMPDEST POP POP POP JUMP JUMPDEST PUSH2 0x964 PUSH2 0x1F40 JUMP JUMPDEST PUSH1 0x55 PUSH1 0x0 DUP4 PUSH20 0xFFFFFFFFFFFFFFFFFFFFFFFFFFFFFFFFFFFFFFFF AND PUSH20 0xFFFFFFFFFFFFFFFFFFFFFFFFFFFFFFFFFFFFFFFF AND DUP2 MSTORE PUSH1 0x20 ADD SWAP1 DUP2 MSTORE PUSH1 0x20 ADD PUSH1 0x0 KECCAK256 PUSH1 0x40 MLOAD DUP1 PUSH1 0x60 ADD PUSH1 0x40 MSTORE SWAP1 DUP2 PUSH1 0x0 DUP3 ADD DUP1 SLOAD DUP1 PUSH1 0x20 MUL PUSH1 0x20 ADD PUSH1 0x40 MLOAD SWAP1 DUP2 ADD PUSH1 0x40 MSTORE DUP1 SWAP3 SWAP2 SWAP1 DUP2 DUP2 MSTORE PUSH1 0x20 ADD PUSH1 0x0 SWAP1 JUMPDEST DUP3 DUP3 LT ISZERO PUSH2 0xCAA JUMPI DUP4 DUP3 SWAP1 PUSH1 0x0 MSTORE PUSH1 0x20 PUSH1 0x0 KECCAK256 SWAP1 PUSH1 0x19 MUL ADD PUSH1 0x40 MLOAD DUP1 PUSH2 0x1A0 ADD PUSH1 0x40 MSTORE SWAP1 DUP2 PUSH1 0x0 DUP3 ADD SLOAD DUP2 MSTORE PUSH1 0x20 ADD PUSH1 0x1 DUP3 ADD PUSH1 0x0 SWAP1 SLOAD SWAP1 PUSH2 0x100 EXP SWAP1 DIV PUSH20 0xFFFFFFFFFFFFFFFFFFFFFFFFFFFFFFFFFFFFFFFF AND PUSH20 0xFFFFFFFFFFFFFFFFFFFFFFFFFFFFFFFFFFFFFFFF AND PUSH20 0xFFFFFFFFFFFFFFFFFFFFFFFFFFFFFFFFFFFFFFFF AND DUP2 MSTORE PUSH1 0x20 ADD PUSH1 0x2 DUP3 ADD PUSH1 0x0 SWAP1 SLOAD SWAP1 PUSH2 0x100 EXP SWAP1 DIV PUSH20 0xFFFFFFFFFFFFFFFFFFFFFFFFFFFFFFFFFFFFFFFF AND PUSH20 0xFFFFFFFFFFFFFFFFFFFFFFFFFFFFFFFFFFFFFFFF AND PUSH20 0xFFFFFFFFFFFFFFFFFFFFFFFFFFFFFFFFFFFFFFFF AND DUP2 MSTORE PUSH1 0x20 ADD PUSH1 0x2 DUP3 ADD PUSH1 0x14 SWAP1 SLOAD SWAP1 PUSH2 0x100 EXP SWAP1 DIV PUSH1 0xFF AND PUSH1 0x1 DUP2 GT ISZERO PUSH2 0xACB JUMPI INVALID JUMPDEST PUSH1 0x1 DUP2 GT ISZERO PUSH2 0xAD6 JUMPI INVALID JUMPDEST DUP2 MSTORE PUSH1 0x20 ADD PUSH1 0x2 DUP3 ADD PUSH1 0x15 SWAP1 SLOAD SWAP1 PUSH2 0x100 EXP SWAP1 DIV PUSH1 0xFF AND PUSH1 0x2 DUP2 GT ISZERO PUSH2 0xAF8 JUMPI INVALID JUMPDEST PUSH1 0x2 DUP2 GT ISZERO PUSH2 0xB03 JUMPI INVALID JUMPDEST DUP2 MSTORE PUSH1 0x20 ADD PUSH1 0x2 DUP3 ADD PUSH1 0x16 SWAP1 SLOAD SWAP1 PUSH2 0x100 EXP SWAP1 DIV PUSH1 0xFF AND PUSH1 0x5 DUP2 GT ISZERO PUSH2 0xB25 JUMPI INVALID JUMPDEST PUSH1 0x5 DUP2 GT ISZERO PUSH2 0xB30 JUMPI INVALID JUMPDEST DUP2 MSTORE PUSH1 0x20 ADD PUSH1 0x3 DUP3 ADD SLOAD DUP2 MSTORE PUSH1 0x20 ADD PUSH1 0x4 DUP3 ADD SLOAD DUP2 MSTORE PUSH1 0x20 ADD PUSH1 0x5 DUP3 ADD PUSH1 0x40 MLOAD DUP1 PUSH1 0xA0 ADD PUSH1 0x40 MSTORE SWAP1 DUP2 PUSH1 0x0 DUP3 ADD SLOAD DUP2 MSTORE PUSH1 0x20 ADD PUSH1 0x1 DUP3 ADD SLOAD DUP2 MSTORE PUSH1 0x20 ADD PUSH1 0x2 DUP3 ADD PUSH1 0x5 DUP1 PUSH1 0x20 MUL PUSH1 0x40 MLOAD SWAP1 DUP2 ADD PUSH1 0x40 MSTORE DUP1 SWAP3 SWAP2 SWAP1 DUP3 PUSH1 0x5 DUP1 ISZERO PUSH2 0xBA8 JUMPI PUSH1 0x20 MUL DUP3 ADD SWAP2 JUMPDEST DUP2 SLOAD DUP2 MSTORE PUSH1 0x20 ADD SWAP1 PUSH1 0x1 ADD SWAP1 DUP1 DUP4 GT PUSH2 0xB94 JUMPI JUMPDEST POP POP POP POP POP DUP2 MSTORE PUSH1 0x20 ADD PUSH1 0x7 DUP3 ADD PUSH1 0x5 DUP1 PUSH1 0x20 MUL PUSH1 0x40 MLOAD SWAP1 DUP2 ADD PUSH1 0x40 MSTORE DUP1 SWAP3 SWAP2 SWAP1 DUP3 PUSH1 0x5 DUP1 ISZERO PUSH2 0xBED JUMPI PUSH1 0x20 MUL DUP3 ADD SWAP2 JUMPDEST DUP2 SLOAD DUP2 MSTORE PUSH1 0x20 ADD SWAP1 PUSH1 0x1 ADD SWAP1 DUP1 DUP4 GT PUSH2 0xBD9 JUMPI JUMPDEST POP POP POP POP POP DUP2 MSTORE PUSH1 0x20 ADD PUSH1 0xC DUP3 ADD PUSH1 0x5 DUP1 PUSH1 0x20 MUL PUSH1 0x40 MLOAD SWAP1 DUP2 ADD PUSH1 0x40 MSTORE DUP1 SWAP3 SWAP2 SWAP1 DUP3 PUSH1 0x5 DUP1 ISZERO PUSH2 0xC32 JUMPI PUSH1 0x20 MUL DUP3 ADD SWAP2 JUMPDEST DUP2 SLOAD DUP2 MSTORE PUSH1 0x20 ADD SWAP1 PUSH1 0x1 ADD SWAP1 DUP1 DUP4 GT PUSH2 0xC1E JUMPI JUMPDEST POP POP POP POP POP DUP2 MSTORE POP POP DUP2 MSTORE PUSH1 0x20 ADD PUSH1 0x16 DUP3 ADD SLOAD DUP2 MSTORE PUSH1 0x20 ADD PUSH1 0x17 DUP3 ADD SLOAD DUP2 MSTORE PUSH1 0x20 ADD PUSH1 0x18 DUP3 ADD PUSH1 0x0 SWAP1 SLOAD SWAP1 PUSH2 0x100 EXP SWAP1 DIV PUSH1 0xFF AND ISZERO ISZERO ISZERO ISZERO DUP2 MSTORE PUSH1 0x20 ADD PUSH1 0x18 DUP3 ADD PUSH1 0x1 SWAP1 SLOAD SWAP1 PUSH2 0x100 EXP SWAP1 DIV PUSH1 0xFF AND PUSH1 0x5 DUP2 GT ISZERO PUSH2 0xC8C JUMPI INVALID JUMPDEST PUSH1 0x5 DUP2 GT ISZERO PUSH2 0xC97 JUMPI INVALID JUMPDEST DUP2 MSTORE POP POP DUP2 MSTORE PUSH1 0x20 ADD SWAP1 PUSH1 0x1 ADD SWAP1 PUSH2 0x9D3 JUMP JUMPDEST POP POP POP POP DUP2 MSTORE PUSH1 0x20 ADD PUSH1 0x1 DUP3 ADD SLOAD DUP2 MSTORE PUSH1 0x20 ADD PUSH1 0x2 DUP3 ADD PUSH1 0x0 SWAP1 SLOAD SWAP1 PUSH2 0x100 EXP SWAP1 DIV PUSH1 0xFF AND ISZERO ISZERO ISZERO ISZERO DUP2 MSTORE POP POP SWAP1 POP SWAP2 SWAP1 POP JUMP JUMPDEST PUSH2 0xCE6 PUSH2 0x1F63 JUMP JUMPDEST PUSH1 0x55 PUSH1 0x0 CALLER PUSH20 0xFFFFFFFFFFFFFFFFFFFFFFFFFFFFFFFFFFFFFFFF AND PUSH20 0xFFFFFFFFFFFFFFFFFFFFFFFFFFFFFFFFFFFFFFFF AND DUP2 MSTORE PUSH1 0x20 ADD SWAP1 DUP2 MSTORE PUSH1 0x20 ADD PUSH1 0x0 KECCAK256 PUSH1 0x2 ADD PUSH1 0x0 SWAP1 SLOAD SWAP1 PUSH2 0x100 EXP SWAP1 DIV PUSH1 0xFF AND PUSH2 0xD75 JUMPI PUSH1 0x40 MLOAD PUSH32 0x8C379A000000000000000000000000000000000000000000000000000000000 DUP2 MSTORE PUSH1 0x4 ADD PUSH2 0xD6C SWAP1 PUSH2 0x30E5 JUMP JUMPDEST PUSH1 0x40 MLOAD DUP1 SWAP2 SUB SWAP1 REVERT JUMPDEST PUSH2 0xD7D PUSH2 0x1F40 JUMP JUMPDEST PUSH2 0xD86 CALLER PUSH2 0x95C JUMP JUMPDEST SWAP1 POP DUP1 PUSH1 0x0 ADD MLOAD DUP4 DUP2 MLOAD DUP2 LT PUSH2 0xD98 JUMPI INVALID JUMPDEST PUSH1 0x20 MUL PUSH1 0x20 ADD ADD MLOAD SWAP2 POP POP SWAP2 SWAP1 POP JUMP JUMPDEST CALLER PUSH20 0xFFFFFFFFFFFFFFFFFFFFFFFFFFFFFFFFFFFFFFFF AND DUP6 PUSH20 0xFFFFFFFFFFFFFFFFFFFFFFFFFFFFFFFFFFFFFFFF AND EQ ISZERO PUSH2 0xE17 JUMPI PUSH1 0x40 MLOAD PUSH32 0x8C379A000000000000000000000000000000000000000000000000000000000 DUP2 MSTORE PUSH1 0x4 ADD PUSH2 0xE0E SWAP1 PUSH2 0x30C5 JUMP JUMPDEST PUSH1 0x40 MLOAD DUP1 SWAP2 SUB SWAP1 REVERT JUMPDEST PUSH1 0x0 PUSH1 0x1 DUP2 GT ISZERO PUSH2 0xE24 JUMPI INVALID JUMPDEST DUP5 PUSH1 0x1 DUP2 GT ISZERO PUSH2 0xE30 JUMPI INVALID JUMPDEST EQ ISZERO PUSH2 0xEC8 JUMPI PUSH1 0x59 PUSH1 0x0 SWAP1 SLOAD SWAP1 PUSH2 0x100 EXP SWAP1 DIV PUSH20 0xFFFFFFFFFFFFFFFFFFFFFFFFFFFFFFFFFFFFFFFF AND PUSH20 0xFFFFFFFFFFFFFFFFFFFFFFFFFFFFFFFFFFFFFFFF AND PUSH4 0x31F652DB DUP5 DUP4 CALLER PUSH1 0x40 MLOAD DUP5 PUSH4 0xFFFFFFFF AND PUSH1 0xE0 SHL DUP2 MSTORE PUSH1 0x4 ADD PUSH2 0xE95 SWAP4 SWAP3 SWAP2 SWAP1 PUSH2 0x303B JUMP JUMPDEST PUSH1 0x0 PUSH1 0x40 MLOAD DUP1 DUP4 SUB DUP2 PUSH1 0x0 DUP8 DUP1 EXTCODESIZE ISZERO DUP1 ISZERO PUSH2 0xEAF JUMPI PUSH1 0x0 DUP1 REVERT JUMPDEST POP GAS CALL ISZERO DUP1 ISZERO PUSH2 0xEC3 JUMPI RETURNDATASIZE PUSH1 0x0 DUP1 RETURNDATACOPY RETURNDATASIZE PUSH1 0x0 REVERT JUMPDEST POP POP POP POP JUMPDEST PUSH1 0x1 DUP1 DUP2 GT ISZERO PUSH2 0xED4 JUMPI INVALID JUMPDEST DUP5 PUSH1 0x1 DUP2 GT ISZERO PUSH2 0xEE0 JUMPI INVALID JUMPDEST EQ ISZERO PUSH2 0xF78 JUMPI PUSH1 0x59 PUSH1 0x0 SWAP1 SLOAD SWAP1 PUSH2 0x100 EXP SWAP1 DIV PUSH20 0xFFFFFFFFFFFFFFFFFFFFFFFFFFFFFFFFFFFFFFFF AND PUSH20 0xFFFFFFFFFFFFFFFFFFFFFFFFFFFFFFFFFFFFFFFF AND PUSH4 0x31F652DB DUP5 DUP4 DUP9 PUSH1 0x40 MLOAD DUP5 PUSH4 0xFFFFFFFF AND PUSH1 0xE0 SHL DUP2 MSTORE PUSH1 0x4 ADD PUSH2 0xF45 SWAP4 SWAP3 SWAP2 SWAP1 PUSH2 0x3004 JUMP JUMPDEST PUSH1 0x0 PUSH1 0x40 MLOAD DUP1 DUP4 SUB DUP2 PUSH1 0x0 DUP8 DUP1 EXTCODESIZE ISZERO DUP1 ISZERO PUSH2 0xF5F JUMPI PUSH1 0x0 DUP1 REVERT JUMPDEST POP GAS CALL ISZERO DUP1 ISZERO PUSH2 0xF73 JUMPI RETURNDATASIZE PUSH1 0x0 DUP1 RETURNDATACOPY RETURNDATASIZE PUSH1 0x0 REVERT JUMPDEST POP POP POP POP JUMPDEST PUSH1 0x0 PUSH1 0x57 PUSH1 0x0 SWAP1 SLOAD SWAP1 PUSH2 0x100 EXP SWAP1 DIV PUSH20 0xFFFFFFFFFFFFFFFFFFFFFFFFFFFFFFFFFFFFFFFF AND PUSH20 0xFFFFFFFFFFFFFFFFFFFFFFFFFFFFFFFFFFFFFFFF AND PUSH4 0x524BC34A DUP8 DUP8 DUP8 DUP8 DUP8 PUSH1 0x40 MLOAD DUP7 PUSH4 0xFFFFFFFF AND PUSH1 0xE0 SHL DUP2 MSTORE PUSH1 0x4 ADD PUSH2 0xFDD SWAP6 SWAP5 SWAP4 SWAP3 SWAP2 SWAP1 PUSH2 0x2EC0 JUMP JUMPDEST PUSH1 0x20 PUSH1 0x40 MLOAD DUP1 DUP4 SUB DUP2 PUSH1 0x0 DUP8 DUP1 EXTCODESIZE ISZERO DUP1 ISZERO PUSH2 0xFF7 JUMPI PUSH1 0x0 DUP1 REVERT JUMPDEST POP GAS CALL ISZERO DUP1 ISZERO PUSH2 0x100B JUMPI RETURNDATASIZE PUSH1 0x0 DUP1 RETURNDATACOPY RETURNDATASIZE PUSH1 0x0 REVERT JUMPDEST POP POP POP POP PUSH1 0x40 MLOAD RETURNDATASIZE PUSH1 0x1F NOT PUSH1 0x1F DUP3 ADD AND DUP3 ADD DUP1 PUSH1 0x40 MSTORE POP DUP2 ADD SWAP1 PUSH2 0x102F SWAP2 SWAP1 PUSH2 0x2691 JUMP JUMPDEST SWAP1 POP PUSH1 0x0 PUSH1 0x55 PUSH1 0x0 DUP9 PUSH20 0xFFFFFFFFFFFFFFFFFFFFFFFFFFFFFFFFFFFFFFFF AND PUSH20 0xFFFFFFFFFFFFFFFFFFFFFFFFFFFFFFFFFFFFFFFF AND DUP2 MSTORE PUSH1 0x20 ADD SWAP1 DUP2 MSTORE PUSH1 0x20 ADD PUSH1 0x0 KECCAK256 SWAP1 POP PUSH2 0x107C PUSH2 0x202B JUMP JUMPDEST PUSH1 0x40 MLOAD DUP1 PUSH1 0xA0 ADD PUSH1 0x40 MSTORE DUP1 DUP10 PUSH20 0xFFFFFFFFFFFFFFFFFFFFFFFFFFFFFFFFFFFFFFFF AND DUP2 MSTORE PUSH1 0x20 ADD DUP9 PUSH1 0x1 DUP2 GT ISZERO PUSH2 0x10AF JUMPI INVALID JUMPDEST DUP2 MSTORE PUSH1 0x20 ADD DUP8 PUSH1 0x2 DUP2 GT ISZERO PUSH2 0x10C0 JUMPI INVALID JUMPDEST DUP2 MSTORE PUSH1 0x20 ADD DUP7 PUSH1 0x5 DUP2 GT ISZERO PUSH2 0x10D1 JUMPI INVALID JUMPDEST DUP2 MSTORE PUSH1 0x20 ADD DUP6 DUP2 MSTORE POP SWAP1 POP PUSH2 0x10E4 PUSH2 0x1F63 JUMP JUMPDEST PUSH2 0x1101 DUP3 DUP6 DUP6 PUSH1 0x1 ADD PUSH1 0x0 DUP2 SLOAD DUP1 SWAP3 SWAP2 SWAP1 PUSH1 0x1 ADD SWAP2 SWAP1 POP SSTORE PUSH2 0x1C0E JUMP JUMPDEST SWAP1 POP DUP3 PUSH1 0x0 ADD DUP2 SWAP1 DUP1 PUSH1 0x1 DUP2 SLOAD ADD DUP1 DUP3 SSTORE DUP1 SWAP2 POP POP PUSH1 0x1 SWAP1 SUB SWAP1 PUSH1 0x0 MSTORE PUSH1 0x20 PUSH1 0x0 KECCAK256 SWAP1 PUSH1 0x19 MUL ADD PUSH1 0x0 SWAP1 SWAP2 SWAP1 SWAP2 SWAP1 SWAP2 POP PUSH1 0x0 DUP3 ADD MLOAD DUP2 PUSH1 0x0 ADD SSTORE PUSH1 0x20 DUP3 ADD MLOAD DUP2 PUSH1 0x1 ADD PUSH1 0x0 PUSH2 0x100 EXP DUP2 SLOAD DUP2 PUSH20 0xFFFFFFFFFFFFFFFFFFFFFFFFFFFFFFFFFFFFFFFF MUL NOT AND SWAP1 DUP4 PUSH20 0xFFFFFFFFFFFFFFFFFFFFFFFFFFFFFFFFFFFFFFFF AND MUL OR SWAP1 SSTORE POP PUSH1 0x40 DUP3 ADD MLOAD DUP2 PUSH1 0x2 ADD PUSH1 0x0 PUSH2 0x100 EXP DUP2 SLOAD DUP2 PUSH20 0xFFFFFFFFFFFFFFFFFFFFFFFFFFFFFFFFFFFFFFFF MUL NOT AND SWAP1 DUP4 PUSH20 0xFFFFFFFFFFFFFFFFFFFFFFFFFFFFFFFFFFFFFFFF AND MUL OR SWAP1 SSTORE POP PUSH1 0x60 DUP3 ADD MLOAD DUP2 PUSH1 0x2 ADD PUSH1 0x14 PUSH2 0x100 EXP DUP2 SLOAD DUP2 PUSH1 0xFF MUL NOT AND SWAP1 DUP4 PUSH1 0x1 DUP2 GT ISZERO PUSH2 0x11ED JUMPI INVALID JUMPDEST MUL OR SWAP1 SSTORE POP PUSH1 0x80 DUP3 ADD MLOAD DUP2 PUSH1 0x2 ADD PUSH1 0x15 PUSH2 0x100 EXP DUP2 SLOAD DUP2 PUSH1 0xFF MUL NOT AND SWAP1 DUP4 PUSH1 0x2 DUP2 GT ISZERO PUSH2 0x1216 JUMPI INVALID JUMPDEST MUL OR SWAP1 SSTORE POP PUSH1 0xA0 DUP3 ADD MLOAD DUP2 PUSH1 0x2 ADD PUSH1 0x16 PUSH2 0x100 EXP DUP2 SLOAD DUP2 PUSH1 0xFF MUL NOT AND SWAP1 DUP4 PUSH1 0x5 DUP2 GT ISZERO PUSH2 0x123F JUMPI INVALID JUMPDEST MUL OR SWAP1 SSTORE POP PUSH1 0xC0 DUP3 ADD MLOAD DUP2 PUSH1 0x3 ADD SSTORE PUSH1 0xE0 DUP3 ADD MLOAD DUP2 PUSH1 0x4 ADD SSTORE PUSH2 0x100 DUP3 ADD MLOAD DUP2 PUSH1 0x5 ADD PUSH1 0x0 DUP3 ADD MLOAD DUP2 PUSH1 0x0 ADD SSTORE PUSH1 0x20 DUP3 ADD MLOAD DUP2 PUSH1 0x1 ADD SSTORE PUSH1 0x40 DUP3 ADD MLOAD DUP2 PUSH1 0x2 ADD SWAP1 PUSH1 0x5 PUSH2 0x128D SWAP3 SWAP2 SWAP1 PUSH2 0x2091 JUMP JUMPDEST POP PUSH1 0x60 DUP3 ADD MLOAD DUP2 PUSH1 0x7 ADD SWAP1 PUSH1 0x5 PUSH2 0x12A5 SWAP3 SWAP2 SWAP1 PUSH2 0x2091 JUMP JUMPDEST POP PUSH1 0x80 DUP3 ADD MLOAD DUP2 PUSH1 0xC ADD SWAP1 PUSH1 0x5 PUSH2 0x12BD SWAP3 SWAP2 SWAP1 PUSH2 0x2091 JUMP JUMPDEST POP POP POP PUSH2 0x120 DUP3 ADD MLOAD DUP2 PUSH1 0x16 ADD SSTORE PUSH2 0x140 DUP3 ADD MLOAD DUP2 PUSH1 0x17 ADD SSTORE PUSH2 0x160 DUP3 ADD MLOAD DUP2 PUSH1 0x18 ADD PUSH1 0x0 PUSH2 0x100 EXP DUP2 SLOAD DUP2 PUSH1 0xFF MUL NOT AND SWAP1 DUP4 ISZERO ISZERO MUL OR SWAP1 SSTORE POP PUSH2 0x180 DUP3 ADD MLOAD DUP2 PUSH1 0x18 ADD PUSH1 0x1 PUSH2 0x100 EXP DUP2 SLOAD DUP2 PUSH1 0xFF MUL NOT AND SWAP1 DUP4 PUSH1 0x5 DUP2 GT ISZERO PUSH2 0x131C JUMPI INVALID JUMPDEST MUL OR SWAP1 SSTORE POP POP POP PUSH1 0x1 DUP4 PUSH1 0x2 ADD PUSH1 0x0 PUSH2 0x100 EXP DUP2 SLOAD DUP2 PUSH1 0xFF MUL NOT AND SWAP1 DUP4 ISZERO ISZERO MUL OR SWAP1 SSTORE POP PUSH1 0x56 CALLER SWAP1 DUP1 PUSH1 0x1 DUP2 SLOAD ADD DUP1 DUP3 SSTORE DUP1 SWAP2 POP POP PUSH1 0x1 SWAP1 SUB SWAP1 PUSH1 0x0 MSTORE PUSH1 0x20 PUSH1 0x0 KECCAK256 ADD PUSH1 0x0 SWAP1 SWAP2 SWAP1 SWAP2 SWAP1 SWAP2 PUSH2 0x100 EXP DUP2 SLOAD DUP2 PUSH20 0xFFFFFFFFFFFFFFFFFFFFFFFFFFFFFFFFFFFFFFFF MUL NOT AND SWAP1 DUP4 PUSH20 0xFFFFFFFFFFFFFFFFFFFFFFFFFFFFFFFFFFFFFFFF AND MUL OR SWAP1 SSTORE POP PUSH32 0x787A470148C364FF9C70E82B2C6C1B0BECBCA7969011737F1F93CE9307B424E9 DUP10 DUP10 DUP10 DUP10 DUP10 DUP7 PUSH1 0x0 ADD MLOAD PUSH1 0x40 MLOAD PUSH2 0x13E0 SWAP7 SWAP6 SWAP5 SWAP4 SWAP3 SWAP2 SWAP1 PUSH2 0x2F13 JUMP JUMPDEST PUSH1 0x40 MLOAD DUP1 SWAP2 SUB SWAP1 LOG1 POP POP POP POP POP POP POP POP POP JUMP JUMPDEST PUSH1 0x0 PUSH1 0x1 DUP2 GT ISZERO PUSH2 0x1400 JUMPI INVALID JUMPDEST DUP6 PUSH1 0x1 DUP2 GT ISZERO PUSH2 0x140C JUMPI INVALID JUMPDEST EQ ISZERO PUSH2 0x1491 JUMPI DUP6 PUSH20 0xFFFFFFFFFFFFFFFFFFFFFFFFFFFFFFFFFFFFFFFF AND CALLER PUSH20 0xFFFFFFFFFFFFFFFFFFFFFFFFFFFFFFFFFFFFFFFF AND EQ PUSH2 0x1480 JUMPI PUSH1 0x40 MLOAD PUSH32 0x8C379A000000000000000000000000000000000000000000000000000000000 DUP2 MSTORE PUSH1 0x4 ADD PUSH2 0x1477 SWAP1 PUSH2 0x3125 JUMP JUMPDEST PUSH1 0x40 MLOAD DUP1 SWAP2 SUB SWAP1 REVERT JUMPDEST PUSH2 0x148C DUP8 DUP8 DUP4 DUP6 PUSH2 0x269 JUMP JUMPDEST PUSH2 0x150C JUMP JUMPDEST DUP7 PUSH20 0xFFFFFFFFFFFFFFFFFFFFFFFFFFFFFFFFFFFFFFFF AND CALLER PUSH20 0xFFFFFFFFFFFFFFFFFFFFFFFFFFFFFFFFFFFFFFFF AND EQ PUSH2 0x14FF JUMPI PUSH1 0x40 MLOAD PUSH32 0x8C379A000000000000000000000000000000000000000000000000000000000 DUP2 MSTORE PUSH1 0x4 ADD PUSH2 0x14F6 SWAP1 PUSH2 0x3145 JUMP JUMPDEST PUSH1 0x40 MLOAD DUP1 SWAP2 SUB SWAP1 REVERT JUMPDEST PUSH2 0x150B DUP8 DUP8 DUP4 DUP6 PUSH2 0x269 JUMP JUMPDEST JUMPDEST DUP6 PUSH20 0xFFFFFFFFFFFFFFFFFFFFFFFFFFFFFFFFFFFFFFFF AND DUP8 PUSH20 0xFFFFFFFFFFFFFFFFFFFFFFFFFFFFFFFFFFFFFFFF AND PUSH32 0x52F2CBDDB551A0CD4AD65095542B2EFD13CD261642F4034C3B0C01B232C2591D DUP8 DUP8 DUP8 DUP8 DUP8 PUSH1 0x40 MLOAD PUSH2 0x1571 SWAP6 SWAP5 SWAP4 SWAP3 SWAP2 SWAP1 PUSH2 0x3072 JUMP JUMPDEST PUSH1 0x40 MLOAD DUP1 SWAP2 SUB SWAP1 LOG3 POP POP POP POP POP POP POP JUMP JUMPDEST JUMP JUMPDEST PUSH1 0x0 JUMPDEST PUSH1 0x56 DUP1 SLOAD SWAP1 POP DUP2 LT ISZERO PUSH2 0x165E JUMPI PUSH1 0x0 PUSH1 0x55 PUSH1 0x0 PUSH1 0x56 DUP5 DUP2 SLOAD DUP2 LT PUSH2 0x15A7 JUMPI INVALID JUMPDEST SWAP1 PUSH1 0x0 MSTORE PUSH1 0x20 PUSH1 0x0 KECCAK256 ADD PUSH1 0x0 SWAP1 SLOAD SWAP1 PUSH2 0x100 EXP SWAP1 DIV PUSH20 0xFFFFFFFFFFFFFFFFFFFFFFFFFFFFFFFFFFFFFFFF AND PUSH20 0xFFFFFFFFFFFFFFFFFFFFFFFFFFFFFFFFFFFFFFFF AND PUSH20 0xFFFFFFFFFFFFFFFFFFFFFFFFFFFFFFFFFFFFFFFF AND DUP2 MSTORE PUSH1 0x20 ADD SWAP1 DUP2 MSTORE PUSH1 0x20 ADD PUSH1 0x0 KECCAK256 PUSH1 0x0 ADD SWAP1 POP PUSH1 0x0 JUMPDEST DUP2 DUP1 SLOAD SWAP1 POP DUP2 LT ISZERO PUSH2 0x164F JUMPI PUSH2 0x1642 DUP3 DUP3 DUP2 SLOAD DUP2 LT PUSH2 0x162F JUMPI INVALID JUMPDEST SWAP1 PUSH1 0x0 MSTORE PUSH1 0x20 PUSH1 0x0 KECCAK256 SWAP1 PUSH1 0x19 MUL ADD PUSH2 0x1921 JUMP JUMPDEST DUP1 DUP1 PUSH1 0x1 ADD SWAP2 POP POP PUSH2 0x1614 JUMP JUMPDEST POP POP DUP1 DUP1 PUSH1 0x1 ADD SWAP2 POP POP PUSH2 0x1587 JUMP JUMPDEST POP JUMP JUMPDEST PUSH2 0x1669 PUSH2 0x20D1 JUMP JUMPDEST PUSH2 0x1671 PUSH2 0x2112 JUMP JUMPDEST PUSH1 0x2A DUP6 PUSH1 0x5 DUP2 GT ISZERO PUSH2 0x167F JUMPI INVALID JUMPDEST PUSH1 0x6 DUP2 LT PUSH2 0x1689 JUMPI INVALID JUMPDEST PUSH1 0x5 MUL ADD PUSH1 0x5 DUP1 PUSH1 0x20 MUL PUSH1 0x40 MLOAD SWAP1 DUP2 ADD PUSH1 0x40 MSTORE DUP1 SWAP3 SWAP2 SWAP1 DUP3 PUSH1 0x5 DUP1 ISZERO PUSH2 0x16C4 JUMPI PUSH1 0x20 MUL DUP3 ADD SWAP2 JUMPDEST DUP2 SLOAD DUP2 MSTORE PUSH1 0x20 ADD SWAP1 PUSH1 0x1 ADD SWAP1 DUP1 DUP4 GT PUSH2 0x16B0 JUMPI JUMPDEST POP POP POP POP POP SWAP1 POP PUSH2 0x16D3 PUSH2 0x2112 JUMP JUMPDEST PUSH1 0x2A DUP7 PUSH1 0x5 DUP2 GT ISZERO PUSH2 0x16E1 JUMPI INVALID JUMPDEST PUSH1 0x6 DUP2 LT PUSH2 0x16EB JUMPI INVALID JUMPDEST PUSH1 0x5 MUL ADD PUSH1 0x5 DUP1 PUSH1 0x20 MUL PUSH1 0x40 MLOAD SWAP1 DUP2 ADD PUSH1 0x40 MSTORE DUP1 SWAP3 SWAP2 SWAP1 DUP3 PUSH1 0x5 DUP1 ISZERO PUSH2 0x1726 JUMPI PUSH1 0x20 MUL DUP3 ADD SWAP2 JUMPDEST DUP2 SLOAD DUP2 MSTORE PUSH1 0x20 ADD SWAP1 PUSH1 0x1 ADD SWAP1 DUP1 DUP4 GT PUSH2 0x1712 JUMPI JUMPDEST POP POP POP POP POP SWAP1 POP PUSH2 0x1735 PUSH2 0x2112 JUMP JUMPDEST PUSH1 0x2A DUP8 PUSH1 0x5 DUP2 GT ISZERO PUSH2 0x1743 JUMPI INVALID JUMPDEST PUSH1 0x6 DUP2 LT PUSH2 0x174D JUMPI INVALID JUMPDEST PUSH1 0x5 MUL ADD PUSH1 0x5 DUP1 PUSH1 0x20 MUL PUSH1 0x40 MLOAD SWAP1 DUP2 ADD PUSH1 0x40 MSTORE DUP1 SWAP3 SWAP2 SWAP1 DUP3 PUSH1 0x5 DUP1 ISZERO PUSH2 0x1788 JUMPI PUSH1 0x20 MUL DUP3 ADD SWAP2 JUMPDEST DUP2 SLOAD DUP2 MSTORE PUSH1 0x20 ADD SWAP1 PUSH1 0x1 ADD SWAP1 DUP1 DUP4 GT PUSH2 0x1774 JUMPI JUMPDEST POP POP POP POP POP SWAP1 POP PUSH1 0x0 JUMPDEST PUSH1 0x48 DUP9 PUSH1 0x5 DUP2 GT ISZERO PUSH2 0x17A0 JUMPI INVALID JUMPDEST PUSH1 0x6 DUP2 LT PUSH2 0x17AA JUMPI INVALID JUMPDEST ADD SLOAD DUP2 LT ISZERO PUSH2 0x1844 JUMPI PUSH3 0x127500 TIMESTAMP SUB DUP5 DUP3 PUSH1 0x5 DUP2 LT PUSH2 0x17C5 JUMPI INVALID JUMPDEST PUSH1 0x20 MUL ADD DUP2 DUP2 MLOAD ADD SWAP2 POP DUP2 DUP2 MSTORE POP POP TIMESTAMP DUP4 DUP3 PUSH1 0x5 DUP2 LT PUSH2 0x17E1 JUMPI INVALID JUMPDEST PUSH1 0x20 MUL ADD DUP2 DUP2 MLOAD ADD SWAP2 POP DUP2 DUP2 MSTORE POP POP PUSH2 0x2710 DUP1 PUSH1 0x6 DUP11 PUSH1 0x5 DUP2 GT ISZERO PUSH2 0x1802 JUMPI INVALID JUMPDEST PUSH1 0x6 DUP2 LT PUSH2 0x180C JUMPI INVALID JUMPDEST ADD SLOAD DUP9 DUP11 MUL MUL DUP2 PUSH2 0x1819 JUMPI INVALID JUMPDEST DIV DUP2 PUSH2 0x1821 JUMPI INVALID JUMPDEST DIV DUP3 DUP3 PUSH1 0x5 DUP2 LT PUSH2 0x182E JUMPI INVALID JUMPDEST PUSH1 0x20 MUL ADD DUP2 DUP2 MSTORE POP POP DUP1 DUP1 PUSH1 0x1 ADD SWAP2 POP POP PUSH2 0x1792 JUMP JUMPDEST POP PUSH1 0x40 MLOAD DUP1 PUSH1 0xA0 ADD PUSH1 0x40 MSTORE DUP1 TIMESTAMP DUP2 MSTORE PUSH1 0x20 ADD PUSH1 0x0 DUP10 PUSH1 0x5 DUP2 GT ISZERO PUSH2 0x1864 JUMPI INVALID JUMPDEST PUSH1 0x6 DUP2 LT PUSH2 0x186E JUMPI INVALID JUMPDEST ADD SLOAD TIMESTAMP ADD DUP2 MSTORE PUSH1 0x20 ADD DUP5 DUP2 MSTORE PUSH1 0x20 ADD DUP4 DUP2 MSTORE PUSH1 0x20 ADD DUP3 DUP2 MSTORE POP SWAP4 POP POP POP POP SWAP4 SWAP3 POP POP POP JUMP JUMPDEST PUSH1 0x60 PUSH1 0x56 DUP1 SLOAD DUP1 PUSH1 0x20 MUL PUSH1 0x20 ADD PUSH1 0x40 MLOAD SWAP1 DUP2 ADD PUSH1 0x40 MSTORE DUP1 SWAP3 SWAP2 SWAP1 DUP2 DUP2 MSTORE PUSH1 0x20 ADD DUP3 DUP1 SLOAD DUP1 ISZERO PUSH2 0x1917 JUMPI PUSH1 0x20 MUL DUP3 ADD SWAP2 SWAP1 PUSH1 0x0 MSTORE PUSH1 0x20 PUSH1 0x0 KECCAK256 SWAP1 JUMPDEST DUP2 PUSH1 0x0 SWAP1 SLOAD SWAP1 PUSH2 0x100 EXP SWAP1 DIV PUSH20 0xFFFFFFFFFFFFFFFFFFFFFFFFFFFFFFFFFFFFFFFF AND PUSH20 0xFFFFFFFFFFFFFFFFFFFFFFFFFFFFFFFFFFFFFFFF AND DUP2 MSTORE PUSH1 0x20 ADD SWAP1 PUSH1 0x1 ADD SWAP1 DUP1 DUP4 GT PUSH2 0x18CD JUMPI JUMPDEST POP POP POP POP POP SWAP1 POP SWAP1 JUMP JUMPDEST PUSH2 0x1929 PUSH2 0x2134 JUMP JUMPDEST PUSH1 0x57 PUSH1 0x0 SWAP1 SLOAD SWAP1 PUSH2 0x100 EXP SWAP1 DIV PUSH20 0xFFFFFFFFFFFFFFFFFFFFFFFFFFFFFFFFFFFFFFFF AND PUSH20 0xFFFFFFFFFFFFFFFFFFFFFFFFFFFFFFFFFFFFFFFF AND PUSH4 0x69FA00C PUSH1 0x40 MLOAD DUP2 PUSH4 0xFFFFFFFF AND PUSH1 0xE0 SHL DUP2 MSTORE PUSH1 0x4 ADD PUSH2 0x2A0 PUSH1 0x40 MLOAD DUP1 DUP4 SUB DUP2 DUP7 DUP1 EXTCODESIZE ISZERO DUP1 ISZERO PUSH2 0x1992 JUMPI PUSH1 0x0 DUP1 REVERT JUMPDEST POP GAS STATICCALL ISZERO DUP1 ISZERO PUSH2 0x19A6 JUMPI RETURNDATASIZE PUSH1 0x0 DUP1 RETURNDATACOPY RETURNDATASIZE PUSH1 0x0 REVERT JUMPDEST POP POP POP POP PUSH1 0x40 MLOAD RETURNDATASIZE PUSH1 0x1F NOT PUSH1 0x1F DUP3 ADD AND DUP3 ADD DUP1 PUSH1 0x40 MSTORE POP DUP2 ADD SWAP1 PUSH2 0x19CA SWAP2 SWAP1 PUSH2 0x2574 JUMP JUMPDEST SWAP1 POP PUSH2 0x19D4 PUSH2 0x2161 JUMP JUMPDEST DUP2 DUP4 PUSH1 0x2 ADD PUSH1 0x15 SWAP1 SLOAD SWAP1 PUSH2 0x100 EXP SWAP1 DIV PUSH1 0xFF AND PUSH1 0x2 DUP2 GT ISZERO PUSH2 0x19F2 JUMPI INVALID JUMPDEST PUSH1 0x3 DUP2 LT PUSH2 0x19FC JUMPI INVALID JUMPDEST PUSH1 0x20 MUL ADD MLOAD SWAP1 POP PUSH2 0x1A0B PUSH2 0x219E JUMP JUMPDEST PUSH1 0x40 MLOAD DUP1 PUSH1 0xE0 ADD PUSH1 0x40 MSTORE DUP1 DUP4 PUSH1 0x0 ADD MLOAD DUP2 MSTORE PUSH1 0x20 ADD DUP4 PUSH1 0x20 ADD MLOAD DUP2 MSTORE PUSH1 0x20 ADD DUP4 PUSH1 0x40 ADD MLOAD DUP2 MSTORE PUSH1 0x20 ADD DUP4 PUSH1 0x60 ADD MLOAD DUP2 MSTORE PUSH1 0x20 ADD DUP4 PUSH1 0x80 ADD MLOAD DUP2 MSTORE PUSH1 0x20 ADD DUP4 PUSH1 0xA0 ADD MLOAD DUP2 MSTORE PUSH1 0x20 ADD DUP4 PUSH1 0xC0 ADD MLOAD DUP2 MSTORE POP SWAP1 POP PUSH2 0x1A64 PUSH2 0x2112 JUMP JUMPDEST DUP5 PUSH1 0x5 ADD PUSH1 0x7 ADD PUSH1 0x5 DUP1 PUSH1 0x20 MUL PUSH1 0x40 MLOAD SWAP1 DUP2 ADD PUSH1 0x40 MSTORE DUP1 SWAP3 SWAP2 SWAP1 DUP3 PUSH1 0x5 DUP1 ISZERO PUSH2 0x1AA2 JUMPI PUSH1 0x20 MUL DUP3 ADD SWAP2 JUMPDEST DUP2 SLOAD DUP2 MSTORE PUSH1 0x20 ADD SWAP1 PUSH1 0x1 ADD SWAP1 DUP1 DUP4 GT PUSH2 0x1A8E JUMPI JUMPDEST POP POP POP POP POP SWAP1 POP PUSH2 0x1AB1 PUSH2 0x2112 JUMP JUMPDEST DUP6 PUSH1 0x5 ADD PUSH1 0xC ADD PUSH1 0x5 DUP1 PUSH1 0x20 MUL PUSH1 0x40 MLOAD SWAP1 DUP2 ADD PUSH1 0x40 MSTORE DUP1 SWAP3 SWAP2 SWAP1 DUP3 PUSH1 0x5 DUP1 ISZERO PUSH2 0x1AEF JUMPI PUSH1 0x20 MUL DUP3 ADD SWAP2 JUMPDEST DUP2 SLOAD DUP2 MSTORE PUSH1 0x20 ADD SWAP1 PUSH1 0x1 ADD SWAP1 DUP1 DUP4 GT PUSH2 0x1ADB JUMPI JUMPDEST POP POP POP POP POP SWAP1 POP PUSH2 0x1AFE PUSH2 0x2112 JUMP JUMPDEST PUSH1 0x0 DUP1 JUMPDEST PUSH1 0x48 DUP10 PUSH1 0x2 ADD PUSH1 0x16 SWAP1 SLOAD SWAP1 PUSH2 0x100 EXP SWAP1 DIV PUSH1 0xFF AND PUSH1 0x5 DUP2 GT ISZERO PUSH2 0x1B21 JUMPI INVALID JUMPDEST PUSH1 0x6 DUP2 LT PUSH2 0x1B2B JUMPI INVALID JUMPDEST ADD SLOAD DUP2 LT ISZERO PUSH2 0x1B98 JUMPI PUSH1 0x0 PUSH2 0x1B50 DUP8 DUP8 DUP5 PUSH1 0x5 DUP2 LT PUSH2 0x1B46 JUMPI INVALID JUMPDEST PUSH1 0x20 MUL ADD MLOAD PUSH2 0x1DF2 JUMP JUMPDEST SWAP1 POP DUP1 DUP5 DUP4 PUSH1 0x5 DUP2 LT PUSH2 0x1B5F JUMPI INVALID JUMPDEST PUSH1 0x20 MUL ADD DUP2 DUP2 MSTORE POP POP PUSH2 0x2710 DUP2 DUP7 DUP5 PUSH1 0x5 DUP2 LT PUSH2 0x1B78 JUMPI INVALID JUMPDEST PUSH1 0x20 MUL ADD MLOAD MUL DUP2 PUSH2 0x1B85 JUMPI INVALID JUMPDEST DIV DUP4 ADD SWAP3 POP POP DUP1 DUP1 PUSH1 0x1 ADD SWAP2 POP POP PUSH2 0x1B02 JUMP JUMPDEST POP PUSH1 0x0 PUSH1 0x1 PUSH1 0x48 DUP11 PUSH1 0x2 ADD PUSH1 0x16 SWAP1 SLOAD SWAP1 PUSH2 0x100 EXP SWAP1 DIV PUSH1 0xFF AND PUSH1 0x5 DUP2 GT ISZERO PUSH2 0x1BBC JUMPI INVALID JUMPDEST PUSH1 0x6 DUP2 LT PUSH2 0x1BC6 JUMPI INVALID JUMPDEST ADD SLOAD SUB SWAP1 POP PUSH2 0x2710 DUP4 DUP3 PUSH1 0x5 DUP2 LT PUSH2 0x1BDA JUMPI INVALID JUMPDEST PUSH1 0x20 MUL ADD MLOAD DUP11 PUSH1 0x3 ADD SLOAD MUL DUP2 PUSH2 0x1BEC JUMPI INVALID JUMPDEST DIV DUP3 ADD SWAP2 POP DUP2 DUP10 PUSH1 0x16 ADD DUP2 SWAP1 SSTORE POP TIMESTAMP DUP10 PUSH1 0x17 ADD DUP2 SWAP1 SSTORE POP POP POP POP POP POP POP POP POP POP JUMP JUMPDEST PUSH2 0x1C16 PUSH2 0x1F63 JUMP JUMPDEST PUSH2 0x1C1E PUSH2 0x1F63 JUMP JUMPDEST DUP3 DUP2 PUSH1 0x0 ADD DUP2 DUP2 MSTORE POP POP PUSH1 0x0 PUSH1 0x1 DUP2 GT ISZERO PUSH2 0x1C35 JUMPI INVALID JUMPDEST DUP6 PUSH1 0x20 ADD MLOAD PUSH1 0x1 DUP2 GT ISZERO PUSH2 0x1C45 JUMPI INVALID JUMPDEST EQ PUSH2 0x1C50 JUMPI CALLER PUSH2 0x1C56 JUMP JUMPDEST DUP5 PUSH1 0x0 ADD MLOAD JUMPDEST DUP2 PUSH1 0x20 ADD SWAP1 PUSH20 0xFFFFFFFFFFFFFFFFFFFFFFFFFFFFFFFFFFFFFFFF AND SWAP1 DUP2 PUSH20 0xFFFFFFFFFFFFFFFFFFFFFFFFFFFFFFFFFFFFFFFF AND DUP2 MSTORE POP POP PUSH1 0x1 DUP1 DUP2 GT ISZERO PUSH2 0x1C99 JUMPI INVALID JUMPDEST DUP6 PUSH1 0x20 ADD MLOAD PUSH1 0x1 DUP2 GT ISZERO PUSH2 0x1CA9 JUMPI INVALID JUMPDEST EQ PUSH2 0x1CB4 JUMPI CALLER PUSH2 0x1CBA JUMP JUMPDEST DUP5 PUSH1 0x0 ADD MLOAD JUMPDEST DUP2 PUSH1 0x40 ADD SWAP1 PUSH20 0xFFFFFFFFFFFFFFFFFFFFFFFFFFFFFFFFFFFFFFFF AND SWAP1 DUP2 PUSH20 0xFFFFFFFFFFFFFFFFFFFFFFFFFFFFFFFFFFFFFFFF AND DUP2 MSTORE POP POP DUP5 PUSH1 0x20 ADD MLOAD DUP2 PUSH1 0x60 ADD SWAP1 PUSH1 0x1 DUP2 GT ISZERO PUSH2 0x1D06 JUMPI INVALID JUMPDEST SWAP1 DUP2 PUSH1 0x1 DUP2 GT ISZERO PUSH2 0x1D13 JUMPI INVALID JUMPDEST DUP2 MSTORE POP POP DUP5 PUSH1 0x40 ADD MLOAD DUP2 PUSH1 0x80 ADD SWAP1 PUSH1 0x2 DUP2 GT ISZERO PUSH2 0x1D2C JUMPI INVALID JUMPDEST SWAP1 DUP2 PUSH1 0x2 DUP2 GT ISZERO PUSH2 0x1D39 JUMPI INVALID JUMPDEST DUP2 MSTORE POP POP DUP5 PUSH1 0x60 ADD MLOAD DUP2 PUSH1 0xA0 ADD SWAP1 PUSH1 0x5 DUP2 GT ISZERO PUSH2 0x1D52 JUMPI INVALID JUMPDEST SWAP1 DUP2 PUSH1 0x5 DUP2 GT ISZERO PUSH2 0x1D5F JUMPI INVALID JUMPDEST DUP2 MSTORE POP POP DUP5 PUSH1 0x80 ADD MLOAD DUP2 PUSH1 0xC0 ADD DUP2 DUP2 MSTORE POP POP DUP4 DUP2 PUSH1 0xE0 ADD DUP2 DUP2 MSTORE POP POP PUSH2 0x1D8E DUP6 PUSH1 0x60 ADD MLOAD DUP7 PUSH1 0x80 ADD MLOAD DUP7 PUSH2 0x1661 JUMP JUMPDEST DUP2 PUSH2 0x100 ADD DUP2 SWAP1 MSTORE POP DUP5 PUSH1 0x80 ADD MLOAD DUP2 PUSH2 0x120 ADD DUP2 DUP2 MSTORE POP POP TIMESTAMP DUP2 PUSH2 0x140 ADD DUP2 DUP2 MSTORE POP POP PUSH1 0x1 DUP2 PUSH2 0x160 ADD SWAP1 ISZERO ISZERO SWAP1 DUP2 ISZERO ISZERO DUP2 MSTORE POP POP PUSH1 0x0 DUP2 PUSH2 0x180 ADD SWAP1 PUSH1 0x5 DUP2 GT ISZERO PUSH2 0x1DD6 JUMPI INVALID JUMPDEST SWAP1 DUP2 PUSH1 0x5 DUP2 GT ISZERO PUSH2 0x1DE3 JUMPI INVALID JUMPDEST DUP2 MSTORE POP POP DUP1 SWAP2 POP POP SWAP4 SWAP3 POP POP POP JUMP JUMPDEST PUSH1 0x0 TIMESTAMP DUP3 GT PUSH2 0x1E04 JUMPI PUSH1 0x0 SWAP1 POP PUSH2 0x1F3A JUMP JUMPDEST PUSH1 0x0 TIMESTAMP DUP4 SUB SWAP1 POP PUSH1 0x4E PUSH1 0x0 PUSH1 0x7 DUP2 LT PUSH2 0x1E19 JUMPI INVALID JUMPDEST ADD SLOAD DUP2 GT PUSH2 0x1E55 JUMPI PUSH1 0x4E PUSH1 0x0 PUSH1 0x7 DUP2 LT PUSH2 0x1E2F JUMPI INVALID JUMPDEST ADD SLOAD DUP2 DUP6 PUSH1 0x0 PUSH1 0x7 DUP2 LT PUSH2 0x1E3F JUMPI INVALID JUMPDEST PUSH1 0x20 MUL ADD MLOAD MUL DUP2 PUSH2 0x1E4C JUMPI INVALID JUMPDEST DIV SWAP2 POP POP PUSH2 0x1F3A JUMP JUMPDEST PUSH1 0x0 PUSH1 0x1 SWAP1 POP JUMPDEST PUSH1 0x7 DUP2 LT ISZERO PUSH2 0x1F37 JUMPI DUP2 PUSH1 0x4E PUSH1 0x1 DUP4 SUB PUSH1 0x7 DUP2 LT PUSH2 0x1E76 JUMPI INVALID JUMPDEST ADD SLOAD LT DUP1 ISZERO PUSH2 0x1E93 JUMPI POP PUSH1 0x4E DUP2 PUSH1 0x7 DUP2 LT PUSH2 0x1E8D JUMPI INVALID JUMPDEST ADD SLOAD DUP3 GT ISZERO JUMPDEST ISZERO PUSH2 0x1F2A JUMPI PUSH1 0x0 PUSH1 0x4E PUSH1 0x1 DUP4 SUB PUSH1 0x7 DUP2 LT PUSH2 0x1EAA JUMPI INVALID JUMPDEST ADD SLOAD DUP4 SUB SWAP1 POP PUSH1 0x0 DUP4 PUSH1 0x4E DUP5 PUSH1 0x7 DUP2 LT PUSH2 0x1EC0 JUMPI INVALID JUMPDEST ADD SLOAD SUB SWAP1 POP PUSH1 0x0 PUSH1 0x4E PUSH1 0x1 DUP6 SUB PUSH1 0x7 DUP2 LT PUSH2 0x1ED7 JUMPI INVALID JUMPDEST ADD SLOAD PUSH1 0x4E DUP6 PUSH1 0x7 DUP2 LT PUSH2 0x1EE6 JUMPI INVALID JUMPDEST ADD SLOAD SUB SWAP1 POP DUP1 DUP4 DUP10 DUP7 PUSH1 0x7 DUP2 LT PUSH2 0x1EF9 JUMPI INVALID JUMPDEST PUSH1 0x20 MUL ADD MLOAD MUL DUP4 DUP11 PUSH1 0x1 DUP9 SUB PUSH1 0x7 DUP2 LT PUSH2 0x1F0F JUMPI INVALID JUMPDEST PUSH1 0x20 MUL ADD MLOAD MUL ADD DUP2 PUSH2 0x1F1D JUMPI INVALID JUMPDEST DIV SWAP6 POP POP POP POP POP POP PUSH2 0x1F3A JUMP JUMPDEST DUP1 DUP1 PUSH1 0x1 ADD SWAP2 POP POP PUSH2 0x1E5C JUMP JUMPDEST POP POP JUMPDEST SWAP3 SWAP2 POP POP JUMP JUMPDEST PUSH1 0x40 MLOAD DUP1 PUSH1 0x60 ADD PUSH1 0x40 MSTORE DUP1 PUSH1 0x60 DUP2 MSTORE PUSH1 0x20 ADD PUSH1 0x0 DUP2 MSTORE PUSH1 0x20 ADD PUSH1 0x0 ISZERO ISZERO DUP2 MSTORE POP SWAP1 JUMP JUMPDEST PUSH1 0x40 MLOAD DUP1 PUSH2 0x1A0 ADD PUSH1 0x40 MSTORE DUP1 PUSH1 0x0 DUP2 MSTORE PUSH1 0x20 ADD PUSH1 0x0 PUSH20 0xFFFFFFFFFFFFFFFFFFFFFFFFFFFFFFFFFFFFFFFF AND DUP2 MSTORE PUSH1 0x20 ADD PUSH1 0x0 PUSH20 0xFFFFFFFFFFFFFFFFFFFFFFFFFFFFFFFFFFFFFFFF AND DUP2 MSTORE PUSH1 0x20 ADD PUSH1 0x0 PUSH1 0x1 DUP2 GT ISZERO PUSH2 0x1FBD JUMPI INVALID JUMPDEST DUP2 MSTORE PUSH1 0x20 ADD PUSH1 0x0 PUSH1 0x2 DUP2 GT ISZERO PUSH2 0x1FCF JUMPI INVALID JUMPDEST DUP2 MSTORE PUSH1 0x20 ADD PUSH1 0x0 PUSH1 0x5 DUP2 GT ISZERO PUSH2 0x1FE1 JUMPI INVALID JUMPDEST DUP2 MSTORE PUSH1 0x20 ADD PUSH1 0x0 DUP2 MSTORE PUSH1 0x20 ADD PUSH1 0x0 DUP2 MSTORE PUSH1 0x20 ADD PUSH2 0x1FFC PUSH2 0x20D1 JUMP JUMPDEST DUP2 MSTORE PUSH1 0x20 ADD PUSH1 0x0 DUP2 MSTORE PUSH1 0x20 ADD PUSH1 0x0 DUP2 MSTORE PUSH1 0x20 ADD PUSH1 0x0 ISZERO ISZERO DUP2 MSTORE PUSH1 0x20 ADD PUSH1 0x0 PUSH1 0x5 DUP2 GT ISZERO PUSH2 0x2025 JUMPI INVALID JUMPDEST DUP2 MSTORE POP SWAP1 JUMP JUMPDEST PUSH1 0x40 MLOAD DUP1 PUSH1 0xA0 ADD PUSH1 0x40 MSTORE DUP1 PUSH1 0x0 PUSH20 0xFFFFFFFFFFFFFFFFFFFFFFFFFFFFFFFFFFFFFFFF AND DUP2 MSTORE PUSH1 0x20 ADD PUSH1 0x0 PUSH1 0x1 DUP2 GT ISZERO PUSH2 0x2060 JUMPI INVALID JUMPDEST DUP2 MSTORE PUSH1 0x20 ADD PUSH1 0x0 PUSH1 0x2 DUP2 GT ISZERO PUSH2 0x2072 JUMPI INVALID JUMPDEST DUP2 MSTORE PUSH1 0x20 ADD PUSH1 0x0 PUSH1 0x5 DUP2 GT ISZERO PUSH2 0x2084 JUMPI INVALID JUMPDEST DUP2 MSTORE PUSH1 0x20 ADD PUSH1 0x0 DUP2 MSTORE POP SWAP1 JUMP JUMPDEST DUP3 PUSH1 0x5 DUP2 ADD SWAP3 DUP3 ISZERO PUSH2 0x20C0 JUMPI SWAP2 PUSH1 0x20 MUL DUP3 ADD JUMPDEST DUP3 DUP2 GT ISZERO PUSH2 0x20BF JUMPI DUP3 MLOAD DUP3 SSTORE SWAP2 PUSH1 0x20 ADD SWAP2 SWAP1 PUSH1 0x1 ADD SWAP1 PUSH2 0x20A4 JUMP JUMPDEST JUMPDEST POP SWAP1 POP PUSH2 0x20CD SWAP2 SWAP1 PUSH2 0x21C0 JUMP JUMPDEST POP SWAP1 JUMP JUMPDEST PUSH1 0x40 MLOAD DUP1 PUSH1 0xA0 ADD PUSH1 0x40 MSTORE DUP1 PUSH1 0x0 DUP2 MSTORE PUSH1 0x20 ADD PUSH1 0x0 DUP2 MSTORE PUSH1 0x20 ADD PUSH2 0x20F2 PUSH2 0x2112 JUMP JUMPDEST DUP2 MSTORE PUSH1 0x20 ADD PUSH2 0x20FF PUSH2 0x2112 JUMP JUMPDEST DUP2 MSTORE PUSH1 0x20 ADD PUSH2 0x210C PUSH2 0x2112 JUMP JUMPDEST DUP2 MSTORE POP SWAP1 JUMP JUMPDEST PUSH1 0x40 MLOAD DUP1 PUSH1 0xA0 ADD PUSH1 0x40 MSTORE DUP1 PUSH1 0x5 SWAP1 PUSH1 0x20 DUP3 MUL DUP1 CALLDATASIZE DUP4 CALLDATACOPY DUP1 DUP3 ADD SWAP2 POP POP SWAP1 POP POP SWAP1 JUMP JUMPDEST PUSH1 0x40 MLOAD DUP1 PUSH1 0x60 ADD PUSH1 0x40 MSTORE DUP1 PUSH1 0x3 SWAP1 JUMPDEST PUSH2 0x214B PUSH2 0x2161 JUMP JUMPDEST DUP2 MSTORE PUSH1 0x20 ADD SWAP1 PUSH1 0x1 SWAP1 SUB SWAP1 DUP2 PUSH2 0x2143 JUMPI SWAP1 POP POP SWAP1 JUMP JUMPDEST PUSH1 0x40 MLOAD DUP1 PUSH1 0xE0 ADD PUSH1 0x40 MSTORE DUP1 PUSH1 0x0 DUP2 MSTORE PUSH1 0x20 ADD PUSH1 0x0 DUP2 MSTORE PUSH1 0x20 ADD PUSH1 0x0 DUP2 MSTORE PUSH1 0x20 ADD PUSH1 0x0 DUP2 MSTORE PUSH1 0x20 ADD PUSH1 0x0 DUP2 MSTORE PUSH1 0x20 ADD PUSH1 0x0 DUP2 MSTORE PUSH1 0x20 ADD PUSH1 0x0 DUP2 MSTORE POP SWAP1 JUMP JUMPDEST PUSH1 0x40 MLOAD DUP1 PUSH1 0xE0 ADD PUSH1 0x40 MSTORE DUP1 PUSH1 0x7 SWAP1 PUSH1 0x20 DUP3 MUL DUP1 CALLDATASIZE DUP4 CALLDATACOPY DUP1 DUP3 ADD SWAP2 POP POP SWAP1 POP POP SWAP1 JUMP JUMPDEST JUMPDEST DUP1 DUP3 GT ISZERO PUSH2 0x21D9 JUMPI PUSH1 0x0 DUP2 PUSH1 0x0 SWAP1 SSTORE POP PUSH1 0x1 ADD PUSH2 0x21C1 JUMP JUMPDEST POP SWAP1 JUMP JUMPDEST PUSH1 0x0 DUP2 CALLDATALOAD SWAP1 POP PUSH2 0x21EC DUP2 PUSH2 0x34E7 JUMP JUMPDEST SWAP3 SWAP2 POP POP JUMP JUMPDEST PUSH1 0x0 DUP3 PUSH1 0x1F DUP4 ADD SLT PUSH2 0x2203 JUMPI PUSH1 0x0 DUP1 REVERT JUMPDEST PUSH1 0x3 PUSH2 0x2216 PUSH2 0x2211 DUP3 PUSH2 0x320C JUMP JUMPDEST PUSH2 0x31DF JUMP JUMPDEST SWAP2 POP DUP2 DUP4 DUP6 PUSH1 0xE0 DUP5 MUL DUP3 ADD GT ISZERO PUSH2 0x222C JUMPI PUSH1 0x0 DUP1 REVERT JUMPDEST PUSH1 0x0 JUMPDEST DUP4 DUP2 LT ISZERO PUSH2 0x225C JUMPI DUP2 PUSH2 0x2242 DUP9 DUP3 PUSH2 0x22F9 JUMP JUMPDEST DUP5 MSTORE PUSH1 0x20 DUP5 ADD SWAP4 POP PUSH1 0xE0 DUP4 ADD SWAP3 POP POP PUSH1 0x1 DUP2 ADD SWAP1 POP PUSH2 0x222F JUMP JUMPDEST POP POP POP POP SWAP3 SWAP2 POP POP JUMP JUMPDEST PUSH1 0x0 DUP2 CALLDATALOAD SWAP1 POP PUSH2 0x2275 DUP2 PUSH2 0x34FE JUMP JUMPDEST SWAP3 SWAP2 POP POP JUMP JUMPDEST PUSH1 0x0 DUP2 CALLDATALOAD SWAP1 POP PUSH2 0x228A DUP2 PUSH2 0x350E JUMP JUMPDEST SWAP3 SWAP2 POP POP JUMP JUMPDEST PUSH1 0x0 DUP2 CALLDATALOAD SWAP1 POP PUSH2 0x229F DUP2 PUSH2 0x351E JUMP JUMPDEST SWAP3 SWAP2 POP POP JUMP JUMPDEST PUSH1 0x0 DUP3 PUSH1 0x1F DUP4 ADD SLT PUSH2 0x22B6 JUMPI PUSH1 0x0 DUP1 REVERT JUMPDEST DUP2 CALLDATALOAD PUSH2 0x22C9 PUSH2 0x22C4 DUP3 PUSH2 0x322E JUMP JUMPDEST PUSH2 0x31DF JUMP JUMPDEST SWAP2 POP DUP1 DUP3 MSTORE PUSH1 0x20 DUP4 ADD PUSH1 0x20 DUP4 ADD DUP6 DUP4 DUP4 ADD GT ISZERO PUSH2 0x22E5 JUMPI PUSH1 0x0 DUP1 REVERT JUMPDEST PUSH2 0x22F0 DUP4 DUP3 DUP5 PUSH2 0x3460 JUMP JUMPDEST POP POP POP SWAP3 SWAP2 POP POP JUMP JUMPDEST PUSH1 0x0 PUSH1 0xE0 DUP3 DUP5 SUB SLT ISZERO PUSH2 0x230B JUMPI PUSH1 0x0 DUP1 REVERT JUMPDEST PUSH2 0x2315 PUSH1 0xE0 PUSH2 0x31DF JUMP JUMPDEST SWAP1 POP PUSH1 0x0 PUSH2 0x2325 DUP5 DUP3 DUP6 ADD PUSH2 0x23BE JUMP JUMPDEST PUSH1 0x0 DUP4 ADD MSTORE POP PUSH1 0x20 PUSH2 0x2339 DUP5 DUP3 DUP6 ADD PUSH2 0x23BE JUMP JUMPDEST PUSH1 0x20 DUP4 ADD MSTORE POP PUSH1 0x40 PUSH2 0x234D DUP5 DUP3 DUP6 ADD PUSH2 0x23BE JUMP JUMPDEST PUSH1 0x40 DUP4 ADD MSTORE POP PUSH1 0x60 PUSH2 0x2361 DUP5 DUP3 DUP6 ADD PUSH2 0x23BE JUMP JUMPDEST PUSH1 0x60 DUP4 ADD MSTORE POP PUSH1 0x80 PUSH2 0x2375 DUP5 DUP3 DUP6 ADD PUSH2 0x23BE JUMP JUMPDEST PUSH1 0x80 DUP4 ADD MSTORE POP PUSH1 0xA0 PUSH2 0x2389 DUP5 DUP3 DUP6 ADD PUSH2 0x23BE JUMP JUMPDEST PUSH1 0xA0 DUP4 ADD MSTORE POP PUSH1 0xC0 PUSH2 0x239D DUP5 DUP3 DUP6 ADD PUSH2 0x23BE JUMP JUMPDEST PUSH1 0xC0 DUP4 ADD MSTORE POP SWAP3 SWAP2 POP POP JUMP JUMPDEST PUSH1 0x0 DUP2 CALLDATALOAD SWAP1 POP PUSH2 0x23B8 DUP2 PUSH2 0x352E JUMP JUMPDEST SWAP3 SWAP2 POP POP JUMP JUMPDEST PUSH1 0x0 DUP2 MLOAD SWAP1 POP PUSH2 0x23CD DUP2 PUSH2 0x352E JUMP JUMPDEST SWAP3 SWAP2 POP POP JUMP JUMPDEST PUSH1 0x0 PUSH1 0x20 DUP3 DUP5 SUB SLT ISZERO PUSH2 0x23E5 JUMPI PUSH1 0x0 DUP1 REVERT JUMPDEST PUSH1 0x0 PUSH2 0x23F3 DUP5 DUP3 DUP6 ADD PUSH2 0x21DD JUMP JUMPDEST SWAP2 POP POP SWAP3 SWAP2 POP POP JUMP JUMPDEST PUSH1 0x0 DUP1 PUSH1 0x0 DUP1 PUSH1 0x0 DUP1 PUSH1 0x0 PUSH1 0xE0 DUP9 DUP11 SUB SLT ISZERO PUSH2 0x2417 JUMPI PUSH1 0x0 DUP1 REVERT JUMPDEST PUSH1 0x0 PUSH2 0x2425 DUP11 DUP3 DUP12 ADD PUSH2 0x21DD JUMP JUMPDEST SWAP8 POP POP PUSH1 0x20 PUSH2 0x2436 DUP11 DUP3 DUP12 ADD PUSH2 0x21DD JUMP JUMPDEST SWAP7 POP POP PUSH1 0x40 PUSH2 0x2447 DUP11 DUP3 DUP12 ADD PUSH2 0x227B JUMP JUMPDEST SWAP6 POP POP PUSH1 0x60 PUSH2 0x2458 DUP11 DUP3 DUP12 ADD PUSH2 0x2266 JUMP JUMPDEST SWAP5 POP POP PUSH1 0x80 PUSH2 0x2469 DUP11 DUP3 DUP12 ADD PUSH2 0x23A9 JUMP JUMPDEST SWAP4 POP POP PUSH1 0xA0 PUSH2 0x247A DUP11 DUP3 DUP12 ADD PUSH2 0x23A9 JUMP JUMPDEST SWAP3 POP POP PUSH1 0xC0 PUSH2 0x248B DUP11 DUP3 DUP12 ADD PUSH2 0x23A9 JUMP JUMPDEST SWAP2 POP POP SWAP3 SWAP6 SWAP9 SWAP2 SWAP5 SWAP8 POP SWAP3 SWAP6 POP JUMP JUMPDEST PUSH1 0x0 DUP1 PUSH1 0x0 DUP1 PUSH1 0x80 DUP6 DUP8 SUB SLT ISZERO PUSH2 0x24B0 JUMPI PUSH1 0x0 DUP1 REVERT JUMPDEST PUSH1 0x0 PUSH2 0x24BE DUP8 DUP3 DUP9 ADD PUSH2 0x21DD JUMP JUMPDEST SWAP5 POP POP PUSH1 0x20 PUSH2 0x24CF DUP8 DUP3 DUP9 ADD PUSH2 0x21DD JUMP JUMPDEST SWAP4 POP POP PUSH1 0x40 PUSH2 0x24E0 DUP8 DUP3 DUP9 ADD PUSH2 0x23A9 JUMP JUMPDEST SWAP3 POP POP PUSH1 0x60 PUSH2 0x24F1 DUP8 DUP3 DUP9 ADD PUSH2 0x23A9 JUMP JUMPDEST SWAP2 POP POP SWAP3 SWAP6 SWAP2 SWAP5 POP SWAP3 POP JUMP JUMPDEST PUSH1 0x0 DUP1 PUSH1 0x0 DUP1 PUSH1 0x0 PUSH1 0xA0 DUP7 DUP9 SUB SLT ISZERO PUSH2 0x2515 JUMPI PUSH1 0x0 DUP1 REVERT JUMPDEST PUSH1 0x0 PUSH2 0x2523 DUP9 DUP3 DUP10 ADD PUSH2 0x21DD JUMP JUMPDEST SWAP6 POP POP PUSH1 0x20 PUSH2 0x2534 DUP9 DUP3 DUP10 ADD PUSH2 0x227B JUMP JUMPDEST SWAP5 POP POP PUSH1 0x40 PUSH2 0x2545 DUP9 DUP3 DUP10 ADD PUSH2 0x2266 JUMP JUMPDEST SWAP4 POP POP PUSH1 0x60 PUSH2 0x2556 DUP9 DUP3 DUP10 ADD PUSH2 0x2290 JUMP JUMPDEST SWAP3 POP POP PUSH1 0x80 PUSH2 0x2567 DUP9 DUP3 DUP10 ADD PUSH2 0x23A9 JUMP JUMPDEST SWAP2 POP POP SWAP3 SWAP6 POP SWAP3 SWAP6 SWAP1 SWAP4 POP JUMP JUMPDEST PUSH1 0x0 PUSH2 0x2A0 DUP3 DUP5 SUB SLT ISZERO PUSH2 0x2587 JUMPI PUSH1 0x0 DUP1 REVERT JUMPDEST PUSH1 0x0 PUSH2 0x2595 DUP5 DUP3 DUP6 ADD PUSH2 0x21F2 JUMP JUMPDEST SWAP2 POP POP SWAP3 SWAP2 POP POP JUMP JUMPDEST PUSH1 0x0 DUP1 PUSH1 0x0 DUP1 PUSH1 0x80 DUP6 DUP8 SUB SLT ISZERO PUSH2 0x25B4 JUMPI PUSH1 0x0 DUP1 REVERT JUMPDEST PUSH1 0x0 PUSH2 0x25C2 DUP8 DUP3 DUP9 ADD PUSH2 0x2266 JUMP JUMPDEST SWAP5 POP POP PUSH1 0x20 PUSH2 0x25D3 DUP8 DUP3 DUP9 ADD PUSH2 0x21DD JUMP JUMPDEST SWAP4 POP POP PUSH1 0x40 PUSH2 0x25E4 DUP8 DUP3 DUP9 ADD PUSH2 0x23A9 JUMP JUMPDEST SWAP3 POP POP PUSH1 0x60 DUP6 ADD CALLDATALOAD PUSH8 0xFFFFFFFFFFFFFFFF DUP2 GT ISZERO PUSH2 0x2601 JUMPI PUSH1 0x0 DUP1 REVERT JUMPDEST PUSH2 0x260D DUP8 DUP3 DUP9 ADD PUSH2 0x22A5 JUMP JUMPDEST SWAP2 POP POP SWAP3 SWAP6 SWAP2 SWAP5 POP SWAP3 POP JUMP JUMPDEST PUSH1 0x0 DUP1 PUSH1 0x0 PUSH1 0x60 DUP5 DUP7 SUB SLT ISZERO PUSH2 0x262E JUMPI PUSH1 0x0 DUP1 REVERT JUMPDEST PUSH1 0x0 PUSH2 0x263C DUP7 DUP3 DUP8 ADD PUSH2 0x2290 JUMP JUMPDEST SWAP4 POP POP PUSH1 0x20 PUSH2 0x264D DUP7 DUP3 DUP8 ADD PUSH2 0x23A9 JUMP JUMPDEST SWAP3 POP POP PUSH1 0x40 PUSH2 0x265E DUP7 DUP3 DUP8 ADD PUSH2 0x23A9 JUMP JUMPDEST SWAP2 POP POP SWAP3 POP SWAP3 POP SWAP3 JUMP JUMPDEST PUSH1 0x0 PUSH1 0x20 DUP3 DUP5 SUB SLT ISZERO PUSH2 0x267A JUMPI PUSH1 0x0 DUP1 REVERT JUMPDEST PUSH1 0x0 PUSH2 0x2688 DUP5 DUP3 DUP6 ADD PUSH2 0x23A9 JUMP JUMPDEST SWAP2 POP POP SWAP3 SWAP2 POP POP JUMP JUMPDEST PUSH1 0x0 PUSH1 0x20 DUP3 DUP5 SUB SLT ISZERO PUSH2 0x26A3 JUMPI PUSH1 0x0 DUP1 REVERT JUMPDEST PUSH1 0x0 PUSH2 0x26B1 DUP5 DUP3 DUP6 ADD PUSH2 0x23BE JUMP JUMPDEST SWAP2 POP POP SWAP3 SWAP2 POP POP JUMP JUMPDEST PUSH1 0x0 PUSH2 0x26C6 DUP4 DUP4 PUSH2 0x2726 JUMP JUMPDEST PUSH1 0x20 DUP4 ADD SWAP1 POP SWAP3 SWAP2 POP POP JUMP JUMPDEST PUSH1 0x0 PUSH2 0x26DE DUP4 DUP4 PUSH2 0x2AFD JUMP JUMPDEST SWAP1 POP SWAP3 SWAP2 POP POP JUMP JUMPDEST PUSH1 0x0 PUSH2 0x26F2 DUP4 DUP4 PUSH2 0x2B9D JUMP JUMPDEST PUSH2 0x3A0 DUP4 ADD SWAP1 POP SWAP3 SWAP2 POP POP JUMP JUMPDEST PUSH1 0x0 PUSH2 0x270B DUP4 DUP4 PUSH2 0x2E87 JUMP JUMPDEST PUSH1 0x20 DUP4 ADD SWAP1 POP SWAP3 SWAP2 POP POP JUMP JUMPDEST PUSH2 0x2720 DUP2 PUSH2 0x33E2 JUMP JUMPDEST DUP3 MSTORE POP POP JUMP JUMPDEST PUSH2 0x272F DUP2 PUSH2 0x334E JUMP JUMPDEST DUP3 MSTORE POP POP JUMP JUMPDEST PUSH2 0x273E DUP2 PUSH2 0x334E JUMP JUMPDEST DUP3 MSTORE POP POP JUMP JUMPDEST PUSH1 0x0 PUSH2 0x274F DUP3 PUSH2 0x3294 JUMP JUMPDEST PUSH2 0x2759 DUP2 DUP6 PUSH2 0x32FF JUMP JUMPDEST SWAP4 POP PUSH2 0x2764 DUP4 PUSH2 0x325A JUMP JUMPDEST DUP1 PUSH1 0x0 JUMPDEST DUP4 DUP2 LT ISZERO PUSH2 0x2795 JUMPI DUP2 MLOAD PUSH2 0x277C DUP9 DUP3 PUSH2 0x26BA JUMP JUMPDEST SWAP8 POP PUSH2 0x2787 DUP4 PUSH2 0x32CB JUMP JUMPDEST SWAP3 POP POP PUSH1 0x1 DUP2 ADD SWAP1 POP PUSH2 0x2768 JUMP JUMPDEST POP DUP6 SWAP4 POP POP POP POP SWAP3 SWAP2 POP POP JUMP JUMPDEST PUSH1 0x0 PUSH2 0x27AD DUP3 PUSH2 0x329F JUMP JUMPDEST PUSH2 0x27B7 DUP2 DUP6 PUSH2 0x3310 JUMP JUMPDEST SWAP4 POP DUP4 PUSH1 0x20 DUP3 MUL DUP6 ADD PUSH2 0x27C9 DUP6 PUSH2 0x326A JUMP JUMPDEST DUP1 PUSH1 0x0 JUMPDEST DUP6 DUP2 LT ISZERO PUSH2 0x2805 JUMPI DUP5 DUP5 SUB DUP10 MSTORE DUP2 MLOAD PUSH2 0x27E6 DUP6 DUP3 PUSH2 0x26D2 JUMP JUMPDEST SWAP5 POP PUSH2 0x27F1 DUP4 PUSH2 0x32D8 JUMP JUMPDEST SWAP3 POP PUSH1 0x20 DUP11 ADD SWAP10 POP POP PUSH1 0x1 DUP2 ADD SWAP1 POP PUSH2 0x27CD JUMP JUMPDEST POP DUP3 SWAP8 POP DUP8 SWAP6 POP POP POP POP POP POP SWAP3 SWAP2 POP POP JUMP JUMPDEST PUSH1 0x0 PUSH2 0x2822 DUP3 PUSH2 0x32AA JUMP JUMPDEST PUSH2 0x282C DUP2 DUP6 PUSH2 0x3321 JUMP JUMPDEST SWAP4 POP PUSH2 0x2837 DUP4 PUSH2 0x327A JUMP JUMPDEST DUP1 PUSH1 0x0 JUMPDEST DUP4 DUP2 LT ISZERO PUSH2 0x2868 JUMPI DUP2 MLOAD PUSH2 0x284F DUP9 DUP3 PUSH2 0x26E6 JUMP JUMPDEST SWAP8 POP PUSH2 0x285A DUP4 PUSH2 0x32E5 JUMP JUMPDEST SWAP3 POP POP PUSH1 0x1 DUP2 ADD SWAP1 POP PUSH2 0x283B JUMP JUMPDEST POP DUP6 SWAP4 POP POP POP POP SWAP3 SWAP2 POP POP JUMP JUMPDEST PUSH2 0x287E DUP2 PUSH2 0x32B5 JUMP JUMPDEST PUSH2 0x2888 DUP2 DUP5 PUSH2 0x3332 JUMP JUMPDEST SWAP3 POP PUSH2 0x2893 DUP3 PUSH2 0x328A JUMP JUMPDEST DUP1 PUSH1 0x0 JUMPDEST DUP4 DUP2 LT ISZERO PUSH2 0x28C4 JUMPI DUP2 MLOAD PUSH2 0x28AB DUP8 DUP3 PUSH2 0x26FF JUMP JUMPDEST SWAP7 POP PUSH2 0x28B6 DUP4 PUSH2 0x32F2 JUMP JUMPDEST SWAP3 POP POP PUSH1 0x1 DUP2 ADD SWAP1 POP PUSH2 0x2897 JUMP JUMPDEST POP POP POP POP POP POP JUMP JUMPDEST PUSH2 0x28D5 DUP2 PUSH2 0x3360 JUMP JUMPDEST DUP3 MSTORE POP POP JUMP JUMPDEST PUSH2 0x28E4 DUP2 PUSH2 0x33F4 JUMP JUMPDEST DUP3 MSTORE POP POP JUMP JUMPDEST PUSH2 0x28F3 DUP2 PUSH2 0x33F4 JUMP JUMPDEST DUP3 MSTORE POP POP JUMP JUMPDEST PUSH2 0x2902 DUP2 PUSH2 0x3406 JUMP JUMPDEST DUP3 MSTORE POP POP JUMP JUMPDEST PUSH2 0x2911 DUP2 PUSH2 0x3406 JUMP JUMPDEST DUP3 MSTORE POP POP JUMP JUMPDEST PUSH2 0x2920 DUP2 PUSH2 0x3418 JUMP JUMPDEST DUP3 MSTORE POP POP JUMP JUMPDEST PUSH2 0x292F DUP2 PUSH2 0x342A JUMP JUMPDEST DUP3 MSTORE POP POP JUMP JUMPDEST PUSH2 0x293E DUP2 PUSH2 0x342A JUMP JUMPDEST DUP3 MSTORE POP POP JUMP JUMPDEST PUSH1 0x0 PUSH2 0x294F DUP3 PUSH2 0x32C0 JUMP JUMPDEST PUSH2 0x2959 DUP2 DUP6 PUSH2 0x333D JUMP JUMPDEST SWAP4 POP PUSH2 0x2969 DUP2 DUP6 PUSH1 0x20 DUP7 ADD PUSH2 0x346F JUMP JUMPDEST PUSH2 0x2972 DUP2 PUSH2 0x34A2 JUMP JUMPDEST DUP5 ADD SWAP2 POP POP SWAP3 SWAP2 POP POP JUMP JUMPDEST PUSH1 0x0 PUSH2 0x298A PUSH1 0x1F DUP4 PUSH2 0x333D JUMP JUMPDEST SWAP2 POP PUSH32 0x53616D6520706572736F6E206465616C206973206E6F7420616C6C6F77656400 PUSH1 0x0 DUP4 ADD MSTORE PUSH1 0x20 DUP3 ADD SWAP1 POP SWAP2 SWAP1 POP JUMP JUMPDEST PUSH1 0x0 PUSH2 0x29CA PUSH1 0x12 DUP4 PUSH2 0x333D JUMP JUMPDEST SWAP2 POP PUSH32 0x6E6F206C6F616E206974656D20666F756E640000000000000000000000000000 PUSH1 0x0 DUP4 ADD MSTORE PUSH1 0x20 DUP3 ADD SWAP1 POP SWAP2 SWAP1 POP JUMP JUMPDEST PUSH1 0x0 PUSH2 0x2A0A PUSH1 0x18 DUP4 PUSH2 0x333D JUMP JUMPDEST SWAP2 POP PUSH32 0x636F6E6669726D20616D6F756E74206E6F74206D617463680000000000000000 PUSH1 0x0 DUP4 ADD MSTORE PUSH1 0x20 DUP3 ADD SWAP1 POP SWAP2 SWAP1 POP JUMP JUMPDEST PUSH1 0x0 PUSH2 0x2A4A PUSH1 0x1A DUP4 PUSH2 0x333D JUMP JUMPDEST SWAP2 POP PUSH32 0x6D73672E73656E646572206973206E6F7420626F72726F776572000000000000 PUSH1 0x0 DUP4 ADD MSTORE PUSH1 0x20 DUP3 ADD SWAP1 POP SWAP2 SWAP1 POP JUMP JUMPDEST PUSH1 0x0 PUSH2 0x2A8A PUSH1 0x18 DUP4 PUSH2 0x333D JUMP JUMPDEST SWAP2 POP PUSH32 0x6D73672E73656E646572206973206E6F74206C656E6465720000000000000000 PUSH1 0x0 DUP4 ADD MSTORE PUSH1 0x20 DUP3 ADD SWAP1 POP SWAP2 SWAP1 POP JUMP JUMPDEST PUSH1 0x0 PUSH2 0x2ACA PUSH1 0x15 DUP4 PUSH2 0x333D JUMP JUMPDEST SWAP2 POP PUSH32 0x626F72726F776572206D75737420636F6E6669726D0000000000000000000000 PUSH1 0x0 DUP4 ADD MSTORE PUSH1 0x20 DUP3 ADD SWAP1 POP SWAP2 SWAP1 POP JUMP JUMPDEST PUSH1 0x0 PUSH1 0x60 DUP4 ADD PUSH1 0x0 DUP4 ADD MLOAD DUP5 DUP3 SUB PUSH1 0x0 DUP7 ADD MSTORE PUSH2 0x2B1A DUP3 DUP3 PUSH2 0x2817 JUMP JUMPDEST SWAP2 POP POP PUSH1 0x20 DUP4 ADD MLOAD PUSH2 0x2B2F PUSH1 0x20 DUP7 ADD DUP3 PUSH2 0x2E87 JUMP JUMPDEST POP PUSH1 0x40 DUP4 ADD MLOAD PUSH2 0x2B42 PUSH1 0x40 DUP7 ADD DUP3 PUSH2 0x28CC JUMP JUMPDEST POP DUP1 SWAP2 POP POP SWAP3 SWAP2 POP POP JUMP JUMPDEST PUSH1 0x0 PUSH1 0x60 DUP4 ADD PUSH1 0x0 DUP4 ADD MLOAD DUP5 DUP3 SUB PUSH1 0x0 DUP7 ADD MSTORE PUSH2 0x2B6A DUP3 DUP3 PUSH2 0x2817 JUMP JUMPDEST SWAP2 POP POP PUSH1 0x20 DUP4 ADD MLOAD PUSH2 0x2B7F PUSH1 0x20 DUP7 ADD DUP3 PUSH2 0x2E87 JUMP JUMPDEST POP PUSH1 0x40 DUP4 ADD MLOAD PUSH2 0x2B92 PUSH1 0x40 DUP7 ADD DUP3 PUSH2 0x28CC JUMP JUMPDEST POP DUP1 SWAP2 POP POP SWAP3 SWAP2 POP POP JUMP JUMPDEST PUSH2 0x3A0 DUP3 ADD PUSH1 0x0 DUP3 ADD MLOAD PUSH2 0x2BB4 PUSH1 0x0 DUP6 ADD DUP3 PUSH2 0x2E87 JUMP JUMPDEST POP PUSH1 0x20 DUP3 ADD MLOAD PUSH2 0x2BC7 PUSH1 0x20 DUP6 ADD DUP3 PUSH2 0x2726 JUMP JUMPDEST POP PUSH1 0x40 DUP3 ADD MLOAD PUSH2 0x2BDA PUSH1 0x40 DUP6 ADD DUP3 PUSH2 0x2726 JUMP JUMPDEST POP PUSH1 0x60 DUP3 ADD MLOAD PUSH2 0x2BED PUSH1 0x60 DUP6 ADD DUP3 PUSH2 0x28F9 JUMP JUMPDEST POP PUSH1 0x80 DUP3 ADD MLOAD PUSH2 0x2C00 PUSH1 0x80 DUP6 ADD DUP3 PUSH2 0x28DB JUMP JUMPDEST POP PUSH1 0xA0 DUP3 ADD MLOAD PUSH2 0x2C13 PUSH1 0xA0 DUP6 ADD DUP3 PUSH2 0x2926 JUMP JUMPDEST POP PUSH1 0xC0 DUP3 ADD MLOAD PUSH2 0x2C26 PUSH1 0xC0 DUP6 ADD DUP3 PUSH2 0x2E87 JUMP JUMPDEST POP PUSH1 0xE0 DUP3 ADD MLOAD PUSH2 0x2C39 PUSH1 0xE0 DUP6 ADD DUP3 PUSH2 0x2E87 JUMP JUMPDEST POP PUSH2 0x100 DUP3 ADD MLOAD PUSH2 0x2C4E PUSH2 0x100 DUP6 ADD DUP3 PUSH2 0x2DB3 JUMP JUMPDEST POP PUSH2 0x120 DUP3 ADD MLOAD PUSH2 0x2C63 PUSH2 0x320 DUP6 ADD DUP3 PUSH2 0x2E87 JUMP JUMPDEST POP PUSH2 0x140 DUP3 ADD MLOAD PUSH2 0x2C78 PUSH2 0x340 DUP6 ADD DUP3 PUSH2 0x2E87 JUMP JUMPDEST POP PUSH2 0x160 DUP3 ADD MLOAD PUSH2 0x2C8D PUSH2 0x360 DUP6 ADD DUP3 PUSH2 0x28CC JUMP JUMPDEST POP PUSH2 0x180 DUP3 ADD MLOAD PUSH2 0x2CA2 PUSH2 0x380 DUP6 ADD DUP3 PUSH2 0x2917 JUMP JUMPDEST POP POP POP POP JUMP JUMPDEST PUSH2 0x3A0 DUP3 ADD PUSH1 0x0 DUP3 ADD MLOAD PUSH2 0x2CBF PUSH1 0x0 DUP6 ADD DUP3 PUSH2 0x2E87 JUMP JUMPDEST POP PUSH1 0x20 DUP3 ADD MLOAD PUSH2 0x2CD2 PUSH1 0x20 DUP6 ADD DUP3 PUSH2 0x2726 JUMP JUMPDEST POP PUSH1 0x40 DUP3 ADD MLOAD PUSH2 0x2CE5 PUSH1 0x40 DUP6 ADD DUP3 PUSH2 0x2726 JUMP JUMPDEST POP PUSH1 0x60 DUP3 ADD MLOAD PUSH2 0x2CF8 PUSH1 0x60 DUP6 ADD DUP3 PUSH2 0x28F9 JUMP JUMPDEST POP PUSH1 0x80 DUP3 ADD MLOAD PUSH2 0x2D0B PUSH1 0x80 DUP6 ADD DUP3 PUSH2 0x28DB JUMP JUMPDEST POP PUSH1 0xA0 DUP3 ADD MLOAD PUSH2 0x2D1E PUSH1 0xA0 DUP6 ADD DUP3 PUSH2 0x2926 JUMP JUMPDEST POP PUSH1 0xC0 DUP3 ADD MLOAD PUSH2 0x2D31 PUSH1 0xC0 DUP6 ADD DUP3 PUSH2 0x2E87 JUMP JUMPDEST POP PUSH1 0xE0 DUP3 ADD MLOAD PUSH2 0x2D44 PUSH1 0xE0 DUP6 ADD DUP3 PUSH2 0x2E87 JUMP JUMPDEST POP PUSH2 0x100 DUP3 ADD MLOAD PUSH2 0x2D59 PUSH2 0x100 DUP6 ADD DUP3 PUSH2 0x2DB3 JUMP JUMPDEST POP PUSH2 0x120 DUP3 ADD MLOAD PUSH2 0x2D6E PUSH2 0x320 DUP6 ADD DUP3 PUSH2 0x2E87 JUMP JUMPDEST POP PUSH2 0x140 DUP3 ADD MLOAD PUSH2 0x2D83 PUSH2 0x340 DUP6 ADD DUP3 PUSH2 0x2E87 JUMP JUMPDEST POP PUSH2 0x160 DUP3 ADD MLOAD PUSH2 0x2D98 PUSH2 0x360 DUP6 ADD DUP3 PUSH2 0x28CC JUMP JUMPDEST POP PUSH2 0x180 DUP3 ADD MLOAD PUSH2 0x2DAD PUSH2 0x380 DUP6 ADD DUP3 PUSH2 0x2917 JUMP JUMPDEST POP POP POP POP JUMP JUMPDEST PUSH2 0x220 DUP3 ADD PUSH1 0x0 DUP3 ADD MLOAD PUSH2 0x2DCA PUSH1 0x0 DUP6 ADD DUP3 PUSH2 0x2E87 JUMP JUMPDEST POP PUSH1 0x20 DUP3 ADD MLOAD PUSH2 0x2DDD PUSH1 0x20 DUP6 ADD DUP3 PUSH2 0x2E87 JUMP JUMPDEST POP PUSH1 0x40 DUP3 ADD MLOAD PUSH2 0x2DF0 PUSH1 0x40 DUP6 ADD DUP3 PUSH2 0x2875 JUMP JUMPDEST POP PUSH1 0x60 DUP3 ADD MLOAD PUSH2 0x2E03 PUSH1 0xE0 DUP6 ADD DUP3 PUSH2 0x2875 JUMP JUMPDEST POP PUSH1 0x80 DUP3 ADD MLOAD PUSH2 0x2E17 PUSH2 0x180 DUP6 ADD DUP3 PUSH2 0x2875 JUMP JUMPDEST POP POP POP POP JUMP JUMPDEST PUSH2 0x220 DUP3 ADD PUSH1 0x0 DUP3 ADD MLOAD PUSH2 0x2E34 PUSH1 0x0 DUP6 ADD DUP3 PUSH2 0x2E87 JUMP JUMPDEST POP PUSH1 0x20 DUP3 ADD MLOAD PUSH2 0x2E47 PUSH1 0x20 DUP6 ADD DUP3 PUSH2 0x2E87 JUMP JUMPDEST POP PUSH1 0x40 DUP3 ADD MLOAD PUSH2 0x2E5A PUSH1 0x40 DUP6 ADD DUP3 PUSH2 0x2875 JUMP JUMPDEST POP PUSH1 0x60 DUP3 ADD MLOAD PUSH2 0x2E6D PUSH1 0xE0 DUP6 ADD DUP3 PUSH2 0x2875 JUMP JUMPDEST POP PUSH1 0x80 DUP3 ADD MLOAD PUSH2 0x2E81 PUSH2 0x180 DUP6 ADD DUP3 PUSH2 0x2875 JUMP JUMPDEST POP POP POP POP JUMP JUMPDEST PUSH2 0x2E90 DUP2 PUSH2 0x33D8 JUMP JUMPDEST DUP3 MSTORE POP POP JUMP JUMPDEST PUSH2 0x2E9F DUP2 PUSH2 0x33D8 JUMP JUMPDEST DUP3 MSTORE POP POP JUMP JUMPDEST PUSH1 0x0 PUSH1 0x20 DUP3 ADD SWAP1 POP PUSH2 0x2EBA PUSH1 0x0 DUP4 ADD DUP5 PUSH2 0x2735 JUMP JUMPDEST SWAP3 SWAP2 POP POP JUMP JUMPDEST PUSH1 0x0 PUSH1 0xA0 DUP3 ADD SWAP1 POP PUSH2 0x2ED5 PUSH1 0x0 DUP4 ADD DUP9 PUSH2 0x2735 JUMP JUMPDEST PUSH2 0x2EE2 PUSH1 0x20 DUP4 ADD DUP8 PUSH2 0x2908 JUMP JUMPDEST PUSH2 0x2EEF PUSH1 0x40 DUP4 ADD DUP7 PUSH2 0x28EA JUMP JUMPDEST PUSH2 0x2EFC PUSH1 0x60 DUP4 ADD DUP6 PUSH2 0x2935 JUMP JUMPDEST PUSH2 0x2F09 PUSH1 0x80 DUP4 ADD DUP5 PUSH2 0x2E96 JUMP JUMPDEST SWAP7 SWAP6 POP POP POP POP POP POP JUMP JUMPDEST PUSH1 0x0 PUSH1 0xC0 DUP3 ADD SWAP1 POP PUSH2 0x2F28 PUSH1 0x0 DUP4 ADD DUP10 PUSH2 0x2735 JUMP JUMPDEST PUSH2 0x2F35 PUSH1 0x20 DUP4 ADD DUP9 PUSH2 0x2908 JUMP JUMPDEST PUSH2 0x2F42 PUSH1 0x40 DUP4 ADD DUP8 PUSH2 0x28EA JUMP JUMPDEST PUSH2 0x2F4F PUSH1 0x60 DUP4 ADD DUP7 PUSH2 0x2935 JUMP JUMPDEST PUSH2 0x2F5C PUSH1 0x80 DUP4 ADD DUP6 PUSH2 0x2E96 JUMP JUMPDEST PUSH2 0x2F69 PUSH1 0xA0 DUP4 ADD DUP5 PUSH2 0x2E96 JUMP JUMPDEST SWAP8 SWAP7 POP POP POP POP POP POP POP JUMP JUMPDEST PUSH1 0x0 PUSH1 0x20 DUP3 ADD SWAP1 POP DUP2 DUP2 SUB PUSH1 0x0 DUP4 ADD MSTORE PUSH2 0x2F8E DUP2 DUP5 PUSH2 0x2744 JUMP JUMPDEST SWAP1 POP SWAP3 SWAP2 POP POP JUMP JUMPDEST PUSH1 0x0 PUSH1 0x20 DUP3 ADD SWAP1 POP DUP2 DUP2 SUB PUSH1 0x0 DUP4 ADD MSTORE PUSH2 0x2FB0 DUP2 DUP5 PUSH2 0x27A2 JUMP JUMPDEST SWAP1 POP SWAP3 SWAP2 POP POP JUMP JUMPDEST PUSH1 0x0 PUSH1 0x80 DUP3 ADD SWAP1 POP PUSH2 0x2FCD PUSH1 0x0 DUP4 ADD DUP8 PUSH2 0x28EA JUMP JUMPDEST PUSH2 0x2FDA PUSH1 0x20 DUP4 ADD DUP7 PUSH2 0x2717 JUMP JUMPDEST PUSH2 0x2FE7 PUSH1 0x40 DUP4 ADD DUP6 PUSH2 0x2735 JUMP JUMPDEST DUP2 DUP2 SUB PUSH1 0x60 DUP4 ADD MSTORE PUSH2 0x2FF9 DUP2 DUP5 PUSH2 0x2944 JUMP JUMPDEST SWAP1 POP SWAP6 SWAP5 POP POP POP POP POP JUMP JUMPDEST PUSH1 0x0 PUSH1 0x60 DUP3 ADD SWAP1 POP PUSH2 0x3019 PUSH1 0x0 DUP4 ADD DUP7 PUSH2 0x28EA JUMP JUMPDEST PUSH2 0x3026 PUSH1 0x20 DUP4 ADD DUP6 PUSH2 0x2E96 JUMP JUMPDEST PUSH2 0x3033 PUSH1 0x40 DUP4 ADD DUP5 PUSH2 0x2735 JUMP JUMPDEST SWAP5 SWAP4 POP POP POP POP JUMP JUMPDEST PUSH1 0x0 PUSH1 0x60 DUP3 ADD SWAP1 POP PUSH2 0x3050 PUSH1 0x0 DUP4 ADD DUP7 PUSH2 0x28EA JUMP JUMPDEST PUSH2 0x305D PUSH1 0x20 DUP4 ADD DUP6 PUSH2 0x2E96 JUMP JUMPDEST PUSH2 0x306A PUSH1 0x40 DUP4 ADD DUP5 PUSH2 0x2717 JUMP JUMPDEST SWAP5 SWAP4 POP POP POP POP JUMP JUMPDEST PUSH1 0x0 PUSH1 0xA0 DUP3 ADD SWAP1 POP PUSH2 0x3087 PUSH1 0x0 DUP4 ADD DUP9 PUSH2 0x2908 JUMP JUMPDEST PUSH2 0x3094 PUSH1 0x20 DUP4 ADD DUP8 PUSH2 0x28EA JUMP JUMPDEST PUSH2 0x30A1 PUSH1 0x40 DUP4 ADD DUP7 PUSH2 0x2E96 JUMP JUMPDEST PUSH2 0x30AE PUSH1 0x60 DUP4 ADD DUP6 PUSH2 0x2E96 JUMP JUMPDEST PUSH2 0x30BB PUSH1 0x80 DUP4 ADD DUP5 PUSH2 0x2E96 JUMP JUMPDEST SWAP7 SWAP6 POP POP POP POP POP POP JUMP JUMPDEST PUSH1 0x0 PUSH1 0x20 DUP3 ADD SWAP1 POP DUP2 DUP2 SUB PUSH1 0x0 DUP4 ADD MSTORE PUSH2 0x30DE DUP2 PUSH2 0x297D JUMP JUMPDEST SWAP1 POP SWAP2 SWAP1 POP JUMP JUMPDEST PUSH1 0x0 PUSH1 0x20 DUP3 ADD SWAP1 POP DUP2 DUP2 SUB PUSH1 0x0 DUP4 ADD MSTORE PUSH2 0x30FE DUP2 PUSH2 0x29BD JUMP JUMPDEST SWAP1 POP SWAP2 SWAP1 POP JUMP JUMPDEST PUSH1 0x0 PUSH1 0x20 DUP3 ADD SWAP1 POP DUP2 DUP2 SUB PUSH1 0x0 DUP4 ADD MSTORE PUSH2 0x311E DUP2 PUSH2 0x29FD JUMP JUMPDEST SWAP1 POP SWAP2 SWAP1 POP JUMP JUMPDEST PUSH1 0x0 PUSH1 0x20 DUP3 ADD SWAP1 POP DUP2 DUP2 SUB PUSH1 0x0 DUP4 ADD MSTORE PUSH2 0x313E DUP2 PUSH2 0x2A3D JUMP JUMPDEST SWAP1 POP SWAP2 SWAP1 POP JUMP JUMPDEST PUSH1 0x0 PUSH1 0x20 DUP3 ADD SWAP1 POP DUP2 DUP2 SUB PUSH1 0x0 DUP4 ADD MSTORE PUSH2 0x315E DUP2 PUSH2 0x2A7D JUMP JUMPDEST SWAP1 POP SWAP2 SWAP1 POP JUMP JUMPDEST PUSH1 0x0 PUSH1 0x20 DUP3 ADD SWAP1 POP DUP2 DUP2 SUB PUSH1 0x0 DUP4 ADD MSTORE PUSH2 0x317E DUP2 PUSH2 0x2ABD JUMP JUMPDEST SWAP1 POP SWAP2 SWAP1 POP JUMP JUMPDEST PUSH1 0x0 PUSH1 0x20 DUP3 ADD SWAP1 POP DUP2 DUP2 SUB PUSH1 0x0 DUP4 ADD MSTORE PUSH2 0x319F DUP2 DUP5 PUSH2 0x2B4D JUMP JUMPDEST SWAP1 POP SWAP3 SWAP2 POP POP JUMP JUMPDEST PUSH1 0x0 PUSH2 0x3A0 DUP3 ADD SWAP1 POP PUSH2 0x31BD PUSH1 0x0 DUP4 ADD DUP5 PUSH2 0x2CA8 JUMP JUMPDEST SWAP3 SWAP2 POP POP JUMP JUMPDEST PUSH1 0x0 PUSH2 0x220 DUP3 ADD SWAP1 POP PUSH2 0x31D9 PUSH1 0x0 DUP4 ADD DUP5 PUSH2 0x2E1D JUMP JUMPDEST SWAP3 SWAP2 POP POP JUMP JUMPDEST PUSH1 0x0 PUSH1 0x40 MLOAD SWAP1 POP DUP2 DUP2 ADD DUP2 DUP2 LT PUSH8 0xFFFFFFFFFFFFFFFF DUP3 GT OR ISZERO PUSH2 0x3202 JUMPI PUSH1 0x0 DUP1 REVERT JUMPDEST DUP1 PUSH1 0x40 MSTORE POP SWAP2 SWAP1 POP JUMP JUMPDEST PUSH1 0x0 PUSH8 0xFFFFFFFFFFFFFFFF DUP3 GT ISZERO PUSH2 0x3223 JUMPI PUSH1 0x0 DUP1 REVERT JUMPDEST PUSH1 0x20 DUP3 MUL SWAP1 POP SWAP2 SWAP1 POP JUMP JUMPDEST PUSH1 0x0 PUSH8 0xFFFFFFFFFFFFFFFF DUP3 GT ISZERO PUSH2 0x3245 JUMPI PUSH1 0x0 DUP1 REVERT JUMPDEST PUSH1 0x1F NOT PUSH1 0x1F DUP4 ADD AND SWAP1 POP PUSH1 0x20 DUP2 ADD SWAP1 POP SWAP2 SWAP1 POP JUMP JUMPDEST PUSH1 0x0 DUP2 SWAP1 POP PUSH1 0x20 DUP3 ADD SWAP1 POP SWAP2 SWAP1 POP JUMP JUMPDEST PUSH1 0x0 DUP2 SWAP1 POP PUSH1 0x20 DUP3 ADD SWAP1 POP SWAP2 SWAP1 POP JUMP JUMPDEST PUSH1 0x0 DUP2 SWAP1 POP PUSH1 0x20 DUP3 ADD SWAP1 POP SWAP2 SWAP1 POP JUMP JUMPDEST PUSH1 0x0 DUP2 SWAP1 POP SWAP2 SWAP1 POP JUMP JUMPDEST PUSH1 0x0 DUP2 MLOAD SWAP1 POP SWAP2 SWAP1 POP JUMP JUMPDEST PUSH1 0x0 DUP2 MLOAD SWAP1 POP SWAP2 SWAP1 POP JUMP JUMPDEST PUSH1 0x0 DUP2 MLOAD SWAP1 POP SWAP2 SWAP1 POP JUMP JUMPDEST PUSH1 0x0 PUSH1 0x5 SWAP1 POP SWAP2 SWAP1 POP JUMP JUMPDEST PUSH1 0x0 DUP2 MLOAD SWAP1 POP SWAP2 SWAP1 POP JUMP JUMPDEST PUSH1 0x0 PUSH1 0x20 DUP3 ADD SWAP1 POP SWAP2 SWAP1 POP JUMP JUMPDEST PUSH1 0x0 PUSH1 0x20 DUP3 ADD SWAP1 POP SWAP2 SWAP1 POP JUMP JUMPDEST PUSH1 0x0 PUSH1 0x20 DUP3 ADD SWAP1 POP SWAP2 SWAP1 POP JUMP JUMPDEST PUSH1 0x0 PUSH1 0x20 DUP3 ADD SWAP1 POP SWAP2 SWAP1 POP JUMP JUMPDEST PUSH1 0x0 DUP3 DUP3 MSTORE PUSH1 0x20 DUP3 ADD SWAP1 POP SWAP3 SWAP2 POP POP JUMP JUMPDEST PUSH1 0x0 DUP3 DUP3 MSTORE PUSH1 0x20 DUP3 ADD SWAP1 POP SWAP3 SWAP2 POP POP JUMP JUMPDEST PUSH1 0x0 DUP3 DUP3 MSTORE PUSH1 0x20 DUP3 ADD SWAP1 POP SWAP3 SWAP2 POP POP JUMP JUMPDEST PUSH1 0x0 DUP2 SWAP1 POP SWAP3 SWAP2 POP POP JUMP JUMPDEST PUSH1 0x0 DUP3 DUP3 MSTORE PUSH1 0x20 DUP3 ADD SWAP1 POP SWAP3 SWAP2 POP POP JUMP JUMPDEST PUSH1 0x0 PUSH2 0x3359 DUP3 PUSH2 0x33B8 JUMP JUMPDEST SWAP1 POP SWAP2 SWAP1 POP JUMP JUMPDEST PUSH1 0x0 DUP2 ISZERO ISZERO SWAP1 POP SWAP2 SWAP1 POP JUMP JUMPDEST PUSH1 0x0 DUP2 SWAP1 POP PUSH2 0x337A DUP3 PUSH2 0x34B3 JUMP JUMPDEST SWAP2 SWAP1 POP JUMP JUMPDEST PUSH1 0x0 DUP2 SWAP1 POP PUSH2 0x338D DUP3 PUSH2 0x34C0 JUMP JUMPDEST SWAP2 SWAP1 POP JUMP JUMPDEST PUSH1 0x0 DUP2 SWAP1 POP PUSH2 0x33A0 DUP3 PUSH2 0x34CD JUMP JUMPDEST SWAP2 SWAP1 POP JUMP JUMPDEST PUSH1 0x0 DUP2 SWAP1 POP PUSH2 0x33B3 DUP3 PUSH2 0x34DA JUMP JUMPDEST SWAP2 SWAP1 POP JUMP JUMPDEST PUSH1 0x0 PUSH20 0xFFFFFFFFFFFFFFFFFFFFFFFFFFFFFFFFFFFFFFFF DUP3 AND SWAP1 POP SWAP2 SWAP1 POP JUMP JUMPDEST PUSH1 0x0 DUP2 SWAP1 POP SWAP2 SWAP1 POP JUMP JUMPDEST PUSH1 0x0 PUSH2 0x33ED DUP3 PUSH2 0x343C JUMP JUMPDEST SWAP1 POP SWAP2 SWAP1 POP JUMP JUMPDEST PUSH1 0x0 PUSH2 0x33FF DUP3 PUSH2 0x336C JUMP JUMPDEST SWAP1 POP SWAP2 SWAP1 POP JUMP JUMPDEST PUSH1 0x0 PUSH2 0x3411 DUP3 PUSH2 0x337F JUMP JUMPDEST SWAP1 POP SWAP2 SWAP1 POP JUMP JUMPDEST PUSH1 0x0 PUSH2 0x3423 DUP3 PUSH2 0x3392 JUMP JUMPDEST SWAP1 POP SWAP2 SWAP1 POP JUMP JUMPDEST PUSH1 0x0 PUSH2 0x3435 DUP3 PUSH2 0x33A5 JUMP JUMPDEST SWAP1 POP SWAP2 SWAP1 POP JUMP JUMPDEST PUSH1 0x0 PUSH2 0x3447 DUP3 PUSH2 0x344E JUMP JUMPDEST SWAP1 POP SWAP2 SWAP1 POP JUMP JUMPDEST PUSH1 0x0 PUSH2 0x3459 DUP3 PUSH2 0x33B8 JUMP JUMPDEST SWAP1 POP SWAP2 SWAP1 POP JUMP JUMPDEST DUP3 DUP2 DUP4 CALLDATACOPY PUSH1 0x0 DUP4 DUP4 ADD MSTORE POP POP POP JUMP JUMPDEST PUSH1 0x0 JUMPDEST DUP4 DUP2 LT ISZERO PUSH2 0x348D JUMPI DUP1 DUP3 ADD MLOAD DUP2 DUP5 ADD MSTORE PUSH1 0x20 DUP2 ADD SWAP1 POP PUSH2 0x3472 JUMP JUMPDEST DUP4 DUP2 GT ISZERO PUSH2 0x349C JUMPI PUSH1 0x0 DUP5 DUP5 ADD MSTORE JUMPDEST POP POP POP POP JUMP JUMPDEST PUSH1 0x0 PUSH1 0x1F NOT PUSH1 0x1F DUP4 ADD AND SWAP1 POP SWAP2 SWAP1 POP JUMP JUMPDEST PUSH1 0x3 DUP2 LT PUSH2 0x34BD JUMPI INVALID JUMPDEST POP JUMP JUMPDEST PUSH1 0x2 DUP2 LT PUSH2 0x34CA JUMPI INVALID JUMPDEST POP JUMP JUMPDEST PUSH1 0x6 DUP2 LT PUSH2 0x34D7 JUMPI INVALID JUMPDEST POP JUMP JUMPDEST PUSH1 0x6 DUP2 LT PUSH2 0x34E4 JUMPI INVALID JUMPDEST POP JUMP JUMPDEST PUSH2 0x34F0 DUP2 PUSH2 0x334E JUMP JUMPDEST DUP2 EQ PUSH2 0x34FB JUMPI PUSH1 0x0 DUP1 REVERT JUMPDEST POP JUMP JUMPDEST PUSH1 0x3 DUP2 LT PUSH2 0x350B JUMPI PUSH1 0x0 DUP1 REVERT JUMPDEST POP JUMP JUMPDEST PUSH1 0x2 DUP2 LT PUSH2 0x351B JUMPI PUSH1 0x0 DUP1 REVERT JUMPDEST POP JUMP JUMPDEST PUSH1 0x6 DUP2 LT PUSH2 0x352B JUMPI PUSH1 0x0 DUP1 REVERT JUMPDEST POP JUMP JUMPDEST PUSH2 0x3537 DUP2 PUSH2 0x33D8 JUMP JUMPDEST DUP2 EQ PUSH2 0x3542 JUMPI PUSH1 0x0 DUP1 REVERT JUMPDEST POP JUMP INVALID LOG2 PUSH5 0x6970667358 0x22 SLT KECCAK256 0x2A 0x49 0x4E STOP 0x4B REVERT 0xE2 DUP15 CALLER CREATE SWAP10 AND 0x28 0x2B 0xD5 EQ 0xBC DUP13 CALL CALL 0xEF POP SWAP13 PUSH18 0x72ABA6B8E6D3BA7764736F6C634300060C00 CALLER "
		},
		"gasEstimates": {
			"creation": {
				"codeDepositCost": "2738200",
				"executionCost": "infinite",
				"totalCost": "infinite"
			},
			"external": {
				"confirmPayment(address,address,uint8,uint8,uint256,uint256,uint256)": "infinite",
				"getAllBooks()": "infinite",
				"getAllUsers()": "infinite",
				"getLoanItem(uint256)": "infinite",
				"getOneBook(address)": "infinite",
				"getSchedule(uint8,uint256,uint256)": "infinite",
				"makeLoanDeal(address,uint8,uint8,uint8,uint256)": "infinite",
				"notifyPayment(uint8,address,uint256,string)": "infinite",
				"updateAllPV()": "infinite",
				"updateAllState()": "188",
				"updateState(address,address,uint256,uint256)": "infinite",
				"updateUserPV(address)": "infinite"
			},
			"internal": {
				"calcDF(uint256[7] memory,uint256)": "infinite",
				"inputToItem(struct Loan.LoanInput memory,uint256,uint256)": "infinite",
				"updateOnePV(struct Loan.LoanItem storage pointer)": "infinite"
			}
		},
		"methodIdentifiers": {
			"confirmPayment(address,address,uint8,uint8,uint256,uint256,uint256)": "b677aa2e",
			"getAllBooks()": "354528e8",
			"getAllUsers()": "e2842d79",
			"getLoanItem(uint256)": "61fda82a",
			"getOneBook(address)": "57d8df5a",
			"getSchedule(uint8,uint256,uint256)": "dc570d2d",
			"makeLoanDeal(address,uint8,uint8,uint8,uint256)": "995a2001",
			"notifyPayment(uint8,address,uint256,string)": "1d244afa",
			"updateAllPV()": "d003a97e",
			"updateAllState()": "cb105188",
			"updateState(address,address,uint256,uint256)": "1d78babf",
			"updateUserPV(address)": "4ef8fe5b"
		}
	},
	"abi": [
		{
			"inputs": [
				{
					"internalType": "address",
					"name": "moneyAddr",
					"type": "address"
				},
				{
					"internalType": "address",
					"name": "fxAddr",
					"type": "address"
				},
				{
					"internalType": "address",
					"name": "colAddr",
					"type": "address"
				}
			],
			"stateMutability": "nonpayable",
			"type": "constructor"
		},
		{
			"anonymous": false,
			"inputs": [
				{
					"indexed": true,
					"internalType": "address",
					"name": "loanMaker",
					"type": "address"
				},
				{
					"indexed": true,
					"internalType": "address",
					"name": "colUser",
					"type": "address"
				},
				{
					"indexed": false,
					"internalType": "enum MoneyMarket.Side",
					"name": "side",
					"type": "uint8"
				},
				{
					"indexed": false,
					"internalType": "enum MoneyMarket.Ccy",
					"name": "ccy",
					"type": "uint8"
				},
				{
					"indexed": false,
					"internalType": "uint256",
					"name": "term",
					"type": "uint256"
				},
				{
					"indexed": false,
					"internalType": "uint256",
					"name": "amt",
					"type": "uint256"
				},
				{
					"indexed": false,
					"internalType": "uint256",
					"name": "loanId",
					"type": "uint256"
				}
			],
			"name": "ConfirmPayment",
			"type": "event"
		},
		{
			"anonymous": false,
			"inputs": [
				{
					"indexed": false,
					"internalType": "address",
					"name": "makerAddr",
					"type": "address"
				},
				{
					"indexed": false,
					"internalType": "enum MoneyMarket.Side",
					"name": "side",
					"type": "uint8"
				},
				{
					"indexed": false,
					"internalType": "enum MoneyMarket.Ccy",
					"name": "ccy",
					"type": "uint8"
				},
				{
					"indexed": false,
					"internalType": "enum MoneyMarket.Term",
					"name": "term",
					"type": "uint8"
				},
				{
					"indexed": false,
					"internalType": "uint256",
					"name": "amt",
					"type": "uint256"
				},
				{
					"indexed": false,
					"internalType": "uint256",
					"name": "loanId",
					"type": "uint256"
				}
			],
			"name": "MakeLoanDeal",
			"type": "event"
		},
		{
			"anonymous": false,
			"inputs": [
				{
					"indexed": false,
					"internalType": "enum MoneyMarket.Ccy",
					"name": "ccy",
					"type": "uint8"
				},
				{
					"indexed": false,
					"internalType": "address",
					"name": "sender",
					"type": "address"
				},
				{
					"indexed": false,
					"internalType": "address",
					"name": "receiver",
					"type": "address"
				},
				{
					"indexed": true,
					"internalType": "uint256",
					"name": "loanId",
					"type": "uint256"
				},
				{
					"indexed": false,
					"internalType": "string",
					"name": "txHash",
					"type": "string"
				}
			],
			"name": "NoitfyPayment",
			"type": "event"
		},
		{
			"inputs": [
				{
					"internalType": "address",
					"name": "loanMaker",
					"type": "address"
				},
				{
					"internalType": "address",
					"name": "colUser",
					"type": "address"
				},
				{
					"internalType": "enum MoneyMarket.Side",
					"name": "side",
					"type": "uint8"
				},
				{
					"internalType": "enum MoneyMarket.Ccy",
					"name": "ccy",
					"type": "uint8"
				},
				{
					"internalType": "uint256",
					"name": "term",
					"type": "uint256"
				},
				{
					"internalType": "uint256",
					"name": "amt",
					"type": "uint256"
				},
				{
					"internalType": "uint256",
					"name": "loanId",
					"type": "uint256"
				}
			],
			"name": "confirmPayment",
			"outputs": [],
			"stateMutability": "nonpayable",
			"type": "function"
		},
		{
			"inputs": [],
			"name": "getAllBooks",
			"outputs": [
				{
					"components": [
						{
							"components": [
								{
									"internalType": "uint256",
									"name": "loanId",
									"type": "uint256"
								},
								{
									"internalType": "address",
									"name": "lender",
									"type": "address"
								},
								{
									"internalType": "address",
									"name": "borrower",
									"type": "address"
								},
								{
									"internalType": "enum MoneyMarket.Side",
									"name": "side",
									"type": "uint8"
								},
								{
									"internalType": "enum MoneyMarket.Ccy",
									"name": "ccy",
									"type": "uint8"
								},
								{
									"internalType": "enum MoneyMarket.Term",
									"name": "term",
									"type": "uint8"
								},
								{
									"internalType": "uint256",
									"name": "amt",
									"type": "uint256"
								},
								{
									"internalType": "uint256",
									"name": "rate",
									"type": "uint256"
								},
								{
									"components": [
										{
											"internalType": "uint256",
											"name": "start",
											"type": "uint256"
										},
										{
											"internalType": "uint256",
											"name": "end",
											"type": "uint256"
										},
										{
											"internalType": "uint256[5]",
											"name": "notices",
											"type": "uint256[5]"
										},
										{
											"internalType": "uint256[5]",
											"name": "payments",
											"type": "uint256[5]"
										},
										{
											"internalType": "uint256[5]",
											"name": "amounts",
											"type": "uint256[5]"
										}
									],
									"internalType": "struct Loan.Schedule",
									"name": "schedule",
									"type": "tuple"
								},
								{
									"internalType": "uint256",
									"name": "pv",
									"type": "uint256"
								},
								{
									"internalType": "uint256",
									"name": "asOf",
									"type": "uint256"
								},
								{
									"internalType": "bool",
									"name": "isAvailable",
									"type": "bool"
								},
								{
									"internalType": "enum Loan.State",
									"name": "state",
									"type": "uint8"
								}
							],
							"internalType": "struct Loan.LoanItem[]",
							"name": "loans",
							"type": "tuple[]"
						},
						{
							"internalType": "uint256",
							"name": "loanNum",
							"type": "uint256"
						},
						{
							"internalType": "bool",
							"name": "isValue",
							"type": "bool"
						}
					],
					"internalType": "struct Loan.LoanBook[]",
					"name": "",
					"type": "tuple[]"
				}
			],
			"stateMutability": "view",
			"type": "function"
		},
		{
			"inputs": [],
			"name": "getAllUsers",
			"outputs": [
				{
					"internalType": "address[]",
					"name": "",
					"type": "address[]"
				}
			],
			"stateMutability": "view",
			"type": "function"
		},
		{
			"inputs": [
				{
					"internalType": "uint256",
					"name": "loanId",
					"type": "uint256"
				}
			],
			"name": "getLoanItem",
			"outputs": [
				{
					"components": [
						{
							"internalType": "uint256",
							"name": "loanId",
							"type": "uint256"
						},
						{
							"internalType": "address",
							"name": "lender",
							"type": "address"
						},
						{
							"internalType": "address",
							"name": "borrower",
							"type": "address"
						},
						{
							"internalType": "enum MoneyMarket.Side",
							"name": "side",
							"type": "uint8"
						},
						{
							"internalType": "enum MoneyMarket.Ccy",
							"name": "ccy",
							"type": "uint8"
						},
						{
							"internalType": "enum MoneyMarket.Term",
							"name": "term",
							"type": "uint8"
						},
						{
							"internalType": "uint256",
							"name": "amt",
							"type": "uint256"
						},
						{
							"internalType": "uint256",
							"name": "rate",
							"type": "uint256"
						},
						{
							"components": [
								{
									"internalType": "uint256",
									"name": "start",
									"type": "uint256"
								},
								{
									"internalType": "uint256",
									"name": "end",
									"type": "uint256"
								},
								{
									"internalType": "uint256[5]",
									"name": "notices",
									"type": "uint256[5]"
								},
								{
									"internalType": "uint256[5]",
									"name": "payments",
									"type": "uint256[5]"
								},
								{
									"internalType": "uint256[5]",
									"name": "amounts",
									"type": "uint256[5]"
								}
							],
							"internalType": "struct Loan.Schedule",
							"name": "schedule",
							"type": "tuple"
						},
						{
							"internalType": "uint256",
							"name": "pv",
							"type": "uint256"
						},
						{
							"internalType": "uint256",
							"name": "asOf",
							"type": "uint256"
						},
						{
							"internalType": "bool",
							"name": "isAvailable",
							"type": "bool"
						},
						{
							"internalType": "enum Loan.State",
							"name": "state",
							"type": "uint8"
						}
					],
					"internalType": "struct Loan.LoanItem",
					"name": "",
					"type": "tuple"
				}
			],
			"stateMutability": "view",
			"type": "function"
		},
		{
			"inputs": [
				{
					"internalType": "address",
					"name": "addr",
					"type": "address"
				}
			],
			"name": "getOneBook",
			"outputs": [
				{
					"components": [
						{
							"components": [
								{
									"internalType": "uint256",
									"name": "loanId",
									"type": "uint256"
								},
								{
									"internalType": "address",
									"name": "lender",
									"type": "address"
								},
								{
									"internalType": "address",
									"name": "borrower",
									"type": "address"
								},
								{
									"internalType": "enum MoneyMarket.Side",
									"name": "side",
									"type": "uint8"
								},
								{
									"internalType": "enum MoneyMarket.Ccy",
									"name": "ccy",
									"type": "uint8"
								},
								{
									"internalType": "enum MoneyMarket.Term",
									"name": "term",
									"type": "uint8"
								},
								{
									"internalType": "uint256",
									"name": "amt",
									"type": "uint256"
								},
								{
									"internalType": "uint256",
									"name": "rate",
									"type": "uint256"
								},
								{
									"components": [
										{
											"internalType": "uint256",
											"name": "start",
											"type": "uint256"
										},
										{
											"internalType": "uint256",
											"name": "end",
											"type": "uint256"
										},
										{
											"internalType": "uint256[5]",
											"name": "notices",
											"type": "uint256[5]"
										},
										{
											"internalType": "uint256[5]",
											"name": "payments",
											"type": "uint256[5]"
										},
										{
											"internalType": "uint256[5]",
											"name": "amounts",
											"type": "uint256[5]"
										}
									],
									"internalType": "struct Loan.Schedule",
									"name": "schedule",
									"type": "tuple"
								},
								{
									"internalType": "uint256",
									"name": "pv",
									"type": "uint256"
								},
								{
									"internalType": "uint256",
									"name": "asOf",
									"type": "uint256"
								},
								{
									"internalType": "bool",
									"name": "isAvailable",
									"type": "bool"
								},
								{
									"internalType": "enum Loan.State",
									"name": "state",
									"type": "uint8"
								}
							],
							"internalType": "struct Loan.LoanItem[]",
							"name": "loans",
							"type": "tuple[]"
						},
						{
							"internalType": "uint256",
							"name": "loanNum",
							"type": "uint256"
						},
						{
							"internalType": "bool",
							"name": "isValue",
							"type": "bool"
						}
					],
					"internalType": "struct Loan.LoanBook",
					"name": "",
					"type": "tuple"
				}
			],
			"stateMutability": "view",
			"type": "function"
		},
		{
			"inputs": [
				{
					"internalType": "enum MoneyMarket.Term",
					"name": "term",
					"type": "uint8"
				},
				{
					"internalType": "uint256",
					"name": "amt",
					"type": "uint256"
				},
				{
					"internalType": "uint256",
					"name": "rate",
					"type": "uint256"
				}
			],
			"name": "getSchedule",
			"outputs": [
				{
					"components": [
						{
							"internalType": "uint256",
							"name": "start",
							"type": "uint256"
						},
						{
							"internalType": "uint256",
							"name": "end",
							"type": "uint256"
						},
						{
							"internalType": "uint256[5]",
							"name": "notices",
							"type": "uint256[5]"
						},
						{
							"internalType": "uint256[5]",
							"name": "payments",
							"type": "uint256[5]"
						},
						{
							"internalType": "uint256[5]",
							"name": "amounts",
							"type": "uint256[5]"
						}
					],
					"internalType": "struct Loan.Schedule",
					"name": "",
					"type": "tuple"
				}
			],
			"stateMutability": "view",
			"type": "function"
		},
		{
			"inputs": [
				{
					"internalType": "address",
					"name": "makerAddr",
					"type": "address"
				},
				{
					"internalType": "enum MoneyMarket.Side",
					"name": "side",
					"type": "uint8"
				},
				{
					"internalType": "enum MoneyMarket.Ccy",
					"name": "ccy",
					"type": "uint8"
				},
				{
					"internalType": "enum MoneyMarket.Term",
					"name": "term",
					"type": "uint8"
				},
				{
					"internalType": "uint256",
					"name": "amt",
					"type": "uint256"
				}
			],
			"name": "makeLoanDeal",
			"outputs": [],
			"stateMutability": "nonpayable",
			"type": "function"
		},
		{
			"inputs": [
				{
					"internalType": "enum MoneyMarket.Ccy",
					"name": "ccy",
					"type": "uint8"
				},
				{
					"internalType": "address",
					"name": "receiver",
					"type": "address"
				},
				{
					"internalType": "uint256",
					"name": "loanId",
					"type": "uint256"
				},
				{
					"internalType": "string",
					"name": "txHash",
					"type": "string"
				}
			],
			"name": "notifyPayment",
			"outputs": [],
			"stateMutability": "nonpayable",
			"type": "function"
		},
		{
			"inputs": [],
			"name": "updateAllPV",
			"outputs": [],
			"stateMutability": "nonpayable",
			"type": "function"
		},
		{
			"inputs": [],
			"name": "updateAllState",
			"outputs": [],
			"stateMutability": "nonpayable",
			"type": "function"
		},
		{
			"inputs": [
				{
					"internalType": "address",
					"name": "loanMaker",
					"type": "address"
				},
				{
					"internalType": "address",
					"name": "colUser",
					"type": "address"
				},
				{
					"internalType": "uint256",
					"name": "loanId",
					"type": "uint256"
				},
				{
					"internalType": "uint256",
					"name": "amt",
					"type": "uint256"
				}
			],
			"name": "updateState",
			"outputs": [],
			"stateMutability": "nonpayable",
			"type": "function"
		},
		{
			"inputs": [
				{
					"internalType": "address",
					"name": "addr",
					"type": "address"
				}
			],
			"name": "updateUserPV",
			"outputs": [],
			"stateMutability": "nonpayable",
			"type": "function"
		}
	]
}