{
	"data": {
		"bytecode": {
			"linkReferences": {},
			"object": "608060405234801561001057600080fd5b506139c8806100206000396000f3fe608060405234801561001057600080fd5b50600436106100cf5760003560e01c80636584d3f61161008c5780639b4a7a1a116100665780639b4a7a1a14610204578063aacf141914610222578063be8d9c521461023e578063be92e1b51461025a576100cf565b80636584d3f6146101ac578063666e25de146101b65780637ba8ad21146101e6576100cf565b8063069fa00c146100d45780632043285d146100f2578063354528e814610110578063491f80761461012e578063524bc34a1461014c57806357d8df5a1461017c575b600080fd5b6100dc610278565b6040516100e99190613531565b60405180910390f35b6100fa610732565b60405161010791906134f3565b60405180910390f35b6101186107c0565b604051610125919061354d565b60405180910390f35b610136610b73565b6040516101439190613515565b60405180910390f35b61016660048036038101906101619190612d8a565b610c53565b6040516101739190613682565b60405180910390f35b61019660048036038101906101919190612cfe565b6111b4565b6040516101a3919061364b565b60405180910390f35b6101b46114a7565b005b6101d060048036038101906101cb9190612d27565b6116ba565b6040516101dd9190613667565b60405180910390f35b6101ee61196b565b6040516101fb919061364b565b60405180910390f35b61020c611d4d565b6040516102199190613515565b60405180910390f35b61023c60048036038101906102379190612d27565b611df9565b005b61025860048036038101906102539190612e01565b6120c9565b005b6102626124cb565b60405161026f9190613515565b60405180910390f35b610280612901565b61028861292e565b610290610b73565b905061029a61295b565b60405180606001604052806040518060e00160405280856000600381106102bd57fe5b60200201516000600681106102ce57fe5b60200201518152602001856000600381106102e557fe5b60200201516001600681106102f657fe5b602002015181526020018560006003811061030d57fe5b602002015160026006811061031e57fe5b602002015181526020018560006003811061033557fe5b602002015160036006811061034657fe5b602002015181526020018560006003811061035d57fe5b602002015160046006811061036e57fe5b6020020151815260200160028660006003811061038757fe5b602002015160056006811061039857fe5b6020020151876000600381106103aa57fe5b60200201516004600681106103bb57fe5b602002015101816103c857fe5b048152602001856000600381106103db57fe5b60200201516005600681106103ec57fe5b602002015181525081526020016040518060e001604052808560016003811061041157fe5b602002015160006006811061042257fe5b602002015181526020018560016003811061043957fe5b602002015160016006811061044a57fe5b602002015181526020018560016003811061046157fe5b602002015160026006811061047257fe5b602002015181526020018560016003811061048957fe5b602002015160036006811061049a57fe5b60200201518152602001856001600381106104b157fe5b60200201516004600681106104c257fe5b602002015181526020016002866001600381106104db57fe5b60200201516005600681106104ec57fe5b6020020151876001600381106104fe57fe5b602002015160046006811061050f57fe5b6020020151018161051c57fe5b0481526020018560016003811061052f57fe5b602002015160056006811061054057fe5b602002015181525081526020016040518060e001604052808560026003811061056557fe5b602002015160006006811061057657fe5b602002015181526020018560026003811061058d57fe5b602002015160016006811061059e57fe5b60200201518152602001856002600381106105b557fe5b60200201516002600681106105c657fe5b60200201518152602001856002600381106105dd57fe5b60200201516003600681106105ee57fe5b602002015181526020018560026003811061060557fe5b602002015160046006811061061657fe5b6020020151815260200160028660026003811061062f57fe5b602002015160056006811061064057fe5b60200201518760026003811061065257fe5b602002015160046006811061066357fe5b6020020151018161067057fe5b0481526020018560026003811061068357fe5b602002015160056006811061069457fe5b602002015181525081525090506106a9612988565b6106c3826000600381106106b957fe5b6020020151612577565b90506106cd612988565b6106e7836001600381106106dd57fe5b6020020151612577565b90506106f1612988565b61070b8460026003811061070157fe5b6020020151612577565b90506040518060600160405280848152602001838152602001828152509550505050505090565b606060018054806020026020016040519081016040528092919081815260200182805480156107b657602002820191906000526020600020905b8160009054906101000a900473ffffffffffffffffffffffffffffffffffffffff1673ffffffffffffffffffffffffffffffffffffffff168152602001906001019080831161076c575b5050505050905090565b60608060018054905067ffffffffffffffff811180156107df57600080fd5b5060405190808252806020026020018201604052801561081957816020015b6108066129c5565b8152602001906001900390816107fe5790505b50905060005b600180549050811015610b6b576000806001838154811061083c57fe5b9060005260206000200160009054906101000a900473ffffffffffffffffffffffffffffffffffffffff1673ffffffffffffffffffffffffffffffffffffffff1673ffffffffffffffffffffffffffffffffffffffff16815260200190815260200160002060405180606001604052908160008201600380602002604051908101604052809291906000905b828210156109e4578382601e0201600680602002604051908101604052809291906000905b828210156109d1578382600502016040518060c00160405290816000820160009054906101000a900460ff16600581111561092457fe5b600581111561092f57fe5b81526020016001820154815260200160028201548152602001600382015481526020016004820160009054906101000a900460ff161515151581526020016004820160019054906101000a900473ffffffffffffffffffffffffffffffffffffffff1673ffffffffffffffffffffffffffffffffffffffff1673ffffffffffffffffffffffffffffffffffffffff1681525050815260200190600101906108ed565b50505050815260200190600101906108c8565b505050508152602001605a8201600380602002604051908101604052809291906000905b82821015610b24578382601e0201600680602002604051908101604052809291906000905b82821015610b11578382600502016040518060c00160405290816000820160009054906101000a900460ff166005811115610a6457fe5b6005811115610a6f57fe5b81526020016001820154815260200160028201548152602001600382015481526020016004820160009054906101000a900460ff161515151581526020016004820160019054906101000a900473ffffffffffffffffffffffffffffffffffffffff1673ffffffffffffffffffffffffffffffffffffffff1673ffffffffffffffffffffffffffffffffffffffff168152505081526020019060010190610a2d565b5050505081526020019060010190610a08565b50505050815260200160b4820160009054906101000a900460ff161515151581525050828281518110610b5357fe5b6020026020010181905250808060010191505061081f565b508091505090565b610b7b61292e565b610b836129c5565b610b8b61196b565b9050610b9561292e565b60005b6003811015610c4a5760005b6006811015610c3c57600284602001518360038110610bbf57fe5b60200201518260068110610bcf57fe5b60200201516040015185600001518460038110610be857fe5b60200201518360068110610bf857fe5b6020020151604001510181610c0957fe5b04838360038110610c1657fe5b60200201518260068110610c2657fe5b6020020181815250508080600101915050610ba4565b508080600101915050610b98565b50809250505090565b6000610c5d6129c5565b6000808873ffffffffffffffffffffffffffffffffffffffff1673ffffffffffffffffffffffffffffffffffffffff16815260200190815260200160002060405180606001604052908160008201600380602002604051908101604052809291906000905b82821015610dde578382601e0201600680602002604051908101604052809291906000905b82821015610dcb578382600502016040518060c00160405290816000820160009054906101000a900460ff166005811115610d1e57fe5b6005811115610d2957fe5b81526020016001820154815260200160028201548152602001600382015481526020016004820160009054906101000a900460ff161515151581526020016004820160019054906101000a900473ffffffffffffffffffffffffffffffffffffffff1673ffffffffffffffffffffffffffffffffffffffff1673ffffffffffffffffffffffffffffffffffffffff168152505081526020019060010190610ce7565b5050505081526020019060010190610cc2565b505050508152602001605a8201600380602002604051908101604052809291906000905b82821015610f1e578382601e0201600680602002604051908101604052809291906000905b82821015610f0b578382600502016040518060c00160405290816000820160009054906101000a900460ff166005811115610e5e57fe5b6005811115610e6957fe5b81526020016001820154815260200160028201548152602001600382015481526020016004820160009054906101000a900460ff161515151581526020016004820160019054906101000a900473ffffffffffffffffffffffffffffffffffffffff1673ffffffffffffffffffffffffffffffffffffffff1673ffffffffffffffffffffffffffffffffffffffff168152505081526020019060010190610e27565b5050505081526020019060010190610e02565b50505050815260200160b4820160009054906101000a900460ff1615151515815250509050600115158160400151151514610f8e576040517f08c379a0000000000000000000000000000000000000000000000000000000008152600401610f859061362b565b60405180910390fd5b6000806001811115610f9c57fe5b876001811115610fa857fe5b141561102a576000808973ffffffffffffffffffffffffffffffffffffffff1673ffffffffffffffffffffffffffffffffffffffff168152602001908152602001600020600001866002811115610ffb57fe5b6003811061100557fe5b601e020185600581111561101557fe5b6006811061101f57fe5b6005020190506110a2565b6000808973ffffffffffffffffffffffffffffffffffffffff1673ffffffffffffffffffffffffffffffffffffffff168152602001908152602001600020605a0186600281111561107757fe5b6003811061108157fe5b601e020185600581111561109157fe5b6006811061109b57fe5b6005020190505b42816003015410156110f5576110ba88888888611df9565b6040517f08c379a00000000000000000000000000000000000000000000000000000000081526004016110ec9061360b565b60405180910390fd5b838160010154101561113c576040517f08c379a0000000000000000000000000000000000000000000000000000000008152600401611133906135eb565b60405180910390fd5b8381600101600082825403925050819055508773ffffffffffffffffffffffffffffffffffffffff167f5f81c4eea5ac9520791f03ac8aafa44c00b32d97c0335cabd8798510a8a666518888888860405161119a94939291906135a6565b60405180910390a280600201549250505095945050505050565b6111bc6129c5565b6000808373ffffffffffffffffffffffffffffffffffffffff1673ffffffffffffffffffffffffffffffffffffffff16815260200190815260200160002060405180606001604052908160008201600380602002604051908101604052809291906000905b8282101561133d578382601e0201600680602002604051908101604052809291906000905b8282101561132a578382600502016040518060c00160405290816000820160009054906101000a900460ff16600581111561127d57fe5b600581111561128857fe5b81526020016001820154815260200160028201548152602001600382015481526020016004820160009054906101000a900460ff161515151581526020016004820160019054906101000a900473ffffffffffffffffffffffffffffffffffffffff1673ffffffffffffffffffffffffffffffffffffffff1673ffffffffffffffffffffffffffffffffffffffff168152505081526020019060010190611246565b5050505081526020019060010190611221565b505050508152602001605a8201600380602002604051908101604052809291906000905b8282101561147d578382601e0201600680602002604051908101604052809291906000905b8282101561146a578382600502016040518060c00160405290816000820160009054906101000a900460ff1660058111156113bd57fe5b60058111156113c857fe5b81526020016001820154815260200160028201548152602001600382015481526020016004820160009054906101000a900460ff161515151581526020016004820160019054906101000a900473ffffffffffffffffffffffffffffffffffffffff1673ffffffffffffffffffffffffffffffffffffffff1673ffffffffffffffffffffffffffffffffffffffff168152505081526020019060010190611386565b5050505081526020019060010190611361565b50505050815260200160b4820160009054906101000a900460ff1615151515815250509050919050565b600115156000803373ffffffffffffffffffffffffffffffffffffffff1673ffffffffffffffffffffffffffffffffffffffff16815260200190815260200160002060b40160009054906101000a900460ff1615151461153c576040517f08c379a00000000000000000000000000000000000000000000000000000000081526004016115339061362b565b60405180910390fd5b6000803373ffffffffffffffffffffffffffffffffffffffff1673ffffffffffffffffffffffffffffffffffffffff1681526020019081526020016000206000808201600061158b91906129f4565b605a8201600061159b91906129f4565b60b4820160006101000a81549060ff0219169055505060005b600180549050811015611674573373ffffffffffffffffffffffffffffffffffffffff16600182815481106115e557fe5b9060005260206000200160009054906101000a900473ffffffffffffffffffffffffffffffffffffffff1673ffffffffffffffffffffffffffffffffffffffff161415611667576001818154811061163957fe5b9060005260206000200160006101000a81549073ffffffffffffffffffffffffffffffffffffffff02191690555b80806001019150506115b4565b503373ffffffffffffffffffffffffffffffffffffffff167ff3ada031bf975812d748cb98e9c22cbe201e0b219605f45df2d40c7100ae8e8160405160405180910390a2565b6116c2612a27565b600060018111156116cf57fe5b8460018111156116db57fe5b1415611824576000808673ffffffffffffffffffffffffffffffffffffffff1673ffffffffffffffffffffffffffffffffffffffff16815260200190815260200160002060000183600281111561172e57fe5b6003811061173857fe5b601e020182600581111561174857fe5b6006811061175257fe5b600502016040518060c00160405290816000820160009054906101000a900460ff16600581111561177f57fe5b600581111561178a57fe5b81526020016001820154815260200160028201548152602001600382015481526020016004820160009054906101000a900460ff161515151581526020016004820160019054906101000a900473ffffffffffffffffffffffffffffffffffffffff1673ffffffffffffffffffffffffffffffffffffffff1673ffffffffffffffffffffffffffffffffffffffff16815250509050611963565b6000808673ffffffffffffffffffffffffffffffffffffffff1673ffffffffffffffffffffffffffffffffffffffff168152602001908152602001600020605a0183600281111561187157fe5b6003811061187b57fe5b601e020182600581111561188b57fe5b6006811061189557fe5b600502016040518060c00160405290816000820160009054906101000a900460ff1660058111156118c257fe5b60058111156118cd57fe5b81526020016001820154815260200160028201548152602001600382015481526020016004820160009054906101000a900460ff161515151581526020016004820160019054906101000a900473ffffffffffffffffffffffffffffffffffffffff1673ffffffffffffffffffffffffffffffffffffffff1673ffffffffffffffffffffffffffffffffffffffff168152505090505b949350505050565b6119736129c5565b61197b6129c5565b60005b6003811015611d345760005b6006811015611d265760005b600180549050811015611d1857611b2f846000015184600381106119b657fe5b602002015183600681106119c657fe5b6020020151600080600185815481106119db57fe5b9060005260206000200160009054906101000a900473ffffffffffffffffffffffffffffffffffffffff1673ffffffffffffffffffffffffffffffffffffffff1673ffffffffffffffffffffffffffffffffffffffff1681526020019081526020016000206000018560038110611a4e57fe5b601e02018460068110611a5d57fe5b600502016040518060c00160405290816000820160009054906101000a900460ff166005811115611a8a57fe5b6005811115611a9557fe5b81526020016001820154815260200160028201548152602001600382015481526020016004820160009054906101000a900460ff161515151581526020016004820160019054906101000a900473ffffffffffffffffffffffffffffffffffffffff1673ffffffffffffffffffffffffffffffffffffffff1673ffffffffffffffffffffffffffffffffffffffff1681525050600061279c565b84600001518460038110611b3f57fe5b60200201518360068110611b4f57fe5b6020020181905250611ce384602001518460038110611b6a57fe5b60200201518360068110611b7a57fe5b602002015160008060018581548110611b8f57fe5b9060005260206000200160009054906101000a900473ffffffffffffffffffffffffffffffffffffffff1673ffffffffffffffffffffffffffffffffffffffff1673ffffffffffffffffffffffffffffffffffffffff168152602001908152602001600020605a018560038110611c0257fe5b601e02018460068110611c1157fe5b600502016040518060c00160405290816000820160009054906101000a900460ff166005811115611c3e57fe5b6005811115611c4957fe5b81526020016001820154815260200160028201548152602001600382015481526020016004820160009054906101000a900460ff161515151581526020016004820160019054906101000a900473ffffffffffffffffffffffffffffffffffffffff1673ffffffffffffffffffffffffffffffffffffffff1673ffffffffffffffffffffffffffffffffffffffff1681525050600161279c565b84602001518460038110611cf357fe5b60200201518360068110611d0357fe5b60200201819052508080600101915050611996565b50808060010191505061198a565b50808060010191505061197e565b5060018160400190151590811515815250508091505090565b611d5561292e565b611d5d6129c5565b611d6561196b565b9050611d6f61292e565b60005b6003811015611df05760005b6006811015611de25783602001518260038110611d9757fe5b60200201518160068110611da757fe5b602002015160400151838360038110611dbc57fe5b60200201518260068110611dcc57fe5b6020020181815250508080600101915050611d7e565b508080600101915050611d72565b50809250505090565b600115156000808673ffffffffffffffffffffffffffffffffffffffff1673ffffffffffffffffffffffffffffffffffffffff16815260200190815260200160002060b40160009054906101000a900460ff16151514611e8e576040517f08c379a0000000000000000000000000000000000000000000000000000000008152600401611e859061362b565b60405180910390fd5b60006001811115611e9b57fe5b836001811115611ea757fe5b1415611f91576000808573ffffffffffffffffffffffffffffffffffffffff1673ffffffffffffffffffffffffffffffffffffffff168152602001908152602001600020600001826002811115611efa57fe5b60038110611f0457fe5b601e0201816005811115611f1457fe5b60068110611f1e57fe5b60050201600080820160006101000a81549060ff02191690556001820160009055600282016000905560038201600090556004820160006101000a81549060ff02191690556004820160016101000a81549073ffffffffffffffffffffffffffffffffffffffff02191690555050612071565b6000808573ffffffffffffffffffffffffffffffffffffffff1673ffffffffffffffffffffffffffffffffffffffff168152602001908152602001600020605a01826002811115611fde57fe5b60038110611fe857fe5b601e0201816005811115611ff857fe5b6006811061200257fe5b60050201600080820160006101000a81549060ff02191690556001820160009055600282016000905560038201600090556004820160006101000a81549060ff02191690556004820160016101000a81549073ffffffffffffffffffffffffffffffffffffffff021916905550505b8373ffffffffffffffffffffffffffffffffffffffff167f26ccf72b15577a3716488572498a8c3273e62c3b979039c14dc966a508ecf82c8484846040516120bb9392919061356f565b60405180910390a250505050565b60008060003373ffffffffffffffffffffffffffffffffffffffff1673ffffffffffffffffffffffffffffffffffffffff168152602001908152602001600020905060008160000186600281111561211d57fe5b6003811061212757fe5b601e02019050600082605a0187600281111561213f57fe5b6003811061214957fe5b601e0201905060005b865181101561227c57600087828151811061216957fe5b602002602001015160000151905061217f612a27565b61219e89848151811061218e57fe5b6020026020010151884201612852565b905080858360058111156121ae57fe5b600681106121b857fe5b6005020160008201518160000160006101000a81548160ff021916908360058111156121e057fe5b021790555060208201518160010155604082015181600201556060820151816003015560808201518160040160006101000a81548160ff02191690831515021790555060a08201518160040160016101000a81548173ffffffffffffffffffffffffffffffffffffffff021916908373ffffffffffffffffffffffffffffffffffffffff16021790555090505050508080600101915050612152565b5060005b85518110156123aa57600086828151811061229757fe5b60200260200101516000015190506122ad612a27565b6122cc8884815181106122bc57fe5b6020026020010151884201612852565b905080848360058111156122dc57fe5b600681106122e657fe5b6005020160008201518160000160006101000a81548160ff0219169083600581111561230e57fe5b021790555060208201518160010155604082015181600201556060820151816003015560808201518160040160006101000a81548160ff02191690831515021790555060a08201518160040160016101000a81548173ffffffffffffffffffffffffffffffffffffffff021916908373ffffffffffffffffffffffffffffffffffffffff16021790555090505050508080600101915050612280565b506000803373ffffffffffffffffffffffffffffffffffffffff1673ffffffffffffffffffffffffffffffffffffffff16815260200190815260200160002060b40160009054906101000a900460ff16612462576001339080600181540180825580915050600190039060005260206000200160009091909190916101000a81548173ffffffffffffffffffffffffffffffffffffffff021916908373ffffffffffffffffffffffffffffffffffffffff1602179055505b60018360b40160006101000a81548160ff0219169083151502179055503373ffffffffffffffffffffffffffffffffffffffff167f9f28aba5952e297039558d4b2fc1f0649f8c8c5accab6577117fad09bc3c95a360405160405180910390a250505050505050565b6124d361292e565b6124db6129c5565b6124e361196b565b90506124ed61292e565b60005b600381101561256e5760005b6006811015612560578360000151826003811061251557fe5b6020020151816006811061252557fe5b60200201516040015183836003811061253a57fe5b6020020151826006811061254a57fe5b60200201818152505080806001019150506124fc565b5080806001019150506124f0565b50809250505090565b61257f612988565b612587612988565b610168605a8460006007811061259957fe5b602002015102816125a657fe5b04612710016127108002816125b757fe5b0481600001818152505061016860b4846001600781106125d357fe5b602002015102816125e057fe5b04612710016127108002816125f157fe5b048160200181815250508260026007811061260857fe5b60200201516127100161271080028161261d57fe5b048160400181815250508260036007811061263457fe5b60200201516127100161271082604001518560036007811061265257fe5b6020020151028161265f57fe5b0461271003612710028161266f57fe5b048160600181815250508260046007811061268657fe5b6020020151612710016127108260600151836040015101856004600781106126aa57fe5b602002015102816126b757fe5b046127100361271002816126c757fe5b04816080018181525050826005600781106126de57fe5b60200201516127100161271082608001518360600151846040015101018560056007811061270857fe5b6020020151028161271557fe5b0461271003612710028161272557fe5b048160a00181815250508260066007811061273c57fe5b6020020151612710016127108260a001518360800151846060015185604001510101018560066007811061276c57fe5b6020020151028161277957fe5b0461271003612710028161278957fe5b048160c001818152505080915050919050565b6127a4612a27565b83608001516127b55782905061284b565b82608001516127c65783905061284b565b8260400151846040015114156127f45782602001518460200151116127eb57826127ed565b835b905061284b565b6000600181111561280157fe5b82600181111561280d57fe5b1415612831578260400151846040015110612828578261282a565b835b905061284b565b82604001518460400151116128465782612848565b835b90505b9392505050565b61285a612a27565b612862612a27565b83600001518160000190600581111561287757fe5b9081600581111561288457fe5b8152505083602001518160200181815250508360400151816040018181525050828160600181815250506001816080019015159081151581525050338160a0019073ffffffffffffffffffffffffffffffffffffffff16908173ffffffffffffffffffffffffffffffffffffffff16815250508091505092915050565b60405180606001604052806003905b612918612988565b8152602001906001900390816129105790505090565b60405180606001604052806003905b612945612a80565b81526020019060019003908161293d5790505090565b60405180606001604052806003905b612972612aa2565b81526020019060019003908161296a5790505090565b6040518060e00160405280600081526020016000815260200160008152602001600081526020016000815260200160008152602001600081525090565b60405180606001604052806129d8612ac4565b81526020016129e5612ac4565b81526020016000151581525090565b5060008181612a039190612af1565b50601e0160008181612a159190612af1565b50601e016000612a259190612af1565b565b6040518060c0016040528060006005811115612a3f57fe5b8152602001600081526020016000815260200160008152602001600015158152602001600073ffffffffffffffffffffffffffffffffffffffff1681525090565b6040518060c00160405280600690602082028036833780820191505090505090565b6040518060e00160405280600790602082028036833780820191505090505090565b60405180606001604052806003905b612adb612b07565b815260200190600190039081612ad35790505090565b508060066005020190612b049190612b34565b50565b6040518060c001604052806006905b612b1e612a27565b815260200190600190039081612b165790505090565b5b80821115612bae57600080820160006101000a81549060ff02191690556001820160009055600282016000905560038201600090556004820160006101000a81549060ff02191690556004820160016101000a81549073ffffffffffffffffffffffffffffffffffffffff021916905550600501612b35565b5090565b600081359050612bc181613934565b92915050565b600082601f830112612bd857600080fd5b8135612beb612be6826136ca565b61369d565b91508181835260208401935060208101905083856060840282011115612c1057600080fd5b60005b83811015612c405781612c268882612c89565b845260208401935060608301925050600181019050612c13565b5050505092915050565b600081359050612c598161394b565b92915050565b600081359050612c6e8161395b565b92915050565b600081359050612c838161396b565b92915050565b600060608284031215612c9b57600080fd5b612ca5606061369d565b90506000612cb584828501612c74565b6000830152506020612cc984828501612ce9565b6020830152506040612cdd84828501612ce9565b60408301525092915050565b600081359050612cf88161397b565b92915050565b600060208284031215612d1057600080fd5b6000612d1e84828501612bb2565b91505092915050565b60008060008060808587031215612d3d57600080fd5b6000612d4b87828801612bb2565b9450506020612d5c87828801612c5f565b9350506040612d6d87828801612c4a565b9250506060612d7e87828801612c74565b91505092959194509250565b600080600080600060a08688031215612da257600080fd5b6000612db088828901612bb2565b9550506020612dc188828901612c5f565b9450506040612dd288828901612c4a565b9350506060612de388828901612c74565b9250506080612df488828901612ce9565b9150509295509295909350565b60008060008060808587031215612e1757600080fd5b6000612e2587828801612c4a565b945050602085013567ffffffffffffffff811115612e4257600080fd5b612e4e87828801612bc7565b935050604085013567ffffffffffffffff811115612e6b57600080fd5b612e7787828801612bc7565b9250506060612e8887828801612ce9565b91505092959194509250565b6000612ea08383612f3e565b60208301905092915050565b6000612eb8838361310e565b6104808301905092915050565b6000612ed18383613165565b60c08301905092915050565b6000612ee983836132c7565b60e08301905092915050565b6000612f018383613355565b611b208301905092915050565b6000612f1a83836133df565b60c08301905092915050565b6000612f3283836134d5565b60208301905092915050565b612f4781613856565b82525050565b6000612f5882613744565b612f6281856137ec565b9350612f6d836136f2565b8060005b83811015612f9e578151612f858882612e94565b9750612f9083613791565b925050600181019050612f71565b5085935050505092915050565b612fb48161374f565b612fbe81846137fd565b9250612fc982613702565b8060005b83811015612ffa578151612fe18782612eac565b9650612fec8361379e565b925050600181019050612fcd565b505050505050565b61300b8161375a565b6130158184613808565b92506130208261370c565b8060005b838110156130515781516130388782612ec5565b9650613043836137ab565b925050600181019050613024565b505050505050565b61306281613765565b61306c8184613813565b925061307782613716565b8060005b838110156130a857815161308f8782612edd565b965061309a836137b8565b92505060018101905061307b565b505050505050565b60006130bb82613770565b6130c5818561381e565b93506130d083613720565b8060005b838110156131015781516130e88882612ef5565b97506130f3836137c5565b9250506001810190506130d4565b5085935050505092915050565b6131178161377b565b613121818461382f565b925061312c82613730565b8060005b8381101561315d5781516131448782612f0e565b965061314f836137d2565b925050600181019050613130565b505050505050565b61316e81613786565b613178818461383a565b92506131838261373a565b8060005b838110156131b457815161319b8782612f26565b96506131a6836137df565b925050600181019050613187565b505050505050565b6131c581613868565b82525050565b6131d4816138d7565b82525050565b6131e3816138e9565b82525050565b6131f2816138fb565b82525050565b613201816138fb565b82525050565b6000613214601083613845565b91507f416d6f756e7420746f6f206c61726765000000000000000000000000000000006000830152602082019050919050565b6000613254600c83613845565b91507f4974656d206578706972656400000000000000000000000000000000000000006000830152602082019050919050565b6000613294601983613845565b91507f4d6f6e65794d61726b6574426f6f6b206e6f7420666f756e64000000000000006000830152602082019050919050565b60e0820160008201516132dd60008501826134d5565b5060208201516132f060208501826134d5565b50604082015161330360408501826134d5565b50606082015161331660608501826134d5565b50608082015161332960808501826134d5565b5060a082015161333c60a08501826134d5565b5060c082015161334f60c08501826134d5565b50505050565b611b208201600082015161336c6000850182612fab565b506020820151613380610d80850182612fab565b506040820151613394611b008501826131bc565b50505050565b611b20820160008201516133b16000850182612fab565b5060208201516133c5610d80850182612fab565b5060408201516133d9611b008501826131bc565b50505050565b60c0820160008201516133f560008501826131e9565b50602082015161340860208501826134d5565b50604082015161341b60408501826134d5565b50606082015161342e60608501826134d5565b50608082015161344160808501826131bc565b5060a082015161345460a0850182612f3e565b50505050565b60c08201600082015161347060008501826131e9565b50602082015161348360208501826134d5565b50604082015161349660408501826134d5565b5060608201516134a960608501826134d5565b5060808201516134bc60808501826131bc565b5060a08201516134cf60a0850182612f3e565b50505050565b6134de816138cd565b82525050565b6134ed816138cd565b82525050565b6000602082019050818103600083015261350d8184612f4d565b905092915050565b60006102408201905061352b6000830184613002565b92915050565b60006102a0820190506135476000830184613059565b92915050565b6000602082019050818103600083015261356781846130b0565b905092915050565b600060608201905061358460008301866131da565b61359160208301856131cb565b61359e60408301846131f8565b949350505050565b60006080820190506135bb60008301876131da565b6135c860208301866131cb565b6135d560408301856131f8565b6135e260608301846134e4565b95945050505050565b6000602082019050818103600083015261360481613207565b9050919050565b6000602082019050818103600083015261362481613247565b9050919050565b6000602082019050818103600083015261364481613287565b9050919050565b6000611b2082019050613661600083018461339a565b92915050565b600060c08201905061367c600083018461345a565b92915050565b600060208201905061369760008301846134e4565b92915050565b6000604051905081810181811067ffffffffffffffff821117156136c057600080fd5b8060405250919050565b600067ffffffffffffffff8211156136e157600080fd5b602082029050602081019050919050565b6000819050602082019050919050565b6000819050919050565b6000819050919050565b6000819050919050565b6000819050602082019050919050565b6000819050919050565b6000819050919050565b600081519050919050565b600060039050919050565b600060039050919050565b600060039050919050565b600081519050919050565b600060069050919050565b600060069050919050565b6000602082019050919050565b6000602082019050919050565b6000602082019050919050565b6000602082019050919050565b6000602082019050919050565b6000602082019050919050565b6000602082019050919050565b600082825260208201905092915050565b600081905092915050565b600081905092915050565b600081905092915050565b600082825260208201905092915050565b600081905092915050565b600081905092915050565b600082825260208201905092915050565b6000613861826138ad565b9050919050565b60008115159050919050565b60008190506138828261390d565b919050565b60008190506138958261391a565b919050565b60008190506138a882613927565b919050565b600073ffffffffffffffffffffffffffffffffffffffff82169050919050565b6000819050919050565b60006138e282613874565b9050919050565b60006138f482613887565b9050919050565b60006139068261389a565b9050919050565b6003811061391757fe5b50565b6002811061392457fe5b50565b6006811061393157fe5b50565b61393d81613856565b811461394857600080fd5b50565b6003811061395857600080fd5b50565b6002811061396857600080fd5b50565b6006811061397857600080fd5b50565b613984816138cd565b811461398f57600080fd5b5056fea26469706673582212204355d276429f3077f4d382c7c8ba16f1db07da6f0452b8f4d6943fa8948a4a9e64736f6c634300060c0033",
			"opcodes": "PUSH1 0x80 PUSH1 0x40 MSTORE CALLVALUE DUP1 ISZERO PUSH2 0x10 JUMPI PUSH1 0x0 DUP1 REVERT JUMPDEST POP PUSH2 0x39C8 DUP1 PUSH2 0x20 PUSH1 0x0 CODECOPY PUSH1 0x0 RETURN INVALID PUSH1 0x80 PUSH1 0x40 MSTORE CALLVALUE DUP1 ISZERO PUSH2 0x10 JUMPI PUSH1 0x0 DUP1 REVERT JUMPDEST POP PUSH1 0x4 CALLDATASIZE LT PUSH2 0xCF JUMPI PUSH1 0x0 CALLDATALOAD PUSH1 0xE0 SHR DUP1 PUSH4 0x6584D3F6 GT PUSH2 0x8C JUMPI DUP1 PUSH4 0x9B4A7A1A GT PUSH2 0x66 JUMPI DUP1 PUSH4 0x9B4A7A1A EQ PUSH2 0x204 JUMPI DUP1 PUSH4 0xAACF1419 EQ PUSH2 0x222 JUMPI DUP1 PUSH4 0xBE8D9C52 EQ PUSH2 0x23E JUMPI DUP1 PUSH4 0xBE92E1B5 EQ PUSH2 0x25A JUMPI PUSH2 0xCF JUMP JUMPDEST DUP1 PUSH4 0x6584D3F6 EQ PUSH2 0x1AC JUMPI DUP1 PUSH4 0x666E25DE EQ PUSH2 0x1B6 JUMPI DUP1 PUSH4 0x7BA8AD21 EQ PUSH2 0x1E6 JUMPI PUSH2 0xCF JUMP JUMPDEST DUP1 PUSH4 0x69FA00C EQ PUSH2 0xD4 JUMPI DUP1 PUSH4 0x2043285D EQ PUSH2 0xF2 JUMPI DUP1 PUSH4 0x354528E8 EQ PUSH2 0x110 JUMPI DUP1 PUSH4 0x491F8076 EQ PUSH2 0x12E JUMPI DUP1 PUSH4 0x524BC34A EQ PUSH2 0x14C JUMPI DUP1 PUSH4 0x57D8DF5A EQ PUSH2 0x17C JUMPI JUMPDEST PUSH1 0x0 DUP1 REVERT JUMPDEST PUSH2 0xDC PUSH2 0x278 JUMP JUMPDEST PUSH1 0x40 MLOAD PUSH2 0xE9 SWAP2 SWAP1 PUSH2 0x3531 JUMP JUMPDEST PUSH1 0x40 MLOAD DUP1 SWAP2 SUB SWAP1 RETURN JUMPDEST PUSH2 0xFA PUSH2 0x732 JUMP JUMPDEST PUSH1 0x40 MLOAD PUSH2 0x107 SWAP2 SWAP1 PUSH2 0x34F3 JUMP JUMPDEST PUSH1 0x40 MLOAD DUP1 SWAP2 SUB SWAP1 RETURN JUMPDEST PUSH2 0x118 PUSH2 0x7C0 JUMP JUMPDEST PUSH1 0x40 MLOAD PUSH2 0x125 SWAP2 SWAP1 PUSH2 0x354D JUMP JUMPDEST PUSH1 0x40 MLOAD DUP1 SWAP2 SUB SWAP1 RETURN JUMPDEST PUSH2 0x136 PUSH2 0xB73 JUMP JUMPDEST PUSH1 0x40 MLOAD PUSH2 0x143 SWAP2 SWAP1 PUSH2 0x3515 JUMP JUMPDEST PUSH1 0x40 MLOAD DUP1 SWAP2 SUB SWAP1 RETURN JUMPDEST PUSH2 0x166 PUSH1 0x4 DUP1 CALLDATASIZE SUB DUP2 ADD SWAP1 PUSH2 0x161 SWAP2 SWAP1 PUSH2 0x2D8A JUMP JUMPDEST PUSH2 0xC53 JUMP JUMPDEST PUSH1 0x40 MLOAD PUSH2 0x173 SWAP2 SWAP1 PUSH2 0x3682 JUMP JUMPDEST PUSH1 0x40 MLOAD DUP1 SWAP2 SUB SWAP1 RETURN JUMPDEST PUSH2 0x196 PUSH1 0x4 DUP1 CALLDATASIZE SUB DUP2 ADD SWAP1 PUSH2 0x191 SWAP2 SWAP1 PUSH2 0x2CFE JUMP JUMPDEST PUSH2 0x11B4 JUMP JUMPDEST PUSH1 0x40 MLOAD PUSH2 0x1A3 SWAP2 SWAP1 PUSH2 0x364B JUMP JUMPDEST PUSH1 0x40 MLOAD DUP1 SWAP2 SUB SWAP1 RETURN JUMPDEST PUSH2 0x1B4 PUSH2 0x14A7 JUMP JUMPDEST STOP JUMPDEST PUSH2 0x1D0 PUSH1 0x4 DUP1 CALLDATASIZE SUB DUP2 ADD SWAP1 PUSH2 0x1CB SWAP2 SWAP1 PUSH2 0x2D27 JUMP JUMPDEST PUSH2 0x16BA JUMP JUMPDEST PUSH1 0x40 MLOAD PUSH2 0x1DD SWAP2 SWAP1 PUSH2 0x3667 JUMP JUMPDEST PUSH1 0x40 MLOAD DUP1 SWAP2 SUB SWAP1 RETURN JUMPDEST PUSH2 0x1EE PUSH2 0x196B JUMP JUMPDEST PUSH1 0x40 MLOAD PUSH2 0x1FB SWAP2 SWAP1 PUSH2 0x364B JUMP JUMPDEST PUSH1 0x40 MLOAD DUP1 SWAP2 SUB SWAP1 RETURN JUMPDEST PUSH2 0x20C PUSH2 0x1D4D JUMP JUMPDEST PUSH1 0x40 MLOAD PUSH2 0x219 SWAP2 SWAP1 PUSH2 0x3515 JUMP JUMPDEST PUSH1 0x40 MLOAD DUP1 SWAP2 SUB SWAP1 RETURN JUMPDEST PUSH2 0x23C PUSH1 0x4 DUP1 CALLDATASIZE SUB DUP2 ADD SWAP1 PUSH2 0x237 SWAP2 SWAP1 PUSH2 0x2D27 JUMP JUMPDEST PUSH2 0x1DF9 JUMP JUMPDEST STOP JUMPDEST PUSH2 0x258 PUSH1 0x4 DUP1 CALLDATASIZE SUB DUP2 ADD SWAP1 PUSH2 0x253 SWAP2 SWAP1 PUSH2 0x2E01 JUMP JUMPDEST PUSH2 0x20C9 JUMP JUMPDEST STOP JUMPDEST PUSH2 0x262 PUSH2 0x24CB JUMP JUMPDEST PUSH1 0x40 MLOAD PUSH2 0x26F SWAP2 SWAP1 PUSH2 0x3515 JUMP JUMPDEST PUSH1 0x40 MLOAD DUP1 SWAP2 SUB SWAP1 RETURN JUMPDEST PUSH2 0x280 PUSH2 0x2901 JUMP JUMPDEST PUSH2 0x288 PUSH2 0x292E JUMP JUMPDEST PUSH2 0x290 PUSH2 0xB73 JUMP JUMPDEST SWAP1 POP PUSH2 0x29A PUSH2 0x295B JUMP JUMPDEST PUSH1 0x40 MLOAD DUP1 PUSH1 0x60 ADD PUSH1 0x40 MSTORE DUP1 PUSH1 0x40 MLOAD DUP1 PUSH1 0xE0 ADD PUSH1 0x40 MSTORE DUP1 DUP6 PUSH1 0x0 PUSH1 0x3 DUP2 LT PUSH2 0x2BD JUMPI INVALID JUMPDEST PUSH1 0x20 MUL ADD MLOAD PUSH1 0x0 PUSH1 0x6 DUP2 LT PUSH2 0x2CE JUMPI INVALID JUMPDEST PUSH1 0x20 MUL ADD MLOAD DUP2 MSTORE PUSH1 0x20 ADD DUP6 PUSH1 0x0 PUSH1 0x3 DUP2 LT PUSH2 0x2E5 JUMPI INVALID JUMPDEST PUSH1 0x20 MUL ADD MLOAD PUSH1 0x1 PUSH1 0x6 DUP2 LT PUSH2 0x2F6 JUMPI INVALID JUMPDEST PUSH1 0x20 MUL ADD MLOAD DUP2 MSTORE PUSH1 0x20 ADD DUP6 PUSH1 0x0 PUSH1 0x3 DUP2 LT PUSH2 0x30D JUMPI INVALID JUMPDEST PUSH1 0x20 MUL ADD MLOAD PUSH1 0x2 PUSH1 0x6 DUP2 LT PUSH2 0x31E JUMPI INVALID JUMPDEST PUSH1 0x20 MUL ADD MLOAD DUP2 MSTORE PUSH1 0x20 ADD DUP6 PUSH1 0x0 PUSH1 0x3 DUP2 LT PUSH2 0x335 JUMPI INVALID JUMPDEST PUSH1 0x20 MUL ADD MLOAD PUSH1 0x3 PUSH1 0x6 DUP2 LT PUSH2 0x346 JUMPI INVALID JUMPDEST PUSH1 0x20 MUL ADD MLOAD DUP2 MSTORE PUSH1 0x20 ADD DUP6 PUSH1 0x0 PUSH1 0x3 DUP2 LT PUSH2 0x35D JUMPI INVALID JUMPDEST PUSH1 0x20 MUL ADD MLOAD PUSH1 0x4 PUSH1 0x6 DUP2 LT PUSH2 0x36E JUMPI INVALID JUMPDEST PUSH1 0x20 MUL ADD MLOAD DUP2 MSTORE PUSH1 0x20 ADD PUSH1 0x2 DUP7 PUSH1 0x0 PUSH1 0x3 DUP2 LT PUSH2 0x387 JUMPI INVALID JUMPDEST PUSH1 0x20 MUL ADD MLOAD PUSH1 0x5 PUSH1 0x6 DUP2 LT PUSH2 0x398 JUMPI INVALID JUMPDEST PUSH1 0x20 MUL ADD MLOAD DUP8 PUSH1 0x0 PUSH1 0x3 DUP2 LT PUSH2 0x3AA JUMPI INVALID JUMPDEST PUSH1 0x20 MUL ADD MLOAD PUSH1 0x4 PUSH1 0x6 DUP2 LT PUSH2 0x3BB JUMPI INVALID JUMPDEST PUSH1 0x20 MUL ADD MLOAD ADD DUP2 PUSH2 0x3C8 JUMPI INVALID JUMPDEST DIV DUP2 MSTORE PUSH1 0x20 ADD DUP6 PUSH1 0x0 PUSH1 0x3 DUP2 LT PUSH2 0x3DB JUMPI INVALID JUMPDEST PUSH1 0x20 MUL ADD MLOAD PUSH1 0x5 PUSH1 0x6 DUP2 LT PUSH2 0x3EC JUMPI INVALID JUMPDEST PUSH1 0x20 MUL ADD MLOAD DUP2 MSTORE POP DUP2 MSTORE PUSH1 0x20 ADD PUSH1 0x40 MLOAD DUP1 PUSH1 0xE0 ADD PUSH1 0x40 MSTORE DUP1 DUP6 PUSH1 0x1 PUSH1 0x3 DUP2 LT PUSH2 0x411 JUMPI INVALID JUMPDEST PUSH1 0x20 MUL ADD MLOAD PUSH1 0x0 PUSH1 0x6 DUP2 LT PUSH2 0x422 JUMPI INVALID JUMPDEST PUSH1 0x20 MUL ADD MLOAD DUP2 MSTORE PUSH1 0x20 ADD DUP6 PUSH1 0x1 PUSH1 0x3 DUP2 LT PUSH2 0x439 JUMPI INVALID JUMPDEST PUSH1 0x20 MUL ADD MLOAD PUSH1 0x1 PUSH1 0x6 DUP2 LT PUSH2 0x44A JUMPI INVALID JUMPDEST PUSH1 0x20 MUL ADD MLOAD DUP2 MSTORE PUSH1 0x20 ADD DUP6 PUSH1 0x1 PUSH1 0x3 DUP2 LT PUSH2 0x461 JUMPI INVALID JUMPDEST PUSH1 0x20 MUL ADD MLOAD PUSH1 0x2 PUSH1 0x6 DUP2 LT PUSH2 0x472 JUMPI INVALID JUMPDEST PUSH1 0x20 MUL ADD MLOAD DUP2 MSTORE PUSH1 0x20 ADD DUP6 PUSH1 0x1 PUSH1 0x3 DUP2 LT PUSH2 0x489 JUMPI INVALID JUMPDEST PUSH1 0x20 MUL ADD MLOAD PUSH1 0x3 PUSH1 0x6 DUP2 LT PUSH2 0x49A JUMPI INVALID JUMPDEST PUSH1 0x20 MUL ADD MLOAD DUP2 MSTORE PUSH1 0x20 ADD DUP6 PUSH1 0x1 PUSH1 0x3 DUP2 LT PUSH2 0x4B1 JUMPI INVALID JUMPDEST PUSH1 0x20 MUL ADD MLOAD PUSH1 0x4 PUSH1 0x6 DUP2 LT PUSH2 0x4C2 JUMPI INVALID JUMPDEST PUSH1 0x20 MUL ADD MLOAD DUP2 MSTORE PUSH1 0x20 ADD PUSH1 0x2 DUP7 PUSH1 0x1 PUSH1 0x3 DUP2 LT PUSH2 0x4DB JUMPI INVALID JUMPDEST PUSH1 0x20 MUL ADD MLOAD PUSH1 0x5 PUSH1 0x6 DUP2 LT PUSH2 0x4EC JUMPI INVALID JUMPDEST PUSH1 0x20 MUL ADD MLOAD DUP8 PUSH1 0x1 PUSH1 0x3 DUP2 LT PUSH2 0x4FE JUMPI INVALID JUMPDEST PUSH1 0x20 MUL ADD MLOAD PUSH1 0x4 PUSH1 0x6 DUP2 LT PUSH2 0x50F JUMPI INVALID JUMPDEST PUSH1 0x20 MUL ADD MLOAD ADD DUP2 PUSH2 0x51C JUMPI INVALID JUMPDEST DIV DUP2 MSTORE PUSH1 0x20 ADD DUP6 PUSH1 0x1 PUSH1 0x3 DUP2 LT PUSH2 0x52F JUMPI INVALID JUMPDEST PUSH1 0x20 MUL ADD MLOAD PUSH1 0x5 PUSH1 0x6 DUP2 LT PUSH2 0x540 JUMPI INVALID JUMPDEST PUSH1 0x20 MUL ADD MLOAD DUP2 MSTORE POP DUP2 MSTORE PUSH1 0x20 ADD PUSH1 0x40 MLOAD DUP1 PUSH1 0xE0 ADD PUSH1 0x40 MSTORE DUP1 DUP6 PUSH1 0x2 PUSH1 0x3 DUP2 LT PUSH2 0x565 JUMPI INVALID JUMPDEST PUSH1 0x20 MUL ADD MLOAD PUSH1 0x0 PUSH1 0x6 DUP2 LT PUSH2 0x576 JUMPI INVALID JUMPDEST PUSH1 0x20 MUL ADD MLOAD DUP2 MSTORE PUSH1 0x20 ADD DUP6 PUSH1 0x2 PUSH1 0x3 DUP2 LT PUSH2 0x58D JUMPI INVALID JUMPDEST PUSH1 0x20 MUL ADD MLOAD PUSH1 0x1 PUSH1 0x6 DUP2 LT PUSH2 0x59E JUMPI INVALID JUMPDEST PUSH1 0x20 MUL ADD MLOAD DUP2 MSTORE PUSH1 0x20 ADD DUP6 PUSH1 0x2 PUSH1 0x3 DUP2 LT PUSH2 0x5B5 JUMPI INVALID JUMPDEST PUSH1 0x20 MUL ADD MLOAD PUSH1 0x2 PUSH1 0x6 DUP2 LT PUSH2 0x5C6 JUMPI INVALID JUMPDEST PUSH1 0x20 MUL ADD MLOAD DUP2 MSTORE PUSH1 0x20 ADD DUP6 PUSH1 0x2 PUSH1 0x3 DUP2 LT PUSH2 0x5DD JUMPI INVALID JUMPDEST PUSH1 0x20 MUL ADD MLOAD PUSH1 0x3 PUSH1 0x6 DUP2 LT PUSH2 0x5EE JUMPI INVALID JUMPDEST PUSH1 0x20 MUL ADD MLOAD DUP2 MSTORE PUSH1 0x20 ADD DUP6 PUSH1 0x2 PUSH1 0x3 DUP2 LT PUSH2 0x605 JUMPI INVALID JUMPDEST PUSH1 0x20 MUL ADD MLOAD PUSH1 0x4 PUSH1 0x6 DUP2 LT PUSH2 0x616 JUMPI INVALID JUMPDEST PUSH1 0x20 MUL ADD MLOAD DUP2 MSTORE PUSH1 0x20 ADD PUSH1 0x2 DUP7 PUSH1 0x2 PUSH1 0x3 DUP2 LT PUSH2 0x62F JUMPI INVALID JUMPDEST PUSH1 0x20 MUL ADD MLOAD PUSH1 0x5 PUSH1 0x6 DUP2 LT PUSH2 0x640 JUMPI INVALID JUMPDEST PUSH1 0x20 MUL ADD MLOAD DUP8 PUSH1 0x2 PUSH1 0x3 DUP2 LT PUSH2 0x652 JUMPI INVALID JUMPDEST PUSH1 0x20 MUL ADD MLOAD PUSH1 0x4 PUSH1 0x6 DUP2 LT PUSH2 0x663 JUMPI INVALID JUMPDEST PUSH1 0x20 MUL ADD MLOAD ADD DUP2 PUSH2 0x670 JUMPI INVALID JUMPDEST DIV DUP2 MSTORE PUSH1 0x20 ADD DUP6 PUSH1 0x2 PUSH1 0x3 DUP2 LT PUSH2 0x683 JUMPI INVALID JUMPDEST PUSH1 0x20 MUL ADD MLOAD PUSH1 0x5 PUSH1 0x6 DUP2 LT PUSH2 0x694 JUMPI INVALID JUMPDEST PUSH1 0x20 MUL ADD MLOAD DUP2 MSTORE POP DUP2 MSTORE POP SWAP1 POP PUSH2 0x6A9 PUSH2 0x2988 JUMP JUMPDEST PUSH2 0x6C3 DUP3 PUSH1 0x0 PUSH1 0x3 DUP2 LT PUSH2 0x6B9 JUMPI INVALID JUMPDEST PUSH1 0x20 MUL ADD MLOAD PUSH2 0x2577 JUMP JUMPDEST SWAP1 POP PUSH2 0x6CD PUSH2 0x2988 JUMP JUMPDEST PUSH2 0x6E7 DUP4 PUSH1 0x1 PUSH1 0x3 DUP2 LT PUSH2 0x6DD JUMPI INVALID JUMPDEST PUSH1 0x20 MUL ADD MLOAD PUSH2 0x2577 JUMP JUMPDEST SWAP1 POP PUSH2 0x6F1 PUSH2 0x2988 JUMP JUMPDEST PUSH2 0x70B DUP5 PUSH1 0x2 PUSH1 0x3 DUP2 LT PUSH2 0x701 JUMPI INVALID JUMPDEST PUSH1 0x20 MUL ADD MLOAD PUSH2 0x2577 JUMP JUMPDEST SWAP1 POP PUSH1 0x40 MLOAD DUP1 PUSH1 0x60 ADD PUSH1 0x40 MSTORE DUP1 DUP5 DUP2 MSTORE PUSH1 0x20 ADD DUP4 DUP2 MSTORE PUSH1 0x20 ADD DUP3 DUP2 MSTORE POP SWAP6 POP POP POP POP POP POP SWAP1 JUMP JUMPDEST PUSH1 0x60 PUSH1 0x1 DUP1 SLOAD DUP1 PUSH1 0x20 MUL PUSH1 0x20 ADD PUSH1 0x40 MLOAD SWAP1 DUP2 ADD PUSH1 0x40 MSTORE DUP1 SWAP3 SWAP2 SWAP1 DUP2 DUP2 MSTORE PUSH1 0x20 ADD DUP3 DUP1 SLOAD DUP1 ISZERO PUSH2 0x7B6 JUMPI PUSH1 0x20 MUL DUP3 ADD SWAP2 SWAP1 PUSH1 0x0 MSTORE PUSH1 0x20 PUSH1 0x0 KECCAK256 SWAP1 JUMPDEST DUP2 PUSH1 0x0 SWAP1 SLOAD SWAP1 PUSH2 0x100 EXP SWAP1 DIV PUSH20 0xFFFFFFFFFFFFFFFFFFFFFFFFFFFFFFFFFFFFFFFF AND PUSH20 0xFFFFFFFFFFFFFFFFFFFFFFFFFFFFFFFFFFFFFFFF AND DUP2 MSTORE PUSH1 0x20 ADD SWAP1 PUSH1 0x1 ADD SWAP1 DUP1 DUP4 GT PUSH2 0x76C JUMPI JUMPDEST POP POP POP POP POP SWAP1 POP SWAP1 JUMP JUMPDEST PUSH1 0x60 DUP1 PUSH1 0x1 DUP1 SLOAD SWAP1 POP PUSH8 0xFFFFFFFFFFFFFFFF DUP2 GT DUP1 ISZERO PUSH2 0x7DF JUMPI PUSH1 0x0 DUP1 REVERT JUMPDEST POP PUSH1 0x40 MLOAD SWAP1 DUP1 DUP3 MSTORE DUP1 PUSH1 0x20 MUL PUSH1 0x20 ADD DUP3 ADD PUSH1 0x40 MSTORE DUP1 ISZERO PUSH2 0x819 JUMPI DUP2 PUSH1 0x20 ADD JUMPDEST PUSH2 0x806 PUSH2 0x29C5 JUMP JUMPDEST DUP2 MSTORE PUSH1 0x20 ADD SWAP1 PUSH1 0x1 SWAP1 SUB SWAP1 DUP2 PUSH2 0x7FE JUMPI SWAP1 POP JUMPDEST POP SWAP1 POP PUSH1 0x0 JUMPDEST PUSH1 0x1 DUP1 SLOAD SWAP1 POP DUP2 LT ISZERO PUSH2 0xB6B JUMPI PUSH1 0x0 DUP1 PUSH1 0x1 DUP4 DUP2 SLOAD DUP2 LT PUSH2 0x83C JUMPI INVALID JUMPDEST SWAP1 PUSH1 0x0 MSTORE PUSH1 0x20 PUSH1 0x0 KECCAK256 ADD PUSH1 0x0 SWAP1 SLOAD SWAP1 PUSH2 0x100 EXP SWAP1 DIV PUSH20 0xFFFFFFFFFFFFFFFFFFFFFFFFFFFFFFFFFFFFFFFF AND PUSH20 0xFFFFFFFFFFFFFFFFFFFFFFFFFFFFFFFFFFFFFFFF AND PUSH20 0xFFFFFFFFFFFFFFFFFFFFFFFFFFFFFFFFFFFFFFFF AND DUP2 MSTORE PUSH1 0x20 ADD SWAP1 DUP2 MSTORE PUSH1 0x20 ADD PUSH1 0x0 KECCAK256 PUSH1 0x40 MLOAD DUP1 PUSH1 0x60 ADD PUSH1 0x40 MSTORE SWAP1 DUP2 PUSH1 0x0 DUP3 ADD PUSH1 0x3 DUP1 PUSH1 0x20 MUL PUSH1 0x40 MLOAD SWAP1 DUP2 ADD PUSH1 0x40 MSTORE DUP1 SWAP3 SWAP2 SWAP1 PUSH1 0x0 SWAP1 JUMPDEST DUP3 DUP3 LT ISZERO PUSH2 0x9E4 JUMPI DUP4 DUP3 PUSH1 0x1E MUL ADD PUSH1 0x6 DUP1 PUSH1 0x20 MUL PUSH1 0x40 MLOAD SWAP1 DUP2 ADD PUSH1 0x40 MSTORE DUP1 SWAP3 SWAP2 SWAP1 PUSH1 0x0 SWAP1 JUMPDEST DUP3 DUP3 LT ISZERO PUSH2 0x9D1 JUMPI DUP4 DUP3 PUSH1 0x5 MUL ADD PUSH1 0x40 MLOAD DUP1 PUSH1 0xC0 ADD PUSH1 0x40 MSTORE SWAP1 DUP2 PUSH1 0x0 DUP3 ADD PUSH1 0x0 SWAP1 SLOAD SWAP1 PUSH2 0x100 EXP SWAP1 DIV PUSH1 0xFF AND PUSH1 0x5 DUP2 GT ISZERO PUSH2 0x924 JUMPI INVALID JUMPDEST PUSH1 0x5 DUP2 GT ISZERO PUSH2 0x92F JUMPI INVALID JUMPDEST DUP2 MSTORE PUSH1 0x20 ADD PUSH1 0x1 DUP3 ADD SLOAD DUP2 MSTORE PUSH1 0x20 ADD PUSH1 0x2 DUP3 ADD SLOAD DUP2 MSTORE PUSH1 0x20 ADD PUSH1 0x3 DUP3 ADD SLOAD DUP2 MSTORE PUSH1 0x20 ADD PUSH1 0x4 DUP3 ADD PUSH1 0x0 SWAP1 SLOAD SWAP1 PUSH2 0x100 EXP SWAP1 DIV PUSH1 0xFF AND ISZERO ISZERO ISZERO ISZERO DUP2 MSTORE PUSH1 0x20 ADD PUSH1 0x4 DUP3 ADD PUSH1 0x1 SWAP1 SLOAD SWAP1 PUSH2 0x100 EXP SWAP1 DIV PUSH20 0xFFFFFFFFFFFFFFFFFFFFFFFFFFFFFFFFFFFFFFFF AND PUSH20 0xFFFFFFFFFFFFFFFFFFFFFFFFFFFFFFFFFFFFFFFF AND PUSH20 0xFFFFFFFFFFFFFFFFFFFFFFFFFFFFFFFFFFFFFFFF AND DUP2 MSTORE POP POP DUP2 MSTORE PUSH1 0x20 ADD SWAP1 PUSH1 0x1 ADD SWAP1 PUSH2 0x8ED JUMP JUMPDEST POP POP POP POP DUP2 MSTORE PUSH1 0x20 ADD SWAP1 PUSH1 0x1 ADD SWAP1 PUSH2 0x8C8 JUMP JUMPDEST POP POP POP POP DUP2 MSTORE PUSH1 0x20 ADD PUSH1 0x5A DUP3 ADD PUSH1 0x3 DUP1 PUSH1 0x20 MUL PUSH1 0x40 MLOAD SWAP1 DUP2 ADD PUSH1 0x40 MSTORE DUP1 SWAP3 SWAP2 SWAP1 PUSH1 0x0 SWAP1 JUMPDEST DUP3 DUP3 LT ISZERO PUSH2 0xB24 JUMPI DUP4 DUP3 PUSH1 0x1E MUL ADD PUSH1 0x6 DUP1 PUSH1 0x20 MUL PUSH1 0x40 MLOAD SWAP1 DUP2 ADD PUSH1 0x40 MSTORE DUP1 SWAP3 SWAP2 SWAP1 PUSH1 0x0 SWAP1 JUMPDEST DUP3 DUP3 LT ISZERO PUSH2 0xB11 JUMPI DUP4 DUP3 PUSH1 0x5 MUL ADD PUSH1 0x40 MLOAD DUP1 PUSH1 0xC0 ADD PUSH1 0x40 MSTORE SWAP1 DUP2 PUSH1 0x0 DUP3 ADD PUSH1 0x0 SWAP1 SLOAD SWAP1 PUSH2 0x100 EXP SWAP1 DIV PUSH1 0xFF AND PUSH1 0x5 DUP2 GT ISZERO PUSH2 0xA64 JUMPI INVALID JUMPDEST PUSH1 0x5 DUP2 GT ISZERO PUSH2 0xA6F JUMPI INVALID JUMPDEST DUP2 MSTORE PUSH1 0x20 ADD PUSH1 0x1 DUP3 ADD SLOAD DUP2 MSTORE PUSH1 0x20 ADD PUSH1 0x2 DUP3 ADD SLOAD DUP2 MSTORE PUSH1 0x20 ADD PUSH1 0x3 DUP3 ADD SLOAD DUP2 MSTORE PUSH1 0x20 ADD PUSH1 0x4 DUP3 ADD PUSH1 0x0 SWAP1 SLOAD SWAP1 PUSH2 0x100 EXP SWAP1 DIV PUSH1 0xFF AND ISZERO ISZERO ISZERO ISZERO DUP2 MSTORE PUSH1 0x20 ADD PUSH1 0x4 DUP3 ADD PUSH1 0x1 SWAP1 SLOAD SWAP1 PUSH2 0x100 EXP SWAP1 DIV PUSH20 0xFFFFFFFFFFFFFFFFFFFFFFFFFFFFFFFFFFFFFFFF AND PUSH20 0xFFFFFFFFFFFFFFFFFFFFFFFFFFFFFFFFFFFFFFFF AND PUSH20 0xFFFFFFFFFFFFFFFFFFFFFFFFFFFFFFFFFFFFFFFF AND DUP2 MSTORE POP POP DUP2 MSTORE PUSH1 0x20 ADD SWAP1 PUSH1 0x1 ADD SWAP1 PUSH2 0xA2D JUMP JUMPDEST POP POP POP POP DUP2 MSTORE PUSH1 0x20 ADD SWAP1 PUSH1 0x1 ADD SWAP1 PUSH2 0xA08 JUMP JUMPDEST POP POP POP POP DUP2 MSTORE PUSH1 0x20 ADD PUSH1 0xB4 DUP3 ADD PUSH1 0x0 SWAP1 SLOAD SWAP1 PUSH2 0x100 EXP SWAP1 DIV PUSH1 0xFF AND ISZERO ISZERO ISZERO ISZERO DUP2 MSTORE POP POP DUP3 DUP3 DUP2 MLOAD DUP2 LT PUSH2 0xB53 JUMPI INVALID JUMPDEST PUSH1 0x20 MUL PUSH1 0x20 ADD ADD DUP2 SWAP1 MSTORE POP DUP1 DUP1 PUSH1 0x1 ADD SWAP2 POP POP PUSH2 0x81F JUMP JUMPDEST POP DUP1 SWAP2 POP POP SWAP1 JUMP JUMPDEST PUSH2 0xB7B PUSH2 0x292E JUMP JUMPDEST PUSH2 0xB83 PUSH2 0x29C5 JUMP JUMPDEST PUSH2 0xB8B PUSH2 0x196B JUMP JUMPDEST SWAP1 POP PUSH2 0xB95 PUSH2 0x292E JUMP JUMPDEST PUSH1 0x0 JUMPDEST PUSH1 0x3 DUP2 LT ISZERO PUSH2 0xC4A JUMPI PUSH1 0x0 JUMPDEST PUSH1 0x6 DUP2 LT ISZERO PUSH2 0xC3C JUMPI PUSH1 0x2 DUP5 PUSH1 0x20 ADD MLOAD DUP4 PUSH1 0x3 DUP2 LT PUSH2 0xBBF JUMPI INVALID JUMPDEST PUSH1 0x20 MUL ADD MLOAD DUP3 PUSH1 0x6 DUP2 LT PUSH2 0xBCF JUMPI INVALID JUMPDEST PUSH1 0x20 MUL ADD MLOAD PUSH1 0x40 ADD MLOAD DUP6 PUSH1 0x0 ADD MLOAD DUP5 PUSH1 0x3 DUP2 LT PUSH2 0xBE8 JUMPI INVALID JUMPDEST PUSH1 0x20 MUL ADD MLOAD DUP4 PUSH1 0x6 DUP2 LT PUSH2 0xBF8 JUMPI INVALID JUMPDEST PUSH1 0x20 MUL ADD MLOAD PUSH1 0x40 ADD MLOAD ADD DUP2 PUSH2 0xC09 JUMPI INVALID JUMPDEST DIV DUP4 DUP4 PUSH1 0x3 DUP2 LT PUSH2 0xC16 JUMPI INVALID JUMPDEST PUSH1 0x20 MUL ADD MLOAD DUP3 PUSH1 0x6 DUP2 LT PUSH2 0xC26 JUMPI INVALID JUMPDEST PUSH1 0x20 MUL ADD DUP2 DUP2 MSTORE POP POP DUP1 DUP1 PUSH1 0x1 ADD SWAP2 POP POP PUSH2 0xBA4 JUMP JUMPDEST POP DUP1 DUP1 PUSH1 0x1 ADD SWAP2 POP POP PUSH2 0xB98 JUMP JUMPDEST POP DUP1 SWAP3 POP POP POP SWAP1 JUMP JUMPDEST PUSH1 0x0 PUSH2 0xC5D PUSH2 0x29C5 JUMP JUMPDEST PUSH1 0x0 DUP1 DUP9 PUSH20 0xFFFFFFFFFFFFFFFFFFFFFFFFFFFFFFFFFFFFFFFF AND PUSH20 0xFFFFFFFFFFFFFFFFFFFFFFFFFFFFFFFFFFFFFFFF AND DUP2 MSTORE PUSH1 0x20 ADD SWAP1 DUP2 MSTORE PUSH1 0x20 ADD PUSH1 0x0 KECCAK256 PUSH1 0x40 MLOAD DUP1 PUSH1 0x60 ADD PUSH1 0x40 MSTORE SWAP1 DUP2 PUSH1 0x0 DUP3 ADD PUSH1 0x3 DUP1 PUSH1 0x20 MUL PUSH1 0x40 MLOAD SWAP1 DUP2 ADD PUSH1 0x40 MSTORE DUP1 SWAP3 SWAP2 SWAP1 PUSH1 0x0 SWAP1 JUMPDEST DUP3 DUP3 LT ISZERO PUSH2 0xDDE JUMPI DUP4 DUP3 PUSH1 0x1E MUL ADD PUSH1 0x6 DUP1 PUSH1 0x20 MUL PUSH1 0x40 MLOAD SWAP1 DUP2 ADD PUSH1 0x40 MSTORE DUP1 SWAP3 SWAP2 SWAP1 PUSH1 0x0 SWAP1 JUMPDEST DUP3 DUP3 LT ISZERO PUSH2 0xDCB JUMPI DUP4 DUP3 PUSH1 0x5 MUL ADD PUSH1 0x40 MLOAD DUP1 PUSH1 0xC0 ADD PUSH1 0x40 MSTORE SWAP1 DUP2 PUSH1 0x0 DUP3 ADD PUSH1 0x0 SWAP1 SLOAD SWAP1 PUSH2 0x100 EXP SWAP1 DIV PUSH1 0xFF AND PUSH1 0x5 DUP2 GT ISZERO PUSH2 0xD1E JUMPI INVALID JUMPDEST PUSH1 0x5 DUP2 GT ISZERO PUSH2 0xD29 JUMPI INVALID JUMPDEST DUP2 MSTORE PUSH1 0x20 ADD PUSH1 0x1 DUP3 ADD SLOAD DUP2 MSTORE PUSH1 0x20 ADD PUSH1 0x2 DUP3 ADD SLOAD DUP2 MSTORE PUSH1 0x20 ADD PUSH1 0x3 DUP3 ADD SLOAD DUP2 MSTORE PUSH1 0x20 ADD PUSH1 0x4 DUP3 ADD PUSH1 0x0 SWAP1 SLOAD SWAP1 PUSH2 0x100 EXP SWAP1 DIV PUSH1 0xFF AND ISZERO ISZERO ISZERO ISZERO DUP2 MSTORE PUSH1 0x20 ADD PUSH1 0x4 DUP3 ADD PUSH1 0x1 SWAP1 SLOAD SWAP1 PUSH2 0x100 EXP SWAP1 DIV PUSH20 0xFFFFFFFFFFFFFFFFFFFFFFFFFFFFFFFFFFFFFFFF AND PUSH20 0xFFFFFFFFFFFFFFFFFFFFFFFFFFFFFFFFFFFFFFFF AND PUSH20 0xFFFFFFFFFFFFFFFFFFFFFFFFFFFFFFFFFFFFFFFF AND DUP2 MSTORE POP POP DUP2 MSTORE PUSH1 0x20 ADD SWAP1 PUSH1 0x1 ADD SWAP1 PUSH2 0xCE7 JUMP JUMPDEST POP POP POP POP DUP2 MSTORE PUSH1 0x20 ADD SWAP1 PUSH1 0x1 ADD SWAP1 PUSH2 0xCC2 JUMP JUMPDEST POP POP POP POP DUP2 MSTORE PUSH1 0x20 ADD PUSH1 0x5A DUP3 ADD PUSH1 0x3 DUP1 PUSH1 0x20 MUL PUSH1 0x40 MLOAD SWAP1 DUP2 ADD PUSH1 0x40 MSTORE DUP1 SWAP3 SWAP2 SWAP1 PUSH1 0x0 SWAP1 JUMPDEST DUP3 DUP3 LT ISZERO PUSH2 0xF1E JUMPI DUP4 DUP3 PUSH1 0x1E MUL ADD PUSH1 0x6 DUP1 PUSH1 0x20 MUL PUSH1 0x40 MLOAD SWAP1 DUP2 ADD PUSH1 0x40 MSTORE DUP1 SWAP3 SWAP2 SWAP1 PUSH1 0x0 SWAP1 JUMPDEST DUP3 DUP3 LT ISZERO PUSH2 0xF0B JUMPI DUP4 DUP3 PUSH1 0x5 MUL ADD PUSH1 0x40 MLOAD DUP1 PUSH1 0xC0 ADD PUSH1 0x40 MSTORE SWAP1 DUP2 PUSH1 0x0 DUP3 ADD PUSH1 0x0 SWAP1 SLOAD SWAP1 PUSH2 0x100 EXP SWAP1 DIV PUSH1 0xFF AND PUSH1 0x5 DUP2 GT ISZERO PUSH2 0xE5E JUMPI INVALID JUMPDEST PUSH1 0x5 DUP2 GT ISZERO PUSH2 0xE69 JUMPI INVALID JUMPDEST DUP2 MSTORE PUSH1 0x20 ADD PUSH1 0x1 DUP3 ADD SLOAD DUP2 MSTORE PUSH1 0x20 ADD PUSH1 0x2 DUP3 ADD SLOAD DUP2 MSTORE PUSH1 0x20 ADD PUSH1 0x3 DUP3 ADD SLOAD DUP2 MSTORE PUSH1 0x20 ADD PUSH1 0x4 DUP3 ADD PUSH1 0x0 SWAP1 SLOAD SWAP1 PUSH2 0x100 EXP SWAP1 DIV PUSH1 0xFF AND ISZERO ISZERO ISZERO ISZERO DUP2 MSTORE PUSH1 0x20 ADD PUSH1 0x4 DUP3 ADD PUSH1 0x1 SWAP1 SLOAD SWAP1 PUSH2 0x100 EXP SWAP1 DIV PUSH20 0xFFFFFFFFFFFFFFFFFFFFFFFFFFFFFFFFFFFFFFFF AND PUSH20 0xFFFFFFFFFFFFFFFFFFFFFFFFFFFFFFFFFFFFFFFF AND PUSH20 0xFFFFFFFFFFFFFFFFFFFFFFFFFFFFFFFFFFFFFFFF AND DUP2 MSTORE POP POP DUP2 MSTORE PUSH1 0x20 ADD SWAP1 PUSH1 0x1 ADD SWAP1 PUSH2 0xE27 JUMP JUMPDEST POP POP POP POP DUP2 MSTORE PUSH1 0x20 ADD SWAP1 PUSH1 0x1 ADD SWAP1 PUSH2 0xE02 JUMP JUMPDEST POP POP POP POP DUP2 MSTORE PUSH1 0x20 ADD PUSH1 0xB4 DUP3 ADD PUSH1 0x0 SWAP1 SLOAD SWAP1 PUSH2 0x100 EXP SWAP1 DIV PUSH1 0xFF AND ISZERO ISZERO ISZERO ISZERO DUP2 MSTORE POP POP SWAP1 POP PUSH1 0x1 ISZERO ISZERO DUP2 PUSH1 0x40 ADD MLOAD ISZERO ISZERO EQ PUSH2 0xF8E JUMPI PUSH1 0x40 MLOAD PUSH32 0x8C379A000000000000000000000000000000000000000000000000000000000 DUP2 MSTORE PUSH1 0x4 ADD PUSH2 0xF85 SWAP1 PUSH2 0x362B JUMP JUMPDEST PUSH1 0x40 MLOAD DUP1 SWAP2 SUB SWAP1 REVERT JUMPDEST PUSH1 0x0 DUP1 PUSH1 0x1 DUP2 GT ISZERO PUSH2 0xF9C JUMPI INVALID JUMPDEST DUP8 PUSH1 0x1 DUP2 GT ISZERO PUSH2 0xFA8 JUMPI INVALID JUMPDEST EQ ISZERO PUSH2 0x102A JUMPI PUSH1 0x0 DUP1 DUP10 PUSH20 0xFFFFFFFFFFFFFFFFFFFFFFFFFFFFFFFFFFFFFFFF AND PUSH20 0xFFFFFFFFFFFFFFFFFFFFFFFFFFFFFFFFFFFFFFFF AND DUP2 MSTORE PUSH1 0x20 ADD SWAP1 DUP2 MSTORE PUSH1 0x20 ADD PUSH1 0x0 KECCAK256 PUSH1 0x0 ADD DUP7 PUSH1 0x2 DUP2 GT ISZERO PUSH2 0xFFB JUMPI INVALID JUMPDEST PUSH1 0x3 DUP2 LT PUSH2 0x1005 JUMPI INVALID JUMPDEST PUSH1 0x1E MUL ADD DUP6 PUSH1 0x5 DUP2 GT ISZERO PUSH2 0x1015 JUMPI INVALID JUMPDEST PUSH1 0x6 DUP2 LT PUSH2 0x101F JUMPI INVALID JUMPDEST PUSH1 0x5 MUL ADD SWAP1 POP PUSH2 0x10A2 JUMP JUMPDEST PUSH1 0x0 DUP1 DUP10 PUSH20 0xFFFFFFFFFFFFFFFFFFFFFFFFFFFFFFFFFFFFFFFF AND PUSH20 0xFFFFFFFFFFFFFFFFFFFFFFFFFFFFFFFFFFFFFFFF AND DUP2 MSTORE PUSH1 0x20 ADD SWAP1 DUP2 MSTORE PUSH1 0x20 ADD PUSH1 0x0 KECCAK256 PUSH1 0x5A ADD DUP7 PUSH1 0x2 DUP2 GT ISZERO PUSH2 0x1077 JUMPI INVALID JUMPDEST PUSH1 0x3 DUP2 LT PUSH2 0x1081 JUMPI INVALID JUMPDEST PUSH1 0x1E MUL ADD DUP6 PUSH1 0x5 DUP2 GT ISZERO PUSH2 0x1091 JUMPI INVALID JUMPDEST PUSH1 0x6 DUP2 LT PUSH2 0x109B JUMPI INVALID JUMPDEST PUSH1 0x5 MUL ADD SWAP1 POP JUMPDEST TIMESTAMP DUP2 PUSH1 0x3 ADD SLOAD LT ISZERO PUSH2 0x10F5 JUMPI PUSH2 0x10BA DUP9 DUP9 DUP9 DUP9 PUSH2 0x1DF9 JUMP JUMPDEST PUSH1 0x40 MLOAD PUSH32 0x8C379A000000000000000000000000000000000000000000000000000000000 DUP2 MSTORE PUSH1 0x4 ADD PUSH2 0x10EC SWAP1 PUSH2 0x360B JUMP JUMPDEST PUSH1 0x40 MLOAD DUP1 SWAP2 SUB SWAP1 REVERT JUMPDEST DUP4 DUP2 PUSH1 0x1 ADD SLOAD LT ISZERO PUSH2 0x113C JUMPI PUSH1 0x40 MLOAD PUSH32 0x8C379A000000000000000000000000000000000000000000000000000000000 DUP2 MSTORE PUSH1 0x4 ADD PUSH2 0x1133 SWAP1 PUSH2 0x35EB JUMP JUMPDEST PUSH1 0x40 MLOAD DUP1 SWAP2 SUB SWAP1 REVERT JUMPDEST DUP4 DUP2 PUSH1 0x1 ADD PUSH1 0x0 DUP3 DUP3 SLOAD SUB SWAP3 POP POP DUP2 SWAP1 SSTORE POP DUP8 PUSH20 0xFFFFFFFFFFFFFFFFFFFFFFFFFFFFFFFFFFFFFFFF AND PUSH32 0x5F81C4EEA5AC9520791F03AC8AAFA44C00B32D97C0335CABD8798510A8A66651 DUP9 DUP9 DUP9 DUP9 PUSH1 0x40 MLOAD PUSH2 0x119A SWAP5 SWAP4 SWAP3 SWAP2 SWAP1 PUSH2 0x35A6 JUMP JUMPDEST PUSH1 0x40 MLOAD DUP1 SWAP2 SUB SWAP1 LOG2 DUP1 PUSH1 0x2 ADD SLOAD SWAP3 POP POP POP SWAP6 SWAP5 POP POP POP POP POP JUMP JUMPDEST PUSH2 0x11BC PUSH2 0x29C5 JUMP JUMPDEST PUSH1 0x0 DUP1 DUP4 PUSH20 0xFFFFFFFFFFFFFFFFFFFFFFFFFFFFFFFFFFFFFFFF AND PUSH20 0xFFFFFFFFFFFFFFFFFFFFFFFFFFFFFFFFFFFFFFFF AND DUP2 MSTORE PUSH1 0x20 ADD SWAP1 DUP2 MSTORE PUSH1 0x20 ADD PUSH1 0x0 KECCAK256 PUSH1 0x40 MLOAD DUP1 PUSH1 0x60 ADD PUSH1 0x40 MSTORE SWAP1 DUP2 PUSH1 0x0 DUP3 ADD PUSH1 0x3 DUP1 PUSH1 0x20 MUL PUSH1 0x40 MLOAD SWAP1 DUP2 ADD PUSH1 0x40 MSTORE DUP1 SWAP3 SWAP2 SWAP1 PUSH1 0x0 SWAP1 JUMPDEST DUP3 DUP3 LT ISZERO PUSH2 0x133D JUMPI DUP4 DUP3 PUSH1 0x1E MUL ADD PUSH1 0x6 DUP1 PUSH1 0x20 MUL PUSH1 0x40 MLOAD SWAP1 DUP2 ADD PUSH1 0x40 MSTORE DUP1 SWAP3 SWAP2 SWAP1 PUSH1 0x0 SWAP1 JUMPDEST DUP3 DUP3 LT ISZERO PUSH2 0x132A JUMPI DUP4 DUP3 PUSH1 0x5 MUL ADD PUSH1 0x40 MLOAD DUP1 PUSH1 0xC0 ADD PUSH1 0x40 MSTORE SWAP1 DUP2 PUSH1 0x0 DUP3 ADD PUSH1 0x0 SWAP1 SLOAD SWAP1 PUSH2 0x100 EXP SWAP1 DIV PUSH1 0xFF AND PUSH1 0x5 DUP2 GT ISZERO PUSH2 0x127D JUMPI INVALID JUMPDEST PUSH1 0x5 DUP2 GT ISZERO PUSH2 0x1288 JUMPI INVALID JUMPDEST DUP2 MSTORE PUSH1 0x20 ADD PUSH1 0x1 DUP3 ADD SLOAD DUP2 MSTORE PUSH1 0x20 ADD PUSH1 0x2 DUP3 ADD SLOAD DUP2 MSTORE PUSH1 0x20 ADD PUSH1 0x3 DUP3 ADD SLOAD DUP2 MSTORE PUSH1 0x20 ADD PUSH1 0x4 DUP3 ADD PUSH1 0x0 SWAP1 SLOAD SWAP1 PUSH2 0x100 EXP SWAP1 DIV PUSH1 0xFF AND ISZERO ISZERO ISZERO ISZERO DUP2 MSTORE PUSH1 0x20 ADD PUSH1 0x4 DUP3 ADD PUSH1 0x1 SWAP1 SLOAD SWAP1 PUSH2 0x100 EXP SWAP1 DIV PUSH20 0xFFFFFFFFFFFFFFFFFFFFFFFFFFFFFFFFFFFFFFFF AND PUSH20 0xFFFFFFFFFFFFFFFFFFFFFFFFFFFFFFFFFFFFFFFF AND PUSH20 0xFFFFFFFFFFFFFFFFFFFFFFFFFFFFFFFFFFFFFFFF AND DUP2 MSTORE POP POP DUP2 MSTORE PUSH1 0x20 ADD SWAP1 PUSH1 0x1 ADD SWAP1 PUSH2 0x1246 JUMP JUMPDEST POP POP POP POP DUP2 MSTORE PUSH1 0x20 ADD SWAP1 PUSH1 0x1 ADD SWAP1 PUSH2 0x1221 JUMP JUMPDEST POP POP POP POP DUP2 MSTORE PUSH1 0x20 ADD PUSH1 0x5A DUP3 ADD PUSH1 0x3 DUP1 PUSH1 0x20 MUL PUSH1 0x40 MLOAD SWAP1 DUP2 ADD PUSH1 0x40 MSTORE DUP1 SWAP3 SWAP2 SWAP1 PUSH1 0x0 SWAP1 JUMPDEST DUP3 DUP3 LT ISZERO PUSH2 0x147D JUMPI DUP4 DUP3 PUSH1 0x1E MUL ADD PUSH1 0x6 DUP1 PUSH1 0x20 MUL PUSH1 0x40 MLOAD SWAP1 DUP2 ADD PUSH1 0x40 MSTORE DUP1 SWAP3 SWAP2 SWAP1 PUSH1 0x0 SWAP1 JUMPDEST DUP3 DUP3 LT ISZERO PUSH2 0x146A JUMPI DUP4 DUP3 PUSH1 0x5 MUL ADD PUSH1 0x40 MLOAD DUP1 PUSH1 0xC0 ADD PUSH1 0x40 MSTORE SWAP1 DUP2 PUSH1 0x0 DUP3 ADD PUSH1 0x0 SWAP1 SLOAD SWAP1 PUSH2 0x100 EXP SWAP1 DIV PUSH1 0xFF AND PUSH1 0x5 DUP2 GT ISZERO PUSH2 0x13BD JUMPI INVALID JUMPDEST PUSH1 0x5 DUP2 GT ISZERO PUSH2 0x13C8 JUMPI INVALID JUMPDEST DUP2 MSTORE PUSH1 0x20 ADD PUSH1 0x1 DUP3 ADD SLOAD DUP2 MSTORE PUSH1 0x20 ADD PUSH1 0x2 DUP3 ADD SLOAD DUP2 MSTORE PUSH1 0x20 ADD PUSH1 0x3 DUP3 ADD SLOAD DUP2 MSTORE PUSH1 0x20 ADD PUSH1 0x4 DUP3 ADD PUSH1 0x0 SWAP1 SLOAD SWAP1 PUSH2 0x100 EXP SWAP1 DIV PUSH1 0xFF AND ISZERO ISZERO ISZERO ISZERO DUP2 MSTORE PUSH1 0x20 ADD PUSH1 0x4 DUP3 ADD PUSH1 0x1 SWAP1 SLOAD SWAP1 PUSH2 0x100 EXP SWAP1 DIV PUSH20 0xFFFFFFFFFFFFFFFFFFFFFFFFFFFFFFFFFFFFFFFF AND PUSH20 0xFFFFFFFFFFFFFFFFFFFFFFFFFFFFFFFFFFFFFFFF AND PUSH20 0xFFFFFFFFFFFFFFFFFFFFFFFFFFFFFFFFFFFFFFFF AND DUP2 MSTORE POP POP DUP2 MSTORE PUSH1 0x20 ADD SWAP1 PUSH1 0x1 ADD SWAP1 PUSH2 0x1386 JUMP JUMPDEST POP POP POP POP DUP2 MSTORE PUSH1 0x20 ADD SWAP1 PUSH1 0x1 ADD SWAP1 PUSH2 0x1361 JUMP JUMPDEST POP POP POP POP DUP2 MSTORE PUSH1 0x20 ADD PUSH1 0xB4 DUP3 ADD PUSH1 0x0 SWAP1 SLOAD SWAP1 PUSH2 0x100 EXP SWAP1 DIV PUSH1 0xFF AND ISZERO ISZERO ISZERO ISZERO DUP2 MSTORE POP POP SWAP1 POP SWAP2 SWAP1 POP JUMP JUMPDEST PUSH1 0x1 ISZERO ISZERO PUSH1 0x0 DUP1 CALLER PUSH20 0xFFFFFFFFFFFFFFFFFFFFFFFFFFFFFFFFFFFFFFFF AND PUSH20 0xFFFFFFFFFFFFFFFFFFFFFFFFFFFFFFFFFFFFFFFF AND DUP2 MSTORE PUSH1 0x20 ADD SWAP1 DUP2 MSTORE PUSH1 0x20 ADD PUSH1 0x0 KECCAK256 PUSH1 0xB4 ADD PUSH1 0x0 SWAP1 SLOAD SWAP1 PUSH2 0x100 EXP SWAP1 DIV PUSH1 0xFF AND ISZERO ISZERO EQ PUSH2 0x153C JUMPI PUSH1 0x40 MLOAD PUSH32 0x8C379A000000000000000000000000000000000000000000000000000000000 DUP2 MSTORE PUSH1 0x4 ADD PUSH2 0x1533 SWAP1 PUSH2 0x362B JUMP JUMPDEST PUSH1 0x40 MLOAD DUP1 SWAP2 SUB SWAP1 REVERT JUMPDEST PUSH1 0x0 DUP1 CALLER PUSH20 0xFFFFFFFFFFFFFFFFFFFFFFFFFFFFFFFFFFFFFFFF AND PUSH20 0xFFFFFFFFFFFFFFFFFFFFFFFFFFFFFFFFFFFFFFFF AND DUP2 MSTORE PUSH1 0x20 ADD SWAP1 DUP2 MSTORE PUSH1 0x20 ADD PUSH1 0x0 KECCAK256 PUSH1 0x0 DUP1 DUP3 ADD PUSH1 0x0 PUSH2 0x158B SWAP2 SWAP1 PUSH2 0x29F4 JUMP JUMPDEST PUSH1 0x5A DUP3 ADD PUSH1 0x0 PUSH2 0x159B SWAP2 SWAP1 PUSH2 0x29F4 JUMP JUMPDEST PUSH1 0xB4 DUP3 ADD PUSH1 0x0 PUSH2 0x100 EXP DUP2 SLOAD SWAP1 PUSH1 0xFF MUL NOT AND SWAP1 SSTORE POP POP PUSH1 0x0 JUMPDEST PUSH1 0x1 DUP1 SLOAD SWAP1 POP DUP2 LT ISZERO PUSH2 0x1674 JUMPI CALLER PUSH20 0xFFFFFFFFFFFFFFFFFFFFFFFFFFFFFFFFFFFFFFFF AND PUSH1 0x1 DUP3 DUP2 SLOAD DUP2 LT PUSH2 0x15E5 JUMPI INVALID JUMPDEST SWAP1 PUSH1 0x0 MSTORE PUSH1 0x20 PUSH1 0x0 KECCAK256 ADD PUSH1 0x0 SWAP1 SLOAD SWAP1 PUSH2 0x100 EXP SWAP1 DIV PUSH20 0xFFFFFFFFFFFFFFFFFFFFFFFFFFFFFFFFFFFFFFFF AND PUSH20 0xFFFFFFFFFFFFFFFFFFFFFFFFFFFFFFFFFFFFFFFF AND EQ ISZERO PUSH2 0x1667 JUMPI PUSH1 0x1 DUP2 DUP2 SLOAD DUP2 LT PUSH2 0x1639 JUMPI INVALID JUMPDEST SWAP1 PUSH1 0x0 MSTORE PUSH1 0x20 PUSH1 0x0 KECCAK256 ADD PUSH1 0x0 PUSH2 0x100 EXP DUP2 SLOAD SWAP1 PUSH20 0xFFFFFFFFFFFFFFFFFFFFFFFFFFFFFFFFFFFFFFFF MUL NOT AND SWAP1 SSTORE JUMPDEST DUP1 DUP1 PUSH1 0x1 ADD SWAP2 POP POP PUSH2 0x15B4 JUMP JUMPDEST POP CALLER PUSH20 0xFFFFFFFFFFFFFFFFFFFFFFFFFFFFFFFFFFFFFFFF AND PUSH32 0xF3ADA031BF975812D748CB98E9C22CBE201E0B219605F45DF2D40C7100AE8E81 PUSH1 0x40 MLOAD PUSH1 0x40 MLOAD DUP1 SWAP2 SUB SWAP1 LOG2 JUMP JUMPDEST PUSH2 0x16C2 PUSH2 0x2A27 JUMP JUMPDEST PUSH1 0x0 PUSH1 0x1 DUP2 GT ISZERO PUSH2 0x16CF JUMPI INVALID JUMPDEST DUP5 PUSH1 0x1 DUP2 GT ISZERO PUSH2 0x16DB JUMPI INVALID JUMPDEST EQ ISZERO PUSH2 0x1824 JUMPI PUSH1 0x0 DUP1 DUP7 PUSH20 0xFFFFFFFFFFFFFFFFFFFFFFFFFFFFFFFFFFFFFFFF AND PUSH20 0xFFFFFFFFFFFFFFFFFFFFFFFFFFFFFFFFFFFFFFFF AND DUP2 MSTORE PUSH1 0x20 ADD SWAP1 DUP2 MSTORE PUSH1 0x20 ADD PUSH1 0x0 KECCAK256 PUSH1 0x0 ADD DUP4 PUSH1 0x2 DUP2 GT ISZERO PUSH2 0x172E JUMPI INVALID JUMPDEST PUSH1 0x3 DUP2 LT PUSH2 0x1738 JUMPI INVALID JUMPDEST PUSH1 0x1E MUL ADD DUP3 PUSH1 0x5 DUP2 GT ISZERO PUSH2 0x1748 JUMPI INVALID JUMPDEST PUSH1 0x6 DUP2 LT PUSH2 0x1752 JUMPI INVALID JUMPDEST PUSH1 0x5 MUL ADD PUSH1 0x40 MLOAD DUP1 PUSH1 0xC0 ADD PUSH1 0x40 MSTORE SWAP1 DUP2 PUSH1 0x0 DUP3 ADD PUSH1 0x0 SWAP1 SLOAD SWAP1 PUSH2 0x100 EXP SWAP1 DIV PUSH1 0xFF AND PUSH1 0x5 DUP2 GT ISZERO PUSH2 0x177F JUMPI INVALID JUMPDEST PUSH1 0x5 DUP2 GT ISZERO PUSH2 0x178A JUMPI INVALID JUMPDEST DUP2 MSTORE PUSH1 0x20 ADD PUSH1 0x1 DUP3 ADD SLOAD DUP2 MSTORE PUSH1 0x20 ADD PUSH1 0x2 DUP3 ADD SLOAD DUP2 MSTORE PUSH1 0x20 ADD PUSH1 0x3 DUP3 ADD SLOAD DUP2 MSTORE PUSH1 0x20 ADD PUSH1 0x4 DUP3 ADD PUSH1 0x0 SWAP1 SLOAD SWAP1 PUSH2 0x100 EXP SWAP1 DIV PUSH1 0xFF AND ISZERO ISZERO ISZERO ISZERO DUP2 MSTORE PUSH1 0x20 ADD PUSH1 0x4 DUP3 ADD PUSH1 0x1 SWAP1 SLOAD SWAP1 PUSH2 0x100 EXP SWAP1 DIV PUSH20 0xFFFFFFFFFFFFFFFFFFFFFFFFFFFFFFFFFFFFFFFF AND PUSH20 0xFFFFFFFFFFFFFFFFFFFFFFFFFFFFFFFFFFFFFFFF AND PUSH20 0xFFFFFFFFFFFFFFFFFFFFFFFFFFFFFFFFFFFFFFFF AND DUP2 MSTORE POP POP SWAP1 POP PUSH2 0x1963 JUMP JUMPDEST PUSH1 0x0 DUP1 DUP7 PUSH20 0xFFFFFFFFFFFFFFFFFFFFFFFFFFFFFFFFFFFFFFFF AND PUSH20 0xFFFFFFFFFFFFFFFFFFFFFFFFFFFFFFFFFFFFFFFF AND DUP2 MSTORE PUSH1 0x20 ADD SWAP1 DUP2 MSTORE PUSH1 0x20 ADD PUSH1 0x0 KECCAK256 PUSH1 0x5A ADD DUP4 PUSH1 0x2 DUP2 GT ISZERO PUSH2 0x1871 JUMPI INVALID JUMPDEST PUSH1 0x3 DUP2 LT PUSH2 0x187B JUMPI INVALID JUMPDEST PUSH1 0x1E MUL ADD DUP3 PUSH1 0x5 DUP2 GT ISZERO PUSH2 0x188B JUMPI INVALID JUMPDEST PUSH1 0x6 DUP2 LT PUSH2 0x1895 JUMPI INVALID JUMPDEST PUSH1 0x5 MUL ADD PUSH1 0x40 MLOAD DUP1 PUSH1 0xC0 ADD PUSH1 0x40 MSTORE SWAP1 DUP2 PUSH1 0x0 DUP3 ADD PUSH1 0x0 SWAP1 SLOAD SWAP1 PUSH2 0x100 EXP SWAP1 DIV PUSH1 0xFF AND PUSH1 0x5 DUP2 GT ISZERO PUSH2 0x18C2 JUMPI INVALID JUMPDEST PUSH1 0x5 DUP2 GT ISZERO PUSH2 0x18CD JUMPI INVALID JUMPDEST DUP2 MSTORE PUSH1 0x20 ADD PUSH1 0x1 DUP3 ADD SLOAD DUP2 MSTORE PUSH1 0x20 ADD PUSH1 0x2 DUP3 ADD SLOAD DUP2 MSTORE PUSH1 0x20 ADD PUSH1 0x3 DUP3 ADD SLOAD DUP2 MSTORE PUSH1 0x20 ADD PUSH1 0x4 DUP3 ADD PUSH1 0x0 SWAP1 SLOAD SWAP1 PUSH2 0x100 EXP SWAP1 DIV PUSH1 0xFF AND ISZERO ISZERO ISZERO ISZERO DUP2 MSTORE PUSH1 0x20 ADD PUSH1 0x4 DUP3 ADD PUSH1 0x1 SWAP1 SLOAD SWAP1 PUSH2 0x100 EXP SWAP1 DIV PUSH20 0xFFFFFFFFFFFFFFFFFFFFFFFFFFFFFFFFFFFFFFFF AND PUSH20 0xFFFFFFFFFFFFFFFFFFFFFFFFFFFFFFFFFFFFFFFF AND PUSH20 0xFFFFFFFFFFFFFFFFFFFFFFFFFFFFFFFFFFFFFFFF AND DUP2 MSTORE POP POP SWAP1 POP JUMPDEST SWAP5 SWAP4 POP POP POP POP JUMP JUMPDEST PUSH2 0x1973 PUSH2 0x29C5 JUMP JUMPDEST PUSH2 0x197B PUSH2 0x29C5 JUMP JUMPDEST PUSH1 0x0 JUMPDEST PUSH1 0x3 DUP2 LT ISZERO PUSH2 0x1D34 JUMPI PUSH1 0x0 JUMPDEST PUSH1 0x6 DUP2 LT ISZERO PUSH2 0x1D26 JUMPI PUSH1 0x0 JUMPDEST PUSH1 0x1 DUP1 SLOAD SWAP1 POP DUP2 LT ISZERO PUSH2 0x1D18 JUMPI PUSH2 0x1B2F DUP5 PUSH1 0x0 ADD MLOAD DUP5 PUSH1 0x3 DUP2 LT PUSH2 0x19B6 JUMPI INVALID JUMPDEST PUSH1 0x20 MUL ADD MLOAD DUP4 PUSH1 0x6 DUP2 LT PUSH2 0x19C6 JUMPI INVALID JUMPDEST PUSH1 0x20 MUL ADD MLOAD PUSH1 0x0 DUP1 PUSH1 0x1 DUP6 DUP2 SLOAD DUP2 LT PUSH2 0x19DB JUMPI INVALID JUMPDEST SWAP1 PUSH1 0x0 MSTORE PUSH1 0x20 PUSH1 0x0 KECCAK256 ADD PUSH1 0x0 SWAP1 SLOAD SWAP1 PUSH2 0x100 EXP SWAP1 DIV PUSH20 0xFFFFFFFFFFFFFFFFFFFFFFFFFFFFFFFFFFFFFFFF AND PUSH20 0xFFFFFFFFFFFFFFFFFFFFFFFFFFFFFFFFFFFFFFFF AND PUSH20 0xFFFFFFFFFFFFFFFFFFFFFFFFFFFFFFFFFFFFFFFF AND DUP2 MSTORE PUSH1 0x20 ADD SWAP1 DUP2 MSTORE PUSH1 0x20 ADD PUSH1 0x0 KECCAK256 PUSH1 0x0 ADD DUP6 PUSH1 0x3 DUP2 LT PUSH2 0x1A4E JUMPI INVALID JUMPDEST PUSH1 0x1E MUL ADD DUP5 PUSH1 0x6 DUP2 LT PUSH2 0x1A5D JUMPI INVALID JUMPDEST PUSH1 0x5 MUL ADD PUSH1 0x40 MLOAD DUP1 PUSH1 0xC0 ADD PUSH1 0x40 MSTORE SWAP1 DUP2 PUSH1 0x0 DUP3 ADD PUSH1 0x0 SWAP1 SLOAD SWAP1 PUSH2 0x100 EXP SWAP1 DIV PUSH1 0xFF AND PUSH1 0x5 DUP2 GT ISZERO PUSH2 0x1A8A JUMPI INVALID JUMPDEST PUSH1 0x5 DUP2 GT ISZERO PUSH2 0x1A95 JUMPI INVALID JUMPDEST DUP2 MSTORE PUSH1 0x20 ADD PUSH1 0x1 DUP3 ADD SLOAD DUP2 MSTORE PUSH1 0x20 ADD PUSH1 0x2 DUP3 ADD SLOAD DUP2 MSTORE PUSH1 0x20 ADD PUSH1 0x3 DUP3 ADD SLOAD DUP2 MSTORE PUSH1 0x20 ADD PUSH1 0x4 DUP3 ADD PUSH1 0x0 SWAP1 SLOAD SWAP1 PUSH2 0x100 EXP SWAP1 DIV PUSH1 0xFF AND ISZERO ISZERO ISZERO ISZERO DUP2 MSTORE PUSH1 0x20 ADD PUSH1 0x4 DUP3 ADD PUSH1 0x1 SWAP1 SLOAD SWAP1 PUSH2 0x100 EXP SWAP1 DIV PUSH20 0xFFFFFFFFFFFFFFFFFFFFFFFFFFFFFFFFFFFFFFFF AND PUSH20 0xFFFFFFFFFFFFFFFFFFFFFFFFFFFFFFFFFFFFFFFF AND PUSH20 0xFFFFFFFFFFFFFFFFFFFFFFFFFFFFFFFFFFFFFFFF AND DUP2 MSTORE POP POP PUSH1 0x0 PUSH2 0x279C JUMP JUMPDEST DUP5 PUSH1 0x0 ADD MLOAD DUP5 PUSH1 0x3 DUP2 LT PUSH2 0x1B3F JUMPI INVALID JUMPDEST PUSH1 0x20 MUL ADD MLOAD DUP4 PUSH1 0x6 DUP2 LT PUSH2 0x1B4F JUMPI INVALID JUMPDEST PUSH1 0x20 MUL ADD DUP2 SWAP1 MSTORE POP PUSH2 0x1CE3 DUP5 PUSH1 0x20 ADD MLOAD DUP5 PUSH1 0x3 DUP2 LT PUSH2 0x1B6A JUMPI INVALID JUMPDEST PUSH1 0x20 MUL ADD MLOAD DUP4 PUSH1 0x6 DUP2 LT PUSH2 0x1B7A JUMPI INVALID JUMPDEST PUSH1 0x20 MUL ADD MLOAD PUSH1 0x0 DUP1 PUSH1 0x1 DUP6 DUP2 SLOAD DUP2 LT PUSH2 0x1B8F JUMPI INVALID JUMPDEST SWAP1 PUSH1 0x0 MSTORE PUSH1 0x20 PUSH1 0x0 KECCAK256 ADD PUSH1 0x0 SWAP1 SLOAD SWAP1 PUSH2 0x100 EXP SWAP1 DIV PUSH20 0xFFFFFFFFFFFFFFFFFFFFFFFFFFFFFFFFFFFFFFFF AND PUSH20 0xFFFFFFFFFFFFFFFFFFFFFFFFFFFFFFFFFFFFFFFF AND PUSH20 0xFFFFFFFFFFFFFFFFFFFFFFFFFFFFFFFFFFFFFFFF AND DUP2 MSTORE PUSH1 0x20 ADD SWAP1 DUP2 MSTORE PUSH1 0x20 ADD PUSH1 0x0 KECCAK256 PUSH1 0x5A ADD DUP6 PUSH1 0x3 DUP2 LT PUSH2 0x1C02 JUMPI INVALID JUMPDEST PUSH1 0x1E MUL ADD DUP5 PUSH1 0x6 DUP2 LT PUSH2 0x1C11 JUMPI INVALID JUMPDEST PUSH1 0x5 MUL ADD PUSH1 0x40 MLOAD DUP1 PUSH1 0xC0 ADD PUSH1 0x40 MSTORE SWAP1 DUP2 PUSH1 0x0 DUP3 ADD PUSH1 0x0 SWAP1 SLOAD SWAP1 PUSH2 0x100 EXP SWAP1 DIV PUSH1 0xFF AND PUSH1 0x5 DUP2 GT ISZERO PUSH2 0x1C3E JUMPI INVALID JUMPDEST PUSH1 0x5 DUP2 GT ISZERO PUSH2 0x1C49 JUMPI INVALID JUMPDEST DUP2 MSTORE PUSH1 0x20 ADD PUSH1 0x1 DUP3 ADD SLOAD DUP2 MSTORE PUSH1 0x20 ADD PUSH1 0x2 DUP3 ADD SLOAD DUP2 MSTORE PUSH1 0x20 ADD PUSH1 0x3 DUP3 ADD SLOAD DUP2 MSTORE PUSH1 0x20 ADD PUSH1 0x4 DUP3 ADD PUSH1 0x0 SWAP1 SLOAD SWAP1 PUSH2 0x100 EXP SWAP1 DIV PUSH1 0xFF AND ISZERO ISZERO ISZERO ISZERO DUP2 MSTORE PUSH1 0x20 ADD PUSH1 0x4 DUP3 ADD PUSH1 0x1 SWAP1 SLOAD SWAP1 PUSH2 0x100 EXP SWAP1 DIV PUSH20 0xFFFFFFFFFFFFFFFFFFFFFFFFFFFFFFFFFFFFFFFF AND PUSH20 0xFFFFFFFFFFFFFFFFFFFFFFFFFFFFFFFFFFFFFFFF AND PUSH20 0xFFFFFFFFFFFFFFFFFFFFFFFFFFFFFFFFFFFFFFFF AND DUP2 MSTORE POP POP PUSH1 0x1 PUSH2 0x279C JUMP JUMPDEST DUP5 PUSH1 0x20 ADD MLOAD DUP5 PUSH1 0x3 DUP2 LT PUSH2 0x1CF3 JUMPI INVALID JUMPDEST PUSH1 0x20 MUL ADD MLOAD DUP4 PUSH1 0x6 DUP2 LT PUSH2 0x1D03 JUMPI INVALID JUMPDEST PUSH1 0x20 MUL ADD DUP2 SWAP1 MSTORE POP DUP1 DUP1 PUSH1 0x1 ADD SWAP2 POP POP PUSH2 0x1996 JUMP JUMPDEST POP DUP1 DUP1 PUSH1 0x1 ADD SWAP2 POP POP PUSH2 0x198A JUMP JUMPDEST POP DUP1 DUP1 PUSH1 0x1 ADD SWAP2 POP POP PUSH2 0x197E JUMP JUMPDEST POP PUSH1 0x1 DUP2 PUSH1 0x40 ADD SWAP1 ISZERO ISZERO SWAP1 DUP2 ISZERO ISZERO DUP2 MSTORE POP POP DUP1 SWAP2 POP POP SWAP1 JUMP JUMPDEST PUSH2 0x1D55 PUSH2 0x292E JUMP JUMPDEST PUSH2 0x1D5D PUSH2 0x29C5 JUMP JUMPDEST PUSH2 0x1D65 PUSH2 0x196B JUMP JUMPDEST SWAP1 POP PUSH2 0x1D6F PUSH2 0x292E JUMP JUMPDEST PUSH1 0x0 JUMPDEST PUSH1 0x3 DUP2 LT ISZERO PUSH2 0x1DF0 JUMPI PUSH1 0x0 JUMPDEST PUSH1 0x6 DUP2 LT ISZERO PUSH2 0x1DE2 JUMPI DUP4 PUSH1 0x20 ADD MLOAD DUP3 PUSH1 0x3 DUP2 LT PUSH2 0x1D97 JUMPI INVALID JUMPDEST PUSH1 0x20 MUL ADD MLOAD DUP2 PUSH1 0x6 DUP2 LT PUSH2 0x1DA7 JUMPI INVALID JUMPDEST PUSH1 0x20 MUL ADD MLOAD PUSH1 0x40 ADD MLOAD DUP4 DUP4 PUSH1 0x3 DUP2 LT PUSH2 0x1DBC JUMPI INVALID JUMPDEST PUSH1 0x20 MUL ADD MLOAD DUP3 PUSH1 0x6 DUP2 LT PUSH2 0x1DCC JUMPI INVALID JUMPDEST PUSH1 0x20 MUL ADD DUP2 DUP2 MSTORE POP POP DUP1 DUP1 PUSH1 0x1 ADD SWAP2 POP POP PUSH2 0x1D7E JUMP JUMPDEST POP DUP1 DUP1 PUSH1 0x1 ADD SWAP2 POP POP PUSH2 0x1D72 JUMP JUMPDEST POP DUP1 SWAP3 POP POP POP SWAP1 JUMP JUMPDEST PUSH1 0x1 ISZERO ISZERO PUSH1 0x0 DUP1 DUP7 PUSH20 0xFFFFFFFFFFFFFFFFFFFFFFFFFFFFFFFFFFFFFFFF AND PUSH20 0xFFFFFFFFFFFFFFFFFFFFFFFFFFFFFFFFFFFFFFFF AND DUP2 MSTORE PUSH1 0x20 ADD SWAP1 DUP2 MSTORE PUSH1 0x20 ADD PUSH1 0x0 KECCAK256 PUSH1 0xB4 ADD PUSH1 0x0 SWAP1 SLOAD SWAP1 PUSH2 0x100 EXP SWAP1 DIV PUSH1 0xFF AND ISZERO ISZERO EQ PUSH2 0x1E8E JUMPI PUSH1 0x40 MLOAD PUSH32 0x8C379A000000000000000000000000000000000000000000000000000000000 DUP2 MSTORE PUSH1 0x4 ADD PUSH2 0x1E85 SWAP1 PUSH2 0x362B JUMP JUMPDEST PUSH1 0x40 MLOAD DUP1 SWAP2 SUB SWAP1 REVERT JUMPDEST PUSH1 0x0 PUSH1 0x1 DUP2 GT ISZERO PUSH2 0x1E9B JUMPI INVALID JUMPDEST DUP4 PUSH1 0x1 DUP2 GT ISZERO PUSH2 0x1EA7 JUMPI INVALID JUMPDEST EQ ISZERO PUSH2 0x1F91 JUMPI PUSH1 0x0 DUP1 DUP6 PUSH20 0xFFFFFFFFFFFFFFFFFFFFFFFFFFFFFFFFFFFFFFFF AND PUSH20 0xFFFFFFFFFFFFFFFFFFFFFFFFFFFFFFFFFFFFFFFF AND DUP2 MSTORE PUSH1 0x20 ADD SWAP1 DUP2 MSTORE PUSH1 0x20 ADD PUSH1 0x0 KECCAK256 PUSH1 0x0 ADD DUP3 PUSH1 0x2 DUP2 GT ISZERO PUSH2 0x1EFA JUMPI INVALID JUMPDEST PUSH1 0x3 DUP2 LT PUSH2 0x1F04 JUMPI INVALID JUMPDEST PUSH1 0x1E MUL ADD DUP2 PUSH1 0x5 DUP2 GT ISZERO PUSH2 0x1F14 JUMPI INVALID JUMPDEST PUSH1 0x6 DUP2 LT PUSH2 0x1F1E JUMPI INVALID JUMPDEST PUSH1 0x5 MUL ADD PUSH1 0x0 DUP1 DUP3 ADD PUSH1 0x0 PUSH2 0x100 EXP DUP2 SLOAD SWAP1 PUSH1 0xFF MUL NOT AND SWAP1 SSTORE PUSH1 0x1 DUP3 ADD PUSH1 0x0 SWAP1 SSTORE PUSH1 0x2 DUP3 ADD PUSH1 0x0 SWAP1 SSTORE PUSH1 0x3 DUP3 ADD PUSH1 0x0 SWAP1 SSTORE PUSH1 0x4 DUP3 ADD PUSH1 0x0 PUSH2 0x100 EXP DUP2 SLOAD SWAP1 PUSH1 0xFF MUL NOT AND SWAP1 SSTORE PUSH1 0x4 DUP3 ADD PUSH1 0x1 PUSH2 0x100 EXP DUP2 SLOAD SWAP1 PUSH20 0xFFFFFFFFFFFFFFFFFFFFFFFFFFFFFFFFFFFFFFFF MUL NOT AND SWAP1 SSTORE POP POP PUSH2 0x2071 JUMP JUMPDEST PUSH1 0x0 DUP1 DUP6 PUSH20 0xFFFFFFFFFFFFFFFFFFFFFFFFFFFFFFFFFFFFFFFF AND PUSH20 0xFFFFFFFFFFFFFFFFFFFFFFFFFFFFFFFFFFFFFFFF AND DUP2 MSTORE PUSH1 0x20 ADD SWAP1 DUP2 MSTORE PUSH1 0x20 ADD PUSH1 0x0 KECCAK256 PUSH1 0x5A ADD DUP3 PUSH1 0x2 DUP2 GT ISZERO PUSH2 0x1FDE JUMPI INVALID JUMPDEST PUSH1 0x3 DUP2 LT PUSH2 0x1FE8 JUMPI INVALID JUMPDEST PUSH1 0x1E MUL ADD DUP2 PUSH1 0x5 DUP2 GT ISZERO PUSH2 0x1FF8 JUMPI INVALID JUMPDEST PUSH1 0x6 DUP2 LT PUSH2 0x2002 JUMPI INVALID JUMPDEST PUSH1 0x5 MUL ADD PUSH1 0x0 DUP1 DUP3 ADD PUSH1 0x0 PUSH2 0x100 EXP DUP2 SLOAD SWAP1 PUSH1 0xFF MUL NOT AND SWAP1 SSTORE PUSH1 0x1 DUP3 ADD PUSH1 0x0 SWAP1 SSTORE PUSH1 0x2 DUP3 ADD PUSH1 0x0 SWAP1 SSTORE PUSH1 0x3 DUP3 ADD PUSH1 0x0 SWAP1 SSTORE PUSH1 0x4 DUP3 ADD PUSH1 0x0 PUSH2 0x100 EXP DUP2 SLOAD SWAP1 PUSH1 0xFF MUL NOT AND SWAP1 SSTORE PUSH1 0x4 DUP3 ADD PUSH1 0x1 PUSH2 0x100 EXP DUP2 SLOAD SWAP1 PUSH20 0xFFFFFFFFFFFFFFFFFFFFFFFFFFFFFFFFFFFFFFFF MUL NOT AND SWAP1 SSTORE POP POP JUMPDEST DUP4 PUSH20 0xFFFFFFFFFFFFFFFFFFFFFFFFFFFFFFFFFFFFFFFF AND PUSH32 0x26CCF72B15577A3716488572498A8C3273E62C3B979039C14DC966A508ECF82C DUP5 DUP5 DUP5 PUSH1 0x40 MLOAD PUSH2 0x20BB SWAP4 SWAP3 SWAP2 SWAP1 PUSH2 0x356F JUMP JUMPDEST PUSH1 0x40 MLOAD DUP1 SWAP2 SUB SWAP1 LOG2 POP POP POP POP JUMP JUMPDEST PUSH1 0x0 DUP1 PUSH1 0x0 CALLER PUSH20 0xFFFFFFFFFFFFFFFFFFFFFFFFFFFFFFFFFFFFFFFF AND PUSH20 0xFFFFFFFFFFFFFFFFFFFFFFFFFFFFFFFFFFFFFFFF AND DUP2 MSTORE PUSH1 0x20 ADD SWAP1 DUP2 MSTORE PUSH1 0x20 ADD PUSH1 0x0 KECCAK256 SWAP1 POP PUSH1 0x0 DUP2 PUSH1 0x0 ADD DUP7 PUSH1 0x2 DUP2 GT ISZERO PUSH2 0x211D JUMPI INVALID JUMPDEST PUSH1 0x3 DUP2 LT PUSH2 0x2127 JUMPI INVALID JUMPDEST PUSH1 0x1E MUL ADD SWAP1 POP PUSH1 0x0 DUP3 PUSH1 0x5A ADD DUP8 PUSH1 0x2 DUP2 GT ISZERO PUSH2 0x213F JUMPI INVALID JUMPDEST PUSH1 0x3 DUP2 LT PUSH2 0x2149 JUMPI INVALID JUMPDEST PUSH1 0x1E MUL ADD SWAP1 POP PUSH1 0x0 JUMPDEST DUP7 MLOAD DUP2 LT ISZERO PUSH2 0x227C JUMPI PUSH1 0x0 DUP8 DUP3 DUP2 MLOAD DUP2 LT PUSH2 0x2169 JUMPI INVALID JUMPDEST PUSH1 0x20 MUL PUSH1 0x20 ADD ADD MLOAD PUSH1 0x0 ADD MLOAD SWAP1 POP PUSH2 0x217F PUSH2 0x2A27 JUMP JUMPDEST PUSH2 0x219E DUP10 DUP5 DUP2 MLOAD DUP2 LT PUSH2 0x218E JUMPI INVALID JUMPDEST PUSH1 0x20 MUL PUSH1 0x20 ADD ADD MLOAD DUP9 TIMESTAMP ADD PUSH2 0x2852 JUMP JUMPDEST SWAP1 POP DUP1 DUP6 DUP4 PUSH1 0x5 DUP2 GT ISZERO PUSH2 0x21AE JUMPI INVALID JUMPDEST PUSH1 0x6 DUP2 LT PUSH2 0x21B8 JUMPI INVALID JUMPDEST PUSH1 0x5 MUL ADD PUSH1 0x0 DUP3 ADD MLOAD DUP2 PUSH1 0x0 ADD PUSH1 0x0 PUSH2 0x100 EXP DUP2 SLOAD DUP2 PUSH1 0xFF MUL NOT AND SWAP1 DUP4 PUSH1 0x5 DUP2 GT ISZERO PUSH2 0x21E0 JUMPI INVALID JUMPDEST MUL OR SWAP1 SSTORE POP PUSH1 0x20 DUP3 ADD MLOAD DUP2 PUSH1 0x1 ADD SSTORE PUSH1 0x40 DUP3 ADD MLOAD DUP2 PUSH1 0x2 ADD SSTORE PUSH1 0x60 DUP3 ADD MLOAD DUP2 PUSH1 0x3 ADD SSTORE PUSH1 0x80 DUP3 ADD MLOAD DUP2 PUSH1 0x4 ADD PUSH1 0x0 PUSH2 0x100 EXP DUP2 SLOAD DUP2 PUSH1 0xFF MUL NOT AND SWAP1 DUP4 ISZERO ISZERO MUL OR SWAP1 SSTORE POP PUSH1 0xA0 DUP3 ADD MLOAD DUP2 PUSH1 0x4 ADD PUSH1 0x1 PUSH2 0x100 EXP DUP2 SLOAD DUP2 PUSH20 0xFFFFFFFFFFFFFFFFFFFFFFFFFFFFFFFFFFFFFFFF MUL NOT AND SWAP1 DUP4 PUSH20 0xFFFFFFFFFFFFFFFFFFFFFFFFFFFFFFFFFFFFFFFF AND MUL OR SWAP1 SSTORE POP SWAP1 POP POP POP POP DUP1 DUP1 PUSH1 0x1 ADD SWAP2 POP POP PUSH2 0x2152 JUMP JUMPDEST POP PUSH1 0x0 JUMPDEST DUP6 MLOAD DUP2 LT ISZERO PUSH2 0x23AA JUMPI PUSH1 0x0 DUP7 DUP3 DUP2 MLOAD DUP2 LT PUSH2 0x2297 JUMPI INVALID JUMPDEST PUSH1 0x20 MUL PUSH1 0x20 ADD ADD MLOAD PUSH1 0x0 ADD MLOAD SWAP1 POP PUSH2 0x22AD PUSH2 0x2A27 JUMP JUMPDEST PUSH2 0x22CC DUP9 DUP5 DUP2 MLOAD DUP2 LT PUSH2 0x22BC JUMPI INVALID JUMPDEST PUSH1 0x20 MUL PUSH1 0x20 ADD ADD MLOAD DUP9 TIMESTAMP ADD PUSH2 0x2852 JUMP JUMPDEST SWAP1 POP DUP1 DUP5 DUP4 PUSH1 0x5 DUP2 GT ISZERO PUSH2 0x22DC JUMPI INVALID JUMPDEST PUSH1 0x6 DUP2 LT PUSH2 0x22E6 JUMPI INVALID JUMPDEST PUSH1 0x5 MUL ADD PUSH1 0x0 DUP3 ADD MLOAD DUP2 PUSH1 0x0 ADD PUSH1 0x0 PUSH2 0x100 EXP DUP2 SLOAD DUP2 PUSH1 0xFF MUL NOT AND SWAP1 DUP4 PUSH1 0x5 DUP2 GT ISZERO PUSH2 0x230E JUMPI INVALID JUMPDEST MUL OR SWAP1 SSTORE POP PUSH1 0x20 DUP3 ADD MLOAD DUP2 PUSH1 0x1 ADD SSTORE PUSH1 0x40 DUP3 ADD MLOAD DUP2 PUSH1 0x2 ADD SSTORE PUSH1 0x60 DUP3 ADD MLOAD DUP2 PUSH1 0x3 ADD SSTORE PUSH1 0x80 DUP3 ADD MLOAD DUP2 PUSH1 0x4 ADD PUSH1 0x0 PUSH2 0x100 EXP DUP2 SLOAD DUP2 PUSH1 0xFF MUL NOT AND SWAP1 DUP4 ISZERO ISZERO MUL OR SWAP1 SSTORE POP PUSH1 0xA0 DUP3 ADD MLOAD DUP2 PUSH1 0x4 ADD PUSH1 0x1 PUSH2 0x100 EXP DUP2 SLOAD DUP2 PUSH20 0xFFFFFFFFFFFFFFFFFFFFFFFFFFFFFFFFFFFFFFFF MUL NOT AND SWAP1 DUP4 PUSH20 0xFFFFFFFFFFFFFFFFFFFFFFFFFFFFFFFFFFFFFFFF AND MUL OR SWAP1 SSTORE POP SWAP1 POP POP POP POP DUP1 DUP1 PUSH1 0x1 ADD SWAP2 POP POP PUSH2 0x2280 JUMP JUMPDEST POP PUSH1 0x0 DUP1 CALLER PUSH20 0xFFFFFFFFFFFFFFFFFFFFFFFFFFFFFFFFFFFFFFFF AND PUSH20 0xFFFFFFFFFFFFFFFFFFFFFFFFFFFFFFFFFFFFFFFF AND DUP2 MSTORE PUSH1 0x20 ADD SWAP1 DUP2 MSTORE PUSH1 0x20 ADD PUSH1 0x0 KECCAK256 PUSH1 0xB4 ADD PUSH1 0x0 SWAP1 SLOAD SWAP1 PUSH2 0x100 EXP SWAP1 DIV PUSH1 0xFF AND PUSH2 0x2462 JUMPI PUSH1 0x1 CALLER SWAP1 DUP1 PUSH1 0x1 DUP2 SLOAD ADD DUP1 DUP3 SSTORE DUP1 SWAP2 POP POP PUSH1 0x1 SWAP1 SUB SWAP1 PUSH1 0x0 MSTORE PUSH1 0x20 PUSH1 0x0 KECCAK256 ADD PUSH1 0x0 SWAP1 SWAP2 SWAP1 SWAP2 SWAP1 SWAP2 PUSH2 0x100 EXP DUP2 SLOAD DUP2 PUSH20 0xFFFFFFFFFFFFFFFFFFFFFFFFFFFFFFFFFFFFFFFF MUL NOT AND SWAP1 DUP4 PUSH20 0xFFFFFFFFFFFFFFFFFFFFFFFFFFFFFFFFFFFFFFFF AND MUL OR SWAP1 SSTORE POP JUMPDEST PUSH1 0x1 DUP4 PUSH1 0xB4 ADD PUSH1 0x0 PUSH2 0x100 EXP DUP2 SLOAD DUP2 PUSH1 0xFF MUL NOT AND SWAP1 DUP4 ISZERO ISZERO MUL OR SWAP1 SSTORE POP CALLER PUSH20 0xFFFFFFFFFFFFFFFFFFFFFFFFFFFFFFFFFFFFFFFF AND PUSH32 0x9F28ABA5952E297039558D4B2FC1F0649F8C8C5ACCAB6577117FAD09BC3C95A3 PUSH1 0x40 MLOAD PUSH1 0x40 MLOAD DUP1 SWAP2 SUB SWAP1 LOG2 POP POP POP POP POP POP POP JUMP JUMPDEST PUSH2 0x24D3 PUSH2 0x292E JUMP JUMPDEST PUSH2 0x24DB PUSH2 0x29C5 JUMP JUMPDEST PUSH2 0x24E3 PUSH2 0x196B JUMP JUMPDEST SWAP1 POP PUSH2 0x24ED PUSH2 0x292E JUMP JUMPDEST PUSH1 0x0 JUMPDEST PUSH1 0x3 DUP2 LT ISZERO PUSH2 0x256E JUMPI PUSH1 0x0 JUMPDEST PUSH1 0x6 DUP2 LT ISZERO PUSH2 0x2560 JUMPI DUP4 PUSH1 0x0 ADD MLOAD DUP3 PUSH1 0x3 DUP2 LT PUSH2 0x2515 JUMPI INVALID JUMPDEST PUSH1 0x20 MUL ADD MLOAD DUP2 PUSH1 0x6 DUP2 LT PUSH2 0x2525 JUMPI INVALID JUMPDEST PUSH1 0x20 MUL ADD MLOAD PUSH1 0x40 ADD MLOAD DUP4 DUP4 PUSH1 0x3 DUP2 LT PUSH2 0x253A JUMPI INVALID JUMPDEST PUSH1 0x20 MUL ADD MLOAD DUP3 PUSH1 0x6 DUP2 LT PUSH2 0x254A JUMPI INVALID JUMPDEST PUSH1 0x20 MUL ADD DUP2 DUP2 MSTORE POP POP DUP1 DUP1 PUSH1 0x1 ADD SWAP2 POP POP PUSH2 0x24FC JUMP JUMPDEST POP DUP1 DUP1 PUSH1 0x1 ADD SWAP2 POP POP PUSH2 0x24F0 JUMP JUMPDEST POP DUP1 SWAP3 POP POP POP SWAP1 JUMP JUMPDEST PUSH2 0x257F PUSH2 0x2988 JUMP JUMPDEST PUSH2 0x2587 PUSH2 0x2988 JUMP JUMPDEST PUSH2 0x168 PUSH1 0x5A DUP5 PUSH1 0x0 PUSH1 0x7 DUP2 LT PUSH2 0x2599 JUMPI INVALID JUMPDEST PUSH1 0x20 MUL ADD MLOAD MUL DUP2 PUSH2 0x25A6 JUMPI INVALID JUMPDEST DIV PUSH2 0x2710 ADD PUSH2 0x2710 DUP1 MUL DUP2 PUSH2 0x25B7 JUMPI INVALID JUMPDEST DIV DUP2 PUSH1 0x0 ADD DUP2 DUP2 MSTORE POP POP PUSH2 0x168 PUSH1 0xB4 DUP5 PUSH1 0x1 PUSH1 0x7 DUP2 LT PUSH2 0x25D3 JUMPI INVALID JUMPDEST PUSH1 0x20 MUL ADD MLOAD MUL DUP2 PUSH2 0x25E0 JUMPI INVALID JUMPDEST DIV PUSH2 0x2710 ADD PUSH2 0x2710 DUP1 MUL DUP2 PUSH2 0x25F1 JUMPI INVALID JUMPDEST DIV DUP2 PUSH1 0x20 ADD DUP2 DUP2 MSTORE POP POP DUP3 PUSH1 0x2 PUSH1 0x7 DUP2 LT PUSH2 0x2608 JUMPI INVALID JUMPDEST PUSH1 0x20 MUL ADD MLOAD PUSH2 0x2710 ADD PUSH2 0x2710 DUP1 MUL DUP2 PUSH2 0x261D JUMPI INVALID JUMPDEST DIV DUP2 PUSH1 0x40 ADD DUP2 DUP2 MSTORE POP POP DUP3 PUSH1 0x3 PUSH1 0x7 DUP2 LT PUSH2 0x2634 JUMPI INVALID JUMPDEST PUSH1 0x20 MUL ADD MLOAD PUSH2 0x2710 ADD PUSH2 0x2710 DUP3 PUSH1 0x40 ADD MLOAD DUP6 PUSH1 0x3 PUSH1 0x7 DUP2 LT PUSH2 0x2652 JUMPI INVALID JUMPDEST PUSH1 0x20 MUL ADD MLOAD MUL DUP2 PUSH2 0x265F JUMPI INVALID JUMPDEST DIV PUSH2 0x2710 SUB PUSH2 0x2710 MUL DUP2 PUSH2 0x266F JUMPI INVALID JUMPDEST DIV DUP2 PUSH1 0x60 ADD DUP2 DUP2 MSTORE POP POP DUP3 PUSH1 0x4 PUSH1 0x7 DUP2 LT PUSH2 0x2686 JUMPI INVALID JUMPDEST PUSH1 0x20 MUL ADD MLOAD PUSH2 0x2710 ADD PUSH2 0x2710 DUP3 PUSH1 0x60 ADD MLOAD DUP4 PUSH1 0x40 ADD MLOAD ADD DUP6 PUSH1 0x4 PUSH1 0x7 DUP2 LT PUSH2 0x26AA JUMPI INVALID JUMPDEST PUSH1 0x20 MUL ADD MLOAD MUL DUP2 PUSH2 0x26B7 JUMPI INVALID JUMPDEST DIV PUSH2 0x2710 SUB PUSH2 0x2710 MUL DUP2 PUSH2 0x26C7 JUMPI INVALID JUMPDEST DIV DUP2 PUSH1 0x80 ADD DUP2 DUP2 MSTORE POP POP DUP3 PUSH1 0x5 PUSH1 0x7 DUP2 LT PUSH2 0x26DE JUMPI INVALID JUMPDEST PUSH1 0x20 MUL ADD MLOAD PUSH2 0x2710 ADD PUSH2 0x2710 DUP3 PUSH1 0x80 ADD MLOAD DUP4 PUSH1 0x60 ADD MLOAD DUP5 PUSH1 0x40 ADD MLOAD ADD ADD DUP6 PUSH1 0x5 PUSH1 0x7 DUP2 LT PUSH2 0x2708 JUMPI INVALID JUMPDEST PUSH1 0x20 MUL ADD MLOAD MUL DUP2 PUSH2 0x2715 JUMPI INVALID JUMPDEST DIV PUSH2 0x2710 SUB PUSH2 0x2710 MUL DUP2 PUSH2 0x2725 JUMPI INVALID JUMPDEST DIV DUP2 PUSH1 0xA0 ADD DUP2 DUP2 MSTORE POP POP DUP3 PUSH1 0x6 PUSH1 0x7 DUP2 LT PUSH2 0x273C JUMPI INVALID JUMPDEST PUSH1 0x20 MUL ADD MLOAD PUSH2 0x2710 ADD PUSH2 0x2710 DUP3 PUSH1 0xA0 ADD MLOAD DUP4 PUSH1 0x80 ADD MLOAD DUP5 PUSH1 0x60 ADD MLOAD DUP6 PUSH1 0x40 ADD MLOAD ADD ADD ADD DUP6 PUSH1 0x6 PUSH1 0x7 DUP2 LT PUSH2 0x276C JUMPI INVALID JUMPDEST PUSH1 0x20 MUL ADD MLOAD MUL DUP2 PUSH2 0x2779 JUMPI INVALID JUMPDEST DIV PUSH2 0x2710 SUB PUSH2 0x2710 MUL DUP2 PUSH2 0x2789 JUMPI INVALID JUMPDEST DIV DUP2 PUSH1 0xC0 ADD DUP2 DUP2 MSTORE POP POP DUP1 SWAP2 POP POP SWAP2 SWAP1 POP JUMP JUMPDEST PUSH2 0x27A4 PUSH2 0x2A27 JUMP JUMPDEST DUP4 PUSH1 0x80 ADD MLOAD PUSH2 0x27B5 JUMPI DUP3 SWAP1 POP PUSH2 0x284B JUMP JUMPDEST DUP3 PUSH1 0x80 ADD MLOAD PUSH2 0x27C6 JUMPI DUP4 SWAP1 POP PUSH2 0x284B JUMP JUMPDEST DUP3 PUSH1 0x40 ADD MLOAD DUP5 PUSH1 0x40 ADD MLOAD EQ ISZERO PUSH2 0x27F4 JUMPI DUP3 PUSH1 0x20 ADD MLOAD DUP5 PUSH1 0x20 ADD MLOAD GT PUSH2 0x27EB JUMPI DUP3 PUSH2 0x27ED JUMP JUMPDEST DUP4 JUMPDEST SWAP1 POP PUSH2 0x284B JUMP JUMPDEST PUSH1 0x0 PUSH1 0x1 DUP2 GT ISZERO PUSH2 0x2801 JUMPI INVALID JUMPDEST DUP3 PUSH1 0x1 DUP2 GT ISZERO PUSH2 0x280D JUMPI INVALID JUMPDEST EQ ISZERO PUSH2 0x2831 JUMPI DUP3 PUSH1 0x40 ADD MLOAD DUP5 PUSH1 0x40 ADD MLOAD LT PUSH2 0x2828 JUMPI DUP3 PUSH2 0x282A JUMP JUMPDEST DUP4 JUMPDEST SWAP1 POP PUSH2 0x284B JUMP JUMPDEST DUP3 PUSH1 0x40 ADD MLOAD DUP5 PUSH1 0x40 ADD MLOAD GT PUSH2 0x2846 JUMPI DUP3 PUSH2 0x2848 JUMP JUMPDEST DUP4 JUMPDEST SWAP1 POP JUMPDEST SWAP4 SWAP3 POP POP POP JUMP JUMPDEST PUSH2 0x285A PUSH2 0x2A27 JUMP JUMPDEST PUSH2 0x2862 PUSH2 0x2A27 JUMP JUMPDEST DUP4 PUSH1 0x0 ADD MLOAD DUP2 PUSH1 0x0 ADD SWAP1 PUSH1 0x5 DUP2 GT ISZERO PUSH2 0x2877 JUMPI INVALID JUMPDEST SWAP1 DUP2 PUSH1 0x5 DUP2 GT ISZERO PUSH2 0x2884 JUMPI INVALID JUMPDEST DUP2 MSTORE POP POP DUP4 PUSH1 0x20 ADD MLOAD DUP2 PUSH1 0x20 ADD DUP2 DUP2 MSTORE POP POP DUP4 PUSH1 0x40 ADD MLOAD DUP2 PUSH1 0x40 ADD DUP2 DUP2 MSTORE POP POP DUP3 DUP2 PUSH1 0x60 ADD DUP2 DUP2 MSTORE POP POP PUSH1 0x1 DUP2 PUSH1 0x80 ADD SWAP1 ISZERO ISZERO SWAP1 DUP2 ISZERO ISZERO DUP2 MSTORE POP POP CALLER DUP2 PUSH1 0xA0 ADD SWAP1 PUSH20 0xFFFFFFFFFFFFFFFFFFFFFFFFFFFFFFFFFFFFFFFF AND SWAP1 DUP2 PUSH20 0xFFFFFFFFFFFFFFFFFFFFFFFFFFFFFFFFFFFFFFFF AND DUP2 MSTORE POP POP DUP1 SWAP2 POP POP SWAP3 SWAP2 POP POP JUMP JUMPDEST PUSH1 0x40 MLOAD DUP1 PUSH1 0x60 ADD PUSH1 0x40 MSTORE DUP1 PUSH1 0x3 SWAP1 JUMPDEST PUSH2 0x2918 PUSH2 0x2988 JUMP JUMPDEST DUP2 MSTORE PUSH1 0x20 ADD SWAP1 PUSH1 0x1 SWAP1 SUB SWAP1 DUP2 PUSH2 0x2910 JUMPI SWAP1 POP POP SWAP1 JUMP JUMPDEST PUSH1 0x40 MLOAD DUP1 PUSH1 0x60 ADD PUSH1 0x40 MSTORE DUP1 PUSH1 0x3 SWAP1 JUMPDEST PUSH2 0x2945 PUSH2 0x2A80 JUMP JUMPDEST DUP2 MSTORE PUSH1 0x20 ADD SWAP1 PUSH1 0x1 SWAP1 SUB SWAP1 DUP2 PUSH2 0x293D JUMPI SWAP1 POP POP SWAP1 JUMP JUMPDEST PUSH1 0x40 MLOAD DUP1 PUSH1 0x60 ADD PUSH1 0x40 MSTORE DUP1 PUSH1 0x3 SWAP1 JUMPDEST PUSH2 0x2972 PUSH2 0x2AA2 JUMP JUMPDEST DUP2 MSTORE PUSH1 0x20 ADD SWAP1 PUSH1 0x1 SWAP1 SUB SWAP1 DUP2 PUSH2 0x296A JUMPI SWAP1 POP POP SWAP1 JUMP JUMPDEST PUSH1 0x40 MLOAD DUP1 PUSH1 0xE0 ADD PUSH1 0x40 MSTORE DUP1 PUSH1 0x0 DUP2 MSTORE PUSH1 0x20 ADD PUSH1 0x0 DUP2 MSTORE PUSH1 0x20 ADD PUSH1 0x0 DUP2 MSTORE PUSH1 0x20 ADD PUSH1 0x0 DUP2 MSTORE PUSH1 0x20 ADD PUSH1 0x0 DUP2 MSTORE PUSH1 0x20 ADD PUSH1 0x0 DUP2 MSTORE PUSH1 0x20 ADD PUSH1 0x0 DUP2 MSTORE POP SWAP1 JUMP JUMPDEST PUSH1 0x40 MLOAD DUP1 PUSH1 0x60 ADD PUSH1 0x40 MSTORE DUP1 PUSH2 0x29D8 PUSH2 0x2AC4 JUMP JUMPDEST DUP2 MSTORE PUSH1 0x20 ADD PUSH2 0x29E5 PUSH2 0x2AC4 JUMP JUMPDEST DUP2 MSTORE PUSH1 0x20 ADD PUSH1 0x0 ISZERO ISZERO DUP2 MSTORE POP SWAP1 JUMP JUMPDEST POP PUSH1 0x0 DUP2 DUP2 PUSH2 0x2A03 SWAP2 SWAP1 PUSH2 0x2AF1 JUMP JUMPDEST POP PUSH1 0x1E ADD PUSH1 0x0 DUP2 DUP2 PUSH2 0x2A15 SWAP2 SWAP1 PUSH2 0x2AF1 JUMP JUMPDEST POP PUSH1 0x1E ADD PUSH1 0x0 PUSH2 0x2A25 SWAP2 SWAP1 PUSH2 0x2AF1 JUMP JUMPDEST JUMP JUMPDEST PUSH1 0x40 MLOAD DUP1 PUSH1 0xC0 ADD PUSH1 0x40 MSTORE DUP1 PUSH1 0x0 PUSH1 0x5 DUP2 GT ISZERO PUSH2 0x2A3F JUMPI INVALID JUMPDEST DUP2 MSTORE PUSH1 0x20 ADD PUSH1 0x0 DUP2 MSTORE PUSH1 0x20 ADD PUSH1 0x0 DUP2 MSTORE PUSH1 0x20 ADD PUSH1 0x0 DUP2 MSTORE PUSH1 0x20 ADD PUSH1 0x0 ISZERO ISZERO DUP2 MSTORE PUSH1 0x20 ADD PUSH1 0x0 PUSH20 0xFFFFFFFFFFFFFFFFFFFFFFFFFFFFFFFFFFFFFFFF AND DUP2 MSTORE POP SWAP1 JUMP JUMPDEST PUSH1 0x40 MLOAD DUP1 PUSH1 0xC0 ADD PUSH1 0x40 MSTORE DUP1 PUSH1 0x6 SWAP1 PUSH1 0x20 DUP3 MUL DUP1 CALLDATASIZE DUP4 CALLDATACOPY DUP1 DUP3 ADD SWAP2 POP POP SWAP1 POP POP SWAP1 JUMP JUMPDEST PUSH1 0x40 MLOAD DUP1 PUSH1 0xE0 ADD PUSH1 0x40 MSTORE DUP1 PUSH1 0x7 SWAP1 PUSH1 0x20 DUP3 MUL DUP1 CALLDATASIZE DUP4 CALLDATACOPY DUP1 DUP3 ADD SWAP2 POP POP SWAP1 POP POP SWAP1 JUMP JUMPDEST PUSH1 0x40 MLOAD DUP1 PUSH1 0x60 ADD PUSH1 0x40 MSTORE DUP1 PUSH1 0x3 SWAP1 JUMPDEST PUSH2 0x2ADB PUSH2 0x2B07 JUMP JUMPDEST DUP2 MSTORE PUSH1 0x20 ADD SWAP1 PUSH1 0x1 SWAP1 SUB SWAP1 DUP2 PUSH2 0x2AD3 JUMPI SWAP1 POP POP SWAP1 JUMP JUMPDEST POP DUP1 PUSH1 0x6 PUSH1 0x5 MUL ADD SWAP1 PUSH2 0x2B04 SWAP2 SWAP1 PUSH2 0x2B34 JUMP JUMPDEST POP JUMP JUMPDEST PUSH1 0x40 MLOAD DUP1 PUSH1 0xC0 ADD PUSH1 0x40 MSTORE DUP1 PUSH1 0x6 SWAP1 JUMPDEST PUSH2 0x2B1E PUSH2 0x2A27 JUMP JUMPDEST DUP2 MSTORE PUSH1 0x20 ADD SWAP1 PUSH1 0x1 SWAP1 SUB SWAP1 DUP2 PUSH2 0x2B16 JUMPI SWAP1 POP POP SWAP1 JUMP JUMPDEST JUMPDEST DUP1 DUP3 GT ISZERO PUSH2 0x2BAE JUMPI PUSH1 0x0 DUP1 DUP3 ADD PUSH1 0x0 PUSH2 0x100 EXP DUP2 SLOAD SWAP1 PUSH1 0xFF MUL NOT AND SWAP1 SSTORE PUSH1 0x1 DUP3 ADD PUSH1 0x0 SWAP1 SSTORE PUSH1 0x2 DUP3 ADD PUSH1 0x0 SWAP1 SSTORE PUSH1 0x3 DUP3 ADD PUSH1 0x0 SWAP1 SSTORE PUSH1 0x4 DUP3 ADD PUSH1 0x0 PUSH2 0x100 EXP DUP2 SLOAD SWAP1 PUSH1 0xFF MUL NOT AND SWAP1 SSTORE PUSH1 0x4 DUP3 ADD PUSH1 0x1 PUSH2 0x100 EXP DUP2 SLOAD SWAP1 PUSH20 0xFFFFFFFFFFFFFFFFFFFFFFFFFFFFFFFFFFFFFFFF MUL NOT AND SWAP1 SSTORE POP PUSH1 0x5 ADD PUSH2 0x2B35 JUMP JUMPDEST POP SWAP1 JUMP JUMPDEST PUSH1 0x0 DUP2 CALLDATALOAD SWAP1 POP PUSH2 0x2BC1 DUP2 PUSH2 0x3934 JUMP JUMPDEST SWAP3 SWAP2 POP POP JUMP JUMPDEST PUSH1 0x0 DUP3 PUSH1 0x1F DUP4 ADD SLT PUSH2 0x2BD8 JUMPI PUSH1 0x0 DUP1 REVERT JUMPDEST DUP2 CALLDATALOAD PUSH2 0x2BEB PUSH2 0x2BE6 DUP3 PUSH2 0x36CA JUMP JUMPDEST PUSH2 0x369D JUMP JUMPDEST SWAP2 POP DUP2 DUP2 DUP4 MSTORE PUSH1 0x20 DUP5 ADD SWAP4 POP PUSH1 0x20 DUP2 ADD SWAP1 POP DUP4 DUP6 PUSH1 0x60 DUP5 MUL DUP3 ADD GT ISZERO PUSH2 0x2C10 JUMPI PUSH1 0x0 DUP1 REVERT JUMPDEST PUSH1 0x0 JUMPDEST DUP4 DUP2 LT ISZERO PUSH2 0x2C40 JUMPI DUP2 PUSH2 0x2C26 DUP9 DUP3 PUSH2 0x2C89 JUMP JUMPDEST DUP5 MSTORE PUSH1 0x20 DUP5 ADD SWAP4 POP PUSH1 0x60 DUP4 ADD SWAP3 POP POP PUSH1 0x1 DUP2 ADD SWAP1 POP PUSH2 0x2C13 JUMP JUMPDEST POP POP POP POP SWAP3 SWAP2 POP POP JUMP JUMPDEST PUSH1 0x0 DUP2 CALLDATALOAD SWAP1 POP PUSH2 0x2C59 DUP2 PUSH2 0x394B JUMP JUMPDEST SWAP3 SWAP2 POP POP JUMP JUMPDEST PUSH1 0x0 DUP2 CALLDATALOAD SWAP1 POP PUSH2 0x2C6E DUP2 PUSH2 0x395B JUMP JUMPDEST SWAP3 SWAP2 POP POP JUMP JUMPDEST PUSH1 0x0 DUP2 CALLDATALOAD SWAP1 POP PUSH2 0x2C83 DUP2 PUSH2 0x396B JUMP JUMPDEST SWAP3 SWAP2 POP POP JUMP JUMPDEST PUSH1 0x0 PUSH1 0x60 DUP3 DUP5 SUB SLT ISZERO PUSH2 0x2C9B JUMPI PUSH1 0x0 DUP1 REVERT JUMPDEST PUSH2 0x2CA5 PUSH1 0x60 PUSH2 0x369D JUMP JUMPDEST SWAP1 POP PUSH1 0x0 PUSH2 0x2CB5 DUP5 DUP3 DUP6 ADD PUSH2 0x2C74 JUMP JUMPDEST PUSH1 0x0 DUP4 ADD MSTORE POP PUSH1 0x20 PUSH2 0x2CC9 DUP5 DUP3 DUP6 ADD PUSH2 0x2CE9 JUMP JUMPDEST PUSH1 0x20 DUP4 ADD MSTORE POP PUSH1 0x40 PUSH2 0x2CDD DUP5 DUP3 DUP6 ADD PUSH2 0x2CE9 JUMP JUMPDEST PUSH1 0x40 DUP4 ADD MSTORE POP SWAP3 SWAP2 POP POP JUMP JUMPDEST PUSH1 0x0 DUP2 CALLDATALOAD SWAP1 POP PUSH2 0x2CF8 DUP2 PUSH2 0x397B JUMP JUMPDEST SWAP3 SWAP2 POP POP JUMP JUMPDEST PUSH1 0x0 PUSH1 0x20 DUP3 DUP5 SUB SLT ISZERO PUSH2 0x2D10 JUMPI PUSH1 0x0 DUP1 REVERT JUMPDEST PUSH1 0x0 PUSH2 0x2D1E DUP5 DUP3 DUP6 ADD PUSH2 0x2BB2 JUMP JUMPDEST SWAP2 POP POP SWAP3 SWAP2 POP POP JUMP JUMPDEST PUSH1 0x0 DUP1 PUSH1 0x0 DUP1 PUSH1 0x80 DUP6 DUP8 SUB SLT ISZERO PUSH2 0x2D3D JUMPI PUSH1 0x0 DUP1 REVERT JUMPDEST PUSH1 0x0 PUSH2 0x2D4B DUP8 DUP3 DUP9 ADD PUSH2 0x2BB2 JUMP JUMPDEST SWAP5 POP POP PUSH1 0x20 PUSH2 0x2D5C DUP8 DUP3 DUP9 ADD PUSH2 0x2C5F JUMP JUMPDEST SWAP4 POP POP PUSH1 0x40 PUSH2 0x2D6D DUP8 DUP3 DUP9 ADD PUSH2 0x2C4A JUMP JUMPDEST SWAP3 POP POP PUSH1 0x60 PUSH2 0x2D7E DUP8 DUP3 DUP9 ADD PUSH2 0x2C74 JUMP JUMPDEST SWAP2 POP POP SWAP3 SWAP6 SWAP2 SWAP5 POP SWAP3 POP JUMP JUMPDEST PUSH1 0x0 DUP1 PUSH1 0x0 DUP1 PUSH1 0x0 PUSH1 0xA0 DUP7 DUP9 SUB SLT ISZERO PUSH2 0x2DA2 JUMPI PUSH1 0x0 DUP1 REVERT JUMPDEST PUSH1 0x0 PUSH2 0x2DB0 DUP9 DUP3 DUP10 ADD PUSH2 0x2BB2 JUMP JUMPDEST SWAP6 POP POP PUSH1 0x20 PUSH2 0x2DC1 DUP9 DUP3 DUP10 ADD PUSH2 0x2C5F JUMP JUMPDEST SWAP5 POP POP PUSH1 0x40 PUSH2 0x2DD2 DUP9 DUP3 DUP10 ADD PUSH2 0x2C4A JUMP JUMPDEST SWAP4 POP POP PUSH1 0x60 PUSH2 0x2DE3 DUP9 DUP3 DUP10 ADD PUSH2 0x2C74 JUMP JUMPDEST SWAP3 POP POP PUSH1 0x80 PUSH2 0x2DF4 DUP9 DUP3 DUP10 ADD PUSH2 0x2CE9 JUMP JUMPDEST SWAP2 POP POP SWAP3 SWAP6 POP SWAP3 SWAP6 SWAP1 SWAP4 POP JUMP JUMPDEST PUSH1 0x0 DUP1 PUSH1 0x0 DUP1 PUSH1 0x80 DUP6 DUP8 SUB SLT ISZERO PUSH2 0x2E17 JUMPI PUSH1 0x0 DUP1 REVERT JUMPDEST PUSH1 0x0 PUSH2 0x2E25 DUP8 DUP3 DUP9 ADD PUSH2 0x2C4A JUMP JUMPDEST SWAP5 POP POP PUSH1 0x20 DUP6 ADD CALLDATALOAD PUSH8 0xFFFFFFFFFFFFFFFF DUP2 GT ISZERO PUSH2 0x2E42 JUMPI PUSH1 0x0 DUP1 REVERT JUMPDEST PUSH2 0x2E4E DUP8 DUP3 DUP9 ADD PUSH2 0x2BC7 JUMP JUMPDEST SWAP4 POP POP PUSH1 0x40 DUP6 ADD CALLDATALOAD PUSH8 0xFFFFFFFFFFFFFFFF DUP2 GT ISZERO PUSH2 0x2E6B JUMPI PUSH1 0x0 DUP1 REVERT JUMPDEST PUSH2 0x2E77 DUP8 DUP3 DUP9 ADD PUSH2 0x2BC7 JUMP JUMPDEST SWAP3 POP POP PUSH1 0x60 PUSH2 0x2E88 DUP8 DUP3 DUP9 ADD PUSH2 0x2CE9 JUMP JUMPDEST SWAP2 POP POP SWAP3 SWAP6 SWAP2 SWAP5 POP SWAP3 POP JUMP JUMPDEST PUSH1 0x0 PUSH2 0x2EA0 DUP4 DUP4 PUSH2 0x2F3E JUMP JUMPDEST PUSH1 0x20 DUP4 ADD SWAP1 POP SWAP3 SWAP2 POP POP JUMP JUMPDEST PUSH1 0x0 PUSH2 0x2EB8 DUP4 DUP4 PUSH2 0x310E JUMP JUMPDEST PUSH2 0x480 DUP4 ADD SWAP1 POP SWAP3 SWAP2 POP POP JUMP JUMPDEST PUSH1 0x0 PUSH2 0x2ED1 DUP4 DUP4 PUSH2 0x3165 JUMP JUMPDEST PUSH1 0xC0 DUP4 ADD SWAP1 POP SWAP3 SWAP2 POP POP JUMP JUMPDEST PUSH1 0x0 PUSH2 0x2EE9 DUP4 DUP4 PUSH2 0x32C7 JUMP JUMPDEST PUSH1 0xE0 DUP4 ADD SWAP1 POP SWAP3 SWAP2 POP POP JUMP JUMPDEST PUSH1 0x0 PUSH2 0x2F01 DUP4 DUP4 PUSH2 0x3355 JUMP JUMPDEST PUSH2 0x1B20 DUP4 ADD SWAP1 POP SWAP3 SWAP2 POP POP JUMP JUMPDEST PUSH1 0x0 PUSH2 0x2F1A DUP4 DUP4 PUSH2 0x33DF JUMP JUMPDEST PUSH1 0xC0 DUP4 ADD SWAP1 POP SWAP3 SWAP2 POP POP JUMP JUMPDEST PUSH1 0x0 PUSH2 0x2F32 DUP4 DUP4 PUSH2 0x34D5 JUMP JUMPDEST PUSH1 0x20 DUP4 ADD SWAP1 POP SWAP3 SWAP2 POP POP JUMP JUMPDEST PUSH2 0x2F47 DUP2 PUSH2 0x3856 JUMP JUMPDEST DUP3 MSTORE POP POP JUMP JUMPDEST PUSH1 0x0 PUSH2 0x2F58 DUP3 PUSH2 0x3744 JUMP JUMPDEST PUSH2 0x2F62 DUP2 DUP6 PUSH2 0x37EC JUMP JUMPDEST SWAP4 POP PUSH2 0x2F6D DUP4 PUSH2 0x36F2 JUMP JUMPDEST DUP1 PUSH1 0x0 JUMPDEST DUP4 DUP2 LT ISZERO PUSH2 0x2F9E JUMPI DUP2 MLOAD PUSH2 0x2F85 DUP9 DUP3 PUSH2 0x2E94 JUMP JUMPDEST SWAP8 POP PUSH2 0x2F90 DUP4 PUSH2 0x3791 JUMP JUMPDEST SWAP3 POP POP PUSH1 0x1 DUP2 ADD SWAP1 POP PUSH2 0x2F71 JUMP JUMPDEST POP DUP6 SWAP4 POP POP POP POP SWAP3 SWAP2 POP POP JUMP JUMPDEST PUSH2 0x2FB4 DUP2 PUSH2 0x374F JUMP JUMPDEST PUSH2 0x2FBE DUP2 DUP5 PUSH2 0x37FD JUMP JUMPDEST SWAP3 POP PUSH2 0x2FC9 DUP3 PUSH2 0x3702 JUMP JUMPDEST DUP1 PUSH1 0x0 JUMPDEST DUP4 DUP2 LT ISZERO PUSH2 0x2FFA JUMPI DUP2 MLOAD PUSH2 0x2FE1 DUP8 DUP3 PUSH2 0x2EAC JUMP JUMPDEST SWAP7 POP PUSH2 0x2FEC DUP4 PUSH2 0x379E JUMP JUMPDEST SWAP3 POP POP PUSH1 0x1 DUP2 ADD SWAP1 POP PUSH2 0x2FCD JUMP JUMPDEST POP POP POP POP POP POP JUMP JUMPDEST PUSH2 0x300B DUP2 PUSH2 0x375A JUMP JUMPDEST PUSH2 0x3015 DUP2 DUP5 PUSH2 0x3808 JUMP JUMPDEST SWAP3 POP PUSH2 0x3020 DUP3 PUSH2 0x370C JUMP JUMPDEST DUP1 PUSH1 0x0 JUMPDEST DUP4 DUP2 LT ISZERO PUSH2 0x3051 JUMPI DUP2 MLOAD PUSH2 0x3038 DUP8 DUP3 PUSH2 0x2EC5 JUMP JUMPDEST SWAP7 POP PUSH2 0x3043 DUP4 PUSH2 0x37AB JUMP JUMPDEST SWAP3 POP POP PUSH1 0x1 DUP2 ADD SWAP1 POP PUSH2 0x3024 JUMP JUMPDEST POP POP POP POP POP POP JUMP JUMPDEST PUSH2 0x3062 DUP2 PUSH2 0x3765 JUMP JUMPDEST PUSH2 0x306C DUP2 DUP5 PUSH2 0x3813 JUMP JUMPDEST SWAP3 POP PUSH2 0x3077 DUP3 PUSH2 0x3716 JUMP JUMPDEST DUP1 PUSH1 0x0 JUMPDEST DUP4 DUP2 LT ISZERO PUSH2 0x30A8 JUMPI DUP2 MLOAD PUSH2 0x308F DUP8 DUP3 PUSH2 0x2EDD JUMP JUMPDEST SWAP7 POP PUSH2 0x309A DUP4 PUSH2 0x37B8 JUMP JUMPDEST SWAP3 POP POP PUSH1 0x1 DUP2 ADD SWAP1 POP PUSH2 0x307B JUMP JUMPDEST POP POP POP POP POP POP JUMP JUMPDEST PUSH1 0x0 PUSH2 0x30BB DUP3 PUSH2 0x3770 JUMP JUMPDEST PUSH2 0x30C5 DUP2 DUP6 PUSH2 0x381E JUMP JUMPDEST SWAP4 POP PUSH2 0x30D0 DUP4 PUSH2 0x3720 JUMP JUMPDEST DUP1 PUSH1 0x0 JUMPDEST DUP4 DUP2 LT ISZERO PUSH2 0x3101 JUMPI DUP2 MLOAD PUSH2 0x30E8 DUP9 DUP3 PUSH2 0x2EF5 JUMP JUMPDEST SWAP8 POP PUSH2 0x30F3 DUP4 PUSH2 0x37C5 JUMP JUMPDEST SWAP3 POP POP PUSH1 0x1 DUP2 ADD SWAP1 POP PUSH2 0x30D4 JUMP JUMPDEST POP DUP6 SWAP4 POP POP POP POP SWAP3 SWAP2 POP POP JUMP JUMPDEST PUSH2 0x3117 DUP2 PUSH2 0x377B JUMP JUMPDEST PUSH2 0x3121 DUP2 DUP5 PUSH2 0x382F JUMP JUMPDEST SWAP3 POP PUSH2 0x312C DUP3 PUSH2 0x3730 JUMP JUMPDEST DUP1 PUSH1 0x0 JUMPDEST DUP4 DUP2 LT ISZERO PUSH2 0x315D JUMPI DUP2 MLOAD PUSH2 0x3144 DUP8 DUP3 PUSH2 0x2F0E JUMP JUMPDEST SWAP7 POP PUSH2 0x314F DUP4 PUSH2 0x37D2 JUMP JUMPDEST SWAP3 POP POP PUSH1 0x1 DUP2 ADD SWAP1 POP PUSH2 0x3130 JUMP JUMPDEST POP POP POP POP POP POP JUMP JUMPDEST PUSH2 0x316E DUP2 PUSH2 0x3786 JUMP JUMPDEST PUSH2 0x3178 DUP2 DUP5 PUSH2 0x383A JUMP JUMPDEST SWAP3 POP PUSH2 0x3183 DUP3 PUSH2 0x373A JUMP JUMPDEST DUP1 PUSH1 0x0 JUMPDEST DUP4 DUP2 LT ISZERO PUSH2 0x31B4 JUMPI DUP2 MLOAD PUSH2 0x319B DUP8 DUP3 PUSH2 0x2F26 JUMP JUMPDEST SWAP7 POP PUSH2 0x31A6 DUP4 PUSH2 0x37DF JUMP JUMPDEST SWAP3 POP POP PUSH1 0x1 DUP2 ADD SWAP1 POP PUSH2 0x3187 JUMP JUMPDEST POP POP POP POP POP POP JUMP JUMPDEST PUSH2 0x31C5 DUP2 PUSH2 0x3868 JUMP JUMPDEST DUP3 MSTORE POP POP JUMP JUMPDEST PUSH2 0x31D4 DUP2 PUSH2 0x38D7 JUMP JUMPDEST DUP3 MSTORE POP POP JUMP JUMPDEST PUSH2 0x31E3 DUP2 PUSH2 0x38E9 JUMP JUMPDEST DUP3 MSTORE POP POP JUMP JUMPDEST PUSH2 0x31F2 DUP2 PUSH2 0x38FB JUMP JUMPDEST DUP3 MSTORE POP POP JUMP JUMPDEST PUSH2 0x3201 DUP2 PUSH2 0x38FB JUMP JUMPDEST DUP3 MSTORE POP POP JUMP JUMPDEST PUSH1 0x0 PUSH2 0x3214 PUSH1 0x10 DUP4 PUSH2 0x3845 JUMP JUMPDEST SWAP2 POP PUSH32 0x416D6F756E7420746F6F206C6172676500000000000000000000000000000000 PUSH1 0x0 DUP4 ADD MSTORE PUSH1 0x20 DUP3 ADD SWAP1 POP SWAP2 SWAP1 POP JUMP JUMPDEST PUSH1 0x0 PUSH2 0x3254 PUSH1 0xC DUP4 PUSH2 0x3845 JUMP JUMPDEST SWAP2 POP PUSH32 0x4974656D20657870697265640000000000000000000000000000000000000000 PUSH1 0x0 DUP4 ADD MSTORE PUSH1 0x20 DUP3 ADD SWAP1 POP SWAP2 SWAP1 POP JUMP JUMPDEST PUSH1 0x0 PUSH2 0x3294 PUSH1 0x19 DUP4 PUSH2 0x3845 JUMP JUMPDEST SWAP2 POP PUSH32 0x4D6F6E65794D61726B6574426F6F6B206E6F7420666F756E6400000000000000 PUSH1 0x0 DUP4 ADD MSTORE PUSH1 0x20 DUP3 ADD SWAP1 POP SWAP2 SWAP1 POP JUMP JUMPDEST PUSH1 0xE0 DUP3 ADD PUSH1 0x0 DUP3 ADD MLOAD PUSH2 0x32DD PUSH1 0x0 DUP6 ADD DUP3 PUSH2 0x34D5 JUMP JUMPDEST POP PUSH1 0x20 DUP3 ADD MLOAD PUSH2 0x32F0 PUSH1 0x20 DUP6 ADD DUP3 PUSH2 0x34D5 JUMP JUMPDEST POP PUSH1 0x40 DUP3 ADD MLOAD PUSH2 0x3303 PUSH1 0x40 DUP6 ADD DUP3 PUSH2 0x34D5 JUMP JUMPDEST POP PUSH1 0x60 DUP3 ADD MLOAD PUSH2 0x3316 PUSH1 0x60 DUP6 ADD DUP3 PUSH2 0x34D5 JUMP JUMPDEST POP PUSH1 0x80 DUP3 ADD MLOAD PUSH2 0x3329 PUSH1 0x80 DUP6 ADD DUP3 PUSH2 0x34D5 JUMP JUMPDEST POP PUSH1 0xA0 DUP3 ADD MLOAD PUSH2 0x333C PUSH1 0xA0 DUP6 ADD DUP3 PUSH2 0x34D5 JUMP JUMPDEST POP PUSH1 0xC0 DUP3 ADD MLOAD PUSH2 0x334F PUSH1 0xC0 DUP6 ADD DUP3 PUSH2 0x34D5 JUMP JUMPDEST POP POP POP POP JUMP JUMPDEST PUSH2 0x1B20 DUP3 ADD PUSH1 0x0 DUP3 ADD MLOAD PUSH2 0x336C PUSH1 0x0 DUP6 ADD DUP3 PUSH2 0x2FAB JUMP JUMPDEST POP PUSH1 0x20 DUP3 ADD MLOAD PUSH2 0x3380 PUSH2 0xD80 DUP6 ADD DUP3 PUSH2 0x2FAB JUMP JUMPDEST POP PUSH1 0x40 DUP3 ADD MLOAD PUSH2 0x3394 PUSH2 0x1B00 DUP6 ADD DUP3 PUSH2 0x31BC JUMP JUMPDEST POP POP POP POP JUMP JUMPDEST PUSH2 0x1B20 DUP3 ADD PUSH1 0x0 DUP3 ADD MLOAD PUSH2 0x33B1 PUSH1 0x0 DUP6 ADD DUP3 PUSH2 0x2FAB JUMP JUMPDEST POP PUSH1 0x20 DUP3 ADD MLOAD PUSH2 0x33C5 PUSH2 0xD80 DUP6 ADD DUP3 PUSH2 0x2FAB JUMP JUMPDEST POP PUSH1 0x40 DUP3 ADD MLOAD PUSH2 0x33D9 PUSH2 0x1B00 DUP6 ADD DUP3 PUSH2 0x31BC JUMP JUMPDEST POP POP POP POP JUMP JUMPDEST PUSH1 0xC0 DUP3 ADD PUSH1 0x0 DUP3 ADD MLOAD PUSH2 0x33F5 PUSH1 0x0 DUP6 ADD DUP3 PUSH2 0x31E9 JUMP JUMPDEST POP PUSH1 0x20 DUP3 ADD MLOAD PUSH2 0x3408 PUSH1 0x20 DUP6 ADD DUP3 PUSH2 0x34D5 JUMP JUMPDEST POP PUSH1 0x40 DUP3 ADD MLOAD PUSH2 0x341B PUSH1 0x40 DUP6 ADD DUP3 PUSH2 0x34D5 JUMP JUMPDEST POP PUSH1 0x60 DUP3 ADD MLOAD PUSH2 0x342E PUSH1 0x60 DUP6 ADD DUP3 PUSH2 0x34D5 JUMP JUMPDEST POP PUSH1 0x80 DUP3 ADD MLOAD PUSH2 0x3441 PUSH1 0x80 DUP6 ADD DUP3 PUSH2 0x31BC JUMP JUMPDEST POP PUSH1 0xA0 DUP3 ADD MLOAD PUSH2 0x3454 PUSH1 0xA0 DUP6 ADD DUP3 PUSH2 0x2F3E JUMP JUMPDEST POP POP POP POP JUMP JUMPDEST PUSH1 0xC0 DUP3 ADD PUSH1 0x0 DUP3 ADD MLOAD PUSH2 0x3470 PUSH1 0x0 DUP6 ADD DUP3 PUSH2 0x31E9 JUMP JUMPDEST POP PUSH1 0x20 DUP3 ADD MLOAD PUSH2 0x3483 PUSH1 0x20 DUP6 ADD DUP3 PUSH2 0x34D5 JUMP JUMPDEST POP PUSH1 0x40 DUP3 ADD MLOAD PUSH2 0x3496 PUSH1 0x40 DUP6 ADD DUP3 PUSH2 0x34D5 JUMP JUMPDEST POP PUSH1 0x60 DUP3 ADD MLOAD PUSH2 0x34A9 PUSH1 0x60 DUP6 ADD DUP3 PUSH2 0x34D5 JUMP JUMPDEST POP PUSH1 0x80 DUP3 ADD MLOAD PUSH2 0x34BC PUSH1 0x80 DUP6 ADD DUP3 PUSH2 0x31BC JUMP JUMPDEST POP PUSH1 0xA0 DUP3 ADD MLOAD PUSH2 0x34CF PUSH1 0xA0 DUP6 ADD DUP3 PUSH2 0x2F3E JUMP JUMPDEST POP POP POP POP JUMP JUMPDEST PUSH2 0x34DE DUP2 PUSH2 0x38CD JUMP JUMPDEST DUP3 MSTORE POP POP JUMP JUMPDEST PUSH2 0x34ED DUP2 PUSH2 0x38CD JUMP JUMPDEST DUP3 MSTORE POP POP JUMP JUMPDEST PUSH1 0x0 PUSH1 0x20 DUP3 ADD SWAP1 POP DUP2 DUP2 SUB PUSH1 0x0 DUP4 ADD MSTORE PUSH2 0x350D DUP2 DUP5 PUSH2 0x2F4D JUMP JUMPDEST SWAP1 POP SWAP3 SWAP2 POP POP JUMP JUMPDEST PUSH1 0x0 PUSH2 0x240 DUP3 ADD SWAP1 POP PUSH2 0x352B PUSH1 0x0 DUP4 ADD DUP5 PUSH2 0x3002 JUMP JUMPDEST SWAP3 SWAP2 POP POP JUMP JUMPDEST PUSH1 0x0 PUSH2 0x2A0 DUP3 ADD SWAP1 POP PUSH2 0x3547 PUSH1 0x0 DUP4 ADD DUP5 PUSH2 0x3059 JUMP JUMPDEST SWAP3 SWAP2 POP POP JUMP JUMPDEST PUSH1 0x0 PUSH1 0x20 DUP3 ADD SWAP1 POP DUP2 DUP2 SUB PUSH1 0x0 DUP4 ADD MSTORE PUSH2 0x3567 DUP2 DUP5 PUSH2 0x30B0 JUMP JUMPDEST SWAP1 POP SWAP3 SWAP2 POP POP JUMP JUMPDEST PUSH1 0x0 PUSH1 0x60 DUP3 ADD SWAP1 POP PUSH2 0x3584 PUSH1 0x0 DUP4 ADD DUP7 PUSH2 0x31DA JUMP JUMPDEST PUSH2 0x3591 PUSH1 0x20 DUP4 ADD DUP6 PUSH2 0x31CB JUMP JUMPDEST PUSH2 0x359E PUSH1 0x40 DUP4 ADD DUP5 PUSH2 0x31F8 JUMP JUMPDEST SWAP5 SWAP4 POP POP POP POP JUMP JUMPDEST PUSH1 0x0 PUSH1 0x80 DUP3 ADD SWAP1 POP PUSH2 0x35BB PUSH1 0x0 DUP4 ADD DUP8 PUSH2 0x31DA JUMP JUMPDEST PUSH2 0x35C8 PUSH1 0x20 DUP4 ADD DUP7 PUSH2 0x31CB JUMP JUMPDEST PUSH2 0x35D5 PUSH1 0x40 DUP4 ADD DUP6 PUSH2 0x31F8 JUMP JUMPDEST PUSH2 0x35E2 PUSH1 0x60 DUP4 ADD DUP5 PUSH2 0x34E4 JUMP JUMPDEST SWAP6 SWAP5 POP POP POP POP POP JUMP JUMPDEST PUSH1 0x0 PUSH1 0x20 DUP3 ADD SWAP1 POP DUP2 DUP2 SUB PUSH1 0x0 DUP4 ADD MSTORE PUSH2 0x3604 DUP2 PUSH2 0x3207 JUMP JUMPDEST SWAP1 POP SWAP2 SWAP1 POP JUMP JUMPDEST PUSH1 0x0 PUSH1 0x20 DUP3 ADD SWAP1 POP DUP2 DUP2 SUB PUSH1 0x0 DUP4 ADD MSTORE PUSH2 0x3624 DUP2 PUSH2 0x3247 JUMP JUMPDEST SWAP1 POP SWAP2 SWAP1 POP JUMP JUMPDEST PUSH1 0x0 PUSH1 0x20 DUP3 ADD SWAP1 POP DUP2 DUP2 SUB PUSH1 0x0 DUP4 ADD MSTORE PUSH2 0x3644 DUP2 PUSH2 0x3287 JUMP JUMPDEST SWAP1 POP SWAP2 SWAP1 POP JUMP JUMPDEST PUSH1 0x0 PUSH2 0x1B20 DUP3 ADD SWAP1 POP PUSH2 0x3661 PUSH1 0x0 DUP4 ADD DUP5 PUSH2 0x339A JUMP JUMPDEST SWAP3 SWAP2 POP POP JUMP JUMPDEST PUSH1 0x0 PUSH1 0xC0 DUP3 ADD SWAP1 POP PUSH2 0x367C PUSH1 0x0 DUP4 ADD DUP5 PUSH2 0x345A JUMP JUMPDEST SWAP3 SWAP2 POP POP JUMP JUMPDEST PUSH1 0x0 PUSH1 0x20 DUP3 ADD SWAP1 POP PUSH2 0x3697 PUSH1 0x0 DUP4 ADD DUP5 PUSH2 0x34E4 JUMP JUMPDEST SWAP3 SWAP2 POP POP JUMP JUMPDEST PUSH1 0x0 PUSH1 0x40 MLOAD SWAP1 POP DUP2 DUP2 ADD DUP2 DUP2 LT PUSH8 0xFFFFFFFFFFFFFFFF DUP3 GT OR ISZERO PUSH2 0x36C0 JUMPI PUSH1 0x0 DUP1 REVERT JUMPDEST DUP1 PUSH1 0x40 MSTORE POP SWAP2 SWAP1 POP JUMP JUMPDEST PUSH1 0x0 PUSH8 0xFFFFFFFFFFFFFFFF DUP3 GT ISZERO PUSH2 0x36E1 JUMPI PUSH1 0x0 DUP1 REVERT JUMPDEST PUSH1 0x20 DUP3 MUL SWAP1 POP PUSH1 0x20 DUP2 ADD SWAP1 POP SWAP2 SWAP1 POP JUMP JUMPDEST PUSH1 0x0 DUP2 SWAP1 POP PUSH1 0x20 DUP3 ADD SWAP1 POP SWAP2 SWAP1 POP JUMP JUMPDEST PUSH1 0x0 DUP2 SWAP1 POP SWAP2 SWAP1 POP JUMP JUMPDEST PUSH1 0x0 DUP2 SWAP1 POP SWAP2 SWAP1 POP JUMP JUMPDEST PUSH1 0x0 DUP2 SWAP1 POP SWAP2 SWAP1 POP JUMP JUMPDEST PUSH1 0x0 DUP2 SWAP1 POP PUSH1 0x20 DUP3 ADD SWAP1 POP SWAP2 SWAP1 POP JUMP JUMPDEST PUSH1 0x0 DUP2 SWAP1 POP SWAP2 SWAP1 POP JUMP JUMPDEST PUSH1 0x0 DUP2 SWAP1 POP SWAP2 SWAP1 POP JUMP JUMPDEST PUSH1 0x0 DUP2 MLOAD SWAP1 POP SWAP2 SWAP1 POP JUMP JUMPDEST PUSH1 0x0 PUSH1 0x3 SWAP1 POP SWAP2 SWAP1 POP JUMP JUMPDEST PUSH1 0x0 PUSH1 0x3 SWAP1 POP SWAP2 SWAP1 POP JUMP JUMPDEST PUSH1 0x0 PUSH1 0x3 SWAP1 POP SWAP2 SWAP1 POP JUMP JUMPDEST PUSH1 0x0 DUP2 MLOAD SWAP1 POP SWAP2 SWAP1 POP JUMP JUMPDEST PUSH1 0x0 PUSH1 0x6 SWAP1 POP SWAP2 SWAP1 POP JUMP JUMPDEST PUSH1 0x0 PUSH1 0x6 SWAP1 POP SWAP2 SWAP1 POP JUMP JUMPDEST PUSH1 0x0 PUSH1 0x20 DUP3 ADD SWAP1 POP SWAP2 SWAP1 POP JUMP JUMPDEST PUSH1 0x0 PUSH1 0x20 DUP3 ADD SWAP1 POP SWAP2 SWAP1 POP JUMP JUMPDEST PUSH1 0x0 PUSH1 0x20 DUP3 ADD SWAP1 POP SWAP2 SWAP1 POP JUMP JUMPDEST PUSH1 0x0 PUSH1 0x20 DUP3 ADD SWAP1 POP SWAP2 SWAP1 POP JUMP JUMPDEST PUSH1 0x0 PUSH1 0x20 DUP3 ADD SWAP1 POP SWAP2 SWAP1 POP JUMP JUMPDEST PUSH1 0x0 PUSH1 0x20 DUP3 ADD SWAP1 POP SWAP2 SWAP1 POP JUMP JUMPDEST PUSH1 0x0 PUSH1 0x20 DUP3 ADD SWAP1 POP SWAP2 SWAP1 POP JUMP JUMPDEST PUSH1 0x0 DUP3 DUP3 MSTORE PUSH1 0x20 DUP3 ADD SWAP1 POP SWAP3 SWAP2 POP POP JUMP JUMPDEST PUSH1 0x0 DUP2 SWAP1 POP SWAP3 SWAP2 POP POP JUMP JUMPDEST PUSH1 0x0 DUP2 SWAP1 POP SWAP3 SWAP2 POP POP JUMP JUMPDEST PUSH1 0x0 DUP2 SWAP1 POP SWAP3 SWAP2 POP POP JUMP JUMPDEST PUSH1 0x0 DUP3 DUP3 MSTORE PUSH1 0x20 DUP3 ADD SWAP1 POP SWAP3 SWAP2 POP POP JUMP JUMPDEST PUSH1 0x0 DUP2 SWAP1 POP SWAP3 SWAP2 POP POP JUMP JUMPDEST PUSH1 0x0 DUP2 SWAP1 POP SWAP3 SWAP2 POP POP JUMP JUMPDEST PUSH1 0x0 DUP3 DUP3 MSTORE PUSH1 0x20 DUP3 ADD SWAP1 POP SWAP3 SWAP2 POP POP JUMP JUMPDEST PUSH1 0x0 PUSH2 0x3861 DUP3 PUSH2 0x38AD JUMP JUMPDEST SWAP1 POP SWAP2 SWAP1 POP JUMP JUMPDEST PUSH1 0x0 DUP2 ISZERO ISZERO SWAP1 POP SWAP2 SWAP1 POP JUMP JUMPDEST PUSH1 0x0 DUP2 SWAP1 POP PUSH2 0x3882 DUP3 PUSH2 0x390D JUMP JUMPDEST SWAP2 SWAP1 POP JUMP JUMPDEST PUSH1 0x0 DUP2 SWAP1 POP PUSH2 0x3895 DUP3 PUSH2 0x391A JUMP JUMPDEST SWAP2 SWAP1 POP JUMP JUMPDEST PUSH1 0x0 DUP2 SWAP1 POP PUSH2 0x38A8 DUP3 PUSH2 0x3927 JUMP JUMPDEST SWAP2 SWAP1 POP JUMP JUMPDEST PUSH1 0x0 PUSH20 0xFFFFFFFFFFFFFFFFFFFFFFFFFFFFFFFFFFFFFFFF DUP3 AND SWAP1 POP SWAP2 SWAP1 POP JUMP JUMPDEST PUSH1 0x0 DUP2 SWAP1 POP SWAP2 SWAP1 POP JUMP JUMPDEST PUSH1 0x0 PUSH2 0x38E2 DUP3 PUSH2 0x3874 JUMP JUMPDEST SWAP1 POP SWAP2 SWAP1 POP JUMP JUMPDEST PUSH1 0x0 PUSH2 0x38F4 DUP3 PUSH2 0x3887 JUMP JUMPDEST SWAP1 POP SWAP2 SWAP1 POP JUMP JUMPDEST PUSH1 0x0 PUSH2 0x3906 DUP3 PUSH2 0x389A JUMP JUMPDEST SWAP1 POP SWAP2 SWAP1 POP JUMP JUMPDEST PUSH1 0x3 DUP2 LT PUSH2 0x3917 JUMPI INVALID JUMPDEST POP JUMP JUMPDEST PUSH1 0x2 DUP2 LT PUSH2 0x3924 JUMPI INVALID JUMPDEST POP JUMP JUMPDEST PUSH1 0x6 DUP2 LT PUSH2 0x3931 JUMPI INVALID JUMPDEST POP JUMP JUMPDEST PUSH2 0x393D DUP2 PUSH2 0x3856 JUMP JUMPDEST DUP2 EQ PUSH2 0x3948 JUMPI PUSH1 0x0 DUP1 REVERT JUMPDEST POP JUMP JUMPDEST PUSH1 0x3 DUP2 LT PUSH2 0x3958 JUMPI PUSH1 0x0 DUP1 REVERT JUMPDEST POP JUMP JUMPDEST PUSH1 0x2 DUP2 LT PUSH2 0x3968 JUMPI PUSH1 0x0 DUP1 REVERT JUMPDEST POP JUMP JUMPDEST PUSH1 0x6 DUP2 LT PUSH2 0x3978 JUMPI PUSH1 0x0 DUP1 REVERT JUMPDEST POP JUMP JUMPDEST PUSH2 0x3984 DUP2 PUSH2 0x38CD JUMP JUMPDEST DUP2 EQ PUSH2 0x398F JUMPI PUSH1 0x0 DUP1 REVERT JUMPDEST POP JUMP INVALID LOG2 PUSH5 0x6970667358 0x22 SLT KECCAK256 NUMBER SSTORE 0xD2 PUSH23 0x429F3077F4D382C7C8BA16F1DB07DA6F0452B8F4D6943F 0xA8 SWAP5 DUP11 0x4A SWAP15 PUSH5 0x736F6C6343 STOP MOD 0xC STOP CALLER "
		},
		"gasEstimates": {
			"creation": {
				"codeDepositCost": "2958400",
				"executionCost": "3247",
				"totalCost": "2961647"
			},
			"external": {
				"delMoneyMarketBook()": "infinite",
				"delOneItem(address,uint8,uint8,uint8)": "82394",
				"getAllBooks()": "infinite",
				"getBestBook()": "infinite",
				"getBorrowerRates()": "infinite",
				"getDiscountFactors()": "infinite",
				"getLenderRates()": "infinite",
				"getMarketMakers()": "infinite",
				"getMidRates()": "infinite",
				"getOneBook(address)": "infinite",
				"getOneItem(address,uint8,uint8,uint8)": "infinite",
				"setMoneyMarketBook(uint8,(uint8,uint256,uint256)[],(uint8,uint256,uint256)[],uint256)": "infinite",
				"takeOneItem(address,uint8,uint8,uint8,uint256)": "infinite"
			},
			"internal": {
				"betterItem(struct MoneyMarket.MoneyMarketItem memory,struct MoneyMarket.MoneyMarketItem memory,enum MoneyMarket.Side)": "infinite",
				"genDF(uint256[7] memory)": "infinite",
				"inputToItem(struct MoneyMarket.MoneyMarketInput memory,uint256)": "infinite"
			}
		},
		"methodIdentifiers": {
			"delMoneyMarketBook()": "6584d3f6",
			"delOneItem(address,uint8,uint8,uint8)": "aacf1419",
			"getAllBooks()": "354528e8",
			"getBestBook()": "7ba8ad21",
			"getBorrowerRates()": "9b4a7a1a",
			"getDiscountFactors()": "069fa00c",
			"getLenderRates()": "be92e1b5",
			"getMarketMakers()": "2043285d",
			"getMidRates()": "491f8076",
			"getOneBook(address)": "57d8df5a",
			"getOneItem(address,uint8,uint8,uint8)": "666e25de",
			"setMoneyMarketBook(uint8,(uint8,uint256,uint256)[],(uint8,uint256,uint256)[],uint256)": "be8d9c52",
			"takeOneItem(address,uint8,uint8,uint8,uint256)": "524bc34a"
		}
	},
	"abi": [
		{
			"anonymous": false,
			"inputs": [
				{
					"indexed": true,
					"internalType": "address",
					"name": "sender",
					"type": "address"
				}
			],
			"name": "DelMoneyMarketBook",
			"type": "event"
		},
		{
			"anonymous": false,
			"inputs": [
				{
					"indexed": true,
					"internalType": "address",
					"name": "addr",
					"type": "address"
				},
				{
					"indexed": false,
					"internalType": "enum MoneyMarket.Side",
					"name": "side",
					"type": "uint8"
				},
				{
					"indexed": false,
					"internalType": "enum MoneyMarket.Ccy",
					"name": "ccy",
					"type": "uint8"
				},
				{
					"indexed": false,
					"internalType": "enum MoneyMarket.Term",
					"name": "term",
					"type": "uint8"
				}
			],
			"name": "DelOneItem",
			"type": "event"
		},
		{
			"anonymous": false,
			"inputs": [
				{
					"indexed": true,
					"internalType": "address",
					"name": "sender",
					"type": "address"
				}
			],
			"name": "SetMoneyMarketBook",
			"type": "event"
		},
		{
			"anonymous": false,
			"inputs": [
				{
					"indexed": true,
					"internalType": "address",
					"name": "addr",
					"type": "address"
				},
				{
					"indexed": false,
					"internalType": "enum MoneyMarket.Side",
					"name": "side",
					"type": "uint8"
				},
				{
					"indexed": false,
					"internalType": "enum MoneyMarket.Ccy",
					"name": "ccy",
					"type": "uint8"
				},
				{
					"indexed": false,
					"internalType": "enum MoneyMarket.Term",
					"name": "term",
					"type": "uint8"
				},
				{
					"indexed": false,
					"internalType": "uint256",
					"name": "amt",
					"type": "uint256"
				}
			],
			"name": "TakeOneItem",
			"type": "event"
		},
		{
			"inputs": [],
			"name": "delMoneyMarketBook",
			"outputs": [],
			"stateMutability": "nonpayable",
			"type": "function"
		},
		{
			"inputs": [
				{
					"internalType": "address",
					"name": "addr",
					"type": "address"
				},
				{
					"internalType": "enum MoneyMarket.Side",
					"name": "side",
					"type": "uint8"
				},
				{
					"internalType": "enum MoneyMarket.Ccy",
					"name": "ccy",
					"type": "uint8"
				},
				{
					"internalType": "enum MoneyMarket.Term",
					"name": "term",
					"type": "uint8"
				}
			],
			"name": "delOneItem",
			"outputs": [],
			"stateMutability": "nonpayable",
			"type": "function"
		},
		{
			"inputs": [],
			"name": "getAllBooks",
			"outputs": [
				{
					"components": [
						{
							"components": [
								{
									"internalType": "enum MoneyMarket.Term",
									"name": "term",
									"type": "uint8"
								},
								{
									"internalType": "uint256",
									"name": "amt",
									"type": "uint256"
								},
								{
									"internalType": "uint256",
									"name": "rate",
									"type": "uint256"
								},
								{
									"internalType": "uint256",
									"name": "goodtil",
									"type": "uint256"
								},
								{
									"internalType": "bool",
									"name": "isAvailable",
									"type": "bool"
								},
								{
									"internalType": "address",
									"name": "addr",
									"type": "address"
								}
							],
							"internalType": "struct MoneyMarket.MoneyMarketItem[6][3]",
							"name": "lenders",
							"type": "tuple[6][3]"
						},
						{
							"components": [
								{
									"internalType": "enum MoneyMarket.Term",
									"name": "term",
									"type": "uint8"
								},
								{
									"internalType": "uint256",
									"name": "amt",
									"type": "uint256"
								},
								{
									"internalType": "uint256",
									"name": "rate",
									"type": "uint256"
								},
								{
									"internalType": "uint256",
									"name": "goodtil",
									"type": "uint256"
								},
								{
									"internalType": "bool",
									"name": "isAvailable",
									"type": "bool"
								},
								{
									"internalType": "address",
									"name": "addr",
									"type": "address"
								}
							],
							"internalType": "struct MoneyMarket.MoneyMarketItem[6][3]",
							"name": "borrowers",
							"type": "tuple[6][3]"
						},
						{
							"internalType": "bool",
							"name": "isValue",
							"type": "bool"
						}
					],
					"internalType": "struct MoneyMarket.MoneyMarketBook[]",
					"name": "",
					"type": "tuple[]"
				}
			],
			"stateMutability": "view",
			"type": "function"
		},
		{
			"inputs": [],
			"name": "getBestBook",
			"outputs": [
				{
					"components": [
						{
							"components": [
								{
									"internalType": "enum MoneyMarket.Term",
									"name": "term",
									"type": "uint8"
								},
								{
									"internalType": "uint256",
									"name": "amt",
									"type": "uint256"
								},
								{
									"internalType": "uint256",
									"name": "rate",
									"type": "uint256"
								},
								{
									"internalType": "uint256",
									"name": "goodtil",
									"type": "uint256"
								},
								{
									"internalType": "bool",
									"name": "isAvailable",
									"type": "bool"
								},
								{
									"internalType": "address",
									"name": "addr",
									"type": "address"
								}
							],
							"internalType": "struct MoneyMarket.MoneyMarketItem[6][3]",
							"name": "lenders",
							"type": "tuple[6][3]"
						},
						{
							"components": [
								{
									"internalType": "enum MoneyMarket.Term",
									"name": "term",
									"type": "uint8"
								},
								{
									"internalType": "uint256",
									"name": "amt",
									"type": "uint256"
								},
								{
									"internalType": "uint256",
									"name": "rate",
									"type": "uint256"
								},
								{
									"internalType": "uint256",
									"name": "goodtil",
									"type": "uint256"
								},
								{
									"internalType": "bool",
									"name": "isAvailable",
									"type": "bool"
								},
								{
									"internalType": "address",
									"name": "addr",
									"type": "address"
								}
							],
							"internalType": "struct MoneyMarket.MoneyMarketItem[6][3]",
							"name": "borrowers",
							"type": "tuple[6][3]"
						},
						{
							"internalType": "bool",
							"name": "isValue",
							"type": "bool"
						}
					],
					"internalType": "struct MoneyMarket.MoneyMarketBook",
					"name": "",
					"type": "tuple"
				}
			],
			"stateMutability": "view",
			"type": "function"
		},
		{
			"inputs": [],
			"name": "getBorrowerRates",
			"outputs": [
				{
					"internalType": "uint256[6][3]",
					"name": "",
					"type": "uint256[6][3]"
				}
			],
			"stateMutability": "view",
			"type": "function"
		},
		{
			"inputs": [],
			"name": "getDiscountFactors",
			"outputs": [
				{
					"components": [
						{
							"internalType": "uint256",
							"name": "df3m",
							"type": "uint256"
						},
						{
							"internalType": "uint256",
							"name": "df6m",
							"type": "uint256"
						},
						{
							"internalType": "uint256",
							"name": "df1y",
							"type": "uint256"
						},
						{
							"internalType": "uint256",
							"name": "df2y",
							"type": "uint256"
						},
						{
							"internalType": "uint256",
							"name": "df3y",
							"type": "uint256"
						},
						{
							"internalType": "uint256",
							"name": "df4y",
							"type": "uint256"
						},
						{
							"internalType": "uint256",
							"name": "df5y",
							"type": "uint256"
						}
					],
					"internalType": "struct MoneyMarket.DiscountFactor[3]",
					"name": "",
					"type": "tuple[3]"
				}
			],
			"stateMutability": "view",
			"type": "function"
		},
		{
			"inputs": [],
			"name": "getLenderRates",
			"outputs": [
				{
					"internalType": "uint256[6][3]",
					"name": "",
					"type": "uint256[6][3]"
				}
			],
			"stateMutability": "view",
			"type": "function"
		},
		{
			"inputs": [],
			"name": "getMarketMakers",
			"outputs": [
				{
					"internalType": "address[]",
					"name": "",
					"type": "address[]"
				}
			],
			"stateMutability": "view",
			"type": "function"
		},
		{
			"inputs": [],
			"name": "getMidRates",
			"outputs": [
				{
					"internalType": "uint256[6][3]",
					"name": "",
					"type": "uint256[6][3]"
				}
			],
			"stateMutability": "view",
			"type": "function"
		},
		{
			"inputs": [
				{
					"internalType": "address",
					"name": "addr",
					"type": "address"
				}
			],
			"name": "getOneBook",
			"outputs": [
				{
					"components": [
						{
							"components": [
								{
									"internalType": "enum MoneyMarket.Term",
									"name": "term",
									"type": "uint8"
								},
								{
									"internalType": "uint256",
									"name": "amt",
									"type": "uint256"
								},
								{
									"internalType": "uint256",
									"name": "rate",
									"type": "uint256"
								},
								{
									"internalType": "uint256",
									"name": "goodtil",
									"type": "uint256"
								},
								{
									"internalType": "bool",
									"name": "isAvailable",
									"type": "bool"
								},
								{
									"internalType": "address",
									"name": "addr",
									"type": "address"
								}
							],
							"internalType": "struct MoneyMarket.MoneyMarketItem[6][3]",
							"name": "lenders",
							"type": "tuple[6][3]"
						},
						{
							"components": [
								{
									"internalType": "enum MoneyMarket.Term",
									"name": "term",
									"type": "uint8"
								},
								{
									"internalType": "uint256",
									"name": "amt",
									"type": "uint256"
								},
								{
									"internalType": "uint256",
									"name": "rate",
									"type": "uint256"
								},
								{
									"internalType": "uint256",
									"name": "goodtil",
									"type": "uint256"
								},
								{
									"internalType": "bool",
									"name": "isAvailable",
									"type": "bool"
								},
								{
									"internalType": "address",
									"name": "addr",
									"type": "address"
								}
							],
							"internalType": "struct MoneyMarket.MoneyMarketItem[6][3]",
							"name": "borrowers",
							"type": "tuple[6][3]"
						},
						{
							"internalType": "bool",
							"name": "isValue",
							"type": "bool"
						}
					],
					"internalType": "struct MoneyMarket.MoneyMarketBook",
					"name": "",
					"type": "tuple"
				}
			],
			"stateMutability": "view",
			"type": "function"
		},
		{
			"inputs": [
				{
					"internalType": "address",
					"name": "addr",
					"type": "address"
				},
				{
					"internalType": "enum MoneyMarket.Side",
					"name": "side",
					"type": "uint8"
				},
				{
					"internalType": "enum MoneyMarket.Ccy",
					"name": "ccy",
					"type": "uint8"
				},
				{
					"internalType": "enum MoneyMarket.Term",
					"name": "term",
					"type": "uint8"
				}
			],
			"name": "getOneItem",
			"outputs": [
				{
					"components": [
						{
							"internalType": "enum MoneyMarket.Term",
							"name": "term",
							"type": "uint8"
						},
						{
							"internalType": "uint256",
							"name": "amt",
							"type": "uint256"
						},
						{
							"internalType": "uint256",
							"name": "rate",
							"type": "uint256"
						},
						{
							"internalType": "uint256",
							"name": "goodtil",
							"type": "uint256"
						},
						{
							"internalType": "bool",
							"name": "isAvailable",
							"type": "bool"
						},
						{
							"internalType": "address",
							"name": "addr",
							"type": "address"
						}
					],
					"internalType": "struct MoneyMarket.MoneyMarketItem",
					"name": "",
					"type": "tuple"
				}
			],
			"stateMutability": "view",
			"type": "function"
		},
		{
			"inputs": [
				{
					"internalType": "enum MoneyMarket.Ccy",
					"name": "ccy",
					"type": "uint8"
				},
				{
					"components": [
						{
							"internalType": "enum MoneyMarket.Term",
							"name": "term",
							"type": "uint8"
						},
						{
							"internalType": "uint256",
							"name": "amt",
							"type": "uint256"
						},
						{
							"internalType": "uint256",
							"name": "rate",
							"type": "uint256"
						}
					],
					"internalType": "struct MoneyMarket.MoneyMarketInput[]",
					"name": "lenders",
					"type": "tuple[]"
				},
				{
					"components": [
						{
							"internalType": "enum MoneyMarket.Term",
							"name": "term",
							"type": "uint8"
						},
						{
							"internalType": "uint256",
							"name": "amt",
							"type": "uint256"
						},
						{
							"internalType": "uint256",
							"name": "rate",
							"type": "uint256"
						}
					],
					"internalType": "struct MoneyMarket.MoneyMarketInput[]",
					"name": "borrowers",
					"type": "tuple[]"
				},
				{
					"internalType": "uint256",
					"name": "effectiveSec",
					"type": "uint256"
				}
			],
			"name": "setMoneyMarketBook",
			"outputs": [],
			"stateMutability": "nonpayable",
			"type": "function"
		},
		{
			"inputs": [
				{
					"internalType": "address",
					"name": "addr",
					"type": "address"
				},
				{
					"internalType": "enum MoneyMarket.Side",
					"name": "side",
					"type": "uint8"
				},
				{
					"internalType": "enum MoneyMarket.Ccy",
					"name": "ccy",
					"type": "uint8"
				},
				{
					"internalType": "enum MoneyMarket.Term",
					"name": "term",
					"type": "uint8"
				},
				{
					"internalType": "uint256",
					"name": "amt",
					"type": "uint256"
				}
			],
			"name": "takeOneItem",
			"outputs": [
				{
					"internalType": "uint256",
					"name": "rate",
					"type": "uint256"
				}
			],
			"stateMutability": "nonpayable",
			"type": "function"
		}
	]
}