{
  "address": "0x6e407ac2be34441759fd2baf7de3b2a82ce6cd3a",
  "abi": [
    {
      "inputs": [
        {
          "internalType": "address",
          "name": "_pool",
          "type": "address"
        }
      ],
      "stateMutability": "nonpayable",
      "type": "constructor"
    },
    {
      "inputs": [],
      "name": "decimals",
      "outputs": [
        {
          "internalType": "uint8",
          "name": "",
          "type": "uint8"
        }
      ],
      "stateMutability": "view",
      "type": "function"
    },
    {
      "inputs": [],
      "name": "description",
      "outputs": [
        {
          "internalType": "string",
          "name": "",
          "type": "string"
        }
      ],
      "stateMutability": "pure",
      "type": "function"
    },
    {
      "inputs": [
        {
          "internalType": "uint256",
          "name": "",
          "type": "uint256"
        }
      ],
      "name": "getAnswer",
      "outputs": [
        {
          "internalType": "int256",
          "name": "",
          "type": "int256"
        }
      ],
      "stateMutability": "view",
      "type": "function"
    },
    {
      "inputs": [
        {
          "internalType": "uint80",
          "name": "_roundId",
          "type": "uint80"
        }
      ],
      "name": "getRoundData",
      "outputs": [
        {
          "internalType": "uint80",
          "name": "roundId",
          "type": "uint80"
        },
        {
          "internalType": "int256",
          "name": "answer",
          "type": "int256"
        },
        {
          "internalType": "uint256",
          "name": "startedAt",
          "type": "uint256"
        },
        {
          "internalType": "uint256",
          "name": "updatedAt",
          "type": "uint256"
        },
        {
          "internalType": "uint80",
          "name": "answeredInRound",
          "type": "uint80"
        }
      ],
      "stateMutability": "view",
      "type": "function"
    },
    {
      "inputs": [
        {
          "internalType": "uint256",
          "name": "",
          "type": "uint256"
        }
      ],
      "name": "getTimestamp",
      "outputs": [
        {
          "internalType": "uint256",
          "name": "",
          "type": "uint256"
        }
      ],
      "stateMutability": "view",
      "type": "function"
    },
    {
      "inputs": [],
      "name": "latestAnswer",
      "outputs": [
        {
          "internalType": "int256",
          "name": "",
          "type": "int256"
        }
      ],
      "stateMutability": "view",
      "type": "function"
    },
    {
      "inputs": [],
      "name": "latestRound",
      "outputs": [
        {
          "internalType": "uint256",
          "name": "",
          "type": "uint256"
        }
      ],
      "stateMutability": "view",
      "type": "function"
    },
    {
      "inputs": [],
      "name": "latestRoundData",
      "outputs": [
        {
          "internalType": "uint80",
          "name": "roundId",
          "type": "uint80"
        },
        {
          "internalType": "int256",
          "name": "answer",
          "type": "int256"
        },
        {
          "internalType": "uint256",
          "name": "startedAt",
          "type": "uint256"
        },
        {
          "internalType": "uint256",
          "name": "updatedAt",
          "type": "uint256"
        },
        {
          "internalType": "uint80",
          "name": "answeredInRound",
          "type": "uint80"
        }
      ],
      "stateMutability": "view",
      "type": "function"
    },
    {
      "inputs": [],
      "name": "latestTimestamp",
      "outputs": [
        {
          "internalType": "uint256",
          "name": "",
          "type": "uint256"
        }
      ],
      "stateMutability": "view",
      "type": "function"
    },
    {
      "inputs": [],
      "name": "version",
      "outputs": [
        {
          "internalType": "uint256",
          "name": "",
          "type": "uint256"
        }
      ],
      "stateMutability": "pure",
      "type": "function"
    }
  ],
  "transactionHash": "0x10987347e3da7846455cf6f5e3176f578f02dc076fb593f4a93a03ed7ceeccb5",
  "args": [
    "0x37621D9a49FFE8f13BF2Adcb87f1b115D82ac378"
  ],
  "numDeployments": 1,
  "solcInputHash": "f3aa1cfa8e4de6a118da5c4500d93b3f",
  "bytecode": "0x608060405234801561001057600080fd5b506040516103d03803806103d083398101604081905261002f91610054565b600080546001600160a01b0319166001600160a01b0392909216919091179055610084565b60006020828403121561006657600080fd5b81516001600160a01b038116811461007d57600080fd5b9392505050565b61033d806100936000396000f3fe608060405234801561001057600080fd5b506004361061009e5760003560e01c80638205bf6a116100665780638205bf6a146100d45780639a6fc8f514610106578063b5ab58dc14610150578063b633620c14610163578063feaf968c1461017657600080fd5b8063313ce567146100a357806350d25bcd146100b757806354fd4d50146100cd578063668a0f02146100d45780637284e416146100da575b600080fd5b604051601281526020015b60405180910390f35b6100bf61017e565b6040519081526020016100ae565b60016100bf565b426100bf565b604080518082018252600a8152691a519253080bc811925360b21b602082015290516100ae9190610254565b6101196101143660046102a2565b6101f8565b6040805169ffffffffffffffffffff968716815260208101959095528401929092526060830152909116608082015260a0016100ae565b6100bf61015e3660046102d5565b61021b565b6100bf6101713660046102d5565b61022b565b610119610233565b600080546040516303d1689d60e11b8152670de0b6b3a764000060048201526001600160a01b03909116906307a2d13a90602401602060405180830381865afa1580156101cf573d6000803e3d6000fd5b505050506040513d601f19601f820116820180604052508101906101f391906102ee565b905090565b600080808080428661020861017e565b9098909750909550859450849350915050565b600061022561017e565b92915050565b600042610225565b426000808080848061024361017e565b909790969195508594509092509050565b600060208083528351808285015260005b8181101561028157858101830151858201604001528201610265565b506000604082860101526040601f19601f8301168501019250505092915050565b6000602082840312156102b457600080fd5b813569ffffffffffffffffffff811681146102ce57600080fd5b9392505050565b6000602082840312156102e757600080fd5b5035919050565b60006020828403121561030057600080fd5b505191905056fea2646970667358221220962400810ec5439215c9dc833ccb5bbe5f3229fad591482b9dd43a29b9f4421064736f6c63430008130033",
  "devdoc": {
    "kind": "dev",
    "methods": {},
    "version": 1
  },
  "userdoc": {
    "kind": "user",
    "methods": {},
    "version": 1
  },
  "storageLayout": {
    "storage": [
      {
        "astId": 8421,
        "contract": "contracts/external/oracles/GlifIFilAggregator.sol:GlifIFilAggregator",
        "label": "pool",
        "offset": 0,
        "slot": "0",
        "type": "t_contract(IInfinityPool)8878"
      }
    ],
    "types": {
      "t_contract(IInfinityPool)8878": {
        "encoding": "inplace",
        "label": "contract IInfinityPool",
        "numberOfBytes": "20"
      }
    }
  }
}