{
  "address": "0x84F6ba66ED9CD9c92881D55C1C919BD7534444E0",
  "abi": [
    {
      "inputs": [
        {
          "internalType": "address",
          "name": "_pyth",
          "type": "address"
        },
        {
          "internalType": "bytes32",
          "name": "_priceId",
          "type": "bytes32"
        },
        {
          "internalType": "string",
          "name": "_description",
          "type": "string"
        }
      ],
      "stateMutability": "nonpayable",
      "type": "constructor"
    },
    {
      "anonymous": false,
      "inputs": [
        {
          "indexed": true,
          "internalType": "int256",
          "name": "current",
          "type": "int256"
        },
        {
          "indexed": true,
          "internalType": "uint256",
          "name": "roundId",
          "type": "uint256"
        },
        {
          "indexed": false,
          "internalType": "uint256",
          "name": "updatedAt",
          "type": "uint256"
        }
      ],
      "name": "AnswerUpdated",
      "type": "event"
    },
    {
      "anonymous": false,
      "inputs": [
        {
          "indexed": true,
          "internalType": "uint256",
          "name": "roundId",
          "type": "uint256"
        },
        {
          "indexed": true,
          "internalType": "address",
          "name": "startedBy",
          "type": "address"
        },
        {
          "indexed": false,
          "internalType": "uint256",
          "name": "startedAt",
          "type": "uint256"
        }
      ],
      "name": "NewRound",
      "type": "event"
    },
    {
      "inputs": [],
      "name": "decimals",
      "outputs": [
        {
          "internalType": "uint8",
          "name": "",
          "type": "uint8"
        }
      ],
      "stateMutability": "view",
      "type": "function"
    },
    {
      "inputs": [],
      "name": "description",
      "outputs": [
        {
          "internalType": "string",
          "name": "",
          "type": "string"
        }
      ],
      "stateMutability": "view",
      "type": "function"
    },
    {
      "inputs": [
        {
          "internalType": "uint256",
          "name": "",
          "type": "uint256"
        }
      ],
      "name": "getAnswer",
      "outputs": [
        {
          "internalType": "int256",
          "name": "",
          "type": "int256"
        }
      ],
      "stateMutability": "view",
      "type": "function"
    },
    {
      "inputs": [
        {
          "internalType": "uint80",
          "name": "_roundId",
          "type": "uint80"
        }
      ],
      "name": "getRoundData",
      "outputs": [
        {
          "internalType": "uint80",
          "name": "roundId",
          "type": "uint80"
        },
        {
          "internalType": "int256",
          "name": "answer",
          "type": "int256"
        },
        {
          "internalType": "uint256",
          "name": "startedAt",
          "type": "uint256"
        },
        {
          "internalType": "uint256",
          "name": "updatedAt",
          "type": "uint256"
        },
        {
          "internalType": "uint80",
          "name": "answeredInRound",
          "type": "uint80"
        }
      ],
      "stateMutability": "view",
      "type": "function"
    },
    {
      "inputs": [
        {
          "internalType": "uint256",
          "name": "",
          "type": "uint256"
        }
      ],
      "name": "getTimestamp",
      "outputs": [
        {
          "internalType": "uint256",
          "name": "",
          "type": "uint256"
        }
      ],
      "stateMutability": "view",
      "type": "function"
    },
    {
      "inputs": [],
      "name": "latestAnswer",
      "outputs": [
        {
          "internalType": "int256",
          "name": "",
          "type": "int256"
        }
      ],
      "stateMutability": "view",
      "type": "function"
    },
    {
      "inputs": [],
      "name": "latestRound",
      "outputs": [
        {
          "internalType": "uint256",
          "name": "",
          "type": "uint256"
        }
      ],
      "stateMutability": "view",
      "type": "function"
    },
    {
      "inputs": [],
      "name": "latestRoundData",
      "outputs": [
        {
          "internalType": "uint80",
          "name": "roundId",
          "type": "uint80"
        },
        {
          "internalType": "int256",
          "name": "answer",
          "type": "int256"
        },
        {
          "internalType": "uint256",
          "name": "startedAt",
          "type": "uint256"
        },
        {
          "internalType": "uint256",
          "name": "updatedAt",
          "type": "uint256"
        },
        {
          "internalType": "uint80",
          "name": "answeredInRound",
          "type": "uint80"
        }
      ],
      "stateMutability": "view",
      "type": "function"
    },
    {
      "inputs": [],
      "name": "latestTimestamp",
      "outputs": [
        {
          "internalType": "uint256",
          "name": "",
          "type": "uint256"
        }
      ],
      "stateMutability": "view",
      "type": "function"
    },
    {
      "inputs": [],
      "name": "priceId",
      "outputs": [
        {
          "internalType": "bytes32",
          "name": "",
          "type": "bytes32"
        }
      ],
      "stateMutability": "view",
      "type": "function"
    },
    {
      "inputs": [],
      "name": "pyth",
      "outputs": [
        {
          "internalType": "contract IPyth",
          "name": "",
          "type": "address"
        }
      ],
      "stateMutability": "view",
      "type": "function"
    },
    {
      "inputs": [
        {
          "internalType": "bytes[]",
          "name": "priceUpdateData",
          "type": "bytes[]"
        }
      ],
      "name": "updateFeeds",
      "outputs": [],
      "stateMutability": "payable",
      "type": "function"
    },
    {
      "inputs": [],
      "name": "version",
      "outputs": [
        {
          "internalType": "uint256",
          "name": "",
          "type": "uint256"
        }
      ],
      "stateMutability": "pure",
      "type": "function"
    }
  ],
  "transactionHash": "0xc90a4edecd479d5912ac7505546b2f1d3fd2f8b1a2b87cf8e91e6a1ee3e13341",
  "args": [
    "0xA2aa501b19aff244D90cc15a4Cf739D2725B5729",
    "0x150ac9b959aee0051e4091f0ef5216d941f590e1c5e7f91cf7635b5c11628c0e",
    "tFIL / USD"
  ],
  "numDeployments": 30,
  "solcInputHash": "16efa0a5b1b11ce8668c2fd16ebcb816",
  "bytecode": "0x60806040523480156200001157600080fd5b5060405162000dc038038062000dc0833981016040819052620000349162000082565b6000829055600180546001600160a01b0319166001600160a01b038516179055600262000062828262000210565b50505050620002dc565b634e487b7160e01b600052604160045260246000fd5b6000806000606084860312156200009857600080fd5b83516001600160a01b0381168114620000b057600080fd5b60208581015160408701519295509350906001600160401b0380821115620000d757600080fd5b818701915087601f830112620000ec57600080fd5b8151818111156200010157620001016200006c565b604051601f8201601f19908116603f011681019083821181831017156200012c576200012c6200006c565b816040528281528a868487010111156200014557600080fd5b600093505b828410156200016957848401860151818501870152928501926200014a565b60008684830101528096505050505050509250925092565b600181811c908216806200019657607f821691505b602082108103620001b757634e487b7160e01b600052602260045260246000fd5b50919050565b601f8211156200020b57600081815260208120601f850160051c81016020861015620001e65750805b601f850160051c820191505b818110156200020757828155600101620001f2565b5050505b505050565b81516001600160401b038111156200022c576200022c6200006c565b62000244816200023d845462000181565b84620001bd565b602080601f8311600181146200027c5760008415620002635750858301515b600019600386901b1c1916600185901b17855562000207565b600085815260208120601f198616915b82811015620002ad578886015182559484019460019091019084016200028c565b5085821015620002cc5787850151600019600388901b60f8161c191681555b5050505050600190811b01905550565b610ad480620002ec6000396000f3fe6080604052600436106100c25760003560e01c80638205bf6a1161007f578063b633620c11610059578063b633620c14610203578063bc36c0a914610223578063f98d06f014610238578063feaf968c1461027057600080fd5b80638205bf6a146101775780639a6fc8f51461018c578063b5ab58dc146101e357600080fd5b806331189334146100c7578063313ce567146100f057806350d25bcd1461011757806354fd4d501461012c578063668a0f02146101405780637284e41614610155575b600080fd5b3480156100d357600080fd5b506100dd60005481565b6040519081526020015b60405180910390f35b3480156100fc57600080fd5b50610105610285565b60405160ff90911681526020016100e7565b34801561012357600080fd5b506100dd610315565b34801561013857600080fd5b5060016100dd565b34801561014c57600080fd5b506100dd610395565b34801561016157600080fd5b5061016a6103a4565b6040516100e79190610783565b34801561018357600080fd5b506100dd610432565b34801561019857600080fd5b506101ac6101a73660046107d1565b6104b2565b6040805169ffffffffffffffffffff968716815260208101959095528401929092526060830152909116608082015260a0016100e7565b3480156101ef57600080fd5b506100dd6101fe366004610804565b61054f565b34801561020f57600080fd5b506100dd61021e366004610804565b61055f565b61023661023136600461081d565b610569565b005b34801561024457600080fd5b50600154610258906001600160a01b031681565b6040516001600160a01b0390911681526020016100e7565b34801561027c57600080fd5b506101ac6106e6565b600154600080546040516396834ad360e01b81526004810191909152909182916001600160a01b03909116906396834ad390602401608060405180830381865afa1580156102d7573d6000803e3d6000fd5b505050506040513d601f19601f820116820180604052508101906102fb91906108c1565b9050806040015160001961030f9190610951565b91505090565b600154600080546040516396834ad360e01b81526004810191909152909182916001600160a01b03909116906396834ad390602401608060405180830381865afa158015610367573d6000803e3d6000fd5b505050506040513d601f19601f8201168201806040525081019061038b91906108c1565b5160070b92915050565b600061039f610432565b905090565b600280546103b190610986565b80601f01602080910402602001604051908101604052809291908181526020018280546103dd90610986565b801561042a5780601f106103ff5761010080835404028352916020019161042a565b820191906000526020600020905b81548152906001019060200180831161040d57829003601f168201915b505050505081565b600154600080546040516396834ad360e01b81526004810191909152909182916001600160a01b03909116906396834ad390602401608060405180830381865afa158015610484573d6000803e3d6000fd5b505050506040513d601f19601f820116820180604052508101906104a891906108c1565b6060015192915050565b600154600080546040516396834ad360e01b815260048101919091529091829182918291829182916001600160a01b03909116906396834ad390602401608060405180830381865afa15801561050c573d6000803e3d6000fd5b505050506040513d601f19601f8201168201806040525081019061053091906108c1565b8051606090910151979860079190910b97965086955085945092505050565b6000610559610315565b92915050565b6000610559610432565b60015460405163d47eed4560e01b81526000916001600160a01b03169063d47eed459061059c90869086906004016109e9565b602060405180830381865afa1580156105b9573d6000803e3d6000fd5b505050506040513d601f19601f820116820180604052508101906105dd9190610a85565b600154604051631df3cbc560e31b81529192506001600160a01b03169063ef9e5e2890839061061290879087906004016109e9565b6000604051808303818588803b15801561062b57600080fd5b505af115801561063f573d6000803e3d6000fd5b5050604051600093503392504791508381818185875af1925050503d8060008114610686576040519150601f19603f3d011682016040523d82523d6000602084013e61068b565b606091505b50509050806106e05760405162461bcd60e51b815260206004820152601d60248201527f5079746841676772656761746f723a20524546554e445f4641494c4544000000604482015260640160405180910390fd5b50505050565b600154600080546040516396834ad360e01b815260048101919091529091829182918291829182916001600160a01b03909116906396834ad390602401608060405180830381865afa158015610740573d6000803e3d6000fd5b505050506040513d601f19601f8201168201806040525081019061076491906108c1565b60608101519051909760079190910b9650879550859450849350915050565b600060208083528351808285015260005b818110156107b057858101830151858201604001528201610794565b506000604082860101526040601f19601f8301168501019250505092915050565b6000602082840312156107e357600080fd5b813569ffffffffffffffffffff811681146107fd57600080fd5b9392505050565b60006020828403121561081657600080fd5b5035919050565b6000806020838503121561083057600080fd5b823567ffffffffffffffff8082111561084857600080fd5b818501915085601f83011261085c57600080fd5b81358181111561086b57600080fd5b8660208260051b850101111561088057600080fd5b60209290920196919550909350505050565b805167ffffffffffffffff811681146108aa57600080fd5b919050565b8051600381900b81146108aa57600080fd5b6000608082840312156108d357600080fd5b6040516080810181811067ffffffffffffffff8211171561090457634e487b7160e01b600052604160045260246000fd5b6040528251600781900b811461091957600080fd5b815261092760208401610892565b6020820152610938604084016108af565b6040820152606083015160608201528091505092915050565b60008260000b8260000b028060000b915080821461097f57634e487b7160e01b600052601160045260246000fd5b5092915050565b600181811c9082168061099a57607f821691505b6020821081036109ba57634e487b7160e01b600052602260045260246000fd5b50919050565b81835281816020850137506000828201602090810191909152601f909101601f19169091010190565b60208082528181018390526000906040600585901b8401810190840186845b87811015610a7857868403603f190183528135368a9003601e19018112610a2e57600080fd5b8901858101903567ffffffffffffffff811115610a4a57600080fd5b803603821315610a5957600080fd5b610a648682846109c0565b955050509184019190840190600101610a08565b5091979650505050505050565b600060208284031215610a9757600080fd5b505191905056fea264697066735822122041389079740c1b6d2ef373ecf2945e9e5e4a1e549fa0c993dd13e9de93aa22cf64736f6c63430008130033",
  "devdoc": {
    "kind": "dev",
    "methods": {},
    "title": "A Chainlink-based aggregator contract powered by pyth network feeds",
    "version": 1
  },
  "userdoc": {
    "kind": "user",
    "methods": {},
    "notice": "This contract always uses the price publish time as the round id, as pyth network does not have a concept of rounds.",
    "version": 1
  },
  "storageLayout": {
    "storage": [
      {
        "astId": 452,
        "contract": "contracts/external/oracles/PythAggregator.sol:PythAggregator",
        "label": "priceId",
        "offset": 0,
        "slot": "0",
        "type": "t_bytes32"
      },
      {
        "astId": 455,
        "contract": "contracts/external/oracles/PythAggregator.sol:PythAggregator",
        "label": "pyth",
        "offset": 0,
        "slot": "1",
        "type": "t_contract(IPyth)136"
      },
      {
        "astId": 457,
        "contract": "contracts/external/oracles/PythAggregator.sol:PythAggregator",
        "label": "description",
        "offset": 0,
        "slot": "2",
        "type": "t_string_storage"
      }
    ],
    "types": {
      "t_bytes32": {
        "encoding": "inplace",
        "label": "bytes32",
        "numberOfBytes": "32"
      },
      "t_contract(IPyth)136": {
        "encoding": "inplace",
        "label": "contract IPyth",
        "numberOfBytes": "20"
      },
      "t_string_storage": {
        "encoding": "bytes",
        "label": "string",
        "numberOfBytes": "32"
      }
    }
  }
}