{
  "address": "0x1374aC9F154F4E851Bf33e17d8605f8Ee310e5FA",
  "abi": [
    {
      "inputs": [],
      "name": "InvalidResetAmount",
      "type": "error"
    },
    {
      "inputs": [
        {
          "internalType": "string",
          "name": "name",
          "type": "string"
        }
      ],
      "name": "MissingAddress",
      "type": "error"
    },
    {
      "inputs": [
        {
          "internalType": "string",
          "name": "name",
          "type": "string"
        }
      ],
      "name": "OnlyAcceptedContract",
      "type": "error"
    },
    {
      "inputs": [
        {
          "internalType": "address",
          "name": "user",
          "type": "address"
        }
      ],
      "name": "PastMaturityBalanceExists",
      "type": "error"
    },
    {
      "inputs": [],
      "name": "ResolverAlreadyRegistered",
      "type": "error"
    },
    {
      "inputs": [],
      "name": "TotalSupplyNotZero",
      "type": "error"
    },
    {
      "inputs": [],
      "name": "UserIsZero",
      "type": "error"
    },
    {
      "anonymous": false,
      "inputs": [
        {
          "indexed": false,
          "internalType": "bytes32",
          "name": "name",
          "type": "bytes32"
        },
        {
          "indexed": false,
          "internalType": "address",
          "name": "destination",
          "type": "address"
        }
      ],
      "name": "CacheUpdated",
      "type": "event"
    },
    {
      "anonymous": false,
      "inputs": [
        {
          "indexed": false,
          "internalType": "uint8",
          "name": "version",
          "type": "uint8"
        }
      ],
      "name": "Initialized",
      "type": "event"
    },
    {
      "anonymous": false,
      "inputs": [
        {
          "indexed": true,
          "internalType": "address",
          "name": "from",
          "type": "address"
        },
        {
          "indexed": true,
          "internalType": "address",
          "name": "to",
          "type": "address"
        },
        {
          "indexed": false,
          "internalType": "uint8",
          "name": "orderBookId",
          "type": "uint8"
        },
        {
          "indexed": false,
          "internalType": "uint256",
          "name": "maturity",
          "type": "uint256"
        },
        {
          "indexed": false,
          "internalType": "int256",
          "name": "value",
          "type": "int256"
        }
      ],
      "name": "Transfer",
      "type": "event"
    },
    {
      "inputs": [],
      "name": "buildCache",
      "outputs": [],
      "stateMutability": "nonpayable",
      "type": "function"
    },
    {
      "inputs": [
        {
          "internalType": "uint8",
          "name": "_orderBookId",
          "type": "uint8"
        },
        {
          "internalType": "address",
          "name": "_user",
          "type": "address"
        },
        {
          "internalType": "uint256",
          "name": "_amount",
          "type": "uint256"
        },
        {
          "internalType": "uint256",
          "name": "_maturity",
          "type": "uint256"
        }
      ],
      "name": "decrease",
      "outputs": [],
      "stateMutability": "nonpayable",
      "type": "function"
    },
    {
      "inputs": [
        {
          "internalType": "uint8",
          "name": "_orderBookId",
          "type": "uint8"
        },
        {
          "internalType": "address",
          "name": "_user",
          "type": "address"
        },
        {
          "internalType": "int256",
          "name": "_amount",
          "type": "int256"
        }
      ],
      "name": "executeForcedReset",
      "outputs": [
        {
          "internalType": "int256",
          "name": "removedAmount",
          "type": "int256"
        },
        {
          "internalType": "int256",
          "name": "balance",
          "type": "int256"
        }
      ],
      "stateMutability": "nonpayable",
      "type": "function"
    },
    {
      "inputs": [
        {
          "internalType": "uint8",
          "name": "_orderBookId",
          "type": "uint8"
        },
        {
          "internalType": "address",
          "name": "_user",
          "type": "address"
        }
      ],
      "name": "executeForcedReset",
      "outputs": [],
      "stateMutability": "nonpayable",
      "type": "function"
    },
    {
      "inputs": [
        {
          "internalType": "uint8",
          "name": "_orderBookId",
          "type": "uint8"
        },
        {
          "internalType": "address",
          "name": "_user",
          "type": "address"
        }
      ],
      "name": "getBalance",
      "outputs": [
        {
          "internalType": "int256",
          "name": "balance",
          "type": "int256"
        },
        {
          "internalType": "uint256",
          "name": "maturity",
          "type": "uint256"
        }
      ],
      "stateMutability": "view",
      "type": "function"
    },
    {
      "inputs": [],
      "name": "getRevision",
      "outputs": [
        {
          "internalType": "uint256",
          "name": "",
          "type": "uint256"
        }
      ],
      "stateMutability": "pure",
      "type": "function"
    },
    {
      "inputs": [
        {
          "internalType": "uint256",
          "name": "_maturity",
          "type": "uint256"
        }
      ],
      "name": "getTotalBorrowingSupply",
      "outputs": [
        {
          "internalType": "uint256",
          "name": "",
          "type": "uint256"
        }
      ],
      "stateMutability": "view",
      "type": "function"
    },
    {
      "inputs": [
        {
          "internalType": "uint256",
          "name": "_maturity",
          "type": "uint256"
        }
      ],
      "name": "getTotalLendingSupply",
      "outputs": [
        {
          "internalType": "uint256",
          "name": "",
          "type": "uint256"
        }
      ],
      "stateMutability": "view",
      "type": "function"
    },
    {
      "inputs": [
        {
          "internalType": "uint8",
          "name": "_orderBookId",
          "type": "uint8"
        },
        {
          "internalType": "address",
          "name": "_user",
          "type": "address"
        },
        {
          "internalType": "uint256",
          "name": "_maturity",
          "type": "uint256"
        }
      ],
      "name": "hasBalanceAtPastMaturity",
      "outputs": [
        {
          "internalType": "bool",
          "name": "",
          "type": "bool"
        }
      ],
      "stateMutability": "view",
      "type": "function"
    },
    {
      "inputs": [
        {
          "internalType": "uint8",
          "name": "_orderBookId",
          "type": "uint8"
        },
        {
          "internalType": "address",
          "name": "_user",
          "type": "address"
        },
        {
          "internalType": "uint256",
          "name": "_amount",
          "type": "uint256"
        },
        {
          "internalType": "uint256",
          "name": "_maturity",
          "type": "uint256"
        }
      ],
      "name": "increase",
      "outputs": [],
      "stateMutability": "nonpayable",
      "type": "function"
    },
    {
      "inputs": [
        {
          "internalType": "address",
          "name": "_resolver",
          "type": "address"
        }
      ],
      "name": "initialize",
      "outputs": [],
      "stateMutability": "nonpayable",
      "type": "function"
    },
    {
      "inputs": [],
      "name": "isResolverCached",
      "outputs": [
        {
          "internalType": "bool",
          "name": "",
          "type": "bool"
        }
      ],
      "stateMutability": "view",
      "type": "function"
    },
    {
      "inputs": [],
      "name": "requiredContracts",
      "outputs": [
        {
          "internalType": "bytes32[]",
          "name": "contracts",
          "type": "bytes32[]"
        }
      ],
      "stateMutability": "pure",
      "type": "function"
    },
    {
      "inputs": [
        {
          "internalType": "uint8",
          "name": "_orderBookId",
          "type": "uint8"
        },
        {
          "internalType": "address",
          "name": "_user",
          "type": "address"
        },
        {
          "internalType": "uint256",
          "name": "_activeMaturity",
          "type": "uint256"
        }
      ],
      "name": "reset",
      "outputs": [
        {
          "internalType": "int256",
          "name": "removedAmount",
          "type": "int256"
        },
        {
          "internalType": "int256",
          "name": "currentAmount",
          "type": "int256"
        },
        {
          "internalType": "uint256",
          "name": "maturity",
          "type": "uint256"
        },
        {
          "internalType": "bool",
          "name": "isAllRemoved",
          "type": "bool"
        }
      ],
      "stateMutability": "nonpayable",
      "type": "function"
    },
    {
      "inputs": [],
      "name": "resolver",
      "outputs": [
        {
          "internalType": "contract IAddressResolver",
          "name": "",
          "type": "address"
        }
      ],
      "stateMutability": "view",
      "type": "function"
    },
    {
      "inputs": [
        {
          "internalType": "uint8",
          "name": "_orderBookId",
          "type": "uint8"
        },
        {
          "internalType": "address",
          "name": "_sender",
          "type": "address"
        },
        {
          "internalType": "address",
          "name": "_receiver",
          "type": "address"
        },
        {
          "internalType": "int256",
          "name": "_amount",
          "type": "int256"
        },
        {
          "internalType": "uint256",
          "name": "_maturity",
          "type": "uint256"
        }
      ],
      "name": "transferFrom",
      "outputs": [],
      "stateMutability": "nonpayable",
      "type": "function"
    }
  ],
  "transactionHash": "0x0632e54018fadd6b223c42260f73ab32996b02cd9d01702432393d192caeec44",
  "args": [],
  "numDeployments": 1,
  "solcInputHash": "a99e3d7b8108c62b238bedfffada6f16",
  "bytecode": "0x608060405234801561001057600080fd5b50611a6e806100206000396000f3fe608060405234801561001057600080fd5b50600436106101005760003560e01c806362354cde11610097578063c4d66de811610066578063c4d66de81461022e578063c7e035bc14610241578063d3bcc4a814610254578063dc6eead61461026757600080fd5b806362354cde146101e25780637947a29b146101f5578063870febf014610208578063be9fd21c1461021b57600080fd5b806329985e5a116100d357806329985e5a146101765780632af64bd3146101805780633b9f28f4146101985780633d03b9da146101cd57600080fd5b806304f3bcec146101055780631316529d1461012a57806317e2d96a1461013b578063246452541461014e575b600080fd5b61010d61027a565b6040516001600160a01b0390911681526020015b60405180910390f35b60015b604051908152602001610121565b61012d6101493660046116bf565b610293565b61016161015c366004611706565b6102b1565b60408051928352602083019190915201610121565b61017e61031f565b005b61018861049c565b6040519015158152602001610121565b6101ab6101a636600461173d565b6105ce565b6040805194855260208501939093529183015215156060820152608001610121565b6101d5610834565b604051610121919061177c565b61017e6101f03660046117c0565b610893565b61017e610203366004611804565b610a37565b61012d6102163660046116bf565b610bda565b61017e6102293660046117c0565b610bf8565b61017e61023c36600461185d565b610da1565b61016161024f36600461173d565b610f27565b61017e610262366004611706565b6110ef565b61018861027536600461173d565b6111fd565b6000610284611278565b546001600160a01b0316919050565b600061029d6112ac565b600092835260020160205250604090205490565b6000806102bc6112ac565b60ff85166000908152602091825260408082206001600160a01b038716835290925220546102e86112ac565b60ff86166000908152600191909101602090815260408083206001600160a01b038816845290915290205490925090509250929050565b6000610329610834565b905060005b815181101561049857600082828151811061034b5761034b61187a565b60200260200101519050600061035f611278565b54604080517f5265736f6c766572206d697373696e67207461726765743a200000000000000060208201526039808201869052825180830390910181526059820192839052636795dbcd60e01b9092526001600160a01b0390921691636795dbcd916103d091869190605d016118d6565b602060405180830381865afa1580156103ed573d6000803e3d6000fd5b505050506040513d601f19601f8201168201806040525081019061041191906118f7565b90508061041c611278565b6000848152600191909101602090815260409182902080546001600160a01b0319166001600160a01b039485161790558151858152928416908301527f88a93678a3692f6789d9546fc621bf7234b101ddb7d4fe479455112831b8aa68910160405180910390a1505080806104909061192a565b91505061032e565b5050565b6000806104a7610834565b905060005b81518110156105c55760008282815181106104c9576104c961187a565b602002602001015190506104db611278565b600082815260019190910160205260409020546001600160a01b03166104ff611278565b546040516321f8a72160e01b8152600481018490526001600160a01b03909116906321f8a72190602401602060405180830381865afa158015610546573d6000803e3d6000fd5b505050506040513d601f19601f8201168201806040525081019061056a91906118f7565b6001600160a01b03161415806105a357506000610585611278565b600083815260019190910160205260409020546001600160a01b0316145b156105b2576000935050505090565b50806105bd8161192a565b9150506104ac565b50600191505090565b6000806000806105dc6112da565b6001600160a01b0316336001600160a01b03161461061657604051637b3f42c160e01b815260040161060d90611943565b60405180910390fd5b61061e6112ac565b60ff88166000908152602091825260408082206001600160a01b038a168352909252205492508461064d6112ac565b60ff89166000908152600191909101602090815260408083206001600160a01b038b1684529091529020541480159061068557508215155b156107b3578293506106956112ac565b60ff88166000908152600191909101602090815260408083206001600160a01b038a1684529091528120549250905080841261070a576106d484611304565b6106dc6112ac565b600401600084815260200190815260200160002060008282546106ff9190611974565b9091555061074c9050565b61071b61071685611987565b611304565b6107236112ac565b600501600084815260200190815260200160002060008282546107469190611974565b90915550505b60006107566112ac565b60ff89166000818152602092835260408082206001600160a01b038c16808452908552818320959095558051928352928201869052918101879052909450849190600080516020611a198339815191529060600160405180910390a35b6107bb6112ac565b600083815260029190910160205260409020546107d66112ac565b6000848152600491909101602052604090205414801561082957506107f96112ac565b600083815260039190910160205260409020546108146112ac565b60008481526005919091016020526040902054145b905093509350935093565b60408051600180825281830190925260609160208083019080368337019050509050762632b73234b733a6b0b935b2ba21b7b73a3937b63632b960491b816000815181106108845761088461187a565b60200260200101818152505090565b61089b6112da565b6001600160a01b0316336001600160a01b0316146108cc57604051637b3f42c160e01b815260040161060d90611943565b6001600160a01b0383166108f357604051630b328ad960e31b815260040160405180910390fd5b6108fe8484836111fd565b156109265760405162c34ff560e61b81526001600160a01b038416600482015260240161060d565b60006109306112ac565b60ff86166000908152602091825260408082206001600160a01b0388168352909252205490508161095f6112ac565b60ff87166000908152600191909101602090815260408083206001600160a01b03891684529091529020556109938361135a565b61099b6112ac565b60ff87166000908152602091825260408082206001600160a01b038916835290925290812080549091906109d09084906119a3565b90915550506001600160a01b0384166000600080516020611a1983398151915287856109fb8861135a565b6040805160ff909416845260208401929092529082015260600160405180910390a3610a3082610a2a8561135a565b836113c4565b5050505050565b610a3f6112da565b6001600160a01b0316336001600160a01b031614610a7057604051637b3f42c160e01b815260040161060d90611943565b610a7b8585836111fd565b15610aa35760405162c34ff560e61b81526001600160a01b038516600482015260240161060d565b610aae8584836111fd565b15610ad65760405162c34ff560e61b81526001600160a01b038416600482015260240161060d565b80610adf6112ac565b60ff87166000908152600191909101602090815260408083206001600160a01b038816845290915290205581610b136112ac565b60ff87166000908152602091825260408082206001600160a01b03891683529092529081208054909190610b489084906119cb565b90915550829050610b576112ac565b60ff87166000908152602091825260408082206001600160a01b03881683529092529081208054909190610b8c9084906119a3565b90915550506040805160ff87168152602081018390529081018390526001600160a01b038085169190861690600080516020611a198339815191529060600160405180910390a35050505050565b6000610be46112ac565b600092835260030160205250604090205490565b610c006112da565b6001600160a01b0316336001600160a01b031614610c3157604051637b3f42c160e01b815260040161060d90611943565b6001600160a01b038316610c5857604051630b328ad960e31b815260040160405180910390fd5b610c638484836111fd565b15610c8b5760405162c34ff560e61b81526001600160a01b038416600482015260240161060d565b6000610c956112ac565b60ff86166000908152602091825260408082206001600160a01b03881683529092522054905081610cc46112ac565b60ff87166000908152600191909101602090815260408083206001600160a01b0389168452909152902055610cf88361135a565b610d006112ac565b60ff87166000908152602091825260408082206001600160a01b03891683529092529081208054909190610d359084906119cb565b90915550506001600160a01b0384166000600080516020611a198339815191528785610d608861135a565b610d6990611987565b6040805160ff909416845260208401929092529082015260600160405180910390a3610a3082610d988561135a565b610a2a90611987565b600054610100900460ff1615808015610dc15750600054600160ff909116105b80610ddb5750303b158015610ddb575060005460ff166001145b610e3e5760405162461bcd60e51b815260206004820152602e60248201527f496e697469616c697a61626c653a20636f6e747261637420697320616c72656160448201526d191e481a5b9a5d1a585b1a5e995960921b606482015260840161060d565b6000805460ff191660011790558015610e61576000805461ff0019166101001790555b6000610e6b6115da565b6001600160a01b031603610ecd5760405162461bcd60e51b815260206004820152602360248201527f4d7573742062652063616c6c65642066726f6d20626561636f6e20636f6e74726044820152621858dd60ea1b606482015260840161060d565b610ed682611602565b610ede61031f565b8015610498576000805461ff0019169055604051600181527f7f26b83ff96e1f2b6a682f133852f6798a09c465da95921460cefb38474024989060200160405180910390a15050565b600080610f326112da565b6001600160a01b0316336001600160a01b031614610f6357604051637b3f42c160e01b815260040161060d90611943565b610f6b6112ac565b60ff86166000908152602091825260408082206001600160a01b038816835290925290812054925083138015610fa15750600082125b80610fb75750600083128015610fb75750600082135b15610fd55760405163b37fdc9d60e01b815260040160405180910390fd5b600083138015610fe457508183125b80610ff95750600083128015610ff957508183135b15611002578291505b81156110b557816110116112ac565b60ff87166000908152602091825260408082206001600160a01b038916835290925290812080549091906110469084906119cb565b90915550600090506110566112ac565b60ff87166000818152600192909201602090815260408084206001600160a01b038a1680865290835281852054825194855292840183905290830187905290935090600080516020611a198339815191529060600160405180910390a3505b6110bd6112ac565b60ff9095166000908152602095865260408082206001600160a01b039096168252949095525091909220549092909150565b6110f76112da565b6001600160a01b0316336001600160a01b03161461112857604051637b3f42c160e01b815260040161060d90611943565b60006111326112ac565b60ff84166000908152602091825260408082206001600160a01b03861683529092522054905080156111f85760006111686112ac565b60ff85166000908152602091825260408082206001600160a01b0387168352909252908120919091556111996112ac565b60ff85166000818152600192909201602090815260408084206001600160a01b03881680865290835281852054825194855292840183905290830186905290935090600080516020611a198339815191529060600160405180910390a3505b505050565b6000816112086112ac565b60ff86166000908152600191909101602090815260408083206001600160a01b03881684529091529020540361124057506000611271565b6112486112ac565b60ff85166000908152602091825260408082206001600160a01b03871683529092522054151590505b9392505050565b6000806112a660017f4abde63c3e81aefa5764b017968bc473e83e093d7e1a10247d19e0a3e41240186119f2565b92915050565b6000806112a660017fd1b4fbfb8f78bdad30892554423aedac9635765ae463e7c2b7953fa50219190e6119f2565b60006112ff762632b73234b733a6b0b935b2ba21b7b73a3937b63632b960491b61165e565b905090565b6000808212156113565760405162461bcd60e51b815260206004820181905260248201527f53616665436173743a2076616c7565206d75737420626520706f736974697665604482015260640161060d565b5090565b60006001600160ff1b038211156113565760405162461bcd60e51b815260206004820152602860248201527f53616665436173743a2076616c756520646f65736e27742066697420696e2061604482015267371034b73a191a9b60c11b606482015260840161060d565b600082126114e35760006113d783611304565b90506000821261141857806113ea6112ac565b6002016000868152602001908152602001600020600082825461140d9190611974565b909155506114dd9050565b600061142483856119a3565b9050600081126114aa5761143781611304565b61143f6112ac565b600201600087815260200190815260200160002060008282546114629190611974565b90915550611474905061071684611987565b61147c6112ac565b6003016000878152602001908152602001600020600082825461149f91906119f2565b90915550610a309050565b816114b36112ac565b600301600087815260200190815260200160002060008282546114d691906119f2565b9091555050505b50505050565b60006114f161071684611987565b90506000821361152757806115046112ac565b6003016000868152602001908152602001600020600082825461140d9190611974565b600061153383856119a3565b9050600081136115ae5761154961071682611987565b6115516112ac565b600301600087815260200190815260200160002060008282546115749190611974565b90915550611583905083611304565b61158b6112ac565b6002016000878152602001908152602001600020600082825461149f91906119f2565b816115b76112ac565b600201600087815260200190815260200160002060008282546114d691906119f2565b60007fa3f0ad74e5423aebfd80d3ef4346578335a9a72aeaee59ff6cb3582b35133d50610284565b600061160c611278565b546001600160a01b031614611634576040516304b79d6360e51b815260040160405180910390fd5b8061163d611278565b80546001600160a01b0319166001600160a01b039290921691909117905550565b600080611669611278565b600084815260019190910160205260409020546001600160a01b03169050806112a65760408051602081018590520160408051601f19818403018152908290526346e2ec9360e01b825261060d91600401611a05565b6000602082840312156116d157600080fd5b5035919050565b803560ff811681146116e957600080fd5b919050565b6001600160a01b038116811461170357600080fd5b50565b6000806040838503121561171957600080fd5b611722836116d8565b91506020830135611732816116ee565b809150509250929050565b60008060006060848603121561175257600080fd5b61175b846116d8565b9250602084013561176b816116ee565b929592945050506040919091013590565b6020808252825182820181905260009190848201906040850190845b818110156117b457835183529284019291840191600101611798565b50909695505050505050565b600080600080608085870312156117d657600080fd5b6117df856116d8565b935060208501356117ef816116ee565b93969395505050506040820135916060013590565b600080600080600060a0868803121561181c57600080fd5b611825866116d8565b94506020860135611835816116ee565b93506040860135611845816116ee565b94979396509394606081013594506080013592915050565b60006020828403121561186f57600080fd5b8135611271816116ee565b634e487b7160e01b600052603260045260246000fd5b6000815180845260005b818110156118b65760208185018101518683018201520161189a565b506000602082860101526020601f19601f83011685010191505092915050565b8281526040602082015260006118ef6040830184611890565b949350505050565b60006020828403121561190957600080fd5b8151611271816116ee565b634e487b7160e01b600052601160045260246000fd5b60006001820161193c5761193c611914565b5060010190565b6020808252601790820152762632b73234b733a6b0b935b2ba21b7b73a3937b63632b960491b604082015260600190565b808201808211156112a6576112a6611914565b6000600160ff1b820161199c5761199c611914565b5060000390565b80820182811260008312801582168215821617156119c3576119c3611914565b505092915050565b81810360008312801583831316838312821617156119eb576119eb611914565b5092915050565b818103818111156112a6576112a6611914565b602081526000611271602083018461189056fe82c4751a398091b75d013ac93a3fa87bef1009a6e90c5351ed9271cc1dcf84cba26469706673582212209f9c59f168574be96304dc32324fb26f01dc0f087857db64b779c585f214c16264736f6c63430008130033",
  "devdoc": {
    "events": {
      "Initialized(uint8)": {
        "details": "Triggered when the contract has been initialized or reinitialized."
      }
    },
    "kind": "dev",
    "methods": {
      "decrease(uint8,address,uint256,uint256)": {
        "details": "Since the total supply can be determined by totaling only the amounts on one side of the order when the order is fulfilled, the total supply is incremented only when the executor of the original order is the taker.",
        "params": {
          "_amount": "The amount to add",
          "_maturity": "The maturity of the market",
          "_user": "User's address"
        }
      },
      "executeForcedReset(uint8,address)": {
        "params": {
          "_user": "User's address"
        }
      },
      "executeForcedReset(uint8,address,int256)": {
        "params": {
          "_amount": "The amount to reset",
          "_user": "User's address"
        }
      },
      "getBalance(uint8,address)": {
        "params": {
          "_user": "User's address"
        },
        "returns": {
          "balance": "The user balance",
          "maturity": "The maturity of the market that the future value was added"
        }
      },
      "getTotalBorrowingSupply(uint256)": {
        "details": "This function returns the total supply of only orders that have been added through the `increase` of `decrease` function.",
        "params": {
          "_maturity": "The maturity of the market"
        }
      },
      "getTotalLendingSupply(uint256)": {
        "details": "This function returns the total supply of only orders that have been added through the `increase` of `decrease` function.",
        "params": {
          "_maturity": "The maturity of the market"
        }
      },
      "hasBalanceAtPastMaturity(uint8,address,uint256)": {
        "params": {
          "_maturity": "The maturity of the market",
          "_user": "User's address"
        },
        "returns": {
          "_0": "The boolean if the lending market is initialized or not"
        }
      },
      "increase(uint8,address,uint256,uint256)": {
        "details": "Since the total supply can be determined by totaling only the amounts on one side of the order when the order is fulfilled, the total supply is incremented only when the executor of the original order is the taker.",
        "params": {
          "_amount": "The amount to add",
          "_maturity": "The maturity of the market",
          "_user": "User's address"
        }
      },
      "initialize(address)": {
        "details": "Function is invoked by the proxy contract when the contract is added to the ProxyController.",
        "params": {
          "_resolver": "The address of the Address Resolver contract"
        }
      },
      "requiredContracts()": {
        "details": "The contract name list is in `./libraries/Contracts.sol`."
      },
      "reset(uint8,address,uint256)": {
        "params": {
          "_user": "User's address"
        },
        "returns": {
          "currentAmount": "Current future value amount after update",
          "isAllRemoved": "The boolean if the all future value amount in the selected maturity is removed",
          "maturity": "Maturity of future value",
          "removedAmount": "Removed future value amount"
        }
      },
      "transferFrom(uint8,address,address,int256,uint256)": {
        "params": {
          "_amount": "Amount of funds to sent",
          "_maturity": "The maturity of the market",
          "_receiver": "Receiver's address",
          "_sender": "Sender's address"
        }
      }
    },
    "version": 1
  },
  "userdoc": {
    "kind": "user",
    "methods": {
      "decrease(uint8,address,uint256,uint256)": {
        "notice": "Decreases amount for borrowing deals."
      },
      "executeForcedReset(uint8,address)": {
        "notice": "Forces a reset of the user's future value."
      },
      "executeForcedReset(uint8,address,int256)": {
        "notice": "Forces a reset of the user's future value."
      },
      "getBalance(uint8,address)": {
        "notice": "Gets the user balance."
      },
      "getTotalBorrowingSupply(uint256)": {
        "notice": "Gets the total supply of borrowing orders."
      },
      "getTotalLendingSupply(uint256)": {
        "notice": "Gets the total supply of lending orders."
      },
      "hasBalanceAtPastMaturity(uint8,address,uint256)": {
        "notice": "Gets if the account has past maturity balance at the selected maturity."
      },
      "increase(uint8,address,uint256,uint256)": {
        "notice": "Increases amount for lending deals."
      },
      "initialize(address)": {
        "notice": "Initializes the contract."
      },
      "requiredContracts()": {
        "notice": "Returns the contract names used in this contract."
      },
      "reset(uint8,address,uint256)": {
        "notice": "Reset all amount if there is an amount in the past maturity."
      },
      "transferFrom(uint8,address,address,int256,uint256)": {
        "notice": "Transfers the future value from sender to receiver."
      }
    },
    "notice": "Implements the management of the future value as an amount for Lending positions in each currency.",
    "version": 1
  },
  "storageLayout": {
    "storage": [
      {
        "astId": 995,
        "contract": "contracts/protocol/FutureValueVault.sol:FutureValueVault",
        "label": "_initialized",
        "offset": 0,
        "slot": "0",
        "type": "t_uint8"
      },
      {
        "astId": 998,
        "contract": "contracts/protocol/FutureValueVault.sol:FutureValueVault",
        "label": "_initializing",
        "offset": 1,
        "slot": "0",
        "type": "t_bool"
      }
    ],
    "types": {
      "t_bool": {
        "encoding": "inplace",
        "label": "bool",
        "numberOfBytes": "1"
      },
      "t_uint8": {
        "encoding": "inplace",
        "label": "uint8",
        "numberOfBytes": "1"
      }
    }
  }
}