{
  "address": "0x477374AA18Fb149ccE808cFf2BC82688b5340EB2",
  "abi": [
    {
      "inputs": [
        {
          "internalType": "uint256",
          "name": "initialBalance",
          "type": "uint256"
        }
      ],
      "stateMutability": "payable",
      "type": "constructor"
    },
    {
      "inputs": [],
      "name": "InvalidShortString",
      "type": "error"
    },
    {
      "inputs": [
        {
          "internalType": "string",
          "name": "str",
          "type": "string"
        }
      ],
      "name": "StringTooLong",
      "type": "error"
    },
    {
      "anonymous": false,
      "inputs": [
        {
          "indexed": false,
          "internalType": "bytes32",
          "name": "name",
          "type": "bytes32"
        },
        {
          "indexed": false,
          "internalType": "address",
          "name": "destination",
          "type": "address"
        }
      ],
      "name": "AddressImported",
      "type": "event"
    },
    {
      "anonymous": false,
      "inputs": [
        {
          "indexed": true,
          "internalType": "address",
          "name": "owner",
          "type": "address"
        },
        {
          "indexed": true,
          "internalType": "address",
          "name": "spender",
          "type": "address"
        },
        {
          "indexed": false,
          "internalType": "uint256",
          "name": "value",
          "type": "uint256"
        }
      ],
      "name": "Approval",
      "type": "event"
    },
    {
      "anonymous": false,
      "inputs": [],
      "name": "EIP712DomainChanged",
      "type": "event"
    },
    {
      "anonymous": false,
      "inputs": [
        {
          "indexed": true,
          "internalType": "bytes32",
          "name": "role",
          "type": "bytes32"
        },
        {
          "indexed": true,
          "internalType": "bytes32",
          "name": "previousAdminRole",
          "type": "bytes32"
        },
        {
          "indexed": true,
          "internalType": "bytes32",
          "name": "newAdminRole",
          "type": "bytes32"
        }
      ],
      "name": "RoleAdminChanged",
      "type": "event"
    },
    {
      "anonymous": false,
      "inputs": [
        {
          "indexed": true,
          "internalType": "bytes32",
          "name": "role",
          "type": "bytes32"
        },
        {
          "indexed": true,
          "internalType": "address",
          "name": "account",
          "type": "address"
        },
        {
          "indexed": true,
          "internalType": "address",
          "name": "sender",
          "type": "address"
        }
      ],
      "name": "RoleGranted",
      "type": "event"
    },
    {
      "anonymous": false,
      "inputs": [
        {
          "indexed": true,
          "internalType": "bytes32",
          "name": "role",
          "type": "bytes32"
        },
        {
          "indexed": true,
          "internalType": "address",
          "name": "account",
          "type": "address"
        },
        {
          "indexed": true,
          "internalType": "address",
          "name": "sender",
          "type": "address"
        }
      ],
      "name": "RoleRevoked",
      "type": "event"
    },
    {
      "anonymous": false,
      "inputs": [
        {
          "indexed": true,
          "internalType": "address",
          "name": "from",
          "type": "address"
        },
        {
          "indexed": true,
          "internalType": "address",
          "name": "to",
          "type": "address"
        },
        {
          "indexed": false,
          "internalType": "uint256",
          "name": "value",
          "type": "uint256"
        }
      ],
      "name": "Transfer",
      "type": "event"
    },
    {
      "inputs": [],
      "name": "DEFAULT_ADMIN_ROLE",
      "outputs": [
        {
          "internalType": "bytes32",
          "name": "",
          "type": "bytes32"
        }
      ],
      "stateMutability": "view",
      "type": "function"
    },
    {
      "inputs": [],
      "name": "DOMAIN_SEPARATOR",
      "outputs": [
        {
          "internalType": "bytes32",
          "name": "",
          "type": "bytes32"
        }
      ],
      "stateMutability": "view",
      "type": "function"
    },
    {
      "inputs": [],
      "name": "MINTER_ROLE",
      "outputs": [
        {
          "internalType": "bytes32",
          "name": "",
          "type": "bytes32"
        }
      ],
      "stateMutability": "view",
      "type": "function"
    },
    {
      "inputs": [
        {
          "internalType": "address",
          "name": "owner",
          "type": "address"
        },
        {
          "internalType": "address",
          "name": "spender",
          "type": "address"
        }
      ],
      "name": "allowance",
      "outputs": [
        {
          "internalType": "uint256",
          "name": "",
          "type": "uint256"
        }
      ],
      "stateMutability": "view",
      "type": "function"
    },
    {
      "inputs": [
        {
          "internalType": "address",
          "name": "spender",
          "type": "address"
        },
        {
          "internalType": "uint256",
          "name": "amount",
          "type": "uint256"
        }
      ],
      "name": "approve",
      "outputs": [
        {
          "internalType": "bool",
          "name": "",
          "type": "bool"
        }
      ],
      "stateMutability": "nonpayable",
      "type": "function"
    },
    {
      "inputs": [
        {
          "internalType": "address",
          "name": "account",
          "type": "address"
        }
      ],
      "name": "balanceOf",
      "outputs": [
        {
          "internalType": "uint256",
          "name": "",
          "type": "uint256"
        }
      ],
      "stateMutability": "view",
      "type": "function"
    },
    {
      "inputs": [
        {
          "internalType": "address",
          "name": "account",
          "type": "address"
        },
        {
          "internalType": "uint256",
          "name": "amount",
          "type": "uint256"
        }
      ],
      "name": "burn",
      "outputs": [],
      "stateMutability": "nonpayable",
      "type": "function"
    },
    {
      "inputs": [],
      "name": "decimals",
      "outputs": [
        {
          "internalType": "uint8",
          "name": "",
          "type": "uint8"
        }
      ],
      "stateMutability": "view",
      "type": "function"
    },
    {
      "inputs": [
        {
          "internalType": "address",
          "name": "spender",
          "type": "address"
        },
        {
          "internalType": "uint256",
          "name": "subtractedValue",
          "type": "uint256"
        }
      ],
      "name": "decreaseAllowance",
      "outputs": [
        {
          "internalType": "bool",
          "name": "",
          "type": "bool"
        }
      ],
      "stateMutability": "nonpayable",
      "type": "function"
    },
    {
      "inputs": [],
      "name": "eip712Domain",
      "outputs": [
        {
          "internalType": "bytes1",
          "name": "fields",
          "type": "bytes1"
        },
        {
          "internalType": "string",
          "name": "name",
          "type": "string"
        },
        {
          "internalType": "string",
          "name": "version",
          "type": "string"
        },
        {
          "internalType": "uint256",
          "name": "chainId",
          "type": "uint256"
        },
        {
          "internalType": "address",
          "name": "verifyingContract",
          "type": "address"
        },
        {
          "internalType": "bytes32",
          "name": "salt",
          "type": "bytes32"
        },
        {
          "internalType": "uint256[]",
          "name": "extensions",
          "type": "uint256[]"
        }
      ],
      "stateMutability": "view",
      "type": "function"
    },
    {
      "inputs": [
        {
          "internalType": "bytes32",
          "name": "role",
          "type": "bytes32"
        }
      ],
      "name": "getRoleAdmin",
      "outputs": [
        {
          "internalType": "bytes32",
          "name": "",
          "type": "bytes32"
        }
      ],
      "stateMutability": "view",
      "type": "function"
    },
    {
      "inputs": [
        {
          "internalType": "bytes32",
          "name": "role",
          "type": "bytes32"
        },
        {
          "internalType": "address",
          "name": "account",
          "type": "address"
        }
      ],
      "name": "grantRole",
      "outputs": [],
      "stateMutability": "nonpayable",
      "type": "function"
    },
    {
      "inputs": [
        {
          "internalType": "bytes32",
          "name": "role",
          "type": "bytes32"
        },
        {
          "internalType": "address",
          "name": "account",
          "type": "address"
        }
      ],
      "name": "hasRole",
      "outputs": [
        {
          "internalType": "bool",
          "name": "",
          "type": "bool"
        }
      ],
      "stateMutability": "view",
      "type": "function"
    },
    {
      "inputs": [
        {
          "internalType": "address",
          "name": "spender",
          "type": "address"
        },
        {
          "internalType": "uint256",
          "name": "addedValue",
          "type": "uint256"
        }
      ],
      "name": "increaseAllowance",
      "outputs": [
        {
          "internalType": "bool",
          "name": "",
          "type": "bool"
        }
      ],
      "stateMutability": "nonpayable",
      "type": "function"
    },
    {
      "inputs": [
        {
          "internalType": "address",
          "name": "account",
          "type": "address"
        },
        {
          "internalType": "uint256",
          "name": "amount",
          "type": "uint256"
        }
      ],
      "name": "mint",
      "outputs": [],
      "stateMutability": "nonpayable",
      "type": "function"
    },
    {
      "inputs": [],
      "name": "name",
      "outputs": [
        {
          "internalType": "string",
          "name": "",
          "type": "string"
        }
      ],
      "stateMutability": "view",
      "type": "function"
    },
    {
      "inputs": [
        {
          "internalType": "address",
          "name": "owner",
          "type": "address"
        }
      ],
      "name": "nonces",
      "outputs": [
        {
          "internalType": "uint256",
          "name": "",
          "type": "uint256"
        }
      ],
      "stateMutability": "view",
      "type": "function"
    },
    {
      "inputs": [
        {
          "internalType": "address",
          "name": "owner",
          "type": "address"
        },
        {
          "internalType": "address",
          "name": "spender",
          "type": "address"
        },
        {
          "internalType": "uint256",
          "name": "value",
          "type": "uint256"
        },
        {
          "internalType": "uint256",
          "name": "deadline",
          "type": "uint256"
        },
        {
          "internalType": "uint8",
          "name": "v",
          "type": "uint8"
        },
        {
          "internalType": "bytes32",
          "name": "r",
          "type": "bytes32"
        },
        {
          "internalType": "bytes32",
          "name": "s",
          "type": "bytes32"
        }
      ],
      "name": "permit",
      "outputs": [],
      "stateMutability": "nonpayable",
      "type": "function"
    },
    {
      "inputs": [
        {
          "internalType": "address",
          "name": "account",
          "type": "address"
        }
      ],
      "name": "removeMinterRole",
      "outputs": [],
      "stateMutability": "nonpayable",
      "type": "function"
    },
    {
      "inputs": [
        {
          "internalType": "bytes32",
          "name": "role",
          "type": "bytes32"
        },
        {
          "internalType": "address",
          "name": "account",
          "type": "address"
        }
      ],
      "name": "renounceRole",
      "outputs": [],
      "stateMutability": "nonpayable",
      "type": "function"
    },
    {
      "inputs": [
        {
          "internalType": "bytes32",
          "name": "role",
          "type": "bytes32"
        },
        {
          "internalType": "address",
          "name": "account",
          "type": "address"
        }
      ],
      "name": "revokeRole",
      "outputs": [],
      "stateMutability": "nonpayable",
      "type": "function"
    },
    {
      "inputs": [
        {
          "internalType": "address",
          "name": "account",
          "type": "address"
        }
      ],
      "name": "setMinterRole",
      "outputs": [],
      "stateMutability": "nonpayable",
      "type": "function"
    },
    {
      "inputs": [
        {
          "internalType": "bytes4",
          "name": "interfaceId",
          "type": "bytes4"
        }
      ],
      "name": "supportsInterface",
      "outputs": [
        {
          "internalType": "bool",
          "name": "",
          "type": "bool"
        }
      ],
      "stateMutability": "view",
      "type": "function"
    },
    {
      "inputs": [],
      "name": "symbol",
      "outputs": [
        {
          "internalType": "string",
          "name": "",
          "type": "string"
        }
      ],
      "stateMutability": "view",
      "type": "function"
    },
    {
      "inputs": [],
      "name": "totalSupply",
      "outputs": [
        {
          "internalType": "uint256",
          "name": "",
          "type": "uint256"
        }
      ],
      "stateMutability": "view",
      "type": "function"
    },
    {
      "inputs": [
        {
          "internalType": "address",
          "name": "to",
          "type": "address"
        },
        {
          "internalType": "uint256",
          "name": "amount",
          "type": "uint256"
        }
      ],
      "name": "transfer",
      "outputs": [
        {
          "internalType": "bool",
          "name": "",
          "type": "bool"
        }
      ],
      "stateMutability": "nonpayable",
      "type": "function"
    },
    {
      "inputs": [
        {
          "internalType": "address",
          "name": "from",
          "type": "address"
        },
        {
          "internalType": "address",
          "name": "to",
          "type": "address"
        },
        {
          "internalType": "uint256",
          "name": "amount",
          "type": "uint256"
        }
      ],
      "name": "transferFrom",
      "outputs": [
        {
          "internalType": "bool",
          "name": "",
          "type": "bool"
        }
      ],
      "stateMutability": "nonpayable",
      "type": "function"
    }
  ],
  "transactionHash": "0x04885cdf08db0c81322e83795e44e7fe6122cec3402a2dfe01e984211af6b9b9",
  "args": [
    "4000000000000"
  ],
  "numDeployments": 1,
  "solcInputHash": "f3aa1cfa8e4de6a118da5c4500d93b3f",
  "bytecode": "0x6101a0604052600b6101609081526a577261707065642042544360a81b61018052600a906200002f908262000589565b506040805180820190915260048152635742544360e01b6020820152600b906200005a908262000589565b5060405162002309380380620023098339810160408190526200007d9162000655565b600a80546200008c90620004fb565b80601f0160208091040260200160405190810160405280929190818152602001828054620000ba90620004fb565b80156200010b5780601f10620000df576101008083540402835291602001916200010b565b820191906000526020600020905b815481529060010190602001808311620000ed57829003601f168201915b5050505050600b80546200011f90620004fb565b80601f01602080910402602001604051908101604052809291908181526020018280546200014d90620004fb565b80156200019e5780601f1062000172576101008083540402835291602001916200019e565b820191906000526020600020905b8154815290600101906020018083116200018057829003601f168201915b5050505050828280604051806040016040528060018152602001603160f81b81525085858160039081620001d3919062000589565b506004620001e2828262000589565b50620001f491508390506005620002ec565b6101205262000205816006620002ec565b61014052815160208084019190912060e052815190820120610100524660a0526200029360e05161010051604080517f8b73c3c69bb8fe3d512ecc4cf759cc79239f7b179b0ffacaa9a75d522b39400f60208201529081019290925260608201524660808201523060a082015260009060c00160405160208183030381529060405280519060200120905090565b60805250503060c05250620002a9338262000325565b620002b6600033620003ed565b620002e27f9f2df0fed2c77648de5860a4cc508cd0818c85b8b8a1ab4ceeef8d981c8956a633620003ed565b5050505062000706565b60006020835110156200030c576200030483620003f9565b90506200031f565b8162000319848262000589565b5060ff90505b92915050565b6001600160a01b038216620003815760405162461bcd60e51b815260206004820152601f60248201527f45524332303a206d696e7420746f20746865207a65726f20616464726573730060448201526064015b60405180910390fd5b80600260008282546200039591906200066f565b90915550506001600160a01b038216600081815260208181526040808320805486019055518481527fddf252ad1be2c89b69c2b068fc378daa952ba7f163c4a11628f55a4df523b3ef910160405180910390a35b5050565b620003e9828262000441565b600080829050601f8151111562000427578260405163305a27a960e01b815260040162000378919062000691565b80516200043482620006e1565b179392505050565b505050565b60008281526009602090815260408083206001600160a01b038516845290915290205460ff16620003e95760008281526009602090815260408083206001600160a01b03851684529091529020805460ff19166001179055620004a13390565b6001600160a01b0316816001600160a01b0316837f2f8788117e7eff1d82e926ec794901d17c78024a50270940304540a733656f0d60405160405180910390a45050565b634e487b7160e01b600052604160045260246000fd5b600181811c908216806200051057607f821691505b6020821081036200053157634e487b7160e01b600052602260045260246000fd5b50919050565b601f8211156200043c57600081815260208120601f850160051c81016020861015620005605750805b601f850160051c820191505b8181101562000581578281556001016200056c565b505050505050565b81516001600160401b03811115620005a557620005a5620004e5565b620005bd81620005b68454620004fb565b8462000537565b602080601f831160018114620005f55760008415620005dc5750858301515b600019600386901b1c1916600185901b17855562000581565b600085815260208120601f198616915b82811015620006265788860151825594840194600190910190840162000605565b5085821015620006455787850151600019600388901b60f8161c191681555b5050505050600190811b01905550565b6000602082840312156200066857600080fd5b5051919050565b808201808211156200031f57634e487b7160e01b600052601160045260246000fd5b600060208083528351808285015260005b81811015620006c057858101830151858201604001528201620006a2565b506000604082860101526040601f19601f8301168501019250505092915050565b80516020808301519190811015620005315760001960209190910360031b1b16919050565b60805160a05160c05160e051610100516101205161014051611ba86200076160003960006106db015260006106b001526000610f1a01526000610ef201526000610e4d01526000610e7701526000610ea10152611ba86000f3fe608060405234801561001057600080fd5b50600436106101a95760003560e01c806370a08231116100f9578063a217fddf11610097578063d505accf11610071578063d505accf14610384578063d539139314610397578063d547741f146103ac578063dd62ed3e146103bf57600080fd5b8063a217fddf14610356578063a457c2d71461035e578063a9059cbb1461037157600080fd5b806391d14854116100d357806391d1485414610315578063945d12291461032857806395d89b411461033b5780639dc29fac1461034357600080fd5b806370a08231146102be5780637ecebe00146102e757806384b0196e146102fa57600080fd5b80632f2ff15d1161016657806336568abe1161014057806336568abe14610272578063395093511461028557806340c10f191461029857806354f1e126146102ab57600080fd5b80632f2ff15d14610246578063313ce5671461025b5780633644e5151461026a57600080fd5b806301ffc9a7146101ae57806306fdde03146101d6578063095ea7b3146101eb57806318160ddd146101fe57806323b872dd14610210578063248a9ca314610223575b600080fd5b6101c16101bc36600461176e565b6103d2565b60405190151581526020015b60405180910390f35b6101de610409565b6040516101cd91906117e8565b6101c16101f9366004611817565b61049b565b6002545b6040519081526020016101cd565b6101c161021e366004611841565b6104b3565b61020261023136600461187d565b60009081526009602052604090206001015490565b610259610254366004611896565b6104d7565b005b604051600881526020016101cd565b610202610501565b610259610280366004611896565b610510565b6101c1610293366004611817565b610593565b6102596102a6366004611817565b6105b5565b6102596102b93660046118c2565b61061b565b6102026102cc3660046118c2565b6001600160a01b031660009081526020819052604090205490565b6102026102f53660046118c2565b610684565b6103026106a2565b6040516101cd97969594939291906118dd565b6101c1610323366004611896565b61072b565b6102596103363660046118c2565b610756565b6101de6107bc565b610259610351366004611817565b6107cb565b610202600081565b6101c161036c366004611817565b610831565b6101c161037f366004611817565b6108ac565b610259610392366004611973565b6108ba565b610202600080516020611b5383398151915281565b6102596103ba366004611896565b610a1e565b6102026103cd3660046119e6565b610a43565b60006001600160e01b03198216637965db0b60e01b148061040357506301ffc9a760e01b6001600160e01b03198316145b92915050565b60606003805461041890611a10565b80601f016020809104026020016040519081016040528092919081815260200182805461044490611a10565b80156104915780601f1061046657610100808354040283529160200191610491565b820191906000526020600020905b81548152906001019060200180831161047457829003601f168201915b5050505050905090565b6000336104a9818585610a6e565b5060019392505050565b6000336104c1858285610b92565b6104cc858585610c0c565b506001949350505050565b6000828152600960205260409020600101546104f281610db0565b6104fc8383610dba565b505050565b600061050b610e40565b905090565b6001600160a01b03811633146105855760405162461bcd60e51b815260206004820152602f60248201527f416363657373436f6e74726f6c3a2063616e206f6e6c792072656e6f756e636560448201526e103937b632b9903337b91039b2b63360891b60648201526084015b60405180910390fd5b61058f8282610f6b565b5050565b6000336104a98185856105a68383610a43565b6105b09190611a5a565b610a6e565b6105cd600080516020611b538339815191523361072b565b6106115760405162461bcd60e51b81526020600482015260156024820152744d7573742068617665206d696e74657220726f6c6560581b604482015260640161057c565b61058f8282610fd2565b61062660003361072b565b6106695760405162461bcd60e51b81526020600482015260146024820152734d75737420686176652061646d696e20726f6c6560601b604482015260640161057c565b610681600080516020611b5383398151915282610f6b565b50565b6001600160a01b038116600090815260076020526040812054610403565b6000606080828080836106d67f00000000000000000000000000000000000000000000000000000000000000006005611091565b6107017f00000000000000000000000000000000000000000000000000000000000000006006611091565b60408051600080825260208201909252600f60f81b9b939a50919850469750309650945092509050565b60009182526009602090815260408084206001600160a01b0393909316845291905290205460ff1690565b61076160003361072b565b6107a45760405162461bcd60e51b81526020600482015260146024820152734d75737420686176652061646d696e20726f6c6560601b604482015260640161057c565b610681600080516020611b5383398151915282610dba565b60606004805461041890611a10565b6107e3600080516020611b538339815191523361072b565b6108275760405162461bcd60e51b81526020600482015260156024820152744d7573742068617665206d696e74657220726f6c6560581b604482015260640161057c565b61058f828261113c565b6000338161083f8286610a43565b90508381101561089f5760405162461bcd60e51b815260206004820152602560248201527f45524332303a2064656372656173656420616c6c6f77616e63652062656c6f77604482015264207a65726f60d81b606482015260840161057c565b6104cc8286868403610a6e565b6000336104a9818585610c0c565b8342111561090a5760405162461bcd60e51b815260206004820152601d60248201527f45524332305065726d69743a206578706972656420646561646c696e65000000604482015260640161057c565b60007f6e71edae12b1b97f4d1f60370fef10105fa2faae0126114a169c64845d6126c98888886109398c61126e565b6040805160208101969096526001600160a01b0394851690860152929091166060840152608083015260a082015260c0810186905260e001604051602081830303815290604052805190602001209050600061099482611296565b905060006109a4828787876112c3565b9050896001600160a01b0316816001600160a01b031614610a075760405162461bcd60e51b815260206004820152601e60248201527f45524332305065726d69743a20696e76616c6964207369676e61747572650000604482015260640161057c565b610a128a8a8a610a6e565b50505050505050505050565b600082815260096020526040902060010154610a3981610db0565b6104fc8383610f6b565b6001600160a01b03918216600090815260016020908152604080832093909416825291909152205490565b6001600160a01b038316610ad05760405162461bcd60e51b8152602060048201526024808201527f45524332303a20617070726f76652066726f6d20746865207a65726f206164646044820152637265737360e01b606482015260840161057c565b6001600160a01b038216610b315760405162461bcd60e51b815260206004820152602260248201527f45524332303a20617070726f766520746f20746865207a65726f206164647265604482015261737360f01b606482015260840161057c565b6001600160a01b0383811660008181526001602090815260408083209487168084529482529182902085905590518481527f8c5be1e5ebec7d5bd14f71427d1e84f3dd0314c0f7b2291e5b200ac8c7c3b925910160405180910390a3505050565b6000610b9e8484610a43565b90506000198114610c065781811015610bf95760405162461bcd60e51b815260206004820152601d60248201527f45524332303a20696e73756666696369656e7420616c6c6f77616e6365000000604482015260640161057c565b610c068484848403610a6e565b50505050565b6001600160a01b038316610c705760405162461bcd60e51b815260206004820152602560248201527f45524332303a207472616e736665722066726f6d20746865207a65726f206164604482015264647265737360d81b606482015260840161057c565b6001600160a01b038216610cd25760405162461bcd60e51b815260206004820152602360248201527f45524332303a207472616e7366657220746f20746865207a65726f206164647260448201526265737360e81b606482015260840161057c565b6001600160a01b03831660009081526020819052604090205481811015610d4a5760405162461bcd60e51b815260206004820152602660248201527f45524332303a207472616e7366657220616d6f756e7420657863656564732062604482015265616c616e636560d01b606482015260840161057c565b6001600160a01b03848116600081815260208181526040808320878703905593871680835291849020805487019055925185815290927fddf252ad1be2c89b69c2b068fc378daa952ba7f163c4a11628f55a4df523b3ef910160405180910390a3610c06565b61068181336112eb565b610dc4828261072b565b61058f5760008281526009602090815260408083206001600160a01b03851684529091529020805460ff19166001179055610dfc3390565b6001600160a01b0316816001600160a01b0316837f2f8788117e7eff1d82e926ec794901d17c78024a50270940304540a733656f0d60405160405180910390a45050565b6000306001600160a01b037f000000000000000000000000000000000000000000000000000000000000000016148015610e9957507f000000000000000000000000000000000000000000000000000000000000000046145b15610ec357507f000000000000000000000000000000000000000000000000000000000000000090565b61050b604080517f8b73c3c69bb8fe3d512ecc4cf759cc79239f7b179b0ffacaa9a75d522b39400f60208201527f0000000000000000000000000000000000000000000000000000000000000000918101919091527f000000000000000000000000000000000000000000000000000000000000000060608201524660808201523060a082015260009060c00160405160208183030381529060405280519060200120905090565b610f75828261072b565b1561058f5760008281526009602090815260408083206001600160a01b0385168085529252808320805460ff1916905551339285917ff6391f5c32d9c69d2a47ea670b442974b53935d1edc7fd64eb21e047a839171b9190a45050565b6001600160a01b0382166110285760405162461bcd60e51b815260206004820152601f60248201527f45524332303a206d696e7420746f20746865207a65726f206164647265737300604482015260640161057c565b806002600082825461103a9190611a5a565b90915550506001600160a01b038216600081815260208181526040808320805486019055518481527fddf252ad1be2c89b69c2b068fc378daa952ba7f163c4a11628f55a4df523b3ef910160405180910390a35050565b606060ff83146110ab576110a483611344565b9050610403565b8180546110b790611a10565b80601f01602080910402602001604051908101604052809291908181526020018280546110e390611a10565b80156111305780601f1061110557610100808354040283529160200191611130565b820191906000526020600020905b81548152906001019060200180831161111357829003601f168201915b50505050509050610403565b6001600160a01b03821661119c5760405162461bcd60e51b815260206004820152602160248201527f45524332303a206275726e2066726f6d20746865207a65726f206164647265736044820152607360f81b606482015260840161057c565b6001600160a01b038216600090815260208190526040902054818110156112105760405162461bcd60e51b815260206004820152602260248201527f45524332303a206275726e20616d6f756e7420657863656564732062616c616e604482015261636560f01b606482015260840161057c565b6001600160a01b0383166000818152602081815260408083208686039055600280548790039055518581529192917fddf252ad1be2c89b69c2b068fc378daa952ba7f163c4a11628f55a4df523b3ef910160405180910390a3505050565b6001600160a01b03811660009081526007602052604090208054600181018255905b50919050565b60006104036112a3610e40565b8360405161190160f01b8152600281019290925260228201526042902090565b60008060006112d487878787611383565b915091506112e181611447565b5095945050505050565b6112f5828261072b565b61058f5761130281611591565b61130d8360206115a3565b60405160200161131e929190611a83565b60408051601f198184030181529082905262461bcd60e51b825261057c916004016117e8565b6060600061135183611746565b604080516020808252818301909252919250600091906020820181803683375050509182525060208101929092525090565b6000807f7fffffffffffffffffffffffffffffff5d576e7357a4501ddfe92f46681b20a08311156113ba575060009050600361143e565b6040805160008082526020820180845289905260ff881692820192909252606081018690526080810185905260019060a0016020604051602081039080840390855afa15801561140e573d6000803e3d6000fd5b5050604051601f1901519150506001600160a01b0381166114375760006001925092505061143e565b9150600090505b94509492505050565b600081600481111561145b5761145b611af8565b036114635750565b600181600481111561147757611477611af8565b036114c45760405162461bcd60e51b815260206004820152601860248201527f45434453413a20696e76616c6964207369676e61747572650000000000000000604482015260640161057c565b60028160048111156114d8576114d8611af8565b036115255760405162461bcd60e51b815260206004820152601f60248201527f45434453413a20696e76616c6964207369676e6174757265206c656e67746800604482015260640161057c565b600381600481111561153957611539611af8565b036106815760405162461bcd60e51b815260206004820152602260248201527f45434453413a20696e76616c6964207369676e6174757265202773272076616c604482015261756560f01b606482015260840161057c565b60606104036001600160a01b03831660145b606060006115b2836002611b0e565b6115bd906002611a5a565b67ffffffffffffffff8111156115d5576115d5611a6d565b6040519080825280601f01601f1916602001820160405280156115ff576020820181803683370190505b509050600360fc1b8160008151811061161a5761161a611b25565b60200101906001600160f81b031916908160001a905350600f60fb1b8160018151811061164957611649611b25565b60200101906001600160f81b031916908160001a905350600061166d846002611b0e565b611678906001611a5a565b90505b60018111156116f0576f181899199a1a9b1b9c1cb0b131b232b360811b85600f16601081106116ac576116ac611b25565b1a60f81b8282815181106116c2576116c2611b25565b60200101906001600160f81b031916908160001a90535060049490941c936116e981611b3b565b905061167b565b50831561173f5760405162461bcd60e51b815260206004820181905260248201527f537472696e67733a20686578206c656e67746820696e73756666696369656e74604482015260640161057c565b9392505050565b600060ff8216601f81111561040357604051632cd44ac360e21b815260040160405180910390fd5b60006020828403121561178057600080fd5b81356001600160e01b03198116811461173f57600080fd5b60005b838110156117b357818101518382015260200161179b565b50506000910152565b600081518084526117d4816020860160208601611798565b601f01601f19169290920160200192915050565b60208152600061173f60208301846117bc565b80356001600160a01b038116811461181257600080fd5b919050565b6000806040838503121561182a57600080fd5b611833836117fb565b946020939093013593505050565b60008060006060848603121561185657600080fd5b61185f846117fb565b925061186d602085016117fb565b9150604084013590509250925092565b60006020828403121561188f57600080fd5b5035919050565b600080604083850312156118a957600080fd5b823591506118b9602084016117fb565b90509250929050565b6000602082840312156118d457600080fd5b61173f826117fb565b60ff60f81b881681526000602060e0818401526118fd60e084018a6117bc565b838103604085015261190f818a6117bc565b606085018990526001600160a01b038816608086015260a0850187905284810360c0860152855180825283870192509083019060005b8181101561196157835183529284019291840191600101611945565b50909c9b505050505050505050505050565b600080600080600080600060e0888a03121561198e57600080fd5b611997886117fb565b96506119a5602089016117fb565b95506040880135945060608801359350608088013560ff811681146119c957600080fd5b9699959850939692959460a0840135945060c09093013592915050565b600080604083850312156119f957600080fd5b611a02836117fb565b91506118b9602084016117fb565b600181811c90821680611a2457607f821691505b60208210810361129057634e487b7160e01b600052602260045260246000fd5b634e487b7160e01b600052601160045260246000fd5b8082018082111561040357610403611a44565b634e487b7160e01b600052604160045260246000fd5b7f416363657373436f6e74726f6c3a206163636f756e7420000000000000000000815260008351611abb816017850160208801611798565b7001034b99036b4b9b9b4b733903937b6329607d1b6017918401918201528351611aec816028840160208801611798565b01602801949350505050565b634e487b7160e01b600052602160045260246000fd5b808202811582820484141761040357610403611a44565b634e487b7160e01b600052603260045260246000fd5b600081611b4a57611b4a611a44565b50600019019056fe9f2df0fed2c77648de5860a4cc508cd0818c85b8b8a1ab4ceeef8d981c8956a6a26469706673582212201f2c29436920f42191154a6b8d5c6fd1c55948f7611be24e62dc5f33a4cecbc264736f6c63430008130033",
  "devdoc": {
    "events": {
      "Approval(address,address,uint256)": {
        "details": "Emitted when the allowance of a `spender` for an `owner` is set by a call to {approve}. `value` is the new allowance."
      },
      "EIP712DomainChanged()": {
        "details": "MAY be emitted to signal that the domain could have changed."
      },
      "RoleAdminChanged(bytes32,bytes32,bytes32)": {
        "details": "Emitted when `newAdminRole` is set as ``role``'s admin role, replacing `previousAdminRole` `DEFAULT_ADMIN_ROLE` is the starting admin for all roles, despite {RoleAdminChanged} not being emitted signaling this. _Available since v3.1._"
      },
      "RoleGranted(bytes32,address,address)": {
        "details": "Emitted when `account` is granted `role`. `sender` is the account that originated the contract call, an admin role bearer except when using {AccessControl-_setupRole}."
      },
      "RoleRevoked(bytes32,address,address)": {
        "details": "Emitted when `account` is revoked `role`. `sender` is the account that originated the contract call:   - if using `revokeRole`, it is the admin role bearer   - if using `renounceRole`, it is the role bearer (i.e. `account`)"
      },
      "Transfer(address,address,uint256)": {
        "details": "Emitted when `value` tokens are moved from one account (`from`) to another (`to`). Note that `value` may be zero."
      }
    },
    "kind": "dev",
    "methods": {
      "DOMAIN_SEPARATOR()": {
        "details": "See {IERC20Permit-DOMAIN_SEPARATOR}."
      },
      "allowance(address,address)": {
        "details": "See {IERC20-allowance}."
      },
      "approve(address,uint256)": {
        "details": "See {IERC20-approve}. NOTE: If `amount` is the maximum `uint256`, the allowance is not updated on `transferFrom`. This is semantically equivalent to an infinite approval. Requirements: - `spender` cannot be the zero address."
      },
      "balanceOf(address)": {
        "details": "See {IERC20-balanceOf}."
      },
      "decimals()": {
        "details": "Returns the number of decimals used to get its user representation. For example, if `decimals` equals `2`, a balance of `505` tokens should be displayed to a user as `5.05` (`505 / 10 ** 2`). Tokens usually opt for a value of 18, imitating the relationship between Ether and Wei. This is the default value returned by this function, unless it's overridden. NOTE: This information is only used for _display_ purposes: it in no way affects any of the arithmetic of the contract, including {IERC20-balanceOf} and {IERC20-transfer}."
      },
      "decreaseAllowance(address,uint256)": {
        "details": "Atomically decreases the allowance granted to `spender` by the caller. This is an alternative to {approve} that can be used as a mitigation for problems described in {IERC20-approve}. Emits an {Approval} event indicating the updated allowance. Requirements: - `spender` cannot be the zero address. - `spender` must have allowance for the caller of at least `subtractedValue`."
      },
      "eip712Domain()": {
        "details": "See {EIP-5267}. _Available since v4.9._"
      },
      "getRoleAdmin(bytes32)": {
        "details": "Returns the admin role that controls `role`. See {grantRole} and {revokeRole}. To change a role's admin, use {_setRoleAdmin}."
      },
      "grantRole(bytes32,address)": {
        "details": "Grants `role` to `account`. If `account` had not been already granted `role`, emits a {RoleGranted} event. Requirements: - the caller must have ``role``'s admin role. May emit a {RoleGranted} event."
      },
      "hasRole(bytes32,address)": {
        "details": "Returns `true` if `account` has been granted `role`."
      },
      "increaseAllowance(address,uint256)": {
        "details": "Atomically increases the allowance granted to `spender` by the caller. This is an alternative to {approve} that can be used as a mitigation for problems described in {IERC20-approve}. Emits an {Approval} event indicating the updated allowance. Requirements: - `spender` cannot be the zero address."
      },
      "name()": {
        "details": "Returns the name of the token."
      },
      "nonces(address)": {
        "details": "See {IERC20Permit-nonces}."
      },
      "permit(address,address,uint256,uint256,uint8,bytes32,bytes32)": {
        "details": "See {IERC20Permit-permit}."
      },
      "renounceRole(bytes32,address)": {
        "details": "Revokes `role` from the calling account. Roles are often managed via {grantRole} and {revokeRole}: this function's purpose is to provide a mechanism for accounts to lose their privileges if they are compromised (such as when a trusted device is misplaced). If the calling account had been revoked `role`, emits a {RoleRevoked} event. Requirements: - the caller must be `account`. May emit a {RoleRevoked} event."
      },
      "revokeRole(bytes32,address)": {
        "details": "Revokes `role` from `account`. If `account` had been granted `role`, emits a {RoleRevoked} event. Requirements: - the caller must have ``role``'s admin role. May emit a {RoleRevoked} event."
      },
      "supportsInterface(bytes4)": {
        "details": "See {IERC165-supportsInterface}."
      },
      "symbol()": {
        "details": "Returns the symbol of the token, usually a shorter version of the name."
      },
      "totalSupply()": {
        "details": "See {IERC20-totalSupply}."
      },
      "transfer(address,uint256)": {
        "details": "See {IERC20-transfer}. Requirements: - `to` cannot be the zero address. - the caller must have a balance of at least `amount`."
      },
      "transferFrom(address,address,uint256)": {
        "details": "See {IERC20-transferFrom}. Emits an {Approval} event indicating the updated allowance. This is not required by the EIP. See the note at the beginning of {ERC20}. NOTE: Does not update the allowance if the current allowance is the maximum `uint256`. Requirements: - `from` and `to` cannot be the zero address. - `from` must have a balance of at least `amount`. - the caller must have allowance for ``from``'s tokens of at least `amount`."
      }
    },
    "version": 1
  },
  "userdoc": {
    "kind": "user",
    "methods": {},
    "version": 1
  },
  "storageLayout": {
    "storage": [
      {
        "astId": 1861,
        "contract": "contracts/mocks/tokens/MockWBTC.sol:MockWBTC",
        "label": "_balances",
        "offset": 0,
        "slot": "0",
        "type": "t_mapping(t_address,t_uint256)"
      },
      {
        "astId": 1867,
        "contract": "contracts/mocks/tokens/MockWBTC.sol:MockWBTC",
        "label": "_allowances",
        "offset": 0,
        "slot": "1",
        "type": "t_mapping(t_address,t_mapping(t_address,t_uint256))"
      },
      {
        "astId": 1869,
        "contract": "contracts/mocks/tokens/MockWBTC.sol:MockWBTC",
        "label": "_totalSupply",
        "offset": 0,
        "slot": "2",
        "type": "t_uint256"
      },
      {
        "astId": 1871,
        "contract": "contracts/mocks/tokens/MockWBTC.sol:MockWBTC",
        "label": "_name",
        "offset": 0,
        "slot": "3",
        "type": "t_string_storage"
      },
      {
        "astId": 1873,
        "contract": "contracts/mocks/tokens/MockWBTC.sol:MockWBTC",
        "label": "_symbol",
        "offset": 0,
        "slot": "4",
        "type": "t_string_storage"
      },
      {
        "astId": 4178,
        "contract": "contracts/mocks/tokens/MockWBTC.sol:MockWBTC",
        "label": "_nameFallback",
        "offset": 0,
        "slot": "5",
        "type": "t_string_storage"
      },
      {
        "astId": 4180,
        "contract": "contracts/mocks/tokens/MockWBTC.sol:MockWBTC",
        "label": "_versionFallback",
        "offset": 0,
        "slot": "6",
        "type": "t_string_storage"
      },
      {
        "astId": 2533,
        "contract": "contracts/mocks/tokens/MockWBTC.sol:MockWBTC",
        "label": "_nonces",
        "offset": 0,
        "slot": "7",
        "type": "t_mapping(t_address,t_struct(Counter)3101_storage)"
      },
      {
        "astId": 2541,
        "contract": "contracts/mocks/tokens/MockWBTC.sol:MockWBTC",
        "label": "_PERMIT_TYPEHASH_DEPRECATED_SLOT",
        "offset": 0,
        "slot": "8",
        "type": "t_bytes32"
      },
      {
        "astId": 722,
        "contract": "contracts/mocks/tokens/MockWBTC.sol:MockWBTC",
        "label": "_roles",
        "offset": 0,
        "slot": "9",
        "type": "t_mapping(t_bytes32,t_struct(RoleData)717_storage)"
      },
      {
        "astId": 13592,
        "contract": "contracts/mocks/tokens/MockWBTC.sol:MockWBTC",
        "label": "_name",
        "offset": 0,
        "slot": "10",
        "type": "t_string_storage"
      },
      {
        "astId": 13595,
        "contract": "contracts/mocks/tokens/MockWBTC.sol:MockWBTC",
        "label": "_symbol",
        "offset": 0,
        "slot": "11",
        "type": "t_string_storage"
      }
    ],
    "types": {
      "t_address": {
        "encoding": "inplace",
        "label": "address",
        "numberOfBytes": "20"
      },
      "t_bool": {
        "encoding": "inplace",
        "label": "bool",
        "numberOfBytes": "1"
      },
      "t_bytes32": {
        "encoding": "inplace",
        "label": "bytes32",
        "numberOfBytes": "32"
      },
      "t_mapping(t_address,t_bool)": {
        "encoding": "mapping",
        "key": "t_address",
        "label": "mapping(address => bool)",
        "numberOfBytes": "32",
        "value": "t_bool"
      },
      "t_mapping(t_address,t_mapping(t_address,t_uint256))": {
        "encoding": "mapping",
        "key": "t_address",
        "label": "mapping(address => mapping(address => uint256))",
        "numberOfBytes": "32",
        "value": "t_mapping(t_address,t_uint256)"
      },
      "t_mapping(t_address,t_struct(Counter)3101_storage)": {
        "encoding": "mapping",
        "key": "t_address",
        "label": "mapping(address => struct Counters.Counter)",
        "numberOfBytes": "32",
        "value": "t_struct(Counter)3101_storage"
      },
      "t_mapping(t_address,t_uint256)": {
        "encoding": "mapping",
        "key": "t_address",
        "label": "mapping(address => uint256)",
        "numberOfBytes": "32",
        "value": "t_uint256"
      },
      "t_mapping(t_bytes32,t_struct(RoleData)717_storage)": {
        "encoding": "mapping",
        "key": "t_bytes32",
        "label": "mapping(bytes32 => struct AccessControl.RoleData)",
        "numberOfBytes": "32",
        "value": "t_struct(RoleData)717_storage"
      },
      "t_string_storage": {
        "encoding": "bytes",
        "label": "string",
        "numberOfBytes": "32"
      },
      "t_struct(Counter)3101_storage": {
        "encoding": "inplace",
        "label": "struct Counters.Counter",
        "members": [
          {
            "astId": 3100,
            "contract": "contracts/mocks/tokens/MockWBTC.sol:MockWBTC",
            "label": "_value",
            "offset": 0,
            "slot": "0",
            "type": "t_uint256"
          }
        ],
        "numberOfBytes": "32"
      },
      "t_struct(RoleData)717_storage": {
        "encoding": "inplace",
        "label": "struct AccessControl.RoleData",
        "members": [
          {
            "astId": 714,
            "contract": "contracts/mocks/tokens/MockWBTC.sol:MockWBTC",
            "label": "members",
            "offset": 0,
            "slot": "0",
            "type": "t_mapping(t_address,t_bool)"
          },
          {
            "astId": 716,
            "contract": "contracts/mocks/tokens/MockWBTC.sol:MockWBTC",
            "label": "adminRole",
            "offset": 0,
            "slot": "1",
            "type": "t_bytes32"
          }
        ],
        "numberOfBytes": "64"
      },
      "t_uint256": {
        "encoding": "inplace",
        "label": "uint256",
        "numberOfBytes": "32"
      }
    }
  }
}