{
  "contractName": "MoneyMarket",
  "abi": [
    {
      "inputs": [
        {
          "internalType": "enum MoneyMarket.Ccy",
          "name": "ccy",
          "type": "uint8"
        },
        {
          "components": [
            {
              "internalType": "enum MoneyMarket.Term",
              "name": "term",
              "type": "uint8"
            },
            {
              "internalType": "uint256",
              "name": "size",
              "type": "uint256"
            },
            {
              "internalType": "uint256",
              "name": "rate",
              "type": "uint256"
            }
          ],
          "internalType": "struct MoneyMarket.LoanInput[]",
          "name": "lenders",
          "type": "tuple[]"
        },
        {
          "components": [
            {
              "internalType": "enum MoneyMarket.Term",
              "name": "term",
              "type": "uint8"
            },
            {
              "internalType": "uint256",
              "name": "size",
              "type": "uint256"
            },
            {
              "internalType": "uint256",
              "name": "rate",
              "type": "uint256"
            }
          ],
          "internalType": "struct MoneyMarket.LoanInput[]",
          "name": "borrowers",
          "type": "tuple[]"
        },
        {
          "internalType": "uint256",
          "name": "effectiveSec",
          "type": "uint256"
        }
      ],
      "name": "setLoans",
      "outputs": [],
      "stateMutability": "nonpayable",
      "type": "function"
    },
    {
      "inputs": [
        {
          "internalType": "address",
          "name": "addr",
          "type": "address"
        }
      ],
      "name": "getOneBook",
      "outputs": [
        {
          "components": [
            {
              "components": [
                {
                  "internalType": "enum MoneyMarket.Term",
                  "name": "term",
                  "type": "uint8"
                },
                {
                  "internalType": "uint256",
                  "name": "size",
                  "type": "uint256"
                },
                {
                  "internalType": "uint256",
                  "name": "rate",
                  "type": "uint256"
                },
                {
                  "internalType": "uint256",
                  "name": "goodtil",
                  "type": "uint256"
                },
                {
                  "internalType": "bool",
                  "name": "isAvailable",
                  "type": "bool"
                },
                {
                  "internalType": "address",
                  "name": "addr",
                  "type": "address"
                }
              ],
              "internalType": "struct MoneyMarket.LoanItem[6][2]",
              "name": "lenders",
              "type": "tuple[6][2]"
            },
            {
              "components": [
                {
                  "internalType": "enum MoneyMarket.Term",
                  "name": "term",
                  "type": "uint8"
                },
                {
                  "internalType": "uint256",
                  "name": "size",
                  "type": "uint256"
                },
                {
                  "internalType": "uint256",
                  "name": "rate",
                  "type": "uint256"
                },
                {
                  "internalType": "uint256",
                  "name": "goodtil",
                  "type": "uint256"
                },
                {
                  "internalType": "bool",
                  "name": "isAvailable",
                  "type": "bool"
                },
                {
                  "internalType": "address",
                  "name": "addr",
                  "type": "address"
                }
              ],
              "internalType": "struct MoneyMarket.LoanItem[6][2]",
              "name": "borrowers",
              "type": "tuple[6][2]"
            },
            {
              "internalType": "bool",
              "name": "isValue",
              "type": "bool"
            }
          ],
          "internalType": "struct MoneyMarket.LoanBook",
          "name": "",
          "type": "tuple"
        }
      ],
      "stateMutability": "view",
      "type": "function",
      "constant": true
    },
    {
      "inputs": [],
      "name": "getAllBooks",
      "outputs": [
        {
          "components": [
            {
              "components": [
                {
                  "internalType": "enum MoneyMarket.Term",
                  "name": "term",
                  "type": "uint8"
                },
                {
                  "internalType": "uint256",
                  "name": "size",
                  "type": "uint256"
                },
                {
                  "internalType": "uint256",
                  "name": "rate",
                  "type": "uint256"
                },
                {
                  "internalType": "uint256",
                  "name": "goodtil",
                  "type": "uint256"
                },
                {
                  "internalType": "bool",
                  "name": "isAvailable",
                  "type": "bool"
                },
                {
                  "internalType": "address",
                  "name": "addr",
                  "type": "address"
                }
              ],
              "internalType": "struct MoneyMarket.LoanItem[6][2]",
              "name": "lenders",
              "type": "tuple[6][2]"
            },
            {
              "components": [
                {
                  "internalType": "enum MoneyMarket.Term",
                  "name": "term",
                  "type": "uint8"
                },
                {
                  "internalType": "uint256",
                  "name": "size",
                  "type": "uint256"
                },
                {
                  "internalType": "uint256",
                  "name": "rate",
                  "type": "uint256"
                },
                {
                  "internalType": "uint256",
                  "name": "goodtil",
                  "type": "uint256"
                },
                {
                  "internalType": "bool",
                  "name": "isAvailable",
                  "type": "bool"
                },
                {
                  "internalType": "address",
                  "name": "addr",
                  "type": "address"
                }
              ],
              "internalType": "struct MoneyMarket.LoanItem[6][2]",
              "name": "borrowers",
              "type": "tuple[6][2]"
            },
            {
              "internalType": "bool",
              "name": "isValue",
              "type": "bool"
            }
          ],
          "internalType": "struct MoneyMarket.LoanBook[]",
          "name": "",
          "type": "tuple[]"
        }
      ],
      "stateMutability": "view",
      "type": "function",
      "constant": true
    },
    {
      "inputs": [],
      "name": "getBestBook",
      "outputs": [
        {
          "components": [
            {
              "components": [
                {
                  "internalType": "enum MoneyMarket.Term",
                  "name": "term",
                  "type": "uint8"
                },
                {
                  "internalType": "uint256",
                  "name": "size",
                  "type": "uint256"
                },
                {
                  "internalType": "uint256",
                  "name": "rate",
                  "type": "uint256"
                },
                {
                  "internalType": "uint256",
                  "name": "goodtil",
                  "type": "uint256"
                },
                {
                  "internalType": "bool",
                  "name": "isAvailable",
                  "type": "bool"
                },
                {
                  "internalType": "address",
                  "name": "addr",
                  "type": "address"
                }
              ],
              "internalType": "struct MoneyMarket.LoanItem[6][2]",
              "name": "lenders",
              "type": "tuple[6][2]"
            },
            {
              "components": [
                {
                  "internalType": "enum MoneyMarket.Term",
                  "name": "term",
                  "type": "uint8"
                },
                {
                  "internalType": "uint256",
                  "name": "size",
                  "type": "uint256"
                },
                {
                  "internalType": "uint256",
                  "name": "rate",
                  "type": "uint256"
                },
                {
                  "internalType": "uint256",
                  "name": "goodtil",
                  "type": "uint256"
                },
                {
                  "internalType": "bool",
                  "name": "isAvailable",
                  "type": "bool"
                },
                {
                  "internalType": "address",
                  "name": "addr",
                  "type": "address"
                }
              ],
              "internalType": "struct MoneyMarket.LoanItem[6][2]",
              "name": "borrowers",
              "type": "tuple[6][2]"
            },
            {
              "internalType": "bool",
              "name": "isValue",
              "type": "bool"
            }
          ],
          "internalType": "struct MoneyMarket.LoanBook",
          "name": "",
          "type": "tuple"
        }
      ],
      "stateMutability": "view",
      "type": "function",
      "constant": true
    },
    {
      "inputs": [],
      "name": "getLenderRates",
      "outputs": [
        {
          "internalType": "uint256[6][2]",
          "name": "",
          "type": "uint256[6][2]"
        }
      ],
      "stateMutability": "view",
      "type": "function",
      "constant": true
    },
    {
      "inputs": [],
      "name": "getBorrowerRates",
      "outputs": [
        {
          "internalType": "uint256[6][2]",
          "name": "",
          "type": "uint256[6][2]"
        }
      ],
      "stateMutability": "view",
      "type": "function",
      "constant": true
    },
    {
      "inputs": [],
      "name": "getMidRates",
      "outputs": [
        {
          "internalType": "uint256[6][2]",
          "name": "",
          "type": "uint256[6][2]"
        }
      ],
      "stateMutability": "view",
      "type": "function",
      "constant": true
    },
    {
      "inputs": [],
      "name": "getMarketMakers",
      "outputs": [
        {
          "internalType": "address[]",
          "name": "",
          "type": "address[]"
        }
      ],
      "stateMutability": "view",
      "type": "function",
      "constant": true
    }
  ],
  "bytecode": "0x608060405234801561001057600080fd5b506114db806100206000396000f3fe608060405234801561001057600080fd5b50600436106100785760003560e01c80632043285d1461007d578063354528e81461009b578063491f8076146100b057806357d8df5a146100c55780637ba8ad21146100e55780639b4a7a1a146100ed578063be92e1b5146100f5578063f68797fa146100fd575b600080fd5b610085610112565b604051610092919061137a565b60405180910390f35b6100a3610174565b6040516100929190611422565b6100b8610411565b60405161009291906113c7565b6100d86100d3366004611202565b6104c0565b6040516100929190611465565b6100d86106c2565b6100b86108a7565b6100b8610925565b61011061010b366004611230565b6109a2565b005b6060600180548060200260200160405190810160405280929190818152602001828054801561016a57602002820191906000526020600020905b81546001600160a01b0316815260019091019060200180831161014c575b5050505050905090565b60015460609081906001600160401b038111801561019157600080fd5b506040519080825280602002602001820160405280156101cb57816020015b6101b861101d565b8152602001906001900390816101b05790505b50905060005b60015481101561040b57600080600183815481106101eb57fe5b60009182526020808320909101546001600160a01b0316835282019290925260409081018220815160a081019092529091829060608201908390600290835b828210156102ed576040805160c08101909152601e8302850160066000835b828210156102da576040805160c081019091526005808402860180549091839160ff169081111561027657fe5b600581111561028157fe5b8152600182810154602080840191909152600284015460408401526003840154606084015260049093015460ff81161515608084015261010090046001600160a01b031660a09092019190915291835292019101610249565b505050508152602001906001019061022a565b5050509082525060408051808201909152602090910190603c830160026000835b828210156103d1576040805160c08101909152601e8302850160066000835b828210156103be576040805160c081019091526005808402860180549091839160ff169081111561035a57fe5b600581111561036557fe5b8152600182810154602080840191909152600284015460408401526003840154606084015260049093015460ff81161515608084015261010090046001600160a01b031660a0909201919091529183529201910161032d565b505050508152602001906001019061030e565b505050908252506078919091015460ff16151560209091015282518390839081106103f857fe5b60209081029190910101526001016101d1565b50905090565b61041961104a565b61042161104a565b60005b600281101561040b5760005b60068110156104b7576002603e8382811061044757fe5b601e0201826006811061045657fe5b60050201600201546002600001846002811061046e57fe5b601e0201836006811061047d57fe5b6005020160020154018161048d57fe5b0483836002811061049a57fe5b602002015182600681106104aa57fe5b6020020152600101610430565b50600101610424565b6104c861101d565b6001600160a01b038216600090815260208190526040808220815160a081019092529091829060608201908390600290835b828210156105bd576040805160c08101909152601e8302850160066000835b828210156105aa576040805160c081019091526005808402860180549091839160ff169081111561054657fe5b600581111561055157fe5b8152600182810154602080840191909152600284015460408401526003840154606084015260049093015460ff81161515608084015261010090046001600160a01b031660a09092019190915291835292019101610519565b50505050815260200190600101906104fa565b5050509082525060408051808201909152602090910190603c830160026000835b828210156106a1576040805160c08101909152601e8302850160066000835b8282101561068e576040805160c081019091526005808402860180549091839160ff169081111561062a57fe5b600581111561063557fe5b8152600182810154602080840191909152600284015460408401526003840154606084015260049093015460ff81161515608084015261010090046001600160a01b031660a090920191909152918352920191016105fd565b50505050815260200190600101906105de565b505050908252506078919091015460ff16151560209091015290505b919050565b6106ca61101d565b6040805160a081019091526002816060810182806000835b828210156107a5576040805160c08101909152601e8302850160066000835b82821015610792576040805160c081019091526005808402860180549091839160ff169081111561072e57fe5b600581111561073957fe5b8152600182810154602080840191909152600284015460408401526003840154606084015260049093015460ff81161515608084015261010090046001600160a01b031660a09092019190915291835292019101610701565b50505050815260200190600101906106e2565b5050509082525060408051808201909152602090910190603c830160026000835b82821015610889576040805160c08101909152601e8302850160066000835b82821015610876576040805160c081019091526005808402860180549091839160ff169081111561081257fe5b600581111561081d57fe5b8152600182810154602080840191909152600284015460408401526003840154606084015260049093015460ff81161515608084015261010090046001600160a01b031660a090920191909152918352920191016107e5565b50505050815260200190600101906107c6565b505050908252506078919091015460ff161515602090910152905090565b6108af61104a565b6108b761104a565b60005b600281101561040b5760005b600681101561091c57603e82600281106108dc57fe5b601e020181600681106108eb57fe5b60050201600201548383600281106108ff57fe5b6020020151826006811061090f57fe5b60200201526001016108c6565b506001016108ba565b61092d61104a565b61093561104a565b60005b600281101561040b5760005b60068110156109995760028281811061095957fe5b601e0201816006811061096857fe5b600502016002015483836002811061097c57fe5b6020020151826006811061098c57fe5b6020020152600101610944565b50600101610938565b33600090815260208190526040812090818660018111156109bf57fe5b600281106109c957fe5b601e02019050600082603c018760018111156109e157fe5b600281106109eb57fe5b601e0201905060005b8651811015610c9d576000878281518110610a0b57fe5b6020026020010151600001519050610a21611077565b610a40898481518110610a3057fe5b6020026020010151884201610fbd565b90508085836005811115610a5057fe5b60068110610a5a57fe5b6005020160008201518160000160006101000a81548160ff02191690836005811115610a8257fe5b021790555060208201516001820155604082015160028201556060820151600382015560808201516004909101805460a0909301516001600160a01b031661010002610100600160a81b031992151560ff199094169390931791909116919091179055610aed611077565b60028b6001811115610afb57fe5b60028110610b0557fe5b601e0201836005811115610b1557fe5b60068110610b1f57fe5b600502016040518060c00160405290816000820160009054906101000a900460ff166005811115610b4c57fe5b6005811115610b5757fe5b815260018201546020820152600282015460408201526003820154606082015260049091015460ff808216151560808401526101009091046001600160a01b031660a090920191909152607a54919250161580610bce5750898481518110610bbb57fe5b6020026020010151604001518160400151115b15610c92578160028c6001811115610be257fe5b60028110610bec57fe5b601e0201846005811115610bfc57fe5b60068110610c0657fe5b6005020160008201518160000160006101000a81548160ff02191690836005811115610c2e57fe5b021790555060208201516001820155604082015160028201556060820151600382015560808201516004909101805460a0909301516001600160a01b031661010002610100600160a81b031992151560ff1990941693909317919091169190911790555b5050506001016109f4565b5060005b8551811015610f3a576000868281518110610cb857fe5b6020026020010151600001519050610cce611077565b610cdd888481518110610a3057fe5b90508084836005811115610ced57fe5b60068110610cf757fe5b6005020160008201518160000160006101000a81548160ff02191690836005811115610d1f57fe5b021790555060208201516001820155604082015160028201556060820151600382015560808201516004909101805460a0909301516001600160a01b031661010002610100600160a81b031992151560ff199094169390931791909116919091179055610d8a611077565b603e8b6001811115610d9857fe5b60028110610da257fe5b601e0201836005811115610db257fe5b60068110610dbc57fe5b600502016040518060c00160405290816000820160009054906101000a900460ff166005811115610de957fe5b6005811115610df457fe5b815260018201546020820152600282015460408201526003820154606082015260049091015460ff808216151560808401526101009091046001600160a01b031660a090920191909152607a54919250161580610e6b5750888481518110610e5857fe5b6020026020010151604001518160400151105b15610f2f5781603e8c6001811115610e7f57fe5b60028110610e8957fe5b601e0201846005811115610e9957fe5b60068110610ea357fe5b6005020160008201518160000160006101000a81548160ff02191690836005811115610ecb57fe5b021790555060208201516001820155604082015160028201556060820151600382015560808201516004909101805460a0909301516001600160a01b031661010002610100600160a81b031992151560ff1990941693909317919091169190911790555b505050600101610ca1565b503360009081526020819052604090206078015460ff16610f97576001805480820182556000919091527fb10e2d527612073b26eecdfd717e6a320cf44b4afac2b0732d9fcbe2b7fa0cf60180546001600160a01b031916331790555b50506078018054600160ff199182168117909255607a8054909116909117905550505050565b610fc5611077565b610fcd611077565b835181906005811115610fdc57fe5b90816005811115610fe957fe5b905250602080850151908201526040808501519082015260608101839052600160808201523360a082015290505b92915050565b60405180606001604052806110306110b9565b815260200161103d6110b9565b8152600060209091015290565b60405180604001604052806002905b6110616110e6565b8152602001906001900390816110595790505090565b6040805160c08101909152806000815260200160008152602001600081526020016000815260200160001515815260200160006001600160a01b031681525090565b60405180604001604052806002905b6110d0611104565b8152602001906001900390816110c85790505090565b6040518060c001604052806006906020820280368337509192915050565b6040518060c001604052806006905b61111b611077565b8152602001906001900390816111135790505090565b600082601f830112611141578081fd5b81356001600160401b03811115611156578182fd5b60206111658182840201611474565b828152925080830184820160608085028701840188101561118557600080fd5b60005b858110156111ac5761119a89846111b8565b84529284019291810191600101611188565b50505050505092915050565b6000606082840312156111c9578081fd5b6111d36060611474565b90508135600681106111e457600080fd5b80825250602082013560208201526040820135604082015292915050565b600060208284031215611213578081fd5b81356001600160a01b0381168114611229578182fd5b9392505050565b60008060008060808587031215611245578283fd5b843560028110611253578384fd5b935060208501356001600160401b038082111561126e578485fd5b61127a88838901611131565b9450604087013591508082111561128f578384fd5b5061129c87828801611131565b949793965093946060013593505050565b806000805b600281101561134457825185835b600681101561132a5782516112d5815161149a565b835260208181015181850152604080830151908501526060808301519085015260808083015115159085015260a0918201516001600160a01b031691840191909152929092019160c0909101906001016112c0565b5050506104809490940193602092909201916001016112b2565b5050505050565b6113568282516112ad565b60208101516113696109008401826112ad565b506040015115156112009190910152565b6020808252825182820181905260009190848201906040850190845b818110156113bb5783516001600160a01b031683529284019291840191600101611396565b50909695505050505050565b610180810181836000805b600281101561141857825184835b60068110156113ff5782518252602092830192909101906001016113e0565b50505060c09390930192602092909201916001016113d2565b5050505092915050565b6020808252825182820181905260009190848201906040850190845b818110156113bb5761145183855161134b565b92840192611220929092019160010161143e565b6112208101611017828461134b565b6040518181016001600160401b038111828210171561149257600080fd5b604052919050565b80600681106106bd57fefea264697066735822122061380170b8f84729375f4745cedc738d2c38b17e675fb549933f31bdbffd415464736f6c634300060c0033",
  "immutableReferences": {},
  "source": "// SPDX-License-Identifier: MIT\npragma solidity ^0.6.12;\npragma experimental ABIEncoderV2;\n\ncontract MoneyMarket {\n\n    enum Ccy { ETH, FIL }\n    enum Term { _3m, _6m, _1y, _2y, _3y, _5y}\n\n    uint constant NUMCCY = 2;\n    uint constant NUMTERM = 6;\n\n    struct LoanBook {\n        LoanItem[NUMTERM][NUMCCY] lenders;\n        LoanItem[NUMTERM][NUMCCY] borrowers;\n        bool isValue;\n    }\n\n    struct LoanItem {\n        Term term;\n        uint size;\n        uint rate;\n        uint goodtil;\n        bool isAvailable;\n        address addr;\n    }\n\n    struct LoanInput {\n        Term term;\n        uint size;\n        uint rate;\n    }\n\n    // LoanBook [0] for ETH, [1] for FIL\n    mapping(address => LoanBook) private loanMap;\n    address[] private marketMakers;\n    LoanBook private bestBook;\n\n    function inputToItem(LoanInput memory input, uint goodtil) private view returns (LoanItem memory) {\n        LoanItem memory item;\n        item.term = input.term;\n        item.size = input.size;\n        item.rate = input.rate;\n        item.goodtil = goodtil;\n        item.isAvailable = true;\n        item.addr = msg.sender;\n        return item;\n    }\n\n    function setLoans(\n        Ccy ccy,\n        LoanInput[] memory lenders,\n        LoanInput[] memory borrowers,\n        uint effectiveSec\n    ) public {\n        // TODO - check if collateral covers borrowers sizes\n        // TODO - emit event for notice\n        LoanBook storage book = loanMap[msg.sender];\n        LoanItem[NUMTERM] storage lenderTerms = book.lenders[uint(ccy)];\n        LoanItem[NUMTERM] storage borrowerTerms = book.borrowers[uint(ccy)];\n        for (uint i = 0; i < lenders.length; i++) {\n            Term term = lenders[i].term;\n            LoanItem memory newItem = inputToItem(lenders[i], now+effectiveSec);\n            lenderTerms[uint(term)] = newItem;\n            LoanItem memory bestItem = bestBook.lenders[uint(ccy)][uint(term)];\n            if (!bestBook.isValue || bestItem.rate > lenders[i].rate)\n                bestBook.lenders[uint(ccy)][uint(term)] = newItem;\n        }\n        for (uint i = 0; i < borrowers.length; i++) {\n            Term term = borrowers[i].term;\n            LoanItem memory newItem = inputToItem(borrowers[i], now+effectiveSec);\n            borrowerTerms[uint(term)] = newItem;\n            LoanItem memory bestItem = bestBook.borrowers[uint(ccy)][uint(term)];\n            if (!bestBook.isValue || bestItem.rate < borrowers[i].rate)\n                bestBook.borrowers[uint(ccy)][uint(term)] = newItem;\n        }\n        if (!loanMap[msg.sender].isValue)\n            marketMakers.push(msg.sender);\n        book.isValue = true;\n        bestBook.isValue = true;\n    }\n\n    function getOneBook(address addr) public view returns (LoanBook memory) {\n        return loanMap[addr];\n    }\n\n    function getAllBooks() public view returns (LoanBook[] memory) {\n        LoanBook[] memory allBooks = new LoanBook[](marketMakers.length);\n        for (uint i = 0; i < marketMakers.length; i++) {\n            allBooks[i] = loanMap[marketMakers[i]];\n        }\n        return allBooks;\n    }\n\n    function getBestBook() public view returns (LoanBook memory) {\n        return bestBook;\n    }\n\n    function getLenderRates() public view returns (uint[NUMTERM][NUMCCY] memory) {\n        uint[NUMTERM][NUMCCY] memory rates;\n        for (uint i = 0; i < NUMCCY; i++) {\n            for (uint j = 0; j < NUMTERM; j++) {\n                rates[i][j] = bestBook.lenders[i][j].rate;\n            }\n        }\n        return rates;\n    }\n\n    function getBorrowerRates() public view returns (uint[NUMTERM][NUMCCY] memory) {\n        uint[NUMTERM][NUMCCY] memory rates;\n        for (uint i = 0; i < NUMCCY; i++) {\n            for (uint j = 0; j < NUMTERM; j++) {\n                rates[i][j] = bestBook.borrowers[i][j].rate;\n            }\n        }\n        return rates;\n    }\n\n    function getMidRates() public view returns (uint[NUMTERM][NUMCCY] memory) {\n        uint[NUMTERM][NUMCCY] memory rates;\n        for (uint i = 0; i < NUMCCY; i++) {\n            for (uint j = 0; j < NUMTERM; j++) {\n                rates[i][j] = (bestBook.lenders[i][j].rate + bestBook.borrowers[i][j].rate)/2;\n            }\n        }\n        return rates;\n    }\n\n    function getMarketMakers() public view returns (address[] memory) {\n        return marketMakers;\n    }\n\n}\n\ncontract FXMarket {\n\n    enum Ccy { ETH, FIL }\n    enum CcyPair { ETHFIL }\n\n    uint constant NUMCCY = 2;\n    uint constant NUMPAIR = 1;\n    uint[NUMPAIR] MULTIPLIER = [1000];\n\n    struct FXBook {\n        FXItem[NUMPAIR] offers;\n        FXItem[NUMPAIR] bids;\n        bool isValue;\n    }\n\n    struct FXItem {\n        CcyPair pair;\n        Ccy ccyBuy;\n        Ccy ccySell;\n        uint amtBuy;\n        uint amtSell;\n        uint rate;\n        uint goodtil;\n        bool isAvailable;\n        address addr;\n    }\n\n    struct FXInput {\n        Ccy ccyBuy;\n        Ccy ccySell;\n        uint amtBuy;\n        uint amtSell;\n    }\n\n    // FXBook [0] for ETHFIL\n    mapping(address => FXBook) private fxMap;\n    address[] private marketMakers;\n    FXBook private bestBook;\n\n    function inputToItem(CcyPair pair, FXInput memory input, uint goodtil) private view returns (FXItem memory) {\n        FXItem memory item;\n        item.pair = pair;\n        item.ccyBuy = input.ccyBuy;\n        item.ccySell = input.ccySell;\n        item.amtBuy = input.amtBuy;\n        item.amtSell = input.amtSell;\n        item.rate = MULTIPLIER[uint(pair)] * input.amtSell / input.amtBuy;\n        item.goodtil = goodtil;\n        item.isAvailable = true;\n        item.addr = msg.sender;\n        return item;\n    }\n\n    function setFX(\n        CcyPair pair,\n        FXInput memory offerInput,\n        FXInput memory bidInput,\n        uint effectiveSec\n    ) public {\n        FXBook storage book = fxMap[msg.sender];\n        FXItem storage offer = book.offers[uint(pair)];\n        FXItem storage bid = book.bids[uint(pair)];\n\n        FXItem memory newOffer = inputToItem(pair, offerInput, now+effectiveSec);\n        book.offers[uint(pair)] = newOffer;\n\n        FXItem memory bestOffer = bestBook.offers[uint(pair)];\n        if (!bestBook.isValue || bestOffer.rate > offer.rate)\n            bestBook.offers[uint(pair)] = newOffer;\n\n        FXItem memory newBid = inputToItem(pair, bidInput, now+effectiveSec);\n        book.bids[uint(pair)] = newBid;\n        FXItem memory bestBid = bestBook.bids[uint(pair)];\n        if (!bestBook.isValue || bestBid.rate < bid.rate)\n            bestBook.bids[uint(pair)] = newBid;\n\n        if (!fxMap[msg.sender].isValue)\n            marketMakers.push(msg.sender);\n        book.isValue = true;\n        bestBook.isValue = true;\n    }\n\n    function getFXBook(address addr) public view returns (FXBook memory) {\n        return fxMap[addr];\n    }\n\n    function getBestFX() public view returns (FXBook memory) {\n        return bestBook;\n    }\n\n    function getOfferRates() public view returns (uint[NUMPAIR] memory) {\n        uint[NUMPAIR] memory rates;\n        for (uint i = 0; i < NUMPAIR; i++) {\n                rates[i] = bestBook.offers[i].rate;\n        }\n        return rates;\n    }\n\n    function getBidRates() public view returns (uint[NUMPAIR] memory) {\n        uint[NUMPAIR] memory rates;\n        for (uint i = 0; i < NUMPAIR; i++) {\n                rates[i] = bestBook.bids[i].rate;\n        }\n        return rates;\n    }\n\n    function getMidRates() public view returns (uint[NUMPAIR] memory) {\n        uint[NUMPAIR] memory rates;\n        for (uint i = 0; i < NUMPAIR; i++) {\n                rates[i] = (bestBook.offers[i].rate + bestBook.bids[i].rate)/2;\n        }\n        return rates;\n    }\n\n    function getMarketMakers() public view returns (address[] memory) {\n        return marketMakers;\n    }\n\n}\n",
  "sourcePath": "/Users/user/tmp/collateral-manager/contracts/Market.sol",
  "compiler": {
    "name": "solc",
    "version": "0.6.12+commit.27d51765.Emscripten.clang"
  },
  "schemaVersion": "3.2.2",
  "updatedAt": "2020-07-30T14:55:17.342Z",
  "networkType": "ethereum",
  "devdoc": {
    "kind": "dev",
    "methods": {},
    "version": 1
  },
  "userdoc": {
    "kind": "user",
    "methods": {},
    "version": 1
  }
}