{
  "address": "0xf5Db7CD58818A3862D63857269A3413844722bd1",
  "abi": [
    {
      "anonymous": false,
      "inputs": [
        {
          "indexed": false,
          "internalType": "bytes32",
          "name": "name",
          "type": "bytes32"
        },
        {
          "indexed": false,
          "internalType": "address",
          "name": "destination",
          "type": "address"
        }
      ],
      "name": "CacheUpdated",
      "type": "event"
    },
    {
      "anonymous": false,
      "inputs": [
        {
          "indexed": false,
          "internalType": "address",
          "name": "party0",
          "type": "address"
        },
        {
          "indexed": false,
          "internalType": "address",
          "name": "party1",
          "type": "address"
        },
        {
          "indexed": false,
          "internalType": "bytes32",
          "name": "dealId",
          "type": "bytes32"
        }
      ],
      "name": "DealAddedToLiquidationQueue",
      "type": "event"
    },
    {
      "anonymous": false,
      "inputs": [
        {
          "indexed": false,
          "internalType": "address",
          "name": "party0",
          "type": "address"
        },
        {
          "indexed": false,
          "internalType": "address",
          "name": "party1",
          "type": "address"
        },
        {
          "indexed": false,
          "internalType": "bytes32",
          "name": "dealId",
          "type": "bytes32"
        }
      ],
      "name": "DealRemovedFromLiquidationQueue",
      "type": "event"
    },
    {
      "anonymous": false,
      "inputs": [
        {
          "indexed": false,
          "internalType": "uint8",
          "name": "version",
          "type": "uint8"
        }
      ],
      "name": "Initialized",
      "type": "event"
    },
    {
      "anonymous": false,
      "inputs": [
        {
          "indexed": true,
          "internalType": "address",
          "name": "liquidationAgent",
          "type": "address"
        }
      ],
      "name": "LiquidationAgentAdded",
      "type": "event"
    },
    {
      "anonymous": false,
      "inputs": [
        {
          "indexed": true,
          "internalType": "address",
          "name": "liquidationAgent",
          "type": "address"
        }
      ],
      "name": "LiquidationAgentRemoved",
      "type": "event"
    },
    {
      "anonymous": false,
      "inputs": [
        {
          "indexed": false,
          "internalType": "uint256",
          "name": "oldOffset",
          "type": "uint256"
        },
        {
          "indexed": false,
          "internalType": "uint256",
          "name": "newOffset",
          "type": "uint256"
        }
      ],
      "name": "OffsetUpdated",
      "type": "event"
    },
    {
      "anonymous": false,
      "inputs": [
        {
          "indexed": true,
          "internalType": "address",
          "name": "previousOwner",
          "type": "address"
        },
        {
          "indexed": true,
          "internalType": "address",
          "name": "newOwner",
          "type": "address"
        }
      ],
      "name": "OwnershipTransferred",
      "type": "event"
    },
    {
      "inputs": [],
      "name": "acceptedContracts",
      "outputs": [
        {
          "internalType": "bytes32[]",
          "name": "contracts",
          "type": "bytes32[]"
        }
      ],
      "stateMutability": "pure",
      "type": "function"
    },
    {
      "inputs": [
        {
          "internalType": "address",
          "name": "party0",
          "type": "address"
        },
        {
          "internalType": "address",
          "name": "party1",
          "type": "address"
        },
        {
          "internalType": "bytes32",
          "name": "dealId",
          "type": "bytes32"
        }
      ],
      "name": "addDealToLiquidationQueue",
      "outputs": [],
      "stateMutability": "nonpayable",
      "type": "function"
    },
    {
      "inputs": [
        {
          "internalType": "address",
          "name": "_liquidationAgent",
          "type": "address"
        }
      ],
      "name": "addLiquidationAgent",
      "outputs": [],
      "stateMutability": "nonpayable",
      "type": "function"
    },
    {
      "inputs": [],
      "name": "buildCache",
      "outputs": [],
      "stateMutability": "nonpayable",
      "type": "function"
    },
    {
      "inputs": [],
      "name": "getOffset",
      "outputs": [
        {
          "internalType": "uint256",
          "name": "",
          "type": "uint256"
        }
      ],
      "stateMutability": "view",
      "type": "function"
    },
    {
      "inputs": [
        {
          "internalType": "address",
          "name": "owner",
          "type": "address"
        },
        {
          "internalType": "address",
          "name": "resolver",
          "type": "address"
        },
        {
          "internalType": "uint256",
          "name": "offset",
          "type": "uint256"
        }
      ],
      "name": "initialize",
      "outputs": [],
      "stateMutability": "nonpayable",
      "type": "function"
    },
    {
      "inputs": [],
      "name": "isResolverCached",
      "outputs": [
        {
          "internalType": "bool",
          "name": "",
          "type": "bool"
        }
      ],
      "stateMutability": "view",
      "type": "function"
    },
    {
      "inputs": [
        {
          "internalType": "address",
          "name": "party0",
          "type": "address"
        },
        {
          "internalType": "address",
          "name": "party1",
          "type": "address"
        },
        {
          "internalType": "bytes32[]",
          "name": "dealIds",
          "type": "bytes32[]"
        }
      ],
      "name": "liquidateDeals",
      "outputs": [],
      "stateMutability": "nonpayable",
      "type": "function"
    },
    {
      "inputs": [
        {
          "internalType": "address",
          "name": "party0",
          "type": "address"
        },
        {
          "internalType": "address",
          "name": "party1",
          "type": "address"
        }
      ],
      "name": "liquidateDeals",
      "outputs": [],
      "stateMutability": "nonpayable",
      "type": "function"
    },
    {
      "inputs": [],
      "name": "owner",
      "outputs": [
        {
          "internalType": "address",
          "name": "",
          "type": "address"
        }
      ],
      "stateMutability": "view",
      "type": "function"
    },
    {
      "inputs": [
        {
          "internalType": "address",
          "name": "party0",
          "type": "address"
        },
        {
          "internalType": "address",
          "name": "party1",
          "type": "address"
        },
        {
          "internalType": "bytes32",
          "name": "dealId",
          "type": "bytes32"
        }
      ],
      "name": "removeDealFromLiquidationQueue",
      "outputs": [],
      "stateMutability": "nonpayable",
      "type": "function"
    },
    {
      "inputs": [
        {
          "internalType": "address",
          "name": "_liquidationAgent",
          "type": "address"
        }
      ],
      "name": "removeLiquidationAgent",
      "outputs": [],
      "stateMutability": "nonpayable",
      "type": "function"
    },
    {
      "inputs": [],
      "name": "renounceOwnership",
      "outputs": [],
      "stateMutability": "nonpayable",
      "type": "function"
    },
    {
      "inputs": [],
      "name": "requiredContracts",
      "outputs": [
        {
          "internalType": "bytes32[]",
          "name": "contracts",
          "type": "bytes32[]"
        }
      ],
      "stateMutability": "pure",
      "type": "function"
    },
    {
      "inputs": [],
      "name": "resolver",
      "outputs": [
        {
          "internalType": "contract IAddressResolver",
          "name": "",
          "type": "address"
        }
      ],
      "stateMutability": "view",
      "type": "function"
    },
    {
      "inputs": [
        {
          "internalType": "address",
          "name": "newOwner",
          "type": "address"
        }
      ],
      "name": "transferOwnership",
      "outputs": [],
      "stateMutability": "nonpayable",
      "type": "function"
    },
    {
      "inputs": [
        {
          "internalType": "uint256",
          "name": "_offset",
          "type": "uint256"
        }
      ],
      "name": "updateLiquidationOffset",
      "outputs": [],
      "stateMutability": "nonpayable",
      "type": "function"
    }
  ],
  "transactionHash": "0x4203c980bc67f20ab1cb6f9ecd9297d4ccc241f638b450c03d2a0b10a09cbace",
  "args": [],
  "numDeployments": 1,
  "solcInputHash": "0fd5a5d025de86963d36bd38be3b6dce",
  "bytecode": "0x608060405234801561001057600080fd5b5061207e806100206000396000f3fe608060405234801561001057600080fd5b506004361061010b5760003560e01c806378b2479a116100a2578063beedefc911610071578063beedefc9146101f9578063c2f3bd4a1461020c578063e09976591461021f578063eb6ad24e14610226578063f2fde38b1461024457600080fd5b806378b2479a146101b85780638da5cb5b146101cb5780639810923f146101d3578063b884582c146101e657600080fd5b8063399f8563116100de578063399f8563146101755780633d03b9da1461018857806365f0847a1461019d578063715018a6146101b057600080fd5b806304f3bcec146101105780631794bb3c1461014057806329985e5a146101555780632af64bd31461015d575b600080fd5b600054610123906001600160a01b031681565b6040516001600160a01b0390911681526020015b60405180910390f35b61015361014e366004611b4d565b610257565b005b610153610379565b61016561050c565b6040519015158152602001610137565b610153610183366004611b8e565b61062a565b6101906106a9565b6040516101379190611bb2565b6101536101ab366004611c0c565b610773565b6101536108d8565b6101536101c6366004611cf1565b610913565b6101236109df565b6101536101e1366004611b8e565b610a12565b6101536101f4366004611b4d565b610aa3565b610153610207366004611b4d565b610bc6565b61015361021a366004611d0a565b610cdf565b6060610190565b60008051602061202983398151915254604051908152602001610137565b610153610252366004611b8e565b610f00565b60006102636001610fa0565b9050801561027b576002805461ff0019166101001790555b600061028561102f565b6001600160a01b031614156102ec5760405162461bcd60e51b815260206004820152602260248201527f4d7573742062652063616c6c65642066726f6d2070726f787920636f6e74726160448201526118dd60f21b60648201526084015b60405180910390fd5b6102f584611057565b6102fe836110c8565b61031b846000805160206120298339815191525b60010190611143565b5081600080516020612029833981519152558015610373576002805461ff0019169055604051600181527f7f26b83ff96e1f2b6a682f133852f6798a09c465da95921460cefb38474024989060200160405180910390a15b50505050565b60006103836106a9565b905060005b81518110156105085760008282815181106103a5576103a5611d43565b6020026020010151905060008060009054906101000a90046001600160a01b03166001600160a01b0316636795dbcd838460405160200161041291907f5265736f6c766572206d697373696e67207461726765743a20000000000000008152601981019190915260390190565b6040516020818303038152906040526040518363ffffffff1660e01b815260040161043e929190611da6565b60206040518083038186803b15801561045657600080fd5b505afa15801561046a573d6000803e3d6000fd5b505050506040513d601f19601f8201168201806040525081019061048e9190611dc7565b60008381526001602090815260409182902080546001600160a01b0319166001600160a01b0385169081179091558251868152918201529192507f88a93678a3692f6789d9546fc621bf7234b101ddb7d4fe479455112831b8aa68910160405180910390a15050808061050090611dfa565b915050610388565b5050565b6000806105176106a9565b905060005b815181101561062157600082828151811061053957610539611d43565b60209081029190910181015160008181526001909252604080832054925490516321f8a72160e01b8152600481018390529193506001600160a01b039283169216906321f8a7219060240160206040518083038186803b15801561059c57600080fd5b505afa1580156105b0573d6000803e3d6000fd5b505050506040513d601f19601f820116820180604052508101906105d49190611dc7565b6001600160a01b03161415806105ff57506000818152600160205260409020546001600160a01b0316155b1561060e576000935050505090565b508061061981611dfa565b91505061051c565b50600191505090565b336106336109df565b6001600160a01b0316146106595760405162461bcd60e51b81526004016102e390611e15565b61067181600080516020612029833981519152610312565b506040516001600160a01b038216907fca54a159f8acb315394931246b8790a2785d67772bd1314afd4a67a9d26b39d390600090a250565b604080516003808252608082019092526060916020820183803683370190505090507321b7b63630ba32b930b620b3b3b932b3b0ba37b960611b816000815181106106f6576106f6611d43565b6020026020010181815250507121bab93932b731bca1b7b73a3937b63632b960711b8160018151811061072b5761072b611d43565b60200260200101818152505075283937b23ab1ba20b2323932b9b9a932b9b7b63b32b960511b8160028151811061076457610764611d43565b60200260200101818152505090565b610790336000805160206120298339815191525b60010190611161565b6107cd5760405162461bcd60e51b815260206004820152600e60248201526d494e56414c49442041434345535360901b60448201526064016102e3565b6000805160206120298339815191525481511061081d5760405162461bcd60e51b815260206004820152600e60248201526d544f4f204d554348204445414c5360901b60448201526064016102e3565b600080610828611183565b6001600160a01b031663ef75abb6868660008060006040518663ffffffff1660e01b815260040161085d959493929190611e4a565b604080518083038186803b15801561087457600080fd5b505afa158015610888573d6000803e3d6000fd5b505050506040513d601f19601f820116820180604052508101906108ac9190611e92565b915091508180156108ba5750805b156108c6575050505050565b6108d18585856111aa565b5050505050565b336108e16109df565b6001600160a01b0316146109075760405162461bcd60e51b81526004016102e390611e15565b6109116000611057565b565b3361091c6109df565b6001600160a01b0316146109425760405162461bcd60e51b81526004016102e390611e15565b600081116109855760405162461bcd60e51b815260206004820152601060248201526f125390d3d4949150d517d3d19194d15560821b60448201526064016102e3565b7f8ad4d4498263127d0966701929acd0fd4ef45595df9d67db529a43b46972689d6000805160206120298339815191525460408051918252602082018490520160405180910390a160008051602061202983398151915255565b60007f9acda75aebd150dd434541a4747a6dc606f4f1a59662477e67daf1fc0bf9e0aa5b546001600160a01b0316919050565b33610a1b6109df565b6001600160a01b031614610a415760405162461bcd60e51b81526004016102e390611e15565b610a6b7f9c7027782242f494db9a6258f94a84c3972e611dd1ab76516c3aaa23debf8c7c8261163d565b506040516001600160a01b038216907f7e6c9f428aa5d9a1fdd152042fce5dd28d8ea524649e8a9b3066dd75ebe1a02490600090a250565b610aac33611652565b610af25760405162461bcd60e51b81526020600482015260176024820152764f6e6c7920416363657074656420436f6e74726163747360481b60448201526064016102e3565b6000610afe84846116e6565b5060008181527f9c7027782242f494db9a6258f94a84c3972e611dd1ab76516c3aaa23debf8c8060205260409020909150610b398184611856565b610b795760405162461bcd60e51b81526020600482015260116024820152701393d38811561254d5125391c811115053607a1b60448201526064016102e3565b610b83818461186e565b507fb60fc83c73a71a738ac8cef1dbf0b5768fac994a68026b338b027f1bd233db87858585604051610bb793929190611ec5565b60405180910390a15050505050565b610bcf33611652565b610c155760405162461bcd60e51b81526020600482015260176024820152764f6e6c7920416363657074656420436f6e74726163747360481b60448201526064016102e3565b6000610c2184846116e6565b5060008181527f9c7027782242f494db9a6258f94a84c3972e611dd1ab76516c3aaa23debf8c8060205260409020909150610c5c8184611856565b15610ca15760405162461bcd60e51b8152602060048201526015602482015274105314915051164811561254d5125391c811115053605a1b60448201526064016102e3565b610cab818461187a565b507fb3f8c6466290eeb06c660ababdfebef06a9061c94f7a0aa42bcad0d91887aa60858585604051610bb793929190611ec5565b610cf733600080516020612029833981519152610787565b610d345760405162461bcd60e51b815260206004820152600e60248201526d494e56414c49442041434345535360901b60448201526064016102e3565b600080610d3f611183565b6001600160a01b031663ef75abb6858560008060006040518663ffffffff1660e01b8152600401610d74959493929190611e4a565b604080518083038186803b158015610d8b57600080fd5b505afa158015610d9f573d6000803e3d6000fd5b505050506040513d601f19601f82011682018060405250810190610dc39190611e92565b91509150818015610dd15750805b15610ddc5750505050565b6000610de885856116e6565b5060008181527f9c7027782242f494db9a6258f94a84c3972e611dd1ab76516c3aaa23debf8c8060205260408120919250610e2282611886565b90506000600080516020612029833981519152548211610e4457508080610e57565b5060008051602061202983398151915254805b5060008167ffffffffffffffff811115610e7357610e73611bf6565b604051908082528060200260200182016040528015610e9c578160200160208202803683370190505b50905060005b82811015610ee9576000610eb68683611890565b905080838381518110610ecb57610ecb611d43565b60209081029190910101525080610ee181611dfa565b915050610ea2565b50610ef58989836111aa565b505050505050505050565b33610f096109df565b6001600160a01b031614610f2f5760405162461bcd60e51b81526004016102e390611e15565b6001600160a01b038116610f945760405162461bcd60e51b815260206004820152602660248201527f4f776e61626c653a206e6577206f776e657220697320746865207a65726f206160448201526564647265737360d01b60648201526084016102e3565b610f9d81611057565b50565b600254600090610100900460ff1615610fe9578160ff166001148015610fc55750303b155b610fe15760405162461bcd60e51b81526004016102e390611ee9565b506000919050565b60025460ff8084169116106110105760405162461bcd60e51b81526004016102e390611ee9565b506002805460ff191660ff92909216919091179055600190565b919050565b60007f360894a13ba1a3210667c828492db98dca3e2076cc3735a920a3ca505d382bbc610a03565b7f9acda75aebd150dd434541a4747a6dc606f4f1a59662477e67daf1fc0bf9e0aa80546001600160a01b038381166001600160a01b0319831681179093556040519116919082907f8be0079c531659141344cd1fd0a4f28419497f9722a3daafe3b4186f6b6457e090600090a35050565b6000546001600160a01b0316156111215760405162461bcd60e51b815260206004820152601b60248201527f7265736f6c766572207265676973746572656420616c7265616479000000000060448201526064016102e3565b600080546001600160a01b0319166001600160a01b0392909216919091179055565b6000611158836001600160a01b03841661189c565b90505b92915050565b6001600160a01b03811660009081526001830160205260408120541515611158565b60006111a57321b7b63630ba32b930b620b3b3b932b3b0ba37b960611b6118eb565b905090565b6040805161010081018252600080825260208201819052918101829052606081018290526080810182905260a0810182905260c0810182905260e08101829052905b82518110156115475782818151811061120757611207611d43565b6020908102919091010151825261121c611967565b8251604051634d86283f60e01b81526001600160a01b039290921691634d86283f9161124e9160040190815260200190565b60206040518083038186803b15801561126657600080fd5b505afa15801561127a573d6000803e3d6000fd5b505050506040513d601f19601f8201168201806040525081019061129e9190611dc7565b6001600160a01b031660e08301819052825160405163b0c1865160e01b815263b0c18651916112d39160040190815260200190565b60206040518083038186803b1580156112eb57600080fd5b505afa1580156112ff573d6000803e3d6000fd5b505050506040513d601f19601f820116820180604052508101906113239190611f37565b60c083015260e082015182516040516332757d4160e01b81526001600160a01b03909216916332757d419161135e9189918991600401611ec5565b604080518083038186803b15801561137557600080fd5b505afa158015611389573d6000803e3d6000fd5b505050506040513d601f19601f820116820180604052508101906113ad9190611f50565b604084015260208301526113bf61198b565b6001600160a01b0316631743ffce8360c001516040518263ffffffff1660e01b81526004016113f091815260200190565b60206040518083038186803b15801561140857600080fd5b505afa15801561141c573d6000803e3d6000fd5b505050506040513d601f19601f820116820180604052508101906114409190611f37565b60a083018190526020830151670de0b6b3a76400009161145f91611f74565b6114699190611f93565b602083015260a08201516040830151670de0b6b3a76400009161148b91611f74565b6114959190611f93565b6040830152602082015160608301516114ae9190611fb5565b6060830152604082015160808301516114c79190611fb5565b608083015260e0820151825160405163053884b760e11b81526001600160a01b0390921691630a71096e916115029160040190815260200190565b600060405180830381600087803b15801561151c57600080fd5b505af1158015611530573d6000803e3d6000fd5b50505050808061153f90611dfa565b9150506111ec565b506060810151156115c05761155a611183565b6001600160a01b03166326c01303858584606001516040518463ffffffff1660e01b815260040161158d93929190611ec5565b600060405180830381600087803b1580156115a757600080fd5b505af11580156115bb573d6000803e3d6000fd5b505050505b608081015115610373576115d2611183565b6001600160a01b03166326c01303848684608001516040518463ffffffff1660e01b815260040161160593929190611ec5565b600060405180830381600087803b15801561161f57600080fd5b505af1158015611633573d6000803e3d6000fd5b5050505050505050565b6000611158836001600160a01b0384166119ab565b600061165c611967565b60405163a3d52aad60e01b81526001600160a01b038481166004830152919091169063a3d52aad9060240160206040518083038186803b15801561169f57600080fd5b505afa1580156116b3573d6000803e3d6000fd5b505050506040513d601f19601f820116820180604052508101906116d79190611fcd565b8061115b575061115b82611a9e565b600080826001600160a01b0316846001600160a01b031614156117415760405162461bcd60e51b81526020600482015260136024820152724964656e746963616c2061646472657373657360681b60448201526064016102e3565b600080846001600160a01b0316866001600160a01b031610611764578486611767565b85855b90925090506001600160a01b0382166117b45760405162461bcd60e51b815260206004820152600f60248201526e496e76616c6964206164647265737360881b60448201526064016102e3565b856001600160a01b0316826001600160a01b03161461181057604080516001600160a01b03808516602083015283169181019190915260600160405160208183030381529060405280519060200120600193509350505061184f565b604080516001600160a01b0380851660208301528316918101919091526060016040516020818303038152906040528051906020012060009350935050505b9250929050565b60008181526001830160205260408120541515611158565b600061115883836119ab565b6000611158838361189c565b600061115b825490565b60006111588383611b0e565b60008181526001830160205260408120546118e35750815460018181018455600084815260208082209093018490558454848252828601909352604090209190915561115b565b50600061115b565b600081815260016020908152604080832054905170026b4b9b9b4b7339030b2323932b9b99d1607d1b92810192909252603182018490526001600160a01b03169081151590605101604051602081830303815290604052906119605760405162461bcd60e51b81526004016102e39190611fe8565b5092915050565b60006111a575283937b23ab1ba20b2323932b9b9a932b9b7b63b32b960511b6118eb565b60006111a57121bab93932b731bca1b7b73a3937b63632b960711b6118eb565b60008181526001830160205260408120548015611a945760006119cf600183611ffb565b85549091506000906119e390600190611ffb565b9050818114611a48576000866000018281548110611a0357611a03611d43565b9060005260206000200154905080876000018481548110611a2657611a26611d43565b6000918252602080832090910192909255918252600188019052604090208390555b8554869080611a5957611a59612012565b60019003818190600052602060002001600090559055856001016000868152602001908152602001600020600090556001935050505061115b565b600091505061115b565b60006060815b8151811015611b0457611acf828281518110611ac257611ac2611d43565b60200260200101516118eb565b6001600160a01b0316846001600160a01b03161415611af2575060019392505050565b80611afc81611dfa565b915050611aa4565b5060009392505050565b6000826000018281548110611b2557611b25611d43565b9060005260206000200154905092915050565b6001600160a01b0381168114610f9d57600080fd5b600080600060608486031215611b6257600080fd5b8335611b6d81611b38565b92506020840135611b7d81611b38565b929592945050506040919091013590565b600060208284031215611ba057600080fd5b8135611bab81611b38565b9392505050565b6020808252825182820181905260009190848201906040850190845b81811015611bea57835183529284019291840191600101611bce565b50909695505050505050565b634e487b7160e01b600052604160045260246000fd5b600080600060608486031215611c2157600080fd5b8335611c2c81611b38565b9250602084810135611c3d81611b38565b9250604085013567ffffffffffffffff80821115611c5a57600080fd5b818701915087601f830112611c6e57600080fd5b813581811115611c8057611c80611bf6565b8060051b604051601f19603f83011681018181108582111715611ca557611ca5611bf6565b60405291825284820192508381018501918a831115611cc357600080fd5b938501935b82851015611ce157843584529385019392850192611cc8565b8096505050505050509250925092565b600060208284031215611d0357600080fd5b5035919050565b60008060408385031215611d1d57600080fd5b8235611d2881611b38565b91506020830135611d3881611b38565b809150509250929050565b634e487b7160e01b600052603260045260246000fd5b6000815180845260005b81811015611d7f57602081850181015186830182015201611d63565b81811115611d91576000602083870101525b50601f01601f19169290920160200192915050565b828152604060208201526000611dbf6040830184611d59565b949350505050565b600060208284031215611dd957600080fd5b8151611bab81611b38565b634e487b7160e01b600052601160045260246000fd5b6000600019821415611e0e57611e0e611de4565b5060010190565b6020808252818101527f4f776e61626c653a2063616c6c6572206973206e6f7420746865206f776e6572604082015260600190565b6001600160a01b039586168152939094166020840152600060408401526060830191909152608082015290151560a082015260c00190565b8051801515811461102a57600080fd5b60008060408385031215611ea557600080fd5b611eae83611e82565b9150611ebc60208401611e82565b90509250929050565b6001600160a01b039384168152919092166020820152604081019190915260600190565b6020808252602e908201527f496e697469616c697a61626c653a20636f6e747261637420697320616c72656160408201526d191e481a5b9a5d1a585b1a5e995960921b606082015260800190565b600060208284031215611f4957600080fd5b5051919050565b60008060408385031215611f6357600080fd5b505080516020909101519092909150565b6000816000190483118215151615611f8e57611f8e611de4565b500290565b600082611fb057634e487b7160e01b600052601260045260246000fd5b500490565b60008219821115611fc857611fc8611de4565b500190565b600060208284031215611fdf57600080fd5b61115882611e82565b6020815260006111586020830184611d59565b60008282101561200d5761200d611de4565b500390565b634e487b7160e01b600052603160045260246000fdfe9c7027782242f494db9a6258f94a84c3972e611dd1ab76516c3aaa23debf8c7ba264697066735822122010f9258097703cf9f37f3e346496ac2e07eea7169174892acb3dd7532d38d68964736f6c63430008090033",
  "devdoc": {
    "kind": "dev",
    "methods": {
      "acceptedContracts()": {
        "details": "Returns contract names that can call this contract."
      },
      "addLiquidationAgent(address)": {
        "details": "Adds liquidation agent address into the set.",
        "params": {
          "_liquidationAgent": "Liquidation agent address"
        }
      },
      "getOffset()": {
        "details": "Triggers to get liquidation offset."
      },
      "initialize(address,address,uint256)": {
        "details": "Function is invoked by the proxy contract when the contract is added to the ProxyController"
      },
      "liquidateDeals(address,address)": {
        "details": "Triggers to liquidate multiple deals according to the liquidation queue",
        "params": {
          "party0": "First counterparty address",
          "party1": "Second counterparty address"
        }
      },
      "liquidateDeals(address,address,bytes32[])": {
        "details": "Triggers to liquidate multiple deals with specific `_dealIds`.",
        "params": {
          "dealIds": "Array of Deal ID to liquidate",
          "party0": "First counterparty address",
          "party1": "Second counterparty address"
        }
      },
      "owner()": {
        "details": "Returns the address of the current owner."
      },
      "removeLiquidationAgent(address)": {
        "details": "Removes liquidation agent address from the set.",
        "params": {
          "_liquidationAgent": "Liquidation agent address"
        }
      },
      "renounceOwnership()": {
        "details": "Leaves the contract without owner. It will not be possible to call `onlyOwner` functions anymore. Can only be called by the current owner. NOTE: Renouncing ownership will leave the contract without an owner, thereby removing any functionality that is only available to the owner."
      },
      "requiredContracts()": {
        "details": "Returns required contract names in this contract"
      },
      "transferOwnership(address)": {
        "details": "Transfers ownership of the contract to a new account (`newOwner`). Can only be called by the current owner."
      },
      "updateLiquidationOffset(uint256)": {
        "details": "Updates offset for maximum number of deals liquidated per one execution.",
        "params": {
          "_offset": "New liquidation offset"
        }
      }
    },
    "version": 1
  },
  "userdoc": {
    "kind": "user",
    "methods": {
      "initialize(address,address,uint256)": {
        "notice": "Initializes the contract."
      }
    },
    "version": 1
  },
  "storageLayout": {
    "storage": [
      {
        "astId": 35566,
        "contract": "contracts/Liquidations.sol:Liquidations",
        "label": "resolver",
        "offset": 0,
        "slot": "0",
        "type": "t_contract(IAddressResolver)23128"
      },
      {
        "astId": 35570,
        "contract": "contracts/Liquidations.sol:Liquidations",
        "label": "addressCache",
        "offset": 0,
        "slot": "1",
        "type": "t_mapping(t_bytes32,t_address)"
      },
      {
        "astId": 2833,
        "contract": "contracts/Liquidations.sol:Liquidations",
        "label": "_initialized",
        "offset": 0,
        "slot": "2",
        "type": "t_uint8"
      },
      {
        "astId": 2836,
        "contract": "contracts/Liquidations.sol:Liquidations",
        "label": "_initializing",
        "offset": 1,
        "slot": "2",
        "type": "t_bool"
      }
    ],
    "types": {
      "t_address": {
        "encoding": "inplace",
        "label": "address",
        "numberOfBytes": "20"
      },
      "t_bool": {
        "encoding": "inplace",
        "label": "bool",
        "numberOfBytes": "1"
      },
      "t_bytes32": {
        "encoding": "inplace",
        "label": "bytes32",
        "numberOfBytes": "32"
      },
      "t_contract(IAddressResolver)23128": {
        "encoding": "inplace",
        "label": "contract IAddressResolver",
        "numberOfBytes": "20"
      },
      "t_mapping(t_bytes32,t_address)": {
        "encoding": "mapping",
        "key": "t_bytes32",
        "label": "mapping(bytes32 => address)",
        "numberOfBytes": "32",
        "value": "t_address"
      },
      "t_uint8": {
        "encoding": "inplace",
        "label": "uint8",
        "numberOfBytes": "1"
      }
    }
  }
}