{
  "address": "0x2b3C6cA54AfaA13732dd524E03f37fD217db81C0",
  "abi": [
    {
      "anonymous": false,
      "inputs": [
        {
          "indexed": false,
          "internalType": "bytes32",
          "name": "name",
          "type": "bytes32"
        },
        {
          "indexed": false,
          "internalType": "address",
          "name": "destination",
          "type": "address"
        }
      ],
      "name": "CacheUpdated",
      "type": "event"
    },
    {
      "anonymous": false,
      "inputs": [
        {
          "indexed": false,
          "internalType": "bytes32",
          "name": "dealId",
          "type": "bytes32"
        },
        {
          "indexed": true,
          "internalType": "address",
          "name": "acceptedBy",
          "type": "address"
        },
        {
          "indexed": false,
          "internalType": "uint256",
          "name": "payment",
          "type": "uint256"
        }
      ],
      "name": "EarlyTermination",
      "type": "event"
    },
    {
      "anonymous": false,
      "inputs": [
        {
          "indexed": false,
          "internalType": "uint8",
          "name": "version",
          "type": "uint8"
        }
      ],
      "name": "Initialized",
      "type": "event"
    },
    {
      "anonymous": false,
      "inputs": [
        {
          "indexed": false,
          "internalType": "bytes32",
          "name": "dealId",
          "type": "bytes32"
        }
      ],
      "name": "Liquidate",
      "type": "event"
    },
    {
      "anonymous": false,
      "inputs": [
        {
          "indexed": false,
          "internalType": "bytes32",
          "name": "dealId",
          "type": "bytes32"
        },
        {
          "indexed": false,
          "internalType": "uint256",
          "name": "prevPV",
          "type": "uint256"
        },
        {
          "indexed": false,
          "internalType": "uint256",
          "name": "currPV",
          "type": "uint256"
        }
      ],
      "name": "MarkToMarket",
      "type": "event"
    },
    {
      "anonymous": false,
      "inputs": [
        {
          "indexed": true,
          "internalType": "bytes32",
          "name": "dealId",
          "type": "bytes32"
        },
        {
          "indexed": false,
          "internalType": "address",
          "name": "currLender",
          "type": "address"
        }
      ],
      "name": "Novation",
      "type": "event"
    },
    {
      "anonymous": false,
      "inputs": [
        {
          "indexed": true,
          "internalType": "address",
          "name": "previousOwner",
          "type": "address"
        },
        {
          "indexed": true,
          "internalType": "address",
          "name": "newOwner",
          "type": "address"
        }
      ],
      "name": "OwnershipTransferred",
      "type": "event"
    },
    {
      "anonymous": false,
      "inputs": [
        {
          "indexed": true,
          "internalType": "address",
          "name": "lender",
          "type": "address"
        },
        {
          "indexed": true,
          "internalType": "address",
          "name": "borrower",
          "type": "address"
        },
        {
          "indexed": false,
          "internalType": "bytes32",
          "name": "ccy",
          "type": "bytes32"
        },
        {
          "indexed": false,
          "internalType": "uint256",
          "name": "term",
          "type": "uint256"
        },
        {
          "indexed": false,
          "internalType": "uint256",
          "name": "notional",
          "type": "uint256"
        },
        {
          "indexed": false,
          "internalType": "uint256",
          "name": "rate",
          "type": "uint256"
        },
        {
          "indexed": true,
          "internalType": "bytes32",
          "name": "dealId",
          "type": "bytes32"
        }
      ],
      "name": "Register",
      "type": "event"
    },
    {
      "anonymous": false,
      "inputs": [
        {
          "indexed": false,
          "internalType": "bytes32",
          "name": "dealId",
          "type": "bytes32"
        },
        {
          "indexed": true,
          "internalType": "address",
          "name": "rejectedBy",
          "type": "address"
        }
      ],
      "name": "RejectTermination",
      "type": "event"
    },
    {
      "anonymous": false,
      "inputs": [
        {
          "indexed": false,
          "internalType": "bytes32",
          "name": "dealId",
          "type": "bytes32"
        },
        {
          "indexed": true,
          "internalType": "address",
          "name": "requestedBy",
          "type": "address"
        }
      ],
      "name": "RequestTermination",
      "type": "event"
    },
    {
      "inputs": [
        {
          "internalType": "bytes32",
          "name": "loanId",
          "type": "bytes32"
        }
      ],
      "name": "acceptTermination",
      "outputs": [],
      "stateMutability": "nonpayable",
      "type": "function"
    },
    {
      "inputs": [],
      "name": "acceptedContracts",
      "outputs": [
        {
          "internalType": "bytes32[]",
          "name": "contracts",
          "type": "bytes32[]"
        }
      ],
      "stateMutability": "pure",
      "type": "function"
    },
    {
      "inputs": [
        {
          "internalType": "bytes32",
          "name": "_ccy",
          "type": "bytes32"
        },
        {
          "internalType": "uint256",
          "name": "_term",
          "type": "uint256"
        },
        {
          "internalType": "address",
          "name": "addr",
          "type": "address"
        }
      ],
      "name": "addLendingMarket",
      "outputs": [],
      "stateMutability": "nonpayable",
      "type": "function"
    },
    {
      "inputs": [],
      "name": "buildCache",
      "outputs": [],
      "stateMutability": "nonpayable",
      "type": "function"
    },
    {
      "inputs": [
        {
          "internalType": "bytes32",
          "name": "loanId",
          "type": "bytes32"
        }
      ],
      "name": "getDealCurrency",
      "outputs": [
        {
          "internalType": "bytes32",
          "name": "",
          "type": "bytes32"
        }
      ],
      "stateMutability": "view",
      "type": "function"
    },
    {
      "inputs": [
        {
          "internalType": "address",
          "name": "party0",
          "type": "address"
        },
        {
          "internalType": "address",
          "name": "party1",
          "type": "address"
        },
        {
          "internalType": "bytes32",
          "name": "loanId",
          "type": "bytes32"
        }
      ],
      "name": "getDealLastPV",
      "outputs": [
        {
          "internalType": "uint256",
          "name": "",
          "type": "uint256"
        },
        {
          "internalType": "uint256",
          "name": "",
          "type": "uint256"
        }
      ],
      "stateMutability": "view",
      "type": "function"
    },
    {
      "inputs": [
        {
          "internalType": "bytes32",
          "name": "loanId",
          "type": "bytes32"
        }
      ],
      "name": "getDealPV",
      "outputs": [
        {
          "internalType": "uint256",
          "name": "pv",
          "type": "uint256"
        }
      ],
      "stateMutability": "view",
      "type": "function"
    },
    {
      "inputs": [
        {
          "internalType": "bytes32",
          "name": "loanId",
          "type": "bytes32"
        }
      ],
      "name": "getDealSettlementStatus",
      "outputs": [
        {
          "internalType": "bool",
          "name": "",
          "type": "bool"
        }
      ],
      "stateMutability": "view",
      "type": "function"
    },
    {
      "inputs": [
        {
          "internalType": "bytes32",
          "name": "loanId",
          "type": "bytes32"
        }
      ],
      "name": "getLastSettledPayment",
      "outputs": [
        {
          "internalType": "uint256",
          "name": "settlementTime",
          "type": "uint256"
        }
      ],
      "stateMutability": "view",
      "type": "function"
    },
    {
      "inputs": [
        {
          "internalType": "bytes32",
          "name": "loanId",
          "type": "bytes32"
        }
      ],
      "name": "getLoanDeal",
      "outputs": [
        {
          "components": [
            {
              "internalType": "address",
              "name": "lender",
              "type": "address"
            },
            {
              "internalType": "address",
              "name": "borrower",
              "type": "address"
            },
            {
              "internalType": "bytes32",
              "name": "ccy",
              "type": "bytes32"
            },
            {
              "internalType": "uint256",
              "name": "term",
              "type": "uint256"
            },
            {
              "internalType": "uint256",
              "name": "notional",
              "type": "uint256"
            },
            {
              "internalType": "uint256",
              "name": "rate",
              "type": "uint256"
            },
            {
              "internalType": "uint256",
              "name": "start",
              "type": "uint256"
            },
            {
              "internalType": "uint256",
              "name": "end",
              "type": "uint256"
            },
            {
              "internalType": "uint256",
              "name": "pv",
              "type": "uint256"
            },
            {
              "internalType": "bytes32",
              "name": "startTxHash",
              "type": "bytes32"
            }
          ],
          "internalType": "struct LoanV2Storage.LoanDeal",
          "name": "",
          "type": "tuple"
        }
      ],
      "stateMutability": "view",
      "type": "function"
    },
    {
      "inputs": [
        {
          "internalType": "bytes32",
          "name": "loanId",
          "type": "bytes32"
        }
      ],
      "name": "getPaymentSchedule",
      "outputs": [
        {
          "internalType": "uint256[]",
          "name": "",
          "type": "uint256[]"
        },
        {
          "internalType": "uint256[]",
          "name": "",
          "type": "uint256[]"
        },
        {
          "internalType": "bool[]",
          "name": "",
          "type": "bool[]"
        }
      ],
      "stateMutability": "view",
      "type": "function"
    },
    {
      "inputs": [
        {
          "internalType": "bytes32",
          "name": "loanId",
          "type": "bytes32"
        }
      ],
      "name": "getTerminationState",
      "outputs": [
        {
          "components": [
            {
              "internalType": "address",
              "name": "terminationAsker",
              "type": "address"
            },
            {
              "internalType": "uint256",
              "name": "terminationDate",
              "type": "uint256"
            }
          ],
          "internalType": "struct LoanV2Storage.Termination",
          "name": "",
          "type": "tuple"
        }
      ],
      "stateMutability": "view",
      "type": "function"
    },
    {
      "inputs": [],
      "name": "getVersion",
      "outputs": [
        {
          "internalType": "uint16",
          "name": "",
          "type": "uint16"
        }
      ],
      "stateMutability": "pure",
      "type": "function"
    },
    {
      "inputs": [
        {
          "internalType": "address",
          "name": "owner",
          "type": "address"
        },
        {
          "internalType": "address",
          "name": "resolver",
          "type": "address"
        }
      ],
      "name": "initialize",
      "outputs": [],
      "stateMutability": "nonpayable",
      "type": "function"
    },
    {
      "inputs": [],
      "name": "isResolverCached",
      "outputs": [
        {
          "internalType": "bool",
          "name": "",
          "type": "bool"
        }
      ],
      "stateMutability": "view",
      "type": "function"
    },
    {
      "inputs": [],
      "name": "isTransferable",
      "outputs": [
        {
          "internalType": "bool",
          "name": "",
          "type": "bool"
        }
      ],
      "stateMutability": "view",
      "type": "function"
    },
    {
      "inputs": [],
      "name": "lastLoanId",
      "outputs": [
        {
          "internalType": "uint256",
          "name": "",
          "type": "uint256"
        }
      ],
      "stateMutability": "view",
      "type": "function"
    },
    {
      "inputs": [
        {
          "internalType": "bytes32",
          "name": "_ccy",
          "type": "bytes32"
        },
        {
          "internalType": "uint256",
          "name": "_term",
          "type": "uint256"
        }
      ],
      "name": "lendingMarkets",
      "outputs": [
        {
          "internalType": "address",
          "name": "",
          "type": "address"
        }
      ],
      "stateMutability": "view",
      "type": "function"
    },
    {
      "inputs": [
        {
          "internalType": "bytes32",
          "name": "loanId",
          "type": "bytes32"
        }
      ],
      "name": "liquidate",
      "outputs": [],
      "stateMutability": "nonpayable",
      "type": "function"
    },
    {
      "inputs": [
        {
          "internalType": "bytes32",
          "name": "loanId",
          "type": "bytes32"
        }
      ],
      "name": "markToMarket",
      "outputs": [
        {
          "internalType": "bool",
          "name": "",
          "type": "bool"
        }
      ],
      "stateMutability": "nonpayable",
      "type": "function"
    },
    {
      "inputs": [
        {
          "internalType": "bytes32",
          "name": "loanId",
          "type": "bytes32"
        },
        {
          "internalType": "address",
          "name": "newOwner",
          "type": "address"
        }
      ],
      "name": "novation",
      "outputs": [],
      "stateMutability": "nonpayable",
      "type": "function"
    },
    {
      "inputs": [],
      "name": "owner",
      "outputs": [
        {
          "internalType": "address",
          "name": "",
          "type": "address"
        }
      ],
      "stateMutability": "view",
      "type": "function"
    },
    {
      "inputs": [
        {
          "internalType": "address",
          "name": "maker",
          "type": "address"
        },
        {
          "internalType": "address",
          "name": "taker",
          "type": "address"
        },
        {
          "internalType": "uint8",
          "name": "side",
          "type": "uint8"
        },
        {
          "internalType": "bytes32",
          "name": "ccy",
          "type": "bytes32"
        },
        {
          "internalType": "uint256",
          "name": "term",
          "type": "uint256"
        },
        {
          "internalType": "uint256",
          "name": "notional",
          "type": "uint256"
        },
        {
          "internalType": "uint256",
          "name": "rate",
          "type": "uint256"
        }
      ],
      "name": "register",
      "outputs": [
        {
          "internalType": "bytes32",
          "name": "loanId",
          "type": "bytes32"
        }
      ],
      "stateMutability": "nonpayable",
      "type": "function"
    },
    {
      "inputs": [
        {
          "internalType": "bytes32",
          "name": "loanId",
          "type": "bytes32"
        }
      ],
      "name": "rejectTermination",
      "outputs": [],
      "stateMutability": "nonpayable",
      "type": "function"
    },
    {
      "inputs": [],
      "name": "renounceOwnership",
      "outputs": [],
      "stateMutability": "nonpayable",
      "type": "function"
    },
    {
      "inputs": [
        {
          "internalType": "bytes32",
          "name": "loanId",
          "type": "bytes32"
        }
      ],
      "name": "requestTermination",
      "outputs": [],
      "stateMutability": "nonpayable",
      "type": "function"
    },
    {
      "inputs": [],
      "name": "requiredContracts",
      "outputs": [
        {
          "internalType": "bytes32[]",
          "name": "contracts",
          "type": "bytes32[]"
        }
      ],
      "stateMutability": "pure",
      "type": "function"
    },
    {
      "inputs": [],
      "name": "resolver",
      "outputs": [
        {
          "internalType": "contract IAddressResolver",
          "name": "",
          "type": "address"
        }
      ],
      "stateMutability": "view",
      "type": "function"
    },
    {
      "inputs": [
        {
          "internalType": "bool",
          "name": "isAccepted",
          "type": "bool"
        }
      ],
      "name": "setIsTransferable",
      "outputs": [],
      "stateMutability": "nonpayable",
      "type": "function"
    },
    {
      "inputs": [
        {
          "internalType": "address",
          "name": "newOwner",
          "type": "address"
        }
      ],
      "name": "transferOwnership",
      "outputs": [],
      "stateMutability": "nonpayable",
      "type": "function"
    }
  ],
  "transactionHash": "0x77ea842f131ee22402fb141fd4d0b6cf7ab635b8933295d3506c011063ef8f1e",
  "args": [],
  "numDeployments": 1,
  "solcInputHash": "59521d43dda390ded85a5f23871f6cb8",
  "bytecode": "0x608060405234801561001057600080fd5b50613cd3806100206000396000f3fe608060405234801561001057600080fd5b50600436106101da5760003560e01c80637477d18b11610104578063c601153c116100a2578063dbb93d7b11610071578063dbb93d7b1461041b578063e09976591461042e578063f2fde38b14610435578063fdc634831461044857600080fd5b8063c601153c146103ab578063c673c674146103be578063d160e842146103d1578063d83beeea1461040857600080fd5b80639458ba49116100de5780639458ba49146103525780639ad9a691146103725780639e31afba14610385578063b0c186511461039857600080fd5b80637477d18b1461032457806385a96af8146103375780638da5cb5b1461034a57600080fd5b806329985e5a1161017c578063437a43b91161014b578063437a43b9146102df578063485cc9551461030157806368be92b414610314578063715018a61461031c57600080fd5b806329985e5a146102925780632af64bd31461029a57806332757d41146102a25780633d03b9da146102ca57600080fd5b80630a71096e116101b85780630a71096e146102455780630d8e6e2c1461025a578063114cc2ec146102695780632121dc751461028a57600080fd5b8063026019d8146101df57806304f3bcec14610207578063085b616e14610232575b600080fd5b6101f26101ed3660046134a7565b61045b565b60405190151581526020015b60405180910390f35b60005461021a906001600160a01b031681565b6040516001600160a01b0390911681526020016101fe565b61021a6102403660046134c0565b61047c565b6102586102533660046134a7565b6104b6565b005b604051600181526020016101fe565b61027c6102773660046134f7565b6104c2565b6040519081526020016101fe565b6101f261086e565b610258610884565b6101f2610a17565b6102b56102b036600461356b565b610b35565b604080519283526020830191909152016101fe565b6102d2610c88565b6040516101fe91906135ac565b6102f26102ed3660046134a7565b610d83565b6040516101fe9392919061362b565b61025861030f366004613696565b610e3b565b61027c610f44565b610258610f57565b6102586103323660046134a7565b610f92565b6102586103453660046136dd565b6113c1565b61021a61140e565b6103656103603660046134a7565b611441565b6040516101fe91906136fa565b6101f26103803660046134a7565b6114e5565b610258610393366004613781565b611540565b61027c6103a63660046134a7565b611632565b61027c6103b93660046134a7565b611653565b61027c6103cc3660046134a7565b61192b565b6103e46103df3660046134a7565b611bd0565b6040805182516001600160a01b0316815260209283015192810192909252016101fe565b6102586104163660046134a7565b611c20565b6102586104293660046137ba565b611dac565b60606102d2565b6102586104433660046137df565b61212c565b6102586104563660046134a7565b6121c9565b60006104656123da565b600092835260030160205250604090205460ff1690565b60006104866123da565b6000848152600691909101602090815260408083208584529091529020546001600160a01b031690505b92915050565b6104bf816123fe565b50565b60008484336104cf6123da565b6000848152600691909101602090815260408083208584529091529020546001600160a01b03161461050057600080fd5b886001600160a01b03168a6001600160a01b031614156105675760405162461bcd60e51b815260206004820152601f60248201527f53616d6520706572736f6e206465616c206973206e6f7420616c6c6f7765640060448201526064015b60405180910390fd5b600080808a60ff166001811115610580576105806137fc565b6001811115610591576105916137fc565b14156105a157508a9050896105d5565b60018a60ff1660018111156105b8576105b86137fc565b60018111156105c9576105c96137fc565b14156105d557508990508a5b6105dd612544565b6001600160a01b0316638cbf5e78838b6127106105fc6107d08d613828565b6106069190613847565b6040516001600160e01b031960e086901b1681526001600160a01b03909316600484015260248301919091526044820152606401600060405180830381600087803b15801561065457600080fd5b505af1158015610668573d6000803e3d6000fd5b50505050610674612544565b6001600160a01b031663d810703b83838c6127106106946107d08e613828565b61069e9190613847565b8c60006040518763ffffffff1660e01b81526004016106c296959493929190613869565b600060405180830381600087803b1580156106dc57600080fd5b505af11580156106f0573d6000803e3d6000fd5b505050506106fc61343c565b6001600160a01b03808416825282166020820152604081018a9052606081018990526080810188905260a081018790524260c082015261073f8962015180613828565b610749904261389f565b60e082015261075661256b565b9550806107616123da565b600088815260019182016020908152604091829020845181546001600160a01b03199081166001600160a01b0392831617835592860151948201805490931694169390931790558201516002820155606082015160038201556080820151600482015560a0820151600582015560c0820151600682015560e082015160078201556101008201516008820155610120909101516009909101556108048682612633565b604080518b8152602081018b90529081018990526060810188905286906001600160a01b0380851691908616907f7217bf264b75280d56b476788a09fbc2a90690c96172cb5a34f6ed6abe7a67f49060800160405180910390a45050505050979650505050505050565b60006108786123da565b6004015460ff16919050565b600061088e610c88565b905060005b8151811015610a135760008282815181106108b0576108b06138b7565b6020026020010151905060008060009054906101000a90046001600160a01b03166001600160a01b0316636795dbcd838460405160200161091d91907f5265736f6c766572206d697373696e67207461726765743a20000000000000008152601981019190915260390190565b6040516020818303038152906040526040518363ffffffff1660e01b815260040161094992919061391a565b60206040518083038186803b15801561096157600080fd5b505afa158015610975573d6000803e3d6000fd5b505050506040513d601f19601f82011682018060405250810190610999919061393b565b60008381526001602090815260409182902080546001600160a01b0319166001600160a01b0385169081179091558251868152918201529192507f88a93678a3692f6789d9546fc621bf7234b101ddb7d4fe479455112831b8aa68910160405180910390a150508080610a0b90613958565b915050610893565b5050565b600080610a22610c88565b905060005b8151811015610b2c576000828281518110610a4457610a446138b7565b60209081029190910181015160008181526001909252604080832054925490516321f8a72160e01b8152600481018390529193506001600160a01b039283169216906321f8a7219060240160206040518083038186803b158015610aa757600080fd5b505afa158015610abb573d6000803e3d6000fd5b505050506040513d601f19601f82011682018060405250810190610adf919061393b565b6001600160a01b0316141580610b0a57506000818152600160205260409020546001600160a01b0316155b15610b19576000935050505090565b5080610b2481613958565b915050610a27565b50600191505090565b6000806000610b426123da565b60008581526001918201602090815260409182902082516101408101845281546001600160a01b03908116825294820154909416918401919091526002810154918301919091526003810154606083015260048101546080830152600581015460a0830152600681015460c0830152600781015460e083015260088101546101008301819052600990910154610120830152909150610beb57610be48461192b565b6101008201525b80516001600160a01b038781169116148015610c1c575080602001516001600160a01b0316856001600160a01b0316145b15610c31576101000151600092509050610c80565b80602001516001600160a01b0316866001600160a01b0316148015610c62575080516001600160a01b038681169116145b15610c77576101000151915060009050610c80565b60008092509250505b935093915050565b60408051600480825260a08201909252606091602082016080803683370190505090507321b7b63630ba32b930b620b3b3b932b3b0ba37b960611b81600081518110610cd657610cd66138b7565b602002602001018181525050762632b73234b733a6b0b935b2ba21b7b73a3937b63632b960491b81600181518110610d1057610d106138b7565b602002602001018181525050702830bcb6b2b73a20b3b3b932b3b0ba37b960791b81600281518110610d4457610d446138b7565b6020026020010181815250506c5465726d53747275637475726560981b81600381518110610d7457610d746138b7565b60200260200101818152505090565b60608060606000610d926123da565b60008681526001918201602090815260409182902082516101408101845281546001600160a01b0390811682528286015416928101929092526002810154928201929092526003820154606082015260048201546080820152600582015460a0820152600682015460c0820152600782015460e082015260088201546101008201526009909101546101208201529150610e2d908290612736565b935093509350509193909250565b6000610e476001612c3c565b90508015610e5f576002805461ff0019166101001790555b6000610e69612cc6565b6001600160a01b03161415610ecb5760405162461bcd60e51b815260206004820152602260248201527f4d7573742062652063616c6c65642066726f6d2070726f787920636f6e74726160448201526118dd60f21b606482015260840161055e565b6000610ed56123da565b805460ff191660ff92909216919091179055610ef083612cee565b610ef982612d5f565b8015610f3f576002805461ff0019169055604051600181527f7f26b83ff96e1f2b6a682f133852f6798a09c465da95921460cefb38474024989060200160405180910390a15b505050565b6000610f4e6123da565b60050154905090565b33610f6061140e565b6001600160a01b031614610f865760405162461bcd60e51b815260040161055e90613989565b610f906000612cee565b565b6000610f9c6123da565b60008381526002919091016020526040902080549091506001600160a01b03166110015760405162461bcd60e51b81526020600482015260166024820152751b9bc81d195c9b5a5b985d1a5bdb881c995c5d595cdd60521b604482015260640161055e565b600061100b6123da565b60008481526001918201602090815260409182902082516101408101845281546001600160a01b03908116808352958301548116938201939093526002820154938101939093526003810154606084015260048101546080840152600581015460a0840152600681015460c0840152600781015460e084015260088101546101008401526009015461012083015284549193501614156111065780602001516001600160a01b0316336001600160a01b0316146111015760405162461bcd60e51b8152602060048201526014602482015273189bdc9c9bddd95c881b5d5cdd081858d8d95c1d60621b604482015260640161055e565b611154565b80516001600160a01b031633146111545760405162461bcd60e51b81526020600482015260126024820152711b195b99195c881b5d5cdd081858d8d95c1d60721b604482015260640161055e565b61115d83612dda565b6111795760405162461bcd60e51b815260040161055e906139be565b6111816123da565b6000848152600391909101602052604090205460ff161561137c576000806111aa836001612736565b925050915060005b81518110156111f3578181815181106111cd576111cd6138b7565b60209081029190910101516111e1576111f3565b806111eb81613958565b9150506111b2565b60008161120f576112088560c0015142612f4b565b905061123f565b61123c8461121e6001856139e2565b8151811061122e5761122e6138b7565b602002602001015142612f4b565b90505b6000618e948660a00151670de0b6b3a764000061125c9190613828565b6112669190613847565b905060006112748383613828565b9050600068056bc75e2d631000008289608001516112929190613828565b61129c9190613847565b90506000886101000151826112b1919061389f565b90506112bb612544565b6001600160a01b031663dc766b878a602001518b600001518c60400151858e610100015160016040518763ffffffff1660e01b815260040161130296959493929190613869565b600060405180830381600087803b15801561131c57600080fd5b505af1158015611330573d6000803e3d6000fd5b5050604080518e8152602081018590523393507f5afb4b6e68d04d346685fcbe7b749831901acca769aa678ee2d28c592604626292500160405180910390a250505050505050506113b8565b604080518481526000602082015233917f5afb4b6e68d04d346685fcbe7b749831901acca769aa678ee2d28c5926046262910160405180910390a25b610f3f836123fe565b336113ca61140e565b6001600160a01b0316146113f05760405162461bcd60e51b815260040161055e90613989565b806113f96123da565b600401805460ff191691151591909117905550565b60007f9acda75aebd150dd434541a4747a6dc606f4f1a59662477e67daf1fc0bf9e0aa5b546001600160a01b0316919050565b61144961343c565b6114516123da565b60009283526001908101602090815260409384902084516101408101865281546001600160a01b03908116825293820154909316918301919091526002810154938201939093526003830154606082015260048301546080820152600583015460a0820152600683015460c0820152600783015460e082015260088301546101008201526009909201546101208301525090565b60006114f082612f79565b6114f982612dda565b6115385760405162461bcd60e51b815260206004820152601060248201526f3330b4b632b2103ab83230ba3290282b60811b604482015260640161055e565b506001919050565b3361154961140e565b6001600160a01b03161461156f5760405162461bcd60e51b815260040161055e90613989565b60006115796123da565b6000858152600691909101602090815260408083208684529091529020546001600160a01b0316146115ed5760405162461bcd60e51b815260206004820181905260248201527f436f756c646e27742072657772697465206578697374696e67206d61726b6574604482015260640161055e565b806115f66123da565b6000948552600601602090815260408086209486529390529190922080546001600160a01b0319166001600160a01b0390921691909117905550565b600061163c6123da565b600092835260010160205250604090206002015490565b60008061165e6123da565b600084815260019182016020908152604080832081516101408101835281546001600160a01b03908116825295820154909516928501929092526002820154908401526003810154606084015260048101546080840152600581015460a0840152600681015460c0840152600781015460e08401526008810154610100840152600901546101208301529091506116f3613240565b6001600160a01b031663849d7a50836060015161170e6123da565b5460405160e084901b6001600160e01b0319168152600481019290925260ff16602482015260440160206040518083038186803b15801561174e57600080fd5b505afa158015611762573d6000803e3d6000fd5b505050506040513d601f19601f8201168201806040525081019061178691906139f9565b90506000611792613240565b6001600160a01b031663b1547add84606001516117ad6123da565b5460405160e084901b6001600160e01b0319168152600481019290925260ff16602482015260440160006040518083038186803b1580156117ed57600080fd5b505afa158015611801573d6000803e3d6000fd5b505050506040513d6000823e601f3d908101601f191682016040526118299190810190613aa2565b9050815b80156119225760006118688560c001518460018561184b91906139e2565b8151811061185b5761185b6138b7565b602002602001015161325b565b90506000611874613267565b6001600160a01b03166375dc0d21876000015188602001518960400151866040518563ffffffff1660e01b81526004016118b19493929190613ad7565b60206040518083038186803b1580156118c957600080fd5b505afa1580156118dd573d6000803e3d6000fd5b505050506040513d601f19601f820116820180604052508101906119019190613b00565b9050801561190d578196505b5050808061191a90613b1d565b91505061182d565b50505050919050565b6000806119366123da565b60008481526001918201602090815260409182902082516101408101845281546001600160a01b03908116825294820154909416918401919091526002810154918301919091526003810154606083015260048101546080830152600581015460a0830152600681015460c0830152600781015460e083015260088101546101008301526009015461012082015290506119ce6123da565b6000848152600391909101602052604090205460ff166119f2576080015192915050565b6000806119fd613286565b6001600160a01b0316630a2b200884604001516040518263ffffffff1660e01b8152600401611a2e91815260200190565b60006040518083038186803b158015611a4657600080fd5b505afa158015611a5a573d6000803e3d6000fd5b505050506040513d6000823e601f3d908101601f19168201604052611a829190810190613b34565b91509150600080611a94856000612736565b509150915060005b8251811015611bb85742838281518110611ab857611ab86138b7565b60200260200101511015611acb57611ba6565b6000734Ec63E688480eb91f62D2284B34Ca81cffEF3fF363954eab798787878681518110611afb57611afb6138b7565b60200260200101516040518463ffffffff1660e01b8152600401611b2193929190613b98565b60206040518083038186803b158015611b3957600080fd5b505af4158015611b4d573d6000803e3d6000fd5b505050506040513d601f19601f82011682018060405250810190611b7191906139f9565b905080838381518110611b8657611b866138b7565b6020026020010151611b989190613828565b611ba2908961389f565b9750505b80611bb081613958565b915050611a9c565b50611bc561271087613847565b979650505050505050565b6040805180820190915260008082526020820152611bec6123da565b60009283526002016020908152604092839020835180850190945280546001600160a01b0316845260010154908301525090565b6000611c2a6123da565b6000838152600291909101602052604081209150611c466123da565b60008481526001918201602090815260409182902082516101408101845281546001600160a01b039081168083529583015416928101929092526002810154928201929092526003820154606082015260048201546080820152600582015460a0820152600682015460c0820152600782015460e082015260088201546101008201526009909101546101208201529150331480611cf9575080602001516001600160a01b0316336001600160a01b0316145b611d3c5760405162461bcd60e51b81526020600482015260146024820152731c185c9d1a595cc81b5d5cdd081c995c5d595cdd60621b604482015260640161055e565b611d4583612dda565b611d615760405162461bcd60e51b815260040161055e906139be565b81546001600160a01b0319163390811783556040518481527f959b4fa9d58e01ba2b3065a3ef760cf151bac99ea42a52616573aa6a659cb58f906020015b60405180910390a2505050565b81611db56123da565b6000828152600391909101602052604090205460ff16611e0d5760405162461bcd60e51b81526020600482015260136024820152726c6f616e206973206e6f7420776f726b696e6760681b604482015260640161055e565b6000611e176123da565b6000858152600191909101602052604090209050611e336123da565b6004015460ff16611e7e5760405162461bcd60e51b81526020600482015260156024820152741d1c985b9cd9995c9cc81b9bdd08185b1b1bddd959605a1b604482015260640161055e565b80546001600160a01b0316338114611ece5760405162461bcd60e51b81526020600482015260136024820152723632b73232b91036bab9ba103a3930b9b332b960691b604482015260640161055e565b604080516101408101825283546001600160a01b03908116825260018501541660208201526002840154918101919091526003830154606082015260048301546080820152600583015460a0820152600683015460c0820152600783015460e082015260088301546101008201526009830154610120820152611f529086906132ab565b611f5a612544565b60018084015460028501546008860154604051631ea9242160e21b81526001600160a01b0395861695637aa4908495611fa195899592169391926000929190600401613869565b600060405180830381600087803b158015611fbb57600080fd5b505af1158015611fcf573d6000803e3d6000fd5b505083546001600160a01b0319166001600160a01b0387811691821786556040805161014081018252928352600187015490911660208301526002860154908201526003850154606082015260048501546080820152600585015460a0820152600685015460c0820152600785015460e0820152600885015461010082015260098501546101208201526120669250879150612633565b61206e612544565b6001808401546002850154600886015460405163d810703b60e01b81526001600160a01b039586169563d810703b956120b5958c9592169391926000929190600401613869565b600060405180830381600087803b1580156120cf57600080fd5b505af11580156120e3573d6000803e3d6000fd5b50506040516001600160a01b03871681528792507fa4e3c75bb889b8b7fa7d6d22ecf714eff69c61c6b0dd03b9e0348829031944fa915060200160405180910390a25050505050565b3361213561140e565b6001600160a01b03161461215b5760405162461bcd60e51b815260040161055e90613989565b6001600160a01b0381166121c05760405162461bcd60e51b815260206004820152602660248201527f4f776e61626c653a206e6577206f776e657220697320746865207a65726f206160448201526564647265737360d01b606482015260840161055e565b6104bf81612cee565b60006121d36123da565b60008381526002919091016020908152604091829020825180840190935280546001600160a01b0316808452600190910154918301919091529091506122545760405162461bcd60e51b81526020600482015260166024820152751b9bc81d195c9b5a5b985d1a5bdb881c995c5d595cdd60521b604482015260640161055e565b600061225e6123da565b60008481526001918201602090815260409182902082516101408101845281546001600160a01b039081168083529583015416928101929092526002810154928201929092526003820154606082015260048201546080820152600582015460a0820152600682015460c0820152600782015460e082015260088201546101008201526009909101546101208201529150331480612311575080602001516001600160a01b0316336001600160a01b0316145b6123535760405162461bcd60e51b81526020600482015260136024820152721c185c9d1a595cc81b5d5cdd081c995a9958dd606a1b604482015260640161055e565b61235c83612dda565b6123785760405162461bcd60e51b815260040161055e906139be565b6123806123da565b6000848152600291909101602052604080822080546001600160a01b0319168155600101919091555133907fe17a17f350d93a0687a4ce370644e804f5b5c1286121fab38b504b4428e90f2090611d9f9086815260200190565b7f26fc3ea2f2dcc2f8e3e16c399e103e3bca02cc462955645bf1e12e4f5908771590565b60006124086123da565b60008381526001918201602090815260409182902082516101408101845281546001600160a01b03908116825294820154909416918401919091526002810154918301919091526003810154606083015260048101546080830152600581015460a0830152600681015460c0830152600781015460e083015260088101546101008301526009015461012082015290506124a282826132ab565b6040518281527f49402ac80e80185fec1d9f8b8360275213386717f39afd886549219d1f0c17d39060200160405180910390a16124dd6123da565b600092835260019081016020526040832080546001600160a01b031990811682559181018054909216909155600281018390556003810183905560048101839055600581018390556006810183905560078101839055600881018390556009019190915550565b60006125667321b7b63630ba32b930b620b3b3b932b3b0ba37b960611b613398565b905090565b600060016125776123da565b6005016000828254612589919061389f565b9091555073cB999fa6D427dfF9ce21bd43D11942134A95BE1390506334b362b66321aaa47b60e01b6125b96123da565b600501546040516001600160e01b031960e085901b81168252929092166004830152602482015260440160206040518083038186803b1580156125fb57600080fd5b505af415801561260f573d6000803e3d6000fd5b505050506040513d601f19601f8201168201806040525081019061256691906139f9565b600080612641836000612736565b50915091506000825167ffffffffffffffff81111561266257612662613973565b60405190808252806020026020018201604052801561268b578160200160208202803683370190505b5090508360800151816000815181106126a6576126a66138b7565b6020026020010181815250506126ba613267565b6001600160a01b031663393b6e17856000015186602001518760400151898887896040518863ffffffff1660e01b81526004016126fd9796959493929190613bce565b600060405180830381600087803b15801561271757600080fd5b505af115801561272b573d6000803e3d6000fd5b505050505050505050565b60608060606127766040518060c0016040528060008152602001606081526020016000815260200160008152602001600081526020016000151581525090565b61277e613240565b6001600160a01b031663849d7a5087606001516127996123da565b5460405160e084901b6001600160e01b0319168152600481019290925260ff16602482015260440160206040518083038186803b1580156127d957600080fd5b505afa1580156127ed573d6000803e3d6000fd5b505050506040513d601f19601f8201168201806040525081019061281191906139f9565b815261281b613240565b6001600160a01b031663b1547add87606001516128366123da565b5460405160e084901b6001600160e01b0319168152600481019290925260ff16602482015260440160006040518083038186803b15801561287657600080fd5b505afa15801561288a573d6000803e3d6000fd5b505050506040513d6000823e601f3d908101601f191682016040526128b29190810190613aa2565b60208201526128bf613240565b6001600160a01b03166302ccf01587606001516040518263ffffffff1660e01b81526004016128f091815260200190565b60206040518083038186803b15801561290857600080fd5b505afa15801561291c573d6000803e3d6000fd5b505050506040513d601f19601f8201168201806040525081019061294091906139f9565b6040820181905260a0870151608088015161271092839290916129639190613828565b61296d9190613828565b6129779190613847565b6129819190613847565b6060820152805160009061299690600161389f565b905060008167ffffffffffffffff8111156129b3576129b3613973565b6040519080825280602002602001820160405280156129dc578160200160208202803683370190505b50905060008267ffffffffffffffff8111156129fa576129fa613973565b604051908082528060200260200182016040528015612a23578160200160208202803683370190505b50905060008367ffffffffffffffff811115612a4157612a41613973565b604051908082528060200260200182016040528015612a6a578160200160208202803683370190505b50905060015b85518111612bf8576000612a948c60c00151886020015160018561184b91906139e2565b905080858381518110612aa957612aa96138b7565b60209081029190910101528651821415612af45786606001518c60800151612ad1919061389f565b848381518110612ae357612ae36138b7565b602002602001018181525050612b18565b8660600151848381518110612b0b57612b0b6138b7565b6020026020010181815250505b8a15612be557612b26613267565b6001600160a01b03166375dc0d218d600001518e602001518f604001518b608001516040518563ffffffff1660e01b8152600401612b679493929190613ad7565b60206040518083038186803b158015612b7f57600080fd5b505afa158015612b93573d6000803e3d6000fd5b505050506040513d601f19601f82011682018060405250810190612bb79190613b00565b151560a088018190528351849084908110612bd457612bd46138b7565b911515602092830291909101909101525b5080612bf081613958565b915050612a70565b506000612c0a8b60c00151600261325b565b90508084600081518110612c2057612c206138b7565b6020908102919091010152509196509450925050509250925092565b600254600090610100900460ff1615612c85578160ff166001148015612c615750303b155b612c7d5760405162461bcd60e51b815260040161055e90613c3c565b506000919050565b60025460ff808416911610612cac5760405162461bcd60e51b815260040161055e90613c3c565b506002805460ff191660ff92909216919091179055600190565b60007f360894a13ba1a3210667c828492db98dca3e2076cc3735a920a3ca505d382bbc611432565b7f9acda75aebd150dd434541a4747a6dc606f4f1a59662477e67daf1fc0bf9e0aa80546001600160a01b038381166001600160a01b0319831681179093556040519116919082907f8be0079c531659141344cd1fd0a4f28419497f9722a3daafe3b4186f6b6457e090600090a35050565b6000546001600160a01b031615612db85760405162461bcd60e51b815260206004820152601b60248201527f7265736f6c766572207265676973746572656420616c72656164790000000000604482015260640161055e565b600080546001600160a01b0319166001600160a01b0392909216919091179055565b600080612de68361192b565b90508015612f42576000612df86123da565b6000858152600191909101602052604090209050612e146123da565b6000858152600391909101602052604090205460ff16612e38575060019392505050565b60008160080154600014612e50578160080154612e56565b81600401545b600883018490559050612e67612544565b825460018401546002850154600886015460405163adad5fd160e01b81526001600160a01b039485166004820152928416602484015260448301919091526000606483018190526084830186905260a483015260c482015291169063adad5fd19060e401600060405180830381600087803b158015612ee557600080fd5b505af1158015612ef9573d6000803e3d6000fd5b505060408051888152602081018590529081018690527f7f1e4193cb11b4ae9cf4ae386d650483d5d04df3671d0823ce1612f2bb8f97629250606001905060405180910390a150505b50600192915050565b600081831115612f5a57600080fd5b62015180612f6884846139e2565b612f729190613847565b9392505050565b612f816123da565b6000828152600391909101602052604090205460ff166104bf576000612fa56123da565b600083815260019182016020908152604080832081516101408101835281546001600160a01b0390811682529582015490951692850192909252600280830154918501919091526003820154606085015260048201546080850152600582015460a0850152600682015460c08501819052600783015460e086015260088301546101008601526009909201546101208501529293509091613046919061325b565b90506000613052613267565b6001600160a01b03166375dc0d21846000015185602001518660400151866040518563ffffffff1660e01b815260040161308f9493929190613ad7565b60206040518083038186803b1580156130a757600080fd5b505afa1580156130bb573d6000803e3d6000fd5b505050506040513d601f19601f820116820180604052508101906130df9190613b00565b9050801561323a5760016130f16123da565b600086815260039190910160205260409020805460ff191691151591909117905561311a612544565b6001600160a01b0316637aa490848460000151856020015186604001516127106107d0896080015161314c9190613828565b6131569190613847565b6000806040518763ffffffff1660e01b815260040161317a96959493929190613869565b600060405180830381600087803b15801561319457600080fd5b505af11580156131a8573d6000803e3d6000fd5b505050506131b4612544565b8351602085015160408087015160808801519151637d1f2ded60e01b81526001600160a01b03948516600482015292841660248401526044830152600060648301526084820152911690637d1f2ded9060a401600060405180830381600087803b15801561322157600080fd5b505af1158015613235573d6000803e3d6000fd5b505050505b50505050565b60006125666c5465726d53747275637475726560981b613398565b6000612f728383613414565b6000612566702830bcb6b2b73a20b3b3b932b3b0ba37b960791b613398565b6000612566762632b73234b733a6b0b935b2ba21b7b73a3937b63632b960491b613398565b6000806132b9836000612736565b50915091506000825167ffffffffffffffff8111156132da576132da613973565b604051908082528060200260200182016040528015613303578160200160208202803683370190505b50905061330e6123da565b6000868152600391909101602052604090205460ff1661334d57836080015181600081518110613340576133406138b7565b6020026020010181815250505b613355613267565b6001600160a01b031663b73cdacd856000015186602001518760400151898887896040518863ffffffff1660e01b81526004016126fd9796959493929190613bce565b600081815260016020908152604080832054905170026b4b9b9b4b7339030b2323932b9b99d1607d1b92810192909252603182018490526001600160a01b031690811515906051016040516020818303038152906040529061340d5760405162461bcd60e51b815260040161055e9190613c8a565b5092915050565b60006134236201518083613828565b61342d908461389f565b9050828110156104b057600080fd5b60405180610140016040528060006001600160a01b0316815260200160006001600160a01b0316815260200160008019168152602001600081526020016000815260200160008152602001600081526020016000815260200160008152602001600080191681525090565b6000602082840312156134b957600080fd5b5035919050565b600080604083850312156134d357600080fd5b50508035926020909101359150565b6001600160a01b03811681146104bf57600080fd5b600080600080600080600060e0888a03121561351257600080fd5b873561351d816134e2565b9650602088013561352d816134e2565b9550604088013560ff8116811461354357600080fd5b969995985095966060810135965060808101359560a0820135955060c0909101359350915050565b60008060006060848603121561358057600080fd5b833561358b816134e2565b9250602084013561359b816134e2565b929592945050506040919091013590565b6020808252825182820181905260009190848201906040850190845b818110156135e4578351835292840192918401916001016135c8565b50909695505050505050565b600081518084526020808501945080840160005b8381101561362057815187529582019590820190600101613604565b509495945050505050565b60608152600061363e60608301866135f0565b60208382038185015261365182876135f0565b8481036040860152855180825282870193509082019060005b8181101561368857845115158352938301939183019160010161366a565b509098975050505050505050565b600080604083850312156136a957600080fd5b82356136b4816134e2565b915060208301356136c4816134e2565b809150509250929050565b80151581146104bf57600080fd5b6000602082840312156136ef57600080fd5b8135612f72816136cf565b81516001600160a01b031681526101408101602083015161372660208401826001600160a01b03169052565b5060408301516040830152606083015160608301526080830151608083015260a083015160a083015260c083015160c083015260e083015160e083015261010080840151818401525061012080840151818401525092915050565b60008060006060848603121561379657600080fd5b833592506020840135915060408401356137af816134e2565b809150509250925092565b600080604083850312156137cd57600080fd5b8235915060208301356136c4816134e2565b6000602082840312156137f157600080fd5b8135612f72816134e2565b634e487b7160e01b600052602160045260246000fd5b634e487b7160e01b600052601160045260246000fd5b600081600019048311821515161561384257613842613812565b500290565b60008261386457634e487b7160e01b600052601260045260246000fd5b500490565b6001600160a01b03968716815294909516602085015260408401929092526060830152608082015290151560a082015260c00190565b600082198211156138b2576138b2613812565b500190565b634e487b7160e01b600052603260045260246000fd5b6000815180845260005b818110156138f3576020818501810151868301820152016138d7565b81811115613905576000602083870101525b50601f01601f19169290920160200192915050565b82815260406020820152600061393360408301846138cd565b949350505050565b60006020828403121561394d57600080fd5b8151612f72816134e2565b600060001982141561396c5761396c613812565b5060010190565b634e487b7160e01b600052604160045260246000fd5b6020808252818101527f4f776e61626c653a2063616c6c6572206973206e6f7420746865206f776e6572604082015260600190565b6020808252600a90820152696661696c6564204d744d60b01b604082015260600190565b6000828210156139f4576139f4613812565b500390565b600060208284031215613a0b57600080fd5b5051919050565b600082601f830112613a2357600080fd5b8151602067ffffffffffffffff80831115613a4057613a40613973565b8260051b604051601f19603f83011681018181108482111715613a6557613a65613973565b604052938452858101830193838101925087851115613a8357600080fd5b83870191505b84821015611bc557815183529183019190830190613a89565b600060208284031215613ab457600080fd5b815167ffffffffffffffff811115613acb57600080fd5b61393384828501613a12565b6001600160a01b0394851681529290931660208301526040820152606081019190915260800190565b600060208284031215613b1257600080fd5b8151612f72816136cf565b600081613b2c57613b2c613812565b506000190190565b60008060408385031215613b4757600080fd5b825167ffffffffffffffff80821115613b5f57600080fd5b613b6b86838701613a12565b93506020850151915080821115613b8157600080fd5b50613b8e85828601613a12565b9150509250929050565b606081526000613bab60608301866135f0565b8281036020840152613bbd81866135f0565b915050826040830152949350505050565b6001600160a01b03888116825287166020820152604081018690526060810185905260e060808201819052600090613c08908301866135f0565b82810360a0840152613c1a81866135f0565b905082810360c0840152613c2e81856135f0565b9a9950505050505050505050565b6020808252602e908201527f496e697469616c697a61626c653a20636f6e747261637420697320616c72656160408201526d191e481a5b9a5d1a585b1a5e995960921b606082015260800190565b602081526000612f7260208301846138cd56fea264697066735822122013d3724642881d4e7572816794c15bdd16981c94a892fe538af67c74372c720264736f6c63430008090033",
  "deployedBytecode": "0x608060405234801561001057600080fd5b50600436106101da5760003560e01c80637477d18b11610104578063c601153c116100a2578063dbb93d7b11610071578063dbb93d7b1461041b578063e09976591461042e578063f2fde38b14610435578063fdc634831461044857600080fd5b8063c601153c146103ab578063c673c674146103be578063d160e842146103d1578063d83beeea1461040857600080fd5b80639458ba49116100de5780639458ba49146103525780639ad9a691146103725780639e31afba14610385578063b0c186511461039857600080fd5b80637477d18b1461032457806385a96af8146103375780638da5cb5b1461034a57600080fd5b806329985e5a1161017c578063437a43b91161014b578063437a43b9146102df578063485cc9551461030157806368be92b414610314578063715018a61461031c57600080fd5b806329985e5a146102925780632af64bd31461029a57806332757d41146102a25780633d03b9da146102ca57600080fd5b80630a71096e116101b85780630a71096e146102455780630d8e6e2c1461025a578063114cc2ec146102695780632121dc751461028a57600080fd5b8063026019d8146101df57806304f3bcec14610207578063085b616e14610232575b600080fd5b6101f26101ed3660046134a7565b61045b565b60405190151581526020015b60405180910390f35b60005461021a906001600160a01b031681565b6040516001600160a01b0390911681526020016101fe565b61021a6102403660046134c0565b61047c565b6102586102533660046134a7565b6104b6565b005b604051600181526020016101fe565b61027c6102773660046134f7565b6104c2565b6040519081526020016101fe565b6101f261086e565b610258610884565b6101f2610a17565b6102b56102b036600461356b565b610b35565b604080519283526020830191909152016101fe565b6102d2610c88565b6040516101fe91906135ac565b6102f26102ed3660046134a7565b610d83565b6040516101fe9392919061362b565b61025861030f366004613696565b610e3b565b61027c610f44565b610258610f57565b6102586103323660046134a7565b610f92565b6102586103453660046136dd565b6113c1565b61021a61140e565b6103656103603660046134a7565b611441565b6040516101fe91906136fa565b6101f26103803660046134a7565b6114e5565b610258610393366004613781565b611540565b61027c6103a63660046134a7565b611632565b61027c6103b93660046134a7565b611653565b61027c6103cc3660046134a7565b61192b565b6103e46103df3660046134a7565b611bd0565b6040805182516001600160a01b0316815260209283015192810192909252016101fe565b6102586104163660046134a7565b611c20565b6102586104293660046137ba565b611dac565b60606102d2565b6102586104433660046137df565b61212c565b6102586104563660046134a7565b6121c9565b60006104656123da565b600092835260030160205250604090205460ff1690565b60006104866123da565b6000848152600691909101602090815260408083208584529091529020546001600160a01b031690505b92915050565b6104bf816123fe565b50565b60008484336104cf6123da565b6000848152600691909101602090815260408083208584529091529020546001600160a01b03161461050057600080fd5b886001600160a01b03168a6001600160a01b031614156105675760405162461bcd60e51b815260206004820152601f60248201527f53616d6520706572736f6e206465616c206973206e6f7420616c6c6f7765640060448201526064015b60405180910390fd5b600080808a60ff166001811115610580576105806137fc565b6001811115610591576105916137fc565b14156105a157508a9050896105d5565b60018a60ff1660018111156105b8576105b86137fc565b60018111156105c9576105c96137fc565b14156105d557508990508a5b6105dd612544565b6001600160a01b0316638cbf5e78838b6127106105fc6107d08d613828565b6106069190613847565b6040516001600160e01b031960e086901b1681526001600160a01b03909316600484015260248301919091526044820152606401600060405180830381600087803b15801561065457600080fd5b505af1158015610668573d6000803e3d6000fd5b50505050610674612544565b6001600160a01b031663d810703b83838c6127106106946107d08e613828565b61069e9190613847565b8c60006040518763ffffffff1660e01b81526004016106c296959493929190613869565b600060405180830381600087803b1580156106dc57600080fd5b505af11580156106f0573d6000803e3d6000fd5b505050506106fc61343c565b6001600160a01b03808416825282166020820152604081018a9052606081018990526080810188905260a081018790524260c082015261073f8962015180613828565b610749904261389f565b60e082015261075661256b565b9550806107616123da565b600088815260019182016020908152604091829020845181546001600160a01b03199081166001600160a01b0392831617835592860151948201805490931694169390931790558201516002820155606082015160038201556080820151600482015560a0820151600582015560c0820151600682015560e082015160078201556101008201516008820155610120909101516009909101556108048682612633565b604080518b8152602081018b90529081018990526060810188905286906001600160a01b0380851691908616907f7217bf264b75280d56b476788a09fbc2a90690c96172cb5a34f6ed6abe7a67f49060800160405180910390a45050505050979650505050505050565b60006108786123da565b6004015460ff16919050565b600061088e610c88565b905060005b8151811015610a135760008282815181106108b0576108b06138b7565b6020026020010151905060008060009054906101000a90046001600160a01b03166001600160a01b0316636795dbcd838460405160200161091d91907f5265736f6c766572206d697373696e67207461726765743a20000000000000008152601981019190915260390190565b6040516020818303038152906040526040518363ffffffff1660e01b815260040161094992919061391a565b60206040518083038186803b15801561096157600080fd5b505afa158015610975573d6000803e3d6000fd5b505050506040513d601f19601f82011682018060405250810190610999919061393b565b60008381526001602090815260409182902080546001600160a01b0319166001600160a01b0385169081179091558251868152918201529192507f88a93678a3692f6789d9546fc621bf7234b101ddb7d4fe479455112831b8aa68910160405180910390a150508080610a0b90613958565b915050610893565b5050565b600080610a22610c88565b905060005b8151811015610b2c576000828281518110610a4457610a446138b7565b60209081029190910181015160008181526001909252604080832054925490516321f8a72160e01b8152600481018390529193506001600160a01b039283169216906321f8a7219060240160206040518083038186803b158015610aa757600080fd5b505afa158015610abb573d6000803e3d6000fd5b505050506040513d601f19601f82011682018060405250810190610adf919061393b565b6001600160a01b0316141580610b0a57506000818152600160205260409020546001600160a01b0316155b15610b19576000935050505090565b5080610b2481613958565b915050610a27565b50600191505090565b6000806000610b426123da565b60008581526001918201602090815260409182902082516101408101845281546001600160a01b03908116825294820154909416918401919091526002810154918301919091526003810154606083015260048101546080830152600581015460a0830152600681015460c0830152600781015460e083015260088101546101008301819052600990910154610120830152909150610beb57610be48461192b565b6101008201525b80516001600160a01b038781169116148015610c1c575080602001516001600160a01b0316856001600160a01b0316145b15610c31576101000151600092509050610c80565b80602001516001600160a01b0316866001600160a01b0316148015610c62575080516001600160a01b038681169116145b15610c77576101000151915060009050610c80565b60008092509250505b935093915050565b60408051600480825260a08201909252606091602082016080803683370190505090507321b7b63630ba32b930b620b3b3b932b3b0ba37b960611b81600081518110610cd657610cd66138b7565b602002602001018181525050762632b73234b733a6b0b935b2ba21b7b73a3937b63632b960491b81600181518110610d1057610d106138b7565b602002602001018181525050702830bcb6b2b73a20b3b3b932b3b0ba37b960791b81600281518110610d4457610d446138b7565b6020026020010181815250506c5465726d53747275637475726560981b81600381518110610d7457610d746138b7565b60200260200101818152505090565b60608060606000610d926123da565b60008681526001918201602090815260409182902082516101408101845281546001600160a01b0390811682528286015416928101929092526002810154928201929092526003820154606082015260048201546080820152600582015460a0820152600682015460c0820152600782015460e082015260088201546101008201526009909101546101208201529150610e2d908290612736565b935093509350509193909250565b6000610e476001612c3c565b90508015610e5f576002805461ff0019166101001790555b6000610e69612cc6565b6001600160a01b03161415610ecb5760405162461bcd60e51b815260206004820152602260248201527f4d7573742062652063616c6c65642066726f6d2070726f787920636f6e74726160448201526118dd60f21b606482015260840161055e565b6000610ed56123da565b805460ff191660ff92909216919091179055610ef083612cee565b610ef982612d5f565b8015610f3f576002805461ff0019169055604051600181527f7f26b83ff96e1f2b6a682f133852f6798a09c465da95921460cefb38474024989060200160405180910390a15b505050565b6000610f4e6123da565b60050154905090565b33610f6061140e565b6001600160a01b031614610f865760405162461bcd60e51b815260040161055e90613989565b610f906000612cee565b565b6000610f9c6123da565b60008381526002919091016020526040902080549091506001600160a01b03166110015760405162461bcd60e51b81526020600482015260166024820152751b9bc81d195c9b5a5b985d1a5bdb881c995c5d595cdd60521b604482015260640161055e565b600061100b6123da565b60008481526001918201602090815260409182902082516101408101845281546001600160a01b03908116808352958301548116938201939093526002820154938101939093526003810154606084015260048101546080840152600581015460a0840152600681015460c0840152600781015460e084015260088101546101008401526009015461012083015284549193501614156111065780602001516001600160a01b0316336001600160a01b0316146111015760405162461bcd60e51b8152602060048201526014602482015273189bdc9c9bddd95c881b5d5cdd081858d8d95c1d60621b604482015260640161055e565b611154565b80516001600160a01b031633146111545760405162461bcd60e51b81526020600482015260126024820152711b195b99195c881b5d5cdd081858d8d95c1d60721b604482015260640161055e565b61115d83612dda565b6111795760405162461bcd60e51b815260040161055e906139be565b6111816123da565b6000848152600391909101602052604090205460ff161561137c576000806111aa836001612736565b925050915060005b81518110156111f3578181815181106111cd576111cd6138b7565b60209081029190910101516111e1576111f3565b806111eb81613958565b9150506111b2565b60008161120f576112088560c0015142612f4b565b905061123f565b61123c8461121e6001856139e2565b8151811061122e5761122e6138b7565b602002602001015142612f4b565b90505b6000618e948660a00151670de0b6b3a764000061125c9190613828565b6112669190613847565b905060006112748383613828565b9050600068056bc75e2d631000008289608001516112929190613828565b61129c9190613847565b90506000886101000151826112b1919061389f565b90506112bb612544565b6001600160a01b031663dc766b878a602001518b600001518c60400151858e610100015160016040518763ffffffff1660e01b815260040161130296959493929190613869565b600060405180830381600087803b15801561131c57600080fd5b505af1158015611330573d6000803e3d6000fd5b5050604080518e8152602081018590523393507f5afb4b6e68d04d346685fcbe7b749831901acca769aa678ee2d28c592604626292500160405180910390a250505050505050506113b8565b604080518481526000602082015233917f5afb4b6e68d04d346685fcbe7b749831901acca769aa678ee2d28c5926046262910160405180910390a25b610f3f836123fe565b336113ca61140e565b6001600160a01b0316146113f05760405162461bcd60e51b815260040161055e90613989565b806113f96123da565b600401805460ff191691151591909117905550565b60007f9acda75aebd150dd434541a4747a6dc606f4f1a59662477e67daf1fc0bf9e0aa5b546001600160a01b0316919050565b61144961343c565b6114516123da565b60009283526001908101602090815260409384902084516101408101865281546001600160a01b03908116825293820154909316918301919091526002810154938201939093526003830154606082015260048301546080820152600583015460a0820152600683015460c0820152600783015460e082015260088301546101008201526009909201546101208301525090565b60006114f082612f79565b6114f982612dda565b6115385760405162461bcd60e51b815260206004820152601060248201526f3330b4b632b2103ab83230ba3290282b60811b604482015260640161055e565b506001919050565b3361154961140e565b6001600160a01b03161461156f5760405162461bcd60e51b815260040161055e90613989565b60006115796123da565b6000858152600691909101602090815260408083208684529091529020546001600160a01b0316146115ed5760405162461bcd60e51b815260206004820181905260248201527f436f756c646e27742072657772697465206578697374696e67206d61726b6574604482015260640161055e565b806115f66123da565b6000948552600601602090815260408086209486529390529190922080546001600160a01b0319166001600160a01b0390921691909117905550565b600061163c6123da565b600092835260010160205250604090206002015490565b60008061165e6123da565b600084815260019182016020908152604080832081516101408101835281546001600160a01b03908116825295820154909516928501929092526002820154908401526003810154606084015260048101546080840152600581015460a0840152600681015460c0840152600781015460e08401526008810154610100840152600901546101208301529091506116f3613240565b6001600160a01b031663849d7a50836060015161170e6123da565b5460405160e084901b6001600160e01b0319168152600481019290925260ff16602482015260440160206040518083038186803b15801561174e57600080fd5b505afa158015611762573d6000803e3d6000fd5b505050506040513d601f19601f8201168201806040525081019061178691906139f9565b90506000611792613240565b6001600160a01b031663b1547add84606001516117ad6123da565b5460405160e084901b6001600160e01b0319168152600481019290925260ff16602482015260440160006040518083038186803b1580156117ed57600080fd5b505afa158015611801573d6000803e3d6000fd5b505050506040513d6000823e601f3d908101601f191682016040526118299190810190613aa2565b9050815b80156119225760006118688560c001518460018561184b91906139e2565b8151811061185b5761185b6138b7565b602002602001015161325b565b90506000611874613267565b6001600160a01b03166375dc0d21876000015188602001518960400151866040518563ffffffff1660e01b81526004016118b19493929190613ad7565b60206040518083038186803b1580156118c957600080fd5b505afa1580156118dd573d6000803e3d6000fd5b505050506040513d601f19601f820116820180604052508101906119019190613b00565b9050801561190d578196505b5050808061191a90613b1d565b91505061182d565b50505050919050565b6000806119366123da565b60008481526001918201602090815260409182902082516101408101845281546001600160a01b03908116825294820154909416918401919091526002810154918301919091526003810154606083015260048101546080830152600581015460a0830152600681015460c0830152600781015460e083015260088101546101008301526009015461012082015290506119ce6123da565b6000848152600391909101602052604090205460ff166119f2576080015192915050565b6000806119fd613286565b6001600160a01b0316630a2b200884604001516040518263ffffffff1660e01b8152600401611a2e91815260200190565b60006040518083038186803b158015611a4657600080fd5b505afa158015611a5a573d6000803e3d6000fd5b505050506040513d6000823e601f3d908101601f19168201604052611a829190810190613b34565b91509150600080611a94856000612736565b509150915060005b8251811015611bb85742838281518110611ab857611ab86138b7565b60200260200101511015611acb57611ba6565b600073__$f506ca7a99b3e1b46d3b28bedafd5dc4fc$__63954eab798787878681518110611afb57611afb6138b7565b60200260200101516040518463ffffffff1660e01b8152600401611b2193929190613b98565b60206040518083038186803b158015611b3957600080fd5b505af4158015611b4d573d6000803e3d6000fd5b505050506040513d601f19601f82011682018060405250810190611b7191906139f9565b905080838381518110611b8657611b866138b7565b6020026020010151611b989190613828565b611ba2908961389f565b9750505b80611bb081613958565b915050611a9c565b50611bc561271087613847565b979650505050505050565b6040805180820190915260008082526020820152611bec6123da565b60009283526002016020908152604092839020835180850190945280546001600160a01b0316845260010154908301525090565b6000611c2a6123da565b6000838152600291909101602052604081209150611c466123da565b60008481526001918201602090815260409182902082516101408101845281546001600160a01b039081168083529583015416928101929092526002810154928201929092526003820154606082015260048201546080820152600582015460a0820152600682015460c0820152600782015460e082015260088201546101008201526009909101546101208201529150331480611cf9575080602001516001600160a01b0316336001600160a01b0316145b611d3c5760405162461bcd60e51b81526020600482015260146024820152731c185c9d1a595cc81b5d5cdd081c995c5d595cdd60621b604482015260640161055e565b611d4583612dda565b611d615760405162461bcd60e51b815260040161055e906139be565b81546001600160a01b0319163390811783556040518481527f959b4fa9d58e01ba2b3065a3ef760cf151bac99ea42a52616573aa6a659cb58f906020015b60405180910390a2505050565b81611db56123da565b6000828152600391909101602052604090205460ff16611e0d5760405162461bcd60e51b81526020600482015260136024820152726c6f616e206973206e6f7420776f726b696e6760681b604482015260640161055e565b6000611e176123da565b6000858152600191909101602052604090209050611e336123da565b6004015460ff16611e7e5760405162461bcd60e51b81526020600482015260156024820152741d1c985b9cd9995c9cc81b9bdd08185b1b1bddd959605a1b604482015260640161055e565b80546001600160a01b0316338114611ece5760405162461bcd60e51b81526020600482015260136024820152723632b73232b91036bab9ba103a3930b9b332b960691b604482015260640161055e565b604080516101408101825283546001600160a01b03908116825260018501541660208201526002840154918101919091526003830154606082015260048301546080820152600583015460a0820152600683015460c0820152600783015460e082015260088301546101008201526009830154610120820152611f529086906132ab565b611f5a612544565b60018084015460028501546008860154604051631ea9242160e21b81526001600160a01b0395861695637aa4908495611fa195899592169391926000929190600401613869565b600060405180830381600087803b158015611fbb57600080fd5b505af1158015611fcf573d6000803e3d6000fd5b505083546001600160a01b0319166001600160a01b0387811691821786556040805161014081018252928352600187015490911660208301526002860154908201526003850154606082015260048501546080820152600585015460a0820152600685015460c0820152600785015460e0820152600885015461010082015260098501546101208201526120669250879150612633565b61206e612544565b6001808401546002850154600886015460405163d810703b60e01b81526001600160a01b039586169563d810703b956120b5958c9592169391926000929190600401613869565b600060405180830381600087803b1580156120cf57600080fd5b505af11580156120e3573d6000803e3d6000fd5b50506040516001600160a01b03871681528792507fa4e3c75bb889b8b7fa7d6d22ecf714eff69c61c6b0dd03b9e0348829031944fa915060200160405180910390a25050505050565b3361213561140e565b6001600160a01b03161461215b5760405162461bcd60e51b815260040161055e90613989565b6001600160a01b0381166121c05760405162461bcd60e51b815260206004820152602660248201527f4f776e61626c653a206e6577206f776e657220697320746865207a65726f206160448201526564647265737360d01b606482015260840161055e565b6104bf81612cee565b60006121d36123da565b60008381526002919091016020908152604091829020825180840190935280546001600160a01b0316808452600190910154918301919091529091506122545760405162461bcd60e51b81526020600482015260166024820152751b9bc81d195c9b5a5b985d1a5bdb881c995c5d595cdd60521b604482015260640161055e565b600061225e6123da565b60008481526001918201602090815260409182902082516101408101845281546001600160a01b039081168083529583015416928101929092526002810154928201929092526003820154606082015260048201546080820152600582015460a0820152600682015460c0820152600782015460e082015260088201546101008201526009909101546101208201529150331480612311575080602001516001600160a01b0316336001600160a01b0316145b6123535760405162461bcd60e51b81526020600482015260136024820152721c185c9d1a595cc81b5d5cdd081c995a9958dd606a1b604482015260640161055e565b61235c83612dda565b6123785760405162461bcd60e51b815260040161055e906139be565b6123806123da565b6000848152600291909101602052604080822080546001600160a01b0319168155600101919091555133907fe17a17f350d93a0687a4ce370644e804f5b5c1286121fab38b504b4428e90f2090611d9f9086815260200190565b7f26fc3ea2f2dcc2f8e3e16c399e103e3bca02cc462955645bf1e12e4f5908771590565b60006124086123da565b60008381526001918201602090815260409182902082516101408101845281546001600160a01b03908116825294820154909416918401919091526002810154918301919091526003810154606083015260048101546080830152600581015460a0830152600681015460c0830152600781015460e083015260088101546101008301526009015461012082015290506124a282826132ab565b6040518281527f49402ac80e80185fec1d9f8b8360275213386717f39afd886549219d1f0c17d39060200160405180910390a16124dd6123da565b600092835260019081016020526040832080546001600160a01b031990811682559181018054909216909155600281018390556003810183905560048101839055600581018390556006810183905560078101839055600881018390556009019190915550565b60006125667321b7b63630ba32b930b620b3b3b932b3b0ba37b960611b613398565b905090565b600060016125776123da565b6005016000828254612589919061389f565b9091555073__$840828ea7a247221c7100f4d3622b584a5$__90506334b362b66321aaa47b60e01b6125b96123da565b600501546040516001600160e01b031960e085901b81168252929092166004830152602482015260440160206040518083038186803b1580156125fb57600080fd5b505af415801561260f573d6000803e3d6000fd5b505050506040513d601f19601f8201168201806040525081019061256691906139f9565b600080612641836000612736565b50915091506000825167ffffffffffffffff81111561266257612662613973565b60405190808252806020026020018201604052801561268b578160200160208202803683370190505b5090508360800151816000815181106126a6576126a66138b7565b6020026020010181815250506126ba613267565b6001600160a01b031663393b6e17856000015186602001518760400151898887896040518863ffffffff1660e01b81526004016126fd9796959493929190613bce565b600060405180830381600087803b15801561271757600080fd5b505af115801561272b573d6000803e3d6000fd5b505050505050505050565b60608060606127766040518060c0016040528060008152602001606081526020016000815260200160008152602001600081526020016000151581525090565b61277e613240565b6001600160a01b031663849d7a5087606001516127996123da565b5460405160e084901b6001600160e01b0319168152600481019290925260ff16602482015260440160206040518083038186803b1580156127d957600080fd5b505afa1580156127ed573d6000803e3d6000fd5b505050506040513d601f19601f8201168201806040525081019061281191906139f9565b815261281b613240565b6001600160a01b031663b1547add87606001516128366123da565b5460405160e084901b6001600160e01b0319168152600481019290925260ff16602482015260440160006040518083038186803b15801561287657600080fd5b505afa15801561288a573d6000803e3d6000fd5b505050506040513d6000823e601f3d908101601f191682016040526128b29190810190613aa2565b60208201526128bf613240565b6001600160a01b03166302ccf01587606001516040518263ffffffff1660e01b81526004016128f091815260200190565b60206040518083038186803b15801561290857600080fd5b505afa15801561291c573d6000803e3d6000fd5b505050506040513d601f19601f8201168201806040525081019061294091906139f9565b6040820181905260a0870151608088015161271092839290916129639190613828565b61296d9190613828565b6129779190613847565b6129819190613847565b6060820152805160009061299690600161389f565b905060008167ffffffffffffffff8111156129b3576129b3613973565b6040519080825280602002602001820160405280156129dc578160200160208202803683370190505b50905060008267ffffffffffffffff8111156129fa576129fa613973565b604051908082528060200260200182016040528015612a23578160200160208202803683370190505b50905060008367ffffffffffffffff811115612a4157612a41613973565b604051908082528060200260200182016040528015612a6a578160200160208202803683370190505b50905060015b85518111612bf8576000612a948c60c00151886020015160018561184b91906139e2565b905080858381518110612aa957612aa96138b7565b60209081029190910101528651821415612af45786606001518c60800151612ad1919061389f565b848381518110612ae357612ae36138b7565b602002602001018181525050612b18565b8660600151848381518110612b0b57612b0b6138b7565b6020026020010181815250505b8a15612be557612b26613267565b6001600160a01b03166375dc0d218d600001518e602001518f604001518b608001516040518563ffffffff1660e01b8152600401612b679493929190613ad7565b60206040518083038186803b158015612b7f57600080fd5b505afa158015612b93573d6000803e3d6000fd5b505050506040513d601f19601f82011682018060405250810190612bb79190613b00565b151560a088018190528351849084908110612bd457612bd46138b7565b911515602092830291909101909101525b5080612bf081613958565b915050612a70565b506000612c0a8b60c00151600261325b565b90508084600081518110612c2057612c206138b7565b6020908102919091010152509196509450925050509250925092565b600254600090610100900460ff1615612c85578160ff166001148015612c615750303b155b612c7d5760405162461bcd60e51b815260040161055e90613c3c565b506000919050565b60025460ff808416911610612cac5760405162461bcd60e51b815260040161055e90613c3c565b506002805460ff191660ff92909216919091179055600190565b60007f360894a13ba1a3210667c828492db98dca3e2076cc3735a920a3ca505d382bbc611432565b7f9acda75aebd150dd434541a4747a6dc606f4f1a59662477e67daf1fc0bf9e0aa80546001600160a01b038381166001600160a01b0319831681179093556040519116919082907f8be0079c531659141344cd1fd0a4f28419497f9722a3daafe3b4186f6b6457e090600090a35050565b6000546001600160a01b031615612db85760405162461bcd60e51b815260206004820152601b60248201527f7265736f6c766572207265676973746572656420616c72656164790000000000604482015260640161055e565b600080546001600160a01b0319166001600160a01b0392909216919091179055565b600080612de68361192b565b90508015612f42576000612df86123da565b6000858152600191909101602052604090209050612e146123da565b6000858152600391909101602052604090205460ff16612e38575060019392505050565b60008160080154600014612e50578160080154612e56565b81600401545b600883018490559050612e67612544565b825460018401546002850154600886015460405163adad5fd160e01b81526001600160a01b039485166004820152928416602484015260448301919091526000606483018190526084830186905260a483015260c482015291169063adad5fd19060e401600060405180830381600087803b158015612ee557600080fd5b505af1158015612ef9573d6000803e3d6000fd5b505060408051888152602081018590529081018690527f7f1e4193cb11b4ae9cf4ae386d650483d5d04df3671d0823ce1612f2bb8f97629250606001905060405180910390a150505b50600192915050565b600081831115612f5a57600080fd5b62015180612f6884846139e2565b612f729190613847565b9392505050565b612f816123da565b6000828152600391909101602052604090205460ff166104bf576000612fa56123da565b600083815260019182016020908152604080832081516101408101835281546001600160a01b0390811682529582015490951692850192909252600280830154918501919091526003820154606085015260048201546080850152600582015460a0850152600682015460c08501819052600783015460e086015260088301546101008601526009909201546101208501529293509091613046919061325b565b90506000613052613267565b6001600160a01b03166375dc0d21846000015185602001518660400151866040518563ffffffff1660e01b815260040161308f9493929190613ad7565b60206040518083038186803b1580156130a757600080fd5b505afa1580156130bb573d6000803e3d6000fd5b505050506040513d601f19601f820116820180604052508101906130df9190613b00565b9050801561323a5760016130f16123da565b600086815260039190910160205260409020805460ff191691151591909117905561311a612544565b6001600160a01b0316637aa490848460000151856020015186604001516127106107d0896080015161314c9190613828565b6131569190613847565b6000806040518763ffffffff1660e01b815260040161317a96959493929190613869565b600060405180830381600087803b15801561319457600080fd5b505af11580156131a8573d6000803e3d6000fd5b505050506131b4612544565b8351602085015160408087015160808801519151637d1f2ded60e01b81526001600160a01b03948516600482015292841660248401526044830152600060648301526084820152911690637d1f2ded9060a401600060405180830381600087803b15801561322157600080fd5b505af1158015613235573d6000803e3d6000fd5b505050505b50505050565b60006125666c5465726d53747275637475726560981b613398565b6000612f728383613414565b6000612566702830bcb6b2b73a20b3b3b932b3b0ba37b960791b613398565b6000612566762632b73234b733a6b0b935b2ba21b7b73a3937b63632b960491b613398565b6000806132b9836000612736565b50915091506000825167ffffffffffffffff8111156132da576132da613973565b604051908082528060200260200182016040528015613303578160200160208202803683370190505b50905061330e6123da565b6000868152600391909101602052604090205460ff1661334d57836080015181600081518110613340576133406138b7565b6020026020010181815250505b613355613267565b6001600160a01b031663b73cdacd856000015186602001518760400151898887896040518863ffffffff1660e01b81526004016126fd9796959493929190613bce565b600081815260016020908152604080832054905170026b4b9b9b4b7339030b2323932b9b99d1607d1b92810192909252603182018490526001600160a01b031690811515906051016040516020818303038152906040529061340d5760405162461bcd60e51b815260040161055e9190613c8a565b5092915050565b60006134236201518083613828565b61342d908461389f565b9050828110156104b057600080fd5b60405180610140016040528060006001600160a01b0316815260200160006001600160a01b0316815260200160008019168152602001600081526020016000815260200160008152602001600081526020016000815260200160008152602001600080191681525090565b6000602082840312156134b957600080fd5b5035919050565b600080604083850312156134d357600080fd5b50508035926020909101359150565b6001600160a01b03811681146104bf57600080fd5b600080600080600080600060e0888a03121561351257600080fd5b873561351d816134e2565b9650602088013561352d816134e2565b9550604088013560ff8116811461354357600080fd5b969995985095966060810135965060808101359560a0820135955060c0909101359350915050565b60008060006060848603121561358057600080fd5b833561358b816134e2565b9250602084013561359b816134e2565b929592945050506040919091013590565b6020808252825182820181905260009190848201906040850190845b818110156135e4578351835292840192918401916001016135c8565b50909695505050505050565b600081518084526020808501945080840160005b8381101561362057815187529582019590820190600101613604565b509495945050505050565b60608152600061363e60608301866135f0565b60208382038185015261365182876135f0565b8481036040860152855180825282870193509082019060005b8181101561368857845115158352938301939183019160010161366a565b509098975050505050505050565b600080604083850312156136a957600080fd5b82356136b4816134e2565b915060208301356136c4816134e2565b809150509250929050565b80151581146104bf57600080fd5b6000602082840312156136ef57600080fd5b8135612f72816136cf565b81516001600160a01b031681526101408101602083015161372660208401826001600160a01b03169052565b5060408301516040830152606083015160608301526080830151608083015260a083015160a083015260c083015160c083015260e083015160e083015261010080840151818401525061012080840151818401525092915050565b60008060006060848603121561379657600080fd5b833592506020840135915060408401356137af816134e2565b809150509250925092565b600080604083850312156137cd57600080fd5b8235915060208301356136c4816134e2565b6000602082840312156137f157600080fd5b8135612f72816134e2565b634e487b7160e01b600052602160045260246000fd5b634e487b7160e01b600052601160045260246000fd5b600081600019048311821515161561384257613842613812565b500290565b60008261386457634e487b7160e01b600052601260045260246000fd5b500490565b6001600160a01b03968716815294909516602085015260408401929092526060830152608082015290151560a082015260c00190565b600082198211156138b2576138b2613812565b500190565b634e487b7160e01b600052603260045260246000fd5b6000815180845260005b818110156138f3576020818501810151868301820152016138d7565b81811115613905576000602083870101525b50601f01601f19169290920160200192915050565b82815260406020820152600061393360408301846138cd565b949350505050565b60006020828403121561394d57600080fd5b8151612f72816134e2565b600060001982141561396c5761396c613812565b5060010190565b634e487b7160e01b600052604160045260246000fd5b6020808252818101527f4f776e61626c653a2063616c6c6572206973206e6f7420746865206f776e6572604082015260600190565b6020808252600a90820152696661696c6564204d744d60b01b604082015260600190565b6000828210156139f4576139f4613812565b500390565b600060208284031215613a0b57600080fd5b5051919050565b600082601f830112613a2357600080fd5b8151602067ffffffffffffffff80831115613a4057613a40613973565b8260051b604051601f19603f83011681018181108482111715613a6557613a65613973565b604052938452858101830193838101925087851115613a8357600080fd5b83870191505b84821015611bc557815183529183019190830190613a89565b600060208284031215613ab457600080fd5b815167ffffffffffffffff811115613acb57600080fd5b61393384828501613a12565b6001600160a01b0394851681529290931660208301526040820152606081019190915260800190565b600060208284031215613b1257600080fd5b8151612f72816136cf565b600081613b2c57613b2c613812565b506000190190565b60008060408385031215613b4757600080fd5b825167ffffffffffffffff80821115613b5f57600080fd5b613b6b86838701613a12565b93506020850151915080821115613b8157600080fd5b50613b8e85828601613a12565b9150509250929050565b606081526000613bab60608301866135f0565b8281036020840152613bbd81866135f0565b915050826040830152949350505050565b6001600160a01b03888116825287166020820152604081018690526060810185905260e060808201819052600090613c08908301866135f0565b82810360a0840152613c1a81866135f0565b905082810360c0840152613c2e81856135f0565b9a9950505050505050505050565b6020808252602e908201527f496e697469616c697a61626c653a20636f6e747261637420697320616c72656160408201526d191e481a5b9a5d1a585b1a5e995960921b606082015260800190565b602081526000612f7260208301846138cd56fea264697066735822122013d3724642881d4e7572816794c15bdd16981c94a892fe538af67c74372c720264736f6c63430008090033",
  "libraries": {
    "DiscountFactor": "0x4Ec63E688480eb91f62D2284B34Ca81cffEF3fF3",
    "DealId": "0xcB999fa6D427dfF9ce21bd43D11942134A95BE13"
  },
  "devdoc": {
    "kind": "dev",
    "methods": {
      "acceptTermination(bytes32)": {
        "details": "Triggers to accept early termination of the loan.",
        "params": {
          "loanId": "Loan deal ID"
        }
      },
      "acceptedContracts()": {
        "details": "Returns contract names that can call this contract."
      },
      "addLendingMarket(bytes32,uint256,address)": {
        "details": "Triggers to link with existing LendingMarket.",
        "params": {
          "_ccy": "LendingMarket main currency",
          "_term": "LendingMarket term",
          "addr": "LendingMarket contract address"
        }
      },
      "getDealCurrency(bytes32)": {
        "details": "Triggers to get main currency the deal by `dealId`.",
        "params": {
          "loanId": "Loan deal ID"
        }
      },
      "getDealLastPV(address,address,bytes32)": {
        "details": "Triggers to get stored present value of loan deal.",
        "params": {
          "loanId": "Loan ID to update PV for"
        }
      },
      "getDealPV(bytes32)": {
        "details": "Triggers to recalculate present value of loan deal.",
        "params": {
          "loanId": "Loan ID to update PV for"
        }
      },
      "getDealSettlementStatus(bytes32)": {
        "details": "Triggers to get settlement status of loan deal.",
        "params": {
          "loanId": "Loan deal ID"
        }
      },
      "getLastSettledPayment(bytes32)": {
        "details": "Returns the timestamp of the last settled payment in payment schedule",
        "params": {
          "loanId": "Loan deal ID"
        }
      },
      "getLoanDeal(bytes32)": {
        "details": "Triggers to get current information about Loan deal.",
        "params": {
          "loanId": "Loan deal ID"
        }
      },
      "getPaymentSchedule(bytes32)": {
        "details": "Returns the payment schedule for a deal by `loanId`",
        "params": {
          "loanId": "Loan deal ID"
        }
      },
      "getTerminationState(bytes32)": {
        "details": "Triggers to get termination state for loan with `loanId`.",
        "params": {
          "loanId": "Loan deal ID"
        }
      },
      "getVersion()": {
        "details": "Triggers to return loan product implementation version",
        "returns": {
          "_0": "implementation version"
        }
      },
      "initialize(address,address)": {
        "details": "Function is invoked by the proxy contract when the contract is added to the ProxyController"
      },
      "isTransferable()": {
        "details": "Get if loan ownership can be transferred."
      },
      "lastLoanId()": {
        "details": "Get the last loan ID."
      },
      "lendingMarkets(bytes32,uint256)": {
        "details": "Get the lending market address for specific currency and term."
      },
      "markToMarket(bytes32)": {
        "details": "Main function for mark-to-market: updates present value, loan state and liquidates loan deal if collateral coverage <125% for every liquidation msg.sender get rewarded ~5% of loan deal PV.",
        "params": {
          "loanId": "Loan ID to update PV for"
        }
      },
      "novation(bytes32,address)": {
        "details": "Triggers to transfer loan ownership.",
        "params": {
          "loanId": "Loan deal ID",
          "newOwner": "Address of new owner (lender)"
        }
      },
      "owner()": {
        "details": "Returns the address of the current owner."
      },
      "register(address,address,uint8,bytes32,uint256,uint256,uint256)": {
        "details": "Triggered to register new loan deal, also locks borrowers collateral.",
        "params": {
          "ccy": "Loan deal main currency",
          "maker": "LendingMarket order market maker",
          "notional": "Notional amount of funds to lend/borrow",
          "rate": "Loan deal annual interest rate",
          "side": "MarketOrder side",
          "taker": "LendingMarket order market taker",
          "term": "Loan deal term"
        }
      },
      "rejectTermination(bytes32)": {
        "details": "Triggers to reject early termination of the loan.",
        "params": {
          "loanId": "Loan deal ID"
        }
      },
      "renounceOwnership()": {
        "details": "Leaves the contract without owner. It will not be possible to call `onlyOwner` functions anymore. Can only be called by the current owner. NOTE: Renouncing ownership will leave the contract without an owner, thereby removing any functionality that is only available to the owner."
      },
      "requestTermination(bytes32)": {
        "details": "Triggers to request early termination of the loan.",
        "params": {
          "loanId": "Loan deal ID"
        }
      },
      "requiredContracts()": {
        "details": "Returns required contract names in this contract"
      },
      "setIsTransferable(bool)": {
        "details": "Triggers to change ability to transfer loan ownership by lenders.",
        "params": {
          "isAccepted": "Boolean to"
        }
      },
      "transferOwnership(address)": {
        "details": "Transfers ownership of the contract to a new account (`newOwner`). Can only be called by the current owner."
      }
    },
    "title": "LoanV2 contract is used to store Lending deals in Secured Finance protocol. This contract handle the PV updates on lending market rate changes also allowing parties to mutually terminate their lending deals Contract linked to Lending Market contracts, LendingMarketController and Collateral contract.",
    "version": 1
  },
  "userdoc": {
    "kind": "user",
    "methods": {
      "acceptTermination(bytes32)": {
        "notice": "Executed only for working loan deal"
      },
      "addLendingMarket(bytes32,uint256,address)": {
        "notice": "Executed only by contract owner"
      },
      "initialize(address,address)": {
        "notice": "Initializes the contract."
      },
      "novation(bytes32,address)": {
        "notice": "Executed only by original lender"
      },
      "register(address,address,uint8,bytes32,uint256,uint256,uint256)": {
        "notice": "Callable only by LendingMarket after matching orders"
      },
      "rejectTermination(bytes32)": {
        "notice": "Executed only for working loan deal"
      },
      "requestTermination(bytes32)": {
        "notice": "Executed only for working loan deal"
      },
      "setIsTransferable(bool)": {
        "notice": "Executed only by contract owner"
      }
    },
    "version": 1
  },
  "storageLayout": {
    "storage": [
      {
        "astId": 35871,
        "contract": "contracts/LoanV2.sol:LoanV2",
        "label": "resolver",
        "offset": 0,
        "slot": "0",
        "type": "t_contract(IAddressResolver)23433"
      },
      {
        "astId": 35875,
        "contract": "contracts/LoanV2.sol:LoanV2",
        "label": "addressCache",
        "offset": 0,
        "slot": "1",
        "type": "t_mapping(t_bytes32,t_address)"
      },
      {
        "astId": 2990,
        "contract": "contracts/LoanV2.sol:LoanV2",
        "label": "_initialized",
        "offset": 0,
        "slot": "2",
        "type": "t_uint8"
      },
      {
        "astId": 2993,
        "contract": "contracts/LoanV2.sol:LoanV2",
        "label": "_initializing",
        "offset": 1,
        "slot": "2",
        "type": "t_bool"
      }
    ],
    "types": {
      "t_address": {
        "encoding": "inplace",
        "label": "address",
        "numberOfBytes": "20"
      },
      "t_bool": {
        "encoding": "inplace",
        "label": "bool",
        "numberOfBytes": "1"
      },
      "t_bytes32": {
        "encoding": "inplace",
        "label": "bytes32",
        "numberOfBytes": "32"
      },
      "t_contract(IAddressResolver)23433": {
        "encoding": "inplace",
        "label": "contract IAddressResolver",
        "numberOfBytes": "20"
      },
      "t_mapping(t_bytes32,t_address)": {
        "encoding": "mapping",
        "key": "t_bytes32",
        "label": "mapping(bytes32 => address)",
        "numberOfBytes": "32",
        "value": "t_address"
      },
      "t_uint8": {
        "encoding": "inplace",
        "label": "uint8",
        "numberOfBytes": "1"
      }
    }
  }
}