{
  "address": "0xb7e779dC6849eD5f81E5FAE12fFaa6939A4Dcd29",
  "abi": [
    {
      "inputs": [
        {
          "internalType": "address",
          "name": "link",
          "type": "address"
        },
        {
          "internalType": "address",
          "name": "owner",
          "type": "address"
        }
      ],
      "stateMutability": "nonpayable",
      "type": "constructor"
    },
    {
      "anonymous": false,
      "inputs": [
        {
          "indexed": false,
          "internalType": "address[]",
          "name": "senders",
          "type": "address[]"
        },
        {
          "indexed": false,
          "internalType": "address",
          "name": "changedBy",
          "type": "address"
        }
      ],
      "name": "AuthorizedSendersChanged",
      "type": "event"
    },
    {
      "anonymous": false,
      "inputs": [
        {
          "indexed": true,
          "internalType": "bytes32",
          "name": "requestId",
          "type": "bytes32"
        }
      ],
      "name": "CancelOracleRequest",
      "type": "event"
    },
    {
      "anonymous": false,
      "inputs": [
        {
          "indexed": true,
          "internalType": "bytes32",
          "name": "specId",
          "type": "bytes32"
        },
        {
          "indexed": false,
          "internalType": "address",
          "name": "requester",
          "type": "address"
        },
        {
          "indexed": false,
          "internalType": "bytes32",
          "name": "requestId",
          "type": "bytes32"
        },
        {
          "indexed": false,
          "internalType": "uint256",
          "name": "payment",
          "type": "uint256"
        },
        {
          "indexed": false,
          "internalType": "address",
          "name": "callbackAddr",
          "type": "address"
        },
        {
          "indexed": false,
          "internalType": "bytes4",
          "name": "callbackFunctionId",
          "type": "bytes4"
        },
        {
          "indexed": false,
          "internalType": "uint256",
          "name": "cancelExpiration",
          "type": "uint256"
        },
        {
          "indexed": false,
          "internalType": "uint256",
          "name": "dataVersion",
          "type": "uint256"
        },
        {
          "indexed": false,
          "internalType": "bytes",
          "name": "data",
          "type": "bytes"
        }
      ],
      "name": "OracleRequest",
      "type": "event"
    },
    {
      "anonymous": false,
      "inputs": [
        {
          "indexed": true,
          "internalType": "bytes32",
          "name": "requestId",
          "type": "bytes32"
        }
      ],
      "name": "OracleResponse",
      "type": "event"
    },
    {
      "anonymous": false,
      "inputs": [
        {
          "indexed": true,
          "internalType": "address",
          "name": "acceptedContract",
          "type": "address"
        }
      ],
      "name": "OwnableContractAccepted",
      "type": "event"
    },
    {
      "anonymous": false,
      "inputs": [
        {
          "indexed": true,
          "internalType": "address",
          "name": "from",
          "type": "address"
        },
        {
          "indexed": true,
          "internalType": "address",
          "name": "to",
          "type": "address"
        }
      ],
      "name": "OwnershipTransferRequested",
      "type": "event"
    },
    {
      "anonymous": false,
      "inputs": [
        {
          "indexed": true,
          "internalType": "address",
          "name": "from",
          "type": "address"
        },
        {
          "indexed": true,
          "internalType": "address",
          "name": "to",
          "type": "address"
        }
      ],
      "name": "OwnershipTransferred",
      "type": "event"
    },
    {
      "anonymous": false,
      "inputs": [
        {
          "indexed": false,
          "internalType": "address[]",
          "name": "targets",
          "type": "address[]"
        },
        {
          "indexed": false,
          "internalType": "address[]",
          "name": "senders",
          "type": "address[]"
        },
        {
          "indexed": false,
          "internalType": "address",
          "name": "changedBy",
          "type": "address"
        }
      ],
      "name": "TargetsUpdatedAuthorizedSenders",
      "type": "event"
    },
    {
      "inputs": [
        {
          "internalType": "address[]",
          "name": "targets",
          "type": "address[]"
        },
        {
          "internalType": "address[]",
          "name": "senders",
          "type": "address[]"
        }
      ],
      "name": "acceptAuthorizedReceivers",
      "outputs": [],
      "stateMutability": "nonpayable",
      "type": "function"
    },
    {
      "inputs": [
        {
          "internalType": "address[]",
          "name": "ownable",
          "type": "address[]"
        }
      ],
      "name": "acceptOwnableContracts",
      "outputs": [],
      "stateMutability": "nonpayable",
      "type": "function"
    },
    {
      "inputs": [],
      "name": "acceptOwnership",
      "outputs": [],
      "stateMutability": "nonpayable",
      "type": "function"
    },
    {
      "inputs": [
        {
          "internalType": "bytes32",
          "name": "requestId",
          "type": "bytes32"
        },
        {
          "internalType": "uint256",
          "name": "payment",
          "type": "uint256"
        },
        {
          "internalType": "bytes4",
          "name": "callbackFunc",
          "type": "bytes4"
        },
        {
          "internalType": "uint256",
          "name": "expiration",
          "type": "uint256"
        }
      ],
      "name": "cancelOracleRequest",
      "outputs": [],
      "stateMutability": "nonpayable",
      "type": "function"
    },
    {
      "inputs": [
        {
          "internalType": "uint256",
          "name": "nonce",
          "type": "uint256"
        },
        {
          "internalType": "uint256",
          "name": "payment",
          "type": "uint256"
        },
        {
          "internalType": "bytes4",
          "name": "callbackFunc",
          "type": "bytes4"
        },
        {
          "internalType": "uint256",
          "name": "expiration",
          "type": "uint256"
        }
      ],
      "name": "cancelOracleRequestByRequester",
      "outputs": [],
      "stateMutability": "nonpayable",
      "type": "function"
    },
    {
      "inputs": [
        {
          "internalType": "address payable[]",
          "name": "receivers",
          "type": "address[]"
        },
        {
          "internalType": "uint256[]",
          "name": "amounts",
          "type": "uint256[]"
        }
      ],
      "name": "distributeFunds",
      "outputs": [],
      "stateMutability": "payable",
      "type": "function"
    },
    {
      "inputs": [
        {
          "internalType": "bytes32",
          "name": "requestId",
          "type": "bytes32"
        },
        {
          "internalType": "uint256",
          "name": "payment",
          "type": "uint256"
        },
        {
          "internalType": "address",
          "name": "callbackAddress",
          "type": "address"
        },
        {
          "internalType": "bytes4",
          "name": "callbackFunctionId",
          "type": "bytes4"
        },
        {
          "internalType": "uint256",
          "name": "expiration",
          "type": "uint256"
        },
        {
          "internalType": "bytes32",
          "name": "data",
          "type": "bytes32"
        }
      ],
      "name": "fulfillOracleRequest",
      "outputs": [
        {
          "internalType": "bool",
          "name": "",
          "type": "bool"
        }
      ],
      "stateMutability": "nonpayable",
      "type": "function"
    },
    {
      "inputs": [
        {
          "internalType": "bytes32",
          "name": "requestId",
          "type": "bytes32"
        },
        {
          "internalType": "uint256",
          "name": "payment",
          "type": "uint256"
        },
        {
          "internalType": "address",
          "name": "callbackAddress",
          "type": "address"
        },
        {
          "internalType": "bytes4",
          "name": "callbackFunctionId",
          "type": "bytes4"
        },
        {
          "internalType": "uint256",
          "name": "expiration",
          "type": "uint256"
        },
        {
          "internalType": "bytes",
          "name": "data",
          "type": "bytes"
        }
      ],
      "name": "fulfillOracleRequest2",
      "outputs": [
        {
          "internalType": "bool",
          "name": "",
          "type": "bool"
        }
      ],
      "stateMutability": "nonpayable",
      "type": "function"
    },
    {
      "inputs": [],
      "name": "getAuthorizedSenders",
      "outputs": [
        {
          "internalType": "address[]",
          "name": "",
          "type": "address[]"
        }
      ],
      "stateMutability": "view",
      "type": "function"
    },
    {
      "inputs": [],
      "name": "getChainlinkToken",
      "outputs": [
        {
          "internalType": "address",
          "name": "",
          "type": "address"
        }
      ],
      "stateMutability": "view",
      "type": "function"
    },
    {
      "inputs": [],
      "name": "getExpiryTime",
      "outputs": [
        {
          "internalType": "uint256",
          "name": "",
          "type": "uint256"
        }
      ],
      "stateMutability": "view",
      "type": "function"
    },
    {
      "inputs": [
        {
          "internalType": "address",
          "name": "sender",
          "type": "address"
        }
      ],
      "name": "isAuthorizedSender",
      "outputs": [
        {
          "internalType": "bool",
          "name": "",
          "type": "bool"
        }
      ],
      "stateMutability": "view",
      "type": "function"
    },
    {
      "inputs": [
        {
          "internalType": "address",
          "name": "sender",
          "type": "address"
        },
        {
          "internalType": "uint256",
          "name": "amount",
          "type": "uint256"
        },
        {
          "internalType": "bytes",
          "name": "data",
          "type": "bytes"
        }
      ],
      "name": "onTokenTransfer",
      "outputs": [],
      "stateMutability": "nonpayable",
      "type": "function"
    },
    {
      "inputs": [
        {
          "internalType": "address",
          "name": "sender",
          "type": "address"
        },
        {
          "internalType": "uint256",
          "name": "payment",
          "type": "uint256"
        },
        {
          "internalType": "bytes32",
          "name": "specId",
          "type": "bytes32"
        },
        {
          "internalType": "bytes4",
          "name": "callbackFunctionId",
          "type": "bytes4"
        },
        {
          "internalType": "uint256",
          "name": "nonce",
          "type": "uint256"
        },
        {
          "internalType": "uint256",
          "name": "dataVersion",
          "type": "uint256"
        },
        {
          "internalType": "bytes",
          "name": "data",
          "type": "bytes"
        }
      ],
      "name": "operatorRequest",
      "outputs": [],
      "stateMutability": "nonpayable",
      "type": "function"
    },
    {
      "inputs": [
        {
          "internalType": "address",
          "name": "sender",
          "type": "address"
        },
        {
          "internalType": "uint256",
          "name": "payment",
          "type": "uint256"
        },
        {
          "internalType": "bytes32",
          "name": "specId",
          "type": "bytes32"
        },
        {
          "internalType": "address",
          "name": "callbackAddress",
          "type": "address"
        },
        {
          "internalType": "bytes4",
          "name": "callbackFunctionId",
          "type": "bytes4"
        },
        {
          "internalType": "uint256",
          "name": "nonce",
          "type": "uint256"
        },
        {
          "internalType": "uint256",
          "name": "dataVersion",
          "type": "uint256"
        },
        {
          "internalType": "bytes",
          "name": "data",
          "type": "bytes"
        }
      ],
      "name": "oracleRequest",
      "outputs": [],
      "stateMutability": "nonpayable",
      "type": "function"
    },
    {
      "inputs": [],
      "name": "owner",
      "outputs": [
        {
          "internalType": "address",
          "name": "",
          "type": "address"
        }
      ],
      "stateMutability": "view",
      "type": "function"
    },
    {
      "inputs": [
        {
          "internalType": "address",
          "name": "to",
          "type": "address"
        },
        {
          "internalType": "bytes",
          "name": "data",
          "type": "bytes"
        }
      ],
      "name": "ownerForward",
      "outputs": [],
      "stateMutability": "nonpayable",
      "type": "function"
    },
    {
      "inputs": [
        {
          "internalType": "address",
          "name": "to",
          "type": "address"
        },
        {
          "internalType": "uint256",
          "name": "value",
          "type": "uint256"
        },
        {
          "internalType": "bytes",
          "name": "data",
          "type": "bytes"
        }
      ],
      "name": "ownerTransferAndCall",
      "outputs": [
        {
          "internalType": "bool",
          "name": "success",
          "type": "bool"
        }
      ],
      "stateMutability": "nonpayable",
      "type": "function"
    },
    {
      "inputs": [
        {
          "internalType": "address[]",
          "name": "senders",
          "type": "address[]"
        }
      ],
      "name": "setAuthorizedSenders",
      "outputs": [],
      "stateMutability": "nonpayable",
      "type": "function"
    },
    {
      "inputs": [
        {
          "internalType": "address[]",
          "name": "targets",
          "type": "address[]"
        },
        {
          "internalType": "address[]",
          "name": "senders",
          "type": "address[]"
        }
      ],
      "name": "setAuthorizedSendersOn",
      "outputs": [],
      "stateMutability": "nonpayable",
      "type": "function"
    },
    {
      "inputs": [
        {
          "internalType": "address[]",
          "name": "ownable",
          "type": "address[]"
        },
        {
          "internalType": "address",
          "name": "newOwner",
          "type": "address"
        }
      ],
      "name": "transferOwnableContracts",
      "outputs": [],
      "stateMutability": "nonpayable",
      "type": "function"
    },
    {
      "inputs": [
        {
          "internalType": "address",
          "name": "to",
          "type": "address"
        }
      ],
      "name": "transferOwnership",
      "outputs": [],
      "stateMutability": "nonpayable",
      "type": "function"
    },
    {
      "inputs": [],
      "name": "typeAndVersion",
      "outputs": [
        {
          "internalType": "string",
          "name": "",
          "type": "string"
        }
      ],
      "stateMutability": "pure",
      "type": "function"
    },
    {
      "inputs": [
        {
          "internalType": "address",
          "name": "recipient",
          "type": "address"
        },
        {
          "internalType": "uint256",
          "name": "amount",
          "type": "uint256"
        }
      ],
      "name": "withdraw",
      "outputs": [],
      "stateMutability": "nonpayable",
      "type": "function"
    },
    {
      "inputs": [],
      "name": "withdrawable",
      "outputs": [
        {
          "internalType": "uint256",
          "name": "",
          "type": "uint256"
        }
      ],
      "stateMutability": "view",
      "type": "function"
    }
  ],
  "transactionHash": "0x5c5c502938375c839fc7fe1dd55346079317e9008c50f5cb48242f953d4cdc0f",
  "args": [
    "0x01BE23585060835E02B77ef475b0Cc51aA1e0709",
    "0xDBA767F3DFF3835BEf5dE1eDEe91A9901402AB21"
  ],
  "numDeployments": 1,
  "solcInputHash": "33ab013f16080b065b167e94c959eec8",
  "bytecode": "0x60a060405260016006553480156200001657600080fd5b50604051620030df380380620030df833981810160405260408110156200003c57600080fd5b508051602090910151808060006001600160a01b038216620000a5576040805162461bcd60e51b815260206004820152601860248201527f43616e6e6f7420736574206f776e657220746f207a65726f0000000000000000604482015290519081900360640190fd5b600280546001600160a01b0319166001600160a01b0384811691909117909155811615620000d857620000d881620000f2565b5050505060601b6001600160601b031916608052620001a3565b6001600160a01b03811633141562000151576040805162461bcd60e51b815260206004820152601760248201527f43616e6e6f74207472616e7366657220746f2073656c66000000000000000000604482015290519081900360640190fd5b600380546001600160a01b0319166001600160a01b03838116918217909255600254604051919216907fed8889f560326eb138920d842192f0eb3dd22b4f139c87a2c57538e05bae127890600090a350565b60805160601c612efb620001e460003980610ddd5280610f755280611bef5280611d7f528061214752806123e452806126e25280612a3d5250612efb6000f3fe6080604052600436106101665760003560e01c80636ae0bc76116100d1578063a4c0ed361161008a578063f2fde38b11610064578063f2fde38b14610aed578063f3fef3a314610b20578063fa00763a14610b59578063fc4a03ed14610b8c57610166565b8063a4c0ed3614610966578063eb007d9914610a2c578063ee56997b14610a7257610166565b80636ae0bc76146106fb5780636bd59ec0146107a85780636ee4d5531461086657806379ba5097146108ac5780638da5cb5b146108c1578063902fc370146108d657610166565b80633c6d41b9116101235780633c6d41b9146103ba5780633ec5bc141461046c57806340429946146104f05780634ab0d190146105ac578063501883011461061b5780635ffa62881461063057610166565b806301994b991461016b578063033f49f7146101e8578063165d35e114610273578063181f5a77146102a45780632408afaa1461032e57806325cb5bc014610393575b600080fd5b34801561017757600080fd5b506101e66004803603602081101561018e57600080fd5b810190602081018135600160201b8111156101a857600080fd5b8201836020820111156101ba57600080fd5b803590602001918460208302840111600160201b831117156101db57600080fd5b509092509050610c57565b005b3480156101f457600080fd5b506101e66004803603604081101561020b57600080fd5b6001600160a01b038235169190810190604081016020820135600160201b81111561023557600080fd5b82018360208201111561024757600080fd5b803590602001918460018302840111600160201b8311171561026857600080fd5b509092509050610dd2565b34801561027f57600080fd5b50610288610f73565b604080516001600160a01b039092168252519081900360200190f35b3480156102b057600080fd5b506102b9610f97565b6040805160208082528351818301528351919283929083019185019080838360005b838110156102f35781810151838201526020016102db565b50505050905090810190601f1680156103205780820380516001836020036101000a031916815260200191505b509250505060405180910390f35b34801561033a57600080fd5b50610343610fbf565b60408051602080825283518183015283519192839290830191858101910280838360005b8381101561037f578181015183820152602001610367565b505050509050019250505060405180910390f35b34801561039f57600080fd5b506103a8611021565b60408051918252519081900360200190f35b3480156103c657600080fd5b506101e6600480360360e08110156103dd57600080fd5b6001600160a01b03823516916020810135916040820135916001600160e01b03196060820135169160808201359160a08101359181019060e0810160c0820135600160201b81111561042e57600080fd5b82018360208201111561044057600080fd5b803590602001918460018302840111600160201b8311171561046157600080fd5b509092509050611027565b34801561047857600080fd5b506101e66004803603604081101561048f57600080fd5b810190602081018135600160201b8111156104a957600080fd5b8201836020820111156104bb57600080fd5b803590602001918460208302840111600160201b831117156104dc57600080fd5b9193509150356001600160a01b0316611160565b3480156104fc57600080fd5b506101e6600480360361010081101561051457600080fd5b6001600160a01b038235811692602081013592604082013592606083013516916001600160e01b03196080820135169160a08201359160c081013591810190610100810160e0820135600160201b81111561056e57600080fd5b82018360208201111561058057600080fd5b803590602001918460018302840111600160201b831117156105a157600080fd5b509092509050611260565b3480156105b857600080fd5b50610607600480360360c08110156105cf57600080fd5b508035906020810135906001600160a01b03604082013516906001600160e01b03196060820135169060808101359060a0013561139a565b604080519115158252519081900360200190f35b34801561062757600080fd5b506103a8611602565b34801561063c57600080fd5b506101e66004803603604081101561065357600080fd5b810190602081018135600160201b81111561066d57600080fd5b82018360208201111561067f57600080fd5b803590602001918460208302840111600160201b831117156106a057600080fd5b919390929091602081019035600160201b8111156106bd57600080fd5b8201836020820111156106cf57600080fd5b803590602001918460208302840111600160201b831117156106f057600080fd5b509092509050611611565b34801561070757600080fd5b50610607600480360360c081101561071e57600080fd5b8135916020810135916001600160a01b03604083013516916001600160e01b0319606082013516916080820135919081019060c0810160a0820135600160201b81111561076a57600080fd5b82018360208201111561077c57600080fd5b803590602001918460018302840111600160201b8311171561079d57600080fd5b50909250905061166e565b6101e6600480360360408110156107be57600080fd5b810190602081018135600160201b8111156107d857600080fd5b8201836020820111156107ea57600080fd5b803590602001918460208302840111600160201b8311171561080b57600080fd5b919390929091602081019035600160201b81111561082857600080fd5b82018360208201111561083a57600080fd5b803590602001918460208302840111600160201b8311171561085b57600080fd5b509092509050611987565b34801561087257600080fd5b506101e66004803603608081101561088957600080fd5b508035906020810135906001600160e01b03196040820135169060600135611ac4565b3480156108b857600080fd5b506101e6611c6a565b3480156108cd57600080fd5b50610288611d1d565b3480156108e257600080fd5b50610607600480360360608110156108f957600080fd5b6001600160a01b0382351691602081013591810190606081016040820135600160201b81111561092857600080fd5b82018360208201111561093a57600080fd5b803590602001918460018302840111600160201b8311171561095b57600080fd5b509092509050611d2c565b34801561097257600080fd5b506101e66004803603606081101561098957600080fd5b6001600160a01b0382351691602081013591810190606081016040820135600160201b8111156109b857600080fd5b8201836020820111156109ca57600080fd5b803590602001918460018302840111600160201b831117156109eb57600080fd5b91908080601f016020809104026020016040519081016040528093929190818152602001838380828437600092019190915250929550611e5e945050505050565b348015610a3857600080fd5b506101e660048036036080811015610a4f57600080fd5b508035906020810135906001600160e01b03196040820135169060600135611fdd565b348015610a7e57600080fd5b506101e660048036036020811015610a9557600080fd5b810190602081018135600160201b811115610aaf57600080fd5b820183602082011115610ac157600080fd5b803590602001918460208302840111600160201b83111715610ae257600080fd5b5090925090506121c3565b348015610af957600080fd5b506101e660048036036020811015610b1057600080fd5b50356001600160a01b031661237f565b348015610b2c57600080fd5b506101e660048036036040811015610b4357600080fd5b506001600160a01b038135169060200135612393565b348015610b6557600080fd5b5061060760048036036020811015610b7c57600080fd5b50356001600160a01b031661248b565b348015610b9857600080fd5b506101e660048036036040811015610baf57600080fd5b810190602081018135600160201b811115610bc957600080fd5b820183602082011115610bdb57600080fd5b803590602001918460208302840111600160201b83111715610bfc57600080fd5b919390929091602081019035600160201b811115610c1957600080fd5b820183602082011115610c2b57600080fd5b803590602001918460208302840111600160201b83111715610c4c57600080fd5b5090925090506124a9565b610c5f612653565b610c9e576040805162461bcd60e51b815260206004820152601d6024820152600080516020612e4b833981519152604482015290519081900360640190fd5b60005b81811015610dcd57600160056000858585818110610cbb57fe5b905060200201356001600160a01b03166001600160a01b03166001600160a01b0316815260200190815260200160002060006101000a81548160ff021916908315150217905550828282818110610d0e57fe5b905060200201356001600160a01b03166001600160a01b03167f615a0c1cb00a60d4acd77ec67acf2f17f223ef0932d591052fabc33643fe7e8260405160405180910390a2828282818110610d5f57fe5b905060200201356001600160a01b03166001600160a01b03166379ba50976040518163ffffffff1660e01b8152600401600060405180830381600087803b158015610da957600080fd5b505af1158015610dbd573d6000803e3d6000fd5b505060019092019150610ca19050565b505050565b610dda61267c565b827f00000000000000000000000000000000000000000000000000000000000000006001600160a01b0316816001600160a01b03161415610e58576040805162461bcd60e51b815260206004820152601360248201527243616e6e6f742063616c6c20746f204c494e4b60681b604482015290519081900360640190fd5b610e6a846001600160a01b03166126d6565b610ebb576040805162461bcd60e51b815260206004820152601a60248201527f4d75737420666f727761726420746f206120636f6e7472616374000000000000604482015290519081900360640190fd5b6000846001600160a01b03168484604051808383808284376040519201945060009350909150508083038183865af19150503d8060008114610f19576040519150601f19603f3d011682016040523d82523d6000602084013e610f1e565b606091505b5050905080610f6c576040805162461bcd60e51b8152602060048201526015602482015274119bdc9dd85c9919590818d85b1b0819985a5b1959605a1b604482015290519081900360640190fd5b5050505050565b7f000000000000000000000000000000000000000000000000000000000000000090565b60408051808201909152600e81526d04f70657261746f7220312e302e360941b602082015290565b6060600180548060200260200160405190810160405280929190818152602001828054801561101757602002820191906000526020600020905b81546001600160a01b03168152600190910190602001808311610ff9575b5050505050905090565b61012c81565b61102f610f73565b6001600160a01b0316336001600160a01b03161461108a576040805162461bcd60e51b815260206004820152601360248201527226bab9ba103ab9b2902624a725903a37b5b2b760691b604482015290519081900360640190fd5b60008061109b8a8a8c8a8a8a6126dc565b91509150877fd8d7ecc4800d25fa53ce0372f13a416d98907a7ef3d8d3bdd79cf4fe75529c658b848c8e8c878c8c8c604051808a6001600160a01b03168152602001898152602001888152602001876001600160a01b03168152602001866001600160e01b0319168152602001858152602001848152602001806020018281038252848482818152602001925080828437600083820152604051601f909101601f19169092018290039c50909a5050505050505050505050a250505050505050505050565b61116861267c565b60005b8281101561125a5760006005600086868581811061118557fe5b905060200201356001600160a01b03166001600160a01b03166001600160a01b0316815260200190815260200160002060006101000a81548160ff0219169083151502179055508383828181106111d857fe5b905060200201356001600160a01b03166001600160a01b031663f2fde38b836040518263ffffffff1660e01b815260040180826001600160a01b03168152602001915050600060405180830381600087803b15801561123657600080fd5b505af115801561124a573d6000803e3d6000fd5b50506001909201915061116b9050565b50505050565b611268610f73565b6001600160a01b0316336001600160a01b0316146112c3576040805162461bcd60e51b815260206004820152601360248201527226bab9ba103ab9b2902624a725903a37b5b2b760691b604482015290519081900360640190fd5b6000806112d48b8b8a8a8a8a6126dc565b91509150887fd8d7ecc4800d25fa53ce0372f13a416d98907a7ef3d8d3bdd79cf4fe75529c658c848d8f8c878c8c8c604051808a6001600160a01b03168152602001898152602001888152602001876001600160a01b03168152602001866001600160e01b0319168152602001858152602001848152602001806020018281038252848482818152602001925080828437600083820152604051601f909101601f19169092018290039c50909a5050505050505050505050a25050505050505050505050565b60006113a46128aa565b600087815260046020526040902054879060081b60ff191661140d576040805162461bcd60e51b815260206004820152601b60248201527f4d757374206861766520612076616c6964207265717565737449640000000000604482015290519081900360640190fd5b6001600160a01b038616600090815260056020526040902054869060ff161561147d576040805162461bcd60e51b815260206004820152601a60248201527f43616e6e6f742063616c6c206f776e656420636f6e7472616374000000000000604482015290519081900360640190fd5b61148c898989898960016128fc565b60405189907f9e9bc7616d42c2835d05ae617e508454e63b30b934be8aa932ebc125e0e58a6490600090a262061a805a101561150f576040805162461bcd60e51b815260206004820181905260248201527f4d7573742070726f7669646520636f6e73756d657220656e6f75676820676173604482015290519081900360640190fd5b60408051602481018b9052604480820187905282518083039091018152606490910182526020810180516001600160e01b03166001600160e01b03198a16178152915181516000936001600160a01b038c169392918291908083835b6020831061158a5780518252601f19909201916020918201910161156b565b6001836020036101000a0380198251168184511680821785525050505050509050019150506000604051808303816000865af19150503d80600081146115ec576040519150601f19603f3d011682016040523d82523d6000602084013e6115f1565b606091505b50909b9a5050505050505050505050565b600061160c612a1c565b905090565b611619612653565b611658576040805162461bcd60e51b815260206004820152601d6024820152600080516020612e4b833981519152604482015290519081900360640190fd5b6116628484610c57565b61125a848484846124a9565b60006116786128aa565b600088815260046020526040902054889060081b60ff19166116e1576040805162461bcd60e51b815260206004820152601b60248201527f4d757374206861766520612076616c6964207265717565737449640000000000604482015290519081900360640190fd5b6001600160a01b038716600090815260056020526040902054879060ff1615611751576040805162461bcd60e51b815260206004820152601a60248201527f43616e6e6f742063616c6c206f776e656420636f6e7472616374000000000000604482015290519081900360640190fd5b89858560208110156117aa576040805162461bcd60e51b815260206004820152601b60248201527f526573706f6e7365206d757374206265203e2033322062797465730000000000604482015290519081900360640190fd5b60e435838114611801576040805162461bcd60e51b815260206004820152601c60248201527f466972737420776f7264206d7573742062652072657175657374496400000000604482015290519081900360640190fd5b6118108e8e8e8e8e60026128fc565b6040518e907f9e9bc7616d42c2835d05ae617e508454e63b30b934be8aa932ebc125e0e58a6490600090a262061a805a1015611893576040805162461bcd60e51b815260206004820181905260248201527f4d7573742070726f7669646520636f6e73756d657220656e6f75676820676173604482015290519081900360640190fd5b60008c6001600160a01b03168c8b8b60405160200180846001600160e01b03191681526004018383808284378083019250505093505050506040516020818303038152906040526040518082805190602001908083835b602083106119095780518252601f1990920191602091820191016118ea565b6001836020036101000a0380198251168184511680821785525050505050509050019150506000604051808303816000865af19150503d806000811461196b576040519150601f19603f3d011682016040523d82523d6000602084013e611970565b606091505b509098505050505050505050979650505050505050565b821580159061199557508281145b6119e6576040805162461bcd60e51b815260206004820152601760248201527f496e76616c6964206172726179206c656e677468287329000000000000000000604482015290519081900360640190fd5b3460005b84811015611a7c576000848483818110611a0057fe5b905060200201359050611a1c8184612ae090919063ffffffff16565b9250868683818110611a2a57fe5b905060200201356001600160a01b03166001600160a01b03166108fc829081150290604051600060405180830381858888f19350505050158015611a72573d6000803e3d6000fd5b50506001016119ea565b508015610f6c576040805162461bcd60e51b8152602060048201526011602482015270151bdbc81b5d58da08115512081cd95b9d607a1b604482015290519081900360640190fd5b6000611ad284338585612b3d565b60008681526004602052604090205490915060081b60ff1990811690821614611b42576040805162461bcd60e51b815260206004820152601e60248201527f506172616d7320646f206e6f74206d6174636820726571756573742049440000604482015290519081900360640190fd5b42821115611b90576040805162461bcd60e51b815260206004820152601660248201527514995c5d595cdd081a5cc81b9bdd08195e1c1a5c995960521b604482015290519081900360640190fd5b6000858152600460205260408082208290555186917fa7842b9ec549398102c0d91b1b9919b2f20558aefdadf57528a95c6cd3292e9391a26040805163a9059cbb60e01b81523360048201526024810186905290516001600160a01b037f0000000000000000000000000000000000000000000000000000000000000000169163a9059cbb9160448083019260209291908290030181600087803b158015611c3757600080fd5b505af1158015611c4b573d6000803e3d6000fd5b505050506040513d6020811015611c6157600080fd5b50505050505050565b6003546001600160a01b03163314611cc2576040805162461bcd60e51b815260206004820152601660248201527526bab9ba10313290383937b837b9b2b21037bbb732b960511b604482015290519081900360640190fd5b600280546001600160a01b0319808216339081179093556003805490911690556040516001600160a01b03909116919082907f8be0079c531659141344cd1fd0a4f28419497f9722a3daafe3b4186f6b6457e090600090a350565b6002546001600160a01b031690565b6000611d3661267c565b8380611d40612a1c565b1015611d7d5760405162461bcd60e51b8152600401808060200182810382526035815260200180612e916035913960400191505060405180910390fd5b7f00000000000000000000000000000000000000000000000000000000000000006001600160a01b0316634000aea0878787876040518563ffffffff1660e01b815260040180856001600160a01b03168152602001848152602001806020018281038252848482818152602001925080828437600081840152601f19601f82011690508083019250505095505050505050602060405180830381600087803b158015611e2857600080fd5b505af1158015611e3c573d6000803e3d6000fd5b505050506040513d6020811015611e5257600080fd5b50519695505050505050565b611e66610f73565b6001600160a01b0316336001600160a01b031614611ec1576040805162461bcd60e51b815260206004820152601360248201527226bab9ba103ab9b2902624a725903a37b5b2b760691b604482015290519081900360640190fd5b60208101518190611ed28183612b97565b8460248401528360448401526000306001600160a01b0316846040518082805190602001908083835b60208310611f1a5780518252601f199092019160209182019101611efb565b6001836020036101000a038019825116818451168082178552505050505050905001915050600060405180830381855af49150503d8060008114611f7a576040519150601f19603f3d011682016040523d82523d6000602084013e611f7f565b606091505b5050905080611fd5576040805162461bcd60e51b815260206004820152601860248201527f556e61626c6520746f2063726561746520726571756573740000000000000000604482015290519081900360640190fd5b505050505050565b6000338560405160200180836001600160a01b031660601b815260140182815260200192505050604051602081830303815290604052805190602001209050600061202a85338686612b3d565b60008381526004602052604090205490915060081b60ff199081169082161461209a576040805162461bcd60e51b815260206004820152601e60248201527f506172616d7320646f206e6f74206d6174636820726571756573742049440000604482015290519081900360640190fd5b428311156120e8576040805162461bcd60e51b815260206004820152601660248201527514995c5d595cdd081a5cc81b9bdd08195e1c1a5c995960521b604482015290519081900360640190fd5b6000828152600460205260408082208290555183917fa7842b9ec549398102c0d91b1b9919b2f20558aefdadf57528a95c6cd3292e9391a26040805163a9059cbb60e01b81523360048201526024810187905290516001600160a01b037f0000000000000000000000000000000000000000000000000000000000000000169163a9059cbb9160448083019260209291908290030181600087803b15801561218f57600080fd5b505af11580156121a3573d6000803e3d6000fd5b505050506040513d60208110156121b957600080fd5b5050505050505050565b6121cb612653565b61220a576040805162461bcd60e51b815260206004820152601d6024820152600080516020612e4b833981519152604482015290519081900360640190fd5b806122465760405162461bcd60e51b8152600401808060200182810382526026815260200180612e6b6026913960400191505060405180910390fd5b60015460005b818110156122a25760008060006001848154811061226657fe5b6000918252602080832091909101546001600160a01b031683528201929092526040019020805460ff191691151591909117905560010161224c565b5060005b828110156122f85760016000808686858181106122bf57fe5b602090810292909201356001600160a01b0316835250810191909152604001600020805460ff19169115159190911790556001016122a6565b5061230560018484612dd1565b507ff263cfb3e4298332e776194610cf9fdc09ccb3ada8b9aa39764d882e11fbf0a08383336040518080602001836001600160a01b031681526020018281038252858582818152602001925060200280828437600083820152604051601f909101601f1916909201829003965090945050505050a1505050565b61238761267c565b61239081612c6b565b50565b61239b61267c565b80806123a5612a1c565b10156123e25760405162461bcd60e51b8152600401808060200182810382526035815260200180612e916035913960400191505060405180910390fd5b7f00000000000000000000000000000000000000000000000000000000000000006001600160a01b031663a9059cbb84846040518363ffffffff1660e01b815260040180836001600160a01b0316815260200182815260200192505050602060405180830381600087803b15801561245957600080fd5b505af115801561246d573d6000803e3d6000fd5b505050506040513d602081101561248357600080fd5b5051610dcd57fe5b6001600160a01b031660009081526020819052604090205460ff1690565b6124b1612653565b6124f0576040805162461bcd60e51b815260206004820152601d6024820152600080516020612e4b833981519152604482015290519081900360640190fd5b7f1bb185903e2cb2f1b303523128b60e314dea81df4f8d9b7351cadd344f6e77278484848433604051808060200180602001846001600160a01b031681526020018381038352888882818152602001925060200280828437600083820152601f01601f19169091018481038352868152602090810191508790870280828437600083820152604051601f909101601f1916909201829003995090975050505050505050a160005b83811015610f6c578484828181106125ab57fe5b905060200201356001600160a01b03166001600160a01b031663ee56997b84846040518363ffffffff1660e01b815260040180806020018281038252848482818152602001925060200280828437600081840152601f19601f8201169050808301925050509350505050600060405180830381600087803b15801561262f57600080fd5b505af1158015612643573d6000803e3d6000fd5b5050600190920191506125979050565b600061265e3361248b565b8061160c57503361266d611d1d565b6001600160a01b031614905090565b6002546001600160a01b031633146126d4576040805162461bcd60e51b815260206004820152601660248201527527b7363c9031b0b63630b1363290313c9037bbb732b960511b604482015290519081900360640190fd5b565b3b151590565b600080857f00000000000000000000000000000000000000000000000000000000000000006001600160a01b0316816001600160a01b0316141561275d576040805162461bcd60e51b815260206004820152601360248201527243616e6e6f742063616c6c20746f204c494e4b60681b604482015290519081900360640190fd5b6040805160608b901b6bffffffffffffffffffffffff191660208083019190915260348083018990528351808403909101815260549092018352815191810191909120600081815260049092529190205490935060081b60ff191615612801576040805162461bcd60e51b8152602060048201526014602482015273135d5cdd081d5cd94818481d5b9a5c5d5948125160621b604482015290519081900360640190fd5b61280d4261012c612d1b565b9150600061281d89898986612b3d565b905060405180604001604052808260ff1916815260200161283d87612d7c565b60ff9081169091526000868152600460209081526040909120835181549490920151909216600160f81b0260089190911c6001600160f81b0319909316929092176001600160f81b031691909117905560065461289a908a612d1b565b6006555050965096945050505050565b6128b33361248b565b6126d4576040805162461bcd60e51b81526020600482015260156024820152742737ba1030baba3437b934bd32b21039b2b73232b960591b604482015290519081900360640190fd5b600061290a86868686612b3d565b60008881526004602052604090205490915060081b60ff199081169082161461297a576040805162461bcd60e51b815260206004820152601e60248201527f506172616d7320646f206e6f74206d6174636820726571756573742049440000604482015290519081900360640190fd5b61298382612d7c565b60008881526004602052604090205460ff918216600160f81b90910490911611156129f5576040805162461bcd60e51b815260206004820152601860248201527f446174612076657273696f6e73206d757374206d617463680000000000000000604482015290519081900360640190fd5b600654612a029087612ae0565b600655505050600093845250506004602052506040812055565b600080612a356001600654612ae090919063ffffffff16565b9050612ada817f00000000000000000000000000000000000000000000000000000000000000006001600160a01b03166370a08231306040518263ffffffff1660e01b815260040180826001600160a01b0316815260200191505060206040518083038186803b158015612aa857600080fd5b505afa158015612abc573d6000803e3d6000fd5b505050506040513d6020811015612ad257600080fd5b505190612ae0565b91505090565b600082821115612b37576040805162461bcd60e51b815260206004820152601e60248201527f536166654d6174683a207375627472616374696f6e206f766572666c6f770000604482015290519081900360640190fd5b50900390565b6040805160208082019690965260609490941b6bffffffffffffffffffffffff1916848201526001600160e01b03199290921660548401526058808401919091528151808403909101815260789092019052805191012090565b805160441115612be7576040805162461bcd60e51b8152602060048201526016602482015275092dcecc2d8d2c840e4cae2eacae6e840d8cadccee8d60531b604482015290519081900360640190fd5b6001600160e01b03198216633c6d41b960e01b1480612c1657506001600160e01b031982166320214ca360e11b145b612c67576040805162461bcd60e51b815260206004820152601e60248201527f4d757374207573652077686974656c69737465642066756e6374696f6e730000604482015290519081900360640190fd5b5050565b6001600160a01b038116331415612cc9576040805162461bcd60e51b815260206004820152601760248201527f43616e6e6f74207472616e7366657220746f2073656c66000000000000000000604482015290519081900360640190fd5b600380546001600160a01b0319166001600160a01b03838116918217909255600254604051919216907fed8889f560326eb138920d842192f0eb3dd22b4f139c87a2c57538e05bae127890600090a350565b600082820183811015612d75576040805162461bcd60e51b815260206004820152601b60248201527f536166654d6174683a206164646974696f6e206f766572666c6f770000000000604482015290519081900360640190fd5b9392505050565b60006101008210612dcd576040805162461bcd60e51b81526020600482015260166024820152751b9d5b58995c881d1bdbc8189a59c81d1bc818d85cdd60521b604482015290519081900360640190fd5b5090565b828054828255906000526020600020908101928215612e24579160200282015b82811115612e245781546001600160a01b0319166001600160a01b03843516178255602090920191600190910190612df1565b50612dcd9291505b80821115612dcd5780546001600160a01b0319168155600101612e2c56fe43616e6e6f742073657420617574686f72697a65642073656e646572730000004d7573742068617665206174206c65617374203120617574686f72697a65642073656e646572416d6f756e74207265717565737465642069732067726561746572207468616e20776974686472617761626c652062616c616e6365a2646970667358221220189aeadec8aeec24ba93a2521f30d3f34d4676a2a0f9df8e2cd129c3a813f7fe64736f6c63430007000033",
  "devdoc": {
    "kind": "dev",
    "methods": {
      "acceptAuthorizedReceivers(address[],address[])": {
        "params": {
          "senders": "The addresses that are allowed to send updates",
          "targets": "The addresses to set permissions on"
        }
      },
      "acceptOwnableContracts(address[])": {
        "details": "Must be the pending owner on the contract",
        "params": {
          "ownable": "list of addresses of Ownable contracts to accept"
        }
      },
      "cancelOracleRequest(bytes32,uint256,bytes4,uint256)": {
        "details": "Given params must hash to a commitment stored on the contract in order for the request to be valid. Emits CancelOracleRequest event.",
        "params": {
          "callbackFunc": "The requester's specified callback function selector",
          "expiration": "The time of the expiration for the request",
          "payment": "The amount of payment given (specified in wei)",
          "requestId": "The request ID"
        }
      },
      "cancelOracleRequestByRequester(uint256,uint256,bytes4,uint256)": {
        "details": "Given params must hash to a commitment stored on the contract in order for the request to be valid. Emits CancelOracleRequest event.",
        "params": {
          "callbackFunc": "The requester's specified callback function selector",
          "expiration": "The time of the expiration for the request",
          "nonce": "The nonce used to generate the request ID",
          "payment": "The amount of payment given (specified in wei)"
        }
      },
      "constructor": {
        "details": "Sets the LinkToken address for the imported LinkTokenInterface",
        "params": {
          "link": "The address of the LINK token",
          "owner": "The address of the owner"
        }
      },
      "distributeFunds(address[],uint256[])": {
        "details": "Array length must be equal, ETH sent must equal the sum of amounts. A malicious receiver could cause the distribution to revert, in which case it is expected that the address is removed from the list.",
        "params": {
          "amounts": "list of amounts",
          "receivers": "list of addresses"
        }
      },
      "fulfillOracleRequest(bytes32,uint256,address,bytes4,uint256,bytes32)": {
        "details": "Given params must hash back to the commitment stored from `oracleRequest`. Will call the callback address' callback function without bubbling up error checking in a `require` so that the node can get paid.",
        "params": {
          "callbackAddress": "The callback address to call for fulfillment",
          "callbackFunctionId": "The callback function ID to use for fulfillment",
          "data": "The data to return to the consuming contract",
          "expiration": "The expiration that the node should respond by before the requester can cancel",
          "payment": "The payment amount that will be released for the oracle (specified in wei)",
          "requestId": "The fulfillment request ID that must match the requester's"
        },
        "returns": {
          "_0": "Status if the external call was successful"
        }
      },
      "fulfillOracleRequest2(bytes32,uint256,address,bytes4,uint256,bytes)": {
        "details": "Given params must hash back to the commitment stored from `oracleRequest`. Will call the callback address' callback function without bubbling up error checking in a `require` so that the node can get paid.",
        "params": {
          "callbackAddress": "The callback address to call for fulfillment",
          "callbackFunctionId": "The callback function ID to use for fulfillment",
          "data": "The data to return to the consuming contract",
          "expiration": "The expiration that the node should respond by before the requester can cancel",
          "payment": "The payment amount that will be released for the oracle (specified in wei)",
          "requestId": "The fulfillment request ID that must match the requester's"
        },
        "returns": {
          "_0": "Status if the external call was successful"
        }
      },
      "getAuthorizedSenders()": {
        "returns": {
          "_0": "array of addresses"
        }
      },
      "getChainlinkToken()": {
        "details": "This is the public implementation for chainlinkTokenAddress, which is an internal method of the ChainlinkClient contract"
      },
      "isAuthorizedSender(address)": {
        "params": {
          "sender": "The address of the Chainlink node"
        },
        "returns": {
          "_0": "The authorization status of the node"
        }
      },
      "onTokenTransfer(address,uint256,bytes)": {
        "details": "The data payload's first 2 words will be overwritten by the `sender` and `amount` values to ensure correctness. Calls oracleRequest.",
        "params": {
          "amount": "Amount of LINK sent (specified in wei)",
          "data": "Payload of the transaction",
          "sender": "Address of the sender"
        }
      },
      "operatorRequest(address,uint256,bytes32,bytes4,uint256,uint256,bytes)": {
        "details": "Stores the hash of the params as the on-chain commitment for the request. Emits OracleRequest event for the Chainlink node to detect.",
        "params": {
          "callbackFunctionId": "The callback function ID for the response",
          "data": "The extra request parameters",
          "dataVersion": "The specified data version",
          "nonce": "The nonce sent by the requester",
          "payment": "The amount of payment given (specified in wei)",
          "sender": "The sender of the request",
          "specId": "The Job Specification ID"
        }
      },
      "oracleRequest(address,uint256,bytes32,address,bytes4,uint256,uint256,bytes)": {
        "params": {
          "callbackAddress": "The address the oracle data will be sent to",
          "callbackFunctionId": "The callback function ID for the response",
          "data": "The extra request parameters",
          "dataVersion": "The specified data version",
          "nonce": "The nonce sent by the requester",
          "payment": "The amount of payment given (specified in wei)",
          "specId": "The Job Specification ID"
        }
      },
      "ownerForward(address,bytes)": {
        "details": "Only callable by the owner",
        "params": {
          "data": "to forward",
          "to": "address"
        }
      },
      "ownerTransferAndCall(address,uint256,bytes)": {
        "params": {
          "data": "The extra data to be passed to the receiving contract.",
          "to": "The address to transfer to.",
          "value": "The amount to be transferred."
        },
        "returns": {
          "success": "bool"
        }
      },
      "setAuthorizedSenders(address[])": {
        "params": {
          "senders": "The addresses of the authorized Chainlink node"
        }
      },
      "setAuthorizedSendersOn(address[],address[])": {
        "params": {
          "senders": "The addresses that are allowed to send updates",
          "targets": "The addresses to set permissions on"
        }
      },
      "transferOwnableContracts(address[],address)": {
        "params": {
          "newOwner": "address to transfer ownership to",
          "ownable": "list of addresses to transfer"
        }
      },
      "typeAndVersion()": {
        "returns": {
          "_0": "Type and version string"
        }
      },
      "withdraw(address,uint256)": {
        "details": "The owner of the contract can be another wallet and does not have to be a Chainlink node",
        "params": {
          "amount": "The amount to send (specified in wei)",
          "recipient": "The address to send the LINK token to"
        }
      },
      "withdrawable()": {
        "details": "We use `ONE_FOR_CONSISTENT_GAS_COST` in place of 0 in storage",
        "returns": {
          "_0": "The amount of withdrawable LINK on the contract"
        }
      }
    },
    "title": "The Chainlink Operator contract",
    "version": 1
  },
  "userdoc": {
    "kind": "user",
    "methods": {
      "acceptAuthorizedReceivers(address[],address[])": {
        "notice": "Accepts ownership of ownable contracts and then immediately sets the authorized sender list on each of the newly owned contracts. This is primarily intended for Authorized Forwarders but could possibly be extended to work with future contracts."
      },
      "acceptOwnableContracts(address[])": {
        "notice": "Accept the ownership of an ownable contract. This is primarily intended for Authorized Forwarders but could possibly be extended to work with future contracts."
      },
      "acceptOwnership()": {
        "notice": "Allows an ownership transfer to be completed by the recipient."
      },
      "cancelOracleRequest(bytes32,uint256,bytes4,uint256)": {
        "notice": "Allows recipient to cancel requests sent to this oracle contract. Will transfer the LINK sent for the request back to the recipient address."
      },
      "cancelOracleRequestByRequester(uint256,uint256,bytes4,uint256)": {
        "notice": "Allows requester to cancel requests sent to this oracle contract. Will transfer the LINK sent for the request back to the recipient address."
      },
      "constructor": {
        "notice": "Deploy with the address of the LINK token"
      },
      "distributeFunds(address[],uint256[])": {
        "notice": "Distribute funds to multiple addresses using ETH send to this payable function."
      },
      "fulfillOracleRequest(bytes32,uint256,address,bytes4,uint256,bytes32)": {
        "notice": "Called by the Chainlink node to fulfill requests"
      },
      "fulfillOracleRequest2(bytes32,uint256,address,bytes4,uint256,bytes)": {
        "notice": "Called by the Chainlink node to fulfill requests with multi-word support"
      },
      "getAuthorizedSenders()": {
        "notice": "Retrieve a list of authorized senders"
      },
      "getChainlinkToken()": {
        "notice": "Returns the address of the LINK token"
      },
      "isAuthorizedSender(address)": {
        "notice": "Use this to check if a node is authorized for fulfilling requests"
      },
      "onTokenTransfer(address,uint256,bytes)": {
        "notice": "Called when LINK is sent to the contract via `transferAndCall`"
      },
      "operatorRequest(address,uint256,bytes32,bytes4,uint256,uint256,bytes)": {
        "notice": "Creates the Chainlink request"
      },
      "oracleRequest(address,uint256,bytes32,address,bytes4,uint256,uint256,bytes)": {
        "notice": "Creates the Chainlink request. This is a backwards compatible API with the Oracle.sol contract, but the behavior changes because callbackAddress is assumed to be the same as the request sender."
      },
      "owner()": {
        "notice": "Get the current owner"
      },
      "ownerForward(address,bytes)": {
        "notice": "Forward a call to another contract"
      },
      "ownerTransferAndCall(address,uint256,bytes)": {
        "notice": "Interact with other LinkTokenReceiver contracts by calling transferAndCall"
      },
      "setAuthorizedSenders(address[])": {
        "notice": "Sets the fulfillment permission for a given node. Use `true` to allow, `false` to disallow."
      },
      "setAuthorizedSendersOn(address[],address[])": {
        "notice": "Sets the fulfillment permission for"
      },
      "transferOwnableContracts(address[],address)": {
        "notice": "Transfer the ownership of ownable contracts. This is primarily intended for Authorized Forwarders but could possibly be extended to work with future contracts."
      },
      "transferOwnership(address)": {
        "notice": "Allows an owner to begin transferring ownership to a new address, pending."
      },
      "typeAndVersion()": {
        "notice": "The type and version of this contract"
      },
      "withdraw(address,uint256)": {
        "notice": "Allows the node operator to withdraw earned LINK to a given address"
      },
      "withdrawable()": {
        "notice": "Displays the amount of LINK that is available for the node operator to withdraw"
      }
    },
    "notice": "Node operators can deploy this contract to fulfill requests sent to them",
    "version": 1
  },
  "storageLayout": {
    "storage": [
      {
        "astId": 8,
        "contract": "@chainlink/contracts/src/v0.7/Operator.sol:Operator",
        "label": "s_authorizedSenders",
        "offset": 0,
        "slot": "0",
        "type": "t_mapping(t_address,t_bool)"
      },
      {
        "astId": 11,
        "contract": "@chainlink/contracts/src/v0.7/Operator.sol:Operator",
        "label": "s_authorizedSenderList",
        "offset": 0,
        "slot": "1",
        "type": "t_array(t_address)dyn_storage"
      },
      {
        "astId": 185,
        "contract": "@chainlink/contracts/src/v0.7/Operator.sol:Operator",
        "label": "s_owner",
        "offset": 0,
        "slot": "2",
        "type": "t_address"
      },
      {
        "astId": 187,
        "contract": "@chainlink/contracts/src/v0.7/Operator.sol:Operator",
        "label": "s_pendingOwner",
        "offset": 0,
        "slot": "3",
        "type": "t_address"
      },
      {
        "astId": 492,
        "contract": "@chainlink/contracts/src/v0.7/Operator.sol:Operator",
        "label": "s_commitments",
        "offset": 0,
        "slot": "4",
        "type": "t_mapping(t_bytes32,t_struct(Commitment)450_storage)"
      },
      {
        "astId": 496,
        "contract": "@chainlink/contracts/src/v0.7/Operator.sol:Operator",
        "label": "s_owned",
        "offset": 0,
        "slot": "5",
        "type": "t_mapping(t_address,t_bool)"
      },
      {
        "astId": 499,
        "contract": "@chainlink/contracts/src/v0.7/Operator.sol:Operator",
        "label": "s_tokensInEscrow",
        "offset": 0,
        "slot": "6",
        "type": "t_uint256"
      }
    ],
    "types": {
      "t_address": {
        "encoding": "inplace",
        "label": "address",
        "numberOfBytes": "20"
      },
      "t_array(t_address)dyn_storage": {
        "base": "t_address",
        "encoding": "dynamic_array",
        "label": "address[]",
        "numberOfBytes": "32"
      },
      "t_bool": {
        "encoding": "inplace",
        "label": "bool",
        "numberOfBytes": "1"
      },
      "t_bytes31": {
        "encoding": "inplace",
        "label": "bytes31",
        "numberOfBytes": "31"
      },
      "t_bytes32": {
        "encoding": "inplace",
        "label": "bytes32",
        "numberOfBytes": "32"
      },
      "t_mapping(t_address,t_bool)": {
        "encoding": "mapping",
        "key": "t_address",
        "label": "mapping(address => bool)",
        "numberOfBytes": "32",
        "value": "t_bool"
      },
      "t_mapping(t_bytes32,t_struct(Commitment)450_storage)": {
        "encoding": "mapping",
        "key": "t_bytes32",
        "label": "mapping(bytes32 => struct Operator.Commitment)",
        "numberOfBytes": "32",
        "value": "t_struct(Commitment)450_storage"
      },
      "t_struct(Commitment)450_storage": {
        "encoding": "inplace",
        "label": "struct Operator.Commitment",
        "members": [
          {
            "astId": 447,
            "contract": "@chainlink/contracts/src/v0.7/Operator.sol:Operator",
            "label": "paramsHash",
            "offset": 0,
            "slot": "0",
            "type": "t_bytes31"
          },
          {
            "astId": 449,
            "contract": "@chainlink/contracts/src/v0.7/Operator.sol:Operator",
            "label": "dataVersion",
            "offset": 31,
            "slot": "0",
            "type": "t_uint8"
          }
        ],
        "numberOfBytes": "32"
      },
      "t_uint256": {
        "encoding": "inplace",
        "label": "uint256",
        "numberOfBytes": "32"
      },
      "t_uint8": {
        "encoding": "inplace",
        "label": "uint8",
        "numberOfBytes": "1"
      }
    }
  }
}