{
  "address": "0x35e9D8e0223A75E51a67aa731127C91Ea0779Fe2",
  "abi": [
    {
      "inputs": [],
      "name": "AlreadyInitialized",
      "type": "error"
    },
    {
      "inputs": [],
      "name": "CallerNotOperator",
      "type": "error"
    },
    {
      "inputs": [],
      "name": "ContractLocked",
      "type": "error"
    },
    {
      "inputs": [],
      "name": "InvalidCurrency",
      "type": "error"
    },
    {
      "inputs": [],
      "name": "InvalidMaturity",
      "type": "error"
    },
    {
      "inputs": [],
      "name": "MarketTerminated",
      "type": "error"
    },
    {
      "inputs": [
        {
          "internalType": "string",
          "name": "name",
          "type": "string"
        }
      ],
      "name": "MissingAddress",
      "type": "error"
    },
    {
      "inputs": [
        {
          "internalType": "bytes32",
          "name": "role",
          "type": "bytes32"
        },
        {
          "internalType": "address",
          "name": "account",
          "type": "address"
        }
      ],
      "name": "NotAllowedAccess",
      "type": "error"
    },
    {
      "inputs": [],
      "name": "NotTerminated",
      "type": "error"
    },
    {
      "inputs": [
        {
          "internalType": "string",
          "name": "name",
          "type": "string"
        }
      ],
      "name": "OnlyAcceptedContract",
      "type": "error"
    },
    {
      "inputs": [],
      "name": "ResolverAlreadyRegistered",
      "type": "error"
    },
    {
      "anonymous": false,
      "inputs": [
        {
          "indexed": false,
          "internalType": "bytes32",
          "name": "name",
          "type": "bytes32"
        },
        {
          "indexed": false,
          "internalType": "address",
          "name": "destination",
          "type": "address"
        }
      ],
      "name": "CacheUpdated",
      "type": "event"
    },
    {
      "anonymous": false,
      "inputs": [
        {
          "indexed": false,
          "internalType": "uint8",
          "name": "version",
          "type": "uint8"
        }
      ],
      "name": "Initialized",
      "type": "event"
    },
    {
      "anonymous": false,
      "inputs": [
        {
          "indexed": true,
          "internalType": "address",
          "name": "previousOwner",
          "type": "address"
        },
        {
          "indexed": true,
          "internalType": "address",
          "name": "newOwner",
          "type": "address"
        }
      ],
      "name": "OwnershipTransferred",
      "type": "event"
    },
    {
      "anonymous": false,
      "inputs": [
        {
          "indexed": true,
          "internalType": "bytes32",
          "name": "role",
          "type": "bytes32"
        },
        {
          "indexed": true,
          "internalType": "bytes32",
          "name": "previousAdminRole",
          "type": "bytes32"
        },
        {
          "indexed": true,
          "internalType": "bytes32",
          "name": "newAdminRole",
          "type": "bytes32"
        }
      ],
      "name": "RoleAdminChanged",
      "type": "event"
    },
    {
      "anonymous": false,
      "inputs": [
        {
          "indexed": true,
          "internalType": "bytes32",
          "name": "role",
          "type": "bytes32"
        },
        {
          "indexed": true,
          "internalType": "address",
          "name": "account",
          "type": "address"
        },
        {
          "indexed": true,
          "internalType": "address",
          "name": "sender",
          "type": "address"
        }
      ],
      "name": "RoleGranted",
      "type": "event"
    },
    {
      "anonymous": false,
      "inputs": [
        {
          "indexed": true,
          "internalType": "bytes32",
          "name": "role",
          "type": "bytes32"
        },
        {
          "indexed": true,
          "internalType": "address",
          "name": "account",
          "type": "address"
        },
        {
          "indexed": true,
          "internalType": "address",
          "name": "sender",
          "type": "address"
        }
      ],
      "name": "RoleRevoked",
      "type": "event"
    },
    {
      "inputs": [],
      "name": "DEFAULT_ADMIN_ROLE",
      "outputs": [
        {
          "internalType": "bytes32",
          "name": "",
          "type": "bytes32"
        }
      ],
      "stateMutability": "view",
      "type": "function"
    },
    {
      "inputs": [],
      "name": "OPERATOR_ROLE",
      "outputs": [
        {
          "internalType": "bytes32",
          "name": "",
          "type": "bytes32"
        }
      ],
      "stateMutability": "view",
      "type": "function"
    },
    {
      "inputs": [
        {
          "internalType": "address",
          "name": "admin",
          "type": "address"
        }
      ],
      "name": "addOperator",
      "outputs": [],
      "stateMutability": "nonpayable",
      "type": "function"
    },
    {
      "inputs": [],
      "name": "buildCache",
      "outputs": [],
      "stateMutability": "nonpayable",
      "type": "function"
    },
    {
      "inputs": [
        {
          "internalType": "bytes32",
          "name": "_ccy",
          "type": "bytes32"
        },
        {
          "internalType": "address",
          "name": "_user",
          "type": "address"
        },
        {
          "internalType": "uint256",
          "name": "_liquidationThresholdRate",
          "type": "uint256"
        }
      ],
      "name": "calculateFunds",
      "outputs": [
        {
          "components": [
            {
              "internalType": "uint256",
              "name": "workingLendOrdersAmount",
              "type": "uint256"
            },
            {
              "internalType": "uint256",
              "name": "claimableAmount",
              "type": "uint256"
            },
            {
              "internalType": "uint256",
              "name": "collateralAmount",
              "type": "uint256"
            },
            {
              "internalType": "uint256",
              "name": "unallocatedCollateralAmount",
              "type": "uint256"
            },
            {
              "internalType": "uint256",
              "name": "lentAmount",
              "type": "uint256"
            },
            {
              "internalType": "uint256",
              "name": "workingBorrowOrdersAmount",
              "type": "uint256"
            },
            {
              "internalType": "uint256",
              "name": "debtAmount",
              "type": "uint256"
            },
            {
              "internalType": "uint256",
              "name": "borrowedAmount",
              "type": "uint256"
            }
          ],
          "internalType": "struct ILendingMarketController.CalculatedFunds",
          "name": "funds",
          "type": "tuple"
        }
      ],
      "stateMutability": "view",
      "type": "function"
    },
    {
      "inputs": [
        {
          "internalType": "address",
          "name": "_user",
          "type": "address"
        },
        {
          "components": [
            {
              "internalType": "bytes32",
              "name": "ccy",
              "type": "bytes32"
            },
            {
              "internalType": "uint256",
              "name": "workingLendOrdersAmount",
              "type": "uint256"
            },
            {
              "internalType": "uint256",
              "name": "claimableAmount",
              "type": "uint256"
            },
            {
              "internalType": "uint256",
              "name": "workingBorrowOrdersAmount",
              "type": "uint256"
            },
            {
              "internalType": "uint256",
              "name": "debtAmount",
              "type": "uint256"
            },
            {
              "internalType": "uint256",
              "name": "lentAmount",
              "type": "uint256"
            },
            {
              "internalType": "uint256",
              "name": "borrowedAmount",
              "type": "uint256"
            }
          ],
          "internalType": "struct ILendingMarketController.AdditionalFunds",
          "name": "_additionalFunds",
          "type": "tuple"
        },
        {
          "internalType": "uint256",
          "name": "_liquidationThresholdRate",
          "type": "uint256"
        }
      ],
      "name": "calculateTotalFundsInBaseCurrency",
      "outputs": [
        {
          "components": [
            {
              "internalType": "uint256",
              "name": "plusDepositAmountInAdditionalFundsCcy",
              "type": "uint256"
            },
            {
              "internalType": "uint256",
              "name": "minusDepositAmountInAdditionalFundsCcy",
              "type": "uint256"
            },
            {
              "internalType": "uint256",
              "name": "workingLendOrdersAmount",
              "type": "uint256"
            },
            {
              "internalType": "uint256",
              "name": "claimableAmount",
              "type": "uint256"
            },
            {
              "internalType": "uint256",
              "name": "collateralAmount",
              "type": "uint256"
            },
            {
              "internalType": "uint256",
              "name": "lentAmount",
              "type": "uint256"
            },
            {
              "internalType": "uint256",
              "name": "workingBorrowOrdersAmount",
              "type": "uint256"
            },
            {
              "internalType": "uint256",
              "name": "debtAmount",
              "type": "uint256"
            },
            {
              "internalType": "uint256",
              "name": "borrowedAmount",
              "type": "uint256"
            }
          ],
          "internalType": "struct ILendingMarketController.CalculatedTotalFunds",
          "name": "funds",
          "type": "tuple"
        }
      ],
      "stateMutability": "view",
      "type": "function"
    },
    {
      "inputs": [
        {
          "internalType": "bytes32",
          "name": "_ccy",
          "type": "bytes32"
        },
        {
          "internalType": "uint256",
          "name": "_maturity",
          "type": "uint256"
        },
        {
          "internalType": "uint48",
          "name": "_orderId",
          "type": "uint48"
        }
      ],
      "name": "cancelOrder",
      "outputs": [
        {
          "internalType": "bool",
          "name": "",
          "type": "bool"
        }
      ],
      "stateMutability": "nonpayable",
      "type": "function"
    },
    {
      "inputs": [
        {
          "internalType": "address",
          "name": "_user",
          "type": "address"
        }
      ],
      "name": "cleanUpAllFunds",
      "outputs": [
        {
          "internalType": "bool",
          "name": "",
          "type": "bool"
        }
      ],
      "stateMutability": "nonpayable",
      "type": "function"
    },
    {
      "inputs": [
        {
          "internalType": "bytes32",
          "name": "_ccy",
          "type": "bytes32"
        },
        {
          "internalType": "address",
          "name": "_user",
          "type": "address"
        }
      ],
      "name": "cleanUpFunds",
      "outputs": [
        {
          "internalType": "uint256",
          "name": "totalActiveOrderCount",
          "type": "uint256"
        }
      ],
      "stateMutability": "nonpayable",
      "type": "function"
    },
    {
      "inputs": [
        {
          "internalType": "bytes32",
          "name": "_ccy",
          "type": "bytes32"
        },
        {
          "internalType": "uint256",
          "name": "_openingDate",
          "type": "uint256"
        },
        {
          "internalType": "uint256",
          "name": "_preOpeningDate",
          "type": "uint256"
        }
      ],
      "name": "createOrderBook",
      "outputs": [],
      "stateMutability": "nonpayable",
      "type": "function"
    },
    {
      "inputs": [
        {
          "internalType": "bytes32",
          "name": "_ccy",
          "type": "bytes32"
        },
        {
          "internalType": "uint256",
          "name": "_maturity",
          "type": "uint256"
        },
        {
          "internalType": "enum ProtocolTypes.Side",
          "name": "_side",
          "type": "uint8"
        },
        {
          "internalType": "uint256",
          "name": "_amount",
          "type": "uint256"
        },
        {
          "internalType": "uint256",
          "name": "_unitPrice",
          "type": "uint256"
        }
      ],
      "name": "depositAndExecuteOrder",
      "outputs": [
        {
          "internalType": "bool",
          "name": "",
          "type": "bool"
        }
      ],
      "stateMutability": "payable",
      "type": "function"
    },
    {
      "inputs": [
        {
          "internalType": "bytes32",
          "name": "_ccy",
          "type": "bytes32"
        },
        {
          "internalType": "uint256",
          "name": "_maturity",
          "type": "uint256"
        },
        {
          "internalType": "enum ProtocolTypes.Side",
          "name": "_side",
          "type": "uint8"
        },
        {
          "internalType": "uint256",
          "name": "_amount",
          "type": "uint256"
        },
        {
          "internalType": "uint256",
          "name": "_unitPrice",
          "type": "uint256"
        }
      ],
      "name": "depositAndExecutesPreOrder",
      "outputs": [
        {
          "internalType": "bool",
          "name": "",
          "type": "bool"
        }
      ],
      "stateMutability": "payable",
      "type": "function"
    },
    {
      "inputs": [
        {
          "internalType": "bytes32",
          "name": "_ccy",
          "type": "bytes32"
        },
        {
          "internalType": "uint256",
          "name": "_maturity",
          "type": "uint256"
        },
        {
          "internalType": "enum ProtocolTypes.Side",
          "name": "_side",
          "type": "uint8"
        },
        {
          "internalType": "uint256",
          "name": "_amount",
          "type": "uint256"
        },
        {
          "internalType": "uint256",
          "name": "_unitPrice",
          "type": "uint256"
        },
        {
          "internalType": "uint256",
          "name": "_deadline",
          "type": "uint256"
        },
        {
          "internalType": "uint8",
          "name": "_permitV",
          "type": "uint8"
        },
        {
          "internalType": "bytes32",
          "name": "_permitR",
          "type": "bytes32"
        },
        {
          "internalType": "bytes32",
          "name": "_permitS",
          "type": "bytes32"
        }
      ],
      "name": "depositWithPermitAndExecuteOrder",
      "outputs": [
        {
          "internalType": "bool",
          "name": "",
          "type": "bool"
        }
      ],
      "stateMutability": "nonpayable",
      "type": "function"
    },
    {
      "inputs": [
        {
          "internalType": "bytes32",
          "name": "_ccy",
          "type": "bytes32"
        },
        {
          "internalType": "uint256",
          "name": "_maturity",
          "type": "uint256"
        },
        {
          "internalType": "enum ProtocolTypes.Side",
          "name": "_side",
          "type": "uint8"
        },
        {
          "internalType": "uint256",
          "name": "_amount",
          "type": "uint256"
        },
        {
          "internalType": "uint256",
          "name": "_unitPrice",
          "type": "uint256"
        },
        {
          "internalType": "uint256",
          "name": "_deadline",
          "type": "uint256"
        },
        {
          "internalType": "uint8",
          "name": "_permitV",
          "type": "uint8"
        },
        {
          "internalType": "bytes32",
          "name": "_permitR",
          "type": "bytes32"
        },
        {
          "internalType": "bytes32",
          "name": "_permitS",
          "type": "bytes32"
        }
      ],
      "name": "depositWithPermitAndExecutePreOrder",
      "outputs": [
        {
          "internalType": "bool",
          "name": "",
          "type": "bool"
        }
      ],
      "stateMutability": "nonpayable",
      "type": "function"
    },
    {
      "inputs": [
        {
          "internalType": "bytes32",
          "name": "_ccy",
          "type": "bytes32"
        },
        {
          "internalType": "uint256",
          "name": "_maturity",
          "type": "uint256"
        },
        {
          "internalType": "uint256",
          "name": "_amount",
          "type": "uint256"
        }
      ],
      "name": "depositZCToken",
      "outputs": [],
      "stateMutability": "nonpayable",
      "type": "function"
    },
    {
      "inputs": [],
      "name": "executeEmergencySettlement",
      "outputs": [
        {
          "internalType": "bool",
          "name": "",
          "type": "bool"
        }
      ],
      "stateMutability": "nonpayable",
      "type": "function"
    },
    {
      "inputs": [],
      "name": "executeEmergencyTermination",
      "outputs": [],
      "stateMutability": "nonpayable",
      "type": "function"
    },
    {
      "inputs": [
        {
          "internalType": "bytes32",
          "name": "_collateralCcy",
          "type": "bytes32"
        },
        {
          "internalType": "bytes32",
          "name": "_debtCcy",
          "type": "bytes32"
        },
        {
          "internalType": "uint256",
          "name": "_debtMaturity",
          "type": "uint256"
        },
        {
          "internalType": "address",
          "name": "_user",
          "type": "address"
        }
      ],
      "name": "executeForcedRepayment",
      "outputs": [
        {
          "internalType": "bool",
          "name": "",
          "type": "bool"
        }
      ],
      "stateMutability": "nonpayable",
      "type": "function"
    },
    {
      "inputs": [
        {
          "internalType": "bytes32",
          "name": "_ccy",
          "type": "bytes32"
        },
        {
          "internalType": "uint256",
          "name": "_maturity",
          "type": "uint256"
        }
      ],
      "name": "executeItayoseCall",
      "outputs": [
        {
          "internalType": "bool",
          "name": "",
          "type": "bool"
        }
      ],
      "stateMutability": "nonpayable",
      "type": "function"
    },
    {
      "inputs": [
        {
          "internalType": "bytes32",
          "name": "_collateralCcy",
          "type": "bytes32"
        },
        {
          "internalType": "bytes32",
          "name": "_debtCcy",
          "type": "bytes32"
        },
        {
          "internalType": "uint256",
          "name": "_debtMaturity",
          "type": "uint256"
        },
        {
          "internalType": "address",
          "name": "_user",
          "type": "address"
        }
      ],
      "name": "executeLiquidationCall",
      "outputs": [
        {
          "internalType": "bool",
          "name": "",
          "type": "bool"
        }
      ],
      "stateMutability": "nonpayable",
      "type": "function"
    },
    {
      "inputs": [
        {
          "internalType": "bytes32",
          "name": "_ccy",
          "type": "bytes32"
        },
        {
          "internalType": "uint256",
          "name": "_maturity",
          "type": "uint256"
        },
        {
          "internalType": "enum ProtocolTypes.Side",
          "name": "_side",
          "type": "uint8"
        },
        {
          "internalType": "uint256",
          "name": "_amount",
          "type": "uint256"
        },
        {
          "internalType": "uint256",
          "name": "_unitPrice",
          "type": "uint256"
        }
      ],
      "name": "executeOrder",
      "outputs": [
        {
          "internalType": "bool",
          "name": "",
          "type": "bool"
        }
      ],
      "stateMutability": "nonpayable",
      "type": "function"
    },
    {
      "inputs": [
        {
          "internalType": "bytes32",
          "name": "_ccy",
          "type": "bytes32"
        },
        {
          "internalType": "uint256",
          "name": "_maturity",
          "type": "uint256"
        },
        {
          "internalType": "enum ProtocolTypes.Side",
          "name": "_side",
          "type": "uint8"
        },
        {
          "internalType": "uint256",
          "name": "_amount",
          "type": "uint256"
        },
        {
          "internalType": "uint256",
          "name": "_unitPrice",
          "type": "uint256"
        }
      ],
      "name": "executePreOrder",
      "outputs": [
        {
          "internalType": "bool",
          "name": "",
          "type": "bool"
        }
      ],
      "stateMutability": "nonpayable",
      "type": "function"
    },
    {
      "inputs": [
        {
          "internalType": "bytes32",
          "name": "_ccy",
          "type": "bytes32"
        },
        {
          "internalType": "uint256",
          "name": "_maturity",
          "type": "uint256"
        }
      ],
      "name": "executeRedemption",
      "outputs": [
        {
          "internalType": "bool",
          "name": "",
          "type": "bool"
        }
      ],
      "stateMutability": "nonpayable",
      "type": "function"
    },
    {
      "inputs": [
        {
          "internalType": "bytes32",
          "name": "_ccy",
          "type": "bytes32"
        },
        {
          "internalType": "uint256",
          "name": "_maturity",
          "type": "uint256"
        }
      ],
      "name": "executeRepayment",
      "outputs": [
        {
          "internalType": "bool",
          "name": "",
          "type": "bool"
        }
      ],
      "stateMutability": "nonpayable",
      "type": "function"
    },
    {
      "inputs": [
        {
          "internalType": "bytes32",
          "name": "_ccy",
          "type": "bytes32"
        }
      ],
      "name": "getCircuitBreakerLimitRange",
      "outputs": [
        {
          "internalType": "uint256",
          "name": "",
          "type": "uint256"
        }
      ],
      "stateMutability": "view",
      "type": "function"
    },
    {
      "inputs": [
        {
          "internalType": "bytes32",
          "name": "_ccy",
          "type": "bytes32"
        },
        {
          "internalType": "uint256",
          "name": "_maturity",
          "type": "uint256"
        }
      ],
      "name": "getCurrentMinDebtUnitPrice",
      "outputs": [
        {
          "internalType": "uint256",
          "name": "",
          "type": "uint256"
        }
      ],
      "stateMutability": "view",
      "type": "function"
    },
    {
      "inputs": [
        {
          "internalType": "bytes32",
          "name": "_ccy",
          "type": "bytes32"
        }
      ],
      "name": "getFutureValueVault",
      "outputs": [
        {
          "internalType": "address",
          "name": "",
          "type": "address"
        }
      ],
      "stateMutability": "view",
      "type": "function"
    },
    {
      "inputs": [
        {
          "internalType": "bytes32",
          "name": "_ccy",
          "type": "bytes32"
        }
      ],
      "name": "getGenesisDate",
      "outputs": [
        {
          "internalType": "uint256",
          "name": "",
          "type": "uint256"
        }
      ],
      "stateMutability": "view",
      "type": "function"
    },
    {
      "inputs": [
        {
          "internalType": "bytes32",
          "name": "_ccy",
          "type": "bytes32"
        },
        {
          "internalType": "address",
          "name": "_user",
          "type": "address"
        }
      ],
      "name": "getGenesisValue",
      "outputs": [
        {
          "internalType": "int256",
          "name": "amount",
          "type": "int256"
        },
        {
          "internalType": "int256",
          "name": "amountInPV",
          "type": "int256"
        },
        {
          "internalType": "int256",
          "name": "amountInFV",
          "type": "int256"
        }
      ],
      "stateMutability": "view",
      "type": "function"
    },
    {
      "inputs": [
        {
          "internalType": "bytes32",
          "name": "_ccy",
          "type": "bytes32"
        }
      ],
      "name": "getLendingMarket",
      "outputs": [
        {
          "internalType": "address",
          "name": "",
          "type": "address"
        }
      ],
      "stateMutability": "view",
      "type": "function"
    },
    {
      "inputs": [],
      "name": "getMarketBasePeriod",
      "outputs": [
        {
          "internalType": "uint256",
          "name": "",
          "type": "uint256"
        }
      ],
      "stateMutability": "view",
      "type": "function"
    },
    {
      "inputs": [
        {
          "internalType": "bytes32",
          "name": "_ccy",
          "type": "bytes32"
        }
      ],
      "name": "getMaturities",
      "outputs": [
        {
          "internalType": "uint256[]",
          "name": "",
          "type": "uint256[]"
        }
      ],
      "stateMutability": "view",
      "type": "function"
    },
    {
      "inputs": [
        {
          "internalType": "bytes32",
          "name": "_ccy",
          "type": "bytes32"
        }
      ],
      "name": "getMinDebtUnitPrice",
      "outputs": [
        {
          "internalType": "uint256",
          "name": "",
          "type": "uint256"
        }
      ],
      "stateMutability": "view",
      "type": "function"
    },
    {
      "inputs": [
        {
          "internalType": "bytes32",
          "name": "_ccy",
          "type": "bytes32"
        },
        {
          "internalType": "uint256",
          "name": "_maturity",
          "type": "uint256"
        }
      ],
      "name": "getOrderBookId",
      "outputs": [
        {
          "internalType": "uint8",
          "name": "",
          "type": "uint8"
        }
      ],
      "stateMutability": "view",
      "type": "function"
    },
    {
      "inputs": [
        {
          "internalType": "bytes32",
          "name": "_ccy",
          "type": "bytes32"
        }
      ],
      "name": "getOrderBookIds",
      "outputs": [
        {
          "internalType": "uint8[]",
          "name": "",
          "type": "uint8[]"
        }
      ],
      "stateMutability": "view",
      "type": "function"
    },
    {
      "inputs": [
        {
          "components": [
            {
              "internalType": "bytes32",
              "name": "ccy",
              "type": "bytes32"
            },
            {
              "internalType": "uint256",
              "name": "maturity",
              "type": "uint256"
            },
            {
              "internalType": "address",
              "name": "user",
              "type": "address"
            },
            {
              "internalType": "enum ProtocolTypes.Side",
              "name": "side",
              "type": "uint8"
            },
            {
              "internalType": "uint256",
              "name": "amount",
              "type": "uint256"
            },
            {
              "internalType": "uint256",
              "name": "unitPrice",
              "type": "uint256"
            },
            {
              "internalType": "uint256",
              "name": "additionalDepositAmount",
              "type": "uint256"
            },
            {
              "internalType": "bool",
              "name": "ignoreBorrowedAmount",
              "type": "bool"
            }
          ],
          "internalType": "struct ILendingMarketController.GetOrderEstimationParams",
          "name": "_params",
          "type": "tuple"
        }
      ],
      "name": "getOrderEstimation",
      "outputs": [
        {
          "internalType": "uint256",
          "name": "lastUnitPrice",
          "type": "uint256"
        },
        {
          "internalType": "uint256",
          "name": "filledAmount",
          "type": "uint256"
        },
        {
          "internalType": "uint256",
          "name": "filledAmountInFV",
          "type": "uint256"
        },
        {
          "internalType": "uint256",
          "name": "orderFeeInFV",
          "type": "uint256"
        },
        {
          "internalType": "uint256",
          "name": "placedAmount",
          "type": "uint256"
        },
        {
          "internalType": "uint256",
          "name": "coverage",
          "type": "uint256"
        },
        {
          "internalType": "bool",
          "name": "isInsufficientDepositAmount",
          "type": "bool"
        }
      ],
      "stateMutability": "view",
      "type": "function"
    },
    {
      "inputs": [
        {
          "components": [
            {
              "internalType": "bytes32",
              "name": "ccy",
              "type": "bytes32"
            },
            {
              "internalType": "uint256",
              "name": "maturity",
              "type": "uint256"
            },
            {
              "internalType": "address",
              "name": "user",
              "type": "address"
            },
            {
              "internalType": "enum ProtocolTypes.Side",
              "name": "side",
              "type": "uint8"
            },
            {
              "internalType": "uint256",
              "name": "amountInFV",
              "type": "uint256"
            },
            {
              "internalType": "uint256",
              "name": "additionalDepositAmount",
              "type": "uint256"
            },
            {
              "internalType": "bool",
              "name": "ignoreBorrowedAmount",
              "type": "bool"
            }
          ],
          "internalType": "struct ILendingMarketController.GetOrderEstimationFromFVParams",
          "name": "_params",
          "type": "tuple"
        }
      ],
      "name": "getOrderEstimationFromFV",
      "outputs": [
        {
          "internalType": "uint256",
          "name": "lastUnitPrice",
          "type": "uint256"
        },
        {
          "internalType": "uint256",
          "name": "filledAmount",
          "type": "uint256"
        },
        {
          "internalType": "uint256",
          "name": "filledAmountInFV",
          "type": "uint256"
        },
        {
          "internalType": "uint256",
          "name": "orderFeeInFV",
          "type": "uint256"
        },
        {
          "internalType": "uint256",
          "name": "coverage",
          "type": "uint256"
        },
        {
          "internalType": "bool",
          "name": "isInsufficientDepositAmount",
          "type": "bool"
        }
      ],
      "stateMutability": "view",
      "type": "function"
    },
    {
      "inputs": [
        {
          "internalType": "bytes32",
          "name": "_ccy",
          "type": "bytes32"
        }
      ],
      "name": "getOrderFeeRate",
      "outputs": [
        {
          "internalType": "uint256",
          "name": "",
          "type": "uint256"
        }
      ],
      "stateMutability": "view",
      "type": "function"
    },
    {
      "inputs": [
        {
          "internalType": "bytes32",
          "name": "_ccy",
          "type": "bytes32"
        },
        {
          "internalType": "uint256",
          "name": "_maturity",
          "type": "uint256"
        }
      ],
      "name": "getPendingOrderAmount",
      "outputs": [
        {
          "internalType": "uint256",
          "name": "",
          "type": "uint256"
        }
      ],
      "stateMutability": "view",
      "type": "function"
    },
    {
      "inputs": [
        {
          "internalType": "bytes32",
          "name": "_ccy",
          "type": "bytes32"
        },
        {
          "internalType": "uint256",
          "name": "_maturity",
          "type": "uint256"
        },
        {
          "internalType": "address",
          "name": "_user",
          "type": "address"
        }
      ],
      "name": "getPosition",
      "outputs": [
        {
          "internalType": "int256",
          "name": "presentValue",
          "type": "int256"
        },
        {
          "internalType": "int256",
          "name": "futureValue",
          "type": "int256"
        }
      ],
      "stateMutability": "view",
      "type": "function"
    },
    {
      "inputs": [],
      "name": "getRevision",
      "outputs": [
        {
          "internalType": "uint256",
          "name": "",
          "type": "uint256"
        }
      ],
      "stateMutability": "pure",
      "type": "function"
    },
    {
      "inputs": [
        {
          "internalType": "bytes32",
          "name": "role",
          "type": "bytes32"
        }
      ],
      "name": "getRoleAdmin",
      "outputs": [
        {
          "internalType": "bytes32",
          "name": "",
          "type": "bytes32"
        }
      ],
      "stateMutability": "view",
      "type": "function"
    },
    {
      "inputs": [
        {
          "internalType": "bytes32",
          "name": "_ccy",
          "type": "bytes32"
        }
      ],
      "name": "getTerminationCollateralRatio",
      "outputs": [
        {
          "internalType": "uint256",
          "name": "",
          "type": "uint256"
        }
      ],
      "stateMutability": "view",
      "type": "function"
    },
    {
      "inputs": [
        {
          "internalType": "bytes32",
          "name": "_ccy",
          "type": "bytes32"
        }
      ],
      "name": "getTerminationCurrencyCache",
      "outputs": [
        {
          "components": [
            {
              "internalType": "int256",
              "name": "price",
              "type": "int256"
            },
            {
              "internalType": "uint8",
              "name": "decimals",
              "type": "uint8"
            }
          ],
          "internalType": "struct TerminationCurrencyCache",
          "name": "",
          "type": "tuple"
        }
      ],
      "stateMutability": "view",
      "type": "function"
    },
    {
      "inputs": [],
      "name": "getTerminationDate",
      "outputs": [
        {
          "internalType": "uint256",
          "name": "",
          "type": "uint256"
        }
      ],
      "stateMutability": "view",
      "type": "function"
    },
    {
      "inputs": [
        {
          "internalType": "bytes32",
          "name": "_ccy",
          "type": "bytes32"
        },
        {
          "internalType": "address",
          "name": "_user",
          "type": "address"
        }
      ],
      "name": "getTotalPresentValue",
      "outputs": [
        {
          "internalType": "int256",
          "name": "totalPresentValue",
          "type": "int256"
        }
      ],
      "stateMutability": "view",
      "type": "function"
    },
    {
      "inputs": [
        {
          "internalType": "address",
          "name": "_user",
          "type": "address"
        }
      ],
      "name": "getTotalPresentValueInBaseCurrency",
      "outputs": [
        {
          "internalType": "int256",
          "name": "totalPresentValue",
          "type": "int256"
        }
      ],
      "stateMutability": "view",
      "type": "function"
    },
    {
      "inputs": [
        {
          "internalType": "address",
          "name": "_user",
          "type": "address"
        }
      ],
      "name": "getUsedCurrencies",
      "outputs": [
        {
          "internalType": "bytes32[]",
          "name": "",
          "type": "bytes32[]"
        }
      ],
      "stateMutability": "view",
      "type": "function"
    },
    {
      "inputs": [
        {
          "internalType": "bytes32",
          "name": "_ccy",
          "type": "bytes32"
        },
        {
          "internalType": "uint256",
          "name": "_maturity",
          "type": "uint256"
        },
        {
          "internalType": "address",
          "name": "_user",
          "type": "address"
        }
      ],
      "name": "getWithdrawableZCTokenAmount",
      "outputs": [
        {
          "internalType": "uint256",
          "name": "amount",
          "type": "uint256"
        }
      ],
      "stateMutability": "view",
      "type": "function"
    },
    {
      "inputs": [
        {
          "internalType": "bytes32",
          "name": "_ccy",
          "type": "bytes32"
        },
        {
          "internalType": "uint256",
          "name": "_maturity",
          "type": "uint256"
        }
      ],
      "name": "getZCToken",
      "outputs": [
        {
          "internalType": "address",
          "name": "",
          "type": "address"
        }
      ],
      "stateMutability": "view",
      "type": "function"
    },
    {
      "inputs": [
        {
          "internalType": "address",
          "name": "_zcToken",
          "type": "address"
        }
      ],
      "name": "getZCTokenInfo",
      "outputs": [
        {
          "components": [
            {
              "internalType": "bytes32",
              "name": "ccy",
              "type": "bytes32"
            },
            {
              "internalType": "uint256",
              "name": "maturity",
              "type": "uint256"
            }
          ],
          "internalType": "struct ZCTokenInfo",
          "name": "",
          "type": "tuple"
        }
      ],
      "stateMutability": "view",
      "type": "function"
    },
    {
      "inputs": [
        {
          "internalType": "bytes32",
          "name": "role",
          "type": "bytes32"
        },
        {
          "internalType": "address",
          "name": "account",
          "type": "address"
        }
      ],
      "name": "grantRole",
      "outputs": [],
      "stateMutability": "nonpayable",
      "type": "function"
    },
    {
      "inputs": [
        {
          "internalType": "bytes32",
          "name": "role",
          "type": "bytes32"
        },
        {
          "internalType": "address",
          "name": "account",
          "type": "address"
        }
      ],
      "name": "hasRole",
      "outputs": [
        {
          "internalType": "bool",
          "name": "",
          "type": "bool"
        }
      ],
      "stateMutability": "view",
      "type": "function"
    },
    {
      "inputs": [
        {
          "internalType": "address",
          "name": "_owner",
          "type": "address"
        },
        {
          "internalType": "address",
          "name": "_resolver",
          "type": "address"
        },
        {
          "internalType": "uint256",
          "name": "_marketBasePeriod",
          "type": "uint256"
        }
      ],
      "name": "initialize",
      "outputs": [],
      "stateMutability": "nonpayable",
      "type": "function"
    },
    {
      "inputs": [
        {
          "internalType": "bytes32",
          "name": "_ccy",
          "type": "bytes32"
        },
        {
          "internalType": "uint256",
          "name": "_genesisDate",
          "type": "uint256"
        },
        {
          "internalType": "uint256",
          "name": "_compoundFactor",
          "type": "uint256"
        },
        {
          "internalType": "uint256",
          "name": "_orderFeeRate",
          "type": "uint256"
        },
        {
          "internalType": "uint256",
          "name": "_circuitBreakerLimitRange",
          "type": "uint256"
        },
        {
          "internalType": "uint256",
          "name": "_minDebtUnitPrice",
          "type": "uint256"
        }
      ],
      "name": "initializeLendingMarket",
      "outputs": [],
      "stateMutability": "nonpayable",
      "type": "function"
    },
    {
      "inputs": [
        {
          "internalType": "bytes32",
          "name": "_ccy",
          "type": "bytes32"
        }
      ],
      "name": "isInitializedLendingMarket",
      "outputs": [
        {
          "internalType": "bool",
          "name": "",
          "type": "bool"
        }
      ],
      "stateMutability": "view",
      "type": "function"
    },
    {
      "inputs": [
        {
          "internalType": "address",
          "name": "_user",
          "type": "address"
        }
      ],
      "name": "isRedemptionRequired",
      "outputs": [
        {
          "internalType": "bool",
          "name": "",
          "type": "bool"
        }
      ],
      "stateMutability": "view",
      "type": "function"
    },
    {
      "inputs": [],
      "name": "isResolverCached",
      "outputs": [
        {
          "internalType": "bool",
          "name": "",
          "type": "bool"
        }
      ],
      "stateMutability": "view",
      "type": "function"
    },
    {
      "inputs": [],
      "name": "isTerminated",
      "outputs": [
        {
          "internalType": "bool",
          "name": "",
          "type": "bool"
        }
      ],
      "stateMutability": "view",
      "type": "function"
    },
    {
      "inputs": [
        {
          "internalType": "bytes32",
          "name": "_ccy",
          "type": "bytes32"
        },
        {
          "internalType": "uint256",
          "name": "_maturity",
          "type": "uint256"
        }
      ],
      "name": "isValidMaturity",
      "outputs": [
        {
          "internalType": "bool",
          "name": "",
          "type": "bool"
        }
      ],
      "stateMutability": "view",
      "type": "function"
    },
    {
      "inputs": [
        {
          "internalType": "bytes[]",
          "name": "data",
          "type": "bytes[]"
        }
      ],
      "name": "multicall",
      "outputs": [
        {
          "internalType": "bytes[]",
          "name": "results",
          "type": "bytes[]"
        }
      ],
      "stateMutability": "nonpayable",
      "type": "function"
    },
    {
      "inputs": [],
      "name": "owner",
      "outputs": [
        {
          "internalType": "address",
          "name": "",
          "type": "address"
        }
      ],
      "stateMutability": "view",
      "type": "function"
    },
    {
      "inputs": [
        {
          "internalType": "bytes32",
          "name": "_ccy",
          "type": "bytes32"
        }
      ],
      "name": "pauseLendingMarket",
      "outputs": [
        {
          "internalType": "bool",
          "name": "",
          "type": "bool"
        }
      ],
      "stateMutability": "nonpayable",
      "type": "function"
    },
    {
      "inputs": [
        {
          "internalType": "address",
          "name": "admin",
          "type": "address"
        }
      ],
      "name": "removeOperator",
      "outputs": [],
      "stateMutability": "nonpayable",
      "type": "function"
    },
    {
      "inputs": [],
      "name": "renounceOwnership",
      "outputs": [],
      "stateMutability": "nonpayable",
      "type": "function"
    },
    {
      "inputs": [
        {
          "internalType": "bytes32",
          "name": "role",
          "type": "bytes32"
        },
        {
          "internalType": "address",
          "name": "account",
          "type": "address"
        }
      ],
      "name": "renounceRole",
      "outputs": [],
      "stateMutability": "pure",
      "type": "function"
    },
    {
      "inputs": [],
      "name": "requiredContracts",
      "outputs": [
        {
          "internalType": "bytes32[]",
          "name": "contracts",
          "type": "bytes32[]"
        }
      ],
      "stateMutability": "pure",
      "type": "function"
    },
    {
      "inputs": [],
      "name": "resolver",
      "outputs": [
        {
          "internalType": "contract IAddressResolver",
          "name": "",
          "type": "address"
        }
      ],
      "stateMutability": "view",
      "type": "function"
    },
    {
      "inputs": [
        {
          "internalType": "bytes32",
          "name": "role",
          "type": "bytes32"
        },
        {
          "internalType": "address",
          "name": "account",
          "type": "address"
        }
      ],
      "name": "revokeRole",
      "outputs": [],
      "stateMutability": "nonpayable",
      "type": "function"
    },
    {
      "inputs": [
        {
          "internalType": "bytes32",
          "name": "_ccy",
          "type": "bytes32"
        }
      ],
      "name": "rotateOrderBooks",
      "outputs": [],
      "stateMutability": "nonpayable",
      "type": "function"
    },
    {
      "inputs": [
        {
          "internalType": "bytes4",
          "name": "interfaceId",
          "type": "bytes4"
        }
      ],
      "name": "supportsInterface",
      "outputs": [
        {
          "internalType": "bool",
          "name": "",
          "type": "bool"
        }
      ],
      "stateMutability": "view",
      "type": "function"
    },
    {
      "inputs": [
        {
          "internalType": "address",
          "name": "newOwner",
          "type": "address"
        }
      ],
      "name": "transferOwnership",
      "outputs": [],
      "stateMutability": "nonpayable",
      "type": "function"
    },
    {
      "inputs": [
        {
          "internalType": "bytes32",
          "name": "_ccy",
          "type": "bytes32"
        }
      ],
      "name": "unpauseLendingMarket",
      "outputs": [
        {
          "internalType": "bool",
          "name": "",
          "type": "bool"
        }
      ],
      "stateMutability": "nonpayable",
      "type": "function"
    },
    {
      "inputs": [
        {
          "internalType": "bytes32",
          "name": "_ccy",
          "type": "bytes32"
        },
        {
          "internalType": "uint256",
          "name": "_maturity",
          "type": "uint256"
        }
      ],
      "name": "unwindPosition",
      "outputs": [
        {
          "internalType": "bool",
          "name": "",
          "type": "bool"
        }
      ],
      "stateMutability": "nonpayable",
      "type": "function"
    },
    {
      "inputs": [
        {
          "internalType": "bytes32",
          "name": "_ccy",
          "type": "bytes32"
        },
        {
          "internalType": "uint256",
          "name": "_maturity",
          "type": "uint256"
        },
        {
          "internalType": "uint256",
          "name": "_maxAmountInFV",
          "type": "uint256"
        }
      ],
      "name": "unwindPositionWithCap",
      "outputs": [
        {
          "internalType": "uint256",
          "name": "filledAmount",
          "type": "uint256"
        },
        {
          "internalType": "uint256",
          "name": "filledAmountInFV",
          "type": "uint256"
        },
        {
          "internalType": "uint256",
          "name": "feeInFV",
          "type": "uint256"
        }
      ],
      "stateMutability": "nonpayable",
      "type": "function"
    },
    {
      "inputs": [
        {
          "internalType": "bytes32",
          "name": "_ccy",
          "type": "bytes32"
        },
        {
          "internalType": "uint256",
          "name": "_cbLimitRange",
          "type": "uint256"
        }
      ],
      "name": "updateCircuitBreakerLimitRange",
      "outputs": [],
      "stateMutability": "nonpayable",
      "type": "function"
    },
    {
      "inputs": [
        {
          "internalType": "bytes32",
          "name": "_ccy",
          "type": "bytes32"
        },
        {
          "internalType": "uint256",
          "name": "_minDebtUnitPrice",
          "type": "uint256"
        }
      ],
      "name": "updateMinDebtUnitPrice",
      "outputs": [],
      "stateMutability": "nonpayable",
      "type": "function"
    },
    {
      "inputs": [
        {
          "internalType": "bytes32",
          "name": "_ccy",
          "type": "bytes32"
        },
        {
          "internalType": "uint256",
          "name": "_orderFeeRate",
          "type": "uint256"
        }
      ],
      "name": "updateOrderFeeRate",
      "outputs": [],
      "stateMutability": "nonpayable",
      "type": "function"
    },
    {
      "inputs": [
        {
          "internalType": "bytes32",
          "name": "_ccy",
          "type": "bytes32"
        },
        {
          "internalType": "uint256",
          "name": "_maturity",
          "type": "uint256"
        },
        {
          "internalType": "uint256",
          "name": "_amount",
          "type": "uint256"
        }
      ],
      "name": "withdrawZCToken",
      "outputs": [],
      "stateMutability": "nonpayable",
      "type": "function"
    }
  ],
  "transactionHash": "0xd0940b7f36c1278201da9847d0aa08b35e046421b5656ca65559f6ac3288481b",
  "args": [],
  "numDeployments": 14,
  "solcInputHash": "06d4499a9698ee2a644bb4043de43b48",
  "bytecode": "0x608060405234801561001057600080fd5b506001600055615bcf80620000266000396000f3fe6080604052600436106104685760003560e01c8063826b47e81161024a578063b4dafc9011610139578063e9eb03b3116100b6578063f43947c71161007a578063f43947c714610f21578063f4a0997f14610f41578063f5b541a614610f61578063fc70081014610f83578063ff5c086b14610fa357600080fd5b8063e9eb03b314610e81578063ea57481714610ea1578063ebd358fd14610ec1578063f03bc5a514610ee1578063f2fde38b14610f0157600080fd5b8063e0a17443116100fd578063e0a1744314610de1578063e30cdb1914610df4578063e3a9833314610e14578063e6977c6a14610e34578063e8c9af6314610e6157600080fd5b8063b4dafc9014610d57578063b8f117cd14610d77578063c11333b114610d8c578063d1cc997614610dac578063d547741f14610dc157600080fd5b80639e0998b2116101c7578063a4c66bde1161018b578063a4c66bde14610c73578063abc6f02514610c93578063ac8a584a14610cea578063ac9650d814610d0a578063b1d0f2f014610d3757600080fd5b80639e0998b214610b715780639f6c315914610bfe578063a02be3dc14610c1e578063a217fddf14610c3e578063a38f31fe14610c5357600080fd5b80638da5cb5b1161020e5780638da5cb5b14610ae757806391d1485414610afc57806394e75a3e14610b1c5780639519832b14610b315780639870d7fe14610b5157600080fd5b8063826b47e814610a475780638469973f14610a67578063862fd6e514610a87578063886f4b4514610aa7578063891d596514610ac757600080fd5b80632ef5ddaf1161036657806354227dec116102e3578063715018a6116102a7578063715018a6146109ab578063733ac7fc146109c05780637b588aaa146109d557806380a7de86146109f5578063812784b014610a2757600080fd5b806354227dec146108f05780635873aa4d146109105780635ca65d571461094b5780636a23a95c1461096b57806370c641a61461098b57600080fd5b806349f2ccbf1161032a57806349f2ccbf146108505780634e78fecc146108705780634ebeb0491461089057806352239c70146108b057806353571ee7146108d057600080fd5b80632ef5ddaf146107ae5780632f2ff15d146107ce57806336568abe146107ee5780633d03b9da1461080e578063428c3a811461083057600080fd5b80631794bb3c116103f45780632717654e116103b85780632717654e1461070957806329985e5a146107445780632a301496146107595780632af64bd3146107795780632e6c5e671461078e57600080fd5b80631794bb3c146105d757806317b72ff4146105f95780631ffbfc6614610619578063248a9ca31461066857806324e4ae051461068857600080fd5b806303e5fb591161043b57806303e5fb591461052e57806304f3bcec1461054e578063062ea2941461057b5780630b60d6d3146105b05780631316529d146105c357600080fd5b806301cf22351461046d57806301ffc9a7146104a2578063021b89d4146104c257806303cc924014610500575b600080fd5b34801561047957600080fd5b5061048d6104883660046146f1565b610fb8565b60405190151581526020015b60405180910390f35b3480156104ae57600080fd5b5061048d6104bd366004614713565b6110a7565b3480156104ce57600080fd5b506104e26104dd36600461473d565b6110dc565b604080518251815260209283015160ff169281019290925201610499565b34801561050c57600080fd5b5061052061051b36600461476b565b611126565b604051908152602001610499565b34801561053a57600080fd5b5061052061054936600461473d565b6111bc565b34801561055a57600080fd5b50610563611242565b6040516001600160a01b039091168152602001610499565b34801561058757600080fd5b5061059b61059636600461476b565b61125b565b60408051928352602083019190915201610499565b61048d6105be3660046147b3565b6112f5565b3480156105cf57600080fd5b506004610520565b3480156105e357600080fd5b506105f76105f23660046147fa565b61144b565b005b34801561060557600080fd5b5061052061061436600461483b565b6115e6565b34801561062557600080fd5b50610639610634366004614883565b611670565b6040805196875260208701959095529385019290925260608401526080830152151560a082015260c001610499565b34801561067457600080fd5b5061052061068336600461473d565b611705565b34801561069457600080fd5b506106a86106a336600461489f565b611723565b6040516104999190600061010082019050825182526020830151602083015260408301516040830152606083015160608301526080830151608083015260a083015160a083015260c083015160c083015260e083015160e083015292915050565b34801561071557600080fd5b506107296107243660046148c6565b6118ba565b60408051825181526020928301519281019290925201610499565b34801561075057600080fd5b506105f761190f565b34801561076557600080fd5b5061048d6107743660046146f1565b611a8c565b34801561078557600080fd5b5061048d611aba565b34801561079a57600080fd5b5061048d6107a936600461473d565b611bec565b3480156107ba57600080fd5b5061048d6107c93660046147b3565b611c0c565b3480156107da57600080fd5b506105f76107e936600461483b565b611ca6565b3480156107fa57600080fd5b506105f761080936600461483b565b611cc7565b34801561081a57600080fd5b50610823611cf2565b60405161049991906148e3565b34801561083c57600080fd5b5061048d61084b36600461473d565b611e14565b34801561085c57600080fd5b5061048d61086b36600461493b565b611edf565b34801561087c57600080fd5b5061052061088b36600461473d565b611fff565b34801561089c57600080fd5b506105f76108ab366004614969565b612061565b3480156108bc57600080fd5b506105206108cb36600461473d565b61212c565b3480156108dc57600080fd5b506105f76108eb36600461473d565b61214a565b3480156108fc57600080fd5b5061052061090b36600461473d565b61227a565b34801561091c57600080fd5b5061093061092b366004614969565b612298565b60408051938452602084019290925290820152606001610499565b34801561095757600080fd5b506105f76109663660046146f1565b61238b565b34801561097757600080fd5b5061048d6109863660046146f1565b612436565b34801561099757600080fd5b506109306109a636600461483b565b6125d8565b3480156109b757600080fd5b506105f761266f565b3480156109cc57600080fd5b506105206126aa565b3480156109e157600080fd5b506105f76109f03660046146f1565b6126ba565b348015610a0157600080fd5b50610a15610a103660046146f1565b612733565b60405160ff9091168152602001610499565b348015610a3357600080fd5b50610563610a4236600461473d565b61275f565b348015610a5357600080fd5b5061048d610a623660046148c6565b612786565b348015610a7357600080fd5b5061048d610a82366004614995565b612809565b348015610a9357600080fd5b5061048d610aa23660046148c6565b612a03565b348015610ab357600080fd5b5061048d610ac23660046146f1565b612a43565b348015610ad357600080fd5b50610520610ae236600461473d565b612ae1565b348015610af357600080fd5b50610563612aff565b348015610b0857600080fd5b5061048d610b1736600461483b565b612b09565b348015610b2857600080fd5b5061048d612b3d565b348015610b3d57600080fd5b50610520610b4c36600461483b565b612bdf565b348015610b5d57600080fd5b506105f7610b6c3660046148c6565b612c78565b348015610b7d57600080fd5b50610b91610b8c3660046149d6565b612c90565b6040516104999190600061012082019050825182526020830151602083015260408301516040830152606083015160608301526080830151608083015260a083015160a083015260c083015160c083015260e083015160e083015261010080840151818401525092915050565b348015610c0a57600080fd5b50610563610c1936600461473d565b612da8565b348015610c2a57600080fd5b50610823610c3936600461473d565b612dcf565b348015610c4a57600080fd5b50610520600081565b348015610c5f57600080fd5b506105f7610c6e366004614969565b612e77565b348015610c7f57600080fd5b50610520610c8e3660046148c6565b612f2a565b348015610c9f57600080fd5b50610cb3610cae366004614a17565b61309a565b604080519788526020880196909652948601939093526060850191909152608084015260a0830152151560c082015260e001610499565b348015610cf657600080fd5b506105f7610d053660046148c6565b613134565b348015610d1657600080fd5b50610d2a610d25366004614a2a565b61314c565b6040516104999190614aef565b348015610d4357600080fd5b5061048d610d523660046146f1565b613241565b348015610d6357600080fd5b50610563610d723660046146f1565b61332a565b348015610d8357600080fd5b506105f761335c565b348015610d9857600080fd5b5061048d610da7366004614995565b613409565b348015610db857600080fd5b5061048d613577565b348015610dcd57600080fd5b506105f7610ddc36600461483b565b61358c565b61048d610def3660046147b3565b6135d1565b348015610e0057600080fd5b5061048d610e0f366004614b51565b6136de565b348015610e2057600080fd5b506105f7610e2f3660046146f1565b613836565b348015610e4057600080fd5b50610e54610e4f36600461473d565b6138f1565b6040516104999190614bd2565b348015610e6d57600080fd5b50610520610e7c3660046146f1565b613983565b348015610e8d57600080fd5b506105f7610e9c366004614969565b613a24565b348015610ead57600080fd5b506105f7610ebc366004614c0d565b613ac3565b348015610ecd57600080fd5b5061048d610edc366004614b51565b613ba6565b348015610eed57600080fd5b50610520610efc3660046146f1565b613cb1565b348015610f0d57600080fd5b506105f7610f1c3660046148c6565b613cda565b348015610f2d57600080fd5b5061048d610f3c3660046147b3565b613d77565b348015610f4d57600080fd5b5061048d610f5c36600461473d565b613e11565b348015610f6d57600080fd5b50610520600080516020615b5383398151915281565b348015610f8f57600080fd5b50610823610f9e3660046148c6565b613ea6565b348015610faf57600080fd5b50610520613ed4565b6000610fc2613ee7565b8282610fce8282611a8c565b610feb576040516318f4d05960e31b815260040160405180910390fd5b610ff3613577565b15611011576040516319a90b2f60e21b815260040160405180910390fd5b604051622aaddf60e11b81527377a786f3c72f87f255199B1881A7DC72678fdAb69062555bbe9061104d90889088903390600090600401614c50565b606060405180830381865af415801561106a573d6000803e3d6000fd5b505050506040513d601f19601f8201168201806040525081019061108e9190614c74565b5050506001925050506110a16001600055565b92915050565b60006001600160e01b03198216637965db0b60e01b14806110a157506301ffc9a760e01b6001600160e01b03198316146110a1565b60408051808201909152600080825260208201526110f8613f40565b600092835260020160209081526040928390208351808501909452805484526001015460ff16908301525090565b604051620f324960e61b815260048101849052602481018390526001600160a01b03821660448201526000907377a786f3c72f87f255199B1881A7DC72678fdAb6906303cc924090606401602060405180830381865af415801561118e573d6000803e3d6000fd5b505050506040513d601f19601f820116820180604052508101906111b29190614ca2565b90505b9392505050565b60006111c6613f40565b6000838152600591909101602090815260409182902054825163128e5b8560e01b815292516001600160a01b039091169263128e5b859260048083019391928290030181865afa15801561121e573d6000803e3d6000fd5b505050506040513d601f19601f820116820180604052508101906110a19190614ca2565b600061124c613f6e565b546001600160a01b0316919050565b60405163018ba8a560e21b815260048101849052602481018390526001600160a01b0382166044820152600090819073254d212F66Af9570fF55fbf5915022b8525a88EB9063062ea294906064016040805180830381865af41580156112c5573d6000803e3d6000fd5b505050506040513d601f19601f820116820180604052508101906112e99190614cbb565b90969095509350505050565b60006112ff613ee7565b858561130b8282611a8c565b611328576040516318f4d05960e31b815260040160405180910390fd5b611330613577565b1561134e576040516319a90b2f60e21b815260040160405180910390fd5b611356613f9c565b6040516396994e3760e01b8152336004820152602481018a9052604481018790526001600160a01b0391909116906396994e379034906064016000604051808303818588803b1580156113a857600080fd5b505af11580156113bc573d6000803e3d6000fd5b505060405163606c3acd60e01b81527377a786f3c72f87f255199B1881A7DC72678fdAb6935063606c3acd925061140291508b908b9033908c908c908c90600401614d01565b60006040518083038186803b15801561141a57600080fd5b505af415801561142e573d6000803e3d6000fd5b505050506001925050506114426001600055565b95945050505050565b600154610100900460ff161580801561146857506001805460ff16105b806114815750303b15801561148157506001805460ff16145b6114e95760405162461bcd60e51b815260206004820152602e60248201527f496e697469616c697a61626c653a20636f6e747261637420697320616c72656160448201526d191e481a5b9a5d1a585b1a5e995960921b60648201526084015b60405180910390fd5b6001805460ff191681179055801561150b576001805461ff0019166101001790555b6000611515613fab565b6001600160a01b0316036115765760405162461bcd60e51b815260206004820152602260248201527f4d7573742062652063616c6c65642066726f6d2070726f787920636f6e74726160448201526118dd60f21b60648201526084016114e0565b8161157f613f40565b5561158984613d6e565b61159284613fd3565b61159b83613ff6565b80156115e0576001805461ff00191681556040519081527f7f26b83ff96e1f2b6a682f133852f6798a09c465da95921460cefb38474024989060200160405180910390a15b50505050565b60405163b55c692f60e01b815260009073254d212F66Af9570fF55fbf5915022b8525a88EB9063b55c692f90611626908690859087908290600401614c50565b61016060405180830381865af4158015611644573d6000803e3d6000fd5b505050506040513d601f19601f820116820180604052508101906116689190614dd4565b519392505050565b6000806000806000807377a786f3c72f87f255199B1881A7DC72678fdAb66307d2f388886040518263ffffffff1660e01b81526004016116b09190614e75565b60c060405180830381865af41580156116cd573d6000803e3d6000fd5b505050506040513d601f19601f820116820180604052508101906116f19190614eee565b949c939b5091995097509550909350915050565b600061170f614052565b600092835260205250604090206001015490565b61176b60405180610100016040528060008152602001600081526020016000815260200160008152602001600081526020016000815260200160008152602001600081525090565b61179984611777613f40565b6001600160a01b0386166000908152600d919091016020526040902090614080565b156111b5576117e16040518060e00160405280600080191681526020016000815260200160008152602001600081526020016000815260200160008152602001600081525090565b60408051639349fb4160e01b8152600481018790526001600160a01b03861660248201528251604482015260208301516064820152908201516084820152606082015160a4820152608082015160c482015260a082015160e482015260c0820151610104820152610124810184905273254d212F66Af9570fF55fbf5915022b8525a88EB90639349fb41906101440161010060405180830381865af415801561188e573d6000803e3d6000fd5b505050506040513d601f19601f820116820180604052508101906118b29190614f43565b9150506111b5565b60408051808201909152600080825260208201526118d6613f40565b6001600160a01b039092166000908152601092909201602090815260409283902083518085019094528054845260010154908301525090565b6000611919611cf2565b905060005b8151811015611a8857600082828151811061193b5761193b614fd3565b60200260200101519050600061194f613f6e565b54604080517f5265736f6c766572206d697373696e67207461726765743a200000000000000060208201526039808201869052825180830390910181526059820192839052636795dbcd60e01b9092526001600160a01b0390921691636795dbcd916119c091869190605d01614fe9565b602060405180830381865afa1580156119dd573d6000803e3d6000fd5b505050506040513d601f19601f82011682018060405250810190611a019190615002565b905080611a0c613f6e565b6000848152600191909101602090815260409182902080546001600160a01b0319166001600160a01b039485161790558151858152928416908301527f88a93678a3692f6789d9546fc621bf7234b101ddb7d4fe479455112831b8aa68910160405180910390a150508080611a8090615035565b91505061191e565b5050565b6000611a96613f40565b6000938452600a01602090815260408085209385529290525090205460ff16151590565b600080611ac5611cf2565b905060005b8151811015611be3576000828281518110611ae757611ae7614fd3565b60200260200101519050611af9613f6e565b600082815260019190910160205260409020546001600160a01b0316611b1d613f6e565b546040516321f8a72160e01b8152600481018490526001600160a01b03909116906321f8a72190602401602060405180830381865afa158015611b64573d6000803e3d6000fd5b505050506040513d601f19601f82011682018060405250810190611b889190615002565b6001600160a01b0316141580611bc157506000611ba3613f6e565b600083815260019190910160205260409020546001600160a01b0316145b15611bd0576000935050505090565b5080611bdb81615035565b915050611aca565b50600191505090565b6000611bf6613f40565b6000928352600801602052506040902054151590565b6000611c16613ee7565b8585611c228282611a8c565b611c3f576040516318f4d05960e31b815260040160405180910390fd5b611c47613577565b15611c65576040516319a90b2f60e21b815260040160405180910390fd5b60405163aeb2d5bd60e01b81527377a786f3c72f87f255199B1881A7DC72678fdAb69063aeb2d5bd90611402908b908b9033908c908c908c90600401614d01565b611caf82611705565b611cb881614098565b611cc283836140a2565b505050565b604051631eb5512b60e31b8152600481018390526001600160a01b03821660248201526044016114e0565b60408051600580825260c082019092526060916020820160a080368337019050509050742132b0b1b7b7283937bc3ca1b7b73a3937b63632b960591b81600081518110611d4157611d41614fd3565b6020026020010181815250507121bab93932b731bca1b7b73a3937b63632b960711b81600181518110611d7657611d76614fd3565b6020026020010181815250507011d95b995cda5cd5985b1d5955985d5b1d607a1b81600281518110611daa57611daa614fd3565b6020026020010181815250506a14995cd95c9d99519d5b9960aa1b81600381518110611dd857611dd8614fd3565b60200260200101818152505069151bdad95b95985d5b1d60b21b81600481518110611e0557611e05614fd3565b60200260200101818152505090565b6000611e1e613577565b15611e3c576040516319a90b2f60e21b815260040160405180910390fd5b611e54600080516020615b5383398151915233612b09565b611e715760405163a5523ee560e01b815260040160405180910390fd5b60405163428c3a8160e01b81526004810183905273E38F4C0427c8a1063930a8290Fd245963Bc218559063428c3a81906024015b60006040518083038186803b158015611ebd57600080fd5b505af4158015611ed1573d6000803e3d6000fd5b50505050600190505b919050565b6000611ee9613ee7565b8383611ef58282611a8c565b611f12576040516318f4d05960e31b815260040160405180910390fd5b611f1a613577565b15611f38576040516319a90b2f60e21b815260040160405180910390fd5b611f40613f40565b600087815260059190910160205260409020546001600160a01b031663f3f7f452611f69613f40565b6000898152600a91909101602090815260408083208a84529091529081902054905160e083901b6001600160e01b031916815260ff909116600482015233602482015265ffffffffffff87166044820152606401600060405180830381600087803b158015611fd757600080fd5b505af1158015611feb573d6000803e3d6000fd5b505050506001925050506111b56001600055565b6000612009613f40565b60008381526005919091016020908152604091829020548251631e25031760e01b815292516001600160a01b0390911692631e2503179260048083019391928290030181865afa15801561121e573d6000803e3d6000fd5b612069613577565b15612087576040516319a90b2f60e21b815260040160405180910390fd5b33612090612aff565b6001600160a01b0316146120b65760405162461bcd60e51b81526004016114e09061504e565b604051634ebeb04960e01b815260048101849052602481018390526044810182905273E38F4C0427c8a1063930a8290Fd245963Bc2185590634ebeb0499060640160006040518083038186803b15801561210f57600080fd5b505af4158015612123573d6000803e3d6000fd5b50505050505050565b6000612136613f40565b600092835260070160205250604090205490565b612152613ee7565b61215a613577565b15612178576040516319a90b2f60e21b815260040160405180910390fd5b6040516353571ee760e01b81526004810182905273E38F4C0427c8a1063930a8290Fd245963Bc21855906353571ee79060240160006040518083038186803b1580156121c357600080fd5b505af41580156121d7573d6000803e3d6000fd5b5050505073254d212F66Af9570fF55fbf5915022b8525a88EB639519832b826121fe614119565b6040516001600160e01b031960e085901b16815260048101929092526001600160a01b03166024820152604401602060405180830381865af4158015612248573d6000803e3d6000fd5b505050506040513d601f19601f8201168201806040525081019061226c9190614ca2565b506122776001600055565b50565b6000612284613f40565b600092835260030160205250604090205490565b60008060006122a5613ee7565b85856122b18282611a8c565b6122ce576040516318f4d05960e31b815260040160405180910390fd5b6122d6613577565b156122f4576040516319a90b2f60e21b815260040160405180910390fd5b604051622aaddf60e11b81527377a786f3c72f87f255199B1881A7DC72678fdAb69062555bbe9061232f908b908b9033908c90600401614c50565b606060405180830381865af415801561234c573d6000803e3d6000fd5b505050506040513d601f19601f820116820180604052508101906123709190614c74565b94509450945050506123826001600055565b93509350939050565b33612394612aff565b6001600160a01b0316146123ba5760405162461bcd60e51b81526004016114e09061504e565b6123c2613f40565b6000838152600591909101602052604090819020549051636aa65aaf60e01b8152600481018390526001600160a01b0390911690636aa65aaf906024015b600060405180830381600087803b15801561241a57600080fd5b505af115801561242e573d6000803e3d6000fd5b505050505050565b6000612440613ee7565b612448613577565b15612466576040516319a90b2f60e21b815260040160405180910390fd5b604051631a88ea5760e21b81526004810184905260248101839052600090819073E38F4C0427c8a1063930a8290Fd245963Bc2185590636a23a95c9060440161010060405180830381865af41580156124c3573d6000803e3d6000fd5b505050506040513d601f19601f820116820180604052508101906124e791906150fd565b6040516305ed050d60e51b815291935091507377a786f3c72f87f255199B1881A7DC72678fdAb69063bda0a1a09061252a90889088906000908890600401615133565b60006040518083038186803b15801561254257600080fd5b505af4158015612556573d6000803e3d6000fd5b50506040516305ed050d60e51b81527377a786f3c72f87f255199B1881A7DC72678fdAb6925063bda0a1a0915061259890889088906001908790600401615133565b60006040518083038186803b1580156125b057600080fd5b505af41580156125c4573d6000803e3d6000fd5b505050506001925050506110a16001600055565b60405163386320d360e11b8152600481018390526001600160a01b03821660248201526000908190819073254d212F66Af9570fF55fbf5915022b8525a88EB906370c641a690604401606060405180830381865af415801561263e573d6000803e3d6000fd5b505050506040513d601f19601f820116820180604052508101906126629190614c74565b9250925092509250925092565b33612678612aff565b6001600160a01b03161461269e5760405162461bcd60e51b81526004016114e09061504e565b6126a86000614123565b565b60006126b4613f40565b54919050565b336126c3612aff565b6001600160a01b0316146126e95760405162461bcd60e51b81526004016114e09061504e565b6126f1613f40565b6000838152600591909101602052604090819020549051636c5d6df160e01b8152600481018390526001600160a01b0390911690636c5d6df190602401612400565b600061273d613f40565b6000938452600a01602090815260408085209385529290525090205460ff1690565b6000612769613f40565b60009283526006016020525060409020546001600160a01b031690565b6000612790613ee7565b60405163104d68fd60e31b81526001600160a01b038316600482015273254d212F66Af9570fF55fbf5915022b8525a88EB9063826b47e89060240160006040518083038186803b1580156127e357600080fd5b505af41580156127f7573d6000803e3d6000fd5b5050505060019050611eda6001600055565b6000333014612936576001546201000090046001600160a01b031615612842576040516337affdbf60e11b815260040160405180910390fd5b6001805462010000600160b01b03191633620100000217905583836128678282611a8c565b612884576040516318f4d05960e31b815260040160405180910390fd5b61288c613577565b156128aa576040516319a90b2f60e21b815260040160405180910390fd5b604051633099b3fd60e21b8152732907871b750dF4fe57aa8aA1399D388696Cb20dF9063c266cff4906128e990339088908c908c908c9060040161518f565b60006040518083038186803b15801561290157600080fd5b505af4158015612915573d6000803e3d6000fd5b505050506001925050506001805462010000600160b01b03191690556129fb565b83836129428282611a8c565b61295f576040516318f4d05960e31b815260040160405180910390fd5b612967613577565b15612985576040516319a90b2f60e21b815260040160405180910390fd5b604051633099b3fd60e21b8152732907871b750dF4fe57aa8aA1399D388696Cb20dF9063c266cff4906129c490339088908c908c908c9060040161518f565b60006040518083038186803b1580156129dc57600080fd5b505af41580156129f0573d6000803e3d6000fd5b505050506001925050505b949350505050565b6000612a0d613577565b80156110a15750612a1c613f40565b6001600160a01b0383166000908152600e91909101602052604090205460ff161592915050565b6000612a4d613ee7565b8282612a598282611a8c565b612a76576040516318f4d05960e31b815260040160405180910390fd5b612a7e613577565b15612a9c576040516319a90b2f60e21b815260040160405180910390fd5b6040516332b3123760e11b8152600481018690526024810185905233604482015273254d212F66Af9570fF55fbf5915022b8525a88EB90636566246e90606401612598565b6000612aeb613f40565b600092835260080160205250604090205490565b600061124c614190565b6000612b13614052565b6000938452602090815260408085206001600160a01b039490941685529290525090205460ff1690565b6000612b47613ee7565b612b4f613577565b612b6c576040516304d824a560e41b815260040160405180910390fd5b604051635dd3a2c160e01b815233600482015273254d212F66Af9570fF55fbf5915022b8525a88EB90635dd3a2c19060240160006040518083038186803b158015612bb657600080fd5b505af4158015612bca573d6000803e3d6000fd5b5050505060019050612bdc6001600055565b90565b6000612be9613ee7565b604051639519832b60e01b8152600481018490526001600160a01b038316602482015273254d212F66Af9570fF55fbf5915022b8525a88EB90639519832b90604401602060405180830381865af4158015612c48573d6000803e3d6000fd5b505050506040513d601f19601f82011682018060405250810190612c6c9190614ca2565b90506110a16001600055565b612277600080516020615b5383398151915282611ca6565b612cdf6040518061012001604052806000815260200160008152602001600081526020016000815260200160008152602001600081526020016000815260200160008152602001600081525090565b604080516345f1848f60e11b81526001600160a01b0386166004820152843560248201526020850135604482015290840135606482015260608401356084820152608084013560a482015260a084013560c482015260c084013560e4820152610104810183905273254d212F66Af9570fF55fbf5915022b8525a88EB90638be3091e906101240161012060405180830381865af4158015612d84573d6000803e3d6000fd5b505050506040513d601f19601f820116820180604052508101906111b291906151c0565b6000612db2613f40565b60009283526005016020525060409020546001600160a01b031690565b6060612dd9613f40565b600083815260059190910160205260409020546001600160a01b03166338b05852612e02613f40565b6000858152600491820160205260409081902090516001600160e01b031960e085901b168152612e32920161523b565b600060405180830381865afa158015612e4f573d6000803e3d6000fd5b505050506040513d6000823e601f3d908101601f191682016040526110a1919081019061581c565b612e7f613ee7565b8115801590612e955750612e938383611a8c565b155b15612eb3576040516318f4d05960e31b815260040160405180910390fd5b60405163e21bd62360e01b81527377a786f3c72f87f255199B1881A7DC72678fdAb69063e21bd62390612ef0908690869033908790600401614c50565b60006040518083038186803b158015612f0857600080fd5b505af4158015612f1c573d6000803e3d6000fd5b50505050611cc26001600055565b600080612f35613f40565b6001600160a01b0384166000908152600d919091016020526040812091505b612f5d826141be565b811015613093576000612f7083836141c8565b9050600073254d212F66Af9570fF55fbf5915022b8525a88EB63b55c692f8360008960006040518563ffffffff1660e01b8152600401612fb39493929190614c50565b61016060405180830381865af4158015612fd1573d6000803e3d6000fd5b505050506040513d601f19601f82011682018060405250810190612ff59190614dd4565b5190506130006141d4565b604051633c7f634960e11b815260048101849052602481018390526001600160a01b0391909116906378fec69290604401602060405180830381865afa15801561304e573d6000803e3d6000fd5b505050506040513d601f19601f820116820180604052508101906130729190614ca2565b61307c90866158c2565b94505050808061308b90615035565b915050612f54565b5050919050565b60008060008060008060007377a786f3c72f87f255199B1881A7DC72678fdAb663724160ad896040518263ffffffff1660e01b81526004016130dc91906158ea565b60e060405180830381865af41580156130f9573d6000803e3d6000fd5b505050506040513d601f19601f8201168201806040525081019061311d919061596e565b959e949d50929b5090995097509550909350915050565b612277600080516020615b538339815191528261358c565b60608167ffffffffffffffff81111561316757613167614d3f565b60405190808252806020026020018201604052801561319a57816020015b60608152602001906001900390816131855790505b50905060005b8281101561323a5761320a308585848181106131be576131be614fd3565b90506020028101906131d091906159ce565b8080601f0160208091040260200160405190810160405280939291908181526020018383808284376000920191909152506141de92505050565b82828151811061321c5761321c614fd3565b6020026020010181905250808061323290615035565b9150506131a0565b5092915050565b600061324b613ee7565b82826132578282611a8c565b613274576040516318f4d05960e31b815260040160405180910390fd5b61327c613577565b1561329a576040516319a90b2f60e21b815260040160405180910390fd5b6040516301402dfb60e31b815273254d212F66Af9570fF55fbf5915022b8525a88EB90630a016fd8906132d890889088903390600090600401614c50565b602060405180830381865af41580156132f5573d6000803e3d6000fd5b505050506040513d601f19601f820116820180604052508101906133199190614ca2565b506001925050506110a16001600055565b6000613334613f40565b6000938452600f0160209081526040808520938552929052509020546001600160a01b031690565b613364613577565b15613382576040516319a90b2f60e21b815260040160405180910390fd5b3361338b612aff565b6001600160a01b0316146133b15760405162461bcd60e51b81526004016114e09061504e565b73E38F4C0427c8a1063930a8290Fd245963Bc2185563b8f117cd6040518163ffffffff1660e01b815260040160006040518083038186803b1580156133f557600080fd5b505af41580156115e0573d6000803e3d6000fd5b60003330146134e9576001546201000090046001600160a01b031615613442576040516337affdbf60e11b815260040160405180910390fd5b6001805462010000600160b01b03191633620100000217905583836134678282611a8c565b613484576040516318f4d05960e31b815260040160405180910390fd5b61348c613577565b156134aa576040516319a90b2f60e21b815260040160405180910390fd5b604051635436151f60e11b8152732907871b750dF4fe57aa8aA1399D388696Cb20dF9063a86c2a3e906128e990339088908c908c908c9060040161518f565b83836134f58282611a8c565b613512576040516318f4d05960e31b815260040160405180910390fd5b61351a613577565b15613538576040516319a90b2f60e21b815260040160405180910390fd5b604051635436151f60e11b8152732907871b750dF4fe57aa8aA1399D388696Cb20dF9063a86c2a3e906129c490339088908c908c908c9060040161518f565b600080613582613f40565b6001015411905090565b336001600160a01b038216036135c757604051631eb5512b60e31b8152600481018390526001600160a01b03821660248201526044016114e0565b611a888282614203565b60006135db613ee7565b85856135e78282611a8c565b613604576040516318f4d05960e31b815260040160405180910390fd5b61360c613577565b1561362a576040516319a90b2f60e21b815260040160405180910390fd5b613632613f9c565b6040516396994e3760e01b8152336004820152602481018a9052604481018790526001600160a01b0391909116906396994e379034906064016000604051808303818588803b15801561368457600080fd5b505af1158015613698573d6000803e3d6000fd5b505060405163aeb2d5bd60e01b81527377a786f3c72f87f255199B1881A7DC72678fdAb6935063aeb2d5bd925061140291508b908b9033908c908c908c90600401614d01565b60006136e8613ee7565b89896136f48282611a8c565b613711576040516318f4d05960e31b815260040160405180910390fd5b613719613577565b15613737576040516319a90b2f60e21b815260040160405180910390fd5b61373f613f9c565b6001600160a01b03166360819025338e8c8b8b8b8b6040518863ffffffff1660e01b81526004016137769796959493929190615a1c565b600060405180830381600087803b15801561379057600080fd5b505af11580156137a4573d6000803e3d6000fd5b505050507377a786f3c72f87f255199B1881A7DC72678fdAb663606c3acd8d8d338e8e8e6040518763ffffffff1660e01b81526004016137e996959493929190614d01565b60006040518083038186803b15801561380157600080fd5b505af4158015613815573d6000803e3d6000fd5b505050506001925050506138296001600055565b9998505050505050505050565b61383e613577565b1561385c576040516319a90b2f60e21b815260040160405180910390fd5b33613865612aff565b6001600160a01b03161461388b5760405162461bcd60e51b81526004016114e09061504e565b60405163e3a9833360e01b8152600481018390526024810182905273E38F4C0427c8a1063930a8290Fd245963Bc218559063e3a983339060440160006040518083038186803b1580156138dd57600080fd5b505af415801561242e573d6000803e3d6000fd5b60606138fb613f40565b600401600083815260200190815260200160002080548060200260200160405190810160405280929190818152602001828054801561397757602002820191906000526020600020906000905b825461010083900a900460ff168152602060019283018181049485019490930390920291018084116139485790505b50505050509050919050565b600073254d212F66Af9570fF55fbf5915022b8525a88EB63c59cf0e9836139a8613f40565b6007016000878152602001908152602001600020546040518363ffffffff1660e01b81526004016139e3929190918252602082015260400190565b602060405180830381865af4158015613a00573d6000803e3d6000fd5b505050506040513d601f19601f820116820180604052508101906111b59190614ca2565b613a2c613ee7565b613a34613577565b15613a52576040516319a90b2f60e21b815260040160405180910390fd5b8115801590613a685750613a668383611a8c565b155b15613a86576040516318f4d05960e31b815260040160405180910390fd5b60405163912da51560e01b81527377a786f3c72f87f255199B1881A7DC72678fdAb69063912da51590612ef0908690869033908790600401614c50565b33613acc612aff565b6001600160a01b031614613af25760405162461bcd60e51b81526004016114e09061504e565b613afb86611bec565b15613b185760405162dc149f60e41b815260040160405180910390fd5b60405163ea57481760e01b8152600481018790526024810186905260448101859052606481018490526084810183905260a4810182905273E38F4C0427c8a1063930a8290Fd245963Bc218559063ea5748179060c40160006040518083038186803b158015613b8657600080fd5b505af4158015613b9a573d6000803e3d6000fd5b50505050505050505050565b6000613bb0613ee7565b8989613bbc8282611a8c565b613bd9576040516318f4d05960e31b815260040160405180910390fd5b613be1613577565b15613bff576040516319a90b2f60e21b815260040160405180910390fd5b613c07613f9c565b6001600160a01b03166360819025338e8c8b8b8b8b6040518863ffffffff1660e01b8152600401613c3e9796959493929190615a1c565b600060405180830381600087803b158015613c5857600080fd5b505af1158015613c6c573d6000803e3d6000fd5b505050507377a786f3c72f87f255199B1881A7DC72678fdAb663aeb2d5bd8d8d338e8e8e6040518763ffffffff1660e01b81526004016137e996959493929190614d01565b6000613cbb613f40565b6000938452600901602090815260408085209385529290525090205490565b33613ce3612aff565b6001600160a01b031614613d095760405162461bcd60e51b81526004016114e09061504e565b6001600160a01b038116613d6e5760405162461bcd60e51b815260206004820152602660248201527f4f776e61626c653a206e6577206f776e657220697320746865207a65726f206160448201526564647265737360d01b60648201526084016114e0565b61227781614123565b6000613d81613ee7565b8585613d8d8282611a8c565b613daa576040516318f4d05960e31b815260040160405180910390fd5b613db2613577565b15613dd0576040516319a90b2f60e21b815260040160405180910390fd5b60405163606c3acd60e01b81527377a786f3c72f87f255199B1881A7DC72678fdAb69063606c3acd90611402908b908b9033908c908c908c90600401614d01565b6000613e1b613577565b15613e39576040516319a90b2f60e21b815260040160405180910390fd5b613e51600080516020615b5383398151915233612b09565b613e6e5760405163a5523ee560e01b815260040160405180910390fd5b60405163f4a0997f60e01b81526004810183905273E38F4C0427c8a1063930a8290Fd245963Bc218559063f4a0997f90602401611ea5565b60606110a1613eb3613f40565b6001600160a01b0384166000908152600d919091016020526040902061421f565b6000613ede613f40565b60010154905090565b600260005403613f395760405162461bcd60e51b815260206004820152601f60248201527f5265656e7472616e637947756172643a207265656e7472616e742063616c6c0060448201526064016114e0565b6002600055565b6000806110a160017f8041b8421ebd495cc61f38c788c9eb100daccf9bd36aa0bb920b7a15b2e04965615a5a565b6000806110a160017f4abde63c3e81aefa5764b017968bc473e83e093d7e1a10247d19e0a3e4124018615a5a565b6000613fa661422c565b905090565b60007f360894a13ba1a3210667c828492db98dca3e2076cc3735a920a3ca505d382bbc61124c565b613fde6000826140a2565b612277600080516020615b53833981519152826140a2565b6000614000613f6e565b546001600160a01b031614614028576040516304b79d6360e51b815260040160405180910390fd5b80614031613f6e565b80546001600160a01b0319166001600160a01b039290921691909117905550565b6000806110a160017f35e4a72724550e3953b041d501f29ff9ff417812c2917a203d9c4833b9d1d6f9615a5a565b600081815260018301602052604081205415156111b5565b6122778133614244565b6140ac8282612b09565b611a885760016140ba614052565b6000848152602091825260408082206001600160a01b0386168084529352808220805460ff1916941515949094179093559151339285917f2f8788117e7eff1d82e926ec794901d17c78024a50270940304540a733656f0d9190a45050565b6000613fa66142a8565b600061412d614190565b546001600160a01b0316905081614142614190565b80546001600160a01b0319166001600160a01b03928316179055604051838216918316907f8be0079c531659141344cd1fd0a4f28419497f9722a3daafe3b4186f6b6457e090600090a35050565b6000806110a160017f9acda75aebd150dd434541a4747a6dc606f4f1a59662477e67daf1fc0bf9e0aa615a5a565b60006110a1825490565b60006111b583836142c1565b6000613fa66142eb565b60606111b58383604051806060016040528060278152602001615b736027913961430b565b61420c82611705565b61421581614098565b611cc28383614383565b606060006111b5836143fb565b6000613fa669151bdad95b95985d5b1d60b21b614456565b61424e8282612b09565b611a8857614266816001600160a01b031660146144b7565b6142718360206144b7565b604051602001614282929190615a6d565b60408051601f198184030181529082905262461bcd60e51b82526114e091600401615ae2565b6000613fa66a14995cd95c9d99519d5b9960aa1b614456565b60008260000182815481106142d8576142d8614fd3565b9060005260206000200154905092915050565b6000613fa67121bab93932b731bca1b7b73a3937b63632b960711b614456565b6060600080856001600160a01b0316856040516143289190615af5565b600060405180830381855af49150503d8060008114614363576040519150601f19603f3d011682016040523d82523d6000602084013e614368565b606091505b509150915061437986838387614653565b9695505050505050565b61438d8282612b09565b15611a8857600061439c614052565b6000848152602091825260408082206001600160a01b0386168084529352808220805460ff1916941515949094179093559151339285917ff6391f5c32d9c69d2a47ea670b442974b53935d1edc7fd64eb21e047a839171b9190a45050565b60608160000180548060200260200160405190810160405280929190818152602001828054801561397757602002820191906000526020600020905b8154815260200190600101908083116144375750505050509050919050565b600080614461613f6e565b600084815260019190910160205260409020546001600160a01b03169050806110a15760408051602081018590520160408051601f19818403018152908290526346e2ec9360e01b82526114e091600401615ae2565b606060006144c6836002615b11565b6144d1906002615b28565b67ffffffffffffffff8111156144e9576144e9614d3f565b6040519080825280601f01601f191660200182016040528015614513576020820181803683370190505b509050600360fc1b8160008151811061452e5761452e614fd3565b60200101906001600160f81b031916908160001a905350600f60fb1b8160018151811061455d5761455d614fd3565b60200101906001600160f81b031916908160001a9053506000614581846002615b11565b61458c906001615b28565b90505b6001811115614604576f181899199a1a9b1b9c1cb0b131b232b360811b85600f16601081106145c0576145c0614fd3565b1a60f81b8282815181106145d6576145d6614fd3565b60200101906001600160f81b031916908160001a90535060049490941c936145fd81615b3b565b905061458f565b5083156111b55760405162461bcd60e51b815260206004820181905260248201527f537472696e67733a20686578206c656e67746820696e73756666696369656e7460448201526064016114e0565b606083156146c25782516000036146bb576001600160a01b0385163b6146bb5760405162461bcd60e51b815260206004820152601d60248201527f416464726573733a2063616c6c20746f206e6f6e2d636f6e747261637400000060448201526064016114e0565b50816129fb565b6129fb83838151156146d75781518083602001fd5b8060405162461bcd60e51b81526004016114e09190615ae2565b6000806040838503121561470457600080fd5b50508035926020909101359150565b60006020828403121561472557600080fd5b81356001600160e01b0319811681146111b557600080fd5b60006020828403121561474f57600080fd5b5035919050565b6001600160a01b038116811461227757600080fd5b60008060006060848603121561478057600080fd5b8335925060208401359150604084013561479981614756565b809150509250925092565b803560028110611eda57600080fd5b600080600080600060a086880312156147cb57600080fd5b85359450602086013593506147e2604087016147a4565b94979396509394606081013594506080013592915050565b60008060006060848603121561480f57600080fd5b833561481a81614756565b9250602084013561482a81614756565b929592945050506040919091013590565b6000806040838503121561484e57600080fd5b82359150602083013561486081614756565b809150509250929050565b600060e0828403121561487d57600080fd5b50919050565b600060e0828403121561489557600080fd5b6111b5838361486b565b6000806000606084860312156148b457600080fd5b83359250602084013561482a81614756565b6000602082840312156148d857600080fd5b81356111b581614756565b6020808252825182820181905260009190848201906040850190845b8181101561491b578351835292840192918401916001016148ff565b50909695505050505050565b65ffffffffffff8116811461227757600080fd5b60008060006060848603121561495057600080fd5b8335925060208401359150604084013561479981614927565b60008060006060848603121561497e57600080fd5b505081359360208301359350604090920135919050565b600080600080608085870312156149ab57600080fd5b84359350602085013592506040850135915060608501356149cb81614756565b939692955090935050565b600080600061012084860312156149ec57600080fd5b83356149f781614756565b9250614a06856020860161486b565b915061010084013590509250925092565b6000610100828403121561487d57600080fd5b60008060208385031215614a3d57600080fd5b823567ffffffffffffffff80821115614a5557600080fd5b818501915085601f830112614a6957600080fd5b813581811115614a7857600080fd5b8660208260051b8501011115614a8d57600080fd5b60209290920196919550909350505050565b60005b83811015614aba578181015183820152602001614aa2565b50506000910152565b60008151808452614adb816020860160208601614a9f565b601f01601f19169290920160200192915050565b6000602080830181845280855180835260408601915060408160051b870101925083870160005b82811015614b4457603f19888603018452614b32858351614ac3565b94509285019290850190600101614b16565b5092979650505050505050565b60008060008060008060008060006101208a8c031215614b7057600080fd5b8935985060208a01359750614b8760408b016147a4565b965060608a0135955060808a0135945060a08a0135935060c08a013560ff81168114614bb257600080fd5b8093505060e08a013591506101008a013590509295985092959850929598565b6020808252825182820181905260009190848201906040850190845b8181101561491b57835160ff1683529284019291840191600101614bee565b60008060008060008060c08789031215614c2657600080fd5b505084359660208601359650604086013595606081013595506080810135945060a0013592509050565b93845260208401929092526001600160a01b03166040830152606082015260800190565b600080600060608486031215614c8957600080fd5b8351925060208401519150604084015190509250925092565b600060208284031215614cb457600080fd5b5051919050565b60008060408385031215614cce57600080fd5b505080516020909101519092909150565b60028110614cfd57634e487b7160e01b600052602160045260246000fd5b9052565b868152602081018690526001600160a01b038516604082015260c08101614d2b6060830186614cdf565b608082019390935260a00152949350505050565b634e487b7160e01b600052604160045260246000fd5b604051610160810167ffffffffffffffff81118282101715614d7957614d79614d3f565b60405290565b604051610120810167ffffffffffffffff81118282101715614d7957614d79614d3f565b604051601f8201601f1916810167ffffffffffffffff81118282101715614dcc57614dcc614d3f565b604052919050565b60006101608284031215614de757600080fd5b614def614d55565b825181526020830151602082015260408301516040820152606083015160608201526080830151608082015260a083015160a082015260c083015160c082015260e083015160e08201526101008084015181830152506101208084015181830152506101408084015181830152508091505092915050565b801515811461227757600080fd5b813581526020808301359082015260e081016040830135614e9581614756565b6001600160a01b03166040830152614eaf606084016147a4565b614ebc6060840182614cdf565b506080830135608083015260a083013560a083015260c0830135614edf81614e67565b80151560c08401525092915050565b60008060008060008060c08789031215614f0757600080fd5b865195506020870151945060408701519350606087015192506080870151915060a0870151614f3581614e67565b809150509295509295509295565b6000610100808385031215614f5757600080fd5b6040519081019067ffffffffffffffff82118183101715614f7a57614f7a614d3f565b81604052835181526020840151602082015260408401516040820152606084015160608201526080840151608082015260a084015160a082015260c084015160c082015260e084015160e0820152809250505092915050565b634e487b7160e01b600052603260045260246000fd5b8281526040602082015260006111b26040830184614ac3565b60006020828403121561501457600080fd5b81516111b581614756565b634e487b7160e01b600052601160045260246000fd5b6000600182016150475761504761501f565b5060010190565b6020808252818101527f4f776e61626c653a2063616c6c6572206973206e6f7420746865206f776e6572604082015260600190565b60006080828403121561509557600080fd5b6040516080810181811067ffffffffffffffff821117156150b8576150b8614d3f565b806040525080915082516150cb81614927565b815260208301516150db81614756565b8060208301525060408301516040820152606083015160608201525092915050565b600080610100838503121561511157600080fd5b61511b8484615083565b915061512a8460808501615083565b90509250929050565b8481526020810184905260e0810161514e6040830185614cdf565b825165ffffffffffff1660608381019190915260208401516001600160a01b03166080840152604084015160a08401529092015160c0909101529392505050565b6001600160a01b03958616815293909416602084015260408301919091526060820152608081019190915260a00190565b600061012082840312156151d357600080fd5b6151db614d7f565b825181526020830151602082015260408301516040820152606083015160608201526080830151608082015260a083015160a082015260c083015160c082015260e083015160e08201526101008084015181830152508091505092915050565b60006020808301818452808554615256818490815260200190565b60008881526020812094509092505b81601f820110156154df57835460ff8082168552600882901c8116878601526040615299818701838560101c1660ff169052565b60606152ae818801848660181c1660ff169052565b60806152c281890185878d1c1660ff169052565b60a06152d7818a01868860281c1660ff169052565b60c06152ec818b01878960301c1660ff169052565b60e0615301818c01888a60381c1660ff169052565b60ff88871c8816166101008c01526153246101208c01888a60481c1660ff169052565b6153396101408c01888a60501c1660ff169052565b61534e6101608c01888a60581c1660ff169052565b60ff88861c8816166101808c01526153716101a08c01888a60681c1660ff169052565b6153866101c08c01888a60701c1660ff169052565b61539b6101e08c01888a60781c1660ff169052565b60ff88851c8816166102008c01526153be6102208c01888a60881c1660ff169052565b6153d36102408c01888a60901c1660ff169052565b6153e86102608c01888a60981c1660ff169052565b60ff88841c8816166102808c015261540b6102a08c01888a60a81c1660ff169052565b6154206102c08c01888a60b01c1660ff169052565b6154356102e08c01888a60b81c1660ff169052565b60ff88831c8816166103008c01526154586103208c01888a60c81c1660ff169052565b61546d6103408c01888a60d01c1660ff169052565b6154826103608c01888a60d81c1660ff169052565b60ff88821c8816166103808c01525050505050506154ab6103a08601828460e81c1660ff169052565b6154c06103c08601828460f01c1660ff169052565b5060f81c6103e084015260019390930192610400909201918401615265565b925492818110156154f85760ff84168352918401916001015b8181101561551257600884901c60ff168352918401916001015b8181101561552c57601084901c60ff168352918401916001015b8181101561554657601884901c60ff168352918401916001015b8181101561555e5783851c60ff168352918401916001015b8181101561557857602884901c60ff168352918401916001015b8181101561559257603084901c60ff168352918401916001015b818110156155ac57603884901c60ff168352918401916001015b818110156155c657604084901c60ff168352918401916001015b818110156155e057604884901c60ff168352918401916001015b818110156155fa57605084901c60ff168352918401916001015b8181101561561457605884901c60ff168352918401916001015b8181101561562e57606084901c60ff168352918401916001015b8181101561564857606884901c60ff168352918401916001015b8181101561566257607084901c60ff168352918401916001015b8181101561567c57607884901c60ff168352918401916001015b8181101561569657608084901c60ff168352918401916001015b818110156156b057608884901c60ff168352918401916001015b818110156156ca57609084901c60ff168352918401916001015b818110156156e457609884901c60ff168352918401916001015b818110156156fe5760a084901c60ff168352918401916001015b818110156157185760a884901c60ff168352918401916001015b818110156157325760b084901c60ff168352918401916001015b8181101561574c5760b884901c60ff168352918401916001015b818110156157665760c084901c60ff168352918401916001015b818110156157805760c884901c60ff168352918401916001015b8181101561579a5760d084901c60ff168352918401916001015b818110156157b45760d884901c60ff168352918401916001015b818110156157ce5760e084901c60ff168352918401916001015b818110156157e85760e884901c60ff168352918401916001015b818110156158025760f084901c60ff168352918401916001015b8181101561491b57505060f89190911c8152019392505050565b6000602080838503121561582f57600080fd5b825167ffffffffffffffff8082111561584757600080fd5b818501915085601f83011261585b57600080fd5b81518181111561586d5761586d614d3f565b8060051b915061587e848301614da3565b818152918301840191848101908884111561589857600080fd5b938501935b838510156158b65784518252938501939085019061589d565b98975050505050505050565b80820182811260008312801582168215821617156158e2576158e261501f565b505092915050565b81358152602080830135908201526101008101604083013561590b81614756565b6001600160a01b03166040830152615925606084016147a4565b6159326060840182614cdf565b506080830135608083015260a083013560a083015260c083013560c083015260e083013561595f81614e67565b80151560e08401525092915050565b600080600080600080600060e0888a03121561598957600080fd5b875196506020880151955060408801519450606088015193506080880151925060a0880151915060c08801516159be81614e67565b8091505092959891949750929550565b6000808335601e198436030181126159e557600080fd5b83018035915067ffffffffffffffff821115615a0057600080fd5b602001915036819003821315615a1557600080fd5b9250929050565b6001600160a01b0397909716875260208701959095526040860193909352606085019190915260ff16608084015260a083015260c082015260e00190565b818103818111156110a1576110a161501f565b7f416363657373436f6e74726f6c3a206163636f756e7420000000000000000000815260008351615aa5816017850160208801614a9f565b7001034b99036b4b9b9b4b733903937b6329607d1b6017918401918201528351615ad6816028840160208801614a9f565b01602801949350505050565b6020815260006111b56020830184614ac3565b60008251615b07818460208701614a9f565b9190910192915050565b80820281158282048414176110a1576110a161501f565b808201808211156110a1576110a161501f565b600081615b4a57615b4a61501f565b50600019019056fe97667070c54ef182b0f5858b034beac1b6f3089aa2d3188bb1e8929f4fa9b929416464726573733a206c6f772d6c6576656c2064656c65676174652063616c6c206661696c6564a264697066735822122015bd1f746360ff4e07e4f830b22852e1a6058ae80aa628bf19564d305421bed064736f6c63430008130033",
  "deployedBytecode": "0x6080604052600436106104685760003560e01c8063826b47e81161024a578063b4dafc9011610139578063e9eb03b3116100b6578063f43947c71161007a578063f43947c714610f21578063f4a0997f14610f41578063f5b541a614610f61578063fc70081014610f83578063ff5c086b14610fa357600080fd5b8063e9eb03b314610e81578063ea57481714610ea1578063ebd358fd14610ec1578063f03bc5a514610ee1578063f2fde38b14610f0157600080fd5b8063e0a17443116100fd578063e0a1744314610de1578063e30cdb1914610df4578063e3a9833314610e14578063e6977c6a14610e34578063e8c9af6314610e6157600080fd5b8063b4dafc9014610d57578063b8f117cd14610d77578063c11333b114610d8c578063d1cc997614610dac578063d547741f14610dc157600080fd5b80639e0998b2116101c7578063a4c66bde1161018b578063a4c66bde14610c73578063abc6f02514610c93578063ac8a584a14610cea578063ac9650d814610d0a578063b1d0f2f014610d3757600080fd5b80639e0998b214610b715780639f6c315914610bfe578063a02be3dc14610c1e578063a217fddf14610c3e578063a38f31fe14610c5357600080fd5b80638da5cb5b1161020e5780638da5cb5b14610ae757806391d1485414610afc57806394e75a3e14610b1c5780639519832b14610b315780639870d7fe14610b5157600080fd5b8063826b47e814610a475780638469973f14610a67578063862fd6e514610a87578063886f4b4514610aa7578063891d596514610ac757600080fd5b80632ef5ddaf1161036657806354227dec116102e3578063715018a6116102a7578063715018a6146109ab578063733ac7fc146109c05780637b588aaa146109d557806380a7de86146109f5578063812784b014610a2757600080fd5b806354227dec146108f05780635873aa4d146109105780635ca65d571461094b5780636a23a95c1461096b57806370c641a61461098b57600080fd5b806349f2ccbf1161032a57806349f2ccbf146108505780634e78fecc146108705780634ebeb0491461089057806352239c70146108b057806353571ee7146108d057600080fd5b80632ef5ddaf146107ae5780632f2ff15d146107ce57806336568abe146107ee5780633d03b9da1461080e578063428c3a811461083057600080fd5b80631794bb3c116103f45780632717654e116103b85780632717654e1461070957806329985e5a146107445780632a301496146107595780632af64bd3146107795780632e6c5e671461078e57600080fd5b80631794bb3c146105d757806317b72ff4146105f95780631ffbfc6614610619578063248a9ca31461066857806324e4ae051461068857600080fd5b806303e5fb591161043b57806303e5fb591461052e57806304f3bcec1461054e578063062ea2941461057b5780630b60d6d3146105b05780631316529d146105c357600080fd5b806301cf22351461046d57806301ffc9a7146104a2578063021b89d4146104c257806303cc924014610500575b600080fd5b34801561047957600080fd5b5061048d6104883660046146f1565b610fb8565b60405190151581526020015b60405180910390f35b3480156104ae57600080fd5b5061048d6104bd366004614713565b6110a7565b3480156104ce57600080fd5b506104e26104dd36600461473d565b6110dc565b604080518251815260209283015160ff169281019290925201610499565b34801561050c57600080fd5b5061052061051b36600461476b565b611126565b604051908152602001610499565b34801561053a57600080fd5b5061052061054936600461473d565b6111bc565b34801561055a57600080fd5b50610563611242565b6040516001600160a01b039091168152602001610499565b34801561058757600080fd5b5061059b61059636600461476b565b61125b565b60408051928352602083019190915201610499565b61048d6105be3660046147b3565b6112f5565b3480156105cf57600080fd5b506004610520565b3480156105e357600080fd5b506105f76105f23660046147fa565b61144b565b005b34801561060557600080fd5b5061052061061436600461483b565b6115e6565b34801561062557600080fd5b50610639610634366004614883565b611670565b6040805196875260208701959095529385019290925260608401526080830152151560a082015260c001610499565b34801561067457600080fd5b5061052061068336600461473d565b611705565b34801561069457600080fd5b506106a86106a336600461489f565b611723565b6040516104999190600061010082019050825182526020830151602083015260408301516040830152606083015160608301526080830151608083015260a083015160a083015260c083015160c083015260e083015160e083015292915050565b34801561071557600080fd5b506107296107243660046148c6565b6118ba565b60408051825181526020928301519281019290925201610499565b34801561075057600080fd5b506105f761190f565b34801561076557600080fd5b5061048d6107743660046146f1565b611a8c565b34801561078557600080fd5b5061048d611aba565b34801561079a57600080fd5b5061048d6107a936600461473d565b611bec565b3480156107ba57600080fd5b5061048d6107c93660046147b3565b611c0c565b3480156107da57600080fd5b506105f76107e936600461483b565b611ca6565b3480156107fa57600080fd5b506105f761080936600461483b565b611cc7565b34801561081a57600080fd5b50610823611cf2565b60405161049991906148e3565b34801561083c57600080fd5b5061048d61084b36600461473d565b611e14565b34801561085c57600080fd5b5061048d61086b36600461493b565b611edf565b34801561087c57600080fd5b5061052061088b36600461473d565b611fff565b34801561089c57600080fd5b506105f76108ab366004614969565b612061565b3480156108bc57600080fd5b506105206108cb36600461473d565b61212c565b3480156108dc57600080fd5b506105f76108eb36600461473d565b61214a565b3480156108fc57600080fd5b5061052061090b36600461473d565b61227a565b34801561091c57600080fd5b5061093061092b366004614969565b612298565b60408051938452602084019290925290820152606001610499565b34801561095757600080fd5b506105f76109663660046146f1565b61238b565b34801561097757600080fd5b5061048d6109863660046146f1565b612436565b34801561099757600080fd5b506109306109a636600461483b565b6125d8565b3480156109b757600080fd5b506105f761266f565b3480156109cc57600080fd5b506105206126aa565b3480156109e157600080fd5b506105f76109f03660046146f1565b6126ba565b348015610a0157600080fd5b50610a15610a103660046146f1565b612733565b60405160ff9091168152602001610499565b348015610a3357600080fd5b50610563610a4236600461473d565b61275f565b348015610a5357600080fd5b5061048d610a623660046148c6565b612786565b348015610a7357600080fd5b5061048d610a82366004614995565b612809565b348015610a9357600080fd5b5061048d610aa23660046148c6565b612a03565b348015610ab357600080fd5b5061048d610ac23660046146f1565b612a43565b348015610ad357600080fd5b50610520610ae236600461473d565b612ae1565b348015610af357600080fd5b50610563612aff565b348015610b0857600080fd5b5061048d610b1736600461483b565b612b09565b348015610b2857600080fd5b5061048d612b3d565b348015610b3d57600080fd5b50610520610b4c36600461483b565b612bdf565b348015610b5d57600080fd5b506105f7610b6c3660046148c6565b612c78565b348015610b7d57600080fd5b50610b91610b8c3660046149d6565b612c90565b6040516104999190600061012082019050825182526020830151602083015260408301516040830152606083015160608301526080830151608083015260a083015160a083015260c083015160c083015260e083015160e083015261010080840151818401525092915050565b348015610c0a57600080fd5b50610563610c1936600461473d565b612da8565b348015610c2a57600080fd5b50610823610c3936600461473d565b612dcf565b348015610c4a57600080fd5b50610520600081565b348015610c5f57600080fd5b506105f7610c6e366004614969565b612e77565b348015610c7f57600080fd5b50610520610c8e3660046148c6565b612f2a565b348015610c9f57600080fd5b50610cb3610cae366004614a17565b61309a565b604080519788526020880196909652948601939093526060850191909152608084015260a0830152151560c082015260e001610499565b348015610cf657600080fd5b506105f7610d053660046148c6565b613134565b348015610d1657600080fd5b50610d2a610d25366004614a2a565b61314c565b6040516104999190614aef565b348015610d4357600080fd5b5061048d610d523660046146f1565b613241565b348015610d6357600080fd5b50610563610d723660046146f1565b61332a565b348015610d8357600080fd5b506105f761335c565b348015610d9857600080fd5b5061048d610da7366004614995565b613409565b348015610db857600080fd5b5061048d613577565b348015610dcd57600080fd5b506105f7610ddc36600461483b565b61358c565b61048d610def3660046147b3565b6135d1565b348015610e0057600080fd5b5061048d610e0f366004614b51565b6136de565b348015610e2057600080fd5b506105f7610e2f3660046146f1565b613836565b348015610e4057600080fd5b50610e54610e4f36600461473d565b6138f1565b6040516104999190614bd2565b348015610e6d57600080fd5b50610520610e7c3660046146f1565b613983565b348015610e8d57600080fd5b506105f7610e9c366004614969565b613a24565b348015610ead57600080fd5b506105f7610ebc366004614c0d565b613ac3565b348015610ecd57600080fd5b5061048d610edc366004614b51565b613ba6565b348015610eed57600080fd5b50610520610efc3660046146f1565b613cb1565b348015610f0d57600080fd5b506105f7610f1c3660046148c6565b613cda565b348015610f2d57600080fd5b5061048d610f3c3660046147b3565b613d77565b348015610f4d57600080fd5b5061048d610f5c36600461473d565b613e11565b348015610f6d57600080fd5b50610520600080516020615b5383398151915281565b348015610f8f57600080fd5b50610823610f9e3660046148c6565b613ea6565b348015610faf57600080fd5b50610520613ed4565b6000610fc2613ee7565b8282610fce8282611a8c565b610feb576040516318f4d05960e31b815260040160405180910390fd5b610ff3613577565b15611011576040516319a90b2f60e21b815260040160405180910390fd5b604051622aaddf60e11b815273__$bfa1fc126f9f960b1bd3bae8c14d9c594e$__9062555bbe9061104d90889088903390600090600401614c50565b606060405180830381865af415801561106a573d6000803e3d6000fd5b505050506040513d601f19601f8201168201806040525081019061108e9190614c74565b5050506001925050506110a16001600055565b92915050565b60006001600160e01b03198216637965db0b60e01b14806110a157506301ffc9a760e01b6001600160e01b03198316146110a1565b60408051808201909152600080825260208201526110f8613f40565b600092835260020160209081526040928390208351808501909452805484526001015460ff16908301525090565b604051620f324960e61b815260048101849052602481018390526001600160a01b038216604482015260009073__$bfa1fc126f9f960b1bd3bae8c14d9c594e$__906303cc924090606401602060405180830381865af415801561118e573d6000803e3d6000fd5b505050506040513d601f19601f820116820180604052508101906111b29190614ca2565b90505b9392505050565b60006111c6613f40565b6000838152600591909101602090815260409182902054825163128e5b8560e01b815292516001600160a01b039091169263128e5b859260048083019391928290030181865afa15801561121e573d6000803e3d6000fd5b505050506040513d601f19601f820116820180604052508101906110a19190614ca2565b600061124c613f6e565b546001600160a01b0316919050565b60405163018ba8a560e21b815260048101849052602481018390526001600160a01b0382166044820152600090819073__$e7d72ce98f1dce1f33c815a57604cff5ab$__9063062ea294906064016040805180830381865af41580156112c5573d6000803e3d6000fd5b505050506040513d601f19601f820116820180604052508101906112e99190614cbb565b90969095509350505050565b60006112ff613ee7565b858561130b8282611a8c565b611328576040516318f4d05960e31b815260040160405180910390fd5b611330613577565b1561134e576040516319a90b2f60e21b815260040160405180910390fd5b611356613f9c565b6040516396994e3760e01b8152336004820152602481018a9052604481018790526001600160a01b0391909116906396994e379034906064016000604051808303818588803b1580156113a857600080fd5b505af11580156113bc573d6000803e3d6000fd5b505060405163606c3acd60e01b815273__$bfa1fc126f9f960b1bd3bae8c14d9c594e$__935063606c3acd925061140291508b908b9033908c908c908c90600401614d01565b60006040518083038186803b15801561141a57600080fd5b505af415801561142e573d6000803e3d6000fd5b505050506001925050506114426001600055565b95945050505050565b600154610100900460ff161580801561146857506001805460ff16105b806114815750303b15801561148157506001805460ff16145b6114e95760405162461bcd60e51b815260206004820152602e60248201527f496e697469616c697a61626c653a20636f6e747261637420697320616c72656160448201526d191e481a5b9a5d1a585b1a5e995960921b60648201526084015b60405180910390fd5b6001805460ff191681179055801561150b576001805461ff0019166101001790555b6000611515613fab565b6001600160a01b0316036115765760405162461bcd60e51b815260206004820152602260248201527f4d7573742062652063616c6c65642066726f6d2070726f787920636f6e74726160448201526118dd60f21b60648201526084016114e0565b8161157f613f40565b5561158984613d6e565b61159284613fd3565b61159b83613ff6565b80156115e0576001805461ff00191681556040519081527f7f26b83ff96e1f2b6a682f133852f6798a09c465da95921460cefb38474024989060200160405180910390a15b50505050565b60405163b55c692f60e01b815260009073__$e7d72ce98f1dce1f33c815a57604cff5ab$__9063b55c692f90611626908690859087908290600401614c50565b61016060405180830381865af4158015611644573d6000803e3d6000fd5b505050506040513d601f19601f820116820180604052508101906116689190614dd4565b519392505050565b60008060008060008073__$bfa1fc126f9f960b1bd3bae8c14d9c594e$__6307d2f388886040518263ffffffff1660e01b81526004016116b09190614e75565b60c060405180830381865af41580156116cd573d6000803e3d6000fd5b505050506040513d601f19601f820116820180604052508101906116f19190614eee565b949c939b5091995097509550909350915050565b600061170f614052565b600092835260205250604090206001015490565b61176b60405180610100016040528060008152602001600081526020016000815260200160008152602001600081526020016000815260200160008152602001600081525090565b61179984611777613f40565b6001600160a01b0386166000908152600d919091016020526040902090614080565b156111b5576117e16040518060e00160405280600080191681526020016000815260200160008152602001600081526020016000815260200160008152602001600081525090565b60408051639349fb4160e01b8152600481018790526001600160a01b03861660248201528251604482015260208301516064820152908201516084820152606082015160a4820152608082015160c482015260a082015160e482015260c0820151610104820152610124810184905273__$e7d72ce98f1dce1f33c815a57604cff5ab$__90639349fb41906101440161010060405180830381865af415801561188e573d6000803e3d6000fd5b505050506040513d601f19601f820116820180604052508101906118b29190614f43565b9150506111b5565b60408051808201909152600080825260208201526118d6613f40565b6001600160a01b039092166000908152601092909201602090815260409283902083518085019094528054845260010154908301525090565b6000611919611cf2565b905060005b8151811015611a8857600082828151811061193b5761193b614fd3565b60200260200101519050600061194f613f6e565b54604080517f5265736f6c766572206d697373696e67207461726765743a200000000000000060208201526039808201869052825180830390910181526059820192839052636795dbcd60e01b9092526001600160a01b0390921691636795dbcd916119c091869190605d01614fe9565b602060405180830381865afa1580156119dd573d6000803e3d6000fd5b505050506040513d601f19601f82011682018060405250810190611a019190615002565b905080611a0c613f6e565b6000848152600191909101602090815260409182902080546001600160a01b0319166001600160a01b039485161790558151858152928416908301527f88a93678a3692f6789d9546fc621bf7234b101ddb7d4fe479455112831b8aa68910160405180910390a150508080611a8090615035565b91505061191e565b5050565b6000611a96613f40565b6000938452600a01602090815260408085209385529290525090205460ff16151590565b600080611ac5611cf2565b905060005b8151811015611be3576000828281518110611ae757611ae7614fd3565b60200260200101519050611af9613f6e565b600082815260019190910160205260409020546001600160a01b0316611b1d613f6e565b546040516321f8a72160e01b8152600481018490526001600160a01b03909116906321f8a72190602401602060405180830381865afa158015611b64573d6000803e3d6000fd5b505050506040513d601f19601f82011682018060405250810190611b889190615002565b6001600160a01b0316141580611bc157506000611ba3613f6e565b600083815260019190910160205260409020546001600160a01b0316145b15611bd0576000935050505090565b5080611bdb81615035565b915050611aca565b50600191505090565b6000611bf6613f40565b6000928352600801602052506040902054151590565b6000611c16613ee7565b8585611c228282611a8c565b611c3f576040516318f4d05960e31b815260040160405180910390fd5b611c47613577565b15611c65576040516319a90b2f60e21b815260040160405180910390fd5b60405163aeb2d5bd60e01b815273__$bfa1fc126f9f960b1bd3bae8c14d9c594e$__9063aeb2d5bd90611402908b908b9033908c908c908c90600401614d01565b611caf82611705565b611cb881614098565b611cc283836140a2565b505050565b604051631eb5512b60e31b8152600481018390526001600160a01b03821660248201526044016114e0565b60408051600580825260c082019092526060916020820160a080368337019050509050742132b0b1b7b7283937bc3ca1b7b73a3937b63632b960591b81600081518110611d4157611d41614fd3565b6020026020010181815250507121bab93932b731bca1b7b73a3937b63632b960711b81600181518110611d7657611d76614fd3565b6020026020010181815250507011d95b995cda5cd5985b1d5955985d5b1d607a1b81600281518110611daa57611daa614fd3565b6020026020010181815250506a14995cd95c9d99519d5b9960aa1b81600381518110611dd857611dd8614fd3565b60200260200101818152505069151bdad95b95985d5b1d60b21b81600481518110611e0557611e05614fd3565b60200260200101818152505090565b6000611e1e613577565b15611e3c576040516319a90b2f60e21b815260040160405180910390fd5b611e54600080516020615b5383398151915233612b09565b611e715760405163a5523ee560e01b815260040160405180910390fd5b60405163428c3a8160e01b81526004810183905273__$53b43b4bdeb2460d1113627ef627de0cf6$__9063428c3a81906024015b60006040518083038186803b158015611ebd57600080fd5b505af4158015611ed1573d6000803e3d6000fd5b50505050600190505b919050565b6000611ee9613ee7565b8383611ef58282611a8c565b611f12576040516318f4d05960e31b815260040160405180910390fd5b611f1a613577565b15611f38576040516319a90b2f60e21b815260040160405180910390fd5b611f40613f40565b600087815260059190910160205260409020546001600160a01b031663f3f7f452611f69613f40565b6000898152600a91909101602090815260408083208a84529091529081902054905160e083901b6001600160e01b031916815260ff909116600482015233602482015265ffffffffffff87166044820152606401600060405180830381600087803b158015611fd757600080fd5b505af1158015611feb573d6000803e3d6000fd5b505050506001925050506111b56001600055565b6000612009613f40565b60008381526005919091016020908152604091829020548251631e25031760e01b815292516001600160a01b0390911692631e2503179260048083019391928290030181865afa15801561121e573d6000803e3d6000fd5b612069613577565b15612087576040516319a90b2f60e21b815260040160405180910390fd5b33612090612aff565b6001600160a01b0316146120b65760405162461bcd60e51b81526004016114e09061504e565b604051634ebeb04960e01b815260048101849052602481018390526044810182905273__$53b43b4bdeb2460d1113627ef627de0cf6$__90634ebeb0499060640160006040518083038186803b15801561210f57600080fd5b505af4158015612123573d6000803e3d6000fd5b50505050505050565b6000612136613f40565b600092835260070160205250604090205490565b612152613ee7565b61215a613577565b15612178576040516319a90b2f60e21b815260040160405180910390fd5b6040516353571ee760e01b81526004810182905273__$53b43b4bdeb2460d1113627ef627de0cf6$__906353571ee79060240160006040518083038186803b1580156121c357600080fd5b505af41580156121d7573d6000803e3d6000fd5b5050505073__$e7d72ce98f1dce1f33c815a57604cff5ab$__639519832b826121fe614119565b6040516001600160e01b031960e085901b16815260048101929092526001600160a01b03166024820152604401602060405180830381865af4158015612248573d6000803e3d6000fd5b505050506040513d601f19601f8201168201806040525081019061226c9190614ca2565b506122776001600055565b50565b6000612284613f40565b600092835260030160205250604090205490565b60008060006122a5613ee7565b85856122b18282611a8c565b6122ce576040516318f4d05960e31b815260040160405180910390fd5b6122d6613577565b156122f4576040516319a90b2f60e21b815260040160405180910390fd5b604051622aaddf60e11b815273__$bfa1fc126f9f960b1bd3bae8c14d9c594e$__9062555bbe9061232f908b908b9033908c90600401614c50565b606060405180830381865af415801561234c573d6000803e3d6000fd5b505050506040513d601f19601f820116820180604052508101906123709190614c74565b94509450945050506123826001600055565b93509350939050565b33612394612aff565b6001600160a01b0316146123ba5760405162461bcd60e51b81526004016114e09061504e565b6123c2613f40565b6000838152600591909101602052604090819020549051636aa65aaf60e01b8152600481018390526001600160a01b0390911690636aa65aaf906024015b600060405180830381600087803b15801561241a57600080fd5b505af115801561242e573d6000803e3d6000fd5b505050505050565b6000612440613ee7565b612448613577565b15612466576040516319a90b2f60e21b815260040160405180910390fd5b604051631a88ea5760e21b81526004810184905260248101839052600090819073__$53b43b4bdeb2460d1113627ef627de0cf6$__90636a23a95c9060440161010060405180830381865af41580156124c3573d6000803e3d6000fd5b505050506040513d601f19601f820116820180604052508101906124e791906150fd565b6040516305ed050d60e51b8152919350915073__$bfa1fc126f9f960b1bd3bae8c14d9c594e$__9063bda0a1a09061252a90889088906000908890600401615133565b60006040518083038186803b15801561254257600080fd5b505af4158015612556573d6000803e3d6000fd5b50506040516305ed050d60e51b815273__$bfa1fc126f9f960b1bd3bae8c14d9c594e$__925063bda0a1a0915061259890889088906001908790600401615133565b60006040518083038186803b1580156125b057600080fd5b505af41580156125c4573d6000803e3d6000fd5b505050506001925050506110a16001600055565b60405163386320d360e11b8152600481018390526001600160a01b03821660248201526000908190819073__$e7d72ce98f1dce1f33c815a57604cff5ab$__906370c641a690604401606060405180830381865af415801561263e573d6000803e3d6000fd5b505050506040513d601f19601f820116820180604052508101906126629190614c74565b9250925092509250925092565b33612678612aff565b6001600160a01b03161461269e5760405162461bcd60e51b81526004016114e09061504e565b6126a86000614123565b565b60006126b4613f40565b54919050565b336126c3612aff565b6001600160a01b0316146126e95760405162461bcd60e51b81526004016114e09061504e565b6126f1613f40565b6000838152600591909101602052604090819020549051636c5d6df160e01b8152600481018390526001600160a01b0390911690636c5d6df190602401612400565b600061273d613f40565b6000938452600a01602090815260408085209385529290525090205460ff1690565b6000612769613f40565b60009283526006016020525060409020546001600160a01b031690565b6000612790613ee7565b60405163104d68fd60e31b81526001600160a01b038316600482015273__$e7d72ce98f1dce1f33c815a57604cff5ab$__9063826b47e89060240160006040518083038186803b1580156127e357600080fd5b505af41580156127f7573d6000803e3d6000fd5b5050505060019050611eda6001600055565b6000333014612936576001546201000090046001600160a01b031615612842576040516337affdbf60e11b815260040160405180910390fd5b6001805462010000600160b01b03191633620100000217905583836128678282611a8c565b612884576040516318f4d05960e31b815260040160405180910390fd5b61288c613577565b156128aa576040516319a90b2f60e21b815260040160405180910390fd5b604051633099b3fd60e21b815273__$ddd42798825952179f0fb056787c1ba3b9$__9063c266cff4906128e990339088908c908c908c9060040161518f565b60006040518083038186803b15801561290157600080fd5b505af4158015612915573d6000803e3d6000fd5b505050506001925050506001805462010000600160b01b03191690556129fb565b83836129428282611a8c565b61295f576040516318f4d05960e31b815260040160405180910390fd5b612967613577565b15612985576040516319a90b2f60e21b815260040160405180910390fd5b604051633099b3fd60e21b815273__$ddd42798825952179f0fb056787c1ba3b9$__9063c266cff4906129c490339088908c908c908c9060040161518f565b60006040518083038186803b1580156129dc57600080fd5b505af41580156129f0573d6000803e3d6000fd5b505050506001925050505b949350505050565b6000612a0d613577565b80156110a15750612a1c613f40565b6001600160a01b0383166000908152600e91909101602052604090205460ff161592915050565b6000612a4d613ee7565b8282612a598282611a8c565b612a76576040516318f4d05960e31b815260040160405180910390fd5b612a7e613577565b15612a9c576040516319a90b2f60e21b815260040160405180910390fd5b6040516332b3123760e11b8152600481018690526024810185905233604482015273__$e7d72ce98f1dce1f33c815a57604cff5ab$__90636566246e90606401612598565b6000612aeb613f40565b600092835260080160205250604090205490565b600061124c614190565b6000612b13614052565b6000938452602090815260408085206001600160a01b039490941685529290525090205460ff1690565b6000612b47613ee7565b612b4f613577565b612b6c576040516304d824a560e41b815260040160405180910390fd5b604051635dd3a2c160e01b815233600482015273__$e7d72ce98f1dce1f33c815a57604cff5ab$__90635dd3a2c19060240160006040518083038186803b158015612bb657600080fd5b505af4158015612bca573d6000803e3d6000fd5b5050505060019050612bdc6001600055565b90565b6000612be9613ee7565b604051639519832b60e01b8152600481018490526001600160a01b038316602482015273__$e7d72ce98f1dce1f33c815a57604cff5ab$__90639519832b90604401602060405180830381865af4158015612c48573d6000803e3d6000fd5b505050506040513d601f19601f82011682018060405250810190612c6c9190614ca2565b90506110a16001600055565b612277600080516020615b5383398151915282611ca6565b612cdf6040518061012001604052806000815260200160008152602001600081526020016000815260200160008152602001600081526020016000815260200160008152602001600081525090565b604080516345f1848f60e11b81526001600160a01b0386166004820152843560248201526020850135604482015290840135606482015260608401356084820152608084013560a482015260a084013560c482015260c084013560e4820152610104810183905273__$e7d72ce98f1dce1f33c815a57604cff5ab$__90638be3091e906101240161012060405180830381865af4158015612d84573d6000803e3d6000fd5b505050506040513d601f19601f820116820180604052508101906111b291906151c0565b6000612db2613f40565b60009283526005016020525060409020546001600160a01b031690565b6060612dd9613f40565b600083815260059190910160205260409020546001600160a01b03166338b05852612e02613f40565b6000858152600491820160205260409081902090516001600160e01b031960e085901b168152612e32920161523b565b600060405180830381865afa158015612e4f573d6000803e3d6000fd5b505050506040513d6000823e601f3d908101601f191682016040526110a1919081019061581c565b612e7f613ee7565b8115801590612e955750612e938383611a8c565b155b15612eb3576040516318f4d05960e31b815260040160405180910390fd5b60405163e21bd62360e01b815273__$bfa1fc126f9f960b1bd3bae8c14d9c594e$__9063e21bd62390612ef0908690869033908790600401614c50565b60006040518083038186803b158015612f0857600080fd5b505af4158015612f1c573d6000803e3d6000fd5b50505050611cc26001600055565b600080612f35613f40565b6001600160a01b0384166000908152600d919091016020526040812091505b612f5d826141be565b811015613093576000612f7083836141c8565b9050600073__$e7d72ce98f1dce1f33c815a57604cff5ab$__63b55c692f8360008960006040518563ffffffff1660e01b8152600401612fb39493929190614c50565b61016060405180830381865af4158015612fd1573d6000803e3d6000fd5b505050506040513d601f19601f82011682018060405250810190612ff59190614dd4565b5190506130006141d4565b604051633c7f634960e11b815260048101849052602481018390526001600160a01b0391909116906378fec69290604401602060405180830381865afa15801561304e573d6000803e3d6000fd5b505050506040513d601f19601f820116820180604052508101906130729190614ca2565b61307c90866158c2565b94505050808061308b90615035565b915050612f54565b5050919050565b600080600080600080600073__$bfa1fc126f9f960b1bd3bae8c14d9c594e$__63724160ad896040518263ffffffff1660e01b81526004016130dc91906158ea565b60e060405180830381865af41580156130f9573d6000803e3d6000fd5b505050506040513d601f19601f8201168201806040525081019061311d919061596e565b959e949d50929b5090995097509550909350915050565b612277600080516020615b538339815191528261358c565b60608167ffffffffffffffff81111561316757613167614d3f565b60405190808252806020026020018201604052801561319a57816020015b60608152602001906001900390816131855790505b50905060005b8281101561323a5761320a308585848181106131be576131be614fd3565b90506020028101906131d091906159ce565b8080601f0160208091040260200160405190810160405280939291908181526020018383808284376000920191909152506141de92505050565b82828151811061321c5761321c614fd3565b6020026020010181905250808061323290615035565b9150506131a0565b5092915050565b600061324b613ee7565b82826132578282611a8c565b613274576040516318f4d05960e31b815260040160405180910390fd5b61327c613577565b1561329a576040516319a90b2f60e21b815260040160405180910390fd5b6040516301402dfb60e31b815273__$e7d72ce98f1dce1f33c815a57604cff5ab$__90630a016fd8906132d890889088903390600090600401614c50565b602060405180830381865af41580156132f5573d6000803e3d6000fd5b505050506040513d601f19601f820116820180604052508101906133199190614ca2565b506001925050506110a16001600055565b6000613334613f40565b6000938452600f0160209081526040808520938552929052509020546001600160a01b031690565b613364613577565b15613382576040516319a90b2f60e21b815260040160405180910390fd5b3361338b612aff565b6001600160a01b0316146133b15760405162461bcd60e51b81526004016114e09061504e565b73__$53b43b4bdeb2460d1113627ef627de0cf6$__63b8f117cd6040518163ffffffff1660e01b815260040160006040518083038186803b1580156133f557600080fd5b505af41580156115e0573d6000803e3d6000fd5b60003330146134e9576001546201000090046001600160a01b031615613442576040516337affdbf60e11b815260040160405180910390fd5b6001805462010000600160b01b03191633620100000217905583836134678282611a8c565b613484576040516318f4d05960e31b815260040160405180910390fd5b61348c613577565b156134aa576040516319a90b2f60e21b815260040160405180910390fd5b604051635436151f60e11b815273__$ddd42798825952179f0fb056787c1ba3b9$__9063a86c2a3e906128e990339088908c908c908c9060040161518f565b83836134f58282611a8c565b613512576040516318f4d05960e31b815260040160405180910390fd5b61351a613577565b15613538576040516319a90b2f60e21b815260040160405180910390fd5b604051635436151f60e11b815273__$ddd42798825952179f0fb056787c1ba3b9$__9063a86c2a3e906129c490339088908c908c908c9060040161518f565b600080613582613f40565b6001015411905090565b336001600160a01b038216036135c757604051631eb5512b60e31b8152600481018390526001600160a01b03821660248201526044016114e0565b611a888282614203565b60006135db613ee7565b85856135e78282611a8c565b613604576040516318f4d05960e31b815260040160405180910390fd5b61360c613577565b1561362a576040516319a90b2f60e21b815260040160405180910390fd5b613632613f9c565b6040516396994e3760e01b8152336004820152602481018a9052604481018790526001600160a01b0391909116906396994e379034906064016000604051808303818588803b15801561368457600080fd5b505af1158015613698573d6000803e3d6000fd5b505060405163aeb2d5bd60e01b815273__$bfa1fc126f9f960b1bd3bae8c14d9c594e$__935063aeb2d5bd925061140291508b908b9033908c908c908c90600401614d01565b60006136e8613ee7565b89896136f48282611a8c565b613711576040516318f4d05960e31b815260040160405180910390fd5b613719613577565b15613737576040516319a90b2f60e21b815260040160405180910390fd5b61373f613f9c565b6001600160a01b03166360819025338e8c8b8b8b8b6040518863ffffffff1660e01b81526004016137769796959493929190615a1c565b600060405180830381600087803b15801561379057600080fd5b505af11580156137a4573d6000803e3d6000fd5b5050505073__$bfa1fc126f9f960b1bd3bae8c14d9c594e$__63606c3acd8d8d338e8e8e6040518763ffffffff1660e01b81526004016137e996959493929190614d01565b60006040518083038186803b15801561380157600080fd5b505af4158015613815573d6000803e3d6000fd5b505050506001925050506138296001600055565b9998505050505050505050565b61383e613577565b1561385c576040516319a90b2f60e21b815260040160405180910390fd5b33613865612aff565b6001600160a01b03161461388b5760405162461bcd60e51b81526004016114e09061504e565b60405163e3a9833360e01b8152600481018390526024810182905273__$53b43b4bdeb2460d1113627ef627de0cf6$__9063e3a983339060440160006040518083038186803b1580156138dd57600080fd5b505af415801561242e573d6000803e3d6000fd5b60606138fb613f40565b600401600083815260200190815260200160002080548060200260200160405190810160405280929190818152602001828054801561397757602002820191906000526020600020906000905b825461010083900a900460ff168152602060019283018181049485019490930390920291018084116139485790505b50505050509050919050565b600073__$e7d72ce98f1dce1f33c815a57604cff5ab$__63c59cf0e9836139a8613f40565b6007016000878152602001908152602001600020546040518363ffffffff1660e01b81526004016139e3929190918252602082015260400190565b602060405180830381865af4158015613a00573d6000803e3d6000fd5b505050506040513d601f19601f820116820180604052508101906111b59190614ca2565b613a2c613ee7565b613a34613577565b15613a52576040516319a90b2f60e21b815260040160405180910390fd5b8115801590613a685750613a668383611a8c565b155b15613a86576040516318f4d05960e31b815260040160405180910390fd5b60405163912da51560e01b815273__$bfa1fc126f9f960b1bd3bae8c14d9c594e$__9063912da51590612ef0908690869033908790600401614c50565b33613acc612aff565b6001600160a01b031614613af25760405162461bcd60e51b81526004016114e09061504e565b613afb86611bec565b15613b185760405162dc149f60e41b815260040160405180910390fd5b60405163ea57481760e01b8152600481018790526024810186905260448101859052606481018490526084810183905260a4810182905273__$53b43b4bdeb2460d1113627ef627de0cf6$__9063ea5748179060c40160006040518083038186803b158015613b8657600080fd5b505af4158015613b9a573d6000803e3d6000fd5b50505050505050505050565b6000613bb0613ee7565b8989613bbc8282611a8c565b613bd9576040516318f4d05960e31b815260040160405180910390fd5b613be1613577565b15613bff576040516319a90b2f60e21b815260040160405180910390fd5b613c07613f9c565b6001600160a01b03166360819025338e8c8b8b8b8b6040518863ffffffff1660e01b8152600401613c3e9796959493929190615a1c565b600060405180830381600087803b158015613c5857600080fd5b505af1158015613c6c573d6000803e3d6000fd5b5050505073__$bfa1fc126f9f960b1bd3bae8c14d9c594e$__63aeb2d5bd8d8d338e8e8e6040518763ffffffff1660e01b81526004016137e996959493929190614d01565b6000613cbb613f40565b6000938452600901602090815260408085209385529290525090205490565b33613ce3612aff565b6001600160a01b031614613d095760405162461bcd60e51b81526004016114e09061504e565b6001600160a01b038116613d6e5760405162461bcd60e51b815260206004820152602660248201527f4f776e61626c653a206e6577206f776e657220697320746865207a65726f206160448201526564647265737360d01b60648201526084016114e0565b61227781614123565b6000613d81613ee7565b8585613d8d8282611a8c565b613daa576040516318f4d05960e31b815260040160405180910390fd5b613db2613577565b15613dd0576040516319a90b2f60e21b815260040160405180910390fd5b60405163606c3acd60e01b815273__$bfa1fc126f9f960b1bd3bae8c14d9c594e$__9063606c3acd90611402908b908b9033908c908c908c90600401614d01565b6000613e1b613577565b15613e39576040516319a90b2f60e21b815260040160405180910390fd5b613e51600080516020615b5383398151915233612b09565b613e6e5760405163a5523ee560e01b815260040160405180910390fd5b60405163f4a0997f60e01b81526004810183905273__$53b43b4bdeb2460d1113627ef627de0cf6$__9063f4a0997f90602401611ea5565b60606110a1613eb3613f40565b6001600160a01b0384166000908152600d919091016020526040902061421f565b6000613ede613f40565b60010154905090565b600260005403613f395760405162461bcd60e51b815260206004820152601f60248201527f5265656e7472616e637947756172643a207265656e7472616e742063616c6c0060448201526064016114e0565b6002600055565b6000806110a160017f8041b8421ebd495cc61f38c788c9eb100daccf9bd36aa0bb920b7a15b2e04965615a5a565b6000806110a160017f4abde63c3e81aefa5764b017968bc473e83e093d7e1a10247d19e0a3e4124018615a5a565b6000613fa661422c565b905090565b60007f360894a13ba1a3210667c828492db98dca3e2076cc3735a920a3ca505d382bbc61124c565b613fde6000826140a2565b612277600080516020615b53833981519152826140a2565b6000614000613f6e565b546001600160a01b031614614028576040516304b79d6360e51b815260040160405180910390fd5b80614031613f6e565b80546001600160a01b0319166001600160a01b039290921691909117905550565b6000806110a160017f35e4a72724550e3953b041d501f29ff9ff417812c2917a203d9c4833b9d1d6f9615a5a565b600081815260018301602052604081205415156111b5565b6122778133614244565b6140ac8282612b09565b611a885760016140ba614052565b6000848152602091825260408082206001600160a01b0386168084529352808220805460ff1916941515949094179093559151339285917f2f8788117e7eff1d82e926ec794901d17c78024a50270940304540a733656f0d9190a45050565b6000613fa66142a8565b600061412d614190565b546001600160a01b0316905081614142614190565b80546001600160a01b0319166001600160a01b03928316179055604051838216918316907f8be0079c531659141344cd1fd0a4f28419497f9722a3daafe3b4186f6b6457e090600090a35050565b6000806110a160017f9acda75aebd150dd434541a4747a6dc606f4f1a59662477e67daf1fc0bf9e0aa615a5a565b60006110a1825490565b60006111b583836142c1565b6000613fa66142eb565b60606111b58383604051806060016040528060278152602001615b736027913961430b565b61420c82611705565b61421581614098565b611cc28383614383565b606060006111b5836143fb565b6000613fa669151bdad95b95985d5b1d60b21b614456565b61424e8282612b09565b611a8857614266816001600160a01b031660146144b7565b6142718360206144b7565b604051602001614282929190615a6d565b60408051601f198184030181529082905262461bcd60e51b82526114e091600401615ae2565b6000613fa66a14995cd95c9d99519d5b9960aa1b614456565b60008260000182815481106142d8576142d8614fd3565b9060005260206000200154905092915050565b6000613fa67121bab93932b731bca1b7b73a3937b63632b960711b614456565b6060600080856001600160a01b0316856040516143289190615af5565b600060405180830381855af49150503d8060008114614363576040519150601f19603f3d011682016040523d82523d6000602084013e614368565b606091505b509150915061437986838387614653565b9695505050505050565b61438d8282612b09565b15611a8857600061439c614052565b6000848152602091825260408082206001600160a01b0386168084529352808220805460ff1916941515949094179093559151339285917ff6391f5c32d9c69d2a47ea670b442974b53935d1edc7fd64eb21e047a839171b9190a45050565b60608160000180548060200260200160405190810160405280929190818152602001828054801561397757602002820191906000526020600020905b8154815260200190600101908083116144375750505050509050919050565b600080614461613f6e565b600084815260019190910160205260409020546001600160a01b03169050806110a15760408051602081018590520160408051601f19818403018152908290526346e2ec9360e01b82526114e091600401615ae2565b606060006144c6836002615b11565b6144d1906002615b28565b67ffffffffffffffff8111156144e9576144e9614d3f565b6040519080825280601f01601f191660200182016040528015614513576020820181803683370190505b509050600360fc1b8160008151811061452e5761452e614fd3565b60200101906001600160f81b031916908160001a905350600f60fb1b8160018151811061455d5761455d614fd3565b60200101906001600160f81b031916908160001a9053506000614581846002615b11565b61458c906001615b28565b90505b6001811115614604576f181899199a1a9b1b9c1cb0b131b232b360811b85600f16601081106145c0576145c0614fd3565b1a60f81b8282815181106145d6576145d6614fd3565b60200101906001600160f81b031916908160001a90535060049490941c936145fd81615b3b565b905061458f565b5083156111b55760405162461bcd60e51b815260206004820181905260248201527f537472696e67733a20686578206c656e67746820696e73756666696369656e7460448201526064016114e0565b606083156146c25782516000036146bb576001600160a01b0385163b6146bb5760405162461bcd60e51b815260206004820152601d60248201527f416464726573733a2063616c6c20746f206e6f6e2d636f6e747261637400000060448201526064016114e0565b50816129fb565b6129fb83838151156146d75781518083602001fd5b8060405162461bcd60e51b81526004016114e09190615ae2565b6000806040838503121561470457600080fd5b50508035926020909101359150565b60006020828403121561472557600080fd5b81356001600160e01b0319811681146111b557600080fd5b60006020828403121561474f57600080fd5b5035919050565b6001600160a01b038116811461227757600080fd5b60008060006060848603121561478057600080fd5b8335925060208401359150604084013561479981614756565b809150509250925092565b803560028110611eda57600080fd5b600080600080600060a086880312156147cb57600080fd5b85359450602086013593506147e2604087016147a4565b94979396509394606081013594506080013592915050565b60008060006060848603121561480f57600080fd5b833561481a81614756565b9250602084013561482a81614756565b929592945050506040919091013590565b6000806040838503121561484e57600080fd5b82359150602083013561486081614756565b809150509250929050565b600060e0828403121561487d57600080fd5b50919050565b600060e0828403121561489557600080fd5b6111b5838361486b565b6000806000606084860312156148b457600080fd5b83359250602084013561482a81614756565b6000602082840312156148d857600080fd5b81356111b581614756565b6020808252825182820181905260009190848201906040850190845b8181101561491b578351835292840192918401916001016148ff565b50909695505050505050565b65ffffffffffff8116811461227757600080fd5b60008060006060848603121561495057600080fd5b8335925060208401359150604084013561479981614927565b60008060006060848603121561497e57600080fd5b505081359360208301359350604090920135919050565b600080600080608085870312156149ab57600080fd5b84359350602085013592506040850135915060608501356149cb81614756565b939692955090935050565b600080600061012084860312156149ec57600080fd5b83356149f781614756565b9250614a06856020860161486b565b915061010084013590509250925092565b6000610100828403121561487d57600080fd5b60008060208385031215614a3d57600080fd5b823567ffffffffffffffff80821115614a5557600080fd5b818501915085601f830112614a6957600080fd5b813581811115614a7857600080fd5b8660208260051b8501011115614a8d57600080fd5b60209290920196919550909350505050565b60005b83811015614aba578181015183820152602001614aa2565b50506000910152565b60008151808452614adb816020860160208601614a9f565b601f01601f19169290920160200192915050565b6000602080830181845280855180835260408601915060408160051b870101925083870160005b82811015614b4457603f19888603018452614b32858351614ac3565b94509285019290850190600101614b16565b5092979650505050505050565b60008060008060008060008060006101208a8c031215614b7057600080fd5b8935985060208a01359750614b8760408b016147a4565b965060608a0135955060808a0135945060a08a0135935060c08a013560ff81168114614bb257600080fd5b8093505060e08a013591506101008a013590509295985092959850929598565b6020808252825182820181905260009190848201906040850190845b8181101561491b57835160ff1683529284019291840191600101614bee565b60008060008060008060c08789031215614c2657600080fd5b505084359660208601359650604086013595606081013595506080810135945060a0013592509050565b93845260208401929092526001600160a01b03166040830152606082015260800190565b600080600060608486031215614c8957600080fd5b8351925060208401519150604084015190509250925092565b600060208284031215614cb457600080fd5b5051919050565b60008060408385031215614cce57600080fd5b505080516020909101519092909150565b60028110614cfd57634e487b7160e01b600052602160045260246000fd5b9052565b868152602081018690526001600160a01b038516604082015260c08101614d2b6060830186614cdf565b608082019390935260a00152949350505050565b634e487b7160e01b600052604160045260246000fd5b604051610160810167ffffffffffffffff81118282101715614d7957614d79614d3f565b60405290565b604051610120810167ffffffffffffffff81118282101715614d7957614d79614d3f565b604051601f8201601f1916810167ffffffffffffffff81118282101715614dcc57614dcc614d3f565b604052919050565b60006101608284031215614de757600080fd5b614def614d55565b825181526020830151602082015260408301516040820152606083015160608201526080830151608082015260a083015160a082015260c083015160c082015260e083015160e08201526101008084015181830152506101208084015181830152506101408084015181830152508091505092915050565b801515811461227757600080fd5b813581526020808301359082015260e081016040830135614e9581614756565b6001600160a01b03166040830152614eaf606084016147a4565b614ebc6060840182614cdf565b506080830135608083015260a083013560a083015260c0830135614edf81614e67565b80151560c08401525092915050565b60008060008060008060c08789031215614f0757600080fd5b865195506020870151945060408701519350606087015192506080870151915060a0870151614f3581614e67565b809150509295509295509295565b6000610100808385031215614f5757600080fd5b6040519081019067ffffffffffffffff82118183101715614f7a57614f7a614d3f565b81604052835181526020840151602082015260408401516040820152606084015160608201526080840151608082015260a084015160a082015260c084015160c082015260e084015160e0820152809250505092915050565b634e487b7160e01b600052603260045260246000fd5b8281526040602082015260006111b26040830184614ac3565b60006020828403121561501457600080fd5b81516111b581614756565b634e487b7160e01b600052601160045260246000fd5b6000600182016150475761504761501f565b5060010190565b6020808252818101527f4f776e61626c653a2063616c6c6572206973206e6f7420746865206f776e6572604082015260600190565b60006080828403121561509557600080fd5b6040516080810181811067ffffffffffffffff821117156150b8576150b8614d3f565b806040525080915082516150cb81614927565b815260208301516150db81614756565b8060208301525060408301516040820152606083015160608201525092915050565b600080610100838503121561511157600080fd5b61511b8484615083565b915061512a8460808501615083565b90509250929050565b8481526020810184905260e0810161514e6040830185614cdf565b825165ffffffffffff1660608381019190915260208401516001600160a01b03166080840152604084015160a08401529092015160c0909101529392505050565b6001600160a01b03958616815293909416602084015260408301919091526060820152608081019190915260a00190565b600061012082840312156151d357600080fd5b6151db614d7f565b825181526020830151602082015260408301516040820152606083015160608201526080830151608082015260a083015160a082015260c083015160c082015260e083015160e08201526101008084015181830152508091505092915050565b60006020808301818452808554615256818490815260200190565b60008881526020812094509092505b81601f820110156154df57835460ff8082168552600882901c8116878601526040615299818701838560101c1660ff169052565b60606152ae818801848660181c1660ff169052565b60806152c281890185878d1c1660ff169052565b60a06152d7818a01868860281c1660ff169052565b60c06152ec818b01878960301c1660ff169052565b60e0615301818c01888a60381c1660ff169052565b60ff88871c8816166101008c01526153246101208c01888a60481c1660ff169052565b6153396101408c01888a60501c1660ff169052565b61534e6101608c01888a60581c1660ff169052565b60ff88861c8816166101808c01526153716101a08c01888a60681c1660ff169052565b6153866101c08c01888a60701c1660ff169052565b61539b6101e08c01888a60781c1660ff169052565b60ff88851c8816166102008c01526153be6102208c01888a60881c1660ff169052565b6153d36102408c01888a60901c1660ff169052565b6153e86102608c01888a60981c1660ff169052565b60ff88841c8816166102808c015261540b6102a08c01888a60a81c1660ff169052565b6154206102c08c01888a60b01c1660ff169052565b6154356102e08c01888a60b81c1660ff169052565b60ff88831c8816166103008c01526154586103208c01888a60c81c1660ff169052565b61546d6103408c01888a60d01c1660ff169052565b6154826103608c01888a60d81c1660ff169052565b60ff88821c8816166103808c01525050505050506154ab6103a08601828460e81c1660ff169052565b6154c06103c08601828460f01c1660ff169052565b5060f81c6103e084015260019390930192610400909201918401615265565b925492818110156154f85760ff84168352918401916001015b8181101561551257600884901c60ff168352918401916001015b8181101561552c57601084901c60ff168352918401916001015b8181101561554657601884901c60ff168352918401916001015b8181101561555e5783851c60ff168352918401916001015b8181101561557857602884901c60ff168352918401916001015b8181101561559257603084901c60ff168352918401916001015b818110156155ac57603884901c60ff168352918401916001015b818110156155c657604084901c60ff168352918401916001015b818110156155e057604884901c60ff168352918401916001015b818110156155fa57605084901c60ff168352918401916001015b8181101561561457605884901c60ff168352918401916001015b8181101561562e57606084901c60ff168352918401916001015b8181101561564857606884901c60ff168352918401916001015b8181101561566257607084901c60ff168352918401916001015b8181101561567c57607884901c60ff168352918401916001015b8181101561569657608084901c60ff168352918401916001015b818110156156b057608884901c60ff168352918401916001015b818110156156ca57609084901c60ff168352918401916001015b818110156156e457609884901c60ff168352918401916001015b818110156156fe5760a084901c60ff168352918401916001015b818110156157185760a884901c60ff168352918401916001015b818110156157325760b084901c60ff168352918401916001015b8181101561574c5760b884901c60ff168352918401916001015b818110156157665760c084901c60ff168352918401916001015b818110156157805760c884901c60ff168352918401916001015b8181101561579a5760d084901c60ff168352918401916001015b818110156157b45760d884901c60ff168352918401916001015b818110156157ce5760e084901c60ff168352918401916001015b818110156157e85760e884901c60ff168352918401916001015b818110156158025760f084901c60ff168352918401916001015b8181101561491b57505060f89190911c8152019392505050565b6000602080838503121561582f57600080fd5b825167ffffffffffffffff8082111561584757600080fd5b818501915085601f83011261585b57600080fd5b81518181111561586d5761586d614d3f565b8060051b915061587e848301614da3565b818152918301840191848101908884111561589857600080fd5b938501935b838510156158b65784518252938501939085019061589d565b98975050505050505050565b80820182811260008312801582168215821617156158e2576158e261501f565b505092915050565b81358152602080830135908201526101008101604083013561590b81614756565b6001600160a01b03166040830152615925606084016147a4565b6159326060840182614cdf565b506080830135608083015260a083013560a083015260c083013560c083015260e083013561595f81614e67565b80151560e08401525092915050565b600080600080600080600060e0888a03121561598957600080fd5b875196506020880151955060408801519450606088015193506080880151925060a0880151915060c08801516159be81614e67565b8091505092959891949750929550565b6000808335601e198436030181126159e557600080fd5b83018035915067ffffffffffffffff821115615a0057600080fd5b602001915036819003821315615a1557600080fd5b9250929050565b6001600160a01b0397909716875260208701959095526040860193909352606085019190915260ff16608084015260a083015260c082015260e00190565b818103818111156110a1576110a161501f565b7f416363657373436f6e74726f6c3a206163636f756e7420000000000000000000815260008351615aa5816017850160208801614a9f565b7001034b99036b4b9b9b4b733903937b6329607d1b6017918401918201528351615ad6816028840160208801614a9f565b01602801949350505050565b6020815260006111b56020830184614ac3565b60008251615b07818460208701614a9f565b9190910192915050565b80820281158282048414176110a1576110a161501f565b808201808211156110a1576110a161501f565b600081615b4a57615b4a61501f565b50600019019056fe97667070c54ef182b0f5858b034beac1b6f3089aa2d3188bb1e8929f4fa9b929416464726573733a206c6f772d6c6576656c2064656c65676174652063616c6c206661696c6564a264697066735822122015bd1f746360ff4e07e4f830b22852e1a6058ae80aa628bf19564d305421bed064736f6c63430008130033",
  "libraries": {
    "FundManagementLogic": "0x254d212F66Af9570fF55fbf5915022b8525a88EB",
    "LendingMarketOperationLogic": "0xE38F4C0427c8a1063930a8290Fd245963Bc21855",
    "LendingMarketUserLogic": "0x77a786f3c72f87f255199B1881A7DC72678fdAb6",
    "LiquidationLogic": "0x2907871b750dF4fe57aa8aA1399D388696Cb20dF"
  },
  "implementation": "0xB52dEc6a4510803C671E59bfe9BA0C11Ebd538E3",
  "devdoc": {
    "events": {
      "Initialized(uint8)": {
        "details": "Triggered when the contract has been initialized or reinitialized."
      },
      "RoleAdminChanged(bytes32,bytes32,bytes32)": {
        "details": "Emitted when `newAdminRole` is set as ``role``'s admin role, replacing `previousAdminRole` `DEFAULT_ADMIN_ROLE` is the starting admin for all roles, despite {RoleAdminChanged} not being emitted signaling this. _Available since v3.1._"
      },
      "RoleGranted(bytes32,address,address)": {
        "details": "Emitted when `account` is granted `role`. `sender` is the account that originated the contract call, an admin role bearer except when using {AccessControl-_setupRole}."
      },
      "RoleRevoked(bytes32,address,address)": {
        "details": "Emitted when `account` is revoked `role`. `sender` is the account that originated the contract call:   - if using `revokeRole`, it is the admin role bearer   - if using `renounceRole`, it is the role bearer (i.e. `account`)"
      }
    },
    "kind": "dev",
    "methods": {
      "addOperator(address)": {
        "params": {
          "admin": "The address of the new admin"
        }
      },
      "calculateFunds(bytes32,address,uint256)": {
        "params": {
          "_ccy": "Currency name in bytes32",
          "_liquidationThresholdRate": "The liquidation threshold rate",
          "_user": "User's address"
        },
        "returns": {
          "funds": "The funds calculated from the user's lending and borrowing order list"
        }
      },
      "calculateTotalFundsInBaseCurrency(address,(bytes32,uint256,uint256,uint256,uint256,uint256,uint256),uint256)": {
        "params": {
          "_additionalFunds": "The funds to be added for calculating the total funds",
          "_liquidationThresholdRate": "The liquidation threshold rate",
          "_user": "User's address"
        },
        "returns": {
          "funds": "The total funds calculated from the user's lending and borrowing order list"
        }
      },
      "cancelOrder(bytes32,uint256,uint48)": {
        "params": {
          "_ccy": "Currency name in bytes32 of the selected order book",
          "_maturity": "The maturity of the selected order book",
          "_orderId": "Market order id"
        }
      },
      "cleanUpAllFunds(address)": {
        "params": {
          "_user": "User's address"
        }
      },
      "cleanUpFunds(bytes32,address)": {
        "params": {
          "_ccy": "Currency name in bytes32",
          "_user": "User's address"
        }
      },
      "createOrderBook(bytes32,uint256,uint256)": {
        "params": {
          "_ccy": "Main currency for new order book",
          "_openingDate": "The timestamp when the order book opens",
          "_preOpeningDate": "The timestamp when the order book pre-opens"
        }
      },
      "depositAndExecuteOrder(bytes32,uint256,uint8,uint256,uint256)": {
        "params": {
          "_amount": "Amount of funds the maker wants to borrow/lend",
          "_ccy": "Currency name in bytes32 of the selected order book",
          "_maturity": "The maturity of the selected order book",
          "_side": "Order position type, Borrow or Lend",
          "_unitPrice": "Amount of unit price taker wish to borrow/lend"
        },
        "returns": {
          "_0": "True if the execution of the operation succeeds"
        }
      },
      "depositAndExecutesPreOrder(bytes32,uint256,uint8,uint256,uint256)": {
        "params": {
          "_amount": "Amount of funds the maker wants to borrow/lend",
          "_ccy": "Currency name in bytes32 of the selected order book",
          "_maturity": "The maturity of the selected order book",
          "_side": "Order position type, Borrow or Lend",
          "_unitPrice": "Amount of unit price taker wish to borrow/lend"
        },
        "returns": {
          "_0": "True if the execution of the operation succeeds"
        }
      },
      "depositWithPermitAndExecuteOrder(bytes32,uint256,uint8,uint256,uint256,uint256,uint8,bytes32,bytes32)": {
        "params": {
          "_amount": "Amount of funds the maker wants to borrow/lend",
          "_ccy": "Currency name in bytes32 of the selected order book",
          "_deadline": "The deadline timestamp that the permit is valid",
          "_maturity": "The maturity of the selected order book",
          "_permitR": "The R parameter of ERC712 permit sig",
          "_permitS": "The S parameter of ERC712 permit sig",
          "_permitV": "The V parameter of ERC712 permit sig",
          "_side": "Order position type, Borrow or Lend",
          "_unitPrice": "Amount of unit price taker wish to borrow/lend"
        },
        "returns": {
          "_0": "True if the execution of the operation succeeds"
        }
      },
      "depositWithPermitAndExecutePreOrder(bytes32,uint256,uint8,uint256,uint256,uint256,uint8,bytes32,bytes32)": {
        "params": {
          "_amount": "Amount of funds the maker wants to borrow/lend",
          "_ccy": "Currency name in bytes32 of the selected order book",
          "_deadline": "The deadline timestamp that the permit is valid",
          "_maturity": "The maturity of the selected order book",
          "_permitR": "The R parameter of ERC712 permit sig",
          "_permitS": "The S parameter of ERC712 permit sig",
          "_permitV": "The V parameter of ERC712 permit sig",
          "_side": "Order position type, Borrow or Lend",
          "_unitPrice": "Amount of unit price taker wish to borrow/lend"
        },
        "returns": {
          "_0": "True if the execution of the operation succeeds"
        }
      },
      "depositZCToken(bytes32,uint256,uint256)": {
        "params": {
          "_amount": "The amount of ZCToken to burn",
          "_ccy": "Currency name in bytes32",
          "_maturity": "The maturity of the order book"
        }
      },
      "executeEmergencySettlement()": {
        "returns": {
          "_0": "True if the execution of the operation succeeds"
        }
      },
      "executeForcedRepayment(bytes32,bytes32,uint256,address)": {
        "params": {
          "_collateralCcy": "Currency name to be used as collateral",
          "_debtCcy": "Currency name to be used as debt",
          "_debtMaturity": "The order book maturity of the debt",
          "_user": "User's address"
        },
        "returns": {
          "_0": "True if the execution of the operation succeeds"
        }
      },
      "executeItayoseCall(bytes32,uint256)": {
        "params": {
          "_ccy": "Currency name in bytes32",
          "_maturity": "The maturity of the selected order book"
        }
      },
      "executeLiquidationCall(bytes32,bytes32,uint256,address)": {
        "params": {
          "_collateralCcy": "Currency name to be used as collateral",
          "_debtCcy": "Currency name to be used as debt",
          "_debtMaturity": "The order book maturity of the debt",
          "_user": "User's address"
        },
        "returns": {
          "_0": "True if the execution of the operation succeeds"
        }
      },
      "executeOrder(bytes32,uint256,uint8,uint256,uint256)": {
        "params": {
          "_amount": "Amount of funds the maker wants to borrow/lend",
          "_ccy": "Currency name in bytes32 of the selected order book",
          "_maturity": "The maturity of the selected order book",
          "_side": "Order position type, Borrow or Lend",
          "_unitPrice": "Amount of unit price taker wish to borrow/lend"
        },
        "returns": {
          "_0": "True if the execution of the operation succeeds"
        }
      },
      "executePreOrder(bytes32,uint256,uint8,uint256,uint256)": {
        "params": {
          "_amount": "Amount of funds the maker wants to borrow/lend",
          "_ccy": "Currency name in bytes32 of the selected order book",
          "_maturity": "The maturity of the selected order book",
          "_side": "Order position type, Borrow or Lend",
          "_unitPrice": "Amount of unit price taker wish to borrow/lend"
        },
        "returns": {
          "_0": "True if the execution of the operation succeeds"
        }
      },
      "executeRedemption(bytes32,uint256)": {
        "params": {
          "_ccy": "Currency name in bytes32 of the selected order book",
          "_maturity": "The maturity of the selected order book"
        }
      },
      "executeRepayment(bytes32,uint256)": {
        "params": {
          "_ccy": "Currency name in bytes32 of the selected order book",
          "_maturity": "The maturity of the selected order book"
        }
      },
      "getCircuitBreakerLimitRange(bytes32)": {
        "params": {
          "_ccy": "Currency name in bytes32"
        },
        "returns": {
          "_0": "The auto-roll fee rate received by protocol"
        }
      },
      "getCurrentMinDebtUnitPrice(bytes32,uint256)": {
        "params": {
          "_ccy": "Currency name in bytes32",
          "_maturity": "The maturity of the order book"
        },
        "returns": {
          "_0": "The current min debt unit price"
        }
      },
      "getFutureValueVault(bytes32)": {
        "params": {
          "_ccy": "Currency name in bytes32"
        },
        "returns": {
          "_0": "The future value vault address"
        }
      },
      "getGenesisDate(bytes32)": {
        "params": {
          "_ccy": "Currency name in bytes32"
        },
        "returns": {
          "_0": "The genesis date"
        }
      },
      "getGenesisValue(bytes32,address)": {
        "params": {
          "_ccy": "Currency name in bytes32 for Lending Market",
          "_user": "User's address"
        },
        "returns": {
          "amount": "The genesis value amount",
          "amountInFV": "The genesis value amount in future value",
          "amountInPV": "The genesis value amount in present value"
        }
      },
      "getLendingMarket(bytes32)": {
        "params": {
          "_ccy": "Currency name in bytes32"
        },
        "returns": {
          "_0": "Array with the lending market address"
        }
      },
      "getMarketBasePeriod()": {
        "returns": {
          "_0": "The base period"
        }
      },
      "getMaturities(bytes32)": {
        "params": {
          "_ccy": "Currency name in bytes32"
        },
        "returns": {
          "_0": "Array with the lending market maturity"
        }
      },
      "getMinDebtUnitPrice(bytes32)": {
        "params": {
          "_ccy": "Currency name in bytes32"
        },
        "returns": {
          "_0": "The genesis date"
        }
      },
      "getOrderBookId(bytes32,uint256)": {
        "params": {
          "_ccy": "Currency name in bytes32",
          "_maturity": "The maturity of the order book"
        },
        "returns": {
          "_0": "The order book id"
        }
      },
      "getOrderBookIds(bytes32)": {
        "params": {
          "_ccy": "Currency name in bytes32"
        },
        "returns": {
          "_0": "The array of order book id"
        }
      },
      "getOrderEstimation((bytes32,uint256,address,uint8,uint256,uint256,uint256,bool))": {
        "params": {
          "_params": "The parameters to calculate the order estimation <br> - ccy: Currency name in bytes32 of the selected market <br> - maturity: The maturity of the market <br> - side: Order position type, Borrow or Lend <br> - amount: Amount of funds the maker wants to borrow/lend <br> - unitPrice: Amount of unit price taker wish to borrow/lend <br> - additionalDepositAmount: Additional amount to be deposited with the lending order <br> - ignoreBorrowedAmount: The boolean if the borrowed amount is ignored and not used as collateral or not"
        },
        "returns": {
          "coverage": "The rate of collateral used",
          "filledAmount": "The amount that is filled on the order book",
          "filledAmountInFV": "The amount in the future value that is filled on the order book",
          "isInsufficientDepositAmount": "The boolean if the order amount for lending in the selected currency is insufficient for the deposit amount or not",
          "lastUnitPrice": "The last unit price that is filled on the order book",
          "orderFeeInFV": "The order fee amount in the future value",
          "placedAmount": "The amount that is placed to the order book"
        }
      },
      "getOrderEstimationFromFV((bytes32,uint256,address,uint8,uint256,uint256,bool))": {
        "params": {
          "_params": "The parameters to calculate the order estimation <br> - ccy: Currency name in bytes32 of the selected market <br> - maturity: The maturity of the market <br> - user: User's address <br> - side: Order position type, Borrow or Lend <br> - amountInFV: Amount of funds in future value the maker wants to borrow/lend <br> - additionalDepositAmount: Additional amount to be deposited with the lending order <br> - ignoreBorrowedAmount: The boolean if the borrowed amount is ignored and not used as collateral or not"
        },
        "returns": {
          "coverage": "The rate of collateral used",
          "filledAmount": "The amount that is filled on the order book",
          "filledAmountInFV": "The amount in the future value that is filled on the order book",
          "isInsufficientDepositAmount": "The boolean if the order amount for lending in the selected currency is insufficient for the deposit amount or not",
          "lastUnitPrice": "The last unit price that is filled on the order book",
          "orderFeeInFV": "The order fee amount in the future value"
        }
      },
      "getOrderFeeRate(bytes32)": {
        "params": {
          "_ccy": "Currency name in bytes32"
        },
        "returns": {
          "_0": "The order fee rate received by protocol"
        }
      },
      "getPendingOrderAmount(bytes32,uint256)": {
        "params": {
          "_ccy": "Currency name in bytes32",
          "_maturity": "The maturity of the order book"
        },
        "returns": {
          "_0": "The total amount"
        }
      },
      "getPosition(bytes32,uint256,address)": {
        "params": {
          "_ccy": "Currency name in bytes32",
          "_maturity": "The maturity of the selected order book",
          "_user": "User's address"
        },
        "returns": {
          "futureValue": "The future value of the position",
          "presentValue": "The present value of the position"
        }
      },
      "getRevision()": {
        "returns": {
          "_0": "The revision number"
        }
      },
      "getRoleAdmin(bytes32)": {
        "details": "Returns the admin role that controls `role`. See {grantRole} and {revokeRole}. To change a role's admin, use {_setRoleAdmin}."
      },
      "getTerminationCollateralRatio(bytes32)": {
        "params": {
          "_ccy": "Currency name in bytes32"
        },
        "returns": {
          "_0": "The ratio"
        }
      },
      "getTerminationCurrencyCache(bytes32)": {
        "params": {
          "_ccy": "Currency name in bytes32"
        },
        "returns": {
          "_0": "The price cached"
        }
      },
      "getTerminationDate()": {
        "returns": {
          "_0": "The termination date"
        }
      },
      "getTotalPresentValue(bytes32,address)": {
        "params": {
          "_ccy": "Currency name in bytes32 for Lending Market",
          "_user": "User's address"
        },
        "returns": {
          "totalPresentValue": "The total present value"
        }
      },
      "getTotalPresentValueInBaseCurrency(address)": {
        "params": {
          "_user": "User's address"
        },
        "returns": {
          "totalPresentValue": "The total present value in base currency"
        }
      },
      "getUsedCurrencies(address)": {
        "params": {
          "_user": "User's address"
        },
        "returns": {
          "_0": "The array of the currency"
        }
      },
      "getWithdrawableZCTokenAmount(bytes32,uint256,address)": {
        "params": {
          "_ccy": "Currency name in bytes32",
          "_maturity": "The maturity of the order book",
          "_user": "User's address"
        },
        "returns": {
          "amount": "The total amount of ZCToken that can be minted"
        }
      },
      "getZCToken(bytes32,uint256)": {
        "params": {
          "_ccy": "Currency name in bytes32",
          "_maturity": "The maturity of the selected order book"
        },
        "returns": {
          "_0": "The zcToken address"
        }
      },
      "getZCTokenInfo(address)": {
        "params": {
          "_zcToken": "The zcToken address"
        },
        "returns": {
          "_0": "The zcToken data"
        }
      },
      "grantRole(bytes32,address)": {
        "details": "Grants `role` to `account`. If `account` had not been already granted `role`, emits a {RoleGranted} event. Requirements: - the caller must have ``role``'s admin role. May emit a {RoleGranted} event."
      },
      "hasRole(bytes32,address)": {
        "details": "Returns `true` if `account` has been granted `role`."
      },
      "initialize(address,address,uint256)": {
        "details": "Function is invoked by the proxy contract when the contract is added to the ProxyController.",
        "params": {
          "_marketBasePeriod": "The base period for market maturity",
          "_owner": "The address of the contract owner",
          "_resolver": "The address of the Address Resolver contract"
        }
      },
      "initializeLendingMarket(bytes32,uint256,uint256,uint256,uint256,uint256)": {
        "params": {
          "_ccy": "Currency name in bytes32",
          "_circuitBreakerLimitRange": "The circuit breaker limit range",
          "_compoundFactor": "The initial compound factor when the initial market is opened",
          "_genesisDate": "The genesis date when the initial market is opened",
          "_orderFeeRate": "The order fee rate received by protocol"
        }
      },
      "isInitializedLendingMarket(bytes32)": {
        "params": {
          "_ccy": "Currency name in bytes32"
        },
        "returns": {
          "_0": "The boolean if the lending market is initialized or not"
        }
      },
      "isRedemptionRequired(address)": {
        "returns": {
          "_0": "The boolean if the user needs to redeem the funds"
        }
      },
      "isTerminated()": {
        "returns": {
          "_0": "The boolean if the protocol has not been terminated"
        }
      },
      "isValidMaturity(bytes32,uint256)": {
        "params": {
          "_ccy": "Currency name in bytes32",
          "_maturity": "The maturity of the order book"
        },
        "returns": {
          "_0": "The boolean if the maturity is valid"
        }
      },
      "multicall(bytes[])": {
        "custom:oz-upgrades-unsafe-allow-reachable": "delegatecall",
        "details": "Receives and executes a batch of function calls on this contract."
      },
      "owner()": {
        "details": "Returns the address of the current owner."
      },
      "pauseLendingMarket(bytes32)": {
        "params": {
          "_ccy": "Currency for pausing all lending markets"
        },
        "returns": {
          "_0": "True if the execution of the operation succeeds"
        }
      },
      "removeOperator(address)": {
        "params": {
          "admin": "The address of the admin to remove"
        }
      },
      "renounceOwnership()": {
        "details": "Leaves the contract without owner. It will not be possible to call `onlyOwner` functions anymore. Can only be called by the current owner. NOTE: Renouncing ownership will leave the contract without an owner, thereby removing any functionality that is only available to the owner."
      },
      "renounceRole(bytes32,address)": {
        "params": {
          "account": "The address of the account to revoke the role from",
          "role": "The role to be revoked"
        }
      },
      "requiredContracts()": {
        "details": "The contract name list is in `./libraries/Contracts.sol`."
      },
      "revokeRole(bytes32,address)": {
        "details": "Revokes `role` from `account`.",
        "params": {
          "account": "The address of the account to revoke the role from",
          "role": "The role to be revoked"
        }
      },
      "rotateOrderBooks(bytes32)": {
        "params": {
          "_ccy": "Currency name in bytes32 of the selected order book"
        }
      },
      "supportsInterface(bytes4)": {
        "details": "See {IERC165-supportsInterface}."
      },
      "transferOwnership(address)": {
        "details": "Transfers ownership of the contract to a new account (`newOwner`). Can only be called by the current owner."
      },
      "unpauseLendingMarket(bytes32)": {
        "params": {
          "_ccy": "Currency name in bytes32"
        },
        "returns": {
          "_0": "True if the execution of the operation succeeds"
        }
      },
      "unwindPosition(bytes32,uint256)": {
        "params": {
          "_ccy": "Currency name in bytes32 of the selected order book",
          "_maturity": "The maturity of the selected order book"
        }
      },
      "unwindPositionWithCap(bytes32,uint256,uint256)": {
        "params": {
          "_ccy": "Currency name in bytes32 of the selected order book",
          "_maturity": "The maturity of the selected order book",
          "_maxAmountInFV": "Maximum amount in future value to unwind. If 0, no cap is applied."
        },
        "returns": {
          "feeInFV": "The order fee amount in the future value",
          "filledAmount": "The amount that is filled on the order book",
          "filledAmountInFV": "The amount in the future value that is filled on the order book"
        }
      },
      "updateCircuitBreakerLimitRange(bytes32,uint256)": {
        "params": {
          "_cbLimitRange": "The circuit breaker limit range",
          "_ccy": "Currency name in bytes32"
        }
      },
      "updateMinDebtUnitPrice(bytes32,uint256)": {
        "params": {
          "_ccy": "Currency name in bytes32",
          "_minDebtUnitPrice": "The min debt unit price"
        }
      },
      "updateOrderFeeRate(bytes32,uint256)": {
        "params": {
          "_ccy": "Currency name in bytes32",
          "_orderFeeRate": "The order fee rate received by protocol"
        }
      },
      "withdrawZCToken(bytes32,uint256,uint256)": {
        "params": {
          "_amount": "The amount of ZCToken to mint",
          "_ccy": "Currency name in bytes32",
          "_maturity": "The maturity of the order book"
        }
      }
    },
    "version": 1
  },
  "userdoc": {
    "kind": "user",
    "methods": {
      "addOperator(address)": {
        "notice": "Adds a new admin as Operator"
      },
      "calculateFunds(bytes32,address,uint256)": {
        "notice": "Gets the funds that are calculated from the user's lending and borrowing order list for the selected currency."
      },
      "calculateTotalFundsInBaseCurrency(address,(bytes32,uint256,uint256,uint256,uint256,uint256,uint256),uint256)": {
        "notice": "Gets the funds that are calculated from the user's lending and borrowing order list for all currencies in base currency."
      },
      "cancelOrder(bytes32,uint256,uint48)": {
        "notice": "Cancels the own order."
      },
      "cleanUpAllFunds(address)": {
        "notice": "Clean up all funds of the user"
      },
      "cleanUpFunds(bytes32,address)": {
        "notice": "Clean up user funds used for lazy evaluation by the following actions: - Removes order IDs that is already filled on the order book. - Convert Future values that have already been auto-rolled to Genesis values."
      },
      "createOrderBook(bytes32,uint256,uint256)": {
        "notice": "Creates new order book."
      },
      "depositAndExecuteOrder(bytes32,uint256,uint8,uint256,uint256)": {
        "notice": "Deposits funds and executes an order at the same time."
      },
      "depositAndExecutesPreOrder(bytes32,uint256,uint8,uint256,uint256)": {
        "notice": "Deposits funds and executes a pre-order at the same time."
      },
      "depositWithPermitAndExecuteOrder(bytes32,uint256,uint8,uint256,uint256,uint256,uint8,bytes32,bytes32)": {
        "notice": "Deposits funds with transfer approval of asset via permit function and executes an order at the same time."
      },
      "depositWithPermitAndExecutePreOrder(bytes32,uint256,uint8,uint256,uint256,uint256,uint8,bytes32,bytes32)": {
        "notice": "Deposits funds with transfer approval of asset via permit function and executes a pre-order at the same time."
      },
      "depositZCToken(bytes32,uint256,uint256)": {
        "notice": "Deposits ZCToken for the selected currency and maturity. ZC perpetual token can be deposited only when the maturity is 0. This function is not inactivated after the emergency termination to allow users to redeem ZCToken."
      },
      "executeEmergencySettlement()": {
        "notice": "Force settlement of all lending and borrowing positions. This function is executed under the present value as of the termination date."
      },
      "executeEmergencyTermination()": {
        "notice": "Executes an emergency termination to stop the protocol. Once this function is executed, the protocol cannot be run again. Also, users will only be able to redeem and withdraw."
      },
      "executeForcedRepayment(bytes32,bytes32,uint256,address)": {
        "notice": "Execute forced repayment for a borrowing position if repayment date is over."
      },
      "executeItayoseCall(bytes32,uint256)": {
        "notice": "Executes the Itayose call per selected currency."
      },
      "executeLiquidationCall(bytes32,bytes32,uint256,address)": {
        "notice": "Liquidates a lending or borrowing position if the user's coverage is hight."
      },
      "executeOrder(bytes32,uint256,uint8,uint256,uint256)": {
        "notice": "Executes an order. Takes orders if the order is matched, and places new order if not match it. In addition, converts the future value to the genesis value if there is future value in past maturity before the execution of order creation."
      },
      "executePreOrder(bytes32,uint256,uint8,uint256,uint256)": {
        "notice": "Executes a pre-order. A pre-order will only be accepted from 168 hours (7 days) to 1 hour before the order book opens (Pre-order period). At the end of this period, Itayose will be executed."
      },
      "executeRedemption(bytes32,uint256)": {
        "notice": "Redeem user's lending positions. Redemption can only be executed once the order book has matured after the currency has been delisted."
      },
      "executeRepayment(bytes32,uint256)": {
        "notice": "Repay user's borrowing positions. Repayment can only be executed once the order book has matured after the currency has been delisted."
      },
      "getCircuitBreakerLimitRange(bytes32)": {
        "notice": "Gets the limit range in unit price for the circuit breaker"
      },
      "getCurrentMinDebtUnitPrice(bytes32,uint256)": {
        "notice": "Gets the current min debt unit price. This price fluctuates depending on the current maturity."
      },
      "getFutureValueVault(bytes32)": {
        "notice": "Gets the future value contract address for the selected currency and maturity."
      },
      "getGenesisDate(bytes32)": {
        "notice": "Gets the genesis date when the first market opens for the selected currency."
      },
      "getGenesisValue(bytes32,address)": {
        "notice": "Gets the genesis value of the account."
      },
      "getLendingMarket(bytes32)": {
        "notice": "Gets the lending market contract address for the selected currency."
      },
      "getMarketBasePeriod()": {
        "notice": "Gets the base period for market maturity"
      },
      "getMaturities(bytes32)": {
        "notice": "Gets maturities for the selected currency."
      },
      "getMinDebtUnitPrice(bytes32)": {
        "notice": "Gets the min debt unit price for the selected currency. This price is based on a one-year maturity."
      },
      "getOrderBookId(bytes32,uint256)": {
        "notice": "Gets the order book id for the selected currency and maturity."
      },
      "getOrderBookIds(bytes32)": {
        "notice": "Gets the order book ids."
      },
      "getOrderEstimation((bytes32,uint256,address,uint8,uint256,uint256,uint256,bool))": {
        "notice": "Gets the estimated order result by the calculation of the amount to be filled when executing an order in the order books."
      },
      "getOrderEstimationFromFV((bytes32,uint256,address,uint8,uint256,uint256,bool))": {
        "notice": "Gets the estimated order result by the calculation of the amount to be filled when executing an order in the order books. This function is used to estimate the order from future value."
      },
      "getOrderFeeRate(bytes32)": {
        "notice": "Gets the order fee rate"
      },
      "getPendingOrderAmount(bytes32,uint256)": {
        "notice": "Gets the total amount of pending orders that is not cleaned up yet."
      },
      "getPosition(bytes32,uint256,address)": {
        "notice": "Gets user's active position from the future value vault"
      },
      "getRevision()": {
        "notice": "Gets the revision number of the contract"
      },
      "getTerminationCollateralRatio(bytes32)": {
        "notice": "Gets the collateral ratio of each token in TokenVault at the emergency termination."
      },
      "getTerminationCurrencyCache(bytes32)": {
        "notice": "Gets the currency information cached at the emergency termination."
      },
      "getTerminationDate()": {
        "notice": "Gets the date at the emergency termination."
      },
      "getTotalPresentValue(bytes32,address)": {
        "notice": "Gets the total present value of the account for selected currency."
      },
      "getTotalPresentValueInBaseCurrency(address)": {
        "notice": "Gets the total present value of the account converted to base currency."
      },
      "getUsedCurrencies(address)": {
        "notice": "Get all the currencies in which the user has lending positions or orders."
      },
      "getWithdrawableZCTokenAmount(bytes32,uint256,address)": {
        "notice": "Gets the withdrawable ZCToken amount for the selected currency and maturity. ZC perpetual token amount is returned only when the maturity is 0."
      },
      "getZCToken(bytes32,uint256)": {
        "notice": "Gets ZC Token address for the selected currency and maturity."
      },
      "getZCTokenInfo(address)": {
        "notice": "Gets ZC Token info for the selected ZC Token address."
      },
      "initialize(address,address,uint256)": {
        "notice": "Initializes the contract."
      },
      "initializeLendingMarket(bytes32,uint256,uint256,uint256,uint256,uint256)": {
        "notice": "Initialize the lending market to set a genesis date and compound factor"
      },
      "isInitializedLendingMarket(bytes32)": {
        "notice": "Gets if the lending market is initialized."
      },
      "isRedemptionRequired(address)": {
        "notice": "Gets if the user needs to redeem the funds."
      },
      "isTerminated()": {
        "notice": "Gets if the protocol has not been terminated."
      },
      "isValidMaturity(bytes32,uint256)": {
        "notice": "Gets if the maturity is valid."
      },
      "pauseLendingMarket(bytes32)": {
        "notice": "Pauses the lending market by currency"
      },
      "removeOperator(address)": {
        "notice": "Removes an admin as Operator"
      },
      "renounceRole(bytes32,address)": {
        "notice": "Revokes `role` from the calling account. This function is disabled by overriding it with a revert."
      },
      "requiredContracts()": {
        "notice": "Returns the contract names used in this contract."
      },
      "rotateOrderBooks(bytes32)": {
        "notice": "Rotates the order books. In this rotation, the following actions are happened. - Updates the maturity at the beginning of the order book array. - Moves the beginning of the order book array to the end of it (Market rotation). - Update the compound factor in this contract using the next order book unit price. (Auto-rolls) - Clean up the reserve fund contract"
      },
      "unpauseLendingMarket(bytes32)": {
        "notice": "Unpauses the lending market by currency"
      },
      "unwindPosition(bytes32,uint256)": {
        "notice": "Unwinds user's lending or borrowing positions by creating an opposite position order."
      },
      "unwindPositionWithCap(bytes32,uint256,uint256)": {
        "notice": "Unwinds user's lending or borrowing positions by creating an opposite position order with a cap."
      },
      "updateCircuitBreakerLimitRange(bytes32,uint256)": {
        "notice": "Updates the auto-roll fee rate"
      },
      "updateMinDebtUnitPrice(bytes32,uint256)": {
        "notice": "Updates the min debt unit price for the selected currency."
      },
      "updateOrderFeeRate(bytes32,uint256)": {
        "notice": "Updates the order fee rate"
      },
      "withdrawZCToken(bytes32,uint256,uint256)": {
        "notice": "Withdraws ZCToken for the selected currency and maturity. ZC perpetual token can be withdrawn only when the maturity is 0."
      }
    },
    "notice": "Implements the module to manage separated lending market contracts per currency. This contract also works as a factory contract that can deploy(start)a new lending market & order book for selected currency and maturity and has the calculation logic for the following user's funds in addition. - Present Value(PV) - Future Value(FV) - Genesis Value(GV) Once the order book is created, it will be rotated and reused once it reaches its maturity date. At the time of rotation, a new maturity date is set and the compound factor is updated. The users mainly call this contract to execute orders to lend or borrow funds.",
    "version": 1
  },
  "storageLayout": {
    "storage": [
      {
        "astId": 1791,
        "contract": "contracts/protocol/LendingMarketController.sol:LendingMarketController",
        "label": "_status",
        "offset": 0,
        "slot": "0",
        "type": "t_uint256"
      },
      {
        "astId": 1618,
        "contract": "contracts/protocol/LendingMarketController.sol:LendingMarketController",
        "label": "_initialized",
        "offset": 0,
        "slot": "1",
        "type": "t_uint8"
      },
      {
        "astId": 1621,
        "contract": "contracts/protocol/LendingMarketController.sol:LendingMarketController",
        "label": "_initializing",
        "offset": 1,
        "slot": "1",
        "type": "t_bool"
      },
      {
        "astId": 53306,
        "contract": "contracts/protocol/LendingMarketController.sol:LendingMarketController",
        "label": "lockedBy",
        "offset": 2,
        "slot": "1",
        "type": "t_address"
      }
    ],
    "types": {
      "t_address": {
        "encoding": "inplace",
        "label": "address",
        "numberOfBytes": "20"
      },
      "t_bool": {
        "encoding": "inplace",
        "label": "bool",
        "numberOfBytes": "1"
      },
      "t_uint256": {
        "encoding": "inplace",
        "label": "uint256",
        "numberOfBytes": "32"
      },
      "t_uint8": {
        "encoding": "inplace",
        "label": "uint8",
        "numberOfBytes": "1"
      }
    }
  }
}