{
  "address": "0x411DE07Da2Ff306DA6feA89374787A17E9600D9A",
  "abi": [
    {
      "anonymous": false,
      "inputs": [
        {
          "indexed": true,
          "internalType": "address",
          "name": "party0",
          "type": "address"
        },
        {
          "indexed": true,
          "internalType": "address",
          "name": "party1",
          "type": "address"
        },
        {
          "indexed": false,
          "internalType": "bytes32",
          "name": "ccy",
          "type": "bytes32"
        },
        {
          "indexed": false,
          "internalType": "uint256",
          "name": "payment0",
          "type": "uint256"
        },
        {
          "indexed": false,
          "internalType": "uint256",
          "name": "payment1",
          "type": "uint256"
        }
      ],
      "name": "AddCloseOutPayments",
      "type": "event"
    },
    {
      "anonymous": false,
      "inputs": [
        {
          "indexed": false,
          "internalType": "bytes32",
          "name": "name",
          "type": "bytes32"
        },
        {
          "indexed": false,
          "internalType": "address",
          "name": "destination",
          "type": "address"
        }
      ],
      "name": "CacheUpdated",
      "type": "event"
    },
    {
      "anonymous": false,
      "inputs": [
        {
          "indexed": false,
          "internalType": "uint8",
          "name": "version",
          "type": "uint8"
        }
      ],
      "name": "Initialized",
      "type": "event"
    },
    {
      "anonymous": false,
      "inputs": [
        {
          "indexed": true,
          "internalType": "address",
          "name": "party0",
          "type": "address"
        },
        {
          "indexed": true,
          "internalType": "address",
          "name": "party1",
          "type": "address"
        },
        {
          "indexed": false,
          "internalType": "bytes32",
          "name": "ccy",
          "type": "bytes32"
        },
        {
          "indexed": false,
          "internalType": "uint256",
          "name": "payment0",
          "type": "uint256"
        },
        {
          "indexed": false,
          "internalType": "uint256",
          "name": "payment1",
          "type": "uint256"
        }
      ],
      "name": "RemoveCloseOutPayments",
      "type": "event"
    },
    {
      "anonymous": false,
      "inputs": [
        {
          "indexed": true,
          "internalType": "address",
          "name": "party0",
          "type": "address"
        },
        {
          "indexed": true,
          "internalType": "address",
          "name": "party1",
          "type": "address"
        },
        {
          "indexed": false,
          "internalType": "bytes32",
          "name": "ccy",
          "type": "bytes32"
        },
        {
          "indexed": false,
          "internalType": "uint256",
          "name": "netPayment",
          "type": "uint256"
        },
        {
          "indexed": false,
          "internalType": "bytes32",
          "name": "txHash",
          "type": "bytes32"
        }
      ],
      "name": "SettleCloseOut",
      "type": "event"
    },
    {
      "anonymous": false,
      "inputs": [
        {
          "indexed": true,
          "internalType": "address",
          "name": "party0",
          "type": "address"
        },
        {
          "indexed": true,
          "internalType": "address",
          "name": "party1",
          "type": "address"
        },
        {
          "indexed": false,
          "internalType": "bytes32",
          "name": "ccy",
          "type": "bytes32"
        },
        {
          "indexed": false,
          "internalType": "uint256",
          "name": "netPayment",
          "type": "uint256"
        },
        {
          "indexed": false,
          "internalType": "bytes32",
          "name": "txHash",
          "type": "bytes32"
        }
      ],
      "name": "VerifyCloseOut",
      "type": "event"
    },
    {
      "inputs": [],
      "name": "acceptedContracts",
      "outputs": [
        {
          "internalType": "bytes32[]",
          "name": "contracts",
          "type": "bytes32[]"
        }
      ],
      "stateMutability": "pure",
      "type": "function"
    },
    {
      "inputs": [
        {
          "internalType": "address",
          "name": "party0",
          "type": "address"
        },
        {
          "internalType": "address",
          "name": "party1",
          "type": "address"
        },
        {
          "internalType": "bytes32",
          "name": "ccy",
          "type": "bytes32"
        },
        {
          "internalType": "uint256",
          "name": "payment0",
          "type": "uint256"
        },
        {
          "internalType": "uint256",
          "name": "payment1",
          "type": "uint256"
        }
      ],
      "name": "addPayments",
      "outputs": [],
      "stateMutability": "nonpayable",
      "type": "function"
    },
    {
      "inputs": [],
      "name": "buildCache",
      "outputs": [],
      "stateMutability": "nonpayable",
      "type": "function"
    },
    {
      "inputs": [
        {
          "internalType": "address",
          "name": "_party",
          "type": "address"
        }
      ],
      "name": "checkDefault",
      "outputs": [
        {
          "internalType": "bool",
          "name": "",
          "type": "bool"
        }
      ],
      "stateMutability": "view",
      "type": "function"
    },
    {
      "inputs": [
        {
          "internalType": "address",
          "name": "party0",
          "type": "address"
        },
        {
          "internalType": "address",
          "name": "party1",
          "type": "address"
        },
        {
          "internalType": "bytes32",
          "name": "ccy",
          "type": "bytes32"
        }
      ],
      "name": "getCloseOutPayment",
      "outputs": [
        {
          "components": [
            {
              "internalType": "uint256",
              "name": "netPayment",
              "type": "uint256"
            },
            {
              "internalType": "bool",
              "name": "flipped",
              "type": "bool"
            },
            {
              "internalType": "bool",
              "name": "closed",
              "type": "bool"
            }
          ],
          "internalType": "struct CloseOut.Payment",
          "name": "payment",
          "type": "tuple"
        }
      ],
      "stateMutability": "view",
      "type": "function"
    },
    {
      "inputs": [
        {
          "internalType": "address",
          "name": "resolver",
          "type": "address"
        }
      ],
      "name": "initialize",
      "outputs": [],
      "stateMutability": "nonpayable",
      "type": "function"
    },
    {
      "inputs": [],
      "name": "isResolverCached",
      "outputs": [
        {
          "internalType": "bool",
          "name": "",
          "type": "bool"
        }
      ],
      "stateMutability": "view",
      "type": "function"
    },
    {
      "inputs": [
        {
          "internalType": "address",
          "name": "party0",
          "type": "address"
        },
        {
          "internalType": "address",
          "name": "party1",
          "type": "address"
        },
        {
          "internalType": "bytes32",
          "name": "ccy",
          "type": "bytes32"
        },
        {
          "internalType": "uint256",
          "name": "payment0",
          "type": "uint256"
        },
        {
          "internalType": "uint256",
          "name": "payment1",
          "type": "uint256"
        }
      ],
      "name": "removePayments",
      "outputs": [],
      "stateMutability": "nonpayable",
      "type": "function"
    },
    {
      "inputs": [],
      "name": "requiredContracts",
      "outputs": [
        {
          "internalType": "bytes32[]",
          "name": "contracts",
          "type": "bytes32[]"
        }
      ],
      "stateMutability": "pure",
      "type": "function"
    },
    {
      "inputs": [],
      "name": "resolver",
      "outputs": [
        {
          "internalType": "contract IAddressResolver",
          "name": "",
          "type": "address"
        }
      ],
      "stateMutability": "view",
      "type": "function"
    }
  ],
  "transactionHash": "0x72684899e601ececf75cc883816bdf53302b6965e4f71b01f811bb700a68022f",
  "args": [],
  "numDeployments": 10,
  "solcInputHash": "971962312d57c9fa43e93f0d7765eb35",
  "bytecode": "0x608060405234801561001057600080fd5b5061118f806100206000396000f3fe608060405234801561001057600080fd5b506004361061009e5760003560e01c80638c9165b0116100665780638c9165b014610143578063c4d66de814610156578063ca2da52914610169578063e09976591461012e578063ebbb7de91461017c57600080fd5b806304f3bcec146100a357806329985e5a146100d35780632af64bd3146100dd5780633a6d7596146100f55780633d03b9da1461012e575b600080fd5b6000546100b6906001600160a01b031681565b6040516001600160a01b0390911681526020015b60405180910390f35b6100db6101c7565b005b6100e561035a565b60405190151581526020016100ca565b610108610103366004610f05565b610478565b6040805182518152602080840151151590820152918101511515908201526060016100ca565b6101366104c9565b6040516100ca9190610f46565b6100db610151366004610f8a565b610522565b6100db610164366004610fdb565b6105fe565b6100db610177366004610f8a565b610709565b6100e561018a366004610fdb565b6001600160a01b031660009081527f1ae7b5618399ecc2c5d3c14c1cb4607dd7fc1a97fd1515c3f885dbd5490e5493602052604090205460ff1690565b60006101d16104c9565b905060005b81518110156103565760008282815181106101f3576101f3610fff565b6020026020010151905060008060009054906101000a90046001600160a01b03166001600160a01b0316636795dbcd838460405160200161026091907f5265736f6c766572206d697373696e67207461726765743a20000000000000008152601981019190915260390190565b6040516020818303038152906040526040518363ffffffff1660e01b815260040161028c929190611062565b60206040518083038186803b1580156102a457600080fd5b505afa1580156102b8573d6000803e3d6000fd5b505050506040513d601f19601f820116820180604052508101906102dc919061107b565b60008381526001602090815260409182902080546001600160a01b0319166001600160a01b0385169081179091558251868152918201529192507f88a93678a3692f6789d9546fc621bf7234b101ddb7d4fe479455112831b8aa68910160405180910390a15050808061034e906110ae565b9150506101d6565b5050565b6000806103656104c9565b905060005b815181101561046f57600082828151811061038757610387610fff565b60209081029190910181015160008181526001909252604080832054925490516321f8a72160e01b8152600481018390529193506001600160a01b039283169216906321f8a7219060240160206040518083038186803b1580156103ea57600080fd5b505afa1580156103fe573d6000803e3d6000fd5b505050506040513d601f19601f82011682018060405250810190610422919061107b565b6001600160a01b031614158061044d57506000818152600160205260409020546001600160a01b0316155b1561045c576000935050505090565b5080610467816110ae565b91505061036a565b50600191505090565b60408051606081018252600080825260208201819052918101919091526104c17f1ae7b5618399ecc2c5d3c14c1cb4607dd7fc1a97fd1515c3f885dbd5490e54928585856107d5565b949350505050565b60408051600180825281830190925260609160208083019080368337019050509050702830bcb6b2b73a20b3b3b932b3b0ba37b960791b8160008151811061051357610513610fff565b60200260200101818152505090565b61052b3361087a565b6105765760405162461bcd60e51b81526020600482015260176024820152764f6e6c7920416363657074656420436f6e74726163747360481b60448201526064015b60405180910390fd5b6105a47f1ae7b5618399ecc2c5d3c14c1cb4607dd7fc1a97fd1515c3f885dbd5490e549286868686866108f4565b5060408051848152602081018490529081018290526001600160a01b0380861691908716907f96dc6c2618ed726615771c9e1252ef89239f3f1fc009126b10580edfcf81bf59906060015b60405180910390a35050505050565b600061060a6001610a71565b90508015610622576002805461ff0019166101001790555b60006106557f360894a13ba1a3210667c828492db98dca3e2076cc3735a920a3ca505d382bbc546001600160a01b031690565b6001600160a01b031614156106b75760405162461bcd60e51b815260206004820152602260248201527f4d7573742062652063616c6c65642066726f6d2070726f787920636f6e74726160448201526118dd60f21b606482015260840161056d565b6106c082610afb565b8015610356576002805461ff0019169055604051600181527f7f26b83ff96e1f2b6a682f133852f6798a09c465da95921460cefb38474024989060200160405180910390a15050565b6107123361087a565b6107585760405162461bcd60e51b81526020600482015260176024820152764f6e6c7920416363657074656420436f6e74726163747360481b604482015260640161056d565b6107867f1ae7b5618399ecc2c5d3c14c1cb4607dd7fc1a97fd1515c3f885dbd5490e54928686868686610b76565b5060408051848152602081018490529081018290526001600160a01b0380861691908716907f4aaf456318661525ee0231fc2662025a6af97cd168232ca86a78d50a6d5120f5906060016105ef565b6040805160608101825260008082526020820181905291810182905290806107fd8686610d01565b600082815260208a8152604080832089845282529182902082516060810184528154815260019091015460ff808216151593830193909352610100900490911615159181019190915294509092509050806108635760208301805115159081905261086f565b60208301805115908190525b505050949350505050565b6000806108856104c9565b905060005b81518110156108ea576108b58282815181106108a8576108a8610fff565b6020026020010151610e71565b6001600160a01b0316846001600160a01b031614156108d8575060019392505050565b806108e2816110ae565b91505061088a565b5060009392505050565b60408051608081018252600080825260208201819052918101829052606081018290526109218787610d01565b1580156020840152908252610943576040810183905260608101849052610952565b60408101849052606081018390525b805160009081526020898152604080832088845290915280822060608401519184015190929110610996578260400151836060015161099191906110c9565b6109aa565b826060015183604001516109aa91906110c9565b600183015490915060009060ff16156109de578360600151846040015110156109d45760016109d7565b60005b90506109fb565b8360600151846040015110156109f55760006109f8565b60015b90505b82548210801590610a095750805b15610a35578254610a1a90836110c9565b835560018301805460ff19811660ff90911615179055610a5c565b80610a4c578254610a479083906110e0565b610a59565b8254610a599083906110c9565b83555b50506001015460ff1698975050505050505050565b600254600090610100900460ff1615610aba578160ff166001148015610a965750303b155b610ab25760405162461bcd60e51b815260040161056d906110f8565b506000919050565b60025460ff808416911610610ae15760405162461bcd60e51b815260040161056d906110f8565b506002805460ff191660ff92909216919091179055600190565b6000546001600160a01b031615610b545760405162461bcd60e51b815260206004820152601b60248201527f7265736f6c766572207265676973746572656420616c72656164790000000000604482015260640161056d565b600080546001600160a01b0319166001600160a01b0392909216919091179055565b6040805160808101825260008082526020820181905291810182905260608101829052610ba38787610d01565b1580156020840152908252610bc5576040810183905260608101849052610bd4565b60408101849052606081018390525b80516000908152602089815260408083208884529091529020600181015460ff1615610c745780546040830151118015610c15575081604001518260600151105b15610c4d57606082015181546040840151610c3091906110c9565b610c3a91906110c9565b815560018101805460ff19169055610cee565b604082015160608301518254610c6391906110e0565b610c6d91906110c9565b8155610cee565b80546060830151118015610c8f575081606001518260400151105b15610ccb57604082015181546060840151610caa91906110c9565b610cb491906110c9565b81556001808201805460ff19169091179055610cee565b606082015160408301518254610ce191906110e0565b610ceb91906110c9565b81555b6001015460ff1698975050505050505050565b600080826001600160a01b0316846001600160a01b03161415610d5c5760405162461bcd60e51b81526020600482015260136024820152724964656e746963616c2061646472657373657360681b604482015260640161056d565b600080846001600160a01b0316866001600160a01b031610610d7f578486610d82565b85855b90925090506001600160a01b038216610dcf5760405162461bcd60e51b815260206004820152600f60248201526e496e76616c6964206164647265737360881b604482015260640161056d565b856001600160a01b0316826001600160a01b031614610e2b57604080516001600160a01b038085166020830152831691810191909152606001604051602081830303815290604052805190602001206001935093505050610e6a565b604080516001600160a01b0380851660208301528316918101919091526060016040516020818303038152906040528051906020012060009350935050505b9250929050565b600081815260016020908152604080832054905170026b4b9b9b4b7339030b2323932b9b99d1607d1b92810192909252603182018490526001600160a01b0316908115159060510160405160208183030381529060405290610ee65760405162461bcd60e51b815260040161056d9190611146565b5092915050565b6001600160a01b0381168114610f0257600080fd5b50565b600080600060608486031215610f1a57600080fd5b8335610f2581610eed565b92506020840135610f3581610eed565b929592945050506040919091013590565b6020808252825182820181905260009190848201906040850190845b81811015610f7e57835183529284019291840191600101610f62565b50909695505050505050565b600080600080600060a08688031215610fa257600080fd5b8535610fad81610eed565b94506020860135610fbd81610eed565b94979496505050506040830135926060810135926080909101359150565b600060208284031215610fed57600080fd5b8135610ff881610eed565b9392505050565b634e487b7160e01b600052603260045260246000fd5b6000815180845260005b8181101561103b5760208185018101518683018201520161101f565b8181111561104d576000602083870101525b50601f01601f19169290920160200192915050565b8281526040602082015260006104c16040830184611015565b60006020828403121561108d57600080fd5b8151610ff881610eed565b634e487b7160e01b600052601160045260246000fd5b60006000198214156110c2576110c2611098565b5060010190565b6000828210156110db576110db611098565b500390565b600082198211156110f3576110f3611098565b500190565b6020808252602e908201527f496e697469616c697a61626c653a20636f6e747261637420697320616c72656160408201526d191e481a5b9a5d1a585b1a5e995960921b606082015260800190565b602081526000610ff8602083018461101556fea26469706673582212205feb2ae3fa46090ef8005b3feaf89452d097079addfcd063a1b05e2abf6dd54b64736f6c63430008090033",
  "implementation": "0xb893472e4C8e7b4FaBd4842fdDb9B7AA6C7Ab004",
  "devdoc": {
    "kind": "dev",
    "methods": {
      "acceptedContracts()": {
        "details": "Returns contract names that can call this contract."
      },
      "addPayments(address,address,bytes32,uint256,uint256)": {
        "details": "Triggers to add total payments during the registration of the deal in close out netting",
        "params": {
          "ccy": "Main settlement currency of the deal",
          "party0": "First counterparty address",
          "party1": "Second counterparty address",
          "payment0": "Aggregated payment for first counterparty",
          "payment1": "Aggregated payment for second counterparty"
        }
      },
      "checkDefault(address)": {
        "details": "External function to check if `_party` is in default"
      },
      "getCloseOutPayment(address,address,bytes32)": {
        "details": "Returns the close out payment between two counterparties",
        "params": {
          "ccy": "Main payment settlement currency",
          "party0": "First counterparty address",
          "party1": "Second counterparty address"
        }
      },
      "initialize(address)": {
        "details": "Function is invoked by the proxy contract when the contract is added to the ProxyController"
      },
      "removePayments(address,address,bytes32,uint256,uint256)": {
        "details": "Triggers to remove aggregated payments during the liquidation of the deal in close out netting",
        "params": {
          "ccy": "Main settlement currency of the deal",
          "party0": "First counterparty address",
          "party1": "Second counterparty address",
          "payment0": "Aggregated payment for first counterparty",
          "payment1": "Aggregated payment for second counterparty"
        }
      },
      "requiredContracts()": {
        "details": "Returns required contract names in this contract"
      }
    },
    "title": "Close Out Netting contract is used in close out operations Close out is the process while one of the counterparties declared as defaulted party and all deals should be terminated Contract linked to all product based contracts (ex. Loan, Swap, etc), and Collateral Aggregator contract.",
    "version": 1
  },
  "userdoc": {
    "kind": "user",
    "methods": {
      "addPayments(address,address,bytes32,uint256,uint256)": {
        "notice": "Executed only be PaymentAggregator contract"
      },
      "initialize(address)": {
        "notice": "Initializes the contract."
      },
      "removePayments(address,address,bytes32,uint256,uint256)": {
        "notice": "Executed only be PaymentAggregator contract"
      }
    },
    "version": 1
  },
  "storageLayout": {
    "storage": [
      {
        "astId": 35714,
        "contract": "contracts/CloseOutNetting.sol:CloseOutNetting",
        "label": "resolver",
        "offset": 0,
        "slot": "0",
        "type": "t_contract(IAddressResolver)23276"
      },
      {
        "astId": 35718,
        "contract": "contracts/CloseOutNetting.sol:CloseOutNetting",
        "label": "addressCache",
        "offset": 0,
        "slot": "1",
        "type": "t_mapping(t_bytes32,t_address)"
      },
      {
        "astId": 2833,
        "contract": "contracts/CloseOutNetting.sol:CloseOutNetting",
        "label": "_initialized",
        "offset": 0,
        "slot": "2",
        "type": "t_uint8"
      },
      {
        "astId": 2836,
        "contract": "contracts/CloseOutNetting.sol:CloseOutNetting",
        "label": "_initializing",
        "offset": 1,
        "slot": "2",
        "type": "t_bool"
      }
    ],
    "types": {
      "t_address": {
        "encoding": "inplace",
        "label": "address",
        "numberOfBytes": "20"
      },
      "t_bool": {
        "encoding": "inplace",
        "label": "bool",
        "numberOfBytes": "1"
      },
      "t_bytes32": {
        "encoding": "inplace",
        "label": "bytes32",
        "numberOfBytes": "32"
      },
      "t_contract(IAddressResolver)23276": {
        "encoding": "inplace",
        "label": "contract IAddressResolver",
        "numberOfBytes": "20"
      },
      "t_mapping(t_bytes32,t_address)": {
        "encoding": "mapping",
        "key": "t_bytes32",
        "label": "mapping(bytes32 => address)",
        "numberOfBytes": "32",
        "value": "t_address"
      },
      "t_uint8": {
        "encoding": "inplace",
        "label": "uint8",
        "numberOfBytes": "1"
      }
    }
  }
}