{
  "address": "0x146eDe476f2cE8Dc9FCEaD69075114194f2D08d5",
  "abi": [
    {
      "anonymous": false,
      "inputs": [
        {
          "indexed": false,
          "internalType": "bytes32",
          "name": "name",
          "type": "bytes32"
        },
        {
          "indexed": false,
          "internalType": "address",
          "name": "destination",
          "type": "address"
        }
      ],
      "name": "CacheUpdated",
      "type": "event"
    },
    {
      "anonymous": false,
      "inputs": [
        {
          "indexed": false,
          "internalType": "uint8",
          "name": "version",
          "type": "uint8"
        }
      ],
      "name": "Initialized",
      "type": "event"
    },
    {
      "anonymous": false,
      "inputs": [
        {
          "indexed": true,
          "internalType": "address",
          "name": "previousOwner",
          "type": "address"
        },
        {
          "indexed": true,
          "internalType": "address",
          "name": "newOwner",
          "type": "address"
        }
      ],
      "name": "OwnershipTransferred",
      "type": "event"
    },
    {
      "anonymous": false,
      "inputs": [
        {
          "indexed": true,
          "internalType": "address",
          "name": "addr",
          "type": "address"
        }
      ],
      "name": "Register",
      "type": "event"
    },
    {
      "anonymous": false,
      "inputs": [
        {
          "indexed": true,
          "internalType": "address",
          "name": "party",
          "type": "address"
        },
        {
          "indexed": false,
          "internalType": "bytes32",
          "name": "ccy",
          "type": "bytes32"
        },
        {
          "indexed": false,
          "internalType": "uint256",
          "name": "amount",
          "type": "uint256"
        }
      ],
      "name": "ReleaseUnsettled",
      "type": "event"
    },
    {
      "anonymous": false,
      "inputs": [
        {
          "indexed": true,
          "internalType": "address",
          "name": "party",
          "type": "address"
        },
        {
          "indexed": false,
          "internalType": "bytes32",
          "name": "ccy",
          "type": "bytes32"
        },
        {
          "indexed": false,
          "internalType": "uint256",
          "name": "amount",
          "type": "uint256"
        }
      ],
      "name": "UseUnsettledCollateral",
      "type": "event"
    },
    {
      "inputs": [],
      "name": "acceptedContracts",
      "outputs": [
        {
          "internalType": "bytes32[]",
          "name": "contracts",
          "type": "bytes32[]"
        }
      ],
      "stateMutability": "pure",
      "type": "function"
    },
    {
      "inputs": [],
      "name": "buildCache",
      "outputs": [],
      "stateMutability": "nonpayable",
      "type": "function"
    },
    {
      "inputs": [],
      "name": "getCollateralParameters",
      "outputs": [
        {
          "internalType": "uint256",
          "name": "marginCallThresholdRate",
          "type": "uint256"
        },
        {
          "internalType": "uint256",
          "name": "autoLiquidationThresholdRate",
          "type": "uint256"
        },
        {
          "internalType": "uint256",
          "name": "liquidationPriceRate",
          "type": "uint256"
        },
        {
          "internalType": "uint256",
          "name": "minCollateralRate",
          "type": "uint256"
        }
      ],
      "stateMutability": "view",
      "type": "function"
    },
    {
      "inputs": [
        {
          "internalType": "address",
          "name": "_user",
          "type": "address"
        }
      ],
      "name": "getCoverage",
      "outputs": [
        {
          "internalType": "uint256",
          "name": "",
          "type": "uint256"
        }
      ],
      "stateMutability": "view",
      "type": "function"
    },
    {
      "inputs": [
        {
          "internalType": "address",
          "name": "_user",
          "type": "address"
        }
      ],
      "name": "getTotalUnsettledExposure",
      "outputs": [
        {
          "internalType": "uint256",
          "name": "",
          "type": "uint256"
        }
      ],
      "stateMutability": "view",
      "type": "function"
    },
    {
      "inputs": [
        {
          "internalType": "address",
          "name": "_user",
          "type": "address"
        },
        {
          "internalType": "bytes32",
          "name": "_ccy",
          "type": "bytes32"
        }
      ],
      "name": "getUnsettledCollateral",
      "outputs": [
        {
          "internalType": "uint256",
          "name": "",
          "type": "uint256"
        }
      ],
      "stateMutability": "view",
      "type": "function"
    },
    {
      "inputs": [
        {
          "internalType": "address",
          "name": "_user",
          "type": "address"
        }
      ],
      "name": "getUnusedCollateral",
      "outputs": [
        {
          "internalType": "uint256",
          "name": "",
          "type": "uint256"
        }
      ],
      "stateMutability": "view",
      "type": "function"
    },
    {
      "inputs": [
        {
          "internalType": "address",
          "name": "_user",
          "type": "address"
        }
      ],
      "name": "getWithdrawableCollateral",
      "outputs": [
        {
          "internalType": "uint256",
          "name": "",
          "type": "uint256"
        }
      ],
      "stateMutability": "view",
      "type": "function"
    },
    {
      "inputs": [
        {
          "internalType": "address",
          "name": "_owner",
          "type": "address"
        },
        {
          "internalType": "address",
          "name": "_resolver",
          "type": "address"
        },
        {
          "internalType": "uint256",
          "name": "_marginCallThresholdRate",
          "type": "uint256"
        },
        {
          "internalType": "uint256",
          "name": "_autoLiquidationThresholdRate",
          "type": "uint256"
        },
        {
          "internalType": "uint256",
          "name": "_liquidationPriceRate",
          "type": "uint256"
        },
        {
          "internalType": "uint256",
          "name": "_minCollateralRate",
          "type": "uint256"
        }
      ],
      "name": "initialize",
      "outputs": [],
      "stateMutability": "nonpayable",
      "type": "function"
    },
    {
      "inputs": [
        {
          "internalType": "address",
          "name": "_user",
          "type": "address"
        }
      ],
      "name": "isCovered",
      "outputs": [
        {
          "internalType": "bool",
          "name": "",
          "type": "bool"
        }
      ],
      "stateMutability": "view",
      "type": "function"
    },
    {
      "inputs": [
        {
          "internalType": "address",
          "name": "_user",
          "type": "address"
        }
      ],
      "name": "isRegisteredUser",
      "outputs": [
        {
          "internalType": "bool",
          "name": "",
          "type": "bool"
        }
      ],
      "stateMutability": "view",
      "type": "function"
    },
    {
      "inputs": [],
      "name": "isResolverCached",
      "outputs": [
        {
          "internalType": "bool",
          "name": "",
          "type": "bool"
        }
      ],
      "stateMutability": "view",
      "type": "function"
    },
    {
      "inputs": [],
      "name": "owner",
      "outputs": [
        {
          "internalType": "address",
          "name": "",
          "type": "address"
        }
      ],
      "stateMutability": "view",
      "type": "function"
    },
    {
      "inputs": [],
      "name": "register",
      "outputs": [],
      "stateMutability": "nonpayable",
      "type": "function"
    },
    {
      "inputs": [
        {
          "internalType": "address",
          "name": "_user",
          "type": "address"
        },
        {
          "internalType": "bytes32",
          "name": "_ccy",
          "type": "bytes32"
        },
        {
          "internalType": "uint256",
          "name": "_amount",
          "type": "uint256"
        }
      ],
      "name": "releaseUnsettledCollateral",
      "outputs": [],
      "stateMutability": "nonpayable",
      "type": "function"
    },
    {
      "inputs": [],
      "name": "renounceOwnership",
      "outputs": [],
      "stateMutability": "nonpayable",
      "type": "function"
    },
    {
      "inputs": [],
      "name": "requiredContracts",
      "outputs": [
        {
          "internalType": "bytes32[]",
          "name": "contracts",
          "type": "bytes32[]"
        }
      ],
      "stateMutability": "pure",
      "type": "function"
    },
    {
      "inputs": [],
      "name": "resolver",
      "outputs": [
        {
          "internalType": "contract IAddressResolver",
          "name": "",
          "type": "address"
        }
      ],
      "stateMutability": "view",
      "type": "function"
    },
    {
      "inputs": [
        {
          "internalType": "uint256",
          "name": "_marginCallThresholdRate",
          "type": "uint256"
        },
        {
          "internalType": "uint256",
          "name": "_autoLiquidationThresholdRate",
          "type": "uint256"
        },
        {
          "internalType": "uint256",
          "name": "_liquidationPriceRate",
          "type": "uint256"
        },
        {
          "internalType": "uint256",
          "name": "_minCollateralRate",
          "type": "uint256"
        }
      ],
      "name": "setCollateralParameters",
      "outputs": [],
      "stateMutability": "nonpayable",
      "type": "function"
    },
    {
      "inputs": [
        {
          "internalType": "address",
          "name": "newOwner",
          "type": "address"
        }
      ],
      "name": "transferOwnership",
      "outputs": [],
      "stateMutability": "nonpayable",
      "type": "function"
    },
    {
      "inputs": [
        {
          "internalType": "address",
          "name": "_user",
          "type": "address"
        },
        {
          "internalType": "bytes32",
          "name": "_ccy",
          "type": "bytes32"
        },
        {
          "internalType": "uint256",
          "name": "_amount",
          "type": "uint256"
        }
      ],
      "name": "useUnsettledCollateral",
      "outputs": [],
      "stateMutability": "nonpayable",
      "type": "function"
    }
  ],
  "transactionHash": "0x7a2d61362e3323a1aeb94b65a68eda23d2883295bd2955812c6b6206a9ad98de",
  "args": [],
  "numDeployments": 6,
  "solcInputHash": "d4bdd79c132b5ae2c41e287553dc1e3d",
  "bytecode": "0x608060405234801561001057600080fd5b50611d8c806100206000396000f3fe608060405234801561001057600080fd5b50600436106101375760003560e01c80637ea24133116100b85780639fcaebfa1161007c5780639fcaebfa146102de578063ae812841146102f1578063c91a99f914610304578063ca42303114610317578063e09976591461032a578063f2fde38b1461033257600080fd5b80637ea241331461025a57806386489ba91461029d5780638cbf5e78146102b05780638da5cb5b146102c3578063948060dd146102cb57600080fd5b806329985e5a116100ff57806329985e5a146102055780632af64bd31461020d5780633d03b9da146102155780635d8615051461022a578063715018a61461025257600080fd5b806304f3bcec1461013c5780630cfe33fa1461016c5780631aa3a0081461018d5780631f5bdf5d1461019757806325e1f09f146101f2575b600080fd5b60005461014f906001600160a01b031681565b6040516001600160a01b0390911681526020015b60405180910390f35b61017f61017a3660046119f5565b610345565b604051908152602001610163565b610195610396565b005b6101e26101a53660046119f5565b6001600160a01b031660009081527f747d407d1d7f7c17ec532d202f3588c3ef20935de503a75a59a836e49167b600602052604090205460ff1690565b6040519015158152602001610163565b6101e26102003660046119f5565b61046a565b61019561047e565b6101e2610611565b61021d61072f565b6040516101639190611a12565b6102326107f5565b604080519485526020850193909352918301526060820152608001610163565b610195610811565b61017f610268366004611a56565b6001600160a01b03919091166000908152600080516020611d3783398151915260209081526040808320938352929052205490565b6101956102ab366004611a82565b61084c565b6101956102be366004611adb565b6109e5565b61014f610b3b565b61017f6102d93660046119f5565b610b6e565b6101956102ec366004611adb565b610b79565b6101956102ff366004611b10565b610cdf565b61017f6103123660046119f5565b610d20565b61017f6103253660046119f5565b610d2e565b61021d610d3c565b6101956103403660046119f5565b610d8c565b60008061035183610e2c565b9050600061036184600080610eb1565b61036a85611012565b6103749190611b58565b905080821161038457600061038e565b61038e8183611b70565b949350505050565b3360008181527f747d407d1d7f7c17ec532d202f3588c3ef20935de503a75a59a836e49167b600602052604090205460ff16156104085760405162461bcd60e51b815260206004820152600b60248201526a557365722065786973747360a81b60448201526064015b60405180910390fd5b3360008181527f747d407d1d7f7c17ec532d202f3588c3ef20935de503a75a59a836e49167b6006020526040808220805460ff19166001179055517feeda149c76076b34d4b9d8896c2f7efc0d33d1c7b53ea3c5db490d64613f603a9190a250565b6000610478826000806110ba565b92915050565b600061048861072f565b905060005b815181101561060d5760008282815181106104aa576104aa611b87565b6020026020010151905060008060009054906101000a90046001600160a01b03166001600160a01b0316636795dbcd838460405160200161051791907f5265736f6c766572206d697373696e67207461726765743a20000000000000008152601981019190915260390190565b6040516020818303038152906040526040518363ffffffff1660e01b8152600401610543929190611bea565b60206040518083038186803b15801561055b57600080fd5b505afa15801561056f573d6000803e3d6000fd5b505050506040513d601f19601f820116820180604052508101906105939190611c03565b60008381526001602090815260409182902080546001600160a01b0319166001600160a01b0385169081179091558251868152918201529192507f88a93678a3692f6789d9546fc621bf7234b101ddb7d4fe479455112831b8aa68910160405180910390a15050808061060590611c20565b91505061048d565b5050565b60008061061c61072f565b905060005b815181101561072657600082828151811061063e5761063e611b87565b60209081029190910181015160008181526001909252604080832054925490516321f8a72160e01b8152600481018390529193506001600160a01b039283169216906321f8a7219060240160206040518083038186803b1580156106a157600080fd5b505afa1580156106b5573d6000803e3d6000fd5b505050506040513d601f19601f820116820180604052508101906106d99190611c03565b6001600160a01b031614158061070457506000818152600160205260409020546001600160a01b0316155b15610713576000935050505090565b508061071e81611c20565b915050610621565b50600191505090565b604080516003808252608082019092526060916020820183803683370190505090506e10dbdb1b185d195c985b15985d5b1d608a1b8160008151811061077757610777611b87565b6020026020010181815250507121bab93932b731bca1b7b73a3937b63632b960711b816001815181106107ac576107ac611b87565b602002602001018181525050762632b73234b733a6b0b935b2ba21b7b73a3937b63632b960491b816002815181106107e6576107e6611b87565b60200260200101818152505090565b60008060008061080361111d565b935093509350935090919293565b3361081a610b3b565b6001600160a01b0316146108405760405162461bcd60e51b81526004016103ff90611c3b565b61084a600061115e565b565b600254610100900460ff161580801561086c5750600254600160ff909116105b806108865750303b158015610886575060025460ff166001145b6108e95760405162461bcd60e51b815260206004820152602e60248201527f496e697469616c697a61626c653a20636f6e747261637420697320616c72656160448201526d191e481a5b9a5d1a585b1a5e995960921b60648201526084016103ff565b6002805460ff19166001179055801561090c576002805461ff0019166101001790555b60006109166111cf565b6001600160a01b031614156109785760405162461bcd60e51b815260206004820152602260248201527f4d7573742062652063616c6c65642066726f6d2070726f787920636f6e74726160448201526118dd60f21b60648201526084016103ff565b6109818761115e565b61098a866111f7565b61099685858585611272565b80156109dc576002805461ff0019169055604051600181527f7f26b83ff96e1f2b6a682f133852f6798a09c465da95921460cefb38474024989060200160405180910390a15b50505050505050565b6109ee336112db565b610a345760405162461bcd60e51b81526020600482015260176024820152764f6e6c7920416363657074656420436f6e74726163747360481b60448201526064016103ff565b6001600160a01b0383166000908152600080516020611d378339815191526020908152604080832085845290915281208054839290610a74908490611b70565b90915550600080516020611d3783398151915290506001600160a01b0384166000908152602091825260408082208583529092522054610af1576001600160a01b03831660009081527f747d407d1d7f7c17ec532d202f3588c3ef20935de503a75a59a836e49167b5ff60205260409020610aef9083611355565b505b60408051838152602081018390526001600160a01b038516917fb4c40c9409d6c2c7dfd2fb0d7e0f26582b9dd0dee72dc0ff6ff09af501ba7a7691015b60405180910390a2505050565b60007f9acda75aebd150dd434541a4747a6dc606f4f1a59662477e67daf1fc0bf9e0aa5b546001600160a01b0316919050565b600061047882611361565b610b82336112db565b610bc85760405162461bcd60e51b81526020600482015260176024820152764f6e6c7920416363657074656420436f6e74726163747360481b60448201526064016103ff565b6001600160a01b03831660009081527f747d407d1d7f7c17ec532d202f3588c3ef20935de503a75a59a836e49167b5ff60205260409020610c0990836113f9565b50610c158383836110ba565b610c595760405162461bcd60e51b8152602060048201526015602482015274139bdd08195b9bdd59da0818dbdb1b185d195c985b605a1b60448201526064016103ff565b6001600160a01b0383166000908152600080516020611d378339815191526020908152604080832085845290915281208054839290610c99908490611b58565b909155505060408051838152602081018390526001600160a01b038516917f430a1193f254f9e15dc397d101a1ecf0a3383c95007062135900cc7c2a6b80439101610b2e565b33610ce8610b3b565b6001600160a01b031614610d0e5760405162461bcd60e51b81526004016103ff90611c3b565b610d1a84848484611272565b50505050565b600061047882600080610eb1565b600061047882600080611405565b60408051600180825281830190925260609160208083019080368337019050509050762632b73234b733a6b0b935b2ba21b7b73a3937b63632b960491b816000815181106107e6576107e6611b87565b33610d95610b3b565b6001600160a01b031614610dbb5760405162461bcd60e51b81526004016103ff90611c3b565b6001600160a01b038116610e205760405162461bcd60e51b815260206004820152602660248201527f4f776e61626c653a206e6577206f776e657220697320746865207a65726f206160448201526564647265737360d01b60648201526084016103ff565b610e298161115e565b50565b6000610e3661145b565b604051639491170960e01b81526001600160a01b038481166004830152919091169063949117099060240160206040518083038186803b158015610e7957600080fd5b505afa158015610e8d573d6000803e3d6000fd5b505050506040513d601f19601f820116820180604052508101906104789190611c70565b6001600160a01b03831660009081527f747d407d1d7f7c17ec532d202f3588c3ef20935de503a75a59a836e49167b5ff6020526040812081805b610ef48361147d565b811015611008576000610f078483611487565b9050600080516020611d378339815191526001600160a01b0389166000908152602091825260408082208483529092522054925086811415610f5057610f4d8684611b58565b92505b60008311610f5f576000610fe8565b610f67611493565b6040516344a6ecdd60e01b815260048101839052602481018590526001600160a01b0391909116906344a6ecdd9060440160206040518083038186803b158015610fb057600080fd5b505afa158015610fc4573d6000803e3d6000fd5b505050506040513d601f19601f82011682018060405250810190610fe89190611c70565b610ff29086611b58565b945050808061100090611c20565b915050610eeb565b5050509392505050565b60008061101d6114b3565b60405163fb54a6b360e01b81526001600160a01b038581166004830152919091169063fb54a6b39060240160206040518083038186803b15801561106057600080fd5b505afa158015611074573d6000803e3d6000fd5b505050506040513d601f19601f820116820180604052508101906110989190611c70565b9050600081136110b0576110ab81611c89565b6110b3565b60005b9392505050565b6000806110c685610e2c565b905060006110d5868686610eb1565b6110de87611012565b6110e89190611b58565b905080158061111357506110fa6114d8565b6111049082611ca6565b61111061271084611ca6565b10155b9695505050505050565b60008060008061112b6114eb565b600101546111376114eb565b600201546111436114eb565b5461114c6114eb565b60030154935093509350935090919293565b7f9acda75aebd150dd434541a4747a6dc606f4f1a59662477e67daf1fc0bf9e0aa80546001600160a01b038381166001600160a01b0319831681179093556040519116919082907f8be0079c531659141344cd1fd0a4f28419497f9722a3daafe3b4186f6b6457e090600090a35050565b60007f360894a13ba1a3210667c828492db98dca3e2076cc3735a920a3ca505d382bbc610b5f565b6000546001600160a01b0316156112505760405162461bcd60e51b815260206004820152601b60248201527f7265736f6c766572207265676973746572656420616c7265616479000000000060448201526064016103ff565b600080546001600160a01b0319166001600160a01b0392909216919091179055565b61127a6114eb565b60010154841461128d5761128d8461150f565b6112956114eb565b6002015483146112a8576112a883611583565b6112b06114eb565b5482146112c0576112c082611662565b6112c86114eb565b600301548114610d1a57610d1a8161172a565b6000806112e6610d3c565b905060005b815181101561134b5761131682828151811061130957611309611b87565b60200260200101516117f8565b6001600160a01b0316846001600160a01b03161415611339575060019392505050565b8061134381611c20565b9150506112eb565b5060009392505050565b60006110b38383611874565b60008061136d83610e2c565b9050600061137d84600080610eb1565b61138685611012565b6113909190611b58565b90508061139e575092915050565b6127106113a96114d8565b6113b39083611ca6565b6113bd9190611cc5565b82111561134b576127106113cf6114d8565b6113d99083611ca6565b6113e561271085611ca6565b6113ef9190611b70565b61038e9190611cc5565b60006110b38383611967565b60008061141185610e2c565b90506000611420868686610eb1565b61142987611012565b6114339190611b58565b90508115611452578161144861271083611ca6565b6111139190611cc5565b50509392505050565b60006114786e10dbdb1b185d195c985b15985d5b1d608a1b6117f8565b905090565b6000610478825490565b60006110b383836119b6565b60006114787121bab93932b731bca1b7b73a3937b63632b960711b6117f8565b6000611478762632b73234b733a6b0b935b2ba21b7b73a3937b63632b960491b6117f8565b60006114e26114eb565b60010154905090565b7f1aaabb4945989eb9ee8150fddc35fcfc125664a7b898aa2de5931bb12484d05290565b6000811161152f5760405162461bcd60e51b81526004016103ff90611ce7565b7f31ee2d7ab5f3365672e54f81f75b37a4d8b0f1085872bdb80349a1cb08ddb7116115586114eb565b6001015460408051918252602082018490520160405180910390a18061157c6114eb565b6001015550565b600081116115a35760405162461bcd60e51b81526004016103ff90611ce7565b6115ab6114eb565b60010154811061160e5760405162461bcd60e51b815260206004820152602860248201527f4175746f206c69717569646174696f6e207468726573686f6c642072617465206044820152676f766572666c6f7760c01b60648201526084016103ff565b7fd3353684d64f1c80498433d8407c96e6bbeb1ec88b6200ec97d2c910fdbd0da46116376114eb565b6002015460408051918252602082018490520160405180910390a18061165b6114eb565b6002015550565b600081116116825760405162461bcd60e51b81526004016103ff90611ce7565b61168a6114eb565b6002015481106116dc5760405162461bcd60e51b815260206004820152601f60248201527f4c69717569646174696f6e2070726963652072617465206f766572666c6f770060448201526064016103ff565b7f86aa422ec6af9520cb2f744924b12937e3db1aa5ce22050d0d519621e84090706117056114eb565b5460408051918252602082018490520160405180910390a1806117266114eb565b5550565b6000811161174a5760405162461bcd60e51b81526004016103ff90611ce7565b6117526114eb565b6002015481106117a45760405162461bcd60e51b815260206004820152601c60248201527f4d696e20636f6c6c61746572616c2072617465206f766572666c6f770000000060448201526064016103ff565b7f8367b1759e8fdce5712002e7aa025339b99cf3c850b194ebdf37219f86b01ee66117cd6114eb565b6003015460408051918252602082018490520160405180910390a1806117f16114eb565b6003015550565b600081815260016020908152604080832054905170026b4b9b9b4b7339030b2323932b9b99d1607d1b92810192909252603182018490526001600160a01b031690811515906051016040516020818303038152906040529061186d5760405162461bcd60e51b81526004016103ff9190611d0d565b5092915050565b6000818152600183016020526040812054801561195d576000611898600183611b70565b85549091506000906118ac90600190611b70565b90508181146119115760008660000182815481106118cc576118cc611b87565b90600052602060002001549050808760000184815481106118ef576118ef611b87565b6000918252602080832090910192909255918252600188019052604090208390555b855486908061192257611922611d20565b600190038181906000526020600020016000905590558560010160008681526020019081526020016000206000905560019350505050610478565b6000915050610478565b60008181526001830160205260408120546119ae57508154600181810184556000848152602080822090930184905584548482528286019093526040902091909155610478565b506000610478565b60008260000182815481106119cd576119cd611b87565b9060005260206000200154905092915050565b6001600160a01b0381168114610e2957600080fd5b600060208284031215611a0757600080fd5b81356110b3816119e0565b6020808252825182820181905260009190848201906040850190845b81811015611a4a57835183529284019291840191600101611a2e565b50909695505050505050565b60008060408385031215611a6957600080fd5b8235611a74816119e0565b946020939093013593505050565b60008060008060008060c08789031215611a9b57600080fd5b8635611aa6816119e0565b95506020870135611ab6816119e0565b95989597505050506040840135936060810135936080820135935060a0909101359150565b600080600060608486031215611af057600080fd5b8335611afb816119e0565b95602085013595506040909401359392505050565b60008060008060808587031215611b2657600080fd5b5050823594602084013594506040840135936060013592509050565b634e487b7160e01b600052601160045260246000fd5b60008219821115611b6b57611b6b611b42565b500190565b600082821015611b8257611b82611b42565b500390565b634e487b7160e01b600052603260045260246000fd5b6000815180845260005b81811015611bc357602081850181015186830182015201611ba7565b81811115611bd5576000602083870101525b50601f01601f19169290920160200192915050565b82815260406020820152600061038e6040830184611b9d565b600060208284031215611c1557600080fd5b81516110b3816119e0565b6000600019821415611c3457611c34611b42565b5060010190565b6020808252818101527f4f776e61626c653a2063616c6c6572206973206e6f7420746865206f776e6572604082015260600190565b600060208284031215611c8257600080fd5b5051919050565b6000600160ff1b821415611c9f57611c9f611b42565b5060000390565b6000816000190483118215151615611cc057611cc0611b42565b500290565b600082611ce257634e487b7160e01b600052601260045260246000fd5b500490565b6020808252600c908201526b52617465206973207a65726f60a01b604082015260600190565b6020815260006110b36020830184611b9d565b634e487b7160e01b600052603160045260246000fdfe747d407d1d7f7c17ec532d202f3588c3ef20935de503a75a59a836e49167b5fea26469706673582212205f290cefc1c10919ec9b5b87767297275c66ea983c88f79d2af1595679001e2c64736f6c63430008090033",
  "implementation": "0x3972e15e8FAF2414D74e650dC01c7251987f3402",
  "devdoc": {
    "details": "The deposited amount is managed in the CollateralVault contract now. It will be merged to this contract in the future.",
    "kind": "dev",
    "methods": {
      "acceptedContracts()": {
        "details": "The contact name listed in this method is also needed to be listed `requiredContracts` method."
      },
      "getCollateralParameters()": {
        "returns": {
          "autoLiquidationThresholdRate": " The rate used as the auto liquidation threshold",
          "liquidationPriceRate": "The rate used as the liquidation price",
          "marginCallThresholdRate": "The rate used as the margin call threshold",
          "minCollateralRate": "The rate used minima collateral"
        }
      },
      "getCoverage(address)": {
        "params": {
          "_user": "User's address"
        },
        "returns": {
          "_0": "The rate of collateral used"
        }
      },
      "getTotalUnsettledExposure(address)": {
        "params": {
          "_user": "User's address"
        },
        "returns": {
          "_0": "Total unsettled exposure"
        }
      },
      "getUnsettledCollateral(address,bytes32)": {
        "params": {
          "_ccy": "Currency name in bytes32",
          "_user": "User's address"
        },
        "returns": {
          "_0": "Unsettled exposure"
        }
      },
      "getUnusedCollateral(address)": {
        "params": {
          "_user": "User's address"
        },
        "returns": {
          "_0": "The total amount of unused collateral"
        }
      },
      "getWithdrawableCollateral(address)": {
        "params": {
          "_user": "User's address"
        },
        "returns": {
          "_0": "Maximum amount of ETH that can be withdrawn"
        }
      },
      "initialize(address,address,uint256,uint256,uint256,uint256)": {
        "details": "Function is invoked by the proxy contract when the contract is added to the ProxyController.",
        "params": {
          "_autoLiquidationThresholdRate": "The rate used as the auto liquidation threshold",
          "_liquidationPriceRate": "The rate used as the liquidation price",
          "_marginCallThresholdRate": "The rate used as the margin call threshold",
          "_minCollateralRate": "The rate used minima collateral",
          "_owner": "The address of the contract owner",
          "_resolver": "The address of the Address Resolver contract"
        }
      },
      "isCovered(address)": {
        "params": {
          "_user": "User's address"
        },
        "returns": {
          "_0": "The boolean if the collateral has sufficient coverage or not"
        }
      },
      "isRegisteredUser(address)": {
        "params": {
          "_user": "User's address"
        },
        "returns": {
          "_0": "The boolean if the user is registered or not"
        }
      },
      "owner()": {
        "details": "Returns the address of the current owner."
      },
      "releaseUnsettledCollateral(address,bytes32,uint256)": {
        "params": {
          "_amount": "Amount of funds to be unlocked from unsettled exposure in a specified currency",
          "_ccy": "Currency name in bytes32",
          "_user": "User's address"
        }
      },
      "renounceOwnership()": {
        "details": "Leaves the contract without owner. It will not be possible to call `onlyOwner` functions anymore. Can only be called by the current owner. NOTE: Renouncing ownership will leave the contract without an owner, thereby removing any functionality that is only available to the owner."
      },
      "requiredContracts()": {
        "details": "The contract name list is in `./libraries/Contracts.sol`."
      },
      "setCollateralParameters(uint256,uint256,uint256,uint256)": {
        "params": {
          "_autoLiquidationThresholdRate": "Auto liquidation threshold rate",
          "_liquidationPriceRate": "Liquidation price rate",
          "_marginCallThresholdRate": "Margin call threshold ratio",
          "_minCollateralRate": "Minimal collateral rate"
        }
      },
      "transferOwnership(address)": {
        "details": "Transfers ownership of the contract to a new account (`newOwner`). Can only be called by the current owner."
      },
      "useUnsettledCollateral(address,bytes32,uint256)": {
        "params": {
          "_amount": "Amount of funds to be locked in a specified currency",
          "_ccy": "Currency name in bytes32",
          "_user": "User's address"
        }
      }
    },
    "version": 1
  },
  "userdoc": {
    "kind": "user",
    "methods": {
      "acceptedContracts()": {
        "notice": "Returns contract names that can call this contract."
      },
      "getCollateralParameters()": {
        "notice": "Gets parameters related to collateral."
      },
      "getCoverage(address)": {
        "notice": "Gets the rate of collateral used."
      },
      "getTotalUnsettledExposure(address)": {
        "notice": "Gets total unsettled exposure in all currencies."
      },
      "getUnsettledCollateral(address,bytes32)": {
        "notice": "Gets unsettled exposure for the selected currency"
      },
      "getUnusedCollateral(address)": {
        "notice": "Gets the total amount of unused collateral"
      },
      "getWithdrawableCollateral(address)": {
        "notice": "Gets the maximum amount of ETH that can be withdrawn from user collateral."
      },
      "initialize(address,address,uint256,uint256,uint256,uint256)": {
        "notice": "Initializes the contract."
      },
      "isCovered(address)": {
        "notice": "Gets if the collateral has enough coverage."
      },
      "isRegisteredUser(address)": {
        "notice": "Gets if the user is registered."
      },
      "register()": {
        "notice": "Register user."
      },
      "releaseUnsettledCollateral(address,bytes32,uint256)": {
        "notice": "Releases the amount of unsettled exposure for the selected currency."
      },
      "requiredContracts()": {
        "notice": "Returns the contract names used in this contract."
      },
      "setCollateralParameters(uint256,uint256,uint256,uint256)": {
        "notice": "Sets main collateral parameters this function solves the issue of frontrunning during parameters tuning.Triggers only be contract owner"
      },
      "useUnsettledCollateral(address,bytes32,uint256)": {
        "notice": "Locks unsettled collateral for the selected currency."
      }
    },
    "notice": "Implements the management of the collateral in each currency for users. This contract manages the following data related to the collateral. - Deposited amount as the collateral - Unsettled collateral amount used by order - Parameters related to the collateral   - Margin Call Threshold Rate   - Auto Liquidation Threshold Rate   - Liquidation Price Rate   - Min Collateral Rate",
    "version": 1
  },
  "storageLayout": {
    "storage": [
      {
        "astId": 15191,
        "contract": "contracts/CollateralAggregator.sol:CollateralAggregator",
        "label": "resolver",
        "offset": 0,
        "slot": "0",
        "type": "t_contract(IAddressResolver)8543"
      },
      {
        "astId": 15195,
        "contract": "contracts/CollateralAggregator.sol:CollateralAggregator",
        "label": "addressCache",
        "offset": 0,
        "slot": "1",
        "type": "t_mapping(t_bytes32,t_address)"
      },
      {
        "astId": 790,
        "contract": "contracts/CollateralAggregator.sol:CollateralAggregator",
        "label": "_initialized",
        "offset": 0,
        "slot": "2",
        "type": "t_uint8"
      },
      {
        "astId": 793,
        "contract": "contracts/CollateralAggregator.sol:CollateralAggregator",
        "label": "_initializing",
        "offset": 1,
        "slot": "2",
        "type": "t_bool"
      }
    ],
    "types": {
      "t_address": {
        "encoding": "inplace",
        "label": "address",
        "numberOfBytes": "20"
      },
      "t_bool": {
        "encoding": "inplace",
        "label": "bool",
        "numberOfBytes": "1"
      },
      "t_bytes32": {
        "encoding": "inplace",
        "label": "bytes32",
        "numberOfBytes": "32"
      },
      "t_contract(IAddressResolver)8543": {
        "encoding": "inplace",
        "label": "contract IAddressResolver",
        "numberOfBytes": "20"
      },
      "t_mapping(t_bytes32,t_address)": {
        "encoding": "mapping",
        "key": "t_bytes32",
        "label": "mapping(bytes32 => address)",
        "numberOfBytes": "32",
        "value": "t_address"
      },
      "t_uint8": {
        "encoding": "inplace",
        "label": "uint8",
        "numberOfBytes": "1"
      }
    }
  }
}