{
  "address": "0x1eF9c30DFF91e6ed78902563274bF5a3BD21E327",
  "abi": [
    {
      "anonymous": false,
      "inputs": [
        {
          "indexed": false,
          "internalType": "bytes32",
          "name": "name",
          "type": "bytes32"
        },
        {
          "indexed": false,
          "internalType": "address",
          "name": "destination",
          "type": "address"
        }
      ],
      "name": "CacheUpdated",
      "type": "event"
    },
    {
      "anonymous": false,
      "inputs": [
        {
          "indexed": false,
          "internalType": "bytes32",
          "name": "ccy",
          "type": "bytes32"
        },
        {
          "indexed": false,
          "internalType": "address",
          "name": "tokenAddress",
          "type": "address"
        }
      ],
      "name": "CurrencyRegistered",
      "type": "event"
    },
    {
      "anonymous": false,
      "inputs": [
        {
          "indexed": false,
          "internalType": "address",
          "name": "user",
          "type": "address"
        },
        {
          "indexed": false,
          "internalType": "bytes32",
          "name": "ccy",
          "type": "bytes32"
        },
        {
          "indexed": false,
          "internalType": "uint256",
          "name": "amount",
          "type": "uint256"
        }
      ],
      "name": "Deposit",
      "type": "event"
    },
    {
      "anonymous": false,
      "inputs": [
        {
          "indexed": false,
          "internalType": "uint8",
          "name": "version",
          "type": "uint8"
        }
      ],
      "name": "Initialized",
      "type": "event"
    },
    {
      "anonymous": false,
      "inputs": [
        {
          "indexed": true,
          "internalType": "address",
          "name": "previousOwner",
          "type": "address"
        },
        {
          "indexed": true,
          "internalType": "address",
          "name": "newOwner",
          "type": "address"
        }
      ],
      "name": "OwnershipTransferred",
      "type": "event"
    },
    {
      "anonymous": false,
      "inputs": [
        {
          "indexed": false,
          "internalType": "address",
          "name": "from",
          "type": "address"
        },
        {
          "indexed": false,
          "internalType": "bytes32",
          "name": "ccy",
          "type": "bytes32"
        },
        {
          "indexed": false,
          "internalType": "uint256",
          "name": "amount",
          "type": "uint256"
        }
      ],
      "name": "Withdraw",
      "type": "event"
    },
    {
      "inputs": [],
      "name": "WETH9",
      "outputs": [
        {
          "internalType": "address",
          "name": "",
          "type": "address"
        }
      ],
      "stateMutability": "view",
      "type": "function"
    },
    {
      "inputs": [],
      "name": "acceptedContracts",
      "outputs": [
        {
          "internalType": "bytes32[]",
          "name": "contracts",
          "type": "bytes32[]"
        }
      ],
      "stateMutability": "pure",
      "type": "function"
    },
    {
      "inputs": [],
      "name": "buildCache",
      "outputs": [],
      "stateMutability": "nonpayable",
      "type": "function"
    },
    {
      "inputs": [
        {
          "internalType": "bytes32",
          "name": "_ccy",
          "type": "bytes32"
        },
        {
          "internalType": "uint256",
          "name": "_amount",
          "type": "uint256"
        }
      ],
      "name": "deposit",
      "outputs": [],
      "stateMutability": "payable",
      "type": "function"
    },
    {
      "inputs": [
        {
          "internalType": "address",
          "name": "_user",
          "type": "address"
        },
        {
          "internalType": "bytes32",
          "name": "_ccy",
          "type": "bytes32"
        }
      ],
      "name": "getIndependentCollateral",
      "outputs": [
        {
          "internalType": "uint256",
          "name": "",
          "type": "uint256"
        }
      ],
      "stateMutability": "view",
      "type": "function"
    },
    {
      "inputs": [
        {
          "internalType": "address",
          "name": "_user",
          "type": "address"
        },
        {
          "internalType": "bytes32",
          "name": "_ccy",
          "type": "bytes32"
        }
      ],
      "name": "getIndependentCollateralInETH",
      "outputs": [
        {
          "internalType": "uint256",
          "name": "",
          "type": "uint256"
        }
      ],
      "stateMutability": "view",
      "type": "function"
    },
    {
      "inputs": [
        {
          "internalType": "address",
          "name": "_user",
          "type": "address"
        }
      ],
      "name": "getTotalIndependentCollateralInETH",
      "outputs": [
        {
          "internalType": "uint256",
          "name": "",
          "type": "uint256"
        }
      ],
      "stateMutability": "view",
      "type": "function"
    },
    {
      "inputs": [
        {
          "internalType": "address",
          "name": "_user",
          "type": "address"
        }
      ],
      "name": "getUsedCurrencies",
      "outputs": [
        {
          "internalType": "bytes32[]",
          "name": "",
          "type": "bytes32[]"
        }
      ],
      "stateMutability": "view",
      "type": "function"
    },
    {
      "inputs": [
        {
          "internalType": "address",
          "name": "_owner",
          "type": "address"
        },
        {
          "internalType": "address",
          "name": "_resolver",
          "type": "address"
        },
        {
          "internalType": "address",
          "name": "_WETH9",
          "type": "address"
        }
      ],
      "name": "initialize",
      "outputs": [],
      "stateMutability": "nonpayable",
      "type": "function"
    },
    {
      "inputs": [],
      "name": "isResolverCached",
      "outputs": [
        {
          "internalType": "bool",
          "name": "",
          "type": "bool"
        }
      ],
      "stateMutability": "view",
      "type": "function"
    },
    {
      "inputs": [],
      "name": "owner",
      "outputs": [
        {
          "internalType": "address",
          "name": "",
          "type": "address"
        }
      ],
      "stateMutability": "view",
      "type": "function"
    },
    {
      "inputs": [
        {
          "internalType": "bytes32",
          "name": "_ccy",
          "type": "bytes32"
        },
        {
          "internalType": "address",
          "name": "_tokenAddress",
          "type": "address"
        }
      ],
      "name": "registerCurrency",
      "outputs": [],
      "stateMutability": "nonpayable",
      "type": "function"
    },
    {
      "inputs": [],
      "name": "renounceOwnership",
      "outputs": [],
      "stateMutability": "nonpayable",
      "type": "function"
    },
    {
      "inputs": [],
      "name": "requiredContracts",
      "outputs": [
        {
          "internalType": "bytes32[]",
          "name": "contracts",
          "type": "bytes32[]"
        }
      ],
      "stateMutability": "pure",
      "type": "function"
    },
    {
      "inputs": [],
      "name": "resolver",
      "outputs": [
        {
          "internalType": "contract IAddressResolver",
          "name": "",
          "type": "address"
        }
      ],
      "stateMutability": "view",
      "type": "function"
    },
    {
      "inputs": [
        {
          "internalType": "address",
          "name": "newOwner",
          "type": "address"
        }
      ],
      "name": "transferOwnership",
      "outputs": [],
      "stateMutability": "nonpayable",
      "type": "function"
    },
    {
      "inputs": [
        {
          "internalType": "bytes32",
          "name": "_ccy",
          "type": "bytes32"
        },
        {
          "internalType": "uint256",
          "name": "_amount",
          "type": "uint256"
        }
      ],
      "name": "withdraw",
      "outputs": [],
      "stateMutability": "nonpayable",
      "type": "function"
    },
    {
      "stateMutability": "payable",
      "type": "receive"
    }
  ],
  "transactionHash": "0x802d38125a5e0b7227adf2deaca0a455c2f47b3b4586f1f5d77b7e10002158cc",
  "args": [],
  "numDeployments": 4,
  "solcInputHash": "ffb1032f3699f9d3ed44e5ac1e696f7c",
  "bytecode": "0x608060405234801561001057600080fd5b5061201f806100206000396000f3fe6080604052600436106101025760003560e01c8063715018a611610095578063c0c53b8b11610064578063c0c53b8b146102dd578063d2a19b3e146102fd578063e09976591461031d578063f2fde38b14610331578063fc7008101461035157600080fd5b8063715018a61461027357806378f46b03146102885780638da5cb5b146102a857806394911709146102bd57600080fd5b80632af64bd3116100d15780632af64bd3146101de5780633d03b9da146102035780634aa4a4fc146102255780636515aae91461024557600080fd5b8063040cf0201461015957806304f3bcec146101795780631de26e16146101b657806329985e5a146101c957600080fd5b36610154576002546001600160a01b031633146101525760405162461bcd60e51b81526020600482015260096024820152684e6f7420574554483960b81b60448201526064015b60405180910390fd5b005b600080fd5b34801561016557600080fd5b50610152610174366004611c37565b610371565b34801561018557600080fd5b50600054610199906001600160a01b031681565b6040516001600160a01b0390911681526020015b60405180910390f35b6101526101c4366004611c37565b610661565b3480156101d557600080fd5b5061015261087f565b3480156101ea57600080fd5b506101f3610a12565b60405190151581526020016101ad565b34801561020f57600080fd5b50610218610b30565b6040516101ad9190611c59565b34801561023157600080fd5b50600254610199906001600160a01b031681565b34801561025157600080fd5b50610265610260366004611cb2565b610bbf565b6040519081526020016101ad565b34801561027f57600080fd5b50610152610bf7565b34801561029457600080fd5b506102656102a3366004611cb2565b610c32565b3480156102b457600080fd5b50610199610cd2565b3480156102c957600080fd5b506102656102d8366004611cde565b610d05565b3480156102e957600080fd5b506101526102f8366004611cfb565b610d88565b34801561030957600080fd5b50610152610318366004611d46565b610f36565b34801561032957600080fd5b506060610218565b34801561033d57600080fd5b5061015261034c366004611cde565b61109e565b34801561035d57600080fd5b5061021861036c366004611cde565b61113e565b61037961120b565b604051631f5bdf5d60e01b81523360048201526001600160a01b039190911690631f5bdf5d9060240160206040518083038186803b1580156103ba57600080fd5b505afa1580156103ce573d6000803e3d6000fd5b505050506040513d601f19601f820116820180604052508101906103f29190611d76565b6104345760405162461bcd60e51b8152602060048201526013602482015272155cd95c881b9bdd081c9959da5cdd195c9959606a1b6044820152606401610149565b600081116104755760405162461bcd60e51b815260206004820152600e60248201526d125b9d985b1a5908185b5bdd5b9d60921b6044820152606401610149565b33600061048061120b565b60405163948060dd60e01b81526001600160a01b038481166004830152919091169063948060dd9060240160206040518083038186803b1580156104c357600080fd5b505afa1580156104d7573d6000803e3d6000fd5b505050506040513d601f19601f820116820180604052508101906104fb9190611d98565b90506000610507611232565b6040516306d062ad60e01b815260048101879052602481018490526001600160a01b0391909116906306d062ad9060440160206040518083038186803b15801561055057600080fd5b505afa158015610564573d6000803e3d6000fd5b505050506040513d601f19601f820116820180604052508101906105889190611d98565b90506000818511610599578461059b565b815b6001600160a01b0385166000908152600080516020611f8a833981519152602090815260408083208a845290915290208054919250906105dc908390611dc7565b81556000878152600080516020611faa833981519152602052604090205461060e906001600160a01b03163384611252565b61061787611282565b60408051338152602081018990529081018390527fc3ded2be7db21b1af963f267d27750e4a15f174547d88b886b9bda43e2c6fa329060600160405180910390a150505050505050565b61066961120b565b604051631f5bdf5d60e01b81523360048201526001600160a01b039190911690631f5bdf5d9060240160206040518083038186803b1580156106aa57600080fd5b505afa1580156106be573d6000803e3d6000fd5b505050506040513d601f19601f820116820180604052508101906106e29190611d76565b6107245760405162461bcd60e51b8152602060048201526013602482015272155cd95c881b9bdd081c9959da5cdd195c9959606a1b6044820152606401610149565b6000828152600080516020611faa83398151915260205260409020546001600160a01b03166107885760405162461bcd60e51b815260206004820152601060248201526f496e76616c69642063757272656e637960801b6044820152606401610149565b600081116107c95760405162461bcd60e51b815260206004820152600e60248201526d125b9d985b1a5908185b5bdd5b9d60921b6044820152606401610149565b6000828152600080516020611faa83398151915260205260409020546107fa906001600160a01b0316333084611331565b336000908152600080516020611f8a833981519152602090815260408083208584529091529020805461082e908390611dde565b815561083983611282565b60408051338152602081018590529081018390527f19dacbf83c5de6658e14cbf7bcae5c15eca2eedecf1c66fbca928e4d351bea0f9060600160405180910390a1505050565b6000610889610b30565b905060005b8151811015610a0e5760008282815181106108ab576108ab611df6565b6020026020010151905060008060009054906101000a90046001600160a01b03166001600160a01b0316636795dbcd838460405160200161091891907f5265736f6c766572206d697373696e67207461726765743a20000000000000008152601981019190915260390190565b6040516020818303038152906040526040518363ffffffff1660e01b8152600401610944929190611e64565b60206040518083038186803b15801561095c57600080fd5b505afa158015610970573d6000803e3d6000fd5b505050506040513d601f19601f820116820180604052508101906109949190611e7d565b60008381526001602090815260409182902080546001600160a01b0319166001600160a01b0385169081179091558251868152918201529192507f88a93678a3692f6789d9546fc621bf7234b101ddb7d4fe479455112831b8aa68910160405180910390a150508080610a0690611e9a565b91505061088e565b5050565b600080610a1d610b30565b905060005b8151811015610b27576000828281518110610a3f57610a3f611df6565b60209081029190910181015160008181526001909252604080832054925490516321f8a72160e01b8152600481018390529193506001600160a01b039283169216906321f8a7219060240160206040518083038186803b158015610aa257600080fd5b505afa158015610ab6573d6000803e3d6000fd5b505050506040513d601f19601f82011682018060405250810190610ada9190611e7d565b6001600160a01b0316141580610b0557506000818152600160205260409020546001600160a01b0316155b15610b14576000935050505090565b5080610b1f81611e9a565b915050610a22565b50600191505090565b60408051600280825260608083018452926020830190803683370190505090507321b7b63630ba32b930b620b3b3b932b3b0ba37b960611b81600081518110610b7b57610b7b611df6565b6020026020010181815250507121bab93932b731bca1b7b73a3937b63632b960711b81600181518110610bb057610bb0611df6565b60200260200101818152505090565b6001600160a01b0382166000908152600080516020611f8a833981519152602090815260408083208484529091529020545b92915050565b33610c00610cd2565b6001600160a01b031614610c265760405162461bcd60e51b815260040161014990611ecb565b610c30600061138a565b565b600080610c3f8484610bbf565b9050610c49611232565b6040516344a6ecdd60e01b815260048101859052602481018390526001600160a01b0391909116906344a6ecdd9060440160206040518083038186803b158015610c9257600080fd5b505afa158015610ca6573d6000803e3d6000fd5b505050506040513d601f19601f82011682018060405250810190610cca9190611d98565b949350505050565b60007f9acda75aebd150dd434541a4747a6dc606f4f1a59662477e67daf1fc0bf9e0aa5b546001600160a01b0316919050565b6001600160a01b0381166000908152600080516020611fca83398151915260205260408120818080610d36846113fb565b905060005b81811015610d7d576000610d4f8683611405565b9050610d5b8882610c32565b9450610d678585611dde565b9350508080610d7590611e9a565b915050610d3b565b509095945050505050565b600254600160a81b900460ff1615808015610db057506002546001600160a01b90910460ff16105b80610dd15750303b158015610dd15750600254600160a01b900460ff166001145b610e345760405162461bcd60e51b815260206004820152602e60248201527f496e697469616c697a61626c653a20636f6e747261637420697320616c72656160448201526d191e481a5b9a5d1a585b1a5e995960921b6064820152608401610149565b6002805460ff60a01b1916600160a01b1790558015610e61576002805460ff60a81b1916600160a81b1790555b6000610e6b611418565b6001600160a01b03161415610ecd5760405162461bcd60e51b815260206004820152602260248201527f4d7573742062652063616c6c65642066726f6d2070726f787920636f6e74726160448201526118dd60f21b6064820152608401610149565b610ed68461138a565b610edf83611440565b610ee8826114bb565b8015610f30576002805460ff60a81b19169055604051600181527f7f26b83ff96e1f2b6a682f133852f6798a09c465da95921460cefb38474024989060200160405180910390a15b50505050565b33610f3f610cd2565b6001600160a01b031614610f655760405162461bcd60e51b815260040161014990611ecb565b610f6d611232565b6001600160a01b0316635d95df8a836040518263ffffffff1660e01b8152600401610f9a91815260200190565b60206040518083038186803b158015610fb257600080fd5b505afa158015610fc6573d6000803e3d6000fd5b505050506040513d601f19601f82011682018060405250810190610fea9190611d76565b6110295760405162461bcd60e51b815260206004820152601060248201526f496e76616c69642063757272656e637960801b6044820152606401610149565b6000828152600080516020611faa833981519152602090815260409182902080546001600160a01b0319166001600160a01b03851690811790915582518581529182015281517f2fe2c48bc79b8185433d1932041ab19e591d41c83d319835ea1c5bb357428790929181900390910190a15050565b336110a7610cd2565b6001600160a01b0316146110cd5760405162461bcd60e51b815260040161014990611ecb565b6001600160a01b0381166111325760405162461bcd60e51b815260206004820152602660248201527f4f776e61626c653a206e6577206f776e657220697320746865207a65726f206160448201526564647265737360d01b6064820152608401610149565b61113b8161138a565b50565b6001600160a01b0381166000908152600080516020611fca8339815191526020526040812060609161116f826113fb565b905060008167ffffffffffffffff81111561118c5761118c611eb5565b6040519080825280602002602001820160405280156111b5578160200160208202803683370190505b50905060005b828110156112025760006111cf8583611405565b9050808383815181106111e4576111e4611df6565b602090810291909101015250806111fa81611e9a565b9150506111bb565b50949350505050565b600061122d7321b7b63630ba32b930b620b3b3b932b3b0ba37b960611b611536565b905090565b600061122d7121bab93932b731bca1b7b73a3937b63632b960711b611536565b6002546001600160a01b03848116911614156112775761127282826115b2565b505050565b6112728383836116e3565b336000908152600080516020611f8a833981519152602090815260408083208484529091529020541515806112e05750336000908152600080516020611f8a8339815191526020908152604080832084845290915290206001015415155b1561130b57336000908152600080516020611fca83398151915260205260409020610a0e90826117d7565b336000908152600080516020611fca83398151915260205260409020610a0e90826117e3565b6002546001600160a01b03858116911614801561134e5750804710155b156113625761135d82826117ef565b610f30565b6001600160a01b03821630141561137e5761135d8484836118d8565b610f308484848461190e565b7f9acda75aebd150dd434541a4747a6dc606f4f1a59662477e67daf1fc0bf9e0aa80546001600160a01b038381166001600160a01b0319831681179093556040519116919082907f8be0079c531659141344cd1fd0a4f28419497f9722a3daafe3b4186f6b6457e090600090a35050565b6000610bf1825490565b60006114118383611a02565b9392505050565b60007f360894a13ba1a3210667c828492db98dca3e2076cc3735a920a3ca505d382bbc610cf6565b6000546001600160a01b0316156114995760405162461bcd60e51b815260206004820152601b60248201527f7265736f6c766572207265676973746572656420616c726561647900000000006044820152606401610149565b600080546001600160a01b0319166001600160a01b0392909216919091179055565b6002546001600160a01b0316156115145760405162461bcd60e51b815260206004820152601860248201527f5745544839207265676973746572656420616c726561647900000000000000006044820152606401610149565b600280546001600160a01b0319166001600160a01b0392909216919091179055565b600081815260016020908152604080832054905170026b4b9b9b4b7339030b2323932b9b99d1607d1b92810192909252603182018490526001600160a01b03169081151590605101604051602081830303815290604052906115ab5760405162461bcd60e51b81526004016101499190611f00565b5092915050565b6002546040516370a0823160e01b81523060048201526000916001600160a01b0316906370a082319060240160206040518083038186803b1580156115f657600080fd5b505afa15801561160a573d6000803e3d6000fd5b505050506040513d601f19601f8201168201806040525081019061162e9190611d98565b9050818110156116755760405162461bcd60e51b8152602060048201526012602482015271496e73756666696369656e7420574554483960701b6044820152606401610149565b801561127257600254604051632e1a7d4d60e01b8152600481018490526001600160a01b0390911690632e1a7d4d90602401600060405180830381600087803b1580156116c157600080fd5b505af11580156116d5573d6000803e3d6000fd5b505050506112728383611a2c565b6040516001600160a01b03838116602483015260448201839052600091829186169063a9059cbb906064015b6040516020818303038152906040529060e01b6020820180516001600160e01b0383818316178352505050506040516117489190611f13565b6000604051808303816000865af19150503d8060008114611785576040519150601f19603f3d011682016040523d82523d6000602084013e61178a565b606091505b50915091508180156117b45750805115806117b45750808060200190518101906117b49190611d76565b6117d05760405162461bcd60e51b815260040161014990611f2f565b5050505050565b60006114118383611af5565b60006114118383611b44565b5060025460408051630d0e30db60e41b8152905134926001600160a01b03169163d0e30db091849160048082019260009290919082900301818588803b15801561183857600080fd5b505af115801561184c573d6000803e3d6000fd5b505060025460405163a9059cbb60e01b81526001600160a01b03878116600483015260248201879052909116935063a9059cbb92506044019050602060405180830381600087803b1580156118a057600080fd5b505af11580156118b4573d6000803e3d6000fd5b505050506040513d601f19601f820116820180604052508101906112729190611d76565b6040516001600160a01b0383811660248301523060448301526064820183905260009182918616906323b872dd9060840161170f565b604080516001600160a01b0385811660248301528481166044830152606480830185905283518084039091018152608490920183526020820180516001600160e01b03166323b872dd60e01b17905291516000928392908816916119729190611f13565b6000604051808303816000865af19150503d80600081146119af576040519150601f19603f3d011682016040523d82523d6000602084013e6119b4565b606091505b50915091508180156119de5750805115806119de5750808060200190518101906119de9190611d76565b6119fa5760405162461bcd60e51b815260040161014990611f2f565b505050505050565b6000826000018281548110611a1957611a19611df6565b9060005260206000200154905092915050565b604080516000808252602082019092526001600160a01b038416908390604051611a569190611f13565b60006040518083038185875af1925050503d8060008114611a93576040519150601f19603f3d011682016040523d82523d6000602084013e611a98565b606091505b50509050806112725760405162461bcd60e51b815260206004820152602360248201527f5472616e7366657248656c7065723a204554485f5452414e534645525f46414960448201526213115160ea1b6064820152608401610149565b6000818152600183016020526040812054611b3c57508154600181810184556000848152602080822090930184905584548482528286019093526040902091909155610bf1565b506000610bf1565b60008181526001830160205260408120548015611c2d576000611b68600183611dc7565b8554909150600090611b7c90600190611dc7565b9050818114611be1576000866000018281548110611b9c57611b9c611df6565b9060005260206000200154905080876000018481548110611bbf57611bbf611df6565b6000918252602080832090910192909255918252600188019052604090208390555b8554869080611bf257611bf2611f73565b600190038181906000526020600020016000905590558560010160008681526020019081526020016000206000905560019350505050610bf1565b6000915050610bf1565b60008060408385031215611c4a57600080fd5b50508035926020909101359150565b6020808252825182820181905260009190848201906040850190845b81811015611c9157835183529284019291840191600101611c75565b50909695505050505050565b6001600160a01b038116811461113b57600080fd5b60008060408385031215611cc557600080fd5b8235611cd081611c9d565b946020939093013593505050565b600060208284031215611cf057600080fd5b813561141181611c9d565b600080600060608486031215611d1057600080fd5b8335611d1b81611c9d565b92506020840135611d2b81611c9d565b91506040840135611d3b81611c9d565b809150509250925092565b60008060408385031215611d5957600080fd5b823591506020830135611d6b81611c9d565b809150509250929050565b600060208284031215611d8857600080fd5b8151801515811461141157600080fd5b600060208284031215611daa57600080fd5b5051919050565b634e487b7160e01b600052601160045260246000fd5b600082821015611dd957611dd9611db1565b500390565b60008219821115611df157611df1611db1565b500190565b634e487b7160e01b600052603260045260246000fd5b60005b83811015611e27578181015183820152602001611e0f565b83811115610f305750506000910152565b60008151808452611e50816020860160208601611e0c565b601f01601f19169290920160200192915050565b828152604060208201526000610cca6040830184611e38565b600060208284031215611e8f57600080fd5b815161141181611c9d565b6000600019821415611eae57611eae611db1565b5060010190565b634e487b7160e01b600052604160045260246000fd5b6020808252818101527f4f776e61626c653a2063616c6c6572206973206e6f7420746865206f776e6572604082015260600190565b6020815260006114116020830184611e38565b60008251611f25818460208701611e0c565b9190910192915050565b60208082526024908201527f5472616e7366657248656c7065723a205452414e534645525f46524f4d5f46416040820152631253115160e21b606082015260800190565b634e487b7160e01b600052603160045260246000fdfef59ba7464b8fed71d0873eed14260d7bb876af6a7be79f5262ff247e62132045f59ba7464b8fed71d0873eed14260d7bb876af6a7be79f5262ff247e62132043f59ba7464b8fed71d0873eed14260d7bb876af6a7be79f5262ff247e62132044a26469706673582212202792b1b659d8a31614b83823608b661a2d67d5e3c4f07cd7d561f993c532444064736f6c63430008090033",
  "implementation": "0x7088A6422fAD32E285BeAd01246483cdbD16f498",
  "devdoc": {
    "details": "This contract has overlapping roles with `CollateralAggregator.sol`, so it will be merged with `CollateralAggregator.sol` in the future.",
    "kind": "dev",
    "methods": {
      "acceptedContracts()": {
        "details": "The contact name listed in this method is also needed to be listed `requiredContracts` method."
      },
      "deposit(bytes32,uint256)": {
        "details": "Deposits funds by the caller into collateral.",
        "params": {
          "_amount": "Amount of funds to deposit",
          "_ccy": "Currency name in bytes32"
        }
      },
      "getIndependentCollateral(address,bytes32)": {
        "params": {
          "_ccy": "Currency name in bytes32",
          "_user": "User's address"
        },
        "returns": {
          "_0": "The deposited amount"
        }
      },
      "getIndependentCollateralInETH(address,bytes32)": {
        "params": {
          "_ccy": "Specified currency",
          "_user": "User's address"
        },
        "returns": {
          "_0": "The deposited amount in ETH"
        }
      },
      "getTotalIndependentCollateralInETH(address)": {
        "params": {
          "_user": "Address of collateral user"
        },
        "returns": {
          "_0": "The total deposited amount in ETH"
        }
      },
      "getUsedCurrencies(address)": {
        "params": {
          "_user": "User's address"
        },
        "returns": {
          "_0": "The currency names in bytes32"
        }
      },
      "initialize(address,address,address)": {
        "details": "Function is invoked by the proxy contract when the contract is added to the ProxyController.",
        "params": {
          "_WETH9": "The address of WETH",
          "_owner": "The address of the contract owner",
          "_resolver": "The address of the Address Resolver contract"
        }
      },
      "owner()": {
        "details": "Returns the address of the current owner."
      },
      "renounceOwnership()": {
        "details": "Leaves the contract without owner. It will not be possible to call `onlyOwner` functions anymore. Can only be called by the current owner. NOTE: Renouncing ownership will leave the contract without an owner, thereby removing any functionality that is only available to the owner."
      },
      "requiredContracts()": {
        "details": "The contract name list is in `./libraries/Contracts.sol`."
      },
      "transferOwnership(address)": {
        "details": "Transfers ownership of the contract to a new account (`newOwner`). Can only be called by the current owner."
      },
      "withdraw(bytes32,uint256)": {
        "params": {
          "_amount": "Amount of funds to withdraw.",
          "_ccy": "Currency name in bytes32"
        }
      }
    },
    "version": 1
  },
  "userdoc": {
    "kind": "user",
    "methods": {
      "acceptedContracts()": {
        "notice": "Returns contract names that can call this contract."
      },
      "getIndependentCollateral(address,bytes32)": {
        "notice": "Gets the amount deposited in the user's collateral."
      },
      "getIndependentCollateralInETH(address,bytes32)": {
        "notice": "Gets the amount deposited in the user's collateral by converting it to ETH."
      },
      "getTotalIndependentCollateralInETH(address)": {
        "notice": "Gets the total amount deposited in the user's collateral in all currencies. by converting it to ETH."
      },
      "getUsedCurrencies(address)": {
        "notice": "Gets the currencies that the user used as collateral."
      },
      "initialize(address,address,address)": {
        "notice": "Initializes the contract."
      },
      "requiredContracts()": {
        "notice": "Returns the contract names used in this contract."
      },
      "withdraw(bytes32,uint256)": {
        "notice": "Withdraws funds by the caller from unused collateral."
      }
    },
    "notice": "Implements the management of the collateral in each currency for users. This contract allows users to deposit and withdraw various currencies as collateral. Currencies that can be used as collateral are registered in the following steps. 1. Call the `supportCurrency` method in `CurrencyController.sol`. 2. Call the `registerCurrency` method in this contract.",
    "version": 1
  },
  "storageLayout": {
    "storage": [
      {
        "astId": 14987,
        "contract": "contracts/CollateralVault.sol:CollateralVault",
        "label": "resolver",
        "offset": 0,
        "slot": "0",
        "type": "t_contract(IAddressResolver)8364"
      },
      {
        "astId": 14991,
        "contract": "contracts/CollateralVault.sol:CollateralVault",
        "label": "addressCache",
        "offset": 0,
        "slot": "1",
        "type": "t_mapping(t_bytes32,t_address)"
      },
      {
        "astId": 14528,
        "contract": "contracts/CollateralVault.sol:CollateralVault",
        "label": "WETH9",
        "offset": 0,
        "slot": "2",
        "type": "t_address"
      },
      {
        "astId": 790,
        "contract": "contracts/CollateralVault.sol:CollateralVault",
        "label": "_initialized",
        "offset": 20,
        "slot": "2",
        "type": "t_uint8"
      },
      {
        "astId": 793,
        "contract": "contracts/CollateralVault.sol:CollateralVault",
        "label": "_initializing",
        "offset": 21,
        "slot": "2",
        "type": "t_bool"
      }
    ],
    "types": {
      "t_address": {
        "encoding": "inplace",
        "label": "address",
        "numberOfBytes": "20"
      },
      "t_bool": {
        "encoding": "inplace",
        "label": "bool",
        "numberOfBytes": "1"
      },
      "t_bytes32": {
        "encoding": "inplace",
        "label": "bytes32",
        "numberOfBytes": "32"
      },
      "t_contract(IAddressResolver)8364": {
        "encoding": "inplace",
        "label": "contract IAddressResolver",
        "numberOfBytes": "20"
      },
      "t_mapping(t_bytes32,t_address)": {
        "encoding": "mapping",
        "key": "t_bytes32",
        "label": "mapping(bytes32 => address)",
        "numberOfBytes": "32",
        "value": "t_address"
      },
      "t_uint8": {
        "encoding": "inplace",
        "label": "uint8",
        "numberOfBytes": "1"
      }
    }
  }
}