{
  "address": "0x7BAb1589dd948276cdcfC1A455fD711F55E4B384",
  "abi": [
    {
      "anonymous": false,
      "inputs": [
        {
          "indexed": true,
          "internalType": "bytes32",
          "name": "ccy",
          "type": "bytes32"
        },
        {
          "indexed": false,
          "internalType": "string",
          "name": "name",
          "type": "string"
        },
        {
          "indexed": false,
          "internalType": "uint256",
          "name": "haircut",
          "type": "uint256"
        }
      ],
      "name": "CcyAdded",
      "type": "event"
    },
    {
      "anonymous": false,
      "inputs": [
        {
          "indexed": true,
          "internalType": "bytes32",
          "name": "ccy",
          "type": "bytes32"
        },
        {
          "indexed": false,
          "internalType": "bool",
          "name": "isSupported",
          "type": "bool"
        }
      ],
      "name": "CcySupportUpdate",
      "type": "event"
    },
    {
      "anonymous": false,
      "inputs": [
        {
          "indexed": true,
          "internalType": "bytes32",
          "name": "ccy",
          "type": "bytes32"
        },
        {
          "indexed": false,
          "internalType": "uint256",
          "name": "haircut",
          "type": "uint256"
        }
      ],
      "name": "HaircutUpdated",
      "type": "event"
    },
    {
      "anonymous": false,
      "inputs": [
        {
          "indexed": false,
          "internalType": "uint8",
          "name": "version",
          "type": "uint8"
        }
      ],
      "name": "Initialized",
      "type": "event"
    },
    {
      "anonymous": false,
      "inputs": [
        {
          "indexed": true,
          "internalType": "address",
          "name": "previousOwner",
          "type": "address"
        },
        {
          "indexed": true,
          "internalType": "address",
          "name": "newOwner",
          "type": "address"
        }
      ],
      "name": "OwnershipTransferred",
      "type": "event"
    },
    {
      "anonymous": false,
      "inputs": [
        {
          "indexed": false,
          "internalType": "bytes32",
          "name": "ccy",
          "type": "bytes32"
        },
        {
          "indexed": false,
          "internalType": "string",
          "name": "secondCcy",
          "type": "string"
        },
        {
          "indexed": true,
          "internalType": "address",
          "name": "priceFeed",
          "type": "address"
        }
      ],
      "name": "PriceFeedAdded",
      "type": "event"
    },
    {
      "anonymous": false,
      "inputs": [
        {
          "indexed": false,
          "internalType": "bytes32",
          "name": "ccy",
          "type": "bytes32"
        },
        {
          "indexed": false,
          "internalType": "string",
          "name": "secondCcy",
          "type": "string"
        },
        {
          "indexed": true,
          "internalType": "address",
          "name": "priceFeed",
          "type": "address"
        }
      ],
      "name": "PriceFeedRemoved",
      "type": "event"
    },
    {
      "inputs": [
        {
          "internalType": "bytes32",
          "name": "_ccy",
          "type": "bytes32"
        },
        {
          "internalType": "uint256",
          "name": "_amountETH",
          "type": "uint256"
        }
      ],
      "name": "convertFromETH",
      "outputs": [
        {
          "internalType": "uint256",
          "name": "amount",
          "type": "uint256"
        }
      ],
      "stateMutability": "view",
      "type": "function"
    },
    {
      "inputs": [
        {
          "internalType": "bytes32",
          "name": "_ccy",
          "type": "bytes32"
        },
        {
          "internalType": "int256",
          "name": "_amount",
          "type": "int256"
        }
      ],
      "name": "convertToETH",
      "outputs": [
        {
          "internalType": "int256",
          "name": "amount",
          "type": "int256"
        }
      ],
      "stateMutability": "view",
      "type": "function"
    },
    {
      "inputs": [
        {
          "internalType": "bytes32",
          "name": "_ccy",
          "type": "bytes32"
        },
        {
          "internalType": "uint256",
          "name": "_amount",
          "type": "uint256"
        }
      ],
      "name": "convertToETH",
      "outputs": [
        {
          "internalType": "uint256",
          "name": "amount",
          "type": "uint256"
        }
      ],
      "stateMutability": "view",
      "type": "function"
    },
    {
      "inputs": [
        {
          "internalType": "bytes32",
          "name": "_ccy",
          "type": "bytes32"
        },
        {
          "internalType": "uint256[]",
          "name": "_amounts",
          "type": "uint256[]"
        }
      ],
      "name": "convertToETH",
      "outputs": [
        {
          "internalType": "uint256[]",
          "name": "amounts",
          "type": "uint256[]"
        }
      ],
      "stateMutability": "view",
      "type": "function"
    },
    {
      "inputs": [
        {
          "internalType": "bytes32",
          "name": "_ccy",
          "type": "bytes32"
        }
      ],
      "name": "getCurrencies",
      "outputs": [
        {
          "components": [
            {
              "internalType": "bool",
              "name": "isSupported",
              "type": "bool"
            },
            {
              "internalType": "string",
              "name": "name",
              "type": "string"
            }
          ],
          "internalType": "struct Currency",
          "name": "",
          "type": "tuple"
        }
      ],
      "stateMutability": "view",
      "type": "function"
    },
    {
      "inputs": [
        {
          "internalType": "bytes32",
          "name": "_ccy",
          "type": "bytes32"
        }
      ],
      "name": "getEthDecimals",
      "outputs": [
        {
          "internalType": "uint8",
          "name": "",
          "type": "uint8"
        }
      ],
      "stateMutability": "view",
      "type": "function"
    },
    {
      "inputs": [
        {
          "internalType": "bytes32",
          "name": "_ccy",
          "type": "bytes32"
        }
      ],
      "name": "getHaircut",
      "outputs": [
        {
          "internalType": "uint256",
          "name": "",
          "type": "uint256"
        }
      ],
      "stateMutability": "view",
      "type": "function"
    },
    {
      "inputs": [
        {
          "internalType": "bytes32",
          "name": "_ccy",
          "type": "bytes32"
        },
        {
          "internalType": "uint80",
          "name": "_roundId",
          "type": "uint80"
        }
      ],
      "name": "getHistoricalETHPrice",
      "outputs": [
        {
          "internalType": "int256",
          "name": "",
          "type": "int256"
        }
      ],
      "stateMutability": "view",
      "type": "function"
    },
    {
      "inputs": [
        {
          "internalType": "bytes32",
          "name": "_ccy",
          "type": "bytes32"
        },
        {
          "internalType": "uint80",
          "name": "_roundId",
          "type": "uint80"
        }
      ],
      "name": "getHistoricalUSDPrice",
      "outputs": [
        {
          "internalType": "int256",
          "name": "",
          "type": "int256"
        }
      ],
      "stateMutability": "view",
      "type": "function"
    },
    {
      "inputs": [
        {
          "internalType": "bytes32",
          "name": "_ccy",
          "type": "bytes32"
        }
      ],
      "name": "getLastETHPrice",
      "outputs": [
        {
          "internalType": "int256",
          "name": "",
          "type": "int256"
        }
      ],
      "stateMutability": "view",
      "type": "function"
    },
    {
      "inputs": [
        {
          "internalType": "bytes32",
          "name": "_ccy",
          "type": "bytes32"
        }
      ],
      "name": "getLastUSDPrice",
      "outputs": [
        {
          "internalType": "int256",
          "name": "",
          "type": "int256"
        }
      ],
      "stateMutability": "view",
      "type": "function"
    },
    {
      "inputs": [
        {
          "internalType": "bytes32",
          "name": "_ccy",
          "type": "bytes32"
        }
      ],
      "name": "getUsdDecimals",
      "outputs": [
        {
          "internalType": "uint8",
          "name": "",
          "type": "uint8"
        }
      ],
      "stateMutability": "view",
      "type": "function"
    },
    {
      "inputs": [
        {
          "internalType": "address",
          "name": "_owner",
          "type": "address"
        }
      ],
      "name": "initialize",
      "outputs": [],
      "stateMutability": "nonpayable",
      "type": "function"
    },
    {
      "inputs": [
        {
          "internalType": "bytes32",
          "name": "_ccy",
          "type": "bytes32"
        }
      ],
      "name": "isSupportedCcy",
      "outputs": [
        {
          "internalType": "bool",
          "name": "",
          "type": "bool"
        }
      ],
      "stateMutability": "view",
      "type": "function"
    },
    {
      "inputs": [
        {
          "internalType": "bytes32",
          "name": "_ccy",
          "type": "bytes32"
        },
        {
          "internalType": "address",
          "name": "_priceFeedAddr",
          "type": "address"
        },
        {
          "internalType": "bool",
          "name": "_isEthPriceFeed",
          "type": "bool"
        }
      ],
      "name": "linkPriceFeed",
      "outputs": [
        {
          "internalType": "bool",
          "name": "",
          "type": "bool"
        }
      ],
      "stateMutability": "nonpayable",
      "type": "function"
    },
    {
      "inputs": [],
      "name": "owner",
      "outputs": [
        {
          "internalType": "address",
          "name": "",
          "type": "address"
        }
      ],
      "stateMutability": "view",
      "type": "function"
    },
    {
      "inputs": [
        {
          "internalType": "bytes32",
          "name": "_ccy",
          "type": "bytes32"
        },
        {
          "internalType": "bool",
          "name": "_isEthPriceFeed",
          "type": "bool"
        }
      ],
      "name": "removePriceFeed",
      "outputs": [],
      "stateMutability": "nonpayable",
      "type": "function"
    },
    {
      "inputs": [],
      "name": "renounceOwnership",
      "outputs": [],
      "stateMutability": "nonpayable",
      "type": "function"
    },
    {
      "inputs": [
        {
          "internalType": "bytes32",
          "name": "_ccy",
          "type": "bytes32"
        },
        {
          "internalType": "string",
          "name": "_name",
          "type": "string"
        },
        {
          "internalType": "address",
          "name": "_ethPriceFeed",
          "type": "address"
        },
        {
          "internalType": "uint256",
          "name": "_haircut",
          "type": "uint256"
        }
      ],
      "name": "supportCurrency",
      "outputs": [],
      "stateMutability": "nonpayable",
      "type": "function"
    },
    {
      "inputs": [
        {
          "internalType": "address",
          "name": "newOwner",
          "type": "address"
        }
      ],
      "name": "transferOwnership",
      "outputs": [],
      "stateMutability": "nonpayable",
      "type": "function"
    },
    {
      "inputs": [
        {
          "internalType": "bytes32",
          "name": "_ccy",
          "type": "bytes32"
        },
        {
          "internalType": "uint256",
          "name": "_haircut",
          "type": "uint256"
        }
      ],
      "name": "updateCcyHaircut",
      "outputs": [],
      "stateMutability": "nonpayable",
      "type": "function"
    },
    {
      "inputs": [
        {
          "internalType": "bytes32",
          "name": "_ccy",
          "type": "bytes32"
        },
        {
          "internalType": "bool",
          "name": "_isSupported",
          "type": "bool"
        }
      ],
      "name": "updateCurrencySupport",
      "outputs": [],
      "stateMutability": "nonpayable",
      "type": "function"
    }
  ],
  "transactionHash": "0xce292d5a6bbc77adc3bc2fc1e81441ed6e50140ddbeaa2273ab56fee3d23deeb",
  "args": [],
  "numDeployments": 2,
  "solcInputHash": "ca39234284045a01d53a150dc8ba29f5",
  "bytecode": "0x608060405234801561001057600080fd5b50611f88806100206000396000f3fe608060405234801561001057600080fd5b50600436106101425760003560e01c80638da5cb5b116100b8578063cc8dd9f11161007c578063cc8dd9f1146102ba578063d090faf0146102dd578063d4d4f6ce146102f0578063ea6c88a514610303578063f2fde38b14610316578063facae93f1461032957600080fd5b80638da5cb5b14610241578063939fe622146102615780639abdb38a14610281578063b11459b414610294578063c4d66de8146102a757600080fd5b806350326d221161010a57806350326d22146101cb5780635e5658d2146101de57806360cd4478146101fe5780636d01544d14610211578063715018a6146102245780637b7904e31461022e57600080fd5b8063042613711461014757806306d062ad146101715780631743ffce146101925780633a0a22f0146101a557806344a6ecdd146101b8575b600080fd5b61015a61015536600461192e565b61033c565b60405160ff90911681526020015b60405180910390f35b61018461017f366004611947565b61035d565b604051908152602001610168565b6101846101a036600461192e565b610481565b6101846101b3366004611947565b610545565b6101846101c6366004611947565b61062f565b6101846101d936600461192e565b610710565b6101f16101ec36600461192e565b610771565b60405161016891906119b6565b61018461020c3660046119fd565b61084f565b61018461021f3660046119fd565b610975565b61022c6109d1565b005b61022c61023c366004611a42565b610a0c565b610249610c6a565b6040516001600160a01b039091168152602001610168565b61027461026f366004611ab5565b610c9d565b6040516101689190611b67565b61018461028f36600461192e565b610e3d565b61022c6102a2366004611947565b610e5b565b61022c6102b5366004611bc2565b610fcf565b6102cd6102c8366004611be4565b61114e565b6040519015158152602001610168565b61022c6102eb366004611c20565b61152b565b6102cd6102fe36600461192e565b611671565b61022c610311366004611a42565b61168f565b61022c610324366004611bc2565b611717565b61015a61033736600461192e565b6117b7565b60006103466117d8565b600092835260040160205250604090205460ff1690565b60006208aa8960eb1b83141561037457508061047b565b600061037e6117d8565b60008581526003919091016020526040808220548151633fabe5a360e21b815291516001600160a01b039091169350839163feaf968c9160048083019260a0929190829003018186803b1580156103d457600080fd5b505afa1580156103e8573d6000803e3d6000fd5b505050506040513d601f19601f8201168201806040525081019061040c9190611cd7565b5050509150508084670de0b6b3a76400006104279190611d45565b6104319190611d7a565b9250826104785760405162461bcd60e51b815260206004820152601060248201526f151bdbc81cdb585b1b08185b5bdd5b9d60821b60448201526064015b60405180910390fd5b50505b92915050565b60006208aa8960eb1b8214156104a05750670de0b6b3a7640000919050565b60006104aa6117d8565b60008481526003919091016020526040808220548151633fabe5a360e21b815291516001600160a01b039091169350839163feaf968c9160048083019260a0929190829003018186803b15801561050057600080fd5b505afa158015610514573d6000803e3d6000fd5b505050506040513d601f19601f820116820180604052508101906105389190611cd7565b5091979650505050505050565b60006208aa8960eb1b83141561055c57508061047b565b816105695750600061047b565b60006105736117d8565b60008581526003919091016020526040808220548151633fabe5a360e21b815291516001600160a01b039091169350839163feaf968c9160048083019260a0929190829003018186803b1580156105c957600080fd5b505afa1580156105dd573d6000803e3d6000fd5b505050506040513d601f19601f820116820180604052508101906106019190611cd7565b505050915050670de0b6b3a7640000818561061c9190611d8e565b6106269190611e13565b95945050505050565b60006208aa8960eb1b83141561064657508061047b565b816106535750600061047b565b600061065d6117d8565b60008581526003919091016020526040808220548151633fabe5a360e21b815291516001600160a01b039091169350839163feaf968c9160048083019260a0929190829003018186803b1580156106b357600080fd5b505afa1580156106c7573d6000803e3d6000fd5b505050506040513d601f19601f820116820180604052508101906106eb9190611cd7565b505050915050670de0b6b3a764000081856107069190611d45565b6106269190611d7a565b60008061071b6117d8565b60008481526002919091016020526040808220548151633fabe5a360e21b815291516001600160a01b039091169350839163feaf968c9160048083019260a0929190829003018186803b15801561050057600080fd5b60408051808201909152600081526060602082015261078e6117d8565b600083815260209182526040908190208151808301909252805460ff161515825260018101805492939192918401916107c690611e41565b80601f01602080910402602001604051908101604052809291908181526020018280546107f290611e41565b801561083f5780601f106108145761010080835404028352916020019161083f565b820191906000526020600020905b81548152906001019060200180831161082257829003601f168201915b5050505050815250509050919050565b60006208aa8960eb1b83141561086e5750670de0b6b3a764000061047b565b60006108786117d8565b60008581526003919091016020526040808220549051639a6fc8f560e01b815269ffffffffffffffffffff861660048201526001600160a01b03909116925081908390639a6fc8f5906024015b60a06040518083038186803b1580156108dd57600080fd5b505afa1580156108f1573d6000803e3d6000fd5b505050506040513d601f19601f820116820180604052508101906109159190611cd7565b509350509250506000811161096c5760405162461bcd60e51b815260206004820152601760248201527f526f756e64206e6f7420636f6d706c6574656420796574000000000000000000604482015260640161046f565b50949350505050565b6000806109806117d8565b60008581526002919091016020526040808220549051639a6fc8f560e01b815269ffffffffffffffffffff861660048201526001600160a01b03909116925081908390639a6fc8f5906024016108c5565b336109da610c6a565b6001600160a01b031614610a005760405162461bcd60e51b815260040161046f90611e7c565b610a0a60006117fc565b565b33610a15610c6a565b6001600160a01b031614610a3b5760405162461bcd60e51b815260040161046f90611e7c565b81610a4581611671565b610a855760405162461bcd60e51b8152602060048201526011602482015270155b9cdd5c1c1bdc9d195908185cdcd95d607a1b604482015260640161046f565b60018215151415610b84576000610a9a6117d8565b600085815260039190910160205260409020546001600160a01b0316905080610ad55760405162461bcd60e51b815260040161046f90611eb1565b610add6117d8565b60008581526003919091016020526040902080546001600160a01b0319169055610b056117d8565b6000858152600591909101602052604090819020805460ff19169055516001600160a01b038216907ea0d5a605fe34a5efa696fb7b7fc385f4efcc9d0ff516d7dc7a1cbfbe065ee790610b76908781526040602082018190526003908201526208aa8960eb1b606082015260800190565b60405180910390a250505050565b6000610b8e6117d8565b600085815260029190910160205260409020546001600160a01b0316905080610bc95760405162461bcd60e51b815260040161046f90611eb1565b610bd16117d8565b60008581526002919091016020526040902080546001600160a01b0319169055610bf96117d8565b6000858152600491909101602052604090819020805460ff19169055516001600160a01b038216907ea0d5a605fe34a5efa696fb7b7fc385f4efcc9d0ff516d7dc7a1cbfbe065ee790610b7690878152604060208201819052600390820152621554d160ea1b606082015260800190565b60007f9acda75aebd150dd434541a4747a6dc606f4f1a59662477e67daf1fc0bf9e0aa5b546001600160a01b0316919050565b60606208aa8960eb1b831415610cb457508061047b565b815167ffffffffffffffff811115610cce57610cce611a6e565b604051908082528060200260200182016040528015610cf7578160200160208202803683370190505b50905060005b8251811015610e3657828181518110610d1857610d18611edc565b602002602001015160001415610d2d57610e24565b6000610d376117d8565b60008681526003919091016020526040808220548151633fabe5a360e21b815291516001600160a01b039091169350839163feaf968c9160048083019260a0929190829003018186803b158015610d8d57600080fd5b505afa158015610da1573d6000803e3d6000fd5b505050506040513d601f19601f82011682018060405250810190610dc59190611cd7565b505050915050670de0b6b3a764000081868581518110610de757610de7611edc565b6020026020010151610df99190611d45565b610e039190611d7a565b848481518110610e1557610e15611edc565b60200260200101818152505050505b80610e2e81611ef2565b915050610cfd565b5092915050565b6000610e476117d8565b600092835260010160205250604090205490565b33610e64610c6a565b6001600160a01b031614610e8a5760405162461bcd60e51b815260040161046f90611e7c565b81610e9481611671565b610ed45760405162461bcd60e51b8152602060048201526011602482015270155b9cdd5c1c1bdc9d195908185cdcd95d607a1b604482015260640161046f565b60008211610f245760405162461bcd60e51b815260206004820152601760248201527f496e636f7272656374206861697263757420726174696f000000000000000000604482015260640161046f565b612710821115610f6f5760405162461bcd60e51b81526020600482015260166024820152754861697263757420726174696f206f766572666c6f7760501b604482015260640161046f565b81610f786117d8565b600101600085815260200190815260200160002081905550827f99d976082a5e53ffddd334dbf2aec9b617affac6394470feb508f5fb662e0a1a83604051610fc291815260200190565b60405180910390a2505050565b600054610100900460ff1615808015610fef5750600054600160ff909116105b806110095750303b158015611009575060005460ff166001145b61106c5760405162461bcd60e51b815260206004820152602e60248201527f496e697469616c697a61626c653a20636f6e747261637420697320616c72656160448201526d191e481a5b9a5d1a585b1a5e995960921b606482015260840161046f565b6000805460ff19166001179055801561108f576000805461ff0019166101001790555b600061109961186d565b6001600160a01b031614156110fb5760405162461bcd60e51b815260206004820152602260248201527f4d7573742062652063616c6c65642066726f6d2070726f787920636f6e74726160448201526118dd60f21b606482015260840161046f565b611104826117fc565b801561114a576000805461ff0019169055604051600181527f7f26b83ff96e1f2b6a682f133852f6798a09c465da95921460cefb38474024989060200160405180910390a15b5050565b600033611159610c6a565b6001600160a01b03161461117f5760405162461bcd60e51b815260040161046f90611e7c565b6001600160a01b0383166111d55760405162461bcd60e51b815260206004820152601960248201527f436f756c646e2774206c696e6b20307830206164647265737300000000000000604482015260640161046f565b60008390506000816001600160a01b031663feaf968c6040518163ffffffff1660e01b815260040160a06040518083038186803b15801561121557600080fd5b505afa158015611229573d6000803e3d6000fd5b505050506040513d601f19601f8201168201806040525081019061124d9190611cd7565b50505091505060008112156112745760405162461bcd60e51b815260040161046f90611eb1565b6000826001600160a01b031663313ce5676040518163ffffffff1660e01b815260040160206040518083038186803b1580156112af57600080fd5b505afa1580156112c3573d6000803e3d6000fd5b505050506040513d601f19601f820116820180604052508101906112e79190611f0d565b905060128160ff1611156113305760405162461bcd60e51b815260206004820152601060248201526f496e76616c696420646563696d616c7360801b604482015260640161046f565b8415611451576208aa8960eb1b8714156113805760405162461bcd60e51b8152602060048201526011602482015270086c2dc4ee840d8d2dcd640e8de408aa89607b1b604482015260640161046f565b826113896117d8565b60008981526003919091016020526040902080546001600160a01b0319166001600160a01b0392909216919091179055806113c26117d8565b600501600089815260200190815260200160002060006101000a81548160ff021916908360ff160217905550856001600160a01b03167f6537ffaaeebdb294479a8b7fab1081c2b15de1a4bc9df657aad801547748fa4a886040516114449181526040602082018190526003908201526208aa8960eb1b606082015260800190565b60405180910390a261151e565b8261145a6117d8565b60008981526002919091016020526040902080546001600160a01b0319166001600160a01b0392909216919091179055806114936117d8565b600401600089815260200190815260200160002060006101000a81548160ff021916908360ff160217905550856001600160a01b03167f6537ffaaeebdb294479a8b7fab1081c2b15de1a4bc9df657aad801547748fa4a88604051611515918152604060208201819052600390820152621554d160ea1b606082015260800190565b60405180910390a25b5060019695505050505050565b33611534610c6a565b6001600160a01b03161461155a5760405162461bcd60e51b815260040161046f90611e7c565b604080518082019091526020810184905260018152806115786117d8565b60008781526020918252604090208251815460ff191690151517815582820151805191926115ae92600185019290910190611895565b50905050816115bb6117d8565b600087815260019190910160205260409020556208aa8960eb1b8514611608576115e78584600161114e565b6116035760405162461bcd60e51b815260040161046f90611eb1565b611630565b6116148584600061114e565b6116305760405162461bcd60e51b815260040161046f90611eb1565b847fac23727d2c524a59eb5ce3843d78ac0fecf91617367c24767157f62d5ad006e98584604051611662929190611f30565b60405180910390a25050505050565b600061167b6117d8565b600092835260205250604090205460ff1690565b33611698610c6a565b6001600160a01b0316146116be5760405162461bcd60e51b815260040161046f90611e7c565b60006116c86117d8565b60008481526020918252604090819020805460ff191685151590811782559151918252925084917f9abbefd519a8bdb26fbc476187bc19038a6a41a175946595f6e9e900d9eb2a319101610fc2565b33611720610c6a565b6001600160a01b0316146117465760405162461bcd60e51b815260040161046f90611e7c565b6001600160a01b0381166117ab5760405162461bcd60e51b815260206004820152602660248201527f4f776e61626c653a206e6577206f776e657220697320746865207a65726f206160448201526564647265737360d01b606482015260840161046f565b6117b4816117fc565b50565b60006117c16117d8565b600092835260050160205250604090205460ff1690565b7fbf1f6da7b18d0b1bd723139ae003962c8fa874ed2f9ff2b1948edfe1e7915f5d90565b7f9acda75aebd150dd434541a4747a6dc606f4f1a59662477e67daf1fc0bf9e0aa80546001600160a01b038381166001600160a01b0319831681179093556040519116919082907f8be0079c531659141344cd1fd0a4f28419497f9722a3daafe3b4186f6b6457e090600090a35050565b60007f360894a13ba1a3210667c828492db98dca3e2076cc3735a920a3ca505d382bbc610c8e565b8280546118a190611e41565b90600052602060002090601f0160209004810192826118c35760008555611909565b82601f106118dc57805160ff1916838001178555611909565b82800160010185558215611909579182015b828111156119095782518255916020019190600101906118ee565b50611915929150611919565b5090565b5b80821115611915576000815560010161191a565b60006020828403121561194057600080fd5b5035919050565b6000806040838503121561195a57600080fd5b50508035926020909101359150565b6000815180845260005b8181101561198f57602081850181015186830182015201611973565b818111156119a1576000602083870101525b50601f01601f19169290920160200192915050565b60208152815115156020820152600060208301516040808401526119dd6060840182611969565b949350505050565b69ffffffffffffffffffff811681146117b457600080fd5b60008060408385031215611a1057600080fd5b823591506020830135611a22816119e5565b809150509250929050565b80358015158114611a3d57600080fd5b919050565b60008060408385031215611a5557600080fd5b82359150611a6560208401611a2d565b90509250929050565b634e487b7160e01b600052604160045260246000fd5b604051601f8201601f1916810167ffffffffffffffff81118282101715611aad57611aad611a6e565b604052919050565b60008060408385031215611ac857600080fd5b8235915060208084013567ffffffffffffffff80821115611ae857600080fd5b818601915086601f830112611afc57600080fd5b813581811115611b0e57611b0e611a6e565b8060051b9150611b1f848301611a84565b8181529183018401918481019089841115611b3957600080fd5b938501935b83851015611b5757843582529385019390850190611b3e565b8096505050505050509250929050565b6020808252825182820181905260009190848201906040850190845b81811015611b9f57835183529284019291840191600101611b83565b50909695505050505050565b80356001600160a01b0381168114611a3d57600080fd5b600060208284031215611bd457600080fd5b611bdd82611bab565b9392505050565b600080600060608486031215611bf957600080fd5b83359250611c0960208501611bab565b9150611c1760408501611a2d565b90509250925092565b60008060008060808587031215611c3657600080fd5b8435935060208086013567ffffffffffffffff80821115611c5657600080fd5b818801915088601f830112611c6a57600080fd5b813581811115611c7c57611c7c611a6e565b611c8e601f8201601f19168501611a84565b91508082528984828501011115611ca457600080fd5b8084840185840137600084828401015250809550505050611cc760408601611bab565b9396929550929360600135925050565b600080600080600060a08688031215611cef57600080fd5b8551611cfa816119e5565b809550506020860151935060408601519250606086015191506080860151611d21816119e5565b809150509295509295909350565b634e487b7160e01b600052601160045260246000fd5b6000816000190483118215151615611d5f57611d5f611d2f565b500290565b634e487b7160e01b600052601260045260246000fd5b600082611d8957611d89611d64565b500490565b60006001600160ff1b0381841382841380821686840486111615611db457611db4611d2f565b600160ff1b6000871282811687830589121615611dd357611dd3611d2f565b60008712925087820587128484161615611def57611def611d2f565b87850587128184161615611e0557611e05611d2f565b505050929093029392505050565b600082611e2257611e22611d64565b600160ff1b821460001984141615611e3c57611e3c611d2f565b500590565b600181811c90821680611e5557607f821691505b60208210811415611e7657634e487b7160e01b600052602260045260246000fd5b50919050565b6020808252818101527f4f776e61626c653a2063616c6c6572206973206e6f7420746865206f776e6572604082015260600190565b602080825260119082015270125b9d985b1a5908141c9a58d951995959607a1b604082015260600190565b634e487b7160e01b600052603260045260246000fd5b6000600019821415611f0657611f06611d2f565b5060010190565b600060208284031215611f1f57600080fd5b815160ff81168114611bdd57600080fd5b604081526000611f436040830185611969565b9050826020830152939250505056fea2646970667358221220fbb4fd01929f3514901e6b4cdaa71967c878e411d6e6d021fa80ddcd47c22ea764736f6c63430008090033",
  "implementation": "0x57a75bB099f982DACdfA36e19aFbdE64d9EBa7B5",
  "devdoc": {
    "kind": "dev",
    "methods": {
      "convertFromETH(bytes32,uint256)": {
        "params": {
          "_amountETH": "Amount in ETH to be converted",
          "_ccy": "Currency that has to be converted from ETH"
        },
        "returns": {
          "amount": "The converted amount"
        }
      },
      "convertToETH(bytes32,int256)": {
        "params": {
          "_amount": "Amount to be converted",
          "_ccy": "Currency that has to be converted to ETH"
        },
        "returns": {
          "amount": "The converted amount"
        }
      },
      "convertToETH(bytes32,uint256)": {
        "params": {
          "_amount": "Amount to be converted",
          "_ccy": "Currency that has to be converted to ETH"
        },
        "returns": {
          "amount": "The converted amount"
        }
      },
      "convertToETH(bytes32,uint256[])": {
        "params": {
          "_amounts": "Amounts to be converted",
          "_ccy": "Currency that has to be converted to ETH"
        },
        "returns": {
          "amounts": "The converted amounts"
        }
      },
      "getCurrencies(bytes32)": {
        "params": {
          "_ccy": "Currency name in bytes32"
        },
        "returns": {
          "_0": "The currency data"
        }
      },
      "getEthDecimals(bytes32)": {
        "params": {
          "_ccy": "Currency name in bytes32"
        }
      },
      "getHaircut(bytes32)": {
        "params": {
          "_ccy": "Currency name in bytes32"
        }
      },
      "getHistoricalETHPrice(bytes32,uint80)": {
        "params": {
          "_ccy": "Currency name in bytes32",
          "_roundId": "RoundId"
        },
        "returns": {
          "_0": "The historical price in ETH"
        }
      },
      "getHistoricalUSDPrice(bytes32,uint80)": {
        "params": {
          "_ccy": "Currency name in bytes32",
          "_roundId": "RoundId"
        },
        "returns": {
          "_0": "The historical price in USD"
        }
      },
      "getLastETHPrice(bytes32)": {
        "params": {
          "_ccy": "Currency name in bytes32"
        },
        "returns": {
          "_0": "The last price in ETH"
        }
      },
      "getLastUSDPrice(bytes32)": {
        "params": {
          "_ccy": "Currency name in bytes32"
        },
        "returns": {
          "_0": "The last price in USD"
        }
      },
      "getUsdDecimals(bytes32)": {
        "params": {
          "_ccy": "Currency name in bytes32"
        }
      },
      "initialize(address)": {
        "details": "Function is invoked by the proxy contract when the contract is added to the ProxyController.",
        "params": {
          "_owner": "The address of the contract owner"
        }
      },
      "isSupportedCcy(bytes32)": {
        "params": {
          "_ccy": "Currency name in bytes32"
        },
        "returns": {
          "_0": "The boolean if the selected currency is supported or not"
        }
      },
      "linkPriceFeed(bytes32,address,bool)": {
        "details": "This method can use only Chainlink.",
        "params": {
          "_ccy": "Currency name in bytes32",
          "_isEthPriceFeed": "Boolean if the price feed is in ETH or not",
          "_priceFeedAddr": "The contract address of Chainlink price feed"
        },
        "returns": {
          "_0": "True if the execution of the operation succeeds"
        }
      },
      "owner()": {
        "details": "Returns the address of the current owner."
      },
      "removePriceFeed(bytes32,bool)": {
        "params": {
          "_ccy": "Currency name in bytes32",
          "_isEthPriceFeed": "Boolean if the price feed is in ETH or not"
        }
      },
      "renounceOwnership()": {
        "details": "Leaves the contract without owner. It will not be possible to call `onlyOwner` functions anymore. Can only be called by the current owner. NOTE: Renouncing ownership will leave the contract without an owner, thereby removing any functionality that is only available to the owner."
      },
      "supportCurrency(bytes32,string,address,uint256)": {
        "params": {
          "_ccy": "Currency name in bytes32",
          "_ethPriceFeed": "Address for ETH price feed",
          "_haircut": "Haircut ratio used to calculate in collateral calculations",
          "_name": "Currency full name"
        }
      },
      "transferOwnership(address)": {
        "details": "Transfers ownership of the contract to a new account (`newOwner`). Can only be called by the current owner."
      },
      "updateCcyHaircut(bytes32,uint256)": {
        "params": {
          "_ccy": "Currency name in bytes32",
          "_haircut": "Haircut ratio used to calculate in collateral calculations"
        }
      },
      "updateCurrencySupport(bytes32,bool)": {
        "params": {
          "_ccy": "Currency name in bytes32",
          "_isSupported": "Boolean if currency is supported"
        }
      }
    },
    "version": 1
  },
  "userdoc": {
    "kind": "user",
    "methods": {
      "convertFromETH(bytes32,uint256)": {
        "notice": "Gets the converted amount to the selected currency from ETH."
      },
      "convertToETH(bytes32,int256)": {
        "notice": "Gets the converted amount of currency in ETH."
      },
      "convertToETH(bytes32,uint256)": {
        "notice": "Gets the converted amount of currency in ETH."
      },
      "convertToETH(bytes32,uint256[])": {
        "notice": "Gets the converted amount of currency in ETH."
      },
      "getCurrencies(bytes32)": {
        "notice": "Gets the currency data."
      },
      "getEthDecimals(bytes32)": {
        "notice": "Get ETH decimal for the selected currency."
      },
      "getHaircut(bytes32)": {
        "notice": "Gets haircut ratio for the selected currency. Haircut is used in bilateral netting cross-calculation."
      },
      "getHistoricalETHPrice(bytes32,uint80)": {
        "notice": "Gets the historical price in ETH for the selected currency."
      },
      "getHistoricalUSDPrice(bytes32,uint80)": {
        "notice": "Gets the historical price in USD for the selected currency."
      },
      "getLastETHPrice(bytes32)": {
        "notice": "Gets the last price in ETH for the selected currency."
      },
      "getLastUSDPrice(bytes32)": {
        "notice": "Gets the last price in USD for the selected currency."
      },
      "getUsdDecimals(bytes32)": {
        "notice": "Gets USD decimal for the selected currency."
      },
      "initialize(address)": {
        "notice": "Initializes the contract."
      },
      "isSupportedCcy(bytes32)": {
        "notice": "Gets if the selected currency is supported."
      },
      "linkPriceFeed(bytes32,address,bool)": {
        "notice": "Links the contract to existing Chainlink price feed."
      },
      "removePriceFeed(bytes32,bool)": {
        "notice": "Removes existing Chainlink price feed."
      },
      "supportCurrency(bytes32,string,address,uint256)": {
        "notice": "Adds new currency into the protocol and links with existing ETH price feed of Chainlink."
      },
      "updateCcyHaircut(bytes32,uint256)": {
        "notice": "Updates the haircut ratio for supported currency"
      },
      "updateCurrencySupport(bytes32,bool)": {
        "notice": "Updates the flag indicating if the currency is supported in the protocol."
      }
    },
    "notice": "Implements managing of the supported currencies in the protocol. This contract links new currencies to ETH Chainlink price feeds, without an existing price feed contract owner is not able to add a new currency into the protocol",
    "version": 1
  },
  "storageLayout": {
    "storage": [
      {
        "astId": 790,
        "contract": "contracts/CurrencyController.sol:CurrencyController",
        "label": "_initialized",
        "offset": 0,
        "slot": "0",
        "type": "t_uint8"
      },
      {
        "astId": 793,
        "contract": "contracts/CurrencyController.sol:CurrencyController",
        "label": "_initializing",
        "offset": 1,
        "slot": "0",
        "type": "t_bool"
      }
    ],
    "types": {
      "t_bool": {
        "encoding": "inplace",
        "label": "bool",
        "numberOfBytes": "1"
      },
      "t_uint8": {
        "encoding": "inplace",
        "label": "uint8",
        "numberOfBytes": "1"
      }
    }
  }
}