{
  "address": "0xb3A0753249444A1c2555a59270542A5Cb5FDb8D3",
  "abi": [
    {
      "anonymous": false,
      "inputs": [
        {
          "indexed": true,
          "internalType": "bytes32",
          "name": "ccy",
          "type": "bytes32"
        },
        {
          "indexed": false,
          "internalType": "uint256",
          "name": "haircut",
          "type": "uint256"
        }
      ],
      "name": "CurrencyAdded",
      "type": "event"
    },
    {
      "anonymous": false,
      "inputs": [
        {
          "indexed": true,
          "internalType": "bytes32",
          "name": "ccy",
          "type": "bytes32"
        }
      ],
      "name": "CurrencyRemoved",
      "type": "event"
    },
    {
      "anonymous": false,
      "inputs": [
        {
          "indexed": true,
          "internalType": "bytes32",
          "name": "ccy",
          "type": "bytes32"
        },
        {
          "indexed": false,
          "internalType": "uint256",
          "name": "haircut",
          "type": "uint256"
        }
      ],
      "name": "HaircutUpdated",
      "type": "event"
    },
    {
      "anonymous": false,
      "inputs": [
        {
          "indexed": false,
          "internalType": "uint8",
          "name": "version",
          "type": "uint8"
        }
      ],
      "name": "Initialized",
      "type": "event"
    },
    {
      "anonymous": false,
      "inputs": [
        {
          "indexed": true,
          "internalType": "address",
          "name": "previousOwner",
          "type": "address"
        },
        {
          "indexed": true,
          "internalType": "address",
          "name": "newOwner",
          "type": "address"
        }
      ],
      "name": "OwnershipTransferred",
      "type": "event"
    },
    {
      "anonymous": false,
      "inputs": [
        {
          "indexed": false,
          "internalType": "bytes32",
          "name": "ccy",
          "type": "bytes32"
        },
        {
          "indexed": false,
          "internalType": "string",
          "name": "secondCcy",
          "type": "string"
        },
        {
          "indexed": true,
          "internalType": "address",
          "name": "priceFeed",
          "type": "address"
        }
      ],
      "name": "PriceFeedAdded",
      "type": "event"
    },
    {
      "anonymous": false,
      "inputs": [
        {
          "indexed": false,
          "internalType": "bytes32",
          "name": "ccy",
          "type": "bytes32"
        },
        {
          "indexed": false,
          "internalType": "string",
          "name": "secondCcy",
          "type": "string"
        },
        {
          "indexed": true,
          "internalType": "address",
          "name": "priceFeed",
          "type": "address"
        }
      ],
      "name": "PriceFeedRemoved",
      "type": "event"
    },
    {
      "inputs": [
        {
          "internalType": "bytes32",
          "name": "_ccy",
          "type": "bytes32"
        },
        {
          "internalType": "address",
          "name": "_ethPriceFeed",
          "type": "address"
        },
        {
          "internalType": "uint256",
          "name": "_haircut",
          "type": "uint256"
        }
      ],
      "name": "addCurrency",
      "outputs": [],
      "stateMutability": "nonpayable",
      "type": "function"
    },
    {
      "inputs": [
        {
          "internalType": "bytes32",
          "name": "_fromCcy",
          "type": "bytes32"
        },
        {
          "internalType": "bytes32",
          "name": "_toCcy",
          "type": "bytes32"
        },
        {
          "internalType": "uint256",
          "name": "_amount",
          "type": "uint256"
        }
      ],
      "name": "convert",
      "outputs": [
        {
          "internalType": "uint256",
          "name": "amount",
          "type": "uint256"
        }
      ],
      "stateMutability": "view",
      "type": "function"
    },
    {
      "inputs": [
        {
          "internalType": "bytes32",
          "name": "_ccy",
          "type": "bytes32"
        },
        {
          "internalType": "uint256",
          "name": "_amountETH",
          "type": "uint256"
        }
      ],
      "name": "convertFromETH",
      "outputs": [
        {
          "internalType": "uint256",
          "name": "amount",
          "type": "uint256"
        }
      ],
      "stateMutability": "view",
      "type": "function"
    },
    {
      "inputs": [
        {
          "internalType": "bytes32",
          "name": "_ccy",
          "type": "bytes32"
        },
        {
          "internalType": "int256",
          "name": "_amount",
          "type": "int256"
        }
      ],
      "name": "convertToETH",
      "outputs": [
        {
          "internalType": "int256",
          "name": "amount",
          "type": "int256"
        }
      ],
      "stateMutability": "view",
      "type": "function"
    },
    {
      "inputs": [
        {
          "internalType": "bytes32",
          "name": "_ccy",
          "type": "bytes32"
        },
        {
          "internalType": "uint256",
          "name": "_amount",
          "type": "uint256"
        }
      ],
      "name": "convertToETH",
      "outputs": [
        {
          "internalType": "uint256",
          "name": "amount",
          "type": "uint256"
        }
      ],
      "stateMutability": "view",
      "type": "function"
    },
    {
      "inputs": [
        {
          "internalType": "bytes32",
          "name": "_ccy",
          "type": "bytes32"
        },
        {
          "internalType": "uint256[]",
          "name": "_amounts",
          "type": "uint256[]"
        }
      ],
      "name": "convertToETH",
      "outputs": [
        {
          "internalType": "uint256[]",
          "name": "amounts",
          "type": "uint256[]"
        }
      ],
      "stateMutability": "view",
      "type": "function"
    },
    {
      "inputs": [
        {
          "internalType": "bytes32",
          "name": "_ccy",
          "type": "bytes32"
        }
      ],
      "name": "currencyExists",
      "outputs": [
        {
          "internalType": "bool",
          "name": "",
          "type": "bool"
        }
      ],
      "stateMutability": "view",
      "type": "function"
    },
    {
      "inputs": [],
      "name": "getCurrencies",
      "outputs": [
        {
          "internalType": "bytes32[]",
          "name": "",
          "type": "bytes32[]"
        }
      ],
      "stateMutability": "view",
      "type": "function"
    },
    {
      "inputs": [
        {
          "internalType": "bytes32",
          "name": "_ccy",
          "type": "bytes32"
        }
      ],
      "name": "getEthDecimals",
      "outputs": [
        {
          "internalType": "uint8",
          "name": "",
          "type": "uint8"
        }
      ],
      "stateMutability": "view",
      "type": "function"
    },
    {
      "inputs": [
        {
          "internalType": "bytes32",
          "name": "_ccy",
          "type": "bytes32"
        }
      ],
      "name": "getHaircut",
      "outputs": [
        {
          "internalType": "uint256",
          "name": "",
          "type": "uint256"
        }
      ],
      "stateMutability": "view",
      "type": "function"
    },
    {
      "inputs": [
        {
          "internalType": "bytes32",
          "name": "_ccy",
          "type": "bytes32"
        },
        {
          "internalType": "uint80",
          "name": "_roundId",
          "type": "uint80"
        }
      ],
      "name": "getHistoricalETHPrice",
      "outputs": [
        {
          "internalType": "int256",
          "name": "",
          "type": "int256"
        }
      ],
      "stateMutability": "view",
      "type": "function"
    },
    {
      "inputs": [
        {
          "internalType": "bytes32",
          "name": "_ccy",
          "type": "bytes32"
        },
        {
          "internalType": "uint80",
          "name": "_roundId",
          "type": "uint80"
        }
      ],
      "name": "getHistoricalUSDPrice",
      "outputs": [
        {
          "internalType": "int256",
          "name": "",
          "type": "int256"
        }
      ],
      "stateMutability": "view",
      "type": "function"
    },
    {
      "inputs": [
        {
          "internalType": "bytes32",
          "name": "_ccy",
          "type": "bytes32"
        }
      ],
      "name": "getLastETHPrice",
      "outputs": [
        {
          "internalType": "int256",
          "name": "price",
          "type": "int256"
        }
      ],
      "stateMutability": "view",
      "type": "function"
    },
    {
      "inputs": [
        {
          "internalType": "bytes32",
          "name": "_ccy",
          "type": "bytes32"
        }
      ],
      "name": "getLastUSDPrice",
      "outputs": [
        {
          "internalType": "int256",
          "name": "price",
          "type": "int256"
        }
      ],
      "stateMutability": "view",
      "type": "function"
    },
    {
      "inputs": [
        {
          "internalType": "bytes32",
          "name": "_ccy",
          "type": "bytes32"
        }
      ],
      "name": "getUsdDecimals",
      "outputs": [
        {
          "internalType": "uint8",
          "name": "",
          "type": "uint8"
        }
      ],
      "stateMutability": "view",
      "type": "function"
    },
    {
      "inputs": [
        {
          "internalType": "address",
          "name": "_owner",
          "type": "address"
        }
      ],
      "name": "initialize",
      "outputs": [],
      "stateMutability": "nonpayable",
      "type": "function"
    },
    {
      "inputs": [
        {
          "internalType": "bytes32",
          "name": "_ccy",
          "type": "bytes32"
        },
        {
          "internalType": "address",
          "name": "_priceFeedAddr",
          "type": "address"
        },
        {
          "internalType": "bool",
          "name": "_isEthPriceFeed",
          "type": "bool"
        }
      ],
      "name": "linkPriceFeed",
      "outputs": [
        {
          "internalType": "bool",
          "name": "",
          "type": "bool"
        }
      ],
      "stateMutability": "nonpayable",
      "type": "function"
    },
    {
      "inputs": [],
      "name": "owner",
      "outputs": [
        {
          "internalType": "address",
          "name": "",
          "type": "address"
        }
      ],
      "stateMutability": "view",
      "type": "function"
    },
    {
      "inputs": [
        {
          "internalType": "bytes32",
          "name": "_ccy",
          "type": "bytes32"
        }
      ],
      "name": "removeCurrency",
      "outputs": [],
      "stateMutability": "nonpayable",
      "type": "function"
    },
    {
      "inputs": [
        {
          "internalType": "bytes32",
          "name": "_ccy",
          "type": "bytes32"
        },
        {
          "internalType": "bool",
          "name": "_isEthPriceFeed",
          "type": "bool"
        }
      ],
      "name": "removePriceFeed",
      "outputs": [],
      "stateMutability": "nonpayable",
      "type": "function"
    },
    {
      "inputs": [],
      "name": "renounceOwnership",
      "outputs": [],
      "stateMutability": "nonpayable",
      "type": "function"
    },
    {
      "inputs": [
        {
          "internalType": "address",
          "name": "newOwner",
          "type": "address"
        }
      ],
      "name": "transferOwnership",
      "outputs": [],
      "stateMutability": "nonpayable",
      "type": "function"
    },
    {
      "inputs": [
        {
          "internalType": "bytes32",
          "name": "_ccy",
          "type": "bytes32"
        },
        {
          "internalType": "uint256",
          "name": "_haircut",
          "type": "uint256"
        }
      ],
      "name": "updateHaircut",
      "outputs": [],
      "stateMutability": "nonpayable",
      "type": "function"
    }
  ],
  "transactionHash": "0xfa5875d6923d6bc07465bd205b7e8feb91bdd24629b99660ecd41dea7b728c27",
  "args": [],
  "numDeployments": 2,
  "solcInputHash": "1ac2fb69d48f421b49df5db0f40e0e97",
  "bytecode": "0x608060405234801561001057600080fd5b506120cd806100206000396000f3fe608060405234801561001057600080fd5b506004361061014d5760003560e01c806371bee4a1116100c3578063c4d66de81161007c578063c4d66de8146102d0578063c5babb1b146102e3578063cc8dd9f1146102f6578063efd4ad5a14610309578063f2fde38b1461031c578063facae93f1461032f57600080fd5b806371bee4a1146102515780637b7904e3146102645780638da5cb5b14610277578063939fe622146102975780639abdb38a146102aa578063b99c6ca8146102bd57600080fd5b806344a6ecdd1161011557806344a6ecdd146101e657806350326d22146101f957806360cd44781461020c57806361c661de1461021f5780636d01544d14610234578063715018a61461024757600080fd5b8063042613711461015257806306d062ad1461017c5780631743ffce1461019d5780631eae0893146101b05780633a0a22f0146101d3575b600080fd5b610165610160366004611a0a565b610342565b60405160ff90911681526020015b60405180910390f35b61018f61018a366004611a23565b610363565b604051908152602001610173565b61018f6101ab366004611a0a565b610414565b6101c36101be366004611a0a565b61043c565b6040519015158152602001610173565b61018f6101e1366004611a23565b610450565b61018f6101f4366004611a23565b6104c8565b61018f610207366004611a0a565b610524565b61018f61021a366004611a5d565b6105ca565b6102276106f0565b6040516101739190611a8d565b61018f610242366004611a5d565b610707565b61024f610763565b005b61024f61025f366004611a23565b61079e565b61024f610272366004611ae6565b610912565b61027f610b70565b6040516001600160a01b039091168152602001610173565b6102276102a5366004611b28565b610ba3565b61018f6102b8366004611a0a565b610cc7565b61018f6102cb366004611bf2565b610ce5565b61024f6102de366004611c35565b610dd2565b61024f6102f1366004611c50565b610f51565b6101c3610304366004611c85565b611043565b61024f610317366004611a0a565b611420565b61024f61032a366004611c35565b611490565b61016561033d366004611a0a565b611530565b600061034c611551565b600092835260050160205250604090205460ff1690565b60006208aa8960eb1b83141561037a57508061040e565b6103c761038e61038985611575565b6115d4565b610396611551565b600086815260069190910160205260409020546103b79060ff16600a611dbb565b6103c19085611dca565b9061162a565b90508061040e5760405162461bcd60e51b815260206004820152601060248201526f151bdbc81cdb585b1b08185b5bdd5b9d60821b60448201526064015b60405180910390fd5b92915050565b60006208aa8960eb1b8214156104335750670de0b6b3a7640000919050565b61040e82611575565b600061040e8261044a611551565b9061169b565b60006208aa8960eb1b83141561046757508061040e565b816104745750600061040e565b6104c16104a8610482611551565b600086815260069190910160205260409020546104a39060ff16600a611dbb565b6116b3565b6104b185611575565b6104bb9085611de9565b9061171d565b9392505050565b60006208aa8960eb1b8314156104df57508061040e565b816104ec5750600061040e565b6104c16104f7611551565b600085815260069190910160205260409020546105189060ff16600a611dbb565b6103b761038986611575565b60008061052f611551565b6000848152600391909101602052604090819020548151633fabe5a360e21b815291516001600160a01b039091169250829163feaf968c9160048083019260a0929190829003018186803b15801561058657600080fd5b505afa15801561059a573d6000803e3d6000fd5b505050506040513d601f19601f820116820180604052508101906105be9190611e6e565b50919695505050505050565b60006208aa8960eb1b8314156105e95750670de0b6b3a764000061040e565b60006105f3611551565b600085815260049182016020526040808220549051639a6fc8f560e01b815269ffffffffffffffffffff8716938101939093526001600160a01b031692509081908390639a6fc8f5906024015b60a06040518083038186803b15801561065857600080fd5b505afa15801561066c573d6000803e3d6000fd5b505050506040513d601f19601f820116820180604052508101906106909190611e6e565b50935050925050600081116106e75760405162461bcd60e51b815260206004820152601760248201527f526f756e64206e6f7420636f6d706c65746564207965740000000000000000006044820152606401610405565b50949350505050565b60606107026106fd611551565b6117b0565b905090565b600080610712611551565b60008581526003919091016020526040808220549051639a6fc8f560e01b815269ffffffffffffffffffff861660048201526001600160a01b03909116925081908390639a6fc8f590602401610640565b3361076c610b70565b6001600160a01b0316146107925760405162461bcd60e51b815260040161040590611ec6565b61079c60006117bb565b565b336107a7610b70565b6001600160a01b0316146107cd5760405162461bcd60e51b815260040161040590611ec6565b816107d78161043c565b6108175760405162461bcd60e51b8152602060048201526011602482015270155b9cdd5c1c1bdc9d195908185cdcd95d607a1b6044820152606401610405565b600082116108675760405162461bcd60e51b815260206004820152601760248201527f496e636f7272656374206861697263757420726174696f0000000000000000006044820152606401610405565b6127108211156108b25760405162461bcd60e51b81526020600482015260166024820152754861697263757420726174696f206f766572666c6f7760501b6044820152606401610405565b816108bb611551565b600201600085815260200190815260200160002081905550827f99d976082a5e53ffddd334dbf2aec9b617affac6394470feb508f5fb662e0a1a8360405161090591815260200190565b60405180910390a2505050565b3361091b610b70565b6001600160a01b0316146109415760405162461bcd60e51b815260040161040590611ec6565b8161094b8161043c565b61098b5760405162461bcd60e51b8152602060048201526011602482015270155b9cdd5c1c1bdc9d195908185cdcd95d607a1b6044820152606401610405565b60018215151415610a8a5760006109a0611551565b600085815260049190910160205260409020546001600160a01b03169050806109db5760405162461bcd60e51b815260040161040590611efb565b6109e3611551565b60008581526004919091016020526040902080546001600160a01b0319169055610a0b611551565b6000858152600691909101602052604090819020805460ff19169055516001600160a01b038216907ea0d5a605fe34a5efa696fb7b7fc385f4efcc9d0ff516d7dc7a1cbfbe065ee790610a7c908781526040602082018190526003908201526208aa8960eb1b606082015260800190565b60405180910390a250505050565b6000610a94611551565b600085815260039190910160205260409020546001600160a01b0316905080610acf5760405162461bcd60e51b815260040161040590611efb565b610ad7611551565b60008581526003919091016020526040902080546001600160a01b0319169055610aff611551565b6000858152600591909101602052604090819020805460ff19169055516001600160a01b038216907ea0d5a605fe34a5efa696fb7b7fc385f4efcc9d0ff516d7dc7a1cbfbe065ee790610a7c90878152604060208201819052600390820152621554d160ea1b606082015260800190565b60007f9acda75aebd150dd434541a4747a6dc606f4f1a59662477e67daf1fc0bf9e0aa5b546001600160a01b0316919050565b60606208aa8960eb1b831415610bba57508061040e565b815167ffffffffffffffff811115610bd457610bd4611b12565b604051908082528060200260200182016040528015610bfd578160200160208202803683370190505b50905060005b8251811015610cc057828181518110610c1e57610c1e611f26565b602002602001015160001415610c3357610cae565b610c8f610c3e611551565b60008681526006919091016020526040902054610c5f9060ff16600a611dbb565b610c6b61038987611575565b858481518110610c7d57610c7d611f26565b60200260200101516103c19190611dca565b828281518110610ca157610ca1611f26565b6020026020010181815250505b80610cb881611f3c565b915050610c03565b5092915050565b6000610cd1611551565b600092835260020160205250604090205490565b600082841415610cf65750806104c1565b81610d03575060006104c1565b6208aa8960eb1b841415610d2257610d1b8383610363565b90506104c1565b6208aa8960eb1b831415610d3a57610d1b84836104c8565b6000610d4585611575565b90506000610d5285611575565b9050610dc881610d60611551565b60008981526006919091016020526040902054610d819060ff16600a611dbb565b610d8b9190611dca565b610d93611551565b60008881526006919091016020526040902054610db49060ff16600a611dbb565b610dbe8588611dca565b6103c19190611dca565b9695505050505050565b600054610100900460ff1615808015610df25750600054600160ff909116105b80610e0c5750303b158015610e0c575060005460ff166001145b610e6f5760405162461bcd60e51b815260206004820152602e60248201527f496e697469616c697a61626c653a20636f6e747261637420697320616c72656160448201526d191e481a5b9a5d1a585b1a5e995960921b6064820152608401610405565b6000805460ff191660011790558015610e92576000805461ff0019166101001790555b6000610e9c61182c565b6001600160a01b03161415610efe5760405162461bcd60e51b815260206004820152602260248201527f4d7573742062652063616c6c65642066726f6d2070726f787920636f6e74726160448201526118dd60f21b6064820152608401610405565b610f07826117bb565b8015610f4d576000805461ff0019169055604051600181527f7f26b83ff96e1f2b6a682f133852f6798a09c465da95921460cefb38474024989060200160405180910390a15b5050565b33610f5a610b70565b6001600160a01b031614610f805760405162461bcd60e51b815260040161040590611ec6565b610f9283610f8c611551565b90611854565b5080610f9c611551565b600085815260029190910160205260409020556208aa8960eb1b8314610fe957610fc883836001611043565b610fe45760405162461bcd60e51b815260040161040590611efb565b611011565b610ff583836000611043565b6110115760405162461bcd60e51b815260040161040590611efb565b827f79e8862930b44b699510a91d2ef96e28ebbdb9963c1a41053f16b6b09a02f63a8260405161090591815260200190565b60003361104e610b70565b6001600160a01b0316146110745760405162461bcd60e51b815260040161040590611ec6565b6001600160a01b0383166110ca5760405162461bcd60e51b815260206004820152601960248201527f436f756c646e2774206c696e6b203078302061646472657373000000000000006044820152606401610405565b60008390506000816001600160a01b031663feaf968c6040518163ffffffff1660e01b815260040160a06040518083038186803b15801561110a57600080fd5b505afa15801561111e573d6000803e3d6000fd5b505050506040513d601f19601f820116820180604052508101906111429190611e6e565b50505091505060008112156111695760405162461bcd60e51b815260040161040590611efb565b6000826001600160a01b031663313ce5676040518163ffffffff1660e01b815260040160206040518083038186803b1580156111a457600080fd5b505afa1580156111b8573d6000803e3d6000fd5b505050506040513d601f19601f820116820180604052508101906111dc9190611f57565b905060128160ff1611156112255760405162461bcd60e51b815260206004820152601060248201526f496e76616c696420646563696d616c7360801b6044820152606401610405565b8415611346576208aa8960eb1b8714156112755760405162461bcd60e51b8152602060048201526011602482015270086c2dc4ee840d8d2dcd640e8de408aa89607b1b6044820152606401610405565b8261127e611551565b60008981526004919091016020526040902080546001600160a01b0319166001600160a01b0392909216919091179055806112b7611551565b600601600089815260200190815260200160002060006101000a81548160ff021916908360ff160217905550856001600160a01b03167f6537ffaaeebdb294479a8b7fab1081c2b15de1a4bc9df657aad801547748fa4a886040516113399181526040602082018190526003908201526208aa8960eb1b606082015260800190565b60405180910390a2611413565b8261134f611551565b60008981526003919091016020526040902080546001600160a01b0319166001600160a01b039290921691909117905580611388611551565b600501600089815260200190815260200160002060006101000a81548160ff021916908360ff160217905550856001600160a01b03167f6537ffaaeebdb294479a8b7fab1081c2b15de1a4bc9df657aad801547748fa4a8860405161140a918152604060208201819052600390820152621554d160ea1b606082015260800190565b60405180910390a25b5060019695505050505050565b33611429610b70565b6001600160a01b03161461144f5760405162461bcd60e51b815260040161040590611ec6565b6114618161145b611551565b90611860565b5060405181907fa3c6a408fb053e3ef5e9bcd22e3574324a5ae99fad263cc4080da481842d3d4c90600090a250565b33611499610b70565b6001600160a01b0316146114bf5760405162461bcd60e51b815260040161040590611ec6565b6001600160a01b0381166115245760405162461bcd60e51b815260206004820152602660248201527f4f776e61626c653a206e6577206f776e657220697320746865207a65726f206160448201526564647265737360d01b6064820152608401610405565b61152d816117bb565b50565b600061153a611551565b600092835260060160205250604090205460ff1690565b7fbf1f6da7b18d0b1bd723139ae003962c8fa874ed2f9ff2b1948edfe1e7915f5d90565b600080611580611551565b60008481526004918201602052604090819020548151633fabe5a360e21b815291516001600160a01b039091169350839263feaf968c928082019260a0929091829003018186803b15801561058657600080fd5b6000808212156116265760405162461bcd60e51b815260206004820181905260248201527f53616665436173743a2076616c7565206d75737420626520706f7369746976656044820152606401610405565b5090565b600080821161163857600080fd5b60056116448385611f90565b61164f90600a611dca565b8361165b86600a611dca565b6116659190611f90565b61166f9190611fa4565b10156116865761167f8284611f90565b905061040e565b6116908284611f90565b61167f906001611fbb565b600081815260018301602052604081205415156104c1565b60006001600160ff1b038211156116265760405162461bcd60e51b815260206004820152602860248201527f53616665436173743a2076616c756520646f65736e27742066697420696e2061604482015267371034b73a191a9b60c11b6064820152608401610405565b60008161172957600080fd5b60006117358385611fd3565b61174090600a611de9565b8361174c86600a611de9565b6117569190611fd3565b6117609190612001565b905060058112611787576117748385611fd3565b61177f906001612040565b91505061040e565b60041981136117a657600161179c8486611fd3565b61177f9190612001565b61177f8385611fd3565b606061040e8261186c565b7f9acda75aebd150dd434541a4747a6dc606f4f1a59662477e67daf1fc0bf9e0aa80546001600160a01b038381166001600160a01b0319831681179093556040519116919082907f8be0079c531659141344cd1fd0a4f28419497f9722a3daafe3b4186f6b6457e090600090a35050565b60007f360894a13ba1a3210667c828492db98dca3e2076cc3735a920a3ca505d382bbc610b94565b60006104c183836118c8565b60006104c18383611917565b6060816000018054806020026020016040519081016040528092919081815260200182805480156118bc57602002820191906000526020600020905b8154815260200190600101908083116118a8575b50505050509050919050565b600081815260018301602052604081205461190f5750815460018181018455600084815260208082209093018490558454848252828601909352604090209190915561040e565b50600061040e565b60008181526001830160205260408120548015611a0057600061193b600183611fa4565b855490915060009061194f90600190611fa4565b90508181146119b457600086600001828154811061196f5761196f611f26565b906000526020600020015490508087600001848154811061199257611992611f26565b6000918252602080832090910192909255918252600188019052604090208390555b85548690806119c5576119c5612081565b60019003818190600052602060002001600090559055856001016000868152602001908152602001600020600090556001935050505061040e565b600091505061040e565b600060208284031215611a1c57600080fd5b5035919050565b60008060408385031215611a3657600080fd5b50508035926020909101359150565b69ffffffffffffffffffff8116811461152d57600080fd5b60008060408385031215611a7057600080fd5b823591506020830135611a8281611a45565b809150509250929050565b6020808252825182820181905260009190848201906040850190845b81811015611ac557835183529284019291840191600101611aa9565b50909695505050505050565b80358015158114611ae157600080fd5b919050565b60008060408385031215611af957600080fd5b82359150611b0960208401611ad1565b90509250929050565b634e487b7160e01b600052604160045260246000fd5b60008060408385031215611b3b57600080fd5b8235915060208084013567ffffffffffffffff80821115611b5b57600080fd5b818601915086601f830112611b6f57600080fd5b813581811115611b8157611b81611b12565b8060051b604051601f19603f83011681018181108582111715611ba657611ba6611b12565b604052918252848201925083810185019189831115611bc457600080fd5b938501935b82851015611be257843584529385019392850192611bc9565b8096505050505050509250929050565b600080600060608486031215611c0757600080fd5b505081359360208301359350604090920135919050565b80356001600160a01b0381168114611ae157600080fd5b600060208284031215611c4757600080fd5b6104c182611c1e565b600080600060608486031215611c6557600080fd5b83359250611c7560208501611c1e565b9150604084013590509250925092565b600080600060608486031215611c9a57600080fd5b83359250611caa60208501611c1e565b9150611cb860408501611ad1565b90509250925092565b634e487b7160e01b600052601160045260246000fd5b600181815b80851115611d12578160001904821115611cf857611cf8611cc1565b80851615611d0557918102915b93841c9390800290611cdc565b509250929050565b600082611d295750600161040e565b81611d365750600061040e565b8160018114611d4c5760028114611d5657611d72565b600191505061040e565b60ff841115611d6757611d67611cc1565b50506001821b61040e565b5060208310610133831016604e8410600b8410161715611d95575081810a61040e565b611d9f8383611cd7565b8060001904821115611db357611db3611cc1565b029392505050565b60006104c160ff841683611d1a565b6000816000190483118215151615611de457611de4611cc1565b500290565b60006001600160ff1b0381841382841380821686840486111615611e0f57611e0f611cc1565b600160ff1b6000871282811687830589121615611e2e57611e2e611cc1565b60008712925087820587128484161615611e4a57611e4a611cc1565b87850587128184161615611e6057611e60611cc1565b505050929093029392505050565b600080600080600060a08688031215611e8657600080fd5b8551611e9181611a45565b809550506020860151935060408601519250606086015191506080860151611eb881611a45565b809150509295509295909350565b6020808252818101527f4f776e61626c653a2063616c6c6572206973206e6f7420746865206f776e6572604082015260600190565b602080825260119082015270125b9d985b1a5908141c9a58d951995959607a1b604082015260600190565b634e487b7160e01b600052603260045260246000fd5b6000600019821415611f5057611f50611cc1565b5060010190565b600060208284031215611f6957600080fd5b815160ff811681146104c157600080fd5b634e487b7160e01b600052601260045260246000fd5b600082611f9f57611f9f611f7a565b500490565b600082821015611fb657611fb6611cc1565b500390565b60008219821115611fce57611fce611cc1565b500190565b600082611fe257611fe2611f7a565b600160ff1b821460001984141615611ffc57611ffc611cc1565b500590565b60008083128015600160ff1b85018412161561201f5761201f611cc1565b6001600160ff1b038401831381161561203a5761203a611cc1565b50500390565b600080821280156001600160ff1b038490038513161561206257612062611cc1565b600160ff1b839003841281161561207b5761207b611cc1565b50500190565b634e487b7160e01b600052603160045260246000fdfea264697066735822122063fec340b0f04b638219a0c4a7fdaa31376e7c4e7ffc34d0b4c9e5bbad6f5e8764736f6c63430008090033",
  "implementation": "0x5A0fbA5933f11DfFed01fa461Ec6fC98269102EA",
  "devdoc": {
    "kind": "dev",
    "methods": {
      "addCurrency(bytes32,address,uint256)": {
        "params": {
          "_ccy": "Currency name in bytes32",
          "_ethPriceFeed": "Address for ETH price feed",
          "_haircut": "Remaining ratio after haircut"
        }
      },
      "convert(bytes32,bytes32,uint256)": {
        "params": {
          "_amount": "Amount to be converted",
          "_fromCcy": "Currency to convert from",
          "_toCcy": "Currency to convert to"
        },
        "returns": {
          "amount": "The converted amount"
        }
      },
      "convertFromETH(bytes32,uint256)": {
        "params": {
          "_amountETH": "Amount in ETH to be converted",
          "_ccy": "Currency that has to be converted from ETH"
        },
        "returns": {
          "amount": "The converted amount"
        }
      },
      "convertToETH(bytes32,int256)": {
        "params": {
          "_amount": "Amount to be converted",
          "_ccy": "Currency that has to be converted to ETH"
        },
        "returns": {
          "amount": "The converted amount"
        }
      },
      "convertToETH(bytes32,uint256)": {
        "params": {
          "_amount": "Amount to be converted",
          "_ccy": "Currency that has to be converted to ETH"
        },
        "returns": {
          "amount": "The converted amount"
        }
      },
      "convertToETH(bytes32,uint256[])": {
        "params": {
          "_amounts": "Amounts to be converted",
          "_ccy": "Currency that has to be converted to ETH"
        },
        "returns": {
          "amounts": "The converted amounts"
        }
      },
      "currencyExists(bytes32)": {
        "params": {
          "_ccy": "Currency name in bytes32"
        },
        "returns": {
          "_0": "The boolean if the selected currency is supported or not"
        }
      },
      "getCurrencies()": {
        "returns": {
          "_0": "The array of the currency"
        }
      },
      "getEthDecimals(bytes32)": {
        "params": {
          "_ccy": "Currency name in bytes32"
        }
      },
      "getHaircut(bytes32)": {
        "params": {
          "_ccy": "Currency name in bytes32"
        }
      },
      "getHistoricalETHPrice(bytes32,uint80)": {
        "params": {
          "_ccy": "Currency name in bytes32",
          "_roundId": "RoundId"
        },
        "returns": {
          "_0": "The historical price in ETH"
        }
      },
      "getHistoricalUSDPrice(bytes32,uint80)": {
        "params": {
          "_ccy": "Currency name in bytes32",
          "_roundId": "RoundId"
        },
        "returns": {
          "_0": "The historical price in USD"
        }
      },
      "getLastETHPrice(bytes32)": {
        "params": {
          "_ccy": "Currency name in bytes32"
        },
        "returns": {
          "price": "The last price in ETH"
        }
      },
      "getLastUSDPrice(bytes32)": {
        "params": {
          "_ccy": "Currency name in bytes32"
        },
        "returns": {
          "price": "The last price in USD"
        }
      },
      "getUsdDecimals(bytes32)": {
        "params": {
          "_ccy": "Currency name in bytes32"
        }
      },
      "initialize(address)": {
        "details": "Function is invoked by the proxy contract when the contract is added to the ProxyController.",
        "params": {
          "_owner": "The address of the contract owner"
        }
      },
      "linkPriceFeed(bytes32,address,bool)": {
        "details": "This method can use only Chainlink.",
        "params": {
          "_ccy": "Currency name in bytes32",
          "_isEthPriceFeed": "Boolean if the price feed is in ETH or not",
          "_priceFeedAddr": "The contract address of Chainlink price feed"
        },
        "returns": {
          "_0": "True if the execution of the operation succeeds"
        }
      },
      "owner()": {
        "details": "Returns the address of the current owner."
      },
      "removeCurrency(bytes32)": {
        "params": {
          "_ccy": "Currency name in bytes32"
        }
      },
      "removePriceFeed(bytes32,bool)": {
        "params": {
          "_ccy": "Currency name in bytes32",
          "_isEthPriceFeed": "Boolean if the price feed is in ETH or not"
        }
      },
      "renounceOwnership()": {
        "details": "Leaves the contract without owner. It will not be possible to call `onlyOwner` functions anymore. Can only be called by the current owner. NOTE: Renouncing ownership will leave the contract without an owner, thereby removing any functionality that is only available to the owner."
      },
      "transferOwnership(address)": {
        "details": "Transfers ownership of the contract to a new account (`newOwner`). Can only be called by the current owner."
      },
      "updateHaircut(bytes32,uint256)": {
        "params": {
          "_ccy": "Currency name in bytes32",
          "_haircut": "Remaining ratio after haircut"
        }
      }
    },
    "version": 1
  },
  "userdoc": {
    "kind": "user",
    "methods": {
      "addCurrency(bytes32,address,uint256)": {
        "notice": "Adds new currency into the protocol and links with existing ETH price feed of Chainlink."
      },
      "convert(bytes32,bytes32,uint256)": {
        "notice": "Gets the converted amount of currency."
      },
      "convertFromETH(bytes32,uint256)": {
        "notice": "Gets the converted amount to the selected currency from ETH."
      },
      "convertToETH(bytes32,int256)": {
        "notice": "Gets the converted amount of currency in ETH."
      },
      "convertToETH(bytes32,uint256)": {
        "notice": "Gets the converted amount of currency in ETH."
      },
      "convertToETH(bytes32,uint256[])": {
        "notice": "Gets the converted amounts of currency in ETH."
      },
      "currencyExists(bytes32)": {
        "notice": "Gets if the selected currency is supported."
      },
      "getCurrencies()": {
        "notice": "Gets all currencies."
      },
      "getEthDecimals(bytes32)": {
        "notice": "Get ETH decimal for the selected currency."
      },
      "getHaircut(bytes32)": {
        "notice": "Gets haircut ratio for the selected currency. Haircut is used in bilateral netting cross-calculation."
      },
      "getHistoricalETHPrice(bytes32,uint80)": {
        "notice": "Gets the historical price in ETH for the selected currency."
      },
      "getHistoricalUSDPrice(bytes32,uint80)": {
        "notice": "Gets the historical price in USD for the selected currency."
      },
      "getLastETHPrice(bytes32)": {
        "notice": "Gets the last price in ETH for the selected currency."
      },
      "getLastUSDPrice(bytes32)": {
        "notice": "Gets the last price in USD for the selected currency."
      },
      "getUsdDecimals(bytes32)": {
        "notice": "Gets USD decimal for the selected currency."
      },
      "initialize(address)": {
        "notice": "Initializes the contract."
      },
      "linkPriceFeed(bytes32,address,bool)": {
        "notice": "Links the contract to existing Chainlink price feed."
      },
      "removeCurrency(bytes32)": {
        "notice": "Updates the flag indicating if the currency is supported in the protocol."
      },
      "removePriceFeed(bytes32,bool)": {
        "notice": "Removes existing Chainlink price feed."
      },
      "updateHaircut(bytes32,uint256)": {
        "notice": "Updates the haircut ratio for supported currency"
      }
    },
    "notice": "Implements managing of the supported currencies in the protocol. This contract links new currencies to ETH Chainlink price feeds, without an existing price feed contract owner is not able to add a new currency into the protocol",
    "version": 1
  },
  "storageLayout": {
    "storage": [
      {
        "astId": 1183,
        "contract": "contracts/protocol/CurrencyController.sol:CurrencyController",
        "label": "_initialized",
        "offset": 0,
        "slot": "0",
        "type": "t_uint8"
      },
      {
        "astId": 1186,
        "contract": "contracts/protocol/CurrencyController.sol:CurrencyController",
        "label": "_initializing",
        "offset": 1,
        "slot": "0",
        "type": "t_bool"
      }
    ],
    "types": {
      "t_bool": {
        "encoding": "inplace",
        "label": "bool",
        "numberOfBytes": "1"
      },
      "t_uint8": {
        "encoding": "inplace",
        "label": "uint8",
        "numberOfBytes": "1"
      }
    }
  }
}