{
  "address": "0xf0DbFc70110A753a328f218F320ce6A81E9c03b4",
  "abi": [
    {
      "anonymous": false,
      "inputs": [
        {
          "indexed": true,
          "internalType": "bytes32",
          "name": "ccy",
          "type": "bytes32"
        },
        {
          "indexed": false,
          "internalType": "uint256",
          "name": "haircut",
          "type": "uint256"
        }
      ],
      "name": "CurrencyAdded",
      "type": "event"
    },
    {
      "anonymous": false,
      "inputs": [
        {
          "indexed": true,
          "internalType": "bytes32",
          "name": "ccy",
          "type": "bytes32"
        }
      ],
      "name": "CurrencyRemoved",
      "type": "event"
    },
    {
      "anonymous": false,
      "inputs": [
        {
          "indexed": true,
          "internalType": "bytes32",
          "name": "ccy",
          "type": "bytes32"
        },
        {
          "indexed": false,
          "internalType": "uint256",
          "name": "haircut",
          "type": "uint256"
        }
      ],
      "name": "HaircutUpdated",
      "type": "event"
    },
    {
      "anonymous": false,
      "inputs": [
        {
          "indexed": false,
          "internalType": "uint8",
          "name": "version",
          "type": "uint8"
        }
      ],
      "name": "Initialized",
      "type": "event"
    },
    {
      "anonymous": false,
      "inputs": [
        {
          "indexed": true,
          "internalType": "address",
          "name": "previousOwner",
          "type": "address"
        },
        {
          "indexed": true,
          "internalType": "address",
          "name": "newOwner",
          "type": "address"
        }
      ],
      "name": "OwnershipTransferred",
      "type": "event"
    },
    {
      "anonymous": false,
      "inputs": [
        {
          "indexed": false,
          "internalType": "bytes32",
          "name": "ccy",
          "type": "bytes32"
        }
      ],
      "name": "PriceFeedRemoved",
      "type": "event"
    },
    {
      "anonymous": false,
      "inputs": [
        {
          "indexed": false,
          "internalType": "bytes32",
          "name": "ccy",
          "type": "bytes32"
        },
        {
          "indexed": true,
          "internalType": "address[]",
          "name": "priceFeeds",
          "type": "address[]"
        }
      ],
      "name": "PriceFeedUpdated",
      "type": "event"
    },
    {
      "inputs": [
        {
          "internalType": "bytes32",
          "name": "_ccy",
          "type": "bytes32"
        },
        {
          "internalType": "uint256",
          "name": "_haircut",
          "type": "uint256"
        },
        {
          "internalType": "address[]",
          "name": "_priceFeeds",
          "type": "address[]"
        }
      ],
      "name": "addCurrency",
      "outputs": [],
      "stateMutability": "nonpayable",
      "type": "function"
    },
    {
      "inputs": [
        {
          "internalType": "bytes32",
          "name": "_fromCcy",
          "type": "bytes32"
        },
        {
          "internalType": "bytes32",
          "name": "_toCcy",
          "type": "bytes32"
        },
        {
          "internalType": "uint256",
          "name": "_amount",
          "type": "uint256"
        }
      ],
      "name": "convert",
      "outputs": [
        {
          "internalType": "uint256",
          "name": "amount",
          "type": "uint256"
        }
      ],
      "stateMutability": "view",
      "type": "function"
    },
    {
      "inputs": [
        {
          "internalType": "bytes32",
          "name": "_ccy",
          "type": "bytes32"
        },
        {
          "internalType": "uint256",
          "name": "_amount",
          "type": "uint256"
        }
      ],
      "name": "convertFromBaseCurrency",
      "outputs": [
        {
          "internalType": "uint256",
          "name": "amount",
          "type": "uint256"
        }
      ],
      "stateMutability": "view",
      "type": "function"
    },
    {
      "inputs": [
        {
          "internalType": "bytes32",
          "name": "_ccy",
          "type": "bytes32"
        },
        {
          "internalType": "uint256",
          "name": "_amount",
          "type": "uint256"
        }
      ],
      "name": "convertToBaseCurrency",
      "outputs": [
        {
          "internalType": "uint256",
          "name": "amount",
          "type": "uint256"
        }
      ],
      "stateMutability": "view",
      "type": "function"
    },
    {
      "inputs": [
        {
          "internalType": "bytes32",
          "name": "_ccy",
          "type": "bytes32"
        },
        {
          "internalType": "int256",
          "name": "_amount",
          "type": "int256"
        }
      ],
      "name": "convertToBaseCurrency",
      "outputs": [
        {
          "internalType": "int256",
          "name": "amount",
          "type": "int256"
        }
      ],
      "stateMutability": "view",
      "type": "function"
    },
    {
      "inputs": [
        {
          "internalType": "bytes32",
          "name": "_ccy",
          "type": "bytes32"
        },
        {
          "internalType": "uint256[]",
          "name": "_amounts",
          "type": "uint256[]"
        }
      ],
      "name": "convertToBaseCurrency",
      "outputs": [
        {
          "internalType": "uint256[]",
          "name": "amounts",
          "type": "uint256[]"
        }
      ],
      "stateMutability": "view",
      "type": "function"
    },
    {
      "inputs": [
        {
          "internalType": "bytes32",
          "name": "_ccy",
          "type": "bytes32"
        }
      ],
      "name": "currencyExists",
      "outputs": [
        {
          "internalType": "bool",
          "name": "",
          "type": "bool"
        }
      ],
      "stateMutability": "view",
      "type": "function"
    },
    {
      "inputs": [],
      "name": "getCurrencies",
      "outputs": [
        {
          "internalType": "bytes32[]",
          "name": "",
          "type": "bytes32[]"
        }
      ],
      "stateMutability": "view",
      "type": "function"
    },
    {
      "inputs": [
        {
          "internalType": "bytes32",
          "name": "_ccy",
          "type": "bytes32"
        }
      ],
      "name": "getDecimals",
      "outputs": [
        {
          "internalType": "uint8",
          "name": "",
          "type": "uint8"
        }
      ],
      "stateMutability": "view",
      "type": "function"
    },
    {
      "inputs": [
        {
          "internalType": "bytes32",
          "name": "_ccy",
          "type": "bytes32"
        }
      ],
      "name": "getHaircut",
      "outputs": [
        {
          "internalType": "uint256",
          "name": "",
          "type": "uint256"
        }
      ],
      "stateMutability": "view",
      "type": "function"
    },
    {
      "inputs": [
        {
          "internalType": "bytes32",
          "name": "_ccy",
          "type": "bytes32"
        }
      ],
      "name": "getLastPrice",
      "outputs": [
        {
          "internalType": "int256",
          "name": "price",
          "type": "int256"
        }
      ],
      "stateMutability": "view",
      "type": "function"
    },
    {
      "inputs": [
        {
          "internalType": "address",
          "name": "_owner",
          "type": "address"
        },
        {
          "internalType": "bytes32",
          "name": "_baseCcy",
          "type": "bytes32"
        }
      ],
      "name": "initialize",
      "outputs": [],
      "stateMutability": "nonpayable",
      "type": "function"
    },
    {
      "inputs": [],
      "name": "owner",
      "outputs": [
        {
          "internalType": "address",
          "name": "",
          "type": "address"
        }
      ],
      "stateMutability": "view",
      "type": "function"
    },
    {
      "inputs": [
        {
          "internalType": "bytes32",
          "name": "_ccy",
          "type": "bytes32"
        }
      ],
      "name": "removeCurrency",
      "outputs": [],
      "stateMutability": "nonpayable",
      "type": "function"
    },
    {
      "inputs": [
        {
          "internalType": "bytes32",
          "name": "_ccy",
          "type": "bytes32"
        }
      ],
      "name": "removePriceFeed",
      "outputs": [],
      "stateMutability": "nonpayable",
      "type": "function"
    },
    {
      "inputs": [],
      "name": "renounceOwnership",
      "outputs": [],
      "stateMutability": "nonpayable",
      "type": "function"
    },
    {
      "inputs": [
        {
          "internalType": "address",
          "name": "newOwner",
          "type": "address"
        }
      ],
      "name": "transferOwnership",
      "outputs": [],
      "stateMutability": "nonpayable",
      "type": "function"
    },
    {
      "inputs": [
        {
          "internalType": "bytes32",
          "name": "_ccy",
          "type": "bytes32"
        },
        {
          "internalType": "uint256",
          "name": "_haircut",
          "type": "uint256"
        }
      ],
      "name": "updateHaircut",
      "outputs": [],
      "stateMutability": "nonpayable",
      "type": "function"
    },
    {
      "inputs": [
        {
          "internalType": "bytes32",
          "name": "_ccy",
          "type": "bytes32"
        },
        {
          "internalType": "address[]",
          "name": "_priceFeeds",
          "type": "address[]"
        }
      ],
      "name": "updatePriceFeed",
      "outputs": [],
      "stateMutability": "nonpayable",
      "type": "function"
    }
  ],
  "transactionHash": "0xf96fdf1e01854b97997732da8d56918199fd09050a4164a4f178d654525dd931",
  "args": [],
  "numDeployments": 2,
  "solcInputHash": "b3f81b4aed61bdd5b53058f124d0fb80",
  "bytecode": "0x608060405234801561001057600080fd5b50611e46806100206000396000f3fe608060405234801561001057600080fd5b50600436106101215760003560e01c806378fec692116100ad578063be13f47c11610071578063be13f47c1461026b578063ee6c8b041461027e578063efd4ad5a14610291578063f2fde38b146102a4578063f44a1b35146102b757600080fd5b806378fec692146101ff5780638a2eae92146102125780638da5cb5b146102255780639abdb38a14610245578063b99c6ca81461025857600080fd5b80632491dc8c116100f45780632491dc8c146101a957806361c661de146101bc5780636ed2f1db146101d1578063715018a6146101e457806371bee4a1146101ec57600080fd5b806312105fea146101265780631c637a04146101505780631eae08931461017157806320ca088214610194575b600080fd5b6101396101343660046116ec565b6102ca565b60405160ff90911681526020015b60405180910390f35b61016361015e366004611705565b6102eb565b604051908152602001610147565b61018461017f3660046116ec565b610358565b6040519015158152602001610147565b6101a76101a2366004611773565b61036f565b005b6101636101b73660046116ec565b610418565b6101c4610440565b60405161014791906117c6565b6101636101df366004611705565b61045a565b6101a76104b6565b6101a76101fa366004611705565b6104f1565b61016361020d366004611705565b610555565b6101c4610220366004611820565b6105c6565b61022d6106ea565b6040516001600160a01b039091168152602001610147565b6101636102533660046116ec565b61071d565b6101636102663660046118ea565b61073b565b6101a7610279366004611932565b61082a565b6101a761028c36600461195c565b6109b4565b6101a761029f3660046116ec565b610a1a565b6101a76102b23660046119a8565b610a8d565b6101a76102c53660046116ec565b610b2d565b60006102d4610cb9565b600092835260050160205250604090205460ff1690565b60006102f683610cdd565b15610302575080610352565b61034f61031661031185610cf1565b610e36565b61031e610cb9565b6000868152600591909101602052604090205461033f9060ff16600a611abd565b6103499085611acc565b90610e8c565b90505b92915050565b600061035282610366610cb9565b60010190610efd565b336103786106ea565b6001600160a01b0316146103a75760405162461bcd60e51b815260040161039e90611aeb565b60405180910390fd5b6103bc846103b3610cb9565b60010190610f15565b506103c78484610f21565b80156103d8576103d884838361101b565b837f79e8862930b44b699510a91d2ef96e28ebbdb9963c1a41053f16b6b09a02f63a8460405161040a91815260200190565b60405180910390a250505050565b600061042382610cdd565b156104375750670de0b6b3a7640000919050565b61035282610cf1565b606061045561044d610cb9565b600101611311565b905090565b600061046583610cdd565b15610471575080610352565b8161047e57506000610352565b61034f610489610cb9565b600085815260059190910160205260409020546104aa9060ff16600a611abd565b61033f61031186610cf1565b336104bf6106ea565b6001600160a01b0316146104e55760405162461bcd60e51b815260040161039e90611aeb565b6104ef600061131c565b565b336104fa6106ea565b6001600160a01b0316146105205760405162461bcd60e51b815260040161039e90611aeb565b8161052a81610358565b6105465760405162461bcd60e51b815260040161039e90611b20565b6105508383610f21565b505050565b600061056083610cdd565b1561056c575080610352565b8161057957506000610352565b61034f6105ad610587610cb9565b600086815260059190910160205260409020546105a89060ff16600a611abd565b61138d565b6105b685610cf1565b6105c09085611b4b565b906113f7565b60606105d183610cdd565b156105dd575080610352565b815167ffffffffffffffff8111156105f7576105f761180a565b604051908082528060200260200182016040528015610620578160200160208202803683370190505b50905060005b82518110156106e35782818151811061064157610641611bd0565b602002602001015160001415610656576106d1565b6106b2610661610cb9565b600086815260059190910160205260409020546106829060ff16600a611abd565b61068e61031187610cf1565b8584815181106106a0576106a0611bd0565b60200260200101516103499190611acc565b8282815181106106c4576106c4611bd0565b6020026020010181815250505b806106db81611be6565b915050610626565b5092915050565b60007f9acda75aebd150dd434541a4747a6dc606f4f1a59662477e67daf1fc0bf9e0aa5b546001600160a01b0316919050565b6000610727610cb9565b600092835260030160205250604090205490565b60008284141561074c575080610823565b8161075957506000610823565b61076284610cdd565b156107785761077183836102eb565b9050610823565b61078183610cdd565b1561079057610771848361045a565b600061079b85610cf1565b905060006107a885610cf1565b905061081e816107b6610cb9565b600089815260059190910160205260409020546107d79060ff16600a611abd565b6107e19190611acc565b6107e9610cb9565b6000888152600591909101602052604090205461080a9060ff16600a611abd565b6108148588611acc565b6103499190611acc565b925050505b9392505050565b600054610100900460ff161580801561084a5750600054600160ff909116105b806108645750303b158015610864575060005460ff166001145b6108c75760405162461bcd60e51b815260206004820152602e60248201527f496e697469616c697a61626c653a20636f6e747261637420697320616c72656160448201526d191e481a5b9a5d1a585b1a5e995960921b606482015260840161039e565b6000805460ff1916600117905580156108ea576000805461ff0019166101001790555b60006108f461148a565b6001600160a01b031614156109565760405162461bcd60e51b815260206004820152602260248201527f4d7573742062652063616c6c65642066726f6d2070726f787920636f6e74726160448201526118dd60f21b606482015260840161039e565b61095f8361131c565b81610968610cb9565b558015610550576000805461ff0019169055604051600181527f7f26b83ff96e1f2b6a682f133852f6798a09c465da95921460cefb3847402498906020015b60405180910390a1505050565b336109bd6106ea565b6001600160a01b0316146109e35760405162461bcd60e51b815260040161039e90611aeb565b826109ed81610358565b610a095760405162461bcd60e51b815260040161039e90611b20565b610a1484848461101b565b50505050565b33610a236106ea565b6001600160a01b031614610a495760405162461bcd60e51b815260040161039e90611aeb565b610a5e81610a55610cb9565b600101906114b2565b5060405181907fa3c6a408fb053e3ef5e9bcd22e3574324a5ae99fad263cc4080da481842d3d4c90600090a250565b33610a966106ea565b6001600160a01b031614610abc5760405162461bcd60e51b815260040161039e90611aeb565b6001600160a01b038116610b215760405162461bcd60e51b815260206004820152602660248201527f4f776e61626c653a206e6577206f776e657220697320746865207a65726f206160448201526564647265737360d01b606482015260840161039e565b610b2a8161131c565b50565b33610b366106ea565b6001600160a01b031614610b5c5760405162461bcd60e51b815260040161039e90611aeb565b80610b6681610358565b610b825760405162461bcd60e51b815260040161039e90611b20565b6000610b8c610cb9565b6004016000848152602001908152602001600020805480602002602001604051908101604052809291908181526020018280548015610bf457602002820191906000526020600020905b81546001600160a01b03168152600190910190602001808311610bd6575b50505050509050805160001415610c425760405162461bcd60e51b8152602060048201526012602482015271496e76616c6964205072696365466565647360701b604482015260640161039e565b610c4a610cb9565b600084815260049190910160205260408120610c659161165c565b610c6d610cb9565b6000848152600591909101602052604090819020805460ff19169055517f0a216b769c52442ef5c8d765614bdde4b5257f3510ed38c82f78dd7a800c64f9906109a79085815260200190565b7fbf1f6da7b18d0b1bd723139ae003962c8fa874ed2f9ff2b1948edfe1e7915f5d90565b6000610ce7610cb9565b5491909114919050565b600080610cfc610cb9565b6004016000848152602001908152602001600020805480602002602001604051908101604052809291908181526020018280548015610d6457602002820191906000526020600020905b81546001600160a01b03168152600190910190602001808311610d46575b505050505090506001915060005b8151811015610e2f576000828281518110610d8f57610d8f611bd0565b60200260200101516001600160a01b031663feaf968c6040518163ffffffff1660e01b815260040160a06040518083038186803b158015610dcf57600080fd5b505afa158015610de3573d6000803e3d6000fd5b505050506040513d601f19601f82011682018060405250810190610e079190611c1b565b5050509150508084610e199190611b4b565b9350508080610e2790611be6565b915050610d72565b5050919050565b600080821215610e885760405162461bcd60e51b815260206004820181905260248201527f53616665436173743a2076616c7565206d75737420626520706f736974697665604482015260640161039e565b5090565b6000808211610e9a57600080fd5b6005610ea68385611c81565b610eb190600a611acc565b83610ebd86600a611acc565b610ec79190611c81565b610ed19190611c95565b1015610ee857610ee18284611c81565b9050610352565b610ef28284611c81565b610ee1906001611cac565b6000818152600183016020526040812054151561034f565b600061034f83836114be565b60008111610f715760405162461bcd60e51b815260206004820152601760248201527f496e636f7272656374206861697263757420726174696f000000000000000000604482015260640161039e565b612710811115610fbc5760405162461bcd60e51b81526020600482015260166024820152754861697263757420726174696f206f766572666c6f7760501b604482015260640161039e565b80610fc5610cb9565b600301600084815260200190815260200160002081905550817f99d976082a5e53ffddd334dbf2aec9b617affac6394470feb508f5fb662e0a1a8260405161100f91815260200190565b60405180910390a25050565b60008167ffffffffffffffff8111156110365761103661180a565b60405190808252806020026020018201604052801561105f578160200160208202803683370190505b5090506000805b8381101561126057600085858381811061108257611082611bd0565b905060200201602081019061109791906119a8565b90506000816001600160a01b031663feaf968c6040518163ffffffff1660e01b815260040160a06040518083038186803b1580156110d457600080fd5b505afa1580156110e8573d6000803e3d6000fd5b505050506040513d601f19601f8201168201806040525081019061110c9190611c1b565b50505091505060008112156111575760405162461bcd60e51b8152602060048201526011602482015270125b9d985b1a5908141c9a58d951995959607a1b604482015260640161039e565b6000826001600160a01b031663313ce5676040518163ffffffff1660e01b815260040160206040518083038186803b15801561119257600080fd5b505afa1580156111a6573d6000803e3d6000fd5b505050506040513d601f19601f820116820180604052508101906111ca9190611cc4565b905060128160ff1611156112135760405162461bcd60e51b815260206004820152601060248201526f496e76616c696420646563696d616c7360801b604482015260640161039e565b8286858151811061122657611226611bd0565b6001600160a01b03909216602092830291909101909101526112488186611ce7565b9450505050808061125890611be6565b915050611066565b508161126a610cb9565b6004016000878152602001908152602001600020908051906020019061129192919061167a565b508061129b610cb9565b6000878152600591909101602052604090819020805460ff191660ff9390931692909217909155516112d09085908590611d0c565b604051908190038120868252907ff6b0925a8561ae3b6409dd3800caec35dcf0b19204aac36b80a2cff926b01dc19060200160405180910390a25050505050565b60606103528261150d565b7f9acda75aebd150dd434541a4747a6dc606f4f1a59662477e67daf1fc0bf9e0aa80546001600160a01b038381166001600160a01b0319831681179093556040519116919082907f8be0079c531659141344cd1fd0a4f28419497f9722a3daafe3b4186f6b6457e090600090a35050565b60006001600160ff1b03821115610e885760405162461bcd60e51b815260206004820152602860248201527f53616665436173743a2076616c756520646f65736e27742066697420696e2061604482015267371034b73a191a9b60c11b606482015260840161039e565b60008161140357600080fd5b600061140f8385611d4c565b61141a90600a611b4b565b8361142686600a611b4b565b6114309190611d4c565b61143a9190611d7a565b9050600581126114615761144e8385611d4c565b611459906001611db9565b915050610352565b60041981136114805760016114768486611d4c565b6114599190611d7a565b6114598385611d4c565b60007f360894a13ba1a3210667c828492db98dca3e2076cc3735a920a3ca505d382bbc61070e565b600061034f8383611569565b600081815260018301602052604081205461150557508154600181810184556000848152602080822090930184905584548482528286019093526040902091909155610352565b506000610352565b60608160000180548060200260200160405190810160405280929190818152602001828054801561155d57602002820191906000526020600020905b815481526020019060010190808311611549575b50505050509050919050565b6000818152600183016020526040812054801561165257600061158d600183611c95565b85549091506000906115a190600190611c95565b90508181146116065760008660000182815481106115c1576115c1611bd0565b90600052602060002001549050808760000184815481106115e4576115e4611bd0565b6000918252602080832090910192909255918252600188019052604090208390555b855486908061161757611617611dfa565b600190038181906000526020600020016000905590558560010160008681526020019081526020016000206000905560019350505050610352565b6000915050610352565b5080546000825590600052602060002090810190610b2a91906116d7565b8280548282559060005260206000209081019282156116cf579160200282015b828111156116cf57825182546001600160a01b0319166001600160a01b0390911617825560209092019160019091019061169a565b50610e889291505b5b80821115610e8857600081556001016116d8565b6000602082840312156116fe57600080fd5b5035919050565b6000806040838503121561171857600080fd5b50508035926020909101359150565b60008083601f84011261173957600080fd5b50813567ffffffffffffffff81111561175157600080fd5b6020830191508360208260051b850101111561176c57600080fd5b9250929050565b6000806000806060858703121561178957600080fd5b8435935060208501359250604085013567ffffffffffffffff8111156117ae57600080fd5b6117ba87828801611727565b95989497509550505050565b6020808252825182820181905260009190848201906040850190845b818110156117fe578351835292840192918401916001016117e2565b50909695505050505050565b634e487b7160e01b600052604160045260246000fd5b6000806040838503121561183357600080fd5b8235915060208084013567ffffffffffffffff8082111561185357600080fd5b818601915086601f83011261186757600080fd5b8135818111156118795761187961180a565b8060051b604051601f19603f8301168101818110858211171561189e5761189e61180a565b6040529182528482019250838101850191898311156118bc57600080fd5b938501935b828510156118da578435845293850193928501926118c1565b8096505050505050509250929050565b6000806000606084860312156118ff57600080fd5b505081359360208301359350604090920135919050565b80356001600160a01b038116811461192d57600080fd5b919050565b6000806040838503121561194557600080fd5b61194e83611916565b946020939093013593505050565b60008060006040848603121561197157600080fd5b83359250602084013567ffffffffffffffff81111561198f57600080fd5b61199b86828701611727565b9497909650939450505050565b6000602082840312156119ba57600080fd5b61034f82611916565b634e487b7160e01b600052601160045260246000fd5b600181815b80851115611a145781600019048211156119fa576119fa6119c3565b80851615611a0757918102915b93841c93908002906119de565b509250929050565b600082611a2b57506001610352565b81611a3857506000610352565b8160018114611a4e5760028114611a5857611a74565b6001915050610352565b60ff841115611a6957611a696119c3565b50506001821b610352565b5060208310610133831016604e8410600b8410161715611a97575081810a610352565b611aa183836119d9565b8060001904821115611ab557611ab56119c3565b029392505050565b600061034f60ff841683611a1c565b6000816000190483118215151615611ae657611ae66119c3565b500290565b6020808252818101527f4f776e61626c653a2063616c6c6572206973206e6f7420746865206f776e6572604082015260600190565b602080825260119082015270155b9cdd5c1c1bdc9d195908185cdcd95d607a1b604082015260600190565b60006001600160ff1b0381841382841380821686840486111615611b7157611b716119c3565b600160ff1b6000871282811687830589121615611b9057611b906119c3565b60008712925087820587128484161615611bac57611bac6119c3565b87850587128184161615611bc257611bc26119c3565b505050929093029392505050565b634e487b7160e01b600052603260045260246000fd5b6000600019821415611bfa57611bfa6119c3565b5060010190565b805169ffffffffffffffffffff8116811461192d57600080fd5b600080600080600060a08688031215611c3357600080fd5b611c3c86611c01565b9450602086015193506040860151925060608601519150611c5f60808701611c01565b90509295509295909350565b634e487b7160e01b600052601260045260246000fd5b600082611c9057611c90611c6b565b500490565b600082821015611ca757611ca76119c3565b500390565b60008219821115611cbf57611cbf6119c3565b500190565b600060208284031215611cd657600080fd5b815160ff8116811461082357600080fd5b600060ff821660ff84168060ff03821115611d0457611d046119c3565b019392505050565b60008184825b85811015611d41576001600160a01b03611d2b83611916565b1683526020928301929190910190600101611d12565b509095945050505050565b600082611d5b57611d5b611c6b565b600160ff1b821460001984141615611d7557611d756119c3565b500590565b60008083128015600160ff1b850184121615611d9857611d986119c3565b6001600160ff1b0384018313811615611db357611db36119c3565b50500390565b600080821280156001600160ff1b0384900385131615611ddb57611ddb6119c3565b600160ff1b8390038412811615611df457611df46119c3565b50500190565b634e487b7160e01b600052603160045260246000fdfea2646970667358221220da4c26fedecc19e3b2c317eaeeb7db29f30075be8fa3c73a819938917c604ae164736f6c63430008090033",
  "implementation": "0x2b3eCFb8e71433D4A9b19Eb7E1FC13E67F3B8218",
  "devdoc": {
    "kind": "dev",
    "methods": {
      "addCurrency(bytes32,uint256,address[])": {
        "params": {
          "_ccy": "Currency name in bytes32k",
          "_haircut": "Remaining ratio after haircut",
          "_priceFeeds": "Array with the contract address of price feed"
        }
      },
      "convert(bytes32,bytes32,uint256)": {
        "params": {
          "_amount": "Amount to be converted",
          "_fromCcy": "Currency to convert from",
          "_toCcy": "Currency to convert to"
        },
        "returns": {
          "amount": "The converted amount"
        }
      },
      "convertFromBaseCurrency(bytes32,uint256)": {
        "params": {
          "_amount": "Amount in the base currency to be converted",
          "_ccy": "Currency that has to be converted from the base currency."
        },
        "returns": {
          "amount": "The converted amount"
        }
      },
      "convertToBaseCurrency(bytes32,int256)": {
        "params": {
          "_amount": "Amount to be converted",
          "_ccy": "Currency that has to be converted to the base currency."
        },
        "returns": {
          "amount": "The converted amount"
        }
      },
      "convertToBaseCurrency(bytes32,uint256)": {
        "params": {
          "_amount": "Amount to be converted",
          "_ccy": "Currency that has to be converted to the base currency"
        },
        "returns": {
          "amount": "The converted amount"
        }
      },
      "convertToBaseCurrency(bytes32,uint256[])": {
        "params": {
          "_amounts": "Amounts to be converted",
          "_ccy": "Currency that has to be converted to the base currency."
        },
        "returns": {
          "amounts": "The converted amounts"
        }
      },
      "currencyExists(bytes32)": {
        "params": {
          "_ccy": "Currency name in bytes32"
        },
        "returns": {
          "_0": "The boolean if the selected currency is supported or not"
        }
      },
      "getCurrencies()": {
        "returns": {
          "_0": "The array of the currency"
        }
      },
      "getDecimals(bytes32)": {
        "params": {
          "_ccy": "Currency name in bytes32"
        }
      },
      "getHaircut(bytes32)": {
        "params": {
          "_ccy": "Currency name in bytes32"
        }
      },
      "getLastPrice(bytes32)": {
        "params": {
          "_ccy": "Currency name in bytes32"
        },
        "returns": {
          "price": "The last price"
        }
      },
      "initialize(address,bytes32)": {
        "details": "Function is invoked by the proxy contract when the contract is added to the ProxyController.",
        "params": {
          "_baseCcy": "The base currency name in bytes32",
          "_owner": "The address of the contract owner"
        }
      },
      "owner()": {
        "details": "Returns the address of the current owner."
      },
      "removeCurrency(bytes32)": {
        "params": {
          "_ccy": "Currency name in bytes32"
        }
      },
      "removePriceFeed(bytes32)": {
        "params": {
          "_ccy": "Currency name in bytes32"
        }
      },
      "renounceOwnership()": {
        "details": "Leaves the contract without owner. It will not be possible to call `onlyOwner` functions anymore. Can only be called by the current owner. NOTE: Renouncing ownership will leave the contract without an owner, thereby removing any functionality that is only available to the owner."
      },
      "transferOwnership(address)": {
        "details": "Transfers ownership of the contract to a new account (`newOwner`). Can only be called by the current owner."
      },
      "updateHaircut(bytes32,uint256)": {
        "params": {
          "_ccy": "Currency name in bytes32",
          "_haircut": "Remaining ratio after haircut"
        }
      },
      "updatePriceFeed(bytes32,address[])": {
        "params": {
          "_ccy": "Currency name in bytes32",
          "_priceFeeds": "Array with the contract address of price feed"
        }
      }
    },
    "version": 1
  },
  "userdoc": {
    "kind": "user",
    "methods": {
      "addCurrency(bytes32,uint256,address[])": {
        "notice": "Adds new currency into the protocol and links with existing price feed."
      },
      "convert(bytes32,bytes32,uint256)": {
        "notice": "Gets the converted amount of currency."
      },
      "convertFromBaseCurrency(bytes32,uint256)": {
        "notice": "Gets the converted amount to the selected currency from the base currency."
      },
      "convertToBaseCurrency(bytes32,int256)": {
        "notice": "Gets the converted amount in the base currency."
      },
      "convertToBaseCurrency(bytes32,uint256)": {
        "notice": "Gets the converted amount in the base currency."
      },
      "convertToBaseCurrency(bytes32,uint256[])": {
        "notice": "Gets the converted amounts in the base currency."
      },
      "currencyExists(bytes32)": {
        "notice": "Gets if the selected currency is supported."
      },
      "getCurrencies()": {
        "notice": "Gets all currencies."
      },
      "getDecimals(bytes32)": {
        "notice": "Gets cached decimal of the price feed for the selected currency."
      },
      "getHaircut(bytes32)": {
        "notice": "Gets haircut ratio for the selected currency. Haircut is used in bilateral netting cross-calculation."
      },
      "getLastPrice(bytes32)": {
        "notice": "Gets the last price for the selected currency."
      },
      "initialize(address,bytes32)": {
        "notice": "Initializes the contract."
      },
      "removeCurrency(bytes32)": {
        "notice": "Updates the flag indicating if the currency is supported in the protocol."
      },
      "removePriceFeed(bytes32)": {
        "notice": "Removes existing Chainlink price feed."
      },
      "updateHaircut(bytes32,uint256)": {
        "notice": "Updates the haircut ratio for supported currency"
      },
      "updatePriceFeed(bytes32,address[])": {
        "notice": "Update the price feed contract addresses."
      }
    },
    "notice": "Implements managing of the supported currencies in the protocol. This contract links new currencies to Chainlink price feeds. To add a new currency to the protocol except for the base currency, the owner needs to also add an existing price feed contract.",
    "version": 1
  },
  "storageLayout": {
    "storage": [
      {
        "astId": 1183,
        "contract": "contracts/protocol/CurrencyController.sol:CurrencyController",
        "label": "_initialized",
        "offset": 0,
        "slot": "0",
        "type": "t_uint8"
      },
      {
        "astId": 1186,
        "contract": "contracts/protocol/CurrencyController.sol:CurrencyController",
        "label": "_initializing",
        "offset": 1,
        "slot": "0",
        "type": "t_bool"
      }
    ],
    "types": {
      "t_bool": {
        "encoding": "inplace",
        "label": "bool",
        "numberOfBytes": "1"
      },
      "t_uint8": {
        "encoding": "inplace",
        "label": "uint8",
        "numberOfBytes": "1"
      }
    }
  }
}