{
  "address": "0x9270CF4188c1D5D6Bb27723ade0e49E57B7571B8",
  "abi": [
    {
      "anonymous": false,
      "inputs": [
        {
          "indexed": true,
          "internalType": "bytes32",
          "name": "ccy",
          "type": "bytes32"
        },
        {
          "indexed": false,
          "internalType": "string",
          "name": "name",
          "type": "string"
        },
        {
          "indexed": false,
          "internalType": "uint256",
          "name": "haircut",
          "type": "uint256"
        }
      ],
      "name": "CcyAdded",
      "type": "event"
    },
    {
      "anonymous": false,
      "inputs": [
        {
          "indexed": true,
          "internalType": "bytes32",
          "name": "ccy",
          "type": "bytes32"
        },
        {
          "indexed": false,
          "internalType": "bool",
          "name": "isSupported",
          "type": "bool"
        }
      ],
      "name": "CcySupportUpdate",
      "type": "event"
    },
    {
      "anonymous": false,
      "inputs": [
        {
          "indexed": true,
          "internalType": "bytes32",
          "name": "ccy",
          "type": "bytes32"
        },
        {
          "indexed": false,
          "internalType": "uint256",
          "name": "haircut",
          "type": "uint256"
        }
      ],
      "name": "HaircutUpdated",
      "type": "event"
    },
    {
      "anonymous": false,
      "inputs": [
        {
          "indexed": false,
          "internalType": "uint8",
          "name": "version",
          "type": "uint8"
        }
      ],
      "name": "Initialized",
      "type": "event"
    },
    {
      "anonymous": false,
      "inputs": [
        {
          "indexed": true,
          "internalType": "address",
          "name": "previousOwner",
          "type": "address"
        },
        {
          "indexed": true,
          "internalType": "address",
          "name": "newOwner",
          "type": "address"
        }
      ],
      "name": "OwnershipTransferred",
      "type": "event"
    },
    {
      "anonymous": false,
      "inputs": [
        {
          "indexed": false,
          "internalType": "bytes32",
          "name": "ccy",
          "type": "bytes32"
        },
        {
          "indexed": false,
          "internalType": "string",
          "name": "secondCcy",
          "type": "string"
        },
        {
          "indexed": true,
          "internalType": "address",
          "name": "priceFeed",
          "type": "address"
        }
      ],
      "name": "PriceFeedAdded",
      "type": "event"
    },
    {
      "anonymous": false,
      "inputs": [
        {
          "indexed": false,
          "internalType": "bytes32",
          "name": "ccy",
          "type": "bytes32"
        },
        {
          "indexed": false,
          "internalType": "string",
          "name": "secondCcy",
          "type": "string"
        },
        {
          "indexed": true,
          "internalType": "address",
          "name": "priceFeed",
          "type": "address"
        }
      ],
      "name": "PriceFeedRemoved",
      "type": "event"
    },
    {
      "inputs": [
        {
          "internalType": "bytes32",
          "name": "_ccy",
          "type": "bytes32"
        },
        {
          "internalType": "uint256",
          "name": "_amountETH",
          "type": "uint256"
        }
      ],
      "name": "convertFromETH",
      "outputs": [
        {
          "internalType": "uint256",
          "name": "",
          "type": "uint256"
        }
      ],
      "stateMutability": "view",
      "type": "function"
    },
    {
      "inputs": [
        {
          "internalType": "bytes32",
          "name": "_ccy",
          "type": "bytes32"
        },
        {
          "internalType": "int256",
          "name": "_amount",
          "type": "int256"
        }
      ],
      "name": "convertToETH",
      "outputs": [
        {
          "internalType": "int256",
          "name": "",
          "type": "int256"
        }
      ],
      "stateMutability": "view",
      "type": "function"
    },
    {
      "inputs": [
        {
          "internalType": "bytes32",
          "name": "_ccy",
          "type": "bytes32"
        },
        {
          "internalType": "uint256",
          "name": "_amount",
          "type": "uint256"
        }
      ],
      "name": "convertToETH",
      "outputs": [
        {
          "internalType": "uint256",
          "name": "",
          "type": "uint256"
        }
      ],
      "stateMutability": "view",
      "type": "function"
    },
    {
      "inputs": [
        {
          "internalType": "bytes32",
          "name": "_ccy",
          "type": "bytes32"
        },
        {
          "internalType": "uint256[]",
          "name": "_amounts",
          "type": "uint256[]"
        }
      ],
      "name": "convertToETH",
      "outputs": [
        {
          "internalType": "uint256[]",
          "name": "amounts",
          "type": "uint256[]"
        }
      ],
      "stateMutability": "view",
      "type": "function"
    },
    {
      "inputs": [
        {
          "internalType": "bytes32",
          "name": "_ccy",
          "type": "bytes32"
        }
      ],
      "name": "getCurrencies",
      "outputs": [
        {
          "components": [
            {
              "internalType": "bool",
              "name": "isSupported",
              "type": "bool"
            },
            {
              "internalType": "string",
              "name": "name",
              "type": "string"
            }
          ],
          "internalType": "struct Currency",
          "name": "",
          "type": "tuple"
        }
      ],
      "stateMutability": "view",
      "type": "function"
    },
    {
      "inputs": [
        {
          "internalType": "bytes32",
          "name": "_ccy",
          "type": "bytes32"
        }
      ],
      "name": "getEthDecimals",
      "outputs": [
        {
          "internalType": "uint8",
          "name": "",
          "type": "uint8"
        }
      ],
      "stateMutability": "view",
      "type": "function"
    },
    {
      "inputs": [
        {
          "internalType": "bytes32",
          "name": "_ccy",
          "type": "bytes32"
        }
      ],
      "name": "getHaircut",
      "outputs": [
        {
          "internalType": "uint256",
          "name": "",
          "type": "uint256"
        }
      ],
      "stateMutability": "view",
      "type": "function"
    },
    {
      "inputs": [
        {
          "internalType": "bytes32",
          "name": "_ccy",
          "type": "bytes32"
        },
        {
          "internalType": "uint80",
          "name": "_roundId",
          "type": "uint80"
        }
      ],
      "name": "getHistoricalETHPrice",
      "outputs": [
        {
          "internalType": "int256",
          "name": "",
          "type": "int256"
        }
      ],
      "stateMutability": "view",
      "type": "function"
    },
    {
      "inputs": [
        {
          "internalType": "bytes32",
          "name": "_ccy",
          "type": "bytes32"
        },
        {
          "internalType": "uint80",
          "name": "_roundId",
          "type": "uint80"
        }
      ],
      "name": "getHistoricalUSDPrice",
      "outputs": [
        {
          "internalType": "int256",
          "name": "",
          "type": "int256"
        }
      ],
      "stateMutability": "view",
      "type": "function"
    },
    {
      "inputs": [
        {
          "internalType": "bytes32",
          "name": "_ccy",
          "type": "bytes32"
        }
      ],
      "name": "getLastETHPrice",
      "outputs": [
        {
          "internalType": "int256",
          "name": "",
          "type": "int256"
        }
      ],
      "stateMutability": "view",
      "type": "function"
    },
    {
      "inputs": [
        {
          "internalType": "bytes32",
          "name": "_ccy",
          "type": "bytes32"
        }
      ],
      "name": "getLastUSDPrice",
      "outputs": [
        {
          "internalType": "int256",
          "name": "",
          "type": "int256"
        }
      ],
      "stateMutability": "view",
      "type": "function"
    },
    {
      "inputs": [
        {
          "internalType": "bytes32",
          "name": "_ccy",
          "type": "bytes32"
        }
      ],
      "name": "getUsdDecimals",
      "outputs": [
        {
          "internalType": "uint8",
          "name": "",
          "type": "uint8"
        }
      ],
      "stateMutability": "view",
      "type": "function"
    },
    {
      "inputs": [
        {
          "internalType": "address",
          "name": "_owner",
          "type": "address"
        }
      ],
      "name": "initialize",
      "outputs": [],
      "stateMutability": "nonpayable",
      "type": "function"
    },
    {
      "inputs": [
        {
          "internalType": "bytes32",
          "name": "_ccy",
          "type": "bytes32"
        }
      ],
      "name": "isSupportedCcy",
      "outputs": [
        {
          "internalType": "bool",
          "name": "",
          "type": "bool"
        }
      ],
      "stateMutability": "view",
      "type": "function"
    },
    {
      "inputs": [
        {
          "internalType": "bytes32",
          "name": "_ccy",
          "type": "bytes32"
        },
        {
          "internalType": "address",
          "name": "_priceFeedAddr",
          "type": "address"
        },
        {
          "internalType": "bool",
          "name": "_isEthPriceFeed",
          "type": "bool"
        }
      ],
      "name": "linkPriceFeed",
      "outputs": [
        {
          "internalType": "bool",
          "name": "",
          "type": "bool"
        }
      ],
      "stateMutability": "nonpayable",
      "type": "function"
    },
    {
      "inputs": [],
      "name": "owner",
      "outputs": [
        {
          "internalType": "address",
          "name": "",
          "type": "address"
        }
      ],
      "stateMutability": "view",
      "type": "function"
    },
    {
      "inputs": [
        {
          "internalType": "bytes32",
          "name": "_ccy",
          "type": "bytes32"
        },
        {
          "internalType": "bool",
          "name": "_isEthPriceFeed",
          "type": "bool"
        }
      ],
      "name": "removePriceFeed",
      "outputs": [],
      "stateMutability": "nonpayable",
      "type": "function"
    },
    {
      "inputs": [],
      "name": "renounceOwnership",
      "outputs": [],
      "stateMutability": "nonpayable",
      "type": "function"
    },
    {
      "inputs": [
        {
          "internalType": "bytes32",
          "name": "_ccy",
          "type": "bytes32"
        },
        {
          "internalType": "string",
          "name": "_name",
          "type": "string"
        },
        {
          "internalType": "address",
          "name": "_ethPriceFeed",
          "type": "address"
        },
        {
          "internalType": "uint256",
          "name": "_haircut",
          "type": "uint256"
        }
      ],
      "name": "supportCurrency",
      "outputs": [],
      "stateMutability": "nonpayable",
      "type": "function"
    },
    {
      "inputs": [
        {
          "internalType": "address",
          "name": "newOwner",
          "type": "address"
        }
      ],
      "name": "transferOwnership",
      "outputs": [],
      "stateMutability": "nonpayable",
      "type": "function"
    },
    {
      "inputs": [
        {
          "internalType": "bytes32",
          "name": "_ccy",
          "type": "bytes32"
        },
        {
          "internalType": "uint256",
          "name": "_haircut",
          "type": "uint256"
        }
      ],
      "name": "updateCcyHaircut",
      "outputs": [],
      "stateMutability": "nonpayable",
      "type": "function"
    },
    {
      "inputs": [
        {
          "internalType": "bytes32",
          "name": "_ccy",
          "type": "bytes32"
        },
        {
          "internalType": "bool",
          "name": "_isSupported",
          "type": "bool"
        }
      ],
      "name": "updateCurrencySupport",
      "outputs": [],
      "stateMutability": "nonpayable",
      "type": "function"
    }
  ],
  "transactionHash": "0x9bcbde59b60f6ea3bf2bd0392de1bf0b597834fc2d517666c158412b9b09c60f",
  "args": [],
  "numDeployments": 2,
  "solcInputHash": "c342d2bd1c99543a927721b4c81728b9",
  "bytecode": "0x608060405234801561001057600080fd5b50611ef4806100206000396000f3fe608060405234801561001057600080fd5b50600436106101425760003560e01c80638da5cb5b116100b8578063cc8dd9f11161007c578063cc8dd9f1146102ba578063d090faf0146102dd578063d4d4f6ce146102f0578063ea6c88a514610303578063f2fde38b14610316578063facae93f1461032957600080fd5b80638da5cb5b14610241578063939fe622146102615780639abdb38a14610281578063b11459b414610294578063c4d66de8146102a757600080fd5b806350326d221161010a57806350326d22146101cb5780635e5658d2146101de57806360cd4478146101fe5780636d01544d14610211578063715018a6146102245780637b7904e31461022e57600080fd5b8063042613711461014757806306d062ad146101715780631743ffce146101925780633a0a22f0146101a557806344a6ecdd146101b8575b600080fd5b61015a61015536600461189a565b61033c565b60405160ff90911681526020015b60405180910390f35b61018461017f3660046118b3565b61035d565b604051908152602001610168565b6101846101a036600461189a565b61043c565b6101846101b33660046118b3565b610500565b6101846101c63660046118b3565b6105d4565b6101846101d936600461189a565b61069e565b6101f16101ec36600461189a565b6106ff565b6040516101689190611922565b61018461020c366004611969565b6107dd565b61018461021f366004611969565b610908565b61022c610964565b005b61022c61023c3660046119ae565b61099f565b610249610bfd565b6040516001600160a01b039091168152602001610168565b61027461026f366004611a21565b610c30565b6040516101689190611ad3565b61018461028f36600461189a565b610da9565b61022c6102a23660046118b3565b610dc7565b61022c6102b5366004611b2e565b610f3b565b6102cd6102c8366004611b50565b6110ba565b6040519015158152602001610168565b61022c6102eb366004611b8c565b611497565b6102cd6102fe36600461189a565b6115dd565b61022c6103113660046119ae565b6115fb565b61022c610324366004611b2e565b611683565b61015a61033736600461189a565b611723565b6000610346611744565b600092835260040160205250604090205460ff1690565b60006208aa8960eb1b831415610374575080610436565b600061037e611744565b60008581526003919091016020526040808220548151633fabe5a360e21b815291516001600160a01b039091169350839163feaf968c9160048083019260a0929190829003018186803b1580156103d457600080fd5b505afa1580156103e8573d6000803e3d6000fd5b505050506040513d601f19601f8201168201806040525081019061040c9190611c43565b5050509150508084670de0b6b3a76400006104279190611cb1565b6104319190611ce6565b925050505b92915050565b60006208aa8960eb1b82141561045b5750670de0b6b3a7640000919050565b6000610465611744565b60008481526003919091016020526040808220548151633fabe5a360e21b815291516001600160a01b039091169350839163feaf968c9160048083019260a0929190829003018186803b1580156104bb57600080fd5b505afa1580156104cf573d6000803e3d6000fd5b505050506040513d601f19601f820116820180604052508101906104f39190611c43565b5091979650505050505050565b60006208aa8960eb1b831415610517575080610436565b6000610521611744565b60008581526003919091016020526040808220548151633fabe5a360e21b815291516001600160a01b039091169350839163feaf968c9160048083019260a0929190829003018186803b15801561057757600080fd5b505afa15801561058b573d6000803e3d6000fd5b505050506040513d601f19601f820116820180604052508101906105af9190611c43565b505050915050670de0b6b3a764000081856105ca9190611cfa565b6104319190611d7f565b60006208aa8960eb1b8314156105eb575080610436565b60006105f5611744565b60008581526003919091016020526040808220548151633fabe5a360e21b815291516001600160a01b039091169350839163feaf968c9160048083019260a0929190829003018186803b15801561064b57600080fd5b505afa15801561065f573d6000803e3d6000fd5b505050506040513d601f19601f820116820180604052508101906106839190611c43565b505050915050670de0b6b3a764000081856104279190611cb1565b6000806106a9611744565b60008481526002919091016020526040808220548151633fabe5a360e21b815291516001600160a01b039091169350839163feaf968c9160048083019260a0929190829003018186803b1580156104bb57600080fd5b60408051808201909152600081526060602082015261071c611744565b600083815260209182526040908190208151808301909252805460ff1615158252600181018054929391929184019161075490611dad565b80601f016020809104026020016040519081016040528092919081815260200182805461078090611dad565b80156107cd5780601f106107a2576101008083540402835291602001916107cd565b820191906000526020600020905b8154815290600101906020018083116107b057829003601f168201915b5050505050815250509050919050565b60006208aa8960eb1b8314156107fc5750670de0b6b3a7640000610436565b6000610806611744565b60008581526003919091016020526040808220549051639a6fc8f560e01b815269ffffffffffffffffffff861660048201526001600160a01b03909116925081908390639a6fc8f5906024015b60a06040518083038186803b15801561086b57600080fd5b505afa15801561087f573d6000803e3d6000fd5b505050506040513d601f19601f820116820180604052508101906108a39190611c43565b50935050925050600081116108ff5760405162461bcd60e51b815260206004820152601760248201527f526f756e64206e6f7420636f6d706c657465642079657400000000000000000060448201526064015b60405180910390fd5b50949350505050565b600080610913611744565b60008581526002919091016020526040808220549051639a6fc8f560e01b815269ffffffffffffffffffff861660048201526001600160a01b03909116925081908390639a6fc8f590602401610853565b3361096d610bfd565b6001600160a01b0316146109935760405162461bcd60e51b81526004016108f690611de8565b61099d6000611768565b565b336109a8610bfd565b6001600160a01b0316146109ce5760405162461bcd60e51b81526004016108f690611de8565b816109d8816115dd565b610a185760405162461bcd60e51b8152602060048201526011602482015270155b9cdd5c1c1bdc9d195908185cdcd95d607a1b60448201526064016108f6565b60018215151415610b17576000610a2d611744565b600085815260039190910160205260409020546001600160a01b0316905080610a685760405162461bcd60e51b81526004016108f690611e1d565b610a70611744565b60008581526003919091016020526040902080546001600160a01b0319169055610a98611744565b6000858152600591909101602052604090819020805460ff19169055516001600160a01b038216907ea0d5a605fe34a5efa696fb7b7fc385f4efcc9d0ff516d7dc7a1cbfbe065ee790610b09908781526040602082018190526003908201526208aa8960eb1b606082015260800190565b60405180910390a250505050565b6000610b21611744565b600085815260029190910160205260409020546001600160a01b0316905080610b5c5760405162461bcd60e51b81526004016108f690611e1d565b610b64611744565b60008581526002919091016020526040902080546001600160a01b0319169055610b8c611744565b6000858152600491909101602052604090819020805460ff19169055516001600160a01b038216907ea0d5a605fe34a5efa696fb7b7fc385f4efcc9d0ff516d7dc7a1cbfbe065ee790610b0990878152604060208201819052600390820152621554d160ea1b606082015260800190565b60007f9acda75aebd150dd434541a4747a6dc606f4f1a59662477e67daf1fc0bf9e0aa5b546001600160a01b0316919050565b60606208aa8960eb1b831415610c47575080610436565b815167ffffffffffffffff811115610c6157610c616119da565b604051908082528060200260200182016040528015610c8a578160200160208202803683370190505b50905060005b8251811015610da2576000610ca3611744565b60008681526003919091016020526040808220548151633fabe5a360e21b815291516001600160a01b039091169350839163feaf968c9160048083019260a0929190829003018186803b158015610cf957600080fd5b505afa158015610d0d573d6000803e3d6000fd5b505050506040513d601f19601f82011682018060405250810190610d319190611c43565b505050915050670de0b6b3a764000081868581518110610d5357610d53611e48565b6020026020010151610d659190611cb1565b610d6f9190611ce6565b848481518110610d8157610d81611e48565b60200260200101818152505050508080610d9a90611e5e565b915050610c90565b5092915050565b6000610db3611744565b600092835260010160205250604090205490565b33610dd0610bfd565b6001600160a01b031614610df65760405162461bcd60e51b81526004016108f690611de8565b81610e00816115dd565b610e405760405162461bcd60e51b8152602060048201526011602482015270155b9cdd5c1c1bdc9d195908185cdcd95d607a1b60448201526064016108f6565b60008211610e905760405162461bcd60e51b815260206004820152601760248201527f496e636f7272656374206861697263757420726174696f00000000000000000060448201526064016108f6565b612710821115610edb5760405162461bcd60e51b81526020600482015260166024820152754861697263757420726174696f206f766572666c6f7760501b60448201526064016108f6565b81610ee4611744565b600101600085815260200190815260200160002081905550827f99d976082a5e53ffddd334dbf2aec9b617affac6394470feb508f5fb662e0a1a83604051610f2e91815260200190565b60405180910390a2505050565b600054610100900460ff1615808015610f5b5750600054600160ff909116105b80610f755750303b158015610f75575060005460ff166001145b610fd85760405162461bcd60e51b815260206004820152602e60248201527f496e697469616c697a61626c653a20636f6e747261637420697320616c72656160448201526d191e481a5b9a5d1a585b1a5e995960921b60648201526084016108f6565b6000805460ff191660011790558015610ffb576000805461ff0019166101001790555b60006110056117d9565b6001600160a01b031614156110675760405162461bcd60e51b815260206004820152602260248201527f4d7573742062652063616c6c65642066726f6d2070726f787920636f6e74726160448201526118dd60f21b60648201526084016108f6565b61107082611768565b80156110b6576000805461ff0019169055604051600181527f7f26b83ff96e1f2b6a682f133852f6798a09c465da95921460cefb38474024989060200160405180910390a15b5050565b6000336110c5610bfd565b6001600160a01b0316146110eb5760405162461bcd60e51b81526004016108f690611de8565b6001600160a01b0383166111415760405162461bcd60e51b815260206004820152601960248201527f436f756c646e2774206c696e6b2030783020616464726573730000000000000060448201526064016108f6565b60008390506000816001600160a01b031663feaf968c6040518163ffffffff1660e01b815260040160a06040518083038186803b15801561118157600080fd5b505afa158015611195573d6000803e3d6000fd5b505050506040513d601f19601f820116820180604052508101906111b99190611c43565b50505091505060008112156111e05760405162461bcd60e51b81526004016108f690611e1d565b6000826001600160a01b031663313ce5676040518163ffffffff1660e01b815260040160206040518083038186803b15801561121b57600080fd5b505afa15801561122f573d6000803e3d6000fd5b505050506040513d601f19601f820116820180604052508101906112539190611e79565b905060128160ff16111561129c5760405162461bcd60e51b815260206004820152601060248201526f496e76616c696420646563696d616c7360801b60448201526064016108f6565b84156113bd576208aa8960eb1b8714156112ec5760405162461bcd60e51b8152602060048201526011602482015270086c2dc4ee840d8d2dcd640e8de408aa89607b1b60448201526064016108f6565b826112f5611744565b60008981526003919091016020526040902080546001600160a01b0319166001600160a01b03929092169190911790558061132e611744565b600501600089815260200190815260200160002060006101000a81548160ff021916908360ff160217905550856001600160a01b03167f6537ffaaeebdb294479a8b7fab1081c2b15de1a4bc9df657aad801547748fa4a886040516113b09181526040602082018190526003908201526208aa8960eb1b606082015260800190565b60405180910390a261148a565b826113c6611744565b60008981526002919091016020526040902080546001600160a01b0319166001600160a01b0392909216919091179055806113ff611744565b600401600089815260200190815260200160002060006101000a81548160ff021916908360ff160217905550856001600160a01b03167f6537ffaaeebdb294479a8b7fab1081c2b15de1a4bc9df657aad801547748fa4a88604051611481918152604060208201819052600390820152621554d160ea1b606082015260800190565b60405180910390a25b5060019695505050505050565b336114a0610bfd565b6001600160a01b0316146114c65760405162461bcd60e51b81526004016108f690611de8565b604080518082019091526020810184905260018152806114e4611744565b60008781526020918252604090208251815460ff1916901515178155828201518051919261151a92600185019290910190611801565b5090505081611527611744565b600087815260019190910160205260409020556208aa8960eb1b851461157457611553858460016110ba565b61156f5760405162461bcd60e51b81526004016108f690611e1d565b61159c565b611580858460006110ba565b61159c5760405162461bcd60e51b81526004016108f690611e1d565b847fac23727d2c524a59eb5ce3843d78ac0fecf91617367c24767157f62d5ad006e985846040516115ce929190611e9c565b60405180910390a25050505050565b60006115e7611744565b600092835260205250604090205460ff1690565b33611604610bfd565b6001600160a01b03161461162a5760405162461bcd60e51b81526004016108f690611de8565b6000611634611744565b60008481526020918252604090819020805460ff191685151590811782559151918252925084917f9abbefd519a8bdb26fbc476187bc19038a6a41a175946595f6e9e900d9eb2a319101610f2e565b3361168c610bfd565b6001600160a01b0316146116b25760405162461bcd60e51b81526004016108f690611de8565b6001600160a01b0381166117175760405162461bcd60e51b815260206004820152602660248201527f4f776e61626c653a206e6577206f776e657220697320746865207a65726f206160448201526564647265737360d01b60648201526084016108f6565b61172081611768565b50565b600061172d611744565b600092835260050160205250604090205460ff1690565b7fbf1f6da7b18d0b1bd723139ae003962c8fa874ed2f9ff2b1948edfe1e7915f5d90565b7f9acda75aebd150dd434541a4747a6dc606f4f1a59662477e67daf1fc0bf9e0aa80546001600160a01b038381166001600160a01b0319831681179093556040519116919082907f8be0079c531659141344cd1fd0a4f28419497f9722a3daafe3b4186f6b6457e090600090a35050565b60007f360894a13ba1a3210667c828492db98dca3e2076cc3735a920a3ca505d382bbc610c21565b82805461180d90611dad565b90600052602060002090601f01602090048101928261182f5760008555611875565b82601f1061184857805160ff1916838001178555611875565b82800160010185558215611875579182015b8281111561187557825182559160200191906001019061185a565b50611881929150611885565b5090565b5b808211156118815760008155600101611886565b6000602082840312156118ac57600080fd5b5035919050565b600080604083850312156118c657600080fd5b50508035926020909101359150565b6000815180845260005b818110156118fb576020818501810151868301820152016118df565b8181111561190d576000602083870101525b50601f01601f19169290920160200192915050565b602081528151151560208201526000602083015160408084015261194960608401826118d5565b949350505050565b69ffffffffffffffffffff8116811461172057600080fd5b6000806040838503121561197c57600080fd5b82359150602083013561198e81611951565b809150509250929050565b803580151581146119a957600080fd5b919050565b600080604083850312156119c157600080fd5b823591506119d160208401611999565b90509250929050565b634e487b7160e01b600052604160045260246000fd5b604051601f8201601f1916810167ffffffffffffffff81118282101715611a1957611a196119da565b604052919050565b60008060408385031215611a3457600080fd5b8235915060208084013567ffffffffffffffff80821115611a5457600080fd5b818601915086601f830112611a6857600080fd5b813581811115611a7a57611a7a6119da565b8060051b9150611a8b8483016119f0565b8181529183018401918481019089841115611aa557600080fd5b938501935b83851015611ac357843582529385019390850190611aaa565b8096505050505050509250929050565b6020808252825182820181905260009190848201906040850190845b81811015611b0b57835183529284019291840191600101611aef565b50909695505050505050565b80356001600160a01b03811681146119a957600080fd5b600060208284031215611b4057600080fd5b611b4982611b17565b9392505050565b600080600060608486031215611b6557600080fd5b83359250611b7560208501611b17565b9150611b8360408501611999565b90509250925092565b60008060008060808587031215611ba257600080fd5b8435935060208086013567ffffffffffffffff80821115611bc257600080fd5b818801915088601f830112611bd657600080fd5b813581811115611be857611be86119da565b611bfa601f8201601f191685016119f0565b91508082528984828501011115611c1057600080fd5b8084840185840137600084828401015250809550505050611c3360408601611b17565b9396929550929360600135925050565b600080600080600060a08688031215611c5b57600080fd5b8551611c6681611951565b809550506020860151935060408601519250606086015191506080860151611c8d81611951565b809150509295509295909350565b634e487b7160e01b600052601160045260246000fd5b6000816000190483118215151615611ccb57611ccb611c9b565b500290565b634e487b7160e01b600052601260045260246000fd5b600082611cf557611cf5611cd0565b500490565b60006001600160ff1b0381841382841380821686840486111615611d2057611d20611c9b565b600160ff1b6000871282811687830589121615611d3f57611d3f611c9b565b60008712925087820587128484161615611d5b57611d5b611c9b565b87850587128184161615611d7157611d71611c9b565b505050929093029392505050565b600082611d8e57611d8e611cd0565b600160ff1b821460001984141615611da857611da8611c9b565b500590565b600181811c90821680611dc157607f821691505b60208210811415611de257634e487b7160e01b600052602260045260246000fd5b50919050565b6020808252818101527f4f776e61626c653a2063616c6c6572206973206e6f7420746865206f776e6572604082015260600190565b602080825260119082015270125b9d985b1a5908141c9a58d951995959607a1b604082015260600190565b634e487b7160e01b600052603260045260246000fd5b6000600019821415611e7257611e72611c9b565b5060010190565b600060208284031215611e8b57600080fd5b815160ff81168114611b4957600080fd5b604081526000611eaf60408301856118d5565b9050826020830152939250505056fea26469706673582212201c80e21bd75e46dd29cfc06f44dda505e72e61e31ae99b0c0a52fae74c31cf5d64736f6c63430008090033",
  "implementation": "0xE1E620ad182100Fa3898650fE16Fc22Dc03BD768",
  "devdoc": {
    "kind": "dev",
    "methods": {
      "convertFromETH(bytes32,uint256)": {
        "params": {
          "_amountETH": "Amount in ETH to be converted",
          "_ccy": "Currency that has to be converted from ETH"
        },
        "returns": {
          "_0": "The converted amount"
        }
      },
      "convertToETH(bytes32,int256)": {
        "params": {
          "_amount": "Amount to be converted",
          "_ccy": "Currency that has to be converted to ETH"
        },
        "returns": {
          "_0": "The converted amount"
        }
      },
      "convertToETH(bytes32,uint256)": {
        "params": {
          "_amount": "Amount to be converted",
          "_ccy": "Currency that has to be converted to ETH"
        },
        "returns": {
          "_0": "The converted amount"
        }
      },
      "convertToETH(bytes32,uint256[])": {
        "params": {
          "_amounts": "Amounts to be converted",
          "_ccy": "Currency that has to be converted to ETH"
        },
        "returns": {
          "amounts": "The converted amounts"
        }
      },
      "getCurrencies(bytes32)": {
        "params": {
          "_ccy": "Currency name in bytes32"
        },
        "returns": {
          "_0": "The currency data"
        }
      },
      "getEthDecimals(bytes32)": {
        "params": {
          "_ccy": "Currency name in bytes32"
        }
      },
      "getHaircut(bytes32)": {
        "params": {
          "_ccy": "Currency name in bytes32"
        }
      },
      "getHistoricalETHPrice(bytes32,uint80)": {
        "params": {
          "_ccy": "Currency name in bytes32",
          "_roundId": "RoundId"
        },
        "returns": {
          "_0": "The historical price in ETH"
        }
      },
      "getHistoricalUSDPrice(bytes32,uint80)": {
        "params": {
          "_ccy": "Currency name in bytes32",
          "_roundId": "RoundId"
        },
        "returns": {
          "_0": "The historical price in USD"
        }
      },
      "getLastETHPrice(bytes32)": {
        "params": {
          "_ccy": "Currency name in bytes32"
        },
        "returns": {
          "_0": "The last price in ETH"
        }
      },
      "getLastUSDPrice(bytes32)": {
        "params": {
          "_ccy": "Currency name in bytes32"
        },
        "returns": {
          "_0": "The last price in USD"
        }
      },
      "getUsdDecimals(bytes32)": {
        "params": {
          "_ccy": "Currency name in bytes32"
        }
      },
      "initialize(address)": {
        "details": "Function is invoked by the proxy contract when the contract is added to the ProxyController.",
        "params": {
          "_owner": "The address of the contract owner"
        }
      },
      "isSupportedCcy(bytes32)": {
        "params": {
          "_ccy": "Currency name in bytes32"
        },
        "returns": {
          "_0": "The boolean if the selected currency is supported or not"
        }
      },
      "linkPriceFeed(bytes32,address,bool)": {
        "details": "This method can use only Chainlink.",
        "params": {
          "_ccy": "Currency name in bytes32",
          "_isEthPriceFeed": "Boolean if the price feed is in ETH or not",
          "_priceFeedAddr": "The contract address of Chainlink price feed"
        },
        "returns": {
          "_0": "True if the execution of the operation succeeds"
        }
      },
      "owner()": {
        "details": "Returns the address of the current owner."
      },
      "removePriceFeed(bytes32,bool)": {
        "params": {
          "_ccy": "Currency name in bytes32",
          "_isEthPriceFeed": "Boolean if the price feed is in ETH or not"
        }
      },
      "renounceOwnership()": {
        "details": "Leaves the contract without owner. It will not be possible to call `onlyOwner` functions anymore. Can only be called by the current owner. NOTE: Renouncing ownership will leave the contract without an owner, thereby removing any functionality that is only available to the owner."
      },
      "supportCurrency(bytes32,string,address,uint256)": {
        "params": {
          "_ccy": "Currency name in bytes32",
          "_ethPriceFeed": "Address for ETH price feed",
          "_haircut": "Haircut ratio used to calculate in collateral calculations",
          "_name": "Currency full name"
        }
      },
      "transferOwnership(address)": {
        "details": "Transfers ownership of the contract to a new account (`newOwner`). Can only be called by the current owner."
      },
      "updateCcyHaircut(bytes32,uint256)": {
        "params": {
          "_ccy": "Currency name in bytes32",
          "_haircut": "Haircut ratio used to calculate in collateral calculations"
        }
      },
      "updateCurrencySupport(bytes32,bool)": {
        "params": {
          "_ccy": "Currency name in bytes32",
          "_isSupported": "Boolean if currency is supported"
        }
      }
    },
    "version": 1
  },
  "userdoc": {
    "kind": "user",
    "methods": {
      "convertFromETH(bytes32,uint256)": {
        "notice": "Gets the converted amount to the selected currency from ETH."
      },
      "convertToETH(bytes32,int256)": {
        "notice": "Gets the converted amount of currency in ETH."
      },
      "convertToETH(bytes32,uint256)": {
        "notice": "Gets the converted amount of currency in ETH."
      },
      "convertToETH(bytes32,uint256[])": {
        "notice": "Gets the converted amount of currency in ETH."
      },
      "getCurrencies(bytes32)": {
        "notice": "Gets the currency data."
      },
      "getEthDecimals(bytes32)": {
        "notice": "Get ETH decimal for the selected currency."
      },
      "getHaircut(bytes32)": {
        "notice": "Gets haircut ratio for the selected currency. Haircut is used in bilateral netting cross-calculation."
      },
      "getHistoricalETHPrice(bytes32,uint80)": {
        "notice": "Gets the historical price in ETH for the selected currency."
      },
      "getHistoricalUSDPrice(bytes32,uint80)": {
        "notice": "Gets the historical price in USD for the selected currency."
      },
      "getLastETHPrice(bytes32)": {
        "notice": "Gets the last price in ETH for the selected currency."
      },
      "getLastUSDPrice(bytes32)": {
        "notice": "Gets the last price in USD for the selected currency."
      },
      "getUsdDecimals(bytes32)": {
        "notice": "Gets USD decimal for the selected currency."
      },
      "initialize(address)": {
        "notice": "Initializes the contract."
      },
      "isSupportedCcy(bytes32)": {
        "notice": "Gets if the selected currency is supported."
      },
      "linkPriceFeed(bytes32,address,bool)": {
        "notice": "Links the contract to existing Chainlink price feed."
      },
      "removePriceFeed(bytes32,bool)": {
        "notice": "Removes existing Chainlink price feed."
      },
      "supportCurrency(bytes32,string,address,uint256)": {
        "notice": "Adds new currency into the protocol and links with existing ETH price feed of Chainlink."
      },
      "updateCcyHaircut(bytes32,uint256)": {
        "notice": "Updates the haircut ratio for supported currency"
      },
      "updateCurrencySupport(bytes32,bool)": {
        "notice": "Updates the flag indicating if the currency is supported in the protocol."
      }
    },
    "notice": "Implements managing of the supported currencies in the protocol. This contract links new currencies to ETH Chainlink price feeds, without an existing price feed contract owner is not able to add a new currency into the protocol",
    "version": 1
  },
  "storageLayout": {
    "storage": [
      {
        "astId": 790,
        "contract": "contracts/CurrencyController.sol:CurrencyController",
        "label": "_initialized",
        "offset": 0,
        "slot": "0",
        "type": "t_uint8"
      },
      {
        "astId": 793,
        "contract": "contracts/CurrencyController.sol:CurrencyController",
        "label": "_initializing",
        "offset": 1,
        "slot": "0",
        "type": "t_bool"
      }
    ],
    "types": {
      "t_bool": {
        "encoding": "inplace",
        "label": "bool",
        "numberOfBytes": "1"
      },
      "t_uint8": {
        "encoding": "inplace",
        "label": "uint8",
        "numberOfBytes": "1"
      }
    }
  }
}