{
  "address": "0x32648DbeEEA548577d026b44cC56e9B94F31D22b",
  "abi": [
    {
      "anonymous": false,
      "inputs": [
        {
          "indexed": true,
          "internalType": "bytes32",
          "name": "ccy",
          "type": "bytes32"
        },
        {
          "indexed": false,
          "internalType": "string",
          "name": "name",
          "type": "string"
        },
        {
          "indexed": false,
          "internalType": "uint256",
          "name": "haircut",
          "type": "uint256"
        }
      ],
      "name": "CcyAdded",
      "type": "event"
    },
    {
      "anonymous": false,
      "inputs": [
        {
          "indexed": true,
          "internalType": "bytes32",
          "name": "ccy",
          "type": "bytes32"
        },
        {
          "indexed": false,
          "internalType": "bool",
          "name": "isCollateral",
          "type": "bool"
        }
      ],
      "name": "CcyCollateralUpdate",
      "type": "event"
    },
    {
      "anonymous": false,
      "inputs": [
        {
          "indexed": true,
          "internalType": "bytes32",
          "name": "ccy",
          "type": "bytes32"
        },
        {
          "indexed": false,
          "internalType": "bool",
          "name": "isSupported",
          "type": "bool"
        }
      ],
      "name": "CcySupportUpdate",
      "type": "event"
    },
    {
      "anonymous": false,
      "inputs": [
        {
          "indexed": true,
          "internalType": "bytes32",
          "name": "ccy",
          "type": "bytes32"
        },
        {
          "indexed": false,
          "internalType": "uint256",
          "name": "haircut",
          "type": "uint256"
        }
      ],
      "name": "HaircutUpdated",
      "type": "event"
    },
    {
      "anonymous": false,
      "inputs": [
        {
          "indexed": false,
          "internalType": "uint8",
          "name": "version",
          "type": "uint8"
        }
      ],
      "name": "Initialized",
      "type": "event"
    },
    {
      "anonymous": false,
      "inputs": [
        {
          "indexed": true,
          "internalType": "bytes32",
          "name": "ccy",
          "type": "bytes32"
        },
        {
          "indexed": false,
          "internalType": "uint256",
          "name": "minMargin",
          "type": "uint256"
        }
      ],
      "name": "MinMarginUpdated",
      "type": "event"
    },
    {
      "anonymous": false,
      "inputs": [
        {
          "indexed": true,
          "internalType": "address",
          "name": "previousOwner",
          "type": "address"
        },
        {
          "indexed": true,
          "internalType": "address",
          "name": "newOwner",
          "type": "address"
        }
      ],
      "name": "OwnershipTransferred",
      "type": "event"
    },
    {
      "anonymous": false,
      "inputs": [
        {
          "indexed": false,
          "internalType": "bytes32",
          "name": "ccy",
          "type": "bytes32"
        },
        {
          "indexed": false,
          "internalType": "string",
          "name": "secondCcy",
          "type": "string"
        },
        {
          "indexed": true,
          "internalType": "address",
          "name": "priceFeed",
          "type": "address"
        }
      ],
      "name": "PriceFeedAdded",
      "type": "event"
    },
    {
      "anonymous": false,
      "inputs": [
        {
          "indexed": false,
          "internalType": "bytes32",
          "name": "ccy",
          "type": "bytes32"
        },
        {
          "indexed": false,
          "internalType": "string",
          "name": "secondCcy",
          "type": "string"
        },
        {
          "indexed": true,
          "internalType": "address",
          "name": "priceFeed",
          "type": "address"
        }
      ],
      "name": "PriceFeedRemoved",
      "type": "event"
    },
    {
      "inputs": [
        {
          "internalType": "bytes32",
          "name": "_ccy",
          "type": "bytes32"
        },
        {
          "internalType": "uint256[]",
          "name": "_amounts",
          "type": "uint256[]"
        }
      ],
      "name": "convertBulkToETH",
      "outputs": [
        {
          "internalType": "uint256[]",
          "name": "",
          "type": "uint256[]"
        }
      ],
      "stateMutability": "view",
      "type": "function"
    },
    {
      "inputs": [
        {
          "internalType": "bytes32",
          "name": "_ccy",
          "type": "bytes32"
        },
        {
          "internalType": "uint256",
          "name": "_amountETH",
          "type": "uint256"
        }
      ],
      "name": "convertFromETH",
      "outputs": [
        {
          "internalType": "uint256",
          "name": "",
          "type": "uint256"
        }
      ],
      "stateMutability": "view",
      "type": "function"
    },
    {
      "inputs": [
        {
          "internalType": "bytes32",
          "name": "_ccy",
          "type": "bytes32"
        },
        {
          "internalType": "int256",
          "name": "_amount",
          "type": "int256"
        }
      ],
      "name": "convertToETH",
      "outputs": [
        {
          "internalType": "int256",
          "name": "",
          "type": "int256"
        }
      ],
      "stateMutability": "view",
      "type": "function"
    },
    {
      "inputs": [
        {
          "internalType": "bytes32",
          "name": "_ccy",
          "type": "bytes32"
        },
        {
          "internalType": "uint256",
          "name": "_amount",
          "type": "uint256"
        }
      ],
      "name": "convertToETH",
      "outputs": [
        {
          "internalType": "uint256",
          "name": "",
          "type": "uint256"
        }
      ],
      "stateMutability": "view",
      "type": "function"
    },
    {
      "inputs": [
        {
          "internalType": "bytes32",
          "name": "_ccy",
          "type": "bytes32"
        }
      ],
      "name": "getChainId",
      "outputs": [
        {
          "internalType": "uint16",
          "name": "",
          "type": "uint16"
        }
      ],
      "stateMutability": "view",
      "type": "function"
    },
    {
      "inputs": [
        {
          "internalType": "bytes32",
          "name": "_ccy",
          "type": "bytes32"
        }
      ],
      "name": "getCurrencies",
      "outputs": [
        {
          "components": [
            {
              "internalType": "bool",
              "name": "isSupported",
              "type": "bool"
            },
            {
              "internalType": "string",
              "name": "name",
              "type": "string"
            },
            {
              "internalType": "uint16",
              "name": "chainId",
              "type": "uint16"
            }
          ],
          "internalType": "struct ProtocolTypes.Currency",
          "name": "currency",
          "type": "tuple"
        }
      ],
      "stateMutability": "view",
      "type": "function"
    },
    {
      "inputs": [
        {
          "internalType": "bytes32",
          "name": "_ccy",
          "type": "bytes32"
        }
      ],
      "name": "getEthDecimals",
      "outputs": [
        {
          "internalType": "uint8",
          "name": "",
          "type": "uint8"
        }
      ],
      "stateMutability": "view",
      "type": "function"
    },
    {
      "inputs": [
        {
          "internalType": "bytes32",
          "name": "_ccy",
          "type": "bytes32"
        }
      ],
      "name": "getHaircut",
      "outputs": [
        {
          "internalType": "uint256",
          "name": "",
          "type": "uint256"
        }
      ],
      "stateMutability": "view",
      "type": "function"
    },
    {
      "inputs": [
        {
          "internalType": "bytes32",
          "name": "_ccy",
          "type": "bytes32"
        },
        {
          "internalType": "uint80",
          "name": "_roundId",
          "type": "uint80"
        }
      ],
      "name": "getHistoricalETHPrice",
      "outputs": [
        {
          "internalType": "int256",
          "name": "",
          "type": "int256"
        }
      ],
      "stateMutability": "view",
      "type": "function"
    },
    {
      "inputs": [
        {
          "internalType": "bytes32",
          "name": "_ccy",
          "type": "bytes32"
        },
        {
          "internalType": "uint80",
          "name": "_roundId",
          "type": "uint80"
        }
      ],
      "name": "getHistoricalUSDPrice",
      "outputs": [
        {
          "internalType": "int256",
          "name": "",
          "type": "int256"
        }
      ],
      "stateMutability": "view",
      "type": "function"
    },
    {
      "inputs": [
        {
          "internalType": "bytes32",
          "name": "_ccy",
          "type": "bytes32"
        }
      ],
      "name": "getLastETHPrice",
      "outputs": [
        {
          "internalType": "int256",
          "name": "",
          "type": "int256"
        }
      ],
      "stateMutability": "view",
      "type": "function"
    },
    {
      "inputs": [
        {
          "internalType": "bytes32",
          "name": "_ccy",
          "type": "bytes32"
        }
      ],
      "name": "getLastUSDPrice",
      "outputs": [
        {
          "internalType": "int256",
          "name": "",
          "type": "int256"
        }
      ],
      "stateMutability": "view",
      "type": "function"
    },
    {
      "inputs": [
        {
          "internalType": "bytes32",
          "name": "_ccy",
          "type": "bytes32"
        }
      ],
      "name": "getMinMargin",
      "outputs": [
        {
          "internalType": "uint256",
          "name": "",
          "type": "uint256"
        }
      ],
      "stateMutability": "view",
      "type": "function"
    },
    {
      "inputs": [
        {
          "internalType": "bytes32",
          "name": "_ccy",
          "type": "bytes32"
        }
      ],
      "name": "getTokenAddresses",
      "outputs": [
        {
          "internalType": "address",
          "name": "",
          "type": "address"
        }
      ],
      "stateMutability": "view",
      "type": "function"
    },
    {
      "inputs": [
        {
          "internalType": "bytes32",
          "name": "_ccy",
          "type": "bytes32"
        }
      ],
      "name": "getUsdDecimals",
      "outputs": [
        {
          "internalType": "uint8",
          "name": "",
          "type": "uint8"
        }
      ],
      "stateMutability": "view",
      "type": "function"
    },
    {
      "inputs": [
        {
          "internalType": "address",
          "name": "owner",
          "type": "address"
        }
      ],
      "name": "initialize",
      "outputs": [],
      "stateMutability": "nonpayable",
      "type": "function"
    },
    {
      "inputs": [
        {
          "internalType": "bytes32",
          "name": "_ccy",
          "type": "bytes32"
        }
      ],
      "name": "isCollateral",
      "outputs": [
        {
          "internalType": "bool",
          "name": "",
          "type": "bool"
        }
      ],
      "stateMutability": "view",
      "type": "function"
    },
    {
      "inputs": [
        {
          "internalType": "bytes32",
          "name": "_ccy",
          "type": "bytes32"
        }
      ],
      "name": "isSupportedCcy",
      "outputs": [
        {
          "internalType": "bool",
          "name": "",
          "type": "bool"
        }
      ],
      "stateMutability": "view",
      "type": "function"
    },
    {
      "inputs": [
        {
          "internalType": "bytes32",
          "name": "_ccy",
          "type": "bytes32"
        },
        {
          "internalType": "address",
          "name": "_priceFeedAddr",
          "type": "address"
        },
        {
          "internalType": "bool",
          "name": "_isEthPriceFeed",
          "type": "bool"
        }
      ],
      "name": "linkPriceFeed",
      "outputs": [
        {
          "internalType": "bool",
          "name": "",
          "type": "bool"
        }
      ],
      "stateMutability": "nonpayable",
      "type": "function"
    },
    {
      "inputs": [],
      "name": "owner",
      "outputs": [
        {
          "internalType": "address",
          "name": "",
          "type": "address"
        }
      ],
      "stateMutability": "view",
      "type": "function"
    },
    {
      "inputs": [
        {
          "internalType": "bytes32",
          "name": "_ccy",
          "type": "bytes32"
        },
        {
          "internalType": "bool",
          "name": "_isEthPriceFeed",
          "type": "bool"
        }
      ],
      "name": "removePriceFeed",
      "outputs": [],
      "stateMutability": "nonpayable",
      "type": "function"
    },
    {
      "inputs": [],
      "name": "renounceOwnership",
      "outputs": [],
      "stateMutability": "nonpayable",
      "type": "function"
    },
    {
      "inputs": [
        {
          "internalType": "bytes32",
          "name": "_ccy",
          "type": "bytes32"
        },
        {
          "internalType": "string",
          "name": "_name",
          "type": "string"
        },
        {
          "internalType": "address",
          "name": "_ethPriceFeed",
          "type": "address"
        },
        {
          "internalType": "uint256",
          "name": "_haircut",
          "type": "uint256"
        },
        {
          "internalType": "address",
          "name": "_tokenAddress",
          "type": "address"
        }
      ],
      "name": "supportCurrency",
      "outputs": [],
      "stateMutability": "nonpayable",
      "type": "function"
    },
    {
      "inputs": [
        {
          "internalType": "address",
          "name": "newOwner",
          "type": "address"
        }
      ],
      "name": "transferOwnership",
      "outputs": [],
      "stateMutability": "nonpayable",
      "type": "function"
    },
    {
      "inputs": [
        {
          "internalType": "bytes32",
          "name": "_ccy",
          "type": "bytes32"
        },
        {
          "internalType": "uint256",
          "name": "_haircut",
          "type": "uint256"
        }
      ],
      "name": "updateCcyHaircut",
      "outputs": [],
      "stateMutability": "nonpayable",
      "type": "function"
    },
    {
      "inputs": [
        {
          "internalType": "bytes32",
          "name": "_ccy",
          "type": "bytes32"
        },
        {
          "internalType": "bool",
          "name": "_isSupported",
          "type": "bool"
        }
      ],
      "name": "updateCollateralSupport",
      "outputs": [],
      "stateMutability": "nonpayable",
      "type": "function"
    },
    {
      "inputs": [
        {
          "internalType": "bytes32",
          "name": "_ccy",
          "type": "bytes32"
        },
        {
          "internalType": "bool",
          "name": "_isSupported",
          "type": "bool"
        }
      ],
      "name": "updateCurrencySupport",
      "outputs": [],
      "stateMutability": "nonpayable",
      "type": "function"
    },
    {
      "inputs": [
        {
          "internalType": "bytes32",
          "name": "_ccy",
          "type": "bytes32"
        },
        {
          "internalType": "uint256",
          "name": "_minMargin",
          "type": "uint256"
        }
      ],
      "name": "updateMinMargin",
      "outputs": [],
      "stateMutability": "nonpayable",
      "type": "function"
    }
  ],
  "transactionHash": "0x60695abc72aadb27730369bc12087b992c972a0e638732b4b26ac7f5d29c0657",
  "args": [],
  "numDeployments": 2,
  "solcInputHash": "a7e3ab467ecfb49fd651019f24032f54",
  "bytecode": "0x608060405234801561001057600080fd5b50612403806100206000396000f3fe608060405234801561001057600080fd5b50600436106101c45760003560e01c8063715018a6116100f9578063c4d66de811610097578063d4d4f6ce11610071578063d4d4f6ce146103f7578063ea6c88a51461040a578063f2fde38b1461041d578063facae93f1461043057600080fd5b8063c4d66de8146103b1578063cc106de1146103c4578063cc8dd9f1146103e457600080fd5b80639abdb38a116100d35780639abdb38a14610352578063a38061c914610365578063b11459b414610378578063b43a9e6c1461038b57600080fd5b8063715018a61461032f5780637b7904e3146103375780638da5cb5b1461034a57600080fd5b806346498c2e116101665780635d95df8a116101405780635d95df8a146102c65780635e5658d2146102e957806360cd4478146103095780636d01544d1461031c57600080fd5b806346498c2e1461028d5780634caeebaf146102a057806350326d22146102b357600080fd5b806334cc1f36116101a257806334cc1f36146102275780633a0a22f01461023c57806342e863911461024f57806344a6ecdd1461027a57600080fd5b806304261371146101c957806306d062ad146101f35780631743ffce14610214575b600080fd5b6101dc6101d7366004611d58565b610443565b60405160ff90911681526020015b60405180910390f35b610206610201366004611d71565b610464565b6040519081526020016101ea565b610206610222366004611d58565b610543565b61023a610235366004611d71565b610607565b005b61020661024a366004611d71565b6107a7565b61026261025d366004611d58565b61087b565b6040516001600160a01b0390911681526020016101ea565b610206610288366004611d71565b6108a2565b61023a61029b366004611da8565b61096c565b61023a6102ae366004611e32565b610a20565b6102066102c1366004611d58565b610bec565b6102d96102d4366004611d58565b610c4d565b60405190151581526020016101ea565b6102fc6102f7366004611d58565b610c6e565b6040516101ea9190611f49565b610206610317366004611fa3565b610d71565b61020661032a366004611fa3565b610e97565b61023a610ef3565b61023a610345366004611da8565b610f2e565b610262611168565b610206610360366004611d58565b61119b565b610206610373366004611d58565b6111b9565b61023a610386366004611d71565b61122c565b61039e610399366004611d58565b61136f565b60405161ffff90911681526020016101ea565b61023a6103bf366004611fd3565b611391565b6103d76103d2366004611ff5565b611510565b6040516101ea91906120a7565b6102d96103f23660046120eb565b6116be565b6102d9610405366004611d58565b611a9b565b61023a610418366004611da8565b611ab9565b61023a61042b366004611fd3565b611b41565b6101dc61043e366004611d58565b611be1565b600061044d611c02565b600092835260070160205250604090205460ff1690565b60006208aa8960eb1b83141561047b57508061053d565b6000610485611c02565b60008581526006919091016020526040808220548151633fabe5a360e21b815291516001600160a01b039091169350839163feaf968c9160048083019260a0929190829003018186803b1580156104db57600080fd5b505afa1580156104ef573d6000803e3d6000fd5b505050506040513d601f19601f820116820180604052508101906105139190612127565b5050509150508084670de0b6b3a764000061052e9190612195565b61053891906121ca565b925050505b92915050565b60006208aa8960eb1b8214156105625750670de0b6b3a7640000919050565b600061056c611c02565b60008481526006919091016020526040808220548151633fabe5a360e21b815291516001600160a01b039091169350839163feaf968c9160048083019260a0929190829003018186803b1580156105c257600080fd5b505afa1580156105d6573d6000803e3d6000fd5b505050506040513d601f19601f820116820180604052508101906105fa9190612127565b5091979650505050505050565b33610610611168565b6001600160a01b03161461063f5760405162461bcd60e51b8152600401610636906121de565b60405180910390fd5b8161064981611a9b565b6106655760405162461bcd60e51b815260040161063690612213565b600082116106ab5760405162461bcd60e51b815260206004820152601360248201527224b731b7b93932b1ba1026b4b726b0b933b4b760691b6044820152606401610636565b6127108211156106f25760405162461bcd60e51b81526020600482015260126024820152714d696e4d617267696e206f766572666c6f7760701b6044820152606401610636565b6106fb83610c4d565b6107475760405162461bcd60e51b815260206004820152601760248201527f556e61626c6520746f20736574204d696e4d617267696e0000000000000000006044820152606401610636565b81610750611c02565b600201600085815260200190815260200160002081905550827f93aab202383cdcea234ec12d5ae14be597c1fcbe7c93b4843b5df57793917f0c8360405161079a91815260200190565b60405180910390a2505050565b60006208aa8960eb1b8314156107be57508061053d565b60006107c8611c02565b60008581526006919091016020526040808220548151633fabe5a360e21b815291516001600160a01b039091169350839163feaf968c9160048083019260a0929190829003018186803b15801561081e57600080fd5b505afa158015610832573d6000803e3d6000fd5b505050506040513d601f19601f820116820180604052508101906108569190612127565b505050915050670de0b6b3a76400008185610871919061223e565b61053891906122c3565b6000610885611c02565b60009283526004016020525060409020546001600160a01b031690565b60006208aa8960eb1b8314156108b957508061053d565b60006108c3611c02565b60008581526006919091016020526040808220548151633fabe5a360e21b815291516001600160a01b039091169350839163feaf968c9160048083019260a0929190829003018186803b15801561091957600080fd5b505afa15801561092d573d6000803e3d6000fd5b505050506040513d601f19601f820116820180604052508101906109519190612127565b505050915050670de0b6b3a7640000818561052e9190612195565b33610975611168565b6001600160a01b03161461099b5760405162461bcd60e51b8152600401610636906121de565b816109a581611a9b565b6109c15760405162461bcd60e51b815260040161063690612213565b816109ca611c02565b60008581526003919091016020908152604091829020805460ff19169315159390931790925551831515815284917f2184292b9bb18c7204e8a0f1e8b90159dc7830d4f547cf8c2ba0358ef18b05b2910161079a565b33610a29611168565b6001600160a01b031614610a4f5760405162461bcd60e51b8152600401610636906121de565b610a79604051806060016040528060001515815260200160608152602001600061ffff1681525090565b602081018590526001600160a01b03821615610ac95781610a98611c02565b60008881526004919091016020526040902080546001600160a01b0319166001600160a01b03929092169190911790555b6001815280610ad6611c02565b60008881526020918252604090208251815460ff19169015151781558282015180519192610b0c92600185019290910190611cbf565b50604091909101516002909101805461ffff191661ffff90921691909117905582610b35611c02565b600088815260019190910160205260409020556208aa8960eb1b8614610b8257610b61868560016116be565b610b7d5760405162461bcd60e51b8152600401610636906122f1565b610baa565b610b8e868560006116be565b610baa5760405162461bcd60e51b8152600401610636906122f1565b857fac23727d2c524a59eb5ce3843d78ac0fecf91617367c24767157f62d5ad006e98685604051610bdc92919061231c565b60405180910390a2505050505050565b600080610bf7611c02565b60008481526005919091016020526040808220548151633fabe5a360e21b815291516001600160a01b039091169350839163feaf968c9160048083019260a0929190829003018186803b1580156105c257600080fd5b6000610c57611c02565b600092835260030160205250604090205460ff1690565b610c98604051806060016040528060001515815260200160608152602001600061ffff1681525090565b610ca0611c02565b60008381526020918252604090819020815160608101909252805460ff16151582526001810180549293919291840191610cd99061233e565b80601f0160208091040260200160405190810160405280929190818152602001828054610d059061233e565b8015610d525780601f10610d2757610100808354040283529160200191610d52565b820191906000526020600020905b815481529060010190602001808311610d3557829003601f168201915b50505091835250506002919091015461ffff1660209091015292915050565b60006208aa8960eb1b831415610d905750670de0b6b3a764000061053d565b6000610d9a611c02565b60008581526006919091016020526040808220549051639a6fc8f560e01b815269ffffffffffffffffffff861660048201526001600160a01b03909116925081908390639a6fc8f5906024015b60a06040518083038186803b158015610dff57600080fd5b505afa158015610e13573d6000803e3d6000fd5b505050506040513d601f19601f82011682018060405250810190610e379190612127565b5093505092505060008111610e8e5760405162461bcd60e51b815260206004820152601760248201527f526f756e64206e6f7420636f6d706c65746564207965740000000000000000006044820152606401610636565b50949350505050565b600080610ea2611c02565b60008581526005919091016020526040808220549051639a6fc8f560e01b815269ffffffffffffffffffff861660048201526001600160a01b03909116925081908390639a6fc8f590602401610de7565b33610efc611168565b6001600160a01b031614610f225760405162461bcd60e51b8152600401610636906121de565b610f2c6000611c26565b565b33610f37611168565b6001600160a01b031614610f5d5760405162461bcd60e51b8152600401610636906121de565b81610f6781611a9b565b610f835760405162461bcd60e51b815260040161063690612213565b60018215151415611082576000610f98611c02565b600085815260069190910160205260409020546001600160a01b0316905080610fd35760405162461bcd60e51b8152600401610636906122f1565b610fdb611c02565b60008581526006919091016020526040902080546001600160a01b0319169055611003611c02565b6000858152600891909101602052604090819020805460ff19169055516001600160a01b038216907ea0d5a605fe34a5efa696fb7b7fc385f4efcc9d0ff516d7dc7a1cbfbe065ee790611074908781526040602082018190526003908201526208aa8960eb1b606082015260800190565b60405180910390a250505050565b600061108c611c02565b600085815260059190910160205260409020546001600160a01b03169050806110c75760405162461bcd60e51b8152600401610636906122f1565b6110cf611c02565b60008581526005919091016020526040902080546001600160a01b03191690556110f7611c02565b6000858152600791909101602052604090819020805460ff19169055516001600160a01b038216907ea0d5a605fe34a5efa696fb7b7fc385f4efcc9d0ff516d7dc7a1cbfbe065ee79061107490878152604060208201819052600390820152621554d160ea1b606082015260800190565b60007f9acda75aebd150dd434541a4747a6dc606f4f1a59662477e67daf1fc0bf9e0aa5b546001600160a01b0316919050565b60006111a5611c02565b600092835260010160205250604090205490565b60006111c482610c4d565b6112105760405162461bcd60e51b815260206004820152601760248201527f556e61626c6520746f20676574204d696e4d617267696e0000000000000000006044820152606401610636565b611218611c02565b600092835260020160205250604090205490565b33611235611168565b6001600160a01b03161461125b5760405162461bcd60e51b8152600401610636906121de565b8161126581611a9b565b6112815760405162461bcd60e51b815260040161063690612213565b600082116112d15760405162461bcd60e51b815260206004820152601760248201527f496e636f7272656374206861697263757420726174696f0000000000000000006044820152606401610636565b61271082111561131c5760405162461bcd60e51b81526020600482015260166024820152754861697263757420726174696f206f766572666c6f7760501b6044820152606401610636565b81611325611c02565b600101600085815260200190815260200160002081905550827f99d976082a5e53ffddd334dbf2aec9b617affac6394470feb508f5fb662e0a1a8360405161079a91815260200190565b6000611379611c02565b600092835260205250604090206002015461ffff1690565b600054610100900460ff16158080156113b15750600054600160ff909116105b806113cb5750303b1580156113cb575060005460ff166001145b61142e5760405162461bcd60e51b815260206004820152602e60248201527f496e697469616c697a61626c653a20636f6e747261637420697320616c72656160448201526d191e481a5b9a5d1a585b1a5e995960921b6064820152608401610636565b6000805460ff191660011790558015611451576000805461ff0019166101001790555b600061145b611c97565b6001600160a01b031614156114bd5760405162461bcd60e51b815260206004820152602260248201527f4d7573742062652063616c6c65642066726f6d2070726f787920636f6e74726160448201526118dd60f21b6064820152608401610636565b6114c682611c26565b801561150c576000805461ff0019169055604051600181527f7f26b83ff96e1f2b6a682f133852f6798a09c465da95921460cefb38474024989060200160405180910390a15b5050565b60606208aa8960eb1b83141561152757508061053d565b6000611531611c02565b60008581526006919091016020526040808220548151633fabe5a360e21b815291516001600160a01b039091169350839163feaf968c9160048083019260a0929190829003018186803b15801561158757600080fd5b505afa15801561159b573d6000803e3d6000fd5b505050506040513d601f19601f820116820180604052508101906115bf9190612127565b5050509150506000845167ffffffffffffffff8111156115e1576115e1611dd4565b60405190808252806020026020018201604052801561160a578160200160208202803683370190505b50905060005b85518110156116b457600086828151811061162d5761162d612379565b60200260200101519050600081111561168057670de0b6b3a76400006116538583612195565b61165d91906121ca565b83838151811061166f5761166f612379565b6020026020010181815250506116a1565b600083838151811061169457611694612379565b6020026020010181815250505b50806116ac8161238f565b915050611610565b5095945050505050565b6000336116c9611168565b6001600160a01b0316146116ef5760405162461bcd60e51b8152600401610636906121de565b6001600160a01b0383166117455760405162461bcd60e51b815260206004820152601960248201527f436f756c646e2774206c696e6b203078302061646472657373000000000000006044820152606401610636565b60008390506000816001600160a01b031663feaf968c6040518163ffffffff1660e01b815260040160a06040518083038186803b15801561178557600080fd5b505afa158015611799573d6000803e3d6000fd5b505050506040513d601f19601f820116820180604052508101906117bd9190612127565b50505091505060008112156117e45760405162461bcd60e51b8152600401610636906122f1565b6000826001600160a01b031663313ce5676040518163ffffffff1660e01b815260040160206040518083038186803b15801561181f57600080fd5b505afa158015611833573d6000803e3d6000fd5b505050506040513d601f19601f8201168201806040525081019061185791906123aa565b905060128160ff1611156118a05760405162461bcd60e51b815260206004820152601060248201526f496e76616c696420646563696d616c7360801b6044820152606401610636565b84156119c1576208aa8960eb1b8714156118f05760405162461bcd60e51b8152602060048201526011602482015270086c2dc4ee840d8d2dcd640e8de408aa89607b1b6044820152606401610636565b826118f9611c02565b60008981526006919091016020526040902080546001600160a01b0319166001600160a01b039290921691909117905580611932611c02565b600801600089815260200190815260200160002060006101000a81548160ff021916908360ff160217905550856001600160a01b03167f6537ffaaeebdb294479a8b7fab1081c2b15de1a4bc9df657aad801547748fa4a886040516119b49181526040602082018190526003908201526208aa8960eb1b606082015260800190565b60405180910390a2611a8e565b826119ca611c02565b60008981526005919091016020526040902080546001600160a01b0319166001600160a01b039290921691909117905580611a03611c02565b600701600089815260200190815260200160002060006101000a81548160ff021916908360ff160217905550856001600160a01b03167f6537ffaaeebdb294479a8b7fab1081c2b15de1a4bc9df657aad801547748fa4a88604051611a85918152604060208201819052600390820152621554d160ea1b606082015260800190565b60405180910390a25b5060019695505050505050565b6000611aa5611c02565b600092835260205250604090205460ff1690565b33611ac2611168565b6001600160a01b031614611ae85760405162461bcd60e51b8152600401610636906121de565b6000611af2611c02565b60008481526020918252604090819020805460ff191685151590811782559151918252925084917f9abbefd519a8bdb26fbc476187bc19038a6a41a175946595f6e9e900d9eb2a31910161079a565b33611b4a611168565b6001600160a01b031614611b705760405162461bcd60e51b8152600401610636906121de565b6001600160a01b038116611bd55760405162461bcd60e51b815260206004820152602660248201527f4f776e61626c653a206e6577206f776e657220697320746865207a65726f206160448201526564647265737360d01b6064820152608401610636565b611bde81611c26565b50565b6000611beb611c02565b600092835260080160205250604090205460ff1690565b7fbf1f6da7b18d0b1bd723139ae003962c8fa874ed2f9ff2b1948edfe1e7915f5d90565b7f9acda75aebd150dd434541a4747a6dc606f4f1a59662477e67daf1fc0bf9e0aa80546001600160a01b038381166001600160a01b0319831681179093556040519116919082907f8be0079c531659141344cd1fd0a4f28419497f9722a3daafe3b4186f6b6457e090600090a35050565b60007f360894a13ba1a3210667c828492db98dca3e2076cc3735a920a3ca505d382bbc61118c565b828054611ccb9061233e565b90600052602060002090601f016020900481019282611ced5760008555611d33565b82601f10611d0657805160ff1916838001178555611d33565b82800160010185558215611d33579182015b82811115611d33578251825591602001919060010190611d18565b50611d3f929150611d43565b5090565b5b80821115611d3f5760008155600101611d44565b600060208284031215611d6a57600080fd5b5035919050565b60008060408385031215611d8457600080fd5b50508035926020909101359150565b80358015158114611da357600080fd5b919050565b60008060408385031215611dbb57600080fd5b82359150611dcb60208401611d93565b90509250929050565b634e487b7160e01b600052604160045260246000fd5b604051601f8201601f1916810167ffffffffffffffff81118282101715611e1357611e13611dd4565b604052919050565b80356001600160a01b0381168114611da357600080fd5b600080600080600060a08688031215611e4a57600080fd5b8535945060208087013567ffffffffffffffff80821115611e6a57600080fd5b818901915089601f830112611e7e57600080fd5b813581811115611e9057611e90611dd4565b611ea2601f8201601f19168501611dea565b91508082528a84828501011115611eb857600080fd5b8084840185840137600084828401015250809650505050611edb60408701611e1b565b925060608601359150611ef060808701611e1b565b90509295509295909350565b6000815180845260005b81811015611f2257602081850181015186830182015201611f06565b81811115611f34576000602083870101525b50601f01601f19169290920160200192915050565b602081528151151560208201526000602083015160606040840152611f716080840182611efc565b905061ffff60408501511660608401528091505092915050565b69ffffffffffffffffffff81168114611bde57600080fd5b60008060408385031215611fb657600080fd5b823591506020830135611fc881611f8b565b809150509250929050565b600060208284031215611fe557600080fd5b611fee82611e1b565b9392505050565b6000806040838503121561200857600080fd5b8235915060208084013567ffffffffffffffff8082111561202857600080fd5b818601915086601f83011261203c57600080fd5b81358181111561204e5761204e611dd4565b8060051b915061205f848301611dea565b818152918301840191848101908984111561207957600080fd5b938501935b838510156120975784358252938501939085019061207e565b8096505050505050509250929050565b6020808252825182820181905260009190848201906040850190845b818110156120df578351835292840192918401916001016120c3565b50909695505050505050565b60008060006060848603121561210057600080fd5b8335925061211060208501611e1b565b915061211e60408501611d93565b90509250925092565b600080600080600060a0868803121561213f57600080fd5b855161214a81611f8b565b80955050602086015193506040860151925060608601519150608086015161217181611f8b565b809150509295509295909350565b634e487b7160e01b600052601160045260246000fd5b60008160001904831182151516156121af576121af61217f565b500290565b634e487b7160e01b600052601260045260246000fd5b6000826121d9576121d96121b4565b500490565b6020808252818101527f4f776e61626c653a2063616c6c6572206973206e6f7420746865206f776e6572604082015260600190565b602080825260119082015270155b9cdd5c1c1bdc9d195908185cdcd95d607a1b604082015260600190565b60006001600160ff1b03818413828413808216868404861116156122645761226461217f565b600160ff1b60008712828116878305891216156122835761228361217f565b6000871292508782058712848416161561229f5761229f61217f565b878505871281841616156122b5576122b561217f565b505050929093029392505050565b6000826122d2576122d26121b4565b600160ff1b8214600019841416156122ec576122ec61217f565b500590565b602080825260119082015270125b9d985b1a5908141c9a58d951995959607a1b604082015260600190565b60408152600061232f6040830185611efc565b90508260208301529392505050565b600181811c9082168061235257607f821691505b6020821081141561237357634e487b7160e01b600052602260045260246000fd5b50919050565b634e487b7160e01b600052603260045260246000fd5b60006000198214156123a3576123a361217f565b5060010190565b6000602082840312156123bc57600080fd5b815160ff81168114611fee57600080fdfea264697066735822122028602e8d165f5776df4e597ff3dc2ec6dbba224094269cbb8f1e7b66eb17939f64736f6c63430008090033",
  "implementation": "0x9420d9Cb95db1897Be41EFC6328Cf3f0C7B64B12",
  "devdoc": {
    "details": "Currency Controller contract is responsible for managing supported currencies in Secured Finance Protocol Contract links new currencies to ETH Chainlink price feeds, without existing price feed contract owner is not able to add a new currency into the protocol",
    "kind": "dev",
    "methods": {
      "convertBulkToETH(bytes32,uint256[])": {
        "details": "Triggers to get converted amounts of currency to ETH.",
        "params": {
          "_amounts": "Array with amounts of funds to be converted",
          "_ccy": "Currency that has to be convered to ETH"
        }
      },
      "convertFromETH(bytes32,uint256)": {
        "details": "Triggers to convert ETH amount of funds to specified currency.",
        "params": {
          "_amountETH": "Amount of funds in ETH to be converted",
          "_ccy": "Currency that has to be convered from ETH"
        }
      },
      "convertToETH(bytes32,int256)": {
        "details": "Triggers to get converted amount of currency in ETH.",
        "params": {
          "_amount": "Amount of funds to be converted",
          "_ccy": "Currency that has to be convered to ETH"
        }
      },
      "convertToETH(bytes32,uint256)": {
        "details": "Triggers to get converted amount of currency in ETH.",
        "params": {
          "_amount": "Amount of funds to be converted",
          "_ccy": "Currency that has to be convered to ETH"
        }
      },
      "getChainId(bytes32)": {
        "details": "Triggers to get chainId for a specific currency. Chain ID is a unique identifier of another chain like Bitcoin, Filecoin, etc.",
        "params": {
          "_ccy": "Currency short ticket"
        }
      },
      "getCurrencies(bytes32)": {
        "details": "Triggers to get specified currency.",
        "params": {
          "_ccy": "Currency short ticket"
        }
      },
      "getEthDecimals(bytes32)": {
        "details": "Triggers to get ETH decimal for specific currency.",
        "params": {
          "_ccy": "Currency short ticket"
        }
      },
      "getHaircut(bytes32)": {
        "details": "Triggers to get haircut ratio for specific currency. Haircut is used in bilateral netting cross-calculation.",
        "params": {
          "_ccy": "Currency short ticket"
        }
      },
      "getHistoricalETHPrice(bytes32,uint80)": {
        "details": "Triggers to get historical price in ETH for selected currency.",
        "params": {
          "_ccy": "Currency",
          "_roundId": "RoundId"
        }
      },
      "getHistoricalUSDPrice(bytes32,uint80)": {
        "details": "Triggers to get historical price in USD for selected currency.",
        "params": {
          "_ccy": "Currency",
          "_roundId": "RoundId"
        }
      },
      "getLastETHPrice(bytes32)": {
        "details": "Triggers to get last price in ETH for selected currency.",
        "params": {
          "_ccy": "Currency"
        }
      },
      "getLastUSDPrice(bytes32)": {
        "details": "Triggers to get last price in USD for selected currency.",
        "params": {
          "_ccy": "Currency"
        }
      },
      "getMinMargin(bytes32)": {
        "details": "Triggers to get minimal margin percentage for specific currency.",
        "params": {
          "_ccy": "Currency short ticket"
        }
      },
      "getTokenAddresses(bytes32)": {
        "details": "Triggers to get token address for specific currency.",
        "params": {
          "_ccy": "Currency short ticket"
        }
      },
      "getUsdDecimals(bytes32)": {
        "details": "Triggers to get USD decimal for specific currency.",
        "params": {
          "_ccy": "Currency short ticket"
        }
      },
      "initialize(address)": {
        "details": "Function is invoked by the proxy contract when the contract is added to the ProxyController"
      },
      "isCollateral(bytes32)": {
        "details": "Triggers to get if specified currency is collateral.",
        "params": {
          "_ccy": "Currency short ticket"
        }
      },
      "isSupportedCcy(bytes32)": {
        "details": "Triggers to get if specified currency is supported.",
        "params": {
          "_ccy": "Currency short ticket"
        }
      },
      "linkPriceFeed(bytes32,address,bool)": {
        "details": "Links the contract to existing chainlink price feed.",
        "params": {
          "_ccy": "Specified currency short code",
          "_isEthPriceFeed": "Boolean for price feed with ETH price",
          "_priceFeedAddr": "Chainlink price feed contract address"
        }
      },
      "owner()": {
        "details": "Returns the address of the current owner."
      },
      "removePriceFeed(bytes32,bool)": {
        "details": "Triggers to remove existing chainlink price feed.",
        "params": {
          "_ccy": "Specified currency",
          "_isEthPriceFeed": "Boolean for price feed with ETH price"
        }
      },
      "renounceOwnership()": {
        "details": "Leaves the contract without owner. It will not be possible to call `onlyOwner` functions anymore. Can only be called by the current owner. NOTE: Renouncing ownership will leave the contract without an owner, thereby removing any functionality that is only available to the owner."
      },
      "supportCurrency(bytes32,string,address,uint256,address)": {
        "details": "Triggers to add new currency into the protocol. Links with existing ETH chainlink pricefeed",
        "params": {
          "_ccy": "Currency short ticket",
          "_ethPriceFeed": "Address for ETH price feed",
          "_name": "Currency full name"
        }
      },
      "transferOwnership(address)": {
        "details": "Transfers ownership of the contract to a new account (`newOwner`). Can only be called by the current owner."
      },
      "updateCcyHaircut(bytes32,uint256)": {
        "details": "Triggers to update the haircut ratio for supported currency",
        "params": {
          "_ccy": "Currency short ticket",
          "_haircut": "Currency haircut ratio used to calculate in collateral calculations"
        }
      },
      "updateCollateralSupport(bytes32,bool)": {
        "details": "Triggers to update if currency is accepted as collateral",
        "params": {
          "_ccy": "Currency short ticket",
          "_isSupported": "Boolean whether currency supported as collateral or not"
        }
      },
      "updateCurrencySupport(bytes32,bool)": {
        "details": "Triggers to update currency support",
        "params": {
          "_ccy": "Currency short ticket",
          "_isSupported": "Boolean whether currency supported as collateral or not"
        }
      },
      "updateMinMargin(bytes32,uint256)": {
        "details": "Triggers to update the minimal margin requirements for currency supported as collateral",
        "params": {
          "_ccy": "Currency short ticket",
          "_minMargin": "Currency minimal margin ratio used to calculate collateral coverage"
        }
      }
    },
    "version": 1
  },
  "userdoc": {
    "kind": "user",
    "methods": {
      "initialize(address)": {
        "notice": "Initializes the contract."
      }
    },
    "version": 1
  },
  "storageLayout": {
    "storage": [
      {
        "astId": 790,
        "contract": "contracts/CurrencyController.sol:CurrencyController",
        "label": "_initialized",
        "offset": 0,
        "slot": "0",
        "type": "t_uint8"
      },
      {
        "astId": 793,
        "contract": "contracts/CurrencyController.sol:CurrencyController",
        "label": "_initializing",
        "offset": 1,
        "slot": "0",
        "type": "t_bool"
      }
    ],
    "types": {
      "t_bool": {
        "encoding": "inplace",
        "label": "bool",
        "numberOfBytes": "1"
      },
      "t_uint8": {
        "encoding": "inplace",
        "label": "uint8",
        "numberOfBytes": "1"
      }
    }
  }
}