{
  "address": "0x2A15d4bA44D9Aa9F483B4cbd676acc7645022ff8",
  "abi": [
    {
      "inputs": [],
      "name": "InvalidCurrency",
      "type": "error"
    },
    {
      "inputs": [],
      "name": "InvalidDecimals",
      "type": "error"
    },
    {
      "inputs": [],
      "name": "InvalidHaircut",
      "type": "error"
    },
    {
      "inputs": [],
      "name": "InvalidPrice",
      "type": "error"
    },
    {
      "inputs": [],
      "name": "InvalidPriceFeed",
      "type": "error"
    },
    {
      "inputs": [],
      "name": "NoPriceFeedExists",
      "type": "error"
    },
    {
      "inputs": [
        {
          "internalType": "address",
          "name": "priceFeed",
          "type": "address"
        },
        {
          "internalType": "uint256",
          "name": "heartbeat",
          "type": "uint256"
        },
        {
          "internalType": "uint256",
          "name": "updatedAt",
          "type": "uint256"
        },
        {
          "internalType": "uint256",
          "name": "blockTimestamp",
          "type": "uint256"
        }
      ],
      "name": "StalePriceFeed",
      "type": "error"
    },
    {
      "anonymous": false,
      "inputs": [
        {
          "indexed": true,
          "internalType": "bytes32",
          "name": "ccy",
          "type": "bytes32"
        },
        {
          "indexed": false,
          "internalType": "uint256",
          "name": "haircut",
          "type": "uint256"
        }
      ],
      "name": "CurrencyAdded",
      "type": "event"
    },
    {
      "anonymous": false,
      "inputs": [
        {
          "indexed": true,
          "internalType": "bytes32",
          "name": "ccy",
          "type": "bytes32"
        }
      ],
      "name": "CurrencyRemoved",
      "type": "event"
    },
    {
      "anonymous": false,
      "inputs": [
        {
          "indexed": true,
          "internalType": "bytes32",
          "name": "ccy",
          "type": "bytes32"
        },
        {
          "indexed": false,
          "internalType": "uint256",
          "name": "haircut",
          "type": "uint256"
        }
      ],
      "name": "HaircutUpdated",
      "type": "event"
    },
    {
      "anonymous": false,
      "inputs": [
        {
          "indexed": false,
          "internalType": "uint8",
          "name": "version",
          "type": "uint8"
        }
      ],
      "name": "Initialized",
      "type": "event"
    },
    {
      "anonymous": false,
      "inputs": [
        {
          "indexed": true,
          "internalType": "address",
          "name": "previousOwner",
          "type": "address"
        },
        {
          "indexed": true,
          "internalType": "address",
          "name": "newOwner",
          "type": "address"
        }
      ],
      "name": "OwnershipTransferred",
      "type": "event"
    },
    {
      "anonymous": false,
      "inputs": [
        {
          "indexed": false,
          "internalType": "bytes32",
          "name": "ccy",
          "type": "bytes32"
        }
      ],
      "name": "PriceFeedRemoved",
      "type": "event"
    },
    {
      "anonymous": false,
      "inputs": [
        {
          "indexed": false,
          "internalType": "bytes32",
          "name": "ccy",
          "type": "bytes32"
        },
        {
          "indexed": false,
          "internalType": "uint256",
          "name": "decimals",
          "type": "uint256"
        },
        {
          "indexed": true,
          "internalType": "address[]",
          "name": "priceFeeds",
          "type": "address[]"
        }
      ],
      "name": "PriceFeedUpdated",
      "type": "event"
    },
    {
      "inputs": [
        {
          "internalType": "bytes32",
          "name": "_ccy",
          "type": "bytes32"
        },
        {
          "internalType": "uint8",
          "name": "_decimals",
          "type": "uint8"
        },
        {
          "internalType": "uint256",
          "name": "_haircut",
          "type": "uint256"
        },
        {
          "internalType": "address[]",
          "name": "_priceFeeds",
          "type": "address[]"
        },
        {
          "internalType": "uint256",
          "name": "_heartbeat",
          "type": "uint256"
        }
      ],
      "name": "addCurrency",
      "outputs": [],
      "stateMutability": "nonpayable",
      "type": "function"
    },
    {
      "inputs": [
        {
          "internalType": "bytes32",
          "name": "_fromCcy",
          "type": "bytes32"
        },
        {
          "internalType": "bytes32",
          "name": "_toCcy",
          "type": "bytes32"
        },
        {
          "internalType": "uint256[]",
          "name": "_amounts",
          "type": "uint256[]"
        }
      ],
      "name": "convert",
      "outputs": [
        {
          "internalType": "uint256[]",
          "name": "amounts",
          "type": "uint256[]"
        }
      ],
      "stateMutability": "view",
      "type": "function"
    },
    {
      "inputs": [
        {
          "internalType": "bytes32",
          "name": "_fromCcy",
          "type": "bytes32"
        },
        {
          "internalType": "bytes32",
          "name": "_toCcy",
          "type": "bytes32"
        },
        {
          "internalType": "uint256",
          "name": "_amount",
          "type": "uint256"
        }
      ],
      "name": "convert",
      "outputs": [
        {
          "internalType": "uint256",
          "name": "amount",
          "type": "uint256"
        }
      ],
      "stateMutability": "view",
      "type": "function"
    },
    {
      "inputs": [
        {
          "internalType": "bytes32",
          "name": "_ccy",
          "type": "bytes32"
        },
        {
          "internalType": "uint256",
          "name": "_amount",
          "type": "uint256"
        }
      ],
      "name": "convertFromBaseCurrency",
      "outputs": [
        {
          "internalType": "uint256",
          "name": "amount",
          "type": "uint256"
        }
      ],
      "stateMutability": "view",
      "type": "function"
    },
    {
      "inputs": [
        {
          "internalType": "bytes32",
          "name": "_ccy",
          "type": "bytes32"
        },
        {
          "internalType": "uint256[]",
          "name": "_amounts",
          "type": "uint256[]"
        }
      ],
      "name": "convertFromBaseCurrency",
      "outputs": [
        {
          "internalType": "uint256[]",
          "name": "amounts",
          "type": "uint256[]"
        }
      ],
      "stateMutability": "view",
      "type": "function"
    },
    {
      "inputs": [
        {
          "internalType": "bytes32",
          "name": "_ccy",
          "type": "bytes32"
        },
        {
          "internalType": "uint256",
          "name": "_amount",
          "type": "uint256"
        }
      ],
      "name": "convertToBaseCurrency",
      "outputs": [
        {
          "internalType": "uint256",
          "name": "amount",
          "type": "uint256"
        }
      ],
      "stateMutability": "view",
      "type": "function"
    },
    {
      "inputs": [
        {
          "internalType": "bytes32",
          "name": "_ccy",
          "type": "bytes32"
        },
        {
          "internalType": "int256",
          "name": "_amount",
          "type": "int256"
        }
      ],
      "name": "convertToBaseCurrency",
      "outputs": [
        {
          "internalType": "int256",
          "name": "amount",
          "type": "int256"
        }
      ],
      "stateMutability": "view",
      "type": "function"
    },
    {
      "inputs": [
        {
          "internalType": "bytes32",
          "name": "_ccy",
          "type": "bytes32"
        },
        {
          "internalType": "uint256[]",
          "name": "_amounts",
          "type": "uint256[]"
        }
      ],
      "name": "convertToBaseCurrency",
      "outputs": [
        {
          "internalType": "uint256[]",
          "name": "amounts",
          "type": "uint256[]"
        }
      ],
      "stateMutability": "view",
      "type": "function"
    },
    {
      "inputs": [
        {
          "internalType": "bytes32",
          "name": "_ccy",
          "type": "bytes32"
        }
      ],
      "name": "currencyExists",
      "outputs": [
        {
          "internalType": "bool",
          "name": "",
          "type": "bool"
        }
      ],
      "stateMutability": "view",
      "type": "function"
    },
    {
      "inputs": [
        {
          "internalType": "bytes32",
          "name": "_ccy",
          "type": "bytes32"
        }
      ],
      "name": "getAggregatedLastPrice",
      "outputs": [
        {
          "internalType": "int256",
          "name": "price",
          "type": "int256"
        }
      ],
      "stateMutability": "view",
      "type": "function"
    },
    {
      "inputs": [],
      "name": "getCurrencies",
      "outputs": [
        {
          "internalType": "bytes32[]",
          "name": "",
          "type": "bytes32[]"
        }
      ],
      "stateMutability": "view",
      "type": "function"
    },
    {
      "inputs": [
        {
          "internalType": "bytes32",
          "name": "_ccy",
          "type": "bytes32"
        }
      ],
      "name": "getDecimals",
      "outputs": [
        {
          "internalType": "uint8",
          "name": "",
          "type": "uint8"
        }
      ],
      "stateMutability": "view",
      "type": "function"
    },
    {
      "inputs": [
        {
          "internalType": "bytes32",
          "name": "_ccy",
          "type": "bytes32"
        }
      ],
      "name": "getHaircut",
      "outputs": [
        {
          "internalType": "uint256",
          "name": "",
          "type": "uint256"
        }
      ],
      "stateMutability": "view",
      "type": "function"
    },
    {
      "inputs": [
        {
          "internalType": "bytes32",
          "name": "_ccy",
          "type": "bytes32"
        }
      ],
      "name": "getLastPrice",
      "outputs": [
        {
          "internalType": "int256",
          "name": "price",
          "type": "int256"
        }
      ],
      "stateMutability": "view",
      "type": "function"
    },
    {
      "inputs": [
        {
          "internalType": "bytes32",
          "name": "_ccy",
          "type": "bytes32"
        }
      ],
      "name": "getPriceFeed",
      "outputs": [
        {
          "components": [
            {
              "internalType": "contract AggregatorV3Interface[]",
              "name": "instances",
              "type": "address[]"
            },
            {
              "internalType": "uint256",
              "name": "heartbeat",
              "type": "uint256"
            }
          ],
          "internalType": "struct PriceFeed",
          "name": "",
          "type": "tuple"
        }
      ],
      "stateMutability": "view",
      "type": "function"
    },
    {
      "inputs": [],
      "name": "getRevision",
      "outputs": [
        {
          "internalType": "uint256",
          "name": "",
          "type": "uint256"
        }
      ],
      "stateMutability": "pure",
      "type": "function"
    },
    {
      "inputs": [
        {
          "internalType": "address",
          "name": "_owner",
          "type": "address"
        }
      ],
      "name": "initialize",
      "outputs": [],
      "stateMutability": "nonpayable",
      "type": "function"
    },
    {
      "inputs": [],
      "name": "owner",
      "outputs": [
        {
          "internalType": "address",
          "name": "",
          "type": "address"
        }
      ],
      "stateMutability": "view",
      "type": "function"
    },
    {
      "inputs": [
        {
          "internalType": "bytes32",
          "name": "_ccy",
          "type": "bytes32"
        }
      ],
      "name": "removeCurrency",
      "outputs": [],
      "stateMutability": "nonpayable",
      "type": "function"
    },
    {
      "inputs": [
        {
          "internalType": "bytes32",
          "name": "_ccy",
          "type": "bytes32"
        }
      ],
      "name": "removePriceFeed",
      "outputs": [],
      "stateMutability": "nonpayable",
      "type": "function"
    },
    {
      "inputs": [],
      "name": "renounceOwnership",
      "outputs": [],
      "stateMutability": "nonpayable",
      "type": "function"
    },
    {
      "inputs": [
        {
          "internalType": "address",
          "name": "newOwner",
          "type": "address"
        }
      ],
      "name": "transferOwnership",
      "outputs": [],
      "stateMutability": "nonpayable",
      "type": "function"
    },
    {
      "inputs": [
        {
          "internalType": "bytes32",
          "name": "_ccy",
          "type": "bytes32"
        },
        {
          "internalType": "uint256",
          "name": "_haircut",
          "type": "uint256"
        }
      ],
      "name": "updateHaircut",
      "outputs": [],
      "stateMutability": "nonpayable",
      "type": "function"
    },
    {
      "inputs": [
        {
          "internalType": "bytes32",
          "name": "_ccy",
          "type": "bytes32"
        },
        {
          "internalType": "uint8",
          "name": "_decimals",
          "type": "uint8"
        },
        {
          "internalType": "address[]",
          "name": "_priceFeeds",
          "type": "address[]"
        },
        {
          "internalType": "uint256",
          "name": "_heartbeat",
          "type": "uint256"
        }
      ],
      "name": "updatePriceFeed",
      "outputs": [],
      "stateMutability": "nonpayable",
      "type": "function"
    }
  ],
  "transactionHash": "0x053959810fc92c4bfa1afc9af6425521b164fa40ab4f1dd8904583c5cd65ad34",
  "args": [],
  "numDeployments": 2,
  "solcInputHash": "286b44f5e34382b14e6f069fc52fe536",
  "bytecode": "0x608060405234801561001057600080fd5b5061223f806100206000396000f3fe608060405234801561001057600080fd5b50600436106101585760003560e01c80638a2eae92116100c3578063c4d66de81161007c578063c4d66de8146102eb578063ef279367146102fe578063efd4ad5a14610311578063f2fde38b14610324578063f44a1b3514610337578063fa4571901461034a57600080fd5b80638a2eae921461025f5780638c0adf62146102725780638da5cb5b146102925780639a5467b7146102b25780639abdb38a146102c5578063b99c6ca8146102d857600080fd5b806361c661de1161011557806361c661de146101f65780636ed2f1db1461020b578063715018a61461021e57806371bee4a11461022657806378fec692146102395780637d11cfda1461024c57600080fd5b806312105fea1461015d5780631316529d146101875780631c637a04146101985780631eae0893146101ab5780632491dc8c146101ce5780632e59f24d146101e1575b600080fd5b61017061016b366004611b79565b61035d565b60405160ff90911681526020015b60405180910390f35b60015b60405190815260200161017e565b61018a6101a6366004611b92565b61037e565b6101be6101b9366004611b79565b6103d4565b604051901515815260200161017e565b61018a6101dc366004611b79565b6103ee565b6101f46101ef366004611c0f565b61055c565b005b6101fe6105d0565b60405161017e9190611c73565b61018a610219366004611b92565b6105e7565b6101f4610631565b6101f4610234366004611b92565b61066c565b61018a610247366004611b92565b6106d1565b61018a61025a366004611b79565b61072b565b6101fe61026d366004611cb7565b610736565b610285610280366004611b79565b610846565b60405161017e9190611d03565b61029a6108e9565b6040516001600160a01b03909116815260200161017e565b6101fe6102c0366004611d68565b61091c565b61018a6102d3366004611b79565b610abf565b61018a6102e6366004611dbb565b610add565b6101f46102f9366004611e03565b610b8b565b6101f461030c366004611e1e565b610d09565b6101f461031f366004611b79565b610da4565b6101f4610332366004611e03565b610e14565b6101f4610345366004611b79565b610eb4565b6101fe610358366004611cb7565b61104b565b6000610367611140565b600092835260030160205250604090205460ff1690565b60006103cd61039461038f85611164565b61132a565b61039c611140565b600086815260039190910160205260409020546103bd9060ff16600a611f8a565b6103c79085611f99565b90611380565b9392505050565b60006103e8826103e2611140565b906113f1565b92915050565b60006103f982611164565b90506000610405611140565b60008481526004919091016020908152604091829020825181546060938102820184018552938101848152909391928492849184018282801561047157602002820191906000526020600020905b81546001600160a01b03168152600190910190602001808311610453575b50505050508152602001600182015481525050905060005b81515161049890600190611fb0565b811015610555576000826000015182815181106104b7576104b7611fc3565b60200260200101516001600160a01b031663313ce5676040518163ffffffff1660e01b8152600401602060405180830381865afa1580156104fc573d6000803e3d6000fd5b505050506040513d601f19601f820116820180604052508101906105209190611fd9565b905061053f61053861053383600a611f8a565b611409565b8590611473565b935050808061054d90611ff6565b915050610489565b5050919050565b336105656108e9565b6001600160a01b0316146105945760405162461bcd60e51b815260040161058b9061200f565b60405180910390fd5b8461059e816103d4565b6105bb57604051631eb3268560e31b815260040160405180910390fd5b6105c88686868686611510565b505050505050565b60606105e26105dd611140565b61180d565b905090565b6000816000036105f9575060006103e8565b6103cd610604611140565b600085815260039190910160205260409020546106259060ff16600a611f8a565b6103bd61038f86611164565b3361063a6108e9565b6001600160a01b0316146106605760405162461bcd60e51b815260040161058b9061200f565b61066a6000611818565b565b336106756108e9565b6001600160a01b03161461069b5760405162461bcd60e51b815260040161058b9061200f565b816106a5816103d4565b6106c257604051631eb3268560e31b815260040160405180910390fd5b6106cc8383611889565b505050565b6000816000036106e3575060006103e8565b6103cd6107126106f1611140565b600086815260039190910160205260409020546105339060ff16600a611f8a565b61071b85611164565b6107259085612044565b90611473565b60006103e882611164565b60608167ffffffffffffffff81111561075157610751612074565b60405190808252806020026020018201604052801561077a578160200160208202803683370190505b509050600061078b61038f86611164565b90506000610797611140565b6000878152600391909101602052604081205460ff1691505b8481101561083c578585828181106107ca576107ca611fc3565b905060200201356000031561082a5761080b6107e783600a61208a565b848888858181106107fa576107fa611fc3565b905060200201356103c79190611f99565b84828151811061081d5761081d611fc3565b6020026020010181815250505b8061083481611ff6565b9150506107b0565b5050509392505050565b604080518082019091526060815260006020820152610863611140565b6000838152600491909101602090815260409182902082518154606093810282018401855293810184815290939192849284918401828280156108cf57602002820191906000526020600020905b81546001600160a01b031681526001909101906020018083116108b1575b505050505081526020016001820154815250509050919050565b60007f9acda75aebd150dd434541a4747a6dc606f4f1a59662477e67daf1fc0bf9e0aa5b546001600160a01b0316919050565b606083850361096157828280806020026020016040519081016040528093929190818152602001838360200280828437600092019190915250929350610ab792505050565b600061096c86611164565b9050600061097986611164565b90506000610985611140565b6000888152600391909101602052604081205460ff1691506109a5611140565b60008a8152600391909101602052604090205460ff1690508567ffffffffffffffff8111156109d6576109d6612074565b6040519080825280602002602001820160405280156109ff578160200160208202803683370190505b50945060005b86811015610ab157878782818110610a1f57610a1f611fc3565b9050602002013560000315610a9f57610a8084610a3d84600a61208a565b610a479190611f99565b610a5285600a61208a565b878b8b86818110610a6557610a65611fc3565b90506020020135610a769190611f99565b6103c79190611f99565b868281518110610a9257610a92611fc3565b6020026020010181815250505b80610aa981611ff6565b915050610a05565b50505050505b949350505050565b6000610ac9611140565b600092835260020160205250604090205490565b6000828403610aed5750806103cd565b81600003610afd575060006103cd565b6000610b0885611164565b90506000610b1585611164565b9050610b8181610b23611140565b60008981526003919091016020526040902054610b449060ff16600a611f8a565b610b4e9190611f99565b610b56611140565b60008881526003919091016020526040902054610b779060ff16600a611f8a565b610a768588611f99565b9695505050505050565b600054610100900460ff1615808015610bab5750600054600160ff909116105b80610bc55750303b158015610bc5575060005460ff166001145b610c285760405162461bcd60e51b815260206004820152602e60248201527f496e697469616c697a61626c653a20636f6e747261637420697320616c72656160448201526d191e481a5b9a5d1a585b1a5e995960921b606482015260840161058b565b6000805460ff191660011790558015610c4b576000805461ff0019166101001790555b6000610c5561190b565b6001600160a01b031603610cb65760405162461bcd60e51b815260206004820152602260248201527f4d7573742062652063616c6c65642066726f6d2070726f787920636f6e74726160448201526118dd60f21b606482015260840161058b565b610cbf82611818565b8015610d05576000805461ff0019169055604051600181527f7f26b83ff96e1f2b6a682f133852f6798a09c465da95921460cefb38474024989060200160405180910390a15b5050565b33610d126108e9565b6001600160a01b031614610d385760405162461bcd60e51b815260040161058b9061200f565b610d4a86610d44611140565b90611933565b50610d558685611889565b610d628686858585611510565b857f79e8862930b44b699510a91d2ef96e28ebbdb9963c1a41053f16b6b09a02f63a85604051610d9491815260200190565b60405180910390a2505050505050565b33610dad6108e9565b6001600160a01b031614610dd35760405162461bcd60e51b815260040161058b9061200f565b610de581610ddf611140565b9061193f565b5060405181907fa3c6a408fb053e3ef5e9bcd22e3574324a5ae99fad263cc4080da481842d3d4c90600090a250565b33610e1d6108e9565b6001600160a01b031614610e435760405162461bcd60e51b815260040161058b9061200f565b6001600160a01b038116610ea85760405162461bcd60e51b815260206004820152602660248201527f4f776e61626c653a206e6577206f776e657220697320746865207a65726f206160448201526564647265737360d01b606482015260840161058b565b610eb181611818565b50565b33610ebd6108e9565b6001600160a01b031614610ee35760405162461bcd60e51b815260040161058b9061200f565b80610eed816103d4565b610f0a57604051631eb3268560e31b815260040160405180910390fd5b6000610f14611140565b600084815260049190910160209081526040918290208251815460609381028201840185529381018481529093919284928491840182828015610f8057602002820191906000526020600020905b81546001600160a01b03168152600190910190602001808311610f62575b505050505081526020016001820154815250509050806000015151600003610fbb5760405163771ae7d160e01b815260040160405180910390fd5b610fc3611140565b60008481526004919091016020526040812090610fe08282611ae9565b60018201600090555050610ff2611140565b6000848152600391909101602052604090819020805460ff19169055517f0a216b769c52442ef5c8d765614bdde4b5257f3510ed38c82f78dd7a800c64f99061103e9085815260200190565b60405180910390a1505050565b60608167ffffffffffffffff81111561106657611066612074565b60405190808252806020026020018201604052801561108f578160200160208202803683370190505b50905060006110a061038f86611164565b905060006110ac611140565b6000878152600391909101602052604081205460ff1691505b8481101561083c578585828181106110df576110df611fc3565b905060200201356000031561112e5761110f836110fd84600a61208a565b8888858181106107fa576107fa611fc3565b84828151811061112157611121611fc3565b6020026020010181815250505b8061113881611ff6565b9150506110c5565b7fbf1f6da7b18d0b1bd723139ae003962c8fa874ed2f9ff2b1948edfe1e7915f5d90565b60008061116f611140565b6000848152600491909101602090815260409182902082518154606093810282018401855293810184815290939192849284918401828280156111db57602002820191906000526020600020905b81546001600160a01b031681526001909101906020018083116111bd575b5050505050815260200160018201548152505090506001915060005b815151811015610555576000808360000151838151811061121a5761121a611fc3565b60200260200101516001600160a01b031663feaf968c6040518163ffffffff1660e01b815260040160a060405180830381865afa15801561125f573d6000803e3d6000fd5b505050506040513d601f19601f8201168201806040525081019061128391906120b0565b5093505092505061012c84602001514261129d9190611fb0565b6112a79190611fb0565b8110156113095783518051849081106112c2576112c2611fc3565b6020908102919091018101519085015160405163182b9e2d60e01b81526001600160a01b03909216600483015260248201526044810182905242606482015260840161058b565b6113138286612044565b94505050808061132290611ff6565b9150506111f7565b60008082121561137c5760405162461bcd60e51b815260206004820181905260248201527f53616665436173743a2076616c7565206d75737420626520706f736974697665604482015260640161058b565b5090565b600080821161138e57600080fd5b600561139a8385612116565b6113a590600a611f99565b836113b186600a611f99565b6113bb9190612116565b6113c59190611fb0565b10156113dc576113d58284612116565b90506103e8565b6113e68284612116565b6113d590600161212a565b600081815260018301602052604081205415156103cd565b60006001600160ff1b0382111561137c5760405162461bcd60e51b815260206004820152602860248201527f53616665436173743a2076616c756520646f65736e27742066697420696e2061604482015267371034b73a191a9b60c11b606482015260840161058b565b60008160000361148257600080fd5b600061148e838561213d565b61149990600a612044565b836114a586600a612044565b6114af919061213d565b6114b9919061216b565b9050600581126114e0576114cd838561213d565b6114d890600161218b565b9150506103e8565b60041981136114ff5760016114f5848661213d565b6114d8919061216b565b6114d8838561213d565b5092915050565b60008267ffffffffffffffff81111561152b5761152b612074565b604051908082528060200260200182016040528015611554578160200160208202803683370190505b5090506000839003611579576040516352cc3f7d60e01b815260040160405180910390fd5b60005b8381101561173a5784848281811061159657611596611fc3565b90506020020160208101906115ab9190611e03565b8282815181106115bd576115bd611fc3565b60200260200101906001600160a01b031690816001600160a01b03168152505060008282815181106115f1576115f1611fc3565b60200260200101516001600160a01b031663feaf968c6040518163ffffffff1660e01b815260040160a060405180830381865afa158015611636573d6000803e3d6000fd5b505050506040513d601f19601f8201168201806040525081019061165a91906120b0565b50505091505060008112156116815760405162bfc92160e01b815260040160405180910390fd5b600083838151811061169557611695611fc3565b60200260200101516001600160a01b031663313ce5676040518163ffffffff1660e01b8152600401602060405180830381865afa1580156116da573d6000803e3d6000fd5b505050506040513d601f19601f820116820180604052508101906116fe9190611fd9565b905060128160ff16111561172557604051630692acc560e51b815260040160405180910390fd5b5050808061173290611ff6565b91505061157c565b50604051806040016040528082815260200183815250611758611140565b60008881526004919091016020908152604090912082518051919261178292849290910190611b07565b506020820151816001015590505084611799611140565b6000888152600391909101602052604090819020805460ff191660ff9390931692909217909155516117ce90859085906121b3565b6040805191829003822088835260ff88166020840152917faf2416e0ffd277a1c2a1fef2ff896a40da9811f6feda6a84c1ce6d4ff5d7067e9101610d94565b60606103e88261194b565b7f9acda75aebd150dd434541a4747a6dc606f4f1a59662477e67daf1fc0bf9e0aa80546001600160a01b038381166001600160a01b0319831681179093556040519116919082907f8be0079c531659141344cd1fd0a4f28419497f9722a3daafe3b4186f6b6457e090600090a35050565b6127108111156118ac57604051631a64567960e11b815260040160405180910390fd5b806118b5611140565b600201600084815260200190815260200160002081905550817f99d976082a5e53ffddd334dbf2aec9b617affac6394470feb508f5fb662e0a1a826040516118ff91815260200190565b60405180910390a25050565b60007f360894a13ba1a3210667c828492db98dca3e2076cc3735a920a3ca505d382bbc61090d565b60006103cd83836119a7565b60006103cd83836119f6565b60608160000180548060200260200160405190810160405280929190818152602001828054801561199b57602002820191906000526020600020905b815481526020019060010190808311611987575b50505050509050919050565b60008181526001830160205260408120546119ee575081546001818101845560008481526020808220909301849055845484825282860190935260409020919091556103e8565b5060006103e8565b60008181526001830160205260408120548015611adf576000611a1a600183611fb0565b8554909150600090611a2e90600190611fb0565b9050818114611a93576000866000018281548110611a4e57611a4e611fc3565b9060005260206000200154905080876000018481548110611a7157611a71611fc3565b6000918252602080832090910192909255918252600188019052604090208390555b8554869080611aa457611aa46121f3565b6001900381819060005260206000200160009055905585600101600086815260200190815260200160002060009055600193505050506103e8565b60009150506103e8565b5080546000825590600052602060002090810190610eb19190611b64565b828054828255906000526020600020908101928215611b5c579160200282015b82811115611b5c57825182546001600160a01b0319166001600160a01b03909116178255602090920191600190910190611b27565b5061137c9291505b5b8082111561137c5760008155600101611b65565b600060208284031215611b8b57600080fd5b5035919050565b60008060408385031215611ba557600080fd5b50508035926020909101359150565b60ff81168114610eb157600080fd5b60008083601f840112611bd557600080fd5b50813567ffffffffffffffff811115611bed57600080fd5b6020830191508360208260051b8501011115611c0857600080fd5b9250929050565b600080600080600060808688031215611c2757600080fd5b853594506020860135611c3981611bb4565b9350604086013567ffffffffffffffff811115611c5557600080fd5b611c6188828901611bc3565b96999598509660600135949350505050565b6020808252825182820181905260009190848201906040850190845b81811015611cab57835183529284019291840191600101611c8f565b50909695505050505050565b600080600060408486031215611ccc57600080fd5b83359250602084013567ffffffffffffffff811115611cea57600080fd5b611cf686828701611bc3565b9497909650939450505050565b6020808252825160408383015280516060840181905260009291820190839060808601905b80831015611d515783516001600160a01b03168252928401926001929092019190840190611d28565b508387015160408701528094505050505092915050565b60008060008060608587031215611d7e57600080fd5b8435935060208501359250604085013567ffffffffffffffff811115611da357600080fd5b611daf87828801611bc3565b95989497509550505050565b600080600060608486031215611dd057600080fd5b505081359360208301359350604090920135919050565b80356001600160a01b0381168114611dfe57600080fd5b919050565b600060208284031215611e1557600080fd5b6103cd82611de7565b60008060008060008060a08789031215611e3757600080fd5b863595506020870135611e4981611bb4565b945060408701359350606087013567ffffffffffffffff811115611e6c57600080fd5b611e7889828a01611bc3565b979a9699509497949695608090950135949350505050565b634e487b7160e01b600052601160045260246000fd5b600181815b80851115611ee1578160001904821115611ec757611ec7611e90565b80851615611ed457918102915b93841c9390800290611eab565b509250929050565b600082611ef8575060016103e8565b81611f05575060006103e8565b8160018114611f1b5760028114611f2557611f41565b60019150506103e8565b60ff841115611f3657611f36611e90565b50506001821b6103e8565b5060208310610133831016604e8410600b8410161715611f64575081810a6103e8565b611f6e8383611ea6565b8060001904821115611f8257611f82611e90565b029392505050565b60006103cd60ff841683611ee9565b80820281158282048414176103e8576103e8611e90565b818103818111156103e8576103e8611e90565b634e487b7160e01b600052603260045260246000fd5b600060208284031215611feb57600080fd5b81516103cd81611bb4565b60006001820161200857612008611e90565b5060010190565b6020808252818101527f4f776e61626c653a2063616c6c6572206973206e6f7420746865206f776e6572604082015260600190565b80820260008212600160ff1b8414161561206057612060611e90565b81810583148215176103e8576103e8611e90565b634e487b7160e01b600052604160045260246000fd5b60006103cd8383611ee9565b805169ffffffffffffffffffff81168114611dfe57600080fd5b600080600080600060a086880312156120c857600080fd5b6120d186612096565b94506020860151935060408601519250606086015191506120f460808701612096565b90509295509295909350565b634e487b7160e01b600052601260045260246000fd5b60008261212557612125612100565b500490565b808201808211156103e8576103e8611e90565b60008261214c5761214c612100565b600160ff1b82146000198414161561216657612166611e90565b500590565b818103600083128015838313168383128216171561150957611509611e90565b80820182811260008312801582168215821617156121ab576121ab611e90565b505092915050565b60008184825b858110156121e8576001600160a01b036121d283611de7565b16835260209283019291909101906001016121b9565b509095945050505050565b634e487b7160e01b600052603160045260246000fdfea2646970667358221220287305a2c50a02ee9161eb9a2c6269ff5e7970b4404f33c0951a70fc2ec02f8264736f6c63430008130033",
  "implementation": "0x6e320C4C43cF4D81ef9Af0c6BD1aDc33E3905bFd",
  "devdoc": {
    "events": {
      "Initialized(uint8)": {
        "details": "Triggered when the contract has been initialized or reinitialized."
      }
    },
    "kind": "dev",
    "methods": {
      "addCurrency(bytes32,uint8,uint256,address[],uint256)": {
        "params": {
          "_ccy": "Currency name in bytes32k",
          "_decimals": "Currency decimals",
          "_haircut": "Remaining ratio after haircut",
          "_priceFeeds": "Array with the contract address of price feed"
        }
      },
      "convert(bytes32,bytes32,uint256)": {
        "params": {
          "_amount": "Amount to be converted",
          "_fromCcy": "Currency to convert from",
          "_toCcy": "Currency to convert to"
        },
        "returns": {
          "amount": "The converted amount"
        }
      },
      "convert(bytes32,bytes32,uint256[])": {
        "params": {
          "_amounts": "Amounts to be converted",
          "_fromCcy": "Currency to convert from",
          "_toCcy": "Currency to convert to"
        },
        "returns": {
          "amounts": "The converted amounts"
        }
      },
      "convertFromBaseCurrency(bytes32,uint256)": {
        "params": {
          "_amount": "Amount in the base currency to be converted",
          "_ccy": "Currency that has to be converted from the base currency."
        },
        "returns": {
          "amount": "The converted amount"
        }
      },
      "convertFromBaseCurrency(bytes32,uint256[])": {
        "params": {
          "_amounts": "Amounts in the base currency to be converted",
          "_ccy": "Currency that has to be converted to the base currency."
        },
        "returns": {
          "amounts": "The converted amounts"
        }
      },
      "convertToBaseCurrency(bytes32,int256)": {
        "params": {
          "_amount": "Amount to be converted",
          "_ccy": "Currency that has to be converted to the base currency."
        },
        "returns": {
          "amount": "The converted amount"
        }
      },
      "convertToBaseCurrency(bytes32,uint256)": {
        "params": {
          "_amount": "Amount to be converted",
          "_ccy": "Currency that has to be converted to the base currency"
        },
        "returns": {
          "amount": "The converted amount"
        }
      },
      "convertToBaseCurrency(bytes32,uint256[])": {
        "params": {
          "_amounts": "Amounts to be converted",
          "_ccy": "Currency that has to be converted to the base currency."
        },
        "returns": {
          "amounts": "The converted amounts"
        }
      },
      "currencyExists(bytes32)": {
        "params": {
          "_ccy": "Currency name in bytes32"
        },
        "returns": {
          "_0": "The boolean if the selected currency is supported or not"
        }
      },
      "getAggregatedLastPrice(bytes32)": {
        "params": {
          "_ccy": "Currency name in bytes32"
        },
        "returns": {
          "price": "The last price"
        }
      },
      "getCurrencies()": {
        "returns": {
          "_0": "The array of the currency"
        }
      },
      "getDecimals(bytes32)": {
        "params": {
          "_ccy": "Currency name in bytes32"
        }
      },
      "getHaircut(bytes32)": {
        "params": {
          "_ccy": "Currency name in bytes32"
        }
      },
      "getLastPrice(bytes32)": {
        "params": {
          "_ccy": "Currency name in bytes32"
        },
        "returns": {
          "price": "The last price"
        }
      },
      "getPriceFeed(bytes32)": {
        "params": {
          "_ccy": "Currency name in bytes32"
        }
      },
      "initialize(address)": {
        "details": "Function is invoked by the proxy contract when the contract is added to the ProxyController.",
        "params": {
          "_owner": "The address of the contract owner"
        }
      },
      "owner()": {
        "details": "Returns the address of the current owner."
      },
      "removeCurrency(bytes32)": {
        "params": {
          "_ccy": "Currency name in bytes32"
        }
      },
      "removePriceFeed(bytes32)": {
        "params": {
          "_ccy": "Currency name in bytes32"
        }
      },
      "renounceOwnership()": {
        "details": "Leaves the contract without owner. It will not be possible to call `onlyOwner` functions anymore. Can only be called by the current owner. NOTE: Renouncing ownership will leave the contract without an owner, thereby removing any functionality that is only available to the owner."
      },
      "transferOwnership(address)": {
        "details": "Transfers ownership of the contract to a new account (`newOwner`). Can only be called by the current owner."
      },
      "updateHaircut(bytes32,uint256)": {
        "params": {
          "_ccy": "Currency name in bytes32",
          "_haircut": "Remaining ratio after haircut"
        }
      },
      "updatePriceFeed(bytes32,uint8,address[],uint256)": {
        "params": {
          "_ccy": "Currency name in bytes32",
          "_decimals": "Currency decimals",
          "_priceFeeds": "Array with the contract address of price feed"
        }
      }
    },
    "version": 1
  },
  "userdoc": {
    "kind": "user",
    "methods": {
      "addCurrency(bytes32,uint8,uint256,address[],uint256)": {
        "notice": "Adds new currency into the protocol and links with existing price feed."
      },
      "convert(bytes32,bytes32,uint256)": {
        "notice": "Gets the converted amount of currency."
      },
      "convert(bytes32,bytes32,uint256[])": {
        "notice": "Gets the converted amounts of currency."
      },
      "convertFromBaseCurrency(bytes32,uint256)": {
        "notice": "Gets the converted amount to the selected currency from the base currency."
      },
      "convertFromBaseCurrency(bytes32,uint256[])": {
        "notice": "Gets the converted amounts to the selected currency from the base currency."
      },
      "convertToBaseCurrency(bytes32,int256)": {
        "notice": "Gets the converted amount in the base currency."
      },
      "convertToBaseCurrency(bytes32,uint256)": {
        "notice": "Gets the converted amount in the base currency."
      },
      "convertToBaseCurrency(bytes32,uint256[])": {
        "notice": "Gets the converted amounts in the base currency."
      },
      "currencyExists(bytes32)": {
        "notice": "Gets if the selected currency is supported."
      },
      "getAggregatedLastPrice(bytes32)": {
        "notice": "Gets the last price of the selected currency in the base currency. This price is returned in the aggregated decimals of all price feeds."
      },
      "getCurrencies()": {
        "notice": "Gets all currencies."
      },
      "getDecimals(bytes32)": {
        "notice": "Gets aggregated and cached decimals of the price feeds for the selected currency."
      },
      "getHaircut(bytes32)": {
        "notice": "Gets haircut ratio for the selected currency. Haircut is used in bilateral netting cross-calculation."
      },
      "getLastPrice(bytes32)": {
        "notice": "Gets the last price of the selected currency in the base currency."
      },
      "getPriceFeed(bytes32)": {
        "notice": "Gets price feed for the selected currency."
      },
      "initialize(address)": {
        "notice": "Initializes the contract."
      },
      "removeCurrency(bytes32)": {
        "notice": "Updates the flag indicating if the currency is supported in the protocol."
      },
      "removePriceFeed(bytes32)": {
        "notice": "Removes existing Chainlink price feed."
      },
      "updateHaircut(bytes32,uint256)": {
        "notice": "Updates the haircut ratio for supported currency"
      },
      "updatePriceFeed(bytes32,uint8,address[],uint256)": {
        "notice": "Update the price feed contract addresses."
      }
    },
    "notice": "Implements managing of the supported currencies in the protocol. This contract links new currencies to Chainlink price feeds. To add a new currency to the protocol except for the base currency, the owner needs to also add an existing price feed contract.",
    "version": 1
  },
  "storageLayout": {
    "storage": [
      {
        "astId": 995,
        "contract": "contracts/protocol/CurrencyController.sol:CurrencyController",
        "label": "_initialized",
        "offset": 0,
        "slot": "0",
        "type": "t_uint8"
      },
      {
        "astId": 998,
        "contract": "contracts/protocol/CurrencyController.sol:CurrencyController",
        "label": "_initializing",
        "offset": 1,
        "slot": "0",
        "type": "t_bool"
      }
    ],
    "types": {
      "t_bool": {
        "encoding": "inplace",
        "label": "bool",
        "numberOfBytes": "1"
      },
      "t_uint8": {
        "encoding": "inplace",
        "label": "uint8",
        "numberOfBytes": "1"
      }
    }
  }
}