{
  "address": "0xcA91A3b57EC22EBb423948066a0A078cfa326df8",
  "abi": [
    {
      "anonymous": false,
      "inputs": [
        {
          "indexed": true,
          "internalType": "bytes32",
          "name": "ccy",
          "type": "bytes32"
        },
        {
          "indexed": false,
          "internalType": "string",
          "name": "name",
          "type": "string"
        },
        {
          "indexed": false,
          "internalType": "uint256",
          "name": "haircut",
          "type": "uint256"
        }
      ],
      "name": "CcyAdded",
      "type": "event"
    },
    {
      "anonymous": false,
      "inputs": [
        {
          "indexed": true,
          "internalType": "bytes32",
          "name": "ccy",
          "type": "bytes32"
        },
        {
          "indexed": false,
          "internalType": "bool",
          "name": "isSupported",
          "type": "bool"
        }
      ],
      "name": "CcySupportUpdate",
      "type": "event"
    },
    {
      "anonymous": false,
      "inputs": [
        {
          "indexed": true,
          "internalType": "bytes32",
          "name": "ccy",
          "type": "bytes32"
        },
        {
          "indexed": false,
          "internalType": "uint256",
          "name": "haircut",
          "type": "uint256"
        }
      ],
      "name": "HaircutUpdated",
      "type": "event"
    },
    {
      "anonymous": false,
      "inputs": [
        {
          "indexed": false,
          "internalType": "uint8",
          "name": "version",
          "type": "uint8"
        }
      ],
      "name": "Initialized",
      "type": "event"
    },
    {
      "anonymous": false,
      "inputs": [
        {
          "indexed": true,
          "internalType": "address",
          "name": "previousOwner",
          "type": "address"
        },
        {
          "indexed": true,
          "internalType": "address",
          "name": "newOwner",
          "type": "address"
        }
      ],
      "name": "OwnershipTransferred",
      "type": "event"
    },
    {
      "anonymous": false,
      "inputs": [
        {
          "indexed": false,
          "internalType": "bytes32",
          "name": "ccy",
          "type": "bytes32"
        },
        {
          "indexed": false,
          "internalType": "string",
          "name": "secondCcy",
          "type": "string"
        },
        {
          "indexed": true,
          "internalType": "address",
          "name": "priceFeed",
          "type": "address"
        }
      ],
      "name": "PriceFeedAdded",
      "type": "event"
    },
    {
      "anonymous": false,
      "inputs": [
        {
          "indexed": false,
          "internalType": "bytes32",
          "name": "ccy",
          "type": "bytes32"
        },
        {
          "indexed": false,
          "internalType": "string",
          "name": "secondCcy",
          "type": "string"
        },
        {
          "indexed": true,
          "internalType": "address",
          "name": "priceFeed",
          "type": "address"
        }
      ],
      "name": "PriceFeedRemoved",
      "type": "event"
    },
    {
      "inputs": [
        {
          "internalType": "bytes32",
          "name": "_ccy",
          "type": "bytes32"
        },
        {
          "internalType": "uint256",
          "name": "_amountETH",
          "type": "uint256"
        }
      ],
      "name": "convertFromETH",
      "outputs": [
        {
          "internalType": "uint256",
          "name": "",
          "type": "uint256"
        }
      ],
      "stateMutability": "view",
      "type": "function"
    },
    {
      "inputs": [
        {
          "internalType": "bytes32",
          "name": "_ccy",
          "type": "bytes32"
        },
        {
          "internalType": "int256",
          "name": "_amount",
          "type": "int256"
        }
      ],
      "name": "convertToETH",
      "outputs": [
        {
          "internalType": "int256",
          "name": "",
          "type": "int256"
        }
      ],
      "stateMutability": "view",
      "type": "function"
    },
    {
      "inputs": [
        {
          "internalType": "bytes32",
          "name": "_ccy",
          "type": "bytes32"
        },
        {
          "internalType": "uint256",
          "name": "_amount",
          "type": "uint256"
        }
      ],
      "name": "convertToETH",
      "outputs": [
        {
          "internalType": "uint256",
          "name": "",
          "type": "uint256"
        }
      ],
      "stateMutability": "view",
      "type": "function"
    },
    {
      "inputs": [
        {
          "internalType": "bytes32",
          "name": "_ccy",
          "type": "bytes32"
        }
      ],
      "name": "getCurrencies",
      "outputs": [
        {
          "components": [
            {
              "internalType": "bool",
              "name": "isSupported",
              "type": "bool"
            },
            {
              "internalType": "string",
              "name": "name",
              "type": "string"
            }
          ],
          "internalType": "struct ProtocolTypes.Currency",
          "name": "",
          "type": "tuple"
        }
      ],
      "stateMutability": "view",
      "type": "function"
    },
    {
      "inputs": [
        {
          "internalType": "bytes32",
          "name": "_ccy",
          "type": "bytes32"
        }
      ],
      "name": "getEthDecimals",
      "outputs": [
        {
          "internalType": "uint8",
          "name": "",
          "type": "uint8"
        }
      ],
      "stateMutability": "view",
      "type": "function"
    },
    {
      "inputs": [
        {
          "internalType": "bytes32",
          "name": "_ccy",
          "type": "bytes32"
        }
      ],
      "name": "getHaircut",
      "outputs": [
        {
          "internalType": "uint256",
          "name": "",
          "type": "uint256"
        }
      ],
      "stateMutability": "view",
      "type": "function"
    },
    {
      "inputs": [
        {
          "internalType": "bytes32",
          "name": "_ccy",
          "type": "bytes32"
        },
        {
          "internalType": "uint80",
          "name": "_roundId",
          "type": "uint80"
        }
      ],
      "name": "getHistoricalETHPrice",
      "outputs": [
        {
          "internalType": "int256",
          "name": "",
          "type": "int256"
        }
      ],
      "stateMutability": "view",
      "type": "function"
    },
    {
      "inputs": [
        {
          "internalType": "bytes32",
          "name": "_ccy",
          "type": "bytes32"
        },
        {
          "internalType": "uint80",
          "name": "_roundId",
          "type": "uint80"
        }
      ],
      "name": "getHistoricalUSDPrice",
      "outputs": [
        {
          "internalType": "int256",
          "name": "",
          "type": "int256"
        }
      ],
      "stateMutability": "view",
      "type": "function"
    },
    {
      "inputs": [
        {
          "internalType": "bytes32",
          "name": "_ccy",
          "type": "bytes32"
        }
      ],
      "name": "getLastETHPrice",
      "outputs": [
        {
          "internalType": "int256",
          "name": "",
          "type": "int256"
        }
      ],
      "stateMutability": "view",
      "type": "function"
    },
    {
      "inputs": [
        {
          "internalType": "bytes32",
          "name": "_ccy",
          "type": "bytes32"
        }
      ],
      "name": "getLastUSDPrice",
      "outputs": [
        {
          "internalType": "int256",
          "name": "",
          "type": "int256"
        }
      ],
      "stateMutability": "view",
      "type": "function"
    },
    {
      "inputs": [
        {
          "internalType": "bytes32",
          "name": "_ccy",
          "type": "bytes32"
        }
      ],
      "name": "getUsdDecimals",
      "outputs": [
        {
          "internalType": "uint8",
          "name": "",
          "type": "uint8"
        }
      ],
      "stateMutability": "view",
      "type": "function"
    },
    {
      "inputs": [
        {
          "internalType": "address",
          "name": "_owner",
          "type": "address"
        }
      ],
      "name": "initialize",
      "outputs": [],
      "stateMutability": "nonpayable",
      "type": "function"
    },
    {
      "inputs": [
        {
          "internalType": "bytes32",
          "name": "_ccy",
          "type": "bytes32"
        }
      ],
      "name": "isSupportedCcy",
      "outputs": [
        {
          "internalType": "bool",
          "name": "",
          "type": "bool"
        }
      ],
      "stateMutability": "view",
      "type": "function"
    },
    {
      "inputs": [
        {
          "internalType": "bytes32",
          "name": "_ccy",
          "type": "bytes32"
        },
        {
          "internalType": "address",
          "name": "_priceFeedAddr",
          "type": "address"
        },
        {
          "internalType": "bool",
          "name": "_isEthPriceFeed",
          "type": "bool"
        }
      ],
      "name": "linkPriceFeed",
      "outputs": [
        {
          "internalType": "bool",
          "name": "",
          "type": "bool"
        }
      ],
      "stateMutability": "nonpayable",
      "type": "function"
    },
    {
      "inputs": [],
      "name": "owner",
      "outputs": [
        {
          "internalType": "address",
          "name": "",
          "type": "address"
        }
      ],
      "stateMutability": "view",
      "type": "function"
    },
    {
      "inputs": [
        {
          "internalType": "bytes32",
          "name": "_ccy",
          "type": "bytes32"
        },
        {
          "internalType": "bool",
          "name": "_isEthPriceFeed",
          "type": "bool"
        }
      ],
      "name": "removePriceFeed",
      "outputs": [],
      "stateMutability": "nonpayable",
      "type": "function"
    },
    {
      "inputs": [],
      "name": "renounceOwnership",
      "outputs": [],
      "stateMutability": "nonpayable",
      "type": "function"
    },
    {
      "inputs": [
        {
          "internalType": "bytes32",
          "name": "_ccy",
          "type": "bytes32"
        },
        {
          "internalType": "string",
          "name": "_name",
          "type": "string"
        },
        {
          "internalType": "address",
          "name": "_ethPriceFeed",
          "type": "address"
        },
        {
          "internalType": "uint256",
          "name": "_haircut",
          "type": "uint256"
        }
      ],
      "name": "supportCurrency",
      "outputs": [],
      "stateMutability": "nonpayable",
      "type": "function"
    },
    {
      "inputs": [
        {
          "internalType": "address",
          "name": "newOwner",
          "type": "address"
        }
      ],
      "name": "transferOwnership",
      "outputs": [],
      "stateMutability": "nonpayable",
      "type": "function"
    },
    {
      "inputs": [
        {
          "internalType": "bytes32",
          "name": "_ccy",
          "type": "bytes32"
        },
        {
          "internalType": "uint256",
          "name": "_haircut",
          "type": "uint256"
        }
      ],
      "name": "updateCcyHaircut",
      "outputs": [],
      "stateMutability": "nonpayable",
      "type": "function"
    },
    {
      "inputs": [
        {
          "internalType": "bytes32",
          "name": "_ccy",
          "type": "bytes32"
        },
        {
          "internalType": "bool",
          "name": "_isSupported",
          "type": "bool"
        }
      ],
      "name": "updateCurrencySupport",
      "outputs": [],
      "stateMutability": "nonpayable",
      "type": "function"
    }
  ],
  "transactionHash": "0x02bd7dcd284e6f85e6529c4e9bcabc0c5842a01707b7d87abb0ae517f9ed4012",
  "args": [],
  "numDeployments": 2,
  "solcInputHash": "b7fa5f68d69cd1b5fe0568bdfbbd4111",
  "bytecode": "0x608060405234801561001057600080fd5b50611c14806100206000396000f3fe608060405234801561001057600080fd5b50600436106101375760003560e01c80637b7904e3116100b8578063cc8dd9f11161007c578063cc8dd9f11461028f578063d090faf0146102b2578063d4d4f6ce146102c5578063ea6c88a5146102d8578063f2fde38b146102eb578063facae93f146102fe57600080fd5b80637b7904e3146102235780638da5cb5b146102365780639abdb38a14610256578063b11459b414610269578063c4d66de81461027c57600080fd5b806350326d22116100ff57806350326d22146101c05780635e5658d2146101d357806360cd4478146101f35780636d01544d14610206578063715018a61461021957600080fd5b8063042613711461013c57806306d062ad146101665780631743ffce146101875780633a0a22f01461019a57806344a6ecdd146101ad575b600080fd5b61014f61014a3660046116f6565b610311565b60405160ff90911681526020015b60405180910390f35b61017961017436600461170f565b610332565b60405190815260200161015d565b6101796101953660046116f6565b610411565b6101796101a836600461170f565b6104d5565b6101796101bb36600461170f565b6105a9565b6101796101ce3660046116f6565b610673565b6101e66101e13660046116f6565b6106d4565b60405161015d919061177e565b6101796102013660046117c5565b6107b2565b6101796102143660046117c5565b6108dd565b610221610939565b005b61022161023136600461180a565b610974565b61023e610bd2565b6040516001600160a01b03909116815260200161015d565b6101796102643660046116f6565b610c05565b61022161027736600461170f565b610c23565b61022161028a36600461184d565b610d97565b6102a261029d36600461186f565b610f16565b604051901515815260200161015d565b6102216102c03660046118c1565b6112f3565b6102a26102d33660046116f6565b611439565b6102216102e636600461180a565b611457565b6102216102f936600461184d565b6114df565b61014f61030c3660046116f6565b61157f565b600061031b6115a0565b600092835260040160205250604090205460ff1690565b60006208aa8960eb1b83141561034957508061040b565b60006103536115a0565b60008581526003919091016020526040808220548151633fabe5a360e21b815291516001600160a01b039091169350839163feaf968c9160048083019260a0929190829003018186803b1580156103a957600080fd5b505afa1580156103bd573d6000803e3d6000fd5b505050506040513d601f19601f820116820180604052508101906103e19190611994565b5050509150508084670de0b6b3a76400006103fc9190611a02565b6104069190611a37565b925050505b92915050565b60006208aa8960eb1b8214156104305750670de0b6b3a7640000919050565b600061043a6115a0565b60008481526003919091016020526040808220548151633fabe5a360e21b815291516001600160a01b039091169350839163feaf968c9160048083019260a0929190829003018186803b15801561049057600080fd5b505afa1580156104a4573d6000803e3d6000fd5b505050506040513d601f19601f820116820180604052508101906104c89190611994565b5091979650505050505050565b60006208aa8960eb1b8314156104ec57508061040b565b60006104f66115a0565b60008581526003919091016020526040808220548151633fabe5a360e21b815291516001600160a01b039091169350839163feaf968c9160048083019260a0929190829003018186803b15801561054c57600080fd5b505afa158015610560573d6000803e3d6000fd5b505050506040513d601f19601f820116820180604052508101906105849190611994565b505050915050670de0b6b3a7640000818561059f9190611a4b565b6104069190611ad0565b60006208aa8960eb1b8314156105c057508061040b565b60006105ca6115a0565b60008581526003919091016020526040808220548151633fabe5a360e21b815291516001600160a01b039091169350839163feaf968c9160048083019260a0929190829003018186803b15801561062057600080fd5b505afa158015610634573d6000803e3d6000fd5b505050506040513d601f19601f820116820180604052508101906106589190611994565b505050915050670de0b6b3a764000081856103fc9190611a02565b60008061067e6115a0565b60008481526002919091016020526040808220548151633fabe5a360e21b815291516001600160a01b039091169350839163feaf968c9160048083019260a0929190829003018186803b15801561049057600080fd5b6040805180820190915260008152606060208201526106f16115a0565b600083815260209182526040908190208151808301909252805460ff1615158252600181018054929391929184019161072990611afe565b80601f016020809104026020016040519081016040528092919081815260200182805461075590611afe565b80156107a25780601f10610777576101008083540402835291602001916107a2565b820191906000526020600020905b81548152906001019060200180831161078557829003601f168201915b5050505050815250509050919050565b60006208aa8960eb1b8314156107d15750670de0b6b3a764000061040b565b60006107db6115a0565b60008581526003919091016020526040808220549051639a6fc8f560e01b815269ffffffffffffffffffff861660048201526001600160a01b03909116925081908390639a6fc8f5906024015b60a06040518083038186803b15801561084057600080fd5b505afa158015610854573d6000803e3d6000fd5b505050506040513d601f19601f820116820180604052508101906108789190611994565b50935050925050600081116108d45760405162461bcd60e51b815260206004820152601760248201527f526f756e64206e6f7420636f6d706c657465642079657400000000000000000060448201526064015b60405180910390fd5b50949350505050565b6000806108e86115a0565b60008581526002919091016020526040808220549051639a6fc8f560e01b815269ffffffffffffffffffff861660048201526001600160a01b03909116925081908390639a6fc8f590602401610828565b33610942610bd2565b6001600160a01b0316146109685760405162461bcd60e51b81526004016108cb90611b39565b61097260006115c4565b565b3361097d610bd2565b6001600160a01b0316146109a35760405162461bcd60e51b81526004016108cb90611b39565b816109ad81611439565b6109ed5760405162461bcd60e51b8152602060048201526011602482015270155b9cdd5c1c1bdc9d195908185cdcd95d607a1b60448201526064016108cb565b60018215151415610aec576000610a026115a0565b600085815260039190910160205260409020546001600160a01b0316905080610a3d5760405162461bcd60e51b81526004016108cb90611b6e565b610a456115a0565b60008581526003919091016020526040902080546001600160a01b0319169055610a6d6115a0565b6000858152600591909101602052604090819020805460ff19169055516001600160a01b038216907ea0d5a605fe34a5efa696fb7b7fc385f4efcc9d0ff516d7dc7a1cbfbe065ee790610ade908781526040602082018190526003908201526208aa8960eb1b606082015260800190565b60405180910390a250505050565b6000610af66115a0565b600085815260029190910160205260409020546001600160a01b0316905080610b315760405162461bcd60e51b81526004016108cb90611b6e565b610b396115a0565b60008581526002919091016020526040902080546001600160a01b0319169055610b616115a0565b6000858152600491909101602052604090819020805460ff19169055516001600160a01b038216907ea0d5a605fe34a5efa696fb7b7fc385f4efcc9d0ff516d7dc7a1cbfbe065ee790610ade90878152604060208201819052600390820152621554d160ea1b606082015260800190565b60007f9acda75aebd150dd434541a4747a6dc606f4f1a59662477e67daf1fc0bf9e0aa5b546001600160a01b0316919050565b6000610c0f6115a0565b600092835260010160205250604090205490565b33610c2c610bd2565b6001600160a01b031614610c525760405162461bcd60e51b81526004016108cb90611b39565b81610c5c81611439565b610c9c5760405162461bcd60e51b8152602060048201526011602482015270155b9cdd5c1c1bdc9d195908185cdcd95d607a1b60448201526064016108cb565b60008211610cec5760405162461bcd60e51b815260206004820152601760248201527f496e636f7272656374206861697263757420726174696f00000000000000000060448201526064016108cb565b612710821115610d375760405162461bcd60e51b81526020600482015260166024820152754861697263757420726174696f206f766572666c6f7760501b60448201526064016108cb565b81610d406115a0565b600101600085815260200190815260200160002081905550827f99d976082a5e53ffddd334dbf2aec9b617affac6394470feb508f5fb662e0a1a83604051610d8a91815260200190565b60405180910390a2505050565b600054610100900460ff1615808015610db75750600054600160ff909116105b80610dd15750303b158015610dd1575060005460ff166001145b610e345760405162461bcd60e51b815260206004820152602e60248201527f496e697469616c697a61626c653a20636f6e747261637420697320616c72656160448201526d191e481a5b9a5d1a585b1a5e995960921b60648201526084016108cb565b6000805460ff191660011790558015610e57576000805461ff0019166101001790555b6000610e61611635565b6001600160a01b03161415610ec35760405162461bcd60e51b815260206004820152602260248201527f4d7573742062652063616c6c65642066726f6d2070726f787920636f6e74726160448201526118dd60f21b60648201526084016108cb565b610ecc826115c4565b8015610f12576000805461ff0019169055604051600181527f7f26b83ff96e1f2b6a682f133852f6798a09c465da95921460cefb38474024989060200160405180910390a15b5050565b600033610f21610bd2565b6001600160a01b031614610f475760405162461bcd60e51b81526004016108cb90611b39565b6001600160a01b038316610f9d5760405162461bcd60e51b815260206004820152601960248201527f436f756c646e2774206c696e6b2030783020616464726573730000000000000060448201526064016108cb565b60008390506000816001600160a01b031663feaf968c6040518163ffffffff1660e01b815260040160a06040518083038186803b158015610fdd57600080fd5b505afa158015610ff1573d6000803e3d6000fd5b505050506040513d601f19601f820116820180604052508101906110159190611994565b505050915050600081121561103c5760405162461bcd60e51b81526004016108cb90611b6e565b6000826001600160a01b031663313ce5676040518163ffffffff1660e01b815260040160206040518083038186803b15801561107757600080fd5b505afa15801561108b573d6000803e3d6000fd5b505050506040513d601f19601f820116820180604052508101906110af9190611b99565b905060128160ff1611156110f85760405162461bcd60e51b815260206004820152601060248201526f496e76616c696420646563696d616c7360801b60448201526064016108cb565b8415611219576208aa8960eb1b8714156111485760405162461bcd60e51b8152602060048201526011602482015270086c2dc4ee840d8d2dcd640e8de408aa89607b1b60448201526064016108cb565b826111516115a0565b60008981526003919091016020526040902080546001600160a01b0319166001600160a01b03929092169190911790558061118a6115a0565b600501600089815260200190815260200160002060006101000a81548160ff021916908360ff160217905550856001600160a01b03167f6537ffaaeebdb294479a8b7fab1081c2b15de1a4bc9df657aad801547748fa4a8860405161120c9181526040602082018190526003908201526208aa8960eb1b606082015260800190565b60405180910390a26112e6565b826112226115a0565b60008981526002919091016020526040902080546001600160a01b0319166001600160a01b03929092169190911790558061125b6115a0565b600401600089815260200190815260200160002060006101000a81548160ff021916908360ff160217905550856001600160a01b03167f6537ffaaeebdb294479a8b7fab1081c2b15de1a4bc9df657aad801547748fa4a886040516112dd918152604060208201819052600390820152621554d160ea1b606082015260800190565b60405180910390a25b5060019695505050505050565b336112fc610bd2565b6001600160a01b0316146113225760405162461bcd60e51b81526004016108cb90611b39565b604080518082019091526020810184905260018152806113406115a0565b60008781526020918252604090208251815460ff191690151517815582820151805191926113769260018501929091019061165d565b50905050816113836115a0565b600087815260019190910160205260409020556208aa8960eb1b85146113d0576113af85846001610f16565b6113cb5760405162461bcd60e51b81526004016108cb90611b6e565b6113f8565b6113dc85846000610f16565b6113f85760405162461bcd60e51b81526004016108cb90611b6e565b847fac23727d2c524a59eb5ce3843d78ac0fecf91617367c24767157f62d5ad006e9858460405161142a929190611bbc565b60405180910390a25050505050565b60006114436115a0565b600092835260205250604090205460ff1690565b33611460610bd2565b6001600160a01b0316146114865760405162461bcd60e51b81526004016108cb90611b39565b60006114906115a0565b60008481526020918252604090819020805460ff191685151590811782559151918252925084917f9abbefd519a8bdb26fbc476187bc19038a6a41a175946595f6e9e900d9eb2a319101610d8a565b336114e8610bd2565b6001600160a01b03161461150e5760405162461bcd60e51b81526004016108cb90611b39565b6001600160a01b0381166115735760405162461bcd60e51b815260206004820152602660248201527f4f776e61626c653a206e6577206f776e657220697320746865207a65726f206160448201526564647265737360d01b60648201526084016108cb565b61157c816115c4565b50565b60006115896115a0565b600092835260050160205250604090205460ff1690565b7fbf1f6da7b18d0b1bd723139ae003962c8fa874ed2f9ff2b1948edfe1e7915f5d90565b7f9acda75aebd150dd434541a4747a6dc606f4f1a59662477e67daf1fc0bf9e0aa80546001600160a01b038381166001600160a01b0319831681179093556040519116919082907f8be0079c531659141344cd1fd0a4f28419497f9722a3daafe3b4186f6b6457e090600090a35050565b60007f360894a13ba1a3210667c828492db98dca3e2076cc3735a920a3ca505d382bbc610bf6565b82805461166990611afe565b90600052602060002090601f01602090048101928261168b57600085556116d1565b82601f106116a457805160ff19168380011785556116d1565b828001600101855582156116d1579182015b828111156116d15782518255916020019190600101906116b6565b506116dd9291506116e1565b5090565b5b808211156116dd57600081556001016116e2565b60006020828403121561170857600080fd5b5035919050565b6000806040838503121561172257600080fd5b50508035926020909101359150565b6000815180845260005b818110156117575760208185018101518683018201520161173b565b81811115611769576000602083870101525b50601f01601f19169290920160200192915050565b60208152815115156020820152600060208301516040808401526117a56060840182611731565b949350505050565b69ffffffffffffffffffff8116811461157c57600080fd5b600080604083850312156117d857600080fd5b8235915060208301356117ea816117ad565b809150509250929050565b8035801515811461180557600080fd5b919050565b6000806040838503121561181d57600080fd5b8235915061182d602084016117f5565b90509250929050565b80356001600160a01b038116811461180557600080fd5b60006020828403121561185f57600080fd5b61186882611836565b9392505050565b60008060006060848603121561188457600080fd5b8335925061189460208501611836565b91506118a2604085016117f5565b90509250925092565b634e487b7160e01b600052604160045260246000fd5b600080600080608085870312156118d757600080fd5b84359350602085013567ffffffffffffffff808211156118f657600080fd5b818701915087601f83011261190a57600080fd5b81358181111561191c5761191c6118ab565b604051601f8201601f19908116603f01168101908382118183101715611944576119446118ab565b816040528281528a602084870101111561195d57600080fd5b82602086016020830137600060208483010152809750505050505061198460408601611836565b9396929550929360600135925050565b600080600080600060a086880312156119ac57600080fd5b85516119b7816117ad565b8095505060208601519350604086015192506060860151915060808601516119de816117ad565b809150509295509295909350565b634e487b7160e01b600052601160045260246000fd5b6000816000190483118215151615611a1c57611a1c6119ec565b500290565b634e487b7160e01b600052601260045260246000fd5b600082611a4657611a46611a21565b500490565b60006001600160ff1b0381841382841380821686840486111615611a7157611a716119ec565b600160ff1b6000871282811687830589121615611a9057611a906119ec565b60008712925087820587128484161615611aac57611aac6119ec565b87850587128184161615611ac257611ac26119ec565b505050929093029392505050565b600082611adf57611adf611a21565b600160ff1b821460001984141615611af957611af96119ec565b500590565b600181811c90821680611b1257607f821691505b60208210811415611b3357634e487b7160e01b600052602260045260246000fd5b50919050565b6020808252818101527f4f776e61626c653a2063616c6c6572206973206e6f7420746865206f776e6572604082015260600190565b602080825260119082015270125b9d985b1a5908141c9a58d951995959607a1b604082015260600190565b600060208284031215611bab57600080fd5b815160ff8116811461186857600080fd5b604081526000611bcf6040830185611731565b9050826020830152939250505056fea2646970667358221220f447221c179eca70c2a7190041d8deeae65b76e8272a2164078d22638059526964736f6c63430008090033",
  "implementation": "0x2FB5c5f1DC7833368006A76d28c8eeDd629093f2",
  "devdoc": {
    "kind": "dev",
    "methods": {
      "convertFromETH(bytes32,uint256)": {
        "params": {
          "_amountETH": "Amount in ETH to be converted",
          "_ccy": "Currency that has to be converted from ETH"
        },
        "returns": {
          "_0": "The converted amount"
        }
      },
      "convertToETH(bytes32,int256)": {
        "params": {
          "_amount": "Amount to be converted",
          "_ccy": "Currency that has to be converted to ETH"
        },
        "returns": {
          "_0": "The converted amount"
        }
      },
      "convertToETH(bytes32,uint256)": {
        "params": {
          "_amount": "Amount to be converted",
          "_ccy": "Currency that has to be converted to ETH"
        },
        "returns": {
          "_0": "The converted amount"
        }
      },
      "getCurrencies(bytes32)": {
        "params": {
          "_ccy": "Currency name in bytes32"
        },
        "returns": {
          "_0": "The currency data"
        }
      },
      "getEthDecimals(bytes32)": {
        "params": {
          "_ccy": "Currency name in bytes32"
        }
      },
      "getHaircut(bytes32)": {
        "params": {
          "_ccy": "Currency name in bytes32"
        }
      },
      "getHistoricalETHPrice(bytes32,uint80)": {
        "params": {
          "_ccy": "Currency name in bytes32",
          "_roundId": "RoundId"
        },
        "returns": {
          "_0": "The historical price in ETH"
        }
      },
      "getHistoricalUSDPrice(bytes32,uint80)": {
        "params": {
          "_ccy": "Currency name in bytes32",
          "_roundId": "RoundId"
        },
        "returns": {
          "_0": "The historical price in USD"
        }
      },
      "getLastETHPrice(bytes32)": {
        "params": {
          "_ccy": "Currency name in bytes32"
        },
        "returns": {
          "_0": "The last price in ETH"
        }
      },
      "getLastUSDPrice(bytes32)": {
        "params": {
          "_ccy": "Currency name in bytes32"
        },
        "returns": {
          "_0": "The last price in USD"
        }
      },
      "getUsdDecimals(bytes32)": {
        "params": {
          "_ccy": "Currency name in bytes32"
        }
      },
      "initialize(address)": {
        "details": "Function is invoked by the proxy contract when the contract is added to the ProxyController.",
        "params": {
          "_owner": "The address of the contract owner"
        }
      },
      "isSupportedCcy(bytes32)": {
        "params": {
          "_ccy": "Currency name in bytes32"
        },
        "returns": {
          "_0": "The boolean if the selected currency is supported or not"
        }
      },
      "linkPriceFeed(bytes32,address,bool)": {
        "details": "This method can use only Chainlink.",
        "params": {
          "_ccy": "Currency name in bytes32",
          "_isEthPriceFeed": "Boolean if the price feed is in ETH or not",
          "_priceFeedAddr": "The contract address of Chainlink price feed"
        },
        "returns": {
          "_0": "True if the execution of the operation succeeds"
        }
      },
      "owner()": {
        "details": "Returns the address of the current owner."
      },
      "removePriceFeed(bytes32,bool)": {
        "params": {
          "_ccy": "Currency name in bytes32",
          "_isEthPriceFeed": "Boolean if the price feed is in ETH or not"
        }
      },
      "renounceOwnership()": {
        "details": "Leaves the contract without owner. It will not be possible to call `onlyOwner` functions anymore. Can only be called by the current owner. NOTE: Renouncing ownership will leave the contract without an owner, thereby removing any functionality that is only available to the owner."
      },
      "supportCurrency(bytes32,string,address,uint256)": {
        "params": {
          "_ccy": "Currency name in bytes32",
          "_ethPriceFeed": "Address for ETH price feed",
          "_haircut": "Haircut ratio used to calculate in collateral calculations",
          "_name": "Currency full name"
        }
      },
      "transferOwnership(address)": {
        "details": "Transfers ownership of the contract to a new account (`newOwner`). Can only be called by the current owner."
      },
      "updateCcyHaircut(bytes32,uint256)": {
        "params": {
          "_ccy": "Currency name in bytes32",
          "_haircut": "Haircut ratio used to calculate in collateral calculations"
        }
      },
      "updateCurrencySupport(bytes32,bool)": {
        "params": {
          "_ccy": "Currency name in bytes32",
          "_isSupported": "Boolean if currency is supported"
        }
      }
    },
    "version": 1
  },
  "userdoc": {
    "kind": "user",
    "methods": {
      "convertFromETH(bytes32,uint256)": {
        "notice": "Gets the converted amount to the selected currency from ETH."
      },
      "convertToETH(bytes32,int256)": {
        "notice": "Gets the converted amount of currency in ETH."
      },
      "convertToETH(bytes32,uint256)": {
        "notice": "Gets the converted amount of currency in ETH."
      },
      "getCurrencies(bytes32)": {
        "notice": "Gets the currency data."
      },
      "getEthDecimals(bytes32)": {
        "notice": "Get ETH decimal for the selected currency."
      },
      "getHaircut(bytes32)": {
        "notice": "Gets haircut ratio for the selected currency. Haircut is used in bilateral netting cross-calculation."
      },
      "getHistoricalETHPrice(bytes32,uint80)": {
        "notice": "Gets the historical price in ETH for the selected currency."
      },
      "getHistoricalUSDPrice(bytes32,uint80)": {
        "notice": "Gets the historical price in USD for the selected currency."
      },
      "getLastETHPrice(bytes32)": {
        "notice": "Gets the last price in ETH for the selected currency."
      },
      "getLastUSDPrice(bytes32)": {
        "notice": "Gets the last price in USD for the selected currency."
      },
      "getUsdDecimals(bytes32)": {
        "notice": "Gets USD decimal for the selected currency."
      },
      "initialize(address)": {
        "notice": "Initializes the contract."
      },
      "isSupportedCcy(bytes32)": {
        "notice": "Gets if the selected currency is supported."
      },
      "linkPriceFeed(bytes32,address,bool)": {
        "notice": "Links the contract to existing Chainlink price feed."
      },
      "removePriceFeed(bytes32,bool)": {
        "notice": "Removes existing Chainlink price feed."
      },
      "supportCurrency(bytes32,string,address,uint256)": {
        "notice": "Adds new currency into the protocol and links with existing ETH price feed of Chainlink."
      },
      "updateCcyHaircut(bytes32,uint256)": {
        "notice": "Updates the haircut ratio for supported currency"
      },
      "updateCurrencySupport(bytes32,bool)": {
        "notice": "Updates the flag indicating if the currency is supported in the protocol."
      }
    },
    "notice": "Implements managing of the supported currencies in the protocol. This contract links new currencies to ETH Chainlink price feeds, without an existing price feed contract owner is not able to add a new currency into the protocol",
    "version": 1
  },
  "storageLayout": {
    "storage": [
      {
        "astId": 790,
        "contract": "contracts/CurrencyController.sol:CurrencyController",
        "label": "_initialized",
        "offset": 0,
        "slot": "0",
        "type": "t_uint8"
      },
      {
        "astId": 793,
        "contract": "contracts/CurrencyController.sol:CurrencyController",
        "label": "_initializing",
        "offset": 1,
        "slot": "0",
        "type": "t_bool"
      }
    ],
    "types": {
      "t_bool": {
        "encoding": "inplace",
        "label": "bool",
        "numberOfBytes": "1"
      },
      "t_uint8": {
        "encoding": "inplace",
        "label": "uint8",
        "numberOfBytes": "1"
      }
    }
  }
}