{
  "address": "0x7199fD0e1B3dB78ad09553a72538bd6c73761788",
  "abi": [
    {
      "anonymous": false,
      "inputs": [
        {
          "indexed": false,
          "internalType": "bytes32",
          "name": "ccy",
          "type": "bytes32"
        },
        {
          "indexed": false,
          "internalType": "string",
          "name": "secondCcy",
          "type": "string"
        },
        {
          "indexed": true,
          "internalType": "address",
          "name": "priceFeed",
          "type": "address"
        }
      ],
      "name": "AddPriceFeed",
      "type": "event"
    },
    {
      "anonymous": false,
      "inputs": [
        {
          "indexed": true,
          "internalType": "bytes32",
          "name": "ccy",
          "type": "bytes32"
        },
        {
          "indexed": false,
          "internalType": "string",
          "name": "name",
          "type": "string"
        },
        {
          "indexed": false,
          "internalType": "uint256",
          "name": "haircut",
          "type": "uint256"
        }
      ],
      "name": "AddSupportCurrency",
      "type": "event"
    },
    {
      "anonymous": false,
      "inputs": [
        {
          "indexed": false,
          "internalType": "uint8",
          "name": "version",
          "type": "uint8"
        }
      ],
      "name": "Initialized",
      "type": "event"
    },
    {
      "anonymous": false,
      "inputs": [
        {
          "indexed": true,
          "internalType": "address",
          "name": "previousOwner",
          "type": "address"
        },
        {
          "indexed": true,
          "internalType": "address",
          "name": "newOwner",
          "type": "address"
        }
      ],
      "name": "OwnershipTransferred",
      "type": "event"
    },
    {
      "anonymous": false,
      "inputs": [
        {
          "indexed": false,
          "internalType": "bytes32",
          "name": "ccy",
          "type": "bytes32"
        },
        {
          "indexed": false,
          "internalType": "string",
          "name": "secondCcy",
          "type": "string"
        },
        {
          "indexed": true,
          "internalType": "address",
          "name": "priceFeed",
          "type": "address"
        }
      ],
      "name": "RemovePriceFeed",
      "type": "event"
    },
    {
      "anonymous": false,
      "inputs": [
        {
          "indexed": true,
          "internalType": "bytes32",
          "name": "ccy",
          "type": "bytes32"
        },
        {
          "indexed": false,
          "internalType": "uint256",
          "name": "haircut",
          "type": "uint256"
        }
      ],
      "name": "UpdateHaircut",
      "type": "event"
    },
    {
      "anonymous": false,
      "inputs": [
        {
          "indexed": true,
          "internalType": "bytes32",
          "name": "ccy",
          "type": "bytes32"
        },
        {
          "indexed": false,
          "internalType": "bool",
          "name": "isSupported",
          "type": "bool"
        }
      ],
      "name": "UpdateSupportCurrency",
      "type": "event"
    },
    {
      "inputs": [
        {
          "internalType": "bytes32",
          "name": "_ccy",
          "type": "bytes32"
        },
        {
          "internalType": "uint256",
          "name": "_amountETH",
          "type": "uint256"
        }
      ],
      "name": "convertFromETH",
      "outputs": [
        {
          "internalType": "uint256",
          "name": "amount",
          "type": "uint256"
        }
      ],
      "stateMutability": "view",
      "type": "function"
    },
    {
      "inputs": [
        {
          "internalType": "bytes32",
          "name": "_ccy",
          "type": "bytes32"
        },
        {
          "internalType": "int256",
          "name": "_amount",
          "type": "int256"
        }
      ],
      "name": "convertToETH",
      "outputs": [
        {
          "internalType": "int256",
          "name": "amount",
          "type": "int256"
        }
      ],
      "stateMutability": "view",
      "type": "function"
    },
    {
      "inputs": [
        {
          "internalType": "bytes32",
          "name": "_ccy",
          "type": "bytes32"
        },
        {
          "internalType": "uint256",
          "name": "_amount",
          "type": "uint256"
        }
      ],
      "name": "convertToETH",
      "outputs": [
        {
          "internalType": "uint256",
          "name": "amount",
          "type": "uint256"
        }
      ],
      "stateMutability": "view",
      "type": "function"
    },
    {
      "inputs": [
        {
          "internalType": "bytes32",
          "name": "_ccy",
          "type": "bytes32"
        },
        {
          "internalType": "uint256[]",
          "name": "_amounts",
          "type": "uint256[]"
        }
      ],
      "name": "convertToETH",
      "outputs": [
        {
          "internalType": "uint256[]",
          "name": "amounts",
          "type": "uint256[]"
        }
      ],
      "stateMutability": "view",
      "type": "function"
    },
    {
      "inputs": [
        {
          "internalType": "bytes32",
          "name": "_ccy",
          "type": "bytes32"
        }
      ],
      "name": "getCurrency",
      "outputs": [
        {
          "components": [
            {
              "internalType": "bool",
              "name": "isSupported",
              "type": "bool"
            },
            {
              "internalType": "string",
              "name": "name",
              "type": "string"
            }
          ],
          "internalType": "struct Currency",
          "name": "",
          "type": "tuple"
        }
      ],
      "stateMutability": "view",
      "type": "function"
    },
    {
      "inputs": [
        {
          "internalType": "bytes32",
          "name": "_ccy",
          "type": "bytes32"
        }
      ],
      "name": "getEthDecimals",
      "outputs": [
        {
          "internalType": "uint8",
          "name": "",
          "type": "uint8"
        }
      ],
      "stateMutability": "view",
      "type": "function"
    },
    {
      "inputs": [
        {
          "internalType": "bytes32",
          "name": "_ccy",
          "type": "bytes32"
        }
      ],
      "name": "getHaircut",
      "outputs": [
        {
          "internalType": "uint256",
          "name": "",
          "type": "uint256"
        }
      ],
      "stateMutability": "view",
      "type": "function"
    },
    {
      "inputs": [
        {
          "internalType": "bytes32",
          "name": "_ccy",
          "type": "bytes32"
        },
        {
          "internalType": "uint80",
          "name": "_roundId",
          "type": "uint80"
        }
      ],
      "name": "getHistoricalETHPrice",
      "outputs": [
        {
          "internalType": "int256",
          "name": "",
          "type": "int256"
        }
      ],
      "stateMutability": "view",
      "type": "function"
    },
    {
      "inputs": [
        {
          "internalType": "bytes32",
          "name": "_ccy",
          "type": "bytes32"
        },
        {
          "internalType": "uint80",
          "name": "_roundId",
          "type": "uint80"
        }
      ],
      "name": "getHistoricalUSDPrice",
      "outputs": [
        {
          "internalType": "int256",
          "name": "",
          "type": "int256"
        }
      ],
      "stateMutability": "view",
      "type": "function"
    },
    {
      "inputs": [
        {
          "internalType": "bytes32",
          "name": "_ccy",
          "type": "bytes32"
        }
      ],
      "name": "getLastETHPrice",
      "outputs": [
        {
          "internalType": "int256",
          "name": "",
          "type": "int256"
        }
      ],
      "stateMutability": "view",
      "type": "function"
    },
    {
      "inputs": [
        {
          "internalType": "bytes32",
          "name": "_ccy",
          "type": "bytes32"
        }
      ],
      "name": "getLastUSDPrice",
      "outputs": [
        {
          "internalType": "int256",
          "name": "",
          "type": "int256"
        }
      ],
      "stateMutability": "view",
      "type": "function"
    },
    {
      "inputs": [
        {
          "internalType": "bytes32",
          "name": "_ccy",
          "type": "bytes32"
        }
      ],
      "name": "getUsdDecimals",
      "outputs": [
        {
          "internalType": "uint8",
          "name": "",
          "type": "uint8"
        }
      ],
      "stateMutability": "view",
      "type": "function"
    },
    {
      "inputs": [
        {
          "internalType": "address",
          "name": "_owner",
          "type": "address"
        }
      ],
      "name": "initialize",
      "outputs": [],
      "stateMutability": "nonpayable",
      "type": "function"
    },
    {
      "inputs": [
        {
          "internalType": "bytes32",
          "name": "_ccy",
          "type": "bytes32"
        }
      ],
      "name": "isSupportedCcy",
      "outputs": [
        {
          "internalType": "bool",
          "name": "",
          "type": "bool"
        }
      ],
      "stateMutability": "view",
      "type": "function"
    },
    {
      "inputs": [
        {
          "internalType": "bytes32",
          "name": "_ccy",
          "type": "bytes32"
        },
        {
          "internalType": "address",
          "name": "_priceFeedAddr",
          "type": "address"
        },
        {
          "internalType": "bool",
          "name": "_isEthPriceFeed",
          "type": "bool"
        }
      ],
      "name": "linkPriceFeed",
      "outputs": [
        {
          "internalType": "bool",
          "name": "",
          "type": "bool"
        }
      ],
      "stateMutability": "nonpayable",
      "type": "function"
    },
    {
      "inputs": [],
      "name": "owner",
      "outputs": [
        {
          "internalType": "address",
          "name": "",
          "type": "address"
        }
      ],
      "stateMutability": "view",
      "type": "function"
    },
    {
      "inputs": [
        {
          "internalType": "bytes32",
          "name": "_ccy",
          "type": "bytes32"
        },
        {
          "internalType": "bool",
          "name": "_isEthPriceFeed",
          "type": "bool"
        }
      ],
      "name": "removePriceFeed",
      "outputs": [],
      "stateMutability": "nonpayable",
      "type": "function"
    },
    {
      "inputs": [],
      "name": "renounceOwnership",
      "outputs": [],
      "stateMutability": "nonpayable",
      "type": "function"
    },
    {
      "inputs": [
        {
          "internalType": "bytes32",
          "name": "_ccy",
          "type": "bytes32"
        },
        {
          "internalType": "string",
          "name": "_name",
          "type": "string"
        },
        {
          "internalType": "address",
          "name": "_ethPriceFeed",
          "type": "address"
        },
        {
          "internalType": "uint256",
          "name": "_haircut",
          "type": "uint256"
        }
      ],
      "name": "supportCurrency",
      "outputs": [],
      "stateMutability": "nonpayable",
      "type": "function"
    },
    {
      "inputs": [
        {
          "internalType": "address",
          "name": "newOwner",
          "type": "address"
        }
      ],
      "name": "transferOwnership",
      "outputs": [],
      "stateMutability": "nonpayable",
      "type": "function"
    },
    {
      "inputs": [
        {
          "internalType": "bytes32",
          "name": "_ccy",
          "type": "bytes32"
        },
        {
          "internalType": "bool",
          "name": "_isSupported",
          "type": "bool"
        }
      ],
      "name": "updateCurrencySupport",
      "outputs": [],
      "stateMutability": "nonpayable",
      "type": "function"
    },
    {
      "inputs": [
        {
          "internalType": "bytes32",
          "name": "_ccy",
          "type": "bytes32"
        },
        {
          "internalType": "uint256",
          "name": "_haircut",
          "type": "uint256"
        }
      ],
      "name": "updateHaircut",
      "outputs": [],
      "stateMutability": "nonpayable",
      "type": "function"
    }
  ],
  "transactionHash": "0xf4b089824a608c8357db349887191ad6ea41f6a4fb09e3aa6379b96e6e8039b7",
  "args": [],
  "numDeployments": 2,
  "solcInputHash": "3c53353d59297dc150ed95b30db9a5aa",
  "bytecode": "0x608060405234801561001057600080fd5b50611f8a806100206000396000f3fe608060405234801561001057600080fd5b50600436106101425760003560e01c80638da5cb5b116100b8578063d090faf01161007c578063d090faf0146102bd578063d383b80d146102d0578063d4d4f6ce146102f0578063ea6c88a514610303578063f2fde38b14610316578063facae93f1461032957600080fd5b80638da5cb5b14610234578063939fe622146102545780639abdb38a14610274578063c4d66de814610287578063cc8dd9f11461029a57600080fd5b806350326d221161010a57806350326d22146101cb57806360cd4478146101de5780636d01544d146101f1578063715018a61461020457806371bee4a11461020e5780637b7904e31461022157600080fd5b8063042613711461014757806306d062ad146101715780631743ffce146101925780633a0a22f0146101a557806344a6ecdd146101b8575b600080fd5b61015a610155366004611930565b61033c565b60405160ff90911681526020015b60405180910390f35b61018461017f366004611949565b61035d565b604051908152602001610168565b6101846101a0366004611930565b610481565b6101846101b3366004611949565b610545565b6101846101c6366004611949565b61062f565b6101846101d9366004611930565b610710565b6101846101ec366004611983565b610771565b6101846101ff366004611983565b610897565b61020c6108f3565b005b61020c61021c366004611949565b61092e565b61020c61022f3660046119c8565b610aa2565b61023c610d02565b6040516001600160a01b039091168152602001610168565b610267610262366004611a3b565b610d35565b6040516101689190611aed565b610184610282366004611930565b610ed5565b61020c610295366004611b48565b610ef3565b6102ad6102a8366004611b6a565b611072565b6040519015158152602001610168565b61020c6102cb366004611ba6565b61144f565b6102e36102de366004611930565b611595565b6040516101689190611caa565b6102ad6102fe366004611930565b611673565b61020c6103113660046119c8565b611691565b61020c610324366004611b48565b611719565b61015a610337366004611930565b6117b9565b60006103466117da565b600092835260040160205250604090205460ff1690565b60006208aa8960eb1b83141561037457508061047b565b600061037e6117da565b60008581526003919091016020526040808220548151633fabe5a360e21b815291516001600160a01b039091169350839163feaf968c9160048083019260a0929190829003018186803b1580156103d457600080fd5b505afa1580156103e8573d6000803e3d6000fd5b505050506040513d601f19601f8201168201806040525081019061040c9190611cd9565b5050509150508084670de0b6b3a76400006104279190611d47565b6104319190611d7c565b9250826104785760405162461bcd60e51b815260206004820152601060248201526f151bdbc81cdb585b1b08185b5bdd5b9d60821b60448201526064015b60405180910390fd5b50505b92915050565b60006208aa8960eb1b8214156104a05750670de0b6b3a7640000919050565b60006104aa6117da565b60008481526003919091016020526040808220548151633fabe5a360e21b815291516001600160a01b039091169350839163feaf968c9160048083019260a0929190829003018186803b15801561050057600080fd5b505afa158015610514573d6000803e3d6000fd5b505050506040513d601f19601f820116820180604052508101906105389190611cd9565b5091979650505050505050565b60006208aa8960eb1b83141561055c57508061047b565b816105695750600061047b565b60006105736117da565b60008581526003919091016020526040808220548151633fabe5a360e21b815291516001600160a01b039091169350839163feaf968c9160048083019260a0929190829003018186803b1580156105c957600080fd5b505afa1580156105dd573d6000803e3d6000fd5b505050506040513d601f19601f820116820180604052508101906106019190611cd9565b505050915050670de0b6b3a7640000818561061c9190611d90565b6106269190611e15565b95945050505050565b60006208aa8960eb1b83141561064657508061047b565b816106535750600061047b565b600061065d6117da565b60008581526003919091016020526040808220548151633fabe5a360e21b815291516001600160a01b039091169350839163feaf968c9160048083019260a0929190829003018186803b1580156106b357600080fd5b505afa1580156106c7573d6000803e3d6000fd5b505050506040513d601f19601f820116820180604052508101906106eb9190611cd9565b505050915050670de0b6b3a764000081856107069190611d47565b6106269190611d7c565b60008061071b6117da565b60008481526002919091016020526040808220548151633fabe5a360e21b815291516001600160a01b039091169350839163feaf968c9160048083019260a0929190829003018186803b15801561050057600080fd5b60006208aa8960eb1b8314156107905750670de0b6b3a764000061047b565b600061079a6117da565b60008581526003919091016020526040808220549051639a6fc8f560e01b815269ffffffffffffffffffff861660048201526001600160a01b03909116925081908390639a6fc8f5906024015b60a06040518083038186803b1580156107ff57600080fd5b505afa158015610813573d6000803e3d6000fd5b505050506040513d601f19601f820116820180604052508101906108379190611cd9565b509350509250506000811161088e5760405162461bcd60e51b815260206004820152601760248201527f526f756e64206e6f7420636f6d706c6574656420796574000000000000000000604482015260640161046f565b50949350505050565b6000806108a26117da565b60008581526002919091016020526040808220549051639a6fc8f560e01b815269ffffffffffffffffffff861660048201526001600160a01b03909116925081908390639a6fc8f5906024016107e7565b336108fc610d02565b6001600160a01b0316146109225760405162461bcd60e51b815260040161046f90611e43565b61092c60006117fe565b565b33610937610d02565b6001600160a01b03161461095d5760405162461bcd60e51b815260040161046f90611e43565b8161096781611673565b6109a75760405162461bcd60e51b8152602060048201526011602482015270155b9cdd5c1c1bdc9d195908185cdcd95d607a1b604482015260640161046f565b600082116109f75760405162461bcd60e51b815260206004820152601760248201527f496e636f7272656374206861697263757420726174696f000000000000000000604482015260640161046f565b612710821115610a425760405162461bcd60e51b81526020600482015260166024820152754861697263757420726174696f206f766572666c6f7760501b604482015260640161046f565b81610a4b6117da565b600101600085815260200190815260200160002081905550827febb28c52f6a0458711b7e13473ac1bd682bb010268617c96e64386c5f31c035a83604051610a9591815260200190565b60405180910390a2505050565b33610aab610d02565b6001600160a01b031614610ad15760405162461bcd60e51b815260040161046f90611e43565b81610adb81611673565b610b1b5760405162461bcd60e51b8152602060048201526011602482015270155b9cdd5c1c1bdc9d195908185cdcd95d607a1b604482015260640161046f565b60018215151415610c1b576000610b306117da565b600085815260039190910160205260409020546001600160a01b0316905080610b6b5760405162461bcd60e51b815260040161046f90611e78565b610b736117da565b60008581526003919091016020526040902080546001600160a01b0319169055610b9b6117da565b6000858152600591909101602052604090819020805460ff19169055516001600160a01b038216907fc92569320eea471ac764202d7760fb042624c31c9a24401cdb5eadb232137f1a90610c0d908781526040602082018190526003908201526208aa8960eb1b606082015260800190565b60405180910390a250505050565b6000610c256117da565b600085815260029190910160205260409020546001600160a01b0316905080610c605760405162461bcd60e51b815260040161046f90611e78565b610c686117da565b60008581526002919091016020526040902080546001600160a01b0319169055610c906117da565b6000858152600491909101602052604090819020805460ff19169055516001600160a01b038216907fc92569320eea471ac764202d7760fb042624c31c9a24401cdb5eadb232137f1a90610c0d90878152604060208201819052600390820152621554d160ea1b606082015260800190565b60007f9acda75aebd150dd434541a4747a6dc606f4f1a59662477e67daf1fc0bf9e0aa5b546001600160a01b0316919050565b60606208aa8960eb1b831415610d4c57508061047b565b815167ffffffffffffffff811115610d6657610d666119f4565b604051908082528060200260200182016040528015610d8f578160200160208202803683370190505b50905060005b8251811015610ece57828181518110610db057610db0611ea3565b602002602001015160001415610dc557610ebc565b6000610dcf6117da565b60008681526003919091016020526040808220548151633fabe5a360e21b815291516001600160a01b039091169350839163feaf968c9160048083019260a0929190829003018186803b158015610e2557600080fd5b505afa158015610e39573d6000803e3d6000fd5b505050506040513d601f19601f82011682018060405250810190610e5d9190611cd9565b505050915050670de0b6b3a764000081868581518110610e7f57610e7f611ea3565b6020026020010151610e919190611d47565b610e9b9190611d7c565b848481518110610ead57610ead611ea3565b60200260200101818152505050505b80610ec681611eb9565b915050610d95565b5092915050565b6000610edf6117da565b600092835260010160205250604090205490565b600054610100900460ff1615808015610f135750600054600160ff909116105b80610f2d5750303b158015610f2d575060005460ff166001145b610f905760405162461bcd60e51b815260206004820152602e60248201527f496e697469616c697a61626c653a20636f6e747261637420697320616c72656160448201526d191e481a5b9a5d1a585b1a5e995960921b606482015260840161046f565b6000805460ff191660011790558015610fb3576000805461ff0019166101001790555b6000610fbd61186f565b6001600160a01b0316141561101f5760405162461bcd60e51b815260206004820152602260248201527f4d7573742062652063616c6c65642066726f6d2070726f787920636f6e74726160448201526118dd60f21b606482015260840161046f565b611028826117fe565b801561106e576000805461ff0019169055604051600181527f7f26b83ff96e1f2b6a682f133852f6798a09c465da95921460cefb38474024989060200160405180910390a15b5050565b60003361107d610d02565b6001600160a01b0316146110a35760405162461bcd60e51b815260040161046f90611e43565b6001600160a01b0383166110f95760405162461bcd60e51b815260206004820152601960248201527f436f756c646e2774206c696e6b20307830206164647265737300000000000000604482015260640161046f565b60008390506000816001600160a01b031663feaf968c6040518163ffffffff1660e01b815260040160a06040518083038186803b15801561113957600080fd5b505afa15801561114d573d6000803e3d6000fd5b505050506040513d601f19601f820116820180604052508101906111719190611cd9565b50505091505060008112156111985760405162461bcd60e51b815260040161046f90611e78565b6000826001600160a01b031663313ce5676040518163ffffffff1660e01b815260040160206040518083038186803b1580156111d357600080fd5b505afa1580156111e7573d6000803e3d6000fd5b505050506040513d601f19601f8201168201806040525081019061120b9190611ed4565b905060128160ff1611156112545760405162461bcd60e51b815260206004820152601060248201526f496e76616c696420646563696d616c7360801b604482015260640161046f565b8415611375576208aa8960eb1b8714156112a45760405162461bcd60e51b8152602060048201526011602482015270086c2dc4ee840d8d2dcd640e8de408aa89607b1b604482015260640161046f565b826112ad6117da565b60008981526003919091016020526040902080546001600160a01b0319166001600160a01b0392909216919091179055806112e66117da565b600501600089815260200190815260200160002060006101000a81548160ff021916908360ff160217905550856001600160a01b03167fe8370f7b8dee85620ef7ebb127895d66a596d16ea8b45c2f9b5d5c629dcdc248886040516113689181526040602082018190526003908201526208aa8960eb1b606082015260800190565b60405180910390a2611442565b8261137e6117da565b60008981526002919091016020526040902080546001600160a01b0319166001600160a01b0392909216919091179055806113b76117da565b600401600089815260200190815260200160002060006101000a81548160ff021916908360ff160217905550856001600160a01b03167fe8370f7b8dee85620ef7ebb127895d66a596d16ea8b45c2f9b5d5c629dcdc24888604051611439918152604060208201819052600390820152621554d160ea1b606082015260800190565b60405180910390a25b5060019695505050505050565b33611458610d02565b6001600160a01b03161461147e5760405162461bcd60e51b815260040161046f90611e43565b6040805180820190915260208101849052600181528061149c6117da565b60008781526020918252604090208251815460ff191690151517815582820151805191926114d292600185019290910190611897565b50905050816114df6117da565b600087815260019190910160205260409020556208aa8960eb1b851461152c5761150b85846001611072565b6115275760405162461bcd60e51b815260040161046f90611e78565b611554565b61153885846000611072565b6115545760405162461bcd60e51b815260040161046f90611e78565b847fe6645f0abe95979b1661e80c6ad66a32a3d6134d0ce26ff2bd3b538dd52e8b1b8584604051611586929190611ef7565b60405180910390a25050505050565b6040805180820190915260008152606060208201526115b26117da565b600083815260209182526040908190208151808301909252805460ff161515825260018101805492939192918401916115ea90611f19565b80601f016020809104026020016040519081016040528092919081815260200182805461161690611f19565b80156116635780601f1061163857610100808354040283529160200191611663565b820191906000526020600020905b81548152906001019060200180831161164657829003601f168201915b5050505050815250509050919050565b600061167d6117da565b600092835260205250604090205460ff1690565b3361169a610d02565b6001600160a01b0316146116c05760405162461bcd60e51b815260040161046f90611e43565b60006116ca6117da565b60008481526020918252604090819020805460ff191685151590811782559151918252925084917fc8a771478a6b028dc4cb997647eb10c3a8097ca2b1ce8a584006d896bdd9b2ec9101610a95565b33611722610d02565b6001600160a01b0316146117485760405162461bcd60e51b815260040161046f90611e43565b6001600160a01b0381166117ad5760405162461bcd60e51b815260206004820152602660248201527f4f776e61626c653a206e6577206f776e657220697320746865207a65726f206160448201526564647265737360d01b606482015260840161046f565b6117b6816117fe565b50565b60006117c36117da565b600092835260050160205250604090205460ff1690565b7fbf1f6da7b18d0b1bd723139ae003962c8fa874ed2f9ff2b1948edfe1e7915f5d90565b7f9acda75aebd150dd434541a4747a6dc606f4f1a59662477e67daf1fc0bf9e0aa80546001600160a01b038381166001600160a01b0319831681179093556040519116919082907f8be0079c531659141344cd1fd0a4f28419497f9722a3daafe3b4186f6b6457e090600090a35050565b60007f360894a13ba1a3210667c828492db98dca3e2076cc3735a920a3ca505d382bbc610d26565b8280546118a390611f19565b90600052602060002090601f0160209004810192826118c5576000855561190b565b82601f106118de57805160ff191683800117855561190b565b8280016001018555821561190b579182015b8281111561190b5782518255916020019190600101906118f0565b5061191792915061191b565b5090565b5b80821115611917576000815560010161191c565b60006020828403121561194257600080fd5b5035919050565b6000806040838503121561195c57600080fd5b50508035926020909101359150565b69ffffffffffffffffffff811681146117b657600080fd5b6000806040838503121561199657600080fd5b8235915060208301356119a88161196b565b809150509250929050565b803580151581146119c357600080fd5b919050565b600080604083850312156119db57600080fd5b823591506119eb602084016119b3565b90509250929050565b634e487b7160e01b600052604160045260246000fd5b604051601f8201601f1916810167ffffffffffffffff81118282101715611a3357611a336119f4565b604052919050565b60008060408385031215611a4e57600080fd5b8235915060208084013567ffffffffffffffff80821115611a6e57600080fd5b818601915086601f830112611a8257600080fd5b813581811115611a9457611a946119f4565b8060051b9150611aa5848301611a0a565b8181529183018401918481019089841115611abf57600080fd5b938501935b83851015611add57843582529385019390850190611ac4565b8096505050505050509250929050565b6020808252825182820181905260009190848201906040850190845b81811015611b2557835183529284019291840191600101611b09565b50909695505050505050565b80356001600160a01b03811681146119c357600080fd5b600060208284031215611b5a57600080fd5b611b6382611b31565b9392505050565b600080600060608486031215611b7f57600080fd5b83359250611b8f60208501611b31565b9150611b9d604085016119b3565b90509250925092565b60008060008060808587031215611bbc57600080fd5b8435935060208086013567ffffffffffffffff80821115611bdc57600080fd5b818801915088601f830112611bf057600080fd5b813581811115611c0257611c026119f4565b611c14601f8201601f19168501611a0a565b91508082528984828501011115611c2a57600080fd5b8084840185840137600084828401015250809550505050611c4d60408601611b31565b9396929550929360600135925050565b6000815180845260005b81811015611c8357602081850181015186830182015201611c67565b81811115611c95576000602083870101525b50601f01601f19169290920160200192915050565b6020815281511515602082015260006020830151604080840152611cd16060840182611c5d565b949350505050565b600080600080600060a08688031215611cf157600080fd5b8551611cfc8161196b565b809550506020860151935060408601519250606086015191506080860151611d238161196b565b809150509295509295909350565b634e487b7160e01b600052601160045260246000fd5b6000816000190483118215151615611d6157611d61611d31565b500290565b634e487b7160e01b600052601260045260246000fd5b600082611d8b57611d8b611d66565b500490565b60006001600160ff1b0381841382841380821686840486111615611db657611db6611d31565b600160ff1b6000871282811687830589121615611dd557611dd5611d31565b60008712925087820587128484161615611df157611df1611d31565b87850587128184161615611e0757611e07611d31565b505050929093029392505050565b600082611e2457611e24611d66565b600160ff1b821460001984141615611e3e57611e3e611d31565b500590565b6020808252818101527f4f776e61626c653a2063616c6c6572206973206e6f7420746865206f776e6572604082015260600190565b602080825260119082015270125b9d985b1a5908141c9a58d951995959607a1b604082015260600190565b634e487b7160e01b600052603260045260246000fd5b6000600019821415611ecd57611ecd611d31565b5060010190565b600060208284031215611ee657600080fd5b815160ff81168114611b6357600080fd5b604081526000611f0a6040830185611c5d565b90508260208301529392505050565b600181811c90821680611f2d57607f821691505b60208210811415611f4e57634e487b7160e01b600052602260045260246000fd5b5091905056fea2646970667358221220e50794c4e515f4c103f6213d0ae60fb13a4a7eff1342011381eb3114298aeb7964736f6c63430008090033",
  "implementation": "0xC2665D3aA5a2CF0166740e87d2bd8eA34204d9de",
  "devdoc": {
    "kind": "dev",
    "methods": {
      "convertFromETH(bytes32,uint256)": {
        "params": {
          "_amountETH": "Amount in ETH to be converted",
          "_ccy": "Currency that has to be converted from ETH"
        },
        "returns": {
          "amount": "The converted amount"
        }
      },
      "convertToETH(bytes32,int256)": {
        "params": {
          "_amount": "Amount to be converted",
          "_ccy": "Currency that has to be converted to ETH"
        },
        "returns": {
          "amount": "The converted amount"
        }
      },
      "convertToETH(bytes32,uint256)": {
        "params": {
          "_amount": "Amount to be converted",
          "_ccy": "Currency that has to be converted to ETH"
        },
        "returns": {
          "amount": "The converted amount"
        }
      },
      "convertToETH(bytes32,uint256[])": {
        "params": {
          "_amounts": "Amounts to be converted",
          "_ccy": "Currency that has to be converted to ETH"
        },
        "returns": {
          "amounts": "The converted amounts"
        }
      },
      "getCurrency(bytes32)": {
        "params": {
          "_ccy": "Currency name in bytes32"
        },
        "returns": {
          "_0": "The currency data"
        }
      },
      "getEthDecimals(bytes32)": {
        "params": {
          "_ccy": "Currency name in bytes32"
        }
      },
      "getHaircut(bytes32)": {
        "params": {
          "_ccy": "Currency name in bytes32"
        }
      },
      "getHistoricalETHPrice(bytes32,uint80)": {
        "params": {
          "_ccy": "Currency name in bytes32",
          "_roundId": "RoundId"
        },
        "returns": {
          "_0": "The historical price in ETH"
        }
      },
      "getHistoricalUSDPrice(bytes32,uint80)": {
        "params": {
          "_ccy": "Currency name in bytes32",
          "_roundId": "RoundId"
        },
        "returns": {
          "_0": "The historical price in USD"
        }
      },
      "getLastETHPrice(bytes32)": {
        "params": {
          "_ccy": "Currency name in bytes32"
        },
        "returns": {
          "_0": "The last price in ETH"
        }
      },
      "getLastUSDPrice(bytes32)": {
        "params": {
          "_ccy": "Currency name in bytes32"
        },
        "returns": {
          "_0": "The last price in USD"
        }
      },
      "getUsdDecimals(bytes32)": {
        "params": {
          "_ccy": "Currency name in bytes32"
        }
      },
      "initialize(address)": {
        "details": "Function is invoked by the proxy contract when the contract is added to the ProxyController.",
        "params": {
          "_owner": "The address of the contract owner"
        }
      },
      "isSupportedCcy(bytes32)": {
        "params": {
          "_ccy": "Currency name in bytes32"
        },
        "returns": {
          "_0": "The boolean if the selected currency is supported or not"
        }
      },
      "linkPriceFeed(bytes32,address,bool)": {
        "details": "This method can use only Chainlink.",
        "params": {
          "_ccy": "Currency name in bytes32",
          "_isEthPriceFeed": "Boolean if the price feed is in ETH or not",
          "_priceFeedAddr": "The contract address of Chainlink price feed"
        },
        "returns": {
          "_0": "True if the execution of the operation succeeds"
        }
      },
      "owner()": {
        "details": "Returns the address of the current owner."
      },
      "removePriceFeed(bytes32,bool)": {
        "params": {
          "_ccy": "Currency name in bytes32",
          "_isEthPriceFeed": "Boolean if the price feed is in ETH or not"
        }
      },
      "renounceOwnership()": {
        "details": "Leaves the contract without owner. It will not be possible to call `onlyOwner` functions anymore. Can only be called by the current owner. NOTE: Renouncing ownership will leave the contract without an owner, thereby removing any functionality that is only available to the owner."
      },
      "supportCurrency(bytes32,string,address,uint256)": {
        "params": {
          "_ccy": "Currency name in bytes32",
          "_ethPriceFeed": "Address for ETH price feed",
          "_haircut": "Remaining ratio after haircut",
          "_name": "Currency full name"
        }
      },
      "transferOwnership(address)": {
        "details": "Transfers ownership of the contract to a new account (`newOwner`). Can only be called by the current owner."
      },
      "updateCurrencySupport(bytes32,bool)": {
        "params": {
          "_ccy": "Currency name in bytes32",
          "_isSupported": "Boolean if currency is supported"
        }
      },
      "updateHaircut(bytes32,uint256)": {
        "params": {
          "_ccy": "Currency name in bytes32",
          "_haircut": "Remaining ratio after haircut"
        }
      }
    },
    "version": 1
  },
  "userdoc": {
    "kind": "user",
    "methods": {
      "convertFromETH(bytes32,uint256)": {
        "notice": "Gets the converted amount to the selected currency from ETH."
      },
      "convertToETH(bytes32,int256)": {
        "notice": "Gets the converted amount of currency in ETH."
      },
      "convertToETH(bytes32,uint256)": {
        "notice": "Gets the converted amount of currency in ETH."
      },
      "convertToETH(bytes32,uint256[])": {
        "notice": "Gets the converted amount of currency in ETH."
      },
      "getCurrency(bytes32)": {
        "notice": "Gets the currency data."
      },
      "getEthDecimals(bytes32)": {
        "notice": "Get ETH decimal for the selected currency."
      },
      "getHaircut(bytes32)": {
        "notice": "Gets haircut ratio for the selected currency. Haircut is used in bilateral netting cross-calculation."
      },
      "getHistoricalETHPrice(bytes32,uint80)": {
        "notice": "Gets the historical price in ETH for the selected currency."
      },
      "getHistoricalUSDPrice(bytes32,uint80)": {
        "notice": "Gets the historical price in USD for the selected currency."
      },
      "getLastETHPrice(bytes32)": {
        "notice": "Gets the last price in ETH for the selected currency."
      },
      "getLastUSDPrice(bytes32)": {
        "notice": "Gets the last price in USD for the selected currency."
      },
      "getUsdDecimals(bytes32)": {
        "notice": "Gets USD decimal for the selected currency."
      },
      "initialize(address)": {
        "notice": "Initializes the contract."
      },
      "isSupportedCcy(bytes32)": {
        "notice": "Gets if the selected currency is supported."
      },
      "linkPriceFeed(bytes32,address,bool)": {
        "notice": "Links the contract to existing Chainlink price feed."
      },
      "removePriceFeed(bytes32,bool)": {
        "notice": "Removes existing Chainlink price feed."
      },
      "supportCurrency(bytes32,string,address,uint256)": {
        "notice": "Adds new currency into the protocol and links with existing ETH price feed of Chainlink."
      },
      "updateCurrencySupport(bytes32,bool)": {
        "notice": "Updates the flag indicating if the currency is supported in the protocol."
      },
      "updateHaircut(bytes32,uint256)": {
        "notice": "Updates the haircut ratio for supported currency"
      }
    },
    "notice": "Implements managing of the supported currencies in the protocol. This contract links new currencies to ETH Chainlink price feeds, without an existing price feed contract owner is not able to add a new currency into the protocol",
    "version": 1
  },
  "storageLayout": {
    "storage": [
      {
        "astId": 790,
        "contract": "contracts/CurrencyController.sol:CurrencyController",
        "label": "_initialized",
        "offset": 0,
        "slot": "0",
        "type": "t_uint8"
      },
      {
        "astId": 793,
        "contract": "contracts/CurrencyController.sol:CurrencyController",
        "label": "_initializing",
        "offset": 1,
        "slot": "0",
        "type": "t_bool"
      }
    ],
    "types": {
      "t_bool": {
        "encoding": "inplace",
        "label": "bool",
        "numberOfBytes": "1"
      },
      "t_uint8": {
        "encoding": "inplace",
        "label": "uint8",
        "numberOfBytes": "1"
      }
    }
  }
}