{
  "address": "0x6FC12D28c7B3Ce6c8e5A208573599f2768d90fe0",
  "abi": [
    {
      "anonymous": false,
      "inputs": [
        {
          "indexed": true,
          "internalType": "bytes32",
          "name": "ccy",
          "type": "bytes32"
        },
        {
          "indexed": false,
          "internalType": "uint256",
          "name": "haircut",
          "type": "uint256"
        }
      ],
      "name": "AddCurrency",
      "type": "event"
    },
    {
      "anonymous": false,
      "inputs": [
        {
          "indexed": false,
          "internalType": "bytes32",
          "name": "ccy",
          "type": "bytes32"
        },
        {
          "indexed": false,
          "internalType": "string",
          "name": "secondCcy",
          "type": "string"
        },
        {
          "indexed": true,
          "internalType": "address",
          "name": "priceFeed",
          "type": "address"
        }
      ],
      "name": "AddPriceFeed",
      "type": "event"
    },
    {
      "anonymous": false,
      "inputs": [
        {
          "indexed": false,
          "internalType": "uint8",
          "name": "version",
          "type": "uint8"
        }
      ],
      "name": "Initialized",
      "type": "event"
    },
    {
      "anonymous": false,
      "inputs": [
        {
          "indexed": true,
          "internalType": "address",
          "name": "previousOwner",
          "type": "address"
        },
        {
          "indexed": true,
          "internalType": "address",
          "name": "newOwner",
          "type": "address"
        }
      ],
      "name": "OwnershipTransferred",
      "type": "event"
    },
    {
      "anonymous": false,
      "inputs": [
        {
          "indexed": true,
          "internalType": "bytes32",
          "name": "ccy",
          "type": "bytes32"
        }
      ],
      "name": "RemoveCurrency",
      "type": "event"
    },
    {
      "anonymous": false,
      "inputs": [
        {
          "indexed": false,
          "internalType": "bytes32",
          "name": "ccy",
          "type": "bytes32"
        },
        {
          "indexed": false,
          "internalType": "string",
          "name": "secondCcy",
          "type": "string"
        },
        {
          "indexed": true,
          "internalType": "address",
          "name": "priceFeed",
          "type": "address"
        }
      ],
      "name": "RemovePriceFeed",
      "type": "event"
    },
    {
      "anonymous": false,
      "inputs": [
        {
          "indexed": true,
          "internalType": "bytes32",
          "name": "ccy",
          "type": "bytes32"
        },
        {
          "indexed": false,
          "internalType": "uint256",
          "name": "haircut",
          "type": "uint256"
        }
      ],
      "name": "UpdateHaircut",
      "type": "event"
    },
    {
      "inputs": [
        {
          "internalType": "bytes32",
          "name": "_ccy",
          "type": "bytes32"
        },
        {
          "internalType": "address",
          "name": "_ethPriceFeed",
          "type": "address"
        },
        {
          "internalType": "uint256",
          "name": "_haircut",
          "type": "uint256"
        }
      ],
      "name": "addCurrency",
      "outputs": [],
      "stateMutability": "nonpayable",
      "type": "function"
    },
    {
      "inputs": [
        {
          "internalType": "bytes32",
          "name": "_ccy",
          "type": "bytes32"
        },
        {
          "internalType": "uint256",
          "name": "_amountETH",
          "type": "uint256"
        }
      ],
      "name": "convertFromETH",
      "outputs": [
        {
          "internalType": "uint256",
          "name": "amount",
          "type": "uint256"
        }
      ],
      "stateMutability": "view",
      "type": "function"
    },
    {
      "inputs": [
        {
          "internalType": "bytes32",
          "name": "_ccy",
          "type": "bytes32"
        },
        {
          "internalType": "int256",
          "name": "_amount",
          "type": "int256"
        }
      ],
      "name": "convertToETH",
      "outputs": [
        {
          "internalType": "int256",
          "name": "amount",
          "type": "int256"
        }
      ],
      "stateMutability": "view",
      "type": "function"
    },
    {
      "inputs": [
        {
          "internalType": "bytes32",
          "name": "_ccy",
          "type": "bytes32"
        },
        {
          "internalType": "uint256",
          "name": "_amount",
          "type": "uint256"
        }
      ],
      "name": "convertToETH",
      "outputs": [
        {
          "internalType": "uint256",
          "name": "amount",
          "type": "uint256"
        }
      ],
      "stateMutability": "view",
      "type": "function"
    },
    {
      "inputs": [
        {
          "internalType": "bytes32",
          "name": "_ccy",
          "type": "bytes32"
        },
        {
          "internalType": "uint256[]",
          "name": "_amounts",
          "type": "uint256[]"
        }
      ],
      "name": "convertToETH",
      "outputs": [
        {
          "internalType": "uint256[]",
          "name": "amounts",
          "type": "uint256[]"
        }
      ],
      "stateMutability": "view",
      "type": "function"
    },
    {
      "inputs": [
        {
          "internalType": "bytes32",
          "name": "_ccy",
          "type": "bytes32"
        }
      ],
      "name": "currencyExists",
      "outputs": [
        {
          "internalType": "bool",
          "name": "",
          "type": "bool"
        }
      ],
      "stateMutability": "view",
      "type": "function"
    },
    {
      "inputs": [],
      "name": "getCurrencies",
      "outputs": [
        {
          "internalType": "bytes32[]",
          "name": "",
          "type": "bytes32[]"
        }
      ],
      "stateMutability": "view",
      "type": "function"
    },
    {
      "inputs": [
        {
          "internalType": "bytes32",
          "name": "_ccy",
          "type": "bytes32"
        }
      ],
      "name": "getEthDecimals",
      "outputs": [
        {
          "internalType": "uint8",
          "name": "",
          "type": "uint8"
        }
      ],
      "stateMutability": "view",
      "type": "function"
    },
    {
      "inputs": [
        {
          "internalType": "bytes32",
          "name": "_ccy",
          "type": "bytes32"
        }
      ],
      "name": "getHaircut",
      "outputs": [
        {
          "internalType": "uint256",
          "name": "",
          "type": "uint256"
        }
      ],
      "stateMutability": "view",
      "type": "function"
    },
    {
      "inputs": [
        {
          "internalType": "bytes32",
          "name": "_ccy",
          "type": "bytes32"
        },
        {
          "internalType": "uint80",
          "name": "_roundId",
          "type": "uint80"
        }
      ],
      "name": "getHistoricalETHPrice",
      "outputs": [
        {
          "internalType": "int256",
          "name": "",
          "type": "int256"
        }
      ],
      "stateMutability": "view",
      "type": "function"
    },
    {
      "inputs": [
        {
          "internalType": "bytes32",
          "name": "_ccy",
          "type": "bytes32"
        },
        {
          "internalType": "uint80",
          "name": "_roundId",
          "type": "uint80"
        }
      ],
      "name": "getHistoricalUSDPrice",
      "outputs": [
        {
          "internalType": "int256",
          "name": "",
          "type": "int256"
        }
      ],
      "stateMutability": "view",
      "type": "function"
    },
    {
      "inputs": [
        {
          "internalType": "bytes32",
          "name": "_ccy",
          "type": "bytes32"
        }
      ],
      "name": "getLastETHPrice",
      "outputs": [
        {
          "internalType": "int256",
          "name": "price",
          "type": "int256"
        }
      ],
      "stateMutability": "view",
      "type": "function"
    },
    {
      "inputs": [
        {
          "internalType": "bytes32",
          "name": "_ccy",
          "type": "bytes32"
        }
      ],
      "name": "getLastUSDPrice",
      "outputs": [
        {
          "internalType": "int256",
          "name": "price",
          "type": "int256"
        }
      ],
      "stateMutability": "view",
      "type": "function"
    },
    {
      "inputs": [
        {
          "internalType": "bytes32",
          "name": "_ccy",
          "type": "bytes32"
        }
      ],
      "name": "getUsdDecimals",
      "outputs": [
        {
          "internalType": "uint8",
          "name": "",
          "type": "uint8"
        }
      ],
      "stateMutability": "view",
      "type": "function"
    },
    {
      "inputs": [
        {
          "internalType": "address",
          "name": "_owner",
          "type": "address"
        }
      ],
      "name": "initialize",
      "outputs": [],
      "stateMutability": "nonpayable",
      "type": "function"
    },
    {
      "inputs": [
        {
          "internalType": "bytes32",
          "name": "_ccy",
          "type": "bytes32"
        },
        {
          "internalType": "address",
          "name": "_priceFeedAddr",
          "type": "address"
        },
        {
          "internalType": "bool",
          "name": "_isEthPriceFeed",
          "type": "bool"
        }
      ],
      "name": "linkPriceFeed",
      "outputs": [
        {
          "internalType": "bool",
          "name": "",
          "type": "bool"
        }
      ],
      "stateMutability": "nonpayable",
      "type": "function"
    },
    {
      "inputs": [],
      "name": "owner",
      "outputs": [
        {
          "internalType": "address",
          "name": "",
          "type": "address"
        }
      ],
      "stateMutability": "view",
      "type": "function"
    },
    {
      "inputs": [
        {
          "internalType": "bytes32",
          "name": "_ccy",
          "type": "bytes32"
        }
      ],
      "name": "removeCurrency",
      "outputs": [],
      "stateMutability": "nonpayable",
      "type": "function"
    },
    {
      "inputs": [
        {
          "internalType": "bytes32",
          "name": "_ccy",
          "type": "bytes32"
        },
        {
          "internalType": "bool",
          "name": "_isEthPriceFeed",
          "type": "bool"
        }
      ],
      "name": "removePriceFeed",
      "outputs": [],
      "stateMutability": "nonpayable",
      "type": "function"
    },
    {
      "inputs": [],
      "name": "renounceOwnership",
      "outputs": [],
      "stateMutability": "nonpayable",
      "type": "function"
    },
    {
      "inputs": [
        {
          "internalType": "address",
          "name": "newOwner",
          "type": "address"
        }
      ],
      "name": "transferOwnership",
      "outputs": [],
      "stateMutability": "nonpayable",
      "type": "function"
    },
    {
      "inputs": [
        {
          "internalType": "bytes32",
          "name": "_ccy",
          "type": "bytes32"
        },
        {
          "internalType": "uint256",
          "name": "_haircut",
          "type": "uint256"
        }
      ],
      "name": "updateHaircut",
      "outputs": [],
      "stateMutability": "nonpayable",
      "type": "function"
    }
  ],
  "transactionHash": "0xbb45ac9b9efd8d98c9502b6a4acd31bd20b5b881909fe97d973f5a4b44945ba1",
  "args": [],
  "numDeployments": 2,
  "solcInputHash": "8f321fe09ea7db648a2c74856701e661",
  "bytecode": "0x608060405234801561001057600080fd5b50611d40806100206000396000f3fe608060405234801561001057600080fd5b50600436106101425760003560e01c806371bee4a1116100b8578063c4d66de81161007c578063c4d66de8146102b2578063c5babb1b146102c5578063cc8dd9f1146102d8578063efd4ad5a146102eb578063f2fde38b146102fe578063facae93f1461031157600080fd5b806371bee4a1146102465780637b7904e3146102595780638da5cb5b1461026c578063939fe6221461028c5780639abdb38a1461029f57600080fd5b806344a6ecdd1161010a57806344a6ecdd146101db57806350326d22146101ee57806360cd44781461020157806361c661de146102145780636d01544d14610229578063715018a61461023c57600080fd5b8063042613711461014757806306d062ad146101715780631743ffce146101925780631eae0893146101a55780633a0a22f0146101c8575b600080fd5b61015a610155366004611741565b610324565b60405160ff90911681526020015b60405180910390f35b61018461017f36600461175a565b610345565b604051908152602001610168565b6101846101a0366004611741565b6103ef565b6101b86101b3366004611741565b610417565b6040519015158152602001610168565b6101846101d636600461175a565b61042b565b6101846101e936600461175a565b61049c565b6101846101fc366004611741565b610506565b61018461020f366004611794565b6105ac565b61021c6106d2565b60405161016891906117c4565b610184610237366004611794565b6106e9565b610244610745565b005b61024461025436600461175a565b610780565b61024461026736600461181d565b6108f4565b610274610b54565b6040516001600160a01b039091168152602001610168565b61021c61029a36600461185f565b610b87565b6101846102ad366004611741565b610caf565b6102446102c0366004611940565b610ccd565b6102446102d336600461195b565b610e4c565b6101b86102e6366004611990565b610f3e565b6102446102f9366004611741565b61131b565b61024461030c366004611940565b61138b565b61015a61031f366004611741565b61142b565b600061032e61144c565b600092835260050160205250604090205460ff1690565b60006208aa8960eb1b83141561035c5750806103e9565b61036583611470565b61036d61144c565b6000858152600691909101602052604090205461038e9060ff16600a611ac6565b6103989084611ad5565b6103a29190611b0a565b9050806103e95760405162461bcd60e51b815260206004820152601060248201526f151bdbc81cdb585b1b08185b5bdd5b9d60821b60448201526064015b60405180910390fd5b92915050565b60006208aa8960eb1b82141561040e5750670de0b6b3a7640000919050565b6103e982611470565b60006103e98261042561144c565b906114cf565b60006208aa8960eb1b8314156104425750806103e9565b8161044f575060006103e9565b61045761144c565b600084815260069190910160205260409020546104789060ff16600a611ac6565b61048184611470565b61048b9084611b1e565b6104959190611ba3565b9392505050565b60006208aa8960eb1b8314156104b35750806103e9565b816104c0575060006103e9565b6104c861144c565b600084815260069190910160205260409020546104e99060ff16600a611ac6565b6104f284611470565b6104fc9084611ad5565b6104959190611b0a565b60008061051161144c565b6000848152600391909101602052604090819020548151633fabe5a360e21b815291516001600160a01b039091169250829163feaf968c9160048083019260a0929190829003018186803b15801561056857600080fd5b505afa15801561057c573d6000803e3d6000fd5b505050506040513d601f19601f820116820180604052508101906105a09190611bd1565b50919695505050505050565b60006208aa8960eb1b8314156105cb5750670de0b6b3a76400006103e9565b60006105d561144c565b600085815260049182016020526040808220549051639a6fc8f560e01b815269ffffffffffffffffffff8716938101939093526001600160a01b031692509081908390639a6fc8f5906024015b60a06040518083038186803b15801561063a57600080fd5b505afa15801561064e573d6000803e3d6000fd5b505050506040513d601f19601f820116820180604052508101906106729190611bd1565b50935050925050600081116106c95760405162461bcd60e51b815260206004820152601760248201527f526f756e64206e6f7420636f6d706c657465642079657400000000000000000060448201526064016103e0565b50949350505050565b60606106e46106df61144c565b6114e7565b905090565b6000806106f461144c565b60008581526003919091016020526040808220549051639a6fc8f560e01b815269ffffffffffffffffffff861660048201526001600160a01b03909116925081908390639a6fc8f590602401610622565b3361074e610b54565b6001600160a01b0316146107745760405162461bcd60e51b81526004016103e090611c29565b61077e60006114f2565b565b33610789610b54565b6001600160a01b0316146107af5760405162461bcd60e51b81526004016103e090611c29565b816107b981610417565b6107f95760405162461bcd60e51b8152602060048201526011602482015270155b9cdd5c1c1bdc9d195908185cdcd95d607a1b60448201526064016103e0565b600082116108495760405162461bcd60e51b815260206004820152601760248201527f496e636f7272656374206861697263757420726174696f00000000000000000060448201526064016103e0565b6127108211156108945760405162461bcd60e51b81526020600482015260166024820152754861697263757420726174696f206f766572666c6f7760501b60448201526064016103e0565b8161089d61144c565b600201600085815260200190815260200160002081905550827febb28c52f6a0458711b7e13473ac1bd682bb010268617c96e64386c5f31c035a836040516108e791815260200190565b60405180910390a2505050565b336108fd610b54565b6001600160a01b0316146109235760405162461bcd60e51b81526004016103e090611c29565b8161092d81610417565b61096d5760405162461bcd60e51b8152602060048201526011602482015270155b9cdd5c1c1bdc9d195908185cdcd95d607a1b60448201526064016103e0565b60018215151415610a6d57600061098261144c565b600085815260049190910160205260409020546001600160a01b03169050806109bd5760405162461bcd60e51b81526004016103e090611c5e565b6109c561144c565b60008581526004919091016020526040902080546001600160a01b03191690556109ed61144c565b6000858152600691909101602052604090819020805460ff19169055516001600160a01b038216907fc92569320eea471ac764202d7760fb042624c31c9a24401cdb5eadb232137f1a90610a5f908781526040602082018190526003908201526208aa8960eb1b606082015260800190565b60405180910390a250505050565b6000610a7761144c565b600085815260039190910160205260409020546001600160a01b0316905080610ab25760405162461bcd60e51b81526004016103e090611c5e565b610aba61144c565b60008581526003919091016020526040902080546001600160a01b0319169055610ae261144c565b6000858152600591909101602052604090819020805460ff19169055516001600160a01b038216907fc92569320eea471ac764202d7760fb042624c31c9a24401cdb5eadb232137f1a90610a5f90878152604060208201819052600390820152621554d160ea1b606082015260800190565b60007f9acda75aebd150dd434541a4747a6dc606f4f1a59662477e67daf1fc0bf9e0aa5b546001600160a01b0316919050565b60606208aa8960eb1b831415610b9e5750806103e9565b815167ffffffffffffffff811115610bb857610bb8611849565b604051908082528060200260200182016040528015610be1578160200160208202803683370190505b50905060005b8251811015610ca857828181518110610c0257610c02611c89565b602002602001015160001415610c1757610c96565b610c1f61144c565b60008581526006919091016020526040902054610c409060ff16600a611ac6565b610c4985611470565b848381518110610c5b57610c5b611c89565b6020026020010151610c6d9190611ad5565b610c779190611b0a565b828281518110610c8957610c89611c89565b6020026020010181815250505b80610ca081611c9f565b915050610be7565b5092915050565b6000610cb961144c565b600092835260020160205250604090205490565b600054610100900460ff1615808015610ced5750600054600160ff909116105b80610d075750303b158015610d07575060005460ff166001145b610d6a5760405162461bcd60e51b815260206004820152602e60248201527f496e697469616c697a61626c653a20636f6e747261637420697320616c72656160448201526d191e481a5b9a5d1a585b1a5e995960921b60648201526084016103e0565b6000805460ff191660011790558015610d8d576000805461ff0019166101001790555b6000610d97611563565b6001600160a01b03161415610df95760405162461bcd60e51b815260206004820152602260248201527f4d7573742062652063616c6c65642066726f6d2070726f787920636f6e74726160448201526118dd60f21b60648201526084016103e0565b610e02826114f2565b8015610e48576000805461ff0019169055604051600181527f7f26b83ff96e1f2b6a682f133852f6798a09c465da95921460cefb38474024989060200160405180910390a15b5050565b33610e55610b54565b6001600160a01b031614610e7b5760405162461bcd60e51b81526004016103e090611c29565b610e8d83610e8761144c565b9061158b565b5080610e9761144c565b600085815260029190910160205260409020556208aa8960eb1b8314610ee457610ec383836001610f3e565b610edf5760405162461bcd60e51b81526004016103e090611c5e565b610f0c565b610ef083836000610f3e565b610f0c5760405162461bcd60e51b81526004016103e090611c5e565b827f42ad8c7b6ffcb796d3a5bb26d96813aa7fd852ddb256d9e60529c7c755a0caa1826040516108e791815260200190565b600033610f49610b54565b6001600160a01b031614610f6f5760405162461bcd60e51b81526004016103e090611c29565b6001600160a01b038316610fc55760405162461bcd60e51b815260206004820152601960248201527f436f756c646e2774206c696e6b2030783020616464726573730000000000000060448201526064016103e0565b60008390506000816001600160a01b031663feaf968c6040518163ffffffff1660e01b815260040160a06040518083038186803b15801561100557600080fd5b505afa158015611019573d6000803e3d6000fd5b505050506040513d601f19601f8201168201806040525081019061103d9190611bd1565b50505091505060008112156110645760405162461bcd60e51b81526004016103e090611c5e565b6000826001600160a01b031663313ce5676040518163ffffffff1660e01b815260040160206040518083038186803b15801561109f57600080fd5b505afa1580156110b3573d6000803e3d6000fd5b505050506040513d601f19601f820116820180604052508101906110d79190611cba565b905060128160ff1611156111205760405162461bcd60e51b815260206004820152601060248201526f496e76616c696420646563696d616c7360801b60448201526064016103e0565b8415611241576208aa8960eb1b8714156111705760405162461bcd60e51b8152602060048201526011602482015270086c2dc4ee840d8d2dcd640e8de408aa89607b1b60448201526064016103e0565b8261117961144c565b60008981526004919091016020526040902080546001600160a01b0319166001600160a01b0392909216919091179055806111b261144c565b600601600089815260200190815260200160002060006101000a81548160ff021916908360ff160217905550856001600160a01b03167fe8370f7b8dee85620ef7ebb127895d66a596d16ea8b45c2f9b5d5c629dcdc248886040516112349181526040602082018190526003908201526208aa8960eb1b606082015260800190565b60405180910390a261130e565b8261124a61144c565b60008981526003919091016020526040902080546001600160a01b0319166001600160a01b03929092169190911790558061128361144c565b600501600089815260200190815260200160002060006101000a81548160ff021916908360ff160217905550856001600160a01b03167fe8370f7b8dee85620ef7ebb127895d66a596d16ea8b45c2f9b5d5c629dcdc24888604051611305918152604060208201819052600390820152621554d160ea1b606082015260800190565b60405180910390a25b5060019695505050505050565b33611324610b54565b6001600160a01b03161461134a5760405162461bcd60e51b81526004016103e090611c29565b61135c8161135661144c565b90611597565b5060405181907f8bbe8d4c169e3cb2ee7d10f1524fbe26bcc636dd3cb7d0d7fbcd6a890741ed3d90600090a250565b33611394610b54565b6001600160a01b0316146113ba5760405162461bcd60e51b81526004016103e090611c29565b6001600160a01b03811661141f5760405162461bcd60e51b815260206004820152602660248201527f4f776e61626c653a206e6577206f776e657220697320746865207a65726f206160448201526564647265737360d01b60648201526084016103e0565b611428816114f2565b50565b600061143561144c565b600092835260060160205250604090205460ff1690565b7fbf1f6da7b18d0b1bd723139ae003962c8fa874ed2f9ff2b1948edfe1e7915f5d90565b60008061147b61144c565b60008481526004918201602052604090819020548151633fabe5a360e21b815291516001600160a01b039091169350839263feaf968c928082019260a0929091829003018186803b15801561056857600080fd5b60008181526001830160205260408120541515610495565b60606103e9826115a3565b7f9acda75aebd150dd434541a4747a6dc606f4f1a59662477e67daf1fc0bf9e0aa80546001600160a01b038381166001600160a01b0319831681179093556040519116919082907f8be0079c531659141344cd1fd0a4f28419497f9722a3daafe3b4186f6b6457e090600090a35050565b60007f360894a13ba1a3210667c828492db98dca3e2076cc3735a920a3ca505d382bbc610b78565b600061049583836115ff565b6000610495838361164e565b6060816000018054806020026020016040519081016040528092919081815260200182805480156115f357602002820191906000526020600020905b8154815260200190600101908083116115df575b50505050509050919050565b6000818152600183016020526040812054611646575081546001818101845560008481526020808220909301849055845484825282860190935260409020919091556103e9565b5060006103e9565b60008181526001830160205260408120548015611737576000611672600183611cdd565b855490915060009061168690600190611cdd565b90508181146116eb5760008660000182815481106116a6576116a6611c89565b90600052602060002001549050808760000184815481106116c9576116c9611c89565b6000918252602080832090910192909255918252600188019052604090208390555b85548690806116fc576116fc611cf4565b6001900381819060005260206000200160009055905585600101600086815260200190815260200160002060009055600193505050506103e9565b60009150506103e9565b60006020828403121561175357600080fd5b5035919050565b6000806040838503121561176d57600080fd5b50508035926020909101359150565b69ffffffffffffffffffff8116811461142857600080fd5b600080604083850312156117a757600080fd5b8235915060208301356117b98161177c565b809150509250929050565b6020808252825182820181905260009190848201906040850190845b818110156117fc578351835292840192918401916001016117e0565b50909695505050505050565b8035801515811461181857600080fd5b919050565b6000806040838503121561183057600080fd5b8235915061184060208401611808565b90509250929050565b634e487b7160e01b600052604160045260246000fd5b6000806040838503121561187257600080fd5b8235915060208084013567ffffffffffffffff8082111561189257600080fd5b818601915086601f8301126118a657600080fd5b8135818111156118b8576118b8611849565b8060051b604051601f19603f830116810181811085821117156118dd576118dd611849565b6040529182528482019250838101850191898311156118fb57600080fd5b938501935b8285101561191957843584529385019392850192611900565b8096505050505050509250929050565b80356001600160a01b038116811461181857600080fd5b60006020828403121561195257600080fd5b61049582611929565b60008060006060848603121561197057600080fd5b8335925061198060208501611929565b9150604084013590509250925092565b6000806000606084860312156119a557600080fd5b833592506119b560208501611929565b91506119c360408501611808565b90509250925092565b634e487b7160e01b600052601160045260246000fd5b600181815b80851115611a1d578160001904821115611a0357611a036119cc565b80851615611a1057918102915b93841c93908002906119e7565b509250929050565b600082611a34575060016103e9565b81611a41575060006103e9565b8160018114611a575760028114611a6157611a7d565b60019150506103e9565b60ff841115611a7257611a726119cc565b50506001821b6103e9565b5060208310610133831016604e8410600b8410161715611aa0575081810a6103e9565b611aaa83836119e2565b8060001904821115611abe57611abe6119cc565b029392505050565b600061049560ff841683611a25565b6000816000190483118215151615611aef57611aef6119cc565b500290565b634e487b7160e01b600052601260045260246000fd5b600082611b1957611b19611af4565b500490565b60006001600160ff1b0381841382841380821686840486111615611b4457611b446119cc565b600160ff1b6000871282811687830589121615611b6357611b636119cc565b60008712925087820587128484161615611b7f57611b7f6119cc565b87850587128184161615611b9557611b956119cc565b505050929093029392505050565b600082611bb257611bb2611af4565b600160ff1b821460001984141615611bcc57611bcc6119cc565b500590565b600080600080600060a08688031215611be957600080fd5b8551611bf48161177c565b809550506020860151935060408601519250606086015191506080860151611c1b8161177c565b809150509295509295909350565b6020808252818101527f4f776e61626c653a2063616c6c6572206973206e6f7420746865206f776e6572604082015260600190565b602080825260119082015270125b9d985b1a5908141c9a58d951995959607a1b604082015260600190565b634e487b7160e01b600052603260045260246000fd5b6000600019821415611cb357611cb36119cc565b5060010190565b600060208284031215611ccc57600080fd5b815160ff8116811461049557600080fd5b600082821015611cef57611cef6119cc565b500390565b634e487b7160e01b600052603160045260246000fdfea2646970667358221220fd3d8aaf2a5c4fe6483e753059f7ac2d2dd37c2537ccbb2ffc932e9bae3bf89064736f6c63430008090033",
  "implementation": "0x4E2aa65F3Fd3962Ebbe208feA5e385046aB671FB",
  "devdoc": {
    "kind": "dev",
    "methods": {
      "addCurrency(bytes32,address,uint256)": {
        "params": {
          "_ccy": "Currency name in bytes32",
          "_ethPriceFeed": "Address for ETH price feed",
          "_haircut": "Remaining ratio after haircut"
        }
      },
      "convertFromETH(bytes32,uint256)": {
        "params": {
          "_amountETH": "Amount in ETH to be converted",
          "_ccy": "Currency that has to be converted from ETH"
        },
        "returns": {
          "amount": "The converted amount"
        }
      },
      "convertToETH(bytes32,int256)": {
        "params": {
          "_amount": "Amount to be converted",
          "_ccy": "Currency that has to be converted to ETH"
        },
        "returns": {
          "amount": "The converted amount"
        }
      },
      "convertToETH(bytes32,uint256)": {
        "params": {
          "_amount": "Amount to be converted",
          "_ccy": "Currency that has to be converted to ETH"
        },
        "returns": {
          "amount": "The converted amount"
        }
      },
      "convertToETH(bytes32,uint256[])": {
        "params": {
          "_amounts": "Amounts to be converted",
          "_ccy": "Currency that has to be converted to ETH"
        },
        "returns": {
          "amounts": "The converted amounts"
        }
      },
      "currencyExists(bytes32)": {
        "params": {
          "_ccy": "Currency name in bytes32"
        },
        "returns": {
          "_0": "The boolean if the selected currency is supported or not"
        }
      },
      "getCurrencies()": {
        "returns": {
          "_0": "The array of the currency"
        }
      },
      "getEthDecimals(bytes32)": {
        "params": {
          "_ccy": "Currency name in bytes32"
        }
      },
      "getHaircut(bytes32)": {
        "params": {
          "_ccy": "Currency name in bytes32"
        }
      },
      "getHistoricalETHPrice(bytes32,uint80)": {
        "params": {
          "_ccy": "Currency name in bytes32",
          "_roundId": "RoundId"
        },
        "returns": {
          "_0": "The historical price in ETH"
        }
      },
      "getHistoricalUSDPrice(bytes32,uint80)": {
        "params": {
          "_ccy": "Currency name in bytes32",
          "_roundId": "RoundId"
        },
        "returns": {
          "_0": "The historical price in USD"
        }
      },
      "getLastETHPrice(bytes32)": {
        "params": {
          "_ccy": "Currency name in bytes32"
        },
        "returns": {
          "price": "The last price in ETH"
        }
      },
      "getLastUSDPrice(bytes32)": {
        "params": {
          "_ccy": "Currency name in bytes32"
        },
        "returns": {
          "price": "The last price in USD"
        }
      },
      "getUsdDecimals(bytes32)": {
        "params": {
          "_ccy": "Currency name in bytes32"
        }
      },
      "initialize(address)": {
        "details": "Function is invoked by the proxy contract when the contract is added to the ProxyController.",
        "params": {
          "_owner": "The address of the contract owner"
        }
      },
      "linkPriceFeed(bytes32,address,bool)": {
        "details": "This method can use only Chainlink.",
        "params": {
          "_ccy": "Currency name in bytes32",
          "_isEthPriceFeed": "Boolean if the price feed is in ETH or not",
          "_priceFeedAddr": "The contract address of Chainlink price feed"
        },
        "returns": {
          "_0": "True if the execution of the operation succeeds"
        }
      },
      "owner()": {
        "details": "Returns the address of the current owner."
      },
      "removeCurrency(bytes32)": {
        "params": {
          "_ccy": "Currency name in bytes32"
        }
      },
      "removePriceFeed(bytes32,bool)": {
        "params": {
          "_ccy": "Currency name in bytes32",
          "_isEthPriceFeed": "Boolean if the price feed is in ETH or not"
        }
      },
      "renounceOwnership()": {
        "details": "Leaves the contract without owner. It will not be possible to call `onlyOwner` functions anymore. Can only be called by the current owner. NOTE: Renouncing ownership will leave the contract without an owner, thereby removing any functionality that is only available to the owner."
      },
      "transferOwnership(address)": {
        "details": "Transfers ownership of the contract to a new account (`newOwner`). Can only be called by the current owner."
      },
      "updateHaircut(bytes32,uint256)": {
        "params": {
          "_ccy": "Currency name in bytes32",
          "_haircut": "Remaining ratio after haircut"
        }
      }
    },
    "version": 1
  },
  "userdoc": {
    "kind": "user",
    "methods": {
      "addCurrency(bytes32,address,uint256)": {
        "notice": "Adds new currency into the protocol and links with existing ETH price feed of Chainlink."
      },
      "convertFromETH(bytes32,uint256)": {
        "notice": "Gets the converted amount to the selected currency from ETH."
      },
      "convertToETH(bytes32,int256)": {
        "notice": "Gets the converted amount of currency in ETH."
      },
      "convertToETH(bytes32,uint256)": {
        "notice": "Gets the converted amount of currency in ETH."
      },
      "convertToETH(bytes32,uint256[])": {
        "notice": "Gets the converted amount of currency in ETH."
      },
      "currencyExists(bytes32)": {
        "notice": "Gets if the selected currency is supported."
      },
      "getCurrencies()": {
        "notice": "Gets all currencies."
      },
      "getEthDecimals(bytes32)": {
        "notice": "Get ETH decimal for the selected currency."
      },
      "getHaircut(bytes32)": {
        "notice": "Gets haircut ratio for the selected currency. Haircut is used in bilateral netting cross-calculation."
      },
      "getHistoricalETHPrice(bytes32,uint80)": {
        "notice": "Gets the historical price in ETH for the selected currency."
      },
      "getHistoricalUSDPrice(bytes32,uint80)": {
        "notice": "Gets the historical price in USD for the selected currency."
      },
      "getLastETHPrice(bytes32)": {
        "notice": "Gets the last price in ETH for the selected currency."
      },
      "getLastUSDPrice(bytes32)": {
        "notice": "Gets the last price in USD for the selected currency."
      },
      "getUsdDecimals(bytes32)": {
        "notice": "Gets USD decimal for the selected currency."
      },
      "initialize(address)": {
        "notice": "Initializes the contract."
      },
      "linkPriceFeed(bytes32,address,bool)": {
        "notice": "Links the contract to existing Chainlink price feed."
      },
      "removeCurrency(bytes32)": {
        "notice": "Updates the flag indicating if the currency is supported in the protocol."
      },
      "removePriceFeed(bytes32,bool)": {
        "notice": "Removes existing Chainlink price feed."
      },
      "updateHaircut(bytes32,uint256)": {
        "notice": "Updates the haircut ratio for supported currency"
      }
    },
    "notice": "Implements managing of the supported currencies in the protocol. This contract links new currencies to ETH Chainlink price feeds, without an existing price feed contract owner is not able to add a new currency into the protocol",
    "version": 1
  },
  "storageLayout": {
    "storage": [
      {
        "astId": 1183,
        "contract": "contracts/CurrencyController.sol:CurrencyController",
        "label": "_initialized",
        "offset": 0,
        "slot": "0",
        "type": "t_uint8"
      },
      {
        "astId": 1186,
        "contract": "contracts/CurrencyController.sol:CurrencyController",
        "label": "_initializing",
        "offset": 1,
        "slot": "0",
        "type": "t_bool"
      }
    ],
    "types": {
      "t_bool": {
        "encoding": "inplace",
        "label": "bool",
        "numberOfBytes": "1"
      },
      "t_uint8": {
        "encoding": "inplace",
        "label": "uint8",
        "numberOfBytes": "1"
      }
    }
  }
}