{
  "address": "0x4ce818a413CBd041aFf46EBfF140AD4539c22Fd2",
  "abi": [
    {
      "inputs": [
        {
          "internalType": "address",
          "name": "_user",
          "type": "address"
        },
        {
          "internalType": "bytes32",
          "name": "_unsettledOrderCcy",
          "type": "bytes32"
        },
        {
          "internalType": "uint256",
          "name": "_unsettledOrderAmount",
          "type": "uint256"
        },
        {
          "internalType": "bool",
          "name": "_isUnsettledBorrowOrder",
          "type": "bool"
        }
      ],
      "name": "calculateCollateral",
      "outputs": [
        {
          "internalType": "uint256",
          "name": "totalCollateral",
          "type": "uint256"
        },
        {
          "internalType": "uint256",
          "name": "totalUsedCollateral",
          "type": "uint256"
        },
        {
          "internalType": "uint256",
          "name": "totalDeposit",
          "type": "uint256"
        }
      ],
      "stateMutability": "view",
      "type": "function"
    },
    {
      "inputs": [
        {
          "internalType": "uint256",
          "name": "_amount",
          "type": "uint256"
        }
      ],
      "name": "calculateLiquidationFees",
      "outputs": [
        {
          "internalType": "uint256",
          "name": "protocolFee",
          "type": "uint256"
        },
        {
          "internalType": "uint256",
          "name": "liquidatorFee",
          "type": "uint256"
        }
      ],
      "stateMutability": "view",
      "type": "function"
    },
    {
      "inputs": [
        {
          "internalType": "address",
          "name": "_user",
          "type": "address"
        }
      ],
      "name": "getCollateralAmount",
      "outputs": [
        {
          "internalType": "uint256",
          "name": "totalCollateral",
          "type": "uint256"
        },
        {
          "internalType": "uint256",
          "name": "totalUsedCollateral",
          "type": "uint256"
        },
        {
          "internalType": "uint256",
          "name": "totalDeposit",
          "type": "uint256"
        }
      ],
      "stateMutability": "view",
      "type": "function"
    },
    {
      "inputs": [
        {
          "internalType": "address",
          "name": "_user",
          "type": "address"
        },
        {
          "internalType": "bytes32",
          "name": "_ccy",
          "type": "bytes32"
        }
      ],
      "name": "getCollateralAmount",
      "outputs": [
        {
          "internalType": "uint256",
          "name": "totalCollateral",
          "type": "uint256"
        },
        {
          "internalType": "uint256",
          "name": "totalUsedCollateral",
          "type": "uint256"
        },
        {
          "internalType": "uint256",
          "name": "totalDeposit",
          "type": "uint256"
        }
      ],
      "stateMutability": "view",
      "type": "function"
    },
    {
      "inputs": [
        {
          "internalType": "address",
          "name": "_user",
          "type": "address"
        },
        {
          "internalType": "bytes32",
          "name": "_ccy",
          "type": "bytes32"
        }
      ],
      "name": "getDepositAmount",
      "outputs": [
        {
          "internalType": "uint256",
          "name": "",
          "type": "uint256"
        }
      ],
      "stateMutability": "view",
      "type": "function"
    },
    {
      "inputs": [
        {
          "internalType": "address",
          "name": "_user",
          "type": "address"
        },
        {
          "internalType": "bytes32",
          "name": "_liquidationCcy",
          "type": "bytes32"
        },
        {
          "internalType": "uint256",
          "name": "_liquidationAmountMaximum",
          "type": "uint256"
        }
      ],
      "name": "getLiquidationAmount",
      "outputs": [
        {
          "internalType": "uint256",
          "name": "liquidationAmount",
          "type": "uint256"
        },
        {
          "internalType": "uint256",
          "name": "protocolFee",
          "type": "uint256"
        },
        {
          "internalType": "uint256",
          "name": "liquidatorFee",
          "type": "uint256"
        }
      ],
      "stateMutability": "view",
      "type": "function"
    },
    {
      "inputs": [
        {
          "internalType": "address",
          "name": "_user",
          "type": "address"
        }
      ],
      "name": "getUsedCurrencies",
      "outputs": [
        {
          "internalType": "bytes32[]",
          "name": "",
          "type": "bytes32[]"
        }
      ],
      "stateMutability": "view",
      "type": "function"
    },
    {
      "inputs": [
        {
          "internalType": "bytes32",
          "name": "_ccy",
          "type": "bytes32"
        },
        {
          "internalType": "address",
          "name": "_user",
          "type": "address"
        }
      ],
      "name": "getWithdrawableCollateral",
      "outputs": [
        {
          "internalType": "uint256",
          "name": "withdrawableAmount",
          "type": "uint256"
        }
      ],
      "stateMutability": "view",
      "type": "function"
    },
    {
      "inputs": [
        {
          "internalType": "address",
          "name": "_user",
          "type": "address"
        }
      ],
      "name": "getWithdrawableCollateral",
      "outputs": [
        {
          "internalType": "uint256",
          "name": "",
          "type": "uint256"
        }
      ],
      "stateMutability": "view",
      "type": "function"
    },
    {
      "inputs": [
        {
          "internalType": "address",
          "name": "_user",
          "type": "address"
        },
        {
          "internalType": "bytes32",
          "name": "_unsettledOrderCcy",
          "type": "bytes32"
        },
        {
          "internalType": "uint256",
          "name": "_unsettledOrderAmount",
          "type": "uint256"
        },
        {
          "internalType": "bool",
          "name": "_isUnsettledBorrowOrder",
          "type": "bool"
        }
      ],
      "name": "isCovered",
      "outputs": [
        {
          "internalType": "bool",
          "name": "",
          "type": "bool"
        }
      ],
      "stateMutability": "view",
      "type": "function"
    }
  ],
  "transactionHash": "0xe6eb7fcb9f1bce1e22288d890b90688ca59d7b5daaee3b0c1915acae91e0979c",
  "args": [],
  "numDeployments": 1,
  "solcInputHash": "ee0701f0e1353791145c76210180d73b",
  "bytecode": "0x61238161003a600b82828239805160001a60731461002d57634e487b7160e01b600052600060045260246000fd5b30600052607381538281f3fe73000000000000000000000000000000000000000030146080604052600436106101095760003560e01c80636c2dfe89116100a1578063eb2243f811610070578063eb2243f81461026b578063fb7bd3b41461028b578063fc700810146102ab578063fd2117fb146102cb57600080fd5b80636c2dfe89146102125780637d044b43146102255780637d44828e14610245578063948060dd1461025857600080fd5b80634ba0c9b5116100dd5780634ba0c9b51461018f578063500d2f6d146101b15780635257ed67146101d1578063654c6295146101ff57600080fd5b8062fcf2621461010e5780630253cd7e1461013b5780630eadd2441461015c5780632917173a1461016f575b600080fd5b61012161011c366004611d21565b6102ee565b604080519283526020830191909152015b60405180910390f35b61014e610149366004611d56565b610342565b604051908152602001610132565b61014e61016a366004611d80565b610439565b81801561017b57600080fd5b5061014e61018a366004611dac565b61054c565b81801561019b57600080fd5b506101af6101aa366004611dac565b610644565b005b8180156101bd57600080fd5b5061014e6101cc366004611ddf565b610699565b6101e46101df366004611dac565b61070c565b60408051938452602084019290925290820152606001610132565b6101e461020d366004611e23565b6109ec565b6101e4610220366004611e4f565b610a0c565b81801561023157600080fd5b5061014e610240366004611d56565b610da5565b6101e4610253366004611d56565b610e37565b61014e610266366004611e23565b610f89565b81801561027757600080fd5b506101af610286366004611dac565b611048565b81801561029757600080fd5b506101af6102a6366004611dac565b6110b8565b6102be6102b9366004611e23565b611147565b6040516101329190611e97565b6102de6102d9366004611e4f565b611216565b6040519015158152602001610132565b60008061031d61271061030d60008051602061230c8339815191525490565b6103179086611ef1565b9061126a565b915061033b61271061030d6000805160206122ec8339815191525490565b9050915091565b6000806000806103506112db565b604051635c34776560e01b8152600481018790526001600160a01b0388811660248301529190911690635c3477659060440160e06040518083038186803b15801561039a57600080fd5b505afa1580156103ae573d6000803e3d6000fd5b505050506040513d601f19601f820116820180604052508101906103d29190611f10565b965050509450505092508282826103e761130b565b6001600160a01b038a166000908152600591909101602090815260408083208b84529091529020546104199190611f64565b6104239190611f7c565b61042d9190611f7c565b93505050505b92915050565b60008061044461130b565b6001600160a01b03841660009081526005919091016020908152604080832087845290915290205490506104808461047a61130b565b9061132f565b1561053857600061049084610f89565b9050600061049c611347565b604051630718de8160e21b815260048101889052602481018490526001600160a01b039190911690631c637a049060440160206040518083038186803b1580156104e557600080fd5b505afa1580156104f9573d6000803e3d6000fd5b505050506040513d601f19601f8201168201806040525081019061051d9190611f93565b90508083101561052d578261052f565b805b93505050610545565b6105428385610342565b91505b5092915050565b60006105588385610439565b90508082116105675781610569565b805b90508061057461130b565b6000858152600491909101602052604090205410156105d25760405162461bcd60e51b8152602060048201526015602482015274141c9bdd1bd8dbdb081a5cc81a5b9cdbdb1d995b9d605a1b60448201526064015b60405180910390fd5b806105db61130b565b600401600085815260200190815260200160002060008282546105fe9190611f7c565b9091555061060f90508484836110b8565b61063d61061a61130b565b600085815260029190910160205260409020546001600160a01b03168583611367565b9392505050565b8061064d61130b565b6001600160a01b03851660009081526005919091016020908152604080832086845290915281208054909190610684908490611f64565b909155506106949050838361139f565b505050565b6000806106a461130b565b6001600160a01b0386166000908152600591909101602090815260408083208984529091528120549150838210156106dc57816106de565b835b90506106ea8185611f7c565b92506106f78688836110b8565b610702858883610644565b5050949350505050565b600080600080600061071d886109ec565b5091509150600061072e8989610e37565b5050905080600014156107535760405162461bcd60e51b81526004016105c990611fac565b600061076b6000805160206122cc8339815191525490565b6107759084611ef1565b61078161271086611ef1565b10156107975761079283600261126a565b61079a565b60005b604080516002808252606082018352929350600092909160208301908036833701905050905081816000815181106107d4576107d4612010565b60200260200101818152505084816001815181106107f4576107f4612010565b602002602001018181525050600061080a611347565b6001600160a01b031663fa4571908c846040518363ffffffff1660e01b8152600401610837929190612026565b60006040518083038186803b15801561084f57600080fd5b505afa158015610863573d6000803e3d6000fd5b505050506040513d6000823e601f3d908101601f1916820160405261088b9190810190612074565b9050806000815181106108a0576108a0612010565b602002602001015198506000816001815181106108bf576108bf612010565b602002602001015190508a8a11156108d5578a99505b6108de8a6102ee565b90995097506000886108f08b8d611f64565b6108fa9190611f64565b9050858111801561090a57508582115b156109db57508461096b61092a60008051602061230c8339815191525490565b6000805160206122ec8339815191525461094690612710611f64565b6109509190611f64565b60008051602061230c833981519152545b6103179084611ef1565b99506109c161098660008051602061230c8339815191525490565b6000805160206122ec833981519152546109a290612710611f64565b6109ac9190611f64565b6000805160206122ec83398151915254610961565b9850886109ce8b83611f7c565b6109d89190611f7c565b9a505b505050505050505093509350939050565b60008060006109ff846000806000610a0c565b9250925092509193909250565b6000806000610a536040518060e001604052806000815260200160008152602001600081526020016000815260200160008152602001600081526020016000151581525090565b6000610a5d61130b565b6001600160a01b038a166000908152600591909101602090815260408083208b845290915281205491508715610bfc578615610b2357610a9b611347565b604051636ed2f1db60e01b8152600481018b9052602481018a90526001600160a01b039190911690636ed2f1db9060440160206040518083038186803b158015610ae457600080fd5b505afa158015610af8573d6000803e3d6000fd5b505050506040513d601f19601f82011682018060405250810190610b1c9190611f93565b9050610bfc565b87821015610b435760405162461bcd60e51b81526004016105c990611fac565b610b4d8883611f7c565b9150610b5b8961047a61130b565b15610bfc57610b68611347565b604051636ed2f1db60e01b8152600481018b9052602481018a90526001600160a01b039190911690636ed2f1db9060440160206040518083038186803b158015610bb157600080fd5b505afa158015610bc5573d6000803e3d6000fd5b505050506040513d601f19601f82011682018060405250810190610be99190611f93565b83518490610bf8908390611f64565b9052505b610c046112db565b604051637ea2c27360e11b81526001600160a01b038c81166004830152602482018c905260448201859052919091169063fd4584e6906064016101006040518083038186803b158015610c5657600080fd5b505afa158015610c6a573d6000803e3d6000fd5b505050506040513d601f19601f82011682018060405250810190610c8e9190612132565b151560c08b0181905260a08b019190915260808a01919091526060890191909152604088019190915260208701919091529185525080610ccb5750865b80610cd4575087155b610cf05760405162461bcd60e51b81526004016105c990611fac565b6000610cfb8b611433565b905060008460a0015182610d0f9190611f64565b9050600085604001518660000151610d279190611f64565b90506000866020015183610d3b9190611f64565b905081811015610d4c576000610d56565b610d568282611f7c565b99508487608001518860600151610d6d9190611f64565b610d779190611f64565b985081831015610d88576000610d92565b610d928284611f7c565b9750505050505050509450945094915050565b6000610daf61130b565b6001600160a01b0384166000908152600591909101602090815260408083208584529091528120549150610de161130b565b6001600160a01b03851660009081526005919091016020908152604080832086845290915290205561054582610e1561130b565b6001600160a01b0386166000908152600391909101602052604090209061156f565b6000806000806000806000806000610e4d6112db565b604051635c34776560e01b8152600481018c90526001600160a01b038d811660248301529190911690635c3477659060440160e06040518083038186803b158015610e9757600080fd5b505afa158015610eab573d6000803e3d6000fd5b505050506040513d601f19601f82011682018060405250810190610ecf9190611f10565b96509650965096509650509550600081610ee761130b565b6001600160a01b038e166000908152600591909101602090815260408083208f8452909152902054610f199190611f64565b90506000610f278689611f64565b90506000610f358884611f64565b905081811015610f46576000610f50565b610f508282611f7c565b9b50610f5c8587611f64565b9a5081831015610f6d576000610f77565b610f778284611f7c565b99505050505050505050509250925092565b600080600080610f98856109ec565b9250925092508160001415610faf57949350505050565b6000805160206122cc83398151915254610fc99083611ef1565b610fd561271085611ef1565b1115611035576000611019612710610ff96000805160206122cc8339815191525490565b6110039086611ef1565b61100f61271088611ef1565b6103179190611f7c565b905081811015611029578061102b565b815b9695505050505050565b506000949350505050565b505050919050565b61107761105361130b565b600084815260029190910160205260409020546001600160a01b031684308461157b565b611082838383610644565b8061108b61130b565b600401600084815260200190815260200160002060008282546110ae9190611f64565b9091555050505050565b806110c161130b565b6001600160a01b03851660009081526005919091016020908152604080832086845290915290205410156111075760405162461bcd60e51b81526004016105c990611fac565b8061111061130b565b6001600160a01b03851660009081526005919091016020908152604080832086845290915281208054909190610684908490611f7c565b6060600061115361130b565b6001600160a01b038416600090815260039190910160205260408120915061117a826115bf565b905060008167ffffffffffffffff81111561119757611197611ffa565b6040519080825280602002602001820160405280156111c0578160200160208202803683370190505b50905060005b8281101561120d5760006111da85836115c9565b9050808383815181106111ef576111ef612010565b602090810291909101015250806112058161219c565b9150506111c6565b50949350505050565b600080600061122787878787610a0c565b5091509150806000148061125f57506000805160206122cc833981519152546112509082611ef1565b61125c61271084611ef1565b10155b979650505050505050565b600080821161127857600080fd5b600561128483856121b7565b61128f90600a611ef1565b8361129b86600a611ef1565b6112a591906121b7565b6112af9190611f7c565b10156112c6576112bf82846121b7565b9050610433565b6112d082846121b7565b6112bf906001611f64565b60006113067f4c656e64696e674d61726b6574436f6e74726f6c6c65720000000000000000006115d5565b905090565b7f53832330c92cb5d80f0e1ff6fdb9886f7fad39132543bafb7497316eae2a831790565b6000818152600183016020526040812054151561063d565b60006113067121bab93932b731bca1b7b73a3937b63632b960711b6115d5565b60008051602061232c833981519152546001600160a01b0384811691161415611394576106948282611666565b6106948383836117b4565b60006113a961130b565b6001600160a01b038416600090815260059190910160209081526040808320858452909152902054111561140557610694816113e361130b565b6001600160a01b0385166000908152600391909101602052604090209061189f565b6106948161141161130b565b6001600160a01b0385166000908152600391909101602052604090209061156f565b60008061143e61130b565b6001600160a01b0384166000908152600391909101602052604081209150611465826115bf565b905060005b8181101561104057600061147e84836115c9565b905061148c8161047a61130b565b1561155c57600061149b61130b565b6001600160a01b03881660009081526005919091016020908152604080832085845290915290205490506114cd611347565b604051636ed2f1db60e01b815260048101849052602481018390526001600160a01b039190911690636ed2f1db9060440160206040518083038186803b15801561151657600080fd5b505afa15801561152a573d6000803e3d6000fd5b505050506040513d601f19601f8201168201806040525081019061154e9190611f93565b6115589087611f64565b9550505b50806115678161219c565b91505061146a565b600061063d83836118ab565b60008051602061232c833981519152546001600160a01b03858116911614156115ad576115a8828261199e565b6115b9565b6115b984848484611aeb565b50505050565b6000610433825490565b600061063d8383611bdf565b60008181527f4abde63c3e81aefa5764b017968bc473e83e093d7e1a10247d19e0a3e41240196020908152604080832054815170026b4b9b9b4b7339030b2323932b9b99d1607d1b9381019390935260318084018690528251808503909101815260519093019091526001600160a01b031690816105455760405162461bcd60e51b81526004016105c99190612205565b600060008051602061232c833981519152546040516370a0823160e01b81523060048201526001600160a01b03909116906370a082319060240160206040518083038186803b1580156116b857600080fd5b505afa1580156116cc573d6000803e3d6000fd5b505050506040513d601f19601f820116820180604052508101906116f09190611f93565b9050818110156117395760405162461bcd60e51b8152602060048201526014602482015273496e73756666696369656e742062616c616e636560601b60448201526064016105c9565b80156106945760008051602061232c83398151915254604051632e1a7d4d60e01b8152600481018490526001600160a01b0390911690632e1a7d4d90602401600060405180830381600087803b15801561179257600080fd5b505af11580156117a6573d6000803e3d6000fd5b505050506106948383611c09565b604080516001600160a01b038481166024830152604480830185905283518084039091018152606490920183526020820180516001600160e01b031663a9059cbb60e01b17905291516000928392908716916118109190612238565b6000604051808303816000865af19150503d806000811461184d576040519150601f19603f3d011682016040523d82523d6000602084013e611852565b606091505b509150915081801561187c57508051158061187c57508080602001905181019061187c9190612254565b6118985760405162461bcd60e51b81526004016105c990612271565b5050505050565b600061063d8383611cd2565b600081815260018301602052604081205480156119945760006118cf600183611f7c565b85549091506000906118e390600190611f7c565b905081811461194857600086600001828154811061190357611903612010565b906000526020600020015490508087600001848154811061192657611926612010565b6000918252602080832090910192909255918252600188019052604090208390555b8554869080611959576119596122b5565b600190038181906000526020600020016000905590558560010160008681526020019081526020016000206000905560019350505050610433565b6000915050610433565b804710156119e55760405162461bcd60e51b8152602060048201526014602482015273496e73756666696369656e742062616c616e636560601b60448201526064016105c9565b60008051602061232c8339815191525460408051630d0e30db60e41b815290516001600160a01b039092169163d0e30db0918491600480830192600092919082900301818588803b158015611a3957600080fd5b505af1158015611a4d573d6000803e3d6000fd5b5050505050611a6760008051602061232c83398151915290565b5460405163a9059cbb60e01b81526001600160a01b038481166004830152602482018490529091169063a9059cbb90604401602060405180830381600087803b158015611ab357600080fd5b505af1158015611ac7573d6000803e3d6000fd5b505050506040513d601f19601f820116820180604052508101906106949190612254565b604080516001600160a01b0385811660248301528481166044830152606480830185905283518084039091018152608490920183526020820180516001600160e01b03166323b872dd60e01b1790529151600092839290881691611b4f9190612238565b6000604051808303816000865af19150503d8060008114611b8c576040519150601f19603f3d011682016040523d82523d6000602084013e611b91565b606091505b5091509150818015611bbb575080511580611bbb575080806020019051810190611bbb9190612254565b611bd75760405162461bcd60e51b81526004016105c990612271565b505050505050565b6000826000018281548110611bf657611bf6612010565b9060005260206000200154905092915050565b604080516000808252602082019092526001600160a01b038416908390604051611c339190612238565b60006040518083038185875af1925050503d8060008114611c70576040519150601f19603f3d011682016040523d82523d6000602084013e611c75565b606091505b50509050806106945760405162461bcd60e51b815260206004820152602360248201527f5472616e7366657248656c7065723a204554485f5452414e534645525f46414960448201526213115160ea1b60648201526084016105c9565b6000818152600183016020526040812054611d1957508154600181810184556000848152602080822090930184905584548482528286019093526040902091909155610433565b506000610433565b600060208284031215611d3357600080fd5b5035919050565b80356001600160a01b0381168114611d5157600080fd5b919050565b60008060408385031215611d6957600080fd5b611d7283611d3a565b946020939093013593505050565b60008060408385031215611d9357600080fd5b82359150611da360208401611d3a565b90509250929050565b600080600060608486031215611dc157600080fd5b611dca84611d3a565b95602085013595506040909401359392505050565b60008060008060808587031215611df557600080fd5b84359350611e0560208601611d3a565b9250611e1360408601611d3a565b9396929550929360600135925050565b600060208284031215611e3557600080fd5b61063d82611d3a565b8015158114611e4c57600080fd5b50565b60008060008060808587031215611e6557600080fd5b611e6e85611d3a565b935060208501359250604085013591506060850135611e8c81611e3e565b939692955090935050565b6020808252825182820181905260009190848201906040850190845b81811015611ecf57835183529284019291840191600101611eb3565b50909695505050505050565b634e487b7160e01b600052601160045260246000fd5b6000816000190483118215151615611f0b57611f0b611edb565b500290565b600080600080600080600060e0888a031215611f2b57600080fd5b5050855160208701516040880151606089015160808a015160a08b015160c0909b0151949c939b50919990985090965094509092509050565b60008219821115611f7757611f77611edb565b500190565b600082821015611f8e57611f8e611edb565b500390565b600060208284031215611fa557600080fd5b5051919050565b6020808252602e908201527f4e6f7420656e6f75676820636f6c6c61746572616c20696e207468652073656c60408201526d65637465642063757272656e637960901b606082015260800190565b634e487b7160e01b600052604160045260246000fd5b634e487b7160e01b600052603260045260246000fd5b6000604082018483526020604081850152818551808452606086019150828701935060005b818110156120675784518352938301939183019160010161204b565b5090979650505050505050565b6000602080838503121561208757600080fd5b825167ffffffffffffffff8082111561209f57600080fd5b818501915085601f8301126120b357600080fd5b8151818111156120c5576120c5611ffa565b8060051b604051601f19603f830116810181811085821117156120ea576120ea611ffa565b60405291825284820192508381018501918883111561210857600080fd5b938501935b828510156121265784518452938501939285019261210d565b98975050505050505050565b600080600080600080600080610100898b03121561214f57600080fd5b885197506020890151965060408901519550606089015194506080890151935060a0890151925060c0890151915060e089015161218b81611e3e565b809150509295985092959890939650565b60006000198214156121b0576121b0611edb565b5060010190565b6000826121d457634e487b7160e01b600052601260045260246000fd5b500490565b60005b838110156121f45781810151838201526020016121dc565b838111156115b95750506000910152565b60208152600082518060208401526122248160408501602087016121d9565b601f01601f19169190910160400192915050565b6000825161224a8184602087016121d9565b9190910192915050565b60006020828403121561226657600080fd5b815161063d81611e3e565b60208082526024908201527f5472616e7366657248656c7065723a205452414e534645525f46524f4d5f46416040820152631253115160e21b606082015260800190565b634e487b7160e01b600052603160045260246000fdfe1aaabb4945989eb9ee8150fddc35fcfc125664a7b898aa2de5931bb12484d0521aaabb4945989eb9ee8150fddc35fcfc125664a7b898aa2de5931bb12484d0541aaabb4945989eb9ee8150fddc35fcfc125664a7b898aa2de5931bb12484d0533a2b81b27c095d6e2aecbb7be5d317f24d3f11a9eb2b6e2d16957fe4c0b4ddf3a264697066735822122049baa1bd960482e03bda6ce119e2f5a11da13f79d205c82ebbed1bb30275369764736f6c63430008090033",
  "devdoc": {
    "kind": "dev",
    "methods": {},
    "version": 1
  },
  "userdoc": {
    "kind": "user",
    "methods": {},
    "version": 1
  },
  "storageLayout": {
    "storage": [],
    "types": null
  }
}