{
  "address": "0x9357F4cD65D38339d6543ffCf6e7b7E99a35C288",
  "abi": [
    {
      "inputs": [
        {
          "internalType": "address",
          "name": "_user",
          "type": "address"
        },
        {
          "internalType": "bytes32",
          "name": "_unsettledOrderCcy",
          "type": "bytes32"
        },
        {
          "internalType": "uint256",
          "name": "_unsettledOrderAmount",
          "type": "uint256"
        },
        {
          "internalType": "bool",
          "name": "_isUnsettledBorrowOrder",
          "type": "bool"
        }
      ],
      "name": "calculateCollateral",
      "outputs": [
        {
          "internalType": "uint256",
          "name": "totalCollateral",
          "type": "uint256"
        },
        {
          "internalType": "uint256",
          "name": "totalUsedCollateral",
          "type": "uint256"
        },
        {
          "internalType": "uint256",
          "name": "totalDeposit",
          "type": "uint256"
        }
      ],
      "stateMutability": "view",
      "type": "function"
    },
    {
      "inputs": [
        {
          "internalType": "address",
          "name": "_user",
          "type": "address"
        },
        {
          "internalType": "bytes32",
          "name": "_unsettledOrderCcy",
          "type": "bytes32"
        },
        {
          "internalType": "uint256",
          "name": "_unsettledOrderAmount",
          "type": "uint256"
        },
        {
          "internalType": "bool",
          "name": "_isUnsettledBorrowOrder",
          "type": "bool"
        }
      ],
      "name": "calculateCoverage",
      "outputs": [
        {
          "internalType": "uint256",
          "name": "coverage",
          "type": "uint256"
        }
      ],
      "stateMutability": "view",
      "type": "function"
    },
    {
      "inputs": [
        {
          "internalType": "uint256",
          "name": "_amount",
          "type": "uint256"
        }
      ],
      "name": "calculateLiquidationFees",
      "outputs": [
        {
          "internalType": "uint256",
          "name": "protocolFee",
          "type": "uint256"
        },
        {
          "internalType": "uint256",
          "name": "liquidatorFee",
          "type": "uint256"
        }
      ],
      "stateMutability": "view",
      "type": "function"
    },
    {
      "inputs": [
        {
          "internalType": "address",
          "name": "_user",
          "type": "address"
        }
      ],
      "name": "getCollateralAmount",
      "outputs": [
        {
          "internalType": "uint256",
          "name": "totalCollateral",
          "type": "uint256"
        },
        {
          "internalType": "uint256",
          "name": "totalUsedCollateral",
          "type": "uint256"
        },
        {
          "internalType": "uint256",
          "name": "totalDeposit",
          "type": "uint256"
        }
      ],
      "stateMutability": "view",
      "type": "function"
    },
    {
      "inputs": [
        {
          "internalType": "address",
          "name": "_user",
          "type": "address"
        },
        {
          "internalType": "bytes32",
          "name": "_ccy",
          "type": "bytes32"
        }
      ],
      "name": "getCollateralAmount",
      "outputs": [
        {
          "internalType": "uint256",
          "name": "totalCollateral",
          "type": "uint256"
        },
        {
          "internalType": "uint256",
          "name": "totalUsedCollateral",
          "type": "uint256"
        },
        {
          "internalType": "uint256",
          "name": "totalDeposit",
          "type": "uint256"
        }
      ],
      "stateMutability": "view",
      "type": "function"
    },
    {
      "inputs": [
        {
          "internalType": "address",
          "name": "_user",
          "type": "address"
        },
        {
          "internalType": "bytes32",
          "name": "_ccy",
          "type": "bytes32"
        }
      ],
      "name": "getDepositAmount",
      "outputs": [
        {
          "internalType": "uint256",
          "name": "",
          "type": "uint256"
        }
      ],
      "stateMutability": "view",
      "type": "function"
    },
    {
      "inputs": [
        {
          "internalType": "address",
          "name": "_user",
          "type": "address"
        },
        {
          "internalType": "bytes32",
          "name": "_liquidationCcy",
          "type": "bytes32"
        },
        {
          "internalType": "uint256",
          "name": "_liquidationAmountMaximum",
          "type": "uint256"
        }
      ],
      "name": "getLiquidationAmount",
      "outputs": [
        {
          "internalType": "uint256",
          "name": "liquidationAmount",
          "type": "uint256"
        },
        {
          "internalType": "uint256",
          "name": "protocolFee",
          "type": "uint256"
        },
        {
          "internalType": "uint256",
          "name": "liquidatorFee",
          "type": "uint256"
        }
      ],
      "stateMutability": "view",
      "type": "function"
    },
    {
      "inputs": [
        {
          "internalType": "address",
          "name": "_user",
          "type": "address"
        }
      ],
      "name": "getUsedCurrencies",
      "outputs": [
        {
          "internalType": "bytes32[]",
          "name": "",
          "type": "bytes32[]"
        }
      ],
      "stateMutability": "view",
      "type": "function"
    },
    {
      "inputs": [
        {
          "internalType": "bytes32",
          "name": "_ccy",
          "type": "bytes32"
        },
        {
          "internalType": "address",
          "name": "_user",
          "type": "address"
        }
      ],
      "name": "getWithdrawableCollateral",
      "outputs": [
        {
          "internalType": "uint256",
          "name": "withdrawableAmount",
          "type": "uint256"
        }
      ],
      "stateMutability": "view",
      "type": "function"
    },
    {
      "inputs": [
        {
          "internalType": "address",
          "name": "_user",
          "type": "address"
        }
      ],
      "name": "getWithdrawableCollateral",
      "outputs": [
        {
          "internalType": "uint256",
          "name": "",
          "type": "uint256"
        }
      ],
      "stateMutability": "view",
      "type": "function"
    },
    {
      "inputs": [
        {
          "internalType": "address",
          "name": "_user",
          "type": "address"
        }
      ],
      "name": "isCovered",
      "outputs": [
        {
          "internalType": "bool",
          "name": "",
          "type": "bool"
        }
      ],
      "stateMutability": "view",
      "type": "function"
    }
  ],
  "transactionHash": "0x6a0d45acc287bf8c910d13cffa654e47bc5fda6063214d13ce39c6086c157cf9",
  "args": [],
  "numDeployments": 1,
  "solcInputHash": "249e6e37f83243cf49e94545085c5438",
  "bytecode": "0x61246e61003a600b82828239805160001a60731461002d57634e487b7160e01b600052600060045260246000fd5b30600052607381538281f3fe73000000000000000000000000000000000000000030146080604052600436106101145760003560e01c8063654c6295116100ac5780638e1e768d1161007b5780638e1e768d14610286578063948060dd14610299578063eb2243f8146102ac578063fb7bd3b4146102cc578063fc700810146102ec57600080fd5b8063654c62951461022d5780636c2dfe89146102405780637d044b43146102535780637d44828e1461027357600080fd5b80632917173a116100e85780632917173a1461019d5780634ba0c9b5146101bd578063500d2f6d146101df5780635257ed67146101ff57600080fd5b8062fcf262146101195780630253cd7e146101465780630eadd2441461016757806325e1f09f1461017a575b600080fd5b61012c610127366004611e0e565b61030c565b604080519283526020830191909152015b60405180910390f35b610159610154366004611e43565b610360565b60405190815260200161013d565b610159610175366004611e6d565b61047f565b61018d610188366004611e99565b610592565b604051901515815260200161013d565b8180156101a957600080fd5b506101596101b8366004611eb4565b6105e5565b8180156101c957600080fd5b506101dd6101d8366004611eb4565b6106dd565b005b8180156101eb57600080fd5b506101596101fa366004611ee7565b610732565b61021261020d366004611eb4565b6107a5565b6040805193845260208401929092529082015260600161013d565b61021261023b366004611e99565b610a85565b61021261024e366004611f3c565b610aa5565b81801561025f57600080fd5b5061015961026e366004611e43565b610e65565b610212610281366004611e43565b610ef7565b610159610294366004611f3c565b611071565b6101596102a7366004611e99565b6110ca565b8180156102b857600080fd5b506101dd6102c7366004611eb4565b611189565b8180156102d857600080fd5b506101dd6102e7366004611eb4565b6111f9565b6102ff6102fa366004611e99565b611288565b60405161013d9190611f84565b60008061033b61271061032b6000805160206123f98339815191525490565b6103359086611fde565b90611357565b915061035961271061032b6000805160206123d98339815191525490565b9050915091565b60008060008061036e6113c8565b6001600160a01b03166324e4ae0586886103946000805160206123b98339815191525490565b6040516001600160e01b031960e086901b16815260048101939093526001600160a01b039091166024830152604482015260640160e06040518083038186803b1580156103e057600080fd5b505afa1580156103f4573d6000803e3d6000fd5b505050506040513d601f19601f820116820180604052508101906104189190611ffd565b9650505094505050925082828261042d6113f8565b6001600160a01b038a166000908152600591909101602090815260408083208b845290915290205461045f9190612051565b6104699190612069565b6104739190612069565b93505050505b92915050565b60008061048a6113f8565b6001600160a01b03841660009081526005919091016020908152604080832087845290915290205490506104c6846104c06113f8565b9061141c565b1561057e5760006104d6846110ca565b905060006104e2611434565b604051630718de8160e21b815260048101889052602481018490526001600160a01b039190911690631c637a049060440160206040518083038186803b15801561052b57600080fd5b505afa15801561053f573d6000803e3d6000fd5b505050506040513d601f19601f820116820180604052508101906105639190612080565b9050808310156105735782610575565b805b9350505061058b565b6105888385610360565b91505b5092915050565b60008060006105a5846000806000610aa5565b509150915080600014806105dd57506000805160206123b9833981519152546105ce9082611fde565b6105da61271084611fde565b10155b949350505050565b60006105f1838561047f565b90508082116106005781610602565b805b90508061060d6113f8565b60008581526004919091016020526040902054101561066b5760405162461bcd60e51b8152602060048201526015602482015274141c9bdd1bd8dbdb081a5cc81a5b9cdbdb1d995b9d605a1b60448201526064015b60405180910390fd5b806106746113f8565b600401600085815260200190815260200160002060008282546106979190612069565b909155506106a890508484836111f9565b6106d66106b36113f8565b600085815260029190910160205260409020546001600160a01b03168583611454565b9392505050565b806106e66113f8565b6001600160a01b0385166000908152600591909101602090815260408083208684529091528120805490919061071d908490612051565b9091555061072d9050838361148c565b505050565b60008061073d6113f8565b6001600160a01b0386166000908152600591909101602090815260408083208984529091528120549150838210156107755781610777565b835b90506107838185612069565b92506107908688836111f9565b61079b8588836106dd565b5050949350505050565b60008060008060006107b688610a85565b509150915060006107c78989610ef7565b5050905080600014156107ec5760405162461bcd60e51b815260040161066290612099565b60006108046000805160206123b98339815191525490565b61080e9084611fde565b61081a61271086611fde565b10156108305761082b836002611357565b610833565b60005b6040805160028082526060820183529293506000929091602083019080368337019050509050818160008151811061086d5761086d6120fd565b602002602001018181525050848160018151811061088d5761088d6120fd565b60200260200101818152505060006108a3611434565b6001600160a01b031663fa4571908c846040518363ffffffff1660e01b81526004016108d0929190612113565b60006040518083038186803b1580156108e857600080fd5b505afa1580156108fc573d6000803e3d6000fd5b505050506040513d6000823e601f3d908101601f191682016040526109249190810190612161565b905080600081518110610939576109396120fd565b60200260200101519850600081600181518110610958576109586120fd565b602002602001015190508a8a111561096e578a99505b6109778a61030c565b90995097506000886109898b8d612051565b6109939190612051565b905085811180156109a357508582115b15610a74575084610a046109c36000805160206123f98339815191525490565b6000805160206123d9833981519152546109df90612710612051565b6109e99190612051565b6000805160206123f9833981519152545b6103359084611fde565b9950610a5a610a1f6000805160206123f98339815191525490565b6000805160206123d983398151915254610a3b90612710612051565b610a459190612051565b6000805160206123d9833981519152546109fa565b985088610a678b83612069565b610a719190612069565b9a505b505050505050505093509350939050565b6000806000610a98846000806000610aa5565b9250925092509193909250565b6000806000610aec6040518060e001604052806000815260200160008152602001600081526020016000815260200160008152602001600081526020016000151581525090565b6000610af66113f8565b6001600160a01b038a166000908152600591909101602090815260408083208b845290915281205491508715610c95578615610bbc57610b34611434565b604051636ed2f1db60e01b8152600481018b9052602481018a90526001600160a01b039190911690636ed2f1db9060440160206040518083038186803b158015610b7d57600080fd5b505afa158015610b91573d6000803e3d6000fd5b505050506040513d601f19601f82011682018060405250810190610bb59190612080565b9050610c95565b87821015610bdc5760405162461bcd60e51b815260040161066290612099565b610be68883612069565b9150610bf4896104c06113f8565b15610c9557610c01611434565b604051636ed2f1db60e01b8152600481018b9052602481018a90526001600160a01b039190911690636ed2f1db9060440160206040518083038186803b158015610c4a57600080fd5b505afa158015610c5e573d6000803e3d6000fd5b505050506040513d601f19601f82011682018060405250810190610c829190612080565b83518490610c91908390612051565b9052505b610c9d6113c8565b6001600160a01b031663998d38c28b8b85610cc46000805160206123b98339815191525490565b6040516001600160e01b031960e087901b1681526001600160a01b0390941660048501526024840192909252604483015260648201526084016101006040518083038186803b158015610d1657600080fd5b505afa158015610d2a573d6000803e3d6000fd5b505050506040513d601f19601f82011682018060405250810190610d4e919061221f565b151560c08b0181905260a08b019190915260808a01919091526060890191909152604088019190915260208701919091529185525080610d8b5750865b80610d94575087155b610db05760405162461bcd60e51b815260040161066290612099565b6000610dbb8b611520565b905060008460a0015182610dcf9190612051565b9050600085604001518660000151610de79190612051565b90506000866020015183610dfb9190612051565b905081811015610e0c576000610e16565b610e168282612069565b99508487608001518860600151610e2d9190612051565b610e379190612051565b985081831015610e48576000610e52565b610e528284612069565b9750505050505050509450945094915050565b6000610e6f6113f8565b6001600160a01b0384166000908152600591909101602090815260408083208584529091528120549150610ea16113f8565b6001600160a01b03851660009081526005919091016020908152604080832086845290915290205561058b82610ed56113f8565b6001600160a01b0386166000908152600391909101602052604090209061165c565b6000806000806000806000806000610f0d6113c8565b6001600160a01b03166324e4ae058b8d610f336000805160206123b98339815191525490565b6040516001600160e01b031960e086901b16815260048101939093526001600160a01b039091166024830152604482015260640160e06040518083038186803b158015610f7f57600080fd5b505afa158015610f93573d6000803e3d6000fd5b505050506040513d601f19601f82011682018060405250810190610fb79190611ffd565b96509650965096509650509550600081610fcf6113f8565b6001600160a01b038e166000908152600591909101602090815260408083208f84529091529020546110019190612051565b9050600061100f8689612051565b9050600061101d8884612051565b90508181101561102e576000611038565b6110388282612069565b9b506110448587612051565b9a508183101561105557600061105f565b61105f8284612069565b99505050505050505050509250925092565b600080600061108287878787610aa5565b509150915081600014156110a857801561109e576000196110a1565b60005b925061079b565b816110b561271083611fde565b6110bf9190612289565b979650505050505050565b6000806000806110d985610a85565b92509250925081600014156110f057949350505050565b6000805160206123b98339815191525461110a9083611fde565b61111661271085611fde565b111561117657600061115a61271061113a6000805160206123b98339815191525490565b6111449086611fde565b61115061271088611fde565b6103359190612069565b90508181101561116a578061116c565b815b9695505050505050565b506000949350505050565b505050919050565b6111b86111946113f8565b600084815260029190910160205260409020546001600160a01b0316843084611668565b6111c38383836106dd565b806111cc6113f8565b600401600084815260200190815260200160002060008282546111ef9190612051565b9091555050505050565b806112026113f8565b6001600160a01b03851660009081526005919091016020908152604080832086845290915290205410156112485760405162461bcd60e51b815260040161066290612099565b806112516113f8565b6001600160a01b0385166000908152600591909101602090815260408083208684529091528120805490919061071d908490612069565b606060006112946113f8565b6001600160a01b03841660009081526003919091016020526040812091506112bb826116ac565b905060008167ffffffffffffffff8111156112d8576112d86120e7565b604051908082528060200260200182016040528015611301578160200160208202803683370190505b50905060005b8281101561134e57600061131b85836116b6565b905080838381518110611330576113306120fd565b60209081029190910101525080611346816122ab565b915050611307565b50949350505050565b600080821161136557600080fd5b60056113718385612289565b61137c90600a611fde565b8361138886600a611fde565b6113929190612289565b61139c9190612069565b10156113b3576113ac8284612289565b9050610479565b6113bd8284612289565b6113ac906001612051565b60006113f37f4c656e64696e674d61726b6574436f6e74726f6c6c65720000000000000000006116c2565b905090565b7f53832330c92cb5d80f0e1ff6fdb9886f7fad39132543bafb7497316eae2a831790565b600081815260018301602052604081205415156106d6565b60006113f37121bab93932b731bca1b7b73a3937b63632b960711b6116c2565b600080516020612419833981519152546001600160a01b03848116911614156114815761072d8282611753565b61072d8383836118a1565b60006114966113f8565b6001600160a01b03841660009081526005919091016020908152604080832085845290915290205411156114f25761072d816114d06113f8565b6001600160a01b0385166000908152600391909101602052604090209061198c565b61072d816114fe6113f8565b6001600160a01b0385166000908152600391909101602052604090209061165c565b60008061152b6113f8565b6001600160a01b0384166000908152600391909101602052604081209150611552826116ac565b905060005b8181101561118157600061156b84836116b6565b9050611579816104c06113f8565b156116495760006115886113f8565b6001600160a01b03881660009081526005919091016020908152604080832085845290915290205490506115ba611434565b604051636ed2f1db60e01b815260048101849052602481018390526001600160a01b039190911690636ed2f1db9060440160206040518083038186803b15801561160357600080fd5b505afa158015611617573d6000803e3d6000fd5b505050506040513d601f19601f8201168201806040525081019061163b9190612080565b6116459087612051565b9550505b5080611654816122ab565b915050611557565b60006106d68383611998565b600080516020612419833981519152546001600160a01b038581169116141561169a576116958282611a8b565b6116a6565b6116a684848484611bd8565b50505050565b6000610479825490565b60006106d68383611ccc565b60008181527f4abde63c3e81aefa5764b017968bc473e83e093d7e1a10247d19e0a3e41240196020908152604080832054815170026b4b9b9b4b7339030b2323932b9b99d1607d1b9381019390935260318084018690528251808503909101815260519093019091526001600160a01b0316908161058b5760405162461bcd60e51b815260040161066291906122f2565b6000600080516020612419833981519152546040516370a0823160e01b81523060048201526001600160a01b03909116906370a082319060240160206040518083038186803b1580156117a557600080fd5b505afa1580156117b9573d6000803e3d6000fd5b505050506040513d601f19601f820116820180604052508101906117dd9190612080565b9050818110156118265760405162461bcd60e51b8152602060048201526014602482015273496e73756666696369656e742062616c616e636560601b6044820152606401610662565b801561072d5760008051602061241983398151915254604051632e1a7d4d60e01b8152600481018490526001600160a01b0390911690632e1a7d4d90602401600060405180830381600087803b15801561187f57600080fd5b505af1158015611893573d6000803e3d6000fd5b5050505061072d8383611cf6565b604080516001600160a01b038481166024830152604480830185905283518084039091018152606490920183526020820180516001600160e01b031663a9059cbb60e01b17905291516000928392908716916118fd9190612325565b6000604051808303816000865af19150503d806000811461193a576040519150601f19603f3d011682016040523d82523d6000602084013e61193f565b606091505b50915091508180156119695750805115806119695750808060200190518101906119699190612341565b6119855760405162461bcd60e51b81526004016106629061235e565b5050505050565b60006106d68383611dbf565b60008181526001830160205260408120548015611a815760006119bc600183612069565b85549091506000906119d090600190612069565b9050818114611a355760008660000182815481106119f0576119f06120fd565b9060005260206000200154905080876000018481548110611a1357611a136120fd565b6000918252602080832090910192909255918252600188019052604090208390555b8554869080611a4657611a466123a2565b600190038181906000526020600020016000905590558560010160008681526020019081526020016000206000905560019350505050610479565b6000915050610479565b80471015611ad25760405162461bcd60e51b8152602060048201526014602482015273496e73756666696369656e742062616c616e636560601b6044820152606401610662565b6000805160206124198339815191525460408051630d0e30db60e41b815290516001600160a01b039092169163d0e30db0918491600480830192600092919082900301818588803b158015611b2657600080fd5b505af1158015611b3a573d6000803e3d6000fd5b5050505050611b5460008051602061241983398151915290565b5460405163a9059cbb60e01b81526001600160a01b038481166004830152602482018490529091169063a9059cbb90604401602060405180830381600087803b158015611ba057600080fd5b505af1158015611bb4573d6000803e3d6000fd5b505050506040513d601f19601f8201168201806040525081019061072d9190612341565b604080516001600160a01b0385811660248301528481166044830152606480830185905283518084039091018152608490920183526020820180516001600160e01b03166323b872dd60e01b1790529151600092839290881691611c3c9190612325565b6000604051808303816000865af19150503d8060008114611c79576040519150601f19603f3d011682016040523d82523d6000602084013e611c7e565b606091505b5091509150818015611ca8575080511580611ca8575080806020019051810190611ca89190612341565b611cc45760405162461bcd60e51b81526004016106629061235e565b505050505050565b6000826000018281548110611ce357611ce36120fd565b9060005260206000200154905092915050565b604080516000808252602082019092526001600160a01b038416908390604051611d209190612325565b60006040518083038185875af1925050503d8060008114611d5d576040519150601f19603f3d011682016040523d82523d6000602084013e611d62565b606091505b505090508061072d5760405162461bcd60e51b815260206004820152602360248201527f5472616e7366657248656c7065723a204554485f5452414e534645525f46414960448201526213115160ea1b6064820152608401610662565b6000818152600183016020526040812054611e0657508154600181810184556000848152602080822090930184905584548482528286019093526040902091909155610479565b506000610479565b600060208284031215611e2057600080fd5b5035919050565b80356001600160a01b0381168114611e3e57600080fd5b919050565b60008060408385031215611e5657600080fd5b611e5f83611e27565b946020939093013593505050565b60008060408385031215611e8057600080fd5b82359150611e9060208401611e27565b90509250929050565b600060208284031215611eab57600080fd5b6106d682611e27565b600080600060608486031215611ec957600080fd5b611ed284611e27565b95602085013595506040909401359392505050565b60008060008060808587031215611efd57600080fd5b84359350611f0d60208601611e27565b9250611f1b60408601611e27565b9396929550929360600135925050565b8015158114611f3957600080fd5b50565b60008060008060808587031215611f5257600080fd5b611f5b85611e27565b935060208501359250604085013591506060850135611f7981611f2b565b939692955090935050565b6020808252825182820181905260009190848201906040850190845b81811015611fbc57835183529284019291840191600101611fa0565b50909695505050505050565b634e487b7160e01b600052601160045260246000fd5b6000816000190483118215151615611ff857611ff8611fc8565b500290565b600080600080600080600060e0888a03121561201857600080fd5b5050855160208701516040880151606089015160808a015160a08b015160c0909b0151949c939b50919990985090965094509092509050565b6000821982111561206457612064611fc8565b500190565b60008282101561207b5761207b611fc8565b500390565b60006020828403121561209257600080fd5b5051919050565b6020808252602e908201527f4e6f7420656e6f75676820636f6c6c61746572616c20696e207468652073656c60408201526d65637465642063757272656e637960901b606082015260800190565b634e487b7160e01b600052604160045260246000fd5b634e487b7160e01b600052603260045260246000fd5b6000604082018483526020604081850152818551808452606086019150828701935060005b8181101561215457845183529383019391830191600101612138565b5090979650505050505050565b6000602080838503121561217457600080fd5b825167ffffffffffffffff8082111561218c57600080fd5b818501915085601f8301126121a057600080fd5b8151818111156121b2576121b26120e7565b8060051b604051601f19603f830116810181811085821117156121d7576121d76120e7565b6040529182528482019250838101850191888311156121f557600080fd5b938501935b82851015612213578451845293850193928501926121fa565b98975050505050505050565b600080600080600080600080610100898b03121561223c57600080fd5b885197506020890151965060408901519550606089015194506080890151935060a0890151925060c0890151915060e089015161227881611f2b565b809150509295985092959890939650565b6000826122a657634e487b7160e01b600052601260045260246000fd5b500490565b60006000198214156122bf576122bf611fc8565b5060010190565b60005b838110156122e15781810151838201526020016122c9565b838111156116a65750506000910152565b60208152600082518060208401526123118160408501602087016122c6565b601f01601f19169190910160400192915050565b600082516123378184602087016122c6565b9190910192915050565b60006020828403121561235357600080fd5b81516106d681611f2b565b60208082526024908201527f5472616e7366657248656c7065723a205452414e534645525f46524f4d5f46416040820152631253115160e21b606082015260800190565b634e487b7160e01b600052603160045260246000fdfe1aaabb4945989eb9ee8150fddc35fcfc125664a7b898aa2de5931bb12484d0521aaabb4945989eb9ee8150fddc35fcfc125664a7b898aa2de5931bb12484d0541aaabb4945989eb9ee8150fddc35fcfc125664a7b898aa2de5931bb12484d0533a2b81b27c095d6e2aecbb7be5d317f24d3f11a9eb2b6e2d16957fe4c0b4ddf3a264697066735822122024cd1f22d89c26c2ba0718bbe79c70df0cfcbba87524e8e11e0230dda116a37264736f6c63430008090033",
  "devdoc": {
    "kind": "dev",
    "methods": {},
    "version": 1
  },
  "userdoc": {
    "kind": "user",
    "methods": {},
    "version": 1
  },
  "storageLayout": {
    "storage": [],
    "types": null
  }
}