{
  "address": "0xBB0ea4541eeEb22843E8e72e423DFbDA56D81ED6",
  "abi": [
    {
      "inputs": [
        {
          "internalType": "address",
          "name": "_user",
          "type": "address"
        },
        {
          "internalType": "bytes32",
          "name": "_unsettledOrderCcy",
          "type": "bytes32"
        },
        {
          "internalType": "uint256",
          "name": "_unsettledOrderAmount",
          "type": "uint256"
        },
        {
          "internalType": "bool",
          "name": "_isUnsettledBorrowOrder",
          "type": "bool"
        }
      ],
      "name": "getCollateralAmount",
      "outputs": [
        {
          "internalType": "uint256",
          "name": "totalCollateral",
          "type": "uint256"
        },
        {
          "internalType": "uint256",
          "name": "totalUsedCollateral",
          "type": "uint256"
        },
        {
          "internalType": "uint256",
          "name": "totalActualCollateral",
          "type": "uint256"
        }
      ],
      "stateMutability": "view",
      "type": "function"
    },
    {
      "inputs": [
        {
          "internalType": "address",
          "name": "_user",
          "type": "address"
        }
      ],
      "name": "getCollateralAmount",
      "outputs": [
        {
          "internalType": "uint256",
          "name": "totalCollateral",
          "type": "uint256"
        },
        {
          "internalType": "uint256",
          "name": "totalUsedCollateral",
          "type": "uint256"
        },
        {
          "internalType": "uint256",
          "name": "totalActualCollateral",
          "type": "uint256"
        }
      ],
      "stateMutability": "view",
      "type": "function"
    },
    {
      "inputs": [
        {
          "internalType": "address",
          "name": "_user",
          "type": "address"
        },
        {
          "internalType": "bytes32",
          "name": "_ccy",
          "type": "bytes32"
        }
      ],
      "name": "getDepositAmount",
      "outputs": [
        {
          "internalType": "uint256",
          "name": "",
          "type": "uint256"
        }
      ],
      "stateMutability": "view",
      "type": "function"
    },
    {
      "inputs": [
        {
          "internalType": "address",
          "name": "_user",
          "type": "address"
        },
        {
          "internalType": "bytes32",
          "name": "_liquidationCcy",
          "type": "bytes32"
        },
        {
          "internalType": "uint256",
          "name": "_liquidationAmountMaximum",
          "type": "uint256"
        }
      ],
      "name": "getLiquidationAmount",
      "outputs": [
        {
          "internalType": "uint256",
          "name": "liquidationAmount",
          "type": "uint256"
        },
        {
          "internalType": "uint256",
          "name": "protocolFee",
          "type": "uint256"
        },
        {
          "internalType": "uint256",
          "name": "liquidatorFee",
          "type": "uint256"
        }
      ],
      "stateMutability": "view",
      "type": "function"
    },
    {
      "inputs": [
        {
          "internalType": "address",
          "name": "_user",
          "type": "address"
        }
      ],
      "name": "getUsedCurrencies",
      "outputs": [
        {
          "internalType": "bytes32[]",
          "name": "",
          "type": "bytes32[]"
        }
      ],
      "stateMutability": "view",
      "type": "function"
    },
    {
      "inputs": [
        {
          "internalType": "bytes32",
          "name": "_ccy",
          "type": "bytes32"
        },
        {
          "internalType": "address",
          "name": "_user",
          "type": "address"
        }
      ],
      "name": "getWithdrawableCollateral",
      "outputs": [
        {
          "internalType": "uint256",
          "name": "withdrawableAmount",
          "type": "uint256"
        }
      ],
      "stateMutability": "view",
      "type": "function"
    },
    {
      "inputs": [
        {
          "internalType": "address",
          "name": "_user",
          "type": "address"
        }
      ],
      "name": "getWithdrawableCollateral",
      "outputs": [
        {
          "internalType": "uint256",
          "name": "",
          "type": "uint256"
        }
      ],
      "stateMutability": "view",
      "type": "function"
    },
    {
      "inputs": [
        {
          "internalType": "address",
          "name": "_user",
          "type": "address"
        },
        {
          "internalType": "bytes32",
          "name": "_unsettledOrderCcy",
          "type": "bytes32"
        },
        {
          "internalType": "uint256",
          "name": "_unsettledOrderAmount",
          "type": "uint256"
        },
        {
          "internalType": "bool",
          "name": "_isUnsettledBorrowOrder",
          "type": "bool"
        }
      ],
      "name": "isCovered",
      "outputs": [
        {
          "internalType": "bool",
          "name": "",
          "type": "bool"
        }
      ],
      "stateMutability": "view",
      "type": "function"
    }
  ],
  "transactionHash": "0xfb9845175dd2a0646cec0aebc6b33f929866c0015b6a529b8a8d9706dd708f90",
  "args": [],
  "numDeployments": 1,
  "solcInputHash": "833f10cbb498b38829fea10c2ee15de7",
  "bytecode": "0x611e7f61003a600b82828239805160001a60731461002d57634e487b7160e01b600052600060045260246000fd5b30600052607381538281f3fe73000000000000000000000000000000000000000030146080604052600436106100d95760003560e01c80635257ed6711610096578063eb2243f811610070578063eb2243f8146101e0578063fb7bd3b414610200578063fc70081014610220578063fd2117fb1461024057600080fd5b80635257ed67146101a7578063654c6295146101ba578063948060dd146101cd57600080fd5b80630253cd7e146100de5780630eadd244146101045780632917173a1461011757806346b1cb2c146101375780634ba0c9b514610165578063500d2f6d14610187575b600080fd5b6100f16100ec366004611960565b610263565b6040519081526020015b60405180910390f35b6100f161011236600461198a565b61035a565b81801561012357600080fd5b506100f16101323660046119b6565b61046d565b61014a6101453660046119fa565b6104cc565b604080519384526020840192909252908201526060016100fb565b81801561017157600080fd5b506101856101803660046119b6565b61086d565b005b81801561019357600080fd5b506100f16101a2366004611a42565b6108f4565b61014a6101b53660046119b6565b610967565b61014a6101c8366004611a86565b610b97565b6100f16101db366004611a86565b610bb7565b8180156101ec57600080fd5b506101856101fb3660046119b6565b610c76565b81801561020c57600080fd5b5061018561021b3660046119b6565b610cb0565b61023361022e366004611a86565b610d71565b6040516100fb9190611aa1565b61025361024e3660046119fa565b610e40565b60405190151581526020016100fb565b600080600080610271610e94565b604051635c34776560e01b8152600481018790526001600160a01b0388811660248301529190911690635c3477659060440160e06040518083038186803b1580156102bb57600080fd5b505afa1580156102cf573d6000803e3d6000fd5b505050506040513d601f19601f820116820180604052508101906102f39190611ae5565b96505050945050509250828282610308610ec4565b6001600160a01b038a166000908152600591909101602090815260408083208b845290915290205461033a9190611b4f565b6103449190611b67565b61034e9190611b67565b93505050505b92915050565b600080610365610ec4565b6001600160a01b03841660009081526005919091016020908152604080832087845290915290205490506103a18461039b610ec4565b90610ee8565b156104595760006103b184610bb7565b905060006103bd610f00565b604051630718de8160e21b815260048101889052602481018490526001600160a01b039190911690631c637a049060440160206040518083038186803b15801561040657600080fd5b505afa15801561041a573d6000803e3d6000fd5b505050506040513d601f19601f8201168201806040525081019061043e9190611b7e565b90508083101561044e5782610450565b805b93505050610466565b6104638385610263565b91505b5092915050565b6000610479838561035a565b9050808211610488578161048a565b805b9050610497848483610cb0565b6104c56104a2610ec4565b600085815260029190910160205260409020546001600160a01b03168583610f20565b9392505050565b60008060006105136040518060e001604052806000815260200160008152602001600081526020016000815260200160008152602001600081526020016000151581525090565b600061051d610ec4565b6001600160a01b038a166000908152600591909101602090815260408083208b8452909152812054915087156106c55786156105e35761055b610f00565b604051636ed2f1db60e01b8152600481018b9052602481018a90526001600160a01b039190911690636ed2f1db9060440160206040518083038186803b1580156105a457600080fd5b505afa1580156105b8573d6000803e3d6000fd5b505050506040513d601f19601f820116820180604052508101906105dc9190611b7e565b90506106c5565b8782101561060c5760405162461bcd60e51b815260040161060390611b97565b60405180910390fd5b6106168883611b67565b91506106248961039b610ec4565b156106c557610631610f00565b604051636ed2f1db60e01b8152600481018b9052602481018a90526001600160a01b039190911690636ed2f1db9060440160206040518083038186803b15801561067a57600080fd5b505afa15801561068e573d6000803e3d6000fd5b505050506040513d601f19601f820116820180604052508101906106b29190611b7e565b835184906106c1908390611b4f565b9052505b6106cd610e94565b604051626256a560e31b81526001600160a01b038c81166004830152602482018c9052604482018590529190911690630312b528906064016101006040518083038186803b15801561071e57600080fd5b505afa158015610732573d6000803e3d6000fd5b505050506040513d601f19601f820116820180604052508101906107569190611be5565b151560c08b0181905260a08b019190915260808a019190915260608901919091526040880191909152602087019190915291855250806107935750865b8061079c575087155b6107b85760405162461bcd60e51b815260040161060390611b97565b60006107c38b610f58565b905060008460a00151826107d79190611b4f565b90506000856040015186600001516107ef9190611b4f565b905060008660200151836108039190611b4f565b90508181101561081457600061081e565b61081e8282611b67565b995084876080015188606001516108359190611b4f565b61083f9190611b4f565b98508183101561085057600061085a565b61085a8284611b67565b9750505050505050509450945094915050565b80610876610ec4565b6001600160a01b038516600090815260059190910160209081526040808320868452909152812080549091906108ad908490611b4f565b909155508190506108bc610ec4565b600401600084815260200190815260200160002060008282546108df9190611b4f565b909155506108ef90508383611094565b505050565b6000806108ff610ec4565b6001600160a01b0386166000908152600591909101602090815260408083208984529091528120549150838210156109375781610939565b835b90506109458185611b67565b9250610952868883610cb0565b61095d85888361086d565b5050949350505050565b600080600080600061097888610b97565b50915091506000610995600080516020611dca8339815191525490565b61099f9083611c4f565b6109ab61271085611c4f565b10156109c1576109bc826002611128565b6109c4565b60005b90506109ce610f00565b604051630718de8160e21b8152600481018a9052602481018390526001600160a01b039190911690631c637a049060440160206040518083038186803b158015610a1757600080fd5b505afa158015610a2b573d6000803e3d6000fd5b505050506040513d601f19601f82011682018060405250810190610a4f9190611b7e565b9550610a7d612710610a6d600080516020611e0a8339815191525490565b610a779089611c4f565b90611128565b9450610a9b612710610a6d600080516020611dea8339815191525490565b9350600084610aaa8789611b4f565b610ab49190611b4f565b905087811115610b8a575086610b1a610ad9600080516020611e0a8339815191525490565b600080516020611dea83398151915254610af590612710611b4f565b610aff9190611b4f565b600080516020611e0a833981519152545b610a779084611c4f565b9550610b70610b35600080516020611e0a8339815191525490565b600080516020611dea83398151915254610b5190612710611b4f565b610b5b9190611b4f565b600080516020611dea83398151915254610b10565b945084610b7d8783611b67565b610b879190611b67565b96505b5050505093509350939050565b6000806000610baa8460008060006104cc565b9250925092509193909250565b600080600080610bc685610b97565b9250925092508160001415610bdd57949350505050565b600080516020611dca83398151915254610bf79083611c4f565b610c0361271085611c4f565b1115610c63576000610c47612710610c27600080516020611dca8339815191525490565b610c319086611c4f565b610c3d61271088611c4f565b610a779190611b67565b905081811015610c575780610c59565b815b9695505050505050565b506000949350505050565b505050919050565b610ca5610c81610ec4565b600084815260029190910160205260409020546001600160a01b0316843084611199565b6108ef83838361086d565b80610cb9610ec4565b6001600160a01b0385166000908152600591909101602090815260408083208684529091529020541015610cff5760405162461bcd60e51b815260040161060390611b97565b80610d08610ec4565b6001600160a01b03851660009081526005919091016020908152604080832086845290915281208054909190610d3f908490611b67565b90915550819050610d4e610ec4565b600401600084815260200190815260200160002060008282546108df9190611b67565b60606000610d7d610ec4565b6001600160a01b0384166000908152600391909101602052604081209150610da4826111dd565b905060008167ffffffffffffffff811115610dc157610dc1611c6e565b604051908082528060200260200182016040528015610dea578160200160208202803683370190505b50905060005b82811015610e37576000610e0485836111e7565b905080838381518110610e1957610e19611c84565b60209081029190910101525080610e2f81611c9a565b915050610df0565b50949350505050565b6000806000610e51878787876104cc565b50915091508060001480610e895750600080516020611dca83398151915254610e7a9082611c4f565b610e8661271084611c4f565b10155b979650505050505050565b6000610ebf7f4c656e64696e674d61726b6574436f6e74726f6c6c65720000000000000000006111f3565b905090565b7f53832330c92cb5d80f0e1ff6fdb9886f7fad39132543bafb7497316eae2a831790565b600081815260018301602052604081205415156104c5565b6000610ebf7121bab93932b731bca1b7b73a3937b63632b960711b6111f3565b600080516020611e2a833981519152546001600160a01b0384811691161415610f4d576108ef8282611284565b6108ef8383836113cf565b600080610f63610ec4565b6001600160a01b0384166000908152600391909101602052604081209150610f8a826111dd565b905060005b81811015610c6e576000610fa384836111e7565b9050610fb18161039b610ec4565b15611081576000610fc0610ec4565b6001600160a01b0388166000908152600591909101602090815260408083208584529091529020549050610ff2610f00565b604051636ed2f1db60e01b815260048101849052602481018390526001600160a01b039190911690636ed2f1db9060440160206040518083038186803b15801561103b57600080fd5b505afa15801561104f573d6000803e3d6000fd5b505050506040513d601f19601f820116820180604052508101906110739190611b7e565b61107d9087611b4f565b9550505b508061108c81611c9a565b915050610f8f565b600061109e610ec4565b6001600160a01b03841660009081526005919091016020908152604080832085845290915290205411156110fa576108ef816110d8610ec4565b6001600160a01b038516600090815260039190910160205260409020906114ba565b6108ef81611106610ec4565b6001600160a01b038516600090815260039190910160205260409020906114c6565b600080821161113657600080fd5b60056111428385611cb5565b61114d90600a611c4f565b8361115986600a611c4f565b6111639190611cb5565b61116d9190611b67565b10156111845761117d8284611cb5565b9050610354565b61118e8284611cb5565b61117d906001611b4f565b600080516020611e2a833981519152546001600160a01b03858116911614156111cb576111c682826114d2565b6111d7565b6111d78484848461161b565b50505050565b6000610354825490565b60006104c5838361170f565b60008181527f4abde63c3e81aefa5764b017968bc473e83e093d7e1a10247d19e0a3e41240196020908152604080832054815170026b4b9b9b4b7339030b2323932b9b99d1607d1b9381019390935260318084018690528251808503909101815260519093019091526001600160a01b031690816104665760405162461bcd60e51b81526004016106039190611d03565b6000600080516020611e2a833981519152546040516370a0823160e01b81523060048201526001600160a01b03909116906370a082319060240160206040518083038186803b1580156112d657600080fd5b505afa1580156112ea573d6000803e3d6000fd5b505050506040513d601f19601f8201168201806040525081019061130e9190611b7e565b9050818110156113545760405162461bcd60e51b8152602060048201526011602482015270092dce6eaccccd2c6d2cadce840ae8aa89607b1b6044820152606401610603565b80156108ef57600080516020611e2a83398151915254604051632e1a7d4d60e01b8152600481018490526001600160a01b0390911690632e1a7d4d90602401600060405180830381600087803b1580156113ad57600080fd5b505af11580156113c1573d6000803e3d6000fd5b505050506108ef8383611739565b604080516001600160a01b038481166024830152604480830185905283518084039091018152606490920183526020820180516001600160e01b031663a9059cbb60e01b179052915160009283929087169161142b9190611d36565b6000604051808303816000865af19150503d8060008114611468576040519150601f19603f3d011682016040523d82523d6000602084013e61146d565b606091505b50915091508180156114975750805115806114975750808060200190518101906114979190611d52565b6114b35760405162461bcd60e51b815260040161060390611d6f565b5050505050565b60006104c58383611802565b60006104c58383611851565b804710156115155760405162461bcd60e51b815260206004820152601060248201526f092dce6eaccccd2c6d2cadce8408aa8960831b6044820152606401610603565b600080516020611e2a8339815191525460408051630d0e30db60e41b815290516001600160a01b039092169163d0e30db0918491600480830192600092919082900301818588803b15801561156957600080fd5b505af115801561157d573d6000803e3d6000fd5b5050505050611597600080516020611e2a83398151915290565b5460405163a9059cbb60e01b81526001600160a01b038481166004830152602482018490529091169063a9059cbb90604401602060405180830381600087803b1580156115e357600080fd5b505af11580156115f7573d6000803e3d6000fd5b505050506040513d601f19601f820116820180604052508101906108ef9190611d52565b604080516001600160a01b0385811660248301528481166044830152606480830185905283518084039091018152608490920183526020820180516001600160e01b03166323b872dd60e01b179052915160009283929088169161167f9190611d36565b6000604051808303816000865af19150503d80600081146116bc576040519150601f19603f3d011682016040523d82523d6000602084013e6116c1565b606091505b50915091508180156116eb5750805115806116eb5750808060200190518101906116eb9190611d52565b6117075760405162461bcd60e51b815260040161060390611d6f565b505050505050565b600082600001828154811061172657611726611c84565b9060005260206000200154905092915050565b604080516000808252602082019092526001600160a01b0384169083906040516117639190611d36565b60006040518083038185875af1925050503d80600081146117a0576040519150601f19603f3d011682016040523d82523d6000602084013e6117a5565b606091505b50509050806108ef5760405162461bcd60e51b815260206004820152602360248201527f5472616e7366657248656c7065723a204554485f5452414e534645525f46414960448201526213115160ea1b6064820152608401610603565b600081815260018301602052604081205461184957508154600181810184556000848152602080822090930184905584548482528286019093526040902091909155610354565b506000610354565b6000818152600183016020526040812054801561193a576000611875600183611b67565b855490915060009061188990600190611b67565b90508181146118ee5760008660000182815481106118a9576118a9611c84565b90600052602060002001549050808760000184815481106118cc576118cc611c84565b6000918252602080832090910192909255918252600188019052604090208390555b85548690806118ff576118ff611db3565b600190038181906000526020600020016000905590558560010160008681526020019081526020016000206000905560019350505050610354565b6000915050610354565b80356001600160a01b038116811461195b57600080fd5b919050565b6000806040838503121561197357600080fd5b61197c83611944565b946020939093013593505050565b6000806040838503121561199d57600080fd5b823591506119ad60208401611944565b90509250929050565b6000806000606084860312156119cb57600080fd5b6119d484611944565b95602085013595506040909401359392505050565b80151581146119f757600080fd5b50565b60008060008060808587031215611a1057600080fd5b611a1985611944565b935060208501359250604085013591506060850135611a37816119e9565b939692955090935050565b60008060008060808587031215611a5857600080fd5b84359350611a6860208601611944565b9250611a7660408601611944565b9396929550929360600135925050565b600060208284031215611a9857600080fd5b6104c582611944565b6020808252825182820181905260009190848201906040850190845b81811015611ad957835183529284019291840191600101611abd565b50909695505050505050565b600080600080600080600060e0888a031215611b0057600080fd5b5050855160208701516040880151606089015160808a015160a08b015160c0909b0151949c939b50919990985090965094509092509050565b634e487b7160e01b600052601160045260246000fd5b60008219821115611b6257611b62611b39565b500190565b600082821015611b7957611b79611b39565b500390565b600060208284031215611b9057600080fd5b5051919050565b6020808252602e908201527f4e6f7420656e6f75676820636f6c6c61746572616c20696e207468652073656c60408201526d65637465642063757272656e637960901b606082015260800190565b600080600080600080600080610100898b031215611c0257600080fd5b885197506020890151965060408901519550606089015194506080890151935060a0890151925060c0890151915060e0890151611c3e816119e9565b809150509295985092959890939650565b6000816000190483118215151615611c6957611c69611b39565b500290565b634e487b7160e01b600052604160045260246000fd5b634e487b7160e01b600052603260045260246000fd5b6000600019821415611cae57611cae611b39565b5060010190565b600082611cd257634e487b7160e01b600052601260045260246000fd5b500490565b60005b83811015611cf2578181015183820152602001611cda565b838111156111d75750506000910152565b6020815260008251806020840152611d22816040850160208701611cd7565b601f01601f19169190910160400192915050565b60008251611d48818460208701611cd7565b9190910192915050565b600060208284031215611d6457600080fd5b81516104c5816119e9565b60208082526024908201527f5472616e7366657248656c7065723a205452414e534645525f46524f4d5f46416040820152631253115160e21b606082015260800190565b634e487b7160e01b600052603160045260246000fdfe1aaabb4945989eb9ee8150fddc35fcfc125664a7b898aa2de5931bb12484d0521aaabb4945989eb9ee8150fddc35fcfc125664a7b898aa2de5931bb12484d0541aaabb4945989eb9ee8150fddc35fcfc125664a7b898aa2de5931bb12484d0537522ee63bb7da831844dcdb60f35e8cfa51225eeb4ed6734e421ed06f0d56805a2646970667358221220877bec5ee6a7f02bedeb9094bd295ae025b035e669bf03d32be76728a5ec48ff64736f6c63430008090033",
  "devdoc": {
    "kind": "dev",
    "methods": {},
    "version": 1
  },
  "userdoc": {
    "kind": "user",
    "methods": {},
    "version": 1
  },
  "storageLayout": {
    "storage": [],
    "types": null
  }
}