{
  "address": "0x29E15788A9B4B53476462eE05dafa8f29Eb34ce7",
  "abi": [
    {
      "inputs": [
        {
          "internalType": "bytes32",
          "name": "_ccy",
          "type": "bytes32"
        },
        {
          "internalType": "uint256",
          "name": "_maturity",
          "type": "uint256"
        },
        {
          "internalType": "address",
          "name": "_user",
          "type": "address"
        }
      ],
      "name": "calculateActualFutureValue",
      "outputs": [
        {
          "internalType": "int256",
          "name": "futureValue",
          "type": "int256"
        }
      ],
      "stateMutability": "view",
      "type": "function"
    },
    {
      "inputs": [
        {
          "internalType": "bytes32",
          "name": "_ccy",
          "type": "bytes32"
        },
        {
          "internalType": "uint256",
          "name": "_maturity",
          "type": "uint256"
        },
        {
          "internalType": "address",
          "name": "_user",
          "type": "address"
        }
      ],
      "name": "calculateActualPresentValue",
      "outputs": [
        {
          "internalType": "int256",
          "name": "presentValue",
          "type": "int256"
        }
      ],
      "stateMutability": "view",
      "type": "function"
    },
    {
      "inputs": [
        {
          "internalType": "bytes32",
          "name": "_ccy",
          "type": "bytes32"
        },
        {
          "internalType": "address",
          "name": "_user",
          "type": "address"
        }
      ],
      "name": "calculateActualPresentValue",
      "outputs": [
        {
          "internalType": "int256",
          "name": "totalPresentValue",
          "type": "int256"
        }
      ],
      "stateMutability": "view",
      "type": "function"
    },
    {
      "inputs": [
        {
          "internalType": "bytes32",
          "name": "_ccy",
          "type": "bytes32"
        },
        {
          "internalType": "address",
          "name": "_market",
          "type": "address"
        },
        {
          "internalType": "address",
          "name": "_user",
          "type": "address"
        }
      ],
      "name": "calculateBorrowedFundsFromOrders",
      "outputs": [
        {
          "internalType": "uint256",
          "name": "workingOrdersAmount",
          "type": "uint256"
        },
        {
          "internalType": "uint256",
          "name": "debtAmount",
          "type": "uint256"
        },
        {
          "internalType": "uint256",
          "name": "borrowedAmount",
          "type": "uint256"
        }
      ],
      "stateMutability": "view",
      "type": "function"
    },
    {
      "inputs": [
        {
          "internalType": "bytes32",
          "name": "_ccy",
          "type": "bytes32"
        },
        {
          "internalType": "address",
          "name": "_user",
          "type": "address"
        }
      ],
      "name": "calculateBorrowedFundsFromOrders",
      "outputs": [
        {
          "internalType": "uint256",
          "name": "totalWorkingOrdersAmount",
          "type": "uint256"
        },
        {
          "internalType": "uint256",
          "name": "totalDebtAmount",
          "type": "uint256"
        },
        {
          "internalType": "uint256",
          "name": "totalBorrowedAmount",
          "type": "uint256"
        }
      ],
      "stateMutability": "view",
      "type": "function"
    },
    {
      "inputs": [
        {
          "internalType": "bytes32",
          "name": "_ccy",
          "type": "bytes32"
        },
        {
          "internalType": "address",
          "name": "_user",
          "type": "address"
        }
      ],
      "name": "calculateFunds",
      "outputs": [
        {
          "internalType": "uint256",
          "name": "workingLendOrdersAmount",
          "type": "uint256"
        },
        {
          "internalType": "uint256",
          "name": "claimableAmount",
          "type": "uint256"
        },
        {
          "internalType": "uint256",
          "name": "collateralAmount",
          "type": "uint256"
        },
        {
          "internalType": "uint256",
          "name": "lentAmount",
          "type": "uint256"
        },
        {
          "internalType": "uint256",
          "name": "workingBorrowOrdersAmount",
          "type": "uint256"
        },
        {
          "internalType": "uint256",
          "name": "debtAmount",
          "type": "uint256"
        },
        {
          "internalType": "uint256",
          "name": "borrowedAmount",
          "type": "uint256"
        }
      ],
      "stateMutability": "view",
      "type": "function"
    },
    {
      "inputs": [
        {
          "internalType": "bytes32",
          "name": "_ccy",
          "type": "bytes32"
        },
        {
          "internalType": "address",
          "name": "_user",
          "type": "address"
        }
      ],
      "name": "calculateLentFundsFromOrders",
      "outputs": [
        {
          "internalType": "uint256",
          "name": "totalWorkingOrdersAmount",
          "type": "uint256"
        },
        {
          "internalType": "uint256",
          "name": "totalClaimableAmount",
          "type": "uint256"
        },
        {
          "internalType": "uint256",
          "name": "totalLentAmount",
          "type": "uint256"
        }
      ],
      "stateMutability": "view",
      "type": "function"
    },
    {
      "inputs": [
        {
          "internalType": "bytes32",
          "name": "_ccy",
          "type": "bytes32"
        },
        {
          "internalType": "address",
          "name": "_market",
          "type": "address"
        },
        {
          "internalType": "address",
          "name": "_user",
          "type": "address"
        }
      ],
      "name": "calculateLentFundsFromOrders",
      "outputs": [
        {
          "internalType": "uint256",
          "name": "workingOrdersAmount",
          "type": "uint256"
        },
        {
          "internalType": "uint256",
          "name": "claimableAmount",
          "type": "uint256"
        },
        {
          "internalType": "uint256",
          "name": "lentAmount",
          "type": "uint256"
        }
      ],
      "stateMutability": "view",
      "type": "function"
    },
    {
      "inputs": [
        {
          "internalType": "address",
          "name": "_user",
          "type": "address"
        },
        {
          "internalType": "bytes32",
          "name": "_depositCcy",
          "type": "bytes32"
        },
        {
          "internalType": "uint256",
          "name": "_depositAmount",
          "type": "uint256"
        }
      ],
      "name": "calculateTotalFundsInETH",
      "outputs": [
        {
          "internalType": "uint256",
          "name": "totalWorkingLendOrdersAmount",
          "type": "uint256"
        },
        {
          "internalType": "uint256",
          "name": "totalClaimableAmount",
          "type": "uint256"
        },
        {
          "internalType": "uint256",
          "name": "totalCollateralAmount",
          "type": "uint256"
        },
        {
          "internalType": "uint256",
          "name": "totalLentAmount",
          "type": "uint256"
        },
        {
          "internalType": "uint256",
          "name": "totalWorkingBorrowOrdersAmount",
          "type": "uint256"
        },
        {
          "internalType": "uint256",
          "name": "totalDebtAmount",
          "type": "uint256"
        },
        {
          "internalType": "uint256",
          "name": "totalBorrowedAmount",
          "type": "uint256"
        },
        {
          "internalType": "bool",
          "name": "isEnoughDeposit",
          "type": "bool"
        }
      ],
      "stateMutability": "view",
      "type": "function"
    }
  ],
  "transactionHash": "0x899ba3ab0190bd97c48b339c67db243ad8dd7975a3ace9cd3008ba2eb1de93b0",
  "args": [],
  "numDeployments": 1,
  "solcInputHash": "cc96dc28de7f88b8c83e42ceb0adbeb9",
  "bytecode": "0x612ab361003a600b82828239805160001a60731461002d57634e487b7160e01b600052600060045260246000fd5b30600052607381538281f3fe73000000000000000000000000000000000000000030146080604052600436106100a85760003560e01c80637dfeb451116100705780637dfeb451146101ac5780637e609715146101bf57806385f33967146101d25780639c599f8b146101e55780639d3fc35d1461020557600080fd5b80630312b528146100ad5780631ce4ded4146101025780635c3477651461013057806371eb43531461017857806373bb3b0914610199575b600080fd5b6100c06100bb3660046123d1565b610218565b604080519889526020890197909752958701949094526060860192909252608085015260a084015260c0830152151560e0820152610100015b60405180910390f35b610115610110366004612404565b610725565b604080519384526020840192909252908201526060016100f9565b61014361013e366004612440565b610744565b604080519788526020880196909652948601939093526060850191909152608084015260a083015260c082015260e0016100f9565b61018b61018636600461246c565b610868565b6040519081526020016100f9565b6101156101a7366004612440565b610dc8565b61018b6101ba36600461246c565b610e83565b6101156101cd366004612404565b61134c565b61018b6101e0366004612440565b61135c565b8180156101f157600080fd5b5061018b610200366004612498565b61151c565b610115610213366004612440565b611903565b600080600080600080600080600061022e6119b6565b60040160008d6001600160a01b03166001600160a01b0316815260200190815260200160002090506102926040518060c001604052806060815260200160008019168152602001606081526020016060815260200160008152602001600081525090565b61029a6119da565b6001600160a01b0316633f90a08e6102b1846119f7565b6040518263ffffffff1660e01b81526004016102cd9190612503565b60006040518083038186803b1580156102e557600080fd5b505afa1580156102f9573d6000803e3d6000fd5b505050506040513d6000823e601f3d908101601f1916820160405261032191908101906125b2565b8152608081018b905260005b61033683611a08565b811015610707576103478382611a12565b602083015260408051600780825261010082019092529081602001602082028036833750505060408301526020820151610381908f610744565b886040015160008151811061039857610398612657565b6020026020010189604001516001815181106103b6576103b6612657565b602002602001018a604001516002815181106103d4576103d4612657565b602002602001018b604001516003815181106103f2576103f2612657565b602002602001018c6040015160048151811061041057610410612657565b602002602001018d6040015160058151811061042e5761042e612657565b602002602001018e6040015160068151811061044c5761044c612657565b6020908102919091018101979097529690965295909452949093529390529290529190528201518d141561050b57816040015160068151811061049157610491612657565b6020026020010151826080018181516104aa9190612683565b9052506040820151805160039081106104c5576104c5612657565b602002602001015182604001516000815181106104e4576104e4612657565b60200260200101516104f69190612683565b8260a0018181516105079190612683565b9052505b610513611a25565b6001600160a01b031663939fe622836020015184604001516040518363ffffffff1660e01b815260040161054892919061269b565b60006040518083038186803b15801561056057600080fd5b505afa158015610574573d6000803e3d6000fd5b505050506040513d6000823e601f3d908101601f1916820160405261059c91908101906126e9565b6060830181905280516000906105b4576105b4612657565b60200260200101518b6105c79190612683565b9a5081606001516001815181106105e0576105e0612657565b60200260200101518a6105f39190612683565b9950816060015160028151811061060c5761060c612657565b60200260200101518961061f9190612683565b9850816060015160048151811061063857610638612657565b60200260200101518761064b9190612683565b9650816060015160058151811061066457610664612657565b6020026020010151866106779190612683565b95508160000151818151811061068f5761068f612657565b6020026020010151156106f55781606001516003815181106106b3576106b3612657565b6020026020010151886106c69190612683565b975081606001516006815181106106df576106df612657565b6020026020010151856106f29190612683565b94505b806106ff8161276f565b91505061032d565b508060a0015181608001511015925050509397509397509397509397565b6000806000610735868686611a45565b92509250925093509350939050565b60008060008060008060006107598989610dc8565b9198509650935061076a8989611903565b8897509194509250905060006107808a8a611b04565b90506000811261079b576107948188612683565b96506107b1565b6107a48161278a565b6107ae9084612683565b92505b861561085b5760006107c1611a25565b6001600160a01b0316639abdb38a8c6040518263ffffffff1660e01b81526004016107ee91815260200190565b60206040518083038186803b15801561080657600080fd5b505afa15801561081a573d6000803e3d6000fd5b505050506040513d601f19601f8201168201806040525081019061083e91906127a7565b905061271061084d828a6127c0565b61085791906127f5565b9650505b5092959891949750929550565b6000806108736119b6565b6000868152600291909101602090815260408083208784529091528120546001600160a01b031691506108a46119b6565b60008781526020919091526040812080549091906108c4576108c4612657565b60009182526020822001546001600160a01b0384811691161491505b6108e86119b6565b60008881526020919091526040902054811015610c705760006109096119b6565b60008981526020919091526040902080548390811061092a5761092a612657565b60009182526020808320909101546040805163e16695b560e01b815290516001600160a01b039092169450849263e16695b592600480840193829003018186803b15801561097757600080fd5b505afa15801561098b573d6000803e3d6000fd5b505050506040513d601f19601f820116820180604052508101906109af91906127a7565b905083806109ce5750846001600160a01b0316826001600160a01b0316145b15610c5b576000806109de6119b6565b60008c8152600191909101602090815260408083206001600160a01b03888116855292529182902054915163070da1af60e11b81528b82166004820152911690630e1b435e90602401604080518083038186803b158015610a3e57600080fd5b505afa158015610a52573d6000803e3d6000fd5b505050506040513d601f19601f82011682018060405250810190610a769190612809565b91509150858015610a8f5750841580610a8f5750808314155b80610aa2575085158015610aa257508083145b15610ac057610ab38b828487611d38565b610abd908961282d565b97505b604051631c7b209b60e31b81526001600160a01b038a81166004830152600091829187169063e3d904d89060240160806040518083038186803b158015610b0657600080fd5b505afa158015610b1a573d6000803e3d6000fd5b505050506040513d601f19601f82011682018060405250810190610b3e919061286e565b935093505050878015610b595750861580610b595750808514155b80610b6c575087158015610b6c57508085145b15610b8a57610b7d8d828489611d38565b610b87908b6128a4565b99505b6040516339f7dda360e21b81526001600160a01b038c81166004830152600091829189169063e7df768c9060240160806040518083038186803b158015610bd057600080fd5b505afa158015610be4573d6000803e3d6000fd5b505050506040513d601f19601f82011682018060405250810190610c08919061286e565b935093505050898015610c235750881580610c235750808714155b80610c36575089158015610c3657508087145b15610c5457610c478f82848b611d38565b610c51908d61282d565b9b505b5050505050505b50508080610c689061276f565b9150506108e0565b508015610dbf57610db2610c82611fa3565b60405163c3e7a7ad60e01b8152600481018990526001600160a01b038781166024830152919091169063c3e7a7ad9060440160206040518083038186803b158015610ccc57600080fd5b505afa158015610ce0573d6000803e3d6000fd5b505050506040513d601f19601f82011682018060405250810190610d0491906127a7565b610d0c6119b6565b6000898152602091909152604081208054909190610d2c57610d2c612657565b60009182526020918290200154604080516371613c2d60e01b815290516001600160a01b03909216926371613c2d92600480840193829003018186803b158015610d7557600080fd5b505afa158015610d89573d6000803e3d6000fd5b505050506040513d601f19601f82011682018060405250810190610dad91906127a7565b611fc2565b610dbc908461282d565b92505b50509392505050565b60008080805b610dd66119b6565b60008781526020919091526040902054811015610e7b576000806000610e3a89610dfe6119b6565b60008c815260209190915260409020805487908110610e1f57610e1f612657565b6000918252602090912001546001600160a01b03168a611fdb565b91945092509050610e4b8388612683565b9650610e578287612683565b9550610e638186612683565b94505050508080610e739061276f565b915050610dce565b509250925092565b600080610e8e6119b6565b6000868152600291909101602090815260408083208784529091528120546001600160a01b03169150610ebf6119b6565b6000878152602091909152604081208054909190610edf57610edf612657565b60009182526020822001546001600160a01b0384811691161491505b610f036119b6565b600088815260209190915260409020548110156112bb576000610f246119b6565b600089815260209190915260409020805483908110610f4557610f45612657565b60009182526020808320909101546040805163e16695b560e01b815290516001600160a01b039092169450849263e16695b592600480840193829003018186803b158015610f9257600080fd5b505afa158015610fa6573d6000803e3d6000fd5b505050506040513d601f19601f82011682018060405250810190610fca91906127a7565b90508380610fe95750846001600160a01b0316826001600160a01b0316145b156112a657600080610ff96119b6565b60008c8152600191909101602090815260408083206001600160a01b03888116855292529182902054915163070da1af60e11b81528b82166004820152911690630e1b435e90602401604080518083038186803b15801561105957600080fd5b505afa15801561106d573d6000803e3d6000fd5b505050506040513d601f19601f820116820180604052508101906110919190612809565b915091508580156110aa57508415806110aa5750808314155b156110cc576110bb8b828487612021565b6110c5908961282d565b97506110eb565b851580156110d957508083145b156110eb576110e8828961282d565b97505b604051631c7b209b60e31b81526001600160a01b038a81166004830152600091829187169063e3d904d89060240160806040518083038186803b15801561113157600080fd5b505afa158015611145573d6000803e3d6000fd5b505050506040513d601f19601f82011682018060405250810190611169919061286e565b93509350505087801561118457508615806111845750808514155b156111a6576111958d828489612021565b61119f908b6128a4565b99506111c5565b871580156111b357508085145b156111c5576111c2828b6128a4565b99505b6040516339f7dda360e21b81526001600160a01b038c81166004830152600091829189169063e7df768c9060240160806040518083038186803b15801561120b57600080fd5b505afa15801561121f573d6000803e3d6000fd5b505050506040513d601f19601f82011682018060405250810190611243919061286e565b93509350505089801561125e575088158061125e5750808714155b156112805761126f8f82848b612021565b611279908d61282d565b9b5061129f565b8915801561128d57508087145b1561129f5761129c828d61282d565b9b505b5050505050505b505080806112b39061276f565b915050610efb565b508015610dbf576112ca611fa3565b60405163c3e7a7ad60e01b8152600481018890526001600160a01b038681166024830152919091169063c3e7a7ad9060440160206040518083038186803b15801561131457600080fd5b505afa158015611328573d6000803e3d6000fd5b505050506040513d601f19601f82011682018060405250810190610db291906127a7565b6000806000610735868686611fdb565b60006113688383611b04565b905060005b6113756119b6565b600085815260209190915260409020548110156115155760006113966119b6565b6000868152602091909152604090208054839081106113b7576113b7612657565b6000918252602082200154604051631c7b209b60e31b81526001600160a01b03878116600483015290911692508190839063e3d904d89060240160806040518083038186803b15801561140957600080fd5b505afa15801561141d573d6000803e3d6000fd5b505050506040513d601f19601f82011682018060405250810190611441919061286e565b93509350505061145387828486611d38565b61145d90866128a4565b6040516339f7dda360e21b81526001600160a01b03888116600483015291965060009182919086169063e7df768c9060240160806040518083038186803b1580156114a757600080fd5b505afa1580156114bb573d6000803e3d6000fd5b505050506040513d601f19601f820116820180604052508101906114df919061286e565b9350935050506114f189828488611d38565b6114fb908861282d565b96505050505050808061150d9061276f565b91505061136d565b5092915050565b60006115496040518060800160405280600081526020016000815260200160008152602001600081525090565b60006115536119da565b60405163afe8efcf60e01b81526001600160a01b038a81166004830152919091169063afe8efcf9060240160206040518083038186803b15801561159657600080fd5b505afa1580156115aa573d6000803e3d6000fd5b505050506040513d601f19601f820116820180604052508101906115ce91906127a7565b9050806116225760405162461bcd60e51b815260206004820152601a60248201527f557365722068617320656e6f75676820636f6c6c61746572616c00000000000060448201526064015b60405180910390fd5b600061162f87878b610e83565b9050600081126116815760405162461bcd60e51b815260206004820181905260248201527f4e6f206465627420696e207468652073656c6563746564206d617475726974796044820152606401611619565b61168a8161278a565b83526116ce878761169a8461278a565b6116a26119b6565b60008c8152600291909101602090815260408083208d84529091529020546001600160a01b0316611d38565b60208401526116db611a25565b6040516306d062ad60e01b815260048101899052602481018490526001600160a01b0391909116906306d062ad9060440160206040518083038186803b15801561172457600080fd5b505afa158015611738573d6000803e3d6000fd5b505050506040513d601f19601f8201168201806040525081019061175c91906127a7565b6060840181905260208401511061177757826060015161177d565b82602001515b606084015261178a6119b6565b6000888152600291909101602090815260408083208984529091528082205485519151631e007d1d60e01b81526001600160a01b0390911692631e007d1d926117d5926004016128e3565b60206040518083038186803b1580156117ed57600080fd5b505afa158015611801573d6000803e3d6000fd5b505050506040513d601f19601f8201168201806040525081019061182591906127a7565b60408401819052606084015111611840578260600151611846565b82604001515b93506118506119da565b604051634092caff60e01b81526001600160a01b038c811660048301528b81166024830152604482018b9052606482018a90526084820187905262ffffff881660a48301529190911690634092caff9060c401602060405180830381600087803b1580156118bd57600080fd5b505af11580156118d1573d6000803e3d6000fd5b505050506040513d601f19601f820116820180604052508101906118f591906127a7565b9a9950505050505050505050565b60008080805b6119116119b6565b60008781526020919091526040902054811015610e7b576000806000611975896119396119b6565b60008c81526020919091526040902080548790811061195a5761195a612657565b6000918252602090912001546001600160a01b03168a611a45565b919450925090506119868388612683565b96506119928287612683565b955061199e8186612683565b945050505080806119ae9061276f565b915050611909565b7f8041b8421ebd495cc61f38c788c9eb100daccf9bd36aa0bb920b7a15b2e0496590565b60006119f269151bdad95b95985d5b1d60b21b61229e565b905090565b6060611a028261232f565b92915050565b6000611a02825490565b6000611a1e838361238b565b9392505050565b60006119f27121bab93932b731bca1b7b73a3937b63632b960711b61229e565b6000806000806000806000886001600160a01b031663e3d904d8896040518263ffffffff1660e01b8152600401611a8b91906001600160a01b0391909116815260200190565b60806040518083038186803b158015611aa357600080fd5b505afa158015611ab7573d6000803e3d6000fd5b505050506040513d601f19601f82011682018060405250810190611adb919061286e565b9350935093509350839650611af28a82848c611d38565b95508294505050505093509350939050565b6000805b611b106119b6565b60008581526020919091526040902054811015611c78576000611b316119b6565b600086815260209190915260409020805483908110611b5257611b52612657565b60009182526020822001546001600160a01b0316915080611b716119b6565b6000888152600191909101602090815260408083206001600160a01b03878116855292529182902054915163070da1af60e11b81528882166004820152911690630e1b435e90602401604080518083038186803b158015611bd157600080fd5b505afa158015611be5573d6000803e3d6000fd5b505050506040513d601f19601f82011682018060405250810190611c099190612809565b91509150611c56878284611c1b6119b6565b60008c815260209190915260409020805489908110611c3c57611c3c612657565b6000918252602090912001546001600160a01b0316611d38565b611c60908661282d565b94505050508080611c709061276f565b915050611b08565b50611d2e611c84611fa3565b60405163c3e7a7ad60e01b8152600481018690526001600160a01b038581166024830152919091169063c3e7a7ad9060440160206040518083038186803b158015611cce57600080fd5b505afa158015611ce2573d6000803e3d6000fd5b505050506040513d601f19601f82011682018060405250810190611d0691906127a7565b611d0e6119b6565b6000868152602091909152604081208054909190610d2c57610d2c612657565b611a1e908261282d565b600080611d43611fa3565b6040516302b6878160e11b815260048101889052602481018790526001600160a01b03919091169063056d0f029060440160806040518083038186803b158015611d8c57600080fd5b505afa158015611da0573d6000803e3d6000fd5b505050506040513d601f19601f82011682018060405250810190611dc4919061290f565b60200151905060008082611e4d57859150846001600160a01b03166371613c2d6040518163ffffffff1660e01b815260040160206040518083038186803b158015611e0e57600080fd5b505afa158015611e22573d6000803e3d6000fd5b505050506040513d601f19601f82011682018060405250810190611e4691906127a7565b9050611f8b565b611e55611fa3565b60405163aab8a1b360e01b8152600481018a905260248101899052604481018890526001600160a01b03919091169063aab8a1b39060640160206040518083038186803b158015611ea557600080fd5b505afa158015611eb9573d6000803e3d6000fd5b505050506040513d601f19601f82011682018060405250810190611edd91906127a7565b9150611ee76119b6565b6000898152602091909152604081208054909190611f0757611f07612657565b60009182526020918290200154604080516371613c2d60e01b815290516001600160a01b03909216926371613c2d92600480840193829003018186803b158015611f5057600080fd5b505afa158015611f64573d6000803e3d6000fd5b505050506040513d601f19601f82011682018060405250810190611f8891906127a7565b90505b611f958282611fc2565b93505050505b949350505050565b60006119f27011d95b995cda5cd5985b1d5955985d5b1d607a1b61229e565b6000612710611fd18385612975565b611a1e91906129fa565b6000806000806000806000886001600160a01b031663e7df768c896040518263ffffffff1660e01b8152600401611a8b91906001600160a01b0391909116815260200190565b600061202b611fa3565b6040516302b6878160e11b815260048101879052602481018690526001600160a01b03919091169063056d0f029060440160806040518083038186803b15801561207457600080fd5b505afa158015612088573d6000803e3d6000fd5b505050506040513d601f19601f820116820180604052508101906120ac919061290f565b60200151612205576000826001600160a01b03166371613c2d6040518163ffffffff1660e01b815260040160206040518083038186803b1580156120ef57600080fd5b505afa158015612103573d6000803e3d6000fd5b505050506040513d601f19601f8201168201806040525081019061212791906127a7565b905060006121358583611fc2565b905060006121416119b6565b600089815260209190915260408120805490919061216157612161612657565b60009182526020918290200154604080516371613c2d60e01b815290516001600160a01b03909216926371613c2d92600480840193829003018186803b1580156121aa57600080fd5b505afa1580156121be573d6000803e3d6000fd5b505050506040513d601f19601f820116820180604052508101906121e291906127a7565b9050806121f161271084612975565b6121fb91906129fa565b9350505050611f9b565b61220d611fa3565b60405163aab8a1b360e01b81526004810187905260248101869052604481018590526001600160a01b03919091169063aab8a1b39060640160206040518083038186803b15801561225d57600080fd5b505afa158015612271573d6000803e3d6000fd5b505050506040513d601f19601f8201168201806040525081019061229591906127a7565b95945050505050565b60008181527f4abde63c3e81aefa5764b017968bc473e83e093d7e1a10247d19e0a3e41240196020908152604080832054815170026b4b9b9b4b7339030b2323932b9b99d1607d1b9381019390935260318084018690528251808503909101815260519093019091526001600160a01b031690816115155760405162461bcd60e51b81526004016116199190612a28565b60608160000180548060200260200160405190810160405280929190818152602001828054801561237f57602002820191906000526020600020905b81548152602001906001019080831161236b575b50505050509050919050565b60008260000182815481106123a2576123a2612657565b9060005260206000200154905092915050565b80356001600160a01b03811681146123cc57600080fd5b919050565b6000806000606084860312156123e657600080fd5b6123ef846123b5565b95602085013595506040909401359392505050565b60008060006060848603121561241957600080fd5b83359250612429602085016123b5565b9150612437604085016123b5565b90509250925092565b6000806040838503121561245357600080fd5b82359150612463602084016123b5565b90509250929050565b60008060006060848603121561248157600080fd5b8335925060208401359150612437604085016123b5565b60008060008060008060c087890312156124b157600080fd5b6124ba876123b5565b95506124c8602088016123b5565b945060408701359350606087013592506080870135915060a087013562ffffff811681146124f557600080fd5b809150509295509295509295565b6020808252825182820181905260009190848201906040850190845b8181101561253b5783518352928401929184019160010161251f565b50909695505050505050565b634e487b7160e01b600052604160045260246000fd5b604051601f8201601f1916810167ffffffffffffffff8111828210171561258657612586612547565b604052919050565b600067ffffffffffffffff8211156125a8576125a8612547565b5060051b60200190565b600060208083850312156125c557600080fd5b825167ffffffffffffffff8111156125dc57600080fd5b8301601f810185136125ed57600080fd5b80516126006125fb8261258e565b61255d565b81815260059190911b8201830190838101908783111561261f57600080fd5b928401925b8284101561264c578351801515811461263d5760008081fd5b82529284019290840190612624565b979650505050505050565b634e487b7160e01b600052603260045260246000fd5b634e487b7160e01b600052601160045260246000fd5b600082198211156126965761269661266d565b500190565b6000604082018483526020604081850152818551808452606086019150828701935060005b818110156126dc578451835293830193918301916001016126c0565b5090979650505050505050565b600060208083850312156126fc57600080fd5b825167ffffffffffffffff81111561271357600080fd5b8301601f8101851361272457600080fd5b80516127326125fb8261258e565b81815260059190911b8201830190838101908783111561275157600080fd5b928401925b8284101561264c57835182529284019290840190612756565b60006000198214156127835761278361266d565b5060010190565b6000600160ff1b8214156127a0576127a061266d565b5060000390565b6000602082840312156127b957600080fd5b5051919050565b60008160001904831182151516156127da576127da61266d565b500290565b634e487b7160e01b600052601260045260246000fd5b600082612804576128046127df565b500490565b6000806040838503121561281c57600080fd5b505080516020909101519092909150565b600080821280156001600160ff1b038490038513161561284f5761284f61266d565b600160ff1b83900384128116156128685761286861266d565b50500190565b6000806000806080858703121561288457600080fd5b505082516020840151604085015160609095015191969095509092509050565b60008083128015600160ff1b8501841216156128c2576128c261266d565b6001600160ff1b03840183138116156128dd576128dd61266d565b50500390565b604081016002841061290557634e487b7160e01b600052602160045260246000fd5b9281526020015290565b60006080828403121561292157600080fd5b6040516080810181811067ffffffffffffffff8211171561294457612944612547565b8060405250825181526020830151602082015260408301516040820152606083015160608201528091505092915050565b60006001600160ff1b038184138284138082168684048611161561299b5761299b61266d565b600160ff1b60008712828116878305891216156129ba576129ba61266d565b600087129250878205871284841616156129d6576129d661266d565b878505871281841616156129ec576129ec61266d565b505050929093029392505050565b600082612a0957612a096127df565b600160ff1b821460001984141615612a2357612a2361266d565b500590565b600060208083528351808285015260005b81811015612a5557858101830151858201604001528201612a39565b81811115612a67576000604083870101525b50601f01601f191692909201604001939250505056fea2646970667358221220a9a53bbef080856b5de16303d6a1d4681d1df2a682078843fef4efb9f86a75f764736f6c63430008090033",
  "devdoc": {
    "kind": "dev",
    "methods": {},
    "version": 1
  },
  "userdoc": {
    "kind": "user",
    "methods": {},
    "version": 1
  },
  "storageLayout": {
    "storage": [],
    "types": null
  }
}