{
  "address": "0x339816EFd6D7280188203575c11eD848a76AD45E",
  "abi": [
    {
      "inputs": [
        {
          "internalType": "bytes32",
          "name": "_ccy",
          "type": "bytes32"
        },
        {
          "internalType": "uint256",
          "name": "_maturity",
          "type": "uint256"
        },
        {
          "internalType": "address",
          "name": "_user",
          "type": "address"
        }
      ],
      "name": "calculateActualPresentValue",
      "outputs": [
        {
          "internalType": "int256",
          "name": "presentValue",
          "type": "int256"
        }
      ],
      "stateMutability": "view",
      "type": "function"
    },
    {
      "inputs": [
        {
          "internalType": "bytes32",
          "name": "_ccy",
          "type": "bytes32"
        },
        {
          "internalType": "address",
          "name": "_user",
          "type": "address"
        }
      ],
      "name": "calculateActualPresentValue",
      "outputs": [
        {
          "internalType": "int256",
          "name": "totalPresentValue",
          "type": "int256"
        }
      ],
      "stateMutability": "view",
      "type": "function"
    },
    {
      "inputs": [
        {
          "internalType": "bytes32",
          "name": "_ccy",
          "type": "bytes32"
        },
        {
          "internalType": "address",
          "name": "_market",
          "type": "address"
        },
        {
          "internalType": "address",
          "name": "_user",
          "type": "address"
        }
      ],
      "name": "calculateBorrowedFundsFromOrders",
      "outputs": [
        {
          "internalType": "uint256",
          "name": "workingOrdersAmount",
          "type": "uint256"
        },
        {
          "internalType": "uint256",
          "name": "debtAmount",
          "type": "uint256"
        },
        {
          "internalType": "uint256",
          "name": "borrowedAmount",
          "type": "uint256"
        }
      ],
      "stateMutability": "view",
      "type": "function"
    },
    {
      "inputs": [
        {
          "internalType": "bytes32",
          "name": "_ccy",
          "type": "bytes32"
        },
        {
          "internalType": "address",
          "name": "_user",
          "type": "address"
        }
      ],
      "name": "calculateBorrowedFundsFromOrders",
      "outputs": [
        {
          "internalType": "uint256",
          "name": "totalWorkingOrdersAmount",
          "type": "uint256"
        },
        {
          "internalType": "uint256",
          "name": "totalDebtAmount",
          "type": "uint256"
        },
        {
          "internalType": "uint256",
          "name": "totalBorrowedAmount",
          "type": "uint256"
        }
      ],
      "stateMutability": "view",
      "type": "function"
    },
    {
      "inputs": [
        {
          "internalType": "bytes32",
          "name": "_ccy",
          "type": "bytes32"
        },
        {
          "internalType": "address",
          "name": "_user",
          "type": "address"
        }
      ],
      "name": "calculateFunds",
      "outputs": [
        {
          "internalType": "uint256",
          "name": "workingLendOrdersAmount",
          "type": "uint256"
        },
        {
          "internalType": "uint256",
          "name": "claimableAmount",
          "type": "uint256"
        },
        {
          "internalType": "uint256",
          "name": "collateralAmount",
          "type": "uint256"
        },
        {
          "internalType": "uint256",
          "name": "lentAmount",
          "type": "uint256"
        },
        {
          "internalType": "uint256",
          "name": "workingBorrowOrdersAmount",
          "type": "uint256"
        },
        {
          "internalType": "uint256",
          "name": "debtAmount",
          "type": "uint256"
        },
        {
          "internalType": "uint256",
          "name": "borrowedAmount",
          "type": "uint256"
        }
      ],
      "stateMutability": "view",
      "type": "function"
    },
    {
      "inputs": [
        {
          "internalType": "bytes32",
          "name": "_ccy",
          "type": "bytes32"
        },
        {
          "internalType": "address",
          "name": "_user",
          "type": "address"
        }
      ],
      "name": "calculateLentFundsFromOrders",
      "outputs": [
        {
          "internalType": "uint256",
          "name": "totalWorkingOrdersAmount",
          "type": "uint256"
        },
        {
          "internalType": "uint256",
          "name": "totalClaimableAmount",
          "type": "uint256"
        },
        {
          "internalType": "uint256",
          "name": "totalLentAmount",
          "type": "uint256"
        }
      ],
      "stateMutability": "view",
      "type": "function"
    },
    {
      "inputs": [
        {
          "internalType": "bytes32",
          "name": "_ccy",
          "type": "bytes32"
        },
        {
          "internalType": "address",
          "name": "_market",
          "type": "address"
        },
        {
          "internalType": "address",
          "name": "_user",
          "type": "address"
        }
      ],
      "name": "calculateLentFundsFromOrders",
      "outputs": [
        {
          "internalType": "uint256",
          "name": "workingOrdersAmount",
          "type": "uint256"
        },
        {
          "internalType": "uint256",
          "name": "claimableAmount",
          "type": "uint256"
        },
        {
          "internalType": "uint256",
          "name": "lentAmount",
          "type": "uint256"
        }
      ],
      "stateMutability": "view",
      "type": "function"
    },
    {
      "inputs": [
        {
          "internalType": "address",
          "name": "_user",
          "type": "address"
        }
      ],
      "name": "calculateTotalFundsInETH",
      "outputs": [
        {
          "internalType": "uint256",
          "name": "totalWorkingLendOrdersAmount",
          "type": "uint256"
        },
        {
          "internalType": "uint256",
          "name": "totalClaimableAmount",
          "type": "uint256"
        },
        {
          "internalType": "uint256",
          "name": "totalCollateralAmount",
          "type": "uint256"
        },
        {
          "internalType": "uint256",
          "name": "totalLentAmount",
          "type": "uint256"
        },
        {
          "internalType": "uint256",
          "name": "totalWorkingBorrowOrdersAmount",
          "type": "uint256"
        },
        {
          "internalType": "uint256",
          "name": "totalDebtAmount",
          "type": "uint256"
        },
        {
          "internalType": "uint256",
          "name": "totalBorrowedAmount",
          "type": "uint256"
        }
      ],
      "stateMutability": "view",
      "type": "function"
    },
    {
      "inputs": [
        {
          "internalType": "bytes32",
          "name": "_ccy",
          "type": "bytes32"
        },
        {
          "internalType": "uint256",
          "name": "_maturity",
          "type": "uint256"
        },
        {
          "internalType": "address",
          "name": "_user",
          "type": "address"
        }
      ],
      "name": "getFutureValue",
      "outputs": [
        {
          "internalType": "int256",
          "name": "amount",
          "type": "int256"
        },
        {
          "internalType": "uint256",
          "name": "maturity",
          "type": "uint256"
        }
      ],
      "stateMutability": "view",
      "type": "function"
    }
  ],
  "transactionHash": "0x92cb1b176320d05e197e8a426ff5b0a05ab72b48676e1a0ee29d69071beaa7e0",
  "args": [],
  "numDeployments": 1,
  "solcInputHash": "812031abb9c060713bf3d8062f532a78",
  "bytecode": "0x61258661003a600b82828239805160001a60731461002d57634e487b7160e01b600052600060045260246000fd5b30600052607381538281f3fe73000000000000000000000000000000000000000030146080604052600436106100a85760003560e01c806373bb3b091161007057806373bb3b091461017c5780637e6097151461018f57806385f33967146101a25780639d3fc35d146101b5578063e906c100146101c857600080fd5b80631ce4ded4146100ad5780632a69c6fc146100e05780633b22a4741461010e5780635c3477651461015657806371eb435314610169575b600080fd5b6100c06100bb366004611ecb565b6101f0565b604080519384526020840192909252908201526060015b60405180910390f35b8180156100ec57600080fd5b506101006100fb366004611f07565b61020f565b6040519081526020016100d7565b61012161011c366004611f63565b610747565b604080519788526020880196909652948601939093526060850191909152608084015260a083015260c082015260e0016100d7565b610121610164366004611f7e565b610b13565b610100610177366004611faa565b610c3a565b6100c061018a366004611f7e565b61119a565b6100c061019d366004611ecb565b611255565b6101006101b0366004611f7e565b611265565b6100c06101c3366004611f7e565b611425565b6101db6101d6366004611faa565b6114d8565b604080519283526020830191909152016100d7565b600080600061020086868661169a565b92509250925093509350939050565b600061023c6040518060800160405280600081526020016000815260200160008152602001600081525090565b6000610246611759565b60405163afe8efcf60e01b81526001600160a01b038781166004830152919091169063afe8efcf9060240160206040518083038186803b15801561028957600080fd5b505afa15801561029d573d6000803e3d6000fd5b505050506040513d601f19601f820116820180604052508101906102c19190611fd6565b9050806103155760405162461bcd60e51b815260206004820152601a60248201527f557365722068617320656e6f75676820636f6c6c61746572616c00000000000060448201526064015b60405180910390fd5b600061031f611759565b604051630129e6bf60e11b81526001600160a01b038881166004830152602482018c90529190911690630253cd7e9060440160206040518083038186803b15801561036957600080fd5b505afa15801561037d573d6000803e3d6000fd5b505050506040513d601f19601f820116820180604052508101906103a19190611fd6565b9050806103ff5760405162461bcd60e51b815260206004820152602660248201527f4e6f20636f6c6c61746572616c20696e207468652073656c65637465642063756044820152657272656e637960d01b606482015260840161030c565b60008061040d8a8a8a6114d8565b91509150600082126104615760405162461bcd60e51b815260206004820181905260248201527f4e6f206465627420696e207468652073656c6563746564206d61747572697479604482015260640161030c565b8881146104b05760405162461bcd60e51b815260206004820152601a60248201527f4e65656420746f20636c656172206f7264657273206669727374000000000000604482015260640161030c565b6104b982612005565b855261050f8a8a6104c985612005565b6104d1611776565b60020160008f815260200190815260200160002060008e815260200190815260200160002060009054906101000a90046001600160a01b031661179a565b602086015261051c611a98565b6040516306d062ad60e01b8152600481018c9052602481018690526001600160a01b0391909116906306d062ad9060440160206040518083038186803b15801561056557600080fd5b505afa158015610579573d6000803e3d6000fd5b505050506040513d601f19601f8201168201806040525081019061059d9190611fd6565b606086018190526020860151106105b85784606001516105be565b84602001515b60608601526105cb611759565b6060860151604051633655b42b60e01b81526001600160a01b038b81166004830152602482018f9052604482018e905260648201879052608482019290925262ffffff8a1660a4820152911690633655b42b9060c401602060405180830381600087803b15801561063b57600080fd5b505af115801561064f573d6000803e3d6000fd5b505050506040513d601f19601f820116820180604052508101906106739190611fd6565b5061067c611776565b60008b8152600291909101602090815260408083208c84529091528082205487519151631e007d1d60e01b81526001600160a01b0390911692631e007d1d926106c792600401612022565b60206040518083038186803b1580156106df57600080fd5b505afa1580156106f3573d6000803e3d6000fd5b505050506040513d601f19601f820116820180604052508101906107179190611fd6565b60408601819052606086015111610732578460600151610738565b84604001515b9b9a5050505050505050505050565b60008060008060008060008061075b611776565b6001600160a01b038a166000908152600491909101602052604081209150610781611759565b6001600160a01b0316633f90a08e61079884611ab8565b6040518263ffffffff1660e01b81526004016107b4919061204e565b60006040518083038186803b1580156107cc57600080fd5b505afa1580156107e0573d6000803e3d6000fd5b505050506040513d6000823e601f3d908101601f1916820160405261080891908101906120fd565b905060005b61081683611ac9565b811015610b055760006108298483611ad3565b6040805160078082526101008201909252919250600091906020820160e08036833701905050905061085b828e610b13565b8760008151811061086e5761086e6121a2565b6020026020010188600181518110610888576108886121a2565b60200260200101896002815181106108a2576108a26121a2565b602002602001018a6003815181106108bc576108bc6121a2565b602002602001018b6004815181106108d6576108d66121a2565b602002602001018c6005815181106108f0576108f06121a2565b602002602001018d60068151811061090a5761090a6121a2565b60209081029190910101969096529590945294909352939052929052919052526000610934611a98565b6001600160a01b031663939fe62284846040518363ffffffff1660e01b81526004016109619291906121b8565b60006040518083038186803b15801561097957600080fd5b505afa15801561098d573d6000803e3d6000fd5b505050506040513d6000823e601f3d908101601f191682016040526109b59190810190612206565b9050806000815181106109ca576109ca6121a2565b60200260200101518d6109dd919061228c565b9c50806001815181106109f2576109f26121a2565b60200260200101518c610a05919061228c565b9b5080600281518110610a1a57610a1a6121a2565b60200260200101518b610a2d919061228c565b9a5080600481518110610a4257610a426121a2565b602002602001015189610a55919061228c565b985080600581518110610a6a57610a6a6121a2565b602002602001015188610a7d919061228c565b9750848481518110610a9157610a916121a2565b602002602001015115610aef5780600381518110610ab157610ab16121a2565b60200260200101518a610ac4919061228c565b995080600681518110610ad957610ad96121a2565b602002602001015187610aec919061228c565b96505b5050508080610afd906122a4565b91505061080d565b505050919395979092949650565b6000806000806000806000610b28898961119a565b91985096509350610b398989611425565b889750919450925090506000610b4f8a8a611ae6565b905060008112610c1757610b63818861228c565b96506000610b6f611a98565b6001600160a01b0316639abdb38a8c6040518263ffffffff1660e01b8152600401610b9c91815260200190565b60206040518083038186803b158015610bb457600080fd5b505afa158015610bc8573d6000803e3d6000fd5b505050506040513d601f19601f82011682018060405250810190610bec9190611fd6565b9050612710610bfb82846122bf565b610c0591906122f4565b610c0f908861228c565b965050610c2d565b610c2081612005565b610c2a908461228c565b92505b5092959891949750929550565b600080610c45611776565b6000868152600291909101602090815260408083208784529091528120546001600160a01b03169150610c76611776565b6000878152602091909152604081208054909190610c9657610c966121a2565b60009182526020822001546001600160a01b0384811691161491505b610cba611776565b60008881526020919091526040902054811015611042576000610cdb611776565b600089815260209190915260409020805483908110610cfc57610cfc6121a2565b60009182526020808320909101546040805163e16695b560e01b815290516001600160a01b039092169450849263e16695b592600480840193829003018186803b158015610d4957600080fd5b505afa158015610d5d573d6000803e3d6000fd5b505050506040513d601f19601f82011682018060405250810190610d819190611fd6565b90508380610da05750846001600160a01b0316826001600160a01b0316145b1561102d57600080610db0611776565b60008c8152600191909101602090815260408083206001600160a01b03888116855292529182902054915163070da1af60e11b81528b82166004820152911690630e1b435e90602401604080518083038186803b158015610e1057600080fd5b505afa158015610e24573d6000803e3d6000fd5b505050506040513d601f19601f82011682018060405250810190610e489190612308565b91509150858015610e615750841580610e615750808314155b80610e74575085158015610e7457508083145b15610e9257610e858b82848761179a565b610e8f908961232c565b97505b604051631c7b209b60e31b81526001600160a01b038a81166004830152600091829187169063e3d904d89060240160806040518083038186803b158015610ed857600080fd5b505afa158015610eec573d6000803e3d6000fd5b505050506040513d601f19601f82011682018060405250810190610f10919061236d565b935093505050878015610f2b5750861580610f2b5750808514155b80610f3e575087158015610f3e57508085145b15610f5c57610f4f8d82848961179a565b610f59908b6123a3565b99505b6040516339f7dda360e21b81526001600160a01b038c81166004830152600091829189169063e7df768c9060240160806040518083038186803b158015610fa257600080fd5b505afa158015610fb6573d6000803e3d6000fd5b505050506040513d601f19601f82011682018060405250810190610fda919061236d565b935093505050898015610ff55750881580610ff55750808714155b8061100857508915801561100857508087145b15611026576110198f82848b61179a565b611023908d61232c565b9b505b5050505050505b5050808061103a906122a4565b915050610cb2565b50801561119157611184611054611d1a565b60405163c3e7a7ad60e01b8152600481018990526001600160a01b038781166024830152919091169063c3e7a7ad9060440160206040518083038186803b15801561109e57600080fd5b505afa1580156110b2573d6000803e3d6000fd5b505050506040513d601f19601f820116820180604052508101906110d69190611fd6565b6110de611776565b60008981526020919091526040812080549091906110fe576110fe6121a2565b60009182526020918290200154604080516371613c2d60e01b815290516001600160a01b03909216926371613c2d92600480840193829003018186803b15801561114757600080fd5b505afa15801561115b573d6000803e3d6000fd5b505050506040513d601f19601f8201168201806040525081019061117f9190611fd6565b611d39565b61118e908461232c565b92505b50509392505050565b60008080805b6111a8611776565b6000878152602091909152604090205481101561124d57600080600061120c896111d0611776565b60008c8152602091909152604090208054879081106111f1576111f16121a2565b6000918252602090912001546001600160a01b03168a611d52565b9194509250905061121d838861228c565b9650611229828761228c565b9550611235818661228c565b94505050508080611245906122a4565b9150506111a0565b509250925092565b6000806000610200868686611d52565b60006112718383611ae6565b905060005b61127e611776565b6000858152602091909152604090205481101561141e57600061129f611776565b6000868152602091909152604090208054839081106112c0576112c06121a2565b6000918252602082200154604051631c7b209b60e31b81526001600160a01b03878116600483015290911692508190839063e3d904d89060240160806040518083038186803b15801561131257600080fd5b505afa158015611326573d6000803e3d6000fd5b505050506040513d601f19601f8201168201806040525081019061134a919061236d565b93509350505061135c8782848661179a565b61136690866123a3565b6040516339f7dda360e21b81526001600160a01b03888116600483015291965060009182919086169063e7df768c9060240160806040518083038186803b1580156113b057600080fd5b505afa1580156113c4573d6000803e3d6000fd5b505050506040513d601f19601f820116820180604052508101906113e8919061236d565b9350935050506113fa8982848861179a565b611404908861232c565b965050505050508080611416906122a4565b915050611276565b5092915050565b60008080805b611433611776565b6000878152602091909152604090205481101561124d5760008060006114978961145b611776565b60008c81526020919091526040902080548790811061147c5761147c6121a2565b6000918252602090912001546001600160a01b03168a61169a565b919450925090506114a8838861228c565b96506114b4828761228c565b95506114c0818661228c565b945050505080806114d0906122a4565b91505061142b565b60008060006114e5611776565b6000878152600291909101602090815260408083208884529091529020546001600160a01b03169050611516611776565b6000878152600191909101602090815260408083206001600160a01b03858116855292529182902054915163070da1af60e11b81528682166004820152911690630e1b435e90602401604080518083038186803b15801561157657600080fd5b505afa15801561158a573d6000803e3d6000fd5b505050506040513d601f19601f820116820180604052508101906115ae9190612308565b90935091506115bb611776565b60008781526020919091526040812080549091906115db576115db6121a2565b6000918252602090912001546001600160a01b038281169116141561169157611602611d1a565b60405163c3e7a7ad60e01b8152600481018890526001600160a01b038681166024830152919091169063c3e7a7ad9060440160206040518083038186803b15801561164c57600080fd5b505afa158015611660573d6000803e3d6000fd5b505050506040513d601f19601f820116820180604052508101906116849190611fd6565b61168e908461232c565b92505b50935093915050565b6000806000806000806000886001600160a01b031663e3d904d8896040518263ffffffff1660e01b81526004016116e091906001600160a01b0391909116815260200190565b60806040518083038186803b1580156116f857600080fd5b505afa15801561170c573d6000803e3d6000fd5b505050506040513d601f19601f82011682018060405250810190611730919061236d565b93509350935093508396506117478a82848c61179a565b95508294505050505093509350939050565b600061177169151bdad95b95985d5b1d60b21b611d98565b905090565b7f8041b8421ebd495cc61f38c788c9eb100daccf9bd36aa0bb920b7a15b2e0496590565b6000806117a5611d1a565b6040516302b6878160e11b815260048101889052602481018790526001600160a01b03919091169063056d0f029060440160806040518083038186803b1580156117ee57600080fd5b505afa158015611802573d6000803e3d6000fd5b505050506040513d601f19601f8201168201806040525081019061182691906123e2565b602001519050600080826118af57859150846001600160a01b03166371613c2d6040518163ffffffff1660e01b815260040160206040518083038186803b15801561187057600080fd5b505afa158015611884573d6000803e3d6000fd5b505050506040513d601f19601f820116820180604052508101906118a89190611fd6565b9050611a82565b60006118b9611d1a565b604051630c30971960e11b8152600481018b9052602481018a9052604481018990526001600160a01b0391909116906318612e329060640160206040518083038186803b15801561190957600080fd5b505afa15801561191d573d6000803e3d6000fd5b505050506040513d601f19601f820116820180604052508101906119419190611fd6565b905061194b611d1a565b604051637636e94160e01b8152600481018b905260006024820152604481018390526001600160a01b039190911690637636e9419060640160206040518083038186803b15801561199b57600080fd5b505afa1580156119af573d6000803e3d6000fd5b505050506040513d601f19601f820116820180604052508101906119d39190611fd6565b92506119dd611776565b60008a81526020919091526040812080549091906119fd576119fd6121a2565b60009182526020918290200154604080516371613c2d60e01b815290516001600160a01b03909216926371613c2d92600480840193829003018186803b158015611a4657600080fd5b505afa158015611a5a573d6000803e3d6000fd5b505050506040513d601f19601f82011682018060405250810190611a7e9190611fd6565b9150505b611a8c8282611d39565b98975050505050505050565b60006117717121bab93932b731bca1b7b73a3937b63632b960711b611d98565b6060611ac382611e29565b92915050565b6000611ac3825490565b6000611adf8383611e85565b9392505050565b6000805b611af2611776565b60008581526020919091526040902054811015611c5a576000611b13611776565b600086815260209190915260409020805483908110611b3457611b346121a2565b60009182526020822001546001600160a01b0316915080611b53611776565b6000888152600191909101602090815260408083206001600160a01b03878116855292529182902054915163070da1af60e11b81528882166004820152911690630e1b435e90602401604080518083038186803b158015611bb357600080fd5b505afa158015611bc7573d6000803e3d6000fd5b505050506040513d601f19601f82011682018060405250810190611beb9190612308565b91509150611c38878284611bfd611776565b60008c815260209190915260409020805489908110611c1e57611c1e6121a2565b6000918252602090912001546001600160a01b031661179a565b611c42908661232c565b94505050508080611c52906122a4565b915050611aea565b50611d10611c66611d1a565b60405163c3e7a7ad60e01b8152600481018690526001600160a01b038581166024830152919091169063c3e7a7ad9060440160206040518083038186803b158015611cb057600080fd5b505afa158015611cc4573d6000803e3d6000fd5b505050506040513d601f19601f82011682018060405250810190611ce89190611fd6565b611cf0611776565b60008681526020919091526040812080549091906110fe576110fe6121a2565b611adf908261232c565b60006117717011d95b995cda5cd5985b1d5955985d5b1d607a1b611d98565b6000612710611d488385612448565b611adf91906124cd565b6000806000806000806000886001600160a01b031663e7df768c896040518263ffffffff1660e01b81526004016116e091906001600160a01b0391909116815260200190565b60008181527f4abde63c3e81aefa5764b017968bc473e83e093d7e1a10247d19e0a3e41240196020908152604080832054815170026b4b9b9b4b7339030b2323932b9b99d1607d1b9381019390935260318084018690528251808503909101815260519093019091526001600160a01b0316908161141e5760405162461bcd60e51b815260040161030c91906124fb565b606081600001805480602002602001604051908101604052809291908181526020018280548015611e7957602002820191906000526020600020905b815481526020019060010190808311611e65575b50505050509050919050565b6000826000018281548110611e9c57611e9c6121a2565b9060005260206000200154905092915050565b80356001600160a01b0381168114611ec657600080fd5b919050565b600080600060608486031215611ee057600080fd5b83359250611ef060208501611eaf565b9150611efe60408501611eaf565b90509250925092565b600080600080600060a08688031215611f1f57600080fd5b853594506020860135935060408601359250611f3d60608701611eaf565b9150608086013562ffffff81168114611f5557600080fd5b809150509295509295909350565b600060208284031215611f7557600080fd5b611adf82611eaf565b60008060408385031215611f9157600080fd5b82359150611fa160208401611eaf565b90509250929050565b600080600060608486031215611fbf57600080fd5b8335925060208401359150611efe60408501611eaf565b600060208284031215611fe857600080fd5b5051919050565b634e487b7160e01b600052601160045260246000fd5b6000600160ff1b82141561201b5761201b611fef565b5060000390565b604081016002841061204457634e487b7160e01b600052602160045260246000fd5b9281526020015290565b6020808252825182820181905260009190848201906040850190845b818110156120865783518352928401929184019160010161206a565b50909695505050505050565b634e487b7160e01b600052604160045260246000fd5b604051601f8201601f1916810167ffffffffffffffff811182821017156120d1576120d1612092565b604052919050565b600067ffffffffffffffff8211156120f3576120f3612092565b5060051b60200190565b6000602080838503121561211057600080fd5b825167ffffffffffffffff81111561212757600080fd5b8301601f8101851361213857600080fd5b805161214b612146826120d9565b6120a8565b81815260059190911b8201830190838101908783111561216a57600080fd5b928401925b8284101561219757835180151581146121885760008081fd5b8252928401929084019061216f565b979650505050505050565b634e487b7160e01b600052603260045260246000fd5b6000604082018483526020604081850152818551808452606086019150828701935060005b818110156121f9578451835293830193918301916001016121dd565b5090979650505050505050565b6000602080838503121561221957600080fd5b825167ffffffffffffffff81111561223057600080fd5b8301601f8101851361224157600080fd5b805161224f612146826120d9565b81815260059190911b8201830190838101908783111561226e57600080fd5b928401925b8284101561219757835182529284019290840190612273565b6000821982111561229f5761229f611fef565b500190565b60006000198214156122b8576122b8611fef565b5060010190565b60008160001904831182151516156122d9576122d9611fef565b500290565b634e487b7160e01b600052601260045260246000fd5b600082612303576123036122de565b500490565b6000806040838503121561231b57600080fd5b505080516020909101519092909150565b600080821280156001600160ff1b038490038513161561234e5761234e611fef565b600160ff1b839003841281161561236757612367611fef565b50500190565b6000806000806080858703121561238357600080fd5b505082516020840151604085015160609095015191969095509092509050565b60008083128015600160ff1b8501841216156123c1576123c1611fef565b6001600160ff1b03840183138116156123dc576123dc611fef565b50500390565b6000608082840312156123f457600080fd5b6040516080810181811067ffffffffffffffff8211171561241757612417612092565b8060405250825181526020830151602082015260408301516040820152606083015160608201528091505092915050565b60006001600160ff1b038184138284138082168684048611161561246e5761246e611fef565b600160ff1b600087128281168783058912161561248d5761248d611fef565b600087129250878205871284841616156124a9576124a9611fef565b878505871281841616156124bf576124bf611fef565b505050929093029392505050565b6000826124dc576124dc6122de565b600160ff1b8214600019841416156124f6576124f6611fef565b500590565b600060208083528351808285015260005b818110156125285785810183015185820160400152820161250c565b8181111561253a576000604083870101525b50601f01601f191692909201604001939250505056fea2646970667358221220232f89d8b3f5ffc363b0e91f7636c8a5b92c6b55d9cb8025ce675f4d525f86e964736f6c63430008090033",
  "devdoc": {
    "kind": "dev",
    "methods": {},
    "version": 1
  },
  "userdoc": {
    "kind": "user",
    "methods": {},
    "version": 1
  },
  "storageLayout": {
    "storage": [],
    "types": null
  }
}