{
  "address": "0x8f71902672e690218faDF25B15f9dA5Fe174cE67",
  "abi": [
    {
      "anonymous": false,
      "inputs": [
        {
          "indexed": false,
          "internalType": "uint256",
          "name": "previousRate",
          "type": "uint256"
        },
        {
          "indexed": false,
          "internalType": "uint256",
          "name": "ratio",
          "type": "uint256"
        }
      ],
      "name": "UpdateOrderFeeRate",
      "type": "event"
    },
    {
      "inputs": [
        {
          "internalType": "bytes32",
          "name": "_ccy",
          "type": "bytes32"
        },
        {
          "internalType": "uint256",
          "name": "_maturity",
          "type": "uint256"
        },
        {
          "internalType": "address",
          "name": "_user",
          "type": "address"
        }
      ],
      "name": "calculateActualFutureValue",
      "outputs": [
        {
          "internalType": "int256",
          "name": "futureValue",
          "type": "int256"
        }
      ],
      "stateMutability": "view",
      "type": "function"
    },
    {
      "inputs": [
        {
          "internalType": "bytes32",
          "name": "_ccy",
          "type": "bytes32"
        },
        {
          "internalType": "uint256",
          "name": "_maturity",
          "type": "uint256"
        },
        {
          "internalType": "address",
          "name": "_user",
          "type": "address"
        }
      ],
      "name": "calculateActualPresentValue",
      "outputs": [
        {
          "internalType": "int256",
          "name": "presentValue",
          "type": "int256"
        }
      ],
      "stateMutability": "view",
      "type": "function"
    },
    {
      "inputs": [
        {
          "internalType": "bytes32",
          "name": "_ccy",
          "type": "bytes32"
        },
        {
          "internalType": "address",
          "name": "_user",
          "type": "address"
        }
      ],
      "name": "calculateActualPresentValue",
      "outputs": [
        {
          "internalType": "int256",
          "name": "totalPresentValue",
          "type": "int256"
        }
      ],
      "stateMutability": "view",
      "type": "function"
    },
    {
      "inputs": [
        {
          "internalType": "bytes32",
          "name": "_ccy",
          "type": "bytes32"
        },
        {
          "internalType": "address",
          "name": "_market",
          "type": "address"
        },
        {
          "internalType": "address",
          "name": "_user",
          "type": "address"
        }
      ],
      "name": "calculateBorrowedFundsFromOrders",
      "outputs": [
        {
          "internalType": "uint256",
          "name": "workingOrdersAmount",
          "type": "uint256"
        },
        {
          "internalType": "uint256",
          "name": "debtAmount",
          "type": "uint256"
        },
        {
          "internalType": "uint256",
          "name": "borrowedAmount",
          "type": "uint256"
        }
      ],
      "stateMutability": "view",
      "type": "function"
    },
    {
      "inputs": [
        {
          "internalType": "bytes32",
          "name": "_ccy",
          "type": "bytes32"
        },
        {
          "internalType": "address",
          "name": "_user",
          "type": "address"
        }
      ],
      "name": "calculateBorrowedFundsFromOrders",
      "outputs": [
        {
          "internalType": "uint256",
          "name": "totalWorkingOrdersAmount",
          "type": "uint256"
        },
        {
          "internalType": "uint256",
          "name": "totalDebtAmount",
          "type": "uint256"
        },
        {
          "internalType": "uint256",
          "name": "totalBorrowedAmount",
          "type": "uint256"
        }
      ],
      "stateMutability": "view",
      "type": "function"
    },
    {
      "inputs": [
        {
          "internalType": "bytes32",
          "name": "_ccy",
          "type": "bytes32"
        },
        {
          "internalType": "address",
          "name": "_user",
          "type": "address"
        }
      ],
      "name": "calculateFunds",
      "outputs": [
        {
          "internalType": "uint256",
          "name": "workingLendOrdersAmount",
          "type": "uint256"
        },
        {
          "internalType": "uint256",
          "name": "claimableAmount",
          "type": "uint256"
        },
        {
          "internalType": "uint256",
          "name": "collateralAmount",
          "type": "uint256"
        },
        {
          "internalType": "uint256",
          "name": "lentAmount",
          "type": "uint256"
        },
        {
          "internalType": "uint256",
          "name": "workingBorrowOrdersAmount",
          "type": "uint256"
        },
        {
          "internalType": "uint256",
          "name": "debtAmount",
          "type": "uint256"
        },
        {
          "internalType": "uint256",
          "name": "borrowedAmount",
          "type": "uint256"
        }
      ],
      "stateMutability": "view",
      "type": "function"
    },
    {
      "inputs": [
        {
          "internalType": "bytes32",
          "name": "_ccy",
          "type": "bytes32"
        },
        {
          "internalType": "address",
          "name": "_user",
          "type": "address"
        }
      ],
      "name": "calculateLentFundsFromOrders",
      "outputs": [
        {
          "internalType": "uint256",
          "name": "totalWorkingOrdersAmount",
          "type": "uint256"
        },
        {
          "internalType": "uint256",
          "name": "totalClaimableAmount",
          "type": "uint256"
        },
        {
          "internalType": "uint256",
          "name": "totalLentAmount",
          "type": "uint256"
        }
      ],
      "stateMutability": "view",
      "type": "function"
    },
    {
      "inputs": [
        {
          "internalType": "bytes32",
          "name": "_ccy",
          "type": "bytes32"
        },
        {
          "internalType": "address",
          "name": "_market",
          "type": "address"
        },
        {
          "internalType": "address",
          "name": "_user",
          "type": "address"
        }
      ],
      "name": "calculateLentFundsFromOrders",
      "outputs": [
        {
          "internalType": "uint256",
          "name": "workingOrdersAmount",
          "type": "uint256"
        },
        {
          "internalType": "uint256",
          "name": "claimableAmount",
          "type": "uint256"
        },
        {
          "internalType": "uint256",
          "name": "lentAmount",
          "type": "uint256"
        }
      ],
      "stateMutability": "view",
      "type": "function"
    },
    {
      "inputs": [
        {
          "internalType": "bytes32",
          "name": "_ccy",
          "type": "bytes32"
        },
        {
          "internalType": "uint256",
          "name": "_amount",
          "type": "uint256"
        },
        {
          "internalType": "uint256",
          "name": "_maturity",
          "type": "uint256"
        }
      ],
      "name": "calculateOrderFeeAmount",
      "outputs": [
        {
          "internalType": "uint256",
          "name": "orderFeeAmount",
          "type": "uint256"
        }
      ],
      "stateMutability": "view",
      "type": "function"
    },
    {
      "inputs": [
        {
          "internalType": "address",
          "name": "_user",
          "type": "address"
        },
        {
          "internalType": "bytes32",
          "name": "_depositCcy",
          "type": "bytes32"
        },
        {
          "internalType": "uint256",
          "name": "_depositAmount",
          "type": "uint256"
        }
      ],
      "name": "calculateTotalFundsInETH",
      "outputs": [
        {
          "internalType": "uint256",
          "name": "totalWorkingLendOrdersAmount",
          "type": "uint256"
        },
        {
          "internalType": "uint256",
          "name": "totalClaimableAmount",
          "type": "uint256"
        },
        {
          "internalType": "uint256",
          "name": "totalCollateralAmount",
          "type": "uint256"
        },
        {
          "internalType": "uint256",
          "name": "totalLentAmount",
          "type": "uint256"
        },
        {
          "internalType": "uint256",
          "name": "totalWorkingBorrowOrdersAmount",
          "type": "uint256"
        },
        {
          "internalType": "uint256",
          "name": "totalDebtAmount",
          "type": "uint256"
        },
        {
          "internalType": "uint256",
          "name": "totalBorrowedAmount",
          "type": "uint256"
        },
        {
          "internalType": "bool",
          "name": "isEnoughDeposit",
          "type": "bool"
        }
      ],
      "stateMutability": "view",
      "type": "function"
    }
  ],
  "transactionHash": "0x46e5a6777fa735816d55ae18578403a6abcdbc88bea7c01349d47e6d904e06c7",
  "args": [],
  "numDeployments": 2,
  "solcInputHash": "c219ed6b9dbfbd1676a0dacd801eed49",
  "bytecode": "0x61370761003a600b82828239805160001a60731461002d57634e487b7160e01b600052600060045260246000fd5b30600052607381538281f3fe73000000000000000000000000000000000000000030146080604052600436106100b35760003560e01c80637dfeb4511161007b5780637dfeb451146101b75780637e609715146101ca57806385f33967146101dd5780638ba14e38146101f05780639c599f8b146102035780639d3fc35d1461023857600080fd5b80630312b528146100b85780631ce4ded41461010d5780635c3477651461013b57806371eb43531461018357806373bb3b09146101a4575b600080fd5b6100cb6100c6366004612fbf565b61024b565b604080519889526020890197909752958701949094526060860192909252608085015260a084015260c0830152151560e0820152610100015b60405180910390f35b61012061011b366004612ff2565b61075a565b60408051938452602084019290925290820152606001610104565b61014e61014936600461302e565b610779565b604080519788526020880196909652948601939093526060850191909152608084015260a083015260c082015260e001610104565b61019661019136600461305a565b6108ad565b604051908152602001610104565b6101206101b236600461302e565b610e1d565b6101966101c536600461305a565b610ed8565b6101206101d8366004612ff2565b61138d565b6101966101eb36600461302e565b61139d565b6101966101fe366004613086565b61156d565b81801561020f57600080fd5b5061022361021e3660046130b2565b611611565b60408051928352602083019190915201610104565b61012061024636600461302e565b611d18565b6000806000806000806000806000610261611dcb565b60040160008d6001600160a01b03166001600160a01b0316815260200190815260200160002090506102c56040518060c001604052806060815260200160008019168152602001606081526020016060815260200160008152602001600081525090565b6102cd611def565b6001600160a01b0316633f90a08e6102e484611e0c565b6040518263ffffffff1660e01b8152600401610300919061311d565b60006040518083038186803b15801561031857600080fd5b505afa15801561032c573d6000803e3d6000fd5b505050506040513d6000823e601f3d908101601f1916820160405261035491908101906131dc565b8152608081018b905260005b61036983611e1d565b81101561073c5761037a8382611e27565b6020830152604080516007808252610100820190925290816020016020820280368337505050604083015260208201516103b4908f610779565b88604001516000815181106103cb576103cb613279565b6020026020010189604001516001815181106103e9576103e9613279565b602002602001018a6040015160028151811061040757610407613279565b602002602001018b6040015160038151811061042557610425613279565b602002602001018c6040015160048151811061044357610443613279565b602002602001018d6040015160058151811061046157610461613279565b602002602001018e6040015160068151811061047f5761047f613279565b6020908102919091018101979097529690965295909452949093529390529290529190528201518d141561053e5781604001516006815181106104c4576104c4613279565b6020026020010151826080018181516104dd91906132a5565b9052506040820151805160039081106104f8576104f8613279565b6020026020010151826040015160008151811061051757610517613279565b602002602001015161052991906132a5565b8260a00181815161053a91906132a5565b9052505b610546611e3a565b6001600160a01b031663939fe622836020015184604001516040518363ffffffff1660e01b815260040161057b9291906132bd565b60006040518083038186803b15801561059357600080fd5b505afa1580156105a7573d6000803e3d6000fd5b505050506040513d6000823e601f3d908101601f191682016040526105cf919081019061330b565b60608301819052805160019081106105e9576105e9613279565b60200260200101518a6105fc91906132a5565b9950816060015160028151811061061557610615613279565b60200260200101518961062891906132a5565b9850816060015160048151811061064157610641613279565b60200260200101518761065491906132a5565b9650816060015160058151811061066d5761066d613279565b60200260200101518661068091906132a5565b95508160000151818151811061069857610698613279565b60200260200101511561072a5781606001516000815181106106bc576106bc613279565b60200260200101518b6106cf91906132a5565b9a5081606001516003815181106106e8576106e8613279565b6020026020010151886106fb91906132a5565b9750816060015160068151811061071457610714613279565b60200260200101518561072791906132a5565b94505b8061073481613391565b915050610360565b508060a0015181608001511015925050509397509397509397509397565b600080600061076a868686611e5a565b92509250925093509350939050565b600080600080600080600061078e8989610e1d565b9198509650935061079f8989611d18565b8897509194509250905060006107b58a8a611f24565b9050600081126107d9576107c881612158565b6107d290886132a5565b96506107f7565b6107ea6107e5826133ac565b612158565b6107f490846132a5565b92505b86156108a0576000610807611e3a565b6001600160a01b0316639abdb38a8c6040518263ffffffff1660e01b815260040161083491815260200190565b60206040518083038186803b15801561084c57600080fd5b505afa158015610860573d6000803e3d6000fd5b505050506040513d601f19601f8201168201806040525081019061088491906133c9565b905061089c612710610896838b6133e2565b906121ae565b9650505b5092959891949750929550565b6000806108b8611dcb565b6000868152600291909101602090815260408083208784529091528120546001600160a01b031691506108e9611dcb565b600087815260209190915260408120805490919061090957610909613279565b60009182526020822001546001600160a01b0384811691161491505b61092d611dcb565b60008881526020919091526040902054811015610cc557600061094e611dcb565b60008981526020919091526040902080548390811061096f5761096f613279565b60009182526020808320909101546040805163e16695b560e01b815290516001600160a01b039092169450849263e16695b592600480840193829003018186803b1580156109bc57600080fd5b505afa1580156109d0573d6000803e3d6000fd5b505050506040513d601f19601f820116820180604052508101906109f491906133c9565b90508380610a135750846001600160a01b0316826001600160a01b0316145b15610cb057600080610a23611dcb565b60008c8152600191909101602090815260408083206001600160a01b03888116855292529182902054915163070da1af60e11b81528b82166004820152911690630e1b435e90602401604080518083038186803b158015610a8357600080fd5b505afa158015610a97573d6000803e3d6000fd5b505050506040513d601f19601f82011682018060405250810190610abb9190613401565b91509150858015610ad45750841580610ad45750808314155b80610ae7575085158015610ae757508083145b15610b0557610af88b82848761221f565b610b029089613425565b97505b604051631c7b209b60e31b81526001600160a01b038a81166004830152600091829187169063e3d904d89060240160806040518083038186803b158015610b4b57600080fd5b505afa158015610b5f573d6000803e3d6000fd5b505050506040513d601f19601f82011682018060405250810190610b839190613466565b935093505050878015610b9e5750861580610b9e5750808514155b80610bb1575087158015610bb157508085145b15610bd757610bca8d82610bc48561248a565b8961221f565b610bd4908b61349c565b99505b6040516339f7dda360e21b81526001600160a01b038c81166004830152600091829189169063e7df768c9060240160806040518083038186803b158015610c1d57600080fd5b505afa158015610c31573d6000803e3d6000fd5b505050506040513d601f19601f82011682018060405250810190610c559190613466565b935093505050898015610c705750881580610c705750808714155b80610c83575089158015610c8357508087145b15610ca957610c9c8f82610c968561248a565b8b61221f565b610ca6908d613425565b9b505b5050505050505b50508080610cbd90613391565b915050610925565b508015610e1457610e07610cd76124f4565b60405163c3e7a7ad60e01b8152600481018990526001600160a01b038781166024830152919091169063c3e7a7ad9060440160206040518083038186803b158015610d2157600080fd5b505afa158015610d35573d6000803e3d6000fd5b505050506040513d601f19601f82011682018060405250810190610d5991906133c9565b610d61611dcb565b6000898152602091909152604081208054909190610d8157610d81613279565b60009182526020918290200154604080516371613c2d60e01b815290516001600160a01b03909216926371613c2d92600480840193829003018186803b158015610dca57600080fd5b505afa158015610dde573d6000803e3d6000fd5b505050506040513d601f19601f82011682018060405250810190610e0291906133c9565b612513565b610e119084613425565b92505b50509392505050565b60008080805b610e2b611dcb565b60008781526020919091526040902054811015610ed0576000806000610e8f89610e53611dcb565b60008c815260209190915260409020805487908110610e7457610e74613279565b6000918252602090912001546001600160a01b03168a61253c565b91945092509050610ea083886132a5565b9650610eac82876132a5565b9550610eb881866132a5565b94505050508080610ec890613391565b915050610e23565b509250925092565b600080610ee3611dcb565b6000868152600291909101602090815260408083208784529091528120546001600160a01b03169150610f14611dcb565b6000878152602091909152604081208054909190610f3457610f34613279565b60009182526020822001546001600160a01b0384811691161491505b610f58611dcb565b600088815260209190915260409020548110156112fc576000610f79611dcb565b600089815260209190915260409020805483908110610f9a57610f9a613279565b60009182526020808320909101546040805163e16695b560e01b815290516001600160a01b039092169450849263e16695b592600480840193829003018186803b158015610fe757600080fd5b505afa158015610ffb573d6000803e3d6000fd5b505050506040513d601f19601f8201168201806040525081019061101f91906133c9565b9050838061103e5750846001600160a01b0316826001600160a01b0316145b156112e75760008061104e611dcb565b60008c8152600191909101602090815260408083206001600160a01b03888116855292529182902054915163070da1af60e11b81528b82166004820152911690630e1b435e90602401604080518083038186803b1580156110ae57600080fd5b505afa1580156110c2573d6000803e3d6000fd5b505050506040513d601f19601f820116820180604052508101906110e69190613401565b915091508580156110f75750808314155b15611119576111088b828487612582565b6111129089613425565b975061112e565b808a141561112e5761112b8289613425565b97505b604051631c7b209b60e31b81526001600160a01b038a81166004830152600091829187169063e3d904d89060240160806040518083038186803b15801561117457600080fd5b505afa158015611188573d6000803e3d6000fd5b505050506040513d601f19601f820116820180604052508101906111ac9190613466565b9350935050508780156111bf5750808514155b156111e9576111d88d826111d28561248a565b89612582565b6111e2908b61349c565b9950611207565b808c1415611207576111fa8261248a565b611204908b61349c565b99505b6040516339f7dda360e21b81526001600160a01b038c81166004830152600091829189169063e7df768c9060240160806040518083038186803b15801561124d57600080fd5b505afa158015611261573d6000803e3d6000fd5b505050506040513d601f19601f820116820180604052508101906112859190613466565b9350935050508980156112985750808714155b156112c2576112b18f826112ab8561248a565b8b612582565b6112bb908d613425565b9b506112e0565b808e14156112e0576112d38261248a565b6112dd908d613425565b9b505b5050505050505b505080806112f490613391565b915050610f50565b508015610e145761130b6124f4565b60405163c3e7a7ad60e01b8152600481018890526001600160a01b038681166024830152919091169063c3e7a7ad9060440160206040518083038186803b15801561135557600080fd5b505afa158015611369573d6000803e3d6000fd5b505050506040513d601f19601f82011682018060405250810190610e0791906133c9565b600080600061076a86868661253c565b60006113a98383611f24565b905060005b6113b6611dcb565b600085815260209190915260409020548110156115665760006113d7611dcb565b6000868152602091909152604090208054839081106113f8576113f8613279565b6000918252602082200154604051631c7b209b60e31b81526001600160a01b03878116600483015290911692508190839063e3d904d89060240160806040518083038186803b15801561144a57600080fd5b505afa15801561145e573d6000803e3d6000fd5b505050506040513d601f19601f820116820180604052508101906114829190613466565b93509350505061149c87826114968561248a565b8661221f565b6114a6908661349c565b6040516339f7dda360e21b81526001600160a01b03888116600483015291965060009182919086169063e7df768c9060240160806040518083038186803b1580156114f057600080fd5b505afa158015611504573d6000803e3d6000fd5b505050506040513d601f19601f820116820180604052508101906115289190613466565b935093505050611542898261153c8561248a565b8861221f565b61154c9088613425565b96505050505050808061155e90613391565b9150506113ae565b5092915050565b60008142106115b65760405162461bcd60e51b815260206004820152601060248201526f496e76616c6964206d6174757269747960801b60448201526064015b60405180910390fd5b60006115c242846134db565b90506116086115d76127106301e133806133e2565b85836115e1611dcb565b60008a815260069190910160205260409020546115fe91906133e2565b61089691906133e2565b95945050505050565b60008061166560405180610100016040528060006001600160a01b03168152602001600081526020016000815260200160008152602001600081526020016000815260200160008152602001600081525090565b61166d611def565b60405163afe8efcf60e01b81526001600160a01b038a81166004830152919091169063afe8efcf9060240160206040518083038186803b1580156116b057600080fd5b505afa1580156116c4573d6000803e3d6000fd5b505050506040513d601f19601f820116820180604052508101906116e891906133c9565b60a0820181905261173b5760405162461bcd60e51b815260206004820152601a60248201527f557365722068617320656e6f75676820636f6c6c61746572616c00000000000060448201526064016115ad565b61174686868a610ed8565b6060820181905260001361179c5760405162461bcd60e51b815260206004820181905260248201527f4e6f206465627420696e207468652073656c6563746564206d6174757269747960448201526064016115ad565b6117a4611dcb565b6000878152600291909101602090815260408083208884529091529020546001600160a01b0316815260608101516117df906107e5906133ac565b8160200181815250506118056107e5878784606001516117fe906133ac565b855161221f565b6040820152611812611e3a565b6001600160a01b03166306d062ad878360a001516040518363ffffffff1660e01b815260040161184c929190918252602082015260400190565b60206040518083038186803b15801561186457600080fd5b505afa158015611878573d6000803e3d6000fd5b505050506040513d601f19601f8201168201806040525081019061189c91906133c9565b60c082018190526040820151106118b7578060c001516118bd565b80604001515b60c08201526118ca612800565b6001600160a01b031663b187bd266040518163ffffffff1660e01b815260040160206040518083038186803b15801561190257600080fd5b505afa158015611916573d6000803e3d6000fd5b505050506040513d601f19601f8201168201806040525081019061193a91906134f2565b611b8a576000611948611dcb565b600088815260209190915260408120805490919061196857611968613279565b6000918252602090912001546001600160a01b0316611985611dcb565b6000898152600291909101602090815260408083208a84529091529020546001600160a01b03161490508015611b2b57611a6c87876119c2612800565b8c611a676119ce6124f4565b6001600160a01b03166318612e328e8e6119eb8c60c0015161248a565b6040516001600160e01b031960e086901b16815260048101939093526024830191909152604482015260640160206040518083038186803b158015611a2f57600080fd5b505afa158015611a43573d6000803e3d6000fd5b505050506040513d601f19601f820116820180604052508101906107e591906133c9565b612819565b60e0830181905215611b2b57611b286107e58888611a886124f4565b6001600160a01b0316637636e9418c8c611aa58a60e0015161248a565b6040516001600160e01b031960e086901b16815260048101939093526024830191909152604482015260640160206040518083038186803b158015611ae957600080fd5b505afa158015611afd573d6000803e3d6000fd5b505050506040513d601f19601f82011682018060405250810190611b2191906133c9565b865161221f565b92505b6000611b5a8888611b3a612800565b8d611b558d8d8b8b60c00151611b5091906134db565b612ad9565b612b89565b90508015611b8757611b7a6107e58989611b738561248a565b875161221f565b611b8490856132a5565b93505b50505b611b92611dcb565b600087815260029190910160209081526040808320888452825280832054918401519051631e007d1d60e01b81526001600160a01b0390921692631e007d1d92611bdf929060040161350d565b60206040518083038186803b158015611bf757600080fd5b505afa158015611c0b573d6000803e3d6000fd5b505050506040513d601f19601f82011682018060405250810190611c2f91906133c9565b6080820181905260c082015160009110611c4d578160c00151611c53565b81608001515b9050611c5d611def565b60405163ab2a077760e01b81526001600160a01b038c811660048301528b81166024830152604482018b9052606482018a90526084820184905262ffffff881660a483015260c48201869052919091169063ab2a07779060e401602060405180830381600087803b158015611cd157600080fd5b505af1158015611ce5573d6000803e3d6000fd5b505050506040513d601f19601f82011682018060405250810190611d0991906133c9565b93505050965096945050505050565b60008080805b611d26611dcb565b60008781526020919091526040902054811015610ed0576000806000611d8a89611d4e611dcb565b60008c815260209190915260409020805487908110611d6f57611d6f613279565b6000918252602090912001546001600160a01b03168a611e5a565b91945092509050611d9b83886132a5565b9650611da782876132a5565b9550611db381866132a5565b94505050508080611dc390613391565b915050611d1e565b7f8041b8421ebd495cc61f38c788c9eb100daccf9bd36aa0bb920b7a15b2e0496590565b6000611e0769151bdad95b95985d5b1d60b21b612df9565b905090565b6060611e1782612e8a565b92915050565b6000611e17825490565b6000611e338383612ee6565b9392505050565b6000611e077121bab93932b731bca1b7b73a3937b63632b960711b612df9565b6000806000806000806000886001600160a01b031663e3d904d8896040518263ffffffff1660e01b8152600401611ea091906001600160a01b0391909116815260200190565b60806040518083038186803b158015611eb857600080fd5b505afa158015611ecc573d6000803e3d6000fd5b505050506040513d601f19601f82011682018060405250810190611ef09190613466565b9350935093509350839650611f126107e58b83611f0c8661248a565b8d61221f565b95508294505050505093509350939050565b6000805b611f30611dcb565b60008581526020919091526040902054811015612098576000611f51611dcb565b600086815260209190915260409020805483908110611f7257611f72613279565b60009182526020822001546001600160a01b0316915080611f91611dcb565b6000888152600191909101602090815260408083206001600160a01b03878116855292529182902054915163070da1af60e11b81528882166004820152911690630e1b435e90602401604080518083038186803b158015611ff157600080fd5b505afa158015612005573d6000803e3d6000fd5b505050506040513d601f19601f820116820180604052508101906120299190613401565b9150915061207687828461203b611dcb565b60008c81526020919091526040902080548990811061205c5761205c613279565b6000918252602090912001546001600160a01b031661221f565b6120809086613425565b9450505050808061209090613391565b915050611f28565b5061214e6120a46124f4565b60405163c3e7a7ad60e01b8152600481018690526001600160a01b038581166024830152919091169063c3e7a7ad9060440160206040518083038186803b1580156120ee57600080fd5b505afa158015612102573d6000803e3d6000fd5b505050506040513d601f19601f8201168201806040525081019061212691906133c9565b61212e611dcb565b6000868152602091909152604081208054909190610d8157610d81613279565b611e339082613425565b6000808212156121aa5760405162461bcd60e51b815260206004820181905260248201527f53616665436173743a2076616c7565206d75737420626520706f73697469766560448201526064016115ad565b5090565b60008082116121bc57600080fd5b60056121c8838561354f565b6121d390600a6133e2565b836121df86600a6133e2565b6121e9919061354f565b6121f391906134db565b101561220a57612203828461354f565b9050611e17565b612214828461354f565b6122039060016132a5565b60008061222a6124f4565b6040516302b6878160e11b815260048101889052602481018790526001600160a01b03919091169063056d0f029060440160806040518083038186803b15801561227357600080fd5b505afa158015612287573d6000803e3d6000fd5b505050506040513d601f19601f820116820180604052508101906122ab9190613563565b6020015190506000808261233457859150846001600160a01b03166371613c2d6040518163ffffffff1660e01b815260040160206040518083038186803b1580156122f557600080fd5b505afa158015612309573d6000803e3d6000fd5b505050506040513d601f19601f8201168201806040525081019061232d91906133c9565b9050612472565b61233c6124f4565b60405163aab8a1b360e01b8152600481018a905260248101899052604481018890526001600160a01b03919091169063aab8a1b39060640160206040518083038186803b15801561238c57600080fd5b505afa1580156123a0573d6000803e3d6000fd5b505050506040513d601f19601f820116820180604052508101906123c491906133c9565b91506123ce611dcb565b60008981526020919091526040812080549091906123ee576123ee613279565b60009182526020918290200154604080516371613c2d60e01b815290516001600160a01b03909216926371613c2d92600480840193829003018186803b15801561243757600080fd5b505afa15801561244b573d6000803e3d6000fd5b505050506040513d601f19601f8201168201806040525081019061246f91906133c9565b90505b61247c8282612513565b93505050505b949350505050565b60006001600160ff1b038211156121aa5760405162461bcd60e51b815260206004820152602860248201527f53616665436173743a2076616c756520646f65736e27742066697420696e2061604482015267371034b73a191a9b60c11b60648201526084016115ad565b6000611e077011d95b995cda5cd5985b1d5955985d5b1d607a1b612df9565b6000611e3361252361271061248a565b61252c8461248a565b61253690866135c9565b90612f10565b6000806000806000806000886001600160a01b031663e7df768c896040518263ffffffff1660e01b8152600401611ea091906001600160a01b0391909116815260200190565b600061258c6124f4565b6040516302b6878160e11b815260048101879052602481018690526001600160a01b03919091169063056d0f029060440160806040518083038186803b1580156125d557600080fd5b505afa1580156125e9573d6000803e3d6000fd5b505050506040513d601f19601f8201168201806040525081019061260d9190613563565b60200151612770576000826001600160a01b03166371613c2d6040518163ffffffff1660e01b815260040160206040518083038186803b15801561265057600080fd5b505afa158015612664573d6000803e3d6000fd5b505050506040513d601f19601f8201168201806040525081019061268891906133c9565b905060006126968583612513565b905060006126a2611dcb565b60008981526020919091526040812080549091906126c2576126c2613279565b60009182526020918290200154604080516371613c2d60e01b815290516001600160a01b03909216926371613c2d92600480840193829003018186803b15801561270b57600080fd5b505afa15801561271f573d6000803e3d6000fd5b505050506040513d601f19601f8201168201806040525081019061274391906133c9565b90506127666127518261248a565b61275c61271061248a565b61253690856135c9565b9350505050612482565b6127786124f4565b60405163aab8a1b360e01b81526004810187905260248101869052604481018590526001600160a01b03919091169063aab8a1b39060640160206040518083038186803b1580156127c857600080fd5b505afa1580156127dc573d6000803e3d6000fd5b505050506040513d601f19601f8201168201806040525081019061160891906133c9565b6000611e076a14995cd95c9d99519d5b9960aa1b612df9565b6000806128246124f4565b60405163386320d360e11b8152600481018990526001600160a01b03878116602483015291909116906370c641a69060440160206040518083038186803b15801561286e57600080fd5b505afa158015612882573d6000803e3d6000fd5b505050506040513d601f19601f820116820180604052508101906128a691906133c9565b905060006128b26124f4565b60405163386320d360e11b8152600481018a90526001600160a01b03878116602483015291909116906370c641a69060440160206040518083038186803b1580156128fc57600080fd5b505afa158015612910573d6000803e3d6000fd5b505050506040513d601f19601f8201168201806040525081019061293491906133c9565b9050600082131580612947575060008112155b1561295757600092505050611608565b61296082612158565b92508161296c826133ac565b12156129815761297e6107e5826133ac565b92505b831580159061298f57508383115b15612998578392505b6129a06124f4565b6040516398e96ac960e01b8152600481018a90526001600160a01b038881166024830152604482018a90526064820186905291909116906398e96ac990608401602060405180830381600087803b1580156129fa57600080fd5b505af1158015612a0e573d6000803e3d6000fd5b505050506040513d601f19601f82011682018060405250810190612a3291906134f2565b50612a3b6124f4565b60405163fe99d1b760e01b8152600481018a90526001600160a01b038781166024830152604482018a905260648201869052919091169063fe99d1b790608401602060405180830381600087803b158015612a9557600080fd5b505af1158015612aa9573d6000803e3d6000fd5b505050506040513d601f19601f82011682018060405250810190612acd91906134f2565b50505095945050505050565b600080612ae4611dcb565b6000868152600291909101602090815260408083208784528252918290205482516371613c2d60e01b815292516001600160a01b03909116926371613c2d926004808301939192829003018186803b158015612b3f57600080fd5b505afa158015612b53573d6000803e3d6000fd5b505050506040513d601f19601f82011682018060405250810190612b7791906133c9565b905061160881610896612710866133e2565b600080612b94611dcb565b6000888152600291909101602090815260408083208984529091528120546001600160a01b03169150612bc5611dcb565b6000898152600191909101602090815260408083206001600160a01b038681168552925280832054905163070da1af60e11b815289831660048201529116925081908390630e1b435e90602401604080518083038186803b158015612c2957600080fd5b505afa158015612c3d573d6000803e3d6000fd5b505050506040513d601f19601f82011682018060405250810190612c619190613401565b60405163070da1af60e11b81526001600160a01b038a81166004830152929450909250600091829190861690630e1b435e90602401604080518083038186803b158015612cad57600080fd5b505afa158015612cc1573d6000803e3d6000fd5b505050506040513d601f19601f82011682018060405250810190612ce59190613401565b91509150600084131580612cfa575060008212155b15612d0e5760009650505050505050611608565b80831415612dea57612d1f84612158565b965083612d2b836133ac565b1215612d4057612d3d6107e5836133ac565b96505b8715801590612d4e57508787115b15612d57578796505b6040516340c8c33760e01b81526001600160a01b038b811660048301528a8116602483015260448201899052606482018590528616906340c8c33790608401602060405180830381600087803b158015612db057600080fd5b505af1158015612dc4573d6000803e3d6000fd5b505050506040513d601f19601f82011682018060405250810190612de891906134f2565b505b50505050505095945050505050565b60008181527f4abde63c3e81aefa5764b017968bc473e83e093d7e1a10247d19e0a3e41240196020908152604080832054815170026b4b9b9b4b7339030b2323932b9b99d1607d1b9381019390935260318084018690528251808503909101815260519093019091526001600160a01b031690816115665760405162461bcd60e51b81526004016115ad919061364e565b606081600001805480602002602001604051908101604052809291908181526020018280548015612eda57602002820191906000526020600020905b815481526020019060010190808311612ec6575b50505050509050919050565b6000826000018281548110612efd57612efd613279565b9060005260206000200154905092915050565b600081612f1c57600080fd5b6000612f2883856136a3565b612f3390600a6135c9565b83612f3f86600a6135c9565b612f4991906136a3565b612f53919061349c565b905060058112612f7a57612f6783856136a3565b612f72906001613425565b915050611e17565b6004198113612f99576001612f8f84866136a3565b612f72919061349c565b612f7283856136a3565b80356001600160a01b0381168114612fba57600080fd5b919050565b600080600060608486031215612fd457600080fd5b612fdd84612fa3565b95602085013595506040909401359392505050565b60008060006060848603121561300757600080fd5b8335925061301760208501612fa3565b915061302560408501612fa3565b90509250925092565b6000806040838503121561304157600080fd5b8235915061305160208401612fa3565b90509250929050565b60008060006060848603121561306f57600080fd5b833592506020840135915061302560408501612fa3565b60008060006060848603121561309b57600080fd5b505081359360208301359350604090920135919050565b60008060008060008060c087890312156130cb57600080fd5b6130d487612fa3565b95506130e260208801612fa3565b945060408701359350606087013592506080870135915060a087013562ffffff8116811461310f57600080fd5b809150509295509295509295565b6020808252825182820181905260009190848201906040850190845b8181101561315557835183529284019291840191600101613139565b50909695505050505050565b634e487b7160e01b600052604160045260246000fd5b604051601f8201601f1916810167ffffffffffffffff811182821017156131a0576131a0613161565b604052919050565b600067ffffffffffffffff8211156131c2576131c2613161565b5060051b60200190565b80518015158114612fba57600080fd5b600060208083850312156131ef57600080fd5b825167ffffffffffffffff81111561320657600080fd5b8301601f8101851361321757600080fd5b805161322a613225826131a8565b613177565b81815260059190911b8201830190838101908783111561324957600080fd5b928401925b8284101561326e5761325f846131cc565b8252928401929084019061324e565b979650505050505050565b634e487b7160e01b600052603260045260246000fd5b634e487b7160e01b600052601160045260246000fd5b600082198211156132b8576132b861328f565b500190565b6000604082018483526020604081850152818551808452606086019150828701935060005b818110156132fe578451835293830193918301916001016132e2565b5090979650505050505050565b6000602080838503121561331e57600080fd5b825167ffffffffffffffff81111561333557600080fd5b8301601f8101851361334657600080fd5b8051613354613225826131a8565b81815260059190911b8201830190838101908783111561337357600080fd5b928401925b8284101561326e57835182529284019290840190613378565b60006000198214156133a5576133a561328f565b5060010190565b6000600160ff1b8214156133c2576133c261328f565b5060000390565b6000602082840312156133db57600080fd5b5051919050565b60008160001904831182151516156133fc576133fc61328f565b500290565b6000806040838503121561341457600080fd5b505080516020909101519092909150565b600080821280156001600160ff1b03849003851316156134475761344761328f565b600160ff1b83900384128116156134605761346061328f565b50500190565b6000806000806080858703121561347c57600080fd5b505082516020840151604085015160609095015191969095509092509050565b60008083128015600160ff1b8501841216156134ba576134ba61328f565b6001600160ff1b03840183138116156134d5576134d561328f565b50500390565b6000828210156134ed576134ed61328f565b500390565b60006020828403121561350457600080fd5b611e33826131cc565b604081016002841061352f57634e487b7160e01b600052602160045260246000fd5b9281526020015290565b634e487b7160e01b600052601260045260246000fd5b60008261355e5761355e613539565b500490565b60006080828403121561357557600080fd5b6040516080810181811067ffffffffffffffff8211171561359857613598613161565b8060405250825181526020830151602082015260408301516040820152606083015160608201528091505092915050565b60006001600160ff1b03818413828413808216868404861116156135ef576135ef61328f565b600160ff1b600087128281168783058912161561360e5761360e61328f565b6000871292508782058712848416161561362a5761362a61328f565b878505871281841616156136405761364061328f565b505050929093029392505050565b600060208083528351808285015260005b8181101561367b5785810183015185820160400152820161365f565b8181111561368d576000604083870101525b50601f01601f1916929092016040019392505050565b6000826136b2576136b2613539565b600160ff1b8214600019841416156136cc576136cc61328f565b50059056fea2646970667358221220da4debb904f31d75c4facd3ecfc18ae1064e724bd3f1494bc47d241c8ac9b7cc64736f6c63430008090033",
  "devdoc": {
    "kind": "dev",
    "methods": {},
    "version": 1
  },
  "userdoc": {
    "kind": "user",
    "methods": {},
    "version": 1
  },
  "storageLayout": {
    "storage": [],
    "types": null
  }
}