{
  "address": "0x596fe0f4053b85024E078F07A1fE1BE106585684",
  "abi": [
    {
      "anonymous": false,
      "inputs": [
        {
          "indexed": true,
          "internalType": "address",
          "name": "user",
          "type": "address"
        },
        {
          "indexed": false,
          "internalType": "bytes32",
          "name": "collateralCcy",
          "type": "bytes32"
        },
        {
          "indexed": true,
          "internalType": "bytes32",
          "name": "debtCcy",
          "type": "bytes32"
        },
        {
          "indexed": true,
          "internalType": "uint256",
          "name": "debtMaturity",
          "type": "uint256"
        },
        {
          "indexed": false,
          "internalType": "uint256",
          "name": "debtAmount",
          "type": "uint256"
        }
      ],
      "name": "LiquidationExecuted",
      "type": "event"
    },
    {
      "anonymous": false,
      "inputs": [
        {
          "indexed": true,
          "internalType": "address",
          "name": "taker",
          "type": "address"
        },
        {
          "indexed": true,
          "internalType": "bytes32",
          "name": "ccy",
          "type": "bytes32"
        },
        {
          "indexed": false,
          "internalType": "enum ProtocolTypes.Side",
          "name": "side",
          "type": "uint8"
        },
        {
          "indexed": true,
          "internalType": "uint256",
          "name": "maturity",
          "type": "uint256"
        },
        {
          "indexed": false,
          "internalType": "uint256",
          "name": "amount",
          "type": "uint256"
        },
        {
          "indexed": false,
          "internalType": "uint256",
          "name": "futureValue",
          "type": "uint256"
        }
      ],
      "name": "OrderFilled",
      "type": "event"
    },
    {
      "anonymous": false,
      "inputs": [
        {
          "indexed": true,
          "internalType": "address",
          "name": "taker",
          "type": "address"
        },
        {
          "indexed": true,
          "internalType": "bytes32",
          "name": "ccy",
          "type": "bytes32"
        },
        {
          "indexed": false,
          "internalType": "enum ProtocolTypes.Side",
          "name": "side",
          "type": "uint8"
        },
        {
          "indexed": true,
          "internalType": "uint256",
          "name": "maturity",
          "type": "uint256"
        },
        {
          "indexed": false,
          "internalType": "uint256",
          "name": "amount",
          "type": "uint256"
        },
        {
          "indexed": false,
          "internalType": "uint256",
          "name": "futureValue",
          "type": "uint256"
        }
      ],
      "name": "OrdersFilledInAsync",
      "type": "event"
    },
    {
      "anonymous": false,
      "inputs": [
        {
          "indexed": false,
          "internalType": "bytes32",
          "name": "ccy",
          "type": "bytes32"
        },
        {
          "indexed": true,
          "internalType": "address",
          "name": "user",
          "type": "address"
        },
        {
          "indexed": false,
          "internalType": "int256",
          "name": "amount",
          "type": "int256"
        }
      ],
      "name": "RedemptionExecuted",
      "type": "event"
    },
    {
      "inputs": [
        {
          "internalType": "bytes32",
          "name": "_ccy",
          "type": "bytes32"
        },
        {
          "internalType": "uint256",
          "name": "_maturity",
          "type": "uint256"
        },
        {
          "internalType": "address",
          "name": "_user",
          "type": "address"
        }
      ],
      "name": "calculateActualFunds",
      "outputs": [
        {
          "components": [
            {
              "internalType": "int256",
              "name": "presentValue",
              "type": "int256"
            },
            {
              "internalType": "uint256",
              "name": "claimableAmount",
              "type": "uint256"
            },
            {
              "internalType": "uint256",
              "name": "debtAmount",
              "type": "uint256"
            },
            {
              "internalType": "int256",
              "name": "futureValue",
              "type": "int256"
            },
            {
              "internalType": "uint256",
              "name": "workingLendOrdersAmount",
              "type": "uint256"
            },
            {
              "internalType": "uint256",
              "name": "lentAmount",
              "type": "uint256"
            },
            {
              "internalType": "uint256",
              "name": "workingBorrowOrdersAmount",
              "type": "uint256"
            },
            {
              "internalType": "uint256",
              "name": "borrowedAmount",
              "type": "uint256"
            },
            {
              "internalType": "int256",
              "name": "genesisValue",
              "type": "int256"
            }
          ],
          "internalType": "struct FundManagementLogic.ActualFunds",
          "name": "actualFunds",
          "type": "tuple"
        }
      ],
      "stateMutability": "view",
      "type": "function"
    },
    {
      "inputs": [
        {
          "internalType": "bytes32",
          "name": "_ccy",
          "type": "bytes32"
        },
        {
          "internalType": "address",
          "name": "_user",
          "type": "address"
        }
      ],
      "name": "calculateFunds",
      "outputs": [
        {
          "internalType": "uint256",
          "name": "workingLendOrdersAmount",
          "type": "uint256"
        },
        {
          "internalType": "uint256",
          "name": "claimableAmount",
          "type": "uint256"
        },
        {
          "internalType": "uint256",
          "name": "collateralAmount",
          "type": "uint256"
        },
        {
          "internalType": "uint256",
          "name": "lentAmount",
          "type": "uint256"
        },
        {
          "internalType": "uint256",
          "name": "workingBorrowOrdersAmount",
          "type": "uint256"
        },
        {
          "internalType": "uint256",
          "name": "debtAmount",
          "type": "uint256"
        },
        {
          "internalType": "uint256",
          "name": "borrowedAmount",
          "type": "uint256"
        }
      ],
      "stateMutability": "view",
      "type": "function"
    },
    {
      "inputs": [
        {
          "internalType": "address",
          "name": "_user",
          "type": "address"
        },
        {
          "internalType": "bytes32",
          "name": "_depositCcy",
          "type": "bytes32"
        },
        {
          "internalType": "uint256",
          "name": "_depositAmount",
          "type": "uint256"
        }
      ],
      "name": "calculateTotalFundsInBaseCurrency",
      "outputs": [
        {
          "internalType": "uint256",
          "name": "totalWorkingLendOrdersAmount",
          "type": "uint256"
        },
        {
          "internalType": "uint256",
          "name": "totalClaimableAmount",
          "type": "uint256"
        },
        {
          "internalType": "uint256",
          "name": "totalCollateralAmount",
          "type": "uint256"
        },
        {
          "internalType": "uint256",
          "name": "totalLentAmount",
          "type": "uint256"
        },
        {
          "internalType": "uint256",
          "name": "totalWorkingBorrowOrdersAmount",
          "type": "uint256"
        },
        {
          "internalType": "uint256",
          "name": "totalDebtAmount",
          "type": "uint256"
        },
        {
          "internalType": "uint256",
          "name": "totalBorrowedAmount",
          "type": "uint256"
        },
        {
          "internalType": "bool",
          "name": "isEnoughDeposit",
          "type": "bool"
        }
      ],
      "stateMutability": "view",
      "type": "function"
    },
    {
      "inputs": [
        {
          "internalType": "bytes32",
          "name": "_ccy",
          "type": "bytes32"
        },
        {
          "internalType": "address",
          "name": "_user",
          "type": "address"
        }
      ],
      "name": "getUsedMaturities",
      "outputs": [
        {
          "internalType": "uint256[]",
          "name": "maturities",
          "type": "uint256[]"
        }
      ],
      "stateMutability": "view",
      "type": "function"
    }
  ],
  "transactionHash": "0x84f5d26d53cc81af8f1109c5e89ea284bc8c7752710e32cb2aee9ac2e237ed9f",
  "args": [],
  "numDeployments": 1,
  "solcInputHash": "6f01400ba717e365335694f7dd4a1baf",
  "bytecode": "0x61528c61003a600b82828239805160001a60731461002d57634e487b7160e01b600052600060045260246000fd5b30600052607381538281f3fe73000000000000000000000000000000000000000030146080604052600436106100b35760003560e01c80639519832b1161007b5780639519832b146101f5578063a86c2a3e14610215578063b61ef55a14610235578063b6eb033d14610255578063c86f6da414610275578063fd4584e61461029557600080fd5b8063300074c9146100b8578063390e5d12146100eb5780634ad238801461010d5780635c3477651461018d578063826b47e8146101d5575b600080fd5b8180156100c457600080fd5b506100d86100d33660046148ce565b6102e5565b6040519081526020015b60405180910390f35b8180156100f757600080fd5b5061010b610106366004614914565b6104de565b005b61012061011b3660046148ce565b610875565b6040516100e29190600061012082019050825182526020830151602083015260408301516040830152606083015160608301526080830151608083015260a083015160a083015260c083015160c083015260e083015160e083015261010080840151818401525092915050565b6101a061019b366004614992565b611195565b604080519788526020880196909652948601939093526060850191909152608084015260a083015260c082015260e0016100e2565b8180156101e157600080fd5b5061010b6101f03660046149be565b611292565b81801561020157600080fd5b506100d8610210366004614992565b6112f6565b81801561022157600080fd5b5061010b6102303660046149d9565b611662565b610248610243366004614992565b61209e565b6040516100e29190614a26565b81801561026157600080fd5b5061010b6102703660046148ce565b612174565b81801561028157600080fd5b5061010b6102903660046148ce565b61224f565b6102a86102a3366004614a6a565b61232c565b604080519889526020890197909752958701949094526060860192909252608085015260a084015260c0830152151560e0820152610100016100e2565b6000806102f061283b565b6000868152600691909101602052604081209061030b61283b565b6000888152600791909101602090815260408083208984528252808320546001600160a01b03908116855291840194909452918301812054925163ae100e6d60e01b815286831660048201526024810188905292909116925090819081908190859063ae100e6d90604401608060405180830381600087803b15801561039057600080fd5b505af11580156103a4573d6000803e3d6000fd5b505050506040513d601f19601f820116820180604052508101906103c89190614a9d565b9350935093509350836000146104d1578015610456576103e661285f565b60405163312c474560e01b8152600481018b90526001600160a01b03898116602483015260448201859052919091169063312c474590606401600060405180830381600087803b15801561043957600080fd5b505af115801561044d573d6000803e3d6000fd5b505050506104d1565b61045e61285f565b6040516360e3f72960e11b8152600481018b90526001600160a01b0389811660248301526044820185905260648201879052919091169063c1c7ee5290608401600060405180830381600087803b1580156104b857600080fd5b505af11580156104cc573d6000803e3d6000fd5b505050505b5090979650505050505050565b60006104e861283b565b60008a8152600691909101602052604081209061050361283b565b60008c8152600791909101602090815260408083208d84528252808320546001600160a01b03908116855291840194909452919092018220541691508261054b576000610556565b610556898686612883565b9050600187600181111561056c5761056c614ade565b14156106705761057a612906565b6001600160a01b0316634ba0c9b5898c896040518463ffffffff1660e01b81526004016105a993929190614af4565b600060405180830381600087803b1580156105c357600080fd5b505af11580156105d7573d6000803e3d6000fd5b50505050816001600160a01b0316635b0b29308983886105f79190614b2b565b8c876040518563ffffffff1660e01b81526004016106189493929190614b43565b602060405180830381600087803b15801561063257600080fd5b505af1158015610646573d6000803e3d6000fd5b505050506040513d601f19601f8201168201806040525081019061066a9190614b6b565b5061076a565b610678612906565b6001600160a01b031663fb7bd3b4898c896040518463ffffffff1660e01b81526004016106a793929190614af4565b600060405180830381600087803b1580156106c157600080fd5b505af11580156106d5573d6000803e3d6000fd5b50505050816001600160a01b0316639e8d3d558983886106f59190614b88565b8c876040518563ffffffff1660e01b81526004016107169493929190614b43565b602060405180830381600087803b15801561073057600080fd5b505af1158015610744573d6000803e3d6000fd5b505050506040513d601f19601f820116820180604052508101906107689190614b6b565b505b801561082257600061077a61291e565b90506001600160a01b038316639e8d3d5582848d60008d60018111156107a2576107a2614ade565b146040518563ffffffff1660e01b81526004016107c29493929190614b43565b602060405180830381600087803b1580156107dc57600080fd5b505af11580156107f0573d6000803e3d6000fd5b505050506040513d601f19601f820116820180604052508101906108149190614b6b565b506108208b8b83612174565b505b888a896001600160a01b03167ff80dd09632f046e05472e1c239271a3b2ad3de73c27a1b03d0bb0329ba6716df8a8a8a60405161086193929190614b9f565b60405180910390a450505050505050505050565b6108c46040518061012001604052806000815260200160008152602001600081526020016000815260200160008152602001600081526020016000815260200160008152602001600081525090565b6040805160a08101825260008082526020820181905291810182905260608082015260808101919091528361094b57600181526108ff61283b565b600501600086815260200190815260200160002060008154811061092557610925614bd5565b600091825260209182902001546001600160a01b031690820152600160408201526109d5565b6000815261095761283b565b6000868152600791909101602090815260408083208784528252909120546001600160a01b03169082015261098a61283b565b60050160008681526020019081526020016000206000815481106109b0576109b0614bd5565b60009182526020918290200154908201516001600160a01b0390811691161460408201525b6109dd61285f565b60405163386320d360e11b8152600481018790526001600160a01b03858116602483015291909116906370c641a69060440160206040518083038186803b158015610a2757600080fd5b505afa158015610a3b573d6000803e3d6000fd5b505050506040513d601f19601f82011682018060405250810190610a5f9190614beb565b610100830152610a6f858461209e565b606082015260005b816060015151811015610eca576000610a8e61283b565b6007016000888152602001908152602001600020600084606001518481518110610aba57610aba614bd5565b6020026020010151815260200190815260200160002060009054906101000a90046001600160a01b031690506000816001600160a01b031663e16695b56040518163ffffffff1660e01b815260040160206040518083038186803b158015610b2157600080fd5b505afa158015610b35573d6000803e3d6000fd5b505050506040513d601f19601f82011682018060405250810190610b599190614beb565b90506000610b6561283b565b60050160008a8152602001908152602001600020600081548110610b8b57610b8b614bd5565b60009182526020909120015460408601516001600160a01b03858116921691909114915080610bcf575084602001516001600160a01b0316836001600160a01b0316145b15610eb4576000610be48a8988868887612937565b90506000610bf68b8a89878988612b27565b90506000610c088c8b8a888a89612cba565b8051835185519293509091610c1d9190614c04565b610c279190614c43565b8961010001818151610c399190614c43565b9052506020808201518382015191850151600092610c5691614c04565b610c609190614c43565b9050808a600001818151610c749190614c43565b9052508415610c8557608089018190525b6000811315610cb057610c9781612e4a565b8a602001818151610ca89190614b2b565b905250610cdf565b6000811215610cdf57610cca610cc582614c84565b612e4a565b8a604001818151610cdb9190614b2b565b9052505b8851610d1d57816040015183604001518560400151610cfe9190614c04565b610d089190614c43565b8a606001818151610d199190614c43565b9052505b82606001518a60c001818151610d339190614b2b565b905250606082015160808b018051610d4c908390614b2b565b905250608083015160e08b018051610d65908390614b2b565b905250608082015160a08b018051610d7e908390614b2b565b9052506101008a015160001315610eaf576000610d9961285f565b6001600160a01b031663aee1311e8f8d61010001518d606001518d81518110610dc457610dc4614bd5565b602002602001015160018f6060015151610dde9190614b88565b8e14610e115760608f0151610df48f6001614b2b565b81518110610e0457610e04614bd5565b6020026020010151610e14565b60005b6040516001600160e01b031960e087901b168152600481019490945260248401929092526044830152606482015260840160206040518083038186803b158015610e5d57600080fd5b505afa158015610e71573d6000803e3d6000fd5b505050506040513d601f19601f82011682018060405250810190610e959190614beb565b9050808b61010001818151610eaa9190614c43565b905250505b505050505b5050508080610ec290614ca1565b915050610a77565b5080604001518015610ee0575061010082015115155b1561118d576000610eef61285f565b610100840151604051637636e94160e01b8152600481018990526000602482015260448101919091526001600160a01b039190911690637636e9419060640160206040518083038186803b158015610f4657600080fd5b505afa158015610f5a573d6000803e3d6000fd5b505050506040513d601f19601f82011682018060405250810190610f7e9190614beb565b9050600061103a82610f8e61283b565b60050160008a8152602001908152602001600020600081548110610fb457610fb4614bd5565b60009182526020918290200154604080516371613c2d60e01b815290516001600160a01b03909216926371613c2d92600480840193829003018186803b158015610ffd57600080fd5b505afa158015611011573d6000803e3d6000fd5b505050506040513d601f19601f820116820180604052508101906110359190614beb565b612ea0565b9050808460000181815161104e9190614c43565b90525060008113156110e0576000836080015112156110be576000836080015161107790614c84565b82136110835781611091565b836080015161109190614c84565b905061109c81612e4a565b856040018181516110ad9190614b88565b9052506110ba8183614c04565b9150505b6110c781612e4a565b846020018181516110d89190614b2b565b90525061116e565b600081121561116e5760008360800151131561114d57600083608001518261110790614c84565b1361111a5761111582614c84565b611120565b83608001515b905061112b81612e4a565b8560200181815161113c9190614b88565b9052506111498183614c43565b9150505b611159610cc582614c84565b8460400181815161116a9190614b2b565b9052505b825161118a5781846060018181516111869190614c43565b9052505b50505b509392505050565b6000806000806000806000806111ad8a60008b610875565b9050806080015197508060a0015194508060c0015193508060e001519150806020015196508060400151925060008711156112855760006111ec612ec9565b6001600160a01b0316639abdb38a8c6040518263ffffffff1660e01b815260040161121991815260200190565b60206040518083038186803b15801561123157600080fd5b505afa158015611245573d6000803e3d6000fd5b505050506040513d601f19601f820116820180604052508101906112699190614beb565b905061128161271061127b838b614cbc565b90612ee9565b9650505b5092959891949750929550565b600061129c61283b565b6001600160a01b03831660009081526009919091016020526040812091505b6112c482612f5a565b8110156112f1576112de6112d88383612f64565b846112f6565b50806112e981614ca1565b9150506112bb565b505050565b60008080611304858561209e565b905060005b815181101561158557600061131c61283b565b6007016000888152602001908152602001600020600084848151811061134457611344614bd5565b6020026020010151815260200190815260200160002060009054906101000a90046001600160a01b031690506000816001600160a01b031663e16695b56040518163ffffffff1660e01b815260040160206040518083038186803b1580156113ab57600080fd5b505afa1580156113bf573d6000803e3d6000fd5b505050506040513d601f19601f820116820180604052508101906113e39190614beb565b905060006113f289838a6102e5565b90506000806114028b858c612f70565b9092509050611411828a614b2b565b98508015611427576114248b858c6102e5565b92505b821561143257600197505b8215801561143e575081155b156114af576114ad87878151811061145857611458614bd5565b602002602001015161146861283b565b600a0160008e815260200190815260200160002060008d6001600160a01b03166001600160a01b0316815260200190815260200160002061335a90919063ffffffff16565b505b6114b761285f565b6001600160a01b031663eeac29d88c8c60018b516114d59190614b88565b8a14611504578a6114e78b6001614b2b565b815181106114f7576114f7614bd5565b6020026020010151611507565b60005b6040516001600160e01b031960e086901b16815260048101939093526001600160a01b0390911660248301526044820152606401600060405180830381600087803b15801561155557600080fd5b505af1158015611569573d6000803e3d6000fd5b505050505050505050808061157d90614ca1565b915050611309565b5082158015611592575081155b801561162557506115a161285f565b60405163386320d360e11b8152600481018790526001600160a01b03868116602483015291909116906370c641a69060440160206040518083038186803b1580156115eb57600080fd5b505afa1580156115ff573d6000803e3d6000fd5b505050506040513d601f19601f820116820180604052508101906116239190614beb565b155b1561165a576116588561163661283b565b6001600160a01b0387166000908152600991909101602052604090209061335a565b505b505092915050565b6116b760405180610100016040528060006001600160a01b0316815260200160008152602001600081526020016000815260200160001515815260200160001515815260200160008152602001600081525090565b6116c184866112f6565b506116cc83866112f6565b5060006116da848488610875565b604001519050806117325760405162461bcd60e51b815260206004820181905260248201527f4e6f206465627420696e207468652073656c6563746564206d6174757269747960448201526064015b60405180910390fd5b61173a612906565b6001600160a01b0316635257ed678787611752612ec9565b6040516317338d9560e31b8152600481018a9052602481018b9052604481018790526001600160a01b03919091169063b99c6ca89060640160206040518083038186803b1580156117a257600080fd5b505afa1580156117b6573d6000803e3d6000fd5b505050506040513d601f19601f820116820180604052508101906117da9190614beb565b6040518463ffffffff1660e01b81526004016117f893929190614af4565b60606040518083038186803b15801561181057600080fd5b505afa158015611824573d6000803e3d6000fd5b505050506040513d601f19601f820116820180604052508101906118489190614cdb565b60608501526040840152602083018190526118a55760405162461bcd60e51b815260206004820152601a60248201527f557365722068617320656e6f75676820636f6c6c61746572616c0000000000006044820152606401611729565b60006118af612ec9565b60208401516040516317338d9560e31b8152600481018990526024810188905260448101919091526001600160a01b03919091169063b99c6ca89060640160206040518083038186803b15801561190557600080fd5b505afa158015611919573d6000803e3d6000fd5b505050506040513d601f19601f8201168201806040525081019061193d9190614beb565b905061194761283b565b600501600086815260200190815260200160002060008154811061196d5761196d614bd5565b6000918252602090912001546001600160a01b031661198a61283b565b6000878152600791909101602090815260408083208884529091529020546001600160a01b03161460808401526119bf61291e565b6001600160a01b031663b187bd266040518163ffffffff1660e01b815260040160206040518083038186803b1580156119f757600080fd5b505afa158015611a0b573d6000803e3d6000fd5b505050506040513d601f19601f82011682018060405250810190611a2f9190614b6b565b151560a0840152611a3e61291e565b6001600160a01b0316835260608301516020840151611a5d9190614b2b565b60c08401526000611a6c612906565b8451604080870151905163500d2f6d60e01b8152600481018b90526001600160a01b038c811660248301529283166044820152606481019190915291169063500d2f6d90608401602060405180830381600087803b158015611acd57600080fd5b505af1158015611ae1573d6000803e3d6000fd5b505050506040513d601f19601f82011682018060405250810190611b059190614beb565b90508015611b3157611b2588856000015189611b2085613366565b6133d0565b505060c0830151611bd3565b611b39612906565b60c085015160405163500d2f6d60e01b8152600481018a90526001600160a01b038b811660248301528c81166044830152606482019290925291169063500d2f6d90608401602060405180830381600087803b158015611b9857600080fd5b505af1158015611bac573d6000803e3d6000fd5b505050506040513d601f19601f82011682018060405250810190611bd09190614beb565b90505b8015611bee57611beb610cc5898b8a611b2086613366565b90505b600081118015611c0057508360a00151155b15611d52576000611c0f612ec9565b6040516317338d9560e31b8152600481018a905260248101899052604481018490526001600160a01b03919091169063b99c6ca89060640160206040518083038186803b158015611c5f57600080fd5b505afa158015611c73573d6000803e3d6000fd5b505050506040513d601f19601f82011682018060405250810190611c979190614beb565b9050611ca1612906565b6040516354821c2160e01b81526001600160a01b038b8116600483015291909116906354821c219060240160206040518083038186803b158015611ce457600080fd5b505afa158015611cf8573d6000803e3d6000fd5b505050506040513d601f19601f82011682018060405250810190611d1c9190614beb565b611d4457611d41610cc586600001518c8a8a611d3787613366565b8b608001516134e0565b90505b611d4e8184614b88565b9250505b6001600160a01b0389163b15611e445760c0840151604051630fa3ece160e11b81526001600160a01b038b811660048301819052908b166024830152604482018a90526064820192909252631f47d9c290608401602060405180830381600087803b158015611dc057600080fd5b505af1158015611dd4573d6000803e3d6000fd5b505050506040513d601f19601f82011682018060405250810190611df89190614b6b565b611e445760405162461bcd60e51b815260206004820152601b60248201527f496e76616c6964206f7065726174696f6e20657865637574696f6e00000000006044820152606401611729565b8115611f825760e08401829052611e74888a8888611e6187613366565b611e6a90614c84565b89608001516134e0565b506001600160a01b0389163b15611f825760c084015160e085015160405163091cad1b60e31b81526001600160a01b038c811660048301819052908c166024830152604482018b905260648201939093526084810189905260a4810188905260c48101919091526348e568d89060e401602060405180830381600087803b158015611efe57600080fd5b505af1158015611f12573d6000803e3d6000fd5b505050506040513d601f19601f82011682018060405250810190611f369190614b6b565b611f825760405162461bcd60e51b815260206004820152601b60248201527f496e76616c6964206f7065726174696f6e20657865637574696f6e00000000006044820152606401611729565b611f8a612906565b6040516325e1f09f60e01b81523360048201526001600160a01b0391909116906325e1f09f9060240160206040518083038186803b158015611fcb57600080fd5b505afa158015611fdf573d6000803e3d6000fd5b505050506040513d601f19601f820116820180604052508101906120039190614b6b565b6120455760405162461bcd60e51b815260206004820152601360248201527224b73b30b634b2103634b8bab4b230ba34b7b760691b6044820152606401611729565b8486896001600160a01b03167f347d8f9576f47b3bd7a4821cd3d3d4171968cdd36680d4abaca7de302d836f998a8660405161208b929190918252602082015260400190565b60405180910390a4505050505050505050565b60606120d66120ab61283b565b6000858152600a91909101602090815260408083206001600160a01b038716845290915290206139f3565b80519091501561216e57604051634f64581360e11b815273DEaafdfd0E28973EC8ff292547BfD190260DfC6C90639ec8b02690612117908490600401614a26565b60006040518083038186803b15801561212f57600080fd5b505af4158015612143573d6000803e3d6000fd5b505050506040513d6000823e601f3d908101601f1916820160405261216b9190810190614d74565b90505b92915050565b6121ac8261218061283b565b6000868152600a91909101602090815260408083206001600160a01b0387168452909152902090613a07565b6112f1576121e8826121bc61283b565b6000868152600a91909101602090815260408083206001600160a01b0387168452909152902090613a1f565b50612217836121f561283b565b6001600160a01b03841660009081526009919091016020526040902090613a07565b6112f1576122498361222761283b565b6001600160a01b03841660009081526009919091016020526040902090613a1f565b50505050565b600061225b8483613a2b565b905060008113156122c257612279848361227484612e4a565b613bec565b60408051858152602081018390526001600160a01b038416917f93b0301fda99bfd2e8af22161527848125b3a6ae8e5bb83eed2f0313e758fa9c910160405180910390a2612249565b6000811215612249576122e284836122dc610cc585614c84565b86613e4c565b60408051858152602081018390526001600160a01b038416917f93b0301fda99bfd2e8af22161527848125b3a6ae8e5bb83eed2f0313e758fa9c910160405180910390a250505050565b600080600080600080600080600061234261283b565b60090160008d6001600160a01b03166001600160a01b0316815260200190815260200160002090506123a66040518060c001604052806060815260200160008019168152602001606081526020016060815260200160008152602001600081525090565b6123ae612906565b6001600160a01b0316633f90a08e6123c584614076565b6040518263ffffffff1660e01b81526004016123e19190614a26565b60006040518083038186803b1580156123f957600080fd5b505afa15801561240d573d6000803e3d6000fd5b505050506040513d6000823e601f3d908101601f191682016040526124359190810190614e0a565b8152608081018b905260005b61244a83612f5a565b81101561281d5761245b8382612f64565b602083015260408051600780825261010082019092529081602001602082028036833750505060408301526020820151612495908f611195565b88604001516000815181106124ac576124ac614bd5565b6020026020010189604001516001815181106124ca576124ca614bd5565b602002602001018a604001516002815181106124e8576124e8614bd5565b602002602001018b6040015160038151811061250657612506614bd5565b602002602001018c6040015160048151811061252457612524614bd5565b602002602001018d6040015160058151811061254257612542614bd5565b602002602001018e6040015160068151811061256057612560614bd5565b6020908102919091018101979097529690965295909452949093529390529290529190528201518d141561261f5781604001516006815181106125a5576125a5614bd5565b6020026020010151826080018181516125be9190614b2b565b9052506040820151805160039081106125d9576125d9614bd5565b602002602001015182604001516000815181106125f8576125f8614bd5565b602002602001015161260a9190614b2b565b8260a00181815161261b9190614b2b565b9052505b612627612ec9565b6001600160a01b0316638a2eae92836020015184604001516040518363ffffffff1660e01b815260040161265c929190614e99565b60006040518083038186803b15801561267457600080fd5b505afa158015612688573d6000803e3d6000fd5b505050506040513d6000823e601f3d908101601f191682016040526126b09190810190614d74565b60608301819052805160019081106126ca576126ca614bd5565b60200260200101518a6126dd9190614b2b565b995081606001516002815181106126f6576126f6614bd5565b6020026020010151896127099190614b2b565b9850816060015160048151811061272257612722614bd5565b6020026020010151876127359190614b2b565b9650816060015160058151811061274e5761274e614bd5565b6020026020010151866127619190614b2b565b95508160000151818151811061277957612779614bd5565b60200260200101511561280b57816060015160008151811061279d5761279d614bd5565b60200260200101518b6127b09190614b2b565b9a5081606001516003815181106127c9576127c9614bd5565b6020026020010151886127dc9190614b2b565b975081606001516006815181106127f5576127f5614bd5565b6020026020010151856128089190614b2b565b94505b8061281581614ca1565b915050612441565b508060a0015181608001511015925050509397509397509397509397565b7f8041b8421ebd495cc61f38c788c9eb100daccf9bd36aa0bb920b7a15b2e0496590565b600061287e7011d95b995cda5cd5985b1d5955985d5b1d607a1b614081565b905090565b60008342106128c75760405162461bcd60e51b815260206004820152601060248201526f496e76616c6964206d6174757269747960801b6044820152606401611729565b60006128d34286614b88565b90506128fd6128e86127106301e13380614cbc565b856128f38487614cbc565b61127b9190614cbc565b95945050505050565b600061287e69151bdad95b95985d5b1d60b21b614081565b600061287e6a14995cd95c9d99519d5b9960aa1b614081565b61295b60405180606001604052806000815260200160008152602001600081525090565b60008061296661283b565b60008a8152600691909101602090815260408083206001600160a01b03898116855292529182902054915163070da1af60e11b81528a82166004820152911690630e1b435e90602401604080518083038186803b1580156129c657600080fd5b505afa1580156129da573d6000803e3d6000fd5b505050506040513d601f19601f820116820180604052508101906129fe9190614eda565b9150915081600014612b1b57808614612ab457866040015115612aaf57612a2361285f565b604051630c30971960e11b8152600481018b905260248101839052604481018490526001600160a01b0391909116906318612e32906064015b60206040518083038186803b158015612a7457600080fd5b505afa158015612a88573d6000803e3d6000fd5b505050506040513d601f19601f82011682018060405250810190612aac9190614beb565b83525b612b1b565b80861415612b1b5786518015612ac8575083155b15612ae757612ad8898284614119565b60408501526020840152612b1b565b865180612af657508660400151155b80612afe5750835b15612b1b5760408301829052612b15898284614346565b60208401525b50509695505050505050565b612b596040518060a0016040528060008152602001600081526020016000815260200160008152602001600081525090565b604051631c7b209b60e31b81526001600160a01b038781166004830152600091829186169063e3d904d89060240160806040518083038186803b158015612b9f57600080fd5b505afa158015612bb3573d6000803e3d6000fd5b505050506040513d601f19601f82011682018060405250810190612bd79190614efe565b6080870192909252606086019290925290925090508115612b1b57808614612c5557866040015115612aaf57612c0b61285f565b6001600160a01b03166318612e328a83612c2486613366565b6040516001600160e01b031960e086901b168152600481019390935260248301919091526044820152606401612a5c565b80861415612b1b5786518015612c69575083155b15612c8157612ad88982612c7c85613366565b614119565b865180612c9057508660400151155b80612c985750835b15612b1b57612ca682613366565b60408401819052612b15908a908390614346565b612cec6040518060a0016040528060008152602001600081526020016000815260200160008152602001600081525090565b6040516339f7dda360e21b81526001600160a01b038781166004830152600091829186169063e7df768c9060240160806040518083038186803b158015612d3257600080fd5b505afa158015612d46573d6000803e3d6000fd5b505050506040513d601f19601f82011682018060405250810190612d6a9190614efe565b6080870192909252606086019290925290925090508115612b1b57808614612c5557866040015115612aaf57612d9e61285f565b6001600160a01b03166318612e328a83612db786613366565b6040516001600160e01b031960e086901b16815260048101939093526024830191909152604482015260640160206040518083038186803b158015612dfb57600080fd5b505afa158015612e0f573d6000803e3d6000fd5b505050506040513d601f19601f82011682018060405250810190612e339190614beb565b83518490612e42908390614c43565b905250612b1b565b600080821215612e9c5760405162461bcd60e51b815260206004820181905260248201527f53616665436173743a2076616c7565206d75737420626520706f7369746976656044820152606401611729565b5090565b600061216b612eb0612710613366565b612eb984613366565b612ec39086614f34565b906143f0565b600061287e7121bab93932b731bca1b7b73a3937b63632b960711b614081565b6000808211612ef757600080fd5b6005612f038385614fcf565b612f0e90600a614cbc565b83612f1a86600a614cbc565b612f249190614fcf565b612f2e9190614b88565b1015612f4557612f3e8284614fcf565b905061216e565b612f4f8284614fcf565b612f3e906001614b2b565b600061216e825490565b600061216b8383614483565b6000806000612f7d61283b565b60008781526006919091016020526040812090612f9861283b565b6000898152600791909101602090815260408083208a84528252808320546001600160a01b0390811685529184019490945291909201822054169150808080808080612fe261283b565b60008e8152600791909101602090815260408083208f845290915290819020549051633d4eccdf60e01b81526001600160a01b038d8116600483015290911690633d4eccdf9060240160e060405180830381600087803b15801561304557600080fd5b505af1158015613059573d6000803e3d6000fd5b505050506040513d601f19601f8201168201806040525081019061307d9190614fe3565b96509650965096509650965096508183111561310a5761309b612906565b6001600160a01b031663fb7bd3b48c8f6130b58688614b88565b6040518463ffffffff1660e01b81526004016130d393929190614af4565b600060405180830381600087803b1580156130ed57600080fd5b505af1158015613101573d6000803e3d6000fd5b50505050613185565b818310156131855761311a612906565b6001600160a01b0316634ba0c9b58c8f6131348787614b88565b6040518463ffffffff1660e01b815260040161315293929190614af4565b600060405180830381600087803b15801561316c57600080fd5b505af1158015613180573d6000803e3d6000fd5b505050505b841561325a57604051639e8d3d5560e01b81526001600160a01b03891690639e8d3d55906131be908e9089908690600090600401614b43565b602060405180830381600087803b1580156131d857600080fd5b505af11580156131ec573d6000803e3d6000fd5b505050506040513d601f19601f820116820180604052508101906132109190614b6b565b50808d8c6001600160a01b03167fba00994778888e87ce0908fd360c4b0417bfe7e274cce4cb72ed8a60b38b3e386000878a60405161325193929190614b9f565b60405180910390a45b831561332f576040516305b0b29360e41b81526001600160a01b03891690635b0b293090613293908e9088908690600090600401614b43565b602060405180830381600087803b1580156132ad57600080fd5b505af11580156132c1573d6000803e3d6000fd5b505050506040513d601f19601f820116820180604052508101906132e59190614b6b565b50808d8c6001600160a01b03167fba00994778888e87ce0908fd360c4b0417bfe7e274cce4cb72ed8a60b38b3e386001868960405161332693929190614b9f565b60405180910390a45b600061333b8587614b2b565b1198506133488688614b2b565b99505050505050505050935093915050565b600061216b83836144ad565b60006001600160ff1b03821115612e9c5760405162461bcd60e51b815260206004820152602860248201527f53616665436173743a2076616c756520646f65736e27742066697420696e2061604482015267371034b73a191a9b60c11b6064820152608401611729565b6000806133dd848761209e565b905060006133e961283b565b600501600086815260200190815260200160002060008154811061340f5761340f614bd5565b60009182526020822001548594506001600160a01b031691505b82518110156134d5578361343c576134d5565b6134c188888886858151811061345457613454614bd5565b602002602001015188876001600160a01b031661346f61283b565b60070160008e815260200190815260200160002060008b8a8151811061349757613497614bd5565b6020908102919091018101518252810191909152604001600020546001600160a01b0316146134e0565b9350806134cd81614ca1565b915050613429565b505050949350505050565b816000811282156138195760006134f561285f565b60405163386320d360e11b8152600481018990526001600160a01b038b8116602483015291909116906370c641a69060440160206040518083038186803b15801561353f57600080fd5b505afa158015613553573d6000803e3d6000fd5b505050506040513d601f19601f820116820180604052508101906135779190614beb565b90508180156135865750600081125b8061359a57508115801561359a5750600081135b156138175760006135a961285f565b6001600160a01b03166349a1d218896040518263ffffffff1660e01b81526004016135d691815260200190565b60206040518083038186803b1580156135ee57600080fd5b505afa158015613602573d6000803e3d6000fd5b505050506040513d601f19601f820116820180604052508101906136269190614beb565b9050600061363261285f565b6001600160a01b03166318612e328a600061364e8d878b6145a0565b6040516001600160e01b031960e086901b16815260048101939093526024830191909152604482015260640160206040518083038186803b15801561369257600080fd5b505afa1580156136a6573d6000803e3d6000fd5b505050506040513d601f19601f820116820180604052508101906136ca9190614beb565b90508380156136d857508083135b806136eb5750831580156136eb57508083125b156136f35750815b6136fb61285f565b604051633916cf2b60e21b8152600481018b90526001600160a01b038d811660248301528c8116604483015260648201849052919091169063e45b3cac90608401600060405180830381600087803b15801561375657600080fd5b505af115801561376a573d6000803e3d6000fd5b50505050613808898361377b61285f565b604051637636e94160e01b8152600481018e905260006024820152604481018690526001600160a01b039190911690637636e9419060640160206040518083038186803b1580156137cb57600080fd5b505afa1580156137df573d6000803e3d6000fd5b505050506040513d601f19601f820116820180604052508101906138039190614beb565b614346565b6138129086614c04565b945050505b505b600061382361283b565b6000888152600691909101602052604081209061383e61283b565b60008a8152600791909101602090815260408083208b84528252808320546001600160a01b03908116855291840194909452918301812054925163070da1af60e11b81528c83166004820152929091169250908290630e1b435e90602401604080518083038186803b1580156138b357600080fd5b505afa1580156138c7573d6000803e3d6000fd5b505050506040513d601f19601f820116820180604052508101906138eb9190614eda565b5090508280156138fb5750600081125b8061390f57508215801561390f5750600081135b156139d45760006139218989876145a0565b905083801561392f57508082135b8061394257508315801561394257508082125b1561394a5750805b604051630c02764960e31b81526001600160a01b038c811660048301528b8116602483015260448201839052606482018a9052841690636013b24890608401600060405180830381600087803b1580156139a357600080fd5b505af11580156139b7573d6000803e3d6000fd5b505050506139c6898983614346565b6139d09086614c04565b9450505b8386146139e6576139e688888b612174565b5050509695505050505050565b60606000613a0083614657565b9392505050565b6000818152600183016020526040812054151561216b565b600061216b83836146b3565b6000613a3783836112f6565b50613a4483600084610875565b5190506000613a7f613a5461283b565b6000868152600a91909101602090815260408083206001600160a01b038816845290915290206139f3565b905060005b8151811015613b7857613a9561283b565b60008681526006919091016020526040812090613ab061283b565b60070160008881526020019081526020016000206000858581518110613ad857613ad8614bd5565b60209081029190910181015182528181019290925260409081016000908120546001600160a01b039081168552928401949094529182019092205490516366c9d55160e01b815286831660048201529116906366c9d55190602401600060405180830381600087803b158015613b4d57600080fd5b505af1158015613b61573d6000803e3d6000fd5b505050508080613b7090614ca1565b915050613a84565b50613b8161285f565b60405163b340398d60e01b8152600481018690526001600160a01b038581166024830152919091169063b340398d90604401600060405180830381600087803b158015613bcd57600080fd5b505af1158015613be1573d6000803e3d6000fd5b505050505092915050565b6000613bf6612906565b6001600160a01b031663d5e190d06040518163ffffffff1660e01b815260040160006040518083038186803b158015613c2e57600080fd5b505afa158015613c42573d6000803e3d6000fd5b505050506040513d6000823e601f3d908101601f19168201604052613c6a9190810190614d74565b90506000815167ffffffffffffffff811115613c8857613c88614d09565b604051908082528060200260200182016040528015613cb1578160200160208202803683370190505b5090506000805b8351811015613d55576000848281518110613cd557613cd5614bd5565b60200260200101519050613ce761283b565b600401600082815260200190815260200160002054848381518110613d0e57613d0e614bd5565b602002602001018181525050838281518110613d2c57613d2c614bd5565b602002602001015183613d3f9190614b2b565b9250508080613d4d90614ca1565b915050613cb8565b506000613d628786614702565b905060005b8451811015613e42576000858281518110613d8457613d84614bd5565b602002602001015190506000613dc282613dbd87898781518110613daa57613daa614bd5565b60200260200101518861127b9190614cbc565b6147df565b9050613dcc612906565b6001600160a01b0316634ba0c9b58a84846040518463ffffffff1660e01b8152600401613dfb93929190614af4565b600060405180830381600087803b158015613e1557600080fd5b505af1158015613e29573d6000803e3d6000fd5b5050505050508080613e3a90614ca1565b915050613d67565b5050505050505050565b613e54612906565b6001600160a01b0316635d95df8a826040518263ffffffff1660e01b8152600401613e8191815260200190565b60206040518083038186803b158015613e9957600080fd5b505afa158015613ead573d6000803e3d6000fd5b505050506040513d601f19601f82011682018060405250810190613ed19190614b6b565b613f1d5760405162461bcd60e51b815260206004820152601c60248201527f4e6f74207265676973746572656420617320636f6c6c61746572616c000000006044820152606401611729565b6000613f27612906565b604051630129e6bf60e11b81526001600160a01b038681166004830152602482018590529190911690630253cd7e9060440160206040518083038186803b158015613f7157600080fd5b505afa158015613f85573d6000803e3d6000fd5b505050506040513d601f19601f82011682018060405250810190613fa99190614beb565b90506000613fbb83613dbd8887614702565b9050808210156140055760405162461bcd60e51b8152602060048201526015602482015274139bdd08195b9bdd59da0818dbdb1b185d195c985b605a1b6044820152606401611729565b61400d612906565b6001600160a01b031663fb7bd3b48685846040518463ffffffff1660e01b815260040161403c93929190614af4565b600060405180830381600087803b15801561405657600080fd5b505af115801561406a573d6000803e3d6000fd5b50505050505050505050565b606061216e82614657565b60008181527f4abde63c3e81aefa5764b017968bc473e83e093d7e1a10247d19e0a3e41240196020908152604080832054815170026b4b9b9b4b7339030b2323932b9b99d1607d1b9381019390935260318084018690528251808503909101815260519093019091526001600160a01b031690816141125760405162461bcd60e51b81526004016117299190615037565b5092915050565b600080600061412661283b565b600501600087815260200190815260200160002060008154811061414c5761414c614bd5565b6000918252602080832090910154604080516371613c2d60e01b815290516001600160a01b03909216945084926371613c2d92600480840193829003018186803b15801561419957600080fd5b505afa1580156141ad573d6000803e3d6000fd5b505050506040513d601f19601f820116820180604052508101906141d19190614beb565b90506141db61285f565b60405163474611f160e01b815260048101899052602481018890526001600160a01b03919091169063474611f19060440160a06040518083038186803b15801561422457600080fd5b505afa158015614238573d6000803e3d6000fd5b505050506040513d601f19601f8201168201806040525081019061425c919061508c565b516142965761426c878787614346565b935061428f61427a82613366565b614285612710613366565b612ec39087614f34565b925061433c565b61429e61285f565b604051631b736f6760e31b8152600481018990526024810188905260006044820152606481018790526001600160a01b03919091169063db9b7b389060840160206040518083038186803b1580156142f557600080fd5b505afa158015614309573d6000803e3d6000fd5b505050506040513d601f19601f8201168201806040525081019061432d9190614beb565b92506143398382612ea0565b93505b5050935093915050565b60008061435161283b565b6000868152600791909101602090815260408083208784528252918290205482516371613c2d60e01b815292516001600160a01b03909116926371613c2d926004808301939192829003018186803b1580156143ac57600080fd5b505afa1580156143c0573d6000803e3d6000fd5b505050506040513d601f19601f820116820180604052508101906143e49190614beb565b90506128fd8382612ea0565b6000816143fc57600080fd5b600061440883856150fc565b61441390600a614f34565b8361441f86600a614f34565b61442991906150fc565b6144339190614c04565b90506005811261445a5761444783856150fc565b614452906001614c43565b91505061216e565b600419811361447957600161446f84866150fc565b6144529190614c04565b61445283856150fc565b600082600001828154811061449a5761449a614bd5565b9060005260206000200154905092915050565b600081815260018301602052604081205480156145965760006144d1600183614b88565b85549091506000906144e590600190614b88565b905081811461454a57600086600001828154811061450557614505614bd5565b906000526020600020015490508087600001848154811061452857614528614bd5565b6000918252602080832090910192909255918252600188019052604090208390555b855486908061455b5761455b61512a565b60019003818190600052602060002001600090559055856001016000868152602001908152602001600020600090556001935050505061216e565b600091505061216e565b6000806146466145ae61283b565b6000878152600791909101602090815260408083208884528252918290205482516371613c2d60e01b815292516001600160a01b03909116926371613c2d926004808301939192829003018186803b15801561460957600080fd5b505afa15801561461d573d6000803e3d6000fd5b505050506040513d601f19601f820116820180604052508101906146419190614beb565b613366565b90506128fd81612eb9612710613366565b6060816000018054806020026020016040519081016040528092919081815260200182805480156146a757602002820191906000526020600020905b815481526020019060010190808311614693575b50505050509050919050565b60008181526001830160205260408120546146fa5750815460018181018455600084815260208082209093018490558454848252828601909352604090209190915561216e565b50600061216e565b600061470c61283b565b5483141561471b57508061216e565b6000614725612ec9565b6001600160a01b03166312105fea856040518263ffffffff1660e01b815260040161475291815260200190565b60206040518083038186803b15801561476a57600080fd5b505afa15801561477e573d6000803e3d6000fd5b505050506040513d601f19601f820116820180604052508101906147a29190615140565b90506144526147b282600a615247565b6147d56147bd61283b565b60008881526003919091016020526040902054612e4a565b61127b9086614cbc565b60006147e961283b565b548314156147f857508061216e565b6000614802612ec9565b6001600160a01b03166312105fea856040518263ffffffff1660e01b815260040161482f91815260200190565b60206040518083038186803b15801561484757600080fd5b505afa15801561485b573d6000803e3d6000fd5b505050506040513d601f19601f8201168201806040525081019061487f9190615140565b90506144526148a761488f61283b565b60008781526003919091016020526040902054612e4a565b6147d583600a615247565b80356001600160a01b03811681146148c957600080fd5b919050565b6000806000606084860312156148e357600080fd5b83359250602084013591506148fa604085016148b2565b90509250925092565b801515811461491157600080fd5b50565b600080600080600080600080610100898b03121561493157600080fd5b883597506020890135965061494860408a016148b2565b955060608901356002811061495c57600080fd5b94506080890135935060a0890135925060c0890135915060e089013561498181614903565b809150509295985092959890939650565b600080604083850312156149a557600080fd5b823591506149b5602084016148b2565b90509250929050565b6000602082840312156149d057600080fd5b61216b826148b2565b600080600080600060a086880312156149f157600080fd5b6149fa866148b2565b9450614a08602087016148b2565b94979496505050506040830135926060810135926080909101359150565b6020808252825182820181905260009190848201906040850190845b81811015614a5e57835183529284019291840191600101614a42565b50909695505050505050565b600080600060608486031215614a7f57600080fd5b614a88846148b2565b95602085013595506040909401359392505050565b60008060008060808587031215614ab357600080fd5b8451935060208501519250604085015191506060850151614ad381614903565b939692955090935050565b634e487b7160e01b600052602160045260246000fd5b6001600160a01b039390931683526020830191909152604082015260600190565b634e487b7160e01b600052601160045260246000fd5b60008219821115614b3e57614b3e614b15565b500190565b6001600160a01b03949094168452602084019290925260408301521515606082015260800190565b600060208284031215614b7d57600080fd5b8151613a0081614903565b600082821015614b9a57614b9a614b15565b500390565b6060810160028510614bc157634e487b7160e01b600052602160045260246000fd5b938152602081019290925260409091015290565b634e487b7160e01b600052603260045260246000fd5b600060208284031215614bfd57600080fd5b5051919050565b60008083128015600160ff1b850184121615614c2257614c22614b15565b6001600160ff1b0384018313811615614c3d57614c3d614b15565b50500390565b600080821280156001600160ff1b0384900385131615614c6557614c65614b15565b600160ff1b8390038412811615614c7e57614c7e614b15565b50500190565b6000600160ff1b821415614c9a57614c9a614b15565b5060000390565b6000600019821415614cb557614cb5614b15565b5060010190565b6000816000190483118215151615614cd657614cd6614b15565b500290565b600080600060608486031215614cf057600080fd5b8351925060208401519150604084015190509250925092565b634e487b7160e01b600052604160045260246000fd5b604051601f8201601f1916810167ffffffffffffffff81118282101715614d4857614d48614d09565b604052919050565b600067ffffffffffffffff821115614d6a57614d6a614d09565b5060051b60200190565b60006020808385031215614d8757600080fd5b825167ffffffffffffffff811115614d9e57600080fd5b8301601f81018513614daf57600080fd5b8051614dc2614dbd82614d50565b614d1f565b81815260059190911b82018301908381019087831115614de157600080fd5b928401925b82841015614dff57835182529284019290840190614de6565b979650505050505050565b60006020808385031215614e1d57600080fd5b825167ffffffffffffffff811115614e3457600080fd5b8301601f81018513614e4557600080fd5b8051614e53614dbd82614d50565b81815260059190911b82018301908381019087831115614e7257600080fd5b928401925b82841015614dff578351614e8a81614903565b82529284019290840190614e77565b6000604082018483526020604081850152818551808452606086019150828701935060005b818110156104d157845183529383019391830191600101614ebe565b60008060408385031215614eed57600080fd5b505080516020909101519092909150565b60008060008060808587031215614f1457600080fd5b505082516020840151604085015160609095015191969095509092509050565b60006001600160ff1b0381841382841380821686840486111615614f5a57614f5a614b15565b600160ff1b6000871282811687830589121615614f7957614f79614b15565b60008712925087820587128484161615614f9557614f95614b15565b87850587128184161615614fab57614fab614b15565b505050929093029392505050565b634e487b7160e01b600052601260045260246000fd5b600082614fde57614fde614fb9565b500490565b600080600080600080600060e0888a031215614ffe57600080fd5b5050855160208701516040880151606089015160808a015160a08b015160c0909b0151949c939b50919990985090965094509092509050565b600060208083528351808285015260005b8181101561506457858101830151858201604001528201615048565b81811115615076576000604083870101525b50601f01601f1916929092016040019392505050565b600060a0828403121561509e57600080fd5b60405160a0810181811067ffffffffffffffff821117156150c1576150c1614d09565b806040525082518152602083015160208201526040830151604082015260608301516060820152608083015160808201528091505092915050565b60008261510b5761510b614fb9565b600160ff1b82146000198414161561512557615125614b15565b500590565b634e487b7160e01b600052603160045260246000fd5b60006020828403121561515257600080fd5b815160ff81168114613a0057600080fd5b600181815b8085111561519e57816000190482111561518457615184614b15565b8085161561519157918102915b93841c9390800290615168565b509250929050565b6000826151b55750600161216e565b816151c25750600061216e565b81600181146151d857600281146151e2576151fe565b600191505061216e565b60ff8411156151f3576151f3614b15565b50506001821b61216e565b5060208310610133831016604e8410600b8410161715615221575081810a61216e565b61522b8383615163565b806000190482111561523f5761523f614b15565b029392505050565b600061216b60ff8416836151a656fea264697066735822122088d79dfd5caf0440b6770f9275d83d4290d001f7651f4032dd760480494b438364736f6c63430008090033",
  "deployedBytecode": "0x73000000000000000000000000000000000000000030146080604052600436106100b35760003560e01c80639519832b1161007b5780639519832b146101f5578063a86c2a3e14610215578063b61ef55a14610235578063b6eb033d14610255578063c86f6da414610275578063fd4584e61461029557600080fd5b8063300074c9146100b8578063390e5d12146100eb5780634ad238801461010d5780635c3477651461018d578063826b47e8146101d5575b600080fd5b8180156100c457600080fd5b506100d86100d33660046148ce565b6102e5565b6040519081526020015b60405180910390f35b8180156100f757600080fd5b5061010b610106366004614914565b6104de565b005b61012061011b3660046148ce565b610875565b6040516100e29190600061012082019050825182526020830151602083015260408301516040830152606083015160608301526080830151608083015260a083015160a083015260c083015160c083015260e083015160e083015261010080840151818401525092915050565b6101a061019b366004614992565b611195565b604080519788526020880196909652948601939093526060850191909152608084015260a083015260c082015260e0016100e2565b8180156101e157600080fd5b5061010b6101f03660046149be565b611292565b81801561020157600080fd5b506100d8610210366004614992565b6112f6565b81801561022157600080fd5b5061010b6102303660046149d9565b611662565b610248610243366004614992565b61209e565b6040516100e29190614a26565b81801561026157600080fd5b5061010b6102703660046148ce565b612174565b81801561028157600080fd5b5061010b6102903660046148ce565b61224f565b6102a86102a3366004614a6a565b61232c565b604080519889526020890197909752958701949094526060860192909252608085015260a084015260c0830152151560e0820152610100016100e2565b6000806102f061283b565b6000868152600691909101602052604081209061030b61283b565b6000888152600791909101602090815260408083208984528252808320546001600160a01b03908116855291840194909452918301812054925163ae100e6d60e01b815286831660048201526024810188905292909116925090819081908190859063ae100e6d90604401608060405180830381600087803b15801561039057600080fd5b505af11580156103a4573d6000803e3d6000fd5b505050506040513d601f19601f820116820180604052508101906103c89190614a9d565b9350935093509350836000146104d1578015610456576103e661285f565b60405163312c474560e01b8152600481018b90526001600160a01b03898116602483015260448201859052919091169063312c474590606401600060405180830381600087803b15801561043957600080fd5b505af115801561044d573d6000803e3d6000fd5b505050506104d1565b61045e61285f565b6040516360e3f72960e11b8152600481018b90526001600160a01b0389811660248301526044820185905260648201879052919091169063c1c7ee5290608401600060405180830381600087803b1580156104b857600080fd5b505af11580156104cc573d6000803e3d6000fd5b505050505b5090979650505050505050565b60006104e861283b565b60008a8152600691909101602052604081209061050361283b565b60008c8152600791909101602090815260408083208d84528252808320546001600160a01b03908116855291840194909452919092018220541691508261054b576000610556565b610556898686612883565b9050600187600181111561056c5761056c614ade565b14156106705761057a612906565b6001600160a01b0316634ba0c9b5898c896040518463ffffffff1660e01b81526004016105a993929190614af4565b600060405180830381600087803b1580156105c357600080fd5b505af11580156105d7573d6000803e3d6000fd5b50505050816001600160a01b0316635b0b29308983886105f79190614b2b565b8c876040518563ffffffff1660e01b81526004016106189493929190614b43565b602060405180830381600087803b15801561063257600080fd5b505af1158015610646573d6000803e3d6000fd5b505050506040513d601f19601f8201168201806040525081019061066a9190614b6b565b5061076a565b610678612906565b6001600160a01b031663fb7bd3b4898c896040518463ffffffff1660e01b81526004016106a793929190614af4565b600060405180830381600087803b1580156106c157600080fd5b505af11580156106d5573d6000803e3d6000fd5b50505050816001600160a01b0316639e8d3d558983886106f59190614b88565b8c876040518563ffffffff1660e01b81526004016107169493929190614b43565b602060405180830381600087803b15801561073057600080fd5b505af1158015610744573d6000803e3d6000fd5b505050506040513d601f19601f820116820180604052508101906107689190614b6b565b505b801561082257600061077a61291e565b90506001600160a01b038316639e8d3d5582848d60008d60018111156107a2576107a2614ade565b146040518563ffffffff1660e01b81526004016107c29493929190614b43565b602060405180830381600087803b1580156107dc57600080fd5b505af11580156107f0573d6000803e3d6000fd5b505050506040513d601f19601f820116820180604052508101906108149190614b6b565b506108208b8b83612174565b505b888a896001600160a01b03167ff80dd09632f046e05472e1c239271a3b2ad3de73c27a1b03d0bb0329ba6716df8a8a8a60405161086193929190614b9f565b60405180910390a450505050505050505050565b6108c46040518061012001604052806000815260200160008152602001600081526020016000815260200160008152602001600081526020016000815260200160008152602001600081525090565b6040805160a08101825260008082526020820181905291810182905260608082015260808101919091528361094b57600181526108ff61283b565b600501600086815260200190815260200160002060008154811061092557610925614bd5565b600091825260209182902001546001600160a01b031690820152600160408201526109d5565b6000815261095761283b565b6000868152600791909101602090815260408083208784528252909120546001600160a01b03169082015261098a61283b565b60050160008681526020019081526020016000206000815481106109b0576109b0614bd5565b60009182526020918290200154908201516001600160a01b0390811691161460408201525b6109dd61285f565b60405163386320d360e11b8152600481018790526001600160a01b03858116602483015291909116906370c641a69060440160206040518083038186803b158015610a2757600080fd5b505afa158015610a3b573d6000803e3d6000fd5b505050506040513d601f19601f82011682018060405250810190610a5f9190614beb565b610100830152610a6f858461209e565b606082015260005b816060015151811015610eca576000610a8e61283b565b6007016000888152602001908152602001600020600084606001518481518110610aba57610aba614bd5565b6020026020010151815260200190815260200160002060009054906101000a90046001600160a01b031690506000816001600160a01b031663e16695b56040518163ffffffff1660e01b815260040160206040518083038186803b158015610b2157600080fd5b505afa158015610b35573d6000803e3d6000fd5b505050506040513d601f19601f82011682018060405250810190610b599190614beb565b90506000610b6561283b565b60050160008a8152602001908152602001600020600081548110610b8b57610b8b614bd5565b60009182526020909120015460408601516001600160a01b03858116921691909114915080610bcf575084602001516001600160a01b0316836001600160a01b0316145b15610eb4576000610be48a8988868887612937565b90506000610bf68b8a89878988612b27565b90506000610c088c8b8a888a89612cba565b8051835185519293509091610c1d9190614c04565b610c279190614c43565b8961010001818151610c399190614c43565b9052506020808201518382015191850151600092610c5691614c04565b610c609190614c43565b9050808a600001818151610c749190614c43565b9052508415610c8557608089018190525b6000811315610cb057610c9781612e4a565b8a602001818151610ca89190614b2b565b905250610cdf565b6000811215610cdf57610cca610cc582614c84565b612e4a565b8a604001818151610cdb9190614b2b565b9052505b8851610d1d57816040015183604001518560400151610cfe9190614c04565b610d089190614c43565b8a606001818151610d199190614c43565b9052505b82606001518a60c001818151610d339190614b2b565b905250606082015160808b018051610d4c908390614b2b565b905250608083015160e08b018051610d65908390614b2b565b905250608082015160a08b018051610d7e908390614b2b565b9052506101008a015160001315610eaf576000610d9961285f565b6001600160a01b031663aee1311e8f8d61010001518d606001518d81518110610dc457610dc4614bd5565b602002602001015160018f6060015151610dde9190614b88565b8e14610e115760608f0151610df48f6001614b2b565b81518110610e0457610e04614bd5565b6020026020010151610e14565b60005b6040516001600160e01b031960e087901b168152600481019490945260248401929092526044830152606482015260840160206040518083038186803b158015610e5d57600080fd5b505afa158015610e71573d6000803e3d6000fd5b505050506040513d601f19601f82011682018060405250810190610e959190614beb565b9050808b61010001818151610eaa9190614c43565b905250505b505050505b5050508080610ec290614ca1565b915050610a77565b5080604001518015610ee0575061010082015115155b1561118d576000610eef61285f565b610100840151604051637636e94160e01b8152600481018990526000602482015260448101919091526001600160a01b039190911690637636e9419060640160206040518083038186803b158015610f4657600080fd5b505afa158015610f5a573d6000803e3d6000fd5b505050506040513d601f19601f82011682018060405250810190610f7e9190614beb565b9050600061103a82610f8e61283b565b60050160008a8152602001908152602001600020600081548110610fb457610fb4614bd5565b60009182526020918290200154604080516371613c2d60e01b815290516001600160a01b03909216926371613c2d92600480840193829003018186803b158015610ffd57600080fd5b505afa158015611011573d6000803e3d6000fd5b505050506040513d601f19601f820116820180604052508101906110359190614beb565b612ea0565b9050808460000181815161104e9190614c43565b90525060008113156110e0576000836080015112156110be576000836080015161107790614c84565b82136110835781611091565b836080015161109190614c84565b905061109c81612e4a565b856040018181516110ad9190614b88565b9052506110ba8183614c04565b9150505b6110c781612e4a565b846020018181516110d89190614b2b565b90525061116e565b600081121561116e5760008360800151131561114d57600083608001518261110790614c84565b1361111a5761111582614c84565b611120565b83608001515b905061112b81612e4a565b8560200181815161113c9190614b88565b9052506111498183614c43565b9150505b611159610cc582614c84565b8460400181815161116a9190614b2b565b9052505b825161118a5781846060018181516111869190614c43565b9052505b50505b509392505050565b6000806000806000806000806111ad8a60008b610875565b9050806080015197508060a0015194508060c0015193508060e001519150806020015196508060400151925060008711156112855760006111ec612ec9565b6001600160a01b0316639abdb38a8c6040518263ffffffff1660e01b815260040161121991815260200190565b60206040518083038186803b15801561123157600080fd5b505afa158015611245573d6000803e3d6000fd5b505050506040513d601f19601f820116820180604052508101906112699190614beb565b905061128161271061127b838b614cbc565b90612ee9565b9650505b5092959891949750929550565b600061129c61283b565b6001600160a01b03831660009081526009919091016020526040812091505b6112c482612f5a565b8110156112f1576112de6112d88383612f64565b846112f6565b50806112e981614ca1565b9150506112bb565b505050565b60008080611304858561209e565b905060005b815181101561158557600061131c61283b565b6007016000888152602001908152602001600020600084848151811061134457611344614bd5565b6020026020010151815260200190815260200160002060009054906101000a90046001600160a01b031690506000816001600160a01b031663e16695b56040518163ffffffff1660e01b815260040160206040518083038186803b1580156113ab57600080fd5b505afa1580156113bf573d6000803e3d6000fd5b505050506040513d601f19601f820116820180604052508101906113e39190614beb565b905060006113f289838a6102e5565b90506000806114028b858c612f70565b9092509050611411828a614b2b565b98508015611427576114248b858c6102e5565b92505b821561143257600197505b8215801561143e575081155b156114af576114ad87878151811061145857611458614bd5565b602002602001015161146861283b565b600a0160008e815260200190815260200160002060008d6001600160a01b03166001600160a01b0316815260200190815260200160002061335a90919063ffffffff16565b505b6114b761285f565b6001600160a01b031663eeac29d88c8c60018b516114d59190614b88565b8a14611504578a6114e78b6001614b2b565b815181106114f7576114f7614bd5565b6020026020010151611507565b60005b6040516001600160e01b031960e086901b16815260048101939093526001600160a01b0390911660248301526044820152606401600060405180830381600087803b15801561155557600080fd5b505af1158015611569573d6000803e3d6000fd5b505050505050505050808061157d90614ca1565b915050611309565b5082158015611592575081155b801561162557506115a161285f565b60405163386320d360e11b8152600481018790526001600160a01b03868116602483015291909116906370c641a69060440160206040518083038186803b1580156115eb57600080fd5b505afa1580156115ff573d6000803e3d6000fd5b505050506040513d601f19601f820116820180604052508101906116239190614beb565b155b1561165a576116588561163661283b565b6001600160a01b0387166000908152600991909101602052604090209061335a565b505b505092915050565b6116b760405180610100016040528060006001600160a01b0316815260200160008152602001600081526020016000815260200160001515815260200160001515815260200160008152602001600081525090565b6116c184866112f6565b506116cc83866112f6565b5060006116da848488610875565b604001519050806117325760405162461bcd60e51b815260206004820181905260248201527f4e6f206465627420696e207468652073656c6563746564206d6174757269747960448201526064015b60405180910390fd5b61173a612906565b6001600160a01b0316635257ed678787611752612ec9565b6040516317338d9560e31b8152600481018a9052602481018b9052604481018790526001600160a01b03919091169063b99c6ca89060640160206040518083038186803b1580156117a257600080fd5b505afa1580156117b6573d6000803e3d6000fd5b505050506040513d601f19601f820116820180604052508101906117da9190614beb565b6040518463ffffffff1660e01b81526004016117f893929190614af4565b60606040518083038186803b15801561181057600080fd5b505afa158015611824573d6000803e3d6000fd5b505050506040513d601f19601f820116820180604052508101906118489190614cdb565b60608501526040840152602083018190526118a55760405162461bcd60e51b815260206004820152601a60248201527f557365722068617320656e6f75676820636f6c6c61746572616c0000000000006044820152606401611729565b60006118af612ec9565b60208401516040516317338d9560e31b8152600481018990526024810188905260448101919091526001600160a01b03919091169063b99c6ca89060640160206040518083038186803b15801561190557600080fd5b505afa158015611919573d6000803e3d6000fd5b505050506040513d601f19601f8201168201806040525081019061193d9190614beb565b905061194761283b565b600501600086815260200190815260200160002060008154811061196d5761196d614bd5565b6000918252602090912001546001600160a01b031661198a61283b565b6000878152600791909101602090815260408083208884529091529020546001600160a01b03161460808401526119bf61291e565b6001600160a01b031663b187bd266040518163ffffffff1660e01b815260040160206040518083038186803b1580156119f757600080fd5b505afa158015611a0b573d6000803e3d6000fd5b505050506040513d601f19601f82011682018060405250810190611a2f9190614b6b565b151560a0840152611a3e61291e565b6001600160a01b0316835260608301516020840151611a5d9190614b2b565b60c08401526000611a6c612906565b8451604080870151905163500d2f6d60e01b8152600481018b90526001600160a01b038c811660248301529283166044820152606481019190915291169063500d2f6d90608401602060405180830381600087803b158015611acd57600080fd5b505af1158015611ae1573d6000803e3d6000fd5b505050506040513d601f19601f82011682018060405250810190611b059190614beb565b90508015611b3157611b2588856000015189611b2085613366565b6133d0565b505060c0830151611bd3565b611b39612906565b60c085015160405163500d2f6d60e01b8152600481018a90526001600160a01b038b811660248301528c81166044830152606482019290925291169063500d2f6d90608401602060405180830381600087803b158015611b9857600080fd5b505af1158015611bac573d6000803e3d6000fd5b505050506040513d601f19601f82011682018060405250810190611bd09190614beb565b90505b8015611bee57611beb610cc5898b8a611b2086613366565b90505b600081118015611c0057508360a00151155b15611d52576000611c0f612ec9565b6040516317338d9560e31b8152600481018a905260248101899052604481018490526001600160a01b03919091169063b99c6ca89060640160206040518083038186803b158015611c5f57600080fd5b505afa158015611c73573d6000803e3d6000fd5b505050506040513d601f19601f82011682018060405250810190611c979190614beb565b9050611ca1612906565b6040516354821c2160e01b81526001600160a01b038b8116600483015291909116906354821c219060240160206040518083038186803b158015611ce457600080fd5b505afa158015611cf8573d6000803e3d6000fd5b505050506040513d601f19601f82011682018060405250810190611d1c9190614beb565b611d4457611d41610cc586600001518c8a8a611d3787613366565b8b608001516134e0565b90505b611d4e8184614b88565b9250505b6001600160a01b0389163b15611e445760c0840151604051630fa3ece160e11b81526001600160a01b038b811660048301819052908b166024830152604482018a90526064820192909252631f47d9c290608401602060405180830381600087803b158015611dc057600080fd5b505af1158015611dd4573d6000803e3d6000fd5b505050506040513d601f19601f82011682018060405250810190611df89190614b6b565b611e445760405162461bcd60e51b815260206004820152601b60248201527f496e76616c6964206f7065726174696f6e20657865637574696f6e00000000006044820152606401611729565b8115611f825760e08401829052611e74888a8888611e6187613366565b611e6a90614c84565b89608001516134e0565b506001600160a01b0389163b15611f825760c084015160e085015160405163091cad1b60e31b81526001600160a01b038c811660048301819052908c166024830152604482018b905260648201939093526084810189905260a4810188905260c48101919091526348e568d89060e401602060405180830381600087803b158015611efe57600080fd5b505af1158015611f12573d6000803e3d6000fd5b505050506040513d601f19601f82011682018060405250810190611f369190614b6b565b611f825760405162461bcd60e51b815260206004820152601b60248201527f496e76616c6964206f7065726174696f6e20657865637574696f6e00000000006044820152606401611729565b611f8a612906565b6040516325e1f09f60e01b81523360048201526001600160a01b0391909116906325e1f09f9060240160206040518083038186803b158015611fcb57600080fd5b505afa158015611fdf573d6000803e3d6000fd5b505050506040513d601f19601f820116820180604052508101906120039190614b6b565b6120455760405162461bcd60e51b815260206004820152601360248201527224b73b30b634b2103634b8bab4b230ba34b7b760691b6044820152606401611729565b8486896001600160a01b03167f347d8f9576f47b3bd7a4821cd3d3d4171968cdd36680d4abaca7de302d836f998a8660405161208b929190918252602082015260400190565b60405180910390a4505050505050505050565b60606120d66120ab61283b565b6000858152600a91909101602090815260408083206001600160a01b038716845290915290206139f3565b80519091501561216e57604051634f64581360e11b815273__$cd9358e65801d13c280787f44717df25ed$__90639ec8b02690612117908490600401614a26565b60006040518083038186803b15801561212f57600080fd5b505af4158015612143573d6000803e3d6000fd5b505050506040513d6000823e601f3d908101601f1916820160405261216b9190810190614d74565b90505b92915050565b6121ac8261218061283b565b6000868152600a91909101602090815260408083206001600160a01b0387168452909152902090613a07565b6112f1576121e8826121bc61283b565b6000868152600a91909101602090815260408083206001600160a01b0387168452909152902090613a1f565b50612217836121f561283b565b6001600160a01b03841660009081526009919091016020526040902090613a07565b6112f1576122498361222761283b565b6001600160a01b03841660009081526009919091016020526040902090613a1f565b50505050565b600061225b8483613a2b565b905060008113156122c257612279848361227484612e4a565b613bec565b60408051858152602081018390526001600160a01b038416917f93b0301fda99bfd2e8af22161527848125b3a6ae8e5bb83eed2f0313e758fa9c910160405180910390a2612249565b6000811215612249576122e284836122dc610cc585614c84565b86613e4c565b60408051858152602081018390526001600160a01b038416917f93b0301fda99bfd2e8af22161527848125b3a6ae8e5bb83eed2f0313e758fa9c910160405180910390a250505050565b600080600080600080600080600061234261283b565b60090160008d6001600160a01b03166001600160a01b0316815260200190815260200160002090506123a66040518060c001604052806060815260200160008019168152602001606081526020016060815260200160008152602001600081525090565b6123ae612906565b6001600160a01b0316633f90a08e6123c584614076565b6040518263ffffffff1660e01b81526004016123e19190614a26565b60006040518083038186803b1580156123f957600080fd5b505afa15801561240d573d6000803e3d6000fd5b505050506040513d6000823e601f3d908101601f191682016040526124359190810190614e0a565b8152608081018b905260005b61244a83612f5a565b81101561281d5761245b8382612f64565b602083015260408051600780825261010082019092529081602001602082028036833750505060408301526020820151612495908f611195565b88604001516000815181106124ac576124ac614bd5565b6020026020010189604001516001815181106124ca576124ca614bd5565b602002602001018a604001516002815181106124e8576124e8614bd5565b602002602001018b6040015160038151811061250657612506614bd5565b602002602001018c6040015160048151811061252457612524614bd5565b602002602001018d6040015160058151811061254257612542614bd5565b602002602001018e6040015160068151811061256057612560614bd5565b6020908102919091018101979097529690965295909452949093529390529290529190528201518d141561261f5781604001516006815181106125a5576125a5614bd5565b6020026020010151826080018181516125be9190614b2b565b9052506040820151805160039081106125d9576125d9614bd5565b602002602001015182604001516000815181106125f8576125f8614bd5565b602002602001015161260a9190614b2b565b8260a00181815161261b9190614b2b565b9052505b612627612ec9565b6001600160a01b0316638a2eae92836020015184604001516040518363ffffffff1660e01b815260040161265c929190614e99565b60006040518083038186803b15801561267457600080fd5b505afa158015612688573d6000803e3d6000fd5b505050506040513d6000823e601f3d908101601f191682016040526126b09190810190614d74565b60608301819052805160019081106126ca576126ca614bd5565b60200260200101518a6126dd9190614b2b565b995081606001516002815181106126f6576126f6614bd5565b6020026020010151896127099190614b2b565b9850816060015160048151811061272257612722614bd5565b6020026020010151876127359190614b2b565b9650816060015160058151811061274e5761274e614bd5565b6020026020010151866127619190614b2b565b95508160000151818151811061277957612779614bd5565b60200260200101511561280b57816060015160008151811061279d5761279d614bd5565b60200260200101518b6127b09190614b2b565b9a5081606001516003815181106127c9576127c9614bd5565b6020026020010151886127dc9190614b2b565b975081606001516006815181106127f5576127f5614bd5565b6020026020010151856128089190614b2b565b94505b8061281581614ca1565b915050612441565b508060a0015181608001511015925050509397509397509397509397565b7f8041b8421ebd495cc61f38c788c9eb100daccf9bd36aa0bb920b7a15b2e0496590565b600061287e7011d95b995cda5cd5985b1d5955985d5b1d607a1b614081565b905090565b60008342106128c75760405162461bcd60e51b815260206004820152601060248201526f496e76616c6964206d6174757269747960801b6044820152606401611729565b60006128d34286614b88565b90506128fd6128e86127106301e13380614cbc565b856128f38487614cbc565b61127b9190614cbc565b95945050505050565b600061287e69151bdad95b95985d5b1d60b21b614081565b600061287e6a14995cd95c9d99519d5b9960aa1b614081565b61295b60405180606001604052806000815260200160008152602001600081525090565b60008061296661283b565b60008a8152600691909101602090815260408083206001600160a01b03898116855292529182902054915163070da1af60e11b81528a82166004820152911690630e1b435e90602401604080518083038186803b1580156129c657600080fd5b505afa1580156129da573d6000803e3d6000fd5b505050506040513d601f19601f820116820180604052508101906129fe9190614eda565b9150915081600014612b1b57808614612ab457866040015115612aaf57612a2361285f565b604051630c30971960e11b8152600481018b905260248101839052604481018490526001600160a01b0391909116906318612e32906064015b60206040518083038186803b158015612a7457600080fd5b505afa158015612a88573d6000803e3d6000fd5b505050506040513d601f19601f82011682018060405250810190612aac9190614beb565b83525b612b1b565b80861415612b1b5786518015612ac8575083155b15612ae757612ad8898284614119565b60408501526020840152612b1b565b865180612af657508660400151155b80612afe5750835b15612b1b5760408301829052612b15898284614346565b60208401525b50509695505050505050565b612b596040518060a0016040528060008152602001600081526020016000815260200160008152602001600081525090565b604051631c7b209b60e31b81526001600160a01b038781166004830152600091829186169063e3d904d89060240160806040518083038186803b158015612b9f57600080fd5b505afa158015612bb3573d6000803e3d6000fd5b505050506040513d601f19601f82011682018060405250810190612bd79190614efe565b6080870192909252606086019290925290925090508115612b1b57808614612c5557866040015115612aaf57612c0b61285f565b6001600160a01b03166318612e328a83612c2486613366565b6040516001600160e01b031960e086901b168152600481019390935260248301919091526044820152606401612a5c565b80861415612b1b5786518015612c69575083155b15612c8157612ad88982612c7c85613366565b614119565b865180612c9057508660400151155b80612c985750835b15612b1b57612ca682613366565b60408401819052612b15908a908390614346565b612cec6040518060a0016040528060008152602001600081526020016000815260200160008152602001600081525090565b6040516339f7dda360e21b81526001600160a01b038781166004830152600091829186169063e7df768c9060240160806040518083038186803b158015612d3257600080fd5b505afa158015612d46573d6000803e3d6000fd5b505050506040513d601f19601f82011682018060405250810190612d6a9190614efe565b6080870192909252606086019290925290925090508115612b1b57808614612c5557866040015115612aaf57612d9e61285f565b6001600160a01b03166318612e328a83612db786613366565b6040516001600160e01b031960e086901b16815260048101939093526024830191909152604482015260640160206040518083038186803b158015612dfb57600080fd5b505afa158015612e0f573d6000803e3d6000fd5b505050506040513d601f19601f82011682018060405250810190612e339190614beb565b83518490612e42908390614c43565b905250612b1b565b600080821215612e9c5760405162461bcd60e51b815260206004820181905260248201527f53616665436173743a2076616c7565206d75737420626520706f7369746976656044820152606401611729565b5090565b600061216b612eb0612710613366565b612eb984613366565b612ec39086614f34565b906143f0565b600061287e7121bab93932b731bca1b7b73a3937b63632b960711b614081565b6000808211612ef757600080fd5b6005612f038385614fcf565b612f0e90600a614cbc565b83612f1a86600a614cbc565b612f249190614fcf565b612f2e9190614b88565b1015612f4557612f3e8284614fcf565b905061216e565b612f4f8284614fcf565b612f3e906001614b2b565b600061216e825490565b600061216b8383614483565b6000806000612f7d61283b565b60008781526006919091016020526040812090612f9861283b565b6000898152600791909101602090815260408083208a84528252808320546001600160a01b0390811685529184019490945291909201822054169150808080808080612fe261283b565b60008e8152600791909101602090815260408083208f845290915290819020549051633d4eccdf60e01b81526001600160a01b038d8116600483015290911690633d4eccdf9060240160e060405180830381600087803b15801561304557600080fd5b505af1158015613059573d6000803e3d6000fd5b505050506040513d601f19601f8201168201806040525081019061307d9190614fe3565b96509650965096509650965096508183111561310a5761309b612906565b6001600160a01b031663fb7bd3b48c8f6130b58688614b88565b6040518463ffffffff1660e01b81526004016130d393929190614af4565b600060405180830381600087803b1580156130ed57600080fd5b505af1158015613101573d6000803e3d6000fd5b50505050613185565b818310156131855761311a612906565b6001600160a01b0316634ba0c9b58c8f6131348787614b88565b6040518463ffffffff1660e01b815260040161315293929190614af4565b600060405180830381600087803b15801561316c57600080fd5b505af1158015613180573d6000803e3d6000fd5b505050505b841561325a57604051639e8d3d5560e01b81526001600160a01b03891690639e8d3d55906131be908e9089908690600090600401614b43565b602060405180830381600087803b1580156131d857600080fd5b505af11580156131ec573d6000803e3d6000fd5b505050506040513d601f19601f820116820180604052508101906132109190614b6b565b50808d8c6001600160a01b03167fba00994778888e87ce0908fd360c4b0417bfe7e274cce4cb72ed8a60b38b3e386000878a60405161325193929190614b9f565b60405180910390a45b831561332f576040516305b0b29360e41b81526001600160a01b03891690635b0b293090613293908e9088908690600090600401614b43565b602060405180830381600087803b1580156132ad57600080fd5b505af11580156132c1573d6000803e3d6000fd5b505050506040513d601f19601f820116820180604052508101906132e59190614b6b565b50808d8c6001600160a01b03167fba00994778888e87ce0908fd360c4b0417bfe7e274cce4cb72ed8a60b38b3e386001868960405161332693929190614b9f565b60405180910390a45b600061333b8587614b2b565b1198506133488688614b2b565b99505050505050505050935093915050565b600061216b83836144ad565b60006001600160ff1b03821115612e9c5760405162461bcd60e51b815260206004820152602860248201527f53616665436173743a2076616c756520646f65736e27742066697420696e2061604482015267371034b73a191a9b60c11b6064820152608401611729565b6000806133dd848761209e565b905060006133e961283b565b600501600086815260200190815260200160002060008154811061340f5761340f614bd5565b60009182526020822001548594506001600160a01b031691505b82518110156134d5578361343c576134d5565b6134c188888886858151811061345457613454614bd5565b602002602001015188876001600160a01b031661346f61283b565b60070160008e815260200190815260200160002060008b8a8151811061349757613497614bd5565b6020908102919091018101518252810191909152604001600020546001600160a01b0316146134e0565b9350806134cd81614ca1565b915050613429565b505050949350505050565b816000811282156138195760006134f561285f565b60405163386320d360e11b8152600481018990526001600160a01b038b8116602483015291909116906370c641a69060440160206040518083038186803b15801561353f57600080fd5b505afa158015613553573d6000803e3d6000fd5b505050506040513d601f19601f820116820180604052508101906135779190614beb565b90508180156135865750600081125b8061359a57508115801561359a5750600081135b156138175760006135a961285f565b6001600160a01b03166349a1d218896040518263ffffffff1660e01b81526004016135d691815260200190565b60206040518083038186803b1580156135ee57600080fd5b505afa158015613602573d6000803e3d6000fd5b505050506040513d601f19601f820116820180604052508101906136269190614beb565b9050600061363261285f565b6001600160a01b03166318612e328a600061364e8d878b6145a0565b6040516001600160e01b031960e086901b16815260048101939093526024830191909152604482015260640160206040518083038186803b15801561369257600080fd5b505afa1580156136a6573d6000803e3d6000fd5b505050506040513d601f19601f820116820180604052508101906136ca9190614beb565b90508380156136d857508083135b806136eb5750831580156136eb57508083125b156136f35750815b6136fb61285f565b604051633916cf2b60e21b8152600481018b90526001600160a01b038d811660248301528c8116604483015260648201849052919091169063e45b3cac90608401600060405180830381600087803b15801561375657600080fd5b505af115801561376a573d6000803e3d6000fd5b50505050613808898361377b61285f565b604051637636e94160e01b8152600481018e905260006024820152604481018690526001600160a01b039190911690637636e9419060640160206040518083038186803b1580156137cb57600080fd5b505afa1580156137df573d6000803e3d6000fd5b505050506040513d601f19601f820116820180604052508101906138039190614beb565b614346565b6138129086614c04565b945050505b505b600061382361283b565b6000888152600691909101602052604081209061383e61283b565b60008a8152600791909101602090815260408083208b84528252808320546001600160a01b03908116855291840194909452918301812054925163070da1af60e11b81528c83166004820152929091169250908290630e1b435e90602401604080518083038186803b1580156138b357600080fd5b505afa1580156138c7573d6000803e3d6000fd5b505050506040513d601f19601f820116820180604052508101906138eb9190614eda565b5090508280156138fb5750600081125b8061390f57508215801561390f5750600081135b156139d45760006139218989876145a0565b905083801561392f57508082135b8061394257508315801561394257508082125b1561394a5750805b604051630c02764960e31b81526001600160a01b038c811660048301528b8116602483015260448201839052606482018a9052841690636013b24890608401600060405180830381600087803b1580156139a357600080fd5b505af11580156139b7573d6000803e3d6000fd5b505050506139c6898983614346565b6139d09086614c04565b9450505b8386146139e6576139e688888b612174565b5050509695505050505050565b60606000613a0083614657565b9392505050565b6000818152600183016020526040812054151561216b565b600061216b83836146b3565b6000613a3783836112f6565b50613a4483600084610875565b5190506000613a7f613a5461283b565b6000868152600a91909101602090815260408083206001600160a01b038816845290915290206139f3565b905060005b8151811015613b7857613a9561283b565b60008681526006919091016020526040812090613ab061283b565b60070160008881526020019081526020016000206000858581518110613ad857613ad8614bd5565b60209081029190910181015182528181019290925260409081016000908120546001600160a01b039081168552928401949094529182019092205490516366c9d55160e01b815286831660048201529116906366c9d55190602401600060405180830381600087803b158015613b4d57600080fd5b505af1158015613b61573d6000803e3d6000fd5b505050508080613b7090614ca1565b915050613a84565b50613b8161285f565b60405163b340398d60e01b8152600481018690526001600160a01b038581166024830152919091169063b340398d90604401600060405180830381600087803b158015613bcd57600080fd5b505af1158015613be1573d6000803e3d6000fd5b505050505092915050565b6000613bf6612906565b6001600160a01b031663d5e190d06040518163ffffffff1660e01b815260040160006040518083038186803b158015613c2e57600080fd5b505afa158015613c42573d6000803e3d6000fd5b505050506040513d6000823e601f3d908101601f19168201604052613c6a9190810190614d74565b90506000815167ffffffffffffffff811115613c8857613c88614d09565b604051908082528060200260200182016040528015613cb1578160200160208202803683370190505b5090506000805b8351811015613d55576000848281518110613cd557613cd5614bd5565b60200260200101519050613ce761283b565b600401600082815260200190815260200160002054848381518110613d0e57613d0e614bd5565b602002602001018181525050838281518110613d2c57613d2c614bd5565b602002602001015183613d3f9190614b2b565b9250508080613d4d90614ca1565b915050613cb8565b506000613d628786614702565b905060005b8451811015613e42576000858281518110613d8457613d84614bd5565b602002602001015190506000613dc282613dbd87898781518110613daa57613daa614bd5565b60200260200101518861127b9190614cbc565b6147df565b9050613dcc612906565b6001600160a01b0316634ba0c9b58a84846040518463ffffffff1660e01b8152600401613dfb93929190614af4565b600060405180830381600087803b158015613e1557600080fd5b505af1158015613e29573d6000803e3d6000fd5b5050505050508080613e3a90614ca1565b915050613d67565b5050505050505050565b613e54612906565b6001600160a01b0316635d95df8a826040518263ffffffff1660e01b8152600401613e8191815260200190565b60206040518083038186803b158015613e9957600080fd5b505afa158015613ead573d6000803e3d6000fd5b505050506040513d601f19601f82011682018060405250810190613ed19190614b6b565b613f1d5760405162461bcd60e51b815260206004820152601c60248201527f4e6f74207265676973746572656420617320636f6c6c61746572616c000000006044820152606401611729565b6000613f27612906565b604051630129e6bf60e11b81526001600160a01b038681166004830152602482018590529190911690630253cd7e9060440160206040518083038186803b158015613f7157600080fd5b505afa158015613f85573d6000803e3d6000fd5b505050506040513d601f19601f82011682018060405250810190613fa99190614beb565b90506000613fbb83613dbd8887614702565b9050808210156140055760405162461bcd60e51b8152602060048201526015602482015274139bdd08195b9bdd59da0818dbdb1b185d195c985b605a1b6044820152606401611729565b61400d612906565b6001600160a01b031663fb7bd3b48685846040518463ffffffff1660e01b815260040161403c93929190614af4565b600060405180830381600087803b15801561405657600080fd5b505af115801561406a573d6000803e3d6000fd5b50505050505050505050565b606061216e82614657565b60008181527f4abde63c3e81aefa5764b017968bc473e83e093d7e1a10247d19e0a3e41240196020908152604080832054815170026b4b9b9b4b7339030b2323932b9b99d1607d1b9381019390935260318084018690528251808503909101815260519093019091526001600160a01b031690816141125760405162461bcd60e51b81526004016117299190615037565b5092915050565b600080600061412661283b565b600501600087815260200190815260200160002060008154811061414c5761414c614bd5565b6000918252602080832090910154604080516371613c2d60e01b815290516001600160a01b03909216945084926371613c2d92600480840193829003018186803b15801561419957600080fd5b505afa1580156141ad573d6000803e3d6000fd5b505050506040513d601f19601f820116820180604052508101906141d19190614beb565b90506141db61285f565b60405163474611f160e01b815260048101899052602481018890526001600160a01b03919091169063474611f19060440160a06040518083038186803b15801561422457600080fd5b505afa158015614238573d6000803e3d6000fd5b505050506040513d601f19601f8201168201806040525081019061425c919061508c565b516142965761426c878787614346565b935061428f61427a82613366565b614285612710613366565b612ec39087614f34565b925061433c565b61429e61285f565b604051631b736f6760e31b8152600481018990526024810188905260006044820152606481018790526001600160a01b03919091169063db9b7b389060840160206040518083038186803b1580156142f557600080fd5b505afa158015614309573d6000803e3d6000fd5b505050506040513d601f19601f8201168201806040525081019061432d9190614beb565b92506143398382612ea0565b93505b5050935093915050565b60008061435161283b565b6000868152600791909101602090815260408083208784528252918290205482516371613c2d60e01b815292516001600160a01b03909116926371613c2d926004808301939192829003018186803b1580156143ac57600080fd5b505afa1580156143c0573d6000803e3d6000fd5b505050506040513d601f19601f820116820180604052508101906143e49190614beb565b90506128fd8382612ea0565b6000816143fc57600080fd5b600061440883856150fc565b61441390600a614f34565b8361441f86600a614f34565b61442991906150fc565b6144339190614c04565b90506005811261445a5761444783856150fc565b614452906001614c43565b91505061216e565b600419811361447957600161446f84866150fc565b6144529190614c04565b61445283856150fc565b600082600001828154811061449a5761449a614bd5565b9060005260206000200154905092915050565b600081815260018301602052604081205480156145965760006144d1600183614b88565b85549091506000906144e590600190614b88565b905081811461454a57600086600001828154811061450557614505614bd5565b906000526020600020015490508087600001848154811061452857614528614bd5565b6000918252602080832090910192909255918252600188019052604090208390555b855486908061455b5761455b61512a565b60019003818190600052602060002001600090559055856001016000868152602001908152602001600020600090556001935050505061216e565b600091505061216e565b6000806146466145ae61283b565b6000878152600791909101602090815260408083208884528252918290205482516371613c2d60e01b815292516001600160a01b03909116926371613c2d926004808301939192829003018186803b15801561460957600080fd5b505afa15801561461d573d6000803e3d6000fd5b505050506040513d601f19601f820116820180604052508101906146419190614beb565b613366565b90506128fd81612eb9612710613366565b6060816000018054806020026020016040519081016040528092919081815260200182805480156146a757602002820191906000526020600020905b815481526020019060010190808311614693575b50505050509050919050565b60008181526001830160205260408120546146fa5750815460018181018455600084815260208082209093018490558454848252828601909352604090209190915561216e565b50600061216e565b600061470c61283b565b5483141561471b57508061216e565b6000614725612ec9565b6001600160a01b03166312105fea856040518263ffffffff1660e01b815260040161475291815260200190565b60206040518083038186803b15801561476a57600080fd5b505afa15801561477e573d6000803e3d6000fd5b505050506040513d601f19601f820116820180604052508101906147a29190615140565b90506144526147b282600a615247565b6147d56147bd61283b565b60008881526003919091016020526040902054612e4a565b61127b9086614cbc565b60006147e961283b565b548314156147f857508061216e565b6000614802612ec9565b6001600160a01b03166312105fea856040518263ffffffff1660e01b815260040161482f91815260200190565b60206040518083038186803b15801561484757600080fd5b505afa15801561485b573d6000803e3d6000fd5b505050506040513d601f19601f8201168201806040525081019061487f9190615140565b90506144526148a761488f61283b565b60008781526003919091016020526040902054612e4a565b6147d583600a615247565b80356001600160a01b03811681146148c957600080fd5b919050565b6000806000606084860312156148e357600080fd5b83359250602084013591506148fa604085016148b2565b90509250925092565b801515811461491157600080fd5b50565b600080600080600080600080610100898b03121561493157600080fd5b883597506020890135965061494860408a016148b2565b955060608901356002811061495c57600080fd5b94506080890135935060a0890135925060c0890135915060e089013561498181614903565b809150509295985092959890939650565b600080604083850312156149a557600080fd5b823591506149b5602084016148b2565b90509250929050565b6000602082840312156149d057600080fd5b61216b826148b2565b600080600080600060a086880312156149f157600080fd5b6149fa866148b2565b9450614a08602087016148b2565b94979496505050506040830135926060810135926080909101359150565b6020808252825182820181905260009190848201906040850190845b81811015614a5e57835183529284019291840191600101614a42565b50909695505050505050565b600080600060608486031215614a7f57600080fd5b614a88846148b2565b95602085013595506040909401359392505050565b60008060008060808587031215614ab357600080fd5b8451935060208501519250604085015191506060850151614ad381614903565b939692955090935050565b634e487b7160e01b600052602160045260246000fd5b6001600160a01b039390931683526020830191909152604082015260600190565b634e487b7160e01b600052601160045260246000fd5b60008219821115614b3e57614b3e614b15565b500190565b6001600160a01b03949094168452602084019290925260408301521515606082015260800190565b600060208284031215614b7d57600080fd5b8151613a0081614903565b600082821015614b9a57614b9a614b15565b500390565b6060810160028510614bc157634e487b7160e01b600052602160045260246000fd5b938152602081019290925260409091015290565b634e487b7160e01b600052603260045260246000fd5b600060208284031215614bfd57600080fd5b5051919050565b60008083128015600160ff1b850184121615614c2257614c22614b15565b6001600160ff1b0384018313811615614c3d57614c3d614b15565b50500390565b600080821280156001600160ff1b0384900385131615614c6557614c65614b15565b600160ff1b8390038412811615614c7e57614c7e614b15565b50500190565b6000600160ff1b821415614c9a57614c9a614b15565b5060000390565b6000600019821415614cb557614cb5614b15565b5060010190565b6000816000190483118215151615614cd657614cd6614b15565b500290565b600080600060608486031215614cf057600080fd5b8351925060208401519150604084015190509250925092565b634e487b7160e01b600052604160045260246000fd5b604051601f8201601f1916810167ffffffffffffffff81118282101715614d4857614d48614d09565b604052919050565b600067ffffffffffffffff821115614d6a57614d6a614d09565b5060051b60200190565b60006020808385031215614d8757600080fd5b825167ffffffffffffffff811115614d9e57600080fd5b8301601f81018513614daf57600080fd5b8051614dc2614dbd82614d50565b614d1f565b81815260059190911b82018301908381019087831115614de157600080fd5b928401925b82841015614dff57835182529284019290840190614de6565b979650505050505050565b60006020808385031215614e1d57600080fd5b825167ffffffffffffffff811115614e3457600080fd5b8301601f81018513614e4557600080fd5b8051614e53614dbd82614d50565b81815260059190911b82018301908381019087831115614e7257600080fd5b928401925b82841015614dff578351614e8a81614903565b82529284019290840190614e77565b6000604082018483526020604081850152818551808452606086019150828701935060005b818110156104d157845183529383019391830191600101614ebe565b60008060408385031215614eed57600080fd5b505080516020909101519092909150565b60008060008060808587031215614f1457600080fd5b505082516020840151604085015160609095015191969095509092509050565b60006001600160ff1b0381841382841380821686840486111615614f5a57614f5a614b15565b600160ff1b6000871282811687830589121615614f7957614f79614b15565b60008712925087820587128484161615614f9557614f95614b15565b87850587128184161615614fab57614fab614b15565b505050929093029392505050565b634e487b7160e01b600052601260045260246000fd5b600082614fde57614fde614fb9565b500490565b600080600080600080600060e0888a031215614ffe57600080fd5b5050855160208701516040880151606089015160808a015160a08b015160c0909b0151949c939b50919990985090965094509092509050565b600060208083528351808285015260005b8181101561506457858101830151858201604001528201615048565b81811115615076576000604083870101525b50601f01601f1916929092016040019392505050565b600060a0828403121561509e57600080fd5b60405160a0810181811067ffffffffffffffff821117156150c1576150c1614d09565b806040525082518152602083015160208201526040830151604082015260608301516060820152608083015160808201528091505092915050565b60008261510b5761510b614fb9565b600160ff1b82146000198414161561512557615125614b15565b500590565b634e487b7160e01b600052603160045260246000fd5b60006020828403121561515257600080fd5b815160ff81168114613a0057600080fd5b600181815b8085111561519e57816000190482111561518457615184614b15565b8085161561519157918102915b93841c9390800290615168565b509250929050565b6000826151b55750600161216e565b816151c25750600061216e565b81600181146151d857600281146151e2576151fe565b600191505061216e565b60ff8411156151f3576151f3614b15565b50506001821b61216e565b5060208310610133831016604e8410600b8410161715615221575081810a61216e565b61522b8383615163565b806000190482111561523f5761523f614b15565b029392505050565b600061216b60ff8416836151a656fea264697066735822122088d79dfd5caf0440b6770f9275d83d4290d001f7651f4032dd760480494b438364736f6c63430008090033",
  "libraries": {
    "QuickSort": "0xDEaafdfd0E28973EC8ff292547BfD190260DfC6C"
  },
  "devdoc": {
    "kind": "dev",
    "methods": {
      "convertFutureValueToGenesisValue(bytes32,uint256,address)": {
        "params": {
          "_ccy": "Currency for pausing all lending markets",
          "_user": "User's address"
        },
        "returns": {
          "_0": "Current future value amount after update"
        }
      }
    },
    "version": 1
  },
  "userdoc": {
    "kind": "user",
    "methods": {
      "convertFutureValueToGenesisValue(bytes32,uint256,address)": {
        "notice": "Converts the future value to the genesis value if there is balance in the past maturity."
      }
    },
    "version": 1
  },
  "storageLayout": {
    "storage": [],
    "types": null
  }
}