{
  "address": "0x4B7c10458a537146ca695Fa62d3C9cF6eA2514ab",
  "abi": [
    {
      "anonymous": false,
      "inputs": [
        {
          "indexed": true,
          "internalType": "address",
          "name": "taker",
          "type": "address"
        },
        {
          "indexed": true,
          "internalType": "bytes32",
          "name": "ccy",
          "type": "bytes32"
        },
        {
          "indexed": false,
          "internalType": "enum ProtocolTypes.Side",
          "name": "side",
          "type": "uint8"
        },
        {
          "indexed": true,
          "internalType": "uint256",
          "name": "maturity",
          "type": "uint256"
        },
        {
          "indexed": false,
          "internalType": "uint256",
          "name": "amount",
          "type": "uint256"
        },
        {
          "indexed": false,
          "internalType": "uint256",
          "name": "futureValue",
          "type": "uint256"
        }
      ],
      "name": "OrderFilled",
      "type": "event"
    },
    {
      "anonymous": false,
      "inputs": [
        {
          "indexed": true,
          "internalType": "address",
          "name": "taker",
          "type": "address"
        },
        {
          "indexed": true,
          "internalType": "bytes32",
          "name": "ccy",
          "type": "bytes32"
        },
        {
          "indexed": false,
          "internalType": "enum ProtocolTypes.Side",
          "name": "side",
          "type": "uint8"
        },
        {
          "indexed": true,
          "internalType": "uint256",
          "name": "maturity",
          "type": "uint256"
        },
        {
          "indexed": false,
          "internalType": "uint256",
          "name": "amount",
          "type": "uint256"
        },
        {
          "indexed": false,
          "internalType": "uint256",
          "name": "futureValue",
          "type": "uint256"
        }
      ],
      "name": "OrdersFilledInAsync",
      "type": "event"
    },
    {
      "inputs": [
        {
          "internalType": "bytes32",
          "name": "_ccy",
          "type": "bytes32"
        },
        {
          "internalType": "uint256",
          "name": "_maturity",
          "type": "uint256"
        },
        {
          "internalType": "address",
          "name": "_user",
          "type": "address"
        }
      ],
      "name": "calculateActualFunds",
      "outputs": [
        {
          "components": [
            {
              "internalType": "int256",
              "name": "presentValue",
              "type": "int256"
            },
            {
              "internalType": "int256",
              "name": "futureValue",
              "type": "int256"
            },
            {
              "internalType": "uint256",
              "name": "workingLendOrdersAmount",
              "type": "uint256"
            },
            {
              "internalType": "uint256",
              "name": "lentAmount",
              "type": "uint256"
            },
            {
              "internalType": "uint256",
              "name": "workingBorrowOrdersAmount",
              "type": "uint256"
            },
            {
              "internalType": "uint256",
              "name": "borrowedAmount",
              "type": "uint256"
            },
            {
              "internalType": "int256",
              "name": "genesisValue",
              "type": "int256"
            }
          ],
          "internalType": "struct FundManagementLogic.ActualFunds",
          "name": "actualFunds",
          "type": "tuple"
        }
      ],
      "stateMutability": "view",
      "type": "function"
    },
    {
      "inputs": [
        {
          "internalType": "bytes32",
          "name": "_ccy",
          "type": "bytes32"
        },
        {
          "internalType": "address",
          "name": "_user",
          "type": "address"
        }
      ],
      "name": "calculateFunds",
      "outputs": [
        {
          "internalType": "uint256",
          "name": "workingLendOrdersAmount",
          "type": "uint256"
        },
        {
          "internalType": "uint256",
          "name": "claimableAmount",
          "type": "uint256"
        },
        {
          "internalType": "uint256",
          "name": "collateralAmount",
          "type": "uint256"
        },
        {
          "internalType": "uint256",
          "name": "lentAmount",
          "type": "uint256"
        },
        {
          "internalType": "uint256",
          "name": "workingBorrowOrdersAmount",
          "type": "uint256"
        },
        {
          "internalType": "uint256",
          "name": "debtAmount",
          "type": "uint256"
        },
        {
          "internalType": "uint256",
          "name": "borrowedAmount",
          "type": "uint256"
        }
      ],
      "stateMutability": "view",
      "type": "function"
    },
    {
      "inputs": [
        {
          "internalType": "address",
          "name": "_user",
          "type": "address"
        },
        {
          "internalType": "bytes32",
          "name": "_depositCcy",
          "type": "bytes32"
        },
        {
          "internalType": "uint256",
          "name": "_depositAmount",
          "type": "uint256"
        }
      ],
      "name": "calculateTotalFundsInETH",
      "outputs": [
        {
          "internalType": "uint256",
          "name": "totalWorkingLendOrdersAmount",
          "type": "uint256"
        },
        {
          "internalType": "uint256",
          "name": "totalClaimableAmount",
          "type": "uint256"
        },
        {
          "internalType": "uint256",
          "name": "totalCollateralAmount",
          "type": "uint256"
        },
        {
          "internalType": "uint256",
          "name": "totalLentAmount",
          "type": "uint256"
        },
        {
          "internalType": "uint256",
          "name": "totalWorkingBorrowOrdersAmount",
          "type": "uint256"
        },
        {
          "internalType": "uint256",
          "name": "totalDebtAmount",
          "type": "uint256"
        },
        {
          "internalType": "uint256",
          "name": "totalBorrowedAmount",
          "type": "uint256"
        },
        {
          "internalType": "bool",
          "name": "isEnoughDeposit",
          "type": "bool"
        }
      ],
      "stateMutability": "view",
      "type": "function"
    },
    {
      "inputs": [
        {
          "internalType": "bytes32",
          "name": "_ccy",
          "type": "bytes32"
        },
        {
          "internalType": "address",
          "name": "_user",
          "type": "address"
        }
      ],
      "name": "getUsedMaturities",
      "outputs": [
        {
          "internalType": "uint256[]",
          "name": "maturities",
          "type": "uint256[]"
        }
      ],
      "stateMutability": "view",
      "type": "function"
    }
  ],
  "transactionHash": "0xfd6b78e30836b7f12e34f57ff81ff5f0fb19c09090e58197ea71df0d71ee2257",
  "args": [],
  "numDeployments": 2,
  "solcInputHash": "ada77009842fecfdc529f2209931b39a",
  "bytecode": "0x614f2b61003a600b82828239805160001a60731461002d57634e487b7160e01b600052600060045260246000fd5b30600052607381538281f3fe73000000000000000000000000000000000000000030146080604052600436106100d95760003560e01c8063826b47e811610096578063a86c2a3e11610070578063a86c2a3e146102b4578063b61ef55a146102d4578063b6eb033d146102f4578063bab7ae171461031457600080fd5b8063826b47e8146102545780639519832b146102745780639aaf86491461029457600080fd5b80630312b528146100de5780631696a4cd14610133578063300074c914610155578063390e5d12146101835780634ad23880146101a35780635c3477651461020c575b600080fd5b6100f16100ec3660046144fd565b610334565b604080519889526020890197909752958701949094526060860192909252608085015260a084015260c0830152151560e0820152610100015b60405180910390f35b81801561013f57600080fd5b5061015361014e366004614530565b610843565b005b81801561016157600080fd5b50610175610170366004614565565b610aa9565b60405190815260200161012a565b81801561018f57600080fd5b5061015361019e3660046145ab565b610ca2565b6101b66101b1366004614565565b611020565b60405161012a9190600060e082019050825182526020830151602083015260408301516040830152606083015160608301526080830151608083015260a083015160a083015260c083015160c083015292915050565b61021f61021a366004614629565b611783565b604080519788526020880196909652948601939093526060850191909152608084015260a083015260c082015260e00161012a565b81801561026057600080fd5b5061015361026f366004614655565b6118a2565b81801561028057600080fd5b5061017561028f366004614629565b611906565b8180156102a057600080fd5b506101536102af366004614670565b611c72565b8180156102c057600080fd5b506101756102cf3660046146ab565b611ea1565b6102e76102e2366004614629565b6127c1565b60405161012a91906146f8565b81801561030057600080fd5b5061015361030f366004614565565b612897565b81801561032057600080fd5b5061017561032f366004614629565b612972565b600080600080600080600080600061034a612b33565b60080160008d6001600160a01b03166001600160a01b0316815260200190815260200160002090506103ae6040518060c001604052806060815260200160008019168152602001606081526020016060815260200160008152602001600081525090565b6103b6612b57565b6001600160a01b0316633f90a08e6103cd84612b74565b6040518263ffffffff1660e01b81526004016103e991906146f8565b60006040518083038186803b15801561040157600080fd5b505afa158015610415573d6000803e3d6000fd5b505050506040513d6000823e601f3d908101601f1916820160405261043d91908101906147a7565b8152608081018b905260005b61045283612b7f565b811015610825576104638382612b89565b60208301526040805160078082526101008201909252908160200160208202803683375050506040830152602082015161049d908f611783565b88604001516000815181106104b4576104b4614846565b6020026020010189604001516001815181106104d2576104d2614846565b602002602001018a604001516002815181106104f0576104f0614846565b602002602001018b6040015160038151811061050e5761050e614846565b602002602001018c6040015160048151811061052c5761052c614846565b602002602001018d6040015160058151811061054a5761054a614846565b602002602001018e6040015160068151811061056857610568614846565b6020908102919091018101979097529690965295909452949093529390529290529190528201518d14156106275781604001516006815181106105ad576105ad614846565b6020026020010151826080018181516105c69190614872565b9052506040820151805160039081106105e1576105e1614846565b6020026020010151826040015160008151811061060057610600614846565b60200260200101516106129190614872565b8260a0018181516106239190614872565b9052505b61062f612b95565b6001600160a01b0316638a2eae92836020015184604001516040518363ffffffff1660e01b815260040161066492919061488a565b60006040518083038186803b15801561067c57600080fd5b505afa158015610690573d6000803e3d6000fd5b505050506040513d6000823e601f3d908101601f191682016040526106b891908101906148cb565b60608301819052805160019081106106d2576106d2614846565b60200260200101518a6106e59190614872565b995081606001516002815181106106fe576106fe614846565b6020026020010151896107119190614872565b9850816060015160048151811061072a5761072a614846565b60200260200101518761073d9190614872565b9650816060015160058151811061075657610756614846565b6020026020010151866107699190614872565b95508160000151818151811061078157610781614846565b6020026020010151156108135781606001516000815181106107a5576107a5614846565b60200260200101518b6107b89190614872565b9a5081606001516003815181106107d1576107d1614846565b6020026020010151886107e49190614872565b975081606001516006815181106107fd576107fd614846565b6020026020010151856108109190614872565b94505b8061081d81614951565b915050610449565b508060a0015181608001511015925050509397509397509397509397565b600061084d612b57565b6001600160a01b031663d5e190d06040518163ffffffff1660e01b815260040160006040518083038186803b15801561088557600080fd5b505afa158015610899573d6000803e3d6000fd5b505050506040513d6000823e601f3d908101601f191682016040526108c191908101906148cb565b90506000815167ffffffffffffffff8111156108df576108df61473c565b604051908082528060200260200182016040528015610908578160200160208202803683370190505b5090506000805b83518110156109ac57600084828151811061092c5761092c614846565b6020026020010151905061093e612b33565b60030160008281526020019081526020016000205484838151811061096557610965614846565b60200260200101818152505083828151811061098357610983614846565b6020026020010151836109969190614872565b92505080806109a490614951565b91505061090f565b5060006109b98786612bb5565b905060005b8451811015610a9f5760008582815181106109db576109db614846565b602002602001015190506000610a1f82610a1a87898781518110610a0157610a01614846565b602002602001015188610a14919061496c565b90612c98565b612d09565b9050610a29612b57565b6001600160a01b0316634ba0c9b58a84846040518463ffffffff1660e01b8152600401610a589392919061498b565b600060405180830381600087803b158015610a7257600080fd5b505af1158015610a86573d6000803e3d6000fd5b5050505050508080610a9790614951565b9150506109be565b5050505050505050565b600080610ab4612b33565b60008681526005919091016020526040812090610acf612b33565b6000888152600691909101602090815260408083208984528252808320546001600160a01b03908116855291840194909452918301812054925163ae100e6d60e01b815286831660048201526024810188905292909116925090819081908190859063ae100e6d90604401608060405180830381600087803b158015610b5457600080fd5b505af1158015610b68573d6000803e3d6000fd5b505050506040513d601f19601f82011682018060405250810190610b8c91906149ac565b935093509350935083600014610c95578015610c1a57610baa612dda565b60405163312c474560e01b8152600481018b90526001600160a01b03898116602483015260448201859052919091169063312c474590606401600060405180830381600087803b158015610bfd57600080fd5b505af1158015610c11573d6000803e3d6000fd5b50505050610c95565b610c22612dda565b6040516360e3f72960e11b8152600481018b90526001600160a01b0389811660248301526044820185905260648201879052919091169063c1c7ee5290608401600060405180830381600087803b158015610c7c57600080fd5b505af1158015610c90573d6000803e3d6000fd5b505050505b5090979650505050505050565b6000610cac612b33565b60008a81526005919091016020526040812090610cc7612b33565b60008c8152600691909101602090815260408083208d84528252808320546001600160a01b0390811685529184019490945291909201909120541690506001866001811115610d1857610d186149ed565b1415610e1c57610d26612b57565b6001600160a01b0316634ba0c9b5888b876040518463ffffffff1660e01b8152600401610d559392919061498b565b600060405180830381600087803b158015610d6f57600080fd5b505af1158015610d83573d6000803e3d6000fd5b50505050806001600160a01b0316635b0b2930888588610da39190614872565b8b866040518563ffffffff1660e01b8152600401610dc49493929190614a03565b602060405180830381600087803b158015610dde57600080fd5b505af1158015610df2573d6000803e3d6000fd5b505050506040513d601f19601f82011682018060405250810190610e169190614a2b565b50610f16565b610e24612b57565b6001600160a01b031663fb7bd3b4888b876040518463ffffffff1660e01b8152600401610e539392919061498b565b600060405180830381600087803b158015610e6d57600080fd5b505af1158015610e81573d6000803e3d6000fd5b50505050806001600160a01b0316639e8d3d55888588610ea19190614a48565b8b866040518563ffffffff1660e01b8152600401610ec29493929190614a03565b602060405180830381600087803b158015610edc57600080fd5b505af1158015610ef0573d6000803e3d6000fd5b505050506040513d601f19601f82011682018060405250810190610f149190614a2b565b505b8215610fce576000610f26612df9565b90506001600160a01b038216639e8d3d5582868c60008c6001811115610f4e57610f4e6149ed565b146040518563ffffffff1660e01b8152600401610f6e9493929190614a03565b602060405180830381600087803b158015610f8857600080fd5b505af1158015610f9c573d6000803e3d6000fd5b505050506040513d601f19601f82011682018060405250810190610fc09190614a2b565b50610fcc8a8a83612897565b505b8789886001600160a01b03167ff80dd09632f046e05472e1c239271a3b2ad3de73c27a1b03d0bb0329ba6716df89888a60405161100d93929190614a5f565b60405180910390a4505050505050505050565b6110606040518060e00160405280600081526020016000815260200160008152602001600081526020016000815260200160008152602001600081525090565b6040805160808101825260008082526020820181905291810191909152606080820152836110e05760018152611094612b33565b60040160008681526020019081526020016000206000815481106110ba576110ba614846565b600091825260209182902001546001600160a01b0316908201526001604082015261116a565b600081526110ec612b33565b6000868152600691909101602090815260408083208784528252909120546001600160a01b03169082015261111f612b33565b600401600086815260200190815260200160002060008154811061114557611145614846565b60009182526020918290200154908201516001600160a01b0390811691161460408201525b611172612dda565b60405163386320d360e11b8152600481018790526001600160a01b03858116602483015291909116906370c641a69060440160206040518083038186803b1580156111bc57600080fd5b505afa1580156111d0573d6000803e3d6000fd5b505050506040513d601f19601f820116820180604052508101906111f49190614a95565b60c083015261120385846127c1565b606082015260005b8160600151518110156115e4576000611222612b33565b600601600088815260200190815260200160002060008460600151848151811061124e5761124e614846565b6020026020010151815260200190815260200160002060009054906101000a90046001600160a01b031690506000816001600160a01b031663e16695b56040518163ffffffff1660e01b815260040160206040518083038186803b1580156112b557600080fd5b505afa1580156112c9573d6000803e3d6000fd5b505050506040513d601f19601f820116820180604052508101906112ed9190614a95565b905060006112f9612b33565b60040160008a815260200190815260200160002060008154811061131f5761131f614846565b60009182526020909120015460408601516001600160a01b03858116921691909114915080611363575084602001516001600160a01b0316836001600160a01b0316145b156115ce5760006113788a8988868887612e12565b9050600061138a8b8a89878988613002565b9050600061139c8c8b8a888a89613195565b80518351855192935090916113b19190614aae565b6113bb9190614aed565b8960c0018181516113cc9190614aed565b905250604080820151838201519185015190916113e891614aae565b6113f29190614aed565b896020018181516114039190614aed565b9052506020808201518382015191850151909161141f91614aae565b6114299190614aed565b89518a90611438908390614aed565b905250606082015160808a018051611451908390614872565b905250606081015160408a01805161146a908390614872565b905250608082015160a08a018051611483908390614872565b905250608081015160608a01805161149c908390614872565b90525060c0890151600013156115ca5760006114b6612dda565b6001600160a01b031663aee1311e8e8c60c001518c606001518c815181106114e0576114e0614846565b602002602001015160018e60600151516114fa9190614a48565b8d1461152d5760608e01516115108e6001614872565b8151811061152057611520614846565b6020026020010151611530565b60005b6040516001600160e01b031960e087901b168152600481019490945260248401929092526044830152606482015260840160206040518083038186803b15801561157957600080fd5b505afa15801561158d573d6000803e3d6000fd5b505050506040513d601f19601f820116820180604052508101906115b19190614a95565b9050808a60c0018181516115c59190614aed565b905250505b5050505b50505080806115dc90614951565b91505061120b565b50806040015180156115f9575060c082015115155b1561177b576000611608612dda565b60c0840151604051637636e94160e01b8152600481018990526000602482015260448101919091526001600160a01b039190911690637636e9419060640160206040518083038186803b15801561165e57600080fd5b505afa158015611672573d6000803e3d6000fd5b505050506040513d601f19601f820116820180604052508101906116969190614a95565b9050611750816116a4612b33565b60040160008981526020019081526020016000206000815481106116ca576116ca614846565b60009182526020918290200154604080516371613c2d60e01b815290516001600160a01b03909216926371613c2d92600480840193829003018186803b15801561171357600080fd5b505afa158015611727573d6000803e3d6000fd5b505050506040513d601f19601f8201168201806040525081019061174b9190614a95565b613325565b8351849061175f908390614aed565b905250602083018051829190611776908390614aed565b905250505b509392505050565b60008060008060008060008061179b8a60008b611020565b90508060400151975080606001519450806080015193508060a0015191506000816000015113156118745780516117d19061334e565b965060006117dd612b95565b6001600160a01b0316639abdb38a8c6040518263ffffffff1660e01b815260040161180a91815260200190565b60206040518083038186803b15801561182257600080fd5b505afa158015611836573d6000803e3d6000fd5b505050506040513d601f19601f8201168201806040525081019061185a9190614a95565b905061186c612710610a14838b61496c565b965050611895565b8051600013156118955780516118929061188d90614b2e565b61334e565b92505b5092959891949750929550565b60006118ac612b33565b6001600160a01b03831660009081526008919091016020526040812091505b6118d482612b7f565b811015611901576118ee6118e88383612b89565b84611906565b50806118f981614951565b9150506118cb565b505050565b6000808061191485856127c1565b905060005b8151811015611b9557600061192c612b33565b6006016000888152602001908152602001600020600084848151811061195457611954614846565b6020026020010151815260200190815260200160002060009054906101000a90046001600160a01b031690506000816001600160a01b031663e16695b56040518163ffffffff1660e01b815260040160206040518083038186803b1580156119bb57600080fd5b505afa1580156119cf573d6000803e3d6000fd5b505050506040513d601f19601f820116820180604052508101906119f39190614a95565b90506000611a0289838a610aa9565b9050600080611a128b858c6133a4565b9092509050611a21828a614872565b98508015611a3757611a348b858c610aa9565b92505b8215611a4257600197505b82158015611a4e575081155b15611abf57611abd878781518110611a6857611a68614846565b6020026020010151611a78612b33565b60090160008e815260200190815260200160002060008d6001600160a01b03166001600160a01b0316815260200190815260200160002061378e90919063ffffffff16565b505b611ac7612dda565b6001600160a01b031663eeac29d88c8c60018b51611ae59190614a48565b8a14611b14578a611af78b6001614872565b81518110611b0757611b07614846565b6020026020010151611b17565b60005b6040516001600160e01b031960e086901b16815260048101939093526001600160a01b0390911660248301526044820152606401600060405180830381600087803b158015611b6557600080fd5b505af1158015611b79573d6000803e3d6000fd5b5050505050505050508080611b8d90614951565b915050611919565b5082158015611ba2575081155b8015611c355750611bb1612dda565b60405163386320d360e11b8152600481018790526001600160a01b03868116602483015291909116906370c641a69060440160206040518083038186803b158015611bfb57600080fd5b505afa158015611c0f573d6000803e3d6000fd5b505050506040513d601f19601f82011682018060405250810190611c339190614a95565b155b15611c6a57611c6885611c46612b33565b6001600160a01b0387166000908152600891909101602052604090209061378e565b505b505092915050565b611c7a612b57565b6001600160a01b0316635d95df8a826040518263ffffffff1660e01b8152600401611ca791815260200190565b60206040518083038186803b158015611cbf57600080fd5b505afa158015611cd3573d6000803e3d6000fd5b505050506040513d601f19601f82011682018060405250810190611cf79190614a2b565b611d485760405162461bcd60e51b815260206004820152601c60248201527f4e6f74207265676973746572656420617320636f6c6c61746572616c0000000060448201526064015b60405180910390fd5b6000611d52612b57565b604051630129e6bf60e11b81526001600160a01b038681166004830152602482018590529190911690630253cd7e9060440160206040518083038186803b158015611d9c57600080fd5b505afa158015611db0573d6000803e3d6000fd5b505050506040513d601f19601f82011682018060405250810190611dd49190614a95565b90506000611de683610a1a8887612bb5565b905080821015611e305760405162461bcd60e51b8152602060048201526015602482015274139bdd08195b9bdd59da0818dbdb1b185d195c985b605a1b6044820152606401611d3f565b611e38612b57565b6001600160a01b031663fb7bd3b48685846040518463ffffffff1660e01b8152600401611e679392919061498b565b600060405180830381600087803b158015611e8157600080fd5b505af1158015611e95573d6000803e3d6000fd5b50505050505050505050565b6040805161010081018252600080825260208201819052918101829052606081018290526080810182905260a0810182905260c0810182905260e08101829052611eeb8587611906565b50611ef68487611906565b506000611f04858589611020565b51905060008112611f575760405162461bcd60e51b815260206004820181905260248201527f4e6f206465627420696e207468652073656c6563746564206d617475726974796044820152606401611d3f565b611f5f612b57565b6001600160a01b0316635257ed678888611f77612b95565b6001600160a01b031663b99c6ca88a8c611f9361188d8a614b2e565b6040516001600160e01b031960e086901b16815260048101939093526024830191909152604482015260640160206040518083038186803b158015611fd757600080fd5b505afa158015611feb573d6000803e3d6000fd5b505050506040513d601f19601f8201168201806040525081019061200f9190614a95565b6040518463ffffffff1660e01b815260040161202d9392919061498b565b60606040518083038186803b15801561204557600080fd5b505afa158015612059573d6000803e3d6000fd5b505050506040513d601f19601f8201168201806040525081019061207d9190614b4b565b60608501526040840152602083018190526120da5760405162461bcd60e51b815260206004820152601a60248201527f557365722068617320656e6f75676820636f6c6c61746572616c0000000000006044820152606401611d3f565b6120e2612b95565b60208301516040516317338d9560e31b8152600481018990526024810188905260448101919091526001600160a01b03919091169063b99c6ca89060640160206040518083038186803b15801561213857600080fd5b505afa15801561214c573d6000803e3d6000fd5b505050506040513d601f19601f820116820180604052508101906121709190614a95565b925061217a612b33565b60040160008681526020019081526020016000206000815481106121a0576121a0614846565b6000918252602090912001546001600160a01b03166121bd612b33565b6000878152600691909101602090815260408083208884529091529020546001600160a01b03161460808301526121f2612df9565b6001600160a01b031663b187bd266040518163ffffffff1660e01b815260040160206040518083038186803b15801561222a57600080fd5b505afa15801561223e573d6000803e3d6000fd5b505050506040513d601f19601f820116820180604052508101906122629190614a2b565b151560a0830152612271612df9565b6001600160a01b03168252606082015160208301516122909190614872565b60c0830152600061229f612b57565b8351604080860151905163500d2f6d60e01b8152600481018b90526001600160a01b038c811660248301529283166044820152606481019190915291169063500d2f6d90608401602060405180830381600087803b15801561230057600080fd5b505af1158015612314573d6000803e3d6000fd5b505050506040513d601f19601f820116820180604052508101906123389190614a95565b9050801561236457612358888460000151896123538561379a565b613804565b505060c0820151612406565b61236c612b57565b60c084015160405163500d2f6d60e01b8152600481018a90526001600160a01b038b811660248301528c81166044830152606482019290925291169063500d2f6d90608401602060405180830381600087803b1580156123cb57600080fd5b505af11580156123df573d6000803e3d6000fd5b505050506040513d601f19601f820116820180604052508101906124039190614a95565b90505b80156124215761241e61188d898b8a6123538661379a565b90505b60008111801561243357508260a00151155b15612585576000612442612b95565b6040516317338d9560e31b8152600481018a905260248101899052604481018490526001600160a01b03919091169063b99c6ca89060640160206040518083038186803b15801561249257600080fd5b505afa1580156124a6573d6000803e3d6000fd5b505050506040513d601f19601f820116820180604052508101906124ca9190614a95565b90506124d4612b57565b6040516354821c2160e01b81526001600160a01b038b8116600483015291909116906354821c219060240160206040518083038186803b15801561251757600080fd5b505afa15801561252b573d6000803e3d6000fd5b505050506040513d601f19601f8201168201806040525081019061254f9190614a95565b6125775761257461188d85600001518c8a8a61256a8761379a565b8a60800151613914565b90505b6125818186614a48565b9450505b6001600160a01b0389163b156126775760c0830151604051630fa3ece160e11b81526001600160a01b038b811660048301819052908b166024830152604482018a90526064820192909252631f47d9c290608401602060405180830381600087803b1580156125f357600080fd5b505af1158015612607573d6000803e3d6000fd5b505050506040513d601f19601f8201168201806040525081019061262b9190614a2b565b6126775760405162461bcd60e51b815260206004820152601b60248201527f496e76616c6964206f7065726174696f6e20657865637574696f6e00000000006044820152606401611d3f565b83156127b55760e083018490526126a7888a88886126948961379a565b61269d90614b2e565b8860800151613914565b506001600160a01b0389163b156127b55760c083015160e084015160405163091cad1b60e31b81526001600160a01b038c811660048301819052908c166024830152604482018b905260648201939093526084810189905260a4810188905260c48101919091526348e568d89060e401602060405180830381600087803b15801561273157600080fd5b505af1158015612745573d6000803e3d6000fd5b505050506040513d601f19601f820116820180604052508101906127699190614a2b565b6127b55760405162461bcd60e51b815260206004820152601b60248201527f496e76616c6964206f7065726174696f6e20657865637574696f6e00000000006044820152606401611d3f565b50505095945050505050565b60606127f96127ce612b33565b6000858152600991909101602090815260408083206001600160a01b03871684529091529020613e27565b80519091501561289157604051634f64581360e11b81527375BcD9804EDf5d73dbDeE13e08EF9e7fCeE6E3cf90639ec8b0269061283a9084906004016146f8565b60006040518083038186803b15801561285257600080fd5b505af4158015612866573d6000803e3d6000fd5b505050506040513d6000823e601f3d908101601f1916820160405261288e91908101906148cb565b90505b92915050565b6128cf826128a3612b33565b6000868152600991909101602090815260408083206001600160a01b0387168452909152902090613e3b565b6119015761290b826128df612b33565b6000868152600991909101602090815260408083206001600160a01b0387168452909152902090613e53565b5061293a83612918612b33565b6001600160a01b03841660009081526008919091016020526040902090613e3b565b6119015761296c8361294a612b33565b6001600160a01b03841660009081526008919091016020526040902090613e53565b50505050565b600061297e8383611906565b5061298b83600084611020565b51905060006129c661299b612b33565b6000868152600991909101602090815260408083206001600160a01b03881684529091529020613e27565b905060005b8151811015612abf576129dc612b33565b600086815260059190910160205260408120906129f7612b33565b60060160008881526020019081526020016000206000858581518110612a1f57612a1f614846565b60209081029190910181015182528181019290925260409081016000908120546001600160a01b039081168552928401949094529182019092205490516366c9d55160e01b815286831660048201529116906366c9d55190602401600060405180830381600087803b158015612a9457600080fd5b505af1158015612aa8573d6000803e3d6000fd5b505050508080612ab790614951565b9150506129cb565b50612ac8612dda565b60405163b340398d60e01b8152600481018690526001600160a01b038581166024830152919091169063b340398d90604401600060405180830381600087803b158015612b1457600080fd5b505af1158015612b28573d6000803e3d6000fd5b505050505092915050565b7f8041b8421ebd495cc61f38c788c9eb100daccf9bd36aa0bb920b7a15b2e0496590565b6000612b6f69151bdad95b95985d5b1d60b21b613e5f565b905090565b606061289182613ef7565b6000612891825490565b600061288e8383613f53565b6000612b6f7121bab93932b731bca1b7b73a3937b63632b960711b613e5f565b6000826208aa8960eb1b1415612bcc575080612891565b6000612bd6612b95565b6001600160a01b03166312105fea856040518263ffffffff1660e01b8152600401612c0391815260200190565b60206040518083038186803b158015612c1b57600080fd5b505afa158015612c2f573d6000803e3d6000fd5b505050506040513d601f19601f82011682018060405250810190612c539190614b79565b9050612c90612c6382600a614c80565b612c86612c6e612b33565b6000888152600291909101602052604090205461334e565b610a14908661496c565b915050612891565b6000808211612ca657600080fd5b6005612cb28385614ca5565b612cbd90600a61496c565b83612cc986600a61496c565b612cd39190614ca5565b612cdd9190614a48565b1015612cf457612ced8284614ca5565b9050612891565b612cfe8284614ca5565b612ced906001614872565b6000826208aa8960eb1b1415612d20575080612891565b6000612d2a612b95565b6001600160a01b03166312105fea856040518263ffffffff1660e01b8152600401612d5791815260200190565b60206040518083038186803b158015612d6f57600080fd5b505afa158015612d83573d6000803e3d6000fd5b505050506040513d601f19601f82011682018060405250810190612da79190614b79565b9050612c90612dcf612db7612b33565b6000878152600291909101602052604090205461334e565b612c8683600a614c80565b6000612b6f7011d95b995cda5cd5985b1d5955985d5b1d607a1b613e5f565b6000612b6f6a14995cd95c9d99519d5b9960aa1b613e5f565b612e3660405180606001604052806000815260200160008152602001600081525090565b600080612e41612b33565b60008a8152600591909101602090815260408083206001600160a01b03898116855292529182902054915163070da1af60e11b81528a82166004820152911690630e1b435e90602401604080518083038186803b158015612ea157600080fd5b505afa158015612eb5573d6000803e3d6000fd5b505050506040513d601f19601f82011682018060405250810190612ed99190614cb9565b9150915081600014612ff657808614612f8f57866040015115612f8a57612efe612dda565b604051630c30971960e11b8152600481018b905260248101839052604481018490526001600160a01b0391909116906318612e32906064015b60206040518083038186803b158015612f4f57600080fd5b505afa158015612f63573d6000803e3d6000fd5b505050506040513d601f19601f82011682018060405250810190612f879190614a95565b83525b612ff6565b80861415612ff65786518015612fa3575083155b15612fc257612fb3898284613f7d565b60408501526020840152612ff6565b865180612fd157508660400151155b80612fd95750835b15612ff65760408301829052612ff08982846141aa565b60208401525b50509695505050505050565b6130346040518060a0016040528060008152602001600081526020016000815260200160008152602001600081525090565b604051631c7b209b60e31b81526001600160a01b038781166004830152600091829186169063e3d904d89060240160806040518083038186803b15801561307a57600080fd5b505afa15801561308e573d6000803e3d6000fd5b505050506040513d601f19601f820116820180604052508101906130b29190614cdd565b6080870192909252606086019290925290925090508115612ff65780861461313057866040015115612f8a576130e6612dda565b6001600160a01b03166318612e328a836130ff8661379a565b6040516001600160e01b031960e086901b168152600481019390935260248301919091526044820152606401612f37565b80861415612ff65786518015613144575083155b1561315c57612fb389826131578561379a565b613f7d565b86518061316b57508660400151155b806131735750835b15612ff6576131818261379a565b60408401819052612ff0908a9083906141aa565b6131c76040518060a0016040528060008152602001600081526020016000815260200160008152602001600081525090565b6040516339f7dda360e21b81526001600160a01b038781166004830152600091829186169063e7df768c9060240160806040518083038186803b15801561320d57600080fd5b505afa158015613221573d6000803e3d6000fd5b505050506040513d601f19601f820116820180604052508101906132459190614cdd565b6080870192909252606086019290925290925090508115612ff65780861461313057866040015115612f8a57613279612dda565b6001600160a01b03166318612e328a836132928661379a565b6040516001600160e01b031960e086901b16815260048101939093526024830191909152604482015260640160206040518083038186803b1580156132d657600080fd5b505afa1580156132ea573d6000803e3d6000fd5b505050506040513d601f19601f8201168201806040525081019061330e9190614a95565b8351849061331d908390614aed565b905250612ff6565b600061288e61333561271061379a565b61333e8461379a565b6133489086614d13565b9061425d565b6000808212156133a05760405162461bcd60e51b815260206004820181905260248201527f53616665436173743a2076616c7565206d75737420626520706f7369746976656044820152606401611d3f565b5090565b60008060006133b1612b33565b600087815260059190910160205260408120906133cc612b33565b6000898152600691909101602090815260408083208a84528252808320546001600160a01b0390811685529184019490945291909201822054169150808080808080613416612b33565b60008e8152600691909101602090815260408083208f845290915290819020549051633d4eccdf60e01b81526001600160a01b038d8116600483015290911690633d4eccdf9060240160e060405180830381600087803b15801561347957600080fd5b505af115801561348d573d6000803e3d6000fd5b505050506040513d601f19601f820116820180604052508101906134b19190614d98565b96509650965096509650965096508183111561353e576134cf612b57565b6001600160a01b031663fb7bd3b48c8f6134e98688614a48565b6040518463ffffffff1660e01b81526004016135079392919061498b565b600060405180830381600087803b15801561352157600080fd5b505af1158015613535573d6000803e3d6000fd5b505050506135b9565b818310156135b95761354e612b57565b6001600160a01b0316634ba0c9b58c8f6135688787614a48565b6040518463ffffffff1660e01b81526004016135869392919061498b565b600060405180830381600087803b1580156135a057600080fd5b505af11580156135b4573d6000803e3d6000fd5b505050505b841561368e57604051639e8d3d5560e01b81526001600160a01b03891690639e8d3d55906135f2908e9089908690600090600401614a03565b602060405180830381600087803b15801561360c57600080fd5b505af1158015613620573d6000803e3d6000fd5b505050506040513d601f19601f820116820180604052508101906136449190614a2b565b50808d8c6001600160a01b03167fba00994778888e87ce0908fd360c4b0417bfe7e274cce4cb72ed8a60b38b3e386000878a60405161368593929190614a5f565b60405180910390a45b8315613763576040516305b0b29360e41b81526001600160a01b03891690635b0b2930906136c7908e9088908690600090600401614a03565b602060405180830381600087803b1580156136e157600080fd5b505af11580156136f5573d6000803e3d6000fd5b505050506040513d601f19601f820116820180604052508101906137199190614a2b565b50808d8c6001600160a01b03167fba00994778888e87ce0908fd360c4b0417bfe7e274cce4cb72ed8a60b38b3e386001868960405161375a93929190614a5f565b60405180910390a45b600061376f8587614872565b11985061377c8688614872565b99505050505050505050935093915050565b600061288e83836142e8565b60006001600160ff1b038211156133a05760405162461bcd60e51b815260206004820152602860248201527f53616665436173743a2076616c756520646f65736e27742066697420696e2061604482015267371034b73a191a9b60c11b6064820152608401611d3f565b60008061381184876127c1565b9050600061381d612b33565b600401600086815260200190815260200160002060008154811061384357613843614846565b60009182526020822001548594506001600160a01b031691505b8251811015613909578361387057613909565b6138f588888886858151811061388857613888614846565b602002602001015188876001600160a01b03166138a3612b33565b60060160008e815260200190815260200160002060008b8a815181106138cb576138cb614846565b6020908102919091018101518252810191909152604001600020546001600160a01b031614613914565b93508061390181614951565b91505061385d565b505050949350505050565b81600081128215613c4d576000613929612dda565b60405163386320d360e11b8152600481018990526001600160a01b038b8116602483015291909116906370c641a69060440160206040518083038186803b15801561397357600080fd5b505afa158015613987573d6000803e3d6000fd5b505050506040513d601f19601f820116820180604052508101906139ab9190614a95565b90508180156139ba5750600081125b806139ce5750811580156139ce5750600081135b15613c4b5760006139dd612dda565b6001600160a01b03166349a1d218896040518263ffffffff1660e01b8152600401613a0a91815260200190565b60206040518083038186803b158015613a2257600080fd5b505afa158015613a36573d6000803e3d6000fd5b505050506040513d601f19601f82011682018060405250810190613a5a9190614a95565b90506000613a66612dda565b6001600160a01b03166318612e328a6000613a828d878b6143db565b6040516001600160e01b031960e086901b16815260048101939093526024830191909152604482015260640160206040518083038186803b158015613ac657600080fd5b505afa158015613ada573d6000803e3d6000fd5b505050506040513d601f19601f82011682018060405250810190613afe9190614a95565b9050838015613b0c57508083135b80613b1f575083158015613b1f57508083125b15613b275750815b613b2f612dda565b604051633916cf2b60e21b8152600481018b90526001600160a01b038d811660248301528c8116604483015260648201849052919091169063e45b3cac90608401600060405180830381600087803b158015613b8a57600080fd5b505af1158015613b9e573d6000803e3d6000fd5b50505050613c3c8983613baf612dda565b604051637636e94160e01b8152600481018e905260006024820152604481018690526001600160a01b039190911690637636e9419060640160206040518083038186803b158015613bff57600080fd5b505afa158015613c13573d6000803e3d6000fd5b505050506040513d601f19601f82011682018060405250810190613c379190614a95565b6141aa565b613c469086614aae565b945050505b505b6000613c57612b33565b60008881526005919091016020526040812090613c72612b33565b60008a8152600691909101602090815260408083208b84528252808320546001600160a01b03908116855291840194909452918301812054925163070da1af60e11b81528c83166004820152929091169250908290630e1b435e90602401604080518083038186803b158015613ce757600080fd5b505afa158015613cfb573d6000803e3d6000fd5b505050506040513d601f19601f82011682018060405250810190613d1f9190614cb9565b509050828015613d2f5750600081125b80613d43575082158015613d435750600081135b15613e08576000613d558989876143db565b9050838015613d6357508082135b80613d76575083158015613d7657508082125b15613d7e5750805b604051630c02764960e31b81526001600160a01b038c811660048301528b8116602483015260448201839052606482018a9052841690636013b24890608401600060405180830381600087803b158015613dd757600080fd5b505af1158015613deb573d6000803e3d6000fd5b50505050613dfa8989836141aa565b613e049086614aae565b9450505b838614613e1a57613e1a88888b612897565b5050509695505050505050565b60606000613e3483613ef7565b9392505050565b6000818152600183016020526040812054151561288e565b600061288e8383614492565b60008181527f4abde63c3e81aefa5764b017968bc473e83e093d7e1a10247d19e0a3e41240196020908152604080832054815170026b4b9b9b4b7339030b2323932b9b99d1607d1b9381019390935260318084018690528251808503909101815260519093019091526001600160a01b03169081613ef05760405162461bcd60e51b8152600401611d3f9190614dec565b5092915050565b606081600001805480602002602001604051908101604052809291908181526020018280548015613f4757602002820191906000526020600020905b815481526020019060010190808311613f33575b50505050509050919050565b6000826000018281548110613f6a57613f6a614846565b9060005260206000200154905092915050565b6000806000613f8a612b33565b6004016000878152602001908152602001600020600081548110613fb057613fb0614846565b6000918252602080832090910154604080516371613c2d60e01b815290516001600160a01b03909216945084926371613c2d92600480840193829003018186803b158015613ffd57600080fd5b505afa158015614011573d6000803e3d6000fd5b505050506040513d601f19601f820116820180604052508101906140359190614a95565b905061403f612dda565b60405163474611f160e01b815260048101899052602481018890526001600160a01b03919091169063474611f19060440160a06040518083038186803b15801561408857600080fd5b505afa15801561409c573d6000803e3d6000fd5b505050506040513d601f19601f820116820180604052508101906140c09190614e41565b516140fa576140d08787876141aa565b93506140f36140de8261379a565b6140e961271061379a565b6133489087614d13565b92506141a0565b614102612dda565b604051631b736f6760e31b8152600481018990526024810188905260006044820152606481018790526001600160a01b03919091169063db9b7b389060840160206040518083038186803b15801561415957600080fd5b505afa15801561416d573d6000803e3d6000fd5b505050506040513d601f19601f820116820180604052508101906141919190614a95565b925061419d8382613325565b93505b5050935093915050565b6000806141b5612b33565b6000868152600691909101602090815260408083208784528252918290205482516371613c2d60e01b815292516001600160a01b03909116926371613c2d926004808301939192829003018186803b15801561421057600080fd5b505afa158015614224573d6000803e3d6000fd5b505050506040513d601f19601f820116820180604052508101906142489190614a95565b90506142548382613325565b95945050505050565b60008161426957600080fd5b60006142758385614eb1565b61428090600a614d13565b8361428c86600a614d13565b6142969190614eb1565b6142a09190614aae565b9050600581126142bf576142b48385614eb1565b612c90906001614aed565b60041981136142de5760016142d48486614eb1565b612c909190614aae565b612c908385614eb1565b600081815260018301602052604081205480156143d157600061430c600183614a48565b855490915060009061432090600190614a48565b905081811461438557600086600001828154811061434057614340614846565b906000526020600020015490508087600001848154811061436357614363614846565b6000918252602080832090910192909255918252600188019052604090208390555b855486908061439657614396614edf565b600190038181906000526020600020016000905590558560010160008681526020019081526020016000206000905560019350505050612891565b6000915050612891565b6000806144816143e9612b33565b6000878152600691909101602090815260408083208884528252918290205482516371613c2d60e01b815292516001600160a01b03909116926371613c2d926004808301939192829003018186803b15801561444457600080fd5b505afa158015614458573d6000803e3d6000fd5b505050506040513d601f19601f8201168201806040525081019061447c9190614a95565b61379a565b90506142548161333e61271061379a565b60008181526001830160205260408120546144d957508154600181810184556000848152602080822090930184905584548482528286019093526040902091909155612891565b506000612891565b80356001600160a01b03811681146144f857600080fd5b919050565b60008060006060848603121561451257600080fd5b61451b846144e1565b95602085013595506040909401359392505050565b60008060006060848603121561454557600080fd5b83359250614555602085016144e1565b9150604084013590509250925092565b60008060006060848603121561457a57600080fd5b8335925060208401359150614591604085016144e1565b90509250925092565b80151581146145a857600080fd5b50565b600080600080600080600080610100898b0312156145c857600080fd5b88359750602089013596506145df60408a016144e1565b95506060890135600281106145f357600080fd5b94506080890135935060a0890135925060c0890135915060e08901356146188161459a565b809150509295985092959890939650565b6000806040838503121561463c57600080fd5b8235915061464c602084016144e1565b90509250929050565b60006020828403121561466757600080fd5b61288e826144e1565b6000806000806080858703121561468657600080fd5b84359350614696602086016144e1565b93969395505050506040820135916060013590565b600080600080600060a086880312156146c357600080fd5b6146cc866144e1565b94506146da602087016144e1565b94979496505050506040830135926060810135926080909101359150565b6020808252825182820181905260009190848201906040850190845b8181101561473057835183529284019291840191600101614714565b50909695505050505050565b634e487b7160e01b600052604160045260246000fd5b604051601f8201601f1916810167ffffffffffffffff8111828210171561477b5761477b61473c565b604052919050565b600067ffffffffffffffff82111561479d5761479d61473c565b5060051b60200190565b600060208083850312156147ba57600080fd5b825167ffffffffffffffff8111156147d157600080fd5b8301601f810185136147e257600080fd5b80516147f56147f082614783565b614752565b81815260059190911b8201830190838101908783111561481457600080fd5b928401925b8284101561483b57835161482c8161459a565b82529284019290840190614819565b979650505050505050565b634e487b7160e01b600052603260045260246000fd5b634e487b7160e01b600052601160045260246000fd5b600082198211156148855761488561485c565b500190565b6000604082018483526020604081850152818551808452606086019150828701935060005b81811015610c95578451835293830193918301916001016148af565b600060208083850312156148de57600080fd5b825167ffffffffffffffff8111156148f557600080fd5b8301601f8101851361490657600080fd5b80516149146147f082614783565b81815260059190911b8201830190838101908783111561493357600080fd5b928401925b8284101561483b57835182529284019290840190614938565b60006000198214156149655761496561485c565b5060010190565b60008160001904831182151516156149865761498661485c565b500290565b6001600160a01b039390931683526020830191909152604082015260600190565b600080600080608085870312156149c257600080fd5b84519350602085015192506040850151915060608501516149e28161459a565b939692955090935050565b634e487b7160e01b600052602160045260246000fd5b6001600160a01b03949094168452602084019290925260408301521515606082015260800190565b600060208284031215614a3d57600080fd5b8151613e348161459a565b600082821015614a5a57614a5a61485c565b500390565b6060810160028510614a8157634e487b7160e01b600052602160045260246000fd5b938152602081019290925260409091015290565b600060208284031215614aa757600080fd5b5051919050565b60008083128015600160ff1b850184121615614acc57614acc61485c565b6001600160ff1b0384018313811615614ae757614ae761485c565b50500390565b600080821280156001600160ff1b0384900385131615614b0f57614b0f61485c565b600160ff1b8390038412811615614b2857614b2861485c565b50500190565b6000600160ff1b821415614b4457614b4461485c565b5060000390565b600080600060608486031215614b6057600080fd5b8351925060208401519150604084015190509250925092565b600060208284031215614b8b57600080fd5b815160ff81168114613e3457600080fd5b600181815b80851115614bd7578160001904821115614bbd57614bbd61485c565b80851615614bca57918102915b93841c9390800290614ba1565b509250929050565b600082614bee57506001612891565b81614bfb57506000612891565b8160018114614c115760028114614c1b57614c37565b6001915050612891565b60ff841115614c2c57614c2c61485c565b50506001821b612891565b5060208310610133831016604e8410600b8410161715614c5a575081810a612891565b614c648383614b9c565b8060001904821115614c7857614c7861485c565b029392505050565b600061288e60ff841683614bdf565b634e487b7160e01b600052601260045260246000fd5b600082614cb457614cb4614c8f565b500490565b60008060408385031215614ccc57600080fd5b505080516020909101519092909150565b60008060008060808587031215614cf357600080fd5b505082516020840151604085015160609095015191969095509092509050565b60006001600160ff1b0381841382841380821686840486111615614d3957614d3961485c565b600160ff1b6000871282811687830589121615614d5857614d5861485c565b60008712925087820587128484161615614d7457614d7461485c565b87850587128184161615614d8a57614d8a61485c565b505050929093029392505050565b600080600080600080600060e0888a031215614db357600080fd5b5050855160208701516040880151606089015160808a015160a08b015160c0909b0151949c939b50919990985090965094509092509050565b600060208083528351808285015260005b81811015614e1957858101830151858201604001528201614dfd565b81811115614e2b576000604083870101525b50601f01601f1916929092016040019392505050565b600060a08284031215614e5357600080fd5b60405160a0810181811067ffffffffffffffff82111715614e7657614e7661473c565b806040525082518152602083015160208201526040830151604082015260608301516060820152608083015160808201528091505092915050565b600082614ec057614ec0614c8f565b600160ff1b821460001984141615614eda57614eda61485c565b500590565b634e487b7160e01b600052603160045260246000fdfea26469706673582212208e5410647a4e12efb86252a6d31b830cb60def426ed31c2090a01f9dc207bd5d64736f6c63430008090033",
  "deployedBytecode": "0x73000000000000000000000000000000000000000030146080604052600436106100d95760003560e01c8063826b47e811610096578063a86c2a3e11610070578063a86c2a3e146102b4578063b61ef55a146102d4578063b6eb033d146102f4578063bab7ae171461031457600080fd5b8063826b47e8146102545780639519832b146102745780639aaf86491461029457600080fd5b80630312b528146100de5780631696a4cd14610133578063300074c914610155578063390e5d12146101835780634ad23880146101a35780635c3477651461020c575b600080fd5b6100f16100ec3660046144fd565b610334565b604080519889526020890197909752958701949094526060860192909252608085015260a084015260c0830152151560e0820152610100015b60405180910390f35b81801561013f57600080fd5b5061015361014e366004614530565b610843565b005b81801561016157600080fd5b50610175610170366004614565565b610aa9565b60405190815260200161012a565b81801561018f57600080fd5b5061015361019e3660046145ab565b610ca2565b6101b66101b1366004614565565b611020565b60405161012a9190600060e082019050825182526020830151602083015260408301516040830152606083015160608301526080830151608083015260a083015160a083015260c083015160c083015292915050565b61021f61021a366004614629565b611783565b604080519788526020880196909652948601939093526060850191909152608084015260a083015260c082015260e00161012a565b81801561026057600080fd5b5061015361026f366004614655565b6118a2565b81801561028057600080fd5b5061017561028f366004614629565b611906565b8180156102a057600080fd5b506101536102af366004614670565b611c72565b8180156102c057600080fd5b506101756102cf3660046146ab565b611ea1565b6102e76102e2366004614629565b6127c1565b60405161012a91906146f8565b81801561030057600080fd5b5061015361030f366004614565565b612897565b81801561032057600080fd5b5061017561032f366004614629565b612972565b600080600080600080600080600061034a612b33565b60080160008d6001600160a01b03166001600160a01b0316815260200190815260200160002090506103ae6040518060c001604052806060815260200160008019168152602001606081526020016060815260200160008152602001600081525090565b6103b6612b57565b6001600160a01b0316633f90a08e6103cd84612b74565b6040518263ffffffff1660e01b81526004016103e991906146f8565b60006040518083038186803b15801561040157600080fd5b505afa158015610415573d6000803e3d6000fd5b505050506040513d6000823e601f3d908101601f1916820160405261043d91908101906147a7565b8152608081018b905260005b61045283612b7f565b811015610825576104638382612b89565b60208301526040805160078082526101008201909252908160200160208202803683375050506040830152602082015161049d908f611783565b88604001516000815181106104b4576104b4614846565b6020026020010189604001516001815181106104d2576104d2614846565b602002602001018a604001516002815181106104f0576104f0614846565b602002602001018b6040015160038151811061050e5761050e614846565b602002602001018c6040015160048151811061052c5761052c614846565b602002602001018d6040015160058151811061054a5761054a614846565b602002602001018e6040015160068151811061056857610568614846565b6020908102919091018101979097529690965295909452949093529390529290529190528201518d14156106275781604001516006815181106105ad576105ad614846565b6020026020010151826080018181516105c69190614872565b9052506040820151805160039081106105e1576105e1614846565b6020026020010151826040015160008151811061060057610600614846565b60200260200101516106129190614872565b8260a0018181516106239190614872565b9052505b61062f612b95565b6001600160a01b0316638a2eae92836020015184604001516040518363ffffffff1660e01b815260040161066492919061488a565b60006040518083038186803b15801561067c57600080fd5b505afa158015610690573d6000803e3d6000fd5b505050506040513d6000823e601f3d908101601f191682016040526106b891908101906148cb565b60608301819052805160019081106106d2576106d2614846565b60200260200101518a6106e59190614872565b995081606001516002815181106106fe576106fe614846565b6020026020010151896107119190614872565b9850816060015160048151811061072a5761072a614846565b60200260200101518761073d9190614872565b9650816060015160058151811061075657610756614846565b6020026020010151866107699190614872565b95508160000151818151811061078157610781614846565b6020026020010151156108135781606001516000815181106107a5576107a5614846565b60200260200101518b6107b89190614872565b9a5081606001516003815181106107d1576107d1614846565b6020026020010151886107e49190614872565b975081606001516006815181106107fd576107fd614846565b6020026020010151856108109190614872565b94505b8061081d81614951565b915050610449565b508060a0015181608001511015925050509397509397509397509397565b600061084d612b57565b6001600160a01b031663d5e190d06040518163ffffffff1660e01b815260040160006040518083038186803b15801561088557600080fd5b505afa158015610899573d6000803e3d6000fd5b505050506040513d6000823e601f3d908101601f191682016040526108c191908101906148cb565b90506000815167ffffffffffffffff8111156108df576108df61473c565b604051908082528060200260200182016040528015610908578160200160208202803683370190505b5090506000805b83518110156109ac57600084828151811061092c5761092c614846565b6020026020010151905061093e612b33565b60030160008281526020019081526020016000205484838151811061096557610965614846565b60200260200101818152505083828151811061098357610983614846565b6020026020010151836109969190614872565b92505080806109a490614951565b91505061090f565b5060006109b98786612bb5565b905060005b8451811015610a9f5760008582815181106109db576109db614846565b602002602001015190506000610a1f82610a1a87898781518110610a0157610a01614846565b602002602001015188610a14919061496c565b90612c98565b612d09565b9050610a29612b57565b6001600160a01b0316634ba0c9b58a84846040518463ffffffff1660e01b8152600401610a589392919061498b565b600060405180830381600087803b158015610a7257600080fd5b505af1158015610a86573d6000803e3d6000fd5b5050505050508080610a9790614951565b9150506109be565b5050505050505050565b600080610ab4612b33565b60008681526005919091016020526040812090610acf612b33565b6000888152600691909101602090815260408083208984528252808320546001600160a01b03908116855291840194909452918301812054925163ae100e6d60e01b815286831660048201526024810188905292909116925090819081908190859063ae100e6d90604401608060405180830381600087803b158015610b5457600080fd5b505af1158015610b68573d6000803e3d6000fd5b505050506040513d601f19601f82011682018060405250810190610b8c91906149ac565b935093509350935083600014610c95578015610c1a57610baa612dda565b60405163312c474560e01b8152600481018b90526001600160a01b03898116602483015260448201859052919091169063312c474590606401600060405180830381600087803b158015610bfd57600080fd5b505af1158015610c11573d6000803e3d6000fd5b50505050610c95565b610c22612dda565b6040516360e3f72960e11b8152600481018b90526001600160a01b0389811660248301526044820185905260648201879052919091169063c1c7ee5290608401600060405180830381600087803b158015610c7c57600080fd5b505af1158015610c90573d6000803e3d6000fd5b505050505b5090979650505050505050565b6000610cac612b33565b60008a81526005919091016020526040812090610cc7612b33565b60008c8152600691909101602090815260408083208d84528252808320546001600160a01b0390811685529184019490945291909201909120541690506001866001811115610d1857610d186149ed565b1415610e1c57610d26612b57565b6001600160a01b0316634ba0c9b5888b876040518463ffffffff1660e01b8152600401610d559392919061498b565b600060405180830381600087803b158015610d6f57600080fd5b505af1158015610d83573d6000803e3d6000fd5b50505050806001600160a01b0316635b0b2930888588610da39190614872565b8b866040518563ffffffff1660e01b8152600401610dc49493929190614a03565b602060405180830381600087803b158015610dde57600080fd5b505af1158015610df2573d6000803e3d6000fd5b505050506040513d601f19601f82011682018060405250810190610e169190614a2b565b50610f16565b610e24612b57565b6001600160a01b031663fb7bd3b4888b876040518463ffffffff1660e01b8152600401610e539392919061498b565b600060405180830381600087803b158015610e6d57600080fd5b505af1158015610e81573d6000803e3d6000fd5b50505050806001600160a01b0316639e8d3d55888588610ea19190614a48565b8b866040518563ffffffff1660e01b8152600401610ec29493929190614a03565b602060405180830381600087803b158015610edc57600080fd5b505af1158015610ef0573d6000803e3d6000fd5b505050506040513d601f19601f82011682018060405250810190610f149190614a2b565b505b8215610fce576000610f26612df9565b90506001600160a01b038216639e8d3d5582868c60008c6001811115610f4e57610f4e6149ed565b146040518563ffffffff1660e01b8152600401610f6e9493929190614a03565b602060405180830381600087803b158015610f8857600080fd5b505af1158015610f9c573d6000803e3d6000fd5b505050506040513d601f19601f82011682018060405250810190610fc09190614a2b565b50610fcc8a8a83612897565b505b8789886001600160a01b03167ff80dd09632f046e05472e1c239271a3b2ad3de73c27a1b03d0bb0329ba6716df89888a60405161100d93929190614a5f565b60405180910390a4505050505050505050565b6110606040518060e00160405280600081526020016000815260200160008152602001600081526020016000815260200160008152602001600081525090565b6040805160808101825260008082526020820181905291810191909152606080820152836110e05760018152611094612b33565b60040160008681526020019081526020016000206000815481106110ba576110ba614846565b600091825260209182902001546001600160a01b0316908201526001604082015261116a565b600081526110ec612b33565b6000868152600691909101602090815260408083208784528252909120546001600160a01b03169082015261111f612b33565b600401600086815260200190815260200160002060008154811061114557611145614846565b60009182526020918290200154908201516001600160a01b0390811691161460408201525b611172612dda565b60405163386320d360e11b8152600481018790526001600160a01b03858116602483015291909116906370c641a69060440160206040518083038186803b1580156111bc57600080fd5b505afa1580156111d0573d6000803e3d6000fd5b505050506040513d601f19601f820116820180604052508101906111f49190614a95565b60c083015261120385846127c1565b606082015260005b8160600151518110156115e4576000611222612b33565b600601600088815260200190815260200160002060008460600151848151811061124e5761124e614846565b6020026020010151815260200190815260200160002060009054906101000a90046001600160a01b031690506000816001600160a01b031663e16695b56040518163ffffffff1660e01b815260040160206040518083038186803b1580156112b557600080fd5b505afa1580156112c9573d6000803e3d6000fd5b505050506040513d601f19601f820116820180604052508101906112ed9190614a95565b905060006112f9612b33565b60040160008a815260200190815260200160002060008154811061131f5761131f614846565b60009182526020909120015460408601516001600160a01b03858116921691909114915080611363575084602001516001600160a01b0316836001600160a01b0316145b156115ce5760006113788a8988868887612e12565b9050600061138a8b8a89878988613002565b9050600061139c8c8b8a888a89613195565b80518351855192935090916113b19190614aae565b6113bb9190614aed565b8960c0018181516113cc9190614aed565b905250604080820151838201519185015190916113e891614aae565b6113f29190614aed565b896020018181516114039190614aed565b9052506020808201518382015191850151909161141f91614aae565b6114299190614aed565b89518a90611438908390614aed565b905250606082015160808a018051611451908390614872565b905250606081015160408a01805161146a908390614872565b905250608082015160a08a018051611483908390614872565b905250608081015160608a01805161149c908390614872565b90525060c0890151600013156115ca5760006114b6612dda565b6001600160a01b031663aee1311e8e8c60c001518c606001518c815181106114e0576114e0614846565b602002602001015160018e60600151516114fa9190614a48565b8d1461152d5760608e01516115108e6001614872565b8151811061152057611520614846565b6020026020010151611530565b60005b6040516001600160e01b031960e087901b168152600481019490945260248401929092526044830152606482015260840160206040518083038186803b15801561157957600080fd5b505afa15801561158d573d6000803e3d6000fd5b505050506040513d601f19601f820116820180604052508101906115b19190614a95565b9050808a60c0018181516115c59190614aed565b905250505b5050505b50505080806115dc90614951565b91505061120b565b50806040015180156115f9575060c082015115155b1561177b576000611608612dda565b60c0840151604051637636e94160e01b8152600481018990526000602482015260448101919091526001600160a01b039190911690637636e9419060640160206040518083038186803b15801561165e57600080fd5b505afa158015611672573d6000803e3d6000fd5b505050506040513d601f19601f820116820180604052508101906116969190614a95565b9050611750816116a4612b33565b60040160008981526020019081526020016000206000815481106116ca576116ca614846565b60009182526020918290200154604080516371613c2d60e01b815290516001600160a01b03909216926371613c2d92600480840193829003018186803b15801561171357600080fd5b505afa158015611727573d6000803e3d6000fd5b505050506040513d601f19601f8201168201806040525081019061174b9190614a95565b613325565b8351849061175f908390614aed565b905250602083018051829190611776908390614aed565b905250505b509392505050565b60008060008060008060008061179b8a60008b611020565b90508060400151975080606001519450806080015193508060a0015191506000816000015113156118745780516117d19061334e565b965060006117dd612b95565b6001600160a01b0316639abdb38a8c6040518263ffffffff1660e01b815260040161180a91815260200190565b60206040518083038186803b15801561182257600080fd5b505afa158015611836573d6000803e3d6000fd5b505050506040513d601f19601f8201168201806040525081019061185a9190614a95565b905061186c612710610a14838b61496c565b965050611895565b8051600013156118955780516118929061188d90614b2e565b61334e565b92505b5092959891949750929550565b60006118ac612b33565b6001600160a01b03831660009081526008919091016020526040812091505b6118d482612b7f565b811015611901576118ee6118e88383612b89565b84611906565b50806118f981614951565b9150506118cb565b505050565b6000808061191485856127c1565b905060005b8151811015611b9557600061192c612b33565b6006016000888152602001908152602001600020600084848151811061195457611954614846565b6020026020010151815260200190815260200160002060009054906101000a90046001600160a01b031690506000816001600160a01b031663e16695b56040518163ffffffff1660e01b815260040160206040518083038186803b1580156119bb57600080fd5b505afa1580156119cf573d6000803e3d6000fd5b505050506040513d601f19601f820116820180604052508101906119f39190614a95565b90506000611a0289838a610aa9565b9050600080611a128b858c6133a4565b9092509050611a21828a614872565b98508015611a3757611a348b858c610aa9565b92505b8215611a4257600197505b82158015611a4e575081155b15611abf57611abd878781518110611a6857611a68614846565b6020026020010151611a78612b33565b60090160008e815260200190815260200160002060008d6001600160a01b03166001600160a01b0316815260200190815260200160002061378e90919063ffffffff16565b505b611ac7612dda565b6001600160a01b031663eeac29d88c8c60018b51611ae59190614a48565b8a14611b14578a611af78b6001614872565b81518110611b0757611b07614846565b6020026020010151611b17565b60005b6040516001600160e01b031960e086901b16815260048101939093526001600160a01b0390911660248301526044820152606401600060405180830381600087803b158015611b6557600080fd5b505af1158015611b79573d6000803e3d6000fd5b5050505050505050508080611b8d90614951565b915050611919565b5082158015611ba2575081155b8015611c355750611bb1612dda565b60405163386320d360e11b8152600481018790526001600160a01b03868116602483015291909116906370c641a69060440160206040518083038186803b158015611bfb57600080fd5b505afa158015611c0f573d6000803e3d6000fd5b505050506040513d601f19601f82011682018060405250810190611c339190614a95565b155b15611c6a57611c6885611c46612b33565b6001600160a01b0387166000908152600891909101602052604090209061378e565b505b505092915050565b611c7a612b57565b6001600160a01b0316635d95df8a826040518263ffffffff1660e01b8152600401611ca791815260200190565b60206040518083038186803b158015611cbf57600080fd5b505afa158015611cd3573d6000803e3d6000fd5b505050506040513d601f19601f82011682018060405250810190611cf79190614a2b565b611d485760405162461bcd60e51b815260206004820152601c60248201527f4e6f74207265676973746572656420617320636f6c6c61746572616c0000000060448201526064015b60405180910390fd5b6000611d52612b57565b604051630129e6bf60e11b81526001600160a01b038681166004830152602482018590529190911690630253cd7e9060440160206040518083038186803b158015611d9c57600080fd5b505afa158015611db0573d6000803e3d6000fd5b505050506040513d601f19601f82011682018060405250810190611dd49190614a95565b90506000611de683610a1a8887612bb5565b905080821015611e305760405162461bcd60e51b8152602060048201526015602482015274139bdd08195b9bdd59da0818dbdb1b185d195c985b605a1b6044820152606401611d3f565b611e38612b57565b6001600160a01b031663fb7bd3b48685846040518463ffffffff1660e01b8152600401611e679392919061498b565b600060405180830381600087803b158015611e8157600080fd5b505af1158015611e95573d6000803e3d6000fd5b50505050505050505050565b6040805161010081018252600080825260208201819052918101829052606081018290526080810182905260a0810182905260c0810182905260e08101829052611eeb8587611906565b50611ef68487611906565b506000611f04858589611020565b51905060008112611f575760405162461bcd60e51b815260206004820181905260248201527f4e6f206465627420696e207468652073656c6563746564206d617475726974796044820152606401611d3f565b611f5f612b57565b6001600160a01b0316635257ed678888611f77612b95565b6001600160a01b031663b99c6ca88a8c611f9361188d8a614b2e565b6040516001600160e01b031960e086901b16815260048101939093526024830191909152604482015260640160206040518083038186803b158015611fd757600080fd5b505afa158015611feb573d6000803e3d6000fd5b505050506040513d601f19601f8201168201806040525081019061200f9190614a95565b6040518463ffffffff1660e01b815260040161202d9392919061498b565b60606040518083038186803b15801561204557600080fd5b505afa158015612059573d6000803e3d6000fd5b505050506040513d601f19601f8201168201806040525081019061207d9190614b4b565b60608501526040840152602083018190526120da5760405162461bcd60e51b815260206004820152601a60248201527f557365722068617320656e6f75676820636f6c6c61746572616c0000000000006044820152606401611d3f565b6120e2612b95565b60208301516040516317338d9560e31b8152600481018990526024810188905260448101919091526001600160a01b03919091169063b99c6ca89060640160206040518083038186803b15801561213857600080fd5b505afa15801561214c573d6000803e3d6000fd5b505050506040513d601f19601f820116820180604052508101906121709190614a95565b925061217a612b33565b60040160008681526020019081526020016000206000815481106121a0576121a0614846565b6000918252602090912001546001600160a01b03166121bd612b33565b6000878152600691909101602090815260408083208884529091529020546001600160a01b03161460808301526121f2612df9565b6001600160a01b031663b187bd266040518163ffffffff1660e01b815260040160206040518083038186803b15801561222a57600080fd5b505afa15801561223e573d6000803e3d6000fd5b505050506040513d601f19601f820116820180604052508101906122629190614a2b565b151560a0830152612271612df9565b6001600160a01b03168252606082015160208301516122909190614872565b60c0830152600061229f612b57565b8351604080860151905163500d2f6d60e01b8152600481018b90526001600160a01b038c811660248301529283166044820152606481019190915291169063500d2f6d90608401602060405180830381600087803b15801561230057600080fd5b505af1158015612314573d6000803e3d6000fd5b505050506040513d601f19601f820116820180604052508101906123389190614a95565b9050801561236457612358888460000151896123538561379a565b613804565b505060c0820151612406565b61236c612b57565b60c084015160405163500d2f6d60e01b8152600481018a90526001600160a01b038b811660248301528c81166044830152606482019290925291169063500d2f6d90608401602060405180830381600087803b1580156123cb57600080fd5b505af11580156123df573d6000803e3d6000fd5b505050506040513d601f19601f820116820180604052508101906124039190614a95565b90505b80156124215761241e61188d898b8a6123538661379a565b90505b60008111801561243357508260a00151155b15612585576000612442612b95565b6040516317338d9560e31b8152600481018a905260248101899052604481018490526001600160a01b03919091169063b99c6ca89060640160206040518083038186803b15801561249257600080fd5b505afa1580156124a6573d6000803e3d6000fd5b505050506040513d601f19601f820116820180604052508101906124ca9190614a95565b90506124d4612b57565b6040516354821c2160e01b81526001600160a01b038b8116600483015291909116906354821c219060240160206040518083038186803b15801561251757600080fd5b505afa15801561252b573d6000803e3d6000fd5b505050506040513d601f19601f8201168201806040525081019061254f9190614a95565b6125775761257461188d85600001518c8a8a61256a8761379a565b8a60800151613914565b90505b6125818186614a48565b9450505b6001600160a01b0389163b156126775760c0830151604051630fa3ece160e11b81526001600160a01b038b811660048301819052908b166024830152604482018a90526064820192909252631f47d9c290608401602060405180830381600087803b1580156125f357600080fd5b505af1158015612607573d6000803e3d6000fd5b505050506040513d601f19601f8201168201806040525081019061262b9190614a2b565b6126775760405162461bcd60e51b815260206004820152601b60248201527f496e76616c6964206f7065726174696f6e20657865637574696f6e00000000006044820152606401611d3f565b83156127b55760e083018490526126a7888a88886126948961379a565b61269d90614b2e565b8860800151613914565b506001600160a01b0389163b156127b55760c083015160e084015160405163091cad1b60e31b81526001600160a01b038c811660048301819052908c166024830152604482018b905260648201939093526084810189905260a4810188905260c48101919091526348e568d89060e401602060405180830381600087803b15801561273157600080fd5b505af1158015612745573d6000803e3d6000fd5b505050506040513d601f19601f820116820180604052508101906127699190614a2b565b6127b55760405162461bcd60e51b815260206004820152601b60248201527f496e76616c6964206f7065726174696f6e20657865637574696f6e00000000006044820152606401611d3f565b50505095945050505050565b60606127f96127ce612b33565b6000858152600991909101602090815260408083206001600160a01b03871684529091529020613e27565b80519091501561289157604051634f64581360e11b815273__$cd9358e65801d13c280787f44717df25ed$__90639ec8b0269061283a9084906004016146f8565b60006040518083038186803b15801561285257600080fd5b505af4158015612866573d6000803e3d6000fd5b505050506040513d6000823e601f3d908101601f1916820160405261288e91908101906148cb565b90505b92915050565b6128cf826128a3612b33565b6000868152600991909101602090815260408083206001600160a01b0387168452909152902090613e3b565b6119015761290b826128df612b33565b6000868152600991909101602090815260408083206001600160a01b0387168452909152902090613e53565b5061293a83612918612b33565b6001600160a01b03841660009081526008919091016020526040902090613e3b565b6119015761296c8361294a612b33565b6001600160a01b03841660009081526008919091016020526040902090613e53565b50505050565b600061297e8383611906565b5061298b83600084611020565b51905060006129c661299b612b33565b6000868152600991909101602090815260408083206001600160a01b03881684529091529020613e27565b905060005b8151811015612abf576129dc612b33565b600086815260059190910160205260408120906129f7612b33565b60060160008881526020019081526020016000206000858581518110612a1f57612a1f614846565b60209081029190910181015182528181019290925260409081016000908120546001600160a01b039081168552928401949094529182019092205490516366c9d55160e01b815286831660048201529116906366c9d55190602401600060405180830381600087803b158015612a9457600080fd5b505af1158015612aa8573d6000803e3d6000fd5b505050508080612ab790614951565b9150506129cb565b50612ac8612dda565b60405163b340398d60e01b8152600481018690526001600160a01b038581166024830152919091169063b340398d90604401600060405180830381600087803b158015612b1457600080fd5b505af1158015612b28573d6000803e3d6000fd5b505050505092915050565b7f8041b8421ebd495cc61f38c788c9eb100daccf9bd36aa0bb920b7a15b2e0496590565b6000612b6f69151bdad95b95985d5b1d60b21b613e5f565b905090565b606061289182613ef7565b6000612891825490565b600061288e8383613f53565b6000612b6f7121bab93932b731bca1b7b73a3937b63632b960711b613e5f565b6000826208aa8960eb1b1415612bcc575080612891565b6000612bd6612b95565b6001600160a01b03166312105fea856040518263ffffffff1660e01b8152600401612c0391815260200190565b60206040518083038186803b158015612c1b57600080fd5b505afa158015612c2f573d6000803e3d6000fd5b505050506040513d601f19601f82011682018060405250810190612c539190614b79565b9050612c90612c6382600a614c80565b612c86612c6e612b33565b6000888152600291909101602052604090205461334e565b610a14908661496c565b915050612891565b6000808211612ca657600080fd5b6005612cb28385614ca5565b612cbd90600a61496c565b83612cc986600a61496c565b612cd39190614ca5565b612cdd9190614a48565b1015612cf457612ced8284614ca5565b9050612891565b612cfe8284614ca5565b612ced906001614872565b6000826208aa8960eb1b1415612d20575080612891565b6000612d2a612b95565b6001600160a01b03166312105fea856040518263ffffffff1660e01b8152600401612d5791815260200190565b60206040518083038186803b158015612d6f57600080fd5b505afa158015612d83573d6000803e3d6000fd5b505050506040513d601f19601f82011682018060405250810190612da79190614b79565b9050612c90612dcf612db7612b33565b6000878152600291909101602052604090205461334e565b612c8683600a614c80565b6000612b6f7011d95b995cda5cd5985b1d5955985d5b1d607a1b613e5f565b6000612b6f6a14995cd95c9d99519d5b9960aa1b613e5f565b612e3660405180606001604052806000815260200160008152602001600081525090565b600080612e41612b33565b60008a8152600591909101602090815260408083206001600160a01b03898116855292529182902054915163070da1af60e11b81528a82166004820152911690630e1b435e90602401604080518083038186803b158015612ea157600080fd5b505afa158015612eb5573d6000803e3d6000fd5b505050506040513d601f19601f82011682018060405250810190612ed99190614cb9565b9150915081600014612ff657808614612f8f57866040015115612f8a57612efe612dda565b604051630c30971960e11b8152600481018b905260248101839052604481018490526001600160a01b0391909116906318612e32906064015b60206040518083038186803b158015612f4f57600080fd5b505afa158015612f63573d6000803e3d6000fd5b505050506040513d601f19601f82011682018060405250810190612f879190614a95565b83525b612ff6565b80861415612ff65786518015612fa3575083155b15612fc257612fb3898284613f7d565b60408501526020840152612ff6565b865180612fd157508660400151155b80612fd95750835b15612ff65760408301829052612ff08982846141aa565b60208401525b50509695505050505050565b6130346040518060a0016040528060008152602001600081526020016000815260200160008152602001600081525090565b604051631c7b209b60e31b81526001600160a01b038781166004830152600091829186169063e3d904d89060240160806040518083038186803b15801561307a57600080fd5b505afa15801561308e573d6000803e3d6000fd5b505050506040513d601f19601f820116820180604052508101906130b29190614cdd565b6080870192909252606086019290925290925090508115612ff65780861461313057866040015115612f8a576130e6612dda565b6001600160a01b03166318612e328a836130ff8661379a565b6040516001600160e01b031960e086901b168152600481019390935260248301919091526044820152606401612f37565b80861415612ff65786518015613144575083155b1561315c57612fb389826131578561379a565b613f7d565b86518061316b57508660400151155b806131735750835b15612ff6576131818261379a565b60408401819052612ff0908a9083906141aa565b6131c76040518060a0016040528060008152602001600081526020016000815260200160008152602001600081525090565b6040516339f7dda360e21b81526001600160a01b038781166004830152600091829186169063e7df768c9060240160806040518083038186803b15801561320d57600080fd5b505afa158015613221573d6000803e3d6000fd5b505050506040513d601f19601f820116820180604052508101906132459190614cdd565b6080870192909252606086019290925290925090508115612ff65780861461313057866040015115612f8a57613279612dda565b6001600160a01b03166318612e328a836132928661379a565b6040516001600160e01b031960e086901b16815260048101939093526024830191909152604482015260640160206040518083038186803b1580156132d657600080fd5b505afa1580156132ea573d6000803e3d6000fd5b505050506040513d601f19601f8201168201806040525081019061330e9190614a95565b8351849061331d908390614aed565b905250612ff6565b600061288e61333561271061379a565b61333e8461379a565b6133489086614d13565b9061425d565b6000808212156133a05760405162461bcd60e51b815260206004820181905260248201527f53616665436173743a2076616c7565206d75737420626520706f7369746976656044820152606401611d3f565b5090565b60008060006133b1612b33565b600087815260059190910160205260408120906133cc612b33565b6000898152600691909101602090815260408083208a84528252808320546001600160a01b0390811685529184019490945291909201822054169150808080808080613416612b33565b60008e8152600691909101602090815260408083208f845290915290819020549051633d4eccdf60e01b81526001600160a01b038d8116600483015290911690633d4eccdf9060240160e060405180830381600087803b15801561347957600080fd5b505af115801561348d573d6000803e3d6000fd5b505050506040513d601f19601f820116820180604052508101906134b19190614d98565b96509650965096509650965096508183111561353e576134cf612b57565b6001600160a01b031663fb7bd3b48c8f6134e98688614a48565b6040518463ffffffff1660e01b81526004016135079392919061498b565b600060405180830381600087803b15801561352157600080fd5b505af1158015613535573d6000803e3d6000fd5b505050506135b9565b818310156135b95761354e612b57565b6001600160a01b0316634ba0c9b58c8f6135688787614a48565b6040518463ffffffff1660e01b81526004016135869392919061498b565b600060405180830381600087803b1580156135a057600080fd5b505af11580156135b4573d6000803e3d6000fd5b505050505b841561368e57604051639e8d3d5560e01b81526001600160a01b03891690639e8d3d55906135f2908e9089908690600090600401614a03565b602060405180830381600087803b15801561360c57600080fd5b505af1158015613620573d6000803e3d6000fd5b505050506040513d601f19601f820116820180604052508101906136449190614a2b565b50808d8c6001600160a01b03167fba00994778888e87ce0908fd360c4b0417bfe7e274cce4cb72ed8a60b38b3e386000878a60405161368593929190614a5f565b60405180910390a45b8315613763576040516305b0b29360e41b81526001600160a01b03891690635b0b2930906136c7908e9088908690600090600401614a03565b602060405180830381600087803b1580156136e157600080fd5b505af11580156136f5573d6000803e3d6000fd5b505050506040513d601f19601f820116820180604052508101906137199190614a2b565b50808d8c6001600160a01b03167fba00994778888e87ce0908fd360c4b0417bfe7e274cce4cb72ed8a60b38b3e386001868960405161375a93929190614a5f565b60405180910390a45b600061376f8587614872565b11985061377c8688614872565b99505050505050505050935093915050565b600061288e83836142e8565b60006001600160ff1b038211156133a05760405162461bcd60e51b815260206004820152602860248201527f53616665436173743a2076616c756520646f65736e27742066697420696e2061604482015267371034b73a191a9b60c11b6064820152608401611d3f565b60008061381184876127c1565b9050600061381d612b33565b600401600086815260200190815260200160002060008154811061384357613843614846565b60009182526020822001548594506001600160a01b031691505b8251811015613909578361387057613909565b6138f588888886858151811061388857613888614846565b602002602001015188876001600160a01b03166138a3612b33565b60060160008e815260200190815260200160002060008b8a815181106138cb576138cb614846565b6020908102919091018101518252810191909152604001600020546001600160a01b031614613914565b93508061390181614951565b91505061385d565b505050949350505050565b81600081128215613c4d576000613929612dda565b60405163386320d360e11b8152600481018990526001600160a01b038b8116602483015291909116906370c641a69060440160206040518083038186803b15801561397357600080fd5b505afa158015613987573d6000803e3d6000fd5b505050506040513d601f19601f820116820180604052508101906139ab9190614a95565b90508180156139ba5750600081125b806139ce5750811580156139ce5750600081135b15613c4b5760006139dd612dda565b6001600160a01b03166349a1d218896040518263ffffffff1660e01b8152600401613a0a91815260200190565b60206040518083038186803b158015613a2257600080fd5b505afa158015613a36573d6000803e3d6000fd5b505050506040513d601f19601f82011682018060405250810190613a5a9190614a95565b90506000613a66612dda565b6001600160a01b03166318612e328a6000613a828d878b6143db565b6040516001600160e01b031960e086901b16815260048101939093526024830191909152604482015260640160206040518083038186803b158015613ac657600080fd5b505afa158015613ada573d6000803e3d6000fd5b505050506040513d601f19601f82011682018060405250810190613afe9190614a95565b9050838015613b0c57508083135b80613b1f575083158015613b1f57508083125b15613b275750815b613b2f612dda565b604051633916cf2b60e21b8152600481018b90526001600160a01b038d811660248301528c8116604483015260648201849052919091169063e45b3cac90608401600060405180830381600087803b158015613b8a57600080fd5b505af1158015613b9e573d6000803e3d6000fd5b50505050613c3c8983613baf612dda565b604051637636e94160e01b8152600481018e905260006024820152604481018690526001600160a01b039190911690637636e9419060640160206040518083038186803b158015613bff57600080fd5b505afa158015613c13573d6000803e3d6000fd5b505050506040513d601f19601f82011682018060405250810190613c379190614a95565b6141aa565b613c469086614aae565b945050505b505b6000613c57612b33565b60008881526005919091016020526040812090613c72612b33565b60008a8152600691909101602090815260408083208b84528252808320546001600160a01b03908116855291840194909452918301812054925163070da1af60e11b81528c83166004820152929091169250908290630e1b435e90602401604080518083038186803b158015613ce757600080fd5b505afa158015613cfb573d6000803e3d6000fd5b505050506040513d601f19601f82011682018060405250810190613d1f9190614cb9565b509050828015613d2f5750600081125b80613d43575082158015613d435750600081135b15613e08576000613d558989876143db565b9050838015613d6357508082135b80613d76575083158015613d7657508082125b15613d7e5750805b604051630c02764960e31b81526001600160a01b038c811660048301528b8116602483015260448201839052606482018a9052841690636013b24890608401600060405180830381600087803b158015613dd757600080fd5b505af1158015613deb573d6000803e3d6000fd5b50505050613dfa8989836141aa565b613e049086614aae565b9450505b838614613e1a57613e1a88888b612897565b5050509695505050505050565b60606000613e3483613ef7565b9392505050565b6000818152600183016020526040812054151561288e565b600061288e8383614492565b60008181527f4abde63c3e81aefa5764b017968bc473e83e093d7e1a10247d19e0a3e41240196020908152604080832054815170026b4b9b9b4b7339030b2323932b9b99d1607d1b9381019390935260318084018690528251808503909101815260519093019091526001600160a01b03169081613ef05760405162461bcd60e51b8152600401611d3f9190614dec565b5092915050565b606081600001805480602002602001604051908101604052809291908181526020018280548015613f4757602002820191906000526020600020905b815481526020019060010190808311613f33575b50505050509050919050565b6000826000018281548110613f6a57613f6a614846565b9060005260206000200154905092915050565b6000806000613f8a612b33565b6004016000878152602001908152602001600020600081548110613fb057613fb0614846565b6000918252602080832090910154604080516371613c2d60e01b815290516001600160a01b03909216945084926371613c2d92600480840193829003018186803b158015613ffd57600080fd5b505afa158015614011573d6000803e3d6000fd5b505050506040513d601f19601f820116820180604052508101906140359190614a95565b905061403f612dda565b60405163474611f160e01b815260048101899052602481018890526001600160a01b03919091169063474611f19060440160a06040518083038186803b15801561408857600080fd5b505afa15801561409c573d6000803e3d6000fd5b505050506040513d601f19601f820116820180604052508101906140c09190614e41565b516140fa576140d08787876141aa565b93506140f36140de8261379a565b6140e961271061379a565b6133489087614d13565b92506141a0565b614102612dda565b604051631b736f6760e31b8152600481018990526024810188905260006044820152606481018790526001600160a01b03919091169063db9b7b389060840160206040518083038186803b15801561415957600080fd5b505afa15801561416d573d6000803e3d6000fd5b505050506040513d601f19601f820116820180604052508101906141919190614a95565b925061419d8382613325565b93505b5050935093915050565b6000806141b5612b33565b6000868152600691909101602090815260408083208784528252918290205482516371613c2d60e01b815292516001600160a01b03909116926371613c2d926004808301939192829003018186803b15801561421057600080fd5b505afa158015614224573d6000803e3d6000fd5b505050506040513d601f19601f820116820180604052508101906142489190614a95565b90506142548382613325565b95945050505050565b60008161426957600080fd5b60006142758385614eb1565b61428090600a614d13565b8361428c86600a614d13565b6142969190614eb1565b6142a09190614aae565b9050600581126142bf576142b48385614eb1565b612c90906001614aed565b60041981136142de5760016142d48486614eb1565b612c909190614aae565b612c908385614eb1565b600081815260018301602052604081205480156143d157600061430c600183614a48565b855490915060009061432090600190614a48565b905081811461438557600086600001828154811061434057614340614846565b906000526020600020015490508087600001848154811061436357614363614846565b6000918252602080832090910192909255918252600188019052604090208390555b855486908061439657614396614edf565b600190038181906000526020600020016000905590558560010160008681526020019081526020016000206000905560019350505050612891565b6000915050612891565b6000806144816143e9612b33565b6000878152600691909101602090815260408083208884528252918290205482516371613c2d60e01b815292516001600160a01b03909116926371613c2d926004808301939192829003018186803b15801561444457600080fd5b505afa158015614458573d6000803e3d6000fd5b505050506040513d601f19601f8201168201806040525081019061447c9190614a95565b61379a565b90506142548161333e61271061379a565b60008181526001830160205260408120546144d957508154600181810184556000848152602080822090930184905584548482528286019093526040902091909155612891565b506000612891565b80356001600160a01b03811681146144f857600080fd5b919050565b60008060006060848603121561451257600080fd5b61451b846144e1565b95602085013595506040909401359392505050565b60008060006060848603121561454557600080fd5b83359250614555602085016144e1565b9150604084013590509250925092565b60008060006060848603121561457a57600080fd5b8335925060208401359150614591604085016144e1565b90509250925092565b80151581146145a857600080fd5b50565b600080600080600080600080610100898b0312156145c857600080fd5b88359750602089013596506145df60408a016144e1565b95506060890135600281106145f357600080fd5b94506080890135935060a0890135925060c0890135915060e08901356146188161459a565b809150509295985092959890939650565b6000806040838503121561463c57600080fd5b8235915061464c602084016144e1565b90509250929050565b60006020828403121561466757600080fd5b61288e826144e1565b6000806000806080858703121561468657600080fd5b84359350614696602086016144e1565b93969395505050506040820135916060013590565b600080600080600060a086880312156146c357600080fd5b6146cc866144e1565b94506146da602087016144e1565b94979496505050506040830135926060810135926080909101359150565b6020808252825182820181905260009190848201906040850190845b8181101561473057835183529284019291840191600101614714565b50909695505050505050565b634e487b7160e01b600052604160045260246000fd5b604051601f8201601f1916810167ffffffffffffffff8111828210171561477b5761477b61473c565b604052919050565b600067ffffffffffffffff82111561479d5761479d61473c565b5060051b60200190565b600060208083850312156147ba57600080fd5b825167ffffffffffffffff8111156147d157600080fd5b8301601f810185136147e257600080fd5b80516147f56147f082614783565b614752565b81815260059190911b8201830190838101908783111561481457600080fd5b928401925b8284101561483b57835161482c8161459a565b82529284019290840190614819565b979650505050505050565b634e487b7160e01b600052603260045260246000fd5b634e487b7160e01b600052601160045260246000fd5b600082198211156148855761488561485c565b500190565b6000604082018483526020604081850152818551808452606086019150828701935060005b81811015610c95578451835293830193918301916001016148af565b600060208083850312156148de57600080fd5b825167ffffffffffffffff8111156148f557600080fd5b8301601f8101851361490657600080fd5b80516149146147f082614783565b81815260059190911b8201830190838101908783111561493357600080fd5b928401925b8284101561483b57835182529284019290840190614938565b60006000198214156149655761496561485c565b5060010190565b60008160001904831182151516156149865761498661485c565b500290565b6001600160a01b039390931683526020830191909152604082015260600190565b600080600080608085870312156149c257600080fd5b84519350602085015192506040850151915060608501516149e28161459a565b939692955090935050565b634e487b7160e01b600052602160045260246000fd5b6001600160a01b03949094168452602084019290925260408301521515606082015260800190565b600060208284031215614a3d57600080fd5b8151613e348161459a565b600082821015614a5a57614a5a61485c565b500390565b6060810160028510614a8157634e487b7160e01b600052602160045260246000fd5b938152602081019290925260409091015290565b600060208284031215614aa757600080fd5b5051919050565b60008083128015600160ff1b850184121615614acc57614acc61485c565b6001600160ff1b0384018313811615614ae757614ae761485c565b50500390565b600080821280156001600160ff1b0384900385131615614b0f57614b0f61485c565b600160ff1b8390038412811615614b2857614b2861485c565b50500190565b6000600160ff1b821415614b4457614b4461485c565b5060000390565b600080600060608486031215614b6057600080fd5b8351925060208401519150604084015190509250925092565b600060208284031215614b8b57600080fd5b815160ff81168114613e3457600080fd5b600181815b80851115614bd7578160001904821115614bbd57614bbd61485c565b80851615614bca57918102915b93841c9390800290614ba1565b509250929050565b600082614bee57506001612891565b81614bfb57506000612891565b8160018114614c115760028114614c1b57614c37565b6001915050612891565b60ff841115614c2c57614c2c61485c565b50506001821b612891565b5060208310610133831016604e8410600b8410161715614c5a575081810a612891565b614c648383614b9c565b8060001904821115614c7857614c7861485c565b029392505050565b600061288e60ff841683614bdf565b634e487b7160e01b600052601260045260246000fd5b600082614cb457614cb4614c8f565b500490565b60008060408385031215614ccc57600080fd5b505080516020909101519092909150565b60008060008060808587031215614cf357600080fd5b505082516020840151604085015160609095015191969095509092509050565b60006001600160ff1b0381841382841380821686840486111615614d3957614d3961485c565b600160ff1b6000871282811687830589121615614d5857614d5861485c565b60008712925087820587128484161615614d7457614d7461485c565b87850587128184161615614d8a57614d8a61485c565b505050929093029392505050565b600080600080600080600060e0888a031215614db357600080fd5b5050855160208701516040880151606089015160808a015160a08b015160c0909b0151949c939b50919990985090965094509092509050565b600060208083528351808285015260005b81811015614e1957858101830151858201604001528201614dfd565b81811115614e2b576000604083870101525b50601f01601f1916929092016040019392505050565b600060a08284031215614e5357600080fd5b60405160a0810181811067ffffffffffffffff82111715614e7657614e7661473c565b806040525082518152602083015160208201526040830151604082015260608301516060820152608083015160808201528091505092915050565b600082614ec057614ec0614c8f565b600160ff1b821460001984141615614eda57614eda61485c565b500590565b634e487b7160e01b600052603160045260246000fdfea26469706673582212208e5410647a4e12efb86252a6d31b830cb60def426ed31c2090a01f9dc207bd5d64736f6c63430008090033",
  "libraries": {
    "QuickSort": "0x75BcD9804EDf5d73dbDeE13e08EF9e7fCeE6E3cf"
  },
  "devdoc": {
    "kind": "dev",
    "methods": {
      "convertFutureValueToGenesisValue(bytes32,uint256,address)": {
        "params": {
          "_ccy": "Currency for pausing all lending markets",
          "_user": "User's address"
        },
        "returns": {
          "_0": "Current future value amount after update"
        }
      }
    },
    "version": 1
  },
  "userdoc": {
    "kind": "user",
    "methods": {
      "convertFutureValueToGenesisValue(bytes32,uint256,address)": {
        "notice": "Converts the future value to the genesis value if there is balance in the past maturity."
      }
    },
    "version": 1
  },
  "storageLayout": {
    "storage": [],
    "types": null
  }
}