{
  "address": "0x2767a5DdBe9Baa7bBCC2e5f873089e383D9e1369",
  "abi": [
    {
      "anonymous": false,
      "inputs": [
        {
          "indexed": true,
          "internalType": "address",
          "name": "taker",
          "type": "address"
        },
        {
          "indexed": true,
          "internalType": "bytes32",
          "name": "ccy",
          "type": "bytes32"
        },
        {
          "indexed": false,
          "internalType": "enum ProtocolTypes.Side",
          "name": "side",
          "type": "uint8"
        },
        {
          "indexed": true,
          "internalType": "uint256",
          "name": "maturity",
          "type": "uint256"
        },
        {
          "indexed": false,
          "internalType": "uint256",
          "name": "amount",
          "type": "uint256"
        },
        {
          "indexed": false,
          "internalType": "uint256",
          "name": "futureValue",
          "type": "uint256"
        }
      ],
      "name": "OrderFilled",
      "type": "event"
    },
    {
      "anonymous": false,
      "inputs": [
        {
          "indexed": true,
          "internalType": "address",
          "name": "taker",
          "type": "address"
        },
        {
          "indexed": true,
          "internalType": "bytes32",
          "name": "ccy",
          "type": "bytes32"
        },
        {
          "indexed": false,
          "internalType": "enum ProtocolTypes.Side",
          "name": "side",
          "type": "uint8"
        },
        {
          "indexed": true,
          "internalType": "uint256",
          "name": "maturity",
          "type": "uint256"
        },
        {
          "indexed": false,
          "internalType": "uint256",
          "name": "amount",
          "type": "uint256"
        },
        {
          "indexed": false,
          "internalType": "uint256",
          "name": "futureValue",
          "type": "uint256"
        }
      ],
      "name": "OrdersFilledInAsync",
      "type": "event"
    },
    {
      "inputs": [
        {
          "internalType": "bytes32",
          "name": "_ccy",
          "type": "bytes32"
        },
        {
          "internalType": "uint256",
          "name": "_maturity",
          "type": "uint256"
        },
        {
          "internalType": "address",
          "name": "_user",
          "type": "address"
        }
      ],
      "name": "calculateActualFunds",
      "outputs": [
        {
          "components": [
            {
              "internalType": "int256",
              "name": "presentValue",
              "type": "int256"
            },
            {
              "internalType": "int256",
              "name": "futureValue",
              "type": "int256"
            },
            {
              "internalType": "uint256",
              "name": "workingLendOrdersAmount",
              "type": "uint256"
            },
            {
              "internalType": "uint256",
              "name": "lentAmount",
              "type": "uint256"
            },
            {
              "internalType": "uint256",
              "name": "workingBorrowOrdersAmount",
              "type": "uint256"
            },
            {
              "internalType": "uint256",
              "name": "borrowedAmount",
              "type": "uint256"
            },
            {
              "internalType": "int256",
              "name": "genesisValue",
              "type": "int256"
            }
          ],
          "internalType": "struct FundManagementLogic.ActualFunds",
          "name": "actualFunds",
          "type": "tuple"
        }
      ],
      "stateMutability": "view",
      "type": "function"
    },
    {
      "inputs": [
        {
          "internalType": "bytes32",
          "name": "_ccy",
          "type": "bytes32"
        },
        {
          "internalType": "address",
          "name": "_user",
          "type": "address"
        }
      ],
      "name": "calculateFunds",
      "outputs": [
        {
          "internalType": "uint256",
          "name": "workingLendOrdersAmount",
          "type": "uint256"
        },
        {
          "internalType": "uint256",
          "name": "claimableAmount",
          "type": "uint256"
        },
        {
          "internalType": "uint256",
          "name": "collateralAmount",
          "type": "uint256"
        },
        {
          "internalType": "uint256",
          "name": "lentAmount",
          "type": "uint256"
        },
        {
          "internalType": "uint256",
          "name": "workingBorrowOrdersAmount",
          "type": "uint256"
        },
        {
          "internalType": "uint256",
          "name": "debtAmount",
          "type": "uint256"
        },
        {
          "internalType": "uint256",
          "name": "borrowedAmount",
          "type": "uint256"
        }
      ],
      "stateMutability": "view",
      "type": "function"
    },
    {
      "inputs": [
        {
          "internalType": "address",
          "name": "_user",
          "type": "address"
        },
        {
          "internalType": "bytes32",
          "name": "_depositCcy",
          "type": "bytes32"
        },
        {
          "internalType": "uint256",
          "name": "_depositAmount",
          "type": "uint256"
        }
      ],
      "name": "calculateTotalFundsInETH",
      "outputs": [
        {
          "internalType": "uint256",
          "name": "totalWorkingLendOrdersAmount",
          "type": "uint256"
        },
        {
          "internalType": "uint256",
          "name": "totalClaimableAmount",
          "type": "uint256"
        },
        {
          "internalType": "uint256",
          "name": "totalCollateralAmount",
          "type": "uint256"
        },
        {
          "internalType": "uint256",
          "name": "totalLentAmount",
          "type": "uint256"
        },
        {
          "internalType": "uint256",
          "name": "totalWorkingBorrowOrdersAmount",
          "type": "uint256"
        },
        {
          "internalType": "uint256",
          "name": "totalDebtAmount",
          "type": "uint256"
        },
        {
          "internalType": "uint256",
          "name": "totalBorrowedAmount",
          "type": "uint256"
        },
        {
          "internalType": "bool",
          "name": "isEnoughDeposit",
          "type": "bool"
        }
      ],
      "stateMutability": "view",
      "type": "function"
    },
    {
      "inputs": [
        {
          "internalType": "bytes32",
          "name": "_ccy",
          "type": "bytes32"
        },
        {
          "internalType": "address",
          "name": "_user",
          "type": "address"
        }
      ],
      "name": "getUsedMaturities",
      "outputs": [
        {
          "internalType": "uint256[]",
          "name": "maturities",
          "type": "uint256[]"
        }
      ],
      "stateMutability": "view",
      "type": "function"
    }
  ],
  "transactionHash": "0x5ed5e538a3d26e22549845481c5333651b31ac30157398bd4db59a23c4bdaa3e",
  "args": [],
  "numDeployments": 1,
  "solcInputHash": "1ac2fb69d48f421b49df5db0f40e0e97",
  "bytecode": "0x614ff061003a600b82828239805160001a60731461002d57634e487b7160e01b600052600060045260246000fd5b30600052607381538281f3fe73000000000000000000000000000000000000000030146080604052600436106100be5760003560e01c80639519832b1161007b5780639519832b146102395780639aaf864914610259578063a86c2a3e14610279578063b61ef55a14610299578063b6eb033d146102b9578063bab7ae17146102d957600080fd5b80630312b528146100c35780631696a4cd14610118578063300074c91461013a578063390e5d12146101685780634ad23880146101885780635c347765146101f1575b600080fd5b6100d66100d136600461460b565b6102f9565b604080519889526020890197909752958701949094526060860192909252608085015260a084015260c0830152151560e0820152610100015b60405180910390f35b81801561012457600080fd5b5061013861013336600461463e565b610808565b005b81801561014657600080fd5b5061015a610155366004614673565b610a6e565b60405190815260200161010f565b81801561017457600080fd5b506101386101833660046146b9565b610c67565b61019b610196366004614673565b610fe5565b60405161010f9190600060e082019050825182526020830151602083015260408301516040830152606083015160608301526080830151608083015260a083015160a083015260c083015160c083015292915050565b6102046101ff366004614737565b611748565b604080519788526020880196909652948601939093526060850191909152608084015260a083015260c082015260e00161010f565b81801561024557600080fd5b5061015a610254366004614737565b611867565b81801561026557600080fd5b50610138610274366004614763565b611bd3565b81801561028557600080fd5b5061015a61029436600461479e565b611e02565b6102ac6102a7366004614737565b6126e2565b60405161010f91906147eb565b8180156102c557600080fd5b506101386102d4366004614673565b6127b8565b8180156102e557600080fd5b5061015a6102f4366004614737565b612894565b600080600080600080600080600061030f612a55565b60080160008d6001600160a01b03166001600160a01b0316815260200190815260200160002090506103736040518060c001604052806060815260200160008019168152602001606081526020016060815260200160008152602001600081525090565b61037b612a79565b6001600160a01b0316633f90a08e61039284612a96565b6040518263ffffffff1660e01b81526004016103ae91906147eb565b60006040518083038186803b1580156103c657600080fd5b505afa1580156103da573d6000803e3d6000fd5b505050506040513d6000823e601f3d908101601f19168201604052610402919081019061489a565b8152608081018b905260005b61041783612aa1565b8110156107ea576104288382612aab565b602083015260408051600780825261010082019092529081602001602082028036833750505060408301526020820151610462908f611748565b886040015160008151811061047957610479614939565b60200260200101896040015160018151811061049757610497614939565b602002602001018a604001516002815181106104b5576104b5614939565b602002602001018b604001516003815181106104d3576104d3614939565b602002602001018c604001516004815181106104f1576104f1614939565b602002602001018d6040015160058151811061050f5761050f614939565b602002602001018e6040015160068151811061052d5761052d614939565b6020908102919091018101979097529690965295909452949093529390529290529190528201518d14156105ec57816040015160068151811061057257610572614939565b60200260200101518260800181815161058b9190614965565b9052506040820151805160039081106105a6576105a6614939565b602002602001015182604001516000815181106105c5576105c5614939565b60200260200101516105d79190614965565b8260a0018181516105e89190614965565b9052505b6105f4612ab7565b6001600160a01b031663939fe622836020015184604001516040518363ffffffff1660e01b815260040161062992919061497d565b60006040518083038186803b15801561064157600080fd5b505afa158015610655573d6000803e3d6000fd5b505050506040513d6000823e601f3d908101601f1916820160405261067d91908101906149be565b606083018190528051600190811061069757610697614939565b60200260200101518a6106aa9190614965565b995081606001516002815181106106c3576106c3614939565b6020026020010151896106d69190614965565b985081606001516004815181106106ef576106ef614939565b6020026020010151876107029190614965565b9650816060015160058151811061071b5761071b614939565b60200260200101518661072e9190614965565b95508160000151818151811061074657610746614939565b6020026020010151156107d857816060015160008151811061076a5761076a614939565b60200260200101518b61077d9190614965565b9a50816060015160038151811061079657610796614939565b6020026020010151886107a99190614965565b975081606001516006815181106107c2576107c2614939565b6020026020010151856107d59190614965565b94505b806107e281614a44565b91505061040e565b508060a0015181608001511015925050509397509397509397509397565b6000610812612a79565b6001600160a01b031663d5e190d06040518163ffffffff1660e01b815260040160006040518083038186803b15801561084a57600080fd5b505afa15801561085e573d6000803e3d6000fd5b505050506040513d6000823e601f3d908101601f1916820160405261088691908101906149be565b90506000815167ffffffffffffffff8111156108a4576108a461482f565b6040519080825280602002602001820160405280156108cd578160200160208202803683370190505b5090506000805b83518110156109715760008482815181106108f1576108f1614939565b60200260200101519050610903612a55565b60030160008281526020019081526020016000205484838151811061092a5761092a614939565b60200260200101818152505083828151811061094857610948614939565b60200260200101518361095b9190614965565b925050808061096990614a44565b9150506108d4565b50600061097e8786612ad7565b905060005b8451811015610a645760008582815181106109a0576109a0614939565b6020026020010151905060006109e4826109df878987815181106109c6576109c6614939565b6020026020010151886109d99190614a5f565b90612bba565b612c2b565b90506109ee612a79565b6001600160a01b0316634ba0c9b58a84846040518463ffffffff1660e01b8152600401610a1d93929190614a7e565b600060405180830381600087803b158015610a3757600080fd5b505af1158015610a4b573d6000803e3d6000fd5b5050505050508080610a5c90614a44565b915050610983565b5050505050505050565b600080610a79612a55565b60008681526005919091016020526040812090610a94612a55565b6000888152600691909101602090815260408083208984528252808320546001600160a01b03908116855291840194909452918301812054925163ae100e6d60e01b815286831660048201526024810188905292909116925090819081908190859063ae100e6d90604401608060405180830381600087803b158015610b1957600080fd5b505af1158015610b2d573d6000803e3d6000fd5b505050506040513d601f19601f82011682018060405250810190610b519190614a9f565b935093509350935083600014610c5a578015610bdf57610b6f612cfc565b60405163312c474560e01b8152600481018b90526001600160a01b03898116602483015260448201859052919091169063312c474590606401600060405180830381600087803b158015610bc257600080fd5b505af1158015610bd6573d6000803e3d6000fd5b50505050610c5a565b610be7612cfc565b6040516360e3f72960e11b8152600481018b90526001600160a01b0389811660248301526044820185905260648201879052919091169063c1c7ee5290608401600060405180830381600087803b158015610c4157600080fd5b505af1158015610c55573d6000803e3d6000fd5b505050505b5090979650505050505050565b6000610c71612a55565b60008a81526005919091016020526040812090610c8c612a55565b60008c8152600691909101602090815260408083208d84528252808320546001600160a01b0390811685529184019490945291909201909120541690506001866001811115610cdd57610cdd614ae0565b1415610de157610ceb612a79565b6001600160a01b0316634ba0c9b5888b876040518463ffffffff1660e01b8152600401610d1a93929190614a7e565b600060405180830381600087803b158015610d3457600080fd5b505af1158015610d48573d6000803e3d6000fd5b50505050806001600160a01b0316635b0b2930888588610d689190614965565b8b866040518563ffffffff1660e01b8152600401610d899493929190614af6565b602060405180830381600087803b158015610da357600080fd5b505af1158015610db7573d6000803e3d6000fd5b505050506040513d601f19601f82011682018060405250810190610ddb9190614b1e565b50610edb565b610de9612a79565b6001600160a01b031663fb7bd3b4888b876040518463ffffffff1660e01b8152600401610e1893929190614a7e565b600060405180830381600087803b158015610e3257600080fd5b505af1158015610e46573d6000803e3d6000fd5b50505050806001600160a01b0316639e8d3d55888588610e669190614b3b565b8b866040518563ffffffff1660e01b8152600401610e879493929190614af6565b602060405180830381600087803b158015610ea157600080fd5b505af1158015610eb5573d6000803e3d6000fd5b505050506040513d601f19601f82011682018060405250810190610ed99190614b1e565b505b8215610f93576000610eeb612d1b565b90506001600160a01b038216639e8d3d5582868c60008c6001811115610f1357610f13614ae0565b146040518563ffffffff1660e01b8152600401610f339493929190614af6565b602060405180830381600087803b158015610f4d57600080fd5b505af1158015610f61573d6000803e3d6000fd5b505050506040513d601f19601f82011682018060405250810190610f859190614b1e565b50610f918a8a836127b8565b505b8789886001600160a01b03167ff80dd09632f046e05472e1c239271a3b2ad3de73c27a1b03d0bb0329ba6716df89888a604051610fd293929190614b52565b60405180910390a4505050505050505050565b6110256040518060e00160405280600081526020016000815260200160008152602001600081526020016000815260200160008152602001600081525090565b6040805160808101825260008082526020820181905291810191909152606080820152836110a55760018152611059612a55565b600401600086815260200190815260200160002060008154811061107f5761107f614939565b600091825260209182902001546001600160a01b0316908201526001604082015261112f565b600081526110b1612a55565b6000868152600691909101602090815260408083208784528252909120546001600160a01b0316908201526110e4612a55565b600401600086815260200190815260200160002060008154811061110a5761110a614939565b60009182526020918290200154908201516001600160a01b0390811691161460408201525b611137612cfc565b60405163386320d360e11b8152600481018790526001600160a01b03858116602483015291909116906370c641a69060440160206040518083038186803b15801561118157600080fd5b505afa158015611195573d6000803e3d6000fd5b505050506040513d601f19601f820116820180604052508101906111b99190614b88565b60c08301526111c885846126e2565b606082015260005b8160600151518110156115a95760006111e7612a55565b600601600088815260200190815260200160002060008460600151848151811061121357611213614939565b6020026020010151815260200190815260200160002060009054906101000a90046001600160a01b031690506000816001600160a01b031663e16695b56040518163ffffffff1660e01b815260040160206040518083038186803b15801561127a57600080fd5b505afa15801561128e573d6000803e3d6000fd5b505050506040513d601f19601f820116820180604052508101906112b29190614b88565b905060006112be612a55565b60040160008a81526020019081526020016000206000815481106112e4576112e4614939565b60009182526020909120015460408601516001600160a01b03858116921691909114915080611328575084602001516001600160a01b0316836001600160a01b0316145b1561159357600061133d8a8988868887612d34565b9050600061134f8b8a89878988612f24565b905060006113618c8b8a888a896130b2565b80518351855192935090916113769190614ba1565b6113809190614be0565b8960c0018181516113919190614be0565b905250604080820151838201519185015190916113ad91614ba1565b6113b79190614be0565b896020018181516113c89190614be0565b905250602080820151838201519185015190916113e491614ba1565b6113ee9190614be0565b89518a906113fd908390614be0565b905250606082015160808a018051611416908390614965565b905250606081015160408a01805161142f908390614965565b905250608082015160a08a018051611448908390614965565b905250608081015160608a018051611461908390614965565b90525060c08901516000131561158f57600061147b612cfc565b6001600160a01b031663aee1311e8e8c60c001518c606001518c815181106114a5576114a5614939565b602002602001015160018e60600151516114bf9190614b3b565b8d146114f25760608e01516114d58e6001614965565b815181106114e5576114e5614939565b60200260200101516114f5565b60005b6040516001600160e01b031960e087901b168152600481019490945260248401929092526044830152606482015260840160206040518083038186803b15801561153e57600080fd5b505afa158015611552573d6000803e3d6000fd5b505050506040513d601f19601f820116820180604052508101906115769190614b88565b9050808a60c00181815161158a9190614be0565b905250505b5050505b50505080806115a190614a44565b9150506111d0565b50806040015180156115be575060c082015115155b156117405760006115cd612cfc565b60c0840151604051637636e94160e01b8152600481018990526000602482015260448101919091526001600160a01b039190911690637636e9419060640160206040518083038186803b15801561162357600080fd5b505afa158015611637573d6000803e3d6000fd5b505050506040513d601f19601f8201168201806040525081019061165b9190614b88565b905061171581611669612a55565b600401600089815260200190815260200160002060008154811061168f5761168f614939565b60009182526020918290200154604080516371613c2d60e01b815290516001600160a01b03909216926371613c2d92600480840193829003018186803b1580156116d857600080fd5b505afa1580156116ec573d6000803e3d6000fd5b505050506040513d601f19601f820116820180604052508101906117109190614b88565b613242565b83518490611724908390614be0565b90525060208301805182919061173b908390614be0565b905250505b509392505050565b6000806000806000806000806117608a60008b610fe5565b90508060400151975080606001519450806080015193508060a0015191506000816000015113156118395780516117969061326b565b965060006117a2612ab7565b6001600160a01b0316639abdb38a8c6040518263ffffffff1660e01b81526004016117cf91815260200190565b60206040518083038186803b1580156117e757600080fd5b505afa1580156117fb573d6000803e3d6000fd5b505050506040513d601f19601f8201168201806040525081019061181f9190614b88565b90506118316127106109d9838b614a5f565b96505061185a565b80516000131561185a5780516118579061185290614c21565b61326b565b92505b5092959891949750929550565b6000808061187585856126e2565b905060005b8151811015611af657600061188d612a55565b600601600088815260200190815260200160002060008484815181106118b5576118b5614939565b6020026020010151815260200190815260200160002060009054906101000a90046001600160a01b031690506000816001600160a01b031663e16695b56040518163ffffffff1660e01b815260040160206040518083038186803b15801561191c57600080fd5b505afa158015611930573d6000803e3d6000fd5b505050506040513d601f19601f820116820180604052508101906119549190614b88565b9050600061196389838a610a6e565b90506000806119738b858c6132c1565b9092509050611982828a614965565b98508015611998576119958b858c610a6e565b92505b82156119a357600197505b821580156119af575081155b15611a2057611a1e8787815181106119c9576119c9614939565b60200260200101516119d9612a55565b60090160008e815260200190815260200160002060008d6001600160a01b03166001600160a01b031681526020019081526020016000206136ab90919063ffffffff16565b505b611a28612cfc565b6001600160a01b031663eeac29d88c8c60018b51611a469190614b3b565b8a14611a75578a611a588b6001614965565b81518110611a6857611a68614939565b6020026020010151611a78565b60005b6040516001600160e01b031960e086901b16815260048101939093526001600160a01b0390911660248301526044820152606401600060405180830381600087803b158015611ac657600080fd5b505af1158015611ada573d6000803e3d6000fd5b5050505050505050508080611aee90614a44565b91505061187a565b5082158015611b03575081155b8015611b965750611b12612cfc565b60405163386320d360e11b8152600481018790526001600160a01b03868116602483015291909116906370c641a69060440160206040518083038186803b158015611b5c57600080fd5b505afa158015611b70573d6000803e3d6000fd5b505050506040513d601f19601f82011682018060405250810190611b949190614b88565b155b15611bcb57611bc985611ba7612a55565b6001600160a01b038716600090815260089190910160205260409020906136ab565b505b505092915050565b611bdb612a79565b6001600160a01b0316635d95df8a826040518263ffffffff1660e01b8152600401611c0891815260200190565b60206040518083038186803b158015611c2057600080fd5b505afa158015611c34573d6000803e3d6000fd5b505050506040513d601f19601f82011682018060405250810190611c589190614b1e565b611ca95760405162461bcd60e51b815260206004820152601c60248201527f4e6f74207265676973746572656420617320636f6c6c61746572616c0000000060448201526064015b60405180910390fd5b6000611cb3612a79565b604051630129e6bf60e11b81526001600160a01b038681166004830152602482018590529190911690630253cd7e9060440160206040518083038186803b158015611cfd57600080fd5b505afa158015611d11573d6000803e3d6000fd5b505050506040513d601f19601f82011682018060405250810190611d359190614b88565b90506000611d47836109df8887612ad7565b905080821015611d915760405162461bcd60e51b8152602060048201526015602482015274139bdd08195b9bdd59da0818dbdb1b185d195c985b605a1b6044820152606401611ca0565b611d99612a79565b6001600160a01b031663fb7bd3b48685846040518463ffffffff1660e01b8152600401611dc893929190614a7e565b600060405180830381600087803b158015611de257600080fd5b505af1158015611df6573d6000803e3d6000fd5b50505050505050505050565b6000611e656040518061016001604052806000815260200160008152602001600081526020016000815260200160008152602001600081526020016000815260200160001515815260200160001515815260200160008152602001600081525090565b6000611e72858589610fe5565b60200151905060008112611ec85760405162461bcd60e51b815260206004820181905260248201527f4e6f206465627420696e207468652073656c6563746564206d617475726974796044820152606401611ca0565b6000611edd8686611ed885614c21565b6136b7565b509050611ee8612a79565b6001600160a01b0316635257ed678989611f00612ab7565b6001600160a01b031663b99c6ca88b8d611f198961326b565b6040516001600160e01b031960e086901b16815260048101939093526024830191909152604482015260640160206040518083038186803b158015611f5d57600080fd5b505afa158015611f71573d6000803e3d6000fd5b505050506040513d601f19601f82011682018060405250810190611f959190614b88565b6040518463ffffffff1660e01b8152600401611fb393929190614a7e565b60806040518083038186803b158015611fcb57600080fd5b505afa158015611fdf573d6000803e3d6000fd5b505050506040513d601f19601f820116820180604052508101906120039190614c3e565b6080870152606086015260408501528084526120615760405162461bcd60e51b815260206004820152601a60248201527f557365722068617320656e6f75676820636f6c6c61746572616c0000000000006044820152606401611ca0565b612069612ab7565b83516040516317338d9560e31b8152600481018a90526024810189905260448101919091526001600160a01b03919091169063b99c6ca89060640160206040518083038186803b1580156120bc57600080fd5b505afa1580156120d0573d6000803e3d6000fd5b505050506040513d601f19601f820116820180604052508101906120f49190614b88565b602084018190526121059085614965565b935061210f612a55565b600401600087815260200190815260200160002060008154811061213557612135614939565b6000918252602090912001546001600160a01b0316612152612a55565b6000888152600691909101602090815260408083208984529091529020546001600160a01b03161460e0840152612187612d1b565b6001600160a01b031663b187bd266040518163ffffffff1660e01b815260040160206040518083038186803b1580156121bf57600080fd5b505afa1580156121d3573d6000803e3d6000fd5b505050506040513d601f19601f820116820180604052508101906121f79190614b1e565b151561010084018190526122cd5761222c612210612d1b565b8988886122228b8b8a602001516138e4565b8860e0015161399d565b60a0840152612239612ab7565b60a08401516040516317338d9560e31b815260048101899052602481018a905260448101919091526001600160a01b03919091169063b99c6ca89060640160206040518083038186803b15801561228f57600080fd5b505afa1580156122a3573d6000803e3d6000fd5b505050506040513d601f19601f820116820180604052508101906122c79190614b88565b60c08401525b60c0830151606084015184516122e39190614965565b6122ed9190614b3b565b6101208401526122fb612a79565b61012084015160405163500d2f6d60e01b8152600481018a90526001600160a01b038b811660248301528c81166044830152606482019290925291169063500d2f6d90608401600060405180830381600087803b15801561235b57600080fd5b505af115801561236f573d6000803e3d6000fd5b5050505061237b612a79565b6001600160a01b031663500d2f6d888a612393612d1b565b8760c0015188604001516123a79190614965565b6040516001600160e01b031960e087901b16815260048101949094526001600160a01b039283166024850152911660448301526064820152608401600060405180830381600087803b1580156123fc57600080fd5b505af1158015612410573d6000803e3d6000fd5b505050506000836080015111801561242b5750826101000151155b1561257957612438612a79565b6040516354821c2160e01b81526001600160a01b038a8116600483015291909116906354821c219060240160206040518083038186803b15801561247b57600080fd5b505afa15801561248f573d6000803e3d6000fd5b505050506040513d601f19601f820116820180604052508101906124b39190614b88565b6125795760006124c1612ab7565b60808501516040516317338d9560e31b8152600481018b9052602481018a905260448101919091526001600160a01b03919091169063b99c6ca89060640160206040518083038186803b15801561251757600080fd5b505afa15801561252b573d6000803e3d6000fd5b505050506040513d601f19601f8201168201806040525081019061254f9190614b88565b905061256a61255c612d1b565b8a8989858960e00151613c06565b506125758186614965565b9450505b8260a00151836020015111156125c0578260a00151836020015161259d9190614b3b565b836101400181815250506125be888a88888761014001518860e00151613c06565b505b6001600160a01b0389163b156126d6576101208301516101408401516040516372d5a2ef60e11b81526001600160a01b038c811660048301819052908c166024830152604482018b905260648201939093526084810189905260a4810188905260c48101919091523360e482015263e5ab45de9061010401602060405180830381600087803b15801561265257600080fd5b505af1158015612666573d6000803e3d6000fd5b505050506040513d601f19601f8201168201806040525081019061268a9190614b1e565b6126d65760405162461bcd60e51b815260206004820152601b60248201527f496e76616c6964206f7065726174696f6e20657865637574696f6e00000000006044820152606401611ca0565b50505095945050505050565b606061271a6126ef612a55565b6000858152600991909101602090815260408083206001600160a01b038716845290915290206140c3565b8051909150156127b257604051634f64581360e11b81527344691dD3dF1E59176B3FeBDe91C27c29dF6b373490639ec8b0269061275b9084906004016147eb565b60006040518083038186803b15801561277357600080fd5b505af4158015612787573d6000803e3d6000fd5b505050506040513d6000823e601f3d908101601f191682016040526127af91908101906149be565b90505b92915050565b6127f0826127c4612a55565b6000868152600991909101602090815260408083206001600160a01b03871684529091529020906140d7565b61288f5761282c82612800612a55565b6000868152600991909101602090815260408083206001600160a01b03871684529091529020906140ef565b5061285b83612839612a55565b6001600160a01b038416600090815260089190910160205260409020906140d7565b61288f5761288d8361286b612a55565b6001600160a01b038416600090815260089190910160205260409020906140ef565b505b505050565b60006128a08383611867565b506128ad83600084610fe5565b51905060006128e86128bd612a55565b6000868152600991909101602090815260408083206001600160a01b038816845290915290206140c3565b905060005b81518110156129e1576128fe612a55565b60008681526005919091016020526040812090612919612a55565b6006016000888152602001908152602001600020600085858151811061294157612941614939565b60209081029190910181015182528181019290925260409081016000908120546001600160a01b039081168552928401949094529182019092205490516366c9d55160e01b815286831660048201529116906366c9d55190602401600060405180830381600087803b1580156129b657600080fd5b505af11580156129ca573d6000803e3d6000fd5b5050505080806129d990614a44565b9150506128ed565b506129ea612cfc565b60405163b340398d60e01b8152600481018690526001600160a01b038581166024830152919091169063b340398d90604401600060405180830381600087803b158015612a3657600080fd5b505af1158015612a4a573d6000803e3d6000fd5b505050505092915050565b7f8041b8421ebd495cc61f38c788c9eb100daccf9bd36aa0bb920b7a15b2e0496590565b6000612a9169151bdad95b95985d5b1d60b21b6140fb565b905090565b60606127b282614193565b60006127b2825490565b60006127af83836141ef565b6000612a917121bab93932b731bca1b7b73a3937b63632b960711b6140fb565b6000826208aa8960eb1b1415612aee5750806127b2565b6000612af8612ab7565b6001600160a01b031663facae93f856040518263ffffffff1660e01b8152600401612b2591815260200190565b60206040518083038186803b158015612b3d57600080fd5b505afa158015612b51573d6000803e3d6000fd5b505050506040513d601f19601f82011682018060405250810190612b759190614c74565b9050612bb2612b8582600a614d7b565b612ba8612b90612a55565b6000888152600291909101602052604090205461326b565b6109d99086614a5f565b9150506127b2565b6000808211612bc857600080fd5b6005612bd48385614da0565b612bdf90600a614a5f565b83612beb86600a614a5f565b612bf59190614da0565b612bff9190614b3b565b1015612c1657612c0f8284614da0565b90506127b2565b612c208284614da0565b612c0f906001614965565b6000826208aa8960eb1b1415612c425750806127b2565b6000612c4c612ab7565b6001600160a01b031663facae93f856040518263ffffffff1660e01b8152600401612c7991815260200190565b60206040518083038186803b158015612c9157600080fd5b505afa158015612ca5573d6000803e3d6000fd5b505050506040513d601f19601f82011682018060405250810190612cc99190614c74565b9050612bb2612cf1612cd9612a55565b6000878152600291909101602052604090205461326b565b612ba883600a614d7b565b6000612a917011d95b995cda5cd5985b1d5955985d5b1d607a1b6140fb565b6000612a916a14995cd95c9d99519d5b9960aa1b6140fb565b612d5860405180606001604052806000815260200160008152602001600081525090565b600080612d63612a55565b60008a8152600591909101602090815260408083206001600160a01b03898116855292529182902054915163070da1af60e11b81528a82166004820152911690630e1b435e90602401604080518083038186803b158015612dc357600080fd5b505afa158015612dd7573d6000803e3d6000fd5b505050506040513d601f19601f82011682018060405250810190612dfb9190614db4565b9150915081600014612f1857808614612eb157866040015115612eac57612e20612cfc565b604051630c30971960e11b8152600481018b905260248101839052604481018490526001600160a01b0391909116906318612e32906064015b60206040518083038186803b158015612e7157600080fd5b505afa158015612e85573d6000803e3d6000fd5b505050506040513d601f19601f82011682018060405250810190612ea99190614b88565b83525b612f18565b80861415612f185786518015612ec5575083155b15612ee457612ed58982846136b7565b60408501526020840152612f18565b865180612ef357508660400151155b80612efb5750835b15612f185760408301829052612f12898284614219565b60208401525b50509695505050505050565b612f566040518060a0016040528060008152602001600081526020016000815260200160008152602001600081525090565b604051631c7b209b60e31b81526001600160a01b038781166004830152600091829186169063e3d904d89060240160806040518083038186803b158015612f9c57600080fd5b505afa158015612fb0573d6000803e3d6000fd5b505050506040513d601f19601f82011682018060405250810190612fd49190614c3e565b6080870192909252606086019290925290925090508115612f185780861461305257866040015115612eac57613008612cfc565b6001600160a01b03166318612e328a83613021866142c3565b6040516001600160e01b031960e086901b168152600481019390935260248301919091526044820152606401612e59565b80861415612f185786518015613066575083155b1561307957612ed58982611ed8856142c3565b86518061308857508660400151155b806130905750835b15612f185761309e826142c3565b60408401819052612f12908a908390614219565b6130e46040518060a0016040528060008152602001600081526020016000815260200160008152602001600081525090565b6040516339f7dda360e21b81526001600160a01b038781166004830152600091829186169063e7df768c9060240160806040518083038186803b15801561312a57600080fd5b505afa15801561313e573d6000803e3d6000fd5b505050506040513d601f19601f820116820180604052508101906131629190614c3e565b6080870192909252606086019290925290925090508115612f185780861461305257866040015115612eac57613196612cfc565b6001600160a01b03166318612e328a836131af866142c3565b6040516001600160e01b031960e086901b16815260048101939093526024830191909152604482015260640160206040518083038186803b1580156131f357600080fd5b505afa158015613207573d6000803e3d6000fd5b505050506040513d601f19601f8201168201806040525081019061322b9190614b88565b8351849061323a908390614be0565b905250612f18565b60006127af6132526127106142c3565b61325b846142c3565b6132659086614dd8565b9061432d565b6000808212156132bd5760405162461bcd60e51b815260206004820181905260248201527f53616665436173743a2076616c7565206d75737420626520706f7369746976656044820152606401611ca0565b5090565b60008060006132ce612a55565b600087815260059190910160205260408120906132e9612a55565b6000898152600691909101602090815260408083208a84528252808320546001600160a01b0390811685529184019490945291909201822054169150808080808080613333612a55565b60008e8152600691909101602090815260408083208f845290915290819020549051633d4eccdf60e01b81526001600160a01b038d8116600483015290911690633d4eccdf9060240160e060405180830381600087803b15801561339657600080fd5b505af11580156133aa573d6000803e3d6000fd5b505050506040513d601f19601f820116820180604052508101906133ce9190614e5d565b96509650965096509650965096508183111561345b576133ec612a79565b6001600160a01b031663fb7bd3b48c8f6134068688614b3b565b6040518463ffffffff1660e01b815260040161342493929190614a7e565b600060405180830381600087803b15801561343e57600080fd5b505af1158015613452573d6000803e3d6000fd5b505050506134d6565b818310156134d65761346b612a79565b6001600160a01b0316634ba0c9b58c8f6134858787614b3b565b6040518463ffffffff1660e01b81526004016134a393929190614a7e565b600060405180830381600087803b1580156134bd57600080fd5b505af11580156134d1573d6000803e3d6000fd5b505050505b84156135ab57604051639e8d3d5560e01b81526001600160a01b03891690639e8d3d559061350f908e9089908690600090600401614af6565b602060405180830381600087803b15801561352957600080fd5b505af115801561353d573d6000803e3d6000fd5b505050506040513d601f19601f820116820180604052508101906135619190614b1e565b50808d8c6001600160a01b03167fba00994778888e87ce0908fd360c4b0417bfe7e274cce4cb72ed8a60b38b3e386000878a6040516135a293929190614b52565b60405180910390a45b8315613680576040516305b0b29360e41b81526001600160a01b03891690635b0b2930906135e4908e9088908690600090600401614af6565b602060405180830381600087803b1580156135fe57600080fd5b505af1158015613612573d6000803e3d6000fd5b505050506040513d601f19601f820116820180604052508101906136369190614b1e565b50808d8c6001600160a01b03167fba00994778888e87ce0908fd360c4b0417bfe7e274cce4cb72ed8a60b38b3e386001868960405161367793929190614b52565b60405180910390a45b600061368c8587614965565b1198506136998688614965565b99505050505050505050935093915050565b60006127af83836143b8565b60008060006136c4612a55565b60040160008781526020019081526020016000206000815481106136ea576136ea614939565b6000918252602080832090910154604080516371613c2d60e01b815290516001600160a01b03909216945084926371613c2d92600480840193829003018186803b15801561373757600080fd5b505afa15801561374b573d6000803e3d6000fd5b505050506040513d601f19601f8201168201806040525081019061376f9190614b88565b9050613779612cfc565b60405163474611f160e01b815260048101899052602481018890526001600160a01b03919091169063474611f19060440160a06040518083038186803b1580156137c257600080fd5b505afa1580156137d6573d6000803e3d6000fd5b505050506040513d601f19601f820116820180604052508101906137fa9190614eb1565b516138345761380a878787614219565b935061382d613818826142c3565b6138236127106142c3565b6132659087614dd8565b92506138da565b61383c612cfc565b604051631b736f6760e31b8152600481018990526024810188905260006044820152606481018790526001600160a01b03919091169063db9b7b389060840160206040518083038186803b15801561389357600080fd5b505afa1580156138a7573d6000803e3d6000fd5b505050506040513d601f19601f820116820180604052508101906138cb9190614b88565b92506138d78382613242565b93505b5050935093915050565b6000806138ef612a55565b6000868152600691909101602090815260408083208784528252918290205482516371613c2d60e01b815292516001600160a01b03909116926371613c2d926004808301939192829003018186803b15801561394a57600080fd5b505afa15801561395e573d6000803e3d6000fd5b505050506040513d601f19601f820116820180604052508101906139829190614b88565b9050613994816109d961271086614a5f565b95945050505050565b60008115613ba65760006139af612cfc565b6001600160a01b03166388c0520e87878b8b6139c9612cfc565b6001600160a01b03166318612e328d8d6139e28e6142c3565b6040516001600160e01b031960e086901b16815260048101939093526024830191909152604482015260640160206040518083038186803b158015613a2657600080fd5b505afa158015613a3a573d6000803e3d6000fd5b505050506040513d601f19601f82011682018060405250810190613a5e9190614b88565b6040516001600160e01b031960e088901b168152600481019590955260248501939093526001600160a01b039182166044850152166064830152608482015260a401602060405180830381600087803b158015613aba57600080fd5b505af1158015613ace573d6000803e3d6000fd5b505050506040513d601f19601f82011682018060405250810190613af29190614b88565b90506000811315613ba4576000613b948787613b0c612cfc565b604051637636e94160e01b8152600481018c9052602481018b9052604481018790526001600160a01b039190911690637636e9419060640160206040518083038186803b158015613b5c57600080fd5b505afa158015613b70573d6000803e3d6000fd5b505050506040513d601f19601f82011682018060405250810190611ed89190614b88565b509050613ba08161326b565b9250505b505b6000613bc986868a8a613bba8b8b896138e4565b613bc4908a614b3b565b6144ab565b90508015613bfb576000613be18787611ed8856142c3565b509050613bed8161326b565b613bf79084614965565b9250505b509695505050505050565b818115613f24576000613c17612cfc565b60405163386320d360e11b8152600481018890526001600160a01b038a8116602483015291909116906370c641a69060440160206040518083038186803b158015613c6157600080fd5b505afa158015613c75573d6000803e3d6000fd5b505050506040513d601f19601f82011682018060405250810190613c999190614b88565b90506000811215613f22576000613cae612cfc565b6001600160a01b03166349a1d218886040518263ffffffff1660e01b8152600401613cdb91815260200190565b60206040518083038186803b158015613cf357600080fd5b505afa158015613d07573d6000803e3d6000fd5b505050506040513d601f19601f82011682018060405250810190613d2b9190614b88565b90506000613d37612cfc565b6001600160a01b03166318612e32896000613d5b613d568d888b6138e4565b6142c3565b613d6490614c21565b6040516001600160e01b031960e086901b16815260048101939093526024830191909152604482015260640160206040518083038186803b158015613da857600080fd5b505afa158015613dbc573d6000803e3d6000fd5b505050506040513d601f19601f82011682018060405250810190613de09190614b88565b905080831315613ded5750815b613df5612cfc565b604051633916cf2b60e21b8152600481018a90526001600160a01b038c811660248301528b8116604483015260648201849052919091169063e45b3cac90608401600060405180830381600087803b158015613e5057600080fd5b505af1158015613e64573d6000803e3d6000fd5b50505050613f136118528984613e78612cfc565b6001600160a01b0316637636e9418d6000613e9289614c21565b6040516001600160e01b031960e086901b16815260048101939093526024830191909152604482015260640160206040518083038186803b158015613ed657600080fd5b505afa158015613eea573d6000803e3d6000fd5b505050506040513d601f19601f82011682018060405250810190613f0e9190614b88565b614219565b613f1d9085614b3b565b935050505b505b6000613f2e612a55565b60008781526005919091016020526040812090613f49612a55565b6000898152600691909101602090815260408083208a84528252808320546001600160a01b03908116855291840194909452918301812054925163070da1af60e11b81528b83166004820152929091169250908290630e1b435e90602401604080518083038186803b158015613fbe57600080fd5b505afa158015613fd2573d6000803e3d6000fd5b505050506040513d601f19601f82011682018060405250810190613ff69190614db4565b5090506000811215612f18576000614012613d568989876138e4565b61401b90614c21565b9050808213156140285750805b604051630c02764960e31b81526001600160a01b038b811660048301528a811660248301526044820183905260648201899052841690636013b24890608401600060405180830381600087803b15801561408157600080fd5b505af1158015614095573d6000803e3d6000fd5b505050506140ab611852898984613f0e90614c21565b6140b59085614b3b565b9a9950505050505050505050565b606060006140d083614193565b9392505050565b600081815260018301602052604081205415156127af565b60006127af83836145a0565b60008181527f4abde63c3e81aefa5764b017968bc473e83e093d7e1a10247d19e0a3e41240196020908152604080832054815170026b4b9b9b4b7339030b2323932b9b99d1607d1b9381019390935260318084018690528251808503909101815260519093019091526001600160a01b0316908161418c5760405162461bcd60e51b8152600401611ca09190614f21565b5092915050565b6060816000018054806020026020016040519081016040528092919081815260200182805480156141e357602002820191906000526020600020905b8154815260200190600101908083116141cf575b50505050509050919050565b600082600001828154811061420657614206614939565b9060005260206000200154905092915050565b600080614224612a55565b6000868152600691909101602090815260408083208784528252918290205482516371613c2d60e01b815292516001600160a01b03909116926371613c2d926004808301939192829003018186803b15801561427f57600080fd5b505afa158015614293573d6000803e3d6000fd5b505050506040513d601f19601f820116820180604052508101906142b79190614b88565b90506139948382613242565b60006001600160ff1b038211156132bd5760405162461bcd60e51b815260206004820152602860248201527f53616665436173743a2076616c756520646f65736e27742066697420696e2061604482015267371034b73a191a9b60c11b6064820152608401611ca0565b60008161433957600080fd5b60006143458385614f76565b61435090600a614dd8565b8361435c86600a614dd8565b6143669190614f76565b6143709190614ba1565b90506005811261438f576143848385614f76565b612bb2906001614be0565b60041981136143ae5760016143a48486614f76565b612bb29190614ba1565b612bb28385614f76565b600081815260018301602052604081205480156144a15760006143dc600183614b3b565b85549091506000906143f090600190614b3b565b905081811461445557600086600001828154811061441057614410614939565b906000526020600020015490508087600001848154811061443357614433614939565b6000918252602080832090910192909255918252600188019052604090208390555b855486908061446657614466614fa4565b6001900381819060005260206000200160009055905585600101600086815260200190815260200160002060009055600193505050506127b2565b60009150506127b2565b6000806144b6612a55565b6000888152600691909101602090815260408083208984529091528120546001600160a01b031691506144e7612a55565b6000898152600591909101602090815260408083206001600160a01b038681168552925291829020549151632900b99560e01b81528882166004820152878216602482015260448101879052911691508190632900b99590606401602060405180830381600087803b15801561455c57600080fd5b505af1158015614570573d6000803e3d6000fd5b505050506040513d601f19601f820116820180604052508101906145949190614b88565b98975050505050505050565b60008181526001830160205260408120546145e7575081546001818101845560008481526020808220909301849055845484825282860190935260409020919091556127b2565b5060006127b2565b80356001600160a01b038116811461460657600080fd5b919050565b60008060006060848603121561462057600080fd5b614629846145ef565b95602085013595506040909401359392505050565b60008060006060848603121561465357600080fd5b83359250614663602085016145ef565b9150604084013590509250925092565b60008060006060848603121561468857600080fd5b833592506020840135915061469f604085016145ef565b90509250925092565b80151581146146b657600080fd5b50565b600080600080600080600080610100898b0312156146d657600080fd5b88359750602089013596506146ed60408a016145ef565b955060608901356002811061470157600080fd5b94506080890135935060a0890135925060c0890135915060e0890135614726816146a8565b809150509295985092959890939650565b6000806040838503121561474a57600080fd5b8235915061475a602084016145ef565b90509250929050565b6000806000806080858703121561477957600080fd5b84359350614789602086016145ef565b93969395505050506040820135916060013590565b600080600080600060a086880312156147b657600080fd5b6147bf866145ef565b94506147cd602087016145ef565b94979496505050506040830135926060810135926080909101359150565b6020808252825182820181905260009190848201906040850190845b8181101561482357835183529284019291840191600101614807565b50909695505050505050565b634e487b7160e01b600052604160045260246000fd5b604051601f8201601f1916810167ffffffffffffffff8111828210171561486e5761486e61482f565b604052919050565b600067ffffffffffffffff8211156148905761489061482f565b5060051b60200190565b600060208083850312156148ad57600080fd5b825167ffffffffffffffff8111156148c457600080fd5b8301601f810185136148d557600080fd5b80516148e86148e382614876565b614845565b81815260059190911b8201830190838101908783111561490757600080fd5b928401925b8284101561492e57835161491f816146a8565b8252928401929084019061490c565b979650505050505050565b634e487b7160e01b600052603260045260246000fd5b634e487b7160e01b600052601160045260246000fd5b600082198211156149785761497861494f565b500190565b6000604082018483526020604081850152818551808452606086019150828701935060005b81811015610c5a578451835293830193918301916001016149a2565b600060208083850312156149d157600080fd5b825167ffffffffffffffff8111156149e857600080fd5b8301601f810185136149f957600080fd5b8051614a076148e382614876565b81815260059190911b82018301908381019087831115614a2657600080fd5b928401925b8284101561492e57835182529284019290840190614a2b565b6000600019821415614a5857614a5861494f565b5060010190565b6000816000190483118215151615614a7957614a7961494f565b500290565b6001600160a01b039390931683526020830191909152604082015260600190565b60008060008060808587031215614ab557600080fd5b8451935060208501519250604085015191506060850151614ad5816146a8565b939692955090935050565b634e487b7160e01b600052602160045260246000fd5b6001600160a01b03949094168452602084019290925260408301521515606082015260800190565b600060208284031215614b3057600080fd5b81516140d0816146a8565b600082821015614b4d57614b4d61494f565b500390565b6060810160028510614b7457634e487b7160e01b600052602160045260246000fd5b938152602081019290925260409091015290565b600060208284031215614b9a57600080fd5b5051919050565b60008083128015600160ff1b850184121615614bbf57614bbf61494f565b6001600160ff1b0384018313811615614bda57614bda61494f565b50500390565b600080821280156001600160ff1b0384900385131615614c0257614c0261494f565b600160ff1b8390038412811615614c1b57614c1b61494f565b50500190565b6000600160ff1b821415614c3757614c3761494f565b5060000390565b60008060008060808587031215614c5457600080fd5b505082516020840151604085015160609095015191969095509092509050565b600060208284031215614c8657600080fd5b815160ff811681146140d057600080fd5b600181815b80851115614cd2578160001904821115614cb857614cb861494f565b80851615614cc557918102915b93841c9390800290614c9c565b509250929050565b600082614ce9575060016127b2565b81614cf6575060006127b2565b8160018114614d0c5760028114614d1657614d32565b60019150506127b2565b60ff841115614d2757614d2761494f565b50506001821b6127b2565b5060208310610133831016604e8410600b8410161715614d55575081810a6127b2565b614d5f8383614c97565b8060001904821115614d7357614d7361494f565b029392505050565b60006127af60ff841683614cda565b634e487b7160e01b600052601260045260246000fd5b600082614daf57614daf614d8a565b500490565b60008060408385031215614dc757600080fd5b505080516020909101519092909150565b60006001600160ff1b0381841382841380821686840486111615614dfe57614dfe61494f565b600160ff1b6000871282811687830589121615614e1d57614e1d61494f565b60008712925087820587128484161615614e3957614e3961494f565b87850587128184161615614e4f57614e4f61494f565b505050929093029392505050565b600080600080600080600060e0888a031215614e7857600080fd5b5050855160208701516040880151606089015160808a015160a08b015160c0909b0151949c939b50919990985090965094509092509050565b600060a08284031215614ec357600080fd5b60405160a0810181811067ffffffffffffffff82111715614ee657614ee661482f565b806040525082518152602083015160208201526040830151604082015260608301516060820152608083015160808201528091505092915050565b600060208083528351808285015260005b81811015614f4e57858101830151858201604001528201614f32565b81811115614f60576000604083870101525b50601f01601f1916929092016040019392505050565b600082614f8557614f85614d8a565b600160ff1b821460001984141615614f9f57614f9f61494f565b500590565b634e487b7160e01b600052603160045260246000fdfea26469706673582212200b501565de3ba7e93d8c562993da354e9066b99960ac86e846ea5e464368288064736f6c63430008090033",
  "deployedBytecode": "0x73000000000000000000000000000000000000000030146080604052600436106100be5760003560e01c80639519832b1161007b5780639519832b146102395780639aaf864914610259578063a86c2a3e14610279578063b61ef55a14610299578063b6eb033d146102b9578063bab7ae17146102d957600080fd5b80630312b528146100c35780631696a4cd14610118578063300074c91461013a578063390e5d12146101685780634ad23880146101885780635c347765146101f1575b600080fd5b6100d66100d136600461460b565b6102f9565b604080519889526020890197909752958701949094526060860192909252608085015260a084015260c0830152151560e0820152610100015b60405180910390f35b81801561012457600080fd5b5061013861013336600461463e565b610808565b005b81801561014657600080fd5b5061015a610155366004614673565b610a6e565b60405190815260200161010f565b81801561017457600080fd5b506101386101833660046146b9565b610c67565b61019b610196366004614673565b610fe5565b60405161010f9190600060e082019050825182526020830151602083015260408301516040830152606083015160608301526080830151608083015260a083015160a083015260c083015160c083015292915050565b6102046101ff366004614737565b611748565b604080519788526020880196909652948601939093526060850191909152608084015260a083015260c082015260e00161010f565b81801561024557600080fd5b5061015a610254366004614737565b611867565b81801561026557600080fd5b50610138610274366004614763565b611bd3565b81801561028557600080fd5b5061015a61029436600461479e565b611e02565b6102ac6102a7366004614737565b6126e2565b60405161010f91906147eb565b8180156102c557600080fd5b506101386102d4366004614673565b6127b8565b8180156102e557600080fd5b5061015a6102f4366004614737565b612894565b600080600080600080600080600061030f612a55565b60080160008d6001600160a01b03166001600160a01b0316815260200190815260200160002090506103736040518060c001604052806060815260200160008019168152602001606081526020016060815260200160008152602001600081525090565b61037b612a79565b6001600160a01b0316633f90a08e61039284612a96565b6040518263ffffffff1660e01b81526004016103ae91906147eb565b60006040518083038186803b1580156103c657600080fd5b505afa1580156103da573d6000803e3d6000fd5b505050506040513d6000823e601f3d908101601f19168201604052610402919081019061489a565b8152608081018b905260005b61041783612aa1565b8110156107ea576104288382612aab565b602083015260408051600780825261010082019092529081602001602082028036833750505060408301526020820151610462908f611748565b886040015160008151811061047957610479614939565b60200260200101896040015160018151811061049757610497614939565b602002602001018a604001516002815181106104b5576104b5614939565b602002602001018b604001516003815181106104d3576104d3614939565b602002602001018c604001516004815181106104f1576104f1614939565b602002602001018d6040015160058151811061050f5761050f614939565b602002602001018e6040015160068151811061052d5761052d614939565b6020908102919091018101979097529690965295909452949093529390529290529190528201518d14156105ec57816040015160068151811061057257610572614939565b60200260200101518260800181815161058b9190614965565b9052506040820151805160039081106105a6576105a6614939565b602002602001015182604001516000815181106105c5576105c5614939565b60200260200101516105d79190614965565b8260a0018181516105e89190614965565b9052505b6105f4612ab7565b6001600160a01b031663939fe622836020015184604001516040518363ffffffff1660e01b815260040161062992919061497d565b60006040518083038186803b15801561064157600080fd5b505afa158015610655573d6000803e3d6000fd5b505050506040513d6000823e601f3d908101601f1916820160405261067d91908101906149be565b606083018190528051600190811061069757610697614939565b60200260200101518a6106aa9190614965565b995081606001516002815181106106c3576106c3614939565b6020026020010151896106d69190614965565b985081606001516004815181106106ef576106ef614939565b6020026020010151876107029190614965565b9650816060015160058151811061071b5761071b614939565b60200260200101518661072e9190614965565b95508160000151818151811061074657610746614939565b6020026020010151156107d857816060015160008151811061076a5761076a614939565b60200260200101518b61077d9190614965565b9a50816060015160038151811061079657610796614939565b6020026020010151886107a99190614965565b975081606001516006815181106107c2576107c2614939565b6020026020010151856107d59190614965565b94505b806107e281614a44565b91505061040e565b508060a0015181608001511015925050509397509397509397509397565b6000610812612a79565b6001600160a01b031663d5e190d06040518163ffffffff1660e01b815260040160006040518083038186803b15801561084a57600080fd5b505afa15801561085e573d6000803e3d6000fd5b505050506040513d6000823e601f3d908101601f1916820160405261088691908101906149be565b90506000815167ffffffffffffffff8111156108a4576108a461482f565b6040519080825280602002602001820160405280156108cd578160200160208202803683370190505b5090506000805b83518110156109715760008482815181106108f1576108f1614939565b60200260200101519050610903612a55565b60030160008281526020019081526020016000205484838151811061092a5761092a614939565b60200260200101818152505083828151811061094857610948614939565b60200260200101518361095b9190614965565b925050808061096990614a44565b9150506108d4565b50600061097e8786612ad7565b905060005b8451811015610a645760008582815181106109a0576109a0614939565b6020026020010151905060006109e4826109df878987815181106109c6576109c6614939565b6020026020010151886109d99190614a5f565b90612bba565b612c2b565b90506109ee612a79565b6001600160a01b0316634ba0c9b58a84846040518463ffffffff1660e01b8152600401610a1d93929190614a7e565b600060405180830381600087803b158015610a3757600080fd5b505af1158015610a4b573d6000803e3d6000fd5b5050505050508080610a5c90614a44565b915050610983565b5050505050505050565b600080610a79612a55565b60008681526005919091016020526040812090610a94612a55565b6000888152600691909101602090815260408083208984528252808320546001600160a01b03908116855291840194909452918301812054925163ae100e6d60e01b815286831660048201526024810188905292909116925090819081908190859063ae100e6d90604401608060405180830381600087803b158015610b1957600080fd5b505af1158015610b2d573d6000803e3d6000fd5b505050506040513d601f19601f82011682018060405250810190610b519190614a9f565b935093509350935083600014610c5a578015610bdf57610b6f612cfc565b60405163312c474560e01b8152600481018b90526001600160a01b03898116602483015260448201859052919091169063312c474590606401600060405180830381600087803b158015610bc257600080fd5b505af1158015610bd6573d6000803e3d6000fd5b50505050610c5a565b610be7612cfc565b6040516360e3f72960e11b8152600481018b90526001600160a01b0389811660248301526044820185905260648201879052919091169063c1c7ee5290608401600060405180830381600087803b158015610c4157600080fd5b505af1158015610c55573d6000803e3d6000fd5b505050505b5090979650505050505050565b6000610c71612a55565b60008a81526005919091016020526040812090610c8c612a55565b60008c8152600691909101602090815260408083208d84528252808320546001600160a01b0390811685529184019490945291909201909120541690506001866001811115610cdd57610cdd614ae0565b1415610de157610ceb612a79565b6001600160a01b0316634ba0c9b5888b876040518463ffffffff1660e01b8152600401610d1a93929190614a7e565b600060405180830381600087803b158015610d3457600080fd5b505af1158015610d48573d6000803e3d6000fd5b50505050806001600160a01b0316635b0b2930888588610d689190614965565b8b866040518563ffffffff1660e01b8152600401610d899493929190614af6565b602060405180830381600087803b158015610da357600080fd5b505af1158015610db7573d6000803e3d6000fd5b505050506040513d601f19601f82011682018060405250810190610ddb9190614b1e565b50610edb565b610de9612a79565b6001600160a01b031663fb7bd3b4888b876040518463ffffffff1660e01b8152600401610e1893929190614a7e565b600060405180830381600087803b158015610e3257600080fd5b505af1158015610e46573d6000803e3d6000fd5b50505050806001600160a01b0316639e8d3d55888588610e669190614b3b565b8b866040518563ffffffff1660e01b8152600401610e879493929190614af6565b602060405180830381600087803b158015610ea157600080fd5b505af1158015610eb5573d6000803e3d6000fd5b505050506040513d601f19601f82011682018060405250810190610ed99190614b1e565b505b8215610f93576000610eeb612d1b565b90506001600160a01b038216639e8d3d5582868c60008c6001811115610f1357610f13614ae0565b146040518563ffffffff1660e01b8152600401610f339493929190614af6565b602060405180830381600087803b158015610f4d57600080fd5b505af1158015610f61573d6000803e3d6000fd5b505050506040513d601f19601f82011682018060405250810190610f859190614b1e565b50610f918a8a836127b8565b505b8789886001600160a01b03167ff80dd09632f046e05472e1c239271a3b2ad3de73c27a1b03d0bb0329ba6716df89888a604051610fd293929190614b52565b60405180910390a4505050505050505050565b6110256040518060e00160405280600081526020016000815260200160008152602001600081526020016000815260200160008152602001600081525090565b6040805160808101825260008082526020820181905291810191909152606080820152836110a55760018152611059612a55565b600401600086815260200190815260200160002060008154811061107f5761107f614939565b600091825260209182902001546001600160a01b0316908201526001604082015261112f565b600081526110b1612a55565b6000868152600691909101602090815260408083208784528252909120546001600160a01b0316908201526110e4612a55565b600401600086815260200190815260200160002060008154811061110a5761110a614939565b60009182526020918290200154908201516001600160a01b0390811691161460408201525b611137612cfc565b60405163386320d360e11b8152600481018790526001600160a01b03858116602483015291909116906370c641a69060440160206040518083038186803b15801561118157600080fd5b505afa158015611195573d6000803e3d6000fd5b505050506040513d601f19601f820116820180604052508101906111b99190614b88565b60c08301526111c885846126e2565b606082015260005b8160600151518110156115a95760006111e7612a55565b600601600088815260200190815260200160002060008460600151848151811061121357611213614939565b6020026020010151815260200190815260200160002060009054906101000a90046001600160a01b031690506000816001600160a01b031663e16695b56040518163ffffffff1660e01b815260040160206040518083038186803b15801561127a57600080fd5b505afa15801561128e573d6000803e3d6000fd5b505050506040513d601f19601f820116820180604052508101906112b29190614b88565b905060006112be612a55565b60040160008a81526020019081526020016000206000815481106112e4576112e4614939565b60009182526020909120015460408601516001600160a01b03858116921691909114915080611328575084602001516001600160a01b0316836001600160a01b0316145b1561159357600061133d8a8988868887612d34565b9050600061134f8b8a89878988612f24565b905060006113618c8b8a888a896130b2565b80518351855192935090916113769190614ba1565b6113809190614be0565b8960c0018181516113919190614be0565b905250604080820151838201519185015190916113ad91614ba1565b6113b79190614be0565b896020018181516113c89190614be0565b905250602080820151838201519185015190916113e491614ba1565b6113ee9190614be0565b89518a906113fd908390614be0565b905250606082015160808a018051611416908390614965565b905250606081015160408a01805161142f908390614965565b905250608082015160a08a018051611448908390614965565b905250608081015160608a018051611461908390614965565b90525060c08901516000131561158f57600061147b612cfc565b6001600160a01b031663aee1311e8e8c60c001518c606001518c815181106114a5576114a5614939565b602002602001015160018e60600151516114bf9190614b3b565b8d146114f25760608e01516114d58e6001614965565b815181106114e5576114e5614939565b60200260200101516114f5565b60005b6040516001600160e01b031960e087901b168152600481019490945260248401929092526044830152606482015260840160206040518083038186803b15801561153e57600080fd5b505afa158015611552573d6000803e3d6000fd5b505050506040513d601f19601f820116820180604052508101906115769190614b88565b9050808a60c00181815161158a9190614be0565b905250505b5050505b50505080806115a190614a44565b9150506111d0565b50806040015180156115be575060c082015115155b156117405760006115cd612cfc565b60c0840151604051637636e94160e01b8152600481018990526000602482015260448101919091526001600160a01b039190911690637636e9419060640160206040518083038186803b15801561162357600080fd5b505afa158015611637573d6000803e3d6000fd5b505050506040513d601f19601f8201168201806040525081019061165b9190614b88565b905061171581611669612a55565b600401600089815260200190815260200160002060008154811061168f5761168f614939565b60009182526020918290200154604080516371613c2d60e01b815290516001600160a01b03909216926371613c2d92600480840193829003018186803b1580156116d857600080fd5b505afa1580156116ec573d6000803e3d6000fd5b505050506040513d601f19601f820116820180604052508101906117109190614b88565b613242565b83518490611724908390614be0565b90525060208301805182919061173b908390614be0565b905250505b509392505050565b6000806000806000806000806117608a60008b610fe5565b90508060400151975080606001519450806080015193508060a0015191506000816000015113156118395780516117969061326b565b965060006117a2612ab7565b6001600160a01b0316639abdb38a8c6040518263ffffffff1660e01b81526004016117cf91815260200190565b60206040518083038186803b1580156117e757600080fd5b505afa1580156117fb573d6000803e3d6000fd5b505050506040513d601f19601f8201168201806040525081019061181f9190614b88565b90506118316127106109d9838b614a5f565b96505061185a565b80516000131561185a5780516118579061185290614c21565b61326b565b92505b5092959891949750929550565b6000808061187585856126e2565b905060005b8151811015611af657600061188d612a55565b600601600088815260200190815260200160002060008484815181106118b5576118b5614939565b6020026020010151815260200190815260200160002060009054906101000a90046001600160a01b031690506000816001600160a01b031663e16695b56040518163ffffffff1660e01b815260040160206040518083038186803b15801561191c57600080fd5b505afa158015611930573d6000803e3d6000fd5b505050506040513d601f19601f820116820180604052508101906119549190614b88565b9050600061196389838a610a6e565b90506000806119738b858c6132c1565b9092509050611982828a614965565b98508015611998576119958b858c610a6e565b92505b82156119a357600197505b821580156119af575081155b15611a2057611a1e8787815181106119c9576119c9614939565b60200260200101516119d9612a55565b60090160008e815260200190815260200160002060008d6001600160a01b03166001600160a01b031681526020019081526020016000206136ab90919063ffffffff16565b505b611a28612cfc565b6001600160a01b031663eeac29d88c8c60018b51611a469190614b3b565b8a14611a75578a611a588b6001614965565b81518110611a6857611a68614939565b6020026020010151611a78565b60005b6040516001600160e01b031960e086901b16815260048101939093526001600160a01b0390911660248301526044820152606401600060405180830381600087803b158015611ac657600080fd5b505af1158015611ada573d6000803e3d6000fd5b5050505050505050508080611aee90614a44565b91505061187a565b5082158015611b03575081155b8015611b965750611b12612cfc565b60405163386320d360e11b8152600481018790526001600160a01b03868116602483015291909116906370c641a69060440160206040518083038186803b158015611b5c57600080fd5b505afa158015611b70573d6000803e3d6000fd5b505050506040513d601f19601f82011682018060405250810190611b949190614b88565b155b15611bcb57611bc985611ba7612a55565b6001600160a01b038716600090815260089190910160205260409020906136ab565b505b505092915050565b611bdb612a79565b6001600160a01b0316635d95df8a826040518263ffffffff1660e01b8152600401611c0891815260200190565b60206040518083038186803b158015611c2057600080fd5b505afa158015611c34573d6000803e3d6000fd5b505050506040513d601f19601f82011682018060405250810190611c589190614b1e565b611ca95760405162461bcd60e51b815260206004820152601c60248201527f4e6f74207265676973746572656420617320636f6c6c61746572616c0000000060448201526064015b60405180910390fd5b6000611cb3612a79565b604051630129e6bf60e11b81526001600160a01b038681166004830152602482018590529190911690630253cd7e9060440160206040518083038186803b158015611cfd57600080fd5b505afa158015611d11573d6000803e3d6000fd5b505050506040513d601f19601f82011682018060405250810190611d359190614b88565b90506000611d47836109df8887612ad7565b905080821015611d915760405162461bcd60e51b8152602060048201526015602482015274139bdd08195b9bdd59da0818dbdb1b185d195c985b605a1b6044820152606401611ca0565b611d99612a79565b6001600160a01b031663fb7bd3b48685846040518463ffffffff1660e01b8152600401611dc893929190614a7e565b600060405180830381600087803b158015611de257600080fd5b505af1158015611df6573d6000803e3d6000fd5b50505050505050505050565b6000611e656040518061016001604052806000815260200160008152602001600081526020016000815260200160008152602001600081526020016000815260200160001515815260200160001515815260200160008152602001600081525090565b6000611e72858589610fe5565b60200151905060008112611ec85760405162461bcd60e51b815260206004820181905260248201527f4e6f206465627420696e207468652073656c6563746564206d617475726974796044820152606401611ca0565b6000611edd8686611ed885614c21565b6136b7565b509050611ee8612a79565b6001600160a01b0316635257ed678989611f00612ab7565b6001600160a01b031663b99c6ca88b8d611f198961326b565b6040516001600160e01b031960e086901b16815260048101939093526024830191909152604482015260640160206040518083038186803b158015611f5d57600080fd5b505afa158015611f71573d6000803e3d6000fd5b505050506040513d601f19601f82011682018060405250810190611f959190614b88565b6040518463ffffffff1660e01b8152600401611fb393929190614a7e565b60806040518083038186803b158015611fcb57600080fd5b505afa158015611fdf573d6000803e3d6000fd5b505050506040513d601f19601f820116820180604052508101906120039190614c3e565b6080870152606086015260408501528084526120615760405162461bcd60e51b815260206004820152601a60248201527f557365722068617320656e6f75676820636f6c6c61746572616c0000000000006044820152606401611ca0565b612069612ab7565b83516040516317338d9560e31b8152600481018a90526024810189905260448101919091526001600160a01b03919091169063b99c6ca89060640160206040518083038186803b1580156120bc57600080fd5b505afa1580156120d0573d6000803e3d6000fd5b505050506040513d601f19601f820116820180604052508101906120f49190614b88565b602084018190526121059085614965565b935061210f612a55565b600401600087815260200190815260200160002060008154811061213557612135614939565b6000918252602090912001546001600160a01b0316612152612a55565b6000888152600691909101602090815260408083208984529091529020546001600160a01b03161460e0840152612187612d1b565b6001600160a01b031663b187bd266040518163ffffffff1660e01b815260040160206040518083038186803b1580156121bf57600080fd5b505afa1580156121d3573d6000803e3d6000fd5b505050506040513d601f19601f820116820180604052508101906121f79190614b1e565b151561010084018190526122cd5761222c612210612d1b565b8988886122228b8b8a602001516138e4565b8860e0015161399d565b60a0840152612239612ab7565b60a08401516040516317338d9560e31b815260048101899052602481018a905260448101919091526001600160a01b03919091169063b99c6ca89060640160206040518083038186803b15801561228f57600080fd5b505afa1580156122a3573d6000803e3d6000fd5b505050506040513d601f19601f820116820180604052508101906122c79190614b88565b60c08401525b60c0830151606084015184516122e39190614965565b6122ed9190614b3b565b6101208401526122fb612a79565b61012084015160405163500d2f6d60e01b8152600481018a90526001600160a01b038b811660248301528c81166044830152606482019290925291169063500d2f6d90608401600060405180830381600087803b15801561235b57600080fd5b505af115801561236f573d6000803e3d6000fd5b5050505061237b612a79565b6001600160a01b031663500d2f6d888a612393612d1b565b8760c0015188604001516123a79190614965565b6040516001600160e01b031960e087901b16815260048101949094526001600160a01b039283166024850152911660448301526064820152608401600060405180830381600087803b1580156123fc57600080fd5b505af1158015612410573d6000803e3d6000fd5b505050506000836080015111801561242b5750826101000151155b1561257957612438612a79565b6040516354821c2160e01b81526001600160a01b038a8116600483015291909116906354821c219060240160206040518083038186803b15801561247b57600080fd5b505afa15801561248f573d6000803e3d6000fd5b505050506040513d601f19601f820116820180604052508101906124b39190614b88565b6125795760006124c1612ab7565b60808501516040516317338d9560e31b8152600481018b9052602481018a905260448101919091526001600160a01b03919091169063b99c6ca89060640160206040518083038186803b15801561251757600080fd5b505afa15801561252b573d6000803e3d6000fd5b505050506040513d601f19601f8201168201806040525081019061254f9190614b88565b905061256a61255c612d1b565b8a8989858960e00151613c06565b506125758186614965565b9450505b8260a00151836020015111156125c0578260a00151836020015161259d9190614b3b565b836101400181815250506125be888a88888761014001518860e00151613c06565b505b6001600160a01b0389163b156126d6576101208301516101408401516040516372d5a2ef60e11b81526001600160a01b038c811660048301819052908c166024830152604482018b905260648201939093526084810189905260a4810188905260c48101919091523360e482015263e5ab45de9061010401602060405180830381600087803b15801561265257600080fd5b505af1158015612666573d6000803e3d6000fd5b505050506040513d601f19601f8201168201806040525081019061268a9190614b1e565b6126d65760405162461bcd60e51b815260206004820152601b60248201527f496e76616c6964206f7065726174696f6e20657865637574696f6e00000000006044820152606401611ca0565b50505095945050505050565b606061271a6126ef612a55565b6000858152600991909101602090815260408083206001600160a01b038716845290915290206140c3565b8051909150156127b257604051634f64581360e11b815273__$cd9358e65801d13c280787f44717df25ed$__90639ec8b0269061275b9084906004016147eb565b60006040518083038186803b15801561277357600080fd5b505af4158015612787573d6000803e3d6000fd5b505050506040513d6000823e601f3d908101601f191682016040526127af91908101906149be565b90505b92915050565b6127f0826127c4612a55565b6000868152600991909101602090815260408083206001600160a01b03871684529091529020906140d7565b61288f5761282c82612800612a55565b6000868152600991909101602090815260408083206001600160a01b03871684529091529020906140ef565b5061285b83612839612a55565b6001600160a01b038416600090815260089190910160205260409020906140d7565b61288f5761288d8361286b612a55565b6001600160a01b038416600090815260089190910160205260409020906140ef565b505b505050565b60006128a08383611867565b506128ad83600084610fe5565b51905060006128e86128bd612a55565b6000868152600991909101602090815260408083206001600160a01b038816845290915290206140c3565b905060005b81518110156129e1576128fe612a55565b60008681526005919091016020526040812090612919612a55565b6006016000888152602001908152602001600020600085858151811061294157612941614939565b60209081029190910181015182528181019290925260409081016000908120546001600160a01b039081168552928401949094529182019092205490516366c9d55160e01b815286831660048201529116906366c9d55190602401600060405180830381600087803b1580156129b657600080fd5b505af11580156129ca573d6000803e3d6000fd5b5050505080806129d990614a44565b9150506128ed565b506129ea612cfc565b60405163b340398d60e01b8152600481018690526001600160a01b038581166024830152919091169063b340398d90604401600060405180830381600087803b158015612a3657600080fd5b505af1158015612a4a573d6000803e3d6000fd5b505050505092915050565b7f8041b8421ebd495cc61f38c788c9eb100daccf9bd36aa0bb920b7a15b2e0496590565b6000612a9169151bdad95b95985d5b1d60b21b6140fb565b905090565b60606127b282614193565b60006127b2825490565b60006127af83836141ef565b6000612a917121bab93932b731bca1b7b73a3937b63632b960711b6140fb565b6000826208aa8960eb1b1415612aee5750806127b2565b6000612af8612ab7565b6001600160a01b031663facae93f856040518263ffffffff1660e01b8152600401612b2591815260200190565b60206040518083038186803b158015612b3d57600080fd5b505afa158015612b51573d6000803e3d6000fd5b505050506040513d601f19601f82011682018060405250810190612b759190614c74565b9050612bb2612b8582600a614d7b565b612ba8612b90612a55565b6000888152600291909101602052604090205461326b565b6109d99086614a5f565b9150506127b2565b6000808211612bc857600080fd5b6005612bd48385614da0565b612bdf90600a614a5f565b83612beb86600a614a5f565b612bf59190614da0565b612bff9190614b3b565b1015612c1657612c0f8284614da0565b90506127b2565b612c208284614da0565b612c0f906001614965565b6000826208aa8960eb1b1415612c425750806127b2565b6000612c4c612ab7565b6001600160a01b031663facae93f856040518263ffffffff1660e01b8152600401612c7991815260200190565b60206040518083038186803b158015612c9157600080fd5b505afa158015612ca5573d6000803e3d6000fd5b505050506040513d601f19601f82011682018060405250810190612cc99190614c74565b9050612bb2612cf1612cd9612a55565b6000878152600291909101602052604090205461326b565b612ba883600a614d7b565b6000612a917011d95b995cda5cd5985b1d5955985d5b1d607a1b6140fb565b6000612a916a14995cd95c9d99519d5b9960aa1b6140fb565b612d5860405180606001604052806000815260200160008152602001600081525090565b600080612d63612a55565b60008a8152600591909101602090815260408083206001600160a01b03898116855292529182902054915163070da1af60e11b81528a82166004820152911690630e1b435e90602401604080518083038186803b158015612dc357600080fd5b505afa158015612dd7573d6000803e3d6000fd5b505050506040513d601f19601f82011682018060405250810190612dfb9190614db4565b9150915081600014612f1857808614612eb157866040015115612eac57612e20612cfc565b604051630c30971960e11b8152600481018b905260248101839052604481018490526001600160a01b0391909116906318612e32906064015b60206040518083038186803b158015612e7157600080fd5b505afa158015612e85573d6000803e3d6000fd5b505050506040513d601f19601f82011682018060405250810190612ea99190614b88565b83525b612f18565b80861415612f185786518015612ec5575083155b15612ee457612ed58982846136b7565b60408501526020840152612f18565b865180612ef357508660400151155b80612efb5750835b15612f185760408301829052612f12898284614219565b60208401525b50509695505050505050565b612f566040518060a0016040528060008152602001600081526020016000815260200160008152602001600081525090565b604051631c7b209b60e31b81526001600160a01b038781166004830152600091829186169063e3d904d89060240160806040518083038186803b158015612f9c57600080fd5b505afa158015612fb0573d6000803e3d6000fd5b505050506040513d601f19601f82011682018060405250810190612fd49190614c3e565b6080870192909252606086019290925290925090508115612f185780861461305257866040015115612eac57613008612cfc565b6001600160a01b03166318612e328a83613021866142c3565b6040516001600160e01b031960e086901b168152600481019390935260248301919091526044820152606401612e59565b80861415612f185786518015613066575083155b1561307957612ed58982611ed8856142c3565b86518061308857508660400151155b806130905750835b15612f185761309e826142c3565b60408401819052612f12908a908390614219565b6130e46040518060a0016040528060008152602001600081526020016000815260200160008152602001600081525090565b6040516339f7dda360e21b81526001600160a01b038781166004830152600091829186169063e7df768c9060240160806040518083038186803b15801561312a57600080fd5b505afa15801561313e573d6000803e3d6000fd5b505050506040513d601f19601f820116820180604052508101906131629190614c3e565b6080870192909252606086019290925290925090508115612f185780861461305257866040015115612eac57613196612cfc565b6001600160a01b03166318612e328a836131af866142c3565b6040516001600160e01b031960e086901b16815260048101939093526024830191909152604482015260640160206040518083038186803b1580156131f357600080fd5b505afa158015613207573d6000803e3d6000fd5b505050506040513d601f19601f8201168201806040525081019061322b9190614b88565b8351849061323a908390614be0565b905250612f18565b60006127af6132526127106142c3565b61325b846142c3565b6132659086614dd8565b9061432d565b6000808212156132bd5760405162461bcd60e51b815260206004820181905260248201527f53616665436173743a2076616c7565206d75737420626520706f7369746976656044820152606401611ca0565b5090565b60008060006132ce612a55565b600087815260059190910160205260408120906132e9612a55565b6000898152600691909101602090815260408083208a84528252808320546001600160a01b0390811685529184019490945291909201822054169150808080808080613333612a55565b60008e8152600691909101602090815260408083208f845290915290819020549051633d4eccdf60e01b81526001600160a01b038d8116600483015290911690633d4eccdf9060240160e060405180830381600087803b15801561339657600080fd5b505af11580156133aa573d6000803e3d6000fd5b505050506040513d601f19601f820116820180604052508101906133ce9190614e5d565b96509650965096509650965096508183111561345b576133ec612a79565b6001600160a01b031663fb7bd3b48c8f6134068688614b3b565b6040518463ffffffff1660e01b815260040161342493929190614a7e565b600060405180830381600087803b15801561343e57600080fd5b505af1158015613452573d6000803e3d6000fd5b505050506134d6565b818310156134d65761346b612a79565b6001600160a01b0316634ba0c9b58c8f6134858787614b3b565b6040518463ffffffff1660e01b81526004016134a393929190614a7e565b600060405180830381600087803b1580156134bd57600080fd5b505af11580156134d1573d6000803e3d6000fd5b505050505b84156135ab57604051639e8d3d5560e01b81526001600160a01b03891690639e8d3d559061350f908e9089908690600090600401614af6565b602060405180830381600087803b15801561352957600080fd5b505af115801561353d573d6000803e3d6000fd5b505050506040513d601f19601f820116820180604052508101906135619190614b1e565b50808d8c6001600160a01b03167fba00994778888e87ce0908fd360c4b0417bfe7e274cce4cb72ed8a60b38b3e386000878a6040516135a293929190614b52565b60405180910390a45b8315613680576040516305b0b29360e41b81526001600160a01b03891690635b0b2930906135e4908e9088908690600090600401614af6565b602060405180830381600087803b1580156135fe57600080fd5b505af1158015613612573d6000803e3d6000fd5b505050506040513d601f19601f820116820180604052508101906136369190614b1e565b50808d8c6001600160a01b03167fba00994778888e87ce0908fd360c4b0417bfe7e274cce4cb72ed8a60b38b3e386001868960405161367793929190614b52565b60405180910390a45b600061368c8587614965565b1198506136998688614965565b99505050505050505050935093915050565b60006127af83836143b8565b60008060006136c4612a55565b60040160008781526020019081526020016000206000815481106136ea576136ea614939565b6000918252602080832090910154604080516371613c2d60e01b815290516001600160a01b03909216945084926371613c2d92600480840193829003018186803b15801561373757600080fd5b505afa15801561374b573d6000803e3d6000fd5b505050506040513d601f19601f8201168201806040525081019061376f9190614b88565b9050613779612cfc565b60405163474611f160e01b815260048101899052602481018890526001600160a01b03919091169063474611f19060440160a06040518083038186803b1580156137c257600080fd5b505afa1580156137d6573d6000803e3d6000fd5b505050506040513d601f19601f820116820180604052508101906137fa9190614eb1565b516138345761380a878787614219565b935061382d613818826142c3565b6138236127106142c3565b6132659087614dd8565b92506138da565b61383c612cfc565b604051631b736f6760e31b8152600481018990526024810188905260006044820152606481018790526001600160a01b03919091169063db9b7b389060840160206040518083038186803b15801561389357600080fd5b505afa1580156138a7573d6000803e3d6000fd5b505050506040513d601f19601f820116820180604052508101906138cb9190614b88565b92506138d78382613242565b93505b5050935093915050565b6000806138ef612a55565b6000868152600691909101602090815260408083208784528252918290205482516371613c2d60e01b815292516001600160a01b03909116926371613c2d926004808301939192829003018186803b15801561394a57600080fd5b505afa15801561395e573d6000803e3d6000fd5b505050506040513d601f19601f820116820180604052508101906139829190614b88565b9050613994816109d961271086614a5f565b95945050505050565b60008115613ba65760006139af612cfc565b6001600160a01b03166388c0520e87878b8b6139c9612cfc565b6001600160a01b03166318612e328d8d6139e28e6142c3565b6040516001600160e01b031960e086901b16815260048101939093526024830191909152604482015260640160206040518083038186803b158015613a2657600080fd5b505afa158015613a3a573d6000803e3d6000fd5b505050506040513d601f19601f82011682018060405250810190613a5e9190614b88565b6040516001600160e01b031960e088901b168152600481019590955260248501939093526001600160a01b039182166044850152166064830152608482015260a401602060405180830381600087803b158015613aba57600080fd5b505af1158015613ace573d6000803e3d6000fd5b505050506040513d601f19601f82011682018060405250810190613af29190614b88565b90506000811315613ba4576000613b948787613b0c612cfc565b604051637636e94160e01b8152600481018c9052602481018b9052604481018790526001600160a01b039190911690637636e9419060640160206040518083038186803b158015613b5c57600080fd5b505afa158015613b70573d6000803e3d6000fd5b505050506040513d601f19601f82011682018060405250810190611ed89190614b88565b509050613ba08161326b565b9250505b505b6000613bc986868a8a613bba8b8b896138e4565b613bc4908a614b3b565b6144ab565b90508015613bfb576000613be18787611ed8856142c3565b509050613bed8161326b565b613bf79084614965565b9250505b509695505050505050565b818115613f24576000613c17612cfc565b60405163386320d360e11b8152600481018890526001600160a01b038a8116602483015291909116906370c641a69060440160206040518083038186803b158015613c6157600080fd5b505afa158015613c75573d6000803e3d6000fd5b505050506040513d601f19601f82011682018060405250810190613c999190614b88565b90506000811215613f22576000613cae612cfc565b6001600160a01b03166349a1d218886040518263ffffffff1660e01b8152600401613cdb91815260200190565b60206040518083038186803b158015613cf357600080fd5b505afa158015613d07573d6000803e3d6000fd5b505050506040513d601f19601f82011682018060405250810190613d2b9190614b88565b90506000613d37612cfc565b6001600160a01b03166318612e32896000613d5b613d568d888b6138e4565b6142c3565b613d6490614c21565b6040516001600160e01b031960e086901b16815260048101939093526024830191909152604482015260640160206040518083038186803b158015613da857600080fd5b505afa158015613dbc573d6000803e3d6000fd5b505050506040513d601f19601f82011682018060405250810190613de09190614b88565b905080831315613ded5750815b613df5612cfc565b604051633916cf2b60e21b8152600481018a90526001600160a01b038c811660248301528b8116604483015260648201849052919091169063e45b3cac90608401600060405180830381600087803b158015613e5057600080fd5b505af1158015613e64573d6000803e3d6000fd5b50505050613f136118528984613e78612cfc565b6001600160a01b0316637636e9418d6000613e9289614c21565b6040516001600160e01b031960e086901b16815260048101939093526024830191909152604482015260640160206040518083038186803b158015613ed657600080fd5b505afa158015613eea573d6000803e3d6000fd5b505050506040513d601f19601f82011682018060405250810190613f0e9190614b88565b614219565b613f1d9085614b3b565b935050505b505b6000613f2e612a55565b60008781526005919091016020526040812090613f49612a55565b6000898152600691909101602090815260408083208a84528252808320546001600160a01b03908116855291840194909452918301812054925163070da1af60e11b81528b83166004820152929091169250908290630e1b435e90602401604080518083038186803b158015613fbe57600080fd5b505afa158015613fd2573d6000803e3d6000fd5b505050506040513d601f19601f82011682018060405250810190613ff69190614db4565b5090506000811215612f18576000614012613d568989876138e4565b61401b90614c21565b9050808213156140285750805b604051630c02764960e31b81526001600160a01b038b811660048301528a811660248301526044820183905260648201899052841690636013b24890608401600060405180830381600087803b15801561408157600080fd5b505af1158015614095573d6000803e3d6000fd5b505050506140ab611852898984613f0e90614c21565b6140b59085614b3b565b9a9950505050505050505050565b606060006140d083614193565b9392505050565b600081815260018301602052604081205415156127af565b60006127af83836145a0565b60008181527f4abde63c3e81aefa5764b017968bc473e83e093d7e1a10247d19e0a3e41240196020908152604080832054815170026b4b9b9b4b7339030b2323932b9b99d1607d1b9381019390935260318084018690528251808503909101815260519093019091526001600160a01b0316908161418c5760405162461bcd60e51b8152600401611ca09190614f21565b5092915050565b6060816000018054806020026020016040519081016040528092919081815260200182805480156141e357602002820191906000526020600020905b8154815260200190600101908083116141cf575b50505050509050919050565b600082600001828154811061420657614206614939565b9060005260206000200154905092915050565b600080614224612a55565b6000868152600691909101602090815260408083208784528252918290205482516371613c2d60e01b815292516001600160a01b03909116926371613c2d926004808301939192829003018186803b15801561427f57600080fd5b505afa158015614293573d6000803e3d6000fd5b505050506040513d601f19601f820116820180604052508101906142b79190614b88565b90506139948382613242565b60006001600160ff1b038211156132bd5760405162461bcd60e51b815260206004820152602860248201527f53616665436173743a2076616c756520646f65736e27742066697420696e2061604482015267371034b73a191a9b60c11b6064820152608401611ca0565b60008161433957600080fd5b60006143458385614f76565b61435090600a614dd8565b8361435c86600a614dd8565b6143669190614f76565b6143709190614ba1565b90506005811261438f576143848385614f76565b612bb2906001614be0565b60041981136143ae5760016143a48486614f76565b612bb29190614ba1565b612bb28385614f76565b600081815260018301602052604081205480156144a15760006143dc600183614b3b565b85549091506000906143f090600190614b3b565b905081811461445557600086600001828154811061441057614410614939565b906000526020600020015490508087600001848154811061443357614433614939565b6000918252602080832090910192909255918252600188019052604090208390555b855486908061446657614466614fa4565b6001900381819060005260206000200160009055905585600101600086815260200190815260200160002060009055600193505050506127b2565b60009150506127b2565b6000806144b6612a55565b6000888152600691909101602090815260408083208984529091528120546001600160a01b031691506144e7612a55565b6000898152600591909101602090815260408083206001600160a01b038681168552925291829020549151632900b99560e01b81528882166004820152878216602482015260448101879052911691508190632900b99590606401602060405180830381600087803b15801561455c57600080fd5b505af1158015614570573d6000803e3d6000fd5b505050506040513d601f19601f820116820180604052508101906145949190614b88565b98975050505050505050565b60008181526001830160205260408120546145e7575081546001818101845560008481526020808220909301849055845484825282860190935260409020919091556127b2565b5060006127b2565b80356001600160a01b038116811461460657600080fd5b919050565b60008060006060848603121561462057600080fd5b614629846145ef565b95602085013595506040909401359392505050565b60008060006060848603121561465357600080fd5b83359250614663602085016145ef565b9150604084013590509250925092565b60008060006060848603121561468857600080fd5b833592506020840135915061469f604085016145ef565b90509250925092565b80151581146146b657600080fd5b50565b600080600080600080600080610100898b0312156146d657600080fd5b88359750602089013596506146ed60408a016145ef565b955060608901356002811061470157600080fd5b94506080890135935060a0890135925060c0890135915060e0890135614726816146a8565b809150509295985092959890939650565b6000806040838503121561474a57600080fd5b8235915061475a602084016145ef565b90509250929050565b6000806000806080858703121561477957600080fd5b84359350614789602086016145ef565b93969395505050506040820135916060013590565b600080600080600060a086880312156147b657600080fd5b6147bf866145ef565b94506147cd602087016145ef565b94979496505050506040830135926060810135926080909101359150565b6020808252825182820181905260009190848201906040850190845b8181101561482357835183529284019291840191600101614807565b50909695505050505050565b634e487b7160e01b600052604160045260246000fd5b604051601f8201601f1916810167ffffffffffffffff8111828210171561486e5761486e61482f565b604052919050565b600067ffffffffffffffff8211156148905761489061482f565b5060051b60200190565b600060208083850312156148ad57600080fd5b825167ffffffffffffffff8111156148c457600080fd5b8301601f810185136148d557600080fd5b80516148e86148e382614876565b614845565b81815260059190911b8201830190838101908783111561490757600080fd5b928401925b8284101561492e57835161491f816146a8565b8252928401929084019061490c565b979650505050505050565b634e487b7160e01b600052603260045260246000fd5b634e487b7160e01b600052601160045260246000fd5b600082198211156149785761497861494f565b500190565b6000604082018483526020604081850152818551808452606086019150828701935060005b81811015610c5a578451835293830193918301916001016149a2565b600060208083850312156149d157600080fd5b825167ffffffffffffffff8111156149e857600080fd5b8301601f810185136149f957600080fd5b8051614a076148e382614876565b81815260059190911b82018301908381019087831115614a2657600080fd5b928401925b8284101561492e57835182529284019290840190614a2b565b6000600019821415614a5857614a5861494f565b5060010190565b6000816000190483118215151615614a7957614a7961494f565b500290565b6001600160a01b039390931683526020830191909152604082015260600190565b60008060008060808587031215614ab557600080fd5b8451935060208501519250604085015191506060850151614ad5816146a8565b939692955090935050565b634e487b7160e01b600052602160045260246000fd5b6001600160a01b03949094168452602084019290925260408301521515606082015260800190565b600060208284031215614b3057600080fd5b81516140d0816146a8565b600082821015614b4d57614b4d61494f565b500390565b6060810160028510614b7457634e487b7160e01b600052602160045260246000fd5b938152602081019290925260409091015290565b600060208284031215614b9a57600080fd5b5051919050565b60008083128015600160ff1b850184121615614bbf57614bbf61494f565b6001600160ff1b0384018313811615614bda57614bda61494f565b50500390565b600080821280156001600160ff1b0384900385131615614c0257614c0261494f565b600160ff1b8390038412811615614c1b57614c1b61494f565b50500190565b6000600160ff1b821415614c3757614c3761494f565b5060000390565b60008060008060808587031215614c5457600080fd5b505082516020840151604085015160609095015191969095509092509050565b600060208284031215614c8657600080fd5b815160ff811681146140d057600080fd5b600181815b80851115614cd2578160001904821115614cb857614cb861494f565b80851615614cc557918102915b93841c9390800290614c9c565b509250929050565b600082614ce9575060016127b2565b81614cf6575060006127b2565b8160018114614d0c5760028114614d1657614d32565b60019150506127b2565b60ff841115614d2757614d2761494f565b50506001821b6127b2565b5060208310610133831016604e8410600b8410161715614d55575081810a6127b2565b614d5f8383614c97565b8060001904821115614d7357614d7361494f565b029392505050565b60006127af60ff841683614cda565b634e487b7160e01b600052601260045260246000fd5b600082614daf57614daf614d8a565b500490565b60008060408385031215614dc757600080fd5b505080516020909101519092909150565b60006001600160ff1b0381841382841380821686840486111615614dfe57614dfe61494f565b600160ff1b6000871282811687830589121615614e1d57614e1d61494f565b60008712925087820587128484161615614e3957614e3961494f565b87850587128184161615614e4f57614e4f61494f565b505050929093029392505050565b600080600080600080600060e0888a031215614e7857600080fd5b5050855160208701516040880151606089015160808a015160a08b015160c0909b0151949c939b50919990985090965094509092509050565b600060a08284031215614ec357600080fd5b60405160a0810181811067ffffffffffffffff82111715614ee657614ee661482f565b806040525082518152602083015160208201526040830151604082015260608301516060820152608083015160808201528091505092915050565b600060208083528351808285015260005b81811015614f4e57858101830151858201604001528201614f32565b81811115614f60576000604083870101525b50601f01601f1916929092016040019392505050565b600082614f8557614f85614d8a565b600160ff1b821460001984141615614f9f57614f9f61494f565b500590565b634e487b7160e01b600052603160045260246000fdfea26469706673582212200b501565de3ba7e93d8c562993da354e9066b99960ac86e846ea5e464368288064736f6c63430008090033",
  "libraries": {
    "QuickSort": "0x44691dD3dF1E59176B3FeBDe91C27c29dF6b3734"
  },
  "devdoc": {
    "kind": "dev",
    "methods": {
      "convertFutureValueToGenesisValue(bytes32,uint256,address)": {
        "params": {
          "_ccy": "Currency for pausing all lending markets",
          "_user": "User's address"
        },
        "returns": {
          "_0": "Current future value amount after update"
        }
      }
    },
    "version": 1
  },
  "userdoc": {
    "kind": "user",
    "methods": {
      "convertFutureValueToGenesisValue(bytes32,uint256,address)": {
        "notice": "Converts the future value to the genesis value if there is balance in the past maturity."
      }
    },
    "version": 1
  },
  "storageLayout": {
    "storage": [],
    "types": null
  }
}