{
  "address": "0x11208389Fc319F8455718f343E242Bd4EFc678F0",
  "abi": [
    {
      "inputs": [],
      "name": "InvalidResetAmount",
      "type": "error"
    },
    {
      "inputs": [
        {
          "internalType": "string",
          "name": "name",
          "type": "string"
        }
      ],
      "name": "MissingAddress",
      "type": "error"
    },
    {
      "inputs": [],
      "name": "OnlyAcceptedContracts",
      "type": "error"
    },
    {
      "inputs": [
        {
          "internalType": "address",
          "name": "user",
          "type": "address"
        }
      ],
      "name": "PastMaturityBalanceExists",
      "type": "error"
    },
    {
      "inputs": [],
      "name": "ResolverAlreadyRegistered",
      "type": "error"
    },
    {
      "inputs": [],
      "name": "TotalSupplyNotZero",
      "type": "error"
    },
    {
      "inputs": [],
      "name": "UserIsZero",
      "type": "error"
    },
    {
      "anonymous": false,
      "inputs": [
        {
          "indexed": false,
          "internalType": "bytes32",
          "name": "name",
          "type": "bytes32"
        },
        {
          "indexed": false,
          "internalType": "address",
          "name": "destination",
          "type": "address"
        }
      ],
      "name": "CacheUpdated",
      "type": "event"
    },
    {
      "anonymous": false,
      "inputs": [
        {
          "indexed": false,
          "internalType": "uint8",
          "name": "version",
          "type": "uint8"
        }
      ],
      "name": "Initialized",
      "type": "event"
    },
    {
      "anonymous": false,
      "inputs": [
        {
          "indexed": true,
          "internalType": "address",
          "name": "from",
          "type": "address"
        },
        {
          "indexed": true,
          "internalType": "address",
          "name": "to",
          "type": "address"
        },
        {
          "indexed": false,
          "internalType": "uint8",
          "name": "orderBookId",
          "type": "uint8"
        },
        {
          "indexed": false,
          "internalType": "uint256",
          "name": "maturity",
          "type": "uint256"
        },
        {
          "indexed": false,
          "internalType": "int256",
          "name": "value",
          "type": "int256"
        }
      ],
      "name": "Transfer",
      "type": "event"
    },
    {
      "inputs": [],
      "name": "acceptedContracts",
      "outputs": [
        {
          "internalType": "bytes32[]",
          "name": "contracts",
          "type": "bytes32[]"
        }
      ],
      "stateMutability": "pure",
      "type": "function"
    },
    {
      "inputs": [],
      "name": "buildCache",
      "outputs": [],
      "stateMutability": "nonpayable",
      "type": "function"
    },
    {
      "inputs": [
        {
          "internalType": "uint8",
          "name": "_orderBookId",
          "type": "uint8"
        },
        {
          "internalType": "address",
          "name": "_user",
          "type": "address"
        },
        {
          "internalType": "uint256",
          "name": "_amount",
          "type": "uint256"
        },
        {
          "internalType": "uint256",
          "name": "_maturity",
          "type": "uint256"
        },
        {
          "internalType": "bool",
          "name": "_isTaker",
          "type": "bool"
        }
      ],
      "name": "decrease",
      "outputs": [],
      "stateMutability": "nonpayable",
      "type": "function"
    },
    {
      "inputs": [
        {
          "internalType": "uint8",
          "name": "_orderBookId",
          "type": "uint8"
        },
        {
          "internalType": "address",
          "name": "_user",
          "type": "address"
        },
        {
          "internalType": "int256",
          "name": "_amount",
          "type": "int256"
        }
      ],
      "name": "executeForcedReset",
      "outputs": [
        {
          "internalType": "int256",
          "name": "removedAmount",
          "type": "int256"
        },
        {
          "internalType": "int256",
          "name": "balance",
          "type": "int256"
        }
      ],
      "stateMutability": "nonpayable",
      "type": "function"
    },
    {
      "inputs": [
        {
          "internalType": "uint8",
          "name": "_orderBookId",
          "type": "uint8"
        },
        {
          "internalType": "address",
          "name": "_user",
          "type": "address"
        }
      ],
      "name": "executeForcedReset",
      "outputs": [],
      "stateMutability": "nonpayable",
      "type": "function"
    },
    {
      "inputs": [
        {
          "internalType": "uint8",
          "name": "_orderBookId",
          "type": "uint8"
        },
        {
          "internalType": "address",
          "name": "_user",
          "type": "address"
        }
      ],
      "name": "getBalance",
      "outputs": [
        {
          "internalType": "int256",
          "name": "balance",
          "type": "int256"
        },
        {
          "internalType": "uint256",
          "name": "maturity",
          "type": "uint256"
        }
      ],
      "stateMutability": "view",
      "type": "function"
    },
    {
      "inputs": [
        {
          "internalType": "uint256",
          "name": "_maturity",
          "type": "uint256"
        }
      ],
      "name": "getTotalSupply",
      "outputs": [
        {
          "internalType": "uint256",
          "name": "",
          "type": "uint256"
        }
      ],
      "stateMutability": "view",
      "type": "function"
    },
    {
      "inputs": [
        {
          "internalType": "uint8",
          "name": "_orderBookId",
          "type": "uint8"
        },
        {
          "internalType": "address",
          "name": "_user",
          "type": "address"
        },
        {
          "internalType": "uint256",
          "name": "_maturity",
          "type": "uint256"
        }
      ],
      "name": "hasBalanceAtPastMaturity",
      "outputs": [
        {
          "internalType": "bool",
          "name": "",
          "type": "bool"
        }
      ],
      "stateMutability": "view",
      "type": "function"
    },
    {
      "inputs": [
        {
          "internalType": "uint8",
          "name": "_orderBookId",
          "type": "uint8"
        },
        {
          "internalType": "address",
          "name": "_user",
          "type": "address"
        },
        {
          "internalType": "uint256",
          "name": "_amount",
          "type": "uint256"
        },
        {
          "internalType": "uint256",
          "name": "_maturity",
          "type": "uint256"
        },
        {
          "internalType": "bool",
          "name": "_isTaker",
          "type": "bool"
        }
      ],
      "name": "increase",
      "outputs": [],
      "stateMutability": "nonpayable",
      "type": "function"
    },
    {
      "inputs": [
        {
          "internalType": "address",
          "name": "_resolver",
          "type": "address"
        }
      ],
      "name": "initialize",
      "outputs": [],
      "stateMutability": "nonpayable",
      "type": "function"
    },
    {
      "inputs": [],
      "name": "isResolverCached",
      "outputs": [
        {
          "internalType": "bool",
          "name": "",
          "type": "bool"
        }
      ],
      "stateMutability": "view",
      "type": "function"
    },
    {
      "inputs": [],
      "name": "requiredContracts",
      "outputs": [
        {
          "internalType": "bytes32[]",
          "name": "contracts",
          "type": "bytes32[]"
        }
      ],
      "stateMutability": "pure",
      "type": "function"
    },
    {
      "inputs": [
        {
          "internalType": "uint8",
          "name": "_orderBookId",
          "type": "uint8"
        },
        {
          "internalType": "address",
          "name": "_user",
          "type": "address"
        },
        {
          "internalType": "uint256",
          "name": "_activeMaturity",
          "type": "uint256"
        }
      ],
      "name": "reset",
      "outputs": [
        {
          "internalType": "int256",
          "name": "removedAmount",
          "type": "int256"
        },
        {
          "internalType": "int256",
          "name": "currentAmount",
          "type": "int256"
        },
        {
          "internalType": "uint256",
          "name": "maturity",
          "type": "uint256"
        },
        {
          "internalType": "bool",
          "name": "isAllRemoved",
          "type": "bool"
        }
      ],
      "stateMutability": "nonpayable",
      "type": "function"
    },
    {
      "inputs": [],
      "name": "resolver",
      "outputs": [
        {
          "internalType": "contract IAddressResolver",
          "name": "",
          "type": "address"
        }
      ],
      "stateMutability": "view",
      "type": "function"
    },
    {
      "inputs": [
        {
          "internalType": "uint256",
          "name": "_maturity",
          "type": "uint256"
        },
        {
          "internalType": "int256",
          "name": "_amount",
          "type": "int256"
        }
      ],
      "name": "setInitialTotalSupply",
      "outputs": [],
      "stateMutability": "nonpayable",
      "type": "function"
    },
    {
      "inputs": [
        {
          "internalType": "uint8",
          "name": "_orderBookId",
          "type": "uint8"
        },
        {
          "internalType": "address",
          "name": "_sender",
          "type": "address"
        },
        {
          "internalType": "address",
          "name": "_receiver",
          "type": "address"
        },
        {
          "internalType": "int256",
          "name": "_amount",
          "type": "int256"
        },
        {
          "internalType": "uint256",
          "name": "_maturity",
          "type": "uint256"
        }
      ],
      "name": "transferFrom",
      "outputs": [],
      "stateMutability": "nonpayable",
      "type": "function"
    }
  ],
  "transactionHash": "0xecc08baec9ff7e80db90ee9ff2b53e308cc15122520260aa821d6a06a24ecee2",
  "args": [],
  "numDeployments": 1,
  "solcInputHash": "904ba098c33c8117eaf5045f72781b3c",
  "bytecode": "0x608060405234801561001057600080fd5b50611a33806100206000396000f3fe608060405234801561001057600080fd5b50600436106101005760003560e01c80637947a29b11610097578063d3bcc4a811610066578063d3bcc4a81461023e578063d42a750c14610251578063dc6eead614610264578063e0997659146101bc57600080fd5b80637947a29b146101e457806392ab723e146101f7578063c4d66de814610218578063c7e035bc1461022b57600080fd5b80632af64bd3116100d35780632af64bd31461016f5780633b9f28f4146101875780633d03b9da146101bc57806369c11264146101d157600080fd5b806304f3bcec14610105578063246452541461012a57806325eb3c3d1461015257806329985e5a14610167575b600080fd5b61010d610277565b6040516001600160a01b0390911681526020015b60405180910390f35b61013d61013836600461163f565b610298565b60408051928352602083019190915201610121565b610165610160366004611676565b610306565b005b6101656104d0565b61017761067d565b6040519015158152602001610121565b61019a6101953660046116d8565b6107e3565b6040805194855260208501939093529183015215156060820152608001610121565b6101c4610a2d565b6040516101219190611717565b6101656101df366004611676565b610a92565b6101656101f236600461175b565b610be7565b61020a6102053660046117b4565b610d77565b604051908152602001610121565b6101656102263660046117cd565b610d95565b61013d6102393660046116d8565b610f1c565b61016561024c36600461163f565b6110d1565b61016561025f3660046117ea565b6111df565b6101776102723660046116d8565b61124c565b60006000805160206119be8339815191525b546001600160a01b0316919050565b6000806102a36112c8565b60ff85166000908152602091825260408082206001600160a01b038716835290925220546102cf6112c8565b60ff86166000908152600191909101602090815260408083206001600160a01b038816845290915290205490925090509250929050565b61030f336112ec565b61032c576040516330de277560e21b815260040160405180910390fd5b6001600160a01b03841661035357604051630b328ad960e31b815260040160405180910390fd5b61035e85858461124c565b1561038b5760405162c34ff560e61b81526001600160a01b03851660048201526024015b60405180910390fd5b60006103956112c8565b60ff87166000908152602091825260408082206001600160a01b038916835290925220549050826103c46112c8565b60ff88166000908152600191909101602090815260408083206001600160a01b038a1684529091529020556103f884611366565b6104006112c8565b60ff88166000908152602091825260408082206001600160a01b038a1683529092529081208054909190610435908490611822565b90915550506001600160a01b03851660006000805160206119de833981519152888661046089611366565b61046990611861565b6040805160ff909416845260208401929092529082015260600160405180910390a360006104956112c8565b60ff88166000908152602091825260408082206001600160a01b038a168352909252205490506104c7848383866113d4565b50505050505050565b60006104da610a2d565b905060005b81518110156106795760008282815181106104fc576104fc61187e565b60200260200101519050600061051d6000805160206119be83398151915290565b54604080517f5265736f6c766572206d697373696e67207461726765743a200000000000000060208201526039808201869052825180830390910181526059820192839052636795dbcd60e01b9092526001600160a01b0390921691636795dbcd9161058e91869190605d016118e1565b60206040518083038186803b1580156105a657600080fd5b505afa1580156105ba573d6000803e3d6000fd5b505050506040513d601f19601f820116820180604052508101906105de9190611902565b60008381527f4abde63c3e81aefa5764b017968bc473e83e093d7e1a10247d19e0a3e4124019602090815260409182902080546001600160a01b0319166001600160a01b03851690811790915582518681529182015281519293507f88a93678a3692f6789d9546fc621bf7234b101ddb7d4fe479455112831b8aa68929081900390910190a1505080806106719061191f565b9150506104df565b5050565b600080610688610a2d565b905060005b81518110156107da5760008282815181106106aa576106aa61187e565b602002602001015190506106c96000805160206119be83398151915290565b600082815260019190910160205260409020546001600160a01b03166000805160206119be833981519152546040516321f8a72160e01b8152600481018490526001600160a01b03909116906321f8a7219060240160206040518083038186803b15801561073657600080fd5b505afa15801561074a573d6000803e3d6000fd5b505050506040513d601f19601f8201168201806040525081019061076e9190611902565b6001600160a01b03161415806107b8575060008181527f4abde63c3e81aefa5764b017968bc473e83e093d7e1a10247d19e0a3e412401960205260409020546001600160a01b0316155b156107c7576000935050505090565b50806107d28161191f565b91505061068d565b50600191505090565b6000806000806107f2336112ec565b61080f576040516330de277560e21b815260040160405180910390fd5b6108176112c8565b60ff88166000908152602091825260408082206001600160a01b038a16835290925220549250846108466112c8565b60ff89166000908152600191909101602090815260408083206001600160a01b038b1684529091529020541480159061087e57508215155b156109ac5782935061088e6112c8565b60ff88166000908152600191909101602090815260408083206001600160a01b038a16845290915281205492509050808412610903576108cd846114b1565b6108d56112c8565b600301600084815260200190815260200160002060008282546108f8919061193a565b909155506109459050565b61091461090f85611861565b6114b1565b61091c6112c8565b6004016000848152602001908152602001600020600082825461093f919061193a565b90915550505b600061094f6112c8565b60ff89166000818152602092835260408082206001600160a01b038c168084529085528183209590955580519283529282018690529181018790529094508491906000805160206119de8339815191529060600160405180910390a35b6109b46112c8565b600083815260029190910160205260409020546109cf6112c8565b60008481526003919091016020526040902054148015610a2257506109f26112c8565b60008381526002919091016020526040902054610a0d6112c8565b60008481526004919091016020526040902054145b905093509350935093565b604080516001808252818301909252606091602080830190803683370190505090507f4c656e64696e674d61726b6574436f6e74726f6c6c657200000000000000000081600081518110610a8357610a8361187e565b60200260200101818152505090565b610a9b336112ec565b610ab8576040516330de277560e21b815260040160405180910390fd5b6001600160a01b038416610adf57604051630b328ad960e31b815260040160405180910390fd5b610aea85858461124c565b15610b125760405162c34ff560e61b81526001600160a01b0385166004820152602401610382565b6000610b1c6112c8565b60ff87166000908152602091825260408082206001600160a01b03891683529092522054905082610b4b6112c8565b60ff88166000908152600191909101602090815260408083206001600160a01b038a168452909152902055610b7f84611366565b610b876112c8565b60ff88166000908152602091825260408082206001600160a01b038a1683529092529081208054909190610bbc908490611952565b90915550506001600160a01b03851660006000805160206119de833981519152888661046989611366565b610bf0336112ec565b610c0d576040516330de277560e21b815260040160405180910390fd5b610c1885858361124c565b15610c405760405162c34ff560e61b81526001600160a01b0385166004820152602401610382565b610c4b85848361124c565b15610c735760405162c34ff560e61b81526001600160a01b0384166004820152602401610382565b80610c7c6112c8565b60ff87166000908152600191909101602090815260408083206001600160a01b038816845290915290205581610cb06112c8565b60ff87166000908152602091825260408082206001600160a01b03891683529092529081208054909190610ce5908490611822565b90915550829050610cf46112c8565b60ff87166000908152602091825260408082206001600160a01b03881683529092529081208054909190610d29908490611952565b90915550506040805160ff87168152602081018390529081018390526001600160a01b0380851691908616906000805160206119de8339815191529060600160405180910390a35050505050565b6000610d816112c8565b600092835260020160205250604090205490565b600054610100900460ff1615808015610db55750600054600160ff909116105b80610dcf5750303b158015610dcf575060005460ff166001145b610e325760405162461bcd60e51b815260206004820152602e60248201527f496e697469616c697a61626c653a20636f6e747261637420697320616c72656160448201526d191e481a5b9a5d1a585b1a5e995960921b6064820152608401610382565b6000805460ff191660011790558015610e55576000805461ff0019166101001790555b6000610e5f611503565b6001600160a01b03161415610ec25760405162461bcd60e51b815260206004820152602360248201527f4d7573742062652063616c6c65642066726f6d20626561636f6e20636f6e74726044820152621858dd60ea1b6064820152608401610382565b610ecb8261152b565b610ed36104d0565b8015610679576000805461ff0019169055604051600181527f7f26b83ff96e1f2b6a682f133852f6798a09c465da95921460cefb38474024989060200160405180910390a15050565b600080610f28336112ec565b610f45576040516330de277560e21b815260040160405180910390fd5b610f4d6112c8565b60ff86166000908152602091825260408082206001600160a01b038816835290925290812054925083138015610f835750600082125b80610f995750600083128015610f995750600082135b15610fb75760405163b37fdc9d60e01b815260040160405180910390fd5b600083138015610fc657508183125b80610fdb5750600083128015610fdb57508183135b15610fe4578291505b81156110975781610ff36112c8565b60ff87166000908152602091825260408082206001600160a01b03891683529092529081208054909190611028908490611822565b90915550600090506110386112c8565b60ff87166000818152600192909201602090815260408084206001600160a01b038a16808652908352818520548251948552928401839052908301879052909350906000805160206119de8339815191529060600160405180910390a3505b61109f6112c8565b60ff9095166000908152602095865260408082206001600160a01b039096168252949095525091909220549092909150565b6110da336112ec565b6110f7576040516330de277560e21b815260040160405180910390fd5b60006111016112c8565b60ff84166000908152602091825260408082206001600160a01b03861683529092522054905080156111da57806111366112c8565b60ff85166000908152602091825260408082206001600160a01b0387168352909252908120805490919061116b908490611822565b909155506000905061117b6112c8565b60ff85166000818152600192909201602090815260408084206001600160a01b038816808652908352818520548251948552928401839052908301869052909350906000805160206119de8339815191529060600160405180910390a3505b505050565b6111e8336112ec565b611205576040516330de277560e21b815260040160405180910390fd5b61120d6112c8565b600083815260029190910160205260409020541561123e5760405163ceb2484b60e01b815260040160405180910390fd5b6106798260008360016113d4565b6000816112576112c8565b60ff86166000908152600191909101602090815260408083206001600160a01b03881684529091529020541415611290575060006112c1565b6112986112c8565b60ff85166000908152602091825260408082206001600160a01b03871683529092522054151590505b9392505050565b7fd1b4fbfb8f78bdad30892554423aedac9635765ae463e7c2b7953fa50219190e90565b6000806112f7610a2d565b905060005b815181101561135c5761132782828151811061131a5761131a61187e565b6020026020010151611591565b6001600160a01b0316846001600160a01b0316141561134a575060019392505050565b806113548161191f565b9150506112fc565b5060009392505050565b60006001600160ff1b038211156113d05760405162461bcd60e51b815260206004820152602860248201527f53616665436173743a2076616c756520646f65736e27742066697420696e2061604482015267371034b73a191a9b60c11b6064820152608401610382565b5090565b6000808412156113ef576113ea61090f85611861565b6113f8565b6113f8846114b1565b90506000808412156114155761141061090f85611861565b61141e565b61141e846114b1565b905080821115611468576114328183611993565b61143a6112c8565b6002016000888152602001908152602001600020600082825461145d9190611993565b909155506114a99050565b82156114a9576114788282611993565b6114806112c8565b600201600088815260200190815260200160002060008282546114a3919061193a565b90915550505b505050505050565b6000808212156113d05760405162461bcd60e51b815260206004820181905260248201527f53616665436173743a2076616c7565206d75737420626520706f7369746976656044820152606401610382565b60007fa3f0ad74e5423aebfd80d3ef4346578335a9a72aeaee59ff6cb3582b35133d50610289565b6000805160206119be833981519152546001600160a01b031615611562576040516304b79d6360e51b815260040160405180910390fd5b6000805160206119be83398151915280546001600160a01b0319166001600160a01b0392909216919091179055565b600061159c826115a2565b92915050565b60008181527f4abde63c3e81aefa5764b017968bc473e83e093d7e1a10247d19e0a3e412401960205260408120546001600160a01b03168061159c5760408051602081018590520160408051601f19818403018152908290526346e2ec9360e01b8252610382916004016119aa565b803560ff8116811461162257600080fd5b919050565b6001600160a01b038116811461163c57600080fd5b50565b6000806040838503121561165257600080fd5b61165b83611611565b9150602083013561166b81611627565b809150509250929050565b600080600080600060a0868803121561168e57600080fd5b61169786611611565b945060208601356116a781611627565b93506040860135925060608601359150608086013580151581146116ca57600080fd5b809150509295509295909350565b6000806000606084860312156116ed57600080fd5b6116f684611611565b9250602084013561170681611627565b929592945050506040919091013590565b6020808252825182820181905260009190848201906040850190845b8181101561174f57835183529284019291840191600101611733565b50909695505050505050565b600080600080600060a0868803121561177357600080fd5b61177c86611611565b9450602086013561178c81611627565b9350604086013561179c81611627565b94979396509394606081013594506080013592915050565b6000602082840312156117c657600080fd5b5035919050565b6000602082840312156117df57600080fd5b81356112c181611627565b600080604083850312156117fd57600080fd5b50508035926020909101359150565b634e487b7160e01b600052601160045260246000fd5b60008083128015600160ff1b8501841216156118405761184061180c565b6001600160ff1b038401831381161561185b5761185b61180c565b50500390565b6000600160ff1b8214156118775761187761180c565b5060000390565b634e487b7160e01b600052603260045260246000fd5b6000815180845260005b818110156118ba5760208185018101518683018201520161189e565b818111156118cc576000602083870101525b50601f01601f19169290920160200192915050565b8281526040602082015260006118fa6040830184611894565b949350505050565b60006020828403121561191457600080fd5b81516112c181611627565b60006000198214156119335761193361180c565b5060010190565b6000821982111561194d5761194d61180c565b500190565b600080821280156001600160ff1b03849003851316156119745761197461180c565b600160ff1b839003841281161561198d5761198d61180c565b50500190565b6000828210156119a5576119a561180c565b500390565b6020815260006112c1602083018461189456fe4abde63c3e81aefa5764b017968bc473e83e093d7e1a10247d19e0a3e412401882c4751a398091b75d013ac93a3fa87bef1009a6e90c5351ed9271cc1dcf84cba2646970667358221220c0d6d3139d0f8baa9821f7c3af19fec5027c514c2bb0a6061776721805ab566564736f6c63430008090033",
  "devdoc": {
    "kind": "dev",
    "methods": {
      "acceptedContracts()": {
        "details": "The contact name listed in this method is also needed to be listed `requiredContracts` method."
      },
      "decrease(uint8,address,uint256,uint256,bool)": {
        "details": "Since the total supply can be determined by totaling only the amounts on one side of the order when the order is fulfilled, the total supply is incremented only when the executor of the original order is the taker.",
        "params": {
          "_amount": "The amount to add",
          "_isTaker": "The boolean if the original order is created by a taker",
          "_maturity": "The maturity of the market",
          "_user": "User's address"
        }
      },
      "executeForcedReset(uint8,address)": {
        "params": {
          "_user": "User's address"
        }
      },
      "executeForcedReset(uint8,address,int256)": {
        "params": {
          "_amount": "The amount to reset",
          "_user": "User's address"
        }
      },
      "getBalance(uint8,address)": {
        "params": {
          "_user": "User's address"
        },
        "returns": {
          "balance": "The user balance",
          "maturity": "The maturity of the market that the future value was added"
        }
      },
      "getTotalSupply(uint256)": {
        "params": {
          "_maturity": "The maturity of the market"
        }
      },
      "hasBalanceAtPastMaturity(uint8,address,uint256)": {
        "params": {
          "_maturity": "The maturity of the market",
          "_user": "User's address"
        },
        "returns": {
          "_0": "The boolean if the lending market is initialized or not"
        }
      },
      "increase(uint8,address,uint256,uint256,bool)": {
        "details": "Since the total supply can be determined by totaling only the amounts on one side of the order when the order is fulfilled, the total supply is incremented only when the executor of the original order is the taker.",
        "params": {
          "_amount": "The amount to add",
          "_isTaker": "The boolean if the original order is created by a taker",
          "_maturity": "The maturity of the market",
          "_user": "User's address"
        }
      },
      "initialize(address)": {
        "details": "Function is invoked by the proxy contract when the contract is added to the ProxyController.",
        "params": {
          "_resolver": "The address of the Address Resolver contract"
        }
      },
      "requiredContracts()": {
        "details": "The contract name list is in `./libraries/Contracts.sol`."
      },
      "reset(uint8,address,uint256)": {
        "params": {
          "_user": "User's address"
        },
        "returns": {
          "currentAmount": "Current future value amount after update",
          "isAllRemoved": "The boolean if the all future value amount in the selected maturity is removed",
          "maturity": "Maturity of future value",
          "removedAmount": "Removed future value amount"
        }
      },
      "setInitialTotalSupply(uint256,int256)": {
        "params": {
          "_amount": "The amount to add",
          "_maturity": "The maturity of the market"
        }
      },
      "transferFrom(uint8,address,address,int256,uint256)": {
        "params": {
          "_amount": "Amount of funds to sent",
          "_maturity": "The maturity of the market",
          "_receiver": "Receiver's address",
          "_sender": "Sender's address"
        }
      }
    },
    "version": 1
  },
  "userdoc": {
    "kind": "user",
    "methods": {
      "acceptedContracts()": {
        "notice": "Returns contract names that can call this contract."
      },
      "decrease(uint8,address,uint256,uint256,bool)": {
        "notice": "Decreases amount for borrowing deals."
      },
      "executeForcedReset(uint8,address)": {
        "notice": "Forces a reset of the user's future value."
      },
      "executeForcedReset(uint8,address,int256)": {
        "notice": "Forces a reset of the user's future value."
      },
      "getBalance(uint8,address)": {
        "notice": "Gets the user balance."
      },
      "getTotalSupply(uint256)": {
        "notice": "Gets the total supply."
      },
      "hasBalanceAtPastMaturity(uint8,address,uint256)": {
        "notice": "Gets if the account has past maturity balance at the selected maturity."
      },
      "increase(uint8,address,uint256,uint256,bool)": {
        "notice": "Increases amount for lending deals."
      },
      "initialize(address)": {
        "notice": "Initializes the contract."
      },
      "requiredContracts()": {
        "notice": "Returns the contract names used in this contract."
      },
      "reset(uint8,address,uint256)": {
        "notice": "Reset all amount if there is an amount in the past maturity."
      },
      "setInitialTotalSupply(uint256,int256)": {
        "notice": "Sets initial total supply at market opening"
      },
      "transferFrom(uint8,address,address,int256,uint256)": {
        "notice": "Transfers the future value from sender to receiver."
      }
    },
    "notice": "Implements the management of the future value as an amount for Lending positions in each currency.",
    "version": 1
  },
  "storageLayout": {
    "storage": [
      {
        "astId": 995,
        "contract": "contracts/protocol/FutureValueVault.sol:FutureValueVault",
        "label": "_initialized",
        "offset": 0,
        "slot": "0",
        "type": "t_uint8"
      },
      {
        "astId": 998,
        "contract": "contracts/protocol/FutureValueVault.sol:FutureValueVault",
        "label": "_initializing",
        "offset": 1,
        "slot": "0",
        "type": "t_bool"
      }
    ],
    "types": {
      "t_bool": {
        "encoding": "inplace",
        "label": "bool",
        "numberOfBytes": "1"
      },
      "t_uint8": {
        "encoding": "inplace",
        "label": "uint8",
        "numberOfBytes": "1"
      }
    }
  }
}