{
  "address": "0xcf6DC2032eB092C5EB8b7bcf0316fFc4b97C360C",
  "abi": [
    {
      "anonymous": false,
      "inputs": [
        {
          "indexed": false,
          "internalType": "bytes32",
          "name": "name",
          "type": "bytes32"
        },
        {
          "indexed": false,
          "internalType": "address",
          "name": "destination",
          "type": "address"
        }
      ],
      "name": "CacheUpdated",
      "type": "event"
    },
    {
      "anonymous": false,
      "inputs": [
        {
          "indexed": false,
          "internalType": "uint8",
          "name": "version",
          "type": "uint8"
        }
      ],
      "name": "Initialized",
      "type": "event"
    },
    {
      "anonymous": false,
      "inputs": [
        {
          "indexed": true,
          "internalType": "address",
          "name": "from",
          "type": "address"
        },
        {
          "indexed": true,
          "internalType": "address",
          "name": "to",
          "type": "address"
        },
        {
          "indexed": false,
          "internalType": "int256",
          "name": "value",
          "type": "int256"
        }
      ],
      "name": "Transfer",
      "type": "event"
    },
    {
      "inputs": [],
      "name": "acceptedContracts",
      "outputs": [
        {
          "internalType": "bytes32[]",
          "name": "contracts",
          "type": "bytes32[]"
        }
      ],
      "stateMutability": "pure",
      "type": "function"
    },
    {
      "inputs": [
        {
          "internalType": "address",
          "name": "_user",
          "type": "address"
        },
        {
          "internalType": "uint256",
          "name": "_amount",
          "type": "uint256"
        },
        {
          "internalType": "uint256",
          "name": "_maturity",
          "type": "uint256"
        },
        {
          "internalType": "bool",
          "name": "_isTaker",
          "type": "bool"
        }
      ],
      "name": "addBorrowFutureValue",
      "outputs": [],
      "stateMutability": "nonpayable",
      "type": "function"
    },
    {
      "inputs": [
        {
          "internalType": "uint256",
          "name": "_maturity",
          "type": "uint256"
        },
        {
          "internalType": "int256",
          "name": "_amount",
          "type": "int256"
        }
      ],
      "name": "addInitialTotalSupply",
      "outputs": [],
      "stateMutability": "nonpayable",
      "type": "function"
    },
    {
      "inputs": [
        {
          "internalType": "address",
          "name": "_user",
          "type": "address"
        },
        {
          "internalType": "uint256",
          "name": "_amount",
          "type": "uint256"
        },
        {
          "internalType": "uint256",
          "name": "_maturity",
          "type": "uint256"
        },
        {
          "internalType": "bool",
          "name": "_isTaker",
          "type": "bool"
        }
      ],
      "name": "addLendFutureValue",
      "outputs": [],
      "stateMutability": "nonpayable",
      "type": "function"
    },
    {
      "inputs": [],
      "name": "buildCache",
      "outputs": [],
      "stateMutability": "nonpayable",
      "type": "function"
    },
    {
      "inputs": [
        {
          "internalType": "address",
          "name": "_user",
          "type": "address"
        },
        {
          "internalType": "int256",
          "name": "_amount",
          "type": "int256"
        }
      ],
      "name": "executeForcedReset",
      "outputs": [
        {
          "internalType": "int256",
          "name": "removedAmount",
          "type": "int256"
        },
        {
          "internalType": "int256",
          "name": "balance",
          "type": "int256"
        }
      ],
      "stateMutability": "nonpayable",
      "type": "function"
    },
    {
      "inputs": [
        {
          "internalType": "address",
          "name": "_user",
          "type": "address"
        }
      ],
      "name": "executeForcedReset",
      "outputs": [],
      "stateMutability": "nonpayable",
      "type": "function"
    },
    {
      "inputs": [
        {
          "internalType": "address",
          "name": "_user",
          "type": "address"
        }
      ],
      "name": "getFutureValue",
      "outputs": [
        {
          "internalType": "int256",
          "name": "futureValue",
          "type": "int256"
        },
        {
          "internalType": "uint256",
          "name": "maturity",
          "type": "uint256"
        }
      ],
      "stateMutability": "view",
      "type": "function"
    },
    {
      "inputs": [
        {
          "internalType": "uint256",
          "name": "_maturity",
          "type": "uint256"
        }
      ],
      "name": "getTotalSupply",
      "outputs": [
        {
          "internalType": "uint256",
          "name": "",
          "type": "uint256"
        }
      ],
      "stateMutability": "view",
      "type": "function"
    },
    {
      "inputs": [
        {
          "internalType": "address",
          "name": "_user",
          "type": "address"
        },
        {
          "internalType": "uint256",
          "name": "_maturity",
          "type": "uint256"
        }
      ],
      "name": "hasFutureValueInPastMaturity",
      "outputs": [
        {
          "internalType": "bool",
          "name": "",
          "type": "bool"
        }
      ],
      "stateMutability": "view",
      "type": "function"
    },
    {
      "inputs": [
        {
          "internalType": "address",
          "name": "_resolver",
          "type": "address"
        }
      ],
      "name": "initialize",
      "outputs": [],
      "stateMutability": "nonpayable",
      "type": "function"
    },
    {
      "inputs": [],
      "name": "isResolverCached",
      "outputs": [
        {
          "internalType": "bool",
          "name": "",
          "type": "bool"
        }
      ],
      "stateMutability": "view",
      "type": "function"
    },
    {
      "inputs": [
        {
          "internalType": "address",
          "name": "_user",
          "type": "address"
        },
        {
          "internalType": "uint256",
          "name": "_activeMaturity",
          "type": "uint256"
        }
      ],
      "name": "removeFutureValue",
      "outputs": [
        {
          "internalType": "int256",
          "name": "removedAmount",
          "type": "int256"
        },
        {
          "internalType": "int256",
          "name": "currentAmount",
          "type": "int256"
        },
        {
          "internalType": "uint256",
          "name": "maturity",
          "type": "uint256"
        },
        {
          "internalType": "bool",
          "name": "isAllRemoved",
          "type": "bool"
        }
      ],
      "stateMutability": "nonpayable",
      "type": "function"
    },
    {
      "inputs": [],
      "name": "requiredContracts",
      "outputs": [
        {
          "internalType": "bytes32[]",
          "name": "contracts",
          "type": "bytes32[]"
        }
      ],
      "stateMutability": "pure",
      "type": "function"
    },
    {
      "inputs": [],
      "name": "resolver",
      "outputs": [
        {
          "internalType": "contract IAddressResolver",
          "name": "",
          "type": "address"
        }
      ],
      "stateMutability": "view",
      "type": "function"
    },
    {
      "inputs": [
        {
          "internalType": "address",
          "name": "_sender",
          "type": "address"
        },
        {
          "internalType": "address",
          "name": "_receiver",
          "type": "address"
        },
        {
          "internalType": "int256",
          "name": "_amount",
          "type": "int256"
        },
        {
          "internalType": "uint256",
          "name": "_maturity",
          "type": "uint256"
        }
      ],
      "name": "transferFrom",
      "outputs": [],
      "stateMutability": "nonpayable",
      "type": "function"
    }
  ],
  "transactionHash": "0xcef263d35bab2d692012da093c50b45d6e12265fdb5e13558c597486b41fa6fb",
  "args": [],
  "numDeployments": 1,
  "solcInputHash": "ee0701f0e1353791145c76210180d73b",
  "bytecode": "0x608060405234801561001057600080fd5b50611a96806100206000396000f3fe608060405234801561001057600080fd5b50600436106101005760003560e01c80636013b24811610097578063ae100e6d11610066578063ae100e6d1461021c578063c4d66de814610251578063e099765914610187578063e224e8c01461026457600080fd5b80636013b248146101c257806392ab723e146101d55780639e8d3d55146101f6578063a38295961461020957600080fd5b80632af64bd3116100d35780632af64bd31461016f5780633d03b9da146101875780635b0b29301461019c5780635e695dd5146101af57600080fd5b806304f3bcec146101055780630e1b435e1461012a578063160c9a051461015257806329985e5a14610165575b600080fd5b61010d610277565b6040516001600160a01b0390911681526020015b60405180910390f35b61013d6101383660046116d4565b610298565b60408051928352602083019190915201610121565b61013d6101603660046116f8565b6102ee565b61016d61047d565b005b61017761062b565b6040519015158152602001610121565b61018f610791565b6040516101219190611724565b61016d6101aa366004611768565b6107f6565b61016d6101bd3660046117b7565b610a00565b61016d6101d03660046117d9565b610a9b565b6101e86101e336600461181f565b610c8a565b604051908152602001610121565b61016d610204366004611768565b610ca8565b61016d6102173660046116d4565b610e57565b61022f61022a3660046116f8565b610f21565b6040805194855260208501939093529183015215156060820152608001610121565b61016d61025f3660046116d4565b611139565b6101776102723660046116f8565b6112c0565b6000600080516020611a218339815191525b546001600160a01b0316919050565b6000806102a3611326565b6001600160a01b038416600090815260019190910160205260409020546102c8611326565b6001600160a01b0390941660009081526002949094016020526040909320549293915050565b6000806102fa3361134a565b61031f5760405162461bcd60e51b815260040161031690611838565b60405180910390fd5b610327611326565b6001600160a01b03851660009081526001919091016020526040812054925083138015610355575060008212155b8061036c575060008312801561036c575060008213155b6103a95760405162461bcd60e51b815260206004820152600e60248201526d125b9d985b1a5908185b5bdd5b9d60921b6044820152606401610316565b6000831380156103b857508183125b806103cd57506000831280156103cd57508183135b156103d6578291505b811561044f57816103e5611326565b6001016000866001600160a01b03166001600160a01b03168152602001908152602001600020600082825461041a9190611885565b90915550506040518281526000906001600160a01b03861690600080516020611a418339815191529060200160405180910390a35b610457611326565b6001600160a01b0390941660009081526001949094016020525060409092205491929050565b6000610487610791565b905060005b81518110156106265760008282815181106104a9576104a96118c4565b6020026020010151905060006104ca600080516020611a2183398151915290565b54604080517f5265736f6c766572206d697373696e67207461726765743a200000000000000060208201526039808201869052825180830390910181526059820192839052636795dbcd60e01b9092526001600160a01b0390921691636795dbcd9161053b91869190605d01611927565b60206040518083038186803b15801561055357600080fd5b505afa158015610567573d6000803e3d6000fd5b505050506040513d601f19601f8201168201806040525081019061058b9190611948565b60008381527f4abde63c3e81aefa5764b017968bc473e83e093d7e1a10247d19e0a3e4124019602090815260409182902080546001600160a01b0319166001600160a01b03851690811790915582518681529182015281519293507f88a93678a3692f6789d9546fc621bf7234b101ddb7d4fe479455112831b8aa68929081900390910190a15050808061061e90611965565b91505061048c565b505b50565b600080610636610791565b905060005b8151811015610788576000828281518110610658576106586118c4565b60200260200101519050610677600080516020611a2183398151915290565b600082815260019190910160205260409020546001600160a01b0316600080516020611a21833981519152546040516321f8a72160e01b8152600481018490526001600160a01b03909116906321f8a7219060240160206040518083038186803b1580156106e457600080fd5b505afa1580156106f8573d6000803e3d6000fd5b505050506040513d601f19601f8201168201806040525081019061071c9190611948565b6001600160a01b0316141580610766575060008181527f4abde63c3e81aefa5764b017968bc473e83e093d7e1a10247d19e0a3e412401960205260409020546001600160a01b0316155b15610775576000935050505090565b508061078081611965565b91505061063b565b50600191505090565b604080516001808252818301909252606091602080830190803683370190505090507f4c656e64696e674d61726b6574436f6e74726f6c6c6572000000000000000000816000815181106107e7576107e76118c4565b60200260200101818152505090565b6107ff3361134a565b61081b5760405162461bcd60e51b815260040161031690611838565b6001600160a01b03841661087d5760405162461bcd60e51b815260206004820152602360248201527f41646420746f20746865207a65726f2061646472657373206f6620626f72726f6044820152623bb2b960e91b6064820152608401610316565b61088784836112c0565b156108eb5760405162461bcd60e51b815260206004820152602e60248201527f426f72726f7765722068617320746865206675747572652076616c756520696e60448201526d2070617374206d6174757269747960901b6064820152608401610316565b60006108f5611326565b6001600160a01b0386166000908152600191909101602052604090205490508261091d611326565b6001600160a01b03871660009081526002919091016020526040902055610943846113c4565b61094b611326565b6001016000876001600160a01b03166001600160a01b0316815260200190815260200160002060008282546109809190611885565b90915550506001600160a01b0385166000600080516020611a418339815191526109a9876113c4565b6109b290611980565b60405190815260200160405180910390a360006109cd611326565b6001600160a01b0387166000908152600191909101602052604090205490506109f884838386611432565b505050505050565b610a093361134a565b610a255760405162461bcd60e51b815260040161031690611838565b610a2d611326565b6000838152600391909101602052604090205415610a8d5760405162461bcd60e51b815260206004820152601d60248201527f496e697469616c20746f74616c20737570706c79206973206e6f7420300000006044820152606401610316565b610626826000836001611432565b610aa43361134a565b610ac05760405162461bcd60e51b815260040161031690611838565b610aca84826112c0565b15610b2c5760405162461bcd60e51b815260206004820152602c60248201527f53656e6465722068617320746865206675747572652076616c756520696e207060448201526b617374206d6174757269747960a01b6064820152608401610316565b610b3683826112c0565b15610b9a5760405162461bcd60e51b815260206004820152602e60248201527f52656365697665722068617320746865206675747572652076616c756520696e60448201526d2070617374206d6174757269747960901b6064820152608401610316565b80610ba3611326565b6001600160a01b0385166000908152600291909101602052604090205581610bc9611326565b6001016000866001600160a01b03166001600160a01b031681526020019081526020016000206000828254610bfe9190611885565b90915550829050610c0d611326565b6001016000856001600160a01b03166001600160a01b031681526020019081526020016000206000828254610c42919061199d565b92505081905550826001600160a01b0316846001600160a01b0316600080516020611a4183398151915284604051610c7c91815260200190565b60405180910390a350505050565b6000610c94611326565b600092835260030160205250604090205490565b610cb13361134a565b610ccd5760405162461bcd60e51b815260040161031690611838565b6001600160a01b038416610d2d5760405162461bcd60e51b815260206004820152602160248201527f41646420746f20746865207a65726f2061646472657373206f66206c656e64656044820152603960f91b6064820152608401610316565b610d3784836112c0565b15610d995760405162461bcd60e51b815260206004820152602c60248201527f4c656e6465722068617320746865206675747572652076616c756520696e207060448201526b617374206d6174757269747960a01b6064820152608401610316565b6000610da3611326565b6001600160a01b03861660009081526001919091016020526040902054905082610dcb611326565b6001600160a01b03871660009081526002919091016020526040902055610df1846113c4565b610df9611326565b6001016000876001600160a01b03166001600160a01b031681526020019081526020016000206000828254610e2e919061199d565b90915550506001600160a01b0385166000600080516020611a418339815191526109b2876113c4565b610e603361134a565b610e7c5760405162461bcd60e51b815260040161031690611838565b6000610e86611326565b6001600160a01b03831660009081526001919091016020526040902054905080156106265780610eb4611326565b6001016000846001600160a01b03166001600160a01b031681526020019081526020016000206000828254610ee99190611885565b90915550506040518181526000906001600160a01b03841690600080516020611a418339815191529060200160405180910390a35050565b600080600080610f303361134a565b610f4c5760405162461bcd60e51b815260040161031690611838565b610f54611326565b6001600160a01b03871660009081526001919091016020526040902054925084610f7c611326565b6001600160a01b0388166000908152600291909101602052604090205414801590610fa657508215155b156110b857829350610fb6611326565b6001600160a01b038716600090815260029190910160205260408120549250905080841261101d57610fe78461150e565b610fef611326565b6004016000848152602001908152602001600020600082825461101291906119de565b9091555061105f9050565b61102e61102985611980565b61150e565b611036611326565b6005016000848152602001908152602001600020600082825461105991906119de565b90915550505b6000611069611326565b6001600160a01b03881660008181526001929092016020526040808320939093559151909450849190600080516020611a41833981519152906110af9088815260200190565b60405180910390a35b6110c0611326565b600083815260039190910160205260409020546110db611326565b6000848152600491909101602052604090205414801561112e57506110fe611326565b60008381526003919091016020526040902054611119611326565b60008481526005919091016020526040902054145b905092959194509250565b600054610100900460ff16158080156111595750600054600160ff909116105b806111735750303b158015611173575060005460ff166001145b6111d65760405162461bcd60e51b815260206004820152602e60248201527f496e697469616c697a61626c653a20636f6e747261637420697320616c72656160448201526d191e481a5b9a5d1a585b1a5e995960921b6064820152608401610316565b6000805460ff1916600117905580156111f9576000805461ff0019166101001790555b6000611203611560565b6001600160a01b031614156112665760405162461bcd60e51b815260206004820152602360248201527f4d7573742062652063616c6c65642066726f6d20626561636f6e20636f6e74726044820152621858dd60ea1b6064820152608401610316565b61126f82611588565b61127761047d565b8015610626576000805461ff0019169055604051600181527f7f26b83ff96e1f2b6a682f133852f6798a09c465da95921460cefb38474024989060200160405180910390a15050565b6000816112cb611326565b6001600160a01b0385166000908152600291909101602052604090205414156112f657506000611320565b6112fe611326565b6001600160a01b03841660009081526001919091016020526040902054151590505b92915050565b7fd1b4fbfb8f78bdad30892554423aedac9635765ae463e7c2b7953fa50219190e90565b600080611355610791565b905060005b81518110156113ba57611385828281518110611378576113786118c4565b602002602001015161161d565b6001600160a01b0316846001600160a01b031614156113a8575060019392505050565b806113b281611965565b91505061135a565b5060009392505050565b60006001600160ff1b0382111561142e5760405162461bcd60e51b815260206004820152602860248201527f53616665436173743a2076616c756520646f65736e27742066697420696e2061604482015267371034b73a191a9b60c11b6064820152608401610316565b5090565b60008084121561144d5761144861102985611980565b611456565b6114568461150e565b90506000808412156114735761146e61102985611980565b61147c565b61147c8461150e565b9050808211156114c65761149081836119f6565b611498611326565b600301600088815260200190815260200160002060008282546114bb91906119f6565b909155506109f89050565b82156109f8576114d682826119f6565b6114de611326565b6003016000888152602001908152602001600020600082825461150191906119de565b9091555050505050505050565b60008082121561142e5760405162461bcd60e51b815260206004820181905260248201527f53616665436173743a2076616c7565206d75737420626520706f7369746976656044820152606401610316565b60007fa3f0ad74e5423aebfd80d3ef4346578335a9a72aeaee59ff6cb3582b35133d50610289565b600080516020611a21833981519152546001600160a01b0316156115ee5760405162461bcd60e51b815260206004820152601b60248201527f5265736f6c766572207265676973746572656420616c726561647900000000006044820152606401610316565b600080516020611a2183398151915280546001600160a01b0319166001600160a01b0392909216919091179055565b60008181527f4abde63c3e81aefa5764b017968bc473e83e093d7e1a10247d19e0a3e41240196020908152604080832054815170026b4b9b9b4b7339030b2323932b9b99d1607d1b93810193909352603180840186905282518085039091018152605190930190915261132091849184916001600160a01b0390911690816116b85760405162461bcd60e51b81526004016103169190611a0d565b5092915050565b6001600160a01b038116811461062857600080fd5b6000602082840312156116e657600080fd5b81356116f1816116bf565b9392505050565b6000806040838503121561170b57600080fd5b8235611716816116bf565b946020939093013593505050565b6020808252825182820181905260009190848201906040850190845b8181101561175c57835183529284019291840191600101611740565b50909695505050505050565b6000806000806080858703121561177e57600080fd5b8435611789816116bf565b93506020850135925060408501359150606085013580151581146117ac57600080fd5b939692955090935050565b600080604083850312156117ca57600080fd5b50508035926020909101359150565b600080600080608085870312156117ef57600080fd5b84356117fa816116bf565b9350602085013561180a816116bf565b93969395505050506040820135916060013590565b60006020828403121561183157600080fd5b5035919050565b60208082526017908201527f4f6e6c7920416363657074656420436f6e747261637473000000000000000000604082015260600190565b634e487b7160e01b600052601160045260246000fd5b60008083128015600160ff1b8501841216156118a3576118a361186f565b6001600160ff1b03840183138116156118be576118be61186f565b50500390565b634e487b7160e01b600052603260045260246000fd5b6000815180845260005b81811015611900576020818501810151868301820152016118e4565b81811115611912576000602083870101525b50601f01601f19169290920160200192915050565b82815260406020820152600061194060408301846118da565b949350505050565b60006020828403121561195a57600080fd5b81516116f1816116bf565b60006000198214156119795761197961186f565b5060010190565b6000600160ff1b8214156119965761199661186f565b5060000390565b600080821280156001600160ff1b03849003851316156119bf576119bf61186f565b600160ff1b83900384128116156119d8576119d861186f565b50500190565b600082198211156119f1576119f161186f565b500190565b600082821015611a0857611a0861186f565b500390565b6020815260006116f160208301846118da56fe4abde63c3e81aefa5764b017968bc473e83e093d7e1a10247d19e0a3e41240188b0c34a52f9e28d78caaa7066cd047b398dae74941a208b77777420f492bd7e1a2646970667358221220dc15f82bb4fa06da6a3b985295a1a8df6c3eab5d6b7646ebdbaf0136ae99d84a64736f6c63430008090033",
  "devdoc": {
    "kind": "dev",
    "methods": {
      "acceptedContracts()": {
        "details": "The contact name listed in this method is also needed to be listed `requiredContracts` method."
      },
      "addBorrowFutureValue(address,uint256,uint256,bool)": {
        "details": "Since the total supply can be determined by totaling only the amounts on one side of the order when the order is fulfilled, the total supply is incremented only when the executor of the original order is the taker.",
        "params": {
          "_amount": "The amount to add",
          "_isTaker": "The boolean if the original order is created by a taker",
          "_maturity": "The maturity of the market",
          "_user": "User's address"
        }
      },
      "addInitialTotalSupply(uint256,int256)": {
        "params": {
          "_amount": "The amount to add",
          "_maturity": "The maturity of the market"
        }
      },
      "addLendFutureValue(address,uint256,uint256,bool)": {
        "details": "Since the total supply can be determined by totaling only the amounts on one side of the order when the order is fulfilled, the total supply is incremented only when the executor of the original order is the taker.",
        "params": {
          "_amount": "The amount to add",
          "_isTaker": "The boolean if the original order is created by a taker",
          "_maturity": "The maturity of the market",
          "_user": "User's address"
        }
      },
      "executeForcedReset(address)": {
        "params": {
          "_user": "User's address"
        }
      },
      "executeForcedReset(address,int256)": {
        "params": {
          "_amount": "The amount to reset",
          "_user": "User's address"
        }
      },
      "getFutureValue(address)": {
        "params": {
          "_user": "User's address"
        },
        "returns": {
          "futureValue": "The future value",
          "maturity": "The maturity of the market that the future value was added"
        }
      },
      "getTotalSupply(uint256)": {
        "params": {
          "_maturity": "The maturity of the market"
        }
      },
      "hasFutureValueInPastMaturity(address,uint256)": {
        "params": {
          "_maturity": "The maturity of the market",
          "_user": "User's address"
        },
        "returns": {
          "_0": "The boolean if the lending market is initialized or not"
        }
      },
      "initialize(address)": {
        "details": "Function is invoked by the proxy contract when the contract is added to the ProxyController.",
        "params": {
          "_resolver": "The address of the Address Resolver contract"
        }
      },
      "removeFutureValue(address,uint256)": {
        "params": {
          "_user": "User's address"
        },
        "returns": {
          "currentAmount": "Current future value amount after update",
          "isAllRemoved": "The boolean if the all future value amount in the selected maturity is removed",
          "maturity": "Maturity of future value",
          "removedAmount": "Removed future value amount"
        }
      },
      "requiredContracts()": {
        "details": "The contract name list is in `./libraries/Contracts.sol`."
      },
      "transferFrom(address,address,int256,uint256)": {
        "params": {
          "_amount": "Amount of funds to sent",
          "_maturity": "The maturity of the market",
          "_receiver": "Receiver's address",
          "_sender": "Sender's address"
        }
      }
    },
    "version": 1
  },
  "userdoc": {
    "kind": "user",
    "methods": {
      "acceptedContracts()": {
        "notice": "Returns contract names that can call this contract."
      },
      "addBorrowFutureValue(address,uint256,uint256,bool)": {
        "notice": "Adds the future value amount for borrowing deals."
      },
      "addInitialTotalSupply(uint256,int256)": {
        "notice": "Adds initial total supply at market opening"
      },
      "addLendFutureValue(address,uint256,uint256,bool)": {
        "notice": "Adds the future value amount for lending deals."
      },
      "executeForcedReset(address)": {
        "notice": "Forces a reset of the user's future value."
      },
      "executeForcedReset(address,int256)": {
        "notice": "Forces a reset of the user's future value."
      },
      "getFutureValue(address)": {
        "notice": "Gets the future value of the account."
      },
      "getTotalSupply(uint256)": {
        "notice": "Gets the total supply."
      },
      "hasFutureValueInPastMaturity(address,uint256)": {
        "notice": "Gets if the account has the future value amount in the selected maturity."
      },
      "initialize(address)": {
        "notice": "Initializes the contract."
      },
      "removeFutureValue(address,uint256)": {
        "notice": "Removes all future values if there is an amount in the past maturity."
      },
      "requiredContracts()": {
        "notice": "Returns the contract names used in this contract."
      },
      "transferFrom(address,address,int256,uint256)": {
        "notice": "Transfers the future value from sender to receiver."
      }
    },
    "notice": "Implements the management of the future value as an amount for Lending deals in each currency.",
    "version": 1
  },
  "storageLayout": {
    "storage": [
      {
        "astId": 995,
        "contract": "contracts/protocol/FutureValueVault.sol:FutureValueVault",
        "label": "_initialized",
        "offset": 0,
        "slot": "0",
        "type": "t_uint8"
      },
      {
        "astId": 998,
        "contract": "contracts/protocol/FutureValueVault.sol:FutureValueVault",
        "label": "_initializing",
        "offset": 1,
        "slot": "0",
        "type": "t_bool"
      }
    ],
    "types": {
      "t_bool": {
        "encoding": "inplace",
        "label": "bool",
        "numberOfBytes": "1"
      },
      "t_uint8": {
        "encoding": "inplace",
        "label": "uint8",
        "numberOfBytes": "1"
      }
    }
  }
}