{
  "address": "0x411430417e56eE563eC69e5172cB19c130f21571",
  "abi": [
    {
      "anonymous": false,
      "inputs": [
        {
          "indexed": false,
          "internalType": "bytes32",
          "name": "name",
          "type": "bytes32"
        },
        {
          "indexed": false,
          "internalType": "address",
          "name": "destination",
          "type": "address"
        }
      ],
      "name": "CacheUpdated",
      "type": "event"
    },
    {
      "anonymous": false,
      "inputs": [
        {
          "indexed": false,
          "internalType": "uint8",
          "name": "version",
          "type": "uint8"
        }
      ],
      "name": "Initialized",
      "type": "event"
    },
    {
      "anonymous": false,
      "inputs": [
        {
          "indexed": true,
          "internalType": "address",
          "name": "from",
          "type": "address"
        },
        {
          "indexed": true,
          "internalType": "address",
          "name": "to",
          "type": "address"
        },
        {
          "indexed": false,
          "internalType": "int256",
          "name": "value",
          "type": "int256"
        }
      ],
      "name": "Transfer",
      "type": "event"
    },
    {
      "inputs": [],
      "name": "acceptedContracts",
      "outputs": [
        {
          "internalType": "bytes32[]",
          "name": "contracts",
          "type": "bytes32[]"
        }
      ],
      "stateMutability": "pure",
      "type": "function"
    },
    {
      "inputs": [
        {
          "internalType": "address",
          "name": "_user",
          "type": "address"
        },
        {
          "internalType": "uint256",
          "name": "_amount",
          "type": "uint256"
        },
        {
          "internalType": "uint256",
          "name": "_maturity",
          "type": "uint256"
        }
      ],
      "name": "addBorrowFutureValue",
      "outputs": [
        {
          "internalType": "bool",
          "name": "",
          "type": "bool"
        }
      ],
      "stateMutability": "nonpayable",
      "type": "function"
    },
    {
      "inputs": [
        {
          "internalType": "address",
          "name": "_user",
          "type": "address"
        },
        {
          "internalType": "uint256",
          "name": "_amount",
          "type": "uint256"
        },
        {
          "internalType": "uint256",
          "name": "_maturity",
          "type": "uint256"
        }
      ],
      "name": "addLendFutureValue",
      "outputs": [
        {
          "internalType": "bool",
          "name": "",
          "type": "bool"
        }
      ],
      "stateMutability": "nonpayable",
      "type": "function"
    },
    {
      "inputs": [],
      "name": "buildCache",
      "outputs": [],
      "stateMutability": "nonpayable",
      "type": "function"
    },
    {
      "inputs": [
        {
          "internalType": "address",
          "name": "_user",
          "type": "address"
        }
      ],
      "name": "getFutureValue",
      "outputs": [
        {
          "internalType": "int256",
          "name": "futureValue",
          "type": "int256"
        },
        {
          "internalType": "uint256",
          "name": "maturity",
          "type": "uint256"
        }
      ],
      "stateMutability": "view",
      "type": "function"
    },
    {
      "inputs": [
        {
          "internalType": "uint256",
          "name": "_maturity",
          "type": "uint256"
        }
      ],
      "name": "getTotalBorrowingSupply",
      "outputs": [
        {
          "internalType": "uint256",
          "name": "",
          "type": "uint256"
        }
      ],
      "stateMutability": "view",
      "type": "function"
    },
    {
      "inputs": [
        {
          "internalType": "uint256",
          "name": "_maturity",
          "type": "uint256"
        }
      ],
      "name": "getTotalLendingSupply",
      "outputs": [
        {
          "internalType": "uint256",
          "name": "",
          "type": "uint256"
        }
      ],
      "stateMutability": "view",
      "type": "function"
    },
    {
      "inputs": [
        {
          "internalType": "address",
          "name": "_user",
          "type": "address"
        },
        {
          "internalType": "uint256",
          "name": "_maturity",
          "type": "uint256"
        }
      ],
      "name": "hasFutureValueInPastMaturity",
      "outputs": [
        {
          "internalType": "bool",
          "name": "",
          "type": "bool"
        }
      ],
      "stateMutability": "view",
      "type": "function"
    },
    {
      "inputs": [
        {
          "internalType": "address",
          "name": "_resolver",
          "type": "address"
        }
      ],
      "name": "initialize",
      "outputs": [],
      "stateMutability": "nonpayable",
      "type": "function"
    },
    {
      "inputs": [],
      "name": "isResolverCached",
      "outputs": [
        {
          "internalType": "bool",
          "name": "",
          "type": "bool"
        }
      ],
      "stateMutability": "view",
      "type": "function"
    },
    {
      "inputs": [
        {
          "internalType": "address",
          "name": "_user",
          "type": "address"
        },
        {
          "internalType": "uint256",
          "name": "_activeMaturity",
          "type": "uint256"
        }
      ],
      "name": "removeFutureValue",
      "outputs": [
        {
          "internalType": "int256",
          "name": "removedAmount",
          "type": "int256"
        },
        {
          "internalType": "int256",
          "name": "currentAmount",
          "type": "int256"
        },
        {
          "internalType": "uint256",
          "name": "maturity",
          "type": "uint256"
        }
      ],
      "stateMutability": "nonpayable",
      "type": "function"
    },
    {
      "inputs": [],
      "name": "requiredContracts",
      "outputs": [
        {
          "internalType": "bytes32[]",
          "name": "contracts",
          "type": "bytes32[]"
        }
      ],
      "stateMutability": "pure",
      "type": "function"
    },
    {
      "inputs": [],
      "name": "resolver",
      "outputs": [
        {
          "internalType": "contract IAddressResolver",
          "name": "",
          "type": "address"
        }
      ],
      "stateMutability": "view",
      "type": "function"
    }
  ],
  "transactionHash": "0x795c19a365d443a66d0303d879d859c2a7481fc599b8446f747298b47413abe2",
  "args": [],
  "numDeployments": 1,
  "solcInputHash": "87cfba3f2a70cb5f9aac2e4a848dedef",
  "bytecode": "0x608060405234801561001057600080fd5b5061129e806100206000396000f3fe608060405234801561001057600080fd5b50600436106100cf5760003560e01c80633d03b9da1161008c578063ae100e6d11610066578063ae100e6d146101b2578063c4d66de8146101e0578063e099765914610177578063e224e8c0146101f357600080fd5b80633d03b9da14610177578063870febf01461018c578063a46971ad1461019f57600080fd5b806304f3bcec146100d457806308482e5e146100f95780630e1b435e1461011c57806317e2d96a1461014457806329985e5a146101655780632af64bd31461016f575b600080fd5b6100dc610206565b6040516001600160a01b0390911681526020015b60405180910390f35b61010c610107366004610f7e565b610227565b60405190151581526020016100f0565b61012f61012a366004610fb3565b61040a565b604080519283526020830191909152016100f0565b610157610152366004610fd7565b610460565b6040519081526020016100f0565b61016d61047e565b005b61010c61062b565b61017f610791565b6040516100f09190610ff0565b61015761019a366004610fd7565b6107f6565b61010c6101ad366004610f7e565b610814565b6101c56101c0366004611034565b6109ea565b604080519384526020840192909252908201526060016100f0565b61016d6101ee366004610fb3565b610b86565b61010c610201366004611034565b610d0d565b60006000805160206112498339815191525b546001600160a01b0316919050565b600061023233610d73565b6102575760405162461bcd60e51b815260040161024e90611060565b60405180910390fd5b6001600160a01b0384166102b75760405162461bcd60e51b815260206004820152602160248201527f61646420746f20746865207a65726f2061646472657373206f66206c656e64656044820152603960f91b606482015260840161024e565b6102c18483610d0d565b156103235760405162461bcd60e51b815260206004820152602c60248201527f6c656e6465722068617320746865206675747572652076616c756520696e207060448201526b617374206d6174757269747960a01b606482015260840161024e565b8161032c610ded565b6001600160a01b0386166000908152600291909101602052604090205582610352610ded565b6003016000848152602001908152602001600020600082825461037591906110ad565b90915550839050610384610ded565b6001016000866001600160a01b03166001600160a01b0316815260200190815260200160002060008282546103b991906110c5565b90915550506040518381526001600160a01b038516906000907f8b0c34a52f9e28d78caaa7066cd047b398dae74941a208b77777420f492bd7e1906020015b60405180910390a35060019392505050565b600080610415610ded565b6001600160a01b0384166000908152600191909101602052604090205461043a610ded565b6001600160a01b0390941660009081526002949094016020526040909320549293915050565b600061046a610ded565b600092835260030160205250604090205490565b6000610488610791565b905060005b81518110156106275760008282815181106104aa576104aa611106565b6020026020010151905060006104cb60008051602061124983398151915290565b54604080517f5265736f6c766572206d697373696e67207461726765743a200000000000000060208201526039808201869052825180830390910181526059820192839052636795dbcd60e01b9092526001600160a01b0390921691636795dbcd9161053c91869190605d01611169565b60206040518083038186803b15801561055457600080fd5b505afa158015610568573d6000803e3d6000fd5b505050506040513d601f19601f8201168201806040525081019061058c919061118a565b60008381527f4abde63c3e81aefa5764b017968bc473e83e093d7e1a10247d19e0a3e4124019602090815260409182902080546001600160a01b0319166001600160a01b03851690811790915582518681529182015281519293507f88a93678a3692f6789d9546fc621bf7234b101ddb7d4fe479455112831b8aa68929081900390910190a15050808061061f906111a7565b91505061048d565b5050565b600080610636610791565b905060005b815181101561078857600082828151811061065857610658611106565b6020026020010151905061067760008051602061124983398151915290565b600082815260019190910160205260409020546001600160a01b0316600080516020611249833981519152546040516321f8a72160e01b8152600481018490526001600160a01b03909116906321f8a7219060240160206040518083038186803b1580156106e457600080fd5b505afa1580156106f8573d6000803e3d6000fd5b505050506040513d601f19601f8201168201806040525081019061071c919061118a565b6001600160a01b0316141580610766575060008181527f4abde63c3e81aefa5764b017968bc473e83e093d7e1a10247d19e0a3e412401960205260409020546001600160a01b0316155b15610775576000935050505090565b5080610780816111a7565b91505061063b565b50600191505090565b604080516001808252818301909252606091602080830190803683370190505090507f4c656e64696e674d61726b6574436f6e74726f6c6c6572000000000000000000816000815181106107e7576107e7611106565b60200260200101818152505090565b6000610800610ded565b600092835260040160205250604090205490565b600061081f33610d73565b61083b5760405162461bcd60e51b815260040161024e90611060565b6001600160a01b03841661089d5760405162461bcd60e51b815260206004820152602360248201527f61646420746f20746865207a65726f2061646472657373206f6620626f72726f6044820152623bb2b960e91b606482015260840161024e565b6108a78483610d0d565b1561090b5760405162461bcd60e51b815260206004820152602e60248201527f626f72726f7765722068617320746865206675747572652076616c756520696e60448201526d2070617374206d6174757269747960901b606482015260840161024e565b81610914610ded565b6001600160a01b038616600090815260029190910160205260409020558261093a610ded565b6004016000848152602001908152602001600020600082825461095d91906110ad565b9091555083905061096c610ded565b6001016000866001600160a01b03166001600160a01b0316815260200190815260200160002060008282546109a191906111c2565b90915550506001600160a01b03841660007f8b0c34a52f9e28d78caaa7066cd047b398dae74941a208b77777420f492bd7e16109dc86611201565b6040519081526020016103f8565b60008060006109f833610d73565b610a145760405162461bcd60e51b815260040161024e90611060565b610a1c610ded565b6001600160a01b03861660009081526001919091016020526040902054915083610a44610ded565b6001600160a01b0387166000908152600291909101602052604090205414801590610a6e57508115155b15610b7f57819250610a7e610ded565b6001600160a01b0386166000908152600291909101602052604081205491508312610ada5782610aac610ded565b60030160008381526020019081526020016000206000828254610acf919061121e565b90915550610b149050565b610ae383611201565b610aeb610ded565b60040160008381526020019081526020016000206000828254610b0e919061121e565b90915550505b6000610b1e610ded565b6001600160a01b038716600081815260019290920160205260408083209390935591519093508391907f8b0c34a52f9e28d78caaa7066cd047b398dae74941a208b77777420f492bd7e190610b769087815260200190565b60405180910390a35b9250925092565b600054610100900460ff1615808015610ba65750600054600160ff909116105b80610bc05750303b158015610bc0575060005460ff166001145b610c235760405162461bcd60e51b815260206004820152602e60248201527f496e697469616c697a61626c653a20636f6e747261637420697320616c72656160448201526d191e481a5b9a5d1a585b1a5e995960921b606482015260840161024e565b6000805460ff191660011790558015610c46576000805461ff0019166101001790555b6000610c50610e11565b6001600160a01b03161415610cb35760405162461bcd60e51b815260206004820152602360248201527f4d7573742062652063616c6c65642066726f6d20626561636f6e20636f6e74726044820152621858dd60ea1b606482015260840161024e565b610cbc82610e39565b610cc461047e565b8015610627576000805461ff0019169055604051600181527f7f26b83ff96e1f2b6a682f133852f6798a09c465da95921460cefb38474024989060200160405180910390a15050565b600081610d18610ded565b6001600160a01b038516600090815260029190910160205260409020541415610d4357506000610d6d565b610d4b610ded565b6001600160a01b03841660009081526001919091016020526040902054151590505b92915050565b600080610d7e610791565b905060005b8151811015610de357610dae828281518110610da157610da1611106565b6020026020010151610ece565b6001600160a01b0316846001600160a01b03161415610dd1575060019392505050565b80610ddb816111a7565b915050610d83565b5060009392505050565b7fd1b4fbfb8f78bdad30892554423aedac9635765ae463e7c2b7953fa50219190e90565b60007fa3f0ad74e5423aebfd80d3ef4346578335a9a72aeaee59ff6cb3582b35133d50610218565b600080516020611249833981519152546001600160a01b031615610e9f5760405162461bcd60e51b815260206004820152601b60248201527f7265736f6c766572207265676973746572656420616c72656164790000000000604482015260640161024e565b60008051602061124983398151915280546001600160a01b0319166001600160a01b0392909216919091179055565b60008181527f4abde63c3e81aefa5764b017968bc473e83e093d7e1a10247d19e0a3e41240196020908152604080832054815170026b4b9b9b4b7339030b2323932b9b99d1607d1b9381019390935260318084018690528251808503909101815260519093019091526001600160a01b03169081610f5f5760405162461bcd60e51b815260040161024e9190611235565b5092915050565b6001600160a01b0381168114610f7b57600080fd5b50565b600080600060608486031215610f9357600080fd5b8335610f9e81610f66565b95602085013595506040909401359392505050565b600060208284031215610fc557600080fd5b8135610fd081610f66565b9392505050565b600060208284031215610fe957600080fd5b5035919050565b6020808252825182820181905260009190848201906040850190845b818110156110285783518352928401929184019160010161100c565b50909695505050505050565b6000806040838503121561104757600080fd5b823561105281610f66565b946020939093013593505050565b60208082526017908201527f4f6e6c7920416363657074656420436f6e747261637473000000000000000000604082015260600190565b634e487b7160e01b600052601160045260246000fd5b600082198211156110c0576110c0611097565b500190565b600080821280156001600160ff1b03849003851316156110e7576110e7611097565b600160ff1b839003841281161561110057611100611097565b50500190565b634e487b7160e01b600052603260045260246000fd5b6000815180845260005b8181101561114257602081850181015186830182015201611126565b81811115611154576000602083870101525b50601f01601f19169290920160200192915050565b828152604060208201526000611182604083018461111c565b949350505050565b60006020828403121561119c57600080fd5b8151610fd081610f66565b60006000198214156111bb576111bb611097565b5060010190565b60008083128015600160ff1b8501841216156111e0576111e0611097565b6001600160ff1b03840183138116156111fb576111fb611097565b50500390565b6000600160ff1b82141561121757611217611097565b5060000390565b60008282101561123057611230611097565b500390565b602081526000610fd0602083018461111c56fe4abde63c3e81aefa5764b017968bc473e83e093d7e1a10247d19e0a3e4124018a26469706673582212206df3812ef1a9695f0f4f0d36e069b7ad7333410730de51ca9aaad6b05e23e50864736f6c63430008090033",
  "devdoc": {
    "kind": "dev",
    "methods": {
      "acceptedContracts()": {
        "details": "The contact name listed in this method is also needed to be listed `requiredContracts` method."
      },
      "addBorrowFutureValue(address,uint256,uint256)": {
        "params": {
          "_amount": "The amount to add",
          "_maturity": "The maturity of the market",
          "_user": "User's address"
        }
      },
      "addLendFutureValue(address,uint256,uint256)": {
        "params": {
          "_amount": "The amount to add",
          "_maturity": "The maturity of the market",
          "_user": "User's address"
        }
      },
      "getFutureValue(address)": {
        "params": {
          "_user": "User's address"
        },
        "returns": {
          "futureValue": "The future value",
          "maturity": "The maturity of the market that the future value was added"
        }
      },
      "getTotalBorrowingSupply(uint256)": {
        "params": {
          "_maturity": "The maturity of the market"
        }
      },
      "getTotalLendingSupply(uint256)": {
        "params": {
          "_maturity": "The maturity of the market"
        }
      },
      "hasFutureValueInPastMaturity(address,uint256)": {
        "params": {
          "_maturity": "The maturity of the market",
          "_user": "User's address"
        },
        "returns": {
          "_0": "The boolean if the lending market is initialized or not"
        }
      },
      "initialize(address)": {
        "details": "Function is invoked by the proxy contract when the contract is added to the ProxyController.",
        "params": {
          "_resolver": "The address of the Address Resolver contract"
        }
      },
      "removeFutureValue(address,uint256)": {
        "params": {
          "_user": "User's address"
        },
        "returns": {
          "currentAmount": "Current future value amount after update",
          "maturity": "Maturity of future value",
          "removedAmount": "Removed future value amount"
        }
      },
      "requiredContracts()": {
        "details": "The contract name list is in `./libraries/Contracts.sol`."
      }
    },
    "version": 1
  },
  "userdoc": {
    "kind": "user",
    "methods": {
      "acceptedContracts()": {
        "notice": "Returns contract names that can call this contract."
      },
      "addBorrowFutureValue(address,uint256,uint256)": {
        "notice": "Adds the future value amount for borrowing deals."
      },
      "addLendFutureValue(address,uint256,uint256)": {
        "notice": "Adds the future value amount for lending deals."
      },
      "getFutureValue(address)": {
        "notice": "Gets the future value of the account."
      },
      "getTotalBorrowingSupply(uint256)": {
        "notice": "Gets the total borrowing supply."
      },
      "getTotalLendingSupply(uint256)": {
        "notice": "Gets the total lending supply."
      },
      "hasFutureValueInPastMaturity(address,uint256)": {
        "notice": "Gets if the account has the future value amount in the selected maturity."
      },
      "initialize(address)": {
        "notice": "Initializes the contract."
      },
      "removeFutureValue(address,uint256)": {
        "notice": "Remove all future values if there is an amount in the past maturity."
      },
      "requiredContracts()": {
        "notice": "Returns the contract names used in this contract."
      }
    },
    "notice": "Implements the management of the future value as an amount for Lending deals in each currency.",
    "version": 1
  },
  "storageLayout": {
    "storage": [
      {
        "astId": 790,
        "contract": "contracts/FutureValueVault.sol:FutureValueVault",
        "label": "_initialized",
        "offset": 0,
        "slot": "0",
        "type": "t_uint8"
      },
      {
        "astId": 793,
        "contract": "contracts/FutureValueVault.sol:FutureValueVault",
        "label": "_initializing",
        "offset": 1,
        "slot": "0",
        "type": "t_bool"
      }
    ],
    "types": {
      "t_bool": {
        "encoding": "inplace",
        "label": "bool",
        "numberOfBytes": "1"
      },
      "t_uint8": {
        "encoding": "inplace",
        "label": "uint8",
        "numberOfBytes": "1"
      }
    }
  }
}