{
  "address": "0xbBB83E0986099DD33a71b4C68400c2771cb39A88",
  "abi": [
    {
      "anonymous": false,
      "inputs": [
        {
          "indexed": true,
          "internalType": "bytes32",
          "name": "ccy",
          "type": "bytes32"
        },
        {
          "indexed": false,
          "internalType": "uint256",
          "name": "lendingCompoundFactor",
          "type": "uint256"
        },
        {
          "indexed": false,
          "internalType": "uint256",
          "name": "borrowingCompoundFactor",
          "type": "uint256"
        },
        {
          "indexed": false,
          "internalType": "uint256",
          "name": "unitPrice",
          "type": "uint256"
        },
        {
          "indexed": false,
          "internalType": "uint256",
          "name": "currentMaturity",
          "type": "uint256"
        },
        {
          "indexed": false,
          "internalType": "uint256",
          "name": "previousMaturity",
          "type": "uint256"
        }
      ],
      "name": "AutoRollExecuted",
      "type": "event"
    },
    {
      "anonymous": false,
      "inputs": [
        {
          "indexed": false,
          "internalType": "bytes32",
          "name": "name",
          "type": "bytes32"
        },
        {
          "indexed": false,
          "internalType": "address",
          "name": "destination",
          "type": "address"
        }
      ],
      "name": "CacheUpdated",
      "type": "event"
    },
    {
      "anonymous": false,
      "inputs": [
        {
          "indexed": false,
          "internalType": "uint8",
          "name": "version",
          "type": "uint8"
        }
      ],
      "name": "Initialized",
      "type": "event"
    },
    {
      "anonymous": false,
      "inputs": [
        {
          "indexed": true,
          "internalType": "bytes32",
          "name": "ccy",
          "type": "bytes32"
        },
        {
          "indexed": true,
          "internalType": "address",
          "name": "from",
          "type": "address"
        },
        {
          "indexed": true,
          "internalType": "address",
          "name": "to",
          "type": "address"
        },
        {
          "indexed": false,
          "internalType": "int256",
          "name": "value",
          "type": "int256"
        }
      ],
      "name": "Transfer",
      "type": "event"
    },
    {
      "inputs": [],
      "name": "acceptedContracts",
      "outputs": [
        {
          "internalType": "bytes32[]",
          "name": "contracts",
          "type": "bytes32[]"
        }
      ],
      "stateMutability": "pure",
      "type": "function"
    },
    {
      "inputs": [],
      "name": "buildCache",
      "outputs": [],
      "stateMutability": "nonpayable",
      "type": "function"
    },
    {
      "inputs": [
        {
          "internalType": "bytes32",
          "name": "_ccy",
          "type": "bytes32"
        },
        {
          "internalType": "int256",
          "name": "_balance",
          "type": "int256"
        },
        {
          "internalType": "uint256",
          "name": "_fromMaturity",
          "type": "uint256"
        },
        {
          "internalType": "uint256",
          "name": "_toMaturity",
          "type": "uint256"
        }
      ],
      "name": "calculateBalanceFluctuationByAutoRolls",
      "outputs": [
        {
          "internalType": "int256",
          "name": "fluctuation",
          "type": "int256"
        }
      ],
      "stateMutability": "view",
      "type": "function"
    },
    {
      "inputs": [
        {
          "internalType": "bytes32",
          "name": "_ccy",
          "type": "bytes32"
        },
        {
          "internalType": "uint256",
          "name": "_basisMaturity",
          "type": "uint256"
        },
        {
          "internalType": "uint256",
          "name": "_destinationMaturity",
          "type": "uint256"
        },
        {
          "internalType": "int256",
          "name": "_futureValue",
          "type": "int256"
        }
      ],
      "name": "calculateFVFromFV",
      "outputs": [
        {
          "internalType": "int256",
          "name": "",
          "type": "int256"
        }
      ],
      "stateMutability": "view",
      "type": "function"
    },
    {
      "inputs": [
        {
          "internalType": "bytes32",
          "name": "_ccy",
          "type": "bytes32"
        },
        {
          "internalType": "uint256",
          "name": "_basisMaturity",
          "type": "uint256"
        },
        {
          "internalType": "int256",
          "name": "_genesisValue",
          "type": "int256"
        }
      ],
      "name": "calculateFVFromGV",
      "outputs": [
        {
          "internalType": "int256",
          "name": "",
          "type": "int256"
        }
      ],
      "stateMutability": "view",
      "type": "function"
    },
    {
      "inputs": [
        {
          "internalType": "bytes32",
          "name": "_ccy",
          "type": "bytes32"
        },
        {
          "internalType": "uint256",
          "name": "_basisMaturity",
          "type": "uint256"
        },
        {
          "internalType": "int256",
          "name": "_futureValue",
          "type": "int256"
        }
      ],
      "name": "calculateGVFromFV",
      "outputs": [
        {
          "internalType": "int256",
          "name": "",
          "type": "int256"
        }
      ],
      "stateMutability": "view",
      "type": "function"
    },
    {
      "inputs": [
        {
          "internalType": "bytes32",
          "name": "_ccy",
          "type": "bytes32"
        },
        {
          "internalType": "address",
          "name": "_user",
          "type": "address"
        },
        {
          "internalType": "uint256",
          "name": "_maturity",
          "type": "uint256"
        }
      ],
      "name": "cleanUpBalance",
      "outputs": [],
      "stateMutability": "nonpayable",
      "type": "function"
    },
    {
      "inputs": [
        {
          "internalType": "bytes32",
          "name": "_ccy",
          "type": "bytes32"
        }
      ],
      "name": "decimals",
      "outputs": [
        {
          "internalType": "uint8",
          "name": "",
          "type": "uint8"
        }
      ],
      "stateMutability": "view",
      "type": "function"
    },
    {
      "inputs": [
        {
          "internalType": "bytes32",
          "name": "_ccy",
          "type": "bytes32"
        },
        {
          "internalType": "uint256",
          "name": "_maturity",
          "type": "uint256"
        },
        {
          "internalType": "uint256",
          "name": "_nextMaturity",
          "type": "uint256"
        },
        {
          "internalType": "uint256",
          "name": "_unitPrice",
          "type": "uint256"
        },
        {
          "internalType": "uint256",
          "name": "_orderFeeRate",
          "type": "uint256"
        }
      ],
      "name": "executeAutoRoll",
      "outputs": [],
      "stateMutability": "nonpayable",
      "type": "function"
    },
    {
      "inputs": [
        {
          "internalType": "bytes32",
          "name": "_ccy",
          "type": "bytes32"
        },
        {
          "internalType": "uint256",
          "name": "_maturity",
          "type": "uint256"
        },
        {
          "internalType": "address",
          "name": "_user",
          "type": "address"
        },
        {
          "internalType": "int256",
          "name": "_amountInFV",
          "type": "int256"
        }
      ],
      "name": "executeForcedReset",
      "outputs": [
        {
          "internalType": "int256",
          "name": "removedAmountInFV",
          "type": "int256"
        },
        {
          "internalType": "int256",
          "name": "balance",
          "type": "int256"
        }
      ],
      "stateMutability": "nonpayable",
      "type": "function"
    },
    {
      "inputs": [
        {
          "internalType": "bytes32",
          "name": "_ccy",
          "type": "bytes32"
        },
        {
          "internalType": "address",
          "name": "_user",
          "type": "address"
        }
      ],
      "name": "executeForcedReset",
      "outputs": [],
      "stateMutability": "nonpayable",
      "type": "function"
    },
    {
      "inputs": [
        {
          "internalType": "bytes32",
          "name": "_ccy",
          "type": "bytes32"
        },
        {
          "internalType": "uint256",
          "name": "_maturity",
          "type": "uint256"
        }
      ],
      "name": "getAutoRollLog",
      "outputs": [
        {
          "components": [
            {
              "internalType": "uint256",
              "name": "unitPrice",
              "type": "uint256"
            },
            {
              "internalType": "uint256",
              "name": "lendingCompoundFactor",
              "type": "uint256"
            },
            {
              "internalType": "uint256",
              "name": "borrowingCompoundFactor",
              "type": "uint256"
            },
            {
              "internalType": "uint256",
              "name": "next",
              "type": "uint256"
            },
            {
              "internalType": "uint256",
              "name": "prev",
              "type": "uint256"
            }
          ],
          "internalType": "struct AutoRollLog",
          "name": "",
          "type": "tuple"
        }
      ],
      "stateMutability": "view",
      "type": "function"
    },
    {
      "inputs": [
        {
          "internalType": "bytes32",
          "name": "_ccy",
          "type": "bytes32"
        },
        {
          "internalType": "address",
          "name": "_user",
          "type": "address"
        }
      ],
      "name": "getBalance",
      "outputs": [
        {
          "internalType": "int256",
          "name": "",
          "type": "int256"
        }
      ],
      "stateMutability": "view",
      "type": "function"
    },
    {
      "inputs": [
        {
          "internalType": "bytes32",
          "name": "_ccy",
          "type": "bytes32"
        },
        {
          "internalType": "address",
          "name": "_user",
          "type": "address"
        },
        {
          "internalType": "uint256",
          "name": "_maturity",
          "type": "uint256"
        }
      ],
      "name": "getBalanceFluctuationByAutoRolls",
      "outputs": [
        {
          "internalType": "int256",
          "name": "fluctuation",
          "type": "int256"
        }
      ],
      "stateMutability": "view",
      "type": "function"
    },
    {
      "inputs": [
        {
          "internalType": "bytes32",
          "name": "_ccy",
          "type": "bytes32"
        },
        {
          "internalType": "address",
          "name": "_user",
          "type": "address"
        }
      ],
      "name": "getBalanceInFutureValue",
      "outputs": [
        {
          "internalType": "int256",
          "name": "",
          "type": "int256"
        }
      ],
      "stateMutability": "view",
      "type": "function"
    },
    {
      "inputs": [
        {
          "internalType": "bytes32",
          "name": "_ccy",
          "type": "bytes32"
        }
      ],
      "name": "getBorrowingCompoundFactor",
      "outputs": [
        {
          "internalType": "uint256",
          "name": "",
          "type": "uint256"
        }
      ],
      "stateMutability": "view",
      "type": "function"
    },
    {
      "inputs": [
        {
          "internalType": "bytes32",
          "name": "_ccy",
          "type": "bytes32"
        }
      ],
      "name": "getCurrentMaturity",
      "outputs": [
        {
          "internalType": "uint256",
          "name": "",
          "type": "uint256"
        }
      ],
      "stateMutability": "view",
      "type": "function"
    },
    {
      "inputs": [
        {
          "internalType": "bytes32",
          "name": "_ccy",
          "type": "bytes32"
        }
      ],
      "name": "getLatestAutoRollLog",
      "outputs": [
        {
          "components": [
            {
              "internalType": "uint256",
              "name": "unitPrice",
              "type": "uint256"
            },
            {
              "internalType": "uint256",
              "name": "lendingCompoundFactor",
              "type": "uint256"
            },
            {
              "internalType": "uint256",
              "name": "borrowingCompoundFactor",
              "type": "uint256"
            },
            {
              "internalType": "uint256",
              "name": "next",
              "type": "uint256"
            },
            {
              "internalType": "uint256",
              "name": "prev",
              "type": "uint256"
            }
          ],
          "internalType": "struct AutoRollLog",
          "name": "",
          "type": "tuple"
        }
      ],
      "stateMutability": "view",
      "type": "function"
    },
    {
      "inputs": [
        {
          "internalType": "bytes32",
          "name": "_ccy",
          "type": "bytes32"
        }
      ],
      "name": "getLendingCompoundFactor",
      "outputs": [
        {
          "internalType": "uint256",
          "name": "",
          "type": "uint256"
        }
      ],
      "stateMutability": "view",
      "type": "function"
    },
    {
      "inputs": [
        {
          "internalType": "bytes32",
          "name": "_ccy",
          "type": "bytes32"
        },
        {
          "internalType": "uint256",
          "name": "_maturity",
          "type": "uint256"
        }
      ],
      "name": "getMaturityGenesisValue",
      "outputs": [
        {
          "internalType": "int256",
          "name": "",
          "type": "int256"
        }
      ],
      "stateMutability": "view",
      "type": "function"
    },
    {
      "inputs": [
        {
          "internalType": "bytes32",
          "name": "_ccy",
          "type": "bytes32"
        }
      ],
      "name": "getTotalBorrowingSupply",
      "outputs": [
        {
          "internalType": "uint256",
          "name": "",
          "type": "uint256"
        }
      ],
      "stateMutability": "view",
      "type": "function"
    },
    {
      "inputs": [
        {
          "internalType": "bytes32",
          "name": "_ccy",
          "type": "bytes32"
        }
      ],
      "name": "getTotalLendingSupply",
      "outputs": [
        {
          "internalType": "uint256",
          "name": "",
          "type": "uint256"
        }
      ],
      "stateMutability": "view",
      "type": "function"
    },
    {
      "inputs": [
        {
          "internalType": "address",
          "name": "_resolver",
          "type": "address"
        }
      ],
      "name": "initialize",
      "outputs": [],
      "stateMutability": "nonpayable",
      "type": "function"
    },
    {
      "inputs": [
        {
          "internalType": "bytes32",
          "name": "_ccy",
          "type": "bytes32"
        },
        {
          "internalType": "uint8",
          "name": "_decimals",
          "type": "uint8"
        },
        {
          "internalType": "uint256",
          "name": "_compoundFactor",
          "type": "uint256"
        },
        {
          "internalType": "uint256",
          "name": "_maturity",
          "type": "uint256"
        }
      ],
      "name": "initializeCurrencySetting",
      "outputs": [],
      "stateMutability": "nonpayable",
      "type": "function"
    },
    {
      "inputs": [
        {
          "internalType": "bytes32",
          "name": "_ccy",
          "type": "bytes32"
        }
      ],
      "name": "isInitialized",
      "outputs": [
        {
          "internalType": "bool",
          "name": "",
          "type": "bool"
        }
      ],
      "stateMutability": "view",
      "type": "function"
    },
    {
      "inputs": [],
      "name": "isResolverCached",
      "outputs": [
        {
          "internalType": "bool",
          "name": "",
          "type": "bool"
        }
      ],
      "stateMutability": "view",
      "type": "function"
    },
    {
      "inputs": [],
      "name": "requiredContracts",
      "outputs": [
        {
          "internalType": "bytes32[]",
          "name": "contracts",
          "type": "bytes32[]"
        }
      ],
      "stateMutability": "pure",
      "type": "function"
    },
    {
      "inputs": [],
      "name": "resolver",
      "outputs": [
        {
          "internalType": "contract IAddressResolver",
          "name": "",
          "type": "address"
        }
      ],
      "stateMutability": "view",
      "type": "function"
    },
    {
      "inputs": [
        {
          "internalType": "bytes32",
          "name": "_ccy",
          "type": "bytes32"
        },
        {
          "internalType": "address",
          "name": "_sender",
          "type": "address"
        },
        {
          "internalType": "address",
          "name": "_receiver",
          "type": "address"
        },
        {
          "internalType": "int256",
          "name": "_amount",
          "type": "int256"
        }
      ],
      "name": "transferFrom",
      "outputs": [],
      "stateMutability": "nonpayable",
      "type": "function"
    },
    {
      "inputs": [
        {
          "internalType": "bytes32",
          "name": "_ccy",
          "type": "bytes32"
        },
        {
          "internalType": "address",
          "name": "_user",
          "type": "address"
        },
        {
          "internalType": "uint256",
          "name": "_basisMaturity",
          "type": "uint256"
        },
        {
          "internalType": "int256",
          "name": "_fvAmount",
          "type": "int256"
        }
      ],
      "name": "updateGenesisValueWithFutureValue",
      "outputs": [],
      "stateMutability": "nonpayable",
      "type": "function"
    },
    {
      "inputs": [
        {
          "internalType": "bytes32",
          "name": "_ccy",
          "type": "bytes32"
        },
        {
          "internalType": "address",
          "name": "_user",
          "type": "address"
        },
        {
          "internalType": "uint256",
          "name": "_basisMaturity",
          "type": "uint256"
        }
      ],
      "name": "updateGenesisValueWithResidualAmount",
      "outputs": [],
      "stateMutability": "nonpayable",
      "type": "function"
    },
    {
      "inputs": [
        {
          "internalType": "bytes32",
          "name": "_ccy",
          "type": "bytes32"
        },
        {
          "internalType": "uint256",
          "name": "_unitPrice",
          "type": "uint256"
        }
      ],
      "name": "updateInitialCompoundFactor",
      "outputs": [],
      "stateMutability": "nonpayable",
      "type": "function"
    }
  ],
  "transactionHash": "0x0d387e317fa30667caece4483ec0254a5fe45255800068e072eecbebbe148f5e",
  "args": [],
  "numDeployments": 2,
  "solcInputHash": "7fb7821dadc9424227984a913e6112e9",
  "bytecode": "0x608060405234801561001057600080fd5b5061320d806100206000396000f3fe608060405234801561001057600080fd5b50600436106101f05760003560e01c80639af50c001161010f578063d637c15f116100a2578063e45b3cac11610071578063e45b3cac14610485578063f7b637bb14610498578063fb843904146104ab578063ff6dfc45146104be57600080fd5b8063d637c15f14610444578063db9b7b3814610457578063dc6a8ce41461046a578063e09976591461047d57600080fd5b8063aee1311e116100de578063aee1311e146103f8578063c1c7ee521461040b578063c2188b641461041e578063c4d66de81461043157600080fd5b80639af50c00146103ac578063a2d7d02d146103bf578063a969285f146103d2578063ab5deaf2146103e557600080fd5b80633d03b9da116101875780635f18aa0c116101565780635f18aa0c146103395780636aea0c591461035e5780637636e941146103865780637dec489e1461039957600080fd5b80633d03b9da146102a9578063474611f1146102be57806349a1d21814610313578063530e931c1461032657600080fd5b806329985e5a116101c357806329985e5a146102615780632af64bd31461026b578063312c474514610283578063352a38a31461029657600080fd5b806304f3bcec146101f55780630c8f25ed1461021a5780630d3946671461023b57806318612e321461024e575b600080fd5b6101fd6104d1565b6040516001600160a01b0390911681526020015b60405180910390f35b61022d610228366004612b49565b6104f2565b604051908152602001610211565b61022d610249366004612b79565b610542565b61022d61025c366004612b9b565b61056b565b6102696106a9565b005b610273610857565b6040519015158152602001610211565b610269610291366004612bc7565b6109bd565b61022d6102a4366004612bc7565b610a92565b6102b1610ac0565b6040516102119190612bff565b6102d16102cc366004612b79565b610b4b565b6040516102119190600060a082019050825182526020830151602083015260408301516040830152606083015160608301526080830151608083015292915050565b61022d610321366004612c43565b610bdc565b61022d610334366004612b49565b610bfa565b61034c610347366004612c43565b610c21565b60405160ff9091168152602001610211565b61037161036c366004612c5c565b610c42565b60408051928352602083019190915201610211565b61022d610394366004612b9b565b610dff565b6102696103a7366004612bc7565b610ef1565b61022d6103ba366004612c43565b6110cf565b6102696103cd366004612c9b565b6110ed565b6102696103e0366004612b79565b6112ff565b6102696103f3366004612b49565b611487565b61022d610406366004612cde565b611543565b610269610419366004612d10565b611573565b61022d61042c366004612c43565b6115b3565b61026961043f366004612d38565b6115d1565b6102d1610452366004612c43565b61174f565b61022d610465366004612cde565b61180b565b61022d610478366004612c43565b61184f565b6102b161186d565b610269610493366004612d55565b6118bd565b6102736104a6366004612c43565b6119af565b6102696104b9366004612d8d565b6119cd565b61022d6104cc366004612c43565b611a9d565b60006000805160206131988339815191525b546001600160a01b0316919050565b600061053961051361050385610c21565b61050e90600a612ec2565b611abb565b61051f61050e86611a9d565b6105298686610bfa565b6105339190612ed1565b90611b29565b90505b92915050565b600061054c611bbc565b6000938452600901602090815260408085209385529290525090205490565b600080831580610594575061057e611bbc565b6000868152600491909101602052604090205484145b6105c6576105a0611bbc565b6000868152600a91909101602090815260408083208784529091529020600101546105cf565b6105cf85611a9d565b9050600081116106265760405162461bcd60e51b815260206004820181905260248201527f436f6d706f756e6420666163746f72206973206e6f742066697865642079657460448201526064015b60405180910390fd5b600080841390610648826106425761063d86612f56565b611bdf565b85611bdf565b90506000610674846106598a610c21565b61066490600a612ec2565b61066e9085612f73565b90611c31565b9050826106925761068481611abb565b61068d90612f56565b61069b565b61069b81611abb565b9450505050505b9392505050565b60006106b3610ac0565b905060005b81518110156108525760008282815181106106d5576106d5612f92565b6020026020010151905060006106f660008051602061319883398151915290565b54604080517f5265736f6c766572206d697373696e67207461726765743a200000000000000060208201526039808201869052825180830390910181526059820192839052636795dbcd60e01b9092526001600160a01b0390921691636795dbcd9161076791869190605d01612ff5565b60206040518083038186803b15801561077f57600080fd5b505afa158015610793573d6000803e3d6000fd5b505050506040513d601f19601f820116820180604052508101906107b7919061300e565b60008381527f4abde63c3e81aefa5764b017968bc473e83e093d7e1a10247d19e0a3e4124019602090815260409182902080546001600160a01b0319166001600160a01b03851690811790915582518681529182015281519293507f88a93678a3692f6789d9546fc621bf7234b101ddb7d4fe479455112831b8aa68929081900390910190a15050808061084a9061302b565b9150506106b8565b505b50565b600080610862610ac0565b905060005b81518110156109b457600082828151811061088457610884612f92565b602002602001015190506108a360008051602061319883398151915290565b600082815260019190910160205260409020546001600160a01b0316600080516020613198833981519152546040516321f8a72160e01b8152600481018490526001600160a01b03909116906321f8a7219060240160206040518083038186803b15801561091057600080fd5b505afa158015610924573d6000803e3d6000fd5b505050506040513d601f19601f82011682018060405250810190610948919061300e565b6001600160a01b0316141580610992575060008181527f4abde63c3e81aefa5764b017968bc473e83e093d7e1a10247d19e0a3e412401960205260409020546001600160a01b0316155b156109a1576000935050505090565b50806109ac8161302b565b915050610867565b50600191505090565b6109c633611ca2565b6109e25760405162461bcd60e51b815260040161061d90613046565b60006109ec611bbc565b6000858152600991909101602090815260408083208584529091529020549050610a20848484610a1b85612f56565b611d1c565b610a28611bbc565b60008581526009919091016020908152604080832085845290915290205415610a8c5760405162461bcd60e51b8152602060048201526016602482015275526573696475616c20616d6f756e742065786973747360501b604482015260640161061d565b50505050565b6000808215610aa15782610aaa565b610aaa85610bdc565b9050610ab7858583611f15565b95945050505050565b6040805160028082526060808301845292602083019080368337019050509050762632b73234b733a6b0b935b2ba21b7b73a3937b63632b960491b81600081518110610b0e57610b0e612f92565b6020026020010181815250506a14995cd95c9d99519d5b9960aa1b81600181518110610b3c57610b3c612f92565b60200260200101818152505090565b610b7d6040518060a0016040528060008152602001600081526020016000815260200160008152602001600081525090565b610b85611bbc565b6000938452600a016020908152604080852093855292815292829020825160a08101845281548152600182015494810194909452600281015492840192909252506003810154606083015260040154608082015290565b6000610be6611bbc565b600092835260040160205250604090205490565b6000806000610c128585610c0d88610bdc565b611f86565b9092509050610ab7818361307d565b6000610c2b611bbc565b600092835260050160205250604090205460ff1690565b600080610c4e33611ca2565b610c6a5760405162461bcd60e51b815260040161061d90613046565b6000610c7787878661056b565b90506000610c83611bbc565b6000898152600691909101602090815260408083206001600160a01b038a168452909152812054915082138015610cbb575060008112155b80610cd25750600082128015610cd2575060008113155b610d0f5760405162461bcd60e51b815260206004820152600e60248201526d125b9d985b1a5908185b5bdd5b9d60921b604482015260640161061d565b600082138015610d1e57508082125b80610d335750600082128015610d3357508082135b15610d3b5750805b8015610db75780610d4a611bbc565b60008a8152600691909101602090815260408083206001600160a01b038b16845290915281208054909190610d809084906130be565b90915550506040518181526000906001600160a01b038816908a906000805160206131b88339815191529060200160405180910390a45b610dc2888883610dff565b9350610dcc611bbc565b600098895260060160209081526040808a206001600160a01b039098168a52969052505050919093205490939092509050565b600080831580610e285750610e12611bbc565b6000868152600491909101602052604090205484145b610e5a57610e34611bbc565b6000868152600a9190910160209081526040808320878452909152902060010154610e63565b610e6385611a9d565b905060008111610eb55760405162461bcd60e51b815260206004820181905260248201527f436f6d706f756e6420666163746f72206973206e6f7420666978656420796574604482015260640161061d565b600080841390610ecc826106425761063d86612f56565b90506000610674610edc89610c21565b610ee790600a612ec2565b61066e8685612f73565b610efa33611ca2565b610f165760405162461bcd60e51b815260040161061d90613046565b60008115610f245781610f2d565b610f2d84610bdc565b90506000610f3c858584611f15565b905060008112156110c8576000610f51611fcc565b9050610f8c8683610f60611bbc565b60008a8152600691909101602090815260408083206001600160a01b038c168452909152902054611fdb565b610fcd86610f9984612f56565b610fa1611bbc565b60008a8152600691909101602090815260408083206001600160a01b0388168452909152902054611fdb565b82610fd6611bbc565b6000888152600b91909101602090815260408083206001600160a01b038a16845290915290205581611006611bbc565b6000888152600691909101602090815260408083206001600160a01b038a1684529091528120805490919061103c90849061307d565b9091555061104b905082612f56565b611053611bbc565b6000888152600691909101602090815260408083206001600160a01b03861684529091528120805490919061108990849061307d565b90915550506001600160a01b03808216908616876000805160206131b88339815191526110b586612f56565b60405190815260200160405180910390a4505b5050505050565b60006110d9611bbc565b600092835260080160205250604090205490565b6110f633611ca2565b6111125760405162461bcd60e51b815260040161061d90613046565b8161115f5760405162461bcd60e51b815260206004820152601760248201527f436f6d706f756e6420666163746f72206973207a65726f000000000000000000604482015260640161061d565b611168846119af565b156111b55760405162461bcd60e51b815260206004820152601c60248201527f416c726561647920696e697469616c697a65642063757272656e637900000000604482015260640161061d565b60016111bf611bbc565b600086815260209190915260409020805460ff1916911515919091179055826111e6611bbc565b600086815260059190910160205260409020805460ff191660ff9290921691909117905581611213611bbc565b600086815260019190910160205260409020558161122f611bbc565b600086815260029190910160205260409020558161124b611bbc565b6000868152600391909101602052604090205580611267611bbc565b6004016000868152602001908152602001600020819055506040518060a0016040528061271081526020018381526020018381526020016000815260200160008152506112b2611bbc565b6000958652600a0160209081526040808720938752928152948290208151815594810151600186015590810151600285015560608101516003850155608001516004909301929092555050565b61130833611ca2565b6113245760405162461bcd60e51b815260040161061d90613046565b600061132e611bbc565b60008481526004919091016020526040902054905061134b611bbc565b6000848152600a9190910160209081526040808320848452909152902060040154156113c55760405162461bcd60e51b815260206004820152602360248201527f4669727374206175746f526f6c6c4c6f6720616c72656164792066696e616c696044820152621e995960ea1b606482015260840161061d565b6113d283836000806121f0565b6040518060a001604052808381526020016113eb611bbc565b600201600086815260200190815260200160002054815260200161140d611bbc565b600301600086815260200190815260200160002054815260200160008152602001600081525061143b611bbc565b6000948552600a01602090815260408086209386529281529382902081518155938101516001850155908101516002840155606081015160038401556080015160049092019190915550565b61149033611ca2565b6114ac5760405162461bcd60e51b815260040161061d90613046565b60006114b6611bbc565b6000848152600691909101602090815260408083206001600160a01b03861684529091529020549050801561153e5760006114ef611bbc565b6000858152600691909101602090815260408083206001600160a01b038716808552908352818420949094555184815291929186916000805160206131b8833981519152910160405180910390a45b505050565b6000808215611552578261155b565b61155b86610bdc565b905061156986868684612357565b9695505050505050565b61157c33611ca2565b6115985760405162461bcd60e51b815260040161061d90613046565b60006115a585848461056b565b90506110c885858584611d1c565b60006115bd611bbc565b600092835260070160205250604090205490565b600054610100900460ff16158080156115f15750600054600160ff909116105b8061160b5750303b15801561160b575060005460ff166001145b61166e5760405162461bcd60e51b815260206004820152602e60248201527f496e697469616c697a61626c653a20636f6e747261637420697320616c72656160448201526d191e481a5b9a5d1a585b1a5e995960921b606482015260840161061d565b6000805460ff191660011790558015611691576000805461ff0019166101001790555b600061169b6124fa565b6001600160a01b031614156116fd5760405162461bcd60e51b815260206004820152602260248201527f4d7573742062652063616c6c65642066726f6d2070726f787920636f6e74726160448201526118dd60f21b606482015260840161061d565b61170682612522565b8015610852576000805461ff0019169055604051600181527f7f26b83ff96e1f2b6a682f133852f6798a09c465da95921460cefb38474024989060200160405180910390a15050565b6117816040518060a0016040528060008152602001600081526020016000815260200160008152602001600081525090565b611789611bbc565b6000838152600a9190910160205260408120906117a4611bbc565b60040160008581526020019081526020016000205481526020019081526020016000206040518060a0016040529081600082015481526020016001820154815260200160028201548152602001600382015481526020016004820154815250509050919050565b60008161181a57506000611847565b82841415611829575080611847565b600061183686868561056b565b9050611843868583610dff565b9150505b949350505050565b6000611859611bbc565b600092835260030160205250604090205490565b60408051600180825281830190925260609160208083019080368337019050509050762632b73234b733a6b0b935b2ba21b7b73a3937b63632b960491b81600081518110610b3c57610b3c612f92565b6118c633611ca2565b6118e25760405162461bcd60e51b815260040161061d90613046565b806118eb611bbc565b6000868152600691909101602090815260408083206001600160a01b0388168452909152812080549091906119219084906130be565b90915550819050611930611bbc565b6000868152600691909101602090815260408083206001600160a01b03871684529091528120805490919061196690849061307d565b92505081905550816001600160a01b0316836001600160a01b0316856000805160206131b8833981519152846040516119a191815260200190565b60405180910390a450505050565b60006119b9611bbc565b600092835260205250604090205460ff1690565b6119d633611ca2565b6119f25760405162461bcd60e51b815260040161061d90613046565b611a07858383611a0288886130fd565b6121f0565b611a13858585856125b7565b847f90675b73d2aa47e7572569090cae87a7c67eff7a715ee461bae1b0256bde7160611a3d611bbc565b60008881526002919091016020526040902054611a58611bbc565b60008981526003919091016020908152604091829020548251938452908301528101859052606081018690526080810187905260a00160405180910390a25050505050565b6000611aa7611bbc565b600092835260020160205250604090205490565b60006001600160ff1b03821115611b255760405162461bcd60e51b815260206004820152602860248201527f53616665436173743a2076616c756520646f65736e27742066697420696e2061604482015267371034b73a191a9b60c11b606482015260840161061d565b5090565b600081611b3557600080fd5b6000611b41838561312a565b611b4c90600a612ed1565b83611b5886600a612ed1565b611b62919061312a565b611b6c91906130be565b905060058112611b9357611b80838561312a565b611b8b90600161307d565b91505061053c565b6004198113611bb2576001611ba8848661312a565b611b8b91906130be565b611b8b838561312a565b7eeb125d2cd445fcbd619aab5c9493ddf1b2fb2fb0a82715c79a670dddbf7d6590565b600080821215611b255760405162461bcd60e51b815260206004820181905260248201527f53616665436173743a2076616c7565206d75737420626520706f736974697665604482015260640161061d565b6000808211611c3f57600080fd5b6005611c4b8385613158565b611c5690600a612f73565b83611c6286600a612f73565b611c6c9190613158565b611c7691906130fd565b1015611c8d57611c868284613158565b905061053c565b611c978284613158565b611c8690600161316c565b600080611cad61186d565b905060005b8151811015611d1257611cdd828281518110611cd057611cd0612f92565b602002602001015161290b565b6001600160a01b0316846001600160a01b03161415611d00575060019392505050565b80611d0a8161302b565b915050611cb2565b5060009392505050565b600080611d2a868686611f86565b9092509050826000821215611e2057611d43828261307d565b90506000611d4f611fcc565b9050611d5a83612f56565b611d62611bbc565b60008a8152600691909101602090815260408083206001600160a01b038616845290915281208054909190611d9890849061307d565b90915550611ddf905088611dab85612f56565b611db3611bbc565b60008c8152600691909101602090815260408083206001600160a01b0388168452909152902054611fdb565b806001600160a01b0316876001600160a01b0316896000805160206131b883398151915286611e0d90612f56565b60405190815260200160405180910390a4505b611e2b878285611fdb565b84611e34611bbc565b6000898152600b91909101602090815260408083206001600160a01b038b16845290915290205580611e64611bbc565b6000898152600691909101602090815260408083206001600160a01b038b16845290915281208054909190611e9a90849061307d565b90915550849050611ea9611bbc565b60008981526009919091016020908152604080832089845290915281208054909190611ed690849061307d565b90915550506040518481526001600160a01b0387169060009089906000805160206131b88339815191529060200160405180910390a450505050505050565b600080611f20611bbc565b6000868152600691909101602090815260408083206001600160a01b03881684529091528120549150611f51611bbc565b6000878152600b91909101602090815260408083206001600160a01b0389168452909152902054905061156986838387612357565b600080611f94858585611f15565b9050611f9e611bbc565b6000958652600601602090815260408087206001600160a01b03909616875294905292909320549391925050565b6000611fd6612916565b905090565b600082126120f9576000611fee83611bdf565b90506000821261202f5780612001611bbc565b60070160008681526020019081526020016000206000828254612024919061316c565b90915550610a8c9050565b600061203b838561307d565b9050600081126120c15761204e81611bdf565b612056611bbc565b60070160008781526020019081526020016000206000828254612079919061316c565b9091555061208b905061063d84612f56565b612093611bbc565b600801600087815260200190815260200160002060008282546120b691906130fd565b909155506110c89050565b816120ca611bbc565b600801600087815260200190815260200160002060008282546120ed91906130fd565b90915550505050505050565b600061210761063d84612f56565b90506000821361213d578061211a611bbc565b60080160008681526020019081526020016000206000828254612024919061316c565b6000612149838561307d565b9050600081136121c45761215f61063d82612f56565b612167611bbc565b6008016000878152602001908152602001600020600082825461218a919061316c565b90915550612199905083611bdf565b6121a1611bbc565b600701600087815260200190815260200160002060008282546120b691906130fd565b816121cd611bbc565b600701600087815260200190815260200160002060008282546120ed91906130fd565b6127108211156122355760405162461bcd60e51b815260206004820152601060248201526f496e76616c696420666565207261746560801b604482015260640161061d565b6000836122486301e13380612710612f73565b6122529190612f73565b90506122b781856122638587612f73565b61226d9190612f73565b6301e1338061227e61271080612f73565b6122889190612f73565b61229291906130fd565b61229a611bbc565b6000898152600291909101602052604090205461066e9190612f73565b6122bf611bbc565b6000878152600291909101602052604090205561233581856122e18587612f73565b6122eb9190612f73565b6301e133806122fc61271080612f73565b6123069190612f73565b612310919061316c565b612318611bbc565b6000898152600391909101602052604090205461066e9190612f73565b61233d611bbc565b600096875260030160205260409095209490945550505050565b600080841215806123685750828211155b80612371575082155b1561237e57506000611847565b6000612388611bbc565b6000878152600a91909101602090815260408083208784528252808320815160a0810183528154815260018201549381019390935260028101549183019190915260038101546060830152600401546080820152915080806123e989610bdc565b905080861115612400576000945050505050611847565b8086141561244757612410611bbc565b60008a81526003919091016020526040902054925061242d611bbc565b60008a8152600291909101602052604090205491506124ae565b6000612451611bbc565b60008b8152600a91909101602090815260408083208a8452825291829020825160a0810184528154815260018201549281018390526002820154938101849052600382015460608201526004909101546080909101529094509250505b876124da61050e6124cf6124c461063d85612f56565b87896040015161292f565b87602001518661292f565b6124e390612f56565b6124ed91906130be565b9998505050505050505050565b60007f360894a13ba1a3210667c828492db98dca3e2076cc3735a920a3ca505d382bbc6104e3565b600080516020613198833981519152546001600160a01b0316156125885760405162461bcd60e51b815260206004820152601b60248201527f5265736f6c766572207265676973746572656420616c72656164790000000000604482015260640161061d565b60008051602061319883398151915280546001600160a01b0319166001600160a01b0392909216919091179055565b806125f95760405162461bcd60e51b8152602060048201526012602482015271556e6974207072696365206973207a65726f60701b604482015260640161061d565b612601611bbc565b6000858152600a91909101602090815260408083208684529091529020600301541561266f5760405162461bcd60e51b815260206004820152601860248201527f416c72656164792075706461746564206d617475726974790000000000000000604482015260640161061d565b8282116126b15760405162461bcd60e51b815260206004820152601060248201526f496e76616c6964206d6174757269747960801b604482015260640161061d565b6126b9611bbc565b6000858152600a91909101602090815260408083208584529091529020600101541561271a5760405162461bcd60e51b815260206004820152601060248201526f45786973746564206d6174757269747960801b604482015260640161061d565b612722611bbc565b6000858152600a919091016020908152604080832086845290915290206001015461278f5760405162461bcd60e51b815260206004820152601f60248201527f496e76616c6964206c656e64696e6720636f6d706f756e6420666163746f7200604482015260640161061d565b612797611bbc565b6000858152600a919091016020908152604080832086845290915290206002015461280e5760405162461bcd60e51b815260206004820152602160248201527f496e76616c696420626f72726f77696e6720636f6d706f756e6420666163746f6044820152603960f91b606482015260840161061d565b81612817611bbc565b6000868152600491909101602052604090205581612833611bbc565b6000868152600a919091016020908152604080832087845282529182902060030192909255805160a0810190915282815290810161286f611bbc565b6002016000878152602001908152602001600020548152602001612891611bbc565b600301600087815260200190815260200160002054815260200160008152602001848152506128be611bbc565b6000958652600a0160209081526040808720948752938152948390208151815594810151600186015591820151600285015550606081015160038401556080015160049092019190915550565b600061053c82612a9c565b6000611fd66a14995cd95c9d99519d5b9960aa1b612a9c565b600080806000198587098587029250828110838203039150508060001415612969576000841161295e57600080fd5b5082900490506106a2565b80841161297557600080fd5b60008486880980840393811190920391905060006129958619600161316c565b86169586900495938490049360008190030460010190506129b68184612f73565b9093179260006129c7876003612f73565b60021890506129d68188612f73565b6129e19060026130fd565b6129eb9082612f73565b90506129f78188612f73565b612a029060026130fd565b612a0c9082612f73565b9050612a188188612f73565b612a239060026130fd565b612a2d9082612f73565b9050612a398188612f73565b612a449060026130fd565b612a4e9082612f73565b9050612a5a8188612f73565b612a659060026130fd565b612a6f9082612f73565b9050612a7b8188612f73565b612a869060026130fd565b612a909082612f73565b90506124ed8186612f73565b60008181527f4abde63c3e81aefa5764b017968bc473e83e093d7e1a10247d19e0a3e41240196020908152604080832054815170026b4b9b9b4b7339030b2323932b9b99d1607d1b9381019390935260318084018690528251808503909101815260519093019091526001600160a01b03169081612b2d5760405162461bcd60e51b815260040161061d9190613184565b5092915050565b6001600160a01b038116811461085457600080fd5b60008060408385031215612b5c57600080fd5b823591506020830135612b6e81612b34565b809150509250929050565b60008060408385031215612b8c57600080fd5b50508035926020909101359150565b600080600060608486031215612bb057600080fd5b505081359360208301359350604090920135919050565b600080600060608486031215612bdc57600080fd5b833592506020840135612bee81612b34565b929592945050506040919091013590565b6020808252825182820181905260009190848201906040850190845b81811015612c3757835183529284019291840191600101612c1b565b50909695505050505050565b600060208284031215612c5557600080fd5b5035919050565b60008060008060808587031215612c7257600080fd5b84359350602085013592506040850135612c8b81612b34565b9396929550929360600135925050565b60008060008060808587031215612cb157600080fd5b84359350602085013560ff81168114612cc957600080fd5b93969395505050506040820135916060013590565b60008060008060808587031215612cf457600080fd5b5050823594602084013594506040840135936060013592509050565b60008060008060808587031215612d2657600080fd5b843593506020850135612cc981612b34565b600060208284031215612d4a57600080fd5b81356106a281612b34565b60008060008060808587031215612d6b57600080fd5b843593506020850135612d7d81612b34565b92506040850135612c8b81612b34565b600080600080600060a08688031215612da557600080fd5b505083359560208501359550604085013594606081013594506080013592509050565b634e487b7160e01b600052601160045260246000fd5b600181815b80851115612e19578160001904821115612dff57612dff612dc8565b80851615612e0c57918102915b93841c9390800290612de3565b509250929050565b600082612e305750600161053c565b81612e3d5750600061053c565b8160018114612e535760028114612e5d57612e79565b600191505061053c565b60ff841115612e6e57612e6e612dc8565b50506001821b61053c565b5060208310610133831016604e8410600b8410161715612e9c575081810a61053c565b612ea68383612dde565b8060001904821115612eba57612eba612dc8565b029392505050565b600061053960ff841683612e21565b60006001600160ff1b0381841382841380821686840486111615612ef757612ef7612dc8565b600160ff1b6000871282811687830589121615612f1657612f16612dc8565b60008712925087820587128484161615612f3257612f32612dc8565b87850587128184161615612f4857612f48612dc8565b505050929093029392505050565b6000600160ff1b821415612f6c57612f6c612dc8565b5060000390565b6000816000190483118215151615612f8d57612f8d612dc8565b500290565b634e487b7160e01b600052603260045260246000fd5b6000815180845260005b81811015612fce57602081850181015186830182015201612fb2565b81811115612fe0576000602083870101525b50601f01601f19169290920160200192915050565b8281526040602082015260006118476040830184612fa8565b60006020828403121561302057600080fd5b81516106a281612b34565b600060001982141561303f5761303f612dc8565b5060010190565b60208082526017908201527f4f6e6c7920416363657074656420436f6e747261637473000000000000000000604082015260600190565b600080821280156001600160ff1b038490038513161561309f5761309f612dc8565b600160ff1b83900384128116156130b8576130b8612dc8565b50500190565b60008083128015600160ff1b8501841216156130dc576130dc612dc8565b6001600160ff1b03840183138116156130f7576130f7612dc8565b50500390565b60008282101561310f5761310f612dc8565b500390565b634e487b7160e01b600052601260045260246000fd5b60008261313957613139613114565b600160ff1b82146000198414161561315357613153612dc8565b500590565b60008261316757613167613114565b500490565b6000821982111561317f5761317f612dc8565b500190565b6020815260006105396020830184612fa856fe4abde63c3e81aefa5764b017968bc473e83e093d7e1a10247d19e0a3e4124018224d4ee1e2931416deb62bbde4f281397249c4a54319c43ee455efc348c13f4fa26469706673582212206a4b79d00a77484657073370811e04f9070d4f52e499abaf2ff89d539964e23b64736f6c63430008090033",
  "implementation": "0x88675A5960f672213F4f414cccc56C13b0Ad80D6",
  "devdoc": {
    "kind": "dev",
    "methods": {
      "acceptedContracts()": {
        "details": "The contact name listed in this method is also needed to be listed `requiredContracts` method."
      },
      "executeForcedReset(bytes32,address)": {
        "params": {
          "_ccy": "Currency name in bytes32",
          "_user": "User's address"
        }
      },
      "executeForcedReset(bytes32,uint256,address,int256)": {
        "params": {
          "_amountInFV": "The amount in the future value to reset",
          "_ccy": "Currency name in bytes32",
          "_user": "User's address"
        }
      },
      "initialize(address)": {
        "details": "Function is invoked by the proxy contract when the contract is added to the ProxyController.",
        "params": {
          "_resolver": "The address of the Address Resolver contract"
        }
      },
      "requiredContracts()": {
        "details": "The contract name list is in `./libraries/Contracts.sol`."
      }
    },
    "version": 1
  },
  "userdoc": {
    "kind": "user",
    "methods": {
      "acceptedContracts()": {
        "notice": "Returns contract names that can call this contract."
      },
      "executeForcedReset(bytes32,address)": {
        "notice": "Forces a reset of the user's genesis value."
      },
      "executeForcedReset(bytes32,uint256,address,int256)": {
        "notice": "Forces a reset of the user's genesis value."
      },
      "initialize(address)": {
        "notice": "Initializes the contract."
      },
      "requiredContracts()": {
        "notice": "Returns the contract names used in this contract."
      }
    },
    "notice": "Implements the management of the genesis value as an amount for Lending deals.",
    "version": 1
  },
  "storageLayout": {
    "storage": [
      {
        "astId": 995,
        "contract": "contracts/protocol/GenesisValueVault.sol:GenesisValueVault",
        "label": "_initialized",
        "offset": 0,
        "slot": "0",
        "type": "t_uint8"
      },
      {
        "astId": 998,
        "contract": "contracts/protocol/GenesisValueVault.sol:GenesisValueVault",
        "label": "_initializing",
        "offset": 1,
        "slot": "0",
        "type": "t_bool"
      }
    ],
    "types": {
      "t_bool": {
        "encoding": "inplace",
        "label": "bool",
        "numberOfBytes": "1"
      },
      "t_uint8": {
        "encoding": "inplace",
        "label": "uint8",
        "numberOfBytes": "1"
      }
    }
  }
}