{
  "address": "0x0fb82ac87c566fFa103BFd281A6a8197ca39F8F1",
  "abi": [
    {
      "anonymous": false,
      "inputs": [
        {
          "indexed": true,
          "internalType": "bytes32",
          "name": "ccy",
          "type": "bytes32"
        },
        {
          "indexed": false,
          "internalType": "uint256",
          "name": "lendingCompoundFactor",
          "type": "uint256"
        },
        {
          "indexed": false,
          "internalType": "uint256",
          "name": "borrowingCompoundFactor",
          "type": "uint256"
        },
        {
          "indexed": false,
          "internalType": "uint256",
          "name": "unitPrice",
          "type": "uint256"
        },
        {
          "indexed": false,
          "internalType": "uint256",
          "name": "currentMaturity",
          "type": "uint256"
        },
        {
          "indexed": false,
          "internalType": "uint256",
          "name": "previousMaturity",
          "type": "uint256"
        }
      ],
      "name": "AutoRollExecuted",
      "type": "event"
    },
    {
      "anonymous": false,
      "inputs": [
        {
          "indexed": false,
          "internalType": "bytes32",
          "name": "name",
          "type": "bytes32"
        },
        {
          "indexed": false,
          "internalType": "address",
          "name": "destination",
          "type": "address"
        }
      ],
      "name": "CacheUpdated",
      "type": "event"
    },
    {
      "anonymous": false,
      "inputs": [
        {
          "indexed": false,
          "internalType": "uint8",
          "name": "version",
          "type": "uint8"
        }
      ],
      "name": "Initialized",
      "type": "event"
    },
    {
      "anonymous": false,
      "inputs": [
        {
          "indexed": true,
          "internalType": "bytes32",
          "name": "ccy",
          "type": "bytes32"
        },
        {
          "indexed": true,
          "internalType": "address",
          "name": "from",
          "type": "address"
        },
        {
          "indexed": true,
          "internalType": "address",
          "name": "to",
          "type": "address"
        },
        {
          "indexed": false,
          "internalType": "int256",
          "name": "value",
          "type": "int256"
        }
      ],
      "name": "Transfer",
      "type": "event"
    },
    {
      "inputs": [],
      "name": "acceptedContracts",
      "outputs": [
        {
          "internalType": "bytes32[]",
          "name": "contracts",
          "type": "bytes32[]"
        }
      ],
      "stateMutability": "pure",
      "type": "function"
    },
    {
      "inputs": [],
      "name": "buildCache",
      "outputs": [],
      "stateMutability": "nonpayable",
      "type": "function"
    },
    {
      "inputs": [
        {
          "internalType": "bytes32",
          "name": "_ccy",
          "type": "bytes32"
        },
        {
          "internalType": "int256",
          "name": "_balance",
          "type": "int256"
        },
        {
          "internalType": "uint256",
          "name": "_fromMaturity",
          "type": "uint256"
        },
        {
          "internalType": "uint256",
          "name": "_toMaturity",
          "type": "uint256"
        }
      ],
      "name": "calculateBalanceFluctuationByAutoRolls",
      "outputs": [
        {
          "internalType": "int256",
          "name": "fluctuation",
          "type": "int256"
        }
      ],
      "stateMutability": "view",
      "type": "function"
    },
    {
      "inputs": [
        {
          "internalType": "bytes32",
          "name": "_ccy",
          "type": "bytes32"
        },
        {
          "internalType": "uint256",
          "name": "_basisMaturity",
          "type": "uint256"
        },
        {
          "internalType": "uint256",
          "name": "_destinationMaturity",
          "type": "uint256"
        },
        {
          "internalType": "int256",
          "name": "_futureValue",
          "type": "int256"
        }
      ],
      "name": "calculateFVFromFV",
      "outputs": [
        {
          "internalType": "int256",
          "name": "",
          "type": "int256"
        }
      ],
      "stateMutability": "view",
      "type": "function"
    },
    {
      "inputs": [
        {
          "internalType": "bytes32",
          "name": "_ccy",
          "type": "bytes32"
        },
        {
          "internalType": "uint256",
          "name": "_basisMaturity",
          "type": "uint256"
        },
        {
          "internalType": "int256",
          "name": "_genesisValue",
          "type": "int256"
        }
      ],
      "name": "calculateFVFromGV",
      "outputs": [
        {
          "internalType": "int256",
          "name": "",
          "type": "int256"
        }
      ],
      "stateMutability": "view",
      "type": "function"
    },
    {
      "inputs": [
        {
          "internalType": "bytes32",
          "name": "_ccy",
          "type": "bytes32"
        },
        {
          "internalType": "uint256",
          "name": "_basisMaturity",
          "type": "uint256"
        },
        {
          "internalType": "int256",
          "name": "_futureValue",
          "type": "int256"
        }
      ],
      "name": "calculateGVFromFV",
      "outputs": [
        {
          "internalType": "int256",
          "name": "",
          "type": "int256"
        }
      ],
      "stateMutability": "view",
      "type": "function"
    },
    {
      "inputs": [
        {
          "internalType": "bytes32",
          "name": "_ccy",
          "type": "bytes32"
        },
        {
          "internalType": "address",
          "name": "_user",
          "type": "address"
        },
        {
          "internalType": "uint256",
          "name": "_maturity",
          "type": "uint256"
        }
      ],
      "name": "cleanUpGenesisValue",
      "outputs": [],
      "stateMutability": "nonpayable",
      "type": "function"
    },
    {
      "inputs": [
        {
          "internalType": "bytes32",
          "name": "_ccy",
          "type": "bytes32"
        }
      ],
      "name": "decimals",
      "outputs": [
        {
          "internalType": "uint8",
          "name": "",
          "type": "uint8"
        }
      ],
      "stateMutability": "view",
      "type": "function"
    },
    {
      "inputs": [
        {
          "internalType": "bytes32",
          "name": "_ccy",
          "type": "bytes32"
        },
        {
          "internalType": "uint256",
          "name": "_maturity",
          "type": "uint256"
        },
        {
          "internalType": "uint256",
          "name": "_nextMaturity",
          "type": "uint256"
        },
        {
          "internalType": "uint256",
          "name": "_unitPrice",
          "type": "uint256"
        },
        {
          "internalType": "uint256",
          "name": "_feeRate",
          "type": "uint256"
        },
        {
          "internalType": "uint256",
          "name": "_totalFVAmount",
          "type": "uint256"
        }
      ],
      "name": "executeAutoRoll",
      "outputs": [],
      "stateMutability": "nonpayable",
      "type": "function"
    },
    {
      "inputs": [
        {
          "internalType": "bytes32",
          "name": "_ccy",
          "type": "bytes32"
        },
        {
          "internalType": "uint256",
          "name": "_maturity",
          "type": "uint256"
        }
      ],
      "name": "getAutoRollLog",
      "outputs": [
        {
          "components": [
            {
              "internalType": "uint256",
              "name": "unitPrice",
              "type": "uint256"
            },
            {
              "internalType": "uint256",
              "name": "lendingCompoundFactor",
              "type": "uint256"
            },
            {
              "internalType": "uint256",
              "name": "borrowingCompoundFactor",
              "type": "uint256"
            },
            {
              "internalType": "uint256",
              "name": "next",
              "type": "uint256"
            },
            {
              "internalType": "uint256",
              "name": "prev",
              "type": "uint256"
            }
          ],
          "internalType": "struct AutoRollLog",
          "name": "",
          "type": "tuple"
        }
      ],
      "stateMutability": "view",
      "type": "function"
    },
    {
      "inputs": [
        {
          "internalType": "bytes32",
          "name": "_ccy",
          "type": "bytes32"
        },
        {
          "internalType": "address",
          "name": "_user",
          "type": "address"
        },
        {
          "internalType": "uint256",
          "name": "_maturity",
          "type": "uint256"
        }
      ],
      "name": "getBalanceFluctuationByAutoRolls",
      "outputs": [
        {
          "internalType": "int256",
          "name": "fluctuation",
          "type": "int256"
        }
      ],
      "stateMutability": "view",
      "type": "function"
    },
    {
      "inputs": [
        {
          "internalType": "bytes32",
          "name": "_ccy",
          "type": "bytes32"
        }
      ],
      "name": "getBorrowingCompoundFactor",
      "outputs": [
        {
          "internalType": "uint256",
          "name": "",
          "type": "uint256"
        }
      ],
      "stateMutability": "view",
      "type": "function"
    },
    {
      "inputs": [
        {
          "internalType": "bytes32",
          "name": "_ccy",
          "type": "bytes32"
        }
      ],
      "name": "getCurrentMaturity",
      "outputs": [
        {
          "internalType": "uint256",
          "name": "",
          "type": "uint256"
        }
      ],
      "stateMutability": "view",
      "type": "function"
    },
    {
      "inputs": [
        {
          "internalType": "bytes32",
          "name": "_ccy",
          "type": "bytes32"
        },
        {
          "internalType": "address",
          "name": "_user",
          "type": "address"
        }
      ],
      "name": "getGenesisValue",
      "outputs": [
        {
          "internalType": "int256",
          "name": "balance",
          "type": "int256"
        }
      ],
      "stateMutability": "view",
      "type": "function"
    },
    {
      "inputs": [
        {
          "internalType": "bytes32",
          "name": "_ccy",
          "type": "bytes32"
        },
        {
          "internalType": "address",
          "name": "_user",
          "type": "address"
        }
      ],
      "name": "getGenesisValueInFutureValue",
      "outputs": [
        {
          "internalType": "int256",
          "name": "",
          "type": "int256"
        }
      ],
      "stateMutability": "view",
      "type": "function"
    },
    {
      "inputs": [
        {
          "internalType": "bytes32",
          "name": "_ccy",
          "type": "bytes32"
        }
      ],
      "name": "getLendingCompoundFactor",
      "outputs": [
        {
          "internalType": "uint256",
          "name": "",
          "type": "uint256"
        }
      ],
      "stateMutability": "view",
      "type": "function"
    },
    {
      "inputs": [
        {
          "internalType": "bytes32",
          "name": "_ccy",
          "type": "bytes32"
        },
        {
          "internalType": "uint256",
          "name": "_maturity",
          "type": "uint256"
        }
      ],
      "name": "getMaturityGenesisValue",
      "outputs": [
        {
          "internalType": "int256",
          "name": "",
          "type": "int256"
        }
      ],
      "stateMutability": "view",
      "type": "function"
    },
    {
      "inputs": [
        {
          "internalType": "bytes32",
          "name": "_ccy",
          "type": "bytes32"
        }
      ],
      "name": "getTotalBorrowingSupply",
      "outputs": [
        {
          "internalType": "uint256",
          "name": "",
          "type": "uint256"
        }
      ],
      "stateMutability": "view",
      "type": "function"
    },
    {
      "inputs": [
        {
          "internalType": "bytes32",
          "name": "_ccy",
          "type": "bytes32"
        }
      ],
      "name": "getTotalLendingSupply",
      "outputs": [
        {
          "internalType": "uint256",
          "name": "",
          "type": "uint256"
        }
      ],
      "stateMutability": "view",
      "type": "function"
    },
    {
      "inputs": [
        {
          "internalType": "address",
          "name": "_resolver",
          "type": "address"
        }
      ],
      "name": "initialize",
      "outputs": [],
      "stateMutability": "nonpayable",
      "type": "function"
    },
    {
      "inputs": [
        {
          "internalType": "bytes32",
          "name": "_ccy",
          "type": "bytes32"
        },
        {
          "internalType": "uint8",
          "name": "_decimals",
          "type": "uint8"
        },
        {
          "internalType": "uint256",
          "name": "_compoundFactor",
          "type": "uint256"
        },
        {
          "internalType": "uint256",
          "name": "_maturity",
          "type": "uint256"
        }
      ],
      "name": "initializeCurrencySetting",
      "outputs": [],
      "stateMutability": "nonpayable",
      "type": "function"
    },
    {
      "inputs": [
        {
          "internalType": "bytes32",
          "name": "_ccy",
          "type": "bytes32"
        }
      ],
      "name": "isInitialized",
      "outputs": [
        {
          "internalType": "bool",
          "name": "",
          "type": "bool"
        }
      ],
      "stateMutability": "view",
      "type": "function"
    },
    {
      "inputs": [],
      "name": "isResolverCached",
      "outputs": [
        {
          "internalType": "bool",
          "name": "",
          "type": "bool"
        }
      ],
      "stateMutability": "view",
      "type": "function"
    },
    {
      "inputs": [
        {
          "internalType": "bytes32",
          "name": "_ccy",
          "type": "bytes32"
        },
        {
          "internalType": "uint256",
          "name": "_maturity",
          "type": "uint256"
        },
        {
          "internalType": "address",
          "name": "_lender",
          "type": "address"
        },
        {
          "internalType": "address",
          "name": "_borrower",
          "type": "address"
        },
        {
          "internalType": "int256",
          "name": "_maximumGVAmount",
          "type": "int256"
        }
      ],
      "name": "offsetGenesisValue",
      "outputs": [
        {
          "internalType": "int256",
          "name": "offsetAmount",
          "type": "int256"
        }
      ],
      "stateMutability": "nonpayable",
      "type": "function"
    },
    {
      "inputs": [],
      "name": "requiredContracts",
      "outputs": [
        {
          "internalType": "bytes32[]",
          "name": "contracts",
          "type": "bytes32[]"
        }
      ],
      "stateMutability": "pure",
      "type": "function"
    },
    {
      "inputs": [],
      "name": "resolver",
      "outputs": [
        {
          "internalType": "contract IAddressResolver",
          "name": "",
          "type": "address"
        }
      ],
      "stateMutability": "view",
      "type": "function"
    },
    {
      "inputs": [
        {
          "internalType": "bytes32",
          "name": "_ccy",
          "type": "bytes32"
        },
        {
          "internalType": "address",
          "name": "_user",
          "type": "address"
        },
        {
          "internalType": "uint256",
          "name": "_basisMaturity",
          "type": "uint256"
        },
        {
          "internalType": "int256",
          "name": "_fvAmount",
          "type": "int256"
        }
      ],
      "name": "updateGenesisValueWithFutureValue",
      "outputs": [],
      "stateMutability": "nonpayable",
      "type": "function"
    },
    {
      "inputs": [
        {
          "internalType": "bytes32",
          "name": "_ccy",
          "type": "bytes32"
        },
        {
          "internalType": "address",
          "name": "_user",
          "type": "address"
        },
        {
          "internalType": "uint256",
          "name": "_basisMaturity",
          "type": "uint256"
        }
      ],
      "name": "updateGenesisValueWithResidualAmount",
      "outputs": [],
      "stateMutability": "nonpayable",
      "type": "function"
    }
  ],
  "transactionHash": "0x4092d154c722669ea57461518228c5a4d2a7461713e6f2d449ce9a0cb034599e",
  "args": [],
  "numDeployments": 2,
  "solcInputHash": "1e24c51bbcecda2305624c640e710cbe",
  "bytecode": "0x608060405234801561001057600080fd5b50612cf0806100206000396000f3fe608060405234801561001057600080fd5b50600436106101c45760003560e01c806388c0520e116100f9578063c4d66de811610097578063e099765911610071578063e099765914610403578063eeac29d81461040b578063f7b637bb1461041e578063ff6dfc451461043157600080fd5b8063c4d66de8146103ca578063db9b7b38146103dd578063dc6a8ce4146103f057600080fd5b8063aee1311e116100d3578063aee1311e1461037e578063c1c7ee5214610391578063c2188b64146103a4578063c3e7a7ad146103b757600080fd5b806388c0520e146103455780639af50c0014610358578063a2d7d02d1461036b57600080fd5b8063352a38a31161016657806349a1d2181161014057806349a1d218146102e75780635f18aa0c146102fa57806370c641a61461031f5780637636e9411461033257600080fd5b8063352a38a31461026a5780633d03b9da1461027d578063474611f11461029257600080fd5b806329985e5a116101a257806329985e5a146102225780632af64bd31461022c578063312c474514610244578063348183cf1461025757600080fd5b806304f3bcec146101c95780630d394667146101ee57806318612e321461020f575b600080fd5b6101d1610444565b6040516001600160a01b0390911681526020015b60405180910390f35b6102016101fc366004612651565b610465565b6040519081526020016101e5565b61020161021d366004612673565b610496565b61022a6105cb565b005b610234610778565b60405190151581526020016101e5565b61022a6102523660046126b7565b6108de565b61022a6102653660046126ef565b6109b3565b6102016102783660046126b7565b610a7b565b610285610aa9565b6040516101e59190612732565b6102a56102a0366004612651565b610b34565b6040516101e59190600060a082019050825182526020830151602083015260408301516040830152606083015160608301526080830151608083015292915050565b6102016102f5366004612776565b610bc5565b61030d610308366004612776565b610be3565b60405160ff90911681526020016101e5565b61020161032d36600461278f565b610c04565b610201610340366004612673565b610c21565b6102016103533660046127bf565b610d13565b610201610366366004612776565b610dd3565b61022a610379366004612811565b610df1565b61020161038c366004612854565b610fff565b61022a61039f366004612886565b61102f565b6102016103b2366004612776565b611076565b6102016103c536600461278f565b611094565b61022a6103d83660046128ae565b6110db565b6102016103eb366004612854565b611259565b6102016103fe366004612776565b61129d565b6102856112bb565b61022a6104193660046126b7565b61130b565b61023461042c366004612776565b6114fa565b61020161043f366004612776565b611518565b6000600080516020612c9b8339815191525b546001600160a01b0316919050565b600061046f611536565b60008481526009919091016020908152604080832085845290915290205490505b92915050565b6000806104a1611536565b6000868152600491909101602052604090205484146104e8576104c2611536565b6000868152600a91909101602090815260408083208784529091529020600101546104f1565b6104f185611518565b9050600081116105485760405162461bcd60e51b815260206004820181905260248201527f436f6d706f756e6420666163746f72206973206e6f742066697865642079657460448201526064015b60405180910390fd5b60008084139061056a826105645761055f866128e1565b611559565b85611559565b905060006105968461057b8a610be3565b61058690600a6129e2565b61059090856129f1565b906115af565b9050826105b4576105a681611620565b6105af906128e1565b6105bd565b6105bd81611620565b9450505050505b9392505050565b60006105d5610aa9565b905060005b81518110156107745760008282815181106105f7576105f7612a10565b602002602001015190506000610618600080516020612c9b83398151915290565b54604080517f5265736f6c766572206d697373696e67207461726765743a200000000000000060208201526039808201869052825180830390910181526059820192839052636795dbcd60e01b9092526001600160a01b0390921691636795dbcd9161068991869190605d01612a73565b60206040518083038186803b1580156106a157600080fd5b505afa1580156106b5573d6000803e3d6000fd5b505050506040513d601f19601f820116820180604052508101906106d99190612a8c565b60008381527f4abde63c3e81aefa5764b017968bc473e83e093d7e1a10247d19e0a3e4124019602090815260409182902080546001600160a01b0319166001600160a01b03851690811790915582518681529182015281519293507f88a93678a3692f6789d9546fc621bf7234b101ddb7d4fe479455112831b8aa68929081900390910190a15050808061076c90612aa9565b9150506105da565b5050565b600080610783610aa9565b905060005b81518110156108d55760008282815181106107a5576107a5612a10565b602002602001015190506107c4600080516020612c9b83398151915290565b600082815260019190910160205260409020546001600160a01b0316600080516020612c9b833981519152546040516321f8a72160e01b8152600481018490526001600160a01b03909116906321f8a7219060240160206040518083038186803b15801561083157600080fd5b505afa158015610845573d6000803e3d6000fd5b505050506040513d601f19601f820116820180604052508101906108699190612a8c565b6001600160a01b03161415806108b3575060008181527f4abde63c3e81aefa5764b017968bc473e83e093d7e1a10247d19e0a3e412401960205260409020546001600160a01b0316155b156108c2576000935050505090565b50806108cd81612aa9565b915050610788565b50600191505090565b6108e73361168a565b6109035760405162461bcd60e51b815260040161053f90612ac4565b600061090d611536565b600085815260099190910160209081526040808320858452909152902054905061094184848461093c856128e1565b611704565b610949611536565b600085815260099190910160209081526040808320858452909152902054156109ad5760405162461bcd60e51b8152602060048201526016602482015275526573696475616c20616d6f756e742065786973747360501b604482015260640161053f565b50505050565b6109bc3361168a565b6109d85760405162461bcd60e51b815260040161053f90612ac4565b6109e5868686868661190e565b6109f0868683611d96565b857f90675b73d2aa47e7572569090cae87a7c67eff7a715ee461bae1b0256bde7160610a1a611536565b60008981526002919091016020526040902054610a35611536565b60008a81526003919091016020908152604091829020548251938452908301528101869052606081018790526080810188905260a00160405180910390a2505050505050565b6000808215610a8a5782610a93565b610a9385610bc5565b9050610aa0858583611e50565b95945050505050565b6040805160028082526060808301845292602083019080368337019050509050762632b73234b733a6b0b935b2ba21b7b73a3937b63632b960491b81600081518110610af757610af7612a10565b6020026020010181815250506a14995cd95c9d99519d5b9960aa1b81600181518110610b2557610b25612a10565b60200260200101818152505090565b610b666040518060a0016040528060008152602001600081526020016000815260200160008152602001600081525090565b610b6e611536565b6000938452600a016020908152604080852093855292815292829020825160a08101845281548152600182015494810194909452600281015492840192909252506003810154606083015260040154608082015290565b6000610bcf611536565b600092835260040160205250604090205490565b6000610bed611536565b600092835260050160205250604090205460ff1690565b6000610c198383610c1486610bc5565b611ec1565b509392505050565b600080831580610c4a5750610c34611536565b6000868152600491909101602052604090205484145b610c7c57610c56611536565b6000868152600a9190910160209081526040808320878452909152902060010154610c85565b610c8585611518565b905060008111610cd75760405162461bcd60e51b815260206004820181905260248201527f436f6d706f756e6420666163746f72206973206e6f7420666978656420796574604482015260640161053f565b600080841390610cee826105645761055f866128e1565b90506000610596610cfe89610be3565b610d0990600a6129e2565b61059086856129f1565b6000610d1e3361168a565b610d3a5760405162461bcd60e51b815260040161053f90612ac4565b6000610d468786610c04565b90506000610d548886610c04565b9050600082131580610d67575060008112155b15610d7757600092505050610aa0565b81925081610d84826128e1565b1215610d9657610d93816128e1565b92505b8315801590610da457508383135b15610dad578392505b610dbc88878961093c876128e1565b610dc888868986611704565b505095945050505050565b6000610ddd611536565b600092835260080160205250604090205490565b610dfa3361168a565b610e165760405162461bcd60e51b815260040161053f90612ac4565b81610e635760405162461bcd60e51b815260206004820152601760248201527f436f6d706f756e6420666163746f72206973207a65726f000000000000000000604482015260640161053f565b610e6c846114fa565b15610eb95760405162461bcd60e51b815260206004820152601c60248201527f416c726561647920696e697469616c697a65642063757272656e637900000000604482015260640161053f565b6001610ec3611536565b600086815260209190915260409020805460ff191691151591909117905582610eea611536565b600086815260059190910160205260409020805460ff191660ff9290921691909117905581610f17611536565b6000868152600191909101602052604090205581610f33611536565b6000868152600291909101602052604090205581610f4f611536565b6000868152600391909101602052604090205580610f6b611536565b6000868152600491909101602052604090205581610f87611536565b6000868152600a919091016020908152604080832085845290915290206001015581610fb1611536565b6000868152600a9190910160209081526040808320858452909152902060020155612710610fdd611536565b6000958652600a01602090815260408087209387529290529320929092555050565b600080821561100e5782611017565b61101786610bc5565b905061102586868684611f15565b9695505050505050565b6110383361168a565b6110545760405162461bcd60e51b815260040161053f90612ac4565b6000611061858484610496565b905061106f85858584611704565b5050505050565b6000611080611536565b600092835260070160205250604090205490565b60006105c46110b56110a585610be3565b6110b090600a6129e2565b611620565b6110c16110b086611518565b6110cb8686610c04565b6110d59190612afb565b906120b8565b600054610100900460ff16158080156110fb5750600054600160ff909116105b806111155750303b158015611115575060005460ff166001145b6111785760405162461bcd60e51b815260206004820152602e60248201527f496e697469616c697a61626c653a20636f6e747261637420697320616c72656160448201526d191e481a5b9a5d1a585b1a5e995960921b606482015260840161053f565b6000805460ff19166001179055801561119b576000805461ff0019166101001790555b60006111a561214b565b6001600160a01b031614156112075760405162461bcd60e51b815260206004820152602260248201527f4d7573742062652063616c6c65642066726f6d2070726f787920636f6e74726160448201526118dd60f21b606482015260840161053f565b61121082612173565b8015610774576000805461ff0019169055604051600181527f7f26b83ff96e1f2b6a682f133852f6798a09c465da95921460cefb38474024989060200160405180910390a15050565b60008161126857506000611295565b82841415611277575080611295565b6000611284868685610496565b9050611291868583610c21565b9150505b949350505050565b60006112a7611536565b600092835260030160205250604090205490565b60408051600180825281830190925260609160208083019080368337019050509050762632b73234b733a6b0b935b2ba21b7b73a3937b63632b960491b81600081518110610b2557610b25612a10565b6113143361168a565b6113305760405162461bcd60e51b815260040161053f90612ac4565b6000811561133e5781611347565b61134784610bc5565b90506000611356858584611e50565b9050600081121561106f57600061136b612208565b90506113a6868361137a611536565b60008a8152600691909101602090815260408083206001600160a01b038c168452909152902054612217565b6113e7866113b3846128e1565b6113bb611536565b60008a8152600691909101602090815260408083206001600160a01b0388168452909152902054612217565b826113f0611536565b6000888152600b91909101602090815260408083206001600160a01b038a16845290915290205581611420611536565b6000888152600691909101602090815260408083206001600160a01b038a16845290915281208054909190611456908490612b80565b909155506114659050826128e1565b61146d611536565b6000888152600691909101602090815260408083206001600160a01b0386168452909152812080549091906114a3908490612b80565b90915550506001600160a01b03808216908616877f224d4ee1e2931416deb62bbde4f281397249c4a54319c43ee455efc348c13f4f6114e1866128e1565b60405190815260200160405180910390a4505050505050565b6000611504611536565b600092835260205250604090205460ff1690565b6000611522611536565b600092835260020160205250604090205490565b7eeb125d2cd445fcbd619aab5c9493ddf1b2fb2fb0a82715c79a670dddbf7d6590565b6000808212156115ab5760405162461bcd60e51b815260206004820181905260248201527f53616665436173743a2076616c7565206d75737420626520706f736974697665604482015260640161053f565b5090565b60008082116115bd57600080fd5b60056115c98385612bd7565b6115d490600a6129f1565b836115e086600a6129f1565b6115ea9190612bd7565b6115f49190612beb565b101561160b576116048284612bd7565b9050610490565b6116158284612bd7565b611604906001612c02565b60006001600160ff1b038211156115ab5760405162461bcd60e51b815260206004820152602860248201527f53616665436173743a2076616c756520646f65736e27742066697420696e2061604482015267371034b73a191a9b60c11b606482015260840161053f565b6000806116956112bb565b905060005b81518110156116fa576116c58282815181106116b8576116b8612a10565b602002602001015161242c565b6001600160a01b0316846001600160a01b031614156116e8575060019392505050565b806116f281612aa9565b91505061169a565b5060009392505050565b600080611712868686611ec1565b91509150611721868484612217565b8361172a611536565b6000888152600b91909101602090815260408083206001600160a01b038a1684529091529020558261175a611536565b6000888152600691909101602090815260408083206001600160a01b038a16845290915281208054909190611790908490612b80565b9091555083905061179f611536565b600088815260099190910160209081526040808320888452909152812080549091906117cc908490612b80565b90915550506040518381526001600160a01b0386169060009088907f224d4ee1e2931416deb62bbde4f281397249c4a54319c43ee455efc348c13f4f9060200160405180910390a46000811215611906576000611827612208565b905081611832611536565b6000898152600691909101602090815260408083206001600160a01b038b16845290915281208054909190611868908490612b80565b909155506118779050826128e1565b61187f611536565b6000898152600691909101602090815260408083206001600160a01b0386168452909152812080549091906118b5908490612b80565b90915550506001600160a01b03808216908716887f224d4ee1e2931416deb62bbde4f281397249c4a54319c43ee455efc348c13f4f6118f3866128e1565b60405190815260200160405180910390a4505b505050505050565b8161194f5760405162461bcd60e51b8152602060048201526011602482015270756e69745072696365206973207a65726f60781b604482015260640161053f565b6127108111156119945760405162461bcd60e51b815260206004820152601060248201526f496e76616c696420666565207261746560801b604482015260640161053f565b61199c611536565b6000868152600a919091016020908152604080832087845290915290206003015415611a0a5760405162461bcd60e51b815260206004820152601860248201527f616c72656164792075706461746564206d617475726974790000000000000000604482015260640161053f565b838311611a4c5760405162461bcd60e51b815260206004820152601060248201526f696e76616c6964206d6174757269747960801b604482015260640161053f565b611a54611536565b6000868152600a919091016020908152604080832086845290915290206001015415611ab55760405162461bcd60e51b815260206004820152601060248201526f45786973746564206d6174757269747960801b604482015260640161053f565b611abd611536565b6000868152600a9190910160209081526040808320878452909152902060010154611b2a5760405162461bcd60e51b815260206004820152601f60248201527f496e76616c6964206c656e64696e6720636f6d706f756e6420666163746f7200604482015260640161053f565b611b32611536565b6000868152600a9190910160209081526040808320878452909152902060020154611ba95760405162461bcd60e51b815260206004820152602160248201527f496e76616c696420626f72726f77696e6720636f6d706f756e6420666163746f6044820152603960f91b606482015260840161053f565b82611bb2611536565b6000878152600a9190910160209081526040808320888452909152902060030155611bdf826127106129f1565b611be983836129f1565b611bf5612710806129f1565b611bff9190612beb565b611c07611536565b60008881526002919091016020526040902054611c2491906129f1565b611c2e9190612bd7565b611c36611536565b60008781526002919091016020526040902055611c55826127106129f1565b611c5f83836129f1565b611c6b612710806129f1565b611c759190612c02565b611c7d611536565b60008881526003919091016020526040902054611c9a91906129f1565b611ca49190612bd7565b611cac611536565b6000878152600391909101602052604090205582611cc8611536565b6004016000878152602001908152602001600020819055506040518060a00160405280838152602001611cf9611536565b6002016000888152602001908152602001600020548152602001611d1b611536565b60030160008881526020019081526020016000205481526020016000815260200185815250611d48611536565b6000968752600a016020908152604080882095885294815295849020815181559581015160018701559283015160028601555050606081015160038401556080015160049092019190915550565b611d9e611536565b6000848152600c919091016020908152604080832085845290915290205415611dfe5760405162461bcd60e51b8152602060048201526012602482015271105b1c9958591e481c9959da5cdd195c995960721b604482015260640161053f565b611e28611e0a84611518565b611e1385610be3565b611e1e90600a6129e2565b61059090846129f1565b611e30611536565b6000948552600c0160209081526040808620948652939052919092205550565b600080611e5b611536565b6000868152600691909101602090815260408083206001600160a01b03881684529091528120549150611e8c611536565b6000878152600b91909101602090815260408083206001600160a01b0389168452909152902054905061102586838387611f15565b600080611ecf858585611e50565b905080611eda611536565b6000878152600691909101602090815260408083206001600160a01b0389168452909152902054611f0b9190612b80565b9150935093915050565b60008084121580611f265750828211155b80611f2f575082155b15611f3c57506000611295565b6000611f46611536565b6000878152600a91909101602090815260408083208784528252808320815160a081018352815481526001820154938101939093526002810154918301919091526003810154606083015260040154608082015291508080611fa789610bc5565b905080861115611fbe576000945050505050611295565b8086141561200557611fce611536565b60008a815260039190910160205260409020549250611feb611536565b60008a81526002919091016020526040902054915061206c565b600061200f611536565b60008b8152600a91909101602090815260408083208a8452825291829020825160a0810184528154815260018201549281018390526002820154938101849052600382015460608201526004909101546080909101529094509250505b876120986110b061208d61208261055f856128e1565b878960400151612437565b876020015186612437565b6120a1906128e1565b6120ab9190612c1a565b9998505050505050505050565b6000816120c457600080fd5b60006120d08385612c59565b6120db90600a612afb565b836120e786600a612afb565b6120f19190612c59565b6120fb9190612c1a565b9050600581126121225761210f8385612c59565b61211a906001612b80565b915050610490565b60041981136121415760016121378486612c59565b61211a9190612c1a565b61211a8385612c59565b60007f360894a13ba1a3210667c828492db98dca3e2076cc3735a920a3ca505d382bbc610456565b600080516020612c9b833981519152546001600160a01b0316156121d95760405162461bcd60e51b815260206004820152601b60248201527f7265736f6c766572207265676973746572656420616c72656164790000000000604482015260640161053f565b600080516020612c9b83398151915280546001600160a01b0319166001600160a01b0392909216919091179055565b60006122126125a4565b905090565b6000821261233557600061222a83611559565b90506000821261226b578061223d611536565b600701600086815260200190815260200160002060008282546122609190612c02565b909155506109ad9050565b60006122778385612b80565b9050600081126122fd5761228a81611559565b612292611536565b600701600087815260200190815260200160002060008282546122b59190612c02565b909155506122c7905061055f846128e1565b6122cf611536565b600801600087815260200190815260200160002060008282546122f29190612beb565b9091555061106f9050565b81612306611536565b600801600087815260200190815260200160002060008282546123299190612beb565b90915550505050505050565b600061234361055f846128e1565b9050600082136123795780612356611536565b600801600086815260200190815260200160002060008282546122609190612c02565b60006123858385612b80565b9050600081136124005761239b61055f826128e1565b6123a3611536565b600801600087815260200190815260200160002060008282546123c69190612c02565b909155506123d5905083611559565b6123dd611536565b600701600087815260200190815260200160002060008282546122f29190612beb565b81612409611536565b600701600087815260200190815260200160002060008282546123299190612beb565b6000610490826125b9565b600080806000198587098587029250828110838203039150508060001415612471576000841161246657600080fd5b5082900490506105c4565b80841161247d57600080fd5b600084868809808403938111909203919050600061249d86196001612c02565b86169586900495938490049360008190030460010190506124be81846129f1565b9093179260006124cf8760036129f1565b60021890506124de81886129f1565b6124e9906002612beb565b6124f390826129f1565b90506124ff81886129f1565b61250a906002612beb565b61251490826129f1565b905061252081886129f1565b61252b906002612beb565b61253590826129f1565b905061254181886129f1565b61254c906002612beb565b61255690826129f1565b905061256281886129f1565b61256d906002612beb565b61257790826129f1565b905061258381886129f1565b61258e906002612beb565b61259890826129f1565b90506120ab81866129f1565b60006122126a14995cd95c9d99519d5b9960aa1b5b60008181527f4abde63c3e81aefa5764b017968bc473e83e093d7e1a10247d19e0a3e41240196020908152604080832054815170026b4b9b9b4b7339030b2323932b9b99d1607d1b9381019390935260318084018690528251808503909101815260519093019091526001600160a01b0316908161264a5760405162461bcd60e51b815260040161053f9190612c87565b5092915050565b6000806040838503121561266457600080fd5b50508035926020909101359150565b60008060006060848603121561268857600080fd5b505081359360208301359350604090920135919050565b6001600160a01b03811681146126b457600080fd5b50565b6000806000606084860312156126cc57600080fd5b8335925060208401356126de8161269f565b929592945050506040919091013590565b60008060008060008060c0878903121561270857600080fd5b505084359660208601359650604086013595606081013595506080810135945060a0013592509050565b6020808252825182820181905260009190848201906040850190845b8181101561276a5783518352928401929184019160010161274e565b50909695505050505050565b60006020828403121561278857600080fd5b5035919050565b600080604083850312156127a257600080fd5b8235915060208301356127b48161269f565b809150509250929050565b600080600080600060a086880312156127d757600080fd5b853594506020860135935060408601356127f08161269f565b925060608601356128008161269f565b949793965091946080013592915050565b6000806000806080858703121561282757600080fd5b84359350602085013560ff8116811461283f57600080fd5b93969395505050506040820135916060013590565b6000806000806080858703121561286a57600080fd5b5050823594602084013594506040840135936060013592509050565b6000806000806080858703121561289c57600080fd5b84359350602085013561283f8161269f565b6000602082840312156128c057600080fd5b81356105c48161269f565b634e487b7160e01b600052601160045260246000fd5b6000600160ff1b8214156128f7576128f76128cb565b5060000390565b600181815b8085111561293957816000190482111561291f5761291f6128cb565b8085161561292c57918102915b93841c9390800290612903565b509250929050565b60008261295057506001610490565b8161295d57506000610490565b8160018114612973576002811461297d57612999565b6001915050610490565b60ff84111561298e5761298e6128cb565b50506001821b610490565b5060208310610133831016604e8410600b84101617156129bc575081810a610490565b6129c683836128fe565b80600019048211156129da576129da6128cb565b029392505050565b60006105c460ff841683612941565b6000816000190483118215151615612a0b57612a0b6128cb565b500290565b634e487b7160e01b600052603260045260246000fd5b6000815180845260005b81811015612a4c57602081850181015186830182015201612a30565b81811115612a5e576000602083870101525b50601f01601f19169290920160200192915050565b8281526040602082015260006112956040830184612a26565b600060208284031215612a9e57600080fd5b81516105c48161269f565b6000600019821415612abd57612abd6128cb565b5060010190565b60208082526017908201527f4f6e6c7920416363657074656420436f6e747261637473000000000000000000604082015260600190565b60006001600160ff1b0381841382841380821686840486111615612b2157612b216128cb565b600160ff1b6000871282811687830589121615612b4057612b406128cb565b60008712925087820587128484161615612b5c57612b5c6128cb565b87850587128184161615612b7257612b726128cb565b505050929093029392505050565b600080821280156001600160ff1b0384900385131615612ba257612ba26128cb565b600160ff1b8390038412811615612bbb57612bbb6128cb565b50500190565b634e487b7160e01b600052601260045260246000fd5b600082612be657612be6612bc1565b500490565b600082821015612bfd57612bfd6128cb565b500390565b60008219821115612c1557612c156128cb565b500190565b60008083128015600160ff1b850184121615612c3857612c386128cb565b6001600160ff1b0384018313811615612c5357612c536128cb565b50500390565b600082612c6857612c68612bc1565b600160ff1b821460001984141615612c8257612c826128cb565b500590565b6020815260006105c46020830184612a2656fe4abde63c3e81aefa5764b017968bc473e83e093d7e1a10247d19e0a3e4124018a2646970667358221220eb5b48d05d80afed52dd62344fc21a4fcfc1345281ffdba3a82ca5cb93df420964736f6c63430008090033",
  "implementation": "0x2951820b712505dda29F2ecE07FBc42309e107C1",
  "devdoc": {
    "kind": "dev",
    "methods": {
      "acceptedContracts()": {
        "details": "The contact name listed in this method is also needed to be listed `requiredContracts` method."
      },
      "initialize(address)": {
        "details": "Function is invoked by the proxy contract when the contract is added to the ProxyController.",
        "params": {
          "_resolver": "The address of the Address Resolver contract"
        }
      },
      "requiredContracts()": {
        "details": "The contract name list is in `./libraries/Contracts.sol`."
      }
    },
    "version": 1
  },
  "userdoc": {
    "kind": "user",
    "methods": {
      "acceptedContracts()": {
        "notice": "Returns contract names that can call this contract."
      },
      "initialize(address)": {
        "notice": "Initializes the contract."
      },
      "requiredContracts()": {
        "notice": "Returns the contract names used in this contract."
      }
    },
    "notice": "Implements the management of the genesis value as an amount for Lending deals.",
    "version": 1
  },
  "storageLayout": {
    "storage": [
      {
        "astId": 1183,
        "contract": "contracts/GenesisValueVault.sol:GenesisValueVault",
        "label": "_initialized",
        "offset": 0,
        "slot": "0",
        "type": "t_uint8"
      },
      {
        "astId": 1186,
        "contract": "contracts/GenesisValueVault.sol:GenesisValueVault",
        "label": "_initializing",
        "offset": 1,
        "slot": "0",
        "type": "t_bool"
      }
    ],
    "types": {
      "t_bool": {
        "encoding": "inplace",
        "label": "bool",
        "numberOfBytes": "1"
      },
      "t_uint8": {
        "encoding": "inplace",
        "label": "uint8",
        "numberOfBytes": "1"
      }
    }
  }
}