{
  "address": "0xee277e22e55b3CF83A9DFA44711d77e600E670a6",
  "abi": [
    {
      "anonymous": false,
      "inputs": [
        {
          "indexed": true,
          "internalType": "bytes32",
          "name": "ccy",
          "type": "bytes32"
        },
        {
          "indexed": false,
          "internalType": "uint256",
          "name": "lendingCompoundFactor",
          "type": "uint256"
        },
        {
          "indexed": false,
          "internalType": "uint256",
          "name": "borrowingCompoundFactor",
          "type": "uint256"
        },
        {
          "indexed": false,
          "internalType": "uint256",
          "name": "unitPrice",
          "type": "uint256"
        },
        {
          "indexed": false,
          "internalType": "uint256",
          "name": "currentMaturity",
          "type": "uint256"
        },
        {
          "indexed": false,
          "internalType": "uint256",
          "name": "previousMaturity",
          "type": "uint256"
        }
      ],
      "name": "AutoRollExecuted",
      "type": "event"
    },
    {
      "anonymous": false,
      "inputs": [
        {
          "indexed": false,
          "internalType": "bytes32",
          "name": "name",
          "type": "bytes32"
        },
        {
          "indexed": false,
          "internalType": "address",
          "name": "destination",
          "type": "address"
        }
      ],
      "name": "CacheUpdated",
      "type": "event"
    },
    {
      "anonymous": false,
      "inputs": [
        {
          "indexed": false,
          "internalType": "uint8",
          "name": "version",
          "type": "uint8"
        }
      ],
      "name": "Initialized",
      "type": "event"
    },
    {
      "anonymous": false,
      "inputs": [
        {
          "indexed": true,
          "internalType": "bytes32",
          "name": "ccy",
          "type": "bytes32"
        },
        {
          "indexed": true,
          "internalType": "address",
          "name": "from",
          "type": "address"
        },
        {
          "indexed": true,
          "internalType": "address",
          "name": "to",
          "type": "address"
        },
        {
          "indexed": false,
          "internalType": "int256",
          "name": "value",
          "type": "int256"
        }
      ],
      "name": "Transfer",
      "type": "event"
    },
    {
      "inputs": [],
      "name": "acceptedContracts",
      "outputs": [
        {
          "internalType": "bytes32[]",
          "name": "contracts",
          "type": "bytes32[]"
        }
      ],
      "stateMutability": "pure",
      "type": "function"
    },
    {
      "inputs": [],
      "name": "buildCache",
      "outputs": [],
      "stateMutability": "nonpayable",
      "type": "function"
    },
    {
      "inputs": [
        {
          "internalType": "bytes32",
          "name": "_ccy",
          "type": "bytes32"
        },
        {
          "internalType": "int256",
          "name": "_balance",
          "type": "int256"
        },
        {
          "internalType": "uint256",
          "name": "_fromMaturity",
          "type": "uint256"
        },
        {
          "internalType": "uint256",
          "name": "_toMaturity",
          "type": "uint256"
        }
      ],
      "name": "calculateBalanceFluctuationByAutoRolls",
      "outputs": [
        {
          "internalType": "int256",
          "name": "fluctuation",
          "type": "int256"
        }
      ],
      "stateMutability": "view",
      "type": "function"
    },
    {
      "inputs": [
        {
          "internalType": "bytes32",
          "name": "_ccy",
          "type": "bytes32"
        },
        {
          "internalType": "uint256",
          "name": "_basisMaturity",
          "type": "uint256"
        },
        {
          "internalType": "uint256",
          "name": "_destinationMaturity",
          "type": "uint256"
        },
        {
          "internalType": "int256",
          "name": "_futureValue",
          "type": "int256"
        }
      ],
      "name": "calculateFVFromFV",
      "outputs": [
        {
          "internalType": "int256",
          "name": "",
          "type": "int256"
        }
      ],
      "stateMutability": "view",
      "type": "function"
    },
    {
      "inputs": [
        {
          "internalType": "bytes32",
          "name": "_ccy",
          "type": "bytes32"
        },
        {
          "internalType": "uint256",
          "name": "_basisMaturity",
          "type": "uint256"
        },
        {
          "internalType": "int256",
          "name": "_genesisValue",
          "type": "int256"
        }
      ],
      "name": "calculateFVFromGV",
      "outputs": [
        {
          "internalType": "int256",
          "name": "",
          "type": "int256"
        }
      ],
      "stateMutability": "view",
      "type": "function"
    },
    {
      "inputs": [
        {
          "internalType": "bytes32",
          "name": "_ccy",
          "type": "bytes32"
        },
        {
          "internalType": "uint256",
          "name": "_basisMaturity",
          "type": "uint256"
        },
        {
          "internalType": "int256",
          "name": "_futureValue",
          "type": "int256"
        }
      ],
      "name": "calculateGVFromFV",
      "outputs": [
        {
          "internalType": "int256",
          "name": "",
          "type": "int256"
        }
      ],
      "stateMutability": "view",
      "type": "function"
    },
    {
      "inputs": [
        {
          "internalType": "bytes32",
          "name": "_ccy",
          "type": "bytes32"
        },
        {
          "internalType": "address",
          "name": "_user",
          "type": "address"
        },
        {
          "internalType": "uint256",
          "name": "_maturity",
          "type": "uint256"
        }
      ],
      "name": "cleanUpGenesisValue",
      "outputs": [],
      "stateMutability": "nonpayable",
      "type": "function"
    },
    {
      "inputs": [
        {
          "internalType": "bytes32",
          "name": "_ccy",
          "type": "bytes32"
        }
      ],
      "name": "decimals",
      "outputs": [
        {
          "internalType": "uint8",
          "name": "",
          "type": "uint8"
        }
      ],
      "stateMutability": "view",
      "type": "function"
    },
    {
      "inputs": [
        {
          "internalType": "bytes32",
          "name": "_ccy",
          "type": "bytes32"
        },
        {
          "internalType": "uint256",
          "name": "_maturity",
          "type": "uint256"
        },
        {
          "internalType": "uint256",
          "name": "_nextMaturity",
          "type": "uint256"
        },
        {
          "internalType": "uint256",
          "name": "_unitPrice",
          "type": "uint256"
        },
        {
          "internalType": "uint256",
          "name": "_feeRate",
          "type": "uint256"
        },
        {
          "internalType": "uint256",
          "name": "_totalFVAmount",
          "type": "uint256"
        }
      ],
      "name": "executeAutoRoll",
      "outputs": [],
      "stateMutability": "nonpayable",
      "type": "function"
    },
    {
      "inputs": [
        {
          "internalType": "bytes32",
          "name": "_ccy",
          "type": "bytes32"
        },
        {
          "internalType": "uint256",
          "name": "_maturity",
          "type": "uint256"
        }
      ],
      "name": "getAutoRollLog",
      "outputs": [
        {
          "components": [
            {
              "internalType": "uint256",
              "name": "unitPrice",
              "type": "uint256"
            },
            {
              "internalType": "uint256",
              "name": "lendingCompoundFactor",
              "type": "uint256"
            },
            {
              "internalType": "uint256",
              "name": "borrowingCompoundFactor",
              "type": "uint256"
            },
            {
              "internalType": "uint256",
              "name": "next",
              "type": "uint256"
            },
            {
              "internalType": "uint256",
              "name": "prev",
              "type": "uint256"
            }
          ],
          "internalType": "struct AutoRollLog",
          "name": "",
          "type": "tuple"
        }
      ],
      "stateMutability": "view",
      "type": "function"
    },
    {
      "inputs": [
        {
          "internalType": "bytes32",
          "name": "_ccy",
          "type": "bytes32"
        },
        {
          "internalType": "address",
          "name": "_user",
          "type": "address"
        },
        {
          "internalType": "uint256",
          "name": "_maturity",
          "type": "uint256"
        }
      ],
      "name": "getBalanceFluctuationByAutoRolls",
      "outputs": [
        {
          "internalType": "int256",
          "name": "fluctuation",
          "type": "int256"
        }
      ],
      "stateMutability": "view",
      "type": "function"
    },
    {
      "inputs": [
        {
          "internalType": "bytes32",
          "name": "_ccy",
          "type": "bytes32"
        }
      ],
      "name": "getBorrowingCompoundFactor",
      "outputs": [
        {
          "internalType": "uint256",
          "name": "",
          "type": "uint256"
        }
      ],
      "stateMutability": "view",
      "type": "function"
    },
    {
      "inputs": [
        {
          "internalType": "bytes32",
          "name": "_ccy",
          "type": "bytes32"
        }
      ],
      "name": "getCurrentMaturity",
      "outputs": [
        {
          "internalType": "uint256",
          "name": "",
          "type": "uint256"
        }
      ],
      "stateMutability": "view",
      "type": "function"
    },
    {
      "inputs": [
        {
          "internalType": "bytes32",
          "name": "_ccy",
          "type": "bytes32"
        },
        {
          "internalType": "address",
          "name": "_user",
          "type": "address"
        }
      ],
      "name": "getGenesisValue",
      "outputs": [
        {
          "internalType": "int256",
          "name": "",
          "type": "int256"
        }
      ],
      "stateMutability": "view",
      "type": "function"
    },
    {
      "inputs": [
        {
          "internalType": "bytes32",
          "name": "_ccy",
          "type": "bytes32"
        },
        {
          "internalType": "address",
          "name": "_user",
          "type": "address"
        }
      ],
      "name": "getGenesisValueInFutureValue",
      "outputs": [
        {
          "internalType": "int256",
          "name": "",
          "type": "int256"
        }
      ],
      "stateMutability": "view",
      "type": "function"
    },
    {
      "inputs": [
        {
          "internalType": "bytes32",
          "name": "_ccy",
          "type": "bytes32"
        }
      ],
      "name": "getLatestAutoRollLog",
      "outputs": [
        {
          "components": [
            {
              "internalType": "uint256",
              "name": "unitPrice",
              "type": "uint256"
            },
            {
              "internalType": "uint256",
              "name": "lendingCompoundFactor",
              "type": "uint256"
            },
            {
              "internalType": "uint256",
              "name": "borrowingCompoundFactor",
              "type": "uint256"
            },
            {
              "internalType": "uint256",
              "name": "next",
              "type": "uint256"
            },
            {
              "internalType": "uint256",
              "name": "prev",
              "type": "uint256"
            }
          ],
          "internalType": "struct AutoRollLog",
          "name": "",
          "type": "tuple"
        }
      ],
      "stateMutability": "view",
      "type": "function"
    },
    {
      "inputs": [
        {
          "internalType": "bytes32",
          "name": "_ccy",
          "type": "bytes32"
        }
      ],
      "name": "getLendingCompoundFactor",
      "outputs": [
        {
          "internalType": "uint256",
          "name": "",
          "type": "uint256"
        }
      ],
      "stateMutability": "view",
      "type": "function"
    },
    {
      "inputs": [
        {
          "internalType": "bytes32",
          "name": "_ccy",
          "type": "bytes32"
        },
        {
          "internalType": "uint256",
          "name": "_maturity",
          "type": "uint256"
        }
      ],
      "name": "getMaturityGenesisValue",
      "outputs": [
        {
          "internalType": "int256",
          "name": "",
          "type": "int256"
        }
      ],
      "stateMutability": "view",
      "type": "function"
    },
    {
      "inputs": [
        {
          "internalType": "bytes32",
          "name": "_ccy",
          "type": "bytes32"
        }
      ],
      "name": "getTotalBorrowingSupply",
      "outputs": [
        {
          "internalType": "uint256",
          "name": "",
          "type": "uint256"
        }
      ],
      "stateMutability": "view",
      "type": "function"
    },
    {
      "inputs": [
        {
          "internalType": "bytes32",
          "name": "_ccy",
          "type": "bytes32"
        }
      ],
      "name": "getTotalLendingSupply",
      "outputs": [
        {
          "internalType": "uint256",
          "name": "",
          "type": "uint256"
        }
      ],
      "stateMutability": "view",
      "type": "function"
    },
    {
      "inputs": [
        {
          "internalType": "address",
          "name": "_resolver",
          "type": "address"
        }
      ],
      "name": "initialize",
      "outputs": [],
      "stateMutability": "nonpayable",
      "type": "function"
    },
    {
      "inputs": [
        {
          "internalType": "bytes32",
          "name": "_ccy",
          "type": "bytes32"
        },
        {
          "internalType": "uint8",
          "name": "_decimals",
          "type": "uint8"
        },
        {
          "internalType": "uint256",
          "name": "_compoundFactor",
          "type": "uint256"
        },
        {
          "internalType": "uint256",
          "name": "_maturity",
          "type": "uint256"
        }
      ],
      "name": "initializeCurrencySetting",
      "outputs": [],
      "stateMutability": "nonpayable",
      "type": "function"
    },
    {
      "inputs": [
        {
          "internalType": "bytes32",
          "name": "_ccy",
          "type": "bytes32"
        }
      ],
      "name": "isInitialized",
      "outputs": [
        {
          "internalType": "bool",
          "name": "",
          "type": "bool"
        }
      ],
      "stateMutability": "view",
      "type": "function"
    },
    {
      "inputs": [],
      "name": "isResolverCached",
      "outputs": [
        {
          "internalType": "bool",
          "name": "",
          "type": "bool"
        }
      ],
      "stateMutability": "view",
      "type": "function"
    },
    {
      "inputs": [
        {
          "internalType": "bytes32",
          "name": "_ccy",
          "type": "bytes32"
        },
        {
          "internalType": "uint256",
          "name": "_maturity",
          "type": "uint256"
        },
        {
          "internalType": "address",
          "name": "_lender",
          "type": "address"
        },
        {
          "internalType": "address",
          "name": "_borrower",
          "type": "address"
        },
        {
          "internalType": "int256",
          "name": "_maximumGVAmount",
          "type": "int256"
        }
      ],
      "name": "offsetGenesisValue",
      "outputs": [
        {
          "internalType": "int256",
          "name": "offsetAmount",
          "type": "int256"
        }
      ],
      "stateMutability": "nonpayable",
      "type": "function"
    },
    {
      "inputs": [],
      "name": "requiredContracts",
      "outputs": [
        {
          "internalType": "bytes32[]",
          "name": "contracts",
          "type": "bytes32[]"
        }
      ],
      "stateMutability": "pure",
      "type": "function"
    },
    {
      "inputs": [],
      "name": "resolver",
      "outputs": [
        {
          "internalType": "contract IAddressResolver",
          "name": "",
          "type": "address"
        }
      ],
      "stateMutability": "view",
      "type": "function"
    },
    {
      "inputs": [
        {
          "internalType": "bytes32",
          "name": "_ccy",
          "type": "bytes32"
        },
        {
          "internalType": "address",
          "name": "_user",
          "type": "address"
        },
        {
          "internalType": "uint256",
          "name": "_basisMaturity",
          "type": "uint256"
        },
        {
          "internalType": "int256",
          "name": "_fvAmount",
          "type": "int256"
        }
      ],
      "name": "updateGenesisValueWithFutureValue",
      "outputs": [],
      "stateMutability": "nonpayable",
      "type": "function"
    },
    {
      "inputs": [
        {
          "internalType": "bytes32",
          "name": "_ccy",
          "type": "bytes32"
        },
        {
          "internalType": "address",
          "name": "_user",
          "type": "address"
        },
        {
          "internalType": "uint256",
          "name": "_basisMaturity",
          "type": "uint256"
        }
      ],
      "name": "updateGenesisValueWithResidualAmount",
      "outputs": [],
      "stateMutability": "nonpayable",
      "type": "function"
    }
  ],
  "transactionHash": "0x26e7a7660af7d0c921b86d1361b1293c26c5f8969ef08cbaa3fe97c244025e3f",
  "args": [],
  "numDeployments": 6,
  "solcInputHash": "a58832c4d44af4e2e79c8873b8be9904",
  "bytecode": "0x608060405234801561001057600080fd5b50612dd9806100206000396000f3fe608060405234801561001057600080fd5b50600436106101cf5760003560e01c806388c0520e11610104578063c4d66de8116100a2578063e099765911610071578063e099765914610421578063eeac29d814610429578063f7b637bb1461043c578063ff6dfc451461044f57600080fd5b8063c4d66de8146103d5578063d637c15f146103e8578063db9b7b38146103fb578063dc6a8ce41461040e57600080fd5b8063aee1311e116100de578063aee1311e14610389578063c1c7ee521461039c578063c2188b64146103af578063c3e7a7ad146103c257600080fd5b806388c0520e146103505780639af50c0014610363578063a2d7d02d1461037657600080fd5b8063352a38a31161017157806349a1d2181161014b57806349a1d218146102f25780635f18aa0c1461030557806370c641a61461032a5780637636e9411461033d57600080fd5b8063352a38a3146102755780633d03b9da14610288578063474611f11461029d57600080fd5b806329985e5a116101ad57806329985e5a1461022d5780632af64bd314610237578063312c47451461024f578063348183cf1461026257600080fd5b806304f3bcec146101d45780630d394667146101f957806318612e321461021a575b600080fd5b6101dc610462565b6040516001600160a01b0390911681526020015b60405180910390f35b61020c61020736600461273a565b610483565b6040519081526020016101f0565b61020c61022836600461275c565b6104b4565b6102356105e9565b005b61023f610796565b60405190151581526020016101f0565b61023561025d3660046127a0565b6108fc565b6102356102703660046127d8565b6109d1565b61020c6102833660046127a0565b610a99565b610290610ac7565b6040516101f0919061281b565b6102b06102ab36600461273a565b610b52565b6040516101f09190600060a082019050825182526020830151602083015260408301516040830152606083015160608301526080830151608083015292915050565b61020c61030036600461285f565b610be3565b61031861031336600461285f565b610c01565b60405160ff90911681526020016101f0565b61020c610338366004612878565b610c22565b61020c61034b36600461275c565b610c49565b61020c61035e3660046128a8565b610d3b565b61020c61037136600461285f565b610dfb565b6102356103843660046128fa565b610e19565b61020c61039736600461293d565b611027565b6102356103aa36600461296f565b611057565b61020c6103bd36600461285f565b61109e565b61020c6103d0366004612878565b6110bc565b6102356103e3366004612997565b611103565b6102b06103f636600461285f565b611281565b61020c61040936600461293d565b61133d565b61020c61041c36600461285f565b611381565b61029061139f565b6102356104373660046127a0565b6113ef565b61023f61044a36600461285f565b6115de565b61020c61045d36600461285f565b6115fc565b6000600080516020612d848339815191525b546001600160a01b0316919050565b600061048d61161a565b60008481526009919091016020908152604080832085845290915290205490505b92915050565b6000806104bf61161a565b600086815260049190910160205260409020548414610506576104e061161a565b6000868152600a919091016020908152604080832087845290915290206001015461050f565b61050f856115fc565b9050600081116105665760405162461bcd60e51b815260206004820181905260248201527f436f6d706f756e6420666163746f72206973206e6f742066697865642079657460448201526064015b60405180910390fd5b600080841390610588826105825761057d866129ca565b61163d565b8561163d565b905060006105b4846105998a610c01565b6105a490600a612acb565b6105ae9085612ada565b90611693565b9050826105d2576105c481611704565b6105cd906129ca565b6105db565b6105db81611704565b9450505050505b9392505050565b60006105f3610ac7565b905060005b815181101561079257600082828151811061061557610615612af9565b602002602001015190506000610636600080516020612d8483398151915290565b54604080517f5265736f6c766572206d697373696e67207461726765743a200000000000000060208201526039808201869052825180830390910181526059820192839052636795dbcd60e01b9092526001600160a01b0390921691636795dbcd916106a791869190605d01612b5c565b60206040518083038186803b1580156106bf57600080fd5b505afa1580156106d3573d6000803e3d6000fd5b505050506040513d601f19601f820116820180604052508101906106f79190612b75565b60008381527f4abde63c3e81aefa5764b017968bc473e83e093d7e1a10247d19e0a3e4124019602090815260409182902080546001600160a01b0319166001600160a01b03851690811790915582518681529182015281519293507f88a93678a3692f6789d9546fc621bf7234b101ddb7d4fe479455112831b8aa68929081900390910190a15050808061078a90612b92565b9150506105f8565b5050565b6000806107a1610ac7565b905060005b81518110156108f35760008282815181106107c3576107c3612af9565b602002602001015190506107e2600080516020612d8483398151915290565b600082815260019190910160205260409020546001600160a01b0316600080516020612d84833981519152546040516321f8a72160e01b8152600481018490526001600160a01b03909116906321f8a7219060240160206040518083038186803b15801561084f57600080fd5b505afa158015610863573d6000803e3d6000fd5b505050506040513d601f19601f820116820180604052508101906108879190612b75565b6001600160a01b03161415806108d1575060008181527f4abde63c3e81aefa5764b017968bc473e83e093d7e1a10247d19e0a3e412401960205260409020546001600160a01b0316155b156108e0576000935050505090565b50806108eb81612b92565b9150506107a6565b50600191505090565b6109053361176e565b6109215760405162461bcd60e51b815260040161055d90612bad565b600061092b61161a565b600085815260099190910160209081526040808320858452909152902054905061095f84848461095a856129ca565b6117e8565b61096761161a565b600085815260099190910160209081526040808320858452909152902054156109cb5760405162461bcd60e51b8152602060048201526016602482015275526573696475616c20616d6f756e742065786973747360501b604482015260640161055d565b50505050565b6109da3361176e565b6109f65760405162461bcd60e51b815260040161055d90612bad565b610a038686868686611a05565b610a0e868683611e8d565b857f90675b73d2aa47e7572569090cae87a7c67eff7a715ee461bae1b0256bde7160610a3861161a565b60008981526002919091016020526040902054610a5361161a565b60008a81526003919091016020908152604091829020548251938452908301528101869052606081018790526080810188905260a00160405180910390a2505050505050565b6000808215610aa85782610ab1565b610ab185610be3565b9050610abe858583611f47565b95945050505050565b6040805160028082526060808301845292602083019080368337019050509050762632b73234b733a6b0b935b2ba21b7b73a3937b63632b960491b81600081518110610b1557610b15612af9565b6020026020010181815250506a14995cd95c9d99519d5b9960aa1b81600181518110610b4357610b43612af9565b60200260200101818152505090565b610b846040518060a0016040528060008152602001600081526020016000815260200160008152602001600081525090565b610b8c61161a565b6000938452600a016020908152604080852093855292815292829020825160a08101845281548152600182015494810194909452600281015492840192909252506003810154606083015260040154608082015290565b6000610bed61161a565b600092835260040160205250604090205490565b6000610c0b61161a565b600092835260050160205250604090205460ff1690565b6000806000610c3a8585610c3588610be3565b611fb8565b9092509050610abe8183612be4565b600080831580610c725750610c5c61161a565b6000868152600491909101602052604090205484145b610ca457610c7e61161a565b6000868152600a9190910160209081526040808320878452909152902060010154610cad565b610cad856115fc565b905060008111610cff5760405162461bcd60e51b815260206004820181905260248201527f436f6d706f756e6420666163746f72206973206e6f7420666978656420796574604482015260640161055d565b600080841390610d16826105825761057d866129ca565b905060006105b4610d2689610c01565b610d3190600a612acb565b6105ae8685612ada565b6000610d463361176e565b610d625760405162461bcd60e51b815260040161055d90612bad565b6000610d6e8786610c22565b90506000610d7c8886610c22565b9050600082131580610d8f575060008112155b15610d9f57600092505050610abe565b81925081610dac826129ca565b1215610dbe57610dbb816129ca565b92505b8315801590610dcc57508383135b15610dd5578392505b610de488878961095a876129ca565b610df0888689866117e8565b505095945050505050565b6000610e0561161a565b600092835260080160205250604090205490565b610e223361176e565b610e3e5760405162461bcd60e51b815260040161055d90612bad565b81610e8b5760405162461bcd60e51b815260206004820152601760248201527f436f6d706f756e6420666163746f72206973207a65726f000000000000000000604482015260640161055d565b610e94846115de565b15610ee15760405162461bcd60e51b815260206004820152601c60248201527f416c726561647920696e697469616c697a65642063757272656e637900000000604482015260640161055d565b6001610eeb61161a565b600086815260209190915260409020805460ff191691151591909117905582610f1261161a565b600086815260059190910160205260409020805460ff191660ff9290921691909117905581610f3f61161a565b6000868152600191909101602052604090205581610f5b61161a565b6000868152600291909101602052604090205581610f7761161a565b6000868152600391909101602052604090205580610f9361161a565b6000868152600491909101602052604090205581610faf61161a565b6000868152600a919091016020908152604080832085845290915290206001015581610fd961161a565b6000868152600a919091016020908152604080832085845290915290206002015561271061100561161a565b6000958652600a01602090815260408087209387529290529320929092555050565b6000808215611036578261103f565b61103f86610be3565b905061104d86868684611ffe565b9695505050505050565b6110603361176e565b61107c5760405162461bcd60e51b815260040161055d90612bad565b60006110898584846104b4565b9050611097858585846117e8565b5050505050565b60006110a861161a565b600092835260070160205250604090205490565b60006105e26110dd6110cd85610c01565b6110d890600a612acb565b611704565b6110e96110d8866115fc565b6110f38686610c22565b6110fd9190612c25565b906121a1565b600054610100900460ff16158080156111235750600054600160ff909116105b8061113d5750303b15801561113d575060005460ff166001145b6111a05760405162461bcd60e51b815260206004820152602e60248201527f496e697469616c697a61626c653a20636f6e747261637420697320616c72656160448201526d191e481a5b9a5d1a585b1a5e995960921b606482015260840161055d565b6000805460ff1916600117905580156111c3576000805461ff0019166101001790555b60006111cd612234565b6001600160a01b0316141561122f5760405162461bcd60e51b815260206004820152602260248201527f4d7573742062652063616c6c65642066726f6d2070726f787920636f6e74726160448201526118dd60f21b606482015260840161055d565b6112388261225c565b8015610792576000805461ff0019169055604051600181527f7f26b83ff96e1f2b6a682f133852f6798a09c465da95921460cefb38474024989060200160405180910390a15050565b6112b36040518060a0016040528060008152602001600081526020016000815260200160008152602001600081525090565b6112bb61161a565b6000838152600a9190910160205260408120906112d661161a565b60040160008581526020019081526020016000205481526020019081526020016000206040518060a0016040529081600082015481526020016001820154815260200160028201548152602001600382015481526020016004820154815250509050919050565b60008161134c57506000611379565b8284141561135b575080611379565b60006113688686856104b4565b9050611375868583610c49565b9150505b949350505050565b600061138b61161a565b600092835260030160205250604090205490565b60408051600180825281830190925260609160208083019080368337019050509050762632b73234b733a6b0b935b2ba21b7b73a3937b63632b960491b81600081518110610b4357610b43612af9565b6113f83361176e565b6114145760405162461bcd60e51b815260040161055d90612bad565b60008115611422578161142b565b61142b84610be3565b9050600061143a858584611f47565b9050600081121561109757600061144f6122f1565b905061148a868361145e61161a565b60008a8152600691909101602090815260408083206001600160a01b038c168452909152902054612300565b6114cb86611497846129ca565b61149f61161a565b60008a8152600691909101602090815260408083206001600160a01b0388168452909152902054612300565b826114d461161a565b6000888152600b91909101602090815260408083206001600160a01b038a1684529091529020558161150461161a565b6000888152600691909101602090815260408083206001600160a01b038a1684529091528120805490919061153a908490612be4565b909155506115499050826129ca565b61155161161a565b6000888152600691909101602090815260408083206001600160a01b038616845290915281208054909190611587908490612be4565b90915550506001600160a01b03808216908616877f224d4ee1e2931416deb62bbde4f281397249c4a54319c43ee455efc348c13f4f6115c5866129ca565b60405190815260200160405180910390a4505050505050565b60006115e861161a565b600092835260205250604090205460ff1690565b600061160661161a565b600092835260020160205250604090205490565b7eeb125d2cd445fcbd619aab5c9493ddf1b2fb2fb0a82715c79a670dddbf7d6590565b60008082121561168f5760405162461bcd60e51b815260206004820181905260248201527f53616665436173743a2076616c7565206d75737420626520706f736974697665604482015260640161055d565b5090565b60008082116116a157600080fd5b60056116ad8385612cc0565b6116b890600a612ada565b836116c486600a612ada565b6116ce9190612cc0565b6116d89190612cd4565b10156116ef576116e88284612cc0565b90506104ae565b6116f98284612cc0565b6116e8906001612ceb565b60006001600160ff1b0382111561168f5760405162461bcd60e51b815260206004820152602860248201527f53616665436173743a2076616c756520646f65736e27742066697420696e2061604482015267371034b73a191a9b60c11b606482015260840161055d565b60008061177961139f565b905060005b81518110156117de576117a982828151811061179c5761179c612af9565b6020026020010151612515565b6001600160a01b0316846001600160a01b031614156117cc575060019392505050565b806117d681612b92565b91505061177e565b5060009392505050565b6000806117f6868686611fb8565b90925090508260008212156118fe5761180f8282612be4565b9050600061181b6122f1565b9050611826836129ca565b61182e61161a565b60008a8152600691909101602090815260408083206001600160a01b038616845290915281208054909190611864908490612be4565b909155506118ab905088611877856129ca565b61187f61161a565b60008c8152600691909101602090815260408083206001600160a01b0388168452909152902054612300565b806001600160a01b0316876001600160a01b0316897f224d4ee1e2931416deb62bbde4f281397249c4a54319c43ee455efc348c13f4f866118eb906129ca565b60405190815260200160405180910390a4505b611909878285612300565b8461191261161a565b6000898152600b91909101602090815260408083206001600160a01b038b1684529091529020558061194261161a565b6000898152600691909101602090815260408083206001600160a01b038b16845290915281208054909190611978908490612be4565b9091555084905061198761161a565b600089815260099190910160209081526040808320898452909152812080549091906119b4908490612be4565b90915550506040518481526001600160a01b0387169060009089907f224d4ee1e2931416deb62bbde4f281397249c4a54319c43ee455efc348c13f4f9060200160405180910390a450505050505050565b81611a465760405162461bcd60e51b8152602060048201526011602482015270756e69745072696365206973207a65726f60781b604482015260640161055d565b612710811115611a8b5760405162461bcd60e51b815260206004820152601060248201526f496e76616c696420666565207261746560801b604482015260640161055d565b611a9361161a565b6000868152600a919091016020908152604080832087845290915290206003015415611b015760405162461bcd60e51b815260206004820152601860248201527f616c72656164792075706461746564206d617475726974790000000000000000604482015260640161055d565b838311611b435760405162461bcd60e51b815260206004820152601060248201526f696e76616c6964206d6174757269747960801b604482015260640161055d565b611b4b61161a565b6000868152600a919091016020908152604080832086845290915290206001015415611bac5760405162461bcd60e51b815260206004820152601060248201526f45786973746564206d6174757269747960801b604482015260640161055d565b611bb461161a565b6000868152600a9190910160209081526040808320878452909152902060010154611c215760405162461bcd60e51b815260206004820152601f60248201527f496e76616c6964206c656e64696e6720636f6d706f756e6420666163746f7200604482015260640161055d565b611c2961161a565b6000868152600a9190910160209081526040808320878452909152902060020154611ca05760405162461bcd60e51b815260206004820152602160248201527f496e76616c696420626f72726f77696e6720636f6d706f756e6420666163746f6044820152603960f91b606482015260840161055d565b82611ca961161a565b6000878152600a9190910160209081526040808320888452909152902060030155611cd682612710612ada565b611ce08383612ada565b611cec61271080612ada565b611cf69190612cd4565b611cfe61161a565b60008881526002919091016020526040902054611d1b9190612ada565b611d259190612cc0565b611d2d61161a565b60008781526002919091016020526040902055611d4c82612710612ada565b611d568383612ada565b611d6261271080612ada565b611d6c9190612ceb565b611d7461161a565b60008881526003919091016020526040902054611d919190612ada565b611d9b9190612cc0565b611da361161a565b6000878152600391909101602052604090205582611dbf61161a565b6004016000878152602001908152602001600020819055506040518060a00160405280838152602001611df061161a565b6002016000888152602001908152602001600020548152602001611e1261161a565b60030160008881526020019081526020016000205481526020016000815260200185815250611e3f61161a565b6000968752600a016020908152604080882095885294815295849020815181559581015160018701559283015160028601555050606081015160038401556080015160049092019190915550565b611e9561161a565b6000848152600c919091016020908152604080832085845290915290205415611ef55760405162461bcd60e51b8152602060048201526012602482015271105b1c9958591e481c9959da5cdd195c995960721b604482015260640161055d565b611f1f611f01846115fc565b611f0a85610c01565b611f1590600a612acb565b6105ae9084612ada565b611f2761161a565b6000948552600c0160209081526040808620948652939052919092205550565b600080611f5261161a565b6000868152600691909101602090815260408083206001600160a01b03881684529091528120549150611f8361161a565b6000878152600b91909101602090815260408083206001600160a01b0389168452909152902054905061104d86838387611ffe565b600080611fc6858585611f47565b9050611fd061161a565b6000958652600601602090815260408087206001600160a01b03909616875294905292909320549391925050565b6000808412158061200f5750828211155b80612018575082155b1561202557506000611379565b600061202f61161a565b6000878152600a91909101602090815260408083208784528252808320815160a08101835281548152600182015493810193909352600281015491830191909152600381015460608301526004015460808201529150808061209089610be3565b9050808611156120a7576000945050505050611379565b808614156120ee576120b761161a565b60008a8152600391909101602052604090205492506120d461161a565b60008a815260029190910160205260409020549150612155565b60006120f861161a565b60008b8152600a91909101602090815260408083208a8452825291829020825160a0810184528154815260018201549281018390526002820154938101849052600382015460608201526004909101546080909101529094509250505b876121816110d861217661216b61057d856129ca565b878960400151612520565b876020015186612520565b61218a906129ca565b6121949190612d03565b9998505050505050505050565b6000816121ad57600080fd5b60006121b98385612d42565b6121c490600a612c25565b836121d086600a612c25565b6121da9190612d42565b6121e49190612d03565b90506005811261220b576121f88385612d42565b612203906001612be4565b9150506104ae565b600419811361222a5760016122208486612d42565b6122039190612d03565b6122038385612d42565b60007f360894a13ba1a3210667c828492db98dca3e2076cc3735a920a3ca505d382bbc610474565b600080516020612d84833981519152546001600160a01b0316156122c25760405162461bcd60e51b815260206004820152601b60248201527f7265736f6c766572207265676973746572656420616c72656164790000000000604482015260640161055d565b600080516020612d8483398151915280546001600160a01b0319166001600160a01b0392909216919091179055565b60006122fb61268d565b905090565b6000821261241e5760006123138361163d565b905060008212612354578061232661161a565b600701600086815260200190815260200160002060008282546123499190612ceb565b909155506109cb9050565b60006123608385612be4565b9050600081126123e6576123738161163d565b61237b61161a565b6007016000878152602001908152602001600020600082825461239e9190612ceb565b909155506123b0905061057d846129ca565b6123b861161a565b600801600087815260200190815260200160002060008282546123db9190612cd4565b909155506110979050565b816123ef61161a565b600801600087815260200190815260200160002060008282546124129190612cd4565b90915550505050505050565b600061242c61057d846129ca565b905060008213612462578061243f61161a565b600801600086815260200190815260200160002060008282546123499190612ceb565b600061246e8385612be4565b9050600081136124e95761248461057d826129ca565b61248c61161a565b600801600087815260200190815260200160002060008282546124af9190612ceb565b909155506124be90508361163d565b6124c661161a565b600701600087815260200190815260200160002060008282546123db9190612cd4565b816124f261161a565b600701600087815260200190815260200160002060008282546124129190612cd4565b60006104ae826126a2565b60008080600019858709858702925082811083820303915050806000141561255a576000841161254f57600080fd5b5082900490506105e2565b80841161256657600080fd5b600084868809808403938111909203919050600061258686196001612ceb565b86169586900495938490049360008190030460010190506125a78184612ada565b9093179260006125b8876003612ada565b60021890506125c78188612ada565b6125d2906002612cd4565b6125dc9082612ada565b90506125e88188612ada565b6125f3906002612cd4565b6125fd9082612ada565b90506126098188612ada565b612614906002612cd4565b61261e9082612ada565b905061262a8188612ada565b612635906002612cd4565b61263f9082612ada565b905061264b8188612ada565b612656906002612cd4565b6126609082612ada565b905061266c8188612ada565b612677906002612cd4565b6126819082612ada565b90506121948186612ada565b60006122fb6a14995cd95c9d99519d5b9960aa1b5b60008181527f4abde63c3e81aefa5764b017968bc473e83e093d7e1a10247d19e0a3e41240196020908152604080832054815170026b4b9b9b4b7339030b2323932b9b99d1607d1b9381019390935260318084018690528251808503909101815260519093019091526001600160a01b031690816127335760405162461bcd60e51b815260040161055d9190612d70565b5092915050565b6000806040838503121561274d57600080fd5b50508035926020909101359150565b60008060006060848603121561277157600080fd5b505081359360208301359350604090920135919050565b6001600160a01b038116811461279d57600080fd5b50565b6000806000606084860312156127b557600080fd5b8335925060208401356127c781612788565b929592945050506040919091013590565b60008060008060008060c087890312156127f157600080fd5b505084359660208601359650604086013595606081013595506080810135945060a0013592509050565b6020808252825182820181905260009190848201906040850190845b8181101561285357835183529284019291840191600101612837565b50909695505050505050565b60006020828403121561287157600080fd5b5035919050565b6000806040838503121561288b57600080fd5b82359150602083013561289d81612788565b809150509250929050565b600080600080600060a086880312156128c057600080fd5b853594506020860135935060408601356128d981612788565b925060608601356128e981612788565b949793965091946080013592915050565b6000806000806080858703121561291057600080fd5b84359350602085013560ff8116811461292857600080fd5b93969395505050506040820135916060013590565b6000806000806080858703121561295357600080fd5b5050823594602084013594506040840135936060013592509050565b6000806000806080858703121561298557600080fd5b84359350602085013561292881612788565b6000602082840312156129a957600080fd5b81356105e281612788565b634e487b7160e01b600052601160045260246000fd5b6000600160ff1b8214156129e0576129e06129b4565b5060000390565b600181815b80851115612a22578160001904821115612a0857612a086129b4565b80851615612a1557918102915b93841c93908002906129ec565b509250929050565b600082612a39575060016104ae565b81612a46575060006104ae565b8160018114612a5c5760028114612a6657612a82565b60019150506104ae565b60ff841115612a7757612a776129b4565b50506001821b6104ae565b5060208310610133831016604e8410600b8410161715612aa5575081810a6104ae565b612aaf83836129e7565b8060001904821115612ac357612ac36129b4565b029392505050565b60006105e260ff841683612a2a565b6000816000190483118215151615612af457612af46129b4565b500290565b634e487b7160e01b600052603260045260246000fd5b6000815180845260005b81811015612b3557602081850181015186830182015201612b19565b81811115612b47576000602083870101525b50601f01601f19169290920160200192915050565b8281526040602082015260006113796040830184612b0f565b600060208284031215612b8757600080fd5b81516105e281612788565b6000600019821415612ba657612ba66129b4565b5060010190565b60208082526017908201527f4f6e6c7920416363657074656420436f6e747261637473000000000000000000604082015260600190565b600080821280156001600160ff1b0384900385131615612c0657612c066129b4565b600160ff1b8390038412811615612c1f57612c1f6129b4565b50500190565b60006001600160ff1b0381841382841380821686840486111615612c4b57612c4b6129b4565b600160ff1b6000871282811687830589121615612c6a57612c6a6129b4565b60008712925087820587128484161615612c8657612c866129b4565b87850587128184161615612c9c57612c9c6129b4565b505050929093029392505050565b634e487b7160e01b600052601260045260246000fd5b600082612ccf57612ccf612caa565b500490565b600082821015612ce657612ce66129b4565b500390565b60008219821115612cfe57612cfe6129b4565b500190565b60008083128015600160ff1b850184121615612d2157612d216129b4565b6001600160ff1b0384018313811615612d3c57612d3c6129b4565b50500390565b600082612d5157612d51612caa565b600160ff1b821460001984141615612d6b57612d6b6129b4565b500590565b6020815260006105e26020830184612b0f56fe4abde63c3e81aefa5764b017968bc473e83e093d7e1a10247d19e0a3e4124018a264697066735822122064b9e86eb28986bb0cc896cdd6b196f35b6f9647af41f2b11f4f486a2bfd03e564736f6c63430008090033",
  "implementation": "0x2fa8b153b5E8C37c9EBc7F61A32dc28FDBcB1b9a",
  "devdoc": {
    "kind": "dev",
    "methods": {
      "acceptedContracts()": {
        "details": "The contact name listed in this method is also needed to be listed `requiredContracts` method."
      },
      "initialize(address)": {
        "details": "Function is invoked by the proxy contract when the contract is added to the ProxyController.",
        "params": {
          "_resolver": "The address of the Address Resolver contract"
        }
      },
      "requiredContracts()": {
        "details": "The contract name list is in `./libraries/Contracts.sol`."
      }
    },
    "version": 1
  },
  "userdoc": {
    "kind": "user",
    "methods": {
      "acceptedContracts()": {
        "notice": "Returns contract names that can call this contract."
      },
      "initialize(address)": {
        "notice": "Initializes the contract."
      },
      "requiredContracts()": {
        "notice": "Returns the contract names used in this contract."
      }
    },
    "notice": "Implements the management of the genesis value as an amount for Lending deals.",
    "version": 1
  },
  "storageLayout": {
    "storage": [
      {
        "astId": 1183,
        "contract": "contracts/GenesisValueVault.sol:GenesisValueVault",
        "label": "_initialized",
        "offset": 0,
        "slot": "0",
        "type": "t_uint8"
      },
      {
        "astId": 1186,
        "contract": "contracts/GenesisValueVault.sol:GenesisValueVault",
        "label": "_initializing",
        "offset": 1,
        "slot": "0",
        "type": "t_bool"
      }
    ],
    "types": {
      "t_bool": {
        "encoding": "inplace",
        "label": "bool",
        "numberOfBytes": "1"
      },
      "t_uint8": {
        "encoding": "inplace",
        "label": "uint8",
        "numberOfBytes": "1"
      }
    }
  }
}