{
  "address": "0xe4Ae1cd4F5C19552Eaf9fbAA48a6f17536049817",
  "abi": [
    {
      "anonymous": false,
      "inputs": [
        {
          "indexed": false,
          "internalType": "bytes32",
          "name": "name",
          "type": "bytes32"
        },
        {
          "indexed": false,
          "internalType": "address",
          "name": "destination",
          "type": "address"
        }
      ],
      "name": "CacheUpdated",
      "type": "event"
    },
    {
      "anonymous": false,
      "inputs": [
        {
          "indexed": true,
          "internalType": "bytes32",
          "name": "ccy",
          "type": "bytes32"
        },
        {
          "indexed": false,
          "internalType": "uint256",
          "name": "compoundFactor",
          "type": "uint256"
        },
        {
          "indexed": false,
          "internalType": "uint256",
          "name": "unitPrice",
          "type": "uint256"
        },
        {
          "indexed": false,
          "internalType": "uint256",
          "name": "currentMaturity",
          "type": "uint256"
        },
        {
          "indexed": false,
          "internalType": "uint256",
          "name": "previousMaturity",
          "type": "uint256"
        }
      ],
      "name": "CompoundFactorUpdated",
      "type": "event"
    },
    {
      "anonymous": false,
      "inputs": [
        {
          "indexed": false,
          "internalType": "uint8",
          "name": "version",
          "type": "uint8"
        }
      ],
      "name": "Initialized",
      "type": "event"
    },
    {
      "anonymous": false,
      "inputs": [
        {
          "indexed": true,
          "internalType": "bytes32",
          "name": "ccy",
          "type": "bytes32"
        },
        {
          "indexed": true,
          "internalType": "address",
          "name": "from",
          "type": "address"
        },
        {
          "indexed": true,
          "internalType": "address",
          "name": "to",
          "type": "address"
        },
        {
          "indexed": false,
          "internalType": "int256",
          "name": "value",
          "type": "int256"
        }
      ],
      "name": "Transfer",
      "type": "event"
    },
    {
      "inputs": [],
      "name": "acceptedContracts",
      "outputs": [
        {
          "internalType": "bytes32[]",
          "name": "contracts",
          "type": "bytes32[]"
        }
      ],
      "stateMutability": "pure",
      "type": "function"
    },
    {
      "inputs": [
        {
          "internalType": "bytes32",
          "name": "_ccy",
          "type": "bytes32"
        },
        {
          "internalType": "address",
          "name": "_user",
          "type": "address"
        },
        {
          "internalType": "uint256",
          "name": "_maturity",
          "type": "uint256"
        },
        {
          "internalType": "uint256",
          "name": "_absAmount",
          "type": "uint256"
        }
      ],
      "name": "addBorrowGenesisValue",
      "outputs": [
        {
          "internalType": "bool",
          "name": "",
          "type": "bool"
        }
      ],
      "stateMutability": "nonpayable",
      "type": "function"
    },
    {
      "inputs": [
        {
          "internalType": "bytes32",
          "name": "_ccy",
          "type": "bytes32"
        },
        {
          "internalType": "address",
          "name": "_user",
          "type": "address"
        },
        {
          "internalType": "uint256",
          "name": "_maturity",
          "type": "uint256"
        },
        {
          "internalType": "uint256",
          "name": "_absAmount",
          "type": "uint256"
        }
      ],
      "name": "addLendGenesisValue",
      "outputs": [
        {
          "internalType": "bool",
          "name": "",
          "type": "bool"
        }
      ],
      "stateMutability": "nonpayable",
      "type": "function"
    },
    {
      "inputs": [],
      "name": "buildCache",
      "outputs": [],
      "stateMutability": "nonpayable",
      "type": "function"
    },
    {
      "inputs": [
        {
          "internalType": "bytes32",
          "name": "_ccy",
          "type": "bytes32"
        },
        {
          "internalType": "uint256",
          "name": "_basisMaturity",
          "type": "uint256"
        },
        {
          "internalType": "int256",
          "name": "_futureValue",
          "type": "int256"
        }
      ],
      "name": "calculateCurrentFVFromFVInMaturity",
      "outputs": [
        {
          "internalType": "int256",
          "name": "",
          "type": "int256"
        }
      ],
      "stateMutability": "view",
      "type": "function"
    },
    {
      "inputs": [
        {
          "internalType": "bytes32",
          "name": "_ccy",
          "type": "bytes32"
        },
        {
          "internalType": "uint256",
          "name": "_basisMaturity",
          "type": "uint256"
        },
        {
          "internalType": "int256",
          "name": "_genesisValue",
          "type": "int256"
        }
      ],
      "name": "calculateFVFromGV",
      "outputs": [
        {
          "internalType": "int256",
          "name": "",
          "type": "int256"
        }
      ],
      "stateMutability": "view",
      "type": "function"
    },
    {
      "inputs": [
        {
          "internalType": "bytes32",
          "name": "_ccy",
          "type": "bytes32"
        },
        {
          "internalType": "uint256",
          "name": "_basisMaturity",
          "type": "uint256"
        },
        {
          "internalType": "int256",
          "name": "_futureValue",
          "type": "int256"
        }
      ],
      "name": "calculateGVFromFV",
      "outputs": [
        {
          "internalType": "int256",
          "name": "",
          "type": "int256"
        }
      ],
      "stateMutability": "view",
      "type": "function"
    },
    {
      "inputs": [
        {
          "internalType": "bytes32",
          "name": "_ccy",
          "type": "bytes32"
        }
      ],
      "name": "decimals",
      "outputs": [
        {
          "internalType": "uint8",
          "name": "",
          "type": "uint8"
        }
      ],
      "stateMutability": "view",
      "type": "function"
    },
    {
      "inputs": [
        {
          "internalType": "bytes32",
          "name": "_ccy",
          "type": "bytes32"
        },
        {
          "internalType": "uint256",
          "name": "_maturity",
          "type": "uint256"
        },
        {
          "internalType": "uint256",
          "name": "_nextMaturity",
          "type": "uint256"
        },
        {
          "internalType": "uint256",
          "name": "_unitPrice",
          "type": "uint256"
        },
        {
          "internalType": "uint256",
          "name": "_totalFVAmount",
          "type": "uint256"
        }
      ],
      "name": "executeAutoRoll",
      "outputs": [],
      "stateMutability": "nonpayable",
      "type": "function"
    },
    {
      "inputs": [
        {
          "internalType": "bytes32",
          "name": "_ccy",
          "type": "bytes32"
        }
      ],
      "name": "getCompoundFactor",
      "outputs": [
        {
          "internalType": "uint256",
          "name": "",
          "type": "uint256"
        }
      ],
      "stateMutability": "view",
      "type": "function"
    },
    {
      "inputs": [
        {
          "internalType": "bytes32",
          "name": "_ccy",
          "type": "bytes32"
        }
      ],
      "name": "getCurrentMaturity",
      "outputs": [
        {
          "internalType": "uint256",
          "name": "",
          "type": "uint256"
        }
      ],
      "stateMutability": "view",
      "type": "function"
    },
    {
      "inputs": [
        {
          "internalType": "bytes32",
          "name": "_ccy",
          "type": "bytes32"
        },
        {
          "internalType": "address",
          "name": "_user",
          "type": "address"
        }
      ],
      "name": "getGenesisValue",
      "outputs": [
        {
          "internalType": "int256",
          "name": "",
          "type": "int256"
        }
      ],
      "stateMutability": "view",
      "type": "function"
    },
    {
      "inputs": [
        {
          "internalType": "bytes32",
          "name": "_ccy",
          "type": "bytes32"
        },
        {
          "internalType": "address",
          "name": "_user",
          "type": "address"
        }
      ],
      "name": "getGenesisValueInFutureValue",
      "outputs": [
        {
          "internalType": "int256",
          "name": "",
          "type": "int256"
        }
      ],
      "stateMutability": "view",
      "type": "function"
    },
    {
      "inputs": [
        {
          "internalType": "bytes32",
          "name": "_ccy",
          "type": "bytes32"
        },
        {
          "internalType": "uint256",
          "name": "_maturity",
          "type": "uint256"
        }
      ],
      "name": "getMaturityGenesisValue",
      "outputs": [
        {
          "internalType": "int256",
          "name": "",
          "type": "int256"
        }
      ],
      "stateMutability": "view",
      "type": "function"
    },
    {
      "inputs": [
        {
          "internalType": "bytes32",
          "name": "_ccy",
          "type": "bytes32"
        },
        {
          "internalType": "uint256",
          "name": "_maturity",
          "type": "uint256"
        }
      ],
      "name": "getMaturityUnitPrice",
      "outputs": [
        {
          "components": [
            {
              "internalType": "uint256",
              "name": "unitPrice",
              "type": "uint256"
            },
            {
              "internalType": "uint256",
              "name": "compoundFactor",
              "type": "uint256"
            },
            {
              "internalType": "uint256",
              "name": "next",
              "type": "uint256"
            },
            {
              "internalType": "uint256",
              "name": "prev",
              "type": "uint256"
            }
          ],
          "internalType": "struct MaturityUnitPrice",
          "name": "",
          "type": "tuple"
        }
      ],
      "stateMutability": "view",
      "type": "function"
    },
    {
      "inputs": [
        {
          "internalType": "bytes32",
          "name": "_ccy",
          "type": "bytes32"
        }
      ],
      "name": "getTotalBorrowingSupply",
      "outputs": [
        {
          "internalType": "uint256",
          "name": "",
          "type": "uint256"
        }
      ],
      "stateMutability": "view",
      "type": "function"
    },
    {
      "inputs": [
        {
          "internalType": "bytes32",
          "name": "_ccy",
          "type": "bytes32"
        }
      ],
      "name": "getTotalLendingSupply",
      "outputs": [
        {
          "internalType": "uint256",
          "name": "",
          "type": "uint256"
        }
      ],
      "stateMutability": "view",
      "type": "function"
    },
    {
      "inputs": [
        {
          "internalType": "address",
          "name": "_resolver",
          "type": "address"
        }
      ],
      "name": "initialize",
      "outputs": [],
      "stateMutability": "nonpayable",
      "type": "function"
    },
    {
      "inputs": [
        {
          "internalType": "bytes32",
          "name": "_ccy",
          "type": "bytes32"
        },
        {
          "internalType": "uint8",
          "name": "_decimals",
          "type": "uint8"
        },
        {
          "internalType": "uint256",
          "name": "_compoundFactor",
          "type": "uint256"
        },
        {
          "internalType": "uint256",
          "name": "_maturity",
          "type": "uint256"
        }
      ],
      "name": "initialize",
      "outputs": [],
      "stateMutability": "nonpayable",
      "type": "function"
    },
    {
      "inputs": [
        {
          "internalType": "bytes32",
          "name": "_ccy",
          "type": "bytes32"
        }
      ],
      "name": "isInitialized",
      "outputs": [
        {
          "internalType": "bool",
          "name": "",
          "type": "bool"
        }
      ],
      "stateMutability": "view",
      "type": "function"
    },
    {
      "inputs": [],
      "name": "isResolverCached",
      "outputs": [
        {
          "internalType": "bool",
          "name": "",
          "type": "bool"
        }
      ],
      "stateMutability": "view",
      "type": "function"
    },
    {
      "inputs": [],
      "name": "requiredContracts",
      "outputs": [
        {
          "internalType": "bytes32[]",
          "name": "contracts",
          "type": "bytes32[]"
        }
      ],
      "stateMutability": "pure",
      "type": "function"
    },
    {
      "inputs": [],
      "name": "resolver",
      "outputs": [
        {
          "internalType": "contract IAddressResolver",
          "name": "",
          "type": "address"
        }
      ],
      "stateMutability": "view",
      "type": "function"
    },
    {
      "inputs": [
        {
          "internalType": "bytes32",
          "name": "_ccy",
          "type": "bytes32"
        },
        {
          "internalType": "address",
          "name": "_user",
          "type": "address"
        },
        {
          "internalType": "uint256",
          "name": "_basisMaturity",
          "type": "uint256"
        },
        {
          "internalType": "int256",
          "name": "_fvAmount",
          "type": "int256"
        }
      ],
      "name": "updateGenesisValue",
      "outputs": [
        {
          "internalType": "bool",
          "name": "",
          "type": "bool"
        }
      ],
      "stateMutability": "nonpayable",
      "type": "function"
    }
  ],
  "transactionHash": "0xc02457e29d572b1eab3922c7812aa30d4f8247bfca686c7d9fa466b046682562",
  "args": [],
  "numDeployments": 4,
  "solcInputHash": "c219ed6b9dbfbd1676a0dacd801eed49",
  "bytecode": "0x608060405234801561001057600080fd5b506120cc806100206000396000f3fe608060405234801561001057600080fd5b50600436106101585760003560e01c806389f26514116100c3578063c4d66de81161007c578063c4d66de814610316578063e09976591461021e578063f7955b4514610329578063f7b637bb1461033c578063fb8439041461034f578063fe99d1b71461036257600080fd5b806389f26514146102a457806398e96ac9146102b75780639af50c00146102ca578063aab8a1b3146102dd578063c2188b64146102f0578063c3e7a7ad1461030357600080fd5b80633d03b9da116101155780633d03b9da1461021e578063409453961461023357806349a1d218146102465780635f18aa0c1461025957806370c641a61461027e5780637636e9411461029157600080fd5b806304f3bcec1461015d578063056d0f02146101825780630d394667146101c857806318612e32146101e957806329985e5a146101fc5780632af64bd314610206575b600080fd5b610165610375565b6040516001600160a01b0390911681526020015b60405180910390f35b610195610190366004611af1565b610396565b60405161017991908151815260208083015190820152604080830151908201526060918201519181019190915260800190565b6101db6101d6366004611af1565b61041f565b604051908152602001610179565b6101db6101f7366004611b13565b610448565b61020461057d565b005b61020e61072a565b6040519015158152602001610179565b610226610890565b6040516101799190611b3f565b6101db610241366004611b83565b6108f5565b6101db610254366004611b83565b610913565b61026c610267366004611b83565b610931565b60405160ff9091168152602001610179565b6101db61028c366004611bb4565b610952565b6101db61029f366004611b13565b610986565b61020e6102b2366004611be4565b610a6f565b61020e6102c5366004611be4565b610adf565b6101db6102d8366004611b83565b610d22565b6101db6102eb366004611b13565b610d40565b6101db6102fe366004611b83565b610d8b565b6101db610311366004611bb4565b610da9565b610204610324366004611c21565b610df0565b610204610337366004611c3e565b610f6e565b61020e61034a366004611b83565b6110e5565b61020461035d366004611c6c565b611103565b61020e610370366004611be4565b611146565b60006000805160206120778339815191525b546001600160a01b0316919050565b6103c16040518060800160405280600081526020016000815260200160008152602001600081525090565b6103c9611292565b600084815260099190910160209081526040808320858452825291829020825160808101845281548152600182015492810192909252600281015492820192909252600390910154606082015290505b92915050565b6000610429611292565b6000938452600801602090815260408085209385529290525090205490565b600080610453611292565b60008681526003919091016020526040902054841461049a57610474611292565b6000868152600991909101602090815260408083208784529091529020600101546104a3565b6104a3856108f5565b9050600081116104fa5760405162461bcd60e51b815260206004820181905260248201527f436f6d706f756e6420666163746f72206973206e6f742066697865642079657460448201526064015b60405180910390fd5b60008084139061051c826105165761051186611cbd565b6112b5565b856112b5565b905060006105488461052d8a610931565b61053890600a611dbe565b6105429085611dcd565b9061130b565b905082610566576105588161137c565b61056190611cbd565b61056f565b61056f8161137c565b9450505050505b9392505050565b6000610587610890565b905060005b81518110156107265760008282815181106105a9576105a9611dec565b6020026020010151905060006105ca60008051602061207783398151915290565b54604080517f5265736f6c766572206d697373696e67207461726765743a200000000000000060208201526039808201869052825180830390910181526059820192839052636795dbcd60e01b9092526001600160a01b0390921691636795dbcd9161063b91869190605d01611e4f565b60206040518083038186803b15801561065357600080fd5b505afa158015610667573d6000803e3d6000fd5b505050506040513d601f19601f8201168201806040525081019061068b9190611e68565b60008381527f4abde63c3e81aefa5764b017968bc473e83e093d7e1a10247d19e0a3e4124019602090815260409182902080546001600160a01b0319166001600160a01b03851690811790915582518681529182015281519293507f88a93678a3692f6789d9546fc621bf7234b101ddb7d4fe479455112831b8aa68929081900390910190a15050808061071e90611e85565b91505061058c565b5050565b600080610735610890565b905060005b815181101561088757600082828151811061075757610757611dec565b6020026020010151905061077660008051602061207783398151915290565b600082815260019190910160205260409020546001600160a01b0316600080516020612077833981519152546040516321f8a72160e01b8152600481018490526001600160a01b03909116906321f8a7219060240160206040518083038186803b1580156107e357600080fd5b505afa1580156107f7573d6000803e3d6000fd5b505050506040513d601f19601f8201168201806040525081019061081b9190611e68565b6001600160a01b0316141580610865575060008181527f4abde63c3e81aefa5764b017968bc473e83e093d7e1a10247d19e0a3e412401960205260409020546001600160a01b0316155b15610874576000935050505090565b508061087f81611e85565b91505061073a565b50600191505090565b604080516001808252818301909252606091602080830190803683370190505090507f4c656e64696e674d61726b6574436f6e74726f6c6c6572000000000000000000816000815181106108e6576108e6611dec565b60200260200101818152505090565b60006108ff611292565b600092835260020160205250604090205490565b600061091d611292565b600092835260030160205250604090205490565b600061093b611292565b600092835260040160205250604090205460ff1690565b600061095c611292565b6000938452600501602090815260408085206001600160a01b039490941685529290525090205490565b600080610991611292565b6000868152600391909101602052604090205484146109d8576109b2611292565b6000868152600991909101602090815260408083208784529091529020600101546109e1565b6109e1856108f5565b905060008111610a335760405162461bcd60e51b815260206004820181905260248201527f436f6d706f756e6420666163746f72206973206e6f742066697865642079657460448201526064016104f1565b600080841390610a4a826105165761051186611cbd565b90506000610548610a5a89610931565b610a6590600a611dbe565b6105428685611dcd565b6000610a7a336113e6565b610a965760405162461bcd60e51b81526004016104f190611ea0565b6000610aa3868585610448565b90506000811315610ac557610abd868686610370856112b5565b915050610ad7565b610abd8686866102c561051186611cbd565b949350505050565b6000610aea336113e6565b610b065760405162461bcd60e51b81526004016104f190611ea0565b6000610b10611292565b6000878152600591909101602090815260408083206001600160a01b03891684529091528120549150610b428461137c565b610b4b90611cbd565b905060008213610b8c5783610b5e611292565b60070160008981526020019081526020016000206000828254610b819190611ed7565b90915550610c529050565b6000610b988383611eef565b905060008113610c1e57610bae61051182611cbd565b610bb6611292565b60070160008a81526020019081526020016000206000828254610bd99190611ed7565b90915550610be89050836112b5565b610bf0611292565b60060160008a81526020019081526020016000206000828254610c139190611f30565b90915550610c509050565b84610c27611292565b60060160008a81526020019081526020016000206000828254610c4a9190611f30565b90915550505b505b80610c5b611292565b6000898152600591909101602090815260408083206001600160a01b038b16845290915281208054909190610c91908490611eef565b90915550819050610ca0611292565b60008981526008919091016020908152604080832089845290915281208054909190610ccd908490611eef565b90915550506040518181526001600160a01b0387169060009089907f224d4ee1e2931416deb62bbde4f281397249c4a54319c43ee455efc348c13f4f9060200160405180910390a45060019695505050505050565b6000610d2c611292565b600092835260070160205250604090205490565b600081610d4f57506000610576565b6000610d5c858585610448565b9050610d8385610d6a611292565b6000888152600391909101602052604090205483610986565b915050610576565b6000610d95611292565b600092835260060160205250604090205490565b6000610576610dca610dba85610931565b610dc590600a611dbe565b61137c565b610dd6610dc5866108f5565b610de08686610952565b610dea9190611f47565b90611460565b600054610100900460ff1615808015610e105750600054600160ff909116105b80610e2a5750303b158015610e2a575060005460ff166001145b610e8d5760405162461bcd60e51b815260206004820152602e60248201527f496e697469616c697a61626c653a20636f6e747261637420697320616c72656160448201526d191e481a5b9a5d1a585b1a5e995960921b60648201526084016104f1565b6000805460ff191660011790558015610eb0576000805461ff0019166101001790555b6000610eba6114f3565b6001600160a01b03161415610f1c5760405162461bcd60e51b815260206004820152602260248201527f4d7573742062652063616c6c65642066726f6d2070726f787920636f6e74726160448201526118dd60f21b60648201526084016104f1565b610f258261151b565b8015610726576000805461ff0019169055604051600181527f7f26b83ff96e1f2b6a682f133852f6798a09c465da95921460cefb38474024989060200160405180910390a15050565b610f77336113e6565b610f935760405162461bcd60e51b81526004016104f190611ea0565b81610fe05760405162461bcd60e51b815260206004820152601760248201527f436f6d706f756e6420666163746f72206973207a65726f00000000000000000060448201526064016104f1565b610fe9846110e5565b156110365760405162461bcd60e51b815260206004820152601c60248201527f416c726561647920696e697469616c697a65642063757272656e63790000000060448201526064016104f1565b6001611040611292565b600086815260209190915260409020805460ff191691151591909117905582611067611292565b600086815260049190910160205260409020805460ff191660ff9290921691909117905581611094611292565b60008681526001919091016020526040902055816110b0611292565b60008681526002919091016020526040902055806110cc611292565b6000958652600301602052604090942093909355505050565b60006110ef611292565b600092835260205250604090205460ff1690565b61110c336113e6565b6111285760405162461bcd60e51b81526004016104f190611ea0565b611134858585856115b0565b61113f858583611995565b5050505050565b6000611151336113e6565b61116d5760405162461bcd60e51b81526004016104f190611ea0565b6000611177611292565b6000878152600591909101602090815260408083206001600160a01b038916845290915281205491506111a98461137c565b9050600082126111df57836111bc611292565b60060160008981526020019081526020016000206000828254610b819190611ed7565b60006111eb8383611eef565b905060008112611266576111fe816112b5565b611206611292565b60060160008a815260200190815260200160002060008282546112299190611ed7565b9091555061123b905061051184611cbd565b611243611292565b60070160008a81526020019081526020016000206000828254610c139190611f30565b8461126f611292565b60070160008a81526020019081526020016000206000828254610c4a9190611f30565b7eeb125d2cd445fcbd619aab5c9493ddf1b2fb2fb0a82715c79a670dddbf7d6590565b6000808212156113075760405162461bcd60e51b815260206004820181905260248201527f53616665436173743a2076616c7565206d75737420626520706f73697469766560448201526064016104f1565b5090565b600080821161131957600080fd5b60056113258385611fe2565b61133090600a611dcd565b8361133c86600a611dcd565b6113469190611fe2565b6113509190611f30565b1015611367576113608284611fe2565b9050610419565b6113718284611fe2565b611360906001611ed7565b60006001600160ff1b038211156113075760405162461bcd60e51b815260206004820152602860248201527f53616665436173743a2076616c756520646f65736e27742066697420696e2061604482015267371034b73a191a9b60c11b60648201526084016104f1565b6000806113f1610890565b905060005b81518110156114565761142182828151811061141457611414611dec565b6020026020010151611a4f565b6001600160a01b0316846001600160a01b03161415611444575060019392505050565b8061144e81611e85565b9150506113f6565b5060009392505050565b60008161146c57600080fd5b60006114788385611ff6565b61148390600a611f47565b8361148f86600a611f47565b6114999190611ff6565b6114a39190612024565b9050600581126114ca576114b78385611ff6565b6114c2906001611eef565b915050610419565b60041981136114e95760016114df8486611ff6565b6114c29190612024565b6114c28385611ff6565b60007f360894a13ba1a3210667c828492db98dca3e2076cc3735a920a3ca505d382bbc610387565b600080516020612077833981519152546001600160a01b0316156115815760405162461bcd60e51b815260206004820152601b60248201527f7265736f6c766572207265676973746572656420616c7265616479000000000060448201526064016104f1565b60008051602061207783398151915280546001600160a01b0319166001600160a01b0392909216919091179055565b806115f15760405162461bcd60e51b8152602060048201526011602482015270756e69745072696365206973207a65726f60781b60448201526064016104f1565b6115f9611292565b600085815260099190910160209081526040808320868452909152902060020154156116675760405162461bcd60e51b815260206004820152601860248201527f616c72656164792075706461746564206d61747572697479000000000000000060448201526064016104f1565b8282116116a95760405162461bcd60e51b815260206004820152601060248201526f696e76616c6964206d6174757269747960801b60448201526064016104f1565b6116b1611292565b600085815260099190910160209081526040808320858452909152902060010154156117125760405162461bcd60e51b815260206004820152601060248201526f65786973746564206d6174757269747960801b60448201526064016104f1565b61171a611292565b60008581526002919091016020526040902054611735611292565b60008681526001919091016020526040902054141561179757611756611292565b60008581526002919091016020526040902054611771611292565b60008681526009919091016020908152604080832087845290915290206001015561180c565b61179f611292565b60008581526009919091016020908152604080832086845290915290206001015461180c5760405162461bcd60e51b815260206004820152601760248201527f696e76616c696420636f6d706f756e6420666163746f7200000000000000000060448201526064016104f1565b81611815611292565b60008681526009919091016020908152604080832087845290915290206002015580612710611842611292565b6000878152600291909101602052604090205461185f9190611dcd565b6118699190611fe2565b611871611292565b600086815260029190910160205260409020558161188d611292565b60030160008681526020019081526020016000208190555060405180608001604052808281526020016118be611292565b600201600087815260200190815260200160002054815260200160008152602001848152506118eb611292565b60008681526009919091016020908152604080832086845282529182902083518155908301516001820155908201516002820155606090910151600390910155837fd4c7c76c7a9ded4f565a103fedb317099892883b1d82aac5ba2cc68508e0b14a611955611292565b600087815260029190910160209081526040918290205482519081529081018590529081018590526060810186905260800160405180910390a250505050565b61199d611292565b6000848152600a9190910160209081526040808320858452909152902054156119fd5760405162461bcd60e51b8152602060048201526012602482015271105b1c9958591e481c9959da5cdd195c995960721b60448201526064016104f1565b611a27611a09846108f5565b611a1285610931565b611a1d90600a611dbe565b6105429084611dcd565b611a2f611292565b6000948552600a0160209081526040808620948652939052919092205550565b60008181527f4abde63c3e81aefa5764b017968bc473e83e093d7e1a10247d19e0a3e41240196020908152604080832054815170026b4b9b9b4b7339030b2323932b9b99d1607d1b93810193909352603180840186905282518085039091018152605190930190915261041991849184916001600160a01b039091169081611aea5760405162461bcd60e51b81526004016104f19190612063565b5092915050565b60008060408385031215611b0457600080fd5b50508035926020909101359150565b600080600060608486031215611b2857600080fd5b505081359360208301359350604090920135919050565b6020808252825182820181905260009190848201906040850190845b81811015611b7757835183529284019291840191600101611b5b565b50909695505050505050565b600060208284031215611b9557600080fd5b5035919050565b6001600160a01b0381168114611bb157600080fd5b50565b60008060408385031215611bc757600080fd5b823591506020830135611bd981611b9c565b809150509250929050565b60008060008060808587031215611bfa57600080fd5b843593506020850135611c0c81611b9c565b93969395505050506040820135916060013590565b600060208284031215611c3357600080fd5b813561057681611b9c565b60008060008060808587031215611c5457600080fd5b84359350602085013560ff81168114611c0c57600080fd5b600080600080600060a08688031215611c8457600080fd5b505083359560208501359550604085013594606081013594506080013592509050565b634e487b7160e01b600052601160045260246000fd5b6000600160ff1b821415611cd357611cd3611ca7565b5060000390565b600181815b80851115611d15578160001904821115611cfb57611cfb611ca7565b80851615611d0857918102915b93841c9390800290611cdf565b509250929050565b600082611d2c57506001610419565b81611d3957506000610419565b8160018114611d4f5760028114611d5957611d75565b6001915050610419565b60ff841115611d6a57611d6a611ca7565b50506001821b610419565b5060208310610133831016604e8410600b8410161715611d98575081810a610419565b611da28383611cda565b8060001904821115611db657611db6611ca7565b029392505050565b600061057660ff841683611d1d565b6000816000190483118215151615611de757611de7611ca7565b500290565b634e487b7160e01b600052603260045260246000fd5b6000815180845260005b81811015611e2857602081850181015186830182015201611e0c565b81811115611e3a576000602083870101525b50601f01601f19169290920160200192915050565b828152604060208201526000610ad76040830184611e02565b600060208284031215611e7a57600080fd5b815161057681611b9c565b6000600019821415611e9957611e99611ca7565b5060010190565b60208082526017908201527f4f6e6c7920416363657074656420436f6e747261637473000000000000000000604082015260600190565b60008219821115611eea57611eea611ca7565b500190565b600080821280156001600160ff1b0384900385131615611f1157611f11611ca7565b600160ff1b8390038412811615611f2a57611f2a611ca7565b50500190565b600082821015611f4257611f42611ca7565b500390565b60006001600160ff1b0381841382841380821686840486111615611f6d57611f6d611ca7565b600160ff1b6000871282811687830589121615611f8c57611f8c611ca7565b60008712925087820587128484161615611fa857611fa8611ca7565b87850587128184161615611fbe57611fbe611ca7565b505050929093029392505050565b634e487b7160e01b600052601260045260246000fd5b600082611ff157611ff1611fcc565b500490565b60008261200557612005611fcc565b600160ff1b82146000198414161561201f5761201f611ca7565b500590565b60008083128015600160ff1b85018412161561204257612042611ca7565b6001600160ff1b038401831381161561205d5761205d611ca7565b50500390565b6020815260006105766020830184611e0256fe4abde63c3e81aefa5764b017968bc473e83e093d7e1a10247d19e0a3e4124018a26469706673582212201462a52117f00a247c30cb8dce237020c7dd29604e6060987f31526bfd5e1f2a64736f6c63430008090033",
  "implementation": "0x5CC4b3001B40264b2d37beC75674A13b129FF6f4",
  "devdoc": {
    "kind": "dev",
    "methods": {
      "acceptedContracts()": {
        "details": "The contact name listed in this method is also needed to be listed `requiredContracts` method."
      },
      "initialize(address)": {
        "details": "Function is invoked by the proxy contract when the contract is added to the ProxyController.",
        "params": {
          "_resolver": "The address of the Address Resolver contract"
        }
      },
      "requiredContracts()": {
        "details": "The contract name list is in `./libraries/Contracts.sol`."
      }
    },
    "version": 1
  },
  "userdoc": {
    "kind": "user",
    "methods": {
      "acceptedContracts()": {
        "notice": "Returns contract names that can call this contract."
      },
      "initialize(address)": {
        "notice": "Initializes the contract."
      },
      "requiredContracts()": {
        "notice": "Returns the contract names used in this contract."
      }
    },
    "notice": "Implements the management of the genesis value as an amount for Lending deals.",
    "version": 1
  },
  "storageLayout": {
    "storage": [
      {
        "astId": 1183,
        "contract": "contracts/GenesisValueVault.sol:GenesisValueVault",
        "label": "_initialized",
        "offset": 0,
        "slot": "0",
        "type": "t_uint8"
      },
      {
        "astId": 1186,
        "contract": "contracts/GenesisValueVault.sol:GenesisValueVault",
        "label": "_initializing",
        "offset": 1,
        "slot": "0",
        "type": "t_bool"
      }
    ],
    "types": {
      "t_bool": {
        "encoding": "inplace",
        "label": "bool",
        "numberOfBytes": "1"
      },
      "t_uint8": {
        "encoding": "inplace",
        "label": "uint8",
        "numberOfBytes": "1"
      }
    }
  }
}