{
  "address": "0x1A1159FfD715A0edB56F46F02109CaBD17A25214",
  "abi": [
    {
      "anonymous": false,
      "inputs": [
        {
          "indexed": false,
          "internalType": "bytes32",
          "name": "name",
          "type": "bytes32"
        },
        {
          "indexed": false,
          "internalType": "address",
          "name": "destination",
          "type": "address"
        }
      ],
      "name": "CacheUpdated",
      "type": "event"
    },
    {
      "anonymous": false,
      "inputs": [
        {
          "indexed": true,
          "internalType": "bytes32",
          "name": "ccy",
          "type": "bytes32"
        },
        {
          "indexed": false,
          "internalType": "uint256",
          "name": "compoundFactor",
          "type": "uint256"
        },
        {
          "indexed": false,
          "internalType": "uint256",
          "name": "unitPrice",
          "type": "uint256"
        },
        {
          "indexed": false,
          "internalType": "uint256",
          "name": "currentMaturity",
          "type": "uint256"
        },
        {
          "indexed": false,
          "internalType": "uint256",
          "name": "previousMaturity",
          "type": "uint256"
        }
      ],
      "name": "CompoundFactorUpdated",
      "type": "event"
    },
    {
      "anonymous": false,
      "inputs": [
        {
          "indexed": false,
          "internalType": "uint8",
          "name": "version",
          "type": "uint8"
        }
      ],
      "name": "Initialized",
      "type": "event"
    },
    {
      "anonymous": false,
      "inputs": [
        {
          "indexed": true,
          "internalType": "bytes32",
          "name": "ccy",
          "type": "bytes32"
        },
        {
          "indexed": true,
          "internalType": "address",
          "name": "from",
          "type": "address"
        },
        {
          "indexed": true,
          "internalType": "address",
          "name": "to",
          "type": "address"
        },
        {
          "indexed": false,
          "internalType": "int256",
          "name": "value",
          "type": "int256"
        }
      ],
      "name": "Transfer",
      "type": "event"
    },
    {
      "inputs": [],
      "name": "acceptedContracts",
      "outputs": [
        {
          "internalType": "bytes32[]",
          "name": "contracts",
          "type": "bytes32[]"
        }
      ],
      "stateMutability": "pure",
      "type": "function"
    },
    {
      "inputs": [
        {
          "internalType": "bytes32",
          "name": "_ccy",
          "type": "bytes32"
        },
        {
          "internalType": "address",
          "name": "_user",
          "type": "address"
        },
        {
          "internalType": "uint256",
          "name": "_basisMaturity",
          "type": "uint256"
        },
        {
          "internalType": "int256",
          "name": "_futureValue",
          "type": "int256"
        }
      ],
      "name": "addGenesisValue",
      "outputs": [
        {
          "internalType": "bool",
          "name": "",
          "type": "bool"
        }
      ],
      "stateMutability": "nonpayable",
      "type": "function"
    },
    {
      "inputs": [],
      "name": "buildCache",
      "outputs": [],
      "stateMutability": "nonpayable",
      "type": "function"
    },
    {
      "inputs": [
        {
          "internalType": "bytes32",
          "name": "_ccy",
          "type": "bytes32"
        },
        {
          "internalType": "uint256",
          "name": "_basisMaturity",
          "type": "uint256"
        },
        {
          "internalType": "int256",
          "name": "_genesisValue",
          "type": "int256"
        }
      ],
      "name": "calculateFVFromGV",
      "outputs": [
        {
          "internalType": "int256",
          "name": "",
          "type": "int256"
        }
      ],
      "stateMutability": "view",
      "type": "function"
    },
    {
      "inputs": [
        {
          "internalType": "bytes32",
          "name": "_ccy",
          "type": "bytes32"
        },
        {
          "internalType": "uint256",
          "name": "_basisMaturity",
          "type": "uint256"
        },
        {
          "internalType": "int256",
          "name": "_futureValue",
          "type": "int256"
        }
      ],
      "name": "calculateGVFromFV",
      "outputs": [
        {
          "internalType": "int256",
          "name": "",
          "type": "int256"
        }
      ],
      "stateMutability": "view",
      "type": "function"
    },
    {
      "inputs": [
        {
          "internalType": "bytes32",
          "name": "_ccy",
          "type": "bytes32"
        }
      ],
      "name": "decimals",
      "outputs": [
        {
          "internalType": "uint8",
          "name": "",
          "type": "uint8"
        }
      ],
      "stateMutability": "view",
      "type": "function"
    },
    {
      "inputs": [
        {
          "internalType": "bytes32",
          "name": "_ccy",
          "type": "bytes32"
        }
      ],
      "name": "getCompoundFactor",
      "outputs": [
        {
          "internalType": "uint256",
          "name": "",
          "type": "uint256"
        }
      ],
      "stateMutability": "view",
      "type": "function"
    },
    {
      "inputs": [
        {
          "internalType": "bytes32",
          "name": "_ccy",
          "type": "bytes32"
        }
      ],
      "name": "getCurrentMaturity",
      "outputs": [
        {
          "internalType": "uint256",
          "name": "",
          "type": "uint256"
        }
      ],
      "stateMutability": "view",
      "type": "function"
    },
    {
      "inputs": [
        {
          "internalType": "bytes32",
          "name": "_ccy",
          "type": "bytes32"
        },
        {
          "internalType": "address",
          "name": "_user",
          "type": "address"
        }
      ],
      "name": "getGenesisValue",
      "outputs": [
        {
          "internalType": "int256",
          "name": "",
          "type": "int256"
        }
      ],
      "stateMutability": "view",
      "type": "function"
    },
    {
      "inputs": [
        {
          "internalType": "bytes32",
          "name": "_ccy",
          "type": "bytes32"
        },
        {
          "internalType": "address",
          "name": "_user",
          "type": "address"
        }
      ],
      "name": "getGenesisValueInFutureValue",
      "outputs": [
        {
          "internalType": "int256",
          "name": "",
          "type": "int256"
        }
      ],
      "stateMutability": "view",
      "type": "function"
    },
    {
      "inputs": [
        {
          "internalType": "bytes32",
          "name": "_ccy",
          "type": "bytes32"
        },
        {
          "internalType": "uint256",
          "name": "_maturity",
          "type": "uint256"
        }
      ],
      "name": "getMaturityUnitPrice",
      "outputs": [
        {
          "components": [
            {
              "internalType": "uint256",
              "name": "unitPrice",
              "type": "uint256"
            },
            {
              "internalType": "uint256",
              "name": "compoundFactor",
              "type": "uint256"
            },
            {
              "internalType": "uint256",
              "name": "next",
              "type": "uint256"
            },
            {
              "internalType": "uint256",
              "name": "prev",
              "type": "uint256"
            }
          ],
          "internalType": "struct MaturityUnitPrice",
          "name": "",
          "type": "tuple"
        }
      ],
      "stateMutability": "view",
      "type": "function"
    },
    {
      "inputs": [
        {
          "internalType": "bytes32",
          "name": "_ccy",
          "type": "bytes32"
        }
      ],
      "name": "getTotalBorrowingSupply",
      "outputs": [
        {
          "internalType": "uint256",
          "name": "",
          "type": "uint256"
        }
      ],
      "stateMutability": "view",
      "type": "function"
    },
    {
      "inputs": [
        {
          "internalType": "bytes32",
          "name": "_ccy",
          "type": "bytes32"
        }
      ],
      "name": "getTotalLendingSupply",
      "outputs": [
        {
          "internalType": "uint256",
          "name": "",
          "type": "uint256"
        }
      ],
      "stateMutability": "view",
      "type": "function"
    },
    {
      "inputs": [
        {
          "internalType": "address",
          "name": "_resolver",
          "type": "address"
        }
      ],
      "name": "initialize",
      "outputs": [],
      "stateMutability": "nonpayable",
      "type": "function"
    },
    {
      "inputs": [
        {
          "internalType": "bytes32",
          "name": "_ccy",
          "type": "bytes32"
        },
        {
          "internalType": "uint8",
          "name": "_decimals",
          "type": "uint8"
        },
        {
          "internalType": "uint256",
          "name": "_compoundFactor",
          "type": "uint256"
        }
      ],
      "name": "initialize",
      "outputs": [],
      "stateMutability": "nonpayable",
      "type": "function"
    },
    {
      "inputs": [
        {
          "internalType": "bytes32",
          "name": "_ccy",
          "type": "bytes32"
        }
      ],
      "name": "isInitialized",
      "outputs": [
        {
          "internalType": "bool",
          "name": "",
          "type": "bool"
        }
      ],
      "stateMutability": "view",
      "type": "function"
    },
    {
      "inputs": [],
      "name": "isResolverCached",
      "outputs": [
        {
          "internalType": "bool",
          "name": "",
          "type": "bool"
        }
      ],
      "stateMutability": "view",
      "type": "function"
    },
    {
      "inputs": [],
      "name": "requiredContracts",
      "outputs": [
        {
          "internalType": "bytes32[]",
          "name": "contracts",
          "type": "bytes32[]"
        }
      ],
      "stateMutability": "pure",
      "type": "function"
    },
    {
      "inputs": [],
      "name": "resolver",
      "outputs": [
        {
          "internalType": "contract IAddressResolver",
          "name": "",
          "type": "address"
        }
      ],
      "stateMutability": "view",
      "type": "function"
    },
    {
      "inputs": [
        {
          "internalType": "bytes32",
          "name": "_ccy",
          "type": "bytes32"
        },
        {
          "internalType": "uint256",
          "name": "_maturity",
          "type": "uint256"
        },
        {
          "internalType": "uint256",
          "name": "_nextMaturity",
          "type": "uint256"
        },
        {
          "internalType": "uint256",
          "name": "_unitPrice",
          "type": "uint256"
        }
      ],
      "name": "updateCompoundFactor",
      "outputs": [],
      "stateMutability": "nonpayable",
      "type": "function"
    }
  ],
  "transactionHash": "0xb05646eb24c2c093495ed40e5add4504de7739d0fcea85a6dcd47aac1340a08d",
  "args": [],
  "numDeployments": 2,
  "solcInputHash": "812031abb9c060713bf3d8062f532a78",
  "bytecode": "0x608060405234801561001057600080fd5b50611bd6806100206000396000f3fe608060405234801561001057600080fd5b506004361061012c5760003560e01c80637636e941116100ad578063c3e7a7ad11610071578063c3e7a7ad146102b1578063c4d66de8146102c4578063c8b0f673146102d7578063e0997659146101df578063f7b637bb146102ea57600080fd5b80637636e9411461025257806395669656146102655780639af50c0014610278578063b95a33ab1461028b578063c2188b641461029e57600080fd5b80633d03b9da116100f45780633d03b9da146101df57806340945396146101f457806349a1d218146102075780635f18aa0c1461021a57806370c641a61461023f57600080fd5b806304f3bcec14610131578063056d0f021461015657806318612e321461019c57806329985e5a146101bd5780632af64bd3146101c7575b600080fd5b6101396102fd565b6040516001600160a01b0390911681526020015b60405180910390f35b6101696101643660046115ec565b61031e565b60405161014d91908151815260208083015190820152604080830151908201526060918201519181019190915260800190565b6101af6101aa36600461160e565b6103a7565b60405190815260200161014d565b6101c5610459565b005b6101cf610606565b604051901515815260200161014d565b6101e761076c565b60405161014d919061163a565b6101af61020236600461167e565b6107d1565b6101af61021536600461167e565b6107ef565b61022d61022836600461167e565b61080d565b60405160ff909116815260200161014d565b6101af61024d3660046116af565b61082e565b6101af61026036600461160e565b610862565b6101cf6102733660046116df565b610912565b6101af61028636600461167e565b610c70565b6101c561029936600461171c565b610c8e565b6101af6102ac36600461167e565b611098565b6101af6102bf3660046116af565b6110b6565b6101c56102d236600461174e565b6110fa565b6101c56102e536600461176b565b611278565b6101cf6102f836600461167e565b6113d2565b6000600080516020611b818339815191525b546001600160a01b0316919050565b6103496040518060800160405280600081526020016000815260200160008152602001600081525090565b6103516113f0565b600084815260089190910160209081526040808320858452825291829020825160808101845281548152600182015492810192909252600281015492820192909252600390910154606082015290505b92915050565b6000806103b26113f0565b6000868152600891909101602090815260408083208784529091529020600101549050806104275760405162461bcd60e51b815260206004820181905260248201527f436f6d706f756e6420666163746f72206973206e6f742066697865642079657460448201526064015b60405180910390fd5b806104318661080d565b61043c90600a6118a3565b61044690856118b2565b610450919061194d565b95945050505050565b600061046361076c565b905060005b81518110156106025760008282815181106104855761048561197b565b6020026020010151905060006104a6600080516020611b8183398151915290565b54604080517f5265736f6c766572206d697373696e67207461726765743a200000000000000060208201526039808201869052825180830390910181526059820192839052636795dbcd60e01b9092526001600160a01b0390921691636795dbcd9161051791869190605d016119de565b60206040518083038186803b15801561052f57600080fd5b505afa158015610543573d6000803e3d6000fd5b505050506040513d601f19601f8201168201806040525081019061056791906119ff565b60008381527f4abde63c3e81aefa5764b017968bc473e83e093d7e1a10247d19e0a3e4124019602090815260409182902080546001600160a01b0319166001600160a01b03851690811790915582518681529182015281519293507f88a93678a3692f6789d9546fc621bf7234b101ddb7d4fe479455112831b8aa68929081900390910190a1505080806105fa90611a1c565b915050610468565b5050565b60008061061161076c565b905060005b81518110156107635760008282815181106106335761063361197b565b60200260200101519050610652600080516020611b8183398151915290565b600082815260019190910160205260409020546001600160a01b0316600080516020611b81833981519152546040516321f8a72160e01b8152600481018490526001600160a01b03909116906321f8a7219060240160206040518083038186803b1580156106bf57600080fd5b505afa1580156106d3573d6000803e3d6000fd5b505050506040513d601f19601f820116820180604052508101906106f791906119ff565b6001600160a01b0316141580610741575060008181527f4abde63c3e81aefa5764b017968bc473e83e093d7e1a10247d19e0a3e412401960205260409020546001600160a01b0316155b15610750576000935050505090565b508061075b81611a1c565b915050610616565b50600191505090565b604080516001808252818301909252606091602080830190803683370190505090507f4c656e64696e674d61726b6574436f6e74726f6c6c6572000000000000000000816000815181106107c2576107c261197b565b60200260200101818152505090565b60006107db6113f0565b600092835260020160205250604090205490565b60006107f96113f0565b600092835260030160205250604090205490565b60006108176113f0565b600092835260040160205250604090205460ff1690565b60006108386113f0565b6000938452600501602090815260408085206001600160a01b039490941685529290525090205490565b6000808315610899576108736113f0565b6000868152600891909101602090815260408083208784529091529020600101546108a2565b6108a2856107d1565b9050600081116108f45760405162461bcd60e51b815260206004820181905260248201527f436f6d706f756e6420666163746f72206973206e6f7420666978656420796574604482015260640161041e565b6108fd8561080d565b61090890600a6118a3565b61044682856118b2565b600061091d33611413565b6109395760405162461bcd60e51b815260040161041e90611a37565b60006109436113f0565b6000878152600891909101602090815260408083208784529091528120600101549150816109708861080d565b61097b90600a6118a3565b61098590866118b2565b61098f919061194d565b9050600061099b6113f0565b6000898152600591909101602090815260408083206001600160a01b038b16845290915281205491508212610ac95760008112610a0957816109db6113f0565b60060160008a815260200190815260200160002060008282546109fe9190611a6e565b90915550610bdb9050565b6000610a158284611a86565b905060008112610a915780610a286113f0565b60060160008b81526020019081526020016000206000828254610a4b9190611a6e565b90915550610a5b90508184611ac7565b610a636113f0565b60070160008b81526020019081526020016000206000828254610a869190611b06565b90915550610ac39050565b82610a9a6113f0565b60070160008b81526020019081526020016000206000828254610abd9190611b06565b90915550505b50610bdb565b60008113610b0557610ada82611b1d565b610ae26113f0565b60070160008a815260200190815260200160002060008282546109fe9190611a6e565b6000610b118284611a86565b905060008113610b9f57610b2481611b1d565b610b2c6113f0565b60070160008b81526020019081526020016000206000828254610b4f9190611a6e565b90915550819050610b5f84611b1d565b610b699190611a86565b610b716113f0565b60060160008b81526020019081526020016000206000828254610b949190611b06565b90915550610bd99050565b610ba883611b1d565b610bb06113f0565b60060160008b81526020019081526020016000206000828254610bd39190611b06565b90915550505b505b81610be46113f0565b60008a8152600591909101602090815260408083206001600160a01b038c16845290915281208054909190610c1a908490611a86565b90915550506040518281526001600160a01b038816906000908a907f224d4ee1e2931416deb62bbde4f281397249c4a54319c43ee455efc348c13f4f9060200160405180910390a4506001979650505050505050565b6000610c7a6113f0565b600092835260070160205250604090205490565b610c9733611413565b610cb35760405162461bcd60e51b815260040161041e90611a37565b80610cf45760405162461bcd60e51b8152602060048201526011602482015270756e69745072696365206973207a65726f60781b604482015260640161041e565b610cfc6113f0565b60008581526008919091016020908152604080832086845290915290206002015415610d6a5760405162461bcd60e51b815260206004820152601860248201527f616c72656164792075706461746564206d617475726974790000000000000000604482015260640161041e565b828211610dac5760405162461bcd60e51b815260206004820152601060248201526f696e76616c6964206d6174757269747960801b604482015260640161041e565b610db46113f0565b60008581526008919091016020908152604080832085845290915290206001015415610e155760405162461bcd60e51b815260206004820152601060248201526f65786973746564206d6174757269747960801b604482015260640161041e565b610e1d6113f0565b60008581526002919091016020526040902054610e386113f0565b600086815260019190910160205260409020541415610e9a57610e596113f0565b60008581526002919091016020526040902054610e746113f0565b600086815260089190910160209081526040808320878452909152902060010155610f0f565b610ea26113f0565b600085815260089190910160209081526040808320868452909152902060010154610f0f5760405162461bcd60e51b815260206004820152601760248201527f696e76616c696420636f6d706f756e6420666163746f72000000000000000000604482015260640161041e565b81610f186113f0565b60008681526008919091016020908152604080832087845290915290206002015580612710610f456113f0565b60008781526002919091016020526040902054610f629190611b3a565b610f6c9190611b59565b610f746113f0565b6000868152600291909101602052604090205581610f906113f0565b6003016000868152602001908152602001600020819055506040518060800160405280828152602001610fc16113f0565b60020160008781526020019081526020016000205481526020016000815260200184815250610fee6113f0565b60008681526008919091016020908152604080832086845282529182902083518155908301516001820155908201516002820155606090910151600390910155837fd4c7c76c7a9ded4f565a103fedb317099892883b1d82aac5ba2cc68508e0b14a6110586113f0565b600087815260029190910160209081526040918290205482519081529081018590529081018590526060810186905260800160405180910390a250505050565b60006110a26113f0565b600092835260060160205250604090205490565b60006110c18361080d565b6110cc90600a6118a3565b6110d5846107d1565b6110df858561082e565b6110e991906118b2565b6110f3919061194d565b9392505050565b600054610100900460ff161580801561111a5750600054600160ff909116105b806111345750303b158015611134575060005460ff166001145b6111975760405162461bcd60e51b815260206004820152602e60248201527f496e697469616c697a61626c653a20636f6e747261637420697320616c72656160448201526d191e481a5b9a5d1a585b1a5e995960921b606482015260840161041e565b6000805460ff1916600117905580156111ba576000805461ff0019166101001790555b60006111c461148d565b6001600160a01b031614156112265760405162461bcd60e51b815260206004820152602260248201527f4d7573742062652063616c6c65642066726f6d2070726f787920636f6e74726160448201526118dd60f21b606482015260840161041e565b61122f826114b5565b8015610602576000805461ff0019169055604051600181527f7f26b83ff96e1f2b6a682f133852f6798a09c465da95921460cefb38474024989060200160405180910390a15050565b61128133611413565b61129d5760405162461bcd60e51b815260040161041e90611a37565b806112ea5760405162461bcd60e51b815260206004820152601760248201527f436f6d706f756e6420666163746f72206973207a65726f000000000000000000604482015260640161041e565b6112f3836113d2565b156113405760405162461bcd60e51b815260206004820152601c60248201527f416c726561647920696e697469616c697a65642063757272656e637900000000604482015260640161041e565b600161134a6113f0565b600085815260209190915260409020805460ff1916911515919091179055816113716113f0565b600085815260049190910160205260409020805460ff191660ff929092169190911790558061139e6113f0565b60008581526001919091016020526040902055806113ba6113f0565b60009485526002016020526040909320929092555050565b60006113dc6113f0565b600092835260205250604090205460ff1690565b7eeb125d2cd445fcbd619aab5c9493ddf1b2fb2fb0a82715c79a670dddbf7d6590565b60008061141e61076c565b905060005b81518110156114835761144e8282815181106114415761144161197b565b602002602001015161154a565b6001600160a01b0316846001600160a01b03161415611471575060019392505050565b8061147b81611a1c565b915050611423565b5060009392505050565b60007f360894a13ba1a3210667c828492db98dca3e2076cc3735a920a3ca505d382bbc61030f565b600080516020611b81833981519152546001600160a01b03161561151b5760405162461bcd60e51b815260206004820152601b60248201527f7265736f6c766572207265676973746572656420616c72656164790000000000604482015260640161041e565b600080516020611b8183398151915280546001600160a01b0319166001600160a01b0392909216919091179055565b60008181527f4abde63c3e81aefa5764b017968bc473e83e093d7e1a10247d19e0a3e41240196020908152604080832054815170026b4b9b9b4b7339030b2323932b9b99d1607d1b9381019390935260318084018690528251808503909101815260519093019091526103a191849184916001600160a01b0390911690816115e55760405162461bcd60e51b815260040161041e9190611b6d565b5092915050565b600080604083850312156115ff57600080fd5b50508035926020909101359150565b60008060006060848603121561162357600080fd5b505081359360208301359350604090920135919050565b6020808252825182820181905260009190848201906040850190845b8181101561167257835183529284019291840191600101611656565b50909695505050505050565b60006020828403121561169057600080fd5b5035919050565b6001600160a01b03811681146116ac57600080fd5b50565b600080604083850312156116c257600080fd5b8235915060208301356116d481611697565b809150509250929050565b600080600080608085870312156116f557600080fd5b84359350602085013561170781611697565b93969395505050506040820135916060013590565b6000806000806080858703121561173257600080fd5b5050823594602084013594506040840135936060013592509050565b60006020828403121561176057600080fd5b81356110f381611697565b60008060006060848603121561178057600080fd5b83359250602084013560ff8116811461179857600080fd5b929592945050506040919091013590565b634e487b7160e01b600052601160045260246000fd5b600181815b808511156117fa5781600019048211156117e0576117e06117a9565b808516156117ed57918102915b93841c93908002906117c4565b509250929050565b600082611811575060016103a1565b8161181e575060006103a1565b8160018114611834576002811461183e5761185a565b60019150506103a1565b60ff84111561184f5761184f6117a9565b50506001821b6103a1565b5060208310610133831016604e8410600b841016171561187d575081810a6103a1565b61188783836117bf565b806000190482111561189b5761189b6117a9565b029392505050565b60006110f360ff841683611802565b60006001600160ff1b03818413828413808216868404861116156118d8576118d86117a9565b600160ff1b60008712828116878305891216156118f7576118f76117a9565b60008712925087820587128484161615611913576119136117a9565b87850587128184161615611929576119296117a9565b505050929093029392505050565b634e487b7160e01b600052601260045260246000fd5b60008261195c5761195c611937565b600160ff1b821460001984141615611976576119766117a9565b500590565b634e487b7160e01b600052603260045260246000fd5b6000815180845260005b818110156119b75760208185018101518683018201520161199b565b818111156119c9576000602083870101525b50601f01601f19169290920160200192915050565b8281526040602082015260006119f76040830184611991565b949350505050565b600060208284031215611a1157600080fd5b81516110f381611697565b6000600019821415611a3057611a306117a9565b5060010190565b60208082526017908201527f4f6e6c7920416363657074656420436f6e747261637473000000000000000000604082015260600190565b60008219821115611a8157611a816117a9565b500190565b600080821280156001600160ff1b0384900385131615611aa857611aa86117a9565b600160ff1b8390038412811615611ac157611ac16117a9565b50500190565b60008083128015600160ff1b850184121615611ae557611ae56117a9565b6001600160ff1b0384018313811615611b0057611b006117a9565b50500390565b600082821015611b1857611b186117a9565b500390565b6000600160ff1b821415611b3357611b336117a9565b5060000390565b6000816000190483118215151615611b5457611b546117a9565b500290565b600082611b6857611b68611937565b500490565b6020815260006110f3602083018461199156fe4abde63c3e81aefa5764b017968bc473e83e093d7e1a10247d19e0a3e4124018a2646970667358221220a46d7218e4785ca4780cffb8f9ab8c699d0e3eb091b55948f4ad320fe72544f164736f6c63430008090033",
  "implementation": "0x5Cd307472436E96d88eF72B4488d829563B8e0d3",
  "devdoc": {
    "kind": "dev",
    "methods": {
      "acceptedContracts()": {
        "details": "The contact name listed in this method is also needed to be listed `requiredContracts` method."
      },
      "initialize(address)": {
        "details": "Function is invoked by the proxy contract when the contract is added to the ProxyController.",
        "params": {
          "_resolver": "The address of the Address Resolver contract"
        }
      },
      "requiredContracts()": {
        "details": "The contract name list is in `./libraries/Contracts.sol`."
      }
    },
    "version": 1
  },
  "userdoc": {
    "kind": "user",
    "methods": {
      "acceptedContracts()": {
        "notice": "Returns contract names that can call this contract."
      },
      "initialize(address)": {
        "notice": "Initializes the contract."
      },
      "requiredContracts()": {
        "notice": "Returns the contract names used in this contract."
      }
    },
    "notice": "Implements the management of the genesis value as an amount for Lending deals.",
    "version": 1
  },
  "storageLayout": {
    "storage": [
      {
        "astId": 790,
        "contract": "contracts/GenesisValueVault.sol:GenesisValueVault",
        "label": "_initialized",
        "offset": 0,
        "slot": "0",
        "type": "t_uint8"
      },
      {
        "astId": 793,
        "contract": "contracts/GenesisValueVault.sol:GenesisValueVault",
        "label": "_initializing",
        "offset": 1,
        "slot": "0",
        "type": "t_bool"
      }
    ],
    "types": {
      "t_bool": {
        "encoding": "inplace",
        "label": "bool",
        "numberOfBytes": "1"
      },
      "t_uint8": {
        "encoding": "inplace",
        "label": "uint8",
        "numberOfBytes": "1"
      }
    }
  }
}