{
  "address": "0x94d3dFB7f34E054dF8cAF669Df727B11Ab6EbdB2",
  "abi": [
    {
      "anonymous": false,
      "inputs": [
        {
          "indexed": false,
          "internalType": "bytes32",
          "name": "name",
          "type": "bytes32"
        },
        {
          "indexed": false,
          "internalType": "address",
          "name": "destination",
          "type": "address"
        }
      ],
      "name": "CacheUpdated",
      "type": "event"
    },
    {
      "anonymous": false,
      "inputs": [
        {
          "indexed": false,
          "internalType": "uint8",
          "name": "version",
          "type": "uint8"
        }
      ],
      "name": "Initialized",
      "type": "event"
    },
    {
      "anonymous": false,
      "inputs": [
        {
          "indexed": false,
          "internalType": "bytes32",
          "name": "ccy",
          "type": "bytes32"
        },
        {
          "indexed": false,
          "internalType": "uint256",
          "name": "maturity",
          "type": "uint256"
        },
        {
          "indexed": false,
          "internalType": "uint256",
          "name": "openingUnitPrice",
          "type": "uint256"
        },
        {
          "indexed": false,
          "internalType": "uint256",
          "name": "lastLendUnitPrice",
          "type": "uint256"
        },
        {
          "indexed": false,
          "internalType": "uint256",
          "name": "lastBorrowUnitPrice",
          "type": "uint256"
        },
        {
          "indexed": false,
          "internalType": "uint256",
          "name": "offsetAmount",
          "type": "uint256"
        }
      ],
      "name": "ItayoseExecuted",
      "type": "event"
    },
    {
      "anonymous": false,
      "inputs": [
        {
          "indexed": false,
          "internalType": "uint256",
          "name": "maturity",
          "type": "uint256"
        },
        {
          "indexed": false,
          "internalType": "uint256",
          "name": "prevMaturity",
          "type": "uint256"
        }
      ],
      "name": "MarketOpened",
      "type": "event"
    },
    {
      "anonymous": false,
      "inputs": [
        {
          "indexed": false,
          "internalType": "uint48",
          "name": "orderId",
          "type": "uint48"
        },
        {
          "indexed": true,
          "internalType": "address",
          "name": "maker",
          "type": "address"
        },
        {
          "indexed": false,
          "internalType": "enum ProtocolTypes.Side",
          "name": "side",
          "type": "uint8"
        },
        {
          "indexed": false,
          "internalType": "bytes32",
          "name": "ccy",
          "type": "bytes32"
        },
        {
          "indexed": false,
          "internalType": "uint256",
          "name": "maturity",
          "type": "uint256"
        },
        {
          "indexed": false,
          "internalType": "uint256",
          "name": "amount",
          "type": "uint256"
        },
        {
          "indexed": false,
          "internalType": "uint256",
          "name": "unitPrice",
          "type": "uint256"
        }
      ],
      "name": "OrderCanceled",
      "type": "event"
    },
    {
      "anonymous": false,
      "inputs": [
        {
          "indexed": true,
          "internalType": "address",
          "name": "user",
          "type": "address"
        },
        {
          "indexed": false,
          "internalType": "enum ProtocolTypes.Side",
          "name": "side",
          "type": "uint8"
        },
        {
          "indexed": true,
          "internalType": "bytes32",
          "name": "ccy",
          "type": "bytes32"
        },
        {
          "indexed": true,
          "internalType": "uint256",
          "name": "maturity",
          "type": "uint256"
        },
        {
          "indexed": false,
          "internalType": "uint256",
          "name": "inputAmount",
          "type": "uint256"
        },
        {
          "indexed": false,
          "internalType": "uint256",
          "name": "inputUnitPrice",
          "type": "uint256"
        },
        {
          "indexed": false,
          "internalType": "uint256",
          "name": "filledAmount",
          "type": "uint256"
        },
        {
          "indexed": false,
          "internalType": "uint256",
          "name": "filledUnitPrice",
          "type": "uint256"
        },
        {
          "indexed": false,
          "internalType": "uint256",
          "name": "filledFutureValue",
          "type": "uint256"
        },
        {
          "indexed": false,
          "internalType": "uint48",
          "name": "placedOrderId",
          "type": "uint48"
        },
        {
          "indexed": false,
          "internalType": "uint256",
          "name": "placedAmount",
          "type": "uint256"
        },
        {
          "indexed": false,
          "internalType": "uint256",
          "name": "placedUnitPrice",
          "type": "uint256"
        },
        {
          "indexed": false,
          "internalType": "uint256",
          "name": "cbThresholdUnitPrice",
          "type": "uint256"
        }
      ],
      "name": "OrderExecuted",
      "type": "event"
    },
    {
      "anonymous": false,
      "inputs": [
        {
          "indexed": false,
          "internalType": "uint48[]",
          "name": "orderIds",
          "type": "uint48[]"
        },
        {
          "indexed": true,
          "internalType": "address",
          "name": "maker",
          "type": "address"
        },
        {
          "indexed": false,
          "internalType": "enum ProtocolTypes.Side",
          "name": "side",
          "type": "uint8"
        },
        {
          "indexed": true,
          "internalType": "bytes32",
          "name": "ccy",
          "type": "bytes32"
        },
        {
          "indexed": false,
          "internalType": "uint256",
          "name": "maturity",
          "type": "uint256"
        },
        {
          "indexed": false,
          "internalType": "uint256",
          "name": "amount",
          "type": "uint256"
        },
        {
          "indexed": false,
          "internalType": "uint256",
          "name": "futureValue",
          "type": "uint256"
        }
      ],
      "name": "OrdersCleaned",
      "type": "event"
    },
    {
      "anonymous": false,
      "inputs": [
        {
          "indexed": false,
          "internalType": "address",
          "name": "account",
          "type": "address"
        }
      ],
      "name": "Paused",
      "type": "event"
    },
    {
      "anonymous": false,
      "inputs": [
        {
          "indexed": true,
          "internalType": "address",
          "name": "user",
          "type": "address"
        },
        {
          "indexed": false,
          "internalType": "enum ProtocolTypes.Side",
          "name": "side",
          "type": "uint8"
        },
        {
          "indexed": true,
          "internalType": "bytes32",
          "name": "ccy",
          "type": "bytes32"
        },
        {
          "indexed": true,
          "internalType": "uint256",
          "name": "maturity",
          "type": "uint256"
        },
        {
          "indexed": false,
          "internalType": "uint256",
          "name": "futureValue",
          "type": "uint256"
        },
        {
          "indexed": false,
          "internalType": "uint256",
          "name": "filledAmount",
          "type": "uint256"
        },
        {
          "indexed": false,
          "internalType": "uint256",
          "name": "filledUnitPrice",
          "type": "uint256"
        },
        {
          "indexed": false,
          "internalType": "uint256",
          "name": "filledFutureValue",
          "type": "uint256"
        },
        {
          "indexed": false,
          "internalType": "uint256",
          "name": "cbThresholdUnitPrice",
          "type": "uint256"
        }
      ],
      "name": "PositionUnwound",
      "type": "event"
    },
    {
      "anonymous": false,
      "inputs": [
        {
          "indexed": true,
          "internalType": "address",
          "name": "user",
          "type": "address"
        },
        {
          "indexed": false,
          "internalType": "enum ProtocolTypes.Side",
          "name": "side",
          "type": "uint8"
        },
        {
          "indexed": true,
          "internalType": "bytes32",
          "name": "ccy",
          "type": "bytes32"
        },
        {
          "indexed": true,
          "internalType": "uint256",
          "name": "maturity",
          "type": "uint256"
        },
        {
          "indexed": false,
          "internalType": "uint256",
          "name": "amount",
          "type": "uint256"
        },
        {
          "indexed": false,
          "internalType": "uint256",
          "name": "unitPrice",
          "type": "uint256"
        },
        {
          "indexed": false,
          "internalType": "uint48",
          "name": "orderId",
          "type": "uint48"
        }
      ],
      "name": "PreOrderExecuted",
      "type": "event"
    },
    {
      "anonymous": false,
      "inputs": [
        {
          "indexed": false,
          "internalType": "address",
          "name": "account",
          "type": "address"
        }
      ],
      "name": "Unpaused",
      "type": "event"
    },
    {
      "inputs": [],
      "name": "acceptedContracts",
      "outputs": [
        {
          "internalType": "bytes32[]",
          "name": "contracts",
          "type": "bytes32[]"
        }
      ],
      "stateMutability": "pure",
      "type": "function"
    },
    {
      "inputs": [],
      "name": "buildCache",
      "outputs": [],
      "stateMutability": "nonpayable",
      "type": "function"
    },
    {
      "inputs": [
        {
          "internalType": "address",
          "name": "_user",
          "type": "address"
        },
        {
          "internalType": "uint48",
          "name": "_orderId",
          "type": "uint48"
        }
      ],
      "name": "cancelOrder",
      "outputs": [],
      "stateMutability": "nonpayable",
      "type": "function"
    },
    {
      "inputs": [
        {
          "internalType": "address",
          "name": "_user",
          "type": "address"
        }
      ],
      "name": "cleanUpOrders",
      "outputs": [
        {
          "internalType": "uint256",
          "name": "activeLendOrderCount",
          "type": "uint256"
        },
        {
          "internalType": "uint256",
          "name": "activeBorrowOrderCount",
          "type": "uint256"
        },
        {
          "internalType": "uint256",
          "name": "removedLendOrderFutureValue",
          "type": "uint256"
        },
        {
          "internalType": "uint256",
          "name": "removedBorrowOrderFutureValue",
          "type": "uint256"
        },
        {
          "internalType": "uint256",
          "name": "removedLendOrderAmount",
          "type": "uint256"
        },
        {
          "internalType": "uint256",
          "name": "removedBorrowOrderAmount",
          "type": "uint256"
        },
        {
          "internalType": "uint256",
          "name": "maturity",
          "type": "uint256"
        }
      ],
      "stateMutability": "nonpayable",
      "type": "function"
    },
    {
      "inputs": [
        {
          "internalType": "enum ProtocolTypes.Side",
          "name": "_side",
          "type": "uint8"
        },
        {
          "internalType": "uint256",
          "name": "_futureValue",
          "type": "uint256"
        }
      ],
      "name": "estimateFilledAmount",
      "outputs": [
        {
          "internalType": "uint256",
          "name": "amount",
          "type": "uint256"
        }
      ],
      "stateMutability": "view",
      "type": "function"
    },
    {
      "inputs": [],
      "name": "executeItayoseCall",
      "outputs": [
        {
          "internalType": "uint256",
          "name": "openingUnitPrice",
          "type": "uint256"
        },
        {
          "internalType": "uint256",
          "name": "totalOffsetAmount",
          "type": "uint256"
        },
        {
          "internalType": "uint256",
          "name": "openingDate",
          "type": "uint256"
        },
        {
          "components": [
            {
              "internalType": "uint48",
              "name": "orderId",
              "type": "uint48"
            },
            {
              "internalType": "address",
              "name": "maker",
              "type": "address"
            },
            {
              "internalType": "uint256",
              "name": "amount",
              "type": "uint256"
            },
            {
              "internalType": "uint256",
              "name": "futureValue",
              "type": "uint256"
            }
          ],
          "internalType": "struct ILendingMarket.PartiallyFilledOrder",
          "name": "partiallyFilledLendingOrder",
          "type": "tuple"
        },
        {
          "components": [
            {
              "internalType": "uint48",
              "name": "orderId",
              "type": "uint48"
            },
            {
              "internalType": "address",
              "name": "maker",
              "type": "address"
            },
            {
              "internalType": "uint256",
              "name": "amount",
              "type": "uint256"
            },
            {
              "internalType": "uint256",
              "name": "futureValue",
              "type": "uint256"
            }
          ],
          "internalType": "struct ILendingMarket.PartiallyFilledOrder",
          "name": "partiallyFilledBorrowingOrder",
          "type": "tuple"
        }
      ],
      "stateMutability": "nonpayable",
      "type": "function"
    },
    {
      "inputs": [
        {
          "internalType": "enum ProtocolTypes.Side",
          "name": "_side",
          "type": "uint8"
        },
        {
          "internalType": "address",
          "name": "_user",
          "type": "address"
        },
        {
          "internalType": "uint256",
          "name": "_amount",
          "type": "uint256"
        },
        {
          "internalType": "uint256",
          "name": "_unitPrice",
          "type": "uint256"
        },
        {
          "internalType": "uint256",
          "name": "_circuitBreakerLimitRange",
          "type": "uint256"
        }
      ],
      "name": "executeOrder",
      "outputs": [
        {
          "components": [
            {
              "internalType": "uint256",
              "name": "amount",
              "type": "uint256"
            },
            {
              "internalType": "uint256",
              "name": "unitPrice",
              "type": "uint256"
            },
            {
              "internalType": "uint256",
              "name": "futureValue",
              "type": "uint256"
            },
            {
              "internalType": "uint256",
              "name": "ignoredAmount",
              "type": "uint256"
            }
          ],
          "internalType": "struct ILendingMarket.FilledOrder",
          "name": "filledOrder",
          "type": "tuple"
        },
        {
          "components": [
            {
              "internalType": "uint48",
              "name": "orderId",
              "type": "uint48"
            },
            {
              "internalType": "address",
              "name": "maker",
              "type": "address"
            },
            {
              "internalType": "uint256",
              "name": "amount",
              "type": "uint256"
            },
            {
              "internalType": "uint256",
              "name": "futureValue",
              "type": "uint256"
            }
          ],
          "internalType": "struct ILendingMarket.PartiallyFilledOrder",
          "name": "partiallyFilledOrder",
          "type": "tuple"
        }
      ],
      "stateMutability": "nonpayable",
      "type": "function"
    },
    {
      "inputs": [
        {
          "internalType": "enum ProtocolTypes.Side",
          "name": "_side",
          "type": "uint8"
        },
        {
          "internalType": "address",
          "name": "_user",
          "type": "address"
        },
        {
          "internalType": "uint256",
          "name": "_amount",
          "type": "uint256"
        },
        {
          "internalType": "uint256",
          "name": "_unitPrice",
          "type": "uint256"
        }
      ],
      "name": "executePreOrder",
      "outputs": [],
      "stateMutability": "nonpayable",
      "type": "function"
    },
    {
      "inputs": [
        {
          "internalType": "uint256",
          "name": "_limit",
          "type": "uint256"
        }
      ],
      "name": "getBorrowOrderBook",
      "outputs": [
        {
          "internalType": "uint256[]",
          "name": "unitPrices",
          "type": "uint256[]"
        },
        {
          "internalType": "uint256[]",
          "name": "amounts",
          "type": "uint256[]"
        },
        {
          "internalType": "uint256[]",
          "name": "quantities",
          "type": "uint256[]"
        }
      ],
      "stateMutability": "view",
      "type": "function"
    },
    {
      "inputs": [
        {
          "internalType": "address",
          "name": "_user",
          "type": "address"
        }
      ],
      "name": "getBorrowOrderIds",
      "outputs": [
        {
          "internalType": "uint48[]",
          "name": "activeOrderIds",
          "type": "uint48[]"
        },
        {
          "internalType": "uint48[]",
          "name": "inActiveOrderIds",
          "type": "uint48[]"
        }
      ],
      "stateMutability": "view",
      "type": "function"
    },
    {
      "inputs": [],
      "name": "getBorrowUnitPrice",
      "outputs": [
        {
          "internalType": "uint256",
          "name": "",
          "type": "uint256"
        }
      ],
      "stateMutability": "view",
      "type": "function"
    },
    {
      "inputs": [
        {
          "internalType": "uint256",
          "name": "_circuitBreakerLimitRange",
          "type": "uint256"
        }
      ],
      "name": "getCircuitBreakerThresholds",
      "outputs": [
        {
          "internalType": "uint256",
          "name": "maxLendUnitPrice",
          "type": "uint256"
        },
        {
          "internalType": "uint256",
          "name": "minBorrowUnitPrice",
          "type": "uint256"
        }
      ],
      "stateMutability": "view",
      "type": "function"
    },
    {
      "inputs": [],
      "name": "getCurrency",
      "outputs": [
        {
          "internalType": "bytes32",
          "name": "currency",
          "type": "bytes32"
        }
      ],
      "stateMutability": "view",
      "type": "function"
    },
    {
      "inputs": [
        {
          "internalType": "uint256",
          "name": "_maturity",
          "type": "uint256"
        }
      ],
      "name": "getItayoseLog",
      "outputs": [
        {
          "components": [
            {
              "internalType": "uint256",
              "name": "openingUnitPrice",
              "type": "uint256"
            },
            {
              "internalType": "uint256",
              "name": "lastLendUnitPrice",
              "type": "uint256"
            },
            {
              "internalType": "uint256",
              "name": "lastBorrowUnitPrice",
              "type": "uint256"
            }
          ],
          "internalType": "struct ItayoseLog",
          "name": "",
          "type": "tuple"
        }
      ],
      "stateMutability": "view",
      "type": "function"
    },
    {
      "inputs": [
        {
          "internalType": "uint256",
          "name": "_limit",
          "type": "uint256"
        }
      ],
      "name": "getLendOrderBook",
      "outputs": [
        {
          "internalType": "uint256[]",
          "name": "unitPrices",
          "type": "uint256[]"
        },
        {
          "internalType": "uint256[]",
          "name": "amounts",
          "type": "uint256[]"
        },
        {
          "internalType": "uint256[]",
          "name": "quantities",
          "type": "uint256[]"
        }
      ],
      "stateMutability": "view",
      "type": "function"
    },
    {
      "inputs": [
        {
          "internalType": "address",
          "name": "_user",
          "type": "address"
        }
      ],
      "name": "getLendOrderIds",
      "outputs": [
        {
          "internalType": "uint48[]",
          "name": "activeOrderIds",
          "type": "uint48[]"
        },
        {
          "internalType": "uint48[]",
          "name": "inActiveOrderIds",
          "type": "uint48[]"
        }
      ],
      "stateMutability": "view",
      "type": "function"
    },
    {
      "inputs": [],
      "name": "getLendUnitPrice",
      "outputs": [
        {
          "internalType": "uint256",
          "name": "",
          "type": "uint256"
        }
      ],
      "stateMutability": "view",
      "type": "function"
    },
    {
      "inputs": [],
      "name": "getMarket",
      "outputs": [
        {
          "components": [
            {
              "internalType": "bytes32",
              "name": "ccy",
              "type": "bytes32"
            },
            {
              "internalType": "uint256",
              "name": "maturity",
              "type": "uint256"
            },
            {
              "internalType": "uint256",
              "name": "openingDate",
              "type": "uint256"
            },
            {
              "internalType": "uint256",
              "name": "borrowUnitPrice",
              "type": "uint256"
            },
            {
              "internalType": "uint256",
              "name": "lendUnitPrice",
              "type": "uint256"
            },
            {
              "internalType": "uint256",
              "name": "midUnitPrice",
              "type": "uint256"
            },
            {
              "internalType": "uint256",
              "name": "openingUnitPrice",
              "type": "uint256"
            },
            {
              "internalType": "bool",
              "name": "isReady",
              "type": "bool"
            }
          ],
          "internalType": "struct ILendingMarket.Market",
          "name": "market",
          "type": "tuple"
        }
      ],
      "stateMutability": "view",
      "type": "function"
    },
    {
      "inputs": [],
      "name": "getMaturity",
      "outputs": [
        {
          "internalType": "uint256",
          "name": "maturity",
          "type": "uint256"
        }
      ],
      "stateMutability": "view",
      "type": "function"
    },
    {
      "inputs": [],
      "name": "getMidUnitPrice",
      "outputs": [
        {
          "internalType": "uint256",
          "name": "",
          "type": "uint256"
        }
      ],
      "stateMutability": "view",
      "type": "function"
    },
    {
      "inputs": [],
      "name": "getOpeningDate",
      "outputs": [
        {
          "internalType": "uint256",
          "name": "openingDate",
          "type": "uint256"
        }
      ],
      "stateMutability": "view",
      "type": "function"
    },
    {
      "inputs": [
        {
          "internalType": "uint48",
          "name": "_orderId",
          "type": "uint48"
        }
      ],
      "name": "getOrder",
      "outputs": [
        {
          "internalType": "enum ProtocolTypes.Side",
          "name": "side",
          "type": "uint8"
        },
        {
          "internalType": "uint256",
          "name": "unitPrice",
          "type": "uint256"
        },
        {
          "internalType": "uint256",
          "name": "maturity",
          "type": "uint256"
        },
        {
          "internalType": "address",
          "name": "maker",
          "type": "address"
        },
        {
          "internalType": "uint256",
          "name": "amount",
          "type": "uint256"
        },
        {
          "internalType": "uint256",
          "name": "timestamp",
          "type": "uint256"
        },
        {
          "internalType": "bool",
          "name": "isPreOrder",
          "type": "bool"
        }
      ],
      "stateMutability": "view",
      "type": "function"
    },
    {
      "inputs": [
        {
          "internalType": "address",
          "name": "_user",
          "type": "address"
        }
      ],
      "name": "getTotalAmountFromBorrowOrders",
      "outputs": [
        {
          "internalType": "uint256",
          "name": "activeAmount",
          "type": "uint256"
        },
        {
          "internalType": "uint256",
          "name": "inactiveAmount",
          "type": "uint256"
        },
        {
          "internalType": "uint256",
          "name": "inactiveFutureValue",
          "type": "uint256"
        },
        {
          "internalType": "uint256",
          "name": "maturity",
          "type": "uint256"
        }
      ],
      "stateMutability": "view",
      "type": "function"
    },
    {
      "inputs": [
        {
          "internalType": "address",
          "name": "_user",
          "type": "address"
        }
      ],
      "name": "getTotalAmountFromLendOrders",
      "outputs": [
        {
          "internalType": "uint256",
          "name": "activeAmount",
          "type": "uint256"
        },
        {
          "internalType": "uint256",
          "name": "inactiveAmount",
          "type": "uint256"
        },
        {
          "internalType": "uint256",
          "name": "inactiveFutureValue",
          "type": "uint256"
        },
        {
          "internalType": "uint256",
          "name": "maturity",
          "type": "uint256"
        }
      ],
      "stateMutability": "view",
      "type": "function"
    },
    {
      "inputs": [
        {
          "internalType": "address",
          "name": "_resolver",
          "type": "address"
        },
        {
          "internalType": "bytes32",
          "name": "_ccy",
          "type": "bytes32"
        },
        {
          "internalType": "uint256",
          "name": "_maturity",
          "type": "uint256"
        },
        {
          "internalType": "uint256",
          "name": "_openingDate",
          "type": "uint256"
        }
      ],
      "name": "initialize",
      "outputs": [],
      "stateMutability": "nonpayable",
      "type": "function"
    },
    {
      "inputs": [],
      "name": "isItayosePeriod",
      "outputs": [
        {
          "internalType": "bool",
          "name": "",
          "type": "bool"
        }
      ],
      "stateMutability": "view",
      "type": "function"
    },
    {
      "inputs": [],
      "name": "isMatured",
      "outputs": [
        {
          "internalType": "bool",
          "name": "",
          "type": "bool"
        }
      ],
      "stateMutability": "view",
      "type": "function"
    },
    {
      "inputs": [],
      "name": "isOpened",
      "outputs": [
        {
          "internalType": "bool",
          "name": "",
          "type": "bool"
        }
      ],
      "stateMutability": "view",
      "type": "function"
    },
    {
      "inputs": [],
      "name": "isPreOrderPeriod",
      "outputs": [
        {
          "internalType": "bool",
          "name": "",
          "type": "bool"
        }
      ],
      "stateMutability": "view",
      "type": "function"
    },
    {
      "inputs": [],
      "name": "isReady",
      "outputs": [
        {
          "internalType": "bool",
          "name": "",
          "type": "bool"
        }
      ],
      "stateMutability": "view",
      "type": "function"
    },
    {
      "inputs": [],
      "name": "isResolverCached",
      "outputs": [
        {
          "internalType": "bool",
          "name": "",
          "type": "bool"
        }
      ],
      "stateMutability": "view",
      "type": "function"
    },
    {
      "inputs": [
        {
          "internalType": "uint256",
          "name": "_maturity",
          "type": "uint256"
        },
        {
          "internalType": "uint256",
          "name": "_openingDate",
          "type": "uint256"
        }
      ],
      "name": "openMarket",
      "outputs": [
        {
          "internalType": "uint256",
          "name": "prevMaturity",
          "type": "uint256"
        }
      ],
      "stateMutability": "nonpayable",
      "type": "function"
    },
    {
      "inputs": [],
      "name": "pauseMarket",
      "outputs": [],
      "stateMutability": "nonpayable",
      "type": "function"
    },
    {
      "inputs": [],
      "name": "paused",
      "outputs": [
        {
          "internalType": "bool",
          "name": "",
          "type": "bool"
        }
      ],
      "stateMutability": "view",
      "type": "function"
    },
    {
      "inputs": [],
      "name": "requiredContracts",
      "outputs": [
        {
          "internalType": "bytes32[]",
          "name": "contracts",
          "type": "bytes32[]"
        }
      ],
      "stateMutability": "pure",
      "type": "function"
    },
    {
      "inputs": [],
      "name": "resolver",
      "outputs": [
        {
          "internalType": "contract IAddressResolver",
          "name": "",
          "type": "address"
        }
      ],
      "stateMutability": "view",
      "type": "function"
    },
    {
      "inputs": [],
      "name": "unpauseMarket",
      "outputs": [],
      "stateMutability": "nonpayable",
      "type": "function"
    },
    {
      "inputs": [
        {
          "internalType": "enum ProtocolTypes.Side",
          "name": "_side",
          "type": "uint8"
        },
        {
          "internalType": "address",
          "name": "_user",
          "type": "address"
        },
        {
          "internalType": "uint256",
          "name": "_futureValue",
          "type": "uint256"
        },
        {
          "internalType": "uint256",
          "name": "_circuitBreakerLimitRange",
          "type": "uint256"
        }
      ],
      "name": "unwindPosition",
      "outputs": [
        {
          "components": [
            {
              "internalType": "uint256",
              "name": "amount",
              "type": "uint256"
            },
            {
              "internalType": "uint256",
              "name": "unitPrice",
              "type": "uint256"
            },
            {
              "internalType": "uint256",
              "name": "futureValue",
              "type": "uint256"
            },
            {
              "internalType": "uint256",
              "name": "ignoredAmount",
              "type": "uint256"
            }
          ],
          "internalType": "struct ILendingMarket.FilledOrder",
          "name": "filledOrder",
          "type": "tuple"
        },
        {
          "components": [
            {
              "internalType": "uint48",
              "name": "orderId",
              "type": "uint48"
            },
            {
              "internalType": "address",
              "name": "maker",
              "type": "address"
            },
            {
              "internalType": "uint256",
              "name": "amount",
              "type": "uint256"
            },
            {
              "internalType": "uint256",
              "name": "futureValue",
              "type": "uint256"
            }
          ],
          "internalType": "struct ILendingMarket.PartiallyFilledOrder",
          "name": "partiallyFilledOrder",
          "type": "tuple"
        }
      ],
      "stateMutability": "nonpayable",
      "type": "function"
    }
  ],
  "transactionHash": "0xe91f7179aa4d9c4dc204d9cb7af20c16c46f8a59d3c264c8908cd5d77c330299",
  "args": [],
  "numDeployments": 1,
  "solcInputHash": "2c485c64aa07a707060080ceef31eb81",
  "bytecode": "0x608060405234801561001057600080fd5b50613c00806100206000396000f3fe608060405234801561001057600080fd5b50600436106102325760003560e01c80637ce219aa11610130578063a7f6b87f116100b8578063e0dbc76e1161007c578063e0dbc76e146104f1578063e16695b5146104f9578063e3d904d814610501578063e7df768c14610534578063f1be16791461054757600080fd5b8063a7f6b87f146104a5578063b7c1d527146104b8578063bcc012ad146104cb578063d866d355146104de578063e0997659146102d057600080fd5b806386e613a0116100ff57806386e613a0146104675780639516a3111461047a5780639d6529071461048d578063a03738dc14610495578063a094a0311461049d57600080fd5b80637ce219aa146103ff5780637e706938146104255780637f2b6a0d1461043e5780638152b1731461044657600080fd5b80634bf62d16116101be5780636945c1fd116101825780636945c1fd1461038a5780636d9bf95a1461039257806371613c2d146103c75780637bff15c3146103cf5780637c6cd94d146103f757600080fd5b80634bf62d161461032d578063504b89bd1461034f5780635c975abb146103625780635e0b54da1461037a578063692aa97e1461038257600080fd5b80631fb34252116102055780631fb342521461028f57806329985e5a146102b05780632af64bd3146102b85780633d03b9da146102d05780633d4eccdf146102e557600080fd5b806304f3bcec146102375780631610c7ce1461025c5780631b3508b7146102665780631e007d1d1461027c575b600080fd5b61023f6105b2565b6040516001600160a01b0390911681526020015b60405180910390f35b6102646105d3565b005b61026e61060b565b604051908152602001610253565b61026e61028a366004612f74565b61068e565b6102a261029d366004612fb5565b610723565b60405161025392919061302f565b610264610988565b6102c0610b36565b6040519015158152602001610253565b6102d8610c9c565b604051610253919061306e565b6102f86102f33660046130b2565b610d01565b604080519788526020880196909652948601939093526060850191909152608084015260a083015260c082015260e001610253565b61034061033b3660046130cf565b610f3c565b60405161025393929190613123565b61026461035d36600461317a565b610fdb565b600080516020613bab8339815191525460ff166102c0565b61026e6111e1565b6102c0611227565b61026e611282565b6103a56103a03660046130cf565b611292565b6040805182518152602080840151908201529181015190820152606001610253565b61026e6112f8565b6103e26103dd3660046130cf565b611415565b60408051928352602083019190915201610253565b6102c06114a5565b61041261040d3660046131b3565b6114eb565b6040516102539796959493929190613208565b61042d61159b565b604051610253959493929190613251565b6102c061196f565b6104596104543660046130b2565b611985565b6040516102539291906132b9565b61026e6104753660046132de565b611a24565b6102a2610488366004613300565b611afe565b6102c0611dc8565b610264611e20565b6102c0611e4d565b6102646104b3366004612fb5565b611e81565b6102646104c6366004613351565b612197565b6104596104d93660046130b2565b612393565b6103406104ec3660046130cf565b6123d8565b61026e612416565b61026e612429565b61051461050f3660046130b2565b61243c565b604080519485526020850193909352918301526060820152608001610253565b6105146105423660046130b2565b6124e0565b61054f612529565b6040516102539190600061010082019050825182526020830151602083015260408301516040830152606083015160608301526080830151608083015260a083015160a083015260c083015160c083015260e0830151151560e083015292915050565b6000600080516020613b8b8339815191525b546001600160a01b0316919050565b6105dc33612702565b6106015760405162461bcd60e51b81526004016105f89061338c565b60405180910390fd5b61060961277c565b565b600073f278A05A12917d98d3AD3BCde930583b6f99fEA163e2afb0416040518163ffffffff1660e01b815260040160206040518083038186803b15801561065157600080fd5b505af4158015610665573d6000803e3d6000fd5b505050506040513d601f19601f8201168201806040525081019061068991906133c3565b905090565b604051637d3093d560e11b815260009073f278A05A12917d98d3AD3BCde930583b6f99fEA19063fa6127aa906106ca90869086906004016133dc565b60206040518083038186803b1580156106e257600080fd5b505af41580156106f6573d6000803e3d6000fd5b505050506040513d601f19601f8201168201806040525081019061071a91906133c3565b90505b92915050565b61074e6040518060800160405280600081526020016000815260200160008152602001600081525090565b610756612f2e565b61075e6127db565b61076733612702565b6107835760405162461bcd60e51b81526004016105f89061338c565b61078b611227565b6107ce5760405162461bcd60e51b815260206004820152601460248201527313585c9ad95d081a5cc81b9bdd081bdc195b995960621b60448201526064016105f8565b6000841161082c5760405162461bcd60e51b815260206004820152602560248201527f43616e277420706c61636520656d707479206675747572652076616c756520616044820152641b5bdd5b9d60da1b60648201526084016105f8565b604080516080810182526000808252602082018190529181018290526060810191909152604051632da74bd560e21b815273f278A05A12917d98d3AD3BCde930583b6f99fEA19063b69d2f549061088c908a9060009089906004016133f7565b60806040518083038186803b1580156108a457600080fd5b505af41580156108b8573d6000803e3d6000fd5b505050506040513d601f19601f820116820180604052508101906108dc919061342b565b1515606085015260408401526020830152158015825261097e576109058786836020015161282e565b9093509150610912612935565b6003015461091e612935565b60000154876001600160a01b03167fe8b4810528309b74aecb4b46f22f4530d706c2549e20fd846dac133feeab967e8a89886000015189602001518a60400151896040015160405161097596959493929190613471565b60405180910390a45b5094509492505050565b6000610992610c9c565b905060005b8151811015610b315760008282815181106109b4576109b46134a7565b6020026020010151905060006109d5600080516020613b8b83398151915290565b54604080517f5265736f6c766572206d697373696e67207461726765743a200000000000000060208201526039808201869052825180830390910181526059820192839052636795dbcd60e01b9092526001600160a01b0390921691636795dbcd91610a4691869190605d0161350a565b60206040518083038186803b158015610a5e57600080fd5b505afa158015610a72573d6000803e3d6000fd5b505050506040513d601f19601f82011682018060405250810190610a96919061352b565b60008381527f4abde63c3e81aefa5764b017968bc473e83e093d7e1a10247d19e0a3e4124019602090815260409182902080546001600160a01b0319166001600160a01b03851690811790915582518681529182015281519293507f88a93678a3692f6789d9546fc621bf7234b101ddb7d4fe479455112831b8aa68929081900390910190a150508080610b299061355e565b915050610997565b505b50565b600080610b41610c9c565b905060005b8151811015610c93576000828281518110610b6357610b636134a7565b60200260200101519050610b82600080516020613b8b83398151915290565b600082815260019190910160205260409020546001600160a01b0316600080516020613b8b833981519152546040516321f8a72160e01b8152600481018490526001600160a01b03909116906321f8a7219060240160206040518083038186803b158015610bef57600080fd5b505afa158015610c03573d6000803e3d6000fd5b505050506040513d601f19601f82011682018060405250810190610c27919061352b565b6001600160a01b0316141580610c71575060008181527f4abde63c3e81aefa5764b017968bc473e83e093d7e1a10247d19e0a3e412401960205260409020546001600160a01b0316155b15610c80576000935050505090565b5080610c8b8161355e565b915050610b46565b50600191505090565b604080516001808252818301909252606091602080830190803683370190505090507f4c656e64696e674d61726b6574436f6e74726f6c6c657200000000000000000081600081518110610cf257610cf26134a7565b60200260200101818152505090565b6000806000806000806000610d14612935565b6001600160a01b0389166000818152600792909201602052604091829020549151635f89721160e01b81526004810191909152909150606090819073f278A05A12917d98d3AD3BCde930583b6f99fEA190635f8972119060240160006040518083038186803b158015610d8657600080fd5b505af4158015610d9a573d6000803e3d6000fd5b505050506040513d6000823e601f3d908101601f19168201604052610dc29190810190613658565b60405163fe19919760e01b81526001600160a01b038f166004820152929c50909950965090925073f278A05A12917d98d3AD3BCde930583b6f99fEA19063fe1991979060240160006040518083038186803b158015610e2057600080fd5b505af4158015610e34573d6000803e3d6000fd5b505050506040513d6000823e601f3d908101601f19168201604052610e5c9190810190613658565b919a509750945090508415610eca57610e73612935565b546001600160a01b038b167f055a5e3b875d6074396a3180bcea85a0f751dbf1c69ef5570c5f9bbaca6aa7fa846000610eaa612935565b600301548a8d604051610ec19594939291906136b0565b60405180910390a35b8315610f2f57610ed8612935565b546001600160a01b038b167f055a5e3b875d6074396a3180bcea85a0f751dbf1c69ef5570c5f9bbaca6aa7fa836001610f0f612935565b60030154898c604051610f269594939291906136b0565b60405180910390a35b5050919395979092949650565b606080606073f278A05A12917d98d3AD3BCde930583b6f99fEA1634bf62d16856040518263ffffffff1660e01b8152600401610f7a91815260200190565b60006040518083038186803b158015610f9257600080fd5b505af4158015610fa6573d6000803e3d6000fd5b505050506040513d6000823e601f3d908101601f19168201604052610fce9190810190613749565b9250925092509193909250565b81816000610fe8826114eb565b505050935050505060006001600160a01b0316816001600160a01b031614156110455760405162461bcd60e51b815260206004820152600f60248201526e13dc99195c881b9bdd08199bdd5b99608a1b60448201526064016105f8565b806001600160a01b0316836001600160a01b0316146110a65760405162461bcd60e51b815260206004820152601760248201527f43616c6c6572206973206e6f7420746865206d616b657200000000000000000060448201526064016105f8565b6110ae6127db565b6110b733612702565b6110d35760405162461bcd60e51b81526004016105f89061338c565b604051636c5db84360e01b81526001600160a01b038616600482015265ffffffffffff851660248201526000908190819073f278A05A12917d98d3AD3BCde930583b6f99fEA190636c5db8439060440160606040518083038186803b15801561113b57600080fd5b505af415801561114f573d6000803e3d6000fd5b505050506040513d601f19601f8201168201806040525081019061117391906137d1565b925092509250876001600160a01b03167f8a73e656799f8fbd4ea08e9420225176f98f85ef9a2a11a5a011580b65c8f14588856111ae612935565b546111b7612935565b6003015487876040516111cf96959493929190613808565b60405180910390a25050505050505050565b600073f278A05A12917d98d3AD3BCde930583b6f99fEA163614152b96040518163ffffffff1660e01b815260040160206040518083038186803b15801561065157600080fd5b6000611231612935565b600401600061123e612935565b60030154815260208101919091526040016000205460ff168015611267575061126561196f565b155b80156106895750611276612935565b60020154421015905090565b600061128c612935565b54919050565b6112b660405180606001604052806000815260200160008152602001600081525090565b6112be612935565b6000928352600d01602090815260409283902083516060810185528154815260018201549281019290925260020154928101929092525090565b60008073f278A05A12917d98d3AD3BCde930583b6f99fEA163614152b96040518163ffffffff1660e01b815260040160206040518083038186803b15801561133f57600080fd5b505af4158015611353573d6000803e3d6000fd5b505050506040513d601f19601f8201168201806040525081019061137791906133c3565b9050600073f278A05A12917d98d3AD3BCde930583b6f99fEA163e2afb0416040518163ffffffff1660e01b815260040160206040518083038186803b1580156113bf57600080fd5b505af41580156113d3573d6000803e3d6000fd5b505050506040513d601f19601f820116820180604052508101906113f791906133c3565b905061140e60026114088385613847565b90612959565b9250505090565b604051637bff15c360e01b815260048101829052600090819073f278A05A12917d98d3AD3BCde930583b6f99fEA190637bff15c390602401604080518083038186803b15801561146457600080fd5b505af4158015611478573d6000803e3d6000fd5b505050506040513d601f19601f8201168201806040525081019061149c919061385f565b91509150915091565b600062093a806114b3612935565b600201546114c19190613883565b42101580156106895750610e106114d6612935565b600201546114e49190613883565b4210905090565b604051633e710cd560e11b815265ffffffffffff8216600482015260009081908190819081908190819073f278A05A12917d98d3AD3BCde930583b6f99fEA190637ce219aa9060240160e06040518083038186803b15801561154c57600080fd5b505af4158015611560573d6000803e3d6000fd5b505050506040513d601f19601f82011682018060405250810190611584919061389a565b959e949d50929b5090995097509550909350915050565b60008060006115a8612f2e565b6115b0612f2e565b6115b86127db565b6115c133612702565b6115dd5760405162461bcd60e51b81526004016105f89061338c565b6115e5611dc8565b6116315760405162461bcd60e51b815260206004820152601960248201527f4e6f7420696e2074686520497461796f736520706572696f640000000000000060448201526064016105f8565b60008073f278A05A12917d98d3AD3BCde930583b6f99fEA1636a2c42746040518163ffffffff1660e01b815260040160806040518083038186803b15801561167857600080fd5b505af415801561168c573d6000803e3d6000fd5b505050506040513d601f19601f820116820180604052508101906116b0919061390b565b9299509197509250905085156118b557604080518082019091526000808252600160208301525b600281101561184857600080600080600073f278A05A12917d98d3AD3BCde930583b6f99fEA163a117eff5888860028110611714576117146134a7565b60200201518f6000806040518563ffffffff1660e01b815260040161173c9493929190613941565b6101006040518083038186803b15801561175557600080fd5b505af4158015611769573d6000803e3d6000fd5b505050506040513d601f19601f8201168201806040525081019061178d919061396a565b50965096509650965050505060008111156118305760008787600281106117b6576117b66134a7565b602002015160018111156117cc576117cc6131d0565b14156118035765ffffffffffff84168a526001600160a01b03831660208b015260408a0182905260608a0181905260019450611830565b65ffffffffffff84168b526001600160a01b03831660208c015260408b0182905260608b01819052600094505b505050505080806118409061355e565b9150506116d7565b507fa9952c3d01896ca75bba3aede761be10089d8d4725c9fee6b99245515986ef60611872612935565b5461187b612935565b6003015460408051928352602083019190915281018a9052606081018590526080810184905260a0810189905260c00160405180910390a1505b60016118bf612935565b60040160006118cc612935565b60030154815260200190815260200160002060006101000a81548160ff021916908315150217905550604051806060016040528088815260200183815260200182815250611918612935565b600d016000611925612935565b600301548152602001908152602001600020600082015181600001556020820151816001015560408201518160020155905050611960612935565b60020154945050509091929394565b6000611979612935565b60030154421015905090565b604051638152b17360e01b81526001600160a01b0382166004820152606090819073f278A05A12917d98d3AD3BCde930583b6f99fEA190638152b173906024015b60006040518083038186803b1580156119de57600080fd5b505af41580156119f2573d6000803e3d6000fd5b505050506040513d6000823e601f3d908101601f19168201604052611a1a91908101906139dc565b9094909350915050565b6000611a2e61196f565b611a725760405162461bcd60e51b815260206004820152601560248201527413585c9ad95d081a5cc81b9bdd081b585d1d5c9959605a1b60448201526064016105f8565b611a7b33612702565b611a975760405162461bcd60e51b81526004016105f89061338c565b611a9f612935565b60030154905082611aae612935565b6003015581611abb612935565b6002015560408051848152602081018390527ffa1e4c93514398092ad307a4842a760bacdd4ff71b27d486bcdc636d9249db34910160405180910390a192915050565b611b296040518060800160405280600081526020016000815260200160008152602001600081525090565b611b31612f2e565b611b396127db565b611b4233612702565b611b5e5760405162461bcd60e51b81526004016105f89061338c565b611b66611227565b611ba95760405162461bcd60e51b815260206004820152601460248201527313585c9ad95d081a5cc81b9bdd081bdc195b995960621b60448201526064016105f8565b60008511611bea5760405162461bcd60e51b815260206004820152600e60248201526d416d6f756e74206973207a65726f60901b60448201526064016105f8565b611bf3866129ca565b60408051608081018252600080825260208083018290528284018290526060808401839052845190810185528281529081018290529283015290604051632da74bd560e21b815273f278A05A12917d98d3AD3BCde930583b6f99fEA19063b69d2f5490611c68908c908a908a906004016133f7565b60806040518083038186803b158015611c8057600080fd5b505af4158015611c94573d6000803e3d6000fd5b505050506040513d601f19601f82011682018060405250810190611cb8919061342b565b15156060860152604085015260208401521580158352611cf357611ce789898985602001518660600151612b05565b91955093509050611d35565b8160600151611d35576040518060600160405280611d178b8b8b8760200151612c96565b65ffffffffffff168152602001888152602001836020015181525090505b611d3d612935565b60030154611d49612935565b60000154896001600160a01b03167f83c2ebf538cf8e5e36d64fc99c6d67216f5bbaa723156271cfe20c21d502873c8c8b8b8a600001518b602001518c604001518a600001518b602001518c604001518e60400151604051611db49a99989796959493929190613a40565b60405180910390a450509550959350505050565b6000610e10611dd5612935565b60020154611de39190613883565b42101580156106895750611df5612935565b6004016000611e02612935565b60030154815260208101919091526040016000205460ff1615905090565b611e2933612702565b611e455760405162461bcd60e51b81526004016105f89061338c565b610609612d2f565b6000611e57612935565b6004016000611e64612935565b60030154815260208101919091526040016000205460ff16919050565b611e896127db565b611e9233612702565b611eae5760405162461bcd60e51b81526004016105f89061338c565b611eb66114a5565b611f025760405162461bcd60e51b815260206004820152601b60248201527f4e6f7420696e20746865207072652d6f7264657220706572696f64000000000060448201526064016105f8565b60008211611f435760405162461bcd60e51b815260206004820152600e60248201526d416d6f756e74206973207a65726f60901b60448201526064016105f8565b611f4c836129ca565b6000846001811115611f6057611f606131d0565b148015611ff35750604051631a053b6160e21b81526001600160a01b038416600482015273f278A05A12917d98d3AD3BCde930583b6f99fEA190636814ed849060240160206040518083038186803b158015611fbb57600080fd5b505af4158015611fcf573d6000803e3d6000fd5b505050506040513d601f19601f82011682018060405250810190611ff39190613a9b565b806120a05750600184600181111561200d5761200d6131d0565b1480156120a0575060405163ceff498f60e01b81526001600160a01b038416600482015273f278A05A12917d98d3AD3BCde930583b6f99fEA19063ceff498f9060240160206040518083038186803b15801561206857600080fd5b505af415801561207c573d6000803e3d6000fd5b505050506040513d601f19601f820116820180604052508101906120a09190613a9b565b156120ed5760405162461bcd60e51b815260206004820152601a60248201527f4f70706f736974652073696465206f726465722065786973747300000000000060448201526064016105f8565b60006120fb85858585612c96565b90506001612107612935565b65ffffffffffff8316600090815260099190910160205260409020805460ff1916911515919091179055612139612935565b60030154612145612935565b60000154856001600160a01b03167fe5bd5bc42fd564596c82c75ff1f40630d9c4ff3cfc0568a7bd45dbcf2bcee2c5888787876040516121889493929190613ab6565b60405180910390a45050505050565b600054610100900460ff16158080156121b75750600054600160ff909116105b806121d15750303b1580156121d1575060005460ff166001145b6122345760405162461bcd60e51b815260206004820152602e60248201527f496e697469616c697a61626c653a20636f6e747261637420697320616c72656160448201526d191e481a5b9a5d1a585b1a5e995960921b60648201526084016105f8565b6000805460ff191660011790558015612257576000805461ff0019166101001790555b6000612261612d78565b6001600160a01b031614156122c45760405162461bcd60e51b815260206004820152602360248201527f4d7573742062652063616c6c65642066726f6d20626561636f6e20636f6e74726044820152621858dd60ea1b60648201526084016105f8565b6122cd85612da0565b836122d6612935565b55826122e0612935565b60030155816122ed612935565b600201556122fd610e1083613883565b421061233e57600161230d612935565b600401600061231a612935565b6003015481526020810191909152604001600020805460ff19169115159190911790555b612346610988565b801561238c576000805461ff0019169055604051600181527f7f26b83ff96e1f2b6a682f133852f6798a09c465da95921460cefb38474024989060200160405180910390a15b5050505050565b60405163bcc012ad60e01b81526001600160a01b0382166004820152606090819073f278A05A12917d98d3AD3BCde930583b6f99fEA19063bcc012ad906024016119c6565b606080606073f278A05A12917d98d3AD3BCde930583b6f99fEA163d866d355856040518263ffffffff1660e01b8152600401610f7a91815260200190565b6000612420612935565b60020154905090565b6000612433612935565b60030154905090565b604051631c7b209b60e31b81526001600160a01b038216600482015260009081908190819073f278A05A12917d98d3AD3BCde930583b6f99fEA19063e3d904d8906024015b60806040518083038186803b15801561249957600080fd5b505af41580156124ad573d6000803e3d6000fd5b505050506040513d601f19601f820116820180604052508101906124d1919061390b565b93509350935093509193509193565b6040516339f7dda360e21b81526001600160a01b038216600482015260009081908190819073f278A05A12917d98d3AD3BCde930583b6f99fEA19063e7df768c90602401612481565b612576604051806101000160405280600080191681526020016000815260200160008152602001600081526020016000815260200160008152602001600081526020016000151581525090565b60405180610100016040528061258a612935565b548152602001612598612935565b6003015481526020016125a9612935565b60020154815260200173f278A05A12917d98d3AD3BCde930583b6f99fEA163614152b96040518163ffffffff1660e01b815260040160206040518083038186803b1580156125f657600080fd5b505af415801561260a573d6000803e3d6000fd5b505050506040513d601f19601f8201168201806040525081019061262e91906133c3565b815260200173f278A05A12917d98d3AD3BCde930583b6f99fEA163e2afb0416040518163ffffffff1660e01b815260040160206040518083038186803b15801561267757600080fd5b505af415801561268b573d6000803e3d6000fd5b505050506040513d601f19601f820116820180604052508101906126af91906133c3565b81526020016126bc6112f8565b81526020016126c9612935565b600d0160006126d6612935565b6003015481526020019081526020016000206000015481526020016126f9611e4d565b15159052919050565b60008061270d610c9c565b905060005b81518110156127725761273d828281518110612730576127306134a7565b6020026020010151612e35565b6001600160a01b0316846001600160a01b03161415612760575060019392505050565b8061276a8161355e565b915050612712565b5060009392505050565b612784612e40565b600080516020613bab833981519152805460ff191690557f5db9ee0a495bf2e6ff9c91a7834c1ba4fdd244a5e8aa4e537bd38aeae4b073aa335b6040516001600160a01b03909116815260200160405180910390a1565b600080516020613bab8339815191525460ff16156106095760405162461bcd60e51b815260206004820152601060248201526f14185d5cd8589b194e881c185d5cd95960821b60448201526064016105f8565b6128596040518060800160405280600081526020016000815260200160008152602001600081525090565b612861612f2e565b60405163a117eff560e01b815273f278A05A12917d98d3AD3BCde930583b6f99fEA19063a117eff59061289f90889060009089908990600401613941565b6101006040518083038186803b1580156128b857600080fd5b505af41580156128cc573d6000803e3d6000fd5b505050506040513d601f19601f820116820180604052508101906128f0919061396a565b5060608801526040878101919091526001600160a01b0390911660208781019190915265ffffffffffff90921686528601919091529084528301529094909350915050565b7ffc2836757f9146445fc75bc3c897a210ec004e4ee60fc8627ef5cbf2842b3d0a90565b600080821161296757600080fd5b60056129738385613ae7565b61297e90600a613b09565b8361298a86600a613b09565b6129949190613ae7565b61299e9190613883565b10156129b5576129ae8284613ae7565b905061071d565b6129bf8284613ae7565b6129ae906001613847565b60006129d4612935565b6001600160a01b0383166000908152600791909101602052604090205490506129fb612935565b60030154811480612a725750612a0f612935565b600301548114158015612a445750612a25612935565b6001600160a01b03831660009081526005919091016020526040902054155b8015612a725750612a53612935565b6001600160a01b03831660009081526006919091016020526040902054155b612abe5760405162461bcd60e51b815260206004820152601c60248201527f4f7264657220666f756e6420696e2070617374206d617475726974790000000060448201526064016105f8565b612ac6612935565b600301548114610b3157612ad8612935565b60030154612ae4612935565b6001600160a01b038416600090815260079190910160205260409020555050565b612b306040518060800160405280600081526020016000815260200160008152602001600081525090565b612b38612f2e565b612b646040518060600160405280600065ffffffffffff16815260200160008152602001600081525090565b60405163a117eff560e01b815260009073f278A05A12917d98d3AD3BCde930583b6f99fEA19063a117eff590612ba4908c908b9086908c90600401613941565b6101006040518083038186803b158015612bbd57600080fd5b505af4158015612bd1573d6000803e3d6000fd5b505050506040513d601f19601f82011682018060405250810190612bf5919061396a565b60608b019190915260408a8101929092526001600160a01b0390921660208a81019190915265ffffffffffff9093168952890192909252870192909252509050612c3f8188613883565b84528015612c8a578415612c595760608401819052612c8a565b6040518060600160405280612c708b8b858b612c96565b65ffffffffffff1681526020018281526020018781525091505b50955095509592505050565b604051630c0c63c760e21b815260009073f278A05A12917d98d3AD3BCde930583b6f99fEA1906330318f1c90612cd6908890889088908890600401613b28565b60206040518083038186803b158015612cee57600080fd5b505af4158015612d02573d6000803e3d6000fd5b505050506040513d601f19601f82011682018060405250810190612d269190613b5a565b95945050505050565b612d376127db565b600080516020613bab833981519152805460ff191660011790557f62e78cea01bee320cd4e420270b5ea74000d11b0c9f74754ebdbfc544b05a258336127be565b60007fa3f0ad74e5423aebfd80d3ef4346578335a9a72aeaee59ff6cb3582b35133d506105c4565b600080516020613b8b833981519152546001600160a01b031615612e065760405162461bcd60e51b815260206004820152601b60248201527f5265736f6c766572207265676973746572656420616c7265616479000000000060448201526064016105f8565b600080516020613b8b83398151915280546001600160a01b0319166001600160a01b0392909216919091179055565b600061071d82612e96565b600080516020613bab8339815191525460ff166106095760405162461bcd60e51b815260206004820152601460248201527314185d5cd8589b194e881b9bdd081c185d5cd95960621b60448201526064016105f8565b60008181527f4abde63c3e81aefa5764b017968bc473e83e093d7e1a10247d19e0a3e41240196020908152604080832054815170026b4b9b9b4b7339030b2323932b9b99d1607d1b9381019390935260318084018690528251808503909101815260519093019091526001600160a01b03169081612f275760405162461bcd60e51b81526004016105f89190613b77565b5092915050565b6040518060800160405280600065ffffffffffff16815260200160006001600160a01b0316815260200160008152602001600081525090565b60028110610b3357600080fd5b60008060408385031215612f8757600080fd5b8235612f9281612f67565b946020939093013593505050565b6001600160a01b0381168114610b3357600080fd5b60008060008060808587031215612fcb57600080fd5b8435612fd681612f67565b93506020850135612fe681612fa0565b93969395505050506040820135916060013590565b805165ffffffffffff1682526020808201516001600160a01b03169083015260408082015190830152606090810151910152565b600061010082019050835182526020840151602083015260408401516040830152606084015160608301526130676080830184612ffb565b9392505050565b6020808252825182820181905260009190848201906040850190845b818110156130a65783518352928401929184019160010161308a565b50909695505050505050565b6000602082840312156130c457600080fd5b813561306781612fa0565b6000602082840312156130e157600080fd5b5035919050565b600081518084526020808501945080840160005b83811015613118578151875295820195908201906001016130fc565b509495945050505050565b60608152600061313660608301866130e8565b828103602084015261314881866130e8565b9050828103604084015261315c81856130e8565b9695505050505050565b65ffffffffffff81168114610b3357600080fd5b6000806040838503121561318d57600080fd5b823561319881612fa0565b915060208301356131a881613166565b809150509250929050565b6000602082840312156131c557600080fd5b813561306781613166565b634e487b7160e01b600052602160045260246000fd5b6002811061320457634e487b7160e01b600052602160045260246000fd5b9052565b60e08101613216828a6131e6565b602082019790975260408101959095526001600160a01b03939093166060850152608084019190915260a0830152151560c090910152919050565b858152602081018590526040810184905261016081016132746060830185612ffb565b61315c60e0830184612ffb565b600081518084526020808501945080840160005b8381101561311857815165ffffffffffff1687529582019590820190600101613295565b6040815260006132cc6040830185613281565b8281036020840152612d268185613281565b600080604083850312156132f157600080fd5b50508035926020909101359150565b600080600080600060a0868803121561331857600080fd5b853561332381612f67565b9450602086013561333381612fa0565b94979496505050506040830135926060810135926080909101359150565b6000806000806080858703121561336757600080fd5b843561337281612fa0565b966020860135965060408601359560600135945092505050565b60208082526017908201527f4f6e6c7920416363657074656420436f6e747261637473000000000000000000604082015260600190565b6000602082840312156133d557600080fd5b5051919050565b604081016133ea82856131e6565b8260208301529392505050565b6060810161340582866131e6565b602082019390935260400152919050565b8051801515811461342657600080fd5b919050565b6000806000806080858703121561344157600080fd5b61344a85613416565b9350602085015192506040850151915061346660608601613416565b905092959194509250565b60c0810161347f82896131e6565b602082019690965260408101949094526060840192909252608083015260a090910152919050565b634e487b7160e01b600052603260045260246000fd5b6000815180845260005b818110156134e3576020818501810151868301820152016134c7565b818111156134f5576000602083870101525b50601f01601f19169290920160200192915050565b82815260406020820152600061352360408301846134bd565b949350505050565b60006020828403121561353d57600080fd5b815161306781612fa0565b634e487b7160e01b600052601160045260246000fd5b600060001982141561357257613572613548565b5060010190565b634e487b7160e01b600052604160045260246000fd5b604051601f8201601f1916810167ffffffffffffffff811182821017156135b8576135b8613579565b604052919050565b600067ffffffffffffffff8211156135da576135da613579565b5060051b60200190565b600082601f8301126135f557600080fd5b8151602061360a613605836135c0565b61358f565b82815260059290921b8401810191818101908684111561362957600080fd5b8286015b8481101561364d57805161364081613166565b835291830191830161362d565b509695505050505050565b6000806000806080858703121561366e57600080fd5b845167ffffffffffffffff81111561368557600080fd5b613691878288016135e4565b6020870151604088015160609098015191999098509095509350505050565b60a0815260006136c360a0830188613281565b90506136d260208301876131e6565b8460408301528360608301528260808301529695505050505050565b600082601f8301126136ff57600080fd5b8151602061370f613605836135c0565b82815260059290921b8401810191818101908684111561372e57600080fd5b8286015b8481101561364d5780518352918301918301613732565b60008060006060848603121561375e57600080fd5b835167ffffffffffffffff8082111561377657600080fd5b613782878388016136ee565b9450602086015191508082111561379857600080fd5b6137a4878388016136ee565b935060408601519150808211156137ba57600080fd5b506137c7868287016136ee565b9150509250925092565b6000806000606084860312156137e657600080fd5b83516137f181612f67565b602085015160409095015190969495509392505050565b65ffffffffffff8716815260c0810161382460208301886131e6565b8560408301528460608301528360808301528260a0830152979650505050505050565b6000821982111561385a5761385a613548565b500190565b6000806040838503121561387257600080fd5b505080516020909101519092909150565b60008282101561389557613895613548565b500390565b600080600080600080600060e0888a0312156138b557600080fd5b87516138c081612f67565b80975050602088015195506040880151945060608801516138e081612fa0565b608089015160a08a0151919550935091506138fd60c08901613416565b905092959891949750929550565b6000806000806080858703121561392157600080fd5b505082516020840151604085015160609095015191969095509092509050565b6080810161394f82876131e6565b84602083015283604083015282606083015295945050505050565b600080600080600080600080610100898b03121561398757600080fd5b88519750602089015196506040890151955060608901516139a781613166565b60808a01519095506139b881612fa0565b60a08a015160c08b015160e0909b0151999c989b5096999598909790945092505050565b600080604083850312156139ef57600080fd5b825167ffffffffffffffff80821115613a0757600080fd5b613a13868387016135e4565b93506020850151915080821115613a2957600080fd5b50613a36858286016135e4565b9150509250929050565b6101408101613a4f828d6131e6565b602082019a909a5260408101989098526060880196909652608087019490945260a086019290925265ffffffffffff1660c085015260e084015261010083015261012090910152919050565b600060208284031215613aad57600080fd5b61071a82613416565b60808101613ac482876131e6565b84602083015283604083015265ffffffffffff8316606083015295945050505050565b600082613b0457634e487b7160e01b600052601260045260246000fd5b500490565b6000816000190483118215151615613b2357613b23613548565b500290565b60808101613b3682876131e6565b6001600160a01b039490941660208201526040810192909252606090910152919050565b600060208284031215613b6c57600080fd5b815161306781613166565b60208152600061071a60208301846134bd56fe4abde63c3e81aefa5764b017968bc473e83e093d7e1a10247d19e0a3e41240189c789132bdb3678132848a8dcd780bffd2b1abdce3984c522ac1d8aeb48f05f3a2646970667358221220399214c38aa84547fcd03b400a9dc2ba6a33c2f7ac0631ab5726e9a65865623c64736f6c63430008090033",
  "deployedBytecode": "0x608060405234801561001057600080fd5b50600436106102325760003560e01c80637ce219aa11610130578063a7f6b87f116100b8578063e0dbc76e1161007c578063e0dbc76e146104f1578063e16695b5146104f9578063e3d904d814610501578063e7df768c14610534578063f1be16791461054757600080fd5b8063a7f6b87f146104a5578063b7c1d527146104b8578063bcc012ad146104cb578063d866d355146104de578063e0997659146102d057600080fd5b806386e613a0116100ff57806386e613a0146104675780639516a3111461047a5780639d6529071461048d578063a03738dc14610495578063a094a0311461049d57600080fd5b80637ce219aa146103ff5780637e706938146104255780637f2b6a0d1461043e5780638152b1731461044657600080fd5b80634bf62d16116101be5780636945c1fd116101825780636945c1fd1461038a5780636d9bf95a1461039257806371613c2d146103c75780637bff15c3146103cf5780637c6cd94d146103f757600080fd5b80634bf62d161461032d578063504b89bd1461034f5780635c975abb146103625780635e0b54da1461037a578063692aa97e1461038257600080fd5b80631fb34252116102055780631fb342521461028f57806329985e5a146102b05780632af64bd3146102b85780633d03b9da146102d05780633d4eccdf146102e557600080fd5b806304f3bcec146102375780631610c7ce1461025c5780631b3508b7146102665780631e007d1d1461027c575b600080fd5b61023f6105b2565b6040516001600160a01b0390911681526020015b60405180910390f35b6102646105d3565b005b61026e61060b565b604051908152602001610253565b61026e61028a366004612f74565b61068e565b6102a261029d366004612fb5565b610723565b60405161025392919061302f565b610264610988565b6102c0610b36565b6040519015158152602001610253565b6102d8610c9c565b604051610253919061306e565b6102f86102f33660046130b2565b610d01565b604080519788526020880196909652948601939093526060850191909152608084015260a083015260c082015260e001610253565b61034061033b3660046130cf565b610f3c565b60405161025393929190613123565b61026461035d36600461317a565b610fdb565b600080516020613bab8339815191525460ff166102c0565b61026e6111e1565b6102c0611227565b61026e611282565b6103a56103a03660046130cf565b611292565b6040805182518152602080840151908201529181015190820152606001610253565b61026e6112f8565b6103e26103dd3660046130cf565b611415565b60408051928352602083019190915201610253565b6102c06114a5565b61041261040d3660046131b3565b6114eb565b6040516102539796959493929190613208565b61042d61159b565b604051610253959493929190613251565b6102c061196f565b6104596104543660046130b2565b611985565b6040516102539291906132b9565b61026e6104753660046132de565b611a24565b6102a2610488366004613300565b611afe565b6102c0611dc8565b610264611e20565b6102c0611e4d565b6102646104b3366004612fb5565b611e81565b6102646104c6366004613351565b612197565b6104596104d93660046130b2565b612393565b6103406104ec3660046130cf565b6123d8565b61026e612416565b61026e612429565b61051461050f3660046130b2565b61243c565b604080519485526020850193909352918301526060820152608001610253565b6105146105423660046130b2565b6124e0565b61054f612529565b6040516102539190600061010082019050825182526020830151602083015260408301516040830152606083015160608301526080830151608083015260a083015160a083015260c083015160c083015260e0830151151560e083015292915050565b6000600080516020613b8b8339815191525b546001600160a01b0316919050565b6105dc33612702565b6106015760405162461bcd60e51b81526004016105f89061338c565b60405180910390fd5b61060961277c565b565b600073__$ddd2182d6f392994445e6b8b482a37128a$__63e2afb0416040518163ffffffff1660e01b815260040160206040518083038186803b15801561065157600080fd5b505af4158015610665573d6000803e3d6000fd5b505050506040513d601f19601f8201168201806040525081019061068991906133c3565b905090565b604051637d3093d560e11b815260009073__$ddd2182d6f392994445e6b8b482a37128a$__9063fa6127aa906106ca90869086906004016133dc565b60206040518083038186803b1580156106e257600080fd5b505af41580156106f6573d6000803e3d6000fd5b505050506040513d601f19601f8201168201806040525081019061071a91906133c3565b90505b92915050565b61074e6040518060800160405280600081526020016000815260200160008152602001600081525090565b610756612f2e565b61075e6127db565b61076733612702565b6107835760405162461bcd60e51b81526004016105f89061338c565b61078b611227565b6107ce5760405162461bcd60e51b815260206004820152601460248201527313585c9ad95d081a5cc81b9bdd081bdc195b995960621b60448201526064016105f8565b6000841161082c5760405162461bcd60e51b815260206004820152602560248201527f43616e277420706c61636520656d707479206675747572652076616c756520616044820152641b5bdd5b9d60da1b60648201526084016105f8565b604080516080810182526000808252602082018190529181018290526060810191909152604051632da74bd560e21b815273__$ddd2182d6f392994445e6b8b482a37128a$__9063b69d2f549061088c908a9060009089906004016133f7565b60806040518083038186803b1580156108a457600080fd5b505af41580156108b8573d6000803e3d6000fd5b505050506040513d601f19601f820116820180604052508101906108dc919061342b565b1515606085015260408401526020830152158015825261097e576109058786836020015161282e565b9093509150610912612935565b6003015461091e612935565b60000154876001600160a01b03167fe8b4810528309b74aecb4b46f22f4530d706c2549e20fd846dac133feeab967e8a89886000015189602001518a60400151896040015160405161097596959493929190613471565b60405180910390a45b5094509492505050565b6000610992610c9c565b905060005b8151811015610b315760008282815181106109b4576109b46134a7565b6020026020010151905060006109d5600080516020613b8b83398151915290565b54604080517f5265736f6c766572206d697373696e67207461726765743a200000000000000060208201526039808201869052825180830390910181526059820192839052636795dbcd60e01b9092526001600160a01b0390921691636795dbcd91610a4691869190605d0161350a565b60206040518083038186803b158015610a5e57600080fd5b505afa158015610a72573d6000803e3d6000fd5b505050506040513d601f19601f82011682018060405250810190610a96919061352b565b60008381527f4abde63c3e81aefa5764b017968bc473e83e093d7e1a10247d19e0a3e4124019602090815260409182902080546001600160a01b0319166001600160a01b03851690811790915582518681529182015281519293507f88a93678a3692f6789d9546fc621bf7234b101ddb7d4fe479455112831b8aa68929081900390910190a150508080610b299061355e565b915050610997565b505b50565b600080610b41610c9c565b905060005b8151811015610c93576000828281518110610b6357610b636134a7565b60200260200101519050610b82600080516020613b8b83398151915290565b600082815260019190910160205260409020546001600160a01b0316600080516020613b8b833981519152546040516321f8a72160e01b8152600481018490526001600160a01b03909116906321f8a7219060240160206040518083038186803b158015610bef57600080fd5b505afa158015610c03573d6000803e3d6000fd5b505050506040513d601f19601f82011682018060405250810190610c27919061352b565b6001600160a01b0316141580610c71575060008181527f4abde63c3e81aefa5764b017968bc473e83e093d7e1a10247d19e0a3e412401960205260409020546001600160a01b0316155b15610c80576000935050505090565b5080610c8b8161355e565b915050610b46565b50600191505090565b604080516001808252818301909252606091602080830190803683370190505090507f4c656e64696e674d61726b6574436f6e74726f6c6c657200000000000000000081600081518110610cf257610cf26134a7565b60200260200101818152505090565b6000806000806000806000610d14612935565b6001600160a01b0389166000818152600792909201602052604091829020549151635f89721160e01b81526004810191909152909150606090819073__$ddd2182d6f392994445e6b8b482a37128a$__90635f8972119060240160006040518083038186803b158015610d8657600080fd5b505af4158015610d9a573d6000803e3d6000fd5b505050506040513d6000823e601f3d908101601f19168201604052610dc29190810190613658565b60405163fe19919760e01b81526001600160a01b038f166004820152929c50909950965090925073__$ddd2182d6f392994445e6b8b482a37128a$__9063fe1991979060240160006040518083038186803b158015610e2057600080fd5b505af4158015610e34573d6000803e3d6000fd5b505050506040513d6000823e601f3d908101601f19168201604052610e5c9190810190613658565b919a509750945090508415610eca57610e73612935565b546001600160a01b038b167f055a5e3b875d6074396a3180bcea85a0f751dbf1c69ef5570c5f9bbaca6aa7fa846000610eaa612935565b600301548a8d604051610ec19594939291906136b0565b60405180910390a35b8315610f2f57610ed8612935565b546001600160a01b038b167f055a5e3b875d6074396a3180bcea85a0f751dbf1c69ef5570c5f9bbaca6aa7fa836001610f0f612935565b60030154898c604051610f269594939291906136b0565b60405180910390a35b5050919395979092949650565b606080606073__$ddd2182d6f392994445e6b8b482a37128a$__634bf62d16856040518263ffffffff1660e01b8152600401610f7a91815260200190565b60006040518083038186803b158015610f9257600080fd5b505af4158015610fa6573d6000803e3d6000fd5b505050506040513d6000823e601f3d908101601f19168201604052610fce9190810190613749565b9250925092509193909250565b81816000610fe8826114eb565b505050935050505060006001600160a01b0316816001600160a01b031614156110455760405162461bcd60e51b815260206004820152600f60248201526e13dc99195c881b9bdd08199bdd5b99608a1b60448201526064016105f8565b806001600160a01b0316836001600160a01b0316146110a65760405162461bcd60e51b815260206004820152601760248201527f43616c6c6572206973206e6f7420746865206d616b657200000000000000000060448201526064016105f8565b6110ae6127db565b6110b733612702565b6110d35760405162461bcd60e51b81526004016105f89061338c565b604051636c5db84360e01b81526001600160a01b038616600482015265ffffffffffff851660248201526000908190819073__$ddd2182d6f392994445e6b8b482a37128a$__90636c5db8439060440160606040518083038186803b15801561113b57600080fd5b505af415801561114f573d6000803e3d6000fd5b505050506040513d601f19601f8201168201806040525081019061117391906137d1565b925092509250876001600160a01b03167f8a73e656799f8fbd4ea08e9420225176f98f85ef9a2a11a5a011580b65c8f14588856111ae612935565b546111b7612935565b6003015487876040516111cf96959493929190613808565b60405180910390a25050505050505050565b600073__$ddd2182d6f392994445e6b8b482a37128a$__63614152b96040518163ffffffff1660e01b815260040160206040518083038186803b15801561065157600080fd5b6000611231612935565b600401600061123e612935565b60030154815260208101919091526040016000205460ff168015611267575061126561196f565b155b80156106895750611276612935565b60020154421015905090565b600061128c612935565b54919050565b6112b660405180606001604052806000815260200160008152602001600081525090565b6112be612935565b6000928352600d01602090815260409283902083516060810185528154815260018201549281019290925260020154928101929092525090565b60008073__$ddd2182d6f392994445e6b8b482a37128a$__63614152b96040518163ffffffff1660e01b815260040160206040518083038186803b15801561133f57600080fd5b505af4158015611353573d6000803e3d6000fd5b505050506040513d601f19601f8201168201806040525081019061137791906133c3565b9050600073__$ddd2182d6f392994445e6b8b482a37128a$__63e2afb0416040518163ffffffff1660e01b815260040160206040518083038186803b1580156113bf57600080fd5b505af41580156113d3573d6000803e3d6000fd5b505050506040513d601f19601f820116820180604052508101906113f791906133c3565b905061140e60026114088385613847565b90612959565b9250505090565b604051637bff15c360e01b815260048101829052600090819073__$ddd2182d6f392994445e6b8b482a37128a$__90637bff15c390602401604080518083038186803b15801561146457600080fd5b505af4158015611478573d6000803e3d6000fd5b505050506040513d601f19601f8201168201806040525081019061149c919061385f565b91509150915091565b600062093a806114b3612935565b600201546114c19190613883565b42101580156106895750610e106114d6612935565b600201546114e49190613883565b4210905090565b604051633e710cd560e11b815265ffffffffffff8216600482015260009081908190819081908190819073__$ddd2182d6f392994445e6b8b482a37128a$__90637ce219aa9060240160e06040518083038186803b15801561154c57600080fd5b505af4158015611560573d6000803e3d6000fd5b505050506040513d601f19601f82011682018060405250810190611584919061389a565b959e949d50929b5090995097509550909350915050565b60008060006115a8612f2e565b6115b0612f2e565b6115b86127db565b6115c133612702565b6115dd5760405162461bcd60e51b81526004016105f89061338c565b6115e5611dc8565b6116315760405162461bcd60e51b815260206004820152601960248201527f4e6f7420696e2074686520497461796f736520706572696f640000000000000060448201526064016105f8565b60008073__$ddd2182d6f392994445e6b8b482a37128a$__636a2c42746040518163ffffffff1660e01b815260040160806040518083038186803b15801561167857600080fd5b505af415801561168c573d6000803e3d6000fd5b505050506040513d601f19601f820116820180604052508101906116b0919061390b565b9299509197509250905085156118b557604080518082019091526000808252600160208301525b600281101561184857600080600080600073__$ddd2182d6f392994445e6b8b482a37128a$__63a117eff5888860028110611714576117146134a7565b60200201518f6000806040518563ffffffff1660e01b815260040161173c9493929190613941565b6101006040518083038186803b15801561175557600080fd5b505af4158015611769573d6000803e3d6000fd5b505050506040513d601f19601f8201168201806040525081019061178d919061396a565b50965096509650965050505060008111156118305760008787600281106117b6576117b66134a7565b602002015160018111156117cc576117cc6131d0565b14156118035765ffffffffffff84168a526001600160a01b03831660208b015260408a0182905260608a0181905260019450611830565b65ffffffffffff84168b526001600160a01b03831660208c015260408b0182905260608b01819052600094505b505050505080806118409061355e565b9150506116d7565b507fa9952c3d01896ca75bba3aede761be10089d8d4725c9fee6b99245515986ef60611872612935565b5461187b612935565b6003015460408051928352602083019190915281018a9052606081018590526080810184905260a0810189905260c00160405180910390a1505b60016118bf612935565b60040160006118cc612935565b60030154815260200190815260200160002060006101000a81548160ff021916908315150217905550604051806060016040528088815260200183815260200182815250611918612935565b600d016000611925612935565b600301548152602001908152602001600020600082015181600001556020820151816001015560408201518160020155905050611960612935565b60020154945050509091929394565b6000611979612935565b60030154421015905090565b604051638152b17360e01b81526001600160a01b0382166004820152606090819073__$ddd2182d6f392994445e6b8b482a37128a$__90638152b173906024015b60006040518083038186803b1580156119de57600080fd5b505af41580156119f2573d6000803e3d6000fd5b505050506040513d6000823e601f3d908101601f19168201604052611a1a91908101906139dc565b9094909350915050565b6000611a2e61196f565b611a725760405162461bcd60e51b815260206004820152601560248201527413585c9ad95d081a5cc81b9bdd081b585d1d5c9959605a1b60448201526064016105f8565b611a7b33612702565b611a975760405162461bcd60e51b81526004016105f89061338c565b611a9f612935565b60030154905082611aae612935565b6003015581611abb612935565b6002015560408051848152602081018390527ffa1e4c93514398092ad307a4842a760bacdd4ff71b27d486bcdc636d9249db34910160405180910390a192915050565b611b296040518060800160405280600081526020016000815260200160008152602001600081525090565b611b31612f2e565b611b396127db565b611b4233612702565b611b5e5760405162461bcd60e51b81526004016105f89061338c565b611b66611227565b611ba95760405162461bcd60e51b815260206004820152601460248201527313585c9ad95d081a5cc81b9bdd081bdc195b995960621b60448201526064016105f8565b60008511611bea5760405162461bcd60e51b815260206004820152600e60248201526d416d6f756e74206973207a65726f60901b60448201526064016105f8565b611bf3866129ca565b60408051608081018252600080825260208083018290528284018290526060808401839052845190810185528281529081018290529283015290604051632da74bd560e21b815273__$ddd2182d6f392994445e6b8b482a37128a$__9063b69d2f5490611c68908c908a908a906004016133f7565b60806040518083038186803b158015611c8057600080fd5b505af4158015611c94573d6000803e3d6000fd5b505050506040513d601f19601f82011682018060405250810190611cb8919061342b565b15156060860152604085015260208401521580158352611cf357611ce789898985602001518660600151612b05565b91955093509050611d35565b8160600151611d35576040518060600160405280611d178b8b8b8760200151612c96565b65ffffffffffff168152602001888152602001836020015181525090505b611d3d612935565b60030154611d49612935565b60000154896001600160a01b03167f83c2ebf538cf8e5e36d64fc99c6d67216f5bbaa723156271cfe20c21d502873c8c8b8b8a600001518b602001518c604001518a600001518b602001518c604001518e60400151604051611db49a99989796959493929190613a40565b60405180910390a450509550959350505050565b6000610e10611dd5612935565b60020154611de39190613883565b42101580156106895750611df5612935565b6004016000611e02612935565b60030154815260208101919091526040016000205460ff1615905090565b611e2933612702565b611e455760405162461bcd60e51b81526004016105f89061338c565b610609612d2f565b6000611e57612935565b6004016000611e64612935565b60030154815260208101919091526040016000205460ff16919050565b611e896127db565b611e9233612702565b611eae5760405162461bcd60e51b81526004016105f89061338c565b611eb66114a5565b611f025760405162461bcd60e51b815260206004820152601b60248201527f4e6f7420696e20746865207072652d6f7264657220706572696f64000000000060448201526064016105f8565b60008211611f435760405162461bcd60e51b815260206004820152600e60248201526d416d6f756e74206973207a65726f60901b60448201526064016105f8565b611f4c836129ca565b6000846001811115611f6057611f606131d0565b148015611ff35750604051631a053b6160e21b81526001600160a01b038416600482015273__$ddd2182d6f392994445e6b8b482a37128a$__90636814ed849060240160206040518083038186803b158015611fbb57600080fd5b505af4158015611fcf573d6000803e3d6000fd5b505050506040513d601f19601f82011682018060405250810190611ff39190613a9b565b806120a05750600184600181111561200d5761200d6131d0565b1480156120a0575060405163ceff498f60e01b81526001600160a01b038416600482015273__$ddd2182d6f392994445e6b8b482a37128a$__9063ceff498f9060240160206040518083038186803b15801561206857600080fd5b505af415801561207c573d6000803e3d6000fd5b505050506040513d601f19601f820116820180604052508101906120a09190613a9b565b156120ed5760405162461bcd60e51b815260206004820152601a60248201527f4f70706f736974652073696465206f726465722065786973747300000000000060448201526064016105f8565b60006120fb85858585612c96565b90506001612107612935565b65ffffffffffff8316600090815260099190910160205260409020805460ff1916911515919091179055612139612935565b60030154612145612935565b60000154856001600160a01b03167fe5bd5bc42fd564596c82c75ff1f40630d9c4ff3cfc0568a7bd45dbcf2bcee2c5888787876040516121889493929190613ab6565b60405180910390a45050505050565b600054610100900460ff16158080156121b75750600054600160ff909116105b806121d15750303b1580156121d1575060005460ff166001145b6122345760405162461bcd60e51b815260206004820152602e60248201527f496e697469616c697a61626c653a20636f6e747261637420697320616c72656160448201526d191e481a5b9a5d1a585b1a5e995960921b60648201526084016105f8565b6000805460ff191660011790558015612257576000805461ff0019166101001790555b6000612261612d78565b6001600160a01b031614156122c45760405162461bcd60e51b815260206004820152602360248201527f4d7573742062652063616c6c65642066726f6d20626561636f6e20636f6e74726044820152621858dd60ea1b60648201526084016105f8565b6122cd85612da0565b836122d6612935565b55826122e0612935565b60030155816122ed612935565b600201556122fd610e1083613883565b421061233e57600161230d612935565b600401600061231a612935565b6003015481526020810191909152604001600020805460ff19169115159190911790555b612346610988565b801561238c576000805461ff0019169055604051600181527f7f26b83ff96e1f2b6a682f133852f6798a09c465da95921460cefb38474024989060200160405180910390a15b5050505050565b60405163bcc012ad60e01b81526001600160a01b0382166004820152606090819073__$ddd2182d6f392994445e6b8b482a37128a$__9063bcc012ad906024016119c6565b606080606073__$ddd2182d6f392994445e6b8b482a37128a$__63d866d355856040518263ffffffff1660e01b8152600401610f7a91815260200190565b6000612420612935565b60020154905090565b6000612433612935565b60030154905090565b604051631c7b209b60e31b81526001600160a01b038216600482015260009081908190819073__$ddd2182d6f392994445e6b8b482a37128a$__9063e3d904d8906024015b60806040518083038186803b15801561249957600080fd5b505af41580156124ad573d6000803e3d6000fd5b505050506040513d601f19601f820116820180604052508101906124d1919061390b565b93509350935093509193509193565b6040516339f7dda360e21b81526001600160a01b038216600482015260009081908190819073__$ddd2182d6f392994445e6b8b482a37128a$__9063e7df768c90602401612481565b612576604051806101000160405280600080191681526020016000815260200160008152602001600081526020016000815260200160008152602001600081526020016000151581525090565b60405180610100016040528061258a612935565b548152602001612598612935565b6003015481526020016125a9612935565b60020154815260200173__$ddd2182d6f392994445e6b8b482a37128a$__63614152b96040518163ffffffff1660e01b815260040160206040518083038186803b1580156125f657600080fd5b505af415801561260a573d6000803e3d6000fd5b505050506040513d601f19601f8201168201806040525081019061262e91906133c3565b815260200173__$ddd2182d6f392994445e6b8b482a37128a$__63e2afb0416040518163ffffffff1660e01b815260040160206040518083038186803b15801561267757600080fd5b505af415801561268b573d6000803e3d6000fd5b505050506040513d601f19601f820116820180604052508101906126af91906133c3565b81526020016126bc6112f8565b81526020016126c9612935565b600d0160006126d6612935565b6003015481526020019081526020016000206000015481526020016126f9611e4d565b15159052919050565b60008061270d610c9c565b905060005b81518110156127725761273d828281518110612730576127306134a7565b6020026020010151612e35565b6001600160a01b0316846001600160a01b03161415612760575060019392505050565b8061276a8161355e565b915050612712565b5060009392505050565b612784612e40565b600080516020613bab833981519152805460ff191690557f5db9ee0a495bf2e6ff9c91a7834c1ba4fdd244a5e8aa4e537bd38aeae4b073aa335b6040516001600160a01b03909116815260200160405180910390a1565b600080516020613bab8339815191525460ff16156106095760405162461bcd60e51b815260206004820152601060248201526f14185d5cd8589b194e881c185d5cd95960821b60448201526064016105f8565b6128596040518060800160405280600081526020016000815260200160008152602001600081525090565b612861612f2e565b60405163a117eff560e01b815273__$ddd2182d6f392994445e6b8b482a37128a$__9063a117eff59061289f90889060009089908990600401613941565b6101006040518083038186803b1580156128b857600080fd5b505af41580156128cc573d6000803e3d6000fd5b505050506040513d601f19601f820116820180604052508101906128f0919061396a565b5060608801526040878101919091526001600160a01b0390911660208781019190915265ffffffffffff90921686528601919091529084528301529094909350915050565b7ffc2836757f9146445fc75bc3c897a210ec004e4ee60fc8627ef5cbf2842b3d0a90565b600080821161296757600080fd5b60056129738385613ae7565b61297e90600a613b09565b8361298a86600a613b09565b6129949190613ae7565b61299e9190613883565b10156129b5576129ae8284613ae7565b905061071d565b6129bf8284613ae7565b6129ae906001613847565b60006129d4612935565b6001600160a01b0383166000908152600791909101602052604090205490506129fb612935565b60030154811480612a725750612a0f612935565b600301548114158015612a445750612a25612935565b6001600160a01b03831660009081526005919091016020526040902054155b8015612a725750612a53612935565b6001600160a01b03831660009081526006919091016020526040902054155b612abe5760405162461bcd60e51b815260206004820152601c60248201527f4f7264657220666f756e6420696e2070617374206d617475726974790000000060448201526064016105f8565b612ac6612935565b600301548114610b3157612ad8612935565b60030154612ae4612935565b6001600160a01b038416600090815260079190910160205260409020555050565b612b306040518060800160405280600081526020016000815260200160008152602001600081525090565b612b38612f2e565b612b646040518060600160405280600065ffffffffffff16815260200160008152602001600081525090565b60405163a117eff560e01b815260009073__$ddd2182d6f392994445e6b8b482a37128a$__9063a117eff590612ba4908c908b9086908c90600401613941565b6101006040518083038186803b158015612bbd57600080fd5b505af4158015612bd1573d6000803e3d6000fd5b505050506040513d601f19601f82011682018060405250810190612bf5919061396a565b60608b019190915260408a8101929092526001600160a01b0390921660208a81019190915265ffffffffffff9093168952890192909252870192909252509050612c3f8188613883565b84528015612c8a578415612c595760608401819052612c8a565b6040518060600160405280612c708b8b858b612c96565b65ffffffffffff1681526020018281526020018781525091505b50955095509592505050565b604051630c0c63c760e21b815260009073__$ddd2182d6f392994445e6b8b482a37128a$__906330318f1c90612cd6908890889088908890600401613b28565b60206040518083038186803b158015612cee57600080fd5b505af4158015612d02573d6000803e3d6000fd5b505050506040513d601f19601f82011682018060405250810190612d269190613b5a565b95945050505050565b612d376127db565b600080516020613bab833981519152805460ff191660011790557f62e78cea01bee320cd4e420270b5ea74000d11b0c9f74754ebdbfc544b05a258336127be565b60007fa3f0ad74e5423aebfd80d3ef4346578335a9a72aeaee59ff6cb3582b35133d506105c4565b600080516020613b8b833981519152546001600160a01b031615612e065760405162461bcd60e51b815260206004820152601b60248201527f5265736f6c766572207265676973746572656420616c7265616479000000000060448201526064016105f8565b600080516020613b8b83398151915280546001600160a01b0319166001600160a01b0392909216919091179055565b600061071d82612e96565b600080516020613bab8339815191525460ff166106095760405162461bcd60e51b815260206004820152601460248201527314185d5cd8589b194e881b9bdd081c185d5cd95960621b60448201526064016105f8565b60008181527f4abde63c3e81aefa5764b017968bc473e83e093d7e1a10247d19e0a3e41240196020908152604080832054815170026b4b9b9b4b7339030b2323932b9b99d1607d1b9381019390935260318084018690528251808503909101815260519093019091526001600160a01b03169081612f275760405162461bcd60e51b81526004016105f89190613b77565b5092915050565b6040518060800160405280600065ffffffffffff16815260200160006001600160a01b0316815260200160008152602001600081525090565b60028110610b3357600080fd5b60008060408385031215612f8757600080fd5b8235612f9281612f67565b946020939093013593505050565b6001600160a01b0381168114610b3357600080fd5b60008060008060808587031215612fcb57600080fd5b8435612fd681612f67565b93506020850135612fe681612fa0565b93969395505050506040820135916060013590565b805165ffffffffffff1682526020808201516001600160a01b03169083015260408082015190830152606090810151910152565b600061010082019050835182526020840151602083015260408401516040830152606084015160608301526130676080830184612ffb565b9392505050565b6020808252825182820181905260009190848201906040850190845b818110156130a65783518352928401929184019160010161308a565b50909695505050505050565b6000602082840312156130c457600080fd5b813561306781612fa0565b6000602082840312156130e157600080fd5b5035919050565b600081518084526020808501945080840160005b83811015613118578151875295820195908201906001016130fc565b509495945050505050565b60608152600061313660608301866130e8565b828103602084015261314881866130e8565b9050828103604084015261315c81856130e8565b9695505050505050565b65ffffffffffff81168114610b3357600080fd5b6000806040838503121561318d57600080fd5b823561319881612fa0565b915060208301356131a881613166565b809150509250929050565b6000602082840312156131c557600080fd5b813561306781613166565b634e487b7160e01b600052602160045260246000fd5b6002811061320457634e487b7160e01b600052602160045260246000fd5b9052565b60e08101613216828a6131e6565b602082019790975260408101959095526001600160a01b03939093166060850152608084019190915260a0830152151560c090910152919050565b858152602081018590526040810184905261016081016132746060830185612ffb565b61315c60e0830184612ffb565b600081518084526020808501945080840160005b8381101561311857815165ffffffffffff1687529582019590820190600101613295565b6040815260006132cc6040830185613281565b8281036020840152612d268185613281565b600080604083850312156132f157600080fd5b50508035926020909101359150565b600080600080600060a0868803121561331857600080fd5b853561332381612f67565b9450602086013561333381612fa0565b94979496505050506040830135926060810135926080909101359150565b6000806000806080858703121561336757600080fd5b843561337281612fa0565b966020860135965060408601359560600135945092505050565b60208082526017908201527f4f6e6c7920416363657074656420436f6e747261637473000000000000000000604082015260600190565b6000602082840312156133d557600080fd5b5051919050565b604081016133ea82856131e6565b8260208301529392505050565b6060810161340582866131e6565b602082019390935260400152919050565b8051801515811461342657600080fd5b919050565b6000806000806080858703121561344157600080fd5b61344a85613416565b9350602085015192506040850151915061346660608601613416565b905092959194509250565b60c0810161347f82896131e6565b602082019690965260408101949094526060840192909252608083015260a090910152919050565b634e487b7160e01b600052603260045260246000fd5b6000815180845260005b818110156134e3576020818501810151868301820152016134c7565b818111156134f5576000602083870101525b50601f01601f19169290920160200192915050565b82815260406020820152600061352360408301846134bd565b949350505050565b60006020828403121561353d57600080fd5b815161306781612fa0565b634e487b7160e01b600052601160045260246000fd5b600060001982141561357257613572613548565b5060010190565b634e487b7160e01b600052604160045260246000fd5b604051601f8201601f1916810167ffffffffffffffff811182821017156135b8576135b8613579565b604052919050565b600067ffffffffffffffff8211156135da576135da613579565b5060051b60200190565b600082601f8301126135f557600080fd5b8151602061360a613605836135c0565b61358f565b82815260059290921b8401810191818101908684111561362957600080fd5b8286015b8481101561364d57805161364081613166565b835291830191830161362d565b509695505050505050565b6000806000806080858703121561366e57600080fd5b845167ffffffffffffffff81111561368557600080fd5b613691878288016135e4565b6020870151604088015160609098015191999098509095509350505050565b60a0815260006136c360a0830188613281565b90506136d260208301876131e6565b8460408301528360608301528260808301529695505050505050565b600082601f8301126136ff57600080fd5b8151602061370f613605836135c0565b82815260059290921b8401810191818101908684111561372e57600080fd5b8286015b8481101561364d5780518352918301918301613732565b60008060006060848603121561375e57600080fd5b835167ffffffffffffffff8082111561377657600080fd5b613782878388016136ee565b9450602086015191508082111561379857600080fd5b6137a4878388016136ee565b935060408601519150808211156137ba57600080fd5b506137c7868287016136ee565b9150509250925092565b6000806000606084860312156137e657600080fd5b83516137f181612f67565b602085015160409095015190969495509392505050565b65ffffffffffff8716815260c0810161382460208301886131e6565b8560408301528460608301528360808301528260a0830152979650505050505050565b6000821982111561385a5761385a613548565b500190565b6000806040838503121561387257600080fd5b505080516020909101519092909150565b60008282101561389557613895613548565b500390565b600080600080600080600060e0888a0312156138b557600080fd5b87516138c081612f67565b80975050602088015195506040880151945060608801516138e081612fa0565b608089015160a08a0151919550935091506138fd60c08901613416565b905092959891949750929550565b6000806000806080858703121561392157600080fd5b505082516020840151604085015160609095015191969095509092509050565b6080810161394f82876131e6565b84602083015283604083015282606083015295945050505050565b600080600080600080600080610100898b03121561398757600080fd5b88519750602089015196506040890151955060608901516139a781613166565b60808a01519095506139b881612fa0565b60a08a015160c08b015160e0909b0151999c989b5096999598909790945092505050565b600080604083850312156139ef57600080fd5b825167ffffffffffffffff80821115613a0757600080fd5b613a13868387016135e4565b93506020850151915080821115613a2957600080fd5b50613a36858286016135e4565b9150509250929050565b6101408101613a4f828d6131e6565b602082019a909a5260408101989098526060880196909652608087019490945260a086019290925265ffffffffffff1660c085015260e084015261010083015261012090910152919050565b600060208284031215613aad57600080fd5b61071a82613416565b60808101613ac482876131e6565b84602083015283604083015265ffffffffffff8316606083015295945050505050565b600082613b0457634e487b7160e01b600052601260045260246000fd5b500490565b6000816000190483118215151615613b2357613b23613548565b500290565b60808101613b3682876131e6565b6001600160a01b039490941660208201526040810192909252606090910152919050565b600060208284031215613b6c57600080fd5b815161306781613166565b60208152600061071a60208301846134bd56fe4abde63c3e81aefa5764b017968bc473e83e093d7e1a10247d19e0a3e41240189c789132bdb3678132848a8dcd780bffd2b1abdce3984c522ac1d8aeb48f05f3a2646970667358221220399214c38aa84547fcd03b400a9dc2ba6a33c2f7ac0631ab5726e9a65865623c64736f6c63430008090033",
  "libraries": {
    "OrderBookLogic": "0xf278A05A12917d98d3AD3BCde930583b6f99fEA1"
  },
  "devdoc": {
    "details": "The market orders is stored in structured red-black trees and doubly linked lists in each node.",
    "kind": "dev",
    "methods": {
      "acceptedContracts()": {
        "details": "The contact name listed in this method is also needed to be listed `requiredContracts` method."
      },
      "cancelOrder(address,uint48)": {
        "params": {
          "_orderId": "Market order id",
          "_user": "User address"
        }
      },
      "cleanUpOrders(address)": {
        "details": "The order list per user is not updated in real-time when an order is filled. This function removes the filled order from that order list per user to reduce gas costs for lazy evaluation if the collateral is enough or not.",
        "params": {
          "_user": "User address"
        },
        "returns": {
          "activeBorrowOrderCount": "The total amount of active borrow order on the order book",
          "activeLendOrderCount": "The total amount of active lend order on the order book",
          "maturity": "The maturity of the removed orders",
          "removedBorrowOrderAmount": "The total PV amount of the removed borrow order amount from the order book",
          "removedBorrowOrderFutureValue": "The total FV amount of the removed borrow order amount from the order book",
          "removedLendOrderAmount": "The total PV amount of the removed lend order amount from the order book",
          "removedLendOrderFutureValue": "The total FV amount of the removed lend order amount from the order book"
        }
      },
      "estimateFilledAmount(uint8,uint256)": {
        "params": {
          "_futureValue": "Future value amount",
          "_side": "Order position type, Borrow or Lend"
        },
        "returns": {
          "amount": "The estimated amount in the present value that is filled on the order book"
        }
      },
      "executeItayoseCall()": {
        "details": "If the opening date had already passed when this contract was created, this Itayose need not be executed.",
        "returns": {
          "openingDate": "The timestamp when the market opens",
          "openingUnitPrice": "The opening price when Itayose is executed",
          "partiallyFilledBorrowingOrder": "Partially filled borrowing order on the order book",
          "partiallyFilledLendingOrder": "Partially filled lending order on the order book",
          "totalOffsetAmount": "The total filled amount when Itayose is executed"
        }
      },
      "executeOrder(uint8,address,uint256,uint256,uint256)": {
        "params": {
          "_amount": "Amount of funds the maker wants to borrow/lend",
          "_circuitBreakerLimitRange": "Rate limit range for the circuit breaker",
          "_side": "Order position type, Borrow or Lend",
          "_unitPrice": "Amount of unit price taker wish to borrow/lend",
          "_user": "User's address"
        },
        "returns": {
          "filledOrder": "User's Filled order of the user",
          "partiallyFilledOrder": "Partially filled order on the order book"
        }
      },
      "executePreOrder(uint8,address,uint256,uint256)": {
        "params": {
          "_amount": "Amount of funds the maker wants to borrow/lend",
          "_side": "Order position type, Borrow or Lend",
          "_unitPrice": "Amount of unit price taker wish to borrow/lend"
        }
      },
      "getBorrowOrderBook(uint256)": {
        "params": {
          "_limit": "Max limit to get unit prices"
        },
        "returns": {
          "unitPrices": "The array of borrow unit prices"
        }
      },
      "getBorrowOrderIds(address)": {
        "params": {
          "_user": "User's address"
        }
      },
      "getBorrowUnitPrice()": {
        "returns": {
          "_0": "The lowest borrow price per future value"
        }
      },
      "getCircuitBreakerThresholds(uint256)": {
        "params": {
          "_circuitBreakerLimitRange": "Rate limit range for the circuit breaker"
        },
        "returns": {
          "maxLendUnitPrice": "The maximum unit price for lending",
          "minBorrowUnitPrice": "The minimum unit price for borrowing"
        }
      },
      "getCurrency()": {
        "returns": {
          "currency": "The market currency"
        }
      },
      "getItayoseLog(uint256)": {
        "params": {
          "_maturity": "The market maturity"
        },
        "returns": {
          "_0": "ItayoseLog of the market"
        }
      },
      "getLendOrderBook(uint256)": {
        "params": {
          "_limit": "Max limit to get unit prices"
        },
        "returns": {
          "unitPrices": "The array of lending unit prices"
        }
      },
      "getLendOrderIds(address)": {
        "params": {
          "_user": "User's address"
        }
      },
      "getLendUnitPrice()": {
        "returns": {
          "_0": "The highest lend price per future value"
        }
      },
      "getMarket()": {
        "returns": {
          "market": "The market data"
        }
      },
      "getMaturity()": {
        "returns": {
          "maturity": "The market maturity"
        }
      },
      "getMidUnitPrice()": {
        "returns": {
          "_0": "The mid price per future value"
        }
      },
      "getOpeningDate()": {
        "returns": {
          "openingDate": "The market opening date"
        }
      },
      "getOrder(uint48)": {
        "params": {
          "_orderId": "The market order id"
        },
        "returns": {
          "amount": "Order amount",
          "isPreOrder": "The boolean if the order is a pre-order.",
          "maker": "The order maker",
          "maturity": "The maturity of the selected order",
          "side": "Order position type, Borrow or Lend",
          "timestamp": "Timestamp when the order was created",
          "unitPrice": "Amount of interest unit price"
        }
      },
      "getTotalAmountFromBorrowOrders(address)": {
        "params": {
          "_user": "User's address"
        },
        "returns": {
          "activeAmount": "The total amount of active order on the order book",
          "inactiveAmount": "The total amount of inactive orders filled on the order book",
          "inactiveFutureValue": "The total future value amount of inactive orders filled on the order book",
          "maturity": "The maturity of market that orders were placed."
        }
      },
      "getTotalAmountFromLendOrders(address)": {
        "params": {
          "_user": "User's address"
        },
        "returns": {
          "activeAmount": "The total amount of active order on the order book",
          "inactiveAmount": "The total amount of inactive orders filled on the order book",
          "inactiveFutureValue": "The total future value amount of inactive orders filled on the order book",
          "maturity": "The maturity of market that orders were placed."
        }
      },
      "initialize(address,bytes32,uint256,uint256)": {
        "details": "Function is invoked by the proxy contract when the contract is added to the ProxyController.",
        "params": {
          "_ccy": "The main currency for the order book",
          "_maturity": "The initial maturity of the market",
          "_openingDate": "The timestamp when the market opens",
          "_resolver": "The address of the Address Resolver contract"
        }
      },
      "isItayosePeriod()": {
        "returns": {
          "_0": "The boolean if the market is under the Itayose period."
        }
      },
      "isMatured()": {
        "returns": {
          "_0": "The boolean if the market is matured or not"
        }
      },
      "isOpened()": {
        "returns": {
          "_0": "The boolean if the market is opened or not"
        }
      },
      "isPreOrderPeriod()": {
        "returns": {
          "_0": "The boolean if the market is under the pre-order period."
        }
      },
      "isReady()": {
        "returns": {
          "_0": "The boolean if the market is ready or not"
        }
      },
      "openMarket(uint256,uint256)": {
        "params": {
          "_maturity": "The new maturity",
          "_openingDate": "The timestamp when the market opens"
        },
        "returns": {
          "prevMaturity": "The previous maturity updated"
        }
      },
      "paused()": {
        "details": "Returns true if the contract is paused, and false otherwise."
      },
      "requiredContracts()": {
        "details": "The contract name list is in `./libraries/Contracts.sol`."
      },
      "unwindPosition(uint8,address,uint256,uint256)": {
        "params": {
          "_circuitBreakerLimitRange": "Rate limit range for the circuit breaker",
          "_futureValue": "Amount of future value unwound",
          "_side": "Order position type, Borrow or Lend",
          "_user": "User's address"
        },
        "returns": {
          "filledOrder": "User's Filled order of the user",
          "partiallyFilledOrder": "Partially filled order"
        }
      }
    },
    "version": 1
  },
  "userdoc": {
    "kind": "user",
    "methods": {
      "acceptedContracts()": {
        "notice": "Returns contract names that can call this contract."
      },
      "cancelOrder(address,uint48)": {
        "notice": "Cancels the order."
      },
      "cleanUpOrders(address)": {
        "notice": "Cleans up own orders to remove order ids that are already filled on the order book."
      },
      "estimateFilledAmount(uint8,uint256)": {
        "notice": "Estimates the filled amount at the time of order creation on the order book using the future value amount."
      },
      "executeItayoseCall()": {
        "notice": "Executes Itayose to aggregate pre-orders and determine the opening unit price. After this action, the market opens."
      },
      "executeOrder(uint8,address,uint256,uint256,uint256)": {
        "notice": "Executes an order. Takes orders if the order is matched, and places new order if not match it."
      },
      "executePreOrder(uint8,address,uint256,uint256)": {
        "notice": "Executes a pre-order. A pre-order will only be accepted from 168 hours (7 days) to 1 hour before the market opens (Pre-order period). At the end of this period, Itayose will be executed."
      },
      "getBorrowOrderBook(uint256)": {
        "notice": "Gets the order book of borrow."
      },
      "getBorrowOrderIds(address)": {
        "notice": "Gets active and inactive order IDs in the borrowing order book"
      },
      "getBorrowUnitPrice()": {
        "notice": "Gets the lowest borrow price per future value."
      },
      "getCircuitBreakerThresholds(uint256)": {
        "notice": "Gets unit price Thresholds by CircuitBreaker."
      },
      "getCurrency()": {
        "notice": "Gets the market currency."
      },
      "getItayoseLog(uint256)": {
        "notice": "Gets the market itayose logs."
      },
      "getLendOrderBook(uint256)": {
        "notice": "Gets the order book of lend."
      },
      "getLendOrderIds(address)": {
        "notice": "Gets active and inactive order IDs in the lending order book"
      },
      "getLendUnitPrice()": {
        "notice": "Gets the highest lend price per future value."
      },
      "getMarket()": {
        "notice": "Gets the market data."
      },
      "getMaturity()": {
        "notice": "Gets the current market maturity."
      },
      "getMidUnitPrice()": {
        "notice": "Gets the mid price per future value."
      },
      "getOpeningDate()": {
        "notice": "Gets the market opening date."
      },
      "getOrder(uint48)": {
        "notice": "Gets the market order from the order book."
      },
      "getTotalAmountFromBorrowOrders(address)": {
        "notice": "Calculates and gets the active and inactive amounts from the user orders of borrowing deals."
      },
      "getTotalAmountFromLendOrders(address)": {
        "notice": "Calculates and gets the active and inactive amounts from the user orders of lending deals."
      },
      "initialize(address,bytes32,uint256,uint256)": {
        "notice": "Initializes the contract."
      },
      "isItayosePeriod()": {
        "notice": "Gets if the market is under the Itayose period."
      },
      "isMatured()": {
        "notice": "Gets if the market is matured."
      },
      "isOpened()": {
        "notice": "Gets if the market is opened."
      },
      "isPreOrderPeriod()": {
        "notice": "Gets if the market is under the pre-order period."
      },
      "isReady()": {
        "notice": "Gets if the market is ready."
      },
      "openMarket(uint256,uint256)": {
        "notice": "Opens market"
      },
      "pauseMarket()": {
        "notice": "Pauses the lending market."
      },
      "requiredContracts()": {
        "notice": "Returns the contract names used in this contract."
      },
      "unpauseMarket()": {
        "notice": "Unpauses the lending market."
      },
      "unwindPosition(uint8,address,uint256,uint256)": {
        "notice": "Unwinds lending or borrowing positions by a specified future value amount."
      }
    },
    "notice": "Implements the module that allows lending market participants to create/cancel market orders, and also provides a future value calculation module. For updates, this contract is basically called from `LendingMarketController.sol`instead of being called \\ directly by the user.",
    "version": 1
  },
  "storageLayout": {
    "storage": [
      {
        "astId": 995,
        "contract": "contracts/protocol/LendingMarket.sol:LendingMarket",
        "label": "_initialized",
        "offset": 0,
        "slot": "0",
        "type": "t_uint8"
      },
      {
        "astId": 998,
        "contract": "contracts/protocol/LendingMarket.sol:LendingMarket",
        "label": "_initializing",
        "offset": 1,
        "slot": "0",
        "type": "t_bool"
      }
    ],
    "types": {
      "t_bool": {
        "encoding": "inplace",
        "label": "bool",
        "numberOfBytes": "1"
      },
      "t_uint8": {
        "encoding": "inplace",
        "label": "uint8",
        "numberOfBytes": "1"
      }
    }
  }
}