{
  "address": "0x3eCbFa107f8f9E0Cf7b0a2e2d931fF732EcE096F",
  "abi": [
    {
      "anonymous": false,
      "inputs": [
        {
          "indexed": false,
          "internalType": "uint256",
          "name": "timestamp",
          "type": "uint256"
        }
      ],
      "name": "EmergencyTerminationExecuted",
      "type": "event"
    },
    {
      "anonymous": false,
      "inputs": [
        {
          "indexed": true,
          "internalType": "bytes32",
          "name": "ccy",
          "type": "bytes32"
        },
        {
          "indexed": false,
          "internalType": "uint256",
          "name": "genesisDate",
          "type": "uint256"
        },
        {
          "indexed": false,
          "internalType": "uint256",
          "name": "compoundFactor",
          "type": "uint256"
        },
        {
          "indexed": false,
          "internalType": "uint256",
          "name": "orderFeeRate",
          "type": "uint256"
        },
        {
          "indexed": false,
          "internalType": "uint256",
          "name": "circuitBreakerLimitRange",
          "type": "uint256"
        },
        {
          "indexed": false,
          "internalType": "address",
          "name": "lendingMarket",
          "type": "address"
        },
        {
          "indexed": false,
          "internalType": "address",
          "name": "futureValueVault",
          "type": "address"
        }
      ],
      "name": "LendingMarketInitialized",
      "type": "event"
    },
    {
      "anonymous": false,
      "inputs": [
        {
          "indexed": true,
          "internalType": "bytes32",
          "name": "ccy",
          "type": "bytes32"
        },
        {
          "indexed": true,
          "internalType": "uint8",
          "name": "orderBookId",
          "type": "uint8"
        },
        {
          "indexed": false,
          "internalType": "uint256",
          "name": "openingDate",
          "type": "uint256"
        },
        {
          "indexed": false,
          "internalType": "uint256",
          "name": "maturity",
          "type": "uint256"
        }
      ],
      "name": "OrderBookCreated",
      "type": "event"
    },
    {
      "anonymous": false,
      "inputs": [
        {
          "indexed": false,
          "internalType": "bytes32",
          "name": "ccy",
          "type": "bytes32"
        },
        {
          "indexed": false,
          "internalType": "uint256",
          "name": "oldMaturity",
          "type": "uint256"
        },
        {
          "indexed": false,
          "internalType": "uint256",
          "name": "newMaturity",
          "type": "uint256"
        }
      ],
      "name": "OrderBooksRotated",
      "type": "event"
    },
    {
      "inputs": [
        {
          "internalType": "uint256",
          "name": "_timestamp",
          "type": "uint256"
        },
        {
          "internalType": "uint256",
          "name": "_period",
          "type": "uint256"
        }
      ],
      "name": "calculateNextMaturity",
      "outputs": [
        {
          "internalType": "uint256",
          "name": "",
          "type": "uint256"
        }
      ],
      "stateMutability": "pure",
      "type": "function"
    },
    {
      "inputs": [
        {
          "internalType": "bytes32",
          "name": "_ccy",
          "type": "bytes32"
        },
        {
          "internalType": "uint256",
          "name": "_maturity",
          "type": "uint256"
        }
      ],
      "name": "getOrderBookDetail",
      "outputs": [
        {
          "internalType": "uint256",
          "name": "bestLendUnitPrice",
          "type": "uint256"
        },
        {
          "internalType": "uint256",
          "name": "bestBorrowUnitPrice",
          "type": "uint256"
        },
        {
          "internalType": "uint256",
          "name": "midUnitPrice",
          "type": "uint256"
        },
        {
          "internalType": "uint256",
          "name": "maxLendUnitPrice",
          "type": "uint256"
        },
        {
          "internalType": "uint256",
          "name": "minBorrowUnitPrice",
          "type": "uint256"
        },
        {
          "internalType": "uint256",
          "name": "openingUnitPrice",
          "type": "uint256"
        },
        {
          "internalType": "uint256",
          "name": "openingDate",
          "type": "uint256"
        },
        {
          "internalType": "bool",
          "name": "isReady",
          "type": "bool"
        }
      ],
      "stateMutability": "view",
      "type": "function"
    },
    {
      "inputs": [
        {
          "internalType": "bytes32[]",
          "name": "_ccys",
          "type": "bytes32[]"
        }
      ],
      "name": "getOrderBookDetails",
      "outputs": [
        {
          "components": [
            {
              "internalType": "bytes32",
              "name": "ccy",
              "type": "bytes32"
            },
            {
              "internalType": "uint256",
              "name": "maturity",
              "type": "uint256"
            },
            {
              "internalType": "uint256",
              "name": "bestLendUnitPrice",
              "type": "uint256"
            },
            {
              "internalType": "uint256",
              "name": "bestBorrowUnitPrice",
              "type": "uint256"
            },
            {
              "internalType": "uint256",
              "name": "midUnitPrice",
              "type": "uint256"
            },
            {
              "internalType": "uint256",
              "name": "maxLendUnitPrice",
              "type": "uint256"
            },
            {
              "internalType": "uint256",
              "name": "minBorrowUnitPrice",
              "type": "uint256"
            },
            {
              "internalType": "uint256",
              "name": "openingUnitPrice",
              "type": "uint256"
            },
            {
              "internalType": "uint256",
              "name": "openingDate",
              "type": "uint256"
            },
            {
              "internalType": "bool",
              "name": "isReady",
              "type": "bool"
            }
          ],
          "internalType": "struct ILendingMarketController.OrderBookDetail[]",
          "name": "orderBookDetails",
          "type": "tuple[]"
        }
      ],
      "stateMutability": "view",
      "type": "function"
    },
    {
      "inputs": [
        {
          "internalType": "bytes32",
          "name": "_ccy",
          "type": "bytes32"
        }
      ],
      "name": "getOrderBookDetailsPerCurrency",
      "outputs": [
        {
          "components": [
            {
              "internalType": "bytes32",
              "name": "ccy",
              "type": "bytes32"
            },
            {
              "internalType": "uint256",
              "name": "maturity",
              "type": "uint256"
            },
            {
              "internalType": "uint256",
              "name": "bestLendUnitPrice",
              "type": "uint256"
            },
            {
              "internalType": "uint256",
              "name": "bestBorrowUnitPrice",
              "type": "uint256"
            },
            {
              "internalType": "uint256",
              "name": "midUnitPrice",
              "type": "uint256"
            },
            {
              "internalType": "uint256",
              "name": "maxLendUnitPrice",
              "type": "uint256"
            },
            {
              "internalType": "uint256",
              "name": "minBorrowUnitPrice",
              "type": "uint256"
            },
            {
              "internalType": "uint256",
              "name": "openingUnitPrice",
              "type": "uint256"
            },
            {
              "internalType": "uint256",
              "name": "openingDate",
              "type": "uint256"
            },
            {
              "internalType": "bool",
              "name": "isReady",
              "type": "bool"
            }
          ],
          "internalType": "struct ILendingMarketController.OrderBookDetail[]",
          "name": "orderBookDetail",
          "type": "tuple[]"
        }
      ],
      "stateMutability": "view",
      "type": "function"
    }
  ],
  "transactionHash": "0xb92e93f6ec64a2299a59090d38e7cc98fb3a31f6aac0dd0e12ed020f3b624ec9",
  "args": [],
  "numDeployments": 1,
  "solcInputHash": "a5c1665855134ffe273d2008ae5ac307",
  "bytecode": "0x6137e761003a600b82828239805160001a60731461002d57634e487b7160e01b600052600060045260246000fd5b30600052607381538281f3fe73000000000000000000000000000000000000000030146080604052600436106100be5760003560e01c80637df761601161007b5780637df76160146101cd5780639a795d9c146101ed578063b3cb845014610200578063b8f117cd14610220578063e99d053814610235578063fe778f421461025557600080fd5b80630ffedd39146100c357806331111163146100ec578063420eadb71461010e5780636a23a95c1461012f578063734299781461015d578063766cb64e146101ad575b600080fd5b6100d66100d136600461297d565b610275565b6040516100e39190612996565b60405180910390f35b8180156100f857600080fd5b5061010c610107366004612a3b565b61045e565b005b61012161011c366004612a76565b6106c8565b6040519081526020016100e3565b81801561013b57600080fd5b5061014f61014a366004612a76565b6106f1565b6040516100e3929190612a98565b61017061016b366004612a76565b610a18565b604080519889526020890197909752958701949094526060860192909252608085015260a084015260c0830152151560e0820152610100016100e3565b8180156101b957600080fd5b5061010c6101c8366004612a3b565b610be9565b8180156101d957600080fd5b5061010c6101e8366004612a76565b610ed4565b6100d66101fb366004612b76565b6113d0565b81801561020c57600080fd5b5061010c61021b36600461297d565b6115bf565b81801561022c57600080fd5b5061010c611630565b81801561024157600080fd5b5061010c61025036600461297d565b611a6e565b81801561026157600080fd5b50610121610270366004612a76565b611acb565b60606000610281611f36565b600084815260069190910160205260409020546001600160a01b03166338b058526102aa611f36565b60050160008681526020019081526020016000206040518263ffffffff1660e01b81526004016102da9190613223565b60006040518083038186803b1580156102f257600080fd5b505afa158015610306573d6000803e3d6000fd5b505050506040513d6000823e601f3d908101601f1916820160405261032e9190810190613236565b9050805167ffffffffffffffff81111561034a5761034a612b0b565b60405190808252806020026020018201604052801561038357816020015b6103706128ec565b8152602001906001900390816103685790505b50915060005b81518110156104575760008282815181106103a6576103a66132bc565b602002602001015190506000806000806000806000806103c68d8a610a18565b975097509750975097509750975097506040518061014001604052808e81526020018a81526020018981526020018881526020018781526020018681526020018581526020018481526020018381526020018215158152508c8b81518110610430576104306132bc565b6020026020010181905250505050505050505050808061044f906132e8565b915050610389565b5050919050565b6000610468611f36565b60008781526008919091016020908152604080832088845290915290205460ff16905080610494611f36565b60050160008881526020019081526020016000206001815481106104ba576104ba6132bc565b60009182526020918290209181049091015460ff601f9092166101000a90041614156106c05760006104ea611f36565b600088815260069190910160205260409020546001600160a01b031663a4ff243a610513611f36565b60050160008a8152602001908152602001600020600081548110610539576105396132bc565b60009182526020918290209181049091015460405160e084901b6001600160e01b0319168152601f9092166101000a900460ff16600482015260240160206040518083038186803b15801561058d57600080fd5b505afa1580156105a1573d6000803e3d6000fd5b505050506040513d601f19601f820116820180604052508101906105c59190613303565b90506105cf611f36565b6000888152600c9190910160209081526040808320898452909152902054610624576105fd85874284611f5a565b610605611f36565b6000898152600d91909101602090815260408083208a84529091529020555b804210801561063e575061063a6154608261331c565b4210155b156106be578361064c611f36565b6000898152600c91909101602090815260408083208a845290915281208054909190610679908490613333565b90915550839050610688611f36565b6000898152600c91909101602090815260408083208a8452909152812060010180549091906106b8908490613333565b90915550505b505b505050505050565b6000816106e1576106da836007611fce565b90506106eb565b6106da8383611ff6565b92915050565b6106f9612944565b610701612944565b600061070b611f36565b600086815260069190910160205260408120546001600160a01b03169150610731611f36565b60008781526008919091016020908152604080832088845290915290819020549051630e07a4d160e21b815260ff9091166004820181905291506001600160a01b0383169063381e93449060240160206040518083038186803b15801561079757600080fd5b505afa1580156107ab573d6000803e3d6000fd5b505050506040513d601f19601f820116820180604052508101906107cf9190613360565b15610a0f5760405163130e60d960e11b815260ff82166004820152600090819081906001600160a01b0386169063261cc1b29060240161016060405180830381600087803b15801561082057600080fd5b505af1158015610834573d6000803e3d6000fd5b505050506040513d601f19601f820116820180604052508101906108589190613413565b909a50985091945090925090508015610910576000610875611f36565b60008b815260079190910160205260409020546001600160a01b031690508063d42a750c8a6108b86108b3886108ad61271089613466565b906120c3565b61212d565b6040516001600160e01b031960e085901b16815260048101929092526024820152604401600060405180830381600087803b1580156108f657600080fd5b505af115801561090a573d6000803e3d6000fd5b50505050505b60008311801561096f57508360ff16610927611f36565b60050160008b815260200190815260200160002060008154811061094d5761094d6132bc565b60009182526020918290209181049091015460ff601f9092166101000a900416145b15610a0b57600061099c848a85610984611f36565b60008f81526009919091016020526040902054611f5a565b90506109a661219b565b60405163a969285f60e01b8152600481018c9052602481018390526001600160a01b03919091169063a969285f90604401600060405180830381600087803b1580156109f157600080fd5b505af1158015610a05573d6000803e3d6000fd5b50505050505b5050505b50509250929050565b6000806000806000806000806000610a2e611f36565b60008c815260069190910160205260409020546001600160a01b03166380d5b609610a57611f36565b60008e8152600891909101602090815260408083208f84529091529081902054905160e083901b6001600160e01b031916815260ff90911660048201526024016101006040518083038186803b158015610ab057600080fd5b505afa158015610ac4573d6000803e3d6000fd5b505050506040513d601f19601f82011682018060405250810190610ae89190613485565b905080606001519850806080015197508060a0015196508060c001519350806040015192508060e001519150610b1c611f36565b60008c815260069190910160205260409020546001600160a01b03166350e18701610b45611f36565b60008e8152600891909101602090815260408083208f84529091529081902054905160e083901b6001600160e01b031916815260ff9091166004820152602401604080518083038186803b158015610b9c57600080fd5b505afa158015610bb0573d6000803e3d6000fd5b505050506040513d601f19601f82011682018060405250810190610bd49190613519565b999c989b509699509597969295509093509150565b60008311610c3e5760405162461bcd60e51b815260206004820152601760248201527f496e76616c696420636f6d706f756e6420666163746f7200000000000000000060448201526064015b60405180910390fd5b610c4661219b565b6001600160a01b031663a2d7d02d86602486610c6d89610c64611f36565b600101546106c8565b6040516001600160e01b031960e087901b168152600481019490945260ff909216602484015260448301526064820152608401600060405180830381600087803b158015610cba57600080fd5b505af1158015610cce573d6000803e3d6000fd5b505050506000610cdc6121bf565b604051634672758f60e01b81526004810188905260248101859052604481018490526001600160a01b039190911690634672758f90606401602060405180830381600087803b158015610d2e57600080fd5b505af1158015610d42573d6000803e3d6000fd5b505050506040513d601f19601f82011682018060405250810190610d66919061353d565b90506000610d726121bf565b6001600160a01b031663a97c4b536040518163ffffffff1660e01b8152600401602060405180830381600087803b158015610dac57600080fd5b505af1158015610dc0573d6000803e3d6000fd5b505050506040513d601f19601f82011682018060405250810190610de4919061353d565b905085610def611f36565b6000898152600991909101602052604090205581610e0b611f36565b60008981526006919091016020526040902080546001600160a01b0319166001600160a01b039290921691909117905580610e44611f36565b6000898152600791909101602090815260409182902080546001600160a01b0319166001600160a01b03948516179055815189815290810188905290810186905260608101859052838216608082015290821660a082015287907fe00c92761ad716218582d39142ce84d836cc05a3514de15a8b358b69276d55b89060c00160405180910390a250505050505050565b610edc61219b565b6001600160a01b031663f7b637bb836040518263ffffffff1660e01b8152600401610f0991815260200190565b60206040518083038186803b158015610f2157600080fd5b505afa158015610f35573d6000803e3d6000fd5b505050506040513d601f19601f82011682018060405250810190610f599190613360565b610fc45760405162461bcd60e51b815260206004820152603660248201527f4c656e64696e67206d61726b6574206861736e2774206265656e20696e697469604482015275616c697a656420696e207468652063757272656e637960501b6064820152608401610c35565b610fcc6121e2565b6001600160a01b0316631eae0893836040518263ffffffff1660e01b8152600401610ff991815260200190565b60206040518083038186803b15801561101157600080fd5b505afa158015611025573d6000803e3d6000fd5b505050506040513d601f19601f820116820180604052508101906110499190613360565b61108e5760405162461bcd60e51b81526020600482015260166024820152754e6f6e20737570706f727465642063757272656e637960501b6044820152606401610c35565b6000611098611f36565b600084815260069190910160205260408120546001600160a01b03169150816338b058526110c4611f36565b60050160008781526020019081526020016000206040518263ffffffff1660e01b81526004016110f49190613223565b60006040518083038186803b15801561110c57600080fd5b505afa158015611120573d6000803e3d6000fd5b505050506040513d6000823e601f3d908101601f191682016040526111489190810190613236565b905060008151600014156111e25761115e61219b565b6001600160a01b03166349a1d218866040518263ffffffff1660e01b815260040161118b91815260200190565b60206040518083038186803b1580156111a357600080fd5b505afa1580156111b7573d6000803e3d6000fd5b505050506040513d601f19601f820116820180604052508101906111db9190613303565b905061121d565b600082600184516111f3919061331c565b81518110611203576112036132bc565b6020026020010151905061121981610c64611f36565b9150505b8084106112855760405162461bcd60e51b815260206004820152603060248201527f4d61726b6574206f70656e696e672064617465206d757374206265206265666f60448201526f7265206d61747572697479206461746560801b6064820152608401610c35565b604051634ea469d560e01b815260048101829052602481018590526000906001600160a01b03851690634ea469d590604401602060405180830381600087803b1580156112d157600080fd5b505af11580156112e5573d6000803e3d6000fd5b505050506040513d601f19601f820116820180604052508101906113099190613558565b9050611313611f36565b600087815260059190910160209081526040822080546001810182559083529181902090820401805460ff808516601f9094166101000a9384029302191691909117905580611360611f36565b600088815260089190910160209081526040808320868452825291829020805460ff191660ff94851617905581518881529081018590529183169188917fb74193793a4bfa8ca07156db6ff3b9af7f3604cb2bdeeb2cbeb65ec6c1367164910160405180910390a3505050505050565b6060600080835167ffffffffffffffff8111156113ef576113ef612b0b565b60405190808252806020026020018201604052801561142257816020015b606081526020019060019003908161140d5790505b50905060005b84518110156114aa57611453858281518110611446576114466132bc565b6020026020010151610275565b828281518110611465576114656132bc565b6020026020010181905250818181518110611482576114826132bc565b602002602001015151836114969190613333565b9250806114a2816132e8565b915050611428565b508167ffffffffffffffff8111156114c4576114c4612b0b565b6040519080825280602002602001820160405280156114fd57816020015b6114ea6128ec565b8152602001906001900390816114e25790505b5092506000805b82518110156115b65760005b838281518110611522576115226132bc565b6020026020010151518110156115a357838281518110611544576115446132bc565b6020026020010151818151811061155d5761155d6132bc565b6020026020010151868481518110611577576115776132bc565b6020026020010181905250828061158d906132e8565b935050808061159b906132e8565b915050611510565b50806115ae816132e8565b915050611504565b50505050919050565b60006115c9611f36565b6000838152600691909101602052604080822054815163280dce3760e21b815291516001600160a01b039091169350839263a03738dc926004808201939182900301818387803b15801561161c57600080fd5b505af11580156106c0573d6000803e3d6000fd5b42611639611f36565b6002015560006116476121e2565b6001600160a01b03166361c661de6040518163ffffffff1660e01b815260040160006040518083038186803b15801561167f57600080fd5b505afa158015611693573d6000803e3d6000fd5b505050506040513d6000823e601f3d908101601f191682016040526116bb9190810190613236565b905060006116c7612202565b6001600160a01b031663d5e190d06040518163ffffffff1660e01b815260040160006040518083038186803b1580156116ff57600080fd5b505afa158015611713573d6000803e3d6000fd5b505050506040513d6000823e601f3d908101601f1916820160405261173b9190810190613236565b905060005b825181101561182057600083828151811061175d5761175d6132bc565b60200260200101519050611770816115bf565b6117786121e2565b6001600160a01b0316632491dc8c826040518263ffffffff1660e01b81526004016117a591815260200190565b60206040518083038186803b1580156117bd57600080fd5b505afa1580156117d1573d6000803e3d6000fd5b505050506040513d601f19601f820116820180604052508101906117f59190613303565b6117fd611f36565b600092835260030160205260409091205580611818816132e8565b915050611740565b5060005b8151811015611a36576000828281518110611841576118416132bc565b602002602001015190506000611855612202565b6001600160a01b031663b12e4410836040518263ffffffff1660e01b815260040161188291815260200190565b60206040518083038186803b15801561189a57600080fd5b505afa1580156118ae573d6000803e3d6000fd5b505050506040513d601f19601f820116820180604052508101906118d2919061353d565b90506000816001600160a01b03166370a082316118ed612202565b6040516001600160e01b031960e084901b1681526001600160a01b03909116600482015260240160206040518083038186803b15801561192c57600080fd5b505afa158015611940573d6000803e3d6000fd5b505050506040513d601f19601f820116820180604052508101906119649190613303565b905061196e611f36565b548314611a035761197d6121e2565b604051636ed2f1db60e01b815260048101859052602481018390526001600160a01b039190911690636ed2f1db9060440160206040518083038186803b1580156119c657600080fd5b505afa1580156119da573d6000803e3d6000fd5b505050506040513d601f19601f820116820180604052508101906119fe9190613303565b611a05565b805b611a0d611f36565b600094855260040160205260409093209290925550819050611a2e816132e8565b915050611824565b506040514281527f5bd5e5214bcf42a851f8883889177591b93dbd526076c7b5e96bd8eed5931a539060200160405180910390a15050565b6000611a78611f36565b60008381526006919091016020526040808220548151630b0863e760e11b815291516001600160a01b0390911693508392631610c7ce926004808201939182900301818387803b15801561161c57600080fd5b600080611ad6611f36565b600085815260069190910160205260408120546001600160a01b03169150611afc611f36565b600086815260059190910160205260409020805490915060021115611b5c5760405162461bcd60e51b81526020600482015260166024820152754e6f7420656e6f756768206f7264657220626f6f6b7360501b6044820152606401610c35565b604051631c582c2960e11b81526000906001600160a01b038416906338b0585290611b8b908590600401613223565b60006040518083038186803b158015611ba357600080fd5b505afa158015611bb7573d6000803e3d6000fd5b505050506040513d6000823e601f3d908101601f19168201604052611bdf9190810190613236565b9050600082600081548110611bf657611bf66132bc565b90600052602060002090602091828204019190069054906101000a900460ff169050600082600181518110611c2d57611c2d6132bc565b60200260200101519050611c698360018551611c49919061331c565b81518110611c5957611c596132bc565b6020026020010151610c64611f36565b60405163c9c0009960e01b815260ff8416600482015260248101829052604481018390529096506001600160a01b0386169063c9c0009990606401600060405180830381600087803b158015611cbe57600080fd5b505af1158015611cd2573d6000803e3d6000fd5b5050505060005b8454811015611d905784546000908290611cf59060019061331c565b14611d3b5785611d06836001613333565b81548110611d1657611d166132bc565b90600052602060002090602091828204019190069054906101000a900460ff16611d3d565b835b905080868381548110611d5257611d526132bc565b90600052602060002090602091828204019190066101000a81548160ff021916908360ff160217905550508080611d88906132e8565b915050611cd9565b50611d9961219b565b6001600160a01b031663fb8439048985600081518110611dbb57611dbb6132bc565b602002602001015186600181518110611dd657611dd66132bc565b6020026020010151611e028d89600181518110611df557611df56132bc565b602002602001015161221a565b6040516001600160e01b031960e087901b1681526004810194909452602484019290925260448301526064820152608481018a905260a401600060405180830381600087803b158015611e5457600080fd5b505af1158015611e68573d6000803e3d6000fd5b50505050600083600081518110611e8157611e816132bc565b60200260200101519050611e93611f36565b60008a81526008919091016020908152604080832084845290915290205460ff16611ebc611f36565b60008b8152600891909101602090815260408083208b8452825291829020805460ff191660ff949094169390931790925580518b815291820183905281018890527f134ffefb84024e6cd2bb0455365b114f82b012f23b0b0cf931045b8020f26ba59060600160405180910390a150505050505092915050565b7f8041b8421ebd495cc61f38c788c9eb100daccf9bd36aa0bb920b7a15b2e0496590565b600080611f67848661331c565b90506000611f75848761331c565b9050611f818288613466565b81611f8e8961271061331c565b611f989190613466565b611fa29190613333565b82611faf89612710613466565b611fb99190613466565b611fc39190613591565b979650505050505050565b6000611fdd6201518083613466565b611fe79084613333565b9050828110156106eb57600080fd5b600080806120166120118661200c876001613333565b61236a565b612441565b5091509150600061202983836000612462565b9050600061203682612485565b905060006005826005841061204c57600061204f565b60075b60ff1661205c9190613333565b612066919061331c565b905061207283826124c0565b9550600086116120b85760405162461bcd60e51b81526020600482015260116024820152700496e76616c69642054696d657374616d7607c1b6044820152606401610c35565b505050505092915050565b60008082116120d157600080fd5b60056120dd8385613591565b6120e890600a613466565b836120f486600a613466565b6120fe9190613591565b612108919061331c565b1015612118576106da8284613591565b6121228284613591565b6106da906001613333565b60006001600160ff1b038211156121975760405162461bcd60e51b815260206004820152602860248201527f53616665436173743a2076616c756520646f65736e27742066697420696e2061604482015267371034b73a191a9b60c11b6064820152608401610c35565b5090565b60006121ba7011d95b995cda5cd5985b1d5955985d5b1d607a1b6124e8565b905090565b60006121ba742132b0b1b7b7283937bc3ca1b7b73a3937b63632b960591b6124e8565b60006121ba7121bab93932b731bca1b7b73a3937b63632b960711b6124e8565b60006121ba69151bdad95b95985d5b1d60b21b6124e8565b600080612225611f36565b6000858152600c919091016020908152604080832086845282529182902082518084019093528054835260010154908201819052909150156122825761227b816020015161271083600001516108ad9190613466565b9150612363565b61228a611f36565b6000858152600d9190910160209081526040808320868452909152902054156122da576122b5611f36565b6000858152600d91909101602090815260408083208684529091529020549150612363565b6122e261219b565b6001600160a01b031663d637c15f856040518263ffffffff1660e01b815260040161230f91815260200190565b60a06040518083038186803b15801561232757600080fd5b505afa15801561233b573d6000803e3d6000fd5b505050506040513d601f19601f8201168201806040525081019061235f91906135a5565b5191505b5092915050565b600080808061238461237f6201518088613591565b612579565b919450925090506123958583613333565b9150600c6123a460018461331c565b6123ae9190613591565b6123b89084613333565b9250600c6123c760018461331c565b6123d19190613615565b6123dc906001613333565b915060006123ea84846126ed565b9050808211156123f8578091505b6124056201518088613615565b62015180612414868686612773565b61241e9190613466565b6124289190613333565b94508685101561243757600080fd5b5050505092915050565b6000808061245561237f6201518086613591565b9196909550909350915050565b600062015180612473858585612773565b61247d9190613466565b949350505050565b6000806124956201518084613591565b905060076124a4826003613333565b6124ae9190613615565b6124b9906001613333565b9392505050565b60006124cf6201518083613466565b6124d9908461331c565b9050828111156106eb57600080fd5b60008181527f4abde63c3e81aefa5764b017968bc473e83e093d7e1a10247d19e0a3e41240196020908152604080832054815170026b4b9b9b4b7339030b2323932b9b99d1607d1b9381019390935260318084018690528251808503909101815260519093019091526001600160a01b031690816123635760405162461bcd60e51b8152600401610c359190613629565b60008080838162253d8c6125908362010bd961367e565b61259a919061367e565b9050600062023ab16125ad8360046136bf565b6125b79190613744565b905060046125c88262023ab16136bf565b6125d390600361367e565b6125dd9190613744565b6125e79083613772565b9150600062164b096125fa84600161367e565b61260690610fa06136bf565b6126109190613744565b90506004612620826105b56136bf565b61262a9190613744565b6126349084613772565b61263f90601f61367e565b9250600061098f6126518560506136bf565b61265b9190613744565b90506000605061266d8361098f6136bf565b6126779190613744565b6126819086613772565b905061268e600b83613744565b945061269b85600c6136bf565b6126a683600261367e565b6126b09190613772565b915084836126bf603187613772565b6126ca9060646136bf565b6126d4919061367e565b6126de919061367e565b9a919950975095505050505050565b600081600114806126fe5750816003145b806127095750816005145b806127145750816007145b8061271f5750816008145b8061272a575081600a145b80612735575081600c145b156127425750601f6106eb565b816002146127525750601e6106eb565b61275b836128b0565b61276657601c612769565b601d5b60ff169392505050565b60006107b284101561278457600080fd5b838383600062253d8c60046064600c61279e600e88613772565b6127a89190613744565b6127b48861132461367e565b6127be919061367e565b6127c89190613744565b6127d39060036136bf565b6127dd9190613744565b600c806127eb600e88613772565b6127f59190613744565b61280090600c6136bf565b61280b600288613772565b6128159190613772565b6128219061016f6136bf565b61282b9190613744565b6004600c61283a600e89613772565b6128449190613744565b612850896112c061367e565b61285a919061367e565b612866906105b56136bf565b6128709190613744565b61287c617d4b87613772565b612886919061367e565b612890919061367e565b61289a9190613772565b6128a49190613772565b98975050505050505050565b60006128bd600483613615565b1580156128d357506128d0606483613615565b15155b806106eb57506128e561019083613615565b1592915050565b6040518061014001604052806000801916815260200160008152602001600081526020016000815260200160008152602001600081526020016000815260200160008152602001600081526020016000151581525090565b6040518060800160405280600065ffffffffffff16815260200160006001600160a01b0316815260200160008152602001600081525090565b60006020828403121561298f57600080fd5b5035919050565b602080825282518282018190526000919060409081850190868401855b82811015612a2e5781518051855286810151878601528581015186860152606080820151908601526080808201519086015260a0808201519086015260c0808201519086015260e0808201519086015261010080820151908601526101209081015115159085015261014090930192908501906001016129b3565b5091979650505050505050565b600080600080600060a08688031215612a5357600080fd5b505083359560208501359550604085013594606081013594506080013592509050565b60008060408385031215612a8957600080fd5b50508035926020909101359150565b825165ffffffffffff1681526020808401516001600160a01b03169082015260408084015190820152606080840151908201526101008101825165ffffffffffff16608083015260208301516001600160a01b031660a0830152604083015160c0830152606083015160e08301526124b9565b634e487b7160e01b600052604160045260246000fd5b604051601f8201601f1916810167ffffffffffffffff81118282101715612b4a57612b4a612b0b565b604052919050565b600067ffffffffffffffff821115612b6c57612b6c612b0b565b5060051b60200190565b60006020808385031215612b8957600080fd5b823567ffffffffffffffff811115612ba057600080fd5b8301601f81018513612bb157600080fd5b8035612bc4612bbf82612b52565b612b21565b81815260059190911b82018301908381019087831115612be357600080fd5b928401925b82841015611fc357833582529284019290840190612be8565b805480835260008281526020808220940193909190825b82601f82011015612e9f57815460ff80821688526020612c41818a01838560081c1660ff169052565b6040612c56818b01848660101c1660ff169052565b6060612c6b818c01858760181c1660ff169052565b6080612c7f818d018688871c1660ff169052565b60a09350612c96848d01868860281c1660ff169052565b60c0612cab818e01878960301c1660ff169052565b60e0612cc0818f01888a60381c1660ff169052565b60ff88861c8816166101008f0152612ce36101208f01888a60481c1660ff169052565b612cf86101408f01888a60501c1660ff169052565b612d0d6101608f01888a60581c1660ff169052565b60ff88851c8816166101808f0152612d306101a08f01888a60681c1660ff169052565b612d456101c08f01888a60701c1660ff169052565b612d5a6101e08f01888a60781c1660ff169052565b60ff88841c8816166102008f0152612d7d6102208f01888a60881c1660ff169052565b612d926102408f01888a60901c1660ff169052565b612da76102608f01888a60981c1660ff169052565b60ff88871c8816166102808f0152612dca6102a08f01888a60a81c1660ff169052565b612ddf6102c08f01888a60b01c1660ff169052565b612df46102e08f01888a60b81c1660ff169052565b60ff88831c8816166103008f0152612e176103208f01888a60c81c1660ff169052565b612e2c6103408f01888a60d01c1660ff169052565b612e416103608f01888a60d81c1660ff169052565b60ff88821c8816166103808f0152505050505050612e6a6103a08901828460e81c1660ff169052565b612e7f6103c08901828460f01c1660ff169052565b5060f81c6103e08701526104009095019460019190910190602001612c18565b90549082811015612eba5760ff821686526020909501946001015b82811015612ed65760ff600883901c1686526020909501946001015b82811015612ef25760ff601083901c1686526020909501946001015b82811015612f0e5760ff601883901c1686526020909501946001015b82811015612f2b57602082901c60ff168652602095909501946001015b82811015612f475760ff602883901c1686526020909501946001015b82811015612f635760ff603083901c1686526020909501946001015b82811015612f7f5760ff603883901c1686526020909501946001015b82811015612f9b5760ff604083901c1686526020909501946001015b82811015612fb75760ff604883901c1686526020909501946001015b82811015612fd35760ff605083901c1686526020909501946001015b82811015612fef5760ff605883901c1686526020909501946001015b8281101561300b5760ff606083901c1686526020909501946001015b828110156130275760ff606883901c1686526020909501946001015b828110156130435760ff607083901c1686526020909501946001015b8281101561305f5760ff607883901c1686526020909501946001015b8281101561307b5760ff608083901c1686526020909501946001015b828110156130975760ff608883901c1686526020909501946001015b828110156130b35760ff609083901c1686526020909501946001015b828110156130cf5760ff609883901c1686526020909501946001015b828110156130eb5760ff60a083901c1686526020909501946001015b828110156131075760ff60a883901c1686526020909501946001015b828110156131235760ff60b083901c1686526020909501946001015b8281101561313f5760ff60b883901c1686526020909501946001015b8281101561315b5760ff60c083901c1686526020909501946001015b828110156131775760ff60c883901c1686526020909501946001015b828110156131935760ff60d083901c1686526020909501946001015b828110156131af5760ff60d883901c1686526020909501946001015b828110156131cb5760ff60e083901c1686526020909501946001015b828110156131e75760ff60e883901c1686526020909501946001015b828110156132035760ff60f083901c1686526020909501946001015b828110156132195760f882901c86526020860195505b5093949350505050565b6020815260006124b96020830184612c01565b6000602080838503121561324957600080fd5b825167ffffffffffffffff81111561326057600080fd5b8301601f8101851361327157600080fd5b805161327f612bbf82612b52565b81815260059190911b8201830190838101908783111561329e57600080fd5b928401925b82841015611fc3578351825292840192908401906132a3565b634e487b7160e01b600052603260045260246000fd5b634e487b7160e01b600052601160045260246000fd5b60006000198214156132fc576132fc6132d2565b5060010190565b60006020828403121561331557600080fd5b5051919050565b60008282101561332e5761332e6132d2565b500390565b60008219821115613346576133466132d2565b500190565b8051801515811461335b57600080fd5b919050565b60006020828403121561337257600080fd5b6124b98261334b565b80516001600160a01b038116811461335b57600080fd5b6000608082840312156133a457600080fd5b6040516080810181811067ffffffffffffffff821117156133c7576133c7612b0b565b8060405250809150825165ffffffffffff811681146133e557600080fd5b81526133f36020840161337b565b602082015260408301516040820152606083015160608201525092915050565b6000806000806000610160868803121561342c57600080fd5b85519450602086015193506040860151925061344b8760608801613392565b915061345a8760e08801613392565b90509295509295909350565b6000816000190483118215151615613480576134806132d2565b500290565b600061010080838503121561349957600080fd5b6040519081019067ffffffffffffffff821181831017156134bc576134bc612b0b565b81604052835181526020840151602082015260408401516040820152606084015160608201526080840151608082015260a084015160a082015260c084015160c082015261350c60e0850161334b565b60e0820152949350505050565b6000806040838503121561352c57600080fd5b505080516020909101519092909150565b60006020828403121561354f57600080fd5b6124b98261337b565b60006020828403121561356a57600080fd5b815160ff811681146124b957600080fd5b634e487b7160e01b600052601260045260246000fd5b6000826135a0576135a061357b565b500490565b600060a082840312156135b757600080fd5b60405160a0810181811067ffffffffffffffff821117156135da576135da612b0b565b806040525082518152602083015160208201526040830151604082015260608301516060820152608083015160808201528091505092915050565b6000826136245761362461357b565b500690565b600060208083528351808285015260005b818110156136565785810183015185820160400152820161363a565b81811115613668576000604083870101525b50601f01601f1916929092016040019392505050565b600080821280156001600160ff1b03849003851316156136a0576136a06132d2565b600160ff1b83900384128116156136b9576136b96132d2565b50500190565b60006001600160ff1b03818413828413808216868404861116156136e5576136e56132d2565b600160ff1b6000871282811687830589121615613704576137046132d2565b60008712925087820587128484161615613720576137206132d2565b87850587128184161615613736576137366132d2565b505050929093029392505050565b6000826137535761375361357b565b600160ff1b82146000198414161561376d5761376d6132d2565b500590565b60008083128015600160ff1b850184121615613790576137906132d2565b6001600160ff1b03840183138116156137ab576137ab6132d2565b5050039056fea26469706673582212205292d86d0a62ea918600901dbc89819851420a1de0199274217f770a65697ad864736f6c63430008090033",
  "devdoc": {
    "kind": "dev",
    "methods": {},
    "version": 1
  },
  "userdoc": {
    "kind": "user",
    "methods": {},
    "version": 1
  },
  "storageLayout": {
    "storage": [],
    "types": null
  }
}