{
  "address": "0xE090ab5BB5E82736b759579D4edEA7294599e4cc",
  "abi": [
    {
      "anonymous": false,
      "inputs": [
        {
          "indexed": false,
          "internalType": "bytes32",
          "name": "name",
          "type": "bytes32"
        },
        {
          "indexed": false,
          "internalType": "address",
          "name": "destination",
          "type": "address"
        }
      ],
      "name": "CacheUpdated",
      "type": "event"
    },
    {
      "anonymous": false,
      "inputs": [
        {
          "indexed": false,
          "internalType": "uint48",
          "name": "orderId",
          "type": "uint48"
        },
        {
          "indexed": true,
          "internalType": "address",
          "name": "maker",
          "type": "address"
        },
        {
          "indexed": false,
          "internalType": "enum ProtocolTypes.Side",
          "name": "side",
          "type": "uint8"
        },
        {
          "indexed": false,
          "internalType": "uint256",
          "name": "amount",
          "type": "uint256"
        },
        {
          "indexed": false,
          "internalType": "uint256",
          "name": "rate",
          "type": "uint256"
        }
      ],
      "name": "CancelOrder",
      "type": "event"
    },
    {
      "anonymous": false,
      "inputs": [
        {
          "indexed": false,
          "internalType": "uint8",
          "name": "version",
          "type": "uint8"
        }
      ],
      "name": "Initialized",
      "type": "event"
    },
    {
      "anonymous": false,
      "inputs": [
        {
          "indexed": false,
          "internalType": "uint48",
          "name": "orderId",
          "type": "uint48"
        },
        {
          "indexed": true,
          "internalType": "address",
          "name": "maker",
          "type": "address"
        },
        {
          "indexed": false,
          "internalType": "enum ProtocolTypes.Side",
          "name": "side",
          "type": "uint8"
        },
        {
          "indexed": false,
          "internalType": "bytes32",
          "name": "ccy",
          "type": "bytes32"
        },
        {
          "indexed": false,
          "internalType": "uint256",
          "name": "maturity",
          "type": "uint256"
        },
        {
          "indexed": false,
          "internalType": "uint256",
          "name": "amount",
          "type": "uint256"
        },
        {
          "indexed": false,
          "internalType": "uint256",
          "name": "rate",
          "type": "uint256"
        }
      ],
      "name": "MakeOrder",
      "type": "event"
    },
    {
      "anonymous": false,
      "inputs": [
        {
          "indexed": false,
          "internalType": "uint256",
          "name": "maturity",
          "type": "uint256"
        },
        {
          "indexed": false,
          "internalType": "uint256",
          "name": "prevMaturity",
          "type": "uint256"
        }
      ],
      "name": "OpenMarket",
      "type": "event"
    },
    {
      "anonymous": false,
      "inputs": [
        {
          "indexed": false,
          "internalType": "address",
          "name": "account",
          "type": "address"
        }
      ],
      "name": "Paused",
      "type": "event"
    },
    {
      "anonymous": false,
      "inputs": [
        {
          "indexed": false,
          "internalType": "uint48[]",
          "name": "orderIds",
          "type": "uint48[]"
        },
        {
          "indexed": true,
          "internalType": "address",
          "name": "taker",
          "type": "address"
        },
        {
          "indexed": false,
          "internalType": "enum ProtocolTypes.Side",
          "name": "side",
          "type": "uint8"
        },
        {
          "indexed": false,
          "internalType": "uint256",
          "name": "amount",
          "type": "uint256"
        },
        {
          "indexed": false,
          "internalType": "uint256",
          "name": "rate",
          "type": "uint256"
        }
      ],
      "name": "TakeOrders",
      "type": "event"
    },
    {
      "anonymous": false,
      "inputs": [
        {
          "indexed": true,
          "internalType": "address",
          "name": "from",
          "type": "address"
        },
        {
          "indexed": true,
          "internalType": "address",
          "name": "to",
          "type": "address"
        },
        {
          "indexed": false,
          "internalType": "int256",
          "name": "value",
          "type": "int256"
        }
      ],
      "name": "Transfer",
      "type": "event"
    },
    {
      "anonymous": false,
      "inputs": [
        {
          "indexed": false,
          "internalType": "address",
          "name": "account",
          "type": "address"
        }
      ],
      "name": "Unpaused",
      "type": "event"
    },
    {
      "inputs": [],
      "name": "acceptedContracts",
      "outputs": [
        {
          "internalType": "bytes32[]",
          "name": "contracts",
          "type": "bytes32[]"
        }
      ],
      "stateMutability": "pure",
      "type": "function"
    },
    {
      "inputs": [],
      "name": "buildCache",
      "outputs": [],
      "stateMutability": "nonpayable",
      "type": "function"
    },
    {
      "inputs": [
        {
          "internalType": "address",
          "name": "_user",
          "type": "address"
        },
        {
          "internalType": "uint48",
          "name": "_orderId",
          "type": "uint48"
        }
      ],
      "name": "cancelOrder",
      "outputs": [
        {
          "internalType": "enum ProtocolTypes.Side",
          "name": "",
          "type": "uint8"
        },
        {
          "internalType": "uint256",
          "name": "",
          "type": "uint256"
        },
        {
          "internalType": "uint256",
          "name": "",
          "type": "uint256"
        }
      ],
      "stateMutability": "nonpayable",
      "type": "function"
    },
    {
      "inputs": [
        {
          "internalType": "enum ProtocolTypes.Side",
          "name": "_side",
          "type": "uint8"
        },
        {
          "internalType": "address",
          "name": "_user",
          "type": "address"
        },
        {
          "internalType": "uint256",
          "name": "_amount",
          "type": "uint256"
        },
        {
          "internalType": "uint256",
          "name": "_rate",
          "type": "uint256"
        }
      ],
      "name": "createOrder",
      "outputs": [
        {
          "internalType": "uint48[]",
          "name": "orderIds",
          "type": "uint48[]"
        },
        {
          "internalType": "address[]",
          "name": "makers",
          "type": "address[]"
        },
        {
          "internalType": "uint256[]",
          "name": "amounts",
          "type": "uint256[]"
        },
        {
          "internalType": "uint256",
          "name": "remainingAmount",
          "type": "uint256"
        }
      ],
      "stateMutability": "nonpayable",
      "type": "function"
    },
    {
      "inputs": [
        {
          "internalType": "address",
          "name": "_user",
          "type": "address"
        }
      ],
      "name": "futureValueOf",
      "outputs": [
        {
          "internalType": "int256",
          "name": "",
          "type": "int256"
        }
      ],
      "stateMutability": "view",
      "type": "function"
    },
    {
      "inputs": [
        {
          "internalType": "uint256",
          "name": "_limit",
          "type": "uint256"
        }
      ],
      "name": "getBorrowOrderBook",
      "outputs": [
        {
          "internalType": "uint256[]",
          "name": "rates",
          "type": "uint256[]"
        },
        {
          "internalType": "uint256[]",
          "name": "amounts",
          "type": "uint256[]"
        },
        {
          "internalType": "uint256[]",
          "name": "quantities",
          "type": "uint256[]"
        }
      ],
      "stateMutability": "view",
      "type": "function"
    },
    {
      "inputs": [],
      "name": "getBorrowRate",
      "outputs": [
        {
          "internalType": "uint256",
          "name": "rate",
          "type": "uint256"
        }
      ],
      "stateMutability": "view",
      "type": "function"
    },
    {
      "inputs": [],
      "name": "getCurrency",
      "outputs": [
        {
          "internalType": "bytes32",
          "name": "currency",
          "type": "bytes32"
        }
      ],
      "stateMutability": "view",
      "type": "function"
    },
    {
      "inputs": [
        {
          "internalType": "address",
          "name": "account",
          "type": "address"
        }
      ],
      "name": "getFutureValue",
      "outputs": [
        {
          "internalType": "int256",
          "name": "",
          "type": "int256"
        },
        {
          "internalType": "uint256",
          "name": "",
          "type": "uint256"
        }
      ],
      "stateMutability": "view",
      "type": "function"
    },
    {
      "inputs": [
        {
          "internalType": "uint256",
          "name": "_limit",
          "type": "uint256"
        }
      ],
      "name": "getLendOrderBook",
      "outputs": [
        {
          "internalType": "uint256[]",
          "name": "rates",
          "type": "uint256[]"
        },
        {
          "internalType": "uint256[]",
          "name": "amounts",
          "type": "uint256[]"
        },
        {
          "internalType": "uint256[]",
          "name": "quantities",
          "type": "uint256[]"
        }
      ],
      "stateMutability": "view",
      "type": "function"
    },
    {
      "inputs": [],
      "name": "getLendRate",
      "outputs": [
        {
          "internalType": "uint256",
          "name": "rate",
          "type": "uint256"
        }
      ],
      "stateMutability": "view",
      "type": "function"
    },
    {
      "inputs": [],
      "name": "getMarket",
      "outputs": [
        {
          "components": [
            {
              "internalType": "bytes32",
              "name": "ccy",
              "type": "bytes32"
            },
            {
              "internalType": "uint256",
              "name": "maturity",
              "type": "uint256"
            },
            {
              "internalType": "uint256",
              "name": "basisDate",
              "type": "uint256"
            },
            {
              "internalType": "uint256",
              "name": "borrowRate",
              "type": "uint256"
            },
            {
              "internalType": "uint256",
              "name": "lendRate",
              "type": "uint256"
            },
            {
              "internalType": "uint256",
              "name": "midRate",
              "type": "uint256"
            }
          ],
          "internalType": "struct ILendingMarket.Market",
          "name": "market",
          "type": "tuple"
        }
      ],
      "stateMutability": "view",
      "type": "function"
    },
    {
      "inputs": [],
      "name": "getMaturity",
      "outputs": [
        {
          "internalType": "uint256",
          "name": "maturity",
          "type": "uint256"
        }
      ],
      "stateMutability": "view",
      "type": "function"
    },
    {
      "inputs": [],
      "name": "getMidRate",
      "outputs": [
        {
          "internalType": "uint256",
          "name": "rate",
          "type": "uint256"
        }
      ],
      "stateMutability": "view",
      "type": "function"
    },
    {
      "inputs": [
        {
          "internalType": "uint48",
          "name": "_orderId",
          "type": "uint48"
        }
      ],
      "name": "getOrder",
      "outputs": [
        {
          "internalType": "enum ProtocolTypes.Side",
          "name": "side",
          "type": "uint8"
        },
        {
          "internalType": "uint256",
          "name": "rate",
          "type": "uint256"
        },
        {
          "internalType": "uint256",
          "name": "maturity",
          "type": "uint256"
        },
        {
          "internalType": "address",
          "name": "maker",
          "type": "address"
        },
        {
          "internalType": "uint256",
          "name": "amount",
          "type": "uint256"
        },
        {
          "internalType": "uint256",
          "name": "timestamp",
          "type": "uint256"
        }
      ],
      "stateMutability": "view",
      "type": "function"
    },
    {
      "inputs": [
        {
          "internalType": "uint256",
          "name": "_maturity",
          "type": "uint256"
        }
      ],
      "name": "getTotalBorrowingSupply",
      "outputs": [
        {
          "internalType": "uint256",
          "name": "",
          "type": "uint256"
        }
      ],
      "stateMutability": "view",
      "type": "function"
    },
    {
      "inputs": [
        {
          "internalType": "uint256",
          "name": "_maturity",
          "type": "uint256"
        }
      ],
      "name": "getTotalLendingSupply",
      "outputs": [
        {
          "internalType": "uint256",
          "name": "",
          "type": "uint256"
        }
      ],
      "stateMutability": "view",
      "type": "function"
    },
    {
      "inputs": [
        {
          "internalType": "address",
          "name": "account",
          "type": "address"
        },
        {
          "internalType": "uint256",
          "name": "maturity",
          "type": "uint256"
        }
      ],
      "name": "hasFutureValueInPastMaturity",
      "outputs": [
        {
          "internalType": "bool",
          "name": "",
          "type": "bool"
        }
      ],
      "stateMutability": "view",
      "type": "function"
    },
    {
      "inputs": [
        {
          "internalType": "address",
          "name": "_resolver",
          "type": "address"
        },
        {
          "internalType": "bytes32",
          "name": "_ccy",
          "type": "bytes32"
        },
        {
          "internalType": "uint256",
          "name": "_maturity",
          "type": "uint256"
        },
        {
          "internalType": "uint256",
          "name": "_basisDate",
          "type": "uint256"
        }
      ],
      "name": "initialize",
      "outputs": [],
      "stateMutability": "nonpayable",
      "type": "function"
    },
    {
      "inputs": [],
      "name": "isMatured",
      "outputs": [
        {
          "internalType": "bool",
          "name": "",
          "type": "bool"
        }
      ],
      "stateMutability": "view",
      "type": "function"
    },
    {
      "inputs": [],
      "name": "isOpened",
      "outputs": [
        {
          "internalType": "bool",
          "name": "",
          "type": "bool"
        }
      ],
      "stateMutability": "view",
      "type": "function"
    },
    {
      "inputs": [],
      "name": "isResolverCached",
      "outputs": [
        {
          "internalType": "bool",
          "name": "",
          "type": "bool"
        }
      ],
      "stateMutability": "view",
      "type": "function"
    },
    {
      "inputs": [
        {
          "internalType": "enum ProtocolTypes.Side",
          "name": "_side",
          "type": "uint8"
        },
        {
          "internalType": "uint256",
          "name": "_amount",
          "type": "uint256"
        },
        {
          "internalType": "uint256",
          "name": "_rate",
          "type": "uint256"
        }
      ],
      "name": "matchOrders",
      "outputs": [
        {
          "internalType": "uint256",
          "name": "",
          "type": "uint256"
        }
      ],
      "stateMutability": "view",
      "type": "function"
    },
    {
      "inputs": [
        {
          "internalType": "uint256",
          "name": "_maturity",
          "type": "uint256"
        }
      ],
      "name": "openMarket",
      "outputs": [
        {
          "internalType": "uint256",
          "name": "prevMaturity",
          "type": "uint256"
        }
      ],
      "stateMutability": "nonpayable",
      "type": "function"
    },
    {
      "inputs": [],
      "name": "pauseMarket",
      "outputs": [],
      "stateMutability": "nonpayable",
      "type": "function"
    },
    {
      "inputs": [],
      "name": "paused",
      "outputs": [
        {
          "internalType": "bool",
          "name": "",
          "type": "bool"
        }
      ],
      "stateMutability": "view",
      "type": "function"
    },
    {
      "inputs": [
        {
          "internalType": "address",
          "name": "_user",
          "type": "address"
        }
      ],
      "name": "presentValueOf",
      "outputs": [
        {
          "internalType": "int256",
          "name": "",
          "type": "int256"
        }
      ],
      "stateMutability": "view",
      "type": "function"
    },
    {
      "inputs": [
        {
          "internalType": "address",
          "name": "_user",
          "type": "address"
        }
      ],
      "name": "removeFutureValueInPastMaturity",
      "outputs": [
        {
          "internalType": "int256",
          "name": "removedAmount",
          "type": "int256"
        },
        {
          "internalType": "uint256",
          "name": "maturity",
          "type": "uint256"
        }
      ],
      "stateMutability": "nonpayable",
      "type": "function"
    },
    {
      "inputs": [],
      "name": "requiredContracts",
      "outputs": [
        {
          "internalType": "bytes32[]",
          "name": "contracts",
          "type": "bytes32[]"
        }
      ],
      "stateMutability": "pure",
      "type": "function"
    },
    {
      "inputs": [],
      "name": "resolver",
      "outputs": [
        {
          "internalType": "contract IAddressResolver",
          "name": "",
          "type": "address"
        }
      ],
      "stateMutability": "view",
      "type": "function"
    },
    {
      "inputs": [],
      "name": "unpauseMarket",
      "outputs": [],
      "stateMutability": "nonpayable",
      "type": "function"
    }
  ],
  "transactionHash": "0x41eeb6fa07e9476a2793f76762c03e4325e2abb5b6b1addf592f51176199b958",
  "args": [],
  "numDeployments": 1,
  "solcInputHash": "5a771bea4833c0e50741ce01d014de75",
  "bytecode": "0x608060405234801561001057600080fd5b506000805460ff19169055614f8a8061002a6000396000f3fe608060405234801561001057600080fd5b50600436106101e55760003560e01c80637ce219aa1161010f578063c1e99bed116100a2578063e16695b511610071578063e16695b51461044e578063e224e8c014610456578063f1be167914610469578063fa6f5bfe146104bd57600080fd5b8063c1e99bed14610415578063d866d35514610428578063dc2079a41461043b578063e0997659146102c157600080fd5b8063a03738dc116100de578063a03738dc146103df578063b7c1d527146103e7578063ba1c5e80146103fa578063baa267571461040257600080fd5b80637ce219aa1461036b5780637f2b6a0d14610390578063870febf01461039857806388e8c716146103d757600080fd5b80633d03b9da116101875780635c975abb116101565780635c975abb1461033d578063692aa97e146103485780636945c1fd146103505780637a5fc22b1461035857600080fd5b80633d03b9da146102c15780634bf62d16146102d65780634eee4495146102f8578063504b89bd1461031b57600080fd5b806317e2d96a116101c357806317e2d96a1461024157806329985e5a1461028e5780632af64bd3146102965780633644ca45146102ae57600080fd5b806304f3bcec146101ea5780630e1b435e1461020f5780631610c7ce14610237575b600080fd5b6101f26104c5565b6040516001600160a01b0390911681526020015b60405180910390f35b61022261021d36600461476e565b6104e6565b60408051928352602083019190915201610206565b61023f610528565b005b61028061024f36600461478b565b60009081527f102c2681ef7c98b80d6ee00bc89c73fe6b29b6cc81206242bfb4c5c32e608d39602052604090205490565b604051908152602001610206565b61023f610560565b61029e61070d565b6040519015158152602001610206565b6102806102bc3660046147b3565b610873565b6102c96109c7565b60405161020691906147e6565b6102e96102e436600461478b565b610a2c565b60405161020693929190614865565b61030b6103063660046148a8565b610ce0565b6040516102069493929190614924565b61032e6103293660046149b5565b610f52565b60405161020693929190614a22565b60005460ff1661029e565b61029e6111b3565b6102806111da565b61022261036636600461476e565b6111ed565b61037e610379366004614a41565b611243565b60405161020696959493929190614a5c565b61029e6113c8565b6102806103a636600461478b565b60009081527f102c2681ef7c98b80d6ee00bc89c73fe6b29b6cc81206242bfb4c5c32e608d3a602052604090205490565b6102806113de565b61023f6113eb565b61023f6103f5366004614a9b565b611418565b6102806115da565b61028061041036600461478b565b611613565b61028061042336600461476e565b6116df565b6102e961043636600461478b565b611715565b61028061044936600461476e565b611980565b610280611a20565b61029e610464366004614ad6565b611a33565b610471611a98565b6040516102069190600060c082019050825182526020830151602083015260408301516040830152606083015160608301526080830151608083015260a083015160a083015292915050565b610280611b3b565b6000600080516020614f158339815191525b546001600160a01b0316919050565b6001600160a01b03166000908152600080516020614ef58339815191526020908152604080832054600080516020614f35833981519152909252909120549091565b61053133611b75565b6105565760405162461bcd60e51b815260040161054d90614b02565b60405180910390fd5b61055e611be5565b565b600061056a6109c7565b905060005b815181101561070957600082828151811061058c5761058c614b39565b6020026020010151905060006105ad600080516020614f1583398151915290565b54604080517f5265736f6c766572206d697373696e67207461726765743a200000000000000060208201526039808201869052825180830390910181526059820192839052636795dbcd60e01b9092526001600160a01b0390921691636795dbcd9161061e91869190605d01614b9c565b60206040518083038186803b15801561063657600080fd5b505afa15801561064a573d6000803e3d6000fd5b505050506040513d601f19601f8201168201806040525081019061066e9190614bb5565b60008381527f4abde63c3e81aefa5764b017968bc473e83e093d7e1a10247d19e0a3e4124019602090815260409182902080546001600160a01b0319166001600160a01b03851690811790915582518681529182015281519293507f88a93678a3692f6789d9546fc621bf7234b101ddb7d4fe479455112831b8aa68929081900390910190a15050808061070190614be8565b91505061056f565b5050565b6000806107186109c7565b905060005b815181101561086a57600082828151811061073a5761073a614b39565b60200260200101519050610759600080516020614f1583398151915290565b600082815260019190910160205260409020546001600160a01b0316600080516020614f15833981519152546040516321f8a72160e01b8152600481018490526001600160a01b03909116906321f8a7219060240160206040518083038186803b1580156107c657600080fd5b505afa1580156107da573d6000803e3d6000fd5b505050506040513d601f19601f820116820180604052508101906107fe9190614bb5565b6001600160a01b0316141580610848575060008181527f4abde63c3e81aefa5764b017968bc473e83e093d7e1a10247d19e0a3e412401960205260409020546001600160a01b0316155b15610857576000935050505090565b508061086281614be8565b91505061071d565b50600191505090565b600061087d6111b3565b6108c05760405162461bcd60e51b815260206004820152601460248201527313585c9ad95d081a5cc81b9bdd081bdc195b995960621b604482015260640161054d565b60008460018111156108d4576108d46149ea565b141561097157610913826108e6611c37565b60060160006108f3611c37565b600301548152602001908152602001600020611c5b90919063ffffffff16565b61092f5760405162461bcd60e51b815260040161054d90614c03565b61096a828461093c611c37565b6006016000610949611c37565b600301548152602001908152602001600020611ca29092919063ffffffff16565b90506109c0565b61098a8261097d611c37565b60050160006108f3611c37565b6109a65760405162461bcd60e51b815260040161054d90614c03565b61096a82846109b3611c37565b6005016000610949611c37565b9392505050565b604080516001808252818301909252606091602080830190803683370190505090507f4c656e64696e674d61726b6574436f6e74726f6c6c657200000000000000000081600081518110610a1d57610a1d614b39565b60200260200101818152505090565b60608060608367ffffffffffffffff811115610a4a57610a4a614c4e565b604051908082528060200260200182016040528015610a73578160200160208202803683370190505b5092508367ffffffffffffffff811115610a8f57610a8f614c4e565b604051908082528060200260200182016040528015610ab8578160200160208202803683370190505b5091508367ffffffffffffffff811115610ad457610ad4614c4e565b604051908082528060200260200182016040528015610afd578160200160208202803683370190505b5090506000610b31610b0d611c37565b6005016000610b1a611c37565b600301548152602001908152602001600020611dfe565b90508084600081518110610b4757610b47614b39565b602002602001018181525050610b8c81610b5f611c37565b6005016000610b6c611c37565b600301548152602001908152602001600020611e4590919063ffffffff16565b83600081518110610b9f57610b9f614b39565b602002602001018181525050610be481610bb7611c37565b6005016000610bc4611c37565b600301548152602001908152602001600020611f8290919063ffffffff16565b82600081518110610bf757610bf7614b39565b602090810291909101015260015b8451811015610cd75781610c1857610cd7565b610c5182610c24611c37565b6005016000610c31611c37565b600301548152602001908152602001600020611f9b90919063ffffffff16565b915081858281518110610c6657610c66614b39565b602002602001018181525050610c7e82610b5f611c37565b848281518110610c9057610c90614b39565b602002602001018181525050610ca882610bb7611c37565b838281518110610cba57610cba614b39565b602090810291909101015280610ccf81614be8565b915050610c05565b50509193909250565b60608060606000610cef61209c565b610cf833611b75565b610d145760405162461bcd60e51b815260040161054d90614b02565b610d1c6111b3565b610d5f5760405162461bcd60e51b815260206004820152601460248201527313585c9ad95d081a5cc81b9bdd081bdc195b995960621b604482015260640161054d565b60008611610daf5760405162461bcd60e51b815260206004820152601860248201527f43616e277420706c61636520656d70747920616d6f756e740000000000000000604482015260640161054d565b60008511610df85760405162461bcd60e51b815260206004820152601660248201527543616e277420706c61636520656d707479207261746560501b604482015260640161054d565b600080896001811115610e0d57610e0d6149ea565b14610e2357610e1e8661097d611c37565b610e2f565b610e2f866108e6611c37565b905080610f2f57604080516001808252818301909252906020808301908036833750506040805160018082528183019092529297509050602080830190803683375050604080516001808252818301909252929650905060208083019080368337019050509250610ea48989898960006120e2565b85600081518110610eb757610eb7614b39565b602002602001019065ffffffffffff16908165ffffffffffff16815250508784600081518110610ee957610ee9614b39565b60200260200101906001600160a01b031690816001600160a01b031681525050600083600081518110610f1e57610f1e614b39565b602002602001018181525050610f46565b610f3b89898989612280565b929750909550935091505b50945094509450949050565b600080600084846000610f6482611243565b509094505050506001600160a01b03821615159050610fb75760405162461bcd60e51b815260206004820152600f60248201526e13dc99195c881b9bdd08199bdd5b99608a1b604482015260640161054d565b806001600160a01b0316836001600160a01b0316146110185760405162461bcd60e51b815260206004820152601760248201527f43616c6c6572206973206e6f7420746865206d616b6572000000000000000000604482015260640161054d565b61102061209c565b61102933611b75565b6110455760405162461bcd60e51b815260040161054d90614b02565b600061104f611c37565b65ffffffffffff891660009081526004919091016020526040908190208151606081019092528054829060ff16600181111561108d5761108d6149ea565b600181111561109e5761109e6149ea565b8152600182015460208201526002909101546040909101529050600080825160018111156110ce576110ce6149ea565b141561111a5761111382602001518a6110e5611c37565b60050160006110f2611c37565b6003015481526020019081526020016000206125e09092919063ffffffff16565b9050611156565b60018251600181111561112f5761112f6149ea565b14156111565761115382602001518a611146611c37565b60060160006110f2611c37565b90505b8151602083015160405133927f2adb11f5af56ae860dd66d4eccd6af97042ba5cd7fa349ac6aad9c65f6a892db92611192928e92918791614c64565b60405180910390a28151602090920151919750955093505050509250925092565b60006111bd6113c8565b1580156111d557506111cd611c37565b600201544210155b905090565b60006111e4611c37565b60010154905090565b6000806111f933611b75565b6112155760405162461bcd60e51b815260040161054d90614b02565b61122a83611221611c37565b60030154611a33565b1561123e5761123883612676565b90925090505b915091565b6000806000806000806000611256611c37565b65ffffffffffff891660009081526004919091016020526040908190208151606081019092528054829060ff166001811115611294576112946149ea565b60018111156112a5576112a56149ea565b81526020016001820154815260200160028201548152505090506112f76040805160c081018252600080825260208201819052918101829052606081018290526080810182905260a081019190915290565b60008251600181111561130c5761130c6149ea565b14156113475761134082602001518a611323611c37565b6040808701516000908152600592909201602052902091906127b9565b9050611378565b61137582602001518a611358611c37565b6040808701516000908152600692909201602052902091906127b9565b90505b60608101516001600160a01b0316156113bc5781600001518260200151836040015183606001518460a00151856080015197509750975097509750975050506113bf565b50505b91939550919395565b60006113d2611c37565b60030154421015905090565b60006111d5610b0d611c37565b6113f433611b75565b6114105760405162461bcd60e51b815260040161054d90614b02565b61055e612870565b60005462010000900460ff161580801561143d5750600054600161010090910460ff16105b8061145d5750303b15801561145d575060005460ff610100909104166001145b6114c05760405162461bcd60e51b815260206004820152602e60248201527f496e697469616c697a61626c653a20636f6e747261637420697320616c72656160448201526d191e481a5b9a5d1a585b1a5e995960921b606482015260840161054d565b6000805461ff00191661010017905580156114e7576000805462ff00001916620100001790555b60006114f16128ad565b6001600160a01b031614156115545760405162461bcd60e51b815260206004820152602360248201527f4d7573742062652063616c6c65642066726f6d20626561636f6e20636f6e74726044820152621858dd60ea1b606482015260840161054d565b61155d856128d5565b83611566611c37565b6001015582611573611c37565b6003015581611580611c37565b6002015561158c610560565b80156115d3576000805462ff000019169055604051600181527f7f26b83ff96e1f2b6a682f133852f6798a09c465da95921460cefb38474024989060200160405180910390a15b5050505050565b6000806115e5611c37565b60030154905061160d6115f6611c37565b60008381526006919091016020526040902061296a565b91505090565b600061161d6113c8565b6116615760405162461bcd60e51b815260206004820152601560248201527413585c9ad95d081a5cc81b9bdd081b585d1d5c9959605a1b604482015260640161054d565b61166a33611b75565b6116865760405162461bcd60e51b815260040161054d90614b02565b61168e611c37565b6003015490508161169d611c37565b6003015560408051838152602081018390527f974eb6a392aa4b5b16a285eae8ee9d9c75309faa295ffa928838efa6b00e438a910160405180910390a1919050565b60008060006116ed846104e6565b91509150806116fa611c37565b60030154141561170b575092915050565b5060009392505050565b60608060608367ffffffffffffffff81111561173357611733614c4e565b60405190808252806020026020018201604052801561175c578160200160208202803683370190505b5092508367ffffffffffffffff81111561177857611778614c4e565b6040519080825280602002602001820160405280156117a1578160200160208202803683370190505b5091508367ffffffffffffffff8111156117bd576117bd614c4e565b6040519080825280602002602001820160405280156117e6578160200160208202803683370190505b509050600061181a6117f6611c37565b6006016000611803611c37565b60030154815260200190815260200160002061296a565b9050808460008151811061183057611830614b39565b60200260200101818152505061185581611848611c37565b6006016000610b6c611c37565b8360008151811061186857611868614b39565b60200260200101818152505061188d81611880611c37565b6006016000610bc4611c37565b826000815181106118a0576118a0614b39565b602090810291909101015260015b8451811015610cd757816118c157610cd7565b6118fa826118cd611c37565b60060160006118da611c37565b6003015481526020019081526020016000206129ac90919063ffffffff16565b91508185828151811061190f5761190f614b39565b60200260200101818152505061192782611848611c37565b84828151811061193957611939614b39565b60200260200101818152505061195182611880611c37565b83828151811061196357611963614b39565b60209081029190910101528061197881614be8565b9150506118ae565b60008061198c836116df565b90506000611998611b3b565b90506000426119a5611c37565b6003015410156119b65760006119cd565b426119bf611c37565b600301546119cd9190614c92565b90506119d98183614ca9565b6119e96301e187e0612710614ca9565b6119f39190614cc8565b611a036301e187e0612710614ca9565b611a0d9085614ce0565b611a179190614d7b565b95945050505050565b6000611a2a611c37565b60030154905090565b6001600160a01b0382166000908152600080516020614f358339815191526020526040812054821415611a6857506000611a92565b506001600160a01b0382166000908152600080516020614ef5833981519152602052604090205415155b92915050565b611ad46040518060c001604052806000801916815260200160008152602001600081526020016000815260200160008152602001600081525090565b6040518060c00160405280611ae7611c37565b600101548152602001611af8611c37565b600301548152602001611b09611c37565b600201548152602001611b1a6115da565b8152602001611b276113de565b8152602001611b34611b3b565b9052919050565b600080611b466115da565b90506000611b526113de565b90506000611b608284614cc8565b9050611b6d600282614da9565b935050505090565b600080611b806109c7565b905060005b815181101561170b57611bb0828281518110611ba357611ba3614b39565b6020026020010151612aa6565b6001600160a01b0316846001600160a01b03161415611bd3575060019392505050565b80611bdd81614be8565b915050611b85565b611bed612b3e565b6000805460ff191690557f5db9ee0a495bf2e6ff9c91a7834c1ba4fdd244a5e8aa4e537bd38aeae4b073aa335b6040516001600160a01b03909116815260200160405180910390a1565b7ffc2836757f9146445fc75bc3c897a210ec004e4ee60fc8627ef5cbf2842b3d0a90565b600081611c6a57506000611a92565b8254821415611c7b57506001611a92565b600082815260018401602052604090205415611c9957506001611a92565b50600092915050565b600082815260018085016020908152604080842060038082015465ffffffffffff61010090910481168752600583018552838720845160c08101865281548084168252600160301b8104841697820197909752600160601b90960490911693850193909352938201546001600160a01b031660608401526002820154608084015292015460a08201525b6003820154815165ffffffffffff908116600160381b9092041614801590611d575750838160a00151105b15611dd65760209081015165ffffffffffff9081166000908152600584018352604090819020815160c08101835281548085168252600160301b8104851695820195909552600160601b9094049092169083015260018101546001600160a01b03166060830152600281015460808301526003015460a0820152611d2c565b838160a0015110611df3575165ffffffffffff1691506109c09050565b6000925050506109c0565b805480611e0d57506000919050565b5b600081815260018084016020526040909120015415611e40576000908152600180830160205260409091200154611e0e565b919050565b600081815260018084016020908152604080842060038082015465ffffffffffff61010090910481168752600583018552838720845160c08101865281548084168252600160301b8104841697820197909752600160601b90960490911693850193909352938201546001600160a01b031660608401526002820154608084015292015460a08201819052611eda9084614cc8565b92505b602081015165ffffffffffff1615611f7a5760209081015165ffffffffffff9081166000908152600584018084526040808320815160c08101835281548087168252600160301b8104871682890152600160601b900486169281019290925260018101546001600160a01b031660608301526002810154608083015260039081015460a08301528601546101009004909316909152909152611edd565b505092915050565b6000908152600191909101602052604090206004015490565b60008161200b5760405162461bcd60e51b815260206004820152603860248201527f4f7264657253746174697374696373547265652834303129202d205374617274604482015277696e672076616c75652063616e6e6f74206265207a65726f60401b606482015260840161054d565b60008281526001840160205260409020600201541561204a576000828152600184016020526040902060020154612043908490612b87565b9050611a92565b5060008181526001830160205260409020545b801580159061207e5750600081815260018401602052604090206002015482145b15611a9257600081815260018401602052604090205490915061205d565b60005460ff161561055e5760405162461bcd60e51b815260206004820152601060248201526f14185d5cd8589b194e881c185d5cd95960821b604482015260640161054d565b60006120ec612bc5565b9050604051806060016040528087600181111561210b5761210b6149ea565b815260200184815260200161211e611c37565b60030154905261212c611c37565b65ffffffffffff831660009081526004919091016020526040902081518154829060ff191660018381811115612164576121646149ea565b0217905550602082015160018201556040909101516002909101556000866001811115612193576121936149ea565b14156121df576121da83828787866121a9611c37565b60050160006121b6611c37565b600301548152602001908152602001600020612c1e9095949392919063ffffffff16565b612216565b60018660018111156121f3576121f36149ea565b1415612216576122168382878786612209611c37565b60060160006121b6611c37565b846001600160a01b03167fac5ffddc4f091e27e9695447257d927b0bc7041974217b366397f4eafdf81da6828861224b611c37565b60010154612257611c37565b60030154898960405161226f96959493929190614dbd565b60405180910390a295945050505050565b606080606060006122bc6040518060600160405280600065ffffffffffff16815260200160006001600160a01b03168152602001600081525090565b60018960018111156122d0576122d06149ea565b14156123225761231186886122e3611c37565b60050160006122f0611c37565b600301548152602001908152602001600020612c9b9092919063ffffffff16565b939850919650945092509050612363565b6000896001811115612336576123366149ea565b1415612363576123568688612349611c37565b60060160006122f0611c37565b9398509196509450925090505b60005b85518165ffffffffffff161015612533576000612381611c37565b6004016000888465ffffffffffff16815181106123a0576123a0614b39565b602002602001015165ffffffffffff1681526020019081526020016000206040518060600160405290816000820160009054906101000a900460ff1660018111156123ed576123ed6149ea565b60018111156123fe576123fe6149ea565b8152600182810154602083015260029092015460409091015290915060009081908d6001811115612431576124316149ea565b141561246357878465ffffffffffff168151811061245157612451614b39565b602002602001015191508b90506124a5565b60008d6001811115612477576124776149ea565b14156124a5578b9150878465ffffffffffff168151811061249a5761249a614b39565b602002602001015190505b60006301e187e0426124b5611c37565b600301546124c39190614c92565b85602001516124d29190614ca9565b6124dc9190614da9565b905060006127106124ed8382614cc8565b6124f7908f614ca9565b6125019190614da9565b905061251a848483612511611c37565b600301546130d7565b505050505050808061252b90614dfc565b915050612366565b50876001600160a01b03167f91b5a5401ce66f92265f2f5af02d151f9f662448ca17c07cddf64d4ac05a1f0d868b8a8a6040516125739493929190614e22565b60405180910390a26040810151156125bf576125bd60018a600181111561259c5761259c6149ea565b146125a85760016125ab565b60005b826020015183604001518960016120e2565b505b8115610f46576125d38989848960006120e2565b5050945094509450949050565b60006125ed848484613433565b61265f5760405162461bcd60e51b815260206004820152603a60248201527f4f7264657253746174697374696373547265652834303829202d2056616c756560448201527f20746f2064656c65746520646f6573206e6f742065786973742e000000000000606482015260840161054d565b61266a84848461345e565b90506109c084846136e9565b6001600160a01b0381166000908152600080516020614ef58339815191526020908152604080832054600080516020614f358339815191529092528220548291908282126127065760008181527f102c2681ef7c98b80d6ee00bc89c73fe6b29b6cc81206242bfb4c5c32e608d396020526040812080548492906126fb908490614c92565b909155506127529050565b61270f82614e44565b60008281527f102c2681ef7c98b80d6ee00bc89c73fe6b29b6cc81206242bfb4c5c32e608d3a60205260408120805490919061274c908490614c92565b90915550505b6001600160a01b0385166000818152600080516020614ef583398151915260209081526040808320839055518581529192917f8b0c34a52f9e28d78caaa7066cd047b398dae74941a208b77777420f492bd7e1910160405180910390a39094909350915050565b6040805160c081018252600080825260208201819052918101829052606081018290526080810182905260a081019190915250600091825260019283016020908152604080842065ffffffffffff9384168552600501825292839020835160c08101855281548085168252600160301b8104851693820193909352600160601b90920490921692810192909252918201546001600160a01b031660608201526002820154608082015260039091015460a082015290565b61287861209c565b6000805460ff191660011790557f62e78cea01bee320cd4e420270b5ea74000d11b0c9f74754ebdbfc544b05a258611c1a3390565b60007fa3f0ad74e5423aebfd80d3ef4346578335a9a72aeaee59ff6cb3582b35133d506104d7565b600080516020614f15833981519152546001600160a01b03161561293b5760405162461bcd60e51b815260206004820152601b60248201527f7265736f6c766572207265676973746572656420616c72656164790000000000604482015260640161054d565b600080516020614f1583398151915280546001600160a01b0319166001600160a01b0392909216919091179055565b80548061297957506000919050565b5b600081815260018301602052604090206002015415611e4057600090815260018201602052604090206002015461297a565b600081612a1c5760405162461bcd60e51b815260206004820152603860248201527f4f7264657253746174697374696373547265652834303229202d205374617274604482015277696e672076616c75652063616e6e6f74206265207a65726f60401b606482015260840161054d565b600082815260018085016020526040909120015415612a5457600082815260018085016020526040909120015461204390849061399f565b5060008181526001830160205260409020545b8015801590612a885750600081815260018085016020526040909120015482145b15611a92576000818152600184016020526040902054909150612a67565b60008181527f4abde63c3e81aefa5764b017968bc473e83e093d7e1a10247d19e0a3e41240196020908152604080832054815170026b4b9b9b4b7339030b2323932b9b99d1607d1b9381019390935260318084018690528251808503909101815260519093019091526001600160a01b03169081612b375760405162461bcd60e51b815260040161054d9190614e61565b5092915050565b60005460ff1661055e5760405162461bcd60e51b815260206004820152601460248201527314185d5cd8589b194e881b9bdd081c185d5cd95960621b604482015260640161054d565b60005b600082815260018085016020526040909120015415612bbf576000918252600180840160205260409092209091015490612b8a565b50919050565b6000612bcf611c37565b805465ffffffffffff16906000612be583614dfc565b91906101000a81548165ffffffffffff021916908365ffffffffffff16021790555050612c10611c37565b5465ffffffffffff16919050565b60008211612c645760405162461bcd60e51b8152602060048201526013602482015272125b9cdd59999a58da595b9d08185b5bdd5b9d606a1b604482015260640161054d565b612c6e86866139d6565b8015612c8657612c818686868686613b2f565b612c93565b612c938686868686613ba8565b505050505050565b60608060606000612cd76040518060600160405280600065ffffffffffff16815260200160006001600160a01b03168152602001600081525090565b60008781526001890160205260409020600481015487935067ffffffffffffffff811115612d0757612d07614c4e565b604051908082528060200260200182016040528015612d30578160200160208202803683370190505b509550806004015467ffffffffffffffff811115612d5057612d50614c4e565b604051908082528060200260200182016040528015612d79578160200160208202803683370190505b509450806004015467ffffffffffffffff811115612d9957612d99614c4e565b604051908082528060200260200182016040528015612dc2578160200160208202803683370190505b5060038083015465ffffffffffff610100909104811660008181526005860160209081526040808320815160c08101835281548088168252600160301b8104881694820194909452600160601b9093049095169082015260018401546001600160a01b0316606082015260028401546080820152929093015460a083015292965090915b836004015483108015612e5857508515155b156130425765ffffffffffff8082166000908152600586016020908152604091829020825160c08101845281548086168252600160301b8104861693820193909352600160601b9092049093169181019190915260018201546001600160a01b031660608201526002820154608082015260039091015460a082018190529092508610612f1f5760a0820151612eee9087614c92565b9550816020015190508160a00151878481518110612f0e57612f0e614b39565b602002602001018181525050612f88565b6040518060600160405280836000015165ffffffffffff16815260200183606001516001600160a01b03168152602001878460a00151612f5f9190614c92565b815250945085878481518110612f7757612f77614b39565b602002602001018181525050600095505b8160000151898481518110612f9f57612f9f614b39565b602002602001019065ffffffffffff16908165ffffffffffff16815250508160600151888481518110612fd457612fd4614b39565b6001600160a01b03909216602092830291909101820152825165ffffffffffff166000908152600586019091526040812080546001600160901b03191681556001810180546001600160a01b031916905560028101829055600301558261303a81614be8565b935050612e46565b815165ffffffffffff166130745761305c8c8c6000613c19565b6130688c8c6000613c51565b600060048501556130be565b6130838c8c8460000151613c19565b6000604083018190526004850180548592906130a0908490614c92565b9091555050600484015489518190038a528851819003895287510387525b6130c88c8c6136e9565b50505050939792965093509350565b60006001600160a01b0385166131395760405162461bcd60e51b815260206004820152602160248201527f61646420746f20746865207a65726f2061646472657373206f66206c656e64656044820152603960f91b606482015260840161054d565b6001600160a01b03841661319b5760405162461bcd60e51b815260206004820152602360248201527f61646420746f20746865207a65726f2061646472657373206f6620626f72726f6044820152623bb2b960e91b606482015260840161054d565b6131a58583611a33565b156132075760405162461bcd60e51b815260206004820152602c60248201527f6c656e6465722068617320746865206675747572652076616c756520696e207060448201526b617374206d6174757269747960a01b606482015260840161054d565b6132118483611a33565b156132755760405162461bcd60e51b815260206004820152602e60248201527f626f72726f7765722068617320746865206675747572652076616c756520696e60448201526d2070617374206d6174757269747960901b606482015260840161054d565b6001600160a01b038581166000908152600080516020614f358339815191526020908152604080832086905592871682528282208590558482527f102c2681ef7c98b80d6ee00bc89c73fe6b29b6cc81206242bfb4c5c32e608d39905290812080548592906132e5908490614cc8565b909155505060008281527f102c2681ef7c98b80d6ee00bc89c73fe6b29b6cc81206242bfb4c5c32e608d3a602052604081208054859290613327908490614cc8565b90915550506001600160a01b0385166000908152600080516020614ef5833981519152602052604081208054859290613361908490614e74565b90915550506001600160a01b0384166000908152600080516020614ef583398151915260205260408120805485929061339b908490614eb5565b90915550506040518381526001600160a01b038616906000907f8b0c34a52f9e28d78caaa7066cd047b398dae74941a208b77777420f492bd7e19060200160405180910390a36001600160a01b03841660007f8b0c34a52f9e28d78caaa7066cd047b398dae74941a208b77777420f492bd7e161341786614e44565b60405190815260200160405180910390a3506001949350505050565b600061343f8484611c5b565b61344b575060006109c0565b613456848484613c91565b949350505050565b600061346a8484611c5b565b6134cf5760405162461bcd60e51b815260206004820152603060248201527f4f7264657253746174697374696373547265652834303329202d2056616c756560448201526f103237b2b9903737ba1032bc34b9ba1760811b606482015260840161054d565b50600082815260018085016020908152604080842065ffffffffffff80871680875260058301855295839020835160c08101855281548084168252600160301b8104841696820196909652600160601b909504821693850193909352938201546001600160a01b031660608401526002820154608084015260039182015460a0840181905291810154919490936101009092049091161480156135875750600382015465ffffffffffff858116600160381b90920416145b156135a95761359886866000613c19565b6135a486866000613c51565b61367b565b600382015465ffffffffffff858116610100909204161415613607576135d486868360200151613c19565b60208082015165ffffffffffff1660009081526005840190915260409020805465ffffffffffff60601b1916905561367b565b600382015465ffffffffffff858116600160381b9092041614156136675761363486868360400151613c51565b60408082015165ffffffffffff166000908152600584016020522080546bffffffffffff0000000000001916905561367b565b61367b868683604001518460200151613d32565b805165ffffffffffff166000908152600583016020526040812080546001600160901b0319168155600180820180546001600160a01b0319169055600282018390556003909101829055600484018054919290916136da908490614c92565b90915550929695505050505050565b8061375c5760405162461bcd60e51b815260206004820152603960248201527f4f7264657253746174697374696373547265652834303729202d2056616c756560448201527f20746f2064656c6574652063616e6e6f74206265207a65726f00000000000000606482015260840161054d565b60008181526001830160205260408120600481015490919081906115d357600084815260018087016020526040909120015415806137ab57506000848152600186016020526040902060020154155b156137b75750826137ff565b5060008381526001850160205260409020600201545b6000818152600180870160205260409091200154156137ff5760009081526001808601602052604090912001546137cd565b600081815260018087016020526040909120015415613833576000818152600180870160205260409091200154915061384a565b600081815260018601602052604090206002015491505b600081815260018601602052604080822054848352912081905580156138bb5760008181526001808801602052604090912001548214156138a057600081815260018088016020526040909120018390556138bf565b600081815260018701602052604090206002018390556138bf565b8286555b600082815260018701602052604090206003015460ff1615858314613949576138e9878488613da7565b60008681526001888101602052604080832080830154878552828520938401819055845281842087905560028082015490840181905584529083208690556003908101549286905201805460ff191660ff90921615159190911790559194915b8015613959576139598785613e21565b50506000818152600180870160205260408220828155908101829055600281018290556003810180546cffffffffffffffffffffffffff19169055600401555050505050565b60005b600082815260018401602052604090206002015415612bbf57600091825260018301602052604090912060020154906139a2565b80613a495760405162461bcd60e51b815260206004820152603960248201527f4f7264657253746174697374696373547265652834303529202d2056616c756560448201527f20746f20696e736572742063616e6e6f74206265207a65726f00000000000000606482015260840161054d565b81546000905b8015613aad5780915080831015613a79576000908152600180850160205260409091200154613a4f565b80831115613a9a576000908152600184016020526040902060020154613a4f565b80831415613aa85750505050565b613a4f565b6000838152600180860160205260408220848155808201839055600281019290925560038201805460ff1916909117905582613aeb57838555613b25565b82841015613b0e5760008381526001808701602052604090912001849055613b25565b600083815260018601602052604090206002018490555b6115d3858561423b565b6000848152600186016020526040812090613b4d87878787876144a6565b9050613b718787838560030160019054906101000a900465ffffffffffff16613d32565b613b7c878783613c19565b6003820154600160381b900465ffffffffffff16613b9f57613b9f878783613c51565b50505050505050565b600084815260018601602052604090206003810154610100900465ffffffffffff16613bdb57612c818686868686613b2f565b6000613bea87878787876144a6565b9050613c0e87878460030160079054906101000a900465ffffffffffff1684613d32565b613b9f878783613c51565b6000918252600190920160205260409020600301805465ffffffffffff9092166101000266ffffffffffff0019909216919091179055565b6000918252600190920160205260409020600301805465ffffffffffff909216600160381b026cffffffffffff0000000000000019909216919091179055565b600082815260018085016020908152604080842065ffffffffffff808716808752600583018552838720845160c0810186528154808516808352600160301b8204861698830198909852600160601b900490931694830194909452948301546001600160a01b031660608201526002830154608082015260039092015460a083015292909114613d26576000925050506109c0565b50600195945050505050565b60009283526001939093016020908152604080842065ffffffffffff938416808652600590910190925280842080546bffffffffffff0000000000001916600160301b9490961693840295909517909455908252919020805465ffffffffffff60601b1916600160601b909202919091179055565b600081815260018401602052604080822054848352912081905580613dce57828455613e1b565b6000818152600180860160205260409091200154821415613e045760008181526001808601602052604090912001839055613e1b565b600081815260018501602052604090206002018390555b50505050565b60005b82548214801590613e495750600082815260018401602052604090206003015460ff16155b1561421c5760008281526001808501602052604080832054808452922001548314156140455760008181526001850160205260408082206002015480835291206003015490925060ff1615613eed576000828152600180860160205260408083206003908101805460ff19908116909155858552919093209092018054909216179055613ed684826145a9565b600081815260018501602052604090206002015491505b60008281526001808601602052604080832090910154825290206003015460ff16158015613f385750600082815260018501602052604080822060020154825290206003015460ff16155b15613f6557600082815260018581016020526040909120600301805460ff19169091179055915081614216565b600082815260018501602052604080822060020154825290206003015460ff16613fe2576000828152600180860160205260408083208083015484529083206003908101805460ff1990811690915593869052018054909216179055613fcb8483614681565b600081815260018501602052604090206002015491505b600081815260018501602052604080822060039081018054868552838520808401805460ff909316151560ff19938416179055825482169092556002909101548452919092209091018054909116905561403c84826145a9565b83549250614216565b6000818152600180860160205260408083209091015480835291206003015490925060ff16156140c4576000828152600180860160205260408083206003908101805460ff199081169091558585529190932090920180549092161790556140ad8482614681565b600081815260018086016020526040909120015491505b600082815260018501602052604080822060020154825290206003015460ff1615801561410f575060008281526001808601602052604080832090910154825290206003015460ff16155b1561413c57600082815260018581016020526040909120600301805460ff19169091179055915081614216565b60008281526001808601602052604080832090910154825290206003015460ff166141bb57600082815260018086016020526040808320600281015484529083206003908101805460ff19908116909155938690520180549092161790556141a484836145a9565b600081815260018086016020526040909120015491505b60008181526001808601602052604080832060039081018054878652838620808401805460ff909316151560ff199384161790558254821690925593015484529220909101805490911690556142118482614681565b835492505b50613e24565b506000908152600190910160205260409020600301805460ff19169055565b60005b825482148015906142685750600082815260018401602052604080822054825290206003015460ff165b1561448457600082815260018085016020526040808320548084528184205484529220015481141561438b5760008181526001850160205260408082205482528082206002015480835291206003015490925060ff1615614311576000818152600180860160205260408083206003808201805460ff1990811690915587865283862082018054821690558254865292852001805490921690921790559082905254925061447e565b60008181526001850160205260409020600201548314156143395780925061433984846145a9565b50600082815260018085016020526040808320548084528184206003808201805460ff19908116909155825487529386200180549093169093179091559182905254614386908590614681565b61447e565b6000818152600180860160205260408083205483528083209091015480835291206003015490925060ff1615614409576000818152600180860160205260408083206003808201805460ff1990811690915587865283862082018054821690558254865292852001805490921690921790559082905254925061447e565b6000818152600180860160205260409091200154831415614431578092506144318484614681565b50600082815260018085016020526040808320548084528184206003808201805460ff1990811690915582548752938620018054909316909317909155918290525461447e9085906145a9565b5061423e565b505080546000908152600190910160205260409020600301805460ff19169055565b600084815260018087016020526040822060048101805491929184906144cd908490614cc8565b90915550506040805160c08101825265ffffffffffff808816808352600060208085018281528587018381526001600160a01b03808d16606089019081524260808a0190815260a08a018e81529787526005909b019094529790932095518654915193518616600160601b0265ffffffffffff60601b19948716600160301b026bffffffffffffffffffffffff199093169682169690961791909117929092169390931784559151600184018054919095166001600160a01b031990911617909355925160028201559051600390910155905095945050505050565b6000818152600180840160205260408083206002810180549154828652928520909301549385905291839055909180156145f157600081815260018601602052604090208490555b60008381526001860160205260409020829055816146115782855561465e565b6000828152600180870160205260409091200154841415614647576000828152600180870160205260409091200183905561465e565b600082815260018601602052604090206002018390555b505060008181526001938401602052604080822090940183905591825291902055565b600081815260018084016020526040808320918201805492548385529184206002015493859052839055909180156146c757600081815260018601602052604090208490555b60008381526001860160205260409020829055816146e757828555614734565b600082815260018601602052604090206002015484141561471d5760008281526001860160205260409020600201839055614734565b600082815260018087016020526040909120018390555b5050600081815260019093016020526040808420600201839055918352912055565b6001600160a01b038116811461476b57600080fd5b50565b60006020828403121561478057600080fd5b81356109c081614756565b60006020828403121561479d57600080fd5b5035919050565b803560028110611e4057600080fd5b6000806000606084860312156147c857600080fd5b6147d1846147a4565b95602085013595506040909401359392505050565b6020808252825182820181905260009190848201906040850190845b8181101561481e57835183529284019291840191600101614802565b50909695505050505050565b600081518084526020808501945080840160005b8381101561485a5781518752958201959082019060010161483e565b509495945050505050565b606081526000614878606083018661482a565b828103602084015261488a818661482a565b9050828103604084015261489e818561482a565b9695505050505050565b600080600080608085870312156148be57600080fd5b6148c7856147a4565b935060208501356148d781614756565b93969395505050506040820135916060013590565b600081518084526020808501945080840160005b8381101561485a57815165ffffffffffff1687529582019590820190600101614900565b60808152600061493760808301876148ec565b82810360208481019190915286518083528782019282019060005b818110156149775784516001600160a01b031683529383019391830191600101614952565b5050848103604086015261498b818861482a565b935050505082606083015295945050505050565b803565ffffffffffff81168114611e4057600080fd5b600080604083850312156149c857600080fd5b82356149d381614756565b91506149e16020840161499f565b90509250929050565b634e487b7160e01b600052602160045260246000fd5b60028110614a1e57634e487b7160e01b600052602160045260246000fd5b9052565b60608101614a308286614a00565b602082019390935260400152919050565b600060208284031215614a5357600080fd5b6109c08261499f565b60c08101614a6a8289614a00565b602082019690965260408101949094526001600160a01b03929092166060840152608083015260a090910152919050565b60008060008060808587031215614ab157600080fd5b8435614abc81614756565b966020860135965060408601359560600135945092505050565b60008060408385031215614ae957600080fd5b8235614af481614756565b946020939093013593505050565b60208082526017908201527f4f6e6c7920416363657074656420436f6e747261637473000000000000000000604082015260600190565b634e487b7160e01b600052603260045260246000fd5b6000815180845260005b81811015614b7557602081850181015186830182015201614b59565b81811115614b87576000602083870101525b50601f01601f19169290920160200192915050565b8281526040602082015260006134566040830184614b4f565b600060208284031215614bc757600080fd5b81516109c081614756565b634e487b7160e01b600052601160045260246000fd5b6000600019821415614bfc57614bfc614bd2565b5060010190565b6020808252602b908201527f4e6f206f72646572732065786973747320666f722073656c656374656420696e60408201526a746572657374207261746560a81b606082015260800190565b634e487b7160e01b600052604160045260246000fd5b65ffffffffffff8516815260808101614c806020830186614a00565b60408201939093526060015292915050565b600082821015614ca457614ca4614bd2565b500390565b6000816000190483118215151615614cc357614cc3614bd2565b500290565b60008219821115614cdb57614cdb614bd2565b500190565b60006001600160ff1b0381841382841380821686840486111615614d0657614d06614bd2565b600160ff1b6000871282811687830589121615614d2557614d25614bd2565b60008712925087820587128484161615614d4157614d41614bd2565b87850587128184161615614d5757614d57614bd2565b505050929093029392505050565b634e487b7160e01b600052601260045260246000fd5b600082614d8a57614d8a614d65565b600160ff1b821460001984141615614da457614da4614bd2565b500590565b600082614db857614db8614d65565b500490565b65ffffffffffff8716815260c08101614dd96020830188614a00565b8560408301528460608301528360808301528260a0830152979650505050505050565b600065ffffffffffff80831681811415614e1857614e18614bd2565b6001019392505050565b608081526000614e3560808301876148ec565b9050614c806020830186614a00565b6000600160ff1b821415614e5a57614e5a614bd2565b5060000390565b6020815260006109c06020830184614b4f565b600080821280156001600160ff1b0384900385131615614e9657614e96614bd2565b600160ff1b8390038412811615614eaf57614eaf614bd2565b50500190565b60008083128015600160ff1b850184121615614ed357614ed3614bd2565b6001600160ff1b0384018313811615614eee57614eee614bd2565b5050039056fe102c2681ef7c98b80d6ee00bc89c73fe6b29b6cc81206242bfb4c5c32e608d374abde63c3e81aefa5764b017968bc473e83e093d7e1a10247d19e0a3e4124018102c2681ef7c98b80d6ee00bc89c73fe6b29b6cc81206242bfb4c5c32e608d38a26469706673582212207c0c1c0f3ff566c36695445e1c3f4c442b9217740fb541dffa1da61f67d7445164736f6c63430008090033",
  "devdoc": {
    "details": "The market orders is stored in structured red-black trees and doubly linked lists in each node.",
    "kind": "dev",
    "methods": {
      "acceptedContracts()": {
        "details": "The contact name listed in this method is also needed to be listed `requiredContracts` method."
      },
      "cancelOrder(address,uint48)": {
        "params": {
          "_orderId": "Market order id",
          "_user": "User address"
        }
      },
      "createOrder(uint8,address,uint256,uint256)": {
        "params": {
          "_amount": "Amount of funds the maker wants to borrow/lend",
          "_rate": "Amount of interest rate taker wish to borrow/lend",
          "_side": "Order position type, Borrow or Lend",
          "_user": "User's address"
        },
        "returns": {
          "amounts": "Array of amounts of filled orders",
          "makers": "Array of makers of filled orders",
          "orderIds": "Array of order ids of filled orders",
          "remainingAmount": "Amount of the order that is not filled and is placed"
        }
      },
      "futureValueOf(address)": {
        "params": {
          "_user": "User address"
        },
        "returns": {
          "_0": "The future value in latest maturity"
        }
      },
      "getBorrowOrderBook(uint256)": {
        "params": {
          "_limit": "Max limit to get rates"
        },
        "returns": {
          "rates": "The array of borrow rates"
        }
      },
      "getBorrowRate()": {
        "returns": {
          "rate": "The highest borrow rate"
        }
      },
      "getCurrency()": {
        "returns": {
          "currency": "The market currency"
        }
      },
      "getLendOrderBook(uint256)": {
        "params": {
          "_limit": "Max limit to get rates"
        },
        "returns": {
          "rates": "The array of lending rates"
        }
      },
      "getLendRate()": {
        "returns": {
          "rate": "The lowest lend rate"
        }
      },
      "getMarket()": {
        "returns": {
          "market": "The market data"
        }
      },
      "getMaturity()": {
        "returns": {
          "maturity": "The market maturity"
        }
      },
      "getMidRate()": {
        "returns": {
          "rate": "The mid rate"
        }
      },
      "getOrder(uint48)": {
        "params": {
          "_orderId": "The market order id"
        },
        "returns": {
          "amount": "Order amount",
          "maker": "The order maker",
          "maturity": "The maturity of the selected order",
          "rate": "Amount of interest rate",
          "side": "Order position type, Borrow or Lend",
          "timestamp": "Timestamp when the order was created"
        }
      },
      "initialize(address,bytes32,uint256,uint256)": {
        "details": "Function is invoked by the proxy contract when the contract is added to the ProxyController.",
        "params": {
          "_basisDate": "The basis date when the first market open",
          "_ccy": "The main currency for the order book",
          "_maturity": "The initial maturity of the market",
          "_resolver": "The address of the Address Resolver contract"
        }
      },
      "isMatured()": {
        "returns": {
          "_0": "The boolean if the market is matured or not"
        }
      },
      "isOpened()": {
        "returns": {
          "_0": "The boolean if the market is opened or not"
        }
      },
      "matchOrders(uint8,uint256,uint256)": {
        "params": {
          "_amount": "Amount of funds the maker wants to borrow/lend",
          "_rate": "Amount of interest rate taker wish to borrow/lend",
          "_side": "Order position type, Borrow or Lend"
        }
      },
      "openMarket(uint256)": {
        "params": {
          "_maturity": "The new maturity"
        }
      },
      "paused()": {
        "details": "Returns true if the contract is paused, and false otherwise."
      },
      "presentValueOf(address)": {
        "params": {
          "_user": "User address"
        },
        "returns": {
          "_0": "The present value"
        }
      },
      "removeFutureValueInPastMaturity(address)": {
        "params": {
          "_user": "User's address"
        },
        "returns": {
          "maturity": "Maturity of future value",
          "removedAmount": "Removed future value amount"
        }
      },
      "requiredContracts()": {
        "details": "The contract name list is in `./libraries/Contracts.sol`."
      }
    },
    "version": 1
  },
  "userdoc": {
    "kind": "user",
    "methods": {
      "acceptedContracts()": {
        "notice": "Returns contract names that can call this contract."
      },
      "cancelOrder(address,uint48)": {
        "notice": "Cancels the order."
      },
      "createOrder(uint8,address,uint256,uint256)": {
        "notice": "Creates the order. Takes the order if the order is matched, and places new order if not match it."
      },
      "futureValueOf(address)": {
        "notice": "Gets the future value in the latest maturity the user has. If the market is rotated, the maturity in the market is updated, so the existing future value is addressed as an old future value in old maturity. This method doesn't return those old future values."
      },
      "getBorrowOrderBook(uint256)": {
        "notice": "Gets the order book of borrow."
      },
      "getBorrowRate()": {
        "notice": "Gets the highest borrow rate."
      },
      "getCurrency()": {
        "notice": "Gets the market currency."
      },
      "getLendOrderBook(uint256)": {
        "notice": "Gets the order book of lend."
      },
      "getLendRate()": {
        "notice": "Gets the lowest lend rate."
      },
      "getMarket()": {
        "notice": "Gets the market data."
      },
      "getMaturity()": {
        "notice": "Gets the current market maturity."
      },
      "getMidRate()": {
        "notice": "Gets the mid rate."
      },
      "getOrder(uint48)": {
        "notice": "Gets the market order from the order book."
      },
      "initialize(address,bytes32,uint256,uint256)": {
        "notice": "Initializes the contract."
      },
      "isMatured()": {
        "notice": "Gets if the market is matured."
      },
      "isOpened()": {
        "notice": "Gets if the market is opened."
      },
      "matchOrders(uint8,uint256,uint256)": {
        "notice": "Gets if the market order will be matched or not. Returns zero if there is not a matched order. Reverts if no orders for specified interest rate."
      },
      "openMarket(uint256)": {
        "notice": "Opens market"
      },
      "pauseMarket()": {
        "notice": "Pauses the lending market."
      },
      "presentValueOf(address)": {
        "notice": "Gets the present value calculated from the future value & market rate."
      },
      "removeFutureValueInPastMaturity(address)": {
        "notice": "Remove all future values if there is an amount in the past maturity."
      },
      "requiredContracts()": {
        "notice": "Returns the contract names used in this contract."
      },
      "unpauseMarket()": {
        "notice": "Unpauses the lending market."
      }
    },
    "notice": "Implements the module that allows lending market participants to create/cancel market orders, and also provides a future value calculation module. For updates, this contract is basically called from `LendingMarketController.sol`instead of being called \\ directly by the user.",
    "version": 1
  },
  "storageLayout": {
    "storage": [
      {
        "astId": 952,
        "contract": "contracts/LendingMarket.sol:LendingMarket",
        "label": "_paused",
        "offset": 0,
        "slot": "0",
        "type": "t_bool"
      },
      {
        "astId": 790,
        "contract": "contracts/LendingMarket.sol:LendingMarket",
        "label": "_initialized",
        "offset": 1,
        "slot": "0",
        "type": "t_uint8"
      },
      {
        "astId": 793,
        "contract": "contracts/LendingMarket.sol:LendingMarket",
        "label": "_initializing",
        "offset": 2,
        "slot": "0",
        "type": "t_bool"
      }
    ],
    "types": {
      "t_bool": {
        "encoding": "inplace",
        "label": "bool",
        "numberOfBytes": "1"
      },
      "t_uint8": {
        "encoding": "inplace",
        "label": "uint8",
        "numberOfBytes": "1"
      }
    }
  }
}