{
  "address": "0x1dF5DE4E339cBCCa27B8F620ec7c729aD27c963E",
  "abi": [
    {
      "anonymous": false,
      "inputs": [
        {
          "indexed": false,
          "internalType": "uint256",
          "name": "previousRate",
          "type": "uint256"
        },
        {
          "indexed": false,
          "internalType": "uint256",
          "name": "rate",
          "type": "uint256"
        }
      ],
      "name": "AutoRollFeeRateUpdated",
      "type": "event"
    },
    {
      "anonymous": false,
      "inputs": [
        {
          "indexed": false,
          "internalType": "bytes32",
          "name": "name",
          "type": "bytes32"
        },
        {
          "indexed": false,
          "internalType": "address",
          "name": "destination",
          "type": "address"
        }
      ],
      "name": "CacheUpdated",
      "type": "event"
    },
    {
      "anonymous": false,
      "inputs": [
        {
          "indexed": false,
          "internalType": "uint8",
          "name": "version",
          "type": "uint8"
        }
      ],
      "name": "Initialized",
      "type": "event"
    },
    {
      "anonymous": false,
      "inputs": [
        {
          "indexed": true,
          "internalType": "bytes32",
          "name": "ccy",
          "type": "bytes32"
        },
        {
          "indexed": true,
          "internalType": "address",
          "name": "marketAddr",
          "type": "address"
        },
        {
          "indexed": false,
          "internalType": "address",
          "name": "futureValueVault",
          "type": "address"
        },
        {
          "indexed": false,
          "internalType": "uint256",
          "name": "index",
          "type": "uint256"
        },
        {
          "indexed": false,
          "internalType": "uint256",
          "name": "maturity",
          "type": "uint256"
        }
      ],
      "name": "LendingMarketCreated",
      "type": "event"
    },
    {
      "anonymous": false,
      "inputs": [
        {
          "indexed": false,
          "internalType": "bytes32",
          "name": "ccy",
          "type": "bytes32"
        },
        {
          "indexed": false,
          "internalType": "uint256",
          "name": "oldMaturity",
          "type": "uint256"
        },
        {
          "indexed": false,
          "internalType": "uint256",
          "name": "newMaturity",
          "type": "uint256"
        }
      ],
      "name": "LendingMarketsRotated",
      "type": "event"
    },
    {
      "anonymous": false,
      "inputs": [
        {
          "indexed": true,
          "internalType": "address",
          "name": "user",
          "type": "address"
        },
        {
          "indexed": false,
          "internalType": "bytes32",
          "name": "collateralCcy",
          "type": "bytes32"
        },
        {
          "indexed": true,
          "internalType": "bytes32",
          "name": "debtCcy",
          "type": "bytes32"
        },
        {
          "indexed": true,
          "internalType": "uint256",
          "name": "debtMaturity",
          "type": "uint256"
        },
        {
          "indexed": false,
          "internalType": "uint256",
          "name": "amount",
          "type": "uint256"
        }
      ],
      "name": "LiquidationExecuted",
      "type": "event"
    },
    {
      "anonymous": false,
      "inputs": [
        {
          "indexed": false,
          "internalType": "uint48",
          "name": "orderId",
          "type": "uint48"
        },
        {
          "indexed": true,
          "internalType": "address",
          "name": "maker",
          "type": "address"
        },
        {
          "indexed": true,
          "internalType": "bytes32",
          "name": "ccy",
          "type": "bytes32"
        },
        {
          "indexed": false,
          "internalType": "enum ProtocolTypes.Side",
          "name": "side",
          "type": "uint8"
        },
        {
          "indexed": false,
          "internalType": "uint256",
          "name": "maturity",
          "type": "uint256"
        },
        {
          "indexed": false,
          "internalType": "uint256",
          "name": "amount",
          "type": "uint256"
        },
        {
          "indexed": false,
          "internalType": "uint256",
          "name": "unitPrice",
          "type": "uint256"
        }
      ],
      "name": "OrderCanceled",
      "type": "event"
    },
    {
      "anonymous": false,
      "inputs": [
        {
          "indexed": false,
          "internalType": "uint256",
          "name": "previousRate",
          "type": "uint256"
        },
        {
          "indexed": false,
          "internalType": "uint256",
          "name": "rate",
          "type": "uint256"
        }
      ],
      "name": "OrderFeeRateUpdated",
      "type": "event"
    },
    {
      "anonymous": false,
      "inputs": [
        {
          "indexed": true,
          "internalType": "address",
          "name": "taker",
          "type": "address"
        },
        {
          "indexed": true,
          "internalType": "bytes32",
          "name": "ccy",
          "type": "bytes32"
        },
        {
          "indexed": false,
          "internalType": "enum ProtocolTypes.Side",
          "name": "side",
          "type": "uint8"
        },
        {
          "indexed": true,
          "internalType": "uint256",
          "name": "maturity",
          "type": "uint256"
        },
        {
          "indexed": false,
          "internalType": "uint256",
          "name": "amount",
          "type": "uint256"
        },
        {
          "indexed": false,
          "internalType": "uint256",
          "name": "unitPrice",
          "type": "uint256"
        },
        {
          "indexed": false,
          "internalType": "uint256",
          "name": "filledFutureValue",
          "type": "uint256"
        }
      ],
      "name": "OrderFilled",
      "type": "event"
    },
    {
      "anonymous": false,
      "inputs": [
        {
          "indexed": true,
          "internalType": "address",
          "name": "taker",
          "type": "address"
        },
        {
          "indexed": true,
          "internalType": "bytes32",
          "name": "ccy",
          "type": "bytes32"
        },
        {
          "indexed": false,
          "internalType": "enum ProtocolTypes.Side",
          "name": "side",
          "type": "uint8"
        },
        {
          "indexed": true,
          "internalType": "uint256",
          "name": "maturity",
          "type": "uint256"
        },
        {
          "indexed": false,
          "internalType": "uint256",
          "name": "filledFutureValue",
          "type": "uint256"
        }
      ],
      "name": "OrdersFilledInAsync",
      "type": "event"
    },
    {
      "anonymous": false,
      "inputs": [
        {
          "indexed": true,
          "internalType": "address",
          "name": "previousOwner",
          "type": "address"
        },
        {
          "indexed": true,
          "internalType": "address",
          "name": "newOwner",
          "type": "address"
        }
      ],
      "name": "OwnershipTransferred",
      "type": "event"
    },
    {
      "inputs": [],
      "name": "acceptedContracts",
      "outputs": [
        {
          "internalType": "bytes32[]",
          "name": "contracts",
          "type": "bytes32[]"
        }
      ],
      "stateMutability": "pure",
      "type": "function"
    },
    {
      "inputs": [],
      "name": "buildCache",
      "outputs": [],
      "stateMutability": "nonpayable",
      "type": "function"
    },
    {
      "inputs": [
        {
          "internalType": "bytes32",
          "name": "_ccy",
          "type": "bytes32"
        },
        {
          "internalType": "address",
          "name": "_user",
          "type": "address"
        }
      ],
      "name": "calculateFunds",
      "outputs": [
        {
          "internalType": "uint256",
          "name": "workingLendOrdersAmount",
          "type": "uint256"
        },
        {
          "internalType": "uint256",
          "name": "claimableAmount",
          "type": "uint256"
        },
        {
          "internalType": "uint256",
          "name": "collateralAmount",
          "type": "uint256"
        },
        {
          "internalType": "uint256",
          "name": "lentAmount",
          "type": "uint256"
        },
        {
          "internalType": "uint256",
          "name": "workingBorrowOrdersAmount",
          "type": "uint256"
        },
        {
          "internalType": "uint256",
          "name": "debtAmount",
          "type": "uint256"
        },
        {
          "internalType": "uint256",
          "name": "borrowedAmount",
          "type": "uint256"
        }
      ],
      "stateMutability": "view",
      "type": "function"
    },
    {
      "inputs": [
        {
          "internalType": "address",
          "name": "_user",
          "type": "address"
        },
        {
          "internalType": "bytes32",
          "name": "_depositCcy",
          "type": "bytes32"
        },
        {
          "internalType": "uint256",
          "name": "_depositAmount",
          "type": "uint256"
        }
      ],
      "name": "calculateTotalFundsInETH",
      "outputs": [
        {
          "internalType": "uint256",
          "name": "totalWorkingLendOrdersAmount",
          "type": "uint256"
        },
        {
          "internalType": "uint256",
          "name": "totalClaimableAmount",
          "type": "uint256"
        },
        {
          "internalType": "uint256",
          "name": "totalCollateralAmount",
          "type": "uint256"
        },
        {
          "internalType": "uint256",
          "name": "totalLentAmount",
          "type": "uint256"
        },
        {
          "internalType": "uint256",
          "name": "totalWorkingBorrowOrdersAmount",
          "type": "uint256"
        },
        {
          "internalType": "uint256",
          "name": "totalDebtAmount",
          "type": "uint256"
        },
        {
          "internalType": "uint256",
          "name": "totalBorrowedAmount",
          "type": "uint256"
        },
        {
          "internalType": "bool",
          "name": "isEnoughDeposit",
          "type": "bool"
        }
      ],
      "stateMutability": "view",
      "type": "function"
    },
    {
      "inputs": [
        {
          "internalType": "bytes32",
          "name": "_ccy",
          "type": "bytes32"
        },
        {
          "internalType": "uint256",
          "name": "_maturity",
          "type": "uint256"
        },
        {
          "internalType": "uint48",
          "name": "_orderId",
          "type": "uint48"
        }
      ],
      "name": "cancelOrder",
      "outputs": [
        {
          "internalType": "bool",
          "name": "",
          "type": "bool"
        }
      ],
      "stateMutability": "nonpayable",
      "type": "function"
    },
    {
      "inputs": [
        {
          "internalType": "address",
          "name": "_user",
          "type": "address"
        }
      ],
      "name": "cleanAllOrders",
      "outputs": [],
      "stateMutability": "nonpayable",
      "type": "function"
    },
    {
      "inputs": [
        {
          "internalType": "bytes32",
          "name": "_ccy",
          "type": "bytes32"
        },
        {
          "internalType": "address",
          "name": "_user",
          "type": "address"
        }
      ],
      "name": "cleanOrders",
      "outputs": [
        {
          "internalType": "uint256",
          "name": "totalActiveOrderCount",
          "type": "uint256"
        }
      ],
      "stateMutability": "nonpayable",
      "type": "function"
    },
    {
      "inputs": [
        {
          "internalType": "bytes32",
          "name": "_ccy",
          "type": "bytes32"
        }
      ],
      "name": "createLendingMarket",
      "outputs": [
        {
          "internalType": "address",
          "name": "market",
          "type": "address"
        },
        {
          "internalType": "address",
          "name": "futureValueVault",
          "type": "address"
        }
      ],
      "stateMutability": "nonpayable",
      "type": "function"
    },
    {
      "inputs": [
        {
          "internalType": "bytes32",
          "name": "_ccy",
          "type": "bytes32"
        },
        {
          "internalType": "uint256",
          "name": "_maturity",
          "type": "uint256"
        },
        {
          "internalType": "enum ProtocolTypes.Side",
          "name": "_side",
          "type": "uint8"
        },
        {
          "internalType": "uint256",
          "name": "_amount",
          "type": "uint256"
        },
        {
          "internalType": "uint256",
          "name": "_unitPrice",
          "type": "uint256"
        }
      ],
      "name": "createOrder",
      "outputs": [
        {
          "internalType": "bool",
          "name": "",
          "type": "bool"
        }
      ],
      "stateMutability": "nonpayable",
      "type": "function"
    },
    {
      "inputs": [
        {
          "internalType": "bytes32",
          "name": "_ccy",
          "type": "bytes32"
        },
        {
          "internalType": "uint256",
          "name": "_maturity",
          "type": "uint256"
        },
        {
          "internalType": "enum ProtocolTypes.Side",
          "name": "_side",
          "type": "uint8"
        },
        {
          "internalType": "uint256",
          "name": "_amount",
          "type": "uint256"
        },
        {
          "internalType": "uint256",
          "name": "_unitPrice",
          "type": "uint256"
        }
      ],
      "name": "depositAndCreateOrder",
      "outputs": [
        {
          "internalType": "bool",
          "name": "",
          "type": "bool"
        }
      ],
      "stateMutability": "payable",
      "type": "function"
    },
    {
      "inputs": [
        {
          "internalType": "bytes32",
          "name": "_collateralCcy",
          "type": "bytes32"
        },
        {
          "internalType": "bytes32",
          "name": "_debtCcy",
          "type": "bytes32"
        },
        {
          "internalType": "uint256",
          "name": "_debtMaturity",
          "type": "uint256"
        },
        {
          "internalType": "address",
          "name": "_user",
          "type": "address"
        },
        {
          "internalType": "uint24",
          "name": "_poolFee",
          "type": "uint24"
        }
      ],
      "name": "executeLiquidationCall",
      "outputs": [
        {
          "internalType": "bool",
          "name": "",
          "type": "bool"
        }
      ],
      "stateMutability": "nonpayable",
      "type": "function"
    },
    {
      "inputs": [
        {
          "internalType": "bytes32",
          "name": "_ccy",
          "type": "bytes32"
        }
      ],
      "name": "getAutoRollFeeRate",
      "outputs": [
        {
          "internalType": "uint256",
          "name": "",
          "type": "uint256"
        }
      ],
      "stateMutability": "view",
      "type": "function"
    },
    {
      "inputs": [
        {
          "internalType": "bytes32",
          "name": "_ccy",
          "type": "bytes32"
        },
        {
          "internalType": "uint256",
          "name": "_maturity",
          "type": "uint256"
        },
        {
          "internalType": "uint256",
          "name": "_limit",
          "type": "uint256"
        }
      ],
      "name": "getBorrowOrderBook",
      "outputs": [
        {
          "internalType": "uint256[]",
          "name": "unitPrices",
          "type": "uint256[]"
        },
        {
          "internalType": "uint256[]",
          "name": "amounts",
          "type": "uint256[]"
        },
        {
          "internalType": "uint256[]",
          "name": "quantities",
          "type": "uint256[]"
        }
      ],
      "stateMutability": "view",
      "type": "function"
    },
    {
      "inputs": [
        {
          "internalType": "bytes32",
          "name": "_ccy",
          "type": "bytes32"
        }
      ],
      "name": "getBorrowUnitPrices",
      "outputs": [
        {
          "internalType": "uint256[]",
          "name": "",
          "type": "uint256[]"
        }
      ],
      "stateMutability": "view",
      "type": "function"
    },
    {
      "inputs": [
        {
          "internalType": "bytes32",
          "name": "_ccy",
          "type": "bytes32"
        },
        {
          "internalType": "uint256",
          "name": "_maturity",
          "type": "uint256"
        },
        {
          "internalType": "address",
          "name": "_user",
          "type": "address"
        }
      ],
      "name": "getFutureValue",
      "outputs": [
        {
          "internalType": "int256",
          "name": "futureValue",
          "type": "int256"
        }
      ],
      "stateMutability": "view",
      "type": "function"
    },
    {
      "inputs": [
        {
          "internalType": "bytes32",
          "name": "_ccy",
          "type": "bytes32"
        },
        {
          "internalType": "uint256",
          "name": "_maturity",
          "type": "uint256"
        }
      ],
      "name": "getFutureValueVault",
      "outputs": [
        {
          "internalType": "address",
          "name": "",
          "type": "address"
        }
      ],
      "stateMutability": "view",
      "type": "function"
    },
    {
      "inputs": [
        {
          "internalType": "bytes32",
          "name": "_ccy",
          "type": "bytes32"
        }
      ],
      "name": "getGenesisDate",
      "outputs": [
        {
          "internalType": "uint256",
          "name": "",
          "type": "uint256"
        }
      ],
      "stateMutability": "view",
      "type": "function"
    },
    {
      "inputs": [
        {
          "internalType": "bytes32",
          "name": "_ccy",
          "type": "bytes32"
        },
        {
          "internalType": "address",
          "name": "_user",
          "type": "address"
        }
      ],
      "name": "getGenesisValue",
      "outputs": [
        {
          "internalType": "int256",
          "name": "genesisValue",
          "type": "int256"
        }
      ],
      "stateMutability": "view",
      "type": "function"
    },
    {
      "inputs": [
        {
          "internalType": "bytes32",
          "name": "_ccy",
          "type": "bytes32"
        },
        {
          "internalType": "uint256",
          "name": "_maturity",
          "type": "uint256"
        },
        {
          "internalType": "uint256",
          "name": "_limit",
          "type": "uint256"
        }
      ],
      "name": "getLendOrderBook",
      "outputs": [
        {
          "internalType": "uint256[]",
          "name": "unitPrices",
          "type": "uint256[]"
        },
        {
          "internalType": "uint256[]",
          "name": "amounts",
          "type": "uint256[]"
        },
        {
          "internalType": "uint256[]",
          "name": "quantities",
          "type": "uint256[]"
        }
      ],
      "stateMutability": "view",
      "type": "function"
    },
    {
      "inputs": [
        {
          "internalType": "bytes32",
          "name": "_ccy",
          "type": "bytes32"
        }
      ],
      "name": "getLendUnitPrices",
      "outputs": [
        {
          "internalType": "uint256[]",
          "name": "",
          "type": "uint256[]"
        }
      ],
      "stateMutability": "view",
      "type": "function"
    },
    {
      "inputs": [
        {
          "internalType": "bytes32",
          "name": "_ccy",
          "type": "bytes32"
        },
        {
          "internalType": "uint256",
          "name": "_maturity",
          "type": "uint256"
        }
      ],
      "name": "getLendingMarket",
      "outputs": [
        {
          "internalType": "address",
          "name": "",
          "type": "address"
        }
      ],
      "stateMutability": "view",
      "type": "function"
    },
    {
      "inputs": [
        {
          "internalType": "bytes32",
          "name": "_ccy",
          "type": "bytes32"
        }
      ],
      "name": "getLendingMarkets",
      "outputs": [
        {
          "internalType": "address[]",
          "name": "",
          "type": "address[]"
        }
      ],
      "stateMutability": "view",
      "type": "function"
    },
    {
      "inputs": [
        {
          "internalType": "bytes32",
          "name": "_ccy",
          "type": "bytes32"
        }
      ],
      "name": "getMaturities",
      "outputs": [
        {
          "internalType": "uint256[]",
          "name": "",
          "type": "uint256[]"
        }
      ],
      "stateMutability": "view",
      "type": "function"
    },
    {
      "inputs": [
        {
          "internalType": "bytes32",
          "name": "_ccy",
          "type": "bytes32"
        }
      ],
      "name": "getMidUnitPrices",
      "outputs": [
        {
          "internalType": "uint256[]",
          "name": "",
          "type": "uint256[]"
        }
      ],
      "stateMutability": "view",
      "type": "function"
    },
    {
      "inputs": [
        {
          "internalType": "bytes32",
          "name": "_ccy",
          "type": "bytes32"
        }
      ],
      "name": "getOrderFeeRate",
      "outputs": [
        {
          "internalType": "uint256",
          "name": "",
          "type": "uint256"
        }
      ],
      "stateMutability": "view",
      "type": "function"
    },
    {
      "inputs": [
        {
          "internalType": "bytes32",
          "name": "_ccy",
          "type": "bytes32"
        },
        {
          "internalType": "uint256",
          "name": "_maturity",
          "type": "uint256"
        },
        {
          "internalType": "address",
          "name": "_user",
          "type": "address"
        }
      ],
      "name": "getPresentValue",
      "outputs": [
        {
          "internalType": "int256",
          "name": "presentValue",
          "type": "int256"
        }
      ],
      "stateMutability": "view",
      "type": "function"
    },
    {
      "inputs": [
        {
          "internalType": "bytes32",
          "name": "_ccy",
          "type": "bytes32"
        },
        {
          "internalType": "address",
          "name": "_user",
          "type": "address"
        }
      ],
      "name": "getTotalPresentValue",
      "outputs": [
        {
          "internalType": "int256",
          "name": "totalPresentValue",
          "type": "int256"
        }
      ],
      "stateMutability": "view",
      "type": "function"
    },
    {
      "inputs": [
        {
          "internalType": "address",
          "name": "_user",
          "type": "address"
        }
      ],
      "name": "getTotalPresentValueInETH",
      "outputs": [
        {
          "internalType": "int256",
          "name": "totalPresentValue",
          "type": "int256"
        }
      ],
      "stateMutability": "view",
      "type": "function"
    },
    {
      "inputs": [
        {
          "internalType": "address",
          "name": "_user",
          "type": "address"
        }
      ],
      "name": "getUsedCurrencies",
      "outputs": [
        {
          "internalType": "bytes32[]",
          "name": "",
          "type": "bytes32[]"
        }
      ],
      "stateMutability": "view",
      "type": "function"
    },
    {
      "inputs": [
        {
          "internalType": "address",
          "name": "_owner",
          "type": "address"
        },
        {
          "internalType": "address",
          "name": "_resolver",
          "type": "address"
        }
      ],
      "name": "initialize",
      "outputs": [],
      "stateMutability": "nonpayable",
      "type": "function"
    },
    {
      "inputs": [
        {
          "internalType": "bytes32",
          "name": "_ccy",
          "type": "bytes32"
        },
        {
          "internalType": "uint256",
          "name": "_genesisDate",
          "type": "uint256"
        },
        {
          "internalType": "uint256",
          "name": "_compoundFactor",
          "type": "uint256"
        },
        {
          "internalType": "uint256",
          "name": "_orderFeeRate",
          "type": "uint256"
        },
        {
          "internalType": "uint256",
          "name": "_autoRollFeeRate",
          "type": "uint256"
        }
      ],
      "name": "initializeLendingMarket",
      "outputs": [],
      "stateMutability": "nonpayable",
      "type": "function"
    },
    {
      "inputs": [
        {
          "internalType": "bytes32",
          "name": "_ccy",
          "type": "bytes32"
        }
      ],
      "name": "isInitializedLendingMarket",
      "outputs": [
        {
          "internalType": "bool",
          "name": "",
          "type": "bool"
        }
      ],
      "stateMutability": "view",
      "type": "function"
    },
    {
      "inputs": [
        {
          "internalType": "address",
          "name": "_user",
          "type": "address"
        }
      ],
      "name": "isLiquidator",
      "outputs": [
        {
          "internalType": "bool",
          "name": "",
          "type": "bool"
        }
      ],
      "stateMutability": "view",
      "type": "function"
    },
    {
      "inputs": [],
      "name": "isResolverCached",
      "outputs": [
        {
          "internalType": "bool",
          "name": "",
          "type": "bool"
        }
      ],
      "stateMutability": "view",
      "type": "function"
    },
    {
      "inputs": [],
      "name": "owner",
      "outputs": [
        {
          "internalType": "address",
          "name": "",
          "type": "address"
        }
      ],
      "stateMutability": "view",
      "type": "function"
    },
    {
      "inputs": [
        {
          "internalType": "bytes32",
          "name": "_ccy",
          "type": "bytes32"
        }
      ],
      "name": "pauseLendingMarkets",
      "outputs": [
        {
          "internalType": "bool",
          "name": "",
          "type": "bool"
        }
      ],
      "stateMutability": "nonpayable",
      "type": "function"
    },
    {
      "inputs": [
        {
          "internalType": "bool",
          "name": "_isLiquidator",
          "type": "bool"
        }
      ],
      "name": "registerLiquidator",
      "outputs": [],
      "stateMutability": "nonpayable",
      "type": "function"
    },
    {
      "inputs": [],
      "name": "renounceOwnership",
      "outputs": [],
      "stateMutability": "nonpayable",
      "type": "function"
    },
    {
      "inputs": [],
      "name": "requiredContracts",
      "outputs": [
        {
          "internalType": "bytes32[]",
          "name": "contracts",
          "type": "bytes32[]"
        }
      ],
      "stateMutability": "pure",
      "type": "function"
    },
    {
      "inputs": [],
      "name": "resolver",
      "outputs": [
        {
          "internalType": "contract IAddressResolver",
          "name": "",
          "type": "address"
        }
      ],
      "stateMutability": "view",
      "type": "function"
    },
    {
      "inputs": [
        {
          "internalType": "bytes32",
          "name": "_ccy",
          "type": "bytes32"
        }
      ],
      "name": "rotateLendingMarkets",
      "outputs": [],
      "stateMutability": "nonpayable",
      "type": "function"
    },
    {
      "inputs": [
        {
          "internalType": "address",
          "name": "newOwner",
          "type": "address"
        }
      ],
      "name": "transferOwnership",
      "outputs": [],
      "stateMutability": "nonpayable",
      "type": "function"
    },
    {
      "inputs": [
        {
          "internalType": "bytes32",
          "name": "_ccy",
          "type": "bytes32"
        }
      ],
      "name": "unpauseLendingMarkets",
      "outputs": [
        {
          "internalType": "bool",
          "name": "",
          "type": "bool"
        }
      ],
      "stateMutability": "nonpayable",
      "type": "function"
    },
    {
      "inputs": [
        {
          "internalType": "bytes32",
          "name": "_ccy",
          "type": "bytes32"
        },
        {
          "internalType": "uint256",
          "name": "_autoRollFeeRate",
          "type": "uint256"
        }
      ],
      "name": "updateAutoRollFeeRate",
      "outputs": [],
      "stateMutability": "nonpayable",
      "type": "function"
    },
    {
      "inputs": [
        {
          "internalType": "bytes32",
          "name": "_ccy",
          "type": "bytes32"
        },
        {
          "internalType": "uint256",
          "name": "_orderFeeRate",
          "type": "uint256"
        }
      ],
      "name": "updateOrderFeeRate",
      "outputs": [],
      "stateMutability": "nonpayable",
      "type": "function"
    }
  ],
  "transactionHash": "0xf67dd73b60c93147e28877ee53575cca8cb02e0cbe7ad953e4c4847f250ccb61",
  "args": [],
  "numDeployments": 6,
  "solcInputHash": "6c799c235967b1c1211807a54240d5e9",
  "bytecode": "0x608060405234801561001057600080fd5b50600160005561590280620000266000396000f3fe6080604052600436106102725760003560e01c8063715018a61161014f578063b3cb8450116100c1578063e99d05381161007a578063e99d053814610836578063eb092a2614610856578063f2fde38b14610876578063faca409b14610896578063fb54a6b3146108b6578063fc700810146108d657600080fd5b8063b3cb845014610767578063bfd10cf614610787578063cb9d7401146107a7578063e0997659146107e1578063e906c100146107f6578063e95dc1831461081657600080fd5b80638a981745116101135780638a981745146106925780638b36d833146106b25780638da5cb5b146106d2578063953dbcaa146106e7578063a02be3dc14610707578063a963ad7f1461072757600080fd5b8063715018a6146105fd578063766cb64e1461061257806385323e1a14610632578063870cf8ab14610652578063891d59651461067257600080fd5b80632f749574116101e857806349f2ccbf116101ac57806349f2ccbf146104fb578063529a356f1461051b57806355aceb4e1461053b5780635c347765146105685780635ca65d57146105bd57806370c641a6146105dd57600080fd5b80632f74957414610459578063381ada1f146104795780633d03b9da146104a6578063448255c7146104c8578063485cc955146104db57600080fd5b8063223652611161023a578063223652611461039d578063268bb279146103cd57806329985e5a146103ef5780632af64bd3146104045780632e6c5e67146104195780632e77aea71461043957600080fd5b80630312b5281461027757806303e5fb59146102d957806304f3bcec146103215780630594de6e1461034e57806317b72ff41461037d575b600080fd5b34801561028357600080fd5b50610297610292366004614c75565b6108f6565b604080519889526020890197909752958701949094526060860192909252608085015260a084015260c0830152151560e0820152610100015b60405180910390f35b3480156102e557600080fd5b506103136102f4366004614caa565b600090815260008051602061588d833981519152602052604090205490565b6040519081526020016102d0565b34801561032d57600080fd5b506103366109ab565b6040516001600160a01b0390911681526020016102d0565b34801561035a57600080fd5b5061036e610369366004614cc3565b6109cc565b6040516102d093929190614d2a565b34801561038957600080fd5b50610313610398366004614d6d565b610a8b565b3480156103a957600080fd5b506103bd6103b8366004614d9d565b610b20565b60405190151581526020016102d0565b3480156103d957600080fd5b506103ed6103e8366004614e09565b610e1e565b005b3480156103fb57600080fd5b506103ed610e39565b34801561041057600080fd5b506103bd610fe6565b34801561042557600080fd5b506103bd610434366004614caa565b61114c565b34801561044557600080fd5b50610313610454366004614e26565b61116c565b34801561046557600080fd5b506103ed610474366004614e5f565b611202565b34801561048557600080fd5b50610499610494366004614caa565b6112d6565b6040516102d09190614e81565b3480156104b257600080fd5b506104bb61134b565b6040516102d09190614ece565b6103bd6104d6366004614f13565b61146d565b3480156104e757600080fd5b506103ed6104f6366004614f5c565b611579565b34801561050757600080fd5b506103bd610516366004614f8a565b6116f3565b34801561052757600080fd5b506103bd610536366004614fc3565b61188d565b34801561054757600080fd5b5061055b610556366004614caa565b61189e565b6040516102d09190614fe0565b34801561057457600080fd5b50610588610583366004614d6d565b611a06565b604080519788526020880196909652948601939093526060850191909152608084015260a083015260c082015260e0016102d0565b3480156105c957600080fd5b506103ed6105d8366004614e5f565b611af1565b3480156105e957600080fd5b506103136105f8366004614d6d565b611bb4565b34801561060957600080fd5b506103ed611c4c565b34801561061e57600080fd5b506103ed61062d366004614ff3565b611c87565b34801561063e57600080fd5b5061033661064d366004614e5f565b611e13565b34801561065e57600080fd5b506103ed61066d366004614fc3565b611e75565b34801561067e57600080fd5b5061031361068d366004614caa565b611ed4565b34801561069e57600080fd5b506103366106ad366004614e5f565b611ef2565b3480156106be57600080fd5b506103ed6106cd366004614caa565b611f24565b3480156106de57600080fd5b50610336612575565b3480156106f357600080fd5b5061036e610702366004614cc3565b61259d565b34801561071357600080fd5b5061055b610722366004614caa565b6125fc565b34801561073357600080fd5b50610747610742366004614caa565b61275d565b604080516001600160a01b039384168152929091166020830152016102d0565b34801561077357600080fd5b506103bd610782366004614caa565b612cb8565b34801561079357600080fd5b5061055b6107a2366004614caa565b612db6565b3480156107b357600080fd5b506103136107c2366004614caa565b60009081526000805160206158ad833981519152602052604090205490565b3480156107ed57600080fd5b506104bb612f17565b34801561080257600080fd5b50610313610811366004614e26565b612f5a565b34801561082257600080fd5b50610313610831366004614d6d565b612ff3565b34801561084257600080fd5b506103bd610851366004614caa565b6134ee565b34801561086257600080fd5b5061055b610871366004614caa565b6135e3565b34801561088257600080fd5b506103ed610891366004614fc3565b613744565b3480156108a257600080fd5b506103bd6108b1366004614f13565b6137e1565b3480156108c257600080fd5b506103136108d1366004614fc3565b61386e565b3480156108e257600080fd5b506104bb6108f1366004614fc3565b6139f8565b60008060008060008060008073C575c9aA2d8aD43Db9FA56Ae07045212a9a7EC22630312b5288c8c8c6040518463ffffffff1660e01b815260040161093d9392919061502e565b6101006040518083038186803b15801561095657600080fd5b505af415801561096a573d6000803e3d6000fd5b505050506040513d601f19601f8201168201806040525081019061098e919061504f565b975097509750975097509750975097509397509397509397509397565b600060008051602061586d8339815191525b546001600160a01b0316919050565b606080606060006109db613a26565b600088815260029190910160209081526040808320898452909152908190205490516325fb168b60e11b8152600481018790526001600160a01b0390911691508190634bf62d16906024015b60006040518083038186803b158015610a3f57600080fd5b505afa158015610a53573d6000803e3d6000fd5b505050506040513d6000823e601f3d908101601f19168201604052610a7b919081019061516a565b9350935093505093509350939050565b6040516295a47160e71b815260009073C575c9aA2d8aD43Db9FA56Ae07045212a9a7EC2290634ad2388090610ac8908690859087906004016151f2565b60e06040518083038186803b158015610ae057600080fd5b505af4158015610af4573d6000803e3d6000fd5b505050506040513d601f19601f82011682018060405250810190610b189190615211565b519392505050565b600060026000541415610b4e5760405162461bcd60e51b8152600401610b4590615295565b60405180910390fd5b6002600090815585908590610b61613a26565b6000848152600291909101602090815260408083208584529091529020546001600160a01b03161415610ba65760405162461bcd60e51b8152600401610b45906152cc565b333b15610bea5760405162461bcd60e51b815260206004820152601260248201527143616c6c6572206d75737420626520454f4160701b6044820152606401610b45565b610bf333613a4a565b610c365760405162461bcd60e51b815260206004820152601460248201527343616c6c6572206973206e6f742061637469766560601b6044820152606401610b45565b610c408786612ff3565b50604051639c599f8b60e01b81523360048201526001600160a01b038616602482015260448101899052606481018890526084810187905262ffffff851660a4820152600090819073C575c9aA2d8aD43Db9FA56Ae07045212a9a7EC2290639c599f8b9060c401604080518083038186803b158015610cbe57600080fd5b505af4158015610cd2573d6000803e3d6000fd5b505050506040513d601f19601f82011682018060405250810190610cf691906152f6565b9092509050808215610d26576000610d168b8b8b60008860006001613a87565b9050610d228183615330565b9150505b8015610e0757888a896001600160a01b03167f347d8f9576f47b3bd7a4821cd3d3d4171968cdd36680d4abaca7de302d836f998e85604051610d72929190918252602082015260400190565b60405180910390a460405163300074c960e01b815273C575c9aA2d8aD43Db9FA56Ae07045212a9a7EC229063300074c990610db5908d908d908d906004016151f2565b60206040518083038186803b158015610dcd57600080fd5b505af4158015610de1573d6000803e3d6000fd5b505050506040513d601f19601f82011682018060405250810190610e059190615348565b505b600195505050505050600160005595945050505050565b8015610e3057610e2d33613e60565b50565b610e2d33613e8f565b6000610e4361134b565b905060005b8151811015610fe2576000828281518110610e6557610e65615361565b602002602001015190506000610e8660008051602061586d83398151915290565b54604080517f5265736f6c766572206d697373696e67207461726765743a200000000000000060208201526039808201869052825180830390910181526059820192839052636795dbcd60e01b9092526001600160a01b0390921691636795dbcd91610ef791869190605d016153c4565b60206040518083038186803b158015610f0f57600080fd5b505afa158015610f23573d6000803e3d6000fd5b505050506040513d601f19601f82011682018060405250810190610f4791906153e5565b60008381527f4abde63c3e81aefa5764b017968bc473e83e093d7e1a10247d19e0a3e4124019602090815260409182902080546001600160a01b0319166001600160a01b03851690811790915582518681529182015281519293507f88a93678a3692f6789d9546fc621bf7234b101ddb7d4fe479455112831b8aa68929081900390910190a150508080610fda90615402565b915050610e48565b5050565b600080610ff161134b565b905060005b815181101561114357600082828151811061101357611013615361565b6020026020010151905061103260008051602061586d83398151915290565b600082815260019190910160205260409020546001600160a01b031660008051602061586d833981519152546040516321f8a72160e01b8152600481018490526001600160a01b03909116906321f8a7219060240160206040518083038186803b15801561109f57600080fd5b505afa1580156110b3573d6000803e3d6000fd5b505050506040513d601f19601f820116820180604052508101906110d791906153e5565b6001600160a01b0316141580611121575060008181527f4abde63c3e81aefa5764b017968bc473e83e093d7e1a10247d19e0a3e412401960205260409020546001600160a01b0316155b15611130576000935050505090565b508061113b81615402565b915050610ff6565b50600191505090565b6000611156613a26565b6000928352600301602052506040902054151590565b6040516295a47160e71b815260009073C575c9aA2d8aD43Db9FA56Ae07045212a9a7EC2290634ad23880906111a9908790879087906004016151f2565b60e06040518083038186803b1580156111c157600080fd5b505af41580156111d5573d6000803e3d6000fd5b505050506040513d601f19601f820116820180604052508101906111f99190615211565b51949350505050565b6127108111156112545760405162461bcd60e51b815260206004820152601a60248201527f496e76616c6964206175746f2d726f6c6c2066656520726174650000000000006044820152606401610b45565b60008281526000805160206158ad83398151915260205260409020548181146112d15760008381526000805160206158ad833981519152602090815260409182902084905581518381529081018490527fdfbb9051e39a726dacd506a01fecef2277ab8adc7423037867c554573f179fdb91015b60405180910390a15b505050565b60606112e0613a26565b600083815260209182526040908190208054825181850281018501909352808352919290919083018282801561133f57602002820191906000526020600020905b81546001600160a01b03168152600190910190602001808311611321575b50505050509050919050565b60408051600580825260c082019092526060916020820160a080368337019050509050742132b0b1b7b7283937bc3ca1b7b73a3937b63632b960591b8160008151811061139a5761139a615361565b6020026020010181815250507121bab93932b731bca1b7b73a3937b63632b960711b816001815181106113cf576113cf615361565b6020026020010181815250507011d95b995cda5cd5985b1d5955985d5b1d607a1b8160028151811061140357611403615361565b6020026020010181815250506a14995cd95c9d99519d5b9960aa1b8160038151811061143157611431615361565b60200260200101818152505069151bdad95b95985d5b1d60b21b8160048151811061145e5761145e615361565b60200260200101818152505090565b6000600260005414156114925760405162461bcd60e51b8152600401610b4590615295565b60026000908155869086906114a5613a26565b6000848152600291909101602090815260408083208584529091529020546001600160a01b031614156114ea5760405162461bcd60e51b8152600401610b45906152cc565b6114f2613ea5565b6001600160a01b03166396994e3734338b896040518563ffffffff1660e01b81526004016115229392919061502e565b6000604051808303818588803b15801561153b57600080fd5b505af115801561154f573d6000803e3d6000fd5b50505050506115648888338989896000613a87565b50600192505050600160005595945050505050565b600154610100900460ff161580801561159657506001805460ff16105b806115af5750303b1580156115af57506001805460ff16145b6116125760405162461bcd60e51b815260206004820152602e60248201527f496e697469616c697a61626c653a20636f6e747261637420697320616c72656160448201526d191e481a5b9a5d1a585b1a5e995960921b6064820152608401610b45565b6001805460ff1916811790558015611634576001805461ff0019166101001790555b600061163e613eb4565b6001600160a01b031614156116a05760405162461bcd60e51b815260206004820152602260248201527f4d7573742062652063616c6c65642066726f6d2070726f787920636f6e74726160448201526118dd60f21b6064820152608401610b45565b6116a983613edc565b6116b282613f4d565b80156112d1576001805461ff00191681556040519081527f7f26b83ff96e1f2b6a682f133852f6798a09c465da95921460cefb3847402498906020016112c8565b6000600260005414156117185760405162461bcd60e51b8152600401610b4590615295565b600260009081558490849061172b613a26565b6000848152600291909101602090815260408083208584529091529020546001600160a01b031614156117705760405162461bcd60e51b8152600401610b45906152cc565b600061177a613a26565b60008881526002919091016020908152604080832089845290915280822054905163504b89bd60e01b815233600482015265ffffffffffff881660248201526001600160a01b03909116925081908190849063504b89bd90604401606060405180830381600087803b1580156117ef57600080fd5b505af1158015611803573d6000803e3d6000fd5b505050506040513d601f19601f82011682018060405250810190611827919061541d565b92509250925089336001600160a01b03167f4d71330c358e4f44590905c3373d1e04529d36b64e552c5cb51813ef62d120d78a868d878760405161186f959493929190615476565b60405180910390a36001965050505050505060016000559392505050565b600061189882613fe2565b92915050565b606060006118aa613a26565b6000848152602091909152604090205467ffffffffffffffff8111156118d2576118d26150b9565b6040519080825280602002602001820160405280156118fb578160200160208202803683370190505b50905060005b611909613a26565b600085815260209190915260409020548110156119ff57600061192a613a26565b60008681526020919091526040902080548390811061194b5761194b615361565b6000918252602091829020015460408051631b3508b760e01b815290516001600160a01b0390921693508392631b3508b792600480840193829003018186803b15801561199757600080fd5b505afa1580156119ab573d6000803e3d6000fd5b505050506040513d601f19601f820116820180604052508101906119cf9190615348565b8383815181106119e1576119e1615361565b602090810291909101015250806119f781615402565b915050611901565b5092915050565b6000806000806000806000611a3f89611a1d613a26565b6001600160a01b038b166000908152600491909101602052604090209061400c565b15611ae557604051635c34776560e01b8152600481018a90526001600160a01b038916602482015273C575c9aA2d8aD43Db9FA56Ae07045212a9a7EC2290635c3477659060440160e06040518083038186803b158015611a9e57600080fd5b505af4158015611ab2573d6000803e3d6000fd5b505050506040513d601f19601f82011682018060405250810190611ad691906154ae565b96509650965096509650965096505b92959891949750929550565b612710811115611b3c5760405162461bcd60e51b8152602060048201526016602482015275496e76616c6964206f7264657220666565207261746560501b6044820152606401610b45565b600082815260008051602061588d83398151915260205260409020548181146112d157600083815260008051602061588d833981519152602090815260409182902084905581518381529081018490527fff4528c215dc00005504418aa82be3bb2439c39be2eb30fd44012f5e79d168e291016112c8565b6040516295a47160e71b815260009073C575c9aA2d8aD43Db9FA56Ae07045212a9a7EC2290634ad2388090611bf1908690859087906004016151f2565b60e06040518083038186803b158015611c0957600080fd5b505af4158015611c1d573d6000803e3d6000fd5b505050506040513d601f19601f82011682018060405250810190611c419190615211565b60c001519392505050565b33611c55612575565b6001600160a01b031614611c7b5760405162461bcd60e51b8152600401610b4590615502565b611c856000613edc565b565b33611c90612575565b6001600160a01b031614611cb65760405162461bcd60e51b8152600401610b4590615502565b60008311611d065760405162461bcd60e51b815260206004820152601760248201527f496e76616c696420636f6d706f756e6420666163746f720000000000000000006044820152606401610b45565b611d0f8561114c565b15611d525760405162461bcd60e51b8152602060048201526013602482015272105b1c9958591e481a5b9a5d1a585b1a5e9959606a1b6044820152606401610b45565b611d5a614027565b6001600160a01b031663a2d7d02d86602486611d77896003614031565b6040516001600160e01b031960e087901b168152600481019490945260ff909216602484015260448301526064820152608401600060405180830381600087803b158015611dc457600080fd5b505af1158015611dd8573d6000803e3d6000fd5b5050505083611de5613a26565b60008781526003919091016020526040902055611e028583611af1565b611e0c8582611202565b5050505050565b6000611e1d613a26565b60008481526001919091016020526040812090611e38613a26565b600095865260020160209081526040808720958752948152848620546001600160a01b039081168352908201929092529092019092205416919050565b6000611e7f613a26565b6001600160a01b03831660009081526004919091016020526040812091505b611ea782614108565b8110156112d157611ec1611ebb8383614112565b84612ff3565b5080611ecc81615402565b915050611e9e565b6000611ede613a26565b600092835260030160205250604090205490565b6000611efc613a26565b600093845260020160209081526040808520938552929052509020546001600160a01b031690565b60026000541415611f475760405162461bcd60e51b8152600401610b4590615295565b600260009081558190611f58613a26565b6000838152602091909152604090205411611fce5760405162461bcd60e51b815260206004820152603060248201527f4e6f206c656e64696e67206d61726b65747320657869737420666f722061207360448201526f706563696669632063757272656e637960801b6064820152608401610b45565b6000611fd8613a26565b600084815260209190915260408120805490925082908290611ffc57611ffc615361565b600091825260208220015483546001600160a01b0390911692508390600190811061202957612029615361565b600091825260208220015484546001600160a01b0390911692506120ed90859061205590600190615537565b8154811061206557612065615361565b600091825260209182902001546040805163e16695b560e01b815290516001600160a01b039092169263e16695b592600480840193829003018186803b1580156120ae57600080fd5b505afa1580156120c2573d6000803e3d6000fd5b505050506040513d601f19601f820116820180604052508101906120e69190615348565b6003614031565b60405163baa2675760e01b8152600481018290529091506000906001600160a01b0385169063baa2675790602401602060405180830381600087803b15801561213557600080fd5b505af1158015612149573d6000803e3d6000fd5b505050506040513d601f19601f8201168201806040525081019061216d9190615348565b905060005b855481101561221c578554600090829061218e90600190615537565b146121c9578661219f836001615330565b815481106121af576121af615361565b6000918252602090912001546001600160a01b03166121cb565b855b9050808783815481106121e0576121e0615361565b600091825260209091200180546001600160a01b0319166001600160a01b0392909216919091179055508061221481615402565b915050612172565b506000612227613a26565b6000898152600191909101602090815260408083206001600160a01b03808a16855292529091205416905061225a614027565b6001600160a01b031663348183cf8984876001600160a01b031663e16695b56040518163ffffffff1660e01b815260040160206040518083038186803b1580156122a357600080fd5b505afa1580156122b7573d6000803e3d6000fd5b505050506040513d601f19601f820116820180604052508101906122db9190615348565b886001600160a01b03166371613c2d6040518163ffffffff1660e01b815260040160206040518083038186803b15801561231457600080fd5b505afa158015612328573d6000803e3d6000fd5b505050506040513d601f19601f8201168201806040525081019061234c9190615348565b60008e81526000805160206158ad8339815191526020526040902054604051634955b91f60e11b8152600481018a90526001600160a01b038916906392ab723e9060240160206040518083038186803b1580156123a857600080fd5b505afa1580156123bc573d6000803e3d6000fd5b505050506040513d601f19601f820116820180604052508101906123e09190615348565b6040516001600160e01b031960e089901b1681526004810196909652602486019490945260448501929092526064840152608483015260a482015260c401600060405180830381600087803b15801561243857600080fd5b505af115801561244c573d6000803e3d6000fd5b5050505084612459613a26565b60008a81526002919091016020908152604080832087845282529182902080546001600160a01b0319166001600160a01b03949094169390931790925580518a815291820184905281018490527f0c6f5a3bc801362dc3d24c87799fa831f5a601c5dbd8bed4064907844eef97369060600160405180910390a173C575c9aA2d8aD43Db9FA56Ae07045212a9a7EC2263300074c989856124f761411e565b6040518463ffffffff1660e01b8152600401612515939291906151f2565b60206040518083038186803b15801561252d57600080fd5b505af4158015612541573d6000803e3d6000fd5b505050506040513d601f19601f820116820180604052508101906125659190615348565b5050600160005550505050505050565b60007f9acda75aebd150dd434541a4747a6dc606f4f1a59662477e67daf1fc0bf9e0aa6109bd565b606080606060006125ac613a26565b6000888152600291909101602090815260408083208984529091529081902054905163d866d35560e01b8152600481018790526001600160a01b039091169150819063d866d35590602401610a27565b60606000612608613a26565b6000848152602091909152604090205467ffffffffffffffff811115612630576126306150b9565b604051908082528060200260200182016040528015612659578160200160208202803683370190505b50905060005b612667613a26565b600085815260209190915260409020548110156119ff576000612688613a26565b6000868152602091909152604090208054839081106126a9576126a9615361565b600091825260209182902001546040805163e16695b560e01b815290516001600160a01b039092169350839263e16695b592600480840193829003018186803b1580156126f557600080fd5b505afa158015612709573d6000803e3d6000fd5b505050506040513d601f19601f8201168201806040525081019061272d9190615348565b83838151811061273f5761273f615361565b6020908102919091010152508061275581615402565b91505061265f565b60008033612769612575565b6001600160a01b03161461278f5760405162461bcd60e51b8152600401610b4590615502565b612797614027565b6001600160a01b031663f7b637bb846040518263ffffffff1660e01b81526004016127c491815260200190565b60206040518083038186803b1580156127dc57600080fd5b505afa1580156127f0573d6000803e3d6000fd5b505050506040513d601f19601f82011682018060405250810190612814919061554e565b61287f5760405162461bcd60e51b815260206004820152603660248201527f4c656e64696e67206d61726b6574206861736e2774206265656e20696e697469604482015275616c697a656420696e207468652063757272656e637960501b6064820152608401610b45565b612887614128565b6001600160a01b0316631eae0893846040518263ffffffff1660e01b81526004016128b491815260200190565b60206040518083038186803b1580156128cc57600080fd5b505afa1580156128e0573d6000803e3d6000fd5b505050506040513d601f19601f82011682018060405250810190612904919061554e565b6129495760405162461bcd60e51b81526020600482015260166024820152754e6f6e20737570706f727465642063757272656e637960501b6044820152606401610b45565b6000612953613a26565b600085815260039190910160205260408120549150612970613a26565b600086815260209190915260409020541115612a555761298e613a26565b60008581526020919091526040902060016129a7613a26565b600087815260209190915260409020546129c19190615537565b815481106129d1576129d1615361565b600091825260209182902001546040805163e16695b560e01b815290516001600160a01b039092169263e16695b592600480840193829003018186803b158015612a1a57600080fd5b505afa158015612a2e573d6000803e3d6000fd5b505050506040513d601f19601f82011682018060405250810190612a529190615348565b90505b6000612a62826003614031565b9050612a6c614132565b6001600160a01b0316634672758f86612a83613a26565b60008981526003919091016020526040908190205490516001600160e01b031960e085901b1681526004810192909252602482015260448101849052606401602060405180830381600087803b158015612adc57600080fd5b505af1158015612af0573d6000803e3d6000fd5b505050506040513d601f19601f82011682018060405250810190612b1491906153e5565b9350612b1e614132565b6001600160a01b031663a97c4b536040518163ffffffff1660e01b8152600401602060405180830381600087803b158015612b5857600080fd5b505af1158015612b6c573d6000803e3d6000fd5b505050506040513d601f19601f82011682018060405250810190612b9091906153e5565b9250612b9a613a26565b600086815260209182526040812080546001810182559082529190200180546001600160a01b0319166001600160a01b03861617905583612bd9613a26565b600087815260029190910160209081526040808320858452909152902080546001600160a01b0319166001600160a01b039290921691909117905582612c1d613a26565b6000878152600191909101602090815260408083206001600160a01b0389811680865291909352922080546001600160a01b0319169390911692909217909155857fddd37b9ca90662e4888b4057e9f890ba1296b923607a46fc817f2e569b96f63785612c88613a26565b60008a8152602091909152604090819020549051612ca9929190879061502e565b60405180910390a35050915091565b600033612cc3612575565b6001600160a01b031614612ce95760405162461bcd60e51b8152600401610b4590615502565b60005b612cf4613a26565b60008481526020919091526040902054811015612dad576000612d15613a26565b600085815260209190915260409020805483908110612d3657612d36615361565b60009182526020822001546040805163280dce3760e21b815290516001600160a01b039092169350839263a03738dc9260048084019382900301818387803b158015612d8157600080fd5b505af1158015612d95573d6000803e3d6000fd5b50505050508080612da590615402565b915050612cec565b50600192915050565b60606000612dc2613a26565b6000848152602091909152604090205467ffffffffffffffff811115612dea57612dea6150b9565b604051908082528060200260200182016040528015612e13578160200160208202803683370190505b50905060005b612e21613a26565b600085815260209190915260409020548110156119ff576000612e42613a26565b600086815260209190915260409020805483908110612e6357612e63615361565b60009182526020918290200154604080516371613c2d60e01b815290516001600160a01b03909216935083926371613c2d92600480840193829003018186803b158015612eaf57600080fd5b505afa158015612ec3573d6000803e3d6000fd5b505050506040513d601f19601f82011682018060405250810190612ee79190615348565b838381518110612ef957612ef9615361565b60209081029190910101525080612f0f81615402565b915050612e19565b6040805160018082528183019092526060916020808301908036833701905050905069151bdad95b95985d5b1d60b21b8160008151811061145e5761145e615361565b6040516295a47160e71b815260009073C575c9aA2d8aD43Db9FA56Ae07045212a9a7EC2290634ad2388090612f97908790879087906004016151f2565b60e06040518083038186803b158015612faf57600080fd5b505af4158015612fc3573d6000803e3d6000fd5b505050506040513d601f19601f82011682018060405250810190612fe79190615211565b60200151949350505050565b604051635b0f7aad60e11b8152600481018390526001600160a01b03821660248201526000908190819073C575c9aA2d8aD43Db9FA56Ae07045212a9a7EC229063b61ef55a9060440160006040518083038186803b15801561305457600080fd5b505af4158015613068573d6000803e3d6000fd5b505050506040513d6000823e601f3d908101601f19168201604052613090919081019061556b565b905060005b81518110156134115760006130a8613a26565b600201600088815260200190815260200160002060008484815181106130d0576130d0615361565b6020026020010151815260200190815260200160002060009054906101000a90046001600160a01b031690506000816001600160a01b031663e16695b56040518163ffffffff1660e01b815260040160206040518083038186803b15801561313757600080fd5b505afa15801561314b573d6000803e3d6000fd5b505050506040513d601f19601f8201168201806040525081019061316f9190615348565b9050600073C575c9aA2d8aD43Db9FA56Ae07045212a9a7EC2263300074c98a848b6040518463ffffffff1660e01b81526004016131ae939291906151f2565b60206040518083038186803b1580156131c657600080fd5b505af41580156131da573d6000803e3d6000fd5b505050506040513d601f19601f820116820180604052508101906131fe9190615348565b905060008061320e8b858c61413c565b909250905061321d828a615330565b985080156132b35760405163300074c960e01b815273C575c9aA2d8aD43Db9FA56Ae07045212a9a7EC229063300074c990613260908e9088908f906004016151f2565b60206040518083038186803b15801561327857600080fd5b505af415801561328c573d6000803e3d6000fd5b505050506040513d601f19601f820116820180604052508101906132b09190615348565b92505b82156132be57600197505b821580156132ca575081155b1561333b576133398787815181106132e4576132e4615361565b60200260200101516132f4613a26565b60050160008e815260200190815260200160002060008d6001600160a01b03166001600160a01b031681526020019081526020016000206144ea90919063ffffffff16565b505b613343614027565b6001600160a01b031663eeac29d88c8c60018b516133619190615537565b8a14613390578a6133738b6001615330565b8151811061338357613383615361565b6020026020010151613393565b60005b6040516001600160e01b031960e086901b16815260048101939093526001600160a01b0390911660248301526044820152606401600060405180830381600087803b1580156133e157600080fd5b505af11580156133f5573d6000803e3d6000fd5b505050505050505050808061340990615402565b915050613095565b508215801561341e575081155b80156134b1575061342d614027565b60405163386320d360e11b8152600481018790526001600160a01b03868116602483015291909116906370c641a69060440160206040518083038186803b15801561347757600080fd5b505afa15801561348b573d6000803e3d6000fd5b505050506040513d601f19601f820116820180604052508101906134af9190615348565b155b156134e6576134e4856134c2613a26565b6001600160a01b038716600090815260049190910160205260409020906144ea565b505b505092915050565b6000336134f9612575565b6001600160a01b03161461351f5760405162461bcd60e51b8152600401610b4590615502565b60005b61352a613a26565b60008481526020919091526040902054811015612dad57600061354b613a26565b60008581526020919091526040902080548390811061356c5761356c615361565b600091825260208220015460408051630b0863e760e11b815290516001600160a01b0390921693508392631610c7ce9260048084019382900301818387803b1580156135b757600080fd5b505af11580156135cb573d6000803e3d6000fd5b505050505080806135db90615402565b915050613522565b606060006135ef613a26565b6000848152602091909152604090205467ffffffffffffffff811115613617576136176150b9565b604051908082528060200260200182016040528015613640578160200160208202803683370190505b50905060005b61364e613a26565b600085815260209190915260409020548110156119ff57600061366f613a26565b60008681526020919091526040902080548390811061369057613690615361565b6000918252602091829020015460408051632f05aa6d60e11b815290516001600160a01b0390921693508392635e0b54da92600480840193829003018186803b1580156136dc57600080fd5b505afa1580156136f0573d6000803e3d6000fd5b505050506040513d601f19601f820116820180604052508101906137149190615348565b83838151811061372657613726615361565b6020908102919091010152508061373c81615402565b915050613646565b3361374d612575565b6001600160a01b0316146137735760405162461bcd60e51b8152600401610b4590615502565b6001600160a01b0381166137d85760405162461bcd60e51b815260206004820152602660248201527f4f776e61626c653a206e6577206f776e657220697320746865207a65726f206160448201526564647265737360d01b6064820152608401610b45565b610e2d81613edc565b6000600260005414156138065760405162461bcd60e51b8152600401610b4590615295565b6002600090815586908690613819613a26565b6000848152600291909101602090815260408083208584529091529020546001600160a01b0316141561385e5760405162461bcd60e51b8152600401610b45906152cc565b6115648888338989896000613a87565b600080613879613a26565b6001600160a01b03841660009081526004919091016020526040812091505b6138a182614108565b8110156139f15760006138b48383614112565b9050600073C575c9aA2d8aD43Db9FA56Ae07045212a9a7EC22634ad23880836000896040518463ffffffff1660e01b81526004016138f4939291906151f2565b60e06040518083038186803b15801561390c57600080fd5b505af4158015613920573d6000803e3d6000fd5b505050506040513d601f19601f820116820180604052508101906139449190615211565b51905061394f614128565b6040516303a0a22f60e41b815260048101849052602481018390526001600160a01b039190911690633a0a22f09060440160206040518083038186803b15801561399857600080fd5b505afa1580156139ac573d6000803e3d6000fd5b505050506040513d601f19601f820116820180604052508101906139d09190615348565b6139da90866155a0565b9450505080806139e990615402565b915050613898565b5050919050565b6060611898613a05613a26565b6001600160a01b0384166000908152600491909101602052604090206144f6565b7f8041b8421ebd495cc61f38c788c9eb100daccf9bd36aa0bb920b7a15b2e0496590565b6000613a5582613fe2565b80156118985750506001600160a01b0316600090815260008051602061584d8339815191526020526040902054431190565b6000808411613ac95760405162461bcd60e51b815260206004820152600e60248201526d125b9d985b1a5908185b5bdd5b9d60921b6044820152606401610b45565b6000613ad58988612ff3565b9050613b0f88613ae3613a26565b60008c8152600591909101602090815260408083206001600160a01b038d16845290915290209061400c565b613b4d57613b4b88613b1f613a26565b60008c8152600591909101602090815260408083206001600160a01b038d168452909152902090614501565b505b82613c1f57613b5a613ea5565b6001600160a01b03166328ff7a42888b888a6040518563ffffffff1660e01b8152600401613b8b94939291906155e1565b60206040518083038186803b158015613ba357600080fd5b505afa158015613bb7573d6000803e3d6000fd5b505050506040513d601f19601f82011682018060405250810190613bdb919061554e565b613c1f5760405162461bcd60e51b8152602060048201526015602482015274139bdd08195b9bdd59da0818dbdb1b185d195c985b605a1b6044820152606401610b45565b600080613c2a613a26565b60008c8152600291909101602090815260408083208d845290915290819020549051633352870560e21b81526001600160a01b039091169063cd4a1c1490613c7e908b908d908c908c908c9060040161560c565b6040805180830381600087803b158015613c9757600080fd5b505af1158015613cab573d6000803e3d6000fd5b505050506040513d601f19601f82011682018060405250810190613ccf91906152f6565b9092509050613cde8188615537565b9350600085613d5f57821580613cf45750600082115b15613d0757613d04600185615330565b93505b6014841115613d515760405162461bcd60e51b8152602060048201526016602482015275546f6f206d616e7920616374697665206f726465727360501b6044820152606401610b45565b613d5c8c848d61450d565b90505b8215613e2257604051633df3a23760e01b815273C575c9aA2d8aD43Db9FA56Ae07045212a9a7EC2290633df3a23790613da8908f908f908f908f908a908d908a90600401615648565b60006040518083038186803b158015613dc057600080fd5b505af4158015613dd4573d6000803e3d6000fd5b505050508a8c8b6001600160a01b03167ff58abb58bdd84b485930c24ec5e99ec42b56c04c021af823afb6ae78aa244bcc8c898c89604051613e199493929190615690565b60405180910390a45b613e508c613e2e613a26565b6001600160a01b038d1660009081526004919091016020526040902090614501565b5050505050979650505050505050565b4360008051602061584d8339815191525b6001600160a01b039092166000908152602092909252604090912055565b600060008051602061584d833981519152613e71565b6000613eaf614591565b905090565b60007f360894a13ba1a3210667c828492db98dca3e2076cc3735a920a3ca505d382bbc6109bd565b7f9acda75aebd150dd434541a4747a6dc606f4f1a59662477e67daf1fc0bf9e0aa80546001600160a01b038381166001600160a01b0319831681179093556040519116919082907f8be0079c531659141344cd1fd0a4f28419497f9722a3daafe3b4186f6b6457e090600090a35050565b60008051602061586d833981519152546001600160a01b031615613fb35760405162461bcd60e51b815260206004820152601b60248201527f7265736f6c766572207265676973746572656420616c726561647900000000006044820152606401610b45565b60008051602061586d83398151915280546001600160a01b0319166001600160a01b0392909216919091179055565b6001600160a01b0316600090815260008051602061584d8339815191526020526040902054151590565b600081815260018301602052604081205415155b9392505050565b6000613eaf6145a9565b600080808061404b61404662015180886156cf565b6145c8565b9194509250905061405c8583615330565b9150600c61406b600184615537565b61407591906156cf565b61407f9084615330565b9250600c61408e600184615537565b61409891906156e3565b6140a3906001615330565b915060006140b1848461473c565b9050808211156140bf578091505b6140cc62015180886156e3565b620151806140db8686866147c2565b6140e591906156f7565b6140ef9190615330565b9450868510156140fe57600080fd5b5050505092915050565b6000611898825490565b600061402083836148ff565b6000613eaf614929565b6000613eaf614942565b6000613eaf614962565b600080600061414b8686611e13565b90506000806000806000806000614160613a26565b60008e8152600291909101602090815260408083208f845290915290819020549051630516d8c960e11b81526001600160a01b038d8116600483015290911690630a2db1929060240160e060405180830381600087803b1580156141c357600080fd5b505af11580156141d7573d6000803e3d6000fd5b505050506040513d601f19601f820116820180604052508101906141fb91906154ae565b96509650965096509650965096508183111561428857614219613ea5565b6001600160a01b031663fb7bd3b48c8f6142338688615537565b6040518463ffffffff1660e01b81526004016142519392919061502e565b600060405180830381600087803b15801561426b57600080fd5b505af115801561427f573d6000803e3d6000fd5b50505050614303565b8183101561430357614298613ea5565b6001600160a01b0316634ba0c9b58c8f6142b28787615537565b6040518463ffffffff1660e01b81526004016142d09392919061502e565b600060405180830381600087803b1580156142ea57600080fd5b505af11580156142fe573d6000803e3d6000fd5b505050505b84156143e157604051639e8d3d5560e01b81526001600160a01b038c81166004830152602482018790526044820183905260006064830152891690639e8d3d5590608401602060405180830381600087803b15801561436157600080fd5b505af1158015614375573d6000803e3d6000fd5b505050506040513d601f19601f82011682018060405250810190614399919061554e565b50808d8c6001600160a01b03167f997c951334d5983afa515edf5d21c61d3dfec68c3d93415b92248b0f15123aeb6000896040516143d8929190615716565b60405180910390a45b83156144bf576040516305b0b29360e41b81526001600160a01b038c81166004830152602482018690526044820183905260006064830152891690635b0b293090608401602060405180830381600087803b15801561443f57600080fd5b505af1158015614453573d6000803e3d6000fd5b505050506040513d601f19601f82011682018060405250810190614477919061554e565b50808d8c6001600160a01b03167f997c951334d5983afa515edf5d21c61d3dfec68c3d93415b92248b0f15123aeb6001886040516144b6929190615716565b60405180910390a45b60006144cb8587615330565b1198506144d88688615330565b99505050505050505050935093915050565b60006140208383614985565b606061189882614a78565b60006140208383614ad3565b600081421061452e5760405162461bcd60e51b8152600401610b45906152cc565b600061453a4284615537565b905061458861454f6127106301e133806156f7565b600087815260008051602061588d833981519152602052604090205486906145789085906156f7565b61458291906156f7565b90614b22565b95945050505050565b6000613eaf69151bdad95b95985d5b1d60b21b614b93565b6000613eaf7011d95b995cda5cd5985b1d5955985d5b1d607a1b614b93565b60008080838162253d8c6145df8362010bd96155a0565b6145e991906155a0565b9050600062023ab16145fc836004615731565b61460691906157b6565b905060046146178262023ab1615731565b6146229060036155a0565b61462c91906157b6565b61463690836157e4565b9150600062164b096146498460016155a0565b61465590610fa0615731565b61465f91906157b6565b9050600461466f826105b5615731565b61467991906157b6565b61468390846157e4565b61468e90601f6155a0565b9250600061098f6146a0856050615731565b6146aa91906157b6565b9050600060506146bc8361098f615731565b6146c691906157b6565b6146d090866157e4565b90506146dd600b836157b6565b94506146ea85600c615731565b6146f58360026155a0565b6146ff91906157e4565b9150848361470e6031876157e4565b614719906064615731565b61472391906155a0565b61472d91906155a0565b9a919950975095505050505050565b6000816001148061474d5750816003145b806147585750816005145b806147635750816007145b8061476e5750816008145b80614779575081600a145b80614784575081600c145b156147915750601f611898565b816002146147a15750601e611898565b6147aa83614c24565b6147b557601c6147b8565b601d5b60ff169392505050565b60006107b28410156147d357600080fd5b838383600062253d8c60046064600c6147ed600e886157e4565b6147f791906157b6565b614803886113246155a0565b61480d91906155a0565b61481791906157b6565b614822906003615731565b61482c91906157b6565b600c8061483a600e886157e4565b61484491906157b6565b61484f90600c615731565b61485a6002886157e4565b61486491906157e4565b6148709061016f615731565b61487a91906157b6565b6004600c614889600e896157e4565b61489391906157b6565b61489f896112c06155a0565b6148a991906155a0565b6148b5906105b5615731565b6148bf91906157b6565b6148cb617d4b876157e4565b6148d591906155a0565b6148df91906155a0565b6148e991906157e4565b6148f391906157e4565b98975050505050505050565b600082600001828154811061491657614916615361565b9060005260206000200154905092915050565b6000613eaf6a14995cd95c9d99519d5b9960aa1b614b93565b6000613eaf7121bab93932b731bca1b7b73a3937b63632b960711b614b93565b6000613eaf742132b0b1b7b7283937bc3ca1b7b73a3937b63632b960591b614b93565b60008181526001830160205260408120548015614a6e5760006149a9600183615537565b85549091506000906149bd90600190615537565b9050818114614a225760008660000182815481106149dd576149dd615361565b9060005260206000200154905080876000018481548110614a0057614a00615361565b6000918252602080832090910192909255918252600188019052604090208390555b8554869080614a3357614a33615823565b600190038181906000526020600020016000905590558560010160008681526020019081526020016000206000905560019350505050611898565b6000915050611898565b60608160000180548060200260200160405190810160405280929190818152602001828054801561133f57602002820191906000526020600020905b815481526020019060010190808311614ab45750505050509050919050565b6000818152600183016020526040812054614b1a57508154600181810184556000848152602080822090930184905584548482528286019093526040902091909155611898565b506000611898565b6000808211614b3057600080fd5b6005614b3c83856156cf565b614b4790600a6156f7565b83614b5386600a6156f7565b614b5d91906156cf565b614b679190615537565b1015614b7e57614b7782846156cf565b9050611898565b614b8882846156cf565b614b77906001615330565b60008181527f4abde63c3e81aefa5764b017968bc473e83e093d7e1a10247d19e0a3e41240196020908152604080832054815170026b4b9b9b4b7339030b2323932b9b99d1607d1b9381019390935260318084018690528251808503909101815260519093019091526001600160a01b031690816119ff5760405162461bcd60e51b8152600401610b459190615839565b6000614c316004836156e3565b158015614c475750614c446064836156e3565b15155b806118985750614c59610190836156e3565b1592915050565b6001600160a01b0381168114610e2d57600080fd5b600080600060608486031215614c8a57600080fd5b8335614c9581614c60565b95602085013595506040909401359392505050565b600060208284031215614cbc57600080fd5b5035919050565b600080600060608486031215614cd857600080fd5b505081359360208301359350604090920135919050565b600081518084526020808501945080840160005b83811015614d1f57815187529582019590820190600101614d03565b509495945050505050565b606081526000614d3d6060830186614cef565b8281036020840152614d4f8186614cef565b90508281036040840152614d638185614cef565b9695505050505050565b60008060408385031215614d8057600080fd5b823591506020830135614d9281614c60565b809150509250929050565b600080600080600060a08688031215614db557600080fd5b8535945060208601359350604086013592506060860135614dd581614c60565b9150608086013562ffffff81168114614ded57600080fd5b809150509295509295909350565b8015158114610e2d57600080fd5b600060208284031215614e1b57600080fd5b813561402081614dfb565b600080600060608486031215614e3b57600080fd5b83359250602084013591506040840135614e5481614c60565b809150509250925092565b60008060408385031215614e7257600080fd5b50508035926020909101359150565b6020808252825182820181905260009190848201906040850190845b81811015614ec25783516001600160a01b031683529284019291840191600101614e9d565b50909695505050505050565b6020808252825182820181905260009190848201906040850190845b81811015614ec257835183529284019291840191600101614eea565b60028110610e2d57600080fd5b600080600080600060a08688031215614f2b57600080fd5b85359450602086013593506040860135614f4481614f06565b94979396509394606081013594506080013592915050565b60008060408385031215614f6f57600080fd5b8235614f7a81614c60565b91506020830135614d9281614c60565b600080600060608486031215614f9f57600080fd5b8335925060208401359150604084013565ffffffffffff81168114614e5457600080fd5b600060208284031215614fd557600080fd5b813561402081614c60565b6020815260006140206020830184614cef565b600080600080600060a0868803121561500b57600080fd5b505083359560208501359550604085013594606081013594506080013592509050565b6001600160a01b039390931683526020830191909152604082015260600190565b600080600080600080600080610100898b03121561506c57600080fd5b885197506020890151965060408901519550606089015194506080890151935060a0890151925060c0890151915060e08901516150a881614dfb565b809150509295985092959890939650565b634e487b7160e01b600052604160045260246000fd5b600082601f8301126150e057600080fd5b8151602067ffffffffffffffff808311156150fd576150fd6150b9565b8260051b604051601f19603f83011681018181108482111715615122576151226150b9565b60405293845285810183019383810192508785111561514057600080fd5b83870191505b8482101561515f57815183529183019190830190615146565b979650505050505050565b60008060006060848603121561517f57600080fd5b835167ffffffffffffffff8082111561519757600080fd5b6151a3878388016150cf565b945060208601519150808211156151b957600080fd5b6151c5878388016150cf565b935060408601519150808211156151db57600080fd5b506151e8868287016150cf565b9150509250925092565b92835260208301919091526001600160a01b0316604082015260600190565b600060e0828403121561522357600080fd5b60405160e0810181811067ffffffffffffffff82111715615246576152466150b9565b8060405250825181526020830151602082015260408301516040820152606083015160608201526080830151608082015260a083015160a082015260c083015160c08201528091505092915050565b6020808252601f908201527f5265656e7472616e637947756172643a207265656e7472616e742063616c6c00604082015260600190565b60208082526010908201526f496e76616c6964206d6174757269747960801b604082015260600190565b6000806040838503121561530957600080fd5b505080516020909101519092909150565b634e487b7160e01b600052601160045260246000fd5b600082198211156153435761534361531a565b500190565b60006020828403121561535a57600080fd5b5051919050565b634e487b7160e01b600052603260045260246000fd5b6000815180845260005b8181101561539d57602081850181015186830182015201615381565b818111156153af576000602083870101525b50601f01601f19169290920160200192915050565b8281526040602082015260006153dd6040830184615377565b949350505050565b6000602082840312156153f757600080fd5b815161402081614c60565b60006000198214156154165761541661531a565b5060010190565b60008060006060848603121561543257600080fd5b835161543d81614f06565b602085015160409095015190969495509392505050565b6002811061547257634e487b7160e01b600052602160045260246000fd5b9052565b65ffffffffffff8616815260a081016154926020830187615454565b8460408301528360608301528260808301529695505050505050565b600080600080600080600060e0888a0312156154c957600080fd5b5050855160208701516040880151606089015160808a015160a08b015160c0909b0151949c939b50919990985090965094509092509050565b6020808252818101527f4f776e61626c653a2063616c6c6572206973206e6f7420746865206f776e6572604082015260600190565b6000828210156155495761554961531a565b500390565b60006020828403121561556057600080fd5b815161402081614dfb565b60006020828403121561557d57600080fd5b815167ffffffffffffffff81111561559457600080fd5b6153dd848285016150cf565b600080821280156001600160ff1b03849003851316156155c2576155c261531a565b600160ff1b83900384128116156155db576155db61531a565b50500190565b6001600160a01b03851681526020810184905260408101839052608081016145886060830184615454565b60a0810161561a8288615454565b6001600160a01b03959095166020820152604081019390935260608301919091521515608090910152919050565b878152602081018790526001600160a01b038616604082015260e081016156726060830187615454565b8460808301528360a08301528260c083015298975050505050505050565b6080810161569e8287615454565b84602083015283604083015282606083015295945050505050565b634e487b7160e01b600052601260045260246000fd5b6000826156de576156de6156b9565b500490565b6000826156f2576156f26156b9565b500690565b60008160001904831182151516156157115761571161531a565b500290565b604081016157248285615454565b8260208301529392505050565b60006001600160ff1b03818413828413808216868404861116156157575761575761531a565b600160ff1b60008712828116878305891216156157765761577661531a565b600087129250878205871284841616156157925761579261531a565b878505871281841616156157a8576157a861531a565b505050929093029392505050565b6000826157c5576157c56156b9565b600160ff1b8214600019841416156157df576157df61531a565b500590565b60008083128015600160ff1b8501841216156158025761580261531a565b6001600160ff1b038401831381161561581d5761581d61531a565b50500390565b634e487b7160e01b600052603160045260246000fd5b602081526000614020602083018461537756fe19bfb841e3f2b667d170c57909e7685dd6a0cee80d36344e04905cfd7d917bd74abde63c3e81aefa5764b017968bc473e83e093d7e1a10247d19e0a3e412401855cc3066d618b5a688ac1f2a8234e21c685f7432b4230a1660309640d60d8f6455cc3066d618b5a688ac1f2a8234e21c685f7432b4230a1660309640d60d8f65a2646970667358221220e92eef1fce50d156230483ba508edcdfd7ff056d654c46c7cecc289a13f98c1964736f6c63430008090033",
  "deployedBytecode": "0x6080604052600436106102725760003560e01c8063715018a61161014f578063b3cb8450116100c1578063e99d05381161007a578063e99d053814610836578063eb092a2614610856578063f2fde38b14610876578063faca409b14610896578063fb54a6b3146108b6578063fc700810146108d657600080fd5b8063b3cb845014610767578063bfd10cf614610787578063cb9d7401146107a7578063e0997659146107e1578063e906c100146107f6578063e95dc1831461081657600080fd5b80638a981745116101135780638a981745146106925780638b36d833146106b25780638da5cb5b146106d2578063953dbcaa146106e7578063a02be3dc14610707578063a963ad7f1461072757600080fd5b8063715018a6146105fd578063766cb64e1461061257806385323e1a14610632578063870cf8ab14610652578063891d59651461067257600080fd5b80632f749574116101e857806349f2ccbf116101ac57806349f2ccbf146104fb578063529a356f1461051b57806355aceb4e1461053b5780635c347765146105685780635ca65d57146105bd57806370c641a6146105dd57600080fd5b80632f74957414610459578063381ada1f146104795780633d03b9da146104a6578063448255c7146104c8578063485cc955146104db57600080fd5b8063223652611161023a578063223652611461039d578063268bb279146103cd57806329985e5a146103ef5780632af64bd3146104045780632e6c5e67146104195780632e77aea71461043957600080fd5b80630312b5281461027757806303e5fb59146102d957806304f3bcec146103215780630594de6e1461034e57806317b72ff41461037d575b600080fd5b34801561028357600080fd5b50610297610292366004614c75565b6108f6565b604080519889526020890197909752958701949094526060860192909252608085015260a084015260c0830152151560e0820152610100015b60405180910390f35b3480156102e557600080fd5b506103136102f4366004614caa565b600090815260008051602061588d833981519152602052604090205490565b6040519081526020016102d0565b34801561032d57600080fd5b506103366109ab565b6040516001600160a01b0390911681526020016102d0565b34801561035a57600080fd5b5061036e610369366004614cc3565b6109cc565b6040516102d093929190614d2a565b34801561038957600080fd5b50610313610398366004614d6d565b610a8b565b3480156103a957600080fd5b506103bd6103b8366004614d9d565b610b20565b60405190151581526020016102d0565b3480156103d957600080fd5b506103ed6103e8366004614e09565b610e1e565b005b3480156103fb57600080fd5b506103ed610e39565b34801561041057600080fd5b506103bd610fe6565b34801561042557600080fd5b506103bd610434366004614caa565b61114c565b34801561044557600080fd5b50610313610454366004614e26565b61116c565b34801561046557600080fd5b506103ed610474366004614e5f565b611202565b34801561048557600080fd5b50610499610494366004614caa565b6112d6565b6040516102d09190614e81565b3480156104b257600080fd5b506104bb61134b565b6040516102d09190614ece565b6103bd6104d6366004614f13565b61146d565b3480156104e757600080fd5b506103ed6104f6366004614f5c565b611579565b34801561050757600080fd5b506103bd610516366004614f8a565b6116f3565b34801561052757600080fd5b506103bd610536366004614fc3565b61188d565b34801561054757600080fd5b5061055b610556366004614caa565b61189e565b6040516102d09190614fe0565b34801561057457600080fd5b50610588610583366004614d6d565b611a06565b604080519788526020880196909652948601939093526060850191909152608084015260a083015260c082015260e0016102d0565b3480156105c957600080fd5b506103ed6105d8366004614e5f565b611af1565b3480156105e957600080fd5b506103136105f8366004614d6d565b611bb4565b34801561060957600080fd5b506103ed611c4c565b34801561061e57600080fd5b506103ed61062d366004614ff3565b611c87565b34801561063e57600080fd5b5061033661064d366004614e5f565b611e13565b34801561065e57600080fd5b506103ed61066d366004614fc3565b611e75565b34801561067e57600080fd5b5061031361068d366004614caa565b611ed4565b34801561069e57600080fd5b506103366106ad366004614e5f565b611ef2565b3480156106be57600080fd5b506103ed6106cd366004614caa565b611f24565b3480156106de57600080fd5b50610336612575565b3480156106f357600080fd5b5061036e610702366004614cc3565b61259d565b34801561071357600080fd5b5061055b610722366004614caa565b6125fc565b34801561073357600080fd5b50610747610742366004614caa565b61275d565b604080516001600160a01b039384168152929091166020830152016102d0565b34801561077357600080fd5b506103bd610782366004614caa565b612cb8565b34801561079357600080fd5b5061055b6107a2366004614caa565b612db6565b3480156107b357600080fd5b506103136107c2366004614caa565b60009081526000805160206158ad833981519152602052604090205490565b3480156107ed57600080fd5b506104bb612f17565b34801561080257600080fd5b50610313610811366004614e26565b612f5a565b34801561082257600080fd5b50610313610831366004614d6d565b612ff3565b34801561084257600080fd5b506103bd610851366004614caa565b6134ee565b34801561086257600080fd5b5061055b610871366004614caa565b6135e3565b34801561088257600080fd5b506103ed610891366004614fc3565b613744565b3480156108a257600080fd5b506103bd6108b1366004614f13565b6137e1565b3480156108c257600080fd5b506103136108d1366004614fc3565b61386e565b3480156108e257600080fd5b506104bb6108f1366004614fc3565b6139f8565b60008060008060008060008073__$1f9ad3a48ce553524574a0c26027261f08$__630312b5288c8c8c6040518463ffffffff1660e01b815260040161093d9392919061502e565b6101006040518083038186803b15801561095657600080fd5b505af415801561096a573d6000803e3d6000fd5b505050506040513d601f19601f8201168201806040525081019061098e919061504f565b975097509750975097509750975097509397509397509397509397565b600060008051602061586d8339815191525b546001600160a01b0316919050565b606080606060006109db613a26565b600088815260029190910160209081526040808320898452909152908190205490516325fb168b60e11b8152600481018790526001600160a01b0390911691508190634bf62d16906024015b60006040518083038186803b158015610a3f57600080fd5b505afa158015610a53573d6000803e3d6000fd5b505050506040513d6000823e601f3d908101601f19168201604052610a7b919081019061516a565b9350935093505093509350939050565b6040516295a47160e71b815260009073__$1f9ad3a48ce553524574a0c26027261f08$__90634ad2388090610ac8908690859087906004016151f2565b60e06040518083038186803b158015610ae057600080fd5b505af4158015610af4573d6000803e3d6000fd5b505050506040513d601f19601f82011682018060405250810190610b189190615211565b519392505050565b600060026000541415610b4e5760405162461bcd60e51b8152600401610b4590615295565b60405180910390fd5b6002600090815585908590610b61613a26565b6000848152600291909101602090815260408083208584529091529020546001600160a01b03161415610ba65760405162461bcd60e51b8152600401610b45906152cc565b333b15610bea5760405162461bcd60e51b815260206004820152601260248201527143616c6c6572206d75737420626520454f4160701b6044820152606401610b45565b610bf333613a4a565b610c365760405162461bcd60e51b815260206004820152601460248201527343616c6c6572206973206e6f742061637469766560601b6044820152606401610b45565b610c408786612ff3565b50604051639c599f8b60e01b81523360048201526001600160a01b038616602482015260448101899052606481018890526084810187905262ffffff851660a4820152600090819073__$1f9ad3a48ce553524574a0c26027261f08$__90639c599f8b9060c401604080518083038186803b158015610cbe57600080fd5b505af4158015610cd2573d6000803e3d6000fd5b505050506040513d601f19601f82011682018060405250810190610cf691906152f6565b9092509050808215610d26576000610d168b8b8b60008860006001613a87565b9050610d228183615330565b9150505b8015610e0757888a896001600160a01b03167f347d8f9576f47b3bd7a4821cd3d3d4171968cdd36680d4abaca7de302d836f998e85604051610d72929190918252602082015260400190565b60405180910390a460405163300074c960e01b815273__$1f9ad3a48ce553524574a0c26027261f08$__9063300074c990610db5908d908d908d906004016151f2565b60206040518083038186803b158015610dcd57600080fd5b505af4158015610de1573d6000803e3d6000fd5b505050506040513d601f19601f82011682018060405250810190610e059190615348565b505b600195505050505050600160005595945050505050565b8015610e3057610e2d33613e60565b50565b610e2d33613e8f565b6000610e4361134b565b905060005b8151811015610fe2576000828281518110610e6557610e65615361565b602002602001015190506000610e8660008051602061586d83398151915290565b54604080517f5265736f6c766572206d697373696e67207461726765743a200000000000000060208201526039808201869052825180830390910181526059820192839052636795dbcd60e01b9092526001600160a01b0390921691636795dbcd91610ef791869190605d016153c4565b60206040518083038186803b158015610f0f57600080fd5b505afa158015610f23573d6000803e3d6000fd5b505050506040513d601f19601f82011682018060405250810190610f4791906153e5565b60008381527f4abde63c3e81aefa5764b017968bc473e83e093d7e1a10247d19e0a3e4124019602090815260409182902080546001600160a01b0319166001600160a01b03851690811790915582518681529182015281519293507f88a93678a3692f6789d9546fc621bf7234b101ddb7d4fe479455112831b8aa68929081900390910190a150508080610fda90615402565b915050610e48565b5050565b600080610ff161134b565b905060005b815181101561114357600082828151811061101357611013615361565b6020026020010151905061103260008051602061586d83398151915290565b600082815260019190910160205260409020546001600160a01b031660008051602061586d833981519152546040516321f8a72160e01b8152600481018490526001600160a01b03909116906321f8a7219060240160206040518083038186803b15801561109f57600080fd5b505afa1580156110b3573d6000803e3d6000fd5b505050506040513d601f19601f820116820180604052508101906110d791906153e5565b6001600160a01b0316141580611121575060008181527f4abde63c3e81aefa5764b017968bc473e83e093d7e1a10247d19e0a3e412401960205260409020546001600160a01b0316155b15611130576000935050505090565b508061113b81615402565b915050610ff6565b50600191505090565b6000611156613a26565b6000928352600301602052506040902054151590565b6040516295a47160e71b815260009073__$1f9ad3a48ce553524574a0c26027261f08$__90634ad23880906111a9908790879087906004016151f2565b60e06040518083038186803b1580156111c157600080fd5b505af41580156111d5573d6000803e3d6000fd5b505050506040513d601f19601f820116820180604052508101906111f99190615211565b51949350505050565b6127108111156112545760405162461bcd60e51b815260206004820152601a60248201527f496e76616c6964206175746f2d726f6c6c2066656520726174650000000000006044820152606401610b45565b60008281526000805160206158ad83398151915260205260409020548181146112d15760008381526000805160206158ad833981519152602090815260409182902084905581518381529081018490527fdfbb9051e39a726dacd506a01fecef2277ab8adc7423037867c554573f179fdb91015b60405180910390a15b505050565b60606112e0613a26565b600083815260209182526040908190208054825181850281018501909352808352919290919083018282801561133f57602002820191906000526020600020905b81546001600160a01b03168152600190910190602001808311611321575b50505050509050919050565b60408051600580825260c082019092526060916020820160a080368337019050509050742132b0b1b7b7283937bc3ca1b7b73a3937b63632b960591b8160008151811061139a5761139a615361565b6020026020010181815250507121bab93932b731bca1b7b73a3937b63632b960711b816001815181106113cf576113cf615361565b6020026020010181815250507011d95b995cda5cd5985b1d5955985d5b1d607a1b8160028151811061140357611403615361565b6020026020010181815250506a14995cd95c9d99519d5b9960aa1b8160038151811061143157611431615361565b60200260200101818152505069151bdad95b95985d5b1d60b21b8160048151811061145e5761145e615361565b60200260200101818152505090565b6000600260005414156114925760405162461bcd60e51b8152600401610b4590615295565b60026000908155869086906114a5613a26565b6000848152600291909101602090815260408083208584529091529020546001600160a01b031614156114ea5760405162461bcd60e51b8152600401610b45906152cc565b6114f2613ea5565b6001600160a01b03166396994e3734338b896040518563ffffffff1660e01b81526004016115229392919061502e565b6000604051808303818588803b15801561153b57600080fd5b505af115801561154f573d6000803e3d6000fd5b50505050506115648888338989896000613a87565b50600192505050600160005595945050505050565b600154610100900460ff161580801561159657506001805460ff16105b806115af5750303b1580156115af57506001805460ff16145b6116125760405162461bcd60e51b815260206004820152602e60248201527f496e697469616c697a61626c653a20636f6e747261637420697320616c72656160448201526d191e481a5b9a5d1a585b1a5e995960921b6064820152608401610b45565b6001805460ff1916811790558015611634576001805461ff0019166101001790555b600061163e613eb4565b6001600160a01b031614156116a05760405162461bcd60e51b815260206004820152602260248201527f4d7573742062652063616c6c65642066726f6d2070726f787920636f6e74726160448201526118dd60f21b6064820152608401610b45565b6116a983613edc565b6116b282613f4d565b80156112d1576001805461ff00191681556040519081527f7f26b83ff96e1f2b6a682f133852f6798a09c465da95921460cefb3847402498906020016112c8565b6000600260005414156117185760405162461bcd60e51b8152600401610b4590615295565b600260009081558490849061172b613a26565b6000848152600291909101602090815260408083208584529091529020546001600160a01b031614156117705760405162461bcd60e51b8152600401610b45906152cc565b600061177a613a26565b60008881526002919091016020908152604080832089845290915280822054905163504b89bd60e01b815233600482015265ffffffffffff881660248201526001600160a01b03909116925081908190849063504b89bd90604401606060405180830381600087803b1580156117ef57600080fd5b505af1158015611803573d6000803e3d6000fd5b505050506040513d601f19601f82011682018060405250810190611827919061541d565b92509250925089336001600160a01b03167f4d71330c358e4f44590905c3373d1e04529d36b64e552c5cb51813ef62d120d78a868d878760405161186f959493929190615476565b60405180910390a36001965050505050505060016000559392505050565b600061189882613fe2565b92915050565b606060006118aa613a26565b6000848152602091909152604090205467ffffffffffffffff8111156118d2576118d26150b9565b6040519080825280602002602001820160405280156118fb578160200160208202803683370190505b50905060005b611909613a26565b600085815260209190915260409020548110156119ff57600061192a613a26565b60008681526020919091526040902080548390811061194b5761194b615361565b6000918252602091829020015460408051631b3508b760e01b815290516001600160a01b0390921693508392631b3508b792600480840193829003018186803b15801561199757600080fd5b505afa1580156119ab573d6000803e3d6000fd5b505050506040513d601f19601f820116820180604052508101906119cf9190615348565b8383815181106119e1576119e1615361565b602090810291909101015250806119f781615402565b915050611901565b5092915050565b6000806000806000806000611a3f89611a1d613a26565b6001600160a01b038b166000908152600491909101602052604090209061400c565b15611ae557604051635c34776560e01b8152600481018a90526001600160a01b038916602482015273__$1f9ad3a48ce553524574a0c26027261f08$__90635c3477659060440160e06040518083038186803b158015611a9e57600080fd5b505af4158015611ab2573d6000803e3d6000fd5b505050506040513d601f19601f82011682018060405250810190611ad691906154ae565b96509650965096509650965096505b92959891949750929550565b612710811115611b3c5760405162461bcd60e51b8152602060048201526016602482015275496e76616c6964206f7264657220666565207261746560501b6044820152606401610b45565b600082815260008051602061588d83398151915260205260409020548181146112d157600083815260008051602061588d833981519152602090815260409182902084905581518381529081018490527fff4528c215dc00005504418aa82be3bb2439c39be2eb30fd44012f5e79d168e291016112c8565b6040516295a47160e71b815260009073__$1f9ad3a48ce553524574a0c26027261f08$__90634ad2388090611bf1908690859087906004016151f2565b60e06040518083038186803b158015611c0957600080fd5b505af4158015611c1d573d6000803e3d6000fd5b505050506040513d601f19601f82011682018060405250810190611c419190615211565b60c001519392505050565b33611c55612575565b6001600160a01b031614611c7b5760405162461bcd60e51b8152600401610b4590615502565b611c856000613edc565b565b33611c90612575565b6001600160a01b031614611cb65760405162461bcd60e51b8152600401610b4590615502565b60008311611d065760405162461bcd60e51b815260206004820152601760248201527f496e76616c696420636f6d706f756e6420666163746f720000000000000000006044820152606401610b45565b611d0f8561114c565b15611d525760405162461bcd60e51b8152602060048201526013602482015272105b1c9958591e481a5b9a5d1a585b1a5e9959606a1b6044820152606401610b45565b611d5a614027565b6001600160a01b031663a2d7d02d86602486611d77896003614031565b6040516001600160e01b031960e087901b168152600481019490945260ff909216602484015260448301526064820152608401600060405180830381600087803b158015611dc457600080fd5b505af1158015611dd8573d6000803e3d6000fd5b5050505083611de5613a26565b60008781526003919091016020526040902055611e028583611af1565b611e0c8582611202565b5050505050565b6000611e1d613a26565b60008481526001919091016020526040812090611e38613a26565b600095865260020160209081526040808720958752948152848620546001600160a01b039081168352908201929092529092019092205416919050565b6000611e7f613a26565b6001600160a01b03831660009081526004919091016020526040812091505b611ea782614108565b8110156112d157611ec1611ebb8383614112565b84612ff3565b5080611ecc81615402565b915050611e9e565b6000611ede613a26565b600092835260030160205250604090205490565b6000611efc613a26565b600093845260020160209081526040808520938552929052509020546001600160a01b031690565b60026000541415611f475760405162461bcd60e51b8152600401610b4590615295565b600260009081558190611f58613a26565b6000838152602091909152604090205411611fce5760405162461bcd60e51b815260206004820152603060248201527f4e6f206c656e64696e67206d61726b65747320657869737420666f722061207360448201526f706563696669632063757272656e637960801b6064820152608401610b45565b6000611fd8613a26565b600084815260209190915260408120805490925082908290611ffc57611ffc615361565b600091825260208220015483546001600160a01b0390911692508390600190811061202957612029615361565b600091825260208220015484546001600160a01b0390911692506120ed90859061205590600190615537565b8154811061206557612065615361565b600091825260209182902001546040805163e16695b560e01b815290516001600160a01b039092169263e16695b592600480840193829003018186803b1580156120ae57600080fd5b505afa1580156120c2573d6000803e3d6000fd5b505050506040513d601f19601f820116820180604052508101906120e69190615348565b6003614031565b60405163baa2675760e01b8152600481018290529091506000906001600160a01b0385169063baa2675790602401602060405180830381600087803b15801561213557600080fd5b505af1158015612149573d6000803e3d6000fd5b505050506040513d601f19601f8201168201806040525081019061216d9190615348565b905060005b855481101561221c578554600090829061218e90600190615537565b146121c9578661219f836001615330565b815481106121af576121af615361565b6000918252602090912001546001600160a01b03166121cb565b855b9050808783815481106121e0576121e0615361565b600091825260209091200180546001600160a01b0319166001600160a01b0392909216919091179055508061221481615402565b915050612172565b506000612227613a26565b6000898152600191909101602090815260408083206001600160a01b03808a16855292529091205416905061225a614027565b6001600160a01b031663348183cf8984876001600160a01b031663e16695b56040518163ffffffff1660e01b815260040160206040518083038186803b1580156122a357600080fd5b505afa1580156122b7573d6000803e3d6000fd5b505050506040513d601f19601f820116820180604052508101906122db9190615348565b886001600160a01b03166371613c2d6040518163ffffffff1660e01b815260040160206040518083038186803b15801561231457600080fd5b505afa158015612328573d6000803e3d6000fd5b505050506040513d601f19601f8201168201806040525081019061234c9190615348565b60008e81526000805160206158ad8339815191526020526040902054604051634955b91f60e11b8152600481018a90526001600160a01b038916906392ab723e9060240160206040518083038186803b1580156123a857600080fd5b505afa1580156123bc573d6000803e3d6000fd5b505050506040513d601f19601f820116820180604052508101906123e09190615348565b6040516001600160e01b031960e089901b1681526004810196909652602486019490945260448501929092526064840152608483015260a482015260c401600060405180830381600087803b15801561243857600080fd5b505af115801561244c573d6000803e3d6000fd5b5050505084612459613a26565b60008a81526002919091016020908152604080832087845282529182902080546001600160a01b0319166001600160a01b03949094169390931790925580518a815291820184905281018490527f0c6f5a3bc801362dc3d24c87799fa831f5a601c5dbd8bed4064907844eef97369060600160405180910390a173__$1f9ad3a48ce553524574a0c26027261f08$__63300074c989856124f761411e565b6040518463ffffffff1660e01b8152600401612515939291906151f2565b60206040518083038186803b15801561252d57600080fd5b505af4158015612541573d6000803e3d6000fd5b505050506040513d601f19601f820116820180604052508101906125659190615348565b5050600160005550505050505050565b60007f9acda75aebd150dd434541a4747a6dc606f4f1a59662477e67daf1fc0bf9e0aa6109bd565b606080606060006125ac613a26565b6000888152600291909101602090815260408083208984529091529081902054905163d866d35560e01b8152600481018790526001600160a01b039091169150819063d866d35590602401610a27565b60606000612608613a26565b6000848152602091909152604090205467ffffffffffffffff811115612630576126306150b9565b604051908082528060200260200182016040528015612659578160200160208202803683370190505b50905060005b612667613a26565b600085815260209190915260409020548110156119ff576000612688613a26565b6000868152602091909152604090208054839081106126a9576126a9615361565b600091825260209182902001546040805163e16695b560e01b815290516001600160a01b039092169350839263e16695b592600480840193829003018186803b1580156126f557600080fd5b505afa158015612709573d6000803e3d6000fd5b505050506040513d601f19601f8201168201806040525081019061272d9190615348565b83838151811061273f5761273f615361565b6020908102919091010152508061275581615402565b91505061265f565b60008033612769612575565b6001600160a01b03161461278f5760405162461bcd60e51b8152600401610b4590615502565b612797614027565b6001600160a01b031663f7b637bb846040518263ffffffff1660e01b81526004016127c491815260200190565b60206040518083038186803b1580156127dc57600080fd5b505afa1580156127f0573d6000803e3d6000fd5b505050506040513d601f19601f82011682018060405250810190612814919061554e565b61287f5760405162461bcd60e51b815260206004820152603660248201527f4c656e64696e67206d61726b6574206861736e2774206265656e20696e697469604482015275616c697a656420696e207468652063757272656e637960501b6064820152608401610b45565b612887614128565b6001600160a01b0316631eae0893846040518263ffffffff1660e01b81526004016128b491815260200190565b60206040518083038186803b1580156128cc57600080fd5b505afa1580156128e0573d6000803e3d6000fd5b505050506040513d601f19601f82011682018060405250810190612904919061554e565b6129495760405162461bcd60e51b81526020600482015260166024820152754e6f6e20737570706f727465642063757272656e637960501b6044820152606401610b45565b6000612953613a26565b600085815260039190910160205260408120549150612970613a26565b600086815260209190915260409020541115612a555761298e613a26565b60008581526020919091526040902060016129a7613a26565b600087815260209190915260409020546129c19190615537565b815481106129d1576129d1615361565b600091825260209182902001546040805163e16695b560e01b815290516001600160a01b039092169263e16695b592600480840193829003018186803b158015612a1a57600080fd5b505afa158015612a2e573d6000803e3d6000fd5b505050506040513d601f19601f82011682018060405250810190612a529190615348565b90505b6000612a62826003614031565b9050612a6c614132565b6001600160a01b0316634672758f86612a83613a26565b60008981526003919091016020526040908190205490516001600160e01b031960e085901b1681526004810192909252602482015260448101849052606401602060405180830381600087803b158015612adc57600080fd5b505af1158015612af0573d6000803e3d6000fd5b505050506040513d601f19601f82011682018060405250810190612b1491906153e5565b9350612b1e614132565b6001600160a01b031663a97c4b536040518163ffffffff1660e01b8152600401602060405180830381600087803b158015612b5857600080fd5b505af1158015612b6c573d6000803e3d6000fd5b505050506040513d601f19601f82011682018060405250810190612b9091906153e5565b9250612b9a613a26565b600086815260209182526040812080546001810182559082529190200180546001600160a01b0319166001600160a01b03861617905583612bd9613a26565b600087815260029190910160209081526040808320858452909152902080546001600160a01b0319166001600160a01b039290921691909117905582612c1d613a26565b6000878152600191909101602090815260408083206001600160a01b0389811680865291909352922080546001600160a01b0319169390911692909217909155857fddd37b9ca90662e4888b4057e9f890ba1296b923607a46fc817f2e569b96f63785612c88613a26565b60008a8152602091909152604090819020549051612ca9929190879061502e565b60405180910390a35050915091565b600033612cc3612575565b6001600160a01b031614612ce95760405162461bcd60e51b8152600401610b4590615502565b60005b612cf4613a26565b60008481526020919091526040902054811015612dad576000612d15613a26565b600085815260209190915260409020805483908110612d3657612d36615361565b60009182526020822001546040805163280dce3760e21b815290516001600160a01b039092169350839263a03738dc9260048084019382900301818387803b158015612d8157600080fd5b505af1158015612d95573d6000803e3d6000fd5b50505050508080612da590615402565b915050612cec565b50600192915050565b60606000612dc2613a26565b6000848152602091909152604090205467ffffffffffffffff811115612dea57612dea6150b9565b604051908082528060200260200182016040528015612e13578160200160208202803683370190505b50905060005b612e21613a26565b600085815260209190915260409020548110156119ff576000612e42613a26565b600086815260209190915260409020805483908110612e6357612e63615361565b60009182526020918290200154604080516371613c2d60e01b815290516001600160a01b03909216935083926371613c2d92600480840193829003018186803b158015612eaf57600080fd5b505afa158015612ec3573d6000803e3d6000fd5b505050506040513d601f19601f82011682018060405250810190612ee79190615348565b838381518110612ef957612ef9615361565b60209081029190910101525080612f0f81615402565b915050612e19565b6040805160018082528183019092526060916020808301908036833701905050905069151bdad95b95985d5b1d60b21b8160008151811061145e5761145e615361565b6040516295a47160e71b815260009073__$1f9ad3a48ce553524574a0c26027261f08$__90634ad2388090612f97908790879087906004016151f2565b60e06040518083038186803b158015612faf57600080fd5b505af4158015612fc3573d6000803e3d6000fd5b505050506040513d601f19601f82011682018060405250810190612fe79190615211565b60200151949350505050565b604051635b0f7aad60e11b8152600481018390526001600160a01b03821660248201526000908190819073__$1f9ad3a48ce553524574a0c26027261f08$__9063b61ef55a9060440160006040518083038186803b15801561305457600080fd5b505af4158015613068573d6000803e3d6000fd5b505050506040513d6000823e601f3d908101601f19168201604052613090919081019061556b565b905060005b81518110156134115760006130a8613a26565b600201600088815260200190815260200160002060008484815181106130d0576130d0615361565b6020026020010151815260200190815260200160002060009054906101000a90046001600160a01b031690506000816001600160a01b031663e16695b56040518163ffffffff1660e01b815260040160206040518083038186803b15801561313757600080fd5b505afa15801561314b573d6000803e3d6000fd5b505050506040513d601f19601f8201168201806040525081019061316f9190615348565b9050600073__$1f9ad3a48ce553524574a0c26027261f08$__63300074c98a848b6040518463ffffffff1660e01b81526004016131ae939291906151f2565b60206040518083038186803b1580156131c657600080fd5b505af41580156131da573d6000803e3d6000fd5b505050506040513d601f19601f820116820180604052508101906131fe9190615348565b905060008061320e8b858c61413c565b909250905061321d828a615330565b985080156132b35760405163300074c960e01b815273__$1f9ad3a48ce553524574a0c26027261f08$__9063300074c990613260908e9088908f906004016151f2565b60206040518083038186803b15801561327857600080fd5b505af415801561328c573d6000803e3d6000fd5b505050506040513d601f19601f820116820180604052508101906132b09190615348565b92505b82156132be57600197505b821580156132ca575081155b1561333b576133398787815181106132e4576132e4615361565b60200260200101516132f4613a26565b60050160008e815260200190815260200160002060008d6001600160a01b03166001600160a01b031681526020019081526020016000206144ea90919063ffffffff16565b505b613343614027565b6001600160a01b031663eeac29d88c8c60018b516133619190615537565b8a14613390578a6133738b6001615330565b8151811061338357613383615361565b6020026020010151613393565b60005b6040516001600160e01b031960e086901b16815260048101939093526001600160a01b0390911660248301526044820152606401600060405180830381600087803b1580156133e157600080fd5b505af11580156133f5573d6000803e3d6000fd5b505050505050505050808061340990615402565b915050613095565b508215801561341e575081155b80156134b1575061342d614027565b60405163386320d360e11b8152600481018790526001600160a01b03868116602483015291909116906370c641a69060440160206040518083038186803b15801561347757600080fd5b505afa15801561348b573d6000803e3d6000fd5b505050506040513d601f19601f820116820180604052508101906134af9190615348565b155b156134e6576134e4856134c2613a26565b6001600160a01b038716600090815260049190910160205260409020906144ea565b505b505092915050565b6000336134f9612575565b6001600160a01b03161461351f5760405162461bcd60e51b8152600401610b4590615502565b60005b61352a613a26565b60008481526020919091526040902054811015612dad57600061354b613a26565b60008581526020919091526040902080548390811061356c5761356c615361565b600091825260208220015460408051630b0863e760e11b815290516001600160a01b0390921693508392631610c7ce9260048084019382900301818387803b1580156135b757600080fd5b505af11580156135cb573d6000803e3d6000fd5b505050505080806135db90615402565b915050613522565b606060006135ef613a26565b6000848152602091909152604090205467ffffffffffffffff811115613617576136176150b9565b604051908082528060200260200182016040528015613640578160200160208202803683370190505b50905060005b61364e613a26565b600085815260209190915260409020548110156119ff57600061366f613a26565b60008681526020919091526040902080548390811061369057613690615361565b6000918252602091829020015460408051632f05aa6d60e11b815290516001600160a01b0390921693508392635e0b54da92600480840193829003018186803b1580156136dc57600080fd5b505afa1580156136f0573d6000803e3d6000fd5b505050506040513d601f19601f820116820180604052508101906137149190615348565b83838151811061372657613726615361565b6020908102919091010152508061373c81615402565b915050613646565b3361374d612575565b6001600160a01b0316146137735760405162461bcd60e51b8152600401610b4590615502565b6001600160a01b0381166137d85760405162461bcd60e51b815260206004820152602660248201527f4f776e61626c653a206e6577206f776e657220697320746865207a65726f206160448201526564647265737360d01b6064820152608401610b45565b610e2d81613edc565b6000600260005414156138065760405162461bcd60e51b8152600401610b4590615295565b6002600090815586908690613819613a26565b6000848152600291909101602090815260408083208584529091529020546001600160a01b0316141561385e5760405162461bcd60e51b8152600401610b45906152cc565b6115648888338989896000613a87565b600080613879613a26565b6001600160a01b03841660009081526004919091016020526040812091505b6138a182614108565b8110156139f15760006138b48383614112565b9050600073__$1f9ad3a48ce553524574a0c26027261f08$__634ad23880836000896040518463ffffffff1660e01b81526004016138f4939291906151f2565b60e06040518083038186803b15801561390c57600080fd5b505af4158015613920573d6000803e3d6000fd5b505050506040513d601f19601f820116820180604052508101906139449190615211565b51905061394f614128565b6040516303a0a22f60e41b815260048101849052602481018390526001600160a01b039190911690633a0a22f09060440160206040518083038186803b15801561399857600080fd5b505afa1580156139ac573d6000803e3d6000fd5b505050506040513d601f19601f820116820180604052508101906139d09190615348565b6139da90866155a0565b9450505080806139e990615402565b915050613898565b5050919050565b6060611898613a05613a26565b6001600160a01b0384166000908152600491909101602052604090206144f6565b7f8041b8421ebd495cc61f38c788c9eb100daccf9bd36aa0bb920b7a15b2e0496590565b6000613a5582613fe2565b80156118985750506001600160a01b0316600090815260008051602061584d8339815191526020526040902054431190565b6000808411613ac95760405162461bcd60e51b815260206004820152600e60248201526d125b9d985b1a5908185b5bdd5b9d60921b6044820152606401610b45565b6000613ad58988612ff3565b9050613b0f88613ae3613a26565b60008c8152600591909101602090815260408083206001600160a01b038d16845290915290209061400c565b613b4d57613b4b88613b1f613a26565b60008c8152600591909101602090815260408083206001600160a01b038d168452909152902090614501565b505b82613c1f57613b5a613ea5565b6001600160a01b03166328ff7a42888b888a6040518563ffffffff1660e01b8152600401613b8b94939291906155e1565b60206040518083038186803b158015613ba357600080fd5b505afa158015613bb7573d6000803e3d6000fd5b505050506040513d601f19601f82011682018060405250810190613bdb919061554e565b613c1f5760405162461bcd60e51b8152602060048201526015602482015274139bdd08195b9bdd59da0818dbdb1b185d195c985b605a1b6044820152606401610b45565b600080613c2a613a26565b60008c8152600291909101602090815260408083208d845290915290819020549051633352870560e21b81526001600160a01b039091169063cd4a1c1490613c7e908b908d908c908c908c9060040161560c565b6040805180830381600087803b158015613c9757600080fd5b505af1158015613cab573d6000803e3d6000fd5b505050506040513d601f19601f82011682018060405250810190613ccf91906152f6565b9092509050613cde8188615537565b9350600085613d5f57821580613cf45750600082115b15613d0757613d04600185615330565b93505b6014841115613d515760405162461bcd60e51b8152602060048201526016602482015275546f6f206d616e7920616374697665206f726465727360501b6044820152606401610b45565b613d5c8c848d61450d565b90505b8215613e2257604051633df3a23760e01b815273__$1f9ad3a48ce553524574a0c26027261f08$__90633df3a23790613da8908f908f908f908f908a908d908a90600401615648565b60006040518083038186803b158015613dc057600080fd5b505af4158015613dd4573d6000803e3d6000fd5b505050508a8c8b6001600160a01b03167ff58abb58bdd84b485930c24ec5e99ec42b56c04c021af823afb6ae78aa244bcc8c898c89604051613e199493929190615690565b60405180910390a45b613e508c613e2e613a26565b6001600160a01b038d1660009081526004919091016020526040902090614501565b5050505050979650505050505050565b4360008051602061584d8339815191525b6001600160a01b039092166000908152602092909252604090912055565b600060008051602061584d833981519152613e71565b6000613eaf614591565b905090565b60007f360894a13ba1a3210667c828492db98dca3e2076cc3735a920a3ca505d382bbc6109bd565b7f9acda75aebd150dd434541a4747a6dc606f4f1a59662477e67daf1fc0bf9e0aa80546001600160a01b038381166001600160a01b0319831681179093556040519116919082907f8be0079c531659141344cd1fd0a4f28419497f9722a3daafe3b4186f6b6457e090600090a35050565b60008051602061586d833981519152546001600160a01b031615613fb35760405162461bcd60e51b815260206004820152601b60248201527f7265736f6c766572207265676973746572656420616c726561647900000000006044820152606401610b45565b60008051602061586d83398151915280546001600160a01b0319166001600160a01b0392909216919091179055565b6001600160a01b0316600090815260008051602061584d8339815191526020526040902054151590565b600081815260018301602052604081205415155b9392505050565b6000613eaf6145a9565b600080808061404b61404662015180886156cf565b6145c8565b9194509250905061405c8583615330565b9150600c61406b600184615537565b61407591906156cf565b61407f9084615330565b9250600c61408e600184615537565b61409891906156e3565b6140a3906001615330565b915060006140b1848461473c565b9050808211156140bf578091505b6140cc62015180886156e3565b620151806140db8686866147c2565b6140e591906156f7565b6140ef9190615330565b9450868510156140fe57600080fd5b5050505092915050565b6000611898825490565b600061402083836148ff565b6000613eaf614929565b6000613eaf614942565b6000613eaf614962565b600080600061414b8686611e13565b90506000806000806000806000614160613a26565b60008e8152600291909101602090815260408083208f845290915290819020549051630516d8c960e11b81526001600160a01b038d8116600483015290911690630a2db1929060240160e060405180830381600087803b1580156141c357600080fd5b505af11580156141d7573d6000803e3d6000fd5b505050506040513d601f19601f820116820180604052508101906141fb91906154ae565b96509650965096509650965096508183111561428857614219613ea5565b6001600160a01b031663fb7bd3b48c8f6142338688615537565b6040518463ffffffff1660e01b81526004016142519392919061502e565b600060405180830381600087803b15801561426b57600080fd5b505af115801561427f573d6000803e3d6000fd5b50505050614303565b8183101561430357614298613ea5565b6001600160a01b0316634ba0c9b58c8f6142b28787615537565b6040518463ffffffff1660e01b81526004016142d09392919061502e565b600060405180830381600087803b1580156142ea57600080fd5b505af11580156142fe573d6000803e3d6000fd5b505050505b84156143e157604051639e8d3d5560e01b81526001600160a01b038c81166004830152602482018790526044820183905260006064830152891690639e8d3d5590608401602060405180830381600087803b15801561436157600080fd5b505af1158015614375573d6000803e3d6000fd5b505050506040513d601f19601f82011682018060405250810190614399919061554e565b50808d8c6001600160a01b03167f997c951334d5983afa515edf5d21c61d3dfec68c3d93415b92248b0f15123aeb6000896040516143d8929190615716565b60405180910390a45b83156144bf576040516305b0b29360e41b81526001600160a01b038c81166004830152602482018690526044820183905260006064830152891690635b0b293090608401602060405180830381600087803b15801561443f57600080fd5b505af1158015614453573d6000803e3d6000fd5b505050506040513d601f19601f82011682018060405250810190614477919061554e565b50808d8c6001600160a01b03167f997c951334d5983afa515edf5d21c61d3dfec68c3d93415b92248b0f15123aeb6001886040516144b6929190615716565b60405180910390a45b60006144cb8587615330565b1198506144d88688615330565b99505050505050505050935093915050565b60006140208383614985565b606061189882614a78565b60006140208383614ad3565b600081421061452e5760405162461bcd60e51b8152600401610b45906152cc565b600061453a4284615537565b905061458861454f6127106301e133806156f7565b600087815260008051602061588d833981519152602052604090205486906145789085906156f7565b61458291906156f7565b90614b22565b95945050505050565b6000613eaf69151bdad95b95985d5b1d60b21b614b93565b6000613eaf7011d95b995cda5cd5985b1d5955985d5b1d607a1b614b93565b60008080838162253d8c6145df8362010bd96155a0565b6145e991906155a0565b9050600062023ab16145fc836004615731565b61460691906157b6565b905060046146178262023ab1615731565b6146229060036155a0565b61462c91906157b6565b61463690836157e4565b9150600062164b096146498460016155a0565b61465590610fa0615731565b61465f91906157b6565b9050600461466f826105b5615731565b61467991906157b6565b61468390846157e4565b61468e90601f6155a0565b9250600061098f6146a0856050615731565b6146aa91906157b6565b9050600060506146bc8361098f615731565b6146c691906157b6565b6146d090866157e4565b90506146dd600b836157b6565b94506146ea85600c615731565b6146f58360026155a0565b6146ff91906157e4565b9150848361470e6031876157e4565b614719906064615731565b61472391906155a0565b61472d91906155a0565b9a919950975095505050505050565b6000816001148061474d5750816003145b806147585750816005145b806147635750816007145b8061476e5750816008145b80614779575081600a145b80614784575081600c145b156147915750601f611898565b816002146147a15750601e611898565b6147aa83614c24565b6147b557601c6147b8565b601d5b60ff169392505050565b60006107b28410156147d357600080fd5b838383600062253d8c60046064600c6147ed600e886157e4565b6147f791906157b6565b614803886113246155a0565b61480d91906155a0565b61481791906157b6565b614822906003615731565b61482c91906157b6565b600c8061483a600e886157e4565b61484491906157b6565b61484f90600c615731565b61485a6002886157e4565b61486491906157e4565b6148709061016f615731565b61487a91906157b6565b6004600c614889600e896157e4565b61489391906157b6565b61489f896112c06155a0565b6148a991906155a0565b6148b5906105b5615731565b6148bf91906157b6565b6148cb617d4b876157e4565b6148d591906155a0565b6148df91906155a0565b6148e991906157e4565b6148f391906157e4565b98975050505050505050565b600082600001828154811061491657614916615361565b9060005260206000200154905092915050565b6000613eaf6a14995cd95c9d99519d5b9960aa1b614b93565b6000613eaf7121bab93932b731bca1b7b73a3937b63632b960711b614b93565b6000613eaf742132b0b1b7b7283937bc3ca1b7b73a3937b63632b960591b614b93565b60008181526001830160205260408120548015614a6e5760006149a9600183615537565b85549091506000906149bd90600190615537565b9050818114614a225760008660000182815481106149dd576149dd615361565b9060005260206000200154905080876000018481548110614a0057614a00615361565b6000918252602080832090910192909255918252600188019052604090208390555b8554869080614a3357614a33615823565b600190038181906000526020600020016000905590558560010160008681526020019081526020016000206000905560019350505050611898565b6000915050611898565b60608160000180548060200260200160405190810160405280929190818152602001828054801561133f57602002820191906000526020600020905b815481526020019060010190808311614ab45750505050509050919050565b6000818152600183016020526040812054614b1a57508154600181810184556000848152602080822090930184905584548482528286019093526040902091909155611898565b506000611898565b6000808211614b3057600080fd5b6005614b3c83856156cf565b614b4790600a6156f7565b83614b5386600a6156f7565b614b5d91906156cf565b614b679190615537565b1015614b7e57614b7782846156cf565b9050611898565b614b8882846156cf565b614b77906001615330565b60008181527f4abde63c3e81aefa5764b017968bc473e83e093d7e1a10247d19e0a3e41240196020908152604080832054815170026b4b9b9b4b7339030b2323932b9b99d1607d1b9381019390935260318084018690528251808503909101815260519093019091526001600160a01b031690816119ff5760405162461bcd60e51b8152600401610b459190615839565b6000614c316004836156e3565b158015614c475750614c446064836156e3565b15155b806118985750614c59610190836156e3565b1592915050565b6001600160a01b0381168114610e2d57600080fd5b600080600060608486031215614c8a57600080fd5b8335614c9581614c60565b95602085013595506040909401359392505050565b600060208284031215614cbc57600080fd5b5035919050565b600080600060608486031215614cd857600080fd5b505081359360208301359350604090920135919050565b600081518084526020808501945080840160005b83811015614d1f57815187529582019590820190600101614d03565b509495945050505050565b606081526000614d3d6060830186614cef565b8281036020840152614d4f8186614cef565b90508281036040840152614d638185614cef565b9695505050505050565b60008060408385031215614d8057600080fd5b823591506020830135614d9281614c60565b809150509250929050565b600080600080600060a08688031215614db557600080fd5b8535945060208601359350604086013592506060860135614dd581614c60565b9150608086013562ffffff81168114614ded57600080fd5b809150509295509295909350565b8015158114610e2d57600080fd5b600060208284031215614e1b57600080fd5b813561402081614dfb565b600080600060608486031215614e3b57600080fd5b83359250602084013591506040840135614e5481614c60565b809150509250925092565b60008060408385031215614e7257600080fd5b50508035926020909101359150565b6020808252825182820181905260009190848201906040850190845b81811015614ec25783516001600160a01b031683529284019291840191600101614e9d565b50909695505050505050565b6020808252825182820181905260009190848201906040850190845b81811015614ec257835183529284019291840191600101614eea565b60028110610e2d57600080fd5b600080600080600060a08688031215614f2b57600080fd5b85359450602086013593506040860135614f4481614f06565b94979396509394606081013594506080013592915050565b60008060408385031215614f6f57600080fd5b8235614f7a81614c60565b91506020830135614d9281614c60565b600080600060608486031215614f9f57600080fd5b8335925060208401359150604084013565ffffffffffff81168114614e5457600080fd5b600060208284031215614fd557600080fd5b813561402081614c60565b6020815260006140206020830184614cef565b600080600080600060a0868803121561500b57600080fd5b505083359560208501359550604085013594606081013594506080013592509050565b6001600160a01b039390931683526020830191909152604082015260600190565b600080600080600080600080610100898b03121561506c57600080fd5b885197506020890151965060408901519550606089015194506080890151935060a0890151925060c0890151915060e08901516150a881614dfb565b809150509295985092959890939650565b634e487b7160e01b600052604160045260246000fd5b600082601f8301126150e057600080fd5b8151602067ffffffffffffffff808311156150fd576150fd6150b9565b8260051b604051601f19603f83011681018181108482111715615122576151226150b9565b60405293845285810183019383810192508785111561514057600080fd5b83870191505b8482101561515f57815183529183019190830190615146565b979650505050505050565b60008060006060848603121561517f57600080fd5b835167ffffffffffffffff8082111561519757600080fd5b6151a3878388016150cf565b945060208601519150808211156151b957600080fd5b6151c5878388016150cf565b935060408601519150808211156151db57600080fd5b506151e8868287016150cf565b9150509250925092565b92835260208301919091526001600160a01b0316604082015260600190565b600060e0828403121561522357600080fd5b60405160e0810181811067ffffffffffffffff82111715615246576152466150b9565b8060405250825181526020830151602082015260408301516040820152606083015160608201526080830151608082015260a083015160a082015260c083015160c08201528091505092915050565b6020808252601f908201527f5265656e7472616e637947756172643a207265656e7472616e742063616c6c00604082015260600190565b60208082526010908201526f496e76616c6964206d6174757269747960801b604082015260600190565b6000806040838503121561530957600080fd5b505080516020909101519092909150565b634e487b7160e01b600052601160045260246000fd5b600082198211156153435761534361531a565b500190565b60006020828403121561535a57600080fd5b5051919050565b634e487b7160e01b600052603260045260246000fd5b6000815180845260005b8181101561539d57602081850181015186830182015201615381565b818111156153af576000602083870101525b50601f01601f19169290920160200192915050565b8281526040602082015260006153dd6040830184615377565b949350505050565b6000602082840312156153f757600080fd5b815161402081614c60565b60006000198214156154165761541661531a565b5060010190565b60008060006060848603121561543257600080fd5b835161543d81614f06565b602085015160409095015190969495509392505050565b6002811061547257634e487b7160e01b600052602160045260246000fd5b9052565b65ffffffffffff8616815260a081016154926020830187615454565b8460408301528360608301528260808301529695505050505050565b600080600080600080600060e0888a0312156154c957600080fd5b5050855160208701516040880151606089015160808a015160a08b015160c0909b0151949c939b50919990985090965094509092509050565b6020808252818101527f4f776e61626c653a2063616c6c6572206973206e6f7420746865206f776e6572604082015260600190565b6000828210156155495761554961531a565b500390565b60006020828403121561556057600080fd5b815161402081614dfb565b60006020828403121561557d57600080fd5b815167ffffffffffffffff81111561559457600080fd5b6153dd848285016150cf565b600080821280156001600160ff1b03849003851316156155c2576155c261531a565b600160ff1b83900384128116156155db576155db61531a565b50500190565b6001600160a01b03851681526020810184905260408101839052608081016145886060830184615454565b60a0810161561a8288615454565b6001600160a01b03959095166020820152604081019390935260608301919091521515608090910152919050565b878152602081018790526001600160a01b038616604082015260e081016156726060830187615454565b8460808301528360a08301528260c083015298975050505050505050565b6080810161569e8287615454565b84602083015283604083015282606083015295945050505050565b634e487b7160e01b600052601260045260246000fd5b6000826156de576156de6156b9565b500490565b6000826156f2576156f26156b9565b500690565b60008160001904831182151516156157115761571161531a565b500290565b604081016157248285615454565b8260208301529392505050565b60006001600160ff1b03818413828413808216868404861116156157575761575761531a565b600160ff1b60008712828116878305891216156157765761577661531a565b600087129250878205871284841616156157925761579261531a565b878505871281841616156157a8576157a861531a565b505050929093029392505050565b6000826157c5576157c56156b9565b600160ff1b8214600019841416156157df576157df61531a565b500590565b60008083128015600160ff1b8501841216156158025761580261531a565b6001600160ff1b038401831381161561581d5761581d61531a565b50500390565b634e487b7160e01b600052603160045260246000fd5b602081526000614020602083018461537756fe19bfb841e3f2b667d170c57909e7685dd6a0cee80d36344e04905cfd7d917bd74abde63c3e81aefa5764b017968bc473e83e093d7e1a10247d19e0a3e412401855cc3066d618b5a688ac1f2a8234e21c685f7432b4230a1660309640d60d8f6455cc3066d618b5a688ac1f2a8234e21c685f7432b4230a1660309640d60d8f65a2646970667358221220e92eef1fce50d156230483ba508edcdfd7ff056d654c46c7cecc289a13f98c1964736f6c63430008090033",
  "libraries": {
    "FundManagementLogic": "0xC575c9aA2d8aD43Db9FA56Ae07045212a9a7EC22"
  },
  "implementation": "0x8008725A2Ba4de5925F6de75BFdab1140e56faAb",
  "devdoc": {
    "kind": "dev",
    "methods": {
      "acceptedContracts()": {
        "details": "The contact name listed in this method is also needed to be listed `requiredContracts` method."
      },
      "calculateFunds(bytes32,address)": {
        "params": {
          "_ccy": "Currency name in bytes32",
          "_user": "User's address"
        },
        "returns": {
          "borrowedAmount": "The borrowed amount due to the borrow orders being filled on the order book",
          "claimableAmount": "The claimable amount due to the lending orders being filled on the order book",
          "collateralAmount": "The actual collateral amount that is calculated by netting using the haircut.",
          "debtAmount": "The debt amount due to the borrow orders being filled on the order book",
          "lentAmount": "The lent amount due to the lend orders being filled on the order book",
          "workingBorrowOrdersAmount": "The working orders amount on the borrow order book",
          "workingLendOrdersAmount": "The working orders amount on the lend order book"
        }
      },
      "calculateTotalFundsInETH(address,bytes32,uint256)": {
        "params": {
          "_user": "User's address"
        }
      },
      "cancelOrder(bytes32,uint256,uint48)": {
        "params": {
          "_ccy": "Currency name in bytes32 of the selected market",
          "_maturity": "The maturity of the selected market",
          "_orderId": "Market order id"
        }
      },
      "cleanAllOrders(address)": {
        "params": {
          "_user": "User's address"
        }
      },
      "cleanOrders(bytes32,address)": {
        "params": {
          "_ccy": "Currency name in bytes32",
          "_user": "User's address"
        }
      },
      "createLendingMarket(bytes32)": {
        "params": {
          "_ccy": "Main currency for new lending market"
        },
        "returns": {
          "market": "The proxy contract address of created lending market"
        }
      },
      "createOrder(bytes32,uint256,uint8,uint256,uint256)": {
        "params": {
          "_amount": "Amount of funds the maker wants to borrow/lend",
          "_ccy": "Currency name in bytes32 of the selected market",
          "_maturity": "The maturity of the selected market",
          "_side": "Order position type, Borrow or Lend",
          "_unitPrice": "Amount of unit price taker wish to borrow/lend"
        },
        "returns": {
          "_0": "True if the execution of the operation succeeds"
        }
      },
      "depositAndCreateOrder(bytes32,uint256,uint8,uint256,uint256)": {
        "params": {
          "_amount": "Amount of funds the maker wants to borrow/lend",
          "_ccy": "Currency name in bytes32 of the selected market",
          "_maturity": "The maturity of the selected market",
          "_side": "Order position type, Borrow or Lend",
          "_unitPrice": "Amount of unit price taker wish to borrow/lend"
        },
        "returns": {
          "_0": "True if the execution of the operation succeeds"
        }
      },
      "executeLiquidationCall(bytes32,bytes32,uint256,address,uint24)": {
        "details": "A liquidation amount is calculated from the selected debt, but its maximum amount is the same as a collateral amount. That amount needs to be set at liquidationAmountMax otherwise currency swapping using Uniswap will fail if the collateral is insufficient.",
        "params": {
          "_collateralCcy": "Currency name to be used as collateral",
          "_debtCcy": "Currency name to be used as debt",
          "_debtMaturity": "The market maturity of the debt",
          "_poolFee": "Uniswap pool fee",
          "_user": "User's address"
        },
        "returns": {
          "_0": "True if the execution of the operation succeeds"
        }
      },
      "getAutoRollFeeRate(bytes32)": {
        "params": {
          "_ccy": "Currency name in bytes32"
        },
        "returns": {
          "_0": "The auto-roll fee rate received by protocol"
        }
      },
      "getBorrowOrderBook(bytes32,uint256,uint256)": {
        "params": {
          "_ccy": "Currency name in bytes32",
          "_limit": "The limit number to get",
          "_maturity": "The maturity of the market"
        },
        "returns": {
          "amounts": "The array of borrow order amounts",
          "quantities": "The array of borrow order quantities",
          "unitPrices": "The array of borrow unit prices"
        }
      },
      "getBorrowUnitPrices(bytes32)": {
        "params": {
          "_ccy": "Currency name in bytes32"
        },
        "returns": {
          "_0": "Array with the borrowing prices per future value of the lending market"
        }
      },
      "getFutureValue(bytes32,uint256,address)": {
        "params": {
          "_ccy": "Currency name in bytes32 for Lending Market",
          "_maturity": "The maturity of the market",
          "_user": "User's address"
        },
        "returns": {
          "futureValue": "The future value"
        }
      },
      "getFutureValueVault(bytes32,uint256)": {
        "params": {
          "_ccy": "Currency name in bytes32",
          "_maturity": "The maturity of the market"
        },
        "returns": {
          "_0": "The lending market address"
        }
      },
      "getGenesisDate(bytes32)": {
        "params": {
          "_ccy": "Currency name in bytes32"
        },
        "returns": {
          "_0": "The genesis date"
        }
      },
      "getLendOrderBook(bytes32,uint256,uint256)": {
        "params": {
          "_ccy": "Currency name in bytes32",
          "_limit": "The limit number to get",
          "_maturity": "The maturity of the market"
        },
        "returns": {
          "amounts": "The array of lend order amounts",
          "quantities": "The array of lend order quantities",
          "unitPrices": "The array of borrow unit prices"
        }
      },
      "getLendUnitPrices(bytes32)": {
        "params": {
          "_ccy": "Currency name in bytes32"
        },
        "returns": {
          "_0": "Array with the lending prices per future value of the lending market"
        }
      },
      "getLendingMarket(bytes32,uint256)": {
        "params": {
          "_ccy": "Currency name in bytes32",
          "_maturity": "The maturity of the market"
        },
        "returns": {
          "_0": "The lending market address"
        }
      },
      "getLendingMarkets(bytes32)": {
        "params": {
          "_ccy": "Currency name in bytes32"
        },
        "returns": {
          "_0": "Array with the lending market address"
        }
      },
      "getMaturities(bytes32)": {
        "params": {
          "_ccy": "Currency name in bytes32"
        },
        "returns": {
          "_0": "Array with the lending market maturity"
        }
      },
      "getMidUnitPrices(bytes32)": {
        "params": {
          "_ccy": "Currency name in bytes32"
        },
        "returns": {
          "_0": "Array with the mid prices per future value of the lending market"
        }
      },
      "getOrderFeeRate(bytes32)": {
        "params": {
          "_ccy": "Currency name in bytes32"
        },
        "returns": {
          "_0": "The order fee rate received by protocol"
        }
      },
      "getPresentValue(bytes32,uint256,address)": {
        "params": {
          "_ccy": "Currency name in bytes32 for Lending Market",
          "_maturity": "The maturity of the market",
          "_user": "User's address"
        },
        "returns": {
          "presentValue": "The present value"
        }
      },
      "getTotalPresentValue(bytes32,address)": {
        "params": {
          "_ccy": "Currency name in bytes32 for Lending Market",
          "_user": "User's address"
        },
        "returns": {
          "totalPresentValue": "The total present value"
        }
      },
      "getTotalPresentValueInETH(address)": {
        "params": {
          "_user": "User's address"
        },
        "returns": {
          "totalPresentValue": "The total present value in ETH"
        }
      },
      "getUsedCurrencies(address)": {
        "params": {
          "_user": "User's address"
        },
        "returns": {
          "_0": "The array of the currency"
        }
      },
      "initialize(address,address)": {
        "details": "Function is invoked by the proxy contract when the contract is added to the ProxyController.",
        "params": {
          "_owner": "The address of the contract owner",
          "_resolver": "The address of the Address Resolver contract"
        }
      },
      "initializeLendingMarket(bytes32,uint256,uint256,uint256,uint256)": {
        "params": {
          "_autoRollFeeRate": "The auto roll fee rate received by protocol",
          "_ccy": "Currency name in bytes32",
          "_compoundFactor": "The initial compound factor when the initial market is opened",
          "_genesisDate": "The genesis date when the initial market is opened",
          "_orderFeeRate": "The order fee rate received by protocol"
        }
      },
      "isInitializedLendingMarket(bytes32)": {
        "params": {
          "_ccy": "Currency name in bytes32"
        },
        "returns": {
          "_0": "The boolean if the lending market is initialized or not"
        }
      },
      "isLiquidator(address)": {
        "returns": {
          "_0": "The boolean if the user is registered as a liquidator or not"
        }
      },
      "owner()": {
        "details": "Returns the address of the current owner."
      },
      "pauseLendingMarkets(bytes32)": {
        "params": {
          "_ccy": "Currency for pausing all lending markets"
        },
        "returns": {
          "_0": "True if the execution of the operation succeeds"
        }
      },
      "registerLiquidator(bool)": {
        "params": {
          "_isLiquidator": "The boolean if the user is a liquidator or not"
        }
      },
      "renounceOwnership()": {
        "details": "Leaves the contract without owner. It will not be possible to call `onlyOwner` functions anymore. Can only be called by the current owner. NOTE: Renouncing ownership will leave the contract without an owner, thereby removing any functionality that is only available to the owner."
      },
      "requiredContracts()": {
        "details": "The contract name list is in `./libraries/Contracts.sol`."
      },
      "rotateLendingMarkets(bytes32)": {
        "params": {
          "_ccy": "Currency name in bytes32 of the selected market"
        }
      },
      "transferOwnership(address)": {
        "details": "Transfers ownership of the contract to a new account (`newOwner`). Can only be called by the current owner."
      },
      "unpauseLendingMarkets(bytes32)": {
        "params": {
          "_ccy": "Currency name in bytes32"
        },
        "returns": {
          "_0": "True if the execution of the operation succeeds"
        }
      },
      "updateAutoRollFeeRate(bytes32,uint256)": {
        "params": {
          "_autoRollFeeRate": "The order fee rate received by protocol",
          "_ccy": "Currency name in bytes32"
        }
      },
      "updateOrderFeeRate(bytes32,uint256)": {
        "params": {
          "_ccy": "Currency name in bytes32",
          "_orderFeeRate": "The order fee rate received by protocol"
        }
      }
    },
    "version": 1
  },
  "userdoc": {
    "kind": "user",
    "methods": {
      "acceptedContracts()": {
        "notice": "Returns contract names that can call this contract."
      },
      "calculateFunds(bytes32,address)": {
        "notice": "Gets the funds that are calculated from the user's lending and borrowing order list for the selected currency."
      },
      "calculateTotalFundsInETH(address,bytes32,uint256)": {
        "notice": "Gets the funds that are calculated from the user's lending and borrowing order list for all currencies in ETH."
      },
      "cancelOrder(bytes32,uint256,uint48)": {
        "notice": "Cancels the own order."
      },
      "cleanAllOrders(address)": {
        "notice": "Cleans user's all orders to remove order ids that are already filled on the order book."
      },
      "cleanOrders(bytes32,address)": {
        "notice": "Cleans user's orders to remove order ids that are already filled on the order book for a selected currency."
      },
      "createLendingMarket(bytes32)": {
        "notice": "Deploys new Lending Market and save address at lendingMarkets mapping.Reverts on deployment market with existing currency and term"
      },
      "createOrder(bytes32,uint256,uint8,uint256,uint256)": {
        "notice": "Creates an order. Takes orders if the orders are matched, and places new order if not match it. In addition, converts the future value to the genesis value if there is future value in past maturity before the execution of order creation."
      },
      "depositAndCreateOrder(bytes32,uint256,uint8,uint256,uint256)": {
        "notice": "Deposits funds and creates an order at the same time."
      },
      "executeLiquidationCall(bytes32,bytes32,uint256,address,uint24)": {
        "notice": "Liquidates a lending position if the user's coverage is less than 1."
      },
      "getAutoRollFeeRate(bytes32)": {
        "notice": "Gets the auto-roll fee rate"
      },
      "getBorrowOrderBook(bytes32,uint256,uint256)": {
        "notice": "Gets the order book of borrow."
      },
      "getBorrowUnitPrices(bytes32)": {
        "notice": "Gets borrow prices per future value for the selected currency."
      },
      "getFutureValue(bytes32,uint256,address)": {
        "notice": "Gets the future value of the account for selected currency and maturity."
      },
      "getFutureValueVault(bytes32,uint256)": {
        "notice": "Gets the feture value contract address for the selected currency and maturity."
      },
      "getGenesisDate(bytes32)": {
        "notice": "Gets the genesis date when the first market opens for the selected currency."
      },
      "getLendOrderBook(bytes32,uint256,uint256)": {
        "notice": "Gets the order book of lend."
      },
      "getLendUnitPrices(bytes32)": {
        "notice": "Gets lend prices per future value for the selected currency."
      },
      "getLendingMarket(bytes32,uint256)": {
        "notice": "Gets the lending market contract address for the selected currency and maturity."
      },
      "getLendingMarkets(bytes32)": {
        "notice": "Gets the lending market contract addresses for the selected currency."
      },
      "getMaturities(bytes32)": {
        "notice": "Gets maturities for the selected currency."
      },
      "getMidUnitPrices(bytes32)": {
        "notice": "Gets mid prices per future value for the selected currency."
      },
      "getOrderFeeRate(bytes32)": {
        "notice": "Gets the order fee rate"
      },
      "getPresentValue(bytes32,uint256,address)": {
        "notice": "Gets the present value of the account for selected currency and maturity."
      },
      "getTotalPresentValue(bytes32,address)": {
        "notice": "Gets the total present value of the account for selected currency."
      },
      "getTotalPresentValueInETH(address)": {
        "notice": "Gets the total present value of the account converted to ETH."
      },
      "getUsedCurrencies(address)": {
        "notice": "Get all the currencies in which the user has lending positions or orders."
      },
      "initialize(address,address)": {
        "notice": "Initializes the contract."
      },
      "initializeLendingMarket(bytes32,uint256,uint256,uint256,uint256)": {
        "notice": "Initialize the lending market to set a genesis date and compound factor"
      },
      "isInitializedLendingMarket(bytes32)": {
        "notice": "Gets if the lending market is initialized."
      },
      "isLiquidator(address)": {
        "notice": "Gets if the user is registered as a liquidator."
      },
      "pauseLendingMarkets(bytes32)": {
        "notice": "Pauses previously deployed lending market by currency"
      },
      "registerLiquidator(bool)": {
        "notice": "Registers a user as a liquidator."
      },
      "requiredContracts()": {
        "notice": "Returns the contract names used in this contract."
      },
      "rotateLendingMarkets(bytes32)": {
        "notice": "Rotates the lending markets. In this rotation, the following actions are happened. - Updates the maturity at the beginning of the market array. - Moves the beginning of the market array to the end of it (Market rotation). - Update the compound factor in this contract using the next market unit price. (Auto-rolls) - Convert the future value held by reserve funds into the genesis value"
      },
      "unpauseLendingMarkets(bytes32)": {
        "notice": "Unpauses previously deployed lending market by currency"
      },
      "updateAutoRollFeeRate(bytes32,uint256)": {
        "notice": "Updates the auto-roll fee rate"
      },
      "updateOrderFeeRate(bytes32,uint256)": {
        "notice": "Updates the order fee rate"
      }
    },
    "notice": "Implements the module to manage separated lending order-book markets per maturity. This contract also works as a factory contract that can deploy(start)a new lending market for selected currency and maturity and has the calculation logic for the Genesis value in addition. Deployed Lending Markets are rotated and reused as it reaches the maturity date. At the time of rotation, a new maturity date is set and the compound factor is updated. The users mainly call this contract to create orders to lend or borrow funds.",
    "version": 1
  },
  "storageLayout": {
    "storage": [
      {
        "astId": 1446,
        "contract": "contracts/LendingMarketController.sol:LendingMarketController",
        "label": "_status",
        "offset": 0,
        "slot": "0",
        "type": "t_uint256"
      },
      {
        "astId": 1183,
        "contract": "contracts/LendingMarketController.sol:LendingMarketController",
        "label": "_initialized",
        "offset": 0,
        "slot": "1",
        "type": "t_uint8"
      },
      {
        "astId": 1186,
        "contract": "contracts/LendingMarketController.sol:LendingMarketController",
        "label": "_initializing",
        "offset": 1,
        "slot": "1",
        "type": "t_bool"
      }
    ],
    "types": {
      "t_bool": {
        "encoding": "inplace",
        "label": "bool",
        "numberOfBytes": "1"
      },
      "t_uint256": {
        "encoding": "inplace",
        "label": "uint256",
        "numberOfBytes": "32"
      },
      "t_uint8": {
        "encoding": "inplace",
        "label": "uint8",
        "numberOfBytes": "1"
      }
    }
  }
}