{
  "address": "0x5734C6a067cD019f0eab1d2C94a35816535143A9",
  "abi": [
    {
      "anonymous": false,
      "inputs": [
        {
          "indexed": false,
          "internalType": "bytes32",
          "name": "name",
          "type": "bytes32"
        },
        {
          "indexed": false,
          "internalType": "address",
          "name": "destination",
          "type": "address"
        }
      ],
      "name": "CacheUpdated",
      "type": "event"
    },
    {
      "anonymous": false,
      "inputs": [
        {
          "indexed": false,
          "internalType": "uint48",
          "name": "orderId",
          "type": "uint48"
        },
        {
          "indexed": true,
          "internalType": "address",
          "name": "maker",
          "type": "address"
        },
        {
          "indexed": true,
          "internalType": "bytes32",
          "name": "ccy",
          "type": "bytes32"
        },
        {
          "indexed": false,
          "internalType": "enum ProtocolTypes.Side",
          "name": "side",
          "type": "uint8"
        },
        {
          "indexed": false,
          "internalType": "uint256",
          "name": "maturity",
          "type": "uint256"
        },
        {
          "indexed": false,
          "internalType": "uint256",
          "name": "amount",
          "type": "uint256"
        },
        {
          "indexed": false,
          "internalType": "uint256",
          "name": "unitPrice",
          "type": "uint256"
        }
      ],
      "name": "CancelOrder",
      "type": "event"
    },
    {
      "anonymous": false,
      "inputs": [
        {
          "indexed": true,
          "internalType": "bytes32",
          "name": "ccy",
          "type": "bytes32"
        },
        {
          "indexed": true,
          "internalType": "address",
          "name": "marketAddr",
          "type": "address"
        },
        {
          "indexed": false,
          "internalType": "address",
          "name": "futureValue",
          "type": "address"
        },
        {
          "indexed": false,
          "internalType": "uint256",
          "name": "index",
          "type": "uint256"
        },
        {
          "indexed": false,
          "internalType": "uint256",
          "name": "maturity",
          "type": "uint256"
        }
      ],
      "name": "CreateLendingMarket",
      "type": "event"
    },
    {
      "anonymous": false,
      "inputs": [
        {
          "indexed": true,
          "internalType": "address",
          "name": "taker",
          "type": "address"
        },
        {
          "indexed": true,
          "internalType": "bytes32",
          "name": "ccy",
          "type": "bytes32"
        },
        {
          "indexed": false,
          "internalType": "enum ProtocolTypes.Side",
          "name": "side",
          "type": "uint8"
        },
        {
          "indexed": true,
          "internalType": "uint256",
          "name": "maturity",
          "type": "uint256"
        },
        {
          "indexed": false,
          "internalType": "uint256",
          "name": "amount",
          "type": "uint256"
        },
        {
          "indexed": false,
          "internalType": "uint256",
          "name": "unitPrice",
          "type": "uint256"
        },
        {
          "indexed": false,
          "internalType": "uint256",
          "name": "filledFutureValue",
          "type": "uint256"
        }
      ],
      "name": "FillOrder",
      "type": "event"
    },
    {
      "anonymous": false,
      "inputs": [
        {
          "indexed": true,
          "internalType": "address",
          "name": "taker",
          "type": "address"
        },
        {
          "indexed": true,
          "internalType": "bytes32",
          "name": "ccy",
          "type": "bytes32"
        },
        {
          "indexed": false,
          "internalType": "enum ProtocolTypes.Side",
          "name": "side",
          "type": "uint8"
        },
        {
          "indexed": true,
          "internalType": "uint256",
          "name": "maturity",
          "type": "uint256"
        },
        {
          "indexed": false,
          "internalType": "uint256",
          "name": "filledFutureValue",
          "type": "uint256"
        }
      ],
      "name": "FillOrdersAsync",
      "type": "event"
    },
    {
      "anonymous": false,
      "inputs": [
        {
          "indexed": false,
          "internalType": "uint8",
          "name": "version",
          "type": "uint8"
        }
      ],
      "name": "Initialized",
      "type": "event"
    },
    {
      "anonymous": false,
      "inputs": [
        {
          "indexed": true,
          "internalType": "address",
          "name": "previousOwner",
          "type": "address"
        },
        {
          "indexed": true,
          "internalType": "address",
          "name": "newOwner",
          "type": "address"
        }
      ],
      "name": "OwnershipTransferred",
      "type": "event"
    },
    {
      "anonymous": false,
      "inputs": [
        {
          "indexed": true,
          "internalType": "address",
          "name": "maker",
          "type": "address"
        },
        {
          "indexed": true,
          "internalType": "bytes32",
          "name": "ccy",
          "type": "bytes32"
        },
        {
          "indexed": false,
          "internalType": "enum ProtocolTypes.Side",
          "name": "side",
          "type": "uint8"
        },
        {
          "indexed": true,
          "internalType": "uint256",
          "name": "maturity",
          "type": "uint256"
        },
        {
          "indexed": false,
          "internalType": "uint256",
          "name": "amount",
          "type": "uint256"
        },
        {
          "indexed": false,
          "internalType": "uint256",
          "name": "unitPrice",
          "type": "uint256"
        }
      ],
      "name": "PlaceOrder",
      "type": "event"
    },
    {
      "anonymous": false,
      "inputs": [
        {
          "indexed": false,
          "internalType": "bytes32",
          "name": "ccy",
          "type": "bytes32"
        },
        {
          "indexed": false,
          "internalType": "uint256",
          "name": "oldMaturity",
          "type": "uint256"
        },
        {
          "indexed": false,
          "internalType": "uint256",
          "name": "newMaturity",
          "type": "uint256"
        }
      ],
      "name": "RotateLendingMarkets",
      "type": "event"
    },
    {
      "inputs": [],
      "name": "acceptedContracts",
      "outputs": [
        {
          "internalType": "bytes32[]",
          "name": "contracts",
          "type": "bytes32[]"
        }
      ],
      "stateMutability": "pure",
      "type": "function"
    },
    {
      "inputs": [],
      "name": "buildCache",
      "outputs": [],
      "stateMutability": "nonpayable",
      "type": "function"
    },
    {
      "inputs": [
        {
          "internalType": "bytes32",
          "name": "_ccy",
          "type": "bytes32"
        },
        {
          "internalType": "address",
          "name": "_user",
          "type": "address"
        }
      ],
      "name": "calculateBorrowedFundsFromOrders",
      "outputs": [
        {
          "internalType": "uint256",
          "name": "workingOrdersAmount",
          "type": "uint256"
        },
        {
          "internalType": "uint256",
          "name": "obligationAmount",
          "type": "uint256"
        },
        {
          "internalType": "uint256",
          "name": "borrowedAmount",
          "type": "uint256"
        }
      ],
      "stateMutability": "view",
      "type": "function"
    },
    {
      "inputs": [
        {
          "internalType": "bytes32",
          "name": "_ccy",
          "type": "bytes32"
        },
        {
          "internalType": "address",
          "name": "_user",
          "type": "address"
        }
      ],
      "name": "calculateLentFundsFromOrders",
      "outputs": [
        {
          "internalType": "uint256",
          "name": "workingOrdersAmount",
          "type": "uint256"
        },
        {
          "internalType": "uint256",
          "name": "claimableAmount",
          "type": "uint256"
        }
      ],
      "stateMutability": "view",
      "type": "function"
    },
    {
      "inputs": [
        {
          "internalType": "address",
          "name": "_user",
          "type": "address"
        }
      ],
      "name": "calculateTotalBorrowedFundsInETH",
      "outputs": [
        {
          "internalType": "uint256",
          "name": "totalWorkingOrdersAmount",
          "type": "uint256"
        },
        {
          "internalType": "uint256",
          "name": "totalObligationAmount",
          "type": "uint256"
        },
        {
          "internalType": "uint256",
          "name": "totalBorrowedAmount",
          "type": "uint256"
        }
      ],
      "stateMutability": "view",
      "type": "function"
    },
    {
      "inputs": [
        {
          "internalType": "address",
          "name": "_user",
          "type": "address"
        }
      ],
      "name": "calculateTotalLentFundsInETH",
      "outputs": [
        {
          "internalType": "uint256",
          "name": "totalWorkingOrdersAmount",
          "type": "uint256"
        },
        {
          "internalType": "uint256",
          "name": "totalClaimableAmount",
          "type": "uint256"
        }
      ],
      "stateMutability": "view",
      "type": "function"
    },
    {
      "inputs": [
        {
          "internalType": "bytes32",
          "name": "_ccy",
          "type": "bytes32"
        },
        {
          "internalType": "uint256",
          "name": "_maturity",
          "type": "uint256"
        },
        {
          "internalType": "uint48",
          "name": "_orderId",
          "type": "uint48"
        }
      ],
      "name": "cancelOrder",
      "outputs": [
        {
          "internalType": "bool",
          "name": "",
          "type": "bool"
        }
      ],
      "stateMutability": "nonpayable",
      "type": "function"
    },
    {
      "inputs": [
        {
          "internalType": "address",
          "name": "_user",
          "type": "address"
        }
      ],
      "name": "cleanOrders",
      "outputs": [],
      "stateMutability": "nonpayable",
      "type": "function"
    },
    {
      "inputs": [
        {
          "internalType": "address",
          "name": "_user",
          "type": "address"
        }
      ],
      "name": "convertFutureValueToGenesisValue",
      "outputs": [],
      "stateMutability": "nonpayable",
      "type": "function"
    },
    {
      "inputs": [
        {
          "internalType": "bytes32",
          "name": "_ccy",
          "type": "bytes32"
        },
        {
          "internalType": "uint256",
          "name": "_maturity",
          "type": "uint256"
        },
        {
          "internalType": "uint256",
          "name": "_unitPrice",
          "type": "uint256"
        }
      ],
      "name": "createLendOrderWithETH",
      "outputs": [
        {
          "internalType": "bool",
          "name": "",
          "type": "bool"
        }
      ],
      "stateMutability": "payable",
      "type": "function"
    },
    {
      "inputs": [
        {
          "internalType": "bytes32",
          "name": "_ccy",
          "type": "bytes32"
        }
      ],
      "name": "createLendingMarket",
      "outputs": [
        {
          "internalType": "address",
          "name": "market",
          "type": "address"
        },
        {
          "internalType": "address",
          "name": "futureValue",
          "type": "address"
        }
      ],
      "stateMutability": "nonpayable",
      "type": "function"
    },
    {
      "inputs": [
        {
          "internalType": "bytes32",
          "name": "_ccy",
          "type": "bytes32"
        },
        {
          "internalType": "uint256",
          "name": "_maturity",
          "type": "uint256"
        },
        {
          "internalType": "enum ProtocolTypes.Side",
          "name": "_side",
          "type": "uint8"
        },
        {
          "internalType": "uint256",
          "name": "_amount",
          "type": "uint256"
        },
        {
          "internalType": "uint256",
          "name": "_unitPrice",
          "type": "uint256"
        }
      ],
      "name": "createOrder",
      "outputs": [
        {
          "internalType": "bool",
          "name": "",
          "type": "bool"
        }
      ],
      "stateMutability": "nonpayable",
      "type": "function"
    },
    {
      "inputs": [
        {
          "internalType": "bytes32",
          "name": "_ccy",
          "type": "bytes32"
        }
      ],
      "name": "getBasisDate",
      "outputs": [
        {
          "internalType": "uint256",
          "name": "",
          "type": "uint256"
        }
      ],
      "stateMutability": "view",
      "type": "function"
    },
    {
      "inputs": [
        {
          "internalType": "bytes32",
          "name": "_ccy",
          "type": "bytes32"
        },
        {
          "internalType": "uint256",
          "name": "_maturity",
          "type": "uint256"
        },
        {
          "internalType": "uint256",
          "name": "_limit",
          "type": "uint256"
        }
      ],
      "name": "getBorrowOrderBook",
      "outputs": [
        {
          "internalType": "uint256[]",
          "name": "unitPrices",
          "type": "uint256[]"
        },
        {
          "internalType": "uint256[]",
          "name": "amounts",
          "type": "uint256[]"
        },
        {
          "internalType": "uint256[]",
          "name": "quantities",
          "type": "uint256[]"
        }
      ],
      "stateMutability": "view",
      "type": "function"
    },
    {
      "inputs": [
        {
          "internalType": "bytes32",
          "name": "_ccy",
          "type": "bytes32"
        }
      ],
      "name": "getBorrowUnitPrices",
      "outputs": [
        {
          "internalType": "uint256[]",
          "name": "",
          "type": "uint256[]"
        }
      ],
      "stateMutability": "view",
      "type": "function"
    },
    {
      "inputs": [
        {
          "internalType": "bytes32",
          "name": "_ccy",
          "type": "bytes32"
        },
        {
          "internalType": "uint256",
          "name": "_maturity",
          "type": "uint256"
        }
      ],
      "name": "getFutureValueVault",
      "outputs": [
        {
          "internalType": "address",
          "name": "",
          "type": "address"
        }
      ],
      "stateMutability": "view",
      "type": "function"
    },
    {
      "inputs": [
        {
          "internalType": "bytes32",
          "name": "_ccy",
          "type": "bytes32"
        },
        {
          "internalType": "uint256",
          "name": "_maturity",
          "type": "uint256"
        },
        {
          "internalType": "uint256",
          "name": "_limit",
          "type": "uint256"
        }
      ],
      "name": "getLendOrderBook",
      "outputs": [
        {
          "internalType": "uint256[]",
          "name": "unitPrices",
          "type": "uint256[]"
        },
        {
          "internalType": "uint256[]",
          "name": "amounts",
          "type": "uint256[]"
        },
        {
          "internalType": "uint256[]",
          "name": "quantities",
          "type": "uint256[]"
        }
      ],
      "stateMutability": "view",
      "type": "function"
    },
    {
      "inputs": [
        {
          "internalType": "bytes32",
          "name": "_ccy",
          "type": "bytes32"
        }
      ],
      "name": "getLendUnitPrices",
      "outputs": [
        {
          "internalType": "uint256[]",
          "name": "",
          "type": "uint256[]"
        }
      ],
      "stateMutability": "view",
      "type": "function"
    },
    {
      "inputs": [
        {
          "internalType": "bytes32",
          "name": "_ccy",
          "type": "bytes32"
        },
        {
          "internalType": "uint256",
          "name": "_maturity",
          "type": "uint256"
        }
      ],
      "name": "getLendingMarket",
      "outputs": [
        {
          "internalType": "address",
          "name": "",
          "type": "address"
        }
      ],
      "stateMutability": "view",
      "type": "function"
    },
    {
      "inputs": [
        {
          "internalType": "bytes32",
          "name": "_ccy",
          "type": "bytes32"
        }
      ],
      "name": "getLendingMarkets",
      "outputs": [
        {
          "internalType": "address[]",
          "name": "",
          "type": "address[]"
        }
      ],
      "stateMutability": "view",
      "type": "function"
    },
    {
      "inputs": [
        {
          "internalType": "bytes32",
          "name": "_ccy",
          "type": "bytes32"
        }
      ],
      "name": "getMaturities",
      "outputs": [
        {
          "internalType": "uint256[]",
          "name": "",
          "type": "uint256[]"
        }
      ],
      "stateMutability": "view",
      "type": "function"
    },
    {
      "inputs": [
        {
          "internalType": "bytes32",
          "name": "_ccy",
          "type": "bytes32"
        }
      ],
      "name": "getMidUnitPrices",
      "outputs": [
        {
          "internalType": "uint256[]",
          "name": "",
          "type": "uint256[]"
        }
      ],
      "stateMutability": "view",
      "type": "function"
    },
    {
      "inputs": [
        {
          "internalType": "bytes32",
          "name": "_ccy",
          "type": "bytes32"
        },
        {
          "internalType": "address",
          "name": "_user",
          "type": "address"
        }
      ],
      "name": "getTotalPresentValue",
      "outputs": [
        {
          "internalType": "int256",
          "name": "totalPresentValue",
          "type": "int256"
        }
      ],
      "stateMutability": "view",
      "type": "function"
    },
    {
      "inputs": [
        {
          "internalType": "address",
          "name": "_user",
          "type": "address"
        }
      ],
      "name": "getTotalPresentValueInETH",
      "outputs": [
        {
          "internalType": "int256",
          "name": "totalPresentValue",
          "type": "int256"
        }
      ],
      "stateMutability": "view",
      "type": "function"
    },
    {
      "inputs": [
        {
          "internalType": "address",
          "name": "_owner",
          "type": "address"
        },
        {
          "internalType": "address",
          "name": "_resolver",
          "type": "address"
        }
      ],
      "name": "initialize",
      "outputs": [],
      "stateMutability": "nonpayable",
      "type": "function"
    },
    {
      "inputs": [
        {
          "internalType": "bytes32",
          "name": "_ccy",
          "type": "bytes32"
        },
        {
          "internalType": "uint256",
          "name": "_basisDate",
          "type": "uint256"
        },
        {
          "internalType": "uint256",
          "name": "_compoundFactor",
          "type": "uint256"
        }
      ],
      "name": "initializeLendingMarket",
      "outputs": [],
      "stateMutability": "nonpayable",
      "type": "function"
    },
    {
      "inputs": [
        {
          "internalType": "bytes32",
          "name": "_ccy",
          "type": "bytes32"
        }
      ],
      "name": "isInitializedLendingMarket",
      "outputs": [
        {
          "internalType": "bool",
          "name": "",
          "type": "bool"
        }
      ],
      "stateMutability": "view",
      "type": "function"
    },
    {
      "inputs": [],
      "name": "isResolverCached",
      "outputs": [
        {
          "internalType": "bool",
          "name": "",
          "type": "bool"
        }
      ],
      "stateMutability": "view",
      "type": "function"
    },
    {
      "inputs": [],
      "name": "owner",
      "outputs": [
        {
          "internalType": "address",
          "name": "",
          "type": "address"
        }
      ],
      "stateMutability": "view",
      "type": "function"
    },
    {
      "inputs": [
        {
          "internalType": "bytes32",
          "name": "_ccy",
          "type": "bytes32"
        }
      ],
      "name": "pauseLendingMarkets",
      "outputs": [
        {
          "internalType": "bool",
          "name": "",
          "type": "bool"
        }
      ],
      "stateMutability": "nonpayable",
      "type": "function"
    },
    {
      "inputs": [],
      "name": "renounceOwnership",
      "outputs": [],
      "stateMutability": "nonpayable",
      "type": "function"
    },
    {
      "inputs": [],
      "name": "requiredContracts",
      "outputs": [
        {
          "internalType": "bytes32[]",
          "name": "contracts",
          "type": "bytes32[]"
        }
      ],
      "stateMutability": "pure",
      "type": "function"
    },
    {
      "inputs": [],
      "name": "resolver",
      "outputs": [
        {
          "internalType": "contract IAddressResolver",
          "name": "",
          "type": "address"
        }
      ],
      "stateMutability": "view",
      "type": "function"
    },
    {
      "inputs": [
        {
          "internalType": "bytes32",
          "name": "_ccy",
          "type": "bytes32"
        }
      ],
      "name": "rotateLendingMarkets",
      "outputs": [],
      "stateMutability": "nonpayable",
      "type": "function"
    },
    {
      "inputs": [
        {
          "internalType": "address",
          "name": "newOwner",
          "type": "address"
        }
      ],
      "name": "transferOwnership",
      "outputs": [],
      "stateMutability": "nonpayable",
      "type": "function"
    },
    {
      "inputs": [
        {
          "internalType": "bytes32",
          "name": "_ccy",
          "type": "bytes32"
        }
      ],
      "name": "unpauseLendingMarkets",
      "outputs": [
        {
          "internalType": "bool",
          "name": "",
          "type": "bool"
        }
      ],
      "stateMutability": "nonpayable",
      "type": "function"
    }
  ],
  "transactionHash": "0x346998b19a8e6fa9ae69f0c7a647465918c258fe546d2c884bb6fdba37e8b7b2",
  "args": [],
  "numDeployments": 2,
  "solcInputHash": "c342d2bd1c99543a927721b4c81728b9",
  "bytecode": "0x608060405234801561001057600080fd5b50600160005561581780620000266000396000f3fe60806040526004361061020f5760003560e01c80638b36d83311610118578063c41bde2f116100a0578063eb092a261161006f578063eb092a261461065d578063ef0799b31461067d578063f2fde38b1461069d578063faca409b146106bd578063fb54a6b3146106dd57600080fd5b8063c41bde2f146105e8578063e099765914610608578063e219baef1461061d578063e99d05381461063d57600080fd5b80639d3fc35d116100e75780639d3fc35d14610528578063a02be3dc14610548578063a963ad7f14610568578063b3cb8450146105a8578063bfd10cf6146105c857600080fd5b80638b36d833146104b35780638da5cb5b146104d3578063953dbcaa146104e85780639d180b651461050857600080fd5b80633d03b9da1161019b578063715018a61161016a578063715018a6146103ee57806373bb3b091461040357806383d4c5db1461043857806385323e1a146104735780638a9817451461049357600080fd5b80633d03b9da1461035f578063485cc9551461038157806349f2ccbf146103a157806355aceb4e146103c157600080fd5b806329985e5a116101e257806329985e5a146102c55780632af64bd3146102da5780632e6c5e67146102ff578063371c672c1461031f578063381ada1f1461033257600080fd5b806304f3bcec146102145780630594de6e146102465780630a2db1921461027557806317b72ff414610297575b600080fd5b34801561022057600080fd5b506102296106fd565b6040516001600160a01b0390911681526020015b60405180910390f35b34801561025257600080fd5b50610266610261366004614d4c565b61071e565b60405161023d93929190614db3565b34801561028157600080fd5b50610295610290366004614e0b565b6107dd565b005b3480156102a357600080fd5b506102b76102b2366004614e28565b6108d8565b60405190815260200161023d565b3480156102d157600080fd5b50610295610a53565b3480156102e657600080fd5b506102ef610c00565b604051901515815260200161023d565b34801561030b57600080fd5b506102ef61031a366004614e58565b610d66565b6102ef61032d366004614d4c565b610d86565b34801561033e57600080fd5b5061035261034d366004614e58565b610e29565b60405161023d9190614e71565b34801561036b57600080fd5b50610374610e9e565b60405161023d9190614ebe565b34801561038d57600080fd5b5061029561039c366004614ef6565b610f92565b3480156103ad57600080fd5b506102ef6103bc366004614f24565b611114565b3480156103cd57600080fd5b506103e16103dc366004614e58565b611333565b60405161023d9190614f68565b3480156103fa57600080fd5b50610295611494565b34801561040f57600080fd5b5061042361041e366004614e28565b6114cf565b6040805192835260208301919091520161023d565b34801561044457600080fd5b50610458610453366004614e0b565b61176b565b6040805193845260208401929092529082015260600161023d565b34801561047f57600080fd5b5061022961048e366004614f7b565b611962565b34801561049f57600080fd5b506102296104ae366004614f7b565b6119cb565b3480156104bf57600080fd5b506102956104ce366004614e58565b6119fd565b3480156104df57600080fd5b50610229611f17565b3480156104f457600080fd5b50610266610503366004614d4c565b611f3f565b34801561051457600080fd5b50610423610523366004614e0b565b611f9e565b34801561053457600080fd5b50610458610543366004614e28565b61214c565b34801561055457600080fd5b506103e1610563366004614e58565b61237b565b34801561057457600080fd5b50610588610583366004614e58565b6124dc565b604080516001600160a01b0393841681529290911660208301520161023d565b3480156105b457600080fd5b506102ef6105c3366004614e58565b612a3b565b3480156105d457600080fd5b506103e16105e3366004614e58565b612b39565b3480156105f457600080fd5b50610295610603366004614e0b565b612c9a565b34801561061457600080fd5b50610374612ec6565b34801561062957600080fd5b50610295610638366004614d4c565b612f09565b34801561064957600080fd5b506102ef610658366004614e58565b613067565b34801561066957600080fd5b506103e1610678366004614e58565b61315c565b34801561068957600080fd5b506102b7610698366004614e58565b6132bd565b3480156106a957600080fd5b506102956106b8366004614e0b565b6132db565b3480156106c957600080fd5b506102ef6106d8366004614faa565b61337b565b3480156106e957600080fd5b506102b76106f8366004614e0b565b613416565b60006000805160206157c28339815191525b546001600160a01b0316919050565b6060806060600061072d61351d565b600088815260029190910160209081526040808320898452909152908190205490516325fb168b60e11b8152600481018790526001600160a01b0390911691508190634bf62d16906024015b60006040518083038186803b15801561079157600080fd5b505afa1580156107a5573d6000803e3d6000fd5b505050506040513d6000823e601f3d908101601f191682016040526107cd91908101906150a4565b9350935093505093509350939050565b60006107e761351d565b6001600160a01b03831660009081526005919091016020526040812091505b61080f82613541565b8110156108d3576000610825610563848461354b565b90506000805b825181101561087f57610861610841868661354b565b8483815181106108535761085361512c565b60200260200101518861355e565b61086b9083615158565b91508061087781615170565b91505061082b565b50806108be576108bc610892858561354b565b61089a61351d565b6001600160a01b038816600090815260059190910160205260409020906139e1565b505b505080806108cb90615170565b915050610806565b505050565b6000805b6108e461351d565b60008581526020919091526040902054811015610a4c57600061090561351d565b6000868152602091909152604090208054839081106109265761092661512c565b60009182526020822001546001600160a01b031691508061094561351d565b6000888152600191909101602090815260408083206001600160a01b03878116855292529182902054915163070da1af60e11b81528882166004820152911690630e1b435e90602401604080518083038186803b1580156109a557600080fd5b505afa1580156109b9573d6000803e3d6000fd5b505050506040513d601f19601f820116820180604052508101906109dd919061518b565b91509150610a2a8782846109ef61351d565b60008c815260209190915260409020805489908110610a1057610a1061512c565b6000918252602090912001546001600160a01b03166139ed565b610a3490866151af565b94505050508080610a4490615170565b9150506108dc565b5092915050565b6000610a5d610e9e565b905060005b8151811015610bfc576000828281518110610a7f57610a7f61512c565b602002602001015190506000610aa06000805160206157c283398151915290565b54604080517f5265736f6c766572206d697373696e67207461726765743a200000000000000060208201526039808201869052825180830390910181526059820192839052636795dbcd60e01b9092526001600160a01b0390921691636795dbcd91610b1191869190605d0161523d565b60206040518083038186803b158015610b2957600080fd5b505afa158015610b3d573d6000803e3d6000fd5b505050506040513d601f19601f82011682018060405250810190610b61919061525e565b60008381527f4abde63c3e81aefa5764b017968bc473e83e093d7e1a10247d19e0a3e4124019602090815260409182902080546001600160a01b0319166001600160a01b03851690811790915582518681529182015281519293507f88a93678a3692f6789d9546fc621bf7234b101ddb7d4fe479455112831b8aa68929081900390910190a150508080610bf490615170565b915050610a62565b5050565b600080610c0b610e9e565b905060005b8151811015610d5d576000828281518110610c2d57610c2d61512c565b60200260200101519050610c4c6000805160206157c283398151915290565b600082815260019190910160205260409020546001600160a01b03166000805160206157c2833981519152546040516321f8a72160e01b8152600481018490526001600160a01b03909116906321f8a7219060240160206040518083038186803b158015610cb957600080fd5b505afa158015610ccd573d6000803e3d6000fd5b505050506040513d601f19601f82011682018060405250810190610cf1919061525e565b6001600160a01b0316141580610d3b575060008181527f4abde63c3e81aefa5764b017968bc473e83e093d7e1a10247d19e0a3e412401960205260409020546001600160a01b0316155b15610d4a576000935050505090565b5080610d5581615170565b915050610c10565b50600191505090565b6000610d7061351d565b6000928352600301602052506040902054151590565b600060026000541415610db45760405162461bcd60e51b8152600401610dab9061527b565b60405180910390fd5b6002600090815584908490610dc761351d565b6000848152600291909101602090815260408083208584529091529020546001600160a01b03161415610e0c5760405162461bcd60e51b8152600401610dab906152b2565b610e1a868660003488613ceb565b60016000559695505050505050565b6060610e3361351d565b6000838152602091825260409081902080548251818502810185019093528083529192909190830182828015610e9257602002820191906000526020600020905b81546001600160a01b03168152600190910190602001808311610e74575b50505050509050919050565b60408051600480825260a0820190925260609160208201608080368337019050509050742132b0b1b7b7283937bc3ca1b7b73a3937b63632b960591b81600081518110610eed57610eed61512c565b6020026020010181815250507121bab93932b731bca1b7b73a3937b63632b960711b81600181518110610f2257610f2261512c565b6020026020010181815250507011d95b995cda5cd5985b1d5955985d5b1d607a1b81600281518110610f5657610f5661512c565b60200260200101818152505069151bdad95b95985d5b1d60b21b81600381518110610f8357610f8361512c565b60200260200101818152505090565b600154610100900460ff1615808015610faf57506001805460ff16105b80610fc85750303b158015610fc857506001805460ff16145b61102b5760405162461bcd60e51b815260206004820152602e60248201527f496e697469616c697a61626c653a20636f6e747261637420697320616c72656160448201526d191e481a5b9a5d1a585b1a5e995960921b6064820152608401610dab565b6001805460ff191681179055801561104d576001805461ff0019166101001790555b6000611057614285565b6001600160a01b031614156110b95760405162461bcd60e51b815260206004820152602260248201527f4d7573742062652063616c6c65642066726f6d2070726f787920636f6e74726160448201526118dd60f21b6064820152608401610dab565b6110c2836142ad565b6110cb8261431e565b80156108d3576001805461ff00191681556040519081527f7f26b83ff96e1f2b6a682f133852f6798a09c465da95921460cefb38474024989060200160405180910390a1505050565b6000600260005414156111395760405162461bcd60e51b8152600401610dab9061527b565b600260009081558490849061114c61351d565b6000848152600291909101602090815260408083208584529091529020546001600160a01b031614156111915760405162461bcd60e51b8152600401610dab906152b2565b600061119b61351d565b60008881526002919091016020908152604080832089845290915280822054905163504b89bd60e01b815233600482015265ffffffffffff881660248201526001600160a01b03909116925081908190849063504b89bd90604401606060405180830381600087803b15801561121057600080fd5b505af1158015611224573d6000803e3d6000fd5b505050506040513d601f19601f8201168201806040525081019061124891906152dc565b91945092509050600083600181111561126357611263615313565b14156112d3576112716143b3565b6001600160a01b0316636002de99338c856040518463ffffffff1660e01b81526004016112a093929190615329565b600060405180830381600087803b1580156112ba57600080fd5b505af11580156112ce573d6000803e3d6000fd5b505050505b89336001600160a01b03167f882188071c39e32cd4ffd0cef7a006a29eaae9e4018d72cef313a0f4686cdb918a868d878760405161131595949392919061536c565b60405180910390a36001965050505050505060016000559392505050565b6060600061133f61351d565b6000848152602091909152604090205467ffffffffffffffff81111561136757611367614ff3565b604051908082528060200260200182016040528015611390578160200160208202803683370190505b50905060005b61139e61351d565b60008581526020919091526040902054811015610a4c5760006113bf61351d565b6000868152602091909152604090208054839081106113e0576113e061512c565b6000918252602091829020015460408051631b3508b760e01b815290516001600160a01b0390921693508392631b3508b792600480840193829003018186803b15801561142c57600080fd5b505afa158015611440573d6000803e3d6000fd5b505050506040513d601f19601f8201168201806040525081019061146491906153a4565b8383815181106114765761147661512c565b6020908102919091010152508061148c81615170565b915050611396565b3361149d611f17565b6001600160a01b0316146114c35760405162461bcd60e51b8152600401610dab906153bd565b6114cd60006142ad565b565b60008060005b6114dd61351d565b6000868152602091909152604090205481101561160c57600080600061150161351d565b6000898152602091909152604090208054859081106115225761152261512c565b6000918252602090912001546040516339f7dda360e21b81526001600160a01b0389811660048301529091169063e7df768c9060240160606040518083038186803b15801561157057600080fd5b505afa158015611584573d6000803e3d6000fd5b505050506040513d601f19601f820116820180604052508101906115a891906153f2565b919450925090506115b98387615158565b95506115ea8882846115c961351d565b60008d815260209190915260409020805489908110610a1057610a1061512c565b6115f49086615158565b9450505050808061160490615170565b9150506114d5565b5060006116176143d0565b60405163c3e7a7ad60e01b8152600481018790526001600160a01b038681166024830152919091169063c3e7a7ad9060440160206040518083038186803b15801561166157600080fd5b505afa158015611675573d6000803e3d6000fd5b505050506040513d601f19601f8201168201806040525081019061169991906153a4565b9050600081131561176357611756816116b061351d565b60008881526020919091526040812080549091906116d0576116d061512c565b60009182526020918290200154604080516371613c2d60e01b815290516001600160a01b03909216926371613c2d92600480840193829003018186803b15801561171957600080fd5b505afa15801561172d573d6000803e3d6000fd5b505050506040513d601f19601f8201168201806040525081019061175191906153a4565b6143ef565b6117609083615158565b91505b509250929050565b60008060008061177961351d565b6001600160a01b03861660009081526005919091016020526040812091505b6117a182613541565b8110156119595760006117b4838361354b565b6040805160038082526080820190925291925060009190602082016060803683370190505090506117e5828961214c565b836000815181106117f8576117f861512c565b60200260200101846001815181106118125761181261512c565b602002602001018560028151811061182c5761182c61512c565b6020908102919091010192909252919052526000611848614408565b6001600160a01b031663939fe62284846040518363ffffffff1660e01b8152600401611875929190615420565b60006040518083038186803b15801561188d57600080fd5b505afa1580156118a1573d6000803e3d6000fd5b505050506040513d6000823e601f3d908101601f191682016040526118c99190810190615439565b9050806000815181106118de576118de61512c565b6020026020010151886118f19190615158565b9750806001815181106119065761190661512c565b6020026020010151876119199190615158565b96508060028151811061192e5761192e61512c565b6020026020010151866119419190615158565b9550505050808061195190615170565b915050611798565b50509193909250565b600061196c61351d565b6000848152600191909101602052604081209061198761351d565b6000868152600291909101602090815260408083208784528252808320546001600160a01b0390811685529184019490945291909201909120541690505b92915050565b60006119d561351d565b600093845260020160209081526040808520938552929052509020546001600160a01b031690565b60026000541415611a205760405162461bcd60e51b8152600401610dab9061527b565b600260009081558190611a3161351d565b6000838152602091909152604090205411611aa75760405162461bcd60e51b815260206004820152603060248201527f4e6f206c656e64696e67206d61726b65747320657869737420666f722061207360448201526f706563696669632063757272656e637960801b6064820152608401610dab565b6000611ab161351d565b600084815260209190915260408120805490925082908290611ad557611ad561512c565b600091825260208220015483546001600160a01b03909116925083906001908110611b0257611b0261512c565b600091825260208220015484546001600160a01b039091169250611bc6908590611b2e9060019061546e565b81548110611b3e57611b3e61512c565b600091825260209182902001546040805163e16695b560e01b815290516001600160a01b039092169263e16695b592600480840193829003018186803b158015611b8757600080fd5b505afa158015611b9b573d6000803e3d6000fd5b505050506040513d601f19601f82011682018060405250810190611bbf91906153a4565b6003614428565b60405163baa2675760e01b8152600481018290529091506000906001600160a01b0385169063baa2675790602401602060405180830381600087803b158015611c0e57600080fd5b505af1158015611c22573d6000803e3d6000fd5b505050506040513d601f19601f82011682018060405250810190611c4691906153a4565b905060005b8554811015611cf55785546000908290611c679060019061546e565b14611ca25786611c78836001615158565b81548110611c8857611c8861512c565b6000918252602090912001546001600160a01b0316611ca4565b855b905080878381548110611cb957611cb961512c565b600091825260209091200180546001600160a01b0319166001600160a01b03929092169190911790555080611ced81615170565b915050611c4b565b50611cfe6143d0565b6001600160a01b031663b95a33ab8883866001600160a01b031663e16695b56040518163ffffffff1660e01b815260040160206040518083038186803b158015611d4757600080fd5b505afa158015611d5b573d6000803e3d6000fd5b505050506040513d601f19601f82011682018060405250810190611d7f91906153a4565b876001600160a01b03166371613c2d6040518163ffffffff1660e01b815260040160206040518083038186803b158015611db857600080fd5b505afa158015611dcc573d6000803e3d6000fd5b505050506040513d601f19601f82011682018060405250810190611df091906153a4565b6040516001600160e01b031960e087901b1681526004810194909452602484019290925260448301526064820152608401600060405180830381600087803b158015611e3b57600080fd5b505af1158015611e4f573d6000803e3d6000fd5b5050505083611e5c61351d565b600089815260029190910160209081526040808320868452909152902080546001600160a01b0319166001600160a01b0392909216919091179055611e9f61351d565b60008881526002919091016020908152604080832084845282529182902080546001600160a01b031916905581518981529081018390529081018390527f98cbd76ce00c88aafa668f8d8ee624506fdfd22fc473f74ea1b75addf544c2209060600160405180910390a1505060016000555050505050565b60007f9acda75aebd150dd434541a4747a6dc606f4f1a59662477e67daf1fc0bf9e0aa61070f565b60608060606000611f4e61351d565b6000888152600291909101602090815260408083208984529091529081902054905163d866d35560e01b8152600481018790526001600160a01b039091169150819063d866d35590602401610779565b6000806000611fab61351d565b6001600160a01b03851660009081526005919091016020526040812091505b611fd382613541565b811015612145576000611fe6838361354b565b604080516002808252606082018352929350600092909160208301908036833701905050905061201682886114cf565b826000815181106120295761202961512c565b60200260200101836001815181106120435761204361512c565b602090810291909101019190915252600061205c614408565b6001600160a01b031663939fe62284846040518363ffffffff1660e01b8152600401612089929190615420565b60006040518083038186803b1580156120a157600080fd5b505afa1580156120b5573d6000803e3d6000fd5b505050506040513d6000823e601f3d908101601f191682016040526120dd9190810190615439565b9050806000815181106120f2576120f261512c565b6020026020010151876121059190615158565b96508060018151811061211a5761211a61512c565b60200260200101518661212d9190615158565b9550505050808061213d90615170565b915050611fca565b5050915091565b60008080805b61215a61351d565b6000878152602091909152604090205481101561229a5760008060008061217f61351d565b60008b8152602091909152604090208054869081106121a0576121a061512c565b600091825260209091200154604051631c7b209b60e31b81526001600160a01b038b811660048301529091169063e3d904d89060240160806040518083038186803b1580156121ee57600080fd5b505afa158015612202573d6000803e3d6000fd5b505050506040513d601f19601f820116820180604052508101906122269190615485565b9350935093509350838861223a9190615158565b975061226b8a828461224a61351d565b60008f81526020919091526040902080548a908110610a1057610a1061512c565b6122759088615158565b96506122818387615158565b955050505050808061229290615170565b915050612152565b5060006122a56143d0565b60405163c3e7a7ad60e01b8152600481018890526001600160a01b038781166024830152919091169063c3e7a7ad9060440160206040518083038186803b1580156122ef57600080fd5b505afa158015612303573d6000803e3d6000fd5b505050506040513d601f19601f8201168201806040525081019061232791906153a4565b905060008112156123735761236661233e826154bb565b61234661351d565b60008981526020919091526040812080549091906116d0576116d061512c565b6123709084615158565b92505b509250925092565b6060600061238761351d565b6000848152602091909152604090205467ffffffffffffffff8111156123af576123af614ff3565b6040519080825280602002602001820160405280156123d8578160200160208202803683370190505b50905060005b6123e661351d565b60008581526020919091526040902054811015610a4c57600061240761351d565b6000868152602091909152604090208054839081106124285761242861512c565b600091825260209182902001546040805163e16695b560e01b815290516001600160a01b039092169350839263e16695b592600480840193829003018186803b15801561247457600080fd5b505afa158015612488573d6000803e3d6000fd5b505050506040513d601f19601f820116820180604052508101906124ac91906153a4565b8383815181106124be576124be61512c565b602090810291909101015250806124d481615170565b9150506123de565b600080336124e8611f17565b6001600160a01b03161461250e5760405162461bcd60e51b8152600401610dab906153bd565b6125166143d0565b6001600160a01b0316630cf7505d846040518263ffffffff1660e01b815260040161254391815260200190565b60206040518083038186803b15801561255b57600080fd5b505afa15801561256f573d6000803e3d6000fd5b505050506040513d601f19601f8201168201806040525081019061259391906154d8565b6125fe5760405162461bcd60e51b815260206004820152603660248201527f4c656e64696e67206d61726b6574206861736e2774206265656e20696e697469604482015275616c697a656420696e207468652063757272656e637960501b6064820152608401610dab565b612606614408565b6001600160a01b031663d4d4f6ce846040518263ffffffff1660e01b815260040161263391815260200190565b60206040518083038186803b15801561264b57600080fd5b505afa15801561265f573d6000803e3d6000fd5b505050506040513d601f19601f8201168201806040525081019061268391906154d8565b6126c35760405162461bcd60e51b81526020600482015260116024820152704e4f4e20535550504f525445442043435960781b6044820152606401610dab565b60006126cd61351d565b6000858152600391909101602052604081205491506126ea61351d565b6000868152602091909152604090205411156127cf5761270861351d565b600085815260209190915260409020600161272161351d565b6000878152602091909152604090205461273b919061546e565b8154811061274b5761274b61512c565b600091825260209182902001546040805163e16695b560e01b815290516001600160a01b039092169263e16695b592600480840193829003018186803b15801561279457600080fd5b505afa1580156127a8573d6000803e3d6000fd5b505050506040513d601f19601f820116820180604052508101906127cc91906153a4565b90505b60006127dc826003614428565b90506127e66144ff565b6001600160a01b0316634672758f866127fd61351d565b60008981526003919091016020526040908190205490516001600160e01b031960e085901b1681526004810192909252602482015260448101849052606401602060405180830381600087803b15801561285657600080fd5b505af115801561286a573d6000803e3d6000fd5b505050506040513d601f19601f8201168201806040525081019061288e919061525e565b93506128986144ff565b60405163780b25f960e11b81523060048201526001600160a01b03919091169063f0164bf290602401602060405180830381600087803b1580156128db57600080fd5b505af11580156128ef573d6000803e3d6000fd5b505050506040513d601f19601f82011682018060405250810190612913919061525e565b925061291d61351d565b600086815260209182526040812080546001810182559082529190200180546001600160a01b0319166001600160a01b0386161790558361295c61351d565b600087815260029190910160209081526040808320858452909152902080546001600160a01b0319166001600160a01b0392909216919091179055826129a061351d565b6000878152600191909101602090815260408083206001600160a01b0389811680865291909352922080546001600160a01b0319169390911692909217909155857f5f1af77fb16a8d70e13dc1d6eef0f7b3f37103d1bfc348e1e57469c71864654385612a0b61351d565b60008a8152602091909152604090819020549051612a2c9291908790615329565b60405180910390a35050915091565b600033612a46611f17565b6001600160a01b031614612a6c5760405162461bcd60e51b8152600401610dab906153bd565b60005b612a7761351d565b60008481526020919091526040902054811015612b30576000612a9861351d565b600085815260209190915260409020805483908110612ab957612ab961512c565b60009182526020822001546040805163280dce3760e21b815290516001600160a01b039092169350839263a03738dc9260048084019382900301818387803b158015612b0457600080fd5b505af1158015612b18573d6000803e3d6000fd5b50505050508080612b2890615170565b915050612a6f565b50600192915050565b60606000612b4561351d565b6000848152602091909152604090205467ffffffffffffffff811115612b6d57612b6d614ff3565b604051908082528060200260200182016040528015612b96578160200160208202803683370190505b50905060005b612ba461351d565b60008581526020919091526040902054811015610a4c576000612bc561351d565b600086815260209190915260409020805483908110612be657612be661512c565b60009182526020918290200154604080516371613c2d60e01b815290516001600160a01b03909216935083926371613c2d92600480840193829003018186803b158015612c3257600080fd5b505afa158015612c46573d6000803e3d6000fd5b505050506040513d601f19601f82011682018060405250810190612c6a91906153a4565b838381518110612c7c57612c7c61512c565b60209081029190910101525080612c9281615170565b915050612b9c565b60026000541415612cbd5760405162461bcd60e51b8152600401610dab9061527b565b60026000908155612ccc61351d565b6001600160a01b03831660009081526004919091016020526040812091505b612cf482613541565b811015612ebc576000612d07838361354b565b90506000612d148261237b565b905060005b8151811015612de8576000612d2c61351d565b60020160008581526020019081526020016000206000848481518110612d5457612d5461512c565b6020026020010151815260200190815260200160002060009054906101000a90046001600160a01b03169050612dd584848481518110612d9657612d9661512c565b6020026020010151612da661351d565b6000888152600191909101602090815260408083206001600160a01b038089168552925290912054168a614522565b5080612de081615170565b915050612d19565b50612df16143d0565b60405163386320d360e11b8152600481018490526001600160a01b03878116602483015291909116906370c641a69060440160206040518083038186803b158015612e3b57600080fd5b505afa158015612e4f573d6000803e3d6000fd5b505050506040513d601f19601f82011682018060405250810190612e7391906153a4565b612ea757612ea582612e8361351d565b6001600160a01b038816600090815260049190910160205260409020906139e1565b505b50508080612eb490615170565b915050612ceb565b5050600160005550565b6040805160018082528183019092526060916020808301908036833701905050905069151bdad95b95985d5b1d60b21b81600081518110610f8357610f8361512c565b33612f12611f17565b6001600160a01b031614612f385760405162461bcd60e51b8152600401610dab906153bd565b60008111612f885760405162461bcd60e51b815260206004820152601760248201527f496e76616c696420636f6d706f756e6420666163746f720000000000000000006044820152606401610dab565b612f9183610d66565b15612fd45760405162461bcd60e51b8152602060048201526013602482015272105b1c9958591e481a5b9a5d1a585b1a5e9959606a1b6044820152606401610dab565b612fdc6143d0565b60405163dc9715c560e01b81526004810185905260126024820152604481018390526001600160a01b03919091169063dc9715c590606401600060405180830381600087803b15801561302e57600080fd5b505af1158015613042573d6000803e3d6000fd5b505050508161304f61351d565b60009485526003016020526040909320929092555050565b600033613072611f17565b6001600160a01b0316146130985760405162461bcd60e51b8152600401610dab906153bd565b60005b6130a361351d565b60008481526020919091526040902054811015612b305760006130c461351d565b6000858152602091909152604090208054839081106130e5576130e561512c565b600091825260208220015460408051630b0863e760e11b815290516001600160a01b0390921693508392631610c7ce9260048084019382900301818387803b15801561313057600080fd5b505af1158015613144573d6000803e3d6000fd5b5050505050808061315490615170565b91505061309b565b6060600061316861351d565b6000848152602091909152604090205467ffffffffffffffff81111561319057613190614ff3565b6040519080825280602002602001820160405280156131b9578160200160208202803683370190505b50905060005b6131c761351d565b60008581526020919091526040902054811015610a4c5760006131e861351d565b6000868152602091909152604090208054839081106132095761320961512c565b6000918252602091829020015460408051632f05aa6d60e11b815290516001600160a01b0390921693508392635e0b54da92600480840193829003018186803b15801561325557600080fd5b505afa158015613269573d6000803e3d6000fd5b505050506040513d601f19601f8201168201806040525081019061328d91906153a4565b83838151811061329f5761329f61512c565b602090810291909101015250806132b581615170565b9150506131bf565b60006132c761351d565b600092835260030160205250604090205490565b336132e4611f17565b6001600160a01b03161461330a5760405162461bcd60e51b8152600401610dab906153bd565b6001600160a01b03811661336f5760405162461bcd60e51b815260206004820152602660248201527f4f776e61626c653a206e6577206f776e657220697320746865207a65726f206160448201526564647265737360d01b6064820152608401610dab565b613378816142ad565b50565b6000600260005414156133a05760405162461bcd60e51b8152600401610dab9061527b565b60026000908155869086906133b361351d565b6000848152600291909101602090815260408083208584529091529020546001600160a01b031614156133f85760405162461bcd60e51b8152600401610dab906152b2565b6134058888888888613ceb565b600160005598975050505050505050565b60008061342161351d565b6001600160a01b03841660009081526004919091016020526040812091505b61344982613541565b81101561351657600061345c838361354b565b9050600061346a82876108d8565b9050613474614408565b6040516303a0a22f60e41b815260048101849052602481018390526001600160a01b039190911690633a0a22f09060440160206040518083038186803b1580156134bd57600080fd5b505afa1580156134d1573d6000803e3d6000fd5b505050506040513d601f19601f820116820180604052508101906134f591906153a4565b6134ff90866151af565b94505050808061350e90615170565b915050613440565b5050919050565b7f8041b8421ebd495cc61f38c788c9eb100daccf9bd36aa0bb920b7a15b2e0496590565b60006119c5825490565b60006135578383614658565b9392505050565b60008060008060008060008061357261351d565b60008c8152600291909101602090815260408083208d845290915290819020549051630516d8c960e11b81526001600160a01b038b8116600483015290911690630a2db1929060240160e060405180830381600087803b1580156135d557600080fd5b505af11580156135e9573d6000803e3d6000fd5b505050506040513d601f19601f8201168201806040525081019061360d91906154fa565b9650965096509650965096509650600083111561368e5761362c6143b3565b6001600160a01b0316631189abda8a8d866040518463ffffffff1660e01b815260040161365b93929190615329565b600060405180830381600087803b15801561367557600080fd5b505af1158015613689573d6000803e3d6000fd5b505050505b81156136fe5761369c6143b3565b6001600160a01b031663aec9455c8a8d856040518463ffffffff1660e01b81526004016136cb93929190615329565b600060405180830381600087803b1580156136e557600080fd5b505af11580156136f9573d6000803e3d6000fd5b505050505b841561386357600061370e61351d565b60008d8152600191909101602052604081209061372961351d565b60020160008f815260200190815260200160002060008e815260200190815260200160002060009054906101000a90046001600160a01b03166001600160a01b03166001600160a01b0316815260200190815260200160002060009054906101000a90046001600160a01b03169050806001600160a01b03166308482e5e8b88856040518463ffffffff1660e01b81526004016137c893929190615329565b602060405180830381600087803b1580156137e257600080fd5b505af11580156137f6573d6000803e3d6000fd5b505050506040513d601f19601f8201168201806040525081019061381a91906154d8565b50818c336001600160a01b03167f3dd6192fffa4612e795f196dc6367cfa6494cbe70d7cff3a039ebbbc4acb262e60008a60405161385992919061554e565b60405180910390a4505b83156139c857600061387361351d565b60008d8152600191909101602052604081209061388e61351d565b60020160008f815260200190815260200160002060008e815260200190815260200160002060009054906101000a90046001600160a01b03166001600160a01b03166001600160a01b0316815260200190815260200160002060009054906101000a90046001600160a01b03169050806001600160a01b031663a46971ad8b87856040518463ffffffff1660e01b815260040161392d93929190615329565b602060405180830381600087803b15801561394757600080fd5b505af115801561395b573d6000803e3d6000fd5b505050506040513d601f19601f8201168201806040525081019061397f91906154d8565b50818c336001600160a01b03167f3dd6192fffa4612e795f196dc6367cfa6494cbe70d7cff3a039ebbbc4acb262e6001896040516139be92919061554e565b60405180910390a4505b6139d28688615158565b9b9a5050505050505050505050565b60006135578383614682565b6000806139f86143d0565b6040516302b6878160e11b815260048101889052602481018790526001600160a01b03919091169063056d0f029060440160806040518083038186803b158015613a4157600080fd5b505afa158015613a55573d6000803e3d6000fd5b505050506040513d601f19601f82011682018060405250810190613a799190615569565b60200151905060008082613b0257859150846001600160a01b03166371613c2d6040518163ffffffff1660e01b815260040160206040518083038186803b158015613ac357600080fd5b505afa158015613ad7573d6000803e3d6000fd5b505050506040513d601f19601f82011682018060405250810190613afb91906153a4565b9050613cd5565b6000613b0c6143d0565b604051630c30971960e11b8152600481018b9052602481018a9052604481018990526001600160a01b0391909116906318612e329060640160206040518083038186803b158015613b5c57600080fd5b505afa158015613b70573d6000803e3d6000fd5b505050506040513d601f19601f82011682018060405250810190613b9491906153a4565b9050613b9e6143d0565b604051637636e94160e01b8152600481018b905260006024820152604481018390526001600160a01b039190911690637636e9419060640160206040518083038186803b158015613bee57600080fd5b505afa158015613c02573d6000803e3d6000fd5b505050506040513d601f19601f82011682018060405250810190613c2691906153a4565b9250613c3061351d565b60008a8152602091909152604081208054909190613c5057613c5061512c565b60009182526020918290200154604080516371613c2d60e01b815290516001600160a01b03909216926371613c2d92600480840193829003018186803b158015613c9957600080fd5b505afa158015613cad573d6000803e3d6000fd5b505050506040513d601f19601f82011682018060405250810190613cd191906153a4565b9150505b613cdf8282614775565b98975050505050505050565b600080846001811115613d0057613d00615313565b1480613d8e5750613d0f6143b3565b6001600160a01b0316631e16eb5b3388866040518463ffffffff1660e01b8152600401613d3e93929190615329565b60206040518083038186803b158015613d5657600080fd5b505afa158015613d6a573d6000803e3d6000fd5b505050506040513d601f19601f82011682018060405250810190613d8e91906154d8565b613dd25760405162461bcd60e51b8152602060048201526015602482015274139bdd08195b9bdd59da0818dbdb1b185d195c985b605a1b6044820152606401610dab565b6000613ddc61351d565b60008881526001919091016020526040812090613df761351d565b60008a8152600291909101602090815260408083208b84528252808320546001600160a01b039081168552918401949094529190920190912054169050613e4087878333614522565b6000613e4d88883361355e565b9050600080613e5a61351d565b60008b8152600291909101602090815260408083208c845290915290819020549051634eee449560e01b81526001600160a01b0390911690634eee449590613eac908b9033908c908c906004016155cf565b6040805180830381600087803b158015613ec557600080fd5b505af1158015613ed9573d6000803e3d6000fd5b505050506040513d601f19601f82011682018060405250810190613efd919061518b565b915091508160001480613f105750600081115b15613f2357613f20600184615158565b92505b6005831115613f6d5760405162461bcd60e51b8152602060048201526016602482015275546f6f206d616e7920616374697665206f726465727360501b6044820152606401610dab565b613f798a8a338661478e565b81613fca57888a336001600160a01b03167f3a665a917b140525f0275d43b0b2584ef6a9de932462558cd901a657b61126408b8b8b604051613fbd93929190615601565b60405180910390a46141ac565b6001886001811115613fde57613fde615313565b14156140de57613fec6143b3565b6001600160a01b0316636002de99338c614006858c61546e565b6040518463ffffffff1660e01b815260040161402493929190615329565b600060405180830381600087803b15801561403e57600080fd5b505af1158015614052573d6000803e3d6000fd5b505060405163a46971ad60e01b81526001600160a01b038716925063a46971ad915061408690339086908e90600401615329565b602060405180830381600087803b1580156140a057600080fd5b505af11580156140b4573d6000803e3d6000fd5b505050506040513d601f19601f820116820180604052508101906140d891906154d8565b50614162565b604051630424172f60e11b81526001600160a01b038516906308482e5e9061410e90339086908e90600401615329565b602060405180830381600087803b15801561412857600080fd5b505af115801561413c573d6000803e3d6000fd5b505050506040513d601f19601f8201168201806040525081019061416091906154d8565b505b888a336001600160a01b03167f5af4e2baa5d844d0439bc0122be7cf9d47b6680937eaabce58bd1ca2f16486ae8b8b8b886040516141a39493929190615620565b60405180910390a45b6141d18a6141b861351d565b33600090815260049190910160205260409020906148f9565b50600082156141e057816141e2565b875b905080158015906142045750600089600181111561420257614202615313565b145b15614274576142116143b3565b6001600160a01b031663c20753bd34338e856040518563ffffffff1660e01b815260040161424193929190615329565b6000604051808303818588803b15801561425a57600080fd5b505af115801561426e573d6000803e3d6000fd5b50505050505b5060019a9950505050505050505050565b60007f360894a13ba1a3210667c828492db98dca3e2076cc3735a920a3ca505d382bbc61070f565b7f9acda75aebd150dd434541a4747a6dc606f4f1a59662477e67daf1fc0bf9e0aa80546001600160a01b038381166001600160a01b0319831681179093556040519116919082907f8be0079c531659141344cd1fd0a4f28419497f9722a3daafe3b4186f6b6457e090600090a35050565b6000805160206157c2833981519152546001600160a01b0316156143845760405162461bcd60e51b815260206004820152601b60248201527f7265736f6c766572207265676973746572656420616c726561647900000000006044820152606401610dab565b6000805160206157c283398151915280546001600160a01b0319166001600160a01b0392909216919091179055565b60006143cb69151bdad95b95985d5b1d60b21b614905565b905090565b60006143cb7011d95b995cda5cd5985b1d5955985d5b1d607a1b614905565b60006127106143fe8385615649565b613557919061567e565b60006143cb7121bab93932b731bca1b7b73a3937b63632b960711b614905565b600080808061444261443d620151808861567e565b614996565b919450925090506144538583615158565b9150600c61446260018461546e565b61446c919061567e565b6144769084615158565b9250600c61448560018461546e565b61448f9190615692565b61449a906001615158565b915060006144a88484614b0a565b9050808211156144b6578091505b6144c36201518088615692565b620151806144d2868686614b90565b6144dc9190615649565b6144e69190615158565b9450868510156144f557600080fd5b5050505092915050565b60006143cb742132b0b1b7b7283937bc3ca1b7b73a3937b63632b960591b614905565b60405163ae100e6d60e01b81526001600160a01b03828116600483015260248201859052600091829185169063ae100e6d906044016040805180830381600087803b15801561457057600080fd5b505af1158015614584573d6000803e3d6000fd5b505050506040513d601f19601f820116820180604052508101906145a8919061518b565b9150915081600014614650576145bc6143d0565b604051634ab34b2b60e11b8152600481018890526001600160a01b03858116602483015260448201849052606482018590529190911690639566965690608401602060405180830381600087803b15801561461657600080fd5b505af115801561462a573d6000803e3d6000fd5b505050506040513d601f19601f8201168201806040525081019061464e91906154d8565b505b505050505050565b600082600001828154811061466f5761466f61512c565b9060005260206000200154905092915050565b6000818152600183016020526040812054801561476b5760006146a660018361546e565b85549091506000906146ba9060019061546e565b905081811461471f5760008660000182815481106146da576146da61512c565b90600052602060002001549050808760000184815481106146fd576146fd61512c565b6000918252602080832090910192909255918252600188019052604090208390555b8554869080614730576147306156a6565b6001900381819060005260206000200160009055905585600101600086815260200190815260200160002060009055600193505050506119c5565b60009150506119c5565b600061271061478483856156bc565b6135579190615741565b8015158061479a61351d565b6001600160a01b03851660009081526006919091016020908152604080832089845282528083208884529091529020805460ff19169115159190911790558061488a5760006147e88661237b565b905060005b8151811015614887576147fe61351d565b6006016000866001600160a01b03166001600160a01b03168152602001908152602001600020600088815260200190815260200160002060008383815181106148495761484961512c565b60209081029190910181015182528101919091526040016000205460ff16156148755760019250614887565b8061487f81615170565b9150506147ed565b50505b80156148c4576148be8561489c61351d565b6001600160a01b038616600090815260059190910160205260409020906148f9565b506148f2565b614650856148d061351d565b6001600160a01b038616600090815260059190910160205260409020906139e1565b5050505050565b60006135578383614cc1565b60008181527f4abde63c3e81aefa5764b017968bc473e83e093d7e1a10247d19e0a3e41240196020908152604080832054815170026b4b9b9b4b7339030b2323932b9b99d1607d1b9381019390935260318084018690528251808503909101815260519093019091526001600160a01b03169081610a4c5760405162461bcd60e51b8152600401610dab919061576f565b60008080838162253d8c6149ad8362010bd96151af565b6149b791906151af565b9050600062023ab16149ca8360046156bc565b6149d49190615741565b905060046149e58262023ab16156bc565b6149f09060036151af565b6149fa9190615741565b614a049083615782565b9150600062164b09614a178460016151af565b614a2390610fa06156bc565b614a2d9190615741565b90506004614a3d826105b56156bc565b614a479190615741565b614a519084615782565b614a5c90601f6151af565b9250600061098f614a6e8560506156bc565b614a789190615741565b905060006050614a8a8361098f6156bc565b614a949190615741565b614a9e9086615782565b9050614aab600b83615741565b9450614ab885600c6156bc565b614ac38360026151af565b614acd9190615782565b91508483614adc603187615782565b614ae79060646156bc565b614af191906151af565b614afb91906151af565b9a919950975095505050505050565b60008160011480614b1b5750816003145b80614b265750816005145b80614b315750816007145b80614b3c5750816008145b80614b47575081600a145b80614b52575081600c145b15614b5f5750601f6119c5565b81600214614b6f5750601e6119c5565b614b7883614d10565b614b8357601c614b86565b601d5b60ff169392505050565b60006107b2841015614ba157600080fd5b838383600062253d8c60046064600c614bbb600e88615782565b614bc59190615741565b614bd1886113246151af565b614bdb91906151af565b614be59190615741565b614bf09060036156bc565b614bfa9190615741565b600c80614c08600e88615782565b614c129190615741565b614c1d90600c6156bc565b614c28600288615782565b614c329190615782565b614c3e9061016f6156bc565b614c489190615741565b6004600c614c57600e89615782565b614c619190615741565b614c6d896112c06151af565b614c7791906151af565b614c83906105b56156bc565b614c8d9190615741565b614c99617d4b87615782565b614ca391906151af565b614cad91906151af565b614cb79190615782565b613cdf9190615782565b6000818152600183016020526040812054614d08575081546001818101845560008481526020808220909301849055845484825282860190935260409020919091556119c5565b5060006119c5565b6000614d1d600483615692565b158015614d335750614d30606483615692565b15155b806119c55750614d4561019083615692565b1592915050565b600080600060608486031215614d6157600080fd5b505081359360208301359350604090920135919050565b600081518084526020808501945080840160005b83811015614da857815187529582019590820190600101614d8c565b509495945050505050565b606081526000614dc66060830186614d78565b8281036020840152614dd88186614d78565b90508281036040840152614dec8185614d78565b9695505050505050565b6001600160a01b038116811461337857600080fd5b600060208284031215614e1d57600080fd5b813561355781614df6565b60008060408385031215614e3b57600080fd5b823591506020830135614e4d81614df6565b809150509250929050565b600060208284031215614e6a57600080fd5b5035919050565b6020808252825182820181905260009190848201906040850190845b81811015614eb25783516001600160a01b031683529284019291840191600101614e8d565b50909695505050505050565b6020808252825182820181905260009190848201906040850190845b81811015614eb257835183529284019291840191600101614eda565b60008060408385031215614f0957600080fd5b8235614f1481614df6565b91506020830135614e4d81614df6565b600080600060608486031215614f3957600080fd5b8335925060208401359150604084013565ffffffffffff81168114614f5d57600080fd5b809150509250925092565b6020815260006135576020830184614d78565b60008060408385031215614f8e57600080fd5b50508035926020909101359150565b6002811061337857600080fd5b600080600080600060a08688031215614fc257600080fd5b85359450602086013593506040860135614fdb81614f9d565b94979396509394606081013594506080013592915050565b634e487b7160e01b600052604160045260246000fd5b600082601f83011261501a57600080fd5b8151602067ffffffffffffffff8083111561503757615037614ff3565b8260051b604051601f19603f8301168101818110848211171561505c5761505c614ff3565b60405293845285810183019383810192508785111561507a57600080fd5b83870191505b8482101561509957815183529183019190830190615080565b979650505050505050565b6000806000606084860312156150b957600080fd5b835167ffffffffffffffff808211156150d157600080fd5b6150dd87838801615009565b945060208601519150808211156150f357600080fd5b6150ff87838801615009565b9350604086015191508082111561511557600080fd5b5061512286828701615009565b9150509250925092565b634e487b7160e01b600052603260045260246000fd5b634e487b7160e01b600052601160045260246000fd5b6000821982111561516b5761516b615142565b500190565b600060001982141561518457615184615142565b5060010190565b6000806040838503121561519e57600080fd5b505080516020909101519092909150565b600080821280156001600160ff1b03849003851316156151d1576151d1615142565b600160ff1b83900384128116156151ea576151ea615142565b50500190565b6000815180845260005b81811015615216576020818501810151868301820152016151fa565b81811115615228576000602083870101525b50601f01601f19169290920160200192915050565b82815260406020820152600061525660408301846151f0565b949350505050565b60006020828403121561527057600080fd5b815161355781614df6565b6020808252601f908201527f5265656e7472616e637947756172643a207265656e7472616e742063616c6c00604082015260600190565b60208082526010908201526f496e76616c6964206d6174757269747960801b604082015260600190565b6000806000606084860312156152f157600080fd5b83516152fc81614f9d565b602085015160409095015190969495509392505050565b634e487b7160e01b600052602160045260246000fd5b6001600160a01b039390931683526020830191909152604082015260600190565b6002811061536857634e487b7160e01b600052602160045260246000fd5b9052565b65ffffffffffff8616815260a08101615388602083018761534a565b8460408301528360608301528260808301529695505050505050565b6000602082840312156153b657600080fd5b5051919050565b6020808252818101527f4f776e61626c653a2063616c6c6572206973206e6f7420746865206f776e6572604082015260600190565b60008060006060848603121561540757600080fd5b8351925060208401519150604084015190509250925092565b8281526040602082015260006152566040830184614d78565b60006020828403121561544b57600080fd5b815167ffffffffffffffff81111561546257600080fd5b61525684828501615009565b60008282101561548057615480615142565b500390565b6000806000806080858703121561549b57600080fd5b505082516020840151604085015160609095015191969095509092509050565b6000600160ff1b8214156154d1576154d1615142565b5060000390565b6000602082840312156154ea57600080fd5b8151801515811461355757600080fd5b600080600080600080600060e0888a03121561551557600080fd5b5050855160208701516040880151606089015160808a015160a08b015160c0909b0151949c939b50919990985090965094509092509050565b6040810161555c828561534a565b8260208301529392505050565b60006080828403121561557b57600080fd5b6040516080810181811067ffffffffffffffff8211171561559e5761559e614ff3565b8060405250825181526020830151602082015260408301516040820152606083015160608201528091505092915050565b608081016155dd828761534a565b6001600160a01b039490941660208201526040810192909252606090910152919050565b6060810161560f828661534a565b602082019390935260400152919050565b6080810161562e828761534a565b84602083015283604083015282606083015295945050505050565b600081600019048311821515161561566357615663615142565b500290565b634e487b7160e01b600052601260045260246000fd5b60008261568d5761568d615668565b500490565b6000826156a1576156a1615668565b500690565b634e487b7160e01b600052603160045260246000fd5b60006001600160ff1b03818413828413808216868404861116156156e2576156e2615142565b600160ff1b600087128281168783058912161561570157615701615142565b6000871292508782058712848416161561571d5761571d615142565b8785058712818416161561573357615733615142565b505050929093029392505050565b60008261575057615750615668565b600160ff1b82146000198414161561576a5761576a615142565b500590565b60208152600061355760208301846151f0565b60008083128015600160ff1b8501841216156157a0576157a0615142565b6001600160ff1b03840183138116156157bb576157bb615142565b5050039056fe4abde63c3e81aefa5764b017968bc473e83e093d7e1a10247d19e0a3e4124018a2646970667358221220c99c91ff62513049af56acf746b3e6df1b872787d9e2703f54be385af4aa6c7264736f6c63430008090033",
  "libraries": {
    "QuickSort": "0x62a47f376E19b2A9A7c2b0314A49eaa738a90670"
  },
  "implementation": "0x0Be9383278b365590e7e97BC699A4E0D491a3775",
  "devdoc": {
    "kind": "dev",
    "methods": {
      "acceptedContracts()": {
        "details": "The contact name listed in this method is also needed to be listed `requiredContracts` method."
      },
      "calculateBorrowedFundsFromOrders(bytes32,address)": {
        "params": {
          "_ccy": "Currency name in bytes32",
          "_user": "User's address"
        },
        "returns": {
          "borrowedAmount": "The borrowed amount due to the borrow orders being filled on the order book",
          "obligationAmount": "The debt amount due to the borrow orders being filled on the order book",
          "workingOrdersAmount": "The working orders amount on the order book"
        }
      },
      "calculateLentFundsFromOrders(bytes32,address)": {
        "params": {
          "_ccy": "Currency name in bytes32",
          "_user": "User's address"
        },
        "returns": {
          "claimableAmount": "The claimable amount due to the lending orders being filled on the order book",
          "workingOrdersAmount": "The working orders amount on the order book"
        }
      },
      "calculateTotalBorrowedFundsInETH(address)": {
        "params": {
          "_user": "User's address"
        },
        "returns": {
          "totalBorrowedAmount": "The total borrowed amount due to the borrow orders being filled on the order book",
          "totalObligationAmount": "The total debt amount due to the borrow orders being filled on the order book",
          "totalWorkingOrdersAmount": "The total working orders amount on the order book"
        }
      },
      "calculateTotalLentFundsInETH(address)": {
        "params": {
          "_user": "User's address"
        },
        "returns": {
          "totalClaimableAmount": "The total claimable amount due to the lending orders being filled on the order book",
          "totalWorkingOrdersAmount": "The total working orders amount on the order book"
        }
      },
      "cancelOrder(bytes32,uint256,uint48)": {
        "params": {
          "_ccy": "Currency name in bytes32 of the selected market",
          "_maturity": "The maturity of the selected market",
          "_orderId": "Market order id"
        }
      },
      "cleanOrders(address)": {
        "params": {
          "_user": "User's address"
        }
      },
      "convertFutureValueToGenesisValue(address)": {
        "params": {
          "_user": "User's address"
        }
      },
      "createLendOrderWithETH(bytes32,uint256,uint256)": {
        "params": {
          "_ccy": "Currency name in bytes32 of the selected market",
          "_maturity": "The maturity of the selected market",
          "_unitPrice": "Amount of unit price taker wish to borrow/lend"
        },
        "returns": {
          "_0": "True if the execution of the operation succeeds"
        }
      },
      "createLendingMarket(bytes32)": {
        "params": {
          "_ccy": "Main currency for new lending market"
        },
        "returns": {
          "market": "The proxy contract address of created lending market"
        }
      },
      "createOrder(bytes32,uint256,uint8,uint256,uint256)": {
        "params": {
          "_amount": "Amount of funds the maker wants to borrow/lend",
          "_ccy": "Currency name in bytes32 of the selected market",
          "_maturity": "The maturity of the selected market",
          "_side": "Order position type, Borrow or Lend",
          "_unitPrice": "Amount of unit price taker wish to borrow/lend"
        },
        "returns": {
          "_0": "True if the execution of the operation succeeds"
        }
      },
      "getBasisDate(bytes32)": {
        "params": {
          "_ccy": "Currency name in bytes32"
        },
        "returns": {
          "_0": "The basis date"
        }
      },
      "getBorrowOrderBook(bytes32,uint256,uint256)": {
        "params": {
          "_ccy": "Currency name in bytes32",
          "_limit": "The limit number to get",
          "_maturity": "The maturity of the market"
        },
        "returns": {
          "amounts": "The array of borrow order amounts",
          "quantities": "The array of borrow order quantities",
          "unitPrices": "The array of borrow unit prices"
        }
      },
      "getBorrowUnitPrices(bytes32)": {
        "params": {
          "_ccy": "Currency name in bytes32"
        },
        "returns": {
          "_0": "Array with the borrowing prices per future value of the lending market"
        }
      },
      "getFutureValueVault(bytes32,uint256)": {
        "params": {
          "_ccy": "Currency name in bytes32",
          "_maturity": "The maturity of the market"
        },
        "returns": {
          "_0": "The lending market address"
        }
      },
      "getLendOrderBook(bytes32,uint256,uint256)": {
        "params": {
          "_ccy": "Currency name in bytes32",
          "_limit": "The limit number to get",
          "_maturity": "The maturity of the market"
        },
        "returns": {
          "amounts": "The array of lend order amounts",
          "quantities": "The array of lend order quantities",
          "unitPrices": "The array of borrow unit prices"
        }
      },
      "getLendUnitPrices(bytes32)": {
        "params": {
          "_ccy": "Currency name in bytes32"
        },
        "returns": {
          "_0": "Array with the lending prices per future value of the lending market"
        }
      },
      "getLendingMarket(bytes32,uint256)": {
        "params": {
          "_ccy": "Currency name in bytes32",
          "_maturity": "The maturity of the market"
        },
        "returns": {
          "_0": "The lending market address"
        }
      },
      "getLendingMarkets(bytes32)": {
        "params": {
          "_ccy": "Currency name in bytes32"
        },
        "returns": {
          "_0": "Array with the lending market address"
        }
      },
      "getMaturities(bytes32)": {
        "params": {
          "_ccy": "Currency name in bytes32"
        },
        "returns": {
          "_0": "Array with the lending market maturity"
        }
      },
      "getMidUnitPrices(bytes32)": {
        "params": {
          "_ccy": "Currency name in bytes32"
        },
        "returns": {
          "_0": "Array with the mid prices per future value of the lending market"
        }
      },
      "getTotalPresentValue(bytes32,address)": {
        "params": {
          "_ccy": "Currency name in bytes32 for Lending Market",
          "_user": "User's address"
        },
        "returns": {
          "totalPresentValue": "The total present value"
        }
      },
      "getTotalPresentValueInETH(address)": {
        "params": {
          "_user": "User's address"
        },
        "returns": {
          "totalPresentValue": "The total present value in ETH"
        }
      },
      "initialize(address,address)": {
        "details": "Function is invoked by the proxy contract when the contract is added to the ProxyController.",
        "params": {
          "_owner": "The address of the contract owner",
          "_resolver": "The address of the Address Resolver contract"
        }
      },
      "initializeLendingMarket(bytes32,uint256,uint256)": {
        "params": {
          "_basisDate": "The basis date when the initial market is opened",
          "_ccy": "Currency name in bytes32",
          "_compoundFactor": "The initial compound factor when the initial market is opened"
        }
      },
      "isInitializedLendingMarket(bytes32)": {
        "params": {
          "_ccy": "Currency name in bytes32"
        },
        "returns": {
          "_0": "The boolean if the lending market is initialized or not"
        }
      },
      "owner()": {
        "details": "Returns the address of the current owner."
      },
      "pauseLendingMarkets(bytes32)": {
        "params": {
          "_ccy": "Currency for pausing all lending markets"
        },
        "returns": {
          "_0": "True if the execution of the operation succeeds"
        }
      },
      "renounceOwnership()": {
        "details": "Leaves the contract without owner. It will not be possible to call `onlyOwner` functions anymore. Can only be called by the current owner. NOTE: Renouncing ownership will leave the contract without an owner, thereby removing any functionality that is only available to the owner."
      },
      "requiredContracts()": {
        "details": "The contract name list is in `./libraries/Contracts.sol`."
      },
      "rotateLendingMarkets(bytes32)": {
        "params": {
          "_ccy": "Currency name in bytes32 of the selected market"
        }
      },
      "transferOwnership(address)": {
        "details": "Transfers ownership of the contract to a new account (`newOwner`). Can only be called by the current owner."
      },
      "unpauseLendingMarkets(bytes32)": {
        "params": {
          "_ccy": "Currency for pausing all lending markets"
        },
        "returns": {
          "_0": "True if the execution of the operation succeeds"
        }
      }
    },
    "version": 1
  },
  "userdoc": {
    "kind": "user",
    "methods": {
      "acceptedContracts()": {
        "notice": "Returns contract names that can call this contract."
      },
      "calculateBorrowedFundsFromOrders(bytes32,address)": {
        "notice": "Gets the funds that are calculated from the user's borrowing order list for the selected currency."
      },
      "calculateLentFundsFromOrders(bytes32,address)": {
        "notice": "Gets the funds that are calculated from the user's lending order list for the selected currency."
      },
      "calculateTotalBorrowedFundsInETH(address)": {
        "notice": "Gets the funds that are calculated in EHT from the user's borrowing order list."
      },
      "calculateTotalLentFundsInETH(address)": {
        "notice": "Gets the funds that are calculated in EHT from the user's lending order list."
      },
      "cancelOrder(bytes32,uint256,uint48)": {
        "notice": "Cancels the own order."
      },
      "cleanOrders(address)": {
        "notice": "Cleans own orders to remove order ids that are already filled on the order book."
      },
      "convertFutureValueToGenesisValue(address)": {
        "notice": "Converts FutureValue to GenesisValue if there is balance in the past maturity."
      },
      "createLendOrderWithETH(bytes32,uint256,uint256)": {
        "notice": "Creates the lend order with ETH. Takes the order if the order is matched, and places new order if not match it."
      },
      "createLendingMarket(bytes32)": {
        "notice": "Deploys new Lending Market and save address at lendingMarkets mapping.Reverts on deployment market with existing currency and term"
      },
      "createOrder(bytes32,uint256,uint8,uint256,uint256)": {
        "notice": "Creates the order. Takes the order if the order is matched, and places new order if not match it. In addition, converts the future value to the genesis value if there is future value in past maturity before the execution of order creation."
      },
      "getBasisDate(bytes32)": {
        "notice": "Gets the basis date when the first market opens for the selected currency."
      },
      "getBorrowOrderBook(bytes32,uint256,uint256)": {
        "notice": "Gets the order book of borrow."
      },
      "getBorrowUnitPrices(bytes32)": {
        "notice": "Gets borrow prices per future value for the selected currency."
      },
      "getFutureValueVault(bytes32,uint256)": {
        "notice": "Gets the feture value contract address for the selected currency and maturity."
      },
      "getLendOrderBook(bytes32,uint256,uint256)": {
        "notice": "Gets the order book of lend."
      },
      "getLendUnitPrices(bytes32)": {
        "notice": "Gets lend prices per future value for the selected currency."
      },
      "getLendingMarket(bytes32,uint256)": {
        "notice": "Gets the lending market contract address for the selected currency and maturity."
      },
      "getLendingMarkets(bytes32)": {
        "notice": "Gets the lending market contract addresses for the selected currency."
      },
      "getMaturities(bytes32)": {
        "notice": "Gets maturities for the selected currency."
      },
      "getMidUnitPrices(bytes32)": {
        "notice": "Gets mid prices per future value for the selected currency."
      },
      "getTotalPresentValue(bytes32,address)": {
        "notice": "Gets the total present value of the account for selected currency."
      },
      "getTotalPresentValueInETH(address)": {
        "notice": "Gets the total present value of the account converted to ETH."
      },
      "initialize(address,address)": {
        "notice": "Initializes the contract."
      },
      "initializeLendingMarket(bytes32,uint256,uint256)": {
        "notice": "Initialize the lending market to set a basis date and compound factor"
      },
      "isInitializedLendingMarket(bytes32)": {
        "notice": "Gets if the lending market is initialized."
      },
      "pauseLendingMarkets(bytes32)": {
        "notice": "Pauses previously deployed lending market by currency"
      },
      "requiredContracts()": {
        "notice": "Returns the contract names used in this contract."
      },
      "rotateLendingMarkets(bytes32)": {
        "notice": "Rotate the lending markets. In this rotation, the following actions are happened. - Updates the maturity at the beginning of the market array. - Moves the beginning of the market array to the end of it. - Update the compound factor in this contract using the next market unit price."
      },
      "unpauseLendingMarkets(bytes32)": {
        "notice": "Unpauses previously deployed lending market by currency"
      }
    },
    "notice": "Implements the module to manage separated lending order-book markets per maturity. This contract also works as a factory contract that can deploy(start)a new lending market for selected currency and maturity and has the calculation logic for the Genesis value in addition. Deployed Lending Markets are rotated and reused as it reaches the maturity date. At the time of rotation, a new maturity date is set and the compound factor is updated. The users mainly call this contract to create orders to lend or borrow funds.",
    "version": 1
  },
  "storageLayout": {
    "storage": [
      {
        "astId": 1053,
        "contract": "contracts/LendingMarketController.sol:LendingMarketController",
        "label": "_status",
        "offset": 0,
        "slot": "0",
        "type": "t_uint256"
      },
      {
        "astId": 790,
        "contract": "contracts/LendingMarketController.sol:LendingMarketController",
        "label": "_initialized",
        "offset": 0,
        "slot": "1",
        "type": "t_uint8"
      },
      {
        "astId": 793,
        "contract": "contracts/LendingMarketController.sol:LendingMarketController",
        "label": "_initializing",
        "offset": 1,
        "slot": "1",
        "type": "t_bool"
      }
    ],
    "types": {
      "t_bool": {
        "encoding": "inplace",
        "label": "bool",
        "numberOfBytes": "1"
      },
      "t_uint256": {
        "encoding": "inplace",
        "label": "uint256",
        "numberOfBytes": "32"
      },
      "t_uint8": {
        "encoding": "inplace",
        "label": "uint8",
        "numberOfBytes": "1"
      }
    }
  }
}