{
  "address": "0x1BEe02bccAe81a3D3A16aE181Ad48EfA436c5817",
  "abi": [
    {
      "anonymous": false,
      "inputs": [
        {
          "indexed": false,
          "internalType": "bytes32",
          "name": "name",
          "type": "bytes32"
        },
        {
          "indexed": false,
          "internalType": "address",
          "name": "destination",
          "type": "address"
        }
      ],
      "name": "CacheUpdated",
      "type": "event"
    },
    {
      "anonymous": false,
      "inputs": [
        {
          "indexed": false,
          "internalType": "uint48",
          "name": "orderId",
          "type": "uint48"
        },
        {
          "indexed": true,
          "internalType": "address",
          "name": "maker",
          "type": "address"
        },
        {
          "indexed": true,
          "internalType": "bytes32",
          "name": "ccy",
          "type": "bytes32"
        },
        {
          "indexed": false,
          "internalType": "enum ProtocolTypes.Side",
          "name": "side",
          "type": "uint8"
        },
        {
          "indexed": false,
          "internalType": "uint256",
          "name": "maturity",
          "type": "uint256"
        },
        {
          "indexed": false,
          "internalType": "uint256",
          "name": "amount",
          "type": "uint256"
        },
        {
          "indexed": false,
          "internalType": "uint256",
          "name": "unitPrice",
          "type": "uint256"
        }
      ],
      "name": "CancelOrder",
      "type": "event"
    },
    {
      "anonymous": false,
      "inputs": [
        {
          "indexed": true,
          "internalType": "bytes32",
          "name": "ccy",
          "type": "bytes32"
        },
        {
          "indexed": true,
          "internalType": "address",
          "name": "marketAddr",
          "type": "address"
        },
        {
          "indexed": false,
          "internalType": "address",
          "name": "futureValueVault",
          "type": "address"
        },
        {
          "indexed": false,
          "internalType": "uint256",
          "name": "index",
          "type": "uint256"
        },
        {
          "indexed": false,
          "internalType": "uint256",
          "name": "maturity",
          "type": "uint256"
        }
      ],
      "name": "CreateLendingMarket",
      "type": "event"
    },
    {
      "anonymous": false,
      "inputs": [
        {
          "indexed": true,
          "internalType": "address",
          "name": "taker",
          "type": "address"
        },
        {
          "indexed": true,
          "internalType": "bytes32",
          "name": "ccy",
          "type": "bytes32"
        },
        {
          "indexed": false,
          "internalType": "enum ProtocolTypes.Side",
          "name": "side",
          "type": "uint8"
        },
        {
          "indexed": true,
          "internalType": "uint256",
          "name": "maturity",
          "type": "uint256"
        },
        {
          "indexed": false,
          "internalType": "uint256",
          "name": "amount",
          "type": "uint256"
        },
        {
          "indexed": false,
          "internalType": "uint256",
          "name": "unitPrice",
          "type": "uint256"
        },
        {
          "indexed": false,
          "internalType": "uint256",
          "name": "filledFutureValue",
          "type": "uint256"
        }
      ],
      "name": "FillOrder",
      "type": "event"
    },
    {
      "anonymous": false,
      "inputs": [
        {
          "indexed": true,
          "internalType": "address",
          "name": "taker",
          "type": "address"
        },
        {
          "indexed": true,
          "internalType": "bytes32",
          "name": "ccy",
          "type": "bytes32"
        },
        {
          "indexed": false,
          "internalType": "enum ProtocolTypes.Side",
          "name": "side",
          "type": "uint8"
        },
        {
          "indexed": true,
          "internalType": "uint256",
          "name": "maturity",
          "type": "uint256"
        },
        {
          "indexed": false,
          "internalType": "uint256",
          "name": "filledFutureValue",
          "type": "uint256"
        }
      ],
      "name": "FillOrdersAsync",
      "type": "event"
    },
    {
      "anonymous": false,
      "inputs": [
        {
          "indexed": false,
          "internalType": "uint8",
          "name": "version",
          "type": "uint8"
        }
      ],
      "name": "Initialized",
      "type": "event"
    },
    {
      "anonymous": false,
      "inputs": [
        {
          "indexed": true,
          "internalType": "address",
          "name": "user",
          "type": "address"
        },
        {
          "indexed": false,
          "internalType": "bytes32",
          "name": "collateralCcy",
          "type": "bytes32"
        },
        {
          "indexed": true,
          "internalType": "bytes32",
          "name": "debtCcy",
          "type": "bytes32"
        },
        {
          "indexed": true,
          "internalType": "uint256",
          "name": "debtMaturity",
          "type": "uint256"
        },
        {
          "indexed": false,
          "internalType": "uint256",
          "name": "amount",
          "type": "uint256"
        }
      ],
      "name": "Liquidate",
      "type": "event"
    },
    {
      "anonymous": false,
      "inputs": [
        {
          "indexed": true,
          "internalType": "address",
          "name": "previousOwner",
          "type": "address"
        },
        {
          "indexed": true,
          "internalType": "address",
          "name": "newOwner",
          "type": "address"
        }
      ],
      "name": "OwnershipTransferred",
      "type": "event"
    },
    {
      "anonymous": false,
      "inputs": [
        {
          "indexed": false,
          "internalType": "bytes32",
          "name": "ccy",
          "type": "bytes32"
        },
        {
          "indexed": false,
          "internalType": "uint256",
          "name": "oldMaturity",
          "type": "uint256"
        },
        {
          "indexed": false,
          "internalType": "uint256",
          "name": "newMaturity",
          "type": "uint256"
        }
      ],
      "name": "RotateLendingMarkets",
      "type": "event"
    },
    {
      "inputs": [],
      "name": "acceptedContracts",
      "outputs": [
        {
          "internalType": "bytes32[]",
          "name": "contracts",
          "type": "bytes32[]"
        }
      ],
      "stateMutability": "pure",
      "type": "function"
    },
    {
      "inputs": [],
      "name": "buildCache",
      "outputs": [],
      "stateMutability": "nonpayable",
      "type": "function"
    },
    {
      "inputs": [
        {
          "internalType": "bytes32",
          "name": "_ccy",
          "type": "bytes32"
        },
        {
          "internalType": "address",
          "name": "_user",
          "type": "address"
        }
      ],
      "name": "calculateBorrowedFundsFromOrders",
      "outputs": [
        {
          "internalType": "uint256",
          "name": "workingOrdersAmount",
          "type": "uint256"
        },
        {
          "internalType": "uint256",
          "name": "debtAmount",
          "type": "uint256"
        },
        {
          "internalType": "uint256",
          "name": "borrowedAmount",
          "type": "uint256"
        }
      ],
      "stateMutability": "view",
      "type": "function"
    },
    {
      "inputs": [
        {
          "internalType": "bytes32",
          "name": "_ccy",
          "type": "bytes32"
        },
        {
          "internalType": "address",
          "name": "_user",
          "type": "address"
        }
      ],
      "name": "calculateFunds",
      "outputs": [
        {
          "internalType": "uint256",
          "name": "workingLendOrdersAmount",
          "type": "uint256"
        },
        {
          "internalType": "uint256",
          "name": "claimableAmount",
          "type": "uint256"
        },
        {
          "internalType": "uint256",
          "name": "collateralAmount",
          "type": "uint256"
        },
        {
          "internalType": "uint256",
          "name": "lentAmount",
          "type": "uint256"
        },
        {
          "internalType": "uint256",
          "name": "workingBorrowOrdersAmount",
          "type": "uint256"
        },
        {
          "internalType": "uint256",
          "name": "debtAmount",
          "type": "uint256"
        },
        {
          "internalType": "uint256",
          "name": "borrowedAmount",
          "type": "uint256"
        }
      ],
      "stateMutability": "view",
      "type": "function"
    },
    {
      "inputs": [
        {
          "internalType": "bytes32",
          "name": "_ccy",
          "type": "bytes32"
        },
        {
          "internalType": "address",
          "name": "_user",
          "type": "address"
        }
      ],
      "name": "calculateLentFundsFromOrders",
      "outputs": [
        {
          "internalType": "uint256",
          "name": "workingOrdersAmount",
          "type": "uint256"
        },
        {
          "internalType": "uint256",
          "name": "claimableAmount",
          "type": "uint256"
        },
        {
          "internalType": "uint256",
          "name": "lentAmount",
          "type": "uint256"
        }
      ],
      "stateMutability": "view",
      "type": "function"
    },
    {
      "inputs": [
        {
          "internalType": "address",
          "name": "_user",
          "type": "address"
        },
        {
          "internalType": "bytes32",
          "name": "_depositCcy",
          "type": "bytes32"
        },
        {
          "internalType": "uint256",
          "name": "_depositAmount",
          "type": "uint256"
        }
      ],
      "name": "calculateTotalFundsInETH",
      "outputs": [
        {
          "internalType": "uint256",
          "name": "totalWorkingLendOrdersAmount",
          "type": "uint256"
        },
        {
          "internalType": "uint256",
          "name": "totalClaimableAmount",
          "type": "uint256"
        },
        {
          "internalType": "uint256",
          "name": "totalCollateralAmount",
          "type": "uint256"
        },
        {
          "internalType": "uint256",
          "name": "totalLentAmount",
          "type": "uint256"
        },
        {
          "internalType": "uint256",
          "name": "totalWorkingBorrowOrdersAmount",
          "type": "uint256"
        },
        {
          "internalType": "uint256",
          "name": "totalDebtAmount",
          "type": "uint256"
        },
        {
          "internalType": "uint256",
          "name": "totalBorrowedAmount",
          "type": "uint256"
        },
        {
          "internalType": "bool",
          "name": "isEnoughDeposit",
          "type": "bool"
        }
      ],
      "stateMutability": "view",
      "type": "function"
    },
    {
      "inputs": [
        {
          "internalType": "bytes32",
          "name": "_ccy",
          "type": "bytes32"
        },
        {
          "internalType": "uint256",
          "name": "_maturity",
          "type": "uint256"
        },
        {
          "internalType": "uint48",
          "name": "_orderId",
          "type": "uint48"
        }
      ],
      "name": "cancelOrder",
      "outputs": [
        {
          "internalType": "bool",
          "name": "",
          "type": "bool"
        }
      ],
      "stateMutability": "nonpayable",
      "type": "function"
    },
    {
      "inputs": [
        {
          "internalType": "address",
          "name": "_user",
          "type": "address"
        }
      ],
      "name": "cleanAllOrders",
      "outputs": [],
      "stateMutability": "nonpayable",
      "type": "function"
    },
    {
      "inputs": [
        {
          "internalType": "bytes32",
          "name": "_ccy",
          "type": "bytes32"
        },
        {
          "internalType": "address",
          "name": "_user",
          "type": "address"
        }
      ],
      "name": "cleanOrders",
      "outputs": [
        {
          "internalType": "uint256",
          "name": "totalActiveOrderCount",
          "type": "uint256"
        }
      ],
      "stateMutability": "nonpayable",
      "type": "function"
    },
    {
      "inputs": [
        {
          "internalType": "bytes32",
          "name": "_ccy",
          "type": "bytes32"
        }
      ],
      "name": "createLendingMarket",
      "outputs": [
        {
          "internalType": "address",
          "name": "market",
          "type": "address"
        },
        {
          "internalType": "address",
          "name": "futureValueVault",
          "type": "address"
        }
      ],
      "stateMutability": "nonpayable",
      "type": "function"
    },
    {
      "inputs": [
        {
          "internalType": "bytes32",
          "name": "_ccy",
          "type": "bytes32"
        },
        {
          "internalType": "uint256",
          "name": "_maturity",
          "type": "uint256"
        },
        {
          "internalType": "enum ProtocolTypes.Side",
          "name": "_side",
          "type": "uint8"
        },
        {
          "internalType": "uint256",
          "name": "_amount",
          "type": "uint256"
        },
        {
          "internalType": "uint256",
          "name": "_unitPrice",
          "type": "uint256"
        }
      ],
      "name": "createOrder",
      "outputs": [
        {
          "internalType": "bool",
          "name": "",
          "type": "bool"
        }
      ],
      "stateMutability": "nonpayable",
      "type": "function"
    },
    {
      "inputs": [
        {
          "internalType": "bytes32",
          "name": "_ccy",
          "type": "bytes32"
        },
        {
          "internalType": "uint256",
          "name": "_maturity",
          "type": "uint256"
        },
        {
          "internalType": "enum ProtocolTypes.Side",
          "name": "_side",
          "type": "uint8"
        },
        {
          "internalType": "uint256",
          "name": "_amount",
          "type": "uint256"
        },
        {
          "internalType": "uint256",
          "name": "_unitPrice",
          "type": "uint256"
        }
      ],
      "name": "depositAndCreateOrder",
      "outputs": [
        {
          "internalType": "bool",
          "name": "",
          "type": "bool"
        }
      ],
      "stateMutability": "payable",
      "type": "function"
    },
    {
      "inputs": [
        {
          "internalType": "bytes32",
          "name": "_collateralCcy",
          "type": "bytes32"
        },
        {
          "internalType": "bytes32",
          "name": "_debtCcy",
          "type": "bytes32"
        },
        {
          "internalType": "uint256",
          "name": "_debtMaturity",
          "type": "uint256"
        },
        {
          "internalType": "address",
          "name": "_user",
          "type": "address"
        },
        {
          "internalType": "uint24",
          "name": "_poolFee",
          "type": "uint24"
        }
      ],
      "name": "executeLiquidationCall",
      "outputs": [
        {
          "internalType": "bool",
          "name": "",
          "type": "bool"
        }
      ],
      "stateMutability": "nonpayable",
      "type": "function"
    },
    {
      "inputs": [
        {
          "internalType": "bytes32",
          "name": "_ccy",
          "type": "bytes32"
        },
        {
          "internalType": "uint256",
          "name": "_maturity",
          "type": "uint256"
        },
        {
          "internalType": "uint256",
          "name": "_limit",
          "type": "uint256"
        }
      ],
      "name": "getBorrowOrderBook",
      "outputs": [
        {
          "internalType": "uint256[]",
          "name": "unitPrices",
          "type": "uint256[]"
        },
        {
          "internalType": "uint256[]",
          "name": "amounts",
          "type": "uint256[]"
        },
        {
          "internalType": "uint256[]",
          "name": "quantities",
          "type": "uint256[]"
        }
      ],
      "stateMutability": "view",
      "type": "function"
    },
    {
      "inputs": [
        {
          "internalType": "bytes32",
          "name": "_ccy",
          "type": "bytes32"
        }
      ],
      "name": "getBorrowUnitPrices",
      "outputs": [
        {
          "internalType": "uint256[]",
          "name": "",
          "type": "uint256[]"
        }
      ],
      "stateMutability": "view",
      "type": "function"
    },
    {
      "inputs": [
        {
          "internalType": "bytes32",
          "name": "_ccy",
          "type": "bytes32"
        },
        {
          "internalType": "uint256",
          "name": "_maturity",
          "type": "uint256"
        },
        {
          "internalType": "address",
          "name": "_user",
          "type": "address"
        }
      ],
      "name": "getFutureValue",
      "outputs": [
        {
          "internalType": "int256",
          "name": "futureValue",
          "type": "int256"
        }
      ],
      "stateMutability": "view",
      "type": "function"
    },
    {
      "inputs": [
        {
          "internalType": "bytes32",
          "name": "_ccy",
          "type": "bytes32"
        },
        {
          "internalType": "uint256",
          "name": "_maturity",
          "type": "uint256"
        }
      ],
      "name": "getFutureValueVault",
      "outputs": [
        {
          "internalType": "address",
          "name": "",
          "type": "address"
        }
      ],
      "stateMutability": "view",
      "type": "function"
    },
    {
      "inputs": [
        {
          "internalType": "bytes32",
          "name": "_ccy",
          "type": "bytes32"
        }
      ],
      "name": "getGenesisDate",
      "outputs": [
        {
          "internalType": "uint256",
          "name": "",
          "type": "uint256"
        }
      ],
      "stateMutability": "view",
      "type": "function"
    },
    {
      "inputs": [
        {
          "internalType": "bytes32",
          "name": "_ccy",
          "type": "bytes32"
        },
        {
          "internalType": "uint256",
          "name": "_maturity",
          "type": "uint256"
        },
        {
          "internalType": "uint256",
          "name": "_limit",
          "type": "uint256"
        }
      ],
      "name": "getLendOrderBook",
      "outputs": [
        {
          "internalType": "uint256[]",
          "name": "unitPrices",
          "type": "uint256[]"
        },
        {
          "internalType": "uint256[]",
          "name": "amounts",
          "type": "uint256[]"
        },
        {
          "internalType": "uint256[]",
          "name": "quantities",
          "type": "uint256[]"
        }
      ],
      "stateMutability": "view",
      "type": "function"
    },
    {
      "inputs": [
        {
          "internalType": "bytes32",
          "name": "_ccy",
          "type": "bytes32"
        }
      ],
      "name": "getLendUnitPrices",
      "outputs": [
        {
          "internalType": "uint256[]",
          "name": "",
          "type": "uint256[]"
        }
      ],
      "stateMutability": "view",
      "type": "function"
    },
    {
      "inputs": [
        {
          "internalType": "bytes32",
          "name": "_ccy",
          "type": "bytes32"
        },
        {
          "internalType": "uint256",
          "name": "_maturity",
          "type": "uint256"
        }
      ],
      "name": "getLendingMarket",
      "outputs": [
        {
          "internalType": "address",
          "name": "",
          "type": "address"
        }
      ],
      "stateMutability": "view",
      "type": "function"
    },
    {
      "inputs": [
        {
          "internalType": "bytes32",
          "name": "_ccy",
          "type": "bytes32"
        }
      ],
      "name": "getLendingMarkets",
      "outputs": [
        {
          "internalType": "address[]",
          "name": "",
          "type": "address[]"
        }
      ],
      "stateMutability": "view",
      "type": "function"
    },
    {
      "inputs": [
        {
          "internalType": "bytes32",
          "name": "_ccy",
          "type": "bytes32"
        }
      ],
      "name": "getMaturities",
      "outputs": [
        {
          "internalType": "uint256[]",
          "name": "",
          "type": "uint256[]"
        }
      ],
      "stateMutability": "view",
      "type": "function"
    },
    {
      "inputs": [
        {
          "internalType": "bytes32",
          "name": "_ccy",
          "type": "bytes32"
        }
      ],
      "name": "getMidUnitPrices",
      "outputs": [
        {
          "internalType": "uint256[]",
          "name": "",
          "type": "uint256[]"
        }
      ],
      "stateMutability": "view",
      "type": "function"
    },
    {
      "inputs": [
        {
          "internalType": "bytes32",
          "name": "_ccy",
          "type": "bytes32"
        }
      ],
      "name": "getOrderFeeRate",
      "outputs": [
        {
          "internalType": "uint256",
          "name": "",
          "type": "uint256"
        }
      ],
      "stateMutability": "view",
      "type": "function"
    },
    {
      "inputs": [
        {
          "internalType": "bytes32",
          "name": "_ccy",
          "type": "bytes32"
        },
        {
          "internalType": "uint256",
          "name": "_maturity",
          "type": "uint256"
        },
        {
          "internalType": "address",
          "name": "_user",
          "type": "address"
        }
      ],
      "name": "getPresentValue",
      "outputs": [
        {
          "internalType": "int256",
          "name": "presentValue",
          "type": "int256"
        }
      ],
      "stateMutability": "view",
      "type": "function"
    },
    {
      "inputs": [
        {
          "internalType": "bytes32",
          "name": "_ccy",
          "type": "bytes32"
        },
        {
          "internalType": "address",
          "name": "_user",
          "type": "address"
        }
      ],
      "name": "getTotalPresentValue",
      "outputs": [
        {
          "internalType": "int256",
          "name": "totalPresentValue",
          "type": "int256"
        }
      ],
      "stateMutability": "view",
      "type": "function"
    },
    {
      "inputs": [
        {
          "internalType": "address",
          "name": "_user",
          "type": "address"
        }
      ],
      "name": "getTotalPresentValueInETH",
      "outputs": [
        {
          "internalType": "int256",
          "name": "totalPresentValue",
          "type": "int256"
        }
      ],
      "stateMutability": "view",
      "type": "function"
    },
    {
      "inputs": [
        {
          "internalType": "address",
          "name": "_user",
          "type": "address"
        }
      ],
      "name": "getUsedCurrencies",
      "outputs": [
        {
          "internalType": "bytes32[]",
          "name": "",
          "type": "bytes32[]"
        }
      ],
      "stateMutability": "view",
      "type": "function"
    },
    {
      "inputs": [
        {
          "internalType": "address",
          "name": "_owner",
          "type": "address"
        },
        {
          "internalType": "address",
          "name": "_resolver",
          "type": "address"
        }
      ],
      "name": "initialize",
      "outputs": [],
      "stateMutability": "nonpayable",
      "type": "function"
    },
    {
      "inputs": [
        {
          "internalType": "bytes32",
          "name": "_ccy",
          "type": "bytes32"
        },
        {
          "internalType": "uint256",
          "name": "_genesisDate",
          "type": "uint256"
        },
        {
          "internalType": "uint256",
          "name": "_compoundFactor",
          "type": "uint256"
        },
        {
          "internalType": "uint256",
          "name": "_orderFeeRate",
          "type": "uint256"
        }
      ],
      "name": "initializeLendingMarket",
      "outputs": [],
      "stateMutability": "nonpayable",
      "type": "function"
    },
    {
      "inputs": [
        {
          "internalType": "bytes32",
          "name": "_ccy",
          "type": "bytes32"
        }
      ],
      "name": "isInitializedLendingMarket",
      "outputs": [
        {
          "internalType": "bool",
          "name": "",
          "type": "bool"
        }
      ],
      "stateMutability": "view",
      "type": "function"
    },
    {
      "inputs": [
        {
          "internalType": "address",
          "name": "_user",
          "type": "address"
        }
      ],
      "name": "isLiquidator",
      "outputs": [
        {
          "internalType": "bool",
          "name": "",
          "type": "bool"
        }
      ],
      "stateMutability": "view",
      "type": "function"
    },
    {
      "inputs": [],
      "name": "isResolverCached",
      "outputs": [
        {
          "internalType": "bool",
          "name": "",
          "type": "bool"
        }
      ],
      "stateMutability": "view",
      "type": "function"
    },
    {
      "inputs": [],
      "name": "owner",
      "outputs": [
        {
          "internalType": "address",
          "name": "",
          "type": "address"
        }
      ],
      "stateMutability": "view",
      "type": "function"
    },
    {
      "inputs": [
        {
          "internalType": "bytes32",
          "name": "_ccy",
          "type": "bytes32"
        }
      ],
      "name": "pauseLendingMarkets",
      "outputs": [
        {
          "internalType": "bool",
          "name": "",
          "type": "bool"
        }
      ],
      "stateMutability": "nonpayable",
      "type": "function"
    },
    {
      "inputs": [
        {
          "internalType": "bool",
          "name": "_isLiquidator",
          "type": "bool"
        }
      ],
      "name": "registerLiquidator",
      "outputs": [],
      "stateMutability": "nonpayable",
      "type": "function"
    },
    {
      "inputs": [],
      "name": "renounceOwnership",
      "outputs": [],
      "stateMutability": "nonpayable",
      "type": "function"
    },
    {
      "inputs": [],
      "name": "requiredContracts",
      "outputs": [
        {
          "internalType": "bytes32[]",
          "name": "contracts",
          "type": "bytes32[]"
        }
      ],
      "stateMutability": "pure",
      "type": "function"
    },
    {
      "inputs": [],
      "name": "resolver",
      "outputs": [
        {
          "internalType": "contract IAddressResolver",
          "name": "",
          "type": "address"
        }
      ],
      "stateMutability": "view",
      "type": "function"
    },
    {
      "inputs": [
        {
          "internalType": "bytes32",
          "name": "_ccy",
          "type": "bytes32"
        }
      ],
      "name": "rotateLendingMarkets",
      "outputs": [],
      "stateMutability": "nonpayable",
      "type": "function"
    },
    {
      "inputs": [
        {
          "internalType": "address",
          "name": "newOwner",
          "type": "address"
        }
      ],
      "name": "transferOwnership",
      "outputs": [],
      "stateMutability": "nonpayable",
      "type": "function"
    },
    {
      "inputs": [
        {
          "internalType": "bytes32",
          "name": "_ccy",
          "type": "bytes32"
        }
      ],
      "name": "unpauseLendingMarkets",
      "outputs": [
        {
          "internalType": "bool",
          "name": "",
          "type": "bool"
        }
      ],
      "stateMutability": "nonpayable",
      "type": "function"
    },
    {
      "inputs": [
        {
          "internalType": "bytes32",
          "name": "_ccy",
          "type": "bytes32"
        },
        {
          "internalType": "uint256",
          "name": "_orderFeeRate",
          "type": "uint256"
        }
      ],
      "name": "updateOrderFeeRate",
      "outputs": [],
      "stateMutability": "nonpayable",
      "type": "function"
    }
  ],
  "transactionHash": "0xc511bbfcf35e77c1414820af8dbc5c058f0b04f291c5d0469fed7674adc10065",
  "args": [],
  "numDeployments": 2,
  "solcInputHash": "8f321fe09ea7db648a2c74856701e661",
  "bytecode": "0x608060405234801561001057600080fd5b5060016000556155c880620000266000396000f3fe6080604052600436106102675760003560e01c806385323e1a11610144578063b3cb8450116100b6578063e99d05381161007a578063e99d0538146107f2578063eb092a2614610812578063f2fde38b14610832578063faca409b14610852578063fb54a6b314610872578063fc7008101461089257600080fd5b8063b3cb84501461075d578063bfd10cf61461077d578063e09976591461079d578063e906c100146107b2578063e95dc183146107d257600080fd5b80638da5cb5b116101085780638da5cb5b14610688578063953dbcaa1461069d5780639d3fc35d146106bd578063a02be3dc146106dd578063a441bfe5146106fd578063a963ad7f1461071d57600080fd5b806385323e1a146105e8578063870cf8ab14610608578063891d5965146106285780638a981745146106485780638b36d8331461066857600080fd5b8063381ada1f116101dd578063529a356f116101a1578063529a356f146104d657806355aceb4e146104f65780635c347765146105235780635ca65d5714610578578063715018a61461059857806373bb3b09146105ad57600080fd5b8063381ada1f146104345780633d03b9da14610461578063448255c714610483578063485cc9551461049657806349f2ccbf146104b657600080fd5b8063223652611161022f5780632236526114610378578063268bb279146103a857806329985e5a146103ca5780632af64bd3146103df5780632e6c5e67146103f45780632e77aea71461041457600080fd5b80630312b5281461026c57806303e5fb59146102ce57806304f3bcec146102fc5780630594de6e1461032957806317b72ff414610358575b600080fd5b34801561027857600080fd5b5061028c610287366004614a58565b6108b2565b604080519889526020890197909752958701949094526060860192909252608085015260a084015260c0830152151560e0820152610100015b60405180910390f35b3480156102da57600080fd5b506102ee6102e9366004614a8d565b610967565b6040519081526020016102c5565b34801561030857600080fd5b50610311610985565b6040516001600160a01b0390911681526020016102c5565b34801561033557600080fd5b50610349610344366004614aa6565b6109a6565b6040516102c593929190614b0d565b34801561036457600080fd5b506102ee610373366004614b50565b610a65565b34801561038457600080fd5b50610398610393366004614b80565b610b03565b60405190151581526020016102c5565b3480156103b457600080fd5b506103c86103c3366004614bec565b610d81565b005b3480156103d657600080fd5b506103c8610d9c565b3480156103eb57600080fd5b50610398610f49565b34801561040057600080fd5b5061039861040f366004614a8d565b6110af565b34801561042057600080fd5b506102ee61042f366004614c10565b6110cf565b34801561044057600080fd5b5061045461044f366004614a8d565b611174565b6040516102c59190614c49565b34801561046d57600080fd5b506104766111e9565b6040516102c59190614c96565b610398610491366004614cdb565b61130b565b3480156104a257600080fd5b506103c86104b1366004614d24565b611417565b3480156104c257600080fd5b506103986104d1366004614d52565b61159a565b3480156104e257600080fd5b506103986104f1366004614d8b565b611734565b34801561050257600080fd5b50610516610511366004614a8d565b61173f565b6040516102c59190614da8565b34801561052f57600080fd5b5061054361053e366004614b50565b6118a7565b604080519788526020880196909652948601939093526060850191909152608084015260a083015260c082015260e0016102c5565b34801561058457600080fd5b506103c8610593366004614dbb565b611992565b3480156105a457600080fd5b506103c86119cb565b3480156105b957600080fd5b506105cd6105c8366004614b50565b611a06565b604080519384526020840192909252908201526060016102c5565b3480156105f457600080fd5b50610311610603366004614dbb565b611aad565b34801561061457600080fd5b506103c8610623366004614d8b565b611b0f565b34801561063457600080fd5b506102ee610643366004614a8d565b611b6e565b34801561065457600080fd5b50610311610663366004614dbb565b611b8c565b34801561067457600080fd5b506103c8610683366004614a8d565b611bbe565b34801561069457600080fd5b506103116120eb565b3480156106a957600080fd5b506103496106b8366004614aa6565b612113565b3480156106c957600080fd5b506105cd6106d8366004614b50565b612172565b3480156106e957600080fd5b506105166106f8366004614a8d565b6121c0565b34801561070957600080fd5b506103c8610718366004614ddd565b612321565b34801561072957600080fd5b5061073d610738366004614a8d565b6124a2565b604080516001600160a01b039384168152929091166020830152016102c5565b34801561076957600080fd5b50610398610778366004614a8d565b6129fd565b34801561078957600080fd5b50610516610798366004614a8d565b612afb565b3480156107a957600080fd5b50610476612c5c565b3480156107be57600080fd5b506102ee6107cd366004614c10565b612c9f565b3480156107de57600080fd5b506102ee6107ed366004614b50565b612cf0565b3480156107fe57600080fd5b5061039861080d366004614a8d565b612eb4565b34801561081e57600080fd5b5061051661082d366004614a8d565b612fa9565b34801561083e57600080fd5b506103c861084d366004614d8b565b61310a565b34801561085e57600080fd5b5061039861086d366004614cdb565b6131a7565b34801561087e57600080fd5b506102ee61088d366004614d8b565b613234565b34801561089e57600080fd5b506104766108ad366004614d8b565b6133c5565b60008060008060008060008073f0807C3918176280821A41A9c26aA0be8696450b630312b5288c8c8c6040518463ffffffff1660e01b81526004016108f993929190614e0f565b6101006040518083038186803b15801561091257600080fd5b505af4158015610926573d6000803e3d6000fd5b505050506040513d601f19601f8201168201806040525081019061094a9190614e30565b975097509750975097509750975097509397509397509397509397565b60006109716133f3565b600092835260060160205250604090205490565b60006000805160206155738339815191525b546001600160a01b0316919050565b606080606060006109b56133f3565b600088815260029190910160209081526040808320898452909152908190205490516325fb168b60e11b8152600481018790526001600160a01b0390911691508190634bf62d16906024015b60006040518083038186803b158015610a1957600080fd5b505afa158015610a2d573d6000803e3d6000fd5b505050506040513d6000823e601f3d908101601f19168201604052610a559190810190614f4b565b9350935093505093509350939050565b6040516385f3396760e01b8152600481018390526001600160a01b038216602482015260009073f0807C3918176280821A41A9c26aA0be8696450b906385f339679060440160206040518083038186803b158015610ac257600080fd5b505af4158015610ad6573d6000803e3d6000fd5b505050506040513d601f19601f82011682018060405250810190610afa9190614fd3565b90505b92915050565b600060026000541415610b315760405162461bcd60e51b8152600401610b2890614fec565b60405180910390fd5b6002600090815585908590610b446133f3565b6000848152600291909101602090815260408083208584529091529020546001600160a01b03161415610b895760405162461bcd60e51b8152600401610b2890615023565b333b15610bcd5760405162461bcd60e51b815260206004820152601260248201527143616c6c6572206d75737420626520454f4160701b6044820152606401610b28565b610bd633613417565b610c195760405162461bcd60e51b815260206004820152601460248201527343616c6c6572206973206e6f742061637469766560601b6044820152606401610b28565b610c238786612cf0565b50604051639c599f8b60e01b81523360048201526001600160a01b038616602482015260448101899052606481018890526084810187905262ffffff851660a4820152600090819073f0807C3918176280821A41A9c26aA0be8696450b90639c599f8b9060c401604080518083038186803b158015610ca157600080fd5b505af4158015610cb5573d6000803e3d6000fd5b505050506040513d601f19601f82011682018060405250810190610cd9919061504d565b9092509050808215610d09576000610cf98b8b8b60008860006001613454565b9050610d058183615087565b9150505b8015610d6a57888a896001600160a01b03167f2aa75186e5dc6215fe9b34c1bbcf001827defa52de1574957eb71fbf5c920b8a8e85604051610d55929190918252602082015260400190565b60405180910390a4610d688a8a8a6137da565b505b600195505050505050600160005595945050505050565b8015610d9357610d9033613970565b50565b610d903361399f565b6000610da66111e9565b905060005b8151811015610f45576000828281518110610dc857610dc861509f565b602002602001015190506000610de960008051602061557383398151915290565b54604080517f5265736f6c766572206d697373696e67207461726765743a200000000000000060208201526039808201869052825180830390910181526059820192839052636795dbcd60e01b9092526001600160a01b0390921691636795dbcd91610e5a91869190605d01615102565b60206040518083038186803b158015610e7257600080fd5b505afa158015610e86573d6000803e3d6000fd5b505050506040513d601f19601f82011682018060405250810190610eaa919061511b565b60008381527f4abde63c3e81aefa5764b017968bc473e83e093d7e1a10247d19e0a3e4124019602090815260409182902080546001600160a01b0319166001600160a01b03851690811790915582518681529182015281519293507f88a93678a3692f6789d9546fc621bf7234b101ddb7d4fe479455112831b8aa68929081900390910190a150508080610f3d90615138565b915050610dab565b5050565b600080610f546111e9565b905060005b81518110156110a6576000828281518110610f7657610f7661509f565b60200260200101519050610f9560008051602061557383398151915290565b600082815260019190910160205260409020546001600160a01b0316600080516020615573833981519152546040516321f8a72160e01b8152600481018490526001600160a01b03909116906321f8a7219060240160206040518083038186803b15801561100257600080fd5b505afa158015611016573d6000803e3d6000fd5b505050506040513d601f19601f8201168201806040525081019061103a919061511b565b6001600160a01b0316141580611084575060008181527f4abde63c3e81aefa5764b017968bc473e83e093d7e1a10247d19e0a3e412401960205260409020546001600160a01b0316155b15611093576000935050505090565b508061109e81615138565b915050610f59565b50600191505090565b60006110b96133f3565b6000928352600301602052506040902054151590565b6040516371eb435360e01b815260048101849052602481018390526001600160a01b038216604482015260009073f0807C3918176280821A41A9c26aA0be8696450b906371eb4353906064015b60206040518083038186803b15801561113457600080fd5b505af4158015611148573d6000803e3d6000fd5b505050506040513d601f19601f8201168201806040525081019061116c9190614fd3565b949350505050565b606061117e6133f3565b60008381526020918252604090819020805482518185028101850190935280835291929091908301828280156111dd57602002820191906000526020600020905b81546001600160a01b031681526001909101906020018083116111bf575b50505050509050919050565b60408051600580825260c082019092526060916020820160a080368337019050509050742132b0b1b7b7283937bc3ca1b7b73a3937b63632b960591b816000815181106112385761123861509f565b6020026020010181815250507121bab93932b731bca1b7b73a3937b63632b960711b8160018151811061126d5761126d61509f565b6020026020010181815250507011d95b995cda5cd5985b1d5955985d5b1d607a1b816002815181106112a1576112a161509f565b6020026020010181815250506a14995cd95c9d99519d5b9960aa1b816003815181106112cf576112cf61509f565b60200260200101818152505069151bdad95b95985d5b1d60b21b816004815181106112fc576112fc61509f565b60200260200101818152505090565b6000600260005414156113305760405162461bcd60e51b8152600401610b2890614fec565b60026000908155869086906113436133f3565b6000848152600291909101602090815260408083208584529091529020546001600160a01b031614156113885760405162461bcd60e51b8152600401610b2890615023565b6113906139b5565b6001600160a01b03166396994e3734338b896040518563ffffffff1660e01b81526004016113c093929190614e0f565b6000604051808303818588803b1580156113d957600080fd5b505af11580156113ed573d6000803e3d6000fd5b50505050506114028888338989896000613454565b50600192505050600160005595945050505050565b600154610100900460ff161580801561143457506001805460ff16105b8061144d5750303b15801561144d57506001805460ff16145b6114b05760405162461bcd60e51b815260206004820152602e60248201527f496e697469616c697a61626c653a20636f6e747261637420697320616c72656160448201526d191e481a5b9a5d1a585b1a5e995960921b6064820152608401610b28565b6001805460ff19168117905580156114d2576001805461ff0019166101001790555b60006114dc6139c4565b6001600160a01b0316141561153e5760405162461bcd60e51b815260206004820152602260248201527f4d7573742062652063616c6c65642066726f6d2070726f787920636f6e74726160448201526118dd60f21b6064820152608401610b28565b611547836139ec565b61155082613a5d565b8015611595576001805461ff00191681556040519081527f7f26b83ff96e1f2b6a682f133852f6798a09c465da95921460cefb38474024989060200160405180910390a15b505050565b6000600260005414156115bf5760405162461bcd60e51b8152600401610b2890614fec565b60026000908155849084906115d26133f3565b6000848152600291909101602090815260408083208584529091529020546001600160a01b031614156116175760405162461bcd60e51b8152600401610b2890615023565b60006116216133f3565b60008881526002919091016020908152604080832089845290915280822054905163504b89bd60e01b815233600482015265ffffffffffff881660248201526001600160a01b03909116925081908190849063504b89bd90604401606060405180830381600087803b15801561169657600080fd5b505af11580156116aa573d6000803e3d6000fd5b505050506040513d601f19601f820116820180604052508101906116ce9190615153565b92509250925089336001600160a01b03167f882188071c39e32cd4ffd0cef7a006a29eaae9e4018d72cef313a0f4686cdb918a868d87876040516117169594939291906151c2565b60405180910390a36001965050505050505060016000559392505050565b6000610afd82613af2565b6060600061174b6133f3565b6000848152602091909152604090205467ffffffffffffffff81111561177357611773614e9a565b60405190808252806020026020018201604052801561179c578160200160208202803683370190505b50905060005b6117aa6133f3565b600085815260209190915260409020548110156118a05760006117cb6133f3565b6000868152602091909152604090208054839081106117ec576117ec61509f565b6000918252602091829020015460408051631b3508b760e01b815290516001600160a01b0390921693508392631b3508b792600480840193829003018186803b15801561183857600080fd5b505afa15801561184c573d6000803e3d6000fd5b505050506040513d601f19601f820116820180604052508101906118709190614fd3565b8383815181106118825761188261509f565b6020908102919091010152508061189881615138565b9150506117a2565b5092915050565b60008060008060008060006118e0896118be6133f3565b6001600160a01b038b1660009081526004919091016020526040902090613b1c565b1561198657604051635c34776560e01b8152600481018a90526001600160a01b038916602482015273f0807C3918176280821A41A9c26aA0be8696450b90635c3477659060440160e06040518083038186803b15801561193f57600080fd5b505af4158015611953573d6000803e3d6000fd5b505050506040513d601f19601f8201168201806040525081019061197791906151fa565b96509650965096509650965096505b92959891949750929550565b3361199b6120eb565b6001600160a01b0316146119c15760405162461bcd60e51b8152600401610b289061524e565b610f458282613b34565b336119d46120eb565b6001600160a01b0316146119fa5760405162461bcd60e51b8152600401610b289061524e565b611a0460006139ec565b565b6040516373bb3b0960e01b8152600481018390526001600160a01b03821660248201526000908190819073f0807C3918176280821A41A9c26aA0be8696450b906373bb3b09906044015b60606040518083038186803b158015611a6857600080fd5b505af4158015611a7c573d6000803e3d6000fd5b505050506040513d601f19601f82011682018060405250810190611aa09190615283565b9250925092509250925092565b6000611ab76133f3565b60008481526001919091016020526040812090611ad26133f3565b600095865260020160209081526040808720958752948152848620546001600160a01b039081168352908201929092529092019092205416919050565b6000611b196133f3565b6001600160a01b03831660009081526004919091016020526040812091505b611b4182613c14565b81101561159557611b5b611b558383613c1e565b84612cf0565b5080611b6681615138565b915050611b38565b6000611b786133f3565b600092835260030160205250604090205490565b6000611b966133f3565b600093845260020160209081526040808520938552929052509020546001600160a01b031690565b60026000541415611be15760405162461bcd60e51b8152600401610b2890614fec565b600260009081558190611bf26133f3565b6000838152602091909152604090205411611c685760405162461bcd60e51b815260206004820152603060248201527f4e6f206c656e64696e67206d61726b65747320657869737420666f722061207360448201526f706563696669632063757272656e637960801b6064820152608401610b28565b6000611c726133f3565b600084815260209190915260408120805490925082908290611c9657611c9661509f565b600091825260208220015483546001600160a01b03909116925083906001908110611cc357611cc361509f565b600091825260208220015484546001600160a01b039091169250611d87908590611cef906001906152b1565b81548110611cff57611cff61509f565b600091825260209182902001546040805163e16695b560e01b815290516001600160a01b039092169263e16695b592600480840193829003018186803b158015611d4857600080fd5b505afa158015611d5c573d6000803e3d6000fd5b505050506040513d601f19601f82011682018060405250810190611d809190614fd3565b6003613c2a565b60405163baa2675760e01b8152600481018290529091506000906001600160a01b0385169063baa2675790602401602060405180830381600087803b158015611dcf57600080fd5b505af1158015611de3573d6000803e3d6000fd5b505050506040513d601f19601f82011682018060405250810190611e079190614fd3565b905060005b8554811015611eb65785546000908290611e28906001906152b1565b14611e635786611e39836001615087565b81548110611e4957611e4961509f565b6000918252602090912001546001600160a01b0316611e65565b855b905080878381548110611e7a57611e7a61509f565b600091825260209091200180546001600160a01b0319166001600160a01b03929092169190911790555080611eae81615138565b915050611e0c565b50611ebf613cf7565b6001600160a01b031663b95a33ab8883866001600160a01b031663e16695b56040518163ffffffff1660e01b815260040160206040518083038186803b158015611f0857600080fd5b505afa158015611f1c573d6000803e3d6000fd5b505050506040513d601f19601f82011682018060405250810190611f409190614fd3565b876001600160a01b03166371613c2d6040518163ffffffff1660e01b815260040160206040518083038186803b158015611f7957600080fd5b505afa158015611f8d573d6000803e3d6000fd5b505050506040513d601f19601f82011682018060405250810190611fb19190614fd3565b6040516001600160e01b031960e087901b1681526004810194909452602484019290925260448301526064820152608401600060405180830381600087803b158015611ffc57600080fd5b505af1158015612010573d6000803e3d6000fd5b505050508361201d6133f3565b600089815260029190910160209081526040808320868452909152902080546001600160a01b0319166001600160a01b03929092169190911790556120606133f3565b60008881526002919091016020908152604080832084845282529182902080546001600160a01b031916905581518981529081018390529081018390527f98cbd76ce00c88aafa668f8d8ee624506fdfd22fc473f74ea1b75addf544c2209060600160405180910390a16120dc87836120d7613d01565b6137da565b50506001600055505050505050565b60007f9acda75aebd150dd434541a4747a6dc606f4f1a59662477e67daf1fc0bf9e0aa610997565b606080606060006121226133f3565b6000888152600291909101602090815260408083208984529091529081902054905163d866d35560e01b8152600481018790526001600160a01b039091169150819063d866d35590602401610a01565b604051639d3fc35d60e01b8152600481018390526001600160a01b03821660248201526000908190819073f0807C3918176280821A41A9c26aA0be8696450b90639d3fc35d90604401611a50565b606060006121cc6133f3565b6000848152602091909152604090205467ffffffffffffffff8111156121f4576121f4614e9a565b60405190808252806020026020018201604052801561221d578160200160208202803683370190505b50905060005b61222b6133f3565b600085815260209190915260409020548110156118a057600061224c6133f3565b60008681526020919091526040902080548390811061226d5761226d61509f565b600091825260209182902001546040805163e16695b560e01b815290516001600160a01b039092169350839263e16695b592600480840193829003018186803b1580156122b957600080fd5b505afa1580156122cd573d6000803e3d6000fd5b505050506040513d601f19601f820116820180604052508101906122f19190614fd3565b8383815181106123035761230361509f565b6020908102919091010152508061231981615138565b915050612223565b3361232a6120eb565b6001600160a01b0316146123505760405162461bcd60e51b8152600401610b289061524e565b600082116123a05760405162461bcd60e51b815260206004820152601760248201527f496e76616c696420636f6d706f756e6420666163746f720000000000000000006044820152606401610b28565b6123a9846110af565b156123ec5760405162461bcd60e51b8152602060048201526013602482015272105b1c9958591e481a5b9a5d1a585b1a5e9959606a1b6044820152606401610b28565b6123f4613cf7565b6001600160a01b031663f7955b4585602885612411886003613c2a565b6040516001600160e01b031960e087901b168152600481019490945260ff909216602484015260448301526064820152608401600060405180830381600087803b15801561245e57600080fd5b505af1158015612472573d6000803e3d6000fd5b505050508261247f6133f3565b6000868152600391909101602052604090205561249c8482613b34565b50505050565b600080336124ae6120eb565b6001600160a01b0316146124d45760405162461bcd60e51b8152600401610b289061524e565b6124dc613cf7565b6001600160a01b031663f7b637bb846040518263ffffffff1660e01b815260040161250991815260200190565b60206040518083038186803b15801561252157600080fd5b505afa158015612535573d6000803e3d6000fd5b505050506040513d601f19601f8201168201806040525081019061255991906152c8565b6125c45760405162461bcd60e51b815260206004820152603660248201527f4c656e64696e67206d61726b6574206861736e2774206265656e20696e697469604482015275616c697a656420696e207468652063757272656e637960501b6064820152608401610b28565b6125cc613d0b565b6001600160a01b0316631eae0893846040518263ffffffff1660e01b81526004016125f991815260200190565b60206040518083038186803b15801561261157600080fd5b505afa158015612625573d6000803e3d6000fd5b505050506040513d601f19601f8201168201806040525081019061264991906152c8565b61268e5760405162461bcd60e51b81526020600482015260166024820152754e6f6e20737570706f727465642063757272656e637960501b6044820152606401610b28565b60006126986133f3565b6000858152600391909101602052604081205491506126b56133f3565b60008681526020919091526040902054111561279a576126d36133f3565b60008581526020919091526040902060016126ec6133f3565b6000878152602091909152604090205461270691906152b1565b815481106127165761271661509f565b600091825260209182902001546040805163e16695b560e01b815290516001600160a01b039092169263e16695b592600480840193829003018186803b15801561275f57600080fd5b505afa158015612773573d6000803e3d6000fd5b505050506040513d601f19601f820116820180604052508101906127979190614fd3565b90505b60006127a7826003613c2a565b90506127b1613d15565b6001600160a01b0316634672758f866127c86133f3565b60008981526003919091016020526040908190205490516001600160e01b031960e085901b1681526004810192909252602482015260448101849052606401602060405180830381600087803b15801561282157600080fd5b505af1158015612835573d6000803e3d6000fd5b505050506040513d601f19601f82011682018060405250810190612859919061511b565b9350612863613d15565b6001600160a01b031663a97c4b536040518163ffffffff1660e01b8152600401602060405180830381600087803b15801561289d57600080fd5b505af11580156128b1573d6000803e3d6000fd5b505050506040513d601f19601f820116820180604052508101906128d5919061511b565b92506128df6133f3565b600086815260209182526040812080546001810182559082529190200180546001600160a01b0319166001600160a01b0386161790558361291e6133f3565b600087815260029190910160209081526040808320858452909152902080546001600160a01b0319166001600160a01b0392909216919091179055826129626133f3565b6000878152600191909101602090815260408083206001600160a01b0389811680865291909352922080546001600160a01b0319169390911692909217909155857f5f1af77fb16a8d70e13dc1d6eef0f7b3f37103d1bfc348e1e57469c718646543856129cd6133f3565b60008a81526020919091526040908190205490516129ee9291908790614e0f565b60405180910390a35050915091565b600033612a086120eb565b6001600160a01b031614612a2e5760405162461bcd60e51b8152600401610b289061524e565b60005b612a396133f3565b60008481526020919091526040902054811015612af2576000612a5a6133f3565b600085815260209190915260409020805483908110612a7b57612a7b61509f565b60009182526020822001546040805163280dce3760e21b815290516001600160a01b039092169350839263a03738dc9260048084019382900301818387803b158015612ac657600080fd5b505af1158015612ada573d6000803e3d6000fd5b50505050508080612aea90615138565b915050612a31565b50600192915050565b60606000612b076133f3565b6000848152602091909152604090205467ffffffffffffffff811115612b2f57612b2f614e9a565b604051908082528060200260200182016040528015612b58578160200160208202803683370190505b50905060005b612b666133f3565b600085815260209190915260409020548110156118a0576000612b876133f3565b600086815260209190915260409020805483908110612ba857612ba861509f565b60009182526020918290200154604080516371613c2d60e01b815290516001600160a01b03909216935083926371613c2d92600480840193829003018186803b158015612bf457600080fd5b505afa158015612c08573d6000803e3d6000fd5b505050506040513d601f19601f82011682018060405250810190612c2c9190614fd3565b838381518110612c3e57612c3e61509f565b60209081029190910101525080612c5481615138565b915050612b5e565b6040805160018082528183019092526060916020808301908036833701905050905069151bdad95b95985d5b1d60b21b816000815181106112fc576112fc61509f565b604051637dfeb45160e01b815260048101849052602481018390526001600160a01b038216604482015260009073f0807C3918176280821A41A9c26aA0be8696450b90637dfeb4519060640161111c565b600080612cfb6133f3565b6001600160a01b0384166000908152600491909101602052604090209050612d238185613b1c565b612d31576000915050610afd565b600080612d3d866121c0565b905060005b8151811015612dd6576000612d7188848481518110612d6357612d6361509f565b6020026020010151896137da565b9050600080612d9a8a868681518110612d8c57612d8c61509f565b60200260200101518b613d1f565b9092509050612da98289615087565b975082151580612db65750805b15612dc057600195505b5050508080612dce90615138565b915050612d42565b5083158015612de3575081155b8015612e765750612df2613cf7565b60405163386320d360e11b8152600481018890526001600160a01b03878116602483015291909116906370c641a69060440160206040518083038186803b158015612e3c57600080fd5b505afa158015612e50573d6000803e3d6000fd5b505050506040513d601f19601f82011682018060405250810190612e749190614fd3565b155b15612eab57612ea986612e876133f3565b6001600160a01b038816600090815260049190910160205260409020906140b1565b505b50505092915050565b600033612ebf6120eb565b6001600160a01b031614612ee55760405162461bcd60e51b8152600401610b289061524e565b60005b612ef06133f3565b60008481526020919091526040902054811015612af2576000612f116133f3565b600085815260209190915260409020805483908110612f3257612f3261509f565b600091825260208220015460408051630b0863e760e11b815290516001600160a01b0390921693508392631610c7ce9260048084019382900301818387803b158015612f7d57600080fd5b505af1158015612f91573d6000803e3d6000fd5b50505050508080612fa190615138565b915050612ee8565b60606000612fb56133f3565b6000848152602091909152604090205467ffffffffffffffff811115612fdd57612fdd614e9a565b604051908082528060200260200182016040528015613006578160200160208202803683370190505b50905060005b6130146133f3565b600085815260209190915260409020548110156118a05760006130356133f3565b6000868152602091909152604090208054839081106130565761305661509f565b6000918252602091829020015460408051632f05aa6d60e11b815290516001600160a01b0390921693508392635e0b54da92600480840193829003018186803b1580156130a257600080fd5b505afa1580156130b6573d6000803e3d6000fd5b505050506040513d601f19601f820116820180604052508101906130da9190614fd3565b8383815181106130ec576130ec61509f565b6020908102919091010152508061310281615138565b91505061300c565b336131136120eb565b6001600160a01b0316146131395760405162461bcd60e51b8152600401610b289061524e565b6001600160a01b03811661319e5760405162461bcd60e51b815260206004820152602660248201527f4f776e61626c653a206e6577206f776e657220697320746865207a65726f206160448201526564647265737360d01b6064820152608401610b28565b610d90816139ec565b6000600260005414156131cc5760405162461bcd60e51b8152600401610b2890614fec565b60026000908155869086906131df6133f3565b6000848152600291909101602090815260408083208584529091529020546001600160a01b031614156132245760405162461bcd60e51b8152600401610b2890615023565b6114028888338989896000613454565b60008061323f6133f3565b6001600160a01b03841660009081526004919091016020526040812091505b61326782613c14565b8110156133be57600061327a8383613c1e565b6040516385f3396760e01b8152600481018290526001600160a01b038716602482015290915060009073f0807C3918176280821A41A9c26aA0be8696450b906385f339679060440160206040518083038186803b1580156132da57600080fd5b505af41580156132ee573d6000803e3d6000fd5b505050506040513d601f19601f820116820180604052508101906133129190614fd3565b905061331c613d0b565b6040516303a0a22f60e41b815260048101849052602481018390526001600160a01b039190911690633a0a22f09060440160206040518083038186803b15801561336557600080fd5b505afa158015613379573d6000803e3d6000fd5b505050506040513d601f19601f8201168201806040525081019061339d9190614fd3565b6133a790866152e5565b9450505080806133b690615138565b91505061325e565b5050919050565b6060610afd6133d26133f3565b6001600160a01b0384166000908152600491909101602052604090206140bd565b7f8041b8421ebd495cc61f38c788c9eb100daccf9bd36aa0bb920b7a15b2e0496590565b600061342282613af2565b8015610afd5750506001600160a01b031660009081526000805160206155538339815191526020526040902054431190565b60008084116134965760405162461bcd60e51b815260206004820152600e60248201526d125b9d985b1a5908185b5bdd5b9d60921b6044820152606401610b28565b60006134a28988612cf0565b905082613576576134b16139b5565b6001600160a01b03166328ff7a42888b888a6040518563ffffffff1660e01b81526004016134e29493929190615326565b60206040518083038186803b1580156134fa57600080fd5b505afa15801561350e573d6000803e3d6000fd5b505050506040513d601f19601f8201168201806040525081019061353291906152c8565b6135765760405162461bcd60e51b8152602060048201526015602482015274139bdd08195b9bdd59da0818dbdb1b185d195c985b605a1b6044820152606401610b28565b6000806135816133f3565b60008c8152600291909101602090815260408083208d845290915290819020549051633352870560e21b81526001600160a01b039091169063cd4a1c14906135d5908b908d908c908c908c9060040161535a565b6040805180830381600087803b1580156135ee57600080fd5b505af1158015613602573d6000803e3d6000fd5b505050506040513d601f19601f82011682018060405250810190613626919061504d565b909250905061363581886152b1565b935060008561373c5782158061364b5750600082115b1561365e5761365b600185615087565b93505b60148411156136a85760405162461bcd60e51b8152602060048201526016602482015275546f6f206d616e7920616374697665206f726465727360501b6044820152606401610b28565b60405163117429c760e31b8152600481018d905260248101849052604481018c905273f0807C3918176280821A41A9c26aA0be8696450b90638ba14e389060640160206040518083038186803b15801561370157600080fd5b505af4158015613715573d6000803e3d6000fd5b505050506040513d601f19601f820116820180604052508101906137399190614fd3565b90505b821561379c576137518c8c8c8c878a876140c8565b508a8c8b6001600160a01b03167f5af4e2baa5d844d0439bc0122be7cf9d47b6680937eaabce58bd1ca2f16486ae8c898c896040516137939493929190615396565b60405180910390a45b6137ca8c6137a86133f3565b6001600160a01b038d16600090815260049190910160205260409020906143d9565b5050505050979650505050505050565b6000806137e56133f3565b600086815260019190910160205260408120906138006133f3565b6000888152600291909101602090815260408083208984528252808320546001600160a01b03908116855291840194909452918301812054925163ae100e6d60e01b81528683166004820152602481018890529290911692509081908190849063ae100e6d90604401606060405180830381600087803b15801561388357600080fd5b505af1158015613897573d6000803e3d6000fd5b505050506040513d601f19601f820116820180604052508101906138bb9190615283565b92509250925082600014613965576138d1613cf7565b604051634ab34b2b60e11b8152600481018a90526001600160a01b03888116602483015260448201849052606482018690529190911690639566965690608401602060405180830381600087803b15801561392b57600080fd5b505af115801561393f573d6000803e3d6000fd5b505050506040513d601f19601f8201168201806040525081019061396391906152c8565b505b509695505050505050565b436000805160206155538339815191525b6001600160a01b039092166000908152602092909252604090912055565b6000600080516020615553833981519152613981565b60006139bf6143e5565b905090565b60007f360894a13ba1a3210667c828492db98dca3e2076cc3735a920a3ca505d382bbc610997565b7f9acda75aebd150dd434541a4747a6dc606f4f1a59662477e67daf1fc0bf9e0aa80546001600160a01b038381166001600160a01b0319831681179093556040519116919082907f8be0079c531659141344cd1fd0a4f28419497f9722a3daafe3b4186f6b6457e090600090a35050565b600080516020615573833981519152546001600160a01b031615613ac35760405162461bcd60e51b815260206004820152601b60248201527f7265736f6c766572207265676973746572656420616c726561647900000000006044820152606401610b28565b60008051602061557383398151915280546001600160a01b0319166001600160a01b0392909216919091179055565b6001600160a01b031660009081526000805160206155538339815191526020526040902054151590565b60008181526001830160205260408120541515610afa565b612710811115613b7f5760405162461bcd60e51b8152602060048201526016602482015275496e76616c6964206f7264657220666565207261746560501b6044820152606401610b28565b613b876133f3565b600083815260069190910160205260409020548114610f45577fd60c3987baf02124244ef3b12a1cb06f14ca43bd4e9d810e68eb7b3c5e1cef70613bc96133f3565b600084815260069190910160209081526040918290205482519081529081018490520160405180910390a180613bfd6133f3565b600084815260069190910160205260409020555050565b6000610afd825490565b6000610afa83836143fd565b6000808080613c44613c3f62015180886153d5565b614427565b91945092509050613c558583615087565b9150600c613c646001846152b1565b613c6e91906153d5565b613c789084615087565b9250600c613c876001846152b1565b613c9191906153e9565b613c9c906001615087565b91506000613caa848461459b565b905080821115613cb8578091505b613cc562015180886153e9565b62015180613cd4868686614621565b613cde91906153fd565b613ce89190615087565b945086851015612ea957600080fd5b60006139bf61475e565b60006139bf61477d565b60006139bf614796565b60006139bf6147b6565b6000806000613d2e8686611aad565b90506000806000806000806000613d436133f3565b60008e8152600291909101602090815260408083208f845290915290819020549051630516d8c960e11b81526001600160a01b038d8116600483015290911690630a2db1929060240160e060405180830381600087803b158015613da657600080fd5b505af1158015613dba573d6000803e3d6000fd5b505050506040513d601f19601f82011682018060405250810190613dde91906151fa565b965096509650965096509650965081831115613e6b57613dfc6139b5565b6001600160a01b031663fb7bd3b48c8f613e1686886152b1565b6040518463ffffffff1660e01b8152600401613e3493929190614e0f565b600060405180830381600087803b158015613e4e57600080fd5b505af1158015613e62573d6000803e3d6000fd5b50505050613ee6565b81831015613ee657613e7b6139b5565b6001600160a01b0316634ba0c9b58c8f613e9587876152b1565b6040518463ffffffff1660e01b8152600401613eb393929190614e0f565b600060405180830381600087803b158015613ecd57600080fd5b505af1158015613ee1573d6000803e3d6000fd5b505050505b8415613fb657604051630424172f60e11b81526001600160a01b038916906308482e5e90613f1c908e9089908690600401614e0f565b602060405180830381600087803b158015613f3657600080fd5b505af1158015613f4a573d6000803e3d6000fd5b505050506040513d601f19601f82011682018060405250810190613f6e91906152c8565b50808d8c6001600160a01b03167f3dd6192fffa4612e795f196dc6367cfa6494cbe70d7cff3a039ebbbc4acb262e600089604051613fad92919061541c565b60405180910390a45b83156140865760405163a46971ad60e01b81526001600160a01b0389169063a46971ad90613fec908e9088908690600401614e0f565b602060405180830381600087803b15801561400657600080fd5b505af115801561401a573d6000803e3d6000fd5b505050506040513d601f19601f8201168201806040525081019061403e91906152c8565b50808d8c6001600160a01b03167f3dd6192fffa4612e795f196dc6367cfa6494cbe70d7cff3a039ebbbc4acb262e60018860405161407d92919061541c565b60405180910390a45b60006140928587615087565b11985061409f8688615087565b99505050505050505050935093915050565b6000610afa83836147d9565b6060610afd826148cc565b6000806140d36133f3565b60008a815260019190910160205260408120906140ee6133f3565b60008c8152600291909101602090815260408083208d84528252808320546001600160a01b039081168552918401949094529190920190912054169050600186600181111561413f5761413f61518a565b14156142415761414d6139b5565b6001600160a01b0316634ba0c9b5888b876040518463ffffffff1660e01b815260040161417c93929190614e0f565b600060405180830381600087803b15801561419657600080fd5b505af11580156141aa573d6000803e3d6000fd5b50505050806001600160a01b031663a46971ad8885886141ca9190615087565b8b6040518463ffffffff1660e01b81526004016141e993929190614e0f565b602060405180830381600087803b15801561420357600080fd5b505af1158015614217573d6000803e3d6000fd5b505050506040513d601f19601f8201168201806040525081019061423b91906152c8565b50614339565b6142496139b5565b6001600160a01b031663fb7bd3b4888b876040518463ffffffff1660e01b815260040161427893929190614e0f565b600060405180830381600087803b15801561429257600080fd5b505af11580156142a6573d6000803e3d6000fd5b50505050806001600160a01b03166308482e5e8885886142c691906152b1565b8b6040518463ffffffff1660e01b81526004016142e593929190614e0f565b602060405180830381600087803b1580156142ff57600080fd5b505af1158015614313573d6000803e3d6000fd5b505050506040513d601f19601f8201168201806040525081019061433791906152c8565b505b82156143ca57806001600160a01b03166308482e5e614356613d01565b858b6040518463ffffffff1660e01b815260040161437693929190614e0f565b602060405180830381600087803b15801561439057600080fd5b505af11580156143a4573d6000803e3d6000fd5b505050506040513d601f19601f820116820180604052508101906143c891906152c8565b505b50600198975050505050505050565b6000610afa8383614927565b60006139bf69151bdad95b95985d5b1d60b21b614976565b60008260000182815481106144145761441461509f565b9060005260206000200154905092915050565b60008080838162253d8c61443e8362010bd96152e5565b61444891906152e5565b9050600062023ab161445b836004615437565b61446591906154bc565b905060046144768262023ab1615437565b6144819060036152e5565b61448b91906154bc565b61449590836154ea565b9150600062164b096144a88460016152e5565b6144b490610fa0615437565b6144be91906154bc565b905060046144ce826105b5615437565b6144d891906154bc565b6144e290846154ea565b6144ed90601f6152e5565b9250600061098f6144ff856050615437565b61450991906154bc565b90506000605061451b8361098f615437565b61452591906154bc565b61452f90866154ea565b905061453c600b836154bc565b945061454985600c615437565b6145548360026152e5565b61455e91906154ea565b9150848361456d6031876154ea565b614578906064615437565b61458291906152e5565b61458c91906152e5565b9a919950975095505050505050565b600081600114806145ac5750816003145b806145b75750816005145b806145c25750816007145b806145cd5750816008145b806145d8575081600a145b806145e3575081600c145b156145f05750601f610afd565b816002146146005750601e610afd565b61460983614a07565b61461457601c614617565b601d5b60ff169392505050565b60006107b284101561463257600080fd5b838383600062253d8c60046064600c61464c600e886154ea565b61465691906154bc565b614662886113246152e5565b61466c91906152e5565b61467691906154bc565b614681906003615437565b61468b91906154bc565b600c80614699600e886154ea565b6146a391906154bc565b6146ae90600c615437565b6146b96002886154ea565b6146c391906154ea565b6146cf9061016f615437565b6146d991906154bc565b6004600c6146e8600e896154ea565b6146f291906154bc565b6146fe896112c06152e5565b61470891906152e5565b614714906105b5615437565b61471e91906154bc565b61472a617d4b876154ea565b61473491906152e5565b61473e91906152e5565b61474891906154ea565b61475291906154ea565b98975050505050505050565b60006139bf7011d95b995cda5cd5985b1d5955985d5b1d607a1b614976565b60006139bf6a14995cd95c9d99519d5b9960aa1b614976565b60006139bf7121bab93932b731bca1b7b73a3937b63632b960711b614976565b60006139bf742132b0b1b7b7283937bc3ca1b7b73a3937b63632b960591b614976565b600081815260018301602052604081205480156148c25760006147fd6001836152b1565b8554909150600090614811906001906152b1565b90508181146148765760008660000182815481106148315761483161509f565b90600052602060002001549050808760000184815481106148545761485461509f565b6000918252602080832090910192909255918252600188019052604090208390555b855486908061488757614887615529565b600190038181906000526020600020016000905590558560010160008681526020019081526020016000206000905560019350505050610afd565b6000915050610afd565b6060816000018054806020026020016040519081016040528092919081815260200182805480156111dd57602002820191906000526020600020905b8154815260200190600101908083116149085750505050509050919050565b600081815260018301602052604081205461496e57508154600181810184556000848152602080822090930184905584548482528286019093526040902091909155610afd565b506000610afd565b60008181527f4abde63c3e81aefa5764b017968bc473e83e093d7e1a10247d19e0a3e41240196020908152604080832054815170026b4b9b9b4b7339030b2323932b9b99d1607d1b9381019390935260318084018690528251808503909101815260519093019091526001600160a01b031690816118a05760405162461bcd60e51b8152600401610b28919061553f565b6000614a146004836153e9565b158015614a2a5750614a276064836153e9565b15155b80610afd5750614a3c610190836153e9565b1592915050565b6001600160a01b0381168114610d9057600080fd5b600080600060608486031215614a6d57600080fd5b8335614a7881614a43565b95602085013595506040909401359392505050565b600060208284031215614a9f57600080fd5b5035919050565b600080600060608486031215614abb57600080fd5b505081359360208301359350604090920135919050565b600081518084526020808501945080840160005b83811015614b0257815187529582019590820190600101614ae6565b509495945050505050565b606081526000614b206060830186614ad2565b8281036020840152614b328186614ad2565b90508281036040840152614b468185614ad2565b9695505050505050565b60008060408385031215614b6357600080fd5b823591506020830135614b7581614a43565b809150509250929050565b600080600080600060a08688031215614b9857600080fd5b8535945060208601359350604086013592506060860135614bb881614a43565b9150608086013562ffffff81168114614bd057600080fd5b809150509295509295909350565b8015158114610d9057600080fd5b600060208284031215614bfe57600080fd5b8135614c0981614bde565b9392505050565b600080600060608486031215614c2557600080fd5b83359250602084013591506040840135614c3e81614a43565b809150509250925092565b6020808252825182820181905260009190848201906040850190845b81811015614c8a5783516001600160a01b031683529284019291840191600101614c65565b50909695505050505050565b6020808252825182820181905260009190848201906040850190845b81811015614c8a57835183529284019291840191600101614cb2565b60028110610d9057600080fd5b600080600080600060a08688031215614cf357600080fd5b85359450602086013593506040860135614d0c81614cce565b94979396509394606081013594506080013592915050565b60008060408385031215614d3757600080fd5b8235614d4281614a43565b91506020830135614b7581614a43565b600080600060608486031215614d6757600080fd5b8335925060208401359150604084013565ffffffffffff81168114614c3e57600080fd5b600060208284031215614d9d57600080fd5b8135614c0981614a43565b602081526000610afa6020830184614ad2565b60008060408385031215614dce57600080fd5b50508035926020909101359150565b60008060008060808587031215614df357600080fd5b5050823594602084013594506040840135936060013592509050565b6001600160a01b039390931683526020830191909152604082015260600190565b600080600080600080600080610100898b031215614e4d57600080fd5b885197506020890151965060408901519550606089015194506080890151935060a0890151925060c0890151915060e0890151614e8981614bde565b809150509295985092959890939650565b634e487b7160e01b600052604160045260246000fd5b600082601f830112614ec157600080fd5b8151602067ffffffffffffffff80831115614ede57614ede614e9a565b8260051b604051601f19603f83011681018181108482111715614f0357614f03614e9a565b604052938452858101830193838101925087851115614f2157600080fd5b83870191505b84821015614f4057815183529183019190830190614f27565b979650505050505050565b600080600060608486031215614f6057600080fd5b835167ffffffffffffffff80821115614f7857600080fd5b614f8487838801614eb0565b94506020860151915080821115614f9a57600080fd5b614fa687838801614eb0565b93506040860151915080821115614fbc57600080fd5b50614fc986828701614eb0565b9150509250925092565b600060208284031215614fe557600080fd5b5051919050565b6020808252601f908201527f5265656e7472616e637947756172643a207265656e7472616e742063616c6c00604082015260600190565b60208082526010908201526f496e76616c6964206d6174757269747960801b604082015260600190565b6000806040838503121561506057600080fd5b505080516020909101519092909150565b634e487b7160e01b600052601160045260246000fd5b6000821982111561509a5761509a615071565b500190565b634e487b7160e01b600052603260045260246000fd5b6000815180845260005b818110156150db576020818501810151868301820152016150bf565b818111156150ed576000602083870101525b50601f01601f19169290920160200192915050565b82815260406020820152600061116c60408301846150b5565b60006020828403121561512d57600080fd5b8151614c0981614a43565b600060001982141561514c5761514c615071565b5060010190565b60008060006060848603121561516857600080fd5b835161517381614cce565b602085015160409095015190969495509392505050565b634e487b7160e01b600052602160045260246000fd5b600281106151be57634e487b7160e01b600052602160045260246000fd5b9052565b65ffffffffffff8616815260a081016151de60208301876151a0565b8460408301528360608301528260808301529695505050505050565b600080600080600080600060e0888a03121561521557600080fd5b5050855160208701516040880151606089015160808a015160a08b015160c0909b0151949c939b50919990985090965094509092509050565b6020808252818101527f4f776e61626c653a2063616c6c6572206973206e6f7420746865206f776e6572604082015260600190565b60008060006060848603121561529857600080fd5b8351925060208401519150604084015190509250925092565b6000828210156152c3576152c3615071565b500390565b6000602082840312156152da57600080fd5b8151614c0981614bde565b600080821280156001600160ff1b038490038513161561530757615307615071565b600160ff1b839003841281161561532057615320615071565b50500190565b6001600160a01b038516815260208101849052604081018390526080810161535160608301846151a0565b95945050505050565b60a0810161536882886151a0565b6001600160a01b03959095166020820152604081019390935260608301919091521515608090910152919050565b608081016153a482876151a0565b84602083015283604083015282606083015295945050505050565b634e487b7160e01b600052601260045260246000fd5b6000826153e4576153e46153bf565b500490565b6000826153f8576153f86153bf565b500690565b600081600019048311821515161561541757615417615071565b500290565b6040810161542a82856151a0565b8260208301529392505050565b60006001600160ff1b038184138284138082168684048611161561545d5761545d615071565b600160ff1b600087128281168783058912161561547c5761547c615071565b6000871292508782058712848416161561549857615498615071565b878505871281841616156154ae576154ae615071565b505050929093029392505050565b6000826154cb576154cb6153bf565b600160ff1b8214600019841416156154e5576154e5615071565b500590565b60008083128015600160ff1b85018412161561550857615508615071565b6001600160ff1b038401831381161561552357615523615071565b50500390565b634e487b7160e01b600052603160045260246000fd5b602081526000610afa60208301846150b556fe19bfb841e3f2b667d170c57909e7685dd6a0cee80d36344e04905cfd7d917bd74abde63c3e81aefa5764b017968bc473e83e093d7e1a10247d19e0a3e4124018a2646970667358221220ea5b02844763b61f4ad36daf4002921688c24c5fa441cff3c5b65a09f53e69ad64736f6c63430008090033",
  "deployedBytecode": "0x6080604052600436106102675760003560e01c806385323e1a11610144578063b3cb8450116100b6578063e99d05381161007a578063e99d0538146107f2578063eb092a2614610812578063f2fde38b14610832578063faca409b14610852578063fb54a6b314610872578063fc7008101461089257600080fd5b8063b3cb84501461075d578063bfd10cf61461077d578063e09976591461079d578063e906c100146107b2578063e95dc183146107d257600080fd5b80638da5cb5b116101085780638da5cb5b14610688578063953dbcaa1461069d5780639d3fc35d146106bd578063a02be3dc146106dd578063a441bfe5146106fd578063a963ad7f1461071d57600080fd5b806385323e1a146105e8578063870cf8ab14610608578063891d5965146106285780638a981745146106485780638b36d8331461066857600080fd5b8063381ada1f116101dd578063529a356f116101a1578063529a356f146104d657806355aceb4e146104f65780635c347765146105235780635ca65d5714610578578063715018a61461059857806373bb3b09146105ad57600080fd5b8063381ada1f146104345780633d03b9da14610461578063448255c714610483578063485cc9551461049657806349f2ccbf146104b657600080fd5b8063223652611161022f5780632236526114610378578063268bb279146103a857806329985e5a146103ca5780632af64bd3146103df5780632e6c5e67146103f45780632e77aea71461041457600080fd5b80630312b5281461026c57806303e5fb59146102ce57806304f3bcec146102fc5780630594de6e1461032957806317b72ff414610358575b600080fd5b34801561027857600080fd5b5061028c610287366004614a58565b6108b2565b604080519889526020890197909752958701949094526060860192909252608085015260a084015260c0830152151560e0820152610100015b60405180910390f35b3480156102da57600080fd5b506102ee6102e9366004614a8d565b610967565b6040519081526020016102c5565b34801561030857600080fd5b50610311610985565b6040516001600160a01b0390911681526020016102c5565b34801561033557600080fd5b50610349610344366004614aa6565b6109a6565b6040516102c593929190614b0d565b34801561036457600080fd5b506102ee610373366004614b50565b610a65565b34801561038457600080fd5b50610398610393366004614b80565b610b03565b60405190151581526020016102c5565b3480156103b457600080fd5b506103c86103c3366004614bec565b610d81565b005b3480156103d657600080fd5b506103c8610d9c565b3480156103eb57600080fd5b50610398610f49565b34801561040057600080fd5b5061039861040f366004614a8d565b6110af565b34801561042057600080fd5b506102ee61042f366004614c10565b6110cf565b34801561044057600080fd5b5061045461044f366004614a8d565b611174565b6040516102c59190614c49565b34801561046d57600080fd5b506104766111e9565b6040516102c59190614c96565b610398610491366004614cdb565b61130b565b3480156104a257600080fd5b506103c86104b1366004614d24565b611417565b3480156104c257600080fd5b506103986104d1366004614d52565b61159a565b3480156104e257600080fd5b506103986104f1366004614d8b565b611734565b34801561050257600080fd5b50610516610511366004614a8d565b61173f565b6040516102c59190614da8565b34801561052f57600080fd5b5061054361053e366004614b50565b6118a7565b604080519788526020880196909652948601939093526060850191909152608084015260a083015260c082015260e0016102c5565b34801561058457600080fd5b506103c8610593366004614dbb565b611992565b3480156105a457600080fd5b506103c86119cb565b3480156105b957600080fd5b506105cd6105c8366004614b50565b611a06565b604080519384526020840192909252908201526060016102c5565b3480156105f457600080fd5b50610311610603366004614dbb565b611aad565b34801561061457600080fd5b506103c8610623366004614d8b565b611b0f565b34801561063457600080fd5b506102ee610643366004614a8d565b611b6e565b34801561065457600080fd5b50610311610663366004614dbb565b611b8c565b34801561067457600080fd5b506103c8610683366004614a8d565b611bbe565b34801561069457600080fd5b506103116120eb565b3480156106a957600080fd5b506103496106b8366004614aa6565b612113565b3480156106c957600080fd5b506105cd6106d8366004614b50565b612172565b3480156106e957600080fd5b506105166106f8366004614a8d565b6121c0565b34801561070957600080fd5b506103c8610718366004614ddd565b612321565b34801561072957600080fd5b5061073d610738366004614a8d565b6124a2565b604080516001600160a01b039384168152929091166020830152016102c5565b34801561076957600080fd5b50610398610778366004614a8d565b6129fd565b34801561078957600080fd5b50610516610798366004614a8d565b612afb565b3480156107a957600080fd5b50610476612c5c565b3480156107be57600080fd5b506102ee6107cd366004614c10565b612c9f565b3480156107de57600080fd5b506102ee6107ed366004614b50565b612cf0565b3480156107fe57600080fd5b5061039861080d366004614a8d565b612eb4565b34801561081e57600080fd5b5061051661082d366004614a8d565b612fa9565b34801561083e57600080fd5b506103c861084d366004614d8b565b61310a565b34801561085e57600080fd5b5061039861086d366004614cdb565b6131a7565b34801561087e57600080fd5b506102ee61088d366004614d8b565b613234565b34801561089e57600080fd5b506104766108ad366004614d8b565b6133c5565b60008060008060008060008073__$32a707a14b21b266ff1308b021b66b1151$__630312b5288c8c8c6040518463ffffffff1660e01b81526004016108f993929190614e0f565b6101006040518083038186803b15801561091257600080fd5b505af4158015610926573d6000803e3d6000fd5b505050506040513d601f19601f8201168201806040525081019061094a9190614e30565b975097509750975097509750975097509397509397509397509397565b60006109716133f3565b600092835260060160205250604090205490565b60006000805160206155738339815191525b546001600160a01b0316919050565b606080606060006109b56133f3565b600088815260029190910160209081526040808320898452909152908190205490516325fb168b60e11b8152600481018790526001600160a01b0390911691508190634bf62d16906024015b60006040518083038186803b158015610a1957600080fd5b505afa158015610a2d573d6000803e3d6000fd5b505050506040513d6000823e601f3d908101601f19168201604052610a559190810190614f4b565b9350935093505093509350939050565b6040516385f3396760e01b8152600481018390526001600160a01b038216602482015260009073__$32a707a14b21b266ff1308b021b66b1151$__906385f339679060440160206040518083038186803b158015610ac257600080fd5b505af4158015610ad6573d6000803e3d6000fd5b505050506040513d601f19601f82011682018060405250810190610afa9190614fd3565b90505b92915050565b600060026000541415610b315760405162461bcd60e51b8152600401610b2890614fec565b60405180910390fd5b6002600090815585908590610b446133f3565b6000848152600291909101602090815260408083208584529091529020546001600160a01b03161415610b895760405162461bcd60e51b8152600401610b2890615023565b333b15610bcd5760405162461bcd60e51b815260206004820152601260248201527143616c6c6572206d75737420626520454f4160701b6044820152606401610b28565b610bd633613417565b610c195760405162461bcd60e51b815260206004820152601460248201527343616c6c6572206973206e6f742061637469766560601b6044820152606401610b28565b610c238786612cf0565b50604051639c599f8b60e01b81523360048201526001600160a01b038616602482015260448101899052606481018890526084810187905262ffffff851660a4820152600090819073__$32a707a14b21b266ff1308b021b66b1151$__90639c599f8b9060c401604080518083038186803b158015610ca157600080fd5b505af4158015610cb5573d6000803e3d6000fd5b505050506040513d601f19601f82011682018060405250810190610cd9919061504d565b9092509050808215610d09576000610cf98b8b8b60008860006001613454565b9050610d058183615087565b9150505b8015610d6a57888a896001600160a01b03167f2aa75186e5dc6215fe9b34c1bbcf001827defa52de1574957eb71fbf5c920b8a8e85604051610d55929190918252602082015260400190565b60405180910390a4610d688a8a8a6137da565b505b600195505050505050600160005595945050505050565b8015610d9357610d9033613970565b50565b610d903361399f565b6000610da66111e9565b905060005b8151811015610f45576000828281518110610dc857610dc861509f565b602002602001015190506000610de960008051602061557383398151915290565b54604080517f5265736f6c766572206d697373696e67207461726765743a200000000000000060208201526039808201869052825180830390910181526059820192839052636795dbcd60e01b9092526001600160a01b0390921691636795dbcd91610e5a91869190605d01615102565b60206040518083038186803b158015610e7257600080fd5b505afa158015610e86573d6000803e3d6000fd5b505050506040513d601f19601f82011682018060405250810190610eaa919061511b565b60008381527f4abde63c3e81aefa5764b017968bc473e83e093d7e1a10247d19e0a3e4124019602090815260409182902080546001600160a01b0319166001600160a01b03851690811790915582518681529182015281519293507f88a93678a3692f6789d9546fc621bf7234b101ddb7d4fe479455112831b8aa68929081900390910190a150508080610f3d90615138565b915050610dab565b5050565b600080610f546111e9565b905060005b81518110156110a6576000828281518110610f7657610f7661509f565b60200260200101519050610f9560008051602061557383398151915290565b600082815260019190910160205260409020546001600160a01b0316600080516020615573833981519152546040516321f8a72160e01b8152600481018490526001600160a01b03909116906321f8a7219060240160206040518083038186803b15801561100257600080fd5b505afa158015611016573d6000803e3d6000fd5b505050506040513d601f19601f8201168201806040525081019061103a919061511b565b6001600160a01b0316141580611084575060008181527f4abde63c3e81aefa5764b017968bc473e83e093d7e1a10247d19e0a3e412401960205260409020546001600160a01b0316155b15611093576000935050505090565b508061109e81615138565b915050610f59565b50600191505090565b60006110b96133f3565b6000928352600301602052506040902054151590565b6040516371eb435360e01b815260048101849052602481018390526001600160a01b038216604482015260009073__$32a707a14b21b266ff1308b021b66b1151$__906371eb4353906064015b60206040518083038186803b15801561113457600080fd5b505af4158015611148573d6000803e3d6000fd5b505050506040513d601f19601f8201168201806040525081019061116c9190614fd3565b949350505050565b606061117e6133f3565b60008381526020918252604090819020805482518185028101850190935280835291929091908301828280156111dd57602002820191906000526020600020905b81546001600160a01b031681526001909101906020018083116111bf575b50505050509050919050565b60408051600580825260c082019092526060916020820160a080368337019050509050742132b0b1b7b7283937bc3ca1b7b73a3937b63632b960591b816000815181106112385761123861509f565b6020026020010181815250507121bab93932b731bca1b7b73a3937b63632b960711b8160018151811061126d5761126d61509f565b6020026020010181815250507011d95b995cda5cd5985b1d5955985d5b1d607a1b816002815181106112a1576112a161509f565b6020026020010181815250506a14995cd95c9d99519d5b9960aa1b816003815181106112cf576112cf61509f565b60200260200101818152505069151bdad95b95985d5b1d60b21b816004815181106112fc576112fc61509f565b60200260200101818152505090565b6000600260005414156113305760405162461bcd60e51b8152600401610b2890614fec565b60026000908155869086906113436133f3565b6000848152600291909101602090815260408083208584529091529020546001600160a01b031614156113885760405162461bcd60e51b8152600401610b2890615023565b6113906139b5565b6001600160a01b03166396994e3734338b896040518563ffffffff1660e01b81526004016113c093929190614e0f565b6000604051808303818588803b1580156113d957600080fd5b505af11580156113ed573d6000803e3d6000fd5b50505050506114028888338989896000613454565b50600192505050600160005595945050505050565b600154610100900460ff161580801561143457506001805460ff16105b8061144d5750303b15801561144d57506001805460ff16145b6114b05760405162461bcd60e51b815260206004820152602e60248201527f496e697469616c697a61626c653a20636f6e747261637420697320616c72656160448201526d191e481a5b9a5d1a585b1a5e995960921b6064820152608401610b28565b6001805460ff19168117905580156114d2576001805461ff0019166101001790555b60006114dc6139c4565b6001600160a01b0316141561153e5760405162461bcd60e51b815260206004820152602260248201527f4d7573742062652063616c6c65642066726f6d2070726f787920636f6e74726160448201526118dd60f21b6064820152608401610b28565b611547836139ec565b61155082613a5d565b8015611595576001805461ff00191681556040519081527f7f26b83ff96e1f2b6a682f133852f6798a09c465da95921460cefb38474024989060200160405180910390a15b505050565b6000600260005414156115bf5760405162461bcd60e51b8152600401610b2890614fec565b60026000908155849084906115d26133f3565b6000848152600291909101602090815260408083208584529091529020546001600160a01b031614156116175760405162461bcd60e51b8152600401610b2890615023565b60006116216133f3565b60008881526002919091016020908152604080832089845290915280822054905163504b89bd60e01b815233600482015265ffffffffffff881660248201526001600160a01b03909116925081908190849063504b89bd90604401606060405180830381600087803b15801561169657600080fd5b505af11580156116aa573d6000803e3d6000fd5b505050506040513d601f19601f820116820180604052508101906116ce9190615153565b92509250925089336001600160a01b03167f882188071c39e32cd4ffd0cef7a006a29eaae9e4018d72cef313a0f4686cdb918a868d87876040516117169594939291906151c2565b60405180910390a36001965050505050505060016000559392505050565b6000610afd82613af2565b6060600061174b6133f3565b6000848152602091909152604090205467ffffffffffffffff81111561177357611773614e9a565b60405190808252806020026020018201604052801561179c578160200160208202803683370190505b50905060005b6117aa6133f3565b600085815260209190915260409020548110156118a05760006117cb6133f3565b6000868152602091909152604090208054839081106117ec576117ec61509f565b6000918252602091829020015460408051631b3508b760e01b815290516001600160a01b0390921693508392631b3508b792600480840193829003018186803b15801561183857600080fd5b505afa15801561184c573d6000803e3d6000fd5b505050506040513d601f19601f820116820180604052508101906118709190614fd3565b8383815181106118825761188261509f565b6020908102919091010152508061189881615138565b9150506117a2565b5092915050565b60008060008060008060006118e0896118be6133f3565b6001600160a01b038b1660009081526004919091016020526040902090613b1c565b1561198657604051635c34776560e01b8152600481018a90526001600160a01b038916602482015273__$32a707a14b21b266ff1308b021b66b1151$__90635c3477659060440160e06040518083038186803b15801561193f57600080fd5b505af4158015611953573d6000803e3d6000fd5b505050506040513d601f19601f8201168201806040525081019061197791906151fa565b96509650965096509650965096505b92959891949750929550565b3361199b6120eb565b6001600160a01b0316146119c15760405162461bcd60e51b8152600401610b289061524e565b610f458282613b34565b336119d46120eb565b6001600160a01b0316146119fa5760405162461bcd60e51b8152600401610b289061524e565b611a0460006139ec565b565b6040516373bb3b0960e01b8152600481018390526001600160a01b03821660248201526000908190819073__$32a707a14b21b266ff1308b021b66b1151$__906373bb3b09906044015b60606040518083038186803b158015611a6857600080fd5b505af4158015611a7c573d6000803e3d6000fd5b505050506040513d601f19601f82011682018060405250810190611aa09190615283565b9250925092509250925092565b6000611ab76133f3565b60008481526001919091016020526040812090611ad26133f3565b600095865260020160209081526040808720958752948152848620546001600160a01b039081168352908201929092529092019092205416919050565b6000611b196133f3565b6001600160a01b03831660009081526004919091016020526040812091505b611b4182613c14565b81101561159557611b5b611b558383613c1e565b84612cf0565b5080611b6681615138565b915050611b38565b6000611b786133f3565b600092835260030160205250604090205490565b6000611b966133f3565b600093845260020160209081526040808520938552929052509020546001600160a01b031690565b60026000541415611be15760405162461bcd60e51b8152600401610b2890614fec565b600260009081558190611bf26133f3565b6000838152602091909152604090205411611c685760405162461bcd60e51b815260206004820152603060248201527f4e6f206c656e64696e67206d61726b65747320657869737420666f722061207360448201526f706563696669632063757272656e637960801b6064820152608401610b28565b6000611c726133f3565b600084815260209190915260408120805490925082908290611c9657611c9661509f565b600091825260208220015483546001600160a01b03909116925083906001908110611cc357611cc361509f565b600091825260208220015484546001600160a01b039091169250611d87908590611cef906001906152b1565b81548110611cff57611cff61509f565b600091825260209182902001546040805163e16695b560e01b815290516001600160a01b039092169263e16695b592600480840193829003018186803b158015611d4857600080fd5b505afa158015611d5c573d6000803e3d6000fd5b505050506040513d601f19601f82011682018060405250810190611d809190614fd3565b6003613c2a565b60405163baa2675760e01b8152600481018290529091506000906001600160a01b0385169063baa2675790602401602060405180830381600087803b158015611dcf57600080fd5b505af1158015611de3573d6000803e3d6000fd5b505050506040513d601f19601f82011682018060405250810190611e079190614fd3565b905060005b8554811015611eb65785546000908290611e28906001906152b1565b14611e635786611e39836001615087565b81548110611e4957611e4961509f565b6000918252602090912001546001600160a01b0316611e65565b855b905080878381548110611e7a57611e7a61509f565b600091825260209091200180546001600160a01b0319166001600160a01b03929092169190911790555080611eae81615138565b915050611e0c565b50611ebf613cf7565b6001600160a01b031663b95a33ab8883866001600160a01b031663e16695b56040518163ffffffff1660e01b815260040160206040518083038186803b158015611f0857600080fd5b505afa158015611f1c573d6000803e3d6000fd5b505050506040513d601f19601f82011682018060405250810190611f409190614fd3565b876001600160a01b03166371613c2d6040518163ffffffff1660e01b815260040160206040518083038186803b158015611f7957600080fd5b505afa158015611f8d573d6000803e3d6000fd5b505050506040513d601f19601f82011682018060405250810190611fb19190614fd3565b6040516001600160e01b031960e087901b1681526004810194909452602484019290925260448301526064820152608401600060405180830381600087803b158015611ffc57600080fd5b505af1158015612010573d6000803e3d6000fd5b505050508361201d6133f3565b600089815260029190910160209081526040808320868452909152902080546001600160a01b0319166001600160a01b03929092169190911790556120606133f3565b60008881526002919091016020908152604080832084845282529182902080546001600160a01b031916905581518981529081018390529081018390527f98cbd76ce00c88aafa668f8d8ee624506fdfd22fc473f74ea1b75addf544c2209060600160405180910390a16120dc87836120d7613d01565b6137da565b50506001600055505050505050565b60007f9acda75aebd150dd434541a4747a6dc606f4f1a59662477e67daf1fc0bf9e0aa610997565b606080606060006121226133f3565b6000888152600291909101602090815260408083208984529091529081902054905163d866d35560e01b8152600481018790526001600160a01b039091169150819063d866d35590602401610a01565b604051639d3fc35d60e01b8152600481018390526001600160a01b03821660248201526000908190819073__$32a707a14b21b266ff1308b021b66b1151$__90639d3fc35d90604401611a50565b606060006121cc6133f3565b6000848152602091909152604090205467ffffffffffffffff8111156121f4576121f4614e9a565b60405190808252806020026020018201604052801561221d578160200160208202803683370190505b50905060005b61222b6133f3565b600085815260209190915260409020548110156118a057600061224c6133f3565b60008681526020919091526040902080548390811061226d5761226d61509f565b600091825260209182902001546040805163e16695b560e01b815290516001600160a01b039092169350839263e16695b592600480840193829003018186803b1580156122b957600080fd5b505afa1580156122cd573d6000803e3d6000fd5b505050506040513d601f19601f820116820180604052508101906122f19190614fd3565b8383815181106123035761230361509f565b6020908102919091010152508061231981615138565b915050612223565b3361232a6120eb565b6001600160a01b0316146123505760405162461bcd60e51b8152600401610b289061524e565b600082116123a05760405162461bcd60e51b815260206004820152601760248201527f496e76616c696420636f6d706f756e6420666163746f720000000000000000006044820152606401610b28565b6123a9846110af565b156123ec5760405162461bcd60e51b8152602060048201526013602482015272105b1c9958591e481a5b9a5d1a585b1a5e9959606a1b6044820152606401610b28565b6123f4613cf7565b6001600160a01b031663f7955b4585602885612411886003613c2a565b6040516001600160e01b031960e087901b168152600481019490945260ff909216602484015260448301526064820152608401600060405180830381600087803b15801561245e57600080fd5b505af1158015612472573d6000803e3d6000fd5b505050508261247f6133f3565b6000868152600391909101602052604090205561249c8482613b34565b50505050565b600080336124ae6120eb565b6001600160a01b0316146124d45760405162461bcd60e51b8152600401610b289061524e565b6124dc613cf7565b6001600160a01b031663f7b637bb846040518263ffffffff1660e01b815260040161250991815260200190565b60206040518083038186803b15801561252157600080fd5b505afa158015612535573d6000803e3d6000fd5b505050506040513d601f19601f8201168201806040525081019061255991906152c8565b6125c45760405162461bcd60e51b815260206004820152603660248201527f4c656e64696e67206d61726b6574206861736e2774206265656e20696e697469604482015275616c697a656420696e207468652063757272656e637960501b6064820152608401610b28565b6125cc613d0b565b6001600160a01b0316631eae0893846040518263ffffffff1660e01b81526004016125f991815260200190565b60206040518083038186803b15801561261157600080fd5b505afa158015612625573d6000803e3d6000fd5b505050506040513d601f19601f8201168201806040525081019061264991906152c8565b61268e5760405162461bcd60e51b81526020600482015260166024820152754e6f6e20737570706f727465642063757272656e637960501b6044820152606401610b28565b60006126986133f3565b6000858152600391909101602052604081205491506126b56133f3565b60008681526020919091526040902054111561279a576126d36133f3565b60008581526020919091526040902060016126ec6133f3565b6000878152602091909152604090205461270691906152b1565b815481106127165761271661509f565b600091825260209182902001546040805163e16695b560e01b815290516001600160a01b039092169263e16695b592600480840193829003018186803b15801561275f57600080fd5b505afa158015612773573d6000803e3d6000fd5b505050506040513d601f19601f820116820180604052508101906127979190614fd3565b90505b60006127a7826003613c2a565b90506127b1613d15565b6001600160a01b0316634672758f866127c86133f3565b60008981526003919091016020526040908190205490516001600160e01b031960e085901b1681526004810192909252602482015260448101849052606401602060405180830381600087803b15801561282157600080fd5b505af1158015612835573d6000803e3d6000fd5b505050506040513d601f19601f82011682018060405250810190612859919061511b565b9350612863613d15565b6001600160a01b031663a97c4b536040518163ffffffff1660e01b8152600401602060405180830381600087803b15801561289d57600080fd5b505af11580156128b1573d6000803e3d6000fd5b505050506040513d601f19601f820116820180604052508101906128d5919061511b565b92506128df6133f3565b600086815260209182526040812080546001810182559082529190200180546001600160a01b0319166001600160a01b0386161790558361291e6133f3565b600087815260029190910160209081526040808320858452909152902080546001600160a01b0319166001600160a01b0392909216919091179055826129626133f3565b6000878152600191909101602090815260408083206001600160a01b0389811680865291909352922080546001600160a01b0319169390911692909217909155857f5f1af77fb16a8d70e13dc1d6eef0f7b3f37103d1bfc348e1e57469c718646543856129cd6133f3565b60008a81526020919091526040908190205490516129ee9291908790614e0f565b60405180910390a35050915091565b600033612a086120eb565b6001600160a01b031614612a2e5760405162461bcd60e51b8152600401610b289061524e565b60005b612a396133f3565b60008481526020919091526040902054811015612af2576000612a5a6133f3565b600085815260209190915260409020805483908110612a7b57612a7b61509f565b60009182526020822001546040805163280dce3760e21b815290516001600160a01b039092169350839263a03738dc9260048084019382900301818387803b158015612ac657600080fd5b505af1158015612ada573d6000803e3d6000fd5b50505050508080612aea90615138565b915050612a31565b50600192915050565b60606000612b076133f3565b6000848152602091909152604090205467ffffffffffffffff811115612b2f57612b2f614e9a565b604051908082528060200260200182016040528015612b58578160200160208202803683370190505b50905060005b612b666133f3565b600085815260209190915260409020548110156118a0576000612b876133f3565b600086815260209190915260409020805483908110612ba857612ba861509f565b60009182526020918290200154604080516371613c2d60e01b815290516001600160a01b03909216935083926371613c2d92600480840193829003018186803b158015612bf457600080fd5b505afa158015612c08573d6000803e3d6000fd5b505050506040513d601f19601f82011682018060405250810190612c2c9190614fd3565b838381518110612c3e57612c3e61509f565b60209081029190910101525080612c5481615138565b915050612b5e565b6040805160018082528183019092526060916020808301908036833701905050905069151bdad95b95985d5b1d60b21b816000815181106112fc576112fc61509f565b604051637dfeb45160e01b815260048101849052602481018390526001600160a01b038216604482015260009073__$32a707a14b21b266ff1308b021b66b1151$__90637dfeb4519060640161111c565b600080612cfb6133f3565b6001600160a01b0384166000908152600491909101602052604090209050612d238185613b1c565b612d31576000915050610afd565b600080612d3d866121c0565b905060005b8151811015612dd6576000612d7188848481518110612d6357612d6361509f565b6020026020010151896137da565b9050600080612d9a8a868681518110612d8c57612d8c61509f565b60200260200101518b613d1f565b9092509050612da98289615087565b975082151580612db65750805b15612dc057600195505b5050508080612dce90615138565b915050612d42565b5083158015612de3575081155b8015612e765750612df2613cf7565b60405163386320d360e11b8152600481018890526001600160a01b03878116602483015291909116906370c641a69060440160206040518083038186803b158015612e3c57600080fd5b505afa158015612e50573d6000803e3d6000fd5b505050506040513d601f19601f82011682018060405250810190612e749190614fd3565b155b15612eab57612ea986612e876133f3565b6001600160a01b038816600090815260049190910160205260409020906140b1565b505b50505092915050565b600033612ebf6120eb565b6001600160a01b031614612ee55760405162461bcd60e51b8152600401610b289061524e565b60005b612ef06133f3565b60008481526020919091526040902054811015612af2576000612f116133f3565b600085815260209190915260409020805483908110612f3257612f3261509f565b600091825260208220015460408051630b0863e760e11b815290516001600160a01b0390921693508392631610c7ce9260048084019382900301818387803b158015612f7d57600080fd5b505af1158015612f91573d6000803e3d6000fd5b50505050508080612fa190615138565b915050612ee8565b60606000612fb56133f3565b6000848152602091909152604090205467ffffffffffffffff811115612fdd57612fdd614e9a565b604051908082528060200260200182016040528015613006578160200160208202803683370190505b50905060005b6130146133f3565b600085815260209190915260409020548110156118a05760006130356133f3565b6000868152602091909152604090208054839081106130565761305661509f565b6000918252602091829020015460408051632f05aa6d60e11b815290516001600160a01b0390921693508392635e0b54da92600480840193829003018186803b1580156130a257600080fd5b505afa1580156130b6573d6000803e3d6000fd5b505050506040513d601f19601f820116820180604052508101906130da9190614fd3565b8383815181106130ec576130ec61509f565b6020908102919091010152508061310281615138565b91505061300c565b336131136120eb565b6001600160a01b0316146131395760405162461bcd60e51b8152600401610b289061524e565b6001600160a01b03811661319e5760405162461bcd60e51b815260206004820152602660248201527f4f776e61626c653a206e6577206f776e657220697320746865207a65726f206160448201526564647265737360d01b6064820152608401610b28565b610d90816139ec565b6000600260005414156131cc5760405162461bcd60e51b8152600401610b2890614fec565b60026000908155869086906131df6133f3565b6000848152600291909101602090815260408083208584529091529020546001600160a01b031614156132245760405162461bcd60e51b8152600401610b2890615023565b6114028888338989896000613454565b60008061323f6133f3565b6001600160a01b03841660009081526004919091016020526040812091505b61326782613c14565b8110156133be57600061327a8383613c1e565b6040516385f3396760e01b8152600481018290526001600160a01b038716602482015290915060009073__$32a707a14b21b266ff1308b021b66b1151$__906385f339679060440160206040518083038186803b1580156132da57600080fd5b505af41580156132ee573d6000803e3d6000fd5b505050506040513d601f19601f820116820180604052508101906133129190614fd3565b905061331c613d0b565b6040516303a0a22f60e41b815260048101849052602481018390526001600160a01b039190911690633a0a22f09060440160206040518083038186803b15801561336557600080fd5b505afa158015613379573d6000803e3d6000fd5b505050506040513d601f19601f8201168201806040525081019061339d9190614fd3565b6133a790866152e5565b9450505080806133b690615138565b91505061325e565b5050919050565b6060610afd6133d26133f3565b6001600160a01b0384166000908152600491909101602052604090206140bd565b7f8041b8421ebd495cc61f38c788c9eb100daccf9bd36aa0bb920b7a15b2e0496590565b600061342282613af2565b8015610afd5750506001600160a01b031660009081526000805160206155538339815191526020526040902054431190565b60008084116134965760405162461bcd60e51b815260206004820152600e60248201526d125b9d985b1a5908185b5bdd5b9d60921b6044820152606401610b28565b60006134a28988612cf0565b905082613576576134b16139b5565b6001600160a01b03166328ff7a42888b888a6040518563ffffffff1660e01b81526004016134e29493929190615326565b60206040518083038186803b1580156134fa57600080fd5b505afa15801561350e573d6000803e3d6000fd5b505050506040513d601f19601f8201168201806040525081019061353291906152c8565b6135765760405162461bcd60e51b8152602060048201526015602482015274139bdd08195b9bdd59da0818dbdb1b185d195c985b605a1b6044820152606401610b28565b6000806135816133f3565b60008c8152600291909101602090815260408083208d845290915290819020549051633352870560e21b81526001600160a01b039091169063cd4a1c14906135d5908b908d908c908c908c9060040161535a565b6040805180830381600087803b1580156135ee57600080fd5b505af1158015613602573d6000803e3d6000fd5b505050506040513d601f19601f82011682018060405250810190613626919061504d565b909250905061363581886152b1565b935060008561373c5782158061364b5750600082115b1561365e5761365b600185615087565b93505b60148411156136a85760405162461bcd60e51b8152602060048201526016602482015275546f6f206d616e7920616374697665206f726465727360501b6044820152606401610b28565b60405163117429c760e31b8152600481018d905260248101849052604481018c905273__$32a707a14b21b266ff1308b021b66b1151$__90638ba14e389060640160206040518083038186803b15801561370157600080fd5b505af4158015613715573d6000803e3d6000fd5b505050506040513d601f19601f820116820180604052508101906137399190614fd3565b90505b821561379c576137518c8c8c8c878a876140c8565b508a8c8b6001600160a01b03167f5af4e2baa5d844d0439bc0122be7cf9d47b6680937eaabce58bd1ca2f16486ae8c898c896040516137939493929190615396565b60405180910390a45b6137ca8c6137a86133f3565b6001600160a01b038d16600090815260049190910160205260409020906143d9565b5050505050979650505050505050565b6000806137e56133f3565b600086815260019190910160205260408120906138006133f3565b6000888152600291909101602090815260408083208984528252808320546001600160a01b03908116855291840194909452918301812054925163ae100e6d60e01b81528683166004820152602481018890529290911692509081908190849063ae100e6d90604401606060405180830381600087803b15801561388357600080fd5b505af1158015613897573d6000803e3d6000fd5b505050506040513d601f19601f820116820180604052508101906138bb9190615283565b92509250925082600014613965576138d1613cf7565b604051634ab34b2b60e11b8152600481018a90526001600160a01b03888116602483015260448201849052606482018690529190911690639566965690608401602060405180830381600087803b15801561392b57600080fd5b505af115801561393f573d6000803e3d6000fd5b505050506040513d601f19601f8201168201806040525081019061396391906152c8565b505b509695505050505050565b436000805160206155538339815191525b6001600160a01b039092166000908152602092909252604090912055565b6000600080516020615553833981519152613981565b60006139bf6143e5565b905090565b60007f360894a13ba1a3210667c828492db98dca3e2076cc3735a920a3ca505d382bbc610997565b7f9acda75aebd150dd434541a4747a6dc606f4f1a59662477e67daf1fc0bf9e0aa80546001600160a01b038381166001600160a01b0319831681179093556040519116919082907f8be0079c531659141344cd1fd0a4f28419497f9722a3daafe3b4186f6b6457e090600090a35050565b600080516020615573833981519152546001600160a01b031615613ac35760405162461bcd60e51b815260206004820152601b60248201527f7265736f6c766572207265676973746572656420616c726561647900000000006044820152606401610b28565b60008051602061557383398151915280546001600160a01b0319166001600160a01b0392909216919091179055565b6001600160a01b031660009081526000805160206155538339815191526020526040902054151590565b60008181526001830160205260408120541515610afa565b612710811115613b7f5760405162461bcd60e51b8152602060048201526016602482015275496e76616c6964206f7264657220666565207261746560501b6044820152606401610b28565b613b876133f3565b600083815260069190910160205260409020548114610f45577fd60c3987baf02124244ef3b12a1cb06f14ca43bd4e9d810e68eb7b3c5e1cef70613bc96133f3565b600084815260069190910160209081526040918290205482519081529081018490520160405180910390a180613bfd6133f3565b600084815260069190910160205260409020555050565b6000610afd825490565b6000610afa83836143fd565b6000808080613c44613c3f62015180886153d5565b614427565b91945092509050613c558583615087565b9150600c613c646001846152b1565b613c6e91906153d5565b613c789084615087565b9250600c613c876001846152b1565b613c9191906153e9565b613c9c906001615087565b91506000613caa848461459b565b905080821115613cb8578091505b613cc562015180886153e9565b62015180613cd4868686614621565b613cde91906153fd565b613ce89190615087565b945086851015612ea957600080fd5b60006139bf61475e565b60006139bf61477d565b60006139bf614796565b60006139bf6147b6565b6000806000613d2e8686611aad565b90506000806000806000806000613d436133f3565b60008e8152600291909101602090815260408083208f845290915290819020549051630516d8c960e11b81526001600160a01b038d8116600483015290911690630a2db1929060240160e060405180830381600087803b158015613da657600080fd5b505af1158015613dba573d6000803e3d6000fd5b505050506040513d601f19601f82011682018060405250810190613dde91906151fa565b965096509650965096509650965081831115613e6b57613dfc6139b5565b6001600160a01b031663fb7bd3b48c8f613e1686886152b1565b6040518463ffffffff1660e01b8152600401613e3493929190614e0f565b600060405180830381600087803b158015613e4e57600080fd5b505af1158015613e62573d6000803e3d6000fd5b50505050613ee6565b81831015613ee657613e7b6139b5565b6001600160a01b0316634ba0c9b58c8f613e9587876152b1565b6040518463ffffffff1660e01b8152600401613eb393929190614e0f565b600060405180830381600087803b158015613ecd57600080fd5b505af1158015613ee1573d6000803e3d6000fd5b505050505b8415613fb657604051630424172f60e11b81526001600160a01b038916906308482e5e90613f1c908e9089908690600401614e0f565b602060405180830381600087803b158015613f3657600080fd5b505af1158015613f4a573d6000803e3d6000fd5b505050506040513d601f19601f82011682018060405250810190613f6e91906152c8565b50808d8c6001600160a01b03167f3dd6192fffa4612e795f196dc6367cfa6494cbe70d7cff3a039ebbbc4acb262e600089604051613fad92919061541c565b60405180910390a45b83156140865760405163a46971ad60e01b81526001600160a01b0389169063a46971ad90613fec908e9088908690600401614e0f565b602060405180830381600087803b15801561400657600080fd5b505af115801561401a573d6000803e3d6000fd5b505050506040513d601f19601f8201168201806040525081019061403e91906152c8565b50808d8c6001600160a01b03167f3dd6192fffa4612e795f196dc6367cfa6494cbe70d7cff3a039ebbbc4acb262e60018860405161407d92919061541c565b60405180910390a45b60006140928587615087565b11985061409f8688615087565b99505050505050505050935093915050565b6000610afa83836147d9565b6060610afd826148cc565b6000806140d36133f3565b60008a815260019190910160205260408120906140ee6133f3565b60008c8152600291909101602090815260408083208d84528252808320546001600160a01b039081168552918401949094529190920190912054169050600186600181111561413f5761413f61518a565b14156142415761414d6139b5565b6001600160a01b0316634ba0c9b5888b876040518463ffffffff1660e01b815260040161417c93929190614e0f565b600060405180830381600087803b15801561419657600080fd5b505af11580156141aa573d6000803e3d6000fd5b50505050806001600160a01b031663a46971ad8885886141ca9190615087565b8b6040518463ffffffff1660e01b81526004016141e993929190614e0f565b602060405180830381600087803b15801561420357600080fd5b505af1158015614217573d6000803e3d6000fd5b505050506040513d601f19601f8201168201806040525081019061423b91906152c8565b50614339565b6142496139b5565b6001600160a01b031663fb7bd3b4888b876040518463ffffffff1660e01b815260040161427893929190614e0f565b600060405180830381600087803b15801561429257600080fd5b505af11580156142a6573d6000803e3d6000fd5b50505050806001600160a01b03166308482e5e8885886142c691906152b1565b8b6040518463ffffffff1660e01b81526004016142e593929190614e0f565b602060405180830381600087803b1580156142ff57600080fd5b505af1158015614313573d6000803e3d6000fd5b505050506040513d601f19601f8201168201806040525081019061433791906152c8565b505b82156143ca57806001600160a01b03166308482e5e614356613d01565b858b6040518463ffffffff1660e01b815260040161437693929190614e0f565b602060405180830381600087803b15801561439057600080fd5b505af11580156143a4573d6000803e3d6000fd5b505050506040513d601f19601f820116820180604052508101906143c891906152c8565b505b50600198975050505050505050565b6000610afa8383614927565b60006139bf69151bdad95b95985d5b1d60b21b614976565b60008260000182815481106144145761441461509f565b9060005260206000200154905092915050565b60008080838162253d8c61443e8362010bd96152e5565b61444891906152e5565b9050600062023ab161445b836004615437565b61446591906154bc565b905060046144768262023ab1615437565b6144819060036152e5565b61448b91906154bc565b61449590836154ea565b9150600062164b096144a88460016152e5565b6144b490610fa0615437565b6144be91906154bc565b905060046144ce826105b5615437565b6144d891906154bc565b6144e290846154ea565b6144ed90601f6152e5565b9250600061098f6144ff856050615437565b61450991906154bc565b90506000605061451b8361098f615437565b61452591906154bc565b61452f90866154ea565b905061453c600b836154bc565b945061454985600c615437565b6145548360026152e5565b61455e91906154ea565b9150848361456d6031876154ea565b614578906064615437565b61458291906152e5565b61458c91906152e5565b9a919950975095505050505050565b600081600114806145ac5750816003145b806145b75750816005145b806145c25750816007145b806145cd5750816008145b806145d8575081600a145b806145e3575081600c145b156145f05750601f610afd565b816002146146005750601e610afd565b61460983614a07565b61461457601c614617565b601d5b60ff169392505050565b60006107b284101561463257600080fd5b838383600062253d8c60046064600c61464c600e886154ea565b61465691906154bc565b614662886113246152e5565b61466c91906152e5565b61467691906154bc565b614681906003615437565b61468b91906154bc565b600c80614699600e886154ea565b6146a391906154bc565b6146ae90600c615437565b6146b96002886154ea565b6146c391906154ea565b6146cf9061016f615437565b6146d991906154bc565b6004600c6146e8600e896154ea565b6146f291906154bc565b6146fe896112c06152e5565b61470891906152e5565b614714906105b5615437565b61471e91906154bc565b61472a617d4b876154ea565b61473491906152e5565b61473e91906152e5565b61474891906154ea565b61475291906154ea565b98975050505050505050565b60006139bf7011d95b995cda5cd5985b1d5955985d5b1d607a1b614976565b60006139bf6a14995cd95c9d99519d5b9960aa1b614976565b60006139bf7121bab93932b731bca1b7b73a3937b63632b960711b614976565b60006139bf742132b0b1b7b7283937bc3ca1b7b73a3937b63632b960591b614976565b600081815260018301602052604081205480156148c25760006147fd6001836152b1565b8554909150600090614811906001906152b1565b90508181146148765760008660000182815481106148315761483161509f565b90600052602060002001549050808760000184815481106148545761485461509f565b6000918252602080832090910192909255918252600188019052604090208390555b855486908061488757614887615529565b600190038181906000526020600020016000905590558560010160008681526020019081526020016000206000905560019350505050610afd565b6000915050610afd565b6060816000018054806020026020016040519081016040528092919081815260200182805480156111dd57602002820191906000526020600020905b8154815260200190600101908083116149085750505050509050919050565b600081815260018301602052604081205461496e57508154600181810184556000848152602080822090930184905584548482528286019093526040902091909155610afd565b506000610afd565b60008181527f4abde63c3e81aefa5764b017968bc473e83e093d7e1a10247d19e0a3e41240196020908152604080832054815170026b4b9b9b4b7339030b2323932b9b99d1607d1b9381019390935260318084018690528251808503909101815260519093019091526001600160a01b031690816118a05760405162461bcd60e51b8152600401610b28919061553f565b6000614a146004836153e9565b158015614a2a5750614a276064836153e9565b15155b80610afd5750614a3c610190836153e9565b1592915050565b6001600160a01b0381168114610d9057600080fd5b600080600060608486031215614a6d57600080fd5b8335614a7881614a43565b95602085013595506040909401359392505050565b600060208284031215614a9f57600080fd5b5035919050565b600080600060608486031215614abb57600080fd5b505081359360208301359350604090920135919050565b600081518084526020808501945080840160005b83811015614b0257815187529582019590820190600101614ae6565b509495945050505050565b606081526000614b206060830186614ad2565b8281036020840152614b328186614ad2565b90508281036040840152614b468185614ad2565b9695505050505050565b60008060408385031215614b6357600080fd5b823591506020830135614b7581614a43565b809150509250929050565b600080600080600060a08688031215614b9857600080fd5b8535945060208601359350604086013592506060860135614bb881614a43565b9150608086013562ffffff81168114614bd057600080fd5b809150509295509295909350565b8015158114610d9057600080fd5b600060208284031215614bfe57600080fd5b8135614c0981614bde565b9392505050565b600080600060608486031215614c2557600080fd5b83359250602084013591506040840135614c3e81614a43565b809150509250925092565b6020808252825182820181905260009190848201906040850190845b81811015614c8a5783516001600160a01b031683529284019291840191600101614c65565b50909695505050505050565b6020808252825182820181905260009190848201906040850190845b81811015614c8a57835183529284019291840191600101614cb2565b60028110610d9057600080fd5b600080600080600060a08688031215614cf357600080fd5b85359450602086013593506040860135614d0c81614cce565b94979396509394606081013594506080013592915050565b60008060408385031215614d3757600080fd5b8235614d4281614a43565b91506020830135614b7581614a43565b600080600060608486031215614d6757600080fd5b8335925060208401359150604084013565ffffffffffff81168114614c3e57600080fd5b600060208284031215614d9d57600080fd5b8135614c0981614a43565b602081526000610afa6020830184614ad2565b60008060408385031215614dce57600080fd5b50508035926020909101359150565b60008060008060808587031215614df357600080fd5b5050823594602084013594506040840135936060013592509050565b6001600160a01b039390931683526020830191909152604082015260600190565b600080600080600080600080610100898b031215614e4d57600080fd5b885197506020890151965060408901519550606089015194506080890151935060a0890151925060c0890151915060e0890151614e8981614bde565b809150509295985092959890939650565b634e487b7160e01b600052604160045260246000fd5b600082601f830112614ec157600080fd5b8151602067ffffffffffffffff80831115614ede57614ede614e9a565b8260051b604051601f19603f83011681018181108482111715614f0357614f03614e9a565b604052938452858101830193838101925087851115614f2157600080fd5b83870191505b84821015614f4057815183529183019190830190614f27565b979650505050505050565b600080600060608486031215614f6057600080fd5b835167ffffffffffffffff80821115614f7857600080fd5b614f8487838801614eb0565b94506020860151915080821115614f9a57600080fd5b614fa687838801614eb0565b93506040860151915080821115614fbc57600080fd5b50614fc986828701614eb0565b9150509250925092565b600060208284031215614fe557600080fd5b5051919050565b6020808252601f908201527f5265656e7472616e637947756172643a207265656e7472616e742063616c6c00604082015260600190565b60208082526010908201526f496e76616c6964206d6174757269747960801b604082015260600190565b6000806040838503121561506057600080fd5b505080516020909101519092909150565b634e487b7160e01b600052601160045260246000fd5b6000821982111561509a5761509a615071565b500190565b634e487b7160e01b600052603260045260246000fd5b6000815180845260005b818110156150db576020818501810151868301820152016150bf565b818111156150ed576000602083870101525b50601f01601f19169290920160200192915050565b82815260406020820152600061116c60408301846150b5565b60006020828403121561512d57600080fd5b8151614c0981614a43565b600060001982141561514c5761514c615071565b5060010190565b60008060006060848603121561516857600080fd5b835161517381614cce565b602085015160409095015190969495509392505050565b634e487b7160e01b600052602160045260246000fd5b600281106151be57634e487b7160e01b600052602160045260246000fd5b9052565b65ffffffffffff8616815260a081016151de60208301876151a0565b8460408301528360608301528260808301529695505050505050565b600080600080600080600060e0888a03121561521557600080fd5b5050855160208701516040880151606089015160808a015160a08b015160c0909b0151949c939b50919990985090965094509092509050565b6020808252818101527f4f776e61626c653a2063616c6c6572206973206e6f7420746865206f776e6572604082015260600190565b60008060006060848603121561529857600080fd5b8351925060208401519150604084015190509250925092565b6000828210156152c3576152c3615071565b500390565b6000602082840312156152da57600080fd5b8151614c0981614bde565b600080821280156001600160ff1b038490038513161561530757615307615071565b600160ff1b839003841281161561532057615320615071565b50500190565b6001600160a01b038516815260208101849052604081018390526080810161535160608301846151a0565b95945050505050565b60a0810161536882886151a0565b6001600160a01b03959095166020820152604081019390935260608301919091521515608090910152919050565b608081016153a482876151a0565b84602083015283604083015282606083015295945050505050565b634e487b7160e01b600052601260045260246000fd5b6000826153e4576153e46153bf565b500490565b6000826153f8576153f86153bf565b500690565b600081600019048311821515161561541757615417615071565b500290565b6040810161542a82856151a0565b8260208301529392505050565b60006001600160ff1b038184138284138082168684048611161561545d5761545d615071565b600160ff1b600087128281168783058912161561547c5761547c615071565b6000871292508782058712848416161561549857615498615071565b878505871281841616156154ae576154ae615071565b505050929093029392505050565b6000826154cb576154cb6153bf565b600160ff1b8214600019841416156154e5576154e5615071565b500590565b60008083128015600160ff1b85018412161561550857615508615071565b6001600160ff1b038401831381161561552357615523615071565b50500390565b634e487b7160e01b600052603160045260246000fd5b602081526000610afa60208301846150b556fe19bfb841e3f2b667d170c57909e7685dd6a0cee80d36344e04905cfd7d917bd74abde63c3e81aefa5764b017968bc473e83e093d7e1a10247d19e0a3e4124018a2646970667358221220ea5b02844763b61f4ad36daf4002921688c24c5fa441cff3c5b65a09f53e69ad64736f6c63430008090033",
  "libraries": {
    "FundCalculationLogic": "0xf0807C3918176280821A41A9c26aA0be8696450b"
  },
  "implementation": "0x19b291F3B2d5d6F51913215B84Bf29d39dc87d48",
  "devdoc": {
    "kind": "dev",
    "methods": {
      "acceptedContracts()": {
        "details": "The contact name listed in this method is also needed to be listed `requiredContracts` method."
      },
      "calculateBorrowedFundsFromOrders(bytes32,address)": {
        "params": {
          "_ccy": "Currency name in bytes32",
          "_user": "User's address"
        },
        "returns": {
          "borrowedAmount": "The borrowed amount due to the borrow orders being filled on the order book",
          "debtAmount": "The debt amount due to the borrow orders being filled on the order book",
          "workingOrdersAmount": "The working orders amount on the order book"
        }
      },
      "calculateFunds(bytes32,address)": {
        "params": {
          "_ccy": "Currency name in bytes32",
          "_user": "User's address"
        },
        "returns": {
          "borrowedAmount": "The borrowed amount due to the borrow orders being filled on the order book",
          "claimableAmount": "The claimable amount due to the lending orders being filled on the order book",
          "collateralAmount": "The actual collateral amount that is calculated by netting using the haircut.",
          "debtAmount": "The debt amount due to the borrow orders being filled on the order book",
          "lentAmount": "The lent amount due to the lend orders being filled on the order book",
          "workingBorrowOrdersAmount": "The working orders amount on the borrow order book",
          "workingLendOrdersAmount": "The working orders amount on the lend order book"
        }
      },
      "calculateLentFundsFromOrders(bytes32,address)": {
        "params": {
          "_ccy": "Currency name in bytes32",
          "_user": "User's address"
        },
        "returns": {
          "claimableAmount": "The claimable amount due to the lending orders being filled on the order book",
          "lentAmount": "The lent amount due to the lend orders being filled on the order book",
          "workingOrdersAmount": "The working orders amount on the order book"
        }
      },
      "calculateTotalFundsInETH(address,bytes32,uint256)": {
        "params": {
          "_user": "User's address"
        }
      },
      "cancelOrder(bytes32,uint256,uint48)": {
        "params": {
          "_ccy": "Currency name in bytes32 of the selected market",
          "_maturity": "The maturity of the selected market",
          "_orderId": "Market order id"
        }
      },
      "cleanAllOrders(address)": {
        "params": {
          "_user": "User's address"
        }
      },
      "cleanOrders(bytes32,address)": {
        "params": {
          "_ccy": "Currency name in bytes32",
          "_user": "User's address"
        }
      },
      "createLendingMarket(bytes32)": {
        "params": {
          "_ccy": "Main currency for new lending market"
        },
        "returns": {
          "market": "The proxy contract address of created lending market"
        }
      },
      "createOrder(bytes32,uint256,uint8,uint256,uint256)": {
        "params": {
          "_amount": "Amount of funds the maker wants to borrow/lend",
          "_ccy": "Currency name in bytes32 of the selected market",
          "_maturity": "The maturity of the selected market",
          "_side": "Order position type, Borrow or Lend",
          "_unitPrice": "Amount of unit price taker wish to borrow/lend"
        },
        "returns": {
          "_0": "True if the execution of the operation succeeds"
        }
      },
      "depositAndCreateOrder(bytes32,uint256,uint8,uint256,uint256)": {
        "params": {
          "_amount": "Amount of funds the maker wants to borrow/lend",
          "_ccy": "Currency name in bytes32 of the selected market",
          "_maturity": "The maturity of the selected market",
          "_side": "Order position type, Borrow or Lend",
          "_unitPrice": "Amount of unit price taker wish to borrow/lend"
        },
        "returns": {
          "_0": "True if the execution of the operation succeeds"
        }
      },
      "executeLiquidationCall(bytes32,bytes32,uint256,address,uint24)": {
        "details": "A liquidation amount is calculated from the selected debt, but its maximum amount is the same as a collateral amount. That amount needs to be set at liquidationAmountMax otherwise currency swapping using Uniswap will fail if the collateral is insufficient.",
        "params": {
          "_collateralCcy": "Currency name to be used as collateral",
          "_debtCcy": "Currency name to be used as debt",
          "_debtMaturity": "The market maturity of the debt",
          "_poolFee": "Uniswap pool fee",
          "_user": "User's address"
        },
        "returns": {
          "_0": "True if the execution of the operation succeeds"
        }
      },
      "getBorrowOrderBook(bytes32,uint256,uint256)": {
        "params": {
          "_ccy": "Currency name in bytes32",
          "_limit": "The limit number to get",
          "_maturity": "The maturity of the market"
        },
        "returns": {
          "amounts": "The array of borrow order amounts",
          "quantities": "The array of borrow order quantities",
          "unitPrices": "The array of borrow unit prices"
        }
      },
      "getBorrowUnitPrices(bytes32)": {
        "params": {
          "_ccy": "Currency name in bytes32"
        },
        "returns": {
          "_0": "Array with the borrowing prices per future value of the lending market"
        }
      },
      "getFutureValue(bytes32,uint256,address)": {
        "params": {
          "_ccy": "Currency name in bytes32 for Lending Market",
          "_maturity": "The maturity of the market",
          "_user": "User's address"
        },
        "returns": {
          "futureValue": "The future value"
        }
      },
      "getFutureValueVault(bytes32,uint256)": {
        "params": {
          "_ccy": "Currency name in bytes32",
          "_maturity": "The maturity of the market"
        },
        "returns": {
          "_0": "The lending market address"
        }
      },
      "getGenesisDate(bytes32)": {
        "params": {
          "_ccy": "Currency name in bytes32"
        },
        "returns": {
          "_0": "The genesis date"
        }
      },
      "getLendOrderBook(bytes32,uint256,uint256)": {
        "params": {
          "_ccy": "Currency name in bytes32",
          "_limit": "The limit number to get",
          "_maturity": "The maturity of the market"
        },
        "returns": {
          "amounts": "The array of lend order amounts",
          "quantities": "The array of lend order quantities",
          "unitPrices": "The array of borrow unit prices"
        }
      },
      "getLendUnitPrices(bytes32)": {
        "params": {
          "_ccy": "Currency name in bytes32"
        },
        "returns": {
          "_0": "Array with the lending prices per future value of the lending market"
        }
      },
      "getLendingMarket(bytes32,uint256)": {
        "params": {
          "_ccy": "Currency name in bytes32",
          "_maturity": "The maturity of the market"
        },
        "returns": {
          "_0": "The lending market address"
        }
      },
      "getLendingMarkets(bytes32)": {
        "params": {
          "_ccy": "Currency name in bytes32"
        },
        "returns": {
          "_0": "Array with the lending market address"
        }
      },
      "getMaturities(bytes32)": {
        "params": {
          "_ccy": "Currency name in bytes32"
        },
        "returns": {
          "_0": "Array with the lending market maturity"
        }
      },
      "getMidUnitPrices(bytes32)": {
        "params": {
          "_ccy": "Currency name in bytes32"
        },
        "returns": {
          "_0": "Array with the mid prices per future value of the lending market"
        }
      },
      "getOrderFeeRate(bytes32)": {
        "params": {
          "_ccy": "Currency name in bytes32"
        },
        "returns": {
          "_0": "The order fee rate received by protocol"
        }
      },
      "getPresentValue(bytes32,uint256,address)": {
        "params": {
          "_ccy": "Currency name in bytes32 for Lending Market",
          "_maturity": "The maturity of the market",
          "_user": "User's address"
        },
        "returns": {
          "presentValue": "The present value"
        }
      },
      "getTotalPresentValue(bytes32,address)": {
        "params": {
          "_ccy": "Currency name in bytes32 for Lending Market",
          "_user": "User's address"
        },
        "returns": {
          "totalPresentValue": "The total present value"
        }
      },
      "getTotalPresentValueInETH(address)": {
        "params": {
          "_user": "User's address"
        },
        "returns": {
          "totalPresentValue": "The total present value in ETH"
        }
      },
      "getUsedCurrencies(address)": {
        "params": {
          "_user": "User's address"
        },
        "returns": {
          "_0": "The array of the currency"
        }
      },
      "initialize(address,address)": {
        "details": "Function is invoked by the proxy contract when the contract is added to the ProxyController.",
        "params": {
          "_owner": "The address of the contract owner",
          "_resolver": "The address of the Address Resolver contract"
        }
      },
      "initializeLendingMarket(bytes32,uint256,uint256,uint256)": {
        "params": {
          "_ccy": "Currency name in bytes32",
          "_compoundFactor": "The initial compound factor when the initial market is opened",
          "_genesisDate": "The genesis date when the initial market is opened",
          "_orderFeeRate": "The order fee rate received by protocol"
        }
      },
      "isInitializedLendingMarket(bytes32)": {
        "params": {
          "_ccy": "Currency name in bytes32"
        },
        "returns": {
          "_0": "The boolean if the lending market is initialized or not"
        }
      },
      "isLiquidator(address)": {
        "returns": {
          "_0": "The boolean if the user is registered as a liquidator or not"
        }
      },
      "owner()": {
        "details": "Returns the address of the current owner."
      },
      "pauseLendingMarkets(bytes32)": {
        "params": {
          "_ccy": "Currency for pausing all lending markets"
        },
        "returns": {
          "_0": "True if the execution of the operation succeeds"
        }
      },
      "registerLiquidator(bool)": {
        "params": {
          "_isLiquidator": "The boolean if the user is a liquidator or not"
        }
      },
      "renounceOwnership()": {
        "details": "Leaves the contract without owner. It will not be possible to call `onlyOwner` functions anymore. Can only be called by the current owner. NOTE: Renouncing ownership will leave the contract without an owner, thereby removing any functionality that is only available to the owner."
      },
      "requiredContracts()": {
        "details": "The contract name list is in `./libraries/Contracts.sol`."
      },
      "rotateLendingMarkets(bytes32)": {
        "params": {
          "_ccy": "Currency name in bytes32 of the selected market"
        }
      },
      "transferOwnership(address)": {
        "details": "Transfers ownership of the contract to a new account (`newOwner`). Can only be called by the current owner."
      },
      "unpauseLendingMarkets(bytes32)": {
        "params": {
          "_ccy": "Currency name in bytes32"
        },
        "returns": {
          "_0": "True if the execution of the operation succeeds"
        }
      },
      "updateOrderFeeRate(bytes32,uint256)": {
        "params": {
          "_orderFeeRate": "The order fee rate received by protocol"
        }
      }
    },
    "version": 1
  },
  "userdoc": {
    "kind": "user",
    "methods": {
      "acceptedContracts()": {
        "notice": "Returns contract names that can call this contract."
      },
      "calculateBorrowedFundsFromOrders(bytes32,address)": {
        "notice": "Gets the funds that are calculated from the user's borrowing order list for the selected currency."
      },
      "calculateFunds(bytes32,address)": {
        "notice": "Gets the funds that are calculated from the user's lending and borrowing order list for the selected currency."
      },
      "calculateLentFundsFromOrders(bytes32,address)": {
        "notice": "Gets the funds that are calculated from the user's lending order list for the selected currency."
      },
      "calculateTotalFundsInETH(address,bytes32,uint256)": {
        "notice": "Gets the funds that are calculated from the user's lending and borrowing order list for all currencies in ETH."
      },
      "cancelOrder(bytes32,uint256,uint48)": {
        "notice": "Cancels the own order."
      },
      "cleanAllOrders(address)": {
        "notice": "Cleans user's all orders to remove order ids that are already filled on the order book."
      },
      "cleanOrders(bytes32,address)": {
        "notice": "Cleans user's orders to remove order ids that are already filled on the order book for a selected currency."
      },
      "createLendingMarket(bytes32)": {
        "notice": "Deploys new Lending Market and save address at lendingMarkets mapping.Reverts on deployment market with existing currency and term"
      },
      "createOrder(bytes32,uint256,uint8,uint256,uint256)": {
        "notice": "Creates an order. Takes orders if the orders are matched, and places new order if not match it. In addition, converts the future value to the genesis value if there is future value in past maturity before the execution of order creation."
      },
      "depositAndCreateOrder(bytes32,uint256,uint8,uint256,uint256)": {
        "notice": "Deposits funds and creates an order at the same time."
      },
      "executeLiquidationCall(bytes32,bytes32,uint256,address,uint24)": {
        "notice": "Liquidates a lending position if the user's coverage is less than 1."
      },
      "getBorrowOrderBook(bytes32,uint256,uint256)": {
        "notice": "Gets the order book of borrow."
      },
      "getBorrowUnitPrices(bytes32)": {
        "notice": "Gets borrow prices per future value for the selected currency."
      },
      "getFutureValue(bytes32,uint256,address)": {
        "notice": "Gets the future value of the account for selected currency and maturity."
      },
      "getFutureValueVault(bytes32,uint256)": {
        "notice": "Gets the feture value contract address for the selected currency and maturity."
      },
      "getGenesisDate(bytes32)": {
        "notice": "Gets the genesis date when the first market opens for the selected currency."
      },
      "getLendOrderBook(bytes32,uint256,uint256)": {
        "notice": "Gets the order book of lend."
      },
      "getLendUnitPrices(bytes32)": {
        "notice": "Gets lend prices per future value for the selected currency."
      },
      "getLendingMarket(bytes32,uint256)": {
        "notice": "Gets the lending market contract address for the selected currency and maturity."
      },
      "getLendingMarkets(bytes32)": {
        "notice": "Gets the lending market contract addresses for the selected currency."
      },
      "getMaturities(bytes32)": {
        "notice": "Gets maturities for the selected currency."
      },
      "getMidUnitPrices(bytes32)": {
        "notice": "Gets mid prices per future value for the selected currency."
      },
      "getOrderFeeRate(bytes32)": {
        "notice": "Gets the order fee rate"
      },
      "getPresentValue(bytes32,uint256,address)": {
        "notice": "Gets the present value of the account for selected currency and maturity."
      },
      "getTotalPresentValue(bytes32,address)": {
        "notice": "Gets the total present value of the account for selected currency."
      },
      "getTotalPresentValueInETH(address)": {
        "notice": "Gets the total present value of the account converted to ETH."
      },
      "getUsedCurrencies(address)": {
        "notice": "Get all the currencies in which the user has lending positions or orders."
      },
      "initialize(address,address)": {
        "notice": "Initializes the contract."
      },
      "initializeLendingMarket(bytes32,uint256,uint256,uint256)": {
        "notice": "Initialize the lending market to set a genesis date and compound factor"
      },
      "isInitializedLendingMarket(bytes32)": {
        "notice": "Gets if the lending market is initialized."
      },
      "isLiquidator(address)": {
        "notice": "Gets if the user is registered as a liquidator."
      },
      "pauseLendingMarkets(bytes32)": {
        "notice": "Pauses previously deployed lending market by currency"
      },
      "registerLiquidator(bool)": {
        "notice": "Registers a user as a liquidator."
      },
      "requiredContracts()": {
        "notice": "Returns the contract names used in this contract."
      },
      "rotateLendingMarkets(bytes32)": {
        "notice": "Rotates the lending markets. In this rotation, the following actions are happened. - Updates the maturity at the beginning of the market array. - Moves the beginning of the market array to the end of it (Market rotation). - Update the compound factor in this contract using the next market unit price. (Auto-rolls) - Convert the future value held by reserve funds into the genesis value"
      },
      "unpauseLendingMarkets(bytes32)": {
        "notice": "Unpauses previously deployed lending market by currency"
      },
      "updateOrderFeeRate(bytes32,uint256)": {
        "notice": "Updates the order fee rate"
      }
    },
    "notice": "Implements the module to manage separated lending order-book markets per maturity. This contract also works as a factory contract that can deploy(start)a new lending market for selected currency and maturity and has the calculation logic for the Genesis value in addition. Deployed Lending Markets are rotated and reused as it reaches the maturity date. At the time of rotation, a new maturity date is set and the compound factor is updated. The users mainly call this contract to create orders to lend or borrow funds.",
    "version": 1
  },
  "storageLayout": {
    "storage": [
      {
        "astId": 1446,
        "contract": "contracts/LendingMarketController.sol:LendingMarketController",
        "label": "_status",
        "offset": 0,
        "slot": "0",
        "type": "t_uint256"
      },
      {
        "astId": 1183,
        "contract": "contracts/LendingMarketController.sol:LendingMarketController",
        "label": "_initialized",
        "offset": 0,
        "slot": "1",
        "type": "t_uint8"
      },
      {
        "astId": 1186,
        "contract": "contracts/LendingMarketController.sol:LendingMarketController",
        "label": "_initializing",
        "offset": 1,
        "slot": "1",
        "type": "t_bool"
      }
    ],
    "types": {
      "t_bool": {
        "encoding": "inplace",
        "label": "bool",
        "numberOfBytes": "1"
      },
      "t_uint256": {
        "encoding": "inplace",
        "label": "uint256",
        "numberOfBytes": "32"
      },
      "t_uint8": {
        "encoding": "inplace",
        "label": "uint8",
        "numberOfBytes": "1"
      }
    }
  }
}