{
  "address": "0xFE95576af405C814FE058d5679c320E7D0B8e499",
  "abi": [
    {
      "inputs": [],
      "name": "AlreadyInitialized",
      "type": "error"
    },
    {
      "inputs": [],
      "name": "AlreadyTerminated",
      "type": "error"
    },
    {
      "inputs": [],
      "name": "ContractLocked",
      "type": "error"
    },
    {
      "inputs": [],
      "name": "InvalidCurrency",
      "type": "error"
    },
    {
      "inputs": [],
      "name": "InvalidMaturity",
      "type": "error"
    },
    {
      "inputs": [
        {
          "internalType": "string",
          "name": "name",
          "type": "string"
        }
      ],
      "name": "MissingAddress",
      "type": "error"
    },
    {
      "inputs": [],
      "name": "NotTerminated",
      "type": "error"
    },
    {
      "inputs": [],
      "name": "OnlyAcceptedContracts",
      "type": "error"
    },
    {
      "inputs": [],
      "name": "ResolverAlreadyRegistered",
      "type": "error"
    },
    {
      "anonymous": false,
      "inputs": [
        {
          "indexed": false,
          "internalType": "bytes32",
          "name": "name",
          "type": "bytes32"
        },
        {
          "indexed": false,
          "internalType": "address",
          "name": "destination",
          "type": "address"
        }
      ],
      "name": "CacheUpdated",
      "type": "event"
    },
    {
      "anonymous": false,
      "inputs": [
        {
          "indexed": false,
          "internalType": "uint8",
          "name": "version",
          "type": "uint8"
        }
      ],
      "name": "Initialized",
      "type": "event"
    },
    {
      "anonymous": false,
      "inputs": [
        {
          "indexed": true,
          "internalType": "address",
          "name": "previousOwner",
          "type": "address"
        },
        {
          "indexed": true,
          "internalType": "address",
          "name": "newOwner",
          "type": "address"
        }
      ],
      "name": "OwnershipTransferred",
      "type": "event"
    },
    {
      "inputs": [],
      "name": "acceptedContracts",
      "outputs": [
        {
          "internalType": "bytes32[]",
          "name": "contracts",
          "type": "bytes32[]"
        }
      ],
      "stateMutability": "pure",
      "type": "function"
    },
    {
      "inputs": [],
      "name": "buildCache",
      "outputs": [],
      "stateMutability": "nonpayable",
      "type": "function"
    },
    {
      "inputs": [
        {
          "internalType": "bytes32",
          "name": "_ccy",
          "type": "bytes32"
        },
        {
          "internalType": "address",
          "name": "_user",
          "type": "address"
        },
        {
          "internalType": "uint256",
          "name": "_liquidationThresholdRate",
          "type": "uint256"
        }
      ],
      "name": "calculateFunds",
      "outputs": [
        {
          "internalType": "uint256",
          "name": "workingLendOrdersAmount",
          "type": "uint256"
        },
        {
          "internalType": "uint256",
          "name": "claimableAmount",
          "type": "uint256"
        },
        {
          "internalType": "uint256",
          "name": "collateralAmount",
          "type": "uint256"
        },
        {
          "internalType": "uint256",
          "name": "lentAmount",
          "type": "uint256"
        },
        {
          "internalType": "uint256",
          "name": "workingBorrowOrdersAmount",
          "type": "uint256"
        },
        {
          "internalType": "uint256",
          "name": "debtAmount",
          "type": "uint256"
        },
        {
          "internalType": "uint256",
          "name": "borrowedAmount",
          "type": "uint256"
        }
      ],
      "stateMutability": "view",
      "type": "function"
    },
    {
      "inputs": [
        {
          "internalType": "address",
          "name": "_user",
          "type": "address"
        },
        {
          "components": [
            {
              "internalType": "bytes32",
              "name": "ccy",
              "type": "bytes32"
            },
            {
              "internalType": "uint256",
              "name": "workingLendOrdersAmount",
              "type": "uint256"
            },
            {
              "internalType": "uint256",
              "name": "claimableAmount",
              "type": "uint256"
            },
            {
              "internalType": "uint256",
              "name": "workingBorrowOrdersAmount",
              "type": "uint256"
            },
            {
              "internalType": "uint256",
              "name": "debtAmount",
              "type": "uint256"
            },
            {
              "internalType": "uint256",
              "name": "lentAmount",
              "type": "uint256"
            },
            {
              "internalType": "uint256",
              "name": "borrowedAmount",
              "type": "uint256"
            }
          ],
          "internalType": "struct ILendingMarketController.AdditionalFunds",
          "name": "_additionalFunds",
          "type": "tuple"
        },
        {
          "internalType": "uint256",
          "name": "_liquidationThresholdRate",
          "type": "uint256"
        }
      ],
      "name": "calculateTotalFundsInBaseCurrency",
      "outputs": [
        {
          "internalType": "uint256",
          "name": "plusDepositAmountInAdditionalFundsCcy",
          "type": "uint256"
        },
        {
          "internalType": "uint256",
          "name": "minusDepositAmountInAdditionalFundsCcy",
          "type": "uint256"
        },
        {
          "internalType": "uint256",
          "name": "totalWorkingLendOrdersAmount",
          "type": "uint256"
        },
        {
          "internalType": "uint256",
          "name": "totalClaimableAmount",
          "type": "uint256"
        },
        {
          "internalType": "uint256",
          "name": "totalCollateralAmount",
          "type": "uint256"
        },
        {
          "internalType": "uint256",
          "name": "totalLentAmount",
          "type": "uint256"
        },
        {
          "internalType": "uint256",
          "name": "totalWorkingBorrowOrdersAmount",
          "type": "uint256"
        },
        {
          "internalType": "uint256",
          "name": "totalDebtAmount",
          "type": "uint256"
        },
        {
          "internalType": "uint256",
          "name": "totalBorrowedAmount",
          "type": "uint256"
        }
      ],
      "stateMutability": "view",
      "type": "function"
    },
    {
      "inputs": [
        {
          "internalType": "bytes32",
          "name": "_ccy",
          "type": "bytes32"
        },
        {
          "internalType": "uint256",
          "name": "_maturity",
          "type": "uint256"
        },
        {
          "internalType": "uint48",
          "name": "_orderId",
          "type": "uint48"
        }
      ],
      "name": "cancelOrder",
      "outputs": [
        {
          "internalType": "bool",
          "name": "",
          "type": "bool"
        }
      ],
      "stateMutability": "nonpayable",
      "type": "function"
    },
    {
      "inputs": [
        {
          "internalType": "address",
          "name": "_user",
          "type": "address"
        }
      ],
      "name": "cleanUpAllFunds",
      "outputs": [
        {
          "internalType": "bool",
          "name": "",
          "type": "bool"
        }
      ],
      "stateMutability": "nonpayable",
      "type": "function"
    },
    {
      "inputs": [
        {
          "internalType": "bytes32",
          "name": "_ccy",
          "type": "bytes32"
        },
        {
          "internalType": "address",
          "name": "_user",
          "type": "address"
        }
      ],
      "name": "cleanUpFunds",
      "outputs": [
        {
          "internalType": "uint256",
          "name": "totalActiveOrderCount",
          "type": "uint256"
        }
      ],
      "stateMutability": "nonpayable",
      "type": "function"
    },
    {
      "inputs": [
        {
          "internalType": "bytes32",
          "name": "_ccy",
          "type": "bytes32"
        },
        {
          "internalType": "uint256",
          "name": "_openingDate",
          "type": "uint256"
        },
        {
          "internalType": "uint256",
          "name": "_preOpeningDate",
          "type": "uint256"
        }
      ],
      "name": "createOrderBook",
      "outputs": [],
      "stateMutability": "nonpayable",
      "type": "function"
    },
    {
      "inputs": [
        {
          "internalType": "bytes32",
          "name": "_ccy",
          "type": "bytes32"
        },
        {
          "internalType": "uint256",
          "name": "_maturity",
          "type": "uint256"
        },
        {
          "internalType": "enum ProtocolTypes.Side",
          "name": "_side",
          "type": "uint8"
        },
        {
          "internalType": "uint256",
          "name": "_amount",
          "type": "uint256"
        },
        {
          "internalType": "uint256",
          "name": "_unitPrice",
          "type": "uint256"
        }
      ],
      "name": "depositAndExecuteOrder",
      "outputs": [
        {
          "internalType": "bool",
          "name": "",
          "type": "bool"
        }
      ],
      "stateMutability": "payable",
      "type": "function"
    },
    {
      "inputs": [
        {
          "internalType": "bytes32",
          "name": "_ccy",
          "type": "bytes32"
        },
        {
          "internalType": "uint256",
          "name": "_maturity",
          "type": "uint256"
        },
        {
          "internalType": "enum ProtocolTypes.Side",
          "name": "_side",
          "type": "uint8"
        },
        {
          "internalType": "uint256",
          "name": "_amount",
          "type": "uint256"
        },
        {
          "internalType": "uint256",
          "name": "_unitPrice",
          "type": "uint256"
        }
      ],
      "name": "depositAndExecutesPreOrder",
      "outputs": [
        {
          "internalType": "bool",
          "name": "",
          "type": "bool"
        }
      ],
      "stateMutability": "payable",
      "type": "function"
    },
    {
      "inputs": [],
      "name": "executeEmergencySettlement",
      "outputs": [
        {
          "internalType": "bool",
          "name": "",
          "type": "bool"
        }
      ],
      "stateMutability": "nonpayable",
      "type": "function"
    },
    {
      "inputs": [],
      "name": "executeEmergencyTermination",
      "outputs": [],
      "stateMutability": "nonpayable",
      "type": "function"
    },
    {
      "inputs": [
        {
          "internalType": "bytes32",
          "name": "_collateralCcy",
          "type": "bytes32"
        },
        {
          "internalType": "bytes32",
          "name": "_debtCcy",
          "type": "bytes32"
        },
        {
          "internalType": "uint256",
          "name": "_debtMaturity",
          "type": "uint256"
        },
        {
          "internalType": "address",
          "name": "_user",
          "type": "address"
        }
      ],
      "name": "executeForcedRepayment",
      "outputs": [
        {
          "internalType": "bool",
          "name": "",
          "type": "bool"
        }
      ],
      "stateMutability": "nonpayable",
      "type": "function"
    },
    {
      "inputs": [
        {
          "internalType": "bytes32[]",
          "name": "_currencies",
          "type": "bytes32[]"
        },
        {
          "internalType": "uint256",
          "name": "_maturity",
          "type": "uint256"
        }
      ],
      "name": "executeItayoseCalls",
      "outputs": [
        {
          "internalType": "bool",
          "name": "",
          "type": "bool"
        }
      ],
      "stateMutability": "nonpayable",
      "type": "function"
    },
    {
      "inputs": [
        {
          "internalType": "bytes32",
          "name": "_collateralCcy",
          "type": "bytes32"
        },
        {
          "internalType": "bytes32",
          "name": "_debtCcy",
          "type": "bytes32"
        },
        {
          "internalType": "uint256",
          "name": "_debtMaturity",
          "type": "uint256"
        },
        {
          "internalType": "address",
          "name": "_user",
          "type": "address"
        }
      ],
      "name": "executeLiquidationCall",
      "outputs": [
        {
          "internalType": "bool",
          "name": "",
          "type": "bool"
        }
      ],
      "stateMutability": "nonpayable",
      "type": "function"
    },
    {
      "inputs": [
        {
          "internalType": "bytes32",
          "name": "_ccy",
          "type": "bytes32"
        },
        {
          "internalType": "uint256",
          "name": "_maturity",
          "type": "uint256"
        },
        {
          "internalType": "enum ProtocolTypes.Side",
          "name": "_side",
          "type": "uint8"
        },
        {
          "internalType": "uint256",
          "name": "_amount",
          "type": "uint256"
        },
        {
          "internalType": "uint256",
          "name": "_unitPrice",
          "type": "uint256"
        }
      ],
      "name": "executeOrder",
      "outputs": [
        {
          "internalType": "bool",
          "name": "",
          "type": "bool"
        }
      ],
      "stateMutability": "nonpayable",
      "type": "function"
    },
    {
      "inputs": [
        {
          "internalType": "bytes32",
          "name": "_ccy",
          "type": "bytes32"
        },
        {
          "internalType": "uint256",
          "name": "_maturity",
          "type": "uint256"
        },
        {
          "internalType": "enum ProtocolTypes.Side",
          "name": "_side",
          "type": "uint8"
        },
        {
          "internalType": "uint256",
          "name": "_amount",
          "type": "uint256"
        },
        {
          "internalType": "uint256",
          "name": "_unitPrice",
          "type": "uint256"
        }
      ],
      "name": "executePreOrder",
      "outputs": [
        {
          "internalType": "bool",
          "name": "",
          "type": "bool"
        }
      ],
      "stateMutability": "nonpayable",
      "type": "function"
    },
    {
      "inputs": [
        {
          "internalType": "bytes32",
          "name": "_ccy",
          "type": "bytes32"
        },
        {
          "internalType": "uint256",
          "name": "_maturity",
          "type": "uint256"
        }
      ],
      "name": "executeRedemption",
      "outputs": [
        {
          "internalType": "bool",
          "name": "",
          "type": "bool"
        }
      ],
      "stateMutability": "nonpayable",
      "type": "function"
    },
    {
      "inputs": [
        {
          "internalType": "bytes32",
          "name": "_ccy",
          "type": "bytes32"
        },
        {
          "internalType": "uint256",
          "name": "_maturity",
          "type": "uint256"
        }
      ],
      "name": "executeRepayment",
      "outputs": [
        {
          "internalType": "bool",
          "name": "",
          "type": "bool"
        }
      ],
      "stateMutability": "nonpayable",
      "type": "function"
    },
    {
      "inputs": [
        {
          "internalType": "bytes32",
          "name": "_ccy",
          "type": "bytes32"
        }
      ],
      "name": "getBestBorrowUnitPrices",
      "outputs": [
        {
          "internalType": "uint256[]",
          "name": "",
          "type": "uint256[]"
        }
      ],
      "stateMutability": "view",
      "type": "function"
    },
    {
      "inputs": [
        {
          "internalType": "bytes32",
          "name": "_ccy",
          "type": "bytes32"
        }
      ],
      "name": "getBestLendUnitPrices",
      "outputs": [
        {
          "internalType": "uint256[]",
          "name": "",
          "type": "uint256[]"
        }
      ],
      "stateMutability": "view",
      "type": "function"
    },
    {
      "inputs": [
        {
          "internalType": "bytes32",
          "name": "_ccy",
          "type": "bytes32"
        },
        {
          "internalType": "uint256",
          "name": "_maturity",
          "type": "uint256"
        },
        {
          "internalType": "uint256",
          "name": "_limit",
          "type": "uint256"
        }
      ],
      "name": "getBorrowOrderBook",
      "outputs": [
        {
          "internalType": "uint256[]",
          "name": "unitPrices",
          "type": "uint256[]"
        },
        {
          "internalType": "uint256[]",
          "name": "amounts",
          "type": "uint256[]"
        },
        {
          "internalType": "uint256[]",
          "name": "quantities",
          "type": "uint256[]"
        }
      ],
      "stateMutability": "view",
      "type": "function"
    },
    {
      "inputs": [
        {
          "internalType": "bytes32",
          "name": "_ccy",
          "type": "bytes32"
        }
      ],
      "name": "getCircuitBreakerLimitRange",
      "outputs": [
        {
          "internalType": "uint256",
          "name": "",
          "type": "uint256"
        }
      ],
      "stateMutability": "view",
      "type": "function"
    },
    {
      "inputs": [
        {
          "internalType": "bytes32",
          "name": "_ccy",
          "type": "bytes32"
        }
      ],
      "name": "getFutureValueVault",
      "outputs": [
        {
          "internalType": "address",
          "name": "",
          "type": "address"
        }
      ],
      "stateMutability": "view",
      "type": "function"
    },
    {
      "inputs": [
        {
          "internalType": "bytes32",
          "name": "_ccy",
          "type": "bytes32"
        }
      ],
      "name": "getGenesisDate",
      "outputs": [
        {
          "internalType": "uint256",
          "name": "",
          "type": "uint256"
        }
      ],
      "stateMutability": "view",
      "type": "function"
    },
    {
      "inputs": [
        {
          "internalType": "bytes32",
          "name": "_ccy",
          "type": "bytes32"
        },
        {
          "internalType": "address",
          "name": "_user",
          "type": "address"
        }
      ],
      "name": "getGenesisValue",
      "outputs": [
        {
          "internalType": "int256",
          "name": "genesisValue",
          "type": "int256"
        }
      ],
      "stateMutability": "view",
      "type": "function"
    },
    {
      "inputs": [
        {
          "internalType": "bytes32",
          "name": "_ccy",
          "type": "bytes32"
        },
        {
          "internalType": "uint256",
          "name": "_maturity",
          "type": "uint256"
        },
        {
          "internalType": "uint256",
          "name": "_limit",
          "type": "uint256"
        }
      ],
      "name": "getLendOrderBook",
      "outputs": [
        {
          "internalType": "uint256[]",
          "name": "unitPrices",
          "type": "uint256[]"
        },
        {
          "internalType": "uint256[]",
          "name": "amounts",
          "type": "uint256[]"
        },
        {
          "internalType": "uint256[]",
          "name": "quantities",
          "type": "uint256[]"
        }
      ],
      "stateMutability": "view",
      "type": "function"
    },
    {
      "inputs": [
        {
          "internalType": "bytes32",
          "name": "_ccy",
          "type": "bytes32"
        }
      ],
      "name": "getLendingMarket",
      "outputs": [
        {
          "internalType": "address",
          "name": "",
          "type": "address"
        }
      ],
      "stateMutability": "view",
      "type": "function"
    },
    {
      "inputs": [
        {
          "internalType": "bytes32",
          "name": "_ccy",
          "type": "bytes32"
        }
      ],
      "name": "getMaturities",
      "outputs": [
        {
          "internalType": "uint256[]",
          "name": "",
          "type": "uint256[]"
        }
      ],
      "stateMutability": "view",
      "type": "function"
    },
    {
      "inputs": [
        {
          "internalType": "bytes32",
          "name": "_ccy",
          "type": "bytes32"
        },
        {
          "internalType": "uint256",
          "name": "_maturity",
          "type": "uint256"
        }
      ],
      "name": "getOrderBookDetail",
      "outputs": [
        {
          "internalType": "uint256",
          "name": "bestLendUnitPrice",
          "type": "uint256"
        },
        {
          "internalType": "uint256",
          "name": "bestBorrowUnitPrice",
          "type": "uint256"
        },
        {
          "internalType": "uint256",
          "name": "marketUnitPrice",
          "type": "uint256"
        },
        {
          "internalType": "uint256",
          "name": "maxLendUnitPrice",
          "type": "uint256"
        },
        {
          "internalType": "uint256",
          "name": "minBorrowUnitPrice",
          "type": "uint256"
        },
        {
          "internalType": "uint256",
          "name": "openingUnitPrice",
          "type": "uint256"
        },
        {
          "internalType": "uint256",
          "name": "openingDate",
          "type": "uint256"
        },
        {
          "internalType": "bool",
          "name": "isReady",
          "type": "bool"
        }
      ],
      "stateMutability": "view",
      "type": "function"
    },
    {
      "inputs": [
        {
          "internalType": "bytes32[]",
          "name": "_ccys",
          "type": "bytes32[]"
        }
      ],
      "name": "getOrderBookDetails",
      "outputs": [
        {
          "components": [
            {
              "internalType": "bytes32",
              "name": "ccy",
              "type": "bytes32"
            },
            {
              "internalType": "uint256",
              "name": "maturity",
              "type": "uint256"
            },
            {
              "internalType": "uint256",
              "name": "bestLendUnitPrice",
              "type": "uint256"
            },
            {
              "internalType": "uint256",
              "name": "bestBorrowUnitPrice",
              "type": "uint256"
            },
            {
              "internalType": "uint256",
              "name": "marketUnitPrice",
              "type": "uint256"
            },
            {
              "internalType": "uint256",
              "name": "maxLendUnitPrice",
              "type": "uint256"
            },
            {
              "internalType": "uint256",
              "name": "minBorrowUnitPrice",
              "type": "uint256"
            },
            {
              "internalType": "uint256",
              "name": "openingUnitPrice",
              "type": "uint256"
            },
            {
              "internalType": "uint256",
              "name": "openingDate",
              "type": "uint256"
            },
            {
              "internalType": "bool",
              "name": "isReady",
              "type": "bool"
            }
          ],
          "internalType": "struct ILendingMarketController.OrderBookDetail[]",
          "name": "orderBookDetails",
          "type": "tuple[]"
        }
      ],
      "stateMutability": "view",
      "type": "function"
    },
    {
      "inputs": [
        {
          "internalType": "bytes32",
          "name": "_ccy",
          "type": "bytes32"
        },
        {
          "internalType": "uint256",
          "name": "_maturity",
          "type": "uint256"
        }
      ],
      "name": "getOrderBookId",
      "outputs": [
        {
          "internalType": "uint8",
          "name": "",
          "type": "uint8"
        }
      ],
      "stateMutability": "view",
      "type": "function"
    },
    {
      "inputs": [
        {
          "internalType": "bytes32",
          "name": "_ccy",
          "type": "bytes32"
        }
      ],
      "name": "getOrderBookIds",
      "outputs": [
        {
          "internalType": "uint8[]",
          "name": "",
          "type": "uint8[]"
        }
      ],
      "stateMutability": "view",
      "type": "function"
    },
    {
      "inputs": [
        {
          "components": [
            {
              "internalType": "bytes32",
              "name": "ccy",
              "type": "bytes32"
            },
            {
              "internalType": "uint256",
              "name": "maturity",
              "type": "uint256"
            },
            {
              "internalType": "address",
              "name": "user",
              "type": "address"
            },
            {
              "internalType": "enum ProtocolTypes.Side",
              "name": "side",
              "type": "uint8"
            },
            {
              "internalType": "uint256",
              "name": "amount",
              "type": "uint256"
            },
            {
              "internalType": "uint256",
              "name": "unitPrice",
              "type": "uint256"
            },
            {
              "internalType": "uint256",
              "name": "additionalDepositAmount",
              "type": "uint256"
            },
            {
              "internalType": "bool",
              "name": "ignoreBorrowedAmount",
              "type": "bool"
            }
          ],
          "internalType": "struct ILendingMarketController.GetOrderEstimationParams",
          "name": "_params",
          "type": "tuple"
        }
      ],
      "name": "getOrderEstimation",
      "outputs": [
        {
          "internalType": "uint256",
          "name": "lastUnitPrice",
          "type": "uint256"
        },
        {
          "internalType": "uint256",
          "name": "filledAmount",
          "type": "uint256"
        },
        {
          "internalType": "uint256",
          "name": "filledAmountInFV",
          "type": "uint256"
        },
        {
          "internalType": "uint256",
          "name": "orderFeeInFV",
          "type": "uint256"
        },
        {
          "internalType": "uint256",
          "name": "placedAmount",
          "type": "uint256"
        },
        {
          "internalType": "uint256",
          "name": "coverage",
          "type": "uint256"
        },
        {
          "internalType": "bool",
          "name": "isInsufficientDepositAmount",
          "type": "bool"
        }
      ],
      "stateMutability": "view",
      "type": "function"
    },
    {
      "inputs": [
        {
          "internalType": "bytes32",
          "name": "_ccy",
          "type": "bytes32"
        }
      ],
      "name": "getOrderFeeRate",
      "outputs": [
        {
          "internalType": "uint256",
          "name": "",
          "type": "uint256"
        }
      ],
      "stateMutability": "view",
      "type": "function"
    },
    {
      "inputs": [
        {
          "internalType": "bytes32[]",
          "name": "_ccys",
          "type": "bytes32[]"
        },
        {
          "internalType": "address",
          "name": "_user",
          "type": "address"
        }
      ],
      "name": "getOrders",
      "outputs": [
        {
          "components": [
            {
              "internalType": "uint48",
              "name": "orderId",
              "type": "uint48"
            },
            {
              "internalType": "bytes32",
              "name": "ccy",
              "type": "bytes32"
            },
            {
              "internalType": "uint256",
              "name": "maturity",
              "type": "uint256"
            },
            {
              "internalType": "enum ProtocolTypes.Side",
              "name": "side",
              "type": "uint8"
            },
            {
              "internalType": "uint256",
              "name": "unitPrice",
              "type": "uint256"
            },
            {
              "internalType": "uint256",
              "name": "amount",
              "type": "uint256"
            },
            {
              "internalType": "uint256",
              "name": "timestamp",
              "type": "uint256"
            },
            {
              "internalType": "bool",
              "name": "isPreOrder",
              "type": "bool"
            }
          ],
          "internalType": "struct ILendingMarketController.Order[]",
          "name": "activeOrders",
          "type": "tuple[]"
        },
        {
          "components": [
            {
              "internalType": "uint48",
              "name": "orderId",
              "type": "uint48"
            },
            {
              "internalType": "bytes32",
              "name": "ccy",
              "type": "bytes32"
            },
            {
              "internalType": "uint256",
              "name": "maturity",
              "type": "uint256"
            },
            {
              "internalType": "enum ProtocolTypes.Side",
              "name": "side",
              "type": "uint8"
            },
            {
              "internalType": "uint256",
              "name": "unitPrice",
              "type": "uint256"
            },
            {
              "internalType": "uint256",
              "name": "amount",
              "type": "uint256"
            },
            {
              "internalType": "uint256",
              "name": "timestamp",
              "type": "uint256"
            },
            {
              "internalType": "bool",
              "name": "isPreOrder",
              "type": "bool"
            }
          ],
          "internalType": "struct ILendingMarketController.Order[]",
          "name": "inactiveOrders",
          "type": "tuple[]"
        }
      ],
      "stateMutability": "view",
      "type": "function"
    },
    {
      "inputs": [
        {
          "internalType": "bytes32",
          "name": "_ccy",
          "type": "bytes32"
        },
        {
          "internalType": "uint256",
          "name": "_maturity",
          "type": "uint256"
        },
        {
          "internalType": "address",
          "name": "_user",
          "type": "address"
        }
      ],
      "name": "getPosition",
      "outputs": [
        {
          "internalType": "int256",
          "name": "presentValue",
          "type": "int256"
        },
        {
          "internalType": "int256",
          "name": "futureValue",
          "type": "int256"
        }
      ],
      "stateMutability": "view",
      "type": "function"
    },
    {
      "inputs": [
        {
          "internalType": "bytes32[]",
          "name": "_ccys",
          "type": "bytes32[]"
        },
        {
          "internalType": "address",
          "name": "_user",
          "type": "address"
        }
      ],
      "name": "getPositions",
      "outputs": [
        {
          "components": [
            {
              "internalType": "bytes32",
              "name": "ccy",
              "type": "bytes32"
            },
            {
              "internalType": "uint256",
              "name": "maturity",
              "type": "uint256"
            },
            {
              "internalType": "int256",
              "name": "presentValue",
              "type": "int256"
            },
            {
              "internalType": "int256",
              "name": "futureValue",
              "type": "int256"
            }
          ],
          "internalType": "struct ILendingMarketController.Position[]",
          "name": "positions",
          "type": "tuple[]"
        }
      ],
      "stateMutability": "view",
      "type": "function"
    },
    {
      "inputs": [
        {
          "internalType": "bytes32",
          "name": "_ccy",
          "type": "bytes32"
        },
        {
          "internalType": "address",
          "name": "_user",
          "type": "address"
        }
      ],
      "name": "getTotalPresentValue",
      "outputs": [
        {
          "internalType": "int256",
          "name": "totalPresentValue",
          "type": "int256"
        }
      ],
      "stateMutability": "view",
      "type": "function"
    },
    {
      "inputs": [
        {
          "internalType": "address",
          "name": "_user",
          "type": "address"
        }
      ],
      "name": "getTotalPresentValueInBaseCurrency",
      "outputs": [
        {
          "internalType": "int256",
          "name": "totalPresentValue",
          "type": "int256"
        }
      ],
      "stateMutability": "view",
      "type": "function"
    },
    {
      "inputs": [
        {
          "internalType": "address",
          "name": "_user",
          "type": "address"
        }
      ],
      "name": "getUsedCurrencies",
      "outputs": [
        {
          "internalType": "bytes32[]",
          "name": "",
          "type": "bytes32[]"
        }
      ],
      "stateMutability": "view",
      "type": "function"
    },
    {
      "inputs": [
        {
          "internalType": "address",
          "name": "_owner",
          "type": "address"
        },
        {
          "internalType": "address",
          "name": "_resolver",
          "type": "address"
        },
        {
          "internalType": "uint256",
          "name": "_marketBasePeriod",
          "type": "uint256"
        }
      ],
      "name": "initialize",
      "outputs": [],
      "stateMutability": "nonpayable",
      "type": "function"
    },
    {
      "inputs": [
        {
          "internalType": "bytes32",
          "name": "_ccy",
          "type": "bytes32"
        },
        {
          "internalType": "uint256",
          "name": "_genesisDate",
          "type": "uint256"
        },
        {
          "internalType": "uint256",
          "name": "_compoundFactor",
          "type": "uint256"
        },
        {
          "internalType": "uint256",
          "name": "_orderFeeRate",
          "type": "uint256"
        },
        {
          "internalType": "uint256",
          "name": "_circuitBreakerLimitRange",
          "type": "uint256"
        }
      ],
      "name": "initializeLendingMarket",
      "outputs": [],
      "stateMutability": "nonpayable",
      "type": "function"
    },
    {
      "inputs": [
        {
          "internalType": "bytes32",
          "name": "_ccy",
          "type": "bytes32"
        }
      ],
      "name": "isInitializedLendingMarket",
      "outputs": [
        {
          "internalType": "bool",
          "name": "",
          "type": "bool"
        }
      ],
      "stateMutability": "view",
      "type": "function"
    },
    {
      "inputs": [
        {
          "internalType": "address",
          "name": "_user",
          "type": "address"
        }
      ],
      "name": "isRedemptionRequired",
      "outputs": [
        {
          "internalType": "bool",
          "name": "",
          "type": "bool"
        }
      ],
      "stateMutability": "view",
      "type": "function"
    },
    {
      "inputs": [],
      "name": "isResolverCached",
      "outputs": [
        {
          "internalType": "bool",
          "name": "",
          "type": "bool"
        }
      ],
      "stateMutability": "view",
      "type": "function"
    },
    {
      "inputs": [],
      "name": "isTerminated",
      "outputs": [
        {
          "internalType": "bool",
          "name": "",
          "type": "bool"
        }
      ],
      "stateMutability": "view",
      "type": "function"
    },
    {
      "inputs": [],
      "name": "owner",
      "outputs": [
        {
          "internalType": "address",
          "name": "",
          "type": "address"
        }
      ],
      "stateMutability": "view",
      "type": "function"
    },
    {
      "inputs": [
        {
          "internalType": "bytes32",
          "name": "_ccy",
          "type": "bytes32"
        }
      ],
      "name": "pauseLendingMarkets",
      "outputs": [
        {
          "internalType": "bool",
          "name": "",
          "type": "bool"
        }
      ],
      "stateMutability": "nonpayable",
      "type": "function"
    },
    {
      "inputs": [],
      "name": "renounceOwnership",
      "outputs": [],
      "stateMutability": "nonpayable",
      "type": "function"
    },
    {
      "inputs": [],
      "name": "requiredContracts",
      "outputs": [
        {
          "internalType": "bytes32[]",
          "name": "contracts",
          "type": "bytes32[]"
        }
      ],
      "stateMutability": "pure",
      "type": "function"
    },
    {
      "inputs": [],
      "name": "resolver",
      "outputs": [
        {
          "internalType": "contract IAddressResolver",
          "name": "",
          "type": "address"
        }
      ],
      "stateMutability": "view",
      "type": "function"
    },
    {
      "inputs": [
        {
          "internalType": "bytes32",
          "name": "_ccy",
          "type": "bytes32"
        }
      ],
      "name": "rotateOrderBooks",
      "outputs": [],
      "stateMutability": "nonpayable",
      "type": "function"
    },
    {
      "inputs": [
        {
          "internalType": "address",
          "name": "newOwner",
          "type": "address"
        }
      ],
      "name": "transferOwnership",
      "outputs": [],
      "stateMutability": "nonpayable",
      "type": "function"
    },
    {
      "inputs": [
        {
          "internalType": "bytes32",
          "name": "_ccy",
          "type": "bytes32"
        }
      ],
      "name": "unpauseLendingMarkets",
      "outputs": [
        {
          "internalType": "bool",
          "name": "",
          "type": "bool"
        }
      ],
      "stateMutability": "nonpayable",
      "type": "function"
    },
    {
      "inputs": [
        {
          "internalType": "bytes32",
          "name": "_ccy",
          "type": "bytes32"
        },
        {
          "internalType": "uint256",
          "name": "_maturity",
          "type": "uint256"
        }
      ],
      "name": "unwindPosition",
      "outputs": [
        {
          "internalType": "bool",
          "name": "",
          "type": "bool"
        }
      ],
      "stateMutability": "nonpayable",
      "type": "function"
    },
    {
      "inputs": [
        {
          "internalType": "bytes32",
          "name": "_ccy",
          "type": "bytes32"
        },
        {
          "internalType": "uint256",
          "name": "_cbLimitRange",
          "type": "uint256"
        }
      ],
      "name": "updateCircuitBreakerLimitRange",
      "outputs": [],
      "stateMutability": "nonpayable",
      "type": "function"
    },
    {
      "inputs": [
        {
          "internalType": "bytes32",
          "name": "_ccy",
          "type": "bytes32"
        },
        {
          "internalType": "uint256",
          "name": "_orderFeeRate",
          "type": "uint256"
        }
      ],
      "name": "updateOrderFeeRate",
      "outputs": [],
      "stateMutability": "nonpayable",
      "type": "function"
    }
  ],
  "transactionHash": "0x768ac4725aab4d6ed4e18ef4484cab6a61382749b3006d53873dee4bd79e8063",
  "args": [],
  "numDeployments": 2,
  "solcInputHash": "ea2e21b776e9624cd11ce2b04f319a72",
  "bytecode": "0x608060405234801561001057600080fd5b506001600055615443806100256000396000f3fe6080604052600436106103815760003560e01c80638181e3d3116101d1578063a4c66bde11610102578063e0997659116100a0578063e99d05381161006f578063e99d053814610b6d578063f2fde38b14610b8d578063f43947c714610bad578063fc70081014610bcd57600080fd5b8063e099765914610af8578063e0a1744314610b0d578063e52a6dac14610b20578063e6977c6a14610b4057600080fd5b8063b3cb8450116100dc578063b3cb845014610a8e578063b8f117cd14610aae578063c11333b114610ac3578063d1cc997614610ae357600080fd5b8063a4c66bde146109f7578063abc6f02514610a17578063b1d0f2f014610a6e57600080fd5b806394e75a3e1161016f5780639a795d9c116101495780639a795d9c146109265780639e0998b2146109535780639f6c3159146109b7578063a02be3dc146109d757600080fd5b806394e75a3e146108d15780639519832b146108e6578063953dbcaa1461090657600080fd5b8063862fd6e5116101ab578063862fd6e51461085c578063886f4b451461087c578063891d59651461089c5780638da5cb5b146108bc57600080fd5b80638181e3d3146107ef578063826b47e81461081c5780638469973f1461083c57600080fd5b8063482f267a116102b6578063715018a6116102545780637b588aaa116102235780637b588aaa1461075d5780637c63039d1461077d57806380a7de861461079d578063812784b0146107cf57600080fd5b8063715018a61461069e57806373429978146106b3578063766cb64e14610710578063798ac0c01461073057600080fd5b80634ebeb049116102905780634ebeb0491461061e57806353571ee71461063e5780635ca65d571461065e57806370c641a61461067e57600080fd5b8063482f267a146105b057806349f2ccbf146105de5780634e78fecc146105fe57600080fd5b806317b72ff4116103235780632af64bd3116102fd5780632af64bd3146105395780632e6c5e671461054e5780632ef5ddaf1461056e5780633d03b9da1461058e57600080fd5b806317b72ff4146104af57806324e4ae05146104cf57806329985e5a1461052457600080fd5b80630594de6e1161035f5780630594de6e14610416578063062ea294146104455780630b60d6d31461047a5780631794bb3c1461048d57600080fd5b806301cf22351461038657806303e5fb59146103bb57806304f3bcec146103e9575b600080fd5b34801561039257600080fd5b506103a66103a1366004613b9c565b610bed565b60405190151581526020015b60405180910390f35b3480156103c757600080fd5b506103db6103d6366004613bbe565b610d0a565b6040519081526020016103b2565b3480156103f557600080fd5b506103fe610da5565b6040516001600160a01b0390911681526020016103b2565b34801561042257600080fd5b50610436610431366004613bd7565b610dc6565b6040516103b293929190613c3e565b34801561045157600080fd5b50610465610460366004613c96565b610ea6565b604080519283526020830191909152016103b2565b6103a6610488366004613cdc565b610f3f565b34801561049957600080fd5b506104ad6104a8366004613d25565b6110cf565b005b3480156104bb57600080fd5b506103db6104ca366004613d66565b61125d565b3480156104db57600080fd5b506104ef6104ea366004613d96565b6112f3565b604080519788526020880196909652948601939093526060850191909152608084015260a083015260c082015260e0016103b2565b34801561053057600080fd5b506104ad611470565b34801561054557600080fd5b506103a661161d565b34801561055a57600080fd5b506103a6610569366004613bbe565b611783565b34801561057a57600080fd5b506103a6610589366004613cdc565b6117a3565b34801561059a57600080fd5b506105a361187c565b6040516103b29190613dbd565b3480156105bc57600080fd5b506105d06105cb366004613e4c565b61199e565b6040516103b2929190613f46565b3480156105ea57600080fd5b506103a66105f9366004613f88565b611a30565b34801561060a57600080fd5b506103db610619366004613bbe565b611b91565b34801561062a57600080fd5b506104ad610639366004613bd7565b611bee565b34801561064a57600080fd5b506104ad610659366004613bbe565b611cb9565b34801561066a57600080fd5b506104ad610679366004613b9c565b611e72565b34801561068a57600080fd5b506103db610699366004613d66565b611f1d565b3480156106aa57600080fd5b506104ad611fb7565b3480156106bf57600080fd5b506106d36106ce366004613b9c565b611ff2565b604080519889526020890197909752958701949094526060860192909252608085015260a084015260c0830152151560e0820152610100016103b2565b34801561071c57600080fd5b506104ad61072b366004613fb6565b6120ae565b34801561073c57600080fd5b5061075061074b366004613e4c565b612189565b6040516103b29190613ff1565b34801561076957600080fd5b506104ad610778366004613b9c565b612223565b34801561078957600080fd5b506103a6610798366004614055565b61229c565b3480156107a957600080fd5b506107bd6107b8366004613b9c565b6124b2565b60405160ff90911681526020016103b2565b3480156107db57600080fd5b506103fe6107ea366004613bbe565b6124de565b3480156107fb57600080fd5b5061080f61080a366004613bbe565b612505565b6040516103b291906140a0565b34801561082857600080fd5b506103a66108373660046140b3565b6125bc565b34801561084857600080fd5b506103a66108573660046140d0565b61265f565b34801561086857600080fd5b506103a66108773660046140b3565b612895565b34801561088857600080fd5b506103a6610897366004613b9c565b6128d5565b3480156108a857600080fd5b506103db6108b7366004613bbe565b6129a8565b3480156108c857600080fd5b506103fe6129c6565b3480156108dd57600080fd5b506103a66129ee565b3480156108f257600080fd5b506103db610901366004613d66565b612aab565b34801561091257600080fd5b50610436610921366004613bd7565b612b73565b34801561093257600080fd5b50610946610941366004614111565b612ba9565b6040516103b29190614146565b34801561095f57600080fd5b5061097361096e3660046141de565b612c40565b60408051998a5260208a0198909852968801959095526060870193909352608086019190915260a085015260c084015260e0830152610100820152610120016103b2565b3480156109c357600080fd5b506103fe6109d2366004613bbe565b612d4c565b3480156109e357600080fd5b5061080f6109f2366004613bbe565b612d73565b348015610a0357600080fd5b506103db610a123660046140b3565b612da6565b348015610a2357600080fd5b50610a37610a3236600461422a565b612f31565b604080519788526020880196909652948601939093526060850191909152608084015260a0830152151560c082015260e0016103b2565b348015610a7a57600080fd5b506103a6610a89366004613b9c565b612fda565b348015610a9a57600080fd5b506103a6610aa9366004613bbe565b61311b565b348015610aba57600080fd5b506104ad6131e0565b348015610acf57600080fd5b506103a6610ade3660046140d0565b61328d565b348015610aef57600080fd5b506103a6613439565b348015610b0457600080fd5b506105a361344e565b6103a6610b1b366004613cdc565b613491565b348015610b2c57600080fd5b5061080f610b3b366004613bbe565b6135dd565b348015610b4c57600080fd5b50610b60610b5b366004613bbe565b613610565b6040516103b29190614243565b348015610b7957600080fd5b506103a6610b88366004613bbe565b6136a2565b348015610b9957600080fd5b506104ad610ba83660046140b3565b613731565b348015610bb957600080fd5b506103a6610bc8366004613cdc565b6137d1565b348015610bd957600080fd5b506105a3610be83660046140b3565b6138aa565b600060026000541415610c1b5760405162461bcd60e51b8152600401610c129061427e565b60405180910390fd5b60026000558282610c2a6138d8565b60008381526007919091016020908152604080832084845290915290205460ff16610c68576040516318f4d05960e31b815260040160405180910390fd5b610c70613439565b15610c8e57604051632aaa685560e11b815260040160405180910390fd5b604051632097fb8960e01b81527374e6e5dA590cbF02fA8D9301b43A6Bbd2b34da7390632097fb8990610cc9908890889033906004016142b5565b60006040518083038186803b158015610ce157600080fd5b505af4158015610cf5573d6000803e3d6000fd5b50505050600192505050600160005592915050565b6000610d146138d8565b6000838152600591909101602090815260409182902054825163128e5b8560e01b815292516001600160a01b039091169263128e5b85926004808301939192829003018186803b158015610d6757600080fd5b505afa158015610d7b573d6000803e3d6000fd5b505050506040513d601f19601f82011682018060405250810190610d9f91906142d4565b92915050565b60006000805160206153ee8339815191525b546001600160a01b0316919050565b6060806060610dd36138d8565b600087815260059190910160205260409020546001600160a01b031663f8044e6c610dfc6138d8565b6000898152600791909101602090815260408083208a84529091529081902054905160e083901b6001600160e01b031916815260ff90911660048201526024810187905260440160006040518083038186803b158015610e5b57600080fd5b505afa158015610e6f573d6000803e3d6000fd5b505050506040513d6000823e601f3d908101601f19168201604052610e979190810190614452565b92509250925093509350939050565b60008073ac22585abe54C036D2131798B2Db031F37B024C663062ea2948686866040518463ffffffff1660e01b8152600401610ee4939291906142b5565b604080518083038186803b158015610efb57600080fd5b505af4158015610f0f573d6000803e3d6000fd5b505050506040513d601f19601f82011682018060405250810190610f3391906144d9565b90969095509350505050565b600060026000541415610f645760405162461bcd60e51b8152600401610c129061427e565b60026000558585610f736138d8565b60008381526007919091016020908152604080832084845290915290205460ff16610fb1576040516318f4d05960e31b815260040160405180910390fd5b610fb9613439565b15610fd757604051632aaa685560e11b815260040160405180910390fd5b610fdf6138fc565b6040516396994e3760e01b8152336004820152602481018a9052604481018790526001600160a01b0391909116906396994e379034906064016000604051808303818588803b15801561103157600080fd5b505af1158015611045573d6000803e3d6000fd5b505060405163606c3acd60e01b81527374e6e5dA590cbF02fA8D9301b43A6Bbd2b34da73935063606c3acd925061108b91508b908b9033908c908c908c906004016144fd565b60006040518083038186803b1580156110a357600080fd5b505af41580156110b7573d6000803e3d6000fd5b50505050600192505050600160005595945050505050565b600154610100900460ff16158080156110ec57506001805460ff16105b806111055750303b15801561110557506001805460ff16145b6111685760405162461bcd60e51b815260206004820152602e60248201527f496e697469616c697a61626c653a20636f6e747261637420697320616c72656160448201526d191e481a5b9a5d1a585b1a5e995960921b6064820152608401610c12565b6001805460ff191681179055801561118a576001805461ff0019166101001790555b600061119461390b565b6001600160a01b031614156111f65760405162461bcd60e51b815260206004820152602260248201527f4d7573742062652063616c6c65642066726f6d2070726f787920636f6e74726160448201526118dd60f21b6064820152608401610c12565b816111ff6138d8565b55611209846137c5565b61121283613933565b8015611257576001805461ff00191681556040519081527f7f26b83ff96e1f2b6a682f133852f6798a09c465da95921460cefb38474024989060200160405180910390a15b50505050565b6040516295a47160e71b815260009073ac22585abe54C036D2131798B2Db031F37B024C690634ad238809061129a908690859087906004016142b5565b6101206040518083038186803b1580156112b357600080fd5b505af41580156112c7573d6000803e3d6000fd5b505050506040513d601f19601f820116820180604052508101906112eb919061453b565b519392505050565b600080600080600080600061132c8a61130a6138d8565b6001600160a01b038c1660009081526009919091016020526040902090613999565b15611463576113746040518060e00160405280600080191681526020016000815260200160008152602001600081526020016000815260200160008152602001600081525090565b60408051639349fb4160e01b8152600481018d90526001600160a01b038c1660248201528251604482015260208301516064820152908201516084820152606082015160a4820152608082015160c482015260a082015160e482015260c082015161010482015261012481018a905273ac22585abe54C036D2131798B2Db031F37B024C690639349fb41906101440160e06040518083038186803b15801561141b57600080fd5b505af415801561142f573d6000803e3d6000fd5b505050506040513d601f19601f8201168201806040525081019061145391906145b6565b9750975097509750975097509750505b9397509397509397909450565b600061147a61187c565b905060005b815181101561161957600082828151811061149c5761149c61460a565b6020026020010151905060006114bd6000805160206153ee83398151915290565b54604080517f5265736f6c766572206d697373696e67207461726765743a200000000000000060208201526039808201869052825180830390910181526059820192839052636795dbcd60e01b9092526001600160a01b0390921691636795dbcd9161152e91869190605d0161466d565b60206040518083038186803b15801561154657600080fd5b505afa15801561155a573d6000803e3d6000fd5b505050506040513d601f19601f8201168201806040525081019061157e9190614686565b60008381527f4abde63c3e81aefa5764b017968bc473e83e093d7e1a10247d19e0a3e4124019602090815260409182902080546001600160a01b0319166001600160a01b03851690811790915582518681529182015281519293507f88a93678a3692f6789d9546fc621bf7234b101ddb7d4fe479455112831b8aa68929081900390910190a150508080611611906146b9565b91505061147f565b5050565b60008061162861187c565b905060005b815181101561177a57600082828151811061164a5761164a61460a565b602002602001015190506116696000805160206153ee83398151915290565b600082815260019190910160205260409020546001600160a01b03166000805160206153ee833981519152546040516321f8a72160e01b8152600481018490526001600160a01b03909116906321f8a7219060240160206040518083038186803b1580156116d657600080fd5b505afa1580156116ea573d6000803e3d6000fd5b505050506040513d601f19601f8201168201806040525081019061170e9190614686565b6001600160a01b0316141580611758575060008181527f4abde63c3e81aefa5764b017968bc473e83e093d7e1a10247d19e0a3e412401960205260409020546001600160a01b0316155b15611767576000935050505090565b5080611772816146b9565b91505061162d565b50600191505090565b600061178d6138d8565b6000928352600801602052506040902054151590565b6000600260005414156117c85760405162461bcd60e51b8152600401610c129061427e565b600260005585856117d76138d8565b60008381526007919091016020908152604080832084845290915290205460ff16611815576040516318f4d05960e31b815260040160405180910390fd5b61181d613439565b1561183b57604051632aaa685560e11b815260040160405180910390fd5b60405163aeb2d5bd60e01b81527374e6e5dA590cbF02fA8D9301b43A6Bbd2b34da739063aeb2d5bd9061108b908b908b9033908c908c908c906004016144fd565b60408051600580825260c082019092526060916020820160a080368337019050509050742132b0b1b7b7283937bc3ca1b7b73a3937b63632b960591b816000815181106118cb576118cb61460a565b6020026020010181815250507121bab93932b731bca1b7b73a3937b63632b960711b816001815181106119005761190061460a565b6020026020010181815250507011d95b995cda5cd5985b1d5955985d5b1d607a1b816002815181106119345761193461460a565b6020026020010181815250506a14995cd95c9d99519d5b9960aa1b816003815181106119625761196261460a565b60200260200101818152505069151bdad95b95985d5b1d60b21b8160048151811061198f5761198f61460a565b60200260200101818152505090565b6060807374e6e5dA590cbF02fA8D9301b43A6Bbd2b34da7363482f267a8686866040518463ffffffff1660e01b81526004016119dc9392919061470a565b60006040518083038186803b1580156119f457600080fd5b505af4158015611a08573d6000803e3d6000fd5b505050506040513d6000823e601f3d908101601f19168201604052610f33919081019061482e565b600060026000541415611a555760405162461bcd60e51b8152600401610c129061427e565b60026000558383611a646138d8565b60008381526007919091016020908152604080832084845290915290205460ff16611aa2576040516318f4d05960e31b815260040160405180910390fd5b611aaa613439565b15611ac857604051632aaa685560e11b815260040160405180910390fd5b611ad06138d8565b600087815260059190910160205260409020546001600160a01b031663f3f7f452611af96138d8565b6000898152600791909101602090815260408083208a84529091529081902054905160e083901b6001600160e01b031916815260ff909116600482015233602482015265ffffffffffff87166044820152606401600060405180830381600087803b158015611b6757600080fd5b505af1158015611b7b573d6000803e3d6000fd5b5050505060019250505060016000559392505050565b6000611b9b6138d8565b60008381526005919091016020908152604091829020548251631e25031760e01b815292516001600160a01b0390911692631e250317926004808301939192829003018186803b158015610d6757600080fd5b611bf6613439565b15611c1457604051632aaa685560e11b815260040160405180910390fd5b33611c1d6129c6565b6001600160a01b031614611c435760405162461bcd60e51b8152600401610c1290614891565b604051634ebeb04960e01b8152600481018490526024810183905260448101829052731eCfd8E7AcE77b7153F4E30787Ff1a7B5bCDd4E890634ebeb0499060640160006040518083038186803b158015611c9c57600080fd5b505af4158015611cb0573d6000803e3d6000fd5b50505050505050565b60026000541415611cdc5760405162461bcd60e51b8152600401610c129061427e565b6002600055611ce9613439565b15611d0757604051632aaa685560e11b815260040160405180910390fd5b6040516353571ee760e01b815260048101829052600090731eCfd8E7AcE77b7153F4E30787Ff1a7B5bCDd4E8906353571ee79060240160206040518083038186803b158015611d5557600080fd5b505af4158015611d69573d6000803e3d6000fd5b505050506040513d601f19601f82011682018060405250810190611d8d91906142d4565b905073ac22585abe54C036D2131798B2Db031F37B024C663ad8cc5e083611db26138d8565b60008681526007919091016020908152604080832087845290915290205460ff1684611ddc6139b1565b6040516001600160e01b031960e087901b168152600481019490945260ff909216602484015260448301526001600160a01b0316606482015260840160206040518083038186803b158015611e3057600080fd5b505af4158015611e44573d6000803e3d6000fd5b505050506040513d601f19601f82011682018060405250810190611e6891906142d4565b5050600160005550565b33611e7b6129c6565b6001600160a01b031614611ea15760405162461bcd60e51b8152600401610c1290614891565b611ea96138d8565b6000838152600591909101602052604090819020549051636aa65aaf60e01b8152600481018390526001600160a01b0390911690636aa65aaf906024015b600060405180830381600087803b158015611f0157600080fd5b505af1158015611f15573d6000803e3d6000fd5b505050505050565b6040516295a47160e71b815260009073ac22585abe54C036D2131798B2Db031F37B024C690634ad2388090611f5a908690859087906004016142b5565b6101206040518083038186803b158015611f7357600080fd5b505af4158015611f87573d6000803e3d6000fd5b505050506040513d601f19601f82011682018060405250810190611fab919061453b565b61010001519392505050565b33611fc06129c6565b6001600160a01b031614611fe65760405162461bcd60e51b8152600401610c1290614891565b611ff060006139bb565b565b600080600080600080600080731eCfd8E7AcE77b7153F4E30787Ff1a7B5bCDd4E863734299788b8b6040518363ffffffff1660e01b8152600401612040929190918252602082015260400190565b6101006040518083038186803b15801561205957600080fd5b505af415801561206d573d6000803e3d6000fd5b505050506040513d601f19601f8201168201806040525081019061209191906148c6565b975097509750975097509750975097509295985092959890939650565b336120b76129c6565b6001600160a01b0316146120dd5760405162461bcd60e51b8152600401610c1290614891565b6120e685611783565b156121035760405162dc149f60e41b815260040160405180910390fd5b604051633b365b2760e11b81526004810186905260248101859052604481018490526064810183905260848101829052731eCfd8E7AcE77b7153F4E30787Ff1a7B5bCDd4E89063766cb64e9060a40160006040518083038186803b15801561216a57600080fd5b505af415801561217e573d6000803e3d6000fd5b505050505050505050565b6040516301e62b0360e61b815260609073ac22585abe54C036D2131798B2Db031F37B024C69063798ac0c0906121c79087908790879060040161470a565b60006040518083038186803b1580156121df57600080fd5b505af41580156121f3573d6000803e3d6000fd5b505050506040513d6000823e601f3d908101601f1916820160405261221b9190810190614930565b949350505050565b3361222c6129c6565b6001600160a01b0316146122525760405162461bcd60e51b8152600401610c1290614891565b61225a6138d8565b6000838152600591909101602052604090819020549051636c5d6df160e01b8152600481018390526001600160a01b0390911690636c5d6df190602401611ee7565b6000600260005414156122c15760405162461bcd60e51b8152600401610c129061427e565b60026000556122ce613439565b156122ec57604051632aaa685560e11b815260040160405180910390fd5b60005b838110156124a157600085858381811061230b5761230b61460a565b905060200201359050600080731eCfd8E7AcE77b7153F4E30787Ff1a7B5bCDd4E8636a23a95c84886040518363ffffffff1660e01b8152600401612359929190918252602082015260400190565b6101006040518083038186803b15801561237257600080fd5b505af4158015612386573d6000803e3d6000fd5b505050506040513d601f19601f820116820180604052508101906123aa9190614a51565b6040516305ed050d60e51b815291935091507374e6e5dA590cbF02fA8D9301b43A6Bbd2b34da739063bda0a1a0906123ed9086908a906000908890600401614a87565b60006040518083038186803b15801561240557600080fd5b505af4158015612419573d6000803e3d6000fd5b50506040516305ed050d60e51b81527374e6e5dA590cbF02fA8D9301b43A6Bbd2b34da73925063bda0a1a0915061245b9086908a906001908790600401614a87565b60006040518083038186803b15801561247357600080fd5b505af4158015612487573d6000803e3d6000fd5b505050505050508080612499906146b9565b9150506122ef565b506001905060016000559392505050565b60006124bc6138d8565b6000938452600701602090815260408085209385529290525090205460ff1690565b60006124e86138d8565b60009283526006016020525060409020546001600160a01b031690565b606061250f6138d8565b600083815260059190910160205260409020546001600160a01b031663cd4586626125386138d8565b6000858152600491820160205260409081902090516001600160e01b031960e085901b1681526125689201614ae3565b60006040518083038186803b15801561258057600080fd5b505afa158015612594573d6000803e3d6000fd5b505050506040513d6000823e601f3d908101601f19168201604052610d9f91908101906150c4565b6000600260005414156125e15760405162461bcd60e51b8152600401610c129061427e565b600260005560405163104d68fd60e31b81526001600160a01b038316600482015273ac22585abe54C036D2131798B2Db031F37B024C69063826b47e89060240160006040518083038186803b15801561263957600080fd5b505af415801561264d573d6000803e3d6000fd5b50505050600190506001600055919050565b60003330146127ab576001546201000090046001600160a01b031615612698576040516337affdbf60e11b815260040160405180910390fd5b6001805462010000600160b01b03191633620100000217905583836126bb6138d8565b60008381526007919091016020908152604080832084845290915290205460ff166126f9576040516318f4d05960e31b815260040160405180910390fd5b612701613439565b1561271f57604051632aaa685560e11b815260040160405180910390fd5b604051633099b3fd60e21b8152738a8Ca6125c0BbeA74aD578ca015C9cEcA35dFfa29063c266cff49061275e90339088908c908c908c906004016150f8565b60006040518083038186803b15801561277657600080fd5b505af415801561278a573d6000803e3d6000fd5b505050506001925050506001805462010000600160b01b031916905561221b565b83836127b56138d8565b60008381526007919091016020908152604080832084845290915290205460ff166127f3576040516318f4d05960e31b815260040160405180910390fd5b6127fb613439565b1561281957604051632aaa685560e11b815260040160405180910390fd5b604051633099b3fd60e21b8152738a8Ca6125c0BbeA74aD578ca015C9cEcA35dFfa29063c266cff49061285890339088908c908c908c906004016150f8565b60006040518083038186803b15801561287057600080fd5b505af4158015612884573d6000803e3d6000fd5b5060019a9950505050505050505050565b600061289f613439565b8015610d9f57506128ae6138d8565b6001600160a01b0383166000908152600d91909101602052604090205460ff161592915050565b6000600260005414156128fa5760405162461bcd60e51b8152600401610c129061427e565b600260005582826129096138d8565b60008381526007919091016020908152604080832084845290915290205460ff16612947576040516318f4d05960e31b815260040160405180910390fd5b61294f613439565b1561296d57604051632aaa685560e11b815260040160405180910390fd5b6040516332b3123760e11b815273ac22585abe54C036D2131798B2Db031F37B024C690636566246e90610cc9908890889033906004016142b5565b60006129b26138d8565b600092835260080160205250604090205490565b60007f9acda75aebd150dd434541a4747a6dc606f4f1a59662477e67daf1fc0bf9e0aa610db7565b600060026000541415612a135760405162461bcd60e51b8152600401610c129061427e565b6002600055612a20613439565b612a3d576040516304d824a560e41b815260040160405180910390fd5b604051635dd3a2c160e01b815233600482015273ac22585abe54C036D2131798B2Db031F37B024C690635dd3a2c19060240160006040518083038186803b158015612a8757600080fd5b505af4158015612a9b573d6000803e3d6000fd5b5050505060019050600160005590565b600060026000541415612ad05760405162461bcd60e51b8152600401610c129061427e565b6002600055604051639519832b60e01b8152600481018490526001600160a01b038316602482015273ac22585abe54C036D2131798B2Db031F37B024C690639519832b9060440160206040518083038186803b158015612b2f57600080fd5b505af4158015612b43573d6000803e3d6000fd5b505050506040513d601f19601f82011682018060405250810190612b6791906142d4565b60016000559392505050565b6060806060612b806138d8565b600087815260059190910160205260409020546001600160a01b031663932c9385610dfc6138d8565b60405163269e576760e21b8152606090731eCfd8E7AcE77b7153F4E30787Ff1a7B5bCDd4E890639a795d9c90612be59086908690600401615129565b60006040518083038186803b158015612bfd57600080fd5b505af4158015612c11573d6000803e3d6000fd5b505050506040513d6000823e601f3d908101601f19168201604052612c39919081019061513d565b9392505050565b604080516345f1848f60e11b81526001600160a01b0385166004820152833560248201526020840135604482015290830135606482015260608301356084820152608083013560a482015260a083013560c482015260c083013560e482015261010481018290526000908190819081908190819081908190819073ac22585abe54C036D2131798B2Db031F37B024C690638be3091e90610124016101206040518083038186803b158015612cf357600080fd5b505af4158015612d07573d6000803e3d6000fd5b505050506040513d601f19601f82011682018060405250810190612d2b919061524a565b98509850985098509850985098509850985093979b92969a50939750939750565b6000612d566138d8565b60009283526005016020525060409020546001600160a01b031690565b6060612d7d6138d8565b600083815260059190910160205260409020546001600160a01b03166338b058526125386138d8565b600080612db16138d8565b6001600160a01b03841660009081526009919091016020526040812091505b612dd982613a2c565b811015612f2a576000612dec8383613a36565b9050600073ac22585abe54C036D2131798B2Db031F37B024C6634ad23880836000896040518463ffffffff1660e01b8152600401612e2c939291906142b5565b6101206040518083038186803b158015612e4557600080fd5b505af4158015612e59573d6000803e3d6000fd5b505050506040513d601f19601f82011682018060405250810190612e7d919061453b565b519050612e88613a42565b604051633c7f634960e11b815260048101849052602481018390526001600160a01b0391909116906378fec6929060440160206040518083038186803b158015612ed157600080fd5b505afa158015612ee5573d6000803e3d6000fd5b505050506040513d601f19601f82011682018060405250810190612f0991906142d4565b612f1390866152b3565b945050508080612f22906146b9565b915050612dd0565b5050919050565b60008060008060008060007374e6e5dA590cbF02fA8D9301b43A6Bbd2b34da7363724160ad896040518263ffffffff1660e01b8152600401612f7391906152f4565b60e06040518083038186803b158015612f8b57600080fd5b505af4158015612f9f573d6000803e3d6000fd5b505050506040513d601f19601f82011682018060405250810190612fc3919061537a565b959e949d50929b5090995097509550909350915050565b600060026000541415612fff5760405162461bcd60e51b8152600401610c129061427e565b6002600055828261300e6138d8565b60008381526007919091016020908152604080832084845290915290205460ff1661304c576040516318f4d05960e31b815260040160405180910390fd5b613054613439565b1561307257604051632aaa685560e11b815260040160405180910390fd5b6040516301402dfb60e31b815260048101869052602481018590523360448201526000606482015273ac22585abe54C036D2131798B2Db031F37B024C690630a016fd89060840160206040518083038186803b1580156130d157600080fd5b505af41580156130e5573d6000803e3d6000fd5b505050506040513d601f19601f8201168201806040525081019061310991906142d4565b50600192505050600160005592915050565b6000613125613439565b1561314357604051632aaa685560e11b815260040160405180910390fd5b3361314c6129c6565b6001600160a01b0316146131725760405162461bcd60e51b8152600401610c1290614891565b604051630b3cb84560e41b815260048101839052731eCfd8E7AcE77b7153F4E30787Ff1a7B5bCDd4E89063b3cb8450906024015b60006040518083038186803b1580156131be57600080fd5b505af41580156131d2573d6000803e3d6000fd5b50505050600190505b919050565b6131e8613439565b1561320657604051632aaa685560e11b815260040160405180910390fd5b3361320f6129c6565b6001600160a01b0316146132355760405162461bcd60e51b8152600401610c1290614891565b731eCfd8E7AcE77b7153F4E30787Ff1a7B5bCDd4E863b8f117cd6040518163ffffffff1660e01b815260040160006040518083038186803b15801561327957600080fd5b505af4158015611257573d6000803e3d6000fd5b600033301461338c576001546201000090046001600160a01b0316156132c6576040516337affdbf60e11b815260040160405180910390fd5b6001805462010000600160b01b03191633620100000217905583836132e96138d8565b60008381526007919091016020908152604080832084845290915290205460ff16613327576040516318f4d05960e31b815260040160405180910390fd5b61332f613439565b1561334d57604051632aaa685560e11b815260040160405180910390fd5b604051635436151f60e11b8152738a8Ca6125c0BbeA74aD578ca015C9cEcA35dFfa29063a86c2a3e9061275e90339088908c908c908c906004016150f8565b83836133966138d8565b60008381526007919091016020908152604080832084845290915290205460ff166133d4576040516318f4d05960e31b815260040160405180910390fd5b6133dc613439565b156133fa57604051632aaa685560e11b815260040160405180910390fd5b604051635436151f60e11b8152738a8Ca6125c0BbeA74aD578ca015C9cEcA35dFfa29063a86c2a3e9061285890339088908c908c908c906004016150f8565b6000806134446138d8565b6001015411905090565b6040805160018082528183019092526060916020808301908036833701905050905069151bdad95b95985d5b1d60b21b8160008151811061198f5761198f61460a565b6000600260005414156134b65760405162461bcd60e51b8152600401610c129061427e565b600260005585856134c56138d8565b60008381526007919091016020908152604080832084845290915290205460ff16613503576040516318f4d05960e31b815260040160405180910390fd5b61350b613439565b1561352957604051632aaa685560e11b815260040160405180910390fd5b6135316138fc565b6040516396994e3760e01b8152336004820152602481018a9052604481018790526001600160a01b0391909116906396994e379034906064016000604051808303818588803b15801561358357600080fd5b505af1158015613597573d6000803e3d6000fd5b505060405163aeb2d5bd60e01b81527374e6e5dA590cbF02fA8D9301b43A6Bbd2b34da73935063aeb2d5bd925061108b91508b908b9033908c908c908c906004016144fd565b60606135e76138d8565b600083815260059190910160205260409020546001600160a01b031663576737176125386138d8565b606061361a6138d8565b600401600083815260200190815260200160002080548060200260200160405190810160405280929190818152602001828054801561369657602002820191906000526020600020906000905b825461010083900a900460ff168152602060019283018181049485019490930390920291018084116136675790505b50505050509050919050565b60006136ac613439565b156136ca57604051632aaa685560e11b815260040160405180910390fd5b336136d36129c6565b6001600160a01b0316146136f95760405162461bcd60e51b8152600401610c1290614891565b604051631d33a0a760e31b815260048101839052731eCfd8E7AcE77b7153F4E30787Ff1a7B5bCDd4E89063e99d0538906024016131a6565b3361373a6129c6565b6001600160a01b0316146137605760405162461bcd60e51b8152600401610c1290614891565b6001600160a01b0381166137c55760405162461bcd60e51b815260206004820152602660248201527f4f776e61626c653a206e6577206f776e657220697320746865207a65726f206160448201526564647265737360d01b6064820152608401610c12565b6137ce816139bb565b50565b6000600260005414156137f65760405162461bcd60e51b8152600401610c129061427e565b600260005585856138056138d8565b60008381526007919091016020908152604080832084845290915290205460ff16613843576040516318f4d05960e31b815260040160405180910390fd5b61384b613439565b1561386957604051632aaa685560e11b815260040160405180910390fd5b60405163606c3acd60e01b81527374e6e5dA590cbF02fA8D9301b43A6Bbd2b34da739063606c3acd9061108b908b908b9033908c908c908c906004016144fd565b6060610d9f6138b76138d8565b6001600160a01b038416600090815260099190910160205260409020613a4c565b7f8041b8421ebd495cc61f38c788c9eb100daccf9bd36aa0bb920b7a15b2e0496590565b6000613906613a57565b905090565b60007f360894a13ba1a3210667c828492db98dca3e2076cc3735a920a3ca505d382bbc610db7565b6000805160206153ee833981519152546001600160a01b03161561396a576040516304b79d6360e51b815260040160405180910390fd5b6000805160206153ee83398151915280546001600160a01b0319166001600160a01b0392909216919091179055565b60008181526001830160205260408120541515612c39565b6000613906613a6f565b7f9acda75aebd150dd434541a4747a6dc606f4f1a59662477e67daf1fc0bf9e0aa80546001600160a01b038381166001600160a01b0319831681179093556040519116919082907f8be0079c531659141344cd1fd0a4f28419497f9722a3daafe3b4186f6b6457e090600090a35050565b6000610d9f825490565b6000612c398383613a88565b6000613906613ab2565b6060610d9f82613ad2565b600061390669151bdad95b95985d5b1d60b21b613b2d565b60006139066a14995cd95c9d99519d5b9960aa1b613b2d565b6000826000018281548110613a9f57613a9f61460a565b9060005260206000200154905092915050565b60006139067121bab93932b731bca1b7b73a3937b63632b960711b613b2d565b60608160000180548060200260200160405190810160405280929190818152602001828054801561369657602002820191906000526020600020905b815481526020019060010190808311613b0e5750505050509050919050565b60008181527f4abde63c3e81aefa5764b017968bc473e83e093d7e1a10247d19e0a3e412401960205260408120546001600160a01b031680610d9f5760408051602081018590520160408051601f19818403018152908290526346e2ec9360e01b8252610c12916004016153da565b60008060408385031215613baf57600080fd5b50508035926020909101359150565b600060208284031215613bd057600080fd5b5035919050565b600080600060608486031215613bec57600080fd5b505081359360208301359350604090920135919050565b600081518084526020808501945080840160005b83811015613c3357815187529582019590820190600101613c17565b509495945050505050565b606081526000613c516060830186613c03565b8281036020840152613c638186613c03565b90508281036040840152613c778185613c03565b9695505050505050565b6001600160a01b03811681146137ce57600080fd5b600080600060608486031215613cab57600080fd5b83359250602084013591506040840135613cc481613c81565b809150509250925092565b600281106137ce57600080fd5b600080600080600060a08688031215613cf457600080fd5b85359450602086013593506040860135613d0d81613ccf565b94979396509394606081013594506080013592915050565b600080600060608486031215613d3a57600080fd5b8335613d4581613c81565b92506020840135613d5581613c81565b929592945050506040919091013590565b60008060408385031215613d7957600080fd5b823591506020830135613d8b81613c81565b809150509250929050565b600080600060608486031215613dab57600080fd5b833592506020840135613d5581613c81565b6020808252825182820181905260009190848201906040850190845b81811015613df557835183529284019291840191600101613dd9565b50909695505050505050565b60008083601f840112613e1357600080fd5b5081356001600160401b03811115613e2a57600080fd5b6020830191508360208260051b8501011115613e4557600080fd5b9250929050565b600080600060408486031215613e6157600080fd5b83356001600160401b03811115613e7757600080fd5b613e8386828701613e01565b9094509250506020840135613cc481613c81565b60028110613eb557634e487b7160e01b600052602160045260246000fd5b9052565b600081518084526020808501945080840160005b83811015613c33578151805165ffffffffffff168852838101518489015260408082015190890152606080820151613f07828b0182613e97565b50506080818101519089015260a0808201519089015260c0808201519089015260e0908101511515908801526101009096019590820190600101613ecd565b604081526000613f596040830185613eb9565b8281036020840152613f6b8185613eb9565b95945050505050565b65ffffffffffff811681146137ce57600080fd5b600080600060608486031215613f9d57600080fd5b83359250602084013591506040840135613cc481613f74565b600080600080600060a08688031215613fce57600080fd5b505083359560208501359550604085013594606081013594506080013592509050565b602080825282518282018190526000919060409081850190868401855b828110156140485781518051855286810151878601528581015186860152606090810151908501526080909301929085019060010161400e565b5091979650505050505050565b60008060006040848603121561406a57600080fd5b83356001600160401b0381111561408057600080fd5b61408c86828701613e01565b909790965060209590950135949350505050565b602081526000612c396020830184613c03565b6000602082840312156140c557600080fd5b8135612c3981613c81565b600080600080608085870312156140e657600080fd5b843593506020850135925060408501359150606085013561410681613c81565b939692955090935050565b6000806020838503121561412457600080fd5b82356001600160401b0381111561413a57600080fd5b610f3385828601613e01565b602080825282518282018190526000919060409081850190868401855b828110156140485781518051855286810151878601528581015186860152606080820151908601526080808201519086015260a0808201519086015260c0808201519086015260e080820151908601526101008082015190860152610120908101511515908501526101409093019290850190600101614163565b60008060008385036101208112156141f557600080fd5b843561420081613c81565b935060e0601f198201121561421457600080fd5b5060208401915061010084013590509250925092565b6000610100828403121561423d57600080fd5b50919050565b6020808252825182820181905260009190848201906040850190845b81811015613df557835160ff168352928401929184019160010161425f565b6020808252601f908201527f5265656e7472616e637947756172643a207265656e7472616e742063616c6c00604082015260600190565b92835260208301919091526001600160a01b0316604082015260600190565b6000602082840312156142e657600080fd5b5051919050565b634e487b7160e01b600052604160045260246000fd5b60405161012081016001600160401b0381118282101715614326576143266142ed565b60405290565b60405161010081016001600160401b0381118282101715614326576143266142ed565b604051608081016001600160401b0381118282101715614326576143266142ed565b60405161014081016001600160401b0381118282101715614326576143266142ed565b604051601f8201601f191681016001600160401b03811182821017156143bc576143bc6142ed565b604052919050565b60006001600160401b038211156143dd576143dd6142ed565b5060051b60200190565b600082601f8301126143f857600080fd5b8151602061440d614408836143c4565b614394565b82815260059290921b8401810191818101908684111561442c57600080fd5b8286015b848110156144475780518352918301918301614430565b509695505050505050565b60008060006060848603121561446757600080fd5b83516001600160401b038082111561447e57600080fd5b61448a878388016143e7565b945060208601519150808211156144a057600080fd5b6144ac878388016143e7565b935060408601519150808211156144c257600080fd5b506144cf868287016143e7565b9150509250925092565b600080604083850312156144ec57600080fd5b505080516020909101519092909150565b868152602081018690526001600160a01b038516604082015260c081016145276060830186613e97565b608082019390935260a00152949350505050565b6000610120828403121561454e57600080fd5b614556614303565b825181526020830151602082015260408301516040820152606083015160608201526080830151608082015260a083015160a082015260c083015160c082015260e083015160e08201526101008084015181830152508091505092915050565b600080600080600080600060e0888a0312156145d157600080fd5b5050855160208701516040880151606089015160808a015160a08b015160c0909b0151949c939b50919990985090965094509092509050565b634e487b7160e01b600052603260045260246000fd5b6000815180845260005b818110156146465760208185018101518683018201520161462a565b81811115614658576000602083870101525b50601f01601f19169290920160200192915050565b82815260406020820152600061221b6040830184614620565b60006020828403121561469857600080fd5b8151612c3981613c81565b634e487b7160e01b600052601160045260246000fd5b60006000198214156146cd576146cd6146a3565b5060010190565b81835260006001600160fb1b038311156146ed57600080fd5b8260051b8083602087013760009401602001938452509192915050565b60408152600061471e6040830185876146d4565b905060018060a01b0383166020830152949350505050565b80516131db81613ccf565b80151581146137ce57600080fd5b80516131db81614741565b600082601f83011261476b57600080fd5b8151602061477b614408836143c4565b82815260089290921b8401810191818101908684111561479a57600080fd5b8286015b848110156144475761010081890312156147b85760008081fd5b6147c061432c565b81516147cb81613f74565b815281850151858201526040808301519082015260606147ec818401614736565b908201526080828101519082015260a0808301519082015260c0808301519082015260e061481b81840161474f565b908201528352918301916101000161479e565b6000806040838503121561484157600080fd5b82516001600160401b038082111561485857600080fd5b6148648683870161475a565b9350602085015191508082111561487a57600080fd5b506148878582860161475a565b9150509250929050565b6020808252818101527f4f776e61626c653a2063616c6c6572206973206e6f7420746865206f776e6572604082015260600190565b600080600080600080600080610100898b0312156148e357600080fd5b885197506020890151965060408901519550606089015194506080890151935060a0890151925060c0890151915060e089015161491f81614741565b809150509295985092959890939650565b6000602080838503121561494357600080fd5b82516001600160401b0381111561495957600080fd5b8301601f8101851361496a57600080fd5b8051614978614408826143c4565b81815260079190911b8201830190838101908783111561499757600080fd5b928401925b828410156149ee57608084890312156149b55760008081fd5b6149bd61434f565b845181528585015186820152604080860151908201526060808601519082015282526080909301929084019061499c565b979650505050505050565b600060808284031215614a0b57600080fd5b614a1361434f565b90508151614a2081613f74565b81526020820151614a3081613c81565b80602083015250604082015160408201526060820151606082015292915050565b6000806101008385031215614a6557600080fd5b614a6f84846149f9565b9150614a7e84608085016149f9565b90509250929050565b8481526020810184905260e08101614aa26040830185613e97565b825165ffffffffffff1660608381019190915260208401516001600160a01b03166080840152604084015160a08401529092015160c0909101529392505050565b60006020808301818452808554614afe818490815260200190565b60008881526020812094509092505b81601f82011015614d8757835460ff8082168552600882901c8116878601526040614b41818701838560101c1660ff169052565b6060614b56818801848660181c1660ff169052565b6080614b6a81890185878d1c1660ff169052565b60a0614b7f818a01868860281c1660ff169052565b60c0614b94818b01878960301c1660ff169052565b60e0614ba9818c01888a60381c1660ff169052565b60ff88871c8816166101008c0152614bcc6101208c01888a60481c1660ff169052565b614be16101408c01888a60501c1660ff169052565b614bf66101608c01888a60581c1660ff169052565b60ff88861c8816166101808c0152614c196101a08c01888a60681c1660ff169052565b614c2e6101c08c01888a60701c1660ff169052565b614c436101e08c01888a60781c1660ff169052565b60ff88851c8816166102008c0152614c666102208c01888a60881c1660ff169052565b614c7b6102408c01888a60901c1660ff169052565b614c906102608c01888a60981c1660ff169052565b60ff88841c8816166102808c0152614cb36102a08c01888a60a81c1660ff169052565b614cc86102c08c01888a60b01c1660ff169052565b614cdd6102e08c01888a60b81c1660ff169052565b60ff88831c8816166103008c0152614d006103208c01888a60c81c1660ff169052565b614d156103408c01888a60d01c1660ff169052565b614d2a6103608c01888a60d81c1660ff169052565b60ff88821c8816166103808c0152505050505050614d536103a08601828460e81c1660ff169052565b614d686103c08601828460f01c1660ff169052565b5060f81c6103e084015260019390930192610400909201918401614b0d565b92549281811015614da05760ff84168352918401916001015b81811015614dba57600884901c60ff168352918401916001015b81811015614dd457601084901c60ff168352918401916001015b81811015614dee57601884901c60ff168352918401916001015b81811015614e065783851c60ff168352918401916001015b81811015614e2057602884901c60ff168352918401916001015b81811015614e3a57603084901c60ff168352918401916001015b81811015614e5457603884901c60ff168352918401916001015b81811015614e6e57604084901c60ff168352918401916001015b81811015614e8857604884901c60ff168352918401916001015b81811015614ea257605084901c60ff168352918401916001015b81811015614ebc57605884901c60ff168352918401916001015b81811015614ed657606084901c60ff168352918401916001015b81811015614ef057606884901c60ff168352918401916001015b81811015614f0a57607084901c60ff168352918401916001015b81811015614f2457607884901c60ff168352918401916001015b81811015614f3e57608084901c60ff168352918401916001015b81811015614f5857608884901c60ff168352918401916001015b81811015614f7257609084901c60ff168352918401916001015b81811015614f8c57609884901c60ff168352918401916001015b81811015614fa65760a084901c60ff168352918401916001015b81811015614fc05760a884901c60ff168352918401916001015b81811015614fda5760b084901c60ff168352918401916001015b81811015614ff45760b884901c60ff168352918401916001015b8181101561500e5760c084901c60ff168352918401916001015b818110156150285760c884901c60ff168352918401916001015b818110156150425760d084901c60ff168352918401916001015b8181101561505c5760d884901c60ff168352918401916001015b818110156150765760e084901c60ff168352918401916001015b818110156150905760e884901c60ff168352918401916001015b818110156150aa5760f084901c60ff168352918401916001015b81811015613df557505060f89190911c8152019392505050565b6000602082840312156150d657600080fd5b81516001600160401b038111156150ec57600080fd5b61221b848285016143e7565b6001600160a01b03958616815293909416602084015260408301919091526060820152608081019190915260a00190565b60208152600061221b6020830184866146d4565b6000602080838503121561515057600080fd5b82516001600160401b0381111561516657600080fd5b8301601f8101851361517757600080fd5b8051615185614408826143c4565b81815261014091820283018401918482019190888411156151a557600080fd5b938501935b8385101561523e5780858a0312156151c25760008081fd5b6151ca614371565b85518152868601518782015260408087015190820152606080870151908201526080808701519082015260a0808701519082015260c0808701519082015260e08087015190820152610100808701519082015261012061522b81880161474f565b90820152835293840193918501916151aa565b50979650505050505050565b60008060008060008060008060006101208a8c03121561526957600080fd5b8951985060208a0151975060408a0151965060608a0151955060808a0151945060a08a0151935060c08a0151925060e08a015191506101008a015190509295985092959850929598565b600080821280156001600160ff1b03849003851316156152d5576152d56146a3565b600160ff1b83900384128116156152ee576152ee6146a3565b50500190565b81358152602080830135908201526101008101604083013561531581613c81565b6001600160a01b03166040830152606083013561533181613ccf565b61533e6060840182613e97565b506080830135608083015260a083013560a083015260c083013560c083015260e083013561536b81614741565b80151560e08401525092915050565b600080600080600080600060e0888a03121561539557600080fd5b875196506020880151955060408801519450606088015193506080880151925060a0880151915060c08801516153ca81614741565b8091505092959891949750929550565b602081526000612c39602083018461462056fe4abde63c3e81aefa5764b017968bc473e83e093d7e1a10247d19e0a3e4124018a26469706673582212200e29fe853964f9ea00ab80c6c0666189363bb931e1f3f3dfe628abd764a2228f64736f6c63430008090033",
  "deployedBytecode": "0x6080604052600436106103815760003560e01c80638181e3d3116101d1578063a4c66bde11610102578063e0997659116100a0578063e99d05381161006f578063e99d053814610b6d578063f2fde38b14610b8d578063f43947c714610bad578063fc70081014610bcd57600080fd5b8063e099765914610af8578063e0a1744314610b0d578063e52a6dac14610b20578063e6977c6a14610b4057600080fd5b8063b3cb8450116100dc578063b3cb845014610a8e578063b8f117cd14610aae578063c11333b114610ac3578063d1cc997614610ae357600080fd5b8063a4c66bde146109f7578063abc6f02514610a17578063b1d0f2f014610a6e57600080fd5b806394e75a3e1161016f5780639a795d9c116101495780639a795d9c146109265780639e0998b2146109535780639f6c3159146109b7578063a02be3dc146109d757600080fd5b806394e75a3e146108d15780639519832b146108e6578063953dbcaa1461090657600080fd5b8063862fd6e5116101ab578063862fd6e51461085c578063886f4b451461087c578063891d59651461089c5780638da5cb5b146108bc57600080fd5b80638181e3d3146107ef578063826b47e81461081c5780638469973f1461083c57600080fd5b8063482f267a116102b6578063715018a6116102545780637b588aaa116102235780637b588aaa1461075d5780637c63039d1461077d57806380a7de861461079d578063812784b0146107cf57600080fd5b8063715018a61461069e57806373429978146106b3578063766cb64e14610710578063798ac0c01461073057600080fd5b80634ebeb049116102905780634ebeb0491461061e57806353571ee71461063e5780635ca65d571461065e57806370c641a61461067e57600080fd5b8063482f267a146105b057806349f2ccbf146105de5780634e78fecc146105fe57600080fd5b806317b72ff4116103235780632af64bd3116102fd5780632af64bd3146105395780632e6c5e671461054e5780632ef5ddaf1461056e5780633d03b9da1461058e57600080fd5b806317b72ff4146104af57806324e4ae05146104cf57806329985e5a1461052457600080fd5b80630594de6e1161035f5780630594de6e14610416578063062ea294146104455780630b60d6d31461047a5780631794bb3c1461048d57600080fd5b806301cf22351461038657806303e5fb59146103bb57806304f3bcec146103e9575b600080fd5b34801561039257600080fd5b506103a66103a1366004613b9c565b610bed565b60405190151581526020015b60405180910390f35b3480156103c757600080fd5b506103db6103d6366004613bbe565b610d0a565b6040519081526020016103b2565b3480156103f557600080fd5b506103fe610da5565b6040516001600160a01b0390911681526020016103b2565b34801561042257600080fd5b50610436610431366004613bd7565b610dc6565b6040516103b293929190613c3e565b34801561045157600080fd5b50610465610460366004613c96565b610ea6565b604080519283526020830191909152016103b2565b6103a6610488366004613cdc565b610f3f565b34801561049957600080fd5b506104ad6104a8366004613d25565b6110cf565b005b3480156104bb57600080fd5b506103db6104ca366004613d66565b61125d565b3480156104db57600080fd5b506104ef6104ea366004613d96565b6112f3565b604080519788526020880196909652948601939093526060850191909152608084015260a083015260c082015260e0016103b2565b34801561053057600080fd5b506104ad611470565b34801561054557600080fd5b506103a661161d565b34801561055a57600080fd5b506103a6610569366004613bbe565b611783565b34801561057a57600080fd5b506103a6610589366004613cdc565b6117a3565b34801561059a57600080fd5b506105a361187c565b6040516103b29190613dbd565b3480156105bc57600080fd5b506105d06105cb366004613e4c565b61199e565b6040516103b2929190613f46565b3480156105ea57600080fd5b506103a66105f9366004613f88565b611a30565b34801561060a57600080fd5b506103db610619366004613bbe565b611b91565b34801561062a57600080fd5b506104ad610639366004613bd7565b611bee565b34801561064a57600080fd5b506104ad610659366004613bbe565b611cb9565b34801561066a57600080fd5b506104ad610679366004613b9c565b611e72565b34801561068a57600080fd5b506103db610699366004613d66565b611f1d565b3480156106aa57600080fd5b506104ad611fb7565b3480156106bf57600080fd5b506106d36106ce366004613b9c565b611ff2565b604080519889526020890197909752958701949094526060860192909252608085015260a084015260c0830152151560e0820152610100016103b2565b34801561071c57600080fd5b506104ad61072b366004613fb6565b6120ae565b34801561073c57600080fd5b5061075061074b366004613e4c565b612189565b6040516103b29190613ff1565b34801561076957600080fd5b506104ad610778366004613b9c565b612223565b34801561078957600080fd5b506103a6610798366004614055565b61229c565b3480156107a957600080fd5b506107bd6107b8366004613b9c565b6124b2565b60405160ff90911681526020016103b2565b3480156107db57600080fd5b506103fe6107ea366004613bbe565b6124de565b3480156107fb57600080fd5b5061080f61080a366004613bbe565b612505565b6040516103b291906140a0565b34801561082857600080fd5b506103a66108373660046140b3565b6125bc565b34801561084857600080fd5b506103a66108573660046140d0565b61265f565b34801561086857600080fd5b506103a66108773660046140b3565b612895565b34801561088857600080fd5b506103a6610897366004613b9c565b6128d5565b3480156108a857600080fd5b506103db6108b7366004613bbe565b6129a8565b3480156108c857600080fd5b506103fe6129c6565b3480156108dd57600080fd5b506103a66129ee565b3480156108f257600080fd5b506103db610901366004613d66565b612aab565b34801561091257600080fd5b50610436610921366004613bd7565b612b73565b34801561093257600080fd5b50610946610941366004614111565b612ba9565b6040516103b29190614146565b34801561095f57600080fd5b5061097361096e3660046141de565b612c40565b60408051998a5260208a0198909852968801959095526060870193909352608086019190915260a085015260c084015260e0830152610100820152610120016103b2565b3480156109c357600080fd5b506103fe6109d2366004613bbe565b612d4c565b3480156109e357600080fd5b5061080f6109f2366004613bbe565b612d73565b348015610a0357600080fd5b506103db610a123660046140b3565b612da6565b348015610a2357600080fd5b50610a37610a3236600461422a565b612f31565b604080519788526020880196909652948601939093526060850191909152608084015260a0830152151560c082015260e0016103b2565b348015610a7a57600080fd5b506103a6610a89366004613b9c565b612fda565b348015610a9a57600080fd5b506103a6610aa9366004613bbe565b61311b565b348015610aba57600080fd5b506104ad6131e0565b348015610acf57600080fd5b506103a6610ade3660046140d0565b61328d565b348015610aef57600080fd5b506103a6613439565b348015610b0457600080fd5b506105a361344e565b6103a6610b1b366004613cdc565b613491565b348015610b2c57600080fd5b5061080f610b3b366004613bbe565b6135dd565b348015610b4c57600080fd5b50610b60610b5b366004613bbe565b613610565b6040516103b29190614243565b348015610b7957600080fd5b506103a6610b88366004613bbe565b6136a2565b348015610b9957600080fd5b506104ad610ba83660046140b3565b613731565b348015610bb957600080fd5b506103a6610bc8366004613cdc565b6137d1565b348015610bd957600080fd5b506105a3610be83660046140b3565b6138aa565b600060026000541415610c1b5760405162461bcd60e51b8152600401610c129061427e565b60405180910390fd5b60026000558282610c2a6138d8565b60008381526007919091016020908152604080832084845290915290205460ff16610c68576040516318f4d05960e31b815260040160405180910390fd5b610c70613439565b15610c8e57604051632aaa685560e11b815260040160405180910390fd5b604051632097fb8960e01b815273__$bfa1fc126f9f960b1bd3bae8c14d9c594e$__90632097fb8990610cc9908890889033906004016142b5565b60006040518083038186803b158015610ce157600080fd5b505af4158015610cf5573d6000803e3d6000fd5b50505050600192505050600160005592915050565b6000610d146138d8565b6000838152600591909101602090815260409182902054825163128e5b8560e01b815292516001600160a01b039091169263128e5b85926004808301939192829003018186803b158015610d6757600080fd5b505afa158015610d7b573d6000803e3d6000fd5b505050506040513d601f19601f82011682018060405250810190610d9f91906142d4565b92915050565b60006000805160206153ee8339815191525b546001600160a01b0316919050565b6060806060610dd36138d8565b600087815260059190910160205260409020546001600160a01b031663f8044e6c610dfc6138d8565b6000898152600791909101602090815260408083208a84529091529081902054905160e083901b6001600160e01b031916815260ff90911660048201526024810187905260440160006040518083038186803b158015610e5b57600080fd5b505afa158015610e6f573d6000803e3d6000fd5b505050506040513d6000823e601f3d908101601f19168201604052610e979190810190614452565b92509250925093509350939050565b60008073__$e7d72ce98f1dce1f33c815a57604cff5ab$__63062ea2948686866040518463ffffffff1660e01b8152600401610ee4939291906142b5565b604080518083038186803b158015610efb57600080fd5b505af4158015610f0f573d6000803e3d6000fd5b505050506040513d601f19601f82011682018060405250810190610f3391906144d9565b90969095509350505050565b600060026000541415610f645760405162461bcd60e51b8152600401610c129061427e565b60026000558585610f736138d8565b60008381526007919091016020908152604080832084845290915290205460ff16610fb1576040516318f4d05960e31b815260040160405180910390fd5b610fb9613439565b15610fd757604051632aaa685560e11b815260040160405180910390fd5b610fdf6138fc565b6040516396994e3760e01b8152336004820152602481018a9052604481018790526001600160a01b0391909116906396994e379034906064016000604051808303818588803b15801561103157600080fd5b505af1158015611045573d6000803e3d6000fd5b505060405163606c3acd60e01b815273__$bfa1fc126f9f960b1bd3bae8c14d9c594e$__935063606c3acd925061108b91508b908b9033908c908c908c906004016144fd565b60006040518083038186803b1580156110a357600080fd5b505af41580156110b7573d6000803e3d6000fd5b50505050600192505050600160005595945050505050565b600154610100900460ff16158080156110ec57506001805460ff16105b806111055750303b15801561110557506001805460ff16145b6111685760405162461bcd60e51b815260206004820152602e60248201527f496e697469616c697a61626c653a20636f6e747261637420697320616c72656160448201526d191e481a5b9a5d1a585b1a5e995960921b6064820152608401610c12565b6001805460ff191681179055801561118a576001805461ff0019166101001790555b600061119461390b565b6001600160a01b031614156111f65760405162461bcd60e51b815260206004820152602260248201527f4d7573742062652063616c6c65642066726f6d2070726f787920636f6e74726160448201526118dd60f21b6064820152608401610c12565b816111ff6138d8565b55611209846137c5565b61121283613933565b8015611257576001805461ff00191681556040519081527f7f26b83ff96e1f2b6a682f133852f6798a09c465da95921460cefb38474024989060200160405180910390a15b50505050565b6040516295a47160e71b815260009073__$e7d72ce98f1dce1f33c815a57604cff5ab$__90634ad238809061129a908690859087906004016142b5565b6101206040518083038186803b1580156112b357600080fd5b505af41580156112c7573d6000803e3d6000fd5b505050506040513d601f19601f820116820180604052508101906112eb919061453b565b519392505050565b600080600080600080600061132c8a61130a6138d8565b6001600160a01b038c1660009081526009919091016020526040902090613999565b15611463576113746040518060e00160405280600080191681526020016000815260200160008152602001600081526020016000815260200160008152602001600081525090565b60408051639349fb4160e01b8152600481018d90526001600160a01b038c1660248201528251604482015260208301516064820152908201516084820152606082015160a4820152608082015160c482015260a082015160e482015260c082015161010482015261012481018a905273__$e7d72ce98f1dce1f33c815a57604cff5ab$__90639349fb41906101440160e06040518083038186803b15801561141b57600080fd5b505af415801561142f573d6000803e3d6000fd5b505050506040513d601f19601f8201168201806040525081019061145391906145b6565b9750975097509750975097509750505b9397509397509397909450565b600061147a61187c565b905060005b815181101561161957600082828151811061149c5761149c61460a565b6020026020010151905060006114bd6000805160206153ee83398151915290565b54604080517f5265736f6c766572206d697373696e67207461726765743a200000000000000060208201526039808201869052825180830390910181526059820192839052636795dbcd60e01b9092526001600160a01b0390921691636795dbcd9161152e91869190605d0161466d565b60206040518083038186803b15801561154657600080fd5b505afa15801561155a573d6000803e3d6000fd5b505050506040513d601f19601f8201168201806040525081019061157e9190614686565b60008381527f4abde63c3e81aefa5764b017968bc473e83e093d7e1a10247d19e0a3e4124019602090815260409182902080546001600160a01b0319166001600160a01b03851690811790915582518681529182015281519293507f88a93678a3692f6789d9546fc621bf7234b101ddb7d4fe479455112831b8aa68929081900390910190a150508080611611906146b9565b91505061147f565b5050565b60008061162861187c565b905060005b815181101561177a57600082828151811061164a5761164a61460a565b602002602001015190506116696000805160206153ee83398151915290565b600082815260019190910160205260409020546001600160a01b03166000805160206153ee833981519152546040516321f8a72160e01b8152600481018490526001600160a01b03909116906321f8a7219060240160206040518083038186803b1580156116d657600080fd5b505afa1580156116ea573d6000803e3d6000fd5b505050506040513d601f19601f8201168201806040525081019061170e9190614686565b6001600160a01b0316141580611758575060008181527f4abde63c3e81aefa5764b017968bc473e83e093d7e1a10247d19e0a3e412401960205260409020546001600160a01b0316155b15611767576000935050505090565b5080611772816146b9565b91505061162d565b50600191505090565b600061178d6138d8565b6000928352600801602052506040902054151590565b6000600260005414156117c85760405162461bcd60e51b8152600401610c129061427e565b600260005585856117d76138d8565b60008381526007919091016020908152604080832084845290915290205460ff16611815576040516318f4d05960e31b815260040160405180910390fd5b61181d613439565b1561183b57604051632aaa685560e11b815260040160405180910390fd5b60405163aeb2d5bd60e01b815273__$bfa1fc126f9f960b1bd3bae8c14d9c594e$__9063aeb2d5bd9061108b908b908b9033908c908c908c906004016144fd565b60408051600580825260c082019092526060916020820160a080368337019050509050742132b0b1b7b7283937bc3ca1b7b73a3937b63632b960591b816000815181106118cb576118cb61460a565b6020026020010181815250507121bab93932b731bca1b7b73a3937b63632b960711b816001815181106119005761190061460a565b6020026020010181815250507011d95b995cda5cd5985b1d5955985d5b1d607a1b816002815181106119345761193461460a565b6020026020010181815250506a14995cd95c9d99519d5b9960aa1b816003815181106119625761196261460a565b60200260200101818152505069151bdad95b95985d5b1d60b21b8160048151811061198f5761198f61460a565b60200260200101818152505090565b60608073__$bfa1fc126f9f960b1bd3bae8c14d9c594e$__63482f267a8686866040518463ffffffff1660e01b81526004016119dc9392919061470a565b60006040518083038186803b1580156119f457600080fd5b505af4158015611a08573d6000803e3d6000fd5b505050506040513d6000823e601f3d908101601f19168201604052610f33919081019061482e565b600060026000541415611a555760405162461bcd60e51b8152600401610c129061427e565b60026000558383611a646138d8565b60008381526007919091016020908152604080832084845290915290205460ff16611aa2576040516318f4d05960e31b815260040160405180910390fd5b611aaa613439565b15611ac857604051632aaa685560e11b815260040160405180910390fd5b611ad06138d8565b600087815260059190910160205260409020546001600160a01b031663f3f7f452611af96138d8565b6000898152600791909101602090815260408083208a84529091529081902054905160e083901b6001600160e01b031916815260ff909116600482015233602482015265ffffffffffff87166044820152606401600060405180830381600087803b158015611b6757600080fd5b505af1158015611b7b573d6000803e3d6000fd5b5050505060019250505060016000559392505050565b6000611b9b6138d8565b60008381526005919091016020908152604091829020548251631e25031760e01b815292516001600160a01b0390911692631e250317926004808301939192829003018186803b158015610d6757600080fd5b611bf6613439565b15611c1457604051632aaa685560e11b815260040160405180910390fd5b33611c1d6129c6565b6001600160a01b031614611c435760405162461bcd60e51b8152600401610c1290614891565b604051634ebeb04960e01b815260048101849052602481018390526044810182905273__$53b43b4bdeb2460d1113627ef627de0cf6$__90634ebeb0499060640160006040518083038186803b158015611c9c57600080fd5b505af4158015611cb0573d6000803e3d6000fd5b50505050505050565b60026000541415611cdc5760405162461bcd60e51b8152600401610c129061427e565b6002600055611ce9613439565b15611d0757604051632aaa685560e11b815260040160405180910390fd5b6040516353571ee760e01b81526004810182905260009073__$53b43b4bdeb2460d1113627ef627de0cf6$__906353571ee79060240160206040518083038186803b158015611d5557600080fd5b505af4158015611d69573d6000803e3d6000fd5b505050506040513d601f19601f82011682018060405250810190611d8d91906142d4565b905073__$e7d72ce98f1dce1f33c815a57604cff5ab$__63ad8cc5e083611db26138d8565b60008681526007919091016020908152604080832087845290915290205460ff1684611ddc6139b1565b6040516001600160e01b031960e087901b168152600481019490945260ff909216602484015260448301526001600160a01b0316606482015260840160206040518083038186803b158015611e3057600080fd5b505af4158015611e44573d6000803e3d6000fd5b505050506040513d601f19601f82011682018060405250810190611e6891906142d4565b5050600160005550565b33611e7b6129c6565b6001600160a01b031614611ea15760405162461bcd60e51b8152600401610c1290614891565b611ea96138d8565b6000838152600591909101602052604090819020549051636aa65aaf60e01b8152600481018390526001600160a01b0390911690636aa65aaf906024015b600060405180830381600087803b158015611f0157600080fd5b505af1158015611f15573d6000803e3d6000fd5b505050505050565b6040516295a47160e71b815260009073__$e7d72ce98f1dce1f33c815a57604cff5ab$__90634ad2388090611f5a908690859087906004016142b5565b6101206040518083038186803b158015611f7357600080fd5b505af4158015611f87573d6000803e3d6000fd5b505050506040513d601f19601f82011682018060405250810190611fab919061453b565b61010001519392505050565b33611fc06129c6565b6001600160a01b031614611fe65760405162461bcd60e51b8152600401610c1290614891565b611ff060006139bb565b565b60008060008060008060008073__$53b43b4bdeb2460d1113627ef627de0cf6$__63734299788b8b6040518363ffffffff1660e01b8152600401612040929190918252602082015260400190565b6101006040518083038186803b15801561205957600080fd5b505af415801561206d573d6000803e3d6000fd5b505050506040513d601f19601f8201168201806040525081019061209191906148c6565b975097509750975097509750975097509295985092959890939650565b336120b76129c6565b6001600160a01b0316146120dd5760405162461bcd60e51b8152600401610c1290614891565b6120e685611783565b156121035760405162dc149f60e41b815260040160405180910390fd5b604051633b365b2760e11b8152600481018690526024810185905260448101849052606481018390526084810182905273__$53b43b4bdeb2460d1113627ef627de0cf6$__9063766cb64e9060a40160006040518083038186803b15801561216a57600080fd5b505af415801561217e573d6000803e3d6000fd5b505050505050505050565b6040516301e62b0360e61b815260609073__$e7d72ce98f1dce1f33c815a57604cff5ab$__9063798ac0c0906121c79087908790879060040161470a565b60006040518083038186803b1580156121df57600080fd5b505af41580156121f3573d6000803e3d6000fd5b505050506040513d6000823e601f3d908101601f1916820160405261221b9190810190614930565b949350505050565b3361222c6129c6565b6001600160a01b0316146122525760405162461bcd60e51b8152600401610c1290614891565b61225a6138d8565b6000838152600591909101602052604090819020549051636c5d6df160e01b8152600481018390526001600160a01b0390911690636c5d6df190602401611ee7565b6000600260005414156122c15760405162461bcd60e51b8152600401610c129061427e565b60026000556122ce613439565b156122ec57604051632aaa685560e11b815260040160405180910390fd5b60005b838110156124a157600085858381811061230b5761230b61460a565b90506020020135905060008073__$53b43b4bdeb2460d1113627ef627de0cf6$__636a23a95c84886040518363ffffffff1660e01b8152600401612359929190918252602082015260400190565b6101006040518083038186803b15801561237257600080fd5b505af4158015612386573d6000803e3d6000fd5b505050506040513d601f19601f820116820180604052508101906123aa9190614a51565b6040516305ed050d60e51b8152919350915073__$bfa1fc126f9f960b1bd3bae8c14d9c594e$__9063bda0a1a0906123ed9086908a906000908890600401614a87565b60006040518083038186803b15801561240557600080fd5b505af4158015612419573d6000803e3d6000fd5b50506040516305ed050d60e51b815273__$bfa1fc126f9f960b1bd3bae8c14d9c594e$__925063bda0a1a0915061245b9086908a906001908790600401614a87565b60006040518083038186803b15801561247357600080fd5b505af4158015612487573d6000803e3d6000fd5b505050505050508080612499906146b9565b9150506122ef565b506001905060016000559392505050565b60006124bc6138d8565b6000938452600701602090815260408085209385529290525090205460ff1690565b60006124e86138d8565b60009283526006016020525060409020546001600160a01b031690565b606061250f6138d8565b600083815260059190910160205260409020546001600160a01b031663cd4586626125386138d8565b6000858152600491820160205260409081902090516001600160e01b031960e085901b1681526125689201614ae3565b60006040518083038186803b15801561258057600080fd5b505afa158015612594573d6000803e3d6000fd5b505050506040513d6000823e601f3d908101601f19168201604052610d9f91908101906150c4565b6000600260005414156125e15760405162461bcd60e51b8152600401610c129061427e565b600260005560405163104d68fd60e31b81526001600160a01b038316600482015273__$e7d72ce98f1dce1f33c815a57604cff5ab$__9063826b47e89060240160006040518083038186803b15801561263957600080fd5b505af415801561264d573d6000803e3d6000fd5b50505050600190506001600055919050565b60003330146127ab576001546201000090046001600160a01b031615612698576040516337affdbf60e11b815260040160405180910390fd5b6001805462010000600160b01b03191633620100000217905583836126bb6138d8565b60008381526007919091016020908152604080832084845290915290205460ff166126f9576040516318f4d05960e31b815260040160405180910390fd5b612701613439565b1561271f57604051632aaa685560e11b815260040160405180910390fd5b604051633099b3fd60e21b815273__$ddd42798825952179f0fb056787c1ba3b9$__9063c266cff49061275e90339088908c908c908c906004016150f8565b60006040518083038186803b15801561277657600080fd5b505af415801561278a573d6000803e3d6000fd5b505050506001925050506001805462010000600160b01b031916905561221b565b83836127b56138d8565b60008381526007919091016020908152604080832084845290915290205460ff166127f3576040516318f4d05960e31b815260040160405180910390fd5b6127fb613439565b1561281957604051632aaa685560e11b815260040160405180910390fd5b604051633099b3fd60e21b815273__$ddd42798825952179f0fb056787c1ba3b9$__9063c266cff49061285890339088908c908c908c906004016150f8565b60006040518083038186803b15801561287057600080fd5b505af4158015612884573d6000803e3d6000fd5b5060019a9950505050505050505050565b600061289f613439565b8015610d9f57506128ae6138d8565b6001600160a01b0383166000908152600d91909101602052604090205460ff161592915050565b6000600260005414156128fa5760405162461bcd60e51b8152600401610c129061427e565b600260005582826129096138d8565b60008381526007919091016020908152604080832084845290915290205460ff16612947576040516318f4d05960e31b815260040160405180910390fd5b61294f613439565b1561296d57604051632aaa685560e11b815260040160405180910390fd5b6040516332b3123760e11b815273__$e7d72ce98f1dce1f33c815a57604cff5ab$__90636566246e90610cc9908890889033906004016142b5565b60006129b26138d8565b600092835260080160205250604090205490565b60007f9acda75aebd150dd434541a4747a6dc606f4f1a59662477e67daf1fc0bf9e0aa610db7565b600060026000541415612a135760405162461bcd60e51b8152600401610c129061427e565b6002600055612a20613439565b612a3d576040516304d824a560e41b815260040160405180910390fd5b604051635dd3a2c160e01b815233600482015273__$e7d72ce98f1dce1f33c815a57604cff5ab$__90635dd3a2c19060240160006040518083038186803b158015612a8757600080fd5b505af4158015612a9b573d6000803e3d6000fd5b5050505060019050600160005590565b600060026000541415612ad05760405162461bcd60e51b8152600401610c129061427e565b6002600055604051639519832b60e01b8152600481018490526001600160a01b038316602482015273__$e7d72ce98f1dce1f33c815a57604cff5ab$__90639519832b9060440160206040518083038186803b158015612b2f57600080fd5b505af4158015612b43573d6000803e3d6000fd5b505050506040513d601f19601f82011682018060405250810190612b6791906142d4565b60016000559392505050565b6060806060612b806138d8565b600087815260059190910160205260409020546001600160a01b031663932c9385610dfc6138d8565b60405163269e576760e21b815260609073__$53b43b4bdeb2460d1113627ef627de0cf6$__90639a795d9c90612be59086908690600401615129565b60006040518083038186803b158015612bfd57600080fd5b505af4158015612c11573d6000803e3d6000fd5b505050506040513d6000823e601f3d908101601f19168201604052612c39919081019061513d565b9392505050565b604080516345f1848f60e11b81526001600160a01b0385166004820152833560248201526020840135604482015290830135606482015260608301356084820152608083013560a482015260a083013560c482015260c083013560e482015261010481018290526000908190819081908190819081908190819073__$e7d72ce98f1dce1f33c815a57604cff5ab$__90638be3091e90610124016101206040518083038186803b158015612cf357600080fd5b505af4158015612d07573d6000803e3d6000fd5b505050506040513d601f19601f82011682018060405250810190612d2b919061524a565b98509850985098509850985098509850985093979b92969a50939750939750565b6000612d566138d8565b60009283526005016020525060409020546001600160a01b031690565b6060612d7d6138d8565b600083815260059190910160205260409020546001600160a01b03166338b058526125386138d8565b600080612db16138d8565b6001600160a01b03841660009081526009919091016020526040812091505b612dd982613a2c565b811015612f2a576000612dec8383613a36565b9050600073__$e7d72ce98f1dce1f33c815a57604cff5ab$__634ad23880836000896040518463ffffffff1660e01b8152600401612e2c939291906142b5565b6101206040518083038186803b158015612e4557600080fd5b505af4158015612e59573d6000803e3d6000fd5b505050506040513d601f19601f82011682018060405250810190612e7d919061453b565b519050612e88613a42565b604051633c7f634960e11b815260048101849052602481018390526001600160a01b0391909116906378fec6929060440160206040518083038186803b158015612ed157600080fd5b505afa158015612ee5573d6000803e3d6000fd5b505050506040513d601f19601f82011682018060405250810190612f0991906142d4565b612f1390866152b3565b945050508080612f22906146b9565b915050612dd0565b5050919050565b600080600080600080600073__$bfa1fc126f9f960b1bd3bae8c14d9c594e$__63724160ad896040518263ffffffff1660e01b8152600401612f7391906152f4565b60e06040518083038186803b158015612f8b57600080fd5b505af4158015612f9f573d6000803e3d6000fd5b505050506040513d601f19601f82011682018060405250810190612fc3919061537a565b959e949d50929b5090995097509550909350915050565b600060026000541415612fff5760405162461bcd60e51b8152600401610c129061427e565b6002600055828261300e6138d8565b60008381526007919091016020908152604080832084845290915290205460ff1661304c576040516318f4d05960e31b815260040160405180910390fd5b613054613439565b1561307257604051632aaa685560e11b815260040160405180910390fd5b6040516301402dfb60e31b815260048101869052602481018590523360448201526000606482015273__$e7d72ce98f1dce1f33c815a57604cff5ab$__90630a016fd89060840160206040518083038186803b1580156130d157600080fd5b505af41580156130e5573d6000803e3d6000fd5b505050506040513d601f19601f8201168201806040525081019061310991906142d4565b50600192505050600160005592915050565b6000613125613439565b1561314357604051632aaa685560e11b815260040160405180910390fd5b3361314c6129c6565b6001600160a01b0316146131725760405162461bcd60e51b8152600401610c1290614891565b604051630b3cb84560e41b81526004810183905273__$53b43b4bdeb2460d1113627ef627de0cf6$__9063b3cb8450906024015b60006040518083038186803b1580156131be57600080fd5b505af41580156131d2573d6000803e3d6000fd5b50505050600190505b919050565b6131e8613439565b1561320657604051632aaa685560e11b815260040160405180910390fd5b3361320f6129c6565b6001600160a01b0316146132355760405162461bcd60e51b8152600401610c1290614891565b73__$53b43b4bdeb2460d1113627ef627de0cf6$__63b8f117cd6040518163ffffffff1660e01b815260040160006040518083038186803b15801561327957600080fd5b505af4158015611257573d6000803e3d6000fd5b600033301461338c576001546201000090046001600160a01b0316156132c6576040516337affdbf60e11b815260040160405180910390fd5b6001805462010000600160b01b03191633620100000217905583836132e96138d8565b60008381526007919091016020908152604080832084845290915290205460ff16613327576040516318f4d05960e31b815260040160405180910390fd5b61332f613439565b1561334d57604051632aaa685560e11b815260040160405180910390fd5b604051635436151f60e11b815273__$ddd42798825952179f0fb056787c1ba3b9$__9063a86c2a3e9061275e90339088908c908c908c906004016150f8565b83836133966138d8565b60008381526007919091016020908152604080832084845290915290205460ff166133d4576040516318f4d05960e31b815260040160405180910390fd5b6133dc613439565b156133fa57604051632aaa685560e11b815260040160405180910390fd5b604051635436151f60e11b815273__$ddd42798825952179f0fb056787c1ba3b9$__9063a86c2a3e9061285890339088908c908c908c906004016150f8565b6000806134446138d8565b6001015411905090565b6040805160018082528183019092526060916020808301908036833701905050905069151bdad95b95985d5b1d60b21b8160008151811061198f5761198f61460a565b6000600260005414156134b65760405162461bcd60e51b8152600401610c129061427e565b600260005585856134c56138d8565b60008381526007919091016020908152604080832084845290915290205460ff16613503576040516318f4d05960e31b815260040160405180910390fd5b61350b613439565b1561352957604051632aaa685560e11b815260040160405180910390fd5b6135316138fc565b6040516396994e3760e01b8152336004820152602481018a9052604481018790526001600160a01b0391909116906396994e379034906064016000604051808303818588803b15801561358357600080fd5b505af1158015613597573d6000803e3d6000fd5b505060405163aeb2d5bd60e01b815273__$bfa1fc126f9f960b1bd3bae8c14d9c594e$__935063aeb2d5bd925061108b91508b908b9033908c908c908c906004016144fd565b60606135e76138d8565b600083815260059190910160205260409020546001600160a01b031663576737176125386138d8565b606061361a6138d8565b600401600083815260200190815260200160002080548060200260200160405190810160405280929190818152602001828054801561369657602002820191906000526020600020906000905b825461010083900a900460ff168152602060019283018181049485019490930390920291018084116136675790505b50505050509050919050565b60006136ac613439565b156136ca57604051632aaa685560e11b815260040160405180910390fd5b336136d36129c6565b6001600160a01b0316146136f95760405162461bcd60e51b8152600401610c1290614891565b604051631d33a0a760e31b81526004810183905273__$53b43b4bdeb2460d1113627ef627de0cf6$__9063e99d0538906024016131a6565b3361373a6129c6565b6001600160a01b0316146137605760405162461bcd60e51b8152600401610c1290614891565b6001600160a01b0381166137c55760405162461bcd60e51b815260206004820152602660248201527f4f776e61626c653a206e6577206f776e657220697320746865207a65726f206160448201526564647265737360d01b6064820152608401610c12565b6137ce816139bb565b50565b6000600260005414156137f65760405162461bcd60e51b8152600401610c129061427e565b600260005585856138056138d8565b60008381526007919091016020908152604080832084845290915290205460ff16613843576040516318f4d05960e31b815260040160405180910390fd5b61384b613439565b1561386957604051632aaa685560e11b815260040160405180910390fd5b60405163606c3acd60e01b815273__$bfa1fc126f9f960b1bd3bae8c14d9c594e$__9063606c3acd9061108b908b908b9033908c908c908c906004016144fd565b6060610d9f6138b76138d8565b6001600160a01b038416600090815260099190910160205260409020613a4c565b7f8041b8421ebd495cc61f38c788c9eb100daccf9bd36aa0bb920b7a15b2e0496590565b6000613906613a57565b905090565b60007f360894a13ba1a3210667c828492db98dca3e2076cc3735a920a3ca505d382bbc610db7565b6000805160206153ee833981519152546001600160a01b03161561396a576040516304b79d6360e51b815260040160405180910390fd5b6000805160206153ee83398151915280546001600160a01b0319166001600160a01b0392909216919091179055565b60008181526001830160205260408120541515612c39565b6000613906613a6f565b7f9acda75aebd150dd434541a4747a6dc606f4f1a59662477e67daf1fc0bf9e0aa80546001600160a01b038381166001600160a01b0319831681179093556040519116919082907f8be0079c531659141344cd1fd0a4f28419497f9722a3daafe3b4186f6b6457e090600090a35050565b6000610d9f825490565b6000612c398383613a88565b6000613906613ab2565b6060610d9f82613ad2565b600061390669151bdad95b95985d5b1d60b21b613b2d565b60006139066a14995cd95c9d99519d5b9960aa1b613b2d565b6000826000018281548110613a9f57613a9f61460a565b9060005260206000200154905092915050565b60006139067121bab93932b731bca1b7b73a3937b63632b960711b613b2d565b60608160000180548060200260200160405190810160405280929190818152602001828054801561369657602002820191906000526020600020905b815481526020019060010190808311613b0e5750505050509050919050565b60008181527f4abde63c3e81aefa5764b017968bc473e83e093d7e1a10247d19e0a3e412401960205260408120546001600160a01b031680610d9f5760408051602081018590520160408051601f19818403018152908290526346e2ec9360e01b8252610c12916004016153da565b60008060408385031215613baf57600080fd5b50508035926020909101359150565b600060208284031215613bd057600080fd5b5035919050565b600080600060608486031215613bec57600080fd5b505081359360208301359350604090920135919050565b600081518084526020808501945080840160005b83811015613c3357815187529582019590820190600101613c17565b509495945050505050565b606081526000613c516060830186613c03565b8281036020840152613c638186613c03565b90508281036040840152613c778185613c03565b9695505050505050565b6001600160a01b03811681146137ce57600080fd5b600080600060608486031215613cab57600080fd5b83359250602084013591506040840135613cc481613c81565b809150509250925092565b600281106137ce57600080fd5b600080600080600060a08688031215613cf457600080fd5b85359450602086013593506040860135613d0d81613ccf565b94979396509394606081013594506080013592915050565b600080600060608486031215613d3a57600080fd5b8335613d4581613c81565b92506020840135613d5581613c81565b929592945050506040919091013590565b60008060408385031215613d7957600080fd5b823591506020830135613d8b81613c81565b809150509250929050565b600080600060608486031215613dab57600080fd5b833592506020840135613d5581613c81565b6020808252825182820181905260009190848201906040850190845b81811015613df557835183529284019291840191600101613dd9565b50909695505050505050565b60008083601f840112613e1357600080fd5b5081356001600160401b03811115613e2a57600080fd5b6020830191508360208260051b8501011115613e4557600080fd5b9250929050565b600080600060408486031215613e6157600080fd5b83356001600160401b03811115613e7757600080fd5b613e8386828701613e01565b9094509250506020840135613cc481613c81565b60028110613eb557634e487b7160e01b600052602160045260246000fd5b9052565b600081518084526020808501945080840160005b83811015613c33578151805165ffffffffffff168852838101518489015260408082015190890152606080820151613f07828b0182613e97565b50506080818101519089015260a0808201519089015260c0808201519089015260e0908101511515908801526101009096019590820190600101613ecd565b604081526000613f596040830185613eb9565b8281036020840152613f6b8185613eb9565b95945050505050565b65ffffffffffff811681146137ce57600080fd5b600080600060608486031215613f9d57600080fd5b83359250602084013591506040840135613cc481613f74565b600080600080600060a08688031215613fce57600080fd5b505083359560208501359550604085013594606081013594506080013592509050565b602080825282518282018190526000919060409081850190868401855b828110156140485781518051855286810151878601528581015186860152606090810151908501526080909301929085019060010161400e565b5091979650505050505050565b60008060006040848603121561406a57600080fd5b83356001600160401b0381111561408057600080fd5b61408c86828701613e01565b909790965060209590950135949350505050565b602081526000612c396020830184613c03565b6000602082840312156140c557600080fd5b8135612c3981613c81565b600080600080608085870312156140e657600080fd5b843593506020850135925060408501359150606085013561410681613c81565b939692955090935050565b6000806020838503121561412457600080fd5b82356001600160401b0381111561413a57600080fd5b610f3385828601613e01565b602080825282518282018190526000919060409081850190868401855b828110156140485781518051855286810151878601528581015186860152606080820151908601526080808201519086015260a0808201519086015260c0808201519086015260e080820151908601526101008082015190860152610120908101511515908501526101409093019290850190600101614163565b60008060008385036101208112156141f557600080fd5b843561420081613c81565b935060e0601f198201121561421457600080fd5b5060208401915061010084013590509250925092565b6000610100828403121561423d57600080fd5b50919050565b6020808252825182820181905260009190848201906040850190845b81811015613df557835160ff168352928401929184019160010161425f565b6020808252601f908201527f5265656e7472616e637947756172643a207265656e7472616e742063616c6c00604082015260600190565b92835260208301919091526001600160a01b0316604082015260600190565b6000602082840312156142e657600080fd5b5051919050565b634e487b7160e01b600052604160045260246000fd5b60405161012081016001600160401b0381118282101715614326576143266142ed565b60405290565b60405161010081016001600160401b0381118282101715614326576143266142ed565b604051608081016001600160401b0381118282101715614326576143266142ed565b60405161014081016001600160401b0381118282101715614326576143266142ed565b604051601f8201601f191681016001600160401b03811182821017156143bc576143bc6142ed565b604052919050565b60006001600160401b038211156143dd576143dd6142ed565b5060051b60200190565b600082601f8301126143f857600080fd5b8151602061440d614408836143c4565b614394565b82815260059290921b8401810191818101908684111561442c57600080fd5b8286015b848110156144475780518352918301918301614430565b509695505050505050565b60008060006060848603121561446757600080fd5b83516001600160401b038082111561447e57600080fd5b61448a878388016143e7565b945060208601519150808211156144a057600080fd5b6144ac878388016143e7565b935060408601519150808211156144c257600080fd5b506144cf868287016143e7565b9150509250925092565b600080604083850312156144ec57600080fd5b505080516020909101519092909150565b868152602081018690526001600160a01b038516604082015260c081016145276060830186613e97565b608082019390935260a00152949350505050565b6000610120828403121561454e57600080fd5b614556614303565b825181526020830151602082015260408301516040820152606083015160608201526080830151608082015260a083015160a082015260c083015160c082015260e083015160e08201526101008084015181830152508091505092915050565b600080600080600080600060e0888a0312156145d157600080fd5b5050855160208701516040880151606089015160808a015160a08b015160c0909b0151949c939b50919990985090965094509092509050565b634e487b7160e01b600052603260045260246000fd5b6000815180845260005b818110156146465760208185018101518683018201520161462a565b81811115614658576000602083870101525b50601f01601f19169290920160200192915050565b82815260406020820152600061221b6040830184614620565b60006020828403121561469857600080fd5b8151612c3981613c81565b634e487b7160e01b600052601160045260246000fd5b60006000198214156146cd576146cd6146a3565b5060010190565b81835260006001600160fb1b038311156146ed57600080fd5b8260051b8083602087013760009401602001938452509192915050565b60408152600061471e6040830185876146d4565b905060018060a01b0383166020830152949350505050565b80516131db81613ccf565b80151581146137ce57600080fd5b80516131db81614741565b600082601f83011261476b57600080fd5b8151602061477b614408836143c4565b82815260089290921b8401810191818101908684111561479a57600080fd5b8286015b848110156144475761010081890312156147b85760008081fd5b6147c061432c565b81516147cb81613f74565b815281850151858201526040808301519082015260606147ec818401614736565b908201526080828101519082015260a0808301519082015260c0808301519082015260e061481b81840161474f565b908201528352918301916101000161479e565b6000806040838503121561484157600080fd5b82516001600160401b038082111561485857600080fd5b6148648683870161475a565b9350602085015191508082111561487a57600080fd5b506148878582860161475a565b9150509250929050565b6020808252818101527f4f776e61626c653a2063616c6c6572206973206e6f7420746865206f776e6572604082015260600190565b600080600080600080600080610100898b0312156148e357600080fd5b885197506020890151965060408901519550606089015194506080890151935060a0890151925060c0890151915060e089015161491f81614741565b809150509295985092959890939650565b6000602080838503121561494357600080fd5b82516001600160401b0381111561495957600080fd5b8301601f8101851361496a57600080fd5b8051614978614408826143c4565b81815260079190911b8201830190838101908783111561499757600080fd5b928401925b828410156149ee57608084890312156149b55760008081fd5b6149bd61434f565b845181528585015186820152604080860151908201526060808601519082015282526080909301929084019061499c565b979650505050505050565b600060808284031215614a0b57600080fd5b614a1361434f565b90508151614a2081613f74565b81526020820151614a3081613c81565b80602083015250604082015160408201526060820151606082015292915050565b6000806101008385031215614a6557600080fd5b614a6f84846149f9565b9150614a7e84608085016149f9565b90509250929050565b8481526020810184905260e08101614aa26040830185613e97565b825165ffffffffffff1660608381019190915260208401516001600160a01b03166080840152604084015160a08401529092015160c0909101529392505050565b60006020808301818452808554614afe818490815260200190565b60008881526020812094509092505b81601f82011015614d8757835460ff8082168552600882901c8116878601526040614b41818701838560101c1660ff169052565b6060614b56818801848660181c1660ff169052565b6080614b6a81890185878d1c1660ff169052565b60a0614b7f818a01868860281c1660ff169052565b60c0614b94818b01878960301c1660ff169052565b60e0614ba9818c01888a60381c1660ff169052565b60ff88871c8816166101008c0152614bcc6101208c01888a60481c1660ff169052565b614be16101408c01888a60501c1660ff169052565b614bf66101608c01888a60581c1660ff169052565b60ff88861c8816166101808c0152614c196101a08c01888a60681c1660ff169052565b614c2e6101c08c01888a60701c1660ff169052565b614c436101e08c01888a60781c1660ff169052565b60ff88851c8816166102008c0152614c666102208c01888a60881c1660ff169052565b614c7b6102408c01888a60901c1660ff169052565b614c906102608c01888a60981c1660ff169052565b60ff88841c8816166102808c0152614cb36102a08c01888a60a81c1660ff169052565b614cc86102c08c01888a60b01c1660ff169052565b614cdd6102e08c01888a60b81c1660ff169052565b60ff88831c8816166103008c0152614d006103208c01888a60c81c1660ff169052565b614d156103408c01888a60d01c1660ff169052565b614d2a6103608c01888a60d81c1660ff169052565b60ff88821c8816166103808c0152505050505050614d536103a08601828460e81c1660ff169052565b614d686103c08601828460f01c1660ff169052565b5060f81c6103e084015260019390930192610400909201918401614b0d565b92549281811015614da05760ff84168352918401916001015b81811015614dba57600884901c60ff168352918401916001015b81811015614dd457601084901c60ff168352918401916001015b81811015614dee57601884901c60ff168352918401916001015b81811015614e065783851c60ff168352918401916001015b81811015614e2057602884901c60ff168352918401916001015b81811015614e3a57603084901c60ff168352918401916001015b81811015614e5457603884901c60ff168352918401916001015b81811015614e6e57604084901c60ff168352918401916001015b81811015614e8857604884901c60ff168352918401916001015b81811015614ea257605084901c60ff168352918401916001015b81811015614ebc57605884901c60ff168352918401916001015b81811015614ed657606084901c60ff168352918401916001015b81811015614ef057606884901c60ff168352918401916001015b81811015614f0a57607084901c60ff168352918401916001015b81811015614f2457607884901c60ff168352918401916001015b81811015614f3e57608084901c60ff168352918401916001015b81811015614f5857608884901c60ff168352918401916001015b81811015614f7257609084901c60ff168352918401916001015b81811015614f8c57609884901c60ff168352918401916001015b81811015614fa65760a084901c60ff168352918401916001015b81811015614fc05760a884901c60ff168352918401916001015b81811015614fda5760b084901c60ff168352918401916001015b81811015614ff45760b884901c60ff168352918401916001015b8181101561500e5760c084901c60ff168352918401916001015b818110156150285760c884901c60ff168352918401916001015b818110156150425760d084901c60ff168352918401916001015b8181101561505c5760d884901c60ff168352918401916001015b818110156150765760e084901c60ff168352918401916001015b818110156150905760e884901c60ff168352918401916001015b818110156150aa5760f084901c60ff168352918401916001015b81811015613df557505060f89190911c8152019392505050565b6000602082840312156150d657600080fd5b81516001600160401b038111156150ec57600080fd5b61221b848285016143e7565b6001600160a01b03958616815293909416602084015260408301919091526060820152608081019190915260a00190565b60208152600061221b6020830184866146d4565b6000602080838503121561515057600080fd5b82516001600160401b0381111561516657600080fd5b8301601f8101851361517757600080fd5b8051615185614408826143c4565b81815261014091820283018401918482019190888411156151a557600080fd5b938501935b8385101561523e5780858a0312156151c25760008081fd5b6151ca614371565b85518152868601518782015260408087015190820152606080870151908201526080808701519082015260a0808701519082015260c0808701519082015260e08087015190820152610100808701519082015261012061522b81880161474f565b90820152835293840193918501916151aa565b50979650505050505050565b60008060008060008060008060006101208a8c03121561526957600080fd5b8951985060208a0151975060408a0151965060608a0151955060808a0151945060a08a0151935060c08a0151925060e08a015191506101008a015190509295985092959850929598565b600080821280156001600160ff1b03849003851316156152d5576152d56146a3565b600160ff1b83900384128116156152ee576152ee6146a3565b50500190565b81358152602080830135908201526101008101604083013561531581613c81565b6001600160a01b03166040830152606083013561533181613ccf565b61533e6060840182613e97565b506080830135608083015260a083013560a083015260c083013560c083015260e083013561536b81614741565b80151560e08401525092915050565b600080600080600080600060e0888a03121561539557600080fd5b875196506020880151955060408801519450606088015193506080880151925060a0880151915060c08801516153ca81614741565b8091505092959891949750929550565b602081526000612c39602083018461462056fe4abde63c3e81aefa5764b017968bc473e83e093d7e1a10247d19e0a3e4124018a26469706673582212200e29fe853964f9ea00ab80c6c0666189363bb931e1f3f3dfe628abd764a2228f64736f6c63430008090033",
  "libraries": {
    "FundManagementLogic": "0xac22585abe54C036D2131798B2Db031F37B024C6",
    "LendingMarketOperationLogic": "0x1eCfd8E7AcE77b7153F4E30787Ff1a7B5bCDd4E8",
    "LendingMarketUserLogic": "0x74e6e5dA590cbF02fA8D9301b43A6Bbd2b34da73",
    "LiquidationLogic": "0x8a8Ca6125c0BbeA74aD578ca015C9cEcA35dFfa2"
  },
  "implementation": "0x00b8eF75BfA0306DF6A4Fc2168e271D43E7f6Bb7",
  "devdoc": {
    "kind": "dev",
    "methods": {
      "acceptedContracts()": {
        "details": "The contact name listed in this method is also needed to be listed `requiredContracts` method."
      },
      "calculateFunds(bytes32,address,uint256)": {
        "params": {
          "_ccy": "Currency name in bytes32",
          "_liquidationThresholdRate": "The liquidation threshold rate",
          "_user": "User's address"
        },
        "returns": {
          "borrowedAmount": "The borrowed amount due to the borrow orders being filled on the order book",
          "claimableAmount": "The claimable amount due to the lending orders being filled on the order book",
          "collateralAmount": "The actual collateral amount that is calculated by netting using the haircut.",
          "debtAmount": "The debt amount due to the borrow orders being filled on the order book",
          "lentAmount": "The lent amount due to the lend orders being filled on the order book",
          "workingBorrowOrdersAmount": "The working orders amount on the borrow order book",
          "workingLendOrdersAmount": "The working orders amount on the lend order book"
        }
      },
      "calculateTotalFundsInBaseCurrency(address,(bytes32,uint256,uint256,uint256,uint256,uint256,uint256),uint256)": {
        "params": {
          "_additionalFunds": "The funds to be added for calculating the total funds",
          "_liquidationThresholdRate": "The liquidation threshold rate",
          "_user": "User's address"
        }
      },
      "cancelOrder(bytes32,uint256,uint48)": {
        "params": {
          "_ccy": "Currency name in bytes32 of the selected market",
          "_maturity": "The maturity of the selected market",
          "_orderId": "Market order id"
        }
      },
      "cleanUpAllFunds(address)": {
        "params": {
          "_user": "User's address"
        }
      },
      "cleanUpFunds(bytes32,address)": {
        "params": {
          "_ccy": "Currency name in bytes32",
          "_user": "User's address"
        }
      },
      "createOrderBook(bytes32,uint256,uint256)": {
        "params": {
          "_ccy": "Main currency for new lending market",
          "_openingDate": "The timestamp when the order book opens",
          "_preOpeningDate": "The timestamp when the order book pre-opens"
        }
      },
      "depositAndExecuteOrder(bytes32,uint256,uint8,uint256,uint256)": {
        "params": {
          "_amount": "Amount of funds the maker wants to borrow/lend",
          "_ccy": "Currency name in bytes32 of the selected market",
          "_maturity": "The maturity of the selected market",
          "_side": "Order position type, Borrow or Lend",
          "_unitPrice": "Amount of unit price taker wish to borrow/lend"
        },
        "returns": {
          "_0": "True if the execution of the operation succeeds"
        }
      },
      "depositAndExecutesPreOrder(bytes32,uint256,uint8,uint256,uint256)": {
        "params": {
          "_amount": "Amount of funds the maker wants to borrow/lend",
          "_ccy": "Currency name in bytes32 of the selected market",
          "_maturity": "The maturity of the selected market",
          "_side": "Order position type, Borrow or Lend",
          "_unitPrice": "Amount of unit price taker wish to borrow/lend"
        },
        "returns": {
          "_0": "True if the execution of the operation succeeds"
        }
      },
      "executeEmergencySettlement()": {
        "returns": {
          "_0": "True if the execution of the operation succeeds"
        }
      },
      "executeForcedRepayment(bytes32,bytes32,uint256,address)": {
        "params": {
          "_collateralCcy": "Currency name to be used as collateral",
          "_debtCcy": "Currency name to be used as debt",
          "_debtMaturity": "The market maturity of the debt",
          "_user": "User's address"
        },
        "returns": {
          "_0": "True if the execution of the operation succeeds"
        }
      },
      "executeItayoseCalls(bytes32[],uint256)": {
        "params": {
          "_currencies": "Currency name list in bytes32",
          "_maturity": "The maturity of the selected market"
        }
      },
      "executeLiquidationCall(bytes32,bytes32,uint256,address)": {
        "params": {
          "_collateralCcy": "Currency name to be used as collateral",
          "_debtCcy": "Currency name to be used as debt",
          "_debtMaturity": "The market maturity of the debt",
          "_user": "User's address"
        },
        "returns": {
          "_0": "True if the execution of the operation succeeds"
        }
      },
      "executeOrder(bytes32,uint256,uint8,uint256,uint256)": {
        "params": {
          "_amount": "Amount of funds the maker wants to borrow/lend",
          "_ccy": "Currency name in bytes32 of the selected market",
          "_maturity": "The maturity of the selected market",
          "_side": "Order position type, Borrow or Lend",
          "_unitPrice": "Amount of unit price taker wish to borrow/lend"
        },
        "returns": {
          "_0": "True if the execution of the operation succeeds"
        }
      },
      "executePreOrder(bytes32,uint256,uint8,uint256,uint256)": {
        "params": {
          "_amount": "Amount of funds the maker wants to borrow/lend",
          "_ccy": "Currency name in bytes32 of the selected market",
          "_maturity": "The maturity of the selected market",
          "_side": "Order position type, Borrow or Lend",
          "_unitPrice": "Amount of unit price taker wish to borrow/lend"
        },
        "returns": {
          "_0": "True if the execution of the operation succeeds"
        }
      },
      "executeRedemption(bytes32,uint256)": {
        "params": {
          "_ccy": "Currency name in bytes32 of the selected market",
          "_maturity": "The maturity of the selected market"
        }
      },
      "executeRepayment(bytes32,uint256)": {
        "params": {
          "_ccy": "Currency name in bytes32 of the selected market",
          "_maturity": "The maturity of the selected market"
        }
      },
      "getBestBorrowUnitPrices(bytes32)": {
        "params": {
          "_ccy": "Currency name in bytes32"
        },
        "returns": {
          "_0": "Array with the best prices for borrowing"
        }
      },
      "getBestLendUnitPrices(bytes32)": {
        "params": {
          "_ccy": "Currency name in bytes32"
        },
        "returns": {
          "_0": "Array with the best prices for lending"
        }
      },
      "getBorrowOrderBook(bytes32,uint256,uint256)": {
        "params": {
          "_ccy": "Currency name in bytes32",
          "_limit": "The limit number to get",
          "_maturity": "The maturity of the market"
        },
        "returns": {
          "amounts": "The array of borrow order amounts",
          "quantities": "The array of borrow order quantities",
          "unitPrices": "The array of borrow unit prices"
        }
      },
      "getCircuitBreakerLimitRange(bytes32)": {
        "params": {
          "_ccy": "Currency name in bytes32"
        },
        "returns": {
          "_0": "The auto-roll fee rate received by protocol"
        }
      },
      "getFutureValueVault(bytes32)": {
        "params": {
          "_ccy": "Currency name in bytes32"
        },
        "returns": {
          "_0": "The future value vault address"
        }
      },
      "getGenesisDate(bytes32)": {
        "params": {
          "_ccy": "Currency name in bytes32"
        },
        "returns": {
          "_0": "The genesis date"
        }
      },
      "getGenesisValue(bytes32,address)": {
        "params": {
          "_ccy": "Currency name in bytes32 for Lending Market",
          "_user": "User's address"
        },
        "returns": {
          "genesisValue": "The genesis value"
        }
      },
      "getLendOrderBook(bytes32,uint256,uint256)": {
        "params": {
          "_ccy": "Currency name in bytes32",
          "_limit": "The limit number to get",
          "_maturity": "The maturity of the market"
        },
        "returns": {
          "amounts": "The array of lend order amounts",
          "quantities": "The array of lend order quantities",
          "unitPrices": "The array of borrow unit prices"
        }
      },
      "getLendingMarket(bytes32)": {
        "params": {
          "_ccy": "Currency name in bytes32"
        },
        "returns": {
          "_0": "Array with the lending market address"
        }
      },
      "getMaturities(bytes32)": {
        "params": {
          "_ccy": "Currency name in bytes32"
        },
        "returns": {
          "_0": "Array with the lending market maturity"
        }
      },
      "getOrderBookDetail(bytes32,uint256)": {
        "params": {
          "_ccy": "Currency name in bytes32",
          "_maturity": "The maturity of the market"
        },
        "returns": {
          "bestBorrowUnitPrice": "The best borrow price",
          "bestLendUnitPrice": "The best lend price",
          "isReady": "The boolean if the market is ready or not",
          "marketUnitPrice": "The market unit price",
          "maxLendUnitPrice": "The maximum unit price for lending",
          "minBorrowUnitPrice": "The minimum unit price for borrowing",
          "openingDate": "The timestamp when the market opens",
          "openingUnitPrice": "The opening price when Itayose is executed"
        }
      },
      "getOrderBookDetails(bytes32[])": {
        "params": {
          "_ccys": "Currency name list in bytes32"
        },
        "returns": {
          "orderBookDetails": "The array of Detailed information on the order book."
        }
      },
      "getOrderBookId(bytes32,uint256)": {
        "params": {
          "_ccy": "Currency name in bytes32",
          "_maturity": "The maturity of the market"
        },
        "returns": {
          "_0": "The lending market address"
        }
      },
      "getOrderBookIds(bytes32)": {
        "params": {
          "_ccy": "Currency name in bytes32"
        },
        "returns": {
          "_0": "The array of order book id"
        }
      },
      "getOrderEstimation((bytes32,uint256,address,uint8,uint256,uint256,uint256,bool))": {
        "params": {
          "_params": "The parameters to calculate the order estimation <br> - ccy: Currency name in bytes32 of the selected market <br> - maturity: The maturity of the market <br> - side: Order position type, Borrow or Lend <br> - amount: Amount of funds the maker wants to borrow/lend <br> - unitPrice: Amount of unit price taker wish to borrow/lend <br> - additionalDepositAmount: Additional amount to be deposited with the lending order <br> - ignoreBorrowedAmount: The boolean if the borrowed amount is ignored and not used as collateral or not"
        },
        "returns": {
          "coverage": "The rate of collateral used",
          "filledAmount": "The amount that is filled on the order book",
          "filledAmountInFV": "The amount in the future value that is filled on the order book",
          "isInsufficientDepositAmount": "The boolean if the order amount for lending in the selected currency is insufficient for the deposit amount or not",
          "lastUnitPrice": "The last unit price that is filled on the order book",
          "orderFeeInFV": "The order fee amount in the future value",
          "placedAmount": "The amount that is placed to the order book"
        }
      },
      "getOrderFeeRate(bytes32)": {
        "params": {
          "_ccy": "Currency name in bytes32"
        },
        "returns": {
          "_0": "The order fee rate received by protocol"
        }
      },
      "getOrders(bytes32[],address)": {
        "params": {
          "_ccys": "Currency name list in bytes32",
          "_user": "User's address"
        },
        "returns": {
          "activeOrders": "The array of active orders in the order book",
          "inactiveOrders": "The array of inactive orders"
        }
      },
      "getPosition(bytes32,uint256,address)": {
        "params": {
          "_ccy": "Currency name in bytes32",
          "_maturity": "The maturity of the selected market",
          "_user": "User's address"
        },
        "returns": {
          "futureValue": "The future value of the position",
          "presentValue": "The present value of the position"
        }
      },
      "getPositions(bytes32[],address)": {
        "params": {
          "_ccys": "Currency name list in bytes32",
          "_user": "User's address"
        },
        "returns": {
          "positions": "The array of active positions"
        }
      },
      "getTotalPresentValue(bytes32,address)": {
        "params": {
          "_ccy": "Currency name in bytes32 for Lending Market",
          "_user": "User's address"
        },
        "returns": {
          "totalPresentValue": "The total present value"
        }
      },
      "getTotalPresentValueInBaseCurrency(address)": {
        "params": {
          "_user": "User's address"
        },
        "returns": {
          "totalPresentValue": "The total present value in base currency"
        }
      },
      "getUsedCurrencies(address)": {
        "params": {
          "_user": "User's address"
        },
        "returns": {
          "_0": "The array of the currency"
        }
      },
      "initialize(address,address,uint256)": {
        "details": "Function is invoked by the proxy contract when the contract is added to the ProxyController.",
        "params": {
          "_marketBasePeriod": "The base period for market maturity",
          "_owner": "The address of the contract owner",
          "_resolver": "The address of the Address Resolver contract"
        }
      },
      "initializeLendingMarket(bytes32,uint256,uint256,uint256,uint256)": {
        "params": {
          "_ccy": "Currency name in bytes32",
          "_circuitBreakerLimitRange": "The circuit breaker limit range",
          "_compoundFactor": "The initial compound factor when the initial market is opened",
          "_genesisDate": "The genesis date when the initial market is opened",
          "_orderFeeRate": "The order fee rate received by protocol"
        }
      },
      "isInitializedLendingMarket(bytes32)": {
        "params": {
          "_ccy": "Currency name in bytes32"
        },
        "returns": {
          "_0": "The boolean if the lending market is initialized or not"
        }
      },
      "isRedemptionRequired(address)": {
        "returns": {
          "_0": "The boolean if the user needs to redeem the funds"
        }
      },
      "isTerminated()": {
        "returns": {
          "_0": "The boolean if the protocol has not been terminated"
        }
      },
      "owner()": {
        "details": "Returns the address of the current owner."
      },
      "pauseLendingMarkets(bytes32)": {
        "params": {
          "_ccy": "Currency for pausing all lending markets"
        },
        "returns": {
          "_0": "True if the execution of the operation succeeds"
        }
      },
      "renounceOwnership()": {
        "details": "Leaves the contract without owner. It will not be possible to call `onlyOwner` functions anymore. Can only be called by the current owner. NOTE: Renouncing ownership will leave the contract without an owner, thereby removing any functionality that is only available to the owner."
      },
      "requiredContracts()": {
        "details": "The contract name list is in `./libraries/Contracts.sol`."
      },
      "rotateOrderBooks(bytes32)": {
        "params": {
          "_ccy": "Currency name in bytes32 of the selected market"
        }
      },
      "transferOwnership(address)": {
        "details": "Transfers ownership of the contract to a new account (`newOwner`). Can only be called by the current owner."
      },
      "unpauseLendingMarkets(bytes32)": {
        "params": {
          "_ccy": "Currency name in bytes32"
        },
        "returns": {
          "_0": "True if the execution of the operation succeeds"
        }
      },
      "unwindPosition(bytes32,uint256)": {
        "params": {
          "_ccy": "Currency name in bytes32 of the selected market",
          "_maturity": "The maturity of the selected market"
        }
      },
      "updateCircuitBreakerLimitRange(bytes32,uint256)": {
        "params": {
          "_cbLimitRange": "The circuit breaker limit range",
          "_ccy": "Currency name in bytes32"
        }
      },
      "updateOrderFeeRate(bytes32,uint256)": {
        "params": {
          "_ccy": "Currency name in bytes32",
          "_orderFeeRate": "The order fee rate received by protocol"
        }
      }
    },
    "version": 1
  },
  "userdoc": {
    "kind": "user",
    "methods": {
      "acceptedContracts()": {
        "notice": "Returns contract names that can call this contract."
      },
      "calculateFunds(bytes32,address,uint256)": {
        "notice": "Gets the funds that are calculated from the user's lending and borrowing order list for the selected currency."
      },
      "calculateTotalFundsInBaseCurrency(address,(bytes32,uint256,uint256,uint256,uint256,uint256,uint256),uint256)": {
        "notice": "Gets the funds that are calculated from the user's lending and borrowing order list for all currencies in base currency."
      },
      "cancelOrder(bytes32,uint256,uint48)": {
        "notice": "Cancels the own order."
      },
      "cleanUpAllFunds(address)": {
        "notice": "Clean up all funds of the user"
      },
      "cleanUpFunds(bytes32,address)": {
        "notice": "Clean up user funds used for lazy evaluation by the following actions: - Removes order IDs that is already filled on the order book. - Convert Future values that have already been auto-rolled to Genesis values."
      },
      "createOrderBook(bytes32,uint256,uint256)": {
        "notice": "Creates new order book."
      },
      "depositAndExecuteOrder(bytes32,uint256,uint8,uint256,uint256)": {
        "notice": "Deposits funds and executes an order at the same time."
      },
      "depositAndExecutesPreOrder(bytes32,uint256,uint8,uint256,uint256)": {
        "notice": "Deposits funds and executes a pre-order at the same time."
      },
      "executeEmergencySettlement()": {
        "notice": "Force settlement of all lending and borrowing positions. This function is executed under the present value as of the termination date."
      },
      "executeEmergencyTermination()": {
        "notice": "Executes an emergency termination to stop the protocol. Once this function is executed, the protocol cannot be run again. Also, users will only be able to redeem and withdraw."
      },
      "executeForcedRepayment(bytes32,bytes32,uint256,address)": {
        "notice": "Execute forced repayment for a borrowing position if repayment date is over."
      },
      "executeItayoseCalls(bytes32[],uint256)": {
        "notice": "Executes Itayose calls per selected currencies."
      },
      "executeLiquidationCall(bytes32,bytes32,uint256,address)": {
        "notice": "Liquidates a lending or borrowing position if the user's coverage is hight."
      },
      "executeOrder(bytes32,uint256,uint8,uint256,uint256)": {
        "notice": "Executes an order. Takes orders if the order is matched, and places new order if not match it. In addition, converts the future value to the genesis value if there is future value in past maturity before the execution of order creation."
      },
      "executePreOrder(bytes32,uint256,uint8,uint256,uint256)": {
        "notice": "Executes a pre-order. A pre-order will only be accepted from 168 hours (7 days) to 1 hour before the market opens (Pre-order period). At the end of this period, Itayose will be executed."
      },
      "executeRedemption(bytes32,uint256)": {
        "notice": "Redeem user's lending positions. Redemption can only be executed once the market has matured after the currency has been delisted."
      },
      "executeRepayment(bytes32,uint256)": {
        "notice": "Repay user's borrowing positions. Repayment can only be executed once the market has matured after the currency has been delisted."
      },
      "getBestBorrowUnitPrices(bytes32)": {
        "notice": "Gets the best prices for borrowing in the selected currency."
      },
      "getBestLendUnitPrices(bytes32)": {
        "notice": "Gets the best prices for lending in the selected currency."
      },
      "getBorrowOrderBook(bytes32,uint256,uint256)": {
        "notice": "Gets the order book of borrow."
      },
      "getCircuitBreakerLimitRange(bytes32)": {
        "notice": "Gets the limit range in unit price for the circuit breaker"
      },
      "getFutureValueVault(bytes32)": {
        "notice": "Gets the future value contract address for the selected currency and maturity."
      },
      "getGenesisDate(bytes32)": {
        "notice": "Gets the genesis date when the first market opens for the selected currency."
      },
      "getGenesisValue(bytes32,address)": {
        "notice": "Gets the genesis value of the account."
      },
      "getLendOrderBook(bytes32,uint256,uint256)": {
        "notice": "Gets the order book of lend."
      },
      "getLendingMarket(bytes32)": {
        "notice": "Gets the lending market contract address for the selected currency."
      },
      "getMaturities(bytes32)": {
        "notice": "Gets maturities for the selected currency."
      },
      "getOrderBookDetail(bytes32,uint256)": {
        "notice": "Gets detailed information on the order book."
      },
      "getOrderBookDetails(bytes32[])": {
        "notice": "Gets the array of detailed information on the order book"
      },
      "getOrderBookId(bytes32,uint256)": {
        "notice": "Gets the lending market contract address for the selected currency and maturity."
      },
      "getOrderBookIds(bytes32)": {
        "notice": "Gets the order book ids."
      },
      "getOrderEstimation((bytes32,uint256,address,uint8,uint256,uint256,uint256,bool))": {
        "notice": "Gets the estimated order result by the calculation of the amount to be filled when executing an order in the order books."
      },
      "getOrderFeeRate(bytes32)": {
        "notice": "Gets the order fee rate"
      },
      "getOrders(bytes32[],address)": {
        "notice": "Gets user's active and inactive orders in the order book"
      },
      "getPosition(bytes32,uint256,address)": {
        "notice": "Gets user's active position from the future value vault"
      },
      "getPositions(bytes32[],address)": {
        "notice": "Gets user's active positions from the future value vaults"
      },
      "getTotalPresentValue(bytes32,address)": {
        "notice": "Gets the total present value of the account for selected currency."
      },
      "getTotalPresentValueInBaseCurrency(address)": {
        "notice": "Gets the total present value of the account converted to base currency."
      },
      "getUsedCurrencies(address)": {
        "notice": "Get all the currencies in which the user has lending positions or orders."
      },
      "initialize(address,address,uint256)": {
        "notice": "Initializes the contract."
      },
      "initializeLendingMarket(bytes32,uint256,uint256,uint256,uint256)": {
        "notice": "Initialize the lending market to set a genesis date and compound factor"
      },
      "isInitializedLendingMarket(bytes32)": {
        "notice": "Gets if the lending market is initialized."
      },
      "isRedemptionRequired(address)": {
        "notice": "Gets if the user needs to redeem the funds."
      },
      "isTerminated()": {
        "notice": "Gets if the protocol has not been terminated."
      },
      "pauseLendingMarkets(bytes32)": {
        "notice": "Pauses previously deployed lending market by currency"
      },
      "requiredContracts()": {
        "notice": "Returns the contract names used in this contract."
      },
      "rotateOrderBooks(bytes32)": {
        "notice": "Rotates the lending markets. In this rotation, the following actions are happened. - Updates the maturity at the beginning of the market array. - Moves the beginning of the market array to the end of it (Market rotation). - Update the compound factor in this contract using the next market unit price. (Auto-rolls) - Convert the future value held by reserve funds into the genesis value"
      },
      "unpauseLendingMarkets(bytes32)": {
        "notice": "Unpauses previously deployed lending market by currency"
      },
      "unwindPosition(bytes32,uint256)": {
        "notice": "Unwinds user's lending or borrowing positions by creating an opposite position order."
      },
      "updateCircuitBreakerLimitRange(bytes32,uint256)": {
        "notice": "Updates the auto-roll fee rate"
      },
      "updateOrderFeeRate(bytes32,uint256)": {
        "notice": "Updates the order fee rate"
      }
    },
    "notice": "Implements the module to manage separated lending order-book markets per maturity. This contract also works as a factory contract that can deploy(start)a new lending market for selected currency and maturity and has the calculation logic for the Genesis value in addition. Deployed Lending Markets are rotated and reused as it reaches the maturity date. At the time of rotation, a new maturity date is set and the compound factor is updated. The users mainly call this contract to execute orders to lend or borrow funds.",
    "version": 1
  },
  "storageLayout": {
    "storage": [
      {
        "astId": 1150,
        "contract": "contracts/protocol/LendingMarketController.sol:LendingMarketController",
        "label": "_status",
        "offset": 0,
        "slot": "0",
        "type": "t_uint256"
      },
      {
        "astId": 995,
        "contract": "contracts/protocol/LendingMarketController.sol:LendingMarketController",
        "label": "_initialized",
        "offset": 0,
        "slot": "1",
        "type": "t_uint8"
      },
      {
        "astId": 998,
        "contract": "contracts/protocol/LendingMarketController.sol:LendingMarketController",
        "label": "_initializing",
        "offset": 1,
        "slot": "1",
        "type": "t_bool"
      },
      {
        "astId": 42347,
        "contract": "contracts/protocol/LendingMarketController.sol:LendingMarketController",
        "label": "lockedBy",
        "offset": 2,
        "slot": "1",
        "type": "t_address"
      }
    ],
    "types": {
      "t_address": {
        "encoding": "inplace",
        "label": "address",
        "numberOfBytes": "20"
      },
      "t_bool": {
        "encoding": "inplace",
        "label": "bool",
        "numberOfBytes": "1"
      },
      "t_uint256": {
        "encoding": "inplace",
        "label": "uint256",
        "numberOfBytes": "32"
      },
      "t_uint8": {
        "encoding": "inplace",
        "label": "uint8",
        "numberOfBytes": "1"
      }
    }
  }
}