{
  "address": "0x625cc8D4A543D258ee3173ebED613169a320EF87",
  "abi": [
    {
      "inputs": [],
      "name": "AlreadyInitialized",
      "type": "error"
    },
    {
      "inputs": [],
      "name": "AlreadyTerminated",
      "type": "error"
    },
    {
      "inputs": [],
      "name": "CallerNotOperator",
      "type": "error"
    },
    {
      "inputs": [],
      "name": "ContractLocked",
      "type": "error"
    },
    {
      "inputs": [],
      "name": "InvalidCurrency",
      "type": "error"
    },
    {
      "inputs": [],
      "name": "InvalidMaturity",
      "type": "error"
    },
    {
      "inputs": [
        {
          "internalType": "string",
          "name": "name",
          "type": "string"
        }
      ],
      "name": "MissingAddress",
      "type": "error"
    },
    {
      "inputs": [
        {
          "internalType": "bytes32",
          "name": "role",
          "type": "bytes32"
        },
        {
          "internalType": "address",
          "name": "account",
          "type": "address"
        }
      ],
      "name": "NotAllowedAccess",
      "type": "error"
    },
    {
      "inputs": [],
      "name": "NotTerminated",
      "type": "error"
    },
    {
      "inputs": [
        {
          "internalType": "string",
          "name": "name",
          "type": "string"
        }
      ],
      "name": "OnlyAcceptedContract",
      "type": "error"
    },
    {
      "inputs": [],
      "name": "ResolverAlreadyRegistered",
      "type": "error"
    },
    {
      "anonymous": false,
      "inputs": [
        {
          "indexed": false,
          "internalType": "bytes32",
          "name": "name",
          "type": "bytes32"
        },
        {
          "indexed": false,
          "internalType": "address",
          "name": "destination",
          "type": "address"
        }
      ],
      "name": "CacheUpdated",
      "type": "event"
    },
    {
      "anonymous": false,
      "inputs": [
        {
          "indexed": false,
          "internalType": "uint8",
          "name": "version",
          "type": "uint8"
        }
      ],
      "name": "Initialized",
      "type": "event"
    },
    {
      "anonymous": false,
      "inputs": [
        {
          "indexed": true,
          "internalType": "address",
          "name": "previousOwner",
          "type": "address"
        },
        {
          "indexed": true,
          "internalType": "address",
          "name": "newOwner",
          "type": "address"
        }
      ],
      "name": "OwnershipTransferred",
      "type": "event"
    },
    {
      "anonymous": false,
      "inputs": [
        {
          "indexed": true,
          "internalType": "bytes32",
          "name": "role",
          "type": "bytes32"
        },
        {
          "indexed": true,
          "internalType": "bytes32",
          "name": "previousAdminRole",
          "type": "bytes32"
        },
        {
          "indexed": true,
          "internalType": "bytes32",
          "name": "newAdminRole",
          "type": "bytes32"
        }
      ],
      "name": "RoleAdminChanged",
      "type": "event"
    },
    {
      "anonymous": false,
      "inputs": [
        {
          "indexed": true,
          "internalType": "bytes32",
          "name": "role",
          "type": "bytes32"
        },
        {
          "indexed": true,
          "internalType": "address",
          "name": "account",
          "type": "address"
        },
        {
          "indexed": true,
          "internalType": "address",
          "name": "sender",
          "type": "address"
        }
      ],
      "name": "RoleGranted",
      "type": "event"
    },
    {
      "anonymous": false,
      "inputs": [
        {
          "indexed": true,
          "internalType": "bytes32",
          "name": "role",
          "type": "bytes32"
        },
        {
          "indexed": true,
          "internalType": "address",
          "name": "account",
          "type": "address"
        },
        {
          "indexed": true,
          "internalType": "address",
          "name": "sender",
          "type": "address"
        }
      ],
      "name": "RoleRevoked",
      "type": "event"
    },
    {
      "inputs": [],
      "name": "DEFAULT_ADMIN_ROLE",
      "outputs": [
        {
          "internalType": "bytes32",
          "name": "",
          "type": "bytes32"
        }
      ],
      "stateMutability": "view",
      "type": "function"
    },
    {
      "inputs": [],
      "name": "OPERATOR_ROLE",
      "outputs": [
        {
          "internalType": "bytes32",
          "name": "",
          "type": "bytes32"
        }
      ],
      "stateMutability": "view",
      "type": "function"
    },
    {
      "inputs": [
        {
          "internalType": "address",
          "name": "admin",
          "type": "address"
        }
      ],
      "name": "addOperator",
      "outputs": [],
      "stateMutability": "nonpayable",
      "type": "function"
    },
    {
      "inputs": [],
      "name": "buildCache",
      "outputs": [],
      "stateMutability": "nonpayable",
      "type": "function"
    },
    {
      "inputs": [
        {
          "internalType": "bytes32",
          "name": "_ccy",
          "type": "bytes32"
        },
        {
          "internalType": "address",
          "name": "_user",
          "type": "address"
        },
        {
          "internalType": "uint256",
          "name": "_liquidationThresholdRate",
          "type": "uint256"
        }
      ],
      "name": "calculateFunds",
      "outputs": [
        {
          "components": [
            {
              "internalType": "uint256",
              "name": "workingLendOrdersAmount",
              "type": "uint256"
            },
            {
              "internalType": "uint256",
              "name": "claimableAmount",
              "type": "uint256"
            },
            {
              "internalType": "uint256",
              "name": "collateralAmount",
              "type": "uint256"
            },
            {
              "internalType": "uint256",
              "name": "lentAmount",
              "type": "uint256"
            },
            {
              "internalType": "uint256",
              "name": "workingBorrowOrdersAmount",
              "type": "uint256"
            },
            {
              "internalType": "uint256",
              "name": "debtAmount",
              "type": "uint256"
            },
            {
              "internalType": "uint256",
              "name": "borrowedAmount",
              "type": "uint256"
            }
          ],
          "internalType": "struct ILendingMarketController.CalculatedFunds",
          "name": "funds",
          "type": "tuple"
        }
      ],
      "stateMutability": "view",
      "type": "function"
    },
    {
      "inputs": [
        {
          "internalType": "address",
          "name": "_user",
          "type": "address"
        },
        {
          "components": [
            {
              "internalType": "bytes32",
              "name": "ccy",
              "type": "bytes32"
            },
            {
              "internalType": "uint256",
              "name": "workingLendOrdersAmount",
              "type": "uint256"
            },
            {
              "internalType": "uint256",
              "name": "claimableAmount",
              "type": "uint256"
            },
            {
              "internalType": "uint256",
              "name": "workingBorrowOrdersAmount",
              "type": "uint256"
            },
            {
              "internalType": "uint256",
              "name": "debtAmount",
              "type": "uint256"
            },
            {
              "internalType": "uint256",
              "name": "lentAmount",
              "type": "uint256"
            },
            {
              "internalType": "uint256",
              "name": "borrowedAmount",
              "type": "uint256"
            }
          ],
          "internalType": "struct ILendingMarketController.AdditionalFunds",
          "name": "_additionalFunds",
          "type": "tuple"
        },
        {
          "internalType": "uint256",
          "name": "_liquidationThresholdRate",
          "type": "uint256"
        }
      ],
      "name": "calculateTotalFundsInBaseCurrency",
      "outputs": [
        {
          "components": [
            {
              "internalType": "uint256",
              "name": "plusDepositAmountInAdditionalFundsCcy",
              "type": "uint256"
            },
            {
              "internalType": "uint256",
              "name": "minusDepositAmountInAdditionalFundsCcy",
              "type": "uint256"
            },
            {
              "internalType": "uint256",
              "name": "workingLendOrdersAmount",
              "type": "uint256"
            },
            {
              "internalType": "uint256",
              "name": "claimableAmount",
              "type": "uint256"
            },
            {
              "internalType": "uint256",
              "name": "collateralAmount",
              "type": "uint256"
            },
            {
              "internalType": "uint256",
              "name": "lentAmount",
              "type": "uint256"
            },
            {
              "internalType": "uint256",
              "name": "workingBorrowOrdersAmount",
              "type": "uint256"
            },
            {
              "internalType": "uint256",
              "name": "debtAmount",
              "type": "uint256"
            },
            {
              "internalType": "uint256",
              "name": "borrowedAmount",
              "type": "uint256"
            }
          ],
          "internalType": "struct ILendingMarketController.CalculatedTotalFunds",
          "name": "funds",
          "type": "tuple"
        }
      ],
      "stateMutability": "view",
      "type": "function"
    },
    {
      "inputs": [
        {
          "internalType": "bytes32",
          "name": "_ccy",
          "type": "bytes32"
        },
        {
          "internalType": "uint256",
          "name": "_maturity",
          "type": "uint256"
        },
        {
          "internalType": "uint48",
          "name": "_orderId",
          "type": "uint48"
        }
      ],
      "name": "cancelOrder",
      "outputs": [
        {
          "internalType": "bool",
          "name": "",
          "type": "bool"
        }
      ],
      "stateMutability": "nonpayable",
      "type": "function"
    },
    {
      "inputs": [
        {
          "internalType": "address",
          "name": "_user",
          "type": "address"
        }
      ],
      "name": "cleanUpAllFunds",
      "outputs": [
        {
          "internalType": "bool",
          "name": "",
          "type": "bool"
        }
      ],
      "stateMutability": "nonpayable",
      "type": "function"
    },
    {
      "inputs": [
        {
          "internalType": "bytes32",
          "name": "_ccy",
          "type": "bytes32"
        },
        {
          "internalType": "address",
          "name": "_user",
          "type": "address"
        }
      ],
      "name": "cleanUpFunds",
      "outputs": [
        {
          "internalType": "uint256",
          "name": "totalActiveOrderCount",
          "type": "uint256"
        }
      ],
      "stateMutability": "nonpayable",
      "type": "function"
    },
    {
      "inputs": [
        {
          "internalType": "bytes32",
          "name": "_ccy",
          "type": "bytes32"
        },
        {
          "internalType": "uint256",
          "name": "_openingDate",
          "type": "uint256"
        },
        {
          "internalType": "uint256",
          "name": "_preOpeningDate",
          "type": "uint256"
        }
      ],
      "name": "createOrderBook",
      "outputs": [],
      "stateMutability": "nonpayable",
      "type": "function"
    },
    {
      "inputs": [
        {
          "internalType": "bytes32",
          "name": "_ccy",
          "type": "bytes32"
        },
        {
          "internalType": "uint256",
          "name": "_maturity",
          "type": "uint256"
        },
        {
          "internalType": "enum ProtocolTypes.Side",
          "name": "_side",
          "type": "uint8"
        },
        {
          "internalType": "uint256",
          "name": "_amount",
          "type": "uint256"
        },
        {
          "internalType": "uint256",
          "name": "_unitPrice",
          "type": "uint256"
        }
      ],
      "name": "depositAndExecuteOrder",
      "outputs": [
        {
          "internalType": "bool",
          "name": "",
          "type": "bool"
        }
      ],
      "stateMutability": "payable",
      "type": "function"
    },
    {
      "inputs": [
        {
          "internalType": "bytes32",
          "name": "_ccy",
          "type": "bytes32"
        },
        {
          "internalType": "uint256",
          "name": "_maturity",
          "type": "uint256"
        },
        {
          "internalType": "enum ProtocolTypes.Side",
          "name": "_side",
          "type": "uint8"
        },
        {
          "internalType": "uint256",
          "name": "_amount",
          "type": "uint256"
        },
        {
          "internalType": "uint256",
          "name": "_unitPrice",
          "type": "uint256"
        }
      ],
      "name": "depositAndExecutesPreOrder",
      "outputs": [
        {
          "internalType": "bool",
          "name": "",
          "type": "bool"
        }
      ],
      "stateMutability": "payable",
      "type": "function"
    },
    {
      "inputs": [],
      "name": "executeEmergencySettlement",
      "outputs": [
        {
          "internalType": "bool",
          "name": "",
          "type": "bool"
        }
      ],
      "stateMutability": "nonpayable",
      "type": "function"
    },
    {
      "inputs": [],
      "name": "executeEmergencyTermination",
      "outputs": [],
      "stateMutability": "nonpayable",
      "type": "function"
    },
    {
      "inputs": [
        {
          "internalType": "bytes32",
          "name": "_collateralCcy",
          "type": "bytes32"
        },
        {
          "internalType": "bytes32",
          "name": "_debtCcy",
          "type": "bytes32"
        },
        {
          "internalType": "uint256",
          "name": "_debtMaturity",
          "type": "uint256"
        },
        {
          "internalType": "address",
          "name": "_user",
          "type": "address"
        }
      ],
      "name": "executeForcedRepayment",
      "outputs": [
        {
          "internalType": "bool",
          "name": "",
          "type": "bool"
        }
      ],
      "stateMutability": "nonpayable",
      "type": "function"
    },
    {
      "inputs": [
        {
          "internalType": "bytes32",
          "name": "_ccy",
          "type": "bytes32"
        },
        {
          "internalType": "uint256",
          "name": "_maturity",
          "type": "uint256"
        }
      ],
      "name": "executeItayoseCall",
      "outputs": [
        {
          "internalType": "bool",
          "name": "",
          "type": "bool"
        }
      ],
      "stateMutability": "nonpayable",
      "type": "function"
    },
    {
      "inputs": [
        {
          "internalType": "bytes32",
          "name": "_collateralCcy",
          "type": "bytes32"
        },
        {
          "internalType": "bytes32",
          "name": "_debtCcy",
          "type": "bytes32"
        },
        {
          "internalType": "uint256",
          "name": "_debtMaturity",
          "type": "uint256"
        },
        {
          "internalType": "address",
          "name": "_user",
          "type": "address"
        }
      ],
      "name": "executeLiquidationCall",
      "outputs": [
        {
          "internalType": "bool",
          "name": "",
          "type": "bool"
        }
      ],
      "stateMutability": "nonpayable",
      "type": "function"
    },
    {
      "inputs": [
        {
          "internalType": "bytes32",
          "name": "_ccy",
          "type": "bytes32"
        },
        {
          "internalType": "uint256",
          "name": "_maturity",
          "type": "uint256"
        },
        {
          "internalType": "enum ProtocolTypes.Side",
          "name": "_side",
          "type": "uint8"
        },
        {
          "internalType": "uint256",
          "name": "_amount",
          "type": "uint256"
        },
        {
          "internalType": "uint256",
          "name": "_unitPrice",
          "type": "uint256"
        }
      ],
      "name": "executeOrder",
      "outputs": [
        {
          "internalType": "bool",
          "name": "",
          "type": "bool"
        }
      ],
      "stateMutability": "nonpayable",
      "type": "function"
    },
    {
      "inputs": [
        {
          "internalType": "bytes32",
          "name": "_ccy",
          "type": "bytes32"
        },
        {
          "internalType": "uint256",
          "name": "_maturity",
          "type": "uint256"
        },
        {
          "internalType": "enum ProtocolTypes.Side",
          "name": "_side",
          "type": "uint8"
        },
        {
          "internalType": "uint256",
          "name": "_amount",
          "type": "uint256"
        },
        {
          "internalType": "uint256",
          "name": "_unitPrice",
          "type": "uint256"
        }
      ],
      "name": "executePreOrder",
      "outputs": [
        {
          "internalType": "bool",
          "name": "",
          "type": "bool"
        }
      ],
      "stateMutability": "nonpayable",
      "type": "function"
    },
    {
      "inputs": [
        {
          "internalType": "bytes32",
          "name": "_ccy",
          "type": "bytes32"
        },
        {
          "internalType": "uint256",
          "name": "_maturity",
          "type": "uint256"
        }
      ],
      "name": "executeRedemption",
      "outputs": [
        {
          "internalType": "bool",
          "name": "",
          "type": "bool"
        }
      ],
      "stateMutability": "nonpayable",
      "type": "function"
    },
    {
      "inputs": [
        {
          "internalType": "bytes32",
          "name": "_ccy",
          "type": "bytes32"
        },
        {
          "internalType": "uint256",
          "name": "_maturity",
          "type": "uint256"
        }
      ],
      "name": "executeRepayment",
      "outputs": [
        {
          "internalType": "bool",
          "name": "",
          "type": "bool"
        }
      ],
      "stateMutability": "nonpayable",
      "type": "function"
    },
    {
      "inputs": [
        {
          "internalType": "bytes32",
          "name": "_ccy",
          "type": "bytes32"
        }
      ],
      "name": "getCircuitBreakerLimitRange",
      "outputs": [
        {
          "internalType": "uint256",
          "name": "",
          "type": "uint256"
        }
      ],
      "stateMutability": "view",
      "type": "function"
    },
    {
      "inputs": [
        {
          "internalType": "bytes32",
          "name": "_ccy",
          "type": "bytes32"
        },
        {
          "internalType": "uint256",
          "name": "_maturity",
          "type": "uint256"
        }
      ],
      "name": "getCurrentMinDebtUnitPrice",
      "outputs": [
        {
          "internalType": "uint256",
          "name": "",
          "type": "uint256"
        }
      ],
      "stateMutability": "view",
      "type": "function"
    },
    {
      "inputs": [
        {
          "internalType": "bytes32",
          "name": "_ccy",
          "type": "bytes32"
        }
      ],
      "name": "getFutureValueVault",
      "outputs": [
        {
          "internalType": "address",
          "name": "",
          "type": "address"
        }
      ],
      "stateMutability": "view",
      "type": "function"
    },
    {
      "inputs": [
        {
          "internalType": "bytes32",
          "name": "_ccy",
          "type": "bytes32"
        }
      ],
      "name": "getGenesisDate",
      "outputs": [
        {
          "internalType": "uint256",
          "name": "",
          "type": "uint256"
        }
      ],
      "stateMutability": "view",
      "type": "function"
    },
    {
      "inputs": [
        {
          "internalType": "bytes32",
          "name": "_ccy",
          "type": "bytes32"
        },
        {
          "internalType": "address",
          "name": "_user",
          "type": "address"
        }
      ],
      "name": "getGenesisValue",
      "outputs": [
        {
          "internalType": "int256",
          "name": "genesisValue",
          "type": "int256"
        }
      ],
      "stateMutability": "view",
      "type": "function"
    },
    {
      "inputs": [
        {
          "internalType": "bytes32",
          "name": "_ccy",
          "type": "bytes32"
        }
      ],
      "name": "getLendingMarket",
      "outputs": [
        {
          "internalType": "address",
          "name": "",
          "type": "address"
        }
      ],
      "stateMutability": "view",
      "type": "function"
    },
    {
      "inputs": [],
      "name": "getMarketBasePeriod",
      "outputs": [
        {
          "internalType": "uint256",
          "name": "",
          "type": "uint256"
        }
      ],
      "stateMutability": "view",
      "type": "function"
    },
    {
      "inputs": [
        {
          "internalType": "bytes32",
          "name": "_ccy",
          "type": "bytes32"
        }
      ],
      "name": "getMaturities",
      "outputs": [
        {
          "internalType": "uint256[]",
          "name": "",
          "type": "uint256[]"
        }
      ],
      "stateMutability": "view",
      "type": "function"
    },
    {
      "inputs": [
        {
          "internalType": "bytes32",
          "name": "_ccy",
          "type": "bytes32"
        }
      ],
      "name": "getMinDebtUnitPrice",
      "outputs": [
        {
          "internalType": "uint256",
          "name": "",
          "type": "uint256"
        }
      ],
      "stateMutability": "view",
      "type": "function"
    },
    {
      "inputs": [
        {
          "internalType": "bytes32",
          "name": "_ccy",
          "type": "bytes32"
        },
        {
          "internalType": "uint256",
          "name": "_maturity",
          "type": "uint256"
        }
      ],
      "name": "getOrderBookId",
      "outputs": [
        {
          "internalType": "uint8",
          "name": "",
          "type": "uint8"
        }
      ],
      "stateMutability": "view",
      "type": "function"
    },
    {
      "inputs": [
        {
          "internalType": "bytes32",
          "name": "_ccy",
          "type": "bytes32"
        }
      ],
      "name": "getOrderBookIds",
      "outputs": [
        {
          "internalType": "uint8[]",
          "name": "",
          "type": "uint8[]"
        }
      ],
      "stateMutability": "view",
      "type": "function"
    },
    {
      "inputs": [
        {
          "components": [
            {
              "internalType": "bytes32",
              "name": "ccy",
              "type": "bytes32"
            },
            {
              "internalType": "uint256",
              "name": "maturity",
              "type": "uint256"
            },
            {
              "internalType": "address",
              "name": "user",
              "type": "address"
            },
            {
              "internalType": "enum ProtocolTypes.Side",
              "name": "side",
              "type": "uint8"
            },
            {
              "internalType": "uint256",
              "name": "amount",
              "type": "uint256"
            },
            {
              "internalType": "uint256",
              "name": "unitPrice",
              "type": "uint256"
            },
            {
              "internalType": "uint256",
              "name": "additionalDepositAmount",
              "type": "uint256"
            },
            {
              "internalType": "bool",
              "name": "ignoreBorrowedAmount",
              "type": "bool"
            }
          ],
          "internalType": "struct ILendingMarketController.GetOrderEstimationParams",
          "name": "_params",
          "type": "tuple"
        }
      ],
      "name": "getOrderEstimation",
      "outputs": [
        {
          "internalType": "uint256",
          "name": "lastUnitPrice",
          "type": "uint256"
        },
        {
          "internalType": "uint256",
          "name": "filledAmount",
          "type": "uint256"
        },
        {
          "internalType": "uint256",
          "name": "filledAmountInFV",
          "type": "uint256"
        },
        {
          "internalType": "uint256",
          "name": "orderFeeInFV",
          "type": "uint256"
        },
        {
          "internalType": "uint256",
          "name": "placedAmount",
          "type": "uint256"
        },
        {
          "internalType": "uint256",
          "name": "coverage",
          "type": "uint256"
        },
        {
          "internalType": "bool",
          "name": "isInsufficientDepositAmount",
          "type": "bool"
        }
      ],
      "stateMutability": "view",
      "type": "function"
    },
    {
      "inputs": [
        {
          "internalType": "bytes32",
          "name": "_ccy",
          "type": "bytes32"
        }
      ],
      "name": "getOrderFeeRate",
      "outputs": [
        {
          "internalType": "uint256",
          "name": "",
          "type": "uint256"
        }
      ],
      "stateMutability": "view",
      "type": "function"
    },
    {
      "inputs": [
        {
          "internalType": "bytes32",
          "name": "_ccy",
          "type": "bytes32"
        },
        {
          "internalType": "uint256",
          "name": "_maturity",
          "type": "uint256"
        }
      ],
      "name": "getPendingOrderAmount",
      "outputs": [
        {
          "internalType": "uint256",
          "name": "",
          "type": "uint256"
        }
      ],
      "stateMutability": "view",
      "type": "function"
    },
    {
      "inputs": [
        {
          "internalType": "bytes32",
          "name": "_ccy",
          "type": "bytes32"
        },
        {
          "internalType": "uint256",
          "name": "_maturity",
          "type": "uint256"
        },
        {
          "internalType": "address",
          "name": "_user",
          "type": "address"
        }
      ],
      "name": "getPosition",
      "outputs": [
        {
          "internalType": "int256",
          "name": "presentValue",
          "type": "int256"
        },
        {
          "internalType": "int256",
          "name": "futureValue",
          "type": "int256"
        }
      ],
      "stateMutability": "view",
      "type": "function"
    },
    {
      "inputs": [],
      "name": "getRevision",
      "outputs": [
        {
          "internalType": "uint256",
          "name": "",
          "type": "uint256"
        }
      ],
      "stateMutability": "pure",
      "type": "function"
    },
    {
      "inputs": [
        {
          "internalType": "bytes32",
          "name": "role",
          "type": "bytes32"
        }
      ],
      "name": "getRoleAdmin",
      "outputs": [
        {
          "internalType": "bytes32",
          "name": "",
          "type": "bytes32"
        }
      ],
      "stateMutability": "view",
      "type": "function"
    },
    {
      "inputs": [
        {
          "internalType": "bytes32",
          "name": "_ccy",
          "type": "bytes32"
        }
      ],
      "name": "getTerminationCollateralRatio",
      "outputs": [
        {
          "internalType": "uint256",
          "name": "",
          "type": "uint256"
        }
      ],
      "stateMutability": "view",
      "type": "function"
    },
    {
      "inputs": [
        {
          "internalType": "bytes32",
          "name": "_ccy",
          "type": "bytes32"
        }
      ],
      "name": "getTerminationCurrencyCache",
      "outputs": [
        {
          "components": [
            {
              "internalType": "int256",
              "name": "price",
              "type": "int256"
            },
            {
              "internalType": "uint8",
              "name": "decimals",
              "type": "uint8"
            }
          ],
          "internalType": "struct TerminationCurrencyCache",
          "name": "",
          "type": "tuple"
        }
      ],
      "stateMutability": "view",
      "type": "function"
    },
    {
      "inputs": [],
      "name": "getTerminationDate",
      "outputs": [
        {
          "internalType": "uint256",
          "name": "",
          "type": "uint256"
        }
      ],
      "stateMutability": "view",
      "type": "function"
    },
    {
      "inputs": [
        {
          "internalType": "bytes32",
          "name": "_ccy",
          "type": "bytes32"
        },
        {
          "internalType": "address",
          "name": "_user",
          "type": "address"
        }
      ],
      "name": "getTotalPresentValue",
      "outputs": [
        {
          "internalType": "int256",
          "name": "totalPresentValue",
          "type": "int256"
        }
      ],
      "stateMutability": "view",
      "type": "function"
    },
    {
      "inputs": [
        {
          "internalType": "address",
          "name": "_user",
          "type": "address"
        }
      ],
      "name": "getTotalPresentValueInBaseCurrency",
      "outputs": [
        {
          "internalType": "int256",
          "name": "totalPresentValue",
          "type": "int256"
        }
      ],
      "stateMutability": "view",
      "type": "function"
    },
    {
      "inputs": [
        {
          "internalType": "address",
          "name": "_user",
          "type": "address"
        }
      ],
      "name": "getUsedCurrencies",
      "outputs": [
        {
          "internalType": "bytes32[]",
          "name": "",
          "type": "bytes32[]"
        }
      ],
      "stateMutability": "view",
      "type": "function"
    },
    {
      "inputs": [
        {
          "internalType": "bytes32",
          "name": "role",
          "type": "bytes32"
        },
        {
          "internalType": "address",
          "name": "account",
          "type": "address"
        }
      ],
      "name": "grantRole",
      "outputs": [],
      "stateMutability": "nonpayable",
      "type": "function"
    },
    {
      "inputs": [
        {
          "internalType": "bytes32",
          "name": "role",
          "type": "bytes32"
        },
        {
          "internalType": "address",
          "name": "account",
          "type": "address"
        }
      ],
      "name": "hasRole",
      "outputs": [
        {
          "internalType": "bool",
          "name": "",
          "type": "bool"
        }
      ],
      "stateMutability": "view",
      "type": "function"
    },
    {
      "inputs": [
        {
          "internalType": "address",
          "name": "_owner",
          "type": "address"
        },
        {
          "internalType": "address",
          "name": "_resolver",
          "type": "address"
        },
        {
          "internalType": "uint256",
          "name": "_marketBasePeriod",
          "type": "uint256"
        }
      ],
      "name": "initialize",
      "outputs": [],
      "stateMutability": "nonpayable",
      "type": "function"
    },
    {
      "inputs": [
        {
          "internalType": "bytes32",
          "name": "_ccy",
          "type": "bytes32"
        },
        {
          "internalType": "uint256",
          "name": "_genesisDate",
          "type": "uint256"
        },
        {
          "internalType": "uint256",
          "name": "_compoundFactor",
          "type": "uint256"
        },
        {
          "internalType": "uint256",
          "name": "_orderFeeRate",
          "type": "uint256"
        },
        {
          "internalType": "uint256",
          "name": "_circuitBreakerLimitRange",
          "type": "uint256"
        },
        {
          "internalType": "uint256",
          "name": "_minDebtUnitPrice",
          "type": "uint256"
        }
      ],
      "name": "initializeLendingMarket",
      "outputs": [],
      "stateMutability": "nonpayable",
      "type": "function"
    },
    {
      "inputs": [
        {
          "internalType": "bytes32",
          "name": "_ccy",
          "type": "bytes32"
        }
      ],
      "name": "isInitializedLendingMarket",
      "outputs": [
        {
          "internalType": "bool",
          "name": "",
          "type": "bool"
        }
      ],
      "stateMutability": "view",
      "type": "function"
    },
    {
      "inputs": [
        {
          "internalType": "address",
          "name": "_user",
          "type": "address"
        }
      ],
      "name": "isRedemptionRequired",
      "outputs": [
        {
          "internalType": "bool",
          "name": "",
          "type": "bool"
        }
      ],
      "stateMutability": "view",
      "type": "function"
    },
    {
      "inputs": [],
      "name": "isResolverCached",
      "outputs": [
        {
          "internalType": "bool",
          "name": "",
          "type": "bool"
        }
      ],
      "stateMutability": "view",
      "type": "function"
    },
    {
      "inputs": [],
      "name": "isTerminated",
      "outputs": [
        {
          "internalType": "bool",
          "name": "",
          "type": "bool"
        }
      ],
      "stateMutability": "view",
      "type": "function"
    },
    {
      "inputs": [
        {
          "internalType": "bytes[]",
          "name": "data",
          "type": "bytes[]"
        }
      ],
      "name": "multicall",
      "outputs": [
        {
          "internalType": "bytes[]",
          "name": "results",
          "type": "bytes[]"
        }
      ],
      "stateMutability": "nonpayable",
      "type": "function"
    },
    {
      "inputs": [],
      "name": "owner",
      "outputs": [
        {
          "internalType": "address",
          "name": "",
          "type": "address"
        }
      ],
      "stateMutability": "view",
      "type": "function"
    },
    {
      "inputs": [
        {
          "internalType": "bytes32",
          "name": "_ccy",
          "type": "bytes32"
        }
      ],
      "name": "pauseLendingMarket",
      "outputs": [
        {
          "internalType": "bool",
          "name": "",
          "type": "bool"
        }
      ],
      "stateMutability": "nonpayable",
      "type": "function"
    },
    {
      "inputs": [
        {
          "internalType": "address",
          "name": "admin",
          "type": "address"
        }
      ],
      "name": "removeOperator",
      "outputs": [],
      "stateMutability": "nonpayable",
      "type": "function"
    },
    {
      "inputs": [],
      "name": "renounceOwnership",
      "outputs": [],
      "stateMutability": "nonpayable",
      "type": "function"
    },
    {
      "inputs": [
        {
          "internalType": "bytes32",
          "name": "role",
          "type": "bytes32"
        },
        {
          "internalType": "address",
          "name": "account",
          "type": "address"
        }
      ],
      "name": "renounceRole",
      "outputs": [],
      "stateMutability": "pure",
      "type": "function"
    },
    {
      "inputs": [],
      "name": "requiredContracts",
      "outputs": [
        {
          "internalType": "bytes32[]",
          "name": "contracts",
          "type": "bytes32[]"
        }
      ],
      "stateMutability": "pure",
      "type": "function"
    },
    {
      "inputs": [],
      "name": "resolver",
      "outputs": [
        {
          "internalType": "contract IAddressResolver",
          "name": "",
          "type": "address"
        }
      ],
      "stateMutability": "view",
      "type": "function"
    },
    {
      "inputs": [
        {
          "internalType": "bytes32",
          "name": "role",
          "type": "bytes32"
        },
        {
          "internalType": "address",
          "name": "account",
          "type": "address"
        }
      ],
      "name": "revokeRole",
      "outputs": [],
      "stateMutability": "nonpayable",
      "type": "function"
    },
    {
      "inputs": [
        {
          "internalType": "bytes32",
          "name": "_ccy",
          "type": "bytes32"
        }
      ],
      "name": "rotateOrderBooks",
      "outputs": [],
      "stateMutability": "nonpayable",
      "type": "function"
    },
    {
      "inputs": [
        {
          "internalType": "bytes4",
          "name": "interfaceId",
          "type": "bytes4"
        }
      ],
      "name": "supportsInterface",
      "outputs": [
        {
          "internalType": "bool",
          "name": "",
          "type": "bool"
        }
      ],
      "stateMutability": "view",
      "type": "function"
    },
    {
      "inputs": [
        {
          "internalType": "address",
          "name": "newOwner",
          "type": "address"
        }
      ],
      "name": "transferOwnership",
      "outputs": [],
      "stateMutability": "nonpayable",
      "type": "function"
    },
    {
      "inputs": [
        {
          "internalType": "bytes32",
          "name": "_ccy",
          "type": "bytes32"
        }
      ],
      "name": "unpauseLendingMarket",
      "outputs": [
        {
          "internalType": "bool",
          "name": "",
          "type": "bool"
        }
      ],
      "stateMutability": "nonpayable",
      "type": "function"
    },
    {
      "inputs": [
        {
          "internalType": "bytes32",
          "name": "_ccy",
          "type": "bytes32"
        },
        {
          "internalType": "uint256",
          "name": "_maturity",
          "type": "uint256"
        }
      ],
      "name": "unwindPosition",
      "outputs": [
        {
          "internalType": "bool",
          "name": "",
          "type": "bool"
        }
      ],
      "stateMutability": "nonpayable",
      "type": "function"
    },
    {
      "inputs": [
        {
          "internalType": "bytes32",
          "name": "_ccy",
          "type": "bytes32"
        },
        {
          "internalType": "uint256",
          "name": "_cbLimitRange",
          "type": "uint256"
        }
      ],
      "name": "updateCircuitBreakerLimitRange",
      "outputs": [],
      "stateMutability": "nonpayable",
      "type": "function"
    },
    {
      "inputs": [
        {
          "internalType": "bytes32",
          "name": "_ccy",
          "type": "bytes32"
        },
        {
          "internalType": "uint256",
          "name": "_minDebtUnitPrice",
          "type": "uint256"
        }
      ],
      "name": "updateMinDebtUnitPrice",
      "outputs": [],
      "stateMutability": "nonpayable",
      "type": "function"
    },
    {
      "inputs": [
        {
          "internalType": "bytes32",
          "name": "_ccy",
          "type": "bytes32"
        },
        {
          "internalType": "uint256",
          "name": "_orderFeeRate",
          "type": "uint256"
        }
      ],
      "name": "updateOrderFeeRate",
      "outputs": [],
      "stateMutability": "nonpayable",
      "type": "function"
    }
  ],
  "transactionHash": "0xb1964e7dd2ea8c72cd0f62b51195fe7c2d8c2dd970c52209e51ca254339183c2",
  "args": [],
  "numDeployments": 2,
  "solcInputHash": "b6f3fa25be7836a70979590786de70b2",
  "bytecode": "0x608060405234801561001057600080fd5b50600160005561531d806100256000396000f3fe6080604052600436106103fa5760003560e01c8063826b47e811610213578063ac9650d811610123578063e8c9af63116100ab578063f43947c71161007a578063f43947c714610d03578063f4a0997f14610d23578063f5b541a614610d43578063fc70081014610d65578063ff5c086b14610d8557600080fd5b8063e8c9af6314610c83578063ea57481714610ca3578063f03bc5a514610cc3578063f2fde38b14610ce357600080fd5b8063d1cc9976116100f2578063d1cc997614610bee578063d547741f14610c03578063e0a1744314610c23578063e3a9833314610c36578063e6977c6a14610c5657600080fd5b8063ac9650d814610b6c578063b1d0f2f014610b99578063b8f117cd14610bb9578063c11333b114610bce57600080fd5b80639519832b116101a6578063a02be3dc11610175578063a02be3dc14610aa0578063a217fddf14610ac0578063a4c66bde14610ad5578063abc6f02514610af5578063ac8a584a14610b4c57600080fd5b80639519832b146109b35780639870d7fe146109d35780639e0998b2146109f35780639f6c315914610a8057600080fd5b8063891d5965116101e2578063891d5965146109495780638da5cb5b1461096957806391d148541461097e57806394e75a3e1461099e57600080fd5b8063826b47e8146108c95780638469973f146108e9578063862fd6e514610909578063886f4b451461092957600080fd5b806336568abe1161030e57806354227dec116102a1578063715018a611610270578063715018a61461082d578063733ac7fc146108425780637b588aaa1461085757806380a7de8614610877578063812784b0146108a957600080fd5b806354227dec146107ad5780635ca65d57146107cd5780636a23a95c146107ed57806370c641a61461080d57600080fd5b80634e78fecc116102dd5780634e78fecc1461072d5780634ebeb0491461074d57806352239c701461076d57806353571ee71461078d57600080fd5b806336568abe146106ab5780633d03b9da146106cb578063428c3a81146106ed57806349f2ccbf1461070d57600080fd5b80631794bb3c1161039157806329985e5a1161036057806329985e5a146106215780632af64bd3146106365780632e6c5e671461064b5780632ef5ddaf1461066b5780632f2ff15d1461068b57600080fd5b80631794bb3c1461054957806317b72ff41461056b578063248a9ca31461058b57806324e4ae05146105ab57600080fd5b806304f3bcec116103cd57806304f3bcec146104c0578063062ea294146104ed5780630b60d6d3146105225780631316529d1461053557600080fd5b806301cf2235146103ff57806301ffc9a714610434578063021b89d41461045457806303e5fb5914610492575b600080fd5b34801561040b57600080fd5b5061041f61041a3660046140a9565b610d9a565b60405190151581526020015b60405180910390f35b34801561044057600080fd5b5061041f61044f3660046140cb565b610ebe565b34801561046057600080fd5b5061047461046f3660046140f5565b610ef5565b604080518251815260209283015160ff16928101929092520161042b565b34801561049e57600080fd5b506104b26104ad3660046140f5565b610f3f565b60405190815260200161042b565b3480156104cc57600080fd5b506104d5610fc5565b6040516001600160a01b03909116815260200161042b565b3480156104f957600080fd5b5061050d610508366004614123565b610fde565b6040805192835260208301919091520161042b565b61041f61053036600461416b565b611078565b34801561054157600080fd5b5060016104b2565b34801561055557600080fd5b506105696105643660046141b2565b611209565b005b34801561057757600080fd5b506104b26105863660046141f3565b61139f565b34801561059757600080fd5b506104b26105a63660046140f5565b611429565b3480156105b757600080fd5b506105cb6105c6366004614223565b611447565b60405161042b9190600060e082019050825182526020830151602083015260408301516040830152606083015160608301526080830151608083015260a083015160a083015260c083015160c083015292915050565b34801561062d57600080fd5b506105696115d8565b34801561064257600080fd5b5061041f611755565b34801561065757600080fd5b5061041f6106663660046140f5565b611887565b34801561067757600080fd5b5061041f61068636600461416b565b6118a7565b34801561069757600080fd5b506105696106a63660046141f3565b611981565b3480156106b757600080fd5b506105696106c63660046141f3565b6119a2565b3480156106d757600080fd5b506106e06119cd565b60405161042b919061424a565b3480156106f957600080fd5b5061041f6107083660046140f5565b611aef565b34801561071957600080fd5b5061041f6107283660046142a2565b611bba565b34801561073957600080fd5b506104b26107483660046140f5565b611d1c565b34801561075957600080fd5b506105696107683660046142d0565b611d7e565b34801561077957600080fd5b506104b26107883660046140f5565b611e49565b34801561079957600080fd5b506105696107a83660046140f5565b611e67565b3480156107b957600080fd5b506104b26107c83660046140f5565b611fb1565b3480156107d957600080fd5b506105696107e83660046140a9565b611fcf565b3480156107f957600080fd5b5061041f6108083660046140a9565b61207a565b34801561081957600080fd5b506104b26108283660046141f3565b6121fb565b34801561083957600080fd5b50610569612289565b34801561084e57600080fd5b506104b26122c4565b34801561086357600080fd5b506105696108723660046140a9565b6122d4565b34801561088357600080fd5b506108976108923660046140a9565b61234d565b60405160ff909116815260200161042b565b3480156108b557600080fd5b506104d56108c43660046140f5565b612379565b3480156108d557600080fd5b5061041f6108e43660046142fc565b6123a0565b3480156108f557600080fd5b5061041f610904366004614319565b612442565b34801561091557600080fd5b5061041f6109243660046142fc565b61267e565b34801561093557600080fd5b5061041f6109443660046140a9565b6126be565b34801561095557600080fd5b506104b26109643660046140f5565b61279c565b34801561097557600080fd5b506104d56127ba565b34801561098a57600080fd5b5061041f6109993660046141f3565b6127c4565b3480156109aa57600080fd5b5061041f6127f8565b3480156109bf57600080fd5b506104b26109ce3660046141f3565b6128b4565b3480156109df57600080fd5b506105696109ee3660046142fc565b61296c565b3480156109ff57600080fd5b50610a13610a0e36600461435a565b612987565b60405161042b9190600061012082019050825182526020830151602083015260408301516040830152606083015160608301526080830151608083015260a083015160a083015260c083015160c083015260e083015160e083015261010080840151818401525092915050565b348015610a8c57600080fd5b506104d5610a9b3660046140f5565b612a9f565b348015610aac57600080fd5b506106e0610abb3660046140f5565b612ac6565b348015610acc57600080fd5b506104b2600081565b348015610ae157600080fd5b506104b2610af03660046142fc565b612b6e565b348015610b0157600080fd5b50610b15610b103660046143a6565b612cde565b604080519788526020880196909652948601939093526060850191909152608084015260a0830152151560c082015260e00161042b565b348015610b5857600080fd5b50610569610b673660046142fc565b612d78565b348015610b7857600080fd5b50610b8c610b873660046143bf565b612d90565b60405161042b9190614484565b348015610ba557600080fd5b5061041f610bb43660046140a9565b612e85565b348015610bc557600080fd5b50610569612faf565b348015610bda57600080fd5b5061041f610be9366004614319565b61305c565b348015610bfa57600080fd5b5061041f61320c565b348015610c0f57600080fd5b50610569610c1e3660046141f3565b613221565b61041f610c3136600461416b565b613266565b348015610c4257600080fd5b50610569610c513660046140a9565b6133b3565b348015610c6257600080fd5b50610c76610c713660046140f5565b61346e565b60405161042b91906144e6565b348015610c8f57600080fd5b506104b2610c9e3660046140a9565b613500565b348015610caf57600080fd5b50610569610cbe366004614521565b6135a1565b348015610ccf57600080fd5b506104b2610cde3660046140a9565b613684565b348015610cef57600080fd5b50610569610cfe3660046142fc565b6136ad565b348015610d0f57600080fd5b5061041f610d1e36600461416b565b61374a565b348015610d2f57600080fd5b5061041f610d3e3660046140f5565b613824565b348015610d4f57600080fd5b506104b26000805160206152a183398151915281565b348015610d7157600080fd5b506106e0610d803660046142fc565b6138b9565b348015610d9157600080fd5b506104b26138e7565b6000600260005403610dc75760405162461bcd60e51b8152600401610dbe90614564565b60405180910390fd5b60026000558282610dd66138fa565b6000838152600a919091016020908152604080832084845290915281205460ff169003610e16576040516318f4d05960e31b815260040160405180910390fd5b610e1e61320c565b15610e3c57604051632aaa685560e11b815260040160405180910390fd5b604051632097fb8960e01b81526004810186905260248101859052336044820152732C83af2ca64d83D8170c2F14eECf557ffF21aA2290632097fb89906064015b60006040518083038186803b158015610e9557600080fd5b505af4158015610ea9573d6000803e3d6000fd5b50505050600192505050600160005592915050565b60006001600160e01b03198216637965db0b60e01b1480610eef57506301ffc9a760e01b6001600160e01b03198316145b92915050565b6040805180820190915260008082526020820152610f116138fa565b600092835260020160209081526040928390208351808501909452805484526001015460ff16908301525090565b6000610f496138fa565b6000838152600591909101602090815260409182902054825163128e5b8560e01b815292516001600160a01b039091169263128e5b859260048083019391928290030181865afa158015610fa1573d6000803e3d6000fd5b505050506040513d601f19601f82011682018060405250810190610eef919061459b565b6000610fcf613928565b546001600160a01b0316919050565b60405163018ba8a560e21b815260048101849052602481018390526001600160a01b03821660448201526000908190734e6856503337a87f0c743aE7ad1156db9e953ED59063062ea294906064016040805180830381865af4158015611048573d6000803e3d6000fd5b505050506040513d601f19601f8201168201806040525081019061106c91906145b4565b90969095509350505050565b600060026000540361109c5760405162461bcd60e51b8152600401610dbe90614564565b600260005585856110ab6138fa565b6000838152600a919091016020908152604080832084845290915281205460ff1690036110eb576040516318f4d05960e31b815260040160405180910390fd5b6110f361320c565b1561111157604051632aaa685560e11b815260040160405180910390fd5b611119613956565b6040516396994e3760e01b8152336004820152602481018a9052604481018790526001600160a01b0391909116906396994e379034906064016000604051808303818588803b15801561116b57600080fd5b505af115801561117f573d6000803e3d6000fd5b505060405163606c3acd60e01b8152732C83af2ca64d83D8170c2F14eECf557ffF21aA22935063606c3acd92506111c591508b908b9033908c908c908c906004016145fa565b60006040518083038186803b1580156111dd57600080fd5b505af41580156111f1573d6000803e3d6000fd5b50505050600192505050600160005595945050505050565b600154610100900460ff161580801561122657506001805460ff16105b8061123f5750303b15801561123f57506001805460ff16145b6112a25760405162461bcd60e51b815260206004820152602e60248201527f496e697469616c697a61626c653a20636f6e747261637420697320616c72656160448201526d191e481a5b9a5d1a585b1a5e995960921b6064820152608401610dbe565b6001805460ff19168117905580156112c4576001805461ff0019166101001790555b60006112ce613965565b6001600160a01b03160361132f5760405162461bcd60e51b815260206004820152602260248201527f4d7573742062652063616c6c65642066726f6d2070726f787920636f6e74726160448201526118dd60f21b6064820152608401610dbe565b816113386138fa565b5561134284613741565b61134b8461398d565b611354836139b0565b8015611399576001805461ff00191681556040519081527f7f26b83ff96e1f2b6a682f133852f6798a09c465da95921460cefb38474024989060200160405180910390a15b50505050565b60405163b55c692f60e01b8152600090734e6856503337a87f0c743aE7ad1156db9e953ED59063b55c692f906113df908690859087908290600401614638565b61012060405180830381865af41580156113fd573d6000803e3d6000fd5b505050506040513d601f19601f8201168201806040525081019061142191906146cd565b519392505050565b6000611433613a0c565b600092835260205250604090206001015490565b6114876040518060e00160405280600081526020016000815260200160008152602001600081526020016000815260200160008152602001600081525090565b6114b5846114936138fa565b6001600160a01b0386166000908152600d919091016020526040902090613a3a565b156115d1576114fd6040518060e00160405280600080191681526020016000815260200160008152602001600081526020016000815260200160008152602001600081525090565b60408051639349fb4160e01b8152600481018790526001600160a01b03861660248201528251604482015260208301516064820152908201516084820152606082015160a4820152608082015160c482015260a082015160e482015260c08201516101048201526101248101849052734e6856503337a87f0c743aE7ad1156db9e953ED590639349fb41906101440160e060405180830381865af41580156115a9573d6000803e3d6000fd5b505050506040513d601f19601f820116820180604052508101906115cd9190614748565b9150505b9392505050565b60006115e26119cd565b905060005b8151811015611751576000828281518110611604576116046147cc565b602002602001015190506000611618613928565b54604080517f5265736f6c766572206d697373696e67207461726765743a200000000000000060208201526039808201869052825180830390910181526059820192839052636795dbcd60e01b9092526001600160a01b0390921691636795dbcd9161168991869190605d016147e2565b602060405180830381865afa1580156116a6573d6000803e3d6000fd5b505050506040513d601f19601f820116820180604052508101906116ca91906147fb565b9050806116d5613928565b6000848152600191909101602090815260409182902080546001600160a01b0319166001600160a01b039485161790558151858152928416908301527f88a93678a3692f6789d9546fc621bf7234b101ddb7d4fe479455112831b8aa68910160405180910390a1505080806117499061482e565b9150506115e7565b5050565b6000806117606119cd565b905060005b815181101561187e576000828281518110611782576117826147cc565b60200260200101519050611794613928565b600082815260019190910160205260409020546001600160a01b03166117b8613928565b546040516321f8a72160e01b8152600481018490526001600160a01b03909116906321f8a72190602401602060405180830381865afa1580156117ff573d6000803e3d6000fd5b505050506040513d601f19601f8201168201806040525081019061182391906147fb565b6001600160a01b031614158061185c5750600061183e613928565b600083815260019190910160205260409020546001600160a01b0316145b1561186b576000935050505090565b50806118768161482e565b915050611765565b50600191505090565b60006118916138fa565b6000928352600801602052506040902054151590565b60006002600054036118cb5760405162461bcd60e51b8152600401610dbe90614564565b600260005585856118da6138fa565b6000838152600a919091016020908152604080832084845290915281205460ff16900361191a576040516318f4d05960e31b815260040160405180910390fd5b61192261320c565b1561194057604051632aaa685560e11b815260040160405180910390fd5b60405163aeb2d5bd60e01b8152732C83af2ca64d83D8170c2F14eECf557ffF21aA229063aeb2d5bd906111c5908b908b9033908c908c908c906004016145fa565b61198a82611429565b61199381613a52565b61199d8383613a5c565b505050565b604051631eb5512b60e31b8152600481018390526001600160a01b0382166024820152604401610dbe565b60408051600580825260c082019092526060916020820160a080368337019050509050742132b0b1b7b7283937bc3ca1b7b73a3937b63632b960591b81600081518110611a1c57611a1c6147cc565b6020026020010181815250507121bab93932b731bca1b7b73a3937b63632b960711b81600181518110611a5157611a516147cc565b6020026020010181815250507011d95b995cda5cd5985b1d5955985d5b1d607a1b81600281518110611a8557611a856147cc565b6020026020010181815250506a14995cd95c9d99519d5b9960aa1b81600381518110611ab357611ab36147cc565b60200260200101818152505069151bdad95b95985d5b1d60b21b81600481518110611ae057611ae06147cc565b60200260200101818152505090565b6000611af961320c565b15611b1757604051632aaa685560e11b815260040160405180910390fd5b611b2f6000805160206152a1833981519152336127c4565b611b4c5760405163a5523ee560e01b815260040160405180910390fd5b60405163428c3a8160e01b81526004810183905273984Df019F3d1836c3360F7B30e098bB69BE0B9d99063428c3a81906024015b60006040518083038186803b158015611b9857600080fd5b505af4158015611bac573d6000803e3d6000fd5b50505050600190505b919050565b6000600260005403611bde5760405162461bcd60e51b8152600401610dbe90614564565b60026000558383611bed6138fa565b6000838152600a919091016020908152604080832084845290915281205460ff169003611c2d576040516318f4d05960e31b815260040160405180910390fd5b611c3561320c565b15611c5357604051632aaa685560e11b815260040160405180910390fd5b611c5b6138fa565b600087815260059190910160205260409020546001600160a01b031663f3f7f452611c846138fa565b6000898152600a91909101602090815260408083208a84529091529081902054905160e083901b6001600160e01b031916815260ff909116600482015233602482015265ffffffffffff87166044820152606401600060405180830381600087803b158015611cf257600080fd5b505af1158015611d06573d6000803e3d6000fd5b5050505060019250505060016000559392505050565b6000611d266138fa565b60008381526005919091016020908152604091829020548251631e25031760e01b815292516001600160a01b0390911692631e2503179260048083019391928290030181865afa158015610fa1573d6000803e3d6000fd5b611d8661320c565b15611da457604051632aaa685560e11b815260040160405180910390fd5b33611dad6127ba565b6001600160a01b031614611dd35760405162461bcd60e51b8152600401610dbe90614847565b604051634ebeb04960e01b815260048101849052602481018390526044810182905273984Df019F3d1836c3360F7B30e098bB69BE0B9d990634ebeb0499060640160006040518083038186803b158015611e2c57600080fd5b505af4158015611e40573d6000803e3d6000fd5b50505050505050565b6000611e536138fa565b600092835260070160205250604090205490565b600260005403611e895760405162461bcd60e51b8152600401610dbe90614564565b6002600055611e9661320c565b15611eb457604051632aaa685560e11b815260040160405180910390fd5b6040516353571ee760e01b81526004810182905273984Df019F3d1836c3360F7B30e098bB69BE0B9d9906353571ee79060240160006040518083038186803b158015611eff57600080fd5b505af4158015611f13573d6000803e3d6000fd5b50505050734e6856503337a87f0c743aE7ad1156db9e953ED5639519832b82611f3a613ad3565b6040516001600160e01b031960e085901b16815260048101929092526001600160a01b03166024820152604401602060405180830381865af4158015611f84573d6000803e3d6000fd5b505050506040513d601f19601f82011682018060405250810190611fa8919061459b565b50506001600055565b6000611fbb6138fa565b600092835260030160205250604090205490565b33611fd86127ba565b6001600160a01b031614611ffe5760405162461bcd60e51b8152600401610dbe90614847565b6120066138fa565b6000838152600591909101602052604090819020549051636aa65aaf60e01b8152600481018390526001600160a01b0390911690636aa65aaf906024015b600060405180830381600087803b15801561205e57600080fd5b505af1158015612072573d6000803e3d6000fd5b505050505050565b600060026000540361209e5760405162461bcd60e51b8152600401610dbe90614564565b60026000556120ab61320c565b156120c957604051632aaa685560e11b815260040160405180910390fd5b604051631a88ea5760e21b81526004810184905260248101839052600090819073984Df019F3d1836c3360F7B30e098bB69BE0B9d990636a23a95c9060440161010060405180830381865af4158015612126573d6000803e3d6000fd5b505050506040513d601f19601f8201168201806040525081019061214a91906148f6565b6040516305ed050d60e51b81529193509150732C83af2ca64d83D8170c2F14eECf557ffF21aA229063bda0a1a09061218d9088908890600090889060040161492c565b60006040518083038186803b1580156121a557600080fd5b505af41580156121b9573d6000803e3d6000fd5b50506040516305ed050d60e51b8152732C83af2ca64d83D8170c2F14eECf557ffF21aA22925063bda0a1a09150610e7d9088908890600190879060040161492c565b60405163b55c692f60e01b8152600090734e6856503337a87f0c743aE7ad1156db9e953ED59063b55c692f9061223b908690859087908290600401614638565b61012060405180830381865af4158015612259573d6000803e3d6000fd5b505050506040513d601f19601f8201168201806040525081019061227d91906146cd565b61010001519392505050565b336122926127ba565b6001600160a01b0316146122b85760405162461bcd60e51b8152600401610dbe90614847565b6122c26000613add565b565b60006122ce6138fa565b54919050565b336122dd6127ba565b6001600160a01b0316146123035760405162461bcd60e51b8152600401610dbe90614847565b61230b6138fa565b6000838152600591909101602052604090819020549051636c5d6df160e01b8152600481018390526001600160a01b0390911690636c5d6df190602401612044565b60006123576138fa565b6000938452600a01602090815260408085209385529290525090205460ff1690565b60006123836138fa565b60009283526006016020525060409020546001600160a01b031690565b60006002600054036123c45760405162461bcd60e51b8152600401610dbe90614564565b600260005560405163104d68fd60e31b81526001600160a01b0383166004820152734e6856503337a87f0c743aE7ad1156db9e953ED59063826b47e89060240160006040518083038186803b15801561241c57600080fd5b505af4158015612430573d6000803e3d6000fd5b50505050600190506001600055919050565b6000333014612590576001546201000090046001600160a01b03161561247b576040516337affdbf60e11b815260040160405180910390fd5b6001805462010000600160b01b031916336201000002179055838361249e6138fa565b6000838152600a919091016020908152604080832084845290915281205460ff1690036124de576040516318f4d05960e31b815260040160405180910390fd5b6124e661320c565b1561250457604051632aaa685560e11b815260040160405180910390fd5b604051633099b3fd60e21b815273DCFC66276155A9dF7375F17c2D73B0A2aF7097f99063c266cff49061254390339088908c908c908c90600401614988565b60006040518083038186803b15801561255b57600080fd5b505af415801561256f573d6000803e3d6000fd5b505050506001925050506001805462010000600160b01b0319169055612676565b838361259a6138fa565b6000838152600a919091016020908152604080832084845290915281205460ff1690036125da576040516318f4d05960e31b815260040160405180910390fd5b6125e261320c565b1561260057604051632aaa685560e11b815260040160405180910390fd5b604051633099b3fd60e21b815273DCFC66276155A9dF7375F17c2D73B0A2aF7097f99063c266cff49061263f90339088908c908c908c90600401614988565b60006040518083038186803b15801561265757600080fd5b505af415801561266b573d6000803e3d6000fd5b505050506001925050505b949350505050565b600061268861320c565b8015610eef57506126976138fa565b6001600160a01b0383166000908152600e91909101602052604090205460ff161592915050565b60006002600054036126e25760405162461bcd60e51b8152600401610dbe90614564565b600260005582826126f16138fa565b6000838152600a919091016020908152604080832084845290915281205460ff169003612731576040516318f4d05960e31b815260040160405180910390fd5b61273961320c565b1561275757604051632aaa685560e11b815260040160405180910390fd5b6040516332b3123760e11b81526004810186905260248101859052336044820152734e6856503337a87f0c743aE7ad1156db9e953ED590636566246e90606401610e7d565b60006127a66138fa565b600092835260080160205250604090205490565b6000610fcf613b4a565b60006127ce613a0c565b6000938452602090815260408085206001600160a01b039490941685529290525090205460ff1690565b600060026000540361281c5760405162461bcd60e51b8152600401610dbe90614564565b600260005561282961320c565b612846576040516304d824a560e41b815260040160405180910390fd5b604051635dd3a2c160e01b8152336004820152734e6856503337a87f0c743aE7ad1156db9e953ED590635dd3a2c19060240160006040518083038186803b15801561289057600080fd5b505af41580156128a4573d6000803e3d6000fd5b5050505060019050600160005590565b60006002600054036128d85760405162461bcd60e51b8152600401610dbe90614564565b6002600055604051639519832b60e01b8152600481018490526001600160a01b0383166024820152734e6856503337a87f0c743aE7ad1156db9e953ED590639519832b90604401602060405180830381865af415801561293c573d6000803e3d6000fd5b505050506040513d601f19601f82011682018060405250810190612960919061459b565b60016000559392505050565b6129846000805160206152a183398151915282611981565b50565b6129d66040518061012001604052806000815260200160008152602001600081526020016000815260200160008152602001600081526020016000815260200160008152602001600081525090565b604080516345f1848f60e11b81526001600160a01b0386166004820152843560248201526020850135604482015290840135606482015260608401356084820152608084013560a482015260a084013560c482015260c084013560e48201526101048101839052734e6856503337a87f0c743aE7ad1156db9e953ED590638be3091e906101240161012060405180830381865af4158015612a7b573d6000803e3d6000fd5b505050506040513d601f19601f8201168201806040525081019061267691906146cd565b6000612aa96138fa565b60009283526005016020525060409020546001600160a01b031690565b6060612ad06138fa565b600083815260059190910160205260409020546001600160a01b03166338b05852612af96138fa565b6000858152600491820160205260409081902090516001600160e01b031960e085901b168152612b2992016149b9565b600060405180830381865afa158015612b46573d6000803e3d6000fd5b505050506040513d6000823e601f3d908101601f19168201604052610eef9190810190614f9a565b600080612b796138fa565b6001600160a01b0384166000908152600d919091016020526040812091505b612ba182613b78565b811015612cd7576000612bb48383613b82565b90506000734e6856503337a87f0c743aE7ad1156db9e953ED563b55c692f8360008960006040518563ffffffff1660e01b8152600401612bf79493929190614638565b61012060405180830381865af4158015612c15573d6000803e3d6000fd5b505050506040513d601f19601f82011682018060405250810190612c3991906146cd565b519050612c44613b8e565b604051633c7f634960e11b815260048101849052602481018390526001600160a01b0391909116906378fec69290604401602060405180830381865afa158015612c92573d6000803e3d6000fd5b505050506040513d601f19601f82011682018060405250810190612cb6919061459b565b612cc09086615040565b945050508080612ccf9061482e565b915050612b98565b5050919050565b6000806000806000806000732C83af2ca64d83D8170c2F14eECf557ffF21aA2263724160ad896040518263ffffffff1660e01b8152600401612d209190615076565b60e060405180830381865af4158015612d3d573d6000803e3d6000fd5b505050506040513d601f19601f82011682018060405250810190612d6191906150fa565b959e949d50929b5090995097509550909350915050565b6129846000805160206152a183398151915282613221565b60608167ffffffffffffffff811115612dab57612dab61465c565b604051908082528060200260200182016040528015612dde57816020015b6060815260200190600190039081612dc95790505b50905060005b82811015612e7e57612e4e30858584818110612e0257612e026147cc565b9050602002810190612e14919061515a565b8080601f016020809104026020016040519081016040528093929190818152602001838380828437600092019190915250613b9892505050565b828281518110612e6057612e606147cc565b60200260200101819052508080612e769061482e565b915050612de4565b5092915050565b6000600260005403612ea95760405162461bcd60e51b8152600401610dbe90614564565b60026000558282612eb86138fa565b6000838152600a919091016020908152604080832084845290915281205460ff169003612ef8576040516318f4d05960e31b815260040160405180910390fd5b612f0061320c565b15612f1e57604051632aaa685560e11b815260040160405180910390fd5b6040516301402dfb60e31b8152734e6856503337a87f0c743aE7ad1156db9e953ED590630a016fd890612f5c90889088903390600090600401614638565b602060405180830381865af4158015612f79573d6000803e3d6000fd5b505050506040513d601f19601f82011682018060405250810190612f9d919061459b565b50600192505050600160005592915050565b612fb761320c565b15612fd557604051632aaa685560e11b815260040160405180910390fd5b33612fde6127ba565b6001600160a01b0316146130045760405162461bcd60e51b8152600401610dbe90614847565b73984Df019F3d1836c3360F7B30e098bB69BE0B9d963b8f117cd6040518163ffffffff1660e01b815260040160006040518083038186803b15801561304857600080fd5b505af4158015611399573d6000803e3d6000fd5b600033301461315d576001546201000090046001600160a01b031615613095576040516337affdbf60e11b815260040160405180910390fd5b6001805462010000600160b01b03191633620100000217905583836130b86138fa565b6000838152600a919091016020908152604080832084845290915281205460ff1690036130f8576040516318f4d05960e31b815260040160405180910390fd5b61310061320c565b1561311e57604051632aaa685560e11b815260040160405180910390fd5b604051635436151f60e11b815273DCFC66276155A9dF7375F17c2D73B0A2aF7097f99063a86c2a3e9061254390339088908c908c908c90600401614988565b83836131676138fa565b6000838152600a919091016020908152604080832084845290915281205460ff1690036131a7576040516318f4d05960e31b815260040160405180910390fd5b6131af61320c565b156131cd57604051632aaa685560e11b815260040160405180910390fd5b604051635436151f60e11b815273DCFC66276155A9dF7375F17c2D73B0A2aF7097f99063a86c2a3e9061263f90339088908c908c908c90600401614988565b6000806132176138fa565b6001015411905090565b336001600160a01b0382160361325c57604051631eb5512b60e31b8152600481018390526001600160a01b0382166024820152604401610dbe565b6117518282613bbd565b600060026000540361328a5760405162461bcd60e51b8152600401610dbe90614564565b600260005585856132996138fa565b6000838152600a919091016020908152604080832084845290915281205460ff1690036132d9576040516318f4d05960e31b815260040160405180910390fd5b6132e161320c565b156132ff57604051632aaa685560e11b815260040160405180910390fd5b613307613956565b6040516396994e3760e01b8152336004820152602481018a9052604481018790526001600160a01b0391909116906396994e379034906064016000604051808303818588803b15801561335957600080fd5b505af115801561336d573d6000803e3d6000fd5b505060405163aeb2d5bd60e01b8152732C83af2ca64d83D8170c2F14eECf557ffF21aA22935063aeb2d5bd92506111c591508b908b9033908c908c908c906004016145fa565b6133bb61320c565b156133d957604051632aaa685560e11b815260040160405180910390fd5b336133e26127ba565b6001600160a01b0316146134085760405162461bcd60e51b8152600401610dbe90614847565b60405163e3a9833360e01b8152600481018390526024810182905273984Df019F3d1836c3360F7B30e098bB69BE0B9d99063e3a983339060440160006040518083038186803b15801561345a57600080fd5b505af4158015612072573d6000803e3d6000fd5b60606134786138fa565b60040160008381526020019081526020016000208054806020026020016040519081016040528092919081815260200182805480156134f457602002820191906000526020600020906000905b825461010083900a900460ff168152602060019283018181049485019490930390920291018084116134c55790505b50505050509050919050565b6000734e6856503337a87f0c743aE7ad1156db9e953ED563c59cf0e9836135256138fa565b6007016000878152602001908152602001600020546040518363ffffffff1660e01b8152600401613560929190918252602082015260400190565b602060405180830381865af415801561357d573d6000803e3d6000fd5b505050506040513d601f19601f820116820180604052508101906115d1919061459b565b336135aa6127ba565b6001600160a01b0316146135d05760405162461bcd60e51b8152600401610dbe90614847565b6135d986611887565b156135f65760405162dc149f60e41b815260040160405180910390fd5b60405163ea57481760e01b8152600481018790526024810186905260448101859052606481018490526084810183905260a4810182905273984Df019F3d1836c3360F7B30e098bB69BE0B9d99063ea5748179060c40160006040518083038186803b15801561366457600080fd5b505af4158015613678573d6000803e3d6000fd5b50505050505050505050565b600061368e6138fa565b6000938452600901602090815260408085209385529290525090205490565b336136b66127ba565b6001600160a01b0316146136dc5760405162461bcd60e51b8152600401610dbe90614847565b6001600160a01b0381166137415760405162461bcd60e51b815260206004820152602660248201527f4f776e61626c653a206e6577206f776e657220697320746865207a65726f206160448201526564647265737360d01b6064820152608401610dbe565b61298481613add565b600060026000540361376e5760405162461bcd60e51b8152600401610dbe90614564565b6002600055858561377d6138fa565b6000838152600a919091016020908152604080832084845290915281205460ff1690036137bd576040516318f4d05960e31b815260040160405180910390fd5b6137c561320c565b156137e357604051632aaa685560e11b815260040160405180910390fd5b60405163606c3acd60e01b8152732C83af2ca64d83D8170c2F14eECf557ffF21aA229063606c3acd906111c5908b908b9033908c908c908c906004016145fa565b600061382e61320c565b1561384c57604051632aaa685560e11b815260040160405180910390fd5b6138646000805160206152a1833981519152336127c4565b6138815760405163a5523ee560e01b815260040160405180910390fd5b60405163f4a0997f60e01b81526004810183905273984Df019F3d1836c3360F7B30e098bB69BE0B9d99063f4a0997f90602401611b80565b6060610eef6138c66138fa565b6001600160a01b0384166000908152600d9190910160205260409020613bd9565b60006138f16138fa565b60010154905090565b600080610eef60017f8041b8421ebd495cc61f38c788c9eb100daccf9bd36aa0bb920b7a15b2e049656151a8565b600080610eef60017f4abde63c3e81aefa5764b017968bc473e83e093d7e1a10247d19e0a3e41240186151a8565b6000613960613be4565b905090565b60007f360894a13ba1a3210667c828492db98dca3e2076cc3735a920a3ca505d382bbc610fcf565b613998600082613a5c565b6129846000805160206152a183398151915282613a5c565b60006139ba613928565b546001600160a01b0316146139e2576040516304b79d6360e51b815260040160405180910390fd5b806139eb613928565b80546001600160a01b0319166001600160a01b039290921691909117905550565b600080610eef60017f35e4a72724550e3953b041d501f29ff9ff417812c2917a203d9c4833b9d1d6f96151a8565b600081815260018301602052604081205415156115d1565b6129848133613bfc565b613a6682826127c4565b611751576001613a74613a0c565b6000848152602091825260408082206001600160a01b0386168084529352808220805460ff1916941515949094179093559151339285917f2f8788117e7eff1d82e926ec794901d17c78024a50270940304540a733656f0d9190a45050565b6000613960613c60565b6000613ae7613b4a565b546001600160a01b0316905081613afc613b4a565b80546001600160a01b0319166001600160a01b03928316179055604051838216918316907f8be0079c531659141344cd1fd0a4f28419497f9722a3daafe3b4186f6b6457e090600090a35050565b600080610eef60017f9acda75aebd150dd434541a4747a6dc606f4f1a59662477e67daf1fc0bf9e0aa6151a8565b6000610eef825490565b60006115d18383613c79565b6000613960613ca3565b60606115d183836040518060600160405280602781526020016152c160279139613cc3565b613bc682611429565b613bcf81613a52565b61199d8383613da0565b6060610eef82613e18565b600061396069151bdad95b95985d5b1d60b21b613e73565b613c0682826127c4565b61175157613c1e816001600160a01b03166014613ed4565b613c29836020613ed4565b604051602001613c3a9291906151bb565b60408051601f198184030181529082905262461bcd60e51b8252610dbe91600401615230565b60006139606a14995cd95c9d99519d5b9960aa1b613e73565b6000826000018281548110613c9057613c906147cc565b9060005260206000200154905092915050565b60006139607121bab93932b731bca1b7b73a3937b63632b960711b613e73565b60606001600160a01b0384163b613d2b5760405162461bcd60e51b815260206004820152602660248201527f416464726573733a2064656c65676174652063616c6c20746f206e6f6e2d636f6044820152651b9d1c9858dd60d21b6064820152608401610dbe565b600080856001600160a01b031685604051613d469190615243565b600060405180830381855af49150503d8060008114613d81576040519150601f19603f3d011682016040523d82523d6000602084013e613d86565b606091505b5091509150613d96828286614070565b9695505050505050565b613daa82826127c4565b15611751576000613db9613a0c565b6000848152602091825260408082206001600160a01b0386168084529352808220805460ff1916941515949094179093559151339285917ff6391f5c32d9c69d2a47ea670b442974b53935d1edc7fd64eb21e047a839171b9190a45050565b6060816000018054806020026020016040519081016040528092919081815260200182805480156134f457602002820191906000526020600020905b815481526020019060010190808311613e545750505050509050919050565b600080613e7e613928565b600084815260019190910160205260409020546001600160a01b0316905080610eef5760408051602081018590520160408051601f19818403018152908290526346e2ec9360e01b8252610dbe91600401615230565b60606000613ee383600261525f565b613eee906002615276565b67ffffffffffffffff811115613f0657613f0661465c565b6040519080825280601f01601f191660200182016040528015613f30576020820181803683370190505b509050600360fc1b81600081518110613f4b57613f4b6147cc565b60200101906001600160f81b031916908160001a905350600f60fb1b81600181518110613f7a57613f7a6147cc565b60200101906001600160f81b031916908160001a9053506000613f9e84600261525f565b613fa9906001615276565b90505b6001811115614021576f181899199a1a9b1b9c1cb0b131b232b360811b85600f1660108110613fdd57613fdd6147cc565b1a60f81b828281518110613ff357613ff36147cc565b60200101906001600160f81b031916908160001a90535060049490941c9361401a81615289565b9050613fac565b5083156115d15760405162461bcd60e51b815260206004820181905260248201527f537472696e67733a20686578206c656e67746820696e73756666696369656e746044820152606401610dbe565b6060831561407f5750816115d1565b82511561408f5782518084602001fd5b8160405162461bcd60e51b8152600401610dbe9190615230565b600080604083850312156140bc57600080fd5b50508035926020909101359150565b6000602082840312156140dd57600080fd5b81356001600160e01b0319811681146115d157600080fd5b60006020828403121561410757600080fd5b5035919050565b6001600160a01b038116811461298457600080fd5b60008060006060848603121561413857600080fd5b833592506020840135915060408401356141518161410e565b809150509250925092565b803560028110611bb557600080fd5b600080600080600060a0868803121561418357600080fd5b853594506020860135935061419a6040870161415c565b94979396509394606081013594506080013592915050565b6000806000606084860312156141c757600080fd5b83356141d28161410e565b925060208401356141e28161410e565b929592945050506040919091013590565b6000806040838503121561420657600080fd5b8235915060208301356142188161410e565b809150509250929050565b60008060006060848603121561423857600080fd5b8335925060208401356141e28161410e565b6020808252825182820181905260009190848201906040850190845b8181101561428257835183529284019291840191600101614266565b50909695505050505050565b65ffffffffffff8116811461298457600080fd5b6000806000606084860312156142b757600080fd5b833592506020840135915060408401356141518161428e565b6000806000606084860312156142e557600080fd5b505081359360208301359350604090920135919050565b60006020828403121561430e57600080fd5b81356115d18161410e565b6000806000806080858703121561432f57600080fd5b843593506020850135925060408501359150606085013561434f8161410e565b939692955090935050565b600080600083850361012081121561437157600080fd5b843561437c8161410e565b935060e0601f198201121561439057600080fd5b5060208401915061010084013590509250925092565b600061010082840312156143b957600080fd5b50919050565b600080602083850312156143d257600080fd5b823567ffffffffffffffff808211156143ea57600080fd5b818501915085601f8301126143fe57600080fd5b81358181111561440d57600080fd5b8660208260051b850101111561442257600080fd5b60209290920196919550909350505050565b60005b8381101561444f578181015183820152602001614437565b50506000910152565b60008151808452614470816020860160208601614434565b601f01601f19169290920160200192915050565b6000602080830181845280855180835260408601915060408160051b870101925083870160005b828110156144d957603f198886030184526144c7858351614458565b945092850192908501906001016144ab565b5092979650505050505050565b6020808252825182820181905260009190848201906040850190845b8181101561428257835160ff1683529284019291840191600101614502565b60008060008060008060c0878903121561453a57600080fd5b505084359660208601359650604086013595606081013595506080810135945060a0013592509050565b6020808252601f908201527f5265656e7472616e637947756172643a207265656e7472616e742063616c6c00604082015260600190565b6000602082840312156145ad57600080fd5b5051919050565b600080604083850312156145c757600080fd5b505080516020909101519092909150565b600281106145f657634e487b7160e01b600052602160045260246000fd5b9052565b868152602081018690526001600160a01b038516604082015260c0810161462460608301866145d8565b608082019390935260a00152949350505050565b93845260208401929092526001600160a01b03166040830152606082015260800190565b634e487b7160e01b600052604160045260246000fd5b604051610120810167ffffffffffffffff811182821017156146965761469661465c565b60405290565b604051601f8201601f1916810167ffffffffffffffff811182821017156146c5576146c561465c565b604052919050565b600061012082840312156146e057600080fd5b6146e8614672565b825181526020830151602082015260408301516040820152606083015160608201526080830151608082015260a083015160a082015260c083015160c082015260e083015160e08201526101008084015181830152508091505092915050565b600060e0828403121561475a57600080fd5b60405160e0810181811067ffffffffffffffff8211171561477d5761477d61465c565b8060405250825181526020830151602082015260408301516040820152606083015160608201526080830151608082015260a083015160a082015260c083015160c08201528091505092915050565b634e487b7160e01b600052603260045260246000fd5b8281526040602082015260006126766040830184614458565b60006020828403121561480d57600080fd5b81516115d18161410e565b634e487b7160e01b600052601160045260246000fd5b60006001820161484057614840614818565b5060010190565b6020808252818101527f4f776e61626c653a2063616c6c6572206973206e6f7420746865206f776e6572604082015260600190565b60006080828403121561488e57600080fd5b6040516080810181811067ffffffffffffffff821117156148b1576148b161465c565b806040525080915082516148c48161428e565b815260208301516148d48161410e565b8060208301525060408301516040820152606083015160608201525092915050565b600080610100838503121561490a57600080fd5b614914848461487c565b9150614923846080850161487c565b90509250929050565b8481526020810184905260e0810161494760408301856145d8565b825165ffffffffffff1660608381019190915260208401516001600160a01b03166080840152604084015160a08401529092015160c0909101529392505050565b6001600160a01b03958616815293909416602084015260408301919091526060820152608081019190915260a00190565b600060208083018184528085546149d4818490815260200190565b60008881526020812094509092505b81601f82011015614c5d57835460ff8082168552600882901c8116878601526040614a17818701838560101c1660ff169052565b6060614a2c818801848660181c1660ff169052565b6080614a4081890185878d1c1660ff169052565b60a0614a55818a01868860281c1660ff169052565b60c0614a6a818b01878960301c1660ff169052565b60e0614a7f818c01888a60381c1660ff169052565b60ff88871c8816166101008c0152614aa26101208c01888a60481c1660ff169052565b614ab76101408c01888a60501c1660ff169052565b614acc6101608c01888a60581c1660ff169052565b60ff88861c8816166101808c0152614aef6101a08c01888a60681c1660ff169052565b614b046101c08c01888a60701c1660ff169052565b614b196101e08c01888a60781c1660ff169052565b60ff88851c8816166102008c0152614b3c6102208c01888a60881c1660ff169052565b614b516102408c01888a60901c1660ff169052565b614b666102608c01888a60981c1660ff169052565b60ff88841c8816166102808c0152614b896102a08c01888a60a81c1660ff169052565b614b9e6102c08c01888a60b01c1660ff169052565b614bb36102e08c01888a60b81c1660ff169052565b60ff88831c8816166103008c0152614bd66103208c01888a60c81c1660ff169052565b614beb6103408c01888a60d01c1660ff169052565b614c006103608c01888a60d81c1660ff169052565b60ff88821c8816166103808c0152505050505050614c296103a08601828460e81c1660ff169052565b614c3e6103c08601828460f01c1660ff169052565b5060f81c6103e0840152600193909301926104009092019184016149e3565b92549281811015614c765760ff84168352918401916001015b81811015614c9057600884901c60ff168352918401916001015b81811015614caa57601084901c60ff168352918401916001015b81811015614cc457601884901c60ff168352918401916001015b81811015614cdc5783851c60ff168352918401916001015b81811015614cf657602884901c60ff168352918401916001015b81811015614d1057603084901c60ff168352918401916001015b81811015614d2a57603884901c60ff168352918401916001015b81811015614d4457604084901c60ff168352918401916001015b81811015614d5e57604884901c60ff168352918401916001015b81811015614d7857605084901c60ff168352918401916001015b81811015614d9257605884901c60ff168352918401916001015b81811015614dac57606084901c60ff168352918401916001015b81811015614dc657606884901c60ff168352918401916001015b81811015614de057607084901c60ff168352918401916001015b81811015614dfa57607884901c60ff168352918401916001015b81811015614e1457608084901c60ff168352918401916001015b81811015614e2e57608884901c60ff168352918401916001015b81811015614e4857609084901c60ff168352918401916001015b81811015614e6257609884901c60ff168352918401916001015b81811015614e7c5760a084901c60ff168352918401916001015b81811015614e965760a884901c60ff168352918401916001015b81811015614eb05760b084901c60ff168352918401916001015b81811015614eca5760b884901c60ff168352918401916001015b81811015614ee45760c084901c60ff168352918401916001015b81811015614efe5760c884901c60ff168352918401916001015b81811015614f185760d084901c60ff168352918401916001015b81811015614f325760d884901c60ff168352918401916001015b81811015614f4c5760e084901c60ff168352918401916001015b81811015614f665760e884901c60ff168352918401916001015b81811015614f805760f084901c60ff168352918401916001015b8181101561428257505060f89190911c8152019392505050565b60006020808385031215614fad57600080fd5b825167ffffffffffffffff80821115614fc557600080fd5b818501915085601f830112614fd957600080fd5b815181811115614feb57614feb61465c565b8060051b9150614ffc84830161469c565b818152918301840191848101908884111561501657600080fd5b938501935b838510156150345784518252938501939085019061501b565b98975050505050505050565b808201828112600083128015821682158216171561506057615060614818565b505092915050565b801515811461298457600080fd5b8135815260208083013590820152610100810160408301356150978161410e565b6001600160a01b031660408301526150b16060840161415c565b6150be60608401826145d8565b506080830135608083015260a083013560a083015260c083013560c083015260e08301356150eb81615068565b80151560e08401525092915050565b600080600080600080600060e0888a03121561511557600080fd5b875196506020880151955060408801519450606088015193506080880151925060a0880151915060c088015161514a81615068565b8091505092959891949750929550565b6000808335601e1984360301811261517157600080fd5b83018035915067ffffffffffffffff82111561518c57600080fd5b6020019150368190038213156151a157600080fd5b9250929050565b81810381811115610eef57610eef614818565b7f416363657373436f6e74726f6c3a206163636f756e74200000000000000000008152600083516151f3816017850160208801614434565b7001034b99036b4b9b9b4b733903937b6329607d1b6017918401918201528351615224816028840160208801614434565b01602801949350505050565b6020815260006115d16020830184614458565b60008251615255818460208701614434565b9190910192915050565b8082028115828204841417610eef57610eef614818565b80820180821115610eef57610eef614818565b60008161529857615298614818565b50600019019056fe97667070c54ef182b0f5858b034beac1b6f3089aa2d3188bb1e8929f4fa9b929416464726573733a206c6f772d6c6576656c2064656c65676174652063616c6c206661696c6564a26469706673582212200505eea82ccda0a0d24a3bbc6ae2be5eaa062943393293a93ee719fcd341b69264736f6c63430008130033",
  "deployedBytecode": "0x6080604052600436106103fa5760003560e01c8063826b47e811610213578063ac9650d811610123578063e8c9af63116100ab578063f43947c71161007a578063f43947c714610d03578063f4a0997f14610d23578063f5b541a614610d43578063fc70081014610d65578063ff5c086b14610d8557600080fd5b8063e8c9af6314610c83578063ea57481714610ca3578063f03bc5a514610cc3578063f2fde38b14610ce357600080fd5b8063d1cc9976116100f2578063d1cc997614610bee578063d547741f14610c03578063e0a1744314610c23578063e3a9833314610c36578063e6977c6a14610c5657600080fd5b8063ac9650d814610b6c578063b1d0f2f014610b99578063b8f117cd14610bb9578063c11333b114610bce57600080fd5b80639519832b116101a6578063a02be3dc11610175578063a02be3dc14610aa0578063a217fddf14610ac0578063a4c66bde14610ad5578063abc6f02514610af5578063ac8a584a14610b4c57600080fd5b80639519832b146109b35780639870d7fe146109d35780639e0998b2146109f35780639f6c315914610a8057600080fd5b8063891d5965116101e2578063891d5965146109495780638da5cb5b1461096957806391d148541461097e57806394e75a3e1461099e57600080fd5b8063826b47e8146108c95780638469973f146108e9578063862fd6e514610909578063886f4b451461092957600080fd5b806336568abe1161030e57806354227dec116102a1578063715018a611610270578063715018a61461082d578063733ac7fc146108425780637b588aaa1461085757806380a7de8614610877578063812784b0146108a957600080fd5b806354227dec146107ad5780635ca65d57146107cd5780636a23a95c146107ed57806370c641a61461080d57600080fd5b80634e78fecc116102dd5780634e78fecc1461072d5780634ebeb0491461074d57806352239c701461076d57806353571ee71461078d57600080fd5b806336568abe146106ab5780633d03b9da146106cb578063428c3a81146106ed57806349f2ccbf1461070d57600080fd5b80631794bb3c1161039157806329985e5a1161036057806329985e5a146106215780632af64bd3146106365780632e6c5e671461064b5780632ef5ddaf1461066b5780632f2ff15d1461068b57600080fd5b80631794bb3c1461054957806317b72ff41461056b578063248a9ca31461058b57806324e4ae05146105ab57600080fd5b806304f3bcec116103cd57806304f3bcec146104c0578063062ea294146104ed5780630b60d6d3146105225780631316529d1461053557600080fd5b806301cf2235146103ff57806301ffc9a714610434578063021b89d41461045457806303e5fb5914610492575b600080fd5b34801561040b57600080fd5b5061041f61041a3660046140a9565b610d9a565b60405190151581526020015b60405180910390f35b34801561044057600080fd5b5061041f61044f3660046140cb565b610ebe565b34801561046057600080fd5b5061047461046f3660046140f5565b610ef5565b604080518251815260209283015160ff16928101929092520161042b565b34801561049e57600080fd5b506104b26104ad3660046140f5565b610f3f565b60405190815260200161042b565b3480156104cc57600080fd5b506104d5610fc5565b6040516001600160a01b03909116815260200161042b565b3480156104f957600080fd5b5061050d610508366004614123565b610fde565b6040805192835260208301919091520161042b565b61041f61053036600461416b565b611078565b34801561054157600080fd5b5060016104b2565b34801561055557600080fd5b506105696105643660046141b2565b611209565b005b34801561057757600080fd5b506104b26105863660046141f3565b61139f565b34801561059757600080fd5b506104b26105a63660046140f5565b611429565b3480156105b757600080fd5b506105cb6105c6366004614223565b611447565b60405161042b9190600060e082019050825182526020830151602083015260408301516040830152606083015160608301526080830151608083015260a083015160a083015260c083015160c083015292915050565b34801561062d57600080fd5b506105696115d8565b34801561064257600080fd5b5061041f611755565b34801561065757600080fd5b5061041f6106663660046140f5565b611887565b34801561067757600080fd5b5061041f61068636600461416b565b6118a7565b34801561069757600080fd5b506105696106a63660046141f3565b611981565b3480156106b757600080fd5b506105696106c63660046141f3565b6119a2565b3480156106d757600080fd5b506106e06119cd565b60405161042b919061424a565b3480156106f957600080fd5b5061041f6107083660046140f5565b611aef565b34801561071957600080fd5b5061041f6107283660046142a2565b611bba565b34801561073957600080fd5b506104b26107483660046140f5565b611d1c565b34801561075957600080fd5b506105696107683660046142d0565b611d7e565b34801561077957600080fd5b506104b26107883660046140f5565b611e49565b34801561079957600080fd5b506105696107a83660046140f5565b611e67565b3480156107b957600080fd5b506104b26107c83660046140f5565b611fb1565b3480156107d957600080fd5b506105696107e83660046140a9565b611fcf565b3480156107f957600080fd5b5061041f6108083660046140a9565b61207a565b34801561081957600080fd5b506104b26108283660046141f3565b6121fb565b34801561083957600080fd5b50610569612289565b34801561084e57600080fd5b506104b26122c4565b34801561086357600080fd5b506105696108723660046140a9565b6122d4565b34801561088357600080fd5b506108976108923660046140a9565b61234d565b60405160ff909116815260200161042b565b3480156108b557600080fd5b506104d56108c43660046140f5565b612379565b3480156108d557600080fd5b5061041f6108e43660046142fc565b6123a0565b3480156108f557600080fd5b5061041f610904366004614319565b612442565b34801561091557600080fd5b5061041f6109243660046142fc565b61267e565b34801561093557600080fd5b5061041f6109443660046140a9565b6126be565b34801561095557600080fd5b506104b26109643660046140f5565b61279c565b34801561097557600080fd5b506104d56127ba565b34801561098a57600080fd5b5061041f6109993660046141f3565b6127c4565b3480156109aa57600080fd5b5061041f6127f8565b3480156109bf57600080fd5b506104b26109ce3660046141f3565b6128b4565b3480156109df57600080fd5b506105696109ee3660046142fc565b61296c565b3480156109ff57600080fd5b50610a13610a0e36600461435a565b612987565b60405161042b9190600061012082019050825182526020830151602083015260408301516040830152606083015160608301526080830151608083015260a083015160a083015260c083015160c083015260e083015160e083015261010080840151818401525092915050565b348015610a8c57600080fd5b506104d5610a9b3660046140f5565b612a9f565b348015610aac57600080fd5b506106e0610abb3660046140f5565b612ac6565b348015610acc57600080fd5b506104b2600081565b348015610ae157600080fd5b506104b2610af03660046142fc565b612b6e565b348015610b0157600080fd5b50610b15610b103660046143a6565b612cde565b604080519788526020880196909652948601939093526060850191909152608084015260a0830152151560c082015260e00161042b565b348015610b5857600080fd5b50610569610b673660046142fc565b612d78565b348015610b7857600080fd5b50610b8c610b873660046143bf565b612d90565b60405161042b9190614484565b348015610ba557600080fd5b5061041f610bb43660046140a9565b612e85565b348015610bc557600080fd5b50610569612faf565b348015610bda57600080fd5b5061041f610be9366004614319565b61305c565b348015610bfa57600080fd5b5061041f61320c565b348015610c0f57600080fd5b50610569610c1e3660046141f3565b613221565b61041f610c3136600461416b565b613266565b348015610c4257600080fd5b50610569610c513660046140a9565b6133b3565b348015610c6257600080fd5b50610c76610c713660046140f5565b61346e565b60405161042b91906144e6565b348015610c8f57600080fd5b506104b2610c9e3660046140a9565b613500565b348015610caf57600080fd5b50610569610cbe366004614521565b6135a1565b348015610ccf57600080fd5b506104b2610cde3660046140a9565b613684565b348015610cef57600080fd5b50610569610cfe3660046142fc565b6136ad565b348015610d0f57600080fd5b5061041f610d1e36600461416b565b61374a565b348015610d2f57600080fd5b5061041f610d3e3660046140f5565b613824565b348015610d4f57600080fd5b506104b26000805160206152a183398151915281565b348015610d7157600080fd5b506106e0610d803660046142fc565b6138b9565b348015610d9157600080fd5b506104b26138e7565b6000600260005403610dc75760405162461bcd60e51b8152600401610dbe90614564565b60405180910390fd5b60026000558282610dd66138fa565b6000838152600a919091016020908152604080832084845290915281205460ff169003610e16576040516318f4d05960e31b815260040160405180910390fd5b610e1e61320c565b15610e3c57604051632aaa685560e11b815260040160405180910390fd5b604051632097fb8960e01b8152600481018690526024810185905233604482015273__$bfa1fc126f9f960b1bd3bae8c14d9c594e$__90632097fb89906064015b60006040518083038186803b158015610e9557600080fd5b505af4158015610ea9573d6000803e3d6000fd5b50505050600192505050600160005592915050565b60006001600160e01b03198216637965db0b60e01b1480610eef57506301ffc9a760e01b6001600160e01b03198316145b92915050565b6040805180820190915260008082526020820152610f116138fa565b600092835260020160209081526040928390208351808501909452805484526001015460ff16908301525090565b6000610f496138fa565b6000838152600591909101602090815260409182902054825163128e5b8560e01b815292516001600160a01b039091169263128e5b859260048083019391928290030181865afa158015610fa1573d6000803e3d6000fd5b505050506040513d601f19601f82011682018060405250810190610eef919061459b565b6000610fcf613928565b546001600160a01b0316919050565b60405163018ba8a560e21b815260048101849052602481018390526001600160a01b0382166044820152600090819073__$e7d72ce98f1dce1f33c815a57604cff5ab$__9063062ea294906064016040805180830381865af4158015611048573d6000803e3d6000fd5b505050506040513d601f19601f8201168201806040525081019061106c91906145b4565b90969095509350505050565b600060026000540361109c5760405162461bcd60e51b8152600401610dbe90614564565b600260005585856110ab6138fa565b6000838152600a919091016020908152604080832084845290915281205460ff1690036110eb576040516318f4d05960e31b815260040160405180910390fd5b6110f361320c565b1561111157604051632aaa685560e11b815260040160405180910390fd5b611119613956565b6040516396994e3760e01b8152336004820152602481018a9052604481018790526001600160a01b0391909116906396994e379034906064016000604051808303818588803b15801561116b57600080fd5b505af115801561117f573d6000803e3d6000fd5b505060405163606c3acd60e01b815273__$bfa1fc126f9f960b1bd3bae8c14d9c594e$__935063606c3acd92506111c591508b908b9033908c908c908c906004016145fa565b60006040518083038186803b1580156111dd57600080fd5b505af41580156111f1573d6000803e3d6000fd5b50505050600192505050600160005595945050505050565b600154610100900460ff161580801561122657506001805460ff16105b8061123f5750303b15801561123f57506001805460ff16145b6112a25760405162461bcd60e51b815260206004820152602e60248201527f496e697469616c697a61626c653a20636f6e747261637420697320616c72656160448201526d191e481a5b9a5d1a585b1a5e995960921b6064820152608401610dbe565b6001805460ff19168117905580156112c4576001805461ff0019166101001790555b60006112ce613965565b6001600160a01b03160361132f5760405162461bcd60e51b815260206004820152602260248201527f4d7573742062652063616c6c65642066726f6d2070726f787920636f6e74726160448201526118dd60f21b6064820152608401610dbe565b816113386138fa565b5561134284613741565b61134b8461398d565b611354836139b0565b8015611399576001805461ff00191681556040519081527f7f26b83ff96e1f2b6a682f133852f6798a09c465da95921460cefb38474024989060200160405180910390a15b50505050565b60405163b55c692f60e01b815260009073__$e7d72ce98f1dce1f33c815a57604cff5ab$__9063b55c692f906113df908690859087908290600401614638565b61012060405180830381865af41580156113fd573d6000803e3d6000fd5b505050506040513d601f19601f8201168201806040525081019061142191906146cd565b519392505050565b6000611433613a0c565b600092835260205250604090206001015490565b6114876040518060e00160405280600081526020016000815260200160008152602001600081526020016000815260200160008152602001600081525090565b6114b5846114936138fa565b6001600160a01b0386166000908152600d919091016020526040902090613a3a565b156115d1576114fd6040518060e00160405280600080191681526020016000815260200160008152602001600081526020016000815260200160008152602001600081525090565b60408051639349fb4160e01b8152600481018790526001600160a01b03861660248201528251604482015260208301516064820152908201516084820152606082015160a4820152608082015160c482015260a082015160e482015260c0820151610104820152610124810184905273__$e7d72ce98f1dce1f33c815a57604cff5ab$__90639349fb41906101440160e060405180830381865af41580156115a9573d6000803e3d6000fd5b505050506040513d601f19601f820116820180604052508101906115cd9190614748565b9150505b9392505050565b60006115e26119cd565b905060005b8151811015611751576000828281518110611604576116046147cc565b602002602001015190506000611618613928565b54604080517f5265736f6c766572206d697373696e67207461726765743a200000000000000060208201526039808201869052825180830390910181526059820192839052636795dbcd60e01b9092526001600160a01b0390921691636795dbcd9161168991869190605d016147e2565b602060405180830381865afa1580156116a6573d6000803e3d6000fd5b505050506040513d601f19601f820116820180604052508101906116ca91906147fb565b9050806116d5613928565b6000848152600191909101602090815260409182902080546001600160a01b0319166001600160a01b039485161790558151858152928416908301527f88a93678a3692f6789d9546fc621bf7234b101ddb7d4fe479455112831b8aa68910160405180910390a1505080806117499061482e565b9150506115e7565b5050565b6000806117606119cd565b905060005b815181101561187e576000828281518110611782576117826147cc565b60200260200101519050611794613928565b600082815260019190910160205260409020546001600160a01b03166117b8613928565b546040516321f8a72160e01b8152600481018490526001600160a01b03909116906321f8a72190602401602060405180830381865afa1580156117ff573d6000803e3d6000fd5b505050506040513d601f19601f8201168201806040525081019061182391906147fb565b6001600160a01b031614158061185c5750600061183e613928565b600083815260019190910160205260409020546001600160a01b0316145b1561186b576000935050505090565b50806118768161482e565b915050611765565b50600191505090565b60006118916138fa565b6000928352600801602052506040902054151590565b60006002600054036118cb5760405162461bcd60e51b8152600401610dbe90614564565b600260005585856118da6138fa565b6000838152600a919091016020908152604080832084845290915281205460ff16900361191a576040516318f4d05960e31b815260040160405180910390fd5b61192261320c565b1561194057604051632aaa685560e11b815260040160405180910390fd5b60405163aeb2d5bd60e01b815273__$bfa1fc126f9f960b1bd3bae8c14d9c594e$__9063aeb2d5bd906111c5908b908b9033908c908c908c906004016145fa565b61198a82611429565b61199381613a52565b61199d8383613a5c565b505050565b604051631eb5512b60e31b8152600481018390526001600160a01b0382166024820152604401610dbe565b60408051600580825260c082019092526060916020820160a080368337019050509050742132b0b1b7b7283937bc3ca1b7b73a3937b63632b960591b81600081518110611a1c57611a1c6147cc565b6020026020010181815250507121bab93932b731bca1b7b73a3937b63632b960711b81600181518110611a5157611a516147cc565b6020026020010181815250507011d95b995cda5cd5985b1d5955985d5b1d607a1b81600281518110611a8557611a856147cc565b6020026020010181815250506a14995cd95c9d99519d5b9960aa1b81600381518110611ab357611ab36147cc565b60200260200101818152505069151bdad95b95985d5b1d60b21b81600481518110611ae057611ae06147cc565b60200260200101818152505090565b6000611af961320c565b15611b1757604051632aaa685560e11b815260040160405180910390fd5b611b2f6000805160206152a1833981519152336127c4565b611b4c5760405163a5523ee560e01b815260040160405180910390fd5b60405163428c3a8160e01b81526004810183905273__$53b43b4bdeb2460d1113627ef627de0cf6$__9063428c3a81906024015b60006040518083038186803b158015611b9857600080fd5b505af4158015611bac573d6000803e3d6000fd5b50505050600190505b919050565b6000600260005403611bde5760405162461bcd60e51b8152600401610dbe90614564565b60026000558383611bed6138fa565b6000838152600a919091016020908152604080832084845290915281205460ff169003611c2d576040516318f4d05960e31b815260040160405180910390fd5b611c3561320c565b15611c5357604051632aaa685560e11b815260040160405180910390fd5b611c5b6138fa565b600087815260059190910160205260409020546001600160a01b031663f3f7f452611c846138fa565b6000898152600a91909101602090815260408083208a84529091529081902054905160e083901b6001600160e01b031916815260ff909116600482015233602482015265ffffffffffff87166044820152606401600060405180830381600087803b158015611cf257600080fd5b505af1158015611d06573d6000803e3d6000fd5b5050505060019250505060016000559392505050565b6000611d266138fa565b60008381526005919091016020908152604091829020548251631e25031760e01b815292516001600160a01b0390911692631e2503179260048083019391928290030181865afa158015610fa1573d6000803e3d6000fd5b611d8661320c565b15611da457604051632aaa685560e11b815260040160405180910390fd5b33611dad6127ba565b6001600160a01b031614611dd35760405162461bcd60e51b8152600401610dbe90614847565b604051634ebeb04960e01b815260048101849052602481018390526044810182905273__$53b43b4bdeb2460d1113627ef627de0cf6$__90634ebeb0499060640160006040518083038186803b158015611e2c57600080fd5b505af4158015611e40573d6000803e3d6000fd5b50505050505050565b6000611e536138fa565b600092835260070160205250604090205490565b600260005403611e895760405162461bcd60e51b8152600401610dbe90614564565b6002600055611e9661320c565b15611eb457604051632aaa685560e11b815260040160405180910390fd5b6040516353571ee760e01b81526004810182905273__$53b43b4bdeb2460d1113627ef627de0cf6$__906353571ee79060240160006040518083038186803b158015611eff57600080fd5b505af4158015611f13573d6000803e3d6000fd5b5050505073__$e7d72ce98f1dce1f33c815a57604cff5ab$__639519832b82611f3a613ad3565b6040516001600160e01b031960e085901b16815260048101929092526001600160a01b03166024820152604401602060405180830381865af4158015611f84573d6000803e3d6000fd5b505050506040513d601f19601f82011682018060405250810190611fa8919061459b565b50506001600055565b6000611fbb6138fa565b600092835260030160205250604090205490565b33611fd86127ba565b6001600160a01b031614611ffe5760405162461bcd60e51b8152600401610dbe90614847565b6120066138fa565b6000838152600591909101602052604090819020549051636aa65aaf60e01b8152600481018390526001600160a01b0390911690636aa65aaf906024015b600060405180830381600087803b15801561205e57600080fd5b505af1158015612072573d6000803e3d6000fd5b505050505050565b600060026000540361209e5760405162461bcd60e51b8152600401610dbe90614564565b60026000556120ab61320c565b156120c957604051632aaa685560e11b815260040160405180910390fd5b604051631a88ea5760e21b81526004810184905260248101839052600090819073__$53b43b4bdeb2460d1113627ef627de0cf6$__90636a23a95c9060440161010060405180830381865af4158015612126573d6000803e3d6000fd5b505050506040513d601f19601f8201168201806040525081019061214a91906148f6565b6040516305ed050d60e51b8152919350915073__$bfa1fc126f9f960b1bd3bae8c14d9c594e$__9063bda0a1a09061218d9088908890600090889060040161492c565b60006040518083038186803b1580156121a557600080fd5b505af41580156121b9573d6000803e3d6000fd5b50506040516305ed050d60e51b815273__$bfa1fc126f9f960b1bd3bae8c14d9c594e$__925063bda0a1a09150610e7d9088908890600190879060040161492c565b60405163b55c692f60e01b815260009073__$e7d72ce98f1dce1f33c815a57604cff5ab$__9063b55c692f9061223b908690859087908290600401614638565b61012060405180830381865af4158015612259573d6000803e3d6000fd5b505050506040513d601f19601f8201168201806040525081019061227d91906146cd565b61010001519392505050565b336122926127ba565b6001600160a01b0316146122b85760405162461bcd60e51b8152600401610dbe90614847565b6122c26000613add565b565b60006122ce6138fa565b54919050565b336122dd6127ba565b6001600160a01b0316146123035760405162461bcd60e51b8152600401610dbe90614847565b61230b6138fa565b6000838152600591909101602052604090819020549051636c5d6df160e01b8152600481018390526001600160a01b0390911690636c5d6df190602401612044565b60006123576138fa565b6000938452600a01602090815260408085209385529290525090205460ff1690565b60006123836138fa565b60009283526006016020525060409020546001600160a01b031690565b60006002600054036123c45760405162461bcd60e51b8152600401610dbe90614564565b600260005560405163104d68fd60e31b81526001600160a01b038316600482015273__$e7d72ce98f1dce1f33c815a57604cff5ab$__9063826b47e89060240160006040518083038186803b15801561241c57600080fd5b505af4158015612430573d6000803e3d6000fd5b50505050600190506001600055919050565b6000333014612590576001546201000090046001600160a01b03161561247b576040516337affdbf60e11b815260040160405180910390fd5b6001805462010000600160b01b031916336201000002179055838361249e6138fa565b6000838152600a919091016020908152604080832084845290915281205460ff1690036124de576040516318f4d05960e31b815260040160405180910390fd5b6124e661320c565b1561250457604051632aaa685560e11b815260040160405180910390fd5b604051633099b3fd60e21b815273__$ddd42798825952179f0fb056787c1ba3b9$__9063c266cff49061254390339088908c908c908c90600401614988565b60006040518083038186803b15801561255b57600080fd5b505af415801561256f573d6000803e3d6000fd5b505050506001925050506001805462010000600160b01b0319169055612676565b838361259a6138fa565b6000838152600a919091016020908152604080832084845290915281205460ff1690036125da576040516318f4d05960e31b815260040160405180910390fd5b6125e261320c565b1561260057604051632aaa685560e11b815260040160405180910390fd5b604051633099b3fd60e21b815273__$ddd42798825952179f0fb056787c1ba3b9$__9063c266cff49061263f90339088908c908c908c90600401614988565b60006040518083038186803b15801561265757600080fd5b505af415801561266b573d6000803e3d6000fd5b505050506001925050505b949350505050565b600061268861320c565b8015610eef57506126976138fa565b6001600160a01b0383166000908152600e91909101602052604090205460ff161592915050565b60006002600054036126e25760405162461bcd60e51b8152600401610dbe90614564565b600260005582826126f16138fa565b6000838152600a919091016020908152604080832084845290915281205460ff169003612731576040516318f4d05960e31b815260040160405180910390fd5b61273961320c565b1561275757604051632aaa685560e11b815260040160405180910390fd5b6040516332b3123760e11b8152600481018690526024810185905233604482015273__$e7d72ce98f1dce1f33c815a57604cff5ab$__90636566246e90606401610e7d565b60006127a66138fa565b600092835260080160205250604090205490565b6000610fcf613b4a565b60006127ce613a0c565b6000938452602090815260408085206001600160a01b039490941685529290525090205460ff1690565b600060026000540361281c5760405162461bcd60e51b8152600401610dbe90614564565b600260005561282961320c565b612846576040516304d824a560e41b815260040160405180910390fd5b604051635dd3a2c160e01b815233600482015273__$e7d72ce98f1dce1f33c815a57604cff5ab$__90635dd3a2c19060240160006040518083038186803b15801561289057600080fd5b505af41580156128a4573d6000803e3d6000fd5b5050505060019050600160005590565b60006002600054036128d85760405162461bcd60e51b8152600401610dbe90614564565b6002600055604051639519832b60e01b8152600481018490526001600160a01b038316602482015273__$e7d72ce98f1dce1f33c815a57604cff5ab$__90639519832b90604401602060405180830381865af415801561293c573d6000803e3d6000fd5b505050506040513d601f19601f82011682018060405250810190612960919061459b565b60016000559392505050565b6129846000805160206152a183398151915282611981565b50565b6129d66040518061012001604052806000815260200160008152602001600081526020016000815260200160008152602001600081526020016000815260200160008152602001600081525090565b604080516345f1848f60e11b81526001600160a01b0386166004820152843560248201526020850135604482015290840135606482015260608401356084820152608084013560a482015260a084013560c482015260c084013560e4820152610104810183905273__$e7d72ce98f1dce1f33c815a57604cff5ab$__90638be3091e906101240161012060405180830381865af4158015612a7b573d6000803e3d6000fd5b505050506040513d601f19601f8201168201806040525081019061267691906146cd565b6000612aa96138fa565b60009283526005016020525060409020546001600160a01b031690565b6060612ad06138fa565b600083815260059190910160205260409020546001600160a01b03166338b05852612af96138fa565b6000858152600491820160205260409081902090516001600160e01b031960e085901b168152612b2992016149b9565b600060405180830381865afa158015612b46573d6000803e3d6000fd5b505050506040513d6000823e601f3d908101601f19168201604052610eef9190810190614f9a565b600080612b796138fa565b6001600160a01b0384166000908152600d919091016020526040812091505b612ba182613b78565b811015612cd7576000612bb48383613b82565b9050600073__$e7d72ce98f1dce1f33c815a57604cff5ab$__63b55c692f8360008960006040518563ffffffff1660e01b8152600401612bf79493929190614638565b61012060405180830381865af4158015612c15573d6000803e3d6000fd5b505050506040513d601f19601f82011682018060405250810190612c3991906146cd565b519050612c44613b8e565b604051633c7f634960e11b815260048101849052602481018390526001600160a01b0391909116906378fec69290604401602060405180830381865afa158015612c92573d6000803e3d6000fd5b505050506040513d601f19601f82011682018060405250810190612cb6919061459b565b612cc09086615040565b945050508080612ccf9061482e565b915050612b98565b5050919050565b600080600080600080600073__$bfa1fc126f9f960b1bd3bae8c14d9c594e$__63724160ad896040518263ffffffff1660e01b8152600401612d209190615076565b60e060405180830381865af4158015612d3d573d6000803e3d6000fd5b505050506040513d601f19601f82011682018060405250810190612d6191906150fa565b959e949d50929b5090995097509550909350915050565b6129846000805160206152a183398151915282613221565b60608167ffffffffffffffff811115612dab57612dab61465c565b604051908082528060200260200182016040528015612dde57816020015b6060815260200190600190039081612dc95790505b50905060005b82811015612e7e57612e4e30858584818110612e0257612e026147cc565b9050602002810190612e14919061515a565b8080601f016020809104026020016040519081016040528093929190818152602001838380828437600092019190915250613b9892505050565b828281518110612e6057612e606147cc565b60200260200101819052508080612e769061482e565b915050612de4565b5092915050565b6000600260005403612ea95760405162461bcd60e51b8152600401610dbe90614564565b60026000558282612eb86138fa565b6000838152600a919091016020908152604080832084845290915281205460ff169003612ef8576040516318f4d05960e31b815260040160405180910390fd5b612f0061320c565b15612f1e57604051632aaa685560e11b815260040160405180910390fd5b6040516301402dfb60e31b815273__$e7d72ce98f1dce1f33c815a57604cff5ab$__90630a016fd890612f5c90889088903390600090600401614638565b602060405180830381865af4158015612f79573d6000803e3d6000fd5b505050506040513d601f19601f82011682018060405250810190612f9d919061459b565b50600192505050600160005592915050565b612fb761320c565b15612fd557604051632aaa685560e11b815260040160405180910390fd5b33612fde6127ba565b6001600160a01b0316146130045760405162461bcd60e51b8152600401610dbe90614847565b73__$53b43b4bdeb2460d1113627ef627de0cf6$__63b8f117cd6040518163ffffffff1660e01b815260040160006040518083038186803b15801561304857600080fd5b505af4158015611399573d6000803e3d6000fd5b600033301461315d576001546201000090046001600160a01b031615613095576040516337affdbf60e11b815260040160405180910390fd5b6001805462010000600160b01b03191633620100000217905583836130b86138fa565b6000838152600a919091016020908152604080832084845290915281205460ff1690036130f8576040516318f4d05960e31b815260040160405180910390fd5b61310061320c565b1561311e57604051632aaa685560e11b815260040160405180910390fd5b604051635436151f60e11b815273__$ddd42798825952179f0fb056787c1ba3b9$__9063a86c2a3e9061254390339088908c908c908c90600401614988565b83836131676138fa565b6000838152600a919091016020908152604080832084845290915281205460ff1690036131a7576040516318f4d05960e31b815260040160405180910390fd5b6131af61320c565b156131cd57604051632aaa685560e11b815260040160405180910390fd5b604051635436151f60e11b815273__$ddd42798825952179f0fb056787c1ba3b9$__9063a86c2a3e9061263f90339088908c908c908c90600401614988565b6000806132176138fa565b6001015411905090565b336001600160a01b0382160361325c57604051631eb5512b60e31b8152600481018390526001600160a01b0382166024820152604401610dbe565b6117518282613bbd565b600060026000540361328a5760405162461bcd60e51b8152600401610dbe90614564565b600260005585856132996138fa565b6000838152600a919091016020908152604080832084845290915281205460ff1690036132d9576040516318f4d05960e31b815260040160405180910390fd5b6132e161320c565b156132ff57604051632aaa685560e11b815260040160405180910390fd5b613307613956565b6040516396994e3760e01b8152336004820152602481018a9052604481018790526001600160a01b0391909116906396994e379034906064016000604051808303818588803b15801561335957600080fd5b505af115801561336d573d6000803e3d6000fd5b505060405163aeb2d5bd60e01b815273__$bfa1fc126f9f960b1bd3bae8c14d9c594e$__935063aeb2d5bd92506111c591508b908b9033908c908c908c906004016145fa565b6133bb61320c565b156133d957604051632aaa685560e11b815260040160405180910390fd5b336133e26127ba565b6001600160a01b0316146134085760405162461bcd60e51b8152600401610dbe90614847565b60405163e3a9833360e01b8152600481018390526024810182905273__$53b43b4bdeb2460d1113627ef627de0cf6$__9063e3a983339060440160006040518083038186803b15801561345a57600080fd5b505af4158015612072573d6000803e3d6000fd5b60606134786138fa565b60040160008381526020019081526020016000208054806020026020016040519081016040528092919081815260200182805480156134f457602002820191906000526020600020906000905b825461010083900a900460ff168152602060019283018181049485019490930390920291018084116134c55790505b50505050509050919050565b600073__$e7d72ce98f1dce1f33c815a57604cff5ab$__63c59cf0e9836135256138fa565b6007016000878152602001908152602001600020546040518363ffffffff1660e01b8152600401613560929190918252602082015260400190565b602060405180830381865af415801561357d573d6000803e3d6000fd5b505050506040513d601f19601f820116820180604052508101906115d1919061459b565b336135aa6127ba565b6001600160a01b0316146135d05760405162461bcd60e51b8152600401610dbe90614847565b6135d986611887565b156135f65760405162dc149f60e41b815260040160405180910390fd5b60405163ea57481760e01b8152600481018790526024810186905260448101859052606481018490526084810183905260a4810182905273__$53b43b4bdeb2460d1113627ef627de0cf6$__9063ea5748179060c40160006040518083038186803b15801561366457600080fd5b505af4158015613678573d6000803e3d6000fd5b50505050505050505050565b600061368e6138fa565b6000938452600901602090815260408085209385529290525090205490565b336136b66127ba565b6001600160a01b0316146136dc5760405162461bcd60e51b8152600401610dbe90614847565b6001600160a01b0381166137415760405162461bcd60e51b815260206004820152602660248201527f4f776e61626c653a206e6577206f776e657220697320746865207a65726f206160448201526564647265737360d01b6064820152608401610dbe565b61298481613add565b600060026000540361376e5760405162461bcd60e51b8152600401610dbe90614564565b6002600055858561377d6138fa565b6000838152600a919091016020908152604080832084845290915281205460ff1690036137bd576040516318f4d05960e31b815260040160405180910390fd5b6137c561320c565b156137e357604051632aaa685560e11b815260040160405180910390fd5b60405163606c3acd60e01b815273__$bfa1fc126f9f960b1bd3bae8c14d9c594e$__9063606c3acd906111c5908b908b9033908c908c908c906004016145fa565b600061382e61320c565b1561384c57604051632aaa685560e11b815260040160405180910390fd5b6138646000805160206152a1833981519152336127c4565b6138815760405163a5523ee560e01b815260040160405180910390fd5b60405163f4a0997f60e01b81526004810183905273__$53b43b4bdeb2460d1113627ef627de0cf6$__9063f4a0997f90602401611b80565b6060610eef6138c66138fa565b6001600160a01b0384166000908152600d9190910160205260409020613bd9565b60006138f16138fa565b60010154905090565b600080610eef60017f8041b8421ebd495cc61f38c788c9eb100daccf9bd36aa0bb920b7a15b2e049656151a8565b600080610eef60017f4abde63c3e81aefa5764b017968bc473e83e093d7e1a10247d19e0a3e41240186151a8565b6000613960613be4565b905090565b60007f360894a13ba1a3210667c828492db98dca3e2076cc3735a920a3ca505d382bbc610fcf565b613998600082613a5c565b6129846000805160206152a183398151915282613a5c565b60006139ba613928565b546001600160a01b0316146139e2576040516304b79d6360e51b815260040160405180910390fd5b806139eb613928565b80546001600160a01b0319166001600160a01b039290921691909117905550565b600080610eef60017f35e4a72724550e3953b041d501f29ff9ff417812c2917a203d9c4833b9d1d6f96151a8565b600081815260018301602052604081205415156115d1565b6129848133613bfc565b613a6682826127c4565b611751576001613a74613a0c565b6000848152602091825260408082206001600160a01b0386168084529352808220805460ff1916941515949094179093559151339285917f2f8788117e7eff1d82e926ec794901d17c78024a50270940304540a733656f0d9190a45050565b6000613960613c60565b6000613ae7613b4a565b546001600160a01b0316905081613afc613b4a565b80546001600160a01b0319166001600160a01b03928316179055604051838216918316907f8be0079c531659141344cd1fd0a4f28419497f9722a3daafe3b4186f6b6457e090600090a35050565b600080610eef60017f9acda75aebd150dd434541a4747a6dc606f4f1a59662477e67daf1fc0bf9e0aa6151a8565b6000610eef825490565b60006115d18383613c79565b6000613960613ca3565b60606115d183836040518060600160405280602781526020016152c160279139613cc3565b613bc682611429565b613bcf81613a52565b61199d8383613da0565b6060610eef82613e18565b600061396069151bdad95b95985d5b1d60b21b613e73565b613c0682826127c4565b61175157613c1e816001600160a01b03166014613ed4565b613c29836020613ed4565b604051602001613c3a9291906151bb565b60408051601f198184030181529082905262461bcd60e51b8252610dbe91600401615230565b60006139606a14995cd95c9d99519d5b9960aa1b613e73565b6000826000018281548110613c9057613c906147cc565b9060005260206000200154905092915050565b60006139607121bab93932b731bca1b7b73a3937b63632b960711b613e73565b60606001600160a01b0384163b613d2b5760405162461bcd60e51b815260206004820152602660248201527f416464726573733a2064656c65676174652063616c6c20746f206e6f6e2d636f6044820152651b9d1c9858dd60d21b6064820152608401610dbe565b600080856001600160a01b031685604051613d469190615243565b600060405180830381855af49150503d8060008114613d81576040519150601f19603f3d011682016040523d82523d6000602084013e613d86565b606091505b5091509150613d96828286614070565b9695505050505050565b613daa82826127c4565b15611751576000613db9613a0c565b6000848152602091825260408082206001600160a01b0386168084529352808220805460ff1916941515949094179093559151339285917ff6391f5c32d9c69d2a47ea670b442974b53935d1edc7fd64eb21e047a839171b9190a45050565b6060816000018054806020026020016040519081016040528092919081815260200182805480156134f457602002820191906000526020600020905b815481526020019060010190808311613e545750505050509050919050565b600080613e7e613928565b600084815260019190910160205260409020546001600160a01b0316905080610eef5760408051602081018590520160408051601f19818403018152908290526346e2ec9360e01b8252610dbe91600401615230565b60606000613ee383600261525f565b613eee906002615276565b67ffffffffffffffff811115613f0657613f0661465c565b6040519080825280601f01601f191660200182016040528015613f30576020820181803683370190505b509050600360fc1b81600081518110613f4b57613f4b6147cc565b60200101906001600160f81b031916908160001a905350600f60fb1b81600181518110613f7a57613f7a6147cc565b60200101906001600160f81b031916908160001a9053506000613f9e84600261525f565b613fa9906001615276565b90505b6001811115614021576f181899199a1a9b1b9c1cb0b131b232b360811b85600f1660108110613fdd57613fdd6147cc565b1a60f81b828281518110613ff357613ff36147cc565b60200101906001600160f81b031916908160001a90535060049490941c9361401a81615289565b9050613fac565b5083156115d15760405162461bcd60e51b815260206004820181905260248201527f537472696e67733a20686578206c656e67746820696e73756666696369656e746044820152606401610dbe565b6060831561407f5750816115d1565b82511561408f5782518084602001fd5b8160405162461bcd60e51b8152600401610dbe9190615230565b600080604083850312156140bc57600080fd5b50508035926020909101359150565b6000602082840312156140dd57600080fd5b81356001600160e01b0319811681146115d157600080fd5b60006020828403121561410757600080fd5b5035919050565b6001600160a01b038116811461298457600080fd5b60008060006060848603121561413857600080fd5b833592506020840135915060408401356141518161410e565b809150509250925092565b803560028110611bb557600080fd5b600080600080600060a0868803121561418357600080fd5b853594506020860135935061419a6040870161415c565b94979396509394606081013594506080013592915050565b6000806000606084860312156141c757600080fd5b83356141d28161410e565b925060208401356141e28161410e565b929592945050506040919091013590565b6000806040838503121561420657600080fd5b8235915060208301356142188161410e565b809150509250929050565b60008060006060848603121561423857600080fd5b8335925060208401356141e28161410e565b6020808252825182820181905260009190848201906040850190845b8181101561428257835183529284019291840191600101614266565b50909695505050505050565b65ffffffffffff8116811461298457600080fd5b6000806000606084860312156142b757600080fd5b833592506020840135915060408401356141518161428e565b6000806000606084860312156142e557600080fd5b505081359360208301359350604090920135919050565b60006020828403121561430e57600080fd5b81356115d18161410e565b6000806000806080858703121561432f57600080fd5b843593506020850135925060408501359150606085013561434f8161410e565b939692955090935050565b600080600083850361012081121561437157600080fd5b843561437c8161410e565b935060e0601f198201121561439057600080fd5b5060208401915061010084013590509250925092565b600061010082840312156143b957600080fd5b50919050565b600080602083850312156143d257600080fd5b823567ffffffffffffffff808211156143ea57600080fd5b818501915085601f8301126143fe57600080fd5b81358181111561440d57600080fd5b8660208260051b850101111561442257600080fd5b60209290920196919550909350505050565b60005b8381101561444f578181015183820152602001614437565b50506000910152565b60008151808452614470816020860160208601614434565b601f01601f19169290920160200192915050565b6000602080830181845280855180835260408601915060408160051b870101925083870160005b828110156144d957603f198886030184526144c7858351614458565b945092850192908501906001016144ab565b5092979650505050505050565b6020808252825182820181905260009190848201906040850190845b8181101561428257835160ff1683529284019291840191600101614502565b60008060008060008060c0878903121561453a57600080fd5b505084359660208601359650604086013595606081013595506080810135945060a0013592509050565b6020808252601f908201527f5265656e7472616e637947756172643a207265656e7472616e742063616c6c00604082015260600190565b6000602082840312156145ad57600080fd5b5051919050565b600080604083850312156145c757600080fd5b505080516020909101519092909150565b600281106145f657634e487b7160e01b600052602160045260246000fd5b9052565b868152602081018690526001600160a01b038516604082015260c0810161462460608301866145d8565b608082019390935260a00152949350505050565b93845260208401929092526001600160a01b03166040830152606082015260800190565b634e487b7160e01b600052604160045260246000fd5b604051610120810167ffffffffffffffff811182821017156146965761469661465c565b60405290565b604051601f8201601f1916810167ffffffffffffffff811182821017156146c5576146c561465c565b604052919050565b600061012082840312156146e057600080fd5b6146e8614672565b825181526020830151602082015260408301516040820152606083015160608201526080830151608082015260a083015160a082015260c083015160c082015260e083015160e08201526101008084015181830152508091505092915050565b600060e0828403121561475a57600080fd5b60405160e0810181811067ffffffffffffffff8211171561477d5761477d61465c565b8060405250825181526020830151602082015260408301516040820152606083015160608201526080830151608082015260a083015160a082015260c083015160c08201528091505092915050565b634e487b7160e01b600052603260045260246000fd5b8281526040602082015260006126766040830184614458565b60006020828403121561480d57600080fd5b81516115d18161410e565b634e487b7160e01b600052601160045260246000fd5b60006001820161484057614840614818565b5060010190565b6020808252818101527f4f776e61626c653a2063616c6c6572206973206e6f7420746865206f776e6572604082015260600190565b60006080828403121561488e57600080fd5b6040516080810181811067ffffffffffffffff821117156148b1576148b161465c565b806040525080915082516148c48161428e565b815260208301516148d48161410e565b8060208301525060408301516040820152606083015160608201525092915050565b600080610100838503121561490a57600080fd5b614914848461487c565b9150614923846080850161487c565b90509250929050565b8481526020810184905260e0810161494760408301856145d8565b825165ffffffffffff1660608381019190915260208401516001600160a01b03166080840152604084015160a08401529092015160c0909101529392505050565b6001600160a01b03958616815293909416602084015260408301919091526060820152608081019190915260a00190565b600060208083018184528085546149d4818490815260200190565b60008881526020812094509092505b81601f82011015614c5d57835460ff8082168552600882901c8116878601526040614a17818701838560101c1660ff169052565b6060614a2c818801848660181c1660ff169052565b6080614a4081890185878d1c1660ff169052565b60a0614a55818a01868860281c1660ff169052565b60c0614a6a818b01878960301c1660ff169052565b60e0614a7f818c01888a60381c1660ff169052565b60ff88871c8816166101008c0152614aa26101208c01888a60481c1660ff169052565b614ab76101408c01888a60501c1660ff169052565b614acc6101608c01888a60581c1660ff169052565b60ff88861c8816166101808c0152614aef6101a08c01888a60681c1660ff169052565b614b046101c08c01888a60701c1660ff169052565b614b196101e08c01888a60781c1660ff169052565b60ff88851c8816166102008c0152614b3c6102208c01888a60881c1660ff169052565b614b516102408c01888a60901c1660ff169052565b614b666102608c01888a60981c1660ff169052565b60ff88841c8816166102808c0152614b896102a08c01888a60a81c1660ff169052565b614b9e6102c08c01888a60b01c1660ff169052565b614bb36102e08c01888a60b81c1660ff169052565b60ff88831c8816166103008c0152614bd66103208c01888a60c81c1660ff169052565b614beb6103408c01888a60d01c1660ff169052565b614c006103608c01888a60d81c1660ff169052565b60ff88821c8816166103808c0152505050505050614c296103a08601828460e81c1660ff169052565b614c3e6103c08601828460f01c1660ff169052565b5060f81c6103e0840152600193909301926104009092019184016149e3565b92549281811015614c765760ff84168352918401916001015b81811015614c9057600884901c60ff168352918401916001015b81811015614caa57601084901c60ff168352918401916001015b81811015614cc457601884901c60ff168352918401916001015b81811015614cdc5783851c60ff168352918401916001015b81811015614cf657602884901c60ff168352918401916001015b81811015614d1057603084901c60ff168352918401916001015b81811015614d2a57603884901c60ff168352918401916001015b81811015614d4457604084901c60ff168352918401916001015b81811015614d5e57604884901c60ff168352918401916001015b81811015614d7857605084901c60ff168352918401916001015b81811015614d9257605884901c60ff168352918401916001015b81811015614dac57606084901c60ff168352918401916001015b81811015614dc657606884901c60ff168352918401916001015b81811015614de057607084901c60ff168352918401916001015b81811015614dfa57607884901c60ff168352918401916001015b81811015614e1457608084901c60ff168352918401916001015b81811015614e2e57608884901c60ff168352918401916001015b81811015614e4857609084901c60ff168352918401916001015b81811015614e6257609884901c60ff168352918401916001015b81811015614e7c5760a084901c60ff168352918401916001015b81811015614e965760a884901c60ff168352918401916001015b81811015614eb05760b084901c60ff168352918401916001015b81811015614eca5760b884901c60ff168352918401916001015b81811015614ee45760c084901c60ff168352918401916001015b81811015614efe5760c884901c60ff168352918401916001015b81811015614f185760d084901c60ff168352918401916001015b81811015614f325760d884901c60ff168352918401916001015b81811015614f4c5760e084901c60ff168352918401916001015b81811015614f665760e884901c60ff168352918401916001015b81811015614f805760f084901c60ff168352918401916001015b8181101561428257505060f89190911c8152019392505050565b60006020808385031215614fad57600080fd5b825167ffffffffffffffff80821115614fc557600080fd5b818501915085601f830112614fd957600080fd5b815181811115614feb57614feb61465c565b8060051b9150614ffc84830161469c565b818152918301840191848101908884111561501657600080fd5b938501935b838510156150345784518252938501939085019061501b565b98975050505050505050565b808201828112600083128015821682158216171561506057615060614818565b505092915050565b801515811461298457600080fd5b8135815260208083013590820152610100810160408301356150978161410e565b6001600160a01b031660408301526150b16060840161415c565b6150be60608401826145d8565b506080830135608083015260a083013560a083015260c083013560c083015260e08301356150eb81615068565b80151560e08401525092915050565b600080600080600080600060e0888a03121561511557600080fd5b875196506020880151955060408801519450606088015193506080880151925060a0880151915060c088015161514a81615068565b8091505092959891949750929550565b6000808335601e1984360301811261517157600080fd5b83018035915067ffffffffffffffff82111561518c57600080fd5b6020019150368190038213156151a157600080fd5b9250929050565b81810381811115610eef57610eef614818565b7f416363657373436f6e74726f6c3a206163636f756e74200000000000000000008152600083516151f3816017850160208801614434565b7001034b99036b4b9b9b4b733903937b6329607d1b6017918401918201528351615224816028840160208801614434565b01602801949350505050565b6020815260006115d16020830184614458565b60008251615255818460208701614434565b9190910192915050565b8082028115828204841417610eef57610eef614818565b80820180821115610eef57610eef614818565b60008161529857615298614818565b50600019019056fe97667070c54ef182b0f5858b034beac1b6f3089aa2d3188bb1e8929f4fa9b929416464726573733a206c6f772d6c6576656c2064656c65676174652063616c6c206661696c6564a26469706673582212200505eea82ccda0a0d24a3bbc6ae2be5eaa062943393293a93ee719fcd341b69264736f6c63430008130033",
  "libraries": {
    "FundManagementLogic": "0x4e6856503337a87f0c743aE7ad1156db9e953ED5",
    "LendingMarketOperationLogic": "0x984Df019F3d1836c3360F7B30e098bB69BE0B9d9",
    "LendingMarketUserLogic": "0x2C83af2ca64d83D8170c2F14eECf557ffF21aA22",
    "LiquidationLogic": "0xDCFC66276155A9dF7375F17c2D73B0A2aF7097f9"
  },
  "implementation": "0x4821dD46297F2b731ed0A2c0852213b8b745f518",
  "devdoc": {
    "events": {
      "Initialized(uint8)": {
        "details": "Triggered when the contract has been initialized or reinitialized."
      },
      "RoleAdminChanged(bytes32,bytes32,bytes32)": {
        "details": "Emitted when `newAdminRole` is set as ``role``'s admin role, replacing `previousAdminRole` `DEFAULT_ADMIN_ROLE` is the starting admin for all roles, despite {RoleAdminChanged} not being emitted signaling this. _Available since v3.1._"
      },
      "RoleGranted(bytes32,address,address)": {
        "details": "Emitted when `account` is granted `role`. `sender` is the account that originated the contract call, an admin role bearer except when using {AccessControl-_setupRole}."
      },
      "RoleRevoked(bytes32,address,address)": {
        "details": "Emitted when `account` is revoked `role`. `sender` is the account that originated the contract call:   - if using `revokeRole`, it is the admin role bearer   - if using `renounceRole`, it is the role bearer (i.e. `account`)"
      }
    },
    "kind": "dev",
    "methods": {
      "addOperator(address)": {
        "params": {
          "admin": "The address of the new admin"
        }
      },
      "calculateFunds(bytes32,address,uint256)": {
        "params": {
          "_ccy": "Currency name in bytes32",
          "_liquidationThresholdRate": "The liquidation threshold rate",
          "_user": "User's address"
        },
        "returns": {
          "funds": "The funds calculated from the user's lending and borrowing order list"
        }
      },
      "calculateTotalFundsInBaseCurrency(address,(bytes32,uint256,uint256,uint256,uint256,uint256,uint256),uint256)": {
        "params": {
          "_additionalFunds": "The funds to be added for calculating the total funds",
          "_liquidationThresholdRate": "The liquidation threshold rate",
          "_user": "User's address"
        },
        "returns": {
          "funds": "The total funds calculated from the user's lending and borrowing order list"
        }
      },
      "cancelOrder(bytes32,uint256,uint48)": {
        "params": {
          "_ccy": "Currency name in bytes32 of the selected order book",
          "_maturity": "The maturity of the selected order book",
          "_orderId": "Market order id"
        }
      },
      "cleanUpAllFunds(address)": {
        "params": {
          "_user": "User's address"
        }
      },
      "cleanUpFunds(bytes32,address)": {
        "params": {
          "_ccy": "Currency name in bytes32",
          "_user": "User's address"
        }
      },
      "createOrderBook(bytes32,uint256,uint256)": {
        "params": {
          "_ccy": "Main currency for new order book",
          "_openingDate": "The timestamp when the order book opens",
          "_preOpeningDate": "The timestamp when the order book pre-opens"
        }
      },
      "depositAndExecuteOrder(bytes32,uint256,uint8,uint256,uint256)": {
        "params": {
          "_amount": "Amount of funds the maker wants to borrow/lend",
          "_ccy": "Currency name in bytes32 of the selected order book",
          "_maturity": "The maturity of the selected order book",
          "_side": "Order position type, Borrow or Lend",
          "_unitPrice": "Amount of unit price taker wish to borrow/lend"
        },
        "returns": {
          "_0": "True if the execution of the operation succeeds"
        }
      },
      "depositAndExecutesPreOrder(bytes32,uint256,uint8,uint256,uint256)": {
        "params": {
          "_amount": "Amount of funds the maker wants to borrow/lend",
          "_ccy": "Currency name in bytes32 of the selected order book",
          "_maturity": "The maturity of the selected order book",
          "_side": "Order position type, Borrow or Lend",
          "_unitPrice": "Amount of unit price taker wish to borrow/lend"
        },
        "returns": {
          "_0": "True if the execution of the operation succeeds"
        }
      },
      "executeEmergencySettlement()": {
        "returns": {
          "_0": "True if the execution of the operation succeeds"
        }
      },
      "executeForcedRepayment(bytes32,bytes32,uint256,address)": {
        "params": {
          "_collateralCcy": "Currency name to be used as collateral",
          "_debtCcy": "Currency name to be used as debt",
          "_debtMaturity": "The order book maturity of the debt",
          "_user": "User's address"
        },
        "returns": {
          "_0": "True if the execution of the operation succeeds"
        }
      },
      "executeItayoseCall(bytes32,uint256)": {
        "params": {
          "_ccy": "Currency name in bytes32",
          "_maturity": "The maturity of the selected order book"
        }
      },
      "executeLiquidationCall(bytes32,bytes32,uint256,address)": {
        "params": {
          "_collateralCcy": "Currency name to be used as collateral",
          "_debtCcy": "Currency name to be used as debt",
          "_debtMaturity": "The order book maturity of the debt",
          "_user": "User's address"
        },
        "returns": {
          "_0": "True if the execution of the operation succeeds"
        }
      },
      "executeOrder(bytes32,uint256,uint8,uint256,uint256)": {
        "params": {
          "_amount": "Amount of funds the maker wants to borrow/lend",
          "_ccy": "Currency name in bytes32 of the selected order book",
          "_maturity": "The maturity of the selected order book",
          "_side": "Order position type, Borrow or Lend",
          "_unitPrice": "Amount of unit price taker wish to borrow/lend"
        },
        "returns": {
          "_0": "True if the execution of the operation succeeds"
        }
      },
      "executePreOrder(bytes32,uint256,uint8,uint256,uint256)": {
        "params": {
          "_amount": "Amount of funds the maker wants to borrow/lend",
          "_ccy": "Currency name in bytes32 of the selected order book",
          "_maturity": "The maturity of the selected order book",
          "_side": "Order position type, Borrow or Lend",
          "_unitPrice": "Amount of unit price taker wish to borrow/lend"
        },
        "returns": {
          "_0": "True if the execution of the operation succeeds"
        }
      },
      "executeRedemption(bytes32,uint256)": {
        "params": {
          "_ccy": "Currency name in bytes32 of the selected order book",
          "_maturity": "The maturity of the selected order book"
        }
      },
      "executeRepayment(bytes32,uint256)": {
        "params": {
          "_ccy": "Currency name in bytes32 of the selected order book",
          "_maturity": "The maturity of the selected order book"
        }
      },
      "getCircuitBreakerLimitRange(bytes32)": {
        "params": {
          "_ccy": "Currency name in bytes32"
        },
        "returns": {
          "_0": "The auto-roll fee rate received by protocol"
        }
      },
      "getCurrentMinDebtUnitPrice(bytes32,uint256)": {
        "params": {
          "_ccy": "Currency name in bytes32",
          "_maturity": "The maturity of the order book"
        },
        "returns": {
          "_0": "The current min debt unit price"
        }
      },
      "getFutureValueVault(bytes32)": {
        "params": {
          "_ccy": "Currency name in bytes32"
        },
        "returns": {
          "_0": "The future value vault address"
        }
      },
      "getGenesisDate(bytes32)": {
        "params": {
          "_ccy": "Currency name in bytes32"
        },
        "returns": {
          "_0": "The genesis date"
        }
      },
      "getGenesisValue(bytes32,address)": {
        "params": {
          "_ccy": "Currency name in bytes32 for Lending Market",
          "_user": "User's address"
        },
        "returns": {
          "genesisValue": "The genesis value"
        }
      },
      "getLendingMarket(bytes32)": {
        "params": {
          "_ccy": "Currency name in bytes32"
        },
        "returns": {
          "_0": "Array with the lending market address"
        }
      },
      "getMarketBasePeriod()": {
        "returns": {
          "_0": "The base period"
        }
      },
      "getMaturities(bytes32)": {
        "params": {
          "_ccy": "Currency name in bytes32"
        },
        "returns": {
          "_0": "Array with the lending market maturity"
        }
      },
      "getMinDebtUnitPrice(bytes32)": {
        "params": {
          "_ccy": "Currency name in bytes32"
        },
        "returns": {
          "_0": "The genesis date"
        }
      },
      "getOrderBookId(bytes32,uint256)": {
        "params": {
          "_ccy": "Currency name in bytes32",
          "_maturity": "The maturity of the order book"
        },
        "returns": {
          "_0": "The order book id"
        }
      },
      "getOrderBookIds(bytes32)": {
        "params": {
          "_ccy": "Currency name in bytes32"
        },
        "returns": {
          "_0": "The array of order book id"
        }
      },
      "getOrderEstimation((bytes32,uint256,address,uint8,uint256,uint256,uint256,bool))": {
        "params": {
          "_params": "The parameters to calculate the order estimation <br> - ccy: Currency name in bytes32 of the selected market <br> - maturity: The maturity of the market <br> - side: Order position type, Borrow or Lend <br> - amount: Amount of funds the maker wants to borrow/lend <br> - unitPrice: Amount of unit price taker wish to borrow/lend <br> - additionalDepositAmount: Additional amount to be deposited with the lending order <br> - ignoreBorrowedAmount: The boolean if the borrowed amount is ignored and not used as collateral or not"
        },
        "returns": {
          "coverage": "The rate of collateral used",
          "filledAmount": "The amount that is filled on the order book",
          "filledAmountInFV": "The amount in the future value that is filled on the order book",
          "isInsufficientDepositAmount": "The boolean if the order amount for lending in the selected currency is insufficient for the deposit amount or not",
          "lastUnitPrice": "The last unit price that is filled on the order book",
          "orderFeeInFV": "The order fee amount in the future value",
          "placedAmount": "The amount that is placed to the order book"
        }
      },
      "getOrderFeeRate(bytes32)": {
        "params": {
          "_ccy": "Currency name in bytes32"
        },
        "returns": {
          "_0": "The order fee rate received by protocol"
        }
      },
      "getPendingOrderAmount(bytes32,uint256)": {
        "params": {
          "_ccy": "Currency name in bytes32",
          "_maturity": "The maturity of the order book"
        },
        "returns": {
          "_0": "The total amount"
        }
      },
      "getPosition(bytes32,uint256,address)": {
        "params": {
          "_ccy": "Currency name in bytes32",
          "_maturity": "The maturity of the selected order book",
          "_user": "User's address"
        },
        "returns": {
          "futureValue": "The future value of the position",
          "presentValue": "The present value of the position"
        }
      },
      "getRoleAdmin(bytes32)": {
        "details": "Returns the admin role that controls `role`. See {grantRole} and {revokeRole}. To change a role's admin, use {_setRoleAdmin}."
      },
      "getTerminationCollateralRatio(bytes32)": {
        "params": {
          "_ccy": "Currency name in bytes32"
        },
        "returns": {
          "_0": "The ratio"
        }
      },
      "getTerminationCurrencyCache(bytes32)": {
        "params": {
          "_ccy": "Currency name in bytes32"
        },
        "returns": {
          "_0": "The price cached"
        }
      },
      "getTerminationDate()": {
        "returns": {
          "_0": "The termination date"
        }
      },
      "getTotalPresentValue(bytes32,address)": {
        "params": {
          "_ccy": "Currency name in bytes32 for Lending Market",
          "_user": "User's address"
        },
        "returns": {
          "totalPresentValue": "The total present value"
        }
      },
      "getTotalPresentValueInBaseCurrency(address)": {
        "params": {
          "_user": "User's address"
        },
        "returns": {
          "totalPresentValue": "The total present value in base currency"
        }
      },
      "getUsedCurrencies(address)": {
        "params": {
          "_user": "User's address"
        },
        "returns": {
          "_0": "The array of the currency"
        }
      },
      "grantRole(bytes32,address)": {
        "details": "Grants `role` to `account`. If `account` had not been already granted `role`, emits a {RoleGranted} event. Requirements: - the caller must have ``role``'s admin role. May emit a {RoleGranted} event."
      },
      "hasRole(bytes32,address)": {
        "details": "Returns `true` if `account` has been granted `role`."
      },
      "initialize(address,address,uint256)": {
        "details": "Function is invoked by the proxy contract when the contract is added to the ProxyController.",
        "params": {
          "_marketBasePeriod": "The base period for market maturity",
          "_owner": "The address of the contract owner",
          "_resolver": "The address of the Address Resolver contract"
        }
      },
      "initializeLendingMarket(bytes32,uint256,uint256,uint256,uint256,uint256)": {
        "params": {
          "_ccy": "Currency name in bytes32",
          "_circuitBreakerLimitRange": "The circuit breaker limit range",
          "_compoundFactor": "The initial compound factor when the initial market is opened",
          "_genesisDate": "The genesis date when the initial market is opened",
          "_orderFeeRate": "The order fee rate received by protocol"
        }
      },
      "isInitializedLendingMarket(bytes32)": {
        "params": {
          "_ccy": "Currency name in bytes32"
        },
        "returns": {
          "_0": "The boolean if the lending market is initialized or not"
        }
      },
      "isRedemptionRequired(address)": {
        "returns": {
          "_0": "The boolean if the user needs to redeem the funds"
        }
      },
      "isTerminated()": {
        "returns": {
          "_0": "The boolean if the protocol has not been terminated"
        }
      },
      "multicall(bytes[])": {
        "details": "Receives and executes a batch of function calls on this contract."
      },
      "owner()": {
        "details": "Returns the address of the current owner."
      },
      "pauseLendingMarket(bytes32)": {
        "params": {
          "_ccy": "Currency for pausing all lending markets"
        },
        "returns": {
          "_0": "True if the execution of the operation succeeds"
        }
      },
      "removeOperator(address)": {
        "params": {
          "admin": "The address of the admin to remove"
        }
      },
      "renounceOwnership()": {
        "details": "Leaves the contract without owner. It will not be possible to call `onlyOwner` functions anymore. Can only be called by the current owner. NOTE: Renouncing ownership will leave the contract without an owner, thereby removing any functionality that is only available to the owner."
      },
      "renounceRole(bytes32,address)": {
        "params": {
          "account": "The address of the account to revoke the role from",
          "role": "The role to be revoked"
        }
      },
      "requiredContracts()": {
        "details": "The contract name list is in `./libraries/Contracts.sol`."
      },
      "revokeRole(bytes32,address)": {
        "details": "Revokes `role` from `account`.",
        "params": {
          "account": "The address of the account to revoke the role from",
          "role": "The role to be revoked"
        }
      },
      "rotateOrderBooks(bytes32)": {
        "params": {
          "_ccy": "Currency name in bytes32 of the selected order book"
        }
      },
      "supportsInterface(bytes4)": {
        "details": "See {IERC165-supportsInterface}."
      },
      "transferOwnership(address)": {
        "details": "Transfers ownership of the contract to a new account (`newOwner`). Can only be called by the current owner."
      },
      "unpauseLendingMarket(bytes32)": {
        "params": {
          "_ccy": "Currency name in bytes32"
        },
        "returns": {
          "_0": "True if the execution of the operation succeeds"
        }
      },
      "unwindPosition(bytes32,uint256)": {
        "params": {
          "_ccy": "Currency name in bytes32 of the selected order book",
          "_maturity": "The maturity of the selected order book"
        }
      },
      "updateCircuitBreakerLimitRange(bytes32,uint256)": {
        "params": {
          "_cbLimitRange": "The circuit breaker limit range",
          "_ccy": "Currency name in bytes32"
        }
      },
      "updateMinDebtUnitPrice(bytes32,uint256)": {
        "params": {
          "_ccy": "Currency name in bytes32",
          "_minDebtUnitPrice": "The min debt unit price"
        }
      },
      "updateOrderFeeRate(bytes32,uint256)": {
        "params": {
          "_ccy": "Currency name in bytes32",
          "_orderFeeRate": "The order fee rate received by protocol"
        }
      }
    },
    "version": 1
  },
  "userdoc": {
    "kind": "user",
    "methods": {
      "addOperator(address)": {
        "notice": "Adds a new admin as Operator"
      },
      "calculateFunds(bytes32,address,uint256)": {
        "notice": "Gets the funds that are calculated from the user's lending and borrowing order list for the selected currency."
      },
      "calculateTotalFundsInBaseCurrency(address,(bytes32,uint256,uint256,uint256,uint256,uint256,uint256),uint256)": {
        "notice": "Gets the funds that are calculated from the user's lending and borrowing order list for all currencies in base currency."
      },
      "cancelOrder(bytes32,uint256,uint48)": {
        "notice": "Cancels the own order."
      },
      "cleanUpAllFunds(address)": {
        "notice": "Clean up all funds of the user"
      },
      "cleanUpFunds(bytes32,address)": {
        "notice": "Clean up user funds used for lazy evaluation by the following actions: - Removes order IDs that is already filled on the order book. - Convert Future values that have already been auto-rolled to Genesis values."
      },
      "createOrderBook(bytes32,uint256,uint256)": {
        "notice": "Creates new order book."
      },
      "depositAndExecuteOrder(bytes32,uint256,uint8,uint256,uint256)": {
        "notice": "Deposits funds and executes an order at the same time."
      },
      "depositAndExecutesPreOrder(bytes32,uint256,uint8,uint256,uint256)": {
        "notice": "Deposits funds and executes a pre-order at the same time."
      },
      "executeEmergencySettlement()": {
        "notice": "Force settlement of all lending and borrowing positions. This function is executed under the present value as of the termination date."
      },
      "executeEmergencyTermination()": {
        "notice": "Executes an emergency termination to stop the protocol. Once this function is executed, the protocol cannot be run again. Also, users will only be able to redeem and withdraw."
      },
      "executeForcedRepayment(bytes32,bytes32,uint256,address)": {
        "notice": "Execute forced repayment for a borrowing position if repayment date is over."
      },
      "executeItayoseCall(bytes32,uint256)": {
        "notice": "Executes the Itayose call per selected currency."
      },
      "executeLiquidationCall(bytes32,bytes32,uint256,address)": {
        "notice": "Liquidates a lending or borrowing position if the user's coverage is hight."
      },
      "executeOrder(bytes32,uint256,uint8,uint256,uint256)": {
        "notice": "Executes an order. Takes orders if the order is matched, and places new order if not match it. In addition, converts the future value to the genesis value if there is future value in past maturity before the execution of order creation."
      },
      "executePreOrder(bytes32,uint256,uint8,uint256,uint256)": {
        "notice": "Executes a pre-order. A pre-order will only be accepted from 168 hours (7 days) to 1 hour before the order book opens (Pre-order period). At the end of this period, Itayose will be executed."
      },
      "executeRedemption(bytes32,uint256)": {
        "notice": "Redeem user's lending positions. Redemption can only be executed once the order book has matured after the currency has been delisted."
      },
      "executeRepayment(bytes32,uint256)": {
        "notice": "Repay user's borrowing positions. Repayment can only be executed once the order book has matured after the currency has been delisted."
      },
      "getCircuitBreakerLimitRange(bytes32)": {
        "notice": "Gets the limit range in unit price for the circuit breaker"
      },
      "getCurrentMinDebtUnitPrice(bytes32,uint256)": {
        "notice": "Gets the current min debt unit price. This price fluctuates depending on the current maturity."
      },
      "getFutureValueVault(bytes32)": {
        "notice": "Gets the future value contract address for the selected currency and maturity."
      },
      "getGenesisDate(bytes32)": {
        "notice": "Gets the genesis date when the first market opens for the selected currency."
      },
      "getGenesisValue(bytes32,address)": {
        "notice": "Gets the genesis value of the account."
      },
      "getLendingMarket(bytes32)": {
        "notice": "Gets the lending market contract address for the selected currency."
      },
      "getMarketBasePeriod()": {
        "notice": "Gets the base period for market maturity"
      },
      "getMaturities(bytes32)": {
        "notice": "Gets maturities for the selected currency."
      },
      "getMinDebtUnitPrice(bytes32)": {
        "notice": "Gets the min debt unit price for the selected currency. This price is based on a one-year maturity."
      },
      "getOrderBookId(bytes32,uint256)": {
        "notice": "Gets the order book id for the selected currency and maturity."
      },
      "getOrderBookIds(bytes32)": {
        "notice": "Gets the order book ids."
      },
      "getOrderEstimation((bytes32,uint256,address,uint8,uint256,uint256,uint256,bool))": {
        "notice": "Gets the estimated order result by the calculation of the amount to be filled when executing an order in the order books."
      },
      "getOrderFeeRate(bytes32)": {
        "notice": "Gets the order fee rate"
      },
      "getPendingOrderAmount(bytes32,uint256)": {
        "notice": "Gets the total amount of pending orders that is not cleaned up yet."
      },
      "getPosition(bytes32,uint256,address)": {
        "notice": "Gets user's active position from the future value vault"
      },
      "getTerminationCollateralRatio(bytes32)": {
        "notice": "Gets the collateral ratio of each token in TokenVault at the emergency termination."
      },
      "getTerminationCurrencyCache(bytes32)": {
        "notice": "Gets the currency information cached at the emergency termination."
      },
      "getTerminationDate()": {
        "notice": "Gets the date at the emergency termination."
      },
      "getTotalPresentValue(bytes32,address)": {
        "notice": "Gets the total present value of the account for selected currency."
      },
      "getTotalPresentValueInBaseCurrency(address)": {
        "notice": "Gets the total present value of the account converted to base currency."
      },
      "getUsedCurrencies(address)": {
        "notice": "Get all the currencies in which the user has lending positions or orders."
      },
      "initialize(address,address,uint256)": {
        "notice": "Initializes the contract."
      },
      "initializeLendingMarket(bytes32,uint256,uint256,uint256,uint256,uint256)": {
        "notice": "Initialize the lending market to set a genesis date and compound factor"
      },
      "isInitializedLendingMarket(bytes32)": {
        "notice": "Gets if the lending market is initialized."
      },
      "isRedemptionRequired(address)": {
        "notice": "Gets if the user needs to redeem the funds."
      },
      "isTerminated()": {
        "notice": "Gets if the protocol has not been terminated."
      },
      "pauseLendingMarket(bytes32)": {
        "notice": "Pauses the lending market by currency"
      },
      "removeOperator(address)": {
        "notice": "Removes an admin as Operator"
      },
      "renounceRole(bytes32,address)": {
        "notice": "Revokes `role` from the calling account. This function is disabled by overriding it with a revert."
      },
      "requiredContracts()": {
        "notice": "Returns the contract names used in this contract."
      },
      "rotateOrderBooks(bytes32)": {
        "notice": "Rotates the order books. In this rotation, the following actions are happened. - Updates the maturity at the beginning of the order book array. - Moves the beginning of the order book array to the end of it (Market rotation). - Update the compound factor in this contract using the next order book unit price. (Auto-rolls) - Clean up the reserve fund contract"
      },
      "unpauseLendingMarket(bytes32)": {
        "notice": "Unpauses the lending market by currency"
      },
      "unwindPosition(bytes32,uint256)": {
        "notice": "Unwinds user's lending or borrowing positions by creating an opposite position order."
      },
      "updateCircuitBreakerLimitRange(bytes32,uint256)": {
        "notice": "Updates the auto-roll fee rate"
      },
      "updateMinDebtUnitPrice(bytes32,uint256)": {
        "notice": "Updates the min debt unit price for the selected currency."
      },
      "updateOrderFeeRate(bytes32,uint256)": {
        "notice": "Updates the order fee rate"
      }
    },
    "notice": "Implements the module to manage separated lending market contracts per currency. This contract also works as a factory contract that can deploy(start)a new lending market & order book for selected currency and maturity and has the calculation logic for the following user's funds in addition. - Present Value(PV) - Future Value(FV) - Genesis Value(GV) Once the order book is created, it will be rotated and reused once it reaches its maturity date. At the time of rotation, a new maturity date is set and the compound factor is updated. The users mainly call this contract to execute orders to lend or borrow funds.",
    "version": 1
  },
  "storageLayout": {
    "storage": [
      {
        "astId": 1572,
        "contract": "contracts/protocol/LendingMarketController.sol:LendingMarketController",
        "label": "_status",
        "offset": 0,
        "slot": "0",
        "type": "t_uint256"
      },
      {
        "astId": 1417,
        "contract": "contracts/protocol/LendingMarketController.sol:LendingMarketController",
        "label": "_initialized",
        "offset": 0,
        "slot": "1",
        "type": "t_uint8"
      },
      {
        "astId": 1420,
        "contract": "contracts/protocol/LendingMarketController.sol:LendingMarketController",
        "label": "_initializing",
        "offset": 1,
        "slot": "1",
        "type": "t_bool"
      },
      {
        "astId": 46010,
        "contract": "contracts/protocol/LendingMarketController.sol:LendingMarketController",
        "label": "lockedBy",
        "offset": 2,
        "slot": "1",
        "type": "t_address"
      }
    ],
    "types": {
      "t_address": {
        "encoding": "inplace",
        "label": "address",
        "numberOfBytes": "20"
      },
      "t_bool": {
        "encoding": "inplace",
        "label": "bool",
        "numberOfBytes": "1"
      },
      "t_uint256": {
        "encoding": "inplace",
        "label": "uint256",
        "numberOfBytes": "32"
      },
      "t_uint8": {
        "encoding": "inplace",
        "label": "uint8",
        "numberOfBytes": "1"
      }
    }
  }
}