{
  "address": "0xa1aa82D94434dd84b5F3ACd93acd53f8876874Bf",
  "abi": [
    {
      "anonymous": false,
      "inputs": [
        {
          "indexed": false,
          "internalType": "bytes32",
          "name": "name",
          "type": "bytes32"
        },
        {
          "indexed": false,
          "internalType": "address",
          "name": "destination",
          "type": "address"
        }
      ],
      "name": "CacheUpdated",
      "type": "event"
    },
    {
      "anonymous": false,
      "inputs": [
        {
          "indexed": false,
          "internalType": "uint8",
          "name": "version",
          "type": "uint8"
        }
      ],
      "name": "Initialized",
      "type": "event"
    },
    {
      "anonymous": false,
      "inputs": [
        {
          "indexed": false,
          "internalType": "bytes32",
          "name": "ccy",
          "type": "bytes32"
        },
        {
          "indexed": false,
          "internalType": "uint256",
          "name": "maturity",
          "type": "uint256"
        },
        {
          "indexed": false,
          "internalType": "uint256",
          "name": "openingPrice",
          "type": "uint256"
        }
      ],
      "name": "ItayoseExecuted",
      "type": "event"
    },
    {
      "anonymous": false,
      "inputs": [
        {
          "indexed": false,
          "internalType": "uint256",
          "name": "maturity",
          "type": "uint256"
        },
        {
          "indexed": false,
          "internalType": "uint256",
          "name": "prevMaturity",
          "type": "uint256"
        }
      ],
      "name": "MarketOpened",
      "type": "event"
    },
    {
      "anonymous": false,
      "inputs": [
        {
          "indexed": true,
          "internalType": "address",
          "name": "user",
          "type": "address"
        },
        {
          "indexed": true,
          "internalType": "bytes32",
          "name": "ccy",
          "type": "bytes32"
        },
        {
          "indexed": false,
          "internalType": "enum ProtocolTypes.Side",
          "name": "side",
          "type": "uint8"
        },
        {
          "indexed": true,
          "internalType": "uint256",
          "name": "maturity",
          "type": "uint256"
        },
        {
          "indexed": false,
          "internalType": "uint256",
          "name": "thresholdUnitPrice",
          "type": "uint256"
        }
      ],
      "name": "OrderBlockedByCircuitBreaker",
      "type": "event"
    },
    {
      "anonymous": false,
      "inputs": [
        {
          "indexed": false,
          "internalType": "uint48",
          "name": "orderId",
          "type": "uint48"
        },
        {
          "indexed": true,
          "internalType": "address",
          "name": "maker",
          "type": "address"
        },
        {
          "indexed": false,
          "internalType": "enum ProtocolTypes.Side",
          "name": "side",
          "type": "uint8"
        },
        {
          "indexed": false,
          "internalType": "bytes32",
          "name": "ccy",
          "type": "bytes32"
        },
        {
          "indexed": false,
          "internalType": "uint256",
          "name": "maturity",
          "type": "uint256"
        },
        {
          "indexed": false,
          "internalType": "uint256",
          "name": "amount",
          "type": "uint256"
        },
        {
          "indexed": false,
          "internalType": "uint256",
          "name": "unitPrice",
          "type": "uint256"
        }
      ],
      "name": "OrderCanceled",
      "type": "event"
    },
    {
      "anonymous": false,
      "inputs": [
        {
          "indexed": false,
          "internalType": "uint48",
          "name": "orderId",
          "type": "uint48"
        },
        {
          "indexed": true,
          "internalType": "address",
          "name": "maker",
          "type": "address"
        },
        {
          "indexed": false,
          "internalType": "enum ProtocolTypes.Side",
          "name": "side",
          "type": "uint8"
        },
        {
          "indexed": false,
          "internalType": "bytes32",
          "name": "ccy",
          "type": "bytes32"
        },
        {
          "indexed": false,
          "internalType": "uint256",
          "name": "maturity",
          "type": "uint256"
        },
        {
          "indexed": false,
          "internalType": "uint256",
          "name": "amount",
          "type": "uint256"
        },
        {
          "indexed": false,
          "internalType": "uint256",
          "name": "unitPrice",
          "type": "uint256"
        }
      ],
      "name": "OrderMade",
      "type": "event"
    },
    {
      "anonymous": false,
      "inputs": [
        {
          "indexed": false,
          "internalType": "uint48",
          "name": "orderId",
          "type": "uint48"
        },
        {
          "indexed": true,
          "internalType": "address",
          "name": "maker",
          "type": "address"
        },
        {
          "indexed": false,
          "internalType": "enum ProtocolTypes.Side",
          "name": "side",
          "type": "uint8"
        },
        {
          "indexed": true,
          "internalType": "bytes32",
          "name": "ccy",
          "type": "bytes32"
        },
        {
          "indexed": false,
          "internalType": "uint256",
          "name": "maturity",
          "type": "uint256"
        },
        {
          "indexed": false,
          "internalType": "uint256",
          "name": "filledAmount",
          "type": "uint256"
        },
        {
          "indexed": false,
          "internalType": "uint256",
          "name": "filledFutureValue",
          "type": "uint256"
        }
      ],
      "name": "OrderPartiallyTaken",
      "type": "event"
    },
    {
      "anonymous": false,
      "inputs": [
        {
          "indexed": false,
          "internalType": "uint48[]",
          "name": "orderIds",
          "type": "uint48[]"
        },
        {
          "indexed": true,
          "internalType": "address",
          "name": "maker",
          "type": "address"
        },
        {
          "indexed": false,
          "internalType": "enum ProtocolTypes.Side",
          "name": "side",
          "type": "uint8"
        },
        {
          "indexed": true,
          "internalType": "bytes32",
          "name": "ccy",
          "type": "bytes32"
        },
        {
          "indexed": false,
          "internalType": "uint256",
          "name": "maturity",
          "type": "uint256"
        }
      ],
      "name": "OrdersCleaned",
      "type": "event"
    },
    {
      "anonymous": false,
      "inputs": [
        {
          "indexed": true,
          "internalType": "address",
          "name": "taker",
          "type": "address"
        },
        {
          "indexed": false,
          "internalType": "enum ProtocolTypes.Side",
          "name": "side",
          "type": "uint8"
        },
        {
          "indexed": false,
          "internalType": "bytes32",
          "name": "ccy",
          "type": "bytes32"
        },
        {
          "indexed": false,
          "internalType": "uint256",
          "name": "maturity",
          "type": "uint256"
        },
        {
          "indexed": false,
          "internalType": "uint256",
          "name": "filledAmount",
          "type": "uint256"
        },
        {
          "indexed": false,
          "internalType": "uint256",
          "name": "unitPrice",
          "type": "uint256"
        },
        {
          "indexed": false,
          "internalType": "uint256",
          "name": "filledFutureValue",
          "type": "uint256"
        }
      ],
      "name": "OrdersTaken",
      "type": "event"
    },
    {
      "anonymous": false,
      "inputs": [
        {
          "indexed": false,
          "internalType": "address",
          "name": "account",
          "type": "address"
        }
      ],
      "name": "Paused",
      "type": "event"
    },
    {
      "anonymous": false,
      "inputs": [
        {
          "indexed": false,
          "internalType": "address",
          "name": "account",
          "type": "address"
        }
      ],
      "name": "Unpaused",
      "type": "event"
    },
    {
      "inputs": [],
      "name": "acceptedContracts",
      "outputs": [
        {
          "internalType": "bytes32[]",
          "name": "contracts",
          "type": "bytes32[]"
        }
      ],
      "stateMutability": "pure",
      "type": "function"
    },
    {
      "inputs": [],
      "name": "buildCache",
      "outputs": [],
      "stateMutability": "nonpayable",
      "type": "function"
    },
    {
      "inputs": [
        {
          "internalType": "address",
          "name": "_user",
          "type": "address"
        },
        {
          "internalType": "uint48",
          "name": "_orderId",
          "type": "uint48"
        }
      ],
      "name": "cancelOrder",
      "outputs": [
        {
          "internalType": "enum ProtocolTypes.Side",
          "name": "side",
          "type": "uint8"
        },
        {
          "internalType": "uint256",
          "name": "removedAmount",
          "type": "uint256"
        },
        {
          "internalType": "uint256",
          "name": "unitPrice",
          "type": "uint256"
        }
      ],
      "stateMutability": "nonpayable",
      "type": "function"
    },
    {
      "inputs": [
        {
          "internalType": "address",
          "name": "_user",
          "type": "address"
        }
      ],
      "name": "cleanUpOrders",
      "outputs": [
        {
          "internalType": "uint256",
          "name": "activeLendOrderCount",
          "type": "uint256"
        },
        {
          "internalType": "uint256",
          "name": "activeBorrowOrderCount",
          "type": "uint256"
        },
        {
          "internalType": "uint256",
          "name": "removedLendOrderFutureValue",
          "type": "uint256"
        },
        {
          "internalType": "uint256",
          "name": "removedBorrowOrderFutureValue",
          "type": "uint256"
        },
        {
          "internalType": "uint256",
          "name": "removedLendOrderAmount",
          "type": "uint256"
        },
        {
          "internalType": "uint256",
          "name": "removedBorrowOrderAmount",
          "type": "uint256"
        },
        {
          "internalType": "uint256",
          "name": "maturity",
          "type": "uint256"
        }
      ],
      "stateMutability": "nonpayable",
      "type": "function"
    },
    {
      "inputs": [
        {
          "internalType": "enum ProtocolTypes.Side",
          "name": "_side",
          "type": "uint8"
        },
        {
          "internalType": "address",
          "name": "_user",
          "type": "address"
        },
        {
          "internalType": "uint256",
          "name": "_amount",
          "type": "uint256"
        },
        {
          "internalType": "uint256",
          "name": "_unitPrice",
          "type": "uint256"
        },
        {
          "internalType": "uint256",
          "name": "_circuitBreakerLimitRange",
          "type": "uint256"
        }
      ],
      "name": "createOrder",
      "outputs": [
        {
          "components": [
            {
              "internalType": "uint256",
              "name": "unitPrice",
              "type": "uint256"
            },
            {
              "internalType": "uint256",
              "name": "amount",
              "type": "uint256"
            },
            {
              "internalType": "uint256",
              "name": "futureValue",
              "type": "uint256"
            },
            {
              "internalType": "uint256",
              "name": "ignoredAmount",
              "type": "uint256"
            }
          ],
          "internalType": "struct ILendingMarket.FilledOrder",
          "name": "filledOrder",
          "type": "tuple"
        },
        {
          "components": [
            {
              "internalType": "address",
              "name": "maker",
              "type": "address"
            },
            {
              "internalType": "uint256",
              "name": "amount",
              "type": "uint256"
            },
            {
              "internalType": "uint256",
              "name": "futureValue",
              "type": "uint256"
            }
          ],
          "internalType": "struct ILendingMarket.PartiallyFilledOrder",
          "name": "partiallyFilledOrder",
          "type": "tuple"
        }
      ],
      "stateMutability": "nonpayable",
      "type": "function"
    },
    {
      "inputs": [
        {
          "internalType": "enum ProtocolTypes.Side",
          "name": "_side",
          "type": "uint8"
        },
        {
          "internalType": "address",
          "name": "_user",
          "type": "address"
        },
        {
          "internalType": "uint256",
          "name": "_amount",
          "type": "uint256"
        },
        {
          "internalType": "uint256",
          "name": "_unitPrice",
          "type": "uint256"
        }
      ],
      "name": "createPreOrder",
      "outputs": [],
      "stateMutability": "nonpayable",
      "type": "function"
    },
    {
      "inputs": [
        {
          "internalType": "enum ProtocolTypes.Side",
          "name": "_side",
          "type": "uint8"
        },
        {
          "internalType": "uint256",
          "name": "_futureValue",
          "type": "uint256"
        }
      ],
      "name": "estimateFilledAmount",
      "outputs": [
        {
          "internalType": "uint256",
          "name": "amount",
          "type": "uint256"
        }
      ],
      "stateMutability": "view",
      "type": "function"
    },
    {
      "inputs": [],
      "name": "executeItayoseCall",
      "outputs": [
        {
          "internalType": "uint256",
          "name": "openingUnitPrice",
          "type": "uint256"
        },
        {
          "internalType": "uint256",
          "name": "totalOffsetAmount",
          "type": "uint256"
        },
        {
          "internalType": "uint256",
          "name": "openingDate",
          "type": "uint256"
        },
        {
          "components": [
            {
              "internalType": "address",
              "name": "maker",
              "type": "address"
            },
            {
              "internalType": "uint256",
              "name": "amount",
              "type": "uint256"
            },
            {
              "internalType": "uint256",
              "name": "futureValue",
              "type": "uint256"
            }
          ],
          "internalType": "struct ILendingMarket.PartiallyFilledOrder",
          "name": "partiallyFilledLendingOrder",
          "type": "tuple"
        },
        {
          "components": [
            {
              "internalType": "address",
              "name": "maker",
              "type": "address"
            },
            {
              "internalType": "uint256",
              "name": "amount",
              "type": "uint256"
            },
            {
              "internalType": "uint256",
              "name": "futureValue",
              "type": "uint256"
            }
          ],
          "internalType": "struct ILendingMarket.PartiallyFilledOrder",
          "name": "partiallyFilledBorrowingOrder",
          "type": "tuple"
        }
      ],
      "stateMutability": "nonpayable",
      "type": "function"
    },
    {
      "inputs": [
        {
          "internalType": "uint256",
          "name": "_limit",
          "type": "uint256"
        }
      ],
      "name": "getBorrowOrderBook",
      "outputs": [
        {
          "internalType": "uint256[]",
          "name": "unitPrices",
          "type": "uint256[]"
        },
        {
          "internalType": "uint256[]",
          "name": "amounts",
          "type": "uint256[]"
        },
        {
          "internalType": "uint256[]",
          "name": "quantities",
          "type": "uint256[]"
        }
      ],
      "stateMutability": "view",
      "type": "function"
    },
    {
      "inputs": [
        {
          "internalType": "address",
          "name": "_user",
          "type": "address"
        }
      ],
      "name": "getBorrowOrderIds",
      "outputs": [
        {
          "internalType": "uint48[]",
          "name": "activeOrderIds",
          "type": "uint48[]"
        },
        {
          "internalType": "uint48[]",
          "name": "inActiveOrderIds",
          "type": "uint48[]"
        }
      ],
      "stateMutability": "view",
      "type": "function"
    },
    {
      "inputs": [],
      "name": "getBorrowUnitPrice",
      "outputs": [
        {
          "internalType": "uint256",
          "name": "",
          "type": "uint256"
        }
      ],
      "stateMutability": "view",
      "type": "function"
    },
    {
      "inputs": [],
      "name": "getCurrency",
      "outputs": [
        {
          "internalType": "bytes32",
          "name": "currency",
          "type": "bytes32"
        }
      ],
      "stateMutability": "view",
      "type": "function"
    },
    {
      "inputs": [
        {
          "internalType": "uint256",
          "name": "_limit",
          "type": "uint256"
        }
      ],
      "name": "getLendOrderBook",
      "outputs": [
        {
          "internalType": "uint256[]",
          "name": "unitPrices",
          "type": "uint256[]"
        },
        {
          "internalType": "uint256[]",
          "name": "amounts",
          "type": "uint256[]"
        },
        {
          "internalType": "uint256[]",
          "name": "quantities",
          "type": "uint256[]"
        }
      ],
      "stateMutability": "view",
      "type": "function"
    },
    {
      "inputs": [
        {
          "internalType": "address",
          "name": "_user",
          "type": "address"
        }
      ],
      "name": "getLendOrderIds",
      "outputs": [
        {
          "internalType": "uint48[]",
          "name": "activeOrderIds",
          "type": "uint48[]"
        },
        {
          "internalType": "uint48[]",
          "name": "inActiveOrderIds",
          "type": "uint48[]"
        }
      ],
      "stateMutability": "view",
      "type": "function"
    },
    {
      "inputs": [],
      "name": "getLendUnitPrice",
      "outputs": [
        {
          "internalType": "uint256",
          "name": "",
          "type": "uint256"
        }
      ],
      "stateMutability": "view",
      "type": "function"
    },
    {
      "inputs": [],
      "name": "getMarket",
      "outputs": [
        {
          "components": [
            {
              "internalType": "bytes32",
              "name": "ccy",
              "type": "bytes32"
            },
            {
              "internalType": "uint256",
              "name": "maturity",
              "type": "uint256"
            },
            {
              "internalType": "uint256",
              "name": "openingDate",
              "type": "uint256"
            },
            {
              "internalType": "uint256",
              "name": "borrowUnitPrice",
              "type": "uint256"
            },
            {
              "internalType": "uint256",
              "name": "lendUnitPrice",
              "type": "uint256"
            },
            {
              "internalType": "uint256",
              "name": "midUnitPrice",
              "type": "uint256"
            },
            {
              "internalType": "bool",
              "name": "isReady",
              "type": "bool"
            }
          ],
          "internalType": "struct ILendingMarket.Market",
          "name": "market",
          "type": "tuple"
        }
      ],
      "stateMutability": "view",
      "type": "function"
    },
    {
      "inputs": [],
      "name": "getMaturity",
      "outputs": [
        {
          "internalType": "uint256",
          "name": "maturity",
          "type": "uint256"
        }
      ],
      "stateMutability": "view",
      "type": "function"
    },
    {
      "inputs": [],
      "name": "getMidUnitPrice",
      "outputs": [
        {
          "internalType": "uint256",
          "name": "",
          "type": "uint256"
        }
      ],
      "stateMutability": "view",
      "type": "function"
    },
    {
      "inputs": [],
      "name": "getOpeningDate",
      "outputs": [
        {
          "internalType": "uint256",
          "name": "openingDate",
          "type": "uint256"
        }
      ],
      "stateMutability": "view",
      "type": "function"
    },
    {
      "inputs": [],
      "name": "getOpeningUnitPrice",
      "outputs": [
        {
          "internalType": "uint256",
          "name": "openingUnitPrices",
          "type": "uint256"
        }
      ],
      "stateMutability": "view",
      "type": "function"
    },
    {
      "inputs": [
        {
          "internalType": "uint48",
          "name": "_orderId",
          "type": "uint48"
        }
      ],
      "name": "getOrder",
      "outputs": [
        {
          "internalType": "enum ProtocolTypes.Side",
          "name": "side",
          "type": "uint8"
        },
        {
          "internalType": "uint256",
          "name": "unitPrice",
          "type": "uint256"
        },
        {
          "internalType": "uint256",
          "name": "maturity",
          "type": "uint256"
        },
        {
          "internalType": "address",
          "name": "maker",
          "type": "address"
        },
        {
          "internalType": "uint256",
          "name": "amount",
          "type": "uint256"
        },
        {
          "internalType": "uint256",
          "name": "timestamp",
          "type": "uint256"
        }
      ],
      "stateMutability": "view",
      "type": "function"
    },
    {
      "inputs": [
        {
          "internalType": "address",
          "name": "_user",
          "type": "address"
        }
      ],
      "name": "getTotalAmountFromBorrowOrders",
      "outputs": [
        {
          "internalType": "uint256",
          "name": "activeAmount",
          "type": "uint256"
        },
        {
          "internalType": "uint256",
          "name": "inactiveAmount",
          "type": "uint256"
        },
        {
          "internalType": "uint256",
          "name": "inactiveFutureValue",
          "type": "uint256"
        },
        {
          "internalType": "uint256",
          "name": "maturity",
          "type": "uint256"
        }
      ],
      "stateMutability": "view",
      "type": "function"
    },
    {
      "inputs": [
        {
          "internalType": "address",
          "name": "_user",
          "type": "address"
        }
      ],
      "name": "getTotalAmountFromLendOrders",
      "outputs": [
        {
          "internalType": "uint256",
          "name": "activeAmount",
          "type": "uint256"
        },
        {
          "internalType": "uint256",
          "name": "inactiveAmount",
          "type": "uint256"
        },
        {
          "internalType": "uint256",
          "name": "inactiveFutureValue",
          "type": "uint256"
        },
        {
          "internalType": "uint256",
          "name": "maturity",
          "type": "uint256"
        }
      ],
      "stateMutability": "view",
      "type": "function"
    },
    {
      "inputs": [
        {
          "internalType": "address",
          "name": "_resolver",
          "type": "address"
        },
        {
          "internalType": "bytes32",
          "name": "_ccy",
          "type": "bytes32"
        },
        {
          "internalType": "uint256",
          "name": "_maturity",
          "type": "uint256"
        },
        {
          "internalType": "uint256",
          "name": "_openingDate",
          "type": "uint256"
        }
      ],
      "name": "initialize",
      "outputs": [],
      "stateMutability": "nonpayable",
      "type": "function"
    },
    {
      "inputs": [],
      "name": "isItayosePeriod",
      "outputs": [
        {
          "internalType": "bool",
          "name": "",
          "type": "bool"
        }
      ],
      "stateMutability": "view",
      "type": "function"
    },
    {
      "inputs": [],
      "name": "isMatured",
      "outputs": [
        {
          "internalType": "bool",
          "name": "",
          "type": "bool"
        }
      ],
      "stateMutability": "view",
      "type": "function"
    },
    {
      "inputs": [],
      "name": "isOpened",
      "outputs": [
        {
          "internalType": "bool",
          "name": "",
          "type": "bool"
        }
      ],
      "stateMutability": "view",
      "type": "function"
    },
    {
      "inputs": [],
      "name": "isPreOrderPeriod",
      "outputs": [
        {
          "internalType": "bool",
          "name": "",
          "type": "bool"
        }
      ],
      "stateMutability": "view",
      "type": "function"
    },
    {
      "inputs": [],
      "name": "isReady",
      "outputs": [
        {
          "internalType": "bool",
          "name": "",
          "type": "bool"
        }
      ],
      "stateMutability": "view",
      "type": "function"
    },
    {
      "inputs": [],
      "name": "isResolverCached",
      "outputs": [
        {
          "internalType": "bool",
          "name": "",
          "type": "bool"
        }
      ],
      "stateMutability": "view",
      "type": "function"
    },
    {
      "inputs": [
        {
          "internalType": "uint256",
          "name": "_maturity",
          "type": "uint256"
        },
        {
          "internalType": "uint256",
          "name": "_openingDate",
          "type": "uint256"
        }
      ],
      "name": "openMarket",
      "outputs": [
        {
          "internalType": "uint256",
          "name": "prevMaturity",
          "type": "uint256"
        }
      ],
      "stateMutability": "nonpayable",
      "type": "function"
    },
    {
      "inputs": [],
      "name": "pauseMarket",
      "outputs": [],
      "stateMutability": "nonpayable",
      "type": "function"
    },
    {
      "inputs": [],
      "name": "paused",
      "outputs": [
        {
          "internalType": "bool",
          "name": "",
          "type": "bool"
        }
      ],
      "stateMutability": "view",
      "type": "function"
    },
    {
      "inputs": [],
      "name": "requiredContracts",
      "outputs": [
        {
          "internalType": "bytes32[]",
          "name": "contracts",
          "type": "bytes32[]"
        }
      ],
      "stateMutability": "pure",
      "type": "function"
    },
    {
      "inputs": [],
      "name": "resolver",
      "outputs": [
        {
          "internalType": "contract IAddressResolver",
          "name": "",
          "type": "address"
        }
      ],
      "stateMutability": "view",
      "type": "function"
    },
    {
      "inputs": [],
      "name": "unpauseMarket",
      "outputs": [],
      "stateMutability": "nonpayable",
      "type": "function"
    },
    {
      "inputs": [
        {
          "internalType": "enum ProtocolTypes.Side",
          "name": "_side",
          "type": "uint8"
        },
        {
          "internalType": "address",
          "name": "_user",
          "type": "address"
        },
        {
          "internalType": "uint256",
          "name": "_futureValue",
          "type": "uint256"
        },
        {
          "internalType": "uint256",
          "name": "_circuitBreakerLimitRange",
          "type": "uint256"
        }
      ],
      "name": "unwind",
      "outputs": [
        {
          "components": [
            {
              "internalType": "uint256",
              "name": "unitPrice",
              "type": "uint256"
            },
            {
              "internalType": "uint256",
              "name": "amount",
              "type": "uint256"
            },
            {
              "internalType": "uint256",
              "name": "futureValue",
              "type": "uint256"
            },
            {
              "internalType": "uint256",
              "name": "ignoredAmount",
              "type": "uint256"
            }
          ],
          "internalType": "struct ILendingMarket.FilledOrder",
          "name": "filledOrder",
          "type": "tuple"
        },
        {
          "components": [
            {
              "internalType": "address",
              "name": "maker",
              "type": "address"
            },
            {
              "internalType": "uint256",
              "name": "amount",
              "type": "uint256"
            },
            {
              "internalType": "uint256",
              "name": "futureValue",
              "type": "uint256"
            }
          ],
          "internalType": "struct ILendingMarket.PartiallyFilledOrder",
          "name": "partiallyFilledOrder",
          "type": "tuple"
        }
      ],
      "stateMutability": "nonpayable",
      "type": "function"
    }
  ],
  "transactionHash": "0x5e1d7fcc373abd8f3d98ec8806046b6a8d9ca8a4bf8d774feb4bd116bbb0c2a8",
  "args": [],
  "numDeployments": 3,
  "solcInputHash": "71ad6d69ad6ba34b9bdc13e4e8cf5486",
  "bytecode": "0x608060405234801561001057600080fd5b50613aa4806100206000396000f3fe608060405234801561001057600080fd5b50600436106102275760003560e01c80637c6cd94d11610130578063b7c1d527116100b8578063e16695b51161007c578063e16695b514610494578063e3d904d81461049c578063e7df768c146104cf578063eca3107f146104e2578063f1be1679146104f557600080fd5b8063b7c1d52714610453578063bcc012ad14610466578063d866d35514610479578063e0997659146102b7578063e0dbc76e1461048c57600080fd5b80638152b173116100ff5780638152b1731461040757806386e613a0146104285780639d6529071461043b578063a03738dc14610443578063a094a0311461044b57600080fd5b80637c6cd94d146103b95780637ce219aa146103c15780637e706938146103e65780637f2b6a0d146103ff57600080fd5b80634223607a116101b35780635e0b54da116101825780635e0b54da14610391578063692aa97e146103995780636945c1fd146103a15780636a2c4274146103a957806371613c2d146103b157600080fd5b80634223607a146103145780634bf62d1614610335578063504b89bd146103575780635c975abb1461037957600080fd5b806328378aab116101fa57806328378aab1461028457806329985e5a146102975780632af64bd31461029f5780633d03b9da146102b75780633d4eccdf146102cc57600080fd5b806304f3bcec1461022c5780631610c7ce146102515780631b3508b71461025b5780631e007d1d14610271575b600080fd5b610234610555565b6040516001600160a01b0390911681526020015b60405180910390f35b610259610576565b005b6102636105ae565b604051908152602001610248565b61026361027f366004612e83565b610631565b610259610292366004612ec4565b6106c6565b61025961097e565b6102a7610b2c565b6040519015158152602001610248565b6102bf610c92565b6040516102489190612f0a565b6102df6102da366004612f4e565b610cf7565b604080519788526020880196909652948601939093526060850191909152608084015260a083015260c082015260e001610248565b610327610322366004612f72565b610f38565b604051610248929190612fc3565b61034861034336600461300f565b611160565b60405161024893929190613063565b61036a6103653660046130ba565b6111ff565b6040516102489392919061312b565b600080516020613a4f8339815191525460ff166102a7565b6102636113fa565b6102a7611440565b61026361149b565b6102636114ab565b6102636114da565b6102a76115f7565b6103d46103cf36600461314a565b61163d565b60405161024896959493929190613167565b6103ee6116e8565b6040516102489594939291906131a6565b6102a7611aa0565b61041a610415366004612f4e565b611ab6565b604051610248929190613241565b61026361043636600461326f565b611b55565b6102a7611c2f565b610259611c87565b6102a7611cb4565b610259610461366004613291565b611ce8565b61041a610474366004612f4e565b611ee4565b61034861048736600461300f565b611f29565b610263611f67565b610263611f7a565b6104af6104aa366004612f4e565b611f8d565b604080519485526020850193909352918301526060820152608001610248565b6104af6104dd366004612f4e565b612031565b6103276104f0366004612ec4565b61207a565b6104fd61219c565b6040516102489190600060e082019050825182526020830151602083015260408301516040830152606083015160608301526080830151608083015260a083015160a083015260c0830151151560c083015292915050565b6000600080516020613a2f8339815191525b546001600160a01b0316919050565b61057f3361233c565b6105a45760405162461bcd60e51b815260040161059b906132cc565b60405180910390fd5b6105ac6123b6565b565b60007341BBE9b27cCe94A33FEdF50206912834bc97856B63e2afb0416040518163ffffffff1660e01b815260040160206040518083038186803b1580156105f457600080fd5b505af4158015610608573d6000803e3d6000fd5b505050506040513d601f19601f8201168201806040525081019061062c9190613303565b905090565b604051637d3093d560e11b81526000907341BBE9b27cCe94A33FEdF50206912834bc97856B9063fa6127aa9061066d908690869060040161331c565b60206040518083038186803b15801561068557600080fd5b505af4158015610699573d6000803e3d6000fd5b505050506040513d601f19601f820116820180604052508101906106bd9190613303565b90505b92915050565b6106ce612415565b6106d73361233c565b6106f35760405162461bcd60e51b815260040161059b906132cc565b6106fb6115f7565b6107475760405162461bcd60e51b815260206004820152601b60248201527f4e6f7420696e20746865207072652d6f7264657220706572696f640000000000604482015260640161059b565b600082116107885760405162461bcd60e51b815260206004820152600e60248201526d416d6f756e74206973207a65726f60901b604482015260640161059b565b61079183612468565b60008460018111156107a5576107a56130f3565b1480156108385750604051631a053b6160e21b81526001600160a01b03841660048201527341BBE9b27cCe94A33FEdF50206912834bc97856B90636814ed849060240160206040518083038186803b15801561080057600080fd5b505af4158015610814573d6000803e3d6000fd5b505050506040513d601f19601f82011682018060405250810190610838919061334c565b806108e557506001846001811115610852576108526130f3565b1480156108e5575060405163ceff498f60e01b81526001600160a01b03841660048201527341BBE9b27cCe94A33FEdF50206912834bc97856B9063ceff498f9060240160206040518083038186803b1580156108ad57600080fd5b505af41580156108c1573d6000803e3d6000fd5b505050506040513d601f19601f820116820180604052508101906108e5919061334c565b156109325760405162461bcd60e51b815260206004820152601a60248201527f4f70706f736974652073696465206f7264657220657869737473000000000000604482015260640161059b565b6000610940858585856125a3565b9050600161094c61269b565b65ffffffffffff929092166000908152600a9092016020526040909120805460ff191691151591909117905550505050565b6000610988610c92565b905060005b8151811015610b275760008282815181106109aa576109aa613367565b6020026020010151905060006109cb600080516020613a2f83398151915290565b54604080517f5265736f6c766572206d697373696e67207461726765743a200000000000000060208201526039808201869052825180830390910181526059820192839052636795dbcd60e01b9092526001600160a01b0390921691636795dbcd91610a3c91869190605d016133ca565b60206040518083038186803b158015610a5457600080fd5b505afa158015610a68573d6000803e3d6000fd5b505050506040513d601f19601f82011682018060405250810190610a8c91906133eb565b60008381527f4abde63c3e81aefa5764b017968bc473e83e093d7e1a10247d19e0a3e4124019602090815260409182902080546001600160a01b0319166001600160a01b03851690811790915582518681529182015281519293507f88a93678a3692f6789d9546fc621bf7234b101ddb7d4fe479455112831b8aa68929081900390910190a150508080610b1f9061341e565b91505061098d565b505b50565b600080610b37610c92565b905060005b8151811015610c89576000828281518110610b5957610b59613367565b60200260200101519050610b78600080516020613a2f83398151915290565b600082815260019190910160205260409020546001600160a01b0316600080516020613a2f833981519152546040516321f8a72160e01b8152600481018490526001600160a01b03909116906321f8a7219060240160206040518083038186803b158015610be557600080fd5b505afa158015610bf9573d6000803e3d6000fd5b505050506040513d601f19601f82011682018060405250810190610c1d91906133eb565b6001600160a01b0316141580610c67575060008181527f4abde63c3e81aefa5764b017968bc473e83e093d7e1a10247d19e0a3e412401960205260409020546001600160a01b0316155b15610c76576000935050505090565b5080610c818161341e565b915050610b3c565b50600191505090565b604080516001808252818301909252606091602080830190803683370190505090507f4c656e64696e674d61726b6574436f6e74726f6c6c657200000000000000000081600081518110610ce857610ce8613367565b60200260200101818152505090565b6000806000806000806000610d0a61269b565b6001600160a01b038916600081815260089290920160205260409182902054915163914551f160e01b815260048101919091526024810182905290915060609081907341BBE9b27cCe94A33FEdF50206912834bc97856B9063914551f19060440160006040518083038186803b158015610d8357600080fd5b505af4158015610d97573d6000803e3d6000fd5b505050506040513d6000823e601f3d908101601f19168201604052610dbf9190810190613518565b604051634a53967b60e01b81526001600160a01b038f16600482015260248101889052929c5090995096509092507341BBE9b27cCe94A33FEdF50206912834bc97856B90634a53967b9060440160006040518083038186803b158015610e2457600080fd5b505af4158015610e38573d6000803e3d6000fd5b505050506040513d6000823e601f3d908101601f19168201604052610e609190810190613518565b919a509750945090508415610eca57610e7761269b565b546001600160a01b038b167ffba0ebcbd5c3adaf135b8956666cd643ded961350fd5a61526d7fb0c637f709c846000610eae61269b565b60030154604051610ec193929190613570565b60405180910390a35b8315610f2b57610ed861269b565b546001600160a01b038b167ffba0ebcbd5c3adaf135b8956666cd643ded961350fd5a61526d7fb0c637f709c836001610f0f61269b565b60030154604051610f2293929190613570565b60405180910390a35b5050919395979092949650565b610f636040518060800160405280600081526020016000815260200160008152602001600081525090565b610f6b612e4c565b610f73612415565b610f7c3361233c565b610f985760405162461bcd60e51b815260040161059b906132cc565b610fa0611440565b610fe35760405162461bcd60e51b815260206004820152601460248201527313585c9ad95d081a5cc81b9bdd081bdc195b995960621b604482015260640161059b565b600085116110245760405162461bcd60e51b815260206004820152600e60248201526d416d6f756e74206973207a65726f60901b604482015260640161059b565b61102d86612468565b60008060007341BBE9b27cCe94A33FEdF50206912834bc97856B6339ef2b0a8b89896040518463ffffffff1660e01b815260040161106d9392919061312b565b60606040518083038186803b15801561108557600080fd5b505af4158015611099573d6000803e3d6000fd5b505050506040513d601f19601f820116820180604052508101906110bd91906135a0565b92509250925082156110e0576110d68a8a8a85856126bf565b9095509350611153565b806110f7576110f18a8a8a856125a3565b50611153565b6110ff61269b565b6003015461110b61269b565b600001548a6001600160a01b03167fc28d55e15fb7b9c473a1796eed97e004ad119a1a8ddc913d40a8eb23d140ee698d8660405161114a92919061331c565b60405180910390a45b5050509550959350505050565b60608060607341BBE9b27cCe94A33FEdF50206912834bc97856B634bf62d16856040518263ffffffff1660e01b815260040161119e91815260200190565b60006040518083038186803b1580156111b657600080fd5b505af41580156111ca573d6000803e3d6000fd5b505050506040513d6000823e601f3d908101601f191682016040526111f29190810190613637565b9250925092509193909250565b6000806000848460006112118261163d565b509094505050506001600160a01b038216151590506112645760405162461bcd60e51b815260206004820152600f60248201526e13dc99195c881b9bdd08199bdd5b99608a1b604482015260640161059b565b806001600160a01b0316836001600160a01b0316146112c55760405162461bcd60e51b815260206004820152601760248201527f43616c6c6572206973206e6f7420746865206d616b6572000000000000000000604482015260640161059b565b6112cd612415565b6112d63361233c565b6112f25760405162461bcd60e51b815260040161059b906132cc565b604051636c5db84360e01b81526001600160a01b038916600482015265ffffffffffff881660248201527341BBE9b27cCe94A33FEdF50206912834bc97856B90636c5db8439060440160606040518083038186803b15801561135357600080fd5b505af4158015611367573d6000803e3d6000fd5b505050506040513d601f19601f8201168201806040525081019061138b91906136bf565b919750955093506001600160a01b0388167f8a73e656799f8fbd4ea08e9420225176f98f85ef9a2a11a5a011580b65c8f14588886113c761269b565b546113d061269b565b600301548a8a6040516113e8969594939291906136f6565b60405180910390a25050509250925092565b60007341BBE9b27cCe94A33FEdF50206912834bc97856B63614152b96040518163ffffffff1660e01b815260040160206040518083038186803b1580156105f457600080fd5b600061144a61269b565b600501600061145761269b565b60030154815260208101919091526040016000205460ff168015611480575061147e611aa0565b155b801561062c575061148f61269b565b60020154421015905090565b60006114a561269b565b54919050565b60006114b561269b565b60040160006114c261269b565b60030154815260200190815260200160002054905090565b6000807341BBE9b27cCe94A33FEdF50206912834bc97856B63614152b96040518163ffffffff1660e01b815260040160206040518083038186803b15801561152157600080fd5b505af4158015611535573d6000803e3d6000fd5b505050506040513d601f19601f820116820180604052508101906115599190613303565b905060007341BBE9b27cCe94A33FEdF50206912834bc97856B63e2afb0416040518163ffffffff1660e01b815260040160206040518083038186803b1580156115a157600080fd5b505af41580156115b5573d6000803e3d6000fd5b505050506040513d601f19601f820116820180604052508101906115d99190613303565b90506115f060026115ea8385613735565b906128ed565b9250505090565b600062093a8061160561269b565b60020154611613919061374d565b421015801561062c5750610e1061162861269b565b60020154611636919061374d565b4210905090565b604051633e710cd560e11b815265ffffffffffff82166004820152600090819081908190819081907341BBE9b27cCe94A33FEdF50206912834bc97856B90637ce219aa9060240160c06040518083038186803b15801561169c57600080fd5b505af41580156116b0573d6000803e3d6000fd5b505050506040513d601f19601f820116820180604052508101906116d49190613764565b949c939b5091995097509550909350915050565b60008060006116f5612e4c565b6116fd612e4c565b611705612415565b61170e3361233c565b61172a5760405162461bcd60e51b815260040161059b906132cc565b611732611c2f565b61177e5760405162461bcd60e51b815260206004820152601960248201527f4e6f7420696e2074686520497461796f736520706572696f6400000000000000604482015260640161059b565b7341BBE9b27cCe94A33FEdF50206912834bc97856B636a2c42746040518163ffffffff1660e01b8152600401604080518083038186803b1580156117c157600080fd5b505af41580156117d5573d6000803e3d6000fd5b505050506040513d601f19601f820116820180604052508101906117f991906137c4565b90955093508315611a2657604080518082019091526000808252600160208301525b60028110156119ce5760008060008060007341BBE9b27cCe94A33FEdF50206912834bc97856B63a117eff588886002811061185857611858613367565b60200201518d6000806040518563ffffffff1660e01b815260040161188094939291906137e8565b6101006040518083038186803b15801561189957600080fd5b505af41580156118ad573d6000803e3d6000fd5b505050506040513d601f19601f820116820180604052508101906118d19190613811565b50965096509650965050505060008111156119b65760008787600281106118fa576118fa613367565b60200201516001811115611910576119106130f3565b1415611939576001600160a01b0383168852602088018290526040880181905260019450611958565b6001600160a01b03831689526020890182905260408901819052600094505b61196061269b565b546001600160a01b0384167f8bcbbabac98864c9065ec271b0b9bcd1cbcb0df90dc0bacb3dfd7542df8eb1d4868861199661269b565b6003015487876040516119ad959493929190613883565b60405180910390a35b505050505080806119c69061341e565b91505061181b565b507fdb070045d659ddca1851a8cf1181cfd454167280ce233e2411721eda429248ff6119f861269b565b54611a0161269b565b60030154604080519283526020830191909152810188905260600160405180910390a1505b6001611a3061269b565b6005016000611a3d61269b565b6003015481526020810191909152604001600020805460ff191691151591909117905584611a6961269b565b6004016000611a7661269b565b600301548152602081019190915260400160002055611a9361269b565b6002015492509091929394565b6000611aaa61269b565b60030154421015905090565b604051638152b17360e01b81526001600160a01b038216600482015260609081907341BBE9b27cCe94A33FEdF50206912834bc97856B90638152b173906024015b60006040518083038186803b158015611b0f57600080fd5b505af4158015611b23573d6000803e3d6000fd5b505050506040513d6000823e601f3d908101601f19168201604052611b4b91908101906138bb565b9094909350915050565b6000611b5f611aa0565b611ba35760405162461bcd60e51b815260206004820152601560248201527413585c9ad95d081a5cc81b9bdd081b585d1d5c9959605a1b604482015260640161059b565b611bac3361233c565b611bc85760405162461bcd60e51b815260040161059b906132cc565b611bd061269b565b60030154905082611bdf61269b565b6003015581611bec61269b565b6002015560408051848152602081018390527ffa1e4c93514398092ad307a4842a760bacdd4ff71b27d486bcdc636d9249db34910160405180910390a192915050565b6000610e10611c3c61269b565b60020154611c4a919061374d565b421015801561062c5750611c5c61269b565b6005016000611c6961269b565b60030154815260208101919091526040016000205460ff1615905090565b611c903361233c565b611cac5760405162461bcd60e51b815260040161059b906132cc565b6105ac61295e565b6000611cbe61269b565b6005016000611ccb61269b565b60030154815260208101919091526040016000205460ff16919050565b600054610100900460ff1615808015611d085750600054600160ff909116105b80611d225750303b158015611d22575060005460ff166001145b611d855760405162461bcd60e51b815260206004820152602e60248201527f496e697469616c697a61626c653a20636f6e747261637420697320616c72656160448201526d191e481a5b9a5d1a585b1a5e995960921b606482015260840161059b565b6000805460ff191660011790558015611da8576000805461ff0019166101001790555b6000611db26129a7565b6001600160a01b03161415611e155760405162461bcd60e51b815260206004820152602360248201527f4d7573742062652063616c6c65642066726f6d20626561636f6e20636f6e74726044820152621858dd60ea1b606482015260840161059b565b611e1e856129cf565b83611e2761269b565b5582611e3161269b565b6003015581611e3e61269b565b60020155611e4e610e108361374d565b4210611e8f576001611e5e61269b565b6005016000611e6b61269b565b6003015481526020810191909152604001600020805460ff19169115159190911790555b611e9761097e565b8015611edd576000805461ff0019169055604051600181527f7f26b83ff96e1f2b6a682f133852f6798a09c465da95921460cefb38474024989060200160405180910390a15b5050505050565b60405163bcc012ad60e01b81526001600160a01b038216600482015260609081907341BBE9b27cCe94A33FEdF50206912834bc97856B9063bcc012ad90602401611af7565b60608060607341BBE9b27cCe94A33FEdF50206912834bc97856B63d866d355856040518263ffffffff1660e01b815260040161119e91815260200190565b6000611f7161269b565b60020154905090565b6000611f8461269b565b60030154905090565b604051631c7b209b60e31b81526001600160a01b03821660048201526000908190819081907341BBE9b27cCe94A33FEdF50206912834bc97856B9063e3d904d8906024015b60806040518083038186803b158015611fea57600080fd5b505af4158015611ffe573d6000803e3d6000fd5b505050506040513d601f19601f82011682018060405250810190612022919061391f565b93509350935093509193509193565b6040516339f7dda360e21b81526001600160a01b03821660048201526000908190819081907341BBE9b27cCe94A33FEdF50206912834bc97856B9063e7df768c90602401611fd2565b6120a56040518060800160405280600081526020016000815260200160008152602001600081525090565b6120ad612e4c565b6120b5612415565b6120be3361233c565b6120da5760405162461bcd60e51b815260040161059b906132cc565b6120e2611440565b6121255760405162461bcd60e51b815260206004820152601460248201527313585c9ad95d081a5cc81b9bdd081bdc195b995960621b604482015260640161059b565b600084116121835760405162461bcd60e51b815260206004820152602560248201527f43616e277420706c61636520656d707479206675747572652076616c756520616044820152641b5bdd5b9d60da1b606482015260840161059b565b61218f86868686612a64565b9150915094509492505050565b6121e16040518060e001604052806000801916815260200160008152602001600081526020016000815260200160008152602001600081526020016000151581525090565b6040518060e001604052806121f461269b565b54815260200161220261269b565b60030154815260200161221361269b565b6002015481526020017341BBE9b27cCe94A33FEdF50206912834bc97856B63614152b96040518163ffffffff1660e01b815260040160206040518083038186803b15801561226057600080fd5b505af4158015612274573d6000803e3d6000fd5b505050506040513d601f19601f820116820180604052508101906122989190613303565b81526020017341BBE9b27cCe94A33FEdF50206912834bc97856B63e2afb0416040518163ffffffff1660e01b815260040160206040518083038186803b1580156122e157600080fd5b505af41580156122f5573d6000803e3d6000fd5b505050506040513d601f19601f820116820180604052508101906123199190613303565b81526020016123266114da565b8152602001612333611cb4565b15159052919050565b600080612347610c92565b905060005b81518110156123ac5761237782828151811061236a5761236a613367565b6020026020010151612d53565b6001600160a01b0316846001600160a01b0316141561239a575060019392505050565b806123a48161341e565b91505061234c565b5060009392505050565b6123be612d5e565b600080516020613a4f833981519152805460ff191690557f5db9ee0a495bf2e6ff9c91a7834c1ba4fdd244a5e8aa4e537bd38aeae4b073aa335b6040516001600160a01b03909116815260200160405180910390a1565b600080516020613a4f8339815191525460ff16156105ac5760405162461bcd60e51b815260206004820152601060248201526f14185d5cd8589b194e881c185d5cd95960821b604482015260640161059b565b600061247261269b565b6001600160a01b03831660009081526008919091016020526040902054905061249961269b565b6003015481148061251057506124ad61269b565b6003015481141580156124e257506124c361269b565b6001600160a01b03831660009081526006919091016020526040902054155b801561251057506124f161269b565b6001600160a01b03831660009081526007919091016020526040902054155b61255c5760405162461bcd60e51b815260206004820152601c60248201527f4f7264657220666f756e6420696e2070617374206d6174757269747900000000604482015260640161059b565b61256461269b565b600301548114610b275761257661269b565b6003015461258261269b565b6001600160a01b038416600090815260089190910160205260409020555050565b604051630c0c63c760e21b81526000907341BBE9b27cCe94A33FEdF50206912834bc97856B906330318f1c906125e3908890889088908890600401613955565b60206040518083038186803b1580156125fb57600080fd5b505af415801561260f573d6000803e3d6000fd5b505050506040513d601f19601f820116820180604052508101906126339190613987565b9050836001600160a01b03167f8beeadee3235daab9e24529fa931b16580a52a9237a25823056d2a9acea577b5828761266a61269b565b5461267361269b565b60030154888860405161268b969594939291906136f6565b60405180910390a2949350505050565b7ffc2836757f9146445fc75bc3c897a210ec004e4ee60fc8627ef5cbf2842b3d0a90565b6126ea6040518060800160405280600081526020016000815260200160008152602001600081525090565b6126f2612e4c565b6000807341BBE9b27cCe94A33FEdF50206912834bc97856B63a117eff58a8960008a6040518563ffffffff1660e01b815260040161273394939291906137e8565b6101006040518083038186803b15801561274c57600080fd5b505af4158015612760573d6000803e3d6000fd5b505050506040513d601f19601f820116820180604052508101906127849190613811565b60408b81019290925260208b01929092526001600160a01b039092168952908901929092529287529193509091506127be9050818861374d565b60208501526001600160a01b0388167fc04a2a96be20651da4fad0b7590bfd81e9bff0ad9c86556c936423baaf1e3e808a6127f761269b565b5461280061269b565b60030154602089015189516040808c01519051612822969594939291906139a4565b60405180910390a26040830151156128bd5761283c61269b565b5483516001600160a01b03167f8bcbbabac98864c9065ec271b0b9bcd1cbcb0df90dc0bacb3dfd7542df8eb1d48460008d600181111561287e5761287e6130f3565b1461288a57600061288d565b60015b61289561269b565b60030154886020015189604001516040516128b4959493929190613883565b60405180910390a35b80156128e15784156128d557606084018190526128e1565b611153898983896125a3565b50509550959350505050565b60008082116128fb57600080fd5b600561290783856139da565b61291290600a6139fc565b8361291e86600a6139fc565b61292891906139da565b612932919061374d565b10156129495761294282846139da565b90506106c0565b61295382846139da565b612942906001613735565b612966612415565b600080516020613a4f833981519152805460ff191660011790557f62e78cea01bee320cd4e420270b5ea74000d11b0c9f74754ebdbfc544b05a258336123f8565b60007fa3f0ad74e5423aebfd80d3ef4346578335a9a72aeaee59ff6cb3582b35133d50610567565b600080516020613a2f833981519152546001600160a01b031615612a355760405162461bcd60e51b815260206004820152601b60248201527f5265736f6c766572207265676973746572656420616c72656164790000000000604482015260640161059b565b600080516020613a2f83398151915280546001600160a01b0319166001600160a01b0392909216919091179055565b612a8f6040518060800160405280600081526020016000815260200160008152602001600081525090565b612a97612e4c565b6000807341BBE9b27cCe94A33FEdF50206912834bc97856B6339ef2b0a896000886040518463ffffffff1660e01b8152600401612ad69392919061312b565b60606040518083038186803b158015612aee57600080fd5b505af4158015612b02573d6000803e3d6000fd5b505050506040513d601f19601f82011682018060405250810190612b2691906135a0565b50915091508115612cec5760405163a117eff560e01b81526000907341BBE9b27cCe94A33FEdF50206912834bc97856B9063a117eff590612b71908c9085908c9088906004016137e8565b6101006040518083038186803b158015612b8a57600080fd5b505af4158015612b9e573d6000803e3d6000fd5b505050506040513d601f19601f82011682018060405250810190612bc29190613811565b5060408b81019190915260208b8101929092526001600160a01b039283168b528b019390935291890192909252918752915088167fc04a2a96be20651da4fad0b7590bfd81e9bff0ad9c86556c936423baaf1e3e808a612c2061269b565b54612c2961269b565b6003015460208a01518a516040808d01519051612c4b969594939291906139a4565b60405180910390a2604084015115612ce657612c6561269b565b5484516001600160a01b03167f8bcbbabac98864c9065ec271b0b9bcd1cbcb0df90dc0bacb3dfd7542df8eb1d48360008d6001811115612ca757612ca76130f3565b14612cb3576000612cb6565b60015b612cbe61269b565b6003015489602001518a60400151604051612cdd959493929190613883565b60405180910390a35b50612d48565b612cf461269b565b60030154612d0061269b565b60000154886001600160a01b03167fc28d55e15fb7b9c473a1796eed97e004ad119a1a8ddc913d40a8eb23d140ee698b85604051612d3f92919061331c565b60405180910390a45b505094509492505050565b60006106c082612db4565b600080516020613a4f8339815191525460ff166105ac5760405162461bcd60e51b815260206004820152601460248201527314185d5cd8589b194e881b9bdd081c185d5cd95960621b604482015260640161059b565b60008181527f4abde63c3e81aefa5764b017968bc473e83e093d7e1a10247d19e0a3e41240196020908152604080832054815170026b4b9b9b4b7339030b2323932b9b99d1607d1b9381019390935260318084018690528251808503909101815260519093019091526001600160a01b03169081612e455760405162461bcd60e51b815260040161059b9190613a1b565b5092915050565b604051806060016040528060006001600160a01b0316815260200160008152602001600081525090565b60028110610b2957600080fd5b60008060408385031215612e9657600080fd5b8235612ea181612e76565b946020939093013593505050565b6001600160a01b0381168114610b2957600080fd5b60008060008060808587031215612eda57600080fd5b8435612ee581612e76565b93506020850135612ef581612eaf565b93969395505050506040820135916060013590565b6020808252825182820181905260009190848201906040850190845b81811015612f4257835183529284019291840191600101612f26565b50909695505050505050565b600060208284031215612f6057600080fd5b8135612f6b81612eaf565b9392505050565b600080600080600060a08688031215612f8a57600080fd5b8535612f9581612e76565b94506020860135612fa581612eaf565b94979496505050506040830135926060810135926080909101359150565b8251815260208084015181830152604080850151818401526060808601519084015283516001600160a01b031660808401529083015160a083015282015160c082015260e08101612f6b565b60006020828403121561302157600080fd5b5035919050565b600081518084526020808501945080840160005b838110156130585781518752958201959082019060010161303c565b509495945050505050565b6060815260006130766060830186613028565b82810360208401526130888186613028565b9050828103604084015261309c8185613028565b9695505050505050565b65ffffffffffff81168114610b2957600080fd5b600080604083850312156130cd57600080fd5b82356130d881612eaf565b915060208301356130e8816130a6565b809150509250929050565b634e487b7160e01b600052602160045260246000fd5b6002811061312757634e487b7160e01b600052602160045260246000fd5b9052565b606081016131398286613109565b602082019390935260400152919050565b60006020828403121561315c57600080fd5b8135612f6b816130a6565b60c081016131758289613109565b602082019690965260408101949094526001600160a01b03929092166060840152608083015260a090910152919050565b8581526020808201869052604080830186905284516001600160a01b0316606084015290840151608083015283015160a0820152610120810182516001600160a01b031660c0830152602083015160e0830152604083015161010083015261309c565b600081518084526020808501945080840160005b8381101561305857815165ffffffffffff168752958201959082019060010161321d565b6040815260006132546040830185613209565b82810360208401526132668185613209565b95945050505050565b6000806040838503121561328257600080fd5b50508035926020909101359150565b600080600080608085870312156132a757600080fd5b84356132b281612eaf565b966020860135965060408601359560600135945092505050565b60208082526017908201527f4f6e6c7920416363657074656420436f6e747261637473000000000000000000604082015260600190565b60006020828403121561331557600080fd5b5051919050565b6040810161332a8285613109565b8260208301529392505050565b8051801515811461334757600080fd5b919050565b60006020828403121561335e57600080fd5b6106bd82613337565b634e487b7160e01b600052603260045260246000fd5b6000815180845260005b818110156133a357602081850181015186830182015201613387565b818111156133b5576000602083870101525b50601f01601f19169290920160200192915050565b8281526040602082015260006133e3604083018461337d565b949350505050565b6000602082840312156133fd57600080fd5b8151612f6b81612eaf565b634e487b7160e01b600052601160045260246000fd5b600060001982141561343257613432613408565b5060010190565b634e487b7160e01b600052604160045260246000fd5b604051601f8201601f1916810167ffffffffffffffff8111828210171561347857613478613439565b604052919050565b600067ffffffffffffffff82111561349a5761349a613439565b5060051b60200190565b600082601f8301126134b557600080fd5b815160206134ca6134c583613480565b61344f565b82815260059290921b840181019181810190868411156134e957600080fd5b8286015b8481101561350d578051613500816130a6565b83529183019183016134ed565b509695505050505050565b6000806000806080858703121561352e57600080fd5b845167ffffffffffffffff81111561354557600080fd5b613551878288016134a4565b6020870151604088015160609098015191999098509095509350505050565b6060815260006135836060830186613209565b90506135926020830185613109565b826040830152949350505050565b6000806000606084860312156135b557600080fd5b6135be84613337565b9250602084015191506135d360408501613337565b90509250925092565b600082601f8301126135ed57600080fd5b815160206135fd6134c583613480565b82815260059290921b8401810191818101908684111561361c57600080fd5b8286015b8481101561350d5780518352918301918301613620565b60008060006060848603121561364c57600080fd5b835167ffffffffffffffff8082111561366457600080fd5b613670878388016135dc565b9450602086015191508082111561368657600080fd5b613692878388016135dc565b935060408601519150808211156136a857600080fd5b506136b5868287016135dc565b9150509250925092565b6000806000606084860312156136d457600080fd5b83516136df81612e76565b602085015160409095015190969495509392505050565b65ffffffffffff8716815260c081016137126020830188613109565b8560408301528460608301528360808301528260a0830152979650505050505050565b6000821982111561374857613748613408565b500190565b60008282101561375f5761375f613408565b500390565b60008060008060008060c0878903121561377d57600080fd5b865161378881612e76565b80965050602087015194506040870151935060608701516137a881612eaf565b809350506080870151915060a087015190509295509295509295565b600080604083850312156137d757600080fd5b505080516020909101519092909150565b608081016137f68287613109565b84602083015283604083015282606083015295945050505050565b600080600080600080600080610100898b03121561382e57600080fd5b885197506020890151965060408901519550606089015161384e816130a6565b60808a015190955061385f81612eaf565b60a08a015160c08b015160e0909b0151999c989b5096999598909790945092505050565b65ffffffffffff8616815260a0810161389f6020830187613109565b8460408301528360608301528260808301529695505050505050565b600080604083850312156138ce57600080fd5b825167ffffffffffffffff808211156138e657600080fd5b6138f2868387016134a4565b9350602085015191508082111561390857600080fd5b50613915858286016134a4565b9150509250929050565b6000806000806080858703121561393557600080fd5b505082516020840151604085015160609095015191969095509092509050565b608081016139638287613109565b6001600160a01b039490941660208201526040810192909252606090910152919050565b60006020828403121561399957600080fd5b8151612f6b816130a6565b60c081016139b28289613109565b602082019690965260408101949094526060840192909252608083015260a090910152919050565b6000826139f757634e487b7160e01b600052601260045260246000fd5b500490565b6000816000190483118215151615613a1657613a16613408565b500290565b6020815260006106bd602083018461337d56fe4abde63c3e81aefa5764b017968bc473e83e093d7e1a10247d19e0a3e41240189c789132bdb3678132848a8dcd780bffd2b1abdce3984c522ac1d8aeb48f05f3a26469706673582212202e2879cba175b17798cfdd80567aa47cb14e5fe98ab8ecf6bda57dd215f7b68364736f6c63430008090033",
  "deployedBytecode": "0x608060405234801561001057600080fd5b50600436106102275760003560e01c80637c6cd94d11610130578063b7c1d527116100b8578063e16695b51161007c578063e16695b514610494578063e3d904d81461049c578063e7df768c146104cf578063eca3107f146104e2578063f1be1679146104f557600080fd5b8063b7c1d52714610453578063bcc012ad14610466578063d866d35514610479578063e0997659146102b7578063e0dbc76e1461048c57600080fd5b80638152b173116100ff5780638152b1731461040757806386e613a0146104285780639d6529071461043b578063a03738dc14610443578063a094a0311461044b57600080fd5b80637c6cd94d146103b95780637ce219aa146103c15780637e706938146103e65780637f2b6a0d146103ff57600080fd5b80634223607a116101b35780635e0b54da116101825780635e0b54da14610391578063692aa97e146103995780636945c1fd146103a15780636a2c4274146103a957806371613c2d146103b157600080fd5b80634223607a146103145780634bf62d1614610335578063504b89bd146103575780635c975abb1461037957600080fd5b806328378aab116101fa57806328378aab1461028457806329985e5a146102975780632af64bd31461029f5780633d03b9da146102b75780633d4eccdf146102cc57600080fd5b806304f3bcec1461022c5780631610c7ce146102515780631b3508b71461025b5780631e007d1d14610271575b600080fd5b610234610555565b6040516001600160a01b0390911681526020015b60405180910390f35b610259610576565b005b6102636105ae565b604051908152602001610248565b61026361027f366004612e83565b610631565b610259610292366004612ec4565b6106c6565b61025961097e565b6102a7610b2c565b6040519015158152602001610248565b6102bf610c92565b6040516102489190612f0a565b6102df6102da366004612f4e565b610cf7565b604080519788526020880196909652948601939093526060850191909152608084015260a083015260c082015260e001610248565b610327610322366004612f72565b610f38565b604051610248929190612fc3565b61034861034336600461300f565b611160565b60405161024893929190613063565b61036a6103653660046130ba565b6111ff565b6040516102489392919061312b565b600080516020613a4f8339815191525460ff166102a7565b6102636113fa565b6102a7611440565b61026361149b565b6102636114ab565b6102636114da565b6102a76115f7565b6103d46103cf36600461314a565b61163d565b60405161024896959493929190613167565b6103ee6116e8565b6040516102489594939291906131a6565b6102a7611aa0565b61041a610415366004612f4e565b611ab6565b604051610248929190613241565b61026361043636600461326f565b611b55565b6102a7611c2f565b610259611c87565b6102a7611cb4565b610259610461366004613291565b611ce8565b61041a610474366004612f4e565b611ee4565b61034861048736600461300f565b611f29565b610263611f67565b610263611f7a565b6104af6104aa366004612f4e565b611f8d565b604080519485526020850193909352918301526060820152608001610248565b6104af6104dd366004612f4e565b612031565b6103276104f0366004612ec4565b61207a565b6104fd61219c565b6040516102489190600060e082019050825182526020830151602083015260408301516040830152606083015160608301526080830151608083015260a083015160a083015260c0830151151560c083015292915050565b6000600080516020613a2f8339815191525b546001600160a01b0316919050565b61057f3361233c565b6105a45760405162461bcd60e51b815260040161059b906132cc565b60405180910390fd5b6105ac6123b6565b565b600073__$ddd2182d6f392994445e6b8b482a37128a$__63e2afb0416040518163ffffffff1660e01b815260040160206040518083038186803b1580156105f457600080fd5b505af4158015610608573d6000803e3d6000fd5b505050506040513d601f19601f8201168201806040525081019061062c9190613303565b905090565b604051637d3093d560e11b815260009073__$ddd2182d6f392994445e6b8b482a37128a$__9063fa6127aa9061066d908690869060040161331c565b60206040518083038186803b15801561068557600080fd5b505af4158015610699573d6000803e3d6000fd5b505050506040513d601f19601f820116820180604052508101906106bd9190613303565b90505b92915050565b6106ce612415565b6106d73361233c565b6106f35760405162461bcd60e51b815260040161059b906132cc565b6106fb6115f7565b6107475760405162461bcd60e51b815260206004820152601b60248201527f4e6f7420696e20746865207072652d6f7264657220706572696f640000000000604482015260640161059b565b600082116107885760405162461bcd60e51b815260206004820152600e60248201526d416d6f756e74206973207a65726f60901b604482015260640161059b565b61079183612468565b60008460018111156107a5576107a56130f3565b1480156108385750604051631a053b6160e21b81526001600160a01b038416600482015273__$ddd2182d6f392994445e6b8b482a37128a$__90636814ed849060240160206040518083038186803b15801561080057600080fd5b505af4158015610814573d6000803e3d6000fd5b505050506040513d601f19601f82011682018060405250810190610838919061334c565b806108e557506001846001811115610852576108526130f3565b1480156108e5575060405163ceff498f60e01b81526001600160a01b038416600482015273__$ddd2182d6f392994445e6b8b482a37128a$__9063ceff498f9060240160206040518083038186803b1580156108ad57600080fd5b505af41580156108c1573d6000803e3d6000fd5b505050506040513d601f19601f820116820180604052508101906108e5919061334c565b156109325760405162461bcd60e51b815260206004820152601a60248201527f4f70706f736974652073696465206f7264657220657869737473000000000000604482015260640161059b565b6000610940858585856125a3565b9050600161094c61269b565b65ffffffffffff929092166000908152600a9092016020526040909120805460ff191691151591909117905550505050565b6000610988610c92565b905060005b8151811015610b275760008282815181106109aa576109aa613367565b6020026020010151905060006109cb600080516020613a2f83398151915290565b54604080517f5265736f6c766572206d697373696e67207461726765743a200000000000000060208201526039808201869052825180830390910181526059820192839052636795dbcd60e01b9092526001600160a01b0390921691636795dbcd91610a3c91869190605d016133ca565b60206040518083038186803b158015610a5457600080fd5b505afa158015610a68573d6000803e3d6000fd5b505050506040513d601f19601f82011682018060405250810190610a8c91906133eb565b60008381527f4abde63c3e81aefa5764b017968bc473e83e093d7e1a10247d19e0a3e4124019602090815260409182902080546001600160a01b0319166001600160a01b03851690811790915582518681529182015281519293507f88a93678a3692f6789d9546fc621bf7234b101ddb7d4fe479455112831b8aa68929081900390910190a150508080610b1f9061341e565b91505061098d565b505b50565b600080610b37610c92565b905060005b8151811015610c89576000828281518110610b5957610b59613367565b60200260200101519050610b78600080516020613a2f83398151915290565b600082815260019190910160205260409020546001600160a01b0316600080516020613a2f833981519152546040516321f8a72160e01b8152600481018490526001600160a01b03909116906321f8a7219060240160206040518083038186803b158015610be557600080fd5b505afa158015610bf9573d6000803e3d6000fd5b505050506040513d601f19601f82011682018060405250810190610c1d91906133eb565b6001600160a01b0316141580610c67575060008181527f4abde63c3e81aefa5764b017968bc473e83e093d7e1a10247d19e0a3e412401960205260409020546001600160a01b0316155b15610c76576000935050505090565b5080610c818161341e565b915050610b3c565b50600191505090565b604080516001808252818301909252606091602080830190803683370190505090507f4c656e64696e674d61726b6574436f6e74726f6c6c657200000000000000000081600081518110610ce857610ce8613367565b60200260200101818152505090565b6000806000806000806000610d0a61269b565b6001600160a01b038916600081815260089290920160205260409182902054915163914551f160e01b8152600481019190915260248101829052909150606090819073__$ddd2182d6f392994445e6b8b482a37128a$__9063914551f19060440160006040518083038186803b158015610d8357600080fd5b505af4158015610d97573d6000803e3d6000fd5b505050506040513d6000823e601f3d908101601f19168201604052610dbf9190810190613518565b604051634a53967b60e01b81526001600160a01b038f16600482015260248101889052929c50909950965090925073__$ddd2182d6f392994445e6b8b482a37128a$__90634a53967b9060440160006040518083038186803b158015610e2457600080fd5b505af4158015610e38573d6000803e3d6000fd5b505050506040513d6000823e601f3d908101601f19168201604052610e609190810190613518565b919a509750945090508415610eca57610e7761269b565b546001600160a01b038b167ffba0ebcbd5c3adaf135b8956666cd643ded961350fd5a61526d7fb0c637f709c846000610eae61269b565b60030154604051610ec193929190613570565b60405180910390a35b8315610f2b57610ed861269b565b546001600160a01b038b167ffba0ebcbd5c3adaf135b8956666cd643ded961350fd5a61526d7fb0c637f709c836001610f0f61269b565b60030154604051610f2293929190613570565b60405180910390a35b5050919395979092949650565b610f636040518060800160405280600081526020016000815260200160008152602001600081525090565b610f6b612e4c565b610f73612415565b610f7c3361233c565b610f985760405162461bcd60e51b815260040161059b906132cc565b610fa0611440565b610fe35760405162461bcd60e51b815260206004820152601460248201527313585c9ad95d081a5cc81b9bdd081bdc195b995960621b604482015260640161059b565b600085116110245760405162461bcd60e51b815260206004820152600e60248201526d416d6f756e74206973207a65726f60901b604482015260640161059b565b61102d86612468565b600080600073__$ddd2182d6f392994445e6b8b482a37128a$__6339ef2b0a8b89896040518463ffffffff1660e01b815260040161106d9392919061312b565b60606040518083038186803b15801561108557600080fd5b505af4158015611099573d6000803e3d6000fd5b505050506040513d601f19601f820116820180604052508101906110bd91906135a0565b92509250925082156110e0576110d68a8a8a85856126bf565b9095509350611153565b806110f7576110f18a8a8a856125a3565b50611153565b6110ff61269b565b6003015461110b61269b565b600001548a6001600160a01b03167fc28d55e15fb7b9c473a1796eed97e004ad119a1a8ddc913d40a8eb23d140ee698d8660405161114a92919061331c565b60405180910390a45b5050509550959350505050565b606080606073__$ddd2182d6f392994445e6b8b482a37128a$__634bf62d16856040518263ffffffff1660e01b815260040161119e91815260200190565b60006040518083038186803b1580156111b657600080fd5b505af41580156111ca573d6000803e3d6000fd5b505050506040513d6000823e601f3d908101601f191682016040526111f29190810190613637565b9250925092509193909250565b6000806000848460006112118261163d565b509094505050506001600160a01b038216151590506112645760405162461bcd60e51b815260206004820152600f60248201526e13dc99195c881b9bdd08199bdd5b99608a1b604482015260640161059b565b806001600160a01b0316836001600160a01b0316146112c55760405162461bcd60e51b815260206004820152601760248201527f43616c6c6572206973206e6f7420746865206d616b6572000000000000000000604482015260640161059b565b6112cd612415565b6112d63361233c565b6112f25760405162461bcd60e51b815260040161059b906132cc565b604051636c5db84360e01b81526001600160a01b038916600482015265ffffffffffff8816602482015273__$ddd2182d6f392994445e6b8b482a37128a$__90636c5db8439060440160606040518083038186803b15801561135357600080fd5b505af4158015611367573d6000803e3d6000fd5b505050506040513d601f19601f8201168201806040525081019061138b91906136bf565b919750955093506001600160a01b0388167f8a73e656799f8fbd4ea08e9420225176f98f85ef9a2a11a5a011580b65c8f14588886113c761269b565b546113d061269b565b600301548a8a6040516113e8969594939291906136f6565b60405180910390a25050509250925092565b600073__$ddd2182d6f392994445e6b8b482a37128a$__63614152b96040518163ffffffff1660e01b815260040160206040518083038186803b1580156105f457600080fd5b600061144a61269b565b600501600061145761269b565b60030154815260208101919091526040016000205460ff168015611480575061147e611aa0565b155b801561062c575061148f61269b565b60020154421015905090565b60006114a561269b565b54919050565b60006114b561269b565b60040160006114c261269b565b60030154815260200190815260200160002054905090565b60008073__$ddd2182d6f392994445e6b8b482a37128a$__63614152b96040518163ffffffff1660e01b815260040160206040518083038186803b15801561152157600080fd5b505af4158015611535573d6000803e3d6000fd5b505050506040513d601f19601f820116820180604052508101906115599190613303565b9050600073__$ddd2182d6f392994445e6b8b482a37128a$__63e2afb0416040518163ffffffff1660e01b815260040160206040518083038186803b1580156115a157600080fd5b505af41580156115b5573d6000803e3d6000fd5b505050506040513d601f19601f820116820180604052508101906115d99190613303565b90506115f060026115ea8385613735565b906128ed565b9250505090565b600062093a8061160561269b565b60020154611613919061374d565b421015801561062c5750610e1061162861269b565b60020154611636919061374d565b4210905090565b604051633e710cd560e11b815265ffffffffffff821660048201526000908190819081908190819073__$ddd2182d6f392994445e6b8b482a37128a$__90637ce219aa9060240160c06040518083038186803b15801561169c57600080fd5b505af41580156116b0573d6000803e3d6000fd5b505050506040513d601f19601f820116820180604052508101906116d49190613764565b949c939b5091995097509550909350915050565b60008060006116f5612e4c565b6116fd612e4c565b611705612415565b61170e3361233c565b61172a5760405162461bcd60e51b815260040161059b906132cc565b611732611c2f565b61177e5760405162461bcd60e51b815260206004820152601960248201527f4e6f7420696e2074686520497461796f736520706572696f6400000000000000604482015260640161059b565b73__$ddd2182d6f392994445e6b8b482a37128a$__636a2c42746040518163ffffffff1660e01b8152600401604080518083038186803b1580156117c157600080fd5b505af41580156117d5573d6000803e3d6000fd5b505050506040513d601f19601f820116820180604052508101906117f991906137c4565b90955093508315611a2657604080518082019091526000808252600160208301525b60028110156119ce57600080600080600073__$ddd2182d6f392994445e6b8b482a37128a$__63a117eff588886002811061185857611858613367565b60200201518d6000806040518563ffffffff1660e01b815260040161188094939291906137e8565b6101006040518083038186803b15801561189957600080fd5b505af41580156118ad573d6000803e3d6000fd5b505050506040513d601f19601f820116820180604052508101906118d19190613811565b50965096509650965050505060008111156119b65760008787600281106118fa576118fa613367565b60200201516001811115611910576119106130f3565b1415611939576001600160a01b0383168852602088018290526040880181905260019450611958565b6001600160a01b03831689526020890182905260408901819052600094505b61196061269b565b546001600160a01b0384167f8bcbbabac98864c9065ec271b0b9bcd1cbcb0df90dc0bacb3dfd7542df8eb1d4868861199661269b565b6003015487876040516119ad959493929190613883565b60405180910390a35b505050505080806119c69061341e565b91505061181b565b507fdb070045d659ddca1851a8cf1181cfd454167280ce233e2411721eda429248ff6119f861269b565b54611a0161269b565b60030154604080519283526020830191909152810188905260600160405180910390a1505b6001611a3061269b565b6005016000611a3d61269b565b6003015481526020810191909152604001600020805460ff191691151591909117905584611a6961269b565b6004016000611a7661269b565b600301548152602081019190915260400160002055611a9361269b565b6002015492509091929394565b6000611aaa61269b565b60030154421015905090565b604051638152b17360e01b81526001600160a01b0382166004820152606090819073__$ddd2182d6f392994445e6b8b482a37128a$__90638152b173906024015b60006040518083038186803b158015611b0f57600080fd5b505af4158015611b23573d6000803e3d6000fd5b505050506040513d6000823e601f3d908101601f19168201604052611b4b91908101906138bb565b9094909350915050565b6000611b5f611aa0565b611ba35760405162461bcd60e51b815260206004820152601560248201527413585c9ad95d081a5cc81b9bdd081b585d1d5c9959605a1b604482015260640161059b565b611bac3361233c565b611bc85760405162461bcd60e51b815260040161059b906132cc565b611bd061269b565b60030154905082611bdf61269b565b6003015581611bec61269b565b6002015560408051848152602081018390527ffa1e4c93514398092ad307a4842a760bacdd4ff71b27d486bcdc636d9249db34910160405180910390a192915050565b6000610e10611c3c61269b565b60020154611c4a919061374d565b421015801561062c5750611c5c61269b565b6005016000611c6961269b565b60030154815260208101919091526040016000205460ff1615905090565b611c903361233c565b611cac5760405162461bcd60e51b815260040161059b906132cc565b6105ac61295e565b6000611cbe61269b565b6005016000611ccb61269b565b60030154815260208101919091526040016000205460ff16919050565b600054610100900460ff1615808015611d085750600054600160ff909116105b80611d225750303b158015611d22575060005460ff166001145b611d855760405162461bcd60e51b815260206004820152602e60248201527f496e697469616c697a61626c653a20636f6e747261637420697320616c72656160448201526d191e481a5b9a5d1a585b1a5e995960921b606482015260840161059b565b6000805460ff191660011790558015611da8576000805461ff0019166101001790555b6000611db26129a7565b6001600160a01b03161415611e155760405162461bcd60e51b815260206004820152602360248201527f4d7573742062652063616c6c65642066726f6d20626561636f6e20636f6e74726044820152621858dd60ea1b606482015260840161059b565b611e1e856129cf565b83611e2761269b565b5582611e3161269b565b6003015581611e3e61269b565b60020155611e4e610e108361374d565b4210611e8f576001611e5e61269b565b6005016000611e6b61269b565b6003015481526020810191909152604001600020805460ff19169115159190911790555b611e9761097e565b8015611edd576000805461ff0019169055604051600181527f7f26b83ff96e1f2b6a682f133852f6798a09c465da95921460cefb38474024989060200160405180910390a15b5050505050565b60405163bcc012ad60e01b81526001600160a01b0382166004820152606090819073__$ddd2182d6f392994445e6b8b482a37128a$__9063bcc012ad90602401611af7565b606080606073__$ddd2182d6f392994445e6b8b482a37128a$__63d866d355856040518263ffffffff1660e01b815260040161119e91815260200190565b6000611f7161269b565b60020154905090565b6000611f8461269b565b60030154905090565b604051631c7b209b60e31b81526001600160a01b038216600482015260009081908190819073__$ddd2182d6f392994445e6b8b482a37128a$__9063e3d904d8906024015b60806040518083038186803b158015611fea57600080fd5b505af4158015611ffe573d6000803e3d6000fd5b505050506040513d601f19601f82011682018060405250810190612022919061391f565b93509350935093509193509193565b6040516339f7dda360e21b81526001600160a01b038216600482015260009081908190819073__$ddd2182d6f392994445e6b8b482a37128a$__9063e7df768c90602401611fd2565b6120a56040518060800160405280600081526020016000815260200160008152602001600081525090565b6120ad612e4c565b6120b5612415565b6120be3361233c565b6120da5760405162461bcd60e51b815260040161059b906132cc565b6120e2611440565b6121255760405162461bcd60e51b815260206004820152601460248201527313585c9ad95d081a5cc81b9bdd081bdc195b995960621b604482015260640161059b565b600084116121835760405162461bcd60e51b815260206004820152602560248201527f43616e277420706c61636520656d707479206675747572652076616c756520616044820152641b5bdd5b9d60da1b606482015260840161059b565b61218f86868686612a64565b9150915094509492505050565b6121e16040518060e001604052806000801916815260200160008152602001600081526020016000815260200160008152602001600081526020016000151581525090565b6040518060e001604052806121f461269b565b54815260200161220261269b565b60030154815260200161221361269b565b60020154815260200173__$ddd2182d6f392994445e6b8b482a37128a$__63614152b96040518163ffffffff1660e01b815260040160206040518083038186803b15801561226057600080fd5b505af4158015612274573d6000803e3d6000fd5b505050506040513d601f19601f820116820180604052508101906122989190613303565b815260200173__$ddd2182d6f392994445e6b8b482a37128a$__63e2afb0416040518163ffffffff1660e01b815260040160206040518083038186803b1580156122e157600080fd5b505af41580156122f5573d6000803e3d6000fd5b505050506040513d601f19601f820116820180604052508101906123199190613303565b81526020016123266114da565b8152602001612333611cb4565b15159052919050565b600080612347610c92565b905060005b81518110156123ac5761237782828151811061236a5761236a613367565b6020026020010151612d53565b6001600160a01b0316846001600160a01b0316141561239a575060019392505050565b806123a48161341e565b91505061234c565b5060009392505050565b6123be612d5e565b600080516020613a4f833981519152805460ff191690557f5db9ee0a495bf2e6ff9c91a7834c1ba4fdd244a5e8aa4e537bd38aeae4b073aa335b6040516001600160a01b03909116815260200160405180910390a1565b600080516020613a4f8339815191525460ff16156105ac5760405162461bcd60e51b815260206004820152601060248201526f14185d5cd8589b194e881c185d5cd95960821b604482015260640161059b565b600061247261269b565b6001600160a01b03831660009081526008919091016020526040902054905061249961269b565b6003015481148061251057506124ad61269b565b6003015481141580156124e257506124c361269b565b6001600160a01b03831660009081526006919091016020526040902054155b801561251057506124f161269b565b6001600160a01b03831660009081526007919091016020526040902054155b61255c5760405162461bcd60e51b815260206004820152601c60248201527f4f7264657220666f756e6420696e2070617374206d6174757269747900000000604482015260640161059b565b61256461269b565b600301548114610b275761257661269b565b6003015461258261269b565b6001600160a01b038416600090815260089190910160205260409020555050565b604051630c0c63c760e21b815260009073__$ddd2182d6f392994445e6b8b482a37128a$__906330318f1c906125e3908890889088908890600401613955565b60206040518083038186803b1580156125fb57600080fd5b505af415801561260f573d6000803e3d6000fd5b505050506040513d601f19601f820116820180604052508101906126339190613987565b9050836001600160a01b03167f8beeadee3235daab9e24529fa931b16580a52a9237a25823056d2a9acea577b5828761266a61269b565b5461267361269b565b60030154888860405161268b969594939291906136f6565b60405180910390a2949350505050565b7ffc2836757f9146445fc75bc3c897a210ec004e4ee60fc8627ef5cbf2842b3d0a90565b6126ea6040518060800160405280600081526020016000815260200160008152602001600081525090565b6126f2612e4c565b60008073__$ddd2182d6f392994445e6b8b482a37128a$__63a117eff58a8960008a6040518563ffffffff1660e01b815260040161273394939291906137e8565b6101006040518083038186803b15801561274c57600080fd5b505af4158015612760573d6000803e3d6000fd5b505050506040513d601f19601f820116820180604052508101906127849190613811565b60408b81019290925260208b01929092526001600160a01b039092168952908901929092529287529193509091506127be9050818861374d565b60208501526001600160a01b0388167fc04a2a96be20651da4fad0b7590bfd81e9bff0ad9c86556c936423baaf1e3e808a6127f761269b565b5461280061269b565b60030154602089015189516040808c01519051612822969594939291906139a4565b60405180910390a26040830151156128bd5761283c61269b565b5483516001600160a01b03167f8bcbbabac98864c9065ec271b0b9bcd1cbcb0df90dc0bacb3dfd7542df8eb1d48460008d600181111561287e5761287e6130f3565b1461288a57600061288d565b60015b61289561269b565b60030154886020015189604001516040516128b4959493929190613883565b60405180910390a35b80156128e15784156128d557606084018190526128e1565b611153898983896125a3565b50509550959350505050565b60008082116128fb57600080fd5b600561290783856139da565b61291290600a6139fc565b8361291e86600a6139fc565b61292891906139da565b612932919061374d565b10156129495761294282846139da565b90506106c0565b61295382846139da565b612942906001613735565b612966612415565b600080516020613a4f833981519152805460ff191660011790557f62e78cea01bee320cd4e420270b5ea74000d11b0c9f74754ebdbfc544b05a258336123f8565b60007fa3f0ad74e5423aebfd80d3ef4346578335a9a72aeaee59ff6cb3582b35133d50610567565b600080516020613a2f833981519152546001600160a01b031615612a355760405162461bcd60e51b815260206004820152601b60248201527f5265736f6c766572207265676973746572656420616c72656164790000000000604482015260640161059b565b600080516020613a2f83398151915280546001600160a01b0319166001600160a01b0392909216919091179055565b612a8f6040518060800160405280600081526020016000815260200160008152602001600081525090565b612a97612e4c565b60008073__$ddd2182d6f392994445e6b8b482a37128a$__6339ef2b0a896000886040518463ffffffff1660e01b8152600401612ad69392919061312b565b60606040518083038186803b158015612aee57600080fd5b505af4158015612b02573d6000803e3d6000fd5b505050506040513d601f19601f82011682018060405250810190612b2691906135a0565b50915091508115612cec5760405163a117eff560e01b815260009073__$ddd2182d6f392994445e6b8b482a37128a$__9063a117eff590612b71908c9085908c9088906004016137e8565b6101006040518083038186803b158015612b8a57600080fd5b505af4158015612b9e573d6000803e3d6000fd5b505050506040513d601f19601f82011682018060405250810190612bc29190613811565b5060408b81019190915260208b8101929092526001600160a01b039283168b528b019390935291890192909252918752915088167fc04a2a96be20651da4fad0b7590bfd81e9bff0ad9c86556c936423baaf1e3e808a612c2061269b565b54612c2961269b565b6003015460208a01518a516040808d01519051612c4b969594939291906139a4565b60405180910390a2604084015115612ce657612c6561269b565b5484516001600160a01b03167f8bcbbabac98864c9065ec271b0b9bcd1cbcb0df90dc0bacb3dfd7542df8eb1d48360008d6001811115612ca757612ca76130f3565b14612cb3576000612cb6565b60015b612cbe61269b565b6003015489602001518a60400151604051612cdd959493929190613883565b60405180910390a35b50612d48565b612cf461269b565b60030154612d0061269b565b60000154886001600160a01b03167fc28d55e15fb7b9c473a1796eed97e004ad119a1a8ddc913d40a8eb23d140ee698b85604051612d3f92919061331c565b60405180910390a45b505094509492505050565b60006106c082612db4565b600080516020613a4f8339815191525460ff166105ac5760405162461bcd60e51b815260206004820152601460248201527314185d5cd8589b194e881b9bdd081c185d5cd95960621b604482015260640161059b565b60008181527f4abde63c3e81aefa5764b017968bc473e83e093d7e1a10247d19e0a3e41240196020908152604080832054815170026b4b9b9b4b7339030b2323932b9b99d1607d1b9381019390935260318084018690528251808503909101815260519093019091526001600160a01b03169081612e455760405162461bcd60e51b815260040161059b9190613a1b565b5092915050565b604051806060016040528060006001600160a01b0316815260200160008152602001600081525090565b60028110610b2957600080fd5b60008060408385031215612e9657600080fd5b8235612ea181612e76565b946020939093013593505050565b6001600160a01b0381168114610b2957600080fd5b60008060008060808587031215612eda57600080fd5b8435612ee581612e76565b93506020850135612ef581612eaf565b93969395505050506040820135916060013590565b6020808252825182820181905260009190848201906040850190845b81811015612f4257835183529284019291840191600101612f26565b50909695505050505050565b600060208284031215612f6057600080fd5b8135612f6b81612eaf565b9392505050565b600080600080600060a08688031215612f8a57600080fd5b8535612f9581612e76565b94506020860135612fa581612eaf565b94979496505050506040830135926060810135926080909101359150565b8251815260208084015181830152604080850151818401526060808601519084015283516001600160a01b031660808401529083015160a083015282015160c082015260e08101612f6b565b60006020828403121561302157600080fd5b5035919050565b600081518084526020808501945080840160005b838110156130585781518752958201959082019060010161303c565b509495945050505050565b6060815260006130766060830186613028565b82810360208401526130888186613028565b9050828103604084015261309c8185613028565b9695505050505050565b65ffffffffffff81168114610b2957600080fd5b600080604083850312156130cd57600080fd5b82356130d881612eaf565b915060208301356130e8816130a6565b809150509250929050565b634e487b7160e01b600052602160045260246000fd5b6002811061312757634e487b7160e01b600052602160045260246000fd5b9052565b606081016131398286613109565b602082019390935260400152919050565b60006020828403121561315c57600080fd5b8135612f6b816130a6565b60c081016131758289613109565b602082019690965260408101949094526001600160a01b03929092166060840152608083015260a090910152919050565b8581526020808201869052604080830186905284516001600160a01b0316606084015290840151608083015283015160a0820152610120810182516001600160a01b031660c0830152602083015160e0830152604083015161010083015261309c565b600081518084526020808501945080840160005b8381101561305857815165ffffffffffff168752958201959082019060010161321d565b6040815260006132546040830185613209565b82810360208401526132668185613209565b95945050505050565b6000806040838503121561328257600080fd5b50508035926020909101359150565b600080600080608085870312156132a757600080fd5b84356132b281612eaf565b966020860135965060408601359560600135945092505050565b60208082526017908201527f4f6e6c7920416363657074656420436f6e747261637473000000000000000000604082015260600190565b60006020828403121561331557600080fd5b5051919050565b6040810161332a8285613109565b8260208301529392505050565b8051801515811461334757600080fd5b919050565b60006020828403121561335e57600080fd5b6106bd82613337565b634e487b7160e01b600052603260045260246000fd5b6000815180845260005b818110156133a357602081850181015186830182015201613387565b818111156133b5576000602083870101525b50601f01601f19169290920160200192915050565b8281526040602082015260006133e3604083018461337d565b949350505050565b6000602082840312156133fd57600080fd5b8151612f6b81612eaf565b634e487b7160e01b600052601160045260246000fd5b600060001982141561343257613432613408565b5060010190565b634e487b7160e01b600052604160045260246000fd5b604051601f8201601f1916810167ffffffffffffffff8111828210171561347857613478613439565b604052919050565b600067ffffffffffffffff82111561349a5761349a613439565b5060051b60200190565b600082601f8301126134b557600080fd5b815160206134ca6134c583613480565b61344f565b82815260059290921b840181019181810190868411156134e957600080fd5b8286015b8481101561350d578051613500816130a6565b83529183019183016134ed565b509695505050505050565b6000806000806080858703121561352e57600080fd5b845167ffffffffffffffff81111561354557600080fd5b613551878288016134a4565b6020870151604088015160609098015191999098509095509350505050565b6060815260006135836060830186613209565b90506135926020830185613109565b826040830152949350505050565b6000806000606084860312156135b557600080fd5b6135be84613337565b9250602084015191506135d360408501613337565b90509250925092565b600082601f8301126135ed57600080fd5b815160206135fd6134c583613480565b82815260059290921b8401810191818101908684111561361c57600080fd5b8286015b8481101561350d5780518352918301918301613620565b60008060006060848603121561364c57600080fd5b835167ffffffffffffffff8082111561366457600080fd5b613670878388016135dc565b9450602086015191508082111561368657600080fd5b613692878388016135dc565b935060408601519150808211156136a857600080fd5b506136b5868287016135dc565b9150509250925092565b6000806000606084860312156136d457600080fd5b83516136df81612e76565b602085015160409095015190969495509392505050565b65ffffffffffff8716815260c081016137126020830188613109565b8560408301528460608301528360808301528260a0830152979650505050505050565b6000821982111561374857613748613408565b500190565b60008282101561375f5761375f613408565b500390565b60008060008060008060c0878903121561377d57600080fd5b865161378881612e76565b80965050602087015194506040870151935060608701516137a881612eaf565b809350506080870151915060a087015190509295509295509295565b600080604083850312156137d757600080fd5b505080516020909101519092909150565b608081016137f68287613109565b84602083015283604083015282606083015295945050505050565b600080600080600080600080610100898b03121561382e57600080fd5b885197506020890151965060408901519550606089015161384e816130a6565b60808a015190955061385f81612eaf565b60a08a015160c08b015160e0909b0151999c989b5096999598909790945092505050565b65ffffffffffff8616815260a0810161389f6020830187613109565b8460408301528360608301528260808301529695505050505050565b600080604083850312156138ce57600080fd5b825167ffffffffffffffff808211156138e657600080fd5b6138f2868387016134a4565b9350602085015191508082111561390857600080fd5b50613915858286016134a4565b9150509250929050565b6000806000806080858703121561393557600080fd5b505082516020840151604085015160609095015191969095509092509050565b608081016139638287613109565b6001600160a01b039490941660208201526040810192909252606090910152919050565b60006020828403121561399957600080fd5b8151612f6b816130a6565b60c081016139b28289613109565b602082019690965260408101949094526060840192909252608083015260a090910152919050565b6000826139f757634e487b7160e01b600052601260045260246000fd5b500490565b6000816000190483118215151615613a1657613a16613408565b500290565b6020815260006106bd602083018461337d56fe4abde63c3e81aefa5764b017968bc473e83e093d7e1a10247d19e0a3e41240189c789132bdb3678132848a8dcd780bffd2b1abdce3984c522ac1d8aeb48f05f3a26469706673582212202e2879cba175b17798cfdd80567aa47cb14e5fe98ab8ecf6bda57dd215f7b68364736f6c63430008090033",
  "libraries": {
    "OrderBookLogic": "0x41BBE9b27cCe94A33FEdF50206912834bc97856B"
  },
  "devdoc": {
    "details": "The market orders is stored in structured red-black trees and doubly linked lists in each node.",
    "kind": "dev",
    "methods": {
      "acceptedContracts()": {
        "details": "The contact name listed in this method is also needed to be listed `requiredContracts` method."
      },
      "cancelOrder(address,uint48)": {
        "params": {
          "_orderId": "Market order id",
          "_user": "User address"
        },
        "returns": {
          "removedAmount": "The removed order amount from the order book by canceling",
          "side": "The canceled order position type",
          "unitPrice": "The canceled order unit price"
        }
      },
      "cleanUpOrders(address)": {
        "details": "The order list per user is not updated in real-time when an order is filled. This function removes the filled order from that order list per user to reduce gas costs for lazy evaluation if the collateral is enough or not.",
        "params": {
          "_user": "User address"
        },
        "returns": {
          "activeBorrowOrderCount": "The total amount of active borrow order on the order book",
          "activeLendOrderCount": "The total amount of active lend order on the order book",
          "maturity": "The maturity of the removed orders",
          "removedBorrowOrderAmount": "The total PV amount of the removed borrow order amount from the order book",
          "removedBorrowOrderFutureValue": "The total FV amount of the removed borrow order amount from the order book",
          "removedLendOrderAmount": "The total PV amount of the removed lend order amount from the order book",
          "removedLendOrderFutureValue": "The total FV amount of the removed lend order amount from the order book"
        }
      },
      "createOrder(uint8,address,uint256,uint256,uint256)": {
        "params": {
          "_amount": "Amount of funds the maker wants to borrow/lend",
          "_circuitBreakerLimitRange": "Rate limit range for the circuit breaker",
          "_side": "Order position type, Borrow or Lend",
          "_unitPrice": "Amount of unit price taker wish to borrow/lend",
          "_user": "User's address"
        },
        "returns": {
          "filledOrder": "User's Filled order of the user",
          "partiallyFilledOrder": "Partially filled order on the order book"
        }
      },
      "createPreOrder(uint8,address,uint256,uint256)": {
        "params": {
          "_amount": "Amount of funds the maker wants to borrow/lend",
          "_side": "Order position type, Borrow or Lend",
          "_unitPrice": "Amount of unit price taker wish to borrow/lend"
        }
      },
      "estimateFilledAmount(uint8,uint256)": {
        "params": {
          "_futureValue": "Future value amount",
          "_side": "Order position type, Borrow or Lend"
        },
        "returns": {
          "amount": "The estimated amount in the present value that is filled on the order book"
        }
      },
      "executeItayoseCall()": {
        "details": "If the opening date had already passed when this contract was created, this Itayose need not be executed.",
        "returns": {
          "openingDate": "The timestamp when the market opens",
          "openingUnitPrice": "The opening price when Itayose is executed",
          "partiallyFilledBorrowingOrder": "Partially filled borrowing order on the order book",
          "partiallyFilledLendingOrder": "Partially filled lending order on the order book",
          "totalOffsetAmount": "The total filled amount when Itayose is executed"
        }
      },
      "getBorrowOrderBook(uint256)": {
        "params": {
          "_limit": "Max limit to get unit prices"
        },
        "returns": {
          "unitPrices": "The array of borrow unit prices"
        }
      },
      "getBorrowOrderIds(address)": {
        "params": {
          "_user": "User's address"
        }
      },
      "getBorrowUnitPrice()": {
        "returns": {
          "_0": "The highest borrow price per future value"
        }
      },
      "getCurrency()": {
        "returns": {
          "currency": "The market currency"
        }
      },
      "getLendOrderBook(uint256)": {
        "params": {
          "_limit": "Max limit to get unit prices"
        },
        "returns": {
          "unitPrices": "The array of lending unit prices"
        }
      },
      "getLendOrderIds(address)": {
        "params": {
          "_user": "User's address"
        }
      },
      "getLendUnitPrice()": {
        "returns": {
          "_0": "The lowest lend price per future value"
        }
      },
      "getMarket()": {
        "returns": {
          "market": "The market data"
        }
      },
      "getMaturity()": {
        "returns": {
          "maturity": "The market maturity"
        }
      },
      "getMidUnitPrice()": {
        "returns": {
          "_0": "The mid price per future value"
        }
      },
      "getOpeningDate()": {
        "returns": {
          "openingDate": "The market opening date"
        }
      },
      "getOpeningUnitPrice()": {
        "returns": {
          "openingUnitPrices": "The market opening unit price"
        }
      },
      "getOrder(uint48)": {
        "params": {
          "_orderId": "The market order id"
        },
        "returns": {
          "amount": "Order amount",
          "maker": "The order maker",
          "maturity": "The maturity of the selected order",
          "side": "Order position type, Borrow or Lend",
          "timestamp": "Timestamp when the order was created",
          "unitPrice": "Amount of interest unit price"
        }
      },
      "getTotalAmountFromBorrowOrders(address)": {
        "params": {
          "_user": "User's address"
        },
        "returns": {
          "activeAmount": "The total amount of active order on the order book",
          "inactiveAmount": "The total amount of inactive orders filled on the order book",
          "inactiveFutureValue": "The total future value amount of inactive orders filled on the order book",
          "maturity": "The maturity of market that orders were placed."
        }
      },
      "getTotalAmountFromLendOrders(address)": {
        "params": {
          "_user": "User's address"
        },
        "returns": {
          "activeAmount": "The total amount of active order on the order book",
          "inactiveAmount": "The total amount of inactive orders filled on the order book",
          "inactiveFutureValue": "The total future value amount of inactive orders filled on the order book",
          "maturity": "The maturity of market that orders were placed."
        }
      },
      "initialize(address,bytes32,uint256,uint256)": {
        "details": "Function is invoked by the proxy contract when the contract is added to the ProxyController.",
        "params": {
          "_ccy": "The main currency for the order book",
          "_maturity": "The initial maturity of the market",
          "_openingDate": "The timestamp when the market opens",
          "_resolver": "The address of the Address Resolver contract"
        }
      },
      "isItayosePeriod()": {
        "returns": {
          "_0": "The boolean if the market is under the Itayose period."
        }
      },
      "isMatured()": {
        "returns": {
          "_0": "The boolean if the market is matured or not"
        }
      },
      "isOpened()": {
        "returns": {
          "_0": "The boolean if the market is opened or not"
        }
      },
      "isPreOrderPeriod()": {
        "returns": {
          "_0": "The boolean if the market is under the pre-order period."
        }
      },
      "isReady()": {
        "returns": {
          "_0": "The boolean if the market is ready or not"
        }
      },
      "openMarket(uint256,uint256)": {
        "params": {
          "_maturity": "The new maturity",
          "_openingDate": "The timestamp when the market opens"
        },
        "returns": {
          "prevMaturity": "The previous maturity updated"
        }
      },
      "paused()": {
        "details": "Returns true if the contract is paused, and false otherwise."
      },
      "requiredContracts()": {
        "details": "The contract name list is in `./libraries/Contracts.sol`."
      },
      "unwind(uint8,address,uint256,uint256)": {
        "params": {
          "_circuitBreakerLimitRange": "Rate limit range for the circuit breaker",
          "_futureValue": "Amount of future value unwound",
          "_side": "Order position type, Borrow or Lend",
          "_user": "User's address"
        },
        "returns": {
          "filledOrder": "User's Filled order of the user",
          "partiallyFilledOrder": "Partially filled order"
        }
      }
    },
    "version": 1
  },
  "userdoc": {
    "kind": "user",
    "methods": {
      "acceptedContracts()": {
        "notice": "Returns contract names that can call this contract."
      },
      "cancelOrder(address,uint48)": {
        "notice": "Cancels the order."
      },
      "cleanUpOrders(address)": {
        "notice": "Cleans up own orders to remove order ids that are already filled on the order book."
      },
      "createOrder(uint8,address,uint256,uint256,uint256)": {
        "notice": "Creates the order. Takes the order if the order is matched, and places new order if not match it."
      },
      "createPreOrder(uint8,address,uint256,uint256)": {
        "notice": "Creates a pre-order. A pre-order will only be accepted from 168 hours (7 days) to 1 hour before the market opens (Pre-order period). At the end of this period, Itayose will be executed."
      },
      "estimateFilledAmount(uint8,uint256)": {
        "notice": "Estimates the filled amount at the time of order creation on the order book using the future value amount."
      },
      "executeItayoseCall()": {
        "notice": "Executes Itayose to aggregate pre-orders and determine the opening unit price. After this action, the market opens."
      },
      "getBorrowOrderBook(uint256)": {
        "notice": "Gets the order book of borrow."
      },
      "getBorrowOrderIds(address)": {
        "notice": "Gets active and inactive order IDs in the borrowing order book"
      },
      "getBorrowUnitPrice()": {
        "notice": "Gets the highest borrow price per future value."
      },
      "getCurrency()": {
        "notice": "Gets the market currency."
      },
      "getLendOrderBook(uint256)": {
        "notice": "Gets the order book of lend."
      },
      "getLendOrderIds(address)": {
        "notice": "Gets active and inactive order IDs in the lending order book"
      },
      "getLendUnitPrice()": {
        "notice": "Gets the lowest lend price per future value."
      },
      "getMarket()": {
        "notice": "Gets the market data."
      },
      "getMaturity()": {
        "notice": "Gets the current market maturity."
      },
      "getMidUnitPrice()": {
        "notice": "Gets the mid price per future value."
      },
      "getOpeningDate()": {
        "notice": "Gets the market opening date."
      },
      "getOpeningUnitPrice()": {
        "notice": "Gets the market opening unit price."
      },
      "getOrder(uint48)": {
        "notice": "Gets the market order from the order book."
      },
      "getTotalAmountFromBorrowOrders(address)": {
        "notice": "Calculates and gets the active and inactive amounts from the user orders of borrowing deals."
      },
      "getTotalAmountFromLendOrders(address)": {
        "notice": "Calculates and gets the active and inactive amounts from the user orders of lending deals."
      },
      "initialize(address,bytes32,uint256,uint256)": {
        "notice": "Initializes the contract."
      },
      "isItayosePeriod()": {
        "notice": "Gets if the market is under the Itayose period."
      },
      "isMatured()": {
        "notice": "Gets if the market is matured."
      },
      "isOpened()": {
        "notice": "Gets if the market is opened."
      },
      "isPreOrderPeriod()": {
        "notice": "Gets if the market is under the pre-order period."
      },
      "isReady()": {
        "notice": "Gets if the market is ready."
      },
      "openMarket(uint256,uint256)": {
        "notice": "Opens market"
      },
      "pauseMarket()": {
        "notice": "Pauses the lending market."
      },
      "requiredContracts()": {
        "notice": "Returns the contract names used in this contract."
      },
      "unpauseMarket()": {
        "notice": "Unpauses the lending market."
      },
      "unwind(uint8,address,uint256,uint256)": {
        "notice": "Unwinds lending or borrowing positions by a specified future value amount."
      }
    },
    "notice": "Implements the module that allows lending market participants to create/cancel market orders, and also provides a future value calculation module. For updates, this contract is basically called from `LendingMarketController.sol`instead of being called \\ directly by the user.",
    "version": 1
  },
  "storageLayout": {
    "storage": [
      {
        "astId": 995,
        "contract": "contracts/protocol/LendingMarket.sol:LendingMarket",
        "label": "_initialized",
        "offset": 0,
        "slot": "0",
        "type": "t_uint8"
      },
      {
        "astId": 998,
        "contract": "contracts/protocol/LendingMarket.sol:LendingMarket",
        "label": "_initializing",
        "offset": 1,
        "slot": "0",
        "type": "t_bool"
      }
    ],
    "types": {
      "t_bool": {
        "encoding": "inplace",
        "label": "bool",
        "numberOfBytes": "1"
      },
      "t_uint8": {
        "encoding": "inplace",
        "label": "uint8",
        "numberOfBytes": "1"
      }
    }
  }
}