{
  "address": "0x143D7A530Db42095F02bd146F6e67553D0dF86ac",
  "abi": [
    {
      "anonymous": false,
      "inputs": [
        {
          "indexed": false,
          "internalType": "bytes32",
          "name": "name",
          "type": "bytes32"
        },
        {
          "indexed": false,
          "internalType": "address",
          "name": "destination",
          "type": "address"
        }
      ],
      "name": "CacheUpdated",
      "type": "event"
    },
    {
      "anonymous": false,
      "inputs": [
        {
          "indexed": false,
          "internalType": "uint48",
          "name": "orderId",
          "type": "uint48"
        },
        {
          "indexed": true,
          "internalType": "address",
          "name": "maker",
          "type": "address"
        },
        {
          "indexed": false,
          "internalType": "enum ProtocolTypes.Side",
          "name": "side",
          "type": "uint8"
        },
        {
          "indexed": false,
          "internalType": "uint256",
          "name": "amount",
          "type": "uint256"
        },
        {
          "indexed": false,
          "internalType": "uint256",
          "name": "unitPrice",
          "type": "uint256"
        }
      ],
      "name": "CancelOrder",
      "type": "event"
    },
    {
      "anonymous": false,
      "inputs": [
        {
          "indexed": false,
          "internalType": "uint8",
          "name": "version",
          "type": "uint8"
        }
      ],
      "name": "Initialized",
      "type": "event"
    },
    {
      "anonymous": false,
      "inputs": [
        {
          "indexed": false,
          "internalType": "uint48",
          "name": "orderId",
          "type": "uint48"
        },
        {
          "indexed": true,
          "internalType": "address",
          "name": "maker",
          "type": "address"
        },
        {
          "indexed": false,
          "internalType": "enum ProtocolTypes.Side",
          "name": "side",
          "type": "uint8"
        },
        {
          "indexed": false,
          "internalType": "bytes32",
          "name": "ccy",
          "type": "bytes32"
        },
        {
          "indexed": false,
          "internalType": "uint256",
          "name": "maturity",
          "type": "uint256"
        },
        {
          "indexed": false,
          "internalType": "uint256",
          "name": "amount",
          "type": "uint256"
        },
        {
          "indexed": false,
          "internalType": "uint256",
          "name": "unitPrice",
          "type": "uint256"
        }
      ],
      "name": "MakeOrder",
      "type": "event"
    },
    {
      "anonymous": false,
      "inputs": [
        {
          "indexed": false,
          "internalType": "uint256",
          "name": "maturity",
          "type": "uint256"
        },
        {
          "indexed": false,
          "internalType": "uint256",
          "name": "prevMaturity",
          "type": "uint256"
        }
      ],
      "name": "OpenMarket",
      "type": "event"
    },
    {
      "anonymous": false,
      "inputs": [
        {
          "indexed": false,
          "internalType": "address",
          "name": "account",
          "type": "address"
        }
      ],
      "name": "Paused",
      "type": "event"
    },
    {
      "anonymous": false,
      "inputs": [
        {
          "indexed": true,
          "internalType": "address",
          "name": "taker",
          "type": "address"
        },
        {
          "indexed": false,
          "internalType": "enum ProtocolTypes.Side",
          "name": "side",
          "type": "uint8"
        },
        {
          "indexed": false,
          "internalType": "uint256",
          "name": "filledAmount",
          "type": "uint256"
        },
        {
          "indexed": false,
          "internalType": "uint256",
          "name": "unitPrice",
          "type": "uint256"
        },
        {
          "indexed": false,
          "internalType": "uint256",
          "name": "filledFutureValue",
          "type": "uint256"
        }
      ],
      "name": "TakeOrders",
      "type": "event"
    },
    {
      "anonymous": false,
      "inputs": [
        {
          "indexed": false,
          "internalType": "address",
          "name": "account",
          "type": "address"
        }
      ],
      "name": "Unpaused",
      "type": "event"
    },
    {
      "inputs": [],
      "name": "acceptedContracts",
      "outputs": [
        {
          "internalType": "bytes32[]",
          "name": "contracts",
          "type": "bytes32[]"
        }
      ],
      "stateMutability": "pure",
      "type": "function"
    },
    {
      "inputs": [],
      "name": "buildCache",
      "outputs": [],
      "stateMutability": "nonpayable",
      "type": "function"
    },
    {
      "inputs": [
        {
          "internalType": "address",
          "name": "_user",
          "type": "address"
        },
        {
          "internalType": "uint48",
          "name": "_orderId",
          "type": "uint48"
        }
      ],
      "name": "cancelOrder",
      "outputs": [
        {
          "internalType": "enum ProtocolTypes.Side",
          "name": "",
          "type": "uint8"
        },
        {
          "internalType": "uint256",
          "name": "",
          "type": "uint256"
        },
        {
          "internalType": "uint256",
          "name": "",
          "type": "uint256"
        }
      ],
      "stateMutability": "nonpayable",
      "type": "function"
    },
    {
      "inputs": [
        {
          "internalType": "address",
          "name": "_user",
          "type": "address"
        }
      ],
      "name": "cleanOrders",
      "outputs": [
        {
          "internalType": "uint256",
          "name": "activeLendOrderCount",
          "type": "uint256"
        },
        {
          "internalType": "uint256",
          "name": "activeBorrowOrderCount",
          "type": "uint256"
        },
        {
          "internalType": "uint256",
          "name": "removedLendOrderFutureValue",
          "type": "uint256"
        },
        {
          "internalType": "uint256",
          "name": "removedBorrowOrderFutureValue",
          "type": "uint256"
        },
        {
          "internalType": "uint256",
          "name": "removedLendOrderAmount",
          "type": "uint256"
        },
        {
          "internalType": "uint256",
          "name": "removedBorrowOrderAmount",
          "type": "uint256"
        },
        {
          "internalType": "uint256",
          "name": "maturity",
          "type": "uint256"
        }
      ],
      "stateMutability": "nonpayable",
      "type": "function"
    },
    {
      "inputs": [
        {
          "internalType": "enum ProtocolTypes.Side",
          "name": "_side",
          "type": "uint8"
        },
        {
          "internalType": "address",
          "name": "_user",
          "type": "address"
        },
        {
          "internalType": "uint256",
          "name": "_amount",
          "type": "uint256"
        },
        {
          "internalType": "uint256",
          "name": "_unitPrice",
          "type": "uint256"
        }
      ],
      "name": "createOrder",
      "outputs": [
        {
          "internalType": "uint256",
          "name": "filledFutureValue",
          "type": "uint256"
        },
        {
          "internalType": "uint256",
          "name": "remainingAmount",
          "type": "uint256"
        }
      ],
      "stateMutability": "nonpayable",
      "type": "function"
    },
    {
      "inputs": [
        {
          "internalType": "address",
          "name": "_user",
          "type": "address"
        }
      ],
      "name": "getActiveBorrowOrderIds",
      "outputs": [
        {
          "internalType": "uint48[]",
          "name": "activeOrderIds",
          "type": "uint48[]"
        }
      ],
      "stateMutability": "view",
      "type": "function"
    },
    {
      "inputs": [
        {
          "internalType": "address",
          "name": "_user",
          "type": "address"
        }
      ],
      "name": "getActiveLendOrderIds",
      "outputs": [
        {
          "internalType": "uint48[]",
          "name": "activeOrderIds",
          "type": "uint48[]"
        }
      ],
      "stateMutability": "view",
      "type": "function"
    },
    {
      "inputs": [
        {
          "internalType": "uint256",
          "name": "_limit",
          "type": "uint256"
        }
      ],
      "name": "getBorrowOrderBook",
      "outputs": [
        {
          "internalType": "uint256[]",
          "name": "unitPrices",
          "type": "uint256[]"
        },
        {
          "internalType": "uint256[]",
          "name": "amounts",
          "type": "uint256[]"
        },
        {
          "internalType": "uint256[]",
          "name": "quantities",
          "type": "uint256[]"
        }
      ],
      "stateMutability": "view",
      "type": "function"
    },
    {
      "inputs": [],
      "name": "getBorrowUnitPrice",
      "outputs": [
        {
          "internalType": "uint256",
          "name": "",
          "type": "uint256"
        }
      ],
      "stateMutability": "view",
      "type": "function"
    },
    {
      "inputs": [],
      "name": "getCurrency",
      "outputs": [
        {
          "internalType": "bytes32",
          "name": "currency",
          "type": "bytes32"
        }
      ],
      "stateMutability": "view",
      "type": "function"
    },
    {
      "inputs": [
        {
          "internalType": "uint256",
          "name": "_limit",
          "type": "uint256"
        }
      ],
      "name": "getLendOrderBook",
      "outputs": [
        {
          "internalType": "uint256[]",
          "name": "unitPrices",
          "type": "uint256[]"
        },
        {
          "internalType": "uint256[]",
          "name": "amounts",
          "type": "uint256[]"
        },
        {
          "internalType": "uint256[]",
          "name": "quantities",
          "type": "uint256[]"
        }
      ],
      "stateMutability": "view",
      "type": "function"
    },
    {
      "inputs": [],
      "name": "getLendUnitPrice",
      "outputs": [
        {
          "internalType": "uint256",
          "name": "",
          "type": "uint256"
        }
      ],
      "stateMutability": "view",
      "type": "function"
    },
    {
      "inputs": [],
      "name": "getMarket",
      "outputs": [
        {
          "components": [
            {
              "internalType": "bytes32",
              "name": "ccy",
              "type": "bytes32"
            },
            {
              "internalType": "uint256",
              "name": "maturity",
              "type": "uint256"
            },
            {
              "internalType": "uint256",
              "name": "basisDate",
              "type": "uint256"
            },
            {
              "internalType": "uint256",
              "name": "borrowUnitPrice",
              "type": "uint256"
            },
            {
              "internalType": "uint256",
              "name": "lendUnitPrice",
              "type": "uint256"
            },
            {
              "internalType": "uint256",
              "name": "midUnitPrice",
              "type": "uint256"
            }
          ],
          "internalType": "struct ILendingMarket.Market",
          "name": "market",
          "type": "tuple"
        }
      ],
      "stateMutability": "view",
      "type": "function"
    },
    {
      "inputs": [],
      "name": "getMaturity",
      "outputs": [
        {
          "internalType": "uint256",
          "name": "maturity",
          "type": "uint256"
        }
      ],
      "stateMutability": "view",
      "type": "function"
    },
    {
      "inputs": [],
      "name": "getMidUnitPrice",
      "outputs": [
        {
          "internalType": "uint256",
          "name": "",
          "type": "uint256"
        }
      ],
      "stateMutability": "view",
      "type": "function"
    },
    {
      "inputs": [
        {
          "internalType": "uint48",
          "name": "_orderId",
          "type": "uint48"
        }
      ],
      "name": "getOrder",
      "outputs": [
        {
          "internalType": "enum ProtocolTypes.Side",
          "name": "side",
          "type": "uint8"
        },
        {
          "internalType": "uint256",
          "name": "unitPrice",
          "type": "uint256"
        },
        {
          "internalType": "uint256",
          "name": "maturity",
          "type": "uint256"
        },
        {
          "internalType": "address",
          "name": "maker",
          "type": "address"
        },
        {
          "internalType": "uint256",
          "name": "amount",
          "type": "uint256"
        },
        {
          "internalType": "uint256",
          "name": "timestamp",
          "type": "uint256"
        }
      ],
      "stateMutability": "view",
      "type": "function"
    },
    {
      "inputs": [
        {
          "internalType": "address",
          "name": "_user",
          "type": "address"
        }
      ],
      "name": "getTotalAmountFromBorrowOrders",
      "outputs": [
        {
          "internalType": "uint256",
          "name": "activeAmount",
          "type": "uint256"
        },
        {
          "internalType": "uint256",
          "name": "inactiveAmount",
          "type": "uint256"
        },
        {
          "internalType": "uint256",
          "name": "inactiveFutureValue",
          "type": "uint256"
        },
        {
          "internalType": "uint256",
          "name": "maturity",
          "type": "uint256"
        }
      ],
      "stateMutability": "view",
      "type": "function"
    },
    {
      "inputs": [
        {
          "internalType": "address",
          "name": "_user",
          "type": "address"
        }
      ],
      "name": "getTotalAmountFromLendOrders",
      "outputs": [
        {
          "internalType": "uint256",
          "name": "activeAmount",
          "type": "uint256"
        },
        {
          "internalType": "uint256",
          "name": "inactiveFutureValue",
          "type": "uint256"
        },
        {
          "internalType": "uint256",
          "name": "maturity",
          "type": "uint256"
        }
      ],
      "stateMutability": "view",
      "type": "function"
    },
    {
      "inputs": [
        {
          "internalType": "address",
          "name": "_resolver",
          "type": "address"
        },
        {
          "internalType": "bytes32",
          "name": "_ccy",
          "type": "bytes32"
        },
        {
          "internalType": "uint256",
          "name": "_maturity",
          "type": "uint256"
        },
        {
          "internalType": "uint256",
          "name": "_basisDate",
          "type": "uint256"
        }
      ],
      "name": "initialize",
      "outputs": [],
      "stateMutability": "nonpayable",
      "type": "function"
    },
    {
      "inputs": [],
      "name": "isMatured",
      "outputs": [
        {
          "internalType": "bool",
          "name": "",
          "type": "bool"
        }
      ],
      "stateMutability": "view",
      "type": "function"
    },
    {
      "inputs": [],
      "name": "isOpened",
      "outputs": [
        {
          "internalType": "bool",
          "name": "",
          "type": "bool"
        }
      ],
      "stateMutability": "view",
      "type": "function"
    },
    {
      "inputs": [],
      "name": "isResolverCached",
      "outputs": [
        {
          "internalType": "bool",
          "name": "",
          "type": "bool"
        }
      ],
      "stateMutability": "view",
      "type": "function"
    },
    {
      "inputs": [
        {
          "internalType": "uint256",
          "name": "_maturity",
          "type": "uint256"
        }
      ],
      "name": "openMarket",
      "outputs": [
        {
          "internalType": "uint256",
          "name": "prevMaturity",
          "type": "uint256"
        }
      ],
      "stateMutability": "nonpayable",
      "type": "function"
    },
    {
      "inputs": [],
      "name": "pauseMarket",
      "outputs": [],
      "stateMutability": "nonpayable",
      "type": "function"
    },
    {
      "inputs": [],
      "name": "paused",
      "outputs": [
        {
          "internalType": "bool",
          "name": "",
          "type": "bool"
        }
      ],
      "stateMutability": "view",
      "type": "function"
    },
    {
      "inputs": [],
      "name": "requiredContracts",
      "outputs": [
        {
          "internalType": "bytes32[]",
          "name": "contracts",
          "type": "bytes32[]"
        }
      ],
      "stateMutability": "pure",
      "type": "function"
    },
    {
      "inputs": [],
      "name": "resolver",
      "outputs": [
        {
          "internalType": "contract IAddressResolver",
          "name": "",
          "type": "address"
        }
      ],
      "stateMutability": "view",
      "type": "function"
    },
    {
      "inputs": [],
      "name": "unpauseMarket",
      "outputs": [],
      "stateMutability": "nonpayable",
      "type": "function"
    }
  ],
  "transactionHash": "0x0eaab78ca5b8b6293c12d768b25c65c596cedccac770221b10b110c5ec6d932f",
  "args": [],
  "numDeployments": 1,
  "solcInputHash": "c342d2bd1c99543a927721b4c81728b9",
  "bytecode": "0x608060405234801561001057600080fd5b506000805460ff19169055615b4b806200002b6000396000f3fe608060405234801561001057600080fd5b50600436106101c45760003560e01c806371613c2d116100f9578063d866d35511610097578063e3d904d811610071578063e3d904d8146103b8578063e7df768c146103eb578063eebc28f914610419578063f1be16791461042c57600080fd5b8063d866d3551461039d578063e099765914610276578063e16695b5146103b057600080fd5b8063a03738dc116100d3578063a03738dc1461034f578063a452c3f814610357578063b7c1d52714610377578063baa267571461038a57600080fd5b806371613c2d1461031a5780637ce219aa146103225780637f2b6a0d1461034757600080fd5b80634bf62d16116101665780635c975abb116101405780635c975abb146102f75780635e0b54da14610302578063692aa97e1461030a5780636945c1fd1461031257600080fd5b80634bf62d161461028b5780634eee4495146102ad578063504b89bd146102d557600080fd5b80631b3508b7116101a25780631b3508b71461024057806329985e5a146102565780632af64bd31461025e5780633d03b9da1461027657600080fd5b806304f3bcec146101c95780630a2db192146101ee5780631610c7ce14610236575b600080fd5b6101d1610480565b6040516001600160a01b0390911681526020015b60405180910390f35b6102016101fc366004615539565b6104a1565b604080519788526020880196909652948601939093526060850191909152608084015260a083015260c082015260e0016101e5565b61023e610501565b005b610248610539565b6040519081526020016101e5565b61023e61056f565b61026661071c565b60405190151581526020016101e5565b61027e610882565b6040516101e59190615556565b61029e61029936600461559a565b6108e7565b6040516101e5939291906155ee565b6102c06102bb366004615631565b610b77565b604080519283526020830191909152016101e5565b6102e86102e3366004615691565b610e5e565b6040516101e5939291906156fe565b60005460ff16610266565b6102486110ca565b6102666110d7565b6102486110fd565b610248611110565b61033561033036600461571d565b611146565b6040516101e596959493929190615738565b6102666112d5565b61023e6112eb565b61036a610365366004615539565b611318565b6040516101e59190615777565b61023e6103853660046157b7565b61132a565b61024861039836600461559a565b6114ec565b61029e6103ab36600461559a565b6115b8565b6102486117ff565b6103cb6103c6366004615539565b611812565b6040805194855260208501939093529183015260608201526080016101e5565b6103fe6103f9366004615539565b611abb565b604080519384526020840192909252908201526060016101e5565b61036a610427366004615539565b611d34565b610434611d3f565b6040516101e59190600060c082019050825182526020830151602083015260408301516040830152606083015160608301526080830151608083015260a083015160a083015292915050565b6000600080516020615af68339815191525b546001600160a01b0316919050565b60008060008060008060006104b4611de2565b6001600160a01b0389166000908152600691909101602052604090205490506104dd8882611e06565b919850955092506104ee8882611fce565b989a919950959795965092949350919050565b61050a33612196565b61052f5760405162461bcd60e51b8152600401610526906157f2565b60405180910390fd5b610537612210565b565b600061056a610546611de2565b6008016000610553611de2565b600301548152602001908152602001600020612262565b905090565b6000610579610882565b905060005b815181101561071857600082828151811061059b5761059b615829565b6020026020010151905060006105bc600080516020615af683398151915290565b54604080517f5265736f6c766572206d697373696e67207461726765743a200000000000000060208201526039808201869052825180830390910181526059820192839052636795dbcd60e01b9092526001600160a01b0390921691636795dbcd9161062d91869190605d0161588c565b60206040518083038186803b15801561064557600080fd5b505afa158015610659573d6000803e3d6000fd5b505050506040513d601f19601f8201168201806040525081019061067d91906158a5565b60008381527f4abde63c3e81aefa5764b017968bc473e83e093d7e1a10247d19e0a3e4124019602090815260409182902080546001600160a01b0319166001600160a01b03851690811790915582518681529182015281519293507f88a93678a3692f6789d9546fc621bf7234b101ddb7d4fe479455112831b8aa68929081900390910190a150508080610710906158d8565b91505061057e565b5050565b600080610727610882565b905060005b815181101561087957600082828151811061074957610749615829565b60200260200101519050610768600080516020615af683398151915290565b600082815260019190910160205260409020546001600160a01b0316600080516020615af6833981519152546040516321f8a72160e01b8152600481018490526001600160a01b03909116906321f8a7219060240160206040518083038186803b1580156107d557600080fd5b505afa1580156107e9573d6000803e3d6000fd5b505050506040513d601f19601f8201168201806040525081019061080d91906158a5565b6001600160a01b0316141580610857575060008181527f4abde63c3e81aefa5764b017968bc473e83e093d7e1a10247d19e0a3e412401960205260409020546001600160a01b0316155b15610866576000935050505090565b5080610871816158d8565b91505061072c565b50600191505090565b604080516001808252818301909252606091602080830190803683370190505090507f4c656e64696e674d61726b6574436f6e74726f6c6c6572000000000000000000816000815181106108d8576108d8615829565b60200260200101818152505090565b60608060608367ffffffffffffffff811115610905576109056158f3565b60405190808252806020026020018201604052801561092e578160200160208202803683370190505b5092508367ffffffffffffffff81111561094a5761094a6158f3565b604051908082528060200260200182016040528015610973578160200160208202803683370190505b5091508367ffffffffffffffff81111561098f5761098f6158f3565b6040519080825280602002602001820160405280156109b8578160200160208202803683370190505b50905060006109c8610546611de2565b905080846000815181106109de576109de615829565b602002602001018181525050610a23816109f6611de2565b6008016000610a03611de2565b6003015481526020019081526020016000206122a990919063ffffffff16565b83600081518110610a3657610a36615829565b602002602001018181525050610a7b81610a4e611de2565b6008016000610a5b611de2565b6003015481526020019081526020016000206122c490919063ffffffff16565b82600081518110610a8e57610a8e615829565b602090810291909101015260015b8451811015610b6e5781610aaf57610b6e565b610ae882610abb611de2565b6008016000610ac8611de2565b6003015481526020019081526020016000206122dd90919063ffffffff16565b915081858281518110610afd57610afd615829565b602002602001018181525050610b15826109f6611de2565b848281518110610b2757610b27615829565b602002602001018181525050610b3f82610a4e611de2565b838281518110610b5157610b51615829565b602090810291909101015280610b66816158d8565b915050610a9c565b50509193909250565b600080610b826123de565b610b8b33612196565b610ba75760405162461bcd60e51b8152600401610526906157f2565b610baf6110d7565b610bf25760405162461bcd60e51b815260206004820152601460248201527313585c9ad95d081a5cc81b9bdd081bdc195b995960621b6044820152606401610526565b60008411610c425760405162461bcd60e51b815260206004820152601860248201527f43616e277420706c61636520656d70747920616d6f756e7400000000000000006044820152606401610526565b610c4a611de2565b60030154610c56611de2565b6001600160a01b038716600090815260069190910160205260409020541480610d095750610c82611de2565b60030154610c8e611de2565b6001600160a01b0387166000908152600691909101602052604090205414801590610cdb5750610cbc611de2565b6001600160a01b03861660009081526004919091016020526040902054155b8015610d095750610cea611de2565b6001600160a01b03861660009081526005919091016020526040902054155b610d555760405162461bcd60e51b815260206004820152601d60248201527f4f7264657220666f756e6420696e2070617374206d617475726974792e0000006044820152606401610526565b610d5d611de2565b60030154610d69611de2565b6001600160a01b0387166000908152600691909101602052604090205414610dbd57610d93611de2565b60030154610d9f611de2565b6001600160a01b038716600090815260069190910160205260409020555b6000831580610e2657506000876001811115610ddb57610ddb6156c6565b14610df35783610dec610546611de2565b1115610e26565b83610e23610dff611de2565b6009016000610e0c611de2565b600301548152602001908152602001600020612424565b10155b90508015610e4457610e3a87878787612466565b9093509150610e54565b610e528787878760006125e5565b505b5094509492505050565b600080600084846000610e7082611146565b509094505050506001600160a01b03821615159050610ec35760405162461bcd60e51b815260206004820152600f60248201526e13dc99195c881b9bdd08199bdd5b99608a1b6044820152606401610526565b806001600160a01b0316836001600160a01b031614610f245760405162461bcd60e51b815260206004820152601760248201527f43616c6c6572206973206e6f7420746865206d616b65720000000000000000006044820152606401610526565b610f2c6123de565b610f3533612196565b610f515760405162461bcd60e51b8152600401610526906157f2565b6000610f5b611de2565b65ffffffffffff891660009081526007919091016020526040908190208151608081019092528054829060ff166001811115610f9957610f996156c6565b6001811115610faa57610faa6156c6565b81526001820154602082015260028201546040820152600390910154606090910152905060008082516001811115610fe457610fe46156c6565b14156110305761102982602001518a610ffb611de2565b6008016000611008611de2565b60030154815260200190815260200160002061284d9092919063ffffffff16565b905061106c565b600182516001811115611045576110456156c6565b141561106c5761106982602001518a61105c611de2565b6009016000611008611de2565b90505b8151602083015160405133927f2adb11f5af56ae860dd66d4eccd6af97042ba5cd7fa349ac6aad9c65f6a892db926110a8928e92918791615909565b60405180910390a28151602090920151919750955093505b5050509250925092565b600061056a610dff611de2565b60006110e16112d5565b15801561056a57506110f1611de2565b60020154421015905090565b6000611107611de2565b60010154905090565b60008061111b6110ca565b90506000611127610539565b905060026111358284615937565b61113f919061594f565b9250505090565b6000806000806000806000611159611de2565b65ffffffffffff891660009081526007919091016020526040908190208151608081019092528054829060ff166001811115611197576111976156c6565b60018111156111a8576111a86156c6565b8152602001600182015481526020016002820154815260200160038201548152505090506112046040805160c081018252600080825260208201819052918101829052606081018290526080810182905260a081019190915290565b600082516001811115611219576112196156c6565b14156112545761124d82602001518a611230611de2565b604080870151600090815260089290920160205290209190612894565b9050611285565b61128282602001518a611265611de2565b604080870151600090815260099290920160205290209190612894565b90505b60608101516001600160a01b0316156112c95781600001518260200151836040015183606001518460a00151856080015197509750975097509750975050506112cc565b50505b91939550919395565b60006112df611de2565b60030154421015905090565b6112f433612196565b6113105760405162461bcd60e51b8152600401610526906157f2565b61053761294b565b606061132382612988565b5092915050565b60005462010000900460ff161580801561134f5750600054600161010090910460ff16105b8061136f5750303b15801561136f575060005460ff610100909104166001145b6113d25760405162461bcd60e51b815260206004820152602e60248201527f496e697469616c697a61626c653a20636f6e747261637420697320616c72656160448201526d191e481a5b9a5d1a585b1a5e995960921b6064820152608401610526565b6000805461ff00191661010017905580156113f9576000805462ff00001916620100001790555b6000611403612ce4565b6001600160a01b031614156114665760405162461bcd60e51b815260206004820152602360248201527f4d7573742062652063616c6c65642066726f6d20626561636f6e20636f6e74726044820152621858dd60ea1b6064820152608401610526565b61146f85612d0c565b83611478611de2565b6001015582611485611de2565b6003015581611492611de2565b6002015561149e61056f565b80156114e5576000805462ff000019169055604051600181527f7f26b83ff96e1f2b6a682f133852f6798a09c465da95921460cefb38474024989060200160405180910390a15b5050505050565b60006114f66112d5565b61153a5760405162461bcd60e51b815260206004820152601560248201527413585c9ad95d081a5cc81b9bdd081b585d1d5c9959605a1b6044820152606401610526565b61154333612196565b61155f5760405162461bcd60e51b8152600401610526906157f2565b611567611de2565b60030154905081611576611de2565b6003015560408051838152602081018390527f974eb6a392aa4b5b16a285eae8ee9d9c75309faa295ffa928838efa6b00e438a910160405180910390a1919050565b60608060608367ffffffffffffffff8111156115d6576115d66158f3565b6040519080825280602002602001820160405280156115ff578160200160208202803683370190505b5092508367ffffffffffffffff81111561161b5761161b6158f3565b604051908082528060200260200182016040528015611644578160200160208202803683370190505b5091508367ffffffffffffffff811115611660576116606158f3565b604051908082528060200260200182016040528015611689578160200160208202803683370190505b5090506000611699610dff611de2565b905080846000815181106116af576116af615829565b6020026020010181815250506116d4816116c7611de2565b6009016000610a03611de2565b836000815181106116e7576116e7615829565b60200260200101818152505061170c816116ff611de2565b6009016000610a5b611de2565b8260008151811061171f5761171f615829565b602090810291909101015260015b8451811015610b6e578161174057610b6e565b6117798261174c611de2565b6009016000611759611de2565b600301548152602001908152602001600020612da190919063ffffffff16565b91508185828151811061178e5761178e615829565b6020026020010181815250506117a6826116c7611de2565b8482815181106117b8576117b8615829565b6020026020010181815250506117d0826116ff611de2565b8382815181106117e2576117e2615829565b6020908102919091010152806117f7816158d8565b91505061172d565b6000611809611de2565b60030154905090565b60008060008060008061182487612e9b565b9150915060005b825181101561195a57600061183e611de2565b600701600085848151811061185557611855615829565b602002602001015165ffffffffffff1681526020019081526020016000206040518060800160405290816000820160009054906101000a900460ff1660018111156118a2576118a26156c6565b60018111156118b3576118b36156c6565b815260200160018201548152602001600282015481526020016003820154815250509050600061193182602001518685815181106118f3576118f3615829565b6020026020010151611903611de2565b6009016000611910611de2565b6003015481526020019081526020016000206128949092919063ffffffff16565b90508060a00151896119439190615937565b985050508080611952906158d8565b91505061182b565b50611963611de2565b6001600160a01b0388166000908152600691909101602052604081205493505b8151811015611ab1576000611996611de2565b60070160008484815181106119ad576119ad615829565b602002602001015165ffffffffffff1681526020019081526020016000206040518060800160405290816000820160009054906101000a900460ff1660018111156119fa576119fa6156c6565b6001811115611a0b57611a0b6156c6565b8152602001600182015481526020016002820154815260200160038201548152505090506000611a5b8260200151858581518110611a4b57611a4b615829565b6020026020010151611265611de2565b90508060a0015188611a6d9190615937565b975081602001516127108260a00151611a869190615971565b611a90919061594f565b611a9a9088615937565b965050508080611aa9906158d8565b915050611983565b5050509193509193565b6000806000806000611acc86612988565b91509150611ad8611de2565b6001600160a01b0387166000908152600691909101602052604081205493505b8251811015611c06576000611b0b611de2565b6007016000858481518110611b2257611b22615829565b602002602001015165ffffffffffff1681526020019081526020016000206040518060800160405290816000820160009054906101000a900460ff166001811115611b6f57611b6f6156c6565b6001811115611b8057611b806156c6565b8152602001600182015481526020016002820154815260200160038201548152505090506000611bdd8260200151868581518110611bc057611bc0615829565b6020026020010151611bd0611de2565b6008016000611910611de2565b90508060a0015188611bef9190615937565b975050508080611bfe906158d8565b915050611af8565b5060005b8151811015611d2a576000611c1d611de2565b6007016000848481518110611c3457611c34615829565b602002602001015165ffffffffffff1681526020019081526020016000206040518060800160405290816000820160009054906101000a900460ff166001811115611c8157611c816156c6565b6001811115611c9257611c926156c6565b81526001820154602082015260028201546040820152600390910154606090910152905084611cc357806040015194505b611d0a8160200151848481518110611cdd57611cdd615829565b6020026020010151611ced611de2565b6040808601516000908152600892909201602052902091906131aa565b611d149087615937565b9550508080611d22906158d8565b915050611c0a565b5050509193909250565b606061132382612e9b565b611d7b6040518060c001604052806000801916815260200160008152602001600081526020016000815260200160008152602001600081525090565b6040518060c00160405280611d8e611de2565b600101548152602001611d9f611de2565b600301548152602001611db0611de2565b600201548152602001611dc16110ca565b8152602001611dce610539565b8152602001611ddb611110565b9052919050565b7ffc2836757f9146445fc75bc3c897a210ec004e4ee60fc8627ef5cbf2842b3d0a90565b6000806000806000611e1787612988565b9150915081611e24611de2565b6004016000896001600160a01b03166001600160a01b031681526020019081526020016000209080519060200190611e5d92919061541e565b508151945060005b81518110156110c0576000611e78611de2565b6007016000848481518110611e8f57611e8f615829565b602002602001015165ffffffffffff1681526020019081526020016000206040518060800160405290816000820160009054906101000a900460ff166001811115611edc57611edc6156c6565b6001811115611eed57611eed6156c6565b8152602001600182015481526020016002820154815260200160038201548152505090506000611f568260200151858581518110611f2d57611f2d615829565b6020026020010151611f3d611de2565b60008d8152600891909101602052604090209190612894565b9050611f9b8260200151858581518110611f7257611f72615829565b6020026020010151611f82611de2565b60008d81526008919091016020526040902091906131aa565b611fa59088615937565b96508060a0015186611fb79190615937565b955050508080611fc6906158d8565b915050611e65565b6000806000806000611fdf87612e9b565b9150915081611fec611de2565b6005016000896001600160a01b03166001600160a01b03168152602001908152602001600020908051906020019061202592919061541e565b508151945060005b81518110156110c0576000612040611de2565b600701600084848151811061205757612057615829565b602002602001015165ffffffffffff1681526020019081526020016000206040518060800160405290816000820160009054906101000a900460ff1660018111156120a4576120a46156c6565b60018111156120b5576120b56156c6565b815260200160018201548152602001600282015481526020016003820154815250509050600061211e82602001518585815181106120f5576120f5615829565b6020026020010151612105611de2565b60008d8152600991909101602052604090209190612894565b9050612163826020015185858151811061213a5761213a615829565b602002602001015161214a611de2565b60008d81526009919091016020526040902091906131aa565b61216d9088615937565b96508060a001518661217f9190615937565b95505050808061218e906158d8565b91505061202d565b6000806121a1610882565b905060005b8151811015612206576121d18282815181106121c4576121c4615829565b60200260200101516131e9565b6001600160a01b0316846001600160a01b031614156121f4575060019392505050565b806121fe816158d8565b9150506121a6565b5060009392505050565b61221861327a565b6000805460ff191690557f5db9ee0a495bf2e6ff9c91a7834c1ba4fdd244a5e8aa4e537bd38aeae4b073aa335b6040516001600160a01b03909116815260200160405180910390a1565b80548061227157506000919050565b5b6000818152600180840160205260409091200154156122a4576000908152600180830160205260409091200154612272565b919050565b60008181526001830160205260409020600501545b92915050565b6000908152600191909101602052604090206004015490565b60008161234d5760405162461bcd60e51b815260206004820152603860248201527f4f7264657253746174697374696373547265652834303129202d205374617274604482015277696e672076616c75652063616e6e6f74206265207a65726f60401b6064820152608401610526565b60008281526001840160205260409020600201541561238c5760008281526001840160205260409020600201546123859084906132c3565b90506122be565b5060008181526001830160205260409020545b80158015906123c05750600081815260018401602052604090206002015482145b156122be57600081815260018401602052604090205490915061239f565b60005460ff16156105375760405162461bcd60e51b815260206004820152601060248201526f14185d5cd8589b194e881c185d5cd95960821b6044820152606401610526565b80548061243357506000919050565b5b6000818152600183016020526040902060020154156122a4576000908152600182016020526040902060020154612434565b6000806124716154d3565b6001876001811115612485576124856156c6565b14156124d2576124c68585612498611de2565b60080160006124a5611de2565b6003015481526020019081526020016000206133019092919063ffffffff16565b9194509250905061252f565b60008760018111156124e6576124e66156c6565b141561252f5761252785856124f9611de2565b6009016000612506611de2565b6003015481526020019081526020016000206136459092919063ffffffff16565b919450925090505b6001600160a01b0386167fd0e55267b11614203a79e6272e6b08f2e55625bf13ffa0217a4f7a67cb4d126c886125658589615990565b878760405161257794939291906159a7565b60405180910390a26040810151156125c7576125c560018860018111156125a0576125a06156c6565b146125ac5760016125af565b60005b82602001518360400151846060015160016125e5565b505b6000821180156125d657508315155b15610e5457610e528787848760005b60006125ef613940565b9050604051806080016040528087600181111561260e5761260e6156c6565b8152602001848152602001612621611de2565b60030154815260200142815250612636611de2565b65ffffffffffff831660009081526007919091016020526040902081518154829060ff19166001838181111561266e5761266e6156c6565b0217905550602082015160018201556040820151600282015560609091015160039091015560008660018111156126a7576126a76156c6565b1415612750576126ee83828787866126bd611de2565b60080160006126ca611de2565b6003015481526020019081526020016000206139999095949392919063ffffffff16565b6126f6611de2565b6001600160a01b03861660009081526004919091016020908152604082208054600181018255908352912060058083049091018054919092066006026101000a65ffffffffffff81810219909216918416021790556127e3565b6001866001811115612764576127646156c6565b14156127e357612787838287878661277a611de2565b60090160006126ca611de2565b61278f611de2565b6001600160a01b0386166000908152600591820160209081526040822080546001810182559083529120828204018054929091066006026101000a65ffffffffffff81810219909316928416029190911790555b846001600160a01b03167fac5ffddc4f091e27e9695447257d927b0bc7041974217b366397f4eafdf81da68288612818611de2565b60010154612824611de2565b60030154898960405161283c969594939291906159d0565b60405180910390a295945050505050565b600061285a848484613a16565b6128765760405162461bcd60e51b815260040161052690615a0f565b612881848484613a3c565b905061288d8484613ca8565b9392505050565b6040805160c081018252600080825260208201819052918101829052606081018290526080810182905260a081019190915250600091825260019283016020908152604080842065ffffffffffff9384168552600601825292839020835160c08101855281548085168252600160301b8104851693820193909352600160601b90920490921692810192909252918201546001600160a01b031660608201526002820154608082015260039091015460a082015290565b6129536123de565b6000805460ff191660011790557f62e78cea01bee320cd4e420270b5ea74000d11b0c9f74754ebdbfc544b05a2586122453390565b6060806000806000612998611de2565b600301546129a4611de2565b6001600160a01b0388166000908152600691909101602052604090205414159050806129f4576129d2611de2565b6001600160a01b038716600090815260049190910160205260409020546129f7565b60005b67ffffffffffffffff811115612a0f57612a0f6158f3565b604051908082528060200260200182016040528015612a38578160200160208202803683370190505b509450612a43611de2565b6001600160a01b0387166000908152600491909101602052604090205467ffffffffffffffff811115612a7857612a786158f3565b604051908082528060200260200182016040528015612aa1578160200160208202803683370190505b50935060005b612aaf611de2565b6001600160a01b03881660009081526004919091016020526040902054811015612cdb576000612add611de2565b6001600160a01b038916600090815260049190910160205260409020805483908110612b0b57612b0b615829565b90600052602060002090600591828204019190066006029054906101000a900465ffffffffffff1690506000612b3f611de2565b65ffffffffffff831660009081526007919091016020526040908190208151608081019092528054829060ff166001811115612b7d57612b7d6156c6565b6001811115612b8e57612b8e6156c6565b815260200160018201548152602001600282015481526020016003820154815250509050612c14816020015183612bc3611de2565b6008016000612bd0611de2565b60060160008f6001600160a01b03166001600160a01b03168152602001908152602001600020548152602001908152602001600020613a169092919063ffffffff16565b612c7157612c23600186615937565b94508187612c318886615990565b81518110612c4157612c41615829565b602002602001019065ffffffffffff16908165ffffffffffff168152505083612c6c57600188510388525b612cc6565b83612cbe57612c81600187615937565b95508188612c8f8786615990565b81518110612c9f57612c9f615829565b602002602001019065ffffffffffff16908165ffffffffffff16815250505b600187510387525b50508080612cd3906158d8565b915050612aa7565b50505050915091565b60007fa3f0ad74e5423aebfd80d3ef4346578335a9a72aeaee59ff6cb3582b35133d50610492565b600080516020615af6833981519152546001600160a01b031615612d725760405162461bcd60e51b815260206004820152601b60248201527f7265736f6c766572207265676973746572656420616c726561647900000000006044820152606401610526565b600080516020615af683398151915280546001600160a01b0319166001600160a01b0392909216919091179055565b600081612e115760405162461bcd60e51b815260206004820152603860248201527f4f7264657253746174697374696373547265652834303229202d205374617274604482015277696e672076616c75652063616e6e6f74206265207a65726f60401b6064820152608401610526565b600082815260018085016020526040909120015415612e49576000828152600180850160205260409091200154612385908490613f65565b5060008181526001830160205260409020545b8015801590612e7d5750600081815260018085016020526040909120015482145b156122be576000818152600184016020526040902054909150612e5c565b6060806000806000612eab611de2565b60030154612eb7611de2565b6001600160a01b038816600090815260069190910160205260409020541415905080612f0757612ee5611de2565b6001600160a01b03871660009081526005919091016020526040902054612f0a565b60005b67ffffffffffffffff811115612f2257612f226158f3565b604051908082528060200260200182016040528015612f4b578160200160208202803683370190505b509450612f56611de2565b6001600160a01b0387166000908152600591909101602052604090205467ffffffffffffffff811115612f8b57612f8b6158f3565b604051908082528060200260200182016040528015612fb4578160200160208202803683370190505b50935060005b612fc2611de2565b6001600160a01b03881660009081526005919091016020526040902054811015612cdb576000612ff0611de2565b6001600160a01b03891660009081526005919091016020526040902080548390811061301e5761301e615829565b90600052602060002090600591828204019190066006029054906101000a900465ffffffffffff1690506000613052611de2565b65ffffffffffff831660009081526007919091016020526040908190208151608081019092528054829060ff166001811115613090576130906156c6565b60018111156130a1576130a16156c6565b8152602001600182015481526020016002820154815260200160038201548152505090506130e38160200151836130d6611de2565b6009016000612bd0611de2565b613140576130f2600186615937565b945081876131008886615990565b8151811061311057613110615829565b602002602001019065ffffffffffff16908165ffffffffffff16815250508361313b57600188510388525b613195565b8361318d57613150600187615937565b9550818861315e8786615990565b8151811061316e5761316e615829565b602002602001019065ffffffffffff16908165ffffffffffff16815250505b600187510387525b505080806131a2906158d8565b915050612fba565b6000828152600184016020908152604080832065ffffffffffff85168452600681019092528220600301546131e0908590613f9c565b95945050505050565b60008181527f4abde63c3e81aefa5764b017968bc473e83e093d7e1a10247d19e0a3e41240196020908152604080832054815170026b4b9b9b4b7339030b2323932b9b99d1607d1b9381019390935260318084018690528251808503909101815260519093019091526001600160a01b031690816113235760405162461bcd60e51b81526004016105269190615a5f565b60005460ff166105375760405162461bcd60e51b815260206004820152601460248201527314185d5cd8589b194e881b9bdd081c185d5cd95960621b6044820152606401610526565b60005b6000828152600180850160205260409091200154156132fb5760009182526001808401602052604090922090910154906132c6565b50919050565b60008061330c6154d3565b846133295760405162461bcd60e51b815260040161052690615a72565b60008061333588612262565b9050600061334289612424565b90506000808884111580613354575088155b61339b5760405162461bcd60e51b8152602060048201526018602482015277496e73756666696369656e74206c696d69742076616c756560401b6044820152606401610526565b89811080156133a957508315155b80156133bd57508815806133bd5750888411155b1561343557600084815260018c01602052604090206005015491506133e28282615937565b905083945060008a82116133f7576000613401565b6134018b83615990565b61340b9084615990565b90506134178582613f9c565b613421908a615937565b985061342d8c866122dd565b94505061339b565b898110158061344357508885145b156134f5578981111561347a57849350600061345f8b83615990565b6134699084615990565b90506134768c8683613fb5565b9650505b60008481526001808d016020526040822090810191909155545b80156134f357848111156134dd57600085815260018d01602052604090205481146134d95760008581526001808e016020526040808320849055838352909120018590555b8094505b600090815260018c016020526040902054613494565b505b808a111561350a57613507818b615990565b96505b848314801561352a5750600083815260018c016020526040902060050154155b156135385760008b5561356c565b8a5485118061355257508a54851480156135525750808a10155b1561356c57838b55600084815260018c0160205260408120555b8a5460009081526001808d01602052604090912001541580156135a357508a54600090815260018c01602052604090206002015415155b156135fb578a5460009081526001808d0160205260408083206002015483529091200154156135ed578a54600090815260018c0160205260409020600201546135ed908c90614255565b6135fb8b8c6000015461432a565b8a54600090815260018c01602052604090206003015460ff1615613637578a54600090815260018c0160205260409020600301805460ff191690555b505050505093509350939050565b6000806136506154d3565b8461366d5760405162461bcd60e51b815260040161052690615a72565b60008061367988612424565b9050600061368689612262565b90506000808884101580613698575088155b6136df5760405162461bcd60e51b8152602060048201526018602482015277496e73756666696369656e74206c696d69742076616c756560401b6044820152606401610526565b89811080156136ed57508315155b801561370157508815806137015750888410155b1561377957600084815260018c01602052604090206005015491506137268282615937565b905083945060008a821161373b576000613745565b6137458b83615990565b61374f9084615990565b905061375b8582613f9c565b613765908a615937565b98506137718c86612da1565b9450506136df565b898110158061378757508885145b1561383957898111156137be5784935060006137a38b83615990565b6137ad9084615990565b90506137ba8c8683613fb5565b9650505b600084815260018c01602052604081206002810191909155545b8015613837578481101561382157600085815260018d016020526040902054811461381d57600085815260018d01602052604080822083905582825290206002018590555b8094505b600090815260018c0160205260409020546137d8565b505b808a111561384e5761384b818b615990565b96505b848314801561386e5750600083815260018c016020526040902060050154155b1561387c5760008b556138b0565b8a5485108061389657508a54851480156138965750808a10155b156138b057838b55600084815260018c0160205260408120555b8a54600090815260018c0160205260409020600201541580156138e757508a5460009081526001808d016020526040909120015415155b156135fb578a5460009081526001808d01602052604080832090910154825290206002015415613932578a5460009081526001808d0160205260409091200154613932908c9061432a565b6135fb8b8c60000154614255565b600061394a611de2565b805465ffffffffffff1690600061396083615acf565b91906101000a81548165ffffffffffff021916908365ffffffffffff1602179055505061398b611de2565b5465ffffffffffff16919050565b600082116139df5760405162461bcd60e51b8152602060048201526013602482015272125b9cdd59999a58da595b9d08185b5bdd5b9d606a1b6044820152606401610526565b6139e98686614402565b8015613a01576139fc86868686866145cb565b613a0e565b613a0e8686868686614644565b505050505050565b6000613a238484846146b5565b8015613a345750613a3484846147fe565b949350505050565b6000613a49848484613a16565b613a655760405162461bcd60e51b815260040161052690615a0f565b50600082815260018085016020908152604080842065ffffffffffff80871680875260068301855295839020835160c08101855281548084168252600160301b8104841696820196909652600160601b909504821693850193909352938201546001600160a01b031660608401526002820154608084015260039182015460a084018190529181015491949093610100909204909116148015613b1d5750600382015465ffffffffffff858116600160381b90920416145b15613b3f57613b2e868660006148ad565b613b3a868660006148e5565b613c11565b600382015465ffffffffffff858116610100909204161415613b9d57613b6a868683602001516148ad565b60208082015165ffffffffffff1660009081526006840190915260409020805465ffffffffffff60601b19169055613c11565b600382015465ffffffffffff858116600160381b909204161415613bfd57613bca868683604001516148e5565b60408082015165ffffffffffff166000908152600684016020522080546bffffffffffff00000000000019169055613c11565b613c11868683604001518460200151614925565b805165ffffffffffff1660009081526006830160205260408120805471ffffffffffffffffffffffffffffffffffff19168155600180820180546001600160a01b031916905560028201839055600390910182905560048401805491929091613c7b908490615990565b909155505060a0810151600583018054600090613c99908490615990565b90915550929695505050505050565b80613d1b5760405162461bcd60e51b815260206004820152603960248201527f4f7264657253746174697374696373547265652834303729202d2056616c756560448201527f20746f2064656c6574652063616e6e6f74206265207a65726f000000000000006064820152608401610526565b60008181526001830160205260408120600481015490919081906114e55760008481526001808701602052604090912001541580613d6a57506000848152600186016020526040902060020154155b15613d76575082613dbe565b5060008381526001850160205260409020600201545b600081815260018087016020526040909120015415613dbe576000908152600180860160205260409091200154613d8c565b600081815260018087016020526040909120015415613df25760008181526001808701602052604090912001549150613e09565b600081815260018601602052604090206002015491505b60008181526001860160205260408082205484835291208190558015613e7a576000818152600180880160205260409091200154821415613e5f5760008181526001808801602052604090912001839055613e7e565b60008181526001870160205260409020600201839055613e7e565b8286555b600082815260018701602052604090206003015460ff1615858314613f0857613ea887848861499a565b60008681526001888101602052604080832080830154878552828520938401819055845281842087905560028082015490840181905584529083208690556003908101549286905201805460ff191660ff90921615159190911790559194915b8015613f1857613f188785614a14565b50506000818152600180870160205260408220828155908101829055600281018290556003810180546cffffffffffffffffffffffffff1916905560048101829055600501555050505050565b60005b6000828152600184016020526040902060020154156132fb5760009182526001830160205260409091206002015490613f68565b600082613fab61271084615971565b61288d919061594f565b613fbd6154d3565b6000838152600185016020526040902060058101548311156140475760405162461bcd60e51b815260206004820152603960248201527f4f7264657253746174697374696373547265652834313029202d20416d6f756e60448201527f7420746f2066696c6c20697320696e73756666696369656e74000000000000006064820152608401610526565b60038082015465ffffffffffff610100909104811660008181526006850160209081526040808320815160c08101835281548088168252600160301b8104881694820194909452600160601b9093049095169082015260018401546001600160a01b0316606082015260028401546080820152929093015460a0830152859291905b65ffffffffffff8116158015906140df57508315155b156141e45765ffffffffffff8082166000908152600687016020908152604091829020825160c08101845281548086168252600160301b8104861693820193909352600160601b9092049093169181019190915260018201546001600160a01b031660608201526002820154608082015260039091015460a0820181905290925084106141835760a08201516141759085615990565b9350816020015190506141d2565b6040518060800160405280836000015165ffffffffffff16815260200183606001516001600160a01b03168152602001858460a001516141c39190615990565b81526020018990529550600093505b826141dc816158d8565b9350506140c9565b6141f389898460000151614e2e565b5060408601511561424957600088815260018a0160209081526040808320855165ffffffffffff1684526006019091528082209088015160038201805492939192909190614242908490615990565b9091555050505b50505050509392505050565b6000818152600180840160205260408083209182018054925483855291842060020154938590528390559091801561429b57600081815260018601602052604090208490555b60008381526001860160205260409020829055816142bb57828555614308565b60008281526001860160205260409020600201548414156142f15760008281526001860160205260409020600201839055614308565b600082815260018087016020526040909120018390555b5050600081815260019093016020526040808420600201839055918352912055565b60008181526001808401602052604080832060028101805491548286529285209093015493859052918390559091801561437257600081815260018601602052604090208490555b6000838152600186016020526040902082905581614392578285556143df565b60008281526001808701602052604090912001548414156143c857600082815260018087016020526040909120018390556143df565b600082815260018601602052604090206002018390555b505060008181526001938401602052604080822090940183905591825291902055565b806144755760405162461bcd60e51b815260206004820152603960248201527f4f7264657253746174697374696373547265652834303529202d2056616c756560448201527f20746f20696e736572742063616e6e6f74206265207a65726f000000000000006064820152608401610526565b81546000905b80156144d957809150808310156144a557600090815260018085016020526040909120015461447b565b808311156144c657600090815260018401602052604090206002015461447b565b808314156144d45750505050565b61447b565b6000838152600185016020526040902084541580614528575060008381526001808701602052604090912001548414801590614528575060008381526001860160205260409020600201548414155b15614556576000600482018190556005820181905561454a90869086906148ad565b614556858560006148e5565b82815560006001808301829055600283019190915560038201805460ff1916909117905582614587578385556145c1565b828410156145aa57600083815260018087016020526040909120018490556145c1565b600083815260018601602052604090206002018490555b6114e58585615014565b60008481526001860160205260408120906145e9878787878761527f565b905061460d8787838560030160019054906101000a900465ffffffffffff16614925565b6146188787836148ad565b6003820154600160381b900465ffffffffffff1661463b5761463b8787836148e5565b50505050505050565b600084815260018601602052604090206003810154610100900465ffffffffffff16614677576139fc86868686866145cb565b6000614686878787878761527f565b90506146aa87878460030160079054906101000a900465ffffffffffff1684614925565b61463b8787836148e5565b600082815260018085016020908152604080842065ffffffffffff808716808752600683018552838720845160c0810186528154808516808352600160301b8204861698830198909852600160601b900490931694830194909452948301546001600160a01b031660608201526002830154608082015260039092015460a0830152859390921461474c576000935050505061288d565b5b604081015165ffffffffffff16156147df5760409081015165ffffffffffff808216600090815260068501602090815290849020845160c08101865281548085168252600160301b8104851693820193909352600160601b9092049092169381019390935260018101546001600160a01b03166060840152600281015460808401526003015460a0830152925061474d565b5060030154610100900465ffffffffffff908116911614949350505050565b60008161480d575060006122be565b825482141561481e575060016122be565b815b6000818152600185016020526040902054156122065760008181526001808601602052604080832054808452922001548214801590614872575060008181526001860160205260409020600201548214155b15614882576000925050506122be565b8454811415614896576001925050506122be565b506000908152600184016020526040902054614820565b6000918252600190920160205260409020600301805465ffffffffffff9092166101000266ffffffffffff0019909216919091179055565b6000918252600190920160205260409020600301805465ffffffffffff909216600160381b026cffffffffffff0000000000000019909216919091179055565b60009283526001939093016020908152604080842065ffffffffffff938416808652600690910190925280842080546bffffffffffff0000000000001916600160301b9490961693840295909517909455908252919020805465ffffffffffff60601b1916600160601b909202919091179055565b6000818152600184016020526040808220548483529120819055806149c157828455614a0e565b60008181526001808601602052604090912001548214156149f75760008181526001808601602052604090912001839055614a0e565b600081815260018501602052604090206002018390555b50505050565b60005b82548214801590614a3c5750600082815260018401602052604090206003015460ff16155b15614e0f576000828152600180850160205260408083205480845292200154831415614c385760008181526001850160205260408082206002015480835291206003015490925060ff1615614ae0576000828152600180860160205260408083206003908101805460ff19908116909155858552919093209092018054909216179055614ac9848261432a565b600081815260018501602052604090206002015491505b60008281526001808601602052604080832090910154825290206003015460ff16158015614b2b5750600082815260018501602052604080822060020154825290206003015460ff16155b15614b5857600082815260018581016020526040909120600301805460ff19169091179055915081614e09565b600082815260018501602052604080822060020154825290206003015460ff16614bd5576000828152600180860160205260408083208083015484529083206003908101805460ff1990811690915593869052018054909216179055614bbe8483614255565b600081815260018501602052604090206002015491505b600081815260018501602052604080822060039081018054868552838520808401805460ff909316151560ff199384161790558254821690925560029091015484529190922090910180549091169055614c2f848261432a565b83549250614e09565b6000818152600180860160205260408083209091015480835291206003015490925060ff1615614cb7576000828152600180860160205260408083206003908101805460ff19908116909155858552919093209092018054909216179055614ca08482614255565b600081815260018086016020526040909120015491505b600082815260018501602052604080822060020154825290206003015460ff16158015614d02575060008281526001808601602052604080832090910154825290206003015460ff16155b15614d2f57600082815260018581016020526040909120600301805460ff19169091179055915081614e09565b60008281526001808601602052604080832090910154825290206003015460ff16614dae57600082815260018086016020526040808320600281015484529083206003908101805460ff1990811690915593869052018054909216179055614d97848361432a565b600081815260018086016020526040909120015491505b60008181526001808601602052604080832060039081018054878652838620808401805460ff909316151560ff19938416179055825482169092559301548452922090910180549091169055614e048482614255565b835492505b50614a17565b506000908152600190910160205260409020600301805460ff19169055565b6000614e3b848484613a16565b614e575760405162461bcd60e51b815260040161052690615a0f565b50600082815260018085016020908152604080842065ffffffffffff808716865260068201808552838720845160c08101865281548085168252600160301b8104851682890152600160601b9004841681870152818801546001600160a01b031660608201526002820154608082015260039182015460a08201819052828601546101009004909416808a529290965293909620909201549194909390915b8665ffffffffffff168314614f5a57600092835260068501602052604090922054600160301b900465ffffffffffff169181614f31816158d8565b6000858152600688016020526040902060030154909350614f53915082615937565b9050614ef6565b600385015465ffffffffffff888116600160381b909204161415614f9557614f84898960006148ad565b614f90898960006148e5565b614fd3565b614fa4898986602001516148ad565b60208085015165ffffffffffff1660009081526006870190915260409020805465ffffffffffff60601b191690555b81856004016000828254614fe79190615990565b92505081905550808560050160008282546150029190615990565b90915550959998505050505050505050565b60005b825482148015906150415750600082815260018401602052604080822054825290206003015460ff165b1561525d5760008281526001808501602052604080832054808452818420548452922001548114156151645760008181526001850160205260408082205482528082206002015480835291206003015490925060ff16156150ea576000818152600180860160205260408083206003808201805460ff19908116909155878652838620820180548216905582548652928520018054909216909217905590829052549250615257565b600081815260018501602052604090206002015483141561511257809250615112848461432a565b50600082815260018085016020526040808320548084528184206003808201805460ff1990811690915582548752938620018054909316909317909155918290525461515f908590614255565b615257565b6000818152600180860160205260408083205483528083209091015480835291206003015490925060ff16156151e2576000818152600180860160205260408083206003808201805460ff19908116909155878652838620820180548216905582548652928520018054909216909217905590829052549250615257565b600081815260018086016020526040909120015483141561520a5780925061520a8484614255565b50600082815260018085016020526040808320548084528184206003808201805460ff1990811690915582548752938620018054909316909317909155918290525461525790859061432a565b50615017565b505080546000908152600190910160205260409020600301805460ff19169055565b6000848152600186016020908152604080832065ffffffffffff8716845260068101909252822060020154156153125760405162461bcd60e51b815260206004820152603260248201527f4f7264657253746174697374696373547265652834303929202d204f726465726044820152711034b21030b63932b0b23c9032bc34b9ba1760711b6064820152608401610526565b60018160040160008282546153279190615937565b92505081905550828160050160008282546153429190615937565b90915550506040805160c08101825265ffffffffffff808816808352600060208085018281528587018381526001600160a01b03808d16606089019081524260808a0190815260a08a018e81529787526006909b019094529790932095518654915193518616600160601b0265ffffffffffff60601b19948716600160301b026bffffffffffffffffffffffff199093169682169690961791909117929092169390931784559151600184018054919095166001600160a01b031990911617909355925160028201559051600390910155905095945050505050565b828054828255906000526020600020906004016005900481019282156154c35791602002820160005b8382111561548f57835183826101000a81548165ffffffffffff021916908365ffffffffffff1602179055509260200192600601602081600501049283019260010302615447565b80156154c15782816101000a81549065ffffffffffff021916905560060160208160050104928301926001030261548f565b505b506154cf92915061550c565b5090565b6040518060800160405280600065ffffffffffff16815260200160006001600160a01b0316815260200160008152602001600081525090565b5b808211156154cf576000815560010161550d565b6001600160a01b038116811461553657600080fd5b50565b60006020828403121561554b57600080fd5b813561288d81615521565b6020808252825182820181905260009190848201906040850190845b8181101561558e57835183529284019291840191600101615572565b50909695505050505050565b6000602082840312156155ac57600080fd5b5035919050565b600081518084526020808501945080840160005b838110156155e3578151875295820195908201906001016155c7565b509495945050505050565b60608152600061560160608301866155b3565b828103602084015261561381866155b3565b9050828103604084015261562781856155b3565b9695505050505050565b6000806000806080858703121561564757600080fd5b84356002811061565657600080fd5b9350602085013561566681615521565b93969395505050506040820135916060013590565b803565ffffffffffff811681146122a457600080fd5b600080604083850312156156a457600080fd5b82356156af81615521565b91506156bd6020840161567b565b90509250929050565b634e487b7160e01b600052602160045260246000fd5b600281106156fa57634e487b7160e01b600052602160045260246000fd5b9052565b6060810161570c82866156dc565b602082019390935260400152919050565b60006020828403121561572f57600080fd5b61288d8261567b565b60c0810161574682896156dc565b602082019690965260408101949094526001600160a01b03929092166060840152608083015260a090910152919050565b6020808252825182820181905260009190848201906040850190845b8181101561558e57835165ffffffffffff1683529284019291840191600101615793565b600080600080608085870312156157cd57600080fd5b84356157d881615521565b966020860135965060408601359560600135945092505050565b60208082526017908201527f4f6e6c7920416363657074656420436f6e747261637473000000000000000000604082015260600190565b634e487b7160e01b600052603260045260246000fd5b6000815180845260005b8181101561586557602081850181015186830182015201615849565b81811115615877576000602083870101525b50601f01601f19169290920160200192915050565b828152604060208201526000613a34604083018461583f565b6000602082840312156158b757600080fd5b815161288d81615521565b634e487b7160e01b600052601160045260246000fd5b60006000198214156158ec576158ec6158c2565b5060010190565b634e487b7160e01b600052604160045260246000fd5b65ffffffffffff851681526080810161592560208301866156dc565b60408201939093526060015292915050565b6000821982111561594a5761594a6158c2565b500190565b60008261596c57634e487b7160e01b600052601260045260246000fd5b500490565b600081600019048311821515161561598b5761598b6158c2565b500290565b6000828210156159a2576159a26158c2565b500390565b608081016159b582876156dc565b84602083015283604083015282606083015295945050505050565b65ffffffffffff8716815260c081016159ec60208301886156dc565b8560408301528460608301528360808301528260a0830152979650505050505050565b60208082526030908201527f4f7264657253746174697374696373547265652834313029202d204f7264657260408201526f103237b2b9903737ba1032bc34b9ba1760811b606082015260800190565b60208152600061288d602083018461583f565b60208082526038908201527f4f7264657253746174697374696373547265652834303829202d20416d6f756e60408201527f7420746f2064726f702063616e6e6f74206265207a65726f0000000000000000606082015260800190565b600065ffffffffffff80831681811415615aeb57615aeb6158c2565b600101939250505056fe4abde63c3e81aefa5764b017968bc473e83e093d7e1a10247d19e0a3e4124018a2646970667358221220f915a1995dd4289f651db198af6c0effabf9f1410518fdd7155cdf026d395b2864736f6c63430008090033",
  "devdoc": {
    "details": "The market orders is stored in structured red-black trees and doubly linked lists in each node.",
    "kind": "dev",
    "methods": {
      "acceptedContracts()": {
        "details": "The contact name listed in this method is also needed to be listed `requiredContracts` method."
      },
      "cancelOrder(address,uint48)": {
        "params": {
          "_orderId": "Market order id",
          "_user": "User address"
        }
      },
      "cleanOrders(address)": {
        "details": "The order list per user is not updated in real-time when an order is filled. This function removes the filled order from that order list per user to reduce gas costs for calculating if the collateral is enough or not.",
        "params": {
          "_user": "User address"
        }
      },
      "createOrder(uint8,address,uint256,uint256)": {
        "params": {
          "_amount": "Amount of funds the maker wants to borrow/lend",
          "_side": "Order position type, Borrow or Lend",
          "_unitPrice": "Amount of unit price taker wish to borrow/lend",
          "_user": "User's address"
        }
      },
      "getActiveBorrowOrderIds(address)": {
        "params": {
          "_user": "User's address"
        }
      },
      "getActiveLendOrderIds(address)": {
        "params": {
          "_user": "User's address"
        }
      },
      "getBorrowOrderBook(uint256)": {
        "params": {
          "_limit": "Max limit to get unit prices"
        },
        "returns": {
          "unitPrices": "The array of borrow unit prices"
        }
      },
      "getBorrowUnitPrice()": {
        "returns": {
          "_0": "The highest borrow price per future value"
        }
      },
      "getCurrency()": {
        "returns": {
          "currency": "The market currency"
        }
      },
      "getLendOrderBook(uint256)": {
        "params": {
          "_limit": "Max limit to get unit prices"
        },
        "returns": {
          "unitPrices": "The array of lending unit prices"
        }
      },
      "getLendUnitPrice()": {
        "returns": {
          "_0": "The lowest lend price per future value"
        }
      },
      "getMarket()": {
        "returns": {
          "market": "The market data"
        }
      },
      "getMaturity()": {
        "returns": {
          "maturity": "The market maturity"
        }
      },
      "getMidUnitPrice()": {
        "returns": {
          "_0": "The mid price per future value"
        }
      },
      "getOrder(uint48)": {
        "params": {
          "_orderId": "The market order id"
        },
        "returns": {
          "amount": "Order amount",
          "maker": "The order maker",
          "maturity": "The maturity of the selected order",
          "side": "Order position type, Borrow or Lend",
          "timestamp": "Timestamp when the order was created",
          "unitPrice": "Amount of interest unit price"
        }
      },
      "getTotalAmountFromBorrowOrders(address)": {
        "params": {
          "_user": "User's address"
        },
        "returns": {
          "activeAmount": "The total amount of active order on the order book",
          "inactiveAmount": "The total amount of inactive orders filled on the order book",
          "inactiveFutureValue": "The total future value amount of inactive orders filled on the order book",
          "maturity": "The maturity of market that orders were placed."
        }
      },
      "getTotalAmountFromLendOrders(address)": {
        "params": {
          "_user": "User's address"
        },
        "returns": {
          "activeAmount": "The total amount of active order on the order book",
          "inactiveFutureValue": "The total future value amount of inactive orders filled on the order book",
          "maturity": "The maturity of market that orders were placed."
        }
      },
      "initialize(address,bytes32,uint256,uint256)": {
        "details": "Function is invoked by the proxy contract when the contract is added to the ProxyController.",
        "params": {
          "_basisDate": "The basis date when the first market open",
          "_ccy": "The main currency for the order book",
          "_maturity": "The initial maturity of the market",
          "_resolver": "The address of the Address Resolver contract"
        }
      },
      "isMatured()": {
        "returns": {
          "_0": "The boolean if the market is matured or not"
        }
      },
      "isOpened()": {
        "returns": {
          "_0": "The boolean if the market is opened or not"
        }
      },
      "openMarket(uint256)": {
        "params": {
          "_maturity": "The new maturity"
        }
      },
      "paused()": {
        "details": "Returns true if the contract is paused, and false otherwise."
      },
      "requiredContracts()": {
        "details": "The contract name list is in `./libraries/Contracts.sol`."
      }
    },
    "version": 1
  },
  "userdoc": {
    "kind": "user",
    "methods": {
      "acceptedContracts()": {
        "notice": "Returns contract names that can call this contract."
      },
      "cancelOrder(address,uint48)": {
        "notice": "Cancels the order."
      },
      "cleanOrders(address)": {
        "notice": "Cleans own orders to remove order ids that are already filled on the order book."
      },
      "createOrder(uint8,address,uint256,uint256)": {
        "notice": "Creates the order. Takes the order if the order is matched, and places new order if not match it."
      },
      "getActiveBorrowOrderIds(address)": {
        "notice": "Gets the order ids of active borrowing order on the order book"
      },
      "getActiveLendOrderIds(address)": {
        "notice": "Gets the order ids of active lending order on the order book"
      },
      "getBorrowOrderBook(uint256)": {
        "notice": "Gets the order book of borrow."
      },
      "getBorrowUnitPrice()": {
        "notice": "Gets the highest borrow price per future value."
      },
      "getCurrency()": {
        "notice": "Gets the market currency."
      },
      "getLendOrderBook(uint256)": {
        "notice": "Gets the order book of lend."
      },
      "getLendUnitPrice()": {
        "notice": "Gets the lowest lend price per future value."
      },
      "getMarket()": {
        "notice": "Gets the market data."
      },
      "getMaturity()": {
        "notice": "Gets the current market maturity."
      },
      "getMidUnitPrice()": {
        "notice": "Gets the mid price per future value."
      },
      "getOrder(uint48)": {
        "notice": "Gets the market order from the order book."
      },
      "getTotalAmountFromBorrowOrders(address)": {
        "notice": "Calculates and gets the active and inactive amounts from the user orders of borrowing deals."
      },
      "getTotalAmountFromLendOrders(address)": {
        "notice": "Calculates and gets the active and inactive amounts from the user orders of lending deals."
      },
      "initialize(address,bytes32,uint256,uint256)": {
        "notice": "Initializes the contract."
      },
      "isMatured()": {
        "notice": "Gets if the market is matured."
      },
      "isOpened()": {
        "notice": "Gets if the market is opened."
      },
      "openMarket(uint256)": {
        "notice": "Opens market"
      },
      "pauseMarket()": {
        "notice": "Pauses the lending market."
      },
      "requiredContracts()": {
        "notice": "Returns the contract names used in this contract."
      },
      "unpauseMarket()": {
        "notice": "Unpauses the lending market."
      }
    },
    "notice": "Implements the module that allows lending market participants to create/cancel market orders, and also provides a future value calculation module. For updates, this contract is basically called from `LendingMarketController.sol`instead of being called \\ directly by the user.",
    "version": 1
  },
  "storageLayout": {
    "storage": [
      {
        "astId": 952,
        "contract": "contracts/LendingMarket.sol:LendingMarket",
        "label": "_paused",
        "offset": 0,
        "slot": "0",
        "type": "t_bool"
      },
      {
        "astId": 790,
        "contract": "contracts/LendingMarket.sol:LendingMarket",
        "label": "_initialized",
        "offset": 1,
        "slot": "0",
        "type": "t_uint8"
      },
      {
        "astId": 793,
        "contract": "contracts/LendingMarket.sol:LendingMarket",
        "label": "_initializing",
        "offset": 2,
        "slot": "0",
        "type": "t_bool"
      }
    ],
    "types": {
      "t_bool": {
        "encoding": "inplace",
        "label": "bool",
        "numberOfBytes": "1"
      },
      "t_uint8": {
        "encoding": "inplace",
        "label": "uint8",
        "numberOfBytes": "1"
      }
    }
  }
}