{
  "address": "0xE1Bca95415f50d4aA079a6867B038E81f10Abf83",
  "abi": [
    {
      "anonymous": false,
      "inputs": [
        {
          "indexed": false,
          "internalType": "bytes32",
          "name": "name",
          "type": "bytes32"
        },
        {
          "indexed": false,
          "internalType": "address",
          "name": "destination",
          "type": "address"
        }
      ],
      "name": "CacheUpdated",
      "type": "event"
    },
    {
      "anonymous": false,
      "inputs": [
        {
          "indexed": false,
          "internalType": "uint48",
          "name": "orderId",
          "type": "uint48"
        },
        {
          "indexed": true,
          "internalType": "address",
          "name": "maker",
          "type": "address"
        },
        {
          "indexed": false,
          "internalType": "enum ProtocolTypes.Side",
          "name": "side",
          "type": "uint8"
        },
        {
          "indexed": false,
          "internalType": "uint256",
          "name": "amount",
          "type": "uint256"
        },
        {
          "indexed": false,
          "internalType": "uint256",
          "name": "unitPrice",
          "type": "uint256"
        }
      ],
      "name": "CancelOrder",
      "type": "event"
    },
    {
      "anonymous": false,
      "inputs": [
        {
          "indexed": false,
          "internalType": "uint8",
          "name": "version",
          "type": "uint8"
        }
      ],
      "name": "Initialized",
      "type": "event"
    },
    {
      "anonymous": false,
      "inputs": [
        {
          "indexed": false,
          "internalType": "uint48",
          "name": "orderId",
          "type": "uint48"
        },
        {
          "indexed": true,
          "internalType": "address",
          "name": "maker",
          "type": "address"
        },
        {
          "indexed": false,
          "internalType": "enum ProtocolTypes.Side",
          "name": "side",
          "type": "uint8"
        },
        {
          "indexed": false,
          "internalType": "bytes32",
          "name": "ccy",
          "type": "bytes32"
        },
        {
          "indexed": false,
          "internalType": "uint256",
          "name": "maturity",
          "type": "uint256"
        },
        {
          "indexed": false,
          "internalType": "uint256",
          "name": "amount",
          "type": "uint256"
        },
        {
          "indexed": false,
          "internalType": "uint256",
          "name": "unitPrice",
          "type": "uint256"
        }
      ],
      "name": "MakeOrder",
      "type": "event"
    },
    {
      "anonymous": false,
      "inputs": [
        {
          "indexed": false,
          "internalType": "uint256",
          "name": "maturity",
          "type": "uint256"
        },
        {
          "indexed": false,
          "internalType": "uint256",
          "name": "prevMaturity",
          "type": "uint256"
        }
      ],
      "name": "OpenMarket",
      "type": "event"
    },
    {
      "anonymous": false,
      "inputs": [
        {
          "indexed": false,
          "internalType": "address",
          "name": "account",
          "type": "address"
        }
      ],
      "name": "Paused",
      "type": "event"
    },
    {
      "anonymous": false,
      "inputs": [
        {
          "indexed": true,
          "internalType": "address",
          "name": "taker",
          "type": "address"
        },
        {
          "indexed": false,
          "internalType": "enum ProtocolTypes.Side",
          "name": "side",
          "type": "uint8"
        },
        {
          "indexed": false,
          "internalType": "uint256",
          "name": "filledAmount",
          "type": "uint256"
        },
        {
          "indexed": false,
          "internalType": "uint256",
          "name": "unitPrice",
          "type": "uint256"
        },
        {
          "indexed": false,
          "internalType": "uint256",
          "name": "filledFutureValue",
          "type": "uint256"
        }
      ],
      "name": "TakeOrders",
      "type": "event"
    },
    {
      "anonymous": false,
      "inputs": [
        {
          "indexed": false,
          "internalType": "address",
          "name": "account",
          "type": "address"
        }
      ],
      "name": "Unpaused",
      "type": "event"
    },
    {
      "inputs": [],
      "name": "acceptedContracts",
      "outputs": [
        {
          "internalType": "bytes32[]",
          "name": "contracts",
          "type": "bytes32[]"
        }
      ],
      "stateMutability": "pure",
      "type": "function"
    },
    {
      "inputs": [],
      "name": "buildCache",
      "outputs": [],
      "stateMutability": "nonpayable",
      "type": "function"
    },
    {
      "inputs": [
        {
          "internalType": "address",
          "name": "_user",
          "type": "address"
        },
        {
          "internalType": "uint48",
          "name": "_orderId",
          "type": "uint48"
        }
      ],
      "name": "cancelOrder",
      "outputs": [
        {
          "internalType": "enum ProtocolTypes.Side",
          "name": "",
          "type": "uint8"
        },
        {
          "internalType": "uint256",
          "name": "",
          "type": "uint256"
        },
        {
          "internalType": "uint256",
          "name": "",
          "type": "uint256"
        }
      ],
      "stateMutability": "nonpayable",
      "type": "function"
    },
    {
      "inputs": [
        {
          "internalType": "address",
          "name": "_user",
          "type": "address"
        }
      ],
      "name": "cleanOrders",
      "outputs": [
        {
          "internalType": "uint256",
          "name": "activeLendOrderCount",
          "type": "uint256"
        },
        {
          "internalType": "uint256",
          "name": "activeBorrowOrderCount",
          "type": "uint256"
        },
        {
          "internalType": "uint256",
          "name": "removedLendOrderFutureValue",
          "type": "uint256"
        },
        {
          "internalType": "uint256",
          "name": "removedBorrowOrderFutureValue",
          "type": "uint256"
        },
        {
          "internalType": "uint256",
          "name": "removedLendOrderAmount",
          "type": "uint256"
        },
        {
          "internalType": "uint256",
          "name": "removedBorrowOrderAmount",
          "type": "uint256"
        },
        {
          "internalType": "uint256",
          "name": "maturity",
          "type": "uint256"
        }
      ],
      "stateMutability": "nonpayable",
      "type": "function"
    },
    {
      "inputs": [
        {
          "internalType": "enum ProtocolTypes.Side",
          "name": "_side",
          "type": "uint8"
        },
        {
          "internalType": "address",
          "name": "_user",
          "type": "address"
        },
        {
          "internalType": "uint256",
          "name": "_amount",
          "type": "uint256"
        },
        {
          "internalType": "uint256",
          "name": "_unitPrice",
          "type": "uint256"
        }
      ],
      "name": "createOrder",
      "outputs": [
        {
          "internalType": "uint256",
          "name": "filledFutureValue",
          "type": "uint256"
        },
        {
          "internalType": "uint256",
          "name": "remainingAmount",
          "type": "uint256"
        }
      ],
      "stateMutability": "nonpayable",
      "type": "function"
    },
    {
      "inputs": [
        {
          "internalType": "address",
          "name": "_user",
          "type": "address"
        }
      ],
      "name": "getActiveBorrowOrderIds",
      "outputs": [
        {
          "internalType": "uint48[]",
          "name": "activeOrderIds",
          "type": "uint48[]"
        }
      ],
      "stateMutability": "view",
      "type": "function"
    },
    {
      "inputs": [
        {
          "internalType": "address",
          "name": "_user",
          "type": "address"
        }
      ],
      "name": "getActiveLendOrderIds",
      "outputs": [
        {
          "internalType": "uint48[]",
          "name": "activeOrderIds",
          "type": "uint48[]"
        }
      ],
      "stateMutability": "view",
      "type": "function"
    },
    {
      "inputs": [
        {
          "internalType": "uint256",
          "name": "_limit",
          "type": "uint256"
        }
      ],
      "name": "getBorrowOrderBook",
      "outputs": [
        {
          "internalType": "uint256[]",
          "name": "unitPrices",
          "type": "uint256[]"
        },
        {
          "internalType": "uint256[]",
          "name": "amounts",
          "type": "uint256[]"
        },
        {
          "internalType": "uint256[]",
          "name": "quantities",
          "type": "uint256[]"
        }
      ],
      "stateMutability": "view",
      "type": "function"
    },
    {
      "inputs": [],
      "name": "getBorrowUnitPrice",
      "outputs": [
        {
          "internalType": "uint256",
          "name": "",
          "type": "uint256"
        }
      ],
      "stateMutability": "view",
      "type": "function"
    },
    {
      "inputs": [],
      "name": "getCurrency",
      "outputs": [
        {
          "internalType": "bytes32",
          "name": "currency",
          "type": "bytes32"
        }
      ],
      "stateMutability": "view",
      "type": "function"
    },
    {
      "inputs": [
        {
          "internalType": "uint256",
          "name": "_limit",
          "type": "uint256"
        }
      ],
      "name": "getLendOrderBook",
      "outputs": [
        {
          "internalType": "uint256[]",
          "name": "unitPrices",
          "type": "uint256[]"
        },
        {
          "internalType": "uint256[]",
          "name": "amounts",
          "type": "uint256[]"
        },
        {
          "internalType": "uint256[]",
          "name": "quantities",
          "type": "uint256[]"
        }
      ],
      "stateMutability": "view",
      "type": "function"
    },
    {
      "inputs": [],
      "name": "getLendUnitPrice",
      "outputs": [
        {
          "internalType": "uint256",
          "name": "",
          "type": "uint256"
        }
      ],
      "stateMutability": "view",
      "type": "function"
    },
    {
      "inputs": [],
      "name": "getMarket",
      "outputs": [
        {
          "components": [
            {
              "internalType": "bytes32",
              "name": "ccy",
              "type": "bytes32"
            },
            {
              "internalType": "uint256",
              "name": "maturity",
              "type": "uint256"
            },
            {
              "internalType": "uint256",
              "name": "genesisDate",
              "type": "uint256"
            },
            {
              "internalType": "uint256",
              "name": "borrowUnitPrice",
              "type": "uint256"
            },
            {
              "internalType": "uint256",
              "name": "lendUnitPrice",
              "type": "uint256"
            },
            {
              "internalType": "uint256",
              "name": "midUnitPrice",
              "type": "uint256"
            }
          ],
          "internalType": "struct ILendingMarket.Market",
          "name": "market",
          "type": "tuple"
        }
      ],
      "stateMutability": "view",
      "type": "function"
    },
    {
      "inputs": [],
      "name": "getMaturity",
      "outputs": [
        {
          "internalType": "uint256",
          "name": "maturity",
          "type": "uint256"
        }
      ],
      "stateMutability": "view",
      "type": "function"
    },
    {
      "inputs": [],
      "name": "getMidUnitPrice",
      "outputs": [
        {
          "internalType": "uint256",
          "name": "",
          "type": "uint256"
        }
      ],
      "stateMutability": "view",
      "type": "function"
    },
    {
      "inputs": [
        {
          "internalType": "uint48",
          "name": "_orderId",
          "type": "uint48"
        }
      ],
      "name": "getOrder",
      "outputs": [
        {
          "internalType": "enum ProtocolTypes.Side",
          "name": "side",
          "type": "uint8"
        },
        {
          "internalType": "uint256",
          "name": "unitPrice",
          "type": "uint256"
        },
        {
          "internalType": "uint256",
          "name": "maturity",
          "type": "uint256"
        },
        {
          "internalType": "address",
          "name": "maker",
          "type": "address"
        },
        {
          "internalType": "uint256",
          "name": "amount",
          "type": "uint256"
        },
        {
          "internalType": "uint256",
          "name": "timestamp",
          "type": "uint256"
        }
      ],
      "stateMutability": "view",
      "type": "function"
    },
    {
      "inputs": [
        {
          "internalType": "address",
          "name": "_user",
          "type": "address"
        }
      ],
      "name": "getTotalAmountFromBorrowOrders",
      "outputs": [
        {
          "internalType": "uint256",
          "name": "activeAmount",
          "type": "uint256"
        },
        {
          "internalType": "uint256",
          "name": "inactiveAmount",
          "type": "uint256"
        },
        {
          "internalType": "uint256",
          "name": "inactiveFutureValue",
          "type": "uint256"
        },
        {
          "internalType": "uint256",
          "name": "maturity",
          "type": "uint256"
        }
      ],
      "stateMutability": "view",
      "type": "function"
    },
    {
      "inputs": [
        {
          "internalType": "address",
          "name": "_user",
          "type": "address"
        }
      ],
      "name": "getTotalAmountFromLendOrders",
      "outputs": [
        {
          "internalType": "uint256",
          "name": "activeAmount",
          "type": "uint256"
        },
        {
          "internalType": "uint256",
          "name": "inactiveAmount",
          "type": "uint256"
        },
        {
          "internalType": "uint256",
          "name": "inactiveFutureValue",
          "type": "uint256"
        },
        {
          "internalType": "uint256",
          "name": "maturity",
          "type": "uint256"
        }
      ],
      "stateMutability": "view",
      "type": "function"
    },
    {
      "inputs": [
        {
          "internalType": "address",
          "name": "_resolver",
          "type": "address"
        },
        {
          "internalType": "bytes32",
          "name": "_ccy",
          "type": "bytes32"
        },
        {
          "internalType": "uint256",
          "name": "_maturity",
          "type": "uint256"
        },
        {
          "internalType": "uint256",
          "name": "_genesisDate",
          "type": "uint256"
        }
      ],
      "name": "initialize",
      "outputs": [],
      "stateMutability": "nonpayable",
      "type": "function"
    },
    {
      "inputs": [],
      "name": "isMatured",
      "outputs": [
        {
          "internalType": "bool",
          "name": "",
          "type": "bool"
        }
      ],
      "stateMutability": "view",
      "type": "function"
    },
    {
      "inputs": [],
      "name": "isOpened",
      "outputs": [
        {
          "internalType": "bool",
          "name": "",
          "type": "bool"
        }
      ],
      "stateMutability": "view",
      "type": "function"
    },
    {
      "inputs": [],
      "name": "isResolverCached",
      "outputs": [
        {
          "internalType": "bool",
          "name": "",
          "type": "bool"
        }
      ],
      "stateMutability": "view",
      "type": "function"
    },
    {
      "inputs": [
        {
          "internalType": "uint256",
          "name": "_maturity",
          "type": "uint256"
        }
      ],
      "name": "openMarket",
      "outputs": [
        {
          "internalType": "uint256",
          "name": "prevMaturity",
          "type": "uint256"
        }
      ],
      "stateMutability": "nonpayable",
      "type": "function"
    },
    {
      "inputs": [],
      "name": "pauseMarket",
      "outputs": [],
      "stateMutability": "nonpayable",
      "type": "function"
    },
    {
      "inputs": [],
      "name": "paused",
      "outputs": [
        {
          "internalType": "bool",
          "name": "",
          "type": "bool"
        }
      ],
      "stateMutability": "view",
      "type": "function"
    },
    {
      "inputs": [],
      "name": "requiredContracts",
      "outputs": [
        {
          "internalType": "bytes32[]",
          "name": "contracts",
          "type": "bytes32[]"
        }
      ],
      "stateMutability": "pure",
      "type": "function"
    },
    {
      "inputs": [],
      "name": "resolver",
      "outputs": [
        {
          "internalType": "contract IAddressResolver",
          "name": "",
          "type": "address"
        }
      ],
      "stateMutability": "view",
      "type": "function"
    },
    {
      "inputs": [],
      "name": "unpauseMarket",
      "outputs": [],
      "stateMutability": "nonpayable",
      "type": "function"
    }
  ],
  "transactionHash": "0xd37feba6dd39e14da6d176d0586d9b1f8ad1699842951f95814d8d5475302d68",
  "args": [],
  "numDeployments": 1,
  "solcInputHash": "ca39234284045a01d53a150dc8ba29f5",
  "bytecode": "0x608060405234801561001057600080fd5b506000805460ff19169055615cd3806200002b6000396000f3fe608060405234801561001057600080fd5b50600436106101c45760003560e01c806371613c2d116100f9578063d866d35511610097578063e3d904d811610071578063e3d904d8146103b8578063e7df768c146103eb578063eebc28f9146103fe578063f1be16791461041157600080fd5b8063d866d3551461039d578063e099765914610276578063e16695b5146103b057600080fd5b8063a03738dc116100d3578063a03738dc1461034f578063a452c3f814610357578063b7c1d52714610377578063baa267571461038a57600080fd5b806371613c2d1461031a5780637ce219aa146103225780637f2b6a0d1461034757600080fd5b80634bf62d16116101665780635c975abb116101405780635c975abb146102f75780635e0b54da14610302578063692aa97e1461030a5780636945c1fd1461031257600080fd5b80634bf62d161461028b5780634eee4495146102ad578063504b89bd146102d557600080fd5b80631b3508b7116101a25780631b3508b71461024057806329985e5a146102565780632af64bd31461025e5780633d03b9da1461027657600080fd5b806304f3bcec146101c95780630a2db192146101ee5780631610c7ce14610236575b600080fd5b6101d1610465565b6040516001600160a01b0390911681526020015b60405180910390f35b6102016101fc3660046156ab565b610486565b604080519788526020880196909652948601939093526060850191909152608084015260a083015260c082015260e0016101e5565b61023e6104e6565b005b61024861051e565b6040519081526020016101e5565b61023e610554565b610266610701565b60405190151581526020016101e5565b61027e610867565b6040516101e591906156c8565b61029e61029936600461570c565b6108cc565b6040516101e593929190615760565b6102c06102bb3660046157a3565b610b5c565b604080519283526020830191909152016101e5565b6102e86102e3366004615803565b610dfe565b6040516101e593929190615870565b60005460ff16610266565b6102486110d3565b6102666110e0565b610248611106565b610248611119565b61033561033036600461588f565b61114f565b6040516101e5969594939291906158aa565b6102666112de565b61023e6112f4565b61036a6103653660046156ab565b611321565b6040516101e591906158e9565b61023e610385366004615929565b611333565b61024861039836600461570c565b6114f5565b61029e6103ab36600461570c565b6115c1565b610248611808565b6103cb6103c63660046156ab565b61181b565b6040805194855260208501939093529183015260608201526080016101e5565b6103cb6103f93660046156ab565b611ac4565b61036a61040c3660046156ab565b611d4f565b610419611d5a565b6040516101e59190600060c082019050825182526020830151602083015260408301516040830152606083015160608301526080830151608083015260a083015160a083015292915050565b6000600080516020615c7e8339815191525b546001600160a01b0316919050565b6000806000806000806000610499611dfd565b6001600160a01b0389166000908152600691909101602052604090205490506104c28882611e21565b919850955092506104d38882611fe9565b989a919950959795965092949350919050565b6104ef336121b1565b6105145760405162461bcd60e51b815260040161050b90615964565b60405180910390fd5b61051c61222b565b565b600061054f61052b611dfd565b6008016000610538611dfd565b60030154815260200190815260200160002061227d565b905090565b600061055e610867565b905060005b81518110156106fd5760008282815181106105805761058061599b565b6020026020010151905060006105a1600080516020615c7e83398151915290565b54604080517f5265736f6c766572206d697373696e67207461726765743a200000000000000060208201526039808201869052825180830390910181526059820192839052636795dbcd60e01b9092526001600160a01b0390921691636795dbcd9161061291869190605d016159fe565b60206040518083038186803b15801561062a57600080fd5b505afa15801561063e573d6000803e3d6000fd5b505050506040513d601f19601f820116820180604052508101906106629190615a17565b60008381527f4abde63c3e81aefa5764b017968bc473e83e093d7e1a10247d19e0a3e4124019602090815260409182902080546001600160a01b0319166001600160a01b03851690811790915582518681529182015281519293507f88a93678a3692f6789d9546fc621bf7234b101ddb7d4fe479455112831b8aa68929081900390910190a1505080806106f590615a4a565b915050610563565b5050565b60008061070c610867565b905060005b815181101561085e57600082828151811061072e5761072e61599b565b6020026020010151905061074d600080516020615c7e83398151915290565b600082815260019190910160205260409020546001600160a01b0316600080516020615c7e833981519152546040516321f8a72160e01b8152600481018490526001600160a01b03909116906321f8a7219060240160206040518083038186803b1580156107ba57600080fd5b505afa1580156107ce573d6000803e3d6000fd5b505050506040513d601f19601f820116820180604052508101906107f29190615a17565b6001600160a01b031614158061083c575060008181527f4abde63c3e81aefa5764b017968bc473e83e093d7e1a10247d19e0a3e412401960205260409020546001600160a01b0316155b1561084b576000935050505090565b508061085681615a4a565b915050610711565b50600191505090565b604080516001808252818301909252606091602080830190803683370190505090507f4c656e64696e674d61726b6574436f6e74726f6c6c6572000000000000000000816000815181106108bd576108bd61599b565b60200260200101818152505090565b60608060608367ffffffffffffffff8111156108ea576108ea615a65565b604051908082528060200260200182016040528015610913578160200160208202803683370190505b5092508367ffffffffffffffff81111561092f5761092f615a65565b604051908082528060200260200182016040528015610958578160200160208202803683370190505b5091508367ffffffffffffffff81111561097457610974615a65565b60405190808252806020026020018201604052801561099d578160200160208202803683370190505b50905060006109ad61052b611dfd565b905080846000815181106109c3576109c361599b565b602002602001018181525050610a08816109db611dfd565b60080160006109e8611dfd565b6003015481526020019081526020016000206122c490919063ffffffff16565b83600081518110610a1b57610a1b61599b565b602002602001018181525050610a6081610a33611dfd565b6008016000610a40611dfd565b6003015481526020019081526020016000206122df90919063ffffffff16565b82600081518110610a7357610a7361599b565b602090810291909101015260015b8451811015610b535781610a9457610b53565b610acd82610aa0611dfd565b6008016000610aad611dfd565b6003015481526020019081526020016000206122f890919063ffffffff16565b915081858281518110610ae257610ae261599b565b602002602001018181525050610afa826109db611dfd565b848281518110610b0c57610b0c61599b565b602002602001018181525050610b2482610a33611dfd565b838281518110610b3657610b3661599b565b602090810291909101015280610b4b81615a4a565b915050610a81565b50509193909250565b600080610b676123f9565b610b70336121b1565b610b8c5760405162461bcd60e51b815260040161050b90615964565b610b946110e0565b610bd75760405162461bcd60e51b815260206004820152601460248201527313585c9ad95d081a5cc81b9bdd081bdc195b995960621b604482015260640161050b565b6000610be1611dfd565b6001600160a01b03871660009081526006919091016020526040902054905084610c4d5760405162461bcd60e51b815260206004820152601860248201527f43616e277420706c61636520656d70747920616d6f756e740000000000000000604482015260640161050b565b610c55611dfd565b60030154811480610ccc5750610c69611dfd565b600301548114158015610c9e5750610c7f611dfd565b6001600160a01b03871660009081526004919091016020526040902054155b8015610ccc5750610cad611dfd565b6001600160a01b03871660009081526005919091016020526040902054155b610d185760405162461bcd60e51b815260206004820152601d60248201527f4f7264657220666f756e6420696e2070617374206d617475726974792e000000604482015260640161050b565b610d20611dfd565b600301548114610d5c57610d32611dfd565b60030154610d3e611dfd565b6001600160a01b038816600090815260069190910160205260409020555b6000841580610dc557506000886001811115610d7a57610d7a615838565b14610d925784610d8b61052b611dfd565b1115610dc5565b84610dc2610d9e611dfd565b6009016000610dab611dfd565b60030154815260200190815260200160002061243f565b10155b90508015610de357610dd988888888612481565b9094509250610df3565b610df188888888600061260e565b505b505094509492505050565b600080600084846000610e108261114f565b509094505050506001600160a01b03821615159050610e635760405162461bcd60e51b815260206004820152600f60248201526e13dc99195c881b9bdd08199bdd5b99608a1b604482015260640161050b565b806001600160a01b0316836001600160a01b031614610ec45760405162461bcd60e51b815260206004820152601760248201527f43616c6c6572206973206e6f7420746865206d616b6572000000000000000000604482015260640161050b565b610ecc6123f9565b610ed5336121b1565b610ef15760405162461bcd60e51b815260040161050b90615964565b6000610efb611dfd565b65ffffffffffff891660009081526007919091016020526040908190208151608081019092528054829060ff166001811115610f3957610f39615838565b6001811115610f4a57610f4a615838565b81526001820154602082015260028201546040820152600390910154606090910152905060008082516001811115610f8457610f84615838565b141561100557610fc982602001518a610f9b611dfd565b6008016000610fa8611dfd565b6003015481526020019081526020016000206128769092919063ffffffff16565b9050611000610fd6611dfd565b6001600160a01b038c1660009081526004919091016020526040902065ffffffffffff8b166128bd565b611075565b60018251600181111561101a5761101a615838565b14156110755761103e82602001518a611031611dfd565b6009016000610fa8611dfd565b905061107561104b611dfd565b6001600160a01b038c1660009081526005919091016020526040902065ffffffffffff8b166128bd565b8151602083015160405133927f2adb11f5af56ae860dd66d4eccd6af97042ba5cd7fa349ac6aad9c65f6a892db926110b1928e92918791615a7b565b60405180910390a28151602090920151919750955093505b5050509250925092565b600061054f610d9e611dfd565b60006110ea6112de565b15801561054f57506110fa611dfd565b60020154421015905090565b6000611110611dfd565b60010154905090565b6000806111246110d3565b9050600061113061051e565b9050600261113e8284615aa9565b6111489190615ac1565b9250505090565b6000806000806000806000611162611dfd565b65ffffffffffff891660009081526007919091016020526040908190208151608081019092528054829060ff1660018111156111a0576111a0615838565b60018111156111b1576111b1615838565b81526020016001820154815260200160028201548152602001600382015481525050905061120d6040805160c081018252600080825260208201819052918101829052606081018290526080810182905260a081019190915290565b60008251600181111561122257611222615838565b141561125d5761125682602001518a611239611dfd565b604080870151600090815260089290920160205290209190612a13565b905061128e565b61128b82602001518a61126e611dfd565b604080870151600090815260099290920160205290209190612a13565b90505b60608101516001600160a01b0316156112d25781600001518260200151836040015183606001518460a00151856080015197509750975097509750975050506112d5565b50505b91939550919395565b60006112e8611dfd565b60030154421015905090565b6112fd336121b1565b6113195760405162461bcd60e51b815260040161050b90615964565b61051c612aca565b606061132c82612b07565b5092915050565b60005462010000900460ff16158080156113585750600054600161010090910460ff16105b806113785750303b158015611378575060005460ff610100909104166001145b6113db5760405162461bcd60e51b815260206004820152602e60248201527f496e697469616c697a61626c653a20636f6e747261637420697320616c72656160448201526d191e481a5b9a5d1a585b1a5e995960921b606482015260840161050b565b6000805461ff0019166101001790558015611402576000805462ff00001916620100001790555b600061140c612e63565b6001600160a01b0316141561146f5760405162461bcd60e51b815260206004820152602360248201527f4d7573742062652063616c6c65642066726f6d20626561636f6e20636f6e74726044820152621858dd60ea1b606482015260840161050b565b61147885612e8b565b83611481611dfd565b600101558261148e611dfd565b600301558161149b611dfd565b600201556114a7610554565b80156114ee576000805462ff000019169055604051600181527f7f26b83ff96e1f2b6a682f133852f6798a09c465da95921460cefb38474024989060200160405180910390a15b5050505050565b60006114ff6112de565b6115435760405162461bcd60e51b815260206004820152601560248201527413585c9ad95d081a5cc81b9bdd081b585d1d5c9959605a1b604482015260640161050b565b61154c336121b1565b6115685760405162461bcd60e51b815260040161050b90615964565b611570611dfd565b6003015490508161157f611dfd565b6003015560408051838152602081018390527f974eb6a392aa4b5b16a285eae8ee9d9c75309faa295ffa928838efa6b00e438a910160405180910390a1919050565b60608060608367ffffffffffffffff8111156115df576115df615a65565b604051908082528060200260200182016040528015611608578160200160208202803683370190505b5092508367ffffffffffffffff81111561162457611624615a65565b60405190808252806020026020018201604052801561164d578160200160208202803683370190505b5091508367ffffffffffffffff81111561166957611669615a65565b604051908082528060200260200182016040528015611692578160200160208202803683370190505b50905060006116a2610d9e611dfd565b905080846000815181106116b8576116b861599b565b6020026020010181815250506116dd816116d0611dfd565b60090160006109e8611dfd565b836000815181106116f0576116f061599b565b60200260200101818152505061171581611708611dfd565b6009016000610a40611dfd565b826000815181106117285761172861599b565b602090810291909101015260015b8451811015610b53578161174957610b53565b61178282611755611dfd565b6009016000611762611dfd565b600301548152602001908152602001600020612f2090919063ffffffff16565b9150818582815181106117975761179761599b565b6020026020010181815250506117af826116d0611dfd565b8482815181106117c1576117c161599b565b6020026020010181815250506117d982611708611dfd565b8382815181106117eb576117eb61599b565b60209081029190910101528061180081615a4a565b915050611736565b6000611812611dfd565b60030154905090565b60008060008060008061182d8761301a565b9150915060005b8251811015611963576000611847611dfd565b600701600085848151811061185e5761185e61599b565b602002602001015165ffffffffffff1681526020019081526020016000206040518060800160405290816000820160009054906101000a900460ff1660018111156118ab576118ab615838565b60018111156118bc576118bc615838565b815260200160018201548152602001600282015481526020016003820154815250509050600061193a82602001518685815181106118fc576118fc61599b565b602002602001015161190c611dfd565b6009016000611919611dfd565b600301548152602001908152602001600020612a139092919063ffffffff16565b90508060a001518961194c9190615aa9565b98505050808061195b90615a4a565b915050611834565b5061196c611dfd565b6001600160a01b0388166000908152600691909101602052604081205493505b8151811015611aba57600061199f611dfd565b60070160008484815181106119b6576119b661599b565b602002602001015165ffffffffffff1681526020019081526020016000206040518060800160405290816000820160009054906101000a900460ff166001811115611a0357611a03615838565b6001811115611a1457611a14615838565b8152602001600182015481526020016002820154815260200160038201548152505090506000611a648260200151858581518110611a5457611a5461599b565b602002602001015161126e611dfd565b90508060a0015188611a769190615aa9565b975081602001516127108260a00151611a8f9190615ae3565b611a999190615ac1565b611aa39088615aa9565b965050508080611ab290615a4a565b91505061198c565b5050509193509193565b600080600080600080611ad687612b07565b91509150611ae2611dfd565b6001600160a01b0388166000908152600691909101602052604081205493505b8251811015611c10576000611b15611dfd565b6007016000858481518110611b2c57611b2c61599b565b602002602001015165ffffffffffff1681526020019081526020016000206040518060800160405290816000820160009054906101000a900460ff166001811115611b7957611b79615838565b6001811115611b8a57611b8a615838565b8152602001600182015481526020016002820154815260200160038201548152505090506000611be78260200151868581518110611bca57611bca61599b565b6020026020010151611bda611dfd565b6008016000611919611dfd565b90508060a0015189611bf99190615aa9565b985050508080611c0890615a4a565b915050611b02565b5060005b8151811015611aba576000611c27611dfd565b6007016000848481518110611c3e57611c3e61599b565b602002602001015165ffffffffffff1681526020019081526020016000206040518060800160405290816000820160009054906101000a900460ff166001811115611c8b57611c8b615838565b6001811115611c9c57611c9c615838565b81526001820154602082015260028201546040820152600390910154606090910152905084611ccd57806040015194505b6000611cf98260200151858581518110611ce957611ce961599b565b6020026020010151611239611dfd565b90508060a0015188611d0b9190615aa9565b975081602001516127108260a00151611d249190615ae3565b611d2e9190615ac1565b611d389088615aa9565b965050508080611d4790615a4a565b915050611c14565b606061132c8261301a565b611d966040518060c001604052806000801916815260200160008152602001600081526020016000815260200160008152602001600081525090565b6040518060c00160405280611da9611dfd565b600101548152602001611dba611dfd565b600301548152602001611dcb611dfd565b600201548152602001611ddc6110d3565b8152602001611de961051e565b8152602001611df6611119565b9052919050565b7ffc2836757f9146445fc75bc3c897a210ec004e4ee60fc8627ef5cbf2842b3d0a90565b6000806000806000611e3287612b07565b9150915081611e3f611dfd565b6004016000896001600160a01b03166001600160a01b031681526020019081526020016000209080519060200190611e78929190615590565b508151945060005b81518110156110c9576000611e93611dfd565b6007016000848481518110611eaa57611eaa61599b565b602002602001015165ffffffffffff1681526020019081526020016000206040518060800160405290816000820160009054906101000a900460ff166001811115611ef757611ef7615838565b6001811115611f0857611f08615838565b8152602001600182015481526020016002820154815260200160038201548152505090506000611f718260200151858581518110611f4857611f4861599b565b6020026020010151611f58611dfd565b60008d8152600891909101602052604090209190612a13565b9050611fb68260200151858581518110611f8d57611f8d61599b565b6020026020010151611f9d611dfd565b60008d8152600891909101602052604090209190613329565b611fc09088615aa9565b96508060a0015186611fd29190615aa9565b955050508080611fe190615a4a565b915050611e80565b6000806000806000611ffa8761301a565b9150915081612007611dfd565b6005016000896001600160a01b03166001600160a01b031681526020019081526020016000209080519060200190612040929190615590565b508151945060005b81518110156110c957600061205b611dfd565b60070160008484815181106120725761207261599b565b602002602001015165ffffffffffff1681526020019081526020016000206040518060800160405290816000820160009054906101000a900460ff1660018111156120bf576120bf615838565b60018111156120d0576120d0615838565b815260200160018201548152602001600282015481526020016003820154815250509050600061213982602001518585815181106121105761211061599b565b6020026020010151612120611dfd565b60008d8152600991909101602052604090209190612a13565b905061217e82602001518585815181106121555761215561599b565b6020026020010151612165611dfd565b60008d8152600991909101602052604090209190613329565b6121889088615aa9565b96508060a001518661219a9190615aa9565b9550505080806121a990615a4a565b915050612048565b6000806121bc610867565b905060005b8151811015612221576121ec8282815181106121df576121df61599b565b6020026020010151613366565b6001600160a01b0316846001600160a01b0316141561220f575060019392505050565b8061221981615a4a565b9150506121c1565b5060009392505050565b6122336133f7565b6000805460ff191690557f5db9ee0a495bf2e6ff9c91a7834c1ba4fdd244a5e8aa4e537bd38aeae4b073aa335b6040516001600160a01b03909116815260200160405180910390a1565b80548061228c57506000919050565b5b6000818152600180840160205260409091200154156122bf57600090815260018083016020526040909120015461228d565b919050565b60008181526001830160205260409020600501545b92915050565b6000908152600191909101602052604090206004015490565b6000816123685760405162461bcd60e51b815260206004820152603860248201527f4f7264657253746174697374696373547265652834303129202d205374617274604482015277696e672076616c75652063616e6e6f74206265207a65726f60401b606482015260840161050b565b6000828152600184016020526040902060020154156123a75760008281526001840160205260409020600201546123a0908490613440565b90506122d9565b5060008181526001830160205260409020545b80158015906123db5750600081815260018401602052604090206002015482145b156122d95760008181526001840160205260409020549091506123ba565b60005460ff161561051c5760405162461bcd60e51b815260206004820152601060248201526f14185d5cd8589b194e881c185d5cd95960821b604482015260640161050b565b80548061244e57506000919050565b5b6000818152600183016020526040902060020154156122bf57600090815260018201602052604090206002015461244f565b60008061248c615645565b60018760018111156124a0576124a0615838565b14156124ed576124e185856124b3611dfd565b60080160006124c0611dfd565b60030154815260200190815260200160002061347e9092919063ffffffff16565b9194509250905061254a565b600087600181111561250157612501615838565b141561254a576125428585612514611dfd565b6009016000612521611dfd565b6003015481526020019081526020016000206137c29092919063ffffffff16565b919450925090505b6001600160a01b0386167fd0e55267b11614203a79e6272e6b08f2e55625bf13ffa0217a4f7a67cb4d126c886125808589615b02565b87876040516125929493929190615b19565b60405180910390a26040810151156125e2576125e060018860018111156125bb576125bb615838565b146125c75760016125ca565b60005b826020015183604001518460600151600161260e565b505b6000821180156125f157508315155b1561260457610df387878487600061260e565b5094509492505050565b6000612618613abd565b9050604051806080016040528087600181111561263757612637615838565b815260200184815260200161264a611dfd565b6003015481526020014281525061265f611dfd565b65ffffffffffff831660009081526007919091016020526040902081518154829060ff19166001838181111561269757612697615838565b0217905550602082015160018201556040820151600282015560609091015160039091015560008660018111156126d0576126d0615838565b14156127795761271783828787866126e6611dfd565b60080160006126f3611dfd565b600301548152602001908152602001600020613b169095949392919063ffffffff16565b61271f611dfd565b6001600160a01b03861660009081526004919091016020908152604082208054600181018255908352912060058083049091018054919092066006026101000a65ffffffffffff818102199092169184160217905561280c565b600186600181111561278d5761278d615838565b141561280c576127b083828787866127a3611dfd565b60090160006126f3611dfd565b6127b8611dfd565b6001600160a01b0386166000908152600591820160209081526040822080546001810182559083529120828204018054929091066006026101000a65ffffffffffff81810219909316928416029190911790555b846001600160a01b03167fac5ffddc4f091e27e9695447257d927b0bc7041974217b366397f4eafdf81da68288612841611dfd565b6001015461284d611dfd565b60030154898960405161286596959493929190615b42565b60405180910390a295945050505050565b6000612883848484613b93565b61289f5760405162461bcd60e51b815260040161050b90615b81565b6128aa848484613bb1565b90506128b68484613e1d565b9392505050565b81546000906128ce90600190615b02565b905060005b818111612a0d57828482815481106128ed576128ed61599b565b90600052602060002090600591828204019190066006029054906101000a900465ffffffffffff1665ffffffffffff1614156129fb578181146129b457600084838154811061293e5761293e61599b565b90600052602060002090600591828204019190066006029054906101000a900465ffffffffffff1690508085838154811061297b5761297b61599b565b90600052602060002090600591828204019190066006026101000a81548165ffffffffffff021916908365ffffffffffff160217905550505b838054806129c4576129c4615bd1565b60019003818190600052602060002090600591828204019190066006026101000a81549065ffffffffffff02191690559055612a0d565b80612a0581615a4a565b9150506128d3565b50505050565b6040805160c081018252600080825260208201819052918101829052606081018290526080810182905260a081019190915250600091825260019283016020908152604080842065ffffffffffff9384168552600601825292839020835160c08101855281548085168252600160301b8104851693820193909352600160601b90920490921692810192909252918201546001600160a01b031660608201526002820154608082015260039091015460a082015290565b612ad26123f9565b6000805460ff191660011790557f62e78cea01bee320cd4e420270b5ea74000d11b0c9f74754ebdbfc544b05a2586122603390565b6060806000806000612b17611dfd565b60030154612b23611dfd565b6001600160a01b038816600090815260069190910160205260409020541415905080612b7357612b51611dfd565b6001600160a01b03871660009081526004919091016020526040902054612b76565b60005b67ffffffffffffffff811115612b8e57612b8e615a65565b604051908082528060200260200182016040528015612bb7578160200160208202803683370190505b509450612bc2611dfd565b6001600160a01b0387166000908152600491909101602052604090205467ffffffffffffffff811115612bf757612bf7615a65565b604051908082528060200260200182016040528015612c20578160200160208202803683370190505b50935060005b612c2e611dfd565b6001600160a01b03881660009081526004919091016020526040902054811015612e5a576000612c5c611dfd565b6001600160a01b038916600090815260049190910160205260409020805483908110612c8a57612c8a61599b565b90600052602060002090600591828204019190066006029054906101000a900465ffffffffffff1690506000612cbe611dfd565b65ffffffffffff831660009081526007919091016020526040908190208151608081019092528054829060ff166001811115612cfc57612cfc615838565b6001811115612d0d57612d0d615838565b815260200160018201548152602001600282015481526020016003820154815250509050612d93816020015183612d42611dfd565b6008016000612d4f611dfd565b60060160008f6001600160a01b03166001600160a01b03168152602001908152602001600020548152602001908152602001600020613b939092919063ffffffff16565b612df057612da2600186615aa9565b94508187612db08886615b02565b81518110612dc057612dc061599b565b602002602001019065ffffffffffff16908165ffffffffffff168152505083612deb57600188510388525b612e45565b83612e3d57612e00600187615aa9565b95508188612e0e8786615b02565b81518110612e1e57612e1e61599b565b602002602001019065ffffffffffff16908165ffffffffffff16815250505b600187510387525b50508080612e5290615a4a565b915050612c26565b50505050915091565b60007fa3f0ad74e5423aebfd80d3ef4346578335a9a72aeaee59ff6cb3582b35133d50610477565b600080516020615c7e833981519152546001600160a01b031615612ef15760405162461bcd60e51b815260206004820152601b60248201527f7265736f6c766572207265676973746572656420616c72656164790000000000604482015260640161050b565b600080516020615c7e83398151915280546001600160a01b0319166001600160a01b0392909216919091179055565b600081612f905760405162461bcd60e51b815260206004820152603860248201527f4f7264657253746174697374696373547265652834303229202d205374617274604482015277696e672076616c75652063616e6e6f74206265207a65726f60401b606482015260840161050b565b600082815260018085016020526040909120015415612fc85760008281526001808501602052604090912001546123a09084906140da565b5060008181526001830160205260409020545b8015801590612ffc5750600081815260018085016020526040909120015482145b156122d9576000818152600184016020526040902054909150612fdb565b606080600080600061302a611dfd565b60030154613036611dfd565b6001600160a01b03881660009081526006919091016020526040902054141590508061308657613064611dfd565b6001600160a01b03871660009081526005919091016020526040902054613089565b60005b67ffffffffffffffff8111156130a1576130a1615a65565b6040519080825280602002602001820160405280156130ca578160200160208202803683370190505b5094506130d5611dfd565b6001600160a01b0387166000908152600591909101602052604090205467ffffffffffffffff81111561310a5761310a615a65565b604051908082528060200260200182016040528015613133578160200160208202803683370190505b50935060005b613141611dfd565b6001600160a01b03881660009081526005919091016020526040902054811015612e5a57600061316f611dfd565b6001600160a01b03891660009081526005919091016020526040902080548390811061319d5761319d61599b565b90600052602060002090600591828204019190066006029054906101000a900465ffffffffffff16905060006131d1611dfd565b65ffffffffffff831660009081526007919091016020526040908190208151608081019092528054829060ff16600181111561320f5761320f615838565b600181111561322057613220615838565b815260200160018201548152602001600282015481526020016003820154815250509050613262816020015183613255611dfd565b6009016000612d4f611dfd565b6132bf57613271600186615aa9565b9450818761327f8886615b02565b8151811061328f5761328f61599b565b602002602001019065ffffffffffff16908165ffffffffffff1681525050836132ba57600188510388525b613314565b8361330c576132cf600187615aa9565b955081886132dd8786615b02565b815181106132ed576132ed61599b565b602002602001019065ffffffffffff16908165ffffffffffff16815250505b600187510387525b5050808061332190615a4a565b915050613139565b6000828152600184016020908152604080832065ffffffffffff8516845260060190915281206003015461335e908490614111565b949350505050565b60008181527f4abde63c3e81aefa5764b017968bc473e83e093d7e1a10247d19e0a3e41240196020908152604080832054815170026b4b9b9b4b7339030b2323932b9b99d1607d1b9381019390935260318084018690528251808503909101815260519093019091526001600160a01b0316908161132c5760405162461bcd60e51b815260040161050b9190615be7565b60005460ff1661051c5760405162461bcd60e51b815260206004820152601460248201527314185d5cd8589b194e881b9bdd081c185d5cd95960621b604482015260640161050b565b60005b600082815260018085016020526040909120015415613478576000918252600180840160205260409092209091015490613443565b50919050565b600080613489615645565b846134a65760405162461bcd60e51b815260040161050b90615bfa565b6000806134b28861227d565b905060006134bf8961243f565b905060008088841115806134d1575088155b6135185760405162461bcd60e51b8152602060048201526018602482015277496e73756666696369656e74206c696d69742076616c756560401b604482015260640161050b565b898110801561352657508315155b801561353a575088158061353a5750888411155b156135b257600084815260018c016020526040902060050154915061355f8282615aa9565b905083945060008a821161357457600061357e565b61357e8b83615b02565b6135889084615b02565b90506135948582614111565b61359e908a615aa9565b98506135aa8c866122f8565b945050613518565b89811015806135c057508885145b1561367257898111156135f75784935060006135dc8b83615b02565b6135e69084615b02565b90506135f38c868361412a565b9650505b60008481526001808d016020526040822090810191909155545b8015613670578481111561365a57600085815260018d01602052604090205481146136565760008581526001808e016020526040808320849055838352909120018590555b8094505b600090815260018c016020526040902054613611565b505b808a111561368757613684818b615b02565b96505b84831480156136a75750600083815260018c016020526040902060050154155b156136b55760008b556136e9565b8a548511806136cf57508a54851480156136cf5750808a10155b156136e957838b55600084815260018c0160205260408120555b8a5460009081526001808d016020526040909120015415801561372057508a54600090815260018c01602052604090206002015415155b15613778578a5460009081526001808d01602052604080832060020154835290912001541561376a578a54600090815260018c01602052604090206002015461376a908c906143ca565b6137788b8c6000015461449f565b8a54600090815260018c01602052604090206003015460ff16156137b4578a54600090815260018c0160205260409020600301805460ff191690555b505050505093509350939050565b6000806137cd615645565b846137ea5760405162461bcd60e51b815260040161050b90615bfa565b6000806137f68861243f565b905060006138038961227d565b90506000808884101580613815575088155b61385c5760405162461bcd60e51b8152602060048201526018602482015277496e73756666696369656e74206c696d69742076616c756560401b604482015260640161050b565b898110801561386a57508315155b801561387e575088158061387e5750888410155b156138f657600084815260018c01602052604090206005015491506138a38282615aa9565b905083945060008a82116138b85760006138c2565b6138c28b83615b02565b6138cc9084615b02565b90506138d88582614111565b6138e2908a615aa9565b98506138ee8c86612f20565b94505061385c565b898110158061390457508885145b156139b6578981111561393b5784935060006139208b83615b02565b61392a9084615b02565b90506139378c868361412a565b9650505b600084815260018c01602052604081206002810191909155545b80156139b4578481101561399e57600085815260018d016020526040902054811461399a57600085815260018d01602052604080822083905582825290206002018590555b8094505b600090815260018c016020526040902054613955565b505b808a11156139cb576139c8818b615b02565b96505b84831480156139eb5750600083815260018c016020526040902060050154155b156139f95760008b55613a2d565b8a54851080613a1357508a5485148015613a135750808a10155b15613a2d57838b55600084815260018c0160205260408120555b8a54600090815260018c016020526040902060020154158015613a6457508a5460009081526001808d016020526040909120015415155b15613778578a5460009081526001808d01602052604080832090910154825290206002015415613aaf578a5460009081526001808d0160205260409091200154613aaf908c9061449f565b6137788b8c600001546143ca565b6000613ac7611dfd565b805465ffffffffffff16906000613add83615c57565b91906101000a81548165ffffffffffff021916908365ffffffffffff16021790555050613b08611dfd565b5465ffffffffffff16919050565b60008211613b5c5760405162461bcd60e51b8152602060048201526013602482015272125b9cdd59999a58da595b9d08185b5bdd5b9d606a1b604482015260640161050b565b613b668686614577565b8015613b7e57613b798686868686614740565b613b8b565b613b8b86868686866147b9565b505050505050565b6000613ba084848461482a565b801561335e575061335e8484614973565b6000613bbe848484613b93565b613bda5760405162461bcd60e51b815260040161050b90615b81565b50600082815260018085016020908152604080842065ffffffffffff80871680875260068301855295839020835160c08101855281548084168252600160301b8104841696820196909652600160601b909504821693850193909352938201546001600160a01b031660608401526002820154608084015260039182015460a084018190529181015491949093610100909204909116148015613c925750600382015465ffffffffffff858116600160381b90920416145b15613cb457613ca386866000614a22565b613caf86866000614a5a565b613d86565b600382015465ffffffffffff858116610100909204161415613d1257613cdf86868360200151614a22565b60208082015165ffffffffffff1660009081526006840190915260409020805465ffffffffffff60601b19169055613d86565b600382015465ffffffffffff858116600160381b909204161415613d7257613d3f86868360400151614a5a565b60408082015165ffffffffffff166000908152600684016020522080546bffffffffffff00000000000019169055613d86565b613d86868683604001518460200151614a9a565b805165ffffffffffff1660009081526006830160205260408120805471ffffffffffffffffffffffffffffffffffff19168155600180820180546001600160a01b031916905560028201839055600390910182905560048401805491929091613df0908490615b02565b909155505060a0810151600583018054600090613e0e908490615b02565b90915550929695505050505050565b80613e905760405162461bcd60e51b815260206004820152603960248201527f4f7264657253746174697374696373547265652834303729202d2056616c756560448201527f20746f2064656c6574652063616e6e6f74206265207a65726f00000000000000606482015260840161050b565b60008181526001830160205260408120600481015490919081906114ee5760008481526001808701602052604090912001541580613edf57506000848152600186016020526040902060020154155b15613eeb575082613f33565b5060008381526001850160205260409020600201545b600081815260018087016020526040909120015415613f33576000908152600180860160205260409091200154613f01565b600081815260018087016020526040909120015415613f675760008181526001808701602052604090912001549150613f7e565b600081815260018601602052604090206002015491505b60008181526001860160205260408082205484835291208190558015613fef576000818152600180880160205260409091200154821415613fd45760008181526001808801602052604090912001839055613ff3565b60008181526001870160205260409020600201839055613ff3565b8286555b600082815260018701602052604090206003015460ff161585831461407d5761401d878488614b0f565b60008681526001888101602052604080832080830154878552828520938401819055845281842087905560028082015490840181905584529083208690556003908101549286905201805460ff191660ff90921615159190911790559194915b801561408d5761408d8785614b86565b50506000818152600180870160205260408220828155908101829055600281018290556003810180546cffffffffffffffffffffffffff1916905560048101829055600501555050505050565b60005b60008281526001840160205260409020600201541561347857600091825260018301602052604090912060020154906140dd565b60008261412061271084615ae3565b6128b69190615ac1565b614132615645565b6000838152600185016020526040902060058101548311156141bc5760405162461bcd60e51b815260206004820152603960248201527f4f7264657253746174697374696373547265652834313029202d20416d6f756e60448201527f7420746f2066696c6c20697320696e73756666696369656e7400000000000000606482015260840161050b565b60038082015465ffffffffffff610100909104811660008181526006850160209081526040808320815160c08101835281548088168252600160301b8104881694820194909452600160601b9093049095169082015260018401546001600160a01b0316606082015260028401546080820152929093015460a0830152859291905b65ffffffffffff81161580159061425457508315155b156143595765ffffffffffff8082166000908152600687016020908152604091829020825160c08101845281548086168252600160301b8104861693820193909352600160601b9092049093169181019190915260018201546001600160a01b031660608201526002820154608082015260039091015460a0820181905290925084106142f85760a08201516142ea9085615b02565b935081602001519050614347565b6040518060800160405280836000015165ffffffffffff16815260200183606001516001600160a01b03168152602001858460a001516143389190615b02565b81526020018990529550600093505b8261435181615a4a565b93505061423e565b61436889898460000151614fa0565b506040860151156143be57600088815260018a0160209081526040808320855165ffffffffffff16845260060190915280822090880151600382018054929391929091906143b7908490615b02565b9091555050505b50505050509392505050565b6000818152600180840160205260408083209182018054925483855291842060020154938590528390559091801561441057600081815260018601602052604090208490555b60008381526001860160205260409020829055816144305782855561447d565b6000828152600186016020526040902060020154841415614466576000828152600186016020526040902060020183905561447d565b600082815260018087016020526040909120018390555b5050600081815260019093016020526040808420600201839055918352912055565b6000818152600180840160205260408083206002810180549154828652928520909301549385905291839055909180156144e757600081815260018601602052604090208490555b600083815260018601602052604090208290558161450757828555614554565b600082815260018087016020526040909120015484141561453d5760008281526001808701602052604090912001839055614554565b600082815260018601602052604090206002018390555b505060008181526001938401602052604080822090940183905591825291902055565b806145ea5760405162461bcd60e51b815260206004820152603960248201527f4f7264657253746174697374696373547265652834303529202d2056616c756560448201527f20746f20696e736572742063616e6e6f74206265207a65726f00000000000000606482015260840161050b565b81546000905b801561464e578091508083101561461a5760009081526001808501602052604090912001546145f0565b8083111561463b5760009081526001840160205260409020600201546145f0565b808314156146495750505050565b6145f0565b600083815260018501602052604090208454158061469d57506000838152600180870160205260409091200154841480159061469d575060008381526001860160205260409020600201548414155b156146cb57600060048201819055600582018190556146bf9086908690614a22565b6146cb85856000614a5a565b82815560006001808301829055600283019190915560038201805460ff19169091179055826146fc57838555614736565b8284101561471f5760008381526001808701602052604090912001849055614736565b600083815260018601602052604090206002018490555b6114ee8585615186565b600084815260018601602052604081209061475e87878787876153f1565b90506147828787838560030160019054906101000a900465ffffffffffff16614a9a565b61478d878783614a22565b6003820154600160381b900465ffffffffffff166147b0576147b0878783614a5a565b50505050505050565b600084815260018601602052604090206003810154610100900465ffffffffffff166147ec57613b798686868686614740565b60006147fb87878787876153f1565b905061481f87878460030160079054906101000a900465ffffffffffff1684614a9a565b6147b0878783614a5a565b600082815260018085016020908152604080842065ffffffffffff808716808752600683018552838720845160c0810186528154808516808352600160301b8204861698830198909852600160601b900490931694830194909452948301546001600160a01b031660608201526002830154608082015260039092015460a083015285939092146148c157600093505050506128b6565b5b604081015165ffffffffffff16156149545760409081015165ffffffffffff808216600090815260068501602090815290849020845160c08101865281548085168252600160301b8104851693820193909352600160601b9092049092169381019390935260018101546001600160a01b03166060840152600281015460808401526003015460a083015292506148c2565b5060030154610100900465ffffffffffff908116911614949350505050565b600081614982575060006122d9565b8254821415614993575060016122d9565b815b60008181526001850160205260409020541561222157600081815260018086016020526040808320548084529220015482148015906149e7575060008181526001860160205260409020600201548214155b156149f7576000925050506122d9565b8454811415614a0b576001925050506122d9565b506000908152600184016020526040902054614995565b6000918252600190920160205260409020600301805465ffffffffffff9092166101000266ffffffffffff0019909216919091179055565b6000918252600190920160205260409020600301805465ffffffffffff909216600160381b026cffffffffffff0000000000000019909216919091179055565b60009283526001939093016020908152604080842065ffffffffffff938416808652600690910190925280842080546bffffffffffff0000000000001916600160301b9490961693840295909517909455908252919020805465ffffffffffff60601b1916600160601b909202919091179055565b600081815260018401602052604080822054848352912081905580614b3657828455612a0d565b6000818152600180860160205260409091200154821415614b6c5760008181526001808601602052604090912001839055612a0d565b600090815260019390930160205250604090912060020155565b60005b82548214801590614bae5750600082815260018401602052604090206003015460ff16155b15614f81576000828152600180850160205260408083205480845292200154831415614daa5760008181526001850160205260408082206002015480835291206003015490925060ff1615614c52576000828152600180860160205260408083206003908101805460ff19908116909155858552919093209092018054909216179055614c3b848261449f565b600081815260018501602052604090206002015491505b60008281526001808601602052604080832090910154825290206003015460ff16158015614c9d5750600082815260018501602052604080822060020154825290206003015460ff16155b15614cca57600082815260018581016020526040909120600301805460ff19169091179055915081614f7b565b600082815260018501602052604080822060020154825290206003015460ff16614d47576000828152600180860160205260408083208083015484529083206003908101805460ff1990811690915593869052018054909216179055614d3084836143ca565b600081815260018501602052604090206002015491505b600081815260018501602052604080822060039081018054868552838520808401805460ff909316151560ff199384161790558254821690925560029091015484529190922090910180549091169055614da1848261449f565b83549250614f7b565b6000818152600180860160205260408083209091015480835291206003015490925060ff1615614e29576000828152600180860160205260408083206003908101805460ff19908116909155858552919093209092018054909216179055614e1284826143ca565b600081815260018086016020526040909120015491505b600082815260018501602052604080822060020154825290206003015460ff16158015614e74575060008281526001808601602052604080832090910154825290206003015460ff16155b15614ea157600082815260018581016020526040909120600301805460ff19169091179055915081614f7b565b60008281526001808601602052604080832090910154825290206003015460ff16614f2057600082815260018086016020526040808320600281015484529083206003908101805460ff1990811690915593869052018054909216179055614f09848361449f565b600081815260018086016020526040909120015491505b60008181526001808601602052604080832060039081018054878652838620808401805460ff909316151560ff19938416179055825482169092559301548452922090910180549091169055614f7684826143ca565b835492505b50614b89565b506000908152600190910160205260409020600301805460ff19169055565b6000614fad848484613b93565b614fc95760405162461bcd60e51b815260040161050b90615b81565b50600082815260018085016020908152604080842065ffffffffffff808716865260068201808552838720845160c08101865281548085168252600160301b8104851682890152600160601b9004841681870152818801546001600160a01b031660608201526002820154608082015260039182015460a08201819052828601546101009004909416808a529290965293909620909201549194909390915b8665ffffffffffff1683146150cc57600092835260068501602052604090922054600160301b900465ffffffffffff1691816150a381615a4a565b60008581526006880160205260409020600301549093506150c5915082615aa9565b9050615068565b600385015465ffffffffffff888116600160381b909204161415615107576150f689896000614a22565b61510289896000614a5a565b615145565b61511689898660200151614a22565b60208085015165ffffffffffff1660009081526006870190915260409020805465ffffffffffff60601b191690555b818560040160008282546151599190615b02565b92505081905550808560050160008282546151749190615b02565b90915550959998505050505050505050565b60005b825482148015906151b35750600082815260018401602052604080822054825290206003015460ff165b156153cf5760008281526001808501602052604080832054808452818420548452922001548114156152d65760008181526001850160205260408082205482528082206002015480835291206003015490925060ff161561525c576000818152600180860160205260408083206003808201805460ff199081169091558786528386208201805482169055825486529285200180549092169092179055908290525492506153c9565b600081815260018501602052604090206002015483141561528457809250615284848461449f565b50600082815260018085016020526040808320548084528184206003808201805460ff199081169091558254875293862001805490931690931790915591829052546152d19085906143ca565b6153c9565b6000818152600180860160205260408083205483528083209091015480835291206003015490925060ff1615615354576000818152600180860160205260408083206003808201805460ff199081169091558786528386208201805482169055825486529285200180549092169092179055908290525492506153c9565b600081815260018086016020526040909120015483141561537c5780925061537c84846143ca565b50600082815260018085016020526040808320548084528184206003808201805460ff199081169091558254875293862001805490931690931790915591829052546153c990859061449f565b50615189565b505080546000908152600190910160205260409020600301805460ff19169055565b6000848152600186016020908152604080832065ffffffffffff8716845260068101909252822060020154156154845760405162461bcd60e51b815260206004820152603260248201527f4f7264657253746174697374696373547265652834303929202d204f726465726044820152711034b21030b63932b0b23c9032bc34b9ba1760711b606482015260840161050b565b60018160040160008282546154999190615aa9565b92505081905550828160050160008282546154b49190615aa9565b90915550506040805160c08101825265ffffffffffff808816808352600060208085018281528587018381526001600160a01b03808d16606089019081524260808a0190815260a08a018e81529787526006909b019094529790932095518654915193518616600160601b0265ffffffffffff60601b19948716600160301b026bffffffffffffffffffffffff199093169682169690961791909117929092169390931784559151600184018054919095166001600160a01b031990911617909355925160028201559051600390910155905095945050505050565b828054828255906000526020600020906004016005900481019282156156355791602002820160005b8382111561560157835183826101000a81548165ffffffffffff021916908365ffffffffffff16021790555092602001926006016020816005010492830192600103026155b9565b80156156335782816101000a81549065ffffffffffff0219169055600601602081600501049283019260010302615601565b505b5061564192915061567e565b5090565b6040518060800160405280600065ffffffffffff16815260200160006001600160a01b0316815260200160008152602001600081525090565b5b80821115615641576000815560010161567f565b6001600160a01b03811681146156a857600080fd5b50565b6000602082840312156156bd57600080fd5b81356128b681615693565b6020808252825182820181905260009190848201906040850190845b81811015615700578351835292840192918401916001016156e4565b50909695505050505050565b60006020828403121561571e57600080fd5b5035919050565b600081518084526020808501945080840160005b8381101561575557815187529582019590820190600101615739565b509495945050505050565b6060815260006157736060830186615725565b82810360208401526157858186615725565b905082810360408401526157998185615725565b9695505050505050565b600080600080608085870312156157b957600080fd5b8435600281106157c857600080fd5b935060208501356157d881615693565b93969395505050506040820135916060013590565b803565ffffffffffff811681146122bf57600080fd5b6000806040838503121561581657600080fd5b823561582181615693565b915061582f602084016157ed565b90509250929050565b634e487b7160e01b600052602160045260246000fd5b6002811061586c57634e487b7160e01b600052602160045260246000fd5b9052565b6060810161587e828661584e565b602082019390935260400152919050565b6000602082840312156158a157600080fd5b6128b6826157ed565b60c081016158b8828961584e565b602082019690965260408101949094526001600160a01b03929092166060840152608083015260a090910152919050565b6020808252825182820181905260009190848201906040850190845b8181101561570057835165ffffffffffff1683529284019291840191600101615905565b6000806000806080858703121561593f57600080fd5b843561594a81615693565b966020860135965060408601359560600135945092505050565b60208082526017908201527f4f6e6c7920416363657074656420436f6e747261637473000000000000000000604082015260600190565b634e487b7160e01b600052603260045260246000fd5b6000815180845260005b818110156159d7576020818501810151868301820152016159bb565b818111156159e9576000602083870101525b50601f01601f19169290920160200192915050565b82815260406020820152600061335e60408301846159b1565b600060208284031215615a2957600080fd5b81516128b681615693565b634e487b7160e01b600052601160045260246000fd5b6000600019821415615a5e57615a5e615a34565b5060010190565b634e487b7160e01b600052604160045260246000fd5b65ffffffffffff8516815260808101615a97602083018661584e565b60408201939093526060015292915050565b60008219821115615abc57615abc615a34565b500190565b600082615ade57634e487b7160e01b600052601260045260246000fd5b500490565b6000816000190483118215151615615afd57615afd615a34565b500290565b600082821015615b1457615b14615a34565b500390565b60808101615b27828761584e565b84602083015283604083015282606083015295945050505050565b65ffffffffffff8716815260c08101615b5e602083018861584e565b8560408301528460608301528360808301528260a0830152979650505050505050565b60208082526030908201527f4f7264657253746174697374696373547265652834313029202d204f7264657260408201526f103237b2b9903737ba1032bc34b9ba1760811b606082015260800190565b634e487b7160e01b600052603160045260246000fd5b6020815260006128b660208301846159b1565b60208082526038908201527f4f7264657253746174697374696373547265652834303829202d20416d6f756e60408201527f7420746f2064726f702063616e6e6f74206265207a65726f0000000000000000606082015260800190565b600065ffffffffffff80831681811415615c7357615c73615a34565b600101939250505056fe4abde63c3e81aefa5764b017968bc473e83e093d7e1a10247d19e0a3e4124018a264697066735822122084cbe91b311808bfcf03b5c3e1d9845330380d95d744eaf64a4b27d2fe7611ed64736f6c63430008090033",
  "devdoc": {
    "details": "The market orders is stored in structured red-black trees and doubly linked lists in each node.",
    "kind": "dev",
    "methods": {
      "acceptedContracts()": {
        "details": "The contact name listed in this method is also needed to be listed `requiredContracts` method."
      },
      "cancelOrder(address,uint48)": {
        "params": {
          "_orderId": "Market order id",
          "_user": "User address"
        }
      },
      "cleanOrders(address)": {
        "details": "The order list per user is not updated in real-time when an order is filled. This function removes the filled order from that order list per user to reduce gas costs for calculating if the collateral is enough or not.",
        "params": {
          "_user": "User address"
        }
      },
      "createOrder(uint8,address,uint256,uint256)": {
        "params": {
          "_amount": "Amount of funds the maker wants to borrow/lend",
          "_side": "Order position type, Borrow or Lend",
          "_unitPrice": "Amount of unit price taker wish to borrow/lend",
          "_user": "User's address"
        }
      },
      "getActiveBorrowOrderIds(address)": {
        "params": {
          "_user": "User's address"
        }
      },
      "getActiveLendOrderIds(address)": {
        "params": {
          "_user": "User's address"
        }
      },
      "getBorrowOrderBook(uint256)": {
        "params": {
          "_limit": "Max limit to get unit prices"
        },
        "returns": {
          "unitPrices": "The array of borrow unit prices"
        }
      },
      "getBorrowUnitPrice()": {
        "returns": {
          "_0": "The highest borrow price per future value"
        }
      },
      "getCurrency()": {
        "returns": {
          "currency": "The market currency"
        }
      },
      "getLendOrderBook(uint256)": {
        "params": {
          "_limit": "Max limit to get unit prices"
        },
        "returns": {
          "unitPrices": "The array of lending unit prices"
        }
      },
      "getLendUnitPrice()": {
        "returns": {
          "_0": "The lowest lend price per future value"
        }
      },
      "getMarket()": {
        "returns": {
          "market": "The market data"
        }
      },
      "getMaturity()": {
        "returns": {
          "maturity": "The market maturity"
        }
      },
      "getMidUnitPrice()": {
        "returns": {
          "_0": "The mid price per future value"
        }
      },
      "getOrder(uint48)": {
        "params": {
          "_orderId": "The market order id"
        },
        "returns": {
          "amount": "Order amount",
          "maker": "The order maker",
          "maturity": "The maturity of the selected order",
          "side": "Order position type, Borrow or Lend",
          "timestamp": "Timestamp when the order was created",
          "unitPrice": "Amount of interest unit price"
        }
      },
      "getTotalAmountFromBorrowOrders(address)": {
        "params": {
          "_user": "User's address"
        },
        "returns": {
          "activeAmount": "The total amount of active order on the order book",
          "inactiveAmount": "The total amount of inactive orders filled on the order book",
          "inactiveFutureValue": "The total future value amount of inactive orders filled on the order book",
          "maturity": "The maturity of market that orders were placed."
        }
      },
      "getTotalAmountFromLendOrders(address)": {
        "params": {
          "_user": "User's address"
        },
        "returns": {
          "activeAmount": "The total amount of active order on the order book",
          "inactiveAmount": "The total amount of inactive orders filled on the order book",
          "inactiveFutureValue": "The total future value amount of inactive orders filled on the order book",
          "maturity": "The maturity of market that orders were placed."
        }
      },
      "initialize(address,bytes32,uint256,uint256)": {
        "details": "Function is invoked by the proxy contract when the contract is added to the ProxyController.",
        "params": {
          "_ccy": "The main currency for the order book",
          "_genesisDate": "The initial date when the first market open",
          "_maturity": "The initial maturity of the market",
          "_resolver": "The address of the Address Resolver contract"
        }
      },
      "isMatured()": {
        "returns": {
          "_0": "The boolean if the market is matured or not"
        }
      },
      "isOpened()": {
        "returns": {
          "_0": "The boolean if the market is opened or not"
        }
      },
      "openMarket(uint256)": {
        "params": {
          "_maturity": "The new maturity"
        }
      },
      "paused()": {
        "details": "Returns true if the contract is paused, and false otherwise."
      },
      "requiredContracts()": {
        "details": "The contract name list is in `./libraries/Contracts.sol`."
      }
    },
    "version": 1
  },
  "userdoc": {
    "kind": "user",
    "methods": {
      "acceptedContracts()": {
        "notice": "Returns contract names that can call this contract."
      },
      "cancelOrder(address,uint48)": {
        "notice": "Cancels the order."
      },
      "cleanOrders(address)": {
        "notice": "Cleans own orders to remove order ids that are already filled on the order book."
      },
      "createOrder(uint8,address,uint256,uint256)": {
        "notice": "Creates the order. Takes the order if the order is matched, and places new order if not match it."
      },
      "getActiveBorrowOrderIds(address)": {
        "notice": "Gets the order ids of active borrowing order on the order book"
      },
      "getActiveLendOrderIds(address)": {
        "notice": "Gets the order ids of active lending order on the order book"
      },
      "getBorrowOrderBook(uint256)": {
        "notice": "Gets the order book of borrow."
      },
      "getBorrowUnitPrice()": {
        "notice": "Gets the highest borrow price per future value."
      },
      "getCurrency()": {
        "notice": "Gets the market currency."
      },
      "getLendOrderBook(uint256)": {
        "notice": "Gets the order book of lend."
      },
      "getLendUnitPrice()": {
        "notice": "Gets the lowest lend price per future value."
      },
      "getMarket()": {
        "notice": "Gets the market data."
      },
      "getMaturity()": {
        "notice": "Gets the current market maturity."
      },
      "getMidUnitPrice()": {
        "notice": "Gets the mid price per future value."
      },
      "getOrder(uint48)": {
        "notice": "Gets the market order from the order book."
      },
      "getTotalAmountFromBorrowOrders(address)": {
        "notice": "Calculates and gets the active and inactive amounts from the user orders of borrowing deals."
      },
      "getTotalAmountFromLendOrders(address)": {
        "notice": "Calculates and gets the active and inactive amounts from the user orders of lending deals."
      },
      "initialize(address,bytes32,uint256,uint256)": {
        "notice": "Initializes the contract."
      },
      "isMatured()": {
        "notice": "Gets if the market is matured."
      },
      "isOpened()": {
        "notice": "Gets if the market is opened."
      },
      "openMarket(uint256)": {
        "notice": "Opens market"
      },
      "pauseMarket()": {
        "notice": "Pauses the lending market."
      },
      "requiredContracts()": {
        "notice": "Returns the contract names used in this contract."
      },
      "unpauseMarket()": {
        "notice": "Unpauses the lending market."
      }
    },
    "notice": "Implements the module that allows lending market participants to create/cancel market orders, and also provides a future value calculation module. For updates, this contract is basically called from `LendingMarketController.sol`instead of being called \\ directly by the user.",
    "version": 1
  },
  "storageLayout": {
    "storage": [
      {
        "astId": 952,
        "contract": "contracts/LendingMarket.sol:LendingMarket",
        "label": "_paused",
        "offset": 0,
        "slot": "0",
        "type": "t_bool"
      },
      {
        "astId": 790,
        "contract": "contracts/LendingMarket.sol:LendingMarket",
        "label": "_initialized",
        "offset": 1,
        "slot": "0",
        "type": "t_uint8"
      },
      {
        "astId": 793,
        "contract": "contracts/LendingMarket.sol:LendingMarket",
        "label": "_initializing",
        "offset": 2,
        "slot": "0",
        "type": "t_bool"
      }
    ],
    "types": {
      "t_bool": {
        "encoding": "inplace",
        "label": "bool",
        "numberOfBytes": "1"
      },
      "t_uint8": {
        "encoding": "inplace",
        "label": "uint8",
        "numberOfBytes": "1"
      }
    }
  }
}