{
  "address": "0x7BaaD2b720786ac3C0639619D7d33494142c9275",
  "abi": [
    {
      "anonymous": false,
      "inputs": [
        {
          "indexed": false,
          "internalType": "bytes32",
          "name": "name",
          "type": "bytes32"
        },
        {
          "indexed": false,
          "internalType": "address",
          "name": "destination",
          "type": "address"
        }
      ],
      "name": "CacheUpdated",
      "type": "event"
    },
    {
      "anonymous": false,
      "inputs": [
        {
          "indexed": false,
          "internalType": "uint256",
          "name": "orderId",
          "type": "uint256"
        },
        {
          "indexed": true,
          "internalType": "address",
          "name": "maker",
          "type": "address"
        },
        {
          "indexed": false,
          "internalType": "enum ProtocolTypes.Side",
          "name": "side",
          "type": "uint8"
        },
        {
          "indexed": false,
          "internalType": "uint256",
          "name": "amount",
          "type": "uint256"
        },
        {
          "indexed": false,
          "internalType": "uint256",
          "name": "rate",
          "type": "uint256"
        }
      ],
      "name": "CancelOrder",
      "type": "event"
    },
    {
      "anonymous": false,
      "inputs": [
        {
          "indexed": false,
          "internalType": "uint8",
          "name": "version",
          "type": "uint8"
        }
      ],
      "name": "Initialized",
      "type": "event"
    },
    {
      "anonymous": false,
      "inputs": [
        {
          "indexed": false,
          "internalType": "uint256",
          "name": "orderId",
          "type": "uint256"
        },
        {
          "indexed": true,
          "internalType": "address",
          "name": "maker",
          "type": "address"
        },
        {
          "indexed": false,
          "internalType": "enum ProtocolTypes.Side",
          "name": "side",
          "type": "uint8"
        },
        {
          "indexed": false,
          "internalType": "bytes32",
          "name": "ccy",
          "type": "bytes32"
        },
        {
          "indexed": false,
          "internalType": "uint256",
          "name": "maturity",
          "type": "uint256"
        },
        {
          "indexed": false,
          "internalType": "uint256",
          "name": "amount",
          "type": "uint256"
        },
        {
          "indexed": false,
          "internalType": "uint256",
          "name": "rate",
          "type": "uint256"
        }
      ],
      "name": "MakeOrder",
      "type": "event"
    },
    {
      "anonymous": false,
      "inputs": [
        {
          "indexed": false,
          "internalType": "uint256",
          "name": "maturity",
          "type": "uint256"
        },
        {
          "indexed": false,
          "internalType": "uint256",
          "name": "prevMaturity",
          "type": "uint256"
        }
      ],
      "name": "OpenMarket",
      "type": "event"
    },
    {
      "anonymous": false,
      "inputs": [
        {
          "indexed": false,
          "internalType": "address",
          "name": "account",
          "type": "address"
        }
      ],
      "name": "Paused",
      "type": "event"
    },
    {
      "anonymous": false,
      "inputs": [
        {
          "indexed": false,
          "internalType": "uint256",
          "name": "orderId",
          "type": "uint256"
        },
        {
          "indexed": true,
          "internalType": "address",
          "name": "taker",
          "type": "address"
        },
        {
          "indexed": false,
          "internalType": "enum ProtocolTypes.Side",
          "name": "side",
          "type": "uint8"
        },
        {
          "indexed": false,
          "internalType": "uint256",
          "name": "amount",
          "type": "uint256"
        },
        {
          "indexed": false,
          "internalType": "uint256",
          "name": "rate",
          "type": "uint256"
        }
      ],
      "name": "TakeOrder",
      "type": "event"
    },
    {
      "anonymous": false,
      "inputs": [
        {
          "indexed": true,
          "internalType": "address",
          "name": "from",
          "type": "address"
        },
        {
          "indexed": true,
          "internalType": "address",
          "name": "to",
          "type": "address"
        },
        {
          "indexed": false,
          "internalType": "int256",
          "name": "value",
          "type": "int256"
        }
      ],
      "name": "Transfer",
      "type": "event"
    },
    {
      "anonymous": false,
      "inputs": [
        {
          "indexed": false,
          "internalType": "address",
          "name": "account",
          "type": "address"
        }
      ],
      "name": "Unpaused",
      "type": "event"
    },
    {
      "inputs": [],
      "name": "acceptedContracts",
      "outputs": [
        {
          "internalType": "bytes32[]",
          "name": "contracts",
          "type": "bytes32[]"
        }
      ],
      "stateMutability": "pure",
      "type": "function"
    },
    {
      "inputs": [],
      "name": "buildCache",
      "outputs": [],
      "stateMutability": "nonpayable",
      "type": "function"
    },
    {
      "inputs": [
        {
          "internalType": "address",
          "name": "_user",
          "type": "address"
        },
        {
          "internalType": "uint256",
          "name": "_orderId",
          "type": "uint256"
        }
      ],
      "name": "cancelOrder",
      "outputs": [
        {
          "internalType": "enum ProtocolTypes.Side",
          "name": "",
          "type": "uint8"
        },
        {
          "internalType": "uint256",
          "name": "",
          "type": "uint256"
        },
        {
          "internalType": "uint256",
          "name": "",
          "type": "uint256"
        }
      ],
      "stateMutability": "nonpayable",
      "type": "function"
    },
    {
      "inputs": [
        {
          "internalType": "enum ProtocolTypes.Side",
          "name": "_side",
          "type": "uint8"
        },
        {
          "internalType": "address",
          "name": "_user",
          "type": "address"
        },
        {
          "internalType": "uint256",
          "name": "_amount",
          "type": "uint256"
        },
        {
          "internalType": "uint256",
          "name": "_rate",
          "type": "uint256"
        }
      ],
      "name": "createOrder",
      "outputs": [
        {
          "internalType": "uint256",
          "name": "orderId",
          "type": "uint256"
        },
        {
          "internalType": "address",
          "name": "maker",
          "type": "address"
        },
        {
          "internalType": "uint256",
          "name": "amount",
          "type": "uint256"
        }
      ],
      "stateMutability": "nonpayable",
      "type": "function"
    },
    {
      "inputs": [
        {
          "internalType": "address",
          "name": "_user",
          "type": "address"
        }
      ],
      "name": "futureValueOf",
      "outputs": [
        {
          "internalType": "int256",
          "name": "",
          "type": "int256"
        }
      ],
      "stateMutability": "view",
      "type": "function"
    },
    {
      "inputs": [],
      "name": "getBorrowRate",
      "outputs": [
        {
          "internalType": "uint256",
          "name": "rate",
          "type": "uint256"
        }
      ],
      "stateMutability": "view",
      "type": "function"
    },
    {
      "inputs": [
        {
          "internalType": "uint256",
          "name": "_limit",
          "type": "uint256"
        }
      ],
      "name": "getBorrowRates",
      "outputs": [
        {
          "internalType": "uint256[]",
          "name": "rates",
          "type": "uint256[]"
        }
      ],
      "stateMutability": "view",
      "type": "function"
    },
    {
      "inputs": [],
      "name": "getCurrency",
      "outputs": [
        {
          "internalType": "bytes32",
          "name": "currency",
          "type": "bytes32"
        }
      ],
      "stateMutability": "view",
      "type": "function"
    },
    {
      "inputs": [
        {
          "internalType": "address",
          "name": "account",
          "type": "address"
        }
      ],
      "name": "getFutureValue",
      "outputs": [
        {
          "internalType": "int256",
          "name": "",
          "type": "int256"
        },
        {
          "internalType": "uint256",
          "name": "",
          "type": "uint256"
        }
      ],
      "stateMutability": "view",
      "type": "function"
    },
    {
      "inputs": [],
      "name": "getLendRate",
      "outputs": [
        {
          "internalType": "uint256",
          "name": "rate",
          "type": "uint256"
        }
      ],
      "stateMutability": "view",
      "type": "function"
    },
    {
      "inputs": [
        {
          "internalType": "uint256",
          "name": "_limit",
          "type": "uint256"
        }
      ],
      "name": "getLendRates",
      "outputs": [
        {
          "internalType": "uint256[]",
          "name": "rates",
          "type": "uint256[]"
        }
      ],
      "stateMutability": "view",
      "type": "function"
    },
    {
      "inputs": [
        {
          "internalType": "uint256",
          "name": "_orderId",
          "type": "uint256"
        }
      ],
      "name": "getMaker",
      "outputs": [
        {
          "internalType": "address",
          "name": "maker",
          "type": "address"
        }
      ],
      "stateMutability": "view",
      "type": "function"
    },
    {
      "inputs": [],
      "name": "getMarket",
      "outputs": [
        {
          "components": [
            {
              "internalType": "bytes32",
              "name": "ccy",
              "type": "bytes32"
            },
            {
              "internalType": "uint256",
              "name": "maturity",
              "type": "uint256"
            },
            {
              "internalType": "uint256",
              "name": "basisDate",
              "type": "uint256"
            },
            {
              "internalType": "uint256",
              "name": "borrowRate",
              "type": "uint256"
            },
            {
              "internalType": "uint256",
              "name": "lendRate",
              "type": "uint256"
            },
            {
              "internalType": "uint256",
              "name": "midRate",
              "type": "uint256"
            }
          ],
          "internalType": "struct ILendingMarket.Market",
          "name": "market",
          "type": "tuple"
        }
      ],
      "stateMutability": "view",
      "type": "function"
    },
    {
      "inputs": [],
      "name": "getMaturity",
      "outputs": [
        {
          "internalType": "uint256",
          "name": "maturity",
          "type": "uint256"
        }
      ],
      "stateMutability": "view",
      "type": "function"
    },
    {
      "inputs": [],
      "name": "getMidRate",
      "outputs": [
        {
          "internalType": "uint256",
          "name": "rate",
          "type": "uint256"
        }
      ],
      "stateMutability": "view",
      "type": "function"
    },
    {
      "inputs": [
        {
          "internalType": "uint256",
          "name": "_orderId",
          "type": "uint256"
        }
      ],
      "name": "getOrder",
      "outputs": [
        {
          "components": [
            {
              "internalType": "enum ProtocolTypes.Side",
              "name": "side",
              "type": "uint8"
            },
            {
              "internalType": "uint256",
              "name": "amount",
              "type": "uint256"
            },
            {
              "internalType": "uint256",
              "name": "rate",
              "type": "uint256"
            },
            {
              "internalType": "address",
              "name": "maker",
              "type": "address"
            },
            {
              "internalType": "uint256",
              "name": "maturity",
              "type": "uint256"
            }
          ],
          "internalType": "struct MarketOrder",
          "name": "order",
          "type": "tuple"
        }
      ],
      "stateMutability": "view",
      "type": "function"
    },
    {
      "inputs": [
        {
          "internalType": "uint256",
          "name": "_maturity",
          "type": "uint256"
        },
        {
          "internalType": "uint256",
          "name": "_orderId",
          "type": "uint256"
        }
      ],
      "name": "getOrderFromTree",
      "outputs": [
        {
          "internalType": "uint256",
          "name": "",
          "type": "uint256"
        },
        {
          "internalType": "uint256",
          "name": "",
          "type": "uint256"
        },
        {
          "internalType": "uint256",
          "name": "",
          "type": "uint256"
        },
        {
          "internalType": "uint256",
          "name": "",
          "type": "uint256"
        },
        {
          "internalType": "uint256",
          "name": "",
          "type": "uint256"
        }
      ],
      "stateMutability": "view",
      "type": "function"
    },
    {
      "inputs": [
        {
          "internalType": "uint256",
          "name": "_maturity",
          "type": "uint256"
        }
      ],
      "name": "getTotalBorrowingSupply",
      "outputs": [
        {
          "internalType": "uint256",
          "name": "",
          "type": "uint256"
        }
      ],
      "stateMutability": "view",
      "type": "function"
    },
    {
      "inputs": [
        {
          "internalType": "uint256",
          "name": "_maturity",
          "type": "uint256"
        }
      ],
      "name": "getTotalLendingSupply",
      "outputs": [
        {
          "internalType": "uint256",
          "name": "",
          "type": "uint256"
        }
      ],
      "stateMutability": "view",
      "type": "function"
    },
    {
      "inputs": [
        {
          "internalType": "address",
          "name": "account",
          "type": "address"
        },
        {
          "internalType": "uint256",
          "name": "maturity",
          "type": "uint256"
        }
      ],
      "name": "hasFutureValueInPastMaturity",
      "outputs": [
        {
          "internalType": "bool",
          "name": "",
          "type": "bool"
        }
      ],
      "stateMutability": "view",
      "type": "function"
    },
    {
      "inputs": [
        {
          "internalType": "address",
          "name": "_resolver",
          "type": "address"
        },
        {
          "internalType": "bytes32",
          "name": "_ccy",
          "type": "bytes32"
        },
        {
          "internalType": "uint256",
          "name": "_maturity",
          "type": "uint256"
        },
        {
          "internalType": "uint256",
          "name": "_basisDate",
          "type": "uint256"
        }
      ],
      "name": "initialize",
      "outputs": [],
      "stateMutability": "nonpayable",
      "type": "function"
    },
    {
      "inputs": [],
      "name": "isMatured",
      "outputs": [
        {
          "internalType": "bool",
          "name": "",
          "type": "bool"
        }
      ],
      "stateMutability": "view",
      "type": "function"
    },
    {
      "inputs": [],
      "name": "isOpened",
      "outputs": [
        {
          "internalType": "bool",
          "name": "",
          "type": "bool"
        }
      ],
      "stateMutability": "view",
      "type": "function"
    },
    {
      "inputs": [],
      "name": "isResolverCached",
      "outputs": [
        {
          "internalType": "bool",
          "name": "",
          "type": "bool"
        }
      ],
      "stateMutability": "view",
      "type": "function"
    },
    {
      "inputs": [
        {
          "internalType": "enum ProtocolTypes.Side",
          "name": "_side",
          "type": "uint8"
        },
        {
          "internalType": "uint256",
          "name": "_amount",
          "type": "uint256"
        },
        {
          "internalType": "uint256",
          "name": "_rate",
          "type": "uint256"
        }
      ],
      "name": "matchOrders",
      "outputs": [
        {
          "internalType": "uint256",
          "name": "",
          "type": "uint256"
        }
      ],
      "stateMutability": "view",
      "type": "function"
    },
    {
      "inputs": [
        {
          "internalType": "uint256",
          "name": "_maturity",
          "type": "uint256"
        }
      ],
      "name": "openMarket",
      "outputs": [
        {
          "internalType": "uint256",
          "name": "prevMaturity",
          "type": "uint256"
        }
      ],
      "stateMutability": "nonpayable",
      "type": "function"
    },
    {
      "inputs": [],
      "name": "pauseMarket",
      "outputs": [],
      "stateMutability": "nonpayable",
      "type": "function"
    },
    {
      "inputs": [],
      "name": "paused",
      "outputs": [
        {
          "internalType": "bool",
          "name": "",
          "type": "bool"
        }
      ],
      "stateMutability": "view",
      "type": "function"
    },
    {
      "inputs": [
        {
          "internalType": "address",
          "name": "_user",
          "type": "address"
        }
      ],
      "name": "presentValueOf",
      "outputs": [
        {
          "internalType": "int256",
          "name": "",
          "type": "int256"
        }
      ],
      "stateMutability": "view",
      "type": "function"
    },
    {
      "inputs": [
        {
          "internalType": "address",
          "name": "_user",
          "type": "address"
        }
      ],
      "name": "removeFutureValueInPastMaturity",
      "outputs": [
        {
          "internalType": "int256",
          "name": "removedAmount",
          "type": "int256"
        },
        {
          "internalType": "uint256",
          "name": "maturity",
          "type": "uint256"
        }
      ],
      "stateMutability": "nonpayable",
      "type": "function"
    },
    {
      "inputs": [],
      "name": "requiredContracts",
      "outputs": [
        {
          "internalType": "bytes32[]",
          "name": "contracts",
          "type": "bytes32[]"
        }
      ],
      "stateMutability": "pure",
      "type": "function"
    },
    {
      "inputs": [],
      "name": "resolver",
      "outputs": [
        {
          "internalType": "contract IAddressResolver",
          "name": "",
          "type": "address"
        }
      ],
      "stateMutability": "view",
      "type": "function"
    },
    {
      "inputs": [],
      "name": "unpauseMarket",
      "outputs": [],
      "stateMutability": "nonpayable",
      "type": "function"
    }
  ],
  "transactionHash": "0xb37e28bfece5fa34b19b96cfb0d031212dff5bc25b9391cd0f35863373dd0eba",
  "args": [],
  "numDeployments": 1,
  "solcInputHash": "0189db16390033bb8f5dd462f065f79e",
  "bytecode": "0x608060405234801561001057600080fd5b506000805460ff191690556149588061002a6000396000f3fe608060405234801561001057600080fd5b50600436106101fb5760003560e01c80637a5fc22b1161011a578063baa26757116100ad578063e09976591161007c578063e0997659146102fb578063e16695b5146104b5578063e224e8c0146104bd578063f1be1679146104d0578063fa6f5bfe1461052457600080fd5b8063baa267571461045c578063c1e99bed1461046f578063d09ef24114610482578063dc2079a4146104a257600080fd5b80639eec6ead116100e95780639eec6ead146103fe578063a03738dc14610439578063b7c1d52714610441578063ba1c5e801461045457600080fd5b80637a5fc22b1461039c5780637f2b6a0d146103af578063870febf0146103b757806388e8c716146103f657600080fd5b80633d03b9da116101925780635c975abb116101615780635c975abb1461035f578063692aa97e1461036a5780636945c1fd146103725780636a2061371461037a57600080fd5b80633d03b9da146102fb5780634eee4495146103035780634f56c6df14610339578063568615321461034c57600080fd5b806317e2d96a116101ce57806317e2d96a1461027b57806329985e5a146102c85780632af64bd3146102d05780633644ca45146102e857600080fd5b8063021ca02e1461020057806304f3bcec146102295780630e1b435e146102495780631610c7ce14610271575b600080fd5b61021361020e366004614297565b61052c565b60405161022091906142b0565b60405180910390f35b61023161064d565b6040516001600160a01b039091168152602001610220565b61025c61025736600461430c565b61066e565b60408051928352602083019190915201610220565b6102796106b0565b005b6102ba610289366004614297565b60009081527f102c2681ef7c98b80d6ee00bc89c73fe6b29b6cc81206242bfb4c5c32e608d39602052604090205490565b604051908152602001610220565b6102796106e8565b6102d8610895565b6040519015158152602001610220565b6102ba6102f6366004614338565b6109fb565b610213610b4f565b61031661031136600461436b565b610bb4565b604080519384526001600160a01b03909216602084015290820152606001610220565b610213610347366004614297565b610d43565b61023161035a366004614297565b610e5d565b60005460ff166102d8565b6102d8610e87565b6102ba610eae565b61038d6103883660046143af565b610ec1565b60405161022093929190614413565b61025c6103aa36600461430c565b61111f565b6102d8611175565b6102ba6103c5366004614297565b60009081527f102c2681ef7c98b80d6ee00bc89c73fe6b29b6cc81206242bfb4c5c32e608d3a602052604090205490565b6102ba61118b565b61041161040c366004614432565b611198565b604080519586526020860194909452928401919091526060830152608082015260a001610220565b6102796112af565b61027961044f366004614454565b6112dc565b6102ba61149e565b6102ba61046a366004614297565b6114d7565b6102ba61047d36600461430c565b6115a3565b610495610490366004614297565b6115d9565b604051610220919061448f565b6102ba6104b036600461430c565b61166a565b6102ba61170a565b6102d86104cb3660046143af565b61171d565b6104d8611782565b6040516102209190600060c082019050825182526020830151602083015260408301516040830152606083015160608301526080830151608083015260a083015160a083015292915050565b6102ba611825565b60608167ffffffffffffffff811115610547576105476144d8565b604051908082528060200260200182016040528015610570578160200160208202803683370190505b50905060006105a461058061185f565b600601600061058d61185f565b600301548152602001908152602001600020611883565b905080826000815181106105ba576105ba6144ee565b602090810291909101015260015b825181101561064657816105db57610646565b610614826105e761185f565b60060160006105f461185f565b6003015481526020019081526020016000206118ca90919063ffffffff16565b915081838281518110610629576106296144ee565b60209081029190910101528061063e8161451a565b9150506105c8565b5050919050565b60006000805160206148e38339815191525b546001600160a01b0316919050565b6001600160a01b031660009081526000805160206148c38339815191526020908152604080832054600080516020614903833981519152909252909120549091565b6106b9336119cb565b6106de5760405162461bcd60e51b81526004016106d590614535565b60405180910390fd5b6106e6611a3b565b565b60006106f2610b4f565b905060005b8151811015610891576000828281518110610714576107146144ee565b6020026020010151905060006107356000805160206148e383398151915290565b54604080517f5265736f6c766572206d697373696e67207461726765743a200000000000000060208201526039808201869052825180830390910181526059820192839052636795dbcd60e01b9092526001600160a01b0390921691636795dbcd916107a691869190605d016145b9565b60206040518083038186803b1580156107be57600080fd5b505afa1580156107d2573d6000803e3d6000fd5b505050506040513d601f19601f820116820180604052508101906107f691906145d2565b60008381527f4abde63c3e81aefa5764b017968bc473e83e093d7e1a10247d19e0a3e4124019602090815260409182902080546001600160a01b0319166001600160a01b03851690811790915582518681529182015281519293507f88a93678a3692f6789d9546fc621bf7234b101ddb7d4fe479455112831b8aa68929081900390910190a1505080806108899061451a565b9150506106f7565b5050565b6000806108a0610b4f565b905060005b81518110156109f25760008282815181106108c2576108c26144ee565b602002602001015190506108e16000805160206148e383398151915290565b600082815260019190910160205260409020546001600160a01b03166000805160206148e3833981519152546040516321f8a72160e01b8152600481018490526001600160a01b03909116906321f8a7219060240160206040518083038186803b15801561094e57600080fd5b505afa158015610962573d6000803e3d6000fd5b505050506040513d601f19601f8201168201806040525081019061098691906145d2565b6001600160a01b03161415806109d0575060008181527f4abde63c3e81aefa5764b017968bc473e83e093d7e1a10247d19e0a3e412401960205260409020546001600160a01b0316155b156109df576000935050505090565b50806109ea8161451a565b9150506108a5565b50600191505090565b6000610a05610e87565b610a485760405162461bcd60e51b815260206004820152601460248201527313585c9ad95d081a5cc81b9bdd081bdc195b995960621b60448201526064016106d5565b6000846001811115610a5c57610a5c6143db565b1415610af957610a9b82610a6e61185f565b6006016000610a7b61185f565b600301548152602001908152602001600020611a8d90919063ffffffff16565b610ab75760405162461bcd60e51b81526004016106d5906145ef565b610af28284610ac461185f565b6006016000610ad161185f565b600301548152602001908152602001600020611ad49092919063ffffffff16565b9050610b48565b610b1282610b0561185f565b6005016000610a7b61185f565b610b2e5760405162461bcd60e51b81526004016106d5906145ef565b610af28284610b3b61185f565b6005016000610ad161185f565b9392505050565b604080516001808252818301909252606091602080830190803683370190505090507f4c656e64696e674d61726b6574436f6e74726f6c6c657200000000000000000081600081518110610ba557610ba56144ee565b60200260200101818152505090565b6000806000610bc1611bc0565b610bca336119cb565b610be65760405162461bcd60e51b81526004016106d590614535565b610bee610e87565b610c315760405162461bcd60e51b815260206004820152601460248201527313585c9ad95d081a5cc81b9bdd081bdc195b995960621b60448201526064016106d5565b60008511610c815760405162461bcd60e51b815260206004820152601860248201527f43616e277420706c61636520656d70747920616d6f756e74000000000000000060448201526064016106d5565b60008411610cca5760405162461bcd60e51b815260206004820152601660248201527543616e277420706c61636520656d707479207261746560501b60448201526064016106d5565b6000876001811115610cde57610cde6143db565b1415610cf857610cf18486610ac461185f565b9250610d08565b610d058486610b3b61185f565b92505b82610d2757610d1987878787611c06565b925085915060009050610d39565b610d3387878588611e0a565b91508490505b9450945094915050565b60608167ffffffffffffffff811115610d5e57610d5e6144d8565b604051908082528060200260200182016040528015610d87578160200160208202803683370190505b5090506000610dbb610d9761185f565b6005016000610da461185f565b6003015481526020019081526020016000206121cd565b90508082600081518110610dd157610dd16144ee565b602090810291909101015260015b82518110156106465781610df257610646565b610e2b82610dfe61185f565b6005016000610e0b61185f565b60030154815260200190815260200160002061220f90919063ffffffff16565b915081838281518110610e4057610e406144ee565b602090810291909101015280610e558161451a565b915050610ddf565b6000610e6761185f565b60009283526004016020525060409020600301546001600160a01b031690565b6000610e91611175565b158015610ea95750610ea161185f565b600201544210155b905090565b6000610eb861185f565b60010154905090565b60008060008484610ed181610e5d565b6001600160a01b0316826001600160a01b031614610f315760405162461bcd60e51b815260206004820152601760248201527f63616c6c6572206973206e6f7420746865206d616b657200000000000000000060448201526064016106d5565b610f39611bc0565b6000610f4361185f565b6000888152600491909101602052604090819020815160a081019092528054829060ff166001811115610f7857610f786143db565b6001811115610f8957610f896143db565b8152600182015460208201526002820154604082015260038201546001600160a01b031660608201526004909101546080909101529050600081516001811115610fd557610fd56143db565b1415611025576110208160200151826040015189610ff161185f565b6005016000610ffe61185f565b600301548152602001908152602001600020612309909392919063ffffffff16565b611063565b60018151600181111561103a5761103a6143db565b141561106357611063816020015182604001518961105661185f565b6006016000610ffe61185f565b61106b61185f565b6000888152600491820160209081526040808320805460ff1916815560018101849055600281018490556003810180546001600160a01b03191690559093019190915560608301518351918401518484015193516001600160a01b03909216937ff523a00826d700cad9c1a6b2bb68b57937b6f76e89dc6fe5206389e1a97d3f80936110fb938d9391929061463a565b60405180910390a28051602082015160409092015190999198509650945050505050565b60008061112b336119cb565b6111475760405162461bcd60e51b81526004016106d590614535565b61115c8361115361185f565b6003015461171d565b156111705761116a8361264f565b90925090505b915091565b600061117f61185f565b60030154421015905090565b6000610ea9610d9761185f565b6000806000806000806111a961185f565b6000888152600491909101602052604090819020815160a081019092528054829060ff1660018111156111de576111de6143db565b60018111156111ef576111ef6143db565b8152600182015460208201526002820154604082015260038201546001600160a01b03166060820152600490910154608090910152905060008151600181111561123b5761123b6143db565b141561127b5761126b81604001518861125261185f565b60008c8152600591909101602052604090209190612792565b95509550955095509550506112a5565b61126b81604001518861128c61185f565b60008c8152600691909101602052604090209190612792565b9295509295909350565b6112b8336119cb565b6112d45760405162461bcd60e51b81526004016106d590614535565b6106e661282e565b60005462010000900460ff16158080156113015750600054600161010090910460ff16105b806113215750303b158015611321575060005460ff610100909104166001145b6113845760405162461bcd60e51b815260206004820152602e60248201527f496e697469616c697a61626c653a20636f6e747261637420697320616c72656160448201526d191e481a5b9a5d1a585b1a5e995960921b60648201526084016106d5565b6000805461ff00191661010017905580156113ab576000805462ff00001916620100001790555b60006113b561286b565b6001600160a01b031614156114185760405162461bcd60e51b815260206004820152602360248201527f4d7573742062652063616c6c65642066726f6d20626561636f6e20636f6e74726044820152621858dd60ea1b60648201526084016106d5565b61142185612893565b8361142a61185f565b600101558261143761185f565b600301558161144461185f565b600201556114506106e8565b8015611497576000805462ff000019169055604051600181527f7f26b83ff96e1f2b6a682f133852f6798a09c465da95921460cefb38474024989060200160405180910390a15b5050505050565b6000806114a961185f565b6003015490506114d16114ba61185f565b600083815260069190910160205260409020611883565b91505090565b60006114e1611175565b6115255760405162461bcd60e51b815260206004820152601560248201527413585c9ad95d081a5cc81b9bdd081b585d1d5c9959605a1b60448201526064016106d5565b61152e336119cb565b61154a5760405162461bcd60e51b81526004016106d590614535565b61155261185f565b6003015490508161156161185f565b6003015560408051838152602081018390527f974eb6a392aa4b5b16a285eae8ee9d9c75309faa295ffa928838efa6b00e438a910160405180910390a1919050565b60008060006115b18461066e565b91509150806115be61185f565b6003015414156115cf575092915050565b5060009392505050565b6115e161425e565b6115e961185f565b6000838152600491909101602052604090819020815160a081019092528054829060ff16600181111561161e5761161e6143db565b600181111561162f5761162f6143db565b8152600182015460208201526002820154604082015260038201546001600160a01b0316606082015260049091015460809091015292915050565b600080611676836115a3565b90506000611682611825565b905060004261168f61185f565b6003015410156116a05760006116b7565b426116a961185f565b600301546116b79190614660565b90506116c38183614677565b6116d36301e187e0612710614677565b6116dd9190614696565b6116ed6301e187e0612710614677565b6116f790856146ae565b6117019190614749565b95945050505050565b600061171461185f565b60030154905090565b6001600160a01b038216600090815260008051602061490383398151915260205260408120548214156117525750600061177c565b506001600160a01b03821660009081526000805160206148c3833981519152602052604090205415155b92915050565b6117be6040518060c001604052806000801916815260200160008152602001600081526020016000815260200160008152602001600081525090565b6040518060c001604052806117d161185f565b6001015481526020016117e261185f565b6003015481526020016117f361185f565b60020154815260200161180461149e565b815260200161181161118b565b815260200161181e611825565b9052919050565b60008061183061149e565b9050600061183c61118b565b9050600061184a8284614696565b9050611857600282614777565b935050505090565b7ffc2836757f9146445fc75bc3c897a210ec004e4ee60fc8627ef5cbf2842b3d0a90565b80548061189257506000919050565b5b6000818152600183016020526040902060020154156118c5576000908152600182016020526040902060020154611893565b919050565b60008161193a5760405162461bcd60e51b815260206004820152603860248201527f4f7264657253746174697374696373547265652834303229202d205374617274604482015277696e672076616c75652063616e6e6f74206265207a65726f60401b60648201526084016106d5565b600082815260018085016020526040909120015415611979576000828152600180850160205260409091200154611972908490612928565b905061177c565b5060008181526001830160205260409020545b80158015906119ad5750600081815260018085016020526040909120015482145b1561177c57600081815260018401602052604090205490915061198c565b6000806119d6610b4f565b905060005b81518110156115cf57611a068282815181106119f9576119f96144ee565b6020026020010151612965565b6001600160a01b0316846001600160a01b03161415611a29575060019392505050565b80611a338161451a565b9150506119db565b611a436129fd565b6000805460ff191690557f5db9ee0a495bf2e6ff9c91a7834c1ba4fdd244a5e8aa4e537bd38aeae4b073aa335b6040516001600160a01b03909116815260200160405180910390a1565b600081611a9c5750600061177c565b8254821415611aad5750600161177c565b600082815260018401602052604090205415611acb5750600161177c565b50600092915050565b60008281526001808501602090815260408084206004808201548652600782018452828620835160a081018552815481529581015494860194909452600284015492850192909252600383015460608501529101546080830152905b6005820154815114801590611b485750838160800151105b15611ba0576020908101516000908152600783018252604090819020815160a0810183528154815260018201549381019390935260028101549183019190915260038101546060830152600401546080820152611b30565b83816080015110611bb557519150610b489050565b600092505050610b48565b60005460ff16156106e65760405162461bcd60e51b815260206004820152601060248201526f14185d5cd8589b194e881c185d5cd95960821b60448201526064016106d5565b6000611c1061425e565b80866001811115611c2357611c236143db565b90816001811115611c3657611c366143db565b90525060208101849052604081018390526001600160a01b0385166060820152611c5e61185f565b600301546080820152611c6f612a46565b915080611c7a61185f565b60008481526004919091016020526040902081518154829060ff191660018381811115611ca957611ca96143db565b0217905550602082015160018201556040820151600282015560608201516003820180546001600160a01b0319166001600160a01b03909216919091179055608090910151600490910155600081516001811115611d0957611d096143db565b1415611d5957611d548160200151826040015184611d2561185f565b6005016000611d3261185f565b600301548152602001908152602001600020612a71909392919063ffffffff16565b611d97565b600181516001811115611d6e57611d6e6143db565b1415611d9757611d978160200151826040015184611d8a61185f565b6006016000611d3261185f565b80606001516001600160a01b03167f9baa679e9516a3acae8c0deb69798eb2824dd6984b54d21dd4942c76511f4d31838360000151611dd461185f565b60010154856080015186602001518760400151604051611df99695949392919061478b565b60405180910390a250949350505050565b600080611e1561185f565b6000858152600491909101602052604090819020815160a081019092528054829060ff166001811115611e4a57611e4a6143db565b6001811115611e5b57611e5b6143db565b815260018201546020808301919091526002830154604083015260038301546001600160a01b03166060830152600490920154608090910152810151909150831115611edf5760405162461bcd60e51b8152602060048201526013602482015272125b9cdd59999a58da595b9d08185b5bdd5b9d606a1b60448201526064016106d5565b846001600160a01b031681606001516001600160a01b03161415611f455760405162461bcd60e51b815260206004820152601d60248201527f4d616b657220636f756c646e27742074616b6520697473206f7264657200000060448201526064016106d5565b600080848360200151611f589190614660565b611f6061185f565b6000888152600491909101602052604081206001019190915583516001811115611f8c57611f8c6143db565b141561202257611fd383604001518787611fa461185f565b6005016000611fb161185f565b600301548152602001908152602001600020612be9909392919063ffffffff16565b6120155760405162461bcd60e51b815260206004820152601360248201527221b7bab6323713ba103334b6361037b93232b960691b60448201526064016106d5565b50506060810151856120a8565b600183516001811115612037576120376143db565b14156120a85761205c8360400151878761204f61185f565b6006016000611fb161185f565b61209e5760405162461bcd60e51b815260206004820152601360248201527221b7bab6323713ba103334b6361037b93232b960691b60448201526064016106d5565b5050606081015185905b60006301e187e0426120b861185f565b600301546120c69190614660565b85604001516120d59190614677565b6120df9190614777565b905060006127106120f08382614696565b6120fa9089614677565b6121049190614777565b905061211d84848361211461185f565b60030154612ebf565b50886001600160a01b03167f966c5ef9d077123e79f6a459e7ced8ef6f2a106683fa26d6ea3a4b0df8a34b5b898c8a8960400151604051612161949392919061463a565b60405180910390a260208501516121b85761217a61185f565b6000898152600491820160205260408120805460ff1916815560018101829055600281018290556003810180546001600160a01b0319169055909101555b8460600151955050505050505b949350505050565b8054806121dc57506000919050565b5b6000818152600180840160205260409091200154156118c55760009081526001808301602052604090912001546121dd565b60008161227f5760405162461bcd60e51b815260206004820152603860248201527f4f7264657253746174697374696373547265652834303129202d205374617274604482015277696e672076616c75652063616e6e6f74206265207a65726f60401b60648201526084016106d5565b6000828152600184016020526040902060020154156122b757600082815260018401602052604090206002015461197290849061327d565b5060008181526001830160205260409020545b80158015906122eb5750600081815260018401602052604090206002015482145b1561177c5760008181526001840160205260409020549091506122ca565b8161237c5760405162461bcd60e51b815260206004820152603960248201527f4f7264657253746174697374696373547265652834303729202d2056616c756560448201527f20746f2064656c6574652063616e6e6f74206265207a65726f0000000000000060648201526084016106d5565b612388848484846132b5565b6123fa5760405162461bcd60e51b815260206004820152603a60248201527f4f7264657253746174697374696373547265652834303829202d2056616c756560448201527f20746f2064656c65746520646f6573206e6f742065786973742e00000000000060648201526084016106d5565b600082815260018501602052604090206124158584846132d9565b600080826006015460001415612646576000858152600180890160205260409091200154158061245657506000858152600188016020526040902060020154155b156124625750836124aa565b5060008481526001870160205260409020600201545b6000818152600180890160205260409091200154156124aa576000908152600180880160205260409091200154612478565b6000818152600180890160205260409091200154156124de57600081815260018089016020526040909120015491506124f5565b600081815260018801602052604090206002015491505b600081815260018801602052604080822054848352912081905580156125665760008181526001808a016020526040909120015482141561254b5760008181526001808a0160205260409091200183905561256a565b6000818152600189016020526040902060020183905561256a565b8288555b600082815260018901602052604090206003015460ff16158683146125f457612594898489613486565b600087815260018a8101602052604080832080830154878552828520938401819055845281842087905560028082015490840181905584529083208690556003908101549286905201805460ff191660ff90921615159190911790559195915b80156126045761260489856134fd565b505060008181526001808901602052604082208281559081018290556002810182905560038101805460ff191690556004810182905560058101829055600601555b50505050505050565b6001600160a01b03811660009081526000805160206148c383398151915260209081526040808320546000805160206149038339815191529092528220548291908282126126df5760008181527f102c2681ef7c98b80d6ee00bc89c73fe6b29b6cc81206242bfb4c5c32e608d396020526040812080548492906126d4908490614660565b9091555061272b9050565b6126e8826147c2565b60008281527f102c2681ef7c98b80d6ee00bc89c73fe6b29b6cc81206242bfb4c5c32e608d3a602052604081208054909190612725908490614660565b90915550505b6001600160a01b03851660008181526000805160206148c383398151915260209081526040808320839055518581529192917f8b0c34a52f9e28d78caaa7066cd047b398dae74941a208b77777420f492bd7e1910160405180910390a39094909350915050565b60008060008060006127a48888611a8d565b6127c05760405162461bcd60e51b81526004016106d5906147df565b505050600093845250506001928301602090815260408084209284526007909201815291819020815160a08101835281548082529482015493810184905260028201549281018390526003820154606082018190526004909201546080909101819052939492939192909190565b612836611bc0565b6000805460ff191660011790557f62e78cea01bee320cd4e420270b5ea74000d11b0c9f74754ebdbfc544b05a258611a703390565b60007fa3f0ad74e5423aebfd80d3ef4346578335a9a72aeaee59ff6cb3582b35133d5061065f565b6000805160206148e3833981519152546001600160a01b0316156128f95760405162461bcd60e51b815260206004820152601b60248201527f7265736f6c766572207265676973746572656420616c7265616479000000000060448201526064016106d5565b6000805160206148e383398151915280546001600160a01b0319166001600160a01b0392909216919091179055565b60005b60008281526001840160205260409020600201541561295f576000918252600183016020526040909120600201549061292b565b50919050565b60008181527f4abde63c3e81aefa5764b017968bc473e83e093d7e1a10247d19e0a3e41240196020908152604080832054815170026b4b9b9b4b7339030b2323932b9b99d1607d1b9381019390935260318084018690528251808503909101815260519093019091526001600160a01b031690816129f65760405162461bcd60e51b81526004016106d5919061482f565b5092915050565b60005460ff166106e65760405162461bcd60e51b815260206004820152601460248201527314185d5cd8589b194e881b9bdd081c185d5cd95960621b60448201526064016106d5565b6000612a5061185f565b8054906000612a5e8361451a565b9190505550612a6b61185f565b54919050565b81612ae45760405162461bcd60e51b815260206004820152603960248201527f4f7264657253746174697374696373547265652834303529202d2056616c756560448201527f20746f20696e736572742063616e6e6f74206265207a65726f0000000000000060648201526084016106d5565b83546000905b8015612b555780915080841015612b14576000908152600180870160205260409091200154612aea565b80841115612b35576000908152600186016020526040902060020154612aea565b80841415612b5057612b4986828786613917565b5050612be3565b612aea565b6000848152600180880160205260408220848155808201839055600281019290925560038201805460ff19169091179055612b9287868887613917565b82612b9f57848755612bd9565b82851015612bc25760008381526001808901602052604090912001859055612bd9565b600083815260018801602052604090206002018590555b6126468786613aaa565b50505050565b6000838152600180860160209081526040808420868552600781018352818520825160a08101845281548152948101549385019390935260028301549184019190915260038201546060840152600490910154608083018190529091908390612c53908690614660565b60008781526007850160205260409020600401819055905080612c8157612c7c88828989612309565b612eb1565b600480840154600090815260078501602052604090200154811115612e67576004808401546000908152600785016020908152604091829020825160a081018452815481526001820154928101929092526002810154928201929092526003820154606082015291015460808201525b6005840154815114801590612d095750818160800151105b15612d61576020908101516000908152600785018252604090819020815160a0810183528154815260018201549381019390935260028101549183019190915260038101546060830152600401546080820152612cf1565b8583608001511115612dea57604080820151600090815260078601602090815290829020825160a0810184528154815260018201549281019290925260028101549282019290925260038201546060820152600490910154608082015283518251612dd0918c918c9190613d15565b612de48a8a83600001518760000151613d15565b50612e61565b6020808201516000908152600786018252604090819020815160a08101835281548082526001830154948201949094526002820154928101929092526003810154606083015260040154608082015284519091612e4b918c918c9190613d15565b612e5f8a8a84600001518760000151613d15565b505b50612eb1565b612e7b888884600001518660040154613d15565b8151600088815260018a0160205260409020600401556005830154612eb1578151600088815260018a0160205260409020600501555b506001979650505050505050565b6000836001600160a01b0316856001600160a01b03161415612f235760405162461bcd60e51b815260206004820181905260248201527f626f72726f77657220616e64206c656e64657220617265207468652073616d6560448201526064016106d5565b6001600160a01b038516612f835760405162461bcd60e51b815260206004820152602160248201527f61646420746f20746865207a65726f2061646472657373206f66206c656e64656044820152603960f91b60648201526084016106d5565b6001600160a01b038416612fe55760405162461bcd60e51b815260206004820152602360248201527f61646420746f20746865207a65726f2061646472657373206f6620626f72726f6044820152623bb2b960e91b60648201526084016106d5565b612fef858361171d565b156130515760405162461bcd60e51b815260206004820152602c60248201527f6c656e6465722068617320746865206675747572652076616c756520696e207060448201526b617374206d6174757269747960a01b60648201526084016106d5565b61305b848361171d565b156130bf5760405162461bcd60e51b815260206004820152602e60248201527f626f72726f7765722068617320746865206675747572652076616c756520696e60448201526d2070617374206d6174757269747960901b60648201526084016106d5565b6001600160a01b0385811660009081526000805160206149038339815191526020908152604080832086905592871682528282208590558482527f102c2681ef7c98b80d6ee00bc89c73fe6b29b6cc81206242bfb4c5c32e608d399052908120805485929061312f908490614696565b909155505060008281527f102c2681ef7c98b80d6ee00bc89c73fe6b29b6cc81206242bfb4c5c32e608d3a602052604081208054859290613171908490614696565b90915550506001600160a01b03851660009081526000805160206148c38339815191526020526040812080548592906131ab908490614842565b90915550506001600160a01b03841660009081526000805160206148c38339815191526020526040812080548592906131e5908490614883565b90915550506040518381526001600160a01b038616906000907f8b0c34a52f9e28d78caaa7066cd047b398dae74941a208b77777420f492bd7e19060200160405180910390a36001600160a01b03841660007f8b0c34a52f9e28d78caaa7066cd047b398dae74941a208b77777420f492bd7e1613261866147c2565b60405190815260200160405180910390a3506001949350505050565b60005b60008281526001808501602052604090912001541561295f576000918252600180840160205260409092209091015490613280565b60006132c18584611a8d565b6132cd575060006121c5565b61170185848685613d46565b6132e38383611a8d565b6132ff5760405162461bcd60e51b81526004016106d5906147df565b600082815260018085016020908152604080842085855260078101835293819020815160a081018352815481529381015492840192909252600282015490830152600381015460608301526004908101546080830152820154831480156133695750828260050154145b1561338e57600084815260018601602052604081206004810182905560050155613432565b82826004015414156133da576133bb85858360200151600091825260019092016020526040902060040155565b6020808201516000908152600784019091526040812060020155613432565b828260050154141561341e57604080820151600086815260018801602052919091206005015560408082015160009081526007840160205290812060010155613432565b613432858583604001518460200151613d15565b8051600090815260078301602052604081208181556001808201839055600282018390556003820183905560049091018290556006840180549192909161347a908490614660565b90915550505050505050565b6000818152600184016020526040808220548483529120819055806134ad57828455612be3565b60008181526001808601602052604090912001548214156134e35760008181526001808601602052604090912001839055612be3565b600090815260019390930160205250604090912060020155565b60005b825482148015906135255750600082815260018401602052604090206003015460ff16155b156138f85760008281526001808501602052604080832054808452922001548314156137215760008181526001850160205260408082206002015480835291206003015490925060ff16156135c9576000828152600180860160205260408083206003908101805460ff199081169091558585529190932090920180549092161790556135b28482613dc1565b600081815260018501602052604090206002015491505b60008281526001808601602052604080832090910154825290206003015460ff161580156136145750600082815260018501602052604080822060020154825290206003015460ff16155b1561364157600082815260018581016020526040909120600301805460ff191690911790559150816138f2565b600082815260018501602052604080822060020154825290206003015460ff166136be576000828152600180860160205260408083208083015484529083206003908101805460ff19908116909155938690520180549092161790556136a78483613e99565b600081815260018501602052604090206002015491505b600081815260018501602052604080822060039081018054868552838520808401805460ff909316151560ff1993841617905582548216909255600290910154845291909220909101805490911690556137188482613dc1565b835492506138f2565b6000818152600180860160205260408083209091015480835291206003015490925060ff16156137a0576000828152600180860160205260408083206003908101805460ff199081169091558585529190932090920180549092161790556137898482613e99565b600081815260018086016020526040909120015491505b600082815260018501602052604080822060020154825290206003015460ff161580156137eb575060008281526001808601602052604080832090910154825290206003015460ff16155b1561381857600082815260018581016020526040909120600301805460ff191690911790559150816138f2565b60008281526001808601602052604080832090910154825290206003015460ff1661389757600082815260018086016020526040808320600281015484529083206003908101805460ff19908116909155938690520180549092161790556138808483613dc1565b600081815260018086016020526040909120015491505b60008181526001808601602052604080832060039081018054878652838620808401805460ff909316151560ff199384161790558254821690925593015484529220909101805490911690556138ed8482613e99565b835492505b50613500565b506000908152600190910160205260409020600301805460ff19169055565b6000821161395c5760405162461bcd60e51b8152602060048201526012602482015271125b9cdd599a58da595b9d08185b5bdd5b9d60721b60448201526064016106d5565b6000838152600185016020526040902060048101546139865761398185858585613f6e565b611497565b600480820154600090815260078301602052604090200154831115613a9e576004808201546000908152600783016020908152604091829020825160a081018452815481526001820154928101929092526002810154928201929092526003820154606082015291015460808201525b602081015115801590613a0d575083816080015111155b15613a65576020908101516000908152600783018252604090819020815160a08101835281548152600182015493810193909352600281015491830191909152600381015460608301526004015460808201526139f6565b8381608001511115613a8757613a82868683600001518787613fdb565b613a98565b613a98868683600001518787614027565b50611497565b61149785858585613f6e565b60005b82548214801590613ad75750600082815260018401602052604080822054825290206003015460ff165b15613cf3576000828152600180850160205260408083205480845281842054845292200154811415613bfa5760008181526001850160205260408082205482528082206002015480835291206003015490925060ff1615613b80576000818152600180860160205260408083206003808201805460ff19908116909155878652838620820180548216905582548652928520018054909216909217905590829052549250613ced565b6000818152600185016020526040902060020154831415613ba857809250613ba88484613dc1565b50600082815260018085016020526040808320548084528184206003808201805460ff19908116909155825487529386200180549093169093179091559182905254613bf5908590613e99565b613ced565b6000818152600180860160205260408083205483528083209091015480835291206003015490925060ff1615613c78576000818152600180860160205260408083206003808201805460ff19908116909155878652838620820180548216905582548652928520018054909216909217905590829052549250613ced565b6000818152600180860160205260409091200154831415613ca057809250613ca08484613e99565b50600082815260018085016020526040808320548084528184206003808201805460ff19908116909155825487529386200180549093169093179091559182905254613ced908590613dc1565b50613aad565b505080546000908152600190910160205260409020600301805460ff19169055565b6000928352600193840160209081526040808520848652600701909152808420909401819055825291902060020155565b6000838152600180860160209081526040808420858552600781018352818520825160a08101845281548152948101549385019390935260028301549184019190915260038201546060840152600490910154608083018190529091908514613db4576000925050506121c5565b5060019695505050505050565b600081815260018084016020526040808320600281018054915482865292852090930154938590529183905590918015613e0957600081815260018601602052604090208490555b6000838152600186016020526040902082905581613e2957828555613e76565b6000828152600180870160205260409091200154841415613e5f5760008281526001808701602052604090912001839055613e76565b600082815260018601602052604090206002018390555b505060008181526001938401602052604080822090940183905591825291902055565b60008181526001808401602052604080832091820180549254838552918420600201549385905283905590918015613edf57600081815260018601602052604090208490555b6000838152600186016020526040902082905581613eff57828555613f4c565b6000828152600186016020526040902060020154841415613f355760008281526001860160205260409020600201839055613f4c565b600082815260018087016020526040909120018390555b5050600081815260019093016020526040808420600201839055918352912055565b6000838152600185016020526040812090613f8b8686868661415d565b9050613f9d8686838560040154613d15565b600085815260018701602052604090206004018190556005820154613fd357600085815260018701602052604090206005018190555b505050505050565b6000848152600186016020526040902060048101548414156140085761400386868585613f6e565b613fd3565b6000848152600782016020526040902060020154613fd3908790879086865b6000821161406c5760405162461bcd60e51b8152602060048201526012602482015271125b9cdd599a58da595b9d08185b5bdd5b9d60721b60448201526064016106d5565b60008481526001860160205260409020600581015484141561409457614003868685856141fe565b60008481526007820160208181526040808420815160a080820184528254825260018084015483870181905260028086015485880152600380870154606080880191909152600497880154608080890191909152938c52998952878b208851958601895280548652938401549885019890985282015495830195909552948501549581019590955292015490830152916141308989888861415d565b90506141428989838560000151613d15565b6141528989856000015184613d15565b505050505050505050565b600083815260018501602052604081206006810154829061417c575060015b60018260060160008282546141919190614696565b90915550506040805160a081018252858152600060208083018281528385018381524260608601908152608086019b8c5299845260079790970190915292902090518082559151600182015592516002840155935160038301555092516004909301929092559392505050565b6000838152600185016020526040902060048101546142235761398185858585613f6e565b60006142318686868661415d565b90506142438686846005015484613d15565b60008581526001870160205260409020600501819055613fd3565b6040805160a081019091528060008152602001600081526020016000815260200160006001600160a01b03168152602001600081525090565b6000602082840312156142a957600080fd5b5035919050565b6020808252825182820181905260009190848201906040850190845b818110156142e8578351835292840192918401916001016142cc565b50909695505050505050565b6001600160a01b038116811461430957600080fd5b50565b60006020828403121561431e57600080fd5b8135610b48816142f4565b8035600281106118c557600080fd5b60008060006060848603121561434d57600080fd5b61435684614329565b95602085013595506040909401359392505050565b6000806000806080858703121561438157600080fd5b61438a85614329565b9350602085013561439a816142f4565b93969395505050506040820135916060013590565b600080604083850312156143c257600080fd5b82356143cd816142f4565b946020939093013593505050565b634e487b7160e01b600052602160045260246000fd5b6002811061440f57634e487b7160e01b600052602160045260246000fd5b9052565b6060810161442182866143f1565b602082019390935260400152919050565b6000806040838503121561444557600080fd5b50508035926020909101359150565b6000806000806080858703121561446a57600080fd5b8435614475816142f4565b966020860135965060408601359560600135945092505050565b600060a0820190506144a28284516143f1565b602083015160208301526040830151604083015260018060a01b0360608401511660608301526080830151608083015292915050565b634e487b7160e01b600052604160045260246000fd5b634e487b7160e01b600052603260045260246000fd5b634e487b7160e01b600052601160045260246000fd5b600060001982141561452e5761452e614504565b5060010190565b60208082526017908201527f4f6e6c7920416363657074656420436f6e747261637473000000000000000000604082015260600190565b6000815180845260005b8181101561459257602081850181015186830182015201614576565b818111156145a4576000602083870101525b50601f01601f19169290920160200192915050565b8281526040602082015260006121c5604083018461456c565b6000602082840312156145e457600080fd5b8151610b48816142f4565b6020808252602b908201527f4e6f206f72646572732065786973747320666f722073656c656374656420696e60408201526a746572657374207261746560a81b606082015260800190565b8481526080810161464e60208301866143f1565b60408201939093526060015292915050565b60008282101561467257614672614504565b500390565b600081600019048311821515161561469157614691614504565b500290565b600082198211156146a9576146a9614504565b500190565b60006001600160ff1b03818413828413808216868404861116156146d4576146d4614504565b600160ff1b60008712828116878305891216156146f3576146f3614504565b6000871292508782058712848416161561470f5761470f614504565b8785058712818416161561472557614725614504565b505050929093029392505050565b634e487b7160e01b600052601260045260246000fd5b60008261475857614758614733565b600160ff1b82146000198414161561477257614772614504565b500590565b60008261478657614786614733565b500490565b86815260c0810161479f60208301886143f1565b8560408301528460608301528360808301528260a0830152979650505050505050565b6000600160ff1b8214156147d8576147d8614504565b5060000390565b60208082526030908201527f4f7264657253746174697374696373547265652834303329202d2056616c756560408201526f103237b2b9903737ba1032bc34b9ba1760811b606082015260800190565b602081526000610b48602083018461456c565b600080821280156001600160ff1b038490038513161561486457614864614504565b600160ff1b839003841281161561487d5761487d614504565b50500190565b60008083128015600160ff1b8501841216156148a1576148a1614504565b6001600160ff1b03840183138116156148bc576148bc614504565b5050039056fe102c2681ef7c98b80d6ee00bc89c73fe6b29b6cc81206242bfb4c5c32e608d374abde63c3e81aefa5764b017968bc473e83e093d7e1a10247d19e0a3e4124018102c2681ef7c98b80d6ee00bc89c73fe6b29b6cc81206242bfb4c5c32e608d38a26469706673582212207d6a585edebcae1404666ca8622adcfe10252bab404984090a184ebfd2778bba64736f6c63430008090033",
  "devdoc": {
    "details": "The market orders is stored in structured red-black trees and doubly linked lists in each node.",
    "kind": "dev",
    "methods": {
      "acceptedContracts()": {
        "details": "The contact name listed in this method is also needed to be listed `requiredContracts` method."
      },
      "cancelOrder(address,uint256)": {
        "params": {
          "_orderId": "Market order id",
          "_user": "User address"
        }
      },
      "createOrder(uint8,address,uint256,uint256)": {
        "params": {
          "_amount": "Amount of funds the maker wants to borrow/lend",
          "_rate": "Amount of interest rate taker wish to borrow/lend",
          "_side": "Order position type, Borrow or Lend",
          "_user": "User's address"
        },
        "returns": {
          "amount": "The taken amount",
          "maker": "The maker address",
          "orderId": "Market order id"
        }
      },
      "futureValueOf(address)": {
        "params": {
          "_user": "User address"
        },
        "returns": {
          "_0": "The future value in latest maturity"
        }
      },
      "getBorrowRate()": {
        "returns": {
          "rate": "The highest borrow rate"
        }
      },
      "getBorrowRates(uint256)": {
        "params": {
          "_limit": "Max limit to get rates"
        },
        "returns": {
          "rates": "The array of borrow rates"
        }
      },
      "getCurrency()": {
        "returns": {
          "currency": "The market currency"
        }
      },
      "getLendRate()": {
        "returns": {
          "rate": "The lowest lend rate"
        }
      },
      "getLendRates(uint256)": {
        "params": {
          "_limit": "Max limit to get rates"
        },
        "returns": {
          "rates": "The array of lending rates"
        }
      },
      "getMaker(uint256)": {
        "params": {
          "_orderId": "The market order id"
        },
        "returns": {
          "maker": "The order maker address"
        }
      },
      "getMarket()": {
        "returns": {
          "market": "The market data"
        }
      },
      "getMaturity()": {
        "returns": {
          "maturity": "The market maturity"
        }
      },
      "getMidRate()": {
        "returns": {
          "rate": "The mid rate"
        }
      },
      "getOrder(uint256)": {
        "params": {
          "_orderId": "The market order id"
        },
        "returns": {
          "order": "The market order information"
        }
      },
      "getOrderFromTree(uint256,uint256)": {
        "params": {
          "_maturity": "The maturity of the order book",
          "_orderId": "The market order id"
        },
        "returns": {
          "_0": "order The market order information"
        }
      },
      "initialize(address,bytes32,uint256,uint256)": {
        "details": "Function is invoked by the proxy contract when the contract is added to the ProxyController.",
        "params": {
          "_basisDate": "The basis date when the first market open",
          "_ccy": "The main currency for the order book",
          "_maturity": "The initial maturity of the market",
          "_resolver": "The address of the Address Resolver contract"
        }
      },
      "isMatured()": {
        "returns": {
          "_0": "The boolean if the market is matured or not"
        }
      },
      "isOpened()": {
        "returns": {
          "_0": "The boolean if the market is opened or not"
        }
      },
      "matchOrders(uint8,uint256,uint256)": {
        "params": {
          "_amount": "Amount of funds the maker wants to borrow/lend",
          "_rate": "Amount of interest rate taker wish to borrow/lend",
          "_side": "Order position type, Borrow or Lend"
        }
      },
      "openMarket(uint256)": {
        "params": {
          "_maturity": "The new maturity"
        }
      },
      "paused()": {
        "details": "Returns true if the contract is paused, and false otherwise."
      },
      "presentValueOf(address)": {
        "params": {
          "_user": "User address"
        },
        "returns": {
          "_0": "The present value"
        }
      },
      "removeFutureValueInPastMaturity(address)": {
        "params": {
          "_user": "User's address"
        },
        "returns": {
          "maturity": "Maturity of future value",
          "removedAmount": "Removed future value amount"
        }
      },
      "requiredContracts()": {
        "details": "The contract name list is in `./libraries/Contracts.sol`."
      }
    },
    "version": 1
  },
  "userdoc": {
    "kind": "user",
    "methods": {
      "acceptedContracts()": {
        "notice": "Returns contract names that can call this contract."
      },
      "cancelOrder(address,uint256)": {
        "notice": "Cancels the order."
      },
      "createOrder(uint8,address,uint256,uint256)": {
        "notice": "Creates the order. Takes the order if the order is matched, and places new order if not match it."
      },
      "futureValueOf(address)": {
        "notice": "Gets the future value in the latest maturity the user has. If the market is rotated, the maturity in the market is updated, so the existing future value is addressed as an old future value in old maturity. This method doesn't return those old future values."
      },
      "getBorrowRate()": {
        "notice": "Gets the highest borrow rate."
      },
      "getBorrowRates(uint256)": {
        "notice": "Gets the borrow rates."
      },
      "getCurrency()": {
        "notice": "Gets the market currency."
      },
      "getLendRate()": {
        "notice": "Gets the lowest lend rate."
      },
      "getLendRates(uint256)": {
        "notice": "Gets the lend rates."
      },
      "getMaker(uint256)": {
        "notice": "Gets the order maker address."
      },
      "getMarket()": {
        "notice": "Gets the market data."
      },
      "getMaturity()": {
        "notice": "Gets the current market maturity."
      },
      "getMidRate()": {
        "notice": "Gets the mid rate."
      },
      "getOrder(uint256)": {
        "notice": "Gets the market order information."
      },
      "getOrderFromTree(uint256,uint256)": {
        "notice": "Gets the market order from the order book in the maturity."
      },
      "initialize(address,bytes32,uint256,uint256)": {
        "notice": "Initializes the contract."
      },
      "isMatured()": {
        "notice": "Gets if the market is matured."
      },
      "isOpened()": {
        "notice": "Gets if the market is opened."
      },
      "matchOrders(uint8,uint256,uint256)": {
        "notice": "Gets if the market order will be matched or not. Returns zero if there is not a matched order. Reverts if no orders for specified interest rate."
      },
      "openMarket(uint256)": {
        "notice": "Opens market"
      },
      "pauseMarket()": {
        "notice": "Pauses the lending market."
      },
      "presentValueOf(address)": {
        "notice": "Gets the present value calculated from the future value & market rate."
      },
      "removeFutureValueInPastMaturity(address)": {
        "notice": "Remove all future values if there is an amount in the past maturity."
      },
      "requiredContracts()": {
        "notice": "Returns the contract names used in this contract."
      },
      "unpauseMarket()": {
        "notice": "Unpauses the lending market."
      }
    },
    "notice": "Implements the module that allows lending market participants to create/cancel market orders, and also provides a future value calculation module. For updates, this contract is basically called from `LendingMarketController.sol`instead of being called \\ directly by the user.",
    "version": 1
  },
  "storageLayout": {
    "storage": [
      {
        "astId": 952,
        "contract": "contracts/LendingMarket.sol:LendingMarket",
        "label": "_paused",
        "offset": 0,
        "slot": "0",
        "type": "t_bool"
      },
      {
        "astId": 790,
        "contract": "contracts/LendingMarket.sol:LendingMarket",
        "label": "_initialized",
        "offset": 1,
        "slot": "0",
        "type": "t_uint8"
      },
      {
        "astId": 793,
        "contract": "contracts/LendingMarket.sol:LendingMarket",
        "label": "_initializing",
        "offset": 2,
        "slot": "0",
        "type": "t_bool"
      }
    ],
    "types": {
      "t_bool": {
        "encoding": "inplace",
        "label": "bool",
        "numberOfBytes": "1"
      },
      "t_uint8": {
        "encoding": "inplace",
        "label": "uint8",
        "numberOfBytes": "1"
      }
    }
  }
}