{
  "address": "0x1220B72Bf265b88d276f27A4B760d3d68617e611",
  "abi": [
    {
      "anonymous": false,
      "inputs": [
        {
          "indexed": false,
          "internalType": "bytes32",
          "name": "name",
          "type": "bytes32"
        },
        {
          "indexed": false,
          "internalType": "address",
          "name": "destination",
          "type": "address"
        }
      ],
      "name": "CacheUpdated",
      "type": "event"
    },
    {
      "anonymous": false,
      "inputs": [
        {
          "indexed": true,
          "internalType": "bytes32",
          "name": "ccy",
          "type": "bytes32"
        },
        {
          "indexed": false,
          "internalType": "uint256",
          "name": "maturity",
          "type": "uint256"
        },
        {
          "indexed": false,
          "internalType": "uint256",
          "name": "rate",
          "type": "uint256"
        },
        {
          "indexed": false,
          "internalType": "uint256",
          "name": "tenor",
          "type": "uint256"
        }
      ],
      "name": "CompoundFactorUpdated",
      "type": "event"
    },
    {
      "anonymous": false,
      "inputs": [
        {
          "indexed": false,
          "internalType": "uint8",
          "name": "version",
          "type": "uint8"
        }
      ],
      "name": "Initialized",
      "type": "event"
    },
    {
      "anonymous": false,
      "inputs": [
        {
          "indexed": false,
          "internalType": "bytes32",
          "name": "ccy",
          "type": "bytes32"
        },
        {
          "indexed": true,
          "internalType": "address",
          "name": "marketAddr",
          "type": "address"
        },
        {
          "indexed": false,
          "internalType": "uint256",
          "name": "index",
          "type": "uint256"
        },
        {
          "indexed": false,
          "internalType": "uint256",
          "name": "maturity",
          "type": "uint256"
        }
      ],
      "name": "LendingMarketCreated",
      "type": "event"
    },
    {
      "anonymous": false,
      "inputs": [
        {
          "indexed": false,
          "internalType": "bytes32",
          "name": "ccy",
          "type": "bytes32"
        },
        {
          "indexed": false,
          "internalType": "uint256",
          "name": "oldMaturity",
          "type": "uint256"
        },
        {
          "indexed": false,
          "internalType": "uint256",
          "name": "newMaturity",
          "type": "uint256"
        }
      ],
      "name": "LendingMarketsRotated",
      "type": "event"
    },
    {
      "anonymous": false,
      "inputs": [
        {
          "indexed": false,
          "internalType": "uint256",
          "name": "orderId",
          "type": "uint256"
        },
        {
          "indexed": true,
          "internalType": "address",
          "name": "maker",
          "type": "address"
        },
        {
          "indexed": true,
          "internalType": "bytes32",
          "name": "ccy",
          "type": "bytes32"
        },
        {
          "indexed": false,
          "internalType": "enum ProtocolTypes.Side",
          "name": "side",
          "type": "uint8"
        },
        {
          "indexed": false,
          "internalType": "uint256",
          "name": "maturity",
          "type": "uint256"
        },
        {
          "indexed": false,
          "internalType": "uint256",
          "name": "amount",
          "type": "uint256"
        },
        {
          "indexed": false,
          "internalType": "uint256",
          "name": "rate",
          "type": "uint256"
        }
      ],
      "name": "OrderCanceled",
      "type": "event"
    },
    {
      "anonymous": false,
      "inputs": [
        {
          "indexed": false,
          "internalType": "uint256",
          "name": "orderId",
          "type": "uint256"
        },
        {
          "indexed": true,
          "internalType": "address",
          "name": "maker",
          "type": "address"
        },
        {
          "indexed": true,
          "internalType": "address",
          "name": "taker",
          "type": "address"
        },
        {
          "indexed": true,
          "internalType": "bytes32",
          "name": "ccy",
          "type": "bytes32"
        },
        {
          "indexed": false,
          "internalType": "enum ProtocolTypes.Side",
          "name": "side",
          "type": "uint8"
        },
        {
          "indexed": false,
          "internalType": "uint256",
          "name": "maturity",
          "type": "uint256"
        },
        {
          "indexed": false,
          "internalType": "uint256",
          "name": "amount",
          "type": "uint256"
        },
        {
          "indexed": false,
          "internalType": "uint256",
          "name": "rate",
          "type": "uint256"
        }
      ],
      "name": "OrderFilled",
      "type": "event"
    },
    {
      "anonymous": false,
      "inputs": [
        {
          "indexed": false,
          "internalType": "uint256",
          "name": "orderId",
          "type": "uint256"
        },
        {
          "indexed": true,
          "internalType": "address",
          "name": "maker",
          "type": "address"
        },
        {
          "indexed": true,
          "internalType": "bytes32",
          "name": "ccy",
          "type": "bytes32"
        },
        {
          "indexed": false,
          "internalType": "enum ProtocolTypes.Side",
          "name": "side",
          "type": "uint8"
        },
        {
          "indexed": false,
          "internalType": "uint256",
          "name": "maturity",
          "type": "uint256"
        },
        {
          "indexed": false,
          "internalType": "uint256",
          "name": "amount",
          "type": "uint256"
        },
        {
          "indexed": false,
          "internalType": "uint256",
          "name": "rate",
          "type": "uint256"
        }
      ],
      "name": "OrderPlaced",
      "type": "event"
    },
    {
      "anonymous": false,
      "inputs": [
        {
          "indexed": true,
          "internalType": "address",
          "name": "previousOwner",
          "type": "address"
        },
        {
          "indexed": true,
          "internalType": "address",
          "name": "newOwner",
          "type": "address"
        }
      ],
      "name": "OwnershipTransferred",
      "type": "event"
    },
    {
      "anonymous": false,
      "inputs": [
        {
          "indexed": true,
          "internalType": "bytes32",
          "name": "ccy",
          "type": "bytes32"
        },
        {
          "indexed": true,
          "internalType": "address",
          "name": "from",
          "type": "address"
        },
        {
          "indexed": true,
          "internalType": "address",
          "name": "to",
          "type": "address"
        },
        {
          "indexed": false,
          "internalType": "int256",
          "name": "value",
          "type": "int256"
        }
      ],
      "name": "Transfer",
      "type": "event"
    },
    {
      "inputs": [],
      "name": "acceptedContracts",
      "outputs": [
        {
          "internalType": "bytes32[]",
          "name": "contracts",
          "type": "bytes32[]"
        }
      ],
      "stateMutability": "pure",
      "type": "function"
    },
    {
      "inputs": [],
      "name": "buildCache",
      "outputs": [],
      "stateMutability": "nonpayable",
      "type": "function"
    },
    {
      "inputs": [
        {
          "internalType": "bytes32",
          "name": "_ccy",
          "type": "bytes32"
        },
        {
          "internalType": "uint256",
          "name": "_maturity",
          "type": "uint256"
        },
        {
          "internalType": "uint256",
          "name": "_orderId",
          "type": "uint256"
        }
      ],
      "name": "cancelOrder",
      "outputs": [
        {
          "internalType": "bool",
          "name": "",
          "type": "bool"
        }
      ],
      "stateMutability": "nonpayable",
      "type": "function"
    },
    {
      "inputs": [
        {
          "internalType": "address",
          "name": "_user",
          "type": "address"
        }
      ],
      "name": "convertFutureValueToGenesisValue",
      "outputs": [],
      "stateMutability": "nonpayable",
      "type": "function"
    },
    {
      "inputs": [
        {
          "internalType": "bytes32",
          "name": "_ccy",
          "type": "bytes32"
        },
        {
          "internalType": "uint256",
          "name": "_maturity",
          "type": "uint256"
        },
        {
          "internalType": "uint256",
          "name": "_rate",
          "type": "uint256"
        }
      ],
      "name": "createLendOrderWithETH",
      "outputs": [
        {
          "internalType": "bool",
          "name": "",
          "type": "bool"
        }
      ],
      "stateMutability": "payable",
      "type": "function"
    },
    {
      "inputs": [
        {
          "internalType": "bytes32",
          "name": "_ccy",
          "type": "bytes32"
        }
      ],
      "name": "createLendingMarket",
      "outputs": [
        {
          "internalType": "address",
          "name": "market",
          "type": "address"
        }
      ],
      "stateMutability": "nonpayable",
      "type": "function"
    },
    {
      "inputs": [
        {
          "internalType": "bytes32",
          "name": "_ccy",
          "type": "bytes32"
        },
        {
          "internalType": "uint256",
          "name": "_maturity",
          "type": "uint256"
        },
        {
          "internalType": "enum ProtocolTypes.Side",
          "name": "_side",
          "type": "uint8"
        },
        {
          "internalType": "uint256",
          "name": "_amount",
          "type": "uint256"
        },
        {
          "internalType": "uint256",
          "name": "_rate",
          "type": "uint256"
        }
      ],
      "name": "createOrder",
      "outputs": [
        {
          "internalType": "bool",
          "name": "",
          "type": "bool"
        }
      ],
      "stateMutability": "nonpayable",
      "type": "function"
    },
    {
      "inputs": [
        {
          "internalType": "bytes32",
          "name": "_ccy",
          "type": "bytes32"
        }
      ],
      "name": "decimals",
      "outputs": [
        {
          "internalType": "uint8",
          "name": "",
          "type": "uint8"
        }
      ],
      "stateMutability": "view",
      "type": "function"
    },
    {
      "inputs": [
        {
          "internalType": "bytes32",
          "name": "_ccy",
          "type": "bytes32"
        },
        {
          "internalType": "uint256",
          "name": "_maturity",
          "type": "uint256"
        },
        {
          "internalType": "int256",
          "name": "_futureValueInMaturity",
          "type": "int256"
        }
      ],
      "name": "futureValueOf",
      "outputs": [
        {
          "internalType": "int256",
          "name": "",
          "type": "int256"
        }
      ],
      "stateMutability": "view",
      "type": "function"
    },
    {
      "inputs": [
        {
          "internalType": "bytes32",
          "name": "_ccy",
          "type": "bytes32"
        }
      ],
      "name": "getBasisDate",
      "outputs": [
        {
          "internalType": "uint256",
          "name": "",
          "type": "uint256"
        }
      ],
      "stateMutability": "view",
      "type": "function"
    },
    {
      "inputs": [
        {
          "internalType": "bytes32",
          "name": "_ccy",
          "type": "bytes32"
        }
      ],
      "name": "getBorrowRates",
      "outputs": [
        {
          "internalType": "uint256[]",
          "name": "",
          "type": "uint256[]"
        }
      ],
      "stateMutability": "view",
      "type": "function"
    },
    {
      "inputs": [
        {
          "internalType": "bytes32",
          "name": "_ccy",
          "type": "bytes32"
        }
      ],
      "name": "getCompoundFactor",
      "outputs": [
        {
          "internalType": "uint256",
          "name": "",
          "type": "uint256"
        }
      ],
      "stateMutability": "view",
      "type": "function"
    },
    {
      "inputs": [
        {
          "internalType": "bytes32",
          "name": "_ccy",
          "type": "bytes32"
        },
        {
          "internalType": "uint256",
          "name": "_maturity",
          "type": "uint256"
        }
      ],
      "name": "getCompoundFactorInMaturity",
      "outputs": [
        {
          "internalType": "uint256",
          "name": "",
          "type": "uint256"
        }
      ],
      "stateMutability": "view",
      "type": "function"
    },
    {
      "inputs": [
        {
          "internalType": "bytes32",
          "name": "_ccy",
          "type": "bytes32"
        },
        {
          "internalType": "address",
          "name": "_account",
          "type": "address"
        }
      ],
      "name": "getGenesisValue",
      "outputs": [
        {
          "internalType": "int256",
          "name": "",
          "type": "int256"
        }
      ],
      "stateMutability": "view",
      "type": "function"
    },
    {
      "inputs": [
        {
          "internalType": "bytes32",
          "name": "_ccy",
          "type": "bytes32"
        }
      ],
      "name": "getLendRates",
      "outputs": [
        {
          "internalType": "uint256[]",
          "name": "",
          "type": "uint256[]"
        }
      ],
      "stateMutability": "view",
      "type": "function"
    },
    {
      "inputs": [
        {
          "internalType": "bytes32",
          "name": "_ccy",
          "type": "bytes32"
        },
        {
          "internalType": "uint256",
          "name": "_maturity",
          "type": "uint256"
        }
      ],
      "name": "getLendingMarket",
      "outputs": [
        {
          "internalType": "address",
          "name": "",
          "type": "address"
        }
      ],
      "stateMutability": "view",
      "type": "function"
    },
    {
      "inputs": [
        {
          "internalType": "bytes32",
          "name": "_ccy",
          "type": "bytes32"
        }
      ],
      "name": "getLendingMarkets",
      "outputs": [
        {
          "internalType": "address[]",
          "name": "",
          "type": "address[]"
        }
      ],
      "stateMutability": "view",
      "type": "function"
    },
    {
      "inputs": [
        {
          "internalType": "bytes32",
          "name": "_ccy",
          "type": "bytes32"
        }
      ],
      "name": "getMaturities",
      "outputs": [
        {
          "internalType": "uint256[]",
          "name": "",
          "type": "uint256[]"
        }
      ],
      "stateMutability": "view",
      "type": "function"
    },
    {
      "inputs": [
        {
          "internalType": "bytes32",
          "name": "_ccy",
          "type": "bytes32"
        },
        {
          "internalType": "uint256",
          "name": "_maturity",
          "type": "uint256"
        }
      ],
      "name": "getMaturityRate",
      "outputs": [
        {
          "components": [
            {
              "internalType": "uint256",
              "name": "rate",
              "type": "uint256"
            },
            {
              "internalType": "uint256",
              "name": "tenor",
              "type": "uint256"
            },
            {
              "internalType": "uint256",
              "name": "compoundFactor",
              "type": "uint256"
            },
            {
              "internalType": "uint256",
              "name": "next",
              "type": "uint256"
            },
            {
              "internalType": "uint256",
              "name": "prev",
              "type": "uint256"
            }
          ],
          "internalType": "struct MaturityRate",
          "name": "",
          "type": "tuple"
        }
      ],
      "stateMutability": "view",
      "type": "function"
    },
    {
      "inputs": [
        {
          "internalType": "bytes32",
          "name": "_ccy",
          "type": "bytes32"
        }
      ],
      "name": "getMidRates",
      "outputs": [
        {
          "internalType": "uint256[]",
          "name": "",
          "type": "uint256[]"
        }
      ],
      "stateMutability": "view",
      "type": "function"
    },
    {
      "inputs": [
        {
          "internalType": "bytes32",
          "name": "_ccy",
          "type": "bytes32"
        }
      ],
      "name": "getTotalBorrowingSupply",
      "outputs": [
        {
          "internalType": "uint256",
          "name": "",
          "type": "uint256"
        }
      ],
      "stateMutability": "view",
      "type": "function"
    },
    {
      "inputs": [
        {
          "internalType": "bytes32",
          "name": "_ccy",
          "type": "bytes32"
        }
      ],
      "name": "getTotalLendingSupply",
      "outputs": [
        {
          "internalType": "uint256",
          "name": "",
          "type": "uint256"
        }
      ],
      "stateMutability": "view",
      "type": "function"
    },
    {
      "inputs": [
        {
          "internalType": "bytes32",
          "name": "_ccy",
          "type": "bytes32"
        },
        {
          "internalType": "address",
          "name": "_account",
          "type": "address"
        }
      ],
      "name": "getTotalPresentValue",
      "outputs": [
        {
          "internalType": "int256",
          "name": "totalPresentValue",
          "type": "int256"
        }
      ],
      "stateMutability": "view",
      "type": "function"
    },
    {
      "inputs": [
        {
          "internalType": "address",
          "name": "_account",
          "type": "address"
        }
      ],
      "name": "getTotalPresentValueInETH",
      "outputs": [
        {
          "internalType": "int256",
          "name": "totalPresentValue",
          "type": "int256"
        }
      ],
      "stateMutability": "view",
      "type": "function"
    },
    {
      "inputs": [
        {
          "internalType": "address",
          "name": "_owner",
          "type": "address"
        },
        {
          "internalType": "address",
          "name": "_resolver",
          "type": "address"
        }
      ],
      "name": "initialize",
      "outputs": [],
      "stateMutability": "nonpayable",
      "type": "function"
    },
    {
      "inputs": [
        {
          "internalType": "bytes32",
          "name": "_ccy",
          "type": "bytes32"
        },
        {
          "internalType": "uint256",
          "name": "_basisDate",
          "type": "uint256"
        },
        {
          "internalType": "uint256",
          "name": "_compoundFactor",
          "type": "uint256"
        }
      ],
      "name": "initializeLendingMarket",
      "outputs": [],
      "stateMutability": "nonpayable",
      "type": "function"
    },
    {
      "inputs": [
        {
          "internalType": "bytes32",
          "name": "_ccy",
          "type": "bytes32"
        }
      ],
      "name": "isInitializedLendingMarket",
      "outputs": [
        {
          "internalType": "bool",
          "name": "",
          "type": "bool"
        }
      ],
      "stateMutability": "view",
      "type": "function"
    },
    {
      "inputs": [
        {
          "internalType": "bytes32",
          "name": "_ccy",
          "type": "bytes32"
        }
      ],
      "name": "isRegisteredCurrency",
      "outputs": [
        {
          "internalType": "bool",
          "name": "",
          "type": "bool"
        }
      ],
      "stateMutability": "view",
      "type": "function"
    },
    {
      "inputs": [],
      "name": "isResolverCached",
      "outputs": [
        {
          "internalType": "bool",
          "name": "",
          "type": "bool"
        }
      ],
      "stateMutability": "view",
      "type": "function"
    },
    {
      "inputs": [
        {
          "internalType": "bytes32",
          "name": "_ccy",
          "type": "bytes32"
        },
        {
          "internalType": "uint256",
          "name": "_maturity",
          "type": "uint256"
        },
        {
          "internalType": "enum ProtocolTypes.Side",
          "name": "_side",
          "type": "uint8"
        },
        {
          "internalType": "uint256",
          "name": "_amount",
          "type": "uint256"
        },
        {
          "internalType": "uint256",
          "name": "_rate",
          "type": "uint256"
        }
      ],
      "name": "matchOrders",
      "outputs": [
        {
          "internalType": "bool",
          "name": "",
          "type": "bool"
        }
      ],
      "stateMutability": "view",
      "type": "function"
    },
    {
      "inputs": [],
      "name": "owner",
      "outputs": [
        {
          "internalType": "address",
          "name": "",
          "type": "address"
        }
      ],
      "stateMutability": "view",
      "type": "function"
    },
    {
      "inputs": [
        {
          "internalType": "bytes32",
          "name": "_ccy",
          "type": "bytes32"
        }
      ],
      "name": "pauseLendingMarkets",
      "outputs": [
        {
          "internalType": "bool",
          "name": "",
          "type": "bool"
        }
      ],
      "stateMutability": "nonpayable",
      "type": "function"
    },
    {
      "inputs": [],
      "name": "renounceOwnership",
      "outputs": [],
      "stateMutability": "nonpayable",
      "type": "function"
    },
    {
      "inputs": [],
      "name": "requiredContracts",
      "outputs": [
        {
          "internalType": "bytes32[]",
          "name": "contracts",
          "type": "bytes32[]"
        }
      ],
      "stateMutability": "pure",
      "type": "function"
    },
    {
      "inputs": [],
      "name": "resolver",
      "outputs": [
        {
          "internalType": "contract IAddressResolver",
          "name": "",
          "type": "address"
        }
      ],
      "stateMutability": "view",
      "type": "function"
    },
    {
      "inputs": [
        {
          "internalType": "bytes32",
          "name": "_ccy",
          "type": "bytes32"
        }
      ],
      "name": "rotateLendingMarkets",
      "outputs": [],
      "stateMutability": "nonpayable",
      "type": "function"
    },
    {
      "inputs": [
        {
          "internalType": "address",
          "name": "newOwner",
          "type": "address"
        }
      ],
      "name": "transferOwnership",
      "outputs": [],
      "stateMutability": "nonpayable",
      "type": "function"
    },
    {
      "inputs": [
        {
          "internalType": "bytes32",
          "name": "_ccy",
          "type": "bytes32"
        }
      ],
      "name": "unpauseLendingMarkets",
      "outputs": [
        {
          "internalType": "bool",
          "name": "",
          "type": "bool"
        }
      ],
      "stateMutability": "nonpayable",
      "type": "function"
    }
  ],
  "transactionHash": "0x4c9b02e80599bd7aaf81eedc5b6f0354e51992b6049d647832754a6f512bbf46",
  "args": [],
  "numDeployments": 2,
  "solcInputHash": "0189db16390033bb8f5dd462f065f79e",
  "bytecode": "0x608060405234801561001057600080fd5b506001600055614836806100256000396000f3fe6080604052600436106102255760003560e01c806375b82fe911610123578063b84aef22116100ab578063e99d05381161006f578063e99d05381461069a578063ef0799b3146106ba578063f2fde38b146106da578063faca409b146106fa578063fb54a6b31461071a57600080fd5b8063b84aef2214610606578063c2188b6414610626578063c41bde2f14610646578063e099765914610666578063e219baef1461067a57600080fd5b80639af50c00116100f25780639af50c00146105665780639c41055f14610586578063a02be3dc146105a6578063a963ad7f146105c6578063b3cb8450146105e657600080fd5b806375b82fe9146104f15780638a981745146105115780638b36d833146105315780638da5cb5b1461055157600080fd5b8063371c672c116101b15780635f18aa0c116101755780635f18aa0c1461044a57806362d6099a1461047c5780636e8cbb841461049c57806370c641a6146104bc578063715018a6146104dc57600080fd5b8063371c672c146103a8578063381ada1f146103bb5780633d03b9da146103e8578063409453961461040a578063485cc9551461042a57600080fd5b806317b72ff4116101f857806317b72ff41461030e57806325a9e7041461033c57806329985e5a1461035c5780632af64bd3146103735780632e6c5e671461038857600080fd5b806304f3bcec1461022a5780630cf7505d1461025c5780630fdb031d1461028c578063164300c1146102ac575b600080fd5b34801561023657600080fd5b5061023f61073a565b6040516001600160a01b0390911681526020015b60405180910390f35b34801561026857600080fd5b5061027c610277366004613ff7565b61075b565b6040519015158152602001610253565b34801561029857600080fd5b5061027c6102a7366004614010565b610779565b3480156102b857600080fd5b506102cc6102c736600461403c565b610a17565b6040516102539190600060a082019050825182526020830151602083015260408301516040830152606083015160608301526080830151608083015292915050565b34801561031a57600080fd5b5061032e610329366004614073565b610ab1565b604051908152602001610253565b34801561034857600080fd5b5061027c6103573660046140b0565b610baf565b34801561036857600080fd5b50610371610cbe565b005b34801561037f57600080fd5b5061027c610e6b565b34801561039457600080fd5b5061027c6103a3366004613ff7565b610fd1565b61027c6103b6366004614010565b610ff1565b3480156103c757600080fd5b506103db6103d6366004613ff7565b61108b565b60405161025391906140f9565b3480156103f457600080fd5b506103fd611100565b6040516102539190614146565b34801561041657600080fd5b5061032e610425366004613ff7565b6111bf565b34801561043657600080fd5b5061037161044536600461417e565b6111dd565b34801561045657600080fd5b5061046a610465366004613ff7565b611360565b60405160ff9091168152602001610253565b34801561048857600080fd5b5061032e610497366004614010565b611381565b3480156104a857600080fd5b5061032e6104b736600461403c565b6113b2565b3480156104c857600080fd5b5061032e6104d7366004614073565b611419565b3480156104e857600080fd5b5061037161144d565b3480156104fd57600080fd5b506103fd61050c366004613ff7565b611488565b34801561051d57600080fd5b5061023f61052c36600461403c565b6115e9565b34801561053d57600080fd5b5061037161054c366004613ff7565b61161b565b34801561055d57600080fd5b5061023f611ac4565b34801561057257600080fd5b5061032e610581366004613ff7565b611aec565b34801561059257600080fd5b506103fd6105a1366004613ff7565b611b0a565b3480156105b257600080fd5b506103fd6105c1366004613ff7565b611c6b565b3480156105d257600080fd5b5061023f6105e1366004613ff7565b611dcc565b3480156105f257600080fd5b5061027c610601366004613ff7565b6121e1565b34801561061257600080fd5b506103fd610621366004613ff7565b6122df565b34801561063257600080fd5b5061032e610641366004613ff7565b612440565b34801561065257600080fd5b506103716106613660046141ac565b61245e565b34801561067257600080fd5b5060606103fd565b34801561068657600080fd5b50610371610695366004614010565b6125ba565b3480156106a657600080fd5b5061027c6106b5366004613ff7565b6126b2565b3480156106c657600080fd5b5061032e6106d5366004613ff7565b6127a7565b3480156106e657600080fd5b506103716106f53660046141ac565b6127b1565b34801561070657600080fd5b5061027c6107153660046140b0565b612851565b34801561072657600080fd5b5061032e6107353660046141ac565b6128ec565b60006000805160206147e18339815191525b546001600160a01b0316919050565b60006107656129f3565b600092835260205250604090205460ff1690565b6000600260005414156107a75760405162461bcd60e51b815260040161079e906141c9565b60405180910390fd5b60026000908155849084906107ba612a17565b6000848152600191909101602090815260408083208584529091529020546001600160a01b031614156107ff5760405162461bcd60e51b815260040161079e90614200565b6000610809612a17565b600088815260019190910160209081526040808320898452909152808220549051636a20613760e01b8152336004820152602481018890526001600160a01b039091169250819081908490636a20613790604401606060405180830381600087803b15801561087757600080fd5b505af115801561088b573d6000803e3d6000fd5b505050506040513d601f19601f820116820180604052508101906108af919061422a565b9194509250905060008360018111156108ca576108ca614261565b141561094d576108d8612a3b565b60405163698c926960e01b815233600482018190526024820152604481018c9052606481018490526001600160a01b03919091169063698c926990608401600060405180830381600087803b15801561093057600080fd5b505af1158015610944573d6000803e3d6000fd5b505050506109b7565b610955612a3b565b6001600160a01b0316638cbf5e78338c856040518463ffffffff1660e01b815260040161098493929190614277565b600060405180830381600087803b15801561099e57600080fd5b505af11580156109b2573d6000803e3d6000fd5b505050505b89336001600160a01b03167fdeef6ea9b5aa98d74a8e855b37f4a5751d8745c0ecaab34026221260cad911b68a868d87876040516109f99594939291906142ba565b60405180910390a36001965050505050505060016000559392505050565b610a496040518060a0016040528060008152602001600081526020016000815260200160008152602001600081525090565b610a516129f3565b600084815260079190910160209081526040808320858452825291829020825160a0810184528154815260018201549281019290925260028101549282019290925260038201546060820152600490910154608082015290505b92915050565b6000805b610abd612a17565b60008581526020919091526040902054811015610ba8576000610ade612a17565b600086815260209190915260409020805483908110610aff57610aff6142ea565b6000918252602090912001546040516337081e6960e21b81526001600160a01b0386811660048301529091169150819063dc2079a49060240160206040518083038186803b158015610b5057600080fd5b505afa158015610b64573d6000803e3d6000fd5b505050506040513d601f19601f82011682018060405250810190610b889190614300565b610b92908461432f565b9250508080610ba090614370565b915050610ab5565b5092915050565b6000858582610bbc612a17565b6000848152600191909101602090815260408083208584529091529020546001600160a01b03161415610c015760405162461bcd60e51b815260040161079e90614200565b6000610c0b612a17565b60008a8152600191909101602090815260408083208b845290915290819020549051633644ca4560e01b81526001600160a01b0390911691508190633644ca4590610c5e908a908a908a9060040161438b565b60206040518083038186803b158015610c7657600080fd5b505afa158015610c8a573d6000803e3d6000fd5b505050506040513d601f19601f82011682018060405250810190610cae9190614300565b5060019998505050505050505050565b6000610cc8611100565b905060005b8151811015610e67576000828281518110610cea57610cea6142ea565b602002602001015190506000610d0b6000805160206147e183398151915290565b54604080517f5265736f6c766572206d697373696e67207461726765743a200000000000000060208201526039808201869052825180830390910181526059820192839052636795dbcd60e01b9092526001600160a01b0390921691636795dbcd91610d7c91869190605d016143f7565b60206040518083038186803b158015610d9457600080fd5b505afa158015610da8573d6000803e3d6000fd5b505050506040513d601f19601f82011682018060405250810190610dcc9190614410565b60008381527f4abde63c3e81aefa5764b017968bc473e83e093d7e1a10247d19e0a3e4124019602090815260409182902080546001600160a01b0319166001600160a01b03851690811790915582518681529182015281519293507f88a93678a3692f6789d9546fc621bf7234b101ddb7d4fe479455112831b8aa68929081900390910190a150508080610e5f90614370565b915050610ccd565b5050565b600080610e76611100565b905060005b8151811015610fc8576000828281518110610e9857610e986142ea565b60200260200101519050610eb76000805160206147e183398151915290565b600082815260019190910160205260409020546001600160a01b03166000805160206147e1833981519152546040516321f8a72160e01b8152600481018490526001600160a01b03909116906321f8a7219060240160206040518083038186803b158015610f2457600080fd5b505afa158015610f38573d6000803e3d6000fd5b505050506040513d601f19601f82011682018060405250810190610f5c9190614410565b6001600160a01b0316141580610fa6575060008181527f4abde63c3e81aefa5764b017968bc473e83e093d7e1a10247d19e0a3e412401960205260409020546001600160a01b0316155b15610fb5576000935050505090565b5080610fc081614370565b915050610e7b565b50600191505090565b6000610fdb612a17565b6000928352600201602052506040902054151590565b6000600260005414156110165760405162461bcd60e51b815260040161079e906141c9565b6002600090815584908490611029612a17565b6000848152600191909101602090815260408083208584529091529020546001600160a01b0316141561106e5760405162461bcd60e51b815260040161079e90614200565b61107c868660003488612a58565b60016000559695505050505050565b6060611095612a17565b60008381526020918252604090819020805482518185028101850190935280835291929091908301828280156110f457602002820191906000526020600020905b81546001600160a01b031681526001909101906020018083116110d6575b50505050509050919050565b60408051600380825260808201909252606091602082018380368337019050509050742132b0b1b7b7283937bc3ca1b7b73a3937b63632b960591b8160008151811061114e5761114e6142ea565b6020026020010181815250507121bab93932b731bca1b7b73a3937b63632b960711b81600181518110611183576111836142ea565b60200260200101818152505069151bdad95b95985d5b1d60b21b816002815181106111b0576111b06142ea565b60200260200101818152505090565b60006111c96129f3565b600092835260020160205250604090205490565b600154610100900460ff16158080156111fa57506001805460ff16105b806112135750303b15801561121357506001805460ff16145b6112765760405162461bcd60e51b815260206004820152602e60248201527f496e697469616c697a61626c653a20636f6e747261637420697320616c72656160448201526d191e481a5b9a5d1a585b1a5e995960921b606482015260840161079e565b6001805460ff1916811790558015611298576001805461ff0019166101001790555b60006112a2612e50565b6001600160a01b031614156113045760405162461bcd60e51b815260206004820152602260248201527f4d7573742062652063616c6c65642066726f6d2070726f787920636f6e74726160448201526118dd60f21b606482015260840161079e565b61130d83612e78565b61131682612ee9565b801561135b576001805461ff00191681556040519081527f7f26b83ff96e1f2b6a682f133852f6798a09c465da95921460cefb38474024989060200160405180910390a15b505050565b600061136a6129f3565b600092835260030160205250604090205460ff1690565b600061138d84846113b2565b611396856111bf565b6113a09084614443565b6113aa91906144de565b949350505050565b6000806113bd6129f3565b60009485526007016020908152604080862094865293815293839020835160a081018552815481526001820154958101959095526002810154938501849052600381015460608601526004015460809094019390935250919050565b60006114236129f3565b6000938452600401602090815260408085206001600160a01b039490941685529290525090205490565b33611456611ac4565b6001600160a01b03161461147c5760405162461bcd60e51b815260040161079e9061450c565b6114866000612e78565b565b60606000611494612a17565b6000848152602091909152604090205467ffffffffffffffff8111156114bc576114bc61442d565b6040519080825280602002602001820160405280156114e5578160200160208202803683370190505b50905060005b6114f3612a17565b60008581526020919091526040902054811015610ba8576000611514612a17565b600086815260209190915260409020805483908110611535576115356142ea565b6000918252602091829020015460408051637d37adff60e11b815290516001600160a01b039092169350839263fa6f5bfe92600480840193829003018186803b15801561158157600080fd5b505afa158015611595573d6000803e3d6000fd5b505050506040513d601f19601f820116820180604052508101906115b99190614300565b8383815181106115cb576115cb6142ea565b602090810291909101015250806115e181614370565b9150506114eb565b60006115f3612a17565b600093845260010160209081526040808520938552929052509020546001600160a01b031690565b6002600054141561163e5760405162461bcd60e51b815260040161079e906141c9565b60026000908155819061164f612a17565b60008381526020919091526040902054116116c55760405162461bcd60e51b815260206004820152603060248201527f4e6f206c656e64696e67206d61726b65747320657869737420666f722061207360448201526f706563696669632063757272656e637960801b606482015260840161079e565b60006116cf612a17565b6000848152602091909152604081208054909250829082906116f3576116f36142ea565b600091825260208220015483546001600160a01b03909116925083906001908110611720576117206142ea565b600091825260208220015484546001600160a01b0390911692506117e490859061174c90600190614541565b8154811061175c5761175c6142ea565b600091825260209182902001546040805163e16695b560e01b815290516001600160a01b039092169263e16695b592600480840193829003018186803b1580156117a557600080fd5b505afa1580156117b9573d6000803e3d6000fd5b505050506040513d601f19601f820116820180604052508101906117dd9190614300565b6003612f7e565b60405163baa2675760e01b8152600481018290529091506000906001600160a01b0385169063baa2675790602401602060405180830381600087803b15801561182c57600080fd5b505af1158015611840573d6000803e3d6000fd5b505050506040513d601f19601f820116820180604052508101906118649190614300565b905060005b8554811015611913578554600090829061188590600190614541565b146118c05786611896836001614558565b815481106118a6576118a66142ea565b6000918252602090912001546001600160a01b03166118c2565b855b9050808783815481106118d7576118d76142ea565b600091825260209091200180546001600160a01b0319166001600160a01b0392909216919091179055508061190b81614370565b915050611869565b50611a008782856001600160a01b031663e16695b56040518163ffffffff1660e01b815260040160206040518083038186803b15801561195257600080fd5b505afa158015611966573d6000803e3d6000fd5b505050506040513d601f19601f8201168201806040525081019061198a9190614300565b866001600160a01b031663fa6f5bfe6040518163ffffffff1660e01b815260040160206040518083038186803b1580156119c357600080fd5b505afa1580156119d7573d6000803e3d6000fd5b505050506040513d601f19601f820116820180604052508101906119fb9190614300565b613055565b83611a09612a17565b600089815260019190910160209081526040808320868452909152902080546001600160a01b0319166001600160a01b0392909216919091179055611a4c612a17565b60008881526001919091016020908152604080832084845282529182902080546001600160a01b031916905581518981529081018390529081018390527f0c6f5a3bc801362dc3d24c87799fa831f5a601c5dbd8bed4064907844eef97369060600160405180910390a1505060016000555050505050565b60007f9acda75aebd150dd434541a4747a6dc606f4f1a59662477e67daf1fc0bf9e0aa61074c565b6000611af66129f3565b600092835260060160205250604090205490565b60606000611b16612a17565b6000848152602091909152604090205467ffffffffffffffff811115611b3e57611b3e61442d565b604051908082528060200260200182016040528015611b67578160200160208202803683370190505b50905060005b611b75612a17565b60008581526020919091526040902054811015610ba8576000611b96612a17565b600086815260209190915260409020805483908110611bb757611bb76142ea565b600091825260209182902001546040805163017438bd60e71b815290516001600160a01b039092169350839263ba1c5e8092600480840193829003018186803b158015611c0357600080fd5b505afa158015611c17573d6000803e3d6000fd5b505050506040513d601f19601f82011682018060405250810190611c3b9190614300565b838381518110611c4d57611c4d6142ea565b60209081029190910101525080611c6381614370565b915050611b6d565b60606000611c77612a17565b6000848152602091909152604090205467ffffffffffffffff811115611c9f57611c9f61442d565b604051908082528060200260200182016040528015611cc8578160200160208202803683370190505b50905060005b611cd6612a17565b60008581526020919091526040902054811015610ba8576000611cf7612a17565b600086815260209190915260409020805483908110611d1857611d186142ea565b600091825260209182902001546040805163e16695b560e01b815290516001600160a01b039092169350839263e16695b592600480840193829003018186803b158015611d6457600080fd5b505afa158015611d78573d6000803e3d6000fd5b505050506040513d601f19601f82011682018060405250810190611d9c9190614300565b838381518110611dae57611dae6142ea565b60209081029190910101525080611dc481614370565b915050611cce565b600033611dd7611ac4565b6001600160a01b031614611dfd5760405162461bcd60e51b815260040161079e9061450c565b611e068261075b565b611e715760405162461bcd60e51b815260206004820152603660248201527f4c656e64696e67206d61726b6574206861736e2774206265656e20696e697469604482015275616c697a656420696e207468652063757272656e637960501b606482015260840161079e565b611e79613444565b6001600160a01b031663d4d4f6ce836040518263ffffffff1660e01b8152600401611ea691815260200190565b60206040518083038186803b158015611ebe57600080fd5b505afa158015611ed2573d6000803e3d6000fd5b505050506040513d601f19601f82011682018060405250810190611ef69190614570565b611f365760405162461bcd60e51b81526020600482015260116024820152704e4f4e20535550504f525445442043435960781b604482015260640161079e565b6000611f40612a17565b600084815260029190910160205260408120549150611f5d612a17565b60008581526020919091526040902054111561204257611f7b612a17565b6000848152602091909152604090206001611f94612a17565b60008681526020919091526040902054611fae9190614541565b81548110611fbe57611fbe6142ea565b600091825260209182902001546040805163e16695b560e01b815290516001600160a01b039092169263e16695b592600480840193829003018186803b15801561200757600080fd5b505afa15801561201b573d6000803e3d6000fd5b505050506040513d601f19601f8201168201806040525081019061203f9190614300565b90505b600061204f826003612f7e565b9050612059613464565b6001600160a01b0316634672758f85612070612a17565b60008881526002919091016020526040908190205490516001600160e01b031960e085901b1681526004810192909252602482015260448101849052606401602060405180830381600087803b1580156120c957600080fd5b505af11580156120dd573d6000803e3d6000fd5b505050506040513d601f19601f820116820180604052508101906121019190614410565b925061210b612a17565b600085815260209182526040812080546001810182559082529190200180546001600160a01b0319166001600160a01b0385161790558261214a612a17565b600086815260019190910160209081526040808320858452909152902080546001600160a01b0319166001600160a01b0392831617905583167f5f186bdcd3a716aefeb8668a95e303d0fd5a82d7f396621575a2f446372b936d856121ad612a17565b6000888152602091825260409081902054815193845291830191909152810184905260600160405180910390a25050919050565b6000336121ec611ac4565b6001600160a01b0316146122125760405162461bcd60e51b815260040161079e9061450c565b60005b61221d612a17565b600084815260209190915260409020548110156122d657600061223e612a17565b60008581526020919091526040902080548390811061225f5761225f6142ea565b60009182526020822001546040805163280dce3760e21b815290516001600160a01b039092169350839263a03738dc9260048084019382900301818387803b1580156122aa57600080fd5b505af11580156122be573d6000803e3d6000fd5b505050505080806122ce90614370565b915050612215565b50600192915050565b606060006122eb612a17565b6000848152602091909152604090205467ffffffffffffffff8111156123135761231361442d565b60405190808252806020026020018201604052801561233c578160200160208202803683370190505b50905060005b61234a612a17565b60008581526020919091526040902054811015610ba857600061236b612a17565b60008681526020919091526040902080548390811061238c5761238c6142ea565b6000918252602091829020015460408051634474638b60e11b815290516001600160a01b03909216935083926388e8c71692600480840193829003018186803b1580156123d857600080fd5b505afa1580156123ec573d6000803e3d6000fd5b505050506040513d601f19601f820116820180604052508101906124109190614300565b838381518110612422576124226142ea565b6020908102919091010152508061243881614370565b915050612342565b600061244a6129f3565b600092835260050160205250604090205490565b600260005414156124815760405162461bcd60e51b815260040161079e906141c9565b60026000908155612490612a17565b6001600160a01b03831660009081526003919091016020526040812091505b6124b882613487565b8110156125b05760006124cb8383613491565b905060006124d882611c6b565b905060005b815181101561255c5760006124f0612a17565b60010160008581526020019081526020016000206000848481518110612518576125186142ea565b6020908102919091018101518252810191909152604001600020546001600160a01b031690506125498482896134a4565b508061255481614370565b9150506124dd565b506125678286611419565b61259b5761259982612577612a17565b6001600160a01b03881660009081526003919091016020526040902090613544565b505b505080806125a890614370565b9150506124af565b5050600160005550565b336125c3611ac4565b6001600160a01b0316146125e95760405162461bcd60e51b815260040161079e9061450c565b600081116126395760405162461bcd60e51b815260206004820152601760248201527f496e76616c696420636f6d706f756e6420666163746f72000000000000000000604482015260640161079e565b61264283610fd1565b156126855760405162461bcd60e51b8152602060048201526013602482015272105b1c9958591e481a5b9a5d1a585b1a5e9959606a1b604482015260640161079e565b61269183601283613550565b8161269a612a17565b60009485526002016020526040909320929092555050565b6000336126bd611ac4565b6001600160a01b0316146126e35760405162461bcd60e51b815260040161079e9061450c565b60005b6126ee612a17565b600084815260209190915260409020548110156122d657600061270f612a17565b600085815260209190915260409020805483908110612730576127306142ea565b600091825260208220015460408051630b0863e760e11b815290516001600160a01b0390921693508392631610c7ce9260048084019382900301818387803b15801561277b57600080fd5b505af115801561278f573d6000803e3d6000fd5b5050505050808061279f90614370565b9150506126e6565b60006111c9612a17565b336127ba611ac4565b6001600160a01b0316146127e05760405162461bcd60e51b815260040161079e9061450c565b6001600160a01b0381166128455760405162461bcd60e51b815260206004820152602660248201527f4f776e61626c653a206e6577206f776e657220697320746865207a65726f206160448201526564647265737360d01b606482015260840161079e565b61284e81612e78565b50565b6000600260005414156128765760405162461bcd60e51b815260040161079e906141c9565b6002600090815586908690612889612a17565b6000848152600191909101602090815260408083208584529091529020546001600160a01b031614156128ce5760405162461bcd60e51b815260040161079e90614200565b6128db8888888888612a58565b600160005598975050505050505050565b6000806128f7612a17565b6001600160a01b03841660009081526003919091016020526040812091505b61291f82613487565b8110156129ec5760006129328383613491565b905060006129408287610ab1565b905061294a613444565b6040516303a0a22f60e41b815260048101849052602481018390526001600160a01b039190911690633a0a22f09060440160206040518083038186803b15801561299357600080fd5b505afa1580156129a7573d6000803e3d6000fd5b505050506040513d601f19601f820116820180604052508101906129cb9190614300565b6129d5908661432f565b9450505080806129e490614370565b915050612916565b5050919050565b7fe122888656e56785e9cb20ef8759dd9a09ac222b223e6dbd6f61d8d6b616d1cc90565b7f8041b8421ebd495cc61f38c788c9eb100daccf9bd36aa0bb920b7a15b2e0496590565b6000612a5369151bdad95b95985d5b1d60b21b61366d565b905090565b6000612a9386612a66612a17565b6000898152600191909101602090815260408083208a84529091529020546001600160a01b0316336134a4565b6000806000612aa0612a17565b60008a8152600191909101602090815260408083208b845290915290819020549051634eee449560e01b81526001600160a01b0390911690634eee449590612af2908a9033908b908b90600401614592565b606060405180830381600087803b158015612b0c57600080fd5b505af1158015612b20573d6000803e3d6000fd5b505050506040513d601f19601f82011682018060405250810190612b4491906145c4565b9250925092508060001415612c95576000876001811115612b6757612b67614261565b1415612bdc57612b75612a3b565b6001600160a01b031663832878ad34848c8a6040518563ffffffff1660e01b8152600401612ba593929190614277565b6000604051808303818588803b158015612bbe57600080fd5b505af1158015612bd2573d6000803e3d6000fd5b5050505050612c46565b612be4612a3b565b6001600160a01b0316639fcaebfa838b896040518463ffffffff1660e01b8152600401612c1393929190614277565b600060405180830381600087803b158015612c2d57600080fd5b505af1158015612c41573d6000803e3d6000fd5b505050505b88826001600160a01b03167ff669d6ef51790593a83db092aabcab5058ad55fe429b281592b48ce7ecc910e5858a8c8b8b604051612c889594939291906142ba565b60405180910390a3612e41565b6000876001811115612ca957612ca9614261565b1415612d1d57612cb7612a3b565b6001600160a01b0316638cbf5e78838b896040518463ffffffff1660e01b8152600401612ce693929190614277565b600060405180830381600087803b158015612d0057600080fd5b505af1158015612d14573d6000803e3d6000fd5b50505050612d97565b612d25612a3b565b60405163698c926960e01b81526001600160a01b038481166004830152336024830152604482018c905260648201899052919091169063698c926990608401600060405180830381600087803b158015612d7e57600080fd5b505af1158015612d92573d6000803e3d6000fd5b505050505b612dbc89612da3612a17565b33600090815260039190910160205260409020906136fe565b50612deb89612dc9612a17565b6001600160a01b038516600090815260039190910160205260409020906136fe565b5088336001600160a01b0316836001600160a01b03167fbce5ca9d48d884948b8b5aee2772ffbec48d9b402d499fa0f4a13692fbcbcb64868b8d878c604051612e389594939291906142ba565b60405180910390a45b50600198975050505050505050565b60007f360894a13ba1a3210667c828492db98dca3e2076cc3735a920a3ca505d382bbc61074c565b7f9acda75aebd150dd434541a4747a6dc606f4f1a59662477e67daf1fc0bf9e0aa80546001600160a01b038381166001600160a01b0319831681179093556040519116919082907f8be0079c531659141344cd1fd0a4f28419497f9722a3daafe3b4186f6b6457e090600090a35050565b6000805160206147e1833981519152546001600160a01b031615612f4f5760405162461bcd60e51b815260206004820152601b60248201527f7265736f6c766572207265676973746572656420616c72656164790000000000604482015260640161079e565b6000805160206147e183398151915280546001600160a01b0319166001600160a01b0392909216919091179055565b6000808080612f98612f9362015180886145fd565b61370a565b91945092509050612fa98583614558565b9150600c612fb8600184614541565b612fc291906145fd565b612fcc9084614558565b9250600c612fdb600184614541565b612fe59190614611565b612ff0906001614558565b91506000612ffe848461387e565b90508082111561300c578091505b6130196201518088614611565b62015180613028868686613904565b6130329190614625565b61303c9190614558565b94508685101561304b57600080fd5b5050505092915050565b806130915760405162461bcd60e51b815260206004820152600c60248201526b72617465206973207a65726f60a01b604482015260640161079e565b6130996129f3565b600085815260079190910160209081526040808320868452909152902060030154156131075760405162461bcd60e51b815260206004820152601860248201527f616c72656164792075706461746564206d617475726974790000000000000000604482015260640161079e565b8282116131495760405162461bcd60e51b815260206004820152601060248201526f696e76616c6964206d6174757269747960801b604482015260640161079e565b6131516129f3565b600085815260079190910160209081526040808320858452909152902060020154156131b25760405162461bcd60e51b815260206004820152601060248201526f65786973746564206d6174757269747960801b604482015260640161079e565b6131ba6129f3565b600085815260029190910160205260409020546131d56129f3565b600086815260019190910160205260409020541415613237576131f66129f3565b600085815260029190910160205260409020546132116129f3565b6000868152600791909101602090815260408083208784529091529020600201556132ac565b61323f6129f3565b6000858152600791909101602090815260408083208684529091529020600201546132ac5760405162461bcd60e51b815260206004820152601760248201527f696e76616c696420636f6d706f756e6420666163746f72000000000000000000604482015260640161079e565b816132b56129f3565b6000868152600791909101602090815260408083208784529091528120600301919091556132e38484614541565b90506132f56301e187e0612710614625565b6132ff8284614625565b61330f6301e187e0612710614625565b6133199190614558565b6133216129f3565b6000888152600291909101602052604090205461333e9190614625565b61334891906145fd565b6133506129f3565b6002016000878152602001908152602001600020819055506040518060a001604052808381526020018281526020016133876129f3565b600201600088815260200190815260200160002054815260200160008152602001858152506133b46129f3565b600087815260079190910160209081526040808320878452825291829020835181558382015160018201558383015160028201556060808501516003830155608090940151600490910155815186815290810185905290810183905286917fa392ce8ebef6129c2cb463c2660fa1fcf9f5d77aeab44ed2af2eea77913ff945910160405180910390a25050505050565b6000612a537121bab93932b731bca1b7b73a3937b63632b960711b61366d565b6000612a53742132b0b1b7b7283937bc3ca1b7b73a3937b63632b960591b61366d565b6000610aab825490565b600061349d8383613a41565b9392505050565b604051637a5fc22b60e01b81526001600160a01b0382811660048301526000918291851690637a5fc22b906024016040805180830381600087803b1580156134eb57600080fd5b505af11580156134ff573d6000803e3d6000fd5b505050506040513d601f19601f820116820180604052508101906135239190614644565b915091508160001461353d5761353b85848385613a6b565b505b5050505050565b600061349d8383613e79565b8061359d5760405162461bcd60e51b815260206004820152601760248201527f436f6d706f756e6420666163746f72206973207a65726f000000000000000000604482015260640161079e565b6135a68361075b565b156135f35760405162461bcd60e51b815260206004820152601b60248201527f416c726561647920726567697374657265642063757272656e63790000000000604482015260640161079e565b60016135fd6129f3565b600085815260209190915260409020805460ff1916911515919091179055816136246129f3565b600085815260039190910160205260409020805460ff191660ff92909216919091179055806136516129f3565b600085815260019190910160205260409020558061269a6129f3565b60008181527f4abde63c3e81aefa5764b017968bc473e83e093d7e1a10247d19e0a3e41240196020908152604080832054815170026b4b9b9b4b7339030b2323932b9b99d1607d1b9381019390935260318084018690528251808503909101815260519093019091526001600160a01b03169081610ba85760405162461bcd60e51b815260040161079e9190614668565b600061349d8383613f6c565b60008080838162253d8c6137218362010bd961432f565b61372b919061432f565b9050600062023ab161373e836004614443565b61374891906144de565b905060046137598262023ab1614443565b61376490600361432f565b61376e91906144de565b613778908361467b565b9150600062164b0961378b84600161432f565b61379790610fa0614443565b6137a191906144de565b905060046137b1826105b5614443565b6137bb91906144de565b6137c5908461467b565b6137d090601f61432f565b9250600061098f6137e2856050614443565b6137ec91906144de565b9050600060506137fe8361098f614443565b61380891906144de565b613812908661467b565b905061381f600b836144de565b945061382c85600c614443565b61383783600261432f565b613841919061467b565b9150848361385060318761467b565b61385b906064614443565b613865919061432f565b61386f919061432f565b9a919950975095505050505050565b6000816001148061388f5750816003145b8061389a5750816005145b806138a55750816007145b806138b05750816008145b806138bb575081600a145b806138c6575081600c145b156138d35750601f610aab565b816002146138e35750601e610aab565b6138ec83613fbb565b6138f757601c6138fa565b601d5b60ff169392505050565b60006107b284101561391557600080fd5b838383600062253d8c60046064600c61392f600e8861467b565b61393991906144de565b6139458861132461432f565b61394f919061432f565b61395991906144de565b613964906003614443565b61396e91906144de565b600c8061397c600e8861467b565b61398691906144de565b61399190600c614443565b61399c60028861467b565b6139a6919061467b565b6139b29061016f614443565b6139bc91906144de565b6004600c6139cb600e8961467b565b6139d591906144de565b6139e1896112c061432f565b6139eb919061432f565b6139f7906105b5614443565b613a0191906144de565b613a0d617d4b8761467b565b613a17919061432f565b613a21919061432f565b613a2b919061467b565b613a35919061467b565b98975050505050505050565b6000826000018281548110613a5857613a586142ea565b9060005260206000200154905092915050565b600080613a766129f3565b60008781526007919091016020908152604080832087845290915290206002015411613ae45760405162461bcd60e51b815260206004820181905260248201527f436f6d706f756e6420666163746f72206973206e6f7420666978656420796574604482015260640161079e565b6000613aee6129f3565b60008781526002919091016020526040902054613b096129f3565b6000888152600191909101602052604090205414613b4f57613b296129f3565b600087815260079190910160209081526040808320878452909152902060020154613b6b565b613b576129f3565b600087815260019190910160205260409020545b9050600081613b7988611360565b613b8490600a61479e565b613b8e9086614443565b613b9891906144de565b90506000613ba46129f3565b6000898152600491909101602090815260408083206001600160a01b038b16845290915281205491508212613cd25760008112613c125781613be46129f3565b60050160008a81526020019081526020016000206000828254613c079190614558565b90915550613de49050565b6000613c1e828461432f565b905060008112613c9a5780613c316129f3565b60050160008b81526020019081526020016000206000828254613c549190614558565b90915550613c649050818461467b565b613c6c6129f3565b60060160008b81526020019081526020016000206000828254613c8f9190614541565b90915550613ccc9050565b82613ca36129f3565b60060160008b81526020019081526020016000206000828254613cc69190614541565b90915550505b50613de4565b60008113613d0e57613ce3826147ad565b613ceb6129f3565b60060160008a81526020019081526020016000206000828254613c079190614558565b6000613d1a828461432f565b905060008113613da857613d2d816147ad565b613d356129f3565b60060160008b81526020019081526020016000206000828254613d589190614558565b90915550819050613d68846147ad565b613d72919061432f565b613d7a6129f3565b60050160008b81526020019081526020016000206000828254613d9d9190614541565b90915550613de29050565b613db1836147ad565b613db96129f3565b60050160008b81526020019081526020016000206000828254613ddc9190614541565b90915550505b505b81613ded6129f3565b60008a8152600491909101602090815260408083206001600160a01b038c16845290915281208054909190613e2390849061432f565b90915550506040518281526001600160a01b038816906000908a907f224d4ee1e2931416deb62bbde4f281397249c4a54319c43ee455efc348c13f4f9060200160405180910390a4506001979650505050505050565b60008181526001830160205260408120548015613f62576000613e9d600183614541565b8554909150600090613eb190600190614541565b9050818114613f16576000866000018281548110613ed157613ed16142ea565b9060005260206000200154905080876000018481548110613ef457613ef46142ea565b6000918252602080832090910192909255918252600188019052604090208390555b8554869080613f2757613f276147ca565b600190038181906000526020600020016000905590558560010160008681526020019081526020016000206000905560019350505050610aab565b6000915050610aab565b6000818152600183016020526040812054613fb357508154600181810184556000848152602080822090930184905584548482528286019093526040902091909155610aab565b506000610aab565b6000613fc8600483614611565b158015613fde5750613fdb606483614611565b15155b80610aab5750613ff061019083614611565b1592915050565b60006020828403121561400957600080fd5b5035919050565b60008060006060848603121561402557600080fd5b505081359360208301359350604090920135919050565b6000806040838503121561404f57600080fd5b50508035926020909101359150565b6001600160a01b038116811461284e57600080fd5b6000806040838503121561408657600080fd5b8235915060208301356140988161405e565b809150509250929050565b6002811061284e57600080fd5b600080600080600060a086880312156140c857600080fd5b853594506020860135935060408601356140e1816140a3565b94979396509394606081013594506080013592915050565b6020808252825182820181905260009190848201906040850190845b8181101561413a5783516001600160a01b031683529284019291840191600101614115565b50909695505050505050565b6020808252825182820181905260009190848201906040850190845b8181101561413a57835183529284019291840191600101614162565b6000806040838503121561419157600080fd5b823561419c8161405e565b915060208301356140988161405e565b6000602082840312156141be57600080fd5b813561349d8161405e565b6020808252601f908201527f5265656e7472616e637947756172643a207265656e7472616e742063616c6c00604082015260600190565b60208082526010908201526f496e76616c6964206d6174757269747960801b604082015260600190565b60008060006060848603121561423f57600080fd5b835161424a816140a3565b602085015160409095015190969495509392505050565b634e487b7160e01b600052602160045260246000fd5b6001600160a01b039390931683526020830191909152604082015260600190565b600281106142b657634e487b7160e01b600052602160045260246000fd5b9052565b85815260a081016142ce6020830187614298565b8460408301528360608301528260808301529695505050505050565b634e487b7160e01b600052603260045260246000fd5b60006020828403121561431257600080fd5b5051919050565b634e487b7160e01b600052601160045260246000fd5b600080821280156001600160ff1b038490038513161561435157614351614319565b600160ff1b839003841281161561436a5761436a614319565b50500190565b600060001982141561438457614384614319565b5060010190565b606081016143998286614298565b602082019390935260400152919050565b6000815180845260005b818110156143d0576020818501810151868301820152016143b4565b818111156143e2576000602083870101525b50601f01601f19169290920160200192915050565b8281526040602082015260006113aa60408301846143aa565b60006020828403121561442257600080fd5b815161349d8161405e565b634e487b7160e01b600052604160045260246000fd5b60006001600160ff1b038184138284138082168684048611161561446957614469614319565b600160ff1b600087128281168783058912161561448857614488614319565b600087129250878205871284841616156144a4576144a4614319565b878505871281841616156144ba576144ba614319565b505050929093029392505050565b634e487b7160e01b600052601260045260246000fd5b6000826144ed576144ed6144c8565b600160ff1b82146000198414161561450757614507614319565b500590565b6020808252818101527f4f776e61626c653a2063616c6c6572206973206e6f7420746865206f776e6572604082015260600190565b60008282101561455357614553614319565b500390565b6000821982111561456b5761456b614319565b500190565b60006020828403121561458257600080fd5b8151801515811461349d57600080fd5b608081016145a08287614298565b6001600160a01b039490941660208201526040810192909252606090910152919050565b6000806000606084860312156145d957600080fd5b8351925060208401516145eb8161405e565b80925050604084015190509250925092565b60008261460c5761460c6144c8565b500490565b600082614620576146206144c8565b500690565b600081600019048311821515161561463f5761463f614319565b500290565b6000806040838503121561465757600080fd5b505080516020909101519092909150565b60208152600061349d60208301846143aa565b60008083128015600160ff1b85018412161561469957614699614319565b6001600160ff1b03840183138116156146b4576146b4614319565b50500390565b600181815b808511156146f55781600019048211156146db576146db614319565b808516156146e857918102915b93841c93908002906146bf565b509250929050565b60008261470c57506001610aab565b8161471957506000610aab565b816001811461472f576002811461473957614755565b6001915050610aab565b60ff84111561474a5761474a614319565b50506001821b610aab565b5060208310610133831016604e8410600b8410161715614778575081810a610aab565b61478283836146ba565b806000190482111561479657614796614319565b029392505050565b600061349d60ff8416836146fd565b6000600160ff1b8214156147c3576147c3614319565b5060000390565b634e487b7160e01b600052603160045260246000fdfe4abde63c3e81aefa5764b017968bc473e83e093d7e1a10247d19e0a3e4124018a2646970667358221220322ef82e4ee7009e295bcb4804b81990f7f6f80da27e8ba0a70badf1272a5f4b64736f6c63430008090033",
  "libraries": {
    "QuickSort": "0x1F6A8226a0Fab87162d9584eAA9cd7B216D5c2d2"
  },
  "implementation": "0x75F47Fc380380D3C879CfF14E6310f1F13E947ff",
  "devdoc": {
    "kind": "dev",
    "methods": {
      "acceptedContracts()": {
        "details": "The contact name listed in this method is also needed to be listed `requiredContracts` method."
      },
      "cancelOrder(bytes32,uint256,uint256)": {
        "params": {
          "_ccy": "Currency name in bytes32 of the selected market",
          "_maturity": "The maturity of the selected market",
          "_orderId": "Market order id"
        }
      },
      "convertFutureValueToGenesisValue(address)": {
        "params": {
          "_user": "User's address"
        }
      },
      "createLendOrderWithETH(bytes32,uint256,uint256)": {
        "params": {
          "_ccy": "Currency name in bytes32 of the selected market",
          "_maturity": "The maturity of the selected market",
          "_rate": "Amount of interest rate taker wish to borrow/lend"
        },
        "returns": {
          "_0": "True if the execution of the operation succeeds"
        }
      },
      "createLendingMarket(bytes32)": {
        "params": {
          "_ccy": "Main currency for new lending market"
        },
        "returns": {
          "market": "The proxy contract address of created lending market"
        }
      },
      "createOrder(bytes32,uint256,uint8,uint256,uint256)": {
        "params": {
          "_amount": "Amount of funds the maker wants to borrow/lend",
          "_ccy": "Currency name in bytes32 of the selected market",
          "_maturity": "The maturity of the selected market",
          "_rate": "Amount of interest rate taker wish to borrow/lend",
          "_side": "Order position type, Borrow or Lend"
        },
        "returns": {
          "_0": "True if the execution of the operation succeeds"
        }
      },
      "getBasisDate(bytes32)": {
        "params": {
          "_ccy": "Currency name in bytes32"
        },
        "returns": {
          "_0": "The basis date"
        }
      },
      "getBorrowRates(bytes32)": {
        "params": {
          "_ccy": "Currency name in bytes32"
        },
        "returns": {
          "_0": "Array with the borrowing rate of the lending market"
        }
      },
      "getLendRates(bytes32)": {
        "params": {
          "_ccy": "Currency name in bytes32"
        },
        "returns": {
          "_0": "Array with the lending rate of the lending market"
        }
      },
      "getLendingMarket(bytes32,uint256)": {
        "params": {
          "_ccy": "Currency name in bytes32",
          "_maturity": "The maturity of the market"
        },
        "returns": {
          "_0": "The lending market address"
        }
      },
      "getLendingMarkets(bytes32)": {
        "params": {
          "_ccy": "Currency name in bytes32"
        },
        "returns": {
          "_0": "Array with the lending market address"
        }
      },
      "getMaturities(bytes32)": {
        "params": {
          "_ccy": "Currency name in bytes32"
        },
        "returns": {
          "_0": "Array with the lending market maturity"
        }
      },
      "getMidRates(bytes32)": {
        "params": {
          "_ccy": "Currency name in bytes32"
        },
        "returns": {
          "_0": "Array with the mid rate of the lending market"
        }
      },
      "getTotalPresentValue(bytes32,address)": {
        "params": {
          "_account": "Target account address",
          "_ccy": "Currency name in bytes32 for Lending Market"
        },
        "returns": {
          "totalPresentValue": "The total present value"
        }
      },
      "getTotalPresentValueInETH(address)": {
        "params": {
          "_account": "Target account address"
        },
        "returns": {
          "totalPresentValue": "The total present value in ETH"
        }
      },
      "initialize(address,address)": {
        "details": "Function is invoked by the proxy contract when the contract is added to the ProxyController.",
        "params": {
          "_owner": "The address of the contract owner",
          "_resolver": "The address of the Address Resolver contract"
        }
      },
      "initializeLendingMarket(bytes32,uint256,uint256)": {
        "params": {
          "_basisDate": "The basis date when the initial market is opened",
          "_ccy": "Currency name in bytes32",
          "_compoundFactor": "The initial compound factor when the initial market is opened"
        }
      },
      "isInitializedLendingMarket(bytes32)": {
        "params": {
          "_ccy": "Currency name in bytes32"
        },
        "returns": {
          "_0": "The boolean if the lending market is initialized or not"
        }
      },
      "matchOrders(bytes32,uint256,uint8,uint256,uint256)": {
        "params": {
          "_amount": "Amount of funds the maker wants to borrow/lend",
          "_ccy": "Currency name in bytes32 of the selected market",
          "_maturity": "The maturity of the selected market",
          "_rate": "Amount of interest rate taker wish to borrow/lend",
          "_side": "Order position type, Borrow or Lend"
        },
        "returns": {
          "_0": "True if the execution of the operation succeeds"
        }
      },
      "owner()": {
        "details": "Returns the address of the current owner."
      },
      "pauseLendingMarkets(bytes32)": {
        "params": {
          "_ccy": "Currency for pausing all lending markets"
        },
        "returns": {
          "_0": "True if the execution of the operation succeeds"
        }
      },
      "renounceOwnership()": {
        "details": "Leaves the contract without owner. It will not be possible to call `onlyOwner` functions anymore. Can only be called by the current owner. NOTE: Renouncing ownership will leave the contract without an owner, thereby removing any functionality that is only available to the owner."
      },
      "requiredContracts()": {
        "details": "The contract name list is in `./libraries/Contracts.sol`."
      },
      "rotateLendingMarkets(bytes32)": {
        "params": {
          "_ccy": "Currency name in bytes32 of the selected market"
        }
      },
      "transferOwnership(address)": {
        "details": "Transfers ownership of the contract to a new account (`newOwner`). Can only be called by the current owner."
      },
      "unpauseLendingMarkets(bytes32)": {
        "params": {
          "_ccy": "Currency for pausing all lending markets"
        },
        "returns": {
          "_0": "True if the execution of the operation succeeds"
        }
      }
    },
    "version": 1
  },
  "userdoc": {
    "kind": "user",
    "methods": {
      "acceptedContracts()": {
        "notice": "Returns contract names that can call this contract."
      },
      "cancelOrder(bytes32,uint256,uint256)": {
        "notice": "Cancels the own order."
      },
      "convertFutureValueToGenesisValue(address)": {
        "notice": "Converts FutureValue to GenesisValue if there is balance in the past maturity."
      },
      "createLendOrderWithETH(bytes32,uint256,uint256)": {
        "notice": "Creates the lend order with ETH. Takes the order if the order is matched, and places new order if not match it."
      },
      "createLendingMarket(bytes32)": {
        "notice": "Deploys new Lending Market and save address at lendingMarkets mapping.Reverts on deployment market with existing currency and term"
      },
      "createOrder(bytes32,uint256,uint8,uint256,uint256)": {
        "notice": "Creates the order. Takes the order if the order is matched, and places new order if not match it. In addition, converts the future value to the genesis value if there is future value in past maturity before the execution of order creation."
      },
      "getBasisDate(bytes32)": {
        "notice": "Gets the basis date when the first market opens for the selected currency."
      },
      "getBorrowRates(bytes32)": {
        "notice": "Gets borrow rates for the selected currency."
      },
      "getLendRates(bytes32)": {
        "notice": "Gets lend rates for the selected currency."
      },
      "getLendingMarket(bytes32,uint256)": {
        "notice": "Gets the lending market contract address for the selected currency and maturity."
      },
      "getLendingMarkets(bytes32)": {
        "notice": "Gets the lending market contract addresses for the selected currency."
      },
      "getMaturities(bytes32)": {
        "notice": "Gets maturities for the selected currency."
      },
      "getMidRates(bytes32)": {
        "notice": "Gets mid rates for the selected currency."
      },
      "getTotalPresentValue(bytes32,address)": {
        "notice": "Gets the total present value of the account for selected currency."
      },
      "getTotalPresentValueInETH(address)": {
        "notice": "Gets the total present value of the account converted to ETH."
      },
      "initialize(address,address)": {
        "notice": "Initializes the contract."
      },
      "initializeLendingMarket(bytes32,uint256,uint256)": {
        "notice": "Initialize the lending market to set a basis date and compound factor"
      },
      "isInitializedLendingMarket(bytes32)": {
        "notice": "Gets if the lending market is initialized."
      },
      "matchOrders(bytes32,uint256,uint8,uint256,uint256)": {
        "notice": "Gets if the market order will be matched or not."
      },
      "pauseLendingMarkets(bytes32)": {
        "notice": "Pauses previously deployed lending market by currency"
      },
      "requiredContracts()": {
        "notice": "Returns the contract names used in this contract."
      },
      "rotateLendingMarkets(bytes32)": {
        "notice": "Rotate the lending markets. In this rotation, the following actions are happened. - Updates the maturity at the beginning of the market array. - Moves the beginning of the market array to the end of it. - Update the compound factor in this contract using the next market rate."
      },
      "unpauseLendingMarkets(bytes32)": {
        "notice": "Unpauses previously deployed lending market by currency"
      }
    },
    "notice": "Implements the module to manage separated lending order-book markets per maturity. This contract also works as a factory contract that can deploy(start)a new lending market for selected currency and maturity and has the calculation logic for the Genesis value in addition. Deployed Lending Markets are rotated and reused as it reaches the maturity date. At the time of rotation, a new maturity date is set and the compound factor is updated. The users mainly call this contract to create orders to lend or borrow funds.",
    "version": 1
  },
  "storageLayout": {
    "storage": [
      {
        "astId": 1053,
        "contract": "contracts/LendingMarketController.sol:LendingMarketController",
        "label": "_status",
        "offset": 0,
        "slot": "0",
        "type": "t_uint256"
      },
      {
        "astId": 790,
        "contract": "contracts/LendingMarketController.sol:LendingMarketController",
        "label": "_initialized",
        "offset": 0,
        "slot": "1",
        "type": "t_uint8"
      },
      {
        "astId": 793,
        "contract": "contracts/LendingMarketController.sol:LendingMarketController",
        "label": "_initializing",
        "offset": 1,
        "slot": "1",
        "type": "t_bool"
      }
    ],
    "types": {
      "t_bool": {
        "encoding": "inplace",
        "label": "bool",
        "numberOfBytes": "1"
      },
      "t_uint256": {
        "encoding": "inplace",
        "label": "uint256",
        "numberOfBytes": "32"
      },
      "t_uint8": {
        "encoding": "inplace",
        "label": "uint8",
        "numberOfBytes": "1"
      }
    }
  }
}