{
  "address": "0x25A7b8bcA7E02E643fC60B992854ABc32feB295B",
  "abi": [
    {
      "anonymous": false,
      "inputs": [
        {
          "indexed": false,
          "internalType": "uint256",
          "name": "previousRate",
          "type": "uint256"
        },
        {
          "indexed": false,
          "internalType": "uint256",
          "name": "rate",
          "type": "uint256"
        }
      ],
      "name": "AutoRollFeeRateUpdated",
      "type": "event"
    },
    {
      "anonymous": false,
      "inputs": [
        {
          "indexed": false,
          "internalType": "bytes32",
          "name": "name",
          "type": "bytes32"
        },
        {
          "indexed": false,
          "internalType": "address",
          "name": "destination",
          "type": "address"
        }
      ],
      "name": "CacheUpdated",
      "type": "event"
    },
    {
      "anonymous": false,
      "inputs": [
        {
          "indexed": false,
          "internalType": "uint8",
          "name": "version",
          "type": "uint8"
        }
      ],
      "name": "Initialized",
      "type": "event"
    },
    {
      "anonymous": false,
      "inputs": [
        {
          "indexed": true,
          "internalType": "bytes32",
          "name": "ccy",
          "type": "bytes32"
        },
        {
          "indexed": true,
          "internalType": "address",
          "name": "marketAddr",
          "type": "address"
        },
        {
          "indexed": false,
          "internalType": "address",
          "name": "futureValueVault",
          "type": "address"
        },
        {
          "indexed": false,
          "internalType": "uint256",
          "name": "index",
          "type": "uint256"
        },
        {
          "indexed": false,
          "internalType": "uint256",
          "name": "openingDate",
          "type": "uint256"
        },
        {
          "indexed": false,
          "internalType": "uint256",
          "name": "maturity",
          "type": "uint256"
        }
      ],
      "name": "LendingMarketCreated",
      "type": "event"
    },
    {
      "anonymous": false,
      "inputs": [
        {
          "indexed": false,
          "internalType": "bytes32",
          "name": "ccy",
          "type": "bytes32"
        },
        {
          "indexed": false,
          "internalType": "uint256",
          "name": "oldMaturity",
          "type": "uint256"
        },
        {
          "indexed": false,
          "internalType": "uint256",
          "name": "newMaturity",
          "type": "uint256"
        }
      ],
      "name": "LendingMarketsRotated",
      "type": "event"
    },
    {
      "anonymous": false,
      "inputs": [
        {
          "indexed": true,
          "internalType": "address",
          "name": "user",
          "type": "address"
        },
        {
          "indexed": false,
          "internalType": "bytes32",
          "name": "collateralCcy",
          "type": "bytes32"
        },
        {
          "indexed": true,
          "internalType": "bytes32",
          "name": "debtCcy",
          "type": "bytes32"
        },
        {
          "indexed": true,
          "internalType": "uint256",
          "name": "debtMaturity",
          "type": "uint256"
        },
        {
          "indexed": false,
          "internalType": "uint256",
          "name": "amount",
          "type": "uint256"
        }
      ],
      "name": "LiquidationExecuted",
      "type": "event"
    },
    {
      "anonymous": false,
      "inputs": [
        {
          "indexed": false,
          "internalType": "uint48",
          "name": "orderId",
          "type": "uint48"
        },
        {
          "indexed": true,
          "internalType": "address",
          "name": "maker",
          "type": "address"
        },
        {
          "indexed": true,
          "internalType": "bytes32",
          "name": "ccy",
          "type": "bytes32"
        },
        {
          "indexed": false,
          "internalType": "enum ProtocolTypes.Side",
          "name": "side",
          "type": "uint8"
        },
        {
          "indexed": false,
          "internalType": "uint256",
          "name": "maturity",
          "type": "uint256"
        },
        {
          "indexed": false,
          "internalType": "uint256",
          "name": "amount",
          "type": "uint256"
        },
        {
          "indexed": false,
          "internalType": "uint256",
          "name": "unitPrice",
          "type": "uint256"
        }
      ],
      "name": "OrderCanceled",
      "type": "event"
    },
    {
      "anonymous": false,
      "inputs": [
        {
          "indexed": false,
          "internalType": "uint256",
          "name": "previousRate",
          "type": "uint256"
        },
        {
          "indexed": false,
          "internalType": "uint256",
          "name": "rate",
          "type": "uint256"
        }
      ],
      "name": "OrderFeeRateUpdated",
      "type": "event"
    },
    {
      "anonymous": false,
      "inputs": [
        {
          "indexed": true,
          "internalType": "address",
          "name": "taker",
          "type": "address"
        },
        {
          "indexed": true,
          "internalType": "bytes32",
          "name": "ccy",
          "type": "bytes32"
        },
        {
          "indexed": false,
          "internalType": "enum ProtocolTypes.Side",
          "name": "side",
          "type": "uint8"
        },
        {
          "indexed": true,
          "internalType": "uint256",
          "name": "maturity",
          "type": "uint256"
        },
        {
          "indexed": false,
          "internalType": "uint256",
          "name": "amount",
          "type": "uint256"
        },
        {
          "indexed": false,
          "internalType": "uint256",
          "name": "unitPrice",
          "type": "uint256"
        },
        {
          "indexed": false,
          "internalType": "uint256",
          "name": "filledFutureValue",
          "type": "uint256"
        }
      ],
      "name": "OrderFilled",
      "type": "event"
    },
    {
      "anonymous": false,
      "inputs": [
        {
          "indexed": true,
          "internalType": "address",
          "name": "taker",
          "type": "address"
        },
        {
          "indexed": true,
          "internalType": "bytes32",
          "name": "ccy",
          "type": "bytes32"
        },
        {
          "indexed": false,
          "internalType": "enum ProtocolTypes.Side",
          "name": "side",
          "type": "uint8"
        },
        {
          "indexed": true,
          "internalType": "uint256",
          "name": "maturity",
          "type": "uint256"
        },
        {
          "indexed": false,
          "internalType": "uint256",
          "name": "filledFutureValue",
          "type": "uint256"
        }
      ],
      "name": "OrdersFilledInAsync",
      "type": "event"
    },
    {
      "anonymous": false,
      "inputs": [
        {
          "indexed": true,
          "internalType": "address",
          "name": "previousOwner",
          "type": "address"
        },
        {
          "indexed": true,
          "internalType": "address",
          "name": "newOwner",
          "type": "address"
        }
      ],
      "name": "OwnershipTransferred",
      "type": "event"
    },
    {
      "inputs": [],
      "name": "acceptedContracts",
      "outputs": [
        {
          "internalType": "bytes32[]",
          "name": "contracts",
          "type": "bytes32[]"
        }
      ],
      "stateMutability": "pure",
      "type": "function"
    },
    {
      "inputs": [],
      "name": "buildCache",
      "outputs": [],
      "stateMutability": "nonpayable",
      "type": "function"
    },
    {
      "inputs": [
        {
          "internalType": "bytes32",
          "name": "_ccy",
          "type": "bytes32"
        },
        {
          "internalType": "address",
          "name": "_user",
          "type": "address"
        }
      ],
      "name": "calculateFunds",
      "outputs": [
        {
          "internalType": "uint256",
          "name": "workingLendOrdersAmount",
          "type": "uint256"
        },
        {
          "internalType": "uint256",
          "name": "claimableAmount",
          "type": "uint256"
        },
        {
          "internalType": "uint256",
          "name": "collateralAmount",
          "type": "uint256"
        },
        {
          "internalType": "uint256",
          "name": "lentAmount",
          "type": "uint256"
        },
        {
          "internalType": "uint256",
          "name": "workingBorrowOrdersAmount",
          "type": "uint256"
        },
        {
          "internalType": "uint256",
          "name": "debtAmount",
          "type": "uint256"
        },
        {
          "internalType": "uint256",
          "name": "borrowedAmount",
          "type": "uint256"
        }
      ],
      "stateMutability": "view",
      "type": "function"
    },
    {
      "inputs": [
        {
          "internalType": "address",
          "name": "_user",
          "type": "address"
        },
        {
          "internalType": "bytes32",
          "name": "_depositCcy",
          "type": "bytes32"
        },
        {
          "internalType": "uint256",
          "name": "_depositAmount",
          "type": "uint256"
        }
      ],
      "name": "calculateTotalFundsInETH",
      "outputs": [
        {
          "internalType": "uint256",
          "name": "totalWorkingLendOrdersAmount",
          "type": "uint256"
        },
        {
          "internalType": "uint256",
          "name": "totalClaimableAmount",
          "type": "uint256"
        },
        {
          "internalType": "uint256",
          "name": "totalCollateralAmount",
          "type": "uint256"
        },
        {
          "internalType": "uint256",
          "name": "totalLentAmount",
          "type": "uint256"
        },
        {
          "internalType": "uint256",
          "name": "totalWorkingBorrowOrdersAmount",
          "type": "uint256"
        },
        {
          "internalType": "uint256",
          "name": "totalDebtAmount",
          "type": "uint256"
        },
        {
          "internalType": "uint256",
          "name": "totalBorrowedAmount",
          "type": "uint256"
        },
        {
          "internalType": "bool",
          "name": "isEnoughDeposit",
          "type": "bool"
        }
      ],
      "stateMutability": "view",
      "type": "function"
    },
    {
      "inputs": [
        {
          "internalType": "bytes32",
          "name": "_ccy",
          "type": "bytes32"
        },
        {
          "internalType": "uint256",
          "name": "_maturity",
          "type": "uint256"
        },
        {
          "internalType": "uint48",
          "name": "_orderId",
          "type": "uint48"
        }
      ],
      "name": "cancelOrder",
      "outputs": [
        {
          "internalType": "bool",
          "name": "",
          "type": "bool"
        }
      ],
      "stateMutability": "nonpayable",
      "type": "function"
    },
    {
      "inputs": [
        {
          "internalType": "address",
          "name": "_user",
          "type": "address"
        }
      ],
      "name": "cleanAllOrders",
      "outputs": [],
      "stateMutability": "nonpayable",
      "type": "function"
    },
    {
      "inputs": [
        {
          "internalType": "bytes32",
          "name": "_ccy",
          "type": "bytes32"
        },
        {
          "internalType": "address",
          "name": "_user",
          "type": "address"
        }
      ],
      "name": "cleanOrders",
      "outputs": [
        {
          "internalType": "uint256",
          "name": "totalActiveOrderCount",
          "type": "uint256"
        }
      ],
      "stateMutability": "nonpayable",
      "type": "function"
    },
    {
      "inputs": [
        {
          "internalType": "bytes32",
          "name": "_ccy",
          "type": "bytes32"
        },
        {
          "internalType": "uint256",
          "name": "_openingDate",
          "type": "uint256"
        }
      ],
      "name": "createLendingMarket",
      "outputs": [],
      "stateMutability": "nonpayable",
      "type": "function"
    },
    {
      "inputs": [
        {
          "internalType": "bytes32",
          "name": "_ccy",
          "type": "bytes32"
        },
        {
          "internalType": "uint256",
          "name": "_maturity",
          "type": "uint256"
        },
        {
          "internalType": "enum ProtocolTypes.Side",
          "name": "_side",
          "type": "uint8"
        },
        {
          "internalType": "uint256",
          "name": "_amount",
          "type": "uint256"
        },
        {
          "internalType": "uint256",
          "name": "_unitPrice",
          "type": "uint256"
        }
      ],
      "name": "createOrder",
      "outputs": [
        {
          "internalType": "bool",
          "name": "",
          "type": "bool"
        }
      ],
      "stateMutability": "nonpayable",
      "type": "function"
    },
    {
      "inputs": [
        {
          "internalType": "bytes32",
          "name": "_ccy",
          "type": "bytes32"
        },
        {
          "internalType": "uint256",
          "name": "_maturity",
          "type": "uint256"
        },
        {
          "internalType": "enum ProtocolTypes.Side",
          "name": "_side",
          "type": "uint8"
        },
        {
          "internalType": "uint256",
          "name": "_amount",
          "type": "uint256"
        },
        {
          "internalType": "uint256",
          "name": "_unitPrice",
          "type": "uint256"
        }
      ],
      "name": "createPreOrder",
      "outputs": [
        {
          "internalType": "bool",
          "name": "",
          "type": "bool"
        }
      ],
      "stateMutability": "nonpayable",
      "type": "function"
    },
    {
      "inputs": [
        {
          "internalType": "bytes32",
          "name": "_ccy",
          "type": "bytes32"
        },
        {
          "internalType": "uint256",
          "name": "_maturity",
          "type": "uint256"
        },
        {
          "internalType": "enum ProtocolTypes.Side",
          "name": "_side",
          "type": "uint8"
        },
        {
          "internalType": "uint256",
          "name": "_amount",
          "type": "uint256"
        },
        {
          "internalType": "uint256",
          "name": "_unitPrice",
          "type": "uint256"
        }
      ],
      "name": "depositAndCreateOrder",
      "outputs": [
        {
          "internalType": "bool",
          "name": "",
          "type": "bool"
        }
      ],
      "stateMutability": "payable",
      "type": "function"
    },
    {
      "inputs": [
        {
          "internalType": "bytes32",
          "name": "_ccy",
          "type": "bytes32"
        },
        {
          "internalType": "uint256",
          "name": "_maturity",
          "type": "uint256"
        },
        {
          "internalType": "enum ProtocolTypes.Side",
          "name": "_side",
          "type": "uint8"
        },
        {
          "internalType": "uint256",
          "name": "_amount",
          "type": "uint256"
        },
        {
          "internalType": "uint256",
          "name": "_unitPrice",
          "type": "uint256"
        }
      ],
      "name": "depositAndCreatePreOrder",
      "outputs": [
        {
          "internalType": "bool",
          "name": "",
          "type": "bool"
        }
      ],
      "stateMutability": "payable",
      "type": "function"
    },
    {
      "inputs": [
        {
          "internalType": "bytes32",
          "name": "_collateralCcy",
          "type": "bytes32"
        },
        {
          "internalType": "bytes32",
          "name": "_debtCcy",
          "type": "bytes32"
        },
        {
          "internalType": "uint256",
          "name": "_debtMaturity",
          "type": "uint256"
        },
        {
          "internalType": "address",
          "name": "_user",
          "type": "address"
        },
        {
          "internalType": "uint24",
          "name": "_poolFee",
          "type": "uint24"
        }
      ],
      "name": "executeLiquidationCall",
      "outputs": [
        {
          "internalType": "bool",
          "name": "",
          "type": "bool"
        }
      ],
      "stateMutability": "nonpayable",
      "type": "function"
    },
    {
      "inputs": [
        {
          "internalType": "bytes32[]",
          "name": "_currencies",
          "type": "bytes32[]"
        },
        {
          "internalType": "uint256",
          "name": "_maturity",
          "type": "uint256"
        }
      ],
      "name": "executeMultiItayoseCall",
      "outputs": [
        {
          "internalType": "bool",
          "name": "",
          "type": "bool"
        }
      ],
      "stateMutability": "nonpayable",
      "type": "function"
    },
    {
      "inputs": [
        {
          "internalType": "bytes32",
          "name": "_ccy",
          "type": "bytes32"
        }
      ],
      "name": "getAutoRollFeeRate",
      "outputs": [
        {
          "internalType": "uint256",
          "name": "",
          "type": "uint256"
        }
      ],
      "stateMutability": "view",
      "type": "function"
    },
    {
      "inputs": [
        {
          "internalType": "bytes32",
          "name": "_ccy",
          "type": "bytes32"
        },
        {
          "internalType": "uint256",
          "name": "_maturity",
          "type": "uint256"
        },
        {
          "internalType": "uint256",
          "name": "_limit",
          "type": "uint256"
        }
      ],
      "name": "getBorrowOrderBook",
      "outputs": [
        {
          "internalType": "uint256[]",
          "name": "unitPrices",
          "type": "uint256[]"
        },
        {
          "internalType": "uint256[]",
          "name": "amounts",
          "type": "uint256[]"
        },
        {
          "internalType": "uint256[]",
          "name": "quantities",
          "type": "uint256[]"
        }
      ],
      "stateMutability": "view",
      "type": "function"
    },
    {
      "inputs": [
        {
          "internalType": "bytes32",
          "name": "_ccy",
          "type": "bytes32"
        }
      ],
      "name": "getBorrowUnitPrices",
      "outputs": [
        {
          "internalType": "uint256[]",
          "name": "",
          "type": "uint256[]"
        }
      ],
      "stateMutability": "view",
      "type": "function"
    },
    {
      "inputs": [
        {
          "internalType": "bytes32",
          "name": "_ccy",
          "type": "bytes32"
        },
        {
          "internalType": "uint256",
          "name": "_maturity",
          "type": "uint256"
        },
        {
          "internalType": "address",
          "name": "_user",
          "type": "address"
        }
      ],
      "name": "getFutureValue",
      "outputs": [
        {
          "internalType": "int256",
          "name": "futureValue",
          "type": "int256"
        }
      ],
      "stateMutability": "view",
      "type": "function"
    },
    {
      "inputs": [
        {
          "internalType": "bytes32",
          "name": "_ccy",
          "type": "bytes32"
        },
        {
          "internalType": "uint256",
          "name": "_maturity",
          "type": "uint256"
        }
      ],
      "name": "getFutureValueVault",
      "outputs": [
        {
          "internalType": "address",
          "name": "",
          "type": "address"
        }
      ],
      "stateMutability": "view",
      "type": "function"
    },
    {
      "inputs": [
        {
          "internalType": "bytes32",
          "name": "_ccy",
          "type": "bytes32"
        }
      ],
      "name": "getGenesisDate",
      "outputs": [
        {
          "internalType": "uint256",
          "name": "",
          "type": "uint256"
        }
      ],
      "stateMutability": "view",
      "type": "function"
    },
    {
      "inputs": [
        {
          "internalType": "bytes32",
          "name": "_ccy",
          "type": "bytes32"
        },
        {
          "internalType": "address",
          "name": "_user",
          "type": "address"
        }
      ],
      "name": "getGenesisValue",
      "outputs": [
        {
          "internalType": "int256",
          "name": "genesisValue",
          "type": "int256"
        }
      ],
      "stateMutability": "view",
      "type": "function"
    },
    {
      "inputs": [
        {
          "internalType": "bytes32",
          "name": "_ccy",
          "type": "bytes32"
        },
        {
          "internalType": "uint256",
          "name": "_maturity",
          "type": "uint256"
        },
        {
          "internalType": "uint256",
          "name": "_limit",
          "type": "uint256"
        }
      ],
      "name": "getLendOrderBook",
      "outputs": [
        {
          "internalType": "uint256[]",
          "name": "unitPrices",
          "type": "uint256[]"
        },
        {
          "internalType": "uint256[]",
          "name": "amounts",
          "type": "uint256[]"
        },
        {
          "internalType": "uint256[]",
          "name": "quantities",
          "type": "uint256[]"
        }
      ],
      "stateMutability": "view",
      "type": "function"
    },
    {
      "inputs": [
        {
          "internalType": "bytes32",
          "name": "_ccy",
          "type": "bytes32"
        }
      ],
      "name": "getLendUnitPrices",
      "outputs": [
        {
          "internalType": "uint256[]",
          "name": "",
          "type": "uint256[]"
        }
      ],
      "stateMutability": "view",
      "type": "function"
    },
    {
      "inputs": [
        {
          "internalType": "bytes32",
          "name": "_ccy",
          "type": "bytes32"
        },
        {
          "internalType": "uint256",
          "name": "_maturity",
          "type": "uint256"
        }
      ],
      "name": "getLendingMarket",
      "outputs": [
        {
          "internalType": "address",
          "name": "",
          "type": "address"
        }
      ],
      "stateMutability": "view",
      "type": "function"
    },
    {
      "inputs": [
        {
          "internalType": "bytes32",
          "name": "_ccy",
          "type": "bytes32"
        }
      ],
      "name": "getLendingMarkets",
      "outputs": [
        {
          "internalType": "address[]",
          "name": "",
          "type": "address[]"
        }
      ],
      "stateMutability": "view",
      "type": "function"
    },
    {
      "inputs": [
        {
          "internalType": "bytes32",
          "name": "_ccy",
          "type": "bytes32"
        }
      ],
      "name": "getMaturities",
      "outputs": [
        {
          "internalType": "uint256[]",
          "name": "",
          "type": "uint256[]"
        }
      ],
      "stateMutability": "view",
      "type": "function"
    },
    {
      "inputs": [
        {
          "internalType": "bytes32",
          "name": "_ccy",
          "type": "bytes32"
        }
      ],
      "name": "getMidUnitPrices",
      "outputs": [
        {
          "internalType": "uint256[]",
          "name": "",
          "type": "uint256[]"
        }
      ],
      "stateMutability": "view",
      "type": "function"
    },
    {
      "inputs": [
        {
          "internalType": "bytes32",
          "name": "_ccy",
          "type": "bytes32"
        }
      ],
      "name": "getOrderFeeRate",
      "outputs": [
        {
          "internalType": "uint256",
          "name": "",
          "type": "uint256"
        }
      ],
      "stateMutability": "view",
      "type": "function"
    },
    {
      "inputs": [
        {
          "internalType": "bytes32",
          "name": "_ccy",
          "type": "bytes32"
        },
        {
          "internalType": "uint256",
          "name": "_maturity",
          "type": "uint256"
        },
        {
          "internalType": "address",
          "name": "_user",
          "type": "address"
        }
      ],
      "name": "getPresentValue",
      "outputs": [
        {
          "internalType": "int256",
          "name": "presentValue",
          "type": "int256"
        }
      ],
      "stateMutability": "view",
      "type": "function"
    },
    {
      "inputs": [
        {
          "internalType": "bytes32",
          "name": "_ccy",
          "type": "bytes32"
        },
        {
          "internalType": "address",
          "name": "_user",
          "type": "address"
        }
      ],
      "name": "getTotalPresentValue",
      "outputs": [
        {
          "internalType": "int256",
          "name": "totalPresentValue",
          "type": "int256"
        }
      ],
      "stateMutability": "view",
      "type": "function"
    },
    {
      "inputs": [
        {
          "internalType": "address",
          "name": "_user",
          "type": "address"
        }
      ],
      "name": "getTotalPresentValueInETH",
      "outputs": [
        {
          "internalType": "int256",
          "name": "totalPresentValue",
          "type": "int256"
        }
      ],
      "stateMutability": "view",
      "type": "function"
    },
    {
      "inputs": [
        {
          "internalType": "address",
          "name": "_user",
          "type": "address"
        }
      ],
      "name": "getUsedCurrencies",
      "outputs": [
        {
          "internalType": "bytes32[]",
          "name": "",
          "type": "bytes32[]"
        }
      ],
      "stateMutability": "view",
      "type": "function"
    },
    {
      "inputs": [
        {
          "internalType": "address",
          "name": "_owner",
          "type": "address"
        },
        {
          "internalType": "address",
          "name": "_resolver",
          "type": "address"
        }
      ],
      "name": "initialize",
      "outputs": [],
      "stateMutability": "nonpayable",
      "type": "function"
    },
    {
      "inputs": [
        {
          "internalType": "bytes32",
          "name": "_ccy",
          "type": "bytes32"
        },
        {
          "internalType": "uint256",
          "name": "_genesisDate",
          "type": "uint256"
        },
        {
          "internalType": "uint256",
          "name": "_compoundFactor",
          "type": "uint256"
        },
        {
          "internalType": "uint256",
          "name": "_orderFeeRate",
          "type": "uint256"
        },
        {
          "internalType": "uint256",
          "name": "_autoRollFeeRate",
          "type": "uint256"
        }
      ],
      "name": "initializeLendingMarket",
      "outputs": [],
      "stateMutability": "nonpayable",
      "type": "function"
    },
    {
      "inputs": [
        {
          "internalType": "bytes32",
          "name": "_ccy",
          "type": "bytes32"
        }
      ],
      "name": "isInitializedLendingMarket",
      "outputs": [
        {
          "internalType": "bool",
          "name": "",
          "type": "bool"
        }
      ],
      "stateMutability": "view",
      "type": "function"
    },
    {
      "inputs": [
        {
          "internalType": "address",
          "name": "_user",
          "type": "address"
        }
      ],
      "name": "isLiquidator",
      "outputs": [
        {
          "internalType": "bool",
          "name": "",
          "type": "bool"
        }
      ],
      "stateMutability": "view",
      "type": "function"
    },
    {
      "inputs": [],
      "name": "isResolverCached",
      "outputs": [
        {
          "internalType": "bool",
          "name": "",
          "type": "bool"
        }
      ],
      "stateMutability": "view",
      "type": "function"
    },
    {
      "inputs": [],
      "name": "owner",
      "outputs": [
        {
          "internalType": "address",
          "name": "",
          "type": "address"
        }
      ],
      "stateMutability": "view",
      "type": "function"
    },
    {
      "inputs": [
        {
          "internalType": "bytes32",
          "name": "_ccy",
          "type": "bytes32"
        }
      ],
      "name": "pauseLendingMarkets",
      "outputs": [
        {
          "internalType": "bool",
          "name": "",
          "type": "bool"
        }
      ],
      "stateMutability": "nonpayable",
      "type": "function"
    },
    {
      "inputs": [
        {
          "internalType": "bool",
          "name": "_isLiquidator",
          "type": "bool"
        }
      ],
      "name": "registerLiquidator",
      "outputs": [],
      "stateMutability": "nonpayable",
      "type": "function"
    },
    {
      "inputs": [],
      "name": "renounceOwnership",
      "outputs": [],
      "stateMutability": "nonpayable",
      "type": "function"
    },
    {
      "inputs": [],
      "name": "requiredContracts",
      "outputs": [
        {
          "internalType": "bytes32[]",
          "name": "contracts",
          "type": "bytes32[]"
        }
      ],
      "stateMutability": "pure",
      "type": "function"
    },
    {
      "inputs": [],
      "name": "resolver",
      "outputs": [
        {
          "internalType": "contract IAddressResolver",
          "name": "",
          "type": "address"
        }
      ],
      "stateMutability": "view",
      "type": "function"
    },
    {
      "inputs": [
        {
          "internalType": "bytes32",
          "name": "_ccy",
          "type": "bytes32"
        }
      ],
      "name": "rotateLendingMarkets",
      "outputs": [],
      "stateMutability": "nonpayable",
      "type": "function"
    },
    {
      "inputs": [
        {
          "internalType": "address",
          "name": "newOwner",
          "type": "address"
        }
      ],
      "name": "transferOwnership",
      "outputs": [],
      "stateMutability": "nonpayable",
      "type": "function"
    },
    {
      "inputs": [
        {
          "internalType": "bytes32",
          "name": "_ccy",
          "type": "bytes32"
        }
      ],
      "name": "unpauseLendingMarkets",
      "outputs": [
        {
          "internalType": "bool",
          "name": "",
          "type": "bool"
        }
      ],
      "stateMutability": "nonpayable",
      "type": "function"
    },
    {
      "inputs": [
        {
          "internalType": "bytes32",
          "name": "_ccy",
          "type": "bytes32"
        },
        {
          "internalType": "uint256",
          "name": "_autoRollFeeRate",
          "type": "uint256"
        }
      ],
      "name": "updateAutoRollFeeRate",
      "outputs": [],
      "stateMutability": "nonpayable",
      "type": "function"
    },
    {
      "inputs": [
        {
          "internalType": "bytes32",
          "name": "_ccy",
          "type": "bytes32"
        },
        {
          "internalType": "uint256",
          "name": "_orderFeeRate",
          "type": "uint256"
        }
      ],
      "name": "updateOrderFeeRate",
      "outputs": [],
      "stateMutability": "nonpayable",
      "type": "function"
    }
  ],
  "transactionHash": "0xaf3d755d36f62289949da46e102d89971b2ce7a3339809e19d65db0140714838",
  "args": [],
  "numDeployments": 2,
  "solcInputHash": "be7ae38419e251d9723e8528f3b4905f",
  "bytecode": "0x608060405234801561001057600080fd5b506001600055615113806100256000396000f3fe6080604052600436106102935760003560e01c8063766cb64e1161015a578063cb9d7401116100c1578063eb092a261161007a578063eb092a261461088a578063ebb91416146108aa578063f2fde38b146108ca578063faca409b146108ea578063fb54a6b31461090a578063fc7008101461092a57600080fd5b8063cb9d7401146107bb578063cc03348b146107f5578063e099765914610815578063e906c1001461082a578063e95dc1831461084a578063e99d05381461086a57600080fd5b80638da5cb5b116101135780638da5cb5b14610713578063953dbcaa14610728578063a02be3dc14610748578063b3cb845014610768578063bfd10cf614610788578063bfe61a28146107a857600080fd5b8063766cb64e1461065357806385323e1a14610673578063870cf8ab14610693578063891d5965146106b35780638a981745146106d35780638b36d833146106f357600080fd5b8063381ada1f116101fe57806355aceb4e116101b757806355aceb4e1461055c5780635c347765146105895780635ca65d57146105de57806370c641a6146105fe578063715018a61461061e57806372d563ef1461063357600080fd5b8063381ada1f1461049a5780633d03b9da146104c7578063448255c7146104e9578063485cc955146104fc57806349f2ccbf1461051c578063529a356f1461053c57600080fd5b8063268bb27911610250578063268bb279146103ee57806329985e5a146104105780632af64bd3146104255780632e6c5e671461043a5780632e77aea71461045a5780632f7495741461047a57600080fd5b80630312b5281461029857806303e5fb59146102fa57806304f3bcec146103425780630594de6e1461036f57806317b72ff41461039e57806322365261146103be575b600080fd5b3480156102a457600080fd5b506102b86102b336600461441b565b61094a565b604080519889526020890197909752958701949094526060860192909252608085015260a084015260c0830152151560e0820152610100015b60405180910390f35b34801561030657600080fd5b50610334610315366004614450565b600090815260008051602061509e833981519152602052604090205490565b6040519081526020016102f1565b34801561034e57600080fd5b506103576109ff565b6040516001600160a01b0390911681526020016102f1565b34801561037b57600080fd5b5061038f61038a366004614469565b610a20565b6040516102f1939291906144d0565b3480156103aa57600080fd5b506103346103b9366004614513565b610adf565b3480156103ca57600080fd5b506103de6103d9366004614543565b610b74565b60405190151581526020016102f1565b3480156103fa57600080fd5b5061040e6104093660046145af565b610e72565b005b34801561041c57600080fd5b5061040e610e8d565b34801561043157600080fd5b506103de61103a565b34801561044657600080fd5b506103de610455366004614450565b6111a0565b34801561046657600080fd5b506103346104753660046145cc565b6111c0565b34801561048657600080fd5b5061040e610495366004614605565b611256565b3480156104a657600080fd5b506104ba6104b5366004614450565b611359565b6040516102f19190614627565b3480156104d357600080fd5b506104dc6113ce565b6040516102f19190614674565b6103de6104f73660046146b9565b6114f0565b34801561050857600080fd5b5061040e610517366004614702565b6115fc565b34801561052857600080fd5b506103de610537366004614730565b611776565b34801561054857600080fd5b506103de610557366004614769565b611910565b34801561056857600080fd5b5061057c610577366004614450565b611921565b6040516102f19190614786565b34801561059557600080fd5b506105a96105a4366004614513565b611a89565b604080519788526020880196909652948601939093526060850191909152608084015260a083015260c082015260e0016102f1565b3480156105ea57600080fd5b5061040e6105f9366004614605565b611b74565b34801561060a57600080fd5b50610334610619366004614513565b611c66565b34801561062a57600080fd5b5061040e611cfe565b34801561063f57600080fd5b5061040e61064e366004614605565b611d39565b34801561065f57600080fd5b5061040e61066e366004614799565b611e79565b34801561067f57600080fd5b5061035761068e366004614605565b611fd0565b34801561069f57600080fd5b5061040e6106ae366004614769565b612032565b3480156106bf57600080fd5b506103346106ce366004614450565b612091565b3480156106df57600080fd5b506103576106ee366004614605565b6120af565b3480156106ff57600080fd5b5061040e61070e366004614450565b6120e1565b34801561071f57600080fd5b50610357612322565b34801561073457600080fd5b5061038f610743366004614469565b61234a565b34801561075457600080fd5b5061057c610763366004614450565b6123a9565b34801561077457600080fd5b506103de610783366004614450565b61250a565b34801561079457600080fd5b5061057c6107a3366004614450565b612608565b6103de6107b63660046146b9565b612769565b3480156107c757600080fd5b506103346107d6366004614450565b60009081526000805160206150be833981519152602052604090205490565b34801561080157600080fd5b506103de61081036600461483f565b6127f1565b34801561082157600080fd5b506104dc612866565b34801561083657600080fd5b506103346108453660046145cc565b6128a9565b34801561085657600080fd5b50610334610865366004614513565b612942565b34801561087657600080fd5b506103de610885366004614450565b612e3d565b34801561089657600080fd5b5061057c6108a5366004614450565b612f32565b3480156108b657600080fd5b506103de6108c53660046146b9565b613093565b3480156108d657600080fd5b5061040e6108e5366004614769565b61336a565b3480156108f657600080fd5b506103de6109053660046146b9565b613407565b34801561091657600080fd5b50610334610925366004614769565b613494565b34801561093657600080fd5b506104dc610945366004614769565b61361e565b600080600080600080600080734E2b89AEE0Ee8a5f513105B69AD34ddD6fA35182630312b5288c8c8c6040518463ffffffff1660e01b8152600401610991939291906148db565b6101006040518083038186803b1580156109aa57600080fd5b505af41580156109be573d6000803e3d6000fd5b505050506040513d601f19601f820116820180604052508101906109e291906148fc565b975097509750975097509750975097509397509397509397509397565b600060008051602061507e8339815191525b546001600160a01b0316919050565b60608060606000610a2f61364c565b600088815260029190910160209081526040808320898452909152908190205490516325fb168b60e11b8152600481018790526001600160a01b0390911691508190634bf62d16906024015b60006040518083038186803b158015610a9357600080fd5b505afa158015610aa7573d6000803e3d6000fd5b505050506040513d6000823e601f3d908101601f19168201604052610acf91908101906149cc565b9350935093505093509350939050565b6040516295a47160e71b8152600090734E2b89AEE0Ee8a5f513105B69AD34ddD6fA3518290634ad2388090610b1c90869085908790600401614a54565b60e06040518083038186803b158015610b3457600080fd5b505af4158015610b48573d6000803e3d6000fd5b505050506040513d601f19601f82011682018060405250810190610b6c9190614a73565b519392505050565b600060026000541415610ba25760405162461bcd60e51b8152600401610b9990614af7565b60405180910390fd5b6002600090815585908590610bb561364c565b6000848152600291909101602090815260408083208584529091529020546001600160a01b03161415610bfa5760405162461bcd60e51b8152600401610b9990614b2e565b333b15610c3e5760405162461bcd60e51b815260206004820152601260248201527143616c6c6572206d75737420626520454f4160701b6044820152606401610b99565b610c4733613670565b610c8a5760405162461bcd60e51b815260206004820152601460248201527343616c6c6572206973206e6f742061637469766560601b6044820152606401610b99565b610c948786612942565b50604051639c599f8b60e01b81523360048201526001600160a01b038616602482015260448101899052606481018890526084810187905262ffffff851660a48201526000908190734E2b89AEE0Ee8a5f513105B69AD34ddD6fA3518290639c599f8b9060c401604080518083038186803b158015610d1257600080fd5b505af4158015610d26573d6000803e3d6000fd5b505050506040513d601f19601f82011682018060405250810190610d4a9190614b58565b9092509050808215610d7a576000610d6a8b8b8b600088600060016136ad565b9050610d768183614b92565b9150505b8015610e5b57888a896001600160a01b03167f347d8f9576f47b3bd7a4821cd3d3d4171968cdd36680d4abaca7de302d836f998e85604051610dc6929190918252602082015260400190565b60405180910390a460405163300074c960e01b8152734E2b89AEE0Ee8a5f513105B69AD34ddD6fA351829063300074c990610e09908d908d908d90600401614a54565b60206040518083038186803b158015610e2157600080fd5b505af4158015610e35573d6000803e3d6000fd5b505050506040513d601f19601f82011682018060405250810190610e599190614baa565b505b600195505050505050600160005595945050505050565b8015610e8457610e8133613a86565b50565b610e8133613ab5565b6000610e976113ce565b905060005b8151811015611036576000828281518110610eb957610eb9614bc3565b602002602001015190506000610eda60008051602061507e83398151915290565b54604080517f5265736f6c766572206d697373696e67207461726765743a200000000000000060208201526039808201869052825180830390910181526059820192839052636795dbcd60e01b9092526001600160a01b0390921691636795dbcd91610f4b91869190605d01614c26565b60206040518083038186803b158015610f6357600080fd5b505afa158015610f77573d6000803e3d6000fd5b505050506040513d601f19601f82011682018060405250810190610f9b9190614c47565b60008381527f4abde63c3e81aefa5764b017968bc473e83e093d7e1a10247d19e0a3e4124019602090815260409182902080546001600160a01b0319166001600160a01b03851690811790915582518681529182015281519293507f88a93678a3692f6789d9546fc621bf7234b101ddb7d4fe479455112831b8aa68929081900390910190a15050808061102e90614c64565b915050610e9c565b5050565b6000806110456113ce565b905060005b815181101561119757600082828151811061106757611067614bc3565b6020026020010151905061108660008051602061507e83398151915290565b600082815260019190910160205260409020546001600160a01b031660008051602061507e833981519152546040516321f8a72160e01b8152600481018490526001600160a01b03909116906321f8a7219060240160206040518083038186803b1580156110f357600080fd5b505afa158015611107573d6000803e3d6000fd5b505050506040513d601f19601f8201168201806040525081019061112b9190614c47565b6001600160a01b0316141580611175575060008181527f4abde63c3e81aefa5764b017968bc473e83e093d7e1a10247d19e0a3e412401960205260409020546001600160a01b0316155b15611184576000935050505090565b508061118f81614c64565b91505061104a565b50600191505090565b60006111aa61364c565b6000928352600301602052506040902054151590565b6040516295a47160e71b8152600090734E2b89AEE0Ee8a5f513105B69AD34ddD6fA3518290634ad23880906111fd90879087908790600401614a54565b60e06040518083038186803b15801561121557600080fd5b505af4158015611229573d6000803e3d6000fd5b505050506040513d601f19601f8201168201806040525081019061124d9190614a73565b51949350505050565b3361125f612322565b6001600160a01b0316146112855760405162461bcd60e51b8152600401610b9990614c7f565b6127108111156112d75760405162461bcd60e51b815260206004820152601a60248201527f496e76616c6964206175746f2d726f6c6c2066656520726174650000000000006044820152606401610b99565b60008281526000805160206150be83398151915260205260409020548181146113545760008381526000805160206150be833981519152602090815260409182902084905581518381529081018490527fdfbb9051e39a726dacd506a01fecef2277ab8adc7423037867c554573f179fdb91015b60405180910390a15b505050565b606061136361364c565b60008381526020918252604090819020805482518185028101850190935280835291929091908301828280156113c257602002820191906000526020600020905b81546001600160a01b031681526001909101906020018083116113a4575b50505050509050919050565b60408051600580825260c082019092526060916020820160a080368337019050509050742132b0b1b7b7283937bc3ca1b7b73a3937b63632b960591b8160008151811061141d5761141d614bc3565b6020026020010181815250507121bab93932b731bca1b7b73a3937b63632b960711b8160018151811061145257611452614bc3565b6020026020010181815250507011d95b995cda5cd5985b1d5955985d5b1d607a1b8160028151811061148657611486614bc3565b6020026020010181815250506a14995cd95c9d99519d5b9960aa1b816003815181106114b4576114b4614bc3565b60200260200101818152505069151bdad95b95985d5b1d60b21b816004815181106114e1576114e1614bc3565b60200260200101818152505090565b6000600260005414156115155760405162461bcd60e51b8152600401610b9990614af7565b600260009081558690869061152861364c565b6000848152600291909101602090815260408083208584529091529020546001600160a01b0316141561156d5760405162461bcd60e51b8152600401610b9990614b2e565b611575613acb565b6001600160a01b03166396994e3734338b896040518563ffffffff1660e01b81526004016115a5939291906148db565b6000604051808303818588803b1580156115be57600080fd5b505af11580156115d2573d6000803e3d6000fd5b50505050506115e788883389898960006136ad565b50600192505050600160005595945050505050565b600154610100900460ff161580801561161957506001805460ff16105b806116325750303b15801561163257506001805460ff16145b6116955760405162461bcd60e51b815260206004820152602e60248201527f496e697469616c697a61626c653a20636f6e747261637420697320616c72656160448201526d191e481a5b9a5d1a585b1a5e995960921b6064820152608401610b99565b6001805460ff19168117905580156116b7576001805461ff0019166101001790555b60006116c1613ada565b6001600160a01b031614156117235760405162461bcd60e51b815260206004820152602260248201527f4d7573742062652063616c6c65642066726f6d2070726f787920636f6e74726160448201526118dd60f21b6064820152608401610b99565b61172c836133fe565b61173582613b02565b8015611354576001805461ff00191681556040519081527f7f26b83ff96e1f2b6a682f133852f6798a09c465da95921460cefb38474024989060200161134b565b60006002600054141561179b5760405162461bcd60e51b8152600401610b9990614af7565b60026000908155849084906117ae61364c565b6000848152600291909101602090815260408083208584529091529020546001600160a01b031614156117f35760405162461bcd60e51b8152600401610b9990614b2e565b60006117fd61364c565b60008881526002919091016020908152604080832089845290915280822054905163504b89bd60e01b815233600482015265ffffffffffff881660248201526001600160a01b03909116925081908190849063504b89bd90604401606060405180830381600087803b15801561187257600080fd5b505af1158015611886573d6000803e3d6000fd5b505050506040513d601f19601f820116820180604052508101906118aa9190614cb4565b92509250925089336001600160a01b03167f4d71330c358e4f44590905c3373d1e04529d36b64e552c5cb51813ef62d120d78a868d87876040516118f2959493929190614d0d565b60405180910390a36001965050505050505060016000559392505050565b600061191b82613b97565b92915050565b6060600061192d61364c565b6000848152602091909152604090205467ffffffffffffffff811115611955576119556147d4565b60405190808252806020026020018201604052801561197e578160200160208202803683370190505b50905060005b61198c61364c565b60008581526020919091526040902054811015611a825760006119ad61364c565b6000868152602091909152604090208054839081106119ce576119ce614bc3565b6000918252602091829020015460408051631b3508b760e01b815290516001600160a01b0390921693508392631b3508b792600480840193829003018186803b158015611a1a57600080fd5b505afa158015611a2e573d6000803e3d6000fd5b505050506040513d601f19601f82011682018060405250810190611a529190614baa565b838381518110611a6457611a64614bc3565b60209081029190910101525080611a7a81614c64565b915050611984565b5092915050565b6000806000806000806000611ac289611aa061364c565b6001600160a01b038b1660009081526004919091016020526040902090613bc1565b15611b6857604051635c34776560e01b8152600481018a90526001600160a01b0389166024820152734E2b89AEE0Ee8a5f513105B69AD34ddD6fA3518290635c3477659060440160e06040518083038186803b158015611b2157600080fd5b505af4158015611b35573d6000803e3d6000fd5b505050506040513d601f19601f82011682018060405250810190611b599190614d45565b96509650965096509650965096505b92959891949750929550565b33611b7d612322565b6001600160a01b031614611ba35760405162461bcd60e51b8152600401610b9990614c7f565b612710811115611bee5760405162461bcd60e51b8152602060048201526016602482015275496e76616c6964206f7264657220666565207261746560501b6044820152606401610b99565b600082815260008051602061509e833981519152602052604090205481811461135457600083815260008051602061509e833981519152602090815260409182902084905581518381529081018490527fff4528c215dc00005504418aa82be3bb2439c39be2eb30fd44012f5e79d168e2910161134b565b6040516295a47160e71b8152600090734E2b89AEE0Ee8a5f513105B69AD34ddD6fA3518290634ad2388090611ca390869085908790600401614a54565b60e06040518083038186803b158015611cbb57600080fd5b505af4158015611ccf573d6000803e3d6000fd5b505050506040513d601f19601f82011682018060405250810190611cf39190614a73565b60c001519392505050565b33611d07612322565b6001600160a01b031614611d2d5760405162461bcd60e51b8152600401610b9990614c7f565b611d376000613bdc565b565b33611d42612322565b6001600160a01b031614611d685760405162461bcd60e51b8152600401610b9990614c7f565b6040516372d563ef60e01b81526004810183905260248101829052600090819081907318C989b86315B3D63eb77E543e37B1Dc57dAC7f3906372d563ef9060440160606040518083038186803b158015611dc157600080fd5b505af4158015611dd5573d6000803e3d6000fd5b505050506040513d601f19601f82011682018060405250810190611df99190614d99565b925092509250826001600160a01b0316857fc29f3eef4e596f3e26da74f3482ffe2325449509e985d19f0a099240429add4e84611e3461364c565b60008a815260209182526040908190205481516001600160a01b0390941684529183019190915281018890526060810185905260800160405180910390a35050505050565b33611e82612322565b6001600160a01b031614611ea85760405162461bcd60e51b8152600401610b9990614c7f565b60008311611ef85760405162461bcd60e51b815260206004820152601760248201527f496e76616c696420636f6d706f756e6420666163746f720000000000000000006044820152606401610b99565b611f01856111a0565b15611f445760405162461bcd60e51b8152602060048201526013602482015272105b1c9958591e481a5b9a5d1a585b1a5e9959606a1b6044820152606401610b99565b60405163d3f43b7960e01b81526004810186905260248101859052604481018490527318C989b86315B3D63eb77E543e37B1Dc57dAC7f39063d3f43b799060640160006040518083038186803b158015611f9d57600080fd5b505af4158015611fb1573d6000803e3d6000fd5b50505050611fbf8583611b74565b611fc98582611256565b5050505050565b6000611fda61364c565b60008481526001919091016020526040812090611ff561364c565b600095865260020160209081526040808720958752948152848620546001600160a01b039081168352908201929092529092019092205416919050565b600061203c61364c565b6001600160a01b03831660009081526004919091016020526040812091505b61206482613c4d565b8110156113545761207e6120788383613c57565b84612942565b508061208981614c64565b91505061205b565b600061209b61364c565b600092835260030160205250604090205490565b60006120b961364c565b600093845260020160209081526040808520938552929052509020546001600160a01b031690565b600260005414156121045760405162461bcd60e51b8152600401610b9990614af7565b60026000908155819061211561364c565b600083815260209190915260409020541161218b5760405162461bcd60e51b815260206004820152603060248201527f4e6f206c656e64696e67206d61726b65747320657869737420666f722061207360448201526f706563696669632063757272656e637960801b6064820152608401610b99565b6000807318C989b86315B3D63eb77E543e37B1Dc57dAC7f363a3d54d8c856121cc8760009081526000805160206150be833981519152602052604090205490565b6040516001600160e01b031960e085901b16815260048101929092526024820152604401604080518083038186803b15801561220757600080fd5b505af415801561221b573d6000803e3d6000fd5b505050506040513d601f19601f8201168201806040525081019061223f9190614b58565b91509150734E2b89AEE0Ee8a5f513105B69AD34ddD6fA3518263300074c98583612267613c63565b6040518463ffffffff1660e01b815260040161228593929190614a54565b60206040518083038186803b15801561229d57600080fd5b505af41580156122b1573d6000803e3d6000fd5b505050506040513d601f19601f820116820180604052508101906122d59190614baa565b5060408051858152602081018490529081018290527f0c6f5a3bc801362dc3d24c87799fa831f5a601c5dbd8bed4064907844eef97369060600160405180910390a1505060016000555050565b60007f9acda75aebd150dd434541a4747a6dc606f4f1a59662477e67daf1fc0bf9e0aa610a11565b6060806060600061235961364c565b6000888152600291909101602090815260408083208984529091529081902054905163d866d35560e01b8152600481018790526001600160a01b039091169150819063d866d35590602401610a7b565b606060006123b561364c565b6000848152602091909152604090205467ffffffffffffffff8111156123dd576123dd6147d4565b604051908082528060200260200182016040528015612406578160200160208202803683370190505b50905060005b61241461364c565b60008581526020919091526040902054811015611a8257600061243561364c565b60008681526020919091526040902080548390811061245657612456614bc3565b600091825260209182902001546040805163e16695b560e01b815290516001600160a01b039092169350839263e16695b592600480840193829003018186803b1580156124a257600080fd5b505afa1580156124b6573d6000803e3d6000fd5b505050506040513d601f19601f820116820180604052508101906124da9190614baa565b8383815181106124ec576124ec614bc3565b6020908102919091010152508061250281614c64565b91505061240c565b600033612515612322565b6001600160a01b03161461253b5760405162461bcd60e51b8152600401610b9990614c7f565b60005b61254661364c565b600084815260209190915260409020548110156125ff57600061256761364c565b60008581526020919091526040902080548390811061258857612588614bc3565b60009182526020822001546040805163280dce3760e21b815290516001600160a01b039092169350839263a03738dc9260048084019382900301818387803b1580156125d357600080fd5b505af11580156125e7573d6000803e3d6000fd5b505050505080806125f790614c64565b91505061253e565b50600192915050565b6060600061261461364c565b6000848152602091909152604090205467ffffffffffffffff81111561263c5761263c6147d4565b604051908082528060200260200182016040528015612665578160200160208202803683370190505b50905060005b61267361364c565b60008581526020919091526040902054811015611a8257600061269461364c565b6000868152602091909152604090208054839081106126b5576126b5614bc3565b60009182526020918290200154604080516371613c2d60e01b815290516001600160a01b03909216935083926371613c2d92600480840193829003018186803b15801561270157600080fd5b505afa158015612715573d6000803e3d6000fd5b505050506040513d601f19601f820116820180604052508101906127399190614baa565b83838151811061274b5761274b614bc3565b6020908102919091010152508061276181614c64565b91505061266b565b6000612773613acb565b6001600160a01b03166396994e37343389876040518563ffffffff1660e01b81526004016127a3939291906148db565b6000604051808303818588803b1580156127bc57600080fd5b505af11580156127d0573d6000803e3d6000fd5b50505050506127e28686868686613093565b50600190505b95945050505050565b60405163cc03348b60e01b81526000907318C989b86315B3D63eb77E543e37B1Dc57dAC7f39063cc03348b9061282d9086908690600401614ddc565b60006040518083038186803b15801561284557600080fd5b505af4158015612859573d6000803e3d6000fd5b5060019695505050505050565b6040805160018082528183019092526060916020808301908036833701905050905069151bdad95b95985d5b1d60b21b816000815181106114e1576114e1614bc3565b6040516295a47160e71b8152600090734E2b89AEE0Ee8a5f513105B69AD34ddD6fA3518290634ad23880906128e690879087908790600401614a54565b60e06040518083038186803b1580156128fe57600080fd5b505af4158015612912573d6000803e3d6000fd5b505050506040513d601f19601f820116820180604052508101906129369190614a73565b60200151949350505050565b604051635b0f7aad60e11b8152600481018390526001600160a01b038216602482015260009081908190734E2b89AEE0Ee8a5f513105B69AD34ddD6fA351829063b61ef55a9060440160006040518083038186803b1580156129a357600080fd5b505af41580156129b7573d6000803e3d6000fd5b505050506040513d6000823e601f3d908101601f191682016040526129df9190810190614e24565b905060005b8151811015612d605760006129f761364c565b60020160008881526020019081526020016000206000848481518110612a1f57612a1f614bc3565b6020026020010151815260200190815260200160002060009054906101000a90046001600160a01b031690506000816001600160a01b031663e16695b56040518163ffffffff1660e01b815260040160206040518083038186803b158015612a8657600080fd5b505afa158015612a9a573d6000803e3d6000fd5b505050506040513d601f19601f82011682018060405250810190612abe9190614baa565b90506000734E2b89AEE0Ee8a5f513105B69AD34ddD6fA3518263300074c98a848b6040518463ffffffff1660e01b8152600401612afd93929190614a54565b60206040518083038186803b158015612b1557600080fd5b505af4158015612b29573d6000803e3d6000fd5b505050506040513d601f19601f82011682018060405250810190612b4d9190614baa565b9050600080612b5d8b858c613c6d565b9092509050612b6c828a614b92565b98508015612c025760405163300074c960e01b8152734E2b89AEE0Ee8a5f513105B69AD34ddD6fA351829063300074c990612baf908e9088908f90600401614a54565b60206040518083038186803b158015612bc757600080fd5b505af4158015612bdb573d6000803e3d6000fd5b505050506040513d601f19601f82011682018060405250810190612bff9190614baa565b92505b8215612c0d57600197505b82158015612c19575081155b15612c8a57612c88878781518110612c3357612c33614bc3565b6020026020010151612c4361364c565b60050160008e815260200190815260200160002060008d6001600160a01b03166001600160a01b0316815260200190815260200160002061401b90919063ffffffff16565b505b612c92614027565b6001600160a01b031663eeac29d88c8c60018b51612cb09190614e59565b8a14612cdf578a612cc28b6001614b92565b81518110612cd257612cd2614bc3565b6020026020010151612ce2565b60005b6040516001600160e01b031960e086901b16815260048101939093526001600160a01b0390911660248301526044820152606401600060405180830381600087803b158015612d3057600080fd5b505af1158015612d44573d6000803e3d6000fd5b5050505050505050508080612d5890614c64565b9150506129e4565b5082158015612d6d575081155b8015612e005750612d7c614027565b60405163386320d360e11b8152600481018790526001600160a01b03868116602483015291909116906370c641a69060440160206040518083038186803b158015612dc657600080fd5b505afa158015612dda573d6000803e3d6000fd5b505050506040513d601f19601f82011682018060405250810190612dfe9190614baa565b155b15612e3557612e3385612e1161364c565b6001600160a01b0387166000908152600491909101602052604090209061401b565b505b505092915050565b600033612e48612322565b6001600160a01b031614612e6e5760405162461bcd60e51b8152600401610b9990614c7f565b60005b612e7961364c565b600084815260209190915260409020548110156125ff576000612e9a61364c565b600085815260209190915260409020805483908110612ebb57612ebb614bc3565b600091825260208220015460408051630b0863e760e11b815290516001600160a01b0390921693508392631610c7ce9260048084019382900301818387803b158015612f0657600080fd5b505af1158015612f1a573d6000803e3d6000fd5b50505050508080612f2a90614c64565b915050612e71565b60606000612f3e61364c565b6000848152602091909152604090205467ffffffffffffffff811115612f6657612f666147d4565b604051908082528060200260200182016040528015612f8f578160200160208202803683370190505b50905060005b612f9d61364c565b60008581526020919091526040902054811015611a82576000612fbe61364c565b600086815260209190915260409020805483908110612fdf57612fdf614bc3565b6000918252602091829020015460408051632f05aa6d60e11b815290516001600160a01b0390921693508392635e0b54da92600480840193829003018186803b15801561302b57600080fd5b505afa15801561303f573d6000803e3d6000fd5b505050506040513d601f19601f820116820180604052508101906130639190614baa565b83838151811061307557613075614bc3565b6020908102919091010152508061308b81614c64565b915050612f95565b6000600260005414156130b85760405162461bcd60e51b8152600401610b9990614af7565b60026000908155869086906130cb61364c565b6000848152600291909101602090815260408083208584529091529020546001600160a01b031614156131105760405162461bcd60e51b8152600401610b9990614b2e565b600061311c8933612942565b9050601461312b826001614b92565b11156131725760405162461bcd60e51b8152602060048201526016602482015275546f6f206d616e7920616374697665206f726465727360501b6044820152606401610b99565b6131a18861317e61364c565b60008c815260059190910160209081526040808320338452909152902090613bc1565b6131d6576131d4886131b161364c565b60008c815260059190910160209081526040808320338452909152902090614031565b505b6131de613acb565b6001600160a01b03166328ff7a42338b898b6040518563ffffffff1660e01b815260040161320f9493929190614e70565b60206040518083038186803b15801561322757600080fd5b505afa15801561323b573d6000803e3d6000fd5b505050506040513d601f19601f8201168201806040525081019061325f9190614e9b565b6132a35760405162461bcd60e51b8152602060048201526015602482015274139bdd08195b9bdd59da0818dbdb1b185d195c985b605a1b6044820152606401610b99565b6132ab61364c565b60008a8152600291909101602090815260408083208b8452909152908190205490516328378aab60e01b81526001600160a01b03909116906328378aab906132fd908a9033908b908b90600401614eb8565b600060405180830381600087803b15801561331757600080fd5b505af115801561332b573d6000803e3d6000fd5b505050506133548961333b61364c565b3360009081526004919091016020526040902090614031565b5060019350505050600160005595945050505050565b33613373612322565b6001600160a01b0316146133995760405162461bcd60e51b8152600401610b9990614c7f565b6001600160a01b0381166133fe5760405162461bcd60e51b815260206004820152602660248201527f4f776e61626c653a206e6577206f776e657220697320746865207a65726f206160448201526564647265737360d01b6064820152608401610b99565b610e8181613bdc565b60006002600054141561342c5760405162461bcd60e51b8152600401610b9990614af7565b600260009081558690869061343f61364c565b6000848152600291909101602090815260408083208584529091529020546001600160a01b031614156134845760405162461bcd60e51b8152600401610b9990614b2e565b6115e788883389898960006136ad565b60008061349f61364c565b6001600160a01b03841660009081526004919091016020526040812091505b6134c782613c4d565b8110156136175760006134da8383613c57565b90506000734E2b89AEE0Ee8a5f513105B69AD34ddD6fA35182634ad23880836000896040518463ffffffff1660e01b815260040161351a93929190614a54565b60e06040518083038186803b15801561353257600080fd5b505af4158015613546573d6000803e3d6000fd5b505050506040513d601f19601f8201168201806040525081019061356a9190614a73565b51905061357561403d565b6040516303a0a22f60e41b815260048101849052602481018390526001600160a01b039190911690633a0a22f09060440160206040518083038186803b1580156135be57600080fd5b505afa1580156135d2573d6000803e3d6000fd5b505050506040513d601f19601f820116820180604052508101906135f69190614baa565b6136009086614eea565b94505050808061360f90614c64565b9150506134be565b5050919050565b606061191b61362b61364c565b6001600160a01b038416600090815260049190910160205260409020614047565b7f8041b8421ebd495cc61f38c788c9eb100daccf9bd36aa0bb920b7a15b2e0496590565b600061367b82613b97565b801561191b5750506001600160a01b0316600090815260008051602061505e8339815191526020526040902054431190565b60008084116136ef5760405162461bcd60e51b815260206004820152600e60248201526d125b9d985b1a5908185b5bdd5b9d60921b6044820152606401610b99565b60006136fb8988612942565b90506137358861370961364c565b60008c8152600591909101602090815260408083206001600160a01b038d168452909152902090613bc1565b613773576137718861374561364c565b60008c8152600591909101602090815260408083206001600160a01b038d168452909152902090614031565b505b8261384557613780613acb565b6001600160a01b03166328ff7a42888b888a6040518563ffffffff1660e01b81526004016137b19493929190614e70565b60206040518083038186803b1580156137c957600080fd5b505afa1580156137dd573d6000803e3d6000fd5b505050506040513d601f19601f820116820180604052508101906138019190614e9b565b6138455760405162461bcd60e51b8152602060048201526015602482015274139bdd08195b9bdd59da0818dbdb1b185d195c985b605a1b6044820152606401610b99565b60008061385061364c565b60008c8152600291909101602090815260408083208d845290915290819020549051633352870560e21b81526001600160a01b039091169063cd4a1c14906138a4908b908d908c908c908c90600401614f2b565b6040805180830381600087803b1580156138bd57600080fd5b505af11580156138d1573d6000803e3d6000fd5b505050506040513d601f19601f820116820180604052508101906138f59190614b58565b90925090506139048188614e59565b93506000856139855782158061391a5750600082115b1561392d5761392a600185614b92565b93505b60148411156139775760405162461bcd60e51b8152602060048201526016602482015275546f6f206d616e7920616374697665206f726465727360501b6044820152606401610b99565b6139828c848d614052565b90505b8215613a4857604051633df3a23760e01b8152734E2b89AEE0Ee8a5f513105B69AD34ddD6fA3518290633df3a237906139ce908f908f908f908f908a908d908a90600401614f67565b60006040518083038186803b1580156139e657600080fd5b505af41580156139fa573d6000803e3d6000fd5b505050508a8c8b6001600160a01b03167ff58abb58bdd84b485930c24ec5e99ec42b56c04c021af823afb6ae78aa244bcc8c898c89604051613a3f9493929190614faf565b60405180910390a45b613a768c613a5461364c565b6001600160a01b038d1660009081526004919091016020526040902090614031565b5050505050979650505050505050565b4360008051602061505e8339815191525b6001600160a01b039092166000908152602092909252604090912055565b600060008051602061505e833981519152613a97565b6000613ad56140cd565b905090565b60007f360894a13ba1a3210667c828492db98dca3e2076cc3735a920a3ca505d382bbc610a11565b60008051602061507e833981519152546001600160a01b031615613b685760405162461bcd60e51b815260206004820152601b60248201527f7265736f6c766572207265676973746572656420616c726561647900000000006044820152606401610b99565b60008051602061507e83398151915280546001600160a01b0319166001600160a01b0392909216919091179055565b6001600160a01b0316600090815260008051602061505e8339815191526020526040902054151590565b600081815260018301602052604081205415155b9392505050565b7f9acda75aebd150dd434541a4747a6dc606f4f1a59662477e67daf1fc0bf9e0aa80546001600160a01b038381166001600160a01b0319831681179093556040519116919082907f8be0079c531659141344cd1fd0a4f28419497f9722a3daafe3b4186f6b6457e090600090a35050565b600061191b825490565b6000613bd583836140e5565b6000613ad561410f565b6000806000613c7c8686611fd0565b90506000806000806000806000613c9161364c565b60008e8152600291909101602090815260408083208f845290915290819020549051630516d8c960e11b81526001600160a01b038d8116600483015290911690630a2db1929060240160e060405180830381600087803b158015613cf457600080fd5b505af1158015613d08573d6000803e3d6000fd5b505050506040513d601f19601f82011682018060405250810190613d2c9190614d45565b965096509650965096509650965081831115613db957613d4a613acb565b6001600160a01b031663fb7bd3b48c8f613d648688614e59565b6040518463ffffffff1660e01b8152600401613d82939291906148db565b600060405180830381600087803b158015613d9c57600080fd5b505af1158015613db0573d6000803e3d6000fd5b50505050613e34565b81831015613e3457613dc9613acb565b6001600160a01b0316634ba0c9b58c8f613de38787614e59565b6040518463ffffffff1660e01b8152600401613e01939291906148db565b600060405180830381600087803b158015613e1b57600080fd5b505af1158015613e2f573d6000803e3d6000fd5b505050505b8415613f1257604051639e8d3d5560e01b81526001600160a01b038c81166004830152602482018790526044820183905260006064830152891690639e8d3d5590608401602060405180830381600087803b158015613e9257600080fd5b505af1158015613ea6573d6000803e3d6000fd5b505050506040513d601f19601f82011682018060405250810190613eca9190614e9b565b50808d8c6001600160a01b03167f997c951334d5983afa515edf5d21c61d3dfec68c3d93415b92248b0f15123aeb600089604051613f09929190614fd8565b60405180910390a45b8315613ff0576040516305b0b29360e41b81526001600160a01b038c81166004830152602482018690526044820183905260006064830152891690635b0b293090608401602060405180830381600087803b158015613f7057600080fd5b505af1158015613f84573d6000803e3d6000fd5b505050506040513d601f19601f82011682018060405250810190613fa89190614e9b565b50808d8c6001600160a01b03167f997c951334d5983afa515edf5d21c61d3dfec68c3d93415b92248b0f15123aeb600188604051613fe7929190614fd8565b60405180910390a45b6000613ffc8587614b92565b1198506140098688614b92565b99505050505050505050935093915050565b6000613bd58383614128565b6000613ad561421b565b6000613bd5838361423a565b6000613ad5614289565b606061191b826142a9565b60008142106140735760405162461bcd60e51b8152600401610b9990614b2e565b600061407f4284614e59565b90506127e86140946127106301e13380614ff3565b600087815260008051602061509e833981519152602052604090205486906140bd908590614ff3565b6140c79190614ff3565b90614304565b6000613ad569151bdad95b95985d5b1d60b21b614375565b60008260000182815481106140fc576140fc614bc3565b9060005260206000200154905092915050565b6000613ad56a14995cd95c9d99519d5b9960aa1b614375565b6000818152600183016020526040812054801561421157600061414c600183614e59565b855490915060009061416090600190614e59565b90508181146141c557600086600001828154811061418057614180614bc3565b90600052602060002001549050808760000184815481106141a3576141a3614bc3565b6000918252602080832090910192909255918252600188019052604090208390555b85548690806141d6576141d6615012565b60019003818190600052602060002001600090559055856001016000868152602001908152602001600020600090556001935050505061191b565b600091505061191b565b6000613ad57011d95b995cda5cd5985b1d5955985d5b1d607a1b614375565b60008181526001830160205260408120546142815750815460018181018455600084815260208082209093018490558454848252828601909352604090209190915561191b565b50600061191b565b6000613ad57121bab93932b731bca1b7b73a3937b63632b960711b614375565b6060816000018054806020026020016040519081016040528092919081815260200182805480156113c257602002820191906000526020600020905b8154815260200190600101908083116142e55750505050509050919050565b600080821161431257600080fd5b600561431e8385615028565b61432990600a614ff3565b8361433586600a614ff3565b61433f9190615028565b6143499190614e59565b1015614360576143598284615028565b905061191b565b61436a8284615028565b614359906001614b92565b60008181527f4abde63c3e81aefa5764b017968bc473e83e093d7e1a10247d19e0a3e41240196020908152604080832054815170026b4b9b9b4b7339030b2323932b9b99d1607d1b9381019390935260318084018690528251808503909101815260519093019091526001600160a01b03169081611a825760405162461bcd60e51b8152600401610b99919061504a565b6001600160a01b0381168114610e8157600080fd5b60008060006060848603121561443057600080fd5b833561443b81614406565b95602085013595506040909401359392505050565b60006020828403121561446257600080fd5b5035919050565b60008060006060848603121561447e57600080fd5b505081359360208301359350604090920135919050565b600081518084526020808501945080840160005b838110156144c5578151875295820195908201906001016144a9565b509495945050505050565b6060815260006144e36060830186614495565b82810360208401526144f58186614495565b905082810360408401526145098185614495565b9695505050505050565b6000806040838503121561452657600080fd5b82359150602083013561453881614406565b809150509250929050565b600080600080600060a0868803121561455b57600080fd5b853594506020860135935060408601359250606086013561457b81614406565b9150608086013562ffffff8116811461459357600080fd5b809150509295509295909350565b8015158114610e8157600080fd5b6000602082840312156145c157600080fd5b8135613bd5816145a1565b6000806000606084860312156145e157600080fd5b833592506020840135915060408401356145fa81614406565b809150509250925092565b6000806040838503121561461857600080fd5b50508035926020909101359150565b6020808252825182820181905260009190848201906040850190845b818110156146685783516001600160a01b031683529284019291840191600101614643565b50909695505050505050565b6020808252825182820181905260009190848201906040850190845b8181101561466857835183529284019291840191600101614690565b60028110610e8157600080fd5b600080600080600060a086880312156146d157600080fd5b853594506020860135935060408601356146ea816146ac565b94979396509394606081013594506080013592915050565b6000806040838503121561471557600080fd5b823561472081614406565b9150602083013561453881614406565b60008060006060848603121561474557600080fd5b8335925060208401359150604084013565ffffffffffff811681146145fa57600080fd5b60006020828403121561477b57600080fd5b8135613bd581614406565b602081526000613bd56020830184614495565b600080600080600060a086880312156147b157600080fd5b505083359560208501359550604085013594606081013594506080013592509050565b634e487b7160e01b600052604160045260246000fd5b604051601f8201601f1916810167ffffffffffffffff81118282101715614813576148136147d4565b604052919050565b600067ffffffffffffffff821115614835576148356147d4565b5060051b60200190565b6000806040838503121561485257600080fd5b823567ffffffffffffffff81111561486957600080fd5b8301601f8101851361487a57600080fd5b8035602061488f61488a8361481b565b6147ea565b82815260059290921b830181019181810190888411156148ae57600080fd5b938201935b838510156148cc578435825293820193908201906148b3565b98969091013596505050505050565b6001600160a01b039390931683526020830191909152604082015260600190565b600080600080600080600080610100898b03121561491957600080fd5b885197506020890151965060408901519550606089015194506080890151935060a0890151925060c0890151915060e0890151614955816145a1565b809150509295985092959890939650565b600082601f83011261497757600080fd5b8151602061498761488a8361481b565b82815260059290921b840181019181810190868411156149a657600080fd5b8286015b848110156149c157805183529183019183016149aa565b509695505050505050565b6000806000606084860312156149e157600080fd5b835167ffffffffffffffff808211156149f957600080fd5b614a0587838801614966565b94506020860151915080821115614a1b57600080fd5b614a2787838801614966565b93506040860151915080821115614a3d57600080fd5b50614a4a86828701614966565b9150509250925092565b92835260208301919091526001600160a01b0316604082015260600190565b600060e08284031215614a8557600080fd5b60405160e0810181811067ffffffffffffffff82111715614aa857614aa86147d4565b8060405250825181526020830151602082015260408301516040820152606083015160608201526080830151608082015260a083015160a082015260c083015160c08201528091505092915050565b6020808252601f908201527f5265656e7472616e637947756172643a207265656e7472616e742063616c6c00604082015260600190565b60208082526010908201526f496e76616c6964206d6174757269747960801b604082015260600190565b60008060408385031215614b6b57600080fd5b505080516020909101519092909150565b634e487b7160e01b600052601160045260246000fd5b60008219821115614ba557614ba5614b7c565b500190565b600060208284031215614bbc57600080fd5b5051919050565b634e487b7160e01b600052603260045260246000fd5b6000815180845260005b81811015614bff57602081850181015186830182015201614be3565b81811115614c11576000602083870101525b50601f01601f19169290920160200192915050565b828152604060208201526000614c3f6040830184614bd9565b949350505050565b600060208284031215614c5957600080fd5b8151613bd581614406565b6000600019821415614c7857614c78614b7c565b5060010190565b6020808252818101527f4f776e61626c653a2063616c6c6572206973206e6f7420746865206f776e6572604082015260600190565b600080600060608486031215614cc957600080fd5b8351614cd4816146ac565b602085015160409095015190969495509392505050565b60028110614d0957634e487b7160e01b600052602160045260246000fd5b9052565b65ffffffffffff8616815260a08101614d296020830187614ceb565b8460408301528360608301528260808301529695505050505050565b600080600080600080600060e0888a031215614d6057600080fd5b5050855160208701516040880151606089015160808a015160a08b015160c0909b0151949c939b50919990985090965094509092509050565b600080600060608486031215614dae57600080fd5b8351614db981614406565b6020850151909350614dca81614406565b80925050604084015190509250925092565b604080825283519082018190526000906020906060840190828701845b82811015614e1557815184529284019290840190600101614df9565b50505092019290925292915050565b600060208284031215614e3657600080fd5b815167ffffffffffffffff811115614e4d57600080fd5b614c3f84828501614966565b600082821015614e6b57614e6b614b7c565b500390565b6001600160a01b03851681526020810184905260408101839052608081016127e86060830184614ceb565b600060208284031215614ead57600080fd5b8151613bd5816145a1565b60808101614ec68287614ceb565b6001600160a01b039490941660208201526040810192909252606090910152919050565b600080821280156001600160ff1b0384900385131615614f0c57614f0c614b7c565b600160ff1b8390038412811615614f2557614f25614b7c565b50500190565b60a08101614f398288614ceb565b6001600160a01b03959095166020820152604081019390935260608301919091521515608090910152919050565b878152602081018790526001600160a01b038616604082015260e08101614f916060830187614ceb565b8460808301528360a08301528260c083015298975050505050505050565b60808101614fbd8287614ceb565b84602083015283604083015282606083015295945050505050565b60408101614fe68285614ceb565b8260208301529392505050565b600081600019048311821515161561500d5761500d614b7c565b500290565b634e487b7160e01b600052603160045260246000fd5b60008261504557634e487b7160e01b600052601260045260246000fd5b500490565b602081526000613bd56020830184614bd956fe19bfb841e3f2b667d170c57909e7685dd6a0cee80d36344e04905cfd7d917bd74abde63c3e81aefa5764b017968bc473e83e093d7e1a10247d19e0a3e412401855cc3066d618b5a688ac1f2a8234e21c685f7432b4230a1660309640d60d8f6455cc3066d618b5a688ac1f2a8234e21c685f7432b4230a1660309640d60d8f65a264697066735822122032a487749087304c5c5c0d7e7cf163e9946a2ec50456f4dea62b13d91459dbf964736f6c63430008090033",
  "deployedBytecode": "0x6080604052600436106102935760003560e01c8063766cb64e1161015a578063cb9d7401116100c1578063eb092a261161007a578063eb092a261461088a578063ebb91416146108aa578063f2fde38b146108ca578063faca409b146108ea578063fb54a6b31461090a578063fc7008101461092a57600080fd5b8063cb9d7401146107bb578063cc03348b146107f5578063e099765914610815578063e906c1001461082a578063e95dc1831461084a578063e99d05381461086a57600080fd5b80638da5cb5b116101135780638da5cb5b14610713578063953dbcaa14610728578063a02be3dc14610748578063b3cb845014610768578063bfd10cf614610788578063bfe61a28146107a857600080fd5b8063766cb64e1461065357806385323e1a14610673578063870cf8ab14610693578063891d5965146106b35780638a981745146106d35780638b36d833146106f357600080fd5b8063381ada1f116101fe57806355aceb4e116101b757806355aceb4e1461055c5780635c347765146105895780635ca65d57146105de57806370c641a6146105fe578063715018a61461061e57806372d563ef1461063357600080fd5b8063381ada1f1461049a5780633d03b9da146104c7578063448255c7146104e9578063485cc955146104fc57806349f2ccbf1461051c578063529a356f1461053c57600080fd5b8063268bb27911610250578063268bb279146103ee57806329985e5a146104105780632af64bd3146104255780632e6c5e671461043a5780632e77aea71461045a5780632f7495741461047a57600080fd5b80630312b5281461029857806303e5fb59146102fa57806304f3bcec146103425780630594de6e1461036f57806317b72ff41461039e57806322365261146103be575b600080fd5b3480156102a457600080fd5b506102b86102b336600461441b565b61094a565b604080519889526020890197909752958701949094526060860192909252608085015260a084015260c0830152151560e0820152610100015b60405180910390f35b34801561030657600080fd5b50610334610315366004614450565b600090815260008051602061509e833981519152602052604090205490565b6040519081526020016102f1565b34801561034e57600080fd5b506103576109ff565b6040516001600160a01b0390911681526020016102f1565b34801561037b57600080fd5b5061038f61038a366004614469565b610a20565b6040516102f1939291906144d0565b3480156103aa57600080fd5b506103346103b9366004614513565b610adf565b3480156103ca57600080fd5b506103de6103d9366004614543565b610b74565b60405190151581526020016102f1565b3480156103fa57600080fd5b5061040e6104093660046145af565b610e72565b005b34801561041c57600080fd5b5061040e610e8d565b34801561043157600080fd5b506103de61103a565b34801561044657600080fd5b506103de610455366004614450565b6111a0565b34801561046657600080fd5b506103346104753660046145cc565b6111c0565b34801561048657600080fd5b5061040e610495366004614605565b611256565b3480156104a657600080fd5b506104ba6104b5366004614450565b611359565b6040516102f19190614627565b3480156104d357600080fd5b506104dc6113ce565b6040516102f19190614674565b6103de6104f73660046146b9565b6114f0565b34801561050857600080fd5b5061040e610517366004614702565b6115fc565b34801561052857600080fd5b506103de610537366004614730565b611776565b34801561054857600080fd5b506103de610557366004614769565b611910565b34801561056857600080fd5b5061057c610577366004614450565b611921565b6040516102f19190614786565b34801561059557600080fd5b506105a96105a4366004614513565b611a89565b604080519788526020880196909652948601939093526060850191909152608084015260a083015260c082015260e0016102f1565b3480156105ea57600080fd5b5061040e6105f9366004614605565b611b74565b34801561060a57600080fd5b50610334610619366004614513565b611c66565b34801561062a57600080fd5b5061040e611cfe565b34801561063f57600080fd5b5061040e61064e366004614605565b611d39565b34801561065f57600080fd5b5061040e61066e366004614799565b611e79565b34801561067f57600080fd5b5061035761068e366004614605565b611fd0565b34801561069f57600080fd5b5061040e6106ae366004614769565b612032565b3480156106bf57600080fd5b506103346106ce366004614450565b612091565b3480156106df57600080fd5b506103576106ee366004614605565b6120af565b3480156106ff57600080fd5b5061040e61070e366004614450565b6120e1565b34801561071f57600080fd5b50610357612322565b34801561073457600080fd5b5061038f610743366004614469565b61234a565b34801561075457600080fd5b5061057c610763366004614450565b6123a9565b34801561077457600080fd5b506103de610783366004614450565b61250a565b34801561079457600080fd5b5061057c6107a3366004614450565b612608565b6103de6107b63660046146b9565b612769565b3480156107c757600080fd5b506103346107d6366004614450565b60009081526000805160206150be833981519152602052604090205490565b34801561080157600080fd5b506103de61081036600461483f565b6127f1565b34801561082157600080fd5b506104dc612866565b34801561083657600080fd5b506103346108453660046145cc565b6128a9565b34801561085657600080fd5b50610334610865366004614513565b612942565b34801561087657600080fd5b506103de610885366004614450565b612e3d565b34801561089657600080fd5b5061057c6108a5366004614450565b612f32565b3480156108b657600080fd5b506103de6108c53660046146b9565b613093565b3480156108d657600080fd5b5061040e6108e5366004614769565b61336a565b3480156108f657600080fd5b506103de6109053660046146b9565b613407565b34801561091657600080fd5b50610334610925366004614769565b613494565b34801561093657600080fd5b506104dc610945366004614769565b61361e565b60008060008060008060008073__$1f9ad3a48ce553524574a0c26027261f08$__630312b5288c8c8c6040518463ffffffff1660e01b8152600401610991939291906148db565b6101006040518083038186803b1580156109aa57600080fd5b505af41580156109be573d6000803e3d6000fd5b505050506040513d601f19601f820116820180604052508101906109e291906148fc565b975097509750975097509750975097509397509397509397509397565b600060008051602061507e8339815191525b546001600160a01b0316919050565b60608060606000610a2f61364c565b600088815260029190910160209081526040808320898452909152908190205490516325fb168b60e11b8152600481018790526001600160a01b0390911691508190634bf62d16906024015b60006040518083038186803b158015610a9357600080fd5b505afa158015610aa7573d6000803e3d6000fd5b505050506040513d6000823e601f3d908101601f19168201604052610acf91908101906149cc565b9350935093505093509350939050565b6040516295a47160e71b815260009073__$1f9ad3a48ce553524574a0c26027261f08$__90634ad2388090610b1c90869085908790600401614a54565b60e06040518083038186803b158015610b3457600080fd5b505af4158015610b48573d6000803e3d6000fd5b505050506040513d601f19601f82011682018060405250810190610b6c9190614a73565b519392505050565b600060026000541415610ba25760405162461bcd60e51b8152600401610b9990614af7565b60405180910390fd5b6002600090815585908590610bb561364c565b6000848152600291909101602090815260408083208584529091529020546001600160a01b03161415610bfa5760405162461bcd60e51b8152600401610b9990614b2e565b333b15610c3e5760405162461bcd60e51b815260206004820152601260248201527143616c6c6572206d75737420626520454f4160701b6044820152606401610b99565b610c4733613670565b610c8a5760405162461bcd60e51b815260206004820152601460248201527343616c6c6572206973206e6f742061637469766560601b6044820152606401610b99565b610c948786612942565b50604051639c599f8b60e01b81523360048201526001600160a01b038616602482015260448101899052606481018890526084810187905262ffffff851660a4820152600090819073__$1f9ad3a48ce553524574a0c26027261f08$__90639c599f8b9060c401604080518083038186803b158015610d1257600080fd5b505af4158015610d26573d6000803e3d6000fd5b505050506040513d601f19601f82011682018060405250810190610d4a9190614b58565b9092509050808215610d7a576000610d6a8b8b8b600088600060016136ad565b9050610d768183614b92565b9150505b8015610e5b57888a896001600160a01b03167f347d8f9576f47b3bd7a4821cd3d3d4171968cdd36680d4abaca7de302d836f998e85604051610dc6929190918252602082015260400190565b60405180910390a460405163300074c960e01b815273__$1f9ad3a48ce553524574a0c26027261f08$__9063300074c990610e09908d908d908d90600401614a54565b60206040518083038186803b158015610e2157600080fd5b505af4158015610e35573d6000803e3d6000fd5b505050506040513d601f19601f82011682018060405250810190610e599190614baa565b505b600195505050505050600160005595945050505050565b8015610e8457610e8133613a86565b50565b610e8133613ab5565b6000610e976113ce565b905060005b8151811015611036576000828281518110610eb957610eb9614bc3565b602002602001015190506000610eda60008051602061507e83398151915290565b54604080517f5265736f6c766572206d697373696e67207461726765743a200000000000000060208201526039808201869052825180830390910181526059820192839052636795dbcd60e01b9092526001600160a01b0390921691636795dbcd91610f4b91869190605d01614c26565b60206040518083038186803b158015610f6357600080fd5b505afa158015610f77573d6000803e3d6000fd5b505050506040513d601f19601f82011682018060405250810190610f9b9190614c47565b60008381527f4abde63c3e81aefa5764b017968bc473e83e093d7e1a10247d19e0a3e4124019602090815260409182902080546001600160a01b0319166001600160a01b03851690811790915582518681529182015281519293507f88a93678a3692f6789d9546fc621bf7234b101ddb7d4fe479455112831b8aa68929081900390910190a15050808061102e90614c64565b915050610e9c565b5050565b6000806110456113ce565b905060005b815181101561119757600082828151811061106757611067614bc3565b6020026020010151905061108660008051602061507e83398151915290565b600082815260019190910160205260409020546001600160a01b031660008051602061507e833981519152546040516321f8a72160e01b8152600481018490526001600160a01b03909116906321f8a7219060240160206040518083038186803b1580156110f357600080fd5b505afa158015611107573d6000803e3d6000fd5b505050506040513d601f19601f8201168201806040525081019061112b9190614c47565b6001600160a01b0316141580611175575060008181527f4abde63c3e81aefa5764b017968bc473e83e093d7e1a10247d19e0a3e412401960205260409020546001600160a01b0316155b15611184576000935050505090565b508061118f81614c64565b91505061104a565b50600191505090565b60006111aa61364c565b6000928352600301602052506040902054151590565b6040516295a47160e71b815260009073__$1f9ad3a48ce553524574a0c26027261f08$__90634ad23880906111fd90879087908790600401614a54565b60e06040518083038186803b15801561121557600080fd5b505af4158015611229573d6000803e3d6000fd5b505050506040513d601f19601f8201168201806040525081019061124d9190614a73565b51949350505050565b3361125f612322565b6001600160a01b0316146112855760405162461bcd60e51b8152600401610b9990614c7f565b6127108111156112d75760405162461bcd60e51b815260206004820152601a60248201527f496e76616c6964206175746f2d726f6c6c2066656520726174650000000000006044820152606401610b99565b60008281526000805160206150be83398151915260205260409020548181146113545760008381526000805160206150be833981519152602090815260409182902084905581518381529081018490527fdfbb9051e39a726dacd506a01fecef2277ab8adc7423037867c554573f179fdb91015b60405180910390a15b505050565b606061136361364c565b60008381526020918252604090819020805482518185028101850190935280835291929091908301828280156113c257602002820191906000526020600020905b81546001600160a01b031681526001909101906020018083116113a4575b50505050509050919050565b60408051600580825260c082019092526060916020820160a080368337019050509050742132b0b1b7b7283937bc3ca1b7b73a3937b63632b960591b8160008151811061141d5761141d614bc3565b6020026020010181815250507121bab93932b731bca1b7b73a3937b63632b960711b8160018151811061145257611452614bc3565b6020026020010181815250507011d95b995cda5cd5985b1d5955985d5b1d607a1b8160028151811061148657611486614bc3565b6020026020010181815250506a14995cd95c9d99519d5b9960aa1b816003815181106114b4576114b4614bc3565b60200260200101818152505069151bdad95b95985d5b1d60b21b816004815181106114e1576114e1614bc3565b60200260200101818152505090565b6000600260005414156115155760405162461bcd60e51b8152600401610b9990614af7565b600260009081558690869061152861364c565b6000848152600291909101602090815260408083208584529091529020546001600160a01b0316141561156d5760405162461bcd60e51b8152600401610b9990614b2e565b611575613acb565b6001600160a01b03166396994e3734338b896040518563ffffffff1660e01b81526004016115a5939291906148db565b6000604051808303818588803b1580156115be57600080fd5b505af11580156115d2573d6000803e3d6000fd5b50505050506115e788883389898960006136ad565b50600192505050600160005595945050505050565b600154610100900460ff161580801561161957506001805460ff16105b806116325750303b15801561163257506001805460ff16145b6116955760405162461bcd60e51b815260206004820152602e60248201527f496e697469616c697a61626c653a20636f6e747261637420697320616c72656160448201526d191e481a5b9a5d1a585b1a5e995960921b6064820152608401610b99565b6001805460ff19168117905580156116b7576001805461ff0019166101001790555b60006116c1613ada565b6001600160a01b031614156117235760405162461bcd60e51b815260206004820152602260248201527f4d7573742062652063616c6c65642066726f6d2070726f787920636f6e74726160448201526118dd60f21b6064820152608401610b99565b61172c836133fe565b61173582613b02565b8015611354576001805461ff00191681556040519081527f7f26b83ff96e1f2b6a682f133852f6798a09c465da95921460cefb38474024989060200161134b565b60006002600054141561179b5760405162461bcd60e51b8152600401610b9990614af7565b60026000908155849084906117ae61364c565b6000848152600291909101602090815260408083208584529091529020546001600160a01b031614156117f35760405162461bcd60e51b8152600401610b9990614b2e565b60006117fd61364c565b60008881526002919091016020908152604080832089845290915280822054905163504b89bd60e01b815233600482015265ffffffffffff881660248201526001600160a01b03909116925081908190849063504b89bd90604401606060405180830381600087803b15801561187257600080fd5b505af1158015611886573d6000803e3d6000fd5b505050506040513d601f19601f820116820180604052508101906118aa9190614cb4565b92509250925089336001600160a01b03167f4d71330c358e4f44590905c3373d1e04529d36b64e552c5cb51813ef62d120d78a868d87876040516118f2959493929190614d0d565b60405180910390a36001965050505050505060016000559392505050565b600061191b82613b97565b92915050565b6060600061192d61364c565b6000848152602091909152604090205467ffffffffffffffff811115611955576119556147d4565b60405190808252806020026020018201604052801561197e578160200160208202803683370190505b50905060005b61198c61364c565b60008581526020919091526040902054811015611a825760006119ad61364c565b6000868152602091909152604090208054839081106119ce576119ce614bc3565b6000918252602091829020015460408051631b3508b760e01b815290516001600160a01b0390921693508392631b3508b792600480840193829003018186803b158015611a1a57600080fd5b505afa158015611a2e573d6000803e3d6000fd5b505050506040513d601f19601f82011682018060405250810190611a529190614baa565b838381518110611a6457611a64614bc3565b60209081029190910101525080611a7a81614c64565b915050611984565b5092915050565b6000806000806000806000611ac289611aa061364c565b6001600160a01b038b1660009081526004919091016020526040902090613bc1565b15611b6857604051635c34776560e01b8152600481018a90526001600160a01b038916602482015273__$1f9ad3a48ce553524574a0c26027261f08$__90635c3477659060440160e06040518083038186803b158015611b2157600080fd5b505af4158015611b35573d6000803e3d6000fd5b505050506040513d601f19601f82011682018060405250810190611b599190614d45565b96509650965096509650965096505b92959891949750929550565b33611b7d612322565b6001600160a01b031614611ba35760405162461bcd60e51b8152600401610b9990614c7f565b612710811115611bee5760405162461bcd60e51b8152602060048201526016602482015275496e76616c6964206f7264657220666565207261746560501b6044820152606401610b99565b600082815260008051602061509e833981519152602052604090205481811461135457600083815260008051602061509e833981519152602090815260409182902084905581518381529081018490527fff4528c215dc00005504418aa82be3bb2439c39be2eb30fd44012f5e79d168e2910161134b565b6040516295a47160e71b815260009073__$1f9ad3a48ce553524574a0c26027261f08$__90634ad2388090611ca390869085908790600401614a54565b60e06040518083038186803b158015611cbb57600080fd5b505af4158015611ccf573d6000803e3d6000fd5b505050506040513d601f19601f82011682018060405250810190611cf39190614a73565b60c001519392505050565b33611d07612322565b6001600160a01b031614611d2d5760405162461bcd60e51b8152600401610b9990614c7f565b611d376000613bdc565b565b33611d42612322565b6001600160a01b031614611d685760405162461bcd60e51b8152600401610b9990614c7f565b6040516372d563ef60e01b815260048101839052602481018290526000908190819073__$e769a865965cc8d3bf1590a15a9475ad85$__906372d563ef9060440160606040518083038186803b158015611dc157600080fd5b505af4158015611dd5573d6000803e3d6000fd5b505050506040513d601f19601f82011682018060405250810190611df99190614d99565b925092509250826001600160a01b0316857fc29f3eef4e596f3e26da74f3482ffe2325449509e985d19f0a099240429add4e84611e3461364c565b60008a815260209182526040908190205481516001600160a01b0390941684529183019190915281018890526060810185905260800160405180910390a35050505050565b33611e82612322565b6001600160a01b031614611ea85760405162461bcd60e51b8152600401610b9990614c7f565b60008311611ef85760405162461bcd60e51b815260206004820152601760248201527f496e76616c696420636f6d706f756e6420666163746f720000000000000000006044820152606401610b99565b611f01856111a0565b15611f445760405162461bcd60e51b8152602060048201526013602482015272105b1c9958591e481a5b9a5d1a585b1a5e9959606a1b6044820152606401610b99565b60405163d3f43b7960e01b815260048101869052602481018590526044810184905273__$e769a865965cc8d3bf1590a15a9475ad85$__9063d3f43b799060640160006040518083038186803b158015611f9d57600080fd5b505af4158015611fb1573d6000803e3d6000fd5b50505050611fbf8583611b74565b611fc98582611256565b5050505050565b6000611fda61364c565b60008481526001919091016020526040812090611ff561364c565b600095865260020160209081526040808720958752948152848620546001600160a01b039081168352908201929092529092019092205416919050565b600061203c61364c565b6001600160a01b03831660009081526004919091016020526040812091505b61206482613c4d565b8110156113545761207e6120788383613c57565b84612942565b508061208981614c64565b91505061205b565b600061209b61364c565b600092835260030160205250604090205490565b60006120b961364c565b600093845260020160209081526040808520938552929052509020546001600160a01b031690565b600260005414156121045760405162461bcd60e51b8152600401610b9990614af7565b60026000908155819061211561364c565b600083815260209190915260409020541161218b5760405162461bcd60e51b815260206004820152603060248201527f4e6f206c656e64696e67206d61726b65747320657869737420666f722061207360448201526f706563696669632063757272656e637960801b6064820152608401610b99565b60008073__$e769a865965cc8d3bf1590a15a9475ad85$__63a3d54d8c856121cc8760009081526000805160206150be833981519152602052604090205490565b6040516001600160e01b031960e085901b16815260048101929092526024820152604401604080518083038186803b15801561220757600080fd5b505af415801561221b573d6000803e3d6000fd5b505050506040513d601f19601f8201168201806040525081019061223f9190614b58565b9150915073__$1f9ad3a48ce553524574a0c26027261f08$__63300074c98583612267613c63565b6040518463ffffffff1660e01b815260040161228593929190614a54565b60206040518083038186803b15801561229d57600080fd5b505af41580156122b1573d6000803e3d6000fd5b505050506040513d601f19601f820116820180604052508101906122d59190614baa565b5060408051858152602081018490529081018290527f0c6f5a3bc801362dc3d24c87799fa831f5a601c5dbd8bed4064907844eef97369060600160405180910390a1505060016000555050565b60007f9acda75aebd150dd434541a4747a6dc606f4f1a59662477e67daf1fc0bf9e0aa610a11565b6060806060600061235961364c565b6000888152600291909101602090815260408083208984529091529081902054905163d866d35560e01b8152600481018790526001600160a01b039091169150819063d866d35590602401610a7b565b606060006123b561364c565b6000848152602091909152604090205467ffffffffffffffff8111156123dd576123dd6147d4565b604051908082528060200260200182016040528015612406578160200160208202803683370190505b50905060005b61241461364c565b60008581526020919091526040902054811015611a8257600061243561364c565b60008681526020919091526040902080548390811061245657612456614bc3565b600091825260209182902001546040805163e16695b560e01b815290516001600160a01b039092169350839263e16695b592600480840193829003018186803b1580156124a257600080fd5b505afa1580156124b6573d6000803e3d6000fd5b505050506040513d601f19601f820116820180604052508101906124da9190614baa565b8383815181106124ec576124ec614bc3565b6020908102919091010152508061250281614c64565b91505061240c565b600033612515612322565b6001600160a01b03161461253b5760405162461bcd60e51b8152600401610b9990614c7f565b60005b61254661364c565b600084815260209190915260409020548110156125ff57600061256761364c565b60008581526020919091526040902080548390811061258857612588614bc3565b60009182526020822001546040805163280dce3760e21b815290516001600160a01b039092169350839263a03738dc9260048084019382900301818387803b1580156125d357600080fd5b505af11580156125e7573d6000803e3d6000fd5b505050505080806125f790614c64565b91505061253e565b50600192915050565b6060600061261461364c565b6000848152602091909152604090205467ffffffffffffffff81111561263c5761263c6147d4565b604051908082528060200260200182016040528015612665578160200160208202803683370190505b50905060005b61267361364c565b60008581526020919091526040902054811015611a8257600061269461364c565b6000868152602091909152604090208054839081106126b5576126b5614bc3565b60009182526020918290200154604080516371613c2d60e01b815290516001600160a01b03909216935083926371613c2d92600480840193829003018186803b15801561270157600080fd5b505afa158015612715573d6000803e3d6000fd5b505050506040513d601f19601f820116820180604052508101906127399190614baa565b83838151811061274b5761274b614bc3565b6020908102919091010152508061276181614c64565b91505061266b565b6000612773613acb565b6001600160a01b03166396994e37343389876040518563ffffffff1660e01b81526004016127a3939291906148db565b6000604051808303818588803b1580156127bc57600080fd5b505af11580156127d0573d6000803e3d6000fd5b50505050506127e28686868686613093565b50600190505b95945050505050565b60405163cc03348b60e01b815260009073__$e769a865965cc8d3bf1590a15a9475ad85$__9063cc03348b9061282d9086908690600401614ddc565b60006040518083038186803b15801561284557600080fd5b505af4158015612859573d6000803e3d6000fd5b5060019695505050505050565b6040805160018082528183019092526060916020808301908036833701905050905069151bdad95b95985d5b1d60b21b816000815181106114e1576114e1614bc3565b6040516295a47160e71b815260009073__$1f9ad3a48ce553524574a0c26027261f08$__90634ad23880906128e690879087908790600401614a54565b60e06040518083038186803b1580156128fe57600080fd5b505af4158015612912573d6000803e3d6000fd5b505050506040513d601f19601f820116820180604052508101906129369190614a73565b60200151949350505050565b604051635b0f7aad60e11b8152600481018390526001600160a01b03821660248201526000908190819073__$1f9ad3a48ce553524574a0c26027261f08$__9063b61ef55a9060440160006040518083038186803b1580156129a357600080fd5b505af41580156129b7573d6000803e3d6000fd5b505050506040513d6000823e601f3d908101601f191682016040526129df9190810190614e24565b905060005b8151811015612d605760006129f761364c565b60020160008881526020019081526020016000206000848481518110612a1f57612a1f614bc3565b6020026020010151815260200190815260200160002060009054906101000a90046001600160a01b031690506000816001600160a01b031663e16695b56040518163ffffffff1660e01b815260040160206040518083038186803b158015612a8657600080fd5b505afa158015612a9a573d6000803e3d6000fd5b505050506040513d601f19601f82011682018060405250810190612abe9190614baa565b9050600073__$1f9ad3a48ce553524574a0c26027261f08$__63300074c98a848b6040518463ffffffff1660e01b8152600401612afd93929190614a54565b60206040518083038186803b158015612b1557600080fd5b505af4158015612b29573d6000803e3d6000fd5b505050506040513d601f19601f82011682018060405250810190612b4d9190614baa565b9050600080612b5d8b858c613c6d565b9092509050612b6c828a614b92565b98508015612c025760405163300074c960e01b815273__$1f9ad3a48ce553524574a0c26027261f08$__9063300074c990612baf908e9088908f90600401614a54565b60206040518083038186803b158015612bc757600080fd5b505af4158015612bdb573d6000803e3d6000fd5b505050506040513d601f19601f82011682018060405250810190612bff9190614baa565b92505b8215612c0d57600197505b82158015612c19575081155b15612c8a57612c88878781518110612c3357612c33614bc3565b6020026020010151612c4361364c565b60050160008e815260200190815260200160002060008d6001600160a01b03166001600160a01b0316815260200190815260200160002061401b90919063ffffffff16565b505b612c92614027565b6001600160a01b031663eeac29d88c8c60018b51612cb09190614e59565b8a14612cdf578a612cc28b6001614b92565b81518110612cd257612cd2614bc3565b6020026020010151612ce2565b60005b6040516001600160e01b031960e086901b16815260048101939093526001600160a01b0390911660248301526044820152606401600060405180830381600087803b158015612d3057600080fd5b505af1158015612d44573d6000803e3d6000fd5b5050505050505050508080612d5890614c64565b9150506129e4565b5082158015612d6d575081155b8015612e005750612d7c614027565b60405163386320d360e11b8152600481018790526001600160a01b03868116602483015291909116906370c641a69060440160206040518083038186803b158015612dc657600080fd5b505afa158015612dda573d6000803e3d6000fd5b505050506040513d601f19601f82011682018060405250810190612dfe9190614baa565b155b15612e3557612e3385612e1161364c565b6001600160a01b0387166000908152600491909101602052604090209061401b565b505b505092915050565b600033612e48612322565b6001600160a01b031614612e6e5760405162461bcd60e51b8152600401610b9990614c7f565b60005b612e7961364c565b600084815260209190915260409020548110156125ff576000612e9a61364c565b600085815260209190915260409020805483908110612ebb57612ebb614bc3565b600091825260208220015460408051630b0863e760e11b815290516001600160a01b0390921693508392631610c7ce9260048084019382900301818387803b158015612f0657600080fd5b505af1158015612f1a573d6000803e3d6000fd5b50505050508080612f2a90614c64565b915050612e71565b60606000612f3e61364c565b6000848152602091909152604090205467ffffffffffffffff811115612f6657612f666147d4565b604051908082528060200260200182016040528015612f8f578160200160208202803683370190505b50905060005b612f9d61364c565b60008581526020919091526040902054811015611a82576000612fbe61364c565b600086815260209190915260409020805483908110612fdf57612fdf614bc3565b6000918252602091829020015460408051632f05aa6d60e11b815290516001600160a01b0390921693508392635e0b54da92600480840193829003018186803b15801561302b57600080fd5b505afa15801561303f573d6000803e3d6000fd5b505050506040513d601f19601f820116820180604052508101906130639190614baa565b83838151811061307557613075614bc3565b6020908102919091010152508061308b81614c64565b915050612f95565b6000600260005414156130b85760405162461bcd60e51b8152600401610b9990614af7565b60026000908155869086906130cb61364c565b6000848152600291909101602090815260408083208584529091529020546001600160a01b031614156131105760405162461bcd60e51b8152600401610b9990614b2e565b600061311c8933612942565b9050601461312b826001614b92565b11156131725760405162461bcd60e51b8152602060048201526016602482015275546f6f206d616e7920616374697665206f726465727360501b6044820152606401610b99565b6131a18861317e61364c565b60008c815260059190910160209081526040808320338452909152902090613bc1565b6131d6576131d4886131b161364c565b60008c815260059190910160209081526040808320338452909152902090614031565b505b6131de613acb565b6001600160a01b03166328ff7a42338b898b6040518563ffffffff1660e01b815260040161320f9493929190614e70565b60206040518083038186803b15801561322757600080fd5b505afa15801561323b573d6000803e3d6000fd5b505050506040513d601f19601f8201168201806040525081019061325f9190614e9b565b6132a35760405162461bcd60e51b8152602060048201526015602482015274139bdd08195b9bdd59da0818dbdb1b185d195c985b605a1b6044820152606401610b99565b6132ab61364c565b60008a8152600291909101602090815260408083208b8452909152908190205490516328378aab60e01b81526001600160a01b03909116906328378aab906132fd908a9033908b908b90600401614eb8565b600060405180830381600087803b15801561331757600080fd5b505af115801561332b573d6000803e3d6000fd5b505050506133548961333b61364c565b3360009081526004919091016020526040902090614031565b5060019350505050600160005595945050505050565b33613373612322565b6001600160a01b0316146133995760405162461bcd60e51b8152600401610b9990614c7f565b6001600160a01b0381166133fe5760405162461bcd60e51b815260206004820152602660248201527f4f776e61626c653a206e6577206f776e657220697320746865207a65726f206160448201526564647265737360d01b6064820152608401610b99565b610e8181613bdc565b60006002600054141561342c5760405162461bcd60e51b8152600401610b9990614af7565b600260009081558690869061343f61364c565b6000848152600291909101602090815260408083208584529091529020546001600160a01b031614156134845760405162461bcd60e51b8152600401610b9990614b2e565b6115e788883389898960006136ad565b60008061349f61364c565b6001600160a01b03841660009081526004919091016020526040812091505b6134c782613c4d565b8110156136175760006134da8383613c57565b9050600073__$1f9ad3a48ce553524574a0c26027261f08$__634ad23880836000896040518463ffffffff1660e01b815260040161351a93929190614a54565b60e06040518083038186803b15801561353257600080fd5b505af4158015613546573d6000803e3d6000fd5b505050506040513d601f19601f8201168201806040525081019061356a9190614a73565b51905061357561403d565b6040516303a0a22f60e41b815260048101849052602481018390526001600160a01b039190911690633a0a22f09060440160206040518083038186803b1580156135be57600080fd5b505afa1580156135d2573d6000803e3d6000fd5b505050506040513d601f19601f820116820180604052508101906135f69190614baa565b6136009086614eea565b94505050808061360f90614c64565b9150506134be565b5050919050565b606061191b61362b61364c565b6001600160a01b038416600090815260049190910160205260409020614047565b7f8041b8421ebd495cc61f38c788c9eb100daccf9bd36aa0bb920b7a15b2e0496590565b600061367b82613b97565b801561191b5750506001600160a01b0316600090815260008051602061505e8339815191526020526040902054431190565b60008084116136ef5760405162461bcd60e51b815260206004820152600e60248201526d125b9d985b1a5908185b5bdd5b9d60921b6044820152606401610b99565b60006136fb8988612942565b90506137358861370961364c565b60008c8152600591909101602090815260408083206001600160a01b038d168452909152902090613bc1565b613773576137718861374561364c565b60008c8152600591909101602090815260408083206001600160a01b038d168452909152902090614031565b505b8261384557613780613acb565b6001600160a01b03166328ff7a42888b888a6040518563ffffffff1660e01b81526004016137b19493929190614e70565b60206040518083038186803b1580156137c957600080fd5b505afa1580156137dd573d6000803e3d6000fd5b505050506040513d601f19601f820116820180604052508101906138019190614e9b565b6138455760405162461bcd60e51b8152602060048201526015602482015274139bdd08195b9bdd59da0818dbdb1b185d195c985b605a1b6044820152606401610b99565b60008061385061364c565b60008c8152600291909101602090815260408083208d845290915290819020549051633352870560e21b81526001600160a01b039091169063cd4a1c14906138a4908b908d908c908c908c90600401614f2b565b6040805180830381600087803b1580156138bd57600080fd5b505af11580156138d1573d6000803e3d6000fd5b505050506040513d601f19601f820116820180604052508101906138f59190614b58565b90925090506139048188614e59565b93506000856139855782158061391a5750600082115b1561392d5761392a600185614b92565b93505b60148411156139775760405162461bcd60e51b8152602060048201526016602482015275546f6f206d616e7920616374697665206f726465727360501b6044820152606401610b99565b6139828c848d614052565b90505b8215613a4857604051633df3a23760e01b815273__$1f9ad3a48ce553524574a0c26027261f08$__90633df3a237906139ce908f908f908f908f908a908d908a90600401614f67565b60006040518083038186803b1580156139e657600080fd5b505af41580156139fa573d6000803e3d6000fd5b505050508a8c8b6001600160a01b03167ff58abb58bdd84b485930c24ec5e99ec42b56c04c021af823afb6ae78aa244bcc8c898c89604051613a3f9493929190614faf565b60405180910390a45b613a768c613a5461364c565b6001600160a01b038d1660009081526004919091016020526040902090614031565b5050505050979650505050505050565b4360008051602061505e8339815191525b6001600160a01b039092166000908152602092909252604090912055565b600060008051602061505e833981519152613a97565b6000613ad56140cd565b905090565b60007f360894a13ba1a3210667c828492db98dca3e2076cc3735a920a3ca505d382bbc610a11565b60008051602061507e833981519152546001600160a01b031615613b685760405162461bcd60e51b815260206004820152601b60248201527f7265736f6c766572207265676973746572656420616c726561647900000000006044820152606401610b99565b60008051602061507e83398151915280546001600160a01b0319166001600160a01b0392909216919091179055565b6001600160a01b0316600090815260008051602061505e8339815191526020526040902054151590565b600081815260018301602052604081205415155b9392505050565b7f9acda75aebd150dd434541a4747a6dc606f4f1a59662477e67daf1fc0bf9e0aa80546001600160a01b038381166001600160a01b0319831681179093556040519116919082907f8be0079c531659141344cd1fd0a4f28419497f9722a3daafe3b4186f6b6457e090600090a35050565b600061191b825490565b6000613bd583836140e5565b6000613ad561410f565b6000806000613c7c8686611fd0565b90506000806000806000806000613c9161364c565b60008e8152600291909101602090815260408083208f845290915290819020549051630516d8c960e11b81526001600160a01b038d8116600483015290911690630a2db1929060240160e060405180830381600087803b158015613cf457600080fd5b505af1158015613d08573d6000803e3d6000fd5b505050506040513d601f19601f82011682018060405250810190613d2c9190614d45565b965096509650965096509650965081831115613db957613d4a613acb565b6001600160a01b031663fb7bd3b48c8f613d648688614e59565b6040518463ffffffff1660e01b8152600401613d82939291906148db565b600060405180830381600087803b158015613d9c57600080fd5b505af1158015613db0573d6000803e3d6000fd5b50505050613e34565b81831015613e3457613dc9613acb565b6001600160a01b0316634ba0c9b58c8f613de38787614e59565b6040518463ffffffff1660e01b8152600401613e01939291906148db565b600060405180830381600087803b158015613e1b57600080fd5b505af1158015613e2f573d6000803e3d6000fd5b505050505b8415613f1257604051639e8d3d5560e01b81526001600160a01b038c81166004830152602482018790526044820183905260006064830152891690639e8d3d5590608401602060405180830381600087803b158015613e9257600080fd5b505af1158015613ea6573d6000803e3d6000fd5b505050506040513d601f19601f82011682018060405250810190613eca9190614e9b565b50808d8c6001600160a01b03167f997c951334d5983afa515edf5d21c61d3dfec68c3d93415b92248b0f15123aeb600089604051613f09929190614fd8565b60405180910390a45b8315613ff0576040516305b0b29360e41b81526001600160a01b038c81166004830152602482018690526044820183905260006064830152891690635b0b293090608401602060405180830381600087803b158015613f7057600080fd5b505af1158015613f84573d6000803e3d6000fd5b505050506040513d601f19601f82011682018060405250810190613fa89190614e9b565b50808d8c6001600160a01b03167f997c951334d5983afa515edf5d21c61d3dfec68c3d93415b92248b0f15123aeb600188604051613fe7929190614fd8565b60405180910390a45b6000613ffc8587614b92565b1198506140098688614b92565b99505050505050505050935093915050565b6000613bd58383614128565b6000613ad561421b565b6000613bd5838361423a565b6000613ad5614289565b606061191b826142a9565b60008142106140735760405162461bcd60e51b8152600401610b9990614b2e565b600061407f4284614e59565b90506127e86140946127106301e13380614ff3565b600087815260008051602061509e833981519152602052604090205486906140bd908590614ff3565b6140c79190614ff3565b90614304565b6000613ad569151bdad95b95985d5b1d60b21b614375565b60008260000182815481106140fc576140fc614bc3565b9060005260206000200154905092915050565b6000613ad56a14995cd95c9d99519d5b9960aa1b614375565b6000818152600183016020526040812054801561421157600061414c600183614e59565b855490915060009061416090600190614e59565b90508181146141c557600086600001828154811061418057614180614bc3565b90600052602060002001549050808760000184815481106141a3576141a3614bc3565b6000918252602080832090910192909255918252600188019052604090208390555b85548690806141d6576141d6615012565b60019003818190600052602060002001600090559055856001016000868152602001908152602001600020600090556001935050505061191b565b600091505061191b565b6000613ad57011d95b995cda5cd5985b1d5955985d5b1d607a1b614375565b60008181526001830160205260408120546142815750815460018181018455600084815260208082209093018490558454848252828601909352604090209190915561191b565b50600061191b565b6000613ad57121bab93932b731bca1b7b73a3937b63632b960711b614375565b6060816000018054806020026020016040519081016040528092919081815260200182805480156113c257602002820191906000526020600020905b8154815260200190600101908083116142e55750505050509050919050565b600080821161431257600080fd5b600561431e8385615028565b61432990600a614ff3565b8361433586600a614ff3565b61433f9190615028565b6143499190614e59565b1015614360576143598284615028565b905061191b565b61436a8284615028565b614359906001614b92565b60008181527f4abde63c3e81aefa5764b017968bc473e83e093d7e1a10247d19e0a3e41240196020908152604080832054815170026b4b9b9b4b7339030b2323932b9b99d1607d1b9381019390935260318084018690528251808503909101815260519093019091526001600160a01b03169081611a825760405162461bcd60e51b8152600401610b99919061504a565b6001600160a01b0381168114610e8157600080fd5b60008060006060848603121561443057600080fd5b833561443b81614406565b95602085013595506040909401359392505050565b60006020828403121561446257600080fd5b5035919050565b60008060006060848603121561447e57600080fd5b505081359360208301359350604090920135919050565b600081518084526020808501945080840160005b838110156144c5578151875295820195908201906001016144a9565b509495945050505050565b6060815260006144e36060830186614495565b82810360208401526144f58186614495565b905082810360408401526145098185614495565b9695505050505050565b6000806040838503121561452657600080fd5b82359150602083013561453881614406565b809150509250929050565b600080600080600060a0868803121561455b57600080fd5b853594506020860135935060408601359250606086013561457b81614406565b9150608086013562ffffff8116811461459357600080fd5b809150509295509295909350565b8015158114610e8157600080fd5b6000602082840312156145c157600080fd5b8135613bd5816145a1565b6000806000606084860312156145e157600080fd5b833592506020840135915060408401356145fa81614406565b809150509250925092565b6000806040838503121561461857600080fd5b50508035926020909101359150565b6020808252825182820181905260009190848201906040850190845b818110156146685783516001600160a01b031683529284019291840191600101614643565b50909695505050505050565b6020808252825182820181905260009190848201906040850190845b8181101561466857835183529284019291840191600101614690565b60028110610e8157600080fd5b600080600080600060a086880312156146d157600080fd5b853594506020860135935060408601356146ea816146ac565b94979396509394606081013594506080013592915050565b6000806040838503121561471557600080fd5b823561472081614406565b9150602083013561453881614406565b60008060006060848603121561474557600080fd5b8335925060208401359150604084013565ffffffffffff811681146145fa57600080fd5b60006020828403121561477b57600080fd5b8135613bd581614406565b602081526000613bd56020830184614495565b600080600080600060a086880312156147b157600080fd5b505083359560208501359550604085013594606081013594506080013592509050565b634e487b7160e01b600052604160045260246000fd5b604051601f8201601f1916810167ffffffffffffffff81118282101715614813576148136147d4565b604052919050565b600067ffffffffffffffff821115614835576148356147d4565b5060051b60200190565b6000806040838503121561485257600080fd5b823567ffffffffffffffff81111561486957600080fd5b8301601f8101851361487a57600080fd5b8035602061488f61488a8361481b565b6147ea565b82815260059290921b830181019181810190888411156148ae57600080fd5b938201935b838510156148cc578435825293820193908201906148b3565b98969091013596505050505050565b6001600160a01b039390931683526020830191909152604082015260600190565b600080600080600080600080610100898b03121561491957600080fd5b885197506020890151965060408901519550606089015194506080890151935060a0890151925060c0890151915060e0890151614955816145a1565b809150509295985092959890939650565b600082601f83011261497757600080fd5b8151602061498761488a8361481b565b82815260059290921b840181019181810190868411156149a657600080fd5b8286015b848110156149c157805183529183019183016149aa565b509695505050505050565b6000806000606084860312156149e157600080fd5b835167ffffffffffffffff808211156149f957600080fd5b614a0587838801614966565b94506020860151915080821115614a1b57600080fd5b614a2787838801614966565b93506040860151915080821115614a3d57600080fd5b50614a4a86828701614966565b9150509250925092565b92835260208301919091526001600160a01b0316604082015260600190565b600060e08284031215614a8557600080fd5b60405160e0810181811067ffffffffffffffff82111715614aa857614aa86147d4565b8060405250825181526020830151602082015260408301516040820152606083015160608201526080830151608082015260a083015160a082015260c083015160c08201528091505092915050565b6020808252601f908201527f5265656e7472616e637947756172643a207265656e7472616e742063616c6c00604082015260600190565b60208082526010908201526f496e76616c6964206d6174757269747960801b604082015260600190565b60008060408385031215614b6b57600080fd5b505080516020909101519092909150565b634e487b7160e01b600052601160045260246000fd5b60008219821115614ba557614ba5614b7c565b500190565b600060208284031215614bbc57600080fd5b5051919050565b634e487b7160e01b600052603260045260246000fd5b6000815180845260005b81811015614bff57602081850181015186830182015201614be3565b81811115614c11576000602083870101525b50601f01601f19169290920160200192915050565b828152604060208201526000614c3f6040830184614bd9565b949350505050565b600060208284031215614c5957600080fd5b8151613bd581614406565b6000600019821415614c7857614c78614b7c565b5060010190565b6020808252818101527f4f776e61626c653a2063616c6c6572206973206e6f7420746865206f776e6572604082015260600190565b600080600060608486031215614cc957600080fd5b8351614cd4816146ac565b602085015160409095015190969495509392505050565b60028110614d0957634e487b7160e01b600052602160045260246000fd5b9052565b65ffffffffffff8616815260a08101614d296020830187614ceb565b8460408301528360608301528260808301529695505050505050565b600080600080600080600060e0888a031215614d6057600080fd5b5050855160208701516040880151606089015160808a015160a08b015160c0909b0151949c939b50919990985090965094509092509050565b600080600060608486031215614dae57600080fd5b8351614db981614406565b6020850151909350614dca81614406565b80925050604084015190509250925092565b604080825283519082018190526000906020906060840190828701845b82811015614e1557815184529284019290840190600101614df9565b50505092019290925292915050565b600060208284031215614e3657600080fd5b815167ffffffffffffffff811115614e4d57600080fd5b614c3f84828501614966565b600082821015614e6b57614e6b614b7c565b500390565b6001600160a01b03851681526020810184905260408101839052608081016127e86060830184614ceb565b600060208284031215614ead57600080fd5b8151613bd5816145a1565b60808101614ec68287614ceb565b6001600160a01b039490941660208201526040810192909252606090910152919050565b600080821280156001600160ff1b0384900385131615614f0c57614f0c614b7c565b600160ff1b8390038412811615614f2557614f25614b7c565b50500190565b60a08101614f398288614ceb565b6001600160a01b03959095166020820152604081019390935260608301919091521515608090910152919050565b878152602081018790526001600160a01b038616604082015260e08101614f916060830187614ceb565b8460808301528360a08301528260c083015298975050505050505050565b60808101614fbd8287614ceb565b84602083015283604083015282606083015295945050505050565b60408101614fe68285614ceb565b8260208301529392505050565b600081600019048311821515161561500d5761500d614b7c565b500290565b634e487b7160e01b600052603160045260246000fd5b60008261504557634e487b7160e01b600052601260045260246000fd5b500490565b602081526000613bd56020830184614bd956fe19bfb841e3f2b667d170c57909e7685dd6a0cee80d36344e04905cfd7d917bd74abde63c3e81aefa5764b017968bc473e83e093d7e1a10247d19e0a3e412401855cc3066d618b5a688ac1f2a8234e21c685f7432b4230a1660309640d60d8f6455cc3066d618b5a688ac1f2a8234e21c685f7432b4230a1660309640d60d8f65a264697066735822122032a487749087304c5c5c0d7e7cf163e9946a2ec50456f4dea62b13d91459dbf964736f6c63430008090033",
  "libraries": {
    "FundManagementLogic": "0x4E2b89AEE0Ee8a5f513105B69AD34ddD6fA35182",
    "LendingMarketOperationLogic": "0x18C989b86315B3D63eb77E543e37B1Dc57dAC7f3"
  },
  "implementation": "0x9f4aC90766CAF7607e88886a75413f270631E28B",
  "devdoc": {
    "kind": "dev",
    "methods": {
      "acceptedContracts()": {
        "details": "The contact name listed in this method is also needed to be listed `requiredContracts` method."
      },
      "calculateFunds(bytes32,address)": {
        "params": {
          "_ccy": "Currency name in bytes32",
          "_user": "User's address"
        },
        "returns": {
          "borrowedAmount": "The borrowed amount due to the borrow orders being filled on the order book",
          "claimableAmount": "The claimable amount due to the lending orders being filled on the order book",
          "collateralAmount": "The actual collateral amount that is calculated by netting using the haircut.",
          "debtAmount": "The debt amount due to the borrow orders being filled on the order book",
          "lentAmount": "The lent amount due to the lend orders being filled on the order book",
          "workingBorrowOrdersAmount": "The working orders amount on the borrow order book",
          "workingLendOrdersAmount": "The working orders amount on the lend order book"
        }
      },
      "calculateTotalFundsInETH(address,bytes32,uint256)": {
        "params": {
          "_user": "User's address"
        }
      },
      "cancelOrder(bytes32,uint256,uint48)": {
        "params": {
          "_ccy": "Currency name in bytes32 of the selected market",
          "_maturity": "The maturity of the selected market",
          "_orderId": "Market order id"
        }
      },
      "cleanAllOrders(address)": {
        "params": {
          "_user": "User's address"
        }
      },
      "cleanOrders(bytes32,address)": {
        "params": {
          "_ccy": "Currency name in bytes32",
          "_user": "User's address"
        }
      },
      "createLendingMarket(bytes32,uint256)": {
        "params": {
          "_ccy": "Main currency for new lending market",
          "_openingDate": "Timestamp when the lending market opens"
        }
      },
      "createOrder(bytes32,uint256,uint8,uint256,uint256)": {
        "params": {
          "_amount": "Amount of funds the maker wants to borrow/lend",
          "_ccy": "Currency name in bytes32 of the selected market",
          "_maturity": "The maturity of the selected market",
          "_side": "Order position type, Borrow or Lend",
          "_unitPrice": "Amount of unit price taker wish to borrow/lend"
        },
        "returns": {
          "_0": "True if the execution of the operation succeeds"
        }
      },
      "createPreOrder(bytes32,uint256,uint8,uint256,uint256)": {
        "params": {
          "_amount": "Amount of funds the maker wants to borrow/lend",
          "_ccy": "Currency name in bytes32 of the selected market",
          "_maturity": "The maturity of the selected market",
          "_side": "Order position type, Borrow or Lend",
          "_unitPrice": "Amount of unit price taker wish to borrow/lend"
        },
        "returns": {
          "_0": "True if the execution of the operation succeeds"
        }
      },
      "depositAndCreateOrder(bytes32,uint256,uint8,uint256,uint256)": {
        "params": {
          "_amount": "Amount of funds the maker wants to borrow/lend",
          "_ccy": "Currency name in bytes32 of the selected market",
          "_maturity": "The maturity of the selected market",
          "_side": "Order position type, Borrow or Lend",
          "_unitPrice": "Amount of unit price taker wish to borrow/lend"
        },
        "returns": {
          "_0": "True if the execution of the operation succeeds"
        }
      },
      "depositAndCreatePreOrder(bytes32,uint256,uint8,uint256,uint256)": {
        "params": {
          "_amount": "Amount of funds the maker wants to borrow/lend",
          "_ccy": "Currency name in bytes32 of the selected market",
          "_maturity": "The maturity of the selected market",
          "_side": "Order position type, Borrow or Lend",
          "_unitPrice": "Amount of unit price taker wish to borrow/lend"
        },
        "returns": {
          "_0": "True if the execution of the operation succeeds"
        }
      },
      "executeLiquidationCall(bytes32,bytes32,uint256,address,uint24)": {
        "details": "A liquidation amount is calculated from the selected debt, but its maximum amount is the same as a collateral amount. That amount needs to be set at liquidationAmountMax otherwise currency swapping using Uniswap will fail if the collateral is insufficient.",
        "params": {
          "_collateralCcy": "Currency name to be used as collateral",
          "_debtCcy": "Currency name to be used as debt",
          "_debtMaturity": "The market maturity of the debt",
          "_poolFee": "Uniswap pool fee",
          "_user": "User's address"
        },
        "returns": {
          "_0": "True if the execution of the operation succeeds"
        }
      },
      "getAutoRollFeeRate(bytes32)": {
        "params": {
          "_ccy": "Currency name in bytes32"
        },
        "returns": {
          "_0": "The auto-roll fee rate received by protocol"
        }
      },
      "getBorrowOrderBook(bytes32,uint256,uint256)": {
        "params": {
          "_ccy": "Currency name in bytes32",
          "_limit": "The limit number to get",
          "_maturity": "The maturity of the market"
        },
        "returns": {
          "amounts": "The array of borrow order amounts",
          "quantities": "The array of borrow order quantities",
          "unitPrices": "The array of borrow unit prices"
        }
      },
      "getBorrowUnitPrices(bytes32)": {
        "params": {
          "_ccy": "Currency name in bytes32"
        },
        "returns": {
          "_0": "Array with the borrowing prices per future value of the lending market"
        }
      },
      "getFutureValue(bytes32,uint256,address)": {
        "params": {
          "_ccy": "Currency name in bytes32 for Lending Market",
          "_maturity": "The maturity of the market",
          "_user": "User's address"
        },
        "returns": {
          "futureValue": "The future value"
        }
      },
      "getFutureValueVault(bytes32,uint256)": {
        "params": {
          "_ccy": "Currency name in bytes32",
          "_maturity": "The maturity of the market"
        },
        "returns": {
          "_0": "The lending market address"
        }
      },
      "getGenesisDate(bytes32)": {
        "params": {
          "_ccy": "Currency name in bytes32"
        },
        "returns": {
          "_0": "The genesis date"
        }
      },
      "getLendOrderBook(bytes32,uint256,uint256)": {
        "params": {
          "_ccy": "Currency name in bytes32",
          "_limit": "The limit number to get",
          "_maturity": "The maturity of the market"
        },
        "returns": {
          "amounts": "The array of lend order amounts",
          "quantities": "The array of lend order quantities",
          "unitPrices": "The array of borrow unit prices"
        }
      },
      "getLendUnitPrices(bytes32)": {
        "params": {
          "_ccy": "Currency name in bytes32"
        },
        "returns": {
          "_0": "Array with the lending prices per future value of the lending market"
        }
      },
      "getLendingMarket(bytes32,uint256)": {
        "params": {
          "_ccy": "Currency name in bytes32",
          "_maturity": "The maturity of the market"
        },
        "returns": {
          "_0": "The lending market address"
        }
      },
      "getLendingMarkets(bytes32)": {
        "params": {
          "_ccy": "Currency name in bytes32"
        },
        "returns": {
          "_0": "Array with the lending market address"
        }
      },
      "getMaturities(bytes32)": {
        "params": {
          "_ccy": "Currency name in bytes32"
        },
        "returns": {
          "_0": "Array with the lending market maturity"
        }
      },
      "getMidUnitPrices(bytes32)": {
        "params": {
          "_ccy": "Currency name in bytes32"
        },
        "returns": {
          "_0": "Array with the mid prices per future value of the lending market"
        }
      },
      "getOrderFeeRate(bytes32)": {
        "params": {
          "_ccy": "Currency name in bytes32"
        },
        "returns": {
          "_0": "The order fee rate received by protocol"
        }
      },
      "getPresentValue(bytes32,uint256,address)": {
        "params": {
          "_ccy": "Currency name in bytes32 for Lending Market",
          "_maturity": "The maturity of the market",
          "_user": "User's address"
        },
        "returns": {
          "presentValue": "The present value"
        }
      },
      "getTotalPresentValue(bytes32,address)": {
        "params": {
          "_ccy": "Currency name in bytes32 for Lending Market",
          "_user": "User's address"
        },
        "returns": {
          "totalPresentValue": "The total present value"
        }
      },
      "getTotalPresentValueInETH(address)": {
        "params": {
          "_user": "User's address"
        },
        "returns": {
          "totalPresentValue": "The total present value in ETH"
        }
      },
      "getUsedCurrencies(address)": {
        "params": {
          "_user": "User's address"
        },
        "returns": {
          "_0": "The array of the currency"
        }
      },
      "initialize(address,address)": {
        "details": "Function is invoked by the proxy contract when the contract is added to the ProxyController.",
        "params": {
          "_owner": "The address of the contract owner",
          "_resolver": "The address of the Address Resolver contract"
        }
      },
      "initializeLendingMarket(bytes32,uint256,uint256,uint256,uint256)": {
        "params": {
          "_autoRollFeeRate": "The auto roll fee rate received by protocol",
          "_ccy": "Currency name in bytes32",
          "_compoundFactor": "The initial compound factor when the initial market is opened",
          "_genesisDate": "The genesis date when the initial market is opened",
          "_orderFeeRate": "The order fee rate received by protocol"
        }
      },
      "isInitializedLendingMarket(bytes32)": {
        "params": {
          "_ccy": "Currency name in bytes32"
        },
        "returns": {
          "_0": "The boolean if the lending market is initialized or not"
        }
      },
      "isLiquidator(address)": {
        "returns": {
          "_0": "The boolean if the user is registered as a liquidator or not"
        }
      },
      "owner()": {
        "details": "Returns the address of the current owner."
      },
      "pauseLendingMarkets(bytes32)": {
        "params": {
          "_ccy": "Currency for pausing all lending markets"
        },
        "returns": {
          "_0": "True if the execution of the operation succeeds"
        }
      },
      "registerLiquidator(bool)": {
        "params": {
          "_isLiquidator": "The boolean if the user is a liquidator or not"
        }
      },
      "renounceOwnership()": {
        "details": "Leaves the contract without owner. It will not be possible to call `onlyOwner` functions anymore. Can only be called by the current owner. NOTE: Renouncing ownership will leave the contract without an owner, thereby removing any functionality that is only available to the owner."
      },
      "requiredContracts()": {
        "details": "The contract name list is in `./libraries/Contracts.sol`."
      },
      "rotateLendingMarkets(bytes32)": {
        "params": {
          "_ccy": "Currency name in bytes32 of the selected market"
        }
      },
      "transferOwnership(address)": {
        "details": "Transfers ownership of the contract to a new account (`newOwner`). Can only be called by the current owner."
      },
      "unpauseLendingMarkets(bytes32)": {
        "params": {
          "_ccy": "Currency name in bytes32"
        },
        "returns": {
          "_0": "True if the execution of the operation succeeds"
        }
      },
      "updateAutoRollFeeRate(bytes32,uint256)": {
        "params": {
          "_autoRollFeeRate": "The order fee rate received by protocol",
          "_ccy": "Currency name in bytes32"
        }
      },
      "updateOrderFeeRate(bytes32,uint256)": {
        "params": {
          "_ccy": "Currency name in bytes32",
          "_orderFeeRate": "The order fee rate received by protocol"
        }
      }
    },
    "version": 1
  },
  "userdoc": {
    "kind": "user",
    "methods": {
      "acceptedContracts()": {
        "notice": "Returns contract names that can call this contract."
      },
      "calculateFunds(bytes32,address)": {
        "notice": "Gets the funds that are calculated from the user's lending and borrowing order list for the selected currency."
      },
      "calculateTotalFundsInETH(address,bytes32,uint256)": {
        "notice": "Gets the funds that are calculated from the user's lending and borrowing order list for all currencies in ETH."
      },
      "cancelOrder(bytes32,uint256,uint48)": {
        "notice": "Cancels the own order."
      },
      "cleanAllOrders(address)": {
        "notice": "Cleans user's all orders to remove order ids that are already filled on the order book."
      },
      "cleanOrders(bytes32,address)": {
        "notice": "Cleans user's orders to remove order ids that are already filled on the order book for a selected currency."
      },
      "createLendingMarket(bytes32,uint256)": {
        "notice": "Deploys new Lending Market and save address at lendingMarkets mapping.Reverts on deployment market with existing currency and term"
      },
      "createOrder(bytes32,uint256,uint8,uint256,uint256)": {
        "notice": "Creates an order. Takes orders if the orders are matched, and places new order if not match it. In addition, converts the future value to the genesis value if there is future value in past maturity before the execution of order creation."
      },
      "createPreOrder(bytes32,uint256,uint8,uint256,uint256)": {
        "notice": "Creates a pre-order. A pre-order will only be accepted from 48 hours to 1 hour before the market opens (Pre-order period). At the end of this period, Itayose will be executed."
      },
      "depositAndCreateOrder(bytes32,uint256,uint8,uint256,uint256)": {
        "notice": "Deposits funds and creates an order at the same time."
      },
      "depositAndCreatePreOrder(bytes32,uint256,uint8,uint256,uint256)": {
        "notice": "Deposits funds and creates a pre-order at the same time."
      },
      "executeLiquidationCall(bytes32,bytes32,uint256,address,uint24)": {
        "notice": "Liquidates a lending position if the user's coverage is less than 1."
      },
      "getAutoRollFeeRate(bytes32)": {
        "notice": "Gets the auto-roll fee rate"
      },
      "getBorrowOrderBook(bytes32,uint256,uint256)": {
        "notice": "Gets the order book of borrow."
      },
      "getBorrowUnitPrices(bytes32)": {
        "notice": "Gets borrow prices per future value for the selected currency."
      },
      "getFutureValue(bytes32,uint256,address)": {
        "notice": "Gets the future value of the account for selected currency and maturity."
      },
      "getFutureValueVault(bytes32,uint256)": {
        "notice": "Gets the feture value contract address for the selected currency and maturity."
      },
      "getGenesisDate(bytes32)": {
        "notice": "Gets the genesis date when the first market opens for the selected currency."
      },
      "getLendOrderBook(bytes32,uint256,uint256)": {
        "notice": "Gets the order book of lend."
      },
      "getLendUnitPrices(bytes32)": {
        "notice": "Gets lend prices per future value for the selected currency."
      },
      "getLendingMarket(bytes32,uint256)": {
        "notice": "Gets the lending market contract address for the selected currency and maturity."
      },
      "getLendingMarkets(bytes32)": {
        "notice": "Gets the lending market contract addresses for the selected currency."
      },
      "getMaturities(bytes32)": {
        "notice": "Gets maturities for the selected currency."
      },
      "getMidUnitPrices(bytes32)": {
        "notice": "Gets mid prices per future value for the selected currency."
      },
      "getOrderFeeRate(bytes32)": {
        "notice": "Gets the order fee rate"
      },
      "getPresentValue(bytes32,uint256,address)": {
        "notice": "Gets the present value of the account for selected currency and maturity."
      },
      "getTotalPresentValue(bytes32,address)": {
        "notice": "Gets the total present value of the account for selected currency."
      },
      "getTotalPresentValueInETH(address)": {
        "notice": "Gets the total present value of the account converted to ETH."
      },
      "getUsedCurrencies(address)": {
        "notice": "Get all the currencies in which the user has lending positions or orders."
      },
      "initialize(address,address)": {
        "notice": "Initializes the contract."
      },
      "initializeLendingMarket(bytes32,uint256,uint256,uint256,uint256)": {
        "notice": "Initialize the lending market to set a genesis date and compound factor"
      },
      "isInitializedLendingMarket(bytes32)": {
        "notice": "Gets if the lending market is initialized."
      },
      "isLiquidator(address)": {
        "notice": "Gets if the user is registered as a liquidator."
      },
      "pauseLendingMarkets(bytes32)": {
        "notice": "Pauses previously deployed lending market by currency"
      },
      "registerLiquidator(bool)": {
        "notice": "Registers a user as a liquidator."
      },
      "requiredContracts()": {
        "notice": "Returns the contract names used in this contract."
      },
      "rotateLendingMarkets(bytes32)": {
        "notice": "Rotates the lending markets. In this rotation, the following actions are happened. - Updates the maturity at the beginning of the market array. - Moves the beginning of the market array to the end of it (Market rotation). - Update the compound factor in this contract using the next market unit price. (Auto-rolls) - Convert the future value held by reserve funds into the genesis value"
      },
      "unpauseLendingMarkets(bytes32)": {
        "notice": "Unpauses previously deployed lending market by currency"
      },
      "updateAutoRollFeeRate(bytes32,uint256)": {
        "notice": "Updates the auto-roll fee rate"
      },
      "updateOrderFeeRate(bytes32,uint256)": {
        "notice": "Updates the order fee rate"
      }
    },
    "notice": "Implements the module to manage separated lending order-book markets per maturity. This contract also works as a factory contract that can deploy(start)a new lending market for selected currency and maturity and has the calculation logic for the Genesis value in addition. Deployed Lending Markets are rotated and reused as it reaches the maturity date. At the time of rotation, a new maturity date is set and the compound factor is updated. The users mainly call this contract to create orders to lend or borrow funds.",
    "version": 1
  },
  "storageLayout": {
    "storage": [
      {
        "astId": 1446,
        "contract": "contracts/LendingMarketController.sol:LendingMarketController",
        "label": "_status",
        "offset": 0,
        "slot": "0",
        "type": "t_uint256"
      },
      {
        "astId": 1183,
        "contract": "contracts/LendingMarketController.sol:LendingMarketController",
        "label": "_initialized",
        "offset": 0,
        "slot": "1",
        "type": "t_uint8"
      },
      {
        "astId": 1186,
        "contract": "contracts/LendingMarketController.sol:LendingMarketController",
        "label": "_initializing",
        "offset": 1,
        "slot": "1",
        "type": "t_bool"
      }
    ],
    "types": {
      "t_bool": {
        "encoding": "inplace",
        "label": "bool",
        "numberOfBytes": "1"
      },
      "t_uint256": {
        "encoding": "inplace",
        "label": "uint256",
        "numberOfBytes": "32"
      },
      "t_uint8": {
        "encoding": "inplace",
        "label": "uint8",
        "numberOfBytes": "1"
      }
    }
  }
}