{
  "address": "0x37Afd4ae6Bc55Dd77d61fe59bf9C260B99373f77",
  "abi": [
    {
      "anonymous": false,
      "inputs": [
        {
          "indexed": false,
          "internalType": "bytes32",
          "name": "name",
          "type": "bytes32"
        },
        {
          "indexed": false,
          "internalType": "address",
          "name": "destination",
          "type": "address"
        }
      ],
      "name": "CacheUpdated",
      "type": "event"
    },
    {
      "anonymous": false,
      "inputs": [
        {
          "indexed": false,
          "internalType": "uint48",
          "name": "orderId",
          "type": "uint48"
        },
        {
          "indexed": true,
          "internalType": "address",
          "name": "maker",
          "type": "address"
        },
        {
          "indexed": true,
          "internalType": "bytes32",
          "name": "ccy",
          "type": "bytes32"
        },
        {
          "indexed": false,
          "internalType": "enum ProtocolTypes.Side",
          "name": "side",
          "type": "uint8"
        },
        {
          "indexed": false,
          "internalType": "uint256",
          "name": "maturity",
          "type": "uint256"
        },
        {
          "indexed": false,
          "internalType": "uint256",
          "name": "amount",
          "type": "uint256"
        },
        {
          "indexed": false,
          "internalType": "uint256",
          "name": "unitPrice",
          "type": "uint256"
        }
      ],
      "name": "CancelOrder",
      "type": "event"
    },
    {
      "anonymous": false,
      "inputs": [
        {
          "indexed": true,
          "internalType": "bytes32",
          "name": "ccy",
          "type": "bytes32"
        },
        {
          "indexed": true,
          "internalType": "address",
          "name": "marketAddr",
          "type": "address"
        },
        {
          "indexed": false,
          "internalType": "address",
          "name": "futureValueVault",
          "type": "address"
        },
        {
          "indexed": false,
          "internalType": "uint256",
          "name": "index",
          "type": "uint256"
        },
        {
          "indexed": false,
          "internalType": "uint256",
          "name": "maturity",
          "type": "uint256"
        }
      ],
      "name": "CreateLendingMarket",
      "type": "event"
    },
    {
      "anonymous": false,
      "inputs": [
        {
          "indexed": true,
          "internalType": "address",
          "name": "taker",
          "type": "address"
        },
        {
          "indexed": true,
          "internalType": "bytes32",
          "name": "ccy",
          "type": "bytes32"
        },
        {
          "indexed": false,
          "internalType": "enum ProtocolTypes.Side",
          "name": "side",
          "type": "uint8"
        },
        {
          "indexed": true,
          "internalType": "uint256",
          "name": "maturity",
          "type": "uint256"
        },
        {
          "indexed": false,
          "internalType": "uint256",
          "name": "amount",
          "type": "uint256"
        },
        {
          "indexed": false,
          "internalType": "uint256",
          "name": "unitPrice",
          "type": "uint256"
        },
        {
          "indexed": false,
          "internalType": "uint256",
          "name": "filledFutureValue",
          "type": "uint256"
        }
      ],
      "name": "FillOrder",
      "type": "event"
    },
    {
      "anonymous": false,
      "inputs": [
        {
          "indexed": true,
          "internalType": "address",
          "name": "taker",
          "type": "address"
        },
        {
          "indexed": true,
          "internalType": "bytes32",
          "name": "ccy",
          "type": "bytes32"
        },
        {
          "indexed": false,
          "internalType": "enum ProtocolTypes.Side",
          "name": "side",
          "type": "uint8"
        },
        {
          "indexed": true,
          "internalType": "uint256",
          "name": "maturity",
          "type": "uint256"
        },
        {
          "indexed": false,
          "internalType": "uint256",
          "name": "filledFutureValue",
          "type": "uint256"
        }
      ],
      "name": "FillOrdersAsync",
      "type": "event"
    },
    {
      "anonymous": false,
      "inputs": [
        {
          "indexed": false,
          "internalType": "uint8",
          "name": "version",
          "type": "uint8"
        }
      ],
      "name": "Initialized",
      "type": "event"
    },
    {
      "anonymous": false,
      "inputs": [
        {
          "indexed": true,
          "internalType": "address",
          "name": "user",
          "type": "address"
        },
        {
          "indexed": false,
          "internalType": "bytes32",
          "name": "collateralCcy",
          "type": "bytes32"
        },
        {
          "indexed": true,
          "internalType": "bytes32",
          "name": "debtCcy",
          "type": "bytes32"
        },
        {
          "indexed": true,
          "internalType": "uint256",
          "name": "debtMaturity",
          "type": "uint256"
        },
        {
          "indexed": false,
          "internalType": "uint256",
          "name": "amount",
          "type": "uint256"
        }
      ],
      "name": "Liquidate",
      "type": "event"
    },
    {
      "anonymous": false,
      "inputs": [
        {
          "indexed": true,
          "internalType": "address",
          "name": "previousOwner",
          "type": "address"
        },
        {
          "indexed": true,
          "internalType": "address",
          "name": "newOwner",
          "type": "address"
        }
      ],
      "name": "OwnershipTransferred",
      "type": "event"
    },
    {
      "anonymous": false,
      "inputs": [
        {
          "indexed": true,
          "internalType": "address",
          "name": "maker",
          "type": "address"
        },
        {
          "indexed": true,
          "internalType": "bytes32",
          "name": "ccy",
          "type": "bytes32"
        },
        {
          "indexed": false,
          "internalType": "enum ProtocolTypes.Side",
          "name": "side",
          "type": "uint8"
        },
        {
          "indexed": true,
          "internalType": "uint256",
          "name": "maturity",
          "type": "uint256"
        },
        {
          "indexed": false,
          "internalType": "uint256",
          "name": "amount",
          "type": "uint256"
        },
        {
          "indexed": false,
          "internalType": "uint256",
          "name": "unitPrice",
          "type": "uint256"
        }
      ],
      "name": "PlaceOrder",
      "type": "event"
    },
    {
      "anonymous": false,
      "inputs": [
        {
          "indexed": false,
          "internalType": "bytes32",
          "name": "ccy",
          "type": "bytes32"
        },
        {
          "indexed": false,
          "internalType": "uint256",
          "name": "oldMaturity",
          "type": "uint256"
        },
        {
          "indexed": false,
          "internalType": "uint256",
          "name": "newMaturity",
          "type": "uint256"
        }
      ],
      "name": "RotateLendingMarkets",
      "type": "event"
    },
    {
      "inputs": [],
      "name": "acceptedContracts",
      "outputs": [
        {
          "internalType": "bytes32[]",
          "name": "contracts",
          "type": "bytes32[]"
        }
      ],
      "stateMutability": "pure",
      "type": "function"
    },
    {
      "inputs": [],
      "name": "buildCache",
      "outputs": [],
      "stateMutability": "nonpayable",
      "type": "function"
    },
    {
      "inputs": [
        {
          "internalType": "bytes32",
          "name": "_ccy",
          "type": "bytes32"
        },
        {
          "internalType": "address",
          "name": "_user",
          "type": "address"
        }
      ],
      "name": "calculateBorrowedFundsFromOrders",
      "outputs": [
        {
          "internalType": "uint256",
          "name": "workingOrdersAmount",
          "type": "uint256"
        },
        {
          "internalType": "uint256",
          "name": "debtAmount",
          "type": "uint256"
        },
        {
          "internalType": "uint256",
          "name": "borrowedAmount",
          "type": "uint256"
        }
      ],
      "stateMutability": "view",
      "type": "function"
    },
    {
      "inputs": [
        {
          "internalType": "bytes32",
          "name": "_ccy",
          "type": "bytes32"
        },
        {
          "internalType": "address",
          "name": "_user",
          "type": "address"
        }
      ],
      "name": "calculateFunds",
      "outputs": [
        {
          "internalType": "uint256",
          "name": "workingLendOrdersAmount",
          "type": "uint256"
        },
        {
          "internalType": "uint256",
          "name": "claimableAmount",
          "type": "uint256"
        },
        {
          "internalType": "uint256",
          "name": "collateralAmount",
          "type": "uint256"
        },
        {
          "internalType": "uint256",
          "name": "lentAmount",
          "type": "uint256"
        },
        {
          "internalType": "uint256",
          "name": "workingBorrowOrdersAmount",
          "type": "uint256"
        },
        {
          "internalType": "uint256",
          "name": "debtAmount",
          "type": "uint256"
        },
        {
          "internalType": "uint256",
          "name": "borrowedAmount",
          "type": "uint256"
        }
      ],
      "stateMutability": "view",
      "type": "function"
    },
    {
      "inputs": [
        {
          "internalType": "bytes32",
          "name": "_ccy",
          "type": "bytes32"
        },
        {
          "internalType": "address",
          "name": "_user",
          "type": "address"
        }
      ],
      "name": "calculateLentFundsFromOrders",
      "outputs": [
        {
          "internalType": "uint256",
          "name": "workingOrdersAmount",
          "type": "uint256"
        },
        {
          "internalType": "uint256",
          "name": "claimableAmount",
          "type": "uint256"
        },
        {
          "internalType": "uint256",
          "name": "lentAmount",
          "type": "uint256"
        }
      ],
      "stateMutability": "view",
      "type": "function"
    },
    {
      "inputs": [
        {
          "internalType": "address",
          "name": "_user",
          "type": "address"
        }
      ],
      "name": "calculateTotalFundsInETH",
      "outputs": [
        {
          "internalType": "uint256",
          "name": "totalWorkingLendOrdersAmount",
          "type": "uint256"
        },
        {
          "internalType": "uint256",
          "name": "totalClaimableAmount",
          "type": "uint256"
        },
        {
          "internalType": "uint256",
          "name": "totalCollateralAmount",
          "type": "uint256"
        },
        {
          "internalType": "uint256",
          "name": "totalLentAmount",
          "type": "uint256"
        },
        {
          "internalType": "uint256",
          "name": "totalWorkingBorrowOrdersAmount",
          "type": "uint256"
        },
        {
          "internalType": "uint256",
          "name": "totalDebtAmount",
          "type": "uint256"
        },
        {
          "internalType": "uint256",
          "name": "totalBorrowedAmount",
          "type": "uint256"
        }
      ],
      "stateMutability": "view",
      "type": "function"
    },
    {
      "inputs": [
        {
          "internalType": "bytes32",
          "name": "_ccy",
          "type": "bytes32"
        },
        {
          "internalType": "uint256",
          "name": "_maturity",
          "type": "uint256"
        },
        {
          "internalType": "uint48",
          "name": "_orderId",
          "type": "uint48"
        }
      ],
      "name": "cancelOrder",
      "outputs": [
        {
          "internalType": "bool",
          "name": "",
          "type": "bool"
        }
      ],
      "stateMutability": "nonpayable",
      "type": "function"
    },
    {
      "inputs": [
        {
          "internalType": "address",
          "name": "_user",
          "type": "address"
        }
      ],
      "name": "cleanAllOrders",
      "outputs": [],
      "stateMutability": "nonpayable",
      "type": "function"
    },
    {
      "inputs": [
        {
          "internalType": "bytes32",
          "name": "_ccy",
          "type": "bytes32"
        },
        {
          "internalType": "address",
          "name": "_user",
          "type": "address"
        }
      ],
      "name": "cleanOrders",
      "outputs": [],
      "stateMutability": "nonpayable",
      "type": "function"
    },
    {
      "inputs": [
        {
          "internalType": "bytes32",
          "name": "_ccy",
          "type": "bytes32"
        },
        {
          "internalType": "uint256",
          "name": "_maturity",
          "type": "uint256"
        },
        {
          "internalType": "uint256",
          "name": "_unitPrice",
          "type": "uint256"
        }
      ],
      "name": "createLendOrderWithETH",
      "outputs": [
        {
          "internalType": "bool",
          "name": "",
          "type": "bool"
        }
      ],
      "stateMutability": "payable",
      "type": "function"
    },
    {
      "inputs": [
        {
          "internalType": "bytes32",
          "name": "_ccy",
          "type": "bytes32"
        }
      ],
      "name": "createLendingMarket",
      "outputs": [
        {
          "internalType": "address",
          "name": "market",
          "type": "address"
        },
        {
          "internalType": "address",
          "name": "futureValueVault",
          "type": "address"
        }
      ],
      "stateMutability": "nonpayable",
      "type": "function"
    },
    {
      "inputs": [
        {
          "internalType": "bytes32",
          "name": "_ccy",
          "type": "bytes32"
        },
        {
          "internalType": "uint256",
          "name": "_maturity",
          "type": "uint256"
        },
        {
          "internalType": "enum ProtocolTypes.Side",
          "name": "_side",
          "type": "uint8"
        },
        {
          "internalType": "uint256",
          "name": "_amount",
          "type": "uint256"
        },
        {
          "internalType": "uint256",
          "name": "_unitPrice",
          "type": "uint256"
        }
      ],
      "name": "createOrder",
      "outputs": [
        {
          "internalType": "bool",
          "name": "",
          "type": "bool"
        }
      ],
      "stateMutability": "nonpayable",
      "type": "function"
    },
    {
      "inputs": [
        {
          "internalType": "bytes32",
          "name": "_ccy",
          "type": "bytes32"
        },
        {
          "internalType": "uint256",
          "name": "_maturity",
          "type": "uint256"
        },
        {
          "internalType": "uint256",
          "name": "_unitPrice",
          "type": "uint256"
        }
      ],
      "name": "depositAndCreateLendOrderWithETH",
      "outputs": [
        {
          "internalType": "bool",
          "name": "",
          "type": "bool"
        }
      ],
      "stateMutability": "payable",
      "type": "function"
    },
    {
      "inputs": [
        {
          "internalType": "bytes32",
          "name": "_ccy",
          "type": "bytes32"
        },
        {
          "internalType": "uint256",
          "name": "_maturity",
          "type": "uint256"
        },
        {
          "internalType": "enum ProtocolTypes.Side",
          "name": "_side",
          "type": "uint8"
        },
        {
          "internalType": "uint256",
          "name": "_amount",
          "type": "uint256"
        },
        {
          "internalType": "uint256",
          "name": "_unitPrice",
          "type": "uint256"
        }
      ],
      "name": "depositAndCreateOrder",
      "outputs": [
        {
          "internalType": "bool",
          "name": "",
          "type": "bool"
        }
      ],
      "stateMutability": "nonpayable",
      "type": "function"
    },
    {
      "inputs": [
        {
          "internalType": "bytes32",
          "name": "_collateralCcy",
          "type": "bytes32"
        },
        {
          "internalType": "bytes32",
          "name": "_debtCcy",
          "type": "bytes32"
        },
        {
          "internalType": "uint256",
          "name": "_debtMaturity",
          "type": "uint256"
        },
        {
          "internalType": "address",
          "name": "_user",
          "type": "address"
        },
        {
          "internalType": "uint24",
          "name": "_poolFee",
          "type": "uint24"
        }
      ],
      "name": "executeLiquidationCall",
      "outputs": [
        {
          "internalType": "bool",
          "name": "",
          "type": "bool"
        }
      ],
      "stateMutability": "nonpayable",
      "type": "function"
    },
    {
      "inputs": [
        {
          "internalType": "bytes32",
          "name": "_ccy",
          "type": "bytes32"
        },
        {
          "internalType": "uint256",
          "name": "_maturity",
          "type": "uint256"
        },
        {
          "internalType": "uint256",
          "name": "_limit",
          "type": "uint256"
        }
      ],
      "name": "getBorrowOrderBook",
      "outputs": [
        {
          "internalType": "uint256[]",
          "name": "unitPrices",
          "type": "uint256[]"
        },
        {
          "internalType": "uint256[]",
          "name": "amounts",
          "type": "uint256[]"
        },
        {
          "internalType": "uint256[]",
          "name": "quantities",
          "type": "uint256[]"
        }
      ],
      "stateMutability": "view",
      "type": "function"
    },
    {
      "inputs": [
        {
          "internalType": "bytes32",
          "name": "_ccy",
          "type": "bytes32"
        }
      ],
      "name": "getBorrowUnitPrices",
      "outputs": [
        {
          "internalType": "uint256[]",
          "name": "",
          "type": "uint256[]"
        }
      ],
      "stateMutability": "view",
      "type": "function"
    },
    {
      "inputs": [
        {
          "internalType": "bytes32",
          "name": "_ccy",
          "type": "bytes32"
        },
        {
          "internalType": "uint256",
          "name": "_maturity",
          "type": "uint256"
        }
      ],
      "name": "getFutureValueVault",
      "outputs": [
        {
          "internalType": "address",
          "name": "",
          "type": "address"
        }
      ],
      "stateMutability": "view",
      "type": "function"
    },
    {
      "inputs": [
        {
          "internalType": "bytes32",
          "name": "_ccy",
          "type": "bytes32"
        }
      ],
      "name": "getGenesisDate",
      "outputs": [
        {
          "internalType": "uint256",
          "name": "",
          "type": "uint256"
        }
      ],
      "stateMutability": "view",
      "type": "function"
    },
    {
      "inputs": [
        {
          "internalType": "bytes32",
          "name": "_ccy",
          "type": "bytes32"
        },
        {
          "internalType": "uint256",
          "name": "_maturity",
          "type": "uint256"
        },
        {
          "internalType": "uint256",
          "name": "_limit",
          "type": "uint256"
        }
      ],
      "name": "getLendOrderBook",
      "outputs": [
        {
          "internalType": "uint256[]",
          "name": "unitPrices",
          "type": "uint256[]"
        },
        {
          "internalType": "uint256[]",
          "name": "amounts",
          "type": "uint256[]"
        },
        {
          "internalType": "uint256[]",
          "name": "quantities",
          "type": "uint256[]"
        }
      ],
      "stateMutability": "view",
      "type": "function"
    },
    {
      "inputs": [
        {
          "internalType": "bytes32",
          "name": "_ccy",
          "type": "bytes32"
        }
      ],
      "name": "getLendUnitPrices",
      "outputs": [
        {
          "internalType": "uint256[]",
          "name": "",
          "type": "uint256[]"
        }
      ],
      "stateMutability": "view",
      "type": "function"
    },
    {
      "inputs": [
        {
          "internalType": "bytes32",
          "name": "_ccy",
          "type": "bytes32"
        },
        {
          "internalType": "uint256",
          "name": "_maturity",
          "type": "uint256"
        }
      ],
      "name": "getLendingMarket",
      "outputs": [
        {
          "internalType": "address",
          "name": "",
          "type": "address"
        }
      ],
      "stateMutability": "view",
      "type": "function"
    },
    {
      "inputs": [
        {
          "internalType": "bytes32",
          "name": "_ccy",
          "type": "bytes32"
        }
      ],
      "name": "getLendingMarkets",
      "outputs": [
        {
          "internalType": "address[]",
          "name": "",
          "type": "address[]"
        }
      ],
      "stateMutability": "view",
      "type": "function"
    },
    {
      "inputs": [
        {
          "internalType": "bytes32",
          "name": "_ccy",
          "type": "bytes32"
        }
      ],
      "name": "getMaturities",
      "outputs": [
        {
          "internalType": "uint256[]",
          "name": "",
          "type": "uint256[]"
        }
      ],
      "stateMutability": "view",
      "type": "function"
    },
    {
      "inputs": [
        {
          "internalType": "bytes32",
          "name": "_ccy",
          "type": "bytes32"
        }
      ],
      "name": "getMidUnitPrices",
      "outputs": [
        {
          "internalType": "uint256[]",
          "name": "",
          "type": "uint256[]"
        }
      ],
      "stateMutability": "view",
      "type": "function"
    },
    {
      "inputs": [
        {
          "internalType": "bytes32",
          "name": "_ccy",
          "type": "bytes32"
        },
        {
          "internalType": "uint256",
          "name": "_maturity",
          "type": "uint256"
        },
        {
          "internalType": "address",
          "name": "_user",
          "type": "address"
        }
      ],
      "name": "getPresentValue",
      "outputs": [
        {
          "internalType": "int256",
          "name": "presentValue",
          "type": "int256"
        }
      ],
      "stateMutability": "view",
      "type": "function"
    },
    {
      "inputs": [
        {
          "internalType": "bytes32",
          "name": "_ccy",
          "type": "bytes32"
        },
        {
          "internalType": "address",
          "name": "_user",
          "type": "address"
        }
      ],
      "name": "getTotalPresentValue",
      "outputs": [
        {
          "internalType": "int256",
          "name": "totalPresentValue",
          "type": "int256"
        }
      ],
      "stateMutability": "view",
      "type": "function"
    },
    {
      "inputs": [
        {
          "internalType": "address",
          "name": "_user",
          "type": "address"
        }
      ],
      "name": "getTotalPresentValueInETH",
      "outputs": [
        {
          "internalType": "int256",
          "name": "totalPresentValue",
          "type": "int256"
        }
      ],
      "stateMutability": "view",
      "type": "function"
    },
    {
      "inputs": [
        {
          "internalType": "address",
          "name": "_user",
          "type": "address"
        }
      ],
      "name": "getUsedCurrencies",
      "outputs": [
        {
          "internalType": "bytes32[]",
          "name": "",
          "type": "bytes32[]"
        }
      ],
      "stateMutability": "view",
      "type": "function"
    },
    {
      "inputs": [
        {
          "internalType": "address",
          "name": "_owner",
          "type": "address"
        },
        {
          "internalType": "address",
          "name": "_resolver",
          "type": "address"
        }
      ],
      "name": "initialize",
      "outputs": [],
      "stateMutability": "nonpayable",
      "type": "function"
    },
    {
      "inputs": [
        {
          "internalType": "bytes32",
          "name": "_ccy",
          "type": "bytes32"
        },
        {
          "internalType": "uint256",
          "name": "_genesisDate",
          "type": "uint256"
        },
        {
          "internalType": "uint256",
          "name": "_compoundFactor",
          "type": "uint256"
        }
      ],
      "name": "initializeLendingMarket",
      "outputs": [],
      "stateMutability": "nonpayable",
      "type": "function"
    },
    {
      "inputs": [
        {
          "internalType": "bytes32",
          "name": "_ccy",
          "type": "bytes32"
        }
      ],
      "name": "isInitializedLendingMarket",
      "outputs": [
        {
          "internalType": "bool",
          "name": "",
          "type": "bool"
        }
      ],
      "stateMutability": "view",
      "type": "function"
    },
    {
      "inputs": [],
      "name": "isResolverCached",
      "outputs": [
        {
          "internalType": "bool",
          "name": "",
          "type": "bool"
        }
      ],
      "stateMutability": "view",
      "type": "function"
    },
    {
      "inputs": [],
      "name": "owner",
      "outputs": [
        {
          "internalType": "address",
          "name": "",
          "type": "address"
        }
      ],
      "stateMutability": "view",
      "type": "function"
    },
    {
      "inputs": [
        {
          "internalType": "bytes32",
          "name": "_ccy",
          "type": "bytes32"
        }
      ],
      "name": "pauseLendingMarkets",
      "outputs": [
        {
          "internalType": "bool",
          "name": "",
          "type": "bool"
        }
      ],
      "stateMutability": "nonpayable",
      "type": "function"
    },
    {
      "inputs": [],
      "name": "renounceOwnership",
      "outputs": [],
      "stateMutability": "nonpayable",
      "type": "function"
    },
    {
      "inputs": [],
      "name": "requiredContracts",
      "outputs": [
        {
          "internalType": "bytes32[]",
          "name": "contracts",
          "type": "bytes32[]"
        }
      ],
      "stateMutability": "pure",
      "type": "function"
    },
    {
      "inputs": [],
      "name": "resolver",
      "outputs": [
        {
          "internalType": "contract IAddressResolver",
          "name": "",
          "type": "address"
        }
      ],
      "stateMutability": "view",
      "type": "function"
    },
    {
      "inputs": [
        {
          "internalType": "bytes32",
          "name": "_ccy",
          "type": "bytes32"
        }
      ],
      "name": "rotateLendingMarkets",
      "outputs": [],
      "stateMutability": "nonpayable",
      "type": "function"
    },
    {
      "inputs": [
        {
          "internalType": "address",
          "name": "newOwner",
          "type": "address"
        }
      ],
      "name": "transferOwnership",
      "outputs": [],
      "stateMutability": "nonpayable",
      "type": "function"
    },
    {
      "inputs": [
        {
          "internalType": "bytes32",
          "name": "_ccy",
          "type": "bytes32"
        }
      ],
      "name": "unpauseLendingMarkets",
      "outputs": [
        {
          "internalType": "bool",
          "name": "",
          "type": "bool"
        }
      ],
      "stateMutability": "nonpayable",
      "type": "function"
    }
  ],
  "transactionHash": "0x635dbff84ef483f817ca53a0b2b91a5e8bfc6cbd1d86f372d8e61e65a88b2f28",
  "args": [],
  "numDeployments": 2,
  "solcInputHash": "3c53353d59297dc150ed95b30db9a5aa",
  "bytecode": "0x608060405234801561001057600080fd5b50600160005561517b806100256000396000f3fe6080604052600436106102465760003560e01c8063870cf8ab11610139578063b3cb8450116100b6578063e99d05381161007a578063e99d053814610727578063eb092a2614610747578063f2fde38b14610767578063faca409b14610787578063fb54a6b3146107a7578063fc700810146107c757600080fd5b8063b3cb845014610692578063bfd10cf6146106b2578063e0997659146106d2578063e219baef146106e7578063e95dc1831461070757600080fd5b80638da5cb5b116100fd5780638da5cb5b146105dd578063953dbcaa146105f25780639d3fc35d14610612578063a02be3dc14610632578063a963ad7f1461065257600080fd5b8063870cf8ab1461054a578063891d59651461056a5780638a9817451461058a5780638b36d833146105aa5780638b646f44146105ca57600080fd5b80633b22a474116101c757806355aceb4e1161018b57806355aceb4e1461048d5780635c347765146104ba578063715018a6146104da57806373bb3b09146104ef57806385323e1a1461052a57600080fd5b80633b22a474146103b65780633d03b9da1461040b578063448255c71461042d578063485cc9551461044d57806349f2ccbf1461046d57600080fd5b80632af64bd31161020e5780632af64bd3146103215780632e6c5e67146103365780632e77aea714610356578063371c672c14610376578063381ada1f1461038957600080fd5b806304f3bcec1461024b5780630594de6e1461027d57806317b72ff4146102ac57806322365261146102da57806329985e5a1461030a575b600080fd5b34801561025757600080fd5b506102606107e7565b6040516001600160a01b0390911681526020015b60405180910390f35b34801561028957600080fd5b5061029d6102983660046146ee565b610808565b60405161027493929190614755565b3480156102b857600080fd5b506102cc6102c73660046147ad565b6108c7565b604051908152602001610274565b3480156102e657600080fd5b506102fa6102f53660046147dd565b610965565b6040519015158152602001610274565b34801561031657600080fd5b5061031f610b2a565b005b34801561032d57600080fd5b506102fa610cd7565b34801561034257600080fd5b506102fa61035136600461483b565b610e3d565b34801561036257600080fd5b506102cc610371366004614854565b610e5d565b6102fa6103843660046146ee565b610f01565b34801561039557600080fd5b506103a96103a436600461483b565b610fae565b604051610274919061488d565b3480156103c257600080fd5b506103d66103d13660046148da565b611023565b604080519788526020880196909652948601939093526060850191909152608084015260a083015260c082015260e001610274565b34801561041757600080fd5b506104206110d4565b60405161027491906148fe565b34801561043957600080fd5b506102fa610448366004614943565b6111c8565b34801561045957600080fd5b5061031f61046836600461498c565b6112df565b34801561047957600080fd5b506102fa6104883660046149ba565b611462565b34801561049957600080fd5b506104ad6104a836600461483b565b6115fc565b60405161027491906149f3565b3480156104c657600080fd5b506103d66104d53660046147ad565b611764565b3480156104e657600080fd5b5061031f611822565b3480156104fb57600080fd5b5061050f61050a3660046147ad565b61185d565b60408051938452602084019290925290820152606001610274565b34801561053657600080fd5b50610260610545366004614a06565b611904565b34801561055657600080fd5b5061031f6105653660046148da565b611966565b34801561057657600080fd5b506102cc61058536600461483b565b6119c4565b34801561059657600080fd5b506102606105a5366004614a06565b6119e2565b3480156105b657600080fd5b5061031f6105c536600461483b565b611a14565b6102fa6105d83660046146ee565b611f2e565b3480156105e957600080fd5b50610260612020565b3480156105fe57600080fd5b5061029d61060d3660046146ee565b612048565b34801561061e57600080fd5b5061050f61062d3660046147ad565b6120a7565b34801561063e57600080fd5b506104ad61064d36600461483b565b6120f5565b34801561065e57600080fd5b5061067261066d36600461483b565b612256565b604080516001600160a01b03938416815292909116602083015201610274565b34801561069e57600080fd5b506102fa6106ad36600461483b565b6127ac565b3480156106be57600080fd5b506104ad6106cd36600461483b565b6128aa565b3480156106de57600080fd5b50610420612a0b565b3480156106f357600080fd5b5061031f6107023660046146ee565b612a4e565b34801561071357600080fd5b5061031f6107223660046147ad565b612bac565b34801561073357600080fd5b506102fa61074236600461483b565b612d8e565b34801561075357600080fd5b506104ad61076236600461483b565b612e83565b34801561077357600080fd5b5061031f6107823660046148da565b612fe4565b34801561079357600080fd5b506102fa6107a2366004614943565b613084565b3480156107b357600080fd5b506102cc6107c23660046148da565b61310c565b3480156107d357600080fd5b506104206107e23660046148da565b61329d565b60006000805160206151268339815191525b546001600160a01b0316919050565b606080606060006108176132cb565b600088815260029190910160209081526040808320898452909152908190205490516325fb168b60e11b8152600481018790526001600160a01b0390911691508190634bf62d16906024015b60006040518083038186803b15801561087b57600080fd5b505afa15801561088f573d6000803e3d6000fd5b505050506040513d6000823e601f3d908101601f191682016040526108b79190810190614ad9565b9350935093505093509350939050565b6040516385f3396760e01b8152600481018390526001600160a01b038216602482015260009073eBc1C80450A219909f543ee350c67BfDdAb728d6906385f339679060440160206040518083038186803b15801561092457600080fd5b505af4158015610938573d6000803e3d6000fd5b505050506040513d601f19601f8201168201806040525081019061095c9190614b61565b90505b92915050565b6000600260005414156109935760405162461bcd60e51b815260040161098a90614b7a565b60405180910390fd5b60026000908155859085906109a66132cb565b6000848152600291909101602090815260408083208584529091529020546001600160a01b031614156109eb5760405162461bcd60e51b815260040161098a90614bb1565b6109f68787876132ef565b5050604051630a9a71bf60e21b81526004810189905260248101889052604481018790526001600160a01b038616606482015262ffffff8516608482015260009073eBc1C80450A219909f543ee350c67BfDdAb728d690632a69c6fc9060a40160206040518083038186803b158015610a6e57600080fd5b505af4158015610a82573d6000803e3d6000fd5b505050506040513d601f19601f82011682018060405250810190610aa69190614b61565b9050610aba88888860008560006001613681565b508688876001600160a01b03167f2aa75186e5dc6215fe9b34c1bbcf001827defa52de1574957eb71fbf5c920b8a8c85604051610b01929190918252602082015260400190565b60405180910390a4610b14888888613c90565b5060019350505050600160005595945050505050565b6000610b346110d4565b905060005b8151811015610cd3576000828281518110610b5657610b56614bdb565b602002602001015190506000610b7760008051602061512683398151915290565b54604080517f5265736f6c766572206d697373696e67207461726765743a200000000000000060208201526039808201869052825180830390910181526059820192839052636795dbcd60e01b9092526001600160a01b0390921691636795dbcd91610be891869190605d01614c3e565b60206040518083038186803b158015610c0057600080fd5b505afa158015610c14573d6000803e3d6000fd5b505050506040513d601f19601f82011682018060405250810190610c389190614c57565b60008381527f4abde63c3e81aefa5764b017968bc473e83e093d7e1a10247d19e0a3e4124019602090815260409182902080546001600160a01b0319166001600160a01b03851690811790915582518681529182015281519293507f88a93678a3692f6789d9546fc621bf7234b101ddb7d4fe479455112831b8aa68929081900390910190a150508080610ccb90614c8a565b915050610b39565b5050565b600080610ce26110d4565b905060005b8151811015610e34576000828281518110610d0457610d04614bdb565b60200260200101519050610d2360008051602061512683398151915290565b600082815260019190910160205260409020546001600160a01b0316600080516020615126833981519152546040516321f8a72160e01b8152600481018490526001600160a01b03909116906321f8a7219060240160206040518083038186803b158015610d9057600080fd5b505afa158015610da4573d6000803e3d6000fd5b505050506040513d601f19601f82011682018060405250810190610dc89190614c57565b6001600160a01b0316141580610e12575060008181527f4abde63c3e81aefa5764b017968bc473e83e093d7e1a10247d19e0a3e412401960205260409020546001600160a01b0316155b15610e21576000935050505090565b5080610e2c81614c8a565b915050610ce7565b50600191505090565b6000610e476132cb565b6000928352600301602052506040902054151590565b6040516371eb435360e01b815260048101849052602481018390526001600160a01b038216604482015260009073eBc1C80450A219909f543ee350c67BfDdAb728d6906371eb43539060640160206040518083038186803b158015610ec157600080fd5b505af4158015610ed5573d6000803e3d6000fd5b505050506040513d601f19601f82011682018060405250810190610ef99190614b61565b949350505050565b600060026000541415610f265760405162461bcd60e51b815260040161098a90614b7a565b6002600090815584908490610f396132cb565b6000848152600291909101602090815260408083208584529091529020546001600160a01b03161415610f7e5760405162461bcd60e51b815260040161098a90614bb1565b610f89868633613c90565b50610f9b868633600034896000613681565b5060019250505060016000559392505050565b6060610fb86132cb565b600083815260209182526040908190208054825181850281018501909352808352919290919083018282801561101757602002820191906000526020600020905b81546001600160a01b03168152600190910190602001808311610ff9575b50505050509050919050565b604051630ec8a91d60e21b81526001600160a01b038216600482015260009081908190819081908190819073eBc1C80450A219909f543ee350c67BfDdAb728d690633b22a4749060240160e06040518083038186803b15801561108557600080fd5b505af4158015611099573d6000803e3d6000fd5b505050506040513d601f19601f820116820180604052508101906110bd9190614ca5565b959e949d50929b5090995097509550909350915050565b60408051600480825260a0820190925260609160208201608080368337019050509050742132b0b1b7b7283937bc3ca1b7b73a3937b63632b960591b8160008151811061112357611123614bdb565b6020026020010181815250507121bab93932b731bca1b7b73a3937b63632b960711b8160018151811061115857611158614bdb565b6020026020010181815250507011d95b995cda5cd5985b1d5955985d5b1d607a1b8160028151811061118c5761118c614bdb565b60200260200101818152505069151bdad95b95985d5b1d60b21b816003815181106111b9576111b9614bdb565b60200260200101818152505090565b6000600260005414156111ed5760405162461bcd60e51b815260040161098a90614b7a565b60026000908155869086906112006132cb565b6000848152600291909101602090815260408083208584529091529020546001600160a01b031614156112455760405162461bcd60e51b815260040161098a90614bb1565b61124d613e26565b6001600160a01b03166396994e37338a886040518463ffffffff1660e01b815260040161127c93929190614cf9565b600060405180830381600087803b15801561129657600080fd5b505af11580156112aa573d6000803e3d6000fd5b505050506112b9888833613c90565b506112ca8888338989896000613681565b50600192505050600160005595945050505050565b600154610100900460ff16158080156112fc57506001805460ff16105b806113155750303b15801561131557506001805460ff16145b6113785760405162461bcd60e51b815260206004820152602e60248201527f496e697469616c697a61626c653a20636f6e747261637420697320616c72656160448201526d191e481a5b9a5d1a585b1a5e995960921b606482015260840161098a565b6001805460ff191681179055801561139a576001805461ff0019166101001790555b60006113a4613e35565b6001600160a01b031614156114065760405162461bcd60e51b815260206004820152602260248201527f4d7573742062652063616c6c65642066726f6d2070726f787920636f6e74726160448201526118dd60f21b606482015260840161098a565b61140f83613e5d565b61141882613ece565b801561145d576001805461ff00191681556040519081527f7f26b83ff96e1f2b6a682f133852f6798a09c465da95921460cefb38474024989060200160405180910390a15b505050565b6000600260005414156114875760405162461bcd60e51b815260040161098a90614b7a565b600260009081558490849061149a6132cb565b6000848152600291909101602090815260408083208584529091529020546001600160a01b031614156114df5760405162461bcd60e51b815260040161098a90614bb1565b60006114e96132cb565b60008881526002919091016020908152604080832089845290915280822054905163504b89bd60e01b815233600482015265ffffffffffff881660248201526001600160a01b03909116925081908190849063504b89bd90604401606060405180830381600087803b15801561155e57600080fd5b505af1158015611572573d6000803e3d6000fd5b505050506040513d601f19601f820116820180604052508101906115969190614d1a565b92509250925089336001600160a01b03167f882188071c39e32cd4ffd0cef7a006a29eaae9e4018d72cef313a0f4686cdb918a868d87876040516115de959493929190614d89565b60405180910390a36001965050505050505060016000559392505050565b606060006116086132cb565b6000848152602091909152604090205467ffffffffffffffff81111561163057611630614a28565b604051908082528060200260200182016040528015611659578160200160208202803683370190505b50905060005b6116676132cb565b6000858152602091909152604090205481101561175d5760006116886132cb565b6000868152602091909152604090208054839081106116a9576116a9614bdb565b6000918252602091829020015460408051631b3508b760e01b815290516001600160a01b0390921693508392631b3508b792600480840193829003018186803b1580156116f557600080fd5b505afa158015611709573d6000803e3d6000fd5b505050506040513d601f19601f8201168201806040525081019061172d9190614b61565b83838151811061173f5761173f614bdb565b6020908102919091010152508061175581614c8a565b91505061165f565b5092915050565b600080600080600080600073eBc1C80450A219909f543ee350c67BfDdAb728d6635c3477658a8a6040518363ffffffff1660e01b81526004016117ba9291909182526001600160a01b0316602082015260400190565b60e06040518083038186803b1580156117d257600080fd5b505af41580156117e6573d6000803e3d6000fd5b505050506040513d601f19601f8201168201806040525081019061180a9190614ca5565b959f949e50929c50909a509850965090945092505050565b3361182b612020565b6001600160a01b0316146118515760405162461bcd60e51b815260040161098a90614dc1565b61185b6000613e5d565b565b6040516373bb3b0960e01b8152600481018390526001600160a01b03821660248201526000908190819073eBc1C80450A219909f543ee350c67BfDdAb728d6906373bb3b09906044015b60606040518083038186803b1580156118bf57600080fd5b505af41580156118d3573d6000803e3d6000fd5b505050506040513d601f19601f820116820180604052508101906118f79190614df6565b9250925092509250925092565b600061190e6132cb565b600084815260019190910160205260408120906119296132cb565b600095865260020160209081526040808720958752948152848620546001600160a01b039081168352908201929092529092019092205416919050565b60006119706132cb565b6001600160a01b03831660009081526004919091016020526040812091505b61199882613f63565b81101561145d576119b26119ac8383613f6d565b84612bac565b806119bc81614c8a565b91505061198f565b60006119ce6132cb565b600092835260030160205250604090205490565b60006119ec6132cb565b600093845260020160209081526040808520938552929052509020546001600160a01b031690565b60026000541415611a375760405162461bcd60e51b815260040161098a90614b7a565b600260009081558190611a486132cb565b6000838152602091909152604090205411611abe5760405162461bcd60e51b815260206004820152603060248201527f4e6f206c656e64696e67206d61726b65747320657869737420666f722061207360448201526f706563696669632063757272656e637960801b606482015260840161098a565b6000611ac86132cb565b600084815260209190915260408120805490925082908290611aec57611aec614bdb565b600091825260208220015483546001600160a01b03909116925083906001908110611b1957611b19614bdb565b600091825260208220015484546001600160a01b039091169250611bdd908590611b4590600190614e24565b81548110611b5557611b55614bdb565b600091825260209182902001546040805163e16695b560e01b815290516001600160a01b039092169263e16695b592600480840193829003018186803b158015611b9e57600080fd5b505afa158015611bb2573d6000803e3d6000fd5b505050506040513d601f19601f82011682018060405250810190611bd69190614b61565b6003613f79565b60405163baa2675760e01b8152600481018290529091506000906001600160a01b0385169063baa2675790602401602060405180830381600087803b158015611c2557600080fd5b505af1158015611c39573d6000803e3d6000fd5b505050506040513d601f19601f82011682018060405250810190611c5d9190614b61565b905060005b8554811015611d0c5785546000908290611c7e90600190614e24565b14611cb95786611c8f836001614e3b565b81548110611c9f57611c9f614bdb565b6000918252602090912001546001600160a01b0316611cbb565b855b905080878381548110611cd057611cd0614bdb565b600091825260209091200180546001600160a01b0319166001600160a01b03929092169190911790555080611d0481614c8a565b915050611c62565b50611d15614050565b6001600160a01b031663b95a33ab8883866001600160a01b031663e16695b56040518163ffffffff1660e01b815260040160206040518083038186803b158015611d5e57600080fd5b505afa158015611d72573d6000803e3d6000fd5b505050506040513d601f19601f82011682018060405250810190611d969190614b61565b876001600160a01b03166371613c2d6040518163ffffffff1660e01b815260040160206040518083038186803b158015611dcf57600080fd5b505afa158015611de3573d6000803e3d6000fd5b505050506040513d601f19601f82011682018060405250810190611e079190614b61565b6040516001600160e01b031960e087901b1681526004810194909452602484019290925260448301526064820152608401600060405180830381600087803b158015611e5257600080fd5b505af1158015611e66573d6000803e3d6000fd5b5050505083611e736132cb565b600089815260029190910160209081526040808320868452909152902080546001600160a01b0319166001600160a01b0392909216919091179055611eb66132cb565b60008881526002919091016020908152604080832084845282529182902080546001600160a01b031916905581518981529081018390529081018390527f98cbd76ce00c88aafa668f8d8ee624506fdfd22fc473f74ea1b75addf544c2209060600160405180910390a1505060016000555050505050565b600060026000541415611f535760405162461bcd60e51b815260040161098a90614b7a565b6002600090815584908490611f666132cb565b6000848152600291909101602090815260408083208584529091529020546001600160a01b03161415611fab5760405162461bcd60e51b815260040161098a90614bb1565b611fb3613e26565b6001600160a01b03166396994e37343389346040518563ffffffff1660e01b8152600401611fe393929190614cf9565b6000604051808303818588803b158015611ffc57600080fd5b505af1158015612010573d6000803e3d6000fd5b5050505050610f89868633613c90565b60007f9acda75aebd150dd434541a4747a6dc606f4f1a59662477e67daf1fc0bf9e0aa6107f9565b606080606060006120576132cb565b6000888152600291909101602090815260408083208984529091529081902054905163d866d35560e01b8152600481018790526001600160a01b039091169150819063d866d35590602401610863565b604051639d3fc35d60e01b8152600481018390526001600160a01b03821660248201526000908190819073eBc1C80450A219909f543ee350c67BfDdAb728d690639d3fc35d906044016118a7565b606060006121016132cb565b6000848152602091909152604090205467ffffffffffffffff81111561212957612129614a28565b604051908082528060200260200182016040528015612152578160200160208202803683370190505b50905060005b6121606132cb565b6000858152602091909152604090205481101561175d5760006121816132cb565b6000868152602091909152604090208054839081106121a2576121a2614bdb565b600091825260209182902001546040805163e16695b560e01b815290516001600160a01b039092169350839263e16695b592600480840193829003018186803b1580156121ee57600080fd5b505afa158015612202573d6000803e3d6000fd5b505050506040513d601f19601f820116820180604052508101906122269190614b61565b83838151811061223857612238614bdb565b6020908102919091010152508061224e81614c8a565b915050612158565b60008033612262612020565b6001600160a01b0316146122885760405162461bcd60e51b815260040161098a90614dc1565b612290614050565b6001600160a01b0316630cf7505d846040518263ffffffff1660e01b81526004016122bd91815260200190565b60206040518083038186803b1580156122d557600080fd5b505afa1580156122e9573d6000803e3d6000fd5b505050506040513d601f19601f8201168201806040525081019061230d9190614e53565b6123785760405162461bcd60e51b815260206004820152603660248201527f4c656e64696e67206d61726b6574206861736e2774206265656e20696e697469604482015275616c697a656420696e207468652063757272656e637960501b606482015260840161098a565b61238061405a565b6001600160a01b031663d4d4f6ce846040518263ffffffff1660e01b81526004016123ad91815260200190565b60206040518083038186803b1580156123c557600080fd5b505afa1580156123d9573d6000803e3d6000fd5b505050506040513d601f19601f820116820180604052508101906123fd9190614e53565b61243d5760405162461bcd60e51b81526020600482015260116024820152704e4f4e20535550504f525445442043435960781b604482015260640161098a565b60006124476132cb565b6000858152600391909101602052604081205491506124646132cb565b600086815260209190915260409020541115612549576124826132cb565b600085815260209190915260409020600161249b6132cb565b600087815260209190915260409020546124b59190614e24565b815481106124c5576124c5614bdb565b600091825260209182902001546040805163e16695b560e01b815290516001600160a01b039092169263e16695b592600480840193829003018186803b15801561250e57600080fd5b505afa158015612522573d6000803e3d6000fd5b505050506040513d601f19601f820116820180604052508101906125469190614b61565b90505b6000612556826003613f79565b9050612560614064565b6001600160a01b0316634672758f866125776132cb565b60008981526003919091016020526040908190205490516001600160e01b031960e085901b1681526004810192909252602482015260448101849052606401602060405180830381600087803b1580156125d057600080fd5b505af11580156125e4573d6000803e3d6000fd5b505050506040513d601f19601f820116820180604052508101906126089190614c57565b9350612612614064565b6001600160a01b031663a97c4b536040518163ffffffff1660e01b8152600401602060405180830381600087803b15801561264c57600080fd5b505af1158015612660573d6000803e3d6000fd5b505050506040513d601f19601f820116820180604052508101906126849190614c57565b925061268e6132cb565b600086815260209182526040812080546001810182559082529190200180546001600160a01b0319166001600160a01b038616179055836126cd6132cb565b600087815260029190910160209081526040808320858452909152902080546001600160a01b0319166001600160a01b0392909216919091179055826127116132cb565b6000878152600191909101602090815260408083206001600160a01b0389811680865291909352922080546001600160a01b0319169390911692909217909155857f5f1af77fb16a8d70e13dc1d6eef0f7b3f37103d1bfc348e1e57469c7186465438561277c6132cb565b60008a815260209190915260409081902054905161279d9291908790614cf9565b60405180910390a35050915091565b6000336127b7612020565b6001600160a01b0316146127dd5760405162461bcd60e51b815260040161098a90614dc1565b60005b6127e86132cb565b600084815260209190915260409020548110156128a15760006128096132cb565b60008581526020919091526040902080548390811061282a5761282a614bdb565b60009182526020822001546040805163280dce3760e21b815290516001600160a01b039092169350839263a03738dc9260048084019382900301818387803b15801561287557600080fd5b505af1158015612889573d6000803e3d6000fd5b5050505050808061289990614c8a565b9150506127e0565b50600192915050565b606060006128b66132cb565b6000848152602091909152604090205467ffffffffffffffff8111156128de576128de614a28565b604051908082528060200260200182016040528015612907578160200160208202803683370190505b50905060005b6129156132cb565b6000858152602091909152604090205481101561175d5760006129366132cb565b60008681526020919091526040902080548390811061295757612957614bdb565b60009182526020918290200154604080516371613c2d60e01b815290516001600160a01b03909216935083926371613c2d92600480840193829003018186803b1580156129a357600080fd5b505afa1580156129b7573d6000803e3d6000fd5b505050506040513d601f19601f820116820180604052508101906129db9190614b61565b8383815181106129ed576129ed614bdb565b60209081029190910101525080612a0381614c8a565b91505061290d565b6040805160018082528183019092526060916020808301908036833701905050905069151bdad95b95985d5b1d60b21b816000815181106111b9576111b9614bdb565b33612a57612020565b6001600160a01b031614612a7d5760405162461bcd60e51b815260040161098a90614dc1565b60008111612acd5760405162461bcd60e51b815260206004820152601760248201527f496e76616c696420636f6d706f756e6420666163746f72000000000000000000604482015260640161098a565b612ad683610e3d565b15612b195760405162461bcd60e51b8152602060048201526013602482015272105b1c9958591e481a5b9a5d1a585b1a5e9959606a1b604482015260640161098a565b612b21614050565b60405163dc9715c560e01b81526004810185905260126024820152604481018390526001600160a01b03919091169063dc9715c590606401600060405180830381600087803b158015612b7357600080fd5b505af1158015612b87573d6000803e3d6000fd5b5050505081612b946132cb565b60009485526003016020526040909320929092555050565b6000612bb66132cb565b6001600160a01b0383166000908152600491909101602052604090209050612bde818461406e565b612be757505050565b6000806000612bf5866120f5565b905060005b8151811015612cb1576000612c2988848481518110612c1b57612c1b614bdb565b602002602001015189613c90565b9050600080612c528a868681518110612c4457612c44614bdb565b60200260200101518b6132ef565b9092509050612c618288614e3b565b96508015612c9057612c8d8a868681518110612c7f57612c7f614bdb565b60200260200101518b613c90565b92505b8215612c9b57600195505b5050508080612ca990614c8a565b915050612bfa565b5082158015612cbe575081155b8015612d515750612ccd614050565b60405163386320d360e11b8152600481018890526001600160a01b03878116602483015291909116906370c641a69060440160206040518083038186803b158015612d1757600080fd5b505afa158015612d2b573d6000803e3d6000fd5b505050506040513d601f19601f82011682018060405250810190612d4f9190614b61565b155b15612d8657612d8486612d626132cb565b6001600160a01b03881660009081526004919091016020526040902090614086565b505b505050505050565b600033612d99612020565b6001600160a01b031614612dbf5760405162461bcd60e51b815260040161098a90614dc1565b60005b612dca6132cb565b600084815260209190915260409020548110156128a1576000612deb6132cb565b600085815260209190915260409020805483908110612e0c57612e0c614bdb565b600091825260208220015460408051630b0863e760e11b815290516001600160a01b0390921693508392631610c7ce9260048084019382900301818387803b158015612e5757600080fd5b505af1158015612e6b573d6000803e3d6000fd5b50505050508080612e7b90614c8a565b915050612dc2565b60606000612e8f6132cb565b6000848152602091909152604090205467ffffffffffffffff811115612eb757612eb7614a28565b604051908082528060200260200182016040528015612ee0578160200160208202803683370190505b50905060005b612eee6132cb565b6000858152602091909152604090205481101561175d576000612f0f6132cb565b600086815260209190915260409020805483908110612f3057612f30614bdb565b6000918252602091829020015460408051632f05aa6d60e11b815290516001600160a01b0390921693508392635e0b54da92600480840193829003018186803b158015612f7c57600080fd5b505afa158015612f90573d6000803e3d6000fd5b505050506040513d601f19601f82011682018060405250810190612fb49190614b61565b838381518110612fc657612fc6614bdb565b60209081029190910101525080612fdc81614c8a565b915050612ee6565b33612fed612020565b6001600160a01b0316146130135760405162461bcd60e51b815260040161098a90614dc1565b6001600160a01b0381166130785760405162461bcd60e51b815260206004820152602660248201527f4f776e61626c653a206e6577206f776e657220697320746865207a65726f206160448201526564647265737360d01b606482015260840161098a565b61308181613e5d565b50565b6000600260005414156130a95760405162461bcd60e51b815260040161098a90614b7a565b60026000908155869086906130bc6132cb565b6000848152600291909101602090815260408083208584529091529020546001600160a01b031614156131015760405162461bcd60e51b815260040161098a90614bb1565b6112b9888833613c90565b6000806131176132cb565b6001600160a01b03841660009081526004919091016020526040812091505b61313f82613f63565b8110156132965760006131528383613f6d565b6040516385f3396760e01b8152600481018290526001600160a01b038716602482015290915060009073eBc1C80450A219909f543ee350c67BfDdAb728d6906385f339679060440160206040518083038186803b1580156131b257600080fd5b505af41580156131c6573d6000803e3d6000fd5b505050506040513d601f19601f820116820180604052508101906131ea9190614b61565b90506131f461405a565b6040516303a0a22f60e41b815260048101849052602481018390526001600160a01b039190911690633a0a22f09060440160206040518083038186803b15801561323d57600080fd5b505afa158015613251573d6000803e3d6000fd5b505050506040513d601f19601f820116820180604052508101906132759190614b61565b61327f9086614e75565b94505050808061328e90614c8a565b915050613136565b5050919050565b606061095f6132aa6132cb565b6001600160a01b038416600090815260049190910160205260409020614092565b7f8041b8421ebd495cc61f38c788c9eb100daccf9bd36aa0bb920b7a15b2e0496590565b60008060006132fe8686611904565b905060008060008060008060006133136132cb565b60008e8152600291909101602090815260408083208f845290915290819020549051630516d8c960e11b81526001600160a01b038d8116600483015290911690630a2db1929060240160e060405180830381600087803b15801561337657600080fd5b505af115801561338a573d6000803e3d6000fd5b505050506040513d601f19601f820116820180604052508101906133ae9190614ca5565b96509650965096509650965096508183111561343b576133cc613e26565b6001600160a01b0316631189abda8c8f6133e68688614e24565b6040518463ffffffff1660e01b815260040161340493929190614cf9565b600060405180830381600087803b15801561341e57600080fd5b505af1158015613432573d6000803e3d6000fd5b505050506134b6565b818310156134b65761344b613e26565b6001600160a01b031663aec9455c8c8f6134658787614e24565b6040518463ffffffff1660e01b815260040161348393929190614cf9565b600060405180830381600087803b15801561349d57600080fd5b505af11580156134b1573d6000803e3d6000fd5b505050505b841561358657604051630424172f60e11b81526001600160a01b038916906308482e5e906134ec908e9089908690600401614cf9565b602060405180830381600087803b15801561350657600080fd5b505af115801561351a573d6000803e3d6000fd5b505050506040513d601f19601f8201168201806040525081019061353e9190614e53565b50808d8c6001600160a01b03167f3dd6192fffa4612e795f196dc6367cfa6494cbe70d7cff3a039ebbbc4acb262e60008960405161357d929190614eb6565b60405180910390a45b83156136565760405163a46971ad60e01b81526001600160a01b0389169063a46971ad906135bc908e9088908690600401614cf9565b602060405180830381600087803b1580156135d657600080fd5b505af11580156135ea573d6000803e3d6000fd5b505050506040513d601f19601f8201168201806040525081019061360e9190614e53565b50808d8c6001600160a01b03167f3dd6192fffa4612e795f196dc6367cfa6494cbe70d7cff3a039ebbbc4acb262e60018860405161364d929190614eb6565b60405180910390a45b60006136628587614e3b565b11985061366f8688614e3b565b99505050505050505050935093915050565b60008084116136c35760405162461bcd60e51b815260206004820152600e60248201526d125b9d985b1a5908185b5bdd5b9d60921b604482015260640161098a565b6136cb613e26565b6001600160a01b03166328ff7a42878a87896040518563ffffffff1660e01b81526004016136fc9493929190614ed1565b60206040518083038186803b15801561371457600080fd5b505afa158015613728573d6000803e3d6000fd5b505050506040513d601f19601f8201168201806040525081019061374c9190614e53565b6137905760405162461bcd60e51b8152602060048201526015602482015274139bdd08195b9bdd59da0818dbdb1b185d195c985b605a1b604482015260640161098a565b600061379d8989896132ef565b5090506000806137ab6132cb565b60008c8152600291909101602090815260408083208d845290915290819020549051633352870560e21b81526001600160a01b039091169063cd4a1c14906137ff908b908d908c908c908c90600401614f05565b6040805180830381600087803b15801561381857600080fd5b505af115801561382c573d6000803e3d6000fd5b505050506040513d601f19601f820116820180604052508101906138509190614f41565b9150915081600014806138635750600081115b1561387657613873600184614e3b565b92505b60058311156138c05760405162461bcd60e51b8152602060048201526016602482015275546f6f206d616e7920616374697665206f726465727360501b604482015260640161098a565b811580156138cc575084155b1561395057898b8a6001600160a01b03167f3a665a917b140525f0275d43b0b2584ef6a9de932462558cd901a657b61126408b8b8b60405161391093929190614f65565b60405180910390a46001935061394a8b6139286132cb565b6001600160a01b038c166000908152600491909101602052604090209061409d565b50613c82565b8115613c825760006139606132cb565b60008d8152600191909101602052604081209061397b6132cb565b60020160008f815260200190815260200160002060008e815260200190815260200160002060009054906101000a90046001600160a01b03166001600160a01b03166001600160a01b0316815260200190815260200160002060009054906101000a90046001600160a01b031690506001808111156139fc576139fc614d51565b896001811115613a0e57613a0e614d51565b1415613b0e57613a1c613e26565b6001600160a01b031663aec9455c8b8e613a36868d614e24565b6040518463ffffffff1660e01b8152600401613a5493929190614cf9565b600060405180830381600087803b158015613a6e57600080fd5b505af1158015613a82573d6000803e3d6000fd5b50505050806001600160a01b031663a46971ad8b858e6040518463ffffffff1660e01b8152600401613ab693929190614cf9565b602060405180830381600087803b158015613ad057600080fd5b505af1158015613ae4573d6000803e3d6000fd5b505050506040513d601f19601f82011682018060405250810190613b089190614e53565b50613c04565b613b16613e26565b6001600160a01b0316631189abda8b8e613b30868d614e24565b6040518463ffffffff1660e01b8152600401613b4e93929190614cf9565b600060405180830381600087803b158015613b6857600080fd5b505af1158015613b7c573d6000803e3d6000fd5b50505050806001600160a01b03166308482e5e8b858e6040518463ffffffff1660e01b8152600401613bb093929190614cf9565b602060405180830381600087803b158015613bca57600080fd5b505af1158015613bde573d6000803e3d6000fd5b505050506040513d601f19601f82011682018060405250810190613c029190614e53565b505b8a8c8b6001600160a01b03167f5af4e2baa5d844d0439bc0122be7cf9d47b6680937eaabce58bd1ca2f16486ae8c8c8c89604051613c459493929190614f84565b60405180910390a460009450613c7f8c613c5d6132cb565b6001600160a01b038d166000908152600491909101602052604090209061409d565b50505b505050979650505050505050565b600080613c9b6132cb565b60008681526001919091016020526040812090613cb66132cb565b6000888152600291909101602090815260408083208984528252808320546001600160a01b03908116855291840194909452918301812054925163ae100e6d60e01b81528683166004820152602481018890529290911692509081908190849063ae100e6d90604401606060405180830381600087803b158015613d3957600080fd5b505af1158015613d4d573d6000803e3d6000fd5b505050506040513d601f19601f82011682018060405250810190613d719190614df6565b92509250925082600014613e1b57613d87614050565b604051634ab34b2b60e11b8152600481018a90526001600160a01b03888116602483015260448201849052606482018690529190911690639566965690608401602060405180830381600087803b158015613de157600080fd5b505af1158015613df5573d6000803e3d6000fd5b505050506040513d601f19601f82011682018060405250810190613e199190614e53565b505b509695505050505050565b6000613e306140a9565b905090565b60007f360894a13ba1a3210667c828492db98dca3e2076cc3735a920a3ca505d382bbc6107f9565b7f9acda75aebd150dd434541a4747a6dc606f4f1a59662477e67daf1fc0bf9e0aa80546001600160a01b038381166001600160a01b0319831681179093556040519116919082907f8be0079c531659141344cd1fd0a4f28419497f9722a3daafe3b4186f6b6457e090600090a35050565b600080516020615126833981519152546001600160a01b031615613f345760405162461bcd60e51b815260206004820152601b60248201527f7265736f6c766572207265676973746572656420616c72656164790000000000604482015260640161098a565b60008051602061512683398151915280546001600160a01b0319166001600160a01b0392909216919091179055565b600061095f825490565b600061095c83836140c1565b6000808080613f93613f8e6201518088614fc3565b6140eb565b91945092509050613fa48583614e3b565b9150600c613fb3600184614e24565b613fbd9190614fc3565b613fc79084614e3b565b9250600c613fd6600184614e24565b613fe09190614fd7565b613feb906001614e3b565b91506000613ff9848461425f565b905080821115614007578091505b6140146201518088614fd7565b620151806140238686866142e5565b61402d9190614feb565b6140379190614e3b565b94508685101561404657600080fd5b5050505092915050565b6000613e30614422565b6000613e30614441565b6000613e30614461565b6000818152600183016020526040812054151561095c565b600061095c8383614484565b606061095f82614577565b600061095c83836145d2565b6000613e3069151bdad95b95985d5b1d60b21b614621565b60008260000182815481106140d8576140d8614bdb565b9060005260206000200154905092915050565b60008080838162253d8c6141028362010bd9614e75565b61410c9190614e75565b9050600062023ab161411f83600461500a565b614129919061508f565b9050600461413a8262023ab161500a565b614145906003614e75565b61414f919061508f565b61415990836150bd565b9150600062164b0961416c846001614e75565b61417890610fa061500a565b614182919061508f565b90506004614192826105b561500a565b61419c919061508f565b6141a690846150bd565b6141b190601f614e75565b9250600061098f6141c385605061500a565b6141cd919061508f565b9050600060506141df8361098f61500a565b6141e9919061508f565b6141f390866150bd565b9050614200600b8361508f565b945061420d85600c61500a565b614218836002614e75565b61422291906150bd565b915084836142316031876150bd565b61423c90606461500a565b6142469190614e75565b6142509190614e75565b9a919950975095505050505050565b600081600114806142705750816003145b8061427b5750816005145b806142865750816007145b806142915750816008145b8061429c575081600a145b806142a7575081600c145b156142b45750601f61095f565b816002146142c45750601e61095f565b6142cd836146b2565b6142d857601c6142db565b601d5b60ff169392505050565b60006107b28410156142f657600080fd5b838383600062253d8c60046064600c614310600e886150bd565b61431a919061508f565b61432688611324614e75565b6143309190614e75565b61433a919061508f565b61434590600361500a565b61434f919061508f565b600c8061435d600e886150bd565b614367919061508f565b61437290600c61500a565b61437d6002886150bd565b61438791906150bd565b6143939061016f61500a565b61439d919061508f565b6004600c6143ac600e896150bd565b6143b6919061508f565b6143c2896112c0614e75565b6143cc9190614e75565b6143d8906105b561500a565b6143e2919061508f565b6143ee617d4b876150bd565b6143f89190614e75565b6144029190614e75565b61440c91906150bd565b61441691906150bd565b98975050505050505050565b6000613e307011d95b995cda5cd5985b1d5955985d5b1d607a1b614621565b6000613e307121bab93932b731bca1b7b73a3937b63632b960711b614621565b6000613e30742132b0b1b7b7283937bc3ca1b7b73a3937b63632b960591b614621565b6000818152600183016020526040812054801561456d5760006144a8600183614e24565b85549091506000906144bc90600190614e24565b90508181146145215760008660000182815481106144dc576144dc614bdb565b90600052602060002001549050808760000184815481106144ff576144ff614bdb565b6000918252602080832090910192909255918252600188019052604090208390555b8554869080614532576145326150fc565b60019003818190600052602060002001600090559055856001016000868152602001908152602001600020600090556001935050505061095f565b600091505061095f565b60608160000180548060200260200160405190810160405280929190818152602001828054801561101757602002820191906000526020600020905b8154815260200190600101908083116145b35750505050509050919050565b60008181526001830160205260408120546146195750815460018181018455600084815260208082209093018490558454848252828601909352604090209190915561095f565b50600061095f565b60008181527f4abde63c3e81aefa5764b017968bc473e83e093d7e1a10247d19e0a3e41240196020908152604080832054815170026b4b9b9b4b7339030b2323932b9b99d1607d1b9381019390935260318084018690528251808503909101815260519093019091526001600160a01b0316908161175d5760405162461bcd60e51b815260040161098a9190615112565b60006146bf600483614fd7565b1580156146d557506146d2606483614fd7565b15155b8061095f57506146e761019083614fd7565b1592915050565b60008060006060848603121561470357600080fd5b505081359360208301359350604090920135919050565b600081518084526020808501945080840160005b8381101561474a5781518752958201959082019060010161472e565b509495945050505050565b606081526000614768606083018661471a565b828103602084015261477a818661471a565b9050828103604084015261478e818561471a565b9695505050505050565b6001600160a01b038116811461308157600080fd5b600080604083850312156147c057600080fd5b8235915060208301356147d281614798565b809150509250929050565b600080600080600060a086880312156147f557600080fd5b853594506020860135935060408601359250606086013561481581614798565b9150608086013562ffffff8116811461482d57600080fd5b809150509295509295909350565b60006020828403121561484d57600080fd5b5035919050565b60008060006060848603121561486957600080fd5b8335925060208401359150604084013561488281614798565b809150509250925092565b6020808252825182820181905260009190848201906040850190845b818110156148ce5783516001600160a01b0316835292840192918401916001016148a9565b50909695505050505050565b6000602082840312156148ec57600080fd5b81356148f781614798565b9392505050565b6020808252825182820181905260009190848201906040850190845b818110156148ce5783518352928401929184019160010161491a565b6002811061308157600080fd5b600080600080600060a0868803121561495b57600080fd5b8535945060208601359350604086013561497481614936565b94979396509394606081013594506080013592915050565b6000806040838503121561499f57600080fd5b82356149aa81614798565b915060208301356147d281614798565b6000806000606084860312156149cf57600080fd5b8335925060208401359150604084013565ffffffffffff8116811461488257600080fd5b60208152600061095c602083018461471a565b60008060408385031215614a1957600080fd5b50508035926020909101359150565b634e487b7160e01b600052604160045260246000fd5b600082601f830112614a4f57600080fd5b8151602067ffffffffffffffff80831115614a6c57614a6c614a28565b8260051b604051601f19603f83011681018181108482111715614a9157614a91614a28565b604052938452858101830193838101925087851115614aaf57600080fd5b83870191505b84821015614ace57815183529183019190830190614ab5565b979650505050505050565b600080600060608486031215614aee57600080fd5b835167ffffffffffffffff80821115614b0657600080fd5b614b1287838801614a3e565b94506020860151915080821115614b2857600080fd5b614b3487838801614a3e565b93506040860151915080821115614b4a57600080fd5b50614b5786828701614a3e565b9150509250925092565b600060208284031215614b7357600080fd5b5051919050565b6020808252601f908201527f5265656e7472616e637947756172643a207265656e7472616e742063616c6c00604082015260600190565b60208082526010908201526f496e76616c6964206d6174757269747960801b604082015260600190565b634e487b7160e01b600052603260045260246000fd5b6000815180845260005b81811015614c1757602081850181015186830182015201614bfb565b81811115614c29576000602083870101525b50601f01601f19169290920160200192915050565b828152604060208201526000610ef96040830184614bf1565b600060208284031215614c6957600080fd5b81516148f781614798565b634e487b7160e01b600052601160045260246000fd5b6000600019821415614c9e57614c9e614c74565b5060010190565b600080600080600080600060e0888a031215614cc057600080fd5b5050855160208701516040880151606089015160808a015160a08b015160c0909b0151949c939b50919990985090965094509092509050565b6001600160a01b039390931683526020830191909152604082015260600190565b600080600060608486031215614d2f57600080fd5b8351614d3a81614936565b602085015160409095015190969495509392505050565b634e487b7160e01b600052602160045260246000fd5b60028110614d8557634e487b7160e01b600052602160045260246000fd5b9052565b65ffffffffffff8616815260a08101614da56020830187614d67565b8460408301528360608301528260808301529695505050505050565b6020808252818101527f4f776e61626c653a2063616c6c6572206973206e6f7420746865206f776e6572604082015260600190565b600080600060608486031215614e0b57600080fd5b8351925060208401519150604084015190509250925092565b600082821015614e3657614e36614c74565b500390565b60008219821115614e4e57614e4e614c74565b500190565b600060208284031215614e6557600080fd5b815180151581146148f757600080fd5b600080821280156001600160ff1b0384900385131615614e9757614e97614c74565b600160ff1b8390038412811615614eb057614eb0614c74565b50500190565b60408101614ec48285614d67565b8260208301529392505050565b6001600160a01b0385168152602081018490526040810183905260808101614efc6060830184614d67565b95945050505050565b60a08101614f138288614d67565b6001600160a01b03959095166020820152604081019390935260608301919091521515608090910152919050565b60008060408385031215614f5457600080fd5b505080516020909101519092909150565b60608101614f738286614d67565b602082019390935260400152919050565b60808101614f928287614d67565b84602083015283604083015282606083015295945050505050565b634e487b7160e01b600052601260045260246000fd5b600082614fd257614fd2614fad565b500490565b600082614fe657614fe6614fad565b500690565b600081600019048311821515161561500557615005614c74565b500290565b60006001600160ff1b038184138284138082168684048611161561503057615030614c74565b600160ff1b600087128281168783058912161561504f5761504f614c74565b6000871292508782058712848416161561506b5761506b614c74565b8785058712818416161561508157615081614c74565b505050929093029392505050565b60008261509e5761509e614fad565b600160ff1b8214600019841416156150b8576150b8614c74565b500590565b60008083128015600160ff1b8501841216156150db576150db614c74565b6001600160ff1b03840183138116156150f6576150f6614c74565b50500390565b634e487b7160e01b600052603160045260246000fd5b60208152600061095c6020830184614bf156fe4abde63c3e81aefa5764b017968bc473e83e093d7e1a10247d19e0a3e4124018a2646970667358221220692b89ac88f0b7672d5aaf3cbc49a3229e86b9977ff8cd0cd02f11b5100b1a9264736f6c63430008090033",
  "deployedBytecode": "0x6080604052600436106102465760003560e01c8063870cf8ab11610139578063b3cb8450116100b6578063e99d05381161007a578063e99d053814610727578063eb092a2614610747578063f2fde38b14610767578063faca409b14610787578063fb54a6b3146107a7578063fc700810146107c757600080fd5b8063b3cb845014610692578063bfd10cf6146106b2578063e0997659146106d2578063e219baef146106e7578063e95dc1831461070757600080fd5b80638da5cb5b116100fd5780638da5cb5b146105dd578063953dbcaa146105f25780639d3fc35d14610612578063a02be3dc14610632578063a963ad7f1461065257600080fd5b8063870cf8ab1461054a578063891d59651461056a5780638a9817451461058a5780638b36d833146105aa5780638b646f44146105ca57600080fd5b80633b22a474116101c757806355aceb4e1161018b57806355aceb4e1461048d5780635c347765146104ba578063715018a6146104da57806373bb3b09146104ef57806385323e1a1461052a57600080fd5b80633b22a474146103b65780633d03b9da1461040b578063448255c71461042d578063485cc9551461044d57806349f2ccbf1461046d57600080fd5b80632af64bd31161020e5780632af64bd3146103215780632e6c5e67146103365780632e77aea714610356578063371c672c14610376578063381ada1f1461038957600080fd5b806304f3bcec1461024b5780630594de6e1461027d57806317b72ff4146102ac57806322365261146102da57806329985e5a1461030a575b600080fd5b34801561025757600080fd5b506102606107e7565b6040516001600160a01b0390911681526020015b60405180910390f35b34801561028957600080fd5b5061029d6102983660046146ee565b610808565b60405161027493929190614755565b3480156102b857600080fd5b506102cc6102c73660046147ad565b6108c7565b604051908152602001610274565b3480156102e657600080fd5b506102fa6102f53660046147dd565b610965565b6040519015158152602001610274565b34801561031657600080fd5b5061031f610b2a565b005b34801561032d57600080fd5b506102fa610cd7565b34801561034257600080fd5b506102fa61035136600461483b565b610e3d565b34801561036257600080fd5b506102cc610371366004614854565b610e5d565b6102fa6103843660046146ee565b610f01565b34801561039557600080fd5b506103a96103a436600461483b565b610fae565b604051610274919061488d565b3480156103c257600080fd5b506103d66103d13660046148da565b611023565b604080519788526020880196909652948601939093526060850191909152608084015260a083015260c082015260e001610274565b34801561041757600080fd5b506104206110d4565b60405161027491906148fe565b34801561043957600080fd5b506102fa610448366004614943565b6111c8565b34801561045957600080fd5b5061031f61046836600461498c565b6112df565b34801561047957600080fd5b506102fa6104883660046149ba565b611462565b34801561049957600080fd5b506104ad6104a836600461483b565b6115fc565b60405161027491906149f3565b3480156104c657600080fd5b506103d66104d53660046147ad565b611764565b3480156104e657600080fd5b5061031f611822565b3480156104fb57600080fd5b5061050f61050a3660046147ad565b61185d565b60408051938452602084019290925290820152606001610274565b34801561053657600080fd5b50610260610545366004614a06565b611904565b34801561055657600080fd5b5061031f6105653660046148da565b611966565b34801561057657600080fd5b506102cc61058536600461483b565b6119c4565b34801561059657600080fd5b506102606105a5366004614a06565b6119e2565b3480156105b657600080fd5b5061031f6105c536600461483b565b611a14565b6102fa6105d83660046146ee565b611f2e565b3480156105e957600080fd5b50610260612020565b3480156105fe57600080fd5b5061029d61060d3660046146ee565b612048565b34801561061e57600080fd5b5061050f61062d3660046147ad565b6120a7565b34801561063e57600080fd5b506104ad61064d36600461483b565b6120f5565b34801561065e57600080fd5b5061067261066d36600461483b565b612256565b604080516001600160a01b03938416815292909116602083015201610274565b34801561069e57600080fd5b506102fa6106ad36600461483b565b6127ac565b3480156106be57600080fd5b506104ad6106cd36600461483b565b6128aa565b3480156106de57600080fd5b50610420612a0b565b3480156106f357600080fd5b5061031f6107023660046146ee565b612a4e565b34801561071357600080fd5b5061031f6107223660046147ad565b612bac565b34801561073357600080fd5b506102fa61074236600461483b565b612d8e565b34801561075357600080fd5b506104ad61076236600461483b565b612e83565b34801561077357600080fd5b5061031f6107823660046148da565b612fe4565b34801561079357600080fd5b506102fa6107a2366004614943565b613084565b3480156107b357600080fd5b506102cc6107c23660046148da565b61310c565b3480156107d357600080fd5b506104206107e23660046148da565b61329d565b60006000805160206151268339815191525b546001600160a01b0316919050565b606080606060006108176132cb565b600088815260029190910160209081526040808320898452909152908190205490516325fb168b60e11b8152600481018790526001600160a01b0390911691508190634bf62d16906024015b60006040518083038186803b15801561087b57600080fd5b505afa15801561088f573d6000803e3d6000fd5b505050506040513d6000823e601f3d908101601f191682016040526108b79190810190614ad9565b9350935093505093509350939050565b6040516385f3396760e01b8152600481018390526001600160a01b038216602482015260009073__$4a3525e110007f5a23e9853ccc5aa6ed76$__906385f339679060440160206040518083038186803b15801561092457600080fd5b505af4158015610938573d6000803e3d6000fd5b505050506040513d601f19601f8201168201806040525081019061095c9190614b61565b90505b92915050565b6000600260005414156109935760405162461bcd60e51b815260040161098a90614b7a565b60405180910390fd5b60026000908155859085906109a66132cb565b6000848152600291909101602090815260408083208584529091529020546001600160a01b031614156109eb5760405162461bcd60e51b815260040161098a90614bb1565b6109f68787876132ef565b5050604051630a9a71bf60e21b81526004810189905260248101889052604481018790526001600160a01b038616606482015262ffffff8516608482015260009073__$4a3525e110007f5a23e9853ccc5aa6ed76$__90632a69c6fc9060a40160206040518083038186803b158015610a6e57600080fd5b505af4158015610a82573d6000803e3d6000fd5b505050506040513d601f19601f82011682018060405250810190610aa69190614b61565b9050610aba88888860008560006001613681565b508688876001600160a01b03167f2aa75186e5dc6215fe9b34c1bbcf001827defa52de1574957eb71fbf5c920b8a8c85604051610b01929190918252602082015260400190565b60405180910390a4610b14888888613c90565b5060019350505050600160005595945050505050565b6000610b346110d4565b905060005b8151811015610cd3576000828281518110610b5657610b56614bdb565b602002602001015190506000610b7760008051602061512683398151915290565b54604080517f5265736f6c766572206d697373696e67207461726765743a200000000000000060208201526039808201869052825180830390910181526059820192839052636795dbcd60e01b9092526001600160a01b0390921691636795dbcd91610be891869190605d01614c3e565b60206040518083038186803b158015610c0057600080fd5b505afa158015610c14573d6000803e3d6000fd5b505050506040513d601f19601f82011682018060405250810190610c389190614c57565b60008381527f4abde63c3e81aefa5764b017968bc473e83e093d7e1a10247d19e0a3e4124019602090815260409182902080546001600160a01b0319166001600160a01b03851690811790915582518681529182015281519293507f88a93678a3692f6789d9546fc621bf7234b101ddb7d4fe479455112831b8aa68929081900390910190a150508080610ccb90614c8a565b915050610b39565b5050565b600080610ce26110d4565b905060005b8151811015610e34576000828281518110610d0457610d04614bdb565b60200260200101519050610d2360008051602061512683398151915290565b600082815260019190910160205260409020546001600160a01b0316600080516020615126833981519152546040516321f8a72160e01b8152600481018490526001600160a01b03909116906321f8a7219060240160206040518083038186803b158015610d9057600080fd5b505afa158015610da4573d6000803e3d6000fd5b505050506040513d601f19601f82011682018060405250810190610dc89190614c57565b6001600160a01b0316141580610e12575060008181527f4abde63c3e81aefa5764b017968bc473e83e093d7e1a10247d19e0a3e412401960205260409020546001600160a01b0316155b15610e21576000935050505090565b5080610e2c81614c8a565b915050610ce7565b50600191505090565b6000610e476132cb565b6000928352600301602052506040902054151590565b6040516371eb435360e01b815260048101849052602481018390526001600160a01b038216604482015260009073__$4a3525e110007f5a23e9853ccc5aa6ed76$__906371eb43539060640160206040518083038186803b158015610ec157600080fd5b505af4158015610ed5573d6000803e3d6000fd5b505050506040513d601f19601f82011682018060405250810190610ef99190614b61565b949350505050565b600060026000541415610f265760405162461bcd60e51b815260040161098a90614b7a565b6002600090815584908490610f396132cb565b6000848152600291909101602090815260408083208584529091529020546001600160a01b03161415610f7e5760405162461bcd60e51b815260040161098a90614bb1565b610f89868633613c90565b50610f9b868633600034896000613681565b5060019250505060016000559392505050565b6060610fb86132cb565b600083815260209182526040908190208054825181850281018501909352808352919290919083018282801561101757602002820191906000526020600020905b81546001600160a01b03168152600190910190602001808311610ff9575b50505050509050919050565b604051630ec8a91d60e21b81526001600160a01b038216600482015260009081908190819081908190819073__$4a3525e110007f5a23e9853ccc5aa6ed76$__90633b22a4749060240160e06040518083038186803b15801561108557600080fd5b505af4158015611099573d6000803e3d6000fd5b505050506040513d601f19601f820116820180604052508101906110bd9190614ca5565b959e949d50929b5090995097509550909350915050565b60408051600480825260a0820190925260609160208201608080368337019050509050742132b0b1b7b7283937bc3ca1b7b73a3937b63632b960591b8160008151811061112357611123614bdb565b6020026020010181815250507121bab93932b731bca1b7b73a3937b63632b960711b8160018151811061115857611158614bdb565b6020026020010181815250507011d95b995cda5cd5985b1d5955985d5b1d607a1b8160028151811061118c5761118c614bdb565b60200260200101818152505069151bdad95b95985d5b1d60b21b816003815181106111b9576111b9614bdb565b60200260200101818152505090565b6000600260005414156111ed5760405162461bcd60e51b815260040161098a90614b7a565b60026000908155869086906112006132cb565b6000848152600291909101602090815260408083208584529091529020546001600160a01b031614156112455760405162461bcd60e51b815260040161098a90614bb1565b61124d613e26565b6001600160a01b03166396994e37338a886040518463ffffffff1660e01b815260040161127c93929190614cf9565b600060405180830381600087803b15801561129657600080fd5b505af11580156112aa573d6000803e3d6000fd5b505050506112b9888833613c90565b506112ca8888338989896000613681565b50600192505050600160005595945050505050565b600154610100900460ff16158080156112fc57506001805460ff16105b806113155750303b15801561131557506001805460ff16145b6113785760405162461bcd60e51b815260206004820152602e60248201527f496e697469616c697a61626c653a20636f6e747261637420697320616c72656160448201526d191e481a5b9a5d1a585b1a5e995960921b606482015260840161098a565b6001805460ff191681179055801561139a576001805461ff0019166101001790555b60006113a4613e35565b6001600160a01b031614156114065760405162461bcd60e51b815260206004820152602260248201527f4d7573742062652063616c6c65642066726f6d2070726f787920636f6e74726160448201526118dd60f21b606482015260840161098a565b61140f83613e5d565b61141882613ece565b801561145d576001805461ff00191681556040519081527f7f26b83ff96e1f2b6a682f133852f6798a09c465da95921460cefb38474024989060200160405180910390a15b505050565b6000600260005414156114875760405162461bcd60e51b815260040161098a90614b7a565b600260009081558490849061149a6132cb565b6000848152600291909101602090815260408083208584529091529020546001600160a01b031614156114df5760405162461bcd60e51b815260040161098a90614bb1565b60006114e96132cb565b60008881526002919091016020908152604080832089845290915280822054905163504b89bd60e01b815233600482015265ffffffffffff881660248201526001600160a01b03909116925081908190849063504b89bd90604401606060405180830381600087803b15801561155e57600080fd5b505af1158015611572573d6000803e3d6000fd5b505050506040513d601f19601f820116820180604052508101906115969190614d1a565b92509250925089336001600160a01b03167f882188071c39e32cd4ffd0cef7a006a29eaae9e4018d72cef313a0f4686cdb918a868d87876040516115de959493929190614d89565b60405180910390a36001965050505050505060016000559392505050565b606060006116086132cb565b6000848152602091909152604090205467ffffffffffffffff81111561163057611630614a28565b604051908082528060200260200182016040528015611659578160200160208202803683370190505b50905060005b6116676132cb565b6000858152602091909152604090205481101561175d5760006116886132cb565b6000868152602091909152604090208054839081106116a9576116a9614bdb565b6000918252602091829020015460408051631b3508b760e01b815290516001600160a01b0390921693508392631b3508b792600480840193829003018186803b1580156116f557600080fd5b505afa158015611709573d6000803e3d6000fd5b505050506040513d601f19601f8201168201806040525081019061172d9190614b61565b83838151811061173f5761173f614bdb565b6020908102919091010152508061175581614c8a565b91505061165f565b5092915050565b600080600080600080600073__$4a3525e110007f5a23e9853ccc5aa6ed76$__635c3477658a8a6040518363ffffffff1660e01b81526004016117ba9291909182526001600160a01b0316602082015260400190565b60e06040518083038186803b1580156117d257600080fd5b505af41580156117e6573d6000803e3d6000fd5b505050506040513d601f19601f8201168201806040525081019061180a9190614ca5565b959f949e50929c50909a509850965090945092505050565b3361182b612020565b6001600160a01b0316146118515760405162461bcd60e51b815260040161098a90614dc1565b61185b6000613e5d565b565b6040516373bb3b0960e01b8152600481018390526001600160a01b03821660248201526000908190819073__$4a3525e110007f5a23e9853ccc5aa6ed76$__906373bb3b09906044015b60606040518083038186803b1580156118bf57600080fd5b505af41580156118d3573d6000803e3d6000fd5b505050506040513d601f19601f820116820180604052508101906118f79190614df6565b9250925092509250925092565b600061190e6132cb565b600084815260019190910160205260408120906119296132cb565b600095865260020160209081526040808720958752948152848620546001600160a01b039081168352908201929092529092019092205416919050565b60006119706132cb565b6001600160a01b03831660009081526004919091016020526040812091505b61199882613f63565b81101561145d576119b26119ac8383613f6d565b84612bac565b806119bc81614c8a565b91505061198f565b60006119ce6132cb565b600092835260030160205250604090205490565b60006119ec6132cb565b600093845260020160209081526040808520938552929052509020546001600160a01b031690565b60026000541415611a375760405162461bcd60e51b815260040161098a90614b7a565b600260009081558190611a486132cb565b6000838152602091909152604090205411611abe5760405162461bcd60e51b815260206004820152603060248201527f4e6f206c656e64696e67206d61726b65747320657869737420666f722061207360448201526f706563696669632063757272656e637960801b606482015260840161098a565b6000611ac86132cb565b600084815260209190915260408120805490925082908290611aec57611aec614bdb565b600091825260208220015483546001600160a01b03909116925083906001908110611b1957611b19614bdb565b600091825260208220015484546001600160a01b039091169250611bdd908590611b4590600190614e24565b81548110611b5557611b55614bdb565b600091825260209182902001546040805163e16695b560e01b815290516001600160a01b039092169263e16695b592600480840193829003018186803b158015611b9e57600080fd5b505afa158015611bb2573d6000803e3d6000fd5b505050506040513d601f19601f82011682018060405250810190611bd69190614b61565b6003613f79565b60405163baa2675760e01b8152600481018290529091506000906001600160a01b0385169063baa2675790602401602060405180830381600087803b158015611c2557600080fd5b505af1158015611c39573d6000803e3d6000fd5b505050506040513d601f19601f82011682018060405250810190611c5d9190614b61565b905060005b8554811015611d0c5785546000908290611c7e90600190614e24565b14611cb95786611c8f836001614e3b565b81548110611c9f57611c9f614bdb565b6000918252602090912001546001600160a01b0316611cbb565b855b905080878381548110611cd057611cd0614bdb565b600091825260209091200180546001600160a01b0319166001600160a01b03929092169190911790555080611d0481614c8a565b915050611c62565b50611d15614050565b6001600160a01b031663b95a33ab8883866001600160a01b031663e16695b56040518163ffffffff1660e01b815260040160206040518083038186803b158015611d5e57600080fd5b505afa158015611d72573d6000803e3d6000fd5b505050506040513d601f19601f82011682018060405250810190611d969190614b61565b876001600160a01b03166371613c2d6040518163ffffffff1660e01b815260040160206040518083038186803b158015611dcf57600080fd5b505afa158015611de3573d6000803e3d6000fd5b505050506040513d601f19601f82011682018060405250810190611e079190614b61565b6040516001600160e01b031960e087901b1681526004810194909452602484019290925260448301526064820152608401600060405180830381600087803b158015611e5257600080fd5b505af1158015611e66573d6000803e3d6000fd5b5050505083611e736132cb565b600089815260029190910160209081526040808320868452909152902080546001600160a01b0319166001600160a01b0392909216919091179055611eb66132cb565b60008881526002919091016020908152604080832084845282529182902080546001600160a01b031916905581518981529081018390529081018390527f98cbd76ce00c88aafa668f8d8ee624506fdfd22fc473f74ea1b75addf544c2209060600160405180910390a1505060016000555050505050565b600060026000541415611f535760405162461bcd60e51b815260040161098a90614b7a565b6002600090815584908490611f666132cb565b6000848152600291909101602090815260408083208584529091529020546001600160a01b03161415611fab5760405162461bcd60e51b815260040161098a90614bb1565b611fb3613e26565b6001600160a01b03166396994e37343389346040518563ffffffff1660e01b8152600401611fe393929190614cf9565b6000604051808303818588803b158015611ffc57600080fd5b505af1158015612010573d6000803e3d6000fd5b5050505050610f89868633613c90565b60007f9acda75aebd150dd434541a4747a6dc606f4f1a59662477e67daf1fc0bf9e0aa6107f9565b606080606060006120576132cb565b6000888152600291909101602090815260408083208984529091529081902054905163d866d35560e01b8152600481018790526001600160a01b039091169150819063d866d35590602401610863565b604051639d3fc35d60e01b8152600481018390526001600160a01b03821660248201526000908190819073__$4a3525e110007f5a23e9853ccc5aa6ed76$__90639d3fc35d906044016118a7565b606060006121016132cb565b6000848152602091909152604090205467ffffffffffffffff81111561212957612129614a28565b604051908082528060200260200182016040528015612152578160200160208202803683370190505b50905060005b6121606132cb565b6000858152602091909152604090205481101561175d5760006121816132cb565b6000868152602091909152604090208054839081106121a2576121a2614bdb565b600091825260209182902001546040805163e16695b560e01b815290516001600160a01b039092169350839263e16695b592600480840193829003018186803b1580156121ee57600080fd5b505afa158015612202573d6000803e3d6000fd5b505050506040513d601f19601f820116820180604052508101906122269190614b61565b83838151811061223857612238614bdb565b6020908102919091010152508061224e81614c8a565b915050612158565b60008033612262612020565b6001600160a01b0316146122885760405162461bcd60e51b815260040161098a90614dc1565b612290614050565b6001600160a01b0316630cf7505d846040518263ffffffff1660e01b81526004016122bd91815260200190565b60206040518083038186803b1580156122d557600080fd5b505afa1580156122e9573d6000803e3d6000fd5b505050506040513d601f19601f8201168201806040525081019061230d9190614e53565b6123785760405162461bcd60e51b815260206004820152603660248201527f4c656e64696e67206d61726b6574206861736e2774206265656e20696e697469604482015275616c697a656420696e207468652063757272656e637960501b606482015260840161098a565b61238061405a565b6001600160a01b031663d4d4f6ce846040518263ffffffff1660e01b81526004016123ad91815260200190565b60206040518083038186803b1580156123c557600080fd5b505afa1580156123d9573d6000803e3d6000fd5b505050506040513d601f19601f820116820180604052508101906123fd9190614e53565b61243d5760405162461bcd60e51b81526020600482015260116024820152704e4f4e20535550504f525445442043435960781b604482015260640161098a565b60006124476132cb565b6000858152600391909101602052604081205491506124646132cb565b600086815260209190915260409020541115612549576124826132cb565b600085815260209190915260409020600161249b6132cb565b600087815260209190915260409020546124b59190614e24565b815481106124c5576124c5614bdb565b600091825260209182902001546040805163e16695b560e01b815290516001600160a01b039092169263e16695b592600480840193829003018186803b15801561250e57600080fd5b505afa158015612522573d6000803e3d6000fd5b505050506040513d601f19601f820116820180604052508101906125469190614b61565b90505b6000612556826003613f79565b9050612560614064565b6001600160a01b0316634672758f866125776132cb565b60008981526003919091016020526040908190205490516001600160e01b031960e085901b1681526004810192909252602482015260448101849052606401602060405180830381600087803b1580156125d057600080fd5b505af11580156125e4573d6000803e3d6000fd5b505050506040513d601f19601f820116820180604052508101906126089190614c57565b9350612612614064565b6001600160a01b031663a97c4b536040518163ffffffff1660e01b8152600401602060405180830381600087803b15801561264c57600080fd5b505af1158015612660573d6000803e3d6000fd5b505050506040513d601f19601f820116820180604052508101906126849190614c57565b925061268e6132cb565b600086815260209182526040812080546001810182559082529190200180546001600160a01b0319166001600160a01b038616179055836126cd6132cb565b600087815260029190910160209081526040808320858452909152902080546001600160a01b0319166001600160a01b0392909216919091179055826127116132cb565b6000878152600191909101602090815260408083206001600160a01b0389811680865291909352922080546001600160a01b0319169390911692909217909155857f5f1af77fb16a8d70e13dc1d6eef0f7b3f37103d1bfc348e1e57469c7186465438561277c6132cb565b60008a815260209190915260409081902054905161279d9291908790614cf9565b60405180910390a35050915091565b6000336127b7612020565b6001600160a01b0316146127dd5760405162461bcd60e51b815260040161098a90614dc1565b60005b6127e86132cb565b600084815260209190915260409020548110156128a15760006128096132cb565b60008581526020919091526040902080548390811061282a5761282a614bdb565b60009182526020822001546040805163280dce3760e21b815290516001600160a01b039092169350839263a03738dc9260048084019382900301818387803b15801561287557600080fd5b505af1158015612889573d6000803e3d6000fd5b5050505050808061289990614c8a565b9150506127e0565b50600192915050565b606060006128b66132cb565b6000848152602091909152604090205467ffffffffffffffff8111156128de576128de614a28565b604051908082528060200260200182016040528015612907578160200160208202803683370190505b50905060005b6129156132cb565b6000858152602091909152604090205481101561175d5760006129366132cb565b60008681526020919091526040902080548390811061295757612957614bdb565b60009182526020918290200154604080516371613c2d60e01b815290516001600160a01b03909216935083926371613c2d92600480840193829003018186803b1580156129a357600080fd5b505afa1580156129b7573d6000803e3d6000fd5b505050506040513d601f19601f820116820180604052508101906129db9190614b61565b8383815181106129ed576129ed614bdb565b60209081029190910101525080612a0381614c8a565b91505061290d565b6040805160018082528183019092526060916020808301908036833701905050905069151bdad95b95985d5b1d60b21b816000815181106111b9576111b9614bdb565b33612a57612020565b6001600160a01b031614612a7d5760405162461bcd60e51b815260040161098a90614dc1565b60008111612acd5760405162461bcd60e51b815260206004820152601760248201527f496e76616c696420636f6d706f756e6420666163746f72000000000000000000604482015260640161098a565b612ad683610e3d565b15612b195760405162461bcd60e51b8152602060048201526013602482015272105b1c9958591e481a5b9a5d1a585b1a5e9959606a1b604482015260640161098a565b612b21614050565b60405163dc9715c560e01b81526004810185905260126024820152604481018390526001600160a01b03919091169063dc9715c590606401600060405180830381600087803b158015612b7357600080fd5b505af1158015612b87573d6000803e3d6000fd5b5050505081612b946132cb565b60009485526003016020526040909320929092555050565b6000612bb66132cb565b6001600160a01b0383166000908152600491909101602052604090209050612bde818461406e565b612be757505050565b6000806000612bf5866120f5565b905060005b8151811015612cb1576000612c2988848481518110612c1b57612c1b614bdb565b602002602001015189613c90565b9050600080612c528a868681518110612c4457612c44614bdb565b60200260200101518b6132ef565b9092509050612c618288614e3b565b96508015612c9057612c8d8a868681518110612c7f57612c7f614bdb565b60200260200101518b613c90565b92505b8215612c9b57600195505b5050508080612ca990614c8a565b915050612bfa565b5082158015612cbe575081155b8015612d515750612ccd614050565b60405163386320d360e11b8152600481018890526001600160a01b03878116602483015291909116906370c641a69060440160206040518083038186803b158015612d1757600080fd5b505afa158015612d2b573d6000803e3d6000fd5b505050506040513d601f19601f82011682018060405250810190612d4f9190614b61565b155b15612d8657612d8486612d626132cb565b6001600160a01b03881660009081526004919091016020526040902090614086565b505b505050505050565b600033612d99612020565b6001600160a01b031614612dbf5760405162461bcd60e51b815260040161098a90614dc1565b60005b612dca6132cb565b600084815260209190915260409020548110156128a1576000612deb6132cb565b600085815260209190915260409020805483908110612e0c57612e0c614bdb565b600091825260208220015460408051630b0863e760e11b815290516001600160a01b0390921693508392631610c7ce9260048084019382900301818387803b158015612e5757600080fd5b505af1158015612e6b573d6000803e3d6000fd5b50505050508080612e7b90614c8a565b915050612dc2565b60606000612e8f6132cb565b6000848152602091909152604090205467ffffffffffffffff811115612eb757612eb7614a28565b604051908082528060200260200182016040528015612ee0578160200160208202803683370190505b50905060005b612eee6132cb565b6000858152602091909152604090205481101561175d576000612f0f6132cb565b600086815260209190915260409020805483908110612f3057612f30614bdb565b6000918252602091829020015460408051632f05aa6d60e11b815290516001600160a01b0390921693508392635e0b54da92600480840193829003018186803b158015612f7c57600080fd5b505afa158015612f90573d6000803e3d6000fd5b505050506040513d601f19601f82011682018060405250810190612fb49190614b61565b838381518110612fc657612fc6614bdb565b60209081029190910101525080612fdc81614c8a565b915050612ee6565b33612fed612020565b6001600160a01b0316146130135760405162461bcd60e51b815260040161098a90614dc1565b6001600160a01b0381166130785760405162461bcd60e51b815260206004820152602660248201527f4f776e61626c653a206e6577206f776e657220697320746865207a65726f206160448201526564647265737360d01b606482015260840161098a565b61308181613e5d565b50565b6000600260005414156130a95760405162461bcd60e51b815260040161098a90614b7a565b60026000908155869086906130bc6132cb565b6000848152600291909101602090815260408083208584529091529020546001600160a01b031614156131015760405162461bcd60e51b815260040161098a90614bb1565b6112b9888833613c90565b6000806131176132cb565b6001600160a01b03841660009081526004919091016020526040812091505b61313f82613f63565b8110156132965760006131528383613f6d565b6040516385f3396760e01b8152600481018290526001600160a01b038716602482015290915060009073__$4a3525e110007f5a23e9853ccc5aa6ed76$__906385f339679060440160206040518083038186803b1580156131b257600080fd5b505af41580156131c6573d6000803e3d6000fd5b505050506040513d601f19601f820116820180604052508101906131ea9190614b61565b90506131f461405a565b6040516303a0a22f60e41b815260048101849052602481018390526001600160a01b039190911690633a0a22f09060440160206040518083038186803b15801561323d57600080fd5b505afa158015613251573d6000803e3d6000fd5b505050506040513d601f19601f820116820180604052508101906132759190614b61565b61327f9086614e75565b94505050808061328e90614c8a565b915050613136565b5050919050565b606061095f6132aa6132cb565b6001600160a01b038416600090815260049190910160205260409020614092565b7f8041b8421ebd495cc61f38c788c9eb100daccf9bd36aa0bb920b7a15b2e0496590565b60008060006132fe8686611904565b905060008060008060008060006133136132cb565b60008e8152600291909101602090815260408083208f845290915290819020549051630516d8c960e11b81526001600160a01b038d8116600483015290911690630a2db1929060240160e060405180830381600087803b15801561337657600080fd5b505af115801561338a573d6000803e3d6000fd5b505050506040513d601f19601f820116820180604052508101906133ae9190614ca5565b96509650965096509650965096508183111561343b576133cc613e26565b6001600160a01b0316631189abda8c8f6133e68688614e24565b6040518463ffffffff1660e01b815260040161340493929190614cf9565b600060405180830381600087803b15801561341e57600080fd5b505af1158015613432573d6000803e3d6000fd5b505050506134b6565b818310156134b65761344b613e26565b6001600160a01b031663aec9455c8c8f6134658787614e24565b6040518463ffffffff1660e01b815260040161348393929190614cf9565b600060405180830381600087803b15801561349d57600080fd5b505af11580156134b1573d6000803e3d6000fd5b505050505b841561358657604051630424172f60e11b81526001600160a01b038916906308482e5e906134ec908e9089908690600401614cf9565b602060405180830381600087803b15801561350657600080fd5b505af115801561351a573d6000803e3d6000fd5b505050506040513d601f19601f8201168201806040525081019061353e9190614e53565b50808d8c6001600160a01b03167f3dd6192fffa4612e795f196dc6367cfa6494cbe70d7cff3a039ebbbc4acb262e60008960405161357d929190614eb6565b60405180910390a45b83156136565760405163a46971ad60e01b81526001600160a01b0389169063a46971ad906135bc908e9088908690600401614cf9565b602060405180830381600087803b1580156135d657600080fd5b505af11580156135ea573d6000803e3d6000fd5b505050506040513d601f19601f8201168201806040525081019061360e9190614e53565b50808d8c6001600160a01b03167f3dd6192fffa4612e795f196dc6367cfa6494cbe70d7cff3a039ebbbc4acb262e60018860405161364d929190614eb6565b60405180910390a45b60006136628587614e3b565b11985061366f8688614e3b565b99505050505050505050935093915050565b60008084116136c35760405162461bcd60e51b815260206004820152600e60248201526d125b9d985b1a5908185b5bdd5b9d60921b604482015260640161098a565b6136cb613e26565b6001600160a01b03166328ff7a42878a87896040518563ffffffff1660e01b81526004016136fc9493929190614ed1565b60206040518083038186803b15801561371457600080fd5b505afa158015613728573d6000803e3d6000fd5b505050506040513d601f19601f8201168201806040525081019061374c9190614e53565b6137905760405162461bcd60e51b8152602060048201526015602482015274139bdd08195b9bdd59da0818dbdb1b185d195c985b605a1b604482015260640161098a565b600061379d8989896132ef565b5090506000806137ab6132cb565b60008c8152600291909101602090815260408083208d845290915290819020549051633352870560e21b81526001600160a01b039091169063cd4a1c14906137ff908b908d908c908c908c90600401614f05565b6040805180830381600087803b15801561381857600080fd5b505af115801561382c573d6000803e3d6000fd5b505050506040513d601f19601f820116820180604052508101906138509190614f41565b9150915081600014806138635750600081115b1561387657613873600184614e3b565b92505b60058311156138c05760405162461bcd60e51b8152602060048201526016602482015275546f6f206d616e7920616374697665206f726465727360501b604482015260640161098a565b811580156138cc575084155b1561395057898b8a6001600160a01b03167f3a665a917b140525f0275d43b0b2584ef6a9de932462558cd901a657b61126408b8b8b60405161391093929190614f65565b60405180910390a46001935061394a8b6139286132cb565b6001600160a01b038c166000908152600491909101602052604090209061409d565b50613c82565b8115613c825760006139606132cb565b60008d8152600191909101602052604081209061397b6132cb565b60020160008f815260200190815260200160002060008e815260200190815260200160002060009054906101000a90046001600160a01b03166001600160a01b03166001600160a01b0316815260200190815260200160002060009054906101000a90046001600160a01b031690506001808111156139fc576139fc614d51565b896001811115613a0e57613a0e614d51565b1415613b0e57613a1c613e26565b6001600160a01b031663aec9455c8b8e613a36868d614e24565b6040518463ffffffff1660e01b8152600401613a5493929190614cf9565b600060405180830381600087803b158015613a6e57600080fd5b505af1158015613a82573d6000803e3d6000fd5b50505050806001600160a01b031663a46971ad8b858e6040518463ffffffff1660e01b8152600401613ab693929190614cf9565b602060405180830381600087803b158015613ad057600080fd5b505af1158015613ae4573d6000803e3d6000fd5b505050506040513d601f19601f82011682018060405250810190613b089190614e53565b50613c04565b613b16613e26565b6001600160a01b0316631189abda8b8e613b30868d614e24565b6040518463ffffffff1660e01b8152600401613b4e93929190614cf9565b600060405180830381600087803b158015613b6857600080fd5b505af1158015613b7c573d6000803e3d6000fd5b50505050806001600160a01b03166308482e5e8b858e6040518463ffffffff1660e01b8152600401613bb093929190614cf9565b602060405180830381600087803b158015613bca57600080fd5b505af1158015613bde573d6000803e3d6000fd5b505050506040513d601f19601f82011682018060405250810190613c029190614e53565b505b8a8c8b6001600160a01b03167f5af4e2baa5d844d0439bc0122be7cf9d47b6680937eaabce58bd1ca2f16486ae8c8c8c89604051613c459493929190614f84565b60405180910390a460009450613c7f8c613c5d6132cb565b6001600160a01b038d166000908152600491909101602052604090209061409d565b50505b505050979650505050505050565b600080613c9b6132cb565b60008681526001919091016020526040812090613cb66132cb565b6000888152600291909101602090815260408083208984528252808320546001600160a01b03908116855291840194909452918301812054925163ae100e6d60e01b81528683166004820152602481018890529290911692509081908190849063ae100e6d90604401606060405180830381600087803b158015613d3957600080fd5b505af1158015613d4d573d6000803e3d6000fd5b505050506040513d601f19601f82011682018060405250810190613d719190614df6565b92509250925082600014613e1b57613d87614050565b604051634ab34b2b60e11b8152600481018a90526001600160a01b03888116602483015260448201849052606482018690529190911690639566965690608401602060405180830381600087803b158015613de157600080fd5b505af1158015613df5573d6000803e3d6000fd5b505050506040513d601f19601f82011682018060405250810190613e199190614e53565b505b509695505050505050565b6000613e306140a9565b905090565b60007f360894a13ba1a3210667c828492db98dca3e2076cc3735a920a3ca505d382bbc6107f9565b7f9acda75aebd150dd434541a4747a6dc606f4f1a59662477e67daf1fc0bf9e0aa80546001600160a01b038381166001600160a01b0319831681179093556040519116919082907f8be0079c531659141344cd1fd0a4f28419497f9722a3daafe3b4186f6b6457e090600090a35050565b600080516020615126833981519152546001600160a01b031615613f345760405162461bcd60e51b815260206004820152601b60248201527f7265736f6c766572207265676973746572656420616c72656164790000000000604482015260640161098a565b60008051602061512683398151915280546001600160a01b0319166001600160a01b0392909216919091179055565b600061095f825490565b600061095c83836140c1565b6000808080613f93613f8e6201518088614fc3565b6140eb565b91945092509050613fa48583614e3b565b9150600c613fb3600184614e24565b613fbd9190614fc3565b613fc79084614e3b565b9250600c613fd6600184614e24565b613fe09190614fd7565b613feb906001614e3b565b91506000613ff9848461425f565b905080821115614007578091505b6140146201518088614fd7565b620151806140238686866142e5565b61402d9190614feb565b6140379190614e3b565b94508685101561404657600080fd5b5050505092915050565b6000613e30614422565b6000613e30614441565b6000613e30614461565b6000818152600183016020526040812054151561095c565b600061095c8383614484565b606061095f82614577565b600061095c83836145d2565b6000613e3069151bdad95b95985d5b1d60b21b614621565b60008260000182815481106140d8576140d8614bdb565b9060005260206000200154905092915050565b60008080838162253d8c6141028362010bd9614e75565b61410c9190614e75565b9050600062023ab161411f83600461500a565b614129919061508f565b9050600461413a8262023ab161500a565b614145906003614e75565b61414f919061508f565b61415990836150bd565b9150600062164b0961416c846001614e75565b61417890610fa061500a565b614182919061508f565b90506004614192826105b561500a565b61419c919061508f565b6141a690846150bd565b6141b190601f614e75565b9250600061098f6141c385605061500a565b6141cd919061508f565b9050600060506141df8361098f61500a565b6141e9919061508f565b6141f390866150bd565b9050614200600b8361508f565b945061420d85600c61500a565b614218836002614e75565b61422291906150bd565b915084836142316031876150bd565b61423c90606461500a565b6142469190614e75565b6142509190614e75565b9a919950975095505050505050565b600081600114806142705750816003145b8061427b5750816005145b806142865750816007145b806142915750816008145b8061429c575081600a145b806142a7575081600c145b156142b45750601f61095f565b816002146142c45750601e61095f565b6142cd836146b2565b6142d857601c6142db565b601d5b60ff169392505050565b60006107b28410156142f657600080fd5b838383600062253d8c60046064600c614310600e886150bd565b61431a919061508f565b61432688611324614e75565b6143309190614e75565b61433a919061508f565b61434590600361500a565b61434f919061508f565b600c8061435d600e886150bd565b614367919061508f565b61437290600c61500a565b61437d6002886150bd565b61438791906150bd565b6143939061016f61500a565b61439d919061508f565b6004600c6143ac600e896150bd565b6143b6919061508f565b6143c2896112c0614e75565b6143cc9190614e75565b6143d8906105b561500a565b6143e2919061508f565b6143ee617d4b876150bd565b6143f89190614e75565b6144029190614e75565b61440c91906150bd565b61441691906150bd565b98975050505050505050565b6000613e307011d95b995cda5cd5985b1d5955985d5b1d607a1b614621565b6000613e307121bab93932b731bca1b7b73a3937b63632b960711b614621565b6000613e30742132b0b1b7b7283937bc3ca1b7b73a3937b63632b960591b614621565b6000818152600183016020526040812054801561456d5760006144a8600183614e24565b85549091506000906144bc90600190614e24565b90508181146145215760008660000182815481106144dc576144dc614bdb565b90600052602060002001549050808760000184815481106144ff576144ff614bdb565b6000918252602080832090910192909255918252600188019052604090208390555b8554869080614532576145326150fc565b60019003818190600052602060002001600090559055856001016000868152602001908152602001600020600090556001935050505061095f565b600091505061095f565b60608160000180548060200260200160405190810160405280929190818152602001828054801561101757602002820191906000526020600020905b8154815260200190600101908083116145b35750505050509050919050565b60008181526001830160205260408120546146195750815460018181018455600084815260208082209093018490558454848252828601909352604090209190915561095f565b50600061095f565b60008181527f4abde63c3e81aefa5764b017968bc473e83e093d7e1a10247d19e0a3e41240196020908152604080832054815170026b4b9b9b4b7339030b2323932b9b99d1607d1b9381019390935260318084018690528251808503909101815260519093019091526001600160a01b0316908161175d5760405162461bcd60e51b815260040161098a9190615112565b60006146bf600483614fd7565b1580156146d557506146d2606483614fd7565b15155b8061095f57506146e761019083614fd7565b1592915050565b60008060006060848603121561470357600080fd5b505081359360208301359350604090920135919050565b600081518084526020808501945080840160005b8381101561474a5781518752958201959082019060010161472e565b509495945050505050565b606081526000614768606083018661471a565b828103602084015261477a818661471a565b9050828103604084015261478e818561471a565b9695505050505050565b6001600160a01b038116811461308157600080fd5b600080604083850312156147c057600080fd5b8235915060208301356147d281614798565b809150509250929050565b600080600080600060a086880312156147f557600080fd5b853594506020860135935060408601359250606086013561481581614798565b9150608086013562ffffff8116811461482d57600080fd5b809150509295509295909350565b60006020828403121561484d57600080fd5b5035919050565b60008060006060848603121561486957600080fd5b8335925060208401359150604084013561488281614798565b809150509250925092565b6020808252825182820181905260009190848201906040850190845b818110156148ce5783516001600160a01b0316835292840192918401916001016148a9565b50909695505050505050565b6000602082840312156148ec57600080fd5b81356148f781614798565b9392505050565b6020808252825182820181905260009190848201906040850190845b818110156148ce5783518352928401929184019160010161491a565b6002811061308157600080fd5b600080600080600060a0868803121561495b57600080fd5b8535945060208601359350604086013561497481614936565b94979396509394606081013594506080013592915050565b6000806040838503121561499f57600080fd5b82356149aa81614798565b915060208301356147d281614798565b6000806000606084860312156149cf57600080fd5b8335925060208401359150604084013565ffffffffffff8116811461488257600080fd5b60208152600061095c602083018461471a565b60008060408385031215614a1957600080fd5b50508035926020909101359150565b634e487b7160e01b600052604160045260246000fd5b600082601f830112614a4f57600080fd5b8151602067ffffffffffffffff80831115614a6c57614a6c614a28565b8260051b604051601f19603f83011681018181108482111715614a9157614a91614a28565b604052938452858101830193838101925087851115614aaf57600080fd5b83870191505b84821015614ace57815183529183019190830190614ab5565b979650505050505050565b600080600060608486031215614aee57600080fd5b835167ffffffffffffffff80821115614b0657600080fd5b614b1287838801614a3e565b94506020860151915080821115614b2857600080fd5b614b3487838801614a3e565b93506040860151915080821115614b4a57600080fd5b50614b5786828701614a3e565b9150509250925092565b600060208284031215614b7357600080fd5b5051919050565b6020808252601f908201527f5265656e7472616e637947756172643a207265656e7472616e742063616c6c00604082015260600190565b60208082526010908201526f496e76616c6964206d6174757269747960801b604082015260600190565b634e487b7160e01b600052603260045260246000fd5b6000815180845260005b81811015614c1757602081850181015186830182015201614bfb565b81811115614c29576000602083870101525b50601f01601f19169290920160200192915050565b828152604060208201526000610ef96040830184614bf1565b600060208284031215614c6957600080fd5b81516148f781614798565b634e487b7160e01b600052601160045260246000fd5b6000600019821415614c9e57614c9e614c74565b5060010190565b600080600080600080600060e0888a031215614cc057600080fd5b5050855160208701516040880151606089015160808a015160a08b015160c0909b0151949c939b50919990985090965094509092509050565b6001600160a01b039390931683526020830191909152604082015260600190565b600080600060608486031215614d2f57600080fd5b8351614d3a81614936565b602085015160409095015190969495509392505050565b634e487b7160e01b600052602160045260246000fd5b60028110614d8557634e487b7160e01b600052602160045260246000fd5b9052565b65ffffffffffff8616815260a08101614da56020830187614d67565b8460408301528360608301528260808301529695505050505050565b6020808252818101527f4f776e61626c653a2063616c6c6572206973206e6f7420746865206f776e6572604082015260600190565b600080600060608486031215614e0b57600080fd5b8351925060208401519150604084015190509250925092565b600082821015614e3657614e36614c74565b500390565b60008219821115614e4e57614e4e614c74565b500190565b600060208284031215614e6557600080fd5b815180151581146148f757600080fd5b600080821280156001600160ff1b0384900385131615614e9757614e97614c74565b600160ff1b8390038412811615614eb057614eb0614c74565b50500190565b60408101614ec48285614d67565b8260208301529392505050565b6001600160a01b0385168152602081018490526040810183905260808101614efc6060830184614d67565b95945050505050565b60a08101614f138288614d67565b6001600160a01b03959095166020820152604081019390935260608301919091521515608090910152919050565b60008060408385031215614f5457600080fd5b505080516020909101519092909150565b60608101614f738286614d67565b602082019390935260400152919050565b60808101614f928287614d67565b84602083015283604083015282606083015295945050505050565b634e487b7160e01b600052601260045260246000fd5b600082614fd257614fd2614fad565b500490565b600082614fe657614fe6614fad565b500690565b600081600019048311821515161561500557615005614c74565b500290565b60006001600160ff1b038184138284138082168684048611161561503057615030614c74565b600160ff1b600087128281168783058912161561504f5761504f614c74565b6000871292508782058712848416161561506b5761506b614c74565b8785058712818416161561508157615081614c74565b505050929093029392505050565b60008261509e5761509e614fad565b600160ff1b8214600019841416156150b8576150b8614c74565b500590565b60008083128015600160ff1b8501841216156150db576150db614c74565b6001600160ff1b03840183138116156150f6576150f6614c74565b50500390565b634e487b7160e01b600052603160045260246000fd5b60208152600061095c6020830184614bf156fe4abde63c3e81aefa5764b017968bc473e83e093d7e1a10247d19e0a3e4124018a2646970667358221220692b89ac88f0b7672d5aaf3cbc49a3229e86b9977ff8cd0cd02f11b5100b1a9264736f6c63430008090033",
  "libraries": {
    "FundCalculationLogic": "0xeBc1C80450A219909f543ee350c67BfDdAb728d6"
  },
  "implementation": "0xEc37CA6E580b3d329d27Fb9E1C58deA8848d1aa6",
  "devdoc": {
    "kind": "dev",
    "methods": {
      "acceptedContracts()": {
        "details": "The contact name listed in this method is also needed to be listed `requiredContracts` method."
      },
      "calculateBorrowedFundsFromOrders(bytes32,address)": {
        "params": {
          "_ccy": "Currency name in bytes32",
          "_user": "User's address"
        },
        "returns": {
          "borrowedAmount": "The borrowed amount due to the borrow orders being filled on the order book",
          "debtAmount": "The debt amount due to the borrow orders being filled on the order book",
          "workingOrdersAmount": "The working orders amount on the order book"
        }
      },
      "calculateFunds(bytes32,address)": {
        "params": {
          "_ccy": "Currency name in bytes32",
          "_user": "User's address"
        },
        "returns": {
          "borrowedAmount": "The borrowed amount due to the borrow orders being filled on the order book",
          "claimableAmount": "The claimable amount due to the lending orders being filled on the order book",
          "collateralAmount": "The actual collateral amount that is calculated by netting using the haircut.",
          "debtAmount": "The debt amount due to the borrow orders being filled on the order book",
          "lentAmount": "The lent amount due to the lend orders being filled on the order book",
          "workingBorrowOrdersAmount": "The working orders amount on the borrow order book",
          "workingLendOrdersAmount": "The working orders amount on the lend order book"
        }
      },
      "calculateLentFundsFromOrders(bytes32,address)": {
        "params": {
          "_ccy": "Currency name in bytes32",
          "_user": "User's address"
        },
        "returns": {
          "claimableAmount": "The claimable amount due to the lending orders being filled on the order book",
          "lentAmount": "The lent amount due to the lend orders being filled on the order book",
          "workingOrdersAmount": "The working orders amount on the order book"
        }
      },
      "calculateTotalFundsInETH(address)": {
        "params": {
          "_user": "User's address"
        }
      },
      "cancelOrder(bytes32,uint256,uint48)": {
        "params": {
          "_ccy": "Currency name in bytes32 of the selected market",
          "_maturity": "The maturity of the selected market",
          "_orderId": "Market order id"
        }
      },
      "cleanAllOrders(address)": {
        "params": {
          "_user": "User's address"
        }
      },
      "cleanOrders(bytes32,address)": {
        "params": {
          "_ccy": "Currency name in bytes32",
          "_user": "User's address"
        }
      },
      "createLendOrderWithETH(bytes32,uint256,uint256)": {
        "params": {
          "_ccy": "Currency name in bytes32 of the selected market",
          "_maturity": "The maturity of the selected market",
          "_unitPrice": "Amount of unit price taker wish to borrow/lend"
        },
        "returns": {
          "_0": "True if the execution of the operation succeeds"
        }
      },
      "createLendingMarket(bytes32)": {
        "params": {
          "_ccy": "Main currency for new lending market"
        },
        "returns": {
          "market": "The proxy contract address of created lending market"
        }
      },
      "createOrder(bytes32,uint256,uint8,uint256,uint256)": {
        "params": {
          "_amount": "Amount of funds the maker wants to borrow/lend",
          "_ccy": "Currency name in bytes32 of the selected market",
          "_maturity": "The maturity of the selected market",
          "_side": "Order position type, Borrow or Lend",
          "_unitPrice": "Amount of unit price taker wish to borrow/lend"
        },
        "returns": {
          "_0": "True if the execution of the operation succeeds"
        }
      },
      "depositAndCreateLendOrderWithETH(bytes32,uint256,uint256)": {
        "params": {
          "_ccy": "Currency name in bytes32 of the selected market",
          "_maturity": "The maturity of the selected market",
          "_unitPrice": "Amount of unit price taker wish to borrow/lend"
        },
        "returns": {
          "_0": "True if the execution of the operation succeeds"
        }
      },
      "depositAndCreateOrder(bytes32,uint256,uint8,uint256,uint256)": {
        "params": {
          "_amount": "Amount of funds the maker wants to borrow/lend",
          "_ccy": "Currency name in bytes32 of the selected market",
          "_maturity": "The maturity of the selected market",
          "_side": "Order position type, Borrow or Lend",
          "_unitPrice": "Amount of unit price taker wish to borrow/lend"
        },
        "returns": {
          "_0": "True if the execution of the operation succeeds"
        }
      },
      "executeLiquidationCall(bytes32,bytes32,uint256,address,uint24)": {
        "params": {
          "_collateralCcy": "Currency name to be used as collateral.",
          "_debtCcy": "Currency name to be used as debt.",
          "_debtMaturity": "The market maturity of the debt",
          "_poolFee": "Uniswap pool fee",
          "_user": "User's address"
        },
        "returns": {
          "_0": "True if the execution of the operation succeeds"
        }
      },
      "getBorrowOrderBook(bytes32,uint256,uint256)": {
        "params": {
          "_ccy": "Currency name in bytes32",
          "_limit": "The limit number to get",
          "_maturity": "The maturity of the market"
        },
        "returns": {
          "amounts": "The array of borrow order amounts",
          "quantities": "The array of borrow order quantities",
          "unitPrices": "The array of borrow unit prices"
        }
      },
      "getBorrowUnitPrices(bytes32)": {
        "params": {
          "_ccy": "Currency name in bytes32"
        },
        "returns": {
          "_0": "Array with the borrowing prices per future value of the lending market"
        }
      },
      "getFutureValueVault(bytes32,uint256)": {
        "params": {
          "_ccy": "Currency name in bytes32",
          "_maturity": "The maturity of the market"
        },
        "returns": {
          "_0": "The lending market address"
        }
      },
      "getGenesisDate(bytes32)": {
        "params": {
          "_ccy": "Currency name in bytes32"
        },
        "returns": {
          "_0": "The genesis date"
        }
      },
      "getLendOrderBook(bytes32,uint256,uint256)": {
        "params": {
          "_ccy": "Currency name in bytes32",
          "_limit": "The limit number to get",
          "_maturity": "The maturity of the market"
        },
        "returns": {
          "amounts": "The array of lend order amounts",
          "quantities": "The array of lend order quantities",
          "unitPrices": "The array of borrow unit prices"
        }
      },
      "getLendUnitPrices(bytes32)": {
        "params": {
          "_ccy": "Currency name in bytes32"
        },
        "returns": {
          "_0": "Array with the lending prices per future value of the lending market"
        }
      },
      "getLendingMarket(bytes32,uint256)": {
        "params": {
          "_ccy": "Currency name in bytes32",
          "_maturity": "The maturity of the market"
        },
        "returns": {
          "_0": "The lending market address"
        }
      },
      "getLendingMarkets(bytes32)": {
        "params": {
          "_ccy": "Currency name in bytes32"
        },
        "returns": {
          "_0": "Array with the lending market address"
        }
      },
      "getMaturities(bytes32)": {
        "params": {
          "_ccy": "Currency name in bytes32"
        },
        "returns": {
          "_0": "Array with the lending market maturity"
        }
      },
      "getMidUnitPrices(bytes32)": {
        "params": {
          "_ccy": "Currency name in bytes32"
        },
        "returns": {
          "_0": "Array with the mid prices per future value of the lending market"
        }
      },
      "getPresentValue(bytes32,uint256,address)": {
        "params": {
          "_ccy": "Currency name in bytes32 for Lending Market",
          "_maturity": "The maturity of the market",
          "_user": "User's address"
        },
        "returns": {
          "presentValue": "The present value"
        }
      },
      "getTotalPresentValue(bytes32,address)": {
        "params": {
          "_ccy": "Currency name in bytes32 for Lending Market",
          "_user": "User's address"
        },
        "returns": {
          "totalPresentValue": "The total present value"
        }
      },
      "getTotalPresentValueInETH(address)": {
        "params": {
          "_user": "User's address"
        },
        "returns": {
          "totalPresentValue": "The total present value in ETH"
        }
      },
      "getUsedCurrencies(address)": {
        "params": {
          "_user": "User's address"
        },
        "returns": {
          "_0": "The array of the currency"
        }
      },
      "initialize(address,address)": {
        "details": "Function is invoked by the proxy contract when the contract is added to the ProxyController.",
        "params": {
          "_owner": "The address of the contract owner",
          "_resolver": "The address of the Address Resolver contract"
        }
      },
      "initializeLendingMarket(bytes32,uint256,uint256)": {
        "params": {
          "_ccy": "Currency name in bytes32",
          "_compoundFactor": "The initial compound factor when the initial market is opened",
          "_genesisDate": "The genesis date when the initial market is opened"
        }
      },
      "isInitializedLendingMarket(bytes32)": {
        "params": {
          "_ccy": "Currency name in bytes32"
        },
        "returns": {
          "_0": "The boolean if the lending market is initialized or not"
        }
      },
      "owner()": {
        "details": "Returns the address of the current owner."
      },
      "pauseLendingMarkets(bytes32)": {
        "params": {
          "_ccy": "Currency for pausing all lending markets"
        },
        "returns": {
          "_0": "True if the execution of the operation succeeds"
        }
      },
      "renounceOwnership()": {
        "details": "Leaves the contract without owner. It will not be possible to call `onlyOwner` functions anymore. Can only be called by the current owner. NOTE: Renouncing ownership will leave the contract without an owner, thereby removing any functionality that is only available to the owner."
      },
      "requiredContracts()": {
        "details": "The contract name list is in `./libraries/Contracts.sol`."
      },
      "rotateLendingMarkets(bytes32)": {
        "params": {
          "_ccy": "Currency name in bytes32 of the selected market"
        }
      },
      "transferOwnership(address)": {
        "details": "Transfers ownership of the contract to a new account (`newOwner`). Can only be called by the current owner."
      },
      "unpauseLendingMarkets(bytes32)": {
        "params": {
          "_ccy": "Currency name in bytes32"
        },
        "returns": {
          "_0": "True if the execution of the operation succeeds"
        }
      }
    },
    "version": 1
  },
  "userdoc": {
    "kind": "user",
    "methods": {
      "acceptedContracts()": {
        "notice": "Returns contract names that can call this contract."
      },
      "calculateBorrowedFundsFromOrders(bytes32,address)": {
        "notice": "Gets the funds that are calculated from the user's borrowing order list for the selected currency."
      },
      "calculateFunds(bytes32,address)": {
        "notice": "Gets the funds that are calculated from the user's lending and borrowing order list for the selected currency."
      },
      "calculateLentFundsFromOrders(bytes32,address)": {
        "notice": "Gets the funds that are calculated from the user's lending order list for the selected currency."
      },
      "calculateTotalFundsInETH(address)": {
        "notice": "Gets the funds that are calculated from the user's lending and borrowing order list for all currencies in ETH."
      },
      "cancelOrder(bytes32,uint256,uint48)": {
        "notice": "Cancels the own order."
      },
      "cleanAllOrders(address)": {
        "notice": "Cleans user's all orders to remove order ids that are already filled on the order book."
      },
      "cleanOrders(bytes32,address)": {
        "notice": "Cleans user's orders to remove order ids that are already filled on the order book for a selected currency."
      },
      "createLendOrderWithETH(bytes32,uint256,uint256)": {
        "notice": "Creates a lend order with ETH. Takes the order if the order is matched, and places new order if not match it."
      },
      "createLendingMarket(bytes32)": {
        "notice": "Deploys new Lending Market and save address at lendingMarkets mapping.Reverts on deployment market with existing currency and term"
      },
      "createOrder(bytes32,uint256,uint8,uint256,uint256)": {
        "notice": "Creates an order. Takes orders if the orders are matched, and places new order if not match it. In addition, converts the future value to the genesis value if there is future value in past maturity before the execution of order creation."
      },
      "depositAndCreateLendOrderWithETH(bytes32,uint256,uint256)": {
        "notice": "Deposits funds and creates a lend order with ETH at the same time."
      },
      "depositAndCreateOrder(bytes32,uint256,uint8,uint256,uint256)": {
        "notice": "Deposits funds and creates an order at the same time."
      },
      "executeLiquidationCall(bytes32,bytes32,uint256,address,uint24)": {
        "notice": "Liquidates a lending position if the user's coverage is less than 1."
      },
      "getBorrowOrderBook(bytes32,uint256,uint256)": {
        "notice": "Gets the order book of borrow."
      },
      "getBorrowUnitPrices(bytes32)": {
        "notice": "Gets borrow prices per future value for the selected currency."
      },
      "getFutureValueVault(bytes32,uint256)": {
        "notice": "Gets the feture value contract address for the selected currency and maturity."
      },
      "getGenesisDate(bytes32)": {
        "notice": "Gets the genesis date when the first market opens for the selected currency."
      },
      "getLendOrderBook(bytes32,uint256,uint256)": {
        "notice": "Gets the order book of lend."
      },
      "getLendUnitPrices(bytes32)": {
        "notice": "Gets lend prices per future value for the selected currency."
      },
      "getLendingMarket(bytes32,uint256)": {
        "notice": "Gets the lending market contract address for the selected currency and maturity."
      },
      "getLendingMarkets(bytes32)": {
        "notice": "Gets the lending market contract addresses for the selected currency."
      },
      "getMaturities(bytes32)": {
        "notice": "Gets maturities for the selected currency."
      },
      "getMidUnitPrices(bytes32)": {
        "notice": "Gets mid prices per future value for the selected currency."
      },
      "getPresentValue(bytes32,uint256,address)": {
        "notice": "Gets the present value of the account for selected currency and maturity."
      },
      "getTotalPresentValue(bytes32,address)": {
        "notice": "Gets the total present value of the account for selected currency."
      },
      "getTotalPresentValueInETH(address)": {
        "notice": "Gets the total present value of the account converted to ETH."
      },
      "getUsedCurrencies(address)": {
        "notice": "Get all the currencies in which the user has lending positions or orders."
      },
      "initialize(address,address)": {
        "notice": "Initializes the contract."
      },
      "initializeLendingMarket(bytes32,uint256,uint256)": {
        "notice": "Initialize the lending market to set a genesis date and compound factor"
      },
      "isInitializedLendingMarket(bytes32)": {
        "notice": "Gets if the lending market is initialized."
      },
      "pauseLendingMarkets(bytes32)": {
        "notice": "Pauses previously deployed lending market by currency"
      },
      "requiredContracts()": {
        "notice": "Returns the contract names used in this contract."
      },
      "rotateLendingMarkets(bytes32)": {
        "notice": "Rotate the lending markets. In this rotation, the following actions are happened. - Updates the maturity at the beginning of the market array. - Moves the beginning of the market array to the end of it. - Update the compound factor in this contract using the next market unit price."
      },
      "unpauseLendingMarkets(bytes32)": {
        "notice": "Unpauses previously deployed lending market by currency"
      }
    },
    "notice": "Implements the module to manage separated lending order-book markets per maturity. This contract also works as a factory contract that can deploy(start)a new lending market for selected currency and maturity and has the calculation logic for the Genesis value in addition. Deployed Lending Markets are rotated and reused as it reaches the maturity date. At the time of rotation, a new maturity date is set and the compound factor is updated. The users mainly call this contract to create orders to lend or borrow funds.",
    "version": 1
  },
  "storageLayout": {
    "storage": [
      {
        "astId": 1053,
        "contract": "contracts/LendingMarketController.sol:LendingMarketController",
        "label": "_status",
        "offset": 0,
        "slot": "0",
        "type": "t_uint256"
      },
      {
        "astId": 790,
        "contract": "contracts/LendingMarketController.sol:LendingMarketController",
        "label": "_initialized",
        "offset": 0,
        "slot": "1",
        "type": "t_uint8"
      },
      {
        "astId": 793,
        "contract": "contracts/LendingMarketController.sol:LendingMarketController",
        "label": "_initializing",
        "offset": 1,
        "slot": "1",
        "type": "t_bool"
      }
    ],
    "types": {
      "t_bool": {
        "encoding": "inplace",
        "label": "bool",
        "numberOfBytes": "1"
      },
      "t_uint256": {
        "encoding": "inplace",
        "label": "uint256",
        "numberOfBytes": "32"
      },
      "t_uint8": {
        "encoding": "inplace",
        "label": "uint8",
        "numberOfBytes": "1"
      }
    }
  }
}