{
  "address": "0xafC87924634C3ab87F4FBA69995ae58a4F6D1Aea",
  "abi": [
    {
      "anonymous": false,
      "inputs": [
        {
          "indexed": false,
          "internalType": "bytes32",
          "name": "name",
          "type": "bytes32"
        },
        {
          "indexed": false,
          "internalType": "address",
          "name": "destination",
          "type": "address"
        }
      ],
      "name": "CacheUpdated",
      "type": "event"
    },
    {
      "anonymous": false,
      "inputs": [
        {
          "indexed": false,
          "internalType": "uint256",
          "name": "orderId",
          "type": "uint256"
        },
        {
          "indexed": true,
          "internalType": "address",
          "name": "maker",
          "type": "address"
        },
        {
          "indexed": false,
          "internalType": "enum ProtocolTypes.Side",
          "name": "side",
          "type": "uint8"
        },
        {
          "indexed": false,
          "internalType": "uint256",
          "name": "amount",
          "type": "uint256"
        },
        {
          "indexed": false,
          "internalType": "uint256",
          "name": "rate",
          "type": "uint256"
        }
      ],
      "name": "CancelOrder",
      "type": "event"
    },
    {
      "anonymous": false,
      "inputs": [
        {
          "indexed": false,
          "internalType": "uint8",
          "name": "version",
          "type": "uint8"
        }
      ],
      "name": "Initialized",
      "type": "event"
    },
    {
      "anonymous": false,
      "inputs": [
        {
          "indexed": false,
          "internalType": "uint256",
          "name": "orderId",
          "type": "uint256"
        },
        {
          "indexed": true,
          "internalType": "address",
          "name": "maker",
          "type": "address"
        },
        {
          "indexed": false,
          "internalType": "enum ProtocolTypes.Side",
          "name": "side",
          "type": "uint8"
        },
        {
          "indexed": false,
          "internalType": "bytes32",
          "name": "ccy",
          "type": "bytes32"
        },
        {
          "indexed": false,
          "internalType": "uint256",
          "name": "maturity",
          "type": "uint256"
        },
        {
          "indexed": false,
          "internalType": "uint256",
          "name": "amount",
          "type": "uint256"
        },
        {
          "indexed": false,
          "internalType": "uint256",
          "name": "rate",
          "type": "uint256"
        }
      ],
      "name": "MakeOrder",
      "type": "event"
    },
    {
      "anonymous": false,
      "inputs": [
        {
          "indexed": false,
          "internalType": "uint256",
          "name": "maturity",
          "type": "uint256"
        },
        {
          "indexed": false,
          "internalType": "uint256",
          "name": "prevMaturity",
          "type": "uint256"
        }
      ],
      "name": "OpenMarket",
      "type": "event"
    },
    {
      "anonymous": false,
      "inputs": [
        {
          "indexed": false,
          "internalType": "address",
          "name": "account",
          "type": "address"
        }
      ],
      "name": "Paused",
      "type": "event"
    },
    {
      "anonymous": false,
      "inputs": [
        {
          "indexed": false,
          "internalType": "uint256",
          "name": "orderId",
          "type": "uint256"
        },
        {
          "indexed": true,
          "internalType": "address",
          "name": "taker",
          "type": "address"
        },
        {
          "indexed": false,
          "internalType": "enum ProtocolTypes.Side",
          "name": "side",
          "type": "uint8"
        },
        {
          "indexed": false,
          "internalType": "uint256",
          "name": "amount",
          "type": "uint256"
        },
        {
          "indexed": false,
          "internalType": "uint256",
          "name": "rate",
          "type": "uint256"
        }
      ],
      "name": "TakeOrder",
      "type": "event"
    },
    {
      "anonymous": false,
      "inputs": [
        {
          "indexed": true,
          "internalType": "address",
          "name": "from",
          "type": "address"
        },
        {
          "indexed": true,
          "internalType": "address",
          "name": "to",
          "type": "address"
        },
        {
          "indexed": false,
          "internalType": "int256",
          "name": "value",
          "type": "int256"
        }
      ],
      "name": "Transfer",
      "type": "event"
    },
    {
      "anonymous": false,
      "inputs": [
        {
          "indexed": false,
          "internalType": "address",
          "name": "account",
          "type": "address"
        }
      ],
      "name": "Unpaused",
      "type": "event"
    },
    {
      "inputs": [],
      "name": "acceptedContracts",
      "outputs": [
        {
          "internalType": "bytes32[]",
          "name": "contracts",
          "type": "bytes32[]"
        }
      ],
      "stateMutability": "pure",
      "type": "function"
    },
    {
      "inputs": [],
      "name": "buildCache",
      "outputs": [],
      "stateMutability": "nonpayable",
      "type": "function"
    },
    {
      "inputs": [
        {
          "internalType": "address",
          "name": "_user",
          "type": "address"
        },
        {
          "internalType": "uint256",
          "name": "_orderId",
          "type": "uint256"
        }
      ],
      "name": "cancelOrder",
      "outputs": [
        {
          "internalType": "uint256",
          "name": "",
          "type": "uint256"
        }
      ],
      "stateMutability": "nonpayable",
      "type": "function"
    },
    {
      "inputs": [
        {
          "internalType": "enum ProtocolTypes.Side",
          "name": "_side",
          "type": "uint8"
        },
        {
          "internalType": "address",
          "name": "_user",
          "type": "address"
        },
        {
          "internalType": "uint256",
          "name": "_amount",
          "type": "uint256"
        },
        {
          "internalType": "uint256",
          "name": "_rate",
          "type": "uint256"
        }
      ],
      "name": "createOrder",
      "outputs": [
        {
          "internalType": "address",
          "name": "maker",
          "type": "address"
        },
        {
          "internalType": "uint256",
          "name": "amount",
          "type": "uint256"
        }
      ],
      "stateMutability": "nonpayable",
      "type": "function"
    },
    {
      "inputs": [
        {
          "internalType": "address",
          "name": "_user",
          "type": "address"
        }
      ],
      "name": "futureValueOf",
      "outputs": [
        {
          "internalType": "int256",
          "name": "",
          "type": "int256"
        }
      ],
      "stateMutability": "view",
      "type": "function"
    },
    {
      "inputs": [],
      "name": "getBorrowRate",
      "outputs": [
        {
          "internalType": "uint256",
          "name": "rate",
          "type": "uint256"
        }
      ],
      "stateMutability": "view",
      "type": "function"
    },
    {
      "inputs": [
        {
          "internalType": "uint256",
          "name": "_limit",
          "type": "uint256"
        }
      ],
      "name": "getBorrowRates",
      "outputs": [
        {
          "internalType": "uint256[]",
          "name": "rates",
          "type": "uint256[]"
        }
      ],
      "stateMutability": "view",
      "type": "function"
    },
    {
      "inputs": [],
      "name": "getCurrency",
      "outputs": [
        {
          "internalType": "bytes32",
          "name": "currency",
          "type": "bytes32"
        }
      ],
      "stateMutability": "view",
      "type": "function"
    },
    {
      "inputs": [
        {
          "internalType": "address",
          "name": "account",
          "type": "address"
        }
      ],
      "name": "getFutureValue",
      "outputs": [
        {
          "internalType": "int256",
          "name": "",
          "type": "int256"
        },
        {
          "internalType": "uint256",
          "name": "",
          "type": "uint256"
        }
      ],
      "stateMutability": "view",
      "type": "function"
    },
    {
      "inputs": [],
      "name": "getLendRate",
      "outputs": [
        {
          "internalType": "uint256",
          "name": "rate",
          "type": "uint256"
        }
      ],
      "stateMutability": "view",
      "type": "function"
    },
    {
      "inputs": [
        {
          "internalType": "uint256",
          "name": "_limit",
          "type": "uint256"
        }
      ],
      "name": "getLendRates",
      "outputs": [
        {
          "internalType": "uint256[]",
          "name": "rates",
          "type": "uint256[]"
        }
      ],
      "stateMutability": "view",
      "type": "function"
    },
    {
      "inputs": [
        {
          "internalType": "uint256",
          "name": "_orderId",
          "type": "uint256"
        }
      ],
      "name": "getMaker",
      "outputs": [
        {
          "internalType": "address",
          "name": "maker",
          "type": "address"
        }
      ],
      "stateMutability": "view",
      "type": "function"
    },
    {
      "inputs": [],
      "name": "getMarket",
      "outputs": [
        {
          "components": [
            {
              "internalType": "bytes32",
              "name": "ccy",
              "type": "bytes32"
            },
            {
              "internalType": "uint256",
              "name": "maturity",
              "type": "uint256"
            },
            {
              "internalType": "uint256",
              "name": "basisDate",
              "type": "uint256"
            },
            {
              "internalType": "uint256",
              "name": "borrowRate",
              "type": "uint256"
            },
            {
              "internalType": "uint256",
              "name": "lendRate",
              "type": "uint256"
            },
            {
              "internalType": "uint256",
              "name": "midRate",
              "type": "uint256"
            }
          ],
          "internalType": "struct ILendingMarket.Market",
          "name": "market",
          "type": "tuple"
        }
      ],
      "stateMutability": "view",
      "type": "function"
    },
    {
      "inputs": [],
      "name": "getMaturity",
      "outputs": [
        {
          "internalType": "uint256",
          "name": "maturity",
          "type": "uint256"
        }
      ],
      "stateMutability": "view",
      "type": "function"
    },
    {
      "inputs": [],
      "name": "getMidRate",
      "outputs": [
        {
          "internalType": "uint256",
          "name": "rate",
          "type": "uint256"
        }
      ],
      "stateMutability": "view",
      "type": "function"
    },
    {
      "inputs": [
        {
          "internalType": "uint256",
          "name": "_orderId",
          "type": "uint256"
        }
      ],
      "name": "getOrder",
      "outputs": [
        {
          "components": [
            {
              "internalType": "enum ProtocolTypes.Side",
              "name": "side",
              "type": "uint8"
            },
            {
              "internalType": "uint256",
              "name": "amount",
              "type": "uint256"
            },
            {
              "internalType": "uint256",
              "name": "rate",
              "type": "uint256"
            },
            {
              "internalType": "address",
              "name": "maker",
              "type": "address"
            },
            {
              "internalType": "uint256",
              "name": "maturity",
              "type": "uint256"
            }
          ],
          "internalType": "struct MarketOrder",
          "name": "order",
          "type": "tuple"
        }
      ],
      "stateMutability": "view",
      "type": "function"
    },
    {
      "inputs": [
        {
          "internalType": "uint256",
          "name": "_maturity",
          "type": "uint256"
        },
        {
          "internalType": "uint256",
          "name": "_orderId",
          "type": "uint256"
        }
      ],
      "name": "getOrderFromTree",
      "outputs": [
        {
          "internalType": "uint256",
          "name": "",
          "type": "uint256"
        },
        {
          "internalType": "uint256",
          "name": "",
          "type": "uint256"
        },
        {
          "internalType": "uint256",
          "name": "",
          "type": "uint256"
        },
        {
          "internalType": "uint256",
          "name": "",
          "type": "uint256"
        },
        {
          "internalType": "uint256",
          "name": "",
          "type": "uint256"
        }
      ],
      "stateMutability": "view",
      "type": "function"
    },
    {
      "inputs": [
        {
          "internalType": "uint256",
          "name": "_maturity",
          "type": "uint256"
        }
      ],
      "name": "getTotalBorrowingSupply",
      "outputs": [
        {
          "internalType": "uint256",
          "name": "",
          "type": "uint256"
        }
      ],
      "stateMutability": "view",
      "type": "function"
    },
    {
      "inputs": [
        {
          "internalType": "uint256",
          "name": "_maturity",
          "type": "uint256"
        }
      ],
      "name": "getTotalLendingSupply",
      "outputs": [
        {
          "internalType": "uint256",
          "name": "",
          "type": "uint256"
        }
      ],
      "stateMutability": "view",
      "type": "function"
    },
    {
      "inputs": [
        {
          "internalType": "address",
          "name": "account",
          "type": "address"
        },
        {
          "internalType": "uint256",
          "name": "maturity",
          "type": "uint256"
        }
      ],
      "name": "hasFutureValueInPastMaturity",
      "outputs": [
        {
          "internalType": "bool",
          "name": "",
          "type": "bool"
        }
      ],
      "stateMutability": "view",
      "type": "function"
    },
    {
      "inputs": [
        {
          "internalType": "address",
          "name": "_resolver",
          "type": "address"
        },
        {
          "internalType": "bytes32",
          "name": "_ccy",
          "type": "bytes32"
        },
        {
          "internalType": "uint256",
          "name": "_maturity",
          "type": "uint256"
        },
        {
          "internalType": "uint256",
          "name": "_basisDate",
          "type": "uint256"
        }
      ],
      "name": "initialize",
      "outputs": [],
      "stateMutability": "nonpayable",
      "type": "function"
    },
    {
      "inputs": [],
      "name": "isMatured",
      "outputs": [
        {
          "internalType": "bool",
          "name": "",
          "type": "bool"
        }
      ],
      "stateMutability": "view",
      "type": "function"
    },
    {
      "inputs": [],
      "name": "isOpened",
      "outputs": [
        {
          "internalType": "bool",
          "name": "",
          "type": "bool"
        }
      ],
      "stateMutability": "view",
      "type": "function"
    },
    {
      "inputs": [],
      "name": "isResolverCached",
      "outputs": [
        {
          "internalType": "bool",
          "name": "",
          "type": "bool"
        }
      ],
      "stateMutability": "view",
      "type": "function"
    },
    {
      "inputs": [
        {
          "internalType": "enum ProtocolTypes.Side",
          "name": "_side",
          "type": "uint8"
        },
        {
          "internalType": "uint256",
          "name": "_amount",
          "type": "uint256"
        },
        {
          "internalType": "uint256",
          "name": "_rate",
          "type": "uint256"
        }
      ],
      "name": "matchOrders",
      "outputs": [
        {
          "internalType": "uint256",
          "name": "",
          "type": "uint256"
        }
      ],
      "stateMutability": "view",
      "type": "function"
    },
    {
      "inputs": [
        {
          "internalType": "uint256",
          "name": "_maturity",
          "type": "uint256"
        }
      ],
      "name": "openMarket",
      "outputs": [
        {
          "internalType": "uint256",
          "name": "prevMaturity",
          "type": "uint256"
        }
      ],
      "stateMutability": "nonpayable",
      "type": "function"
    },
    {
      "inputs": [],
      "name": "pauseMarket",
      "outputs": [],
      "stateMutability": "nonpayable",
      "type": "function"
    },
    {
      "inputs": [],
      "name": "paused",
      "outputs": [
        {
          "internalType": "bool",
          "name": "",
          "type": "bool"
        }
      ],
      "stateMutability": "view",
      "type": "function"
    },
    {
      "inputs": [
        {
          "internalType": "address",
          "name": "_user",
          "type": "address"
        }
      ],
      "name": "presentValueOf",
      "outputs": [
        {
          "internalType": "int256",
          "name": "",
          "type": "int256"
        }
      ],
      "stateMutability": "view",
      "type": "function"
    },
    {
      "inputs": [
        {
          "internalType": "address",
          "name": "_user",
          "type": "address"
        }
      ],
      "name": "removeFutureValueInPastMaturity",
      "outputs": [
        {
          "internalType": "int256",
          "name": "removedAmount",
          "type": "int256"
        },
        {
          "internalType": "uint256",
          "name": "maturity",
          "type": "uint256"
        }
      ],
      "stateMutability": "nonpayable",
      "type": "function"
    },
    {
      "inputs": [],
      "name": "requiredContracts",
      "outputs": [
        {
          "internalType": "bytes32[]",
          "name": "contracts",
          "type": "bytes32[]"
        }
      ],
      "stateMutability": "pure",
      "type": "function"
    },
    {
      "inputs": [],
      "name": "resolver",
      "outputs": [
        {
          "internalType": "contract IAddressResolver",
          "name": "",
          "type": "address"
        }
      ],
      "stateMutability": "view",
      "type": "function"
    },
    {
      "inputs": [],
      "name": "unpauseMarket",
      "outputs": [],
      "stateMutability": "nonpayable",
      "type": "function"
    }
  ],
  "transactionHash": "0xbedf13a777e6d9f01e3b6235b1683c3a7121ce85456ccb1956a7f3d2b5b278f1",
  "args": [],
  "numDeployments": 4,
  "solcInputHash": "31a544e07a0fa934f1cc96cb0a7091e2",
  "bytecode": "0x608060405234801561001057600080fd5b506002805460ff191690556148458061002a6000396000f3fe608060405234801561001057600080fd5b50600436106101fb5760003560e01c80637a5fc22b1161011a578063baa26757116100ad578063e09976591161007c578063e099765914610306578063e16695b5146104ad578063e224e8c0146104b5578063f1be1679146104c8578063fa6f5bfe1461051c57600080fd5b8063baa2675714610454578063c1e99bed14610467578063d09ef2411461047a578063dc2079a41461049a57600080fd5b80639eec6ead116100e95780639eec6ead146103f6578063a03738dc14610431578063b7c1d52714610439578063ba1c5e801461044c57600080fd5b80637a5fc22b146103945780637f2b6a0d146103a7578063870febf0146103af57806388e8c716146103ee57600080fd5b80633d03b9da116101925780635c975abb116101615780635c975abb14610366578063692aa97e146103715780636945c1fd146103795780636a2061371461038157600080fd5b80633d03b9da146103065780634eee44951461030e5780634f56c6df14610340578063568615321461035357600080fd5b806317e2d96a116101ce57806317e2d96a1461028657806329985e5a146102d35780632af64bd3146102db5780633644ca45146102f357600080fd5b8063021ca02e1461020057806304f3bcec146102295780630e1b435e146102545780631610c7ce1461027c575b600080fd5b61021361020e3660046141c3565b610524565b60405161022091906141dc565b60405180910390f35b60005461023c906001600160a01b031681565b6040516001600160a01b039091168152602001610220565b610267610262366004614238565b610645565b60408051928352602083019190915201610220565b610284610687565b005b6102c56102943660046141c3565b60009081527f102c2681ef7c98b80d6ee00bc89c73fe6b29b6cc81206242bfb4c5c32e608d39602052604090205490565b604051908152602001610220565b6102846106bf565b6102e3610852565b6040519015158152602001610220565b6102c5610301366004614264565b610970565b610213610ac4565b61032161031c366004614297565b610b29565b604080516001600160a01b039093168352602083019190915201610220565b61021361034e3660046141c3565b610cb6565b61023c6103613660046141c3565b610dd0565b60025460ff166102e3565b6102e3610dfa565b6102c5610e21565b6102c561038f3660046142db565b610e34565b6102676103a2366004614238565b611080565b6102e36110d6565b6102c56103bd3660046141c3565b60009081527f102c2681ef7c98b80d6ee00bc89c73fe6b29b6cc81206242bfb4c5c32e608d3a602052604090205490565b6102c56110ec565b610409610404366004614307565b6110f9565b604080519586526020860194909452928401919091526060830152608082015260a001610220565b610284611210565b610284610447366004614329565b61123d565b6102c5611428565b6102c56104623660046141c3565b611461565b6102c5610475366004614238565b61152d565b61048d6104883660046141c3565b611563565b604051610220919061439c565b6102c56104a8366004614238565b6115f4565b6102c5611694565b6102e36104c33660046142db565b6116a7565b6104d061170c565b6040516102209190600060c082019050825182526020830151602083015260408301516040830152606083015160608301526080830151608083015260a083015160a083015292915050565b6102c56117af565b60608167ffffffffffffffff81111561053f5761053f6143e5565b604051908082528060200260200182016040528015610568578160200160208202803683370190505b509050600061059c6105786117e9565b60060160006105856117e9565b60030154815260200190815260200160002061180d565b905080826000815181106105b2576105b26143fb565b602090810291909101015260015b825181101561063e57816105d35761063e565b61060c826105df6117e9565b60060160006105ec6117e9565b60030154815260200190815260200160002061185490919063ffffffff16565b915081838281518110610621576106216143fb565b60209081029190910101528061063681614427565b9150506105c0565b5050919050565b6001600160a01b031660009081526000805160206147d083398151915260209081526040808320546000805160206147f0833981519152909252909120549091565b61069033611955565b6106b55760405162461bcd60e51b81526004016106ac90614442565b60405180910390fd5b6106bd6119c5565b565b60006106c9610ac4565b905060005b815181101561084e5760008282815181106106eb576106eb6143fb565b6020026020010151905060008060009054906101000a90046001600160a01b03166001600160a01b0316636795dbcd838460405160200161075891907f5265736f6c766572206d697373696e67207461726765743a20000000000000008152601981019190915260390190565b6040516020818303038152906040526040518363ffffffff1660e01b81526004016107849291906144c6565b60206040518083038186803b15801561079c57600080fd5b505afa1580156107b0573d6000803e3d6000fd5b505050506040513d601f19601f820116820180604052508101906107d491906144df565b60008381526001602090815260409182902080546001600160a01b0319166001600160a01b0385169081179091558251868152918201529192507f88a93678a3692f6789d9546fc621bf7234b101ddb7d4fe479455112831b8aa68910160405180910390a15050808061084690614427565b9150506106ce565b5050565b60008061085d610ac4565b905060005b815181101561096757600082828151811061087f5761087f6143fb565b60209081029190910181015160008181526001909252604080832054925490516321f8a72160e01b8152600481018390529193506001600160a01b039283169216906321f8a7219060240160206040518083038186803b1580156108e257600080fd5b505afa1580156108f6573d6000803e3d6000fd5b505050506040513d601f19601f8201168201806040525081019061091a91906144df565b6001600160a01b031614158061094557506000818152600160205260409020546001600160a01b0316155b15610954576000935050505090565b508061095f81614427565b915050610862565b50600191505090565b600061097a610dfa565b6109bd5760405162461bcd60e51b815260206004820152601460248201527313585c9ad95d081a5cc81b9bdd081bdc195b995960621b60448201526064016106ac565b60008460018111156109d1576109d1614364565b1415610a6e57610a10826109e36117e9565b60060160006109f06117e9565b600301548152602001908152602001600020611a1790919063ffffffff16565b610a2c5760405162461bcd60e51b81526004016106ac906144fc565b610a678284610a396117e9565b6006016000610a466117e9565b600301548152602001908152602001600020611a5e9092919063ffffffff16565b9050610abd565b610a8782610a7a6117e9565b60050160006109f06117e9565b610aa35760405162461bcd60e51b81526004016106ac906144fc565b610a678284610ab06117e9565b6005016000610a466117e9565b9392505050565b604080516001808252818301909252606091602080830190803683370190505090507f4c656e64696e674d61726b6574436f6e74726f6c6c657200000000000000000081600081518110610b1a57610b1a6143fb565b60200260200101818152505090565b600080610b34611b4a565b610b3d33611955565b610b595760405162461bcd60e51b81526004016106ac90614442565b610b61610dfa565b610ba45760405162461bcd60e51b815260206004820152601460248201527313585c9ad95d081a5cc81b9bdd081bdc195b995960621b60448201526064016106ac565b60008411610bf45760405162461bcd60e51b815260206004820152601860248201527f43616e277420706c61636520656d70747920616d6f756e74000000000000000060448201526064016106ac565b60008311610c3d5760405162461bcd60e51b815260206004820152601660248201527543616e277420706c61636520656d707479207261746560501b60448201526064016106ac565b600080876001811115610c5257610c52614364565b1415610c6c57610c658486610a396117e9565b9050610c7c565b610c798486610ab06117e9565b90505b80610c9a57610c8d87878787611b90565b5085925060009150610cac565b610ca687878388611d94565b92508491505b5094509492505050565b60608167ffffffffffffffff811115610cd157610cd16143e5565b604051908082528060200260200182016040528015610cfa578160200160208202803683370190505b5090506000610d2e610d0a6117e9565b6005016000610d176117e9565b600301548152602001908152602001600020612157565b90508082600081518110610d4457610d446143fb565b602090810291909101015260015b825181101561063e5781610d655761063e565b610d9e82610d716117e9565b6005016000610d7e6117e9565b60030154815260200190815260200160002061219990919063ffffffff16565b915081838281518110610db357610db36143fb565b602090810291909101015280610dc881614427565b915050610d52565b6000610dda6117e9565b60009283526004016020525060409020600301546001600160a01b031690565b6000610e046110d6565b158015610e1c5750610e146117e9565b600201544210155b905090565b6000610e2b6117e9565b60010154905090565b60008282610e4181610dd0565b6001600160a01b0316826001600160a01b031614610ea15760405162461bcd60e51b815260206004820152601760248201527f63616c6c6572206973206e6f7420746865206d616b657200000000000000000060448201526064016106ac565b610ea9611b4a565b6000610eb36117e9565b6000868152600491909101602052604090819020815160a081019092528054829060ff166001811115610ee857610ee8614364565b6001811115610ef957610ef9614364565b8152600182015460208201526002820154604082015260038201546001600160a01b031660608201526004909101546080909101529050600081516001811115610f4557610f45614364565b1415610f9557610f908160200151826040015187610f616117e9565b6005016000610f6e6117e9565b600301548152602001908152602001600020612293909392919063ffffffff16565b610fd3565b600181516001811115610faa57610faa614364565b1415610fd357610fd38160200151826040015187610fc66117e9565b6006016000610f6e6117e9565b610fdb6117e9565b6000868152600491820160209081526040808320805460ff1916815560018101849055600281018490556003810180546001600160a01b03191690559093019190915560608301518351918401518484015193516001600160a01b03909216937ff523a00826d700cad9c1a6b2bb68b57937b6f76e89dc6fe5206389e1a97d3f809361106b938b93919290614547565b60405180910390a26020015195945050505050565b60008061108c33611955565b6110a85760405162461bcd60e51b81526004016106ac90614442565b6110bd836110b46117e9565b600301546116a7565b156110d1576110cb836125d9565b90925090505b915091565b60006110e06117e9565b60030154421015905090565b6000610e1c610d0a6117e9565b60008060008060008061110a6117e9565b6000888152600491909101602052604090819020815160a081019092528054829060ff16600181111561113f5761113f614364565b600181111561115057611150614364565b8152600182015460208201526002820154604082015260038201546001600160a01b03166060820152600490910154608090910152905060008151600181111561119c5761119c614364565b14156111dc576111cc8160400151886111b36117e9565b60008c815260059190910160205260409020919061271c565b9550955095509550955050611206565b6111cc8160400151886111ed6117e9565b60008c815260069190910160205260409020919061271c565b9295509295909350565b61121933611955565b6112355760405162461bcd60e51b81526004016106ac90614442565b6106bd6127b8565b60025462010000900460ff16158080156112625750600254600161010090910460ff16105b806112825750303b158015611282575060025460ff610100909104166001145b6112e55760405162461bcd60e51b815260206004820152602e60248201527f496e697469616c697a61626c653a20636f6e747261637420697320616c72656160448201526d191e481a5b9a5d1a585b1a5e995960921b60648201526084016106ac565b6002805461ff001916610100179055801561130c576002805462ff00001916620100001790555b600061133f7fa3f0ad74e5423aebfd80d3ef4346578335a9a72aeaee59ff6cb3582b35133d50546001600160a01b031690565b6001600160a01b031614156113a25760405162461bcd60e51b815260206004820152602360248201527f4d7573742062652063616c6c65642066726f6d20626561636f6e20636f6e74726044820152621858dd60ea1b60648201526084016106ac565b6113ab856127f5565b836113b46117e9565b60010155826113c16117e9565b60030155816113ce6117e9565b600201556113da6106bf565b8015611421576002805462ff000019169055604051600181527f7f26b83ff96e1f2b6a682f133852f6798a09c465da95921460cefb38474024989060200160405180910390a15b5050505050565b6000806114336117e9565b60030154905061145b6114446117e9565b60008381526006919091016020526040902061180d565b91505090565b600061146b6110d6565b6114af5760405162461bcd60e51b815260206004820152601560248201527413585c9ad95d081a5cc81b9bdd081b585d1d5c9959605a1b60448201526064016106ac565b6114b833611955565b6114d45760405162461bcd60e51b81526004016106ac90614442565b6114dc6117e9565b600301549050816114eb6117e9565b6003015560408051838152602081018390527f974eb6a392aa4b5b16a285eae8ee9d9c75309faa295ffa928838efa6b00e438a910160405180910390a1919050565b600080600061153b84610645565b91509150806115486117e9565b600301541415611559575092915050565b5060009392505050565b61156b61418a565b6115736117e9565b6000838152600491909101602052604090819020815160a081019092528054829060ff1660018111156115a8576115a8614364565b60018111156115b9576115b9614364565b8152600182015460208201526002820154604082015260038201546001600160a01b0316606082015260049091015460809091015292915050565b6000806116008361152d565b9050600061160c6117af565b90506000426116196117e9565b60030154101561162a576000611641565b426116336117e9565b60030154611641919061456d565b905061164d8183614584565b61165d6301e187e0612710614584565b61166791906145a3565b6116776301e187e0612710614584565b61168190856145bb565b61168b9190614656565b95945050505050565b600061169e6117e9565b60030154905090565b6001600160a01b03821660009081526000805160206147f083398151915260205260408120548214156116dc57506000611706565b506001600160a01b03821660009081526000805160206147d0833981519152602052604090205415155b92915050565b6117486040518060c001604052806000801916815260200160008152602001600081526020016000815260200160008152602001600081525090565b6040518060c0016040528061175b6117e9565b60010154815260200161176c6117e9565b60030154815260200161177d6117e9565b60020154815260200161178e611428565b815260200161179b6110ec565b81526020016117a86117af565b9052919050565b6000806117ba611428565b905060006117c66110ec565b905060006117d482846145a3565b90506117e1600282614684565b935050505090565b7ffc2836757f9146445fc75bc3c897a210ec004e4ee60fc8627ef5cbf2842b3d0a90565b80548061181c57506000919050565b5b60008181526001830160205260409020600201541561184f57600090815260018201602052604090206002015461181d565b919050565b6000816118c45760405162461bcd60e51b815260206004820152603860248201527f4f7264657253746174697374696373547265652834303229202d205374617274604482015277696e672076616c75652063616e6e6f74206265207a65726f60401b60648201526084016106ac565b6000828152600180850160205260409091200154156119035760008281526001808501602052604090912001546118fc908490612870565b9050611706565b5060008181526001830160205260409020545b80158015906119375750600081815260018085016020526040909120015482145b15611706576000818152600184016020526040902054909150611916565b600080611960610ac4565b905060005b815181101561155957611990828281518110611983576119836143fb565b60200260200101516128ad565b6001600160a01b0316846001600160a01b031614156119b3575060019392505050565b806119bd81614427565b915050611965565b6119cd612929565b6002805460ff191690557f5db9ee0a495bf2e6ff9c91a7834c1ba4fdd244a5e8aa4e537bd38aeae4b073aa335b6040516001600160a01b03909116815260200160405180910390a1565b600081611a2657506000611706565b8254821415611a3757506001611706565b600082815260018401602052604090205415611a5557506001611706565b50600092915050565b60008281526001808501602090815260408084206004808201548652600782018452828620835160a081018552815481529581015494860194909452600284015492850192909252600383015460608501529101546080830152905b6005820154815114801590611ad25750838160800151105b15611b2a576020908101516000908152600783018252604090819020815160a0810183528154815260018201549381019390935260028101549183019190915260038101546060830152600401546080820152611aba565b83816080015110611b3f57519150610abd9050565b600092505050610abd565b60025460ff16156106bd5760405162461bcd60e51b815260206004820152601060248201526f14185d5cd8589b194e881c185d5cd95960821b60448201526064016106ac565b6000611b9a61418a565b80866001811115611bad57611bad614364565b90816001811115611bc057611bc0614364565b90525060208101849052604081018390526001600160a01b0385166060820152611be86117e9565b600301546080820152611bf9612972565b915080611c046117e9565b60008481526004919091016020526040902081518154829060ff191660018381811115611c3357611c33614364565b0217905550602082015160018201556040820151600282015560608201516003820180546001600160a01b0319166001600160a01b03909216919091179055608090910151600490910155600081516001811115611c9357611c93614364565b1415611ce357611cde8160200151826040015184611caf6117e9565b6005016000611cbc6117e9565b60030154815260200190815260200160002061299d909392919063ffffffff16565b611d21565b600181516001811115611cf857611cf8614364565b1415611d2157611d218160200151826040015184611d146117e9565b6006016000611cbc6117e9565b80606001516001600160a01b03167f9baa679e9516a3acae8c0deb69798eb2824dd6984b54d21dd4942c76511f4d31838360000151611d5e6117e9565b60010154856080015186602001518760400151604051611d8396959493929190614698565b60405180910390a250949350505050565b600080611d9f6117e9565b6000858152600491909101602052604090819020815160a081019092528054829060ff166001811115611dd457611dd4614364565b6001811115611de557611de5614364565b815260018201546020808301919091526002830154604083015260038301546001600160a01b03166060830152600490920154608090910152810151909150831115611e695760405162461bcd60e51b8152602060048201526013602482015272125b9cdd59999a58da595b9d08185b5bdd5b9d606a1b60448201526064016106ac565b846001600160a01b031681606001516001600160a01b03161415611ecf5760405162461bcd60e51b815260206004820152601d60248201527f4d616b657220636f756c646e27742074616b6520697473206f7264657200000060448201526064016106ac565b600080848360200151611ee2919061456d565b611eea6117e9565b6000888152600491909101602052604081206001019190915583516001811115611f1657611f16614364565b1415611fac57611f5d83604001518787611f2e6117e9565b6005016000611f3b6117e9565b600301548152602001908152602001600020612b15909392919063ffffffff16565b611f9f5760405162461bcd60e51b815260206004820152601360248201527221b7bab6323713ba103334b6361037b93232b960691b60448201526064016106ac565b5050606081015185612032565b600183516001811115611fc157611fc1614364565b141561203257611fe683604001518787611fd96117e9565b6006016000611f3b6117e9565b6120285760405162461bcd60e51b815260206004820152601360248201527221b7bab6323713ba103334b6361037b93232b960691b60448201526064016106ac565b5050606081015185905b60006301e187e0426120426117e9565b60030154612050919061456d565b856040015161205f9190614584565b6120699190614684565b9050600061271061207a83826145a3565b6120849089614584565b61208e9190614684565b90506120a784848361209e6117e9565b60030154612deb565b50886001600160a01b03167f966c5ef9d077123e79f6a459e7ced8ef6f2a106683fa26d6ea3a4b0df8a34b5b898c8a89604001516040516120eb9493929190614547565b60405180910390a26020850151612142576121046117e9565b6000898152600491820160205260408120805460ff1916815560018101829055600281018290556003810180546001600160a01b0319169055909101555b8460600151955050505050505b949350505050565b80548061216657506000919050565b5b60008181526001808401602052604090912001541561184f576000908152600180830160205260409091200154612167565b6000816122095760405162461bcd60e51b815260206004820152603860248201527f4f7264657253746174697374696373547265652834303129202d205374617274604482015277696e672076616c75652063616e6e6f74206265207a65726f60401b60648201526084016106ac565b6000828152600184016020526040902060020154156122415760008281526001840160205260409020600201546118fc9084906131a9565b5060008181526001830160205260409020545b80158015906122755750600081815260018401602052604090206002015482145b15611706576000818152600184016020526040902054909150612254565b816123065760405162461bcd60e51b815260206004820152603960248201527f4f7264657253746174697374696373547265652834303729202d2056616c756560448201527f20746f2064656c6574652063616e6e6f74206265207a65726f0000000000000060648201526084016106ac565b612312848484846131e1565b6123845760405162461bcd60e51b815260206004820152603a60248201527f4f7264657253746174697374696373547265652834303829202d2056616c756560448201527f20746f2064656c65746520646f6573206e6f742065786973742e00000000000060648201526084016106ac565b6000828152600185016020526040902061239f858484613205565b6000808260060154600014156125d057600085815260018089016020526040909120015415806123e057506000858152600188016020526040902060020154155b156123ec575083612434565b5060008481526001870160205260409020600201545b600081815260018089016020526040909120015415612434576000908152600180880160205260409091200154612402565b600081815260018089016020526040909120015415612468576000818152600180890160205260409091200154915061247f565b600081815260018801602052604090206002015491505b600081815260018801602052604080822054848352912081905580156124f05760008181526001808a01602052604090912001548214156124d55760008181526001808a016020526040909120018390556124f4565b600081815260018901602052604090206002018390556124f4565b8288555b600082815260018901602052604090206003015460ff161586831461257e5761251e8984896133b2565b600087815260018a8101602052604080832080830154878552828520938401819055845281842087905560028082015490840181905584529083208690556003908101549286905201805460ff191660ff90921615159190911790559195915b801561258e5761258e8985613429565b505060008181526001808901602052604082208281559081018290556002810182905560038101805460ff191690556004810182905560058101829055600601555b50505050505050565b6001600160a01b03811660009081526000805160206147d083398151915260209081526040808320546000805160206147f08339815191529092528220548291908282126126695760008181527f102c2681ef7c98b80d6ee00bc89c73fe6b29b6cc81206242bfb4c5c32e608d3960205260408120805484929061265e90849061456d565b909155506126b59050565b612672826146cf565b60008281527f102c2681ef7c98b80d6ee00bc89c73fe6b29b6cc81206242bfb4c5c32e608d3a6020526040812080549091906126af90849061456d565b90915550505b6001600160a01b03851660008181526000805160206147d083398151915260209081526040808320839055518581529192917f8b0c34a52f9e28d78caaa7066cd047b398dae74941a208b77777420f492bd7e1910160405180910390a39094909350915050565b600080600080600061272e8888611a17565b61274a5760405162461bcd60e51b81526004016106ac906146ec565b505050600093845250506001928301602090815260408084209284526007909201815291819020815160a08101835281548082529482015493810184905260028201549281018390526003820154606082018190526004909201546080909101819052939492939192909190565b6127c0611b4a565b6002805460ff191660011790557f62e78cea01bee320cd4e420270b5ea74000d11b0c9f74754ebdbfc544b05a2586119fa3390565b6000546001600160a01b03161561284e5760405162461bcd60e51b815260206004820152601b60248201527f7265736f6c766572207265676973746572656420616c7265616479000000000060448201526064016106ac565b600080546001600160a01b0319166001600160a01b0392909216919091179055565b60005b6000828152600184016020526040902060020154156128a75760009182526001830160205260409091206002015490612873565b50919050565b600081815260016020908152604080832054905170026b4b9b9b4b7339030b2323932b9b99d1607d1b92810192909252603182018490526001600160a01b03169081151590605101604051602081830303815290604052906129225760405162461bcd60e51b81526004016106ac919061473c565b5092915050565b60025460ff166106bd5760405162461bcd60e51b815260206004820152601460248201527314185d5cd8589b194e881b9bdd081c185d5cd95960621b60448201526064016106ac565b600061297c6117e9565b805490600061298a83614427565b91905055506129976117e9565b54919050565b81612a105760405162461bcd60e51b815260206004820152603960248201527f4f7264657253746174697374696373547265652834303529202d2056616c756560448201527f20746f20696e736572742063616e6e6f74206265207a65726f0000000000000060648201526084016106ac565b83546000905b8015612a815780915080841015612a40576000908152600180870160205260409091200154612a16565b80841115612a61576000908152600186016020526040902060020154612a16565b80841415612a7c57612a7586828786613843565b5050612b0f565b612a16565b6000848152600180880160205260408220848155808201839055600281019290925560038201805460ff19169091179055612abe87868887613843565b82612acb57848755612b05565b82851015612aee5760008381526001808901602052604090912001859055612b05565b600083815260018801602052604090206002018590555b6125d087866139d6565b50505050565b6000838152600180860160209081526040808420868552600781018352818520825160a08101845281548152948101549385019390935260028301549184019190915260038201546060840152600490910154608083018190529091908390612b7f90869061456d565b60008781526007850160205260409020600401819055905080612bad57612ba888828989612293565b612ddd565b600480840154600090815260078501602052604090200154811115612d93576004808401546000908152600785016020908152604091829020825160a081018452815481526001820154928101929092526002810154928201929092526003820154606082015291015460808201525b6005840154815114801590612c355750818160800151105b15612c8d576020908101516000908152600785018252604090819020815160a0810183528154815260018201549381019390935260028101549183019190915260038101546060830152600401546080820152612c1d565b8583608001511115612d1657604080820151600090815260078601602090815290829020825160a0810184528154815260018201549281019290925260028101549282019290925260038201546060820152600490910154608082015283518251612cfc918c918c9190613c41565b612d108a8a83600001518760000151613c41565b50612d8d565b6020808201516000908152600786018252604090819020815160a08101835281548082526001830154948201949094526002820154928101929092526003810154606083015260040154608082015284519091612d77918c918c9190613c41565b612d8b8a8a84600001518760000151613c41565b505b50612ddd565b612da7888884600001518660040154613c41565b8151600088815260018a0160205260409020600401556005830154612ddd578151600088815260018a0160205260409020600501555b506001979650505050505050565b6000836001600160a01b0316856001600160a01b03161415612e4f5760405162461bcd60e51b815260206004820181905260248201527f626f72726f77657220616e64206c656e64657220617265207468652073616d6560448201526064016106ac565b6001600160a01b038516612eaf5760405162461bcd60e51b815260206004820152602160248201527f61646420746f20746865207a65726f2061646472657373206f66206c656e64656044820152603960f91b60648201526084016106ac565b6001600160a01b038416612f115760405162461bcd60e51b815260206004820152602360248201527f61646420746f20746865207a65726f2061646472657373206f6620626f72726f6044820152623bb2b960e91b60648201526084016106ac565b612f1b85836116a7565b15612f7d5760405162461bcd60e51b815260206004820152602c60248201527f6c656e6465722068617320746865206675747572652076616c756520696e207060448201526b617374206d6174757269747960a01b60648201526084016106ac565b612f8784836116a7565b15612feb5760405162461bcd60e51b815260206004820152602e60248201527f626f72726f7765722068617320746865206675747572652076616c756520696e60448201526d2070617374206d6174757269747960901b60648201526084016106ac565b6001600160a01b0385811660009081526000805160206147f08339815191526020908152604080832086905592871682528282208590558482527f102c2681ef7c98b80d6ee00bc89c73fe6b29b6cc81206242bfb4c5c32e608d399052908120805485929061305b9084906145a3565b909155505060008281527f102c2681ef7c98b80d6ee00bc89c73fe6b29b6cc81206242bfb4c5c32e608d3a60205260408120805485929061309d9084906145a3565b90915550506001600160a01b03851660009081526000805160206147d08339815191526020526040812080548592906130d790849061474f565b90915550506001600160a01b03841660009081526000805160206147d0833981519152602052604081208054859290613111908490614790565b90915550506040518381526001600160a01b038616906000907f8b0c34a52f9e28d78caaa7066cd047b398dae74941a208b77777420f492bd7e19060200160405180910390a36001600160a01b03841660007f8b0c34a52f9e28d78caaa7066cd047b398dae74941a208b77777420f492bd7e161318d866146cf565b60405190815260200160405180910390a3506001949350505050565b60005b6000828152600180850160205260409091200154156128a75760009182526001808401602052604090922090910154906131ac565b60006131ed8584611a17565b6131f95750600061214f565b61168b85848685613c72565b61320f8383611a17565b61322b5760405162461bcd60e51b81526004016106ac906146ec565b600082815260018085016020908152604080842085855260078101835293819020815160a081018352815481529381015492840192909252600282015490830152600381015460608301526004908101546080830152820154831480156132955750828260050154145b156132ba5760008481526001860160205260408120600481018290556005015561335e565b8282600401541415613306576132e785858360200151600091825260019092016020526040902060040155565b602080820151600090815260078401909152604081206002015561335e565b828260050154141561334a5760408082015160008681526001880160205291909120600501556040808201516000908152600784016020529081206001015561335e565b61335e858583604001518460200151613c41565b805160009081526007830160205260408120818155600180820183905560028201839055600382018390556004909101829055600684018054919290916133a690849061456d565b90915550505050505050565b6000818152600184016020526040808220548483529120819055806133d957828455612b0f565b600081815260018086016020526040909120015482141561340f5760008181526001808601602052604090912001839055612b0f565b600090815260019390930160205250604090912060020155565b60005b825482148015906134515750600082815260018401602052604090206003015460ff16155b1561382457600082815260018085016020526040808320548084529220015483141561364d5760008181526001850160205260408082206002015480835291206003015490925060ff16156134f5576000828152600180860160205260408083206003908101805460ff199081169091558585529190932090920180549092161790556134de8482613ced565b600081815260018501602052604090206002015491505b60008281526001808601602052604080832090910154825290206003015460ff161580156135405750600082815260018501602052604080822060020154825290206003015460ff16155b1561356d57600082815260018581016020526040909120600301805460ff1916909117905591508161381e565b600082815260018501602052604080822060020154825290206003015460ff166135ea576000828152600180860160205260408083208083015484529083206003908101805460ff19908116909155938690520180549092161790556135d38483613dc5565b600081815260018501602052604090206002015491505b600081815260018501602052604080822060039081018054868552838520808401805460ff909316151560ff1993841617905582548216909255600290910154845291909220909101805490911690556136448482613ced565b8354925061381e565b6000818152600180860160205260408083209091015480835291206003015490925060ff16156136cc576000828152600180860160205260408083206003908101805460ff199081169091558585529190932090920180549092161790556136b58482613dc5565b600081815260018086016020526040909120015491505b600082815260018501602052604080822060020154825290206003015460ff16158015613717575060008281526001808601602052604080832090910154825290206003015460ff16155b1561374457600082815260018581016020526040909120600301805460ff1916909117905591508161381e565b60008281526001808601602052604080832090910154825290206003015460ff166137c357600082815260018086016020526040808320600281015484529083206003908101805460ff19908116909155938690520180549092161790556137ac8483613ced565b600081815260018086016020526040909120015491505b60008181526001808601602052604080832060039081018054878652838620808401805460ff909316151560ff199384161790558254821690925593015484529220909101805490911690556138198482613dc5565b835492505b5061342c565b506000908152600190910160205260409020600301805460ff19169055565b600082116138885760405162461bcd60e51b8152602060048201526012602482015271125b9cdd599a58da595b9d08185b5bdd5b9d60721b60448201526064016106ac565b6000838152600185016020526040902060048101546138b2576138ad85858585613e9a565b611421565b6004808201546000908152600783016020526040902001548311156139ca576004808201546000908152600783016020908152604091829020825160a081018452815481526001820154928101929092526002810154928201929092526003820154606082015291015460808201525b602081015115801590613939575083816080015111155b15613991576020908101516000908152600783018252604090819020815160a0810183528154815260018201549381019390935260028101549183019190915260038101546060830152600401546080820152613922565b83816080015111156139b3576139ae868683600001518787613f07565b6139c4565b6139c4868683600001518787613f53565b50611421565b61142185858585613e9a565b60005b82548214801590613a035750600082815260018401602052604080822054825290206003015460ff165b15613c1f576000828152600180850160205260408083205480845281842054845292200154811415613b265760008181526001850160205260408082205482528082206002015480835291206003015490925060ff1615613aac576000818152600180860160205260408083206003808201805460ff19908116909155878652838620820180548216905582548652928520018054909216909217905590829052549250613c19565b6000818152600185016020526040902060020154831415613ad457809250613ad48484613ced565b50600082815260018085016020526040808320548084528184206003808201805460ff19908116909155825487529386200180549093169093179091559182905254613b21908590613dc5565b613c19565b6000818152600180860160205260408083205483528083209091015480835291206003015490925060ff1615613ba4576000818152600180860160205260408083206003808201805460ff19908116909155878652838620820180548216905582548652928520018054909216909217905590829052549250613c19565b6000818152600180860160205260409091200154831415613bcc57809250613bcc8484613dc5565b50600082815260018085016020526040808320548084528184206003808201805460ff19908116909155825487529386200180549093169093179091559182905254613c19908590613ced565b506139d9565b505080546000908152600190910160205260409020600301805460ff19169055565b6000928352600193840160209081526040808520848652600701909152808420909401819055825291902060020155565b6000838152600180860160209081526040808420858552600781018352818520825160a08101845281548152948101549385019390935260028301549184019190915260038201546060840152600490910154608083018190529091908514613ce05760009250505061214f565b5060019695505050505050565b600081815260018084016020526040808320600281018054915482865292852090930154938590529183905590918015613d3557600081815260018601602052604090208490555b6000838152600186016020526040902082905581613d5557828555613da2565b6000828152600180870160205260409091200154841415613d8b5760008281526001808701602052604090912001839055613da2565b600082815260018601602052604090206002018390555b505060008181526001938401602052604080822090940183905591825291902055565b60008181526001808401602052604080832091820180549254838552918420600201549385905283905590918015613e0b57600081815260018601602052604090208490555b6000838152600186016020526040902082905581613e2b57828555613e78565b6000828152600186016020526040902060020154841415613e615760008281526001860160205260409020600201839055613e78565b600082815260018087016020526040909120018390555b5050600081815260019093016020526040808420600201839055918352912055565b6000838152600185016020526040812090613eb786868686614089565b9050613ec98686838560040154613c41565b600085815260018701602052604090206004018190556005820154613eff57600085815260018701602052604090206005018190555b505050505050565b600084815260018601602052604090206004810154841415613f3457613f2f86868585613e9a565b613eff565b6000848152600782016020526040902060020154613eff908790879086865b60008211613f985760405162461bcd60e51b8152602060048201526012602482015271125b9cdd599a58da595b9d08185b5bdd5b9d60721b60448201526064016106ac565b600084815260018601602052604090206005810154841415613fc057613f2f8686858561412a565b60008481526007820160208181526040808420815160a080820184528254825260018084015483870181905260028086015485880152600380870154606080880191909152600497880154608080890191909152938c52998952878b2088519586018952805486529384015498850198909852820154958301959095529485015495810195909552920154908301529161405c89898888614089565b905061406e8989838560000151613c41565b61407e8989856000015184613c41565b505050505050505050565b60008381526001850160205260408120600681015482906140a8575060015b60018260060160008282546140bd91906145a3565b90915550506040805160a081018252858152600060208083018281528385018381524260608601908152608086019b8c5299845260079790970190915292902090518082559151600182015592516002840155935160038301555092516004909301929092559392505050565b60008381526001850160205260409020600481015461414f576138ad85858585613e9a565b600061415d86868686614089565b905061416f8686846005015484613c41565b60008581526001870160205260409020600501819055613eff565b6040805160a081019091528060008152602001600081526020016000815260200160006001600160a01b03168152602001600081525090565b6000602082840312156141d557600080fd5b5035919050565b6020808252825182820181905260009190848201906040850190845b81811015614214578351835292840192918401916001016141f8565b50909695505050505050565b6001600160a01b038116811461423557600080fd5b50565b60006020828403121561424a57600080fd5b8135610abd81614220565b80356002811061184f57600080fd5b60008060006060848603121561427957600080fd5b61428284614255565b95602085013595506040909401359392505050565b600080600080608085870312156142ad57600080fd5b6142b685614255565b935060208501356142c681614220565b93969395505050506040820135916060013590565b600080604083850312156142ee57600080fd5b82356142f981614220565b946020939093013593505050565b6000806040838503121561431a57600080fd5b50508035926020909101359150565b6000806000806080858703121561433f57600080fd5b843561434a81614220565b966020860135965060408601359560600135945092505050565b634e487b7160e01b600052602160045260246000fd5b6002811061439857634e487b7160e01b600052602160045260246000fd5b9052565b600060a0820190506143af82845161437a565b602083015160208301526040830151604083015260018060a01b0360608401511660608301526080830151608083015292915050565b634e487b7160e01b600052604160045260246000fd5b634e487b7160e01b600052603260045260246000fd5b634e487b7160e01b600052601160045260246000fd5b600060001982141561443b5761443b614411565b5060010190565b60208082526017908201527f4f6e6c7920416363657074656420436f6e747261637473000000000000000000604082015260600190565b6000815180845260005b8181101561449f57602081850181015186830182015201614483565b818111156144b1576000602083870101525b50601f01601f19169290920160200192915050565b82815260406020820152600061214f6040830184614479565b6000602082840312156144f157600080fd5b8151610abd81614220565b6020808252602b908201527f4e6f206f72646572732065786973747320666f722073656c656374656420696e60408201526a746572657374207261746560a81b606082015260800190565b8481526080810161455b602083018661437a565b60408201939093526060015292915050565b60008282101561457f5761457f614411565b500390565b600081600019048311821515161561459e5761459e614411565b500290565b600082198211156145b6576145b6614411565b500190565b60006001600160ff1b03818413828413808216868404861116156145e1576145e1614411565b600160ff1b600087128281168783058912161561460057614600614411565b6000871292508782058712848416161561461c5761461c614411565b8785058712818416161561463257614632614411565b505050929093029392505050565b634e487b7160e01b600052601260045260246000fd5b60008261466557614665614640565b600160ff1b82146000198414161561467f5761467f614411565b500590565b60008261469357614693614640565b500490565b86815260c081016146ac602083018861437a565b8560408301528460608301528360808301528260a0830152979650505050505050565b6000600160ff1b8214156146e5576146e5614411565b5060000390565b60208082526030908201527f4f7264657253746174697374696373547265652834303329202d2056616c756560408201526f103237b2b9903737ba1032bc34b9ba1760811b606082015260800190565b602081526000610abd6020830184614479565b600080821280156001600160ff1b038490038513161561477157614771614411565b600160ff1b839003841281161561478a5761478a614411565b50500190565b60008083128015600160ff1b8501841216156147ae576147ae614411565b6001600160ff1b03840183138116156147c9576147c9614411565b5050039056fe102c2681ef7c98b80d6ee00bc89c73fe6b29b6cc81206242bfb4c5c32e608d37102c2681ef7c98b80d6ee00bc89c73fe6b29b6cc81206242bfb4c5c32e608d38a2646970667358221220dc2ae698c76abda7e05edcb16c355a6e8d86d4bc410bb9c95d29e9ed8cb85d0964736f6c63430008090033",
  "devdoc": {
    "details": "The market orders is stored in structured red-black trees and doubly linked lists in each node.",
    "kind": "dev",
    "methods": {
      "acceptedContracts()": {
        "details": "The contact name listed in this method is also needed to be listed `requiredContracts` method."
      },
      "cancelOrder(address,uint256)": {
        "params": {
          "_orderId": "Market order id",
          "_user": "User address"
        }
      },
      "createOrder(uint8,address,uint256,uint256)": {
        "params": {
          "_amount": "Amount of funds the maker wants to borrow/lend",
          "_rate": "Amount of interest rate taker wish to borrow/lend",
          "_side": "Order position type, Borrow or Lend",
          "_user": "User's address"
        },
        "returns": {
          "amount": "The taken amount",
          "maker": "The maker address"
        }
      },
      "futureValueOf(address)": {
        "params": {
          "_user": "User address"
        },
        "returns": {
          "_0": "The future value in latest maturity"
        }
      },
      "getBorrowRate()": {
        "returns": {
          "rate": "The highest borrow rate"
        }
      },
      "getBorrowRates(uint256)": {
        "params": {
          "_limit": "Max limit to get rates"
        },
        "returns": {
          "rates": "The array of borrow rates"
        }
      },
      "getCurrency()": {
        "returns": {
          "currency": "The market currency"
        }
      },
      "getLendRate()": {
        "returns": {
          "rate": "The lowest lend rate"
        }
      },
      "getLendRates(uint256)": {
        "params": {
          "_limit": "Max limit to get rates"
        },
        "returns": {
          "rates": "The array of lending rates"
        }
      },
      "getMaker(uint256)": {
        "params": {
          "_orderId": "The market order id"
        },
        "returns": {
          "maker": "The order maker address"
        }
      },
      "getMarket()": {
        "returns": {
          "market": "The market data"
        }
      },
      "getMaturity()": {
        "returns": {
          "maturity": "The market maturity"
        }
      },
      "getMidRate()": {
        "returns": {
          "rate": "The mid rate"
        }
      },
      "getOrder(uint256)": {
        "params": {
          "_orderId": "The market order id"
        },
        "returns": {
          "order": "The market order information"
        }
      },
      "getOrderFromTree(uint256,uint256)": {
        "params": {
          "_maturity": "The maturity of the order book",
          "_orderId": "The market order id"
        },
        "returns": {
          "_0": "order The market order information"
        }
      },
      "initialize(address,bytes32,uint256,uint256)": {
        "details": "Function is invoked by the proxy contract when the contract is added to the ProxyController.",
        "params": {
          "_basisDate": "The basis date when the first market open",
          "_ccy": "The main currency for the order book",
          "_maturity": "The initial maturity of the market",
          "_resolver": "The address of the Address Resolver contract"
        }
      },
      "isMatured()": {
        "returns": {
          "_0": "The boolean if the market is matured or not"
        }
      },
      "isOpened()": {
        "returns": {
          "_0": "The boolean if the market is opened or not"
        }
      },
      "matchOrders(uint8,uint256,uint256)": {
        "params": {
          "_amount": "Amount of funds the maker wants to borrow/lend",
          "_rate": "Amount of interest rate taker wish to borrow/lend",
          "_side": "Order position type, Borrow or Lend"
        }
      },
      "openMarket(uint256)": {
        "params": {
          "_maturity": "The new maturity"
        }
      },
      "paused()": {
        "details": "Returns true if the contract is paused, and false otherwise."
      },
      "presentValueOf(address)": {
        "params": {
          "_user": "User address"
        },
        "returns": {
          "_0": "The present value"
        }
      },
      "removeFutureValueInPastMaturity(address)": {
        "params": {
          "_user": "User's address"
        },
        "returns": {
          "maturity": "Maturity of future value",
          "removedAmount": "Removed future value amount"
        }
      },
      "requiredContracts()": {
        "details": "The contract name list is in `./libraries/Contracts.sol`."
      }
    },
    "version": 1
  },
  "userdoc": {
    "kind": "user",
    "methods": {
      "acceptedContracts()": {
        "notice": "Returns contract names that can call this contract."
      },
      "cancelOrder(address,uint256)": {
        "notice": "Cancels the order."
      },
      "createOrder(uint8,address,uint256,uint256)": {
        "notice": "Creates the order. Takes the order if the order is matched, and places new order if not match it."
      },
      "futureValueOf(address)": {
        "notice": "Gets the future value in the latest maturity the user has. If the market is rotated, the maturity in the market is updated, so the existing future value is addressed as an old future value in old maturity. This method doesn't return those old future values."
      },
      "getBorrowRate()": {
        "notice": "Gets the highest borrow rate."
      },
      "getBorrowRates(uint256)": {
        "notice": "Gets the borrow rates."
      },
      "getCurrency()": {
        "notice": "Gets the market currency."
      },
      "getLendRate()": {
        "notice": "Gets the lowest lend rate."
      },
      "getLendRates(uint256)": {
        "notice": "Gets the lend rates."
      },
      "getMaker(uint256)": {
        "notice": "Gets the order maker address."
      },
      "getMarket()": {
        "notice": "Gets the market data."
      },
      "getMaturity()": {
        "notice": "Gets the current market maturity."
      },
      "getMidRate()": {
        "notice": "Gets the mid rate."
      },
      "getOrder(uint256)": {
        "notice": "Gets the market order information."
      },
      "getOrderFromTree(uint256,uint256)": {
        "notice": "Gets the market order from the order book in the maturity."
      },
      "initialize(address,bytes32,uint256,uint256)": {
        "notice": "Initializes the contract."
      },
      "isMatured()": {
        "notice": "Gets if the market is matured."
      },
      "isOpened()": {
        "notice": "Gets if the market is opened."
      },
      "matchOrders(uint8,uint256,uint256)": {
        "notice": "Gets if the market order will be matched or not. Returns zero if there is not a matched order. Reverts if no orders for specified interest rate."
      },
      "openMarket(uint256)": {
        "notice": "Opens market"
      },
      "pauseMarket()": {
        "notice": "Pauses the lending market."
      },
      "presentValueOf(address)": {
        "notice": "Gets the present value calculated from the future value & market rate."
      },
      "removeFutureValueInPastMaturity(address)": {
        "notice": "Remove all future values if there is an amount in the past maturity."
      },
      "requiredContracts()": {
        "notice": "Returns the contract names used in this contract."
      },
      "unpauseMarket()": {
        "notice": "Unpauses the lending market."
      }
    },
    "notice": "Implements the module that allows lending market participants to create/cancel market orders, and also provides a future value calculation module. For updates, this contract is basically called from `LendingMarketController.sol`instead of being called \\ directly by the user.",
    "version": 1
  },
  "storageLayout": {
    "storage": [
      {
        "astId": 15161,
        "contract": "contracts/LendingMarket.sol:LendingMarket",
        "label": "resolver",
        "offset": 0,
        "slot": "0",
        "type": "t_contract(IAddressResolver)8522"
      },
      {
        "astId": 15165,
        "contract": "contracts/LendingMarket.sol:LendingMarket",
        "label": "addressCache",
        "offset": 0,
        "slot": "1",
        "type": "t_mapping(t_bytes32,t_address)"
      },
      {
        "astId": 952,
        "contract": "contracts/LendingMarket.sol:LendingMarket",
        "label": "_paused",
        "offset": 0,
        "slot": "2",
        "type": "t_bool"
      },
      {
        "astId": 790,
        "contract": "contracts/LendingMarket.sol:LendingMarket",
        "label": "_initialized",
        "offset": 1,
        "slot": "2",
        "type": "t_uint8"
      },
      {
        "astId": 793,
        "contract": "contracts/LendingMarket.sol:LendingMarket",
        "label": "_initializing",
        "offset": 2,
        "slot": "2",
        "type": "t_bool"
      }
    ],
    "types": {
      "t_address": {
        "encoding": "inplace",
        "label": "address",
        "numberOfBytes": "20"
      },
      "t_bool": {
        "encoding": "inplace",
        "label": "bool",
        "numberOfBytes": "1"
      },
      "t_bytes32": {
        "encoding": "inplace",
        "label": "bytes32",
        "numberOfBytes": "32"
      },
      "t_contract(IAddressResolver)8522": {
        "encoding": "inplace",
        "label": "contract IAddressResolver",
        "numberOfBytes": "20"
      },
      "t_mapping(t_bytes32,t_address)": {
        "encoding": "mapping",
        "key": "t_bytes32",
        "label": "mapping(bytes32 => address)",
        "numberOfBytes": "32",
        "value": "t_address"
      },
      "t_uint8": {
        "encoding": "inplace",
        "label": "uint8",
        "numberOfBytes": "1"
      }
    }
  }
}