{
  "address": "0x653c78a6b17C1caFF82cA50BceaAFB504C68b230",
  "abi": [
    {
      "inputs": [],
      "name": "ContractLocked",
      "type": "error"
    },
    {
      "anonymous": false,
      "inputs": [
        {
          "indexed": false,
          "internalType": "bytes32",
          "name": "name",
          "type": "bytes32"
        },
        {
          "indexed": false,
          "internalType": "address",
          "name": "destination",
          "type": "address"
        }
      ],
      "name": "CacheUpdated",
      "type": "event"
    },
    {
      "anonymous": false,
      "inputs": [
        {
          "indexed": false,
          "internalType": "uint8",
          "name": "version",
          "type": "uint8"
        }
      ],
      "name": "Initialized",
      "type": "event"
    },
    {
      "anonymous": false,
      "inputs": [
        {
          "indexed": true,
          "internalType": "address",
          "name": "previousOwner",
          "type": "address"
        },
        {
          "indexed": true,
          "internalType": "address",
          "name": "newOwner",
          "type": "address"
        }
      ],
      "name": "OwnershipTransferred",
      "type": "event"
    },
    {
      "inputs": [],
      "name": "acceptedContracts",
      "outputs": [
        {
          "internalType": "bytes32[]",
          "name": "contracts",
          "type": "bytes32[]"
        }
      ],
      "stateMutability": "pure",
      "type": "function"
    },
    {
      "inputs": [],
      "name": "buildCache",
      "outputs": [],
      "stateMutability": "nonpayable",
      "type": "function"
    },
    {
      "inputs": [
        {
          "internalType": "bytes32",
          "name": "_ccy",
          "type": "bytes32"
        },
        {
          "internalType": "address",
          "name": "_user",
          "type": "address"
        },
        {
          "internalType": "uint256",
          "name": "_liquidationThresholdRate",
          "type": "uint256"
        }
      ],
      "name": "calculateFunds",
      "outputs": [
        {
          "internalType": "uint256",
          "name": "workingLendOrdersAmount",
          "type": "uint256"
        },
        {
          "internalType": "uint256",
          "name": "claimableAmount",
          "type": "uint256"
        },
        {
          "internalType": "uint256",
          "name": "collateralAmount",
          "type": "uint256"
        },
        {
          "internalType": "uint256",
          "name": "lentAmount",
          "type": "uint256"
        },
        {
          "internalType": "uint256",
          "name": "workingBorrowOrdersAmount",
          "type": "uint256"
        },
        {
          "internalType": "uint256",
          "name": "debtAmount",
          "type": "uint256"
        },
        {
          "internalType": "uint256",
          "name": "borrowedAmount",
          "type": "uint256"
        }
      ],
      "stateMutability": "view",
      "type": "function"
    },
    {
      "inputs": [
        {
          "internalType": "address",
          "name": "_user",
          "type": "address"
        },
        {
          "components": [
            {
              "internalType": "bytes32",
              "name": "ccy",
              "type": "bytes32"
            },
            {
              "internalType": "uint256",
              "name": "claimableAmount",
              "type": "uint256"
            },
            {
              "internalType": "uint256",
              "name": "debtAmount",
              "type": "uint256"
            },
            {
              "internalType": "uint256",
              "name": "lentAmount",
              "type": "uint256"
            },
            {
              "internalType": "uint256",
              "name": "borrowedAmount",
              "type": "uint256"
            }
          ],
          "internalType": "struct ILendingMarketController.AdditionalFunds",
          "name": "_additionalFunds",
          "type": "tuple"
        },
        {
          "internalType": "uint256",
          "name": "_liquidationThresholdRate",
          "type": "uint256"
        }
      ],
      "name": "calculateTotalFundsInBaseCurrency",
      "outputs": [
        {
          "internalType": "uint256",
          "name": "plusDepositAmountInAdditionalFundsCcy",
          "type": "uint256"
        },
        {
          "internalType": "uint256",
          "name": "minusDepositAmountInAdditionalFundsCcy",
          "type": "uint256"
        },
        {
          "internalType": "uint256",
          "name": "totalWorkingLendOrdersAmount",
          "type": "uint256"
        },
        {
          "internalType": "uint256",
          "name": "totalClaimableAmount",
          "type": "uint256"
        },
        {
          "internalType": "uint256",
          "name": "totalCollateralAmount",
          "type": "uint256"
        },
        {
          "internalType": "uint256",
          "name": "totalLentAmount",
          "type": "uint256"
        },
        {
          "internalType": "uint256",
          "name": "totalWorkingBorrowOrdersAmount",
          "type": "uint256"
        },
        {
          "internalType": "uint256",
          "name": "totalDebtAmount",
          "type": "uint256"
        },
        {
          "internalType": "uint256",
          "name": "totalBorrowedAmount",
          "type": "uint256"
        }
      ],
      "stateMutability": "view",
      "type": "function"
    },
    {
      "inputs": [
        {
          "internalType": "bytes32",
          "name": "_ccy",
          "type": "bytes32"
        },
        {
          "internalType": "uint256",
          "name": "_maturity",
          "type": "uint256"
        },
        {
          "internalType": "uint48",
          "name": "_orderId",
          "type": "uint48"
        }
      ],
      "name": "cancelOrder",
      "outputs": [
        {
          "internalType": "bool",
          "name": "",
          "type": "bool"
        }
      ],
      "stateMutability": "nonpayable",
      "type": "function"
    },
    {
      "inputs": [
        {
          "internalType": "address",
          "name": "_user",
          "type": "address"
        }
      ],
      "name": "cleanUpAllFunds",
      "outputs": [
        {
          "internalType": "bool",
          "name": "",
          "type": "bool"
        }
      ],
      "stateMutability": "nonpayable",
      "type": "function"
    },
    {
      "inputs": [
        {
          "internalType": "bytes32",
          "name": "_ccy",
          "type": "bytes32"
        },
        {
          "internalType": "address",
          "name": "_user",
          "type": "address"
        }
      ],
      "name": "cleanUpFunds",
      "outputs": [
        {
          "internalType": "uint256",
          "name": "totalActiveOrderCount",
          "type": "uint256"
        }
      ],
      "stateMutability": "nonpayable",
      "type": "function"
    },
    {
      "inputs": [
        {
          "internalType": "bytes32",
          "name": "_ccy",
          "type": "bytes32"
        },
        {
          "internalType": "uint256",
          "name": "_openingDate",
          "type": "uint256"
        }
      ],
      "name": "createLendingMarket",
      "outputs": [],
      "stateMutability": "nonpayable",
      "type": "function"
    },
    {
      "inputs": [
        {
          "internalType": "bytes32",
          "name": "_ccy",
          "type": "bytes32"
        },
        {
          "internalType": "uint256",
          "name": "_maturity",
          "type": "uint256"
        },
        {
          "internalType": "enum ProtocolTypes.Side",
          "name": "_side",
          "type": "uint8"
        },
        {
          "internalType": "uint256",
          "name": "_amount",
          "type": "uint256"
        },
        {
          "internalType": "uint256",
          "name": "_unitPrice",
          "type": "uint256"
        }
      ],
      "name": "depositAndExecuteOrder",
      "outputs": [
        {
          "internalType": "bool",
          "name": "",
          "type": "bool"
        }
      ],
      "stateMutability": "payable",
      "type": "function"
    },
    {
      "inputs": [
        {
          "internalType": "bytes32",
          "name": "_ccy",
          "type": "bytes32"
        },
        {
          "internalType": "uint256",
          "name": "_maturity",
          "type": "uint256"
        },
        {
          "internalType": "enum ProtocolTypes.Side",
          "name": "_side",
          "type": "uint8"
        },
        {
          "internalType": "uint256",
          "name": "_amount",
          "type": "uint256"
        },
        {
          "internalType": "uint256",
          "name": "_unitPrice",
          "type": "uint256"
        }
      ],
      "name": "depositAndExecutesPreOrder",
      "outputs": [
        {
          "internalType": "bool",
          "name": "",
          "type": "bool"
        }
      ],
      "stateMutability": "payable",
      "type": "function"
    },
    {
      "inputs": [],
      "name": "executeEmergencySettlement",
      "outputs": [
        {
          "internalType": "bool",
          "name": "",
          "type": "bool"
        }
      ],
      "stateMutability": "nonpayable",
      "type": "function"
    },
    {
      "inputs": [],
      "name": "executeEmergencyTermination",
      "outputs": [],
      "stateMutability": "nonpayable",
      "type": "function"
    },
    {
      "inputs": [
        {
          "internalType": "bytes32",
          "name": "_collateralCcy",
          "type": "bytes32"
        },
        {
          "internalType": "bytes32",
          "name": "_debtCcy",
          "type": "bytes32"
        },
        {
          "internalType": "uint256",
          "name": "_debtMaturity",
          "type": "uint256"
        },
        {
          "internalType": "address",
          "name": "_user",
          "type": "address"
        }
      ],
      "name": "executeForcedRepayment",
      "outputs": [
        {
          "internalType": "bool",
          "name": "",
          "type": "bool"
        }
      ],
      "stateMutability": "nonpayable",
      "type": "function"
    },
    {
      "inputs": [
        {
          "internalType": "bytes32[]",
          "name": "_currencies",
          "type": "bytes32[]"
        },
        {
          "internalType": "uint256",
          "name": "_maturity",
          "type": "uint256"
        }
      ],
      "name": "executeItayoseCalls",
      "outputs": [
        {
          "internalType": "bool",
          "name": "",
          "type": "bool"
        }
      ],
      "stateMutability": "nonpayable",
      "type": "function"
    },
    {
      "inputs": [
        {
          "internalType": "bytes32",
          "name": "_collateralCcy",
          "type": "bytes32"
        },
        {
          "internalType": "bytes32",
          "name": "_debtCcy",
          "type": "bytes32"
        },
        {
          "internalType": "uint256",
          "name": "_debtMaturity",
          "type": "uint256"
        },
        {
          "internalType": "address",
          "name": "_user",
          "type": "address"
        }
      ],
      "name": "executeLiquidationCall",
      "outputs": [
        {
          "internalType": "bool",
          "name": "",
          "type": "bool"
        }
      ],
      "stateMutability": "nonpayable",
      "type": "function"
    },
    {
      "inputs": [
        {
          "internalType": "bytes32",
          "name": "_ccy",
          "type": "bytes32"
        },
        {
          "internalType": "uint256",
          "name": "_maturity",
          "type": "uint256"
        },
        {
          "internalType": "enum ProtocolTypes.Side",
          "name": "_side",
          "type": "uint8"
        },
        {
          "internalType": "uint256",
          "name": "_amount",
          "type": "uint256"
        },
        {
          "internalType": "uint256",
          "name": "_unitPrice",
          "type": "uint256"
        }
      ],
      "name": "executeOrder",
      "outputs": [
        {
          "internalType": "bool",
          "name": "",
          "type": "bool"
        }
      ],
      "stateMutability": "nonpayable",
      "type": "function"
    },
    {
      "inputs": [
        {
          "internalType": "bytes32",
          "name": "_ccy",
          "type": "bytes32"
        },
        {
          "internalType": "uint256",
          "name": "_maturity",
          "type": "uint256"
        },
        {
          "internalType": "enum ProtocolTypes.Side",
          "name": "_side",
          "type": "uint8"
        },
        {
          "internalType": "uint256",
          "name": "_amount",
          "type": "uint256"
        },
        {
          "internalType": "uint256",
          "name": "_unitPrice",
          "type": "uint256"
        }
      ],
      "name": "executePreOrder",
      "outputs": [
        {
          "internalType": "bool",
          "name": "",
          "type": "bool"
        }
      ],
      "stateMutability": "nonpayable",
      "type": "function"
    },
    {
      "inputs": [
        {
          "internalType": "bytes32",
          "name": "_ccy",
          "type": "bytes32"
        },
        {
          "internalType": "uint256",
          "name": "_maturity",
          "type": "uint256"
        }
      ],
      "name": "executeRedemption",
      "outputs": [
        {
          "internalType": "bool",
          "name": "",
          "type": "bool"
        }
      ],
      "stateMutability": "nonpayable",
      "type": "function"
    },
    {
      "inputs": [
        {
          "internalType": "bytes32",
          "name": "_ccy",
          "type": "bytes32"
        },
        {
          "internalType": "uint256",
          "name": "_maturity",
          "type": "uint256"
        }
      ],
      "name": "executeRepayment",
      "outputs": [
        {
          "internalType": "bool",
          "name": "",
          "type": "bool"
        }
      ],
      "stateMutability": "nonpayable",
      "type": "function"
    },
    {
      "inputs": [
        {
          "internalType": "bytes32",
          "name": "_ccy",
          "type": "bytes32"
        },
        {
          "internalType": "uint256",
          "name": "_maturity",
          "type": "uint256"
        },
        {
          "internalType": "uint256",
          "name": "_limit",
          "type": "uint256"
        }
      ],
      "name": "getBorrowOrderBook",
      "outputs": [
        {
          "internalType": "uint256[]",
          "name": "unitPrices",
          "type": "uint256[]"
        },
        {
          "internalType": "uint256[]",
          "name": "amounts",
          "type": "uint256[]"
        },
        {
          "internalType": "uint256[]",
          "name": "quantities",
          "type": "uint256[]"
        }
      ],
      "stateMutability": "view",
      "type": "function"
    },
    {
      "inputs": [
        {
          "internalType": "bytes32",
          "name": "_ccy",
          "type": "bytes32"
        }
      ],
      "name": "getBorrowUnitPrices",
      "outputs": [
        {
          "internalType": "uint256[]",
          "name": "",
          "type": "uint256[]"
        }
      ],
      "stateMutability": "view",
      "type": "function"
    },
    {
      "inputs": [
        {
          "internalType": "bytes32",
          "name": "_ccy",
          "type": "bytes32"
        }
      ],
      "name": "getCircuitBreakerLimitRange",
      "outputs": [
        {
          "internalType": "uint256",
          "name": "",
          "type": "uint256"
        }
      ],
      "stateMutability": "view",
      "type": "function"
    },
    {
      "inputs": [
        {
          "internalType": "bytes32",
          "name": "_ccy",
          "type": "bytes32"
        },
        {
          "internalType": "uint256",
          "name": "_maturity",
          "type": "uint256"
        }
      ],
      "name": "getFutureValueVault",
      "outputs": [
        {
          "internalType": "address",
          "name": "",
          "type": "address"
        }
      ],
      "stateMutability": "view",
      "type": "function"
    },
    {
      "inputs": [
        {
          "internalType": "bytes32",
          "name": "_ccy",
          "type": "bytes32"
        }
      ],
      "name": "getGenesisDate",
      "outputs": [
        {
          "internalType": "uint256",
          "name": "",
          "type": "uint256"
        }
      ],
      "stateMutability": "view",
      "type": "function"
    },
    {
      "inputs": [
        {
          "internalType": "bytes32",
          "name": "_ccy",
          "type": "bytes32"
        },
        {
          "internalType": "address",
          "name": "_user",
          "type": "address"
        }
      ],
      "name": "getGenesisValue",
      "outputs": [
        {
          "internalType": "int256",
          "name": "genesisValue",
          "type": "int256"
        }
      ],
      "stateMutability": "view",
      "type": "function"
    },
    {
      "inputs": [
        {
          "internalType": "bytes32",
          "name": "_ccy",
          "type": "bytes32"
        },
        {
          "internalType": "uint256",
          "name": "_maturity",
          "type": "uint256"
        },
        {
          "internalType": "uint256",
          "name": "_limit",
          "type": "uint256"
        }
      ],
      "name": "getLendOrderBook",
      "outputs": [
        {
          "internalType": "uint256[]",
          "name": "unitPrices",
          "type": "uint256[]"
        },
        {
          "internalType": "uint256[]",
          "name": "amounts",
          "type": "uint256[]"
        },
        {
          "internalType": "uint256[]",
          "name": "quantities",
          "type": "uint256[]"
        }
      ],
      "stateMutability": "view",
      "type": "function"
    },
    {
      "inputs": [
        {
          "internalType": "bytes32",
          "name": "_ccy",
          "type": "bytes32"
        }
      ],
      "name": "getLendUnitPrices",
      "outputs": [
        {
          "internalType": "uint256[]",
          "name": "",
          "type": "uint256[]"
        }
      ],
      "stateMutability": "view",
      "type": "function"
    },
    {
      "inputs": [
        {
          "internalType": "bytes32",
          "name": "_ccy",
          "type": "bytes32"
        },
        {
          "internalType": "uint256",
          "name": "_maturity",
          "type": "uint256"
        }
      ],
      "name": "getLendingMarket",
      "outputs": [
        {
          "internalType": "address",
          "name": "",
          "type": "address"
        }
      ],
      "stateMutability": "view",
      "type": "function"
    },
    {
      "inputs": [
        {
          "internalType": "bytes32",
          "name": "_ccy",
          "type": "bytes32"
        },
        {
          "internalType": "uint256",
          "name": "_maturity",
          "type": "uint256"
        }
      ],
      "name": "getLendingMarketDetail",
      "outputs": [
        {
          "internalType": "uint256",
          "name": "bestLendUnitPrice",
          "type": "uint256"
        },
        {
          "internalType": "uint256",
          "name": "bestBorrowUnitPrice",
          "type": "uint256"
        },
        {
          "internalType": "uint256",
          "name": "midUnitPrice",
          "type": "uint256"
        },
        {
          "internalType": "uint256",
          "name": "maxLendUnitPrice",
          "type": "uint256"
        },
        {
          "internalType": "uint256",
          "name": "minBorrowUnitPrice",
          "type": "uint256"
        },
        {
          "internalType": "uint256",
          "name": "openingUnitPrice",
          "type": "uint256"
        },
        {
          "internalType": "uint256",
          "name": "openingDate",
          "type": "uint256"
        },
        {
          "internalType": "bool",
          "name": "isReady",
          "type": "bool"
        }
      ],
      "stateMutability": "view",
      "type": "function"
    },
    {
      "inputs": [
        {
          "internalType": "bytes32[]",
          "name": "_ccys",
          "type": "bytes32[]"
        }
      ],
      "name": "getLendingMarketDetails",
      "outputs": [
        {
          "components": [
            {
              "internalType": "bytes32",
              "name": "ccy",
              "type": "bytes32"
            },
            {
              "internalType": "uint256",
              "name": "maturity",
              "type": "uint256"
            },
            {
              "internalType": "uint256",
              "name": "bestLendUnitPrice",
              "type": "uint256"
            },
            {
              "internalType": "uint256",
              "name": "bestBorrowUnitPrice",
              "type": "uint256"
            },
            {
              "internalType": "uint256",
              "name": "midUnitPrice",
              "type": "uint256"
            },
            {
              "internalType": "uint256",
              "name": "maxLendUnitPrice",
              "type": "uint256"
            },
            {
              "internalType": "uint256",
              "name": "minBorrowUnitPrice",
              "type": "uint256"
            },
            {
              "internalType": "uint256",
              "name": "openingUnitPrice",
              "type": "uint256"
            },
            {
              "internalType": "uint256",
              "name": "openingDate",
              "type": "uint256"
            },
            {
              "internalType": "bool",
              "name": "isReady",
              "type": "bool"
            }
          ],
          "internalType": "struct ILendingMarketController.LendingMarketDetail[]",
          "name": "lendingMarketDetails",
          "type": "tuple[]"
        }
      ],
      "stateMutability": "view",
      "type": "function"
    },
    {
      "inputs": [
        {
          "internalType": "bytes32",
          "name": "_ccy",
          "type": "bytes32"
        }
      ],
      "name": "getLendingMarkets",
      "outputs": [
        {
          "internalType": "address[]",
          "name": "",
          "type": "address[]"
        }
      ],
      "stateMutability": "view",
      "type": "function"
    },
    {
      "inputs": [
        {
          "internalType": "bytes32",
          "name": "_ccy",
          "type": "bytes32"
        }
      ],
      "name": "getMaturities",
      "outputs": [
        {
          "internalType": "uint256[]",
          "name": "",
          "type": "uint256[]"
        }
      ],
      "stateMutability": "view",
      "type": "function"
    },
    {
      "inputs": [
        {
          "internalType": "bytes32",
          "name": "_ccy",
          "type": "bytes32"
        }
      ],
      "name": "getMidUnitPrices",
      "outputs": [
        {
          "internalType": "uint256[]",
          "name": "",
          "type": "uint256[]"
        }
      ],
      "stateMutability": "view",
      "type": "function"
    },
    {
      "inputs": [],
      "name": "getObservationPeriod",
      "outputs": [
        {
          "internalType": "uint256",
          "name": "",
          "type": "uint256"
        }
      ],
      "stateMutability": "view",
      "type": "function"
    },
    {
      "inputs": [
        {
          "internalType": "bytes32",
          "name": "_ccy",
          "type": "bytes32"
        },
        {
          "internalType": "uint256",
          "name": "_maturity",
          "type": "uint256"
        },
        {
          "internalType": "enum ProtocolTypes.Side",
          "name": "_side",
          "type": "uint8"
        },
        {
          "internalType": "uint256",
          "name": "_amount",
          "type": "uint256"
        },
        {
          "internalType": "uint256",
          "name": "_unitPrice",
          "type": "uint256"
        },
        {
          "internalType": "uint256",
          "name": "_additionalDepositAmount",
          "type": "uint256"
        },
        {
          "internalType": "bool",
          "name": "_ignoreBorrowedAmount",
          "type": "bool"
        }
      ],
      "name": "getOrderEstimation",
      "outputs": [
        {
          "internalType": "uint256",
          "name": "lastUnitPrice",
          "type": "uint256"
        },
        {
          "internalType": "uint256",
          "name": "filledAmount",
          "type": "uint256"
        },
        {
          "internalType": "uint256",
          "name": "filledAmountInFV",
          "type": "uint256"
        },
        {
          "internalType": "uint256",
          "name": "orderFeeInFV",
          "type": "uint256"
        },
        {
          "internalType": "uint256",
          "name": "coverage",
          "type": "uint256"
        },
        {
          "internalType": "bool",
          "name": "isInsufficientDepositAmount",
          "type": "bool"
        }
      ],
      "stateMutability": "view",
      "type": "function"
    },
    {
      "inputs": [
        {
          "internalType": "bytes32",
          "name": "_ccy",
          "type": "bytes32"
        }
      ],
      "name": "getOrderFeeRate",
      "outputs": [
        {
          "internalType": "uint256",
          "name": "",
          "type": "uint256"
        }
      ],
      "stateMutability": "view",
      "type": "function"
    },
    {
      "inputs": [
        {
          "internalType": "bytes32[]",
          "name": "_ccys",
          "type": "bytes32[]"
        },
        {
          "internalType": "address",
          "name": "_user",
          "type": "address"
        }
      ],
      "name": "getOrders",
      "outputs": [
        {
          "components": [
            {
              "internalType": "uint48",
              "name": "orderId",
              "type": "uint48"
            },
            {
              "internalType": "bytes32",
              "name": "ccy",
              "type": "bytes32"
            },
            {
              "internalType": "uint256",
              "name": "maturity",
              "type": "uint256"
            },
            {
              "internalType": "enum ProtocolTypes.Side",
              "name": "side",
              "type": "uint8"
            },
            {
              "internalType": "uint256",
              "name": "unitPrice",
              "type": "uint256"
            },
            {
              "internalType": "uint256",
              "name": "amount",
              "type": "uint256"
            },
            {
              "internalType": "uint256",
              "name": "timestamp",
              "type": "uint256"
            },
            {
              "internalType": "bool",
              "name": "isPreOrder",
              "type": "bool"
            }
          ],
          "internalType": "struct ILendingMarketController.Order[]",
          "name": "activeOrders",
          "type": "tuple[]"
        },
        {
          "components": [
            {
              "internalType": "uint48",
              "name": "orderId",
              "type": "uint48"
            },
            {
              "internalType": "bytes32",
              "name": "ccy",
              "type": "bytes32"
            },
            {
              "internalType": "uint256",
              "name": "maturity",
              "type": "uint256"
            },
            {
              "internalType": "enum ProtocolTypes.Side",
              "name": "side",
              "type": "uint8"
            },
            {
              "internalType": "uint256",
              "name": "unitPrice",
              "type": "uint256"
            },
            {
              "internalType": "uint256",
              "name": "amount",
              "type": "uint256"
            },
            {
              "internalType": "uint256",
              "name": "timestamp",
              "type": "uint256"
            },
            {
              "internalType": "bool",
              "name": "isPreOrder",
              "type": "bool"
            }
          ],
          "internalType": "struct ILendingMarketController.Order[]",
          "name": "inactiveOrders",
          "type": "tuple[]"
        }
      ],
      "stateMutability": "view",
      "type": "function"
    },
    {
      "inputs": [
        {
          "internalType": "bytes32",
          "name": "_ccy",
          "type": "bytes32"
        },
        {
          "internalType": "uint256",
          "name": "_maturity",
          "type": "uint256"
        },
        {
          "internalType": "address",
          "name": "_user",
          "type": "address"
        }
      ],
      "name": "getPosition",
      "outputs": [
        {
          "internalType": "int256",
          "name": "presentValue",
          "type": "int256"
        },
        {
          "internalType": "int256",
          "name": "futureValue",
          "type": "int256"
        }
      ],
      "stateMutability": "view",
      "type": "function"
    },
    {
      "inputs": [
        {
          "internalType": "bytes32[]",
          "name": "_ccys",
          "type": "bytes32[]"
        },
        {
          "internalType": "address",
          "name": "_user",
          "type": "address"
        }
      ],
      "name": "getPositions",
      "outputs": [
        {
          "components": [
            {
              "internalType": "bytes32",
              "name": "ccy",
              "type": "bytes32"
            },
            {
              "internalType": "uint256",
              "name": "maturity",
              "type": "uint256"
            },
            {
              "internalType": "int256",
              "name": "presentValue",
              "type": "int256"
            },
            {
              "internalType": "int256",
              "name": "futureValue",
              "type": "int256"
            }
          ],
          "internalType": "struct ILendingMarketController.Position[]",
          "name": "positions",
          "type": "tuple[]"
        }
      ],
      "stateMutability": "view",
      "type": "function"
    },
    {
      "inputs": [
        {
          "internalType": "bytes32",
          "name": "_ccy",
          "type": "bytes32"
        },
        {
          "internalType": "address",
          "name": "_user",
          "type": "address"
        }
      ],
      "name": "getTotalPresentValue",
      "outputs": [
        {
          "internalType": "int256",
          "name": "totalPresentValue",
          "type": "int256"
        }
      ],
      "stateMutability": "view",
      "type": "function"
    },
    {
      "inputs": [
        {
          "internalType": "address",
          "name": "_user",
          "type": "address"
        }
      ],
      "name": "getTotalPresentValueInBaseCurrency",
      "outputs": [
        {
          "internalType": "int256",
          "name": "totalPresentValue",
          "type": "int256"
        }
      ],
      "stateMutability": "view",
      "type": "function"
    },
    {
      "inputs": [
        {
          "internalType": "address",
          "name": "_user",
          "type": "address"
        }
      ],
      "name": "getUsedCurrencies",
      "outputs": [
        {
          "internalType": "bytes32[]",
          "name": "",
          "type": "bytes32[]"
        }
      ],
      "stateMutability": "view",
      "type": "function"
    },
    {
      "inputs": [
        {
          "internalType": "address",
          "name": "_owner",
          "type": "address"
        },
        {
          "internalType": "address",
          "name": "_resolver",
          "type": "address"
        },
        {
          "internalType": "uint256",
          "name": "_marketBasePeriod",
          "type": "uint256"
        },
        {
          "internalType": "uint256",
          "name": "_observationPeriod",
          "type": "uint256"
        }
      ],
      "name": "initialize",
      "outputs": [],
      "stateMutability": "nonpayable",
      "type": "function"
    },
    {
      "inputs": [
        {
          "internalType": "bytes32",
          "name": "_ccy",
          "type": "bytes32"
        },
        {
          "internalType": "uint256",
          "name": "_genesisDate",
          "type": "uint256"
        },
        {
          "internalType": "uint256",
          "name": "_compoundFactor",
          "type": "uint256"
        },
        {
          "internalType": "uint256",
          "name": "_orderFeeRate",
          "type": "uint256"
        },
        {
          "internalType": "uint256",
          "name": "_circuitBreakerLimitRange",
          "type": "uint256"
        }
      ],
      "name": "initializeLendingMarket",
      "outputs": [],
      "stateMutability": "nonpayable",
      "type": "function"
    },
    {
      "inputs": [
        {
          "internalType": "bytes32",
          "name": "_ccy",
          "type": "bytes32"
        }
      ],
      "name": "isInitializedLendingMarket",
      "outputs": [
        {
          "internalType": "bool",
          "name": "",
          "type": "bool"
        }
      ],
      "stateMutability": "view",
      "type": "function"
    },
    {
      "inputs": [
        {
          "internalType": "address",
          "name": "_user",
          "type": "address"
        }
      ],
      "name": "isRedemptionRequired",
      "outputs": [
        {
          "internalType": "bool",
          "name": "",
          "type": "bool"
        }
      ],
      "stateMutability": "view",
      "type": "function"
    },
    {
      "inputs": [],
      "name": "isResolverCached",
      "outputs": [
        {
          "internalType": "bool",
          "name": "",
          "type": "bool"
        }
      ],
      "stateMutability": "view",
      "type": "function"
    },
    {
      "inputs": [],
      "name": "isTerminated",
      "outputs": [
        {
          "internalType": "bool",
          "name": "",
          "type": "bool"
        }
      ],
      "stateMutability": "view",
      "type": "function"
    },
    {
      "inputs": [],
      "name": "owner",
      "outputs": [
        {
          "internalType": "address",
          "name": "",
          "type": "address"
        }
      ],
      "stateMutability": "view",
      "type": "function"
    },
    {
      "inputs": [
        {
          "internalType": "bytes32",
          "name": "_ccy",
          "type": "bytes32"
        }
      ],
      "name": "pauseLendingMarkets",
      "outputs": [
        {
          "internalType": "bool",
          "name": "",
          "type": "bool"
        }
      ],
      "stateMutability": "nonpayable",
      "type": "function"
    },
    {
      "inputs": [],
      "name": "renounceOwnership",
      "outputs": [],
      "stateMutability": "nonpayable",
      "type": "function"
    },
    {
      "inputs": [],
      "name": "requiredContracts",
      "outputs": [
        {
          "internalType": "bytes32[]",
          "name": "contracts",
          "type": "bytes32[]"
        }
      ],
      "stateMutability": "pure",
      "type": "function"
    },
    {
      "inputs": [],
      "name": "resolver",
      "outputs": [
        {
          "internalType": "contract IAddressResolver",
          "name": "",
          "type": "address"
        }
      ],
      "stateMutability": "view",
      "type": "function"
    },
    {
      "inputs": [
        {
          "internalType": "bytes32",
          "name": "_ccy",
          "type": "bytes32"
        }
      ],
      "name": "rotateLendingMarkets",
      "outputs": [],
      "stateMutability": "nonpayable",
      "type": "function"
    },
    {
      "inputs": [
        {
          "internalType": "address",
          "name": "newOwner",
          "type": "address"
        }
      ],
      "name": "transferOwnership",
      "outputs": [],
      "stateMutability": "nonpayable",
      "type": "function"
    },
    {
      "inputs": [
        {
          "internalType": "bytes32",
          "name": "_ccy",
          "type": "bytes32"
        }
      ],
      "name": "unpauseLendingMarkets",
      "outputs": [
        {
          "internalType": "bool",
          "name": "",
          "type": "bool"
        }
      ],
      "stateMutability": "nonpayable",
      "type": "function"
    },
    {
      "inputs": [
        {
          "internalType": "bytes32",
          "name": "_ccy",
          "type": "bytes32"
        },
        {
          "internalType": "uint256",
          "name": "_maturity",
          "type": "uint256"
        }
      ],
      "name": "unwindPosition",
      "outputs": [
        {
          "internalType": "bool",
          "name": "",
          "type": "bool"
        }
      ],
      "stateMutability": "nonpayable",
      "type": "function"
    },
    {
      "inputs": [
        {
          "internalType": "bytes32",
          "name": "_ccy",
          "type": "bytes32"
        },
        {
          "internalType": "uint256",
          "name": "_limitRange",
          "type": "uint256"
        }
      ],
      "name": "updateCircuitBreakerLimitRange",
      "outputs": [],
      "stateMutability": "nonpayable",
      "type": "function"
    },
    {
      "inputs": [
        {
          "internalType": "uint256",
          "name": "_observationPeriod",
          "type": "uint256"
        }
      ],
      "name": "updateObservationPeriod",
      "outputs": [],
      "stateMutability": "nonpayable",
      "type": "function"
    },
    {
      "inputs": [
        {
          "internalType": "bytes32",
          "name": "_ccy",
          "type": "bytes32"
        },
        {
          "internalType": "uint256",
          "name": "_orderFeeRate",
          "type": "uint256"
        }
      ],
      "name": "updateOrderFeeRate",
      "outputs": [],
      "stateMutability": "nonpayable",
      "type": "function"
    }
  ],
  "transactionHash": "0xf60489f420ea6bcd4dac52461345030621308267c84509956fbe2fe31de7f74b",
  "args": [],
  "numDeployments": 4,
  "solcInputHash": "22a2da44577d42bc86169e7d248c7df7",
  "bytecode": "0x608060405234801561001057600080fd5b50600160005561563a80620000266000396000f3fe6080604052600436106103975760003560e01c8063826b47e8116101dc578063b1d0f2f011610102578063e0a17443116100a0578063f1eaebae1161006f578063f1eaebae14610c01578063f2fde38b14610c35578063f43947c714610c55578063fc70081014610c7557600080fd5b8063e0a1744314610b8e578063e99d053814610ba1578063eb092a2614610bc1578063eb990c5914610be157600080fd5b8063bfd10cf6116100dc578063bfd10cf614610b24578063c11333b114610b44578063d1cc997614610b64578063e099765914610b7957600080fd5b8063b1d0f2f014610acf578063b3cb845014610aef578063b8f117cd14610b0f57600080fd5b80638b36d8331161017a5780639519832b116101495780639519832b14610a4f578063953dbcaa14610a6f578063a02be3dc14610a8f578063a4c66bde14610aaf57600080fd5b80638b36d833146109e55780638c197d8d14610a055780638da5cb5b14610a2557806394e75a3e14610a3a57600080fd5b8063862fd6e5116101b6578063862fd6e514610965578063886f4b4514610985578063891d5965146109a55780638a981745146109c557600080fd5b8063826b47e8146109055780638469973f1461092557806385323e1a1461094557600080fd5b80633d03b9da116102c1578063697625891161025f578063766cb64e1161022e578063766cb64e14610878578063798ac0c0146108985780637b588aaa146108c55780637c63039d146108e557600080fd5b806369762589146107bf57806370c641a614610823578063715018a61461084357806372d563ef1461085857600080fd5b80634e78fecc1161029b5780634e78fecc146106c957806355aceb4e146107155780635ca65d5714610742578063682729ee1461076257600080fd5b80633d03b9da14610659578063482f267a1461067b57806349f2ccbf146106a957600080fd5b80631b4023bc116103395780632e292472116103085780632e292472146105bf5780632e6c5e67146105ec5780632ef5ddaf1461060c578063381ada1f1461062c57600080fd5b80631b4023bc146104ef57806324e4ae051461053e57806329985e5a146105935780632af64bd3146105aa57600080fd5b80630594de6e116103755780630594de6e14610458578063062ea294146104875780630b60d6d3146104bc57806317b72ff4146104cf57600080fd5b806301cf22351461039c57806303e5fb59146103d157806304f3bcec1461042b575b600080fd5b3480156103a857600080fd5b506103bc6103b7366004614353565b610c95565b60405190151581526020015b60405180910390f35b3480156103dd57600080fd5b5061041d6103ec366004614375565b60009081527ffd57fda692f2d6ebd63634bcff565f4a5bd9da5175c220bd0ae0da0b8f69d317602052604090205490565b6040519081526020016103c8565b34801561043757600080fd5b50610440610dbc565b6040516001600160a01b0390911681526020016103c8565b34801561046457600080fd5b5061047861047336600461438e565b610ddd565b6040516103c8939291906143f5565b34801561049357600080fd5b506104a76104a236600461444d565b610e9c565b604080519283526020830191909152016103c8565b6103bc6104ca366004614493565b610f35565b3480156104db57600080fd5b5061041d6104ea3660046144dc565b6110cf565b3480156104fb57600080fd5b5061050f61050a36600461451a565b611165565b6040805196875260208701959095529385019290925260608401526080830152151560a082015260c0016103c8565b34801561054a57600080fd5b5061055e610559366004614583565b61121f565b604080519788526020880196909652948601939093526060850191909152608084015260a083015260c082015260e0016103c8565b34801561059f57600080fd5b506105a8611378565b005b3480156105b657600080fd5b506103bc61152d565b3480156105cb57600080fd5b506105df6105da366004614720565b611693565b6040516103c89190614754565b3480156105f857600080fd5b506103bc610607366004614375565b611727565b34801561061857600080fd5b506103bc610627366004614493565b611747565b34801561063857600080fd5b5061064c610647366004614375565b61182a565b6040516103c891906147f9565b34801561066557600080fd5b5061066e6118a8565b6040516103c89190614846565b34801561068757600080fd5b5061069b61069636600461487e565b6119ca565b6040516103c8929190614973565b3480156106b557600080fd5b506103bc6106c43660046149b5565b611a65565b3480156106d557600080fd5b5061041d6106e4366004614375565b60009081527ffd57fda692f2d6ebd63634bcff565f4a5bd9da5175c220bd0ae0da0b8f69d318602052604090205490565b34801561072157600080fd5b50610735610730366004614375565b611bae565b6040516103c891906149e3565b34801561074e57600080fd5b506105a861075d366004614353565b611d1f565b34801561076e57600080fd5b5061078261077d366004614353565b611dbd565b604080519889526020890197909752958701949094526060860192909252608085015260a084015260c0830152151560e0820152610100016103c8565b3480156107cb57600080fd5b506107df6107da3660046149f6565b611e79565b60408051998a5260208a0198909852968801959095526060870193909352608086019190915260a085015260c084015260e0830152610100820152610120016103c8565b34801561082f57600080fd5b5061041d61083e3660046144dc565b611f6f565b34801561084f57600080fd5b506105a8612009565b34801561086457600080fd5b506105a8610873366004614353565b612044565b34801561088457600080fd5b506105a8610893366004614a40565b6120d7565b3480156108a457600080fd5b506108b86108b336600461487e565b61222e565b6040516103c89190614a7b565b3480156108d157600080fd5b506105a86108e0366004614353565b6122c5565b3480156108f157600080fd5b506103bc610900366004614ad2565b612333565b34801561091157600080fd5b506103bc610920366004614b16565b612549565b34801561093157600080fd5b506103bc610940366004614b33565b6125ec565b34801561095157600080fd5b50610440610960366004614353565b612834565b34801561097157600080fd5b506103bc610980366004614b16565b612896565b34801561099157600080fd5b506103bc6109a0366004614353565b6128d6565b3480156109b157600080fd5b5061041d6109c0366004614375565b6129b3565b3480156109d157600080fd5b506104406109e0366004614353565b6129d1565b3480156109f157600080fd5b506105a8610a00366004614375565b612a03565b348015610a1157600080fd5b506105a8610a20366004614375565b612cfe565b348015610a3157600080fd5b50610440612d8c565b348015610a4657600080fd5b506103bc612db4565b348015610a5b57600080fd5b5061041d610a6a3660046144dc565b612e91565b348015610a7b57600080fd5b50610478610a8a36600461438e565b612f59565b348015610a9b57600080fd5b50610735610aaa366004614375565b612fb8565b348015610abb57600080fd5b5061041d610aca366004614b16565b613122565b348015610adb57600080fd5b506103bc610aea366004614353565b6132ad565b348015610afb57600080fd5b506103bc610b0a366004614375565b6133f8565b348015610b1b57600080fd5b506105a86134bc565b348015610b3057600080fd5b50610735610b3f366004614375565b61356e565b348015610b5057600080fd5b506103bc610b5f366004614b33565b6136d8565b348015610b7057600080fd5b506103bc613894565b348015610b8557600080fd5b5061066e6138a9565b6103bc610b9c366004614493565b6138ec565b348015610bad57600080fd5b506103bc610bbc366004614375565b613a42565b348015610bcd57600080fd5b50610735610bdc366004614375565b613ad0565b348015610bed57600080fd5b506105a8610bfc366004614b74565b613c3a565b348015610c0d57600080fd5b507ffd57fda692f2d6ebd63634bcff565f4a5bd9da5175c220bd0ae0da0b8f69d3195461041d565b348015610c4157600080fd5b506105a8610c50366004614b16565b613dcc565b348015610c6157600080fd5b506103bc610c70366004614493565b613e69565b348015610c8157600080fd5b5061066e610c90366004614b16565b613f4c565b600060026000541415610cc35760405162461bcd60e51b8152600401610cba90614bba565b60405180910390fd5b6002600090815583908390610cd6613f7a565b6000848152600791909101602090815260408083208584529091529020546001600160a01b03161415610d1b5760405162461bcd60e51b8152600401610cba90614bf1565b610d23613894565b15610d405760405162461bcd60e51b8152600401610cba90614c1b565b604051632097fb8960e01b815273eA4d544074c1af479873ec713a7cE7a767C6C64A90632097fb8990610d7b90889088903390600401614c47565b60006040518083038186803b158015610d9357600080fd5b505af4158015610da7573d6000803e3d6000fd5b50505050600192505050600160005592915050565b60006000805160206155e58339815191525b546001600160a01b0316919050565b60608060606000610dec613f7a565b600088815260079190910160209081526040808320898452909152908190205490516325fb168b60e11b8152600481018790526001600160a01b0390911691508190634bf62d16906024015b60006040518083038186803b158015610e5057600080fd5b505afa158015610e64573d6000803e3d6000fd5b505050506040513d6000823e601f3d908101601f19168201604052610e8c9190810190614cc1565b9350935093505093509350939050565b60008073a238dDf3D64d0CaBd660FF9BA3A3B7062CB7A87b63062ea2948686866040518463ffffffff1660e01b8152600401610eda93929190614c47565b604080518083038186803b158015610ef157600080fd5b505af4158015610f05573d6000803e3d6000fd5b505050506040513d601f19601f82011682018060405250810190610f299190614d48565b90969095509350505050565b600060026000541415610f5a5760405162461bcd60e51b8152600401610cba90614bba565b6002600090815586908690610f6d613f7a565b6000848152600791909101602090815260408083208584529091529020546001600160a01b03161415610fb25760405162461bcd60e51b8152600401610cba90614bf1565b610fba613894565b15610fd75760405162461bcd60e51b8152600401610cba90614c1b565b610fdf613f9e565b6040516396994e3760e01b8152336004820152602481018a9052604481018790526001600160a01b0391909116906396994e379034906064016000604051808303818588803b15801561103157600080fd5b505af1158015611045573d6000803e3d6000fd5b505060405163606c3acd60e01b815273eA4d544074c1af479873ec713a7cE7a767C6C64A935063606c3acd925061108b91508b908b9033908c908c908c90600401614d6c565b60006040518083038186803b1580156110a357600080fd5b505af41580156110b7573d6000803e3d6000fd5b50505050600192505050600160005595945050505050565b6040516295a47160e71b815260009073a238dDf3D64d0CaBd660FF9BA3A3B7062CB7A87b90634ad238809061110c90869085908790600401614c47565b6101206040518083038186803b15801561112557600080fd5b505af4158015611139573d6000803e3d6000fd5b505050506040513d601f19601f8201168201806040525081019061115d9190614daa565b519392505050565b60008060008060008073eA4d544074c1af479873ec713a7cE7a767C6C64A6358978c818e8e338f8f8f8f8f6040518963ffffffff1660e01b81526004016111b3989796959493929190614e25565b60c06040518083038186803b1580156111cb57600080fd5b505af41580156111df573d6000803e3d6000fd5b505050506040513d601f19601f820116820180604052508101906112039190614e82565b9550955095509550955095509750975097509750975097915050565b60008060008060008060006112588a611236613f7a565b6001600160a01b038c1660009081526009919091016020526040902090613fad565b1561136b576112926040518060a0016040528060008019168152602001600081526020016000815260200160008152602001600081525090565b60408051639349fb4160e01b8152600481018d90526001600160a01b038c1660248201528251604482015260208301516064820152908201516084820152606082015160a4820152608082015160c482015260e481018a905273a238dDf3D64d0CaBd660FF9BA3A3B7062CB7A87b90639349fb41906101040160e06040518083038186803b15801561132357600080fd5b505af4158015611337573d6000803e3d6000fd5b505050506040513d601f19601f8201168201806040525081019061135b9190614ed7565b9750975097509750975097509750505b9397509397509397909450565b60006113826118a8565b905060005b81518110156115215760008282815181106113a4576113a4614f2b565b6020026020010151905060006113c56000805160206155e583398151915290565b54604080517f5265736f6c766572206d697373696e67207461726765743a200000000000000060208201526039808201869052825180830390910181526059820192839052636795dbcd60e01b9092526001600160a01b0390921691636795dbcd9161143691869190605d01614f8e565b60206040518083038186803b15801561144e57600080fd5b505afa158015611462573d6000803e3d6000fd5b505050506040513d601f19601f820116820180604052508101906114869190614fa7565b60008381527f4abde63c3e81aefa5764b017968bc473e83e093d7e1a10247d19e0a3e4124019602090815260409182902080546001600160a01b0319166001600160a01b03851690811790915582518681529182015281519293507f88a93678a3692f6789d9546fc621bf7234b101ddb7d4fe479455112831b8aa68929081900390910190a15050808061151990614fda565b915050611387565b5061152a613fc5565b50565b6000806115386118a8565b905060005b815181101561168a57600082828151811061155a5761155a614f2b565b602002602001015190506115796000805160206155e583398151915290565b600082815260019190910160205260409020546001600160a01b03166000805160206155e5833981519152546040516321f8a72160e01b8152600481018490526001600160a01b03909116906321f8a7219060240160206040518083038186803b1580156115e657600080fd5b505afa1580156115fa573d6000803e3d6000fd5b505050506040513d601f19601f8201168201806040525081019061161e9190614fa7565b6001600160a01b0316141580611668575060008181527f4abde63c3e81aefa5764b017968bc473e83e093d7e1a10247d19e0a3e412401960205260409020546001600160a01b0316155b15611677576000935050505090565b508061168281614fda565b91505061153d565b50600191505090565b604051631714923960e11b815260609073e08174AeeeB8833d85482bCc70b95276C14D20B490632e292472906116cd9085906004016149e3565b60006040518083038186803b1580156116e557600080fd5b505af41580156116f9573d6000803e3d6000fd5b505050506040513d6000823e601f3d908101601f191682016040526117219190810190614ff5565b92915050565b6000611731613f7a565b6000928352600801602052506040902054151590565b60006002600054141561176c5760405162461bcd60e51b8152600401610cba90614bba565b600260009081558690869061177f613f7a565b6000848152600791909101602090815260408083208584529091529020546001600160a01b031614156117c45760405162461bcd60e51b8152600401610cba90614bf1565b6117cc613894565b156117e95760405162461bcd60e51b8152600401610cba90614c1b565b60405163aeb2d5bd60e01b815273eA4d544074c1af479873ec713a7cE7a767C6C64A9063aeb2d5bd9061108b908b908b9033908c908c908c90600401614d6c565b6060611834613f7a565b600501600083815260200190815260200160002080548060200260200160405190810160405280929190818152602001828054801561189c57602002820191906000526020600020905b81546001600160a01b0316815260019091019060200180831161187e575b50505050509050919050565b60408051600580825260c082019092526060916020820160a080368337019050509050742132b0b1b7b7283937bc3ca1b7b73a3937b63632b960591b816000815181106118f7576118f7614f2b565b6020026020010181815250507121bab93932b731bca1b7b73a3937b63632b960711b8160018151811061192c5761192c614f2b565b6020026020010181815250507011d95b995cda5cd5985b1d5955985d5b1d607a1b8160028151811061196057611960614f2b565b6020026020010181815250506a14995cd95c9d99519d5b9960aa1b8160038151811061198e5761198e614f2b565b60200260200101818152505069151bdad95b95985d5b1d60b21b816004815181106119bb576119bb614f2b565b60200260200101818152505090565b60608073eA4d544074c1af479873ec713a7cE7a767C6C64A63482f267a85856040518363ffffffff1660e01b8152600401611a06929190615102565b60006040518083038186803b158015611a1e57600080fd5b505af4158015611a32573d6000803e3d6000fd5b505050506040513d6000823e601f3d908101601f19168201604052611a5a919081019061520b565b909590945092505050565b600060026000541415611a8a5760405162461bcd60e51b8152600401610cba90614bba565b6002600090815584908490611a9d613f7a565b6000848152600791909101602090815260408083208584529091529020546001600160a01b03161415611ae25760405162461bcd60e51b8152600401610cba90614bf1565b611aea613894565b15611b075760405162461bcd60e51b8152600401610cba90614c1b565b6000611b11613f7a565b6000888152600791909101602090815260408083208984529091529081902054905163504b89bd60e01b815233600482015265ffffffffffff871660248201526001600160a01b039091169150819063504b89bd90604401600060405180830381600087803b158015611b8357600080fd5b505af1158015611b97573d6000803e3d6000fd5b505050506001935050505060016000559392505050565b60606000611bba613f7a565b600084815260059190910160205260409020546001600160401b03811115611be457611be46145bb565b604051908082528060200260200182016040528015611c0d578160200160208202803683370190505b50905060005b611c1b613f7a565b60008581526005919091016020526040902054811015611d18576000611c3f613f7a565b60050160008681526020019081526020016000208281548110611c6457611c64614f2b565b6000918252602091829020015460408051631b3508b760e01b815290516001600160a01b0390921693508392631b3508b792600480840193829003018186803b158015611cb057600080fd5b505afa158015611cc4573d6000803e3d6000fd5b505050506040513d601f19601f82011682018060405250810190611ce8919061526e565b838381518110611cfa57611cfa614f2b565b60209081029190910101525080611d1081614fda565b915050611c13565b5092915050565b33611d28612d8c565b6001600160a01b031614611d4e5760405162461bcd60e51b8152600401610cba90615287565b604051635ca65d5760e01b81526004810183905260248101829052738eD57F8a0A894Db1BC548782373722B537bD2Af690635ca65d57906044015b60006040518083038186803b158015611da157600080fd5b505af4158015611db5573d6000803e3d6000fd5b505050505050565b60008060008060008060008073e08174AeeeB8833d85482bCc70b95276C14D20B463682729ee8b8b6040518363ffffffff1660e01b8152600401611e0b929190918252602082015260400190565b6101006040518083038186803b158015611e2457600080fd5b505af4158015611e38573d6000803e3d6000fd5b505050506040513d601f19601f82011682018060405250810190611e5c91906152bc565b975097509750975097509750975097509295985092959890939650565b604080516345f1848f60e11b81526001600160a01b0385166004820152833560248201526020840135604482015290830135606482015260608301356084820152608083013560a482015260c481018290526000908190819081908190819081908190819073a238dDf3D64d0CaBd660FF9BA3A3B7062CB7A87b90638be3091e9060e4016101206040518083038186803b158015611f1657600080fd5b505af4158015611f2a573d6000803e3d6000fd5b505050506040513d601f19601f82011682018060405250810190611f4e9190615326565b98509850985098509850985098509850985093979b92969a50939750939750565b6040516295a47160e71b815260009073a238dDf3D64d0CaBd660FF9BA3A3B7062CB7A87b90634ad2388090611fac90869085908790600401614c47565b6101206040518083038186803b158015611fc557600080fd5b505af4158015611fd9573d6000803e3d6000fd5b505050506040513d601f19601f82011682018060405250810190611ffd9190614daa565b61010001519392505050565b33612012612d8c565b6001600160a01b0316146120385760405162461bcd60e51b8152600401610cba90615287565b6120426000614048565b565b61204c613894565b156120695760405162461bcd60e51b8152600401610cba90614c1b565b33612072612d8c565b6001600160a01b0316146120985760405162461bcd60e51b8152600401610cba90615287565b6040516372d563ef60e01b8152600481018390526024810182905273e08174AeeeB8833d85482bCc70b95276C14D20B4906372d563ef90604401611d89565b336120e0612d8c565b6001600160a01b0316146121065760405162461bcd60e51b8152600401610cba90615287565b600083116121565760405162461bcd60e51b815260206004820152601760248201527f496e76616c696420636f6d706f756e6420666163746f720000000000000000006044820152606401610cba565b61215f85611727565b156121a25760405162461bcd60e51b8152602060048201526013602482015272105b1c9958591e481a5b9a5d1a585b1a5e9959606a1b6044820152606401610cba565b60405163d3f43b7960e01b815260048101869052602481018590526044810184905273e08174AeeeB8833d85482bCc70b95276C14D20B49063d3f43b799060640160006040518083038186803b1580156121fb57600080fd5b505af415801561220f573d6000803e3d6000fd5b5050505061221d8583611d1f565b61222785826122c5565b5050505050565b6040516301e62b0360e61b815260609073a238dDf3D64d0CaBd660FF9BA3A3B7062CB7A87b9063798ac0c09061226a9086908690600401615102565b60006040518083038186803b15801561228257600080fd5b505af4158015612296573d6000803e3d6000fd5b505050506040513d6000823e601f3d908101601f191682016040526122be919081019061538f565b9392505050565b336122ce612d8c565b6001600160a01b0316146122f45760405162461bcd60e51b8152600401610cba90615287565b604051633dac455560e11b81526004810183905260248101829052738eD57F8a0A894Db1BC548782373722B537bD2Af690637b588aaa90604401611d89565b6000600260005414156123585760405162461bcd60e51b8152600401610cba90614bba565b6002600055612365613894565b156123825760405162461bcd60e51b8152600401610cba90614c1b565b60005b83518110156125395760008482815181106123a2576123a2614f2b565b6020026020010151905060008073e08174AeeeB8833d85482bCc70b95276C14D20B4636a23a95c84886040518363ffffffff1660e01b81526004016123f1929190918252602082015260400190565b6101006040518083038186803b15801561240a57600080fd5b505af415801561241e573d6000803e3d6000fd5b505050506040513d601f19601f8201168201806040525081019061244291906154b0565b6040516397fe451560e01b8152919350915073eA4d544074c1af479873ec713a7cE7a767C6C64A906397fe4515906124859086908a9060009088906004016154e6565b60006040518083038186803b15801561249d57600080fd5b505af41580156124b1573d6000803e3d6000fd5b50506040516397fe451560e01b815273eA4d544074c1af479873ec713a7cE7a767C6C64A92506397fe451591506124f39086908a9060019087906004016154e6565b60006040518083038186803b15801561250b57600080fd5b505af415801561251f573d6000803e3d6000fd5b50505050505050808061253190614fda565b915050612385565b5060019050600160005592915050565b60006002600054141561256e5760405162461bcd60e51b8152600401610cba90614bba565b600260005560405163104d68fd60e31b81526001600160a01b038316600482015273a238dDf3D64d0CaBd660FF9BA3A3B7062CB7A87b9063826b47e89060240160006040518083038186803b1580156125c657600080fd5b505af41580156125da573d6000803e3d6000fd5b50505050600190506001600055919050565b6000333014612740576001546201000090046001600160a01b031615612625576040516337affdbf60e11b815260040160405180910390fd5b6001805462010000600160b01b0319163362010000021790558383600061264a613f7a565b6000848152600791909101602090815260408083208584529091529020546001600160a01b0316141561268f5760405162461bcd60e51b8152600401610cba90614bf1565b612697613894565b156126b45760405162461bcd60e51b8152600401610cba90614c1b565b604051633099b3fd60e21b815273f997345e1ABEB44De389504fE3F0c4565d3907849063c266cff4906126f390339088908c908c908c90600401615542565b60006040518083038186803b15801561270b57600080fd5b505af415801561271f573d6000803e3d6000fd5b505050506001925050506001805462010000600160b01b031916905561282c565b8383600061274c613f7a565b6000848152600791909101602090815260408083208584529091529020546001600160a01b031614156127915760405162461bcd60e51b8152600401610cba90614bf1565b612799613894565b156127b65760405162461bcd60e51b8152600401610cba90614c1b565b604051633099b3fd60e21b815273f997345e1ABEB44De389504fE3F0c4565d3907849063c266cff4906127f590339088908c908c908c90600401615542565b60006040518083038186803b15801561280d57600080fd5b505af4158015612821573d6000803e3d6000fd5b505050506001925050505b949350505050565b600061283e613f7a565b60008481526006919091016020526040812090612859613f7a565b600095865260070160209081526040808720958752948152848620546001600160a01b039081168352908201929092529092019092205416919050565b60006128a0613894565b801561172157506128af613f7a565b6001600160a01b0383166000908152600d91909101602052604090205460ff161592915050565b6000600260005414156128fb5760405162461bcd60e51b8152600401610cba90614bba565b600260009081558390839061290e613f7a565b6000848152600791909101602090815260408083208584529091529020546001600160a01b031614156129535760405162461bcd60e51b8152600401610cba90614bf1565b61295b613894565b156129785760405162461bcd60e51b8152600401610cba90614c1b565b6040516332b3123760e11b815273a238dDf3D64d0CaBd660FF9BA3A3B7062CB7A87b90636566246e90610d7b90889088903390600401614c47565b60006129bd613f7a565b600092835260080160205250604090205490565b60006129db613f7a565b600093845260070160209081526040808520938552929052509020546001600160a01b031690565b60026000541415612a265760405162461bcd60e51b8152600401610cba90614bba565b600260009081558190612a37613f7a565b6000838152600591909101602052604090205411612ab05760405162461bcd60e51b815260206004820152603060248201527f4e6f206c656e64696e67206d61726b65747320657869737420666f722061207360448201526f706563696669632063757272656e637960801b6064820152608401610cba565b612ab8613894565b15612ad55760405162461bcd60e51b8152600401610cba90614c1b565b612add6140b9565b6001600160a01b0316631eae0893836040518263ffffffff1660e01b8152600401612b0a91815260200190565b60206040518083038186803b158015612b2257600080fd5b505afa158015612b36573d6000803e3d6000fd5b505050506040513d601f19601f82011682018060405250810190612b5a9190615573565b612b995760405162461bcd60e51b815260206004820152601060248201526f496e76616c69642063757272656e637960801b6044820152606401610cba565b600073e08174AeeeB8833d85482bCc70b95276C14D20B463a3d54d8c84612beb8660009081527ffd57fda692f2d6ebd63634bcff565f4a5bd9da5175c220bd0ae0da0b8f69d317602052604090205490565b6040516001600160e01b031960e085901b1681526004810192909252602482015260440160206040518083038186803b158015612c2757600080fd5b505af4158015612c3b573d6000803e3d6000fd5b505050506040513d601f19601f82011682018060405250810190612c5f919061526e565b905073a238dDf3D64d0CaBd660FF9BA3A3B7062CB7A87b63300074c98483612c856140c3565b6040518463ffffffff1660e01b8152600401612ca393929190614c47565b60206040518083038186803b158015612cbb57600080fd5b505af4158015612ccf573d6000803e3d6000fd5b505050506040513d601f19601f82011682018060405250810190612cf3919061526e565b505060016000555050565b33612d07612d8c565b6001600160a01b031614612d2d5760405162461bcd60e51b8152600401610cba90615287565b604051638c197d8d60e01b815260048101829052738eD57F8a0A894Db1BC548782373722B537bD2Af690638c197d8d9060240160006040518083038186803b158015612d7857600080fd5b505af4158015612227573d6000803e3d6000fd5b60007f9acda75aebd150dd434541a4747a6dc606f4f1a59662477e67daf1fc0bf9e0aa610dce565b600060026000541415612dd95760405162461bcd60e51b8152600401610cba90614bba565b6002600055612de6613894565b612e235760405162461bcd60e51b815260206004820152600e60248201526d139bdd081d195c9b5a5b985d195960921b6044820152606401610cba565b604051635dd3a2c160e01b815233600482015273a238dDf3D64d0CaBd660FF9BA3A3B7062CB7A87b90635dd3a2c19060240160006040518083038186803b158015612e6d57600080fd5b505af4158015612e81573d6000803e3d6000fd5b5050505060019050600160005590565b600060026000541415612eb65760405162461bcd60e51b8152600401610cba90614bba565b6002600055604051639519832b60e01b8152600481018490526001600160a01b038316602482015273a238dDf3D64d0CaBd660FF9BA3A3B7062CB7A87b90639519832b9060440160206040518083038186803b158015612f1557600080fd5b505af4158015612f29573d6000803e3d6000fd5b505050506040513d601f19601f82011682018060405250810190612f4d919061526e565b60016000559392505050565b60608060606000612f68613f7a565b6000888152600791909101602090815260408083208984529091529081902054905163d866d35560e01b8152600481018790526001600160a01b039091169150819063d866d35590602401610e38565b60606000612fc4613f7a565b600084815260059190910160205260409020546001600160401b03811115612fee57612fee6145bb565b604051908082528060200260200182016040528015613017578160200160208202803683370190505b50905060005b613025613f7a565b60008581526005919091016020526040902054811015611d18576000613049613f7a565b6005016000868152602001908152602001600020828154811061306e5761306e614f2b565b600091825260209182902001546040805163e16695b560e01b815290516001600160a01b039092169350839263e16695b592600480840193829003018186803b1580156130ba57600080fd5b505afa1580156130ce573d6000803e3d6000fd5b505050506040513d601f19601f820116820180604052508101906130f2919061526e565b83838151811061310457613104614f2b565b6020908102919091010152508061311a81614fda565b91505061301d565b60008061312d613f7a565b6001600160a01b03841660009081526009919091016020526040812091505b613155826140cd565b8110156132a657600061316883836140d7565b9050600073a238dDf3D64d0CaBd660FF9BA3A3B7062CB7A87b634ad23880836000896040518463ffffffff1660e01b81526004016131a893929190614c47565b6101206040518083038186803b1580156131c157600080fd5b505af41580156131d5573d6000803e3d6000fd5b505050506040513d601f19601f820116820180604052508101906131f99190614daa565b5190506132046140b9565b604051633c7f634960e11b815260048101849052602481018390526001600160a01b0391909116906378fec6929060440160206040518083038186803b15801561324d57600080fd5b505afa158015613261573d6000803e3d6000fd5b505050506040513d601f19601f82011682018060405250810190613285919061526e565b61328f9086615590565b94505050808061329e90614fda565b91505061314c565b5050919050565b6000600260005414156132d25760405162461bcd60e51b8152600401610cba90614bba565b60026000908155839083906132e5613f7a565b6000848152600791909101602090815260408083208584529091529020546001600160a01b0316141561332a5760405162461bcd60e51b8152600401610cba90614bf1565b613332613894565b1561334f5760405162461bcd60e51b8152600401610cba90614c1b565b6040516301402dfb60e31b815260048101869052602481018590523360448201526000606482015273a238dDf3D64d0CaBd660FF9BA3A3B7062CB7A87b90630a016fd89060840160206040518083038186803b1580156133ae57600080fd5b505af41580156133c2573d6000803e3d6000fd5b505050506040513d601f19601f820116820180604052508101906133e6919061526e565b50600192505050600160005592915050565b6000613402613894565b1561341f5760405162461bcd60e51b8152600401610cba90614c1b565b33613428612d8c565b6001600160a01b03161461344e5760405162461bcd60e51b8152600401610cba90615287565b604051630b3cb84560e41b81526004810183905273e08174AeeeB8833d85482bCc70b95276C14D20B49063b3cb8450906024015b60006040518083038186803b15801561349a57600080fd5b505af41580156134ae573d6000803e3d6000fd5b50505050600190505b919050565b6134c4613894565b156134e15760405162461bcd60e51b8152600401610cba90614c1b565b336134ea612d8c565b6001600160a01b0316146135105760405162461bcd60e51b8152600401610cba90615287565b73e08174AeeeB8833d85482bCc70b95276C14D20B463b8f117cd6040518163ffffffff1660e01b815260040160006040518083038186803b15801561355457600080fd5b505af4158015613568573d6000803e3d6000fd5b50505050565b6060600061357a613f7a565b600084815260059190910160205260409020546001600160401b038111156135a4576135a46145bb565b6040519080825280602002602001820160405280156135cd578160200160208202803683370190505b50905060005b6135db613f7a565b60008581526005919091016020526040902054811015611d185760006135ff613f7a565b6005016000868152602001908152602001600020828154811061362457613624614f2b565b60009182526020918290200154604080516371613c2d60e01b815290516001600160a01b03909216935083926371613c2d92600480840193829003018186803b15801561367057600080fd5b505afa158015613684573d6000803e3d6000fd5b505050506040513d601f19601f820116820180604052508101906136a8919061526e565b8383815181106136ba576136ba614f2b565b602090810291909101015250806136d081614fda565b9150506135d3565b60003330146137df576001546201000090046001600160a01b031615613711576040516337affdbf60e11b815260040160405180910390fd5b6001805462010000600160b01b03191633620100000217905583836000613736613f7a565b6000848152600791909101602090815260408083208584529091529020546001600160a01b0316141561377b5760405162461bcd60e51b8152600401610cba90614bf1565b613783613894565b156137a05760405162461bcd60e51b8152600401610cba90614c1b565b604051635436151f60e11b815273f997345e1ABEB44De389504fE3F0c4565d3907849063a86c2a3e906126f390339088908c908c908c90600401615542565b838360006137eb613f7a565b6000848152600791909101602090815260408083208584529091529020546001600160a01b031614156138305760405162461bcd60e51b8152600401610cba90614bf1565b613838613894565b156138555760405162461bcd60e51b8152600401610cba90614c1b565b604051635436151f60e11b815273f997345e1ABEB44De389504fE3F0c4565d3907849063a86c2a3e906127f590339088908c908c908c90600401615542565b60008061389f613f7a565b6002015411905090565b6040805160018082528183019092526060916020808301908036833701905050905069151bdad95b95985d5b1d60b21b816000815181106119bb576119bb614f2b565b6000600260005414156139115760405162461bcd60e51b8152600401610cba90614bba565b6002600090815586908690613924613f7a565b6000848152600791909101602090815260408083208584529091529020546001600160a01b031614156139695760405162461bcd60e51b8152600401610cba90614bf1565b613971613894565b1561398e5760405162461bcd60e51b8152600401610cba90614c1b565b613996613f9e565b6040516396994e3760e01b8152336004820152602481018a9052604481018790526001600160a01b0391909116906396994e379034906064016000604051808303818588803b1580156139e857600080fd5b505af11580156139fc573d6000803e3d6000fd5b505060405163aeb2d5bd60e01b815273eA4d544074c1af479873ec713a7cE7a767C6C64A935063aeb2d5bd925061108b91508b908b9033908c908c908c90600401614d6c565b6000613a4c613894565b15613a695760405162461bcd60e51b8152600401610cba90614c1b565b33613a72612d8c565b6001600160a01b031614613a985760405162461bcd60e51b8152600401610cba90615287565b604051631d33a0a760e31b81526004810183905273e08174AeeeB8833d85482bCc70b95276C14D20B49063e99d053890602401613482565b60606000613adc613f7a565b600084815260059190910160205260409020546001600160401b03811115613b0657613b066145bb565b604051908082528060200260200182016040528015613b2f578160200160208202803683370190505b50905060005b613b3d613f7a565b60008581526005919091016020526040902054811015611d18576000613b61613f7a565b60050160008681526020019081526020016000208281548110613b8657613b86614f2b565b6000918252602091829020015460408051632f05aa6d60e11b815290516001600160a01b0390921693508392635e0b54da92600480840193829003018186803b158015613bd257600080fd5b505afa158015613be6573d6000803e3d6000fd5b505050506040513d601f19601f82011682018060405250810190613c0a919061526e565b838381518110613c1c57613c1c614f2b565b60209081029190910101525080613c3281614fda565b915050613b35565b600154610100900460ff1615808015613c5757506001805460ff16105b80613c705750303b158015613c7057506001805460ff16145b613cd35760405162461bcd60e51b815260206004820152602e60248201527f496e697469616c697a61626c653a20636f6e747261637420697320616c72656160448201526d191e481a5b9a5d1a585b1a5e995960921b6064820152608401610cba565b6001805460ff1916811790558015613cf5576001805461ff0019166101001790555b6000613cff6140e3565b6001600160a01b03161415613d615760405162461bcd60e51b815260206004820152602260248201527f4d7573742062652063616c6c65642066726f6d2070726f787920636f6e74726160448201526118dd60f21b6064820152608401610cba565b82613d6a613f7a565b60010155613d78858361410b565b613d818461414c565b8015612227576001805461ff00191681556040519081527f7f26b83ff96e1f2b6a682f133852f6798a09c465da95921460cefb38474024989060200160405180910390a15050505050565b33613dd5612d8c565b6001600160a01b031614613dfb5760405162461bcd60e51b8152600401610cba90615287565b6001600160a01b038116613e605760405162461bcd60e51b815260206004820152602660248201527f4f776e61626c653a206e6577206f776e657220697320746865207a65726f206160448201526564647265737360d01b6064820152608401610cba565b61152a81614048565b600060026000541415613e8e5760405162461bcd60e51b8152600401610cba90614bba565b6002600090815586908690613ea1613f7a565b6000848152600791909101602090815260408083208584529091529020546001600160a01b03161415613ee65760405162461bcd60e51b8152600401610cba90614bf1565b613eee613894565b15613f0b5760405162461bcd60e51b8152600401610cba90614c1b565b60405163606c3acd60e01b815273eA4d544074c1af479873ec713a7cE7a767C6C64A9063606c3acd9061108b908b908b9033908c908c908c90600401614d6c565b6060611721613f59613f7a565b6001600160a01b0384166000908152600991909101602052604090206141e1565b7f8041b8421ebd495cc61f38c788c9eb100daccf9bd36aa0bb920b7a15b2e0496590565b6000613fa86141ec565b905090565b600081815260018301602052604081205415156122be565b613fcd6140b9565b6001600160a01b031663ecd8d2fb6040518163ffffffff1660e01b815260040160206040518083038186803b15801561400557600080fd5b505afa158015614019573d6000803e3d6000fd5b505050506040513d601f19601f8201168201806040525081019061403d919061526e565b614045613f7a565b55565b7f9acda75aebd150dd434541a4747a6dc606f4f1a59662477e67daf1fc0bf9e0aa80546001600160a01b038381166001600160a01b0319831681179093556040519116919082907f8be0079c531659141344cd1fd0a4f28419497f9722a3daafe3b4186f6b6457e090600090a35050565b6000613fa8614204565b6000613fa8614224565b6000611721825490565b60006122be838361423d565b60007f360894a13ba1a3210667c828492db98dca3e2076cc3735a920a3ca505d382bbc610dce565b61411482614048565b604051638c197d8d60e01b815260048101829052738eD57F8a0A894Db1BC548782373722B537bD2Af690638c197d8d90602401611d89565b6000805160206155e5833981519152546001600160a01b0316156141b25760405162461bcd60e51b815260206004820152601b60248201527f5265736f6c766572207265676973746572656420616c726561647900000000006044820152606401610cba565b6000805160206155e583398151915280546001600160a01b0319166001600160a01b0392909216919091179055565b606061172182614267565b6000613fa869151bdad95b95985d5b1d60b21b6142c2565b6000613fa87121bab93932b731bca1b7b73a3937b63632b960711b6142c2565b6000613fa86a14995cd95c9d99519d5b9960aa1b6142c2565b600082600001828154811061425457614254614f2b565b9060005260206000200154905092915050565b60608160000180548060200260200160405190810160405280929190818152602001828054801561189c57602002820191906000526020600020905b8154815260200190600101908083116142a35750505050509050919050565b60008181527f4abde63c3e81aefa5764b017968bc473e83e093d7e1a10247d19e0a3e41240196020908152604080832054815170026b4b9b9b4b7339030b2323932b9b99d1607d1b9381019390935260318084018690528251808503909101815260519093019091526001600160a01b03169081611d185760405162461bcd60e51b8152600401610cba91906155d1565b6000806040838503121561436657600080fd5b50508035926020909101359150565b60006020828403121561438757600080fd5b5035919050565b6000806000606084860312156143a357600080fd5b505081359360208301359350604090920135919050565b600081518084526020808501945080840160005b838110156143ea578151875295820195908201906001016143ce565b509495945050505050565b60608152600061440860608301866143ba565b828103602084015261441a81866143ba565b9050828103604084015261442e81856143ba565b9695505050505050565b6001600160a01b038116811461152a57600080fd5b60008060006060848603121561446257600080fd5b8335925060208401359150604084013561447b81614438565b809150509250925092565b6002811061152a57600080fd5b600080600080600060a086880312156144ab57600080fd5b853594506020860135935060408601356144c481614486565b94979396509394606081013594506080013592915050565b600080604083850312156144ef57600080fd5b82359150602083013561450181614438565b809150509250929050565b801515811461152a57600080fd5b600080600080600080600060e0888a03121561453557600080fd5b8735965060208801359550604088013561454e81614486565b9450606088013593506080880135925060a0880135915060c08801356145738161450c565b8091505092959891949750929550565b60008060006060848603121561459857600080fd5b8335925060208401356145aa81614438565b929592945050506040919091013590565b634e487b7160e01b600052604160045260246000fd5b60405161012081016001600160401b03811182821017156145f4576145f46145bb565b60405290565b60405161014081016001600160401b03811182821017156145f4576145f46145bb565b60405161010081016001600160401b03811182821017156145f4576145f46145bb565b604051608081016001600160401b03811182821017156145f4576145f46145bb565b604051601f8201601f191681016001600160401b038111828210171561468a5761468a6145bb565b604052919050565b60006001600160401b038211156146ab576146ab6145bb565b5060051b60200190565b600082601f8301126146c657600080fd5b813560206146db6146d683614692565b614662565b82815260059290921b840181019181810190868411156146fa57600080fd5b8286015b8481101561471557803583529183019183016146fe565b509695505050505050565b60006020828403121561473257600080fd5b81356001600160401b0381111561474857600080fd5b61282c848285016146b5565b602080825282518282018190526000919060409081850190868401855b828110156147ec5781518051855286810151878601528581015186860152606080820151908601526080808201519086015260a0808201519086015260c0808201519086015260e080820151908601526101008082015190860152610120908101511515908501526101409093019290850190600101614771565b5091979650505050505050565b6020808252825182820181905260009190848201906040850190845b8181101561483a5783516001600160a01b031683529284019291840191600101614815565b50909695505050505050565b6020808252825182820181905260009190848201906040850190845b8181101561483a57835183529284019291840191600101614862565b6000806040838503121561489157600080fd5b82356001600160401b038111156148a757600080fd5b6148b3858286016146b5565b925050602083013561450181614438565b600281106148e257634e487b7160e01b600052602160045260246000fd5b9052565b600081518084526020808501945080840160005b838110156143ea578151805165ffffffffffff168852838101518489015260408082015190890152606080820151614934828b01826148c4565b50506080818101519089015260a0808201519089015260c0808201519089015260e09081015115159088015261010090960195908201906001016148fa565b60408152600061498660408301856148e6565b828103602084015261499881856148e6565b95945050505050565b65ffffffffffff8116811461152a57600080fd5b6000806000606084860312156149ca57600080fd5b8335925060208401359150604084013561447b816149a1565b6020815260006122be60208301846143ba565b600080600083850360e0811215614a0c57600080fd5b8435614a1781614438565b935060a0601f1982011215614a2b57600080fd5b5060208401915060c084013590509250925092565b600080600080600060a08688031215614a5857600080fd5b505083359560208501359550604085013594606081013594506080013592509050565b602080825282518282018190526000919060409081850190868401855b828110156147ec57815180518552868101518786015285810151868601526060908101519085015260809093019290850190600101614a98565b60008060408385031215614ae557600080fd5b82356001600160401b03811115614afb57600080fd5b614b07858286016146b5565b95602094909401359450505050565b600060208284031215614b2857600080fd5b81356122be81614438565b60008060008060808587031215614b4957600080fd5b8435935060208501359250604085013591506060850135614b6981614438565b939692955090935050565b60008060008060808587031215614b8a57600080fd5b8435614b9581614438565b93506020850135614ba581614438565b93969395505050506040820135916060013590565b6020808252601f908201527f5265656e7472616e637947756172643a207265656e7472616e742063616c6c00604082015260600190565b60208082526010908201526f496e76616c6964206d6174757269747960801b604082015260600190565b602080825260129082015271105b1c9958591e481d195c9b5a5b985d195960721b604082015260600190565b92835260208301919091526001600160a01b0316604082015260600190565b600082601f830112614c7757600080fd5b81516020614c876146d683614692565b82815260059290921b84018101918181019086841115614ca657600080fd5b8286015b848110156147155780518352918301918301614caa565b600080600060608486031215614cd657600080fd5b83516001600160401b0380821115614ced57600080fd5b614cf987838801614c66565b94506020860151915080821115614d0f57600080fd5b614d1b87838801614c66565b93506040860151915080821115614d3157600080fd5b50614d3e86828701614c66565b9150509250925092565b60008060408385031215614d5b57600080fd5b505080516020909101519092909150565b868152602081018690526001600160a01b038516604082015260c08101614d9660608301866148c4565b608082019390935260a00152949350505050565b60006101208284031215614dbd57600080fd5b614dc56145d1565b825181526020830151602082015260408301516040820152606083015160608201526080830151608082015260a083015160a082015260c083015160c082015260e083015160e08201526101008084015181830152508091505092915050565b888152602081018890526001600160a01b03871660408201526101008101614e5060608301886148c4565b8560808301528460a08301528360c083015282151560e08301529998505050505050505050565b80516134b78161450c565b60008060008060008060c08789031215614e9b57600080fd5b865195506020870151945060408701519350606087015192506080870151915060a0870151614ec98161450c565b809150509295509295509295565b600080600080600080600060e0888a031215614ef257600080fd5b5050855160208701516040880151606089015160808a015160a08b015160c0909b0151949c939b50919990985090965094509092509050565b634e487b7160e01b600052603260045260246000fd5b6000815180845260005b81811015614f6757602081850181015186830182015201614f4b565b81811115614f79576000602083870101525b50601f01601f19169290920160200192915050565b82815260406020820152600061282c6040830184614f41565b600060208284031215614fb957600080fd5b81516122be81614438565b634e487b7160e01b600052601160045260246000fd5b6000600019821415614fee57614fee614fc4565b5060010190565b6000602080838503121561500857600080fd5b82516001600160401b0381111561501e57600080fd5b8301601f8101851361502f57600080fd5b805161503d6146d682614692565b818152610140918202830184019184820191908884111561505d57600080fd5b938501935b838510156150f65780858a03121561507a5760008081fd5b6150826145fa565b85518152868601518782015260408087015190820152606080870151908201526080808701519082015260a0808701519082015260c0808701519082015260e0808701519082015261010080870151908201526101206150e3818801614e77565b9082015283529384019391850191615062565b50979650505050505050565b60408152600061511560408301856143ba565b905060018060a01b03831660208301529392505050565b80516134b781614486565b600082601f83011261514857600080fd5b815160206151586146d683614692565b82815260089290921b8401810191818101908684111561517757600080fd5b8286015b848110156147155761010081890312156151955760008081fd5b61519d61461d565b81516151a8816149a1565b815281850151858201526040808301519082015260606151c981840161512c565b908201526080828101519082015260a0808301519082015260c0808301519082015260e06151f8818401614e77565b908201528352918301916101000161517b565b6000806040838503121561521e57600080fd5b82516001600160401b038082111561523557600080fd5b61524186838701615137565b9350602085015191508082111561525757600080fd5b5061526485828601615137565b9150509250929050565b60006020828403121561528057600080fd5b5051919050565b6020808252818101527f4f776e61626c653a2063616c6c6572206973206e6f7420746865206f776e6572604082015260600190565b600080600080600080600080610100898b0312156152d957600080fd5b885197506020890151965060408901519550606089015194506080890151935060a0890151925060c0890151915060e08901516153158161450c565b809150509295985092959890939650565b60008060008060008060008060006101208a8c03121561534557600080fd5b8951985060208a0151975060408a0151965060608a0151955060808a0151945060a08a0151935060c08a0151925060e08a015191506101008a015190509295985092959850929598565b600060208083850312156153a257600080fd5b82516001600160401b038111156153b857600080fd5b8301601f810185136153c957600080fd5b80516153d76146d682614692565b81815260079190911b820183019083810190878311156153f657600080fd5b928401925b8284101561544d57608084890312156154145760008081fd5b61541c614640565b84518152858501518682015260408086015190820152606080860151908201528252608090930192908401906153fb565b979650505050505050565b60006080828403121561546a57600080fd5b615472614640565b9050815161547f816149a1565b8152602082015161548f81614438565b80602083015250604082015160408201526060820151606082015292915050565b60008061010083850312156154c457600080fd5b6154ce8484615458565b91506154dd8460808501615458565b90509250929050565b8481526020810184905260e0810161550160408301856148c4565b825165ffffffffffff1660608381019190915260208401516001600160a01b03166080840152604084015160a08401529092015160c0909101529392505050565b6001600160a01b03958616815293909416602084015260408301919091526060820152608081019190915260a00190565b60006020828403121561558557600080fd5b81516122be8161450c565b600080821280156001600160ff1b03849003851316156155b2576155b2614fc4565b600160ff1b83900384128116156155cb576155cb614fc4565b50500190565b6020815260006122be6020830184614f4156fe4abde63c3e81aefa5764b017968bc473e83e093d7e1a10247d19e0a3e4124018a2646970667358221220ac2de7a734bc93a39e3ce64de0357c089d3450f105da5253b3a9b4ca906308ac64736f6c63430008090033",
  "deployedBytecode": "0x6080604052600436106103975760003560e01c8063826b47e8116101dc578063b1d0f2f011610102578063e0a17443116100a0578063f1eaebae1161006f578063f1eaebae14610c01578063f2fde38b14610c35578063f43947c714610c55578063fc70081014610c7557600080fd5b8063e0a1744314610b8e578063e99d053814610ba1578063eb092a2614610bc1578063eb990c5914610be157600080fd5b8063bfd10cf6116100dc578063bfd10cf614610b24578063c11333b114610b44578063d1cc997614610b64578063e099765914610b7957600080fd5b8063b1d0f2f014610acf578063b3cb845014610aef578063b8f117cd14610b0f57600080fd5b80638b36d8331161017a5780639519832b116101495780639519832b14610a4f578063953dbcaa14610a6f578063a02be3dc14610a8f578063a4c66bde14610aaf57600080fd5b80638b36d833146109e55780638c197d8d14610a055780638da5cb5b14610a2557806394e75a3e14610a3a57600080fd5b8063862fd6e5116101b6578063862fd6e514610965578063886f4b4514610985578063891d5965146109a55780638a981745146109c557600080fd5b8063826b47e8146109055780638469973f1461092557806385323e1a1461094557600080fd5b80633d03b9da116102c1578063697625891161025f578063766cb64e1161022e578063766cb64e14610878578063798ac0c0146108985780637b588aaa146108c55780637c63039d146108e557600080fd5b806369762589146107bf57806370c641a614610823578063715018a61461084357806372d563ef1461085857600080fd5b80634e78fecc1161029b5780634e78fecc146106c957806355aceb4e146107155780635ca65d5714610742578063682729ee1461076257600080fd5b80633d03b9da14610659578063482f267a1461067b57806349f2ccbf146106a957600080fd5b80631b4023bc116103395780632e292472116103085780632e292472146105bf5780632e6c5e67146105ec5780632ef5ddaf1461060c578063381ada1f1461062c57600080fd5b80631b4023bc146104ef57806324e4ae051461053e57806329985e5a146105935780632af64bd3146105aa57600080fd5b80630594de6e116103755780630594de6e14610458578063062ea294146104875780630b60d6d3146104bc57806317b72ff4146104cf57600080fd5b806301cf22351461039c57806303e5fb59146103d157806304f3bcec1461042b575b600080fd5b3480156103a857600080fd5b506103bc6103b7366004614353565b610c95565b60405190151581526020015b60405180910390f35b3480156103dd57600080fd5b5061041d6103ec366004614375565b60009081527ffd57fda692f2d6ebd63634bcff565f4a5bd9da5175c220bd0ae0da0b8f69d317602052604090205490565b6040519081526020016103c8565b34801561043757600080fd5b50610440610dbc565b6040516001600160a01b0390911681526020016103c8565b34801561046457600080fd5b5061047861047336600461438e565b610ddd565b6040516103c8939291906143f5565b34801561049357600080fd5b506104a76104a236600461444d565b610e9c565b604080519283526020830191909152016103c8565b6103bc6104ca366004614493565b610f35565b3480156104db57600080fd5b5061041d6104ea3660046144dc565b6110cf565b3480156104fb57600080fd5b5061050f61050a36600461451a565b611165565b6040805196875260208701959095529385019290925260608401526080830152151560a082015260c0016103c8565b34801561054a57600080fd5b5061055e610559366004614583565b61121f565b604080519788526020880196909652948601939093526060850191909152608084015260a083015260c082015260e0016103c8565b34801561059f57600080fd5b506105a8611378565b005b3480156105b657600080fd5b506103bc61152d565b3480156105cb57600080fd5b506105df6105da366004614720565b611693565b6040516103c89190614754565b3480156105f857600080fd5b506103bc610607366004614375565b611727565b34801561061857600080fd5b506103bc610627366004614493565b611747565b34801561063857600080fd5b5061064c610647366004614375565b61182a565b6040516103c891906147f9565b34801561066557600080fd5b5061066e6118a8565b6040516103c89190614846565b34801561068757600080fd5b5061069b61069636600461487e565b6119ca565b6040516103c8929190614973565b3480156106b557600080fd5b506103bc6106c43660046149b5565b611a65565b3480156106d557600080fd5b5061041d6106e4366004614375565b60009081527ffd57fda692f2d6ebd63634bcff565f4a5bd9da5175c220bd0ae0da0b8f69d318602052604090205490565b34801561072157600080fd5b50610735610730366004614375565b611bae565b6040516103c891906149e3565b34801561074e57600080fd5b506105a861075d366004614353565b611d1f565b34801561076e57600080fd5b5061078261077d366004614353565b611dbd565b604080519889526020890197909752958701949094526060860192909252608085015260a084015260c0830152151560e0820152610100016103c8565b3480156107cb57600080fd5b506107df6107da3660046149f6565b611e79565b60408051998a5260208a0198909852968801959095526060870193909352608086019190915260a085015260c084015260e0830152610100820152610120016103c8565b34801561082f57600080fd5b5061041d61083e3660046144dc565b611f6f565b34801561084f57600080fd5b506105a8612009565b34801561086457600080fd5b506105a8610873366004614353565b612044565b34801561088457600080fd5b506105a8610893366004614a40565b6120d7565b3480156108a457600080fd5b506108b86108b336600461487e565b61222e565b6040516103c89190614a7b565b3480156108d157600080fd5b506105a86108e0366004614353565b6122c5565b3480156108f157600080fd5b506103bc610900366004614ad2565b612333565b34801561091157600080fd5b506103bc610920366004614b16565b612549565b34801561093157600080fd5b506103bc610940366004614b33565b6125ec565b34801561095157600080fd5b50610440610960366004614353565b612834565b34801561097157600080fd5b506103bc610980366004614b16565b612896565b34801561099157600080fd5b506103bc6109a0366004614353565b6128d6565b3480156109b157600080fd5b5061041d6109c0366004614375565b6129b3565b3480156109d157600080fd5b506104406109e0366004614353565b6129d1565b3480156109f157600080fd5b506105a8610a00366004614375565b612a03565b348015610a1157600080fd5b506105a8610a20366004614375565b612cfe565b348015610a3157600080fd5b50610440612d8c565b348015610a4657600080fd5b506103bc612db4565b348015610a5b57600080fd5b5061041d610a6a3660046144dc565b612e91565b348015610a7b57600080fd5b50610478610a8a36600461438e565b612f59565b348015610a9b57600080fd5b50610735610aaa366004614375565b612fb8565b348015610abb57600080fd5b5061041d610aca366004614b16565b613122565b348015610adb57600080fd5b506103bc610aea366004614353565b6132ad565b348015610afb57600080fd5b506103bc610b0a366004614375565b6133f8565b348015610b1b57600080fd5b506105a86134bc565b348015610b3057600080fd5b50610735610b3f366004614375565b61356e565b348015610b5057600080fd5b506103bc610b5f366004614b33565b6136d8565b348015610b7057600080fd5b506103bc613894565b348015610b8557600080fd5b5061066e6138a9565b6103bc610b9c366004614493565b6138ec565b348015610bad57600080fd5b506103bc610bbc366004614375565b613a42565b348015610bcd57600080fd5b50610735610bdc366004614375565b613ad0565b348015610bed57600080fd5b506105a8610bfc366004614b74565b613c3a565b348015610c0d57600080fd5b507ffd57fda692f2d6ebd63634bcff565f4a5bd9da5175c220bd0ae0da0b8f69d3195461041d565b348015610c4157600080fd5b506105a8610c50366004614b16565b613dcc565b348015610c6157600080fd5b506103bc610c70366004614493565b613e69565b348015610c8157600080fd5b5061066e610c90366004614b16565b613f4c565b600060026000541415610cc35760405162461bcd60e51b8152600401610cba90614bba565b60405180910390fd5b6002600090815583908390610cd6613f7a565b6000848152600791909101602090815260408083208584529091529020546001600160a01b03161415610d1b5760405162461bcd60e51b8152600401610cba90614bf1565b610d23613894565b15610d405760405162461bcd60e51b8152600401610cba90614c1b565b604051632097fb8960e01b815273__$bfa1fc126f9f960b1bd3bae8c14d9c594e$__90632097fb8990610d7b90889088903390600401614c47565b60006040518083038186803b158015610d9357600080fd5b505af4158015610da7573d6000803e3d6000fd5b50505050600192505050600160005592915050565b60006000805160206155e58339815191525b546001600160a01b0316919050565b60608060606000610dec613f7a565b600088815260079190910160209081526040808320898452909152908190205490516325fb168b60e11b8152600481018790526001600160a01b0390911691508190634bf62d16906024015b60006040518083038186803b158015610e5057600080fd5b505afa158015610e64573d6000803e3d6000fd5b505050506040513d6000823e601f3d908101601f19168201604052610e8c9190810190614cc1565b9350935093505093509350939050565b60008073__$e7d72ce98f1dce1f33c815a57604cff5ab$__63062ea2948686866040518463ffffffff1660e01b8152600401610eda93929190614c47565b604080518083038186803b158015610ef157600080fd5b505af4158015610f05573d6000803e3d6000fd5b505050506040513d601f19601f82011682018060405250810190610f299190614d48565b90969095509350505050565b600060026000541415610f5a5760405162461bcd60e51b8152600401610cba90614bba565b6002600090815586908690610f6d613f7a565b6000848152600791909101602090815260408083208584529091529020546001600160a01b03161415610fb25760405162461bcd60e51b8152600401610cba90614bf1565b610fba613894565b15610fd75760405162461bcd60e51b8152600401610cba90614c1b565b610fdf613f9e565b6040516396994e3760e01b8152336004820152602481018a9052604481018790526001600160a01b0391909116906396994e379034906064016000604051808303818588803b15801561103157600080fd5b505af1158015611045573d6000803e3d6000fd5b505060405163606c3acd60e01b815273__$bfa1fc126f9f960b1bd3bae8c14d9c594e$__935063606c3acd925061108b91508b908b9033908c908c908c90600401614d6c565b60006040518083038186803b1580156110a357600080fd5b505af41580156110b7573d6000803e3d6000fd5b50505050600192505050600160005595945050505050565b6040516295a47160e71b815260009073__$e7d72ce98f1dce1f33c815a57604cff5ab$__90634ad238809061110c90869085908790600401614c47565b6101206040518083038186803b15801561112557600080fd5b505af4158015611139573d6000803e3d6000fd5b505050506040513d601f19601f8201168201806040525081019061115d9190614daa565b519392505050565b60008060008060008073__$bfa1fc126f9f960b1bd3bae8c14d9c594e$__6358978c818e8e338f8f8f8f8f6040518963ffffffff1660e01b81526004016111b3989796959493929190614e25565b60c06040518083038186803b1580156111cb57600080fd5b505af41580156111df573d6000803e3d6000fd5b505050506040513d601f19601f820116820180604052508101906112039190614e82565b9550955095509550955095509750975097509750975097915050565b60008060008060008060006112588a611236613f7a565b6001600160a01b038c1660009081526009919091016020526040902090613fad565b1561136b576112926040518060a0016040528060008019168152602001600081526020016000815260200160008152602001600081525090565b60408051639349fb4160e01b8152600481018d90526001600160a01b038c1660248201528251604482015260208301516064820152908201516084820152606082015160a4820152608082015160c482015260e481018a905273__$e7d72ce98f1dce1f33c815a57604cff5ab$__90639349fb41906101040160e06040518083038186803b15801561132357600080fd5b505af4158015611337573d6000803e3d6000fd5b505050506040513d601f19601f8201168201806040525081019061135b9190614ed7565b9750975097509750975097509750505b9397509397509397909450565b60006113826118a8565b905060005b81518110156115215760008282815181106113a4576113a4614f2b565b6020026020010151905060006113c56000805160206155e583398151915290565b54604080517f5265736f6c766572206d697373696e67207461726765743a200000000000000060208201526039808201869052825180830390910181526059820192839052636795dbcd60e01b9092526001600160a01b0390921691636795dbcd9161143691869190605d01614f8e565b60206040518083038186803b15801561144e57600080fd5b505afa158015611462573d6000803e3d6000fd5b505050506040513d601f19601f820116820180604052508101906114869190614fa7565b60008381527f4abde63c3e81aefa5764b017968bc473e83e093d7e1a10247d19e0a3e4124019602090815260409182902080546001600160a01b0319166001600160a01b03851690811790915582518681529182015281519293507f88a93678a3692f6789d9546fc621bf7234b101ddb7d4fe479455112831b8aa68929081900390910190a15050808061151990614fda565b915050611387565b5061152a613fc5565b50565b6000806115386118a8565b905060005b815181101561168a57600082828151811061155a5761155a614f2b565b602002602001015190506115796000805160206155e583398151915290565b600082815260019190910160205260409020546001600160a01b03166000805160206155e5833981519152546040516321f8a72160e01b8152600481018490526001600160a01b03909116906321f8a7219060240160206040518083038186803b1580156115e657600080fd5b505afa1580156115fa573d6000803e3d6000fd5b505050506040513d601f19601f8201168201806040525081019061161e9190614fa7565b6001600160a01b0316141580611668575060008181527f4abde63c3e81aefa5764b017968bc473e83e093d7e1a10247d19e0a3e412401960205260409020546001600160a01b0316155b15611677576000935050505090565b508061168281614fda565b91505061153d565b50600191505090565b604051631714923960e11b815260609073__$53b43b4bdeb2460d1113627ef627de0cf6$__90632e292472906116cd9085906004016149e3565b60006040518083038186803b1580156116e557600080fd5b505af41580156116f9573d6000803e3d6000fd5b505050506040513d6000823e601f3d908101601f191682016040526117219190810190614ff5565b92915050565b6000611731613f7a565b6000928352600801602052506040902054151590565b60006002600054141561176c5760405162461bcd60e51b8152600401610cba90614bba565b600260009081558690869061177f613f7a565b6000848152600791909101602090815260408083208584529091529020546001600160a01b031614156117c45760405162461bcd60e51b8152600401610cba90614bf1565b6117cc613894565b156117e95760405162461bcd60e51b8152600401610cba90614c1b565b60405163aeb2d5bd60e01b815273__$bfa1fc126f9f960b1bd3bae8c14d9c594e$__9063aeb2d5bd9061108b908b908b9033908c908c908c90600401614d6c565b6060611834613f7a565b600501600083815260200190815260200160002080548060200260200160405190810160405280929190818152602001828054801561189c57602002820191906000526020600020905b81546001600160a01b0316815260019091019060200180831161187e575b50505050509050919050565b60408051600580825260c082019092526060916020820160a080368337019050509050742132b0b1b7b7283937bc3ca1b7b73a3937b63632b960591b816000815181106118f7576118f7614f2b565b6020026020010181815250507121bab93932b731bca1b7b73a3937b63632b960711b8160018151811061192c5761192c614f2b565b6020026020010181815250507011d95b995cda5cd5985b1d5955985d5b1d607a1b8160028151811061196057611960614f2b565b6020026020010181815250506a14995cd95c9d99519d5b9960aa1b8160038151811061198e5761198e614f2b565b60200260200101818152505069151bdad95b95985d5b1d60b21b816004815181106119bb576119bb614f2b565b60200260200101818152505090565b60608073__$bfa1fc126f9f960b1bd3bae8c14d9c594e$__63482f267a85856040518363ffffffff1660e01b8152600401611a06929190615102565b60006040518083038186803b158015611a1e57600080fd5b505af4158015611a32573d6000803e3d6000fd5b505050506040513d6000823e601f3d908101601f19168201604052611a5a919081019061520b565b909590945092505050565b600060026000541415611a8a5760405162461bcd60e51b8152600401610cba90614bba565b6002600090815584908490611a9d613f7a565b6000848152600791909101602090815260408083208584529091529020546001600160a01b03161415611ae25760405162461bcd60e51b8152600401610cba90614bf1565b611aea613894565b15611b075760405162461bcd60e51b8152600401610cba90614c1b565b6000611b11613f7a565b6000888152600791909101602090815260408083208984529091529081902054905163504b89bd60e01b815233600482015265ffffffffffff871660248201526001600160a01b039091169150819063504b89bd90604401600060405180830381600087803b158015611b8357600080fd5b505af1158015611b97573d6000803e3d6000fd5b505050506001935050505060016000559392505050565b60606000611bba613f7a565b600084815260059190910160205260409020546001600160401b03811115611be457611be46145bb565b604051908082528060200260200182016040528015611c0d578160200160208202803683370190505b50905060005b611c1b613f7a565b60008581526005919091016020526040902054811015611d18576000611c3f613f7a565b60050160008681526020019081526020016000208281548110611c6457611c64614f2b565b6000918252602091829020015460408051631b3508b760e01b815290516001600160a01b0390921693508392631b3508b792600480840193829003018186803b158015611cb057600080fd5b505afa158015611cc4573d6000803e3d6000fd5b505050506040513d601f19601f82011682018060405250810190611ce8919061526e565b838381518110611cfa57611cfa614f2b565b60209081029190910101525080611d1081614fda565b915050611c13565b5092915050565b33611d28612d8c565b6001600160a01b031614611d4e5760405162461bcd60e51b8152600401610cba90615287565b604051635ca65d5760e01b8152600481018390526024810182905273__$e049441b2d898ade92927f540debd09cf4$__90635ca65d57906044015b60006040518083038186803b158015611da157600080fd5b505af4158015611db5573d6000803e3d6000fd5b505050505050565b60008060008060008060008073__$53b43b4bdeb2460d1113627ef627de0cf6$__63682729ee8b8b6040518363ffffffff1660e01b8152600401611e0b929190918252602082015260400190565b6101006040518083038186803b158015611e2457600080fd5b505af4158015611e38573d6000803e3d6000fd5b505050506040513d601f19601f82011682018060405250810190611e5c91906152bc565b975097509750975097509750975097509295985092959890939650565b604080516345f1848f60e11b81526001600160a01b0385166004820152833560248201526020840135604482015290830135606482015260608301356084820152608083013560a482015260c481018290526000908190819081908190819081908190819073__$e7d72ce98f1dce1f33c815a57604cff5ab$__90638be3091e9060e4016101206040518083038186803b158015611f1657600080fd5b505af4158015611f2a573d6000803e3d6000fd5b505050506040513d601f19601f82011682018060405250810190611f4e9190615326565b98509850985098509850985098509850985093979b92969a50939750939750565b6040516295a47160e71b815260009073__$e7d72ce98f1dce1f33c815a57604cff5ab$__90634ad2388090611fac90869085908790600401614c47565b6101206040518083038186803b158015611fc557600080fd5b505af4158015611fd9573d6000803e3d6000fd5b505050506040513d601f19601f82011682018060405250810190611ffd9190614daa565b61010001519392505050565b33612012612d8c565b6001600160a01b0316146120385760405162461bcd60e51b8152600401610cba90615287565b6120426000614048565b565b61204c613894565b156120695760405162461bcd60e51b8152600401610cba90614c1b565b33612072612d8c565b6001600160a01b0316146120985760405162461bcd60e51b8152600401610cba90615287565b6040516372d563ef60e01b8152600481018390526024810182905273__$53b43b4bdeb2460d1113627ef627de0cf6$__906372d563ef90604401611d89565b336120e0612d8c565b6001600160a01b0316146121065760405162461bcd60e51b8152600401610cba90615287565b600083116121565760405162461bcd60e51b815260206004820152601760248201527f496e76616c696420636f6d706f756e6420666163746f720000000000000000006044820152606401610cba565b61215f85611727565b156121a25760405162461bcd60e51b8152602060048201526013602482015272105b1c9958591e481a5b9a5d1a585b1a5e9959606a1b6044820152606401610cba565b60405163d3f43b7960e01b815260048101869052602481018590526044810184905273__$53b43b4bdeb2460d1113627ef627de0cf6$__9063d3f43b799060640160006040518083038186803b1580156121fb57600080fd5b505af415801561220f573d6000803e3d6000fd5b5050505061221d8583611d1f565b61222785826122c5565b5050505050565b6040516301e62b0360e61b815260609073__$e7d72ce98f1dce1f33c815a57604cff5ab$__9063798ac0c09061226a9086908690600401615102565b60006040518083038186803b15801561228257600080fd5b505af4158015612296573d6000803e3d6000fd5b505050506040513d6000823e601f3d908101601f191682016040526122be919081019061538f565b9392505050565b336122ce612d8c565b6001600160a01b0316146122f45760405162461bcd60e51b8152600401610cba90615287565b604051633dac455560e11b8152600481018390526024810182905273__$e049441b2d898ade92927f540debd09cf4$__90637b588aaa90604401611d89565b6000600260005414156123585760405162461bcd60e51b8152600401610cba90614bba565b6002600055612365613894565b156123825760405162461bcd60e51b8152600401610cba90614c1b565b60005b83518110156125395760008482815181106123a2576123a2614f2b565b6020026020010151905060008073__$53b43b4bdeb2460d1113627ef627de0cf6$__636a23a95c84886040518363ffffffff1660e01b81526004016123f1929190918252602082015260400190565b6101006040518083038186803b15801561240a57600080fd5b505af415801561241e573d6000803e3d6000fd5b505050506040513d601f19601f8201168201806040525081019061244291906154b0565b6040516397fe451560e01b8152919350915073__$bfa1fc126f9f960b1bd3bae8c14d9c594e$__906397fe4515906124859086908a9060009088906004016154e6565b60006040518083038186803b15801561249d57600080fd5b505af41580156124b1573d6000803e3d6000fd5b50506040516397fe451560e01b815273__$bfa1fc126f9f960b1bd3bae8c14d9c594e$__92506397fe451591506124f39086908a9060019087906004016154e6565b60006040518083038186803b15801561250b57600080fd5b505af415801561251f573d6000803e3d6000fd5b50505050505050808061253190614fda565b915050612385565b5060019050600160005592915050565b60006002600054141561256e5760405162461bcd60e51b8152600401610cba90614bba565b600260005560405163104d68fd60e31b81526001600160a01b038316600482015273__$e7d72ce98f1dce1f33c815a57604cff5ab$__9063826b47e89060240160006040518083038186803b1580156125c657600080fd5b505af41580156125da573d6000803e3d6000fd5b50505050600190506001600055919050565b6000333014612740576001546201000090046001600160a01b031615612625576040516337affdbf60e11b815260040160405180910390fd5b6001805462010000600160b01b0319163362010000021790558383600061264a613f7a565b6000848152600791909101602090815260408083208584529091529020546001600160a01b0316141561268f5760405162461bcd60e51b8152600401610cba90614bf1565b612697613894565b156126b45760405162461bcd60e51b8152600401610cba90614c1b565b604051633099b3fd60e21b815273__$ddd42798825952179f0fb056787c1ba3b9$__9063c266cff4906126f390339088908c908c908c90600401615542565b60006040518083038186803b15801561270b57600080fd5b505af415801561271f573d6000803e3d6000fd5b505050506001925050506001805462010000600160b01b031916905561282c565b8383600061274c613f7a565b6000848152600791909101602090815260408083208584529091529020546001600160a01b031614156127915760405162461bcd60e51b8152600401610cba90614bf1565b612799613894565b156127b65760405162461bcd60e51b8152600401610cba90614c1b565b604051633099b3fd60e21b815273__$ddd42798825952179f0fb056787c1ba3b9$__9063c266cff4906127f590339088908c908c908c90600401615542565b60006040518083038186803b15801561280d57600080fd5b505af4158015612821573d6000803e3d6000fd5b505050506001925050505b949350505050565b600061283e613f7a565b60008481526006919091016020526040812090612859613f7a565b600095865260070160209081526040808720958752948152848620546001600160a01b039081168352908201929092529092019092205416919050565b60006128a0613894565b801561172157506128af613f7a565b6001600160a01b0383166000908152600d91909101602052604090205460ff161592915050565b6000600260005414156128fb5760405162461bcd60e51b8152600401610cba90614bba565b600260009081558390839061290e613f7a565b6000848152600791909101602090815260408083208584529091529020546001600160a01b031614156129535760405162461bcd60e51b8152600401610cba90614bf1565b61295b613894565b156129785760405162461bcd60e51b8152600401610cba90614c1b565b6040516332b3123760e11b815273__$e7d72ce98f1dce1f33c815a57604cff5ab$__90636566246e90610d7b90889088903390600401614c47565b60006129bd613f7a565b600092835260080160205250604090205490565b60006129db613f7a565b600093845260070160209081526040808520938552929052509020546001600160a01b031690565b60026000541415612a265760405162461bcd60e51b8152600401610cba90614bba565b600260009081558190612a37613f7a565b6000838152600591909101602052604090205411612ab05760405162461bcd60e51b815260206004820152603060248201527f4e6f206c656e64696e67206d61726b65747320657869737420666f722061207360448201526f706563696669632063757272656e637960801b6064820152608401610cba565b612ab8613894565b15612ad55760405162461bcd60e51b8152600401610cba90614c1b565b612add6140b9565b6001600160a01b0316631eae0893836040518263ffffffff1660e01b8152600401612b0a91815260200190565b60206040518083038186803b158015612b2257600080fd5b505afa158015612b36573d6000803e3d6000fd5b505050506040513d601f19601f82011682018060405250810190612b5a9190615573565b612b995760405162461bcd60e51b815260206004820152601060248201526f496e76616c69642063757272656e637960801b6044820152606401610cba565b600073__$53b43b4bdeb2460d1113627ef627de0cf6$__63a3d54d8c84612beb8660009081527ffd57fda692f2d6ebd63634bcff565f4a5bd9da5175c220bd0ae0da0b8f69d317602052604090205490565b6040516001600160e01b031960e085901b1681526004810192909252602482015260440160206040518083038186803b158015612c2757600080fd5b505af4158015612c3b573d6000803e3d6000fd5b505050506040513d601f19601f82011682018060405250810190612c5f919061526e565b905073__$e7d72ce98f1dce1f33c815a57604cff5ab$__63300074c98483612c856140c3565b6040518463ffffffff1660e01b8152600401612ca393929190614c47565b60206040518083038186803b158015612cbb57600080fd5b505af4158015612ccf573d6000803e3d6000fd5b505050506040513d601f19601f82011682018060405250810190612cf3919061526e565b505060016000555050565b33612d07612d8c565b6001600160a01b031614612d2d5760405162461bcd60e51b8152600401610cba90615287565b604051638c197d8d60e01b81526004810182905273__$e049441b2d898ade92927f540debd09cf4$__90638c197d8d9060240160006040518083038186803b158015612d7857600080fd5b505af4158015612227573d6000803e3d6000fd5b60007f9acda75aebd150dd434541a4747a6dc606f4f1a59662477e67daf1fc0bf9e0aa610dce565b600060026000541415612dd95760405162461bcd60e51b8152600401610cba90614bba565b6002600055612de6613894565b612e235760405162461bcd60e51b815260206004820152600e60248201526d139bdd081d195c9b5a5b985d195960921b6044820152606401610cba565b604051635dd3a2c160e01b815233600482015273__$e7d72ce98f1dce1f33c815a57604cff5ab$__90635dd3a2c19060240160006040518083038186803b158015612e6d57600080fd5b505af4158015612e81573d6000803e3d6000fd5b5050505060019050600160005590565b600060026000541415612eb65760405162461bcd60e51b8152600401610cba90614bba565b6002600055604051639519832b60e01b8152600481018490526001600160a01b038316602482015273__$e7d72ce98f1dce1f33c815a57604cff5ab$__90639519832b9060440160206040518083038186803b158015612f1557600080fd5b505af4158015612f29573d6000803e3d6000fd5b505050506040513d601f19601f82011682018060405250810190612f4d919061526e565b60016000559392505050565b60608060606000612f68613f7a565b6000888152600791909101602090815260408083208984529091529081902054905163d866d35560e01b8152600481018790526001600160a01b039091169150819063d866d35590602401610e38565b60606000612fc4613f7a565b600084815260059190910160205260409020546001600160401b03811115612fee57612fee6145bb565b604051908082528060200260200182016040528015613017578160200160208202803683370190505b50905060005b613025613f7a565b60008581526005919091016020526040902054811015611d18576000613049613f7a565b6005016000868152602001908152602001600020828154811061306e5761306e614f2b565b600091825260209182902001546040805163e16695b560e01b815290516001600160a01b039092169350839263e16695b592600480840193829003018186803b1580156130ba57600080fd5b505afa1580156130ce573d6000803e3d6000fd5b505050506040513d601f19601f820116820180604052508101906130f2919061526e565b83838151811061310457613104614f2b565b6020908102919091010152508061311a81614fda565b91505061301d565b60008061312d613f7a565b6001600160a01b03841660009081526009919091016020526040812091505b613155826140cd565b8110156132a657600061316883836140d7565b9050600073__$e7d72ce98f1dce1f33c815a57604cff5ab$__634ad23880836000896040518463ffffffff1660e01b81526004016131a893929190614c47565b6101206040518083038186803b1580156131c157600080fd5b505af41580156131d5573d6000803e3d6000fd5b505050506040513d601f19601f820116820180604052508101906131f99190614daa565b5190506132046140b9565b604051633c7f634960e11b815260048101849052602481018390526001600160a01b0391909116906378fec6929060440160206040518083038186803b15801561324d57600080fd5b505afa158015613261573d6000803e3d6000fd5b505050506040513d601f19601f82011682018060405250810190613285919061526e565b61328f9086615590565b94505050808061329e90614fda565b91505061314c565b5050919050565b6000600260005414156132d25760405162461bcd60e51b8152600401610cba90614bba565b60026000908155839083906132e5613f7a565b6000848152600791909101602090815260408083208584529091529020546001600160a01b0316141561332a5760405162461bcd60e51b8152600401610cba90614bf1565b613332613894565b1561334f5760405162461bcd60e51b8152600401610cba90614c1b565b6040516301402dfb60e31b815260048101869052602481018590523360448201526000606482015273__$e7d72ce98f1dce1f33c815a57604cff5ab$__90630a016fd89060840160206040518083038186803b1580156133ae57600080fd5b505af41580156133c2573d6000803e3d6000fd5b505050506040513d601f19601f820116820180604052508101906133e6919061526e565b50600192505050600160005592915050565b6000613402613894565b1561341f5760405162461bcd60e51b8152600401610cba90614c1b565b33613428612d8c565b6001600160a01b03161461344e5760405162461bcd60e51b8152600401610cba90615287565b604051630b3cb84560e41b81526004810183905273__$53b43b4bdeb2460d1113627ef627de0cf6$__9063b3cb8450906024015b60006040518083038186803b15801561349a57600080fd5b505af41580156134ae573d6000803e3d6000fd5b50505050600190505b919050565b6134c4613894565b156134e15760405162461bcd60e51b8152600401610cba90614c1b565b336134ea612d8c565b6001600160a01b0316146135105760405162461bcd60e51b8152600401610cba90615287565b73__$53b43b4bdeb2460d1113627ef627de0cf6$__63b8f117cd6040518163ffffffff1660e01b815260040160006040518083038186803b15801561355457600080fd5b505af4158015613568573d6000803e3d6000fd5b50505050565b6060600061357a613f7a565b600084815260059190910160205260409020546001600160401b038111156135a4576135a46145bb565b6040519080825280602002602001820160405280156135cd578160200160208202803683370190505b50905060005b6135db613f7a565b60008581526005919091016020526040902054811015611d185760006135ff613f7a565b6005016000868152602001908152602001600020828154811061362457613624614f2b565b60009182526020918290200154604080516371613c2d60e01b815290516001600160a01b03909216935083926371613c2d92600480840193829003018186803b15801561367057600080fd5b505afa158015613684573d6000803e3d6000fd5b505050506040513d601f19601f820116820180604052508101906136a8919061526e565b8383815181106136ba576136ba614f2b565b602090810291909101015250806136d081614fda565b9150506135d3565b60003330146137df576001546201000090046001600160a01b031615613711576040516337affdbf60e11b815260040160405180910390fd5b6001805462010000600160b01b03191633620100000217905583836000613736613f7a565b6000848152600791909101602090815260408083208584529091529020546001600160a01b0316141561377b5760405162461bcd60e51b8152600401610cba90614bf1565b613783613894565b156137a05760405162461bcd60e51b8152600401610cba90614c1b565b604051635436151f60e11b815273__$ddd42798825952179f0fb056787c1ba3b9$__9063a86c2a3e906126f390339088908c908c908c90600401615542565b838360006137eb613f7a565b6000848152600791909101602090815260408083208584529091529020546001600160a01b031614156138305760405162461bcd60e51b8152600401610cba90614bf1565b613838613894565b156138555760405162461bcd60e51b8152600401610cba90614c1b565b604051635436151f60e11b815273__$ddd42798825952179f0fb056787c1ba3b9$__9063a86c2a3e906127f590339088908c908c908c90600401615542565b60008061389f613f7a565b6002015411905090565b6040805160018082528183019092526060916020808301908036833701905050905069151bdad95b95985d5b1d60b21b816000815181106119bb576119bb614f2b565b6000600260005414156139115760405162461bcd60e51b8152600401610cba90614bba565b6002600090815586908690613924613f7a565b6000848152600791909101602090815260408083208584529091529020546001600160a01b031614156139695760405162461bcd60e51b8152600401610cba90614bf1565b613971613894565b1561398e5760405162461bcd60e51b8152600401610cba90614c1b565b613996613f9e565b6040516396994e3760e01b8152336004820152602481018a9052604481018790526001600160a01b0391909116906396994e379034906064016000604051808303818588803b1580156139e857600080fd5b505af11580156139fc573d6000803e3d6000fd5b505060405163aeb2d5bd60e01b815273__$bfa1fc126f9f960b1bd3bae8c14d9c594e$__935063aeb2d5bd925061108b91508b908b9033908c908c908c90600401614d6c565b6000613a4c613894565b15613a695760405162461bcd60e51b8152600401610cba90614c1b565b33613a72612d8c565b6001600160a01b031614613a985760405162461bcd60e51b8152600401610cba90615287565b604051631d33a0a760e31b81526004810183905273__$53b43b4bdeb2460d1113627ef627de0cf6$__9063e99d053890602401613482565b60606000613adc613f7a565b600084815260059190910160205260409020546001600160401b03811115613b0657613b066145bb565b604051908082528060200260200182016040528015613b2f578160200160208202803683370190505b50905060005b613b3d613f7a565b60008581526005919091016020526040902054811015611d18576000613b61613f7a565b60050160008681526020019081526020016000208281548110613b8657613b86614f2b565b6000918252602091829020015460408051632f05aa6d60e11b815290516001600160a01b0390921693508392635e0b54da92600480840193829003018186803b158015613bd257600080fd5b505afa158015613be6573d6000803e3d6000fd5b505050506040513d601f19601f82011682018060405250810190613c0a919061526e565b838381518110613c1c57613c1c614f2b565b60209081029190910101525080613c3281614fda565b915050613b35565b600154610100900460ff1615808015613c5757506001805460ff16105b80613c705750303b158015613c7057506001805460ff16145b613cd35760405162461bcd60e51b815260206004820152602e60248201527f496e697469616c697a61626c653a20636f6e747261637420697320616c72656160448201526d191e481a5b9a5d1a585b1a5e995960921b6064820152608401610cba565b6001805460ff1916811790558015613cf5576001805461ff0019166101001790555b6000613cff6140e3565b6001600160a01b03161415613d615760405162461bcd60e51b815260206004820152602260248201527f4d7573742062652063616c6c65642066726f6d2070726f787920636f6e74726160448201526118dd60f21b6064820152608401610cba565b82613d6a613f7a565b60010155613d78858361410b565b613d818461414c565b8015612227576001805461ff00191681556040519081527f7f26b83ff96e1f2b6a682f133852f6798a09c465da95921460cefb38474024989060200160405180910390a15050505050565b33613dd5612d8c565b6001600160a01b031614613dfb5760405162461bcd60e51b8152600401610cba90615287565b6001600160a01b038116613e605760405162461bcd60e51b815260206004820152602660248201527f4f776e61626c653a206e6577206f776e657220697320746865207a65726f206160448201526564647265737360d01b6064820152608401610cba565b61152a81614048565b600060026000541415613e8e5760405162461bcd60e51b8152600401610cba90614bba565b6002600090815586908690613ea1613f7a565b6000848152600791909101602090815260408083208584529091529020546001600160a01b03161415613ee65760405162461bcd60e51b8152600401610cba90614bf1565b613eee613894565b15613f0b5760405162461bcd60e51b8152600401610cba90614c1b565b60405163606c3acd60e01b815273__$bfa1fc126f9f960b1bd3bae8c14d9c594e$__9063606c3acd9061108b908b908b9033908c908c908c90600401614d6c565b6060611721613f59613f7a565b6001600160a01b0384166000908152600991909101602052604090206141e1565b7f8041b8421ebd495cc61f38c788c9eb100daccf9bd36aa0bb920b7a15b2e0496590565b6000613fa86141ec565b905090565b600081815260018301602052604081205415156122be565b613fcd6140b9565b6001600160a01b031663ecd8d2fb6040518163ffffffff1660e01b815260040160206040518083038186803b15801561400557600080fd5b505afa158015614019573d6000803e3d6000fd5b505050506040513d601f19601f8201168201806040525081019061403d919061526e565b614045613f7a565b55565b7f9acda75aebd150dd434541a4747a6dc606f4f1a59662477e67daf1fc0bf9e0aa80546001600160a01b038381166001600160a01b0319831681179093556040519116919082907f8be0079c531659141344cd1fd0a4f28419497f9722a3daafe3b4186f6b6457e090600090a35050565b6000613fa8614204565b6000613fa8614224565b6000611721825490565b60006122be838361423d565b60007f360894a13ba1a3210667c828492db98dca3e2076cc3735a920a3ca505d382bbc610dce565b61411482614048565b604051638c197d8d60e01b81526004810182905273__$e049441b2d898ade92927f540debd09cf4$__90638c197d8d90602401611d89565b6000805160206155e5833981519152546001600160a01b0316156141b25760405162461bcd60e51b815260206004820152601b60248201527f5265736f6c766572207265676973746572656420616c726561647900000000006044820152606401610cba565b6000805160206155e583398151915280546001600160a01b0319166001600160a01b0392909216919091179055565b606061172182614267565b6000613fa869151bdad95b95985d5b1d60b21b6142c2565b6000613fa87121bab93932b731bca1b7b73a3937b63632b960711b6142c2565b6000613fa86a14995cd95c9d99519d5b9960aa1b6142c2565b600082600001828154811061425457614254614f2b565b9060005260206000200154905092915050565b60608160000180548060200260200160405190810160405280929190818152602001828054801561189c57602002820191906000526020600020905b8154815260200190600101908083116142a35750505050509050919050565b60008181527f4abde63c3e81aefa5764b017968bc473e83e093d7e1a10247d19e0a3e41240196020908152604080832054815170026b4b9b9b4b7339030b2323932b9b99d1607d1b9381019390935260318084018690528251808503909101815260519093019091526001600160a01b03169081611d185760405162461bcd60e51b8152600401610cba91906155d1565b6000806040838503121561436657600080fd5b50508035926020909101359150565b60006020828403121561438757600080fd5b5035919050565b6000806000606084860312156143a357600080fd5b505081359360208301359350604090920135919050565b600081518084526020808501945080840160005b838110156143ea578151875295820195908201906001016143ce565b509495945050505050565b60608152600061440860608301866143ba565b828103602084015261441a81866143ba565b9050828103604084015261442e81856143ba565b9695505050505050565b6001600160a01b038116811461152a57600080fd5b60008060006060848603121561446257600080fd5b8335925060208401359150604084013561447b81614438565b809150509250925092565b6002811061152a57600080fd5b600080600080600060a086880312156144ab57600080fd5b853594506020860135935060408601356144c481614486565b94979396509394606081013594506080013592915050565b600080604083850312156144ef57600080fd5b82359150602083013561450181614438565b809150509250929050565b801515811461152a57600080fd5b600080600080600080600060e0888a03121561453557600080fd5b8735965060208801359550604088013561454e81614486565b9450606088013593506080880135925060a0880135915060c08801356145738161450c565b8091505092959891949750929550565b60008060006060848603121561459857600080fd5b8335925060208401356145aa81614438565b929592945050506040919091013590565b634e487b7160e01b600052604160045260246000fd5b60405161012081016001600160401b03811182821017156145f4576145f46145bb565b60405290565b60405161014081016001600160401b03811182821017156145f4576145f46145bb565b60405161010081016001600160401b03811182821017156145f4576145f46145bb565b604051608081016001600160401b03811182821017156145f4576145f46145bb565b604051601f8201601f191681016001600160401b038111828210171561468a5761468a6145bb565b604052919050565b60006001600160401b038211156146ab576146ab6145bb565b5060051b60200190565b600082601f8301126146c657600080fd5b813560206146db6146d683614692565b614662565b82815260059290921b840181019181810190868411156146fa57600080fd5b8286015b8481101561471557803583529183019183016146fe565b509695505050505050565b60006020828403121561473257600080fd5b81356001600160401b0381111561474857600080fd5b61282c848285016146b5565b602080825282518282018190526000919060409081850190868401855b828110156147ec5781518051855286810151878601528581015186860152606080820151908601526080808201519086015260a0808201519086015260c0808201519086015260e080820151908601526101008082015190860152610120908101511515908501526101409093019290850190600101614771565b5091979650505050505050565b6020808252825182820181905260009190848201906040850190845b8181101561483a5783516001600160a01b031683529284019291840191600101614815565b50909695505050505050565b6020808252825182820181905260009190848201906040850190845b8181101561483a57835183529284019291840191600101614862565b6000806040838503121561489157600080fd5b82356001600160401b038111156148a757600080fd5b6148b3858286016146b5565b925050602083013561450181614438565b600281106148e257634e487b7160e01b600052602160045260246000fd5b9052565b600081518084526020808501945080840160005b838110156143ea578151805165ffffffffffff168852838101518489015260408082015190890152606080820151614934828b01826148c4565b50506080818101519089015260a0808201519089015260c0808201519089015260e09081015115159088015261010090960195908201906001016148fa565b60408152600061498660408301856148e6565b828103602084015261499881856148e6565b95945050505050565b65ffffffffffff8116811461152a57600080fd5b6000806000606084860312156149ca57600080fd5b8335925060208401359150604084013561447b816149a1565b6020815260006122be60208301846143ba565b600080600083850360e0811215614a0c57600080fd5b8435614a1781614438565b935060a0601f1982011215614a2b57600080fd5b5060208401915060c084013590509250925092565b600080600080600060a08688031215614a5857600080fd5b505083359560208501359550604085013594606081013594506080013592509050565b602080825282518282018190526000919060409081850190868401855b828110156147ec57815180518552868101518786015285810151868601526060908101519085015260809093019290850190600101614a98565b60008060408385031215614ae557600080fd5b82356001600160401b03811115614afb57600080fd5b614b07858286016146b5565b95602094909401359450505050565b600060208284031215614b2857600080fd5b81356122be81614438565b60008060008060808587031215614b4957600080fd5b8435935060208501359250604085013591506060850135614b6981614438565b939692955090935050565b60008060008060808587031215614b8a57600080fd5b8435614b9581614438565b93506020850135614ba581614438565b93969395505050506040820135916060013590565b6020808252601f908201527f5265656e7472616e637947756172643a207265656e7472616e742063616c6c00604082015260600190565b60208082526010908201526f496e76616c6964206d6174757269747960801b604082015260600190565b602080825260129082015271105b1c9958591e481d195c9b5a5b985d195960721b604082015260600190565b92835260208301919091526001600160a01b0316604082015260600190565b600082601f830112614c7757600080fd5b81516020614c876146d683614692565b82815260059290921b84018101918181019086841115614ca657600080fd5b8286015b848110156147155780518352918301918301614caa565b600080600060608486031215614cd657600080fd5b83516001600160401b0380821115614ced57600080fd5b614cf987838801614c66565b94506020860151915080821115614d0f57600080fd5b614d1b87838801614c66565b93506040860151915080821115614d3157600080fd5b50614d3e86828701614c66565b9150509250925092565b60008060408385031215614d5b57600080fd5b505080516020909101519092909150565b868152602081018690526001600160a01b038516604082015260c08101614d9660608301866148c4565b608082019390935260a00152949350505050565b60006101208284031215614dbd57600080fd5b614dc56145d1565b825181526020830151602082015260408301516040820152606083015160608201526080830151608082015260a083015160a082015260c083015160c082015260e083015160e08201526101008084015181830152508091505092915050565b888152602081018890526001600160a01b03871660408201526101008101614e5060608301886148c4565b8560808301528460a08301528360c083015282151560e08301529998505050505050505050565b80516134b78161450c565b60008060008060008060c08789031215614e9b57600080fd5b865195506020870151945060408701519350606087015192506080870151915060a0870151614ec98161450c565b809150509295509295509295565b600080600080600080600060e0888a031215614ef257600080fd5b5050855160208701516040880151606089015160808a015160a08b015160c0909b0151949c939b50919990985090965094509092509050565b634e487b7160e01b600052603260045260246000fd5b6000815180845260005b81811015614f6757602081850181015186830182015201614f4b565b81811115614f79576000602083870101525b50601f01601f19169290920160200192915050565b82815260406020820152600061282c6040830184614f41565b600060208284031215614fb957600080fd5b81516122be81614438565b634e487b7160e01b600052601160045260246000fd5b6000600019821415614fee57614fee614fc4565b5060010190565b6000602080838503121561500857600080fd5b82516001600160401b0381111561501e57600080fd5b8301601f8101851361502f57600080fd5b805161503d6146d682614692565b818152610140918202830184019184820191908884111561505d57600080fd5b938501935b838510156150f65780858a03121561507a5760008081fd5b6150826145fa565b85518152868601518782015260408087015190820152606080870151908201526080808701519082015260a0808701519082015260c0808701519082015260e0808701519082015261010080870151908201526101206150e3818801614e77565b9082015283529384019391850191615062565b50979650505050505050565b60408152600061511560408301856143ba565b905060018060a01b03831660208301529392505050565b80516134b781614486565b600082601f83011261514857600080fd5b815160206151586146d683614692565b82815260089290921b8401810191818101908684111561517757600080fd5b8286015b848110156147155761010081890312156151955760008081fd5b61519d61461d565b81516151a8816149a1565b815281850151858201526040808301519082015260606151c981840161512c565b908201526080828101519082015260a0808301519082015260c0808301519082015260e06151f8818401614e77565b908201528352918301916101000161517b565b6000806040838503121561521e57600080fd5b82516001600160401b038082111561523557600080fd5b61524186838701615137565b9350602085015191508082111561525757600080fd5b5061526485828601615137565b9150509250929050565b60006020828403121561528057600080fd5b5051919050565b6020808252818101527f4f776e61626c653a2063616c6c6572206973206e6f7420746865206f776e6572604082015260600190565b600080600080600080600080610100898b0312156152d957600080fd5b885197506020890151965060408901519550606089015194506080890151935060a0890151925060c0890151915060e08901516153158161450c565b809150509295985092959890939650565b60008060008060008060008060006101208a8c03121561534557600080fd5b8951985060208a0151975060408a0151965060608a0151955060808a0151945060a08a0151935060c08a0151925060e08a015191506101008a015190509295985092959850929598565b600060208083850312156153a257600080fd5b82516001600160401b038111156153b857600080fd5b8301601f810185136153c957600080fd5b80516153d76146d682614692565b81815260079190911b820183019083810190878311156153f657600080fd5b928401925b8284101561544d57608084890312156154145760008081fd5b61541c614640565b84518152858501518682015260408086015190820152606080860151908201528252608090930192908401906153fb565b979650505050505050565b60006080828403121561546a57600080fd5b615472614640565b9050815161547f816149a1565b8152602082015161548f81614438565b80602083015250604082015160408201526060820151606082015292915050565b60008061010083850312156154c457600080fd5b6154ce8484615458565b91506154dd8460808501615458565b90509250929050565b8481526020810184905260e0810161550160408301856148c4565b825165ffffffffffff1660608381019190915260208401516001600160a01b03166080840152604084015160a08401529092015160c0909101529392505050565b6001600160a01b03958616815293909416602084015260408301919091526060820152608081019190915260a00190565b60006020828403121561558557600080fd5b81516122be8161450c565b600080821280156001600160ff1b03849003851316156155b2576155b2614fc4565b600160ff1b83900384128116156155cb576155cb614fc4565b50500190565b6020815260006122be6020830184614f4156fe4abde63c3e81aefa5764b017968bc473e83e093d7e1a10247d19e0a3e4124018a2646970667358221220ac2de7a734bc93a39e3ce64de0357c089d3450f105da5253b3a9b4ca906308ac64736f6c63430008090033",
  "libraries": {
    "FundManagementLogic": "0xa238dDf3D64d0CaBd660FF9BA3A3B7062CB7A87b",
    "LendingMarketOperationLogic": "0xe08174AeeeB8833d85482bCc70b95276C14D20B4",
    "LendingMarketUserLogic": "0xeA4d544074c1af479873ec713a7cE7a767C6C64A",
    "LendingMarketConfigurationLogic": "0x8eD57F8a0A894Db1BC548782373722B537bD2Af6",
    "LiquidationLogic": "0xf997345e1ABEB44De389504fE3F0c4565d390784"
  },
  "implementation": "0x6a072f762fC8882b58b4564c2674E50A403B89b9",
  "devdoc": {
    "kind": "dev",
    "methods": {
      "acceptedContracts()": {
        "details": "The contact name listed in this method is also needed to be listed `requiredContracts` method."
      },
      "calculateFunds(bytes32,address,uint256)": {
        "params": {
          "_ccy": "Currency name in bytes32",
          "_liquidationThresholdRate": "The liquidation threshold rate",
          "_user": "User's address"
        },
        "returns": {
          "borrowedAmount": "The borrowed amount due to the borrow orders being filled on the order book",
          "claimableAmount": "The claimable amount due to the lending orders being filled on the order book",
          "collateralAmount": "The actual collateral amount that is calculated by netting using the haircut.",
          "debtAmount": "The debt amount due to the borrow orders being filled on the order book",
          "lentAmount": "The lent amount due to the lend orders being filled on the order book",
          "workingBorrowOrdersAmount": "The working orders amount on the borrow order book",
          "workingLendOrdersAmount": "The working orders amount on the lend order book"
        }
      },
      "calculateTotalFundsInBaseCurrency(address,(bytes32,uint256,uint256,uint256,uint256),uint256)": {
        "params": {
          "_additionalFunds": "The funds to be added for calculating the total funds",
          "_liquidationThresholdRate": "The liquidation threshold rate",
          "_user": "User's address"
        }
      },
      "cancelOrder(bytes32,uint256,uint48)": {
        "params": {
          "_ccy": "Currency name in bytes32 of the selected market",
          "_maturity": "The maturity of the selected market",
          "_orderId": "Market order id"
        }
      },
      "cleanUpAllFunds(address)": {
        "params": {
          "_user": "User's address"
        }
      },
      "cleanUpFunds(bytes32,address)": {
        "params": {
          "_ccy": "Currency name in bytes32",
          "_user": "User's address"
        }
      },
      "createLendingMarket(bytes32,uint256)": {
        "params": {
          "_ccy": "Main currency for new lending market",
          "_openingDate": "Timestamp when the lending market opens"
        }
      },
      "depositAndExecuteOrder(bytes32,uint256,uint8,uint256,uint256)": {
        "params": {
          "_amount": "Amount of funds the maker wants to borrow/lend",
          "_ccy": "Currency name in bytes32 of the selected market",
          "_maturity": "The maturity of the selected market",
          "_side": "Order position type, Borrow or Lend",
          "_unitPrice": "Amount of unit price taker wish to borrow/lend"
        },
        "returns": {
          "_0": "True if the execution of the operation succeeds"
        }
      },
      "depositAndExecutesPreOrder(bytes32,uint256,uint8,uint256,uint256)": {
        "params": {
          "_amount": "Amount of funds the maker wants to borrow/lend",
          "_ccy": "Currency name in bytes32 of the selected market",
          "_maturity": "The maturity of the selected market",
          "_side": "Order position type, Borrow or Lend",
          "_unitPrice": "Amount of unit price taker wish to borrow/lend"
        },
        "returns": {
          "_0": "True if the execution of the operation succeeds"
        }
      },
      "executeEmergencySettlement()": {
        "returns": {
          "_0": "True if the execution of the operation succeeds"
        }
      },
      "executeForcedRepayment(bytes32,bytes32,uint256,address)": {
        "params": {
          "_collateralCcy": "Currency name to be used as collateral",
          "_debtCcy": "Currency name to be used as debt",
          "_debtMaturity": "The market maturity of the debt",
          "_user": "User's address"
        },
        "returns": {
          "_0": "True if the execution of the operation succeeds"
        }
      },
      "executeItayoseCalls(bytes32[],uint256)": {
        "params": {
          "_currencies": "Currency name list in bytes32",
          "_maturity": "The maturity of the selected market"
        }
      },
      "executeLiquidationCall(bytes32,bytes32,uint256,address)": {
        "params": {
          "_collateralCcy": "Currency name to be used as collateral",
          "_debtCcy": "Currency name to be used as debt",
          "_debtMaturity": "The market maturity of the debt",
          "_user": "User's address"
        },
        "returns": {
          "_0": "True if the execution of the operation succeeds"
        }
      },
      "executeOrder(bytes32,uint256,uint8,uint256,uint256)": {
        "params": {
          "_amount": "Amount of funds the maker wants to borrow/lend",
          "_ccy": "Currency name in bytes32 of the selected market",
          "_maturity": "The maturity of the selected market",
          "_side": "Order position type, Borrow or Lend",
          "_unitPrice": "Amount of unit price taker wish to borrow/lend"
        },
        "returns": {
          "_0": "True if the execution of the operation succeeds"
        }
      },
      "executePreOrder(bytes32,uint256,uint8,uint256,uint256)": {
        "params": {
          "_amount": "Amount of funds the maker wants to borrow/lend",
          "_ccy": "Currency name in bytes32 of the selected market",
          "_maturity": "The maturity of the selected market",
          "_side": "Order position type, Borrow or Lend",
          "_unitPrice": "Amount of unit price taker wish to borrow/lend"
        },
        "returns": {
          "_0": "True if the execution of the operation succeeds"
        }
      },
      "executeRedemption(bytes32,uint256)": {
        "params": {
          "_ccy": "Currency name in bytes32 of the selected market",
          "_maturity": "The maturity of the selected market"
        }
      },
      "executeRepayment(bytes32,uint256)": {
        "params": {
          "_ccy": "Currency name in bytes32 of the selected market",
          "_maturity": "The maturity of the selected market"
        }
      },
      "getBorrowOrderBook(bytes32,uint256,uint256)": {
        "params": {
          "_ccy": "Currency name in bytes32",
          "_limit": "The limit number to get",
          "_maturity": "The maturity of the market"
        },
        "returns": {
          "amounts": "The array of borrow order amounts",
          "quantities": "The array of borrow order quantities",
          "unitPrices": "The array of borrow unit prices"
        }
      },
      "getBorrowUnitPrices(bytes32)": {
        "params": {
          "_ccy": "Currency name in bytes32"
        },
        "returns": {
          "_0": "Array with the borrowing prices per future value of the lending market"
        }
      },
      "getCircuitBreakerLimitRange(bytes32)": {
        "params": {
          "_ccy": "Currency name in bytes32"
        },
        "returns": {
          "_0": "The auto-roll fee rate received by protocol"
        }
      },
      "getFutureValueVault(bytes32,uint256)": {
        "params": {
          "_ccy": "Currency name in bytes32",
          "_maturity": "The maturity of the market"
        },
        "returns": {
          "_0": "The lending market address"
        }
      },
      "getGenesisDate(bytes32)": {
        "params": {
          "_ccy": "Currency name in bytes32"
        },
        "returns": {
          "_0": "The genesis date"
        }
      },
      "getGenesisValue(bytes32,address)": {
        "params": {
          "_ccy": "Currency name in bytes32 for Lending Market",
          "_user": "User's address"
        },
        "returns": {
          "genesisValue": "The genesis value"
        }
      },
      "getLendOrderBook(bytes32,uint256,uint256)": {
        "params": {
          "_ccy": "Currency name in bytes32",
          "_limit": "The limit number to get",
          "_maturity": "The maturity of the market"
        },
        "returns": {
          "amounts": "The array of lend order amounts",
          "quantities": "The array of lend order quantities",
          "unitPrices": "The array of borrow unit prices"
        }
      },
      "getLendUnitPrices(bytes32)": {
        "params": {
          "_ccy": "Currency name in bytes32"
        },
        "returns": {
          "_0": "Array with the lending prices per future value of the lending market"
        }
      },
      "getLendingMarket(bytes32,uint256)": {
        "params": {
          "_ccy": "Currency name in bytes32",
          "_maturity": "The maturity of the market"
        },
        "returns": {
          "_0": "The lending market address"
        }
      },
      "getLendingMarketDetail(bytes32,uint256)": {
        "params": {
          "_ccy": "Currency name in bytes32",
          "_maturity": "The maturity of the market"
        },
        "returns": {
          "bestBorrowUnitPrice": "The best borrow price per future value",
          "bestLendUnitPrice": "The best lend price per future value",
          "isReady": "The boolean if the market is ready or not",
          "maxLendUnitPrice": "The maximum unit price for lending",
          "midUnitPrice": "The mid price per future value",
          "minBorrowUnitPrice": "The minimum unit price for borrowing",
          "openingDate": "The timestamp when the market opens",
          "openingUnitPrice": "The opening price when Itayose is executed"
        }
      },
      "getLendingMarketDetails(bytes32[])": {
        "params": {
          "_ccys": "Currency name list in bytes32"
        },
        "returns": {
          "lendingMarketDetails": "The array of Detailed information on the lending market."
        }
      },
      "getLendingMarkets(bytes32)": {
        "params": {
          "_ccy": "Currency name in bytes32"
        },
        "returns": {
          "_0": "Array with the lending market address"
        }
      },
      "getMaturities(bytes32)": {
        "params": {
          "_ccy": "Currency name in bytes32"
        },
        "returns": {
          "_0": "Array with the lending market maturity"
        }
      },
      "getMidUnitPrices(bytes32)": {
        "params": {
          "_ccy": "Currency name in bytes32"
        },
        "returns": {
          "_0": "Array with the mid prices per future value of the lending market"
        }
      },
      "getObservationPeriod()": {
        "returns": {
          "_0": "The observation period to calculate the volume-weighted average price of transactions"
        }
      },
      "getOrderEstimation(bytes32,uint256,uint8,uint256,uint256,uint256,bool)": {
        "params": {
          "_additionalDepositAmount": "Additional amount to be deposited with the lending order",
          "_amount": "Amount of funds the maker wants to borrow/lend",
          "_ccy": "Currency name in bytes32 of the selected market",
          "_ignoreBorrowedAmount": "The boolean if the borrowed amount is ignored and not used as collateral or not",
          "_maturity": "The maturity of the market",
          "_side": "Order position type, Borrow or Lend",
          "_unitPrice": "Amount of unit price taker wish to borrow/lend"
        },
        "returns": {
          "coverage": "The rate of collateral used",
          "filledAmount": "The amount that is filled on the order book",
          "filledAmountInFV": "The amount in the future value that is filled on the order book",
          "isInsufficientDepositAmount": "The boolean if the order amount for lending in the selected currency is insufficient for the deposit amount or not",
          "lastUnitPrice": "The last unit price that is filled on the order book",
          "orderFeeInFV": "The order fee amount in the future value"
        }
      },
      "getOrderFeeRate(bytes32)": {
        "params": {
          "_ccy": "Currency name in bytes32"
        },
        "returns": {
          "_0": "The order fee rate received by protocol"
        }
      },
      "getOrders(bytes32[],address)": {
        "params": {
          "_ccys": "Currency name list in bytes32",
          "_user": "User's address"
        },
        "returns": {
          "activeOrders": "The array of active orders in the order book",
          "inactiveOrders": "The array of inactive orders"
        }
      },
      "getPosition(bytes32,uint256,address)": {
        "params": {
          "_ccy": "Currency name in bytes32",
          "_maturity": "The maturity of the selected market",
          "_user": "User's address"
        },
        "returns": {
          "futureValue": "The future value of the position",
          "presentValue": "The present value of the position"
        }
      },
      "getPositions(bytes32[],address)": {
        "params": {
          "_ccys": "Currency name list in bytes32",
          "_user": "User's address"
        },
        "returns": {
          "positions": "The array of active positions"
        }
      },
      "getTotalPresentValue(bytes32,address)": {
        "params": {
          "_ccy": "Currency name in bytes32 for Lending Market",
          "_user": "User's address"
        },
        "returns": {
          "totalPresentValue": "The total present value"
        }
      },
      "getTotalPresentValueInBaseCurrency(address)": {
        "params": {
          "_user": "User's address"
        },
        "returns": {
          "totalPresentValue": "The total present value in base currency"
        }
      },
      "getUsedCurrencies(address)": {
        "params": {
          "_user": "User's address"
        },
        "returns": {
          "_0": "The array of the currency"
        }
      },
      "initialize(address,address,uint256,uint256)": {
        "details": "Function is invoked by the proxy contract when the contract is added to the ProxyController.",
        "params": {
          "_marketBasePeriod": "The base period for market maturity",
          "_observationPeriod": "The observation period to calculate the volume-weighted average price of transactions",
          "_owner": "The address of the contract owner",
          "_resolver": "The address of the Address Resolver contract"
        }
      },
      "initializeLendingMarket(bytes32,uint256,uint256,uint256,uint256)": {
        "params": {
          "_ccy": "Currency name in bytes32",
          "_circuitBreakerLimitRange": "The circuit breaker limit range",
          "_compoundFactor": "The initial compound factor when the initial market is opened",
          "_genesisDate": "The genesis date when the initial market is opened",
          "_orderFeeRate": "The order fee rate received by protocol"
        }
      },
      "isInitializedLendingMarket(bytes32)": {
        "params": {
          "_ccy": "Currency name in bytes32"
        },
        "returns": {
          "_0": "The boolean if the lending market is initialized or not"
        }
      },
      "isRedemptionRequired(address)": {
        "returns": {
          "_0": "The boolean if the user needs to redeem the funds"
        }
      },
      "isTerminated()": {
        "returns": {
          "_0": "The boolean if the protocol has not been terminated"
        }
      },
      "owner()": {
        "details": "Returns the address of the current owner."
      },
      "pauseLendingMarkets(bytes32)": {
        "params": {
          "_ccy": "Currency for pausing all lending markets"
        },
        "returns": {
          "_0": "True if the execution of the operation succeeds"
        }
      },
      "renounceOwnership()": {
        "details": "Leaves the contract without owner. It will not be possible to call `onlyOwner` functions anymore. Can only be called by the current owner. NOTE: Renouncing ownership will leave the contract without an owner, thereby removing any functionality that is only available to the owner."
      },
      "requiredContracts()": {
        "details": "The contract name list is in `./libraries/Contracts.sol`."
      },
      "rotateLendingMarkets(bytes32)": {
        "params": {
          "_ccy": "Currency name in bytes32 of the selected market"
        }
      },
      "transferOwnership(address)": {
        "details": "Transfers ownership of the contract to a new account (`newOwner`). Can only be called by the current owner."
      },
      "unpauseLendingMarkets(bytes32)": {
        "params": {
          "_ccy": "Currency name in bytes32"
        },
        "returns": {
          "_0": "True if the execution of the operation succeeds"
        }
      },
      "unwindPosition(bytes32,uint256)": {
        "params": {
          "_ccy": "Currency name in bytes32 of the selected market",
          "_maturity": "The maturity of the selected market"
        }
      },
      "updateCircuitBreakerLimitRange(bytes32,uint256)": {
        "params": {
          "_ccy": "Currency name in bytes32",
          "_limitRange": "The circuit breaker limit range"
        }
      },
      "updateObservationPeriod(uint256)": {
        "params": {
          "_observationPeriod": "The observation period to calculate the volume-weighted average price of transactions"
        }
      },
      "updateOrderFeeRate(bytes32,uint256)": {
        "params": {
          "_ccy": "Currency name in bytes32",
          "_orderFeeRate": "The order fee rate received by protocol"
        }
      }
    },
    "version": 1
  },
  "userdoc": {
    "kind": "user",
    "methods": {
      "acceptedContracts()": {
        "notice": "Returns contract names that can call this contract."
      },
      "calculateFunds(bytes32,address,uint256)": {
        "notice": "Gets the funds that are calculated from the user's lending and borrowing order list for the selected currency."
      },
      "calculateTotalFundsInBaseCurrency(address,(bytes32,uint256,uint256,uint256,uint256),uint256)": {
        "notice": "Gets the funds that are calculated from the user's lending and borrowing order list for all currencies in base currency."
      },
      "cancelOrder(bytes32,uint256,uint48)": {
        "notice": "Cancels the own order."
      },
      "cleanUpAllFunds(address)": {
        "notice": "Clean up all funds of the user"
      },
      "cleanUpFunds(bytes32,address)": {
        "notice": "Clean up user funds used for lazy evaluation by the following actions: - Removes order IDs that is already filled on the order book. - Convert Future values that have already been auto-rolled to Genesis values."
      },
      "createLendingMarket(bytes32,uint256)": {
        "notice": "Deploys new Lending Market and save address at lendingMarkets mapping.Reverts on deployment market with existing currency and term"
      },
      "depositAndExecuteOrder(bytes32,uint256,uint8,uint256,uint256)": {
        "notice": "Deposits funds and executes an order at the same time."
      },
      "depositAndExecutesPreOrder(bytes32,uint256,uint8,uint256,uint256)": {
        "notice": "Deposits funds and executes a pre-order at the same time."
      },
      "executeEmergencySettlement()": {
        "notice": "Force settlement of all lending and borrowing positions. This function is executed under the present value as of the termination date."
      },
      "executeEmergencyTermination()": {
        "notice": "Executes an emergency termination to stop the protocol. Once this function is executed, the protocol cannot be run again. Also, users will only be able to redeem and withdraw."
      },
      "executeForcedRepayment(bytes32,bytes32,uint256,address)": {
        "notice": "Execute forced repayment for a borrowing position if repayment date is over."
      },
      "executeItayoseCalls(bytes32[],uint256)": {
        "notice": "Executes Itayose calls per selected currencies."
      },
      "executeLiquidationCall(bytes32,bytes32,uint256,address)": {
        "notice": "Liquidates a lending or borrowing position if the user's coverage is hight."
      },
      "executeOrder(bytes32,uint256,uint8,uint256,uint256)": {
        "notice": "Executes an order. Takes orders if the order is matched, and places new order if not match it. In addition, converts the future value to the genesis value if there is future value in past maturity before the execution of order creation."
      },
      "executePreOrder(bytes32,uint256,uint8,uint256,uint256)": {
        "notice": "Executes a pre-order. A pre-order will only be accepted from 168 hours (7 days) to 1 hour before the market opens (Pre-order period). At the end of this period, Itayose will be executed."
      },
      "executeRedemption(bytes32,uint256)": {
        "notice": "Redeem user's lending positions. Redemption can only be executed once the market has matured after the currency has been delisted."
      },
      "executeRepayment(bytes32,uint256)": {
        "notice": "Repay user's borrowing positions. Repayment can only be executed once the market has matured after the currency has been delisted."
      },
      "getBorrowOrderBook(bytes32,uint256,uint256)": {
        "notice": "Gets the order book of borrow."
      },
      "getBorrowUnitPrices(bytes32)": {
        "notice": "Gets borrow prices per future value for the selected currency."
      },
      "getCircuitBreakerLimitRange(bytes32)": {
        "notice": "Gets the limit range in unit price for the circuit breaker"
      },
      "getFutureValueVault(bytes32,uint256)": {
        "notice": "Gets the feture value contract address for the selected currency and maturity."
      },
      "getGenesisDate(bytes32)": {
        "notice": "Gets the genesis date when the first market opens for the selected currency."
      },
      "getGenesisValue(bytes32,address)": {
        "notice": "Gets the genesis value of the account."
      },
      "getLendOrderBook(bytes32,uint256,uint256)": {
        "notice": "Gets the order book of lend."
      },
      "getLendUnitPrices(bytes32)": {
        "notice": "Gets lend prices per future value for the selected currency."
      },
      "getLendingMarket(bytes32,uint256)": {
        "notice": "Gets the lending market contract address for the selected currency and maturity."
      },
      "getLendingMarketDetail(bytes32,uint256)": {
        "notice": "Gets detailed information on the lending market."
      },
      "getLendingMarketDetails(bytes32[])": {
        "notice": "Gets the array of detailed information on the lending market."
      },
      "getLendingMarkets(bytes32)": {
        "notice": "Gets the lending market contract addresses for the selected currency."
      },
      "getMaturities(bytes32)": {
        "notice": "Gets maturities for the selected currency."
      },
      "getMidUnitPrices(bytes32)": {
        "notice": "Gets mid prices per future value for the selected currency."
      },
      "getObservationPeriod()": {
        "notice": "Gets the observation period"
      },
      "getOrderEstimation(bytes32,uint256,uint8,uint256,uint256,uint256,bool)": {
        "notice": "Gets the estimated order result by the calculation of the amount to be filled when executing an order in the order books."
      },
      "getOrderFeeRate(bytes32)": {
        "notice": "Gets the order fee rate"
      },
      "getOrders(bytes32[],address)": {
        "notice": "Gets user's active and inactive orders in the order book"
      },
      "getPosition(bytes32,uint256,address)": {
        "notice": "Gets user's active position from the future value vault"
      },
      "getPositions(bytes32[],address)": {
        "notice": "Gets user's active positions from the future value vaults"
      },
      "getTotalPresentValue(bytes32,address)": {
        "notice": "Gets the total present value of the account for selected currency."
      },
      "getTotalPresentValueInBaseCurrency(address)": {
        "notice": "Gets the total present value of the account converted to base currency."
      },
      "getUsedCurrencies(address)": {
        "notice": "Get all the currencies in which the user has lending positions or orders."
      },
      "initialize(address,address,uint256,uint256)": {
        "notice": "Initializes the contract."
      },
      "initializeLendingMarket(bytes32,uint256,uint256,uint256,uint256)": {
        "notice": "Initialize the lending market to set a genesis date and compound factor"
      },
      "isInitializedLendingMarket(bytes32)": {
        "notice": "Gets if the lending market is initialized."
      },
      "isRedemptionRequired(address)": {
        "notice": "Gets if the user needs to redeem the funds."
      },
      "isTerminated()": {
        "notice": "Gets if the protocol has not been terminated."
      },
      "pauseLendingMarkets(bytes32)": {
        "notice": "Pauses previously deployed lending market by currency"
      },
      "requiredContracts()": {
        "notice": "Returns the contract names used in this contract."
      },
      "rotateLendingMarkets(bytes32)": {
        "notice": "Rotates the lending markets. In this rotation, the following actions are happened. - Updates the maturity at the beginning of the market array. - Moves the beginning of the market array to the end of it (Market rotation). - Update the compound factor in this contract using the next market unit price. (Auto-rolls) - Convert the future value held by reserve funds into the genesis value"
      },
      "unpauseLendingMarkets(bytes32)": {
        "notice": "Unpauses previously deployed lending market by currency"
      },
      "unwindPosition(bytes32,uint256)": {
        "notice": "Unwinds user's lending or borrowing positions by creating an opposite position order."
      },
      "updateCircuitBreakerLimitRange(bytes32,uint256)": {
        "notice": "Updates the auto-roll fee rate"
      },
      "updateObservationPeriod(uint256)": {
        "notice": "Updates the observation period"
      },
      "updateOrderFeeRate(bytes32,uint256)": {
        "notice": "Updates the order fee rate"
      }
    },
    "notice": "Implements the module to manage separated lending order-book markets per maturity. This contract also works as a factory contract that can deploy(start)a new lending market for selected currency and maturity and has the calculation logic for the Genesis value in addition. Deployed Lending Markets are rotated and reused as it reaches the maturity date. At the time of rotation, a new maturity date is set and the compound factor is updated. The users mainly call this contract to execute orders to lend or borrow funds.",
    "version": 1
  },
  "storageLayout": {
    "storage": [
      {
        "astId": 1150,
        "contract": "contracts/protocol/LendingMarketController.sol:LendingMarketController",
        "label": "_status",
        "offset": 0,
        "slot": "0",
        "type": "t_uint256"
      },
      {
        "astId": 995,
        "contract": "contracts/protocol/LendingMarketController.sol:LendingMarketController",
        "label": "_initialized",
        "offset": 0,
        "slot": "1",
        "type": "t_uint8"
      },
      {
        "astId": 998,
        "contract": "contracts/protocol/LendingMarketController.sol:LendingMarketController",
        "label": "_initializing",
        "offset": 1,
        "slot": "1",
        "type": "t_bool"
      },
      {
        "astId": 40164,
        "contract": "contracts/protocol/LendingMarketController.sol:LendingMarketController",
        "label": "lockedBy",
        "offset": 2,
        "slot": "1",
        "type": "t_address"
      }
    ],
    "types": {
      "t_address": {
        "encoding": "inplace",
        "label": "address",
        "numberOfBytes": "20"
      },
      "t_bool": {
        "encoding": "inplace",
        "label": "bool",
        "numberOfBytes": "1"
      },
      "t_uint256": {
        "encoding": "inplace",
        "label": "uint256",
        "numberOfBytes": "32"
      },
      "t_uint8": {
        "encoding": "inplace",
        "label": "uint8",
        "numberOfBytes": "1"
      }
    }
  }
}