{
  "address": "0xD758871531A6030A80085ECA51137D2F19344Edc",
  "abi": [
    {
      "inputs": [],
      "name": "InvalidCompoundFactor",
      "type": "error"
    },
    {
      "inputs": [],
      "name": "InvalidCurrency",
      "type": "error"
    },
    {
      "inputs": [],
      "name": "InvalidOpeningDate",
      "type": "error"
    },
    {
      "inputs": [],
      "name": "InvalidPreOpeningDate",
      "type": "error"
    },
    {
      "inputs": [],
      "name": "InvalidTimestamp",
      "type": "error"
    },
    {
      "inputs": [],
      "name": "LendingMarketNotInitialized",
      "type": "error"
    },
    {
      "inputs": [
        {
          "internalType": "string",
          "name": "name",
          "type": "string"
        }
      ],
      "name": "MissingAddress",
      "type": "error"
    },
    {
      "inputs": [],
      "name": "NotEnoughOrderBooks",
      "type": "error"
    },
    {
      "anonymous": false,
      "inputs": [
        {
          "indexed": false,
          "internalType": "uint256",
          "name": "timestamp",
          "type": "uint256"
        }
      ],
      "name": "EmergencyTerminationExecuted",
      "type": "event"
    },
    {
      "anonymous": false,
      "inputs": [
        {
          "indexed": true,
          "internalType": "bytes32",
          "name": "ccy",
          "type": "bytes32"
        },
        {
          "indexed": false,
          "internalType": "uint256",
          "name": "genesisDate",
          "type": "uint256"
        },
        {
          "indexed": false,
          "internalType": "uint256",
          "name": "compoundFactor",
          "type": "uint256"
        },
        {
          "indexed": false,
          "internalType": "uint256",
          "name": "orderFeeRate",
          "type": "uint256"
        },
        {
          "indexed": false,
          "internalType": "uint256",
          "name": "circuitBreakerLimitRange",
          "type": "uint256"
        },
        {
          "indexed": false,
          "internalType": "address",
          "name": "lendingMarket",
          "type": "address"
        },
        {
          "indexed": false,
          "internalType": "address",
          "name": "futureValueVault",
          "type": "address"
        }
      ],
      "name": "LendingMarketInitialized",
      "type": "event"
    },
    {
      "anonymous": false,
      "inputs": [
        {
          "indexed": true,
          "internalType": "bytes32",
          "name": "ccy",
          "type": "bytes32"
        },
        {
          "indexed": false,
          "internalType": "uint256",
          "name": "minDebtUnitPrice",
          "type": "uint256"
        }
      ],
      "name": "MinDebtUnitPriceUpdated",
      "type": "event"
    },
    {
      "anonymous": false,
      "inputs": [
        {
          "indexed": true,
          "internalType": "bytes32",
          "name": "ccy",
          "type": "bytes32"
        },
        {
          "indexed": true,
          "internalType": "uint8",
          "name": "orderBookId",
          "type": "uint8"
        },
        {
          "indexed": false,
          "internalType": "uint256",
          "name": "openingDate",
          "type": "uint256"
        },
        {
          "indexed": false,
          "internalType": "uint256",
          "name": "maturity",
          "type": "uint256"
        }
      ],
      "name": "OrderBookCreated",
      "type": "event"
    },
    {
      "anonymous": false,
      "inputs": [
        {
          "indexed": false,
          "internalType": "bytes32",
          "name": "ccy",
          "type": "bytes32"
        },
        {
          "indexed": false,
          "internalType": "uint256",
          "name": "oldMaturity",
          "type": "uint256"
        },
        {
          "indexed": false,
          "internalType": "uint256",
          "name": "newMaturity",
          "type": "uint256"
        }
      ],
      "name": "OrderBooksRotated",
      "type": "event"
    },
    {
      "inputs": [],
      "name": "OBSERVATION_PERIOD",
      "outputs": [
        {
          "internalType": "uint256",
          "name": "",
          "type": "uint256"
        }
      ],
      "stateMutability": "view",
      "type": "function"
    },
    {
      "inputs": [
        {
          "internalType": "uint256",
          "name": "_timestamp",
          "type": "uint256"
        },
        {
          "internalType": "uint256",
          "name": "_period",
          "type": "uint256"
        }
      ],
      "name": "calculateNextMaturity",
      "outputs": [
        {
          "internalType": "uint256",
          "name": "",
          "type": "uint256"
        }
      ],
      "stateMutability": "pure",
      "type": "function"
    }
  ],
  "transactionHash": "0xc245d4977bc1a44033f0bfa67455e043fe7d7f442755b5e75613bf6ead80699b",
  "args": [],
  "numDeployments": 1,
  "solcInputHash": "286b44f5e34382b14e6f069fc52fe536",
  "bytecode": "0x612f2c61003a600b82828239805160001a60731461002d57634e487b7160e01b600052600060045260246000fd5b30600052607381538281f3fe73000000000000000000000000000000000000000030146080604052600436106100b35760003560e01c80636a23a95c1161007b5780636a23a95c14610149578063b3cb845014610177578063b8f117cd14610197578063e3a98333146101ac578063e99d0538146101cc578063ea574817146101ec57600080fd5b806313821bf7146100b857806331111163146100d4578063420eadb7146100f65780634ebeb0491461010957806353571ee714610129575b600080fd5b6100c161546081565b6040519081526020015b60405180910390f35b8180156100e057600080fd5b506100f46100ef3660046122e6565b61020c565b005b6100c1610104366004612321565b610468565b81801561011557600080fd5b506100f4610124366004612343565b610494565b81801561013557600080fd5b506100c161014436600461236f565b6108b5565b81801561015557600080fd5b50610169610164366004612321565b610e0a565b6040516100cb929190612388565b81801561018357600080fd5b506100f461019236600461236f565b611113565b8180156101a357600080fd5b506100f4611184565b8180156101b857600080fd5b506100f46101c7366004612321565b611552565b8180156101d857600080fd5b506100f46101e736600461236f565b6115b1565b8180156101f857600080fd5b506100f46102073660046123fb565b61160e565b6000610216611946565b60008781526009919091016020908152604080832088845290915290205460ff16905080610242611946565b60040160008881526020019081526020016000206001815481106102685761026861243e565b60009182526020918290209181049091015460ff601f9092166101000a90041603610460576000610297611946565b600088815260059190910160205260409020546001600160a01b031663a4ff243a6102c0611946565b60040160008a81526020019081526020016000206000815481106102e6576102e661243e565b60009182526020918290209181049091015460405160e084901b6001600160e01b0319168152601f9092166101000a900460ff166004820152602401602060405180830381865afa15801561033f573d6000803e3d6000fd5b505050506040513d601f19601f820116820180604052508101906103639190612454565b905061036d611946565b6000888152600b919091016020908152604080832089845290915281205490036103c45761039d8587428461196a565b6103a5611946565b6000898152600c91909101602090815260408083208a84529091529020555b80421080156103de57506103da61546082612483565b4210155b1561045e57836103ec611946565b6000898152600b91909101602090815260408083208a845290915281208054909190610419908490612496565b90915550839050610428611946565b6000898152600b91909101602090815260408083208a845290915281206001018054909190610458908490612496565b90915550505b505b505050505050565b6000816000036104845761047d8360076119de565b905061048e565b61047d8383611a06565b92915050565b61049c611ab0565b6001600160a01b031663f7b637bb846040518263ffffffff1660e01b81526004016104c991815260200190565b602060405180830381865afa1580156104e6573d6000803e3d6000fd5b505050506040513d601f19601f8201168201806040525081019061050a91906124a9565b610527576040516381c91e4f60e01b815260040160405180910390fd5b61052f611ad4565b6001600160a01b0316631eae0893846040518263ffffffff1660e01b815260040161055c91815260200190565b602060405180830381865afa158015610579573d6000803e3d6000fd5b505050506040513d601f19601f8201168201806040525081019061059d91906124a9565b6105ba57604051631eb3268560e31b815260040160405180910390fd5b818111156105db57604051633654cc1160e11b815260040160405180910390fd5b60006105e5611946565b600085815260059190910160205260408120546001600160a01b03169150816338b05852610611611946565b6000888152600491820160205260409081902090516001600160e01b031960e085901b1681526106419201612aed565b600060405180830381865afa15801561065e573d6000803e3d6000fd5b505050506040513d6000823e601f3d908101601f191682016040526106869190810190612b6b565b9050600081516000036107105761069b611ab0565b6001600160a01b03166349a1d218876040518263ffffffff1660e01b81526004016106c891815260200190565b602060405180830381865afa1580156106e5573d6000803e3d6000fd5b505050506040513d601f19601f820116820180604052508101906107099190612454565b9050610751565b600082600184516107219190612483565b815181106107315761073161243e565b6020026020010151905061074d81610747611946565b54610468565b9150505b80851061077157604051634b36da7b60e01b815260040160405180910390fd5b604051632abae3cb60e11b81526004810182905260248101869052604481018590526000906001600160a01b03851690635575c796906064016020604051808303816000875af11580156107c9573d6000803e3d6000fd5b505050506040513d601f19601f820116820180604052508101906107ed9190612bf6565b90506107f7611946565b600088815260049190910160209081526040822080546001810182559083529181902090820401805460ff808516601f9094166101000a9384029302191691909117905580610844611946565b600089815260099190910160209081526040808320868452825291829020805460ff191660ff94851617905581518981529081018590529183169189917fb74193793a4bfa8ca07156db6ff3b9af7f3604cb2bdeeb2cbeb65ec6c1367164910160405180910390a350505050505050565b60006108bf611ad4565b6001600160a01b0316631eae0893836040518263ffffffff1660e01b81526004016108ec91815260200190565b602060405180830381865afa158015610909573d6000803e3d6000fd5b505050506040513d601f19601f8201168201806040525081019061092d91906124a9565b61094a57604051631eb3268560e31b815260040160405180910390fd5b6000610954611946565b60008481526004919091016020526040902080549091506002111561098c576040516358fa2af160e01b815260040160405180910390fd5b6000610996611946565b60008581526005919091016020526040808220549051631c582c2960e11b81526001600160a01b03909116925082906338b05852906109d9908690600401612aed565b600060405180830381865afa1580156109f6573d6000803e3d6000fd5b505050506040513d6000823e601f3d908101601f19168201604052610a1e9190810190612b6b565b9050600083600081548110610a3557610a3561243e565b90600052602060002090602091828204019190069054906101000a900460ff169050600084600181548110610a6c57610a6c61243e565b90600052602060002090602091828204019190069054906101000a900460ff169050600083600181518110610aa357610aa361243e565b60200260200101519050610adf8460018651610abf9190612483565b81518110610acf57610acf61243e565b6020026020010151610747611946565b965060005b8654811015610b9b5786546000908290610b0090600190612483565b14610b465787610b11836001612496565b81548110610b2157610b2161243e565b90600052602060002090602091828204019190069054906101000a900460ff16610b48565b845b905080888381548110610b5d57610b5d61243e565b90600052602060002090602091828204019190066101000a81548160ff021916908360ff160217905550508080610b9390612c19565b915050610ae4565b506000610ba88983611af4565b604051630ea68fb360e21b815260ff808716600483015285166024820152604481018a905260648101849052608481018290529091506001600160a01b03871690633a9a3ecc9060a401600060405180830381600087803b158015610c0c57600080fd5b505af1158015610c20573d6000803e3d6000fd5b50505050610c2c611ab0565b6001600160a01b031663fb8439048a87600081518110610c4e57610c4e61243e565b602002602001015188600181518110610c6957610c6961243e565b6020026020010151858b6001600160a01b031663128e5b856040518163ffffffff1660e01b8152600401602060405180830381865afa158015610cb0573d6000803e3d6000fd5b505050506040513d601f19601f82011682018060405250810190610cd49190612454565b6040516001600160e01b031960e088901b1681526004810195909552602485019390935260448401919091526064830152608482015260a401600060405180830381600087803b158015610d2757600080fd5b505af1158015610d3b573d6000803e3d6000fd5b50505050600085600081518110610d5457610d5461243e565b60200260200101519050610d66611946565b60008b81526009919091016020908152604080832084845290915290205460ff16610d8f611946565b60008c8152600991909101602090815260408083208d8452825291829020805460ff191660ff949094169390931790925580518c815291820183905281018a90527f134ffefb84024e6cd2bb0455365b114f82b012f23b0b0cf931045b8020f26ba59060600160405180910390a15050505050505050919050565b610e126122ad565b610e1a6122ad565b6000610e24611946565b600086815260059190910160205260408120546001600160a01b03169150610e4a611946565b60008781526009919091016020908152604080832088845290915290819020549051630e07a4d160e21b815260ff9091166004820181905291506001600160a01b0383169063381e934490602401602060405180830381865afa158015610eb5573d6000803e3d6000fd5b505050506040513d601f19601f82011682018060405250810190610ed991906124a9565b1561110a5760405163130e60d960e11b815260ff82166004820152600090819081906001600160a01b0386169063261cc1b290602401610160604051808303816000875af1158015610f2f573d6000803e3d6000fd5b505050506040513d601f19601f82011682018060405250810190610f539190612ccf565b909a5098509194509092509050801561100b576000610f70611946565b60008b815260069190910160205260409020546001600160a01b031690508063d42a750c8a610fb3610fae88610fa861271089612d22565b90611c35565b611c9f565b6040516001600160e01b031960e085901b16815260048101929092526024820152604401600060405180830381600087803b158015610ff157600080fd5b505af1158015611005573d6000803e3d6000fd5b50505050505b60008311801561106a57508360ff16611022611946565b60040160008b81526020019081526020016000206000815481106110485761104861243e565b60009182526020918290209181049091015460ff601f9092166101000a900416145b15611106576000611097848a8561107f611946565b60008f8152600891909101602052604090205461196a565b90506110a1611ab0565b60405163a969285f60e01b8152600481018c9052602481018390526001600160a01b03919091169063a969285f90604401600060405180830381600087803b1580156110ec57600080fd5b505af1158015611100573d6000803e3d6000fd5b50505050505b5050505b50509250929050565b600061111d611946565b6000838152600591909101602052604080822054815163280dce3760e21b815291516001600160a01b039091169350839263a03738dc926004808201939182900301818387803b15801561117057600080fd5b505af1158015610460573d6000803e3d6000fd5b4261118d611946565b60010155600061119b611ad4565b6001600160a01b03166361c661de6040518163ffffffff1660e01b8152600401600060405180830381865afa1580156111d8573d6000803e3d6000fd5b505050506040513d6000823e601f3d908101601f191682016040526112009190810190612b6b565b9050600061120c611d12565b6001600160a01b031663d5e190d06040518163ffffffff1660e01b8152600401600060405180830381865afa158015611249573d6000803e3d6000fd5b505050506040513d6000823e601f3d908101601f191682016040526112719190810190612b6b565b905060005b82518110156113475760008382815181106112935761129361243e565b602002602001015190506112a681611113565b6112ae611ad4565b6001600160a01b0316637d11cfda826040518263ffffffff1660e01b81526004016112db91815260200190565b602060405180830381865afa1580156112f8573d6000803e3d6000fd5b505050506040513d601f19601f8201168201806040525081019061131c9190612454565b611324611946565b60009283526002016020526040909120558061133f81612c19565b915050611276565b5060005b815181101561151a5760008282815181106113685761136861243e565b60200260200101519050600061137c611d12565b6001600160a01b031663b12e4410836040518263ffffffff1660e01b81526004016113a991815260200190565b602060405180830381865afa1580156113c6573d6000803e3d6000fd5b505050506040513d601f19601f820116820180604052508101906113ea9190612d39565b90506000816001600160a01b03166370a08231611405611d12565b6040516001600160e01b031960e084901b1681526001600160a01b039091166004820152602401602060405180830381865afa158015611449573d6000803e3d6000fd5b505050506040513d601f19601f8201168201806040525081019061146d9190612454565b9050611477611ad4565b604051636ed2f1db60e01b815260048101859052602481018390526001600160a01b039190911690636ed2f1db90604401602060405180830381865afa1580156114c5573d6000803e3d6000fd5b505050506040513d601f19601f820116820180604052508101906114e99190612454565b6114f1611946565b60009485526003016020526040909320929092555081905061151281612c19565b91505061134b565b506040514281527f5bd5e5214bcf42a851f8883889177591b93dbd526076c7b5e96bd8eed5931a539060200160405180910390a15050565b8061155b611946565b600701600084815260200190815260200160002081905550817f6525e6746b8e4306bc5600943b820fb3b2562be01561ff4e1a6c5207df3a6402826040516115a591815260200190565b60405180910390a25050565b60006115bb611946565b60008381526005919091016020526040808220548151630b0863e760e11b815291516001600160a01b0390911693508392631610c7ce926004808201939182900301818387803b15801561117057600080fd5b611616611ad4565b6001600160a01b0316631eae0893876040518263ffffffff1660e01b815260040161164391815260200190565b602060405180830381865afa158015611660573d6000803e3d6000fd5b505050506040513d601f19601f8201168201806040525081019061168491906124a9565b6116a157604051631eb3268560e31b815260040160405180910390fd5b836000036116c257604051632feb431160e01b815260040160405180910390fd5b6116ca611ab0565b6001600160a01b031663a2d7d02d876024876116e88a610747611946565b6040516001600160e01b031960e087901b168152600481019490945260ff909216602484015260448301526064820152608401600060405180830381600087803b15801561173557600080fd5b505af1158015611749573d6000803e3d6000fd5b505050506000611757611d2a565b604051634672758f60e01b81526004810189905260248101869052604481018590526001600160a01b039190911690634672758f906064016020604051808303816000875af11580156117ae573d6000803e3d6000fd5b505050506040513d601f19601f820116820180604052508101906117d29190612d39565b905060006117de611d2a565b6001600160a01b031663a97c4b536040518163ffffffff1660e01b81526004016020604051808303816000875af115801561181d573d6000803e3d6000fd5b505050506040513d601f19601f820116820180604052508101906118419190612d39565b90508661184c611946565b60008a8152600891909101602052604090205581611868611946565b60008a81526005919091016020526040902080546001600160a01b0319166001600160a01b0392909216919091179055806118a1611946565b60008a81526006919091016020526040902080546001600160a01b0319166001600160a01b03929092169190911790556118db8884611552565b6040805188815260208101889052908101869052606081018590526001600160a01b038084166080830152821660a082015288907fe00c92761ad716218582d39142ce84d836cc05a3514de15a8b358b69276d55b89060c00160405180910390a25050505050505050565b7f8041b8421ebd495cc61f38c788c9eb100daccf9bd36aa0bb920b7a15b2e0496590565b6000806119778486612483565b905060006119858487612483565b90506119918288612d22565b8161199e89612710612483565b6119a89190612d22565b6119b29190612496565b826119bf89612710612d22565b6119c99190612d22565b6119d39190612d6a565b979650505050505050565b60006119ed6201518083612d22565b6119f79084612496565b90508281101561048e57600080fd5b60008080611a26611a2186611a1c876001612496565b611d4d565b611e24565b50915091506000611a3983836000611e45565b90506000611a4682611e68565b9050600060058260058410611a5c576000611a5f565b60075b60ff16611a6c9190612496565b611a769190612483565b9050611a828382611ea3565b955085600003611aa55760405163b7d0949760e01b815260040160405180910390fd5b505050505092915050565b6000611acf7011d95b995cda5cd5985b1d5955985d5b1d607a1b611ecb565b905090565b6000611acf7121bab93932b731bca1b7b73a3937b63632b960711b611ecb565b600080611aff611946565b6000858152600b91909101602090815260408083208684528252918290208251808401909352805483526001015490820181905290915015611b5c57611b5581602001516127108360000151610fa89190612d22565b9150611c2e565b611b64611946565b6000858152600c919091016020908152604080832086845290915290205415611bb457611b8f611946565b6000858152600c91909101602090815260408083208684529091529020549150611c2e565b611bbc611ab0565b6001600160a01b031663d637c15f856040518263ffffffff1660e01b8152600401611be991815260200190565b60a060405180830381865afa158015611c06573d6000803e3d6000fd5b505050506040513d601f19601f82011682018060405250810190611c2a9190612d7e565b5191505b5092915050565b6000808211611c4357600080fd5b6005611c4f8385612d6a565b611c5a90600a612d22565b83611c6686600a612d22565b611c709190612d6a565b611c7a9190612483565b1015611c8a5761047d8284612d6a565b611c948284612d6a565b61047d906001612496565b60006001600160ff1b03821115611d0e5760405162461bcd60e51b815260206004820152602860248201527f53616665436173743a2076616c756520646f65736e27742066697420696e2061604482015267371034b73a191a9b60c11b60648201526084015b60405180910390fd5b5090565b6000611acf69151bdad95b95985d5b1d60b21b611ecb565b6000611acf742132b0b1b7b7283937bc3ca1b7b73a3937b63632b960591b611ecb565b6000808080611d67611d626201518088612d6a565b611f3a565b91945092509050611d788583612496565b9150600c611d87600184612483565b611d919190612d6a565b611d9b9084612496565b9250600c611daa600184612483565b611db49190612dee565b611dbf906001612496565b91506000611dcd84846120ae565b905080821115611ddb578091505b611de86201518088612dee565b62015180611df7868686612134565b611e019190612d22565b611e0b9190612496565b945086851015611e1a57600080fd5b5050505092915050565b60008080611e38611d626201518086612d6a565b9196909550909350915050565b600062015180611e56858585612134565b611e609190612d22565b949350505050565b600080611e786201518084612d6a565b90506007611e87826003612496565b611e919190612dee565b611e9c906001612496565b9392505050565b6000611eb26201518083612d22565b611ebc9084612483565b90508281111561048e57600080fd5b60008181527f4abde63c3e81aefa5764b017968bc473e83e093d7e1a10247d19e0a3e412401960205260408120546001600160a01b03168061048e5760408051602081018590520160408051601f19818403018152908290526346e2ec9360e01b8252611d0591600401612e02565b60008080838162253d8c611f518362010bd9612e50565b611f5b9190612e50565b9050600062023ab1611f6e836004612e78565b611f789190612ea8565b90506004611f898262023ab1612e78565b611f94906003612e50565b611f9e9190612ea8565b611fa89083612ed6565b9150600062164b09611fbb846001612e50565b611fc790610fa0612e78565b611fd19190612ea8565b90506004611fe1826105b5612e78565b611feb9190612ea8565b611ff59084612ed6565b61200090601f612e50565b9250600061098f612012856050612e78565b61201c9190612ea8565b90506000605061202e8361098f612e78565b6120389190612ea8565b6120429086612ed6565b905061204f600b83612ea8565b945061205c85600c612e78565b612067836002612e50565b6120719190612ed6565b91508483612080603187612ed6565b61208b906064612e78565b6120959190612e50565b61209f9190612e50565b9a919950975095505050505050565b600081600114806120bf5750816003145b806120ca5750816005145b806120d55750816007145b806120e05750816008145b806120eb575081600a145b806120f6575081600c145b156121035750601f61048e565b816002146121135750601e61048e565b61211c83612271565b61212757601c61212a565b601d5b60ff169392505050565b60006107b284101561214557600080fd5b838383600062253d8c60046064600c61215f600e88612ed6565b6121699190612ea8565b61217588611324612e50565b61217f9190612e50565b6121899190612ea8565b612194906003612e78565b61219e9190612ea8565b600c806121ac600e88612ed6565b6121b69190612ea8565b6121c190600c612e78565b6121cc600288612ed6565b6121d69190612ed6565b6121e29061016f612e78565b6121ec9190612ea8565b6004600c6121fb600e89612ed6565b6122059190612ea8565b612211896112c0612e50565b61221b9190612e50565b612227906105b5612e78565b6122319190612ea8565b61223d617d4b87612ed6565b6122479190612e50565b6122519190612e50565b61225b9190612ed6565b6122659190612ed6565b98975050505050505050565b600061227e600483612dee565b1580156122945750612291606483612dee565b15155b8061048e57506122a661019083612dee565b1592915050565b6040518060800160405280600065ffffffffffff16815260200160006001600160a01b0316815260200160008152602001600081525090565b600080600080600060a086880312156122fe57600080fd5b505083359560208501359550604085013594606081013594506080013592509050565b6000806040838503121561233457600080fd5b50508035926020909101359150565b60008060006060848603121561235857600080fd5b505081359360208301359350604090920135919050565b60006020828403121561238157600080fd5b5035919050565b825165ffffffffffff1681526020808401516001600160a01b03169082015260408084015190820152606080840151908201526101008101825165ffffffffffff16608083015260208301516001600160a01b031660a0830152604083015160c0830152606083015160e0830152611e9c565b60008060008060008060c0878903121561241457600080fd5b505084359660208601359650604086013595606081013595506080810135945060a0013592509050565b634e487b7160e01b600052603260045260246000fd5b60006020828403121561246657600080fd5b5051919050565b634e487b7160e01b600052601160045260246000fd5b8181038181111561048e5761048e61246d565b8082018082111561048e5761048e61246d565b6000602082840312156124bb57600080fd5b81518015158114611e9c57600080fd5b805480835260008281526020808220940193909190825b82601f8201101561276957815460ff8082168852602061250b818a01838560081c1660ff169052565b6040612520818b01848660101c1660ff169052565b6060612535818c01858760181c1660ff169052565b6080612549818d018688871c1660ff169052565b60a09350612560848d01868860281c1660ff169052565b60c0612575818e01878960301c1660ff169052565b60e061258a818f01888a60381c1660ff169052565b60ff88861c8816166101008f01526125ad6101208f01888a60481c1660ff169052565b6125c26101408f01888a60501c1660ff169052565b6125d76101608f01888a60581c1660ff169052565b60ff88851c8816166101808f01526125fa6101a08f01888a60681c1660ff169052565b61260f6101c08f01888a60701c1660ff169052565b6126246101e08f01888a60781c1660ff169052565b60ff88841c8816166102008f01526126476102208f01888a60881c1660ff169052565b61265c6102408f01888a60901c1660ff169052565b6126716102608f01888a60981c1660ff169052565b60ff88871c8816166102808f01526126946102a08f01888a60a81c1660ff169052565b6126a96102c08f01888a60b01c1660ff169052565b6126be6102e08f01888a60b81c1660ff169052565b60ff88831c8816166103008f01526126e16103208f01888a60c81c1660ff169052565b6126f66103408f01888a60d01c1660ff169052565b61270b6103608f01888a60d81c1660ff169052565b60ff88821c8816166103808f01525050505050506127346103a08901828460e81c1660ff169052565b6127496103c08901828460f01c1660ff169052565b5060f81c6103e087015261040090950194600191909101906020016124e2565b905490828110156127845760ff821686526020909501946001015b828110156127a05760ff600883901c1686526020909501946001015b828110156127bc5760ff601083901c1686526020909501946001015b828110156127d85760ff601883901c1686526020909501946001015b828110156127f557602082901c60ff168652602095909501946001015b828110156128115760ff602883901c1686526020909501946001015b8281101561282d5760ff603083901c1686526020909501946001015b828110156128495760ff603883901c1686526020909501946001015b828110156128655760ff604083901c1686526020909501946001015b828110156128815760ff604883901c1686526020909501946001015b8281101561289d5760ff605083901c1686526020909501946001015b828110156128b95760ff605883901c1686526020909501946001015b828110156128d55760ff606083901c1686526020909501946001015b828110156128f15760ff606883901c1686526020909501946001015b8281101561290d5760ff607083901c1686526020909501946001015b828110156129295760ff607883901c1686526020909501946001015b828110156129455760ff608083901c1686526020909501946001015b828110156129615760ff608883901c1686526020909501946001015b8281101561297d5760ff609083901c1686526020909501946001015b828110156129995760ff609883901c1686526020909501946001015b828110156129b55760ff60a083901c1686526020909501946001015b828110156129d15760ff60a883901c1686526020909501946001015b828110156129ed5760ff60b083901c1686526020909501946001015b82811015612a095760ff60b883901c1686526020909501946001015b82811015612a255760ff60c083901c1686526020909501946001015b82811015612a415760ff60c883901c1686526020909501946001015b82811015612a5d5760ff60d083901c1686526020909501946001015b82811015612a795760ff60d883901c1686526020909501946001015b82811015612a955760ff60e083901c1686526020909501946001015b82811015612ab15760ff60e883901c1686526020909501946001015b82811015612acd5760ff60f083901c1686526020909501946001015b82811015612ae35760f882901c86526020860195505b5093949350505050565b602081526000611e9c60208301846124cb565b634e487b7160e01b600052604160045260246000fd5b604051601f8201601f1916810167ffffffffffffffff81118282101715612b3f57612b3f612b00565b604052919050565b600067ffffffffffffffff821115612b6157612b61612b00565b5060051b60200190565b60006020808385031215612b7e57600080fd5b825167ffffffffffffffff811115612b9557600080fd5b8301601f81018513612ba657600080fd5b8051612bb9612bb482612b47565b612b16565b81815260059190911b82018301908381019087831115612bd857600080fd5b928401925b828410156119d357835182529284019290840190612bdd565b600060208284031215612c0857600080fd5b815160ff81168114611e9c57600080fd5b600060018201612c2b57612c2b61246d565b5060010190565b80516001600160a01b0381168114612c4957600080fd5b919050565b600060808284031215612c6057600080fd5b6040516080810181811067ffffffffffffffff82111715612c8357612c83612b00565b8060405250809150825165ffffffffffff81168114612ca157600080fd5b8152612caf60208401612c32565b602082015260408301516040820152606083015160608201525092915050565b60008060008060006101608688031215612ce857600080fd5b855194506020860151935060408601519250612d078760608801612c4e565b9150612d168760e08801612c4e565b90509295509295909350565b808202811582820484141761048e5761048e61246d565b600060208284031215612d4b57600080fd5b611e9c82612c32565b634e487b7160e01b600052601260045260246000fd5b600082612d7957612d79612d54565b500490565b600060a08284031215612d9057600080fd5b60405160a0810181811067ffffffffffffffff82111715612db357612db3612b00565b806040525082518152602083015160208201526040830151604082015260608301516060820152608083015160808201528091505092915050565b600082612dfd57612dfd612d54565b500690565b600060208083528351808285015260005b81811015612e2f57858101830151858201604001528201612e13565b506000604082860101526040601f19601f8301168501019250505092915050565b8082018281126000831280158216821582161715612e7057612e7061246d565b505092915050565b80820260008212600160ff1b84141615612e9457612e9461246d565b818105831482151761048e5761048e61246d565b600082612eb757612eb7612d54565b600160ff1b821460001984141615612ed157612ed161246d565b500590565b8181036000831280158383131683831282161715611c2e57611c2e61246d56fea26469706673582212208dad7451e88010b812b96815c04a14e1eb191069203ac30469635038d564249664736f6c63430008130033",
  "devdoc": {
    "kind": "dev",
    "methods": {},
    "version": 1
  },
  "userdoc": {
    "kind": "user",
    "methods": {},
    "version": 1
  },
  "storageLayout": {
    "storage": [],
    "types": null
  }
}