{
  "address": "0x5C2EA4943f40E6BE21486cd2E787216ACdedAD0d",
  "abi": [
    {
      "inputs": [],
      "name": "ContractLocked",
      "type": "error"
    },
    {
      "anonymous": false,
      "inputs": [
        {
          "indexed": false,
          "internalType": "uint256",
          "name": "previousRate",
          "type": "uint256"
        },
        {
          "indexed": false,
          "internalType": "uint256",
          "name": "rate",
          "type": "uint256"
        }
      ],
      "name": "AutoRollFeeRateUpdated",
      "type": "event"
    },
    {
      "anonymous": false,
      "inputs": [
        {
          "indexed": false,
          "internalType": "bytes32",
          "name": "name",
          "type": "bytes32"
        },
        {
          "indexed": false,
          "internalType": "address",
          "name": "destination",
          "type": "address"
        }
      ],
      "name": "CacheUpdated",
      "type": "event"
    },
    {
      "anonymous": false,
      "inputs": [
        {
          "indexed": false,
          "internalType": "uint256",
          "name": "timestamp",
          "type": "uint256"
        }
      ],
      "name": "EmergencyTerminationExecuted",
      "type": "event"
    },
    {
      "anonymous": false,
      "inputs": [
        {
          "indexed": false,
          "internalType": "uint8",
          "name": "version",
          "type": "uint8"
        }
      ],
      "name": "Initialized",
      "type": "event"
    },
    {
      "anonymous": false,
      "inputs": [
        {
          "indexed": true,
          "internalType": "bytes32",
          "name": "ccy",
          "type": "bytes32"
        },
        {
          "indexed": true,
          "internalType": "address",
          "name": "marketAddr",
          "type": "address"
        },
        {
          "indexed": false,
          "internalType": "address",
          "name": "futureValueVault",
          "type": "address"
        },
        {
          "indexed": false,
          "internalType": "uint256",
          "name": "index",
          "type": "uint256"
        },
        {
          "indexed": false,
          "internalType": "uint256",
          "name": "openingDate",
          "type": "uint256"
        },
        {
          "indexed": false,
          "internalType": "uint256",
          "name": "maturity",
          "type": "uint256"
        }
      ],
      "name": "LendingMarketCreated",
      "type": "event"
    },
    {
      "anonymous": false,
      "inputs": [
        {
          "indexed": false,
          "internalType": "bytes32",
          "name": "ccy",
          "type": "bytes32"
        },
        {
          "indexed": false,
          "internalType": "uint256",
          "name": "oldMaturity",
          "type": "uint256"
        },
        {
          "indexed": false,
          "internalType": "uint256",
          "name": "newMaturity",
          "type": "uint256"
        }
      ],
      "name": "LendingMarketsRotated",
      "type": "event"
    },
    {
      "anonymous": false,
      "inputs": [
        {
          "indexed": true,
          "internalType": "address",
          "name": "user",
          "type": "address"
        },
        {
          "indexed": false,
          "internalType": "bytes32",
          "name": "collateralCcy",
          "type": "bytes32"
        },
        {
          "indexed": true,
          "internalType": "bytes32",
          "name": "debtCcy",
          "type": "bytes32"
        },
        {
          "indexed": true,
          "internalType": "uint256",
          "name": "debtMaturity",
          "type": "uint256"
        },
        {
          "indexed": false,
          "internalType": "uint256",
          "name": "debtAmount",
          "type": "uint256"
        }
      ],
      "name": "LiquidationExecuted",
      "type": "event"
    },
    {
      "anonymous": false,
      "inputs": [
        {
          "indexed": false,
          "internalType": "uint256",
          "name": "previousPeriod",
          "type": "uint256"
        },
        {
          "indexed": false,
          "internalType": "uint256",
          "name": "period",
          "type": "uint256"
        }
      ],
      "name": "ObservationPeriodUpdated",
      "type": "event"
    },
    {
      "anonymous": false,
      "inputs": [
        {
          "indexed": false,
          "internalType": "uint256",
          "name": "previousRate",
          "type": "uint256"
        },
        {
          "indexed": false,
          "internalType": "uint256",
          "name": "rate",
          "type": "uint256"
        }
      ],
      "name": "OrderFeeRateUpdated",
      "type": "event"
    },
    {
      "anonymous": false,
      "inputs": [
        {
          "indexed": true,
          "internalType": "address",
          "name": "previousOwner",
          "type": "address"
        },
        {
          "indexed": true,
          "internalType": "address",
          "name": "newOwner",
          "type": "address"
        }
      ],
      "name": "OwnershipTransferred",
      "type": "event"
    },
    {
      "anonymous": false,
      "inputs": [
        {
          "indexed": false,
          "internalType": "bytes32",
          "name": "ccy",
          "type": "bytes32"
        },
        {
          "indexed": true,
          "internalType": "address",
          "name": "user",
          "type": "address"
        },
        {
          "indexed": false,
          "internalType": "int256",
          "name": "amount",
          "type": "int256"
        }
      ],
      "name": "RedemptionExecuted",
      "type": "event"
    },
    {
      "inputs": [],
      "name": "acceptedContracts",
      "outputs": [
        {
          "internalType": "bytes32[]",
          "name": "contracts",
          "type": "bytes32[]"
        }
      ],
      "stateMutability": "pure",
      "type": "function"
    },
    {
      "inputs": [],
      "name": "buildCache",
      "outputs": [],
      "stateMutability": "nonpayable",
      "type": "function"
    },
    {
      "inputs": [
        {
          "internalType": "bytes32",
          "name": "_ccy",
          "type": "bytes32"
        },
        {
          "internalType": "address",
          "name": "_user",
          "type": "address"
        }
      ],
      "name": "calculateFunds",
      "outputs": [
        {
          "internalType": "uint256",
          "name": "workingLendOrdersAmount",
          "type": "uint256"
        },
        {
          "internalType": "uint256",
          "name": "claimableAmount",
          "type": "uint256"
        },
        {
          "internalType": "uint256",
          "name": "collateralAmount",
          "type": "uint256"
        },
        {
          "internalType": "uint256",
          "name": "lentAmount",
          "type": "uint256"
        },
        {
          "internalType": "uint256",
          "name": "workingBorrowOrdersAmount",
          "type": "uint256"
        },
        {
          "internalType": "uint256",
          "name": "debtAmount",
          "type": "uint256"
        },
        {
          "internalType": "uint256",
          "name": "borrowedAmount",
          "type": "uint256"
        }
      ],
      "stateMutability": "view",
      "type": "function"
    },
    {
      "inputs": [
        {
          "internalType": "address",
          "name": "_user",
          "type": "address"
        },
        {
          "internalType": "bytes32",
          "name": "_depositCcy",
          "type": "bytes32"
        },
        {
          "internalType": "uint256",
          "name": "_depositAmount",
          "type": "uint256"
        }
      ],
      "name": "calculateTotalFundsInETH",
      "outputs": [
        {
          "internalType": "uint256",
          "name": "totalWorkingLendOrdersAmount",
          "type": "uint256"
        },
        {
          "internalType": "uint256",
          "name": "totalClaimableAmount",
          "type": "uint256"
        },
        {
          "internalType": "uint256",
          "name": "totalCollateralAmount",
          "type": "uint256"
        },
        {
          "internalType": "uint256",
          "name": "totalLentAmount",
          "type": "uint256"
        },
        {
          "internalType": "uint256",
          "name": "totalWorkingBorrowOrdersAmount",
          "type": "uint256"
        },
        {
          "internalType": "uint256",
          "name": "totalDebtAmount",
          "type": "uint256"
        },
        {
          "internalType": "uint256",
          "name": "totalBorrowedAmount",
          "type": "uint256"
        },
        {
          "internalType": "bool",
          "name": "isEnoughDeposit",
          "type": "bool"
        }
      ],
      "stateMutability": "view",
      "type": "function"
    },
    {
      "inputs": [
        {
          "internalType": "bytes32",
          "name": "_ccy",
          "type": "bytes32"
        },
        {
          "internalType": "uint256",
          "name": "_maturity",
          "type": "uint256"
        },
        {
          "internalType": "uint48",
          "name": "_orderId",
          "type": "uint48"
        }
      ],
      "name": "cancelOrder",
      "outputs": [
        {
          "internalType": "bool",
          "name": "",
          "type": "bool"
        }
      ],
      "stateMutability": "nonpayable",
      "type": "function"
    },
    {
      "inputs": [
        {
          "internalType": "address",
          "name": "_user",
          "type": "address"
        }
      ],
      "name": "cleanUpAllFunds",
      "outputs": [],
      "stateMutability": "nonpayable",
      "type": "function"
    },
    {
      "inputs": [
        {
          "internalType": "bytes32",
          "name": "_ccy",
          "type": "bytes32"
        },
        {
          "internalType": "address",
          "name": "_user",
          "type": "address"
        }
      ],
      "name": "cleanUpFunds",
      "outputs": [
        {
          "internalType": "uint256",
          "name": "totalActiveOrderCount",
          "type": "uint256"
        }
      ],
      "stateMutability": "nonpayable",
      "type": "function"
    },
    {
      "inputs": [
        {
          "internalType": "bytes32",
          "name": "_ccy",
          "type": "bytes32"
        },
        {
          "internalType": "uint256",
          "name": "_openingDate",
          "type": "uint256"
        }
      ],
      "name": "createLendingMarket",
      "outputs": [],
      "stateMutability": "nonpayable",
      "type": "function"
    },
    {
      "inputs": [
        {
          "internalType": "bytes32",
          "name": "_ccy",
          "type": "bytes32"
        },
        {
          "internalType": "uint256",
          "name": "_maturity",
          "type": "uint256"
        },
        {
          "internalType": "enum ProtocolTypes.Side",
          "name": "_side",
          "type": "uint8"
        },
        {
          "internalType": "uint256",
          "name": "_amount",
          "type": "uint256"
        },
        {
          "internalType": "uint256",
          "name": "_unitPrice",
          "type": "uint256"
        }
      ],
      "name": "createOrder",
      "outputs": [
        {
          "internalType": "bool",
          "name": "",
          "type": "bool"
        }
      ],
      "stateMutability": "nonpayable",
      "type": "function"
    },
    {
      "inputs": [
        {
          "internalType": "bytes32",
          "name": "_ccy",
          "type": "bytes32"
        },
        {
          "internalType": "uint256",
          "name": "_maturity",
          "type": "uint256"
        },
        {
          "internalType": "enum ProtocolTypes.Side",
          "name": "_side",
          "type": "uint8"
        },
        {
          "internalType": "uint256",
          "name": "_amount",
          "type": "uint256"
        },
        {
          "internalType": "uint256",
          "name": "_unitPrice",
          "type": "uint256"
        }
      ],
      "name": "createPreOrder",
      "outputs": [
        {
          "internalType": "bool",
          "name": "",
          "type": "bool"
        }
      ],
      "stateMutability": "nonpayable",
      "type": "function"
    },
    {
      "inputs": [
        {
          "internalType": "bytes32",
          "name": "_ccy",
          "type": "bytes32"
        },
        {
          "internalType": "uint256",
          "name": "_maturity",
          "type": "uint256"
        },
        {
          "internalType": "enum ProtocolTypes.Side",
          "name": "_side",
          "type": "uint8"
        },
        {
          "internalType": "uint256",
          "name": "_amount",
          "type": "uint256"
        },
        {
          "internalType": "uint256",
          "name": "_unitPrice",
          "type": "uint256"
        }
      ],
      "name": "depositAndCreateOrder",
      "outputs": [
        {
          "internalType": "bool",
          "name": "",
          "type": "bool"
        }
      ],
      "stateMutability": "payable",
      "type": "function"
    },
    {
      "inputs": [
        {
          "internalType": "bytes32",
          "name": "_ccy",
          "type": "bytes32"
        },
        {
          "internalType": "uint256",
          "name": "_maturity",
          "type": "uint256"
        },
        {
          "internalType": "enum ProtocolTypes.Side",
          "name": "_side",
          "type": "uint8"
        },
        {
          "internalType": "uint256",
          "name": "_amount",
          "type": "uint256"
        },
        {
          "internalType": "uint256",
          "name": "_unitPrice",
          "type": "uint256"
        }
      ],
      "name": "depositAndCreatePreOrder",
      "outputs": [
        {
          "internalType": "bool",
          "name": "",
          "type": "bool"
        }
      ],
      "stateMutability": "payable",
      "type": "function"
    },
    {
      "inputs": [],
      "name": "executeEmergencyTermination",
      "outputs": [],
      "stateMutability": "nonpayable",
      "type": "function"
    },
    {
      "inputs": [
        {
          "internalType": "bytes32[]",
          "name": "_currencies",
          "type": "bytes32[]"
        },
        {
          "internalType": "uint256",
          "name": "_maturity",
          "type": "uint256"
        }
      ],
      "name": "executeItayoseCalls",
      "outputs": [
        {
          "internalType": "bool",
          "name": "",
          "type": "bool"
        }
      ],
      "stateMutability": "nonpayable",
      "type": "function"
    },
    {
      "inputs": [
        {
          "internalType": "bytes32",
          "name": "_collateralCcy",
          "type": "bytes32"
        },
        {
          "internalType": "bytes32",
          "name": "_debtCcy",
          "type": "bytes32"
        },
        {
          "internalType": "uint256",
          "name": "_debtMaturity",
          "type": "uint256"
        },
        {
          "internalType": "address",
          "name": "_user",
          "type": "address"
        }
      ],
      "name": "executeLiquidationCall",
      "outputs": [
        {
          "internalType": "bool",
          "name": "",
          "type": "bool"
        }
      ],
      "stateMutability": "nonpayable",
      "type": "function"
    },
    {
      "inputs": [
        {
          "internalType": "bytes32",
          "name": "_redemptionCcy",
          "type": "bytes32"
        },
        {
          "internalType": "bytes32",
          "name": "_collateralCcy",
          "type": "bytes32"
        }
      ],
      "name": "executeRedemption",
      "outputs": [
        {
          "internalType": "bool",
          "name": "",
          "type": "bool"
        }
      ],
      "stateMutability": "nonpayable",
      "type": "function"
    },
    {
      "inputs": [
        {
          "internalType": "bytes32",
          "name": "_ccy",
          "type": "bytes32"
        }
      ],
      "name": "getAutoRollFeeRate",
      "outputs": [
        {
          "internalType": "uint256",
          "name": "",
          "type": "uint256"
        }
      ],
      "stateMutability": "view",
      "type": "function"
    },
    {
      "inputs": [
        {
          "internalType": "bytes32",
          "name": "_ccy",
          "type": "bytes32"
        },
        {
          "internalType": "uint256",
          "name": "_maturity",
          "type": "uint256"
        },
        {
          "internalType": "uint256",
          "name": "_limit",
          "type": "uint256"
        }
      ],
      "name": "getBorrowOrderBook",
      "outputs": [
        {
          "internalType": "uint256[]",
          "name": "unitPrices",
          "type": "uint256[]"
        },
        {
          "internalType": "uint256[]",
          "name": "amounts",
          "type": "uint256[]"
        },
        {
          "internalType": "uint256[]",
          "name": "quantities",
          "type": "uint256[]"
        }
      ],
      "stateMutability": "view",
      "type": "function"
    },
    {
      "inputs": [
        {
          "internalType": "bytes32",
          "name": "_ccy",
          "type": "bytes32"
        }
      ],
      "name": "getBorrowUnitPrices",
      "outputs": [
        {
          "internalType": "uint256[]",
          "name": "",
          "type": "uint256[]"
        }
      ],
      "stateMutability": "view",
      "type": "function"
    },
    {
      "inputs": [
        {
          "internalType": "bytes32",
          "name": "_ccy",
          "type": "bytes32"
        },
        {
          "internalType": "uint256",
          "name": "_maturity",
          "type": "uint256"
        },
        {
          "internalType": "address",
          "name": "_user",
          "type": "address"
        }
      ],
      "name": "getFutureValue",
      "outputs": [
        {
          "internalType": "int256",
          "name": "futureValue",
          "type": "int256"
        }
      ],
      "stateMutability": "view",
      "type": "function"
    },
    {
      "inputs": [
        {
          "internalType": "bytes32",
          "name": "_ccy",
          "type": "bytes32"
        },
        {
          "internalType": "uint256",
          "name": "_maturity",
          "type": "uint256"
        }
      ],
      "name": "getFutureValueVault",
      "outputs": [
        {
          "internalType": "address",
          "name": "",
          "type": "address"
        }
      ],
      "stateMutability": "view",
      "type": "function"
    },
    {
      "inputs": [
        {
          "internalType": "bytes32",
          "name": "_ccy",
          "type": "bytes32"
        }
      ],
      "name": "getGenesisDate",
      "outputs": [
        {
          "internalType": "uint256",
          "name": "",
          "type": "uint256"
        }
      ],
      "stateMutability": "view",
      "type": "function"
    },
    {
      "inputs": [
        {
          "internalType": "bytes32",
          "name": "_ccy",
          "type": "bytes32"
        },
        {
          "internalType": "address",
          "name": "_user",
          "type": "address"
        }
      ],
      "name": "getGenesisValue",
      "outputs": [
        {
          "internalType": "int256",
          "name": "genesisValue",
          "type": "int256"
        }
      ],
      "stateMutability": "view",
      "type": "function"
    },
    {
      "inputs": [
        {
          "internalType": "bytes32",
          "name": "_ccy",
          "type": "bytes32"
        },
        {
          "internalType": "uint256",
          "name": "_maturity",
          "type": "uint256"
        },
        {
          "internalType": "uint256",
          "name": "_limit",
          "type": "uint256"
        }
      ],
      "name": "getLendOrderBook",
      "outputs": [
        {
          "internalType": "uint256[]",
          "name": "unitPrices",
          "type": "uint256[]"
        },
        {
          "internalType": "uint256[]",
          "name": "amounts",
          "type": "uint256[]"
        },
        {
          "internalType": "uint256[]",
          "name": "quantities",
          "type": "uint256[]"
        }
      ],
      "stateMutability": "view",
      "type": "function"
    },
    {
      "inputs": [
        {
          "internalType": "bytes32",
          "name": "_ccy",
          "type": "bytes32"
        }
      ],
      "name": "getLendUnitPrices",
      "outputs": [
        {
          "internalType": "uint256[]",
          "name": "",
          "type": "uint256[]"
        }
      ],
      "stateMutability": "view",
      "type": "function"
    },
    {
      "inputs": [
        {
          "internalType": "bytes32",
          "name": "_ccy",
          "type": "bytes32"
        },
        {
          "internalType": "uint256",
          "name": "_maturity",
          "type": "uint256"
        }
      ],
      "name": "getLendingMarket",
      "outputs": [
        {
          "internalType": "address",
          "name": "",
          "type": "address"
        }
      ],
      "stateMutability": "view",
      "type": "function"
    },
    {
      "inputs": [
        {
          "internalType": "bytes32",
          "name": "_ccy",
          "type": "bytes32"
        }
      ],
      "name": "getLendingMarkets",
      "outputs": [
        {
          "internalType": "address[]",
          "name": "",
          "type": "address[]"
        }
      ],
      "stateMutability": "view",
      "type": "function"
    },
    {
      "inputs": [
        {
          "internalType": "bytes32",
          "name": "_ccy",
          "type": "bytes32"
        }
      ],
      "name": "getMaturities",
      "outputs": [
        {
          "internalType": "uint256[]",
          "name": "",
          "type": "uint256[]"
        }
      ],
      "stateMutability": "view",
      "type": "function"
    },
    {
      "inputs": [
        {
          "internalType": "bytes32",
          "name": "_ccy",
          "type": "bytes32"
        }
      ],
      "name": "getMidUnitPrices",
      "outputs": [
        {
          "internalType": "uint256[]",
          "name": "",
          "type": "uint256[]"
        }
      ],
      "stateMutability": "view",
      "type": "function"
    },
    {
      "inputs": [],
      "name": "getObservationPeriod",
      "outputs": [
        {
          "internalType": "uint256",
          "name": "",
          "type": "uint256"
        }
      ],
      "stateMutability": "view",
      "type": "function"
    },
    {
      "inputs": [
        {
          "internalType": "bytes32",
          "name": "_ccy",
          "type": "bytes32"
        }
      ],
      "name": "getOrderFeeRate",
      "outputs": [
        {
          "internalType": "uint256",
          "name": "",
          "type": "uint256"
        }
      ],
      "stateMutability": "view",
      "type": "function"
    },
    {
      "inputs": [
        {
          "internalType": "bytes32[]",
          "name": "_ccys",
          "type": "bytes32[]"
        },
        {
          "internalType": "address",
          "name": "_user",
          "type": "address"
        }
      ],
      "name": "getOrders",
      "outputs": [
        {
          "components": [
            {
              "internalType": "bytes32",
              "name": "ccy",
              "type": "bytes32"
            },
            {
              "internalType": "uint256",
              "name": "maturity",
              "type": "uint256"
            },
            {
              "internalType": "enum ProtocolTypes.Side",
              "name": "side",
              "type": "uint8"
            },
            {
              "internalType": "uint256",
              "name": "unitPrice",
              "type": "uint256"
            },
            {
              "internalType": "uint256",
              "name": "amount",
              "type": "uint256"
            },
            {
              "internalType": "uint256",
              "name": "timestamp",
              "type": "uint256"
            }
          ],
          "internalType": "struct ILendingMarketController.Order[]",
          "name": "activeOrders",
          "type": "tuple[]"
        },
        {
          "components": [
            {
              "internalType": "bytes32",
              "name": "ccy",
              "type": "bytes32"
            },
            {
              "internalType": "uint256",
              "name": "maturity",
              "type": "uint256"
            },
            {
              "internalType": "enum ProtocolTypes.Side",
              "name": "side",
              "type": "uint8"
            },
            {
              "internalType": "uint256",
              "name": "unitPrice",
              "type": "uint256"
            },
            {
              "internalType": "uint256",
              "name": "amount",
              "type": "uint256"
            },
            {
              "internalType": "uint256",
              "name": "timestamp",
              "type": "uint256"
            }
          ],
          "internalType": "struct ILendingMarketController.Order[]",
          "name": "inactiveOrders",
          "type": "tuple[]"
        }
      ],
      "stateMutability": "view",
      "type": "function"
    },
    {
      "inputs": [
        {
          "internalType": "bytes32",
          "name": "_ccy",
          "type": "bytes32"
        },
        {
          "internalType": "uint256",
          "name": "_maturity",
          "type": "uint256"
        },
        {
          "internalType": "address",
          "name": "_user",
          "type": "address"
        }
      ],
      "name": "getPresentValue",
      "outputs": [
        {
          "internalType": "int256",
          "name": "presentValue",
          "type": "int256"
        }
      ],
      "stateMutability": "view",
      "type": "function"
    },
    {
      "inputs": [
        {
          "internalType": "bytes32",
          "name": "_ccy",
          "type": "bytes32"
        },
        {
          "internalType": "address",
          "name": "_user",
          "type": "address"
        }
      ],
      "name": "getTotalPresentValue",
      "outputs": [
        {
          "internalType": "int256",
          "name": "totalPresentValue",
          "type": "int256"
        }
      ],
      "stateMutability": "view",
      "type": "function"
    },
    {
      "inputs": [
        {
          "internalType": "address",
          "name": "_user",
          "type": "address"
        }
      ],
      "name": "getTotalPresentValueInETH",
      "outputs": [
        {
          "internalType": "int256",
          "name": "totalPresentValue",
          "type": "int256"
        }
      ],
      "stateMutability": "view",
      "type": "function"
    },
    {
      "inputs": [
        {
          "internalType": "address",
          "name": "_user",
          "type": "address"
        }
      ],
      "name": "getUsedCurrencies",
      "outputs": [
        {
          "internalType": "bytes32[]",
          "name": "",
          "type": "bytes32[]"
        }
      ],
      "stateMutability": "view",
      "type": "function"
    },
    {
      "inputs": [
        {
          "internalType": "address",
          "name": "_owner",
          "type": "address"
        },
        {
          "internalType": "address",
          "name": "_resolver",
          "type": "address"
        },
        {
          "internalType": "uint256",
          "name": "_marketBasePeriod",
          "type": "uint256"
        },
        {
          "internalType": "uint256",
          "name": "_observationPeriod",
          "type": "uint256"
        }
      ],
      "name": "initialize",
      "outputs": [],
      "stateMutability": "nonpayable",
      "type": "function"
    },
    {
      "inputs": [
        {
          "internalType": "bytes32",
          "name": "_ccy",
          "type": "bytes32"
        },
        {
          "internalType": "uint256",
          "name": "_genesisDate",
          "type": "uint256"
        },
        {
          "internalType": "uint256",
          "name": "_compoundFactor",
          "type": "uint256"
        },
        {
          "internalType": "uint256",
          "name": "_orderFeeRate",
          "type": "uint256"
        },
        {
          "internalType": "uint256",
          "name": "_autoRollFeeRate",
          "type": "uint256"
        }
      ],
      "name": "initializeLendingMarket",
      "outputs": [],
      "stateMutability": "nonpayable",
      "type": "function"
    },
    {
      "inputs": [
        {
          "internalType": "bytes32",
          "name": "_ccy",
          "type": "bytes32"
        }
      ],
      "name": "isInitializedLendingMarket",
      "outputs": [
        {
          "internalType": "bool",
          "name": "",
          "type": "bool"
        }
      ],
      "stateMutability": "view",
      "type": "function"
    },
    {
      "inputs": [],
      "name": "isResolverCached",
      "outputs": [
        {
          "internalType": "bool",
          "name": "",
          "type": "bool"
        }
      ],
      "stateMutability": "view",
      "type": "function"
    },
    {
      "inputs": [],
      "name": "isTerminated",
      "outputs": [
        {
          "internalType": "bool",
          "name": "",
          "type": "bool"
        }
      ],
      "stateMutability": "view",
      "type": "function"
    },
    {
      "inputs": [],
      "name": "owner",
      "outputs": [
        {
          "internalType": "address",
          "name": "",
          "type": "address"
        }
      ],
      "stateMutability": "view",
      "type": "function"
    },
    {
      "inputs": [
        {
          "internalType": "bytes32",
          "name": "_ccy",
          "type": "bytes32"
        }
      ],
      "name": "pauseLendingMarkets",
      "outputs": [
        {
          "internalType": "bool",
          "name": "",
          "type": "bool"
        }
      ],
      "stateMutability": "nonpayable",
      "type": "function"
    },
    {
      "inputs": [],
      "name": "renounceOwnership",
      "outputs": [],
      "stateMutability": "nonpayable",
      "type": "function"
    },
    {
      "inputs": [],
      "name": "requiredContracts",
      "outputs": [
        {
          "internalType": "bytes32[]",
          "name": "contracts",
          "type": "bytes32[]"
        }
      ],
      "stateMutability": "pure",
      "type": "function"
    },
    {
      "inputs": [],
      "name": "resolver",
      "outputs": [
        {
          "internalType": "contract IAddressResolver",
          "name": "",
          "type": "address"
        }
      ],
      "stateMutability": "view",
      "type": "function"
    },
    {
      "inputs": [
        {
          "internalType": "bytes32",
          "name": "_ccy",
          "type": "bytes32"
        }
      ],
      "name": "rotateLendingMarkets",
      "outputs": [],
      "stateMutability": "nonpayable",
      "type": "function"
    },
    {
      "inputs": [
        {
          "internalType": "address",
          "name": "newOwner",
          "type": "address"
        }
      ],
      "name": "transferOwnership",
      "outputs": [],
      "stateMutability": "nonpayable",
      "type": "function"
    },
    {
      "inputs": [
        {
          "internalType": "bytes32",
          "name": "_ccy",
          "type": "bytes32"
        }
      ],
      "name": "unpauseLendingMarkets",
      "outputs": [
        {
          "internalType": "bool",
          "name": "",
          "type": "bool"
        }
      ],
      "stateMutability": "nonpayable",
      "type": "function"
    },
    {
      "inputs": [
        {
          "internalType": "bytes32",
          "name": "_ccy",
          "type": "bytes32"
        },
        {
          "internalType": "uint256",
          "name": "_maturity",
          "type": "uint256"
        }
      ],
      "name": "unwindOrder",
      "outputs": [
        {
          "internalType": "bool",
          "name": "",
          "type": "bool"
        }
      ],
      "stateMutability": "nonpayable",
      "type": "function"
    },
    {
      "inputs": [
        {
          "internalType": "bytes32",
          "name": "_ccy",
          "type": "bytes32"
        },
        {
          "internalType": "uint256",
          "name": "_autoRollFeeRate",
          "type": "uint256"
        }
      ],
      "name": "updateAutoRollFeeRate",
      "outputs": [],
      "stateMutability": "nonpayable",
      "type": "function"
    },
    {
      "inputs": [
        {
          "internalType": "uint256",
          "name": "_observationPeriod",
          "type": "uint256"
        }
      ],
      "name": "updateObservationPeriod",
      "outputs": [],
      "stateMutability": "nonpayable",
      "type": "function"
    },
    {
      "inputs": [
        {
          "internalType": "bytes32",
          "name": "_ccy",
          "type": "bytes32"
        },
        {
          "internalType": "uint256",
          "name": "_orderFeeRate",
          "type": "uint256"
        }
      ],
      "name": "updateOrderFeeRate",
      "outputs": [],
      "stateMutability": "nonpayable",
      "type": "function"
    }
  ],
  "transactionHash": "0xa2ff89480db3bed323753e65d47c44bdc6df946e1e6c0ea5d8f438600b5bd0d2",
  "args": [],
  "numDeployments": 2,
  "solcInputHash": "b3f81b4aed61bdd5b53058f124d0fb80",
  "bytecode": "0x608060405234801561001057600080fd5b5060016000556159df80620000266000396000f3fe60806040526004361061031a5760003560e01c806385323e1a116101ab578063c11333b1116100f7578063eb990c5911610095578063f2fde38b1161006f578063f2fde38b146109fd578063faca409b14610a1d578063fb54a6b314610a3d578063fc70081014610a5d57600080fd5b8063eb990c5914610989578063ebb91416146109a9578063f1eaebae146109c957600080fd5b8063e0997659116100d1578063e099765914610914578063e906c10014610929578063e99d053814610949578063eb092a261461096957600080fd5b8063c11333b1146108a5578063cb9d7401146108c5578063d1cc9976146108ff57600080fd5b80639519832b11610164578063b3cb84501161013e578063b3cb84501461083d578063b8f117cd1461085d578063bfd10cf614610872578063bfe61a281461089257600080fd5b80639519832b146107dd578063953dbcaa146107fd578063a02be3dc1461081d57600080fd5b806385323e1a14610728578063891d5965146107485780638a981745146107685780638b36d833146107885780638c197d8d146107a85780638da5cb5b146107c857600080fd5b8063448255c71161026a578063677faaad1161022357806372d563ef116101fd57806372d563ef146106a8578063766cb64e146106c85780637c63039d146106e8578063826b47e81461070857600080fd5b8063677faaad1461065357806370c641a614610673578063715018a61461069357600080fd5b8063448255c714610550578063482f267a1461056357806349f2ccbf1461059157806355aceb4e146105b15780635c347765146105de5780635ca65d571461063357600080fd5b806329985e5a116102d75780632e77aea7116102b15780632e77aea7146104c15780632f749574146104e1578063381ada1f146105015780633d03b9da1461052e57600080fd5b806329985e5a146104755780632af64bd31461048c5780632e6c5e67146104a157600080fd5b80630312b5281461031f57806303e5fb591461038157806304f3bcec146103c95780630594de6e146103f657806317b72ff4146104255780631deb8f3914610445575b600080fd5b34801561032b57600080fd5b5061033f61033a366004614a57565b610a7d565b604080519889526020890197909752958701949094526060860192909252608085015260a084015260c0830152151560e0820152610100015b60405180910390f35b34801561038d57600080fd5b506103bb61039c366004614a8c565b600090815260008051602061596a833981519152602052604090205490565b604051908152602001610378565b3480156103d557600080fd5b506103de610b44565b6040516001600160a01b039091168152602001610378565b34801561040257600080fd5b50610416610411366004614aa5565b610b65565b60405161037893929190614b0c565b34801561043157600080fd5b506103bb610440366004614b4f565b610c24565b34801561045157600080fd5b50610465610460366004614b7f565b610cb9565b6040519015158152602001610378565b34801561048157600080fd5b5061048a610ff4565b005b34801561049857600080fd5b506104656111a1565b3480156104ad57600080fd5b506104656104bc366004614a8c565b611307565b3480156104cd57600080fd5b506103bb6104dc366004614ba1565b611327565b3480156104ed57600080fd5b5061048a6104fc366004614b7f565b6113bd565b34801561050d57600080fd5b5061052161051c366004614a8c565b6114c0565b6040516103789190614bda565b34801561053a57600080fd5b5061054361153e565b6040516103789190614c27565b61046561055e366004614c6c565b611660565b34801561056f57600080fd5b5061058361057e366004614db1565b611798565b604051610378929190614e9d565b34801561059d57600080fd5b506104656105ac366004614ec2565b611833565b3480156105bd57600080fd5b506105d16105cc366004614a8c565b61199f565b6040516103789190614efb565b3480156105ea57600080fd5b506105fe6105f9366004614b4f565b611b10565b604080519788526020880196909652948601939093526060850191909152608084015260a083015260c082015260e001610378565b34801561063f57600080fd5b5061048a61064e366004614b7f565b611bfb565b34801561065f57600080fd5b5061046561066e366004614b7f565b611ced565b34801561067f57600080fd5b506103bb61068e366004614b4f565b611fa9565b34801561069f57600080fd5b5061048a612041565b3480156106b457600080fd5b5061048a6106c3366004614b7f565b61207c565b3480156106d457600080fd5b5061048a6106e3366004614f0e565b6121e4565b3480156106f457600080fd5b50610465610703366004614f49565b61233b565b34801561071457600080fd5b5061048a610723366004614f8d565b61248d565b34801561073457600080fd5b506103de610743366004614b7f565b6124f4565b34801561075457600080fd5b506103bb610763366004614a8c565b61255d565b34801561077457600080fd5b506103de610783366004614b7f565b61257b565b34801561079457600080fd5b5061048a6107a3366004614a8c565b6125ad565b3480156107b457600080fd5b5061048a6107c3366004614a8c565b612816565b3480156107d457600080fd5b506103de612851565b3480156107e957600080fd5b506103bb6107f8366004614b4f565b612879565b34801561080957600080fd5b50610416610818366004614aa5565b612915565b34801561082957600080fd5b506105d1610838366004614a8c565b612974565b34801561084957600080fd5b50610465610858366004614a8c565b612ade565b34801561086957600080fd5b5061048a612ba2565b34801561087e57600080fd5b506105d161088d366004614a8c565b612cba565b6104656108a0366004614c6c565b612e24565b3480156108b157600080fd5b506104656108c0366004614faa565b612f5b565b3480156108d157600080fd5b506103bb6108e0366004614a8c565b600090815260008051602061598a833981519152602052604090205490565b34801561090b57600080fd5b5061046561343f565b34801561092057600080fd5b50610543613454565b34801561093557600080fd5b506103bb610944366004614ba1565b613497565b34801561095557600080fd5b50610465610964366004614a8c565b613530565b34801561097557600080fd5b506105d1610984366004614a8c565b6135be565b34801561099557600080fd5b5061048a6109a4366004614feb565b613728565b3480156109b557600080fd5b506104656109c4366004614c6c565b6138b7565b3480156109d557600080fd5b507f55cc3066d618b5a688ac1f2a8234e21c685f7432b4230a1660309640d60d8f66546103bb565b348015610a0957600080fd5b5061048a610a18366004614f8d565b613967565b348015610a2957600080fd5b50610465610a38366004614c6c565b613a04565b348015610a4957600080fd5b506103bb610a58366004614f8d565b613ab4565b348015610a6957600080fd5b50610543610a78366004614f8d565b613c3e565b604051626256a560e31b81526001600160a01b03841660048201526024810183905260448101829052600090819081908190819081908190819073ae20bc872Fe5df8b1F883E3295e54daD5F923e8690630312b528906064016101006040518083038186803b158015610aef57600080fd5b505af4158015610b03573d6000803e3d6000fd5b505050506040513d601f19601f82011682018060405250810190610b279190615041565b975097509750975097509750975097509397509397509397509397565b600060008051602061594a8339815191525b546001600160a01b0316919050565b60608060606000610b74613c6c565b600088815260069190910160209081526040808320898452909152908190205490516325fb168b60e11b8152600481018790526001600160a01b0390911691508190634bf62d16906024015b60006040518083038186803b158015610bd857600080fd5b505afa158015610bec573d6000803e3d6000fd5b505050506040513d6000823e601f3d908101601f19168201604052610c149190810190615102565b9350935093505093509350939050565b6040516295a47160e71b815260009073ae20bc872Fe5df8b1F883E3295e54daD5F923e8690634ad2388090610c6190869085908790600401615189565b60e06040518083038186803b158015610c7957600080fd5b505af4158015610c8d573d6000803e3d6000fd5b505050506040513d601f19601f82011682018060405250810190610cb191906151a8565b519392505050565b600060026000541415610ce75760405162461bcd60e51b8152600401610cde9061522b565b60405180910390fd5b6002600090815583908390610cfa613c6c565b6000848152600691909101602090815260408083208584529091529020546001600160a01b03161415610d3f5760405162461bcd60e51b8152600401610cde90615262565b610d4761343f565b15610d645760405162461bcd60e51b8152600401610cde9061528c565b6040516295a47160e71b815260009073ae20bc872Fe5df8b1F883E3295e54daD5F923e8690634ad2388090610da190899089903390600401615189565b60e06040518083038186803b158015610db957600080fd5b505af4158015610dcd573d6000803e3d6000fd5b505050506040513d601f19601f82011682018060405250810190610df191906151a8565b6020015160405163183b3c2b60e31b8152600481018890526024810187905233604482015260648101829052909150600090819081908190819073076e143Ee14F06EB1aFA13B7256cb2D672919f449063c1d9e1589060840160e06040518083038186803b158015610e6257600080fd5b505af4158015610e76573d6000803e3d6000fd5b505050506040513d601f19601f82011682018060405250810190610e9a919061531e565b94509450945094509450610eb58b8b338488888b6000613c90565b610ee38b8b6000846001811115610ece57610ece614df7565b14610eda576000610edd565b60015b85613dcc565b6000610eef8c8c6124f4565b60405163070da1af60e11b81523360048201526001600160a01b039190911690630e1b435e90602401604080518083038186803b158015610f2f57600080fd5b505afa158015610f43573d6000803e3d6000fd5b505050506040513d601f19601f82011682018060405250810190610f679190615373565b5090508015610fdc5760405163b6eb033d60e01b815273ae20bc872Fe5df8b1F883E3295e54daD5F923e869063b6eb033d90610fab908f908f903390600401615189565b60006040518083038186803b158015610fc357600080fd5b505af4158015610fd7573d6000803e3d6000fd5b505050505b60019950505050505050505050600160005592915050565b6000610ffe61153e565b905060005b815181101561119d57600082828151811061102057611020615397565b60200260200101519050600061104160008051602061594a83398151915290565b54604080517f5265736f6c766572206d697373696e67207461726765743a200000000000000060208201526039808201869052825180830390910181526059820192839052636795dbcd60e01b9092526001600160a01b0390921691636795dbcd916110b291869190605d016153fa565b60206040518083038186803b1580156110ca57600080fd5b505afa1580156110de573d6000803e3d6000fd5b505050506040513d601f19601f820116820180604052508101906111029190615413565b60008381527f4abde63c3e81aefa5764b017968bc473e83e093d7e1a10247d19e0a3e4124019602090815260409182902080546001600160a01b0319166001600160a01b03851690811790915582518681529182015281519293507f88a93678a3692f6789d9546fc621bf7234b101ddb7d4fe479455112831b8aa68929081900390910190a15050808061119590615446565b915050611003565b5050565b6000806111ac61153e565b905060005b81518110156112fe5760008282815181106111ce576111ce615397565b602002602001015190506111ed60008051602061594a83398151915290565b600082815260019190910160205260409020546001600160a01b031660008051602061594a833981519152546040516321f8a72160e01b8152600481018490526001600160a01b03909116906321f8a7219060240160206040518083038186803b15801561125a57600080fd5b505afa15801561126e573d6000803e3d6000fd5b505050506040513d601f19601f820116820180604052508101906112929190615413565b6001600160a01b03161415806112dc575060008181527f4abde63c3e81aefa5764b017968bc473e83e093d7e1a10247d19e0a3e412401960205260409020546001600160a01b0316155b156112eb576000935050505090565b50806112f681615446565b9150506111b1565b50600191505090565b6000611311613c6c565b6000928352600701602052506040902054151590565b6040516295a47160e71b815260009073ae20bc872Fe5df8b1F883E3295e54daD5F923e8690634ad238809061136490879087908790600401615189565b60e06040518083038186803b15801561137c57600080fd5b505af4158015611390573d6000803e3d6000fd5b505050506040513d601f19601f820116820180604052508101906113b491906151a8565b51949350505050565b336113c6612851565b6001600160a01b0316146113ec5760405162461bcd60e51b8152600401610cde90615461565b61271081111561143e5760405162461bcd60e51b815260206004820152601a60248201527f496e76616c6964206175746f2d726f6c6c2066656520726174650000000000006044820152606401610cde565b600082815260008051602061598a83398151915260205260409020548181146114bb57600083815260008051602061598a833981519152602090815260409182902084905581518381529081018490527fdfbb9051e39a726dacd506a01fecef2277ab8adc7423037867c554573f179fdb91015b60405180910390a15b505050565b60606114ca613c6c565b600401600083815260200190815260200160002080548060200260200160405190810160405280929190818152602001828054801561153257602002820191906000526020600020905b81546001600160a01b03168152600190910190602001808311611514575b50505050509050919050565b60408051600580825260c082019092526060916020820160a080368337019050509050742132b0b1b7b7283937bc3ca1b7b73a3937b63632b960591b8160008151811061158d5761158d615397565b6020026020010181815250507121bab93932b731bca1b7b73a3937b63632b960711b816001815181106115c2576115c2615397565b6020026020010181815250507011d95b995cda5cd5985b1d5955985d5b1d607a1b816002815181106115f6576115f6615397565b6020026020010181815250506a14995cd95c9d99519d5b9960aa1b8160038151811061162457611624615397565b60200260200101818152505069151bdad95b95985d5b1d60b21b8160048151811061165157611651615397565b60200260200101818152505090565b6000600260005414156116855760405162461bcd60e51b8152600401610cde9061522b565b6002600090815586908690611698613c6c565b6000848152600691909101602090815260408083208584529091529020546001600160a01b031614156116dd5760405162461bcd60e51b8152600401610cde90615262565b6116e561343f565b156117025760405162461bcd60e51b8152600401610cde9061528c565b61170a613e56565b6040516396994e3760e01b8152336004820152602481018a9052604481018790526001600160a01b0391909116906396994e379034906064016000604051808303818588803b15801561175c57600080fd5b505af1158015611770573d6000803e3d6000fd5b5050505050611783888833898989613e65565b50600192505050600160005595945050505050565b60608073076e143Ee14F06EB1aFA13B7256cb2D672919f4463482f267a85856040518363ffffffff1660e01b81526004016117d4929190615496565b60006040518083038186803b1580156117ec57600080fd5b505af4158015611800573d6000803e3d6000fd5b505050506040513d6000823e601f3d908101601f1916820160405261182891908101906155a5565b909590945092505050565b6000600260005414156118585760405162461bcd60e51b8152600401610cde9061522b565b600260009081558490849061186b613c6c565b6000848152600691909101602090815260408083208584529091529020546001600160a01b031614156118b05760405162461bcd60e51b8152600401610cde90615262565b6118b861343f565b156118d55760405162461bcd60e51b8152600401610cde9061528c565b60006118df613c6c565b6000888152600691909101602090815260408083208984529091529081902054905163504b89bd60e01b815233600482015265ffffffffffff871660248201526001600160a01b039091169150819063504b89bd90604401606060405180830381600087803b15801561195157600080fd5b505af1158015611965573d6000803e3d6000fd5b505050506040513d601f19601f820116820180604052508101906119899190615608565b5050506001935050505060016000559392505050565b606060006119ab613c6c565b600084815260049190910160205260409020546001600160401b038111156119d5576119d5614cb5565b6040519080825280602002602001820160405280156119fe578160200160208202803683370190505b50905060005b611a0c613c6c565b60008581526004919091016020526040902054811015611b09576000611a30613c6c565b60040160008681526020019081526020016000208281548110611a5557611a55615397565b6000918252602091829020015460408051631b3508b760e01b815290516001600160a01b0390921693508392631b3508b792600480840193829003018186803b158015611aa157600080fd5b505afa158015611ab5573d6000803e3d6000fd5b505050506040513d601f19601f82011682018060405250810190611ad9919061563f565b838381518110611aeb57611aeb615397565b60209081029190910101525080611b0181615446565b915050611a04565b5092915050565b6000806000806000806000611b4989611b27613c6c565b6001600160a01b038b1660009081526008919091016020526040902090614235565b15611bef57604051635c34776560e01b8152600481018a90526001600160a01b038916602482015273ae20bc872Fe5df8b1F883E3295e54daD5F923e8690635c3477659060440160e06040518083038186803b158015611ba857600080fd5b505af4158015611bbc573d6000803e3d6000fd5b505050506040513d601f19601f82011682018060405250810190611be09190615658565b96509650965096509650965096505b92959891949750929550565b33611c04612851565b6001600160a01b031614611c2a5760405162461bcd60e51b8152600401610cde90615461565b612710811115611c755760405162461bcd60e51b8152602060048201526016602482015275496e76616c6964206f7264657220666565207261746560501b6044820152606401610cde565b600082815260008051602061596a83398151915260205260409020548181146114bb57600083815260008051602061596a833981519152602090815260409182902084905581518381529081018490527fff4528c215dc00005504418aa82be3bb2439c39be2eb30fd44012f5e79d168e291016114b2565b600060026000541415611d125760405162461bcd60e51b8152600401610cde9061522b565b6002600055611d1f61343f565b611d5c5760405162461bcd60e51b815260206004820152600e60248201526d139bdd081d195c9b5a5b985d195960921b6044820152606401610cde565b60405163bab7ae1760e01b81526004810184905233602482015260009073ae20bc872Fe5df8b1F883E3295e54daD5F923e869063bab7ae179060440160206040518083038186803b158015611db057600080fd5b505af4158015611dc4573d6000803e3d6000fd5b505050506040513d601f19601f82011682018060405250810190611de8919061563f565b90506000811315611ebc5773ae20bc872Fe5df8b1F883E3295e54daD5F923e86631696a4cd8533611e188561424d565b6040516001600160e01b031960e086901b16815260048101939093526001600160a01b039091166024830152604482015260640160006040518083038186803b158015611e6457600080fd5b505af4158015611e78573d6000803e3d6000fd5b505060408051878152602081018590523393507f93b0301fda99bfd2e8af22161527848125b3a6ae8e5bb83eed2f0313e758fa9c92500160405180910390a2611f99565b6000811215611f995773ae20bc872Fe5df8b1F883E3295e54daD5F923e86639aaf86498533611ef2611eed866156ac565b61424d565b6040516001600160e01b031960e086901b16815260048101939093526001600160a01b03909116602483015260448201526064810186905260840160006040518083038186803b158015611f4557600080fd5b505af4158015611f59573d6000803e3d6000fd5b505060408051878152602081018590523393507f93b0301fda99bfd2e8af22161527848125b3a6ae8e5bb83eed2f0313e758fa9c92500160405180910390a25b6001915050600160005592915050565b6040516295a47160e71b815260009073ae20bc872Fe5df8b1F883E3295e54daD5F923e8690634ad2388090611fe690869085908790600401615189565b60e06040518083038186803b158015611ffe57600080fd5b505af4158015612012573d6000803e3d6000fd5b505050506040513d601f19601f8201168201806040525081019061203691906151a8565b60c001519392505050565b3361204a612851565b6001600160a01b0316146120705760405162461bcd60e51b8152600401610cde90615461565b61207a60006142a3565b565b61208461343f565b156120a15760405162461bcd60e51b8152600401610cde9061528c565b336120aa612851565b6001600160a01b0316146120d05760405162461bcd60e51b8152600401610cde90615461565b6040516372d563ef60e01b8152600481018390526024810182905260009081908190733568976b6679e63dc4838A9ba4bF74C5590bfF69906372d563ef9060440160606040518083038186803b15801561212957600080fd5b505af415801561213d573d6000803e3d6000fd5b505050506040513d601f19601f8201168201806040525081019061216191906156c9565b925092509250826001600160a01b0316857fc29f3eef4e596f3e26da74f3482ffe2325449509e985d19f0a099240429add4e8461219c613c6c565b60008a815260049190910160209081526040918290205482516001600160a01b0390941684529083015281018890526060810185905260800160405180910390a35050505050565b336121ed612851565b6001600160a01b0316146122135760405162461bcd60e51b8152600401610cde90615461565b600083116122635760405162461bcd60e51b815260206004820152601760248201527f496e76616c696420636f6d706f756e6420666163746f720000000000000000006044820152606401610cde565b61226c85611307565b156122af5760405162461bcd60e51b8152602060048201526013602482015272105b1c9958591e481a5b9a5d1a585b1a5e9959606a1b6044820152606401610cde565b60405163d3f43b7960e01b8152600481018690526024810185905260448101849052733568976b6679e63dc4838A9ba4bF74C5590bfF699063d3f43b799060640160006040518083038186803b15801561230857600080fd5b505af415801561231c573d6000803e3d6000fd5b5050505061232a8583611bfb565b61233485826113bd565b5050505050565b6000600260005414156123605760405162461bcd60e51b8152600401610cde9061522b565b600260005561236d61343f565b1561238a5760405162461bcd60e51b8152600401610cde9061528c565b60005b835181101561247d5760008482815181106123aa576123aa615397565b60200260200101519050600080733568976b6679e63dc4838A9ba4bF74C5590bfF69636a23a95c84886040518363ffffffff1660e01b81526004016123f9929190918252602082015260400190565b60c06040518083038186803b15801561241157600080fd5b505af4158015612425573d6000803e3d6000fd5b505050506040513d601f19601f82011682018060405250810190612449919061570c565b9150915061245a8387600085613dcc565b6124678387600184613dcc565b505050808061247590615446565b91505061238d565b5060019050600160005592915050565b60405163104d68fd60e31b81526001600160a01b038216600482015273ae20bc872Fe5df8b1F883E3295e54daD5F923e869063826b47e89060240160006040518083038186803b1580156124e057600080fd5b505af4158015612334573d6000803e3d6000fd5b60006124fe613c6c565b60008481526005919091016020526040812090612519613c6c565b6000868152600691909101602090815260408083208784528252808320546001600160a01b0390811685529184019490945291909201909120541690505b92915050565b6000612567613c6c565b600092835260070160205250604090205490565b6000612585613c6c565b600093845260060160209081526040808520938552929052509020546001600160a01b031690565b600260005414156125d05760405162461bcd60e51b8152600401610cde9061522b565b6002600090815581906125e1613c6c565b600083815260049190910160205260409020541161265a5760405162461bcd60e51b815260206004820152603060248201527f4e6f206c656e64696e67206d61726b65747320657869737420666f722061207360448201526f706563696669632063757272656e637960801b6064820152608401610cde565b61266261343f565b1561267f5760405162461bcd60e51b8152600401610cde9061528c565b600080733568976b6679e63dc4838A9ba4bF74C5590bfF6963a3d54d8c856126c087600090815260008051602061598a833981519152602052604090205490565b6040516001600160e01b031960e085901b16815260048101929092526024820152604401604080518083038186803b1580156126fb57600080fd5b505af415801561270f573d6000803e3d6000fd5b505050506040513d601f19601f820116820180604052508101906127339190615373565b9150915073ae20bc872Fe5df8b1F883E3295e54daD5F923e8663300074c9858361275b614314565b6040518463ffffffff1660e01b815260040161277993929190615189565b60206040518083038186803b15801561279157600080fd5b505af41580156127a5573d6000803e3d6000fd5b505050506040513d601f19601f820116820180604052508101906127c9919061563f565b5060408051858152602081018490529081018290527f0c6f5a3bc801362dc3d24c87799fa831f5a601c5dbd8bed4064907844eef97369060600160405180910390a1505060016000555050565b3361281f612851565b6001600160a01b0316146128455760405162461bcd60e51b8152600401610cde90615461565b61284e8161431e565b50565b60007f9acda75aebd150dd434541a4747a6dc606f4f1a59662477e67daf1fc0bf9e0aa610b56565b604051639519832b60e01b8152600481018390526001600160a01b038216602482015260009073ae20bc872Fe5df8b1F883E3295e54daD5F923e8690639519832b9060440160206040518083038186803b1580156128d657600080fd5b505af41580156128ea573d6000803e3d6000fd5b505050506040513d601f19601f8201168201806040525081019061290e919061563f565b9392505050565b60608060606000612924613c6c565b6000888152600691909101602090815260408083208984529091529081902054905163d866d35560e01b8152600481018790526001600160a01b039091169150819063d866d35590602401610bc0565b60606000612980613c6c565b600084815260049190910160205260409020546001600160401b038111156129aa576129aa614cb5565b6040519080825280602002602001820160405280156129d3578160200160208202803683370190505b50905060005b6129e1613c6c565b60008581526004919091016020526040902054811015611b09576000612a05613c6c565b60040160008681526020019081526020016000208281548110612a2a57612a2a615397565b600091825260209182902001546040805163e16695b560e01b815290516001600160a01b039092169350839263e16695b592600480840193829003018186803b158015612a7657600080fd5b505afa158015612a8a573d6000803e3d6000fd5b505050506040513d601f19601f82011682018060405250810190612aae919061563f565b838381518110612ac057612ac0615397565b60209081029190910101525080612ad681615446565b9150506129d9565b6000612ae861343f565b15612b055760405162461bcd60e51b8152600401610cde9061528c565b33612b0e612851565b6001600160a01b031614612b345760405162461bcd60e51b8152600401610cde90615461565b604051630b3cb84560e41b815260048101839052733568976b6679e63dc4838A9ba4bF74C5590bfF699063b3cb8450906024015b60006040518083038186803b158015612b8057600080fd5b505af4158015612b94573d6000803e3d6000fd5b50505050600190505b919050565b60026000541415612bc55760405162461bcd60e51b8152600401610cde9061522b565b6002600055612bd261343f565b15612bef5760405162461bcd60e51b8152600401610cde9061528c565b33612bf8612851565b6001600160a01b031614612c1e5760405162461bcd60e51b8152600401610cde90615461565b733568976b6679e63dc4838A9ba4bF74C5590bfF6963b8f117cd6040518163ffffffff1660e01b815260040160006040518083038186803b158015612c6257600080fd5b505af4158015612c76573d6000803e3d6000fd5b505050507f5bd5e5214bcf42a851f8883889177591b93dbd526076c7b5e96bd8eed5931a5342604051612cab91815260200190565b60405180910390a16001600055565b60606000612cc6613c6c565b600084815260049190910160205260409020546001600160401b03811115612cf057612cf0614cb5565b604051908082528060200260200182016040528015612d19578160200160208202803683370190505b50905060005b612d27613c6c565b60008581526004919091016020526040902054811015611b09576000612d4b613c6c565b60040160008681526020019081526020016000208281548110612d7057612d70615397565b60009182526020918290200154604080516371613c2d60e01b815290516001600160a01b03909216935083926371613c2d92600480840193829003018186803b158015612dbc57600080fd5b505afa158015612dd0573d6000803e3d6000fd5b505050506040513d601f19601f82011682018060405250810190612df4919061563f565b838381518110612e0657612e06615397565b60209081029190910101525080612e1c81615446565b915050612d1f565b600060026000541415612e495760405162461bcd60e51b8152600401610cde9061522b565b6002600090815586908690612e5c613c6c565b6000848152600691909101602090815260408083208584529091529020546001600160a01b03161415612ea15760405162461bcd60e51b8152600401610cde90615262565b612ea961343f565b15612ec65760405162461bcd60e51b8152600401610cde9061528c565b612ece613e56565b6040516396994e3760e01b8152336004820152602481018a9052604481018790526001600160a01b0391909116906396994e379034906064016000604051808303818588803b158015612f2057600080fd5b505af1158015612f34573d6000803e3d6000fd5b5050505050612f47888833898989614398565b600192505050600160005595945050505050565b60003330146131fd576001546201000090046001600160a01b031615612f94576040516337affdbf60e11b815260040160405180910390fd5b6001805462010000600160b01b03191633620100000217905583836000612fb9613c6c565b6000848152600691909101602090815260408083208584529091529020546001600160a01b03161415612ffe5760405162461bcd60e51b8152600401610cde90615262565b61300661343f565b156130235760405162461bcd60e51b8152600401610cde9061528c565b604051635436151f60e11b81523360048201526001600160a01b038516602482015260448101889052606481018790526084810186905260009073ae20bc872Fe5df8b1F883E3295e54daD5F923e869063a86c2a3e9060a40160206040518083038186803b15801561309457600080fd5b505af41580156130a8573d6000803e3d6000fd5b505050506040513d601f19601f820116820180604052508101906130cc919061563f565b90506130d6613e56565b6040516325e1f09f60e01b81523360048201526001600160a01b0391909116906325e1f09f9060240160206040518083038186803b15801561311757600080fd5b505afa15801561312b573d6000803e3d6000fd5b505050506040513d601f19601f8201168201806040525081019061314f9190615741565b6131915760405162461bcd60e51b815260206004820152601360248201527224b73b30b634b2103634b8bab4b230ba34b7b760691b6044820152606401610cde565b8587866001600160a01b03167f347d8f9576f47b3bd7a4821cd3d3d4171968cdd36680d4abaca7de302d836f998b856040516131d7929190918252602082015260400190565b60405180910390a4600193505050506001805462010000600160b01b0319169055613437565b83836000613209613c6c565b6000848152600691909101602090815260408083208584529091529020546001600160a01b0316141561324e5760405162461bcd60e51b8152600401610cde90615262565b61325661343f565b156132735760405162461bcd60e51b8152600401610cde9061528c565b604051635436151f60e11b81523360048201526001600160a01b038516602482015260448101889052606481018790526084810186905260009073ae20bc872Fe5df8b1F883E3295e54daD5F923e869063a86c2a3e9060a40160206040518083038186803b1580156132e457600080fd5b505af41580156132f8573d6000803e3d6000fd5b505050506040513d601f19601f8201168201806040525081019061331c919061563f565b9050613326613e56565b6040516325e1f09f60e01b81523360048201526001600160a01b0391909116906325e1f09f9060240160206040518083038186803b15801561336757600080fd5b505afa15801561337b573d6000803e3d6000fd5b505050506040513d601f19601f8201168201806040525081019061339f9190615741565b6133e15760405162461bcd60e51b815260206004820152601360248201527224b73b30b634b2103634b8bab4b230ba34b7b760691b6044820152606401610cde565b8587866001600160a01b03167f347d8f9576f47b3bd7a4821cd3d3d4171968cdd36680d4abaca7de302d836f998b85604051613427929190918252602082015260400190565b60405180910390a4600193505050505b949350505050565b60008061344a613c6c565b6001015411905090565b6040805160018082528183019092526060916020808301908036833701905050905069151bdad95b95985d5b1d60b21b8160008151811061165157611651615397565b6040516295a47160e71b815260009073ae20bc872Fe5df8b1F883E3295e54daD5F923e8690634ad23880906134d490879087908790600401615189565b60e06040518083038186803b1580156134ec57600080fd5b505af4158015613500573d6000803e3d6000fd5b505050506040513d601f19601f8201168201806040525081019061352491906151a8565b60200151949350505050565b600061353a61343f565b156135575760405162461bcd60e51b8152600401610cde9061528c565b33613560612851565b6001600160a01b0316146135865760405162461bcd60e51b8152600401610cde90615461565b604051631d33a0a760e31b815260048101839052733568976b6679e63dc4838A9ba4bF74C5590bfF699063e99d053890602401612b68565b606060006135ca613c6c565b600084815260049190910160205260409020546001600160401b038111156135f4576135f4614cb5565b60405190808252806020026020018201604052801561361d578160200160208202803683370190505b50905060005b61362b613c6c565b60008581526004919091016020526040902054811015611b0957600061364f613c6c565b6004016000868152602001908152602001600020828154811061367457613674615397565b6000918252602091829020015460408051632f05aa6d60e11b815290516001600160a01b0390921693508392635e0b54da92600480840193829003018186803b1580156136c057600080fd5b505afa1580156136d4573d6000803e3d6000fd5b505050506040513d601f19601f820116820180604052508101906136f8919061563f565b83838151811061370a5761370a615397565b6020908102919091010152508061372081615446565b915050613623565b600154610100900460ff161580801561374557506001805460ff16105b8061375e5750303b15801561375e57506001805460ff16145b6137c15760405162461bcd60e51b815260206004820152602e60248201527f496e697469616c697a61626c653a20636f6e747261637420697320616c72656160448201526d191e481a5b9a5d1a585b1a5e995960921b6064820152608401610cde565b6001805460ff19168117905580156137e3576001805461ff0019166101001790555b60006137ed614691565b6001600160a01b0316141561384f5760405162461bcd60e51b815260206004820152602260248201527f4d7573742062652063616c6c65642066726f6d2070726f787920636f6e74726160448201526118dd60f21b6064820152608401610cde565b82613858613c6c565b5561386385836146b9565b61386c846146cb565b8015612334576001805461ff00191681556040519081527f7f26b83ff96e1f2b6a682f133852f6798a09c465da95921460cefb38474024989060200160405180910390a15050505050565b6000600260005414156138dc5760405162461bcd60e51b8152600401610cde9061522b565b60026000908155869086906138ef613c6c565b6000848152600691909101602090815260408083208584529091529020546001600160a01b031614156139345760405162461bcd60e51b8152600401610cde90615262565b61393c61343f565b156139595760405162461bcd60e51b8152600401610cde9061528c565b612f47888833898989614398565b33613970612851565b6001600160a01b0316146139965760405162461bcd60e51b8152600401610cde90615461565b6001600160a01b0381166139fb5760405162461bcd60e51b815260206004820152602660248201527f4f776e61626c653a206e6577206f776e657220697320746865207a65726f206160448201526564647265737360d01b6064820152608401610cde565b61284e816142a3565b600060026000541415613a295760405162461bcd60e51b8152600401610cde9061522b565b6002600090815586908690613a3c613c6c565b6000848152600691909101602090815260408083208584529091529020546001600160a01b03161415613a815760405162461bcd60e51b8152600401610cde90615262565b613a8961343f565b15613aa65760405162461bcd60e51b8152600401610cde9061528c565b611783888833898989613e65565b600080613abf613c6c565b6001600160a01b03841660009081526008919091016020526040812091505b613ae782614760565b811015613c37576000613afa838361476a565b9050600073ae20bc872Fe5df8b1F883E3295e54daD5F923e86634ad23880836000896040518463ffffffff1660e01b8152600401613b3a93929190615189565b60e06040518083038186803b158015613b5257600080fd5b505af4158015613b66573d6000803e3d6000fd5b505050506040513d601f19601f82011682018060405250810190613b8a91906151a8565b519050613b95614776565b604051633c7f634960e11b815260048101849052602481018390526001600160a01b0391909116906378fec6929060440160206040518083038186803b158015613bde57600080fd5b505afa158015613bf2573d6000803e3d6000fd5b505050506040513d601f19601f82011682018060405250810190613c16919061563f565b613c20908661575c565b945050508080613c2f90615446565b915050613ade565b5050919050565b6060612557613c4b613c6c565b6001600160a01b038416600090815260089190910160205260409020614780565b7f8041b8421ebd495cc61f38c788c9eb100daccf9bd36aa0bb920b7a15b2e0496590565b8215613dc257604051631c872e8960e11b815273ae20bc872Fe5df8b1F883E3295e54daD5F923e869063390e5d1290613cdc908b908b908b908b908a908c908a9060019060040161579d565b60006040518083038186803b158015613cf457600080fd5b505af4158015613d08573d6000803e3d6000fd5b50505050733568976b6679e63dc4838A9ba4bF74C5590bfF6963e88e18378989613d507f55cc3066d618b5a688ac1f2a8234e21c685f7432b4230a1660309640d60d8f665490565b6040516001600160e01b031960e086901b168152600481019390935260248301919091526044820152606481018590526084810187905260a4810186905260c40160006040518083038186803b158015613da957600080fd5b505af4158015613dbd573d6000803e3d6000fd5b505050505b5050505050505050565b604081015115613e5057805160408083015160208401519151631c872e8960e11b815273ae20bc872Fe5df8b1F883E3295e54daD5F923e869363390e5d1293613e24938a938a93928a9291600090819060040161579d565b60006040518083038186803b158015613e3c57600080fd5b505af4158015613dc2573d6000803e3d6000fd5b50505050565b6000613e6061478b565b905090565b6000808311613ea75760405162461bcd60e51b815260206004820152600e60248201526d125b9d985b1a5908185b5bdd5b9d60921b6044820152606401610cde565b604051639519832b60e01b8152600481018890526001600160a01b038616602482015260009073ae20bc872Fe5df8b1F883E3295e54daD5F923e8690639519832b9060440160206040518083038186803b158015613f0457600080fd5b505af4158015613f18573d6000803e3d6000fd5b505050506040513d601f19601f82011682018060405250810190613f3c919061563f565b60405163b6eb033d60e01b815290915073ae20bc872Fe5df8b1F883E3295e54daD5F923e869063b6eb033d90613f7a908b908b908b90600401615189565b60006040518083038186803b158015613f9257600080fd5b505af4158015613fa6573d6000803e3d6000fd5b50505050613fb2613e56565b6001600160a01b03166328ff7a42878a87896040518563ffffffff1660e01b8152600401613fe394939291906157ef565b60206040518083038186803b158015613ffb57600080fd5b505afa15801561400f573d6000803e3d6000fd5b505050506040513d601f19601f820116820180604052508101906140339190615741565b6140775760405162461bcd60e51b8152602060048201526015602482015274139bdd08195b9bdd59da0818dbdb1b185d195c985b605a1b6044820152606401610cde565b600080600080614085613c6c565b60008d8152600691909101602090815260408083208e8452909152808220549051633352870560e21b81526001600160a01b039091169163cd4a1c14916140d7918d918f918e918e919060040161581a565b60c060405180830381600087803b1580156140f157600080fd5b505af1158015614105573d6000803e3d6000fd5b505050506040513d601f19601f820116820180604052508101906141299190615856565b9350935093509350808861413d9190615894565b955082158061414c5750600081115b1561415f5761415c6001866158ab565b94505b60148511156141a95760405162461bcd60e51b8152602060048201526016602482015275546f6f206d616e7920616374697665206f726465727360501b6044820152606401610cde565b60006141b68d858e6147a3565b90506141c88d8d8d8d8b898b88613c90565b6141f68d8d60008d60018111156141e1576141e1614df7565b146141ed5760006141f0565b60015b86613dcc565b6142248d614202613c6c565b6001600160a01b038e1660009081526008919091016020526040902090614827565b505050505050509695505050505050565b6000818152600183016020526040812054151561290e565b60008082121561429f5760405162461bcd60e51b815260206004820181905260248201527f53616665436173743a2076616c7565206d75737420626520706f7369746976656044820152606401610cde565b5090565b7f9acda75aebd150dd434541a4747a6dc606f4f1a59662477e67daf1fc0bf9e0aa80546001600160a01b038381166001600160a01b0319831681179093556040519116919082907f8be0079c531659141344cd1fd0a4f28419497f9722a3daafe3b4186f6b6457e090600090a35050565b6000613e60614833565b7f55cc3066d618b5a688ac1f2a8234e21c685f7432b4230a1660309640d60d8f665481811461119d578160008051602061596a8339815191526002015560408051828152602081018490527fb310034e792eb345456b77ee9b3ade0d30b9866d547921c8f4d5e9273c941a90910160405180910390a15050565b600082116143d95760405162461bcd60e51b815260206004820152600e60248201526d125b9d985b1a5908185b5bdd5b9d60921b6044820152606401610cde565b604051639519832b60e01b8152600481018790526001600160a01b038516602482015260009073ae20bc872Fe5df8b1F883E3295e54daD5F923e8690639519832b9060440160206040518083038186803b15801561443657600080fd5b505af415801561444a573d6000803e3d6000fd5b505050506040513d601f19601f8201168201806040525081019061446e919061563f565b9050601461447d8260016158ab565b11156144c45760405162461bcd60e51b8152602060048201526016602482015275546f6f206d616e7920616374697665206f726465727360501b6044820152606401610cde565b60405163b6eb033d60e01b815273ae20bc872Fe5df8b1F883E3295e54daD5F923e869063b6eb033d906144ff908a908a908a90600401615189565b60006040518083038186803b15801561451757600080fd5b505af415801561452b573d6000803e3d6000fd5b50505050614537613e56565b6001600160a01b03166328ff7a42868986886040518563ffffffff1660e01b815260040161456894939291906157ef565b60206040518083038186803b15801561458057600080fd5b505afa158015614594573d6000803e3d6000fd5b505050506040513d601f19601f820116820180604052508101906145b89190615741565b6145fc5760405162461bcd60e51b8152602060048201526015602482015274139bdd08195b9bdd59da0818dbdb1b185d195c985b605a1b6044820152606401610cde565b614604613c6c565b600088815260069190910160209081526040808320898452909152908190205490516328378aab60e01b81526001600160a01b03909116906328378aab906146569087908990889088906004016158c3565b600060405180830381600087803b15801561467057600080fd5b505af1158015614684573d6000803e3d6000fd5b5050505050505050505050565b60007f360894a13ba1a3210667c828492db98dca3e2076cc3735a920a3ca505d382bbc610b56565b6146c2826142a3565b61119d8161431e565b60008051602061594a833981519152546001600160a01b0316156147315760405162461bcd60e51b815260206004820152601b60248201527f5265736f6c766572207265676973746572656420616c726561647900000000006044820152606401610cde565b60008051602061594a83398151915280546001600160a01b0319166001600160a01b0392909216919091179055565b6000612557825490565b600061290e838361484c565b6000613e60614876565b606061255782614896565b6000613e6069151bdad95b95985d5b1d60b21b6148f1565b60008142106147c45760405162461bcd60e51b8152600401610cde90615262565b60006147d04284615894565b905061481e6147e56127106301e133806158f5565b600087815260008051602061596a8339815191526020526040902054869061480e9085906158f5565b61481891906158f5565b90614982565b95945050505050565b600061290e83836149f3565b6000613e606a14995cd95c9d99519d5b9960aa1b6148f1565b600082600001828154811061486357614863615397565b9060005260206000200154905092915050565b6000613e607121bab93932b731bca1b7b73a3937b63632b960711b6148f1565b60608160000180548060200260200160405190810160405280929190818152602001828054801561153257602002820191906000526020600020905b8154815260200190600101908083116148d25750505050509050919050565b60008181527f4abde63c3e81aefa5764b017968bc473e83e093d7e1a10247d19e0a3e41240196020908152604080832054815170026b4b9b9b4b7339030b2323932b9b99d1607d1b9381019390935260318084018690528251808503909101815260519093019091526001600160a01b03169081611b095760405162461bcd60e51b8152600401610cde9190615914565b600080821161499057600080fd5b600561499c8385615927565b6149a790600a6158f5565b836149b386600a6158f5565b6149bd9190615927565b6149c79190615894565b10156149de576149d78284615927565b9050612557565b6149e88284615927565b6149d79060016158ab565b6000818152600183016020526040812054614a3a57508154600181810184556000848152602080822090930184905584548482528286019093526040902091909155612557565b506000612557565b6001600160a01b038116811461284e57600080fd5b600080600060608486031215614a6c57600080fd5b8335614a7781614a42565b95602085013595506040909401359392505050565b600060208284031215614a9e57600080fd5b5035919050565b600080600060608486031215614aba57600080fd5b505081359360208301359350604090920135919050565b600081518084526020808501945080840160005b83811015614b0157815187529582019590820190600101614ae5565b509495945050505050565b606081526000614b1f6060830186614ad1565b8281036020840152614b318186614ad1565b90508281036040840152614b458185614ad1565b9695505050505050565b60008060408385031215614b6257600080fd5b823591506020830135614b7481614a42565b809150509250929050565b60008060408385031215614b9257600080fd5b50508035926020909101359150565b600080600060608486031215614bb657600080fd5b83359250602084013591506040840135614bcf81614a42565b809150509250925092565b6020808252825182820181905260009190848201906040850190845b81811015614c1b5783516001600160a01b031683529284019291840191600101614bf6565b50909695505050505050565b6020808252825182820181905260009190848201906040850190845b81811015614c1b57835183529284019291840191600101614c43565b6002811061284e57600080fd5b600080600080600060a08688031215614c8457600080fd5b85359450602086013593506040860135614c9d81614c5f565b94979396509394606081013594506080013592915050565b634e487b7160e01b600052604160045260246000fd5b60405160c081016001600160401b0381118282101715614ced57614ced614cb5565b60405290565b604051601f8201601f191681016001600160401b0381118282101715614d1b57614d1b614cb5565b604052919050565b60006001600160401b03821115614d3c57614d3c614cb5565b5060051b60200190565b600082601f830112614d5757600080fd5b81356020614d6c614d6783614d23565b614cf3565b82815260059290921b84018101918181019086841115614d8b57600080fd5b8286015b84811015614da65780358352918301918301614d8f565b509695505050505050565b60008060408385031215614dc457600080fd5b82356001600160401b03811115614dda57600080fd5b614de685828601614d46565b9250506020830135614b7481614a42565b634e487b7160e01b600052602160045260246000fd5b60028110614e2b57634e487b7160e01b600052602160045260246000fd5b9052565b600081518084526020808501945080840160005b83811015614b01578151805188528381015184890152604080820151614e6b828b0182614e0d565b5050606081810151908901526080808201519089015260a0908101519088015260c09096019590820190600101614e43565b604081526000614eb06040830185614e2f565b828103602084015261481e8185614e2f565b600080600060608486031215614ed757600080fd5b8335925060208401359150604084013565ffffffffffff81168114614bcf57600080fd5b60208152600061290e6020830184614ad1565b600080600080600060a08688031215614f2657600080fd5b505083359560208501359550604085013594606081013594506080013592509050565b60008060408385031215614f5c57600080fd5b82356001600160401b03811115614f7257600080fd5b614f7e85828601614d46565b95602094909401359450505050565b600060208284031215614f9f57600080fd5b813561290e81614a42565b60008060008060808587031215614fc057600080fd5b8435935060208501359250604085013591506060850135614fe081614a42565b939692955090935050565b6000806000806080858703121561500157600080fd5b843561500c81614a42565b9350602085013561501c81614a42565b93969395505050506040820135916060013590565b80518015158114612b9d57600080fd5b600080600080600080600080610100898b03121561505e57600080fd5b885197506020890151965060408901519550606089015194506080890151935060a0890151925060c0890151915061509860e08a01615031565b90509295985092959890939650565b600082601f8301126150b857600080fd5b815160206150c8614d6783614d23565b82815260059290921b840181019181810190868411156150e757600080fd5b8286015b84811015614da657805183529183019183016150eb565b60008060006060848603121561511757600080fd5b83516001600160401b038082111561512e57600080fd5b61513a878388016150a7565b9450602086015191508082111561515057600080fd5b61515c878388016150a7565b9350604086015191508082111561517257600080fd5b5061517f868287016150a7565b9150509250925092565b92835260208301919091526001600160a01b0316604082015260600190565b600060e082840312156151ba57600080fd5b60405160e081018181106001600160401b03821117156151dc576151dc614cb5565b8060405250825181526020830151602082015260408301516040820152606083015160608201526080830151608082015260a083015160a082015260c083015160c08201528091505092915050565b6020808252601f908201527f5265656e7472616e637947756172643a207265656e7472616e742063616c6c00604082015260600190565b60208082526010908201526f496e76616c6964206d6174757269747960801b604082015260600190565b602080825260129082015271105b1c9958591e481d195c9b5a5b985d195960721b604082015260600190565b6000606082840312156152ca57600080fd5b604051606081018181106001600160401b03821117156152ec576152ec614cb5565b806040525080915082516152ff81614a42565b8082525060208301516020820152604083015160408201525092915050565b600080600080600060e0868803121561533657600080fd5b85519450602086015193506040860151925061535587606088016152b8565b915060c086015161536581614c5f565b809150509295509295909350565b6000806040838503121561538657600080fd5b505080516020909101519092909150565b634e487b7160e01b600052603260045260246000fd5b6000815180845260005b818110156153d3576020818501810151868301820152016153b7565b818111156153e5576000602083870101525b50601f01601f19169290920160200192915050565b82815260406020820152600061343760408301846153ad565b60006020828403121561542557600080fd5b815161290e81614a42565b634e487b7160e01b600052601160045260246000fd5b600060001982141561545a5761545a615430565b5060010190565b6020808252818101527f4f776e61626c653a2063616c6c6572206973206e6f7420746865206f776e6572604082015260600190565b604080825283519082018190526000906020906060840190828701845b828110156154cf578151845292840192908401906001016154b3565b5050506001600160a01b039490941692019190915250919050565b600082601f8301126154fb57600080fd5b8151602061550b614d6783614d23565b82815260c0928302850182019282820191908785111561552a57600080fd5b8387015b858110156155985781818a0312156155465760008081fd5b61554e614ccb565b81518152858201518682015260408083015161556981614c5f565b90820152606082810151908201526080808301519082015260a08083015190820152845292840192810161552e565b5090979650505050505050565b600080604083850312156155b857600080fd5b82516001600160401b03808211156155cf57600080fd5b6155db868387016154ea565b935060208501519150808211156155f157600080fd5b506155fe858286016154ea565b9150509250929050565b60008060006060848603121561561d57600080fd5b835161562881614c5f565b602085015160409095015190969495509392505050565b60006020828403121561565157600080fd5b5051919050565b600080600080600080600060e0888a03121561567357600080fd5b5050855160208701516040880151606089015160808a015160a08b015160c0909b0151949c939b50919990985090965094509092509050565b6000600160ff1b8214156156c2576156c2615430565b5060000390565b6000806000606084860312156156de57600080fd5b83516156e981614a42565b60208501519093506156fa81614a42565b80925050604084015190509250925092565b60008060c0838503121561571f57600080fd5b61572984846152b8565b915061573884606085016152b8565b90509250929050565b60006020828403121561575357600080fd5b61290e82615031565b600080821280156001600160ff1b038490038513161561577e5761577e615430565b600160ff1b839003841281161561579757615797615430565b50500190565b888152602081018890526001600160a01b038716604082015261010081016157c86060830188614e0d565b8560808301528460a08301528360c083015282151560e08301529998505050505050505050565b6001600160a01b038516815260208101849052604081018390526080810161481e6060830184614e0d565b60a081016158288288614e0d565b6001600160a01b03959095166020820152604081019390935260608301919091521515608090910152919050565b60008060008060c0858703121561586c57600080fd5b845193506020850151925061588486604087016152b8565b60a0959095015193969295505050565b6000828210156158a6576158a6615430565b500390565b600082198211156158be576158be615430565b500190565b608081016158d18287614e0d565b6001600160a01b039490941660208201526040810192909252606090910152919050565b600081600019048311821515161561590f5761590f615430565b500290565b60208152600061290e60208301846153ad565b60008261594457634e487b7160e01b600052601260045260246000fd5b50049056fe4abde63c3e81aefa5764b017968bc473e83e093d7e1a10247d19e0a3e412401855cc3066d618b5a688ac1f2a8234e21c685f7432b4230a1660309640d60d8f6455cc3066d618b5a688ac1f2a8234e21c685f7432b4230a1660309640d60d8f65a26469706673582212206b2e7101cf84ce18f41c4334d2f019b70aebb35125f1eabab187275670399e6764736f6c63430008090033",
  "deployedBytecode": "0x60806040526004361061031a5760003560e01c806385323e1a116101ab578063c11333b1116100f7578063eb990c5911610095578063f2fde38b1161006f578063f2fde38b146109fd578063faca409b14610a1d578063fb54a6b314610a3d578063fc70081014610a5d57600080fd5b8063eb990c5914610989578063ebb91416146109a9578063f1eaebae146109c957600080fd5b8063e0997659116100d1578063e099765914610914578063e906c10014610929578063e99d053814610949578063eb092a261461096957600080fd5b8063c11333b1146108a5578063cb9d7401146108c5578063d1cc9976146108ff57600080fd5b80639519832b11610164578063b3cb84501161013e578063b3cb84501461083d578063b8f117cd1461085d578063bfd10cf614610872578063bfe61a281461089257600080fd5b80639519832b146107dd578063953dbcaa146107fd578063a02be3dc1461081d57600080fd5b806385323e1a14610728578063891d5965146107485780638a981745146107685780638b36d833146107885780638c197d8d146107a85780638da5cb5b146107c857600080fd5b8063448255c71161026a578063677faaad1161022357806372d563ef116101fd57806372d563ef146106a8578063766cb64e146106c85780637c63039d146106e8578063826b47e81461070857600080fd5b8063677faaad1461065357806370c641a614610673578063715018a61461069357600080fd5b8063448255c714610550578063482f267a1461056357806349f2ccbf1461059157806355aceb4e146105b15780635c347765146105de5780635ca65d571461063357600080fd5b806329985e5a116102d75780632e77aea7116102b15780632e77aea7146104c15780632f749574146104e1578063381ada1f146105015780633d03b9da1461052e57600080fd5b806329985e5a146104755780632af64bd31461048c5780632e6c5e67146104a157600080fd5b80630312b5281461031f57806303e5fb591461038157806304f3bcec146103c95780630594de6e146103f657806317b72ff4146104255780631deb8f3914610445575b600080fd5b34801561032b57600080fd5b5061033f61033a366004614a57565b610a7d565b604080519889526020890197909752958701949094526060860192909252608085015260a084015260c0830152151560e0820152610100015b60405180910390f35b34801561038d57600080fd5b506103bb61039c366004614a8c565b600090815260008051602061596a833981519152602052604090205490565b604051908152602001610378565b3480156103d557600080fd5b506103de610b44565b6040516001600160a01b039091168152602001610378565b34801561040257600080fd5b50610416610411366004614aa5565b610b65565b60405161037893929190614b0c565b34801561043157600080fd5b506103bb610440366004614b4f565b610c24565b34801561045157600080fd5b50610465610460366004614b7f565b610cb9565b6040519015158152602001610378565b34801561048157600080fd5b5061048a610ff4565b005b34801561049857600080fd5b506104656111a1565b3480156104ad57600080fd5b506104656104bc366004614a8c565b611307565b3480156104cd57600080fd5b506103bb6104dc366004614ba1565b611327565b3480156104ed57600080fd5b5061048a6104fc366004614b7f565b6113bd565b34801561050d57600080fd5b5061052161051c366004614a8c565b6114c0565b6040516103789190614bda565b34801561053a57600080fd5b5061054361153e565b6040516103789190614c27565b61046561055e366004614c6c565b611660565b34801561056f57600080fd5b5061058361057e366004614db1565b611798565b604051610378929190614e9d565b34801561059d57600080fd5b506104656105ac366004614ec2565b611833565b3480156105bd57600080fd5b506105d16105cc366004614a8c565b61199f565b6040516103789190614efb565b3480156105ea57600080fd5b506105fe6105f9366004614b4f565b611b10565b604080519788526020880196909652948601939093526060850191909152608084015260a083015260c082015260e001610378565b34801561063f57600080fd5b5061048a61064e366004614b7f565b611bfb565b34801561065f57600080fd5b5061046561066e366004614b7f565b611ced565b34801561067f57600080fd5b506103bb61068e366004614b4f565b611fa9565b34801561069f57600080fd5b5061048a612041565b3480156106b457600080fd5b5061048a6106c3366004614b7f565b61207c565b3480156106d457600080fd5b5061048a6106e3366004614f0e565b6121e4565b3480156106f457600080fd5b50610465610703366004614f49565b61233b565b34801561071457600080fd5b5061048a610723366004614f8d565b61248d565b34801561073457600080fd5b506103de610743366004614b7f565b6124f4565b34801561075457600080fd5b506103bb610763366004614a8c565b61255d565b34801561077457600080fd5b506103de610783366004614b7f565b61257b565b34801561079457600080fd5b5061048a6107a3366004614a8c565b6125ad565b3480156107b457600080fd5b5061048a6107c3366004614a8c565b612816565b3480156107d457600080fd5b506103de612851565b3480156107e957600080fd5b506103bb6107f8366004614b4f565b612879565b34801561080957600080fd5b50610416610818366004614aa5565b612915565b34801561082957600080fd5b506105d1610838366004614a8c565b612974565b34801561084957600080fd5b50610465610858366004614a8c565b612ade565b34801561086957600080fd5b5061048a612ba2565b34801561087e57600080fd5b506105d161088d366004614a8c565b612cba565b6104656108a0366004614c6c565b612e24565b3480156108b157600080fd5b506104656108c0366004614faa565b612f5b565b3480156108d157600080fd5b506103bb6108e0366004614a8c565b600090815260008051602061598a833981519152602052604090205490565b34801561090b57600080fd5b5061046561343f565b34801561092057600080fd5b50610543613454565b34801561093557600080fd5b506103bb610944366004614ba1565b613497565b34801561095557600080fd5b50610465610964366004614a8c565b613530565b34801561097557600080fd5b506105d1610984366004614a8c565b6135be565b34801561099557600080fd5b5061048a6109a4366004614feb565b613728565b3480156109b557600080fd5b506104656109c4366004614c6c565b6138b7565b3480156109d557600080fd5b507f55cc3066d618b5a688ac1f2a8234e21c685f7432b4230a1660309640d60d8f66546103bb565b348015610a0957600080fd5b5061048a610a18366004614f8d565b613967565b348015610a2957600080fd5b50610465610a38366004614c6c565b613a04565b348015610a4957600080fd5b506103bb610a58366004614f8d565b613ab4565b348015610a6957600080fd5b50610543610a78366004614f8d565b613c3e565b604051626256a560e31b81526001600160a01b03841660048201526024810183905260448101829052600090819081908190819081908190819073__$e7d72ce98f1dce1f33c815a57604cff5ab$__90630312b528906064016101006040518083038186803b158015610aef57600080fd5b505af4158015610b03573d6000803e3d6000fd5b505050506040513d601f19601f82011682018060405250810190610b279190615041565b975097509750975097509750975097509397509397509397509397565b600060008051602061594a8339815191525b546001600160a01b0316919050565b60608060606000610b74613c6c565b600088815260069190910160209081526040808320898452909152908190205490516325fb168b60e11b8152600481018790526001600160a01b0390911691508190634bf62d16906024015b60006040518083038186803b158015610bd857600080fd5b505afa158015610bec573d6000803e3d6000fd5b505050506040513d6000823e601f3d908101601f19168201604052610c149190810190615102565b9350935093505093509350939050565b6040516295a47160e71b815260009073__$e7d72ce98f1dce1f33c815a57604cff5ab$__90634ad2388090610c6190869085908790600401615189565b60e06040518083038186803b158015610c7957600080fd5b505af4158015610c8d573d6000803e3d6000fd5b505050506040513d601f19601f82011682018060405250810190610cb191906151a8565b519392505050565b600060026000541415610ce75760405162461bcd60e51b8152600401610cde9061522b565b60405180910390fd5b6002600090815583908390610cfa613c6c565b6000848152600691909101602090815260408083208584529091529020546001600160a01b03161415610d3f5760405162461bcd60e51b8152600401610cde90615262565b610d4761343f565b15610d645760405162461bcd60e51b8152600401610cde9061528c565b6040516295a47160e71b815260009073__$e7d72ce98f1dce1f33c815a57604cff5ab$__90634ad2388090610da190899089903390600401615189565b60e06040518083038186803b158015610db957600080fd5b505af4158015610dcd573d6000803e3d6000fd5b505050506040513d601f19601f82011682018060405250810190610df191906151a8565b6020015160405163183b3c2b60e31b8152600481018890526024810187905233604482015260648101829052909150600090819081908190819073__$bfa1fc126f9f960b1bd3bae8c14d9c594e$__9063c1d9e1589060840160e06040518083038186803b158015610e6257600080fd5b505af4158015610e76573d6000803e3d6000fd5b505050506040513d601f19601f82011682018060405250810190610e9a919061531e565b94509450945094509450610eb58b8b338488888b6000613c90565b610ee38b8b6000846001811115610ece57610ece614df7565b14610eda576000610edd565b60015b85613dcc565b6000610eef8c8c6124f4565b60405163070da1af60e11b81523360048201526001600160a01b039190911690630e1b435e90602401604080518083038186803b158015610f2f57600080fd5b505afa158015610f43573d6000803e3d6000fd5b505050506040513d601f19601f82011682018060405250810190610f679190615373565b5090508015610fdc5760405163b6eb033d60e01b815273__$e7d72ce98f1dce1f33c815a57604cff5ab$__9063b6eb033d90610fab908f908f903390600401615189565b60006040518083038186803b158015610fc357600080fd5b505af4158015610fd7573d6000803e3d6000fd5b505050505b60019950505050505050505050600160005592915050565b6000610ffe61153e565b905060005b815181101561119d57600082828151811061102057611020615397565b60200260200101519050600061104160008051602061594a83398151915290565b54604080517f5265736f6c766572206d697373696e67207461726765743a200000000000000060208201526039808201869052825180830390910181526059820192839052636795dbcd60e01b9092526001600160a01b0390921691636795dbcd916110b291869190605d016153fa565b60206040518083038186803b1580156110ca57600080fd5b505afa1580156110de573d6000803e3d6000fd5b505050506040513d601f19601f820116820180604052508101906111029190615413565b60008381527f4abde63c3e81aefa5764b017968bc473e83e093d7e1a10247d19e0a3e4124019602090815260409182902080546001600160a01b0319166001600160a01b03851690811790915582518681529182015281519293507f88a93678a3692f6789d9546fc621bf7234b101ddb7d4fe479455112831b8aa68929081900390910190a15050808061119590615446565b915050611003565b5050565b6000806111ac61153e565b905060005b81518110156112fe5760008282815181106111ce576111ce615397565b602002602001015190506111ed60008051602061594a83398151915290565b600082815260019190910160205260409020546001600160a01b031660008051602061594a833981519152546040516321f8a72160e01b8152600481018490526001600160a01b03909116906321f8a7219060240160206040518083038186803b15801561125a57600080fd5b505afa15801561126e573d6000803e3d6000fd5b505050506040513d601f19601f820116820180604052508101906112929190615413565b6001600160a01b03161415806112dc575060008181527f4abde63c3e81aefa5764b017968bc473e83e093d7e1a10247d19e0a3e412401960205260409020546001600160a01b0316155b156112eb576000935050505090565b50806112f681615446565b9150506111b1565b50600191505090565b6000611311613c6c565b6000928352600701602052506040902054151590565b6040516295a47160e71b815260009073__$e7d72ce98f1dce1f33c815a57604cff5ab$__90634ad238809061136490879087908790600401615189565b60e06040518083038186803b15801561137c57600080fd5b505af4158015611390573d6000803e3d6000fd5b505050506040513d601f19601f820116820180604052508101906113b491906151a8565b51949350505050565b336113c6612851565b6001600160a01b0316146113ec5760405162461bcd60e51b8152600401610cde90615461565b61271081111561143e5760405162461bcd60e51b815260206004820152601a60248201527f496e76616c6964206175746f2d726f6c6c2066656520726174650000000000006044820152606401610cde565b600082815260008051602061598a83398151915260205260409020548181146114bb57600083815260008051602061598a833981519152602090815260409182902084905581518381529081018490527fdfbb9051e39a726dacd506a01fecef2277ab8adc7423037867c554573f179fdb91015b60405180910390a15b505050565b60606114ca613c6c565b600401600083815260200190815260200160002080548060200260200160405190810160405280929190818152602001828054801561153257602002820191906000526020600020905b81546001600160a01b03168152600190910190602001808311611514575b50505050509050919050565b60408051600580825260c082019092526060916020820160a080368337019050509050742132b0b1b7b7283937bc3ca1b7b73a3937b63632b960591b8160008151811061158d5761158d615397565b6020026020010181815250507121bab93932b731bca1b7b73a3937b63632b960711b816001815181106115c2576115c2615397565b6020026020010181815250507011d95b995cda5cd5985b1d5955985d5b1d607a1b816002815181106115f6576115f6615397565b6020026020010181815250506a14995cd95c9d99519d5b9960aa1b8160038151811061162457611624615397565b60200260200101818152505069151bdad95b95985d5b1d60b21b8160048151811061165157611651615397565b60200260200101818152505090565b6000600260005414156116855760405162461bcd60e51b8152600401610cde9061522b565b6002600090815586908690611698613c6c565b6000848152600691909101602090815260408083208584529091529020546001600160a01b031614156116dd5760405162461bcd60e51b8152600401610cde90615262565b6116e561343f565b156117025760405162461bcd60e51b8152600401610cde9061528c565b61170a613e56565b6040516396994e3760e01b8152336004820152602481018a9052604481018790526001600160a01b0391909116906396994e379034906064016000604051808303818588803b15801561175c57600080fd5b505af1158015611770573d6000803e3d6000fd5b5050505050611783888833898989613e65565b50600192505050600160005595945050505050565b60608073__$bfa1fc126f9f960b1bd3bae8c14d9c594e$__63482f267a85856040518363ffffffff1660e01b81526004016117d4929190615496565b60006040518083038186803b1580156117ec57600080fd5b505af4158015611800573d6000803e3d6000fd5b505050506040513d6000823e601f3d908101601f1916820160405261182891908101906155a5565b909590945092505050565b6000600260005414156118585760405162461bcd60e51b8152600401610cde9061522b565b600260009081558490849061186b613c6c565b6000848152600691909101602090815260408083208584529091529020546001600160a01b031614156118b05760405162461bcd60e51b8152600401610cde90615262565b6118b861343f565b156118d55760405162461bcd60e51b8152600401610cde9061528c565b60006118df613c6c565b6000888152600691909101602090815260408083208984529091529081902054905163504b89bd60e01b815233600482015265ffffffffffff871660248201526001600160a01b039091169150819063504b89bd90604401606060405180830381600087803b15801561195157600080fd5b505af1158015611965573d6000803e3d6000fd5b505050506040513d601f19601f820116820180604052508101906119899190615608565b5050506001935050505060016000559392505050565b606060006119ab613c6c565b600084815260049190910160205260409020546001600160401b038111156119d5576119d5614cb5565b6040519080825280602002602001820160405280156119fe578160200160208202803683370190505b50905060005b611a0c613c6c565b60008581526004919091016020526040902054811015611b09576000611a30613c6c565b60040160008681526020019081526020016000208281548110611a5557611a55615397565b6000918252602091829020015460408051631b3508b760e01b815290516001600160a01b0390921693508392631b3508b792600480840193829003018186803b158015611aa157600080fd5b505afa158015611ab5573d6000803e3d6000fd5b505050506040513d601f19601f82011682018060405250810190611ad9919061563f565b838381518110611aeb57611aeb615397565b60209081029190910101525080611b0181615446565b915050611a04565b5092915050565b6000806000806000806000611b4989611b27613c6c565b6001600160a01b038b1660009081526008919091016020526040902090614235565b15611bef57604051635c34776560e01b8152600481018a90526001600160a01b038916602482015273__$e7d72ce98f1dce1f33c815a57604cff5ab$__90635c3477659060440160e06040518083038186803b158015611ba857600080fd5b505af4158015611bbc573d6000803e3d6000fd5b505050506040513d601f19601f82011682018060405250810190611be09190615658565b96509650965096509650965096505b92959891949750929550565b33611c04612851565b6001600160a01b031614611c2a5760405162461bcd60e51b8152600401610cde90615461565b612710811115611c755760405162461bcd60e51b8152602060048201526016602482015275496e76616c6964206f7264657220666565207261746560501b6044820152606401610cde565b600082815260008051602061596a83398151915260205260409020548181146114bb57600083815260008051602061596a833981519152602090815260409182902084905581518381529081018490527fff4528c215dc00005504418aa82be3bb2439c39be2eb30fd44012f5e79d168e291016114b2565b600060026000541415611d125760405162461bcd60e51b8152600401610cde9061522b565b6002600055611d1f61343f565b611d5c5760405162461bcd60e51b815260206004820152600e60248201526d139bdd081d195c9b5a5b985d195960921b6044820152606401610cde565b60405163bab7ae1760e01b81526004810184905233602482015260009073__$e7d72ce98f1dce1f33c815a57604cff5ab$__9063bab7ae179060440160206040518083038186803b158015611db057600080fd5b505af4158015611dc4573d6000803e3d6000fd5b505050506040513d601f19601f82011682018060405250810190611de8919061563f565b90506000811315611ebc5773__$e7d72ce98f1dce1f33c815a57604cff5ab$__631696a4cd8533611e188561424d565b6040516001600160e01b031960e086901b16815260048101939093526001600160a01b039091166024830152604482015260640160006040518083038186803b158015611e6457600080fd5b505af4158015611e78573d6000803e3d6000fd5b505060408051878152602081018590523393507f93b0301fda99bfd2e8af22161527848125b3a6ae8e5bb83eed2f0313e758fa9c92500160405180910390a2611f99565b6000811215611f995773__$e7d72ce98f1dce1f33c815a57604cff5ab$__639aaf86498533611ef2611eed866156ac565b61424d565b6040516001600160e01b031960e086901b16815260048101939093526001600160a01b03909116602483015260448201526064810186905260840160006040518083038186803b158015611f4557600080fd5b505af4158015611f59573d6000803e3d6000fd5b505060408051878152602081018590523393507f93b0301fda99bfd2e8af22161527848125b3a6ae8e5bb83eed2f0313e758fa9c92500160405180910390a25b6001915050600160005592915050565b6040516295a47160e71b815260009073__$e7d72ce98f1dce1f33c815a57604cff5ab$__90634ad2388090611fe690869085908790600401615189565b60e06040518083038186803b158015611ffe57600080fd5b505af4158015612012573d6000803e3d6000fd5b505050506040513d601f19601f8201168201806040525081019061203691906151a8565b60c001519392505050565b3361204a612851565b6001600160a01b0316146120705760405162461bcd60e51b8152600401610cde90615461565b61207a60006142a3565b565b61208461343f565b156120a15760405162461bcd60e51b8152600401610cde9061528c565b336120aa612851565b6001600160a01b0316146120d05760405162461bcd60e51b8152600401610cde90615461565b6040516372d563ef60e01b815260048101839052602481018290526000908190819073__$53b43b4bdeb2460d1113627ef627de0cf6$__906372d563ef9060440160606040518083038186803b15801561212957600080fd5b505af415801561213d573d6000803e3d6000fd5b505050506040513d601f19601f8201168201806040525081019061216191906156c9565b925092509250826001600160a01b0316857fc29f3eef4e596f3e26da74f3482ffe2325449509e985d19f0a099240429add4e8461219c613c6c565b60008a815260049190910160209081526040918290205482516001600160a01b0390941684529083015281018890526060810185905260800160405180910390a35050505050565b336121ed612851565b6001600160a01b0316146122135760405162461bcd60e51b8152600401610cde90615461565b600083116122635760405162461bcd60e51b815260206004820152601760248201527f496e76616c696420636f6d706f756e6420666163746f720000000000000000006044820152606401610cde565b61226c85611307565b156122af5760405162461bcd60e51b8152602060048201526013602482015272105b1c9958591e481a5b9a5d1a585b1a5e9959606a1b6044820152606401610cde565b60405163d3f43b7960e01b815260048101869052602481018590526044810184905273__$53b43b4bdeb2460d1113627ef627de0cf6$__9063d3f43b799060640160006040518083038186803b15801561230857600080fd5b505af415801561231c573d6000803e3d6000fd5b5050505061232a8583611bfb565b61233485826113bd565b5050505050565b6000600260005414156123605760405162461bcd60e51b8152600401610cde9061522b565b600260005561236d61343f565b1561238a5760405162461bcd60e51b8152600401610cde9061528c565b60005b835181101561247d5760008482815181106123aa576123aa615397565b6020026020010151905060008073__$53b43b4bdeb2460d1113627ef627de0cf6$__636a23a95c84886040518363ffffffff1660e01b81526004016123f9929190918252602082015260400190565b60c06040518083038186803b15801561241157600080fd5b505af4158015612425573d6000803e3d6000fd5b505050506040513d601f19601f82011682018060405250810190612449919061570c565b9150915061245a8387600085613dcc565b6124678387600184613dcc565b505050808061247590615446565b91505061238d565b5060019050600160005592915050565b60405163104d68fd60e31b81526001600160a01b038216600482015273__$e7d72ce98f1dce1f33c815a57604cff5ab$__9063826b47e89060240160006040518083038186803b1580156124e057600080fd5b505af4158015612334573d6000803e3d6000fd5b60006124fe613c6c565b60008481526005919091016020526040812090612519613c6c565b6000868152600691909101602090815260408083208784528252808320546001600160a01b0390811685529184019490945291909201909120541690505b92915050565b6000612567613c6c565b600092835260070160205250604090205490565b6000612585613c6c565b600093845260060160209081526040808520938552929052509020546001600160a01b031690565b600260005414156125d05760405162461bcd60e51b8152600401610cde9061522b565b6002600090815581906125e1613c6c565b600083815260049190910160205260409020541161265a5760405162461bcd60e51b815260206004820152603060248201527f4e6f206c656e64696e67206d61726b65747320657869737420666f722061207360448201526f706563696669632063757272656e637960801b6064820152608401610cde565b61266261343f565b1561267f5760405162461bcd60e51b8152600401610cde9061528c565b60008073__$53b43b4bdeb2460d1113627ef627de0cf6$__63a3d54d8c856126c087600090815260008051602061598a833981519152602052604090205490565b6040516001600160e01b031960e085901b16815260048101929092526024820152604401604080518083038186803b1580156126fb57600080fd5b505af415801561270f573d6000803e3d6000fd5b505050506040513d601f19601f820116820180604052508101906127339190615373565b9150915073__$e7d72ce98f1dce1f33c815a57604cff5ab$__63300074c9858361275b614314565b6040518463ffffffff1660e01b815260040161277993929190615189565b60206040518083038186803b15801561279157600080fd5b505af41580156127a5573d6000803e3d6000fd5b505050506040513d601f19601f820116820180604052508101906127c9919061563f565b5060408051858152602081018490529081018290527f0c6f5a3bc801362dc3d24c87799fa831f5a601c5dbd8bed4064907844eef97369060600160405180910390a1505060016000555050565b3361281f612851565b6001600160a01b0316146128455760405162461bcd60e51b8152600401610cde90615461565b61284e8161431e565b50565b60007f9acda75aebd150dd434541a4747a6dc606f4f1a59662477e67daf1fc0bf9e0aa610b56565b604051639519832b60e01b8152600481018390526001600160a01b038216602482015260009073__$e7d72ce98f1dce1f33c815a57604cff5ab$__90639519832b9060440160206040518083038186803b1580156128d657600080fd5b505af41580156128ea573d6000803e3d6000fd5b505050506040513d601f19601f8201168201806040525081019061290e919061563f565b9392505050565b60608060606000612924613c6c565b6000888152600691909101602090815260408083208984529091529081902054905163d866d35560e01b8152600481018790526001600160a01b039091169150819063d866d35590602401610bc0565b60606000612980613c6c565b600084815260049190910160205260409020546001600160401b038111156129aa576129aa614cb5565b6040519080825280602002602001820160405280156129d3578160200160208202803683370190505b50905060005b6129e1613c6c565b60008581526004919091016020526040902054811015611b09576000612a05613c6c565b60040160008681526020019081526020016000208281548110612a2a57612a2a615397565b600091825260209182902001546040805163e16695b560e01b815290516001600160a01b039092169350839263e16695b592600480840193829003018186803b158015612a7657600080fd5b505afa158015612a8a573d6000803e3d6000fd5b505050506040513d601f19601f82011682018060405250810190612aae919061563f565b838381518110612ac057612ac0615397565b60209081029190910101525080612ad681615446565b9150506129d9565b6000612ae861343f565b15612b055760405162461bcd60e51b8152600401610cde9061528c565b33612b0e612851565b6001600160a01b031614612b345760405162461bcd60e51b8152600401610cde90615461565b604051630b3cb84560e41b81526004810183905273__$53b43b4bdeb2460d1113627ef627de0cf6$__9063b3cb8450906024015b60006040518083038186803b158015612b8057600080fd5b505af4158015612b94573d6000803e3d6000fd5b50505050600190505b919050565b60026000541415612bc55760405162461bcd60e51b8152600401610cde9061522b565b6002600055612bd261343f565b15612bef5760405162461bcd60e51b8152600401610cde9061528c565b33612bf8612851565b6001600160a01b031614612c1e5760405162461bcd60e51b8152600401610cde90615461565b73__$53b43b4bdeb2460d1113627ef627de0cf6$__63b8f117cd6040518163ffffffff1660e01b815260040160006040518083038186803b158015612c6257600080fd5b505af4158015612c76573d6000803e3d6000fd5b505050507f5bd5e5214bcf42a851f8883889177591b93dbd526076c7b5e96bd8eed5931a5342604051612cab91815260200190565b60405180910390a16001600055565b60606000612cc6613c6c565b600084815260049190910160205260409020546001600160401b03811115612cf057612cf0614cb5565b604051908082528060200260200182016040528015612d19578160200160208202803683370190505b50905060005b612d27613c6c565b60008581526004919091016020526040902054811015611b09576000612d4b613c6c565b60040160008681526020019081526020016000208281548110612d7057612d70615397565b60009182526020918290200154604080516371613c2d60e01b815290516001600160a01b03909216935083926371613c2d92600480840193829003018186803b158015612dbc57600080fd5b505afa158015612dd0573d6000803e3d6000fd5b505050506040513d601f19601f82011682018060405250810190612df4919061563f565b838381518110612e0657612e06615397565b60209081029190910101525080612e1c81615446565b915050612d1f565b600060026000541415612e495760405162461bcd60e51b8152600401610cde9061522b565b6002600090815586908690612e5c613c6c565b6000848152600691909101602090815260408083208584529091529020546001600160a01b03161415612ea15760405162461bcd60e51b8152600401610cde90615262565b612ea961343f565b15612ec65760405162461bcd60e51b8152600401610cde9061528c565b612ece613e56565b6040516396994e3760e01b8152336004820152602481018a9052604481018790526001600160a01b0391909116906396994e379034906064016000604051808303818588803b158015612f2057600080fd5b505af1158015612f34573d6000803e3d6000fd5b5050505050612f47888833898989614398565b600192505050600160005595945050505050565b60003330146131fd576001546201000090046001600160a01b031615612f94576040516337affdbf60e11b815260040160405180910390fd5b6001805462010000600160b01b03191633620100000217905583836000612fb9613c6c565b6000848152600691909101602090815260408083208584529091529020546001600160a01b03161415612ffe5760405162461bcd60e51b8152600401610cde90615262565b61300661343f565b156130235760405162461bcd60e51b8152600401610cde9061528c565b604051635436151f60e11b81523360048201526001600160a01b038516602482015260448101889052606481018790526084810186905260009073__$e7d72ce98f1dce1f33c815a57604cff5ab$__9063a86c2a3e9060a40160206040518083038186803b15801561309457600080fd5b505af41580156130a8573d6000803e3d6000fd5b505050506040513d601f19601f820116820180604052508101906130cc919061563f565b90506130d6613e56565b6040516325e1f09f60e01b81523360048201526001600160a01b0391909116906325e1f09f9060240160206040518083038186803b15801561311757600080fd5b505afa15801561312b573d6000803e3d6000fd5b505050506040513d601f19601f8201168201806040525081019061314f9190615741565b6131915760405162461bcd60e51b815260206004820152601360248201527224b73b30b634b2103634b8bab4b230ba34b7b760691b6044820152606401610cde565b8587866001600160a01b03167f347d8f9576f47b3bd7a4821cd3d3d4171968cdd36680d4abaca7de302d836f998b856040516131d7929190918252602082015260400190565b60405180910390a4600193505050506001805462010000600160b01b0319169055613437565b83836000613209613c6c565b6000848152600691909101602090815260408083208584529091529020546001600160a01b0316141561324e5760405162461bcd60e51b8152600401610cde90615262565b61325661343f565b156132735760405162461bcd60e51b8152600401610cde9061528c565b604051635436151f60e11b81523360048201526001600160a01b038516602482015260448101889052606481018790526084810186905260009073__$e7d72ce98f1dce1f33c815a57604cff5ab$__9063a86c2a3e9060a40160206040518083038186803b1580156132e457600080fd5b505af41580156132f8573d6000803e3d6000fd5b505050506040513d601f19601f8201168201806040525081019061331c919061563f565b9050613326613e56565b6040516325e1f09f60e01b81523360048201526001600160a01b0391909116906325e1f09f9060240160206040518083038186803b15801561336757600080fd5b505afa15801561337b573d6000803e3d6000fd5b505050506040513d601f19601f8201168201806040525081019061339f9190615741565b6133e15760405162461bcd60e51b815260206004820152601360248201527224b73b30b634b2103634b8bab4b230ba34b7b760691b6044820152606401610cde565b8587866001600160a01b03167f347d8f9576f47b3bd7a4821cd3d3d4171968cdd36680d4abaca7de302d836f998b85604051613427929190918252602082015260400190565b60405180910390a4600193505050505b949350505050565b60008061344a613c6c565b6001015411905090565b6040805160018082528183019092526060916020808301908036833701905050905069151bdad95b95985d5b1d60b21b8160008151811061165157611651615397565b6040516295a47160e71b815260009073__$e7d72ce98f1dce1f33c815a57604cff5ab$__90634ad23880906134d490879087908790600401615189565b60e06040518083038186803b1580156134ec57600080fd5b505af4158015613500573d6000803e3d6000fd5b505050506040513d601f19601f8201168201806040525081019061352491906151a8565b60200151949350505050565b600061353a61343f565b156135575760405162461bcd60e51b8152600401610cde9061528c565b33613560612851565b6001600160a01b0316146135865760405162461bcd60e51b8152600401610cde90615461565b604051631d33a0a760e31b81526004810183905273__$53b43b4bdeb2460d1113627ef627de0cf6$__9063e99d053890602401612b68565b606060006135ca613c6c565b600084815260049190910160205260409020546001600160401b038111156135f4576135f4614cb5565b60405190808252806020026020018201604052801561361d578160200160208202803683370190505b50905060005b61362b613c6c565b60008581526004919091016020526040902054811015611b0957600061364f613c6c565b6004016000868152602001908152602001600020828154811061367457613674615397565b6000918252602091829020015460408051632f05aa6d60e11b815290516001600160a01b0390921693508392635e0b54da92600480840193829003018186803b1580156136c057600080fd5b505afa1580156136d4573d6000803e3d6000fd5b505050506040513d601f19601f820116820180604052508101906136f8919061563f565b83838151811061370a5761370a615397565b6020908102919091010152508061372081615446565b915050613623565b600154610100900460ff161580801561374557506001805460ff16105b8061375e5750303b15801561375e57506001805460ff16145b6137c15760405162461bcd60e51b815260206004820152602e60248201527f496e697469616c697a61626c653a20636f6e747261637420697320616c72656160448201526d191e481a5b9a5d1a585b1a5e995960921b6064820152608401610cde565b6001805460ff19168117905580156137e3576001805461ff0019166101001790555b60006137ed614691565b6001600160a01b0316141561384f5760405162461bcd60e51b815260206004820152602260248201527f4d7573742062652063616c6c65642066726f6d2070726f787920636f6e74726160448201526118dd60f21b6064820152608401610cde565b82613858613c6c565b5561386385836146b9565b61386c846146cb565b8015612334576001805461ff00191681556040519081527f7f26b83ff96e1f2b6a682f133852f6798a09c465da95921460cefb38474024989060200160405180910390a15050505050565b6000600260005414156138dc5760405162461bcd60e51b8152600401610cde9061522b565b60026000908155869086906138ef613c6c565b6000848152600691909101602090815260408083208584529091529020546001600160a01b031614156139345760405162461bcd60e51b8152600401610cde90615262565b61393c61343f565b156139595760405162461bcd60e51b8152600401610cde9061528c565b612f47888833898989614398565b33613970612851565b6001600160a01b0316146139965760405162461bcd60e51b8152600401610cde90615461565b6001600160a01b0381166139fb5760405162461bcd60e51b815260206004820152602660248201527f4f776e61626c653a206e6577206f776e657220697320746865207a65726f206160448201526564647265737360d01b6064820152608401610cde565b61284e816142a3565b600060026000541415613a295760405162461bcd60e51b8152600401610cde9061522b565b6002600090815586908690613a3c613c6c565b6000848152600691909101602090815260408083208584529091529020546001600160a01b03161415613a815760405162461bcd60e51b8152600401610cde90615262565b613a8961343f565b15613aa65760405162461bcd60e51b8152600401610cde9061528c565b611783888833898989613e65565b600080613abf613c6c565b6001600160a01b03841660009081526008919091016020526040812091505b613ae782614760565b811015613c37576000613afa838361476a565b9050600073__$e7d72ce98f1dce1f33c815a57604cff5ab$__634ad23880836000896040518463ffffffff1660e01b8152600401613b3a93929190615189565b60e06040518083038186803b158015613b5257600080fd5b505af4158015613b66573d6000803e3d6000fd5b505050506040513d601f19601f82011682018060405250810190613b8a91906151a8565b519050613b95614776565b604051633c7f634960e11b815260048101849052602481018390526001600160a01b0391909116906378fec6929060440160206040518083038186803b158015613bde57600080fd5b505afa158015613bf2573d6000803e3d6000fd5b505050506040513d601f19601f82011682018060405250810190613c16919061563f565b613c20908661575c565b945050508080613c2f90615446565b915050613ade565b5050919050565b6060612557613c4b613c6c565b6001600160a01b038416600090815260089190910160205260409020614780565b7f8041b8421ebd495cc61f38c788c9eb100daccf9bd36aa0bb920b7a15b2e0496590565b8215613dc257604051631c872e8960e11b815273__$e7d72ce98f1dce1f33c815a57604cff5ab$__9063390e5d1290613cdc908b908b908b908b908a908c908a9060019060040161579d565b60006040518083038186803b158015613cf457600080fd5b505af4158015613d08573d6000803e3d6000fd5b5050505073__$53b43b4bdeb2460d1113627ef627de0cf6$__63e88e18378989613d507f55cc3066d618b5a688ac1f2a8234e21c685f7432b4230a1660309640d60d8f665490565b6040516001600160e01b031960e086901b168152600481019390935260248301919091526044820152606481018590526084810187905260a4810186905260c40160006040518083038186803b158015613da957600080fd5b505af4158015613dbd573d6000803e3d6000fd5b505050505b5050505050505050565b604081015115613e5057805160408083015160208401519151631c872e8960e11b815273__$e7d72ce98f1dce1f33c815a57604cff5ab$__9363390e5d1293613e24938a938a93928a9291600090819060040161579d565b60006040518083038186803b158015613e3c57600080fd5b505af4158015613dc2573d6000803e3d6000fd5b50505050565b6000613e6061478b565b905090565b6000808311613ea75760405162461bcd60e51b815260206004820152600e60248201526d125b9d985b1a5908185b5bdd5b9d60921b6044820152606401610cde565b604051639519832b60e01b8152600481018890526001600160a01b038616602482015260009073__$e7d72ce98f1dce1f33c815a57604cff5ab$__90639519832b9060440160206040518083038186803b158015613f0457600080fd5b505af4158015613f18573d6000803e3d6000fd5b505050506040513d601f19601f82011682018060405250810190613f3c919061563f565b60405163b6eb033d60e01b815290915073__$e7d72ce98f1dce1f33c815a57604cff5ab$__9063b6eb033d90613f7a908b908b908b90600401615189565b60006040518083038186803b158015613f9257600080fd5b505af4158015613fa6573d6000803e3d6000fd5b50505050613fb2613e56565b6001600160a01b03166328ff7a42878a87896040518563ffffffff1660e01b8152600401613fe394939291906157ef565b60206040518083038186803b158015613ffb57600080fd5b505afa15801561400f573d6000803e3d6000fd5b505050506040513d601f19601f820116820180604052508101906140339190615741565b6140775760405162461bcd60e51b8152602060048201526015602482015274139bdd08195b9bdd59da0818dbdb1b185d195c985b605a1b6044820152606401610cde565b600080600080614085613c6c565b60008d8152600691909101602090815260408083208e8452909152808220549051633352870560e21b81526001600160a01b039091169163cd4a1c14916140d7918d918f918e918e919060040161581a565b60c060405180830381600087803b1580156140f157600080fd5b505af1158015614105573d6000803e3d6000fd5b505050506040513d601f19601f820116820180604052508101906141299190615856565b9350935093509350808861413d9190615894565b955082158061414c5750600081115b1561415f5761415c6001866158ab565b94505b60148511156141a95760405162461bcd60e51b8152602060048201526016602482015275546f6f206d616e7920616374697665206f726465727360501b6044820152606401610cde565b60006141b68d858e6147a3565b90506141c88d8d8d8d8b898b88613c90565b6141f68d8d60008d60018111156141e1576141e1614df7565b146141ed5760006141f0565b60015b86613dcc565b6142248d614202613c6c565b6001600160a01b038e1660009081526008919091016020526040902090614827565b505050505050509695505050505050565b6000818152600183016020526040812054151561290e565b60008082121561429f5760405162461bcd60e51b815260206004820181905260248201527f53616665436173743a2076616c7565206d75737420626520706f7369746976656044820152606401610cde565b5090565b7f9acda75aebd150dd434541a4747a6dc606f4f1a59662477e67daf1fc0bf9e0aa80546001600160a01b038381166001600160a01b0319831681179093556040519116919082907f8be0079c531659141344cd1fd0a4f28419497f9722a3daafe3b4186f6b6457e090600090a35050565b6000613e60614833565b7f55cc3066d618b5a688ac1f2a8234e21c685f7432b4230a1660309640d60d8f665481811461119d578160008051602061596a8339815191526002015560408051828152602081018490527fb310034e792eb345456b77ee9b3ade0d30b9866d547921c8f4d5e9273c941a90910160405180910390a15050565b600082116143d95760405162461bcd60e51b815260206004820152600e60248201526d125b9d985b1a5908185b5bdd5b9d60921b6044820152606401610cde565b604051639519832b60e01b8152600481018790526001600160a01b038516602482015260009073__$e7d72ce98f1dce1f33c815a57604cff5ab$__90639519832b9060440160206040518083038186803b15801561443657600080fd5b505af415801561444a573d6000803e3d6000fd5b505050506040513d601f19601f8201168201806040525081019061446e919061563f565b9050601461447d8260016158ab565b11156144c45760405162461bcd60e51b8152602060048201526016602482015275546f6f206d616e7920616374697665206f726465727360501b6044820152606401610cde565b60405163b6eb033d60e01b815273__$e7d72ce98f1dce1f33c815a57604cff5ab$__9063b6eb033d906144ff908a908a908a90600401615189565b60006040518083038186803b15801561451757600080fd5b505af415801561452b573d6000803e3d6000fd5b50505050614537613e56565b6001600160a01b03166328ff7a42868986886040518563ffffffff1660e01b815260040161456894939291906157ef565b60206040518083038186803b15801561458057600080fd5b505afa158015614594573d6000803e3d6000fd5b505050506040513d601f19601f820116820180604052508101906145b89190615741565b6145fc5760405162461bcd60e51b8152602060048201526015602482015274139bdd08195b9bdd59da0818dbdb1b185d195c985b605a1b6044820152606401610cde565b614604613c6c565b600088815260069190910160209081526040808320898452909152908190205490516328378aab60e01b81526001600160a01b03909116906328378aab906146569087908990889088906004016158c3565b600060405180830381600087803b15801561467057600080fd5b505af1158015614684573d6000803e3d6000fd5b5050505050505050505050565b60007f360894a13ba1a3210667c828492db98dca3e2076cc3735a920a3ca505d382bbc610b56565b6146c2826142a3565b61119d8161431e565b60008051602061594a833981519152546001600160a01b0316156147315760405162461bcd60e51b815260206004820152601b60248201527f5265736f6c766572207265676973746572656420616c726561647900000000006044820152606401610cde565b60008051602061594a83398151915280546001600160a01b0319166001600160a01b0392909216919091179055565b6000612557825490565b600061290e838361484c565b6000613e60614876565b606061255782614896565b6000613e6069151bdad95b95985d5b1d60b21b6148f1565b60008142106147c45760405162461bcd60e51b8152600401610cde90615262565b60006147d04284615894565b905061481e6147e56127106301e133806158f5565b600087815260008051602061596a8339815191526020526040902054869061480e9085906158f5565b61481891906158f5565b90614982565b95945050505050565b600061290e83836149f3565b6000613e606a14995cd95c9d99519d5b9960aa1b6148f1565b600082600001828154811061486357614863615397565b9060005260206000200154905092915050565b6000613e607121bab93932b731bca1b7b73a3937b63632b960711b6148f1565b60608160000180548060200260200160405190810160405280929190818152602001828054801561153257602002820191906000526020600020905b8154815260200190600101908083116148d25750505050509050919050565b60008181527f4abde63c3e81aefa5764b017968bc473e83e093d7e1a10247d19e0a3e41240196020908152604080832054815170026b4b9b9b4b7339030b2323932b9b99d1607d1b9381019390935260318084018690528251808503909101815260519093019091526001600160a01b03169081611b095760405162461bcd60e51b8152600401610cde9190615914565b600080821161499057600080fd5b600561499c8385615927565b6149a790600a6158f5565b836149b386600a6158f5565b6149bd9190615927565b6149c79190615894565b10156149de576149d78284615927565b9050612557565b6149e88284615927565b6149d79060016158ab565b6000818152600183016020526040812054614a3a57508154600181810184556000848152602080822090930184905584548482528286019093526040902091909155612557565b506000612557565b6001600160a01b038116811461284e57600080fd5b600080600060608486031215614a6c57600080fd5b8335614a7781614a42565b95602085013595506040909401359392505050565b600060208284031215614a9e57600080fd5b5035919050565b600080600060608486031215614aba57600080fd5b505081359360208301359350604090920135919050565b600081518084526020808501945080840160005b83811015614b0157815187529582019590820190600101614ae5565b509495945050505050565b606081526000614b1f6060830186614ad1565b8281036020840152614b318186614ad1565b90508281036040840152614b458185614ad1565b9695505050505050565b60008060408385031215614b6257600080fd5b823591506020830135614b7481614a42565b809150509250929050565b60008060408385031215614b9257600080fd5b50508035926020909101359150565b600080600060608486031215614bb657600080fd5b83359250602084013591506040840135614bcf81614a42565b809150509250925092565b6020808252825182820181905260009190848201906040850190845b81811015614c1b5783516001600160a01b031683529284019291840191600101614bf6565b50909695505050505050565b6020808252825182820181905260009190848201906040850190845b81811015614c1b57835183529284019291840191600101614c43565b6002811061284e57600080fd5b600080600080600060a08688031215614c8457600080fd5b85359450602086013593506040860135614c9d81614c5f565b94979396509394606081013594506080013592915050565b634e487b7160e01b600052604160045260246000fd5b60405160c081016001600160401b0381118282101715614ced57614ced614cb5565b60405290565b604051601f8201601f191681016001600160401b0381118282101715614d1b57614d1b614cb5565b604052919050565b60006001600160401b03821115614d3c57614d3c614cb5565b5060051b60200190565b600082601f830112614d5757600080fd5b81356020614d6c614d6783614d23565b614cf3565b82815260059290921b84018101918181019086841115614d8b57600080fd5b8286015b84811015614da65780358352918301918301614d8f565b509695505050505050565b60008060408385031215614dc457600080fd5b82356001600160401b03811115614dda57600080fd5b614de685828601614d46565b9250506020830135614b7481614a42565b634e487b7160e01b600052602160045260246000fd5b60028110614e2b57634e487b7160e01b600052602160045260246000fd5b9052565b600081518084526020808501945080840160005b83811015614b01578151805188528381015184890152604080820151614e6b828b0182614e0d565b5050606081810151908901526080808201519089015260a0908101519088015260c09096019590820190600101614e43565b604081526000614eb06040830185614e2f565b828103602084015261481e8185614e2f565b600080600060608486031215614ed757600080fd5b8335925060208401359150604084013565ffffffffffff81168114614bcf57600080fd5b60208152600061290e6020830184614ad1565b600080600080600060a08688031215614f2657600080fd5b505083359560208501359550604085013594606081013594506080013592509050565b60008060408385031215614f5c57600080fd5b82356001600160401b03811115614f7257600080fd5b614f7e85828601614d46565b95602094909401359450505050565b600060208284031215614f9f57600080fd5b813561290e81614a42565b60008060008060808587031215614fc057600080fd5b8435935060208501359250604085013591506060850135614fe081614a42565b939692955090935050565b6000806000806080858703121561500157600080fd5b843561500c81614a42565b9350602085013561501c81614a42565b93969395505050506040820135916060013590565b80518015158114612b9d57600080fd5b600080600080600080600080610100898b03121561505e57600080fd5b885197506020890151965060408901519550606089015194506080890151935060a0890151925060c0890151915061509860e08a01615031565b90509295985092959890939650565b600082601f8301126150b857600080fd5b815160206150c8614d6783614d23565b82815260059290921b840181019181810190868411156150e757600080fd5b8286015b84811015614da657805183529183019183016150eb565b60008060006060848603121561511757600080fd5b83516001600160401b038082111561512e57600080fd5b61513a878388016150a7565b9450602086015191508082111561515057600080fd5b61515c878388016150a7565b9350604086015191508082111561517257600080fd5b5061517f868287016150a7565b9150509250925092565b92835260208301919091526001600160a01b0316604082015260600190565b600060e082840312156151ba57600080fd5b60405160e081018181106001600160401b03821117156151dc576151dc614cb5565b8060405250825181526020830151602082015260408301516040820152606083015160608201526080830151608082015260a083015160a082015260c083015160c08201528091505092915050565b6020808252601f908201527f5265656e7472616e637947756172643a207265656e7472616e742063616c6c00604082015260600190565b60208082526010908201526f496e76616c6964206d6174757269747960801b604082015260600190565b602080825260129082015271105b1c9958591e481d195c9b5a5b985d195960721b604082015260600190565b6000606082840312156152ca57600080fd5b604051606081018181106001600160401b03821117156152ec576152ec614cb5565b806040525080915082516152ff81614a42565b8082525060208301516020820152604083015160408201525092915050565b600080600080600060e0868803121561533657600080fd5b85519450602086015193506040860151925061535587606088016152b8565b915060c086015161536581614c5f565b809150509295509295909350565b6000806040838503121561538657600080fd5b505080516020909101519092909150565b634e487b7160e01b600052603260045260246000fd5b6000815180845260005b818110156153d3576020818501810151868301820152016153b7565b818111156153e5576000602083870101525b50601f01601f19169290920160200192915050565b82815260406020820152600061343760408301846153ad565b60006020828403121561542557600080fd5b815161290e81614a42565b634e487b7160e01b600052601160045260246000fd5b600060001982141561545a5761545a615430565b5060010190565b6020808252818101527f4f776e61626c653a2063616c6c6572206973206e6f7420746865206f776e6572604082015260600190565b604080825283519082018190526000906020906060840190828701845b828110156154cf578151845292840192908401906001016154b3565b5050506001600160a01b039490941692019190915250919050565b600082601f8301126154fb57600080fd5b8151602061550b614d6783614d23565b82815260c0928302850182019282820191908785111561552a57600080fd5b8387015b858110156155985781818a0312156155465760008081fd5b61554e614ccb565b81518152858201518682015260408083015161556981614c5f565b90820152606082810151908201526080808301519082015260a08083015190820152845292840192810161552e565b5090979650505050505050565b600080604083850312156155b857600080fd5b82516001600160401b03808211156155cf57600080fd5b6155db868387016154ea565b935060208501519150808211156155f157600080fd5b506155fe858286016154ea565b9150509250929050565b60008060006060848603121561561d57600080fd5b835161562881614c5f565b602085015160409095015190969495509392505050565b60006020828403121561565157600080fd5b5051919050565b600080600080600080600060e0888a03121561567357600080fd5b5050855160208701516040880151606089015160808a015160a08b015160c0909b0151949c939b50919990985090965094509092509050565b6000600160ff1b8214156156c2576156c2615430565b5060000390565b6000806000606084860312156156de57600080fd5b83516156e981614a42565b60208501519093506156fa81614a42565b80925050604084015190509250925092565b60008060c0838503121561571f57600080fd5b61572984846152b8565b915061573884606085016152b8565b90509250929050565b60006020828403121561575357600080fd5b61290e82615031565b600080821280156001600160ff1b038490038513161561577e5761577e615430565b600160ff1b839003841281161561579757615797615430565b50500190565b888152602081018890526001600160a01b038716604082015261010081016157c86060830188614e0d565b8560808301528460a08301528360c083015282151560e08301529998505050505050505050565b6001600160a01b038516815260208101849052604081018390526080810161481e6060830184614e0d565b60a081016158288288614e0d565b6001600160a01b03959095166020820152604081019390935260608301919091521515608090910152919050565b60008060008060c0858703121561586c57600080fd5b845193506020850151925061588486604087016152b8565b60a0959095015193969295505050565b6000828210156158a6576158a6615430565b500390565b600082198211156158be576158be615430565b500190565b608081016158d18287614e0d565b6001600160a01b039490941660208201526040810192909252606090910152919050565b600081600019048311821515161561590f5761590f615430565b500290565b60208152600061290e60208301846153ad565b60008261594457634e487b7160e01b600052601260045260246000fd5b50049056fe4abde63c3e81aefa5764b017968bc473e83e093d7e1a10247d19e0a3e412401855cc3066d618b5a688ac1f2a8234e21c685f7432b4230a1660309640d60d8f6455cc3066d618b5a688ac1f2a8234e21c685f7432b4230a1660309640d60d8f65a26469706673582212206b2e7101cf84ce18f41c4334d2f019b70aebb35125f1eabab187275670399e6764736f6c63430008090033",
  "libraries": {
    "FundManagementLogic": "0xae20bc872Fe5df8b1F883E3295e54daD5F923e86",
    "LendingMarketOperationLogic": "0x3568976b6679e63dc4838A9ba4bF74C5590bfF69",
    "LendingMarketUserLogic": "0x076e143Ee14F06EB1aFA13B7256cb2D672919f44"
  },
  "implementation": "0x1Ece5751a6Dd3a12D9C5a79262f2E7769A2FD114",
  "devdoc": {
    "kind": "dev",
    "methods": {
      "acceptedContracts()": {
        "details": "The contact name listed in this method is also needed to be listed `requiredContracts` method."
      },
      "calculateFunds(bytes32,address)": {
        "params": {
          "_ccy": "Currency name in bytes32",
          "_user": "User's address"
        },
        "returns": {
          "borrowedAmount": "The borrowed amount due to the borrow orders being filled on the order book",
          "claimableAmount": "The claimable amount due to the lending orders being filled on the order book",
          "collateralAmount": "The actual collateral amount that is calculated by netting using the haircut.",
          "debtAmount": "The debt amount due to the borrow orders being filled on the order book",
          "lentAmount": "The lent amount due to the lend orders being filled on the order book",
          "workingBorrowOrdersAmount": "The working orders amount on the borrow order book",
          "workingLendOrdersAmount": "The working orders amount on the lend order book"
        }
      },
      "calculateTotalFundsInETH(address,bytes32,uint256)": {
        "params": {
          "_depositAmount": "Amount to deposit",
          "_depositCcy": "Currency name to be used as deposit",
          "_user": "User's address"
        }
      },
      "cancelOrder(bytes32,uint256,uint48)": {
        "params": {
          "_ccy": "Currency name in bytes32 of the selected market",
          "_maturity": "The maturity of the selected market",
          "_orderId": "Market order id"
        }
      },
      "cleanUpAllFunds(address)": {
        "params": {
          "_user": "User's address"
        }
      },
      "cleanUpFunds(bytes32,address)": {
        "params": {
          "_ccy": "Currency name in bytes32",
          "_user": "User's address"
        }
      },
      "createLendingMarket(bytes32,uint256)": {
        "params": {
          "_ccy": "Main currency for new lending market",
          "_openingDate": "Timestamp when the lending market opens"
        }
      },
      "createOrder(bytes32,uint256,uint8,uint256,uint256)": {
        "params": {
          "_amount": "Amount of funds the maker wants to borrow/lend",
          "_ccy": "Currency name in bytes32 of the selected market",
          "_maturity": "The maturity of the selected market",
          "_side": "Order position type, Borrow or Lend",
          "_unitPrice": "Amount of unit price taker wish to borrow/lend"
        },
        "returns": {
          "_0": "True if the execution of the operation succeeds"
        }
      },
      "createPreOrder(bytes32,uint256,uint8,uint256,uint256)": {
        "params": {
          "_amount": "Amount of funds the maker wants to borrow/lend",
          "_ccy": "Currency name in bytes32 of the selected market",
          "_maturity": "The maturity of the selected market",
          "_side": "Order position type, Borrow or Lend",
          "_unitPrice": "Amount of unit price taker wish to borrow/lend"
        },
        "returns": {
          "_0": "True if the execution of the operation succeeds"
        }
      },
      "depositAndCreateOrder(bytes32,uint256,uint8,uint256,uint256)": {
        "params": {
          "_amount": "Amount of funds the maker wants to borrow/lend",
          "_ccy": "Currency name in bytes32 of the selected market",
          "_maturity": "The maturity of the selected market",
          "_side": "Order position type, Borrow or Lend",
          "_unitPrice": "Amount of unit price taker wish to borrow/lend"
        },
        "returns": {
          "_0": "True if the execution of the operation succeeds"
        }
      },
      "depositAndCreatePreOrder(bytes32,uint256,uint8,uint256,uint256)": {
        "params": {
          "_amount": "Amount of funds the maker wants to borrow/lend",
          "_ccy": "Currency name in bytes32 of the selected market",
          "_maturity": "The maturity of the selected market",
          "_side": "Order position type, Borrow or Lend",
          "_unitPrice": "Amount of unit price taker wish to borrow/lend"
        },
        "returns": {
          "_0": "True if the execution of the operation succeeds"
        }
      },
      "executeItayoseCalls(bytes32[],uint256)": {
        "params": {
          "_currencies": "Currency name list in bytes32",
          "_maturity": "The maturity of the selected market"
        }
      },
      "executeLiquidationCall(bytes32,bytes32,uint256,address)": {
        "params": {
          "_collateralCcy": "Currency name to be used as collateral",
          "_debtCcy": "Currency name to be used as debt",
          "_debtMaturity": "The market maturity of the debt",
          "_user": "User's address"
        },
        "returns": {
          "_0": "True if the execution of the operation succeeds"
        }
      },
      "executeRedemption(bytes32,bytes32)": {
        "params": {
          "_collateralCcy": "Currency name of collateral",
          "_redemptionCcy": "Currency name of positions to be redeemed"
        }
      },
      "getAutoRollFeeRate(bytes32)": {
        "params": {
          "_ccy": "Currency name in bytes32"
        },
        "returns": {
          "_0": "The auto-roll fee rate received by protocol"
        }
      },
      "getBorrowOrderBook(bytes32,uint256,uint256)": {
        "params": {
          "_ccy": "Currency name in bytes32",
          "_limit": "The limit number to get",
          "_maturity": "The maturity of the market"
        },
        "returns": {
          "amounts": "The array of borrow order amounts",
          "quantities": "The array of borrow order quantities",
          "unitPrices": "The array of borrow unit prices"
        }
      },
      "getBorrowUnitPrices(bytes32)": {
        "params": {
          "_ccy": "Currency name in bytes32"
        },
        "returns": {
          "_0": "Array with the borrowing prices per future value of the lending market"
        }
      },
      "getFutureValue(bytes32,uint256,address)": {
        "params": {
          "_ccy": "Currency name in bytes32 for Lending Market",
          "_maturity": "The maturity of the market",
          "_user": "User's address"
        },
        "returns": {
          "futureValue": "The future value"
        }
      },
      "getFutureValueVault(bytes32,uint256)": {
        "params": {
          "_ccy": "Currency name in bytes32",
          "_maturity": "The maturity of the market"
        },
        "returns": {
          "_0": "The lending market address"
        }
      },
      "getGenesisDate(bytes32)": {
        "params": {
          "_ccy": "Currency name in bytes32"
        },
        "returns": {
          "_0": "The genesis date"
        }
      },
      "getGenesisValue(bytes32,address)": {
        "params": {
          "_ccy": "Currency name in bytes32 for Lending Market",
          "_user": "User's address"
        },
        "returns": {
          "genesisValue": "The genesis value"
        }
      },
      "getLendOrderBook(bytes32,uint256,uint256)": {
        "params": {
          "_ccy": "Currency name in bytes32",
          "_limit": "The limit number to get",
          "_maturity": "The maturity of the market"
        },
        "returns": {
          "amounts": "The array of lend order amounts",
          "quantities": "The array of lend order quantities",
          "unitPrices": "The array of borrow unit prices"
        }
      },
      "getLendUnitPrices(bytes32)": {
        "params": {
          "_ccy": "Currency name in bytes32"
        },
        "returns": {
          "_0": "Array with the lending prices per future value of the lending market"
        }
      },
      "getLendingMarket(bytes32,uint256)": {
        "params": {
          "_ccy": "Currency name in bytes32",
          "_maturity": "The maturity of the market"
        },
        "returns": {
          "_0": "The lending market address"
        }
      },
      "getLendingMarkets(bytes32)": {
        "params": {
          "_ccy": "Currency name in bytes32"
        },
        "returns": {
          "_0": "Array with the lending market address"
        }
      },
      "getMaturities(bytes32)": {
        "params": {
          "_ccy": "Currency name in bytes32"
        },
        "returns": {
          "_0": "Array with the lending market maturity"
        }
      },
      "getMidUnitPrices(bytes32)": {
        "params": {
          "_ccy": "Currency name in bytes32"
        },
        "returns": {
          "_0": "Array with the mid prices per future value of the lending market"
        }
      },
      "getObservationPeriod()": {
        "returns": {
          "_0": "The observation period to calculate the volume-weighted average price of transactions"
        }
      },
      "getOrderFeeRate(bytes32)": {
        "params": {
          "_ccy": "Currency name in bytes32"
        },
        "returns": {
          "_0": "The order fee rate received by protocol"
        }
      },
      "getOrders(bytes32[],address)": {
        "params": {
          "_ccys": "Currency name list in bytes32",
          "_user": "User's address"
        },
        "returns": {
          "activeOrders": "The array of active orders in the order book",
          "inactiveOrders": "The array of inactive orders"
        }
      },
      "getPresentValue(bytes32,uint256,address)": {
        "params": {
          "_ccy": "Currency name in bytes32 for Lending Market",
          "_maturity": "The maturity of the market",
          "_user": "User's address"
        },
        "returns": {
          "presentValue": "The present value"
        }
      },
      "getTotalPresentValue(bytes32,address)": {
        "params": {
          "_ccy": "Currency name in bytes32 for Lending Market",
          "_user": "User's address"
        },
        "returns": {
          "totalPresentValue": "The total present value"
        }
      },
      "getTotalPresentValueInETH(address)": {
        "params": {
          "_user": "User's address"
        },
        "returns": {
          "totalPresentValue": "The total present value in ETH"
        }
      },
      "getUsedCurrencies(address)": {
        "params": {
          "_user": "User's address"
        },
        "returns": {
          "_0": "The array of the currency"
        }
      },
      "initialize(address,address,uint256,uint256)": {
        "details": "Function is invoked by the proxy contract when the contract is added to the ProxyController.",
        "params": {
          "_marketBasePeriod": "The base period for market maturity",
          "_observationPeriod": "The observation period to calculate the volume-weighted average price of transactions",
          "_owner": "The address of the contract owner",
          "_resolver": "The address of the Address Resolver contract"
        }
      },
      "initializeLendingMarket(bytes32,uint256,uint256,uint256,uint256)": {
        "params": {
          "_autoRollFeeRate": "The auto roll fee rate received by protocol",
          "_ccy": "Currency name in bytes32",
          "_compoundFactor": "The initial compound factor when the initial market is opened",
          "_genesisDate": "The genesis date when the initial market is opened",
          "_orderFeeRate": "The order fee rate received by protocol"
        }
      },
      "isInitializedLendingMarket(bytes32)": {
        "params": {
          "_ccy": "Currency name in bytes32"
        },
        "returns": {
          "_0": "The boolean if the lending market is initialized or not"
        }
      },
      "isTerminated()": {
        "returns": {
          "_0": "The boolean if the protocol has not been terminated"
        }
      },
      "owner()": {
        "details": "Returns the address of the current owner."
      },
      "pauseLendingMarkets(bytes32)": {
        "params": {
          "_ccy": "Currency for pausing all lending markets"
        },
        "returns": {
          "_0": "True if the execution of the operation succeeds"
        }
      },
      "renounceOwnership()": {
        "details": "Leaves the contract without owner. It will not be possible to call `onlyOwner` functions anymore. Can only be called by the current owner. NOTE: Renouncing ownership will leave the contract without an owner, thereby removing any functionality that is only available to the owner."
      },
      "requiredContracts()": {
        "details": "The contract name list is in `./libraries/Contracts.sol`."
      },
      "rotateLendingMarkets(bytes32)": {
        "params": {
          "_ccy": "Currency name in bytes32 of the selected market"
        }
      },
      "transferOwnership(address)": {
        "details": "Transfers ownership of the contract to a new account (`newOwner`). Can only be called by the current owner."
      },
      "unpauseLendingMarkets(bytes32)": {
        "params": {
          "_ccy": "Currency name in bytes32"
        },
        "returns": {
          "_0": "True if the execution of the operation succeeds"
        }
      },
      "unwindOrder(bytes32,uint256)": {
        "params": {
          "_ccy": "Currency name in bytes32 of the selected market",
          "_maturity": "The maturity of the selected market"
        }
      },
      "updateAutoRollFeeRate(bytes32,uint256)": {
        "params": {
          "_autoRollFeeRate": "The order fee rate received by protocol",
          "_ccy": "Currency name in bytes32"
        }
      },
      "updateObservationPeriod(uint256)": {
        "params": {
          "_observationPeriod": "The observation period to calculate the volume-weighted average price of transactions"
        }
      },
      "updateOrderFeeRate(bytes32,uint256)": {
        "params": {
          "_ccy": "Currency name in bytes32",
          "_orderFeeRate": "The order fee rate received by protocol"
        }
      }
    },
    "version": 1
  },
  "userdoc": {
    "kind": "user",
    "methods": {
      "acceptedContracts()": {
        "notice": "Returns contract names that can call this contract."
      },
      "calculateFunds(bytes32,address)": {
        "notice": "Gets the funds that are calculated from the user's lending and borrowing order list for the selected currency."
      },
      "calculateTotalFundsInETH(address,bytes32,uint256)": {
        "notice": "Gets the funds that are calculated from the user's lending and borrowing order list for all currencies in ETH."
      },
      "cancelOrder(bytes32,uint256,uint48)": {
        "notice": "Cancels the own order."
      },
      "cleanUpAllFunds(address)": {
        "notice": "Clean up all funds of the user"
      },
      "cleanUpFunds(bytes32,address)": {
        "notice": "Clean up user funds used for lazy evaluation by the following actions: - Removes order IDs that is already filled on the order book. - Convert Future values that have already been auto-rolled to Genesis values."
      },
      "createLendingMarket(bytes32,uint256)": {
        "notice": "Deploys new Lending Market and save address at lendingMarkets mapping.Reverts on deployment market with existing currency and term"
      },
      "createOrder(bytes32,uint256,uint8,uint256,uint256)": {
        "notice": "Creates an order. Takes orders if the orders are matched, and places new order if not match it. In addition, converts the future value to the genesis value if there is future value in past maturity before the execution of order creation."
      },
      "createPreOrder(bytes32,uint256,uint8,uint256,uint256)": {
        "notice": "Creates a pre-order. A pre-order will only be accepted from 48 hours to 1 hour before the market opens (Pre-order period). At the end of this period, Itayose will be executed."
      },
      "depositAndCreateOrder(bytes32,uint256,uint8,uint256,uint256)": {
        "notice": "Deposits funds and creates an order at the same time."
      },
      "depositAndCreatePreOrder(bytes32,uint256,uint8,uint256,uint256)": {
        "notice": "Deposits funds and creates a pre-order at the same time."
      },
      "executeEmergencyTermination()": {
        "notice": "Executes an emergency termination to stop the protocol. Once this function is executed, the protocol cannot be run again. Also, users will only be able to redeem and withdraw."
      },
      "executeItayoseCalls(bytes32[],uint256)": {
        "notice": "Executes Itayose calls per selected currencies."
      },
      "executeLiquidationCall(bytes32,bytes32,uint256,address)": {
        "notice": "Liquidates a lending or borrowing position if the user's coverage is hight."
      },
      "executeRedemption(bytes32,bytes32)": {
        "notice": "Redeems all lending and borrowing positions. This function uses the present value as of the termination date."
      },
      "getAutoRollFeeRate(bytes32)": {
        "notice": "Gets the auto-roll fee rate"
      },
      "getBorrowOrderBook(bytes32,uint256,uint256)": {
        "notice": "Gets the order book of borrow."
      },
      "getBorrowUnitPrices(bytes32)": {
        "notice": "Gets borrow prices per future value for the selected currency."
      },
      "getFutureValue(bytes32,uint256,address)": {
        "notice": "Gets the future value of the account for selected currency and maturity."
      },
      "getFutureValueVault(bytes32,uint256)": {
        "notice": "Gets the feture value contract address for the selected currency and maturity."
      },
      "getGenesisDate(bytes32)": {
        "notice": "Gets the genesis date when the first market opens for the selected currency."
      },
      "getGenesisValue(bytes32,address)": {
        "notice": "Gets the genesis value of the account."
      },
      "getLendOrderBook(bytes32,uint256,uint256)": {
        "notice": "Gets the order book of lend."
      },
      "getLendUnitPrices(bytes32)": {
        "notice": "Gets lend prices per future value for the selected currency."
      },
      "getLendingMarket(bytes32,uint256)": {
        "notice": "Gets the lending market contract address for the selected currency and maturity."
      },
      "getLendingMarkets(bytes32)": {
        "notice": "Gets the lending market contract addresses for the selected currency."
      },
      "getMaturities(bytes32)": {
        "notice": "Gets maturities for the selected currency."
      },
      "getMidUnitPrices(bytes32)": {
        "notice": "Gets mid prices per future value for the selected currency."
      },
      "getObservationPeriod()": {
        "notice": "Gets the observation period"
      },
      "getOrderFeeRate(bytes32)": {
        "notice": "Gets the order fee rate"
      },
      "getOrders(bytes32[],address)": {
        "notice": "Gets user's active and inactive orders in the order book"
      },
      "getPresentValue(bytes32,uint256,address)": {
        "notice": "Gets the present value of the account for selected currency and maturity."
      },
      "getTotalPresentValue(bytes32,address)": {
        "notice": "Gets the total present value of the account for selected currency."
      },
      "getTotalPresentValueInETH(address)": {
        "notice": "Gets the total present value of the account converted to ETH."
      },
      "getUsedCurrencies(address)": {
        "notice": "Get all the currencies in which the user has lending positions or orders."
      },
      "initialize(address,address,uint256,uint256)": {
        "notice": "Initializes the contract."
      },
      "initializeLendingMarket(bytes32,uint256,uint256,uint256,uint256)": {
        "notice": "Initialize the lending market to set a genesis date and compound factor"
      },
      "isInitializedLendingMarket(bytes32)": {
        "notice": "Gets if the lending market is initialized."
      },
      "isTerminated()": {
        "notice": "Gets if the protocol has not been terminated."
      },
      "pauseLendingMarkets(bytes32)": {
        "notice": "Pauses previously deployed lending market by currency"
      },
      "requiredContracts()": {
        "notice": "Returns the contract names used in this contract."
      },
      "rotateLendingMarkets(bytes32)": {
        "notice": "Rotates the lending markets. In this rotation, the following actions are happened. - Updates the maturity at the beginning of the market array. - Moves the beginning of the market array to the end of it (Market rotation). - Update the compound factor in this contract using the next market unit price. (Auto-rolls) - Convert the future value held by reserve funds into the genesis value"
      },
      "unpauseLendingMarkets(bytes32)": {
        "notice": "Unpauses previously deployed lending market by currency"
      },
      "unwindOrder(bytes32,uint256)": {
        "notice": "Unwinds user's lending or borrowing positions by creating an opposite position order."
      },
      "updateAutoRollFeeRate(bytes32,uint256)": {
        "notice": "Updates the auto-roll fee rate"
      },
      "updateObservationPeriod(uint256)": {
        "notice": "Updates the observation period"
      },
      "updateOrderFeeRate(bytes32,uint256)": {
        "notice": "Updates the order fee rate"
      }
    },
    "notice": "Implements the module to manage separated lending order-book markets per maturity. This contract also works as a factory contract that can deploy(start)a new lending market for selected currency and maturity and has the calculation logic for the Genesis value in addition. Deployed Lending Markets are rotated and reused as it reaches the maturity date. At the time of rotation, a new maturity date is set and the compound factor is updated. The users mainly call this contract to create orders to lend or borrow funds.",
    "version": 1
  },
  "storageLayout": {
    "storage": [
      {
        "astId": 1446,
        "contract": "contracts/protocol/LendingMarketController.sol:LendingMarketController",
        "label": "_status",
        "offset": 0,
        "slot": "0",
        "type": "t_uint256"
      },
      {
        "astId": 1183,
        "contract": "contracts/protocol/LendingMarketController.sol:LendingMarketController",
        "label": "_initialized",
        "offset": 0,
        "slot": "1",
        "type": "t_uint8"
      },
      {
        "astId": 1186,
        "contract": "contracts/protocol/LendingMarketController.sol:LendingMarketController",
        "label": "_initializing",
        "offset": 1,
        "slot": "1",
        "type": "t_bool"
      },
      {
        "astId": 36090,
        "contract": "contracts/protocol/LendingMarketController.sol:LendingMarketController",
        "label": "lockedBy",
        "offset": 2,
        "slot": "1",
        "type": "t_address"
      }
    ],
    "types": {
      "t_address": {
        "encoding": "inplace",
        "label": "address",
        "numberOfBytes": "20"
      },
      "t_bool": {
        "encoding": "inplace",
        "label": "bool",
        "numberOfBytes": "1"
      },
      "t_uint256": {
        "encoding": "inplace",
        "label": "uint256",
        "numberOfBytes": "32"
      },
      "t_uint8": {
        "encoding": "inplace",
        "label": "uint8",
        "numberOfBytes": "1"
      }
    }
  }
}