{
  "address": "0x28a629f624299621394523E5cF51f6aD3655C538",
  "abi": [
    {
      "anonymous": false,
      "inputs": [
        {
          "indexed": false,
          "internalType": "bytes32",
          "name": "name",
          "type": "bytes32"
        },
        {
          "indexed": false,
          "internalType": "address",
          "name": "destination",
          "type": "address"
        }
      ],
      "name": "CacheUpdated",
      "type": "event"
    },
    {
      "anonymous": false,
      "inputs": [
        {
          "indexed": false,
          "internalType": "uint48",
          "name": "orderId",
          "type": "uint48"
        },
        {
          "indexed": true,
          "internalType": "address",
          "name": "maker",
          "type": "address"
        },
        {
          "indexed": true,
          "internalType": "bytes32",
          "name": "ccy",
          "type": "bytes32"
        },
        {
          "indexed": false,
          "internalType": "enum ProtocolTypes.Side",
          "name": "side",
          "type": "uint8"
        },
        {
          "indexed": false,
          "internalType": "uint256",
          "name": "maturity",
          "type": "uint256"
        },
        {
          "indexed": false,
          "internalType": "uint256",
          "name": "amount",
          "type": "uint256"
        },
        {
          "indexed": false,
          "internalType": "uint256",
          "name": "unitPrice",
          "type": "uint256"
        }
      ],
      "name": "CancelOrder",
      "type": "event"
    },
    {
      "anonymous": false,
      "inputs": [
        {
          "indexed": true,
          "internalType": "bytes32",
          "name": "ccy",
          "type": "bytes32"
        },
        {
          "indexed": true,
          "internalType": "address",
          "name": "marketAddr",
          "type": "address"
        },
        {
          "indexed": false,
          "internalType": "address",
          "name": "futureValueVault",
          "type": "address"
        },
        {
          "indexed": false,
          "internalType": "uint256",
          "name": "index",
          "type": "uint256"
        },
        {
          "indexed": false,
          "internalType": "uint256",
          "name": "maturity",
          "type": "uint256"
        }
      ],
      "name": "CreateLendingMarket",
      "type": "event"
    },
    {
      "anonymous": false,
      "inputs": [
        {
          "indexed": true,
          "internalType": "address",
          "name": "taker",
          "type": "address"
        },
        {
          "indexed": true,
          "internalType": "bytes32",
          "name": "ccy",
          "type": "bytes32"
        },
        {
          "indexed": false,
          "internalType": "enum ProtocolTypes.Side",
          "name": "side",
          "type": "uint8"
        },
        {
          "indexed": true,
          "internalType": "uint256",
          "name": "maturity",
          "type": "uint256"
        },
        {
          "indexed": false,
          "internalType": "uint256",
          "name": "amount",
          "type": "uint256"
        },
        {
          "indexed": false,
          "internalType": "uint256",
          "name": "unitPrice",
          "type": "uint256"
        },
        {
          "indexed": false,
          "internalType": "uint256",
          "name": "filledFutureValue",
          "type": "uint256"
        }
      ],
      "name": "FillOrder",
      "type": "event"
    },
    {
      "anonymous": false,
      "inputs": [
        {
          "indexed": true,
          "internalType": "address",
          "name": "taker",
          "type": "address"
        },
        {
          "indexed": true,
          "internalType": "bytes32",
          "name": "ccy",
          "type": "bytes32"
        },
        {
          "indexed": false,
          "internalType": "enum ProtocolTypes.Side",
          "name": "side",
          "type": "uint8"
        },
        {
          "indexed": true,
          "internalType": "uint256",
          "name": "maturity",
          "type": "uint256"
        },
        {
          "indexed": false,
          "internalType": "uint256",
          "name": "filledFutureValue",
          "type": "uint256"
        }
      ],
      "name": "FillOrdersAsync",
      "type": "event"
    },
    {
      "anonymous": false,
      "inputs": [
        {
          "indexed": false,
          "internalType": "uint8",
          "name": "version",
          "type": "uint8"
        }
      ],
      "name": "Initialized",
      "type": "event"
    },
    {
      "anonymous": false,
      "inputs": [
        {
          "indexed": true,
          "internalType": "address",
          "name": "previousOwner",
          "type": "address"
        },
        {
          "indexed": true,
          "internalType": "address",
          "name": "newOwner",
          "type": "address"
        }
      ],
      "name": "OwnershipTransferred",
      "type": "event"
    },
    {
      "anonymous": false,
      "inputs": [
        {
          "indexed": true,
          "internalType": "address",
          "name": "maker",
          "type": "address"
        },
        {
          "indexed": true,
          "internalType": "bytes32",
          "name": "ccy",
          "type": "bytes32"
        },
        {
          "indexed": false,
          "internalType": "enum ProtocolTypes.Side",
          "name": "side",
          "type": "uint8"
        },
        {
          "indexed": true,
          "internalType": "uint256",
          "name": "maturity",
          "type": "uint256"
        },
        {
          "indexed": false,
          "internalType": "uint256",
          "name": "amount",
          "type": "uint256"
        },
        {
          "indexed": false,
          "internalType": "uint256",
          "name": "unitPrice",
          "type": "uint256"
        }
      ],
      "name": "PlaceOrder",
      "type": "event"
    },
    {
      "anonymous": false,
      "inputs": [
        {
          "indexed": false,
          "internalType": "bytes32",
          "name": "ccy",
          "type": "bytes32"
        },
        {
          "indexed": false,
          "internalType": "uint256",
          "name": "oldMaturity",
          "type": "uint256"
        },
        {
          "indexed": false,
          "internalType": "uint256",
          "name": "newMaturity",
          "type": "uint256"
        }
      ],
      "name": "RotateLendingMarkets",
      "type": "event"
    },
    {
      "inputs": [],
      "name": "acceptedContracts",
      "outputs": [
        {
          "internalType": "bytes32[]",
          "name": "contracts",
          "type": "bytes32[]"
        }
      ],
      "stateMutability": "pure",
      "type": "function"
    },
    {
      "inputs": [],
      "name": "buildCache",
      "outputs": [],
      "stateMutability": "nonpayable",
      "type": "function"
    },
    {
      "inputs": [
        {
          "internalType": "bytes32",
          "name": "_ccy",
          "type": "bytes32"
        },
        {
          "internalType": "address",
          "name": "_user",
          "type": "address"
        }
      ],
      "name": "calculateBorrowedFundsFromOrders",
      "outputs": [
        {
          "internalType": "uint256",
          "name": "workingOrdersAmount",
          "type": "uint256"
        },
        {
          "internalType": "uint256",
          "name": "obligationAmount",
          "type": "uint256"
        },
        {
          "internalType": "uint256",
          "name": "borrowedAmount",
          "type": "uint256"
        }
      ],
      "stateMutability": "view",
      "type": "function"
    },
    {
      "inputs": [
        {
          "internalType": "bytes32",
          "name": "_ccy",
          "type": "bytes32"
        },
        {
          "internalType": "address",
          "name": "_user",
          "type": "address"
        }
      ],
      "name": "calculateLentFundsFromOrders",
      "outputs": [
        {
          "internalType": "uint256",
          "name": "workingOrdersAmount",
          "type": "uint256"
        },
        {
          "internalType": "uint256",
          "name": "claimableAmount",
          "type": "uint256"
        },
        {
          "internalType": "uint256",
          "name": "lentAmount",
          "type": "uint256"
        }
      ],
      "stateMutability": "view",
      "type": "function"
    },
    {
      "inputs": [
        {
          "internalType": "address",
          "name": "_user",
          "type": "address"
        }
      ],
      "name": "calculateTotalFundsInETH",
      "outputs": [
        {
          "internalType": "uint256",
          "name": "totalWorkingLendOrdersAmount",
          "type": "uint256"
        },
        {
          "internalType": "uint256",
          "name": "totalClaimableAmount",
          "type": "uint256"
        },
        {
          "internalType": "uint256",
          "name": "totalLentAmount",
          "type": "uint256"
        },
        {
          "internalType": "uint256",
          "name": "totalWorkingBorrowOrdersAmount",
          "type": "uint256"
        },
        {
          "internalType": "uint256",
          "name": "totalObligationAmount",
          "type": "uint256"
        },
        {
          "internalType": "uint256",
          "name": "totalBorrowedAmount",
          "type": "uint256"
        }
      ],
      "stateMutability": "view",
      "type": "function"
    },
    {
      "inputs": [
        {
          "internalType": "bytes32",
          "name": "_ccy",
          "type": "bytes32"
        },
        {
          "internalType": "uint256",
          "name": "_maturity",
          "type": "uint256"
        },
        {
          "internalType": "uint48",
          "name": "_orderId",
          "type": "uint48"
        }
      ],
      "name": "cancelOrder",
      "outputs": [
        {
          "internalType": "bool",
          "name": "",
          "type": "bool"
        }
      ],
      "stateMutability": "nonpayable",
      "type": "function"
    },
    {
      "inputs": [
        {
          "internalType": "address",
          "name": "_user",
          "type": "address"
        }
      ],
      "name": "cleanAllOrders",
      "outputs": [],
      "stateMutability": "nonpayable",
      "type": "function"
    },
    {
      "inputs": [
        {
          "internalType": "bytes32",
          "name": "_ccy",
          "type": "bytes32"
        },
        {
          "internalType": "address",
          "name": "_user",
          "type": "address"
        }
      ],
      "name": "cleanOrders",
      "outputs": [],
      "stateMutability": "nonpayable",
      "type": "function"
    },
    {
      "inputs": [
        {
          "internalType": "bytes32",
          "name": "_ccy",
          "type": "bytes32"
        },
        {
          "internalType": "uint256",
          "name": "_maturity",
          "type": "uint256"
        },
        {
          "internalType": "uint256",
          "name": "_unitPrice",
          "type": "uint256"
        }
      ],
      "name": "createLendOrderWithETH",
      "outputs": [
        {
          "internalType": "bool",
          "name": "",
          "type": "bool"
        }
      ],
      "stateMutability": "payable",
      "type": "function"
    },
    {
      "inputs": [
        {
          "internalType": "bytes32",
          "name": "_ccy",
          "type": "bytes32"
        }
      ],
      "name": "createLendingMarket",
      "outputs": [
        {
          "internalType": "address",
          "name": "market",
          "type": "address"
        },
        {
          "internalType": "address",
          "name": "futureValueVault",
          "type": "address"
        }
      ],
      "stateMutability": "nonpayable",
      "type": "function"
    },
    {
      "inputs": [
        {
          "internalType": "bytes32",
          "name": "_ccy",
          "type": "bytes32"
        },
        {
          "internalType": "uint256",
          "name": "_maturity",
          "type": "uint256"
        },
        {
          "internalType": "enum ProtocolTypes.Side",
          "name": "_side",
          "type": "uint8"
        },
        {
          "internalType": "uint256",
          "name": "_amount",
          "type": "uint256"
        },
        {
          "internalType": "uint256",
          "name": "_unitPrice",
          "type": "uint256"
        }
      ],
      "name": "createOrder",
      "outputs": [
        {
          "internalType": "bool",
          "name": "",
          "type": "bool"
        }
      ],
      "stateMutability": "nonpayable",
      "type": "function"
    },
    {
      "inputs": [
        {
          "internalType": "bytes32",
          "name": "_ccy",
          "type": "bytes32"
        },
        {
          "internalType": "uint256",
          "name": "_maturity",
          "type": "uint256"
        },
        {
          "internalType": "uint256",
          "name": "_unitPrice",
          "type": "uint256"
        }
      ],
      "name": "depositAndCreateLendOrderWithETH",
      "outputs": [
        {
          "internalType": "bool",
          "name": "",
          "type": "bool"
        }
      ],
      "stateMutability": "payable",
      "type": "function"
    },
    {
      "inputs": [
        {
          "internalType": "bytes32",
          "name": "_ccy",
          "type": "bytes32"
        },
        {
          "internalType": "uint256",
          "name": "_maturity",
          "type": "uint256"
        },
        {
          "internalType": "enum ProtocolTypes.Side",
          "name": "_side",
          "type": "uint8"
        },
        {
          "internalType": "uint256",
          "name": "_amount",
          "type": "uint256"
        },
        {
          "internalType": "uint256",
          "name": "_unitPrice",
          "type": "uint256"
        }
      ],
      "name": "depositAndCreateOrder",
      "outputs": [
        {
          "internalType": "bool",
          "name": "",
          "type": "bool"
        }
      ],
      "stateMutability": "nonpayable",
      "type": "function"
    },
    {
      "inputs": [
        {
          "internalType": "bytes32",
          "name": "_ccy",
          "type": "bytes32"
        },
        {
          "internalType": "uint256",
          "name": "_maturity",
          "type": "uint256"
        },
        {
          "internalType": "uint256",
          "name": "_limit",
          "type": "uint256"
        }
      ],
      "name": "getBorrowOrderBook",
      "outputs": [
        {
          "internalType": "uint256[]",
          "name": "unitPrices",
          "type": "uint256[]"
        },
        {
          "internalType": "uint256[]",
          "name": "amounts",
          "type": "uint256[]"
        },
        {
          "internalType": "uint256[]",
          "name": "quantities",
          "type": "uint256[]"
        }
      ],
      "stateMutability": "view",
      "type": "function"
    },
    {
      "inputs": [
        {
          "internalType": "bytes32",
          "name": "_ccy",
          "type": "bytes32"
        }
      ],
      "name": "getBorrowUnitPrices",
      "outputs": [
        {
          "internalType": "uint256[]",
          "name": "",
          "type": "uint256[]"
        }
      ],
      "stateMutability": "view",
      "type": "function"
    },
    {
      "inputs": [
        {
          "internalType": "bytes32",
          "name": "_ccy",
          "type": "bytes32"
        },
        {
          "internalType": "uint256",
          "name": "_maturity",
          "type": "uint256"
        }
      ],
      "name": "getFutureValueVault",
      "outputs": [
        {
          "internalType": "address",
          "name": "",
          "type": "address"
        }
      ],
      "stateMutability": "view",
      "type": "function"
    },
    {
      "inputs": [
        {
          "internalType": "bytes32",
          "name": "_ccy",
          "type": "bytes32"
        }
      ],
      "name": "getGenesisDate",
      "outputs": [
        {
          "internalType": "uint256",
          "name": "",
          "type": "uint256"
        }
      ],
      "stateMutability": "view",
      "type": "function"
    },
    {
      "inputs": [
        {
          "internalType": "bytes32",
          "name": "_ccy",
          "type": "bytes32"
        },
        {
          "internalType": "uint256",
          "name": "_maturity",
          "type": "uint256"
        },
        {
          "internalType": "uint256",
          "name": "_limit",
          "type": "uint256"
        }
      ],
      "name": "getLendOrderBook",
      "outputs": [
        {
          "internalType": "uint256[]",
          "name": "unitPrices",
          "type": "uint256[]"
        },
        {
          "internalType": "uint256[]",
          "name": "amounts",
          "type": "uint256[]"
        },
        {
          "internalType": "uint256[]",
          "name": "quantities",
          "type": "uint256[]"
        }
      ],
      "stateMutability": "view",
      "type": "function"
    },
    {
      "inputs": [
        {
          "internalType": "bytes32",
          "name": "_ccy",
          "type": "bytes32"
        }
      ],
      "name": "getLendUnitPrices",
      "outputs": [
        {
          "internalType": "uint256[]",
          "name": "",
          "type": "uint256[]"
        }
      ],
      "stateMutability": "view",
      "type": "function"
    },
    {
      "inputs": [
        {
          "internalType": "bytes32",
          "name": "_ccy",
          "type": "bytes32"
        },
        {
          "internalType": "uint256",
          "name": "_maturity",
          "type": "uint256"
        }
      ],
      "name": "getLendingMarket",
      "outputs": [
        {
          "internalType": "address",
          "name": "",
          "type": "address"
        }
      ],
      "stateMutability": "view",
      "type": "function"
    },
    {
      "inputs": [
        {
          "internalType": "bytes32",
          "name": "_ccy",
          "type": "bytes32"
        }
      ],
      "name": "getLendingMarkets",
      "outputs": [
        {
          "internalType": "address[]",
          "name": "",
          "type": "address[]"
        }
      ],
      "stateMutability": "view",
      "type": "function"
    },
    {
      "inputs": [
        {
          "internalType": "bytes32",
          "name": "_ccy",
          "type": "bytes32"
        }
      ],
      "name": "getMaturities",
      "outputs": [
        {
          "internalType": "uint256[]",
          "name": "",
          "type": "uint256[]"
        }
      ],
      "stateMutability": "view",
      "type": "function"
    },
    {
      "inputs": [
        {
          "internalType": "bytes32",
          "name": "_ccy",
          "type": "bytes32"
        }
      ],
      "name": "getMidUnitPrices",
      "outputs": [
        {
          "internalType": "uint256[]",
          "name": "",
          "type": "uint256[]"
        }
      ],
      "stateMutability": "view",
      "type": "function"
    },
    {
      "inputs": [
        {
          "internalType": "bytes32",
          "name": "_ccy",
          "type": "bytes32"
        },
        {
          "internalType": "address",
          "name": "_user",
          "type": "address"
        }
      ],
      "name": "getTotalPresentValue",
      "outputs": [
        {
          "internalType": "int256",
          "name": "totalPresentValue",
          "type": "int256"
        }
      ],
      "stateMutability": "view",
      "type": "function"
    },
    {
      "inputs": [
        {
          "internalType": "address",
          "name": "_user",
          "type": "address"
        }
      ],
      "name": "getTotalPresentValueInETH",
      "outputs": [
        {
          "internalType": "int256",
          "name": "totalPresentValue",
          "type": "int256"
        }
      ],
      "stateMutability": "view",
      "type": "function"
    },
    {
      "inputs": [
        {
          "internalType": "address",
          "name": "_owner",
          "type": "address"
        },
        {
          "internalType": "address",
          "name": "_resolver",
          "type": "address"
        }
      ],
      "name": "initialize",
      "outputs": [],
      "stateMutability": "nonpayable",
      "type": "function"
    },
    {
      "inputs": [
        {
          "internalType": "bytes32",
          "name": "_ccy",
          "type": "bytes32"
        },
        {
          "internalType": "uint256",
          "name": "_genesisDate",
          "type": "uint256"
        },
        {
          "internalType": "uint256",
          "name": "_compoundFactor",
          "type": "uint256"
        }
      ],
      "name": "initializeLendingMarket",
      "outputs": [],
      "stateMutability": "nonpayable",
      "type": "function"
    },
    {
      "inputs": [
        {
          "internalType": "bytes32",
          "name": "_ccy",
          "type": "bytes32"
        }
      ],
      "name": "isInitializedLendingMarket",
      "outputs": [
        {
          "internalType": "bool",
          "name": "",
          "type": "bool"
        }
      ],
      "stateMutability": "view",
      "type": "function"
    },
    {
      "inputs": [],
      "name": "isResolverCached",
      "outputs": [
        {
          "internalType": "bool",
          "name": "",
          "type": "bool"
        }
      ],
      "stateMutability": "view",
      "type": "function"
    },
    {
      "inputs": [],
      "name": "owner",
      "outputs": [
        {
          "internalType": "address",
          "name": "",
          "type": "address"
        }
      ],
      "stateMutability": "view",
      "type": "function"
    },
    {
      "inputs": [
        {
          "internalType": "bytes32",
          "name": "_ccy",
          "type": "bytes32"
        }
      ],
      "name": "pauseLendingMarkets",
      "outputs": [
        {
          "internalType": "bool",
          "name": "",
          "type": "bool"
        }
      ],
      "stateMutability": "nonpayable",
      "type": "function"
    },
    {
      "inputs": [],
      "name": "renounceOwnership",
      "outputs": [],
      "stateMutability": "nonpayable",
      "type": "function"
    },
    {
      "inputs": [],
      "name": "requiredContracts",
      "outputs": [
        {
          "internalType": "bytes32[]",
          "name": "contracts",
          "type": "bytes32[]"
        }
      ],
      "stateMutability": "pure",
      "type": "function"
    },
    {
      "inputs": [],
      "name": "resolver",
      "outputs": [
        {
          "internalType": "contract IAddressResolver",
          "name": "",
          "type": "address"
        }
      ],
      "stateMutability": "view",
      "type": "function"
    },
    {
      "inputs": [
        {
          "internalType": "bytes32",
          "name": "_ccy",
          "type": "bytes32"
        }
      ],
      "name": "rotateLendingMarkets",
      "outputs": [],
      "stateMutability": "nonpayable",
      "type": "function"
    },
    {
      "inputs": [
        {
          "internalType": "address",
          "name": "newOwner",
          "type": "address"
        }
      ],
      "name": "transferOwnership",
      "outputs": [],
      "stateMutability": "nonpayable",
      "type": "function"
    },
    {
      "inputs": [
        {
          "internalType": "bytes32",
          "name": "_ccy",
          "type": "bytes32"
        }
      ],
      "name": "unpauseLendingMarkets",
      "outputs": [
        {
          "internalType": "bool",
          "name": "",
          "type": "bool"
        }
      ],
      "stateMutability": "nonpayable",
      "type": "function"
    }
  ],
  "transactionHash": "0xebcb3c295bd680b40f2f97782f0d157183a8c8a41978cceebd1d4815b7510304",
  "args": [],
  "numDeployments": 2,
  "solcInputHash": "ca39234284045a01d53a150dc8ba29f5",
  "bytecode": "0x608060405234801561001057600080fd5b5060016000556155fb80620000266000396000f3fe60806040526004361061021a5760003560e01c8063891d596511610123578063b3cb8450116100ab578063e99d05381161006f578063e99d053814610693578063eb092a26146106b3578063f2fde38b146106d3578063faca409b146106f3578063fb54a6b31461071357600080fd5b8063b3cb8450146105fe578063bfd10cf61461061e578063e09976591461063e578063e219baef14610653578063e95dc1831461067357600080fd5b80638da5cb5b116100f25780638da5cb5b14610549578063953dbcaa1461055e5780639d3fc35d1461057e578063a02be3dc1461059e578063a963ad7f146105be57600080fd5b8063891d5965146104d65780638a981745146104f65780638b36d833146105165780638b646f441461053657600080fd5b80633d03b9da116101a657806355aceb4e1161017557806355aceb4e14610419578063715018a61461044657806373bb3b091461045b57806385323e1a14610496578063870cf8ab146104b657600080fd5b80633d03b9da14610397578063448255c7146103b9578063485cc955146103d957806349f2ccbf146103f957600080fd5b80632af64bd3116101ed5780632af64bd3146102c55780632e6c5e67146102ea578063371c672c1461030a578063381ada1f1461031d5780633b22a4741461034a57600080fd5b806304f3bcec1461021f5780630594de6e1461025157806317b72ff41461028057806329985e5a146102ae575b600080fd5b34801561022b57600080fd5b50610234610733565b6040516001600160a01b0390911681526020015b60405180910390f35b34801561025d57600080fd5b5061027161026c366004614b0d565b610754565b60405161024893929190614b74565b34801561028c57600080fd5b506102a061029b366004614bcc565b610813565b604051908152602001610248565b3480156102ba57600080fd5b506102c3610ada565b005b3480156102d157600080fd5b506102da610c87565b6040519015158152602001610248565b3480156102f657600080fd5b506102da610305366004614bfc565b610ded565b6102da610318366004614b0d565b610e0d565b34801561032957600080fd5b5061033d610338366004614bfc565b610eb0565b6040516102489190614c15565b34801561035657600080fd5b5061036a610365366004614c62565b610f25565b604080519687526020870195909552938501929092526060840152608083015260a082015260c001610248565b3480156103a357600080fd5b506103ac611279565b6040516102489190614c7f565b3480156103c557600080fd5b506102da6103d4366004614cc4565b61136d565b3480156103e557600080fd5b506102c36103f4366004614d0d565b611471565b34801561040557600080fd5b506102da610414366004614d3b565b6115f4565b34801561042557600080fd5b50610439610434366004614bfc565b61178e565b6040516102489190614d7f565b34801561045257600080fd5b506102c36118f6565b34801561046757600080fd5b5061047b610476366004614bcc565b611931565b60408051938452602084019290925290820152606001610248565b3480156104a257600080fd5b506102346104b1366004614d92565b611a87565b3480156104c257600080fd5b506102c36104d1366004614c62565b611af0565b3480156104e257600080fd5b506102a06104f1366004614bfc565b611b4e565b34801561050257600080fd5b50610234610511366004614d92565b611b6c565b34801561052257600080fd5b506102c3610531366004614bfc565b611b9e565b6102da610544366004614b0d565b6120b8565b34801561055557600080fd5b506102346121ad565b34801561056a57600080fd5b50610271610579366004614b0d565b6121d5565b34801561058a57600080fd5b5061047b610599366004614bcc565b612234565b3480156105aa57600080fd5b506104396105b9366004614bfc565b612361565b3480156105ca57600080fd5b506105de6105d9366004614bfc565b6124c2565b604080516001600160a01b03938416815292909116602083015201610248565b34801561060a57600080fd5b506102da610619366004614bfc565b612a18565b34801561062a57600080fd5b50610439610639366004614bfc565b612b16565b34801561064a57600080fd5b506103ac612c77565b34801561065f57600080fd5b506102c361066e366004614b0d565b612cba565b34801561067f57600080fd5b506102c361068e366004614bcc565b612e18565b34801561069f57600080fd5b506102da6106ae366004614bfc565b6130bb565b3480156106bf57600080fd5b506104396106ce366004614bfc565b6131b0565b3480156106df57600080fd5b506102c36106ee366004614c62565b613311565b3480156106ff57600080fd5b506102da61070e366004614cc4565b6133b1565b34801561071f57600080fd5b506102a061072e366004614c62565b61343b565b60006000805160206155a68339815191525b546001600160a01b0316919050565b60608060606000610763613542565b600088815260029190910160209081526040808320898452909152908190205490516325fb168b60e11b8152600481018790526001600160a01b0390911691508190634bf62d16906024015b60006040518083038186803b1580156107c757600080fd5b505afa1580156107db573d6000803e3d6000fd5b505050506040513d6000823e601f3d908101601f191682016040526108039190810190614e65565b9350935093505093509350939050565b6000805b61081f613542565b60008581526020919091526040902054811015610987576000610840613542565b60008681526020919091526040902080548390811061086157610861614eed565b60009182526020822001546001600160a01b0316915080610880613542565b6000888152600191909101602090815260408083206001600160a01b03878116855292529182902054915163070da1af60e11b81528882166004820152911690630e1b435e90602401604080518083038186803b1580156108e057600080fd5b505afa1580156108f4573d6000803e3d6000fd5b505050506040513d601f19601f820116820180604052508101906109189190614f03565b9150915061096587828461092a613542565b60008c81526020919091526040902080548990811061094b5761094b614eed565b6000918252602090912001546001600160a01b0316613566565b61096f9086614f3d565b9450505050808061097f90614f7e565b915050610817565b506000610992613864565b60405163c3e7a7ad60e01b8152600481018690526001600160a01b038581166024830152919091169063c3e7a7ad9060440160206040518083038186803b1580156109dc57600080fd5b505afa1580156109f0573d6000803e3d6000fd5b505050506040513d601f19601f82011682018060405250810190610a149190614f99565b9050610ac881610a22613542565b6000878152602091909152604081208054909190610a4257610a42614eed565b60009182526020918290200154604080516371613c2d60e01b815290516001600160a01b03909216926371613c2d92600480840193829003018186803b158015610a8b57600080fd5b505afa158015610a9f573d6000803e3d6000fd5b505050506040513d601f19601f82011682018060405250810190610ac39190614f99565b613888565b610ad29083614f3d565b949350505050565b6000610ae4611279565b905060005b8151811015610c83576000828281518110610b0657610b06614eed565b602002602001015190506000610b276000805160206155a683398151915290565b54604080517f5265736f6c766572206d697373696e67207461726765743a200000000000000060208201526039808201869052825180830390910181526059820192839052636795dbcd60e01b9092526001600160a01b0390921691636795dbcd91610b9891869190605d01614fff565b60206040518083038186803b158015610bb057600080fd5b505afa158015610bc4573d6000803e3d6000fd5b505050506040513d601f19601f82011682018060405250810190610be89190615018565b60008381527f4abde63c3e81aefa5764b017968bc473e83e093d7e1a10247d19e0a3e4124019602090815260409182902080546001600160a01b0319166001600160a01b03851690811790915582518681529182015281519293507f88a93678a3692f6789d9546fc621bf7234b101ddb7d4fe479455112831b8aa68929081900390910190a150508080610c7b90614f7e565b915050610ae9565b5050565b600080610c92611279565b905060005b8151811015610de4576000828281518110610cb457610cb4614eed565b60200260200101519050610cd36000805160206155a683398151915290565b600082815260019190910160205260409020546001600160a01b03166000805160206155a6833981519152546040516321f8a72160e01b8152600481018490526001600160a01b03909116906321f8a7219060240160206040518083038186803b158015610d4057600080fd5b505afa158015610d54573d6000803e3d6000fd5b505050506040513d601f19601f82011682018060405250810190610d789190615018565b6001600160a01b0316141580610dc2575060008181527f4abde63c3e81aefa5764b017968bc473e83e093d7e1a10247d19e0a3e412401960205260409020546001600160a01b0316155b15610dd1576000935050505090565b5080610ddc81614f7e565b915050610c97565b50600191505090565b6000610df7613542565b6000928352600301602052506040902054151590565b600060026000541415610e3b5760405162461bcd60e51b8152600401610e3290615035565b60405180910390fd5b6002600090815584908490610e4e613542565b6000848152600291909101602090815260408083208584529091529020546001600160a01b03161415610e935760405162461bcd60e51b8152600401610e329061506c565b610ea18686600034886138a8565b60016000559695505050505050565b6060610eba613542565b6000838152602091825260409081902080548251818502810185019093528083529192909190830182828015610f1957602002820191906000526020600020905b81546001600160a01b03168152600190910190602001808311610efb575b50505050509050919050565b6000806000806000806000610f38613542565b6001600160a01b03891660009081526004919091016020526040812091505b610f6082613e31565b81101561126e576000610f738383613e3b565b60408051600680825260e08201909252919250600091906020820160c080368337019050509050610fa4828c611931565b83600081518110610fb757610fb7614eed565b6020026020010184600181518110610fd157610fd1614eed565b6020026020010185600281518110610feb57610feb614eed565b602090810291909101019290925291905252611007828c612234565b8360038151811061101a5761101a614eed565b602002602001018460048151811061103457611034614eed565b602002602001018560058151811061104e5761104e614eed565b602090810291909101019290925291905252600061106c838d610813565b9050600081126110a657808260018151811061108a5761108a614eed565b6020026020010181815161109e9190615096565b9052506110da565b6110af816150ae565b826004815181106110c2576110c2614eed565b602002602001018181516110d69190615096565b9052505b60006110e4613e47565b6001600160a01b031663939fe62285856040518363ffffffff1660e01b81526004016111119291906150cb565b60006040518083038186803b15801561112957600080fd5b505afa15801561113d573d6000803e3d6000fd5b505050506040513d6000823e601f3d908101601f1916820160405261116591908101906150e4565b90508060008151811061117a5761117a614eed565b60200260200101518c61118d9190615096565b9b50806001815181106111a2576111a2614eed565b60200260200101518b6111b59190615096565b9a50806002815181106111ca576111ca614eed565b60200260200101518a6111dd9190615096565b9950806003815181106111f2576111f2614eed565b6020026020010151896112059190615096565b98508060048151811061121a5761121a614eed565b60200260200101518861122d9190615096565b97508060058151811061124257611242614eed565b6020026020010151876112559190615096565b965050505050808061126690614f7e565b915050610f57565b505091939550919395565b60408051600480825260a0820190925260609160208201608080368337019050509050742132b0b1b7b7283937bc3ca1b7b73a3937b63632b960591b816000815181106112c8576112c8614eed565b6020026020010181815250507121bab93932b731bca1b7b73a3937b63632b960711b816001815181106112fd576112fd614eed565b6020026020010181815250507011d95b995cda5cd5985b1d5955985d5b1d607a1b8160028151811061133157611331614eed565b60200260200101818152505069151bdad95b95985d5b1d60b21b8160038151811061135e5761135e614eed565b60200260200101818152505090565b6000600260005414156113925760405162461bcd60e51b8152600401610e3290615035565b60026000908155869086906113a5613542565b6000848152600291909101602090815260408083208584529091529020546001600160a01b031614156113ea5760405162461bcd60e51b8152600401610e329061506c565b6113f2613e67565b6001600160a01b03166396994e37338a886040518463ffffffff1660e01b815260040161142193929190615119565b600060405180830381600087803b15801561143b57600080fd5b505af115801561144f573d6000803e3d6000fd5b5050505061146088888888886138a8565b600160005598975050505050505050565b600154610100900460ff161580801561148e57506001805460ff16105b806114a75750303b1580156114a757506001805460ff16145b61150a5760405162461bcd60e51b815260206004820152602e60248201527f496e697469616c697a61626c653a20636f6e747261637420697320616c72656160448201526d191e481a5b9a5d1a585b1a5e995960921b6064820152608401610e32565b6001805460ff191681179055801561152c576001805461ff0019166101001790555b6000611536613e7f565b6001600160a01b031614156115985760405162461bcd60e51b815260206004820152602260248201527f4d7573742062652063616c6c65642066726f6d2070726f787920636f6e74726160448201526118dd60f21b6064820152608401610e32565b6115a183613ea7565b6115aa82613f18565b80156115ef576001805461ff00191681556040519081527f7f26b83ff96e1f2b6a682f133852f6798a09c465da95921460cefb38474024989060200160405180910390a15b505050565b6000600260005414156116195760405162461bcd60e51b8152600401610e3290615035565b600260009081558490849061162c613542565b6000848152600291909101602090815260408083208584529091529020546001600160a01b031614156116715760405162461bcd60e51b8152600401610e329061506c565b600061167b613542565b60008881526002919091016020908152604080832089845290915280822054905163504b89bd60e01b815233600482015265ffffffffffff881660248201526001600160a01b03909116925081908190849063504b89bd90604401606060405180830381600087803b1580156116f057600080fd5b505af1158015611704573d6000803e3d6000fd5b505050506040513d601f19601f82011682018060405250810190611728919061513a565b92509250925089336001600160a01b03167f882188071c39e32cd4ffd0cef7a006a29eaae9e4018d72cef313a0f4686cdb918a868d87876040516117709594939291906151a9565b60405180910390a36001965050505050505060016000559392505050565b6060600061179a613542565b6000848152602091909152604090205467ffffffffffffffff8111156117c2576117c2614db4565b6040519080825280602002602001820160405280156117eb578160200160208202803683370190505b50905060005b6117f9613542565b600085815260209190915260409020548110156118ef57600061181a613542565b60008681526020919091526040902080548390811061183b5761183b614eed565b6000918252602091829020015460408051631b3508b760e01b815290516001600160a01b0390921693508392631b3508b792600480840193829003018186803b15801561188757600080fd5b505afa15801561189b573d6000803e3d6000fd5b505050506040513d601f19601f820116820180604052508101906118bf9190614f99565b8383815181106118d1576118d1614eed565b602090810291909101015250806118e781614f7e565b9150506117f1565b5092915050565b336118ff6121ad565b6001600160a01b0316146119255760405162461bcd60e51b8152600401610e32906151e1565b61192f6000613ea7565b565b60008080805b61193f613542565b60008781526020919091526040902054811015611a7f57600080600080611964613542565b60008b81526020919091526040902080548690811061198557611985614eed565b6000918252602090912001546040516339f7dda360e21b81526001600160a01b038b811660048301529091169063e7df768c9060240160806040518083038186803b1580156119d357600080fd5b505afa1580156119e7573d6000803e3d6000fd5b505050506040513d601f19601f82011682018060405250810190611a0b9190615216565b93509350935093508388611a1f9190615096565b9750611a508a8284611a2f613542565b60008f81526020919091526040902080548a90811061094b5761094b614eed565b611a5a9088615096565b9650611a668387615096565b9550505050508080611a7790614f7e565b915050611937565b509250925092565b6000611a91613542565b60008481526001919091016020526040812090611aac613542565b6000868152600291909101602090815260408083208784528252808320546001600160a01b0390811685529184019490945291909201909120541690505b92915050565b6000611afa613542565b6001600160a01b03831660009081526004919091016020526040812091505b611b2282613e31565b8110156115ef57611b3c611b368383613e3b565b84612e18565b80611b4681614f7e565b915050611b19565b6000611b58613542565b600092835260030160205250604090205490565b6000611b76613542565b600093845260020160209081526040808520938552929052509020546001600160a01b031690565b60026000541415611bc15760405162461bcd60e51b8152600401610e3290615035565b600260009081558190611bd2613542565b6000838152602091909152604090205411611c485760405162461bcd60e51b815260206004820152603060248201527f4e6f206c656e64696e67206d61726b65747320657869737420666f722061207360448201526f706563696669632063757272656e637960801b6064820152608401610e32565b6000611c52613542565b600084815260209190915260408120805490925082908290611c7657611c76614eed565b600091825260208220015483546001600160a01b03909116925083906001908110611ca357611ca3614eed565b600091825260208220015484546001600160a01b039091169250611d67908590611ccf9060019061524c565b81548110611cdf57611cdf614eed565b600091825260209182902001546040805163e16695b560e01b815290516001600160a01b039092169263e16695b592600480840193829003018186803b158015611d2857600080fd5b505afa158015611d3c573d6000803e3d6000fd5b505050506040513d601f19601f82011682018060405250810190611d609190614f99565b6003613fad565b60405163baa2675760e01b8152600481018290529091506000906001600160a01b0385169063baa2675790602401602060405180830381600087803b158015611daf57600080fd5b505af1158015611dc3573d6000803e3d6000fd5b505050506040513d601f19601f82011682018060405250810190611de79190614f99565b905060005b8554811015611e965785546000908290611e089060019061524c565b14611e435786611e19836001615096565b81548110611e2957611e29614eed565b6000918252602090912001546001600160a01b0316611e45565b855b905080878381548110611e5a57611e5a614eed565b600091825260209091200180546001600160a01b0319166001600160a01b03929092169190911790555080611e8e81614f7e565b915050611dec565b50611e9f613864565b6001600160a01b031663b95a33ab8883866001600160a01b031663e16695b56040518163ffffffff1660e01b815260040160206040518083038186803b158015611ee857600080fd5b505afa158015611efc573d6000803e3d6000fd5b505050506040513d601f19601f82011682018060405250810190611f209190614f99565b876001600160a01b03166371613c2d6040518163ffffffff1660e01b815260040160206040518083038186803b158015611f5957600080fd5b505afa158015611f6d573d6000803e3d6000fd5b505050506040513d601f19601f82011682018060405250810190611f919190614f99565b6040516001600160e01b031960e087901b1681526004810194909452602484019290925260448301526064820152608401600060405180830381600087803b158015611fdc57600080fd5b505af1158015611ff0573d6000803e3d6000fd5b5050505083611ffd613542565b600089815260029190910160209081526040808320868452909152902080546001600160a01b0319166001600160a01b0392909216919091179055612040613542565b60008881526002919091016020908152604080832084845282529182902080546001600160a01b031916905581518981529081018390529081018390527f98cbd76ce00c88aafa668f8d8ee624506fdfd22fc473f74ea1b75addf544c2209060600160405180910390a1505060016000555050505050565b6000600260005414156120dd5760405162461bcd60e51b8152600401610e3290615035565b60026000908155849084906120f0613542565b6000848152600291909101602090815260408083208584529091529020546001600160a01b031614156121355760405162461bcd60e51b8152600401610e329061506c565b61213d613e67565b6001600160a01b03166396994e37343389346040518563ffffffff1660e01b815260040161216d93929190615119565b6000604051808303818588803b15801561218657600080fd5b505af115801561219a573d6000803e3d6000fd5b5050505050610ea18686600034886138a8565b60007f9acda75aebd150dd434541a4747a6dc606f4f1a59662477e67daf1fc0bf9e0aa610745565b606080606060006121e4613542565b6000888152600291909101602090815260408083208984529091529081902054905163d866d35560e01b8152600481018790526001600160a01b039091169150819063d866d355906024016107af565b60008080805b612242613542565b60008781526020919091526040902054811015611a7f57600080600080612267613542565b60008b81526020919091526040902080548690811061228857612288614eed565b600091825260209091200154604051631c7b209b60e31b81526001600160a01b038b811660048301529091169063e3d904d89060240160806040518083038186803b1580156122d657600080fd5b505afa1580156122ea573d6000803e3d6000fd5b505050506040513d601f19601f8201168201806040525081019061230e9190615216565b935093509350935083886123229190615096565b97506123328a8284611a2f613542565b61233c9088615096565b96506123488387615096565b955050505050808061235990614f7e565b91505061223a565b6060600061236d613542565b6000848152602091909152604090205467ffffffffffffffff81111561239557612395614db4565b6040519080825280602002602001820160405280156123be578160200160208202803683370190505b50905060005b6123cc613542565b600085815260209190915260409020548110156118ef5760006123ed613542565b60008681526020919091526040902080548390811061240e5761240e614eed565b600091825260209182902001546040805163e16695b560e01b815290516001600160a01b039092169350839263e16695b592600480840193829003018186803b15801561245a57600080fd5b505afa15801561246e573d6000803e3d6000fd5b505050506040513d601f19601f820116820180604052508101906124929190614f99565b8383815181106124a4576124a4614eed565b602090810291909101015250806124ba81614f7e565b9150506123c4565b600080336124ce6121ad565b6001600160a01b0316146124f45760405162461bcd60e51b8152600401610e32906151e1565b6124fc613864565b6001600160a01b0316630cf7505d846040518263ffffffff1660e01b815260040161252991815260200190565b60206040518083038186803b15801561254157600080fd5b505afa158015612555573d6000803e3d6000fd5b505050506040513d601f19601f820116820180604052508101906125799190615263565b6125e45760405162461bcd60e51b815260206004820152603660248201527f4c656e64696e67206d61726b6574206861736e2774206265656e20696e697469604482015275616c697a656420696e207468652063757272656e637960501b6064820152608401610e32565b6125ec613e47565b6001600160a01b031663d4d4f6ce846040518263ffffffff1660e01b815260040161261991815260200190565b60206040518083038186803b15801561263157600080fd5b505afa158015612645573d6000803e3d6000fd5b505050506040513d601f19601f820116820180604052508101906126699190615263565b6126a95760405162461bcd60e51b81526020600482015260116024820152704e4f4e20535550504f525445442043435960781b6044820152606401610e32565b60006126b3613542565b6000858152600391909101602052604081205491506126d0613542565b6000868152602091909152604090205411156127b5576126ee613542565b6000858152602091909152604090206001612707613542565b60008781526020919091526040902054612721919061524c565b8154811061273157612731614eed565b600091825260209182902001546040805163e16695b560e01b815290516001600160a01b039092169263e16695b592600480840193829003018186803b15801561277a57600080fd5b505afa15801561278e573d6000803e3d6000fd5b505050506040513d601f19601f820116820180604052508101906127b29190614f99565b90505b60006127c2826003613fad565b90506127cc614084565b6001600160a01b0316634672758f866127e3613542565b60008981526003919091016020526040908190205490516001600160e01b031960e085901b1681526004810192909252602482015260448101849052606401602060405180830381600087803b15801561283c57600080fd5b505af1158015612850573d6000803e3d6000fd5b505050506040513d601f19601f820116820180604052508101906128749190615018565b935061287e614084565b6001600160a01b031663a97c4b536040518163ffffffff1660e01b8152600401602060405180830381600087803b1580156128b857600080fd5b505af11580156128cc573d6000803e3d6000fd5b505050506040513d601f19601f820116820180604052508101906128f09190615018565b92506128fa613542565b600086815260209182526040812080546001810182559082529190200180546001600160a01b0319166001600160a01b03861617905583612939613542565b600087815260029190910160209081526040808320858452909152902080546001600160a01b0319166001600160a01b03929092169190911790558261297d613542565b6000878152600191909101602090815260408083206001600160a01b0389811680865291909352922080546001600160a01b0319169390911692909217909155857f5f1af77fb16a8d70e13dc1d6eef0f7b3f37103d1bfc348e1e57469c718646543856129e8613542565b60008a8152602091909152604090819020549051612a099291908790615119565b60405180910390a35050915091565b600033612a236121ad565b6001600160a01b031614612a495760405162461bcd60e51b8152600401610e32906151e1565b60005b612a54613542565b60008481526020919091526040902054811015612b0d576000612a75613542565b600085815260209190915260409020805483908110612a9657612a96614eed565b60009182526020822001546040805163280dce3760e21b815290516001600160a01b039092169350839263a03738dc9260048084019382900301818387803b158015612ae157600080fd5b505af1158015612af5573d6000803e3d6000fd5b50505050508080612b0590614f7e565b915050612a4c565b50600192915050565b60606000612b22613542565b6000848152602091909152604090205467ffffffffffffffff811115612b4a57612b4a614db4565b604051908082528060200260200182016040528015612b73578160200160208202803683370190505b50905060005b612b81613542565b600085815260209190915260409020548110156118ef576000612ba2613542565b600086815260209190915260409020805483908110612bc357612bc3614eed565b60009182526020918290200154604080516371613c2d60e01b815290516001600160a01b03909216935083926371613c2d92600480840193829003018186803b158015612c0f57600080fd5b505afa158015612c23573d6000803e3d6000fd5b505050506040513d601f19601f82011682018060405250810190612c479190614f99565b838381518110612c5957612c59614eed565b60209081029190910101525080612c6f81614f7e565b915050612b79565b6040805160018082528183019092526060916020808301908036833701905050905069151bdad95b95985d5b1d60b21b8160008151811061135e5761135e614eed565b33612cc36121ad565b6001600160a01b031614612ce95760405162461bcd60e51b8152600401610e32906151e1565b60008111612d395760405162461bcd60e51b815260206004820152601760248201527f496e76616c696420636f6d706f756e6420666163746f720000000000000000006044820152606401610e32565b612d4283610ded565b15612d855760405162461bcd60e51b8152602060048201526013602482015272105b1c9958591e481a5b9a5d1a585b1a5e9959606a1b6044820152606401610e32565b612d8d613864565b60405163dc9715c560e01b81526004810185905260126024820152604481018390526001600160a01b03919091169063dc9715c590606401600060405180830381600087803b158015612ddf57600080fd5b505af1158015612df3573d6000803e3d6000fd5b5050505081612e00613542565b60009485526003016020526040909320929092555050565b6000612e22613542565b6001600160a01b0383166000908152600491909101602052604090209050612e4a81846140a7565b612e5357505050565b6000806000612e6186612361565b905060005b8151811015612fde576000612e79613542565b60020160008981526020019081526020016000206000848481518110612ea157612ea1614eed565b6020026020010151815260200190815260200160002060009054906101000a90046001600160a01b031690506000612f2489858581518110612ee557612ee5614eed565b6020026020010151612ef5613542565b60008d8152600191909101602090815260408083206001600160a01b03808a168552925290912054168b6140bf565b9050600080612f4d8b878781518110612f3f57612f3f614eed565b60200260200101518c6141ff565b9092509050612f5c8289615096565b97508015612fbc57612fb98b878781518110612f7a57612f7a614eed565b6020026020010151612f8a613542565b60008f8152600191909101602090815260408083206001600160a01b03808c168552925290912054168d6140bf565b92505b8215612fc757600196505b505050508080612fd690614f7e565b915050612e66565b5082158015612feb575081155b801561307e5750612ffa613864565b60405163386320d360e11b8152600481018890526001600160a01b03878116602483015291909116906370c641a69060440160206040518083038186803b15801561304457600080fd5b505afa158015613058573d6000803e3d6000fd5b505050506040513d601f19601f8201168201806040525081019061307c9190614f99565b155b156130b3576130b18661308f613542565b6001600160a01b03881660009081526004919091016020526040902090614591565b505b505050505050565b6000336130c66121ad565b6001600160a01b0316146130ec5760405162461bcd60e51b8152600401610e32906151e1565b60005b6130f7613542565b60008481526020919091526040902054811015612b0d576000613118613542565b60008581526020919091526040902080548390811061313957613139614eed565b600091825260208220015460408051630b0863e760e11b815290516001600160a01b0390921693508392631610c7ce9260048084019382900301818387803b15801561318457600080fd5b505af1158015613198573d6000803e3d6000fd5b505050505080806131a890614f7e565b9150506130ef565b606060006131bc613542565b6000848152602091909152604090205467ffffffffffffffff8111156131e4576131e4614db4565b60405190808252806020026020018201604052801561320d578160200160208202803683370190505b50905060005b61321b613542565b600085815260209190915260409020548110156118ef57600061323c613542565b60008681526020919091526040902080548390811061325d5761325d614eed565b6000918252602091829020015460408051632f05aa6d60e11b815290516001600160a01b0390921693508392635e0b54da92600480840193829003018186803b1580156132a957600080fd5b505afa1580156132bd573d6000803e3d6000fd5b505050506040513d601f19601f820116820180604052508101906132e19190614f99565b8383815181106132f3576132f3614eed565b6020908102919091010152508061330981614f7e565b915050613213565b3361331a6121ad565b6001600160a01b0316146133405760405162461bcd60e51b8152600401610e32906151e1565b6001600160a01b0381166133a55760405162461bcd60e51b815260206004820152602660248201527f4f776e61626c653a206e6577206f776e657220697320746865207a65726f206160448201526564647265737360d01b6064820152608401610e32565b6133ae81613ea7565b50565b6000600260005414156133d65760405162461bcd60e51b8152600401610e3290615035565b60026000908155869086906133e9613542565b6000848152600291909101602090815260408083208584529091529020546001600160a01b0316141561342e5760405162461bcd60e51b8152600401610e329061506c565b61146088888888886138a8565b600080613446613542565b6001600160a01b03841660009081526004919091016020526040812091505b61346e82613e31565b81101561353b5760006134818383613e3b565b9050600061348f8287610813565b9050613499613e47565b6040516303a0a22f60e41b815260048101849052602481018390526001600160a01b039190911690633a0a22f09060440160206040518083038186803b1580156134e257600080fd5b505afa1580156134f6573d6000803e3d6000fd5b505050506040513d601f19601f8201168201806040525081019061351a9190614f99565b6135249086614f3d565b94505050808061353390614f7e565b915050613465565b5050919050565b7f8041b8421ebd495cc61f38c788c9eb100daccf9bd36aa0bb920b7a15b2e0496590565b600080613571613864565b6040516302b6878160e11b815260048101889052602481018790526001600160a01b03919091169063056d0f029060440160806040518083038186803b1580156135ba57600080fd5b505afa1580156135ce573d6000803e3d6000fd5b505050506040513d601f19601f820116820180604052508101906135f29190615285565b6020015190506000808261367b57859150846001600160a01b03166371613c2d6040518163ffffffff1660e01b815260040160206040518083038186803b15801561363c57600080fd5b505afa158015613650573d6000803e3d6000fd5b505050506040513d601f19601f820116820180604052508101906136749190614f99565b905061384e565b6000613685613864565b604051630c30971960e11b8152600481018b9052602481018a9052604481018990526001600160a01b0391909116906318612e329060640160206040518083038186803b1580156136d557600080fd5b505afa1580156136e9573d6000803e3d6000fd5b505050506040513d601f19601f8201168201806040525081019061370d9190614f99565b9050613717613864565b604051637636e94160e01b8152600481018b905260006024820152604481018390526001600160a01b039190911690637636e9419060640160206040518083038186803b15801561376757600080fd5b505afa15801561377b573d6000803e3d6000fd5b505050506040513d601f19601f8201168201806040525081019061379f9190614f99565b92506137a9613542565b60008a81526020919091526040812080549091906137c9576137c9614eed565b60009182526020918290200154604080516371613c2d60e01b815290516001600160a01b03909216926371613c2d92600480840193829003018186803b15801561381257600080fd5b505afa158015613826573d6000803e3d6000fd5b505050506040513d601f19601f8201168201806040525081019061384a9190614f99565b9150505b6138588282613888565b98975050505050505050565b60006138837011d95b995cda5cd5985b1d5955985d5b1d607a1b61459d565b905090565b600061271061389783856152eb565b6138a19190615386565b9392505050565b60008083116138ea5760405162461bcd60e51b815260206004820152600e60248201526d125b9d985b1a5908185b5bdd5b9d60921b6044820152606401610e32565b6138f2613e67565b6001600160a01b03166328ff7a42338886886040518563ffffffff1660e01b815260040161392394939291906153b4565b60206040518083038186803b15801561393b57600080fd5b505afa15801561394f573d6000803e3d6000fd5b505050506040513d601f19601f820116820180604052508101906139739190615263565b6139b75760405162461bcd60e51b8152602060048201526015602482015274139bdd08195b9bdd59da0818dbdb1b185d195c985b605a1b6044820152606401610e32565b60006139c1613542565b600088815260019190910160205260408120906139dc613542565b60008a8152600291909101602090815260408083208b84528252808320546001600160a01b039081168552918401949094529190920190912054169050613a25878783336140bf565b506000613a338888336141ff565b509050600080613a41613542565b60008b8152600291909101602090815260408083208c845290915290819020549051634eee449560e01b81526001600160a01b0390911690634eee449590613a93908b9033908c908c906004016153df565b6040805180830381600087803b158015613aac57600080fd5b505af1158015613ac0573d6000803e3d6000fd5b505050506040513d601f19601f82011682018060405250810190613ae49190614f03565b915091508160001480613af75750600081115b15613b0a57613b07600184615096565b92505b6005831115613b545760405162461bcd60e51b8152602060048201526016602482015275546f6f206d616e7920616374697665206f726465727360501b6044820152606401610e32565b81613ba557888a336001600160a01b03167f3a665a917b140525f0275d43b0b2584ef6a9de932462558cd901a657b61126408b8b8b604051613b9893929190615411565b60405180910390a4613df9565b6001886001811115613bb957613bb9615171565b1415613cb957613bc7613e67565b6001600160a01b031663aec9455c338c613be1858c61524c565b6040518463ffffffff1660e01b8152600401613bff93929190615119565b600060405180830381600087803b158015613c1957600080fd5b505af1158015613c2d573d6000803e3d6000fd5b505060405163a46971ad60e01b81526001600160a01b038716925063a46971ad9150613c6190339086908e90600401615119565b602060405180830381600087803b158015613c7b57600080fd5b505af1158015613c8f573d6000803e3d6000fd5b505050506040513d601f19601f82011682018060405250810190613cb39190615263565b50613daf565b613cc1613e67565b6001600160a01b0316631189abda338c613cdb858c61524c565b6040518463ffffffff1660e01b8152600401613cf993929190615119565b600060405180830381600087803b158015613d1357600080fd5b505af1158015613d27573d6000803e3d6000fd5b5050604051630424172f60e11b81526001600160a01b03871692506308482e5e9150613d5b90339086908e90600401615119565b602060405180830381600087803b158015613d7557600080fd5b505af1158015613d89573d6000803e3d6000fd5b505050506040513d601f19601f82011682018060405250810190613dad9190615263565b505b888a336001600160a01b03167f5af4e2baa5d844d0439bc0122be7cf9d47b6680937eaabce58bd1ca2f16486ae8b8b8b88604051613df09493929190615430565b60405180910390a45b613e1e8a613e05613542565b336000908152600491909101602052604090209061462e565b5060019450505050505b95945050505050565b6000611aea825490565b60006138a1838361463a565b60006138837121bab93932b731bca1b7b73a3937b63632b960711b61459d565b600061388369151bdad95b95985d5b1d60b21b61459d565b60007f360894a13ba1a3210667c828492db98dca3e2076cc3735a920a3ca505d382bbc610745565b7f9acda75aebd150dd434541a4747a6dc606f4f1a59662477e67daf1fc0bf9e0aa80546001600160a01b038381166001600160a01b0319831681179093556040519116919082907f8be0079c531659141344cd1fd0a4f28419497f9722a3daafe3b4186f6b6457e090600090a35050565b6000805160206155a6833981519152546001600160a01b031615613f7e5760405162461bcd60e51b815260206004820152601b60248201527f7265736f6c766572207265676973746572656420616c726561647900000000006044820152606401610e32565b6000805160206155a683398151915280546001600160a01b0319166001600160a01b0392909216919091179055565b6000808080613fc7613fc26201518088615459565b614664565b91945092509050613fd88583615096565b9150600c613fe760018461524c565b613ff19190615459565b613ffb9084615096565b9250600c61400a60018461524c565b614014919061546d565b61401f906001615096565b9150600061402d84846147d8565b90508082111561403b578091505b614048620151808861546d565b6201518061405786868661485e565b6140619190615481565b61406b9190615096565b94508685101561407a57600080fd5b5050505092915050565b6000613883742132b0b1b7b7283937bc3ca1b7b73a3937b63632b960591b61459d565b600081815260018301602052604081205415156138a1565b60405163ae100e6d60e01b81526001600160a01b0382811660048301526024820185905260009182918291829187169063ae100e6d90604401606060405180830381600087803b15801561411257600080fd5b505af1158015614126573d6000803e3d6000fd5b505050506040513d601f19601f8201168201806040525081019061414a91906154a0565b925092509250826000146141f457614160613864565b604051634ab34b2b60e11b8152600481018a90526001600160a01b03878116602483015260448201849052606482018690529190911690639566965690608401602060405180830381600087803b1580156141ba57600080fd5b505af11580156141ce573d6000803e3d6000fd5b505050506040513d601f19601f820116820180604052508101906141f29190615263565b505b509695505050505050565b600080600061420e8686611a87565b90506000806000806000806000614223613542565b60008e8152600291909101602090815260408083208f845290915290819020549051630516d8c960e11b81526001600160a01b038d8116600483015290911690630a2db1929060240160e060405180830381600087803b15801561428657600080fd5b505af115801561429a573d6000803e3d6000fd5b505050506040513d601f19601f820116820180604052508101906142be91906154ce565b96509650965096509650965096508183111561434b576142dc613e67565b6001600160a01b0316631189abda8c8f6142f6868861524c565b6040518463ffffffff1660e01b815260040161431493929190615119565b600060405180830381600087803b15801561432e57600080fd5b505af1158015614342573d6000803e3d6000fd5b505050506143c6565b818310156143c65761435b613e67565b6001600160a01b031663aec9455c8c8f614375878761524c565b6040518463ffffffff1660e01b815260040161439393929190615119565b600060405180830381600087803b1580156143ad57600080fd5b505af11580156143c1573d6000803e3d6000fd5b505050505b841561449657604051630424172f60e11b81526001600160a01b038916906308482e5e906143fc908e9089908690600401615119565b602060405180830381600087803b15801561441657600080fd5b505af115801561442a573d6000803e3d6000fd5b505050506040513d601f19601f8201168201806040525081019061444e9190615263565b50808d336001600160a01b03167f3dd6192fffa4612e795f196dc6367cfa6494cbe70d7cff3a039ebbbc4acb262e60008960405161448d929190615522565b60405180910390a45b83156145665760405163a46971ad60e01b81526001600160a01b0389169063a46971ad906144cc908e9088908690600401615119565b602060405180830381600087803b1580156144e657600080fd5b505af11580156144fa573d6000803e3d6000fd5b505050506040513d601f19601f8201168201806040525081019061451e9190615263565b50808d336001600160a01b03167f3dd6192fffa4612e795f196dc6367cfa6494cbe70d7cff3a039ebbbc4acb262e60018860405161455d929190615522565b60405180910390a45b60006145728587615096565b11985061457f8688615096565b99505050505050505050935093915050565b60006138a1838361498f565b60008181527f4abde63c3e81aefa5764b017968bc473e83e093d7e1a10247d19e0a3e41240196020908152604080832054815170026b4b9b9b4b7339030b2323932b9b99d1607d1b9381019390935260318084018690528251808503909101815260519093019091526001600160a01b031690816118ef5760405162461bcd60e51b8152600401610e32919061553d565b60006138a18383614a82565b600082600001828154811061465157614651614eed565b9060005260206000200154905092915050565b60008080838162253d8c61467b8362010bd9614f3d565b6146859190614f3d565b9050600062023ab16146988360046152eb565b6146a29190615386565b905060046146b38262023ab16152eb565b6146be906003614f3d565b6146c89190615386565b6146d29083615550565b9150600062164b096146e5846001614f3d565b6146f190610fa06152eb565b6146fb9190615386565b9050600461470b826105b56152eb565b6147159190615386565b61471f9084615550565b61472a90601f614f3d565b9250600061098f61473c8560506152eb565b6147469190615386565b9050600060506147588361098f6152eb565b6147629190615386565b61476c9086615550565b9050614779600b83615386565b945061478685600c6152eb565b614791836002614f3d565b61479b9190615550565b915084836147aa603187615550565b6147b59060646152eb565b6147bf9190614f3d565b6147c99190614f3d565b9a919950975095505050505050565b600081600114806147e95750816003145b806147f45750816005145b806147ff5750816007145b8061480a5750816008145b80614815575081600a145b80614820575081600c145b1561482d5750601f611aea565b8160021461483d5750601e611aea565b61484683614ad1565b61485157601c614854565b601d5b60ff169392505050565b60006107b284101561486f57600080fd5b838383600062253d8c60046064600c614889600e88615550565b6148939190615386565b61489f88611324614f3d565b6148a99190614f3d565b6148b39190615386565b6148be9060036152eb565b6148c89190615386565b600c806148d6600e88615550565b6148e09190615386565b6148eb90600c6152eb565b6148f6600288615550565b6149009190615550565b61490c9061016f6152eb565b6149169190615386565b6004600c614925600e89615550565b61492f9190615386565b61493b896112c0614f3d565b6149459190614f3d565b614951906105b56152eb565b61495b9190615386565b614967617d4b87615550565b6149719190614f3d565b61497b9190614f3d565b6149859190615550565b6138589190615550565b60008181526001830160205260408120548015614a785760006149b360018361524c565b85549091506000906149c79060019061524c565b9050818114614a2c5760008660000182815481106149e7576149e7614eed565b9060005260206000200154905080876000018481548110614a0a57614a0a614eed565b6000918252602080832090910192909255918252600188019052604090208390555b8554869080614a3d57614a3d61558f565b600190038181906000526020600020016000905590558560010160008681526020019081526020016000206000905560019350505050611aea565b6000915050611aea565b6000818152600183016020526040812054614ac957508154600181810184556000848152602080822090930184905584548482528286019093526040902091909155611aea565b506000611aea565b6000614ade60048361546d565b158015614af45750614af160648361546d565b15155b80611aea5750614b066101908361546d565b1592915050565b600080600060608486031215614b2257600080fd5b505081359360208301359350604090920135919050565b600081518084526020808501945080840160005b83811015614b6957815187529582019590820190600101614b4d565b509495945050505050565b606081526000614b876060830186614b39565b8281036020840152614b998186614b39565b90508281036040840152614bad8185614b39565b9695505050505050565b6001600160a01b03811681146133ae57600080fd5b60008060408385031215614bdf57600080fd5b823591506020830135614bf181614bb7565b809150509250929050565b600060208284031215614c0e57600080fd5b5035919050565b6020808252825182820181905260009190848201906040850190845b81811015614c565783516001600160a01b031683529284019291840191600101614c31565b50909695505050505050565b600060208284031215614c7457600080fd5b81356138a181614bb7565b6020808252825182820181905260009190848201906040850190845b81811015614c5657835183529284019291840191600101614c9b565b600281106133ae57600080fd5b600080600080600060a08688031215614cdc57600080fd5b85359450602086013593506040860135614cf581614cb7565b94979396509394606081013594506080013592915050565b60008060408385031215614d2057600080fd5b8235614d2b81614bb7565b91506020830135614bf181614bb7565b600080600060608486031215614d5057600080fd5b8335925060208401359150604084013565ffffffffffff81168114614d7457600080fd5b809150509250925092565b6020815260006138a16020830184614b39565b60008060408385031215614da557600080fd5b50508035926020909101359150565b634e487b7160e01b600052604160045260246000fd5b600082601f830112614ddb57600080fd5b8151602067ffffffffffffffff80831115614df857614df8614db4565b8260051b604051601f19603f83011681018181108482111715614e1d57614e1d614db4565b604052938452858101830193838101925087851115614e3b57600080fd5b83870191505b84821015614e5a57815183529183019190830190614e41565b979650505050505050565b600080600060608486031215614e7a57600080fd5b835167ffffffffffffffff80821115614e9257600080fd5b614e9e87838801614dca565b94506020860151915080821115614eb457600080fd5b614ec087838801614dca565b93506040860151915080821115614ed657600080fd5b50614ee386828701614dca565b9150509250925092565b634e487b7160e01b600052603260045260246000fd5b60008060408385031215614f1657600080fd5b505080516020909101519092909150565b634e487b7160e01b600052601160045260246000fd5b600080821280156001600160ff1b0384900385131615614f5f57614f5f614f27565b600160ff1b8390038412811615614f7857614f78614f27565b50500190565b6000600019821415614f9257614f92614f27565b5060010190565b600060208284031215614fab57600080fd5b5051919050565b6000815180845260005b81811015614fd857602081850181015186830182015201614fbc565b81811115614fea576000602083870101525b50601f01601f19169290920160200192915050565b828152604060208201526000610ad26040830184614fb2565b60006020828403121561502a57600080fd5b81516138a181614bb7565b6020808252601f908201527f5265656e7472616e637947756172643a207265656e7472616e742063616c6c00604082015260600190565b60208082526010908201526f496e76616c6964206d6174757269747960801b604082015260600190565b600082198211156150a9576150a9614f27565b500190565b6000600160ff1b8214156150c4576150c4614f27565b5060000390565b828152604060208201526000610ad26040830184614b39565b6000602082840312156150f657600080fd5b815167ffffffffffffffff81111561510d57600080fd5b610ad284828501614dca565b6001600160a01b039390931683526020830191909152604082015260600190565b60008060006060848603121561514f57600080fd5b835161515a81614cb7565b602085015160409095015190969495509392505050565b634e487b7160e01b600052602160045260246000fd5b600281106151a557634e487b7160e01b600052602160045260246000fd5b9052565b65ffffffffffff8616815260a081016151c56020830187615187565b8460408301528360608301528260808301529695505050505050565b6020808252818101527f4f776e61626c653a2063616c6c6572206973206e6f7420746865206f776e6572604082015260600190565b6000806000806080858703121561522c57600080fd5b505082516020840151604085015160609095015191969095509092509050565b60008282101561525e5761525e614f27565b500390565b60006020828403121561527557600080fd5b815180151581146138a157600080fd5b60006080828403121561529757600080fd5b6040516080810181811067ffffffffffffffff821117156152ba576152ba614db4565b8060405250825181526020830151602082015260408301516040820152606083015160608201528091505092915050565b60006001600160ff1b038184138284138082168684048611161561531157615311614f27565b600160ff1b600087128281168783058912161561533057615330614f27565b6000871292508782058712848416161561534c5761534c614f27565b8785058712818416161561536257615362614f27565b505050929093029392505050565b634e487b7160e01b600052601260045260246000fd5b60008261539557615395615370565b600160ff1b8214600019841416156153af576153af614f27565b500590565b6001600160a01b0385168152602081018490526040810183905260808101613e286060830184615187565b608081016153ed8287615187565b6001600160a01b039490941660208201526040810192909252606090910152919050565b6060810161541f8286615187565b602082019390935260400152919050565b6080810161543e8287615187565b84602083015283604083015282606083015295945050505050565b60008261546857615468615370565b500490565b60008261547c5761547c615370565b500690565b600081600019048311821515161561549b5761549b614f27565b500290565b6000806000606084860312156154b557600080fd5b8351925060208401519150604084015190509250925092565b600080600080600080600060e0888a0312156154e957600080fd5b5050855160208701516040880151606089015160808a015160a08b015160c0909b0151949c939b50919990985090965094509092509050565b604081016155308285615187565b8260208301529392505050565b6020815260006138a16020830184614fb2565b60008083128015600160ff1b85018412161561556e5761556e614f27565b6001600160ff1b038401831381161561558957615589614f27565b50500390565b634e487b7160e01b600052603160045260246000fdfe4abde63c3e81aefa5764b017968bc473e83e093d7e1a10247d19e0a3e4124018a2646970667358221220e9d505eeedeac5300415140015f171c1ad2d5369de7f09aafaaa3d18dfaf48ef64736f6c63430008090033",
  "libraries": {
    "QuickSort": "0xEc9EbB7d0Bb527dAA1f28C0aE145182c35eaeb91"
  },
  "implementation": "0x22003C80DD3fd0D4D1D342a3e0DC05f8905Ad7a2",
  "devdoc": {
    "kind": "dev",
    "methods": {
      "acceptedContracts()": {
        "details": "The contact name listed in this method is also needed to be listed `requiredContracts` method."
      },
      "calculateBorrowedFundsFromOrders(bytes32,address)": {
        "params": {
          "_ccy": "Currency name in bytes32",
          "_user": "User's address"
        },
        "returns": {
          "borrowedAmount": "The borrowed amount due to the borrow orders being filled on the order book",
          "obligationAmount": "The debt amount due to the borrow orders being filled on the order book",
          "workingOrdersAmount": "The working orders amount on the order book"
        }
      },
      "calculateLentFundsFromOrders(bytes32,address)": {
        "params": {
          "_ccy": "Currency name in bytes32",
          "_user": "User's address"
        },
        "returns": {
          "claimableAmount": "The claimable amount due to the lending orders being filled on the order book",
          "workingOrdersAmount": "The working orders amount on the order book"
        }
      },
      "cancelOrder(bytes32,uint256,uint48)": {
        "params": {
          "_ccy": "Currency name in bytes32 of the selected market",
          "_maturity": "The maturity of the selected market",
          "_orderId": "Market order id"
        }
      },
      "cleanAllOrders(address)": {
        "params": {
          "_user": "User's address"
        }
      },
      "cleanOrders(bytes32,address)": {
        "params": {
          "_ccy": "Currency name in bytes32",
          "_user": "User's address"
        }
      },
      "createLendOrderWithETH(bytes32,uint256,uint256)": {
        "params": {
          "_ccy": "Currency name in bytes32 of the selected market",
          "_maturity": "The maturity of the selected market",
          "_unitPrice": "Amount of unit price taker wish to borrow/lend"
        },
        "returns": {
          "_0": "True if the execution of the operation succeeds"
        }
      },
      "createLendingMarket(bytes32)": {
        "params": {
          "_ccy": "Main currency for new lending market"
        },
        "returns": {
          "market": "The proxy contract address of created lending market"
        }
      },
      "createOrder(bytes32,uint256,uint8,uint256,uint256)": {
        "params": {
          "_amount": "Amount of funds the maker wants to borrow/lend",
          "_ccy": "Currency name in bytes32 of the selected market",
          "_maturity": "The maturity of the selected market",
          "_side": "Order position type, Borrow or Lend",
          "_unitPrice": "Amount of unit price taker wish to borrow/lend"
        },
        "returns": {
          "_0": "True if the execution of the operation succeeds"
        }
      },
      "depositAndCreateLendOrderWithETH(bytes32,uint256,uint256)": {
        "params": {
          "_ccy": "Currency name in bytes32 of the selected market",
          "_maturity": "The maturity of the selected market",
          "_unitPrice": "Amount of unit price taker wish to borrow/lend"
        },
        "returns": {
          "_0": "True if the execution of the operation succeeds"
        }
      },
      "depositAndCreateOrder(bytes32,uint256,uint8,uint256,uint256)": {
        "params": {
          "_amount": "Amount of funds the maker wants to borrow/lend",
          "_ccy": "Currency name in bytes32 of the selected market",
          "_maturity": "The maturity of the selected market",
          "_side": "Order position type, Borrow or Lend",
          "_unitPrice": "Amount of unit price taker wish to borrow/lend"
        },
        "returns": {
          "_0": "True if the execution of the operation succeeds"
        }
      },
      "getBorrowOrderBook(bytes32,uint256,uint256)": {
        "params": {
          "_ccy": "Currency name in bytes32",
          "_limit": "The limit number to get",
          "_maturity": "The maturity of the market"
        },
        "returns": {
          "amounts": "The array of borrow order amounts",
          "quantities": "The array of borrow order quantities",
          "unitPrices": "The array of borrow unit prices"
        }
      },
      "getBorrowUnitPrices(bytes32)": {
        "params": {
          "_ccy": "Currency name in bytes32"
        },
        "returns": {
          "_0": "Array with the borrowing prices per future value of the lending market"
        }
      },
      "getFutureValueVault(bytes32,uint256)": {
        "params": {
          "_ccy": "Currency name in bytes32",
          "_maturity": "The maturity of the market"
        },
        "returns": {
          "_0": "The lending market address"
        }
      },
      "getGenesisDate(bytes32)": {
        "params": {
          "_ccy": "Currency name in bytes32"
        },
        "returns": {
          "_0": "The genesis date"
        }
      },
      "getLendOrderBook(bytes32,uint256,uint256)": {
        "params": {
          "_ccy": "Currency name in bytes32",
          "_limit": "The limit number to get",
          "_maturity": "The maturity of the market"
        },
        "returns": {
          "amounts": "The array of lend order amounts",
          "quantities": "The array of lend order quantities",
          "unitPrices": "The array of borrow unit prices"
        }
      },
      "getLendUnitPrices(bytes32)": {
        "params": {
          "_ccy": "Currency name in bytes32"
        },
        "returns": {
          "_0": "Array with the lending prices per future value of the lending market"
        }
      },
      "getLendingMarket(bytes32,uint256)": {
        "params": {
          "_ccy": "Currency name in bytes32",
          "_maturity": "The maturity of the market"
        },
        "returns": {
          "_0": "The lending market address"
        }
      },
      "getLendingMarkets(bytes32)": {
        "params": {
          "_ccy": "Currency name in bytes32"
        },
        "returns": {
          "_0": "Array with the lending market address"
        }
      },
      "getMaturities(bytes32)": {
        "params": {
          "_ccy": "Currency name in bytes32"
        },
        "returns": {
          "_0": "Array with the lending market maturity"
        }
      },
      "getMidUnitPrices(bytes32)": {
        "params": {
          "_ccy": "Currency name in bytes32"
        },
        "returns": {
          "_0": "Array with the mid prices per future value of the lending market"
        }
      },
      "getTotalPresentValue(bytes32,address)": {
        "params": {
          "_ccy": "Currency name in bytes32 for Lending Market",
          "_user": "User's address"
        },
        "returns": {
          "totalPresentValue": "The total present value"
        }
      },
      "getTotalPresentValueInETH(address)": {
        "params": {
          "_user": "User's address"
        },
        "returns": {
          "totalPresentValue": "The total present value in ETH"
        }
      },
      "initialize(address,address)": {
        "details": "Function is invoked by the proxy contract when the contract is added to the ProxyController.",
        "params": {
          "_owner": "The address of the contract owner",
          "_resolver": "The address of the Address Resolver contract"
        }
      },
      "initializeLendingMarket(bytes32,uint256,uint256)": {
        "params": {
          "_ccy": "Currency name in bytes32",
          "_compoundFactor": "The initial compound factor when the initial market is opened",
          "_genesisDate": "The genesis date when the initial market is opened"
        }
      },
      "isInitializedLendingMarket(bytes32)": {
        "params": {
          "_ccy": "Currency name in bytes32"
        },
        "returns": {
          "_0": "The boolean if the lending market is initialized or not"
        }
      },
      "owner()": {
        "details": "Returns the address of the current owner."
      },
      "pauseLendingMarkets(bytes32)": {
        "params": {
          "_ccy": "Currency for pausing all lending markets"
        },
        "returns": {
          "_0": "True if the execution of the operation succeeds"
        }
      },
      "renounceOwnership()": {
        "details": "Leaves the contract without owner. It will not be possible to call `onlyOwner` functions anymore. Can only be called by the current owner. NOTE: Renouncing ownership will leave the contract without an owner, thereby removing any functionality that is only available to the owner."
      },
      "requiredContracts()": {
        "details": "The contract name list is in `./libraries/Contracts.sol`."
      },
      "rotateLendingMarkets(bytes32)": {
        "params": {
          "_ccy": "Currency name in bytes32 of the selected market"
        }
      },
      "transferOwnership(address)": {
        "details": "Transfers ownership of the contract to a new account (`newOwner`). Can only be called by the current owner."
      },
      "unpauseLendingMarkets(bytes32)": {
        "params": {
          "_ccy": "Currency name in bytes32"
        },
        "returns": {
          "_0": "True if the execution of the operation succeeds"
        }
      }
    },
    "version": 1
  },
  "userdoc": {
    "kind": "user",
    "methods": {
      "acceptedContracts()": {
        "notice": "Returns contract names that can call this contract."
      },
      "calculateBorrowedFundsFromOrders(bytes32,address)": {
        "notice": "Gets the funds that are calculated from the user's borrowing order list for the selected currency."
      },
      "calculateLentFundsFromOrders(bytes32,address)": {
        "notice": "Gets the funds that are calculated from the user's lending order list for the selected currency."
      },
      "cancelOrder(bytes32,uint256,uint48)": {
        "notice": "Cancels the own order."
      },
      "cleanAllOrders(address)": {
        "notice": "Cleans user's all orders to remove order ids that are already filled on the order book."
      },
      "cleanOrders(bytes32,address)": {
        "notice": "Cleans user's orders to remove order ids that are already filled on the order book for a selected currency."
      },
      "createLendOrderWithETH(bytes32,uint256,uint256)": {
        "notice": "Creates a lend order with ETH. Takes the order if the order is matched, and places new order if not match it."
      },
      "createLendingMarket(bytes32)": {
        "notice": "Deploys new Lending Market and save address at lendingMarkets mapping.Reverts on deployment market with existing currency and term"
      },
      "createOrder(bytes32,uint256,uint8,uint256,uint256)": {
        "notice": "Creates an order. Takes orders if the orders are matched, and places new order if not match it. In addition, converts the future value to the genesis value if there is future value in past maturity before the execution of order creation."
      },
      "depositAndCreateLendOrderWithETH(bytes32,uint256,uint256)": {
        "notice": "Deposits funds and creates a lend order with ETH at the same time."
      },
      "depositAndCreateOrder(bytes32,uint256,uint8,uint256,uint256)": {
        "notice": "Deposits funds and creates an order at the same time."
      },
      "getBorrowOrderBook(bytes32,uint256,uint256)": {
        "notice": "Gets the order book of borrow."
      },
      "getBorrowUnitPrices(bytes32)": {
        "notice": "Gets borrow prices per future value for the selected currency."
      },
      "getFutureValueVault(bytes32,uint256)": {
        "notice": "Gets the feture value contract address for the selected currency and maturity."
      },
      "getGenesisDate(bytes32)": {
        "notice": "Gets the genesis date when the first market opens for the selected currency."
      },
      "getLendOrderBook(bytes32,uint256,uint256)": {
        "notice": "Gets the order book of lend."
      },
      "getLendUnitPrices(bytes32)": {
        "notice": "Gets lend prices per future value for the selected currency."
      },
      "getLendingMarket(bytes32,uint256)": {
        "notice": "Gets the lending market contract address for the selected currency and maturity."
      },
      "getLendingMarkets(bytes32)": {
        "notice": "Gets the lending market contract addresses for the selected currency."
      },
      "getMaturities(bytes32)": {
        "notice": "Gets maturities for the selected currency."
      },
      "getMidUnitPrices(bytes32)": {
        "notice": "Gets mid prices per future value for the selected currency."
      },
      "getTotalPresentValue(bytes32,address)": {
        "notice": "Gets the total present value of the account for selected currency."
      },
      "getTotalPresentValueInETH(address)": {
        "notice": "Gets the total present value of the account converted to ETH."
      },
      "initialize(address,address)": {
        "notice": "Initializes the contract."
      },
      "initializeLendingMarket(bytes32,uint256,uint256)": {
        "notice": "Initialize the lending market to set a genesis date and compound factor"
      },
      "isInitializedLendingMarket(bytes32)": {
        "notice": "Gets if the lending market is initialized."
      },
      "pauseLendingMarkets(bytes32)": {
        "notice": "Pauses previously deployed lending market by currency"
      },
      "requiredContracts()": {
        "notice": "Returns the contract names used in this contract."
      },
      "rotateLendingMarkets(bytes32)": {
        "notice": "Rotate the lending markets. In this rotation, the following actions are happened. - Updates the maturity at the beginning of the market array. - Moves the beginning of the market array to the end of it. - Update the compound factor in this contract using the next market unit price."
      },
      "unpauseLendingMarkets(bytes32)": {
        "notice": "Unpauses previously deployed lending market by currency"
      }
    },
    "notice": "Implements the module to manage separated lending order-book markets per maturity. This contract also works as a factory contract that can deploy(start)a new lending market for selected currency and maturity and has the calculation logic for the Genesis value in addition. Deployed Lending Markets are rotated and reused as it reaches the maturity date. At the time of rotation, a new maturity date is set and the compound factor is updated. The users mainly call this contract to create orders to lend or borrow funds.",
    "version": 1
  },
  "storageLayout": {
    "storage": [
      {
        "astId": 1053,
        "contract": "contracts/LendingMarketController.sol:LendingMarketController",
        "label": "_status",
        "offset": 0,
        "slot": "0",
        "type": "t_uint256"
      },
      {
        "astId": 790,
        "contract": "contracts/LendingMarketController.sol:LendingMarketController",
        "label": "_initialized",
        "offset": 0,
        "slot": "1",
        "type": "t_uint8"
      },
      {
        "astId": 793,
        "contract": "contracts/LendingMarketController.sol:LendingMarketController",
        "label": "_initializing",
        "offset": 1,
        "slot": "1",
        "type": "t_bool"
      }
    ],
    "types": {
      "t_bool": {
        "encoding": "inplace",
        "label": "bool",
        "numberOfBytes": "1"
      },
      "t_uint256": {
        "encoding": "inplace",
        "label": "uint256",
        "numberOfBytes": "32"
      },
      "t_uint8": {
        "encoding": "inplace",
        "label": "uint8",
        "numberOfBytes": "1"
      }
    }
  }
}