{
  "address": "0x4B3DC0DEd7FE393E2D2FAfec830e90949eABe717",
  "abi": [
    {
      "anonymous": false,
      "inputs": [
        {
          "indexed": false,
          "internalType": "bytes32",
          "name": "name",
          "type": "bytes32"
        },
        {
          "indexed": false,
          "internalType": "address",
          "name": "destination",
          "type": "address"
        }
      ],
      "name": "CacheUpdated",
      "type": "event"
    },
    {
      "anonymous": false,
      "inputs": [
        {
          "indexed": false,
          "internalType": "uint48",
          "name": "orderId",
          "type": "uint48"
        },
        {
          "indexed": true,
          "internalType": "address",
          "name": "maker",
          "type": "address"
        },
        {
          "indexed": true,
          "internalType": "bytes32",
          "name": "ccy",
          "type": "bytes32"
        },
        {
          "indexed": false,
          "internalType": "enum ProtocolTypes.Side",
          "name": "side",
          "type": "uint8"
        },
        {
          "indexed": false,
          "internalType": "uint256",
          "name": "maturity",
          "type": "uint256"
        },
        {
          "indexed": false,
          "internalType": "uint256",
          "name": "amount",
          "type": "uint256"
        },
        {
          "indexed": false,
          "internalType": "uint256",
          "name": "unitPrice",
          "type": "uint256"
        }
      ],
      "name": "CancelOrder",
      "type": "event"
    },
    {
      "anonymous": false,
      "inputs": [
        {
          "indexed": true,
          "internalType": "bytes32",
          "name": "ccy",
          "type": "bytes32"
        },
        {
          "indexed": true,
          "internalType": "address",
          "name": "marketAddr",
          "type": "address"
        },
        {
          "indexed": false,
          "internalType": "address",
          "name": "futureValueVault",
          "type": "address"
        },
        {
          "indexed": false,
          "internalType": "uint256",
          "name": "index",
          "type": "uint256"
        },
        {
          "indexed": false,
          "internalType": "uint256",
          "name": "maturity",
          "type": "uint256"
        }
      ],
      "name": "CreateLendingMarket",
      "type": "event"
    },
    {
      "anonymous": false,
      "inputs": [
        {
          "indexed": true,
          "internalType": "address",
          "name": "taker",
          "type": "address"
        },
        {
          "indexed": true,
          "internalType": "bytes32",
          "name": "ccy",
          "type": "bytes32"
        },
        {
          "indexed": false,
          "internalType": "enum ProtocolTypes.Side",
          "name": "side",
          "type": "uint8"
        },
        {
          "indexed": true,
          "internalType": "uint256",
          "name": "maturity",
          "type": "uint256"
        },
        {
          "indexed": false,
          "internalType": "uint256",
          "name": "amount",
          "type": "uint256"
        },
        {
          "indexed": false,
          "internalType": "uint256",
          "name": "unitPrice",
          "type": "uint256"
        },
        {
          "indexed": false,
          "internalType": "uint256",
          "name": "filledFutureValue",
          "type": "uint256"
        }
      ],
      "name": "FillOrder",
      "type": "event"
    },
    {
      "anonymous": false,
      "inputs": [
        {
          "indexed": true,
          "internalType": "address",
          "name": "taker",
          "type": "address"
        },
        {
          "indexed": true,
          "internalType": "bytes32",
          "name": "ccy",
          "type": "bytes32"
        },
        {
          "indexed": false,
          "internalType": "enum ProtocolTypes.Side",
          "name": "side",
          "type": "uint8"
        },
        {
          "indexed": true,
          "internalType": "uint256",
          "name": "maturity",
          "type": "uint256"
        },
        {
          "indexed": false,
          "internalType": "uint256",
          "name": "filledFutureValue",
          "type": "uint256"
        }
      ],
      "name": "FillOrdersAsync",
      "type": "event"
    },
    {
      "anonymous": false,
      "inputs": [
        {
          "indexed": false,
          "internalType": "uint8",
          "name": "version",
          "type": "uint8"
        }
      ],
      "name": "Initialized",
      "type": "event"
    },
    {
      "anonymous": false,
      "inputs": [
        {
          "indexed": true,
          "internalType": "address",
          "name": "user",
          "type": "address"
        },
        {
          "indexed": false,
          "internalType": "bytes32",
          "name": "collateralCcy",
          "type": "bytes32"
        },
        {
          "indexed": true,
          "internalType": "bytes32",
          "name": "debtCcy",
          "type": "bytes32"
        },
        {
          "indexed": true,
          "internalType": "uint256",
          "name": "debtMaturity",
          "type": "uint256"
        },
        {
          "indexed": false,
          "internalType": "uint256",
          "name": "amount",
          "type": "uint256"
        }
      ],
      "name": "Liquidate",
      "type": "event"
    },
    {
      "anonymous": false,
      "inputs": [
        {
          "indexed": true,
          "internalType": "address",
          "name": "previousOwner",
          "type": "address"
        },
        {
          "indexed": true,
          "internalType": "address",
          "name": "newOwner",
          "type": "address"
        }
      ],
      "name": "OwnershipTransferred",
      "type": "event"
    },
    {
      "anonymous": false,
      "inputs": [
        {
          "indexed": false,
          "internalType": "bytes32",
          "name": "ccy",
          "type": "bytes32"
        },
        {
          "indexed": false,
          "internalType": "uint256",
          "name": "oldMaturity",
          "type": "uint256"
        },
        {
          "indexed": false,
          "internalType": "uint256",
          "name": "newMaturity",
          "type": "uint256"
        }
      ],
      "name": "RotateLendingMarkets",
      "type": "event"
    },
    {
      "inputs": [],
      "name": "acceptedContracts",
      "outputs": [
        {
          "internalType": "bytes32[]",
          "name": "contracts",
          "type": "bytes32[]"
        }
      ],
      "stateMutability": "pure",
      "type": "function"
    },
    {
      "inputs": [],
      "name": "buildCache",
      "outputs": [],
      "stateMutability": "nonpayable",
      "type": "function"
    },
    {
      "inputs": [
        {
          "internalType": "bytes32",
          "name": "_ccy",
          "type": "bytes32"
        },
        {
          "internalType": "address",
          "name": "_user",
          "type": "address"
        }
      ],
      "name": "calculateBorrowedFundsFromOrders",
      "outputs": [
        {
          "internalType": "uint256",
          "name": "workingOrdersAmount",
          "type": "uint256"
        },
        {
          "internalType": "uint256",
          "name": "debtAmount",
          "type": "uint256"
        },
        {
          "internalType": "uint256",
          "name": "borrowedAmount",
          "type": "uint256"
        }
      ],
      "stateMutability": "view",
      "type": "function"
    },
    {
      "inputs": [
        {
          "internalType": "bytes32",
          "name": "_ccy",
          "type": "bytes32"
        },
        {
          "internalType": "address",
          "name": "_user",
          "type": "address"
        }
      ],
      "name": "calculateFunds",
      "outputs": [
        {
          "internalType": "uint256",
          "name": "workingLendOrdersAmount",
          "type": "uint256"
        },
        {
          "internalType": "uint256",
          "name": "claimableAmount",
          "type": "uint256"
        },
        {
          "internalType": "uint256",
          "name": "collateralAmount",
          "type": "uint256"
        },
        {
          "internalType": "uint256",
          "name": "lentAmount",
          "type": "uint256"
        },
        {
          "internalType": "uint256",
          "name": "workingBorrowOrdersAmount",
          "type": "uint256"
        },
        {
          "internalType": "uint256",
          "name": "debtAmount",
          "type": "uint256"
        },
        {
          "internalType": "uint256",
          "name": "borrowedAmount",
          "type": "uint256"
        }
      ],
      "stateMutability": "view",
      "type": "function"
    },
    {
      "inputs": [
        {
          "internalType": "bytes32",
          "name": "_ccy",
          "type": "bytes32"
        },
        {
          "internalType": "address",
          "name": "_user",
          "type": "address"
        }
      ],
      "name": "calculateLentFundsFromOrders",
      "outputs": [
        {
          "internalType": "uint256",
          "name": "workingOrdersAmount",
          "type": "uint256"
        },
        {
          "internalType": "uint256",
          "name": "claimableAmount",
          "type": "uint256"
        },
        {
          "internalType": "uint256",
          "name": "lentAmount",
          "type": "uint256"
        }
      ],
      "stateMutability": "view",
      "type": "function"
    },
    {
      "inputs": [
        {
          "internalType": "address",
          "name": "_user",
          "type": "address"
        },
        {
          "internalType": "bytes32",
          "name": "_depositCcy",
          "type": "bytes32"
        },
        {
          "internalType": "uint256",
          "name": "_depositAmount",
          "type": "uint256"
        }
      ],
      "name": "calculateTotalFundsInETH",
      "outputs": [
        {
          "internalType": "uint256",
          "name": "totalWorkingLendOrdersAmount",
          "type": "uint256"
        },
        {
          "internalType": "uint256",
          "name": "totalClaimableAmount",
          "type": "uint256"
        },
        {
          "internalType": "uint256",
          "name": "totalCollateralAmount",
          "type": "uint256"
        },
        {
          "internalType": "uint256",
          "name": "totalLentAmount",
          "type": "uint256"
        },
        {
          "internalType": "uint256",
          "name": "totalWorkingBorrowOrdersAmount",
          "type": "uint256"
        },
        {
          "internalType": "uint256",
          "name": "totalDebtAmount",
          "type": "uint256"
        },
        {
          "internalType": "uint256",
          "name": "totalBorrowedAmount",
          "type": "uint256"
        },
        {
          "internalType": "bool",
          "name": "isEnoughDeposit",
          "type": "bool"
        }
      ],
      "stateMutability": "view",
      "type": "function"
    },
    {
      "inputs": [
        {
          "internalType": "bytes32",
          "name": "_ccy",
          "type": "bytes32"
        },
        {
          "internalType": "uint256",
          "name": "_maturity",
          "type": "uint256"
        },
        {
          "internalType": "uint48",
          "name": "_orderId",
          "type": "uint48"
        }
      ],
      "name": "cancelOrder",
      "outputs": [
        {
          "internalType": "bool",
          "name": "",
          "type": "bool"
        }
      ],
      "stateMutability": "nonpayable",
      "type": "function"
    },
    {
      "inputs": [
        {
          "internalType": "address",
          "name": "_user",
          "type": "address"
        }
      ],
      "name": "cleanAllOrders",
      "outputs": [],
      "stateMutability": "nonpayable",
      "type": "function"
    },
    {
      "inputs": [
        {
          "internalType": "bytes32",
          "name": "_ccy",
          "type": "bytes32"
        },
        {
          "internalType": "address",
          "name": "_user",
          "type": "address"
        }
      ],
      "name": "cleanOrders",
      "outputs": [
        {
          "internalType": "uint256",
          "name": "totalActiveOrderCount",
          "type": "uint256"
        }
      ],
      "stateMutability": "nonpayable",
      "type": "function"
    },
    {
      "inputs": [
        {
          "internalType": "bytes32",
          "name": "_ccy",
          "type": "bytes32"
        }
      ],
      "name": "createLendingMarket",
      "outputs": [
        {
          "internalType": "address",
          "name": "market",
          "type": "address"
        },
        {
          "internalType": "address",
          "name": "futureValueVault",
          "type": "address"
        }
      ],
      "stateMutability": "nonpayable",
      "type": "function"
    },
    {
      "inputs": [
        {
          "internalType": "bytes32",
          "name": "_ccy",
          "type": "bytes32"
        },
        {
          "internalType": "uint256",
          "name": "_maturity",
          "type": "uint256"
        },
        {
          "internalType": "enum ProtocolTypes.Side",
          "name": "_side",
          "type": "uint8"
        },
        {
          "internalType": "uint256",
          "name": "_amount",
          "type": "uint256"
        },
        {
          "internalType": "uint256",
          "name": "_unitPrice",
          "type": "uint256"
        }
      ],
      "name": "createOrder",
      "outputs": [
        {
          "internalType": "bool",
          "name": "",
          "type": "bool"
        }
      ],
      "stateMutability": "nonpayable",
      "type": "function"
    },
    {
      "inputs": [
        {
          "internalType": "bytes32",
          "name": "_ccy",
          "type": "bytes32"
        },
        {
          "internalType": "uint256",
          "name": "_maturity",
          "type": "uint256"
        },
        {
          "internalType": "uint256",
          "name": "_unitPrice",
          "type": "uint256"
        }
      ],
      "name": "depositAndCreateLendOrderWithETH",
      "outputs": [
        {
          "internalType": "bool",
          "name": "",
          "type": "bool"
        }
      ],
      "stateMutability": "payable",
      "type": "function"
    },
    {
      "inputs": [
        {
          "internalType": "bytes32",
          "name": "_ccy",
          "type": "bytes32"
        },
        {
          "internalType": "uint256",
          "name": "_maturity",
          "type": "uint256"
        },
        {
          "internalType": "enum ProtocolTypes.Side",
          "name": "_side",
          "type": "uint8"
        },
        {
          "internalType": "uint256",
          "name": "_amount",
          "type": "uint256"
        },
        {
          "internalType": "uint256",
          "name": "_unitPrice",
          "type": "uint256"
        }
      ],
      "name": "depositAndCreateOrder",
      "outputs": [
        {
          "internalType": "bool",
          "name": "",
          "type": "bool"
        }
      ],
      "stateMutability": "nonpayable",
      "type": "function"
    },
    {
      "inputs": [
        {
          "internalType": "bytes32",
          "name": "_collateralCcy",
          "type": "bytes32"
        },
        {
          "internalType": "bytes32",
          "name": "_debtCcy",
          "type": "bytes32"
        },
        {
          "internalType": "uint256",
          "name": "_debtMaturity",
          "type": "uint256"
        },
        {
          "internalType": "uint256",
          "name": "_liquidationAmountMax",
          "type": "uint256"
        },
        {
          "internalType": "address",
          "name": "_user",
          "type": "address"
        },
        {
          "internalType": "uint24",
          "name": "_poolFee",
          "type": "uint24"
        }
      ],
      "name": "executeLiquidationCall",
      "outputs": [
        {
          "internalType": "bool",
          "name": "",
          "type": "bool"
        }
      ],
      "stateMutability": "nonpayable",
      "type": "function"
    },
    {
      "inputs": [
        {
          "internalType": "bytes32",
          "name": "_ccy",
          "type": "bytes32"
        },
        {
          "internalType": "uint256",
          "name": "_maturity",
          "type": "uint256"
        },
        {
          "internalType": "uint256",
          "name": "_limit",
          "type": "uint256"
        }
      ],
      "name": "getBorrowOrderBook",
      "outputs": [
        {
          "internalType": "uint256[]",
          "name": "unitPrices",
          "type": "uint256[]"
        },
        {
          "internalType": "uint256[]",
          "name": "amounts",
          "type": "uint256[]"
        },
        {
          "internalType": "uint256[]",
          "name": "quantities",
          "type": "uint256[]"
        }
      ],
      "stateMutability": "view",
      "type": "function"
    },
    {
      "inputs": [
        {
          "internalType": "bytes32",
          "name": "_ccy",
          "type": "bytes32"
        }
      ],
      "name": "getBorrowUnitPrices",
      "outputs": [
        {
          "internalType": "uint256[]",
          "name": "",
          "type": "uint256[]"
        }
      ],
      "stateMutability": "view",
      "type": "function"
    },
    {
      "inputs": [
        {
          "internalType": "bytes32",
          "name": "_ccy",
          "type": "bytes32"
        },
        {
          "internalType": "uint256",
          "name": "_maturity",
          "type": "uint256"
        },
        {
          "internalType": "address",
          "name": "_user",
          "type": "address"
        }
      ],
      "name": "getFutureValue",
      "outputs": [
        {
          "internalType": "int256",
          "name": "futureValue",
          "type": "int256"
        }
      ],
      "stateMutability": "view",
      "type": "function"
    },
    {
      "inputs": [
        {
          "internalType": "bytes32",
          "name": "_ccy",
          "type": "bytes32"
        },
        {
          "internalType": "uint256",
          "name": "_maturity",
          "type": "uint256"
        }
      ],
      "name": "getFutureValueVault",
      "outputs": [
        {
          "internalType": "address",
          "name": "",
          "type": "address"
        }
      ],
      "stateMutability": "view",
      "type": "function"
    },
    {
      "inputs": [
        {
          "internalType": "bytes32",
          "name": "_ccy",
          "type": "bytes32"
        }
      ],
      "name": "getGenesisDate",
      "outputs": [
        {
          "internalType": "uint256",
          "name": "",
          "type": "uint256"
        }
      ],
      "stateMutability": "view",
      "type": "function"
    },
    {
      "inputs": [
        {
          "internalType": "bytes32",
          "name": "_ccy",
          "type": "bytes32"
        },
        {
          "internalType": "uint256",
          "name": "_maturity",
          "type": "uint256"
        },
        {
          "internalType": "uint256",
          "name": "_limit",
          "type": "uint256"
        }
      ],
      "name": "getLendOrderBook",
      "outputs": [
        {
          "internalType": "uint256[]",
          "name": "unitPrices",
          "type": "uint256[]"
        },
        {
          "internalType": "uint256[]",
          "name": "amounts",
          "type": "uint256[]"
        },
        {
          "internalType": "uint256[]",
          "name": "quantities",
          "type": "uint256[]"
        }
      ],
      "stateMutability": "view",
      "type": "function"
    },
    {
      "inputs": [
        {
          "internalType": "bytes32",
          "name": "_ccy",
          "type": "bytes32"
        }
      ],
      "name": "getLendUnitPrices",
      "outputs": [
        {
          "internalType": "uint256[]",
          "name": "",
          "type": "uint256[]"
        }
      ],
      "stateMutability": "view",
      "type": "function"
    },
    {
      "inputs": [
        {
          "internalType": "bytes32",
          "name": "_ccy",
          "type": "bytes32"
        },
        {
          "internalType": "uint256",
          "name": "_maturity",
          "type": "uint256"
        }
      ],
      "name": "getLendingMarket",
      "outputs": [
        {
          "internalType": "address",
          "name": "",
          "type": "address"
        }
      ],
      "stateMutability": "view",
      "type": "function"
    },
    {
      "inputs": [
        {
          "internalType": "bytes32",
          "name": "_ccy",
          "type": "bytes32"
        }
      ],
      "name": "getLendingMarkets",
      "outputs": [
        {
          "internalType": "address[]",
          "name": "",
          "type": "address[]"
        }
      ],
      "stateMutability": "view",
      "type": "function"
    },
    {
      "inputs": [
        {
          "internalType": "bytes32",
          "name": "_ccy",
          "type": "bytes32"
        }
      ],
      "name": "getMaturities",
      "outputs": [
        {
          "internalType": "uint256[]",
          "name": "",
          "type": "uint256[]"
        }
      ],
      "stateMutability": "view",
      "type": "function"
    },
    {
      "inputs": [
        {
          "internalType": "bytes32",
          "name": "_ccy",
          "type": "bytes32"
        }
      ],
      "name": "getMidUnitPrices",
      "outputs": [
        {
          "internalType": "uint256[]",
          "name": "",
          "type": "uint256[]"
        }
      ],
      "stateMutability": "view",
      "type": "function"
    },
    {
      "inputs": [
        {
          "internalType": "bytes32",
          "name": "_ccy",
          "type": "bytes32"
        },
        {
          "internalType": "uint256",
          "name": "_maturity",
          "type": "uint256"
        },
        {
          "internalType": "address",
          "name": "_user",
          "type": "address"
        }
      ],
      "name": "getPresentValue",
      "outputs": [
        {
          "internalType": "int256",
          "name": "presentValue",
          "type": "int256"
        }
      ],
      "stateMutability": "view",
      "type": "function"
    },
    {
      "inputs": [
        {
          "internalType": "bytes32",
          "name": "_ccy",
          "type": "bytes32"
        },
        {
          "internalType": "address",
          "name": "_user",
          "type": "address"
        }
      ],
      "name": "getTotalPresentValue",
      "outputs": [
        {
          "internalType": "int256",
          "name": "totalPresentValue",
          "type": "int256"
        }
      ],
      "stateMutability": "view",
      "type": "function"
    },
    {
      "inputs": [
        {
          "internalType": "address",
          "name": "_user",
          "type": "address"
        }
      ],
      "name": "getTotalPresentValueInETH",
      "outputs": [
        {
          "internalType": "int256",
          "name": "totalPresentValue",
          "type": "int256"
        }
      ],
      "stateMutability": "view",
      "type": "function"
    },
    {
      "inputs": [
        {
          "internalType": "address",
          "name": "_user",
          "type": "address"
        }
      ],
      "name": "getUsedCurrencies",
      "outputs": [
        {
          "internalType": "bytes32[]",
          "name": "",
          "type": "bytes32[]"
        }
      ],
      "stateMutability": "view",
      "type": "function"
    },
    {
      "inputs": [
        {
          "internalType": "address",
          "name": "_owner",
          "type": "address"
        },
        {
          "internalType": "address",
          "name": "_resolver",
          "type": "address"
        }
      ],
      "name": "initialize",
      "outputs": [],
      "stateMutability": "nonpayable",
      "type": "function"
    },
    {
      "inputs": [
        {
          "internalType": "bytes32",
          "name": "_ccy",
          "type": "bytes32"
        },
        {
          "internalType": "uint256",
          "name": "_genesisDate",
          "type": "uint256"
        },
        {
          "internalType": "uint256",
          "name": "_compoundFactor",
          "type": "uint256"
        }
      ],
      "name": "initializeLendingMarket",
      "outputs": [],
      "stateMutability": "nonpayable",
      "type": "function"
    },
    {
      "inputs": [
        {
          "internalType": "bytes32",
          "name": "_ccy",
          "type": "bytes32"
        }
      ],
      "name": "isInitializedLendingMarket",
      "outputs": [
        {
          "internalType": "bool",
          "name": "",
          "type": "bool"
        }
      ],
      "stateMutability": "view",
      "type": "function"
    },
    {
      "inputs": [],
      "name": "isResolverCached",
      "outputs": [
        {
          "internalType": "bool",
          "name": "",
          "type": "bool"
        }
      ],
      "stateMutability": "view",
      "type": "function"
    },
    {
      "inputs": [],
      "name": "owner",
      "outputs": [
        {
          "internalType": "address",
          "name": "",
          "type": "address"
        }
      ],
      "stateMutability": "view",
      "type": "function"
    },
    {
      "inputs": [
        {
          "internalType": "bytes32",
          "name": "_ccy",
          "type": "bytes32"
        }
      ],
      "name": "pauseLendingMarkets",
      "outputs": [
        {
          "internalType": "bool",
          "name": "",
          "type": "bool"
        }
      ],
      "stateMutability": "nonpayable",
      "type": "function"
    },
    {
      "inputs": [],
      "name": "renounceOwnership",
      "outputs": [],
      "stateMutability": "nonpayable",
      "type": "function"
    },
    {
      "inputs": [],
      "name": "requiredContracts",
      "outputs": [
        {
          "internalType": "bytes32[]",
          "name": "contracts",
          "type": "bytes32[]"
        }
      ],
      "stateMutability": "pure",
      "type": "function"
    },
    {
      "inputs": [],
      "name": "resolver",
      "outputs": [
        {
          "internalType": "contract IAddressResolver",
          "name": "",
          "type": "address"
        }
      ],
      "stateMutability": "view",
      "type": "function"
    },
    {
      "inputs": [
        {
          "internalType": "bytes32",
          "name": "_ccy",
          "type": "bytes32"
        }
      ],
      "name": "rotateLendingMarkets",
      "outputs": [],
      "stateMutability": "nonpayable",
      "type": "function"
    },
    {
      "inputs": [
        {
          "internalType": "address",
          "name": "newOwner",
          "type": "address"
        }
      ],
      "name": "transferOwnership",
      "outputs": [],
      "stateMutability": "nonpayable",
      "type": "function"
    },
    {
      "inputs": [
        {
          "internalType": "bytes32",
          "name": "_ccy",
          "type": "bytes32"
        }
      ],
      "name": "unpauseLendingMarkets",
      "outputs": [
        {
          "internalType": "bool",
          "name": "",
          "type": "bool"
        }
      ],
      "stateMutability": "nonpayable",
      "type": "function"
    }
  ],
  "transactionHash": "0x21433be4d90b50016a883284c51781e0567073f829e7f6d709953797a1c15b2a",
  "args": [],
  "numDeployments": 4,
  "solcInputHash": "42f57938e112f6d2dd50cc5aa9065ca2",
  "bytecode": "0x608060405234801561001057600080fd5b5060016000556151a9806100256000396000f3fe6080604052600436106102465760003560e01c80638a98174511610139578063e0997659116100b6578063eb092a261161007a578063eb092a2614610771578063ed6c9a9714610791578063f2fde38b146107b1578063faca409b146107d1578063fb54a6b3146107f1578063fc7008101461081157600080fd5b8063e0997659146106dc578063e219baef146106f1578063e906c10014610711578063e95dc18314610731578063e99d05381461075157600080fd5b80639d3fc35d116100fd5780639d3fc35d1461061c578063a02be3dc1461063c578063a963ad7f1461065c578063b3cb84501461069c578063bfd10cf6146106bc57600080fd5b80638a981745146105945780638b36d833146105b45780638b646f44146105d45780638da5cb5b146105e7578063953dbcaa146105fc57600080fd5b8063448255c7116101c7578063715018a61161018b578063715018a6146104e457806373bb3b09146104f957806385323e1a14610534578063870cf8ab14610554578063891d59651461057457600080fd5b8063448255c714610402578063485cc9551461042257806349f2ccbf1461044257806355aceb4e146104625780635c3477651461048f57600080fd5b80632af64bd31161020e5780632af64bd31461034e5780632e6c5e67146103735780632e77aea714610393578063381ada1f146103b35780633d03b9da146103e057600080fd5b80630312b5281461024b57806304f3bcec146102ad5780630594de6e146102da57806317b72ff41461030957806329985e5a14610337575b600080fd5b34801561025757600080fd5b5061026b6102663660046146a4565b610831565b604080519889526020890197909752958701949094526060860192909252608085015260a084015260c0830152151560e0820152610100015b60405180910390f35b3480156102b957600080fd5b506102c26108e6565b6040516001600160a01b0390911681526020016102a4565b3480156102e657600080fd5b506102fa6102f53660046146d9565b610907565b6040516102a493929190614740565b34801561031557600080fd5b50610329610324366004614783565b6109c6565b6040519081526020016102a4565b34801561034357600080fd5b5061034c610a64565b005b34801561035a57600080fd5b50610363610c11565b60405190151581526020016102a4565b34801561037f57600080fd5b5061036361038e3660046147b3565b610d77565b34801561039f57600080fd5b506103296103ae3660046147cc565b610d97565b3480156103bf57600080fd5b506103d36103ce3660046147b3565b610e3c565b6040516102a49190614805565b3480156103ec57600080fd5b506103f5610eb1565b6040516102a49190614852565b34801561040e57600080fd5b5061036361041d366004614897565b610fa5565b34801561042e57600080fd5b5061034c61043d3660046148e0565b6110c5565b34801561044e57600080fd5b5061036361045d36600461490e565b611248565b34801561046e57600080fd5b5061048261047d3660046147b3565b6113e2565b6040516102a49190614947565b34801561049b57600080fd5b506104af6104aa366004614783565b61154a565b604080519788526020880196909652948601939093526060850191909152608084015260a083015260c082015260e0016102a4565b3480156104f057600080fd5b5061034c611635565b34801561050557600080fd5b50610519610514366004614783565b611670565b604080519384526020840192909252908201526060016102a4565b34801561054057600080fd5b506102c261054f36600461495a565b611717565b34801561056057600080fd5b5061034c61056f36600461497c565b611779565b34801561058057600080fd5b5061032961058f3660046147b3565b6117d8565b3480156105a057600080fd5b506102c26105af36600461495a565b6117f6565b3480156105c057600080fd5b5061034c6105cf3660046147b3565b611828565b6103636105e23660046146d9565b611d42565b3480156105f357600080fd5b506102c2611e59565b34801561060857600080fd5b506102fa6106173660046146d9565b611e81565b34801561062857600080fd5b50610519610637366004614783565b611ee0565b34801561064857600080fd5b506104826106573660046147b3565b611f2e565b34801561066857600080fd5b5061067c6106773660046147b3565b61208f565b604080516001600160a01b039384168152929091166020830152016102a4565b3480156106a857600080fd5b506103636106b73660046147b3565b6125ea565b3480156106c857600080fd5b506104826106d73660046147b3565b6126ea565b3480156106e857600080fd5b506103f561284b565b3480156106fd57600080fd5b5061034c61070c3660046146d9565b61288e565b34801561071d57600080fd5b5061032961072c3660046147cc565b6129ec565b34801561073d57600080fd5b5061032961074c366004614783565b612a3d565b34801561075d57600080fd5b5061036361076c3660046147b3565b612c01565b34801561077d57600080fd5b5061048261078c3660046147b3565b612cf6565b34801561079d57600080fd5b506103636107ac3660046149a0565b612e57565b3480156107bd57600080fd5b5061034c6107cc36600461497c565b613019565b3480156107dd57600080fd5b506103636107ec366004614897565b6130b9565b3480156107fd57600080fd5b5061032961080c36600461497c565b613141565b34801561081d57600080fd5b506103f561082c36600461497c565b6132d2565b60008060008060008060008073EE025A97c0Cfe83A0F93D3Ea1Ec31c2457010AF1630312b5288c8c8c6040518463ffffffff1660e01b815260040161087893929190614a06565b6101006040518083038186803b15801561089157600080fd5b505af41580156108a5573d6000803e3d6000fd5b505050506040513d601f19601f820116820180604052508101906108c99190614a37565b975097509750975097509750975097509397509397509397509397565b60006000805160206151548339815191525b546001600160a01b0316919050565b60608060606000610916613300565b600088815260029190910160209081526040808320898452909152908190205490516325fb168b60e11b8152600481018790526001600160a01b0390911691508190634bf62d16906024015b60006040518083038186803b15801561097a57600080fd5b505afa15801561098e573d6000803e3d6000fd5b505050506040513d6000823e601f3d908101601f191682016040526109b69190810190614b4e565b9350935093505093509350939050565b6040516385f3396760e01b8152600481018390526001600160a01b038216602482015260009073EE025A97c0Cfe83A0F93D3Ea1Ec31c2457010AF1906385f339679060440160206040518083038186803b158015610a2357600080fd5b505af4158015610a37573d6000803e3d6000fd5b505050506040513d601f19601f82011682018060405250810190610a5b9190614bd6565b90505b92915050565b6000610a6e610eb1565b905060005b8151811015610c0d576000828281518110610a9057610a90614bef565b602002602001015190506000610ab160008051602061515483398151915290565b54604080517f5265736f6c766572206d697373696e67207461726765743a200000000000000060208201526039808201869052825180830390910181526059820192839052636795dbcd60e01b9092526001600160a01b0390921691636795dbcd91610b2291869190605d01614c52565b60206040518083038186803b158015610b3a57600080fd5b505afa158015610b4e573d6000803e3d6000fd5b505050506040513d601f19601f82011682018060405250810190610b729190614c6b565b60008381527f4abde63c3e81aefa5764b017968bc473e83e093d7e1a10247d19e0a3e4124019602090815260409182902080546001600160a01b0319166001600160a01b03851690811790915582518681529182015281519293507f88a93678a3692f6789d9546fc621bf7234b101ddb7d4fe479455112831b8aa68929081900390910190a150508080610c0590614c9e565b915050610a73565b5050565b600080610c1c610eb1565b905060005b8151811015610d6e576000828281518110610c3e57610c3e614bef565b60200260200101519050610c5d60008051602061515483398151915290565b600082815260019190910160205260409020546001600160a01b0316600080516020615154833981519152546040516321f8a72160e01b8152600481018490526001600160a01b03909116906321f8a7219060240160206040518083038186803b158015610cca57600080fd5b505afa158015610cde573d6000803e3d6000fd5b505050506040513d601f19601f82011682018060405250810190610d029190614c6b565b6001600160a01b0316141580610d4c575060008181527f4abde63c3e81aefa5764b017968bc473e83e093d7e1a10247d19e0a3e412401960205260409020546001600160a01b0316155b15610d5b576000935050505090565b5080610d6681614c9e565b915050610c21565b50600191505090565b6000610d81613300565b6000928352600301602052506040902054151590565b6040516371eb435360e01b815260048101849052602481018390526001600160a01b038216604482015260009073EE025A97c0Cfe83A0F93D3Ea1Ec31c2457010AF1906371eb4353906064015b60206040518083038186803b158015610dfc57600080fd5b505af4158015610e10573d6000803e3d6000fd5b505050506040513d601f19601f82011682018060405250810190610e349190614bd6565b949350505050565b6060610e46613300565b6000838152602091825260409081902080548251818502810185019093528083529192909190830182828015610ea557602002820191906000526020600020905b81546001600160a01b03168152600190910190602001808311610e87575b50505050509050919050565b60408051600480825260a0820190925260609160208201608080368337019050509050742132b0b1b7b7283937bc3ca1b7b73a3937b63632b960591b81600081518110610f0057610f00614bef565b6020026020010181815250507121bab93932b731bca1b7b73a3937b63632b960711b81600181518110610f3557610f35614bef565b6020026020010181815250507011d95b995cda5cd5985b1d5955985d5b1d607a1b81600281518110610f6957610f69614bef565b60200260200101818152505069151bdad95b95985d5b1d60b21b81600381518110610f9657610f96614bef565b60200260200101818152505090565b600060026000541415610fd35760405162461bcd60e51b8152600401610fca90614cb9565b60405180910390fd5b6002600090815586908690610fe6613300565b6000848152600291909101602090815260408083208584529091529020546001600160a01b0316141561102b5760405162461bcd60e51b8152600401610fca90614cf0565b611033613324565b6001600160a01b03166396994e37338a886040518463ffffffff1660e01b815260040161106293929190614a06565b600060405180830381600087803b15801561107c57600080fd5b505af1158015611090573d6000803e3d6000fd5b5050505061109f888833613333565b506110b088883389898960006134c9565b50600192505050600160005595945050505050565b600154610100900460ff16158080156110e257506001805460ff16105b806110fb5750303b1580156110fb57506001805460ff16145b61115e5760405162461bcd60e51b815260206004820152602e60248201527f496e697469616c697a61626c653a20636f6e747261637420697320616c72656160448201526d191e481a5b9a5d1a585b1a5e995960921b6064820152608401610fca565b6001805460ff1916811790558015611180576001805461ff0019166101001790555b600061118a613a4e565b6001600160a01b031614156111ec5760405162461bcd60e51b815260206004820152602260248201527f4d7573742062652063616c6c65642066726f6d2070726f787920636f6e74726160448201526118dd60f21b6064820152608401610fca565b6111f583613a76565b6111fe82613ae7565b8015611243576001805461ff00191681556040519081527f7f26b83ff96e1f2b6a682f133852f6798a09c465da95921460cefb38474024989060200160405180910390a15b505050565b60006002600054141561126d5760405162461bcd60e51b8152600401610fca90614cb9565b6002600090815584908490611280613300565b6000848152600291909101602090815260408083208584529091529020546001600160a01b031614156112c55760405162461bcd60e51b8152600401610fca90614cf0565b60006112cf613300565b60008881526002919091016020908152604080832089845290915280822054905163504b89bd60e01b815233600482015265ffffffffffff881660248201526001600160a01b03909116925081908190849063504b89bd90604401606060405180830381600087803b15801561134457600080fd5b505af1158015611358573d6000803e3d6000fd5b505050506040513d601f19601f8201168201806040525081019061137c9190614d1a565b92509250925089336001600160a01b03167f882188071c39e32cd4ffd0cef7a006a29eaae9e4018d72cef313a0f4686cdb918a868d87876040516113c4959493929190614d89565b60405180910390a36001965050505050505060016000559392505050565b606060006113ee613300565b6000848152602091909152604090205467ffffffffffffffff81111561141657611416614a9d565b60405190808252806020026020018201604052801561143f578160200160208202803683370190505b50905060005b61144d613300565b6000858152602091909152604090205481101561154357600061146e613300565b60008681526020919091526040902080548390811061148f5761148f614bef565b6000918252602091829020015460408051631b3508b760e01b815290516001600160a01b0390921693508392631b3508b792600480840193829003018186803b1580156114db57600080fd5b505afa1580156114ef573d6000803e3d6000fd5b505050506040513d601f19601f820116820180604052508101906115139190614bd6565b83838151811061152557611525614bef565b6020908102919091010152508061153b81614c9e565b915050611445565b5092915050565b600080600080600080600061158389611561613300565b6001600160a01b038b1660009081526004919091016020526040902090613b7c565b1561162957604051635c34776560e01b8152600481018a90526001600160a01b038916602482015273EE025A97c0Cfe83A0F93D3Ea1Ec31c2457010AF190635c3477659060440160e06040518083038186803b1580156115e257600080fd5b505af41580156115f6573d6000803e3d6000fd5b505050506040513d601f19601f8201168201806040525081019061161a9190614dc1565b96509650965096509650965096505b92959891949750929550565b3361163e611e59565b6001600160a01b0316146116645760405162461bcd60e51b8152600401610fca90614e15565b61166e6000613a76565b565b6040516373bb3b0960e01b8152600481018390526001600160a01b03821660248201526000908190819073EE025A97c0Cfe83A0F93D3Ea1Ec31c2457010AF1906373bb3b09906044015b60606040518083038186803b1580156116d257600080fd5b505af41580156116e6573d6000803e3d6000fd5b505050506040513d601f19601f8201168201806040525081019061170a9190614e4a565b9250925092509250925092565b6000611721613300565b6000848152600191909101602052604081209061173c613300565b600095865260020160209081526040808720958752948152848620546001600160a01b039081168352908201929092529092019092205416919050565b6000611783613300565b6001600160a01b03831660009081526004919091016020526040812091505b6117ab82613b94565b811015611243576117c56117bf8383613b9e565b84612a3d565b50806117d081614c9e565b9150506117a2565b60006117e2613300565b600092835260030160205250604090205490565b6000611800613300565b600093845260020160209081526040808520938552929052509020546001600160a01b031690565b6002600054141561184b5760405162461bcd60e51b8152600401610fca90614cb9565b60026000908155819061185c613300565b60008381526020919091526040902054116118d25760405162461bcd60e51b815260206004820152603060248201527f4e6f206c656e64696e67206d61726b65747320657869737420666f722061207360448201526f706563696669632063757272656e637960801b6064820152608401610fca565b60006118dc613300565b60008481526020919091526040812080549092508290829061190057611900614bef565b600091825260208220015483546001600160a01b0390911692508390600190811061192d5761192d614bef565b600091825260208220015484546001600160a01b0390911692506119f190859061195990600190614e78565b8154811061196957611969614bef565b600091825260209182902001546040805163e16695b560e01b815290516001600160a01b039092169263e16695b592600480840193829003018186803b1580156119b257600080fd5b505afa1580156119c6573d6000803e3d6000fd5b505050506040513d601f19601f820116820180604052508101906119ea9190614bd6565b6003613baa565b60405163baa2675760e01b8152600481018290529091506000906001600160a01b0385169063baa2675790602401602060405180830381600087803b158015611a3957600080fd5b505af1158015611a4d573d6000803e3d6000fd5b505050506040513d601f19601f82011682018060405250810190611a719190614bd6565b905060005b8554811015611b205785546000908290611a9290600190614e78565b14611acd5786611aa3836001614e8f565b81548110611ab357611ab3614bef565b6000918252602090912001546001600160a01b0316611acf565b855b905080878381548110611ae457611ae4614bef565b600091825260209091200180546001600160a01b0319166001600160a01b03929092169190911790555080611b1881614c9e565b915050611a76565b50611b29613c77565b6001600160a01b031663b95a33ab8883866001600160a01b031663e16695b56040518163ffffffff1660e01b815260040160206040518083038186803b158015611b7257600080fd5b505afa158015611b86573d6000803e3d6000fd5b505050506040513d601f19601f82011682018060405250810190611baa9190614bd6565b876001600160a01b03166371613c2d6040518163ffffffff1660e01b815260040160206040518083038186803b158015611be357600080fd5b505afa158015611bf7573d6000803e3d6000fd5b505050506040513d601f19601f82011682018060405250810190611c1b9190614bd6565b6040516001600160e01b031960e087901b1681526004810194909452602484019290925260448301526064820152608401600060405180830381600087803b158015611c6657600080fd5b505af1158015611c7a573d6000803e3d6000fd5b5050505083611c87613300565b600089815260029190910160209081526040808320868452909152902080546001600160a01b0319166001600160a01b0392909216919091179055611cca613300565b60008881526002919091016020908152604080832084845282529182902080546001600160a01b031916905581518981529081018390529081018390527f98cbd76ce00c88aafa668f8d8ee624506fdfd22fc473f74ea1b75addf544c2209060600160405180910390a1505060016000555050505050565b600060026000541415611d675760405162461bcd60e51b8152600401610fca90614cb9565b6002600090815584908490611d7a613300565b6000848152600291909101602090815260408083208584529091529020546001600160a01b03161415611dbf5760405162461bcd60e51b8152600401610fca90614cf0565b611dc7613324565b6001600160a01b03166396994e37343389346040518563ffffffff1660e01b8152600401611df793929190614a06565b6000604051808303818588803b158015611e1057600080fd5b505af1158015611e24573d6000803e3d6000fd5b5050505050611e34868633613333565b50611e468686336000348960006134c9565b5060019250505060016000559392505050565b60007f9acda75aebd150dd434541a4747a6dc606f4f1a59662477e67daf1fc0bf9e0aa6108f8565b60608060606000611e90613300565b6000888152600291909101602090815260408083208984529091529081902054905163d866d35560e01b8152600481018790526001600160a01b039091169150819063d866d35590602401610962565b604051639d3fc35d60e01b8152600481018390526001600160a01b03821660248201526000908190819073EE025A97c0Cfe83A0F93D3Ea1Ec31c2457010AF190639d3fc35d906044016116ba565b60606000611f3a613300565b6000848152602091909152604090205467ffffffffffffffff811115611f6257611f62614a9d565b604051908082528060200260200182016040528015611f8b578160200160208202803683370190505b50905060005b611f99613300565b60008581526020919091526040902054811015611543576000611fba613300565b600086815260209190915260409020805483908110611fdb57611fdb614bef565b600091825260209182902001546040805163e16695b560e01b815290516001600160a01b039092169350839263e16695b592600480840193829003018186803b15801561202757600080fd5b505afa15801561203b573d6000803e3d6000fd5b505050506040513d601f19601f8201168201806040525081019061205f9190614bd6565b83838151811061207157612071614bef565b6020908102919091010152508061208781614c9e565b915050611f91565b6000803361209b611e59565b6001600160a01b0316146120c15760405162461bcd60e51b8152600401610fca90614e15565b6120c9613c77565b6001600160a01b031663f7b637bb846040518263ffffffff1660e01b81526004016120f691815260200190565b60206040518083038186803b15801561210e57600080fd5b505afa158015612122573d6000803e3d6000fd5b505050506040513d601f19601f820116820180604052508101906121469190614ea7565b6121b15760405162461bcd60e51b815260206004820152603660248201527f4c656e64696e67206d61726b6574206861736e2774206265656e20696e697469604482015275616c697a656420696e207468652063757272656e637960501b6064820152608401610fca565b6121b9613c81565b6001600160a01b0316631eae0893846040518263ffffffff1660e01b81526004016121e691815260200190565b60206040518083038186803b1580156121fe57600080fd5b505afa158015612212573d6000803e3d6000fd5b505050506040513d601f19601f820116820180604052508101906122369190614ea7565b61227b5760405162461bcd60e51b81526020600482015260166024820152754e6f6e20737570706f727465642063757272656e637960501b6044820152606401610fca565b6000612285613300565b6000858152600391909101602052604081205491506122a2613300565b600086815260209190915260409020541115612387576122c0613300565b60008581526020919091526040902060016122d9613300565b600087815260209190915260409020546122f39190614e78565b8154811061230357612303614bef565b600091825260209182902001546040805163e16695b560e01b815290516001600160a01b039092169263e16695b592600480840193829003018186803b15801561234c57600080fd5b505afa158015612360573d6000803e3d6000fd5b505050506040513d601f19601f820116820180604052508101906123849190614bd6565b90505b6000612394826003613baa565b905061239e613c8b565b6001600160a01b0316634672758f866123b5613300565b60008981526003919091016020526040908190205490516001600160e01b031960e085901b1681526004810192909252602482015260448101849052606401602060405180830381600087803b15801561240e57600080fd5b505af1158015612422573d6000803e3d6000fd5b505050506040513d601f19601f820116820180604052508101906124469190614c6b565b9350612450613c8b565b6001600160a01b031663a97c4b536040518163ffffffff1660e01b8152600401602060405180830381600087803b15801561248a57600080fd5b505af115801561249e573d6000803e3d6000fd5b505050506040513d601f19601f820116820180604052508101906124c29190614c6b565b92506124cc613300565b600086815260209182526040812080546001810182559082529190200180546001600160a01b0319166001600160a01b0386161790558361250b613300565b600087815260029190910160209081526040808320858452909152902080546001600160a01b0319166001600160a01b03929092169190911790558261254f613300565b6000878152600191909101602090815260408083206001600160a01b0389811680865291909352922080546001600160a01b0319169390911692909217909155857f5f1af77fb16a8d70e13dc1d6eef0f7b3f37103d1bfc348e1e57469c718646543856125ba613300565b60008a81526020919091526040908190205490516125db9291908790614a06565b60405180910390a35050915091565b6000336125f5611e59565b6001600160a01b03161461261b5760405162461bcd60e51b8152600401610fca90614e15565b60005b612626613300565b600084815260209190915260409020548110156126df576000612647613300565b60008581526020919091526040902080548390811061266857612668614bef565b60009182526020822001546040805163280dce3760e21b815290516001600160a01b039092169350839263a03738dc9260048084019382900301818387803b1580156126b357600080fd5b505af11580156126c7573d6000803e3d6000fd5b505050505080806126d790614c9e565b91505061261e565b50600190505b919050565b606060006126f6613300565b6000848152602091909152604090205467ffffffffffffffff81111561271e5761271e614a9d565b604051908082528060200260200182016040528015612747578160200160208202803683370190505b50905060005b612755613300565b60008581526020919091526040902054811015611543576000612776613300565b60008681526020919091526040902080548390811061279757612797614bef565b60009182526020918290200154604080516371613c2d60e01b815290516001600160a01b03909216935083926371613c2d92600480840193829003018186803b1580156127e357600080fd5b505afa1580156127f7573d6000803e3d6000fd5b505050506040513d601f19601f8201168201806040525081019061281b9190614bd6565b83838151811061282d5761282d614bef565b6020908102919091010152508061284381614c9e565b91505061274d565b6040805160018082528183019092526060916020808301908036833701905050905069151bdad95b95985d5b1d60b21b81600081518110610f9657610f96614bef565b33612897611e59565b6001600160a01b0316146128bd5760405162461bcd60e51b8152600401610fca90614e15565b6000811161290d5760405162461bcd60e51b815260206004820152601760248201527f496e76616c696420636f6d706f756e6420666163746f720000000000000000006044820152606401610fca565b61291683610d77565b156129595760405162461bcd60e51b8152602060048201526013602482015272105b1c9958591e481a5b9a5d1a585b1a5e9959606a1b6044820152606401610fca565b612961613c77565b60405163c8b0f67360e01b81526004810185905260286024820152604481018390526001600160a01b03919091169063c8b0f67390606401600060405180830381600087803b1580156129b357600080fd5b505af11580156129c7573d6000803e3d6000fd5b50505050816129d4613300565b60009485526003016020526040909320929092555050565b604051637dfeb45160e01b815260048101849052602481018390526001600160a01b038216604482015260009073EE025A97c0Cfe83A0F93D3Ea1Ec31c2457010AF190637dfeb45190606401610de4565b600080612a48613300565b6001600160a01b0384166000908152600491909101602052604090209050612a708185613b7c565b612a7e576000915050610a5e565b600080612a8a86611f2e565b905060005b8151811015612b23576000612abe88848481518110612ab057612ab0614bef565b602002602001015189613333565b9050600080612ae78a868681518110612ad957612ad9614bef565b60200260200101518b613c95565b9092509050612af68289614e8f565b975082151580612b035750805b15612b0d57600195505b5050508080612b1b90614c9e565b915050612a8f565b5083158015612b30575081155b8015612bc35750612b3f613c77565b60405163386320d360e11b8152600481018890526001600160a01b03878116602483015291909116906370c641a69060440160206040518083038186803b158015612b8957600080fd5b505afa158015612b9d573d6000803e3d6000fd5b505050506040513d601f19601f82011682018060405250810190612bc19190614bd6565b155b15612bf857612bf686612bd4613300565b6001600160a01b03881660009081526004919091016020526040902090614027565b505b50505092915050565b600033612c0c611e59565b6001600160a01b031614612c325760405162461bcd60e51b8152600401610fca90614e15565b60005b612c3d613300565b600084815260209190915260409020548110156126df576000612c5e613300565b600085815260209190915260409020805483908110612c7f57612c7f614bef565b600091825260208220015460408051630b0863e760e11b815290516001600160a01b0390921693508392631610c7ce9260048084019382900301818387803b158015612cca57600080fd5b505af1158015612cde573d6000803e3d6000fd5b50505050508080612cee90614c9e565b915050612c35565b60606000612d02613300565b6000848152602091909152604090205467ffffffffffffffff811115612d2a57612d2a614a9d565b604051908082528060200260200182016040528015612d53578160200160208202803683370190505b50905060005b612d61613300565b60008581526020919091526040902054811015611543576000612d82613300565b600086815260209190915260409020805483908110612da357612da3614bef565b6000918252602091829020015460408051632f05aa6d60e11b815290516001600160a01b0390921693508392635e0b54da92600480840193829003018186803b158015612def57600080fd5b505afa158015612e03573d6000803e3d6000fd5b505050506040513d601f19601f82011682018060405250810190612e279190614bd6565b838381518110612e3957612e39614bef565b60209081029190910101525080612e4f81614c9e565b915050612d59565b600060026000541415612e7c5760405162461bcd60e51b8152600401610fca90614cb9565b6002600090815586908690612e8f613300565b6000848152600291909101602090815260408083208584529091529020546001600160a01b03161415612ed45760405162461bcd60e51b8152600401610fca90614cf0565b612ede8886612a3d565b50604051636bc806e760e11b8152600481018a90526024810189905260448101889052606481018790526001600160a01b038616608482015262ffffff851660a482015260009073EE025A97c0Cfe83A0F93D3Ea1Ec31c2457010AF19063d7900dce9060c40160206040518083038186803b158015612f5c57600080fd5b505af4158015612f70573d6000803e3d6000fd5b505050506040513d601f19601f82011682018060405250810190612f949190614bd6565b9050612fa8898988600085600060016134c9565b508789876001600160a01b03167f2aa75186e5dc6215fe9b34c1bbcf001827defa52de1574957eb71fbf5c920b8a8d85604051612fef929190918252602082015260400190565b60405180910390a4613002898988613333565b506001935050505060016000559695505050505050565b33613022611e59565b6001600160a01b0316146130485760405162461bcd60e51b8152600401610fca90614e15565b6001600160a01b0381166130ad5760405162461bcd60e51b815260206004820152602660248201527f4f776e61626c653a206e6577206f776e657220697320746865207a65726f206160448201526564647265737360d01b6064820152608401610fca565b6130b681613a76565b50565b6000600260005414156130de5760405162461bcd60e51b8152600401610fca90614cb9565b60026000908155869086906130f1613300565b6000848152600291909101602090815260408083208584529091529020546001600160a01b031614156131365760405162461bcd60e51b8152600401610fca90614cf0565b61109f888833613333565b60008061314c613300565b6001600160a01b03841660009081526004919091016020526040812091505b61317482613b94565b8110156132cb5760006131878383613b9e565b6040516385f3396760e01b8152600481018290526001600160a01b038716602482015290915060009073EE025A97c0Cfe83A0F93D3Ea1Ec31c2457010AF1906385f339679060440160206040518083038186803b1580156131e757600080fd5b505af41580156131fb573d6000803e3d6000fd5b505050506040513d601f19601f8201168201806040525081019061321f9190614bd6565b9050613229613c81565b6040516303a0a22f60e41b815260048101849052602481018390526001600160a01b039190911690633a0a22f09060440160206040518083038186803b15801561327257600080fd5b505afa158015613286573d6000803e3d6000fd5b505050506040513d601f19601f820116820180604052508101906132aa9190614bd6565b6132b49086614ec2565b9450505080806132c390614c9e565b91505061316b565b5050919050565b6060610a5e6132df613300565b6001600160a01b038416600090815260049190910160205260409020614033565b7f8041b8421ebd495cc61f38c788c9eb100daccf9bd36aa0bb920b7a15b2e0496590565b600061332e61403e565b905090565b60008061333e613300565b60008681526001919091016020526040812090613359613300565b6000888152600291909101602090815260408083208984528252808320546001600160a01b03908116855291840194909452918301812054925163ae100e6d60e01b81528683166004820152602481018890529290911692509081908190849063ae100e6d90604401606060405180830381600087803b1580156133dc57600080fd5b505af11580156133f0573d6000803e3d6000fd5b505050506040513d601f19601f820116820180604052508101906134149190614e4a565b925092509250826000146134be5761342a613c77565b604051634ab34b2b60e11b8152600481018a90526001600160a01b03888116602483015260448201849052606482018690529190911690639566965690608401602060405180830381600087803b15801561348457600080fd5b505af1158015613498573d6000803e3d6000fd5b505050506040513d601f19601f820116820180604052508101906134bc9190614ea7565b505b509695505050505050565b600080841161350b5760405162461bcd60e51b815260206004820152600e60248201526d125b9d985b1a5908185b5bdd5b9d60921b6044820152606401610fca565b60006135178988612a3d565b9050826135eb57613526613324565b6001600160a01b03166328ff7a42888b888a6040518563ffffffff1660e01b81526004016135579493929190614f03565b60206040518083038186803b15801561356f57600080fd5b505afa158015613583573d6000803e3d6000fd5b505050506040513d601f19601f820116820180604052508101906135a79190614ea7565b6135eb5760405162461bcd60e51b8152602060048201526015602482015274139bdd08195b9bdd59da0818dbdb1b185d195c985b605a1b6044820152606401610fca565b6000806135f6613300565b60008c8152600291909101602090815260408083208d845290915290819020549051633352870560e21b81526001600160a01b039091169063cd4a1c149061364a908b908d908c908c908c90600401614f37565b6040805180830381600087803b15801561366357600080fd5b505af1158015613677573d6000803e3d6000fd5b505050506040513d601f19601f8201168201806040525081019061369b9190614f73565b915091508461370e578115806136b15750600081115b156136c4576136c1600184614e8f565b92505b601483111561370e5760405162461bcd60e51b8152602060048201526016602482015275546f6f206d616e7920616374697665206f726465727360501b6044820152606401610fca565b8115613a1157600061371e613300565b60008d81526001919091016020526040812090613739613300565b60020160008f815260200190815260200160002060008e815260200190815260200160002060009054906101000a90046001600160a01b03166001600160a01b03166001600160a01b0316815260200190815260200160002060009054906101000a90046001600160a01b031690506001808111156137ba576137ba614d51565b8960018111156137cc576137cc614d51565b14156138cc576137da613324565b6001600160a01b0316634ba0c9b58b8e6137f4868d614e78565b6040518463ffffffff1660e01b815260040161381293929190614a06565b600060405180830381600087803b15801561382c57600080fd5b505af1158015613840573d6000803e3d6000fd5b50505050806001600160a01b031663a46971ad8b858e6040518463ffffffff1660e01b815260040161387493929190614a06565b602060405180830381600087803b15801561388e57600080fd5b505af11580156138a2573d6000803e3d6000fd5b505050506040513d601f19601f820116820180604052508101906138c69190614ea7565b506139c2565b6138d4613324565b6001600160a01b031663fb7bd3b48b8e6138ee868d614e78565b6040518463ffffffff1660e01b815260040161390c93929190614a06565b600060405180830381600087803b15801561392657600080fd5b505af115801561393a573d6000803e3d6000fd5b50505050806001600160a01b03166308482e5e8b858e6040518463ffffffff1660e01b815260040161396e93929190614a06565b602060405180830381600087803b15801561398857600080fd5b505af115801561399c573d6000803e3d6000fd5b505050506040513d601f19601f820116820180604052508101906139c09190614ea7565b505b8a8c8b6001600160a01b03167f5af4e2baa5d844d0439bc0122be7cf9d47b6680937eaabce58bd1ca2f16486ae8c8c8c89604051613a039493929190614f97565b60405180910390a460019450505b613a3f8b613a1d613300565b6001600160a01b038c1660009081526004919091016020526040902090614056565b50505050979650505050505050565b60007f360894a13ba1a3210667c828492db98dca3e2076cc3735a920a3ca505d382bbc6108f8565b7f9acda75aebd150dd434541a4747a6dc606f4f1a59662477e67daf1fc0bf9e0aa80546001600160a01b038381166001600160a01b0319831681179093556040519116919082907f8be0079c531659141344cd1fd0a4f28419497f9722a3daafe3b4186f6b6457e090600090a35050565b600080516020615154833981519152546001600160a01b031615613b4d5760405162461bcd60e51b815260206004820152601b60248201527f7265736f6c766572207265676973746572656420616c726561647900000000006044820152606401610fca565b60008051602061515483398151915280546001600160a01b0319166001600160a01b0392909216919091179055565b60008181526001830160205260408120541515610a5b565b6000610a5e825490565b6000610a5b8383614062565b6000808080613bc4613bbf6201518088614fd6565b61408c565b91945092509050613bd58583614e8f565b9150600c613be4600184614e78565b613bee9190614fd6565b613bf89084614e8f565b9250600c613c07600184614e78565b613c119190614fea565b613c1c906001614e8f565b91506000613c2a8484614200565b905080821115613c38578091505b613c456201518088614fea565b62015180613c54868686614286565b613c5e9190614ffe565b613c689190614e8f565b945086851015612bf657600080fd5b600061332e6143c3565b600061332e6143e2565b600061332e614402565b6000806000613ca48686611717565b90506000806000806000806000613cb9613300565b60008e8152600291909101602090815260408083208f845290915290819020549051630516d8c960e11b81526001600160a01b038d8116600483015290911690630a2db1929060240160e060405180830381600087803b158015613d1c57600080fd5b505af1158015613d30573d6000803e3d6000fd5b505050506040513d601f19601f82011682018060405250810190613d549190614dc1565b965096509650965096509650965081831115613de157613d72613324565b6001600160a01b031663fb7bd3b48c8f613d8c8688614e78565b6040518463ffffffff1660e01b8152600401613daa93929190614a06565b600060405180830381600087803b158015613dc457600080fd5b505af1158015613dd8573d6000803e3d6000fd5b50505050613e5c565b81831015613e5c57613df1613324565b6001600160a01b0316634ba0c9b58c8f613e0b8787614e78565b6040518463ffffffff1660e01b8152600401613e2993929190614a06565b600060405180830381600087803b158015613e4357600080fd5b505af1158015613e57573d6000803e3d6000fd5b505050505b8415613f2c57604051630424172f60e11b81526001600160a01b038916906308482e5e90613e92908e9089908690600401614a06565b602060405180830381600087803b158015613eac57600080fd5b505af1158015613ec0573d6000803e3d6000fd5b505050506040513d601f19601f82011682018060405250810190613ee49190614ea7565b50808d8c6001600160a01b03167f3dd6192fffa4612e795f196dc6367cfa6494cbe70d7cff3a039ebbbc4acb262e600089604051613f2392919061501d565b60405180910390a45b8315613ffc5760405163a46971ad60e01b81526001600160a01b0389169063a46971ad90613f62908e9088908690600401614a06565b602060405180830381600087803b158015613f7c57600080fd5b505af1158015613f90573d6000803e3d6000fd5b505050506040513d601f19601f82011682018060405250810190613fb49190614ea7565b50808d8c6001600160a01b03167f3dd6192fffa4612e795f196dc6367cfa6494cbe70d7cff3a039ebbbc4acb262e600188604051613ff392919061501d565b60405180910390a45b60006140088587614e8f565b1198506140158688614e8f565b99505050505050505050935093915050565b6000610a5b8383614425565b6060610a5e82614518565b600061332e69151bdad95b95985d5b1d60b21b614573565b6000610a5b8383614604565b600082600001828154811061407957614079614bef565b9060005260206000200154905092915050565b60008080838162253d8c6140a38362010bd9614ec2565b6140ad9190614ec2565b9050600062023ab16140c0836004615038565b6140ca91906150bd565b905060046140db8262023ab1615038565b6140e6906003614ec2565b6140f091906150bd565b6140fa90836150eb565b9150600062164b0961410d846001614ec2565b61411990610fa0615038565b61412391906150bd565b90506004614133826105b5615038565b61413d91906150bd565b61414790846150eb565b61415290601f614ec2565b9250600061098f614164856050615038565b61416e91906150bd565b9050600060506141808361098f615038565b61418a91906150bd565b61419490866150eb565b90506141a1600b836150bd565b94506141ae85600c615038565b6141b9836002614ec2565b6141c391906150eb565b915084836141d26031876150eb565b6141dd906064615038565b6141e79190614ec2565b6141f19190614ec2565b9a919950975095505050505050565b600081600114806142115750816003145b8061421c5750816005145b806142275750816007145b806142325750816008145b8061423d575081600a145b80614248575081600c145b156142555750601f610a5e565b816002146142655750601e610a5e565b61426e83614653565b61427957601c61427c565b601d5b60ff169392505050565b60006107b284101561429757600080fd5b838383600062253d8c60046064600c6142b1600e886150eb565b6142bb91906150bd565b6142c788611324614ec2565b6142d19190614ec2565b6142db91906150bd565b6142e6906003615038565b6142f091906150bd565b600c806142fe600e886150eb565b61430891906150bd565b61431390600c615038565b61431e6002886150eb565b61432891906150eb565b6143349061016f615038565b61433e91906150bd565b6004600c61434d600e896150eb565b61435791906150bd565b614363896112c0614ec2565b61436d9190614ec2565b614379906105b5615038565b61438391906150bd565b61438f617d4b876150eb565b6143999190614ec2565b6143a39190614ec2565b6143ad91906150eb565b6143b791906150eb565b98975050505050505050565b600061332e7011d95b995cda5cd5985b1d5955985d5b1d607a1b614573565b600061332e7121bab93932b731bca1b7b73a3937b63632b960711b614573565b600061332e742132b0b1b7b7283937bc3ca1b7b73a3937b63632b960591b614573565b6000818152600183016020526040812054801561450e576000614449600183614e78565b855490915060009061445d90600190614e78565b90508181146144c257600086600001828154811061447d5761447d614bef565b90600052602060002001549050808760000184815481106144a0576144a0614bef565b6000918252602080832090910192909255918252600188019052604090208390555b85548690806144d3576144d361512a565b600190038181906000526020600020016000905590558560010160008681526020019081526020016000206000905560019350505050610a5e565b6000915050610a5e565b606081600001805480602002602001604051908101604052809291908181526020018280548015610ea557602002820191906000526020600020905b8154815260200190600101908083116145545750505050509050919050565b60008181527f4abde63c3e81aefa5764b017968bc473e83e093d7e1a10247d19e0a3e41240196020908152604080832054815170026b4b9b9b4b7339030b2323932b9b99d1607d1b9381019390935260318084018690528251808503909101815260519093019091526001600160a01b031690816115435760405162461bcd60e51b8152600401610fca9190615140565b600081815260018301602052604081205461464b57508154600181810184556000848152602080822090930184905584548482528286019093526040902091909155610a5e565b506000610a5e565b6000614660600483614fea565b1580156146765750614673606483614fea565b15155b80610a5e575061468861019083614fea565b1592915050565b6001600160a01b03811681146130b657600080fd5b6000806000606084860312156146b957600080fd5b83356146c48161468f565b95602085013595506040909401359392505050565b6000806000606084860312156146ee57600080fd5b505081359360208301359350604090920135919050565b600081518084526020808501945080840160005b8381101561473557815187529582019590820190600101614719565b509495945050505050565b6060815260006147536060830186614705565b82810360208401526147658186614705565b905082810360408401526147798185614705565b9695505050505050565b6000806040838503121561479657600080fd5b8235915060208301356147a88161468f565b809150509250929050565b6000602082840312156147c557600080fd5b5035919050565b6000806000606084860312156147e157600080fd5b833592506020840135915060408401356147fa8161468f565b809150509250925092565b6020808252825182820181905260009190848201906040850190845b818110156148465783516001600160a01b031683529284019291840191600101614821565b50909695505050505050565b6020808252825182820181905260009190848201906040850190845b818110156148465783518352928401929184019160010161486e565b600281106130b657600080fd5b600080600080600060a086880312156148af57600080fd5b853594506020860135935060408601356148c88161488a565b94979396509394606081013594506080013592915050565b600080604083850312156148f357600080fd5b82356148fe8161468f565b915060208301356147a88161468f565b60008060006060848603121561492357600080fd5b8335925060208401359150604084013565ffffffffffff811681146147fa57600080fd5b602081526000610a5b6020830184614705565b6000806040838503121561496d57600080fd5b50508035926020909101359150565b60006020828403121561498e57600080fd5b81356149998161468f565b9392505050565b60008060008060008060c087890312156149b957600080fd5b8635955060208701359450604087013593506060870135925060808701356149e08161468f565b915060a087013562ffffff811681146149f857600080fd5b809150509295509295509295565b6001600160a01b039390931683526020830191909152604082015260600190565b805180151581146126e557600080fd5b600080600080600080600080610100898b031215614a5457600080fd5b885197506020890151965060408901519550606089015194506080890151935060a0890151925060c08901519150614a8e60e08a01614a27565b90509295985092959890939650565b634e487b7160e01b600052604160045260246000fd5b600082601f830112614ac457600080fd5b8151602067ffffffffffffffff80831115614ae157614ae1614a9d565b8260051b604051601f19603f83011681018181108482111715614b0657614b06614a9d565b604052938452858101830193838101925087851115614b2457600080fd5b83870191505b84821015614b4357815183529183019190830190614b2a565b979650505050505050565b600080600060608486031215614b6357600080fd5b835167ffffffffffffffff80821115614b7b57600080fd5b614b8787838801614ab3565b94506020860151915080821115614b9d57600080fd5b614ba987838801614ab3565b93506040860151915080821115614bbf57600080fd5b50614bcc86828701614ab3565b9150509250925092565b600060208284031215614be857600080fd5b5051919050565b634e487b7160e01b600052603260045260246000fd5b6000815180845260005b81811015614c2b57602081850181015186830182015201614c0f565b81811115614c3d576000602083870101525b50601f01601f19169290920160200192915050565b828152604060208201526000610e346040830184614c05565b600060208284031215614c7d57600080fd5b81516149998161468f565b634e487b7160e01b600052601160045260246000fd5b6000600019821415614cb257614cb2614c88565b5060010190565b6020808252601f908201527f5265656e7472616e637947756172643a207265656e7472616e742063616c6c00604082015260600190565b60208082526010908201526f496e76616c6964206d6174757269747960801b604082015260600190565b600080600060608486031215614d2f57600080fd5b8351614d3a8161488a565b602085015160409095015190969495509392505050565b634e487b7160e01b600052602160045260246000fd5b60028110614d8557634e487b7160e01b600052602160045260246000fd5b9052565b65ffffffffffff8616815260a08101614da56020830187614d67565b8460408301528360608301528260808301529695505050505050565b600080600080600080600060e0888a031215614ddc57600080fd5b5050855160208701516040880151606089015160808a015160a08b015160c0909b0151949c939b50919990985090965094509092509050565b6020808252818101527f4f776e61626c653a2063616c6c6572206973206e6f7420746865206f776e6572604082015260600190565b600080600060608486031215614e5f57600080fd5b8351925060208401519150604084015190509250925092565b600082821015614e8a57614e8a614c88565b500390565b60008219821115614ea257614ea2614c88565b500190565b600060208284031215614eb957600080fd5b610a5b82614a27565b600080821280156001600160ff1b0384900385131615614ee457614ee4614c88565b600160ff1b8390038412811615614efd57614efd614c88565b50500190565b6001600160a01b0385168152602081018490526040810183905260808101614f2e6060830184614d67565b95945050505050565b60a08101614f458288614d67565b6001600160a01b03959095166020820152604081019390935260608301919091521515608090910152919050565b60008060408385031215614f8657600080fd5b505080516020909101519092909150565b60808101614fa58287614d67565b84602083015283604083015282606083015295945050505050565b634e487b7160e01b600052601260045260246000fd5b600082614fe557614fe5614fc0565b500490565b600082614ff957614ff9614fc0565b500690565b600081600019048311821515161561501857615018614c88565b500290565b6040810161502b8285614d67565b8260208301529392505050565b60006001600160ff1b038184138284138082168684048611161561505e5761505e614c88565b600160ff1b600087128281168783058912161561507d5761507d614c88565b6000871292508782058712848416161561509957615099614c88565b878505871281841616156150af576150af614c88565b505050929093029392505050565b6000826150cc576150cc614fc0565b600160ff1b8214600019841416156150e6576150e6614c88565b500590565b60008083128015600160ff1b85018412161561510957615109614c88565b6001600160ff1b038401831381161561512457615124614c88565b50500390565b634e487b7160e01b600052603160045260246000fd5b602081526000610a5b6020830184614c0556fe4abde63c3e81aefa5764b017968bc473e83e093d7e1a10247d19e0a3e4124018a26469706673582212209579ad557fb5766546f67ec97e0e0df7739708c3db2ed35eb3e31a7287c5b21e64736f6c63430008090033",
  "deployedBytecode": "0x6080604052600436106102465760003560e01c80638a98174511610139578063e0997659116100b6578063eb092a261161007a578063eb092a2614610771578063ed6c9a9714610791578063f2fde38b146107b1578063faca409b146107d1578063fb54a6b3146107f1578063fc7008101461081157600080fd5b8063e0997659146106dc578063e219baef146106f1578063e906c10014610711578063e95dc18314610731578063e99d05381461075157600080fd5b80639d3fc35d116100fd5780639d3fc35d1461061c578063a02be3dc1461063c578063a963ad7f1461065c578063b3cb84501461069c578063bfd10cf6146106bc57600080fd5b80638a981745146105945780638b36d833146105b45780638b646f44146105d45780638da5cb5b146105e7578063953dbcaa146105fc57600080fd5b8063448255c7116101c7578063715018a61161018b578063715018a6146104e457806373bb3b09146104f957806385323e1a14610534578063870cf8ab14610554578063891d59651461057457600080fd5b8063448255c714610402578063485cc9551461042257806349f2ccbf1461044257806355aceb4e146104625780635c3477651461048f57600080fd5b80632af64bd31161020e5780632af64bd31461034e5780632e6c5e67146103735780632e77aea714610393578063381ada1f146103b35780633d03b9da146103e057600080fd5b80630312b5281461024b57806304f3bcec146102ad5780630594de6e146102da57806317b72ff41461030957806329985e5a14610337575b600080fd5b34801561025757600080fd5b5061026b6102663660046146a4565b610831565b604080519889526020890197909752958701949094526060860192909252608085015260a084015260c0830152151560e0820152610100015b60405180910390f35b3480156102b957600080fd5b506102c26108e6565b6040516001600160a01b0390911681526020016102a4565b3480156102e657600080fd5b506102fa6102f53660046146d9565b610907565b6040516102a493929190614740565b34801561031557600080fd5b50610329610324366004614783565b6109c6565b6040519081526020016102a4565b34801561034357600080fd5b5061034c610a64565b005b34801561035a57600080fd5b50610363610c11565b60405190151581526020016102a4565b34801561037f57600080fd5b5061036361038e3660046147b3565b610d77565b34801561039f57600080fd5b506103296103ae3660046147cc565b610d97565b3480156103bf57600080fd5b506103d36103ce3660046147b3565b610e3c565b6040516102a49190614805565b3480156103ec57600080fd5b506103f5610eb1565b6040516102a49190614852565b34801561040e57600080fd5b5061036361041d366004614897565b610fa5565b34801561042e57600080fd5b5061034c61043d3660046148e0565b6110c5565b34801561044e57600080fd5b5061036361045d36600461490e565b611248565b34801561046e57600080fd5b5061048261047d3660046147b3565b6113e2565b6040516102a49190614947565b34801561049b57600080fd5b506104af6104aa366004614783565b61154a565b604080519788526020880196909652948601939093526060850191909152608084015260a083015260c082015260e0016102a4565b3480156104f057600080fd5b5061034c611635565b34801561050557600080fd5b50610519610514366004614783565b611670565b604080519384526020840192909252908201526060016102a4565b34801561054057600080fd5b506102c261054f36600461495a565b611717565b34801561056057600080fd5b5061034c61056f36600461497c565b611779565b34801561058057600080fd5b5061032961058f3660046147b3565b6117d8565b3480156105a057600080fd5b506102c26105af36600461495a565b6117f6565b3480156105c057600080fd5b5061034c6105cf3660046147b3565b611828565b6103636105e23660046146d9565b611d42565b3480156105f357600080fd5b506102c2611e59565b34801561060857600080fd5b506102fa6106173660046146d9565b611e81565b34801561062857600080fd5b50610519610637366004614783565b611ee0565b34801561064857600080fd5b506104826106573660046147b3565b611f2e565b34801561066857600080fd5b5061067c6106773660046147b3565b61208f565b604080516001600160a01b039384168152929091166020830152016102a4565b3480156106a857600080fd5b506103636106b73660046147b3565b6125ea565b3480156106c857600080fd5b506104826106d73660046147b3565b6126ea565b3480156106e857600080fd5b506103f561284b565b3480156106fd57600080fd5b5061034c61070c3660046146d9565b61288e565b34801561071d57600080fd5b5061032961072c3660046147cc565b6129ec565b34801561073d57600080fd5b5061032961074c366004614783565b612a3d565b34801561075d57600080fd5b5061036361076c3660046147b3565b612c01565b34801561077d57600080fd5b5061048261078c3660046147b3565b612cf6565b34801561079d57600080fd5b506103636107ac3660046149a0565b612e57565b3480156107bd57600080fd5b5061034c6107cc36600461497c565b613019565b3480156107dd57600080fd5b506103636107ec366004614897565b6130b9565b3480156107fd57600080fd5b5061032961080c36600461497c565b613141565b34801561081d57600080fd5b506103f561082c36600461497c565b6132d2565b60008060008060008060008073__$32a707a14b21b266ff1308b021b66b1151$__630312b5288c8c8c6040518463ffffffff1660e01b815260040161087893929190614a06565b6101006040518083038186803b15801561089157600080fd5b505af41580156108a5573d6000803e3d6000fd5b505050506040513d601f19601f820116820180604052508101906108c99190614a37565b975097509750975097509750975097509397509397509397509397565b60006000805160206151548339815191525b546001600160a01b0316919050565b60608060606000610916613300565b600088815260029190910160209081526040808320898452909152908190205490516325fb168b60e11b8152600481018790526001600160a01b0390911691508190634bf62d16906024015b60006040518083038186803b15801561097a57600080fd5b505afa15801561098e573d6000803e3d6000fd5b505050506040513d6000823e601f3d908101601f191682016040526109b69190810190614b4e565b9350935093505093509350939050565b6040516385f3396760e01b8152600481018390526001600160a01b038216602482015260009073__$32a707a14b21b266ff1308b021b66b1151$__906385f339679060440160206040518083038186803b158015610a2357600080fd5b505af4158015610a37573d6000803e3d6000fd5b505050506040513d601f19601f82011682018060405250810190610a5b9190614bd6565b90505b92915050565b6000610a6e610eb1565b905060005b8151811015610c0d576000828281518110610a9057610a90614bef565b602002602001015190506000610ab160008051602061515483398151915290565b54604080517f5265736f6c766572206d697373696e67207461726765743a200000000000000060208201526039808201869052825180830390910181526059820192839052636795dbcd60e01b9092526001600160a01b0390921691636795dbcd91610b2291869190605d01614c52565b60206040518083038186803b158015610b3a57600080fd5b505afa158015610b4e573d6000803e3d6000fd5b505050506040513d601f19601f82011682018060405250810190610b729190614c6b565b60008381527f4abde63c3e81aefa5764b017968bc473e83e093d7e1a10247d19e0a3e4124019602090815260409182902080546001600160a01b0319166001600160a01b03851690811790915582518681529182015281519293507f88a93678a3692f6789d9546fc621bf7234b101ddb7d4fe479455112831b8aa68929081900390910190a150508080610c0590614c9e565b915050610a73565b5050565b600080610c1c610eb1565b905060005b8151811015610d6e576000828281518110610c3e57610c3e614bef565b60200260200101519050610c5d60008051602061515483398151915290565b600082815260019190910160205260409020546001600160a01b0316600080516020615154833981519152546040516321f8a72160e01b8152600481018490526001600160a01b03909116906321f8a7219060240160206040518083038186803b158015610cca57600080fd5b505afa158015610cde573d6000803e3d6000fd5b505050506040513d601f19601f82011682018060405250810190610d029190614c6b565b6001600160a01b0316141580610d4c575060008181527f4abde63c3e81aefa5764b017968bc473e83e093d7e1a10247d19e0a3e412401960205260409020546001600160a01b0316155b15610d5b576000935050505090565b5080610d6681614c9e565b915050610c21565b50600191505090565b6000610d81613300565b6000928352600301602052506040902054151590565b6040516371eb435360e01b815260048101849052602481018390526001600160a01b038216604482015260009073__$32a707a14b21b266ff1308b021b66b1151$__906371eb4353906064015b60206040518083038186803b158015610dfc57600080fd5b505af4158015610e10573d6000803e3d6000fd5b505050506040513d601f19601f82011682018060405250810190610e349190614bd6565b949350505050565b6060610e46613300565b6000838152602091825260409081902080548251818502810185019093528083529192909190830182828015610ea557602002820191906000526020600020905b81546001600160a01b03168152600190910190602001808311610e87575b50505050509050919050565b60408051600480825260a0820190925260609160208201608080368337019050509050742132b0b1b7b7283937bc3ca1b7b73a3937b63632b960591b81600081518110610f0057610f00614bef565b6020026020010181815250507121bab93932b731bca1b7b73a3937b63632b960711b81600181518110610f3557610f35614bef565b6020026020010181815250507011d95b995cda5cd5985b1d5955985d5b1d607a1b81600281518110610f6957610f69614bef565b60200260200101818152505069151bdad95b95985d5b1d60b21b81600381518110610f9657610f96614bef565b60200260200101818152505090565b600060026000541415610fd35760405162461bcd60e51b8152600401610fca90614cb9565b60405180910390fd5b6002600090815586908690610fe6613300565b6000848152600291909101602090815260408083208584529091529020546001600160a01b0316141561102b5760405162461bcd60e51b8152600401610fca90614cf0565b611033613324565b6001600160a01b03166396994e37338a886040518463ffffffff1660e01b815260040161106293929190614a06565b600060405180830381600087803b15801561107c57600080fd5b505af1158015611090573d6000803e3d6000fd5b5050505061109f888833613333565b506110b088883389898960006134c9565b50600192505050600160005595945050505050565b600154610100900460ff16158080156110e257506001805460ff16105b806110fb5750303b1580156110fb57506001805460ff16145b61115e5760405162461bcd60e51b815260206004820152602e60248201527f496e697469616c697a61626c653a20636f6e747261637420697320616c72656160448201526d191e481a5b9a5d1a585b1a5e995960921b6064820152608401610fca565b6001805460ff1916811790558015611180576001805461ff0019166101001790555b600061118a613a4e565b6001600160a01b031614156111ec5760405162461bcd60e51b815260206004820152602260248201527f4d7573742062652063616c6c65642066726f6d2070726f787920636f6e74726160448201526118dd60f21b6064820152608401610fca565b6111f583613a76565b6111fe82613ae7565b8015611243576001805461ff00191681556040519081527f7f26b83ff96e1f2b6a682f133852f6798a09c465da95921460cefb38474024989060200160405180910390a15b505050565b60006002600054141561126d5760405162461bcd60e51b8152600401610fca90614cb9565b6002600090815584908490611280613300565b6000848152600291909101602090815260408083208584529091529020546001600160a01b031614156112c55760405162461bcd60e51b8152600401610fca90614cf0565b60006112cf613300565b60008881526002919091016020908152604080832089845290915280822054905163504b89bd60e01b815233600482015265ffffffffffff881660248201526001600160a01b03909116925081908190849063504b89bd90604401606060405180830381600087803b15801561134457600080fd5b505af1158015611358573d6000803e3d6000fd5b505050506040513d601f19601f8201168201806040525081019061137c9190614d1a565b92509250925089336001600160a01b03167f882188071c39e32cd4ffd0cef7a006a29eaae9e4018d72cef313a0f4686cdb918a868d87876040516113c4959493929190614d89565b60405180910390a36001965050505050505060016000559392505050565b606060006113ee613300565b6000848152602091909152604090205467ffffffffffffffff81111561141657611416614a9d565b60405190808252806020026020018201604052801561143f578160200160208202803683370190505b50905060005b61144d613300565b6000858152602091909152604090205481101561154357600061146e613300565b60008681526020919091526040902080548390811061148f5761148f614bef565b6000918252602091829020015460408051631b3508b760e01b815290516001600160a01b0390921693508392631b3508b792600480840193829003018186803b1580156114db57600080fd5b505afa1580156114ef573d6000803e3d6000fd5b505050506040513d601f19601f820116820180604052508101906115139190614bd6565b83838151811061152557611525614bef565b6020908102919091010152508061153b81614c9e565b915050611445565b5092915050565b600080600080600080600061158389611561613300565b6001600160a01b038b1660009081526004919091016020526040902090613b7c565b1561162957604051635c34776560e01b8152600481018a90526001600160a01b038916602482015273__$32a707a14b21b266ff1308b021b66b1151$__90635c3477659060440160e06040518083038186803b1580156115e257600080fd5b505af41580156115f6573d6000803e3d6000fd5b505050506040513d601f19601f8201168201806040525081019061161a9190614dc1565b96509650965096509650965096505b92959891949750929550565b3361163e611e59565b6001600160a01b0316146116645760405162461bcd60e51b8152600401610fca90614e15565b61166e6000613a76565b565b6040516373bb3b0960e01b8152600481018390526001600160a01b03821660248201526000908190819073__$32a707a14b21b266ff1308b021b66b1151$__906373bb3b09906044015b60606040518083038186803b1580156116d257600080fd5b505af41580156116e6573d6000803e3d6000fd5b505050506040513d601f19601f8201168201806040525081019061170a9190614e4a565b9250925092509250925092565b6000611721613300565b6000848152600191909101602052604081209061173c613300565b600095865260020160209081526040808720958752948152848620546001600160a01b039081168352908201929092529092019092205416919050565b6000611783613300565b6001600160a01b03831660009081526004919091016020526040812091505b6117ab82613b94565b811015611243576117c56117bf8383613b9e565b84612a3d565b50806117d081614c9e565b9150506117a2565b60006117e2613300565b600092835260030160205250604090205490565b6000611800613300565b600093845260020160209081526040808520938552929052509020546001600160a01b031690565b6002600054141561184b5760405162461bcd60e51b8152600401610fca90614cb9565b60026000908155819061185c613300565b60008381526020919091526040902054116118d25760405162461bcd60e51b815260206004820152603060248201527f4e6f206c656e64696e67206d61726b65747320657869737420666f722061207360448201526f706563696669632063757272656e637960801b6064820152608401610fca565b60006118dc613300565b60008481526020919091526040812080549092508290829061190057611900614bef565b600091825260208220015483546001600160a01b0390911692508390600190811061192d5761192d614bef565b600091825260208220015484546001600160a01b0390911692506119f190859061195990600190614e78565b8154811061196957611969614bef565b600091825260209182902001546040805163e16695b560e01b815290516001600160a01b039092169263e16695b592600480840193829003018186803b1580156119b257600080fd5b505afa1580156119c6573d6000803e3d6000fd5b505050506040513d601f19601f820116820180604052508101906119ea9190614bd6565b6003613baa565b60405163baa2675760e01b8152600481018290529091506000906001600160a01b0385169063baa2675790602401602060405180830381600087803b158015611a3957600080fd5b505af1158015611a4d573d6000803e3d6000fd5b505050506040513d601f19601f82011682018060405250810190611a719190614bd6565b905060005b8554811015611b205785546000908290611a9290600190614e78565b14611acd5786611aa3836001614e8f565b81548110611ab357611ab3614bef565b6000918252602090912001546001600160a01b0316611acf565b855b905080878381548110611ae457611ae4614bef565b600091825260209091200180546001600160a01b0319166001600160a01b03929092169190911790555080611b1881614c9e565b915050611a76565b50611b29613c77565b6001600160a01b031663b95a33ab8883866001600160a01b031663e16695b56040518163ffffffff1660e01b815260040160206040518083038186803b158015611b7257600080fd5b505afa158015611b86573d6000803e3d6000fd5b505050506040513d601f19601f82011682018060405250810190611baa9190614bd6565b876001600160a01b03166371613c2d6040518163ffffffff1660e01b815260040160206040518083038186803b158015611be357600080fd5b505afa158015611bf7573d6000803e3d6000fd5b505050506040513d601f19601f82011682018060405250810190611c1b9190614bd6565b6040516001600160e01b031960e087901b1681526004810194909452602484019290925260448301526064820152608401600060405180830381600087803b158015611c6657600080fd5b505af1158015611c7a573d6000803e3d6000fd5b5050505083611c87613300565b600089815260029190910160209081526040808320868452909152902080546001600160a01b0319166001600160a01b0392909216919091179055611cca613300565b60008881526002919091016020908152604080832084845282529182902080546001600160a01b031916905581518981529081018390529081018390527f98cbd76ce00c88aafa668f8d8ee624506fdfd22fc473f74ea1b75addf544c2209060600160405180910390a1505060016000555050505050565b600060026000541415611d675760405162461bcd60e51b8152600401610fca90614cb9565b6002600090815584908490611d7a613300565b6000848152600291909101602090815260408083208584529091529020546001600160a01b03161415611dbf5760405162461bcd60e51b8152600401610fca90614cf0565b611dc7613324565b6001600160a01b03166396994e37343389346040518563ffffffff1660e01b8152600401611df793929190614a06565b6000604051808303818588803b158015611e1057600080fd5b505af1158015611e24573d6000803e3d6000fd5b5050505050611e34868633613333565b50611e468686336000348960006134c9565b5060019250505060016000559392505050565b60007f9acda75aebd150dd434541a4747a6dc606f4f1a59662477e67daf1fc0bf9e0aa6108f8565b60608060606000611e90613300565b6000888152600291909101602090815260408083208984529091529081902054905163d866d35560e01b8152600481018790526001600160a01b039091169150819063d866d35590602401610962565b604051639d3fc35d60e01b8152600481018390526001600160a01b03821660248201526000908190819073__$32a707a14b21b266ff1308b021b66b1151$__90639d3fc35d906044016116ba565b60606000611f3a613300565b6000848152602091909152604090205467ffffffffffffffff811115611f6257611f62614a9d565b604051908082528060200260200182016040528015611f8b578160200160208202803683370190505b50905060005b611f99613300565b60008581526020919091526040902054811015611543576000611fba613300565b600086815260209190915260409020805483908110611fdb57611fdb614bef565b600091825260209182902001546040805163e16695b560e01b815290516001600160a01b039092169350839263e16695b592600480840193829003018186803b15801561202757600080fd5b505afa15801561203b573d6000803e3d6000fd5b505050506040513d601f19601f8201168201806040525081019061205f9190614bd6565b83838151811061207157612071614bef565b6020908102919091010152508061208781614c9e565b915050611f91565b6000803361209b611e59565b6001600160a01b0316146120c15760405162461bcd60e51b8152600401610fca90614e15565b6120c9613c77565b6001600160a01b031663f7b637bb846040518263ffffffff1660e01b81526004016120f691815260200190565b60206040518083038186803b15801561210e57600080fd5b505afa158015612122573d6000803e3d6000fd5b505050506040513d601f19601f820116820180604052508101906121469190614ea7565b6121b15760405162461bcd60e51b815260206004820152603660248201527f4c656e64696e67206d61726b6574206861736e2774206265656e20696e697469604482015275616c697a656420696e207468652063757272656e637960501b6064820152608401610fca565b6121b9613c81565b6001600160a01b0316631eae0893846040518263ffffffff1660e01b81526004016121e691815260200190565b60206040518083038186803b1580156121fe57600080fd5b505afa158015612212573d6000803e3d6000fd5b505050506040513d601f19601f820116820180604052508101906122369190614ea7565b61227b5760405162461bcd60e51b81526020600482015260166024820152754e6f6e20737570706f727465642063757272656e637960501b6044820152606401610fca565b6000612285613300565b6000858152600391909101602052604081205491506122a2613300565b600086815260209190915260409020541115612387576122c0613300565b60008581526020919091526040902060016122d9613300565b600087815260209190915260409020546122f39190614e78565b8154811061230357612303614bef565b600091825260209182902001546040805163e16695b560e01b815290516001600160a01b039092169263e16695b592600480840193829003018186803b15801561234c57600080fd5b505afa158015612360573d6000803e3d6000fd5b505050506040513d601f19601f820116820180604052508101906123849190614bd6565b90505b6000612394826003613baa565b905061239e613c8b565b6001600160a01b0316634672758f866123b5613300565b60008981526003919091016020526040908190205490516001600160e01b031960e085901b1681526004810192909252602482015260448101849052606401602060405180830381600087803b15801561240e57600080fd5b505af1158015612422573d6000803e3d6000fd5b505050506040513d601f19601f820116820180604052508101906124469190614c6b565b9350612450613c8b565b6001600160a01b031663a97c4b536040518163ffffffff1660e01b8152600401602060405180830381600087803b15801561248a57600080fd5b505af115801561249e573d6000803e3d6000fd5b505050506040513d601f19601f820116820180604052508101906124c29190614c6b565b92506124cc613300565b600086815260209182526040812080546001810182559082529190200180546001600160a01b0319166001600160a01b0386161790558361250b613300565b600087815260029190910160209081526040808320858452909152902080546001600160a01b0319166001600160a01b03929092169190911790558261254f613300565b6000878152600191909101602090815260408083206001600160a01b0389811680865291909352922080546001600160a01b0319169390911692909217909155857f5f1af77fb16a8d70e13dc1d6eef0f7b3f37103d1bfc348e1e57469c718646543856125ba613300565b60008a81526020919091526040908190205490516125db9291908790614a06565b60405180910390a35050915091565b6000336125f5611e59565b6001600160a01b03161461261b5760405162461bcd60e51b8152600401610fca90614e15565b60005b612626613300565b600084815260209190915260409020548110156126df576000612647613300565b60008581526020919091526040902080548390811061266857612668614bef565b60009182526020822001546040805163280dce3760e21b815290516001600160a01b039092169350839263a03738dc9260048084019382900301818387803b1580156126b357600080fd5b505af11580156126c7573d6000803e3d6000fd5b505050505080806126d790614c9e565b91505061261e565b50600190505b919050565b606060006126f6613300565b6000848152602091909152604090205467ffffffffffffffff81111561271e5761271e614a9d565b604051908082528060200260200182016040528015612747578160200160208202803683370190505b50905060005b612755613300565b60008581526020919091526040902054811015611543576000612776613300565b60008681526020919091526040902080548390811061279757612797614bef565b60009182526020918290200154604080516371613c2d60e01b815290516001600160a01b03909216935083926371613c2d92600480840193829003018186803b1580156127e357600080fd5b505afa1580156127f7573d6000803e3d6000fd5b505050506040513d601f19601f8201168201806040525081019061281b9190614bd6565b83838151811061282d5761282d614bef565b6020908102919091010152508061284381614c9e565b91505061274d565b6040805160018082528183019092526060916020808301908036833701905050905069151bdad95b95985d5b1d60b21b81600081518110610f9657610f96614bef565b33612897611e59565b6001600160a01b0316146128bd5760405162461bcd60e51b8152600401610fca90614e15565b6000811161290d5760405162461bcd60e51b815260206004820152601760248201527f496e76616c696420636f6d706f756e6420666163746f720000000000000000006044820152606401610fca565b61291683610d77565b156129595760405162461bcd60e51b8152602060048201526013602482015272105b1c9958591e481a5b9a5d1a585b1a5e9959606a1b6044820152606401610fca565b612961613c77565b60405163c8b0f67360e01b81526004810185905260286024820152604481018390526001600160a01b03919091169063c8b0f67390606401600060405180830381600087803b1580156129b357600080fd5b505af11580156129c7573d6000803e3d6000fd5b50505050816129d4613300565b60009485526003016020526040909320929092555050565b604051637dfeb45160e01b815260048101849052602481018390526001600160a01b038216604482015260009073__$32a707a14b21b266ff1308b021b66b1151$__90637dfeb45190606401610de4565b600080612a48613300565b6001600160a01b0384166000908152600491909101602052604090209050612a708185613b7c565b612a7e576000915050610a5e565b600080612a8a86611f2e565b905060005b8151811015612b23576000612abe88848481518110612ab057612ab0614bef565b602002602001015189613333565b9050600080612ae78a868681518110612ad957612ad9614bef565b60200260200101518b613c95565b9092509050612af68289614e8f565b975082151580612b035750805b15612b0d57600195505b5050508080612b1b90614c9e565b915050612a8f565b5083158015612b30575081155b8015612bc35750612b3f613c77565b60405163386320d360e11b8152600481018890526001600160a01b03878116602483015291909116906370c641a69060440160206040518083038186803b158015612b8957600080fd5b505afa158015612b9d573d6000803e3d6000fd5b505050506040513d601f19601f82011682018060405250810190612bc19190614bd6565b155b15612bf857612bf686612bd4613300565b6001600160a01b03881660009081526004919091016020526040902090614027565b505b50505092915050565b600033612c0c611e59565b6001600160a01b031614612c325760405162461bcd60e51b8152600401610fca90614e15565b60005b612c3d613300565b600084815260209190915260409020548110156126df576000612c5e613300565b600085815260209190915260409020805483908110612c7f57612c7f614bef565b600091825260208220015460408051630b0863e760e11b815290516001600160a01b0390921693508392631610c7ce9260048084019382900301818387803b158015612cca57600080fd5b505af1158015612cde573d6000803e3d6000fd5b50505050508080612cee90614c9e565b915050612c35565b60606000612d02613300565b6000848152602091909152604090205467ffffffffffffffff811115612d2a57612d2a614a9d565b604051908082528060200260200182016040528015612d53578160200160208202803683370190505b50905060005b612d61613300565b60008581526020919091526040902054811015611543576000612d82613300565b600086815260209190915260409020805483908110612da357612da3614bef565b6000918252602091829020015460408051632f05aa6d60e11b815290516001600160a01b0390921693508392635e0b54da92600480840193829003018186803b158015612def57600080fd5b505afa158015612e03573d6000803e3d6000fd5b505050506040513d601f19601f82011682018060405250810190612e279190614bd6565b838381518110612e3957612e39614bef565b60209081029190910101525080612e4f81614c9e565b915050612d59565b600060026000541415612e7c5760405162461bcd60e51b8152600401610fca90614cb9565b6002600090815586908690612e8f613300565b6000848152600291909101602090815260408083208584529091529020546001600160a01b03161415612ed45760405162461bcd60e51b8152600401610fca90614cf0565b612ede8886612a3d565b50604051636bc806e760e11b8152600481018a90526024810189905260448101889052606481018790526001600160a01b038616608482015262ffffff851660a482015260009073__$32a707a14b21b266ff1308b021b66b1151$__9063d7900dce9060c40160206040518083038186803b158015612f5c57600080fd5b505af4158015612f70573d6000803e3d6000fd5b505050506040513d601f19601f82011682018060405250810190612f949190614bd6565b9050612fa8898988600085600060016134c9565b508789876001600160a01b03167f2aa75186e5dc6215fe9b34c1bbcf001827defa52de1574957eb71fbf5c920b8a8d85604051612fef929190918252602082015260400190565b60405180910390a4613002898988613333565b506001935050505060016000559695505050505050565b33613022611e59565b6001600160a01b0316146130485760405162461bcd60e51b8152600401610fca90614e15565b6001600160a01b0381166130ad5760405162461bcd60e51b815260206004820152602660248201527f4f776e61626c653a206e6577206f776e657220697320746865207a65726f206160448201526564647265737360d01b6064820152608401610fca565b6130b681613a76565b50565b6000600260005414156130de5760405162461bcd60e51b8152600401610fca90614cb9565b60026000908155869086906130f1613300565b6000848152600291909101602090815260408083208584529091529020546001600160a01b031614156131365760405162461bcd60e51b8152600401610fca90614cf0565b61109f888833613333565b60008061314c613300565b6001600160a01b03841660009081526004919091016020526040812091505b61317482613b94565b8110156132cb5760006131878383613b9e565b6040516385f3396760e01b8152600481018290526001600160a01b038716602482015290915060009073__$32a707a14b21b266ff1308b021b66b1151$__906385f339679060440160206040518083038186803b1580156131e757600080fd5b505af41580156131fb573d6000803e3d6000fd5b505050506040513d601f19601f8201168201806040525081019061321f9190614bd6565b9050613229613c81565b6040516303a0a22f60e41b815260048101849052602481018390526001600160a01b039190911690633a0a22f09060440160206040518083038186803b15801561327257600080fd5b505afa158015613286573d6000803e3d6000fd5b505050506040513d601f19601f820116820180604052508101906132aa9190614bd6565b6132b49086614ec2565b9450505080806132c390614c9e565b91505061316b565b5050919050565b6060610a5e6132df613300565b6001600160a01b038416600090815260049190910160205260409020614033565b7f8041b8421ebd495cc61f38c788c9eb100daccf9bd36aa0bb920b7a15b2e0496590565b600061332e61403e565b905090565b60008061333e613300565b60008681526001919091016020526040812090613359613300565b6000888152600291909101602090815260408083208984528252808320546001600160a01b03908116855291840194909452918301812054925163ae100e6d60e01b81528683166004820152602481018890529290911692509081908190849063ae100e6d90604401606060405180830381600087803b1580156133dc57600080fd5b505af11580156133f0573d6000803e3d6000fd5b505050506040513d601f19601f820116820180604052508101906134149190614e4a565b925092509250826000146134be5761342a613c77565b604051634ab34b2b60e11b8152600481018a90526001600160a01b03888116602483015260448201849052606482018690529190911690639566965690608401602060405180830381600087803b15801561348457600080fd5b505af1158015613498573d6000803e3d6000fd5b505050506040513d601f19601f820116820180604052508101906134bc9190614ea7565b505b509695505050505050565b600080841161350b5760405162461bcd60e51b815260206004820152600e60248201526d125b9d985b1a5908185b5bdd5b9d60921b6044820152606401610fca565b60006135178988612a3d565b9050826135eb57613526613324565b6001600160a01b03166328ff7a42888b888a6040518563ffffffff1660e01b81526004016135579493929190614f03565b60206040518083038186803b15801561356f57600080fd5b505afa158015613583573d6000803e3d6000fd5b505050506040513d601f19601f820116820180604052508101906135a79190614ea7565b6135eb5760405162461bcd60e51b8152602060048201526015602482015274139bdd08195b9bdd59da0818dbdb1b185d195c985b605a1b6044820152606401610fca565b6000806135f6613300565b60008c8152600291909101602090815260408083208d845290915290819020549051633352870560e21b81526001600160a01b039091169063cd4a1c149061364a908b908d908c908c908c90600401614f37565b6040805180830381600087803b15801561366357600080fd5b505af1158015613677573d6000803e3d6000fd5b505050506040513d601f19601f8201168201806040525081019061369b9190614f73565b915091508461370e578115806136b15750600081115b156136c4576136c1600184614e8f565b92505b601483111561370e5760405162461bcd60e51b8152602060048201526016602482015275546f6f206d616e7920616374697665206f726465727360501b6044820152606401610fca565b8115613a1157600061371e613300565b60008d81526001919091016020526040812090613739613300565b60020160008f815260200190815260200160002060008e815260200190815260200160002060009054906101000a90046001600160a01b03166001600160a01b03166001600160a01b0316815260200190815260200160002060009054906101000a90046001600160a01b031690506001808111156137ba576137ba614d51565b8960018111156137cc576137cc614d51565b14156138cc576137da613324565b6001600160a01b0316634ba0c9b58b8e6137f4868d614e78565b6040518463ffffffff1660e01b815260040161381293929190614a06565b600060405180830381600087803b15801561382c57600080fd5b505af1158015613840573d6000803e3d6000fd5b50505050806001600160a01b031663a46971ad8b858e6040518463ffffffff1660e01b815260040161387493929190614a06565b602060405180830381600087803b15801561388e57600080fd5b505af11580156138a2573d6000803e3d6000fd5b505050506040513d601f19601f820116820180604052508101906138c69190614ea7565b506139c2565b6138d4613324565b6001600160a01b031663fb7bd3b48b8e6138ee868d614e78565b6040518463ffffffff1660e01b815260040161390c93929190614a06565b600060405180830381600087803b15801561392657600080fd5b505af115801561393a573d6000803e3d6000fd5b50505050806001600160a01b03166308482e5e8b858e6040518463ffffffff1660e01b815260040161396e93929190614a06565b602060405180830381600087803b15801561398857600080fd5b505af115801561399c573d6000803e3d6000fd5b505050506040513d601f19601f820116820180604052508101906139c09190614ea7565b505b8a8c8b6001600160a01b03167f5af4e2baa5d844d0439bc0122be7cf9d47b6680937eaabce58bd1ca2f16486ae8c8c8c89604051613a039493929190614f97565b60405180910390a460019450505b613a3f8b613a1d613300565b6001600160a01b038c1660009081526004919091016020526040902090614056565b50505050979650505050505050565b60007f360894a13ba1a3210667c828492db98dca3e2076cc3735a920a3ca505d382bbc6108f8565b7f9acda75aebd150dd434541a4747a6dc606f4f1a59662477e67daf1fc0bf9e0aa80546001600160a01b038381166001600160a01b0319831681179093556040519116919082907f8be0079c531659141344cd1fd0a4f28419497f9722a3daafe3b4186f6b6457e090600090a35050565b600080516020615154833981519152546001600160a01b031615613b4d5760405162461bcd60e51b815260206004820152601b60248201527f7265736f6c766572207265676973746572656420616c726561647900000000006044820152606401610fca565b60008051602061515483398151915280546001600160a01b0319166001600160a01b0392909216919091179055565b60008181526001830160205260408120541515610a5b565b6000610a5e825490565b6000610a5b8383614062565b6000808080613bc4613bbf6201518088614fd6565b61408c565b91945092509050613bd58583614e8f565b9150600c613be4600184614e78565b613bee9190614fd6565b613bf89084614e8f565b9250600c613c07600184614e78565b613c119190614fea565b613c1c906001614e8f565b91506000613c2a8484614200565b905080821115613c38578091505b613c456201518088614fea565b62015180613c54868686614286565b613c5e9190614ffe565b613c689190614e8f565b945086851015612bf657600080fd5b600061332e6143c3565b600061332e6143e2565b600061332e614402565b6000806000613ca48686611717565b90506000806000806000806000613cb9613300565b60008e8152600291909101602090815260408083208f845290915290819020549051630516d8c960e11b81526001600160a01b038d8116600483015290911690630a2db1929060240160e060405180830381600087803b158015613d1c57600080fd5b505af1158015613d30573d6000803e3d6000fd5b505050506040513d601f19601f82011682018060405250810190613d549190614dc1565b965096509650965096509650965081831115613de157613d72613324565b6001600160a01b031663fb7bd3b48c8f613d8c8688614e78565b6040518463ffffffff1660e01b8152600401613daa93929190614a06565b600060405180830381600087803b158015613dc457600080fd5b505af1158015613dd8573d6000803e3d6000fd5b50505050613e5c565b81831015613e5c57613df1613324565b6001600160a01b0316634ba0c9b58c8f613e0b8787614e78565b6040518463ffffffff1660e01b8152600401613e2993929190614a06565b600060405180830381600087803b158015613e4357600080fd5b505af1158015613e57573d6000803e3d6000fd5b505050505b8415613f2c57604051630424172f60e11b81526001600160a01b038916906308482e5e90613e92908e9089908690600401614a06565b602060405180830381600087803b158015613eac57600080fd5b505af1158015613ec0573d6000803e3d6000fd5b505050506040513d601f19601f82011682018060405250810190613ee49190614ea7565b50808d8c6001600160a01b03167f3dd6192fffa4612e795f196dc6367cfa6494cbe70d7cff3a039ebbbc4acb262e600089604051613f2392919061501d565b60405180910390a45b8315613ffc5760405163a46971ad60e01b81526001600160a01b0389169063a46971ad90613f62908e9088908690600401614a06565b602060405180830381600087803b158015613f7c57600080fd5b505af1158015613f90573d6000803e3d6000fd5b505050506040513d601f19601f82011682018060405250810190613fb49190614ea7565b50808d8c6001600160a01b03167f3dd6192fffa4612e795f196dc6367cfa6494cbe70d7cff3a039ebbbc4acb262e600188604051613ff392919061501d565b60405180910390a45b60006140088587614e8f565b1198506140158688614e8f565b99505050505050505050935093915050565b6000610a5b8383614425565b6060610a5e82614518565b600061332e69151bdad95b95985d5b1d60b21b614573565b6000610a5b8383614604565b600082600001828154811061407957614079614bef565b9060005260206000200154905092915050565b60008080838162253d8c6140a38362010bd9614ec2565b6140ad9190614ec2565b9050600062023ab16140c0836004615038565b6140ca91906150bd565b905060046140db8262023ab1615038565b6140e6906003614ec2565b6140f091906150bd565b6140fa90836150eb565b9150600062164b0961410d846001614ec2565b61411990610fa0615038565b61412391906150bd565b90506004614133826105b5615038565b61413d91906150bd565b61414790846150eb565b61415290601f614ec2565b9250600061098f614164856050615038565b61416e91906150bd565b9050600060506141808361098f615038565b61418a91906150bd565b61419490866150eb565b90506141a1600b836150bd565b94506141ae85600c615038565b6141b9836002614ec2565b6141c391906150eb565b915084836141d26031876150eb565b6141dd906064615038565b6141e79190614ec2565b6141f19190614ec2565b9a919950975095505050505050565b600081600114806142115750816003145b8061421c5750816005145b806142275750816007145b806142325750816008145b8061423d575081600a145b80614248575081600c145b156142555750601f610a5e565b816002146142655750601e610a5e565b61426e83614653565b61427957601c61427c565b601d5b60ff169392505050565b60006107b284101561429757600080fd5b838383600062253d8c60046064600c6142b1600e886150eb565b6142bb91906150bd565b6142c788611324614ec2565b6142d19190614ec2565b6142db91906150bd565b6142e6906003615038565b6142f091906150bd565b600c806142fe600e886150eb565b61430891906150bd565b61431390600c615038565b61431e6002886150eb565b61432891906150eb565b6143349061016f615038565b61433e91906150bd565b6004600c61434d600e896150eb565b61435791906150bd565b614363896112c0614ec2565b61436d9190614ec2565b614379906105b5615038565b61438391906150bd565b61438f617d4b876150eb565b6143999190614ec2565b6143a39190614ec2565b6143ad91906150eb565b6143b791906150eb565b98975050505050505050565b600061332e7011d95b995cda5cd5985b1d5955985d5b1d607a1b614573565b600061332e7121bab93932b731bca1b7b73a3937b63632b960711b614573565b600061332e742132b0b1b7b7283937bc3ca1b7b73a3937b63632b960591b614573565b6000818152600183016020526040812054801561450e576000614449600183614e78565b855490915060009061445d90600190614e78565b90508181146144c257600086600001828154811061447d5761447d614bef565b90600052602060002001549050808760000184815481106144a0576144a0614bef565b6000918252602080832090910192909255918252600188019052604090208390555b85548690806144d3576144d361512a565b600190038181906000526020600020016000905590558560010160008681526020019081526020016000206000905560019350505050610a5e565b6000915050610a5e565b606081600001805480602002602001604051908101604052809291908181526020018280548015610ea557602002820191906000526020600020905b8154815260200190600101908083116145545750505050509050919050565b60008181527f4abde63c3e81aefa5764b017968bc473e83e093d7e1a10247d19e0a3e41240196020908152604080832054815170026b4b9b9b4b7339030b2323932b9b99d1607d1b9381019390935260318084018690528251808503909101815260519093019091526001600160a01b031690816115435760405162461bcd60e51b8152600401610fca9190615140565b600081815260018301602052604081205461464b57508154600181810184556000848152602080822090930184905584548482528286019093526040902091909155610a5e565b506000610a5e565b6000614660600483614fea565b1580156146765750614673606483614fea565b15155b80610a5e575061468861019083614fea565b1592915050565b6001600160a01b03811681146130b657600080fd5b6000806000606084860312156146b957600080fd5b83356146c48161468f565b95602085013595506040909401359392505050565b6000806000606084860312156146ee57600080fd5b505081359360208301359350604090920135919050565b600081518084526020808501945080840160005b8381101561473557815187529582019590820190600101614719565b509495945050505050565b6060815260006147536060830186614705565b82810360208401526147658186614705565b905082810360408401526147798185614705565b9695505050505050565b6000806040838503121561479657600080fd5b8235915060208301356147a88161468f565b809150509250929050565b6000602082840312156147c557600080fd5b5035919050565b6000806000606084860312156147e157600080fd5b833592506020840135915060408401356147fa8161468f565b809150509250925092565b6020808252825182820181905260009190848201906040850190845b818110156148465783516001600160a01b031683529284019291840191600101614821565b50909695505050505050565b6020808252825182820181905260009190848201906040850190845b818110156148465783518352928401929184019160010161486e565b600281106130b657600080fd5b600080600080600060a086880312156148af57600080fd5b853594506020860135935060408601356148c88161488a565b94979396509394606081013594506080013592915050565b600080604083850312156148f357600080fd5b82356148fe8161468f565b915060208301356147a88161468f565b60008060006060848603121561492357600080fd5b8335925060208401359150604084013565ffffffffffff811681146147fa57600080fd5b602081526000610a5b6020830184614705565b6000806040838503121561496d57600080fd5b50508035926020909101359150565b60006020828403121561498e57600080fd5b81356149998161468f565b9392505050565b60008060008060008060c087890312156149b957600080fd5b8635955060208701359450604087013593506060870135925060808701356149e08161468f565b915060a087013562ffffff811681146149f857600080fd5b809150509295509295509295565b6001600160a01b039390931683526020830191909152604082015260600190565b805180151581146126e557600080fd5b600080600080600080600080610100898b031215614a5457600080fd5b885197506020890151965060408901519550606089015194506080890151935060a0890151925060c08901519150614a8e60e08a01614a27565b90509295985092959890939650565b634e487b7160e01b600052604160045260246000fd5b600082601f830112614ac457600080fd5b8151602067ffffffffffffffff80831115614ae157614ae1614a9d565b8260051b604051601f19603f83011681018181108482111715614b0657614b06614a9d565b604052938452858101830193838101925087851115614b2457600080fd5b83870191505b84821015614b4357815183529183019190830190614b2a565b979650505050505050565b600080600060608486031215614b6357600080fd5b835167ffffffffffffffff80821115614b7b57600080fd5b614b8787838801614ab3565b94506020860151915080821115614b9d57600080fd5b614ba987838801614ab3565b93506040860151915080821115614bbf57600080fd5b50614bcc86828701614ab3565b9150509250925092565b600060208284031215614be857600080fd5b5051919050565b634e487b7160e01b600052603260045260246000fd5b6000815180845260005b81811015614c2b57602081850181015186830182015201614c0f565b81811115614c3d576000602083870101525b50601f01601f19169290920160200192915050565b828152604060208201526000610e346040830184614c05565b600060208284031215614c7d57600080fd5b81516149998161468f565b634e487b7160e01b600052601160045260246000fd5b6000600019821415614cb257614cb2614c88565b5060010190565b6020808252601f908201527f5265656e7472616e637947756172643a207265656e7472616e742063616c6c00604082015260600190565b60208082526010908201526f496e76616c6964206d6174757269747960801b604082015260600190565b600080600060608486031215614d2f57600080fd5b8351614d3a8161488a565b602085015160409095015190969495509392505050565b634e487b7160e01b600052602160045260246000fd5b60028110614d8557634e487b7160e01b600052602160045260246000fd5b9052565b65ffffffffffff8616815260a08101614da56020830187614d67565b8460408301528360608301528260808301529695505050505050565b600080600080600080600060e0888a031215614ddc57600080fd5b5050855160208701516040880151606089015160808a015160a08b015160c0909b0151949c939b50919990985090965094509092509050565b6020808252818101527f4f776e61626c653a2063616c6c6572206973206e6f7420746865206f776e6572604082015260600190565b600080600060608486031215614e5f57600080fd5b8351925060208401519150604084015190509250925092565b600082821015614e8a57614e8a614c88565b500390565b60008219821115614ea257614ea2614c88565b500190565b600060208284031215614eb957600080fd5b610a5b82614a27565b600080821280156001600160ff1b0384900385131615614ee457614ee4614c88565b600160ff1b8390038412811615614efd57614efd614c88565b50500190565b6001600160a01b0385168152602081018490526040810183905260808101614f2e6060830184614d67565b95945050505050565b60a08101614f458288614d67565b6001600160a01b03959095166020820152604081019390935260608301919091521515608090910152919050565b60008060408385031215614f8657600080fd5b505080516020909101519092909150565b60808101614fa58287614d67565b84602083015283604083015282606083015295945050505050565b634e487b7160e01b600052601260045260246000fd5b600082614fe557614fe5614fc0565b500490565b600082614ff957614ff9614fc0565b500690565b600081600019048311821515161561501857615018614c88565b500290565b6040810161502b8285614d67565b8260208301529392505050565b60006001600160ff1b038184138284138082168684048611161561505e5761505e614c88565b600160ff1b600087128281168783058912161561507d5761507d614c88565b6000871292508782058712848416161561509957615099614c88565b878505871281841616156150af576150af614c88565b505050929093029392505050565b6000826150cc576150cc614fc0565b600160ff1b8214600019841416156150e6576150e6614c88565b500590565b60008083128015600160ff1b85018412161561510957615109614c88565b6001600160ff1b038401831381161561512457615124614c88565b50500390565b634e487b7160e01b600052603160045260246000fd5b602081526000610a5b6020830184614c0556fe4abde63c3e81aefa5764b017968bc473e83e093d7e1a10247d19e0a3e4124018a26469706673582212209579ad557fb5766546f67ec97e0e0df7739708c3db2ed35eb3e31a7287c5b21e64736f6c63430008090033",
  "libraries": {
    "FundCalculationLogic": "0xEE025A97c0Cfe83A0F93D3Ea1Ec31c2457010AF1"
  },
  "implementation": "0xd2eaC2c3766146540Cdf49fA52890a1ffcCB6fFA",
  "devdoc": {
    "kind": "dev",
    "methods": {
      "acceptedContracts()": {
        "details": "The contact name listed in this method is also needed to be listed `requiredContracts` method."
      },
      "calculateBorrowedFundsFromOrders(bytes32,address)": {
        "params": {
          "_ccy": "Currency name in bytes32",
          "_user": "User's address"
        },
        "returns": {
          "borrowedAmount": "The borrowed amount due to the borrow orders being filled on the order book",
          "debtAmount": "The debt amount due to the borrow orders being filled on the order book",
          "workingOrdersAmount": "The working orders amount on the order book"
        }
      },
      "calculateFunds(bytes32,address)": {
        "params": {
          "_ccy": "Currency name in bytes32",
          "_user": "User's address"
        },
        "returns": {
          "borrowedAmount": "The borrowed amount due to the borrow orders being filled on the order book",
          "claimableAmount": "The claimable amount due to the lending orders being filled on the order book",
          "collateralAmount": "The actual collateral amount that is calculated by netting using the haircut.",
          "debtAmount": "The debt amount due to the borrow orders being filled on the order book",
          "lentAmount": "The lent amount due to the lend orders being filled on the order book",
          "workingBorrowOrdersAmount": "The working orders amount on the borrow order book",
          "workingLendOrdersAmount": "The working orders amount on the lend order book"
        }
      },
      "calculateLentFundsFromOrders(bytes32,address)": {
        "params": {
          "_ccy": "Currency name in bytes32",
          "_user": "User's address"
        },
        "returns": {
          "claimableAmount": "The claimable amount due to the lending orders being filled on the order book",
          "lentAmount": "The lent amount due to the lend orders being filled on the order book",
          "workingOrdersAmount": "The working orders amount on the order book"
        }
      },
      "calculateTotalFundsInETH(address,bytes32,uint256)": {
        "params": {
          "_user": "User's address"
        }
      },
      "cancelOrder(bytes32,uint256,uint48)": {
        "params": {
          "_ccy": "Currency name in bytes32 of the selected market",
          "_maturity": "The maturity of the selected market",
          "_orderId": "Market order id"
        }
      },
      "cleanAllOrders(address)": {
        "params": {
          "_user": "User's address"
        }
      },
      "cleanOrders(bytes32,address)": {
        "params": {
          "_ccy": "Currency name in bytes32",
          "_user": "User's address"
        }
      },
      "createLendingMarket(bytes32)": {
        "params": {
          "_ccy": "Main currency for new lending market"
        },
        "returns": {
          "market": "The proxy contract address of created lending market"
        }
      },
      "createOrder(bytes32,uint256,uint8,uint256,uint256)": {
        "params": {
          "_amount": "Amount of funds the maker wants to borrow/lend",
          "_ccy": "Currency name in bytes32 of the selected market",
          "_maturity": "The maturity of the selected market",
          "_side": "Order position type, Borrow or Lend",
          "_unitPrice": "Amount of unit price taker wish to borrow/lend"
        },
        "returns": {
          "_0": "True if the execution of the operation succeeds"
        }
      },
      "depositAndCreateLendOrderWithETH(bytes32,uint256,uint256)": {
        "params": {
          "_ccy": "Currency name in bytes32 of the selected market",
          "_maturity": "The maturity of the selected market",
          "_unitPrice": "Amount of unit price taker wish to borrow/lend"
        },
        "returns": {
          "_0": "True if the execution of the operation succeeds"
        }
      },
      "depositAndCreateOrder(bytes32,uint256,uint8,uint256,uint256)": {
        "params": {
          "_amount": "Amount of funds the maker wants to borrow/lend",
          "_ccy": "Currency name in bytes32 of the selected market",
          "_maturity": "The maturity of the selected market",
          "_side": "Order position type, Borrow or Lend",
          "_unitPrice": "Amount of unit price taker wish to borrow/lend"
        },
        "returns": {
          "_0": "True if the execution of the operation succeeds"
        }
      },
      "executeLiquidationCall(bytes32,bytes32,uint256,uint256,address,uint24)": {
        "details": "A liquidation amount is calculated from the selected debt, but its maximum amount is the same as a collateral amount. That amount needs to be set at liquidationAmountMax otherwise currency swapping using Uniswap will fail if the collateral is insufficient.",
        "params": {
          "_collateralCcy": "Currency name to be used as collateral",
          "_debtCcy": "Currency name to be used as debt",
          "_debtMaturity": "The market maturity of the debt",
          "_liquidationAmountMax": "Maximum acceptable liquidation Amount in debt currency",
          "_poolFee": "Uniswap pool fee",
          "_user": "User's address"
        },
        "returns": {
          "_0": "True if the execution of the operation succeeds"
        }
      },
      "getBorrowOrderBook(bytes32,uint256,uint256)": {
        "params": {
          "_ccy": "Currency name in bytes32",
          "_limit": "The limit number to get",
          "_maturity": "The maturity of the market"
        },
        "returns": {
          "amounts": "The array of borrow order amounts",
          "quantities": "The array of borrow order quantities",
          "unitPrices": "The array of borrow unit prices"
        }
      },
      "getBorrowUnitPrices(bytes32)": {
        "params": {
          "_ccy": "Currency name in bytes32"
        },
        "returns": {
          "_0": "Array with the borrowing prices per future value of the lending market"
        }
      },
      "getFutureValue(bytes32,uint256,address)": {
        "params": {
          "_ccy": "Currency name in bytes32 for Lending Market",
          "_maturity": "The maturity of the market",
          "_user": "User's address"
        },
        "returns": {
          "futureValue": "The future value"
        }
      },
      "getFutureValueVault(bytes32,uint256)": {
        "params": {
          "_ccy": "Currency name in bytes32",
          "_maturity": "The maturity of the market"
        },
        "returns": {
          "_0": "The lending market address"
        }
      },
      "getGenesisDate(bytes32)": {
        "params": {
          "_ccy": "Currency name in bytes32"
        },
        "returns": {
          "_0": "The genesis date"
        }
      },
      "getLendOrderBook(bytes32,uint256,uint256)": {
        "params": {
          "_ccy": "Currency name in bytes32",
          "_limit": "The limit number to get",
          "_maturity": "The maturity of the market"
        },
        "returns": {
          "amounts": "The array of lend order amounts",
          "quantities": "The array of lend order quantities",
          "unitPrices": "The array of borrow unit prices"
        }
      },
      "getLendUnitPrices(bytes32)": {
        "params": {
          "_ccy": "Currency name in bytes32"
        },
        "returns": {
          "_0": "Array with the lending prices per future value of the lending market"
        }
      },
      "getLendingMarket(bytes32,uint256)": {
        "params": {
          "_ccy": "Currency name in bytes32",
          "_maturity": "The maturity of the market"
        },
        "returns": {
          "_0": "The lending market address"
        }
      },
      "getLendingMarkets(bytes32)": {
        "params": {
          "_ccy": "Currency name in bytes32"
        },
        "returns": {
          "_0": "Array with the lending market address"
        }
      },
      "getMaturities(bytes32)": {
        "params": {
          "_ccy": "Currency name in bytes32"
        },
        "returns": {
          "_0": "Array with the lending market maturity"
        }
      },
      "getMidUnitPrices(bytes32)": {
        "params": {
          "_ccy": "Currency name in bytes32"
        },
        "returns": {
          "_0": "Array with the mid prices per future value of the lending market"
        }
      },
      "getPresentValue(bytes32,uint256,address)": {
        "params": {
          "_ccy": "Currency name in bytes32 for Lending Market",
          "_maturity": "The maturity of the market",
          "_user": "User's address"
        },
        "returns": {
          "presentValue": "The present value"
        }
      },
      "getTotalPresentValue(bytes32,address)": {
        "params": {
          "_ccy": "Currency name in bytes32 for Lending Market",
          "_user": "User's address"
        },
        "returns": {
          "totalPresentValue": "The total present value"
        }
      },
      "getTotalPresentValueInETH(address)": {
        "params": {
          "_user": "User's address"
        },
        "returns": {
          "totalPresentValue": "The total present value in ETH"
        }
      },
      "getUsedCurrencies(address)": {
        "params": {
          "_user": "User's address"
        },
        "returns": {
          "_0": "The array of the currency"
        }
      },
      "initialize(address,address)": {
        "details": "Function is invoked by the proxy contract when the contract is added to the ProxyController.",
        "params": {
          "_owner": "The address of the contract owner",
          "_resolver": "The address of the Address Resolver contract"
        }
      },
      "initializeLendingMarket(bytes32,uint256,uint256)": {
        "params": {
          "_ccy": "Currency name in bytes32",
          "_compoundFactor": "The initial compound factor when the initial market is opened",
          "_genesisDate": "The genesis date when the initial market is opened"
        }
      },
      "isInitializedLendingMarket(bytes32)": {
        "params": {
          "_ccy": "Currency name in bytes32"
        },
        "returns": {
          "_0": "The boolean if the lending market is initialized or not"
        }
      },
      "owner()": {
        "details": "Returns the address of the current owner."
      },
      "pauseLendingMarkets(bytes32)": {
        "params": {
          "_ccy": "Currency for pausing all lending markets"
        },
        "returns": {
          "_0": "True if the execution of the operation succeeds"
        }
      },
      "renounceOwnership()": {
        "details": "Leaves the contract without owner. It will not be possible to call `onlyOwner` functions anymore. Can only be called by the current owner. NOTE: Renouncing ownership will leave the contract without an owner, thereby removing any functionality that is only available to the owner."
      },
      "requiredContracts()": {
        "details": "The contract name list is in `./libraries/Contracts.sol`."
      },
      "rotateLendingMarkets(bytes32)": {
        "params": {
          "_ccy": "Currency name in bytes32 of the selected market"
        }
      },
      "transferOwnership(address)": {
        "details": "Transfers ownership of the contract to a new account (`newOwner`). Can only be called by the current owner."
      },
      "unpauseLendingMarkets(bytes32)": {
        "params": {
          "_ccy": "Currency name in bytes32"
        },
        "returns": {
          "_0": "True if the execution of the operation succeeds"
        }
      }
    },
    "version": 1
  },
  "userdoc": {
    "kind": "user",
    "methods": {
      "acceptedContracts()": {
        "notice": "Returns contract names that can call this contract."
      },
      "calculateBorrowedFundsFromOrders(bytes32,address)": {
        "notice": "Gets the funds that are calculated from the user's borrowing order list for the selected currency."
      },
      "calculateFunds(bytes32,address)": {
        "notice": "Gets the funds that are calculated from the user's lending and borrowing order list for the selected currency."
      },
      "calculateLentFundsFromOrders(bytes32,address)": {
        "notice": "Gets the funds that are calculated from the user's lending order list for the selected currency."
      },
      "calculateTotalFundsInETH(address,bytes32,uint256)": {
        "notice": "Gets the funds that are calculated from the user's lending and borrowing order list for all currencies in ETH."
      },
      "cancelOrder(bytes32,uint256,uint48)": {
        "notice": "Cancels the own order."
      },
      "cleanAllOrders(address)": {
        "notice": "Cleans user's all orders to remove order ids that are already filled on the order book."
      },
      "cleanOrders(bytes32,address)": {
        "notice": "Cleans user's orders to remove order ids that are already filled on the order book for a selected currency."
      },
      "createLendingMarket(bytes32)": {
        "notice": "Deploys new Lending Market and save address at lendingMarkets mapping.Reverts on deployment market with existing currency and term"
      },
      "createOrder(bytes32,uint256,uint8,uint256,uint256)": {
        "notice": "Creates an order. Takes orders if the orders are matched, and places new order if not match it. In addition, converts the future value to the genesis value if there is future value in past maturity before the execution of order creation."
      },
      "depositAndCreateLendOrderWithETH(bytes32,uint256,uint256)": {
        "notice": "Deposits funds and creates a lend order with ETH at the same time."
      },
      "depositAndCreateOrder(bytes32,uint256,uint8,uint256,uint256)": {
        "notice": "Deposits funds and creates an order at the same time."
      },
      "executeLiquidationCall(bytes32,bytes32,uint256,uint256,address,uint24)": {
        "notice": "Liquidates a lending position if the user's coverage is less than 1."
      },
      "getBorrowOrderBook(bytes32,uint256,uint256)": {
        "notice": "Gets the order book of borrow."
      },
      "getBorrowUnitPrices(bytes32)": {
        "notice": "Gets borrow prices per future value for the selected currency."
      },
      "getFutureValue(bytes32,uint256,address)": {
        "notice": "Gets the future value of the account for selected currency and maturity."
      },
      "getFutureValueVault(bytes32,uint256)": {
        "notice": "Gets the feture value contract address for the selected currency and maturity."
      },
      "getGenesisDate(bytes32)": {
        "notice": "Gets the genesis date when the first market opens for the selected currency."
      },
      "getLendOrderBook(bytes32,uint256,uint256)": {
        "notice": "Gets the order book of lend."
      },
      "getLendUnitPrices(bytes32)": {
        "notice": "Gets lend prices per future value for the selected currency."
      },
      "getLendingMarket(bytes32,uint256)": {
        "notice": "Gets the lending market contract address for the selected currency and maturity."
      },
      "getLendingMarkets(bytes32)": {
        "notice": "Gets the lending market contract addresses for the selected currency."
      },
      "getMaturities(bytes32)": {
        "notice": "Gets maturities for the selected currency."
      },
      "getMidUnitPrices(bytes32)": {
        "notice": "Gets mid prices per future value for the selected currency."
      },
      "getPresentValue(bytes32,uint256,address)": {
        "notice": "Gets the present value of the account for selected currency and maturity."
      },
      "getTotalPresentValue(bytes32,address)": {
        "notice": "Gets the total present value of the account for selected currency."
      },
      "getTotalPresentValueInETH(address)": {
        "notice": "Gets the total present value of the account converted to ETH."
      },
      "getUsedCurrencies(address)": {
        "notice": "Get all the currencies in which the user has lending positions or orders."
      },
      "initialize(address,address)": {
        "notice": "Initializes the contract."
      },
      "initializeLendingMarket(bytes32,uint256,uint256)": {
        "notice": "Initialize the lending market to set a genesis date and compound factor"
      },
      "isInitializedLendingMarket(bytes32)": {
        "notice": "Gets if the lending market is initialized."
      },
      "pauseLendingMarkets(bytes32)": {
        "notice": "Pauses previously deployed lending market by currency"
      },
      "requiredContracts()": {
        "notice": "Returns the contract names used in this contract."
      },
      "rotateLendingMarkets(bytes32)": {
        "notice": "Rotates the lending markets. In this rotation, the following actions are happened. - Updates the maturity at the beginning of the market array. - Moves the beginning of the market array to the end of it (Market rotation). - Update the compound factor in this contract using the next market unit price. (Auto-rolls)"
      },
      "unpauseLendingMarkets(bytes32)": {
        "notice": "Unpauses previously deployed lending market by currency"
      }
    },
    "notice": "Implements the module to manage separated lending order-book markets per maturity. This contract also works as a factory contract that can deploy(start)a new lending market for selected currency and maturity and has the calculation logic for the Genesis value in addition. Deployed Lending Markets are rotated and reused as it reaches the maturity date. At the time of rotation, a new maturity date is set and the compound factor is updated. The users mainly call this contract to create orders to lend or borrow funds.",
    "version": 1
  },
  "storageLayout": {
    "storage": [
      {
        "astId": 1446,
        "contract": "contracts/LendingMarketController.sol:LendingMarketController",
        "label": "_status",
        "offset": 0,
        "slot": "0",
        "type": "t_uint256"
      },
      {
        "astId": 1183,
        "contract": "contracts/LendingMarketController.sol:LendingMarketController",
        "label": "_initialized",
        "offset": 0,
        "slot": "1",
        "type": "t_uint8"
      },
      {
        "astId": 1186,
        "contract": "contracts/LendingMarketController.sol:LendingMarketController",
        "label": "_initializing",
        "offset": 1,
        "slot": "1",
        "type": "t_bool"
      }
    ],
    "types": {
      "t_bool": {
        "encoding": "inplace",
        "label": "bool",
        "numberOfBytes": "1"
      },
      "t_uint256": {
        "encoding": "inplace",
        "label": "uint256",
        "numberOfBytes": "32"
      },
      "t_uint8": {
        "encoding": "inplace",
        "label": "uint8",
        "numberOfBytes": "1"
      }
    }
  }
}