{
  "address": "0x92A72F5885359a7527023270d026B838BF7318bb",
  "abi": [
    {
      "anonymous": false,
      "inputs": [
        {
          "indexed": false,
          "internalType": "uint256",
          "name": "timestamp",
          "type": "uint256"
        }
      ],
      "name": "EmergencyTerminationExecuted",
      "type": "event"
    },
    {
      "anonymous": false,
      "inputs": [
        {
          "indexed": true,
          "internalType": "bytes32",
          "name": "ccy",
          "type": "bytes32"
        },
        {
          "indexed": true,
          "internalType": "uint8",
          "name": "orderBookId",
          "type": "uint8"
        },
        {
          "indexed": false,
          "internalType": "address",
          "name": "futureValueVault",
          "type": "address"
        },
        {
          "indexed": false,
          "internalType": "uint256",
          "name": "openingDate",
          "type": "uint256"
        },
        {
          "indexed": false,
          "internalType": "uint256",
          "name": "maturity",
          "type": "uint256"
        }
      ],
      "name": "OrderBookCreated",
      "type": "event"
    },
    {
      "anonymous": false,
      "inputs": [
        {
          "indexed": false,
          "internalType": "bytes32",
          "name": "ccy",
          "type": "bytes32"
        },
        {
          "indexed": false,
          "internalType": "uint256",
          "name": "oldMaturity",
          "type": "uint256"
        },
        {
          "indexed": false,
          "internalType": "uint256",
          "name": "newMaturity",
          "type": "uint256"
        }
      ],
      "name": "OrderBooksRotated",
      "type": "event"
    },
    {
      "inputs": [
        {
          "internalType": "uint256",
          "name": "_timestamp",
          "type": "uint256"
        },
        {
          "internalType": "uint256",
          "name": "_period",
          "type": "uint256"
        }
      ],
      "name": "calculateNextMaturity",
      "outputs": [
        {
          "internalType": "uint256",
          "name": "",
          "type": "uint256"
        }
      ],
      "stateMutability": "pure",
      "type": "function"
    },
    {
      "inputs": [
        {
          "internalType": "bytes32",
          "name": "_ccy",
          "type": "bytes32"
        },
        {
          "internalType": "uint256",
          "name": "_maturity",
          "type": "uint256"
        }
      ],
      "name": "getOrderBookDetail",
      "outputs": [
        {
          "internalType": "uint256",
          "name": "bestLendUnitPrice",
          "type": "uint256"
        },
        {
          "internalType": "uint256",
          "name": "bestBorrowUnitPrice",
          "type": "uint256"
        },
        {
          "internalType": "uint256",
          "name": "midUnitPrice",
          "type": "uint256"
        },
        {
          "internalType": "uint256",
          "name": "maxLendUnitPrice",
          "type": "uint256"
        },
        {
          "internalType": "uint256",
          "name": "minBorrowUnitPrice",
          "type": "uint256"
        },
        {
          "internalType": "uint256",
          "name": "openingUnitPrice",
          "type": "uint256"
        },
        {
          "internalType": "uint256",
          "name": "openingDate",
          "type": "uint256"
        },
        {
          "internalType": "bool",
          "name": "isReady",
          "type": "bool"
        }
      ],
      "stateMutability": "view",
      "type": "function"
    },
    {
      "inputs": [
        {
          "internalType": "bytes32[]",
          "name": "_ccys",
          "type": "bytes32[]"
        }
      ],
      "name": "getOrderBookDetails",
      "outputs": [
        {
          "components": [
            {
              "internalType": "bytes32",
              "name": "ccy",
              "type": "bytes32"
            },
            {
              "internalType": "uint256",
              "name": "maturity",
              "type": "uint256"
            },
            {
              "internalType": "uint256",
              "name": "bestLendUnitPrice",
              "type": "uint256"
            },
            {
              "internalType": "uint256",
              "name": "bestBorrowUnitPrice",
              "type": "uint256"
            },
            {
              "internalType": "uint256",
              "name": "midUnitPrice",
              "type": "uint256"
            },
            {
              "internalType": "uint256",
              "name": "maxLendUnitPrice",
              "type": "uint256"
            },
            {
              "internalType": "uint256",
              "name": "minBorrowUnitPrice",
              "type": "uint256"
            },
            {
              "internalType": "uint256",
              "name": "openingUnitPrice",
              "type": "uint256"
            },
            {
              "internalType": "uint256",
              "name": "openingDate",
              "type": "uint256"
            },
            {
              "internalType": "bool",
              "name": "isReady",
              "type": "bool"
            }
          ],
          "internalType": "struct ILendingMarketController.OrderBookDetail[]",
          "name": "orderBookDetails",
          "type": "tuple[]"
        }
      ],
      "stateMutability": "view",
      "type": "function"
    },
    {
      "inputs": [
        {
          "internalType": "bytes32",
          "name": "_ccy",
          "type": "bytes32"
        }
      ],
      "name": "getOrderBookDetailsPerCurrency",
      "outputs": [
        {
          "components": [
            {
              "internalType": "bytes32",
              "name": "ccy",
              "type": "bytes32"
            },
            {
              "internalType": "uint256",
              "name": "maturity",
              "type": "uint256"
            },
            {
              "internalType": "uint256",
              "name": "bestLendUnitPrice",
              "type": "uint256"
            },
            {
              "internalType": "uint256",
              "name": "bestBorrowUnitPrice",
              "type": "uint256"
            },
            {
              "internalType": "uint256",
              "name": "midUnitPrice",
              "type": "uint256"
            },
            {
              "internalType": "uint256",
              "name": "maxLendUnitPrice",
              "type": "uint256"
            },
            {
              "internalType": "uint256",
              "name": "minBorrowUnitPrice",
              "type": "uint256"
            },
            {
              "internalType": "uint256",
              "name": "openingUnitPrice",
              "type": "uint256"
            },
            {
              "internalType": "uint256",
              "name": "openingDate",
              "type": "uint256"
            },
            {
              "internalType": "bool",
              "name": "isReady",
              "type": "bool"
            }
          ],
          "internalType": "struct ILendingMarketController.OrderBookDetail[]",
          "name": "orderBookDetail",
          "type": "tuple[]"
        }
      ],
      "stateMutability": "view",
      "type": "function"
    }
  ],
  "transactionHash": "0xf10c3766427273693caa090c6a3f4df1aac7fada993e25997d3b92de70a49930",
  "args": [],
  "numDeployments": 1,
  "solcInputHash": "34e6dfc19d231b4627a36b9e10846223",
  "bytecode": "0x61385361003a600b82828239805160001a60731461002d57634e487b7160e01b600052600060045260246000fd5b30600052607381538281f3fe73000000000000000000000000000000000000000030146080604052600436106100d95760003560e01c80639a795d9c11610096578063d3f43b7911610070578063d3f43b7914610230578063e88e183714610250578063e99d053814610270578063fe778f421461029057600080fd5b80639a795d9c146101e8578063b3cb8450146101fb578063b8f117cd1461021b57600080fd5b80630ffedd39146100de578063420eadb7146101075780636a23a95c1461012857806373429978146101565780637df76160146101a657806398f78e57146101c8575b600080fd5b6100f16100ec3660046129b5565b6102b0565b6040516100fe91906129ce565b60405180910390f35b61011a610115366004612a73565b610499565b6040519081526020016100fe565b81801561013457600080fd5b50610148610143366004612a73565b6104c2565b6040516100fe929190612a95565b610169610164366004612a73565b6107f7565b604080519889526020890197909752958701949094526060860192909252608085015260a084015260c0830152151560e0820152610100016100fe565b8180156101b257600080fd5b506101c66101c1366004612a73565b610a56565b005b8180156101d457600080fd5b506101c66101e33660046129b5565b61102d565b6100f16101f6366004612b73565b6110eb565b81801561020757600080fd5b506101c66102163660046129b5565b6112da565b81801561022757600080fd5b506101c6611353565b81801561023c57600080fd5b506101c661024b366004612bfe565b611791565b81801561025c57600080fd5b506101c661026b366004612c2a565b61183d565b81801561027c57600080fd5b506101c661028b3660046129b5565b611aa6565b81801561029c57600080fd5b5061011a6102ab366004612a73565b611b03565b606060006102bc611f6e565b600084815260069190910160205260409020546001600160a01b03166338b058526102e5611f6e565b60050160008681526020019081526020016000206040518263ffffffff1660e01b8152600401610315919061328f565b60006040518083038186803b15801561032d57600080fd5b505afa158015610341573d6000803e3d6000fd5b505050506040513d6000823e601f3d908101601f1916820160405261036991908101906132a2565b9050805167ffffffffffffffff81111561038557610385612b08565b6040519080825280602002602001820160405280156103be57816020015b6103ab612924565b8152602001906001900390816103a35790505b50915060005b81518110156104925760008282815181106103e1576103e1613328565b602002602001015190506000806000806000806000806104018d8a6107f7565b975097509750975097509750975097506040518061014001604052808e81526020018a81526020018981526020018881526020018781526020018681526020018581526020018481526020018381526020018215158152508c8b8151811061046b5761046b613328565b6020026020010181905250505050505050505050808061048a90613354565b9150506103c4565b5050919050565b6000816104b2576104ab836007611f92565b90506104bc565b6104ab8383611fba565b92915050565b6104ca61297c565b6104d261297c565b60006104dc611f6e565b600086815260069190910160205260408120546001600160a01b03169150610502611f6e565b60008781526008919091016020908152604080832088845290915290819020549051630e07a4d160e21b815260ff9091166004820181905291506001600160a01b0383169063381e93449060240160206040518083038186803b15801561056857600080fd5b505afa15801561057c573d6000803e3d6000fd5b505050506040513d601f19601f820116820180604052508101906105a09190613384565b156107ee5760405163130e60d960e11b815260ff82166004820152600090819081906001600160a01b0386169063261cc1b29060240161016060405180830381600087803b1580156105f157600080fd5b505af1158015610605573d6000803e3d6000fd5b505050506040513d601f19601f820116820180604052508101906106299190613437565b909a509850919450909250905080156106ef576000610646611f6e565b60008b81526007919091016020908152604080832060ff891684529091529020546001600160a01b0316905080635e695dd58a6106976106928861068c6127108961348a565b90612087565b6120f1565b6040516001600160e01b031960e085901b16815260048101929092526024820152604401600060405180830381600087803b1580156106d557600080fd5b505af11580156106e9573d6000803e3d6000fd5b50505050505b60008311801561074e57508360ff16610706611f6e565b60050160008b815260200190815260200160002060008154811061072c5761072c613328565b60009182526020918290209181049091015460ff601f9092166101000a900416145b156107ea57600061077b848a85610763611f6e565b60008f8152600991909101602052604090205461215f565b90506107856121d3565b60405163a969285f60e01b8152600481018c9052602481018390526001600160a01b03919091169063a969285f90604401600060405180830381600087803b1580156107d057600080fd5b505af11580156107e4573d6000803e3d6000fd5b50505050505b5050505b50509250929050565b600080600080600080600080600061080d611f6e565b60008c815260069190910160205260409020546001600160a01b03166380d5b609610836611f6e565b60008e8152600891909101602090815260408083208f84529091529081902054905160e083901b6001600160e01b031916815260ff90911660048201526024016101006040518083038186803b15801561088f57600080fd5b505afa1580156108a3573d6000803e3d6000fd5b505050506040513d601f19601f820116820180604052508101906108c791906134a9565b905080606001519850806080015197508060a0015196508060c001519350806040015192508060e0015191506108fb611f6e565b60008c815260069190910160205260409020546001600160a01b031663df16328d610924611f6e565b60008e8152600891909101602090815260408083208f84529091529081902054905163139e3fb360e21b8152600481018f905260ff9091169073b9b27c8E1D86EED52774f845988FaEF05Ea8A7A590634e78fecc9060240160206040518083038186803b15801561099457600080fd5b505af41580156109a8573d6000803e3d6000fd5b505050506040513d601f19601f820116820180604052508101906109cc919061353d565b6040516001600160e01b031960e085901b16815260ff90921660048301526024820152604401604080518083038186803b158015610a0957600080fd5b505afa158015610a1d573d6000803e3d6000fd5b505050506040513d601f19601f82011682018060405250810190610a419190613556565b999c989b509699509597969295509093509150565b610a5e6121d3565b6001600160a01b031663f7b637bb836040518263ffffffff1660e01b8152600401610a8b91815260200190565b60206040518083038186803b158015610aa357600080fd5b505afa158015610ab7573d6000803e3d6000fd5b505050506040513d601f19601f82011682018060405250810190610adb9190613384565b610b4b5760405162461bcd60e51b815260206004820152603660248201527f4c656e64696e67206d61726b6574206861736e2774206265656e20696e697469604482015275616c697a656420696e207468652063757272656e637960501b60648201526084015b60405180910390fd5b610b536121f7565b6001600160a01b0316631eae0893836040518263ffffffff1660e01b8152600401610b8091815260200190565b60206040518083038186803b158015610b9857600080fd5b505afa158015610bac573d6000803e3d6000fd5b505050506040513d601f19601f82011682018060405250810190610bd09190613384565b610c155760405162461bcd60e51b81526020600482015260166024820152754e6f6e20737570706f727465642063757272656e637960501b6044820152606401610b42565b6000610c1f611f6e565b600084815260069190910160205260408120546001600160a01b03169150816338b05852610c4b611f6e565b60050160008781526020019081526020016000206040518263ffffffff1660e01b8152600401610c7b919061328f565b60006040518083038186803b158015610c9357600080fd5b505afa158015610ca7573d6000803e3d6000fd5b505050506040513d6000823e601f3d908101601f19168201604052610ccf91908101906132a2565b90506000815160001415610d6957610ce56121d3565b6001600160a01b03166349a1d218866040518263ffffffff1660e01b8152600401610d1291815260200190565b60206040518083038186803b158015610d2a57600080fd5b505afa158015610d3e573d6000803e3d6000fd5b505050506040513d601f19601f82011682018060405250810190610d62919061353d565b9050610dad565b60008260018451610d7a919061357a565b81518110610d8a57610d8a613328565b60200260200101519050610da981610da0611f6e565b60010154610499565b9150505b808410610e155760405162461bcd60e51b815260206004820152603060248201527f4d61726b6574206f70656e696e672064617465206d757374206265206265666f60448201526f7265206d61747572697479206461746560801b6064820152608401610b42565b604051634ea469d560e01b815260048101829052602481018590526000906001600160a01b03851690634ea469d590604401602060405180830381600087803b158015610e6157600080fd5b505af1158015610e75573d6000803e3d6000fd5b505050506040513d601f19601f82011682018060405250810190610e999190613591565b9050610ea3611f6e565b60008781526005919091016020908152604082208054600181018255908352818320918104909101805460ff808616601f9094166101000a93840293021916919091179055610ef0612217565b6001600160a01b031663a97c4b536040518163ffffffff1660e01b8152600401602060405180830381600087803b158015610f2a57600080fd5b505af1158015610f3e573d6000803e3d6000fd5b505050506040513d601f19601f82011682018060405250810190610f6291906135b4565b905081610f6d611f6e565b6000898152600891909101602090815260408083208784529091529020805460ff191660ff9290921691909117905580610fa5611f6e565b60008981526007919091016020908152604080832060ff87168085529083529281902080546001600160a01b0319166001600160a01b039586161790558051938516845290830189905282018590529088907ff534662595f8928b2f90225fa0a90119e632088e18cd92f97601bab66c5b61d19060600160405180910390a350505050505050565b611035612217565b6001600160a01b03166398f78e57826040518263ffffffff1660e01b815260040161106291815260200190565b602060405180830381600087803b15801561107c57600080fd5b505af1158015611090573d6000803e3d6000fd5b505050506040513d601f19601f820116820180604052508101906110b491906135b4565b6110bc611f6e565b6000928352600601602052604090912080546001600160a01b0319166001600160a01b03909216919091179055565b6060600080835167ffffffffffffffff81111561110a5761110a612b08565b60405190808252806020026020018201604052801561113d57816020015b60608152602001906001900390816111285790505b50905060005b84518110156111c55761116e85828151811061116157611161613328565b60200260200101516102b0565b82828151811061118057611180613328565b602002602001018190525081818151811061119d5761119d613328565b602002602001015151836111b191906135cf565b9250806111bd81613354565b915050611143565b508167ffffffffffffffff8111156111df576111df612b08565b60405190808252806020026020018201604052801561121857816020015b611205612924565b8152602001906001900390816111fd5790505b5092506000805b82518110156112d15760005b83828151811061123d5761123d613328565b6020026020010151518110156112be5783828151811061125f5761125f613328565b6020026020010151818151811061127857611278613328565b602002602001015186848151811061129257611292613328565b602002602001018190525082806112a890613354565b93505080806112b690613354565b91505061122b565b50806112c981613354565b91505061121f565b50505050919050565b60006112e4611f6e565b6000838152600691909101602052604080822054815163280dce3760e21b815291516001600160a01b039091169350839263a03738dc926004808201939182900301818387803b15801561133757600080fd5b505af115801561134b573d6000803e3d6000fd5b505050505050565b4261135c611f6e565b60020155600061136a6121f7565b6001600160a01b03166361c661de6040518163ffffffff1660e01b815260040160006040518083038186803b1580156113a257600080fd5b505afa1580156113b6573d6000803e3d6000fd5b505050506040513d6000823e601f3d908101601f191682016040526113de91908101906132a2565b905060006113ea61223a565b6001600160a01b031663d5e190d06040518163ffffffff1660e01b815260040160006040518083038186803b15801561142257600080fd5b505afa158015611436573d6000803e3d6000fd5b505050506040513d6000823e601f3d908101601f1916820160405261145e91908101906132a2565b905060005b825181101561154357600083828151811061148057611480613328565b60200260200101519050611493816112da565b61149b6121f7565b6001600160a01b0316632491dc8c826040518263ffffffff1660e01b81526004016114c891815260200190565b60206040518083038186803b1580156114e057600080fd5b505afa1580156114f4573d6000803e3d6000fd5b505050506040513d601f19601f82011682018060405250810190611518919061353d565b611520611f6e565b60009283526003016020526040909120558061153b81613354565b915050611463565b5060005b815181101561175957600082828151811061156457611564613328565b60200260200101519050600061157861223a565b6001600160a01b031663b12e4410836040518263ffffffff1660e01b81526004016115a591815260200190565b60206040518083038186803b1580156115bd57600080fd5b505afa1580156115d1573d6000803e3d6000fd5b505050506040513d601f19601f820116820180604052508101906115f591906135b4565b90506000816001600160a01b03166370a0823161161061223a565b6040516001600160e01b031960e084901b1681526001600160a01b03909116600482015260240160206040518083038186803b15801561164f57600080fd5b505afa158015611663573d6000803e3d6000fd5b505050506040513d601f19601f82011682018060405250810190611687919061353d565b9050611691611f6e565b548314611726576116a06121f7565b604051636ed2f1db60e01b815260048101859052602481018390526001600160a01b039190911690636ed2f1db9060440160206040518083038186803b1580156116e957600080fd5b505afa1580156116fd573d6000803e3d6000fd5b505050506040513d601f19601f82011682018060405250810190611721919061353d565b611728565b805b611730611f6e565b60009485526004016020526040909320929092555081905061175181613354565b915050611547565b506040514281527f5bd5e5214bcf42a851f8883889177591b93dbd526076c7b5e96bd8eed5931a539060200160405180910390a15050565b6117996121d3565b6001600160a01b031663a2d7d02d846024846117b787610da0611f6e565b6040516001600160e01b031960e087901b168152600481019490945260ff909216602484015260448301526064820152608401600060405180830381600087803b15801561180457600080fd5b505af1158015611818573d6000803e3d6000fd5b5050505081611825611f6e565b60009485526009016020526040909320929092555050565b6000611847611f6e565b60008881526008919091016020908152604080832089845290915290205460ff16905080611873611f6e565b600501600089815260200190815260200160002060018154811061189957611899613328565b60009182526020918290209181049091015460ff601f9092166101000a9004161415611a9d5760006118c9611f6e565b600089815260069190910160205260409020546001600160a01b031663a4ff243a6118f2611f6e565b60050160008b815260200190815260200160002060008154811061191857611918613328565b60009182526020918290209181049091015460405160e084901b6001600160e01b0319168152601f9092166101000a900460ff16600482015260240160206040518083038186803b15801561196c57600080fd5b505afa158015611980573d6000803e3d6000fd5b505050506040513d601f19601f820116820180604052508101906119a4919061353d565b90506119ae611f6e565b6000898152600c91909101602090815260408083208a8452909152902054611a03576119dc8588428461215f565b6119e4611f6e565b60008a8152600d91909101602090815260408083208b84529091529020555b8042108015611a1b5750611a17868261357a565b4210155b15611a9b5783611a29611f6e565b60008a8152600c91909101602090815260408083208b845290915281208054909190611a569084906135cf565b90915550839050611a65611f6e565b60008a8152600c91909101602090815260408083208b845290915281206001018054909190611a959084906135cf565b90915550505b505b50505050505050565b6000611ab0611f6e565b60008381526006919091016020526040808220548151630b0863e760e11b815291516001600160a01b0390911693508392631610c7ce926004808201939182900301818387803b15801561133757600080fd5b600080611b0e611f6e565b600085815260069190910160205260408120546001600160a01b03169150611b34611f6e565b600086815260059190910160205260409020805490915060021115611b945760405162461bcd60e51b81526020600482015260166024820152754e6f7420656e6f756768206f7264657220626f6f6b7360501b6044820152606401610b42565b604051631c582c2960e11b81526000906001600160a01b038416906338b0585290611bc390859060040161328f565b60006040518083038186803b158015611bdb57600080fd5b505afa158015611bef573d6000803e3d6000fd5b505050506040513d6000823e601f3d908101601f19168201604052611c1791908101906132a2565b9050600082600081548110611c2e57611c2e613328565b90600052602060002090602091828204019190069054906101000a900460ff169050600082600181518110611c6557611c65613328565b60200260200101519050611ca18360018551611c81919061357a565b81518110611c9157611c91613328565b6020026020010151610da0611f6e565b60405163c9c0009960e01b815260ff8416600482015260248101829052604481018390529096506001600160a01b0386169063c9c0009990606401600060405180830381600087803b158015611cf657600080fd5b505af1158015611d0a573d6000803e3d6000fd5b5050505060005b8454811015611dc85784546000908290611d2d9060019061357a565b14611d735785611d3e8360016135cf565b81548110611d4e57611d4e613328565b90600052602060002090602091828204019190069054906101000a900460ff16611d75565b835b905080868381548110611d8a57611d8a613328565b90600052602060002090602091828204019190066101000a81548160ff021916908360ff160217905550508080611dc090613354565b915050611d11565b50611dd16121d3565b6001600160a01b031663fb8439048985600081518110611df357611df3613328565b602002602001015186600181518110611e0e57611e0e613328565b6020026020010151611e3a8d89600181518110611e2d57611e2d613328565b6020026020010151612252565b6040516001600160e01b031960e087901b1681526004810194909452602484019290925260448301526064820152608481018a905260a401600060405180830381600087803b158015611e8c57600080fd5b505af1158015611ea0573d6000803e3d6000fd5b50505050600083600081518110611eb957611eb9613328565b60200260200101519050611ecb611f6e565b60008a81526008919091016020908152604080832084845290915290205460ff16611ef4611f6e565b60008b8152600891909101602090815260408083208b8452825291829020805460ff191660ff949094169390931790925580518b815291820183905281018890527f134ffefb84024e6cd2bb0455365b114f82b012f23b0b0cf931045b8020f26ba59060600160405180910390a150505050505092915050565b7f8041b8421ebd495cc61f38c788c9eb100daccf9bd36aa0bb920b7a15b2e0496590565b6000611fa1620151808361348a565b611fab90846135cf565b9050828110156104bc57600080fd5b60008080611fda611fd586611fd08760016135cf565b6123a2565b612479565b50915091506000611fed8383600061249a565b90506000611ffa826124bd565b9050600060058260058410612010576000612013565b60075b60ff1661202091906135cf565b61202a919061357a565b905061203683826124f8565b95506000861161207c5760405162461bcd60e51b81526020600482015260116024820152700496e76616c69642054696d657374616d7607c1b6044820152606401610b42565b505050505092915050565b600080821161209557600080fd5b60056120a183856135fd565b6120ac90600a61348a565b836120b886600a61348a565b6120c291906135fd565b6120cc919061357a565b10156120dc576104ab82846135fd565b6120e682846135fd565b6104ab9060016135cf565b60006001600160ff1b0382111561215b5760405162461bcd60e51b815260206004820152602860248201527f53616665436173743a2076616c756520646f65736e27742066697420696e2061604482015267371034b73a191a9b60c11b6064820152608401610b42565b5090565b60008061216c848661357a565b9050600061217a848761357a565b9050612186828861348a565b816121938961271061357a565b61219d919061348a565b6121a791906135cf565b826121b48961271061348a565b6121be919061348a565b6121c891906135fd565b979650505050505050565b60006121f27011d95b995cda5cd5985b1d5955985d5b1d607a1b612520565b905090565b60006121f27121bab93932b731bca1b7b73a3937b63632b960711b612520565b60006121f2742132b0b1b7b7283937bc3ca1b7b73a3937b63632b960591b612520565b60006121f269151bdad95b95985d5b1d60b21b612520565b60008061225d611f6e565b6000858152600c919091016020908152604080832086845282529182902082518084019093528054835260010154908201819052909150156122ba576122b38160200151612710836000015161068c919061348a565b915061239b565b6122c2611f6e565b6000858152600d919091016020908152604080832086845290915290205415612312576122ed611f6e565b6000858152600d9190910160209081526040808320868452909152902054915061239b565b61231a6121d3565b6001600160a01b031663d637c15f856040518263ffffffff1660e01b815260040161234791815260200190565b60a06040518083038186803b15801561235f57600080fd5b505afa158015612373573d6000803e3d6000fd5b505050506040513d601f19601f820116820180604052508101906123979190613611565b5191505b5092915050565b60008080806123bc6123b762015180886135fd565b6125b1565b919450925090506123cd85836135cf565b9150600c6123dc60018461357a565b6123e691906135fd565b6123f090846135cf565b9250600c6123ff60018461357a565b6124099190613681565b6124149060016135cf565b915060006124228484612725565b905080821115612430578091505b61243d6201518088613681565b6201518061244c8686866127ab565b612456919061348a565b61246091906135cf565b94508685101561246f57600080fd5b5050505092915050565b6000808061248d6123b762015180866135fd565b9196909550909350915050565b6000620151806124ab8585856127ab565b6124b5919061348a565b949350505050565b6000806124cd62015180846135fd565b905060076124dc8260036135cf565b6124e69190613681565b6124f19060016135cf565b9392505050565b6000612507620151808361348a565b612511908461357a565b9050828111156104bc57600080fd5b60008181527f4abde63c3e81aefa5764b017968bc473e83e093d7e1a10247d19e0a3e41240196020908152604080832054815170026b4b9b9b4b7339030b2323932b9b99d1607d1b9381019390935260318084018690528251808503909101815260519093019091526001600160a01b0316908161239b5760405162461bcd60e51b8152600401610b429190613695565b60008080838162253d8c6125c88362010bd96136ea565b6125d291906136ea565b9050600062023ab16125e583600461372b565b6125ef91906137b0565b905060046126008262023ab161372b565b61260b9060036136ea565b61261591906137b0565b61261f90836137de565b9150600062164b096126328460016136ea565b61263e90610fa061372b565b61264891906137b0565b90506004612658826105b561372b565b61266291906137b0565b61266c90846137de565b61267790601f6136ea565b9250600061098f61268985605061372b565b61269391906137b0565b9050600060506126a58361098f61372b565b6126af91906137b0565b6126b990866137de565b90506126c6600b836137b0565b94506126d385600c61372b565b6126de8360026136ea565b6126e891906137de565b915084836126f76031876137de565b61270290606461372b565b61270c91906136ea565b61271691906136ea565b9a919950975095505050505050565b600081600114806127365750816003145b806127415750816005145b8061274c5750816007145b806127575750816008145b80612762575081600a145b8061276d575081600c145b1561277a5750601f6104bc565b8160021461278a5750601e6104bc565b612793836128e8565b61279e57601c6127a1565b601d5b60ff169392505050565b60006107b28410156127bc57600080fd5b838383600062253d8c60046064600c6127d6600e886137de565b6127e091906137b0565b6127ec886113246136ea565b6127f691906136ea565b61280091906137b0565b61280b90600361372b565b61281591906137b0565b600c80612823600e886137de565b61282d91906137b0565b61283890600c61372b565b6128436002886137de565b61284d91906137de565b6128599061016f61372b565b61286391906137b0565b6004600c612872600e896137de565b61287c91906137b0565b612888896112c06136ea565b61289291906136ea565b61289e906105b561372b565b6128a891906137b0565b6128b4617d4b876137de565b6128be91906136ea565b6128c891906136ea565b6128d291906137de565b6128dc91906137de565b98975050505050505050565b60006128f5600483613681565b15801561290b5750612908606483613681565b15155b806104bc575061291d61019083613681565b1592915050565b6040518061014001604052806000801916815260200160008152602001600081526020016000815260200160008152602001600081526020016000815260200160008152602001600081526020016000151581525090565b6040518060800160405280600065ffffffffffff16815260200160006001600160a01b0316815260200160008152602001600081525090565b6000602082840312156129c757600080fd5b5035919050565b602080825282518282018190526000919060409081850190868401855b82811015612a665781518051855286810151878601528581015186860152606080820151908601526080808201519086015260a0808201519086015260c0808201519086015260e0808201519086015261010080820151908601526101209081015115159085015261014090930192908501906001016129eb565b5091979650505050505050565b60008060408385031215612a8657600080fd5b50508035926020909101359150565b825165ffffffffffff1681526020808401516001600160a01b03169082015260408084015190820152606080840151908201526101008101825165ffffffffffff16608083015260208301516001600160a01b031660a0830152604083015160c0830152606083015160e08301526124f1565b634e487b7160e01b600052604160045260246000fd5b604051601f8201601f1916810167ffffffffffffffff81118282101715612b4757612b47612b08565b604052919050565b600067ffffffffffffffff821115612b6957612b69612b08565b5060051b60200190565b60006020808385031215612b8657600080fd5b823567ffffffffffffffff811115612b9d57600080fd5b8301601f81018513612bae57600080fd5b8035612bc1612bbc82612b4f565b612b1e565b81815260059190911b82018301908381019087831115612be057600080fd5b928401925b828410156121c857833582529284019290840190612be5565b600080600060608486031215612c1357600080fd5b505081359360208301359350604090920135919050565b60008060008060008060c08789031215612c4357600080fd5b505084359660208601359650604086013595606081013595506080810135945060a0013592509050565b805480835260008281526020808220940193909190825b82601f82011015612f0b57815460ff80821688526020612cad818a01838560081c1660ff169052565b6040612cc2818b01848660101c1660ff169052565b6060612cd7818c01858760181c1660ff169052565b6080612ceb818d018688871c1660ff169052565b60a09350612d02848d01868860281c1660ff169052565b60c0612d17818e01878960301c1660ff169052565b60e0612d2c818f01888a60381c1660ff169052565b60ff88861c8816166101008f0152612d4f6101208f01888a60481c1660ff169052565b612d646101408f01888a60501c1660ff169052565b612d796101608f01888a60581c1660ff169052565b60ff88851c8816166101808f0152612d9c6101a08f01888a60681c1660ff169052565b612db16101c08f01888a60701c1660ff169052565b612dc66101e08f01888a60781c1660ff169052565b60ff88841c8816166102008f0152612de96102208f01888a60881c1660ff169052565b612dfe6102408f01888a60901c1660ff169052565b612e136102608f01888a60981c1660ff169052565b60ff88871c8816166102808f0152612e366102a08f01888a60a81c1660ff169052565b612e4b6102c08f01888a60b01c1660ff169052565b612e606102e08f01888a60b81c1660ff169052565b60ff88831c8816166103008f0152612e836103208f01888a60c81c1660ff169052565b612e986103408f01888a60d01c1660ff169052565b612ead6103608f01888a60d81c1660ff169052565b60ff88821c8816166103808f0152505050505050612ed66103a08901828460e81c1660ff169052565b612eeb6103c08901828460f01c1660ff169052565b5060f81c6103e08701526104009095019460019190910190602001612c84565b90549082811015612f265760ff821686526020909501946001015b82811015612f425760ff600883901c1686526020909501946001015b82811015612f5e5760ff601083901c1686526020909501946001015b82811015612f7a5760ff601883901c1686526020909501946001015b82811015612f9757602082901c60ff168652602095909501946001015b82811015612fb35760ff602883901c1686526020909501946001015b82811015612fcf5760ff603083901c1686526020909501946001015b82811015612feb5760ff603883901c1686526020909501946001015b828110156130075760ff604083901c1686526020909501946001015b828110156130235760ff604883901c1686526020909501946001015b8281101561303f5760ff605083901c1686526020909501946001015b8281101561305b5760ff605883901c1686526020909501946001015b828110156130775760ff606083901c1686526020909501946001015b828110156130935760ff606883901c1686526020909501946001015b828110156130af5760ff607083901c1686526020909501946001015b828110156130cb5760ff607883901c1686526020909501946001015b828110156130e75760ff608083901c1686526020909501946001015b828110156131035760ff608883901c1686526020909501946001015b8281101561311f5760ff609083901c1686526020909501946001015b8281101561313b5760ff609883901c1686526020909501946001015b828110156131575760ff60a083901c1686526020909501946001015b828110156131735760ff60a883901c1686526020909501946001015b8281101561318f5760ff60b083901c1686526020909501946001015b828110156131ab5760ff60b883901c1686526020909501946001015b828110156131c75760ff60c083901c1686526020909501946001015b828110156131e35760ff60c883901c1686526020909501946001015b828110156131ff5760ff60d083901c1686526020909501946001015b8281101561321b5760ff60d883901c1686526020909501946001015b828110156132375760ff60e083901c1686526020909501946001015b828110156132535760ff60e883901c1686526020909501946001015b8281101561326f5760ff60f083901c1686526020909501946001015b828110156132855760f882901c86526020860195505b5093949350505050565b6020815260006124f16020830184612c6d565b600060208083850312156132b557600080fd5b825167ffffffffffffffff8111156132cc57600080fd5b8301601f810185136132dd57600080fd5b80516132eb612bbc82612b4f565b81815260059190911b8201830190838101908783111561330a57600080fd5b928401925b828410156121c85783518252928401929084019061330f565b634e487b7160e01b600052603260045260246000fd5b634e487b7160e01b600052601160045260246000fd5b60006000198214156133685761336861333e565b5060010190565b8051801515811461337f57600080fd5b919050565b60006020828403121561339657600080fd5b6124f18261336f565b80516001600160a01b038116811461337f57600080fd5b6000608082840312156133c857600080fd5b6040516080810181811067ffffffffffffffff821117156133eb576133eb612b08565b8060405250809150825165ffffffffffff8116811461340957600080fd5b81526134176020840161339f565b602082015260408301516040820152606083015160608201525092915050565b6000806000806000610160868803121561345057600080fd5b85519450602086015193506040860151925061346f87606088016133b6565b915061347e8760e088016133b6565b90509295509295909350565b60008160001904831182151516156134a4576134a461333e565b500290565b60006101008083850312156134bd57600080fd5b6040519081019067ffffffffffffffff821181831017156134e0576134e0612b08565b81604052835181526020840151602082015260408401516040820152606084015160608201526080840151608082015260a084015160a082015260c084015160c082015261353060e0850161336f565b60e0820152949350505050565b60006020828403121561354f57600080fd5b5051919050565b6000806040838503121561356957600080fd5b505080516020909101519092909150565b60008282101561358c5761358c61333e565b500390565b6000602082840312156135a357600080fd5b815160ff811681146124f157600080fd5b6000602082840312156135c657600080fd5b6124f18261339f565b600082198211156135e2576135e261333e565b500190565b634e487b7160e01b600052601260045260246000fd5b60008261360c5761360c6135e7565b500490565b600060a0828403121561362357600080fd5b60405160a0810181811067ffffffffffffffff8211171561364657613646612b08565b806040525082518152602083015160208201526040830151604082015260608301516060820152608083015160808201528091505092915050565b600082613690576136906135e7565b500690565b600060208083528351808285015260005b818110156136c2578581018301518582016040015282016136a6565b818111156136d4576000604083870101525b50601f01601f1916929092016040019392505050565b600080821280156001600160ff1b038490038513161561370c5761370c61333e565b600160ff1b83900384128116156137255761372561333e565b50500190565b60006001600160ff1b03818413828413808216868404861116156137515761375161333e565b600160ff1b60008712828116878305891216156137705761377061333e565b6000871292508782058712848416161561378c5761378c61333e565b878505871281841616156137a2576137a261333e565b505050929093029392505050565b6000826137bf576137bf6135e7565b600160ff1b8214600019841416156137d9576137d961333e565b500590565b60008083128015600160ff1b8501841216156137fc576137fc61333e565b6001600160ff1b03840183138116156138175761381761333e565b5050039056fea2646970667358221220fbcdad2172363d5cbe9052d719f462df41199b1b615169e2d58a7b47ddab21e264736f6c63430008090033",
  "deployedBytecode": "0x73000000000000000000000000000000000000000030146080604052600436106100d95760003560e01c80639a795d9c11610096578063d3f43b7911610070578063d3f43b7914610230578063e88e183714610250578063e99d053814610270578063fe778f421461029057600080fd5b80639a795d9c146101e8578063b3cb8450146101fb578063b8f117cd1461021b57600080fd5b80630ffedd39146100de578063420eadb7146101075780636a23a95c1461012857806373429978146101565780637df76160146101a657806398f78e57146101c8575b600080fd5b6100f16100ec3660046129b5565b6102b0565b6040516100fe91906129ce565b60405180910390f35b61011a610115366004612a73565b610499565b6040519081526020016100fe565b81801561013457600080fd5b50610148610143366004612a73565b6104c2565b6040516100fe929190612a95565b610169610164366004612a73565b6107f7565b604080519889526020890197909752958701949094526060860192909252608085015260a084015260c0830152151560e0820152610100016100fe565b8180156101b257600080fd5b506101c66101c1366004612a73565b610a56565b005b8180156101d457600080fd5b506101c66101e33660046129b5565b61102d565b6100f16101f6366004612b73565b6110eb565b81801561020757600080fd5b506101c66102163660046129b5565b6112da565b81801561022757600080fd5b506101c6611353565b81801561023c57600080fd5b506101c661024b366004612bfe565b611791565b81801561025c57600080fd5b506101c661026b366004612c2a565b61183d565b81801561027c57600080fd5b506101c661028b3660046129b5565b611aa6565b81801561029c57600080fd5b5061011a6102ab366004612a73565b611b03565b606060006102bc611f6e565b600084815260069190910160205260409020546001600160a01b03166338b058526102e5611f6e565b60050160008681526020019081526020016000206040518263ffffffff1660e01b8152600401610315919061328f565b60006040518083038186803b15801561032d57600080fd5b505afa158015610341573d6000803e3d6000fd5b505050506040513d6000823e601f3d908101601f1916820160405261036991908101906132a2565b9050805167ffffffffffffffff81111561038557610385612b08565b6040519080825280602002602001820160405280156103be57816020015b6103ab612924565b8152602001906001900390816103a35790505b50915060005b81518110156104925760008282815181106103e1576103e1613328565b602002602001015190506000806000806000806000806104018d8a6107f7565b975097509750975097509750975097506040518061014001604052808e81526020018a81526020018981526020018881526020018781526020018681526020018581526020018481526020018381526020018215158152508c8b8151811061046b5761046b613328565b6020026020010181905250505050505050505050808061048a90613354565b9150506103c4565b5050919050565b6000816104b2576104ab836007611f92565b90506104bc565b6104ab8383611fba565b92915050565b6104ca61297c565b6104d261297c565b60006104dc611f6e565b600086815260069190910160205260408120546001600160a01b03169150610502611f6e565b60008781526008919091016020908152604080832088845290915290819020549051630e07a4d160e21b815260ff9091166004820181905291506001600160a01b0383169063381e93449060240160206040518083038186803b15801561056857600080fd5b505afa15801561057c573d6000803e3d6000fd5b505050506040513d601f19601f820116820180604052508101906105a09190613384565b156107ee5760405163130e60d960e11b815260ff82166004820152600090819081906001600160a01b0386169063261cc1b29060240161016060405180830381600087803b1580156105f157600080fd5b505af1158015610605573d6000803e3d6000fd5b505050506040513d601f19601f820116820180604052508101906106299190613437565b909a509850919450909250905080156106ef576000610646611f6e565b60008b81526007919091016020908152604080832060ff891684529091529020546001600160a01b0316905080635e695dd58a6106976106928861068c6127108961348a565b90612087565b6120f1565b6040516001600160e01b031960e085901b16815260048101929092526024820152604401600060405180830381600087803b1580156106d557600080fd5b505af11580156106e9573d6000803e3d6000fd5b50505050505b60008311801561074e57508360ff16610706611f6e565b60050160008b815260200190815260200160002060008154811061072c5761072c613328565b60009182526020918290209181049091015460ff601f9092166101000a900416145b156107ea57600061077b848a85610763611f6e565b60008f8152600991909101602052604090205461215f565b90506107856121d3565b60405163a969285f60e01b8152600481018c9052602481018390526001600160a01b03919091169063a969285f90604401600060405180830381600087803b1580156107d057600080fd5b505af11580156107e4573d6000803e3d6000fd5b50505050505b5050505b50509250929050565b600080600080600080600080600061080d611f6e565b60008c815260069190910160205260409020546001600160a01b03166380d5b609610836611f6e565b60008e8152600891909101602090815260408083208f84529091529081902054905160e083901b6001600160e01b031916815260ff90911660048201526024016101006040518083038186803b15801561088f57600080fd5b505afa1580156108a3573d6000803e3d6000fd5b505050506040513d601f19601f820116820180604052508101906108c791906134a9565b905080606001519850806080015197508060a0015196508060c001519350806040015192508060e0015191506108fb611f6e565b60008c815260069190910160205260409020546001600160a01b031663df16328d610924611f6e565b60008e8152600891909101602090815260408083208f84529091529081902054905163139e3fb360e21b8152600481018f905260ff9091169073__$e049441b2d898ade92927f540debd09cf4$__90634e78fecc9060240160206040518083038186803b15801561099457600080fd5b505af41580156109a8573d6000803e3d6000fd5b505050506040513d601f19601f820116820180604052508101906109cc919061353d565b6040516001600160e01b031960e085901b16815260ff90921660048301526024820152604401604080518083038186803b158015610a0957600080fd5b505afa158015610a1d573d6000803e3d6000fd5b505050506040513d601f19601f82011682018060405250810190610a419190613556565b999c989b509699509597969295509093509150565b610a5e6121d3565b6001600160a01b031663f7b637bb836040518263ffffffff1660e01b8152600401610a8b91815260200190565b60206040518083038186803b158015610aa357600080fd5b505afa158015610ab7573d6000803e3d6000fd5b505050506040513d601f19601f82011682018060405250810190610adb9190613384565b610b4b5760405162461bcd60e51b815260206004820152603660248201527f4c656e64696e67206d61726b6574206861736e2774206265656e20696e697469604482015275616c697a656420696e207468652063757272656e637960501b60648201526084015b60405180910390fd5b610b536121f7565b6001600160a01b0316631eae0893836040518263ffffffff1660e01b8152600401610b8091815260200190565b60206040518083038186803b158015610b9857600080fd5b505afa158015610bac573d6000803e3d6000fd5b505050506040513d601f19601f82011682018060405250810190610bd09190613384565b610c155760405162461bcd60e51b81526020600482015260166024820152754e6f6e20737570706f727465642063757272656e637960501b6044820152606401610b42565b6000610c1f611f6e565b600084815260069190910160205260408120546001600160a01b03169150816338b05852610c4b611f6e565b60050160008781526020019081526020016000206040518263ffffffff1660e01b8152600401610c7b919061328f565b60006040518083038186803b158015610c9357600080fd5b505afa158015610ca7573d6000803e3d6000fd5b505050506040513d6000823e601f3d908101601f19168201604052610ccf91908101906132a2565b90506000815160001415610d6957610ce56121d3565b6001600160a01b03166349a1d218866040518263ffffffff1660e01b8152600401610d1291815260200190565b60206040518083038186803b158015610d2a57600080fd5b505afa158015610d3e573d6000803e3d6000fd5b505050506040513d601f19601f82011682018060405250810190610d62919061353d565b9050610dad565b60008260018451610d7a919061357a565b81518110610d8a57610d8a613328565b60200260200101519050610da981610da0611f6e565b60010154610499565b9150505b808410610e155760405162461bcd60e51b815260206004820152603060248201527f4d61726b6574206f70656e696e672064617465206d757374206265206265666f60448201526f7265206d61747572697479206461746560801b6064820152608401610b42565b604051634ea469d560e01b815260048101829052602481018590526000906001600160a01b03851690634ea469d590604401602060405180830381600087803b158015610e6157600080fd5b505af1158015610e75573d6000803e3d6000fd5b505050506040513d601f19601f82011682018060405250810190610e999190613591565b9050610ea3611f6e565b60008781526005919091016020908152604082208054600181018255908352818320918104909101805460ff808616601f9094166101000a93840293021916919091179055610ef0612217565b6001600160a01b031663a97c4b536040518163ffffffff1660e01b8152600401602060405180830381600087803b158015610f2a57600080fd5b505af1158015610f3e573d6000803e3d6000fd5b505050506040513d601f19601f82011682018060405250810190610f6291906135b4565b905081610f6d611f6e565b6000898152600891909101602090815260408083208784529091529020805460ff191660ff9290921691909117905580610fa5611f6e565b60008981526007919091016020908152604080832060ff87168085529083529281902080546001600160a01b0319166001600160a01b039586161790558051938516845290830189905282018590529088907ff534662595f8928b2f90225fa0a90119e632088e18cd92f97601bab66c5b61d19060600160405180910390a350505050505050565b611035612217565b6001600160a01b03166398f78e57826040518263ffffffff1660e01b815260040161106291815260200190565b602060405180830381600087803b15801561107c57600080fd5b505af1158015611090573d6000803e3d6000fd5b505050506040513d601f19601f820116820180604052508101906110b491906135b4565b6110bc611f6e565b6000928352600601602052604090912080546001600160a01b0319166001600160a01b03909216919091179055565b6060600080835167ffffffffffffffff81111561110a5761110a612b08565b60405190808252806020026020018201604052801561113d57816020015b60608152602001906001900390816111285790505b50905060005b84518110156111c55761116e85828151811061116157611161613328565b60200260200101516102b0565b82828151811061118057611180613328565b602002602001018190525081818151811061119d5761119d613328565b602002602001015151836111b191906135cf565b9250806111bd81613354565b915050611143565b508167ffffffffffffffff8111156111df576111df612b08565b60405190808252806020026020018201604052801561121857816020015b611205612924565b8152602001906001900390816111fd5790505b5092506000805b82518110156112d15760005b83828151811061123d5761123d613328565b6020026020010151518110156112be5783828151811061125f5761125f613328565b6020026020010151818151811061127857611278613328565b602002602001015186848151811061129257611292613328565b602002602001018190525082806112a890613354565b93505080806112b690613354565b91505061122b565b50806112c981613354565b91505061121f565b50505050919050565b60006112e4611f6e565b6000838152600691909101602052604080822054815163280dce3760e21b815291516001600160a01b039091169350839263a03738dc926004808201939182900301818387803b15801561133757600080fd5b505af115801561134b573d6000803e3d6000fd5b505050505050565b4261135c611f6e565b60020155600061136a6121f7565b6001600160a01b03166361c661de6040518163ffffffff1660e01b815260040160006040518083038186803b1580156113a257600080fd5b505afa1580156113b6573d6000803e3d6000fd5b505050506040513d6000823e601f3d908101601f191682016040526113de91908101906132a2565b905060006113ea61223a565b6001600160a01b031663d5e190d06040518163ffffffff1660e01b815260040160006040518083038186803b15801561142257600080fd5b505afa158015611436573d6000803e3d6000fd5b505050506040513d6000823e601f3d908101601f1916820160405261145e91908101906132a2565b905060005b825181101561154357600083828151811061148057611480613328565b60200260200101519050611493816112da565b61149b6121f7565b6001600160a01b0316632491dc8c826040518263ffffffff1660e01b81526004016114c891815260200190565b60206040518083038186803b1580156114e057600080fd5b505afa1580156114f4573d6000803e3d6000fd5b505050506040513d601f19601f82011682018060405250810190611518919061353d565b611520611f6e565b60009283526003016020526040909120558061153b81613354565b915050611463565b5060005b815181101561175957600082828151811061156457611564613328565b60200260200101519050600061157861223a565b6001600160a01b031663b12e4410836040518263ffffffff1660e01b81526004016115a591815260200190565b60206040518083038186803b1580156115bd57600080fd5b505afa1580156115d1573d6000803e3d6000fd5b505050506040513d601f19601f820116820180604052508101906115f591906135b4565b90506000816001600160a01b03166370a0823161161061223a565b6040516001600160e01b031960e084901b1681526001600160a01b03909116600482015260240160206040518083038186803b15801561164f57600080fd5b505afa158015611663573d6000803e3d6000fd5b505050506040513d601f19601f82011682018060405250810190611687919061353d565b9050611691611f6e565b548314611726576116a06121f7565b604051636ed2f1db60e01b815260048101859052602481018390526001600160a01b039190911690636ed2f1db9060440160206040518083038186803b1580156116e957600080fd5b505afa1580156116fd573d6000803e3d6000fd5b505050506040513d601f19601f82011682018060405250810190611721919061353d565b611728565b805b611730611f6e565b60009485526004016020526040909320929092555081905061175181613354565b915050611547565b506040514281527f5bd5e5214bcf42a851f8883889177591b93dbd526076c7b5e96bd8eed5931a539060200160405180910390a15050565b6117996121d3565b6001600160a01b031663a2d7d02d846024846117b787610da0611f6e565b6040516001600160e01b031960e087901b168152600481019490945260ff909216602484015260448301526064820152608401600060405180830381600087803b15801561180457600080fd5b505af1158015611818573d6000803e3d6000fd5b5050505081611825611f6e565b60009485526009016020526040909320929092555050565b6000611847611f6e565b60008881526008919091016020908152604080832089845290915290205460ff16905080611873611f6e565b600501600089815260200190815260200160002060018154811061189957611899613328565b60009182526020918290209181049091015460ff601f9092166101000a9004161415611a9d5760006118c9611f6e565b600089815260069190910160205260409020546001600160a01b031663a4ff243a6118f2611f6e565b60050160008b815260200190815260200160002060008154811061191857611918613328565b60009182526020918290209181049091015460405160e084901b6001600160e01b0319168152601f9092166101000a900460ff16600482015260240160206040518083038186803b15801561196c57600080fd5b505afa158015611980573d6000803e3d6000fd5b505050506040513d601f19601f820116820180604052508101906119a4919061353d565b90506119ae611f6e565b6000898152600c91909101602090815260408083208a8452909152902054611a03576119dc8588428461215f565b6119e4611f6e565b60008a8152600d91909101602090815260408083208b84529091529020555b8042108015611a1b5750611a17868261357a565b4210155b15611a9b5783611a29611f6e565b60008a8152600c91909101602090815260408083208b845290915281208054909190611a569084906135cf565b90915550839050611a65611f6e565b60008a8152600c91909101602090815260408083208b845290915281206001018054909190611a959084906135cf565b90915550505b505b50505050505050565b6000611ab0611f6e565b60008381526006919091016020526040808220548151630b0863e760e11b815291516001600160a01b0390911693508392631610c7ce926004808201939182900301818387803b15801561133757600080fd5b600080611b0e611f6e565b600085815260069190910160205260408120546001600160a01b03169150611b34611f6e565b600086815260059190910160205260409020805490915060021115611b945760405162461bcd60e51b81526020600482015260166024820152754e6f7420656e6f756768206f7264657220626f6f6b7360501b6044820152606401610b42565b604051631c582c2960e11b81526000906001600160a01b038416906338b0585290611bc390859060040161328f565b60006040518083038186803b158015611bdb57600080fd5b505afa158015611bef573d6000803e3d6000fd5b505050506040513d6000823e601f3d908101601f19168201604052611c1791908101906132a2565b9050600082600081548110611c2e57611c2e613328565b90600052602060002090602091828204019190069054906101000a900460ff169050600082600181518110611c6557611c65613328565b60200260200101519050611ca18360018551611c81919061357a565b81518110611c9157611c91613328565b6020026020010151610da0611f6e565b60405163c9c0009960e01b815260ff8416600482015260248101829052604481018390529096506001600160a01b0386169063c9c0009990606401600060405180830381600087803b158015611cf657600080fd5b505af1158015611d0a573d6000803e3d6000fd5b5050505060005b8454811015611dc85784546000908290611d2d9060019061357a565b14611d735785611d3e8360016135cf565b81548110611d4e57611d4e613328565b90600052602060002090602091828204019190069054906101000a900460ff16611d75565b835b905080868381548110611d8a57611d8a613328565b90600052602060002090602091828204019190066101000a81548160ff021916908360ff160217905550508080611dc090613354565b915050611d11565b50611dd16121d3565b6001600160a01b031663fb8439048985600081518110611df357611df3613328565b602002602001015186600181518110611e0e57611e0e613328565b6020026020010151611e3a8d89600181518110611e2d57611e2d613328565b6020026020010151612252565b6040516001600160e01b031960e087901b1681526004810194909452602484019290925260448301526064820152608481018a905260a401600060405180830381600087803b158015611e8c57600080fd5b505af1158015611ea0573d6000803e3d6000fd5b50505050600083600081518110611eb957611eb9613328565b60200260200101519050611ecb611f6e565b60008a81526008919091016020908152604080832084845290915290205460ff16611ef4611f6e565b60008b8152600891909101602090815260408083208b8452825291829020805460ff191660ff949094169390931790925580518b815291820183905281018890527f134ffefb84024e6cd2bb0455365b114f82b012f23b0b0cf931045b8020f26ba59060600160405180910390a150505050505092915050565b7f8041b8421ebd495cc61f38c788c9eb100daccf9bd36aa0bb920b7a15b2e0496590565b6000611fa1620151808361348a565b611fab90846135cf565b9050828110156104bc57600080fd5b60008080611fda611fd586611fd08760016135cf565b6123a2565b612479565b50915091506000611fed8383600061249a565b90506000611ffa826124bd565b9050600060058260058410612010576000612013565b60075b60ff1661202091906135cf565b61202a919061357a565b905061203683826124f8565b95506000861161207c5760405162461bcd60e51b81526020600482015260116024820152700496e76616c69642054696d657374616d7607c1b6044820152606401610b42565b505050505092915050565b600080821161209557600080fd5b60056120a183856135fd565b6120ac90600a61348a565b836120b886600a61348a565b6120c291906135fd565b6120cc919061357a565b10156120dc576104ab82846135fd565b6120e682846135fd565b6104ab9060016135cf565b60006001600160ff1b0382111561215b5760405162461bcd60e51b815260206004820152602860248201527f53616665436173743a2076616c756520646f65736e27742066697420696e2061604482015267371034b73a191a9b60c11b6064820152608401610b42565b5090565b60008061216c848661357a565b9050600061217a848761357a565b9050612186828861348a565b816121938961271061357a565b61219d919061348a565b6121a791906135cf565b826121b48961271061348a565b6121be919061348a565b6121c891906135fd565b979650505050505050565b60006121f27011d95b995cda5cd5985b1d5955985d5b1d607a1b612520565b905090565b60006121f27121bab93932b731bca1b7b73a3937b63632b960711b612520565b60006121f2742132b0b1b7b7283937bc3ca1b7b73a3937b63632b960591b612520565b60006121f269151bdad95b95985d5b1d60b21b612520565b60008061225d611f6e565b6000858152600c919091016020908152604080832086845282529182902082518084019093528054835260010154908201819052909150156122ba576122b38160200151612710836000015161068c919061348a565b915061239b565b6122c2611f6e565b6000858152600d919091016020908152604080832086845290915290205415612312576122ed611f6e565b6000858152600d9190910160209081526040808320868452909152902054915061239b565b61231a6121d3565b6001600160a01b031663d637c15f856040518263ffffffff1660e01b815260040161234791815260200190565b60a06040518083038186803b15801561235f57600080fd5b505afa158015612373573d6000803e3d6000fd5b505050506040513d601f19601f820116820180604052508101906123979190613611565b5191505b5092915050565b60008080806123bc6123b762015180886135fd565b6125b1565b919450925090506123cd85836135cf565b9150600c6123dc60018461357a565b6123e691906135fd565b6123f090846135cf565b9250600c6123ff60018461357a565b6124099190613681565b6124149060016135cf565b915060006124228484612725565b905080821115612430578091505b61243d6201518088613681565b6201518061244c8686866127ab565b612456919061348a565b61246091906135cf565b94508685101561246f57600080fd5b5050505092915050565b6000808061248d6123b762015180866135fd565b9196909550909350915050565b6000620151806124ab8585856127ab565b6124b5919061348a565b949350505050565b6000806124cd62015180846135fd565b905060076124dc8260036135cf565b6124e69190613681565b6124f19060016135cf565b9392505050565b6000612507620151808361348a565b612511908461357a565b9050828111156104bc57600080fd5b60008181527f4abde63c3e81aefa5764b017968bc473e83e093d7e1a10247d19e0a3e41240196020908152604080832054815170026b4b9b9b4b7339030b2323932b9b99d1607d1b9381019390935260318084018690528251808503909101815260519093019091526001600160a01b0316908161239b5760405162461bcd60e51b8152600401610b429190613695565b60008080838162253d8c6125c88362010bd96136ea565b6125d291906136ea565b9050600062023ab16125e583600461372b565b6125ef91906137b0565b905060046126008262023ab161372b565b61260b9060036136ea565b61261591906137b0565b61261f90836137de565b9150600062164b096126328460016136ea565b61263e90610fa061372b565b61264891906137b0565b90506004612658826105b561372b565b61266291906137b0565b61266c90846137de565b61267790601f6136ea565b9250600061098f61268985605061372b565b61269391906137b0565b9050600060506126a58361098f61372b565b6126af91906137b0565b6126b990866137de565b90506126c6600b836137b0565b94506126d385600c61372b565b6126de8360026136ea565b6126e891906137de565b915084836126f76031876137de565b61270290606461372b565b61270c91906136ea565b61271691906136ea565b9a919950975095505050505050565b600081600114806127365750816003145b806127415750816005145b8061274c5750816007145b806127575750816008145b80612762575081600a145b8061276d575081600c145b1561277a5750601f6104bc565b8160021461278a5750601e6104bc565b612793836128e8565b61279e57601c6127a1565b601d5b60ff169392505050565b60006107b28410156127bc57600080fd5b838383600062253d8c60046064600c6127d6600e886137de565b6127e091906137b0565b6127ec886113246136ea565b6127f691906136ea565b61280091906137b0565b61280b90600361372b565b61281591906137b0565b600c80612823600e886137de565b61282d91906137b0565b61283890600c61372b565b6128436002886137de565b61284d91906137de565b6128599061016f61372b565b61286391906137b0565b6004600c612872600e896137de565b61287c91906137b0565b612888896112c06136ea565b61289291906136ea565b61289e906105b561372b565b6128a891906137b0565b6128b4617d4b876137de565b6128be91906136ea565b6128c891906136ea565b6128d291906137de565b6128dc91906137de565b98975050505050505050565b60006128f5600483613681565b15801561290b5750612908606483613681565b15155b806104bc575061291d61019083613681565b1592915050565b6040518061014001604052806000801916815260200160008152602001600081526020016000815260200160008152602001600081526020016000815260200160008152602001600081526020016000151581525090565b6040518060800160405280600065ffffffffffff16815260200160006001600160a01b0316815260200160008152602001600081525090565b6000602082840312156129c757600080fd5b5035919050565b602080825282518282018190526000919060409081850190868401855b82811015612a665781518051855286810151878601528581015186860152606080820151908601526080808201519086015260a0808201519086015260c0808201519086015260e0808201519086015261010080820151908601526101209081015115159085015261014090930192908501906001016129eb565b5091979650505050505050565b60008060408385031215612a8657600080fd5b50508035926020909101359150565b825165ffffffffffff1681526020808401516001600160a01b03169082015260408084015190820152606080840151908201526101008101825165ffffffffffff16608083015260208301516001600160a01b031660a0830152604083015160c0830152606083015160e08301526124f1565b634e487b7160e01b600052604160045260246000fd5b604051601f8201601f1916810167ffffffffffffffff81118282101715612b4757612b47612b08565b604052919050565b600067ffffffffffffffff821115612b6957612b69612b08565b5060051b60200190565b60006020808385031215612b8657600080fd5b823567ffffffffffffffff811115612b9d57600080fd5b8301601f81018513612bae57600080fd5b8035612bc1612bbc82612b4f565b612b1e565b81815260059190911b82018301908381019087831115612be057600080fd5b928401925b828410156121c857833582529284019290840190612be5565b600080600060608486031215612c1357600080fd5b505081359360208301359350604090920135919050565b60008060008060008060c08789031215612c4357600080fd5b505084359660208601359650604086013595606081013595506080810135945060a0013592509050565b805480835260008281526020808220940193909190825b82601f82011015612f0b57815460ff80821688526020612cad818a01838560081c1660ff169052565b6040612cc2818b01848660101c1660ff169052565b6060612cd7818c01858760181c1660ff169052565b6080612ceb818d018688871c1660ff169052565b60a09350612d02848d01868860281c1660ff169052565b60c0612d17818e01878960301c1660ff169052565b60e0612d2c818f01888a60381c1660ff169052565b60ff88861c8816166101008f0152612d4f6101208f01888a60481c1660ff169052565b612d646101408f01888a60501c1660ff169052565b612d796101608f01888a60581c1660ff169052565b60ff88851c8816166101808f0152612d9c6101a08f01888a60681c1660ff169052565b612db16101c08f01888a60701c1660ff169052565b612dc66101e08f01888a60781c1660ff169052565b60ff88841c8816166102008f0152612de96102208f01888a60881c1660ff169052565b612dfe6102408f01888a60901c1660ff169052565b612e136102608f01888a60981c1660ff169052565b60ff88871c8816166102808f0152612e366102a08f01888a60a81c1660ff169052565b612e4b6102c08f01888a60b01c1660ff169052565b612e606102e08f01888a60b81c1660ff169052565b60ff88831c8816166103008f0152612e836103208f01888a60c81c1660ff169052565b612e986103408f01888a60d01c1660ff169052565b612ead6103608f01888a60d81c1660ff169052565b60ff88821c8816166103808f0152505050505050612ed66103a08901828460e81c1660ff169052565b612eeb6103c08901828460f01c1660ff169052565b5060f81c6103e08701526104009095019460019190910190602001612c84565b90549082811015612f265760ff821686526020909501946001015b82811015612f425760ff600883901c1686526020909501946001015b82811015612f5e5760ff601083901c1686526020909501946001015b82811015612f7a5760ff601883901c1686526020909501946001015b82811015612f9757602082901c60ff168652602095909501946001015b82811015612fb35760ff602883901c1686526020909501946001015b82811015612fcf5760ff603083901c1686526020909501946001015b82811015612feb5760ff603883901c1686526020909501946001015b828110156130075760ff604083901c1686526020909501946001015b828110156130235760ff604883901c1686526020909501946001015b8281101561303f5760ff605083901c1686526020909501946001015b8281101561305b5760ff605883901c1686526020909501946001015b828110156130775760ff606083901c1686526020909501946001015b828110156130935760ff606883901c1686526020909501946001015b828110156130af5760ff607083901c1686526020909501946001015b828110156130cb5760ff607883901c1686526020909501946001015b828110156130e75760ff608083901c1686526020909501946001015b828110156131035760ff608883901c1686526020909501946001015b8281101561311f5760ff609083901c1686526020909501946001015b8281101561313b5760ff609883901c1686526020909501946001015b828110156131575760ff60a083901c1686526020909501946001015b828110156131735760ff60a883901c1686526020909501946001015b8281101561318f5760ff60b083901c1686526020909501946001015b828110156131ab5760ff60b883901c1686526020909501946001015b828110156131c75760ff60c083901c1686526020909501946001015b828110156131e35760ff60c883901c1686526020909501946001015b828110156131ff5760ff60d083901c1686526020909501946001015b8281101561321b5760ff60d883901c1686526020909501946001015b828110156132375760ff60e083901c1686526020909501946001015b828110156132535760ff60e883901c1686526020909501946001015b8281101561326f5760ff60f083901c1686526020909501946001015b828110156132855760f882901c86526020860195505b5093949350505050565b6020815260006124f16020830184612c6d565b600060208083850312156132b557600080fd5b825167ffffffffffffffff8111156132cc57600080fd5b8301601f810185136132dd57600080fd5b80516132eb612bbc82612b4f565b81815260059190911b8201830190838101908783111561330a57600080fd5b928401925b828410156121c85783518252928401929084019061330f565b634e487b7160e01b600052603260045260246000fd5b634e487b7160e01b600052601160045260246000fd5b60006000198214156133685761336861333e565b5060010190565b8051801515811461337f57600080fd5b919050565b60006020828403121561339657600080fd5b6124f18261336f565b80516001600160a01b038116811461337f57600080fd5b6000608082840312156133c857600080fd5b6040516080810181811067ffffffffffffffff821117156133eb576133eb612b08565b8060405250809150825165ffffffffffff8116811461340957600080fd5b81526134176020840161339f565b602082015260408301516040820152606083015160608201525092915050565b6000806000806000610160868803121561345057600080fd5b85519450602086015193506040860151925061346f87606088016133b6565b915061347e8760e088016133b6565b90509295509295909350565b60008160001904831182151516156134a4576134a461333e565b500290565b60006101008083850312156134bd57600080fd5b6040519081019067ffffffffffffffff821181831017156134e0576134e0612b08565b81604052835181526020840151602082015260408401516040820152606084015160608201526080840151608082015260a084015160a082015260c084015160c082015261353060e0850161336f565b60e0820152949350505050565b60006020828403121561354f57600080fd5b5051919050565b6000806040838503121561356957600080fd5b505080516020909101519092909150565b60008282101561358c5761358c61333e565b500390565b6000602082840312156135a357600080fd5b815160ff811681146124f157600080fd5b6000602082840312156135c657600080fd5b6124f18261339f565b600082198211156135e2576135e261333e565b500190565b634e487b7160e01b600052601260045260246000fd5b60008261360c5761360c6135e7565b500490565b600060a0828403121561362357600080fd5b60405160a0810181811067ffffffffffffffff8211171561364657613646612b08565b806040525082518152602083015160208201526040830151604082015260608301516060820152608083015160808201528091505092915050565b600082613690576136906135e7565b500690565b600060208083528351808285015260005b818110156136c2578581018301518582016040015282016136a6565b818111156136d4576000604083870101525b50601f01601f1916929092016040019392505050565b600080821280156001600160ff1b038490038513161561370c5761370c61333e565b600160ff1b83900384128116156137255761372561333e565b50500190565b60006001600160ff1b03818413828413808216868404861116156137515761375161333e565b600160ff1b60008712828116878305891216156137705761377061333e565b6000871292508782058712848416161561378c5761378c61333e565b878505871281841616156137a2576137a261333e565b505050929093029392505050565b6000826137bf576137bf6135e7565b600160ff1b8214600019841416156137d9576137d961333e565b500590565b60008083128015600160ff1b8501841216156137fc576137fc61333e565b6001600160ff1b03840183138116156138175761381761333e565b5050039056fea2646970667358221220fbcdad2172363d5cbe9052d719f462df41199b1b615169e2d58a7b47ddab21e264736f6c63430008090033",
  "libraries": {
    "LendingMarketConfigurationLogic": "0xb9b27c8E1D86EED52774f845988FaEF05Ea8A7A5"
  },
  "devdoc": {
    "kind": "dev",
    "methods": {},
    "version": 1
  },
  "userdoc": {
    "kind": "user",
    "methods": {},
    "version": 1
  },
  "storageLayout": {
    "storage": [],
    "types": null
  }
}