{
  "address": "0x01E44440495502d5759b320d7bD659B07F71C13b",
  "abi": [
    {
      "inputs": [],
      "name": "ContractLocked",
      "type": "error"
    },
    {
      "anonymous": false,
      "inputs": [
        {
          "indexed": false,
          "internalType": "uint256",
          "name": "previousRate",
          "type": "uint256"
        },
        {
          "indexed": false,
          "internalType": "uint256",
          "name": "rate",
          "type": "uint256"
        }
      ],
      "name": "AutoRollFeeRateUpdated",
      "type": "event"
    },
    {
      "anonymous": false,
      "inputs": [
        {
          "indexed": false,
          "internalType": "bytes32",
          "name": "name",
          "type": "bytes32"
        },
        {
          "indexed": false,
          "internalType": "address",
          "name": "destination",
          "type": "address"
        }
      ],
      "name": "CacheUpdated",
      "type": "event"
    },
    {
      "anonymous": false,
      "inputs": [
        {
          "indexed": false,
          "internalType": "uint256",
          "name": "timestamp",
          "type": "uint256"
        }
      ],
      "name": "EmergencyTerminationExecuted",
      "type": "event"
    },
    {
      "anonymous": false,
      "inputs": [
        {
          "indexed": false,
          "internalType": "uint8",
          "name": "version",
          "type": "uint8"
        }
      ],
      "name": "Initialized",
      "type": "event"
    },
    {
      "anonymous": false,
      "inputs": [
        {
          "indexed": true,
          "internalType": "bytes32",
          "name": "ccy",
          "type": "bytes32"
        },
        {
          "indexed": true,
          "internalType": "address",
          "name": "marketAddr",
          "type": "address"
        },
        {
          "indexed": false,
          "internalType": "address",
          "name": "futureValueVault",
          "type": "address"
        },
        {
          "indexed": false,
          "internalType": "uint256",
          "name": "index",
          "type": "uint256"
        },
        {
          "indexed": false,
          "internalType": "uint256",
          "name": "openingDate",
          "type": "uint256"
        },
        {
          "indexed": false,
          "internalType": "uint256",
          "name": "maturity",
          "type": "uint256"
        }
      ],
      "name": "LendingMarketCreated",
      "type": "event"
    },
    {
      "anonymous": false,
      "inputs": [
        {
          "indexed": false,
          "internalType": "bytes32",
          "name": "ccy",
          "type": "bytes32"
        },
        {
          "indexed": false,
          "internalType": "uint256",
          "name": "oldMaturity",
          "type": "uint256"
        },
        {
          "indexed": false,
          "internalType": "uint256",
          "name": "newMaturity",
          "type": "uint256"
        }
      ],
      "name": "LendingMarketsRotated",
      "type": "event"
    },
    {
      "anonymous": false,
      "inputs": [
        {
          "indexed": true,
          "internalType": "address",
          "name": "user",
          "type": "address"
        },
        {
          "indexed": false,
          "internalType": "bytes32",
          "name": "collateralCcy",
          "type": "bytes32"
        },
        {
          "indexed": true,
          "internalType": "bytes32",
          "name": "debtCcy",
          "type": "bytes32"
        },
        {
          "indexed": true,
          "internalType": "uint256",
          "name": "debtMaturity",
          "type": "uint256"
        },
        {
          "indexed": false,
          "internalType": "uint256",
          "name": "debtAmount",
          "type": "uint256"
        }
      ],
      "name": "LiquidationExecuted",
      "type": "event"
    },
    {
      "anonymous": false,
      "inputs": [
        {
          "indexed": false,
          "internalType": "uint256",
          "name": "previousPeriod",
          "type": "uint256"
        },
        {
          "indexed": false,
          "internalType": "uint256",
          "name": "period",
          "type": "uint256"
        }
      ],
      "name": "ObservationPeriodUpdated",
      "type": "event"
    },
    {
      "anonymous": false,
      "inputs": [
        {
          "indexed": false,
          "internalType": "uint256",
          "name": "previousRate",
          "type": "uint256"
        },
        {
          "indexed": false,
          "internalType": "uint256",
          "name": "rate",
          "type": "uint256"
        }
      ],
      "name": "OrderFeeRateUpdated",
      "type": "event"
    },
    {
      "anonymous": false,
      "inputs": [
        {
          "indexed": true,
          "internalType": "address",
          "name": "previousOwner",
          "type": "address"
        },
        {
          "indexed": true,
          "internalType": "address",
          "name": "newOwner",
          "type": "address"
        }
      ],
      "name": "OwnershipTransferred",
      "type": "event"
    },
    {
      "anonymous": false,
      "inputs": [
        {
          "indexed": false,
          "internalType": "bytes32",
          "name": "ccy",
          "type": "bytes32"
        },
        {
          "indexed": true,
          "internalType": "address",
          "name": "user",
          "type": "address"
        },
        {
          "indexed": false,
          "internalType": "int256",
          "name": "amount",
          "type": "int256"
        }
      ],
      "name": "RedemptionExecuted",
      "type": "event"
    },
    {
      "inputs": [],
      "name": "acceptedContracts",
      "outputs": [
        {
          "internalType": "bytes32[]",
          "name": "contracts",
          "type": "bytes32[]"
        }
      ],
      "stateMutability": "pure",
      "type": "function"
    },
    {
      "inputs": [],
      "name": "buildCache",
      "outputs": [],
      "stateMutability": "nonpayable",
      "type": "function"
    },
    {
      "inputs": [
        {
          "internalType": "bytes32",
          "name": "_ccy",
          "type": "bytes32"
        },
        {
          "internalType": "address",
          "name": "_user",
          "type": "address"
        }
      ],
      "name": "calculateFunds",
      "outputs": [
        {
          "internalType": "uint256",
          "name": "workingLendOrdersAmount",
          "type": "uint256"
        },
        {
          "internalType": "uint256",
          "name": "claimableAmount",
          "type": "uint256"
        },
        {
          "internalType": "uint256",
          "name": "collateralAmount",
          "type": "uint256"
        },
        {
          "internalType": "uint256",
          "name": "lentAmount",
          "type": "uint256"
        },
        {
          "internalType": "uint256",
          "name": "workingBorrowOrdersAmount",
          "type": "uint256"
        },
        {
          "internalType": "uint256",
          "name": "debtAmount",
          "type": "uint256"
        },
        {
          "internalType": "uint256",
          "name": "borrowedAmount",
          "type": "uint256"
        }
      ],
      "stateMutability": "view",
      "type": "function"
    },
    {
      "inputs": [
        {
          "internalType": "address",
          "name": "_user",
          "type": "address"
        },
        {
          "internalType": "bytes32",
          "name": "_depositCcy",
          "type": "bytes32"
        },
        {
          "internalType": "uint256",
          "name": "_depositAmount",
          "type": "uint256"
        }
      ],
      "name": "calculateTotalFundsInETH",
      "outputs": [
        {
          "internalType": "uint256",
          "name": "totalWorkingLendOrdersAmount",
          "type": "uint256"
        },
        {
          "internalType": "uint256",
          "name": "totalClaimableAmount",
          "type": "uint256"
        },
        {
          "internalType": "uint256",
          "name": "totalCollateralAmount",
          "type": "uint256"
        },
        {
          "internalType": "uint256",
          "name": "totalLentAmount",
          "type": "uint256"
        },
        {
          "internalType": "uint256",
          "name": "totalWorkingBorrowOrdersAmount",
          "type": "uint256"
        },
        {
          "internalType": "uint256",
          "name": "totalDebtAmount",
          "type": "uint256"
        },
        {
          "internalType": "uint256",
          "name": "totalBorrowedAmount",
          "type": "uint256"
        },
        {
          "internalType": "bool",
          "name": "isEnoughDeposit",
          "type": "bool"
        }
      ],
      "stateMutability": "view",
      "type": "function"
    },
    {
      "inputs": [
        {
          "internalType": "bytes32",
          "name": "_ccy",
          "type": "bytes32"
        },
        {
          "internalType": "uint256",
          "name": "_maturity",
          "type": "uint256"
        },
        {
          "internalType": "uint48",
          "name": "_orderId",
          "type": "uint48"
        }
      ],
      "name": "cancelOrder",
      "outputs": [
        {
          "internalType": "bool",
          "name": "",
          "type": "bool"
        }
      ],
      "stateMutability": "nonpayable",
      "type": "function"
    },
    {
      "inputs": [
        {
          "internalType": "address",
          "name": "_user",
          "type": "address"
        }
      ],
      "name": "cleanUpAllFunds",
      "outputs": [],
      "stateMutability": "nonpayable",
      "type": "function"
    },
    {
      "inputs": [
        {
          "internalType": "bytes32",
          "name": "_ccy",
          "type": "bytes32"
        },
        {
          "internalType": "address",
          "name": "_user",
          "type": "address"
        }
      ],
      "name": "cleanUpFunds",
      "outputs": [
        {
          "internalType": "uint256",
          "name": "totalActiveOrderCount",
          "type": "uint256"
        }
      ],
      "stateMutability": "nonpayable",
      "type": "function"
    },
    {
      "inputs": [
        {
          "internalType": "bytes32",
          "name": "_ccy",
          "type": "bytes32"
        },
        {
          "internalType": "uint256",
          "name": "_openingDate",
          "type": "uint256"
        }
      ],
      "name": "createLendingMarket",
      "outputs": [],
      "stateMutability": "nonpayable",
      "type": "function"
    },
    {
      "inputs": [
        {
          "internalType": "bytes32",
          "name": "_ccy",
          "type": "bytes32"
        },
        {
          "internalType": "uint256",
          "name": "_maturity",
          "type": "uint256"
        },
        {
          "internalType": "enum ProtocolTypes.Side",
          "name": "_side",
          "type": "uint8"
        },
        {
          "internalType": "uint256",
          "name": "_amount",
          "type": "uint256"
        },
        {
          "internalType": "uint256",
          "name": "_unitPrice",
          "type": "uint256"
        }
      ],
      "name": "createOrder",
      "outputs": [
        {
          "internalType": "bool",
          "name": "",
          "type": "bool"
        }
      ],
      "stateMutability": "nonpayable",
      "type": "function"
    },
    {
      "inputs": [
        {
          "internalType": "bytes32",
          "name": "_ccy",
          "type": "bytes32"
        },
        {
          "internalType": "uint256",
          "name": "_maturity",
          "type": "uint256"
        },
        {
          "internalType": "enum ProtocolTypes.Side",
          "name": "_side",
          "type": "uint8"
        },
        {
          "internalType": "uint256",
          "name": "_amount",
          "type": "uint256"
        },
        {
          "internalType": "uint256",
          "name": "_unitPrice",
          "type": "uint256"
        }
      ],
      "name": "createPreOrder",
      "outputs": [
        {
          "internalType": "bool",
          "name": "",
          "type": "bool"
        }
      ],
      "stateMutability": "nonpayable",
      "type": "function"
    },
    {
      "inputs": [
        {
          "internalType": "bytes32",
          "name": "_ccy",
          "type": "bytes32"
        },
        {
          "internalType": "uint256",
          "name": "_maturity",
          "type": "uint256"
        },
        {
          "internalType": "enum ProtocolTypes.Side",
          "name": "_side",
          "type": "uint8"
        },
        {
          "internalType": "uint256",
          "name": "_amount",
          "type": "uint256"
        },
        {
          "internalType": "uint256",
          "name": "_unitPrice",
          "type": "uint256"
        }
      ],
      "name": "depositAndCreateOrder",
      "outputs": [
        {
          "internalType": "bool",
          "name": "",
          "type": "bool"
        }
      ],
      "stateMutability": "payable",
      "type": "function"
    },
    {
      "inputs": [
        {
          "internalType": "bytes32",
          "name": "_ccy",
          "type": "bytes32"
        },
        {
          "internalType": "uint256",
          "name": "_maturity",
          "type": "uint256"
        },
        {
          "internalType": "enum ProtocolTypes.Side",
          "name": "_side",
          "type": "uint8"
        },
        {
          "internalType": "uint256",
          "name": "_amount",
          "type": "uint256"
        },
        {
          "internalType": "uint256",
          "name": "_unitPrice",
          "type": "uint256"
        }
      ],
      "name": "depositAndCreatePreOrder",
      "outputs": [
        {
          "internalType": "bool",
          "name": "",
          "type": "bool"
        }
      ],
      "stateMutability": "payable",
      "type": "function"
    },
    {
      "inputs": [],
      "name": "executeEmergencyTermination",
      "outputs": [],
      "stateMutability": "nonpayable",
      "type": "function"
    },
    {
      "inputs": [
        {
          "internalType": "bytes32[]",
          "name": "_currencies",
          "type": "bytes32[]"
        },
        {
          "internalType": "uint256",
          "name": "_maturity",
          "type": "uint256"
        }
      ],
      "name": "executeItayoseCalls",
      "outputs": [
        {
          "internalType": "bool",
          "name": "",
          "type": "bool"
        }
      ],
      "stateMutability": "nonpayable",
      "type": "function"
    },
    {
      "inputs": [
        {
          "internalType": "bytes32",
          "name": "_collateralCcy",
          "type": "bytes32"
        },
        {
          "internalType": "bytes32",
          "name": "_debtCcy",
          "type": "bytes32"
        },
        {
          "internalType": "uint256",
          "name": "_debtMaturity",
          "type": "uint256"
        },
        {
          "internalType": "address",
          "name": "_user",
          "type": "address"
        }
      ],
      "name": "executeLiquidationCall",
      "outputs": [
        {
          "internalType": "bool",
          "name": "",
          "type": "bool"
        }
      ],
      "stateMutability": "nonpayable",
      "type": "function"
    },
    {
      "inputs": [
        {
          "internalType": "bytes32",
          "name": "_redemptionCcy",
          "type": "bytes32"
        },
        {
          "internalType": "bytes32",
          "name": "_collateralCcy",
          "type": "bytes32"
        }
      ],
      "name": "executeRedemption",
      "outputs": [
        {
          "internalType": "bool",
          "name": "",
          "type": "bool"
        }
      ],
      "stateMutability": "nonpayable",
      "type": "function"
    },
    {
      "inputs": [
        {
          "internalType": "bytes32",
          "name": "_ccy",
          "type": "bytes32"
        }
      ],
      "name": "getAutoRollFeeRate",
      "outputs": [
        {
          "internalType": "uint256",
          "name": "",
          "type": "uint256"
        }
      ],
      "stateMutability": "view",
      "type": "function"
    },
    {
      "inputs": [
        {
          "internalType": "bytes32",
          "name": "_ccy",
          "type": "bytes32"
        },
        {
          "internalType": "uint256",
          "name": "_maturity",
          "type": "uint256"
        },
        {
          "internalType": "uint256",
          "name": "_limit",
          "type": "uint256"
        }
      ],
      "name": "getBorrowOrderBook",
      "outputs": [
        {
          "internalType": "uint256[]",
          "name": "unitPrices",
          "type": "uint256[]"
        },
        {
          "internalType": "uint256[]",
          "name": "amounts",
          "type": "uint256[]"
        },
        {
          "internalType": "uint256[]",
          "name": "quantities",
          "type": "uint256[]"
        }
      ],
      "stateMutability": "view",
      "type": "function"
    },
    {
      "inputs": [
        {
          "internalType": "bytes32",
          "name": "_ccy",
          "type": "bytes32"
        }
      ],
      "name": "getBorrowUnitPrices",
      "outputs": [
        {
          "internalType": "uint256[]",
          "name": "",
          "type": "uint256[]"
        }
      ],
      "stateMutability": "view",
      "type": "function"
    },
    {
      "inputs": [
        {
          "internalType": "bytes32",
          "name": "_ccy",
          "type": "bytes32"
        },
        {
          "internalType": "uint256",
          "name": "_maturity",
          "type": "uint256"
        },
        {
          "internalType": "address",
          "name": "_user",
          "type": "address"
        }
      ],
      "name": "getFutureValue",
      "outputs": [
        {
          "internalType": "int256",
          "name": "futureValue",
          "type": "int256"
        }
      ],
      "stateMutability": "view",
      "type": "function"
    },
    {
      "inputs": [
        {
          "internalType": "bytes32",
          "name": "_ccy",
          "type": "bytes32"
        },
        {
          "internalType": "uint256",
          "name": "_maturity",
          "type": "uint256"
        }
      ],
      "name": "getFutureValueVault",
      "outputs": [
        {
          "internalType": "address",
          "name": "",
          "type": "address"
        }
      ],
      "stateMutability": "view",
      "type": "function"
    },
    {
      "inputs": [
        {
          "internalType": "bytes32",
          "name": "_ccy",
          "type": "bytes32"
        }
      ],
      "name": "getGenesisDate",
      "outputs": [
        {
          "internalType": "uint256",
          "name": "",
          "type": "uint256"
        }
      ],
      "stateMutability": "view",
      "type": "function"
    },
    {
      "inputs": [
        {
          "internalType": "bytes32",
          "name": "_ccy",
          "type": "bytes32"
        },
        {
          "internalType": "address",
          "name": "_user",
          "type": "address"
        }
      ],
      "name": "getGenesisValue",
      "outputs": [
        {
          "internalType": "int256",
          "name": "genesisValue",
          "type": "int256"
        }
      ],
      "stateMutability": "view",
      "type": "function"
    },
    {
      "inputs": [
        {
          "internalType": "bytes32",
          "name": "_ccy",
          "type": "bytes32"
        },
        {
          "internalType": "uint256",
          "name": "_maturity",
          "type": "uint256"
        },
        {
          "internalType": "uint256",
          "name": "_limit",
          "type": "uint256"
        }
      ],
      "name": "getLendOrderBook",
      "outputs": [
        {
          "internalType": "uint256[]",
          "name": "unitPrices",
          "type": "uint256[]"
        },
        {
          "internalType": "uint256[]",
          "name": "amounts",
          "type": "uint256[]"
        },
        {
          "internalType": "uint256[]",
          "name": "quantities",
          "type": "uint256[]"
        }
      ],
      "stateMutability": "view",
      "type": "function"
    },
    {
      "inputs": [
        {
          "internalType": "bytes32",
          "name": "_ccy",
          "type": "bytes32"
        }
      ],
      "name": "getLendUnitPrices",
      "outputs": [
        {
          "internalType": "uint256[]",
          "name": "",
          "type": "uint256[]"
        }
      ],
      "stateMutability": "view",
      "type": "function"
    },
    {
      "inputs": [
        {
          "internalType": "bytes32",
          "name": "_ccy",
          "type": "bytes32"
        },
        {
          "internalType": "uint256",
          "name": "_maturity",
          "type": "uint256"
        }
      ],
      "name": "getLendingMarket",
      "outputs": [
        {
          "internalType": "address",
          "name": "",
          "type": "address"
        }
      ],
      "stateMutability": "view",
      "type": "function"
    },
    {
      "inputs": [
        {
          "internalType": "bytes32",
          "name": "_ccy",
          "type": "bytes32"
        }
      ],
      "name": "getLendingMarkets",
      "outputs": [
        {
          "internalType": "address[]",
          "name": "",
          "type": "address[]"
        }
      ],
      "stateMutability": "view",
      "type": "function"
    },
    {
      "inputs": [
        {
          "internalType": "bytes32",
          "name": "_ccy",
          "type": "bytes32"
        }
      ],
      "name": "getMaturities",
      "outputs": [
        {
          "internalType": "uint256[]",
          "name": "",
          "type": "uint256[]"
        }
      ],
      "stateMutability": "view",
      "type": "function"
    },
    {
      "inputs": [
        {
          "internalType": "bytes32",
          "name": "_ccy",
          "type": "bytes32"
        }
      ],
      "name": "getMidUnitPrices",
      "outputs": [
        {
          "internalType": "uint256[]",
          "name": "",
          "type": "uint256[]"
        }
      ],
      "stateMutability": "view",
      "type": "function"
    },
    {
      "inputs": [],
      "name": "getObservationPeriod",
      "outputs": [
        {
          "internalType": "uint256",
          "name": "",
          "type": "uint256"
        }
      ],
      "stateMutability": "view",
      "type": "function"
    },
    {
      "inputs": [
        {
          "internalType": "bytes32",
          "name": "_ccy",
          "type": "bytes32"
        }
      ],
      "name": "getOrderFeeRate",
      "outputs": [
        {
          "internalType": "uint256",
          "name": "",
          "type": "uint256"
        }
      ],
      "stateMutability": "view",
      "type": "function"
    },
    {
      "inputs": [
        {
          "internalType": "bytes32",
          "name": "_ccy",
          "type": "bytes32"
        },
        {
          "internalType": "uint256",
          "name": "_maturity",
          "type": "uint256"
        },
        {
          "internalType": "address",
          "name": "_user",
          "type": "address"
        }
      ],
      "name": "getPresentValue",
      "outputs": [
        {
          "internalType": "int256",
          "name": "presentValue",
          "type": "int256"
        }
      ],
      "stateMutability": "view",
      "type": "function"
    },
    {
      "inputs": [
        {
          "internalType": "bytes32",
          "name": "_ccy",
          "type": "bytes32"
        },
        {
          "internalType": "address",
          "name": "_user",
          "type": "address"
        }
      ],
      "name": "getTotalPresentValue",
      "outputs": [
        {
          "internalType": "int256",
          "name": "totalPresentValue",
          "type": "int256"
        }
      ],
      "stateMutability": "view",
      "type": "function"
    },
    {
      "inputs": [
        {
          "internalType": "address",
          "name": "_user",
          "type": "address"
        }
      ],
      "name": "getTotalPresentValueInETH",
      "outputs": [
        {
          "internalType": "int256",
          "name": "totalPresentValue",
          "type": "int256"
        }
      ],
      "stateMutability": "view",
      "type": "function"
    },
    {
      "inputs": [
        {
          "internalType": "address",
          "name": "_user",
          "type": "address"
        }
      ],
      "name": "getUsedCurrencies",
      "outputs": [
        {
          "internalType": "bytes32[]",
          "name": "",
          "type": "bytes32[]"
        }
      ],
      "stateMutability": "view",
      "type": "function"
    },
    {
      "inputs": [
        {
          "internalType": "address",
          "name": "_owner",
          "type": "address"
        },
        {
          "internalType": "address",
          "name": "_resolver",
          "type": "address"
        },
        {
          "internalType": "uint256",
          "name": "_marketBasePeriod",
          "type": "uint256"
        },
        {
          "internalType": "uint256",
          "name": "_observationPeriod",
          "type": "uint256"
        }
      ],
      "name": "initialize",
      "outputs": [],
      "stateMutability": "nonpayable",
      "type": "function"
    },
    {
      "inputs": [
        {
          "internalType": "bytes32",
          "name": "_ccy",
          "type": "bytes32"
        },
        {
          "internalType": "uint256",
          "name": "_genesisDate",
          "type": "uint256"
        },
        {
          "internalType": "uint256",
          "name": "_compoundFactor",
          "type": "uint256"
        },
        {
          "internalType": "uint256",
          "name": "_orderFeeRate",
          "type": "uint256"
        },
        {
          "internalType": "uint256",
          "name": "_autoRollFeeRate",
          "type": "uint256"
        }
      ],
      "name": "initializeLendingMarket",
      "outputs": [],
      "stateMutability": "nonpayable",
      "type": "function"
    },
    {
      "inputs": [
        {
          "internalType": "bytes32",
          "name": "_ccy",
          "type": "bytes32"
        }
      ],
      "name": "isInitializedLendingMarket",
      "outputs": [
        {
          "internalType": "bool",
          "name": "",
          "type": "bool"
        }
      ],
      "stateMutability": "view",
      "type": "function"
    },
    {
      "inputs": [],
      "name": "isResolverCached",
      "outputs": [
        {
          "internalType": "bool",
          "name": "",
          "type": "bool"
        }
      ],
      "stateMutability": "view",
      "type": "function"
    },
    {
      "inputs": [],
      "name": "isTerminated",
      "outputs": [
        {
          "internalType": "bool",
          "name": "",
          "type": "bool"
        }
      ],
      "stateMutability": "view",
      "type": "function"
    },
    {
      "inputs": [],
      "name": "owner",
      "outputs": [
        {
          "internalType": "address",
          "name": "",
          "type": "address"
        }
      ],
      "stateMutability": "view",
      "type": "function"
    },
    {
      "inputs": [
        {
          "internalType": "bytes32",
          "name": "_ccy",
          "type": "bytes32"
        }
      ],
      "name": "pauseLendingMarkets",
      "outputs": [
        {
          "internalType": "bool",
          "name": "",
          "type": "bool"
        }
      ],
      "stateMutability": "nonpayable",
      "type": "function"
    },
    {
      "inputs": [],
      "name": "renounceOwnership",
      "outputs": [],
      "stateMutability": "nonpayable",
      "type": "function"
    },
    {
      "inputs": [],
      "name": "requiredContracts",
      "outputs": [
        {
          "internalType": "bytes32[]",
          "name": "contracts",
          "type": "bytes32[]"
        }
      ],
      "stateMutability": "pure",
      "type": "function"
    },
    {
      "inputs": [],
      "name": "resolver",
      "outputs": [
        {
          "internalType": "contract IAddressResolver",
          "name": "",
          "type": "address"
        }
      ],
      "stateMutability": "view",
      "type": "function"
    },
    {
      "inputs": [
        {
          "internalType": "bytes32",
          "name": "_ccy",
          "type": "bytes32"
        }
      ],
      "name": "rotateLendingMarkets",
      "outputs": [],
      "stateMutability": "nonpayable",
      "type": "function"
    },
    {
      "inputs": [
        {
          "internalType": "address",
          "name": "newOwner",
          "type": "address"
        }
      ],
      "name": "transferOwnership",
      "outputs": [],
      "stateMutability": "nonpayable",
      "type": "function"
    },
    {
      "inputs": [
        {
          "internalType": "bytes32",
          "name": "_ccy",
          "type": "bytes32"
        }
      ],
      "name": "unpauseLendingMarkets",
      "outputs": [
        {
          "internalType": "bool",
          "name": "",
          "type": "bool"
        }
      ],
      "stateMutability": "nonpayable",
      "type": "function"
    },
    {
      "inputs": [
        {
          "internalType": "bytes32",
          "name": "_ccy",
          "type": "bytes32"
        },
        {
          "internalType": "uint256",
          "name": "_maturity",
          "type": "uint256"
        }
      ],
      "name": "unwindOrder",
      "outputs": [
        {
          "internalType": "bool",
          "name": "",
          "type": "bool"
        }
      ],
      "stateMutability": "nonpayable",
      "type": "function"
    },
    {
      "inputs": [
        {
          "internalType": "bytes32",
          "name": "_ccy",
          "type": "bytes32"
        },
        {
          "internalType": "uint256",
          "name": "_autoRollFeeRate",
          "type": "uint256"
        }
      ],
      "name": "updateAutoRollFeeRate",
      "outputs": [],
      "stateMutability": "nonpayable",
      "type": "function"
    },
    {
      "inputs": [
        {
          "internalType": "uint256",
          "name": "_observationPeriod",
          "type": "uint256"
        }
      ],
      "name": "updateObservationPeriod",
      "outputs": [],
      "stateMutability": "nonpayable",
      "type": "function"
    },
    {
      "inputs": [
        {
          "internalType": "bytes32",
          "name": "_ccy",
          "type": "bytes32"
        },
        {
          "internalType": "uint256",
          "name": "_orderFeeRate",
          "type": "uint256"
        }
      ],
      "name": "updateOrderFeeRate",
      "outputs": [],
      "stateMutability": "nonpayable",
      "type": "function"
    }
  ],
  "transactionHash": "0xf7a94ae1da20bb2f5618999ccb9bda5df281ef18817b986f02011f72438d58a2",
  "args": [],
  "numDeployments": 2,
  "solcInputHash": "1ac2fb69d48f421b49df5db0f40e0e97",
  "bytecode": "0x608060405234801561001057600080fd5b5060016000556159f380620000266000396000f3fe6080604052600436106102ff5760003560e01c8063891d596511610190578063cb9d7401116100dc578063eb990c5911610095578063f2fde38b1161006f578063f2fde38b146109b4578063faca409b146109d4578063fb54a6b3146109f4578063fc70081014610a1457600080fd5b8063eb990c5914610940578063ebb9141614610960578063f1eaebae1461098057600080fd5b8063cb9d74011461087c578063d1cc9976146108b6578063e0997659146108cb578063e906c100146108e0578063e99d053814610900578063eb092a261461092057600080fd5b8063953dbcaa11610149578063b8f117cd11610123578063b8f117cd14610814578063bfd10cf614610829578063bfe61a2814610849578063c11333b11461085c57600080fd5b8063953dbcaa146107b4578063a02be3dc146107d4578063b3cb8450146107f457600080fd5b8063891d5965146106ff5780638a9817451461071f5780638b36d8331461073f5780638c197d8d1461075f5780638da5cb5b1461077f5780639519832b1461079457600080fd5b8063448255c71161024f57806370c641a611610208578063766cb64e116101e2578063766cb64e1461067f5780637c63039d1461069f578063826b47e8146106bf57806385323e1a146106df57600080fd5b806370c641a61461062a578063715018a61461064a57806372d563ef1461065f57600080fd5b8063448255c71461053557806349f2ccbf1461054857806355aceb4e146105685780635c347765146105955780635ca65d57146105ea578063677faaad1461060a57600080fd5b806329985e5a116102bc5780632e77aea7116102965780632e77aea7146104a65780632f749574146104c6578063381ada1f146104e65780633d03b9da1461051357600080fd5b806329985e5a1461045a5780632af64bd3146104715780632e6c5e671461048657600080fd5b80630312b5281461030457806303e5fb591461036657806304f3bcec146103ae5780630594de6e146103db57806317b72ff41461040a5780631deb8f391461042a575b600080fd5b34801561031057600080fd5b5061032461031f366004614c9f565b610a34565b604080519889526020890197909752958701949094526060860192909252608085015260a084015260c0830152151560e0820152610100015b60405180910390f35b34801561037257600080fd5b506103a0610381366004614cd4565b600090815260008051602061597e833981519152602052604090205490565b60405190815260200161035d565b3480156103ba57600080fd5b506103c3610afb565b6040516001600160a01b03909116815260200161035d565b3480156103e757600080fd5b506103fb6103f6366004614ced565b610b1c565b60405161035d93929190614d54565b34801561041657600080fd5b506103a0610425366004614d97565b610bdb565b34801561043657600080fd5b5061044a610445366004614dc7565b610c70565b604051901515815260200161035d565b34801561046657600080fd5b5061046f61109d565b005b34801561047d57600080fd5b5061044a61124a565b34801561049257600080fd5b5061044a6104a1366004614cd4565b6113b0565b3480156104b257600080fd5b506103a06104c1366004614de9565b6113d0565b3480156104d257600080fd5b5061046f6104e1366004614dc7565b611466565b3480156104f257600080fd5b50610506610501366004614cd4565b611569565b60405161035d9190614e22565b34801561051f57600080fd5b506105286115e7565b60405161035d9190614e6f565b61044a610543366004614eb4565b611709565b34801561055457600080fd5b5061044a610563366004614efd565b611843565b34801561057457600080fd5b50610588610583366004614cd4565b6119af565b60405161035d9190614f36565b3480156105a157600080fd5b506105b56105b0366004614d97565b611b21565b604080519788526020880196909652948601939093526060850191909152608084015260a083015260c082015260e00161035d565b3480156105f657600080fd5b5061046f610605366004614dc7565b611c0c565b34801561061657600080fd5b5061044a610625366004614dc7565b611cfe565b34801561063657600080fd5b506103a0610645366004614d97565b611fb5565b34801561065657600080fd5b5061046f61204d565b34801561066b57600080fd5b5061046f61067a366004614dc7565b612088565b34801561068b57600080fd5b5061046f61069a366004614f49565b6121f0565b3480156106ab57600080fd5b5061044a6106ba366004614fef565b612347565b3480156106cb57600080fd5b5061046f6106da36600461508b565b612499565b3480156106eb57600080fd5b506103c36106fa366004614dc7565b612587565b34801561070b57600080fd5b506103a061071a366004614cd4565b6125f0565b34801561072b57600080fd5b506103c361073a366004614dc7565b61260e565b34801561074b57600080fd5b5061046f61075a366004614cd4565b612640565b34801561076b57600080fd5b5061046f61077a366004614cd4565b6128a9565b34801561078b57600080fd5b506103c36128e4565b3480156107a057600080fd5b506103a06107af366004614d97565b61290c565b3480156107c057600080fd5b506103fb6107cf366004614ced565b6129a8565b3480156107e057600080fd5b506105886107ef366004614cd4565b612a07565b34801561080057600080fd5b5061044a61080f366004614cd4565b612b72565b34801561082057600080fd5b5061046f612c36565b34801561083557600080fd5b50610588610844366004614cd4565b612d4e565b61044a610857366004614eb4565b612eb9565b34801561086857600080fd5b5061044a6108773660046150a8565b612ff0565b34801561088857600080fd5b506103a0610897366004614cd4565b600090815260008051602061599e833981519152602052604090205490565b3480156108c257600080fd5b5061044a6136c6565b3480156108d757600080fd5b506105286136db565b3480156108ec57600080fd5b506103a06108fb366004614de9565b61371e565b34801561090c57600080fd5b5061044a61091b366004614cd4565b6137b7565b34801561092c57600080fd5b5061058861093b366004614cd4565b613845565b34801561094c57600080fd5b5061046f61095b3660046150e9565b6139b0565b34801561096c57600080fd5b5061044a61097b366004614eb4565b613b3f565b34801561098c57600080fd5b507f55cc3066d618b5a688ac1f2a8234e21c685f7432b4230a1660309640d60d8f66546103a0565b3480156109c057600080fd5b5061046f6109cf36600461508b565b613bef565b3480156109e057600080fd5b5061044a6109ef366004614eb4565b613c8c565b348015610a0057600080fd5b506103a0610a0f36600461508b565b613d3e565b348015610a2057600080fd5b50610528610a2f36600461508b565b613ec8565b604051626256a560e31b81526001600160a01b038416600482015260248101839052604481018290526000908190819081908190819081908190732767a5DdBe9Baa7bBCC2e5f873089e383D9e136990630312b528906064016101006040518083038186803b158015610aa657600080fd5b505af4158015610aba573d6000803e3d6000fd5b505050506040513d601f19601f82011682018060405250810190610ade919061513f565b975097509750975097509750975097509397509397509397509397565b600060008051602061595e8339815191525b546001600160a01b0316919050565b60608060606000610b2b613ef6565b600088815260069190910160209081526040808320898452909152908190205490516325fb168b60e11b8152600481018790526001600160a01b0390911691508190634bf62d16906024015b60006040518083038186803b158015610b8f57600080fd5b505afa158015610ba3573d6000803e3d6000fd5b505050506040513d6000823e601f3d908101601f19168201604052610bcb919081019061520b565b9350935093505093509350939050565b6040516295a47160e71b8152600090732767a5DdBe9Baa7bBCC2e5f873089e383D9e136990634ad2388090610c1890869085908790600401615293565b60e06040518083038186803b158015610c3057600080fd5b505af4158015610c44573d6000803e3d6000fd5b505050506040513d601f19601f82011682018060405250810190610c6891906152b2565b519392505050565b600060026000541415610c9e5760405162461bcd60e51b8152600401610c9590615336565b60405180910390fd5b6002600090815583908390610cb1613ef6565b6000848152600691909101602090815260408083208584529091529020546001600160a01b03161415610cf65760405162461bcd60e51b8152600401610c959061536d565b610cfe6136c6565b15610d1b5760405162461bcd60e51b8152600401610c9590615397565b604051639519832b60e01b815260048101869052336024820152732767a5DdBe9Baa7bBCC2e5f873089e383D9e136990639519832b9060440160206040518083038186803b158015610d6c57600080fd5b505af4158015610d80573d6000803e3d6000fd5b505050506040513d601f19601f82011682018060405250810190610da491906153c3565b506040516295a47160e71b8152600090732767a5DdBe9Baa7bBCC2e5f873089e383D9e136990634ad2388090610de290899089903390600401615293565b60e06040518083038186803b158015610dfa57600080fd5b505af4158015610e0e573d6000803e3d6000fd5b505050506040513d601f19601f82011682018060405250810190610e3291906152b2565b60200151905080610e7c5760405162461bcd60e51b81526020600482015260146024820152734675747572652056616c7565206973207a65726f60601b6044820152606401610c95565b6000806000610eae604051806060016040528060006001600160a01b0316815260200160008152602001600081525090565b600080861315610f7957506001610ec3613ef6565b60008c8152600691909101602090815260408083208d84529091529020546001600160a01b0316634c2afa2e8233610efa8a613f1a565b6040518463ffffffff1660e01b8152600401610f1893929190615414565b60c060405180830381600087803b158015610f3257600080fd5b505af1158015610f46573d6000803e3d6000fd5b505050506040513d601f19601f82011682018060405250810190610f6a91906154a3565b92975090955093509150611047565b600086121561104757506000610f8d613ef6565b60008c8152600691909101602090815260408083208d84529091529020546001600160a01b0316634c2afa2e8233610fcc610fc78b6154f9565b613f1a565b6040518463ffffffff1660e01b8152600401610fea93929190615414565b60c060405180830381600087803b15801561100457600080fd5b505af1158015611018573d6000803e3d6000fd5b505050506040513d601f19601f8201168201806040525081019061103c91906154a3565b929750909550935091505b6110588b8b338488888b6000613f70565b6110868b8b6000846001811115611071576110716153dc565b1461107d576000611080565b60015b856140ac565b600198505050505050505050600160005592915050565b60006110a76115e7565b905060005b81518110156112465760008282815181106110c9576110c9615516565b6020026020010151905060006110ea60008051602061595e83398151915290565b54604080517f5265736f6c766572206d697373696e67207461726765743a200000000000000060208201526039808201869052825180830390910181526059820192839052636795dbcd60e01b9092526001600160a01b0390921691636795dbcd9161115b91869190605d01615579565b60206040518083038186803b15801561117357600080fd5b505afa158015611187573d6000803e3d6000fd5b505050506040513d601f19601f820116820180604052508101906111ab9190615592565b60008381527f4abde63c3e81aefa5764b017968bc473e83e093d7e1a10247d19e0a3e4124019602090815260409182902080546001600160a01b0319166001600160a01b03851690811790915582518681529182015281519293507f88a93678a3692f6789d9546fc621bf7234b101ddb7d4fe479455112831b8aa68929081900390910190a15050808061123e906155af565b9150506110ac565b5050565b6000806112556115e7565b905060005b81518110156113a757600082828151811061127757611277615516565b6020026020010151905061129660008051602061595e83398151915290565b600082815260019190910160205260409020546001600160a01b031660008051602061595e833981519152546040516321f8a72160e01b8152600481018490526001600160a01b03909116906321f8a7219060240160206040518083038186803b15801561130357600080fd5b505afa158015611317573d6000803e3d6000fd5b505050506040513d601f19601f8201168201806040525081019061133b9190615592565b6001600160a01b0316141580611385575060008181527f4abde63c3e81aefa5764b017968bc473e83e093d7e1a10247d19e0a3e412401960205260409020546001600160a01b0316155b15611394576000935050505090565b508061139f816155af565b91505061125a565b50600191505090565b60006113ba613ef6565b6000928352600701602052506040902054151590565b6040516295a47160e71b8152600090732767a5DdBe9Baa7bBCC2e5f873089e383D9e136990634ad238809061140d90879087908790600401615293565b60e06040518083038186803b15801561142557600080fd5b505af4158015611439573d6000803e3d6000fd5b505050506040513d601f19601f8201168201806040525081019061145d91906152b2565b51949350505050565b3361146f6128e4565b6001600160a01b0316146114955760405162461bcd60e51b8152600401610c95906155ca565b6127108111156114e75760405162461bcd60e51b815260206004820152601a60248201527f496e76616c6964206175746f2d726f6c6c2066656520726174650000000000006044820152606401610c95565b600082815260008051602061599e833981519152602052604090205481811461156457600083815260008051602061599e833981519152602090815260409182902084905581518381529081018490527fdfbb9051e39a726dacd506a01fecef2277ab8adc7423037867c554573f179fdb91015b60405180910390a15b505050565b6060611573613ef6565b60040160008381526020019081526020016000208054806020026020016040519081016040528092919081815260200182805480156115db57602002820191906000526020600020905b81546001600160a01b031681526001909101906020018083116115bd575b50505050509050919050565b60408051600580825260c082019092526060916020820160a080368337019050509050742132b0b1b7b7283937bc3ca1b7b73a3937b63632b960591b8160008151811061163657611636615516565b6020026020010181815250507121bab93932b731bca1b7b73a3937b63632b960711b8160018151811061166b5761166b615516565b6020026020010181815250507011d95b995cda5cd5985b1d5955985d5b1d607a1b8160028151811061169f5761169f615516565b6020026020010181815250506a14995cd95c9d99519d5b9960aa1b816003815181106116cd576116cd615516565b60200260200101818152505069151bdad95b95985d5b1d60b21b816004815181106116fa576116fa615516565b60200260200101818152505090565b60006002600054141561172e5760405162461bcd60e51b8152600401610c9590615336565b6002600090815586908690611741613ef6565b6000848152600691909101602090815260408083208584529091529020546001600160a01b031614156117865760405162461bcd60e51b8152600401610c959061536d565b61178e6136c6565b156117ab5760405162461bcd60e51b8152600401610c9590615397565b6117b3614136565b6040516396994e3760e01b8152336004820152602481018a9052604481018790526001600160a01b0391909116906396994e379034906064016000604051808303818588803b15801561180557600080fd5b505af1158015611819573d6000803e3d6000fd5b505050505061182e8888338989896000614145565b50600192505050600160005595945050505050565b6000600260005414156118685760405162461bcd60e51b8152600401610c9590615336565b600260009081558490849061187b613ef6565b6000848152600691909101602090815260408083208584529091529020546001600160a01b031614156118c05760405162461bcd60e51b8152600401610c959061536d565b6118c86136c6565b156118e55760405162461bcd60e51b8152600401610c9590615397565b60006118ef613ef6565b6000888152600691909101602090815260408083208984529091529081902054905163504b89bd60e01b815233600482015265ffffffffffff871660248201526001600160a01b039091169150819063504b89bd90604401606060405180830381600087803b15801561196157600080fd5b505af1158015611975573d6000803e3d6000fd5b505050506040513d601f19601f8201168201806040525081019061199991906155ff565b5050506001935050505060016000559392505050565b606060006119bb613ef6565b6000848152600491909101602052604090205467ffffffffffffffff8111156119e6576119e6614f84565b604051908082528060200260200182016040528015611a0f578160200160208202803683370190505b50905060005b611a1d613ef6565b60008581526004919091016020526040902054811015611b1a576000611a41613ef6565b60040160008681526020019081526020016000208281548110611a6657611a66615516565b6000918252602091829020015460408051631b3508b760e01b815290516001600160a01b0390921693508392631b3508b792600480840193829003018186803b158015611ab257600080fd5b505afa158015611ac6573d6000803e3d6000fd5b505050506040513d601f19601f82011682018060405250810190611aea91906153c3565b838381518110611afc57611afc615516565b60209081029190910101525080611b12816155af565b915050611a15565b5092915050565b6000806000806000806000611b5a89611b38613ef6565b6001600160a01b038b16600090815260089190910160205260409020906144fb565b15611c0057604051635c34776560e01b8152600481018a90526001600160a01b0389166024820152732767a5DdBe9Baa7bBCC2e5f873089e383D9e136990635c3477659060440160e06040518083038186803b158015611bb957600080fd5b505af4158015611bcd573d6000803e3d6000fd5b505050506040513d601f19601f82011682018060405250810190611bf19190615636565b96509650965096509650965096505b92959891949750929550565b33611c156128e4565b6001600160a01b031614611c3b5760405162461bcd60e51b8152600401610c95906155ca565b612710811115611c865760405162461bcd60e51b8152602060048201526016602482015275496e76616c6964206f7264657220666565207261746560501b6044820152606401610c95565b600082815260008051602061597e833981519152602052604090205481811461156457600083815260008051602061597e833981519152602090815260409182902084905581518381529081018490527fff4528c215dc00005504418aa82be3bb2439c39be2eb30fd44012f5e79d168e2910161155b565b600060026000541415611d235760405162461bcd60e51b8152600401610c9590615336565b6002600055611d306136c6565b611d6d5760405162461bcd60e51b815260206004820152600e60248201526d139bdd081d195c9b5a5b985d195960921b6044820152606401610c95565b60405163bab7ae1760e01b815260048101849052336024820152600090732767a5DdBe9Baa7bBCC2e5f873089e383D9e13699063bab7ae179060440160206040518083038186803b158015611dc157600080fd5b505af4158015611dd5573d6000803e3d6000fd5b505050506040513d601f19601f82011682018060405250810190611df991906153c3565b90506000811315611ecd57732767a5DdBe9Baa7bBCC2e5f873089e383D9e1369631696a4cd8533611e2985613f1a565b6040516001600160e01b031960e086901b16815260048101939093526001600160a01b039091166024830152604482015260640160006040518083038186803b158015611e7557600080fd5b505af4158015611e89573d6000803e3d6000fd5b505060408051878152602081018590523393507f93b0301fda99bfd2e8af22161527848125b3a6ae8e5bb83eed2f0313e758fa9c92500160405180910390a2611fa5565b6000811215611fa557732767a5DdBe9Baa7bBCC2e5f873089e383D9e1369639aaf86498533611efe610fc7866154f9565b6040516001600160e01b031960e086901b16815260048101939093526001600160a01b03909116602483015260448201526064810186905260840160006040518083038186803b158015611f5157600080fd5b505af4158015611f65573d6000803e3d6000fd5b505060408051878152602081018590523393507f93b0301fda99bfd2e8af22161527848125b3a6ae8e5bb83eed2f0313e758fa9c92500160405180910390a25b6001915050600160005592915050565b6040516295a47160e71b8152600090732767a5DdBe9Baa7bBCC2e5f873089e383D9e136990634ad2388090611ff290869085908790600401615293565b60e06040518083038186803b15801561200a57600080fd5b505af415801561201e573d6000803e3d6000fd5b505050506040513d601f19601f8201168201806040525081019061204291906152b2565b60c001519392505050565b336120566128e4565b6001600160a01b03161461207c5760405162461bcd60e51b8152600401610c95906155ca565b6120866000614513565b565b6120906136c6565b156120ad5760405162461bcd60e51b8152600401610c9590615397565b336120b66128e4565b6001600160a01b0316146120dc5760405162461bcd60e51b8152600401610c95906155ca565b6040516372d563ef60e01b81526004810183905260248101829052600090819081907346F9B3b3A99DD8a63BD482c25B7FD172A494b945906372d563ef9060440160606040518083038186803b15801561213557600080fd5b505af4158015612149573d6000803e3d6000fd5b505050506040513d601f19601f8201168201806040525081019061216d919061568a565b925092509250826001600160a01b0316857fc29f3eef4e596f3e26da74f3482ffe2325449509e985d19f0a099240429add4e846121a8613ef6565b60008a815260049190910160209081526040918290205482516001600160a01b0390941684529083015281018890526060810185905260800160405180910390a35050505050565b336121f96128e4565b6001600160a01b03161461221f5760405162461bcd60e51b8152600401610c95906155ca565b6000831161226f5760405162461bcd60e51b815260206004820152601760248201527f496e76616c696420636f6d706f756e6420666163746f720000000000000000006044820152606401610c95565b612278856113b0565b156122bb5760405162461bcd60e51b8152602060048201526013602482015272105b1c9958591e481a5b9a5d1a585b1a5e9959606a1b6044820152606401610c95565b60405163d3f43b7960e01b81526004810186905260248101859052604481018490527346F9B3b3A99DD8a63BD482c25B7FD172A494b9459063d3f43b799060640160006040518083038186803b15801561231457600080fd5b505af4158015612328573d6000803e3d6000fd5b505050506123368583611c0c565b6123408582611466565b5050505050565b60006002600054141561236c5760405162461bcd60e51b8152600401610c9590615336565b60026000556123796136c6565b156123965760405162461bcd60e51b8152600401610c9590615397565b60005b83518110156124895760008482815181106123b6576123b6615516565b602002602001015190506000807346F9B3b3A99DD8a63BD482c25B7FD172A494b945636a23a95c84886040518363ffffffff1660e01b8152600401612405929190918252602082015260400190565b60c06040518083038186803b15801561241d57600080fd5b505af4158015612431573d6000803e3d6000fd5b505050506040513d601f19601f8201168201806040525081019061245591906156cd565b9150915061246683876000856140ac565b61247383876001846140ac565b5050508080612481906155af565b915050612399565b5060019050600160005592915050565b60006124a3613ef6565b6001600160a01b03831660009081526008919091016020526040812091505b6124cb82614584565b81101561156457732767a5DdBe9Baa7bBCC2e5f873089e383D9e1369639519832b6124f6848461458e565b6040516001600160e01b031960e084901b16815260048101919091526001600160a01b038616602482015260440160206040518083038186803b15801561253c57600080fd5b505af4158015612550573d6000803e3d6000fd5b505050506040513d601f19601f8201168201806040525081019061257491906153c3565b508061257f816155af565b9150506124c2565b6000612591613ef6565b600084815260059190910160205260408120906125ac613ef6565b6000868152600691909101602090815260408083208784528252808320546001600160a01b0390811685529184019490945291909201909120541690505b92915050565b60006125fa613ef6565b600092835260070160205250604090205490565b6000612618613ef6565b600093845260060160209081526040808520938552929052509020546001600160a01b031690565b600260005414156126635760405162461bcd60e51b8152600401610c9590615336565b600260009081558190612674613ef6565b60008381526004919091016020526040902054116126ed5760405162461bcd60e51b815260206004820152603060248201527f4e6f206c656e64696e67206d61726b65747320657869737420666f722061207360448201526f706563696669632063757272656e637960801b6064820152608401610c95565b6126f56136c6565b156127125760405162461bcd60e51b8152600401610c9590615397565b6000807346F9B3b3A99DD8a63BD482c25B7FD172A494b94563a3d54d8c8561275387600090815260008051602061599e833981519152602052604090205490565b6040516001600160e01b031960e085901b16815260048101929092526024820152604401604080518083038186803b15801561278e57600080fd5b505af41580156127a2573d6000803e3d6000fd5b505050506040513d601f19601f820116820180604052508101906127c69190615702565b91509150732767a5DdBe9Baa7bBCC2e5f873089e383D9e136963300074c985836127ee61459a565b6040518463ffffffff1660e01b815260040161280c93929190615293565b60206040518083038186803b15801561282457600080fd5b505af4158015612838573d6000803e3d6000fd5b505050506040513d601f19601f8201168201806040525081019061285c91906153c3565b5060408051858152602081018490529081018290527f0c6f5a3bc801362dc3d24c87799fa831f5a601c5dbd8bed4064907844eef97369060600160405180910390a1505060016000555050565b336128b26128e4565b6001600160a01b0316146128d85760405162461bcd60e51b8152600401610c95906155ca565b6128e1816145a4565b50565b60007f9acda75aebd150dd434541a4747a6dc606f4f1a59662477e67daf1fc0bf9e0aa610b0d565b604051639519832b60e01b8152600481018390526001600160a01b0382166024820152600090732767a5DdBe9Baa7bBCC2e5f873089e383D9e136990639519832b9060440160206040518083038186803b15801561296957600080fd5b505af415801561297d573d6000803e3d6000fd5b505050506040513d601f19601f820116820180604052508101906129a191906153c3565b9392505050565b606080606060006129b7613ef6565b6000888152600691909101602090815260408083208984529091529081902054905163d866d35560e01b8152600481018790526001600160a01b039091169150819063d866d35590602401610b77565b60606000612a13613ef6565b6000848152600491909101602052604090205467ffffffffffffffff811115612a3e57612a3e614f84565b604051908082528060200260200182016040528015612a67578160200160208202803683370190505b50905060005b612a75613ef6565b60008581526004919091016020526040902054811015611b1a576000612a99613ef6565b60040160008681526020019081526020016000208281548110612abe57612abe615516565b600091825260209182902001546040805163e16695b560e01b815290516001600160a01b039092169350839263e16695b592600480840193829003018186803b158015612b0a57600080fd5b505afa158015612b1e573d6000803e3d6000fd5b505050506040513d601f19601f82011682018060405250810190612b4291906153c3565b838381518110612b5457612b54615516565b60209081029190910101525080612b6a816155af565b915050612a6d565b6000612b7c6136c6565b15612b995760405162461bcd60e51b8152600401610c9590615397565b33612ba26128e4565b6001600160a01b031614612bc85760405162461bcd60e51b8152600401610c95906155ca565b604051630b3cb84560e41b8152600481018390527346F9B3b3A99DD8a63BD482c25B7FD172A494b9459063b3cb8450906024015b60006040518083038186803b158015612c1457600080fd5b505af4158015612c28573d6000803e3d6000fd5b50505050600190505b919050565b60026000541415612c595760405162461bcd60e51b8152600401610c9590615336565b6002600055612c666136c6565b15612c835760405162461bcd60e51b8152600401610c9590615397565b33612c8c6128e4565b6001600160a01b031614612cb25760405162461bcd60e51b8152600401610c95906155ca565b7346F9B3b3A99DD8a63BD482c25B7FD172A494b94563b8f117cd6040518163ffffffff1660e01b815260040160006040518083038186803b158015612cf657600080fd5b505af4158015612d0a573d6000803e3d6000fd5b505050507f5bd5e5214bcf42a851f8883889177591b93dbd526076c7b5e96bd8eed5931a5342604051612d3f91815260200190565b60405180910390a16001600055565b60606000612d5a613ef6565b6000848152600491909101602052604090205467ffffffffffffffff811115612d8557612d85614f84565b604051908082528060200260200182016040528015612dae578160200160208202803683370190505b50905060005b612dbc613ef6565b60008581526004919091016020526040902054811015611b1a576000612de0613ef6565b60040160008681526020019081526020016000208281548110612e0557612e05615516565b60009182526020918290200154604080516371613c2d60e01b815290516001600160a01b03909216935083926371613c2d92600480840193829003018186803b158015612e5157600080fd5b505afa158015612e65573d6000803e3d6000fd5b505050506040513d601f19601f82011682018060405250810190612e8991906153c3565b838381518110612e9b57612e9b615516565b60209081029190910101525080612eb1816155af565b915050612db4565b600060026000541415612ede5760405162461bcd60e51b8152600401610c9590615336565b6002600090815586908690612ef1613ef6565b6000848152600691909101602090815260408083208584529091529020546001600160a01b03161415612f365760405162461bcd60e51b8152600401610c959061536d565b612f3e6136c6565b15612f5b5760405162461bcd60e51b8152600401610c9590615397565b612f63614136565b6040516396994e3760e01b8152336004820152602481018a9052604481018790526001600160a01b0391909116906396994e379034906064016000604051808303818588803b158015612fb557600080fd5b505af1158015612fc9573d6000803e3d6000fd5b5050505050612fdc88883389898961461e565b600192505050600160005595945050505050565b600033301461338b576001546201000090046001600160a01b031615613029576040516337affdbf60e11b815260040160405180910390fd5b6001805462010000600160b01b0319163362010000021790558383600061304e613ef6565b6000848152600691909101602090815260408083208584529091529020546001600160a01b031614156130935760405162461bcd60e51b8152600401610c959061536d565b61309b6136c6565b156130b85760405162461bcd60e51b8152600401610c9590615397565b604051639519832b60e01b8152600481018790526001600160a01b0385166024820152732767a5DdBe9Baa7bBCC2e5f873089e383D9e136990639519832b9060440160206040518083038186803b15801561311257600080fd5b505af4158015613126573d6000803e3d6000fd5b505050506040513d601f19601f8201168201806040525081019061314a91906153c3565b50604051635436151f60e11b81523360048201526001600160a01b0385166024820152604481018890526064810187905260848101869052600090732767a5DdBe9Baa7bBCC2e5f873089e383D9e13699063a86c2a3e9060a40160206040518083038186803b1580156131bc57600080fd5b505af41580156131d0573d6000803e3d6000fd5b505050506040513d601f19601f820116820180604052508101906131f491906153c3565b90506131fe614136565b6040516325e1f09f60e01b81523360048201526001600160a01b0391909116906325e1f09f9060240160206040518083038186803b15801561323f57600080fd5b505afa158015613253573d6000803e3d6000fd5b505050506040513d601f19601f820116820180604052508101906132779190615726565b6132935760405162461bcd60e51b8152600401610c9590615741565b8587866001600160a01b03167f347d8f9576f47b3bd7a4821cd3d3d4171968cdd36680d4abaca7de302d836f998b856040516132d9929190918252602082015260400190565b60405180910390a460405163300074c960e01b8152732767a5DdBe9Baa7bBCC2e5f873089e383D9e13699063300074c99061331c908a908a908a90600401615293565b60206040518083038186803b15801561333457600080fd5b505af4158015613348573d6000803e3d6000fd5b505050506040513d601f19601f8201168201806040525081019061336c91906153c3565b50600193505050506001805462010000600160b01b03191690556136be565b83836000613397613ef6565b6000848152600691909101602090815260408083208584529091529020546001600160a01b031614156133dc5760405162461bcd60e51b8152600401610c959061536d565b6133e46136c6565b156134015760405162461bcd60e51b8152600401610c9590615397565b604051639519832b60e01b8152600481018790526001600160a01b0385166024820152732767a5DdBe9Baa7bBCC2e5f873089e383D9e136990639519832b9060440160206040518083038186803b15801561345b57600080fd5b505af415801561346f573d6000803e3d6000fd5b505050506040513d601f19601f8201168201806040525081019061349391906153c3565b50604051635436151f60e11b81523360048201526001600160a01b0385166024820152604481018890526064810187905260848101869052600090732767a5DdBe9Baa7bBCC2e5f873089e383D9e13699063a86c2a3e9060a40160206040518083038186803b15801561350557600080fd5b505af4158015613519573d6000803e3d6000fd5b505050506040513d601f19601f8201168201806040525081019061353d91906153c3565b9050613547614136565b6040516325e1f09f60e01b81523360048201526001600160a01b0391909116906325e1f09f9060240160206040518083038186803b15801561358857600080fd5b505afa15801561359c573d6000803e3d6000fd5b505050506040513d601f19601f820116820180604052508101906135c09190615726565b6135dc5760405162461bcd60e51b8152600401610c9590615741565b8587866001600160a01b03167f347d8f9576f47b3bd7a4821cd3d3d4171968cdd36680d4abaca7de302d836f998b85604051613622929190918252602082015260400190565b60405180910390a460405163300074c960e01b8152732767a5DdBe9Baa7bBCC2e5f873089e383D9e13699063300074c990613665908a908a908a90600401615293565b60206040518083038186803b15801561367d57600080fd5b505af4158015613691573d6000803e3d6000fd5b505050506040513d601f19601f820116820180604052508101906136b591906153c3565b50600193505050505b949350505050565b6000806136d1613ef6565b6001015411905090565b6040805160018082528183019092526060916020808301908036833701905050905069151bdad95b95985d5b1d60b21b816000815181106116fa576116fa615516565b6040516295a47160e71b8152600090732767a5DdBe9Baa7bBCC2e5f873089e383D9e136990634ad238809061375b90879087908790600401615293565b60e06040518083038186803b15801561377357600080fd5b505af4158015613787573d6000803e3d6000fd5b505050506040513d601f19601f820116820180604052508101906137ab91906152b2565b60200151949350505050565b60006137c16136c6565b156137de5760405162461bcd60e51b8152600401610c9590615397565b336137e76128e4565b6001600160a01b03161461380d5760405162461bcd60e51b8152600401610c95906155ca565b604051631d33a0a760e31b8152600481018390527346F9B3b3A99DD8a63BD482c25B7FD172A494b9459063e99d053890602401612bfc565b60606000613851613ef6565b6000848152600491909101602052604090205467ffffffffffffffff81111561387c5761387c614f84565b6040519080825280602002602001820160405280156138a5578160200160208202803683370190505b50905060005b6138b3613ef6565b60008581526004919091016020526040902054811015611b1a5760006138d7613ef6565b600401600086815260200190815260200160002082815481106138fc576138fc615516565b6000918252602091829020015460408051632f05aa6d60e11b815290516001600160a01b0390921693508392635e0b54da92600480840193829003018186803b15801561394857600080fd5b505afa15801561395c573d6000803e3d6000fd5b505050506040513d601f19601f8201168201806040525081019061398091906153c3565b83838151811061399257613992615516565b602090810291909101015250806139a8816155af565b9150506138ab565b600154610100900460ff16158080156139cd57506001805460ff16105b806139e65750303b1580156139e657506001805460ff16145b613a495760405162461bcd60e51b815260206004820152602e60248201527f496e697469616c697a61626c653a20636f6e747261637420697320616c72656160448201526d191e481a5b9a5d1a585b1a5e995960921b6064820152608401610c95565b6001805460ff1916811790558015613a6b576001805461ff0019166101001790555b6000613a756148ef565b6001600160a01b03161415613ad75760405162461bcd60e51b815260206004820152602260248201527f4d7573742062652063616c6c65642066726f6d2070726f787920636f6e74726160448201526118dd60f21b6064820152608401610c95565b82613ae0613ef6565b55613aeb8583614917565b613af484614929565b8015612340576001805461ff00191681556040519081527f7f26b83ff96e1f2b6a682f133852f6798a09c465da95921460cefb38474024989060200160405180910390a15050505050565b600060026000541415613b645760405162461bcd60e51b8152600401610c9590615336565b6002600090815586908690613b77613ef6565b6000848152600691909101602090815260408083208584529091529020546001600160a01b03161415613bbc5760405162461bcd60e51b8152600401610c959061536d565b613bc46136c6565b15613be15760405162461bcd60e51b8152600401610c9590615397565b612fdc88883389898961461e565b33613bf86128e4565b6001600160a01b031614613c1e5760405162461bcd60e51b8152600401610c95906155ca565b6001600160a01b038116613c835760405162461bcd60e51b815260206004820152602660248201527f4f776e61626c653a206e6577206f776e657220697320746865207a65726f206160448201526564647265737360d01b6064820152608401610c95565b6128e181614513565b600060026000541415613cb15760405162461bcd60e51b8152600401610c9590615336565b6002600090815586908690613cc4613ef6565b6000848152600691909101602090815260408083208584529091529020546001600160a01b03161415613d095760405162461bcd60e51b8152600401610c959061536d565b613d116136c6565b15613d2e5760405162461bcd60e51b8152600401610c9590615397565b61182e8888338989896000614145565b600080613d49613ef6565b6001600160a01b03841660009081526008919091016020526040812091505b613d7182614584565b811015613ec1576000613d84838361458e565b90506000732767a5DdBe9Baa7bBCC2e5f873089e383D9e1369634ad23880836000896040518463ffffffff1660e01b8152600401613dc493929190615293565b60e06040518083038186803b158015613ddc57600080fd5b505af4158015613df0573d6000803e3d6000fd5b505050506040513d601f19601f82011682018060405250810190613e1491906152b2565b519050613e1f6149be565b6040516303a0a22f60e41b815260048101849052602481018390526001600160a01b039190911690633a0a22f09060440160206040518083038186803b158015613e6857600080fd5b505afa158015613e7c573d6000803e3d6000fd5b505050506040513d601f19601f82011682018060405250810190613ea091906153c3565b613eaa9086615770565b945050508080613eb9906155af565b915050613d68565b5050919050565b60606125ea613ed5613ef6565b6001600160a01b0384166000908152600891909101602052604090206149c8565b7f8041b8421ebd495cc61f38c788c9eb100daccf9bd36aa0bb920b7a15b2e0496590565b600080821215613f6c5760405162461bcd60e51b815260206004820181905260248201527f53616665436173743a2076616c7565206d75737420626520706f7369746976656044820152606401610c95565b5090565b82156140a257604051631c872e8960e11b8152732767a5DdBe9Baa7bBCC2e5f873089e383D9e13699063390e5d1290613fbc908b908b908b908b908a908c908a906001906004016157b1565b60006040518083038186803b158015613fd457600080fd5b505af4158015613fe8573d6000803e3d6000fd5b505050507346F9B3b3A99DD8a63BD482c25B7FD172A494b94563e88e183789896140307f55cc3066d618b5a688ac1f2a8234e21c685f7432b4230a1660309640d60d8f665490565b6040516001600160e01b031960e086901b168152600481019390935260248301919091526044820152606481018590526084810187905260a4810186905260c40160006040518083038186803b15801561408957600080fd5b505af415801561409d573d6000803e3d6000fd5b505050505b5050505050505050565b60408101511561413057805160408083015160208401519151631c872e8960e11b8152732767a5DdBe9Baa7bBCC2e5f873089e383D9e13699363390e5d1293614104938a938a93928a929160009081906004016157b1565b60006040518083038186803b15801561411c57600080fd5b505af41580156140a2573d6000803e3d6000fd5b50505050565b60006141406149d3565b905090565b60008084116141875760405162461bcd60e51b815260206004820152600e60248201526d125b9d985b1a5908185b5bdd5b9d60921b6044820152606401610c95565b604051639519832b60e01b8152600481018990526001600160a01b0387166024820152600090732767a5DdBe9Baa7bBCC2e5f873089e383D9e136990639519832b9060440160206040518083038186803b1580156141e457600080fd5b505af41580156141f8573d6000803e3d6000fd5b505050506040513d601f19601f8201168201806040525081019061421c91906153c3565b60405163b6eb033d60e01b8152909150732767a5DdBe9Baa7bBCC2e5f873089e383D9e13699063b6eb033d9061425a908c908c908c90600401615293565b60006040518083038186803b15801561427257600080fd5b505af4158015614286573d6000803e3d6000fd5b505050508261433457614297614136565b6001600160a01b03166328ff7a42888b888a6040518563ffffffff1660e01b81526004016142c89493929190615803565b60206040518083038186803b1580156142e057600080fd5b505afa1580156142f4573d6000803e3d6000fd5b505050506040513d601f19601f820116820180604052508101906143189190615726565b6143345760405162461bcd60e51b8152600401610c9590615741565b600080600080614342613ef6565b60008e8152600691909101602090815260408083208f845290915290819020549051633352870560e21b81526001600160a01b039091169063cd4a1c1490614396908d908f908e908e908e9060040161582e565b60c060405180830381600087803b1580156143b057600080fd5b505af11580156143c4573d6000803e3d6000fd5b505050506040513d601f19601f820116820180604052508101906143e8919061586a565b935093509350935080896143fc91906158a8565b955060008761447d578315806144125750600082115b15614425576144226001876158bf565b95505b601486111561446f5760405162461bcd60e51b8152602060048201526016602482015275546f6f206d616e7920616374697665206f726465727360501b6044820152606401610c95565b61447a8e858f6149eb565b90505b61448d8e8e8e8e8b898b88613f70565b6144bb8e8e60008e60018111156144a6576144a66153dc565b146144b25760006144b5565b60015b866140ac565b6144e98e6144c7613ef6565b6001600160a01b038f1660009081526008919091016020526040902090614a6f565b50505050505050979650505050505050565b600081815260018301602052604081205415156129a1565b7f9acda75aebd150dd434541a4747a6dc606f4f1a59662477e67daf1fc0bf9e0aa80546001600160a01b038381166001600160a01b0319831681179093556040519116919082907f8be0079c531659141344cd1fd0a4f28419497f9722a3daafe3b4186f6b6457e090600090a35050565b60006125ea825490565b60006129a18383614a7b565b6000614140614aa5565b7f55cc3066d618b5a688ac1f2a8234e21c685f7432b4230a1660309640d60d8f6654818114611246578160008051602061597e8339815191526002015560408051828152602081018490527fb310034e792eb345456b77ee9b3ade0d30b9866d547921c8f4d5e9273c941a90910160405180910390a15050565b6000821161465f5760405162461bcd60e51b815260206004820152600e60248201526d125b9d985b1a5908185b5bdd5b9d60921b6044820152606401610c95565b604051639519832b60e01b8152600481018790526001600160a01b0385166024820152600090732767a5DdBe9Baa7bBCC2e5f873089e383D9e136990639519832b9060440160206040518083038186803b1580156146bc57600080fd5b505af41580156146d0573d6000803e3d6000fd5b505050506040513d601f19601f820116820180604052508101906146f491906153c3565b905060146147038260016158bf565b111561474a5760405162461bcd60e51b8152602060048201526016602482015275546f6f206d616e7920616374697665206f726465727360501b6044820152606401610c95565b60405163b6eb033d60e01b8152732767a5DdBe9Baa7bBCC2e5f873089e383D9e13699063b6eb033d90614785908a908a908a90600401615293565b60006040518083038186803b15801561479d57600080fd5b505af41580156147b1573d6000803e3d6000fd5b505050506147bd614136565b6001600160a01b03166328ff7a42868986886040518563ffffffff1660e01b81526004016147ee9493929190615803565b60206040518083038186803b15801561480657600080fd5b505afa15801561481a573d6000803e3d6000fd5b505050506040513d601f19601f8201168201806040525081019061483e9190615726565b61485a5760405162461bcd60e51b8152600401610c9590615741565b614862613ef6565b600088815260069190910160209081526040808320898452909152908190205490516328378aab60e01b81526001600160a01b03909116906328378aab906148b49087908990889088906004016158d7565b600060405180830381600087803b1580156148ce57600080fd5b505af11580156148e2573d6000803e3d6000fd5b5050505050505050505050565b60007f360894a13ba1a3210667c828492db98dca3e2076cc3735a920a3ca505d382bbc610b0d565b61492082614513565b611246816145a4565b60008051602061595e833981519152546001600160a01b03161561498f5760405162461bcd60e51b815260206004820152601b60248201527f5265736f6c766572207265676973746572656420616c726561647900000000006044820152606401610c95565b60008051602061595e83398151915280546001600160a01b0319166001600160a01b0392909216919091179055565b6000614140614abe565b60606125ea82614ade565b600061414069151bdad95b95985d5b1d60b21b614b39565b6000814210614a0c5760405162461bcd60e51b8152600401610c959061536d565b6000614a1842846158a8565b9050614a66614a2d6127106301e13380615909565b600087815260008051602061597e83398151915260205260409020548690614a56908590615909565b614a609190615909565b90614bca565b95945050505050565b60006129a18383614c3b565b6000826000018281548110614a9257614a92615516565b9060005260206000200154905092915050565b60006141406a14995cd95c9d99519d5b9960aa1b614b39565b60006141407121bab93932b731bca1b7b73a3937b63632b960711b614b39565b6060816000018054806020026020016040519081016040528092919081815260200182805480156115db57602002820191906000526020600020905b815481526020019060010190808311614b1a5750505050509050919050565b60008181527f4abde63c3e81aefa5764b017968bc473e83e093d7e1a10247d19e0a3e41240196020908152604080832054815170026b4b9b9b4b7339030b2323932b9b99d1607d1b9381019390935260318084018690528251808503909101815260519093019091526001600160a01b03169081611b1a5760405162461bcd60e51b8152600401610c959190615928565b6000808211614bd857600080fd5b6005614be4838561593b565b614bef90600a615909565b83614bfb86600a615909565b614c05919061593b565b614c0f91906158a8565b1015614c2657614c1f828461593b565b90506125ea565b614c30828461593b565b614c1f9060016158bf565b6000818152600183016020526040812054614c82575081546001818101845560008481526020808220909301849055845484825282860190935260409020919091556125ea565b5060006125ea565b6001600160a01b03811681146128e157600080fd5b600080600060608486031215614cb457600080fd5b8335614cbf81614c8a565b95602085013595506040909401359392505050565b600060208284031215614ce657600080fd5b5035919050565b600080600060608486031215614d0257600080fd5b505081359360208301359350604090920135919050565b600081518084526020808501945080840160005b83811015614d4957815187529582019590820190600101614d2d565b509495945050505050565b606081526000614d676060830186614d19565b8281036020840152614d798186614d19565b90508281036040840152614d8d8185614d19565b9695505050505050565b60008060408385031215614daa57600080fd5b823591506020830135614dbc81614c8a565b809150509250929050565b60008060408385031215614dda57600080fd5b50508035926020909101359150565b600080600060608486031215614dfe57600080fd5b83359250602084013591506040840135614e1781614c8a565b809150509250925092565b6020808252825182820181905260009190848201906040850190845b81811015614e635783516001600160a01b031683529284019291840191600101614e3e565b50909695505050505050565b6020808252825182820181905260009190848201906040850190845b81811015614e6357835183529284019291840191600101614e8b565b600281106128e157600080fd5b600080600080600060a08688031215614ecc57600080fd5b85359450602086013593506040860135614ee581614ea7565b94979396509394606081013594506080013592915050565b600080600060608486031215614f1257600080fd5b8335925060208401359150604084013565ffffffffffff81168114614e1757600080fd5b6020815260006129a16020830184614d19565b600080600080600060a08688031215614f6157600080fd5b505083359560208501359550604085013594606081013594506080013592509050565b634e487b7160e01b600052604160045260246000fd5b604051601f8201601f1916810167ffffffffffffffff81118282101715614fc357614fc3614f84565b604052919050565b600067ffffffffffffffff821115614fe557614fe5614f84565b5060051b60200190565b6000806040838503121561500257600080fd5b823567ffffffffffffffff81111561501957600080fd5b8301601f8101851361502a57600080fd5b8035602061503f61503a83614fcb565b614f9a565b82815260059290921b8301810191818101908884111561505e57600080fd5b938201935b8385101561507c57843582529382019390820190615063565b98969091013596505050505050565b60006020828403121561509d57600080fd5b81356129a181614c8a565b600080600080608085870312156150be57600080fd5b84359350602085013592506040850135915060608501356150de81614c8a565b939692955090935050565b600080600080608085870312156150ff57600080fd5b843561510a81614c8a565b9350602085013561511a81614c8a565b93969395505050506040820135916060013590565b80518015158114612c3157600080fd5b600080600080600080600080610100898b03121561515c57600080fd5b885197506020890151965060408901519550606089015194506080890151935060a0890151925060c0890151915061519660e08a0161512f565b90509295985092959890939650565b600082601f8301126151b657600080fd5b815160206151c661503a83614fcb565b82815260059290921b840181019181810190868411156151e557600080fd5b8286015b8481101561520057805183529183019183016151e9565b509695505050505050565b60008060006060848603121561522057600080fd5b835167ffffffffffffffff8082111561523857600080fd5b615244878388016151a5565b9450602086015191508082111561525a57600080fd5b615266878388016151a5565b9350604086015191508082111561527c57600080fd5b50615289868287016151a5565b9150509250925092565b92835260208301919091526001600160a01b0316604082015260600190565b600060e082840312156152c457600080fd5b60405160e0810181811067ffffffffffffffff821117156152e7576152e7614f84565b8060405250825181526020830151602082015260408301516040820152606083015160608201526080830151608082015260a083015160a082015260c083015160c08201528091505092915050565b6020808252601f908201527f5265656e7472616e637947756172643a207265656e7472616e742063616c6c00604082015260600190565b60208082526010908201526f496e76616c6964206d6174757269747960801b604082015260600190565b602080825260129082015271105b1c9958591e481d195c9b5a5b985d195960721b604082015260600190565b6000602082840312156153d557600080fd5b5051919050565b634e487b7160e01b600052602160045260246000fd5b6002811061541057634e487b7160e01b600052602160045260246000fd5b9052565b6060810161542282866153f2565b6001600160a01b0393909316602082015260400152919050565b60006060828403121561544e57600080fd5b6040516060810181811067ffffffffffffffff8211171561547157615471614f84565b8060405250809150825161548481614c8a565b8082525060208301516020820152604083015160408201525092915050565b60008060008060c085870312156154b957600080fd5b8451935060208501519250604085015191506154d8866060870161543c565b905092959194509250565b634e487b7160e01b600052601160045260246000fd5b6000600160ff1b82141561550f5761550f6154e3565b5060000390565b634e487b7160e01b600052603260045260246000fd5b6000815180845260005b8181101561555257602081850181015186830182015201615536565b81811115615564576000602083870101525b50601f01601f19169290920160200192915050565b8281526040602082015260006136be604083018461552c565b6000602082840312156155a457600080fd5b81516129a181614c8a565b60006000198214156155c3576155c36154e3565b5060010190565b6020808252818101527f4f776e61626c653a2063616c6c6572206973206e6f7420746865206f776e6572604082015260600190565b60008060006060848603121561561457600080fd5b835161561f81614ea7565b602085015160409095015190969495509392505050565b600080600080600080600060e0888a03121561565157600080fd5b5050855160208701516040880151606089015160808a015160a08b015160c0909b0151949c939b50919990985090965094509092509050565b60008060006060848603121561569f57600080fd5b83516156aa81614c8a565b60208501519093506156bb81614c8a565b80925050604084015190509250925092565b60008060c083850312156156e057600080fd5b6156ea848461543c565b91506156f9846060850161543c565b90509250929050565b6000806040838503121561571557600080fd5b505080516020909101519092909150565b60006020828403121561573857600080fd5b6129a18261512f565b602080825260159082015274139bdd08195b9bdd59da0818dbdb1b185d195c985b605a1b604082015260600190565b600080821280156001600160ff1b0384900385131615615792576157926154e3565b600160ff1b83900384128116156157ab576157ab6154e3565b50500190565b888152602081018890526001600160a01b038716604082015261010081016157dc60608301886153f2565b8560808301528460a08301528360c083015282151560e08301529998505050505050505050565b6001600160a01b0385168152602081018490526040810183905260808101614a6660608301846153f2565b60a0810161583c82886153f2565b6001600160a01b03959095166020820152604081019390935260608301919091521515608090910152919050565b60008060008060c0858703121561588057600080fd5b8451935060208501519250615898866040870161543c565b60a0959095015193969295505050565b6000828210156158ba576158ba6154e3565b500390565b600082198211156158d2576158d26154e3565b500190565b608081016158e582876153f2565b6001600160a01b039490941660208201526040810192909252606090910152919050565b6000816000190483118215151615615923576159236154e3565b500290565b6020815260006129a1602083018461552c565b60008261595857634e487b7160e01b600052601260045260246000fd5b50049056fe4abde63c3e81aefa5764b017968bc473e83e093d7e1a10247d19e0a3e412401855cc3066d618b5a688ac1f2a8234e21c685f7432b4230a1660309640d60d8f6455cc3066d618b5a688ac1f2a8234e21c685f7432b4230a1660309640d60d8f65a2646970667358221220b59b752364ab0f8f8c3f7636b6db60d4a75d17c892201334b376a74ab07a6cec64736f6c63430008090033",
  "deployedBytecode": "0x6080604052600436106102ff5760003560e01c8063891d596511610190578063cb9d7401116100dc578063eb990c5911610095578063f2fde38b1161006f578063f2fde38b146109b4578063faca409b146109d4578063fb54a6b3146109f4578063fc70081014610a1457600080fd5b8063eb990c5914610940578063ebb9141614610960578063f1eaebae1461098057600080fd5b8063cb9d74011461087c578063d1cc9976146108b6578063e0997659146108cb578063e906c100146108e0578063e99d053814610900578063eb092a261461092057600080fd5b8063953dbcaa11610149578063b8f117cd11610123578063b8f117cd14610814578063bfd10cf614610829578063bfe61a2814610849578063c11333b11461085c57600080fd5b8063953dbcaa146107b4578063a02be3dc146107d4578063b3cb8450146107f457600080fd5b8063891d5965146106ff5780638a9817451461071f5780638b36d8331461073f5780638c197d8d1461075f5780638da5cb5b1461077f5780639519832b1461079457600080fd5b8063448255c71161024f57806370c641a611610208578063766cb64e116101e2578063766cb64e1461067f5780637c63039d1461069f578063826b47e8146106bf57806385323e1a146106df57600080fd5b806370c641a61461062a578063715018a61461064a57806372d563ef1461065f57600080fd5b8063448255c71461053557806349f2ccbf1461054857806355aceb4e146105685780635c347765146105955780635ca65d57146105ea578063677faaad1461060a57600080fd5b806329985e5a116102bc5780632e77aea7116102965780632e77aea7146104a65780632f749574146104c6578063381ada1f146104e65780633d03b9da1461051357600080fd5b806329985e5a1461045a5780632af64bd3146104715780632e6c5e671461048657600080fd5b80630312b5281461030457806303e5fb591461036657806304f3bcec146103ae5780630594de6e146103db57806317b72ff41461040a5780631deb8f391461042a575b600080fd5b34801561031057600080fd5b5061032461031f366004614c9f565b610a34565b604080519889526020890197909752958701949094526060860192909252608085015260a084015260c0830152151560e0820152610100015b60405180910390f35b34801561037257600080fd5b506103a0610381366004614cd4565b600090815260008051602061597e833981519152602052604090205490565b60405190815260200161035d565b3480156103ba57600080fd5b506103c3610afb565b6040516001600160a01b03909116815260200161035d565b3480156103e757600080fd5b506103fb6103f6366004614ced565b610b1c565b60405161035d93929190614d54565b34801561041657600080fd5b506103a0610425366004614d97565b610bdb565b34801561043657600080fd5b5061044a610445366004614dc7565b610c70565b604051901515815260200161035d565b34801561046657600080fd5b5061046f61109d565b005b34801561047d57600080fd5b5061044a61124a565b34801561049257600080fd5b5061044a6104a1366004614cd4565b6113b0565b3480156104b257600080fd5b506103a06104c1366004614de9565b6113d0565b3480156104d257600080fd5b5061046f6104e1366004614dc7565b611466565b3480156104f257600080fd5b50610506610501366004614cd4565b611569565b60405161035d9190614e22565b34801561051f57600080fd5b506105286115e7565b60405161035d9190614e6f565b61044a610543366004614eb4565b611709565b34801561055457600080fd5b5061044a610563366004614efd565b611843565b34801561057457600080fd5b50610588610583366004614cd4565b6119af565b60405161035d9190614f36565b3480156105a157600080fd5b506105b56105b0366004614d97565b611b21565b604080519788526020880196909652948601939093526060850191909152608084015260a083015260c082015260e00161035d565b3480156105f657600080fd5b5061046f610605366004614dc7565b611c0c565b34801561061657600080fd5b5061044a610625366004614dc7565b611cfe565b34801561063657600080fd5b506103a0610645366004614d97565b611fb5565b34801561065657600080fd5b5061046f61204d565b34801561066b57600080fd5b5061046f61067a366004614dc7565b612088565b34801561068b57600080fd5b5061046f61069a366004614f49565b6121f0565b3480156106ab57600080fd5b5061044a6106ba366004614fef565b612347565b3480156106cb57600080fd5b5061046f6106da36600461508b565b612499565b3480156106eb57600080fd5b506103c36106fa366004614dc7565b612587565b34801561070b57600080fd5b506103a061071a366004614cd4565b6125f0565b34801561072b57600080fd5b506103c361073a366004614dc7565b61260e565b34801561074b57600080fd5b5061046f61075a366004614cd4565b612640565b34801561076b57600080fd5b5061046f61077a366004614cd4565b6128a9565b34801561078b57600080fd5b506103c36128e4565b3480156107a057600080fd5b506103a06107af366004614d97565b61290c565b3480156107c057600080fd5b506103fb6107cf366004614ced565b6129a8565b3480156107e057600080fd5b506105886107ef366004614cd4565b612a07565b34801561080057600080fd5b5061044a61080f366004614cd4565b612b72565b34801561082057600080fd5b5061046f612c36565b34801561083557600080fd5b50610588610844366004614cd4565b612d4e565b61044a610857366004614eb4565b612eb9565b34801561086857600080fd5b5061044a6108773660046150a8565b612ff0565b34801561088857600080fd5b506103a0610897366004614cd4565b600090815260008051602061599e833981519152602052604090205490565b3480156108c257600080fd5b5061044a6136c6565b3480156108d757600080fd5b506105286136db565b3480156108ec57600080fd5b506103a06108fb366004614de9565b61371e565b34801561090c57600080fd5b5061044a61091b366004614cd4565b6137b7565b34801561092c57600080fd5b5061058861093b366004614cd4565b613845565b34801561094c57600080fd5b5061046f61095b3660046150e9565b6139b0565b34801561096c57600080fd5b5061044a61097b366004614eb4565b613b3f565b34801561098c57600080fd5b507f55cc3066d618b5a688ac1f2a8234e21c685f7432b4230a1660309640d60d8f66546103a0565b3480156109c057600080fd5b5061046f6109cf36600461508b565b613bef565b3480156109e057600080fd5b5061044a6109ef366004614eb4565b613c8c565b348015610a0057600080fd5b506103a0610a0f36600461508b565b613d3e565b348015610a2057600080fd5b50610528610a2f36600461508b565b613ec8565b604051626256a560e31b81526001600160a01b03841660048201526024810183905260448101829052600090819081908190819081908190819073__$e7d72ce98f1dce1f33c815a57604cff5ab$__90630312b528906064016101006040518083038186803b158015610aa657600080fd5b505af4158015610aba573d6000803e3d6000fd5b505050506040513d601f19601f82011682018060405250810190610ade919061513f565b975097509750975097509750975097509397509397509397509397565b600060008051602061595e8339815191525b546001600160a01b0316919050565b60608060606000610b2b613ef6565b600088815260069190910160209081526040808320898452909152908190205490516325fb168b60e11b8152600481018790526001600160a01b0390911691508190634bf62d16906024015b60006040518083038186803b158015610b8f57600080fd5b505afa158015610ba3573d6000803e3d6000fd5b505050506040513d6000823e601f3d908101601f19168201604052610bcb919081019061520b565b9350935093505093509350939050565b6040516295a47160e71b815260009073__$e7d72ce98f1dce1f33c815a57604cff5ab$__90634ad2388090610c1890869085908790600401615293565b60e06040518083038186803b158015610c3057600080fd5b505af4158015610c44573d6000803e3d6000fd5b505050506040513d601f19601f82011682018060405250810190610c6891906152b2565b519392505050565b600060026000541415610c9e5760405162461bcd60e51b8152600401610c9590615336565b60405180910390fd5b6002600090815583908390610cb1613ef6565b6000848152600691909101602090815260408083208584529091529020546001600160a01b03161415610cf65760405162461bcd60e51b8152600401610c959061536d565b610cfe6136c6565b15610d1b5760405162461bcd60e51b8152600401610c9590615397565b604051639519832b60e01b81526004810186905233602482015273__$e7d72ce98f1dce1f33c815a57604cff5ab$__90639519832b9060440160206040518083038186803b158015610d6c57600080fd5b505af4158015610d80573d6000803e3d6000fd5b505050506040513d601f19601f82011682018060405250810190610da491906153c3565b506040516295a47160e71b815260009073__$e7d72ce98f1dce1f33c815a57604cff5ab$__90634ad2388090610de290899089903390600401615293565b60e06040518083038186803b158015610dfa57600080fd5b505af4158015610e0e573d6000803e3d6000fd5b505050506040513d601f19601f82011682018060405250810190610e3291906152b2565b60200151905080610e7c5760405162461bcd60e51b81526020600482015260146024820152734675747572652056616c7565206973207a65726f60601b6044820152606401610c95565b6000806000610eae604051806060016040528060006001600160a01b0316815260200160008152602001600081525090565b600080861315610f7957506001610ec3613ef6565b60008c8152600691909101602090815260408083208d84529091529020546001600160a01b0316634c2afa2e8233610efa8a613f1a565b6040518463ffffffff1660e01b8152600401610f1893929190615414565b60c060405180830381600087803b158015610f3257600080fd5b505af1158015610f46573d6000803e3d6000fd5b505050506040513d601f19601f82011682018060405250810190610f6a91906154a3565b92975090955093509150611047565b600086121561104757506000610f8d613ef6565b60008c8152600691909101602090815260408083208d84529091529020546001600160a01b0316634c2afa2e8233610fcc610fc78b6154f9565b613f1a565b6040518463ffffffff1660e01b8152600401610fea93929190615414565b60c060405180830381600087803b15801561100457600080fd5b505af1158015611018573d6000803e3d6000fd5b505050506040513d601f19601f8201168201806040525081019061103c91906154a3565b929750909550935091505b6110588b8b338488888b6000613f70565b6110868b8b6000846001811115611071576110716153dc565b1461107d576000611080565b60015b856140ac565b600198505050505050505050600160005592915050565b60006110a76115e7565b905060005b81518110156112465760008282815181106110c9576110c9615516565b6020026020010151905060006110ea60008051602061595e83398151915290565b54604080517f5265736f6c766572206d697373696e67207461726765743a200000000000000060208201526039808201869052825180830390910181526059820192839052636795dbcd60e01b9092526001600160a01b0390921691636795dbcd9161115b91869190605d01615579565b60206040518083038186803b15801561117357600080fd5b505afa158015611187573d6000803e3d6000fd5b505050506040513d601f19601f820116820180604052508101906111ab9190615592565b60008381527f4abde63c3e81aefa5764b017968bc473e83e093d7e1a10247d19e0a3e4124019602090815260409182902080546001600160a01b0319166001600160a01b03851690811790915582518681529182015281519293507f88a93678a3692f6789d9546fc621bf7234b101ddb7d4fe479455112831b8aa68929081900390910190a15050808061123e906155af565b9150506110ac565b5050565b6000806112556115e7565b905060005b81518110156113a757600082828151811061127757611277615516565b6020026020010151905061129660008051602061595e83398151915290565b600082815260019190910160205260409020546001600160a01b031660008051602061595e833981519152546040516321f8a72160e01b8152600481018490526001600160a01b03909116906321f8a7219060240160206040518083038186803b15801561130357600080fd5b505afa158015611317573d6000803e3d6000fd5b505050506040513d601f19601f8201168201806040525081019061133b9190615592565b6001600160a01b0316141580611385575060008181527f4abde63c3e81aefa5764b017968bc473e83e093d7e1a10247d19e0a3e412401960205260409020546001600160a01b0316155b15611394576000935050505090565b508061139f816155af565b91505061125a565b50600191505090565b60006113ba613ef6565b6000928352600701602052506040902054151590565b6040516295a47160e71b815260009073__$e7d72ce98f1dce1f33c815a57604cff5ab$__90634ad238809061140d90879087908790600401615293565b60e06040518083038186803b15801561142557600080fd5b505af4158015611439573d6000803e3d6000fd5b505050506040513d601f19601f8201168201806040525081019061145d91906152b2565b51949350505050565b3361146f6128e4565b6001600160a01b0316146114955760405162461bcd60e51b8152600401610c95906155ca565b6127108111156114e75760405162461bcd60e51b815260206004820152601a60248201527f496e76616c6964206175746f2d726f6c6c2066656520726174650000000000006044820152606401610c95565b600082815260008051602061599e833981519152602052604090205481811461156457600083815260008051602061599e833981519152602090815260409182902084905581518381529081018490527fdfbb9051e39a726dacd506a01fecef2277ab8adc7423037867c554573f179fdb91015b60405180910390a15b505050565b6060611573613ef6565b60040160008381526020019081526020016000208054806020026020016040519081016040528092919081815260200182805480156115db57602002820191906000526020600020905b81546001600160a01b031681526001909101906020018083116115bd575b50505050509050919050565b60408051600580825260c082019092526060916020820160a080368337019050509050742132b0b1b7b7283937bc3ca1b7b73a3937b63632b960591b8160008151811061163657611636615516565b6020026020010181815250507121bab93932b731bca1b7b73a3937b63632b960711b8160018151811061166b5761166b615516565b6020026020010181815250507011d95b995cda5cd5985b1d5955985d5b1d607a1b8160028151811061169f5761169f615516565b6020026020010181815250506a14995cd95c9d99519d5b9960aa1b816003815181106116cd576116cd615516565b60200260200101818152505069151bdad95b95985d5b1d60b21b816004815181106116fa576116fa615516565b60200260200101818152505090565b60006002600054141561172e5760405162461bcd60e51b8152600401610c9590615336565b6002600090815586908690611741613ef6565b6000848152600691909101602090815260408083208584529091529020546001600160a01b031614156117865760405162461bcd60e51b8152600401610c959061536d565b61178e6136c6565b156117ab5760405162461bcd60e51b8152600401610c9590615397565b6117b3614136565b6040516396994e3760e01b8152336004820152602481018a9052604481018790526001600160a01b0391909116906396994e379034906064016000604051808303818588803b15801561180557600080fd5b505af1158015611819573d6000803e3d6000fd5b505050505061182e8888338989896000614145565b50600192505050600160005595945050505050565b6000600260005414156118685760405162461bcd60e51b8152600401610c9590615336565b600260009081558490849061187b613ef6565b6000848152600691909101602090815260408083208584529091529020546001600160a01b031614156118c05760405162461bcd60e51b8152600401610c959061536d565b6118c86136c6565b156118e55760405162461bcd60e51b8152600401610c9590615397565b60006118ef613ef6565b6000888152600691909101602090815260408083208984529091529081902054905163504b89bd60e01b815233600482015265ffffffffffff871660248201526001600160a01b039091169150819063504b89bd90604401606060405180830381600087803b15801561196157600080fd5b505af1158015611975573d6000803e3d6000fd5b505050506040513d601f19601f8201168201806040525081019061199991906155ff565b5050506001935050505060016000559392505050565b606060006119bb613ef6565b6000848152600491909101602052604090205467ffffffffffffffff8111156119e6576119e6614f84565b604051908082528060200260200182016040528015611a0f578160200160208202803683370190505b50905060005b611a1d613ef6565b60008581526004919091016020526040902054811015611b1a576000611a41613ef6565b60040160008681526020019081526020016000208281548110611a6657611a66615516565b6000918252602091829020015460408051631b3508b760e01b815290516001600160a01b0390921693508392631b3508b792600480840193829003018186803b158015611ab257600080fd5b505afa158015611ac6573d6000803e3d6000fd5b505050506040513d601f19601f82011682018060405250810190611aea91906153c3565b838381518110611afc57611afc615516565b60209081029190910101525080611b12816155af565b915050611a15565b5092915050565b6000806000806000806000611b5a89611b38613ef6565b6001600160a01b038b16600090815260089190910160205260409020906144fb565b15611c0057604051635c34776560e01b8152600481018a90526001600160a01b038916602482015273__$e7d72ce98f1dce1f33c815a57604cff5ab$__90635c3477659060440160e06040518083038186803b158015611bb957600080fd5b505af4158015611bcd573d6000803e3d6000fd5b505050506040513d601f19601f82011682018060405250810190611bf19190615636565b96509650965096509650965096505b92959891949750929550565b33611c156128e4565b6001600160a01b031614611c3b5760405162461bcd60e51b8152600401610c95906155ca565b612710811115611c865760405162461bcd60e51b8152602060048201526016602482015275496e76616c6964206f7264657220666565207261746560501b6044820152606401610c95565b600082815260008051602061597e833981519152602052604090205481811461156457600083815260008051602061597e833981519152602090815260409182902084905581518381529081018490527fff4528c215dc00005504418aa82be3bb2439c39be2eb30fd44012f5e79d168e2910161155b565b600060026000541415611d235760405162461bcd60e51b8152600401610c9590615336565b6002600055611d306136c6565b611d6d5760405162461bcd60e51b815260206004820152600e60248201526d139bdd081d195c9b5a5b985d195960921b6044820152606401610c95565b60405163bab7ae1760e01b81526004810184905233602482015260009073__$e7d72ce98f1dce1f33c815a57604cff5ab$__9063bab7ae179060440160206040518083038186803b158015611dc157600080fd5b505af4158015611dd5573d6000803e3d6000fd5b505050506040513d601f19601f82011682018060405250810190611df991906153c3565b90506000811315611ecd5773__$e7d72ce98f1dce1f33c815a57604cff5ab$__631696a4cd8533611e2985613f1a565b6040516001600160e01b031960e086901b16815260048101939093526001600160a01b039091166024830152604482015260640160006040518083038186803b158015611e7557600080fd5b505af4158015611e89573d6000803e3d6000fd5b505060408051878152602081018590523393507f93b0301fda99bfd2e8af22161527848125b3a6ae8e5bb83eed2f0313e758fa9c92500160405180910390a2611fa5565b6000811215611fa55773__$e7d72ce98f1dce1f33c815a57604cff5ab$__639aaf86498533611efe610fc7866154f9565b6040516001600160e01b031960e086901b16815260048101939093526001600160a01b03909116602483015260448201526064810186905260840160006040518083038186803b158015611f5157600080fd5b505af4158015611f65573d6000803e3d6000fd5b505060408051878152602081018590523393507f93b0301fda99bfd2e8af22161527848125b3a6ae8e5bb83eed2f0313e758fa9c92500160405180910390a25b6001915050600160005592915050565b6040516295a47160e71b815260009073__$e7d72ce98f1dce1f33c815a57604cff5ab$__90634ad2388090611ff290869085908790600401615293565b60e06040518083038186803b15801561200a57600080fd5b505af415801561201e573d6000803e3d6000fd5b505050506040513d601f19601f8201168201806040525081019061204291906152b2565b60c001519392505050565b336120566128e4565b6001600160a01b03161461207c5760405162461bcd60e51b8152600401610c95906155ca565b6120866000614513565b565b6120906136c6565b156120ad5760405162461bcd60e51b8152600401610c9590615397565b336120b66128e4565b6001600160a01b0316146120dc5760405162461bcd60e51b8152600401610c95906155ca565b6040516372d563ef60e01b815260048101839052602481018290526000908190819073__$53b43b4bdeb2460d1113627ef627de0cf6$__906372d563ef9060440160606040518083038186803b15801561213557600080fd5b505af4158015612149573d6000803e3d6000fd5b505050506040513d601f19601f8201168201806040525081019061216d919061568a565b925092509250826001600160a01b0316857fc29f3eef4e596f3e26da74f3482ffe2325449509e985d19f0a099240429add4e846121a8613ef6565b60008a815260049190910160209081526040918290205482516001600160a01b0390941684529083015281018890526060810185905260800160405180910390a35050505050565b336121f96128e4565b6001600160a01b03161461221f5760405162461bcd60e51b8152600401610c95906155ca565b6000831161226f5760405162461bcd60e51b815260206004820152601760248201527f496e76616c696420636f6d706f756e6420666163746f720000000000000000006044820152606401610c95565b612278856113b0565b156122bb5760405162461bcd60e51b8152602060048201526013602482015272105b1c9958591e481a5b9a5d1a585b1a5e9959606a1b6044820152606401610c95565b60405163d3f43b7960e01b815260048101869052602481018590526044810184905273__$53b43b4bdeb2460d1113627ef627de0cf6$__9063d3f43b799060640160006040518083038186803b15801561231457600080fd5b505af4158015612328573d6000803e3d6000fd5b505050506123368583611c0c565b6123408582611466565b5050505050565b60006002600054141561236c5760405162461bcd60e51b8152600401610c9590615336565b60026000556123796136c6565b156123965760405162461bcd60e51b8152600401610c9590615397565b60005b83518110156124895760008482815181106123b6576123b6615516565b6020026020010151905060008073__$53b43b4bdeb2460d1113627ef627de0cf6$__636a23a95c84886040518363ffffffff1660e01b8152600401612405929190918252602082015260400190565b60c06040518083038186803b15801561241d57600080fd5b505af4158015612431573d6000803e3d6000fd5b505050506040513d601f19601f8201168201806040525081019061245591906156cd565b9150915061246683876000856140ac565b61247383876001846140ac565b5050508080612481906155af565b915050612399565b5060019050600160005592915050565b60006124a3613ef6565b6001600160a01b03831660009081526008919091016020526040812091505b6124cb82614584565b8110156115645773__$e7d72ce98f1dce1f33c815a57604cff5ab$__639519832b6124f6848461458e565b6040516001600160e01b031960e084901b16815260048101919091526001600160a01b038616602482015260440160206040518083038186803b15801561253c57600080fd5b505af4158015612550573d6000803e3d6000fd5b505050506040513d601f19601f8201168201806040525081019061257491906153c3565b508061257f816155af565b9150506124c2565b6000612591613ef6565b600084815260059190910160205260408120906125ac613ef6565b6000868152600691909101602090815260408083208784528252808320546001600160a01b0390811685529184019490945291909201909120541690505b92915050565b60006125fa613ef6565b600092835260070160205250604090205490565b6000612618613ef6565b600093845260060160209081526040808520938552929052509020546001600160a01b031690565b600260005414156126635760405162461bcd60e51b8152600401610c9590615336565b600260009081558190612674613ef6565b60008381526004919091016020526040902054116126ed5760405162461bcd60e51b815260206004820152603060248201527f4e6f206c656e64696e67206d61726b65747320657869737420666f722061207360448201526f706563696669632063757272656e637960801b6064820152608401610c95565b6126f56136c6565b156127125760405162461bcd60e51b8152600401610c9590615397565b60008073__$53b43b4bdeb2460d1113627ef627de0cf6$__63a3d54d8c8561275387600090815260008051602061599e833981519152602052604090205490565b6040516001600160e01b031960e085901b16815260048101929092526024820152604401604080518083038186803b15801561278e57600080fd5b505af41580156127a2573d6000803e3d6000fd5b505050506040513d601f19601f820116820180604052508101906127c69190615702565b9150915073__$e7d72ce98f1dce1f33c815a57604cff5ab$__63300074c985836127ee61459a565b6040518463ffffffff1660e01b815260040161280c93929190615293565b60206040518083038186803b15801561282457600080fd5b505af4158015612838573d6000803e3d6000fd5b505050506040513d601f19601f8201168201806040525081019061285c91906153c3565b5060408051858152602081018490529081018290527f0c6f5a3bc801362dc3d24c87799fa831f5a601c5dbd8bed4064907844eef97369060600160405180910390a1505060016000555050565b336128b26128e4565b6001600160a01b0316146128d85760405162461bcd60e51b8152600401610c95906155ca565b6128e1816145a4565b50565b60007f9acda75aebd150dd434541a4747a6dc606f4f1a59662477e67daf1fc0bf9e0aa610b0d565b604051639519832b60e01b8152600481018390526001600160a01b038216602482015260009073__$e7d72ce98f1dce1f33c815a57604cff5ab$__90639519832b9060440160206040518083038186803b15801561296957600080fd5b505af415801561297d573d6000803e3d6000fd5b505050506040513d601f19601f820116820180604052508101906129a191906153c3565b9392505050565b606080606060006129b7613ef6565b6000888152600691909101602090815260408083208984529091529081902054905163d866d35560e01b8152600481018790526001600160a01b039091169150819063d866d35590602401610b77565b60606000612a13613ef6565b6000848152600491909101602052604090205467ffffffffffffffff811115612a3e57612a3e614f84565b604051908082528060200260200182016040528015612a67578160200160208202803683370190505b50905060005b612a75613ef6565b60008581526004919091016020526040902054811015611b1a576000612a99613ef6565b60040160008681526020019081526020016000208281548110612abe57612abe615516565b600091825260209182902001546040805163e16695b560e01b815290516001600160a01b039092169350839263e16695b592600480840193829003018186803b158015612b0a57600080fd5b505afa158015612b1e573d6000803e3d6000fd5b505050506040513d601f19601f82011682018060405250810190612b4291906153c3565b838381518110612b5457612b54615516565b60209081029190910101525080612b6a816155af565b915050612a6d565b6000612b7c6136c6565b15612b995760405162461bcd60e51b8152600401610c9590615397565b33612ba26128e4565b6001600160a01b031614612bc85760405162461bcd60e51b8152600401610c95906155ca565b604051630b3cb84560e41b81526004810183905273__$53b43b4bdeb2460d1113627ef627de0cf6$__9063b3cb8450906024015b60006040518083038186803b158015612c1457600080fd5b505af4158015612c28573d6000803e3d6000fd5b50505050600190505b919050565b60026000541415612c595760405162461bcd60e51b8152600401610c9590615336565b6002600055612c666136c6565b15612c835760405162461bcd60e51b8152600401610c9590615397565b33612c8c6128e4565b6001600160a01b031614612cb25760405162461bcd60e51b8152600401610c95906155ca565b73__$53b43b4bdeb2460d1113627ef627de0cf6$__63b8f117cd6040518163ffffffff1660e01b815260040160006040518083038186803b158015612cf657600080fd5b505af4158015612d0a573d6000803e3d6000fd5b505050507f5bd5e5214bcf42a851f8883889177591b93dbd526076c7b5e96bd8eed5931a5342604051612d3f91815260200190565b60405180910390a16001600055565b60606000612d5a613ef6565b6000848152600491909101602052604090205467ffffffffffffffff811115612d8557612d85614f84565b604051908082528060200260200182016040528015612dae578160200160208202803683370190505b50905060005b612dbc613ef6565b60008581526004919091016020526040902054811015611b1a576000612de0613ef6565b60040160008681526020019081526020016000208281548110612e0557612e05615516565b60009182526020918290200154604080516371613c2d60e01b815290516001600160a01b03909216935083926371613c2d92600480840193829003018186803b158015612e5157600080fd5b505afa158015612e65573d6000803e3d6000fd5b505050506040513d601f19601f82011682018060405250810190612e8991906153c3565b838381518110612e9b57612e9b615516565b60209081029190910101525080612eb1816155af565b915050612db4565b600060026000541415612ede5760405162461bcd60e51b8152600401610c9590615336565b6002600090815586908690612ef1613ef6565b6000848152600691909101602090815260408083208584529091529020546001600160a01b03161415612f365760405162461bcd60e51b8152600401610c959061536d565b612f3e6136c6565b15612f5b5760405162461bcd60e51b8152600401610c9590615397565b612f63614136565b6040516396994e3760e01b8152336004820152602481018a9052604481018790526001600160a01b0391909116906396994e379034906064016000604051808303818588803b158015612fb557600080fd5b505af1158015612fc9573d6000803e3d6000fd5b5050505050612fdc88883389898961461e565b600192505050600160005595945050505050565b600033301461338b576001546201000090046001600160a01b031615613029576040516337affdbf60e11b815260040160405180910390fd5b6001805462010000600160b01b0319163362010000021790558383600061304e613ef6565b6000848152600691909101602090815260408083208584529091529020546001600160a01b031614156130935760405162461bcd60e51b8152600401610c959061536d565b61309b6136c6565b156130b85760405162461bcd60e51b8152600401610c9590615397565b604051639519832b60e01b8152600481018790526001600160a01b038516602482015273__$e7d72ce98f1dce1f33c815a57604cff5ab$__90639519832b9060440160206040518083038186803b15801561311257600080fd5b505af4158015613126573d6000803e3d6000fd5b505050506040513d601f19601f8201168201806040525081019061314a91906153c3565b50604051635436151f60e11b81523360048201526001600160a01b038516602482015260448101889052606481018790526084810186905260009073__$e7d72ce98f1dce1f33c815a57604cff5ab$__9063a86c2a3e9060a40160206040518083038186803b1580156131bc57600080fd5b505af41580156131d0573d6000803e3d6000fd5b505050506040513d601f19601f820116820180604052508101906131f491906153c3565b90506131fe614136565b6040516325e1f09f60e01b81523360048201526001600160a01b0391909116906325e1f09f9060240160206040518083038186803b15801561323f57600080fd5b505afa158015613253573d6000803e3d6000fd5b505050506040513d601f19601f820116820180604052508101906132779190615726565b6132935760405162461bcd60e51b8152600401610c9590615741565b8587866001600160a01b03167f347d8f9576f47b3bd7a4821cd3d3d4171968cdd36680d4abaca7de302d836f998b856040516132d9929190918252602082015260400190565b60405180910390a460405163300074c960e01b815273__$e7d72ce98f1dce1f33c815a57604cff5ab$__9063300074c99061331c908a908a908a90600401615293565b60206040518083038186803b15801561333457600080fd5b505af4158015613348573d6000803e3d6000fd5b505050506040513d601f19601f8201168201806040525081019061336c91906153c3565b50600193505050506001805462010000600160b01b03191690556136be565b83836000613397613ef6565b6000848152600691909101602090815260408083208584529091529020546001600160a01b031614156133dc5760405162461bcd60e51b8152600401610c959061536d565b6133e46136c6565b156134015760405162461bcd60e51b8152600401610c9590615397565b604051639519832b60e01b8152600481018790526001600160a01b038516602482015273__$e7d72ce98f1dce1f33c815a57604cff5ab$__90639519832b9060440160206040518083038186803b15801561345b57600080fd5b505af415801561346f573d6000803e3d6000fd5b505050506040513d601f19601f8201168201806040525081019061349391906153c3565b50604051635436151f60e11b81523360048201526001600160a01b038516602482015260448101889052606481018790526084810186905260009073__$e7d72ce98f1dce1f33c815a57604cff5ab$__9063a86c2a3e9060a40160206040518083038186803b15801561350557600080fd5b505af4158015613519573d6000803e3d6000fd5b505050506040513d601f19601f8201168201806040525081019061353d91906153c3565b9050613547614136565b6040516325e1f09f60e01b81523360048201526001600160a01b0391909116906325e1f09f9060240160206040518083038186803b15801561358857600080fd5b505afa15801561359c573d6000803e3d6000fd5b505050506040513d601f19601f820116820180604052508101906135c09190615726565b6135dc5760405162461bcd60e51b8152600401610c9590615741565b8587866001600160a01b03167f347d8f9576f47b3bd7a4821cd3d3d4171968cdd36680d4abaca7de302d836f998b85604051613622929190918252602082015260400190565b60405180910390a460405163300074c960e01b815273__$e7d72ce98f1dce1f33c815a57604cff5ab$__9063300074c990613665908a908a908a90600401615293565b60206040518083038186803b15801561367d57600080fd5b505af4158015613691573d6000803e3d6000fd5b505050506040513d601f19601f820116820180604052508101906136b591906153c3565b50600193505050505b949350505050565b6000806136d1613ef6565b6001015411905090565b6040805160018082528183019092526060916020808301908036833701905050905069151bdad95b95985d5b1d60b21b816000815181106116fa576116fa615516565b6040516295a47160e71b815260009073__$e7d72ce98f1dce1f33c815a57604cff5ab$__90634ad238809061375b90879087908790600401615293565b60e06040518083038186803b15801561377357600080fd5b505af4158015613787573d6000803e3d6000fd5b505050506040513d601f19601f820116820180604052508101906137ab91906152b2565b60200151949350505050565b60006137c16136c6565b156137de5760405162461bcd60e51b8152600401610c9590615397565b336137e76128e4565b6001600160a01b03161461380d5760405162461bcd60e51b8152600401610c95906155ca565b604051631d33a0a760e31b81526004810183905273__$53b43b4bdeb2460d1113627ef627de0cf6$__9063e99d053890602401612bfc565b60606000613851613ef6565b6000848152600491909101602052604090205467ffffffffffffffff81111561387c5761387c614f84565b6040519080825280602002602001820160405280156138a5578160200160208202803683370190505b50905060005b6138b3613ef6565b60008581526004919091016020526040902054811015611b1a5760006138d7613ef6565b600401600086815260200190815260200160002082815481106138fc576138fc615516565b6000918252602091829020015460408051632f05aa6d60e11b815290516001600160a01b0390921693508392635e0b54da92600480840193829003018186803b15801561394857600080fd5b505afa15801561395c573d6000803e3d6000fd5b505050506040513d601f19601f8201168201806040525081019061398091906153c3565b83838151811061399257613992615516565b602090810291909101015250806139a8816155af565b9150506138ab565b600154610100900460ff16158080156139cd57506001805460ff16105b806139e65750303b1580156139e657506001805460ff16145b613a495760405162461bcd60e51b815260206004820152602e60248201527f496e697469616c697a61626c653a20636f6e747261637420697320616c72656160448201526d191e481a5b9a5d1a585b1a5e995960921b6064820152608401610c95565b6001805460ff1916811790558015613a6b576001805461ff0019166101001790555b6000613a756148ef565b6001600160a01b03161415613ad75760405162461bcd60e51b815260206004820152602260248201527f4d7573742062652063616c6c65642066726f6d2070726f787920636f6e74726160448201526118dd60f21b6064820152608401610c95565b82613ae0613ef6565b55613aeb8583614917565b613af484614929565b8015612340576001805461ff00191681556040519081527f7f26b83ff96e1f2b6a682f133852f6798a09c465da95921460cefb38474024989060200160405180910390a15050505050565b600060026000541415613b645760405162461bcd60e51b8152600401610c9590615336565b6002600090815586908690613b77613ef6565b6000848152600691909101602090815260408083208584529091529020546001600160a01b03161415613bbc5760405162461bcd60e51b8152600401610c959061536d565b613bc46136c6565b15613be15760405162461bcd60e51b8152600401610c9590615397565b612fdc88883389898961461e565b33613bf86128e4565b6001600160a01b031614613c1e5760405162461bcd60e51b8152600401610c95906155ca565b6001600160a01b038116613c835760405162461bcd60e51b815260206004820152602660248201527f4f776e61626c653a206e6577206f776e657220697320746865207a65726f206160448201526564647265737360d01b6064820152608401610c95565b6128e181614513565b600060026000541415613cb15760405162461bcd60e51b8152600401610c9590615336565b6002600090815586908690613cc4613ef6565b6000848152600691909101602090815260408083208584529091529020546001600160a01b03161415613d095760405162461bcd60e51b8152600401610c959061536d565b613d116136c6565b15613d2e5760405162461bcd60e51b8152600401610c9590615397565b61182e8888338989896000614145565b600080613d49613ef6565b6001600160a01b03841660009081526008919091016020526040812091505b613d7182614584565b811015613ec1576000613d84838361458e565b9050600073__$e7d72ce98f1dce1f33c815a57604cff5ab$__634ad23880836000896040518463ffffffff1660e01b8152600401613dc493929190615293565b60e06040518083038186803b158015613ddc57600080fd5b505af4158015613df0573d6000803e3d6000fd5b505050506040513d601f19601f82011682018060405250810190613e1491906152b2565b519050613e1f6149be565b6040516303a0a22f60e41b815260048101849052602481018390526001600160a01b039190911690633a0a22f09060440160206040518083038186803b158015613e6857600080fd5b505afa158015613e7c573d6000803e3d6000fd5b505050506040513d601f19601f82011682018060405250810190613ea091906153c3565b613eaa9086615770565b945050508080613eb9906155af565b915050613d68565b5050919050565b60606125ea613ed5613ef6565b6001600160a01b0384166000908152600891909101602052604090206149c8565b7f8041b8421ebd495cc61f38c788c9eb100daccf9bd36aa0bb920b7a15b2e0496590565b600080821215613f6c5760405162461bcd60e51b815260206004820181905260248201527f53616665436173743a2076616c7565206d75737420626520706f7369746976656044820152606401610c95565b5090565b82156140a257604051631c872e8960e11b815273__$e7d72ce98f1dce1f33c815a57604cff5ab$__9063390e5d1290613fbc908b908b908b908b908a908c908a906001906004016157b1565b60006040518083038186803b158015613fd457600080fd5b505af4158015613fe8573d6000803e3d6000fd5b5050505073__$53b43b4bdeb2460d1113627ef627de0cf6$__63e88e183789896140307f55cc3066d618b5a688ac1f2a8234e21c685f7432b4230a1660309640d60d8f665490565b6040516001600160e01b031960e086901b168152600481019390935260248301919091526044820152606481018590526084810187905260a4810186905260c40160006040518083038186803b15801561408957600080fd5b505af415801561409d573d6000803e3d6000fd5b505050505b5050505050505050565b60408101511561413057805160408083015160208401519151631c872e8960e11b815273__$e7d72ce98f1dce1f33c815a57604cff5ab$__9363390e5d1293614104938a938a93928a929160009081906004016157b1565b60006040518083038186803b15801561411c57600080fd5b505af41580156140a2573d6000803e3d6000fd5b50505050565b60006141406149d3565b905090565b60008084116141875760405162461bcd60e51b815260206004820152600e60248201526d125b9d985b1a5908185b5bdd5b9d60921b6044820152606401610c95565b604051639519832b60e01b8152600481018990526001600160a01b038716602482015260009073__$e7d72ce98f1dce1f33c815a57604cff5ab$__90639519832b9060440160206040518083038186803b1580156141e457600080fd5b505af41580156141f8573d6000803e3d6000fd5b505050506040513d601f19601f8201168201806040525081019061421c91906153c3565b60405163b6eb033d60e01b815290915073__$e7d72ce98f1dce1f33c815a57604cff5ab$__9063b6eb033d9061425a908c908c908c90600401615293565b60006040518083038186803b15801561427257600080fd5b505af4158015614286573d6000803e3d6000fd5b505050508261433457614297614136565b6001600160a01b03166328ff7a42888b888a6040518563ffffffff1660e01b81526004016142c89493929190615803565b60206040518083038186803b1580156142e057600080fd5b505afa1580156142f4573d6000803e3d6000fd5b505050506040513d601f19601f820116820180604052508101906143189190615726565b6143345760405162461bcd60e51b8152600401610c9590615741565b600080600080614342613ef6565b60008e8152600691909101602090815260408083208f845290915290819020549051633352870560e21b81526001600160a01b039091169063cd4a1c1490614396908d908f908e908e908e9060040161582e565b60c060405180830381600087803b1580156143b057600080fd5b505af11580156143c4573d6000803e3d6000fd5b505050506040513d601f19601f820116820180604052508101906143e8919061586a565b935093509350935080896143fc91906158a8565b955060008761447d578315806144125750600082115b15614425576144226001876158bf565b95505b601486111561446f5760405162461bcd60e51b8152602060048201526016602482015275546f6f206d616e7920616374697665206f726465727360501b6044820152606401610c95565b61447a8e858f6149eb565b90505b61448d8e8e8e8e8b898b88613f70565b6144bb8e8e60008e60018111156144a6576144a66153dc565b146144b25760006144b5565b60015b866140ac565b6144e98e6144c7613ef6565b6001600160a01b038f1660009081526008919091016020526040902090614a6f565b50505050505050979650505050505050565b600081815260018301602052604081205415156129a1565b7f9acda75aebd150dd434541a4747a6dc606f4f1a59662477e67daf1fc0bf9e0aa80546001600160a01b038381166001600160a01b0319831681179093556040519116919082907f8be0079c531659141344cd1fd0a4f28419497f9722a3daafe3b4186f6b6457e090600090a35050565b60006125ea825490565b60006129a18383614a7b565b6000614140614aa5565b7f55cc3066d618b5a688ac1f2a8234e21c685f7432b4230a1660309640d60d8f6654818114611246578160008051602061597e8339815191526002015560408051828152602081018490527fb310034e792eb345456b77ee9b3ade0d30b9866d547921c8f4d5e9273c941a90910160405180910390a15050565b6000821161465f5760405162461bcd60e51b815260206004820152600e60248201526d125b9d985b1a5908185b5bdd5b9d60921b6044820152606401610c95565b604051639519832b60e01b8152600481018790526001600160a01b038516602482015260009073__$e7d72ce98f1dce1f33c815a57604cff5ab$__90639519832b9060440160206040518083038186803b1580156146bc57600080fd5b505af41580156146d0573d6000803e3d6000fd5b505050506040513d601f19601f820116820180604052508101906146f491906153c3565b905060146147038260016158bf565b111561474a5760405162461bcd60e51b8152602060048201526016602482015275546f6f206d616e7920616374697665206f726465727360501b6044820152606401610c95565b60405163b6eb033d60e01b815273__$e7d72ce98f1dce1f33c815a57604cff5ab$__9063b6eb033d90614785908a908a908a90600401615293565b60006040518083038186803b15801561479d57600080fd5b505af41580156147b1573d6000803e3d6000fd5b505050506147bd614136565b6001600160a01b03166328ff7a42868986886040518563ffffffff1660e01b81526004016147ee9493929190615803565b60206040518083038186803b15801561480657600080fd5b505afa15801561481a573d6000803e3d6000fd5b505050506040513d601f19601f8201168201806040525081019061483e9190615726565b61485a5760405162461bcd60e51b8152600401610c9590615741565b614862613ef6565b600088815260069190910160209081526040808320898452909152908190205490516328378aab60e01b81526001600160a01b03909116906328378aab906148b49087908990889088906004016158d7565b600060405180830381600087803b1580156148ce57600080fd5b505af11580156148e2573d6000803e3d6000fd5b5050505050505050505050565b60007f360894a13ba1a3210667c828492db98dca3e2076cc3735a920a3ca505d382bbc610b0d565b61492082614513565b611246816145a4565b60008051602061595e833981519152546001600160a01b03161561498f5760405162461bcd60e51b815260206004820152601b60248201527f5265736f6c766572207265676973746572656420616c726561647900000000006044820152606401610c95565b60008051602061595e83398151915280546001600160a01b0319166001600160a01b0392909216919091179055565b6000614140614abe565b60606125ea82614ade565b600061414069151bdad95b95985d5b1d60b21b614b39565b6000814210614a0c5760405162461bcd60e51b8152600401610c959061536d565b6000614a1842846158a8565b9050614a66614a2d6127106301e13380615909565b600087815260008051602061597e83398151915260205260409020548690614a56908590615909565b614a609190615909565b90614bca565b95945050505050565b60006129a18383614c3b565b6000826000018281548110614a9257614a92615516565b9060005260206000200154905092915050565b60006141406a14995cd95c9d99519d5b9960aa1b614b39565b60006141407121bab93932b731bca1b7b73a3937b63632b960711b614b39565b6060816000018054806020026020016040519081016040528092919081815260200182805480156115db57602002820191906000526020600020905b815481526020019060010190808311614b1a5750505050509050919050565b60008181527f4abde63c3e81aefa5764b017968bc473e83e093d7e1a10247d19e0a3e41240196020908152604080832054815170026b4b9b9b4b7339030b2323932b9b99d1607d1b9381019390935260318084018690528251808503909101815260519093019091526001600160a01b03169081611b1a5760405162461bcd60e51b8152600401610c959190615928565b6000808211614bd857600080fd5b6005614be4838561593b565b614bef90600a615909565b83614bfb86600a615909565b614c05919061593b565b614c0f91906158a8565b1015614c2657614c1f828461593b565b90506125ea565b614c30828461593b565b614c1f9060016158bf565b6000818152600183016020526040812054614c82575081546001818101845560008481526020808220909301849055845484825282860190935260409020919091556125ea565b5060006125ea565b6001600160a01b03811681146128e157600080fd5b600080600060608486031215614cb457600080fd5b8335614cbf81614c8a565b95602085013595506040909401359392505050565b600060208284031215614ce657600080fd5b5035919050565b600080600060608486031215614d0257600080fd5b505081359360208301359350604090920135919050565b600081518084526020808501945080840160005b83811015614d4957815187529582019590820190600101614d2d565b509495945050505050565b606081526000614d676060830186614d19565b8281036020840152614d798186614d19565b90508281036040840152614d8d8185614d19565b9695505050505050565b60008060408385031215614daa57600080fd5b823591506020830135614dbc81614c8a565b809150509250929050565b60008060408385031215614dda57600080fd5b50508035926020909101359150565b600080600060608486031215614dfe57600080fd5b83359250602084013591506040840135614e1781614c8a565b809150509250925092565b6020808252825182820181905260009190848201906040850190845b81811015614e635783516001600160a01b031683529284019291840191600101614e3e565b50909695505050505050565b6020808252825182820181905260009190848201906040850190845b81811015614e6357835183529284019291840191600101614e8b565b600281106128e157600080fd5b600080600080600060a08688031215614ecc57600080fd5b85359450602086013593506040860135614ee581614ea7565b94979396509394606081013594506080013592915050565b600080600060608486031215614f1257600080fd5b8335925060208401359150604084013565ffffffffffff81168114614e1757600080fd5b6020815260006129a16020830184614d19565b600080600080600060a08688031215614f6157600080fd5b505083359560208501359550604085013594606081013594506080013592509050565b634e487b7160e01b600052604160045260246000fd5b604051601f8201601f1916810167ffffffffffffffff81118282101715614fc357614fc3614f84565b604052919050565b600067ffffffffffffffff821115614fe557614fe5614f84565b5060051b60200190565b6000806040838503121561500257600080fd5b823567ffffffffffffffff81111561501957600080fd5b8301601f8101851361502a57600080fd5b8035602061503f61503a83614fcb565b614f9a565b82815260059290921b8301810191818101908884111561505e57600080fd5b938201935b8385101561507c57843582529382019390820190615063565b98969091013596505050505050565b60006020828403121561509d57600080fd5b81356129a181614c8a565b600080600080608085870312156150be57600080fd5b84359350602085013592506040850135915060608501356150de81614c8a565b939692955090935050565b600080600080608085870312156150ff57600080fd5b843561510a81614c8a565b9350602085013561511a81614c8a565b93969395505050506040820135916060013590565b80518015158114612c3157600080fd5b600080600080600080600080610100898b03121561515c57600080fd5b885197506020890151965060408901519550606089015194506080890151935060a0890151925060c0890151915061519660e08a0161512f565b90509295985092959890939650565b600082601f8301126151b657600080fd5b815160206151c661503a83614fcb565b82815260059290921b840181019181810190868411156151e557600080fd5b8286015b8481101561520057805183529183019183016151e9565b509695505050505050565b60008060006060848603121561522057600080fd5b835167ffffffffffffffff8082111561523857600080fd5b615244878388016151a5565b9450602086015191508082111561525a57600080fd5b615266878388016151a5565b9350604086015191508082111561527c57600080fd5b50615289868287016151a5565b9150509250925092565b92835260208301919091526001600160a01b0316604082015260600190565b600060e082840312156152c457600080fd5b60405160e0810181811067ffffffffffffffff821117156152e7576152e7614f84565b8060405250825181526020830151602082015260408301516040820152606083015160608201526080830151608082015260a083015160a082015260c083015160c08201528091505092915050565b6020808252601f908201527f5265656e7472616e637947756172643a207265656e7472616e742063616c6c00604082015260600190565b60208082526010908201526f496e76616c6964206d6174757269747960801b604082015260600190565b602080825260129082015271105b1c9958591e481d195c9b5a5b985d195960721b604082015260600190565b6000602082840312156153d557600080fd5b5051919050565b634e487b7160e01b600052602160045260246000fd5b6002811061541057634e487b7160e01b600052602160045260246000fd5b9052565b6060810161542282866153f2565b6001600160a01b0393909316602082015260400152919050565b60006060828403121561544e57600080fd5b6040516060810181811067ffffffffffffffff8211171561547157615471614f84565b8060405250809150825161548481614c8a565b8082525060208301516020820152604083015160408201525092915050565b60008060008060c085870312156154b957600080fd5b8451935060208501519250604085015191506154d8866060870161543c565b905092959194509250565b634e487b7160e01b600052601160045260246000fd5b6000600160ff1b82141561550f5761550f6154e3565b5060000390565b634e487b7160e01b600052603260045260246000fd5b6000815180845260005b8181101561555257602081850181015186830182015201615536565b81811115615564576000602083870101525b50601f01601f19169290920160200192915050565b8281526040602082015260006136be604083018461552c565b6000602082840312156155a457600080fd5b81516129a181614c8a565b60006000198214156155c3576155c36154e3565b5060010190565b6020808252818101527f4f776e61626c653a2063616c6c6572206973206e6f7420746865206f776e6572604082015260600190565b60008060006060848603121561561457600080fd5b835161561f81614ea7565b602085015160409095015190969495509392505050565b600080600080600080600060e0888a03121561565157600080fd5b5050855160208701516040880151606089015160808a015160a08b015160c0909b0151949c939b50919990985090965094509092509050565b60008060006060848603121561569f57600080fd5b83516156aa81614c8a565b60208501519093506156bb81614c8a565b80925050604084015190509250925092565b60008060c083850312156156e057600080fd5b6156ea848461543c565b91506156f9846060850161543c565b90509250929050565b6000806040838503121561571557600080fd5b505080516020909101519092909150565b60006020828403121561573857600080fd5b6129a18261512f565b602080825260159082015274139bdd08195b9bdd59da0818dbdb1b185d195c985b605a1b604082015260600190565b600080821280156001600160ff1b0384900385131615615792576157926154e3565b600160ff1b83900384128116156157ab576157ab6154e3565b50500190565b888152602081018890526001600160a01b038716604082015261010081016157dc60608301886153f2565b8560808301528460a08301528360c083015282151560e08301529998505050505050505050565b6001600160a01b0385168152602081018490526040810183905260808101614a6660608301846153f2565b60a0810161583c82886153f2565b6001600160a01b03959095166020820152604081019390935260608301919091521515608090910152919050565b60008060008060c0858703121561588057600080fd5b8451935060208501519250615898866040870161543c565b60a0959095015193969295505050565b6000828210156158ba576158ba6154e3565b500390565b600082198211156158d2576158d26154e3565b500190565b608081016158e582876153f2565b6001600160a01b039490941660208201526040810192909252606090910152919050565b6000816000190483118215151615615923576159236154e3565b500290565b6020815260006129a1602083018461552c565b60008261595857634e487b7160e01b600052601260045260246000fd5b50049056fe4abde63c3e81aefa5764b017968bc473e83e093d7e1a10247d19e0a3e412401855cc3066d618b5a688ac1f2a8234e21c685f7432b4230a1660309640d60d8f6455cc3066d618b5a688ac1f2a8234e21c685f7432b4230a1660309640d60d8f65a2646970667358221220b59b752364ab0f8f8c3f7636b6db60d4a75d17c892201334b376a74ab07a6cec64736f6c63430008090033",
  "libraries": {
    "FundManagementLogic": "0x2767a5DdBe9Baa7bBCC2e5f873089e383D9e1369",
    "LendingMarketOperationLogic": "0x46F9B3b3A99DD8a63BD482c25B7FD172A494b945"
  },
  "implementation": "0x964bB459c99B8fa0597cCCEBC9D8eFcF1810908D",
  "devdoc": {
    "kind": "dev",
    "methods": {
      "acceptedContracts()": {
        "details": "The contact name listed in this method is also needed to be listed `requiredContracts` method."
      },
      "calculateFunds(bytes32,address)": {
        "params": {
          "_ccy": "Currency name in bytes32",
          "_user": "User's address"
        },
        "returns": {
          "borrowedAmount": "The borrowed amount due to the borrow orders being filled on the order book",
          "claimableAmount": "The claimable amount due to the lending orders being filled on the order book",
          "collateralAmount": "The actual collateral amount that is calculated by netting using the haircut.",
          "debtAmount": "The debt amount due to the borrow orders being filled on the order book",
          "lentAmount": "The lent amount due to the lend orders being filled on the order book",
          "workingBorrowOrdersAmount": "The working orders amount on the borrow order book",
          "workingLendOrdersAmount": "The working orders amount on the lend order book"
        }
      },
      "calculateTotalFundsInETH(address,bytes32,uint256)": {
        "params": {
          "_depositAmount": "Amount to deposit",
          "_depositCcy": "Currency name to be used as deposit",
          "_user": "User's address"
        }
      },
      "cancelOrder(bytes32,uint256,uint48)": {
        "params": {
          "_ccy": "Currency name in bytes32 of the selected market",
          "_maturity": "The maturity of the selected market",
          "_orderId": "Market order id"
        }
      },
      "cleanUpAllFunds(address)": {
        "params": {
          "_user": "User's address"
        }
      },
      "cleanUpFunds(bytes32,address)": {
        "params": {
          "_ccy": "Currency name in bytes32",
          "_user": "User's address"
        }
      },
      "createLendingMarket(bytes32,uint256)": {
        "params": {
          "_ccy": "Main currency for new lending market",
          "_openingDate": "Timestamp when the lending market opens"
        }
      },
      "createOrder(bytes32,uint256,uint8,uint256,uint256)": {
        "params": {
          "_amount": "Amount of funds the maker wants to borrow/lend",
          "_ccy": "Currency name in bytes32 of the selected market",
          "_maturity": "The maturity of the selected market",
          "_side": "Order position type, Borrow or Lend",
          "_unitPrice": "Amount of unit price taker wish to borrow/lend"
        },
        "returns": {
          "_0": "True if the execution of the operation succeeds"
        }
      },
      "createPreOrder(bytes32,uint256,uint8,uint256,uint256)": {
        "params": {
          "_amount": "Amount of funds the maker wants to borrow/lend",
          "_ccy": "Currency name in bytes32 of the selected market",
          "_maturity": "The maturity of the selected market",
          "_side": "Order position type, Borrow or Lend",
          "_unitPrice": "Amount of unit price taker wish to borrow/lend"
        },
        "returns": {
          "_0": "True if the execution of the operation succeeds"
        }
      },
      "depositAndCreateOrder(bytes32,uint256,uint8,uint256,uint256)": {
        "params": {
          "_amount": "Amount of funds the maker wants to borrow/lend",
          "_ccy": "Currency name in bytes32 of the selected market",
          "_maturity": "The maturity of the selected market",
          "_side": "Order position type, Borrow or Lend",
          "_unitPrice": "Amount of unit price taker wish to borrow/lend"
        },
        "returns": {
          "_0": "True if the execution of the operation succeeds"
        }
      },
      "depositAndCreatePreOrder(bytes32,uint256,uint8,uint256,uint256)": {
        "params": {
          "_amount": "Amount of funds the maker wants to borrow/lend",
          "_ccy": "Currency name in bytes32 of the selected market",
          "_maturity": "The maturity of the selected market",
          "_side": "Order position type, Borrow or Lend",
          "_unitPrice": "Amount of unit price taker wish to borrow/lend"
        },
        "returns": {
          "_0": "True if the execution of the operation succeeds"
        }
      },
      "executeItayoseCalls(bytes32[],uint256)": {
        "params": {
          "_currencies": "Currency name list in bytes32",
          "_maturity": "The maturity of the selected market"
        }
      },
      "executeLiquidationCall(bytes32,bytes32,uint256,address)": {
        "params": {
          "_collateralCcy": "Currency name to be used as collateral",
          "_debtCcy": "Currency name to be used as debt",
          "_debtMaturity": "The market maturity of the debt",
          "_user": "User's address"
        },
        "returns": {
          "_0": "True if the execution of the operation succeeds"
        }
      },
      "executeRedemption(bytes32,bytes32)": {
        "params": {
          "_collateralCcy": "Currency name of collateral",
          "_redemptionCcy": "Currency name of positions to be redeemed"
        }
      },
      "getAutoRollFeeRate(bytes32)": {
        "params": {
          "_ccy": "Currency name in bytes32"
        },
        "returns": {
          "_0": "The auto-roll fee rate received by protocol"
        }
      },
      "getBorrowOrderBook(bytes32,uint256,uint256)": {
        "params": {
          "_ccy": "Currency name in bytes32",
          "_limit": "The limit number to get",
          "_maturity": "The maturity of the market"
        },
        "returns": {
          "amounts": "The array of borrow order amounts",
          "quantities": "The array of borrow order quantities",
          "unitPrices": "The array of borrow unit prices"
        }
      },
      "getBorrowUnitPrices(bytes32)": {
        "params": {
          "_ccy": "Currency name in bytes32"
        },
        "returns": {
          "_0": "Array with the borrowing prices per future value of the lending market"
        }
      },
      "getFutureValue(bytes32,uint256,address)": {
        "params": {
          "_ccy": "Currency name in bytes32 for Lending Market",
          "_maturity": "The maturity of the market",
          "_user": "User's address"
        },
        "returns": {
          "futureValue": "The future value"
        }
      },
      "getFutureValueVault(bytes32,uint256)": {
        "params": {
          "_ccy": "Currency name in bytes32",
          "_maturity": "The maturity of the market"
        },
        "returns": {
          "_0": "The lending market address"
        }
      },
      "getGenesisDate(bytes32)": {
        "params": {
          "_ccy": "Currency name in bytes32"
        },
        "returns": {
          "_0": "The genesis date"
        }
      },
      "getLendOrderBook(bytes32,uint256,uint256)": {
        "params": {
          "_ccy": "Currency name in bytes32",
          "_limit": "The limit number to get",
          "_maturity": "The maturity of the market"
        },
        "returns": {
          "amounts": "The array of lend order amounts",
          "quantities": "The array of lend order quantities",
          "unitPrices": "The array of borrow unit prices"
        }
      },
      "getLendUnitPrices(bytes32)": {
        "params": {
          "_ccy": "Currency name in bytes32"
        },
        "returns": {
          "_0": "Array with the lending prices per future value of the lending market"
        }
      },
      "getLendingMarket(bytes32,uint256)": {
        "params": {
          "_ccy": "Currency name in bytes32",
          "_maturity": "The maturity of the market"
        },
        "returns": {
          "_0": "The lending market address"
        }
      },
      "getLendingMarkets(bytes32)": {
        "params": {
          "_ccy": "Currency name in bytes32"
        },
        "returns": {
          "_0": "Array with the lending market address"
        }
      },
      "getMaturities(bytes32)": {
        "params": {
          "_ccy": "Currency name in bytes32"
        },
        "returns": {
          "_0": "Array with the lending market maturity"
        }
      },
      "getMidUnitPrices(bytes32)": {
        "params": {
          "_ccy": "Currency name in bytes32"
        },
        "returns": {
          "_0": "Array with the mid prices per future value of the lending market"
        }
      },
      "getObservationPeriod()": {
        "returns": {
          "_0": "The observation period to calculate the volume-weighted average price of transactions"
        }
      },
      "getOrderFeeRate(bytes32)": {
        "params": {
          "_ccy": "Currency name in bytes32"
        },
        "returns": {
          "_0": "The order fee rate received by protocol"
        }
      },
      "getPresentValue(bytes32,uint256,address)": {
        "params": {
          "_ccy": "Currency name in bytes32 for Lending Market",
          "_maturity": "The maturity of the market",
          "_user": "User's address"
        },
        "returns": {
          "presentValue": "The present value"
        }
      },
      "getTotalPresentValue(bytes32,address)": {
        "params": {
          "_ccy": "Currency name in bytes32 for Lending Market",
          "_user": "User's address"
        },
        "returns": {
          "totalPresentValue": "The total present value"
        }
      },
      "getTotalPresentValueInETH(address)": {
        "params": {
          "_user": "User's address"
        },
        "returns": {
          "totalPresentValue": "The total present value in ETH"
        }
      },
      "getUsedCurrencies(address)": {
        "params": {
          "_user": "User's address"
        },
        "returns": {
          "_0": "The array of the currency"
        }
      },
      "initialize(address,address,uint256,uint256)": {
        "details": "Function is invoked by the proxy contract when the contract is added to the ProxyController.",
        "params": {
          "_marketBasePeriod": "The base period for market maturity",
          "_observationPeriod": "The observation period to calculate the volume-weighted average price of transactions",
          "_owner": "The address of the contract owner",
          "_resolver": "The address of the Address Resolver contract"
        }
      },
      "initializeLendingMarket(bytes32,uint256,uint256,uint256,uint256)": {
        "params": {
          "_autoRollFeeRate": "The auto roll fee rate received by protocol",
          "_ccy": "Currency name in bytes32",
          "_compoundFactor": "The initial compound factor when the initial market is opened",
          "_genesisDate": "The genesis date when the initial market is opened",
          "_orderFeeRate": "The order fee rate received by protocol"
        }
      },
      "isInitializedLendingMarket(bytes32)": {
        "params": {
          "_ccy": "Currency name in bytes32"
        },
        "returns": {
          "_0": "The boolean if the lending market is initialized or not"
        }
      },
      "isTerminated()": {
        "returns": {
          "_0": "The boolean if the protocol has not been terminated"
        }
      },
      "owner()": {
        "details": "Returns the address of the current owner."
      },
      "pauseLendingMarkets(bytes32)": {
        "params": {
          "_ccy": "Currency for pausing all lending markets"
        },
        "returns": {
          "_0": "True if the execution of the operation succeeds"
        }
      },
      "renounceOwnership()": {
        "details": "Leaves the contract without owner. It will not be possible to call `onlyOwner` functions anymore. Can only be called by the current owner. NOTE: Renouncing ownership will leave the contract without an owner, thereby removing any functionality that is only available to the owner."
      },
      "requiredContracts()": {
        "details": "The contract name list is in `./libraries/Contracts.sol`."
      },
      "rotateLendingMarkets(bytes32)": {
        "params": {
          "_ccy": "Currency name in bytes32 of the selected market"
        }
      },
      "transferOwnership(address)": {
        "details": "Transfers ownership of the contract to a new account (`newOwner`). Can only be called by the current owner."
      },
      "unpauseLendingMarkets(bytes32)": {
        "params": {
          "_ccy": "Currency name in bytes32"
        },
        "returns": {
          "_0": "True if the execution of the operation succeeds"
        }
      },
      "unwindOrder(bytes32,uint256)": {
        "params": {
          "_ccy": "Currency name in bytes32 of the selected market",
          "_maturity": "The maturity of the selected market"
        }
      },
      "updateAutoRollFeeRate(bytes32,uint256)": {
        "params": {
          "_autoRollFeeRate": "The order fee rate received by protocol",
          "_ccy": "Currency name in bytes32"
        }
      },
      "updateObservationPeriod(uint256)": {
        "params": {
          "_observationPeriod": "The observation period to calculate the volume-weighted average price of transactions"
        }
      },
      "updateOrderFeeRate(bytes32,uint256)": {
        "params": {
          "_ccy": "Currency name in bytes32",
          "_orderFeeRate": "The order fee rate received by protocol"
        }
      }
    },
    "version": 1
  },
  "userdoc": {
    "kind": "user",
    "methods": {
      "acceptedContracts()": {
        "notice": "Returns contract names that can call this contract."
      },
      "calculateFunds(bytes32,address)": {
        "notice": "Gets the funds that are calculated from the user's lending and borrowing order list for the selected currency."
      },
      "calculateTotalFundsInETH(address,bytes32,uint256)": {
        "notice": "Gets the funds that are calculated from the user's lending and borrowing order list for all currencies in ETH."
      },
      "cancelOrder(bytes32,uint256,uint48)": {
        "notice": "Cancels the own order."
      },
      "cleanUpAllFunds(address)": {
        "notice": "Clean up all funds of the user"
      },
      "cleanUpFunds(bytes32,address)": {
        "notice": "Clean up user funds used for lazy evaluation by the following actions: - Removes order IDs that is already filled on the order book. - Convert Future values that have already been auto-rolled to Genesis values."
      },
      "createLendingMarket(bytes32,uint256)": {
        "notice": "Deploys new Lending Market and save address at lendingMarkets mapping.Reverts on deployment market with existing currency and term"
      },
      "createOrder(bytes32,uint256,uint8,uint256,uint256)": {
        "notice": "Creates an order. Takes orders if the orders are matched, and places new order if not match it. In addition, converts the future value to the genesis value if there is future value in past maturity before the execution of order creation."
      },
      "createPreOrder(bytes32,uint256,uint8,uint256,uint256)": {
        "notice": "Creates a pre-order. A pre-order will only be accepted from 48 hours to 1 hour before the market opens (Pre-order period). At the end of this period, Itayose will be executed."
      },
      "depositAndCreateOrder(bytes32,uint256,uint8,uint256,uint256)": {
        "notice": "Deposits funds and creates an order at the same time."
      },
      "depositAndCreatePreOrder(bytes32,uint256,uint8,uint256,uint256)": {
        "notice": "Deposits funds and creates a pre-order at the same time."
      },
      "executeEmergencyTermination()": {
        "notice": "Executes an emergency termination to stop the protocol. Once this function is executed, the protocol cannot be run again. Also, users will only be able to redeem and withdraw."
      },
      "executeItayoseCalls(bytes32[],uint256)": {
        "notice": "Executes Itayose calls per selected currencies."
      },
      "executeLiquidationCall(bytes32,bytes32,uint256,address)": {
        "notice": "Liquidates a lending position if the user's coverage is less than 1."
      },
      "executeRedemption(bytes32,bytes32)": {
        "notice": "Redeems all lending and borrowing positions. This function uses the present value as of the termination date."
      },
      "getAutoRollFeeRate(bytes32)": {
        "notice": "Gets the auto-roll fee rate"
      },
      "getBorrowOrderBook(bytes32,uint256,uint256)": {
        "notice": "Gets the order book of borrow."
      },
      "getBorrowUnitPrices(bytes32)": {
        "notice": "Gets borrow prices per future value for the selected currency."
      },
      "getFutureValue(bytes32,uint256,address)": {
        "notice": "Gets the future value of the account for selected currency and maturity."
      },
      "getFutureValueVault(bytes32,uint256)": {
        "notice": "Gets the feture value contract address for the selected currency and maturity."
      },
      "getGenesisDate(bytes32)": {
        "notice": "Gets the genesis date when the first market opens for the selected currency."
      },
      "getLendOrderBook(bytes32,uint256,uint256)": {
        "notice": "Gets the order book of lend."
      },
      "getLendUnitPrices(bytes32)": {
        "notice": "Gets lend prices per future value for the selected currency."
      },
      "getLendingMarket(bytes32,uint256)": {
        "notice": "Gets the lending market contract address for the selected currency and maturity."
      },
      "getLendingMarkets(bytes32)": {
        "notice": "Gets the lending market contract addresses for the selected currency."
      },
      "getMaturities(bytes32)": {
        "notice": "Gets maturities for the selected currency."
      },
      "getMidUnitPrices(bytes32)": {
        "notice": "Gets mid prices per future value for the selected currency."
      },
      "getObservationPeriod()": {
        "notice": "Gets the observation period"
      },
      "getOrderFeeRate(bytes32)": {
        "notice": "Gets the order fee rate"
      },
      "getPresentValue(bytes32,uint256,address)": {
        "notice": "Gets the present value of the account for selected currency and maturity."
      },
      "getTotalPresentValue(bytes32,address)": {
        "notice": "Gets the total present value of the account for selected currency."
      },
      "getTotalPresentValueInETH(address)": {
        "notice": "Gets the total present value of the account converted to ETH."
      },
      "getUsedCurrencies(address)": {
        "notice": "Get all the currencies in which the user has lending positions or orders."
      },
      "initialize(address,address,uint256,uint256)": {
        "notice": "Initializes the contract."
      },
      "initializeLendingMarket(bytes32,uint256,uint256,uint256,uint256)": {
        "notice": "Initialize the lending market to set a genesis date and compound factor"
      },
      "isInitializedLendingMarket(bytes32)": {
        "notice": "Gets if the lending market is initialized."
      },
      "isTerminated()": {
        "notice": "Gets if the protocol has not been terminated."
      },
      "pauseLendingMarkets(bytes32)": {
        "notice": "Pauses previously deployed lending market by currency"
      },
      "requiredContracts()": {
        "notice": "Returns the contract names used in this contract."
      },
      "rotateLendingMarkets(bytes32)": {
        "notice": "Rotates the lending markets. In this rotation, the following actions are happened. - Updates the maturity at the beginning of the market array. - Moves the beginning of the market array to the end of it (Market rotation). - Update the compound factor in this contract using the next market unit price. (Auto-rolls) - Convert the future value held by reserve funds into the genesis value"
      },
      "unpauseLendingMarkets(bytes32)": {
        "notice": "Unpauses previously deployed lending market by currency"
      },
      "unwindOrder(bytes32,uint256)": {
        "notice": "Unwinds all orders by creating an opposite position order."
      },
      "updateAutoRollFeeRate(bytes32,uint256)": {
        "notice": "Updates the auto-roll fee rate"
      },
      "updateObservationPeriod(uint256)": {
        "notice": "Updates the observation period"
      },
      "updateOrderFeeRate(bytes32,uint256)": {
        "notice": "Updates the order fee rate"
      }
    },
    "notice": "Implements the module to manage separated lending order-book markets per maturity. This contract also works as a factory contract that can deploy(start)a new lending market for selected currency and maturity and has the calculation logic for the Genesis value in addition. Deployed Lending Markets are rotated and reused as it reaches the maturity date. At the time of rotation, a new maturity date is set and the compound factor is updated. The users mainly call this contract to create orders to lend or borrow funds.",
    "version": 1
  },
  "storageLayout": {
    "storage": [
      {
        "astId": 1446,
        "contract": "contracts/protocol/LendingMarketController.sol:LendingMarketController",
        "label": "_status",
        "offset": 0,
        "slot": "0",
        "type": "t_uint256"
      },
      {
        "astId": 1183,
        "contract": "contracts/protocol/LendingMarketController.sol:LendingMarketController",
        "label": "_initialized",
        "offset": 0,
        "slot": "1",
        "type": "t_uint8"
      },
      {
        "astId": 1186,
        "contract": "contracts/protocol/LendingMarketController.sol:LendingMarketController",
        "label": "_initializing",
        "offset": 1,
        "slot": "1",
        "type": "t_bool"
      },
      {
        "astId": 35608,
        "contract": "contracts/protocol/LendingMarketController.sol:LendingMarketController",
        "label": "lockedBy",
        "offset": 2,
        "slot": "1",
        "type": "t_address"
      }
    ],
    "types": {
      "t_address": {
        "encoding": "inplace",
        "label": "address",
        "numberOfBytes": "20"
      },
      "t_bool": {
        "encoding": "inplace",
        "label": "bool",
        "numberOfBytes": "1"
      },
      "t_uint256": {
        "encoding": "inplace",
        "label": "uint256",
        "numberOfBytes": "32"
      },
      "t_uint8": {
        "encoding": "inplace",
        "label": "uint8",
        "numberOfBytes": "1"
      }
    }
  }
}