{
  "address": "0xd4F6b5Abbe8182D8f01F63596EdDab0887Eb0BEc",
  "abi": [
    {
      "anonymous": false,
      "inputs": [
        {
          "indexed": false,
          "internalType": "bytes32",
          "name": "name",
          "type": "bytes32"
        },
        {
          "indexed": false,
          "internalType": "address",
          "name": "destination",
          "type": "address"
        }
      ],
      "name": "CacheUpdated",
      "type": "event"
    },
    {
      "anonymous": false,
      "inputs": [
        {
          "indexed": false,
          "internalType": "uint48",
          "name": "orderId",
          "type": "uint48"
        },
        {
          "indexed": true,
          "internalType": "address",
          "name": "maker",
          "type": "address"
        },
        {
          "indexed": true,
          "internalType": "bytes32",
          "name": "ccy",
          "type": "bytes32"
        },
        {
          "indexed": false,
          "internalType": "enum ProtocolTypes.Side",
          "name": "side",
          "type": "uint8"
        },
        {
          "indexed": false,
          "internalType": "uint256",
          "name": "maturity",
          "type": "uint256"
        },
        {
          "indexed": false,
          "internalType": "uint256",
          "name": "amount",
          "type": "uint256"
        },
        {
          "indexed": false,
          "internalType": "uint256",
          "name": "unitPrice",
          "type": "uint256"
        }
      ],
      "name": "CancelOrder",
      "type": "event"
    },
    {
      "anonymous": false,
      "inputs": [
        {
          "indexed": true,
          "internalType": "bytes32",
          "name": "ccy",
          "type": "bytes32"
        },
        {
          "indexed": true,
          "internalType": "address",
          "name": "marketAddr",
          "type": "address"
        },
        {
          "indexed": false,
          "internalType": "address",
          "name": "futureValueVault",
          "type": "address"
        },
        {
          "indexed": false,
          "internalType": "uint256",
          "name": "index",
          "type": "uint256"
        },
        {
          "indexed": false,
          "internalType": "uint256",
          "name": "maturity",
          "type": "uint256"
        }
      ],
      "name": "CreateLendingMarket",
      "type": "event"
    },
    {
      "anonymous": false,
      "inputs": [
        {
          "indexed": true,
          "internalType": "address",
          "name": "taker",
          "type": "address"
        },
        {
          "indexed": true,
          "internalType": "bytes32",
          "name": "ccy",
          "type": "bytes32"
        },
        {
          "indexed": false,
          "internalType": "enum ProtocolTypes.Side",
          "name": "side",
          "type": "uint8"
        },
        {
          "indexed": true,
          "internalType": "uint256",
          "name": "maturity",
          "type": "uint256"
        },
        {
          "indexed": false,
          "internalType": "uint256",
          "name": "amount",
          "type": "uint256"
        },
        {
          "indexed": false,
          "internalType": "uint256",
          "name": "unitPrice",
          "type": "uint256"
        },
        {
          "indexed": false,
          "internalType": "uint256",
          "name": "filledFutureValue",
          "type": "uint256"
        }
      ],
      "name": "FillOrder",
      "type": "event"
    },
    {
      "anonymous": false,
      "inputs": [
        {
          "indexed": true,
          "internalType": "address",
          "name": "taker",
          "type": "address"
        },
        {
          "indexed": true,
          "internalType": "bytes32",
          "name": "ccy",
          "type": "bytes32"
        },
        {
          "indexed": false,
          "internalType": "enum ProtocolTypes.Side",
          "name": "side",
          "type": "uint8"
        },
        {
          "indexed": true,
          "internalType": "uint256",
          "name": "maturity",
          "type": "uint256"
        },
        {
          "indexed": false,
          "internalType": "uint256",
          "name": "filledFutureValue",
          "type": "uint256"
        }
      ],
      "name": "FillOrdersAsync",
      "type": "event"
    },
    {
      "anonymous": false,
      "inputs": [
        {
          "indexed": false,
          "internalType": "uint8",
          "name": "version",
          "type": "uint8"
        }
      ],
      "name": "Initialized",
      "type": "event"
    },
    {
      "anonymous": false,
      "inputs": [
        {
          "indexed": true,
          "internalType": "address",
          "name": "user",
          "type": "address"
        },
        {
          "indexed": false,
          "internalType": "bytes32",
          "name": "collateralCcy",
          "type": "bytes32"
        },
        {
          "indexed": true,
          "internalType": "bytes32",
          "name": "debtCcy",
          "type": "bytes32"
        },
        {
          "indexed": true,
          "internalType": "uint256",
          "name": "debtMaturity",
          "type": "uint256"
        },
        {
          "indexed": false,
          "internalType": "uint256",
          "name": "amount",
          "type": "uint256"
        }
      ],
      "name": "Liquidate",
      "type": "event"
    },
    {
      "anonymous": false,
      "inputs": [
        {
          "indexed": true,
          "internalType": "address",
          "name": "previousOwner",
          "type": "address"
        },
        {
          "indexed": true,
          "internalType": "address",
          "name": "newOwner",
          "type": "address"
        }
      ],
      "name": "OwnershipTransferred",
      "type": "event"
    },
    {
      "anonymous": false,
      "inputs": [
        {
          "indexed": false,
          "internalType": "bytes32",
          "name": "ccy",
          "type": "bytes32"
        },
        {
          "indexed": false,
          "internalType": "uint256",
          "name": "oldMaturity",
          "type": "uint256"
        },
        {
          "indexed": false,
          "internalType": "uint256",
          "name": "newMaturity",
          "type": "uint256"
        }
      ],
      "name": "RotateLendingMarkets",
      "type": "event"
    },
    {
      "inputs": [],
      "name": "acceptedContracts",
      "outputs": [
        {
          "internalType": "bytes32[]",
          "name": "contracts",
          "type": "bytes32[]"
        }
      ],
      "stateMutability": "pure",
      "type": "function"
    },
    {
      "inputs": [],
      "name": "buildCache",
      "outputs": [],
      "stateMutability": "nonpayable",
      "type": "function"
    },
    {
      "inputs": [
        {
          "internalType": "bytes32",
          "name": "_ccy",
          "type": "bytes32"
        },
        {
          "internalType": "address",
          "name": "_user",
          "type": "address"
        }
      ],
      "name": "calculateBorrowedFundsFromOrders",
      "outputs": [
        {
          "internalType": "uint256",
          "name": "workingOrdersAmount",
          "type": "uint256"
        },
        {
          "internalType": "uint256",
          "name": "debtAmount",
          "type": "uint256"
        },
        {
          "internalType": "uint256",
          "name": "borrowedAmount",
          "type": "uint256"
        }
      ],
      "stateMutability": "view",
      "type": "function"
    },
    {
      "inputs": [
        {
          "internalType": "bytes32",
          "name": "_ccy",
          "type": "bytes32"
        },
        {
          "internalType": "address",
          "name": "_user",
          "type": "address"
        }
      ],
      "name": "calculateFunds",
      "outputs": [
        {
          "internalType": "uint256",
          "name": "workingLendOrdersAmount",
          "type": "uint256"
        },
        {
          "internalType": "uint256",
          "name": "claimableAmount",
          "type": "uint256"
        },
        {
          "internalType": "uint256",
          "name": "collateralAmount",
          "type": "uint256"
        },
        {
          "internalType": "uint256",
          "name": "lentAmount",
          "type": "uint256"
        },
        {
          "internalType": "uint256",
          "name": "workingBorrowOrdersAmount",
          "type": "uint256"
        },
        {
          "internalType": "uint256",
          "name": "debtAmount",
          "type": "uint256"
        },
        {
          "internalType": "uint256",
          "name": "borrowedAmount",
          "type": "uint256"
        }
      ],
      "stateMutability": "view",
      "type": "function"
    },
    {
      "inputs": [
        {
          "internalType": "bytes32",
          "name": "_ccy",
          "type": "bytes32"
        },
        {
          "internalType": "address",
          "name": "_user",
          "type": "address"
        }
      ],
      "name": "calculateLentFundsFromOrders",
      "outputs": [
        {
          "internalType": "uint256",
          "name": "workingOrdersAmount",
          "type": "uint256"
        },
        {
          "internalType": "uint256",
          "name": "claimableAmount",
          "type": "uint256"
        },
        {
          "internalType": "uint256",
          "name": "lentAmount",
          "type": "uint256"
        }
      ],
      "stateMutability": "view",
      "type": "function"
    },
    {
      "inputs": [
        {
          "internalType": "address",
          "name": "_user",
          "type": "address"
        },
        {
          "internalType": "bytes32",
          "name": "_depositCcy",
          "type": "bytes32"
        },
        {
          "internalType": "uint256",
          "name": "_depositAmount",
          "type": "uint256"
        }
      ],
      "name": "calculateTotalFundsInETH",
      "outputs": [
        {
          "internalType": "uint256",
          "name": "totalWorkingLendOrdersAmount",
          "type": "uint256"
        },
        {
          "internalType": "uint256",
          "name": "totalClaimableAmount",
          "type": "uint256"
        },
        {
          "internalType": "uint256",
          "name": "totalCollateralAmount",
          "type": "uint256"
        },
        {
          "internalType": "uint256",
          "name": "totalLentAmount",
          "type": "uint256"
        },
        {
          "internalType": "uint256",
          "name": "totalWorkingBorrowOrdersAmount",
          "type": "uint256"
        },
        {
          "internalType": "uint256",
          "name": "totalDebtAmount",
          "type": "uint256"
        },
        {
          "internalType": "uint256",
          "name": "totalBorrowedAmount",
          "type": "uint256"
        },
        {
          "internalType": "bool",
          "name": "isEnoughDeposit",
          "type": "bool"
        }
      ],
      "stateMutability": "view",
      "type": "function"
    },
    {
      "inputs": [
        {
          "internalType": "bytes32",
          "name": "_ccy",
          "type": "bytes32"
        },
        {
          "internalType": "uint256",
          "name": "_maturity",
          "type": "uint256"
        },
        {
          "internalType": "uint48",
          "name": "_orderId",
          "type": "uint48"
        }
      ],
      "name": "cancelOrder",
      "outputs": [
        {
          "internalType": "bool",
          "name": "",
          "type": "bool"
        }
      ],
      "stateMutability": "nonpayable",
      "type": "function"
    },
    {
      "inputs": [
        {
          "internalType": "address",
          "name": "_user",
          "type": "address"
        }
      ],
      "name": "cleanAllOrders",
      "outputs": [],
      "stateMutability": "nonpayable",
      "type": "function"
    },
    {
      "inputs": [
        {
          "internalType": "bytes32",
          "name": "_ccy",
          "type": "bytes32"
        },
        {
          "internalType": "address",
          "name": "_user",
          "type": "address"
        }
      ],
      "name": "cleanOrders",
      "outputs": [
        {
          "internalType": "uint256",
          "name": "totalActiveOrderCount",
          "type": "uint256"
        }
      ],
      "stateMutability": "nonpayable",
      "type": "function"
    },
    {
      "inputs": [
        {
          "internalType": "bytes32",
          "name": "_ccy",
          "type": "bytes32"
        },
        {
          "internalType": "uint256",
          "name": "_maturity",
          "type": "uint256"
        },
        {
          "internalType": "uint256",
          "name": "_unitPrice",
          "type": "uint256"
        }
      ],
      "name": "createLendOrderWithETH",
      "outputs": [
        {
          "internalType": "bool",
          "name": "",
          "type": "bool"
        }
      ],
      "stateMutability": "payable",
      "type": "function"
    },
    {
      "inputs": [
        {
          "internalType": "bytes32",
          "name": "_ccy",
          "type": "bytes32"
        }
      ],
      "name": "createLendingMarket",
      "outputs": [
        {
          "internalType": "address",
          "name": "market",
          "type": "address"
        },
        {
          "internalType": "address",
          "name": "futureValueVault",
          "type": "address"
        }
      ],
      "stateMutability": "nonpayable",
      "type": "function"
    },
    {
      "inputs": [
        {
          "internalType": "bytes32",
          "name": "_ccy",
          "type": "bytes32"
        },
        {
          "internalType": "uint256",
          "name": "_maturity",
          "type": "uint256"
        },
        {
          "internalType": "enum ProtocolTypes.Side",
          "name": "_side",
          "type": "uint8"
        },
        {
          "internalType": "uint256",
          "name": "_amount",
          "type": "uint256"
        },
        {
          "internalType": "uint256",
          "name": "_unitPrice",
          "type": "uint256"
        }
      ],
      "name": "createOrder",
      "outputs": [
        {
          "internalType": "bool",
          "name": "",
          "type": "bool"
        }
      ],
      "stateMutability": "nonpayable",
      "type": "function"
    },
    {
      "inputs": [
        {
          "internalType": "bytes32",
          "name": "_ccy",
          "type": "bytes32"
        },
        {
          "internalType": "uint256",
          "name": "_maturity",
          "type": "uint256"
        },
        {
          "internalType": "uint256",
          "name": "_unitPrice",
          "type": "uint256"
        }
      ],
      "name": "depositAndCreateLendOrderWithETH",
      "outputs": [
        {
          "internalType": "bool",
          "name": "",
          "type": "bool"
        }
      ],
      "stateMutability": "payable",
      "type": "function"
    },
    {
      "inputs": [
        {
          "internalType": "bytes32",
          "name": "_ccy",
          "type": "bytes32"
        },
        {
          "internalType": "uint256",
          "name": "_maturity",
          "type": "uint256"
        },
        {
          "internalType": "enum ProtocolTypes.Side",
          "name": "_side",
          "type": "uint8"
        },
        {
          "internalType": "uint256",
          "name": "_amount",
          "type": "uint256"
        },
        {
          "internalType": "uint256",
          "name": "_unitPrice",
          "type": "uint256"
        }
      ],
      "name": "depositAndCreateOrder",
      "outputs": [
        {
          "internalType": "bool",
          "name": "",
          "type": "bool"
        }
      ],
      "stateMutability": "nonpayable",
      "type": "function"
    },
    {
      "inputs": [
        {
          "internalType": "bytes32",
          "name": "_collateralCcy",
          "type": "bytes32"
        },
        {
          "internalType": "bytes32",
          "name": "_debtCcy",
          "type": "bytes32"
        },
        {
          "internalType": "uint256",
          "name": "_debtMaturity",
          "type": "uint256"
        },
        {
          "internalType": "uint256",
          "name": "_liquidationAmountMax",
          "type": "uint256"
        },
        {
          "internalType": "address",
          "name": "_user",
          "type": "address"
        },
        {
          "internalType": "uint24",
          "name": "_poolFee",
          "type": "uint24"
        }
      ],
      "name": "executeLiquidationCall",
      "outputs": [
        {
          "internalType": "bool",
          "name": "",
          "type": "bool"
        }
      ],
      "stateMutability": "nonpayable",
      "type": "function"
    },
    {
      "inputs": [
        {
          "internalType": "bytes32",
          "name": "_ccy",
          "type": "bytes32"
        },
        {
          "internalType": "uint256",
          "name": "_maturity",
          "type": "uint256"
        },
        {
          "internalType": "uint256",
          "name": "_limit",
          "type": "uint256"
        }
      ],
      "name": "getBorrowOrderBook",
      "outputs": [
        {
          "internalType": "uint256[]",
          "name": "unitPrices",
          "type": "uint256[]"
        },
        {
          "internalType": "uint256[]",
          "name": "amounts",
          "type": "uint256[]"
        },
        {
          "internalType": "uint256[]",
          "name": "quantities",
          "type": "uint256[]"
        }
      ],
      "stateMutability": "view",
      "type": "function"
    },
    {
      "inputs": [
        {
          "internalType": "bytes32",
          "name": "_ccy",
          "type": "bytes32"
        }
      ],
      "name": "getBorrowUnitPrices",
      "outputs": [
        {
          "internalType": "uint256[]",
          "name": "",
          "type": "uint256[]"
        }
      ],
      "stateMutability": "view",
      "type": "function"
    },
    {
      "inputs": [
        {
          "internalType": "bytes32",
          "name": "_ccy",
          "type": "bytes32"
        },
        {
          "internalType": "uint256",
          "name": "_maturity",
          "type": "uint256"
        },
        {
          "internalType": "address",
          "name": "_user",
          "type": "address"
        }
      ],
      "name": "getFutureValue",
      "outputs": [
        {
          "internalType": "int256",
          "name": "futureValue",
          "type": "int256"
        }
      ],
      "stateMutability": "view",
      "type": "function"
    },
    {
      "inputs": [
        {
          "internalType": "bytes32",
          "name": "_ccy",
          "type": "bytes32"
        },
        {
          "internalType": "uint256",
          "name": "_maturity",
          "type": "uint256"
        }
      ],
      "name": "getFutureValueVault",
      "outputs": [
        {
          "internalType": "address",
          "name": "",
          "type": "address"
        }
      ],
      "stateMutability": "view",
      "type": "function"
    },
    {
      "inputs": [
        {
          "internalType": "bytes32",
          "name": "_ccy",
          "type": "bytes32"
        }
      ],
      "name": "getGenesisDate",
      "outputs": [
        {
          "internalType": "uint256",
          "name": "",
          "type": "uint256"
        }
      ],
      "stateMutability": "view",
      "type": "function"
    },
    {
      "inputs": [
        {
          "internalType": "bytes32",
          "name": "_ccy",
          "type": "bytes32"
        },
        {
          "internalType": "uint256",
          "name": "_maturity",
          "type": "uint256"
        },
        {
          "internalType": "uint256",
          "name": "_limit",
          "type": "uint256"
        }
      ],
      "name": "getLendOrderBook",
      "outputs": [
        {
          "internalType": "uint256[]",
          "name": "unitPrices",
          "type": "uint256[]"
        },
        {
          "internalType": "uint256[]",
          "name": "amounts",
          "type": "uint256[]"
        },
        {
          "internalType": "uint256[]",
          "name": "quantities",
          "type": "uint256[]"
        }
      ],
      "stateMutability": "view",
      "type": "function"
    },
    {
      "inputs": [
        {
          "internalType": "bytes32",
          "name": "_ccy",
          "type": "bytes32"
        }
      ],
      "name": "getLendUnitPrices",
      "outputs": [
        {
          "internalType": "uint256[]",
          "name": "",
          "type": "uint256[]"
        }
      ],
      "stateMutability": "view",
      "type": "function"
    },
    {
      "inputs": [
        {
          "internalType": "bytes32",
          "name": "_ccy",
          "type": "bytes32"
        },
        {
          "internalType": "uint256",
          "name": "_maturity",
          "type": "uint256"
        }
      ],
      "name": "getLendingMarket",
      "outputs": [
        {
          "internalType": "address",
          "name": "",
          "type": "address"
        }
      ],
      "stateMutability": "view",
      "type": "function"
    },
    {
      "inputs": [
        {
          "internalType": "bytes32",
          "name": "_ccy",
          "type": "bytes32"
        }
      ],
      "name": "getLendingMarkets",
      "outputs": [
        {
          "internalType": "address[]",
          "name": "",
          "type": "address[]"
        }
      ],
      "stateMutability": "view",
      "type": "function"
    },
    {
      "inputs": [
        {
          "internalType": "bytes32",
          "name": "_ccy",
          "type": "bytes32"
        }
      ],
      "name": "getMaturities",
      "outputs": [
        {
          "internalType": "uint256[]",
          "name": "",
          "type": "uint256[]"
        }
      ],
      "stateMutability": "view",
      "type": "function"
    },
    {
      "inputs": [
        {
          "internalType": "bytes32",
          "name": "_ccy",
          "type": "bytes32"
        }
      ],
      "name": "getMidUnitPrices",
      "outputs": [
        {
          "internalType": "uint256[]",
          "name": "",
          "type": "uint256[]"
        }
      ],
      "stateMutability": "view",
      "type": "function"
    },
    {
      "inputs": [
        {
          "internalType": "bytes32",
          "name": "_ccy",
          "type": "bytes32"
        },
        {
          "internalType": "uint256",
          "name": "_maturity",
          "type": "uint256"
        },
        {
          "internalType": "address",
          "name": "_user",
          "type": "address"
        }
      ],
      "name": "getPresentValue",
      "outputs": [
        {
          "internalType": "int256",
          "name": "presentValue",
          "type": "int256"
        }
      ],
      "stateMutability": "view",
      "type": "function"
    },
    {
      "inputs": [
        {
          "internalType": "bytes32",
          "name": "_ccy",
          "type": "bytes32"
        },
        {
          "internalType": "address",
          "name": "_user",
          "type": "address"
        }
      ],
      "name": "getTotalPresentValue",
      "outputs": [
        {
          "internalType": "int256",
          "name": "totalPresentValue",
          "type": "int256"
        }
      ],
      "stateMutability": "view",
      "type": "function"
    },
    {
      "inputs": [
        {
          "internalType": "address",
          "name": "_user",
          "type": "address"
        }
      ],
      "name": "getTotalPresentValueInETH",
      "outputs": [
        {
          "internalType": "int256",
          "name": "totalPresentValue",
          "type": "int256"
        }
      ],
      "stateMutability": "view",
      "type": "function"
    },
    {
      "inputs": [
        {
          "internalType": "address",
          "name": "_user",
          "type": "address"
        }
      ],
      "name": "getUsedCurrencies",
      "outputs": [
        {
          "internalType": "bytes32[]",
          "name": "",
          "type": "bytes32[]"
        }
      ],
      "stateMutability": "view",
      "type": "function"
    },
    {
      "inputs": [
        {
          "internalType": "address",
          "name": "_owner",
          "type": "address"
        },
        {
          "internalType": "address",
          "name": "_resolver",
          "type": "address"
        }
      ],
      "name": "initialize",
      "outputs": [],
      "stateMutability": "nonpayable",
      "type": "function"
    },
    {
      "inputs": [
        {
          "internalType": "bytes32",
          "name": "_ccy",
          "type": "bytes32"
        },
        {
          "internalType": "uint256",
          "name": "_genesisDate",
          "type": "uint256"
        },
        {
          "internalType": "uint256",
          "name": "_compoundFactor",
          "type": "uint256"
        }
      ],
      "name": "initializeLendingMarket",
      "outputs": [],
      "stateMutability": "nonpayable",
      "type": "function"
    },
    {
      "inputs": [
        {
          "internalType": "bytes32",
          "name": "_ccy",
          "type": "bytes32"
        }
      ],
      "name": "isInitializedLendingMarket",
      "outputs": [
        {
          "internalType": "bool",
          "name": "",
          "type": "bool"
        }
      ],
      "stateMutability": "view",
      "type": "function"
    },
    {
      "inputs": [],
      "name": "isResolverCached",
      "outputs": [
        {
          "internalType": "bool",
          "name": "",
          "type": "bool"
        }
      ],
      "stateMutability": "view",
      "type": "function"
    },
    {
      "inputs": [],
      "name": "owner",
      "outputs": [
        {
          "internalType": "address",
          "name": "",
          "type": "address"
        }
      ],
      "stateMutability": "view",
      "type": "function"
    },
    {
      "inputs": [
        {
          "internalType": "bytes32",
          "name": "_ccy",
          "type": "bytes32"
        }
      ],
      "name": "pauseLendingMarkets",
      "outputs": [
        {
          "internalType": "bool",
          "name": "",
          "type": "bool"
        }
      ],
      "stateMutability": "nonpayable",
      "type": "function"
    },
    {
      "inputs": [],
      "name": "renounceOwnership",
      "outputs": [],
      "stateMutability": "nonpayable",
      "type": "function"
    },
    {
      "inputs": [],
      "name": "requiredContracts",
      "outputs": [
        {
          "internalType": "bytes32[]",
          "name": "contracts",
          "type": "bytes32[]"
        }
      ],
      "stateMutability": "pure",
      "type": "function"
    },
    {
      "inputs": [],
      "name": "resolver",
      "outputs": [
        {
          "internalType": "contract IAddressResolver",
          "name": "",
          "type": "address"
        }
      ],
      "stateMutability": "view",
      "type": "function"
    },
    {
      "inputs": [
        {
          "internalType": "bytes32",
          "name": "_ccy",
          "type": "bytes32"
        }
      ],
      "name": "rotateLendingMarkets",
      "outputs": [],
      "stateMutability": "nonpayable",
      "type": "function"
    },
    {
      "inputs": [
        {
          "internalType": "address",
          "name": "newOwner",
          "type": "address"
        }
      ],
      "name": "transferOwnership",
      "outputs": [],
      "stateMutability": "nonpayable",
      "type": "function"
    },
    {
      "inputs": [
        {
          "internalType": "bytes32",
          "name": "_ccy",
          "type": "bytes32"
        }
      ],
      "name": "unpauseLendingMarkets",
      "outputs": [
        {
          "internalType": "bool",
          "name": "",
          "type": "bool"
        }
      ],
      "stateMutability": "nonpayable",
      "type": "function"
    }
  ],
  "transactionHash": "0x455eb79e8528734ea67833be7c3d9a58bc1e96741bcacac90efd2283342ef1ce",
  "args": [],
  "numDeployments": 2,
  "solcInputHash": "69b130e78db8f32a808b1ba202edac53",
  "bytecode": "0x608060405234801561001057600080fd5b50600160005561524f806100256000396000f3fe6080604052600436106102515760003560e01c80638a98174511610139578063e0997659116100b6578063eb092a261161007a578063eb092a261461078f578063ed6c9a97146107af578063f2fde38b146107cf578063faca409b146107ef578063fb54a6b31461080f578063fc7008101461082f57600080fd5b8063e0997659146106fa578063e219baef1461070f578063e906c1001461072f578063e95dc1831461074f578063e99d05381461076f57600080fd5b80639d3fc35d116100fd5780639d3fc35d1461063a578063a02be3dc1461065a578063a963ad7f1461067a578063b3cb8450146106ba578063bfd10cf6146106da57600080fd5b80638a981745146105b25780638b36d833146105d25780638b646f44146105f25780638da5cb5b14610605578063953dbcaa1461061a57600080fd5b80633d03b9da116101d25780635c347765116101965780635c347765146104ad578063715018a61461050257806373bb3b091461051757806385323e1a14610552578063870cf8ab14610572578063891d59651461059257600080fd5b80633d03b9da146103fe578063448255c714610420578063485cc9551461044057806349f2ccbf1461046057806355aceb4e1461048057600080fd5b80632af64bd3116102195780632af64bd3146103595780632e6c5e671461037e5780632e77aea71461039e578063371c672c146103be578063381ada1f146103d157600080fd5b80630312b5281461025657806304f3bcec146102b85780630594de6e146102e557806317b72ff41461031457806329985e5a14610342575b600080fd5b34801561026257600080fd5b5061027661027136600461474a565b61084f565b604080519889526020890197909752958701949094526060860192909252608085015260a084015260c0830152151560e0820152610100015b60405180910390f35b3480156102c457600080fd5b506102cd610904565b6040516001600160a01b0390911681526020016102af565b3480156102f157600080fd5b5061030561030036600461477f565b610925565b6040516102af939291906147e6565b34801561032057600080fd5b5061033461032f366004614829565b6109e4565b6040519081526020016102af565b34801561034e57600080fd5b50610357610a82565b005b34801561036557600080fd5b5061036e610c2f565b60405190151581526020016102af565b34801561038a57600080fd5b5061036e610399366004614859565b610d95565b3480156103aa57600080fd5b506103346103b9366004614872565b610db5565b61036e6103cc36600461477f565b610e5a565b3480156103dd57600080fd5b506103f16103ec366004614859565b610f10565b6040516102af91906148ab565b34801561040a57600080fd5b50610413610f85565b6040516102af91906148f8565b34801561042c57600080fd5b5061036e61043b36600461493d565b611079565b34801561044c57600080fd5b5061035761045b366004614986565b611190565b34801561046c57600080fd5b5061036e61047b3660046149b4565b611313565b34801561048c57600080fd5b506104a061049b366004614859565b6114ad565b6040516102af91906149ed565b3480156104b957600080fd5b506104cd6104c8366004614829565b611615565b604080519788526020880196909652948601939093526060850191909152608084015260a083015260c082015260e0016102af565b34801561050e57600080fd5b50610357611700565b34801561052357600080fd5b50610537610532366004614829565b61173b565b604080519384526020840192909252908201526060016102af565b34801561055e57600080fd5b506102cd61056d366004614a00565b6117e2565b34801561057e57600080fd5b5061035761058d366004614a22565b611844565b34801561059e57600080fd5b506103346105ad366004614859565b6118a3565b3480156105be57600080fd5b506102cd6105cd366004614a00565b6118c1565b3480156105de57600080fd5b506103576105ed366004614859565b6118f3565b61036e61060036600461477f565b611e0d565b34801561061157600080fd5b506102cd611eff565b34801561062657600080fd5b5061030561063536600461477f565b611f27565b34801561064657600080fd5b50610537610655366004614829565b611f86565b34801561066657600080fd5b506104a0610675366004614859565b611fd4565b34801561068657600080fd5b5061069a610695366004614859565b612135565b604080516001600160a01b039384168152929091166020830152016102af565b3480156106c657600080fd5b5061036e6106d5366004614859565b612690565b3480156106e657600080fd5b506104a06106f5366004614859565b612790565b34801561070657600080fd5b506104136128f1565b34801561071b57600080fd5b5061035761072a36600461477f565b612934565b34801561073b57600080fd5b5061033461074a366004614872565b612a92565b34801561075b57600080fd5b5061033461076a366004614829565b612ae3565b34801561077b57600080fd5b5061036e61078a366004614859565b612ca7565b34801561079b57600080fd5b506104a06107aa366004614859565b612d9c565b3480156107bb57600080fd5b5061036e6107ca366004614a46565b612efd565b3480156107db57600080fd5b506103576107ea366004614a22565b6130bf565b3480156107fb57600080fd5b5061036e61080a36600461493d565b61315f565b34801561081b57600080fd5b5061033461082a366004614a22565b6131e7565b34801561083b57600080fd5b5061041361084a366004614a22565b613378565b6000806000806000806000807349C6163162086371c4De2f826454Ceba77fA4607630312b5288c8c8c6040518463ffffffff1660e01b815260040161089693929190614aac565b6101006040518083038186803b1580156108af57600080fd5b505af41580156108c3573d6000803e3d6000fd5b505050506040513d601f19601f820116820180604052508101906108e79190614add565b975097509750975097509750975097509397509397509397509397565b60006000805160206151fa8339815191525b546001600160a01b0316919050565b606080606060006109346133a6565b600088815260029190910160209081526040808320898452909152908190205490516325fb168b60e11b8152600481018790526001600160a01b0390911691508190634bf62d16906024015b60006040518083038186803b15801561099857600080fd5b505afa1580156109ac573d6000803e3d6000fd5b505050506040513d6000823e601f3d908101601f191682016040526109d49190810190614bf4565b9350935093505093509350939050565b6040516385f3396760e01b8152600481018390526001600160a01b03821660248201526000907349C6163162086371c4De2f826454Ceba77fA4607906385f339679060440160206040518083038186803b158015610a4157600080fd5b505af4158015610a55573d6000803e3d6000fd5b505050506040513d601f19601f82011682018060405250810190610a799190614c7c565b90505b92915050565b6000610a8c610f85565b905060005b8151811015610c2b576000828281518110610aae57610aae614c95565b602002602001015190506000610acf6000805160206151fa83398151915290565b54604080517f5265736f6c766572206d697373696e67207461726765743a200000000000000060208201526039808201869052825180830390910181526059820192839052636795dbcd60e01b9092526001600160a01b0390921691636795dbcd91610b4091869190605d01614cf8565b60206040518083038186803b158015610b5857600080fd5b505afa158015610b6c573d6000803e3d6000fd5b505050506040513d601f19601f82011682018060405250810190610b909190614d11565b60008381527f4abde63c3e81aefa5764b017968bc473e83e093d7e1a10247d19e0a3e4124019602090815260409182902080546001600160a01b0319166001600160a01b03851690811790915582518681529182015281519293507f88a93678a3692f6789d9546fc621bf7234b101ddb7d4fe479455112831b8aa68929081900390910190a150508080610c2390614d44565b915050610a91565b5050565b600080610c3a610f85565b905060005b8151811015610d8c576000828281518110610c5c57610c5c614c95565b60200260200101519050610c7b6000805160206151fa83398151915290565b600082815260019190910160205260409020546001600160a01b03166000805160206151fa833981519152546040516321f8a72160e01b8152600481018490526001600160a01b03909116906321f8a7219060240160206040518083038186803b158015610ce857600080fd5b505afa158015610cfc573d6000803e3d6000fd5b505050506040513d601f19601f82011682018060405250810190610d209190614d11565b6001600160a01b0316141580610d6a575060008181527f4abde63c3e81aefa5764b017968bc473e83e093d7e1a10247d19e0a3e412401960205260409020546001600160a01b0316155b15610d79576000935050505090565b5080610d8481614d44565b915050610c3f565b50600191505090565b6000610d9f6133a6565b6000928352600301602052506040902054151590565b6040516371eb435360e01b815260048101849052602481018390526001600160a01b03821660448201526000907349C6163162086371c4De2f826454Ceba77fA4607906371eb4353906064015b60206040518083038186803b158015610e1a57600080fd5b505af4158015610e2e573d6000803e3d6000fd5b505050506040513d601f19601f82011682018060405250810190610e529190614c7c565b949350505050565b600060026000541415610e885760405162461bcd60e51b8152600401610e7f90614d5f565b60405180910390fd5b6002600090815584908490610e9b6133a6565b6000848152600291909101602090815260408083208584529091529020546001600160a01b03161415610ee05760405162461bcd60e51b8152600401610e7f90614d96565b610eeb8686336133ca565b50610efd868633600034896000613560565b5060019250505060016000559392505050565b6060610f1a6133a6565b6000838152602091825260409081902080548251818502810185019093528083529192909190830182828015610f7957602002820191906000526020600020905b81546001600160a01b03168152600190910190602001808311610f5b575b50505050509050919050565b60408051600480825260a0820190925260609160208201608080368337019050509050742132b0b1b7b7283937bc3ca1b7b73a3937b63632b960591b81600081518110610fd457610fd4614c95565b6020026020010181815250507121bab93932b731bca1b7b73a3937b63632b960711b8160018151811061100957611009614c95565b6020026020010181815250507011d95b995cda5cd5985b1d5955985d5b1d607a1b8160028151811061103d5761103d614c95565b60200260200101818152505069151bdad95b95985d5b1d60b21b8160038151811061106a5761106a614c95565b60200260200101818152505090565b60006002600054141561109e5760405162461bcd60e51b8152600401610e7f90614d5f565b60026000908155869086906110b16133a6565b6000848152600291909101602090815260408083208584529091529020546001600160a01b031614156110f65760405162461bcd60e51b8152600401610e7f90614d96565b6110fe613ae5565b6001600160a01b03166396994e37338a886040518463ffffffff1660e01b815260040161112d93929190614aac565b600060405180830381600087803b15801561114757600080fd5b505af115801561115b573d6000803e3d6000fd5b5050505061116a8888336133ca565b5061117b8888338989896000613560565b50600192505050600160005595945050505050565b600154610100900460ff16158080156111ad57506001805460ff16105b806111c65750303b1580156111c657506001805460ff16145b6112295760405162461bcd60e51b815260206004820152602e60248201527f496e697469616c697a61626c653a20636f6e747261637420697320616c72656160448201526d191e481a5b9a5d1a585b1a5e995960921b6064820152608401610e7f565b6001805460ff191681179055801561124b576001805461ff0019166101001790555b6000611255613af4565b6001600160a01b031614156112b75760405162461bcd60e51b815260206004820152602260248201527f4d7573742062652063616c6c65642066726f6d2070726f787920636f6e74726160448201526118dd60f21b6064820152608401610e7f565b6112c083613b1c565b6112c982613b8d565b801561130e576001805461ff00191681556040519081527f7f26b83ff96e1f2b6a682f133852f6798a09c465da95921460cefb38474024989060200160405180910390a15b505050565b6000600260005414156113385760405162461bcd60e51b8152600401610e7f90614d5f565b600260009081558490849061134b6133a6565b6000848152600291909101602090815260408083208584529091529020546001600160a01b031614156113905760405162461bcd60e51b8152600401610e7f90614d96565b600061139a6133a6565b60008881526002919091016020908152604080832089845290915280822054905163504b89bd60e01b815233600482015265ffffffffffff881660248201526001600160a01b03909116925081908190849063504b89bd90604401606060405180830381600087803b15801561140f57600080fd5b505af1158015611423573d6000803e3d6000fd5b505050506040513d601f19601f820116820180604052508101906114479190614dc0565b92509250925089336001600160a01b03167f882188071c39e32cd4ffd0cef7a006a29eaae9e4018d72cef313a0f4686cdb918a868d878760405161148f959493929190614e2f565b60405180910390a36001965050505050505060016000559392505050565b606060006114b96133a6565b6000848152602091909152604090205467ffffffffffffffff8111156114e1576114e1614b43565b60405190808252806020026020018201604052801561150a578160200160208202803683370190505b50905060005b6115186133a6565b6000858152602091909152604090205481101561160e5760006115396133a6565b60008681526020919091526040902080548390811061155a5761155a614c95565b6000918252602091829020015460408051631b3508b760e01b815290516001600160a01b0390921693508392631b3508b792600480840193829003018186803b1580156115a657600080fd5b505afa1580156115ba573d6000803e3d6000fd5b505050506040513d601f19601f820116820180604052508101906115de9190614c7c565b8383815181106115f0576115f0614c95565b6020908102919091010152508061160681614d44565b915050611510565b5092915050565b600080600080600080600061164e8961162c6133a6565b6001600160a01b038b1660009081526004919091016020526040902090613c22565b156116f457604051635c34776560e01b8152600481018a90526001600160a01b03891660248201527349C6163162086371c4De2f826454Ceba77fA460790635c3477659060440160e06040518083038186803b1580156116ad57600080fd5b505af41580156116c1573d6000803e3d6000fd5b505050506040513d601f19601f820116820180604052508101906116e59190614e67565b96509650965096509650965096505b92959891949750929550565b33611709611eff565b6001600160a01b03161461172f5760405162461bcd60e51b8152600401610e7f90614ebb565b6117396000613b1c565b565b6040516373bb3b0960e01b8152600481018390526001600160a01b0382166024820152600090819081907349C6163162086371c4De2f826454Ceba77fA4607906373bb3b09906044015b60606040518083038186803b15801561179d57600080fd5b505af41580156117b1573d6000803e3d6000fd5b505050506040513d601f19601f820116820180604052508101906117d59190614ef0565b9250925092509250925092565b60006117ec6133a6565b600084815260019190910160205260408120906118076133a6565b600095865260020160209081526040808720958752948152848620546001600160a01b039081168352908201929092529092019092205416919050565b600061184e6133a6565b6001600160a01b03831660009081526004919091016020526040812091505b61187682613c3a565b81101561130e5761189061188a8383613c44565b84612ae3565b508061189b81614d44565b91505061186d565b60006118ad6133a6565b600092835260030160205250604090205490565b60006118cb6133a6565b600093845260020160209081526040808520938552929052509020546001600160a01b031690565b600260005414156119165760405162461bcd60e51b8152600401610e7f90614d5f565b6002600090815581906119276133a6565b600083815260209190915260409020541161199d5760405162461bcd60e51b815260206004820152603060248201527f4e6f206c656e64696e67206d61726b65747320657869737420666f722061207360448201526f706563696669632063757272656e637960801b6064820152608401610e7f565b60006119a76133a6565b6000848152602091909152604081208054909250829082906119cb576119cb614c95565b600091825260208220015483546001600160a01b039091169250839060019081106119f8576119f8614c95565b600091825260208220015484546001600160a01b039091169250611abc908590611a2490600190614f1e565b81548110611a3457611a34614c95565b600091825260209182902001546040805163e16695b560e01b815290516001600160a01b039092169263e16695b592600480840193829003018186803b158015611a7d57600080fd5b505afa158015611a91573d6000803e3d6000fd5b505050506040513d601f19601f82011682018060405250810190611ab59190614c7c565b6003613c50565b60405163baa2675760e01b8152600481018290529091506000906001600160a01b0385169063baa2675790602401602060405180830381600087803b158015611b0457600080fd5b505af1158015611b18573d6000803e3d6000fd5b505050506040513d601f19601f82011682018060405250810190611b3c9190614c7c565b905060005b8554811015611beb5785546000908290611b5d90600190614f1e565b14611b985786611b6e836001614f35565b81548110611b7e57611b7e614c95565b6000918252602090912001546001600160a01b0316611b9a565b855b905080878381548110611baf57611baf614c95565b600091825260209091200180546001600160a01b0319166001600160a01b03929092169190911790555080611be381614d44565b915050611b41565b50611bf4613d1d565b6001600160a01b031663b95a33ab8883866001600160a01b031663e16695b56040518163ffffffff1660e01b815260040160206040518083038186803b158015611c3d57600080fd5b505afa158015611c51573d6000803e3d6000fd5b505050506040513d601f19601f82011682018060405250810190611c759190614c7c565b876001600160a01b03166371613c2d6040518163ffffffff1660e01b815260040160206040518083038186803b158015611cae57600080fd5b505afa158015611cc2573d6000803e3d6000fd5b505050506040513d601f19601f82011682018060405250810190611ce69190614c7c565b6040516001600160e01b031960e087901b1681526004810194909452602484019290925260448301526064820152608401600060405180830381600087803b158015611d3157600080fd5b505af1158015611d45573d6000803e3d6000fd5b5050505083611d526133a6565b600089815260029190910160209081526040808320868452909152902080546001600160a01b0319166001600160a01b0392909216919091179055611d956133a6565b60008881526002919091016020908152604080832084845282529182902080546001600160a01b031916905581518981529081018390529081018390527f98cbd76ce00c88aafa668f8d8ee624506fdfd22fc473f74ea1b75addf544c2209060600160405180910390a1505060016000555050505050565b600060026000541415611e325760405162461bcd60e51b8152600401610e7f90614d5f565b6002600090815584908490611e456133a6565b6000848152600291909101602090815260408083208584529091529020546001600160a01b03161415611e8a5760405162461bcd60e51b8152600401610e7f90614d96565b611e92613ae5565b6001600160a01b03166396994e37343389346040518563ffffffff1660e01b8152600401611ec293929190614aac565b6000604051808303818588803b158015611edb57600080fd5b505af1158015611eef573d6000803e3d6000fd5b5050505050610eeb8686336133ca565b60007f9acda75aebd150dd434541a4747a6dc606f4f1a59662477e67daf1fc0bf9e0aa610916565b60608060606000611f366133a6565b6000888152600291909101602090815260408083208984529091529081902054905163d866d35560e01b8152600481018790526001600160a01b039091169150819063d866d35590602401610980565b604051639d3fc35d60e01b8152600481018390526001600160a01b0382166024820152600090819081907349C6163162086371c4De2f826454Ceba77fA460790639d3fc35d90604401611785565b60606000611fe06133a6565b6000848152602091909152604090205467ffffffffffffffff81111561200857612008614b43565b604051908082528060200260200182016040528015612031578160200160208202803683370190505b50905060005b61203f6133a6565b6000858152602091909152604090205481101561160e5760006120606133a6565b60008681526020919091526040902080548390811061208157612081614c95565b600091825260209182902001546040805163e16695b560e01b815290516001600160a01b039092169350839263e16695b592600480840193829003018186803b1580156120cd57600080fd5b505afa1580156120e1573d6000803e3d6000fd5b505050506040513d601f19601f820116820180604052508101906121059190614c7c565b83838151811061211757612117614c95565b6020908102919091010152508061212d81614d44565b915050612037565b60008033612141611eff565b6001600160a01b0316146121675760405162461bcd60e51b8152600401610e7f90614ebb565b61216f613d1d565b6001600160a01b031663f7b637bb846040518263ffffffff1660e01b815260040161219c91815260200190565b60206040518083038186803b1580156121b457600080fd5b505afa1580156121c8573d6000803e3d6000fd5b505050506040513d601f19601f820116820180604052508101906121ec9190614f4d565b6122575760405162461bcd60e51b815260206004820152603660248201527f4c656e64696e67206d61726b6574206861736e2774206265656e20696e697469604482015275616c697a656420696e207468652063757272656e637960501b6064820152608401610e7f565b61225f613d27565b6001600160a01b0316631eae0893846040518263ffffffff1660e01b815260040161228c91815260200190565b60206040518083038186803b1580156122a457600080fd5b505afa1580156122b8573d6000803e3d6000fd5b505050506040513d601f19601f820116820180604052508101906122dc9190614f4d565b6123215760405162461bcd60e51b81526020600482015260166024820152754e6f6e20737570706f727465642063757272656e637960501b6044820152606401610e7f565b600061232b6133a6565b6000858152600391909101602052604081205491506123486133a6565b60008681526020919091526040902054111561242d576123666133a6565b600085815260209190915260409020600161237f6133a6565b600087815260209190915260409020546123999190614f1e565b815481106123a9576123a9614c95565b600091825260209182902001546040805163e16695b560e01b815290516001600160a01b039092169263e16695b592600480840193829003018186803b1580156123f257600080fd5b505afa158015612406573d6000803e3d6000fd5b505050506040513d601f19601f8201168201806040525081019061242a9190614c7c565b90505b600061243a826003613c50565b9050612444613d31565b6001600160a01b0316634672758f8661245b6133a6565b60008981526003919091016020526040908190205490516001600160e01b031960e085901b1681526004810192909252602482015260448101849052606401602060405180830381600087803b1580156124b457600080fd5b505af11580156124c8573d6000803e3d6000fd5b505050506040513d601f19601f820116820180604052508101906124ec9190614d11565b93506124f6613d31565b6001600160a01b031663a97c4b536040518163ffffffff1660e01b8152600401602060405180830381600087803b15801561253057600080fd5b505af1158015612544573d6000803e3d6000fd5b505050506040513d601f19601f820116820180604052508101906125689190614d11565b92506125726133a6565b600086815260209182526040812080546001810182559082529190200180546001600160a01b0319166001600160a01b038616179055836125b16133a6565b600087815260029190910160209081526040808320858452909152902080546001600160a01b0319166001600160a01b0392909216919091179055826125f56133a6565b6000878152600191909101602090815260408083206001600160a01b0389811680865291909352922080546001600160a01b0319169390911692909217909155857f5f1af77fb16a8d70e13dc1d6eef0f7b3f37103d1bfc348e1e57469c718646543856126606133a6565b60008a81526020919091526040908190205490516126819291908790614aac565b60405180910390a35050915091565b60003361269b611eff565b6001600160a01b0316146126c15760405162461bcd60e51b8152600401610e7f90614ebb565b60005b6126cc6133a6565b600084815260209190915260409020548110156127855760006126ed6133a6565b60008581526020919091526040902080548390811061270e5761270e614c95565b60009182526020822001546040805163280dce3760e21b815290516001600160a01b039092169350839263a03738dc9260048084019382900301818387803b15801561275957600080fd5b505af115801561276d573d6000803e3d6000fd5b5050505050808061277d90614d44565b9150506126c4565b50600190505b919050565b6060600061279c6133a6565b6000848152602091909152604090205467ffffffffffffffff8111156127c4576127c4614b43565b6040519080825280602002602001820160405280156127ed578160200160208202803683370190505b50905060005b6127fb6133a6565b6000858152602091909152604090205481101561160e57600061281c6133a6565b60008681526020919091526040902080548390811061283d5761283d614c95565b60009182526020918290200154604080516371613c2d60e01b815290516001600160a01b03909216935083926371613c2d92600480840193829003018186803b15801561288957600080fd5b505afa15801561289d573d6000803e3d6000fd5b505050506040513d601f19601f820116820180604052508101906128c19190614c7c565b8383815181106128d3576128d3614c95565b602090810291909101015250806128e981614d44565b9150506127f3565b6040805160018082528183019092526060916020808301908036833701905050905069151bdad95b95985d5b1d60b21b8160008151811061106a5761106a614c95565b3361293d611eff565b6001600160a01b0316146129635760405162461bcd60e51b8152600401610e7f90614ebb565b600081116129b35760405162461bcd60e51b815260206004820152601760248201527f496e76616c696420636f6d706f756e6420666163746f720000000000000000006044820152606401610e7f565b6129bc83610d95565b156129ff5760405162461bcd60e51b8152602060048201526013602482015272105b1c9958591e481a5b9a5d1a585b1a5e9959606a1b6044820152606401610e7f565b612a07613d1d565b60405163c8b0f67360e01b81526004810185905260126024820152604481018390526001600160a01b03919091169063c8b0f67390606401600060405180830381600087803b158015612a5957600080fd5b505af1158015612a6d573d6000803e3d6000fd5b5050505081612a7a6133a6565b60009485526003016020526040909320929092555050565b604051637dfeb45160e01b815260048101849052602481018390526001600160a01b03821660448201526000907349C6163162086371c4De2f826454Ceba77fA460790637dfeb45190606401610e02565b600080612aee6133a6565b6001600160a01b0384166000908152600491909101602052604090209050612b168185613c22565b612b24576000915050610a7c565b600080612b3086611fd4565b905060005b8151811015612bc9576000612b6488848481518110612b5657612b56614c95565b6020026020010151896133ca565b9050600080612b8d8a868681518110612b7f57612b7f614c95565b60200260200101518b613d3b565b9092509050612b9c8289614f35565b975082151580612ba95750805b15612bb357600195505b5050508080612bc190614d44565b915050612b35565b5083158015612bd6575081155b8015612c695750612be5613d1d565b60405163386320d360e11b8152600481018890526001600160a01b03878116602483015291909116906370c641a69060440160206040518083038186803b158015612c2f57600080fd5b505afa158015612c43573d6000803e3d6000fd5b505050506040513d601f19601f82011682018060405250810190612c679190614c7c565b155b15612c9e57612c9c86612c7a6133a6565b6001600160a01b038816600090815260049190910160205260409020906140cd565b505b50505092915050565b600033612cb2611eff565b6001600160a01b031614612cd85760405162461bcd60e51b8152600401610e7f90614ebb565b60005b612ce36133a6565b60008481526020919091526040902054811015612785576000612d046133a6565b600085815260209190915260409020805483908110612d2557612d25614c95565b600091825260208220015460408051630b0863e760e11b815290516001600160a01b0390921693508392631610c7ce9260048084019382900301818387803b158015612d7057600080fd5b505af1158015612d84573d6000803e3d6000fd5b50505050508080612d9490614d44565b915050612cdb565b60606000612da86133a6565b6000848152602091909152604090205467ffffffffffffffff811115612dd057612dd0614b43565b604051908082528060200260200182016040528015612df9578160200160208202803683370190505b50905060005b612e076133a6565b6000858152602091909152604090205481101561160e576000612e286133a6565b600086815260209190915260409020805483908110612e4957612e49614c95565b6000918252602091829020015460408051632f05aa6d60e11b815290516001600160a01b0390921693508392635e0b54da92600480840193829003018186803b158015612e9557600080fd5b505afa158015612ea9573d6000803e3d6000fd5b505050506040513d601f19601f82011682018060405250810190612ecd9190614c7c565b838381518110612edf57612edf614c95565b60209081029190910101525080612ef581614d44565b915050612dff565b600060026000541415612f225760405162461bcd60e51b8152600401610e7f90614d5f565b6002600090815586908690612f356133a6565b6000848152600291909101602090815260408083208584529091529020546001600160a01b03161415612f7a5760405162461bcd60e51b8152600401610e7f90614d96565b612f848886612ae3565b50604051636bc806e760e11b8152600481018a90526024810189905260448101889052606481018790526001600160a01b038616608482015262ffffff851660a48201526000907349C6163162086371c4De2f826454Ceba77fA46079063d7900dce9060c40160206040518083038186803b15801561300257600080fd5b505af4158015613016573d6000803e3d6000fd5b505050506040513d601f19601f8201168201806040525081019061303a9190614c7c565b905061304e89898860008560006001613560565b508789876001600160a01b03167f2aa75186e5dc6215fe9b34c1bbcf001827defa52de1574957eb71fbf5c920b8a8d85604051613095929190918252602082015260400190565b60405180910390a46130a88989886133ca565b506001935050505060016000559695505050505050565b336130c8611eff565b6001600160a01b0316146130ee5760405162461bcd60e51b8152600401610e7f90614ebb565b6001600160a01b0381166131535760405162461bcd60e51b815260206004820152602660248201527f4f776e61626c653a206e6577206f776e657220697320746865207a65726f206160448201526564647265737360d01b6064820152608401610e7f565b61315c81613b1c565b50565b6000600260005414156131845760405162461bcd60e51b8152600401610e7f90614d5f565b60026000908155869086906131976133a6565b6000848152600291909101602090815260408083208584529091529020546001600160a01b031614156131dc5760405162461bcd60e51b8152600401610e7f90614d96565b61116a8888336133ca565b6000806131f26133a6565b6001600160a01b03841660009081526004919091016020526040812091505b61321a82613c3a565b81101561337157600061322d8383613c44565b6040516385f3396760e01b8152600481018290526001600160a01b03871660248201529091506000907349C6163162086371c4De2f826454Ceba77fA4607906385f339679060440160206040518083038186803b15801561328d57600080fd5b505af41580156132a1573d6000803e3d6000fd5b505050506040513d601f19601f820116820180604052508101906132c59190614c7c565b90506132cf613d27565b6040516303a0a22f60e41b815260048101849052602481018390526001600160a01b039190911690633a0a22f09060440160206040518083038186803b15801561331857600080fd5b505afa15801561332c573d6000803e3d6000fd5b505050506040513d601f19601f820116820180604052508101906133509190614c7c565b61335a9086614f68565b94505050808061336990614d44565b915050613211565b5050919050565b6060610a7c6133856133a6565b6001600160a01b0384166000908152600491909101602052604090206140d9565b7f8041b8421ebd495cc61f38c788c9eb100daccf9bd36aa0bb920b7a15b2e0496590565b6000806133d56133a6565b600086815260019190910160205260408120906133f06133a6565b6000888152600291909101602090815260408083208984528252808320546001600160a01b03908116855291840194909452918301812054925163ae100e6d60e01b81528683166004820152602481018890529290911692509081908190849063ae100e6d90604401606060405180830381600087803b15801561347357600080fd5b505af1158015613487573d6000803e3d6000fd5b505050506040513d601f19601f820116820180604052508101906134ab9190614ef0565b92509250925082600014613555576134c1613d1d565b604051634ab34b2b60e11b8152600481018a90526001600160a01b03888116602483015260448201849052606482018690529190911690639566965690608401602060405180830381600087803b15801561351b57600080fd5b505af115801561352f573d6000803e3d6000fd5b505050506040513d601f19601f820116820180604052508101906135539190614f4d565b505b509695505050505050565b60008084116135a25760405162461bcd60e51b815260206004820152600e60248201526d125b9d985b1a5908185b5bdd5b9d60921b6044820152606401610e7f565b60006135ae8988612ae3565b905082613682576135bd613ae5565b6001600160a01b03166328ff7a42888b888a6040518563ffffffff1660e01b81526004016135ee9493929190614fa9565b60206040518083038186803b15801561360657600080fd5b505afa15801561361a573d6000803e3d6000fd5b505050506040513d601f19601f8201168201806040525081019061363e9190614f4d565b6136825760405162461bcd60e51b8152602060048201526015602482015274139bdd08195b9bdd59da0818dbdb1b185d195c985b605a1b6044820152606401610e7f565b60008061368d6133a6565b60008c8152600291909101602090815260408083208d845290915290819020549051633352870560e21b81526001600160a01b039091169063cd4a1c14906136e1908b908d908c908c908c90600401614fdd565b6040805180830381600087803b1580156136fa57600080fd5b505af115801561370e573d6000803e3d6000fd5b505050506040513d601f19601f820116820180604052508101906137329190615019565b91509150846137a5578115806137485750600081115b1561375b57613758600184614f35565b92505b60148311156137a55760405162461bcd60e51b8152602060048201526016602482015275546f6f206d616e7920616374697665206f726465727360501b6044820152606401610e7f565b8115613aa85760006137b56133a6565b60008d815260019190910160205260408120906137d06133a6565b60020160008f815260200190815260200160002060008e815260200190815260200160002060009054906101000a90046001600160a01b03166001600160a01b03166001600160a01b0316815260200190815260200160002060009054906101000a90046001600160a01b0316905060018081111561385157613851614df7565b89600181111561386357613863614df7565b141561396357613871613ae5565b6001600160a01b0316634ba0c9b58b8e61388b868d614f1e565b6040518463ffffffff1660e01b81526004016138a993929190614aac565b600060405180830381600087803b1580156138c357600080fd5b505af11580156138d7573d6000803e3d6000fd5b50505050806001600160a01b031663a46971ad8b858e6040518463ffffffff1660e01b815260040161390b93929190614aac565b602060405180830381600087803b15801561392557600080fd5b505af1158015613939573d6000803e3d6000fd5b505050506040513d601f19601f8201168201806040525081019061395d9190614f4d565b50613a59565b61396b613ae5565b6001600160a01b031663fb7bd3b48b8e613985868d614f1e565b6040518463ffffffff1660e01b81526004016139a393929190614aac565b600060405180830381600087803b1580156139bd57600080fd5b505af11580156139d1573d6000803e3d6000fd5b50505050806001600160a01b03166308482e5e8b858e6040518463ffffffff1660e01b8152600401613a0593929190614aac565b602060405180830381600087803b158015613a1f57600080fd5b505af1158015613a33573d6000803e3d6000fd5b505050506040513d601f19601f82011682018060405250810190613a579190614f4d565b505b8a8c8b6001600160a01b03167f5af4e2baa5d844d0439bc0122be7cf9d47b6680937eaabce58bd1ca2f16486ae8c8c8c89604051613a9a949392919061503d565b60405180910390a460019450505b613ad68b613ab46133a6565b6001600160a01b038c16600090815260049190910160205260409020906140e4565b50505050979650505050505050565b6000613aef6140f0565b905090565b60007f360894a13ba1a3210667c828492db98dca3e2076cc3735a920a3ca505d382bbc610916565b7f9acda75aebd150dd434541a4747a6dc606f4f1a59662477e67daf1fc0bf9e0aa80546001600160a01b038381166001600160a01b0319831681179093556040519116919082907f8be0079c531659141344cd1fd0a4f28419497f9722a3daafe3b4186f6b6457e090600090a35050565b6000805160206151fa833981519152546001600160a01b031615613bf35760405162461bcd60e51b815260206004820152601b60248201527f7265736f6c766572207265676973746572656420616c726561647900000000006044820152606401610e7f565b6000805160206151fa83398151915280546001600160a01b0319166001600160a01b0392909216919091179055565b60008181526001830160205260408120541515610a79565b6000610a7c825490565b6000610a798383614108565b6000808080613c6a613c65620151808861507c565b614132565b91945092509050613c7b8583614f35565b9150600c613c8a600184614f1e565b613c94919061507c565b613c9e9084614f35565b9250600c613cad600184614f1e565b613cb79190615090565b613cc2906001614f35565b91506000613cd084846142a6565b905080821115613cde578091505b613ceb6201518088615090565b62015180613cfa86868661432c565b613d0491906150a4565b613d0e9190614f35565b945086851015612c9c57600080fd5b6000613aef614469565b6000613aef614488565b6000613aef6144a8565b6000806000613d4a86866117e2565b90506000806000806000806000613d5f6133a6565b60008e8152600291909101602090815260408083208f845290915290819020549051630516d8c960e11b81526001600160a01b038d8116600483015290911690630a2db1929060240160e060405180830381600087803b158015613dc257600080fd5b505af1158015613dd6573d6000803e3d6000fd5b505050506040513d601f19601f82011682018060405250810190613dfa9190614e67565b965096509650965096509650965081831115613e8757613e18613ae5565b6001600160a01b031663fb7bd3b48c8f613e328688614f1e565b6040518463ffffffff1660e01b8152600401613e5093929190614aac565b600060405180830381600087803b158015613e6a57600080fd5b505af1158015613e7e573d6000803e3d6000fd5b50505050613f02565b81831015613f0257613e97613ae5565b6001600160a01b0316634ba0c9b58c8f613eb18787614f1e565b6040518463ffffffff1660e01b8152600401613ecf93929190614aac565b600060405180830381600087803b158015613ee957600080fd5b505af1158015613efd573d6000803e3d6000fd5b505050505b8415613fd257604051630424172f60e11b81526001600160a01b038916906308482e5e90613f38908e9089908690600401614aac565b602060405180830381600087803b158015613f5257600080fd5b505af1158015613f66573d6000803e3d6000fd5b505050506040513d601f19601f82011682018060405250810190613f8a9190614f4d565b50808d8c6001600160a01b03167f3dd6192fffa4612e795f196dc6367cfa6494cbe70d7cff3a039ebbbc4acb262e600089604051613fc99291906150c3565b60405180910390a45b83156140a25760405163a46971ad60e01b81526001600160a01b0389169063a46971ad90614008908e9088908690600401614aac565b602060405180830381600087803b15801561402257600080fd5b505af1158015614036573d6000803e3d6000fd5b505050506040513d601f19601f8201168201806040525081019061405a9190614f4d565b50808d8c6001600160a01b03167f3dd6192fffa4612e795f196dc6367cfa6494cbe70d7cff3a039ebbbc4acb262e6001886040516140999291906150c3565b60405180910390a45b60006140ae8587614f35565b1198506140bb8688614f35565b99505050505050505050935093915050565b6000610a7983836144cb565b6060610a7c826145be565b6000610a798383614619565b6000613aef69151bdad95b95985d5b1d60b21b614668565b600082600001828154811061411f5761411f614c95565b9060005260206000200154905092915050565b60008080838162253d8c6141498362010bd9614f68565b6141539190614f68565b9050600062023ab16141668360046150de565b6141709190615163565b905060046141818262023ab16150de565b61418c906003614f68565b6141969190615163565b6141a09083615191565b9150600062164b096141b3846001614f68565b6141bf90610fa06150de565b6141c99190615163565b905060046141d9826105b56150de565b6141e39190615163565b6141ed9084615191565b6141f890601f614f68565b9250600061098f61420a8560506150de565b6142149190615163565b9050600060506142268361098f6150de565b6142309190615163565b61423a9086615191565b9050614247600b83615163565b945061425485600c6150de565b61425f836002614f68565b6142699190615191565b91508483614278603187615191565b6142839060646150de565b61428d9190614f68565b6142979190614f68565b9a919950975095505050505050565b600081600114806142b75750816003145b806142c25750816005145b806142cd5750816007145b806142d85750816008145b806142e3575081600a145b806142ee575081600c145b156142fb5750601f610a7c565b8160021461430b5750601e610a7c565b614314836146f9565b61431f57601c614322565b601d5b60ff169392505050565b60006107b284101561433d57600080fd5b838383600062253d8c60046064600c614357600e88615191565b6143619190615163565b61436d88611324614f68565b6143779190614f68565b6143819190615163565b61438c9060036150de565b6143969190615163565b600c806143a4600e88615191565b6143ae9190615163565b6143b990600c6150de565b6143c4600288615191565b6143ce9190615191565b6143da9061016f6150de565b6143e49190615163565b6004600c6143f3600e89615191565b6143fd9190615163565b614409896112c0614f68565b6144139190614f68565b61441f906105b56150de565b6144299190615163565b614435617d4b87615191565b61443f9190614f68565b6144499190614f68565b6144539190615191565b61445d9190615191565b98975050505050505050565b6000613aef7011d95b995cda5cd5985b1d5955985d5b1d607a1b614668565b6000613aef7121bab93932b731bca1b7b73a3937b63632b960711b614668565b6000613aef742132b0b1b7b7283937bc3ca1b7b73a3937b63632b960591b614668565b600081815260018301602052604081205480156145b45760006144ef600183614f1e565b855490915060009061450390600190614f1e565b905081811461456857600086600001828154811061452357614523614c95565b906000526020600020015490508087600001848154811061454657614546614c95565b6000918252602080832090910192909255918252600188019052604090208390555b8554869080614579576145796151d0565b600190038181906000526020600020016000905590558560010160008681526020019081526020016000206000905560019350505050610a7c565b6000915050610a7c565b606081600001805480602002602001604051908101604052809291908181526020018280548015610f7957602002820191906000526020600020905b8154815260200190600101908083116145fa5750505050509050919050565b600081815260018301602052604081205461466057508154600181810184556000848152602080822090930184905584548482528286019093526040902091909155610a7c565b506000610a7c565b60008181527f4abde63c3e81aefa5764b017968bc473e83e093d7e1a10247d19e0a3e41240196020908152604080832054815170026b4b9b9b4b7339030b2323932b9b99d1607d1b9381019390935260318084018690528251808503909101815260519093019091526001600160a01b0316908161160e5760405162461bcd60e51b8152600401610e7f91906151e6565b6000614706600483615090565b15801561471c5750614719606483615090565b15155b80610a7c575061472e61019083615090565b1592915050565b6001600160a01b038116811461315c57600080fd5b60008060006060848603121561475f57600080fd5b833561476a81614735565b95602085013595506040909401359392505050565b60008060006060848603121561479457600080fd5b505081359360208301359350604090920135919050565b600081518084526020808501945080840160005b838110156147db578151875295820195908201906001016147bf565b509495945050505050565b6060815260006147f960608301866147ab565b828103602084015261480b81866147ab565b9050828103604084015261481f81856147ab565b9695505050505050565b6000806040838503121561483c57600080fd5b82359150602083013561484e81614735565b809150509250929050565b60006020828403121561486b57600080fd5b5035919050565b60008060006060848603121561488757600080fd5b833592506020840135915060408401356148a081614735565b809150509250925092565b6020808252825182820181905260009190848201906040850190845b818110156148ec5783516001600160a01b0316835292840192918401916001016148c7565b50909695505050505050565b6020808252825182820181905260009190848201906040850190845b818110156148ec57835183529284019291840191600101614914565b6002811061315c57600080fd5b600080600080600060a0868803121561495557600080fd5b8535945060208601359350604086013561496e81614930565b94979396509394606081013594506080013592915050565b6000806040838503121561499957600080fd5b82356149a481614735565b9150602083013561484e81614735565b6000806000606084860312156149c957600080fd5b8335925060208401359150604084013565ffffffffffff811681146148a057600080fd5b602081526000610a7960208301846147ab565b60008060408385031215614a1357600080fd5b50508035926020909101359150565b600060208284031215614a3457600080fd5b8135614a3f81614735565b9392505050565b60008060008060008060c08789031215614a5f57600080fd5b863595506020870135945060408701359350606087013592506080870135614a8681614735565b915060a087013562ffffff81168114614a9e57600080fd5b809150509295509295509295565b6001600160a01b039390931683526020830191909152604082015260600190565b8051801515811461278b57600080fd5b600080600080600080600080610100898b031215614afa57600080fd5b885197506020890151965060408901519550606089015194506080890151935060a0890151925060c08901519150614b3460e08a01614acd565b90509295985092959890939650565b634e487b7160e01b600052604160045260246000fd5b600082601f830112614b6a57600080fd5b8151602067ffffffffffffffff80831115614b8757614b87614b43565b8260051b604051601f19603f83011681018181108482111715614bac57614bac614b43565b604052938452858101830193838101925087851115614bca57600080fd5b83870191505b84821015614be957815183529183019190830190614bd0565b979650505050505050565b600080600060608486031215614c0957600080fd5b835167ffffffffffffffff80821115614c2157600080fd5b614c2d87838801614b59565b94506020860151915080821115614c4357600080fd5b614c4f87838801614b59565b93506040860151915080821115614c6557600080fd5b50614c7286828701614b59565b9150509250925092565b600060208284031215614c8e57600080fd5b5051919050565b634e487b7160e01b600052603260045260246000fd5b6000815180845260005b81811015614cd157602081850181015186830182015201614cb5565b81811115614ce3576000602083870101525b50601f01601f19169290920160200192915050565b828152604060208201526000610e526040830184614cab565b600060208284031215614d2357600080fd5b8151614a3f81614735565b634e487b7160e01b600052601160045260246000fd5b6000600019821415614d5857614d58614d2e565b5060010190565b6020808252601f908201527f5265656e7472616e637947756172643a207265656e7472616e742063616c6c00604082015260600190565b60208082526010908201526f496e76616c6964206d6174757269747960801b604082015260600190565b600080600060608486031215614dd557600080fd5b8351614de081614930565b602085015160409095015190969495509392505050565b634e487b7160e01b600052602160045260246000fd5b60028110614e2b57634e487b7160e01b600052602160045260246000fd5b9052565b65ffffffffffff8616815260a08101614e4b6020830187614e0d565b8460408301528360608301528260808301529695505050505050565b600080600080600080600060e0888a031215614e8257600080fd5b5050855160208701516040880151606089015160808a015160a08b015160c0909b0151949c939b50919990985090965094509092509050565b6020808252818101527f4f776e61626c653a2063616c6c6572206973206e6f7420746865206f776e6572604082015260600190565b600080600060608486031215614f0557600080fd5b8351925060208401519150604084015190509250925092565b600082821015614f3057614f30614d2e565b500390565b60008219821115614f4857614f48614d2e565b500190565b600060208284031215614f5f57600080fd5b610a7982614acd565b600080821280156001600160ff1b0384900385131615614f8a57614f8a614d2e565b600160ff1b8390038412811615614fa357614fa3614d2e565b50500190565b6001600160a01b0385168152602081018490526040810183905260808101614fd46060830184614e0d565b95945050505050565b60a08101614feb8288614e0d565b6001600160a01b03959095166020820152604081019390935260608301919091521515608090910152919050565b6000806040838503121561502c57600080fd5b505080516020909101519092909150565b6080810161504b8287614e0d565b84602083015283604083015282606083015295945050505050565b634e487b7160e01b600052601260045260246000fd5b60008261508b5761508b615066565b500490565b60008261509f5761509f615066565b500690565b60008160001904831182151516156150be576150be614d2e565b500290565b604081016150d18285614e0d565b8260208301529392505050565b60006001600160ff1b038184138284138082168684048611161561510457615104614d2e565b600160ff1b600087128281168783058912161561512357615123614d2e565b6000871292508782058712848416161561513f5761513f614d2e565b8785058712818416161561515557615155614d2e565b505050929093029392505050565b60008261517257615172615066565b600160ff1b82146000198414161561518c5761518c614d2e565b500590565b60008083128015600160ff1b8501841216156151af576151af614d2e565b6001600160ff1b03840183138116156151ca576151ca614d2e565b50500390565b634e487b7160e01b600052603160045260246000fd5b602081526000610a796020830184614cab56fe4abde63c3e81aefa5764b017968bc473e83e093d7e1a10247d19e0a3e4124018a26469706673582212205ae2e007163b23223ebb2dcbf19d3e74f4888776cdc3e02ec5f2f6b62645c6ca64736f6c63430008090033",
  "deployedBytecode": "0x6080604052600436106102515760003560e01c80638a98174511610139578063e0997659116100b6578063eb092a261161007a578063eb092a261461078f578063ed6c9a97146107af578063f2fde38b146107cf578063faca409b146107ef578063fb54a6b31461080f578063fc7008101461082f57600080fd5b8063e0997659146106fa578063e219baef1461070f578063e906c1001461072f578063e95dc1831461074f578063e99d05381461076f57600080fd5b80639d3fc35d116100fd5780639d3fc35d1461063a578063a02be3dc1461065a578063a963ad7f1461067a578063b3cb8450146106ba578063bfd10cf6146106da57600080fd5b80638a981745146105b25780638b36d833146105d25780638b646f44146105f25780638da5cb5b14610605578063953dbcaa1461061a57600080fd5b80633d03b9da116101d25780635c347765116101965780635c347765146104ad578063715018a61461050257806373bb3b091461051757806385323e1a14610552578063870cf8ab14610572578063891d59651461059257600080fd5b80633d03b9da146103fe578063448255c714610420578063485cc9551461044057806349f2ccbf1461046057806355aceb4e1461048057600080fd5b80632af64bd3116102195780632af64bd3146103595780632e6c5e671461037e5780632e77aea71461039e578063371c672c146103be578063381ada1f146103d157600080fd5b80630312b5281461025657806304f3bcec146102b85780630594de6e146102e557806317b72ff41461031457806329985e5a14610342575b600080fd5b34801561026257600080fd5b5061027661027136600461474a565b61084f565b604080519889526020890197909752958701949094526060860192909252608085015260a084015260c0830152151560e0820152610100015b60405180910390f35b3480156102c457600080fd5b506102cd610904565b6040516001600160a01b0390911681526020016102af565b3480156102f157600080fd5b5061030561030036600461477f565b610925565b6040516102af939291906147e6565b34801561032057600080fd5b5061033461032f366004614829565b6109e4565b6040519081526020016102af565b34801561034e57600080fd5b50610357610a82565b005b34801561036557600080fd5b5061036e610c2f565b60405190151581526020016102af565b34801561038a57600080fd5b5061036e610399366004614859565b610d95565b3480156103aa57600080fd5b506103346103b9366004614872565b610db5565b61036e6103cc36600461477f565b610e5a565b3480156103dd57600080fd5b506103f16103ec366004614859565b610f10565b6040516102af91906148ab565b34801561040a57600080fd5b50610413610f85565b6040516102af91906148f8565b34801561042c57600080fd5b5061036e61043b36600461493d565b611079565b34801561044c57600080fd5b5061035761045b366004614986565b611190565b34801561046c57600080fd5b5061036e61047b3660046149b4565b611313565b34801561048c57600080fd5b506104a061049b366004614859565b6114ad565b6040516102af91906149ed565b3480156104b957600080fd5b506104cd6104c8366004614829565b611615565b604080519788526020880196909652948601939093526060850191909152608084015260a083015260c082015260e0016102af565b34801561050e57600080fd5b50610357611700565b34801561052357600080fd5b50610537610532366004614829565b61173b565b604080519384526020840192909252908201526060016102af565b34801561055e57600080fd5b506102cd61056d366004614a00565b6117e2565b34801561057e57600080fd5b5061035761058d366004614a22565b611844565b34801561059e57600080fd5b506103346105ad366004614859565b6118a3565b3480156105be57600080fd5b506102cd6105cd366004614a00565b6118c1565b3480156105de57600080fd5b506103576105ed366004614859565b6118f3565b61036e61060036600461477f565b611e0d565b34801561061157600080fd5b506102cd611eff565b34801561062657600080fd5b5061030561063536600461477f565b611f27565b34801561064657600080fd5b50610537610655366004614829565b611f86565b34801561066657600080fd5b506104a0610675366004614859565b611fd4565b34801561068657600080fd5b5061069a610695366004614859565b612135565b604080516001600160a01b039384168152929091166020830152016102af565b3480156106c657600080fd5b5061036e6106d5366004614859565b612690565b3480156106e657600080fd5b506104a06106f5366004614859565b612790565b34801561070657600080fd5b506104136128f1565b34801561071b57600080fd5b5061035761072a36600461477f565b612934565b34801561073b57600080fd5b5061033461074a366004614872565b612a92565b34801561075b57600080fd5b5061033461076a366004614829565b612ae3565b34801561077b57600080fd5b5061036e61078a366004614859565b612ca7565b34801561079b57600080fd5b506104a06107aa366004614859565b612d9c565b3480156107bb57600080fd5b5061036e6107ca366004614a46565b612efd565b3480156107db57600080fd5b506103576107ea366004614a22565b6130bf565b3480156107fb57600080fd5b5061036e61080a36600461493d565b61315f565b34801561081b57600080fd5b5061033461082a366004614a22565b6131e7565b34801561083b57600080fd5b5061041361084a366004614a22565b613378565b60008060008060008060008073__$4a3525e110007f5a23e9853ccc5aa6ed76$__630312b5288c8c8c6040518463ffffffff1660e01b815260040161089693929190614aac565b6101006040518083038186803b1580156108af57600080fd5b505af41580156108c3573d6000803e3d6000fd5b505050506040513d601f19601f820116820180604052508101906108e79190614add565b975097509750975097509750975097509397509397509397509397565b60006000805160206151fa8339815191525b546001600160a01b0316919050565b606080606060006109346133a6565b600088815260029190910160209081526040808320898452909152908190205490516325fb168b60e11b8152600481018790526001600160a01b0390911691508190634bf62d16906024015b60006040518083038186803b15801561099857600080fd5b505afa1580156109ac573d6000803e3d6000fd5b505050506040513d6000823e601f3d908101601f191682016040526109d49190810190614bf4565b9350935093505093509350939050565b6040516385f3396760e01b8152600481018390526001600160a01b038216602482015260009073__$4a3525e110007f5a23e9853ccc5aa6ed76$__906385f339679060440160206040518083038186803b158015610a4157600080fd5b505af4158015610a55573d6000803e3d6000fd5b505050506040513d601f19601f82011682018060405250810190610a799190614c7c565b90505b92915050565b6000610a8c610f85565b905060005b8151811015610c2b576000828281518110610aae57610aae614c95565b602002602001015190506000610acf6000805160206151fa83398151915290565b54604080517f5265736f6c766572206d697373696e67207461726765743a200000000000000060208201526039808201869052825180830390910181526059820192839052636795dbcd60e01b9092526001600160a01b0390921691636795dbcd91610b4091869190605d01614cf8565b60206040518083038186803b158015610b5857600080fd5b505afa158015610b6c573d6000803e3d6000fd5b505050506040513d601f19601f82011682018060405250810190610b909190614d11565b60008381527f4abde63c3e81aefa5764b017968bc473e83e093d7e1a10247d19e0a3e4124019602090815260409182902080546001600160a01b0319166001600160a01b03851690811790915582518681529182015281519293507f88a93678a3692f6789d9546fc621bf7234b101ddb7d4fe479455112831b8aa68929081900390910190a150508080610c2390614d44565b915050610a91565b5050565b600080610c3a610f85565b905060005b8151811015610d8c576000828281518110610c5c57610c5c614c95565b60200260200101519050610c7b6000805160206151fa83398151915290565b600082815260019190910160205260409020546001600160a01b03166000805160206151fa833981519152546040516321f8a72160e01b8152600481018490526001600160a01b03909116906321f8a7219060240160206040518083038186803b158015610ce857600080fd5b505afa158015610cfc573d6000803e3d6000fd5b505050506040513d601f19601f82011682018060405250810190610d209190614d11565b6001600160a01b0316141580610d6a575060008181527f4abde63c3e81aefa5764b017968bc473e83e093d7e1a10247d19e0a3e412401960205260409020546001600160a01b0316155b15610d79576000935050505090565b5080610d8481614d44565b915050610c3f565b50600191505090565b6000610d9f6133a6565b6000928352600301602052506040902054151590565b6040516371eb435360e01b815260048101849052602481018390526001600160a01b038216604482015260009073__$4a3525e110007f5a23e9853ccc5aa6ed76$__906371eb4353906064015b60206040518083038186803b158015610e1a57600080fd5b505af4158015610e2e573d6000803e3d6000fd5b505050506040513d601f19601f82011682018060405250810190610e529190614c7c565b949350505050565b600060026000541415610e885760405162461bcd60e51b8152600401610e7f90614d5f565b60405180910390fd5b6002600090815584908490610e9b6133a6565b6000848152600291909101602090815260408083208584529091529020546001600160a01b03161415610ee05760405162461bcd60e51b8152600401610e7f90614d96565b610eeb8686336133ca565b50610efd868633600034896000613560565b5060019250505060016000559392505050565b6060610f1a6133a6565b6000838152602091825260409081902080548251818502810185019093528083529192909190830182828015610f7957602002820191906000526020600020905b81546001600160a01b03168152600190910190602001808311610f5b575b50505050509050919050565b60408051600480825260a0820190925260609160208201608080368337019050509050742132b0b1b7b7283937bc3ca1b7b73a3937b63632b960591b81600081518110610fd457610fd4614c95565b6020026020010181815250507121bab93932b731bca1b7b73a3937b63632b960711b8160018151811061100957611009614c95565b6020026020010181815250507011d95b995cda5cd5985b1d5955985d5b1d607a1b8160028151811061103d5761103d614c95565b60200260200101818152505069151bdad95b95985d5b1d60b21b8160038151811061106a5761106a614c95565b60200260200101818152505090565b60006002600054141561109e5760405162461bcd60e51b8152600401610e7f90614d5f565b60026000908155869086906110b16133a6565b6000848152600291909101602090815260408083208584529091529020546001600160a01b031614156110f65760405162461bcd60e51b8152600401610e7f90614d96565b6110fe613ae5565b6001600160a01b03166396994e37338a886040518463ffffffff1660e01b815260040161112d93929190614aac565b600060405180830381600087803b15801561114757600080fd5b505af115801561115b573d6000803e3d6000fd5b5050505061116a8888336133ca565b5061117b8888338989896000613560565b50600192505050600160005595945050505050565b600154610100900460ff16158080156111ad57506001805460ff16105b806111c65750303b1580156111c657506001805460ff16145b6112295760405162461bcd60e51b815260206004820152602e60248201527f496e697469616c697a61626c653a20636f6e747261637420697320616c72656160448201526d191e481a5b9a5d1a585b1a5e995960921b6064820152608401610e7f565b6001805460ff191681179055801561124b576001805461ff0019166101001790555b6000611255613af4565b6001600160a01b031614156112b75760405162461bcd60e51b815260206004820152602260248201527f4d7573742062652063616c6c65642066726f6d2070726f787920636f6e74726160448201526118dd60f21b6064820152608401610e7f565b6112c083613b1c565b6112c982613b8d565b801561130e576001805461ff00191681556040519081527f7f26b83ff96e1f2b6a682f133852f6798a09c465da95921460cefb38474024989060200160405180910390a15b505050565b6000600260005414156113385760405162461bcd60e51b8152600401610e7f90614d5f565b600260009081558490849061134b6133a6565b6000848152600291909101602090815260408083208584529091529020546001600160a01b031614156113905760405162461bcd60e51b8152600401610e7f90614d96565b600061139a6133a6565b60008881526002919091016020908152604080832089845290915280822054905163504b89bd60e01b815233600482015265ffffffffffff881660248201526001600160a01b03909116925081908190849063504b89bd90604401606060405180830381600087803b15801561140f57600080fd5b505af1158015611423573d6000803e3d6000fd5b505050506040513d601f19601f820116820180604052508101906114479190614dc0565b92509250925089336001600160a01b03167f882188071c39e32cd4ffd0cef7a006a29eaae9e4018d72cef313a0f4686cdb918a868d878760405161148f959493929190614e2f565b60405180910390a36001965050505050505060016000559392505050565b606060006114b96133a6565b6000848152602091909152604090205467ffffffffffffffff8111156114e1576114e1614b43565b60405190808252806020026020018201604052801561150a578160200160208202803683370190505b50905060005b6115186133a6565b6000858152602091909152604090205481101561160e5760006115396133a6565b60008681526020919091526040902080548390811061155a5761155a614c95565b6000918252602091829020015460408051631b3508b760e01b815290516001600160a01b0390921693508392631b3508b792600480840193829003018186803b1580156115a657600080fd5b505afa1580156115ba573d6000803e3d6000fd5b505050506040513d601f19601f820116820180604052508101906115de9190614c7c565b8383815181106115f0576115f0614c95565b6020908102919091010152508061160681614d44565b915050611510565b5092915050565b600080600080600080600061164e8961162c6133a6565b6001600160a01b038b1660009081526004919091016020526040902090613c22565b156116f457604051635c34776560e01b8152600481018a90526001600160a01b038916602482015273__$4a3525e110007f5a23e9853ccc5aa6ed76$__90635c3477659060440160e06040518083038186803b1580156116ad57600080fd5b505af41580156116c1573d6000803e3d6000fd5b505050506040513d601f19601f820116820180604052508101906116e59190614e67565b96509650965096509650965096505b92959891949750929550565b33611709611eff565b6001600160a01b03161461172f5760405162461bcd60e51b8152600401610e7f90614ebb565b6117396000613b1c565b565b6040516373bb3b0960e01b8152600481018390526001600160a01b03821660248201526000908190819073__$4a3525e110007f5a23e9853ccc5aa6ed76$__906373bb3b09906044015b60606040518083038186803b15801561179d57600080fd5b505af41580156117b1573d6000803e3d6000fd5b505050506040513d601f19601f820116820180604052508101906117d59190614ef0565b9250925092509250925092565b60006117ec6133a6565b600084815260019190910160205260408120906118076133a6565b600095865260020160209081526040808720958752948152848620546001600160a01b039081168352908201929092529092019092205416919050565b600061184e6133a6565b6001600160a01b03831660009081526004919091016020526040812091505b61187682613c3a565b81101561130e5761189061188a8383613c44565b84612ae3565b508061189b81614d44565b91505061186d565b60006118ad6133a6565b600092835260030160205250604090205490565b60006118cb6133a6565b600093845260020160209081526040808520938552929052509020546001600160a01b031690565b600260005414156119165760405162461bcd60e51b8152600401610e7f90614d5f565b6002600090815581906119276133a6565b600083815260209190915260409020541161199d5760405162461bcd60e51b815260206004820152603060248201527f4e6f206c656e64696e67206d61726b65747320657869737420666f722061207360448201526f706563696669632063757272656e637960801b6064820152608401610e7f565b60006119a76133a6565b6000848152602091909152604081208054909250829082906119cb576119cb614c95565b600091825260208220015483546001600160a01b039091169250839060019081106119f8576119f8614c95565b600091825260208220015484546001600160a01b039091169250611abc908590611a2490600190614f1e565b81548110611a3457611a34614c95565b600091825260209182902001546040805163e16695b560e01b815290516001600160a01b039092169263e16695b592600480840193829003018186803b158015611a7d57600080fd5b505afa158015611a91573d6000803e3d6000fd5b505050506040513d601f19601f82011682018060405250810190611ab59190614c7c565b6003613c50565b60405163baa2675760e01b8152600481018290529091506000906001600160a01b0385169063baa2675790602401602060405180830381600087803b158015611b0457600080fd5b505af1158015611b18573d6000803e3d6000fd5b505050506040513d601f19601f82011682018060405250810190611b3c9190614c7c565b905060005b8554811015611beb5785546000908290611b5d90600190614f1e565b14611b985786611b6e836001614f35565b81548110611b7e57611b7e614c95565b6000918252602090912001546001600160a01b0316611b9a565b855b905080878381548110611baf57611baf614c95565b600091825260209091200180546001600160a01b0319166001600160a01b03929092169190911790555080611be381614d44565b915050611b41565b50611bf4613d1d565b6001600160a01b031663b95a33ab8883866001600160a01b031663e16695b56040518163ffffffff1660e01b815260040160206040518083038186803b158015611c3d57600080fd5b505afa158015611c51573d6000803e3d6000fd5b505050506040513d601f19601f82011682018060405250810190611c759190614c7c565b876001600160a01b03166371613c2d6040518163ffffffff1660e01b815260040160206040518083038186803b158015611cae57600080fd5b505afa158015611cc2573d6000803e3d6000fd5b505050506040513d601f19601f82011682018060405250810190611ce69190614c7c565b6040516001600160e01b031960e087901b1681526004810194909452602484019290925260448301526064820152608401600060405180830381600087803b158015611d3157600080fd5b505af1158015611d45573d6000803e3d6000fd5b5050505083611d526133a6565b600089815260029190910160209081526040808320868452909152902080546001600160a01b0319166001600160a01b0392909216919091179055611d956133a6565b60008881526002919091016020908152604080832084845282529182902080546001600160a01b031916905581518981529081018390529081018390527f98cbd76ce00c88aafa668f8d8ee624506fdfd22fc473f74ea1b75addf544c2209060600160405180910390a1505060016000555050505050565b600060026000541415611e325760405162461bcd60e51b8152600401610e7f90614d5f565b6002600090815584908490611e456133a6565b6000848152600291909101602090815260408083208584529091529020546001600160a01b03161415611e8a5760405162461bcd60e51b8152600401610e7f90614d96565b611e92613ae5565b6001600160a01b03166396994e37343389346040518563ffffffff1660e01b8152600401611ec293929190614aac565b6000604051808303818588803b158015611edb57600080fd5b505af1158015611eef573d6000803e3d6000fd5b5050505050610eeb8686336133ca565b60007f9acda75aebd150dd434541a4747a6dc606f4f1a59662477e67daf1fc0bf9e0aa610916565b60608060606000611f366133a6565b6000888152600291909101602090815260408083208984529091529081902054905163d866d35560e01b8152600481018790526001600160a01b039091169150819063d866d35590602401610980565b604051639d3fc35d60e01b8152600481018390526001600160a01b03821660248201526000908190819073__$4a3525e110007f5a23e9853ccc5aa6ed76$__90639d3fc35d90604401611785565b60606000611fe06133a6565b6000848152602091909152604090205467ffffffffffffffff81111561200857612008614b43565b604051908082528060200260200182016040528015612031578160200160208202803683370190505b50905060005b61203f6133a6565b6000858152602091909152604090205481101561160e5760006120606133a6565b60008681526020919091526040902080548390811061208157612081614c95565b600091825260209182902001546040805163e16695b560e01b815290516001600160a01b039092169350839263e16695b592600480840193829003018186803b1580156120cd57600080fd5b505afa1580156120e1573d6000803e3d6000fd5b505050506040513d601f19601f820116820180604052508101906121059190614c7c565b83838151811061211757612117614c95565b6020908102919091010152508061212d81614d44565b915050612037565b60008033612141611eff565b6001600160a01b0316146121675760405162461bcd60e51b8152600401610e7f90614ebb565b61216f613d1d565b6001600160a01b031663f7b637bb846040518263ffffffff1660e01b815260040161219c91815260200190565b60206040518083038186803b1580156121b457600080fd5b505afa1580156121c8573d6000803e3d6000fd5b505050506040513d601f19601f820116820180604052508101906121ec9190614f4d565b6122575760405162461bcd60e51b815260206004820152603660248201527f4c656e64696e67206d61726b6574206861736e2774206265656e20696e697469604482015275616c697a656420696e207468652063757272656e637960501b6064820152608401610e7f565b61225f613d27565b6001600160a01b0316631eae0893846040518263ffffffff1660e01b815260040161228c91815260200190565b60206040518083038186803b1580156122a457600080fd5b505afa1580156122b8573d6000803e3d6000fd5b505050506040513d601f19601f820116820180604052508101906122dc9190614f4d565b6123215760405162461bcd60e51b81526020600482015260166024820152754e6f6e20737570706f727465642063757272656e637960501b6044820152606401610e7f565b600061232b6133a6565b6000858152600391909101602052604081205491506123486133a6565b60008681526020919091526040902054111561242d576123666133a6565b600085815260209190915260409020600161237f6133a6565b600087815260209190915260409020546123999190614f1e565b815481106123a9576123a9614c95565b600091825260209182902001546040805163e16695b560e01b815290516001600160a01b039092169263e16695b592600480840193829003018186803b1580156123f257600080fd5b505afa158015612406573d6000803e3d6000fd5b505050506040513d601f19601f8201168201806040525081019061242a9190614c7c565b90505b600061243a826003613c50565b9050612444613d31565b6001600160a01b0316634672758f8661245b6133a6565b60008981526003919091016020526040908190205490516001600160e01b031960e085901b1681526004810192909252602482015260448101849052606401602060405180830381600087803b1580156124b457600080fd5b505af11580156124c8573d6000803e3d6000fd5b505050506040513d601f19601f820116820180604052508101906124ec9190614d11565b93506124f6613d31565b6001600160a01b031663a97c4b536040518163ffffffff1660e01b8152600401602060405180830381600087803b15801561253057600080fd5b505af1158015612544573d6000803e3d6000fd5b505050506040513d601f19601f820116820180604052508101906125689190614d11565b92506125726133a6565b600086815260209182526040812080546001810182559082529190200180546001600160a01b0319166001600160a01b038616179055836125b16133a6565b600087815260029190910160209081526040808320858452909152902080546001600160a01b0319166001600160a01b0392909216919091179055826125f56133a6565b6000878152600191909101602090815260408083206001600160a01b0389811680865291909352922080546001600160a01b0319169390911692909217909155857f5f1af77fb16a8d70e13dc1d6eef0f7b3f37103d1bfc348e1e57469c718646543856126606133a6565b60008a81526020919091526040908190205490516126819291908790614aac565b60405180910390a35050915091565b60003361269b611eff565b6001600160a01b0316146126c15760405162461bcd60e51b8152600401610e7f90614ebb565b60005b6126cc6133a6565b600084815260209190915260409020548110156127855760006126ed6133a6565b60008581526020919091526040902080548390811061270e5761270e614c95565b60009182526020822001546040805163280dce3760e21b815290516001600160a01b039092169350839263a03738dc9260048084019382900301818387803b15801561275957600080fd5b505af115801561276d573d6000803e3d6000fd5b5050505050808061277d90614d44565b9150506126c4565b50600190505b919050565b6060600061279c6133a6565b6000848152602091909152604090205467ffffffffffffffff8111156127c4576127c4614b43565b6040519080825280602002602001820160405280156127ed578160200160208202803683370190505b50905060005b6127fb6133a6565b6000858152602091909152604090205481101561160e57600061281c6133a6565b60008681526020919091526040902080548390811061283d5761283d614c95565b60009182526020918290200154604080516371613c2d60e01b815290516001600160a01b03909216935083926371613c2d92600480840193829003018186803b15801561288957600080fd5b505afa15801561289d573d6000803e3d6000fd5b505050506040513d601f19601f820116820180604052508101906128c19190614c7c565b8383815181106128d3576128d3614c95565b602090810291909101015250806128e981614d44565b9150506127f3565b6040805160018082528183019092526060916020808301908036833701905050905069151bdad95b95985d5b1d60b21b8160008151811061106a5761106a614c95565b3361293d611eff565b6001600160a01b0316146129635760405162461bcd60e51b8152600401610e7f90614ebb565b600081116129b35760405162461bcd60e51b815260206004820152601760248201527f496e76616c696420636f6d706f756e6420666163746f720000000000000000006044820152606401610e7f565b6129bc83610d95565b156129ff5760405162461bcd60e51b8152602060048201526013602482015272105b1c9958591e481a5b9a5d1a585b1a5e9959606a1b6044820152606401610e7f565b612a07613d1d565b60405163c8b0f67360e01b81526004810185905260126024820152604481018390526001600160a01b03919091169063c8b0f67390606401600060405180830381600087803b158015612a5957600080fd5b505af1158015612a6d573d6000803e3d6000fd5b5050505081612a7a6133a6565b60009485526003016020526040909320929092555050565b604051637dfeb45160e01b815260048101849052602481018390526001600160a01b038216604482015260009073__$4a3525e110007f5a23e9853ccc5aa6ed76$__90637dfeb45190606401610e02565b600080612aee6133a6565b6001600160a01b0384166000908152600491909101602052604090209050612b168185613c22565b612b24576000915050610a7c565b600080612b3086611fd4565b905060005b8151811015612bc9576000612b6488848481518110612b5657612b56614c95565b6020026020010151896133ca565b9050600080612b8d8a868681518110612b7f57612b7f614c95565b60200260200101518b613d3b565b9092509050612b9c8289614f35565b975082151580612ba95750805b15612bb357600195505b5050508080612bc190614d44565b915050612b35565b5083158015612bd6575081155b8015612c695750612be5613d1d565b60405163386320d360e11b8152600481018890526001600160a01b03878116602483015291909116906370c641a69060440160206040518083038186803b158015612c2f57600080fd5b505afa158015612c43573d6000803e3d6000fd5b505050506040513d601f19601f82011682018060405250810190612c679190614c7c565b155b15612c9e57612c9c86612c7a6133a6565b6001600160a01b038816600090815260049190910160205260409020906140cd565b505b50505092915050565b600033612cb2611eff565b6001600160a01b031614612cd85760405162461bcd60e51b8152600401610e7f90614ebb565b60005b612ce36133a6565b60008481526020919091526040902054811015612785576000612d046133a6565b600085815260209190915260409020805483908110612d2557612d25614c95565b600091825260208220015460408051630b0863e760e11b815290516001600160a01b0390921693508392631610c7ce9260048084019382900301818387803b158015612d7057600080fd5b505af1158015612d84573d6000803e3d6000fd5b50505050508080612d9490614d44565b915050612cdb565b60606000612da86133a6565b6000848152602091909152604090205467ffffffffffffffff811115612dd057612dd0614b43565b604051908082528060200260200182016040528015612df9578160200160208202803683370190505b50905060005b612e076133a6565b6000858152602091909152604090205481101561160e576000612e286133a6565b600086815260209190915260409020805483908110612e4957612e49614c95565b6000918252602091829020015460408051632f05aa6d60e11b815290516001600160a01b0390921693508392635e0b54da92600480840193829003018186803b158015612e9557600080fd5b505afa158015612ea9573d6000803e3d6000fd5b505050506040513d601f19601f82011682018060405250810190612ecd9190614c7c565b838381518110612edf57612edf614c95565b60209081029190910101525080612ef581614d44565b915050612dff565b600060026000541415612f225760405162461bcd60e51b8152600401610e7f90614d5f565b6002600090815586908690612f356133a6565b6000848152600291909101602090815260408083208584529091529020546001600160a01b03161415612f7a5760405162461bcd60e51b8152600401610e7f90614d96565b612f848886612ae3565b50604051636bc806e760e11b8152600481018a90526024810189905260448101889052606481018790526001600160a01b038616608482015262ffffff851660a482015260009073__$4a3525e110007f5a23e9853ccc5aa6ed76$__9063d7900dce9060c40160206040518083038186803b15801561300257600080fd5b505af4158015613016573d6000803e3d6000fd5b505050506040513d601f19601f8201168201806040525081019061303a9190614c7c565b905061304e89898860008560006001613560565b508789876001600160a01b03167f2aa75186e5dc6215fe9b34c1bbcf001827defa52de1574957eb71fbf5c920b8a8d85604051613095929190918252602082015260400190565b60405180910390a46130a88989886133ca565b506001935050505060016000559695505050505050565b336130c8611eff565b6001600160a01b0316146130ee5760405162461bcd60e51b8152600401610e7f90614ebb565b6001600160a01b0381166131535760405162461bcd60e51b815260206004820152602660248201527f4f776e61626c653a206e6577206f776e657220697320746865207a65726f206160448201526564647265737360d01b6064820152608401610e7f565b61315c81613b1c565b50565b6000600260005414156131845760405162461bcd60e51b8152600401610e7f90614d5f565b60026000908155869086906131976133a6565b6000848152600291909101602090815260408083208584529091529020546001600160a01b031614156131dc5760405162461bcd60e51b8152600401610e7f90614d96565b61116a8888336133ca565b6000806131f26133a6565b6001600160a01b03841660009081526004919091016020526040812091505b61321a82613c3a565b81101561337157600061322d8383613c44565b6040516385f3396760e01b8152600481018290526001600160a01b038716602482015290915060009073__$4a3525e110007f5a23e9853ccc5aa6ed76$__906385f339679060440160206040518083038186803b15801561328d57600080fd5b505af41580156132a1573d6000803e3d6000fd5b505050506040513d601f19601f820116820180604052508101906132c59190614c7c565b90506132cf613d27565b6040516303a0a22f60e41b815260048101849052602481018390526001600160a01b039190911690633a0a22f09060440160206040518083038186803b15801561331857600080fd5b505afa15801561332c573d6000803e3d6000fd5b505050506040513d601f19601f820116820180604052508101906133509190614c7c565b61335a9086614f68565b94505050808061336990614d44565b915050613211565b5050919050565b6060610a7c6133856133a6565b6001600160a01b0384166000908152600491909101602052604090206140d9565b7f8041b8421ebd495cc61f38c788c9eb100daccf9bd36aa0bb920b7a15b2e0496590565b6000806133d56133a6565b600086815260019190910160205260408120906133f06133a6565b6000888152600291909101602090815260408083208984528252808320546001600160a01b03908116855291840194909452918301812054925163ae100e6d60e01b81528683166004820152602481018890529290911692509081908190849063ae100e6d90604401606060405180830381600087803b15801561347357600080fd5b505af1158015613487573d6000803e3d6000fd5b505050506040513d601f19601f820116820180604052508101906134ab9190614ef0565b92509250925082600014613555576134c1613d1d565b604051634ab34b2b60e11b8152600481018a90526001600160a01b03888116602483015260448201849052606482018690529190911690639566965690608401602060405180830381600087803b15801561351b57600080fd5b505af115801561352f573d6000803e3d6000fd5b505050506040513d601f19601f820116820180604052508101906135539190614f4d565b505b509695505050505050565b60008084116135a25760405162461bcd60e51b815260206004820152600e60248201526d125b9d985b1a5908185b5bdd5b9d60921b6044820152606401610e7f565b60006135ae8988612ae3565b905082613682576135bd613ae5565b6001600160a01b03166328ff7a42888b888a6040518563ffffffff1660e01b81526004016135ee9493929190614fa9565b60206040518083038186803b15801561360657600080fd5b505afa15801561361a573d6000803e3d6000fd5b505050506040513d601f19601f8201168201806040525081019061363e9190614f4d565b6136825760405162461bcd60e51b8152602060048201526015602482015274139bdd08195b9bdd59da0818dbdb1b185d195c985b605a1b6044820152606401610e7f565b60008061368d6133a6565b60008c8152600291909101602090815260408083208d845290915290819020549051633352870560e21b81526001600160a01b039091169063cd4a1c14906136e1908b908d908c908c908c90600401614fdd565b6040805180830381600087803b1580156136fa57600080fd5b505af115801561370e573d6000803e3d6000fd5b505050506040513d601f19601f820116820180604052508101906137329190615019565b91509150846137a5578115806137485750600081115b1561375b57613758600184614f35565b92505b60148311156137a55760405162461bcd60e51b8152602060048201526016602482015275546f6f206d616e7920616374697665206f726465727360501b6044820152606401610e7f565b8115613aa85760006137b56133a6565b60008d815260019190910160205260408120906137d06133a6565b60020160008f815260200190815260200160002060008e815260200190815260200160002060009054906101000a90046001600160a01b03166001600160a01b03166001600160a01b0316815260200190815260200160002060009054906101000a90046001600160a01b0316905060018081111561385157613851614df7565b89600181111561386357613863614df7565b141561396357613871613ae5565b6001600160a01b0316634ba0c9b58b8e61388b868d614f1e565b6040518463ffffffff1660e01b81526004016138a993929190614aac565b600060405180830381600087803b1580156138c357600080fd5b505af11580156138d7573d6000803e3d6000fd5b50505050806001600160a01b031663a46971ad8b858e6040518463ffffffff1660e01b815260040161390b93929190614aac565b602060405180830381600087803b15801561392557600080fd5b505af1158015613939573d6000803e3d6000fd5b505050506040513d601f19601f8201168201806040525081019061395d9190614f4d565b50613a59565b61396b613ae5565b6001600160a01b031663fb7bd3b48b8e613985868d614f1e565b6040518463ffffffff1660e01b81526004016139a393929190614aac565b600060405180830381600087803b1580156139bd57600080fd5b505af11580156139d1573d6000803e3d6000fd5b50505050806001600160a01b03166308482e5e8b858e6040518463ffffffff1660e01b8152600401613a0593929190614aac565b602060405180830381600087803b158015613a1f57600080fd5b505af1158015613a33573d6000803e3d6000fd5b505050506040513d601f19601f82011682018060405250810190613a579190614f4d565b505b8a8c8b6001600160a01b03167f5af4e2baa5d844d0439bc0122be7cf9d47b6680937eaabce58bd1ca2f16486ae8c8c8c89604051613a9a949392919061503d565b60405180910390a460019450505b613ad68b613ab46133a6565b6001600160a01b038c16600090815260049190910160205260409020906140e4565b50505050979650505050505050565b6000613aef6140f0565b905090565b60007f360894a13ba1a3210667c828492db98dca3e2076cc3735a920a3ca505d382bbc610916565b7f9acda75aebd150dd434541a4747a6dc606f4f1a59662477e67daf1fc0bf9e0aa80546001600160a01b038381166001600160a01b0319831681179093556040519116919082907f8be0079c531659141344cd1fd0a4f28419497f9722a3daafe3b4186f6b6457e090600090a35050565b6000805160206151fa833981519152546001600160a01b031615613bf35760405162461bcd60e51b815260206004820152601b60248201527f7265736f6c766572207265676973746572656420616c726561647900000000006044820152606401610e7f565b6000805160206151fa83398151915280546001600160a01b0319166001600160a01b0392909216919091179055565b60008181526001830160205260408120541515610a79565b6000610a7c825490565b6000610a798383614108565b6000808080613c6a613c65620151808861507c565b614132565b91945092509050613c7b8583614f35565b9150600c613c8a600184614f1e565b613c94919061507c565b613c9e9084614f35565b9250600c613cad600184614f1e565b613cb79190615090565b613cc2906001614f35565b91506000613cd084846142a6565b905080821115613cde578091505b613ceb6201518088615090565b62015180613cfa86868661432c565b613d0491906150a4565b613d0e9190614f35565b945086851015612c9c57600080fd5b6000613aef614469565b6000613aef614488565b6000613aef6144a8565b6000806000613d4a86866117e2565b90506000806000806000806000613d5f6133a6565b60008e8152600291909101602090815260408083208f845290915290819020549051630516d8c960e11b81526001600160a01b038d8116600483015290911690630a2db1929060240160e060405180830381600087803b158015613dc257600080fd5b505af1158015613dd6573d6000803e3d6000fd5b505050506040513d601f19601f82011682018060405250810190613dfa9190614e67565b965096509650965096509650965081831115613e8757613e18613ae5565b6001600160a01b031663fb7bd3b48c8f613e328688614f1e565b6040518463ffffffff1660e01b8152600401613e5093929190614aac565b600060405180830381600087803b158015613e6a57600080fd5b505af1158015613e7e573d6000803e3d6000fd5b50505050613f02565b81831015613f0257613e97613ae5565b6001600160a01b0316634ba0c9b58c8f613eb18787614f1e565b6040518463ffffffff1660e01b8152600401613ecf93929190614aac565b600060405180830381600087803b158015613ee957600080fd5b505af1158015613efd573d6000803e3d6000fd5b505050505b8415613fd257604051630424172f60e11b81526001600160a01b038916906308482e5e90613f38908e9089908690600401614aac565b602060405180830381600087803b158015613f5257600080fd5b505af1158015613f66573d6000803e3d6000fd5b505050506040513d601f19601f82011682018060405250810190613f8a9190614f4d565b50808d8c6001600160a01b03167f3dd6192fffa4612e795f196dc6367cfa6494cbe70d7cff3a039ebbbc4acb262e600089604051613fc99291906150c3565b60405180910390a45b83156140a25760405163a46971ad60e01b81526001600160a01b0389169063a46971ad90614008908e9088908690600401614aac565b602060405180830381600087803b15801561402257600080fd5b505af1158015614036573d6000803e3d6000fd5b505050506040513d601f19601f8201168201806040525081019061405a9190614f4d565b50808d8c6001600160a01b03167f3dd6192fffa4612e795f196dc6367cfa6494cbe70d7cff3a039ebbbc4acb262e6001886040516140999291906150c3565b60405180910390a45b60006140ae8587614f35565b1198506140bb8688614f35565b99505050505050505050935093915050565b6000610a7983836144cb565b6060610a7c826145be565b6000610a798383614619565b6000613aef69151bdad95b95985d5b1d60b21b614668565b600082600001828154811061411f5761411f614c95565b9060005260206000200154905092915050565b60008080838162253d8c6141498362010bd9614f68565b6141539190614f68565b9050600062023ab16141668360046150de565b6141709190615163565b905060046141818262023ab16150de565b61418c906003614f68565b6141969190615163565b6141a09083615191565b9150600062164b096141b3846001614f68565b6141bf90610fa06150de565b6141c99190615163565b905060046141d9826105b56150de565b6141e39190615163565b6141ed9084615191565b6141f890601f614f68565b9250600061098f61420a8560506150de565b6142149190615163565b9050600060506142268361098f6150de565b6142309190615163565b61423a9086615191565b9050614247600b83615163565b945061425485600c6150de565b61425f836002614f68565b6142699190615191565b91508483614278603187615191565b6142839060646150de565b61428d9190614f68565b6142979190614f68565b9a919950975095505050505050565b600081600114806142b75750816003145b806142c25750816005145b806142cd5750816007145b806142d85750816008145b806142e3575081600a145b806142ee575081600c145b156142fb5750601f610a7c565b8160021461430b5750601e610a7c565b614314836146f9565b61431f57601c614322565b601d5b60ff169392505050565b60006107b284101561433d57600080fd5b838383600062253d8c60046064600c614357600e88615191565b6143619190615163565b61436d88611324614f68565b6143779190614f68565b6143819190615163565b61438c9060036150de565b6143969190615163565b600c806143a4600e88615191565b6143ae9190615163565b6143b990600c6150de565b6143c4600288615191565b6143ce9190615191565b6143da9061016f6150de565b6143e49190615163565b6004600c6143f3600e89615191565b6143fd9190615163565b614409896112c0614f68565b6144139190614f68565b61441f906105b56150de565b6144299190615163565b614435617d4b87615191565b61443f9190614f68565b6144499190614f68565b6144539190615191565b61445d9190615191565b98975050505050505050565b6000613aef7011d95b995cda5cd5985b1d5955985d5b1d607a1b614668565b6000613aef7121bab93932b731bca1b7b73a3937b63632b960711b614668565b6000613aef742132b0b1b7b7283937bc3ca1b7b73a3937b63632b960591b614668565b600081815260018301602052604081205480156145b45760006144ef600183614f1e565b855490915060009061450390600190614f1e565b905081811461456857600086600001828154811061452357614523614c95565b906000526020600020015490508087600001848154811061454657614546614c95565b6000918252602080832090910192909255918252600188019052604090208390555b8554869080614579576145796151d0565b600190038181906000526020600020016000905590558560010160008681526020019081526020016000206000905560019350505050610a7c565b6000915050610a7c565b606081600001805480602002602001604051908101604052809291908181526020018280548015610f7957602002820191906000526020600020905b8154815260200190600101908083116145fa5750505050509050919050565b600081815260018301602052604081205461466057508154600181810184556000848152602080822090930184905584548482528286019093526040902091909155610a7c565b506000610a7c565b60008181527f4abde63c3e81aefa5764b017968bc473e83e093d7e1a10247d19e0a3e41240196020908152604080832054815170026b4b9b9b4b7339030b2323932b9b99d1607d1b9381019390935260318084018690528251808503909101815260519093019091526001600160a01b0316908161160e5760405162461bcd60e51b8152600401610e7f91906151e6565b6000614706600483615090565b15801561471c5750614719606483615090565b15155b80610a7c575061472e61019083615090565b1592915050565b6001600160a01b038116811461315c57600080fd5b60008060006060848603121561475f57600080fd5b833561476a81614735565b95602085013595506040909401359392505050565b60008060006060848603121561479457600080fd5b505081359360208301359350604090920135919050565b600081518084526020808501945080840160005b838110156147db578151875295820195908201906001016147bf565b509495945050505050565b6060815260006147f960608301866147ab565b828103602084015261480b81866147ab565b9050828103604084015261481f81856147ab565b9695505050505050565b6000806040838503121561483c57600080fd5b82359150602083013561484e81614735565b809150509250929050565b60006020828403121561486b57600080fd5b5035919050565b60008060006060848603121561488757600080fd5b833592506020840135915060408401356148a081614735565b809150509250925092565b6020808252825182820181905260009190848201906040850190845b818110156148ec5783516001600160a01b0316835292840192918401916001016148c7565b50909695505050505050565b6020808252825182820181905260009190848201906040850190845b818110156148ec57835183529284019291840191600101614914565b6002811061315c57600080fd5b600080600080600060a0868803121561495557600080fd5b8535945060208601359350604086013561496e81614930565b94979396509394606081013594506080013592915050565b6000806040838503121561499957600080fd5b82356149a481614735565b9150602083013561484e81614735565b6000806000606084860312156149c957600080fd5b8335925060208401359150604084013565ffffffffffff811681146148a057600080fd5b602081526000610a7960208301846147ab565b60008060408385031215614a1357600080fd5b50508035926020909101359150565b600060208284031215614a3457600080fd5b8135614a3f81614735565b9392505050565b60008060008060008060c08789031215614a5f57600080fd5b863595506020870135945060408701359350606087013592506080870135614a8681614735565b915060a087013562ffffff81168114614a9e57600080fd5b809150509295509295509295565b6001600160a01b039390931683526020830191909152604082015260600190565b8051801515811461278b57600080fd5b600080600080600080600080610100898b031215614afa57600080fd5b885197506020890151965060408901519550606089015194506080890151935060a0890151925060c08901519150614b3460e08a01614acd565b90509295985092959890939650565b634e487b7160e01b600052604160045260246000fd5b600082601f830112614b6a57600080fd5b8151602067ffffffffffffffff80831115614b8757614b87614b43565b8260051b604051601f19603f83011681018181108482111715614bac57614bac614b43565b604052938452858101830193838101925087851115614bca57600080fd5b83870191505b84821015614be957815183529183019190830190614bd0565b979650505050505050565b600080600060608486031215614c0957600080fd5b835167ffffffffffffffff80821115614c2157600080fd5b614c2d87838801614b59565b94506020860151915080821115614c4357600080fd5b614c4f87838801614b59565b93506040860151915080821115614c6557600080fd5b50614c7286828701614b59565b9150509250925092565b600060208284031215614c8e57600080fd5b5051919050565b634e487b7160e01b600052603260045260246000fd5b6000815180845260005b81811015614cd157602081850181015186830182015201614cb5565b81811115614ce3576000602083870101525b50601f01601f19169290920160200192915050565b828152604060208201526000610e526040830184614cab565b600060208284031215614d2357600080fd5b8151614a3f81614735565b634e487b7160e01b600052601160045260246000fd5b6000600019821415614d5857614d58614d2e565b5060010190565b6020808252601f908201527f5265656e7472616e637947756172643a207265656e7472616e742063616c6c00604082015260600190565b60208082526010908201526f496e76616c6964206d6174757269747960801b604082015260600190565b600080600060608486031215614dd557600080fd5b8351614de081614930565b602085015160409095015190969495509392505050565b634e487b7160e01b600052602160045260246000fd5b60028110614e2b57634e487b7160e01b600052602160045260246000fd5b9052565b65ffffffffffff8616815260a08101614e4b6020830187614e0d565b8460408301528360608301528260808301529695505050505050565b600080600080600080600060e0888a031215614e8257600080fd5b5050855160208701516040880151606089015160808a015160a08b015160c0909b0151949c939b50919990985090965094509092509050565b6020808252818101527f4f776e61626c653a2063616c6c6572206973206e6f7420746865206f776e6572604082015260600190565b600080600060608486031215614f0557600080fd5b8351925060208401519150604084015190509250925092565b600082821015614f3057614f30614d2e565b500390565b60008219821115614f4857614f48614d2e565b500190565b600060208284031215614f5f57600080fd5b610a7982614acd565b600080821280156001600160ff1b0384900385131615614f8a57614f8a614d2e565b600160ff1b8390038412811615614fa357614fa3614d2e565b50500190565b6001600160a01b0385168152602081018490526040810183905260808101614fd46060830184614e0d565b95945050505050565b60a08101614feb8288614e0d565b6001600160a01b03959095166020820152604081019390935260608301919091521515608090910152919050565b6000806040838503121561502c57600080fd5b505080516020909101519092909150565b6080810161504b8287614e0d565b84602083015283604083015282606083015295945050505050565b634e487b7160e01b600052601260045260246000fd5b60008261508b5761508b615066565b500490565b60008261509f5761509f615066565b500690565b60008160001904831182151516156150be576150be614d2e565b500290565b604081016150d18285614e0d565b8260208301529392505050565b60006001600160ff1b038184138284138082168684048611161561510457615104614d2e565b600160ff1b600087128281168783058912161561512357615123614d2e565b6000871292508782058712848416161561513f5761513f614d2e565b8785058712818416161561515557615155614d2e565b505050929093029392505050565b60008261517257615172615066565b600160ff1b82146000198414161561518c5761518c614d2e565b500590565b60008083128015600160ff1b8501841216156151af576151af614d2e565b6001600160ff1b03840183138116156151ca576151ca614d2e565b50500390565b634e487b7160e01b600052603160045260246000fd5b602081526000610a796020830184614cab56fe4abde63c3e81aefa5764b017968bc473e83e093d7e1a10247d19e0a3e4124018a26469706673582212205ae2e007163b23223ebb2dcbf19d3e74f4888776cdc3e02ec5f2f6b62645c6ca64736f6c63430008090033",
  "libraries": {
    "FundCalculationLogic": "0x49C6163162086371c4De2f826454Ceba77fA4607"
  },
  "implementation": "0xFbf39c0a7Fdc69DCe8068f7a6dEEa83988800B29",
  "devdoc": {
    "kind": "dev",
    "methods": {
      "acceptedContracts()": {
        "details": "The contact name listed in this method is also needed to be listed `requiredContracts` method."
      },
      "calculateBorrowedFundsFromOrders(bytes32,address)": {
        "params": {
          "_ccy": "Currency name in bytes32",
          "_user": "User's address"
        },
        "returns": {
          "borrowedAmount": "The borrowed amount due to the borrow orders being filled on the order book",
          "debtAmount": "The debt amount due to the borrow orders being filled on the order book",
          "workingOrdersAmount": "The working orders amount on the order book"
        }
      },
      "calculateFunds(bytes32,address)": {
        "params": {
          "_ccy": "Currency name in bytes32",
          "_user": "User's address"
        },
        "returns": {
          "borrowedAmount": "The borrowed amount due to the borrow orders being filled on the order book",
          "claimableAmount": "The claimable amount due to the lending orders being filled on the order book",
          "collateralAmount": "The actual collateral amount that is calculated by netting using the haircut.",
          "debtAmount": "The debt amount due to the borrow orders being filled on the order book",
          "lentAmount": "The lent amount due to the lend orders being filled on the order book",
          "workingBorrowOrdersAmount": "The working orders amount on the borrow order book",
          "workingLendOrdersAmount": "The working orders amount on the lend order book"
        }
      },
      "calculateLentFundsFromOrders(bytes32,address)": {
        "params": {
          "_ccy": "Currency name in bytes32",
          "_user": "User's address"
        },
        "returns": {
          "claimableAmount": "The claimable amount due to the lending orders being filled on the order book",
          "lentAmount": "The lent amount due to the lend orders being filled on the order book",
          "workingOrdersAmount": "The working orders amount on the order book"
        }
      },
      "calculateTotalFundsInETH(address,bytes32,uint256)": {
        "params": {
          "_user": "User's address"
        }
      },
      "cancelOrder(bytes32,uint256,uint48)": {
        "params": {
          "_ccy": "Currency name in bytes32 of the selected market",
          "_maturity": "The maturity of the selected market",
          "_orderId": "Market order id"
        }
      },
      "cleanAllOrders(address)": {
        "params": {
          "_user": "User's address"
        }
      },
      "cleanOrders(bytes32,address)": {
        "params": {
          "_ccy": "Currency name in bytes32",
          "_user": "User's address"
        }
      },
      "createLendOrderWithETH(bytes32,uint256,uint256)": {
        "params": {
          "_ccy": "Currency name in bytes32 of the selected market",
          "_maturity": "The maturity of the selected market",
          "_unitPrice": "Amount of unit price taker wish to borrow/lend"
        },
        "returns": {
          "_0": "True if the execution of the operation succeeds"
        }
      },
      "createLendingMarket(bytes32)": {
        "params": {
          "_ccy": "Main currency for new lending market"
        },
        "returns": {
          "market": "The proxy contract address of created lending market"
        }
      },
      "createOrder(bytes32,uint256,uint8,uint256,uint256)": {
        "params": {
          "_amount": "Amount of funds the maker wants to borrow/lend",
          "_ccy": "Currency name in bytes32 of the selected market",
          "_maturity": "The maturity of the selected market",
          "_side": "Order position type, Borrow or Lend",
          "_unitPrice": "Amount of unit price taker wish to borrow/lend"
        },
        "returns": {
          "_0": "True if the execution of the operation succeeds"
        }
      },
      "depositAndCreateLendOrderWithETH(bytes32,uint256,uint256)": {
        "params": {
          "_ccy": "Currency name in bytes32 of the selected market",
          "_maturity": "The maturity of the selected market",
          "_unitPrice": "Amount of unit price taker wish to borrow/lend"
        },
        "returns": {
          "_0": "True if the execution of the operation succeeds"
        }
      },
      "depositAndCreateOrder(bytes32,uint256,uint8,uint256,uint256)": {
        "params": {
          "_amount": "Amount of funds the maker wants to borrow/lend",
          "_ccy": "Currency name in bytes32 of the selected market",
          "_maturity": "The maturity of the selected market",
          "_side": "Order position type, Borrow or Lend",
          "_unitPrice": "Amount of unit price taker wish to borrow/lend"
        },
        "returns": {
          "_0": "True if the execution of the operation succeeds"
        }
      },
      "executeLiquidationCall(bytes32,bytes32,uint256,uint256,address,uint24)": {
        "details": "A liquidation amount is calculated from the selected debt, but its maximum amount is the same as a collateral amount. That amount needs to be set at liquidationAmountMax otherwise currency swapping using Uniswap will fail if the collateral is insufficient.",
        "params": {
          "_collateralCcy": "Currency name to be used as collateral",
          "_debtCcy": "Currency name to be used as debt",
          "_debtMaturity": "The market maturity of the debt",
          "_liquidationAmountMax": "Maximum acceptable liquidation Amount in debt currency",
          "_poolFee": "Uniswap pool fee",
          "_user": "User's address"
        },
        "returns": {
          "_0": "True if the execution of the operation succeeds"
        }
      },
      "getBorrowOrderBook(bytes32,uint256,uint256)": {
        "params": {
          "_ccy": "Currency name in bytes32",
          "_limit": "The limit number to get",
          "_maturity": "The maturity of the market"
        },
        "returns": {
          "amounts": "The array of borrow order amounts",
          "quantities": "The array of borrow order quantities",
          "unitPrices": "The array of borrow unit prices"
        }
      },
      "getBorrowUnitPrices(bytes32)": {
        "params": {
          "_ccy": "Currency name in bytes32"
        },
        "returns": {
          "_0": "Array with the borrowing prices per future value of the lending market"
        }
      },
      "getFutureValue(bytes32,uint256,address)": {
        "params": {
          "_ccy": "Currency name in bytes32 for Lending Market",
          "_maturity": "The maturity of the market",
          "_user": "User's address"
        },
        "returns": {
          "futureValue": "The future value"
        }
      },
      "getFutureValueVault(bytes32,uint256)": {
        "params": {
          "_ccy": "Currency name in bytes32",
          "_maturity": "The maturity of the market"
        },
        "returns": {
          "_0": "The lending market address"
        }
      },
      "getGenesisDate(bytes32)": {
        "params": {
          "_ccy": "Currency name in bytes32"
        },
        "returns": {
          "_0": "The genesis date"
        }
      },
      "getLendOrderBook(bytes32,uint256,uint256)": {
        "params": {
          "_ccy": "Currency name in bytes32",
          "_limit": "The limit number to get",
          "_maturity": "The maturity of the market"
        },
        "returns": {
          "amounts": "The array of lend order amounts",
          "quantities": "The array of lend order quantities",
          "unitPrices": "The array of borrow unit prices"
        }
      },
      "getLendUnitPrices(bytes32)": {
        "params": {
          "_ccy": "Currency name in bytes32"
        },
        "returns": {
          "_0": "Array with the lending prices per future value of the lending market"
        }
      },
      "getLendingMarket(bytes32,uint256)": {
        "params": {
          "_ccy": "Currency name in bytes32",
          "_maturity": "The maturity of the market"
        },
        "returns": {
          "_0": "The lending market address"
        }
      },
      "getLendingMarkets(bytes32)": {
        "params": {
          "_ccy": "Currency name in bytes32"
        },
        "returns": {
          "_0": "Array with the lending market address"
        }
      },
      "getMaturities(bytes32)": {
        "params": {
          "_ccy": "Currency name in bytes32"
        },
        "returns": {
          "_0": "Array with the lending market maturity"
        }
      },
      "getMidUnitPrices(bytes32)": {
        "params": {
          "_ccy": "Currency name in bytes32"
        },
        "returns": {
          "_0": "Array with the mid prices per future value of the lending market"
        }
      },
      "getPresentValue(bytes32,uint256,address)": {
        "params": {
          "_ccy": "Currency name in bytes32 for Lending Market",
          "_maturity": "The maturity of the market",
          "_user": "User's address"
        },
        "returns": {
          "presentValue": "The present value"
        }
      },
      "getTotalPresentValue(bytes32,address)": {
        "params": {
          "_ccy": "Currency name in bytes32 for Lending Market",
          "_user": "User's address"
        },
        "returns": {
          "totalPresentValue": "The total present value"
        }
      },
      "getTotalPresentValueInETH(address)": {
        "params": {
          "_user": "User's address"
        },
        "returns": {
          "totalPresentValue": "The total present value in ETH"
        }
      },
      "getUsedCurrencies(address)": {
        "params": {
          "_user": "User's address"
        },
        "returns": {
          "_0": "The array of the currency"
        }
      },
      "initialize(address,address)": {
        "details": "Function is invoked by the proxy contract when the contract is added to the ProxyController.",
        "params": {
          "_owner": "The address of the contract owner",
          "_resolver": "The address of the Address Resolver contract"
        }
      },
      "initializeLendingMarket(bytes32,uint256,uint256)": {
        "params": {
          "_ccy": "Currency name in bytes32",
          "_compoundFactor": "The initial compound factor when the initial market is opened",
          "_genesisDate": "The genesis date when the initial market is opened"
        }
      },
      "isInitializedLendingMarket(bytes32)": {
        "params": {
          "_ccy": "Currency name in bytes32"
        },
        "returns": {
          "_0": "The boolean if the lending market is initialized or not"
        }
      },
      "owner()": {
        "details": "Returns the address of the current owner."
      },
      "pauseLendingMarkets(bytes32)": {
        "params": {
          "_ccy": "Currency for pausing all lending markets"
        },
        "returns": {
          "_0": "True if the execution of the operation succeeds"
        }
      },
      "renounceOwnership()": {
        "details": "Leaves the contract without owner. It will not be possible to call `onlyOwner` functions anymore. Can only be called by the current owner. NOTE: Renouncing ownership will leave the contract without an owner, thereby removing any functionality that is only available to the owner."
      },
      "requiredContracts()": {
        "details": "The contract name list is in `./libraries/Contracts.sol`."
      },
      "rotateLendingMarkets(bytes32)": {
        "params": {
          "_ccy": "Currency name in bytes32 of the selected market"
        }
      },
      "transferOwnership(address)": {
        "details": "Transfers ownership of the contract to a new account (`newOwner`). Can only be called by the current owner."
      },
      "unpauseLendingMarkets(bytes32)": {
        "params": {
          "_ccy": "Currency name in bytes32"
        },
        "returns": {
          "_0": "True if the execution of the operation succeeds"
        }
      }
    },
    "version": 1
  },
  "userdoc": {
    "kind": "user",
    "methods": {
      "acceptedContracts()": {
        "notice": "Returns contract names that can call this contract."
      },
      "calculateBorrowedFundsFromOrders(bytes32,address)": {
        "notice": "Gets the funds that are calculated from the user's borrowing order list for the selected currency."
      },
      "calculateFunds(bytes32,address)": {
        "notice": "Gets the funds that are calculated from the user's lending and borrowing order list for the selected currency."
      },
      "calculateLentFundsFromOrders(bytes32,address)": {
        "notice": "Gets the funds that are calculated from the user's lending order list for the selected currency."
      },
      "calculateTotalFundsInETH(address,bytes32,uint256)": {
        "notice": "Gets the funds that are calculated from the user's lending and borrowing order list for all currencies in ETH."
      },
      "cancelOrder(bytes32,uint256,uint48)": {
        "notice": "Cancels the own order."
      },
      "cleanAllOrders(address)": {
        "notice": "Cleans user's all orders to remove order ids that are already filled on the order book."
      },
      "cleanOrders(bytes32,address)": {
        "notice": "Cleans user's orders to remove order ids that are already filled on the order book for a selected currency."
      },
      "createLendOrderWithETH(bytes32,uint256,uint256)": {
        "notice": "Creates a lend order with ETH. Takes the order if the order is matched, and places new order if not match it."
      },
      "createLendingMarket(bytes32)": {
        "notice": "Deploys new Lending Market and save address at lendingMarkets mapping.Reverts on deployment market with existing currency and term"
      },
      "createOrder(bytes32,uint256,uint8,uint256,uint256)": {
        "notice": "Creates an order. Takes orders if the orders are matched, and places new order if not match it. In addition, converts the future value to the genesis value if there is future value in past maturity before the execution of order creation."
      },
      "depositAndCreateLendOrderWithETH(bytes32,uint256,uint256)": {
        "notice": "Deposits funds and creates a lend order with ETH at the same time."
      },
      "depositAndCreateOrder(bytes32,uint256,uint8,uint256,uint256)": {
        "notice": "Deposits funds and creates an order at the same time."
      },
      "executeLiquidationCall(bytes32,bytes32,uint256,uint256,address,uint24)": {
        "notice": "Liquidates a lending position if the user's coverage is less than 1."
      },
      "getBorrowOrderBook(bytes32,uint256,uint256)": {
        "notice": "Gets the order book of borrow."
      },
      "getBorrowUnitPrices(bytes32)": {
        "notice": "Gets borrow prices per future value for the selected currency."
      },
      "getFutureValue(bytes32,uint256,address)": {
        "notice": "Gets the future value of the account for selected currency and maturity."
      },
      "getFutureValueVault(bytes32,uint256)": {
        "notice": "Gets the feture value contract address for the selected currency and maturity."
      },
      "getGenesisDate(bytes32)": {
        "notice": "Gets the genesis date when the first market opens for the selected currency."
      },
      "getLendOrderBook(bytes32,uint256,uint256)": {
        "notice": "Gets the order book of lend."
      },
      "getLendUnitPrices(bytes32)": {
        "notice": "Gets lend prices per future value for the selected currency."
      },
      "getLendingMarket(bytes32,uint256)": {
        "notice": "Gets the lending market contract address for the selected currency and maturity."
      },
      "getLendingMarkets(bytes32)": {
        "notice": "Gets the lending market contract addresses for the selected currency."
      },
      "getMaturities(bytes32)": {
        "notice": "Gets maturities for the selected currency."
      },
      "getMidUnitPrices(bytes32)": {
        "notice": "Gets mid prices per future value for the selected currency."
      },
      "getPresentValue(bytes32,uint256,address)": {
        "notice": "Gets the present value of the account for selected currency and maturity."
      },
      "getTotalPresentValue(bytes32,address)": {
        "notice": "Gets the total present value of the account for selected currency."
      },
      "getTotalPresentValueInETH(address)": {
        "notice": "Gets the total present value of the account converted to ETH."
      },
      "getUsedCurrencies(address)": {
        "notice": "Get all the currencies in which the user has lending positions or orders."
      },
      "initialize(address,address)": {
        "notice": "Initializes the contract."
      },
      "initializeLendingMarket(bytes32,uint256,uint256)": {
        "notice": "Initialize the lending market to set a genesis date and compound factor"
      },
      "isInitializedLendingMarket(bytes32)": {
        "notice": "Gets if the lending market is initialized."
      },
      "pauseLendingMarkets(bytes32)": {
        "notice": "Pauses previously deployed lending market by currency"
      },
      "requiredContracts()": {
        "notice": "Returns the contract names used in this contract."
      },
      "rotateLendingMarkets(bytes32)": {
        "notice": "Rotate the lending markets. In this rotation, the following actions are happened. - Updates the maturity at the beginning of the market array. - Moves the beginning of the market array to the end of it. - Update the compound factor in this contract using the next market unit price."
      },
      "unpauseLendingMarkets(bytes32)": {
        "notice": "Unpauses previously deployed lending market by currency"
      }
    },
    "notice": "Implements the module to manage separated lending order-book markets per maturity. This contract also works as a factory contract that can deploy(start)a new lending market for selected currency and maturity and has the calculation logic for the Genesis value in addition. Deployed Lending Markets are rotated and reused as it reaches the maturity date. At the time of rotation, a new maturity date is set and the compound factor is updated. The users mainly call this contract to create orders to lend or borrow funds.",
    "version": 1
  },
  "storageLayout": {
    "storage": [
      {
        "astId": 1446,
        "contract": "contracts/LendingMarketController.sol:LendingMarketController",
        "label": "_status",
        "offset": 0,
        "slot": "0",
        "type": "t_uint256"
      },
      {
        "astId": 1183,
        "contract": "contracts/LendingMarketController.sol:LendingMarketController",
        "label": "_initialized",
        "offset": 0,
        "slot": "1",
        "type": "t_uint8"
      },
      {
        "astId": 1186,
        "contract": "contracts/LendingMarketController.sol:LendingMarketController",
        "label": "_initializing",
        "offset": 1,
        "slot": "1",
        "type": "t_bool"
      }
    ],
    "types": {
      "t_bool": {
        "encoding": "inplace",
        "label": "bool",
        "numberOfBytes": "1"
      },
      "t_uint256": {
        "encoding": "inplace",
        "label": "uint256",
        "numberOfBytes": "32"
      },
      "t_uint8": {
        "encoding": "inplace",
        "label": "uint8",
        "numberOfBytes": "1"
      }
    }
  }
}