{
  "address": "0x3DDC6806b64914F030A103437e8B38F9Af041fe7",
  "abi": [
    {
      "inputs": [
        {
          "internalType": "bytes32[]",
          "name": "_ccys",
          "type": "bytes32[]"
        },
        {
          "internalType": "address",
          "name": "_user",
          "type": "address"
        }
      ],
      "name": "getOrders",
      "outputs": [
        {
          "components": [
            {
              "internalType": "uint48",
              "name": "orderId",
              "type": "uint48"
            },
            {
              "internalType": "bytes32",
              "name": "ccy",
              "type": "bytes32"
            },
            {
              "internalType": "uint256",
              "name": "maturity",
              "type": "uint256"
            },
            {
              "internalType": "enum ProtocolTypes.Side",
              "name": "side",
              "type": "ProtocolTypes.Side"
            },
            {
              "internalType": "uint256",
              "name": "unitPrice",
              "type": "uint256"
            },
            {
              "internalType": "uint256",
              "name": "amount",
              "type": "uint256"
            },
            {
              "internalType": "uint256",
              "name": "timestamp",
              "type": "uint256"
            },
            {
              "internalType": "bool",
              "name": "isPreOrder",
              "type": "bool"
            }
          ],
          "internalType": "struct ILendingMarketController.Order[]",
          "name": "activeOrders",
          "type": "tuple[]"
        },
        {
          "components": [
            {
              "internalType": "uint48",
              "name": "orderId",
              "type": "uint48"
            },
            {
              "internalType": "bytes32",
              "name": "ccy",
              "type": "bytes32"
            },
            {
              "internalType": "uint256",
              "name": "maturity",
              "type": "uint256"
            },
            {
              "internalType": "enum ProtocolTypes.Side",
              "name": "side",
              "type": "ProtocolTypes.Side"
            },
            {
              "internalType": "uint256",
              "name": "unitPrice",
              "type": "uint256"
            },
            {
              "internalType": "uint256",
              "name": "amount",
              "type": "uint256"
            },
            {
              "internalType": "uint256",
              "name": "timestamp",
              "type": "uint256"
            },
            {
              "internalType": "bool",
              "name": "isPreOrder",
              "type": "bool"
            }
          ],
          "internalType": "struct ILendingMarketController.Order[]",
          "name": "inactiveOrders",
          "type": "tuple[]"
        }
      ],
      "stateMutability": "view",
      "type": "function"
    }
  ],
  "transactionHash": "0x7cc405d2c4ba7adb25bfa64a241366d0a5c7e6f85d3bfdfb98a30ed3026fb299",
  "args": [],
  "numDeployments": 5,
  "solcInputHash": "6825000ef597f2c360d7e15edb13df2c",
  "bytecode": "0x61268961003a600b82828239805160001a60731461002d57634e487b7160e01b600052600060045260246000fd5b30600052607381538281f3fe730000000000000000000000000000000000000000301460806040526004361061006c5760003560e01c806317992e19146100715780632059b8d6146100935780632097fb89146100b3578063482f267a146100d357806397fe4515146100fd578063e7c494741461011d575b600080fd5b81801561007d57600080fd5b5061009161008c366004611d66565b61013d565b005b81801561009f57600080fd5b506100916100ae366004611d66565b61044a565b8180156100bf57600080fd5b506100916100ce366004611dc2565b6108b1565b6100e66100e1366004611ed1565b610afc565b6040516100f4929190612048565b60405180910390f35b81801561010957600080fd5b50610091610118366004612076565b610c93565b81801561012957600080fd5b506100916101383660046120f3565b610d1e565b600082116101835760405162461bcd60e51b815260206004820152600e60248201526d125b9d985b1a5908185b5bdd5b9d60921b60448201526064015b60405180910390fd5b604051639519832b60e01b8152600481018790526001600160a01b038516602482015260009073e72B42798c2E4c47D95BdddF23E46E1986bF4d9E90639519832b9060440160206040518083038186803b1580156101e057600080fd5b505af41580156101f4573d6000803e3d6000fd5b505050506040513d601f19601f820116820180604052508101906102189190612158565b90506014610227826001612187565b111561026e5760405162461bcd60e51b8152602060048201526016602482015275546f6f206d616e7920616374697665206f726465727360501b604482015260640161017a565b60405163b6eb033d60e01b815260048101889052602481018790526001600160a01b038616604482015273e72B42798c2E4c47D95BdddF23E46E1986bF4d9E9063b6eb033d9060640160006040518083038186803b1580156102cf57600080fd5b505af41580156102e3573d6000803e3d6000fd5b505050506102ef610f0a565b6001600160a01b03166328ff7a42868986886040518563ffffffff1660e01b8152600401610320949392919061219f565b60206040518083038186803b15801561033857600080fd5b505afa15801561034c573d6000803e3d6000fd5b505050506040513d601f19601f8201168201806040525081019061037091906121da565b6103b45760405162461bcd60e51b8152602060048201526015602482015274139bdd08195b9bdd59da0818dbdb1b185d195c985b605a1b604482015260640161017a565b600087815260008051602061263483398151915260209081526040808320898452909152908190205490516328378aab60e01b81526001600160a01b03909116906328378aab9061040f9087908990889088906004016121f5565b600060405180830381600087803b15801561042957600080fd5b505af115801561043d573d6000803e3d6000fd5b5050505050505050505050565b6000821161048b5760405162461bcd60e51b815260206004820152600e60248201526d125b9d985b1a5908185b5bdd5b9d60921b604482015260640161017a565b604051639519832b60e01b8152600481018790526001600160a01b038516602482015260009073e72B42798c2E4c47D95BdddF23E46E1986bF4d9E90639519832b9060440160206040518083038186803b1580156104e857600080fd5b505af41580156104fc573d6000803e3d6000fd5b505050506040513d601f19601f820116820180604052508101906105209190612158565b60405163b6eb033d60e01b815260048101899052602481018890526001600160a01b038716604482015290915073e72B42798c2E4c47D95BdddF23E46E1986bF4d9E9063b6eb033d9060640160006040518083038186803b15801561058457600080fd5b505af4158015610598573d6000803e3d6000fd5b505050506105a4610f0a565b6001600160a01b03166328ff7a42868986886040518563ffffffff1660e01b81526004016105d5949392919061219f565b60206040518083038186803b1580156105ed57600080fd5b505afa158015610601573d6000803e3d6000fd5b505050506040513d601f19601f8201168201806040525081019061062591906121da565b6106695760405162461bcd60e51b8152602060048201526015602482015274139bdd08195b9bdd59da0818dbdb1b185d195c985b605a1b604482015260640161017a565b60405163139e3fb360e21b815260048101889052600090737859F310174ffC3a9dA99B94e8824B986dC099Fb90634e78fecc9060240160206040518083038186803b1580156106b757600080fd5b505af41580156106cb573d6000803e3d6000fd5b505050506040513d601f19601f820116820180604052508101906106ef9190612158565b6000898152600080516020612634833981519152602090815260408083208b8452909152808220549051632111b03d60e11b8152929350909182916001600160a01b031690634223607a90610750908a908c908b908b908a90600401612227565b60e060405180830381600087803b15801561076a57600080fd5b505af115801561077e573d6000803e3d6000fd5b505050506040513d601f19601f820116820180604052508101906107a29190612261565b91509150600082602001519050868360600151826107c09190612187565b146107d3576107d0600186612187565b94505b601485111561081d5760405162461bcd60e51b8152602060048201526016602482015275546f6f206d616e7920616374697665206f726465727360501b604482015260640161017a565b6108348b8b8b8b8588604001518960000151610d1e565b6108628b8b60008b600181111561084d5761084d611f78565b1461085957600061085c565b60015b85610c93565b6001600160a01b03891660009081527f8041b8421ebd495cc61f38c788c9eb100daccf9bd36aa0bb920b7a15b2e0496e602052604090206108a3908c610f27565b505050505050505050505050565b6040516295a47160e71b815260048101849052602481018390526001600160a01b038216604482015260009073e72B42798c2E4c47D95BdddF23E46E1986bF4d9E90634ad23880906064016101206040518083038186803b15801561091557600080fd5b505af4158015610929573d6000803e3d6000fd5b505050506040513d601f19601f8201168201806040525081019061094d91906122f8565b606001519050600080600061096487878787610f3c565b92509250925061098587878784876020015188604001518960000151610d1e565b61099e8787600084600181111561084d5761084d611f78565b60008781527f8041b8421ebd495cc61f38c788c9eb100daccf9bd36aa0bb920b7a15b2e0496b6020908152604080832060008051602061263483398151915283528184208a85528352818420546001600160a01b039081168552925280832054815163070da1af60e11b8152898416600482015282519190931692630e1b435e926024808301939192829003018186803b158015610a3b57600080fd5b505afa158015610a4f573d6000803e3d6000fd5b505050506040513d601f19601f82011682018060405250810190610a739190612373565b5090508015610af25760405163b6eb033d60e01b815260048101899052602481018890526001600160a01b038716604482015273e72B42798c2E4c47D95BdddF23E46E1986bF4d9E9063b6eb033d906064015b60006040518083038186803b158015610ade57600080fd5b505af41580156108a3573d6000803e3d6000fd5b5050505050505050565b606080600080600086516001600160401b03811115610b1d57610b1d611dfb565b604051908082528060200260200182016040528015610b5057816020015b6060815260200190600190039081610b3b5790505b509050600087516001600160401b03811115610b6e57610b6e611dfb565b604051908082528060200260200182016040528015610ba157816020015b6060815260200190600190039081610b8c5790505b50905060005b8851811015610c6f57610bd3898281518110610bc557610bc5612397565b602002602001015189611333565b848381518110610be557610be5612397565b60200260200101848481518110610bfe57610bfe612397565b602002602001018290528290525050828181518110610c1f57610c1f612397565b60200260200101515185610c339190612187565b9450818181518110610c4757610c47612397565b60200260200101515184610c5b9190612187565b935080610c67816123ad565b915050610ba7565b50610c7a828561151b565b9550610c86818461151b565b9450505050509250929050565b604081015115610d1857805160208201516040808401519051631c872e8960e11b815273e72B42798c2E4c47D95BdddF23E46E1986bF4d9E9363390e5d1293610cec938a938a93928a92909160009081906004016123c8565b60006040518083038186803b158015610d0457600080fd5b505af4158015610af2573d6000803e3d6000fd5b50505050565b8115610f01576040516303e5fb5960e01b815260048101889052600090737859F310174ffC3a9dA99B94e8824B986dC099Fb906303e5fb599060240160206040518083038186803b158015610d7257600080fd5b505af4158015610d86573d6000803e3d6000fd5b505050506040513d601f19601f82011682018060405250810190610daa9190612158565b604051631c872e8960e11b815290915073e72B42798c2E4c47D95BdddF23E46E1986bF4d9E9063390e5d1290610df3908b908b908b908b908b908b908a906001906004016123c8565b60006040518083038186803b158015610e0b57600080fd5b505af4158015610e1f573d6000803e3d6000fd5b5050505073703c89dD5b0f4d3276A55804EB7fA1b2eF9E6F9163e88e18378989737859F310174ffC3a9dA99B94e8824B986dC099Fb63f1eaebae6040518163ffffffff1660e01b815260040160206040518083038186803b158015610e8357600080fd5b505af4158015610e97573d6000803e3d6000fd5b505050506040513d601f19601f82011682018060405250810190610ebb9190612158565b6040516001600160e01b031960e086901b168152600481019390935260248301919091526044820152606481018590526084810187905260a4810186905260c401610ac6565b50505050505050565b6000610f2269151bdad95b95985d5b1d60b21b61162f565b905090565b6000610f3383836116c7565b90505b92915050565b610f676040518060800160405280600081526020016000815260200160008152602001600081525090565b610f94604051806060016040528060006001600160a01b0316815260200160008152602001600081525090565b600083610fda5760405162461bcd60e51b81526020600482015260146024820152734675747572652056616c7565206973207a65726f60601b604482015260640161017a565b60405163139e3fb360e21b815260048101889052600090737859F310174ffC3a9dA99B94e8824B986dC099Fb90634e78fecc9060240160206040518083038186803b15801561102857600080fd5b505af415801561103c573d6000803e3d6000fd5b505050506040513d601f19601f820116820180604052508101906110609190612158565b6040516303e5fb5960e01b8152600481018a9052909150600090737859F310174ffC3a9dA99B94e8824B986dC099Fb906303e5fb599060240160206040518083038186803b1580156110b157600080fd5b505af41580156110c5573d6000803e3d6000fd5b505050506040513d601f19601f820116820180604052508101906110e99190612158565b9050600086131561121557600192506000611104428a61241a565b9050600061115a6111158385612431565b6111256127106301e13380612431565b61112f9190612187565b6127106301e133806111408c611716565b61114a9190612431565b6111549190612431565b9061176c565b60008c8152600080516020612634833981519152602090815260408083208e84529091529081902054905163eca3107f60e01b81529192506001600160a01b03169063eca3107f906111b69088908d9086908a906004016121f5565b60e060405180830381600087803b1580156111d057600080fd5b505af11580156111e4573d6000803e3d6000fd5b505050506040513d601f19601f820116820180604052508101906112089190612261565b9097509550611327915050565b600086121561132757600092508261122d428a61241a565b9050600061127161123e8385612431565b61124e6127106301e13380612431565b611258919061241a565b6127106301e1338061114061126c8d612450565b611716565b60008c8152600080516020612634833981519152602090815260408083208e84529091529081902054905163eca3107f60e01b81529192506001600160a01b03169063eca3107f906112cd9088908d9086908a906004016121f5565b60e060405180830381600087803b1580156112e757600080fd5b505af11580156112fb573d6000803e3d6000fd5b505050506040513d601f19601f8201168201806040525081019061131f9190612261565b909750955050505b50509450945094915050565b60008281527f8041b8421ebd495cc61f38c788c9eb100daccf9bd36aa0bb920b7a15b2e0496f602090815260408083206001600160a01b03851684529091528120606091829181908190611386906117dd565b9050600081516001600160401b038111156113a3576113a3611dfb565b6040519080825280602002602001820160405280156113d657816020015b60608152602001906001900390816113c15790505b509050600082516001600160401b038111156113f4576113f4611dfb565b60405190808252806020026020018201604052801561142757816020015b60608152602001906001900390816114125790505b50905060005b83518110156114f65761145a8a85838151811061144c5761144c612397565b60200260200101518b6117f1565b84838151811061146c5761146c612397565b6020026020010184848151811061148557611485612397565b6020026020010182905282905250508281815181106114a6576114a6612397565b602002602001015151866114ba9190612187565b95508181815181106114ce576114ce612397565b602002602001015151856114e29190612187565b9450806114ee816123ad565b91505061142d565b50611501828661151b565b965061150d818561151b565b955050505050509250929050565b6060816001600160401b0381111561153557611535611dfb565b60405190808252806020026020018201604052801561156e57816020015b61155b611cea565b8152602001906001900390816115535790505b5090506000805b84518110156116275760005b85828151811061159357611593612397565b602002602001015151811015611614578582815181106115b5576115b5612397565b602002602001015181815181106115ce576115ce612397565b60200260200101518484815181106115e8576115e8612397565b602002602001018190525082806115fe906123ad565b935050808061160c906123ad565b915050611581565b508061161f816123ad565b915050611575565b505092915050565b60008181527f4abde63c3e81aefa5764b017968bc473e83e093d7e1a10247d19e0a3e41240196020908152604080832054815170026b4b9b9b4b7339030b2323932b9b99d1607d1b9381019390935260318084018690528251808503909101815260519093019091526001600160a01b031690816116c05760405162461bcd60e51b815260040161017a919061246d565b5092915050565b600081815260018301602052604081205461170e57508154600181810184556000848152602080822090930184905584548482528286019093526040902091909155610f36565b506000610f36565b6000808212156117685760405162461bcd60e51b815260206004820181905260248201527f53616665436173743a2076616c7565206d75737420626520706f736974697665604482015260640161017a565b5090565b600080821161177a57600080fd5b600561178683856124c2565b61179190600a612431565b8361179d86600a612431565b6117a791906124c2565b6117b1919061241a565b10156117c8576117c182846124c2565b9050610f36565b6117d282846124c2565b6117c1906001612187565b606060006117ea83611b89565b9392505050565b60608060007f8041b8421ebd495cc61f38c788c9eb100daccf9bd36aa0bb920b7a15b2e04965600087815260079190910160209081526040808320888452909152808220549051638152b17360e01b81526001600160a01b038781166004830152909116925081908390638152b1739060240160006040518083038186803b15801561187c57600080fd5b505afa158015611890573d6000803e3d6000fd5b505050506040513d6000823e601f3d908101601f191682016040526118b8919081019061255f565b60405163bcc012ad60e01b81526001600160a01b03898116600483015292945090925060009182919086169063bcc012ad9060240160006040518083038186803b15801561190557600080fd5b505afa158015611919573d6000803e3d6000fd5b505050506040513d6000823e601f3d908101601f19168201604052611941919081019061255f565b91509150815184516119539190612187565b6001600160401b0381111561196a5761196a611dfb565b6040519080825280602002602001820160405280156119a357816020015b611990611cea565b8152602001906001900390816119885790505b509650805183516119b49190612187565b6001600160401b038111156119cb576119cb611dfb565b604051908082528060200260200182016040528015611a0457816020015b6119f1611cea565b8152602001906001900390816119e95790505b50955060005b8451811015611a6757611a378b87878481518110611a2a57611a2a612397565b6020026020010151611be5565b888281518110611a4957611a49612397565b60200260200101819052508080611a5f906123ad565b915050611a0a565b5060005b8251811015611ac757611a8b8b87858481518110611a2a57611a2a612397565b88828751611a999190612187565b81518110611aa957611aa9612397565b60200260200101819052508080611abf906123ad565b915050611a6b565b5060005b8351811015611b1b57611aeb8b87868481518110611a2a57611a2a612397565b878281518110611afd57611afd612397565b60200260200101819052508080611b13906123ad565b915050611acb565b5060005b8151811015611b7b57611b3f8b87848481518110611a2a57611a2a612397565b87828651611b4d9190612187565b81518110611b5d57611b5d612397565b60200260200101819052508080611b73906123ad565b915050611b1f565b505050505050935093915050565b606081600001805480602002602001604051908101604052809291908181526020018280548015611bd957602002820191906000526020600020905b815481526020019060010190808311611bc5575b50505050509050919050565b611bed611cea565b604051633e710cd560e11b815265ffffffffffff83166004820152600090819081908190819081906001600160a01b038a1690637ce219aa9060240160e06040518083038186803b158015611c4157600080fd5b505afa158015611c55573d6000803e3d6000fd5b505050506040513d601f19601f82011682018060405250810190611c7991906125c2565b965096509650509550955095506040518061010001604052808965ffffffffffff1681526020018b8152602001858152602001876001811115611cbe57611cbe611f78565b815260200186815260200184815260200183815260200182151581525096505050505050509392505050565b604080516101008101825260008082526020820181905291810182905290606082019081526020016000815260200160008152602001600081526020016000151581525090565b6001600160a01b0381168114611d4657600080fd5b50565b8035611d5481611d31565b919050565b60028110611d4657600080fd5b60008060008060008060c08789031215611d7f57600080fd5b86359550602087013594506040870135611d9881611d31565b93506060870135611da881611d59565b9598949750929560808101359460a0909101359350915050565b600080600060608486031215611dd757600080fd5b83359250602084013591506040840135611df081611d31565b809150509250925092565b634e487b7160e01b600052604160045260246000fd5b604051606081016001600160401b0381118282101715611e3357611e33611dfb565b60405290565b604051608081016001600160401b0381118282101715611e3357611e33611dfb565b60405161012081016001600160401b0381118282101715611e3357611e33611dfb565b604051601f8201601f191681016001600160401b0381118282101715611ea657611ea6611dfb565b604052919050565b60006001600160401b03821115611ec757611ec7611dfb565b5060051b60200190565b60008060408385031215611ee457600080fd5b82356001600160401b03811115611efa57600080fd5b8301601f81018513611f0b57600080fd5b80356020611f20611f1b83611eae565b611e7e565b82815260059290921b83018101918181019088841115611f3f57600080fd5b938201935b83851015611f5d57843582529382019390820190611f44565b9550611f6c9050868201611d49565b93505050509250929050565b634e487b7160e01b600052602160045260246000fd5b60028110611fac57634e487b7160e01b600052602160045260246000fd5b9052565b600081518084526020808501945080840160005b8381101561203d578151805165ffffffffffff168852838101518489015260408082015190890152606080820151611ffe828b0182611f8e565b50506080818101519089015260a0808201519089015260c0808201519089015260e0908101511515908801526101009096019590820190600101611fc4565b509495945050505050565b60408152600061205b6040830185611fb0565b828103602084015261206d8185611fb0565b95945050505050565b60008060008084860360c081121561208d57600080fd5b853594506020860135935060408601356120a681611d59565b92506060605f19820112156120ba57600080fd5b506120c3611e11565b60608601356120d181611d31565b81526080860135602082015260a0909501356040860152509194909350909190565b600080600080600080600060e0888a03121561210e57600080fd5b8735965060208801359550604088013561212781611d31565b9450606088013561213781611d59565b9699959850939660808101359560a0820135955060c0909101359350915050565b60006020828403121561216a57600080fd5b5051919050565b634e487b7160e01b600052601160045260246000fd5b6000821982111561219a5761219a612171565b500190565b6001600160a01b038516815260208101849052604081018390526080810161206d6060830184611f8e565b80518015158114611d5457600080fd5b6000602082840312156121ec57600080fd5b610f33826121ca565b608081016122038287611f8e565b6001600160a01b039490941660208201526040810192909252606090910152919050565b60a081016122358288611f8e565b6001600160a01b0395909516602082015260408101939093526060830191909152608090910152919050565b60008082840360e081121561227557600080fd5b608081121561228357600080fd5b61228b611e39565b84518152602085015160208201526040850151604082015260608501516060820152809350506060607f19820112156122c357600080fd5b506122cc611e11565b60808401516122da81611d31565b815260a0840151602082015260c09093015160408401525092909150565b6000610120828403121561230b57600080fd5b612313611e5b565b825181526020830151602082015260408301516040820152606083015160608201526080830151608082015260a083015160a082015260c083015160c082015260e083015160e08201526101008084015181830152508091505092915050565b6000806040838503121561238657600080fd5b505080516020909101519092909150565b634e487b7160e01b600052603260045260246000fd5b60006000198214156123c1576123c1612171565b5060010190565b888152602081018890526001600160a01b038716604082015261010081016123f36060830188611f8e565b8560808301528460a08301528360c083015282151560e08301529998505050505050505050565b60008282101561242c5761242c612171565b500390565b600081600019048311821515161561244b5761244b612171565b500290565b6000600160ff1b82141561246657612466612171565b5060000390565b600060208083528351808285015260005b8181101561249a5785810183015185820160400152820161247e565b818111156124ac576000604083870101525b50601f01601f1916929092016040019392505050565b6000826124df57634e487b7160e01b600052601260045260246000fd5b500490565b600082601f8301126124f557600080fd5b81516020612505611f1b83611eae565b82815260059290921b8401810191818101908684111561252457600080fd5b8286015b8481101561255457805165ffffffffffff811681146125475760008081fd5b8352918301918301612528565b509695505050505050565b6000806040838503121561257257600080fd5b82516001600160401b038082111561258957600080fd5b612595868387016124e4565b935060208501519150808211156125ab57600080fd5b506125b8858286016124e4565b9150509250929050565b600080600080600080600060e0888a0312156125dd57600080fd5b87516125e881611d59565b809750506020880151955060408801519450606088015161260881611d31565b608089015160a08a01519195509350915061262560c089016121ca565b90509295989194975092955056fe8041b8421ebd495cc61f38c788c9eb100daccf9bd36aa0bb920b7a15b2e0496ca26469706673582212205e2d29bcb97025b5c67b3569c983d0255f79b10796aea56eaaa14a11d2d9474564736f6c63430008090033",
  "deployedBytecode": "0x730000000000000000000000000000000000000000301460806040526004361061006c5760003560e01c806317992e19146100715780632059b8d6146100935780632097fb89146100b3578063482f267a146100d357806397fe4515146100fd578063e7c494741461011d575b600080fd5b81801561007d57600080fd5b5061009161008c366004611d66565b61013d565b005b81801561009f57600080fd5b506100916100ae366004611d66565b61044a565b8180156100bf57600080fd5b506100916100ce366004611dc2565b6108b1565b6100e66100e1366004611ed1565b610afc565b6040516100f4929190612048565b60405180910390f35b81801561010957600080fd5b50610091610118366004612076565b610c93565b81801561012957600080fd5b506100916101383660046120f3565b610d1e565b600082116101835760405162461bcd60e51b815260206004820152600e60248201526d125b9d985b1a5908185b5bdd5b9d60921b60448201526064015b60405180910390fd5b604051639519832b60e01b8152600481018790526001600160a01b038516602482015260009073__$e7d72ce98f1dce1f33c815a57604cff5ab$__90639519832b9060440160206040518083038186803b1580156101e057600080fd5b505af41580156101f4573d6000803e3d6000fd5b505050506040513d601f19601f820116820180604052508101906102189190612158565b90506014610227826001612187565b111561026e5760405162461bcd60e51b8152602060048201526016602482015275546f6f206d616e7920616374697665206f726465727360501b604482015260640161017a565b60405163b6eb033d60e01b815260048101889052602481018790526001600160a01b038616604482015273__$e7d72ce98f1dce1f33c815a57604cff5ab$__9063b6eb033d9060640160006040518083038186803b1580156102cf57600080fd5b505af41580156102e3573d6000803e3d6000fd5b505050506102ef610f0a565b6001600160a01b03166328ff7a42868986886040518563ffffffff1660e01b8152600401610320949392919061219f565b60206040518083038186803b15801561033857600080fd5b505afa15801561034c573d6000803e3d6000fd5b505050506040513d601f19601f8201168201806040525081019061037091906121da565b6103b45760405162461bcd60e51b8152602060048201526015602482015274139bdd08195b9bdd59da0818dbdb1b185d195c985b605a1b604482015260640161017a565b600087815260008051602061263483398151915260209081526040808320898452909152908190205490516328378aab60e01b81526001600160a01b03909116906328378aab9061040f9087908990889088906004016121f5565b600060405180830381600087803b15801561042957600080fd5b505af115801561043d573d6000803e3d6000fd5b5050505050505050505050565b6000821161048b5760405162461bcd60e51b815260206004820152600e60248201526d125b9d985b1a5908185b5bdd5b9d60921b604482015260640161017a565b604051639519832b60e01b8152600481018790526001600160a01b038516602482015260009073__$e7d72ce98f1dce1f33c815a57604cff5ab$__90639519832b9060440160206040518083038186803b1580156104e857600080fd5b505af41580156104fc573d6000803e3d6000fd5b505050506040513d601f19601f820116820180604052508101906105209190612158565b60405163b6eb033d60e01b815260048101899052602481018890526001600160a01b038716604482015290915073__$e7d72ce98f1dce1f33c815a57604cff5ab$__9063b6eb033d9060640160006040518083038186803b15801561058457600080fd5b505af4158015610598573d6000803e3d6000fd5b505050506105a4610f0a565b6001600160a01b03166328ff7a42868986886040518563ffffffff1660e01b81526004016105d5949392919061219f565b60206040518083038186803b1580156105ed57600080fd5b505afa158015610601573d6000803e3d6000fd5b505050506040513d601f19601f8201168201806040525081019061062591906121da565b6106695760405162461bcd60e51b8152602060048201526015602482015274139bdd08195b9bdd59da0818dbdb1b185d195c985b605a1b604482015260640161017a565b60405163139e3fb360e21b81526004810188905260009073__$e049441b2d898ade92927f540debd09cf4$__90634e78fecc9060240160206040518083038186803b1580156106b757600080fd5b505af41580156106cb573d6000803e3d6000fd5b505050506040513d601f19601f820116820180604052508101906106ef9190612158565b6000898152600080516020612634833981519152602090815260408083208b8452909152808220549051632111b03d60e11b8152929350909182916001600160a01b031690634223607a90610750908a908c908b908b908a90600401612227565b60e060405180830381600087803b15801561076a57600080fd5b505af115801561077e573d6000803e3d6000fd5b505050506040513d601f19601f820116820180604052508101906107a29190612261565b91509150600082602001519050868360600151826107c09190612187565b146107d3576107d0600186612187565b94505b601485111561081d5760405162461bcd60e51b8152602060048201526016602482015275546f6f206d616e7920616374697665206f726465727360501b604482015260640161017a565b6108348b8b8b8b8588604001518960000151610d1e565b6108628b8b60008b600181111561084d5761084d611f78565b1461085957600061085c565b60015b85610c93565b6001600160a01b03891660009081527f8041b8421ebd495cc61f38c788c9eb100daccf9bd36aa0bb920b7a15b2e0496e602052604090206108a3908c610f27565b505050505050505050505050565b6040516295a47160e71b815260048101849052602481018390526001600160a01b038216604482015260009073__$e7d72ce98f1dce1f33c815a57604cff5ab$__90634ad23880906064016101206040518083038186803b15801561091557600080fd5b505af4158015610929573d6000803e3d6000fd5b505050506040513d601f19601f8201168201806040525081019061094d91906122f8565b606001519050600080600061096487878787610f3c565b92509250925061098587878784876020015188604001518960000151610d1e565b61099e8787600084600181111561084d5761084d611f78565b60008781527f8041b8421ebd495cc61f38c788c9eb100daccf9bd36aa0bb920b7a15b2e0496b6020908152604080832060008051602061263483398151915283528184208a85528352818420546001600160a01b039081168552925280832054815163070da1af60e11b8152898416600482015282519190931692630e1b435e926024808301939192829003018186803b158015610a3b57600080fd5b505afa158015610a4f573d6000803e3d6000fd5b505050506040513d601f19601f82011682018060405250810190610a739190612373565b5090508015610af25760405163b6eb033d60e01b815260048101899052602481018890526001600160a01b038716604482015273__$e7d72ce98f1dce1f33c815a57604cff5ab$__9063b6eb033d906064015b60006040518083038186803b158015610ade57600080fd5b505af41580156108a3573d6000803e3d6000fd5b5050505050505050565b606080600080600086516001600160401b03811115610b1d57610b1d611dfb565b604051908082528060200260200182016040528015610b5057816020015b6060815260200190600190039081610b3b5790505b509050600087516001600160401b03811115610b6e57610b6e611dfb565b604051908082528060200260200182016040528015610ba157816020015b6060815260200190600190039081610b8c5790505b50905060005b8851811015610c6f57610bd3898281518110610bc557610bc5612397565b602002602001015189611333565b848381518110610be557610be5612397565b60200260200101848481518110610bfe57610bfe612397565b602002602001018290528290525050828181518110610c1f57610c1f612397565b60200260200101515185610c339190612187565b9450818181518110610c4757610c47612397565b60200260200101515184610c5b9190612187565b935080610c67816123ad565b915050610ba7565b50610c7a828561151b565b9550610c86818461151b565b9450505050509250929050565b604081015115610d1857805160208201516040808401519051631c872e8960e11b815273__$e7d72ce98f1dce1f33c815a57604cff5ab$__9363390e5d1293610cec938a938a93928a92909160009081906004016123c8565b60006040518083038186803b158015610d0457600080fd5b505af4158015610af2573d6000803e3d6000fd5b50505050565b8115610f01576040516303e5fb5960e01b81526004810188905260009073__$e049441b2d898ade92927f540debd09cf4$__906303e5fb599060240160206040518083038186803b158015610d7257600080fd5b505af4158015610d86573d6000803e3d6000fd5b505050506040513d601f19601f82011682018060405250810190610daa9190612158565b604051631c872e8960e11b815290915073__$e7d72ce98f1dce1f33c815a57604cff5ab$__9063390e5d1290610df3908b908b908b908b908b908b908a906001906004016123c8565b60006040518083038186803b158015610e0b57600080fd5b505af4158015610e1f573d6000803e3d6000fd5b5050505073__$53b43b4bdeb2460d1113627ef627de0cf6$__63e88e1837898973__$e049441b2d898ade92927f540debd09cf4$__63f1eaebae6040518163ffffffff1660e01b815260040160206040518083038186803b158015610e8357600080fd5b505af4158015610e97573d6000803e3d6000fd5b505050506040513d601f19601f82011682018060405250810190610ebb9190612158565b6040516001600160e01b031960e086901b168152600481019390935260248301919091526044820152606481018590526084810187905260a4810186905260c401610ac6565b50505050505050565b6000610f2269151bdad95b95985d5b1d60b21b61162f565b905090565b6000610f3383836116c7565b90505b92915050565b610f676040518060800160405280600081526020016000815260200160008152602001600081525090565b610f94604051806060016040528060006001600160a01b0316815260200160008152602001600081525090565b600083610fda5760405162461bcd60e51b81526020600482015260146024820152734675747572652056616c7565206973207a65726f60601b604482015260640161017a565b60405163139e3fb360e21b81526004810188905260009073__$e049441b2d898ade92927f540debd09cf4$__90634e78fecc9060240160206040518083038186803b15801561102857600080fd5b505af415801561103c573d6000803e3d6000fd5b505050506040513d601f19601f820116820180604052508101906110609190612158565b6040516303e5fb5960e01b8152600481018a905290915060009073__$e049441b2d898ade92927f540debd09cf4$__906303e5fb599060240160206040518083038186803b1580156110b157600080fd5b505af41580156110c5573d6000803e3d6000fd5b505050506040513d601f19601f820116820180604052508101906110e99190612158565b9050600086131561121557600192506000611104428a61241a565b9050600061115a6111158385612431565b6111256127106301e13380612431565b61112f9190612187565b6127106301e133806111408c611716565b61114a9190612431565b6111549190612431565b9061176c565b60008c8152600080516020612634833981519152602090815260408083208e84529091529081902054905163eca3107f60e01b81529192506001600160a01b03169063eca3107f906111b69088908d9086908a906004016121f5565b60e060405180830381600087803b1580156111d057600080fd5b505af11580156111e4573d6000803e3d6000fd5b505050506040513d601f19601f820116820180604052508101906112089190612261565b9097509550611327915050565b600086121561132757600092508261122d428a61241a565b9050600061127161123e8385612431565b61124e6127106301e13380612431565b611258919061241a565b6127106301e1338061114061126c8d612450565b611716565b60008c8152600080516020612634833981519152602090815260408083208e84529091529081902054905163eca3107f60e01b81529192506001600160a01b03169063eca3107f906112cd9088908d9086908a906004016121f5565b60e060405180830381600087803b1580156112e757600080fd5b505af11580156112fb573d6000803e3d6000fd5b505050506040513d601f19601f8201168201806040525081019061131f9190612261565b909750955050505b50509450945094915050565b60008281527f8041b8421ebd495cc61f38c788c9eb100daccf9bd36aa0bb920b7a15b2e0496f602090815260408083206001600160a01b03851684529091528120606091829181908190611386906117dd565b9050600081516001600160401b038111156113a3576113a3611dfb565b6040519080825280602002602001820160405280156113d657816020015b60608152602001906001900390816113c15790505b509050600082516001600160401b038111156113f4576113f4611dfb565b60405190808252806020026020018201604052801561142757816020015b60608152602001906001900390816114125790505b50905060005b83518110156114f65761145a8a85838151811061144c5761144c612397565b60200260200101518b6117f1565b84838151811061146c5761146c612397565b6020026020010184848151811061148557611485612397565b6020026020010182905282905250508281815181106114a6576114a6612397565b602002602001015151866114ba9190612187565b95508181815181106114ce576114ce612397565b602002602001015151856114e29190612187565b9450806114ee816123ad565b91505061142d565b50611501828661151b565b965061150d818561151b565b955050505050509250929050565b6060816001600160401b0381111561153557611535611dfb565b60405190808252806020026020018201604052801561156e57816020015b61155b611cea565b8152602001906001900390816115535790505b5090506000805b84518110156116275760005b85828151811061159357611593612397565b602002602001015151811015611614578582815181106115b5576115b5612397565b602002602001015181815181106115ce576115ce612397565b60200260200101518484815181106115e8576115e8612397565b602002602001018190525082806115fe906123ad565b935050808061160c906123ad565b915050611581565b508061161f816123ad565b915050611575565b505092915050565b60008181527f4abde63c3e81aefa5764b017968bc473e83e093d7e1a10247d19e0a3e41240196020908152604080832054815170026b4b9b9b4b7339030b2323932b9b99d1607d1b9381019390935260318084018690528251808503909101815260519093019091526001600160a01b031690816116c05760405162461bcd60e51b815260040161017a919061246d565b5092915050565b600081815260018301602052604081205461170e57508154600181810184556000848152602080822090930184905584548482528286019093526040902091909155610f36565b506000610f36565b6000808212156117685760405162461bcd60e51b815260206004820181905260248201527f53616665436173743a2076616c7565206d75737420626520706f736974697665604482015260640161017a565b5090565b600080821161177a57600080fd5b600561178683856124c2565b61179190600a612431565b8361179d86600a612431565b6117a791906124c2565b6117b1919061241a565b10156117c8576117c182846124c2565b9050610f36565b6117d282846124c2565b6117c1906001612187565b606060006117ea83611b89565b9392505050565b60608060007f8041b8421ebd495cc61f38c788c9eb100daccf9bd36aa0bb920b7a15b2e04965600087815260079190910160209081526040808320888452909152808220549051638152b17360e01b81526001600160a01b038781166004830152909116925081908390638152b1739060240160006040518083038186803b15801561187c57600080fd5b505afa158015611890573d6000803e3d6000fd5b505050506040513d6000823e601f3d908101601f191682016040526118b8919081019061255f565b60405163bcc012ad60e01b81526001600160a01b03898116600483015292945090925060009182919086169063bcc012ad9060240160006040518083038186803b15801561190557600080fd5b505afa158015611919573d6000803e3d6000fd5b505050506040513d6000823e601f3d908101601f19168201604052611941919081019061255f565b91509150815184516119539190612187565b6001600160401b0381111561196a5761196a611dfb565b6040519080825280602002602001820160405280156119a357816020015b611990611cea565b8152602001906001900390816119885790505b509650805183516119b49190612187565b6001600160401b038111156119cb576119cb611dfb565b604051908082528060200260200182016040528015611a0457816020015b6119f1611cea565b8152602001906001900390816119e95790505b50955060005b8451811015611a6757611a378b87878481518110611a2a57611a2a612397565b6020026020010151611be5565b888281518110611a4957611a49612397565b60200260200101819052508080611a5f906123ad565b915050611a0a565b5060005b8251811015611ac757611a8b8b87858481518110611a2a57611a2a612397565b88828751611a999190612187565b81518110611aa957611aa9612397565b60200260200101819052508080611abf906123ad565b915050611a6b565b5060005b8351811015611b1b57611aeb8b87868481518110611a2a57611a2a612397565b878281518110611afd57611afd612397565b60200260200101819052508080611b13906123ad565b915050611acb565b5060005b8151811015611b7b57611b3f8b87848481518110611a2a57611a2a612397565b87828651611b4d9190612187565b81518110611b5d57611b5d612397565b60200260200101819052508080611b73906123ad565b915050611b1f565b505050505050935093915050565b606081600001805480602002602001604051908101604052809291908181526020018280548015611bd957602002820191906000526020600020905b815481526020019060010190808311611bc5575b50505050509050919050565b611bed611cea565b604051633e710cd560e11b815265ffffffffffff83166004820152600090819081908190819081906001600160a01b038a1690637ce219aa9060240160e06040518083038186803b158015611c4157600080fd5b505afa158015611c55573d6000803e3d6000fd5b505050506040513d601f19601f82011682018060405250810190611c7991906125c2565b965096509650509550955095506040518061010001604052808965ffffffffffff1681526020018b8152602001858152602001876001811115611cbe57611cbe611f78565b815260200186815260200184815260200183815260200182151581525096505050505050509392505050565b604080516101008101825260008082526020820181905291810182905290606082019081526020016000815260200160008152602001600081526020016000151581525090565b6001600160a01b0381168114611d4657600080fd5b50565b8035611d5481611d31565b919050565b60028110611d4657600080fd5b60008060008060008060c08789031215611d7f57600080fd5b86359550602087013594506040870135611d9881611d31565b93506060870135611da881611d59565b9598949750929560808101359460a0909101359350915050565b600080600060608486031215611dd757600080fd5b83359250602084013591506040840135611df081611d31565b809150509250925092565b634e487b7160e01b600052604160045260246000fd5b604051606081016001600160401b0381118282101715611e3357611e33611dfb565b60405290565b604051608081016001600160401b0381118282101715611e3357611e33611dfb565b60405161012081016001600160401b0381118282101715611e3357611e33611dfb565b604051601f8201601f191681016001600160401b0381118282101715611ea657611ea6611dfb565b604052919050565b60006001600160401b03821115611ec757611ec7611dfb565b5060051b60200190565b60008060408385031215611ee457600080fd5b82356001600160401b03811115611efa57600080fd5b8301601f81018513611f0b57600080fd5b80356020611f20611f1b83611eae565b611e7e565b82815260059290921b83018101918181019088841115611f3f57600080fd5b938201935b83851015611f5d57843582529382019390820190611f44565b9550611f6c9050868201611d49565b93505050509250929050565b634e487b7160e01b600052602160045260246000fd5b60028110611fac57634e487b7160e01b600052602160045260246000fd5b9052565b600081518084526020808501945080840160005b8381101561203d578151805165ffffffffffff168852838101518489015260408082015190890152606080820151611ffe828b0182611f8e565b50506080818101519089015260a0808201519089015260c0808201519089015260e0908101511515908801526101009096019590820190600101611fc4565b509495945050505050565b60408152600061205b6040830185611fb0565b828103602084015261206d8185611fb0565b95945050505050565b60008060008084860360c081121561208d57600080fd5b853594506020860135935060408601356120a681611d59565b92506060605f19820112156120ba57600080fd5b506120c3611e11565b60608601356120d181611d31565b81526080860135602082015260a0909501356040860152509194909350909190565b600080600080600080600060e0888a03121561210e57600080fd5b8735965060208801359550604088013561212781611d31565b9450606088013561213781611d59565b9699959850939660808101359560a0820135955060c0909101359350915050565b60006020828403121561216a57600080fd5b5051919050565b634e487b7160e01b600052601160045260246000fd5b6000821982111561219a5761219a612171565b500190565b6001600160a01b038516815260208101849052604081018390526080810161206d6060830184611f8e565b80518015158114611d5457600080fd5b6000602082840312156121ec57600080fd5b610f33826121ca565b608081016122038287611f8e565b6001600160a01b039490941660208201526040810192909252606090910152919050565b60a081016122358288611f8e565b6001600160a01b0395909516602082015260408101939093526060830191909152608090910152919050565b60008082840360e081121561227557600080fd5b608081121561228357600080fd5b61228b611e39565b84518152602085015160208201526040850151604082015260608501516060820152809350506060607f19820112156122c357600080fd5b506122cc611e11565b60808401516122da81611d31565b815260a0840151602082015260c09093015160408401525092909150565b6000610120828403121561230b57600080fd5b612313611e5b565b825181526020830151602082015260408301516040820152606083015160608201526080830151608082015260a083015160a082015260c083015160c082015260e083015160e08201526101008084015181830152508091505092915050565b6000806040838503121561238657600080fd5b505080516020909101519092909150565b634e487b7160e01b600052603260045260246000fd5b60006000198214156123c1576123c1612171565b5060010190565b888152602081018890526001600160a01b038716604082015261010081016123f36060830188611f8e565b8560808301528460a08301528360c083015282151560e08301529998505050505050505050565b60008282101561242c5761242c612171565b500390565b600081600019048311821515161561244b5761244b612171565b500290565b6000600160ff1b82141561246657612466612171565b5060000390565b600060208083528351808285015260005b8181101561249a5785810183015185820160400152820161247e565b818111156124ac576000604083870101525b50601f01601f1916929092016040019392505050565b6000826124df57634e487b7160e01b600052601260045260246000fd5b500490565b600082601f8301126124f557600080fd5b81516020612505611f1b83611eae565b82815260059290921b8401810191818101908684111561252457600080fd5b8286015b8481101561255457805165ffffffffffff811681146125475760008081fd5b8352918301918301612528565b509695505050505050565b6000806040838503121561257257600080fd5b82516001600160401b038082111561258957600080fd5b612595868387016124e4565b935060208501519150808211156125ab57600080fd5b506125b8858286016124e4565b9150509250929050565b600080600080600080600060e0888a0312156125dd57600080fd5b87516125e881611d59565b809750506020880151955060408801519450606088015161260881611d31565b608089015160a08a01519195509350915061262560c089016121ca565b90509295989194975092955056fe8041b8421ebd495cc61f38c788c9eb100daccf9bd36aa0bb920b7a15b2e0496ca26469706673582212205e2d29bcb97025b5c67b3569c983d0255f79b10796aea56eaaa14a11d2d9474564736f6c63430008090033",
  "libraries": {
    "FundManagementLogic": "0xe72B42798c2E4c47D95BdddF23E46E1986bF4d9E",
    "LendingMarketConfigurationLogic": "0x7859F310174ffC3a9dA99B94e8824B986dC099Fb",
    "LendingMarketOperationLogic": "0x703c89dD5b0f4d3276A55804EB7fA1b2eF9E6F91"
  },
  "devdoc": {
    "kind": "dev",
    "methods": {},
    "version": 1
  },
  "userdoc": {
    "kind": "user",
    "methods": {},
    "version": 1
  },
  "storageLayout": {
    "storage": [],
    "types": null
  }
}