{
  "address": "0x6301773e1B261eEE3ACfAc010d3745Fa08C7bCbA",
  "abi": [
    {
      "anonymous": false,
      "inputs": [
        {
          "indexed": false,
          "internalType": "bytes32",
          "name": "name",
          "type": "bytes32"
        },
        {
          "indexed": false,
          "internalType": "address",
          "name": "destination",
          "type": "address"
        }
      ],
      "name": "CacheUpdated",
      "type": "event"
    },
    {
      "anonymous": false,
      "inputs": [
        {
          "indexed": true,
          "internalType": "bytes32",
          "name": "ccy",
          "type": "bytes32"
        },
        {
          "indexed": false,
          "internalType": "uint256",
          "name": "maturity",
          "type": "uint256"
        },
        {
          "indexed": false,
          "internalType": "uint256",
          "name": "rate",
          "type": "uint256"
        },
        {
          "indexed": false,
          "internalType": "uint256",
          "name": "tenor",
          "type": "uint256"
        }
      ],
      "name": "CompoundFactorUpdated",
      "type": "event"
    },
    {
      "anonymous": false,
      "inputs": [
        {
          "indexed": false,
          "internalType": "uint8",
          "name": "version",
          "type": "uint8"
        }
      ],
      "name": "Initialized",
      "type": "event"
    },
    {
      "anonymous": false,
      "inputs": [
        {
          "indexed": false,
          "internalType": "bytes32",
          "name": "ccy",
          "type": "bytes32"
        },
        {
          "indexed": true,
          "internalType": "address",
          "name": "marketAddr",
          "type": "address"
        },
        {
          "indexed": false,
          "internalType": "uint256",
          "name": "index",
          "type": "uint256"
        },
        {
          "indexed": false,
          "internalType": "uint256",
          "name": "maturity",
          "type": "uint256"
        }
      ],
      "name": "LendingMarketCreated",
      "type": "event"
    },
    {
      "anonymous": false,
      "inputs": [
        {
          "indexed": false,
          "internalType": "bytes32",
          "name": "ccy",
          "type": "bytes32"
        },
        {
          "indexed": false,
          "internalType": "uint256",
          "name": "oldMaturity",
          "type": "uint256"
        },
        {
          "indexed": false,
          "internalType": "uint256",
          "name": "newMaturity",
          "type": "uint256"
        }
      ],
      "name": "LendingMarketsRotated",
      "type": "event"
    },
    {
      "anonymous": false,
      "inputs": [
        {
          "indexed": false,
          "internalType": "address",
          "name": "lender",
          "type": "address"
        },
        {
          "indexed": false,
          "internalType": "address",
          "name": "borrower",
          "type": "address"
        },
        {
          "indexed": false,
          "internalType": "bytes32",
          "name": "ccy",
          "type": "bytes32"
        },
        {
          "indexed": false,
          "internalType": "uint256",
          "name": "maturity",
          "type": "uint256"
        },
        {
          "indexed": false,
          "internalType": "uint256",
          "name": "amount",
          "type": "uint256"
        },
        {
          "indexed": false,
          "internalType": "uint256",
          "name": "rate",
          "type": "uint256"
        }
      ],
      "name": "OrderFilled",
      "type": "event"
    },
    {
      "anonymous": false,
      "inputs": [
        {
          "indexed": true,
          "internalType": "address",
          "name": "previousOwner",
          "type": "address"
        },
        {
          "indexed": true,
          "internalType": "address",
          "name": "newOwner",
          "type": "address"
        }
      ],
      "name": "OwnershipTransferred",
      "type": "event"
    },
    {
      "anonymous": false,
      "inputs": [
        {
          "indexed": true,
          "internalType": "bytes32",
          "name": "id",
          "type": "bytes32"
        },
        {
          "indexed": true,
          "internalType": "address",
          "name": "proxyAddress",
          "type": "address"
        },
        {
          "indexed": true,
          "internalType": "address",
          "name": "implementationAddress",
          "type": "address"
        }
      ],
      "name": "ProxyCreated",
      "type": "event"
    },
    {
      "anonymous": false,
      "inputs": [
        {
          "indexed": true,
          "internalType": "bytes32",
          "name": "id",
          "type": "bytes32"
        },
        {
          "indexed": true,
          "internalType": "address",
          "name": "proxyAddress",
          "type": "address"
        },
        {
          "indexed": true,
          "internalType": "address",
          "name": "newImplementationAddress",
          "type": "address"
        },
        {
          "indexed": false,
          "internalType": "address",
          "name": "oldImplementationAddress",
          "type": "address"
        }
      ],
      "name": "ProxyUpdated",
      "type": "event"
    },
    {
      "anonymous": false,
      "inputs": [
        {
          "indexed": true,
          "internalType": "bytes32",
          "name": "ccy",
          "type": "bytes32"
        },
        {
          "indexed": true,
          "internalType": "address",
          "name": "from",
          "type": "address"
        },
        {
          "indexed": true,
          "internalType": "address",
          "name": "to",
          "type": "address"
        },
        {
          "indexed": false,
          "internalType": "int256",
          "name": "value",
          "type": "int256"
        }
      ],
      "name": "Transfer",
      "type": "event"
    },
    {
      "inputs": [],
      "name": "acceptedContracts",
      "outputs": [
        {
          "internalType": "bytes32[]",
          "name": "contracts",
          "type": "bytes32[]"
        }
      ],
      "stateMutability": "pure",
      "type": "function"
    },
    {
      "inputs": [],
      "name": "buildCache",
      "outputs": [],
      "stateMutability": "nonpayable",
      "type": "function"
    },
    {
      "inputs": [
        {
          "internalType": "bytes32",
          "name": "_ccy",
          "type": "bytes32"
        },
        {
          "internalType": "uint256",
          "name": "_maturity",
          "type": "uint256"
        },
        {
          "internalType": "uint256",
          "name": "_orderId",
          "type": "uint256"
        }
      ],
      "name": "cancelOrder",
      "outputs": [
        {
          "internalType": "bool",
          "name": "",
          "type": "bool"
        }
      ],
      "stateMutability": "nonpayable",
      "type": "function"
    },
    {
      "inputs": [
        {
          "internalType": "address",
          "name": "_user",
          "type": "address"
        }
      ],
      "name": "convertFutureValueToGenesisValue",
      "outputs": [],
      "stateMutability": "nonpayable",
      "type": "function"
    },
    {
      "inputs": [
        {
          "internalType": "bytes32",
          "name": "_ccy",
          "type": "bytes32"
        }
      ],
      "name": "createLendingMarket",
      "outputs": [
        {
          "internalType": "address",
          "name": "market",
          "type": "address"
        }
      ],
      "stateMutability": "nonpayable",
      "type": "function"
    },
    {
      "inputs": [
        {
          "internalType": "bytes32",
          "name": "_ccy",
          "type": "bytes32"
        },
        {
          "internalType": "uint256",
          "name": "_maturity",
          "type": "uint256"
        },
        {
          "internalType": "enum ProtocolTypes.Side",
          "name": "_side",
          "type": "uint8"
        },
        {
          "internalType": "uint256",
          "name": "_amount",
          "type": "uint256"
        },
        {
          "internalType": "uint256",
          "name": "_rate",
          "type": "uint256"
        }
      ],
      "name": "createOrder",
      "outputs": [
        {
          "internalType": "bool",
          "name": "",
          "type": "bool"
        }
      ],
      "stateMutability": "nonpayable",
      "type": "function"
    },
    {
      "inputs": [
        {
          "internalType": "bytes32",
          "name": "_ccy",
          "type": "bytes32"
        }
      ],
      "name": "decimals",
      "outputs": [
        {
          "internalType": "uint8",
          "name": "",
          "type": "uint8"
        }
      ],
      "stateMutability": "view",
      "type": "function"
    },
    {
      "inputs": [
        {
          "internalType": "bytes32",
          "name": "_ccy",
          "type": "bytes32"
        },
        {
          "internalType": "uint256",
          "name": "_maturity",
          "type": "uint256"
        },
        {
          "internalType": "int256",
          "name": "_futureValueInMaturity",
          "type": "int256"
        }
      ],
      "name": "futureValueOf",
      "outputs": [
        {
          "internalType": "int256",
          "name": "",
          "type": "int256"
        }
      ],
      "stateMutability": "view",
      "type": "function"
    },
    {
      "inputs": [
        {
          "internalType": "bytes32",
          "name": "_ccy",
          "type": "bytes32"
        }
      ],
      "name": "getBasisDate",
      "outputs": [
        {
          "internalType": "uint256",
          "name": "",
          "type": "uint256"
        }
      ],
      "stateMutability": "view",
      "type": "function"
    },
    {
      "inputs": [
        {
          "internalType": "bytes32",
          "name": "beaconName",
          "type": "bytes32"
        }
      ],
      "name": "getBeaconProxyAddress",
      "outputs": [
        {
          "internalType": "address",
          "name": "",
          "type": "address"
        }
      ],
      "stateMutability": "view",
      "type": "function"
    },
    {
      "inputs": [
        {
          "internalType": "bytes32",
          "name": "_ccy",
          "type": "bytes32"
        }
      ],
      "name": "getBorrowRates",
      "outputs": [
        {
          "internalType": "uint256[]",
          "name": "",
          "type": "uint256[]"
        }
      ],
      "stateMutability": "view",
      "type": "function"
    },
    {
      "inputs": [
        {
          "internalType": "bytes32",
          "name": "_ccy",
          "type": "bytes32"
        }
      ],
      "name": "getCompoundFactor",
      "outputs": [
        {
          "internalType": "uint256",
          "name": "",
          "type": "uint256"
        }
      ],
      "stateMutability": "view",
      "type": "function"
    },
    {
      "inputs": [
        {
          "internalType": "bytes32",
          "name": "_ccy",
          "type": "bytes32"
        },
        {
          "internalType": "uint256",
          "name": "_maturity",
          "type": "uint256"
        }
      ],
      "name": "getCompoundFactorInMaturity",
      "outputs": [
        {
          "internalType": "uint256",
          "name": "",
          "type": "uint256"
        }
      ],
      "stateMutability": "view",
      "type": "function"
    },
    {
      "inputs": [
        {
          "internalType": "bytes32",
          "name": "_ccy",
          "type": "bytes32"
        },
        {
          "internalType": "address",
          "name": "_account",
          "type": "address"
        }
      ],
      "name": "getGenesisValue",
      "outputs": [
        {
          "internalType": "int256",
          "name": "",
          "type": "int256"
        }
      ],
      "stateMutability": "view",
      "type": "function"
    },
    {
      "inputs": [
        {
          "internalType": "bytes32",
          "name": "_ccy",
          "type": "bytes32"
        }
      ],
      "name": "getLendRates",
      "outputs": [
        {
          "internalType": "uint256[]",
          "name": "",
          "type": "uint256[]"
        }
      ],
      "stateMutability": "view",
      "type": "function"
    },
    {
      "inputs": [
        {
          "internalType": "bytes32",
          "name": "_ccy",
          "type": "bytes32"
        },
        {
          "internalType": "uint256",
          "name": "_maturity",
          "type": "uint256"
        }
      ],
      "name": "getLendingMarket",
      "outputs": [
        {
          "internalType": "address",
          "name": "",
          "type": "address"
        }
      ],
      "stateMutability": "view",
      "type": "function"
    },
    {
      "inputs": [
        {
          "internalType": "bytes32",
          "name": "_ccy",
          "type": "bytes32"
        }
      ],
      "name": "getLendingMarkets",
      "outputs": [
        {
          "internalType": "address[]",
          "name": "",
          "type": "address[]"
        }
      ],
      "stateMutability": "view",
      "type": "function"
    },
    {
      "inputs": [
        {
          "internalType": "bytes32",
          "name": "_ccy",
          "type": "bytes32"
        }
      ],
      "name": "getMaturities",
      "outputs": [
        {
          "internalType": "uint256[]",
          "name": "",
          "type": "uint256[]"
        }
      ],
      "stateMutability": "view",
      "type": "function"
    },
    {
      "inputs": [
        {
          "internalType": "bytes32",
          "name": "_ccy",
          "type": "bytes32"
        },
        {
          "internalType": "uint256",
          "name": "_maturity",
          "type": "uint256"
        }
      ],
      "name": "getMaturityRate",
      "outputs": [
        {
          "components": [
            {
              "internalType": "uint256",
              "name": "rate",
              "type": "uint256"
            },
            {
              "internalType": "uint256",
              "name": "tenor",
              "type": "uint256"
            },
            {
              "internalType": "uint256",
              "name": "compoundFactor",
              "type": "uint256"
            },
            {
              "internalType": "uint256",
              "name": "next",
              "type": "uint256"
            },
            {
              "internalType": "uint256",
              "name": "prev",
              "type": "uint256"
            }
          ],
          "internalType": "struct MaturityRate",
          "name": "",
          "type": "tuple"
        }
      ],
      "stateMutability": "view",
      "type": "function"
    },
    {
      "inputs": [
        {
          "internalType": "bytes32",
          "name": "_ccy",
          "type": "bytes32"
        }
      ],
      "name": "getMidRates",
      "outputs": [
        {
          "internalType": "uint256[]",
          "name": "",
          "type": "uint256[]"
        }
      ],
      "stateMutability": "view",
      "type": "function"
    },
    {
      "inputs": [
        {
          "internalType": "bytes32",
          "name": "_ccy",
          "type": "bytes32"
        }
      ],
      "name": "getTotalBorrowingSupply",
      "outputs": [
        {
          "internalType": "uint256",
          "name": "",
          "type": "uint256"
        }
      ],
      "stateMutability": "view",
      "type": "function"
    },
    {
      "inputs": [
        {
          "internalType": "bytes32",
          "name": "_ccy",
          "type": "bytes32"
        }
      ],
      "name": "getTotalLendingSupply",
      "outputs": [
        {
          "internalType": "uint256",
          "name": "",
          "type": "uint256"
        }
      ],
      "stateMutability": "view",
      "type": "function"
    },
    {
      "inputs": [
        {
          "internalType": "bytes32",
          "name": "_ccy",
          "type": "bytes32"
        },
        {
          "internalType": "address",
          "name": "_account",
          "type": "address"
        }
      ],
      "name": "getTotalPresentValue",
      "outputs": [
        {
          "internalType": "int256",
          "name": "totalPresentValue",
          "type": "int256"
        }
      ],
      "stateMutability": "view",
      "type": "function"
    },
    {
      "inputs": [
        {
          "internalType": "address",
          "name": "_account",
          "type": "address"
        }
      ],
      "name": "getTotalPresentValueInETH",
      "outputs": [
        {
          "internalType": "int256",
          "name": "totalPresentValue",
          "type": "int256"
        }
      ],
      "stateMutability": "view",
      "type": "function"
    },
    {
      "inputs": [
        {
          "internalType": "address",
          "name": "_owner",
          "type": "address"
        },
        {
          "internalType": "address",
          "name": "_resolver",
          "type": "address"
        }
      ],
      "name": "initialize",
      "outputs": [],
      "stateMutability": "nonpayable",
      "type": "function"
    },
    {
      "inputs": [
        {
          "internalType": "bytes32",
          "name": "_ccy",
          "type": "bytes32"
        },
        {
          "internalType": "uint256",
          "name": "_basisDate",
          "type": "uint256"
        },
        {
          "internalType": "uint256",
          "name": "_compoundFactor",
          "type": "uint256"
        }
      ],
      "name": "initializeLendingMarket",
      "outputs": [],
      "stateMutability": "nonpayable",
      "type": "function"
    },
    {
      "inputs": [
        {
          "internalType": "bytes32",
          "name": "_ccy",
          "type": "bytes32"
        }
      ],
      "name": "isInitializedLendingMarket",
      "outputs": [
        {
          "internalType": "bool",
          "name": "",
          "type": "bool"
        }
      ],
      "stateMutability": "view",
      "type": "function"
    },
    {
      "inputs": [
        {
          "internalType": "bytes32",
          "name": "_ccy",
          "type": "bytes32"
        }
      ],
      "name": "isRegisteredCurrency",
      "outputs": [
        {
          "internalType": "bool",
          "name": "",
          "type": "bool"
        }
      ],
      "stateMutability": "view",
      "type": "function"
    },
    {
      "inputs": [],
      "name": "isResolverCached",
      "outputs": [
        {
          "internalType": "bool",
          "name": "",
          "type": "bool"
        }
      ],
      "stateMutability": "view",
      "type": "function"
    },
    {
      "inputs": [
        {
          "internalType": "bytes32",
          "name": "_ccy",
          "type": "bytes32"
        },
        {
          "internalType": "uint256",
          "name": "_maturity",
          "type": "uint256"
        },
        {
          "internalType": "enum ProtocolTypes.Side",
          "name": "_side",
          "type": "uint8"
        },
        {
          "internalType": "uint256",
          "name": "_amount",
          "type": "uint256"
        },
        {
          "internalType": "uint256",
          "name": "_rate",
          "type": "uint256"
        }
      ],
      "name": "matchOrders",
      "outputs": [
        {
          "internalType": "bool",
          "name": "",
          "type": "bool"
        }
      ],
      "stateMutability": "view",
      "type": "function"
    },
    {
      "inputs": [],
      "name": "owner",
      "outputs": [
        {
          "internalType": "address",
          "name": "",
          "type": "address"
        }
      ],
      "stateMutability": "view",
      "type": "function"
    },
    {
      "inputs": [
        {
          "internalType": "bytes32",
          "name": "_ccy",
          "type": "bytes32"
        }
      ],
      "name": "pauseLendingMarkets",
      "outputs": [
        {
          "internalType": "bool",
          "name": "",
          "type": "bool"
        }
      ],
      "stateMutability": "nonpayable",
      "type": "function"
    },
    {
      "inputs": [],
      "name": "renounceOwnership",
      "outputs": [],
      "stateMutability": "nonpayable",
      "type": "function"
    },
    {
      "inputs": [],
      "name": "requiredContracts",
      "outputs": [
        {
          "internalType": "bytes32[]",
          "name": "contracts",
          "type": "bytes32[]"
        }
      ],
      "stateMutability": "pure",
      "type": "function"
    },
    {
      "inputs": [],
      "name": "resolver",
      "outputs": [
        {
          "internalType": "contract IAddressResolver",
          "name": "",
          "type": "address"
        }
      ],
      "stateMutability": "view",
      "type": "function"
    },
    {
      "inputs": [
        {
          "internalType": "bytes32",
          "name": "_ccy",
          "type": "bytes32"
        }
      ],
      "name": "rotateLendingMarkets",
      "outputs": [],
      "stateMutability": "nonpayable",
      "type": "function"
    },
    {
      "inputs": [
        {
          "internalType": "address",
          "name": "newImpl",
          "type": "address"
        }
      ],
      "name": "setLendingMarketImpl",
      "outputs": [],
      "stateMutability": "nonpayable",
      "type": "function"
    },
    {
      "inputs": [
        {
          "internalType": "address",
          "name": "newOwner",
          "type": "address"
        }
      ],
      "name": "transferOwnership",
      "outputs": [],
      "stateMutability": "nonpayable",
      "type": "function"
    },
    {
      "inputs": [
        {
          "internalType": "bytes32",
          "name": "_ccy",
          "type": "bytes32"
        }
      ],
      "name": "unpauseLendingMarkets",
      "outputs": [
        {
          "internalType": "bool",
          "name": "",
          "type": "bool"
        }
      ],
      "stateMutability": "nonpayable",
      "type": "function"
    }
  ],
  "transactionHash": "0x707500bcb060e821cdacd07a329e8e09a772f08e8f072bfda56ef53cb03f1127",
  "args": [],
  "numDeployments": 10,
  "solcInputHash": "d4bdd79c132b5ae2c41e287553dc1e3d",
  "bytecode": "0x608060405234801561001057600080fd5b506001600355615e47806100256000396000f3fe60806040523480156200001157600080fd5b50600436106200026d5760003560e01c806375b82fe91162000155578063b84aef2211620000c7578063e99d05381162000086578063e99d053814620005e0578063ef0799b314620005f7578063f2fde38b146200060e578063faca409b1462000625578063fb54a6b3146200063c57600080fd5b8063b84aef22146200057c578063c2188b641462000593578063c41bde2f14620005aa578063e099765914620005c1578063e219baef14620005c957600080fd5b80639af50c0011620001145780639af50c0014620005095780639c41055f1462000520578063a02be3dc1462000537578063a963ad7f146200054e578063b3cb8450146200056557600080fd5b806375b82fe914620004a35780638077959214620004ba5780638a98174514620004d15780638b36d83314620004e85780638da5cb5b14620004ff57600080fd5b80632e6c5e6711620001ef5780635f18aa0c11620001ae5780635f18aa0c146200042a57806362d6099a14620004545780636e8cbb84146200046b57806370c641a61462000482578063715018a6146200049957600080fd5b80632e6c5e6714620003a6578063381ada1f14620003bd5780633d03b9da14620003e35780634094539614620003fc578063485cc955146200041357600080fd5b8063164300c1116200023c578063164300c114620002fb57806317b72ff4146200035557806325a9e704146200037b57806329985e5a14620003925780632af64bd3146200039c57600080fd5b806304707844146200027257806304f3bcec146200028b5780630cf7505d14620002bc5780630fdb031d14620002e4575b600080fd5b62000289620002833660046200432b565b62000653565b005b6000546200029f906001600160a01b031681565b6040516001600160a01b0390911681526020015b60405180910390f35b620002d3620002cd3660046200434b565b620006b0565b6040519015158152602001620002b3565b620002d3620002f536600462004365565b620006d0565b620003126200030c36600462004392565b620008ba565b604051620002b39190600060a082019050825182526020830151602083015260408301516040830152606083015160608301526080830151608083015292915050565b6200036c62000366366004620043b5565b62000957565b604051908152602001620002b3565b620002d36200038c366004620043e8565b62000a66565b6200028962000b82565b620002d362000d21565b620002d3620003b73660046200434b565b62000e4e565b620003d4620003ce3660046200434b565b62000e70565b604051620002b3919062004437565b620003ed62000ee9565b604051620002b3919062004486565b6200036c6200040d3660046200434b565b62000f7e565b6200028962000424366004620044c0565b62000f9e565b620004416200043b3660046200434b565b62001136565b60405160ff9091168152602001620002b3565b6200036c6200046536600462004365565b62001159565b6200036c6200047c36600462004392565b62001192565b6200036c62000493366004620043b5565b620011fb565b6200028962001231565b620003ed620004b43660046200434b565b62001273565b6200029f620004cb3660046200434b565b620013ec565b6200029f620004e236600462004392565b620013f9565b62000289620004f93660046200434b565b6200142d565b6200029f62001911565b6200036c6200051a3660046200434b565b62001944565b620003ed620005313660046200434b565b62001964565b620003ed620005483660046200434b565b62001add565b6200029f6200055f3660046200434b565b62001c56565b620002d3620005763660046200434b565b62002010565b620003ed6200058d3660046200434b565b62002120565b6200036c620005a43660046200434b565b62002299565b62000289620005bb3660046200432b565b620022b9565b6060620003ed565b62000289620005da36600462004365565b62002436565b620002d3620005f13660046200434b565b6200253d565b6200036c620006083660046200434b565b62002644565b620002896200061f3660046200432b565b62002650565b620002d362000636366004620043e8565b620026f9565b6200036c6200064d3660046200432b565b62002ac0565b336200065e62001911565b6001600160a01b031614620006905760405162461bcd60e51b81526004016200068790620044f3565b60405180910390fd5b620006ac6c13195b991a5b99d3585c9ad95d609a1b8262002bdb565b5050565b6000620006bc62002dc5565b600092835260205250604090205460ff1690565b600060026003541415620006f85760405162461bcd60e51b8152600401620006879062004528565b6002600355838360006200070b62002de9565b6000848152600191909101602090815260408083208584529091529020546001600160a01b03161415620007535760405162461bcd60e51b815260040162000687906200455f565b60006200075f62002de9565b600088815260019190910160209081526040808320898452909152808220549051636a20613760e01b8152336004820152602481018890526001600160a01b0390911692508290636a20613790604401602060405180830381600087803b158015620007ca57600080fd5b505af1158015620007df573d6000803e3d6000fd5b505050506040513d601f19601f8201168201806040525081019062000805919062004589565b90506200081162002e0d565b6001600160a01b0316638cbf5e78338a612710620008326107d087620045b9565b6200083e9190620045f1565b6040516001600160e01b031960e086901b1681526001600160a01b03909316600484015260248301919091526044820152606401600060405180830381600087803b1580156200088d57600080fd5b505af1158015620008a2573d6000803e3d6000fd5b50505050600194505050505060016003559392505050565b620008ed6040518060a0016040528060008152602001600081526020016000815260200160008152602001600081525090565b620008f762002dc5565b600084815260079190910160209081526040808320858452825291829020825160a0810184528154815260018201549281019290925260028101549282019290925260038201546060820152600490910154608082015290505b92915050565b6000805b6200096562002de9565b6000858152602091909152604090205481101562000a5f5760006200098962002de9565b600086815260209190915260409020805483908110620009ad57620009ad62004608565b6000918252602090912001546040516337081e6960e21b81526001600160a01b0386811660048301529091169150819063dc2079a49060240160206040518083038186803b158015620009ff57600080fd5b505afa15801562000a14573d6000803e3d6000fd5b505050506040513d601f19601f8201168201806040525081019062000a3a919062004589565b62000a4690846200461e565b925050808062000a569062004665565b9150506200095b565b5092915050565b600085858262000a7562002de9565b6000848152600191909101602090815260408083208584529091529020546001600160a01b0316141562000abd5760405162461bcd60e51b815260040162000687906200455f565b600062000ac962002de9565b60008a8152600191909101602090815260408083208b845290915290819020549051633644ca4560e01b81526001600160a01b0390911691508190633644ca459062000b1e908a908a908a90600401620046bc565b60206040518083038186803b15801562000b3757600080fd5b505afa15801562000b4c573d6000803e3d6000fd5b505050506040513d601f19601f8201168201806040525081019062000b72919062004589565b5060019998505050505050505050565b600062000b8e62000ee9565b905060005b8151811015620006ac57600082828151811062000bb45762000bb462004608565b6020026020010151905060008060009054906101000a90046001600160a01b03166001600160a01b0316636795dbcd838460405160200162000c2291907f5265736f6c766572206d697373696e67207461726765743a20000000000000008152601981019190915260390190565b6040516020818303038152906040526040518363ffffffff1660e01b815260040162000c509291906200472d565b60206040518083038186803b15801562000c6957600080fd5b505afa15801562000c7e573d6000803e3d6000fd5b505050506040513d601f19601f8201168201806040525081019062000ca4919062004748565b60008381526001602090815260409182902080546001600160a01b0319166001600160a01b0385169081179091558251868152918201529192507f88a93678a3692f6789d9546fc621bf7234b101ddb7d4fe479455112831b8aa68910160405180910390a15050808062000d189062004665565b91505062000b93565b60008062000d2e62000ee9565b905060005b815181101562000e4557600082828151811062000d545762000d5462004608565b60209081029190910181015160008181526001909252604080832054925490516321f8a72160e01b8152600481018390529193506001600160a01b039283169216906321f8a7219060240160206040518083038186803b15801562000db857600080fd5b505afa15801562000dcd573d6000803e3d6000fd5b505050506040513d601f19601f8201168201806040525081019062000df3919062004748565b6001600160a01b031614158062000e1f57506000818152600160205260409020546001600160a01b0316155b1562000e2f576000935050505090565b508062000e3c8162004665565b91505062000d33565b50600191505090565b600062000e5a62002de9565b6000928352600201602052506040902054151590565b606062000e7c62002de9565b600083815260209182526040908190208054825181850281018501909352808352919290919083018282801562000edd57602002820191906000526020600020905b81546001600160a01b0316815260019091019060200180831162000ebe575b50505050509050919050565b60408051600280825260608083018452926020830190803683370190505090507321b7b63630ba32b930b620b3b3b932b3b0ba37b960611b8160008151811062000f375762000f3762004608565b6020026020010181815250507121bab93932b731bca1b7b73a3937b63632b960711b8160018151811062000f6f5762000f6f62004608565b60200260200101818152505090565b600062000f8a62002dc5565b600092835260020160205250604090205490565b600454610100900460ff161580801562000fbf5750600454600160ff909116105b8062000fdb5750303b15801562000fdb575060045460ff166001145b620010405760405162461bcd60e51b815260206004820152602e60248201527f496e697469616c697a61626c653a20636f6e747261637420697320616c72656160448201526d191e481a5b9a5d1a585b1a5e995960921b606482015260840162000687565b6004805460ff19166001179055801562001064576004805461ff0019166101001790555b60006200107062002e36565b6001600160a01b03161415620010d45760405162461bcd60e51b815260206004820152602260248201527f4d7573742062652063616c6c65642066726f6d2070726f787920636f6e74726160448201526118dd60f21b606482015260840162000687565b620010df8362002e5f565b620010ea8262002ed0565b801562001131576004805461ff0019169055604051600181527f7f26b83ff96e1f2b6a682f133852f6798a09c465da95921460cefb38474024989060200160405180910390a15b505050565b60006200114262002dc5565b600092835260030160205250604090205460ff1690565b600062001167848462001192565b620011728562000f7e565b6200117e90846200477e565b6200118a91906200480f565b949350505050565b6000806200119f62002dc5565b60009485526007016020908152604080862094865293815293839020835160a081018552815481526001820154958101959095526002810154938501849052600381015460608601526004015460809094019390935250919050565b60006200120762002dc5565b6000938452600401602090815260408085206001600160a01b039490941685529290525090205490565b336200123c62001911565b6001600160a01b031614620012655760405162461bcd60e51b81526004016200068790620044f3565b62001271600062002e5f565b565b606060006200128162002de9565b6000848152602091909152604090205467ffffffffffffffff811115620012ac57620012ac62004768565b604051908082528060200260200182016040528015620012d6578160200160208202803683370190505b50905060005b620012e662002de9565b6000858152602091909152604090205481101562000a5f5760006200130a62002de9565b6000868152602091909152604090208054839081106200132e576200132e62004608565b6000918252602091829020015460408051637d37adff60e11b815290516001600160a01b039092169350839263fa6f5bfe92600480840193829003018186803b1580156200137b57600080fd5b505afa15801562001390573d6000803e3d6000fd5b505050506040513d601f19601f82011682018060405250810190620013b6919062004589565b838381518110620013cb57620013cb62004608565b60209081029190910101525080620013e38162004665565b915050620012dc565b6000620009518262002f4d565b60006200140562002de9565b600093845260010160209081526040808520938552929052509020546001600160a01b031690565b60026003541415620014535760405162461bcd60e51b8152600401620006879062004528565b60026003558060006200146562002de9565b6000838152602091909152604090205411620014dd5760405162461bcd60e51b815260206004820152603060248201527f4e6f206c656e64696e67206d61726b65747320657869737420666f722061207360448201526f706563696669632063757272656e637960801b606482015260840162000687565b6000620014e962002de9565b60008481526020919091526040812080549092508290829062001510576200151062004608565b600091825260208220015483546001600160a01b0390911692508390600190811062001540576200154062004608565b600091825260208220015484546001600160a01b0390911692506200160f9085906200156f9060019062004843565b8154811062001582576200158262004608565b600091825260209182902001546040805163e16695b560e01b815290516001600160a01b039092169263e16695b592600480840193829003018186803b158015620015cc57600080fd5b505afa158015620015e1573d6000803e3d6000fd5b505050506040513d601f19601f8201168201806040525081019062001607919062004589565b60036200303d565b60405163baa2675760e01b8152600481018290529091506000906001600160a01b0385169063baa2675790602401602060405180830381600087803b1580156200165857600080fd5b505af11580156200166d573d6000803e3d6000fd5b505050506040513d601f19601f8201168201806040525081019062001693919062004589565b905060005b8554811015620017525785546000908290620016b79060019062004843565b14620016f95786620016cb8360016200485d565b81548110620016de57620016de62004608565b6000918252602090912001546001600160a01b0316620016fb565b855b90508087838154811062001713576200171362004608565b600091825260209091200180546001600160a01b0319166001600160a01b03929092169190911790555080620017498162004665565b91505062001698565b50620018498782856001600160a01b031663e16695b56040518163ffffffff1660e01b815260040160206040518083038186803b1580156200179357600080fd5b505afa158015620017a8573d6000803e3d6000fd5b505050506040513d601f19601f82011682018060405250810190620017ce919062004589565b866001600160a01b031663fa6f5bfe6040518163ffffffff1660e01b815260040160206040518083038186803b1580156200180857600080fd5b505afa1580156200181d573d6000803e3d6000fd5b505050506040513d601f19601f8201168201806040525081019062001843919062004589565b62003132565b836200185462002de9565b600089815260019190910160209081526040808320868452909152902080546001600160a01b0319166001600160a01b03929092169190911790556200189962002de9565b60008881526001919091016020908152604080832084845282529182902080546001600160a01b031916905581518981529081018390529081018390527f0c6f5a3bc801362dc3d24c87799fa831f5a601c5dbd8bed4064907844eef97369060600160405180910390a1505060016003555050505050565b60007f9acda75aebd150dd434541a4747a6dc606f4f1a59662477e67daf1fc0bf9e0aa5b546001600160a01b0316919050565b60006200195062002dc5565b600092835260060160205250604090205490565b606060006200197262002de9565b6000848152602091909152604090205467ffffffffffffffff8111156200199d576200199d62004768565b604051908082528060200260200182016040528015620019c7578160200160208202803683370190505b50905060005b620019d762002de9565b6000858152602091909152604090205481101562000a5f576000620019fb62002de9565b60008681526020919091526040902080548390811062001a1f5762001a1f62004608565b600091825260209182902001546040805163017438bd60e71b815290516001600160a01b039092169350839263ba1c5e8092600480840193829003018186803b15801562001a6c57600080fd5b505afa15801562001a81573d6000803e3d6000fd5b505050506040513d601f19601f8201168201806040525081019062001aa7919062004589565b83838151811062001abc5762001abc62004608565b6020908102919091010152508062001ad48162004665565b915050620019cd565b6060600062001aeb62002de9565b6000848152602091909152604090205467ffffffffffffffff81111562001b165762001b1662004768565b60405190808252806020026020018201604052801562001b40578160200160208202803683370190505b50905060005b62001b5062002de9565b6000858152602091909152604090205481101562000a5f57600062001b7462002de9565b60008681526020919091526040902080548390811062001b985762001b9862004608565b600091825260209182902001546040805163e16695b560e01b815290516001600160a01b039092169350839263e16695b592600480840193829003018186803b15801562001be557600080fd5b505afa15801562001bfa573d6000803e3d6000fd5b505050506040513d601f19601f8201168201806040525081019062001c20919062004589565b83838151811062001c355762001c3562004608565b6020908102919091010152508062001c4d8162004665565b91505062001b46565b60003362001c6362001911565b6001600160a01b03161462001c8c5760405162461bcd60e51b81526004016200068790620044f3565b62001c9782620006b0565b62001d045760405162461bcd60e51b815260206004820152603660248201527f4c656e64696e67206d61726b6574206861736e2774206265656e20696e697469604482015275616c697a656420696e207468652063757272656e637960501b606482015260840162000687565b62001d0e62003553565b6001600160a01b031663d4d4f6ce836040518263ffffffff1660e01b815260040162001d3c91815260200190565b60206040518083038186803b15801562001d5557600080fd5b505afa15801562001d6a573d6000803e3d6000fd5b505050506040513d601f19601f8201168201806040525081019062001d90919062004878565b62001dd25760405162461bcd60e51b81526020600482015260116024820152704e4f4e20535550504f525445442043435960781b604482015260640162000687565b600062001dde62002de9565b60008481526002919091016020526040812054915062001dfd62002de9565b60008581526020919091526040902054111562001ef05762001e1e62002de9565b600084815260209190915260409020600162001e3962002de9565b6000868152602091909152604090205462001e55919062004843565b8154811062001e685762001e6862004608565b600091825260209182902001546040805163e16695b560e01b815290516001600160a01b039092169263e16695b592600480840193829003018186803b15801562001eb257600080fd5b505afa15801562001ec7573d6000803e3d6000fd5b505050506040513d601f19601f8201168201806040525081019062001eed919062004589565b90505b600062001eff8260036200303d565b905062001f2a848262001f1162002de9565b6000888152600291909101602052604090205462003575565b925062001f3662002de9565b600085815260209182526040812080546001810182559082529190200180546001600160a01b0319166001600160a01b0385161790558262001f7762002de9565b600086815260019190910160209081526040808320858452909152902080546001600160a01b0319166001600160a01b0392831617905583167f5f186bdcd3a716aefeb8668a95e303d0fd5a82d7f396621575a2f446372b936d8562001fdc62002de9565b6000888152602091825260409081902054815193845291830191909152810184905260600160405180910390a25050919050565b6000336200201d62001911565b6001600160a01b031614620020465760405162461bcd60e51b81526004016200068790620044f3565b60005b6200205362002de9565b60008481526020919091526040902054811015620021175760006200207762002de9565b6000858152602091909152604090208054839081106200209b576200209b62004608565b60009182526020822001546040805163280dce3760e21b815290516001600160a01b039092169350839263a03738dc9260048084019382900301818387803b158015620020e757600080fd5b505af1158015620020fc573d6000803e3d6000fd5b505050505080806200210e9062004665565b91505062002049565b50600192915050565b606060006200212e62002de9565b6000848152602091909152604090205467ffffffffffffffff81111562002159576200215962004768565b60405190808252806020026020018201604052801562002183578160200160208202803683370190505b50905060005b6200219362002de9565b6000858152602091909152604090205481101562000a5f576000620021b762002de9565b600086815260209190915260409020805483908110620021db57620021db62004608565b6000918252602091829020015460408051634474638b60e11b815290516001600160a01b03909216935083926388e8c71692600480840193829003018186803b1580156200222857600080fd5b505afa1580156200223d573d6000803e3d6000fd5b505050506040513d601f19601f8201168201806040525081019062002263919062004589565b83838151811062002278576200227862004608565b60209081029190910101525080620022908162004665565b91505062002189565b6000620022a562002dc5565b600092835260050160205250604090205490565b60026003541415620022df5760405162461bcd60e51b8152600401620006879062004528565b60026003556000620022f062002de9565b6001600160a01b03831660009081526003919091016020526040812091505b6200231a82620035f7565b8110156200242c57600062002330838362003602565b905060006200233f8262001add565b905060005b8151811015620023ce5760006200235a62002de9565b6001016000858152602001908152602001600020600084848151811062002385576200238562004608565b6020908102919091018101518252810191909152604001600020546001600160a01b03169050620023b884828962003617565b5080620023c58162004665565b91505062002344565b50620023db8286620011fb565b62002414576200241282620023ef62002de9565b6001600160a01b03881660009081526003919091016020526040902090620036be565b505b50508080620024239062004665565b9150506200230f565b5050600160035550565b336200244162001911565b6001600160a01b0316146200246a5760405162461bcd60e51b81526004016200068790620044f3565b60008111620024bc5760405162461bcd60e51b815260206004820152601760248201527f496e76616c696420636f6d706f756e6420666163746f72000000000000000000604482015260640162000687565b620024c78362000e4e565b156200250c5760405162461bcd60e51b8152602060048201526013602482015272105b1c9958591e481a5b9a5d1a585b1a5e9959606a1b604482015260640162000687565b6200251a83601283620036cc565b816200252562002de9565b60009485526002016020526040909320929092555050565b6000336200254a62001911565b6001600160a01b031614620025735760405162461bcd60e51b81526004016200068790620044f3565b60005b6200258062002de9565b6000848152602091909152604090205481101562002117576000620025a462002de9565b600085815260209190915260409020805483908110620025c857620025c862004608565b600091825260208220015460408051630b0863e760e11b815290516001600160a01b0390921693508392631610c7ce9260048084019382900301818387803b1580156200261457600080fd5b505af115801562002629573d6000803e3d6000fd5b505050505080806200263b9062004665565b91505062002576565b600062000f8a62002de9565b336200265b62001911565b6001600160a01b031614620026845760405162461bcd60e51b81526004016200068790620044f3565b6001600160a01b038116620026eb5760405162461bcd60e51b815260206004820152602660248201527f4f776e61626c653a206e6577206f776e657220697320746865207a65726f206160448201526564647265737360d01b606482015260840162000687565b620026f68162002e5f565b50565b600060026003541415620027215760405162461bcd60e51b8152600401620006879062004528565b6002600355858560006200273462002de9565b6000848152600191909101602090815260408083208584529091529020546001600160a01b031614156200277c5760405162461bcd60e51b815260040162000687906200455f565b60006200278862002de9565b60008a8152600191909101602090815260408083208b84529091529020546001600160a01b03169050620027be89823362003617565b600080826001600160a01b0316634eee44958a338b8b6040518563ffffffff1660e01b8152600401620027f594939291906200489c565b6040805180830381600087803b1580156200280f57600080fd5b505af115801562002824573d6000803e3d6000fd5b505050506040513d601f19601f820116820180604052508101906200284a9190620048d0565b90925090506000612710620028626107d08b620045b9565b6200286e9190620045f1565b905081620028f3576200288062002e0d565b604051634fe575fd60e11b81526001600160a01b038581166004830152602482018f9052604482018490529190911690639fcaebfa90606401600060405180830381600087803b158015620028d457600080fd5b505af1158015620028e9573d6000803e3d6000fd5b5050505062002aa8565b620028fd62002e0d565b604051631197ebcf60e31b81526001600160a01b038581166004830152602482018f9052604482018490529190911690638cbf5e7890606401600060405180830381600087803b1580156200295157600080fd5b505af115801562002966573d6000803e3d6000fd5b50505050620029938c6200297962002de9565b3360009081526003919091016020526040902090620037f7565b50620029c68c620029a362002de9565b6001600160a01b03861660009081526003919091016020526040902090620037f7565b5060008a6001811115620029de57620029de62004683565b141562002a4957604080513381526001600160a01b03851660208201529081018d9052606081018c90526080810183905260a081018990527f72da5578c372deb2e510ad42e0576191d6221327acc725d06fdfa670b0923e3b9060c00160405180910390a162002aa8565b604080516001600160a01b03851681523360208201529081018d9052606081018c90526080810183905260a081018990527f72da5578c372deb2e510ad42e0576191d6221327acc725d06fdfa670b0923e3b9060c00160405180910390a15b60019650505050505050600160035595945050505050565b60008062002acd62002de9565b6001600160a01b03841660009081526003919091016020526040812091505b62002af782620035f7565b81101562002bd457600062002b0d838362003602565b9050600062002b1d828762000957565b905062002b2962003553565b6040516303a0a22f60e41b815260048101849052602481018390526001600160a01b039190911690633a0a22f09060440160206040518083038186803b15801562002b7357600080fd5b505afa15801562002b88573d6000803e3d6000fd5b505050506040513d601f19601f8201168201806040525081019062002bae919062004589565b62002bba90866200461e565b94505050808062002bcb9062004665565b91505062002aec565b5050919050565b6000828152600260205260408120546001600160a01b0316908162002c9c578260405162002c0990620042f9565b6001600160a01b039091168152602001604051809103906000f08015801562002c36573d6000803e3d6000fd5b5060008581526002602052604080822080546001600160a01b0319166001600160a01b038581169182179092559151939550859450861692909187917f4a465a9bd819d9662563c1e11ae958f8109e437e7f4bf1c6ef0b9a7b3f35d4789190a462000a5f565b8190506000816001600160a01b0316635c60da1b6040518163ffffffff1660e01b815260040160206040518083038186803b15801562002cdb57600080fd5b505afa15801562002cf0573d6000803e3d6000fd5b505050506040513d601f19601f8201168201806040525081019062002d16919062004748565b604051631b2ce7f360e11b81526001600160a01b03868116600483015291925090831690633659cfe690602401600060405180830381600087803b15801562002d5e57600080fd5b505af115801562002d73573d6000803e3d6000fd5b50506040516001600160a01b03848116825280881693508616915087907f5e29c26cc3fab416c412dd806a8fd96b2e1c640466a1501765da26bc1e8f24ea9060200160405180910390a4505092915050565b7fe122888656e56785e9cb20ef8759dd9a09ac222b223e6dbd6f61d8d6b616d1cc90565b7f8041b8421ebd495cc61f38c788c9eb100daccf9bd36aa0bb920b7a15b2e0496590565b600062002e317321b7b63630ba32b930b620b3b3b932b3b0ba37b960611b62003805565b905090565b60007f360894a13ba1a3210667c828492db98dca3e2076cc3735a920a3ca505d382bbc62001935565b7f9acda75aebd150dd434541a4747a6dc606f4f1a59662477e67daf1fc0bf9e0aa80546001600160a01b038381166001600160a01b0319831681179093556040519116919082907f8be0079c531659141344cd1fd0a4f28419497f9722a3daafe3b4186f6b6457e090600090a35050565b6000546001600160a01b03161562002f2b5760405162461bcd60e51b815260206004820152601b60248201527f7265736f6c766572207265676973746572656420616c72656164790000000000604482015260640162000687565b600080546001600160a01b0319166001600160a01b0392909216919091179055565b6000818152600260209081526040808320548151635c60da1b60e01b815291516001600160a01b0390911693849390928492635c60da1b92600480840193919291829003018186803b15801562002fa357600080fd5b505afa15801562002fb8573d6000803e3d6000fd5b505050506040513d601f19601f8201168201806040525081019062002fde919062004748565b6001600160a01b03161415620030375760405162461bcd60e51b815260206004820152601e60248201527f426561636f6e2070726f78792061646472657373206e6f7420666f756e640000604482015260640162000687565b50919050565b60008080806200305b620030556201518088620045f1565b6200387d565b919450925090506200306e85836200485d565b9150600c6200307f60018462004843565b6200308b9190620045f1565b6200309790846200485d565b9250600c620030a860018462004843565b620030b4919062004901565b620030c19060016200485d565b91506000620030d1848462003a29565b905080821115620030e0578091505b620030ef620151808862004901565b620151806200310086868662003abd565b6200310c9190620045b9565b6200311891906200485d565b9450868510156200312857600080fd5b5050505092915050565b80620031705760405162461bcd60e51b815260206004820152600c60248201526b72617465206973207a65726f60a01b604482015260640162000687565b6200317a62002dc5565b60008581526007919091016020908152604080832086845290915290206003015415620031ea5760405162461bcd60e51b815260206004820152601860248201527f616c72656164792075706461746564206d617475726974790000000000000000604482015260640162000687565b8282116200322e5760405162461bcd60e51b815260206004820152601060248201526f696e76616c6964206d6174757269747960801b604482015260640162000687565b6200323862002dc5565b600085815260079190910160209081526040808320858452909152902060020154156200329b5760405162461bcd60e51b815260206004820152601060248201526f65786973746564206d6174757269747960801b604482015260640162000687565b620032a562002dc5565b60008581526002919091016020526040902054620032c262002dc5565b6000868152600191909101602052604090205414156200332a57620032e662002dc5565b600085815260029190910160205260409020546200330362002dc5565b600086815260079190910160209081526040808320878452909152902060020155620033a3565b6200333462002dc5565b600085815260079190910160209081526040808320868452909152902060020154620033a35760405162461bcd60e51b815260206004820152601760248201527f696e76616c696420636f6d706f756e6420666163746f72000000000000000000604482015260640162000687565b81620033ae62002dc5565b600086815260079190910160209081526040808320878452909152812060030191909155620033de848462004843565b9050620033f26301e187e0612710620045b9565b620033fe8284620045b9565b620034106301e187e0612710620045b9565b6200341c91906200485d565b6200342662002dc5565b60008881526002919091016020526040902054620034459190620045b9565b620034519190620045f1565b6200345b62002dc5565b6002016000878152602001908152602001600020819055506040518060a001604052808381526020018281526020016200349462002dc5565b60020160008881526020019081526020016000205481526020016000815260200185815250620034c362002dc5565b600087815260079190910160209081526040808320878452825291829020835181558382015160018201558383015160028201556060808501516003830155608090940151600490910155815186815290810185905290810183905286917fa392ce8ebef6129c2cb463c2660fa1fcf9f5d77aeab44ed2af2eea77913ff945910160405180910390a25050505050565b600062002e317121bab93932b731bca1b7b73a3937b63632b960711b62003805565b600080546040516001600160a01b039091166024820152604481018590526064810184905260848101839052819060a40160408051601f198184030181529190526020810180516001600160e01b031663b7c1d52760e01b1790529050620035ee6c13195b991a5b99d3585c9ad95d609a1b8262003c2d565b95945050505050565b600062000951825490565b600062003610838362003ccf565b9392505050565b604051637a5fc22b60e01b81526001600160a01b0382811660048301526000918291851690637a5fc22b906024016040805180830381600087803b1580156200365f57600080fd5b505af115801562003674573d6000803e3d6000fd5b505050506040513d601f19601f820116820180604052508101906200369a919062004918565b9150915081600014620036b757620036b58584838562003cfc565b505b5050505050565b60006200361083836200415f565b806200371b5760405162461bcd60e51b815260206004820152601760248201527f436f6d706f756e6420666163746f72206973207a65726f000000000000000000604482015260640162000687565b6200372683620006b0565b15620037755760405162461bcd60e51b815260206004820152601b60248201527f416c726561647920726567697374657265642063757272656e63790000000000604482015260640162000687565b60016200378162002dc5565b600085815260209190915260409020805460ff191691151591909117905581620037aa62002dc5565b600085815260039190910160205260409020805460ff191660ff9290921691909117905580620037d962002dc5565b60008581526001919091016020526040902055806200252562002dc5565b600062003610838362004263565b600081815260016020908152604080832054905170026b4b9b9b4b7339030b2323932b9b99d1607d1b92810192909252603182018490526001600160a01b031690811515906051016040516020818303038152906040529062000a5f5760405162461bcd60e51b81526004016200068791906200493d565b60008080838162253d8c620038968362010bd96200461e565b620038a291906200461e565b9050600062023ab1620038b78360046200477e565b620038c391906200480f565b90506004620038d68262023ab16200477e565b620038e39060036200461e565b620038ef91906200480f565b620038fb908362004952565b9150600062164b09620039108460016200461e565b6200391e90610fa06200477e565b6200392a91906200480f565b905060046200393c826105b56200477e565b6200394891906200480f565b62003954908462004952565b6200396190601f6200461e565b9250600061098f620039758560506200477e565b6200398191906200480f565b905060006050620039958361098f6200477e565b620039a191906200480f565b620039ad908662004952565b9050620039bc600b836200480f565b9450620039cb85600c6200477e565b620039d88360026200461e565b620039e4919062004952565b91508483620039f560318762004952565b62003a029060646200477e565b62003a0e91906200461e565b62003a1a91906200461e565b9a919950975095505050505050565b6000816001148062003a3b5750816003145b8062003a475750816005145b8062003a535750816007145b8062003a5f5750816008145b8062003a6b575081600a145b8062003a77575081600c145b1562003a865750601f62000951565b8160021462003a985750601e62000951565b62003aa383620042b5565b62003ab057601c62003ab3565b601d5b60ff169392505050565b60006107b284101562003acf57600080fd5b838383600062253d8c60046064600c62003aeb600e8862004952565b62003af791906200480f565b62003b05886113246200461e565b62003b1191906200461e565b62003b1d91906200480f565b62003b2a9060036200477e565b62003b3691906200480f565b600c8062003b46600e8862004952565b62003b5291906200480f565b62003b5f90600c6200477e565b62003b6c60028862004952565b62003b78919062004952565b62003b869061016f6200477e565b62003b9291906200480f565b6004600c62003ba3600e8962004952565b62003baf91906200480f565b62003bbd896112c06200461e565b62003bc991906200461e565b62003bd7906105b56200477e565b62003be391906200480f565b62003bf1617d4b8762004952565b62003bfd91906200461e565b62003c0991906200461e565b62003c15919062004952565b62003c21919062004952565b98975050505050505050565b6000828152600260205260408120546001600160a01b03168062003c8c5760405162461bcd60e51b8152602060048201526015602482015274426561636f6e2070726f787920697320656d70747960581b604482015260640162000687565b808360405162003c9c9062004307565b62003ca992919062004997565b604051809103906000f08015801562003cc6573d6000803e3d6000fd5b50949350505050565b600082600001828154811062003ce95762003ce962004608565b9060005260206000200154905092915050565b60008062003d0962002dc5565b6000878152600791909101602090815260408083208784529091529020600201541162003d795760405162461bcd60e51b815260206004820181905260248201527f436f6d706f756e6420666163746f72206973206e6f7420666978656420796574604482015260640162000687565b600062003d8562002dc5565b6000878152600291909101602052604090205462003da262002dc5565b600088815260019190910160205260409020541462003dec5762003dc562002dc5565b60008781526007919091016020908152604080832087845290915290206002015462003e0a565b62003df662002dc5565b600087815260019190910160205260409020545b905060008162003e1a8862001136565b62003e2790600a62004aba565b62003e3390866200477e565b62003e3f91906200480f565b9050600062003e4d62002dc5565b6000898152600491909101602090815260408083206001600160a01b038b1684529091528120549150821262003f95576000811262003ec2578162003e9162002dc5565b60050160008a8152602001908152602001600020600082825462003eb691906200485d565b90915550620040c69050565b600062003ed082846200461e565b90506000811262003f58578062003ee662002dc5565b60050160008b8152602001908152602001600020600082825462003f0b91906200485d565b9091555062003f1d9050818462004952565b62003f2762002dc5565b60060160008b8152602001908152602001600020600082825462003f4c919062004843565b9091555062003f8e9050565b8262003f6362002dc5565b60060160008b8152602001908152602001600020600082825462003f88919062004843565b90915550505b50620040c6565b6000811362003fd85762003fa98262004acb565b62003fb362002dc5565b60060160008a8152602001908152602001600020600082825462003eb691906200485d565b600062003fe682846200461e565b905060008113620040845762003ffc8162004acb565b6200400662002dc5565b60060160008b815260200190815260200160002060008282546200402b91906200485d565b909155508190506200403d8462004acb565b6200404991906200461e565b6200405362002dc5565b60050160008b8152602001908152602001600020600082825462004078919062004843565b90915550620040c49050565b6200408f8362004acb565b6200409962002dc5565b60050160008b81526020019081526020016000206000828254620040be919062004843565b90915550505b505b81620040d162002dc5565b60008a8152600491909101602090815260408083206001600160a01b038c16845290915281208054909190620041099084906200461e565b90915550506040518281526001600160a01b038816906000908a907f224d4ee1e2931416deb62bbde4f281397249c4a54319c43ee455efc348c13f4f9060200160405180910390a4506001979650505050505050565b60008181526001830160205260408120548015620042585760006200418660018362004843565b85549091506000906200419c9060019062004843565b905081811462004208576000866000018281548110620041c057620041c062004608565b9060005260206000200154905080876000018481548110620041e657620041e662004608565b6000918252602080832090910192909255918252600188019052604090208390555b85548690806200421c576200421c62004aeb565b60019003818190600052602060002001600090559055856001016000868152602001908152602001600020600090556001935050505062000951565b600091505062000951565b6000818152600183016020526040812054620042ac5750815460018181018455600084815260208082209093018490558454848252828601909352604090209190915562000951565b50600062000951565b6000620042c460048362004901565b158015620042dd5750620042da60648362004901565b15155b80620009515750620042f26101908362004901565b1592915050565b6104e48062004b0283390190565b610e2c8062004fe683390190565b6001600160a01b0381168114620026f657600080fd5b6000602082840312156200433e57600080fd5b8135620036108162004315565b6000602082840312156200435e57600080fd5b5035919050565b6000806000606084860312156200437b57600080fd5b505081359360208301359350604090920135919050565b60008060408385031215620043a657600080fd5b50508035926020909101359150565b60008060408385031215620043c957600080fd5b823591506020830135620043dd8162004315565b809150509250929050565b600080600080600060a086880312156200440157600080fd5b85359450602086013593506040860135600281106200441f57600080fd5b94979396509394606081013594506080013592915050565b6020808252825182820181905260009190848201906040850190845b818110156200447a5783516001600160a01b03168352928401929184019160010162004453565b50909695505050505050565b6020808252825182820181905260009190848201906040850190845b818110156200447a57835183529284019291840191600101620044a2565b60008060408385031215620044d457600080fd5b8235620044e18162004315565b91506020830135620043dd8162004315565b6020808252818101527f4f776e61626c653a2063616c6c6572206973206e6f7420746865206f776e6572604082015260600190565b6020808252601f908201527f5265656e7472616e637947756172643a207265656e7472616e742063616c6c00604082015260600190565b60208082526010908201526f496e76616c6964206d6174757269747960801b604082015260600190565b6000602082840312156200459c57600080fd5b5051919050565b634e487b7160e01b600052601160045260246000fd5b6000816000190483118215151615620045d657620045d6620045a3565b500290565b634e487b7160e01b600052601260045260246000fd5b600082620046035762004603620045db565b500490565b634e487b7160e01b600052603260045260246000fd5b600080821280156001600160ff1b0384900385131615620046435762004643620045a3565b600160ff1b83900384128116156200465f576200465f620045a3565b50500190565b60006000198214156200467c576200467c620045a3565b5060010190565b634e487b7160e01b600052602160045260246000fd5b60028110620046b857634e487b7160e01b600052602160045260246000fd5b9052565b60608101620046cc828662004699565b602082019390935260400152919050565b6000815180845260005b818110156200470557602081850181015186830182015201620046e7565b8181111562004718576000602083870101525b50601f01601f19169290920160200192915050565b8281526040602082015260006200118a6040830184620046dd565b6000602082840312156200475b57600080fd5b8151620036108162004315565b634e487b7160e01b600052604160045260246000fd5b60006001600160ff1b0381841382841380821686840486111615620047a757620047a7620045a3565b600160ff1b6000871282811687830589121615620047c957620047c9620045a3565b60008712925087820587128484161615620047e857620047e8620045a3565b87850587128184161615620048015762004801620045a3565b505050929093029392505050565b600082620048215762004821620045db565b600160ff1b8214600019841416156200483e576200483e620045a3565b500590565b600082821015620048585762004858620045a3565b500390565b60008219821115620048735762004873620045a3565b500190565b6000602082840312156200488b57600080fd5b815180151581146200361057600080fd5b60808101620048ac828762004699565b6001600160a01b039490941660208201526040810192909252606090910152919050565b60008060408385031215620048e457600080fd5b8251620048f18162004315565b6020939093015192949293505050565b600082620049135762004913620045db565b500690565b600080604083850312156200492c57600080fd5b505080516020909101519092909150565b602081526000620036106020830184620046dd565b60008083128015600160ff1b850184121615620049735762004973620045a3565b6001600160ff1b0384018313811615620049915762004991620045a3565b50500390565b6001600160a01b03831681526040602082018190526000906200118a90830184620046dd565b600181815b80851115620049fe578160001904821115620049e257620049e2620045a3565b80851615620049f057918102915b93841c9390800290620049c2565b509250929050565b60008262004a175750600162000951565b8162004a265750600062000951565b816001811462004a3f576002811462004a4a5762004a6a565b600191505062000951565b60ff84111562004a5e5762004a5e620045a3565b50506001821b62000951565b5060208310610133831016604e8410600b841016171562004a8f575081810a62000951565b62004a9b8383620049bd565b806000190482111562004ab25762004ab2620045a3565b029392505050565b60006200361060ff84168362004a06565b6000600160ff1b82141562004ae45762004ae4620045a3565b5060000390565b634e487b7160e01b600052603160045260246000fdfe608060405234801561001057600080fd5b506040516104e43803806104e483398101604081905261002f91610151565b61003833610047565b61004181610097565b50610181565b600080546001600160a01b038381166001600160a01b0319831681178455604051919092169283917f8be0079c531659141344cd1fd0a4f28419497f9722a3daafe3b4186f6b6457e09190a35050565b6100aa8161014260201b6101a01760201c565b6101205760405162461bcd60e51b815260206004820152603360248201527f5570677261646561626c65426561636f6e3a20696d706c656d656e746174696f60448201527f6e206973206e6f74206120636f6e747261637400000000000000000000000000606482015260840160405180910390fd5b600180546001600160a01b0319166001600160a01b0392909216919091179055565b6001600160a01b03163b151590565b60006020828403121561016357600080fd5b81516001600160a01b038116811461017a57600080fd5b9392505050565b610354806101906000396000f3fe608060405234801561001057600080fd5b50600436106100575760003560e01c80633659cfe61461005c5780635c60da1b14610071578063715018a61461009a5780638da5cb5b146100a2578063f2fde38b146100b3575b600080fd5b61006f61006a3660046102ee565b6100c6565b005b6001546001600160a01b03165b6040516001600160a01b03909116815260200160405180910390f35b61006f61010e565b6000546001600160a01b031661007e565b61006f6100c13660046102ee565b610122565b6100ce6101af565b6100d781610209565b6040516001600160a01b038216907fbc7cd75a20ee27fd9adebab32041f755214dbc6bffa90cc0225b39da2e5c2d3b90600090a250565b6101166101af565b610120600061029e565b565b61012a6101af565b6001600160a01b0381166101945760405162461bcd60e51b815260206004820152602660248201527f4f776e61626c653a206e6577206f776e657220697320746865207a65726f206160448201526564647265737360d01b60648201526084015b60405180910390fd5b61019d8161029e565b50565b6001600160a01b03163b151590565b6000546001600160a01b031633146101205760405162461bcd60e51b815260206004820181905260248201527f4f776e61626c653a2063616c6c6572206973206e6f7420746865206f776e6572604482015260640161018b565b6001600160a01b0381163b61027c5760405162461bcd60e51b815260206004820152603360248201527f5570677261646561626c65426561636f6e3a20696d706c656d656e746174696f6044820152721b881a5cc81b9bdd08184818dbdb9d1c9858dd606a1b606482015260840161018b565b600180546001600160a01b0319166001600160a01b0392909216919091179055565b600080546001600160a01b038381166001600160a01b0319831681178455604051919092169283917f8be0079c531659141344cd1fd0a4f28419497f9722a3daafe3b4186f6b6457e09190a35050565b60006020828403121561030057600080fd5b81356001600160a01b038116811461031757600080fd5b939250505056fea2646970667358221220bd860f3c6256e61fa4d4dc310eb9766051e97afa33b7bf53183da7de49afe63a64736f6c63430008090033608060405260405162000e2c38038062000e2c8339810160408190526200002691620005de565b818162000036828260006200004c565b506200004490503362000131565b50506200071d565b62000057836200018c565b6040516001600160a01b038416907f1cf3b03a6cf19fa2baba4df148e9dcabedea7f8a5c07840e207e5c089be95d3e90600090a2600082511180620000995750805b156200012c576200012a836001600160a01b0316635c60da1b6040518163ffffffff1660e01b815260040160206040518083038186803b158015620000dd57600080fd5b505afa158015620000f2573d6000803e3d6000fd5b505050506040513d601f19601f82011682018060405250810190620001189190620006ac565b836200034e60201b6200016a1760201c565b505b505050565b7f7e644d79422f17c01e4894b5f4f588d331ebfa28653d42ae832dc59e38c9798f6200015c6200037d565b604080516001600160a01b03928316815291841660208301520160405180910390a16200018981620003b6565b50565b620001a2816200044660201b620001961760201c565b620002025760405162461bcd60e51b815260206004820152602560248201527f455243313936373a206e657720626561636f6e206973206e6f74206120636f6e6044820152641d1c9858dd60da1b60648201526084015b60405180910390fd5b6200028c816001600160a01b0316635c60da1b6040518163ffffffff1660e01b815260040160206040518083038186803b1580156200024057600080fd5b505afa15801562000255573d6000803e3d6000fd5b505050506040513d601f19601f820116820180604052508101906200027b9190620006ac565b6200044660201b620001961760201c565b620002f35760405162461bcd60e51b815260206004820152603060248201527f455243313936373a20626561636f6e20696d706c656d656e746174696f6e206960448201526f1cc81b9bdd08184818dbdb9d1c9858dd60821b6064820152608401620001f9565b806200032d7fa3f0ad74e5423aebfd80d3ef4346578335a9a72aeaee59ff6cb3582b35133d5060001b6200045560201b620001a51760201c565b80546001600160a01b0319166001600160a01b039290921691909117905550565b606062000376838360405180606001604052806027815260200162000e056027913962000458565b9392505050565b6000620003a760008051602062000de583398151915260001b6200045560201b620001a51760201c565b546001600160a01b0316919050565b6001600160a01b0381166200041d5760405162461bcd60e51b815260206004820152602660248201527f455243313936373a206e65772061646d696e20697320746865207a65726f206160448201526564647265737360d01b6064820152608401620001f9565b806200032d60008051602062000de583398151915260001b6200045560201b620001a51760201c565b6001600160a01b03163b151590565b90565b60606001600160a01b0384163b620004c25760405162461bcd60e51b815260206004820152602660248201527f416464726573733a2064656c65676174652063616c6c20746f206e6f6e2d636f6044820152651b9d1c9858dd60d21b6064820152608401620001f9565b600080856001600160a01b031685604051620004df9190620006ca565b600060405180830381855af49150503d80600081146200051c576040519150601f19603f3d011682016040523d82523d6000602084013e62000521565b606091505b509092509050620005348282866200053e565b9695505050505050565b606083156200054f57508162000376565b825115620005605782518084602001fd5b8160405162461bcd60e51b8152600401620001f99190620006e8565b80516001600160a01b03811681146200059457600080fd5b919050565b634e487b7160e01b600052604160045260246000fd5b60005b83811015620005cc578181015183820152602001620005b2565b838111156200012a5750506000910152565b60008060408385031215620005f257600080fd5b620005fd836200057c565b60208401519092506001600160401b03808211156200061b57600080fd5b818501915085601f8301126200063057600080fd5b81518181111562000645576200064562000599565b604051601f8201601f19908116603f0116810190838211818310171562000670576200067062000599565b816040528281528860208487010111156200068a57600080fd5b6200069d836020830160208801620005af565b80955050505050509250929050565b600060208284031215620006bf57600080fd5b62000376826200057c565b60008251620006de818460208701620005af565b9190910192915050565b602081526000825180602084015262000709816040850160208701620005af565b601f01601f19169190910160400192915050565b6106b8806200072d6000396000f3fe6080604052600436106100435760003560e01c80633659cfe61461005a5780635c60da1b1461007a5780638f283970146100ab578063f851a440146100cb57610052565b36610052576100506100e0565b005b6100506100e0565b34801561006657600080fd5b506100506100753660046105a2565b6100f2565b34801561008657600080fd5b5061008f610127565b6040516001600160a01b03909116815260200160405180910390f35b3480156100b757600080fd5b506100506100c63660046105a2565b610136565b3480156100d757600080fd5b5061008f610160565b6100f06100eb6101a8565b610222565b565b6100fa610246565b6001600160a01b0316336001600160a01b0316141561011f5761011c81610279565b50565b61011c6100e0565b60006101316101a8565b905090565b61013e610246565b6001600160a01b0316336001600160a01b0316141561011f5761011c816102b9565b6000610131610246565b606061018f838360405180606001604052806027815260200161065c6027913961030d565b9392505050565b6001600160a01b03163b151590565b90565b60006101b26103ef565b6001600160a01b0316635c60da1b6040518163ffffffff1660e01b815260040160206040518083038186803b1580156101ea57600080fd5b505afa1580156101fe573d6000803e3d6000fd5b505050506040513d601f19601f8201168201806040525081019061013191906105bf565b3660008037600080366000845af43d6000803e808015610241573d6000f35b3d6000fd5b60007fb53127684a568b3173ae13b9f8a6016e243e63b6e8ee1178d6a717850b5d61035b546001600160a01b0316919050565b61028281610417565b6040516001600160a01b038216907fbc7cd75a20ee27fd9adebab32041f755214dbc6bffa90cc0225b39da2e5c2d3b90600090a250565b7f7e644d79422f17c01e4894b5f4f588d331ebfa28653d42ae832dc59e38c9798f6102e2610246565b604080516001600160a01b03928316815291841660208301520160405180910390a161011c816104c8565b60606001600160a01b0384163b61037a5760405162461bcd60e51b815260206004820152602660248201527f416464726573733a2064656c65676174652063616c6c20746f206e6f6e2d636f6044820152651b9d1c9858dd60d21b60648201526084015b60405180910390fd5b600080856001600160a01b031685604051610395919061060c565b600060405180830381855af49150503d80600081146103d0576040519150601f19603f3d011682016040523d82523d6000602084013e6103d5565b606091505b50915091506103e5828286610554565b9695505050505050565b60007fa3f0ad74e5423aebfd80d3ef4346578335a9a72aeaee59ff6cb3582b35133d5061026a565b6001600160a01b0381163b6104845760405162461bcd60e51b815260206004820152602d60248201527f455243313936373a206e657720696d706c656d656e746174696f6e206973206e60448201526c1bdd08184818dbdb9d1c9858dd609a1b6064820152608401610371565b807f360894a13ba1a3210667c828492db98dca3e2076cc3735a920a3ca505d382bbc5b80546001600160a01b0319166001600160a01b039290921691909117905550565b6001600160a01b03811661052d5760405162461bcd60e51b815260206004820152602660248201527f455243313936373a206e65772061646d696e20697320746865207a65726f206160448201526564647265737360d01b6064820152608401610371565b807fb53127684a568b3173ae13b9f8a6016e243e63b6e8ee1178d6a717850b5d61036104a7565b6060831561056357508161018f565b8251156105735782518084602001fd5b8160405162461bcd60e51b81526004016103719190610628565b6001600160a01b038116811461011c57600080fd5b6000602082840312156105b457600080fd5b813561018f8161058d565b6000602082840312156105d157600080fd5b815161018f8161058d565b60005b838110156105f75781810151838201526020016105df565b83811115610606576000848401525b50505050565b6000825161061e8184602087016105dc565b9190910192915050565b60208152600082518060208401526106478160408501602087016105dc565b601f01601f1916919091016040019291505056fe416464726573733a206c6f772d6c6576656c2064656c65676174652063616c6c206661696c6564a2646970667358221220f6fee21bb8eb753a42dfc1c8f826e6d7277c4b10f8ce653b156cb600671172c864736f6c63430008090033b53127684a568b3173ae13b9f8a6016e243e63b6e8ee1178d6a717850b5d6103416464726573733a206c6f772d6c6576656c2064656c65676174652063616c6c206661696c6564a264697066735822122095ef079476c5e1af2b8c8e959982e724f0b979f80a1276f12b7793838430e7b864736f6c63430008090033",
  "libraries": {
    "QuickSort": "0x6CA8aa4488Bdb4Ed764E7978A503C7a89a4f286c"
  },
  "implementation": "0xB534295352a95781D7a88AD196bBc7EEfE204Fc7",
  "devdoc": {
    "kind": "dev",
    "methods": {
      "acceptedContracts()": {
        "details": "The contact name listed in this method is also needed to be listed `requiredContracts` method."
      },
      "cancelOrder(bytes32,uint256,uint256)": {
        "params": {
          "_ccy": "Currency name in bytes32 of the selected market",
          "_maturity": "The maturity of the selected market",
          "_orderId": "Market order id"
        }
      },
      "convertFutureValueToGenesisValue(address)": {
        "params": {
          "_user": "User's address"
        }
      },
      "createLendingMarket(bytes32)": {
        "params": {
          "_ccy": "Main currency for new lending market"
        },
        "returns": {
          "market": "The proxy contract address of created lending market"
        }
      },
      "createOrder(bytes32,uint256,uint8,uint256,uint256)": {
        "params": {
          "_amount": "Amount of funds the maker wants to borrow/lend",
          "_ccy": "Currency name in bytes32 of the selected market",
          "_maturity": "The maturity of the selected market",
          "_rate": "Amount of interest rate taker wish to borrow/lend",
          "_side": "Order position type, Borrow or Lend"
        },
        "returns": {
          "_0": "True if the execution of the operation succeeds"
        }
      },
      "getBasisDate(bytes32)": {
        "params": {
          "_ccy": "Currency name in bytes32"
        },
        "returns": {
          "_0": "The basis date"
        }
      },
      "getBeaconProxyAddress(bytes32)": {
        "params": {
          "beaconName": "The cache name of the beacon proxy"
        },
        "returns": {
          "_0": "totalPresentValue The beacon proxy address"
        }
      },
      "getBorrowRates(bytes32)": {
        "params": {
          "_ccy": "Currency name in bytes32"
        },
        "returns": {
          "_0": "Array with the borrowing rate of the lending market"
        }
      },
      "getLendRates(bytes32)": {
        "params": {
          "_ccy": "Currency name in bytes32"
        },
        "returns": {
          "_0": "Array with the lending rate of the lending market"
        }
      },
      "getLendingMarket(bytes32,uint256)": {
        "params": {
          "_ccy": "Currency name in bytes32",
          "_maturity": "The maturity of the market"
        },
        "returns": {
          "_0": "The lending market address"
        }
      },
      "getLendingMarkets(bytes32)": {
        "params": {
          "_ccy": "Currency name in bytes32"
        },
        "returns": {
          "_0": "Array with the lending market address"
        }
      },
      "getMaturities(bytes32)": {
        "params": {
          "_ccy": "Currency name in bytes32"
        },
        "returns": {
          "_0": "Array with the lending market maturity"
        }
      },
      "getMidRates(bytes32)": {
        "params": {
          "_ccy": "Currency name in bytes32"
        },
        "returns": {
          "_0": "Array with the mid rate of the lending market"
        }
      },
      "getTotalPresentValue(bytes32,address)": {
        "params": {
          "_account": "Target account address",
          "_ccy": "Currency name in bytes32 for Lending Market"
        },
        "returns": {
          "totalPresentValue": "The total present value"
        }
      },
      "getTotalPresentValueInETH(address)": {
        "params": {
          "_account": "Target account address"
        },
        "returns": {
          "totalPresentValue": "The total present value in ETH"
        }
      },
      "initialize(address,address)": {
        "details": "Function is invoked by the proxy contract when the contract is added to the ProxyController.",
        "params": {
          "_owner": "The address of the contract owner",
          "_resolver": "The address of the Address Resolver contract"
        }
      },
      "initializeLendingMarket(bytes32,uint256,uint256)": {
        "params": {
          "_basisDate": "The basis date when the initial market is opened",
          "_ccy": "Currency name in bytes32",
          "_compoundFactor": "The initial compound factor when the initial market is opened"
        }
      },
      "isInitializedLendingMarket(bytes32)": {
        "params": {
          "_ccy": "Currency name in bytes32"
        },
        "returns": {
          "_0": "The boolean if the lending market is initialized or not"
        }
      },
      "matchOrders(bytes32,uint256,uint8,uint256,uint256)": {
        "params": {
          "_amount": "Amount of funds the maker wants to borrow/lend",
          "_ccy": "Currency name in bytes32 of the selected market",
          "_maturity": "The maturity of the selected market",
          "_rate": "Amount of interest rate taker wish to borrow/lend",
          "_side": "Order position type, Borrow or Lend"
        },
        "returns": {
          "_0": "True if the execution of the operation succeeds"
        }
      },
      "owner()": {
        "details": "Returns the address of the current owner."
      },
      "pauseLendingMarkets(bytes32)": {
        "params": {
          "_ccy": "Currency for pausing all lending markets"
        },
        "returns": {
          "_0": "True if the execution of the operation succeeds"
        }
      },
      "renounceOwnership()": {
        "details": "Leaves the contract without owner. It will not be possible to call `onlyOwner` functions anymore. Can only be called by the current owner. NOTE: Renouncing ownership will leave the contract without an owner, thereby removing any functionality that is only available to the owner."
      },
      "requiredContracts()": {
        "details": "The contract name list is in `./libraries/Contracts.sol`."
      },
      "rotateLendingMarkets(bytes32)": {
        "params": {
          "_ccy": "Currency name in bytes32 of the selected market"
        }
      },
      "setLendingMarketImpl(address)": {
        "params": {
          "newImpl": "The address of implementation contract"
        }
      },
      "transferOwnership(address)": {
        "details": "Transfers ownership of the contract to a new account (`newOwner`). Can only be called by the current owner."
      },
      "unpauseLendingMarkets(bytes32)": {
        "params": {
          "_ccy": "Currency for pausing all lending markets"
        },
        "returns": {
          "_0": "True if the execution of the operation succeeds"
        }
      }
    },
    "version": 1
  },
  "userdoc": {
    "kind": "user",
    "methods": {
      "acceptedContracts()": {
        "notice": "Returns contract names that can call this contract."
      },
      "cancelOrder(bytes32,uint256,uint256)": {
        "notice": "Cancels the own order."
      },
      "convertFutureValueToGenesisValue(address)": {
        "notice": "Converts FutureValue to GenesisValue if there is balance in the past maturity."
      },
      "createLendingMarket(bytes32)": {
        "notice": "Deploys new Lending Market and save address at lendingMarkets mapping.Reverts on deployment market with existing currency and term"
      },
      "createOrder(bytes32,uint256,uint8,uint256,uint256)": {
        "notice": "Creates the order. Takes the order if the order is matched, and places new order if not match it. In addition, converts the future value to the genesis value if there is future value in past maturity before the execution of order creation."
      },
      "getBasisDate(bytes32)": {
        "notice": "Gets the basis date when the first market opens for the selected currency."
      },
      "getBeaconProxyAddress(bytes32)": {
        "notice": "Gets the beacon proxy address to the selected name."
      },
      "getBorrowRates(bytes32)": {
        "notice": "Gets borrow rates for the selected currency."
      },
      "getLendRates(bytes32)": {
        "notice": "Gets lend rates for the selected currency."
      },
      "getLendingMarket(bytes32,uint256)": {
        "notice": "Gets the lending market contract address for the selected currency and maturity."
      },
      "getLendingMarkets(bytes32)": {
        "notice": "Gets the lending market contract addresses for the selected currency."
      },
      "getMaturities(bytes32)": {
        "notice": "Gets maturities for the selected currency."
      },
      "getMidRates(bytes32)": {
        "notice": "Gets mid rates for the selected currency."
      },
      "getTotalPresentValue(bytes32,address)": {
        "notice": "Gets the total present value of the account for selected currency."
      },
      "getTotalPresentValueInETH(address)": {
        "notice": "Gets the total present value of the account converted to ETH."
      },
      "initialize(address,address)": {
        "notice": "Initializes the contract."
      },
      "initializeLendingMarket(bytes32,uint256,uint256)": {
        "notice": "Initialize the lending market to set a basis date and compound factor"
      },
      "isInitializedLendingMarket(bytes32)": {
        "notice": "Gets if the lending market is initialized."
      },
      "matchOrders(bytes32,uint256,uint8,uint256,uint256)": {
        "notice": "Gets if the market order will be matched or not."
      },
      "pauseLendingMarkets(bytes32)": {
        "notice": "Pauses previously deployed lending market by currency"
      },
      "requiredContracts()": {
        "notice": "Returns the contract names used in this contract."
      },
      "rotateLendingMarkets(bytes32)": {
        "notice": "Rotate the lending markets. In this rotation, the following actions are happened. - Updates the maturity at the beginning of the market array. - Moves the beginning of the market array to the end of it. - Update the compound factor in this contract using the next market rate."
      },
      "setLendingMarketImpl(address)": {
        "notice": "Sets the implementation contract of LendingMarket"
      },
      "unpauseLendingMarkets(bytes32)": {
        "notice": "Unpauses previously deployed lending market by currency"
      }
    },
    "notice": "Implements the module to manage separated lending order-book markets per maturity. This contract also works as a factory contract that can deploy(start)a new lending market for selected currency and maturity and has the calculation logic for the Genesis value in addition. Deployed Lending Markets are rotated and reused as it reaches the maturity date. At the time of rotation, a new maturity date is set and the compound factor is updated. The users mainly call this contract to create orders to lend or borrow funds.",
    "version": 1
  },
  "storageLayout": {
    "storage": [
      {
        "astId": 15191,
        "contract": "contracts/LendingMarketController.sol:LendingMarketController",
        "label": "resolver",
        "offset": 0,
        "slot": "0",
        "type": "t_contract(IAddressResolver)8543"
      },
      {
        "astId": 15195,
        "contract": "contracts/LendingMarketController.sol:LendingMarketController",
        "label": "addressCache",
        "offset": 0,
        "slot": "1",
        "type": "t_mapping(t_bytes32,t_address)"
      },
      {
        "astId": 15508,
        "contract": "contracts/LendingMarketController.sol:LendingMarketController",
        "label": "_registeredBeaconProxies",
        "offset": 0,
        "slot": "2",
        "type": "t_mapping(t_bytes32,t_address)"
      },
      {
        "astId": 1053,
        "contract": "contracts/LendingMarketController.sol:LendingMarketController",
        "label": "_status",
        "offset": 0,
        "slot": "3",
        "type": "t_uint256"
      },
      {
        "astId": 790,
        "contract": "contracts/LendingMarketController.sol:LendingMarketController",
        "label": "_initialized",
        "offset": 0,
        "slot": "4",
        "type": "t_uint8"
      },
      {
        "astId": 793,
        "contract": "contracts/LendingMarketController.sol:LendingMarketController",
        "label": "_initializing",
        "offset": 1,
        "slot": "4",
        "type": "t_bool"
      }
    ],
    "types": {
      "t_address": {
        "encoding": "inplace",
        "label": "address",
        "numberOfBytes": "20"
      },
      "t_bool": {
        "encoding": "inplace",
        "label": "bool",
        "numberOfBytes": "1"
      },
      "t_bytes32": {
        "encoding": "inplace",
        "label": "bytes32",
        "numberOfBytes": "32"
      },
      "t_contract(IAddressResolver)8543": {
        "encoding": "inplace",
        "label": "contract IAddressResolver",
        "numberOfBytes": "20"
      },
      "t_mapping(t_bytes32,t_address)": {
        "encoding": "mapping",
        "key": "t_bytes32",
        "label": "mapping(bytes32 => address)",
        "numberOfBytes": "32",
        "value": "t_address"
      },
      "t_uint256": {
        "encoding": "inplace",
        "label": "uint256",
        "numberOfBytes": "32"
      },
      "t_uint8": {
        "encoding": "inplace",
        "label": "uint8",
        "numberOfBytes": "1"
      }
    }
  }
}