{
  "address": "0x7470BdD73572BEAF2DecD3CCfcf8D9e753AdF90f",
  "abi": [
    {
      "inputs": [
        {
          "internalType": "uint256",
          "name": "_timestamp",
          "type": "uint256"
        },
        {
          "internalType": "uint256",
          "name": "_period",
          "type": "uint256"
        }
      ],
      "name": "calculateNextMaturity",
      "outputs": [
        {
          "internalType": "uint256",
          "name": "",
          "type": "uint256"
        }
      ],
      "stateMutability": "pure",
      "type": "function"
    }
  ],
  "transactionHash": "0x75253b2c177b40b177bbce4ad4de130647f7e37f4b8ebd443e1b4b2dc6669e51",
  "args": [],
  "numDeployments": 1,
  "solcInputHash": "f971a85ea01edb63c25af76989da1bfd",
  "bytecode": "0x611dfb61003a600b82828239805160001a60731461002d57634e487b7160e01b600052600060045260246000fd5b30600052607381538281f3fe730000000000000000000000000000000000000000301460806040526004361061006c5760003560e01c8063420eadb71461007157806372d563ef14610097578063a3d54d8c146100dd578063cc03348b14610112578063d3f43b7914610134578063e88e183714610154575b600080fd5b61008461007f366004611912565b610174565b6040519081526020015b60405180910390f35b8180156100a357600080fd5b506100b76100b2366004611912565b61019d565b604080516001600160a01b0394851681529390921660208401529082015260600161008e565b8180156100e957600080fd5b506100fd6100f8366004611912565b61073b565b6040805192835260208301919091520161008e565b81801561011e57600080fd5b5061013261012d36600461197b565b610b9b565b005b81801561014057600080fd5b5061013261014f366004611a27565b610d08565b81801561016057600080fd5b5061013261016f366004611a53565b610db4565b60008161018d57610186836007610fdd565b9050610197565b6101868383611005565b92915050565b60008060006101aa6110d2565b6001600160a01b031663f7b637bb866040518263ffffffff1660e01b81526004016101d791815260200190565b60206040518083038186803b1580156101ef57600080fd5b505afa158015610203573d6000803e3d6000fd5b505050506040513d601f19601f820116820180604052508101906102279190611a96565b6102975760405162461bcd60e51b815260206004820152603660248201527f4c656e64696e67206d61726b6574206861736e2774206265656e20696e697469604482015275616c697a656420696e207468652063757272656e637960501b60648201526084015b60405180910390fd5b61029f6110f6565b6001600160a01b0316631eae0893866040518263ffffffff1660e01b81526004016102cc91815260200190565b60206040518083038186803b1580156102e457600080fd5b505afa1580156102f8573d6000803e3d6000fd5b505050506040513d601f19601f8201168201806040525081019061031c9190611a96565b6103615760405162461bcd60e51b81526020600482015260166024820152754e6f6e20737570706f727465642063757272656e637960501b604482015260640161028e565b610369611116565b6000868152600191909101602052604090205461040c576103886110d2565b6001600160a01b03166349a1d218866040518263ffffffff1660e01b81526004016103b591815260200190565b60206040518083038186803b1580156103cd57600080fd5b505afa1580156103e1573d6000803e3d6000fd5b505050506040513d601f19601f820116820180604052508101906104059190611ab8565b90506104f6565b6000610416611116565b600087815260019182016020526040902090610430611116565b6000898152600191909101602052604090205461044d9190611ae7565b8154811061045d5761045d611afe565b600091825260209182902001546040805163e16695b560e01b815290516001600160a01b039092169263e16695b592600480840193829003018186803b1580156104a657600080fd5b505afa1580156104ba573d6000803e3d6000fd5b505050506040513d601f19601f820116820180604052508101906104de9190611ab8565b90506104f2816104ec611116565b54610174565b9150505b80841061055e5760405162461bcd60e51b815260206004820152603060248201527f4d61726b6574206f70656e696e672064617465206d757374206265206265666f60448201526f7265206d61747572697479206461746560801b606482015260840161028e565b61056661113a565b604051634672758f60e01b81526004810187905260248101839052604481018690526001600160a01b039190911690634672758f90606401602060405180830381600087803b1580156105b857600080fd5b505af11580156105cc573d6000803e3d6000fd5b505050506040513d601f19601f820116820180604052508101906105f09190611b14565b92506105fa61113a565b6001600160a01b031663a97c4b536040518163ffffffff1660e01b8152600401602060405180830381600087803b15801561063457600080fd5b505af1158015610648573d6000803e3d6000fd5b505050506040513d601f19601f8201168201806040525081019061066c9190611b14565b9150610676611116565b6000868152600191820160209081526040822080549384018155825290200180546001600160a01b0319166001600160a01b038516179055826106b7611116565b600087815260039190910160209081526040808320858452909152902080546001600160a01b0319166001600160a01b0392909216919091179055816106fb611116565b6000968752600201602090815260408088206001600160a01b038781168a52925290962080546001600160a01b0319169190961617909455909390929150565b6000806000610748611116565b6001016000868152602001908152602001600020905060008160008154811061077357610773611afe565b600091825260208220015483546001600160a01b039091169250839060019081106107a0576107a0611afe565b60009182526020808320909101546040805163e16695b560e01b815290516001600160a01b039092169450849263e16695b592600480840193829003018186803b1580156107ed57600080fd5b505afa158015610801573d6000803e3d6000fd5b505050506040513d601f19601f820116820180604052508101906108259190611ab8565b90506108d5846001868054905061083c9190611ae7565b8154811061084c5761084c611afe565b600091825260209182902001546040805163e16695b560e01b815290516001600160a01b039092169263e16695b592600480840193829003018186803b15801561089557600080fd5b505afa1580156108a9573d6000803e3d6000fd5b505050506040513d601f19601f820116820180604052508101906108cd9190611ab8565b6104ec611116565b604051630437309d60e51b815260048101829052602481018390529095506001600160a01b038416906386e613a090604401602060405180830381600087803b15801561092157600080fd5b505af1158015610935573d6000803e3d6000fd5b505050506040513d601f19601f820116820180604052508101906109599190611ab8565b955060005b8454811015610a08578454600090829061097a90600190611ae7565b146109b5578561098b836001611b3d565b8154811061099b5761099b611afe565b6000918252602090912001546001600160a01b03166109b7565b845b9050808683815481106109cc576109cc611afe565b600091825260209091200180546001600160a01b0319166001600160a01b03929092169190911790555080610a0081611b55565b91505061095e565b506000610a13611116565b60008a8152600291909101602090815260408083206001600160a01b038089168552925290912054169050610a466110d2565b6001600160a01b031663348183cf8a8985610a618e8861115d565b604051634955b91f60e11b8152600481018e90528e906001600160a01b038916906392ab723e9060240160206040518083038186803b158015610aa357600080fd5b505afa158015610ab7573d6000803e3d6000fd5b505050506040513d601f19601f82011682018060405250810190610adb9190611ab8565b6040516001600160e01b031960e089901b1681526004810196909652602486019490945260448501929092526064840152608483015260a482015260c401600060405180830381600087803b158015610b3357600080fd5b505af1158015610b47573d6000803e3d6000fd5b5050505083610b54611116565b60009a8b5260030160209081526040808c20898d5290915290992080546001600160a01b0319166001600160a01b03909a1699909917909855509396929550919350505050565b60005b8251811015610d03576000610bb1611116565b6003016000858481518110610bc857610bc8611afe565b60200260200101518152602001908152602001600020600084815260200190815260200160002060009054906101000a90046001600160a01b03169050806001600160a01b0316639d6529076040518163ffffffff1660e01b815260040160206040518083038186803b158015610c3e57600080fd5b505afa158015610c52573d6000803e3d6000fd5b505050506040513d601f19601f82011682018060405250810190610c769190611a96565b15610cf057806001600160a01b0316637e7069386040518163ffffffff1660e01b8152600401602060405180830381600087803b158015610cb657600080fd5b505af1158015610cca573d6000803e3d6000fd5b505050506040513d601f19601f82011682018060405250810190610cee9190611ab8565b505b5080610cfb81611b55565b915050610b9e565b505050565b610d106110d2565b6001600160a01b031663a2d7d02d84602484610d2e876104ec611116565b6040516001600160e01b031960e087901b168152600481019490945260ff909216602484015260448301526064820152608401600060405180830381600087803b158015610d7b57600080fd5b505af1158015610d8f573d6000803e3d6000fd5b5050505081610d9c611116565b60009485526004016020526040909320929092555050565b610dbc611116565b6000878152600391909101602090815260408083208884529091529020546001600160a01b0316610deb611116565b6001016000888152602001908152602001600020600181548110610e1157610e11611afe565b6000918252602090912001546001600160a01b03161415610fd5576000610e36611116565b6001016000888152602001908152602001600020600081548110610e5c57610e5c611afe565b600091825260209182902001546040805163e16695b560e01b815290516001600160a01b039092169263e16695b592600480840193829003018186803b158015610ea557600080fd5b505afa158015610eb9573d6000803e3d6000fd5b505050506040513d601f19601f82011682018060405250810190610edd9190611ab8565b9050610ee7611116565b600088815260089190910160209081526040808320898452909152902054610f3b57610f148487836112b3565b610f1c611116565b6000898152600991909101602090815260408083208a84529091529020555b8042108015610f535750610f4f8582611ae7565b4210155b15610fd35782610f61611116565b6000898152600891909101602090815260408083208a845290915281208054909190610f8e908490611b3d565b90915550829050610f9d611116565b6000898152600891909101602090815260408083208a845290915281206001018054909190610fcd908490611b3d565b90915550505b505b505050505050565b6000610fec6201518083611b70565b610ff69084611b3d565b90508281101561019757600080fd5b600080806110256110208661101b876001611b3d565b611326565b6113fd565b509150915060006110388383600061141e565b9050600061104582611441565b905060006005826005841061105b57600061105e565b60075b60ff1661106b9190611b3d565b6110759190611ae7565b9050611081838261147c565b9550600086116110c75760405162461bcd60e51b81526020600482015260116024820152700496e76616c69642054696d657374616d7607c1b604482015260640161028e565b505050505092915050565b60006110f17011d95b995cda5cd5985b1d5955985d5b1d607a1b6114a4565b905090565b60006110f17121bab93932b731bca1b7b73a3937b63632b960711b6114a4565b7f8041b8421ebd495cc61f38c788c9eb100daccf9bd36aa0bb920b7a15b2e0496590565b60006110f1742132b0b1b7b7283937bc3ca1b7b73a3937b63632b960591b6114a4565b600080611168611116565b60008581526008919091016020908152604080832086845282529182902082518084019093528054835260010154908201819052909150156111cb576111c4816020015161271083600001516111be9190611b70565b90611535565b91506112ac565b6111d3611116565b60008581526009919091016020908152604080832086845290915290205415611223576111fe611116565b60008581526009919091016020908152604080832086845290915290205491506112ac565b61122b6110d2565b6001600160a01b031663d637c15f856040518263ffffffff1660e01b815260040161125891815260200190565b60a06040518083038186803b15801561127057600080fd5b505afa158015611284573d6000803e3d6000fd5b505050506040513d601f19601f820116820180604052508101906112a89190611b8f565b5191505b5092915050565b6000806112c04285611ae7565b905060006112ce8486611ae7565b90506112da8287611b70565b816112e788612710611ae7565b6112f19190611b70565b6112fb9190611b3d565b8261130888612710611b70565b6113129190611b70565b61131c9190611c15565b9695505050505050565b600080808061134061133b6201518088611c15565b61159f565b919450925090506113518583611b3d565b9150600c611360600184611ae7565b61136a9190611c15565b6113749084611b3d565b9250600c611383600184611ae7565b61138d9190611c29565b611398906001611b3d565b915060006113a68484611713565b9050808211156113b4578091505b6113c16201518088611c29565b620151806113d0868686611799565b6113da9190611b70565b6113e49190611b3d565b9450868510156113f357600080fd5b5050505092915050565b6000808061141161133b6201518086611c15565b9196909550909350915050565b60006201518061142f858585611799565b6114399190611b70565b949350505050565b6000806114516201518084611c15565b90506007611460826003611b3d565b61146a9190611c29565b611475906001611b3d565b9392505050565b600061148b6201518083611b70565b6114959084611ae7565b90508281111561019757600080fd5b60008181527f4abde63c3e81aefa5764b017968bc473e83e093d7e1a10247d19e0a3e41240196020908152604080832054815170026b4b9b9b4b7339030b2323932b9b99d1607d1b9381019390935260318084018690528251808503909101815260519093019091526001600160a01b031690816112ac5760405162461bcd60e51b815260040161028e9190611c3d565b600080821161154357600080fd5b600561154f8385611c15565b61155a90600a611b70565b8361156686600a611b70565b6115709190611c15565b61157a9190611ae7565b101561158a576101868284611c15565b6115948284611c15565b610186906001611b3d565b60008080838162253d8c6115b68362010bd9611c92565b6115c09190611c92565b9050600062023ab16115d3836004611cd3565b6115dd9190611d58565b905060046115ee8262023ab1611cd3565b6115f9906003611c92565b6116039190611d58565b61160d9083611d86565b9150600062164b09611620846001611c92565b61162c90610fa0611cd3565b6116369190611d58565b90506004611646826105b5611cd3565b6116509190611d58565b61165a9084611d86565b61166590601f611c92565b9250600061098f611677856050611cd3565b6116819190611d58565b9050600060506116938361098f611cd3565b61169d9190611d58565b6116a79086611d86565b90506116b4600b83611d58565b94506116c185600c611cd3565b6116cc836002611c92565b6116d69190611d86565b915084836116e5603187611d86565b6116f0906064611cd3565b6116fa9190611c92565b6117049190611c92565b9a919950975095505050505050565b600081600114806117245750816003145b8061172f5750816005145b8061173a5750816007145b806117455750816008145b80611750575081600a145b8061175b575081600c145b156117685750601f610197565b816002146117785750601e610197565b611781836118d6565b61178c57601c61178f565b601d5b60ff169392505050565b60006107b28410156117aa57600080fd5b838383600062253d8c60046064600c6117c4600e88611d86565b6117ce9190611d58565b6117da88611324611c92565b6117e49190611c92565b6117ee9190611d58565b6117f9906003611cd3565b6118039190611d58565b600c80611811600e88611d86565b61181b9190611d58565b61182690600c611cd3565b611831600288611d86565b61183b9190611d86565b6118479061016f611cd3565b6118519190611d58565b6004600c611860600e89611d86565b61186a9190611d58565b611876896112c0611c92565b6118809190611c92565b61188c906105b5611cd3565b6118969190611d58565b6118a2617d4b87611d86565b6118ac9190611c92565b6118b69190611c92565b6118c09190611d86565b6118ca9190611d86565b98975050505050505050565b60006118e3600483611c29565b1580156118f957506118f6606483611c29565b15155b80610197575061190b61019083611c29565b1592915050565b6000806040838503121561192557600080fd5b50508035926020909101359150565b634e487b7160e01b600052604160045260246000fd5b604051601f8201601f1916810167ffffffffffffffff8111828210171561197357611973611934565b604052919050565b6000806040838503121561198e57600080fd5b823567ffffffffffffffff808211156119a657600080fd5b818501915085601f8301126119ba57600080fd5b81356020828211156119ce576119ce611934565b8160051b92506119df81840161194a565b82815292840181019281810190898511156119f957600080fd5b948201945b84861015611a17578535825294820194908201906119fe565b9997909101359750505050505050565b600080600060608486031215611a3c57600080fd5b505081359360208301359350604090920135919050565b60008060008060008060c08789031215611a6c57600080fd5b505084359660208601359650604086013595606081013595506080810135945060a0013592509050565b600060208284031215611aa857600080fd5b8151801515811461147557600080fd5b600060208284031215611aca57600080fd5b5051919050565b634e487b7160e01b600052601160045260246000fd5b600082821015611af957611af9611ad1565b500390565b634e487b7160e01b600052603260045260246000fd5b600060208284031215611b2657600080fd5b81516001600160a01b038116811461147557600080fd5b60008219821115611b5057611b50611ad1565b500190565b6000600019821415611b6957611b69611ad1565b5060010190565b6000816000190483118215151615611b8a57611b8a611ad1565b500290565b600060a08284031215611ba157600080fd5b60405160a0810181811067ffffffffffffffff82111715611bc457611bc4611934565b806040525082518152602083015160208201526040830151604082015260608301516060820152608083015160808201528091505092915050565b634e487b7160e01b600052601260045260246000fd5b600082611c2457611c24611bff565b500490565b600082611c3857611c38611bff565b500690565b600060208083528351808285015260005b81811015611c6a57858101830151858201604001528201611c4e565b81811115611c7c576000604083870101525b50601f01601f1916929092016040019392505050565b600080821280156001600160ff1b0384900385131615611cb457611cb4611ad1565b600160ff1b8390038412811615611ccd57611ccd611ad1565b50500190565b60006001600160ff1b0381841382841380821686840486111615611cf957611cf9611ad1565b600160ff1b6000871282811687830589121615611d1857611d18611ad1565b60008712925087820587128484161615611d3457611d34611ad1565b87850587128184161615611d4a57611d4a611ad1565b505050929093029392505050565b600082611d6757611d67611bff565b600160ff1b821460001984141615611d8157611d81611ad1565b500590565b60008083128015600160ff1b850184121615611da457611da4611ad1565b6001600160ff1b0384018313811615611dbf57611dbf611ad1565b5050039056fea2646970667358221220b023fa0086e2c8b2c3e29ceaa72301b8a063afb7689bb11c99f2c9b3a9550d1c64736f6c63430008090033",
  "devdoc": {
    "kind": "dev",
    "methods": {},
    "version": 1
  },
  "userdoc": {
    "kind": "user",
    "methods": {},
    "version": 1
  },
  "storageLayout": {
    "storage": [],
    "types": null
  }
}