{
  "address": "0xEBB5c67D614192E3f11F482133dCe47bD1865dc7",
  "abi": [
    {
      "anonymous": false,
      "inputs": [
        {
          "indexed": false,
          "internalType": "bytes32",
          "name": "name",
          "type": "bytes32"
        },
        {
          "indexed": false,
          "internalType": "address",
          "name": "destination",
          "type": "address"
        }
      ],
      "name": "CacheUpdated",
      "type": "event"
    },
    {
      "anonymous": false,
      "inputs": [
        {
          "indexed": false,
          "internalType": "uint8",
          "name": "version",
          "type": "uint8"
        }
      ],
      "name": "Initialized",
      "type": "event"
    },
    {
      "anonymous": false,
      "inputs": [
        {
          "indexed": false,
          "internalType": "address",
          "name": "account",
          "type": "address"
        }
      ],
      "name": "Paused",
      "type": "event"
    },
    {
      "anonymous": false,
      "inputs": [
        {
          "indexed": false,
          "internalType": "address",
          "name": "account",
          "type": "address"
        }
      ],
      "name": "Unpaused",
      "type": "event"
    },
    {
      "inputs": [],
      "name": "acceptedContracts",
      "outputs": [
        {
          "internalType": "bytes32[]",
          "name": "contracts",
          "type": "bytes32[]"
        }
      ],
      "stateMutability": "pure",
      "type": "function"
    },
    {
      "inputs": [],
      "name": "buildCache",
      "outputs": [],
      "stateMutability": "nonpayable",
      "type": "function"
    },
    {
      "inputs": [
        {
          "internalType": "uint8",
          "name": "_orderBookId",
          "type": "uint8"
        },
        {
          "internalType": "enum ProtocolTypes.Side",
          "name": "_side",
          "type": "uint8"
        },
        {
          "internalType": "uint256",
          "name": "_amount",
          "type": "uint256"
        },
        {
          "internalType": "uint256",
          "name": "_unitPrice",
          "type": "uint256"
        },
        {
          "internalType": "uint256",
          "name": "_circuitBreakerLimitRange",
          "type": "uint256"
        }
      ],
      "name": "calculateFilledAmount",
      "outputs": [
        {
          "internalType": "uint256",
          "name": "lastUnitPrice",
          "type": "uint256"
        },
        {
          "internalType": "uint256",
          "name": "filledAmount",
          "type": "uint256"
        },
        {
          "internalType": "uint256",
          "name": "filledAmountInFV",
          "type": "uint256"
        }
      ],
      "stateMutability": "view",
      "type": "function"
    },
    {
      "inputs": [
        {
          "internalType": "uint8",
          "name": "_orderBookId",
          "type": "uint8"
        },
        {
          "internalType": "address",
          "name": "_user",
          "type": "address"
        },
        {
          "internalType": "uint48",
          "name": "_orderId",
          "type": "uint48"
        }
      ],
      "name": "cancelOrder",
      "outputs": [],
      "stateMutability": "nonpayable",
      "type": "function"
    },
    {
      "inputs": [
        {
          "internalType": "uint8",
          "name": "_orderBookId",
          "type": "uint8"
        },
        {
          "internalType": "address",
          "name": "_user",
          "type": "address"
        }
      ],
      "name": "cleanUpOrders",
      "outputs": [
        {
          "internalType": "uint256",
          "name": "activeLendOrderCount",
          "type": "uint256"
        },
        {
          "internalType": "uint256",
          "name": "activeBorrowOrderCount",
          "type": "uint256"
        },
        {
          "internalType": "uint256",
          "name": "removedLendOrderFutureValue",
          "type": "uint256"
        },
        {
          "internalType": "uint256",
          "name": "removedBorrowOrderFutureValue",
          "type": "uint256"
        },
        {
          "internalType": "uint256",
          "name": "removedLendOrderAmount",
          "type": "uint256"
        },
        {
          "internalType": "uint256",
          "name": "removedBorrowOrderAmount",
          "type": "uint256"
        },
        {
          "internalType": "uint256",
          "name": "maturity",
          "type": "uint256"
        }
      ],
      "stateMutability": "nonpayable",
      "type": "function"
    },
    {
      "inputs": [
        {
          "internalType": "uint256",
          "name": "_maturity",
          "type": "uint256"
        },
        {
          "internalType": "uint256",
          "name": "_openingDate",
          "type": "uint256"
        }
      ],
      "name": "createOrderBook",
      "outputs": [
        {
          "internalType": "uint8",
          "name": "orderBookId",
          "type": "uint8"
        }
      ],
      "stateMutability": "nonpayable",
      "type": "function"
    },
    {
      "inputs": [
        {
          "internalType": "uint8",
          "name": "_orderBookId",
          "type": "uint8"
        }
      ],
      "name": "executeItayoseCall",
      "outputs": [
        {
          "internalType": "uint256",
          "name": "openingUnitPrice",
          "type": "uint256"
        },
        {
          "internalType": "uint256",
          "name": "totalOffsetAmount",
          "type": "uint256"
        },
        {
          "internalType": "uint256",
          "name": "openingDate",
          "type": "uint256"
        },
        {
          "components": [
            {
              "internalType": "uint48",
              "name": "orderId",
              "type": "uint48"
            },
            {
              "internalType": "address",
              "name": "maker",
              "type": "address"
            },
            {
              "internalType": "uint256",
              "name": "amount",
              "type": "uint256"
            },
            {
              "internalType": "uint256",
              "name": "futureValue",
              "type": "uint256"
            }
          ],
          "internalType": "struct PartiallyFilledOrder",
          "name": "partiallyFilledLendingOrder",
          "type": "tuple"
        },
        {
          "components": [
            {
              "internalType": "uint48",
              "name": "orderId",
              "type": "uint48"
            },
            {
              "internalType": "address",
              "name": "maker",
              "type": "address"
            },
            {
              "internalType": "uint256",
              "name": "amount",
              "type": "uint256"
            },
            {
              "internalType": "uint256",
              "name": "futureValue",
              "type": "uint256"
            }
          ],
          "internalType": "struct PartiallyFilledOrder",
          "name": "partiallyFilledBorrowingOrder",
          "type": "tuple"
        }
      ],
      "stateMutability": "nonpayable",
      "type": "function"
    },
    {
      "inputs": [
        {
          "internalType": "uint8",
          "name": "_orderBookId",
          "type": "uint8"
        },
        {
          "internalType": "enum ProtocolTypes.Side",
          "name": "_side",
          "type": "uint8"
        },
        {
          "internalType": "address",
          "name": "_user",
          "type": "address"
        },
        {
          "internalType": "uint256",
          "name": "_amount",
          "type": "uint256"
        },
        {
          "internalType": "uint256",
          "name": "_unitPrice",
          "type": "uint256"
        },
        {
          "internalType": "uint256",
          "name": "_circuitBreakerLimitRange",
          "type": "uint256"
        }
      ],
      "name": "executeOrder",
      "outputs": [
        {
          "components": [
            {
              "internalType": "uint256",
              "name": "amount",
              "type": "uint256"
            },
            {
              "internalType": "uint256",
              "name": "unitPrice",
              "type": "uint256"
            },
            {
              "internalType": "uint256",
              "name": "futureValue",
              "type": "uint256"
            },
            {
              "internalType": "uint256",
              "name": "ignoredAmount",
              "type": "uint256"
            }
          ],
          "internalType": "struct FilledOrder",
          "name": "filledOrder",
          "type": "tuple"
        },
        {
          "components": [
            {
              "internalType": "uint48",
              "name": "orderId",
              "type": "uint48"
            },
            {
              "internalType": "address",
              "name": "maker",
              "type": "address"
            },
            {
              "internalType": "uint256",
              "name": "amount",
              "type": "uint256"
            },
            {
              "internalType": "uint256",
              "name": "futureValue",
              "type": "uint256"
            }
          ],
          "internalType": "struct PartiallyFilledOrder",
          "name": "partiallyFilledOrder",
          "type": "tuple"
        }
      ],
      "stateMutability": "nonpayable",
      "type": "function"
    },
    {
      "inputs": [
        {
          "internalType": "uint8",
          "name": "_orderBookId",
          "type": "uint8"
        },
        {
          "internalType": "enum ProtocolTypes.Side",
          "name": "_side",
          "type": "uint8"
        },
        {
          "internalType": "address",
          "name": "_user",
          "type": "address"
        },
        {
          "internalType": "uint256",
          "name": "_amount",
          "type": "uint256"
        },
        {
          "internalType": "uint256",
          "name": "_unitPrice",
          "type": "uint256"
        }
      ],
      "name": "executePreOrder",
      "outputs": [],
      "stateMutability": "nonpayable",
      "type": "function"
    },
    {
      "inputs": [
        {
          "internalType": "uint8",
          "name": "_orderBookId",
          "type": "uint8"
        }
      ],
      "name": "getBestBorrowUnitPrice",
      "outputs": [
        {
          "internalType": "uint256",
          "name": "",
          "type": "uint256"
        }
      ],
      "stateMutability": "view",
      "type": "function"
    },
    {
      "inputs": [
        {
          "internalType": "uint8[]",
          "name": "_orderBookIds",
          "type": "uint8[]"
        }
      ],
      "name": "getBestBorrowUnitPrices",
      "outputs": [
        {
          "internalType": "uint256[]",
          "name": "",
          "type": "uint256[]"
        }
      ],
      "stateMutability": "view",
      "type": "function"
    },
    {
      "inputs": [
        {
          "internalType": "uint8",
          "name": "_orderBookId",
          "type": "uint8"
        }
      ],
      "name": "getBestLendUnitPrice",
      "outputs": [
        {
          "internalType": "uint256",
          "name": "",
          "type": "uint256"
        }
      ],
      "stateMutability": "view",
      "type": "function"
    },
    {
      "inputs": [
        {
          "internalType": "uint8[]",
          "name": "_orderBookIds",
          "type": "uint8[]"
        }
      ],
      "name": "getBestLendUnitPrices",
      "outputs": [
        {
          "internalType": "uint256[]",
          "name": "",
          "type": "uint256[]"
        }
      ],
      "stateMutability": "view",
      "type": "function"
    },
    {
      "inputs": [
        {
          "internalType": "uint8",
          "name": "_orderBookId",
          "type": "uint8"
        },
        {
          "internalType": "uint256",
          "name": "_limit",
          "type": "uint256"
        }
      ],
      "name": "getBorrowOrderBook",
      "outputs": [
        {
          "internalType": "uint256[]",
          "name": "unitPrices",
          "type": "uint256[]"
        },
        {
          "internalType": "uint256[]",
          "name": "amounts",
          "type": "uint256[]"
        },
        {
          "internalType": "uint256[]",
          "name": "quantities",
          "type": "uint256[]"
        }
      ],
      "stateMutability": "view",
      "type": "function"
    },
    {
      "inputs": [
        {
          "internalType": "uint8",
          "name": "_orderBookId",
          "type": "uint8"
        },
        {
          "internalType": "address",
          "name": "_user",
          "type": "address"
        }
      ],
      "name": "getBorrowOrderIds",
      "outputs": [
        {
          "internalType": "uint48[]",
          "name": "activeOrderIds",
          "type": "uint48[]"
        },
        {
          "internalType": "uint48[]",
          "name": "inActiveOrderIds",
          "type": "uint48[]"
        }
      ],
      "stateMutability": "view",
      "type": "function"
    },
    {
      "inputs": [
        {
          "internalType": "uint8",
          "name": "_orderBookId",
          "type": "uint8"
        },
        {
          "internalType": "uint256",
          "name": "_circuitBreakerLimitRange",
          "type": "uint256"
        }
      ],
      "name": "getCircuitBreakerThresholds",
      "outputs": [
        {
          "internalType": "uint256",
          "name": "maxLendUnitPrice",
          "type": "uint256"
        },
        {
          "internalType": "uint256",
          "name": "minBorrowUnitPrice",
          "type": "uint256"
        }
      ],
      "stateMutability": "view",
      "type": "function"
    },
    {
      "inputs": [],
      "name": "getCurrency",
      "outputs": [
        {
          "internalType": "bytes32",
          "name": "currency",
          "type": "bytes32"
        }
      ],
      "stateMutability": "view",
      "type": "function"
    },
    {
      "inputs": [
        {
          "internalType": "uint256",
          "name": "_maturity",
          "type": "uint256"
        }
      ],
      "name": "getItayoseLog",
      "outputs": [
        {
          "components": [
            {
              "internalType": "uint256",
              "name": "openingUnitPrice",
              "type": "uint256"
            },
            {
              "internalType": "uint256",
              "name": "lastLendUnitPrice",
              "type": "uint256"
            },
            {
              "internalType": "uint256",
              "name": "lastBorrowUnitPrice",
              "type": "uint256"
            }
          ],
          "internalType": "struct ItayoseLog",
          "name": "",
          "type": "tuple"
        }
      ],
      "stateMutability": "view",
      "type": "function"
    },
    {
      "inputs": [
        {
          "internalType": "uint8",
          "name": "_orderBookId",
          "type": "uint8"
        },
        {
          "internalType": "uint256",
          "name": "_limit",
          "type": "uint256"
        }
      ],
      "name": "getLendOrderBook",
      "outputs": [
        {
          "internalType": "uint256[]",
          "name": "unitPrices",
          "type": "uint256[]"
        },
        {
          "internalType": "uint256[]",
          "name": "amounts",
          "type": "uint256[]"
        },
        {
          "internalType": "uint256[]",
          "name": "quantities",
          "type": "uint256[]"
        }
      ],
      "stateMutability": "view",
      "type": "function"
    },
    {
      "inputs": [
        {
          "internalType": "uint8",
          "name": "_orderBookId",
          "type": "uint8"
        },
        {
          "internalType": "address",
          "name": "_user",
          "type": "address"
        }
      ],
      "name": "getLendOrderIds",
      "outputs": [
        {
          "internalType": "uint48[]",
          "name": "activeOrderIds",
          "type": "uint48[]"
        },
        {
          "internalType": "uint48[]",
          "name": "inActiveOrderIds",
          "type": "uint48[]"
        }
      ],
      "stateMutability": "view",
      "type": "function"
    },
    {
      "inputs": [
        {
          "internalType": "uint8[]",
          "name": "_orderBookIds",
          "type": "uint8[]"
        }
      ],
      "name": "getMaturities",
      "outputs": [
        {
          "internalType": "uint256[]",
          "name": "maturities",
          "type": "uint256[]"
        }
      ],
      "stateMutability": "view",
      "type": "function"
    },
    {
      "inputs": [
        {
          "internalType": "uint8",
          "name": "_orderBookId",
          "type": "uint8"
        }
      ],
      "name": "getMaturity",
      "outputs": [
        {
          "internalType": "uint256",
          "name": "maturity",
          "type": "uint256"
        }
      ],
      "stateMutability": "view",
      "type": "function"
    },
    {
      "inputs": [
        {
          "internalType": "uint8",
          "name": "_orderBookId",
          "type": "uint8"
        }
      ],
      "name": "getMidUnitPrice",
      "outputs": [
        {
          "internalType": "uint256",
          "name": "",
          "type": "uint256"
        }
      ],
      "stateMutability": "view",
      "type": "function"
    },
    {
      "inputs": [
        {
          "internalType": "uint8[]",
          "name": "_orderBookIds",
          "type": "uint8[]"
        }
      ],
      "name": "getMidUnitPrices",
      "outputs": [
        {
          "internalType": "uint256[]",
          "name": "",
          "type": "uint256[]"
        }
      ],
      "stateMutability": "view",
      "type": "function"
    },
    {
      "inputs": [
        {
          "internalType": "uint8",
          "name": "_orderBookId",
          "type": "uint8"
        }
      ],
      "name": "getOpeningDate",
      "outputs": [
        {
          "internalType": "uint256",
          "name": "openingDate",
          "type": "uint256"
        }
      ],
      "stateMutability": "view",
      "type": "function"
    },
    {
      "inputs": [
        {
          "internalType": "uint8",
          "name": "_orderBookId",
          "type": "uint8"
        },
        {
          "internalType": "uint48",
          "name": "_orderId",
          "type": "uint48"
        }
      ],
      "name": "getOrder",
      "outputs": [
        {
          "internalType": "enum ProtocolTypes.Side",
          "name": "side",
          "type": "uint8"
        },
        {
          "internalType": "uint256",
          "name": "unitPrice",
          "type": "uint256"
        },
        {
          "internalType": "uint256",
          "name": "maturity",
          "type": "uint256"
        },
        {
          "internalType": "address",
          "name": "maker",
          "type": "address"
        },
        {
          "internalType": "uint256",
          "name": "amount",
          "type": "uint256"
        },
        {
          "internalType": "uint256",
          "name": "timestamp",
          "type": "uint256"
        },
        {
          "internalType": "bool",
          "name": "isPreOrder",
          "type": "bool"
        }
      ],
      "stateMutability": "view",
      "type": "function"
    },
    {
      "inputs": [
        {
          "internalType": "uint8",
          "name": "_orderBookId",
          "type": "uint8"
        }
      ],
      "name": "getOrderBookDetail",
      "outputs": [
        {
          "components": [
            {
              "internalType": "bytes32",
              "name": "ccy",
              "type": "bytes32"
            },
            {
              "internalType": "uint256",
              "name": "maturity",
              "type": "uint256"
            },
            {
              "internalType": "uint256",
              "name": "openingDate",
              "type": "uint256"
            },
            {
              "internalType": "uint256",
              "name": "borrowUnitPrice",
              "type": "uint256"
            },
            {
              "internalType": "uint256",
              "name": "lendUnitPrice",
              "type": "uint256"
            },
            {
              "internalType": "uint256",
              "name": "midUnitPrice",
              "type": "uint256"
            },
            {
              "internalType": "uint256",
              "name": "openingUnitPrice",
              "type": "uint256"
            },
            {
              "internalType": "bool",
              "name": "isReady",
              "type": "bool"
            }
          ],
          "internalType": "struct ILendingMarket.OrderBook",
          "name": "market",
          "type": "tuple"
        }
      ],
      "stateMutability": "view",
      "type": "function"
    },
    {
      "inputs": [
        {
          "internalType": "uint8",
          "name": "_orderBookId",
          "type": "uint8"
        },
        {
          "internalType": "address",
          "name": "_user",
          "type": "address"
        }
      ],
      "name": "getTotalAmountFromBorrowOrders",
      "outputs": [
        {
          "internalType": "uint256",
          "name": "activeAmount",
          "type": "uint256"
        },
        {
          "internalType": "uint256",
          "name": "inactiveAmount",
          "type": "uint256"
        },
        {
          "internalType": "uint256",
          "name": "inactiveFutureValue",
          "type": "uint256"
        },
        {
          "internalType": "uint256",
          "name": "maturity",
          "type": "uint256"
        }
      ],
      "stateMutability": "view",
      "type": "function"
    },
    {
      "inputs": [
        {
          "internalType": "uint8",
          "name": "_orderBookId",
          "type": "uint8"
        },
        {
          "internalType": "address",
          "name": "_user",
          "type": "address"
        }
      ],
      "name": "getTotalAmountFromLendOrders",
      "outputs": [
        {
          "internalType": "uint256",
          "name": "activeAmount",
          "type": "uint256"
        },
        {
          "internalType": "uint256",
          "name": "inactiveAmount",
          "type": "uint256"
        },
        {
          "internalType": "uint256",
          "name": "inactiveFutureValue",
          "type": "uint256"
        },
        {
          "internalType": "uint256",
          "name": "maturity",
          "type": "uint256"
        }
      ],
      "stateMutability": "view",
      "type": "function"
    },
    {
      "inputs": [
        {
          "internalType": "address",
          "name": "_resolver",
          "type": "address"
        },
        {
          "internalType": "bytes32",
          "name": "_ccy",
          "type": "bytes32"
        }
      ],
      "name": "initialize",
      "outputs": [],
      "stateMutability": "nonpayable",
      "type": "function"
    },
    {
      "inputs": [
        {
          "internalType": "uint8",
          "name": "_orderBookId",
          "type": "uint8"
        }
      ],
      "name": "isItayosePeriod",
      "outputs": [
        {
          "internalType": "bool",
          "name": "",
          "type": "bool"
        }
      ],
      "stateMutability": "view",
      "type": "function"
    },
    {
      "inputs": [
        {
          "internalType": "uint8",
          "name": "_orderBookId",
          "type": "uint8"
        }
      ],
      "name": "isMatured",
      "outputs": [
        {
          "internalType": "bool",
          "name": "",
          "type": "bool"
        }
      ],
      "stateMutability": "view",
      "type": "function"
    },
    {
      "inputs": [
        {
          "internalType": "uint8",
          "name": "_orderBookId",
          "type": "uint8"
        }
      ],
      "name": "isOpened",
      "outputs": [
        {
          "internalType": "bool",
          "name": "",
          "type": "bool"
        }
      ],
      "stateMutability": "view",
      "type": "function"
    },
    {
      "inputs": [
        {
          "internalType": "uint8",
          "name": "_orderBookId",
          "type": "uint8"
        }
      ],
      "name": "isPreOrderPeriod",
      "outputs": [
        {
          "internalType": "bool",
          "name": "",
          "type": "bool"
        }
      ],
      "stateMutability": "view",
      "type": "function"
    },
    {
      "inputs": [
        {
          "internalType": "uint8",
          "name": "_orderBookId",
          "type": "uint8"
        }
      ],
      "name": "isReady",
      "outputs": [
        {
          "internalType": "bool",
          "name": "",
          "type": "bool"
        }
      ],
      "stateMutability": "view",
      "type": "function"
    },
    {
      "inputs": [],
      "name": "isResolverCached",
      "outputs": [
        {
          "internalType": "bool",
          "name": "",
          "type": "bool"
        }
      ],
      "stateMutability": "view",
      "type": "function"
    },
    {
      "inputs": [],
      "name": "pauseMarket",
      "outputs": [],
      "stateMutability": "nonpayable",
      "type": "function"
    },
    {
      "inputs": [],
      "name": "paused",
      "outputs": [
        {
          "internalType": "bool",
          "name": "",
          "type": "bool"
        }
      ],
      "stateMutability": "view",
      "type": "function"
    },
    {
      "inputs": [
        {
          "internalType": "uint8",
          "name": "_orderBookId",
          "type": "uint8"
        },
        {
          "internalType": "uint256",
          "name": "_newMaturity",
          "type": "uint256"
        },
        {
          "internalType": "uint256",
          "name": "_openingDate",
          "type": "uint256"
        }
      ],
      "name": "reopenOrderBook",
      "outputs": [],
      "stateMutability": "nonpayable",
      "type": "function"
    },
    {
      "inputs": [],
      "name": "requiredContracts",
      "outputs": [
        {
          "internalType": "bytes32[]",
          "name": "contracts",
          "type": "bytes32[]"
        }
      ],
      "stateMutability": "pure",
      "type": "function"
    },
    {
      "inputs": [],
      "name": "resolver",
      "outputs": [
        {
          "internalType": "contract IAddressResolver",
          "name": "",
          "type": "address"
        }
      ],
      "stateMutability": "view",
      "type": "function"
    },
    {
      "inputs": [],
      "name": "unpauseMarket",
      "outputs": [],
      "stateMutability": "nonpayable",
      "type": "function"
    },
    {
      "inputs": [
        {
          "internalType": "uint8",
          "name": "_orderBookId",
          "type": "uint8"
        },
        {
          "internalType": "enum ProtocolTypes.Side",
          "name": "_side",
          "type": "uint8"
        },
        {
          "internalType": "address",
          "name": "_user",
          "type": "address"
        },
        {
          "internalType": "uint256",
          "name": "_futureValue",
          "type": "uint256"
        },
        {
          "internalType": "uint256",
          "name": "_circuitBreakerLimitRange",
          "type": "uint256"
        }
      ],
      "name": "unwindPosition",
      "outputs": [
        {
          "components": [
            {
              "internalType": "uint256",
              "name": "amount",
              "type": "uint256"
            },
            {
              "internalType": "uint256",
              "name": "unitPrice",
              "type": "uint256"
            },
            {
              "internalType": "uint256",
              "name": "futureValue",
              "type": "uint256"
            },
            {
              "internalType": "uint256",
              "name": "ignoredAmount",
              "type": "uint256"
            }
          ],
          "internalType": "struct FilledOrder",
          "name": "filledOrder",
          "type": "tuple"
        },
        {
          "components": [
            {
              "internalType": "uint48",
              "name": "orderId",
              "type": "uint48"
            },
            {
              "internalType": "address",
              "name": "maker",
              "type": "address"
            },
            {
              "internalType": "uint256",
              "name": "amount",
              "type": "uint256"
            },
            {
              "internalType": "uint256",
              "name": "futureValue",
              "type": "uint256"
            }
          ],
          "internalType": "struct PartiallyFilledOrder",
          "name": "partiallyFilledOrder",
          "type": "tuple"
        }
      ],
      "stateMutability": "nonpayable",
      "type": "function"
    }
  ],
  "transactionHash": "0x8246dd7318084ba28e5634bee530273107a90a8b3ca521d40036b829f072237a",
  "args": [],
  "numDeployments": 1,
  "solcInputHash": "7fb7821dadc9424227984a913e6112e9",
  "bytecode": "0x608060405234801561001057600080fd5b5061311f806100206000396000f3fe608060405234801561001057600080fd5b50600436106102695760003560e01c80636a5138d611610151578063cd458662116100c3578063e099765911610087578063e0997659146103c0578063f3f7f452146106c7578063f506ad30146106da578063f8044e6c14610722578063ff5cce9714610735578063fffa87b81461074857600080fd5b8063cd45866214610640578063cdbd403e14610653578063cf37c59d14610666578063de9f5fed14610679578063df16328d1461069f57600080fd5b8063936d6d2e11610115578063936d6d2e146105a7578063a03738dc146105ba578063a4ff243a146105c2578063a779b94a14610607578063be13f47c1461061a578063c9c000991461062d57600080fd5b80636a5138d6146104b45780636d9bf95a146104c757806380d5b609146104fc57806382bdfed514610572578063932c93851461058557600080fd5b8063381e9344116101ea578063584795fb116101ae578063584795fb1461040d57806358e64897146104205780635c975abb146104415780635f7f8b45146104595780635fee0bba1461046c5780636945c1fd1461048d57600080fd5b8063381e93441461039a57806338b05852146103ad5780633d03b9da146103c05780634ea469d5146103d557806357673717146103fa57600080fd5b80631e0b71a3116102315780631e0b71a314610323578063261cc1b21461034357806329985e5a1461036757806329d6dd131461036f5780632af64bd31461039257600080fd5b806302de7aa81461026e57806304f3bcec1461029857806313a4451c146102b85780631610c7ce146102eb5780631c03b6ea146102f5575b600080fd5b61028161027c36600461234e565b61075b565b60405161028f9291906123e7565b60405180910390f35b6102a06108b3565b6040516001600160a01b03909116815260200161028f565b6102cb6102c636600461241f565b6108d4565b60408051948552602085019390935291830152606082015260800161028f565b6102f3610982565b005b610308610303366004612458565b6109b1565b6040805193845260208401929092529082015260600161028f565b61033661033136600461253d565b610a56565b60405161028f9190612617565b61035661035136600461262a565b610aea565b60405161028f959493929190612647565b6102f3610c1b565b61038261037d36600461262a565b610dc9565b604051901515815260200161028f565b610382610e42565b6103826103a836600461262a565b610fa8565b6103366103bb36600461253d565b610fda565b6103c8611014565b60405161028f9190612681565b6103e86103e33660046126c5565b611079565b60405160ff909116815260200161028f565b61033661040836600461253d565b611131565b6102cb61041b36600461241f565b61116b565b61043361042e36600461262a565b6111bd565b60405190815260200161028f565b6000805160206130ca8339815191525460ff16610382565b61043361046736600461262a565b611246565b61047f61047a36600461241f565b611283565b60405161028f92919061271f565b7ffc2836757f9146445fc75bc3c897a210ec004e4ee60fc8627ef5cbf2842b3d0a54610433565b6103826104c236600461262a565b61132c565b6104da6104d536600461274d565b611362565b604080518251815260208084015190820152918101519082015260600161028f565b61050f61050a36600461262a565b6113de565b60405161028f9190600061010082019050825182526020830151602083015260408301516040830152606083015160608301526080830151608083015260a083015160a083015260c083015160c083015260e0830151151560e083015292915050565b61038261058036600461262a565b6114dd565b610598610593366004612766565b611565565b60405161028f93929190612792565b6104336105b536600461262a565b61160a565b6102f3611641565b6104336105d036600461262a565b60ff1660009081527ffc2836757f9146445fc75bc3c897a210ec004e4ee60fc8627ef5cbf2842b3d0c602052604090206002015490565b6102816106153660046127cb565b61166e565b6102f3610628366004612826565b6117ba565b6102f361063b366004612844565b611966565b61033661064e36600461253d565b611a03565b6102f36106613660046127cb565b611a3d565b61043361067436600461262a565b611b37565b61068c61068736600461288d565b611b74565b60405161028f97969594939291906128dd565b6106b26106ad366004612766565b611c2e565b6040805192835260208301919091520161028f565b6102f36106d5366004612926565b611cbe565b6106ed6106e836600461241f565b611e43565b604080519788526020880196909652948601939093526060850191909152608084015260a083015260c082015260e00161028f565b610598610730366004612766565b611ee6565b61047f61074336600461241f565b611f2e565b61038261075636600461262a565b611f7f565b6107866040518060800160405280600081526020016000815260200160008152602001600081525090565b61078e6122e4565b610796611fb9565b61079f3361200c565b6107c45760405162461bcd60e51b81526004016107bb90612971565b60405180910390fd5b876107ce8161132c565b6108115760405162461bcd60e51b815260206004820152601460248201527313585c9ad95d081a5cc81b9bdd081bdc195b995960621b60448201526064016107bb565b60405163223932df60e11b815273D99836e31D99773c840274bA6270E042cB4F93E89063447265be90610852908c908c908c908c908c908c906004016129a8565b6101006040518083038186803b15801561086b57600080fd5b505af415801561087f573d6000803e3d6000fd5b505050506040513d601f19601f820116820180604052508101906108a39190612a44565b9250925050965096945050505050565b60006000805160206130aa8339815191525b546001600160a01b0316919050565b6040516304e9114760e21b815260ff831660048201526001600160a01b0382166024820152600090819081908190730bE18af3fF686010BfC856caf64aF7c7B3e820a8906313a4451c906044015b60806040518083038186803b15801561093a57600080fd5b505af415801561094e573d6000803e3d6000fd5b505050506040513d601f19601f820116820180604052508101906109729190612aac565b9299919850965090945092505050565b61098b3361200c565b6109a75760405162461bcd60e51b81526004016107bb90612971565b6109af612086565b565b6000806000730bE18af3fF686010BfC856caf64aF7c7B3e820a8632ae0b85b89898989896040518663ffffffff1660e01b81526004016109f5959493929190612ae2565b60606040518083038186803b158015610a0d57600080fd5b505af4158015610a21573d6000803e3d6000fd5b505050506040513d601f19601f82011682018060405250810190610a459190612b15565b925092509250955095509592505050565b604051631e0b71a360e01b815260609073bB8e24710ad0A2C9D7d010991920b24c7eCBc80890631e0b71a390610a90908590600401612b43565b60006040518083038186803b158015610aa857600080fd5b505af4158015610abc573d6000803e3d6000fd5b505050506040513d6000823e601f3d908101601f19168201604052610ae49190810190612be4565b92915050565b6000806000610af76122e4565b610aff6122e4565b610b07611fb9565b610b103361200c565b610b2c5760405162461bcd60e51b81526004016107bb90612971565b85610b3681610fa8565b610b825760405162461bcd60e51b815260206004820152601960248201527f4e6f7420696e2074686520497461796f736520706572696f640000000000000060448201526064016107bb565b60405163130e60d960e11b815260ff8816600482015273bB8e24710ad0A2C9D7d010991920b24c7eCBc8089063261cc1b2906024016101606040518083038186803b158015610bd057600080fd5b505af4158015610be4573d6000803e3d6000fd5b505050506040513d601f19601f82011682018060405250810190610c089190612c21565b939b929a50909850965090945092505050565b6000610c25611014565b905060005b8151811015610dc4576000828281518110610c4757610c47612c74565b602002602001015190506000610c686000805160206130aa83398151915290565b54604080517f5265736f6c766572206d697373696e67207461726765743a200000000000000060208201526039808201869052825180830390910181526059820192839052636795dbcd60e01b9092526001600160a01b0390921691636795dbcd91610cd991869190605d01612cd7565b60206040518083038186803b158015610cf157600080fd5b505afa158015610d05573d6000803e3d6000fd5b505050506040513d601f19601f82011682018060405250810190610d299190612cf0565b60008381527f4abde63c3e81aefa5764b017968bc473e83e093d7e1a10247d19e0a3e4124019602090815260409182902080546001600160a01b0319166001600160a01b03851690811790915582518681529182015281519293507f88a93678a3692f6789d9546fc621bf7234b101ddb7d4fe479455112831b8aa68929081900390910190a150508080610dbc90612d23565b915050610c2a565b505b50565b60007ffc2836757f9146445fc75bc3c897a210ec004e4ee60fc8627ef5cbf2842b3d0d81610e288460ff1660009081527ffc2836757f9146445fc75bc3c897a210ec004e4ee60fc8627ef5cbf2842b3d0c602052604090206002015490565b815260208101919091526040016000205460ff1692915050565b600080610e4d611014565b905060005b8151811015610f9f576000828281518110610e6f57610e6f612c74565b60200260200101519050610e8e6000805160206130aa83398151915290565b600082815260019190910160205260409020546001600160a01b03166000805160206130aa833981519152546040516321f8a72160e01b8152600481018490526001600160a01b03909116906321f8a7219060240160206040518083038186803b158015610efb57600080fd5b505afa158015610f0f573d6000803e3d6000fd5b505050506040513d601f19601f82011682018060405250810190610f339190612cf0565b6001600160a01b0316141580610f7d575060008181527f4abde63c3e81aefa5764b017968bc473e83e093d7e1a10247d19e0a3e412401960205260409020546001600160a01b0316155b15610f8c576000935050505090565b5080610f9781612d23565b915050610e52565b50600191505090565b6000610e10610fb68361160a565b610fc09190612d3e565b4210158015610ae45750610fd382610dc9565b1592915050565b604051631c582c2960e11b815260609073bB8e24710ad0A2C9D7d010991920b24c7eCBc808906338b0585290610a90908590600401612b43565b604080516001808252818301909252606091602080830190803683370190505090507f4c656e64696e674d61726b6574436f6e74726f6c6c65720000000000000000008160008151811061106a5761106a612c74565b60200260200101818152505090565b60006110843361200c565b6110a05760405162461bcd60e51b81526004016107bb90612971565b604051634ea469d560e01b8152600481018490526024810183905273bB8e24710ad0A2C9D7d010991920b24c7eCBc80890634ea469d59060440160206040518083038186803b1580156110f257600080fd5b505af4158015611106573d6000803e3d6000fd5b505050506040513d601f19601f8201168201806040525081019061112a9190612d55565b9392505050565b604051635767371760e01b815260609073bB8e24710ad0A2C9D7d010991920b24c7eCBc80890635767371790610a90908590600401612b43565b60405163584795fb60e01b815260ff831660048201526001600160a01b0382166024820152600090819081908190730bE18af3fF686010BfC856caf64aF7c7B3e820a89063584795fb90604401610922565b6040516358e6489760e01b815260ff8216600482015260009073bB8e24710ad0A2C9D7d010991920b24c7eCBc808906358e64897906024015b60206040518083038186803b15801561120e57600080fd5b505af4158015611222573d6000803e3d6000fd5b505050506040513d601f19601f82011682018060405250810190610ae49190612d72565b604051635f7f8b4560e01b815260ff8216600482015260009073bB8e24710ad0A2C9D7d010991920b24c7eCBc80890635f7f8b45906024016111f6565b604051632ff705dd60e11b815260ff831660048201526001600160a01b03821660248201526060908190730bE18af3fF686010BfC856caf64aF7c7B3e820a890635fee0bba906044015b60006040518083038186803b1580156112e557600080fd5b505af41580156112f9573d6000803e3d6000fd5b505050506040513d6000823e601f3d908101601f191682016040526113219190810190612def565b915091509250929050565b600061133782610dc9565b80156113495750611347826114dd565b155b8015610ae457506113598261160a565b42101592915050565b61138660405180606001604052806000815260200160008152602001600081525090565b5060009081527ffc2836757f9146445fc75bc3c897a210ec004e4ee60fc8627ef5cbf2842b3d0e6020908152604091829020825160608101845281548152600182015492810192909252600201549181019190915290565b61142b604051806101000160405280600080191681526020016000815260200160008152602001600081526020016000815260200160008152602001600081526020016000151581525090565b6040516380d5b60960e01b815260ff8316600482015273bB8e24710ad0A2C9D7d010991920b24c7eCBc808906380d5b609906024016101006040518083038186803b15801561147957600080fd5b505af415801561148d573d6000803e3d6000fd5b505050506040513d601f19601f820116820180604052508101906114b19190612e68565b151560e089015260c088015260a087015260808601526060850152604084015260208301528152919050565b6040516382bdfed560e01b815260ff82166004820152600090730bE18af3fF686010BfC856caf64aF7c7B3e820a8906382bdfed59060240160206040518083038186803b15801561152d57600080fd5b505af4158015611541573d6000803e3d6000fd5b505050506040513d601f19601f82011682018060405250810190610ae49190612ece565b60405163932c938560e01b815260ff83166004820152602481018290526060908190819073bB8e24710ad0A2C9D7d010991920b24c7eCBc8089063932c9385906044015b60006040518083038186803b1580156115c157600080fd5b505af41580156115d5573d6000803e3d6000fd5b505050506040513d6000823e601f3d908101601f191682016040526115fd9190810190612ee9565b9250925092509250925092565b60ff1660009081527ffc2836757f9146445fc75bc3c897a210ec004e4ee60fc8627ef5cbf2842b3d0c602052604090206001015490565b61164a3361200c565b6116665760405162461bcd60e51b81526004016107bb90612971565b6109af6120e5565b6116996040518060800160405280600081526020016000815260200160008152602001600081525090565b6116a16122e4565b6116a9611fb9565b6116b23361200c565b6116ce5760405162461bcd60e51b81526004016107bb90612971565b866116d88161132c565b61171b5760405162461bcd60e51b815260206004820152601460248201527313585c9ad95d081a5cc81b9bdd081bdc195b995960621b60448201526064016107bb565b6040516356c4ff0d60e11b815273D99836e31D99773c840274bA6270E042cB4F93E89063ad89fe1a9061175a908b908b908b908b908b90600401612f71565b6101006040518083038186803b15801561177357600080fd5b505af4158015611787573d6000803e3d6000fd5b505050506040513d601f19601f820116820180604052508101906117ab9190612a44565b92509250509550959350505050565b600054610100900460ff16158080156117da5750600054600160ff909116105b806117f45750303b1580156117f4575060005460ff166001145b6118575760405162461bcd60e51b815260206004820152602e60248201527f496e697469616c697a61626c653a20636f6e747261637420697320616c72656160448201526d191e481a5b9a5d1a585b1a5e995960921b60648201526084016107bb565b6000805460ff19166001179055801561187a576000805461ff0019166101001790555b600061188461212e565b6001600160a01b031614156118e75760405162461bcd60e51b815260206004820152602360248201527f4d7573742062652063616c6c65642066726f6d20626561636f6e20636f6e74726044820152621858dd60ea1b60648201526084016107bb565b6118f083612156565b817ffc2836757f9146445fc75bc3c897a210ec004e4ee60fc8627ef5cbf2842b3d0a5561191b610c1b565b8015611961576000805461ff0019169055604051600181527f7f26b83ff96e1f2b6a682f133852f6798a09c465da95921460cefb38474024989060200160405180910390a15b505050565b61196f3361200c565b61198b5760405162461bcd60e51b81526004016107bb90612971565b60405163c9c0009960e01b815260ff84166004820152602481018390526044810182905273bB8e24710ad0A2C9D7d010991920b24c7eCBc8089063c9c000999060640160006040518083038186803b1580156119e657600080fd5b505af41580156119fa573d6000803e3d6000fd5b50505050505050565b6040516366a2c33160e11b815260609073bB8e24710ad0A2C9D7d010991920b24c7eCBc8089063cd45866290610a90908590600401612b43565b611a45611fb9565b611a4e3361200c565b611a6a5760405162461bcd60e51b81526004016107bb90612971565b84611a7481611f7f565b611ac05760405162461bcd60e51b815260206004820152601b60248201527f4e6f7420696e20746865207072652d6f7264657220706572696f64000000000060448201526064016107bb565b60405163ed94d50f60e01b815273D99836e31D99773c840274bA6270E042cB4F93E89063ed94d50f90611aff9089908990899089908990600401612f71565b60006040518083038186803b158015611b1757600080fd5b505af4158015611b2b573d6000803e3d6000fd5b50505050505050505050565b60405163cf37c59d60e01b815260ff8216600482015260009073bB8e24710ad0A2C9D7d010991920b24c7eCBc8089063cf37c59d906024016111f6565b60405163de9f5fed60e01b815260ff8316600482015265ffffffffffff82166024820152600090819081908190819081908190730bE18af3fF686010BfC856caf64aF7c7B3e820a89063de9f5fed9060440160e06040518083038186803b158015611bde57600080fd5b505af4158015611bf2573d6000803e3d6000fd5b505050506040513d601f19601f82011682018060405250810190611c169190612fad565b959f949e50929c50909a509850965090945092505050565b60405163df16328d60e01b815260ff8316600482015260248101829052600090819073bB8e24710ad0A2C9D7d010991920b24c7eCBc8089063df16328d90604401604080518083038186803b158015611c8657600080fd5b505af4158015611c9a573d6000803e3d6000fd5b505050506040513d601f19601f82011682018060405250810190611321919061301e565b8282826000611ccd8483611b74565b505050935050505060006001600160a01b0316816001600160a01b03161415611d2a5760405162461bcd60e51b815260206004820152600f60248201526e13dc99195c881b9bdd08199bdd5b99608a1b60448201526064016107bb565b806001600160a01b0316836001600160a01b031614611d8b5760405162461bcd60e51b815260206004820152601760248201527f43616c6c6572206973206e6f7420746865206d616b657200000000000000000060448201526064016107bb565b611d93611fb9565b611d9c3361200c565b611db85760405162461bcd60e51b81526004016107bb90612971565b6040516379fbfa2960e11b815260ff881660048201526001600160a01b038716602482015265ffffffffffff8616604482015273D99836e31D99773c840274bA6270E042cB4F93E89063f3f7f4529060640160006040518083038186803b158015611e2257600080fd5b505af4158015611e36573d6000803e3d6000fd5b5050505050505050505050565b604051630f506ad360e41b815260ff831660048201526001600160a01b038216602482015260009081908190819081908190819073D99836e31D99773c840274bA6270E042cB4F93E89063f506ad309060440160e06040518083038186803b158015611eae57600080fd5b505af4158015611ec2573d6000803e3d6000fd5b505050506040513d601f19601f82011682018060405250810190611c169190613042565b604051633e01139b60e21b815260ff83166004820152602481018290526060908190819073bB8e24710ad0A2C9D7d010991920b24c7eCBc8089063f8044e6c906044016115a9565b604051600162a3316960e01b0319815260ff831660048201526001600160a01b03821660248201526060908190730bE18af3fF686010BfC856caf64aF7c7B3e820a89063ff5cce97906044016112cd565b600080611f8b8361160a565b9050611f9a62093a8082612d3e565b421015801561112a5750611fb0610e1082612d3e565b42109392505050565b6000805160206130ca8339815191525460ff16156109af5760405162461bcd60e51b815260206004820152601060248201526f14185d5cd8589b194e881c185d5cd95960821b60448201526064016107bb565b600080612017611014565b905060005b815181101561207c5761204782828151811061203a5761203a612c74565b60200260200101516121eb565b6001600160a01b0316846001600160a01b0316141561206a575060019392505050565b8061207481612d23565b91505061201c565b5060009392505050565b61208e6121f6565b6000805160206130ca833981519152805460ff191690557f5db9ee0a495bf2e6ff9c91a7834c1ba4fdd244a5e8aa4e537bd38aeae4b073aa335b6040516001600160a01b03909116815260200160405180910390a1565b6120ed611fb9565b6000805160206130ca833981519152805460ff191660011790557f62e78cea01bee320cd4e420270b5ea74000d11b0c9f74754ebdbfc544b05a258336120c8565b60007fa3f0ad74e5423aebfd80d3ef4346578335a9a72aeaee59ff6cb3582b35133d506108c5565b6000805160206130aa833981519152546001600160a01b0316156121bc5760405162461bcd60e51b815260206004820152601b60248201527f5265736f6c766572207265676973746572656420616c7265616479000000000060448201526064016107bb565b6000805160206130aa83398151915280546001600160a01b0319166001600160a01b0392909216919091179055565b6000610ae48261224c565b6000805160206130ca8339815191525460ff166109af5760405162461bcd60e51b815260206004820152601460248201527314185d5cd8589b194e881b9bdd081c185d5cd95960621b60448201526064016107bb565b60008181527f4abde63c3e81aefa5764b017968bc473e83e093d7e1a10247d19e0a3e41240196020908152604080832054815170026b4b9b9b4b7339030b2323932b9b99d1607d1b9381019390935260318084018690528251808503909101815260519093019091526001600160a01b031690816122dd5760405162461bcd60e51b81526004016107bb9190613096565b5092915050565b6040518060800160405280600065ffffffffffff16815260200160006001600160a01b0316815260200160008152602001600081525090565b60ff81168114610dc657600080fd5b60028110610dc657600080fd5b6001600160a01b0381168114610dc657600080fd5b60008060008060008060c0878903121561236757600080fd5b86356123728161231d565b955060208701356123828161232c565b9450604087013561239281612339565b959894975094956060810135955060808101359460a0909101359350915050565b805165ffffffffffff1682526020808201516001600160a01b03169083015260408082015190830152606090810151910152565b6000610100820190508351825260208401516020830152604084015160408301526060840151606083015261112a60808301846123b3565b6000806040838503121561243257600080fd5b823561243d8161231d565b9150602083013561244d81612339565b809150509250929050565b600080600080600060a0868803121561247057600080fd5b853561247b8161231d565b9450602086013561248b8161232c565b94979496505050506040830135926060810135926080909101359150565b634e487b7160e01b600052604160045260246000fd5b6040516080810167ffffffffffffffff811182821017156124e2576124e26124a9565b60405290565b604051601f8201601f1916810167ffffffffffffffff81118282101715612511576125116124a9565b604052919050565b600067ffffffffffffffff821115612533576125336124a9565b5060051b60200190565b6000602080838503121561255057600080fd5b823567ffffffffffffffff81111561256757600080fd5b8301601f8101851361257857600080fd5b803561258b61258682612519565b6124e8565b81815260059190911b820183019083810190878311156125aa57600080fd5b928401925b828410156125d15783356125c28161231d565b825292840192908401906125af565b979650505050505050565b600081518084526020808501945080840160005b8381101561260c578151875295820195908201906001016125f0565b509495945050505050565b60208152600061112a60208301846125dc565b60006020828403121561263c57600080fd5b813561112a8161231d565b8581526020810185905260408101849052610160810161266a60608301856123b3565b61267760e08301846123b3565b9695505050505050565b6020808252825182820181905260009190848201906040850190845b818110156126b95783518352928401929184019160010161269d565b50909695505050505050565b600080604083850312156126d857600080fd5b50508035926020909101359150565b600081518084526020808501945080840160005b8381101561260c57815165ffffffffffff16875295820195908201906001016126fb565b60408152600061273260408301856126e7565b828103602084015261274481856126e7565b95945050505050565b60006020828403121561275f57600080fd5b5035919050565b6000806040838503121561277957600080fd5b82356127848161231d565b946020939093013593505050565b6060815260006127a560608301866125dc565b82810360208401526127b781866125dc565b9050828103604084015261267781856125dc565b600080600080600060a086880312156127e357600080fd5b85356127ee8161231d565b945060208601356127fe8161232c565b9350604086013561280e81612339565b94979396509394606081013594506080013592915050565b6000806040838503121561283957600080fd5b823561278481612339565b60008060006060848603121561285957600080fd5b83356128648161231d565b95602085013595506040909401359392505050565b65ffffffffffff81168114610dc657600080fd5b600080604083850312156128a057600080fd5b82356128ab8161231d565b9150602083013561244d81612879565b600281106128d957634e487b7160e01b600052602160045260246000fd5b9052565b60e081016128eb828a6128bb565b602082019790975260408101959095526001600160a01b03939093166060850152608084019190915260a0830152151560c090910152919050565b60008060006060848603121561293b57600080fd5b83356129468161231d565b9250602084013561295681612339565b9150604084013561296681612879565b809150509250925092565b60208082526017908201527f4f6e6c7920416363657074656420436f6e747261637473000000000000000000604082015260600190565b60ff8716815260c081016129bf60208301886128bb565b6001600160a01b039590951660408201526060810193909352608083019190915260a09091015292915050565b6000608082840312156129fe57600080fd5b612a066124bf565b90508151612a1381612879565b81526020820151612a2381612339565b80602083015250604082015160408201526060820151606082015292915050565b600080828403610100811215612a5957600080fd5b6080811215612a6757600080fd5b50612a706124bf565b8351815260208401516020820152604084015160408201526060840151606082015280925050612aa384608085016129ec565b90509250929050565b60008060008060808587031215612ac257600080fd5b505082516020840151604085015160609095015191969095509092509050565b60ff8616815260a08101612af960208301876128bb565b8460408301528360608301528260808301529695505050505050565b600080600060608486031215612b2a57600080fd5b8351925060208401519150604084015190509250925092565b6020808252825182820181905260009190848201906040850190845b818110156126b957835160ff1683529284019291840191600101612b5f565b600082601f830112612b8f57600080fd5b81516020612b9f61258683612519565b82815260059290921b84018101918181019086841115612bbe57600080fd5b8286015b84811015612bd95780518352918301918301612bc2565b509695505050505050565b600060208284031215612bf657600080fd5b815167ffffffffffffffff811115612c0d57600080fd5b612c1984828501612b7e565b949350505050565b60008060008060006101608688031215612c3a57600080fd5b855194506020860151935060408601519250612c5987606088016129ec565b9150612c688760e088016129ec565b90509295509295909350565b634e487b7160e01b600052603260045260246000fd5b6000815180845260005b81811015612cb057602081850181015186830182015201612c94565b81811115612cc2576000602083870101525b50601f01601f19169290920160200192915050565b828152604060208201526000612c196040830184612c8a565b600060208284031215612d0257600080fd5b815161112a81612339565b634e487b7160e01b600052601160045260246000fd5b6000600019821415612d3757612d37612d0d565b5060010190565b600082821015612d5057612d50612d0d565b500390565b600060208284031215612d6757600080fd5b815161112a8161231d565b600060208284031215612d8457600080fd5b5051919050565b600082601f830112612d9c57600080fd5b81516020612dac61258683612519565b82815260059290921b84018101918181019086841115612dcb57600080fd5b8286015b84811015612bd9578051612de281612879565b8352918301918301612dcf565b60008060408385031215612e0257600080fd5b825167ffffffffffffffff80821115612e1a57600080fd5b612e2686838701612d8b565b93506020850151915080821115612e3c57600080fd5b50612e4985828601612d8b565b9150509250929050565b80518015158114612e6357600080fd5b919050565b600080600080600080600080610100898b031215612e8557600080fd5b885197506020890151965060408901519550606089015194506080890151935060a0890151925060c08901519150612ebf60e08a01612e53565b90509295985092959890939650565b600060208284031215612ee057600080fd5b61112a82612e53565b600080600060608486031215612efe57600080fd5b835167ffffffffffffffff80821115612f1657600080fd5b612f2287838801612b7e565b94506020860151915080821115612f3857600080fd5b612f4487838801612b7e565b93506040860151915080821115612f5a57600080fd5b50612f6786828701612b7e565b9150509250925092565b60ff8616815260a08101612f8860208301876128bb565b6001600160a01b03949094166040820152606081019290925260809091015292915050565b600080600080600080600060e0888a031215612fc857600080fd5b8751612fd38161232c565b8097505060208801519550604088015194506060880151612ff381612339565b608089015160a08a01519195509350915061301060c08901612e53565b905092959891949750929550565b6000806040838503121561303157600080fd5b505080516020909101519092909150565b600080600080600080600060e0888a03121561305d57600080fd5b5050855160208701516040880151606089015160808a015160a08b015160c0909b0151949c939b50919990985090965094509092509050565b60208152600061112a6020830184612c8a56fe4abde63c3e81aefa5764b017968bc473e83e093d7e1a10247d19e0a3e41240189c789132bdb3678132848a8dcd780bffd2b1abdce3984c522ac1d8aeb48f05f3a264697066735822122096e2b59ca9b74c01892efb13842d200c02ab791b2d6bd0fedd1acf94a2c03db764736f6c63430008090033",
  "deployedBytecode": "0x608060405234801561001057600080fd5b50600436106102695760003560e01c80636a5138d611610151578063cd458662116100c3578063e099765911610087578063e0997659146103c0578063f3f7f452146106c7578063f506ad30146106da578063f8044e6c14610722578063ff5cce9714610735578063fffa87b81461074857600080fd5b8063cd45866214610640578063cdbd403e14610653578063cf37c59d14610666578063de9f5fed14610679578063df16328d1461069f57600080fd5b8063936d6d2e11610115578063936d6d2e146105a7578063a03738dc146105ba578063a4ff243a146105c2578063a779b94a14610607578063be13f47c1461061a578063c9c000991461062d57600080fd5b80636a5138d6146104b45780636d9bf95a146104c757806380d5b609146104fc57806382bdfed514610572578063932c93851461058557600080fd5b8063381e9344116101ea578063584795fb116101ae578063584795fb1461040d57806358e64897146104205780635c975abb146104415780635f7f8b45146104595780635fee0bba1461046c5780636945c1fd1461048d57600080fd5b8063381e93441461039a57806338b05852146103ad5780633d03b9da146103c05780634ea469d5146103d557806357673717146103fa57600080fd5b80631e0b71a3116102315780631e0b71a314610323578063261cc1b21461034357806329985e5a1461036757806329d6dd131461036f5780632af64bd31461039257600080fd5b806302de7aa81461026e57806304f3bcec1461029857806313a4451c146102b85780631610c7ce146102eb5780631c03b6ea146102f5575b600080fd5b61028161027c36600461234e565b61075b565b60405161028f9291906123e7565b60405180910390f35b6102a06108b3565b6040516001600160a01b03909116815260200161028f565b6102cb6102c636600461241f565b6108d4565b60408051948552602085019390935291830152606082015260800161028f565b6102f3610982565b005b610308610303366004612458565b6109b1565b6040805193845260208401929092529082015260600161028f565b61033661033136600461253d565b610a56565b60405161028f9190612617565b61035661035136600461262a565b610aea565b60405161028f959493929190612647565b6102f3610c1b565b61038261037d36600461262a565b610dc9565b604051901515815260200161028f565b610382610e42565b6103826103a836600461262a565b610fa8565b6103366103bb36600461253d565b610fda565b6103c8611014565b60405161028f9190612681565b6103e86103e33660046126c5565b611079565b60405160ff909116815260200161028f565b61033661040836600461253d565b611131565b6102cb61041b36600461241f565b61116b565b61043361042e36600461262a565b6111bd565b60405190815260200161028f565b6000805160206130ca8339815191525460ff16610382565b61043361046736600461262a565b611246565b61047f61047a36600461241f565b611283565b60405161028f92919061271f565b7ffc2836757f9146445fc75bc3c897a210ec004e4ee60fc8627ef5cbf2842b3d0a54610433565b6103826104c236600461262a565b61132c565b6104da6104d536600461274d565b611362565b604080518251815260208084015190820152918101519082015260600161028f565b61050f61050a36600461262a565b6113de565b60405161028f9190600061010082019050825182526020830151602083015260408301516040830152606083015160608301526080830151608083015260a083015160a083015260c083015160c083015260e0830151151560e083015292915050565b61038261058036600461262a565b6114dd565b610598610593366004612766565b611565565b60405161028f93929190612792565b6104336105b536600461262a565b61160a565b6102f3611641565b6104336105d036600461262a565b60ff1660009081527ffc2836757f9146445fc75bc3c897a210ec004e4ee60fc8627ef5cbf2842b3d0c602052604090206002015490565b6102816106153660046127cb565b61166e565b6102f3610628366004612826565b6117ba565b6102f361063b366004612844565b611966565b61033661064e36600461253d565b611a03565b6102f36106613660046127cb565b611a3d565b61043361067436600461262a565b611b37565b61068c61068736600461288d565b611b74565b60405161028f97969594939291906128dd565b6106b26106ad366004612766565b611c2e565b6040805192835260208301919091520161028f565b6102f36106d5366004612926565b611cbe565b6106ed6106e836600461241f565b611e43565b604080519788526020880196909652948601939093526060850191909152608084015260a083015260c082015260e00161028f565b610598610730366004612766565b611ee6565b61047f61074336600461241f565b611f2e565b61038261075636600461262a565b611f7f565b6107866040518060800160405280600081526020016000815260200160008152602001600081525090565b61078e6122e4565b610796611fb9565b61079f3361200c565b6107c45760405162461bcd60e51b81526004016107bb90612971565b60405180910390fd5b876107ce8161132c565b6108115760405162461bcd60e51b815260206004820152601460248201527313585c9ad95d081a5cc81b9bdd081bdc195b995960621b60448201526064016107bb565b60405163223932df60e11b815273__$61caf4c2bb53b95485f5a2f3428ccc66af$__9063447265be90610852908c908c908c908c908c908c906004016129a8565b6101006040518083038186803b15801561086b57600080fd5b505af415801561087f573d6000803e3d6000fd5b505050506040513d601f19601f820116820180604052508101906108a39190612a44565b9250925050965096945050505050565b60006000805160206130aa8339815191525b546001600160a01b0316919050565b6040516304e9114760e21b815260ff831660048201526001600160a01b038216602482015260009081908190819073__$62400fcf056c2b33063fc11a9740c72847$__906313a4451c906044015b60806040518083038186803b15801561093a57600080fd5b505af415801561094e573d6000803e3d6000fd5b505050506040513d601f19601f820116820180604052508101906109729190612aac565b9299919850965090945092505050565b61098b3361200c565b6109a75760405162461bcd60e51b81526004016107bb90612971565b6109af612086565b565b600080600073__$62400fcf056c2b33063fc11a9740c72847$__632ae0b85b89898989896040518663ffffffff1660e01b81526004016109f5959493929190612ae2565b60606040518083038186803b158015610a0d57600080fd5b505af4158015610a21573d6000803e3d6000fd5b505050506040513d601f19601f82011682018060405250810190610a459190612b15565b925092509250955095509592505050565b604051631e0b71a360e01b815260609073__$ddd2182d6f392994445e6b8b482a37128a$__90631e0b71a390610a90908590600401612b43565b60006040518083038186803b158015610aa857600080fd5b505af4158015610abc573d6000803e3d6000fd5b505050506040513d6000823e601f3d908101601f19168201604052610ae49190810190612be4565b92915050565b6000806000610af76122e4565b610aff6122e4565b610b07611fb9565b610b103361200c565b610b2c5760405162461bcd60e51b81526004016107bb90612971565b85610b3681610fa8565b610b825760405162461bcd60e51b815260206004820152601960248201527f4e6f7420696e2074686520497461796f736520706572696f640000000000000060448201526064016107bb565b60405163130e60d960e11b815260ff8816600482015273__$ddd2182d6f392994445e6b8b482a37128a$__9063261cc1b2906024016101606040518083038186803b158015610bd057600080fd5b505af4158015610be4573d6000803e3d6000fd5b505050506040513d601f19601f82011682018060405250810190610c089190612c21565b939b929a50909850965090945092505050565b6000610c25611014565b905060005b8151811015610dc4576000828281518110610c4757610c47612c74565b602002602001015190506000610c686000805160206130aa83398151915290565b54604080517f5265736f6c766572206d697373696e67207461726765743a200000000000000060208201526039808201869052825180830390910181526059820192839052636795dbcd60e01b9092526001600160a01b0390921691636795dbcd91610cd991869190605d01612cd7565b60206040518083038186803b158015610cf157600080fd5b505afa158015610d05573d6000803e3d6000fd5b505050506040513d601f19601f82011682018060405250810190610d299190612cf0565b60008381527f4abde63c3e81aefa5764b017968bc473e83e093d7e1a10247d19e0a3e4124019602090815260409182902080546001600160a01b0319166001600160a01b03851690811790915582518681529182015281519293507f88a93678a3692f6789d9546fc621bf7234b101ddb7d4fe479455112831b8aa68929081900390910190a150508080610dbc90612d23565b915050610c2a565b505b50565b60007ffc2836757f9146445fc75bc3c897a210ec004e4ee60fc8627ef5cbf2842b3d0d81610e288460ff1660009081527ffc2836757f9146445fc75bc3c897a210ec004e4ee60fc8627ef5cbf2842b3d0c602052604090206002015490565b815260208101919091526040016000205460ff1692915050565b600080610e4d611014565b905060005b8151811015610f9f576000828281518110610e6f57610e6f612c74565b60200260200101519050610e8e6000805160206130aa83398151915290565b600082815260019190910160205260409020546001600160a01b03166000805160206130aa833981519152546040516321f8a72160e01b8152600481018490526001600160a01b03909116906321f8a7219060240160206040518083038186803b158015610efb57600080fd5b505afa158015610f0f573d6000803e3d6000fd5b505050506040513d601f19601f82011682018060405250810190610f339190612cf0565b6001600160a01b0316141580610f7d575060008181527f4abde63c3e81aefa5764b017968bc473e83e093d7e1a10247d19e0a3e412401960205260409020546001600160a01b0316155b15610f8c576000935050505090565b5080610f9781612d23565b915050610e52565b50600191505090565b6000610e10610fb68361160a565b610fc09190612d3e565b4210158015610ae45750610fd382610dc9565b1592915050565b604051631c582c2960e11b815260609073__$ddd2182d6f392994445e6b8b482a37128a$__906338b0585290610a90908590600401612b43565b604080516001808252818301909252606091602080830190803683370190505090507f4c656e64696e674d61726b6574436f6e74726f6c6c65720000000000000000008160008151811061106a5761106a612c74565b60200260200101818152505090565b60006110843361200c565b6110a05760405162461bcd60e51b81526004016107bb90612971565b604051634ea469d560e01b8152600481018490526024810183905273__$ddd2182d6f392994445e6b8b482a37128a$__90634ea469d59060440160206040518083038186803b1580156110f257600080fd5b505af4158015611106573d6000803e3d6000fd5b505050506040513d601f19601f8201168201806040525081019061112a9190612d55565b9392505050565b604051635767371760e01b815260609073__$ddd2182d6f392994445e6b8b482a37128a$__90635767371790610a90908590600401612b43565b60405163584795fb60e01b815260ff831660048201526001600160a01b038216602482015260009081908190819073__$62400fcf056c2b33063fc11a9740c72847$__9063584795fb90604401610922565b6040516358e6489760e01b815260ff8216600482015260009073__$ddd2182d6f392994445e6b8b482a37128a$__906358e64897906024015b60206040518083038186803b15801561120e57600080fd5b505af4158015611222573d6000803e3d6000fd5b505050506040513d601f19601f82011682018060405250810190610ae49190612d72565b604051635f7f8b4560e01b815260ff8216600482015260009073__$ddd2182d6f392994445e6b8b482a37128a$__90635f7f8b45906024016111f6565b604051632ff705dd60e11b815260ff831660048201526001600160a01b0382166024820152606090819073__$62400fcf056c2b33063fc11a9740c72847$__90635fee0bba906044015b60006040518083038186803b1580156112e557600080fd5b505af41580156112f9573d6000803e3d6000fd5b505050506040513d6000823e601f3d908101601f191682016040526113219190810190612def565b915091509250929050565b600061133782610dc9565b80156113495750611347826114dd565b155b8015610ae457506113598261160a565b42101592915050565b61138660405180606001604052806000815260200160008152602001600081525090565b5060009081527ffc2836757f9146445fc75bc3c897a210ec004e4ee60fc8627ef5cbf2842b3d0e6020908152604091829020825160608101845281548152600182015492810192909252600201549181019190915290565b61142b604051806101000160405280600080191681526020016000815260200160008152602001600081526020016000815260200160008152602001600081526020016000151581525090565b6040516380d5b60960e01b815260ff8316600482015273__$ddd2182d6f392994445e6b8b482a37128a$__906380d5b609906024016101006040518083038186803b15801561147957600080fd5b505af415801561148d573d6000803e3d6000fd5b505050506040513d601f19601f820116820180604052508101906114b19190612e68565b151560e089015260c088015260a087015260808601526060850152604084015260208301528152919050565b6040516382bdfed560e01b815260ff8216600482015260009073__$62400fcf056c2b33063fc11a9740c72847$__906382bdfed59060240160206040518083038186803b15801561152d57600080fd5b505af4158015611541573d6000803e3d6000fd5b505050506040513d601f19601f82011682018060405250810190610ae49190612ece565b60405163932c938560e01b815260ff83166004820152602481018290526060908190819073__$ddd2182d6f392994445e6b8b482a37128a$__9063932c9385906044015b60006040518083038186803b1580156115c157600080fd5b505af41580156115d5573d6000803e3d6000fd5b505050506040513d6000823e601f3d908101601f191682016040526115fd9190810190612ee9565b9250925092509250925092565b60ff1660009081527ffc2836757f9146445fc75bc3c897a210ec004e4ee60fc8627ef5cbf2842b3d0c602052604090206001015490565b61164a3361200c565b6116665760405162461bcd60e51b81526004016107bb90612971565b6109af6120e5565b6116996040518060800160405280600081526020016000815260200160008152602001600081525090565b6116a16122e4565b6116a9611fb9565b6116b23361200c565b6116ce5760405162461bcd60e51b81526004016107bb90612971565b866116d88161132c565b61171b5760405162461bcd60e51b815260206004820152601460248201527313585c9ad95d081a5cc81b9bdd081bdc195b995960621b60448201526064016107bb565b6040516356c4ff0d60e11b815273__$61caf4c2bb53b95485f5a2f3428ccc66af$__9063ad89fe1a9061175a908b908b908b908b908b90600401612f71565b6101006040518083038186803b15801561177357600080fd5b505af4158015611787573d6000803e3d6000fd5b505050506040513d601f19601f820116820180604052508101906117ab9190612a44565b92509250509550959350505050565b600054610100900460ff16158080156117da5750600054600160ff909116105b806117f45750303b1580156117f4575060005460ff166001145b6118575760405162461bcd60e51b815260206004820152602e60248201527f496e697469616c697a61626c653a20636f6e747261637420697320616c72656160448201526d191e481a5b9a5d1a585b1a5e995960921b60648201526084016107bb565b6000805460ff19166001179055801561187a576000805461ff0019166101001790555b600061188461212e565b6001600160a01b031614156118e75760405162461bcd60e51b815260206004820152602360248201527f4d7573742062652063616c6c65642066726f6d20626561636f6e20636f6e74726044820152621858dd60ea1b60648201526084016107bb565b6118f083612156565b817ffc2836757f9146445fc75bc3c897a210ec004e4ee60fc8627ef5cbf2842b3d0a5561191b610c1b565b8015611961576000805461ff0019169055604051600181527f7f26b83ff96e1f2b6a682f133852f6798a09c465da95921460cefb38474024989060200160405180910390a15b505050565b61196f3361200c565b61198b5760405162461bcd60e51b81526004016107bb90612971565b60405163c9c0009960e01b815260ff84166004820152602481018390526044810182905273__$ddd2182d6f392994445e6b8b482a37128a$__9063c9c000999060640160006040518083038186803b1580156119e657600080fd5b505af41580156119fa573d6000803e3d6000fd5b50505050505050565b6040516366a2c33160e11b815260609073__$ddd2182d6f392994445e6b8b482a37128a$__9063cd45866290610a90908590600401612b43565b611a45611fb9565b611a4e3361200c565b611a6a5760405162461bcd60e51b81526004016107bb90612971565b84611a7481611f7f565b611ac05760405162461bcd60e51b815260206004820152601b60248201527f4e6f7420696e20746865207072652d6f7264657220706572696f64000000000060448201526064016107bb565b60405163ed94d50f60e01b815273__$61caf4c2bb53b95485f5a2f3428ccc66af$__9063ed94d50f90611aff9089908990899089908990600401612f71565b60006040518083038186803b158015611b1757600080fd5b505af4158015611b2b573d6000803e3d6000fd5b50505050505050505050565b60405163cf37c59d60e01b815260ff8216600482015260009073__$ddd2182d6f392994445e6b8b482a37128a$__9063cf37c59d906024016111f6565b60405163de9f5fed60e01b815260ff8316600482015265ffffffffffff8216602482015260009081908190819081908190819073__$62400fcf056c2b33063fc11a9740c72847$__9063de9f5fed9060440160e06040518083038186803b158015611bde57600080fd5b505af4158015611bf2573d6000803e3d6000fd5b505050506040513d601f19601f82011682018060405250810190611c169190612fad565b959f949e50929c50909a509850965090945092505050565b60405163df16328d60e01b815260ff8316600482015260248101829052600090819073__$ddd2182d6f392994445e6b8b482a37128a$__9063df16328d90604401604080518083038186803b158015611c8657600080fd5b505af4158015611c9a573d6000803e3d6000fd5b505050506040513d601f19601f82011682018060405250810190611321919061301e565b8282826000611ccd8483611b74565b505050935050505060006001600160a01b0316816001600160a01b03161415611d2a5760405162461bcd60e51b815260206004820152600f60248201526e13dc99195c881b9bdd08199bdd5b99608a1b60448201526064016107bb565b806001600160a01b0316836001600160a01b031614611d8b5760405162461bcd60e51b815260206004820152601760248201527f43616c6c6572206973206e6f7420746865206d616b657200000000000000000060448201526064016107bb565b611d93611fb9565b611d9c3361200c565b611db85760405162461bcd60e51b81526004016107bb90612971565b6040516379fbfa2960e11b815260ff881660048201526001600160a01b038716602482015265ffffffffffff8616604482015273__$61caf4c2bb53b95485f5a2f3428ccc66af$__9063f3f7f4529060640160006040518083038186803b158015611e2257600080fd5b505af4158015611e36573d6000803e3d6000fd5b5050505050505050505050565b604051630f506ad360e41b815260ff831660048201526001600160a01b038216602482015260009081908190819081908190819073__$61caf4c2bb53b95485f5a2f3428ccc66af$__9063f506ad309060440160e06040518083038186803b158015611eae57600080fd5b505af4158015611ec2573d6000803e3d6000fd5b505050506040513d601f19601f82011682018060405250810190611c169190613042565b604051633e01139b60e21b815260ff83166004820152602481018290526060908190819073__$ddd2182d6f392994445e6b8b482a37128a$__9063f8044e6c906044016115a9565b604051600162a3316960e01b0319815260ff831660048201526001600160a01b0382166024820152606090819073__$62400fcf056c2b33063fc11a9740c72847$__9063ff5cce97906044016112cd565b600080611f8b8361160a565b9050611f9a62093a8082612d3e565b421015801561112a5750611fb0610e1082612d3e565b42109392505050565b6000805160206130ca8339815191525460ff16156109af5760405162461bcd60e51b815260206004820152601060248201526f14185d5cd8589b194e881c185d5cd95960821b60448201526064016107bb565b600080612017611014565b905060005b815181101561207c5761204782828151811061203a5761203a612c74565b60200260200101516121eb565b6001600160a01b0316846001600160a01b0316141561206a575060019392505050565b8061207481612d23565b91505061201c565b5060009392505050565b61208e6121f6565b6000805160206130ca833981519152805460ff191690557f5db9ee0a495bf2e6ff9c91a7834c1ba4fdd244a5e8aa4e537bd38aeae4b073aa335b6040516001600160a01b03909116815260200160405180910390a1565b6120ed611fb9565b6000805160206130ca833981519152805460ff191660011790557f62e78cea01bee320cd4e420270b5ea74000d11b0c9f74754ebdbfc544b05a258336120c8565b60007fa3f0ad74e5423aebfd80d3ef4346578335a9a72aeaee59ff6cb3582b35133d506108c5565b6000805160206130aa833981519152546001600160a01b0316156121bc5760405162461bcd60e51b815260206004820152601b60248201527f5265736f6c766572207265676973746572656420616c7265616479000000000060448201526064016107bb565b6000805160206130aa83398151915280546001600160a01b0319166001600160a01b0392909216919091179055565b6000610ae48261224c565b6000805160206130ca8339815191525460ff166109af5760405162461bcd60e51b815260206004820152601460248201527314185d5cd8589b194e881b9bdd081c185d5cd95960621b60448201526064016107bb565b60008181527f4abde63c3e81aefa5764b017968bc473e83e093d7e1a10247d19e0a3e41240196020908152604080832054815170026b4b9b9b4b7339030b2323932b9b99d1607d1b9381019390935260318084018690528251808503909101815260519093019091526001600160a01b031690816122dd5760405162461bcd60e51b81526004016107bb9190613096565b5092915050565b6040518060800160405280600065ffffffffffff16815260200160006001600160a01b0316815260200160008152602001600081525090565b60ff81168114610dc657600080fd5b60028110610dc657600080fd5b6001600160a01b0381168114610dc657600080fd5b60008060008060008060c0878903121561236757600080fd5b86356123728161231d565b955060208701356123828161232c565b9450604087013561239281612339565b959894975094956060810135955060808101359460a0909101359350915050565b805165ffffffffffff1682526020808201516001600160a01b03169083015260408082015190830152606090810151910152565b6000610100820190508351825260208401516020830152604084015160408301526060840151606083015261112a60808301846123b3565b6000806040838503121561243257600080fd5b823561243d8161231d565b9150602083013561244d81612339565b809150509250929050565b600080600080600060a0868803121561247057600080fd5b853561247b8161231d565b9450602086013561248b8161232c565b94979496505050506040830135926060810135926080909101359150565b634e487b7160e01b600052604160045260246000fd5b6040516080810167ffffffffffffffff811182821017156124e2576124e26124a9565b60405290565b604051601f8201601f1916810167ffffffffffffffff81118282101715612511576125116124a9565b604052919050565b600067ffffffffffffffff821115612533576125336124a9565b5060051b60200190565b6000602080838503121561255057600080fd5b823567ffffffffffffffff81111561256757600080fd5b8301601f8101851361257857600080fd5b803561258b61258682612519565b6124e8565b81815260059190911b820183019083810190878311156125aa57600080fd5b928401925b828410156125d15783356125c28161231d565b825292840192908401906125af565b979650505050505050565b600081518084526020808501945080840160005b8381101561260c578151875295820195908201906001016125f0565b509495945050505050565b60208152600061112a60208301846125dc565b60006020828403121561263c57600080fd5b813561112a8161231d565b8581526020810185905260408101849052610160810161266a60608301856123b3565b61267760e08301846123b3565b9695505050505050565b6020808252825182820181905260009190848201906040850190845b818110156126b95783518352928401929184019160010161269d565b50909695505050505050565b600080604083850312156126d857600080fd5b50508035926020909101359150565b600081518084526020808501945080840160005b8381101561260c57815165ffffffffffff16875295820195908201906001016126fb565b60408152600061273260408301856126e7565b828103602084015261274481856126e7565b95945050505050565b60006020828403121561275f57600080fd5b5035919050565b6000806040838503121561277957600080fd5b82356127848161231d565b946020939093013593505050565b6060815260006127a560608301866125dc565b82810360208401526127b781866125dc565b9050828103604084015261267781856125dc565b600080600080600060a086880312156127e357600080fd5b85356127ee8161231d565b945060208601356127fe8161232c565b9350604086013561280e81612339565b94979396509394606081013594506080013592915050565b6000806040838503121561283957600080fd5b823561278481612339565b60008060006060848603121561285957600080fd5b83356128648161231d565b95602085013595506040909401359392505050565b65ffffffffffff81168114610dc657600080fd5b600080604083850312156128a057600080fd5b82356128ab8161231d565b9150602083013561244d81612879565b600281106128d957634e487b7160e01b600052602160045260246000fd5b9052565b60e081016128eb828a6128bb565b602082019790975260408101959095526001600160a01b03939093166060850152608084019190915260a0830152151560c090910152919050565b60008060006060848603121561293b57600080fd5b83356129468161231d565b9250602084013561295681612339565b9150604084013561296681612879565b809150509250925092565b60208082526017908201527f4f6e6c7920416363657074656420436f6e747261637473000000000000000000604082015260600190565b60ff8716815260c081016129bf60208301886128bb565b6001600160a01b039590951660408201526060810193909352608083019190915260a09091015292915050565b6000608082840312156129fe57600080fd5b612a066124bf565b90508151612a1381612879565b81526020820151612a2381612339565b80602083015250604082015160408201526060820151606082015292915050565b600080828403610100811215612a5957600080fd5b6080811215612a6757600080fd5b50612a706124bf565b8351815260208401516020820152604084015160408201526060840151606082015280925050612aa384608085016129ec565b90509250929050565b60008060008060808587031215612ac257600080fd5b505082516020840151604085015160609095015191969095509092509050565b60ff8616815260a08101612af960208301876128bb565b8460408301528360608301528260808301529695505050505050565b600080600060608486031215612b2a57600080fd5b8351925060208401519150604084015190509250925092565b6020808252825182820181905260009190848201906040850190845b818110156126b957835160ff1683529284019291840191600101612b5f565b600082601f830112612b8f57600080fd5b81516020612b9f61258683612519565b82815260059290921b84018101918181019086841115612bbe57600080fd5b8286015b84811015612bd95780518352918301918301612bc2565b509695505050505050565b600060208284031215612bf657600080fd5b815167ffffffffffffffff811115612c0d57600080fd5b612c1984828501612b7e565b949350505050565b60008060008060006101608688031215612c3a57600080fd5b855194506020860151935060408601519250612c5987606088016129ec565b9150612c688760e088016129ec565b90509295509295909350565b634e487b7160e01b600052603260045260246000fd5b6000815180845260005b81811015612cb057602081850181015186830182015201612c94565b81811115612cc2576000602083870101525b50601f01601f19169290920160200192915050565b828152604060208201526000612c196040830184612c8a565b600060208284031215612d0257600080fd5b815161112a81612339565b634e487b7160e01b600052601160045260246000fd5b6000600019821415612d3757612d37612d0d565b5060010190565b600082821015612d5057612d50612d0d565b500390565b600060208284031215612d6757600080fd5b815161112a8161231d565b600060208284031215612d8457600080fd5b5051919050565b600082601f830112612d9c57600080fd5b81516020612dac61258683612519565b82815260059290921b84018101918181019086841115612dcb57600080fd5b8286015b84811015612bd9578051612de281612879565b8352918301918301612dcf565b60008060408385031215612e0257600080fd5b825167ffffffffffffffff80821115612e1a57600080fd5b612e2686838701612d8b565b93506020850151915080821115612e3c57600080fd5b50612e4985828601612d8b565b9150509250929050565b80518015158114612e6357600080fd5b919050565b600080600080600080600080610100898b031215612e8557600080fd5b885197506020890151965060408901519550606089015194506080890151935060a0890151925060c08901519150612ebf60e08a01612e53565b90509295985092959890939650565b600060208284031215612ee057600080fd5b61112a82612e53565b600080600060608486031215612efe57600080fd5b835167ffffffffffffffff80821115612f1657600080fd5b612f2287838801612b7e565b94506020860151915080821115612f3857600080fd5b612f4487838801612b7e565b93506040860151915080821115612f5a57600080fd5b50612f6786828701612b7e565b9150509250925092565b60ff8616815260a08101612f8860208301876128bb565b6001600160a01b03949094166040820152606081019290925260809091015292915050565b600080600080600080600060e0888a031215612fc857600080fd5b8751612fd38161232c565b8097505060208801519550604088015194506060880151612ff381612339565b608089015160a08a01519195509350915061301060c08901612e53565b905092959891949750929550565b6000806040838503121561303157600080fd5b505080516020909101519092909150565b600080600080600080600060e0888a03121561305d57600080fd5b5050855160208701516040880151606089015160808a015160a08b015160c0909b0151949c939b50919990985090965094509092509050565b60208152600061112a6020830184612c8a56fe4abde63c3e81aefa5764b017968bc473e83e093d7e1a10247d19e0a3e41240189c789132bdb3678132848a8dcd780bffd2b1abdce3984c522ac1d8aeb48f05f3a264697066735822122096e2b59ca9b74c01892efb13842d200c02ab791b2d6bd0fedd1acf94a2c03db764736f6c63430008090033",
  "libraries": {
    "OrderActionLogic": "0xD99836e31D99773c840274bA6270E042cB4F93E8",
    "OrderReaderLogic": "0x0bE18af3fF686010BfC856caf64aF7c7B3e820a8",
    "OrderBookLogic": "0xbB8e24710ad0A2C9D7d010991920b24c7eCBc808"
  },
  "devdoc": {
    "details": "The market orders is stored in structured red-black trees and doubly linked lists in each node.",
    "kind": "dev",
    "methods": {
      "acceptedContracts()": {
        "details": "The contact name listed in this method is also needed to be listed `requiredContracts` method."
      },
      "calculateFilledAmount(uint8,uint8,uint256,uint256,uint256)": {
        "params": {
          "_amount": "Amount of funds the user wants to borrow/lend",
          "_circuitBreakerLimitRange": "Rate limit range for the circuit breaker",
          "_orderBookId": "The order book id",
          "_side": "Order position type, Borrow or Lend",
          "_unitPrice": "Unit price user want to borrow/lend"
        },
        "returns": {
          "filledAmount": "The amount that is filled on the order book",
          "filledAmountInFV": "The amount in the future value that is filled on the order book",
          "lastUnitPrice": "The last unit price that is filled on the order book"
        }
      },
      "cancelOrder(uint8,address,uint48)": {
        "params": {
          "_orderBookId": "The order book id",
          "_orderId": "Market order id",
          "_user": "User address"
        }
      },
      "cleanUpOrders(uint8,address)": {
        "details": "The order list per user is not updated in real-time when an order is filled. This function removes the filled order from that order list per user to reduce gas costs for lazy evaluation if the collateral is enough or not.",
        "params": {
          "_user": "User address"
        },
        "returns": {
          "activeBorrowOrderCount": "The total amount of active borrow order on the order book",
          "activeLendOrderCount": "The total amount of active lend order on the order book",
          "maturity": "The maturity of the removed orders",
          "removedBorrowOrderAmount": "The total PV amount of the removed borrow order amount from the order book",
          "removedBorrowOrderFutureValue": "The total FV amount of the removed borrow order amount from the order book",
          "removedLendOrderAmount": "The total PV amount of the removed lend order amount from the order book",
          "removedLendOrderFutureValue": "The total FV amount of the removed lend order amount from the order book"
        }
      },
      "createOrderBook(uint256,uint256)": {
        "params": {
          "_maturity": "The initial maturity of the market",
          "_openingDate": "The timestamp when the market opens"
        }
      },
      "executeItayoseCall(uint8)": {
        "details": "If the opening date had already passed when this contract was created, this Itayose need not be executed.",
        "params": {
          "_orderBookId": "The order book id"
        },
        "returns": {
          "openingDate": "The timestamp when the market opens",
          "openingUnitPrice": "The opening price when Itayose is executed",
          "partiallyFilledBorrowingOrder": "Partially filled borrowing order on the order book",
          "partiallyFilledLendingOrder": "Partially filled lending order on the order book",
          "totalOffsetAmount": "The total filled amount when Itayose is executed"
        }
      },
      "executeOrder(uint8,uint8,address,uint256,uint256,uint256)": {
        "params": {
          "_amount": "Amount of funds the user wants to borrow/lend",
          "_circuitBreakerLimitRange": "Rate limit range for the circuit breaker",
          "_orderBookId": "The order book id",
          "_side": "Order position type, Borrow or Lend",
          "_unitPrice": "Unit price user wish to borrow/lend",
          "_user": "User's address"
        },
        "returns": {
          "filledOrder": "User's Filled order of the user",
          "partiallyFilledOrder": "Partially filled order on the order book"
        }
      },
      "executePreOrder(uint8,uint8,address,uint256,uint256)": {
        "params": {
          "_amount": "Amount of funds the maker wants to borrow/lend",
          "_orderBookId": "The order book id",
          "_side": "Order position type, Borrow or Lend",
          "_unitPrice": "Unit price taker wish to borrow/lend"
        }
      },
      "getBestBorrowUnitPrice(uint8)": {
        "params": {
          "_orderBookId": "The order book id"
        },
        "returns": {
          "_0": "The best price for borrowing"
        }
      },
      "getBestBorrowUnitPrices(uint8[])": {
        "returns": {
          "_0": "The array of the best price for borrowing"
        }
      },
      "getBestLendUnitPrice(uint8)": {
        "params": {
          "_orderBookId": "The order book id"
        },
        "returns": {
          "_0": "The best price for lending"
        }
      },
      "getBestLendUnitPrices(uint8[])": {
        "returns": {
          "_0": "The array of the best price for lending"
        }
      },
      "getBorrowOrderBook(uint8,uint256)": {
        "params": {
          "_limit": "Max limit to get unit prices",
          "_orderBookId": "The order book id"
        },
        "returns": {
          "unitPrices": "The array of borrow unit prices"
        }
      },
      "getBorrowOrderIds(uint8,address)": {
        "params": {
          "_orderBookId": "The order book id",
          "_user": "User's address"
        }
      },
      "getCircuitBreakerThresholds(uint8,uint256)": {
        "params": {
          "_circuitBreakerLimitRange": "Rate limit range for the circuit breaker",
          "_orderBookId": "The order book id"
        },
        "returns": {
          "maxLendUnitPrice": "The maximum unit price for lending",
          "minBorrowUnitPrice": "The minimum unit price for borrowing"
        }
      },
      "getCurrency()": {
        "returns": {
          "currency": "The market currency"
        }
      },
      "getItayoseLog(uint256)": {
        "params": {
          "_maturity": "The market maturity"
        },
        "returns": {
          "_0": "ItayoseLog of the market"
        }
      },
      "getLendOrderBook(uint8,uint256)": {
        "params": {
          "_limit": "Max limit to get unit prices",
          "_orderBookId": "The order book id"
        },
        "returns": {
          "unitPrices": "The array of lending unit prices"
        }
      },
      "getLendOrderIds(uint8,address)": {
        "params": {
          "_orderBookId": "The order book id",
          "_user": "User's address"
        }
      },
      "getMaturities(uint8[])": {
        "returns": {
          "maturities": "The array of maturity"
        }
      },
      "getMaturity(uint8)": {
        "params": {
          "_orderBookId": "The order book id"
        },
        "returns": {
          "maturity": "The market maturity"
        }
      },
      "getMidUnitPrice(uint8)": {
        "params": {
          "_orderBookId": "The order book id"
        },
        "returns": {
          "_0": "The mid price per future value"
        }
      },
      "getMidUnitPrices(uint8[])": {
        "returns": {
          "_0": "The array of the the price per future value"
        }
      },
      "getOpeningDate(uint8)": {
        "params": {
          "_orderBookId": "The order book id"
        },
        "returns": {
          "openingDate": "The market opening date"
        }
      },
      "getOrder(uint8,uint48)": {
        "params": {
          "_orderBookId": "The order book id",
          "_orderId": "The market order id"
        },
        "returns": {
          "amount": "Order amount",
          "isPreOrder": "The boolean if the order is a pre-order.",
          "maker": "The order maker",
          "maturity": "The maturity of the selected order",
          "side": "Order position type, Borrow or Lend",
          "timestamp": "Timestamp when the order was created",
          "unitPrice": "Amount of interest unit price"
        }
      },
      "getOrderBookDetail(uint8)": {
        "params": {
          "_orderBookId": "The order book id"
        },
        "returns": {
          "market": "The market data"
        }
      },
      "getTotalAmountFromBorrowOrders(uint8,address)": {
        "params": {
          "_orderBookId": "The order book id",
          "_user": "User's address"
        },
        "returns": {
          "activeAmount": "The total amount of active order on the order book",
          "inactiveAmount": "The total amount of inactive orders filled on the order book",
          "inactiveFutureValue": "The total future value amount of inactive orders filled on the order book",
          "maturity": "The maturity of market that orders were placed."
        }
      },
      "getTotalAmountFromLendOrders(uint8,address)": {
        "params": {
          "_orderBookId": "The order book id",
          "_user": "User's address"
        },
        "returns": {
          "activeAmount": "The total amount of active order on the order book",
          "inactiveAmount": "The total amount of inactive orders filled on the order book",
          "inactiveFutureValue": "The total future value amount of inactive orders filled on the order book",
          "maturity": "The maturity of market that orders were placed."
        }
      },
      "initialize(address,bytes32)": {
        "details": "Function is invoked by the proxy contract when the contract is added to the ProxyController.",
        "params": {
          "_ccy": "The main currency for the order book",
          "_resolver": "The address of the Address Resolver contract"
        }
      },
      "isItayosePeriod(uint8)": {
        "params": {
          "_orderBookId": "The order book id"
        },
        "returns": {
          "_0": "The boolean if the market is under the Itayose period."
        }
      },
      "isMatured(uint8)": {
        "params": {
          "_orderBookId": "The order book id"
        },
        "returns": {
          "_0": "The boolean if the market is matured or not"
        }
      },
      "isOpened(uint8)": {
        "params": {
          "_orderBookId": "The order book id"
        },
        "returns": {
          "_0": "The boolean if the market is opened or not"
        }
      },
      "isPreOrderPeriod(uint8)": {
        "params": {
          "_orderBookId": "The order book id"
        },
        "returns": {
          "_0": "The boolean if the market is under the pre-order period."
        }
      },
      "isReady(uint8)": {
        "params": {
          "_orderBookId": "The order book id"
        },
        "returns": {
          "_0": "The boolean if the market is ready or not"
        }
      },
      "paused()": {
        "details": "Returns true if the contract is paused, and false otherwise."
      },
      "requiredContracts()": {
        "details": "The contract name list is in `./libraries/Contracts.sol`."
      },
      "unwindPosition(uint8,uint8,address,uint256,uint256)": {
        "params": {
          "_circuitBreakerLimitRange": "Rate limit range for the circuit breaker",
          "_futureValue": "Amount of future value unwound",
          "_orderBookId": "The order book id",
          "_side": "Order position type, Borrow or Lend",
          "_user": "User's address"
        },
        "returns": {
          "filledOrder": "User's Filled order of the user",
          "partiallyFilledOrder": "Partially filled order"
        }
      }
    },
    "version": 1
  },
  "userdoc": {
    "kind": "user",
    "methods": {
      "acceptedContracts()": {
        "notice": "Returns contract names that can call this contract."
      },
      "calculateFilledAmount(uint8,uint8,uint256,uint256,uint256)": {
        "notice": "Calculates the amount to be filled when executing an order in the order book."
      },
      "cancelOrder(uint8,address,uint48)": {
        "notice": "Cancels the order."
      },
      "cleanUpOrders(uint8,address)": {
        "notice": "Cleans up own orders to remove order ids that are already filled on the order book."
      },
      "createOrderBook(uint256,uint256)": {
        "notice": "Creates a new order book."
      },
      "executeItayoseCall(uint8)": {
        "notice": "Executes Itayose to aggregate pre-orders and determine the opening unit price. After this action, the market opens."
      },
      "executeOrder(uint8,uint8,address,uint256,uint256,uint256)": {
        "notice": "Executes an order. Takes orders if the order is matched, and places new order if not match it."
      },
      "executePreOrder(uint8,uint8,address,uint256,uint256)": {
        "notice": "Executes a pre-order. A pre-order will only be accepted from 168 hours (7 days) to 1 hour before the market opens (Pre-order period). At the end of this period, Itayose will be executed."
      },
      "getBestBorrowUnitPrice(uint8)": {
        "notice": "Gets the best price for borrowing."
      },
      "getBestBorrowUnitPrices(uint8[])": {
        "notice": "Gets the best prices for borrowing."
      },
      "getBestLendUnitPrice(uint8)": {
        "notice": "Gets the best price for lending."
      },
      "getBestLendUnitPrices(uint8[])": {
        "notice": "Gets the best prices for lending."
      },
      "getBorrowOrderBook(uint8,uint256)": {
        "notice": "Gets the order book of borrow."
      },
      "getBorrowOrderIds(uint8,address)": {
        "notice": "Gets active and inactive order IDs in the borrowing order book."
      },
      "getCircuitBreakerThresholds(uint8,uint256)": {
        "notice": "Gets unit price Thresholds by CircuitBreaker."
      },
      "getCurrency()": {
        "notice": "Gets the market currency."
      },
      "getItayoseLog(uint256)": {
        "notice": "Gets the market itayose logs."
      },
      "getLendOrderBook(uint8,uint256)": {
        "notice": "Gets the order book of lend."
      },
      "getLendOrderIds(uint8,address)": {
        "notice": "Gets active and inactive order IDs in the lending order book."
      },
      "getMaturities(uint8[])": {
        "notice": "Gets the order book maturities."
      },
      "getMaturity(uint8)": {
        "notice": "Gets the current market maturity."
      },
      "getMidUnitPrice(uint8)": {
        "notice": "Gets the mid price per future value."
      },
      "getMidUnitPrices(uint8[])": {
        "notice": "Gets the the prices per future value."
      },
      "getOpeningDate(uint8)": {
        "notice": "Gets the market opening date."
      },
      "getOrder(uint8,uint48)": {
        "notice": "Gets the market order from the order book."
      },
      "getOrderBookDetail(uint8)": {
        "notice": "Gets the order book data."
      },
      "getTotalAmountFromBorrowOrders(uint8,address)": {
        "notice": "Calculates and gets the active and inactive amounts from the user orders of borrowing deals."
      },
      "getTotalAmountFromLendOrders(uint8,address)": {
        "notice": "Calculates and gets the active and inactive amounts from the user orders of lending deals."
      },
      "initialize(address,bytes32)": {
        "notice": "Initializes the contract."
      },
      "isItayosePeriod(uint8)": {
        "notice": "Gets if the market is under the Itayose period."
      },
      "isMatured(uint8)": {
        "notice": "Gets if the market is matured."
      },
      "isOpened(uint8)": {
        "notice": "Gets if the market is opened."
      },
      "isPreOrderPeriod(uint8)": {
        "notice": "Gets if the market is under the pre-order period."
      },
      "isReady(uint8)": {
        "notice": "Gets if the market is ready."
      },
      "pauseMarket()": {
        "notice": "Pauses the lending market."
      },
      "requiredContracts()": {
        "notice": "Returns the contract names used in this contract."
      },
      "unpauseMarket()": {
        "notice": "Unpauses the lending market."
      },
      "unwindPosition(uint8,uint8,address,uint256,uint256)": {
        "notice": "Unwinds lending or borrowing positions by a specified future value amount."
      }
    },
    "notice": "Implements the module that allows lending market participants to create/cancel market orders, and also provides a future value calculation module. For updates, this contract is basically called from `LendingMarketController.sol`instead of being called \\ directly by the user.",
    "version": 1
  },
  "storageLayout": {
    "storage": [
      {
        "astId": 995,
        "contract": "contracts/protocol/LendingMarket.sol:LendingMarket",
        "label": "_initialized",
        "offset": 0,
        "slot": "0",
        "type": "t_uint8"
      },
      {
        "astId": 998,
        "contract": "contracts/protocol/LendingMarket.sol:LendingMarket",
        "label": "_initializing",
        "offset": 1,
        "slot": "0",
        "type": "t_bool"
      }
    ],
    "types": {
      "t_bool": {
        "encoding": "inplace",
        "label": "bool",
        "numberOfBytes": "1"
      },
      "t_uint8": {
        "encoding": "inplace",
        "label": "uint8",
        "numberOfBytes": "1"
      }
    }
  }
}