{
  "address": "0x1BEe02bccAe81a3D3A16aE181Ad48EfA436c5817",
  "abi": [
    {
      "anonymous": false,
      "inputs": [
        {
          "indexed": false,
          "internalType": "bytes32",
          "name": "name",
          "type": "bytes32"
        },
        {
          "indexed": false,
          "internalType": "address",
          "name": "destination",
          "type": "address"
        }
      ],
      "name": "CacheUpdated",
      "type": "event"
    },
    {
      "anonymous": false,
      "inputs": [
        {
          "indexed": false,
          "internalType": "uint48",
          "name": "orderId",
          "type": "uint48"
        },
        {
          "indexed": true,
          "internalType": "address",
          "name": "maker",
          "type": "address"
        },
        {
          "indexed": true,
          "internalType": "bytes32",
          "name": "ccy",
          "type": "bytes32"
        },
        {
          "indexed": false,
          "internalType": "enum ProtocolTypes.Side",
          "name": "side",
          "type": "uint8"
        },
        {
          "indexed": false,
          "internalType": "uint256",
          "name": "maturity",
          "type": "uint256"
        },
        {
          "indexed": false,
          "internalType": "uint256",
          "name": "amount",
          "type": "uint256"
        },
        {
          "indexed": false,
          "internalType": "uint256",
          "name": "unitPrice",
          "type": "uint256"
        }
      ],
      "name": "CancelOrder",
      "type": "event"
    },
    {
      "anonymous": false,
      "inputs": [
        {
          "indexed": true,
          "internalType": "bytes32",
          "name": "ccy",
          "type": "bytes32"
        },
        {
          "indexed": true,
          "internalType": "address",
          "name": "marketAddr",
          "type": "address"
        },
        {
          "indexed": false,
          "internalType": "address",
          "name": "futureValueVault",
          "type": "address"
        },
        {
          "indexed": false,
          "internalType": "uint256",
          "name": "index",
          "type": "uint256"
        },
        {
          "indexed": false,
          "internalType": "uint256",
          "name": "maturity",
          "type": "uint256"
        }
      ],
      "name": "CreateLendingMarket",
      "type": "event"
    },
    {
      "anonymous": false,
      "inputs": [
        {
          "indexed": true,
          "internalType": "address",
          "name": "taker",
          "type": "address"
        },
        {
          "indexed": true,
          "internalType": "bytes32",
          "name": "ccy",
          "type": "bytes32"
        },
        {
          "indexed": false,
          "internalType": "enum ProtocolTypes.Side",
          "name": "side",
          "type": "uint8"
        },
        {
          "indexed": true,
          "internalType": "uint256",
          "name": "maturity",
          "type": "uint256"
        },
        {
          "indexed": false,
          "internalType": "uint256",
          "name": "amount",
          "type": "uint256"
        },
        {
          "indexed": false,
          "internalType": "uint256",
          "name": "unitPrice",
          "type": "uint256"
        },
        {
          "indexed": false,
          "internalType": "uint256",
          "name": "filledFutureValue",
          "type": "uint256"
        }
      ],
      "name": "FillOrder",
      "type": "event"
    },
    {
      "anonymous": false,
      "inputs": [
        {
          "indexed": true,
          "internalType": "address",
          "name": "taker",
          "type": "address"
        },
        {
          "indexed": true,
          "internalType": "bytes32",
          "name": "ccy",
          "type": "bytes32"
        },
        {
          "indexed": false,
          "internalType": "enum ProtocolTypes.Side",
          "name": "side",
          "type": "uint8"
        },
        {
          "indexed": true,
          "internalType": "uint256",
          "name": "maturity",
          "type": "uint256"
        },
        {
          "indexed": false,
          "internalType": "uint256",
          "name": "filledFutureValue",
          "type": "uint256"
        }
      ],
      "name": "FillOrdersAsync",
      "type": "event"
    },
    {
      "anonymous": false,
      "inputs": [
        {
          "indexed": false,
          "internalType": "uint8",
          "name": "version",
          "type": "uint8"
        }
      ],
      "name": "Initialized",
      "type": "event"
    },
    {
      "anonymous": false,
      "inputs": [
        {
          "indexed": true,
          "internalType": "address",
          "name": "user",
          "type": "address"
        },
        {
          "indexed": false,
          "internalType": "bytes32",
          "name": "collateralCcy",
          "type": "bytes32"
        },
        {
          "indexed": true,
          "internalType": "bytes32",
          "name": "debtCcy",
          "type": "bytes32"
        },
        {
          "indexed": true,
          "internalType": "uint256",
          "name": "debtMaturity",
          "type": "uint256"
        },
        {
          "indexed": false,
          "internalType": "uint256",
          "name": "amount",
          "type": "uint256"
        }
      ],
      "name": "Liquidate",
      "type": "event"
    },
    {
      "anonymous": false,
      "inputs": [
        {
          "indexed": true,
          "internalType": "address",
          "name": "previousOwner",
          "type": "address"
        },
        {
          "indexed": true,
          "internalType": "address",
          "name": "newOwner",
          "type": "address"
        }
      ],
      "name": "OwnershipTransferred",
      "type": "event"
    },
    {
      "anonymous": false,
      "inputs": [
        {
          "indexed": false,
          "internalType": "bytes32",
          "name": "ccy",
          "type": "bytes32"
        },
        {
          "indexed": false,
          "internalType": "uint256",
          "name": "oldMaturity",
          "type": "uint256"
        },
        {
          "indexed": false,
          "internalType": "uint256",
          "name": "newMaturity",
          "type": "uint256"
        }
      ],
      "name": "RotateLendingMarkets",
      "type": "event"
    },
    {
      "inputs": [],
      "name": "acceptedContracts",
      "outputs": [
        {
          "internalType": "bytes32[]",
          "name": "contracts",
          "type": "bytes32[]"
        }
      ],
      "stateMutability": "pure",
      "type": "function"
    },
    {
      "inputs": [],
      "name": "buildCache",
      "outputs": [],
      "stateMutability": "nonpayable",
      "type": "function"
    },
    {
      "inputs": [
        {
          "internalType": "bytes32",
          "name": "_ccy",
          "type": "bytes32"
        },
        {
          "internalType": "address",
          "name": "_user",
          "type": "address"
        }
      ],
      "name": "calculateBorrowedFundsFromOrders",
      "outputs": [
        {
          "internalType": "uint256",
          "name": "workingOrdersAmount",
          "type": "uint256"
        },
        {
          "internalType": "uint256",
          "name": "debtAmount",
          "type": "uint256"
        },
        {
          "internalType": "uint256",
          "name": "borrowedAmount",
          "type": "uint256"
        }
      ],
      "stateMutability": "view",
      "type": "function"
    },
    {
      "inputs": [
        {
          "internalType": "bytes32",
          "name": "_ccy",
          "type": "bytes32"
        },
        {
          "internalType": "address",
          "name": "_user",
          "type": "address"
        }
      ],
      "name": "calculateFunds",
      "outputs": [
        {
          "internalType": "uint256",
          "name": "workingLendOrdersAmount",
          "type": "uint256"
        },
        {
          "internalType": "uint256",
          "name": "claimableAmount",
          "type": "uint256"
        },
        {
          "internalType": "uint256",
          "name": "collateralAmount",
          "type": "uint256"
        },
        {
          "internalType": "uint256",
          "name": "lentAmount",
          "type": "uint256"
        },
        {
          "internalType": "uint256",
          "name": "workingBorrowOrdersAmount",
          "type": "uint256"
        },
        {
          "internalType": "uint256",
          "name": "debtAmount",
          "type": "uint256"
        },
        {
          "internalType": "uint256",
          "name": "borrowedAmount",
          "type": "uint256"
        }
      ],
      "stateMutability": "view",
      "type": "function"
    },
    {
      "inputs": [
        {
          "internalType": "bytes32",
          "name": "_ccy",
          "type": "bytes32"
        },
        {
          "internalType": "address",
          "name": "_user",
          "type": "address"
        }
      ],
      "name": "calculateLentFundsFromOrders",
      "outputs": [
        {
          "internalType": "uint256",
          "name": "workingOrdersAmount",
          "type": "uint256"
        },
        {
          "internalType": "uint256",
          "name": "claimableAmount",
          "type": "uint256"
        },
        {
          "internalType": "uint256",
          "name": "lentAmount",
          "type": "uint256"
        }
      ],
      "stateMutability": "view",
      "type": "function"
    },
    {
      "inputs": [
        {
          "internalType": "address",
          "name": "_user",
          "type": "address"
        },
        {
          "internalType": "bytes32",
          "name": "_depositCcy",
          "type": "bytes32"
        },
        {
          "internalType": "uint256",
          "name": "_depositAmount",
          "type": "uint256"
        }
      ],
      "name": "calculateTotalFundsInETH",
      "outputs": [
        {
          "internalType": "uint256",
          "name": "totalWorkingLendOrdersAmount",
          "type": "uint256"
        },
        {
          "internalType": "uint256",
          "name": "totalClaimableAmount",
          "type": "uint256"
        },
        {
          "internalType": "uint256",
          "name": "totalCollateralAmount",
          "type": "uint256"
        },
        {
          "internalType": "uint256",
          "name": "totalLentAmount",
          "type": "uint256"
        },
        {
          "internalType": "uint256",
          "name": "totalWorkingBorrowOrdersAmount",
          "type": "uint256"
        },
        {
          "internalType": "uint256",
          "name": "totalDebtAmount",
          "type": "uint256"
        },
        {
          "internalType": "uint256",
          "name": "totalBorrowedAmount",
          "type": "uint256"
        },
        {
          "internalType": "bool",
          "name": "isEnoughDeposit",
          "type": "bool"
        }
      ],
      "stateMutability": "view",
      "type": "function"
    },
    {
      "inputs": [
        {
          "internalType": "bytes32",
          "name": "_ccy",
          "type": "bytes32"
        },
        {
          "internalType": "uint256",
          "name": "_maturity",
          "type": "uint256"
        },
        {
          "internalType": "uint48",
          "name": "_orderId",
          "type": "uint48"
        }
      ],
      "name": "cancelOrder",
      "outputs": [
        {
          "internalType": "bool",
          "name": "",
          "type": "bool"
        }
      ],
      "stateMutability": "nonpayable",
      "type": "function"
    },
    {
      "inputs": [
        {
          "internalType": "address",
          "name": "_user",
          "type": "address"
        }
      ],
      "name": "cleanAllOrders",
      "outputs": [],
      "stateMutability": "nonpayable",
      "type": "function"
    },
    {
      "inputs": [
        {
          "internalType": "bytes32",
          "name": "_ccy",
          "type": "bytes32"
        },
        {
          "internalType": "address",
          "name": "_user",
          "type": "address"
        }
      ],
      "name": "cleanOrders",
      "outputs": [
        {
          "internalType": "uint256",
          "name": "totalActiveOrderCount",
          "type": "uint256"
        }
      ],
      "stateMutability": "nonpayable",
      "type": "function"
    },
    {
      "inputs": [
        {
          "internalType": "bytes32",
          "name": "_ccy",
          "type": "bytes32"
        }
      ],
      "name": "createLendingMarket",
      "outputs": [
        {
          "internalType": "address",
          "name": "market",
          "type": "address"
        },
        {
          "internalType": "address",
          "name": "futureValueVault",
          "type": "address"
        }
      ],
      "stateMutability": "nonpayable",
      "type": "function"
    },
    {
      "inputs": [
        {
          "internalType": "bytes32",
          "name": "_ccy",
          "type": "bytes32"
        },
        {
          "internalType": "uint256",
          "name": "_maturity",
          "type": "uint256"
        },
        {
          "internalType": "enum ProtocolTypes.Side",
          "name": "_side",
          "type": "uint8"
        },
        {
          "internalType": "uint256",
          "name": "_amount",
          "type": "uint256"
        },
        {
          "internalType": "uint256",
          "name": "_unitPrice",
          "type": "uint256"
        }
      ],
      "name": "createOrder",
      "outputs": [
        {
          "internalType": "bool",
          "name": "",
          "type": "bool"
        }
      ],
      "stateMutability": "nonpayable",
      "type": "function"
    },
    {
      "inputs": [
        {
          "internalType": "bytes32",
          "name": "_ccy",
          "type": "bytes32"
        },
        {
          "internalType": "uint256",
          "name": "_maturity",
          "type": "uint256"
        },
        {
          "internalType": "enum ProtocolTypes.Side",
          "name": "_side",
          "type": "uint8"
        },
        {
          "internalType": "uint256",
          "name": "_amount",
          "type": "uint256"
        },
        {
          "internalType": "uint256",
          "name": "_unitPrice",
          "type": "uint256"
        }
      ],
      "name": "depositAndCreateOrder",
      "outputs": [
        {
          "internalType": "bool",
          "name": "",
          "type": "bool"
        }
      ],
      "stateMutability": "payable",
      "type": "function"
    },
    {
      "inputs": [
        {
          "internalType": "bytes32",
          "name": "_collateralCcy",
          "type": "bytes32"
        },
        {
          "internalType": "bytes32",
          "name": "_debtCcy",
          "type": "bytes32"
        },
        {
          "internalType": "uint256",
          "name": "_debtMaturity",
          "type": "uint256"
        },
        {
          "internalType": "address",
          "name": "_user",
          "type": "address"
        },
        {
          "internalType": "uint24",
          "name": "_poolFee",
          "type": "uint24"
        }
      ],
      "name": "executeLiquidationCall",
      "outputs": [
        {
          "internalType": "bool",
          "name": "",
          "type": "bool"
        }
      ],
      "stateMutability": "nonpayable",
      "type": "function"
    },
    {
      "inputs": [
        {
          "internalType": "bytes32",
          "name": "_ccy",
          "type": "bytes32"
        },
        {
          "internalType": "uint256",
          "name": "_maturity",
          "type": "uint256"
        },
        {
          "internalType": "uint256",
          "name": "_limit",
          "type": "uint256"
        }
      ],
      "name": "getBorrowOrderBook",
      "outputs": [
        {
          "internalType": "uint256[]",
          "name": "unitPrices",
          "type": "uint256[]"
        },
        {
          "internalType": "uint256[]",
          "name": "amounts",
          "type": "uint256[]"
        },
        {
          "internalType": "uint256[]",
          "name": "quantities",
          "type": "uint256[]"
        }
      ],
      "stateMutability": "view",
      "type": "function"
    },
    {
      "inputs": [
        {
          "internalType": "bytes32",
          "name": "_ccy",
          "type": "bytes32"
        }
      ],
      "name": "getBorrowUnitPrices",
      "outputs": [
        {
          "internalType": "uint256[]",
          "name": "",
          "type": "uint256[]"
        }
      ],
      "stateMutability": "view",
      "type": "function"
    },
    {
      "inputs": [
        {
          "internalType": "bytes32",
          "name": "_ccy",
          "type": "bytes32"
        },
        {
          "internalType": "uint256",
          "name": "_maturity",
          "type": "uint256"
        },
        {
          "internalType": "address",
          "name": "_user",
          "type": "address"
        }
      ],
      "name": "getFutureValue",
      "outputs": [
        {
          "internalType": "int256",
          "name": "futureValue",
          "type": "int256"
        }
      ],
      "stateMutability": "view",
      "type": "function"
    },
    {
      "inputs": [
        {
          "internalType": "bytes32",
          "name": "_ccy",
          "type": "bytes32"
        },
        {
          "internalType": "uint256",
          "name": "_maturity",
          "type": "uint256"
        }
      ],
      "name": "getFutureValueVault",
      "outputs": [
        {
          "internalType": "address",
          "name": "",
          "type": "address"
        }
      ],
      "stateMutability": "view",
      "type": "function"
    },
    {
      "inputs": [
        {
          "internalType": "bytes32",
          "name": "_ccy",
          "type": "bytes32"
        }
      ],
      "name": "getGenesisDate",
      "outputs": [
        {
          "internalType": "uint256",
          "name": "",
          "type": "uint256"
        }
      ],
      "stateMutability": "view",
      "type": "function"
    },
    {
      "inputs": [
        {
          "internalType": "bytes32",
          "name": "_ccy",
          "type": "bytes32"
        },
        {
          "internalType": "uint256",
          "name": "_maturity",
          "type": "uint256"
        },
        {
          "internalType": "uint256",
          "name": "_limit",
          "type": "uint256"
        }
      ],
      "name": "getLendOrderBook",
      "outputs": [
        {
          "internalType": "uint256[]",
          "name": "unitPrices",
          "type": "uint256[]"
        },
        {
          "internalType": "uint256[]",
          "name": "amounts",
          "type": "uint256[]"
        },
        {
          "internalType": "uint256[]",
          "name": "quantities",
          "type": "uint256[]"
        }
      ],
      "stateMutability": "view",
      "type": "function"
    },
    {
      "inputs": [
        {
          "internalType": "bytes32",
          "name": "_ccy",
          "type": "bytes32"
        }
      ],
      "name": "getLendUnitPrices",
      "outputs": [
        {
          "internalType": "uint256[]",
          "name": "",
          "type": "uint256[]"
        }
      ],
      "stateMutability": "view",
      "type": "function"
    },
    {
      "inputs": [
        {
          "internalType": "bytes32",
          "name": "_ccy",
          "type": "bytes32"
        },
        {
          "internalType": "uint256",
          "name": "_maturity",
          "type": "uint256"
        }
      ],
      "name": "getLendingMarket",
      "outputs": [
        {
          "internalType": "address",
          "name": "",
          "type": "address"
        }
      ],
      "stateMutability": "view",
      "type": "function"
    },
    {
      "inputs": [
        {
          "internalType": "bytes32",
          "name": "_ccy",
          "type": "bytes32"
        }
      ],
      "name": "getLendingMarkets",
      "outputs": [
        {
          "internalType": "address[]",
          "name": "",
          "type": "address[]"
        }
      ],
      "stateMutability": "view",
      "type": "function"
    },
    {
      "inputs": [
        {
          "internalType": "bytes32",
          "name": "_ccy",
          "type": "bytes32"
        }
      ],
      "name": "getMaturities",
      "outputs": [
        {
          "internalType": "uint256[]",
          "name": "",
          "type": "uint256[]"
        }
      ],
      "stateMutability": "view",
      "type": "function"
    },
    {
      "inputs": [
        {
          "internalType": "bytes32",
          "name": "_ccy",
          "type": "bytes32"
        }
      ],
      "name": "getMidUnitPrices",
      "outputs": [
        {
          "internalType": "uint256[]",
          "name": "",
          "type": "uint256[]"
        }
      ],
      "stateMutability": "view",
      "type": "function"
    },
    {
      "inputs": [
        {
          "internalType": "bytes32",
          "name": "_ccy",
          "type": "bytes32"
        }
      ],
      "name": "getOrderFeeRate",
      "outputs": [
        {
          "internalType": "uint256",
          "name": "",
          "type": "uint256"
        }
      ],
      "stateMutability": "view",
      "type": "function"
    },
    {
      "inputs": [
        {
          "internalType": "bytes32",
          "name": "_ccy",
          "type": "bytes32"
        },
        {
          "internalType": "uint256",
          "name": "_maturity",
          "type": "uint256"
        },
        {
          "internalType": "address",
          "name": "_user",
          "type": "address"
        }
      ],
      "name": "getPresentValue",
      "outputs": [
        {
          "internalType": "int256",
          "name": "presentValue",
          "type": "int256"
        }
      ],
      "stateMutability": "view",
      "type": "function"
    },
    {
      "inputs": [
        {
          "internalType": "bytes32",
          "name": "_ccy",
          "type": "bytes32"
        },
        {
          "internalType": "address",
          "name": "_user",
          "type": "address"
        }
      ],
      "name": "getTotalPresentValue",
      "outputs": [
        {
          "internalType": "int256",
          "name": "totalPresentValue",
          "type": "int256"
        }
      ],
      "stateMutability": "view",
      "type": "function"
    },
    {
      "inputs": [
        {
          "internalType": "address",
          "name": "_user",
          "type": "address"
        }
      ],
      "name": "getTotalPresentValueInETH",
      "outputs": [
        {
          "internalType": "int256",
          "name": "totalPresentValue",
          "type": "int256"
        }
      ],
      "stateMutability": "view",
      "type": "function"
    },
    {
      "inputs": [
        {
          "internalType": "address",
          "name": "_user",
          "type": "address"
        }
      ],
      "name": "getUsedCurrencies",
      "outputs": [
        {
          "internalType": "bytes32[]",
          "name": "",
          "type": "bytes32[]"
        }
      ],
      "stateMutability": "view",
      "type": "function"
    },
    {
      "inputs": [
        {
          "internalType": "address",
          "name": "_owner",
          "type": "address"
        },
        {
          "internalType": "address",
          "name": "_resolver",
          "type": "address"
        }
      ],
      "name": "initialize",
      "outputs": [],
      "stateMutability": "nonpayable",
      "type": "function"
    },
    {
      "inputs": [
        {
          "internalType": "bytes32",
          "name": "_ccy",
          "type": "bytes32"
        },
        {
          "internalType": "uint256",
          "name": "_genesisDate",
          "type": "uint256"
        },
        {
          "internalType": "uint256",
          "name": "_compoundFactor",
          "type": "uint256"
        },
        {
          "internalType": "uint256",
          "name": "_orderFeeRate",
          "type": "uint256"
        }
      ],
      "name": "initializeLendingMarket",
      "outputs": [],
      "stateMutability": "nonpayable",
      "type": "function"
    },
    {
      "inputs": [
        {
          "internalType": "bytes32",
          "name": "_ccy",
          "type": "bytes32"
        }
      ],
      "name": "isInitializedLendingMarket",
      "outputs": [
        {
          "internalType": "bool",
          "name": "",
          "type": "bool"
        }
      ],
      "stateMutability": "view",
      "type": "function"
    },
    {
      "inputs": [
        {
          "internalType": "address",
          "name": "_user",
          "type": "address"
        }
      ],
      "name": "isLiquidator",
      "outputs": [
        {
          "internalType": "bool",
          "name": "",
          "type": "bool"
        }
      ],
      "stateMutability": "view",
      "type": "function"
    },
    {
      "inputs": [],
      "name": "isResolverCached",
      "outputs": [
        {
          "internalType": "bool",
          "name": "",
          "type": "bool"
        }
      ],
      "stateMutability": "view",
      "type": "function"
    },
    {
      "inputs": [],
      "name": "owner",
      "outputs": [
        {
          "internalType": "address",
          "name": "",
          "type": "address"
        }
      ],
      "stateMutability": "view",
      "type": "function"
    },
    {
      "inputs": [
        {
          "internalType": "bytes32",
          "name": "_ccy",
          "type": "bytes32"
        }
      ],
      "name": "pauseLendingMarkets",
      "outputs": [
        {
          "internalType": "bool",
          "name": "",
          "type": "bool"
        }
      ],
      "stateMutability": "nonpayable",
      "type": "function"
    },
    {
      "inputs": [
        {
          "internalType": "bool",
          "name": "_isLiquidator",
          "type": "bool"
        }
      ],
      "name": "registerLiquidator",
      "outputs": [],
      "stateMutability": "nonpayable",
      "type": "function"
    },
    {
      "inputs": [],
      "name": "renounceOwnership",
      "outputs": [],
      "stateMutability": "nonpayable",
      "type": "function"
    },
    {
      "inputs": [],
      "name": "requiredContracts",
      "outputs": [
        {
          "internalType": "bytes32[]",
          "name": "contracts",
          "type": "bytes32[]"
        }
      ],
      "stateMutability": "pure",
      "type": "function"
    },
    {
      "inputs": [],
      "name": "resolver",
      "outputs": [
        {
          "internalType": "contract IAddressResolver",
          "name": "",
          "type": "address"
        }
      ],
      "stateMutability": "view",
      "type": "function"
    },
    {
      "inputs": [
        {
          "internalType": "bytes32",
          "name": "_ccy",
          "type": "bytes32"
        }
      ],
      "name": "rotateLendingMarkets",
      "outputs": [],
      "stateMutability": "nonpayable",
      "type": "function"
    },
    {
      "inputs": [
        {
          "internalType": "address",
          "name": "newOwner",
          "type": "address"
        }
      ],
      "name": "transferOwnership",
      "outputs": [],
      "stateMutability": "nonpayable",
      "type": "function"
    },
    {
      "inputs": [
        {
          "internalType": "bytes32",
          "name": "_ccy",
          "type": "bytes32"
        }
      ],
      "name": "unpauseLendingMarkets",
      "outputs": [
        {
          "internalType": "bool",
          "name": "",
          "type": "bool"
        }
      ],
      "stateMutability": "nonpayable",
      "type": "function"
    },
    {
      "inputs": [
        {
          "internalType": "bytes32",
          "name": "_ccy",
          "type": "bytes32"
        },
        {
          "internalType": "uint256",
          "name": "_orderFeeRate",
          "type": "uint256"
        }
      ],
      "name": "updateOrderFeeRate",
      "outputs": [],
      "stateMutability": "nonpayable",
      "type": "function"
    }
  ],
  "transactionHash": "0x5d4e05e9ae025ee0dd979aae3a6f68677de5f3e5da2aef1297a439b6079a03f5",
  "args": [],
  "numDeployments": 4,
  "solcInputHash": "c219ed6b9dbfbd1676a0dacd801eed49",
  "bytecode": "0x608060405234801561001057600080fd5b50600160005561598d80620000266000396000f3fe6080604052600436106102675760003560e01c806385323e1a11610144578063b3cb8450116100b6578063e99d05381161007a578063e99d0538146107f2578063eb092a2614610812578063f2fde38b14610832578063faca409b14610852578063fb54a6b314610872578063fc7008101461089257600080fd5b8063b3cb84501461075d578063bfd10cf61461077d578063e09976591461079d578063e906c100146107b2578063e95dc183146107d257600080fd5b80638da5cb5b116101085780638da5cb5b14610688578063953dbcaa1461069d5780639d3fc35d146106bd578063a02be3dc146106dd578063a441bfe5146106fd578063a963ad7f1461071d57600080fd5b806385323e1a146105e8578063870cf8ab14610608578063891d5965146106285780638a981745146106485780638b36d8331461066857600080fd5b8063381ada1f116101dd578063529a356f116101a1578063529a356f146104d657806355aceb4e146104f65780635c347765146105235780635ca65d5714610578578063715018a61461059857806373bb3b09146105ad57600080fd5b8063381ada1f146104345780633d03b9da14610461578063448255c714610483578063485cc9551461049657806349f2ccbf146104b657600080fd5b8063223652611161022f5780632236526114610378578063268bb279146103a857806329985e5a146103ca5780632af64bd3146103df5780632e6c5e67146103f45780632e77aea71461041457600080fd5b80630312b5281461026c57806303e5fb59146102ce57806304f3bcec146102fc5780630594de6e1461032957806317b72ff414610358575b600080fd5b34801561027857600080fd5b5061028c610287366004614d97565b6108b2565b604080519889526020890197909752958701949094526060860192909252608085015260a084015260c0830152151560e0820152610100015b60405180910390f35b3480156102da57600080fd5b506102ee6102e9366004614dcc565b610967565b6040519081526020016102c5565b34801561030857600080fd5b50610311610985565b6040516001600160a01b0390911681526020016102c5565b34801561033557600080fd5b50610349610344366004614de5565b6109a6565b6040516102c593929190614e4c565b34801561036457600080fd5b506102ee610373366004614e8f565b610a65565b34801561038457600080fd5b50610398610393366004614ebf565b610b03565b60405190151581526020016102c5565b3480156103b457600080fd5b506103c86103c3366004614f2b565b610d81565b005b3480156103d657600080fd5b506103c8610d9c565b3480156103eb57600080fd5b50610398610f49565b34801561040057600080fd5b5061039861040f366004614dcc565b6110af565b34801561042057600080fd5b506102ee61042f366004614f4f565b6110cf565b34801561044057600080fd5b5061045461044f366004614dcc565b611174565b6040516102c59190614f88565b34801561046d57600080fd5b506104766111e9565b6040516102c59190614fd5565b61039861049136600461501a565b61130b565b3480156104a257600080fd5b506103c86104b1366004615063565b611417565b3480156104c257600080fd5b506103986104d1366004615091565b61159a565b3480156104e257600080fd5b506103986104f13660046150ca565b611734565b34801561050257600080fd5b50610516610511366004614dcc565b61173f565b6040516102c591906150e7565b34801561052f57600080fd5b5061054361053e366004614e8f565b6118a7565b604080519788526020880196909652948601939093526060850191909152608084015260a083015260c082015260e0016102c5565b34801561058457600080fd5b506103c86105933660046150fa565b611992565b3480156105a457600080fd5b506103c86119cb565b3480156105b957600080fd5b506105cd6105c8366004614e8f565b611a06565b604080519384526020840192909252908201526060016102c5565b3480156105f457600080fd5b506103116106033660046150fa565b611aad565b34801561061457600080fd5b506103c86106233660046150ca565b611b0f565b34801561063457600080fd5b506102ee610643366004614dcc565b611b6e565b34801561065457600080fd5b506103116106633660046150fa565b611b8c565b34801561067457600080fd5b506103c8610683366004614dcc565b611bbe565b34801561069457600080fd5b506103116121a1565b3480156106a957600080fd5b506103496106b8366004614de5565b6121c9565b3480156106c957600080fd5b506105cd6106d8366004614e8f565b612228565b3480156106e957600080fd5b506105166106f8366004614dcc565b612276565b34801561070957600080fd5b506103c861071836600461511c565b6123d7565b34801561072957600080fd5b5061073d610738366004614dcc565b612558565b604080516001600160a01b039384168152929091166020830152016102c5565b34801561076957600080fd5b50610398610778366004614dcc565b612ab3565b34801561078957600080fd5b50610516610798366004614dcc565b612bb1565b3480156107a957600080fd5b50610476612d12565b3480156107be57600080fd5b506102ee6107cd366004614f4f565b612d55565b3480156107de57600080fd5b506102ee6107ed366004614e8f565b612da6565b3480156107fe57600080fd5b5061039861080d366004614dcc565b612f6a565b34801561081e57600080fd5b5061051661082d366004614dcc565b61305f565b34801561083e57600080fd5b506103c861084d3660046150ca565b6131c0565b34801561085e57600080fd5b5061039861086d36600461501a565b61325d565b34801561087e57600080fd5b506102ee61088d3660046150ca565b6132ea565b34801561089e57600080fd5b506104766108ad3660046150ca565b61347b565b600080600080600080600080738f71902672e690218faDF25B15f9dA5Fe174cE67630312b5288c8c8c6040518463ffffffff1660e01b81526004016108f99392919061514e565b6101006040518083038186803b15801561091257600080fd5b505af4158015610926573d6000803e3d6000fd5b505050506040513d601f19601f8201168201806040525081019061094a919061516f565b975097509750975097509750975097509397509397509397509397565b60006109716134a9565b600092835260060160205250604090205490565b60006000805160206159388339815191525b546001600160a01b0316919050565b606080606060006109b56134a9565b600088815260029190910160209081526040808320898452909152908190205490516325fb168b60e11b8152600481018790526001600160a01b0390911691508190634bf62d16906024015b60006040518083038186803b158015610a1957600080fd5b505afa158015610a2d573d6000803e3d6000fd5b505050506040513d6000823e601f3d908101601f19168201604052610a55919081019061528a565b9350935093505093509350939050565b6040516385f3396760e01b8152600481018390526001600160a01b0382166024820152600090738f71902672e690218faDF25B15f9dA5Fe174cE67906385f339679060440160206040518083038186803b158015610ac257600080fd5b505af4158015610ad6573d6000803e3d6000fd5b505050506040513d601f19601f82011682018060405250810190610afa9190615312565b90505b92915050565b600060026000541415610b315760405162461bcd60e51b8152600401610b289061532b565b60405180910390fd5b6002600090815585908590610b446134a9565b6000848152600291909101602090815260408083208584529091529020546001600160a01b03161415610b895760405162461bcd60e51b8152600401610b2890615362565b333b15610bcd5760405162461bcd60e51b815260206004820152601260248201527143616c6c6572206d75737420626520454f4160701b6044820152606401610b28565b610bd6336134cd565b610c195760405162461bcd60e51b815260206004820152601460248201527343616c6c6572206973206e6f742061637469766560601b6044820152606401610b28565b610c238786612da6565b50604051639c599f8b60e01b81523360048201526001600160a01b038616602482015260448101899052606481018890526084810187905262ffffff851660a48201526000908190738f71902672e690218faDF25B15f9dA5Fe174cE6790639c599f8b9060c401604080518083038186803b158015610ca157600080fd5b505af4158015610cb5573d6000803e3d6000fd5b505050506040513d601f19601f82011682018060405250810190610cd9919061538c565b9092509050808215610d09576000610cf98b8b8b6000886000600161350a565b9050610d0581836153c6565b9150505b8015610d6a57888a896001600160a01b03167f2aa75186e5dc6215fe9b34c1bbcf001827defa52de1574957eb71fbf5c920b8a8e85604051610d55929190918252602082015260400190565b60405180910390a4610d688a8a8a613890565b505b600195505050505050600160005595945050505050565b8015610d9357610d9033613c37565b50565b610d9033613c66565b6000610da66111e9565b905060005b8151811015610f45576000828281518110610dc857610dc86153de565b602002602001015190506000610de960008051602061593883398151915290565b54604080517f5265736f6c766572206d697373696e67207461726765743a200000000000000060208201526039808201869052825180830390910181526059820192839052636795dbcd60e01b9092526001600160a01b0390921691636795dbcd91610e5a91869190605d01615441565b60206040518083038186803b158015610e7257600080fd5b505afa158015610e86573d6000803e3d6000fd5b505050506040513d601f19601f82011682018060405250810190610eaa919061545a565b60008381527f4abde63c3e81aefa5764b017968bc473e83e093d7e1a10247d19e0a3e4124019602090815260409182902080546001600160a01b0319166001600160a01b03851690811790915582518681529182015281519293507f88a93678a3692f6789d9546fc621bf7234b101ddb7d4fe479455112831b8aa68929081900390910190a150508080610f3d90615477565b915050610dab565b5050565b600080610f546111e9565b905060005b81518110156110a6576000828281518110610f7657610f766153de565b60200260200101519050610f9560008051602061593883398151915290565b600082815260019190910160205260409020546001600160a01b0316600080516020615938833981519152546040516321f8a72160e01b8152600481018490526001600160a01b03909116906321f8a7219060240160206040518083038186803b15801561100257600080fd5b505afa158015611016573d6000803e3d6000fd5b505050506040513d601f19601f8201168201806040525081019061103a919061545a565b6001600160a01b0316141580611084575060008181527f4abde63c3e81aefa5764b017968bc473e83e093d7e1a10247d19e0a3e412401960205260409020546001600160a01b0316155b15611093576000935050505090565b508061109e81615477565b915050610f59565b50600191505090565b60006110b96134a9565b6000928352600301602052506040902054151590565b6040516371eb435360e01b815260048101849052602481018390526001600160a01b0382166044820152600090738f71902672e690218faDF25B15f9dA5Fe174cE67906371eb4353906064015b60206040518083038186803b15801561113457600080fd5b505af4158015611148573d6000803e3d6000fd5b505050506040513d601f19601f8201168201806040525081019061116c9190615312565b949350505050565b606061117e6134a9565b60008381526020918252604090819020805482518185028101850190935280835291929091908301828280156111dd57602002820191906000526020600020905b81546001600160a01b031681526001909101906020018083116111bf575b50505050509050919050565b60408051600580825260c082019092526060916020820160a080368337019050509050742132b0b1b7b7283937bc3ca1b7b73a3937b63632b960591b81600081518110611238576112386153de565b6020026020010181815250507121bab93932b731bca1b7b73a3937b63632b960711b8160018151811061126d5761126d6153de565b6020026020010181815250507011d95b995cda5cd5985b1d5955985d5b1d607a1b816002815181106112a1576112a16153de565b6020026020010181815250506a14995cd95c9d99519d5b9960aa1b816003815181106112cf576112cf6153de565b60200260200101818152505069151bdad95b95985d5b1d60b21b816004815181106112fc576112fc6153de565b60200260200101818152505090565b6000600260005414156113305760405162461bcd60e51b8152600401610b289061532b565b60026000908155869086906113436134a9565b6000848152600291909101602090815260408083208584529091529020546001600160a01b031614156113885760405162461bcd60e51b8152600401610b2890615362565b611390613c7c565b6001600160a01b03166396994e3734338b896040518563ffffffff1660e01b81526004016113c09392919061514e565b6000604051808303818588803b1580156113d957600080fd5b505af11580156113ed573d6000803e3d6000fd5b5050505050611402888833898989600061350a565b50600192505050600160005595945050505050565b600154610100900460ff161580801561143457506001805460ff16105b8061144d5750303b15801561144d57506001805460ff16145b6114b05760405162461bcd60e51b815260206004820152602e60248201527f496e697469616c697a61626c653a20636f6e747261637420697320616c72656160448201526d191e481a5b9a5d1a585b1a5e995960921b6064820152608401610b28565b6001805460ff19168117905580156114d2576001805461ff0019166101001790555b60006114dc613c8b565b6001600160a01b0316141561153e5760405162461bcd60e51b815260206004820152602260248201527f4d7573742062652063616c6c65642066726f6d2070726f787920636f6e74726160448201526118dd60f21b6064820152608401610b28565b61154783613cb3565b61155082613d24565b8015611595576001805461ff00191681556040519081527f7f26b83ff96e1f2b6a682f133852f6798a09c465da95921460cefb38474024989060200160405180910390a15b505050565b6000600260005414156115bf5760405162461bcd60e51b8152600401610b289061532b565b60026000908155849084906115d26134a9565b6000848152600291909101602090815260408083208584529091529020546001600160a01b031614156116175760405162461bcd60e51b8152600401610b2890615362565b60006116216134a9565b60008881526002919091016020908152604080832089845290915280822054905163504b89bd60e01b815233600482015265ffffffffffff881660248201526001600160a01b03909116925081908190849063504b89bd90604401606060405180830381600087803b15801561169657600080fd5b505af11580156116aa573d6000803e3d6000fd5b505050506040513d601f19601f820116820180604052508101906116ce9190615492565b92509250925089336001600160a01b03167f882188071c39e32cd4ffd0cef7a006a29eaae9e4018d72cef313a0f4686cdb918a868d8787604051611716959493929190615501565b60405180910390a36001965050505050505060016000559392505050565b6000610afd82613db9565b6060600061174b6134a9565b6000848152602091909152604090205467ffffffffffffffff811115611773576117736151d9565b60405190808252806020026020018201604052801561179c578160200160208202803683370190505b50905060005b6117aa6134a9565b600085815260209190915260409020548110156118a05760006117cb6134a9565b6000868152602091909152604090208054839081106117ec576117ec6153de565b6000918252602091829020015460408051631b3508b760e01b815290516001600160a01b0390921693508392631b3508b792600480840193829003018186803b15801561183857600080fd5b505afa15801561184c573d6000803e3d6000fd5b505050506040513d601f19601f820116820180604052508101906118709190615312565b838381518110611882576118826153de565b6020908102919091010152508061189881615477565b9150506117a2565b5092915050565b60008060008060008060006118e0896118be6134a9565b6001600160a01b038b1660009081526004919091016020526040902090613de3565b1561198657604051635c34776560e01b8152600481018a90526001600160a01b0389166024820152738f71902672e690218faDF25B15f9dA5Fe174cE6790635c3477659060440160e06040518083038186803b15801561193f57600080fd5b505af4158015611953573d6000803e3d6000fd5b505050506040513d601f19601f820116820180604052508101906119779190615539565b96509650965096509650965096505b92959891949750929550565b3361199b6121a1565b6001600160a01b0316146119c15760405162461bcd60e51b8152600401610b289061558d565b610f458282613dfb565b336119d46121a1565b6001600160a01b0316146119fa5760405162461bcd60e51b8152600401610b289061558d565b611a046000613cb3565b565b6040516373bb3b0960e01b8152600481018390526001600160a01b038216602482015260009081908190738f71902672e690218faDF25B15f9dA5Fe174cE67906373bb3b09906044015b60606040518083038186803b158015611a6857600080fd5b505af4158015611a7c573d6000803e3d6000fd5b505050506040513d601f19601f82011682018060405250810190611aa091906155c2565b9250925092509250925092565b6000611ab76134a9565b60008481526001919091016020526040812090611ad26134a9565b600095865260020160209081526040808720958752948152848620546001600160a01b039081168352908201929092529092019092205416919050565b6000611b196134a9565b6001600160a01b03831660009081526004919091016020526040812091505b611b4182613edb565b81101561159557611b5b611b558383613ee5565b84612da6565b5080611b6681615477565b915050611b38565b6000611b786134a9565b600092835260030160205250604090205490565b6000611b966134a9565b600093845260020160209081526040808520938552929052509020546001600160a01b031690565b60026000541415611be15760405162461bcd60e51b8152600401610b289061532b565b600260009081558190611bf26134a9565b6000838152602091909152604090205411611c685760405162461bcd60e51b815260206004820152603060248201527f4e6f206c656e64696e67206d61726b65747320657869737420666f722061207360448201526f706563696669632063757272656e637960801b6064820152608401610b28565b6000611c726134a9565b600084815260209190915260408120805490925082908290611c9657611c966153de565b600091825260208220015483546001600160a01b03909116925083906001908110611cc357611cc36153de565b600091825260208220015484546001600160a01b039091169250611d87908590611cef906001906155f0565b81548110611cff57611cff6153de565b600091825260209182902001546040805163e16695b560e01b815290516001600160a01b039092169263e16695b592600480840193829003018186803b158015611d4857600080fd5b505afa158015611d5c573d6000803e3d6000fd5b505050506040513d601f19601f82011682018060405250810190611d809190615312565b6003613ef1565b60405163baa2675760e01b8152600481018290529091506000906001600160a01b0385169063baa2675790602401602060405180830381600087803b158015611dcf57600080fd5b505af1158015611de3573d6000803e3d6000fd5b505050506040513d601f19601f82011682018060405250810190611e079190615312565b905060005b8554811015611eb65785546000908290611e28906001906155f0565b14611e635786611e398360016153c6565b81548110611e4957611e496153de565b6000918252602090912001546001600160a01b0316611e65565b855b905080878381548110611e7a57611e7a6153de565b600091825260209091200180546001600160a01b0319166001600160a01b03929092169190911790555080611eae81615477565b915050611e0c565b506000611ec16134a9565b6000898152600191909101602090815260408083206001600160a01b03808a168552925290912054169050611ef4613fbe565b6001600160a01b031663fb8439048984876001600160a01b031663e16695b56040518163ffffffff1660e01b815260040160206040518083038186803b158015611f3d57600080fd5b505afa158015611f51573d6000803e3d6000fd5b505050506040513d601f19601f82011682018060405250810190611f759190615312565b886001600160a01b03166371613c2d6040518163ffffffff1660e01b815260040160206040518083038186803b158015611fae57600080fd5b505afa158015611fc2573d6000803e3d6000fd5b505050506040513d601f19601f82011682018060405250810190611fe69190615312565b604051634955b91f60e11b8152600481018990526001600160a01b038816906392ab723e9060240160206040518083038186803b15801561202657600080fd5b505afa15801561203a573d6000803e3d6000fd5b505050506040513d601f19601f8201168201806040525081019061205e9190615312565b6040516001600160e01b031960e088901b1681526004810195909552602485019390935260448401919091526064830152608482015260a401600060405180830381600087803b1580156120b157600080fd5b505af11580156120c5573d6000803e3d6000fd5b50505050846120d26134a9565b60008a815260029190910160209081526040808320878452909152902080546001600160a01b0319166001600160a01b03929092169190911790556121156134a9565b60008981526002919091016020908152604080832085845282529182902080546001600160a01b031916905581518a81529081018490529081018490527f98cbd76ce00c88aafa668f8d8ee624506fdfd22fc473f74ea1b75addf544c2209060600160405180910390a1612191888461218c613fc8565b613890565b5050600160005550505050505050565b60007f9acda75aebd150dd434541a4747a6dc606f4f1a59662477e67daf1fc0bf9e0aa610997565b606080606060006121d86134a9565b6000888152600291909101602090815260408083208984529091529081902054905163d866d35560e01b8152600481018790526001600160a01b039091169150819063d866d35590602401610a01565b604051639d3fc35d60e01b8152600481018390526001600160a01b038216602482015260009081908190738f71902672e690218faDF25B15f9dA5Fe174cE6790639d3fc35d90604401611a50565b606060006122826134a9565b6000848152602091909152604090205467ffffffffffffffff8111156122aa576122aa6151d9565b6040519080825280602002602001820160405280156122d3578160200160208202803683370190505b50905060005b6122e16134a9565b600085815260209190915260409020548110156118a05760006123026134a9565b600086815260209190915260409020805483908110612323576123236153de565b600091825260209182902001546040805163e16695b560e01b815290516001600160a01b039092169350839263e16695b592600480840193829003018186803b15801561236f57600080fd5b505afa158015612383573d6000803e3d6000fd5b505050506040513d601f19601f820116820180604052508101906123a79190615312565b8383815181106123b9576123b96153de565b602090810291909101015250806123cf81615477565b9150506122d9565b336123e06121a1565b6001600160a01b0316146124065760405162461bcd60e51b8152600401610b289061558d565b600082116124565760405162461bcd60e51b815260206004820152601760248201527f496e76616c696420636f6d706f756e6420666163746f720000000000000000006044820152606401610b28565b61245f846110af565b156124a25760405162461bcd60e51b8152602060048201526013602482015272105b1c9958591e481a5b9a5d1a585b1a5e9959606a1b6044820152606401610b28565b6124aa613fbe565b6001600160a01b031663f7955b45856028856124c7886003613ef1565b6040516001600160e01b031960e087901b168152600481019490945260ff909216602484015260448301526064820152608401600060405180830381600087803b15801561251457600080fd5b505af1158015612528573d6000803e3d6000fd5b50505050826125356134a9565b600086815260039190910160205260409020556125528482613dfb565b50505050565b600080336125646121a1565b6001600160a01b03161461258a5760405162461bcd60e51b8152600401610b289061558d565b612592613fbe565b6001600160a01b031663f7b637bb846040518263ffffffff1660e01b81526004016125bf91815260200190565b60206040518083038186803b1580156125d757600080fd5b505afa1580156125eb573d6000803e3d6000fd5b505050506040513d601f19601f8201168201806040525081019061260f9190615607565b61267a5760405162461bcd60e51b815260206004820152603660248201527f4c656e64696e67206d61726b6574206861736e2774206265656e20696e697469604482015275616c697a656420696e207468652063757272656e637960501b6064820152608401610b28565b612682613fd2565b6001600160a01b0316631eae0893846040518263ffffffff1660e01b81526004016126af91815260200190565b60206040518083038186803b1580156126c757600080fd5b505afa1580156126db573d6000803e3d6000fd5b505050506040513d601f19601f820116820180604052508101906126ff9190615607565b6127445760405162461bcd60e51b81526020600482015260166024820152754e6f6e20737570706f727465642063757272656e637960501b6044820152606401610b28565b600061274e6134a9565b60008581526003919091016020526040812054915061276b6134a9565b600086815260209190915260409020541115612850576127896134a9565b60008581526020919091526040902060016127a26134a9565b600087815260209190915260409020546127bc91906155f0565b815481106127cc576127cc6153de565b600091825260209182902001546040805163e16695b560e01b815290516001600160a01b039092169263e16695b592600480840193829003018186803b15801561281557600080fd5b505afa158015612829573d6000803e3d6000fd5b505050506040513d601f19601f8201168201806040525081019061284d9190615312565b90505b600061285d826003613ef1565b9050612867613fdc565b6001600160a01b0316634672758f8661287e6134a9565b60008981526003919091016020526040908190205490516001600160e01b031960e085901b1681526004810192909252602482015260448101849052606401602060405180830381600087803b1580156128d757600080fd5b505af11580156128eb573d6000803e3d6000fd5b505050506040513d601f19601f8201168201806040525081019061290f919061545a565b9350612919613fdc565b6001600160a01b031663a97c4b536040518163ffffffff1660e01b8152600401602060405180830381600087803b15801561295357600080fd5b505af1158015612967573d6000803e3d6000fd5b505050506040513d601f19601f8201168201806040525081019061298b919061545a565b92506129956134a9565b600086815260209182526040812080546001810182559082529190200180546001600160a01b0319166001600160a01b038616179055836129d46134a9565b600087815260029190910160209081526040808320858452909152902080546001600160a01b0319166001600160a01b039290921691909117905582612a186134a9565b6000878152600191909101602090815260408083206001600160a01b0389811680865291909352922080546001600160a01b0319169390911692909217909155857f5f1af77fb16a8d70e13dc1d6eef0f7b3f37103d1bfc348e1e57469c71864654385612a836134a9565b60008a8152602091909152604090819020549051612aa4929190879061514e565b60405180910390a35050915091565b600033612abe6121a1565b6001600160a01b031614612ae45760405162461bcd60e51b8152600401610b289061558d565b60005b612aef6134a9565b60008481526020919091526040902054811015612ba8576000612b106134a9565b600085815260209190915260409020805483908110612b3157612b316153de565b60009182526020822001546040805163280dce3760e21b815290516001600160a01b039092169350839263a03738dc9260048084019382900301818387803b158015612b7c57600080fd5b505af1158015612b90573d6000803e3d6000fd5b50505050508080612ba090615477565b915050612ae7565b50600192915050565b60606000612bbd6134a9565b6000848152602091909152604090205467ffffffffffffffff811115612be557612be56151d9565b604051908082528060200260200182016040528015612c0e578160200160208202803683370190505b50905060005b612c1c6134a9565b600085815260209190915260409020548110156118a0576000612c3d6134a9565b600086815260209190915260409020805483908110612c5e57612c5e6153de565b60009182526020918290200154604080516371613c2d60e01b815290516001600160a01b03909216935083926371613c2d92600480840193829003018186803b158015612caa57600080fd5b505afa158015612cbe573d6000803e3d6000fd5b505050506040513d601f19601f82011682018060405250810190612ce29190615312565b838381518110612cf457612cf46153de565b60209081029190910101525080612d0a81615477565b915050612c14565b6040805160018082528183019092526060916020808301908036833701905050905069151bdad95b95985d5b1d60b21b816000815181106112fc576112fc6153de565b604051637dfeb45160e01b815260048101849052602481018390526001600160a01b0382166044820152600090738f71902672e690218faDF25B15f9dA5Fe174cE6790637dfeb4519060640161111c565b600080612db16134a9565b6001600160a01b0384166000908152600491909101602052604090209050612dd98185613de3565b612de7576000915050610afd565b600080612df386612276565b905060005b8151811015612e8c576000612e2788848481518110612e1957612e196153de565b602002602001015189613890565b9050600080612e508a868681518110612e4257612e426153de565b60200260200101518b613fe6565b9092509050612e5f82896153c6565b975082151580612e6c5750805b15612e7657600195505b5050508080612e8490615477565b915050612df8565b5083158015612e99575081155b8015612f2c5750612ea8613fbe565b60405163386320d360e11b8152600481018890526001600160a01b03878116602483015291909116906370c641a69060440160206040518083038186803b158015612ef257600080fd5b505afa158015612f06573d6000803e3d6000fd5b505050506040513d601f19601f82011682018060405250810190612f2a9190615312565b155b15612f6157612f5f86612f3d6134a9565b6001600160a01b0388166000908152600491909101602052604090209061437e565b505b50505092915050565b600033612f756121a1565b6001600160a01b031614612f9b5760405162461bcd60e51b8152600401610b289061558d565b60005b612fa66134a9565b60008481526020919091526040902054811015612ba8576000612fc76134a9565b600085815260209190915260409020805483908110612fe857612fe86153de565b600091825260208220015460408051630b0863e760e11b815290516001600160a01b0390921693508392631610c7ce9260048084019382900301818387803b15801561303357600080fd5b505af1158015613047573d6000803e3d6000fd5b5050505050808061305790615477565b915050612f9e565b6060600061306b6134a9565b6000848152602091909152604090205467ffffffffffffffff811115613093576130936151d9565b6040519080825280602002602001820160405280156130bc578160200160208202803683370190505b50905060005b6130ca6134a9565b600085815260209190915260409020548110156118a05760006130eb6134a9565b60008681526020919091526040902080548390811061310c5761310c6153de565b6000918252602091829020015460408051632f05aa6d60e11b815290516001600160a01b0390921693508392635e0b54da92600480840193829003018186803b15801561315857600080fd5b505afa15801561316c573d6000803e3d6000fd5b505050506040513d601f19601f820116820180604052508101906131909190615312565b8383815181106131a2576131a26153de565b602090810291909101015250806131b881615477565b9150506130c2565b336131c96121a1565b6001600160a01b0316146131ef5760405162461bcd60e51b8152600401610b289061558d565b6001600160a01b0381166132545760405162461bcd60e51b815260206004820152602660248201527f4f776e61626c653a206e6577206f776e657220697320746865207a65726f206160448201526564647265737360d01b6064820152608401610b28565b610d9081613cb3565b6000600260005414156132825760405162461bcd60e51b8152600401610b289061532b565b60026000908155869086906132956134a9565b6000848152600291909101602090815260408083208584529091529020546001600160a01b031614156132da5760405162461bcd60e51b8152600401610b2890615362565b611402888833898989600061350a565b6000806132f56134a9565b6001600160a01b03841660009081526004919091016020526040812091505b61331d82613edb565b8110156134745760006133308383613ee5565b6040516385f3396760e01b8152600481018290526001600160a01b0387166024820152909150600090738f71902672e690218faDF25B15f9dA5Fe174cE67906385f339679060440160206040518083038186803b15801561339057600080fd5b505af41580156133a4573d6000803e3d6000fd5b505050506040513d601f19601f820116820180604052508101906133c89190615312565b90506133d2613fd2565b6040516303a0a22f60e41b815260048101849052602481018390526001600160a01b039190911690633a0a22f09060440160206040518083038186803b15801561341b57600080fd5b505afa15801561342f573d6000803e3d6000fd5b505050506040513d601f19601f820116820180604052508101906134539190615312565b61345d9086615624565b94505050808061346c90615477565b915050613314565b5050919050565b6060610afd6134886134a9565b6001600160a01b03841660009081526004919091016020526040902061438a565b7f8041b8421ebd495cc61f38c788c9eb100daccf9bd36aa0bb920b7a15b2e0496590565b60006134d882613db9565b8015610afd5750506001600160a01b031660009081526000805160206159188339815191526020526040902054431190565b600080841161354c5760405162461bcd60e51b815260206004820152600e60248201526d125b9d985b1a5908185b5bdd5b9d60921b6044820152606401610b28565b60006135588988612da6565b90508261362c57613567613c7c565b6001600160a01b03166328ff7a42888b888a6040518563ffffffff1660e01b81526004016135989493929190615665565b60206040518083038186803b1580156135b057600080fd5b505afa1580156135c4573d6000803e3d6000fd5b505050506040513d601f19601f820116820180604052508101906135e89190615607565b61362c5760405162461bcd60e51b8152602060048201526015602482015274139bdd08195b9bdd59da0818dbdb1b185d195c985b605a1b6044820152606401610b28565b6000806136376134a9565b60008c8152600291909101602090815260408083208d845290915290819020549051633352870560e21b81526001600160a01b039091169063cd4a1c149061368b908b908d908c908c908c90600401615699565b6040805180830381600087803b1580156136a457600080fd5b505af11580156136b8573d6000803e3d6000fd5b505050506040513d601f19601f820116820180604052508101906136dc919061538c565b90925090506136eb81886155f0565b93506000856137f2578215806137015750600082115b15613714576137116001856153c6565b93505b601484111561375e5760405162461bcd60e51b8152602060048201526016602482015275546f6f206d616e7920616374697665206f726465727360501b6044820152606401610b28565b60405163117429c760e31b8152600481018d905260248101849052604481018c9052738f71902672e690218faDF25B15f9dA5Fe174cE6790638ba14e389060640160206040518083038186803b1580156137b757600080fd5b505af41580156137cb573d6000803e3d6000fd5b505050506040513d601f19601f820116820180604052508101906137ef9190615312565b90505b8215613852576138078c8c8c8c878a87614395565b508a8c8b6001600160a01b03167f5af4e2baa5d844d0439bc0122be7cf9d47b6680937eaabce58bd1ca2f16486ae8c898c8960405161384994939291906156d5565b60405180910390a45b6138808c61385e6134a9565b6001600160a01b038d16600090815260049190910160205260409020906146c2565b5050505050979650505050505050565b60008061389b6134a9565b600086815260019190910160205260408120906138b66134a9565b6000888152600291909101602090815260408083208984528252808320546001600160a01b03908116855291840194909452918301812054925163ae100e6d60e01b815286831660048201526024810188905292909116925090819081908190859063ae100e6d90604401608060405180830381600087803b15801561393b57600080fd5b505af115801561394f573d6000803e3d6000fd5b505050506040513d601f19601f8201168201806040525081019061397391906156fe565b935093509350935083600014613c2a578015613b8e576000613993613fbe565b604051630d39466760e01b8152600481018c9052602481018590526001600160a01b039190911690630d3946679060440160206040518083038186803b1580156139dc57600080fd5b505afa1580156139f0573d6000803e3d6000fd5b505050506040513d601f19601f82011682018060405250810190613a149190615312565b905060008112613ad157613a26613fbe565b6001600160a01b03166398e96ac98b8a86613a40866146ce565b6040516001600160e01b031960e087901b16815260048101949094526001600160a01b03909216602484015260448301526064820152608401602060405180830381600087803b158015613a9357600080fd5b505af1158015613aa7573d6000803e3d6000fd5b505050506040513d601f19601f82011682018060405250810190613acb9190615607565b50613b88565b613ad9613fbe565b6001600160a01b031663fe99d1b78b8a86613afb613af68761573f565b6146ce565b6040516001600160e01b031960e087901b16815260048101949094526001600160a01b03909216602484015260448301526064820152608401602060405180830381600087803b158015613b4e57600080fd5b505af1158015613b62573d6000803e3d6000fd5b505050506040513d601f19601f82011682018060405250810190613b869190615607565b505b50613c2a565b613b96613fbe565b60405163227c994560e21b8152600481018b90526001600160a01b038981166024830152604482018590526064820187905291909116906389f2651490608401602060405180830381600087803b158015613bf057600080fd5b505af1158015613c04573d6000803e3d6000fd5b505050506040513d601f19601f82011682018060405250810190613c289190615607565b505b5090979650505050505050565b436000805160206159188339815191525b6001600160a01b039092166000908152602092909252604090912055565b6000600080516020615918833981519152613c48565b6000613c86614724565b905090565b60007f360894a13ba1a3210667c828492db98dca3e2076cc3735a920a3ca505d382bbc610997565b7f9acda75aebd150dd434541a4747a6dc606f4f1a59662477e67daf1fc0bf9e0aa80546001600160a01b038381166001600160a01b0319831681179093556040519116919082907f8be0079c531659141344cd1fd0a4f28419497f9722a3daafe3b4186f6b6457e090600090a35050565b600080516020615938833981519152546001600160a01b031615613d8a5760405162461bcd60e51b815260206004820152601b60248201527f7265736f6c766572207265676973746572656420616c726561647900000000006044820152606401610b28565b60008051602061593883398151915280546001600160a01b0319166001600160a01b0392909216919091179055565b6001600160a01b031660009081526000805160206159188339815191526020526040902054151590565b60008181526001830160205260408120541515610afa565b612710811115613e465760405162461bcd60e51b8152602060048201526016602482015275496e76616c6964206f7264657220666565207261746560501b6044820152606401610b28565b613e4e6134a9565b600083815260069190910160205260409020548114610f45577fd60c3987baf02124244ef3b12a1cb06f14ca43bd4e9d810e68eb7b3c5e1cef70613e906134a9565b600084815260069190910160209081526040918290205482519081529081018490520160405180910390a180613ec46134a9565b600084815260069190910160205260409020555050565b6000610afd825490565b6000610afa838361473c565b6000808080613f0b613f066201518088615772565b614766565b91945092509050613f1c85836153c6565b9150600c613f2b6001846155f0565b613f359190615772565b613f3f90846153c6565b9250600c613f4e6001846155f0565b613f589190615786565b613f639060016153c6565b91506000613f7184846148da565b905080821115613f7f578091505b613f8c6201518088615786565b62015180613f9b868686614960565b613fa5919061579a565b613faf91906153c6565b945086851015612f5f57600080fd5b6000613c86614a9d565b6000613c86614abc565b6000613c86614ad5565b6000613c86614af5565b6000806000613ff58686611aad565b9050600080600080600080600061400a6134a9565b60008e8152600291909101602090815260408083208f845290915290819020549051630516d8c960e11b81526001600160a01b038d8116600483015290911690630a2db1929060240160e060405180830381600087803b15801561406d57600080fd5b505af1158015614081573d6000803e3d6000fd5b505050506040513d601f19601f820116820180604052508101906140a59190615539565b965096509650965096509650965081831115614132576140c3613c7c565b6001600160a01b031663fb7bd3b48c8f6140dd86886155f0565b6040518463ffffffff1660e01b81526004016140fb9392919061514e565b600060405180830381600087803b15801561411557600080fd5b505af1158015614129573d6000803e3d6000fd5b505050506141ad565b818310156141ad57614142613c7c565b6001600160a01b0316634ba0c9b58c8f61415c87876155f0565b6040518463ffffffff1660e01b815260040161417a9392919061514e565b600060405180830381600087803b15801561419457600080fd5b505af11580156141a8573d6000803e3d6000fd5b505050505b841561428057604051639e8d3d5560e01b81526001600160a01b03891690639e8d3d55906141e6908e90899086906000906004016157b9565b602060405180830381600087803b15801561420057600080fd5b505af1158015614214573d6000803e3d6000fd5b505050506040513d601f19601f820116820180604052508101906142389190615607565b50808d8c6001600160a01b03167f3dd6192fffa4612e795f196dc6367cfa6494cbe70d7cff3a039ebbbc4acb262e6000896040516142779291906157e1565b60405180910390a45b8315614353576040516305b0b29360e41b81526001600160a01b03891690635b0b2930906142b9908e90889086906000906004016157b9565b602060405180830381600087803b1580156142d357600080fd5b505af11580156142e7573d6000803e3d6000fd5b505050506040513d601f19601f8201168201806040525081019061430b9190615607565b50808d8c6001600160a01b03167f3dd6192fffa4612e795f196dc6367cfa6494cbe70d7cff3a039ebbbc4acb262e60018860405161434a9291906157e1565b60405180910390a45b600061435f85876153c6565b11985061436c86886153c6565b99505050505050505050935093915050565b6000610afa8383614b18565b6060610afd82614c0b565b6000806143a06134a9565b60008a815260019190910160205260408120906143bb6134a9565b60008c8152600291909101602090815260408083208d84528252808320546001600160a01b039081168552918401949094529190920190912054169050600186600181111561440c5761440c6154c9565b14156145115761441a613c7c565b6001600160a01b0316634ba0c9b5888b876040518463ffffffff1660e01b81526004016144499392919061514e565b600060405180830381600087803b15801561446357600080fd5b505af1158015614477573d6000803e3d6000fd5b50505050806001600160a01b0316635b0b293088858861449791906153c6565b8b60016040518563ffffffff1660e01b81526004016144b994939291906157b9565b602060405180830381600087803b1580156144d357600080fd5b505af11580156144e7573d6000803e3d6000fd5b505050506040513d601f19601f8201168201806040525081019061450b9190615607565b5061460c565b614519613c7c565b6001600160a01b031663fb7bd3b4888b876040518463ffffffff1660e01b81526004016145489392919061514e565b600060405180830381600087803b15801561456257600080fd5b505af1158015614576573d6000803e3d6000fd5b50505050806001600160a01b0316639e8d3d5588858861459691906155f0565b8b60016040518563ffffffff1660e01b81526004016145b894939291906157b9565b602060405180830381600087803b1580156145d257600080fd5b505af11580156145e6573d6000803e3d6000fd5b505050506040513d601f19601f8201168201806040525081019061460a9190615607565b505b82156146b357806001600160a01b0316639e8d3d55614629613fc8565b858b60008b600181111561463f5761463f6154c9565b146040518563ffffffff1660e01b815260040161465f94939291906157b9565b602060405180830381600087803b15801561467957600080fd5b505af115801561468d573d6000803e3d6000fd5b505050506040513d601f19601f820116820180604052508101906146b19190615607565b505b50600198975050505050505050565b6000610afa8383614c66565b6000808212156147205760405162461bcd60e51b815260206004820181905260248201527f53616665436173743a2076616c7565206d75737420626520706f7369746976656044820152606401610b28565b5090565b6000613c8669151bdad95b95985d5b1d60b21b614cb5565b6000826000018281548110614753576147536153de565b9060005260206000200154905092915050565b60008080838162253d8c61477d8362010bd9615624565b6147879190615624565b9050600062023ab161479a8360046157fc565b6147a49190615881565b905060046147b58262023ab16157fc565b6147c0906003615624565b6147ca9190615881565b6147d490836158af565b9150600062164b096147e7846001615624565b6147f390610fa06157fc565b6147fd9190615881565b9050600461480d826105b56157fc565b6148179190615881565b61482190846158af565b61482c90601f615624565b9250600061098f61483e8560506157fc565b6148489190615881565b90506000605061485a8361098f6157fc565b6148649190615881565b61486e90866158af565b905061487b600b83615881565b945061488885600c6157fc565b614893836002615624565b61489d91906158af565b915084836148ac6031876158af565b6148b79060646157fc565b6148c19190615624565b6148cb9190615624565b9a919950975095505050505050565b600081600114806148eb5750816003145b806148f65750816005145b806149015750816007145b8061490c5750816008145b80614917575081600a145b80614922575081600c145b1561492f5750601f610afd565b8160021461493f5750601e610afd565b61494883614d46565b61495357601c614956565b601d5b60ff169392505050565b60006107b284101561497157600080fd5b838383600062253d8c60046064600c61498b600e886158af565b6149959190615881565b6149a188611324615624565b6149ab9190615624565b6149b59190615881565b6149c09060036157fc565b6149ca9190615881565b600c806149d8600e886158af565b6149e29190615881565b6149ed90600c6157fc565b6149f86002886158af565b614a0291906158af565b614a0e9061016f6157fc565b614a189190615881565b6004600c614a27600e896158af565b614a319190615881565b614a3d896112c0615624565b614a479190615624565b614a53906105b56157fc565b614a5d9190615881565b614a69617d4b876158af565b614a739190615624565b614a7d9190615624565b614a8791906158af565b614a9191906158af565b98975050505050505050565b6000613c867011d95b995cda5cd5985b1d5955985d5b1d607a1b614cb5565b6000613c866a14995cd95c9d99519d5b9960aa1b614cb5565b6000613c867121bab93932b731bca1b7b73a3937b63632b960711b614cb5565b6000613c86742132b0b1b7b7283937bc3ca1b7b73a3937b63632b960591b614cb5565b60008181526001830160205260408120548015614c01576000614b3c6001836155f0565b8554909150600090614b50906001906155f0565b9050818114614bb5576000866000018281548110614b7057614b706153de565b9060005260206000200154905080876000018481548110614b9357614b936153de565b6000918252602080832090910192909255918252600188019052604090208390555b8554869080614bc657614bc66158ee565b600190038181906000526020600020016000905590558560010160008681526020019081526020016000206000905560019350505050610afd565b6000915050610afd565b6060816000018054806020026020016040519081016040528092919081815260200182805480156111dd57602002820191906000526020600020905b815481526020019060010190808311614c475750505050509050919050565b6000818152600183016020526040812054614cad57508154600181810184556000848152602080822090930184905584548482528286019093526040902091909155610afd565b506000610afd565b60008181527f4abde63c3e81aefa5764b017968bc473e83e093d7e1a10247d19e0a3e41240196020908152604080832054815170026b4b9b9b4b7339030b2323932b9b99d1607d1b9381019390935260318084018690528251808503909101815260519093019091526001600160a01b031690816118a05760405162461bcd60e51b8152600401610b289190615904565b6000614d53600483615786565b158015614d695750614d66606483615786565b15155b80610afd5750614d7b61019083615786565b1592915050565b6001600160a01b0381168114610d9057600080fd5b600080600060608486031215614dac57600080fd5b8335614db781614d82565b95602085013595506040909401359392505050565b600060208284031215614dde57600080fd5b5035919050565b600080600060608486031215614dfa57600080fd5b505081359360208301359350604090920135919050565b600081518084526020808501945080840160005b83811015614e4157815187529582019590820190600101614e25565b509495945050505050565b606081526000614e5f6060830186614e11565b8281036020840152614e718186614e11565b90508281036040840152614e858185614e11565b9695505050505050565b60008060408385031215614ea257600080fd5b823591506020830135614eb481614d82565b809150509250929050565b600080600080600060a08688031215614ed757600080fd5b8535945060208601359350604086013592506060860135614ef781614d82565b9150608086013562ffffff81168114614f0f57600080fd5b809150509295509295909350565b8015158114610d9057600080fd5b600060208284031215614f3d57600080fd5b8135614f4881614f1d565b9392505050565b600080600060608486031215614f6457600080fd5b83359250602084013591506040840135614f7d81614d82565b809150509250925092565b6020808252825182820181905260009190848201906040850190845b81811015614fc95783516001600160a01b031683529284019291840191600101614fa4565b50909695505050505050565b6020808252825182820181905260009190848201906040850190845b81811015614fc957835183529284019291840191600101614ff1565b60028110610d9057600080fd5b600080600080600060a0868803121561503257600080fd5b8535945060208601359350604086013561504b8161500d565b94979396509394606081013594506080013592915050565b6000806040838503121561507657600080fd5b823561508181614d82565b91506020830135614eb481614d82565b6000806000606084860312156150a657600080fd5b8335925060208401359150604084013565ffffffffffff81168114614f7d57600080fd5b6000602082840312156150dc57600080fd5b8135614f4881614d82565b602081526000610afa6020830184614e11565b6000806040838503121561510d57600080fd5b50508035926020909101359150565b6000806000806080858703121561513257600080fd5b5050823594602084013594506040840135936060013592509050565b6001600160a01b039390931683526020830191909152604082015260600190565b600080600080600080600080610100898b03121561518c57600080fd5b885197506020890151965060408901519550606089015194506080890151935060a0890151925060c0890151915060e08901516151c881614f1d565b809150509295985092959890939650565b634e487b7160e01b600052604160045260246000fd5b600082601f83011261520057600080fd5b8151602067ffffffffffffffff8083111561521d5761521d6151d9565b8260051b604051601f19603f83011681018181108482111715615242576152426151d9565b60405293845285810183019383810192508785111561526057600080fd5b83870191505b8482101561527f57815183529183019190830190615266565b979650505050505050565b60008060006060848603121561529f57600080fd5b835167ffffffffffffffff808211156152b757600080fd5b6152c3878388016151ef565b945060208601519150808211156152d957600080fd5b6152e5878388016151ef565b935060408601519150808211156152fb57600080fd5b50615308868287016151ef565b9150509250925092565b60006020828403121561532457600080fd5b5051919050565b6020808252601f908201527f5265656e7472616e637947756172643a207265656e7472616e742063616c6c00604082015260600190565b60208082526010908201526f496e76616c6964206d6174757269747960801b604082015260600190565b6000806040838503121561539f57600080fd5b505080516020909101519092909150565b634e487b7160e01b600052601160045260246000fd5b600082198211156153d9576153d96153b0565b500190565b634e487b7160e01b600052603260045260246000fd5b6000815180845260005b8181101561541a576020818501810151868301820152016153fe565b8181111561542c576000602083870101525b50601f01601f19169290920160200192915050565b82815260406020820152600061116c60408301846153f4565b60006020828403121561546c57600080fd5b8151614f4881614d82565b600060001982141561548b5761548b6153b0565b5060010190565b6000806000606084860312156154a757600080fd5b83516154b28161500d565b602085015160409095015190969495509392505050565b634e487b7160e01b600052602160045260246000fd5b600281106154fd57634e487b7160e01b600052602160045260246000fd5b9052565b65ffffffffffff8616815260a0810161551d60208301876154df565b8460408301528360608301528260808301529695505050505050565b600080600080600080600060e0888a03121561555457600080fd5b5050855160208701516040880151606089015160808a015160a08b015160c0909b0151949c939b50919990985090965094509092509050565b6020808252818101527f4f776e61626c653a2063616c6c6572206973206e6f7420746865206f776e6572604082015260600190565b6000806000606084860312156155d757600080fd5b8351925060208401519150604084015190509250925092565b600082821015615602576156026153b0565b500390565b60006020828403121561561957600080fd5b8151614f4881614f1d565b600080821280156001600160ff1b0384900385131615615646576156466153b0565b600160ff1b839003841281161561565f5761565f6153b0565b50500190565b6001600160a01b038516815260208101849052604081018390526080810161569060608301846154df565b95945050505050565b60a081016156a782886154df565b6001600160a01b03959095166020820152604081019390935260608301919091521515608090910152919050565b608081016156e382876154df565b84602083015283604083015282606083015295945050505050565b6000806000806080858703121561571457600080fd5b845193506020850151925060408501519150606085015161573481614f1d565b939692955090935050565b6000600160ff1b821415615755576157556153b0565b5060000390565b634e487b7160e01b600052601260045260246000fd5b6000826157815761578161575c565b500490565b6000826157955761579561575c565b500690565b60008160001904831182151516156157b4576157b46153b0565b500290565b6001600160a01b03949094168452602084019290925260408301521515606082015260800190565b604081016157ef82856154df565b8260208301529392505050565b60006001600160ff1b0381841382841380821686840486111615615822576158226153b0565b600160ff1b6000871282811687830589121615615841576158416153b0565b6000871292508782058712848416161561585d5761585d6153b0565b87850587128184161615615873576158736153b0565b505050929093029392505050565b6000826158905761589061575c565b600160ff1b8214600019841416156158aa576158aa6153b0565b500590565b60008083128015600160ff1b8501841216156158cd576158cd6153b0565b6001600160ff1b03840183138116156158e8576158e86153b0565b50500390565b634e487b7160e01b600052603160045260246000fd5b602081526000610afa60208301846153f456fe19bfb841e3f2b667d170c57909e7685dd6a0cee80d36344e04905cfd7d917bd74abde63c3e81aefa5764b017968bc473e83e093d7e1a10247d19e0a3e4124018a2646970667358221220c81cd07201a3c68cb8b796a96a408eee694c288be070aaa6f528a71db8d28f1f64736f6c63430008090033",
  "deployedBytecode": "0x6080604052600436106102675760003560e01c806385323e1a11610144578063b3cb8450116100b6578063e99d05381161007a578063e99d0538146107f2578063eb092a2614610812578063f2fde38b14610832578063faca409b14610852578063fb54a6b314610872578063fc7008101461089257600080fd5b8063b3cb84501461075d578063bfd10cf61461077d578063e09976591461079d578063e906c100146107b2578063e95dc183146107d257600080fd5b80638da5cb5b116101085780638da5cb5b14610688578063953dbcaa1461069d5780639d3fc35d146106bd578063a02be3dc146106dd578063a441bfe5146106fd578063a963ad7f1461071d57600080fd5b806385323e1a146105e8578063870cf8ab14610608578063891d5965146106285780638a981745146106485780638b36d8331461066857600080fd5b8063381ada1f116101dd578063529a356f116101a1578063529a356f146104d657806355aceb4e146104f65780635c347765146105235780635ca65d5714610578578063715018a61461059857806373bb3b09146105ad57600080fd5b8063381ada1f146104345780633d03b9da14610461578063448255c714610483578063485cc9551461049657806349f2ccbf146104b657600080fd5b8063223652611161022f5780632236526114610378578063268bb279146103a857806329985e5a146103ca5780632af64bd3146103df5780632e6c5e67146103f45780632e77aea71461041457600080fd5b80630312b5281461026c57806303e5fb59146102ce57806304f3bcec146102fc5780630594de6e1461032957806317b72ff414610358575b600080fd5b34801561027857600080fd5b5061028c610287366004614d97565b6108b2565b604080519889526020890197909752958701949094526060860192909252608085015260a084015260c0830152151560e0820152610100015b60405180910390f35b3480156102da57600080fd5b506102ee6102e9366004614dcc565b610967565b6040519081526020016102c5565b34801561030857600080fd5b50610311610985565b6040516001600160a01b0390911681526020016102c5565b34801561033557600080fd5b50610349610344366004614de5565b6109a6565b6040516102c593929190614e4c565b34801561036457600080fd5b506102ee610373366004614e8f565b610a65565b34801561038457600080fd5b50610398610393366004614ebf565b610b03565b60405190151581526020016102c5565b3480156103b457600080fd5b506103c86103c3366004614f2b565b610d81565b005b3480156103d657600080fd5b506103c8610d9c565b3480156103eb57600080fd5b50610398610f49565b34801561040057600080fd5b5061039861040f366004614dcc565b6110af565b34801561042057600080fd5b506102ee61042f366004614f4f565b6110cf565b34801561044057600080fd5b5061045461044f366004614dcc565b611174565b6040516102c59190614f88565b34801561046d57600080fd5b506104766111e9565b6040516102c59190614fd5565b61039861049136600461501a565b61130b565b3480156104a257600080fd5b506103c86104b1366004615063565b611417565b3480156104c257600080fd5b506103986104d1366004615091565b61159a565b3480156104e257600080fd5b506103986104f13660046150ca565b611734565b34801561050257600080fd5b50610516610511366004614dcc565b61173f565b6040516102c591906150e7565b34801561052f57600080fd5b5061054361053e366004614e8f565b6118a7565b604080519788526020880196909652948601939093526060850191909152608084015260a083015260c082015260e0016102c5565b34801561058457600080fd5b506103c86105933660046150fa565b611992565b3480156105a457600080fd5b506103c86119cb565b3480156105b957600080fd5b506105cd6105c8366004614e8f565b611a06565b604080519384526020840192909252908201526060016102c5565b3480156105f457600080fd5b506103116106033660046150fa565b611aad565b34801561061457600080fd5b506103c86106233660046150ca565b611b0f565b34801561063457600080fd5b506102ee610643366004614dcc565b611b6e565b34801561065457600080fd5b506103116106633660046150fa565b611b8c565b34801561067457600080fd5b506103c8610683366004614dcc565b611bbe565b34801561069457600080fd5b506103116121a1565b3480156106a957600080fd5b506103496106b8366004614de5565b6121c9565b3480156106c957600080fd5b506105cd6106d8366004614e8f565b612228565b3480156106e957600080fd5b506105166106f8366004614dcc565b612276565b34801561070957600080fd5b506103c861071836600461511c565b6123d7565b34801561072957600080fd5b5061073d610738366004614dcc565b612558565b604080516001600160a01b039384168152929091166020830152016102c5565b34801561076957600080fd5b50610398610778366004614dcc565b612ab3565b34801561078957600080fd5b50610516610798366004614dcc565b612bb1565b3480156107a957600080fd5b50610476612d12565b3480156107be57600080fd5b506102ee6107cd366004614f4f565b612d55565b3480156107de57600080fd5b506102ee6107ed366004614e8f565b612da6565b3480156107fe57600080fd5b5061039861080d366004614dcc565b612f6a565b34801561081e57600080fd5b5061051661082d366004614dcc565b61305f565b34801561083e57600080fd5b506103c861084d3660046150ca565b6131c0565b34801561085e57600080fd5b5061039861086d36600461501a565b61325d565b34801561087e57600080fd5b506102ee61088d3660046150ca565b6132ea565b34801561089e57600080fd5b506104766108ad3660046150ca565b61347b565b60008060008060008060008073__$32a707a14b21b266ff1308b021b66b1151$__630312b5288c8c8c6040518463ffffffff1660e01b81526004016108f99392919061514e565b6101006040518083038186803b15801561091257600080fd5b505af4158015610926573d6000803e3d6000fd5b505050506040513d601f19601f8201168201806040525081019061094a919061516f565b975097509750975097509750975097509397509397509397509397565b60006109716134a9565b600092835260060160205250604090205490565b60006000805160206159388339815191525b546001600160a01b0316919050565b606080606060006109b56134a9565b600088815260029190910160209081526040808320898452909152908190205490516325fb168b60e11b8152600481018790526001600160a01b0390911691508190634bf62d16906024015b60006040518083038186803b158015610a1957600080fd5b505afa158015610a2d573d6000803e3d6000fd5b505050506040513d6000823e601f3d908101601f19168201604052610a55919081019061528a565b9350935093505093509350939050565b6040516385f3396760e01b8152600481018390526001600160a01b038216602482015260009073__$32a707a14b21b266ff1308b021b66b1151$__906385f339679060440160206040518083038186803b158015610ac257600080fd5b505af4158015610ad6573d6000803e3d6000fd5b505050506040513d601f19601f82011682018060405250810190610afa9190615312565b90505b92915050565b600060026000541415610b315760405162461bcd60e51b8152600401610b289061532b565b60405180910390fd5b6002600090815585908590610b446134a9565b6000848152600291909101602090815260408083208584529091529020546001600160a01b03161415610b895760405162461bcd60e51b8152600401610b2890615362565b333b15610bcd5760405162461bcd60e51b815260206004820152601260248201527143616c6c6572206d75737420626520454f4160701b6044820152606401610b28565b610bd6336134cd565b610c195760405162461bcd60e51b815260206004820152601460248201527343616c6c6572206973206e6f742061637469766560601b6044820152606401610b28565b610c238786612da6565b50604051639c599f8b60e01b81523360048201526001600160a01b038616602482015260448101899052606481018890526084810187905262ffffff851660a4820152600090819073__$32a707a14b21b266ff1308b021b66b1151$__90639c599f8b9060c401604080518083038186803b158015610ca157600080fd5b505af4158015610cb5573d6000803e3d6000fd5b505050506040513d601f19601f82011682018060405250810190610cd9919061538c565b9092509050808215610d09576000610cf98b8b8b6000886000600161350a565b9050610d0581836153c6565b9150505b8015610d6a57888a896001600160a01b03167f2aa75186e5dc6215fe9b34c1bbcf001827defa52de1574957eb71fbf5c920b8a8e85604051610d55929190918252602082015260400190565b60405180910390a4610d688a8a8a613890565b505b600195505050505050600160005595945050505050565b8015610d9357610d9033613c37565b50565b610d9033613c66565b6000610da66111e9565b905060005b8151811015610f45576000828281518110610dc857610dc86153de565b602002602001015190506000610de960008051602061593883398151915290565b54604080517f5265736f6c766572206d697373696e67207461726765743a200000000000000060208201526039808201869052825180830390910181526059820192839052636795dbcd60e01b9092526001600160a01b0390921691636795dbcd91610e5a91869190605d01615441565b60206040518083038186803b158015610e7257600080fd5b505afa158015610e86573d6000803e3d6000fd5b505050506040513d601f19601f82011682018060405250810190610eaa919061545a565b60008381527f4abde63c3e81aefa5764b017968bc473e83e093d7e1a10247d19e0a3e4124019602090815260409182902080546001600160a01b0319166001600160a01b03851690811790915582518681529182015281519293507f88a93678a3692f6789d9546fc621bf7234b101ddb7d4fe479455112831b8aa68929081900390910190a150508080610f3d90615477565b915050610dab565b5050565b600080610f546111e9565b905060005b81518110156110a6576000828281518110610f7657610f766153de565b60200260200101519050610f9560008051602061593883398151915290565b600082815260019190910160205260409020546001600160a01b0316600080516020615938833981519152546040516321f8a72160e01b8152600481018490526001600160a01b03909116906321f8a7219060240160206040518083038186803b15801561100257600080fd5b505afa158015611016573d6000803e3d6000fd5b505050506040513d601f19601f8201168201806040525081019061103a919061545a565b6001600160a01b0316141580611084575060008181527f4abde63c3e81aefa5764b017968bc473e83e093d7e1a10247d19e0a3e412401960205260409020546001600160a01b0316155b15611093576000935050505090565b508061109e81615477565b915050610f59565b50600191505090565b60006110b96134a9565b6000928352600301602052506040902054151590565b6040516371eb435360e01b815260048101849052602481018390526001600160a01b038216604482015260009073__$32a707a14b21b266ff1308b021b66b1151$__906371eb4353906064015b60206040518083038186803b15801561113457600080fd5b505af4158015611148573d6000803e3d6000fd5b505050506040513d601f19601f8201168201806040525081019061116c9190615312565b949350505050565b606061117e6134a9565b60008381526020918252604090819020805482518185028101850190935280835291929091908301828280156111dd57602002820191906000526020600020905b81546001600160a01b031681526001909101906020018083116111bf575b50505050509050919050565b60408051600580825260c082019092526060916020820160a080368337019050509050742132b0b1b7b7283937bc3ca1b7b73a3937b63632b960591b81600081518110611238576112386153de565b6020026020010181815250507121bab93932b731bca1b7b73a3937b63632b960711b8160018151811061126d5761126d6153de565b6020026020010181815250507011d95b995cda5cd5985b1d5955985d5b1d607a1b816002815181106112a1576112a16153de565b6020026020010181815250506a14995cd95c9d99519d5b9960aa1b816003815181106112cf576112cf6153de565b60200260200101818152505069151bdad95b95985d5b1d60b21b816004815181106112fc576112fc6153de565b60200260200101818152505090565b6000600260005414156113305760405162461bcd60e51b8152600401610b289061532b565b60026000908155869086906113436134a9565b6000848152600291909101602090815260408083208584529091529020546001600160a01b031614156113885760405162461bcd60e51b8152600401610b2890615362565b611390613c7c565b6001600160a01b03166396994e3734338b896040518563ffffffff1660e01b81526004016113c09392919061514e565b6000604051808303818588803b1580156113d957600080fd5b505af11580156113ed573d6000803e3d6000fd5b5050505050611402888833898989600061350a565b50600192505050600160005595945050505050565b600154610100900460ff161580801561143457506001805460ff16105b8061144d5750303b15801561144d57506001805460ff16145b6114b05760405162461bcd60e51b815260206004820152602e60248201527f496e697469616c697a61626c653a20636f6e747261637420697320616c72656160448201526d191e481a5b9a5d1a585b1a5e995960921b6064820152608401610b28565b6001805460ff19168117905580156114d2576001805461ff0019166101001790555b60006114dc613c8b565b6001600160a01b0316141561153e5760405162461bcd60e51b815260206004820152602260248201527f4d7573742062652063616c6c65642066726f6d2070726f787920636f6e74726160448201526118dd60f21b6064820152608401610b28565b61154783613cb3565b61155082613d24565b8015611595576001805461ff00191681556040519081527f7f26b83ff96e1f2b6a682f133852f6798a09c465da95921460cefb38474024989060200160405180910390a15b505050565b6000600260005414156115bf5760405162461bcd60e51b8152600401610b289061532b565b60026000908155849084906115d26134a9565b6000848152600291909101602090815260408083208584529091529020546001600160a01b031614156116175760405162461bcd60e51b8152600401610b2890615362565b60006116216134a9565b60008881526002919091016020908152604080832089845290915280822054905163504b89bd60e01b815233600482015265ffffffffffff881660248201526001600160a01b03909116925081908190849063504b89bd90604401606060405180830381600087803b15801561169657600080fd5b505af11580156116aa573d6000803e3d6000fd5b505050506040513d601f19601f820116820180604052508101906116ce9190615492565b92509250925089336001600160a01b03167f882188071c39e32cd4ffd0cef7a006a29eaae9e4018d72cef313a0f4686cdb918a868d8787604051611716959493929190615501565b60405180910390a36001965050505050505060016000559392505050565b6000610afd82613db9565b6060600061174b6134a9565b6000848152602091909152604090205467ffffffffffffffff811115611773576117736151d9565b60405190808252806020026020018201604052801561179c578160200160208202803683370190505b50905060005b6117aa6134a9565b600085815260209190915260409020548110156118a05760006117cb6134a9565b6000868152602091909152604090208054839081106117ec576117ec6153de565b6000918252602091829020015460408051631b3508b760e01b815290516001600160a01b0390921693508392631b3508b792600480840193829003018186803b15801561183857600080fd5b505afa15801561184c573d6000803e3d6000fd5b505050506040513d601f19601f820116820180604052508101906118709190615312565b838381518110611882576118826153de565b6020908102919091010152508061189881615477565b9150506117a2565b5092915050565b60008060008060008060006118e0896118be6134a9565b6001600160a01b038b1660009081526004919091016020526040902090613de3565b1561198657604051635c34776560e01b8152600481018a90526001600160a01b038916602482015273__$32a707a14b21b266ff1308b021b66b1151$__90635c3477659060440160e06040518083038186803b15801561193f57600080fd5b505af4158015611953573d6000803e3d6000fd5b505050506040513d601f19601f820116820180604052508101906119779190615539565b96509650965096509650965096505b92959891949750929550565b3361199b6121a1565b6001600160a01b0316146119c15760405162461bcd60e51b8152600401610b289061558d565b610f458282613dfb565b336119d46121a1565b6001600160a01b0316146119fa5760405162461bcd60e51b8152600401610b289061558d565b611a046000613cb3565b565b6040516373bb3b0960e01b8152600481018390526001600160a01b03821660248201526000908190819073__$32a707a14b21b266ff1308b021b66b1151$__906373bb3b09906044015b60606040518083038186803b158015611a6857600080fd5b505af4158015611a7c573d6000803e3d6000fd5b505050506040513d601f19601f82011682018060405250810190611aa091906155c2565b9250925092509250925092565b6000611ab76134a9565b60008481526001919091016020526040812090611ad26134a9565b600095865260020160209081526040808720958752948152848620546001600160a01b039081168352908201929092529092019092205416919050565b6000611b196134a9565b6001600160a01b03831660009081526004919091016020526040812091505b611b4182613edb565b81101561159557611b5b611b558383613ee5565b84612da6565b5080611b6681615477565b915050611b38565b6000611b786134a9565b600092835260030160205250604090205490565b6000611b966134a9565b600093845260020160209081526040808520938552929052509020546001600160a01b031690565b60026000541415611be15760405162461bcd60e51b8152600401610b289061532b565b600260009081558190611bf26134a9565b6000838152602091909152604090205411611c685760405162461bcd60e51b815260206004820152603060248201527f4e6f206c656e64696e67206d61726b65747320657869737420666f722061207360448201526f706563696669632063757272656e637960801b6064820152608401610b28565b6000611c726134a9565b600084815260209190915260408120805490925082908290611c9657611c966153de565b600091825260208220015483546001600160a01b03909116925083906001908110611cc357611cc36153de565b600091825260208220015484546001600160a01b039091169250611d87908590611cef906001906155f0565b81548110611cff57611cff6153de565b600091825260209182902001546040805163e16695b560e01b815290516001600160a01b039092169263e16695b592600480840193829003018186803b158015611d4857600080fd5b505afa158015611d5c573d6000803e3d6000fd5b505050506040513d601f19601f82011682018060405250810190611d809190615312565b6003613ef1565b60405163baa2675760e01b8152600481018290529091506000906001600160a01b0385169063baa2675790602401602060405180830381600087803b158015611dcf57600080fd5b505af1158015611de3573d6000803e3d6000fd5b505050506040513d601f19601f82011682018060405250810190611e079190615312565b905060005b8554811015611eb65785546000908290611e28906001906155f0565b14611e635786611e398360016153c6565b81548110611e4957611e496153de565b6000918252602090912001546001600160a01b0316611e65565b855b905080878381548110611e7a57611e7a6153de565b600091825260209091200180546001600160a01b0319166001600160a01b03929092169190911790555080611eae81615477565b915050611e0c565b506000611ec16134a9565b6000898152600191909101602090815260408083206001600160a01b03808a168552925290912054169050611ef4613fbe565b6001600160a01b031663fb8439048984876001600160a01b031663e16695b56040518163ffffffff1660e01b815260040160206040518083038186803b158015611f3d57600080fd5b505afa158015611f51573d6000803e3d6000fd5b505050506040513d601f19601f82011682018060405250810190611f759190615312565b886001600160a01b03166371613c2d6040518163ffffffff1660e01b815260040160206040518083038186803b158015611fae57600080fd5b505afa158015611fc2573d6000803e3d6000fd5b505050506040513d601f19601f82011682018060405250810190611fe69190615312565b604051634955b91f60e11b8152600481018990526001600160a01b038816906392ab723e9060240160206040518083038186803b15801561202657600080fd5b505afa15801561203a573d6000803e3d6000fd5b505050506040513d601f19601f8201168201806040525081019061205e9190615312565b6040516001600160e01b031960e088901b1681526004810195909552602485019390935260448401919091526064830152608482015260a401600060405180830381600087803b1580156120b157600080fd5b505af11580156120c5573d6000803e3d6000fd5b50505050846120d26134a9565b60008a815260029190910160209081526040808320878452909152902080546001600160a01b0319166001600160a01b03929092169190911790556121156134a9565b60008981526002919091016020908152604080832085845282529182902080546001600160a01b031916905581518a81529081018490529081018490527f98cbd76ce00c88aafa668f8d8ee624506fdfd22fc473f74ea1b75addf544c2209060600160405180910390a1612191888461218c613fc8565b613890565b5050600160005550505050505050565b60007f9acda75aebd150dd434541a4747a6dc606f4f1a59662477e67daf1fc0bf9e0aa610997565b606080606060006121d86134a9565b6000888152600291909101602090815260408083208984529091529081902054905163d866d35560e01b8152600481018790526001600160a01b039091169150819063d866d35590602401610a01565b604051639d3fc35d60e01b8152600481018390526001600160a01b03821660248201526000908190819073__$32a707a14b21b266ff1308b021b66b1151$__90639d3fc35d90604401611a50565b606060006122826134a9565b6000848152602091909152604090205467ffffffffffffffff8111156122aa576122aa6151d9565b6040519080825280602002602001820160405280156122d3578160200160208202803683370190505b50905060005b6122e16134a9565b600085815260209190915260409020548110156118a05760006123026134a9565b600086815260209190915260409020805483908110612323576123236153de565b600091825260209182902001546040805163e16695b560e01b815290516001600160a01b039092169350839263e16695b592600480840193829003018186803b15801561236f57600080fd5b505afa158015612383573d6000803e3d6000fd5b505050506040513d601f19601f820116820180604052508101906123a79190615312565b8383815181106123b9576123b96153de565b602090810291909101015250806123cf81615477565b9150506122d9565b336123e06121a1565b6001600160a01b0316146124065760405162461bcd60e51b8152600401610b289061558d565b600082116124565760405162461bcd60e51b815260206004820152601760248201527f496e76616c696420636f6d706f756e6420666163746f720000000000000000006044820152606401610b28565b61245f846110af565b156124a25760405162461bcd60e51b8152602060048201526013602482015272105b1c9958591e481a5b9a5d1a585b1a5e9959606a1b6044820152606401610b28565b6124aa613fbe565b6001600160a01b031663f7955b45856028856124c7886003613ef1565b6040516001600160e01b031960e087901b168152600481019490945260ff909216602484015260448301526064820152608401600060405180830381600087803b15801561251457600080fd5b505af1158015612528573d6000803e3d6000fd5b50505050826125356134a9565b600086815260039190910160205260409020556125528482613dfb565b50505050565b600080336125646121a1565b6001600160a01b03161461258a5760405162461bcd60e51b8152600401610b289061558d565b612592613fbe565b6001600160a01b031663f7b637bb846040518263ffffffff1660e01b81526004016125bf91815260200190565b60206040518083038186803b1580156125d757600080fd5b505afa1580156125eb573d6000803e3d6000fd5b505050506040513d601f19601f8201168201806040525081019061260f9190615607565b61267a5760405162461bcd60e51b815260206004820152603660248201527f4c656e64696e67206d61726b6574206861736e2774206265656e20696e697469604482015275616c697a656420696e207468652063757272656e637960501b6064820152608401610b28565b612682613fd2565b6001600160a01b0316631eae0893846040518263ffffffff1660e01b81526004016126af91815260200190565b60206040518083038186803b1580156126c757600080fd5b505afa1580156126db573d6000803e3d6000fd5b505050506040513d601f19601f820116820180604052508101906126ff9190615607565b6127445760405162461bcd60e51b81526020600482015260166024820152754e6f6e20737570706f727465642063757272656e637960501b6044820152606401610b28565b600061274e6134a9565b60008581526003919091016020526040812054915061276b6134a9565b600086815260209190915260409020541115612850576127896134a9565b60008581526020919091526040902060016127a26134a9565b600087815260209190915260409020546127bc91906155f0565b815481106127cc576127cc6153de565b600091825260209182902001546040805163e16695b560e01b815290516001600160a01b039092169263e16695b592600480840193829003018186803b15801561281557600080fd5b505afa158015612829573d6000803e3d6000fd5b505050506040513d601f19601f8201168201806040525081019061284d9190615312565b90505b600061285d826003613ef1565b9050612867613fdc565b6001600160a01b0316634672758f8661287e6134a9565b60008981526003919091016020526040908190205490516001600160e01b031960e085901b1681526004810192909252602482015260448101849052606401602060405180830381600087803b1580156128d757600080fd5b505af11580156128eb573d6000803e3d6000fd5b505050506040513d601f19601f8201168201806040525081019061290f919061545a565b9350612919613fdc565b6001600160a01b031663a97c4b536040518163ffffffff1660e01b8152600401602060405180830381600087803b15801561295357600080fd5b505af1158015612967573d6000803e3d6000fd5b505050506040513d601f19601f8201168201806040525081019061298b919061545a565b92506129956134a9565b600086815260209182526040812080546001810182559082529190200180546001600160a01b0319166001600160a01b038616179055836129d46134a9565b600087815260029190910160209081526040808320858452909152902080546001600160a01b0319166001600160a01b039290921691909117905582612a186134a9565b6000878152600191909101602090815260408083206001600160a01b0389811680865291909352922080546001600160a01b0319169390911692909217909155857f5f1af77fb16a8d70e13dc1d6eef0f7b3f37103d1bfc348e1e57469c71864654385612a836134a9565b60008a8152602091909152604090819020549051612aa4929190879061514e565b60405180910390a35050915091565b600033612abe6121a1565b6001600160a01b031614612ae45760405162461bcd60e51b8152600401610b289061558d565b60005b612aef6134a9565b60008481526020919091526040902054811015612ba8576000612b106134a9565b600085815260209190915260409020805483908110612b3157612b316153de565b60009182526020822001546040805163280dce3760e21b815290516001600160a01b039092169350839263a03738dc9260048084019382900301818387803b158015612b7c57600080fd5b505af1158015612b90573d6000803e3d6000fd5b50505050508080612ba090615477565b915050612ae7565b50600192915050565b60606000612bbd6134a9565b6000848152602091909152604090205467ffffffffffffffff811115612be557612be56151d9565b604051908082528060200260200182016040528015612c0e578160200160208202803683370190505b50905060005b612c1c6134a9565b600085815260209190915260409020548110156118a0576000612c3d6134a9565b600086815260209190915260409020805483908110612c5e57612c5e6153de565b60009182526020918290200154604080516371613c2d60e01b815290516001600160a01b03909216935083926371613c2d92600480840193829003018186803b158015612caa57600080fd5b505afa158015612cbe573d6000803e3d6000fd5b505050506040513d601f19601f82011682018060405250810190612ce29190615312565b838381518110612cf457612cf46153de565b60209081029190910101525080612d0a81615477565b915050612c14565b6040805160018082528183019092526060916020808301908036833701905050905069151bdad95b95985d5b1d60b21b816000815181106112fc576112fc6153de565b604051637dfeb45160e01b815260048101849052602481018390526001600160a01b038216604482015260009073__$32a707a14b21b266ff1308b021b66b1151$__90637dfeb4519060640161111c565b600080612db16134a9565b6001600160a01b0384166000908152600491909101602052604090209050612dd98185613de3565b612de7576000915050610afd565b600080612df386612276565b905060005b8151811015612e8c576000612e2788848481518110612e1957612e196153de565b602002602001015189613890565b9050600080612e508a868681518110612e4257612e426153de565b60200260200101518b613fe6565b9092509050612e5f82896153c6565b975082151580612e6c5750805b15612e7657600195505b5050508080612e8490615477565b915050612df8565b5083158015612e99575081155b8015612f2c5750612ea8613fbe565b60405163386320d360e11b8152600481018890526001600160a01b03878116602483015291909116906370c641a69060440160206040518083038186803b158015612ef257600080fd5b505afa158015612f06573d6000803e3d6000fd5b505050506040513d601f19601f82011682018060405250810190612f2a9190615312565b155b15612f6157612f5f86612f3d6134a9565b6001600160a01b0388166000908152600491909101602052604090209061437e565b505b50505092915050565b600033612f756121a1565b6001600160a01b031614612f9b5760405162461bcd60e51b8152600401610b289061558d565b60005b612fa66134a9565b60008481526020919091526040902054811015612ba8576000612fc76134a9565b600085815260209190915260409020805483908110612fe857612fe86153de565b600091825260208220015460408051630b0863e760e11b815290516001600160a01b0390921693508392631610c7ce9260048084019382900301818387803b15801561303357600080fd5b505af1158015613047573d6000803e3d6000fd5b5050505050808061305790615477565b915050612f9e565b6060600061306b6134a9565b6000848152602091909152604090205467ffffffffffffffff811115613093576130936151d9565b6040519080825280602002602001820160405280156130bc578160200160208202803683370190505b50905060005b6130ca6134a9565b600085815260209190915260409020548110156118a05760006130eb6134a9565b60008681526020919091526040902080548390811061310c5761310c6153de565b6000918252602091829020015460408051632f05aa6d60e11b815290516001600160a01b0390921693508392635e0b54da92600480840193829003018186803b15801561315857600080fd5b505afa15801561316c573d6000803e3d6000fd5b505050506040513d601f19601f820116820180604052508101906131909190615312565b8383815181106131a2576131a26153de565b602090810291909101015250806131b881615477565b9150506130c2565b336131c96121a1565b6001600160a01b0316146131ef5760405162461bcd60e51b8152600401610b289061558d565b6001600160a01b0381166132545760405162461bcd60e51b815260206004820152602660248201527f4f776e61626c653a206e6577206f776e657220697320746865207a65726f206160448201526564647265737360d01b6064820152608401610b28565b610d9081613cb3565b6000600260005414156132825760405162461bcd60e51b8152600401610b289061532b565b60026000908155869086906132956134a9565b6000848152600291909101602090815260408083208584529091529020546001600160a01b031614156132da5760405162461bcd60e51b8152600401610b2890615362565b611402888833898989600061350a565b6000806132f56134a9565b6001600160a01b03841660009081526004919091016020526040812091505b61331d82613edb565b8110156134745760006133308383613ee5565b6040516385f3396760e01b8152600481018290526001600160a01b038716602482015290915060009073__$32a707a14b21b266ff1308b021b66b1151$__906385f339679060440160206040518083038186803b15801561339057600080fd5b505af41580156133a4573d6000803e3d6000fd5b505050506040513d601f19601f820116820180604052508101906133c89190615312565b90506133d2613fd2565b6040516303a0a22f60e41b815260048101849052602481018390526001600160a01b039190911690633a0a22f09060440160206040518083038186803b15801561341b57600080fd5b505afa15801561342f573d6000803e3d6000fd5b505050506040513d601f19601f820116820180604052508101906134539190615312565b61345d9086615624565b94505050808061346c90615477565b915050613314565b5050919050565b6060610afd6134886134a9565b6001600160a01b03841660009081526004919091016020526040902061438a565b7f8041b8421ebd495cc61f38c788c9eb100daccf9bd36aa0bb920b7a15b2e0496590565b60006134d882613db9565b8015610afd5750506001600160a01b031660009081526000805160206159188339815191526020526040902054431190565b600080841161354c5760405162461bcd60e51b815260206004820152600e60248201526d125b9d985b1a5908185b5bdd5b9d60921b6044820152606401610b28565b60006135588988612da6565b90508261362c57613567613c7c565b6001600160a01b03166328ff7a42888b888a6040518563ffffffff1660e01b81526004016135989493929190615665565b60206040518083038186803b1580156135b057600080fd5b505afa1580156135c4573d6000803e3d6000fd5b505050506040513d601f19601f820116820180604052508101906135e89190615607565b61362c5760405162461bcd60e51b8152602060048201526015602482015274139bdd08195b9bdd59da0818dbdb1b185d195c985b605a1b6044820152606401610b28565b6000806136376134a9565b60008c8152600291909101602090815260408083208d845290915290819020549051633352870560e21b81526001600160a01b039091169063cd4a1c149061368b908b908d908c908c908c90600401615699565b6040805180830381600087803b1580156136a457600080fd5b505af11580156136b8573d6000803e3d6000fd5b505050506040513d601f19601f820116820180604052508101906136dc919061538c565b90925090506136eb81886155f0565b93506000856137f2578215806137015750600082115b15613714576137116001856153c6565b93505b601484111561375e5760405162461bcd60e51b8152602060048201526016602482015275546f6f206d616e7920616374697665206f726465727360501b6044820152606401610b28565b60405163117429c760e31b8152600481018d905260248101849052604481018c905273__$32a707a14b21b266ff1308b021b66b1151$__90638ba14e389060640160206040518083038186803b1580156137b757600080fd5b505af41580156137cb573d6000803e3d6000fd5b505050506040513d601f19601f820116820180604052508101906137ef9190615312565b90505b8215613852576138078c8c8c8c878a87614395565b508a8c8b6001600160a01b03167f5af4e2baa5d844d0439bc0122be7cf9d47b6680937eaabce58bd1ca2f16486ae8c898c8960405161384994939291906156d5565b60405180910390a45b6138808c61385e6134a9565b6001600160a01b038d16600090815260049190910160205260409020906146c2565b5050505050979650505050505050565b60008061389b6134a9565b600086815260019190910160205260408120906138b66134a9565b6000888152600291909101602090815260408083208984528252808320546001600160a01b03908116855291840194909452918301812054925163ae100e6d60e01b815286831660048201526024810188905292909116925090819081908190859063ae100e6d90604401608060405180830381600087803b15801561393b57600080fd5b505af115801561394f573d6000803e3d6000fd5b505050506040513d601f19601f8201168201806040525081019061397391906156fe565b935093509350935083600014613c2a578015613b8e576000613993613fbe565b604051630d39466760e01b8152600481018c9052602481018590526001600160a01b039190911690630d3946679060440160206040518083038186803b1580156139dc57600080fd5b505afa1580156139f0573d6000803e3d6000fd5b505050506040513d601f19601f82011682018060405250810190613a149190615312565b905060008112613ad157613a26613fbe565b6001600160a01b03166398e96ac98b8a86613a40866146ce565b6040516001600160e01b031960e087901b16815260048101949094526001600160a01b03909216602484015260448301526064820152608401602060405180830381600087803b158015613a9357600080fd5b505af1158015613aa7573d6000803e3d6000fd5b505050506040513d601f19601f82011682018060405250810190613acb9190615607565b50613b88565b613ad9613fbe565b6001600160a01b031663fe99d1b78b8a86613afb613af68761573f565b6146ce565b6040516001600160e01b031960e087901b16815260048101949094526001600160a01b03909216602484015260448301526064820152608401602060405180830381600087803b158015613b4e57600080fd5b505af1158015613b62573d6000803e3d6000fd5b505050506040513d601f19601f82011682018060405250810190613b869190615607565b505b50613c2a565b613b96613fbe565b60405163227c994560e21b8152600481018b90526001600160a01b038981166024830152604482018590526064820187905291909116906389f2651490608401602060405180830381600087803b158015613bf057600080fd5b505af1158015613c04573d6000803e3d6000fd5b505050506040513d601f19601f82011682018060405250810190613c289190615607565b505b5090979650505050505050565b436000805160206159188339815191525b6001600160a01b039092166000908152602092909252604090912055565b6000600080516020615918833981519152613c48565b6000613c86614724565b905090565b60007f360894a13ba1a3210667c828492db98dca3e2076cc3735a920a3ca505d382bbc610997565b7f9acda75aebd150dd434541a4747a6dc606f4f1a59662477e67daf1fc0bf9e0aa80546001600160a01b038381166001600160a01b0319831681179093556040519116919082907f8be0079c531659141344cd1fd0a4f28419497f9722a3daafe3b4186f6b6457e090600090a35050565b600080516020615938833981519152546001600160a01b031615613d8a5760405162461bcd60e51b815260206004820152601b60248201527f7265736f6c766572207265676973746572656420616c726561647900000000006044820152606401610b28565b60008051602061593883398151915280546001600160a01b0319166001600160a01b0392909216919091179055565b6001600160a01b031660009081526000805160206159188339815191526020526040902054151590565b60008181526001830160205260408120541515610afa565b612710811115613e465760405162461bcd60e51b8152602060048201526016602482015275496e76616c6964206f7264657220666565207261746560501b6044820152606401610b28565b613e4e6134a9565b600083815260069190910160205260409020548114610f45577fd60c3987baf02124244ef3b12a1cb06f14ca43bd4e9d810e68eb7b3c5e1cef70613e906134a9565b600084815260069190910160209081526040918290205482519081529081018490520160405180910390a180613ec46134a9565b600084815260069190910160205260409020555050565b6000610afd825490565b6000610afa838361473c565b6000808080613f0b613f066201518088615772565b614766565b91945092509050613f1c85836153c6565b9150600c613f2b6001846155f0565b613f359190615772565b613f3f90846153c6565b9250600c613f4e6001846155f0565b613f589190615786565b613f639060016153c6565b91506000613f7184846148da565b905080821115613f7f578091505b613f8c6201518088615786565b62015180613f9b868686614960565b613fa5919061579a565b613faf91906153c6565b945086851015612f5f57600080fd5b6000613c86614a9d565b6000613c86614abc565b6000613c86614ad5565b6000613c86614af5565b6000806000613ff58686611aad565b9050600080600080600080600061400a6134a9565b60008e8152600291909101602090815260408083208f845290915290819020549051630516d8c960e11b81526001600160a01b038d8116600483015290911690630a2db1929060240160e060405180830381600087803b15801561406d57600080fd5b505af1158015614081573d6000803e3d6000fd5b505050506040513d601f19601f820116820180604052508101906140a59190615539565b965096509650965096509650965081831115614132576140c3613c7c565b6001600160a01b031663fb7bd3b48c8f6140dd86886155f0565b6040518463ffffffff1660e01b81526004016140fb9392919061514e565b600060405180830381600087803b15801561411557600080fd5b505af1158015614129573d6000803e3d6000fd5b505050506141ad565b818310156141ad57614142613c7c565b6001600160a01b0316634ba0c9b58c8f61415c87876155f0565b6040518463ffffffff1660e01b815260040161417a9392919061514e565b600060405180830381600087803b15801561419457600080fd5b505af11580156141a8573d6000803e3d6000fd5b505050505b841561428057604051639e8d3d5560e01b81526001600160a01b03891690639e8d3d55906141e6908e90899086906000906004016157b9565b602060405180830381600087803b15801561420057600080fd5b505af1158015614214573d6000803e3d6000fd5b505050506040513d601f19601f820116820180604052508101906142389190615607565b50808d8c6001600160a01b03167f3dd6192fffa4612e795f196dc6367cfa6494cbe70d7cff3a039ebbbc4acb262e6000896040516142779291906157e1565b60405180910390a45b8315614353576040516305b0b29360e41b81526001600160a01b03891690635b0b2930906142b9908e90889086906000906004016157b9565b602060405180830381600087803b1580156142d357600080fd5b505af11580156142e7573d6000803e3d6000fd5b505050506040513d601f19601f8201168201806040525081019061430b9190615607565b50808d8c6001600160a01b03167f3dd6192fffa4612e795f196dc6367cfa6494cbe70d7cff3a039ebbbc4acb262e60018860405161434a9291906157e1565b60405180910390a45b600061435f85876153c6565b11985061436c86886153c6565b99505050505050505050935093915050565b6000610afa8383614b18565b6060610afd82614c0b565b6000806143a06134a9565b60008a815260019190910160205260408120906143bb6134a9565b60008c8152600291909101602090815260408083208d84528252808320546001600160a01b039081168552918401949094529190920190912054169050600186600181111561440c5761440c6154c9565b14156145115761441a613c7c565b6001600160a01b0316634ba0c9b5888b876040518463ffffffff1660e01b81526004016144499392919061514e565b600060405180830381600087803b15801561446357600080fd5b505af1158015614477573d6000803e3d6000fd5b50505050806001600160a01b0316635b0b293088858861449791906153c6565b8b60016040518563ffffffff1660e01b81526004016144b994939291906157b9565b602060405180830381600087803b1580156144d357600080fd5b505af11580156144e7573d6000803e3d6000fd5b505050506040513d601f19601f8201168201806040525081019061450b9190615607565b5061460c565b614519613c7c565b6001600160a01b031663fb7bd3b4888b876040518463ffffffff1660e01b81526004016145489392919061514e565b600060405180830381600087803b15801561456257600080fd5b505af1158015614576573d6000803e3d6000fd5b50505050806001600160a01b0316639e8d3d5588858861459691906155f0565b8b60016040518563ffffffff1660e01b81526004016145b894939291906157b9565b602060405180830381600087803b1580156145d257600080fd5b505af11580156145e6573d6000803e3d6000fd5b505050506040513d601f19601f8201168201806040525081019061460a9190615607565b505b82156146b357806001600160a01b0316639e8d3d55614629613fc8565b858b60008b600181111561463f5761463f6154c9565b146040518563ffffffff1660e01b815260040161465f94939291906157b9565b602060405180830381600087803b15801561467957600080fd5b505af115801561468d573d6000803e3d6000fd5b505050506040513d601f19601f820116820180604052508101906146b19190615607565b505b50600198975050505050505050565b6000610afa8383614c66565b6000808212156147205760405162461bcd60e51b815260206004820181905260248201527f53616665436173743a2076616c7565206d75737420626520706f7369746976656044820152606401610b28565b5090565b6000613c8669151bdad95b95985d5b1d60b21b614cb5565b6000826000018281548110614753576147536153de565b9060005260206000200154905092915050565b60008080838162253d8c61477d8362010bd9615624565b6147879190615624565b9050600062023ab161479a8360046157fc565b6147a49190615881565b905060046147b58262023ab16157fc565b6147c0906003615624565b6147ca9190615881565b6147d490836158af565b9150600062164b096147e7846001615624565b6147f390610fa06157fc565b6147fd9190615881565b9050600461480d826105b56157fc565b6148179190615881565b61482190846158af565b61482c90601f615624565b9250600061098f61483e8560506157fc565b6148489190615881565b90506000605061485a8361098f6157fc565b6148649190615881565b61486e90866158af565b905061487b600b83615881565b945061488885600c6157fc565b614893836002615624565b61489d91906158af565b915084836148ac6031876158af565b6148b79060646157fc565b6148c19190615624565b6148cb9190615624565b9a919950975095505050505050565b600081600114806148eb5750816003145b806148f65750816005145b806149015750816007145b8061490c5750816008145b80614917575081600a145b80614922575081600c145b1561492f5750601f610afd565b8160021461493f5750601e610afd565b61494883614d46565b61495357601c614956565b601d5b60ff169392505050565b60006107b284101561497157600080fd5b838383600062253d8c60046064600c61498b600e886158af565b6149959190615881565b6149a188611324615624565b6149ab9190615624565b6149b59190615881565b6149c09060036157fc565b6149ca9190615881565b600c806149d8600e886158af565b6149e29190615881565b6149ed90600c6157fc565b6149f86002886158af565b614a0291906158af565b614a0e9061016f6157fc565b614a189190615881565b6004600c614a27600e896158af565b614a319190615881565b614a3d896112c0615624565b614a479190615624565b614a53906105b56157fc565b614a5d9190615881565b614a69617d4b876158af565b614a739190615624565b614a7d9190615624565b614a8791906158af565b614a9191906158af565b98975050505050505050565b6000613c867011d95b995cda5cd5985b1d5955985d5b1d607a1b614cb5565b6000613c866a14995cd95c9d99519d5b9960aa1b614cb5565b6000613c867121bab93932b731bca1b7b73a3937b63632b960711b614cb5565b6000613c86742132b0b1b7b7283937bc3ca1b7b73a3937b63632b960591b614cb5565b60008181526001830160205260408120548015614c01576000614b3c6001836155f0565b8554909150600090614b50906001906155f0565b9050818114614bb5576000866000018281548110614b7057614b706153de565b9060005260206000200154905080876000018481548110614b9357614b936153de565b6000918252602080832090910192909255918252600188019052604090208390555b8554869080614bc657614bc66158ee565b600190038181906000526020600020016000905590558560010160008681526020019081526020016000206000905560019350505050610afd565b6000915050610afd565b6060816000018054806020026020016040519081016040528092919081815260200182805480156111dd57602002820191906000526020600020905b815481526020019060010190808311614c475750505050509050919050565b6000818152600183016020526040812054614cad57508154600181810184556000848152602080822090930184905584548482528286019093526040902091909155610afd565b506000610afd565b60008181527f4abde63c3e81aefa5764b017968bc473e83e093d7e1a10247d19e0a3e41240196020908152604080832054815170026b4b9b9b4b7339030b2323932b9b99d1607d1b9381019390935260318084018690528251808503909101815260519093019091526001600160a01b031690816118a05760405162461bcd60e51b8152600401610b289190615904565b6000614d53600483615786565b158015614d695750614d66606483615786565b15155b80610afd5750614d7b61019083615786565b1592915050565b6001600160a01b0381168114610d9057600080fd5b600080600060608486031215614dac57600080fd5b8335614db781614d82565b95602085013595506040909401359392505050565b600060208284031215614dde57600080fd5b5035919050565b600080600060608486031215614dfa57600080fd5b505081359360208301359350604090920135919050565b600081518084526020808501945080840160005b83811015614e4157815187529582019590820190600101614e25565b509495945050505050565b606081526000614e5f6060830186614e11565b8281036020840152614e718186614e11565b90508281036040840152614e858185614e11565b9695505050505050565b60008060408385031215614ea257600080fd5b823591506020830135614eb481614d82565b809150509250929050565b600080600080600060a08688031215614ed757600080fd5b8535945060208601359350604086013592506060860135614ef781614d82565b9150608086013562ffffff81168114614f0f57600080fd5b809150509295509295909350565b8015158114610d9057600080fd5b600060208284031215614f3d57600080fd5b8135614f4881614f1d565b9392505050565b600080600060608486031215614f6457600080fd5b83359250602084013591506040840135614f7d81614d82565b809150509250925092565b6020808252825182820181905260009190848201906040850190845b81811015614fc95783516001600160a01b031683529284019291840191600101614fa4565b50909695505050505050565b6020808252825182820181905260009190848201906040850190845b81811015614fc957835183529284019291840191600101614ff1565b60028110610d9057600080fd5b600080600080600060a0868803121561503257600080fd5b8535945060208601359350604086013561504b8161500d565b94979396509394606081013594506080013592915050565b6000806040838503121561507657600080fd5b823561508181614d82565b91506020830135614eb481614d82565b6000806000606084860312156150a657600080fd5b8335925060208401359150604084013565ffffffffffff81168114614f7d57600080fd5b6000602082840312156150dc57600080fd5b8135614f4881614d82565b602081526000610afa6020830184614e11565b6000806040838503121561510d57600080fd5b50508035926020909101359150565b6000806000806080858703121561513257600080fd5b5050823594602084013594506040840135936060013592509050565b6001600160a01b039390931683526020830191909152604082015260600190565b600080600080600080600080610100898b03121561518c57600080fd5b885197506020890151965060408901519550606089015194506080890151935060a0890151925060c0890151915060e08901516151c881614f1d565b809150509295985092959890939650565b634e487b7160e01b600052604160045260246000fd5b600082601f83011261520057600080fd5b8151602067ffffffffffffffff8083111561521d5761521d6151d9565b8260051b604051601f19603f83011681018181108482111715615242576152426151d9565b60405293845285810183019383810192508785111561526057600080fd5b83870191505b8482101561527f57815183529183019190830190615266565b979650505050505050565b60008060006060848603121561529f57600080fd5b835167ffffffffffffffff808211156152b757600080fd5b6152c3878388016151ef565b945060208601519150808211156152d957600080fd5b6152e5878388016151ef565b935060408601519150808211156152fb57600080fd5b50615308868287016151ef565b9150509250925092565b60006020828403121561532457600080fd5b5051919050565b6020808252601f908201527f5265656e7472616e637947756172643a207265656e7472616e742063616c6c00604082015260600190565b60208082526010908201526f496e76616c6964206d6174757269747960801b604082015260600190565b6000806040838503121561539f57600080fd5b505080516020909101519092909150565b634e487b7160e01b600052601160045260246000fd5b600082198211156153d9576153d96153b0565b500190565b634e487b7160e01b600052603260045260246000fd5b6000815180845260005b8181101561541a576020818501810151868301820152016153fe565b8181111561542c576000602083870101525b50601f01601f19169290920160200192915050565b82815260406020820152600061116c60408301846153f4565b60006020828403121561546c57600080fd5b8151614f4881614d82565b600060001982141561548b5761548b6153b0565b5060010190565b6000806000606084860312156154a757600080fd5b83516154b28161500d565b602085015160409095015190969495509392505050565b634e487b7160e01b600052602160045260246000fd5b600281106154fd57634e487b7160e01b600052602160045260246000fd5b9052565b65ffffffffffff8616815260a0810161551d60208301876154df565b8460408301528360608301528260808301529695505050505050565b600080600080600080600060e0888a03121561555457600080fd5b5050855160208701516040880151606089015160808a015160a08b015160c0909b0151949c939b50919990985090965094509092509050565b6020808252818101527f4f776e61626c653a2063616c6c6572206973206e6f7420746865206f776e6572604082015260600190565b6000806000606084860312156155d757600080fd5b8351925060208401519150604084015190509250925092565b600082821015615602576156026153b0565b500390565b60006020828403121561561957600080fd5b8151614f4881614f1d565b600080821280156001600160ff1b0384900385131615615646576156466153b0565b600160ff1b839003841281161561565f5761565f6153b0565b50500190565b6001600160a01b038516815260208101849052604081018390526080810161569060608301846154df565b95945050505050565b60a081016156a782886154df565b6001600160a01b03959095166020820152604081019390935260608301919091521515608090910152919050565b608081016156e382876154df565b84602083015283604083015282606083015295945050505050565b6000806000806080858703121561571457600080fd5b845193506020850151925060408501519150606085015161573481614f1d565b939692955090935050565b6000600160ff1b821415615755576157556153b0565b5060000390565b634e487b7160e01b600052601260045260246000fd5b6000826157815761578161575c565b500490565b6000826157955761579561575c565b500690565b60008160001904831182151516156157b4576157b46153b0565b500290565b6001600160a01b03949094168452602084019290925260408301521515606082015260800190565b604081016157ef82856154df565b8260208301529392505050565b60006001600160ff1b0381841382841380821686840486111615615822576158226153b0565b600160ff1b6000871282811687830589121615615841576158416153b0565b6000871292508782058712848416161561585d5761585d6153b0565b87850587128184161615615873576158736153b0565b505050929093029392505050565b6000826158905761589061575c565b600160ff1b8214600019841416156158aa576158aa6153b0565b500590565b60008083128015600160ff1b8501841216156158cd576158cd6153b0565b6001600160ff1b03840183138116156158e8576158e86153b0565b50500390565b634e487b7160e01b600052603160045260246000fd5b602081526000610afa60208301846153f456fe19bfb841e3f2b667d170c57909e7685dd6a0cee80d36344e04905cfd7d917bd74abde63c3e81aefa5764b017968bc473e83e093d7e1a10247d19e0a3e4124018a2646970667358221220c81cd07201a3c68cb8b796a96a408eee694c288be070aaa6f528a71db8d28f1f64736f6c63430008090033",
  "libraries": {
    "FundCalculationLogic": "0x8f71902672e690218faDF25B15f9dA5Fe174cE67"
  },
  "implementation": "0x197c0e886C6693d972a4e0b0c8B4315FE3BAc365",
  "devdoc": {
    "kind": "dev",
    "methods": {
      "acceptedContracts()": {
        "details": "The contact name listed in this method is also needed to be listed `requiredContracts` method."
      },
      "calculateBorrowedFundsFromOrders(bytes32,address)": {
        "params": {
          "_ccy": "Currency name in bytes32",
          "_user": "User's address"
        },
        "returns": {
          "borrowedAmount": "The borrowed amount due to the borrow orders being filled on the order book",
          "debtAmount": "The debt amount due to the borrow orders being filled on the order book",
          "workingOrdersAmount": "The working orders amount on the order book"
        }
      },
      "calculateFunds(bytes32,address)": {
        "params": {
          "_ccy": "Currency name in bytes32",
          "_user": "User's address"
        },
        "returns": {
          "borrowedAmount": "The borrowed amount due to the borrow orders being filled on the order book",
          "claimableAmount": "The claimable amount due to the lending orders being filled on the order book",
          "collateralAmount": "The actual collateral amount that is calculated by netting using the haircut.",
          "debtAmount": "The debt amount due to the borrow orders being filled on the order book",
          "lentAmount": "The lent amount due to the lend orders being filled on the order book",
          "workingBorrowOrdersAmount": "The working orders amount on the borrow order book",
          "workingLendOrdersAmount": "The working orders amount on the lend order book"
        }
      },
      "calculateLentFundsFromOrders(bytes32,address)": {
        "params": {
          "_ccy": "Currency name in bytes32",
          "_user": "User's address"
        },
        "returns": {
          "claimableAmount": "The claimable amount due to the lending orders being filled on the order book",
          "lentAmount": "The lent amount due to the lend orders being filled on the order book",
          "workingOrdersAmount": "The working orders amount on the order book"
        }
      },
      "calculateTotalFundsInETH(address,bytes32,uint256)": {
        "params": {
          "_user": "User's address"
        }
      },
      "cancelOrder(bytes32,uint256,uint48)": {
        "params": {
          "_ccy": "Currency name in bytes32 of the selected market",
          "_maturity": "The maturity of the selected market",
          "_orderId": "Market order id"
        }
      },
      "cleanAllOrders(address)": {
        "params": {
          "_user": "User's address"
        }
      },
      "cleanOrders(bytes32,address)": {
        "params": {
          "_ccy": "Currency name in bytes32",
          "_user": "User's address"
        }
      },
      "createLendingMarket(bytes32)": {
        "params": {
          "_ccy": "Main currency for new lending market"
        },
        "returns": {
          "market": "The proxy contract address of created lending market"
        }
      },
      "createOrder(bytes32,uint256,uint8,uint256,uint256)": {
        "params": {
          "_amount": "Amount of funds the maker wants to borrow/lend",
          "_ccy": "Currency name in bytes32 of the selected market",
          "_maturity": "The maturity of the selected market",
          "_side": "Order position type, Borrow or Lend",
          "_unitPrice": "Amount of unit price taker wish to borrow/lend"
        },
        "returns": {
          "_0": "True if the execution of the operation succeeds"
        }
      },
      "depositAndCreateOrder(bytes32,uint256,uint8,uint256,uint256)": {
        "params": {
          "_amount": "Amount of funds the maker wants to borrow/lend",
          "_ccy": "Currency name in bytes32 of the selected market",
          "_maturity": "The maturity of the selected market",
          "_side": "Order position type, Borrow or Lend",
          "_unitPrice": "Amount of unit price taker wish to borrow/lend"
        },
        "returns": {
          "_0": "True if the execution of the operation succeeds"
        }
      },
      "executeLiquidationCall(bytes32,bytes32,uint256,address,uint24)": {
        "details": "A liquidation amount is calculated from the selected debt, but its maximum amount is the same as a collateral amount. That amount needs to be set at liquidationAmountMax otherwise currency swapping using Uniswap will fail if the collateral is insufficient.",
        "params": {
          "_collateralCcy": "Currency name to be used as collateral",
          "_debtCcy": "Currency name to be used as debt",
          "_debtMaturity": "The market maturity of the debt",
          "_poolFee": "Uniswap pool fee",
          "_user": "User's address"
        },
        "returns": {
          "_0": "True if the execution of the operation succeeds"
        }
      },
      "getBorrowOrderBook(bytes32,uint256,uint256)": {
        "params": {
          "_ccy": "Currency name in bytes32",
          "_limit": "The limit number to get",
          "_maturity": "The maturity of the market"
        },
        "returns": {
          "amounts": "The array of borrow order amounts",
          "quantities": "The array of borrow order quantities",
          "unitPrices": "The array of borrow unit prices"
        }
      },
      "getBorrowUnitPrices(bytes32)": {
        "params": {
          "_ccy": "Currency name in bytes32"
        },
        "returns": {
          "_0": "Array with the borrowing prices per future value of the lending market"
        }
      },
      "getFutureValue(bytes32,uint256,address)": {
        "params": {
          "_ccy": "Currency name in bytes32 for Lending Market",
          "_maturity": "The maturity of the market",
          "_user": "User's address"
        },
        "returns": {
          "futureValue": "The future value"
        }
      },
      "getFutureValueVault(bytes32,uint256)": {
        "params": {
          "_ccy": "Currency name in bytes32",
          "_maturity": "The maturity of the market"
        },
        "returns": {
          "_0": "The lending market address"
        }
      },
      "getGenesisDate(bytes32)": {
        "params": {
          "_ccy": "Currency name in bytes32"
        },
        "returns": {
          "_0": "The genesis date"
        }
      },
      "getLendOrderBook(bytes32,uint256,uint256)": {
        "params": {
          "_ccy": "Currency name in bytes32",
          "_limit": "The limit number to get",
          "_maturity": "The maturity of the market"
        },
        "returns": {
          "amounts": "The array of lend order amounts",
          "quantities": "The array of lend order quantities",
          "unitPrices": "The array of borrow unit prices"
        }
      },
      "getLendUnitPrices(bytes32)": {
        "params": {
          "_ccy": "Currency name in bytes32"
        },
        "returns": {
          "_0": "Array with the lending prices per future value of the lending market"
        }
      },
      "getLendingMarket(bytes32,uint256)": {
        "params": {
          "_ccy": "Currency name in bytes32",
          "_maturity": "The maturity of the market"
        },
        "returns": {
          "_0": "The lending market address"
        }
      },
      "getLendingMarkets(bytes32)": {
        "params": {
          "_ccy": "Currency name in bytes32"
        },
        "returns": {
          "_0": "Array with the lending market address"
        }
      },
      "getMaturities(bytes32)": {
        "params": {
          "_ccy": "Currency name in bytes32"
        },
        "returns": {
          "_0": "Array with the lending market maturity"
        }
      },
      "getMidUnitPrices(bytes32)": {
        "params": {
          "_ccy": "Currency name in bytes32"
        },
        "returns": {
          "_0": "Array with the mid prices per future value of the lending market"
        }
      },
      "getOrderFeeRate(bytes32)": {
        "params": {
          "_ccy": "Currency name in bytes32"
        },
        "returns": {
          "_0": "The order fee rate received by protocol"
        }
      },
      "getPresentValue(bytes32,uint256,address)": {
        "params": {
          "_ccy": "Currency name in bytes32 for Lending Market",
          "_maturity": "The maturity of the market",
          "_user": "User's address"
        },
        "returns": {
          "presentValue": "The present value"
        }
      },
      "getTotalPresentValue(bytes32,address)": {
        "params": {
          "_ccy": "Currency name in bytes32 for Lending Market",
          "_user": "User's address"
        },
        "returns": {
          "totalPresentValue": "The total present value"
        }
      },
      "getTotalPresentValueInETH(address)": {
        "params": {
          "_user": "User's address"
        },
        "returns": {
          "totalPresentValue": "The total present value in ETH"
        }
      },
      "getUsedCurrencies(address)": {
        "params": {
          "_user": "User's address"
        },
        "returns": {
          "_0": "The array of the currency"
        }
      },
      "initialize(address,address)": {
        "details": "Function is invoked by the proxy contract when the contract is added to the ProxyController.",
        "params": {
          "_owner": "The address of the contract owner",
          "_resolver": "The address of the Address Resolver contract"
        }
      },
      "initializeLendingMarket(bytes32,uint256,uint256,uint256)": {
        "params": {
          "_ccy": "Currency name in bytes32",
          "_compoundFactor": "The initial compound factor when the initial market is opened",
          "_genesisDate": "The genesis date when the initial market is opened",
          "_orderFeeRate": "The order fee rate received by protocol"
        }
      },
      "isInitializedLendingMarket(bytes32)": {
        "params": {
          "_ccy": "Currency name in bytes32"
        },
        "returns": {
          "_0": "The boolean if the lending market is initialized or not"
        }
      },
      "isLiquidator(address)": {
        "returns": {
          "_0": "The boolean if the user is registered as a liquidator or not"
        }
      },
      "owner()": {
        "details": "Returns the address of the current owner."
      },
      "pauseLendingMarkets(bytes32)": {
        "params": {
          "_ccy": "Currency for pausing all lending markets"
        },
        "returns": {
          "_0": "True if the execution of the operation succeeds"
        }
      },
      "registerLiquidator(bool)": {
        "params": {
          "_isLiquidator": "The boolean if the user is a liquidator or not"
        }
      },
      "renounceOwnership()": {
        "details": "Leaves the contract without owner. It will not be possible to call `onlyOwner` functions anymore. Can only be called by the current owner. NOTE: Renouncing ownership will leave the contract without an owner, thereby removing any functionality that is only available to the owner."
      },
      "requiredContracts()": {
        "details": "The contract name list is in `./libraries/Contracts.sol`."
      },
      "rotateLendingMarkets(bytes32)": {
        "params": {
          "_ccy": "Currency name in bytes32 of the selected market"
        }
      },
      "transferOwnership(address)": {
        "details": "Transfers ownership of the contract to a new account (`newOwner`). Can only be called by the current owner."
      },
      "unpauseLendingMarkets(bytes32)": {
        "params": {
          "_ccy": "Currency name in bytes32"
        },
        "returns": {
          "_0": "True if the execution of the operation succeeds"
        }
      },
      "updateOrderFeeRate(bytes32,uint256)": {
        "params": {
          "_orderFeeRate": "The order fee rate received by protocol"
        }
      }
    },
    "version": 1
  },
  "userdoc": {
    "kind": "user",
    "methods": {
      "acceptedContracts()": {
        "notice": "Returns contract names that can call this contract."
      },
      "calculateBorrowedFundsFromOrders(bytes32,address)": {
        "notice": "Gets the funds that are calculated from the user's borrowing order list for the selected currency."
      },
      "calculateFunds(bytes32,address)": {
        "notice": "Gets the funds that are calculated from the user's lending and borrowing order list for the selected currency."
      },
      "calculateLentFundsFromOrders(bytes32,address)": {
        "notice": "Gets the funds that are calculated from the user's lending order list for the selected currency."
      },
      "calculateTotalFundsInETH(address,bytes32,uint256)": {
        "notice": "Gets the funds that are calculated from the user's lending and borrowing order list for all currencies in ETH."
      },
      "cancelOrder(bytes32,uint256,uint48)": {
        "notice": "Cancels the own order."
      },
      "cleanAllOrders(address)": {
        "notice": "Cleans user's all orders to remove order ids that are already filled on the order book."
      },
      "cleanOrders(bytes32,address)": {
        "notice": "Cleans user's orders to remove order ids that are already filled on the order book for a selected currency."
      },
      "createLendingMarket(bytes32)": {
        "notice": "Deploys new Lending Market and save address at lendingMarkets mapping.Reverts on deployment market with existing currency and term"
      },
      "createOrder(bytes32,uint256,uint8,uint256,uint256)": {
        "notice": "Creates an order. Takes orders if the orders are matched, and places new order if not match it. In addition, converts the future value to the genesis value if there is future value in past maturity before the execution of order creation."
      },
      "depositAndCreateOrder(bytes32,uint256,uint8,uint256,uint256)": {
        "notice": "Deposits funds and creates an order at the same time."
      },
      "executeLiquidationCall(bytes32,bytes32,uint256,address,uint24)": {
        "notice": "Liquidates a lending position if the user's coverage is less than 1."
      },
      "getBorrowOrderBook(bytes32,uint256,uint256)": {
        "notice": "Gets the order book of borrow."
      },
      "getBorrowUnitPrices(bytes32)": {
        "notice": "Gets borrow prices per future value for the selected currency."
      },
      "getFutureValue(bytes32,uint256,address)": {
        "notice": "Gets the future value of the account for selected currency and maturity."
      },
      "getFutureValueVault(bytes32,uint256)": {
        "notice": "Gets the feture value contract address for the selected currency and maturity."
      },
      "getGenesisDate(bytes32)": {
        "notice": "Gets the genesis date when the first market opens for the selected currency."
      },
      "getLendOrderBook(bytes32,uint256,uint256)": {
        "notice": "Gets the order book of lend."
      },
      "getLendUnitPrices(bytes32)": {
        "notice": "Gets lend prices per future value for the selected currency."
      },
      "getLendingMarket(bytes32,uint256)": {
        "notice": "Gets the lending market contract address for the selected currency and maturity."
      },
      "getLendingMarkets(bytes32)": {
        "notice": "Gets the lending market contract addresses for the selected currency."
      },
      "getMaturities(bytes32)": {
        "notice": "Gets maturities for the selected currency."
      },
      "getMidUnitPrices(bytes32)": {
        "notice": "Gets mid prices per future value for the selected currency."
      },
      "getOrderFeeRate(bytes32)": {
        "notice": "Gets the order fee rate"
      },
      "getPresentValue(bytes32,uint256,address)": {
        "notice": "Gets the present value of the account for selected currency and maturity."
      },
      "getTotalPresentValue(bytes32,address)": {
        "notice": "Gets the total present value of the account for selected currency."
      },
      "getTotalPresentValueInETH(address)": {
        "notice": "Gets the total present value of the account converted to ETH."
      },
      "getUsedCurrencies(address)": {
        "notice": "Get all the currencies in which the user has lending positions or orders."
      },
      "initialize(address,address)": {
        "notice": "Initializes the contract."
      },
      "initializeLendingMarket(bytes32,uint256,uint256,uint256)": {
        "notice": "Initialize the lending market to set a genesis date and compound factor"
      },
      "isInitializedLendingMarket(bytes32)": {
        "notice": "Gets if the lending market is initialized."
      },
      "isLiquidator(address)": {
        "notice": "Gets if the user is registered as a liquidator."
      },
      "pauseLendingMarkets(bytes32)": {
        "notice": "Pauses previously deployed lending market by currency"
      },
      "registerLiquidator(bool)": {
        "notice": "Registers a user as a liquidator."
      },
      "requiredContracts()": {
        "notice": "Returns the contract names used in this contract."
      },
      "rotateLendingMarkets(bytes32)": {
        "notice": "Rotates the lending markets. In this rotation, the following actions are happened. - Updates the maturity at the beginning of the market array. - Moves the beginning of the market array to the end of it (Market rotation). - Update the compound factor in this contract using the next market unit price. (Auto-rolls) - Convert the future value held by reserve funds into the genesis value"
      },
      "unpauseLendingMarkets(bytes32)": {
        "notice": "Unpauses previously deployed lending market by currency"
      },
      "updateOrderFeeRate(bytes32,uint256)": {
        "notice": "Updates the order fee rate"
      }
    },
    "notice": "Implements the module to manage separated lending order-book markets per maturity. This contract also works as a factory contract that can deploy(start)a new lending market for selected currency and maturity and has the calculation logic for the Genesis value in addition. Deployed Lending Markets are rotated and reused as it reaches the maturity date. At the time of rotation, a new maturity date is set and the compound factor is updated. The users mainly call this contract to create orders to lend or borrow funds.",
    "version": 1
  },
  "storageLayout": {
    "storage": [
      {
        "astId": 1446,
        "contract": "contracts/LendingMarketController.sol:LendingMarketController",
        "label": "_status",
        "offset": 0,
        "slot": "0",
        "type": "t_uint256"
      },
      {
        "astId": 1183,
        "contract": "contracts/LendingMarketController.sol:LendingMarketController",
        "label": "_initialized",
        "offset": 0,
        "slot": "1",
        "type": "t_uint8"
      },
      {
        "astId": 1186,
        "contract": "contracts/LendingMarketController.sol:LendingMarketController",
        "label": "_initializing",
        "offset": 1,
        "slot": "1",
        "type": "t_bool"
      }
    ],
    "types": {
      "t_bool": {
        "encoding": "inplace",
        "label": "bool",
        "numberOfBytes": "1"
      },
      "t_uint256": {
        "encoding": "inplace",
        "label": "uint256",
        "numberOfBytes": "32"
      },
      "t_uint8": {
        "encoding": "inplace",
        "label": "uint8",
        "numberOfBytes": "1"
      }
    }
  }
}