{
  "address": "0x25A7b8bcA7E02E643fC60B992854ABc32feB295B",
  "abi": [
    {
      "anonymous": false,
      "inputs": [
        {
          "indexed": false,
          "internalType": "uint256",
          "name": "previousRate",
          "type": "uint256"
        },
        {
          "indexed": false,
          "internalType": "uint256",
          "name": "rate",
          "type": "uint256"
        }
      ],
      "name": "AutoRollFeeRateUpdated",
      "type": "event"
    },
    {
      "anonymous": false,
      "inputs": [
        {
          "indexed": false,
          "internalType": "bytes32",
          "name": "name",
          "type": "bytes32"
        },
        {
          "indexed": false,
          "internalType": "address",
          "name": "destination",
          "type": "address"
        }
      ],
      "name": "CacheUpdated",
      "type": "event"
    },
    {
      "anonymous": false,
      "inputs": [
        {
          "indexed": false,
          "internalType": "uint8",
          "name": "version",
          "type": "uint8"
        }
      ],
      "name": "Initialized",
      "type": "event"
    },
    {
      "anonymous": false,
      "inputs": [
        {
          "indexed": true,
          "internalType": "bytes32",
          "name": "ccy",
          "type": "bytes32"
        },
        {
          "indexed": true,
          "internalType": "address",
          "name": "marketAddr",
          "type": "address"
        },
        {
          "indexed": false,
          "internalType": "address",
          "name": "futureValueVault",
          "type": "address"
        },
        {
          "indexed": false,
          "internalType": "uint256",
          "name": "index",
          "type": "uint256"
        },
        {
          "indexed": false,
          "internalType": "uint256",
          "name": "openingDate",
          "type": "uint256"
        },
        {
          "indexed": false,
          "internalType": "uint256",
          "name": "maturity",
          "type": "uint256"
        }
      ],
      "name": "LendingMarketCreated",
      "type": "event"
    },
    {
      "anonymous": false,
      "inputs": [
        {
          "indexed": false,
          "internalType": "bytes32",
          "name": "ccy",
          "type": "bytes32"
        },
        {
          "indexed": false,
          "internalType": "uint256",
          "name": "oldMaturity",
          "type": "uint256"
        },
        {
          "indexed": false,
          "internalType": "uint256",
          "name": "newMaturity",
          "type": "uint256"
        }
      ],
      "name": "LendingMarketsRotated",
      "type": "event"
    },
    {
      "anonymous": false,
      "inputs": [
        {
          "indexed": true,
          "internalType": "address",
          "name": "user",
          "type": "address"
        },
        {
          "indexed": false,
          "internalType": "bytes32",
          "name": "collateralCcy",
          "type": "bytes32"
        },
        {
          "indexed": true,
          "internalType": "bytes32",
          "name": "debtCcy",
          "type": "bytes32"
        },
        {
          "indexed": true,
          "internalType": "uint256",
          "name": "debtMaturity",
          "type": "uint256"
        },
        {
          "indexed": false,
          "internalType": "uint256",
          "name": "amount",
          "type": "uint256"
        }
      ],
      "name": "LiquidationExecuted",
      "type": "event"
    },
    {
      "anonymous": false,
      "inputs": [
        {
          "indexed": false,
          "internalType": "uint256",
          "name": "previousPeriod",
          "type": "uint256"
        },
        {
          "indexed": false,
          "internalType": "uint256",
          "name": "period",
          "type": "uint256"
        }
      ],
      "name": "ObservationPeriodUpdated",
      "type": "event"
    },
    {
      "anonymous": false,
      "inputs": [
        {
          "indexed": false,
          "internalType": "uint48",
          "name": "orderId",
          "type": "uint48"
        },
        {
          "indexed": true,
          "internalType": "address",
          "name": "maker",
          "type": "address"
        },
        {
          "indexed": true,
          "internalType": "bytes32",
          "name": "ccy",
          "type": "bytes32"
        },
        {
          "indexed": false,
          "internalType": "enum ProtocolTypes.Side",
          "name": "side",
          "type": "uint8"
        },
        {
          "indexed": false,
          "internalType": "uint256",
          "name": "maturity",
          "type": "uint256"
        },
        {
          "indexed": false,
          "internalType": "uint256",
          "name": "amount",
          "type": "uint256"
        },
        {
          "indexed": false,
          "internalType": "uint256",
          "name": "unitPrice",
          "type": "uint256"
        }
      ],
      "name": "OrderCanceled",
      "type": "event"
    },
    {
      "anonymous": false,
      "inputs": [
        {
          "indexed": false,
          "internalType": "uint256",
          "name": "previousRate",
          "type": "uint256"
        },
        {
          "indexed": false,
          "internalType": "uint256",
          "name": "rate",
          "type": "uint256"
        }
      ],
      "name": "OrderFeeRateUpdated",
      "type": "event"
    },
    {
      "anonymous": false,
      "inputs": [
        {
          "indexed": true,
          "internalType": "address",
          "name": "taker",
          "type": "address"
        },
        {
          "indexed": true,
          "internalType": "bytes32",
          "name": "ccy",
          "type": "bytes32"
        },
        {
          "indexed": false,
          "internalType": "enum ProtocolTypes.Side",
          "name": "side",
          "type": "uint8"
        },
        {
          "indexed": true,
          "internalType": "uint256",
          "name": "maturity",
          "type": "uint256"
        },
        {
          "indexed": false,
          "internalType": "uint256",
          "name": "amount",
          "type": "uint256"
        },
        {
          "indexed": false,
          "internalType": "uint256",
          "name": "unitPrice",
          "type": "uint256"
        },
        {
          "indexed": false,
          "internalType": "uint256",
          "name": "filledFutureValue",
          "type": "uint256"
        }
      ],
      "name": "OrderFilled",
      "type": "event"
    },
    {
      "anonymous": false,
      "inputs": [
        {
          "indexed": true,
          "internalType": "address",
          "name": "taker",
          "type": "address"
        },
        {
          "indexed": true,
          "internalType": "bytes32",
          "name": "ccy",
          "type": "bytes32"
        },
        {
          "indexed": false,
          "internalType": "enum ProtocolTypes.Side",
          "name": "side",
          "type": "uint8"
        },
        {
          "indexed": true,
          "internalType": "uint256",
          "name": "maturity",
          "type": "uint256"
        },
        {
          "indexed": false,
          "internalType": "uint256",
          "name": "filledFutureValue",
          "type": "uint256"
        }
      ],
      "name": "OrdersFilledInAsync",
      "type": "event"
    },
    {
      "anonymous": false,
      "inputs": [
        {
          "indexed": true,
          "internalType": "address",
          "name": "previousOwner",
          "type": "address"
        },
        {
          "indexed": true,
          "internalType": "address",
          "name": "newOwner",
          "type": "address"
        }
      ],
      "name": "OwnershipTransferred",
      "type": "event"
    },
    {
      "inputs": [],
      "name": "acceptedContracts",
      "outputs": [
        {
          "internalType": "bytes32[]",
          "name": "contracts",
          "type": "bytes32[]"
        }
      ],
      "stateMutability": "pure",
      "type": "function"
    },
    {
      "inputs": [],
      "name": "buildCache",
      "outputs": [],
      "stateMutability": "nonpayable",
      "type": "function"
    },
    {
      "inputs": [
        {
          "internalType": "bytes32",
          "name": "_ccy",
          "type": "bytes32"
        },
        {
          "internalType": "address",
          "name": "_user",
          "type": "address"
        }
      ],
      "name": "calculateFunds",
      "outputs": [
        {
          "internalType": "uint256",
          "name": "workingLendOrdersAmount",
          "type": "uint256"
        },
        {
          "internalType": "uint256",
          "name": "claimableAmount",
          "type": "uint256"
        },
        {
          "internalType": "uint256",
          "name": "collateralAmount",
          "type": "uint256"
        },
        {
          "internalType": "uint256",
          "name": "lentAmount",
          "type": "uint256"
        },
        {
          "internalType": "uint256",
          "name": "workingBorrowOrdersAmount",
          "type": "uint256"
        },
        {
          "internalType": "uint256",
          "name": "debtAmount",
          "type": "uint256"
        },
        {
          "internalType": "uint256",
          "name": "borrowedAmount",
          "type": "uint256"
        }
      ],
      "stateMutability": "view",
      "type": "function"
    },
    {
      "inputs": [
        {
          "internalType": "address",
          "name": "_user",
          "type": "address"
        },
        {
          "internalType": "bytes32",
          "name": "_depositCcy",
          "type": "bytes32"
        },
        {
          "internalType": "uint256",
          "name": "_depositAmount",
          "type": "uint256"
        }
      ],
      "name": "calculateTotalFundsInETH",
      "outputs": [
        {
          "internalType": "uint256",
          "name": "totalWorkingLendOrdersAmount",
          "type": "uint256"
        },
        {
          "internalType": "uint256",
          "name": "totalClaimableAmount",
          "type": "uint256"
        },
        {
          "internalType": "uint256",
          "name": "totalCollateralAmount",
          "type": "uint256"
        },
        {
          "internalType": "uint256",
          "name": "totalLentAmount",
          "type": "uint256"
        },
        {
          "internalType": "uint256",
          "name": "totalWorkingBorrowOrdersAmount",
          "type": "uint256"
        },
        {
          "internalType": "uint256",
          "name": "totalDebtAmount",
          "type": "uint256"
        },
        {
          "internalType": "uint256",
          "name": "totalBorrowedAmount",
          "type": "uint256"
        },
        {
          "internalType": "bool",
          "name": "isEnoughDeposit",
          "type": "bool"
        }
      ],
      "stateMutability": "view",
      "type": "function"
    },
    {
      "inputs": [
        {
          "internalType": "bytes32",
          "name": "_ccy",
          "type": "bytes32"
        },
        {
          "internalType": "uint256",
          "name": "_maturity",
          "type": "uint256"
        },
        {
          "internalType": "uint48",
          "name": "_orderId",
          "type": "uint48"
        }
      ],
      "name": "cancelOrder",
      "outputs": [
        {
          "internalType": "bool",
          "name": "",
          "type": "bool"
        }
      ],
      "stateMutability": "nonpayable",
      "type": "function"
    },
    {
      "inputs": [
        {
          "internalType": "address",
          "name": "_user",
          "type": "address"
        }
      ],
      "name": "cleanAllOrders",
      "outputs": [],
      "stateMutability": "nonpayable",
      "type": "function"
    },
    {
      "inputs": [
        {
          "internalType": "bytes32",
          "name": "_ccy",
          "type": "bytes32"
        },
        {
          "internalType": "address",
          "name": "_user",
          "type": "address"
        }
      ],
      "name": "cleanOrders",
      "outputs": [
        {
          "internalType": "uint256",
          "name": "totalActiveOrderCount",
          "type": "uint256"
        }
      ],
      "stateMutability": "nonpayable",
      "type": "function"
    },
    {
      "inputs": [
        {
          "internalType": "bytes32",
          "name": "_ccy",
          "type": "bytes32"
        },
        {
          "internalType": "uint256",
          "name": "_openingDate",
          "type": "uint256"
        }
      ],
      "name": "createLendingMarket",
      "outputs": [],
      "stateMutability": "nonpayable",
      "type": "function"
    },
    {
      "inputs": [
        {
          "internalType": "bytes32",
          "name": "_ccy",
          "type": "bytes32"
        },
        {
          "internalType": "uint256",
          "name": "_maturity",
          "type": "uint256"
        },
        {
          "internalType": "enum ProtocolTypes.Side",
          "name": "_side",
          "type": "uint8"
        },
        {
          "internalType": "uint256",
          "name": "_amount",
          "type": "uint256"
        },
        {
          "internalType": "uint256",
          "name": "_unitPrice",
          "type": "uint256"
        }
      ],
      "name": "createOrder",
      "outputs": [
        {
          "internalType": "bool",
          "name": "",
          "type": "bool"
        }
      ],
      "stateMutability": "nonpayable",
      "type": "function"
    },
    {
      "inputs": [
        {
          "internalType": "bytes32",
          "name": "_ccy",
          "type": "bytes32"
        },
        {
          "internalType": "uint256",
          "name": "_maturity",
          "type": "uint256"
        },
        {
          "internalType": "enum ProtocolTypes.Side",
          "name": "_side",
          "type": "uint8"
        },
        {
          "internalType": "uint256",
          "name": "_amount",
          "type": "uint256"
        },
        {
          "internalType": "uint256",
          "name": "_unitPrice",
          "type": "uint256"
        }
      ],
      "name": "createPreOrder",
      "outputs": [
        {
          "internalType": "bool",
          "name": "",
          "type": "bool"
        }
      ],
      "stateMutability": "nonpayable",
      "type": "function"
    },
    {
      "inputs": [
        {
          "internalType": "bytes32",
          "name": "_ccy",
          "type": "bytes32"
        },
        {
          "internalType": "uint256",
          "name": "_maturity",
          "type": "uint256"
        },
        {
          "internalType": "enum ProtocolTypes.Side",
          "name": "_side",
          "type": "uint8"
        },
        {
          "internalType": "uint256",
          "name": "_amount",
          "type": "uint256"
        },
        {
          "internalType": "uint256",
          "name": "_unitPrice",
          "type": "uint256"
        }
      ],
      "name": "depositAndCreateOrder",
      "outputs": [
        {
          "internalType": "bool",
          "name": "",
          "type": "bool"
        }
      ],
      "stateMutability": "payable",
      "type": "function"
    },
    {
      "inputs": [
        {
          "internalType": "bytes32",
          "name": "_ccy",
          "type": "bytes32"
        },
        {
          "internalType": "uint256",
          "name": "_maturity",
          "type": "uint256"
        },
        {
          "internalType": "enum ProtocolTypes.Side",
          "name": "_side",
          "type": "uint8"
        },
        {
          "internalType": "uint256",
          "name": "_amount",
          "type": "uint256"
        },
        {
          "internalType": "uint256",
          "name": "_unitPrice",
          "type": "uint256"
        }
      ],
      "name": "depositAndCreatePreOrder",
      "outputs": [
        {
          "internalType": "bool",
          "name": "",
          "type": "bool"
        }
      ],
      "stateMutability": "payable",
      "type": "function"
    },
    {
      "inputs": [
        {
          "internalType": "bytes32",
          "name": "_collateralCcy",
          "type": "bytes32"
        },
        {
          "internalType": "bytes32",
          "name": "_debtCcy",
          "type": "bytes32"
        },
        {
          "internalType": "uint256",
          "name": "_debtMaturity",
          "type": "uint256"
        },
        {
          "internalType": "address",
          "name": "_user",
          "type": "address"
        },
        {
          "internalType": "uint24",
          "name": "_poolFee",
          "type": "uint24"
        }
      ],
      "name": "executeLiquidationCall",
      "outputs": [
        {
          "internalType": "bool",
          "name": "",
          "type": "bool"
        }
      ],
      "stateMutability": "nonpayable",
      "type": "function"
    },
    {
      "inputs": [
        {
          "internalType": "bytes32[]",
          "name": "_currencies",
          "type": "bytes32[]"
        },
        {
          "internalType": "uint256",
          "name": "_maturity",
          "type": "uint256"
        }
      ],
      "name": "executeMultiItayoseCall",
      "outputs": [
        {
          "internalType": "bool",
          "name": "",
          "type": "bool"
        }
      ],
      "stateMutability": "nonpayable",
      "type": "function"
    },
    {
      "inputs": [
        {
          "internalType": "bytes32",
          "name": "_ccy",
          "type": "bytes32"
        }
      ],
      "name": "getAutoRollFeeRate",
      "outputs": [
        {
          "internalType": "uint256",
          "name": "",
          "type": "uint256"
        }
      ],
      "stateMutability": "view",
      "type": "function"
    },
    {
      "inputs": [
        {
          "internalType": "bytes32",
          "name": "_ccy",
          "type": "bytes32"
        },
        {
          "internalType": "uint256",
          "name": "_maturity",
          "type": "uint256"
        },
        {
          "internalType": "uint256",
          "name": "_limit",
          "type": "uint256"
        }
      ],
      "name": "getBorrowOrderBook",
      "outputs": [
        {
          "internalType": "uint256[]",
          "name": "unitPrices",
          "type": "uint256[]"
        },
        {
          "internalType": "uint256[]",
          "name": "amounts",
          "type": "uint256[]"
        },
        {
          "internalType": "uint256[]",
          "name": "quantities",
          "type": "uint256[]"
        }
      ],
      "stateMutability": "view",
      "type": "function"
    },
    {
      "inputs": [
        {
          "internalType": "bytes32",
          "name": "_ccy",
          "type": "bytes32"
        }
      ],
      "name": "getBorrowUnitPrices",
      "outputs": [
        {
          "internalType": "uint256[]",
          "name": "",
          "type": "uint256[]"
        }
      ],
      "stateMutability": "view",
      "type": "function"
    },
    {
      "inputs": [
        {
          "internalType": "bytes32",
          "name": "_ccy",
          "type": "bytes32"
        },
        {
          "internalType": "uint256",
          "name": "_maturity",
          "type": "uint256"
        },
        {
          "internalType": "address",
          "name": "_user",
          "type": "address"
        }
      ],
      "name": "getFutureValue",
      "outputs": [
        {
          "internalType": "int256",
          "name": "futureValue",
          "type": "int256"
        }
      ],
      "stateMutability": "view",
      "type": "function"
    },
    {
      "inputs": [
        {
          "internalType": "bytes32",
          "name": "_ccy",
          "type": "bytes32"
        },
        {
          "internalType": "uint256",
          "name": "_maturity",
          "type": "uint256"
        }
      ],
      "name": "getFutureValueVault",
      "outputs": [
        {
          "internalType": "address",
          "name": "",
          "type": "address"
        }
      ],
      "stateMutability": "view",
      "type": "function"
    },
    {
      "inputs": [
        {
          "internalType": "bytes32",
          "name": "_ccy",
          "type": "bytes32"
        }
      ],
      "name": "getGenesisDate",
      "outputs": [
        {
          "internalType": "uint256",
          "name": "",
          "type": "uint256"
        }
      ],
      "stateMutability": "view",
      "type": "function"
    },
    {
      "inputs": [
        {
          "internalType": "bytes32",
          "name": "_ccy",
          "type": "bytes32"
        },
        {
          "internalType": "address",
          "name": "_user",
          "type": "address"
        }
      ],
      "name": "getGenesisValue",
      "outputs": [
        {
          "internalType": "int256",
          "name": "genesisValue",
          "type": "int256"
        }
      ],
      "stateMutability": "view",
      "type": "function"
    },
    {
      "inputs": [
        {
          "internalType": "bytes32",
          "name": "_ccy",
          "type": "bytes32"
        },
        {
          "internalType": "uint256",
          "name": "_maturity",
          "type": "uint256"
        },
        {
          "internalType": "uint256",
          "name": "_limit",
          "type": "uint256"
        }
      ],
      "name": "getLendOrderBook",
      "outputs": [
        {
          "internalType": "uint256[]",
          "name": "unitPrices",
          "type": "uint256[]"
        },
        {
          "internalType": "uint256[]",
          "name": "amounts",
          "type": "uint256[]"
        },
        {
          "internalType": "uint256[]",
          "name": "quantities",
          "type": "uint256[]"
        }
      ],
      "stateMutability": "view",
      "type": "function"
    },
    {
      "inputs": [
        {
          "internalType": "bytes32",
          "name": "_ccy",
          "type": "bytes32"
        }
      ],
      "name": "getLendUnitPrices",
      "outputs": [
        {
          "internalType": "uint256[]",
          "name": "",
          "type": "uint256[]"
        }
      ],
      "stateMutability": "view",
      "type": "function"
    },
    {
      "inputs": [
        {
          "internalType": "bytes32",
          "name": "_ccy",
          "type": "bytes32"
        },
        {
          "internalType": "uint256",
          "name": "_maturity",
          "type": "uint256"
        }
      ],
      "name": "getLendingMarket",
      "outputs": [
        {
          "internalType": "address",
          "name": "",
          "type": "address"
        }
      ],
      "stateMutability": "view",
      "type": "function"
    },
    {
      "inputs": [
        {
          "internalType": "bytes32",
          "name": "_ccy",
          "type": "bytes32"
        }
      ],
      "name": "getLendingMarkets",
      "outputs": [
        {
          "internalType": "address[]",
          "name": "",
          "type": "address[]"
        }
      ],
      "stateMutability": "view",
      "type": "function"
    },
    {
      "inputs": [
        {
          "internalType": "bytes32",
          "name": "_ccy",
          "type": "bytes32"
        }
      ],
      "name": "getMaturities",
      "outputs": [
        {
          "internalType": "uint256[]",
          "name": "",
          "type": "uint256[]"
        }
      ],
      "stateMutability": "view",
      "type": "function"
    },
    {
      "inputs": [
        {
          "internalType": "bytes32",
          "name": "_ccy",
          "type": "bytes32"
        }
      ],
      "name": "getMidUnitPrices",
      "outputs": [
        {
          "internalType": "uint256[]",
          "name": "",
          "type": "uint256[]"
        }
      ],
      "stateMutability": "view",
      "type": "function"
    },
    {
      "inputs": [],
      "name": "getObservationPeriod",
      "outputs": [
        {
          "internalType": "uint256",
          "name": "",
          "type": "uint256"
        }
      ],
      "stateMutability": "view",
      "type": "function"
    },
    {
      "inputs": [
        {
          "internalType": "bytes32",
          "name": "_ccy",
          "type": "bytes32"
        }
      ],
      "name": "getOrderFeeRate",
      "outputs": [
        {
          "internalType": "uint256",
          "name": "",
          "type": "uint256"
        }
      ],
      "stateMutability": "view",
      "type": "function"
    },
    {
      "inputs": [
        {
          "internalType": "bytes32",
          "name": "_ccy",
          "type": "bytes32"
        },
        {
          "internalType": "uint256",
          "name": "_maturity",
          "type": "uint256"
        },
        {
          "internalType": "address",
          "name": "_user",
          "type": "address"
        }
      ],
      "name": "getPresentValue",
      "outputs": [
        {
          "internalType": "int256",
          "name": "presentValue",
          "type": "int256"
        }
      ],
      "stateMutability": "view",
      "type": "function"
    },
    {
      "inputs": [
        {
          "internalType": "bytes32",
          "name": "_ccy",
          "type": "bytes32"
        },
        {
          "internalType": "address",
          "name": "_user",
          "type": "address"
        }
      ],
      "name": "getTotalPresentValue",
      "outputs": [
        {
          "internalType": "int256",
          "name": "totalPresentValue",
          "type": "int256"
        }
      ],
      "stateMutability": "view",
      "type": "function"
    },
    {
      "inputs": [
        {
          "internalType": "address",
          "name": "_user",
          "type": "address"
        }
      ],
      "name": "getTotalPresentValueInETH",
      "outputs": [
        {
          "internalType": "int256",
          "name": "totalPresentValue",
          "type": "int256"
        }
      ],
      "stateMutability": "view",
      "type": "function"
    },
    {
      "inputs": [
        {
          "internalType": "address",
          "name": "_user",
          "type": "address"
        }
      ],
      "name": "getUsedCurrencies",
      "outputs": [
        {
          "internalType": "bytes32[]",
          "name": "",
          "type": "bytes32[]"
        }
      ],
      "stateMutability": "view",
      "type": "function"
    },
    {
      "inputs": [
        {
          "internalType": "address",
          "name": "_owner",
          "type": "address"
        },
        {
          "internalType": "address",
          "name": "_resolver",
          "type": "address"
        },
        {
          "internalType": "uint256",
          "name": "_observationPeriod",
          "type": "uint256"
        }
      ],
      "name": "initialize",
      "outputs": [],
      "stateMutability": "nonpayable",
      "type": "function"
    },
    {
      "inputs": [
        {
          "internalType": "bytes32",
          "name": "_ccy",
          "type": "bytes32"
        },
        {
          "internalType": "uint256",
          "name": "_genesisDate",
          "type": "uint256"
        },
        {
          "internalType": "uint256",
          "name": "_compoundFactor",
          "type": "uint256"
        },
        {
          "internalType": "uint256",
          "name": "_orderFeeRate",
          "type": "uint256"
        },
        {
          "internalType": "uint256",
          "name": "_autoRollFeeRate",
          "type": "uint256"
        }
      ],
      "name": "initializeLendingMarket",
      "outputs": [],
      "stateMutability": "nonpayable",
      "type": "function"
    },
    {
      "inputs": [
        {
          "internalType": "bytes32",
          "name": "_ccy",
          "type": "bytes32"
        }
      ],
      "name": "isInitializedLendingMarket",
      "outputs": [
        {
          "internalType": "bool",
          "name": "",
          "type": "bool"
        }
      ],
      "stateMutability": "view",
      "type": "function"
    },
    {
      "inputs": [
        {
          "internalType": "address",
          "name": "_user",
          "type": "address"
        }
      ],
      "name": "isLiquidator",
      "outputs": [
        {
          "internalType": "bool",
          "name": "",
          "type": "bool"
        }
      ],
      "stateMutability": "view",
      "type": "function"
    },
    {
      "inputs": [],
      "name": "isResolverCached",
      "outputs": [
        {
          "internalType": "bool",
          "name": "",
          "type": "bool"
        }
      ],
      "stateMutability": "view",
      "type": "function"
    },
    {
      "inputs": [],
      "name": "owner",
      "outputs": [
        {
          "internalType": "address",
          "name": "",
          "type": "address"
        }
      ],
      "stateMutability": "view",
      "type": "function"
    },
    {
      "inputs": [
        {
          "internalType": "bytes32",
          "name": "_ccy",
          "type": "bytes32"
        }
      ],
      "name": "pauseLendingMarkets",
      "outputs": [
        {
          "internalType": "bool",
          "name": "",
          "type": "bool"
        }
      ],
      "stateMutability": "nonpayable",
      "type": "function"
    },
    {
      "inputs": [
        {
          "internalType": "bool",
          "name": "_isLiquidator",
          "type": "bool"
        }
      ],
      "name": "registerLiquidator",
      "outputs": [],
      "stateMutability": "nonpayable",
      "type": "function"
    },
    {
      "inputs": [],
      "name": "renounceOwnership",
      "outputs": [],
      "stateMutability": "nonpayable",
      "type": "function"
    },
    {
      "inputs": [],
      "name": "requiredContracts",
      "outputs": [
        {
          "internalType": "bytes32[]",
          "name": "contracts",
          "type": "bytes32[]"
        }
      ],
      "stateMutability": "pure",
      "type": "function"
    },
    {
      "inputs": [],
      "name": "resolver",
      "outputs": [
        {
          "internalType": "contract IAddressResolver",
          "name": "",
          "type": "address"
        }
      ],
      "stateMutability": "view",
      "type": "function"
    },
    {
      "inputs": [
        {
          "internalType": "bytes32",
          "name": "_ccy",
          "type": "bytes32"
        }
      ],
      "name": "rotateLendingMarkets",
      "outputs": [],
      "stateMutability": "nonpayable",
      "type": "function"
    },
    {
      "inputs": [
        {
          "internalType": "address",
          "name": "newOwner",
          "type": "address"
        }
      ],
      "name": "transferOwnership",
      "outputs": [],
      "stateMutability": "nonpayable",
      "type": "function"
    },
    {
      "inputs": [
        {
          "internalType": "bytes32",
          "name": "_ccy",
          "type": "bytes32"
        }
      ],
      "name": "unpauseLendingMarkets",
      "outputs": [
        {
          "internalType": "bool",
          "name": "",
          "type": "bool"
        }
      ],
      "stateMutability": "nonpayable",
      "type": "function"
    },
    {
      "inputs": [
        {
          "internalType": "bytes32",
          "name": "_ccy",
          "type": "bytes32"
        },
        {
          "internalType": "uint256",
          "name": "_maturity",
          "type": "uint256"
        }
      ],
      "name": "unwindOrder",
      "outputs": [
        {
          "internalType": "bool",
          "name": "",
          "type": "bool"
        }
      ],
      "stateMutability": "nonpayable",
      "type": "function"
    },
    {
      "inputs": [
        {
          "internalType": "bytes32",
          "name": "_ccy",
          "type": "bytes32"
        },
        {
          "internalType": "uint256",
          "name": "_autoRollFeeRate",
          "type": "uint256"
        }
      ],
      "name": "updateAutoRollFeeRate",
      "outputs": [],
      "stateMutability": "nonpayable",
      "type": "function"
    },
    {
      "inputs": [
        {
          "internalType": "uint256",
          "name": "_observationPeriod",
          "type": "uint256"
        }
      ],
      "name": "updateObservationPeriod",
      "outputs": [],
      "stateMutability": "nonpayable",
      "type": "function"
    },
    {
      "inputs": [
        {
          "internalType": "bytes32",
          "name": "_ccy",
          "type": "bytes32"
        },
        {
          "internalType": "uint256",
          "name": "_orderFeeRate",
          "type": "uint256"
        }
      ],
      "name": "updateOrderFeeRate",
      "outputs": [],
      "stateMutability": "nonpayable",
      "type": "function"
    }
  ],
  "transactionHash": "0x3f277fac8c4b02a458ca228bd4979f0432259faac01c6420f6092bbe8099c7e4",
  "args": [],
  "numDeployments": 8,
  "solcInputHash": "a58832c4d44af4e2e79c8873b8be9904",
  "bytecode": "0x608060405234801561001057600080fd5b50600160005561590180620000266000396000f3fe6080604052600436106102e45760003560e01c8063766cb64e11610190578063cb9d7401116100dc578063eb092a2611610095578063f2fde38b1161006f578063f2fde38b1461097d578063faca409b1461099d578063fb54a6b3146109bd578063fc700810146109dd57600080fd5b8063eb092a261461091b578063ebb914161461093b578063f1eaebae1461095b57600080fd5b8063cb9d74011461084c578063cc03348b14610886578063e0997659146108a6578063e906c100146108bb578063e95dc183146108db578063e99d0538146108fb57600080fd5b80638c197d8d11610149578063a02be3dc11610123578063a02be3dc146107d9578063b3cb8450146107f9578063bfd10cf614610819578063bfe61a281461083957600080fd5b80638c197d8d146107845780638da5cb5b146107a4578063953dbcaa146107b957600080fd5b8063766cb64e146106c457806385323e1a146106e4578063870cf8ab14610704578063891d5965146107245780638a981745146107445780638b36d8331461076457600080fd5b80632e77aea71161024f578063529a356f116102085780635ca65d57116101e25780635ca65d571461064f57806370c641a61461066f578063715018a61461068f57806372d563ef146106a457600080fd5b8063529a356f146105ad57806355aceb4e146105cd5780635c347765146105fa57600080fd5b80632e77aea7146104eb5780632f7495741461050b578063381ada1f1461052b5780633d03b9da14610558578063448255c71461057a57806349f2ccbf1461058d57600080fd5b80631deb8f39116102a15780631deb8f39146104315780632236526114610461578063268bb2791461048157806329985e5a146104a15780632af64bd3146104b65780632e6c5e67146104cb57600080fd5b80630312b528146102e957806303e5fb591461034b57806304f3bcec146103935780630594de6e146103c05780631794bb3c146103ef57806317b72ff414610411575b600080fd5b3480156102f557600080fd5b50610309610304366004614b63565b6109fd565b604080519889526020890197909752958701949094526060860192909252608085015260a084015260c0830152151560e0820152610100015b60405180910390f35b34801561035757600080fd5b50610385610366366004614b98565b600090815260008051602061588c833981519152602052604090205490565b604051908152602001610342565b34801561039f57600080fd5b506103a8610ab2565b6040516001600160a01b039091168152602001610342565b3480156103cc57600080fd5b506103e06103db366004614bb1565b610ad3565b60405161034293929190614c18565b3480156103fb57600080fd5b5061040f61040a366004614c5b565b610b92565b005b34801561041d57600080fd5b5061038561042c366004614c9c565b610d1c565b34801561043d57600080fd5b5061045161044c366004614ccc565b610db1565b6040519015158152602001610342565b34801561046d57600080fd5b5061045161047c366004614cee565b61128e565b34801561048d57600080fd5b5061040f61049c366004614d5a565b611583565b3480156104ad57600080fd5b5061040f61159e565b3480156104c257600080fd5b5061045161174b565b3480156104d757600080fd5b506104516104e6366004614b98565b6118b1565b3480156104f757600080fd5b50610385610506366004614d77565b6118d1565b34801561051757600080fd5b5061040f610526366004614ccc565b611967565b34801561053757600080fd5b5061054b610546366004614b98565b611a6a565b6040516103429190614db0565b34801561056457600080fd5b5061056d611adf565b6040516103429190614dfd565b610451610588366004614e42565b611c01565b34801561059957600080fd5b506104516105a8366004614e8b565b611d0d565b3480156105b957600080fd5b506104516105c8366004614ec4565b611ea7565b3480156105d957600080fd5b506105ed6105e8366004614b98565b611eb8565b6040516103429190614ee1565b34801561060657600080fd5b5061061a610615366004614c9c565b612020565b604080519788526020880196909652948601939093526060850191909152608084015260a083015260c082015260e001610342565b34801561065b57600080fd5b5061040f61066a366004614ccc565b61210b565b34801561067b57600080fd5b5061038561068a366004614c9c565b6121fd565b34801561069b57600080fd5b5061040f612295565b3480156106b057600080fd5b5061040f6106bf366004614ccc565b6122d0565b3480156106d057600080fd5b5061040f6106df366004614ef4565b612410565b3480156106f057600080fd5b506103a86106ff366004614ccc565b612567565b34801561071057600080fd5b5061040f61071f366004614ec4565b6125c9565b34801561073057600080fd5b5061038561073f366004614b98565b612628565b34801561075057600080fd5b506103a861075f366004614ccc565b612646565b34801561077057600080fd5b5061040f61077f366004614b98565b612678565b34801561079057600080fd5b5061040f61079f366004614b98565b6128b9565b3480156107b057600080fd5b506103a86128f1565b3480156107c557600080fd5b506103e06107d4366004614bb1565b612919565b3480156107e557600080fd5b506105ed6107f4366004614b98565b612978565b34801561080557600080fd5b50610451610814366004614b98565b612ad9565b34801561082557600080fd5b506105ed610834366004614b98565b612bd7565b610451610847366004614e42565b612d38565b34801561085857600080fd5b50610385610867366004614b98565b60009081526000805160206158ac833981519152602052604090205490565b34801561089257600080fd5b506104516108a1366004614f9a565b612dc0565b3480156108b257600080fd5b5061056d612e35565b3480156108c757600080fd5b506103856108d6366004614d77565b612e78565b3480156108e757600080fd5b506103856108f6366004614c9c565b612f11565b34801561090757600080fd5b50610451610916366004614b98565b61340c565b34801561092757600080fd5b506105ed610936366004614b98565b613501565b34801561094757600080fd5b50610451610956366004614e42565b613662565b34801561096757600080fd5b5060008051602061584c83398151915254610385565b34801561098957600080fd5b5061040f610998366004614ec4565b613939565b3480156109a957600080fd5b506104516109b8366004614e42565b6139d6565b3480156109c957600080fd5b506103856109d8366004614ec4565b613a63565b3480156109e957600080fd5b5061056d6109f8366004614ec4565b613bed565b6000806000806000806000807331908aa622b1f7846a78857D3bB650d8ED61e2dE630312b5288c8c8c6040518463ffffffff1660e01b8152600401610a4493929190615036565b6101006040518083038186803b158015610a5d57600080fd5b505af4158015610a71573d6000803e3d6000fd5b505050506040513d601f19601f82011682018060405250810190610a959190615057565b975097509750975097509750975097509397509397509397509397565b600060008051602061586c8339815191525b546001600160a01b0316919050565b60608060606000610ae2613c1b565b600088815260029190910160209081526040808320898452909152908190205490516325fb168b60e11b8152600481018790526001600160a01b0390911691508190634bf62d16906024015b60006040518083038186803b158015610b4657600080fd5b505afa158015610b5a573d6000803e3d6000fd5b505050506040513d6000823e601f3d908101601f19168201604052610b829190810190615127565b9350935093505093509350939050565b600154610100900460ff1615808015610baf57506001805460ff16105b80610bc85750303b158015610bc857506001805460ff16145b610c305760405162461bcd60e51b815260206004820152602e60248201527f496e697469616c697a61626c653a20636f6e747261637420697320616c72656160448201526d191e481a5b9a5d1a585b1a5e995960921b60648201526084015b60405180910390fd5b6001805460ff1916811790558015610c52576001805461ff0019166101001790555b6000610c5c613c3f565b6001600160a01b03161415610cbe5760405162461bcd60e51b815260206004820152602260248201527f4d7573742062652063616c6c65642066726f6d2070726f787920636f6e74726160448201526118dd60f21b6064820152608401610c27565b610cc88483613c67565b610cd183613c79565b8015610d16576001805461ff00191681556040519081527f7f26b83ff96e1f2b6a682f133852f6798a09c465da95921460cefb38474024989060200160405180910390a15b50505050565b6040516295a47160e71b81526000907331908aa622b1f7846a78857D3bB650d8ED61e2dE90634ad2388090610d59908690859087906004016151af565b60e06040518083038186803b158015610d7157600080fd5b505af4158015610d85573d6000803e3d6000fd5b505050506040513d601f19601f82011682018060405250810190610da991906151ce565b519392505050565b600060026000541415610dd65760405162461bcd60e51b8152600401610c2790615252565b6002600090815583908390610de9613c1b565b6000848152600291909101602090815260408083208584529091529020546001600160a01b03161415610e2e5760405162461bcd60e51b8152600401610c2790615289565b610e388533612f11565b506000610e43613c1b565b6000878152600291909101602090815260408083208884529091528120546001600160a01b0316915080610e75613c1b565b6000898152600191909101602090815260408083206001600160a01b03878116855292529182902054915163070da1af60e11b8152336004820152911690630e1b435e90602401604080518083038186803b158015610ed357600080fd5b505afa158015610ee7573d6000803e3d6000fd5b505050506040513d601f19601f82011682018060405250810190610f0b91906152b3565b915091508160001415610f575760405162461bcd60e51b81526020600482015260146024820152734675747572652056616c7565206973207a65726f60601b6044820152606401610c27565b808714610f765760405162461bcd60e51b8152600401610c2790615289565b600080600080600086131561104357506001610f90613c1b565b60008d8152600291909101602090815260408083208e84529091529020546001600160a01b0316634c2afa2e8233610fc78a613d0e565b6040518463ffffffff1660e01b8152600401610fe5939291906152f9565b606060405180830381600087803b158015610fff57600080fd5b505af1158015611013573d6000803e3d6000fd5b505050506040513d601f19601f820116820180604052508101906110379190615321565b9195509350915061110e565b600086121561110e57506000611057613c1b565b60008d8152600291909101602090815260408083208e84529091529020546001600160a01b0316634c2afa2e82336110966110918b615365565b613d0e565b6040518463ffffffff1660e01b81526004016110b4939291906152f9565b606060405180830381600087803b1580156110ce57600080fd5b505af11580156110e2573d6000803e3d6000fd5b505050506040513d601f19601f820116820180604052508101906111069190615321565b919550935091505b821561127657604051633df3a23760e01b81527331908aa622b1f7846a78857D3bB650d8ED61e2dE90633df3a23790611158908f908f903390879089908b90600090600401615382565b60006040518083038186803b15801561117057600080fd5b505af4158015611184573d6000803e3d6000fd5b505050508a8c336001600160a01b03167ff58abb58bdd84b485930c24ec5e99ec42b56c04c021af823afb6ae78aa244bcc84876000886040516111ca94939291906153ca565b60405180910390a47341C8d12624cD955a94fDA3E52a7aF332b7BE152163e88e18378d8d61120460008051602061584c8339815191525490565b6040516001600160e01b031960e086901b168152600481019390935260248301919091526044820152606481018790526084810186905260a4810185905260c40160006040518083038186803b15801561125d57600080fd5b505af4158015611271573d6000803e3d6000fd5b505050505b60019950505050505050505050600160005592915050565b6000600260005414156112b35760405162461bcd60e51b8152600401610c2790615252565b60026000908155859085906112c6613c1b565b6000848152600291909101602090815260408083208584529091529020546001600160a01b0316141561130b5760405162461bcd60e51b8152600401610c2790615289565b333b1561134f5760405162461bcd60e51b815260206004820152601260248201527143616c6c6572206d75737420626520454f4160701b6044820152606401610c27565b61135833613d64565b61139b5760405162461bcd60e51b815260206004820152601460248201527343616c6c6572206973206e6f742061637469766560601b6044820152606401610c27565b6113a58786612f11565b50604051639c599f8b60e01b81523360048201526001600160a01b038616602482015260448101899052606481018890526084810187905262ffffff851660a482015260009081907331908aa622b1f7846a78857D3bB650d8ED61e2dE90639c599f8b9060c401604080518083038186803b15801561142357600080fd5b505af4158015611437573d6000803e3d6000fd5b505050506040513d601f19601f8201168201806040525081019061145b91906152b3565b909250905080821561148b57600061147b8b8b8b60008860006001613da1565b905061148781836153f3565b9150505b801561156c57888a896001600160a01b03167f347d8f9576f47b3bd7a4821cd3d3d4171968cdd36680d4abaca7de302d836f998e856040516114d7929190918252602082015260400190565b60405180910390a460405163300074c960e01b81527331908aa622b1f7846a78857D3bB650d8ED61e2dE9063300074c99061151a908d908d908d906004016151af565b60206040518083038186803b15801561153257600080fd5b505af4158015611546573d6000803e3d6000fd5b505050506040513d601f19601f8201168201806040525081019061156a919061540b565b505b600195505050505050600160005595945050505050565b80156115955761159233614223565b50565b61159233614252565b60006115a8611adf565b905060005b81518110156117475760008282815181106115ca576115ca615424565b6020026020010151905060006115eb60008051602061586c83398151915290565b54604080517f5265736f6c766572206d697373696e67207461726765743a200000000000000060208201526039808201869052825180830390910181526059820192839052636795dbcd60e01b9092526001600160a01b0390921691636795dbcd9161165c91869190605d01615487565b60206040518083038186803b15801561167457600080fd5b505afa158015611688573d6000803e3d6000fd5b505050506040513d601f19601f820116820180604052508101906116ac91906154a8565b60008381527f4abde63c3e81aefa5764b017968bc473e83e093d7e1a10247d19e0a3e4124019602090815260409182902080546001600160a01b0319166001600160a01b03851690811790915582518681529182015281519293507f88a93678a3692f6789d9546fc621bf7234b101ddb7d4fe479455112831b8aa68929081900390910190a15050808061173f906154c5565b9150506115ad565b5050565b600080611756611adf565b905060005b81518110156118a857600082828151811061177857611778615424565b6020026020010151905061179760008051602061586c83398151915290565b600082815260019190910160205260409020546001600160a01b031660008051602061586c833981519152546040516321f8a72160e01b8152600481018490526001600160a01b03909116906321f8a7219060240160206040518083038186803b15801561180457600080fd5b505afa158015611818573d6000803e3d6000fd5b505050506040513d601f19601f8201168201806040525081019061183c91906154a8565b6001600160a01b0316141580611886575060008181527f4abde63c3e81aefa5764b017968bc473e83e093d7e1a10247d19e0a3e412401960205260409020546001600160a01b0316155b15611895576000935050505090565b50806118a0816154c5565b91505061175b565b50600191505090565b60006118bb613c1b565b6000928352600301602052506040902054151590565b6040516295a47160e71b81526000907331908aa622b1f7846a78857D3bB650d8ED61e2dE90634ad238809061190e908790879087906004016151af565b60e06040518083038186803b15801561192657600080fd5b505af415801561193a573d6000803e3d6000fd5b505050506040513d601f19601f8201168201806040525081019061195e91906151ce565b51949350505050565b336119706128f1565b6001600160a01b0316146119965760405162461bcd60e51b8152600401610c27906154e0565b6127108111156119e85760405162461bcd60e51b815260206004820152601a60248201527f496e76616c6964206175746f2d726f6c6c2066656520726174650000000000006044820152606401610c27565b60008281526000805160206158ac8339815191526020526040902054818114611a655760008381526000805160206158ac833981519152602090815260409182902084905581518381529081018490527fdfbb9051e39a726dacd506a01fecef2277ab8adc7423037867c554573f179fdb91015b60405180910390a15b505050565b6060611a74613c1b565b6000838152602091825260409081902080548251818502810185019093528083529192909190830182828015611ad357602002820191906000526020600020905b81546001600160a01b03168152600190910190602001808311611ab5575b50505050509050919050565b60408051600580825260c082019092526060916020820160a080368337019050509050742132b0b1b7b7283937bc3ca1b7b73a3937b63632b960591b81600081518110611b2e57611b2e615424565b6020026020010181815250507121bab93932b731bca1b7b73a3937b63632b960711b81600181518110611b6357611b63615424565b6020026020010181815250507011d95b995cda5cd5985b1d5955985d5b1d607a1b81600281518110611b9757611b97615424565b6020026020010181815250506a14995cd95c9d99519d5b9960aa1b81600381518110611bc557611bc5615424565b60200260200101818152505069151bdad95b95985d5b1d60b21b81600481518110611bf257611bf2615424565b60200260200101818152505090565b600060026000541415611c265760405162461bcd60e51b8152600401610c2790615252565b6002600090815586908690611c39613c1b565b6000848152600291909101602090815260408083208584529091529020546001600160a01b03161415611c7e5760405162461bcd60e51b8152600401610c2790615289565b611c86614268565b6001600160a01b03166396994e3734338b896040518563ffffffff1660e01b8152600401611cb693929190615036565b6000604051808303818588803b158015611ccf57600080fd5b505af1158015611ce3573d6000803e3d6000fd5b5050505050611cf88888338989896000613da1565b50600192505050600160005595945050505050565b600060026000541415611d325760405162461bcd60e51b8152600401610c2790615252565b6002600090815584908490611d45613c1b565b6000848152600291909101602090815260408083208584529091529020546001600160a01b03161415611d8a5760405162461bcd60e51b8152600401610c2790615289565b6000611d94613c1b565b60008881526002919091016020908152604080832089845290915280822054905163504b89bd60e01b815233600482015265ffffffffffff881660248201526001600160a01b03909116925081908190849063504b89bd90604401606060405180830381600087803b158015611e0957600080fd5b505af1158015611e1d573d6000803e3d6000fd5b505050506040513d601f19601f82011682018060405250810190611e419190615515565b92509250925089336001600160a01b03167f4d71330c358e4f44590905c3373d1e04529d36b64e552c5cb51813ef62d120d78a868d8787604051611e8995949392919061554c565b60405180910390a36001965050505050505060016000559392505050565b6000611eb282614277565b92915050565b60606000611ec4613c1b565b6000848152602091909152604090205467ffffffffffffffff811115611eec57611eec614f2f565b604051908082528060200260200182016040528015611f15578160200160208202803683370190505b50905060005b611f23613c1b565b60008581526020919091526040902054811015612019576000611f44613c1b565b600086815260209190915260409020805483908110611f6557611f65615424565b6000918252602091829020015460408051631b3508b760e01b815290516001600160a01b0390921693508392631b3508b792600480840193829003018186803b158015611fb157600080fd5b505afa158015611fc5573d6000803e3d6000fd5b505050506040513d601f19601f82011682018060405250810190611fe9919061540b565b838381518110611ffb57611ffb615424565b60209081029190910101525080612011816154c5565b915050611f1b565b5092915050565b600080600080600080600061205989612037613c1b565b6001600160a01b038b16600090815260049190910160205260409020906142a1565b156120ff57604051635c34776560e01b8152600481018a90526001600160a01b03891660248201527331908aa622b1f7846a78857D3bB650d8ED61e2dE90635c3477659060440160e06040518083038186803b1580156120b857600080fd5b505af41580156120cc573d6000803e3d6000fd5b505050506040513d601f19601f820116820180604052508101906120f09190615584565b96509650965096509650965096505b92959891949750929550565b336121146128f1565b6001600160a01b03161461213a5760405162461bcd60e51b8152600401610c27906154e0565b6127108111156121855760405162461bcd60e51b8152602060048201526016602482015275496e76616c6964206f7264657220666565207261746560501b6044820152606401610c27565b600082815260008051602061588c8339815191526020526040902054818114611a6557600083815260008051602061588c833981519152602090815260409182902084905581518381529081018490527fff4528c215dc00005504418aa82be3bb2439c39be2eb30fd44012f5e79d168e29101611a5c565b6040516295a47160e71b81526000907331908aa622b1f7846a78857D3bB650d8ED61e2dE90634ad238809061223a908690859087906004016151af565b60e06040518083038186803b15801561225257600080fd5b505af4158015612266573d6000803e3d6000fd5b505050506040513d601f19601f8201168201806040525081019061228a91906151ce565b60c001519392505050565b3361229e6128f1565b6001600160a01b0316146122c45760405162461bcd60e51b8152600401610c27906154e0565b6122ce60006142bc565b565b336122d96128f1565b6001600160a01b0316146122ff5760405162461bcd60e51b8152600401610c27906154e0565b6040516372d563ef60e01b81526004810183905260248101829052600090819081907341C8d12624cD955a94fDA3E52a7aF332b7BE1521906372d563ef9060440160606040518083038186803b15801561235857600080fd5b505af415801561236c573d6000803e3d6000fd5b505050506040513d601f19601f8201168201806040525081019061239091906155d8565b925092509250826001600160a01b0316857fc29f3eef4e596f3e26da74f3482ffe2325449509e985d19f0a099240429add4e846123cb613c1b565b60008a815260209182526040908190205481516001600160a01b0390941684529183019190915281018890526060810185905260800160405180910390a35050505050565b336124196128f1565b6001600160a01b03161461243f5760405162461bcd60e51b8152600401610c27906154e0565b6000831161248f5760405162461bcd60e51b815260206004820152601760248201527f496e76616c696420636f6d706f756e6420666163746f720000000000000000006044820152606401610c27565b612498856118b1565b156124db5760405162461bcd60e51b8152602060048201526013602482015272105b1c9958591e481a5b9a5d1a585b1a5e9959606a1b6044820152606401610c27565b60405163d3f43b7960e01b81526004810186905260248101859052604481018490527341C8d12624cD955a94fDA3E52a7aF332b7BE15219063d3f43b799060640160006040518083038186803b15801561253457600080fd5b505af4158015612548573d6000803e3d6000fd5b50505050612556858361210b565b6125608582611967565b5050505050565b6000612571613c1b565b6000848152600191909101602052604081209061258c613c1b565b600095865260020160209081526040808720958752948152848620546001600160a01b039081168352908201929092529092019092205416919050565b60006125d3613c1b565b6001600160a01b03831660009081526004919091016020526040812091505b6125fb8261432d565b811015611a655761261561260f8383614337565b84612f11565b5080612620816154c5565b9150506125f2565b6000612632613c1b565b600092835260030160205250604090205490565b6000612650613c1b565b600093845260020160209081526040808520938552929052509020546001600160a01b031690565b6002600054141561269b5760405162461bcd60e51b8152600401610c2790615252565b6002600090815581906126ac613c1b565b60008381526020919091526040902054116127225760405162461bcd60e51b815260206004820152603060248201527f4e6f206c656e64696e67206d61726b65747320657869737420666f722061207360448201526f706563696669632063757272656e637960801b6064820152608401610c27565b6000807341C8d12624cD955a94fDA3E52a7aF332b7BE152163a3d54d8c856127638760009081526000805160206158ac833981519152602052604090205490565b6040516001600160e01b031960e085901b16815260048101929092526024820152604401604080518083038186803b15801561279e57600080fd5b505af41580156127b2573d6000803e3d6000fd5b505050506040513d601f19601f820116820180604052508101906127d691906152b3565b915091507331908aa622b1f7846a78857D3bB650d8ED61e2dE63300074c985836127fe614343565b6040518463ffffffff1660e01b815260040161281c939291906151af565b60206040518083038186803b15801561283457600080fd5b505af4158015612848573d6000803e3d6000fd5b505050506040513d601f19601f8201168201806040525081019061286c919061540b565b5060408051858152602081018490529081018290527f0c6f5a3bc801362dc3d24c87799fa831f5a601c5dbd8bed4064907844eef97369060600160405180910390a1505060016000555050565b336128c26128f1565b6001600160a01b0316146128e85760405162461bcd60e51b8152600401610c27906154e0565b6115928161434d565b60007f9acda75aebd150dd434541a4747a6dc606f4f1a59662477e67daf1fc0bf9e0aa610ac4565b60608060606000612928613c1b565b6000888152600291909101602090815260408083208984529091529081902054905163d866d35560e01b8152600481018790526001600160a01b039091169150819063d866d35590602401610b2e565b60606000612984613c1b565b6000848152602091909152604090205467ffffffffffffffff8111156129ac576129ac614f2f565b6040519080825280602002602001820160405280156129d5578160200160208202803683370190505b50905060005b6129e3613c1b565b60008581526020919091526040902054811015612019576000612a04613c1b565b600086815260209190915260409020805483908110612a2557612a25615424565b600091825260209182902001546040805163e16695b560e01b815290516001600160a01b039092169350839263e16695b592600480840193829003018186803b158015612a7157600080fd5b505afa158015612a85573d6000803e3d6000fd5b505050506040513d601f19601f82011682018060405250810190612aa9919061540b565b838381518110612abb57612abb615424565b60209081029190910101525080612ad1816154c5565b9150506129db565b600033612ae46128f1565b6001600160a01b031614612b0a5760405162461bcd60e51b8152600401610c27906154e0565b60005b612b15613c1b565b60008481526020919091526040902054811015612bce576000612b36613c1b565b600085815260209190915260409020805483908110612b5757612b57615424565b60009182526020822001546040805163280dce3760e21b815290516001600160a01b039092169350839263a03738dc9260048084019382900301818387803b158015612ba257600080fd5b505af1158015612bb6573d6000803e3d6000fd5b50505050508080612bc6906154c5565b915050612b0d565b50600192915050565b60606000612be3613c1b565b6000848152602091909152604090205467ffffffffffffffff811115612c0b57612c0b614f2f565b604051908082528060200260200182016040528015612c34578160200160208202803683370190505b50905060005b612c42613c1b565b60008581526020919091526040902054811015612019576000612c63613c1b565b600086815260209190915260409020805483908110612c8457612c84615424565b60009182526020918290200154604080516371613c2d60e01b815290516001600160a01b03909216935083926371613c2d92600480840193829003018186803b158015612cd057600080fd5b505afa158015612ce4573d6000803e3d6000fd5b505050506040513d601f19601f82011682018060405250810190612d08919061540b565b838381518110612d1a57612d1a615424565b60209081029190910101525080612d30816154c5565b915050612c3a565b6000612d42614268565b6001600160a01b03166396994e37343389876040518563ffffffff1660e01b8152600401612d7293929190615036565b6000604051808303818588803b158015612d8b57600080fd5b505af1158015612d9f573d6000803e3d6000fd5b5050505050612db18686868686613662565b50600190505b95945050505050565b60405163cc03348b60e01b81526000907341C8d12624cD955a94fDA3E52a7aF332b7BE15219063cc03348b90612dfc908690869060040161561b565b60006040518083038186803b158015612e1457600080fd5b505af4158015612e28573d6000803e3d6000fd5b5060019695505050505050565b6040805160018082528183019092526060916020808301908036833701905050905069151bdad95b95985d5b1d60b21b81600081518110611bf257611bf2615424565b6040516295a47160e71b81526000907331908aa622b1f7846a78857D3bB650d8ED61e2dE90634ad2388090612eb5908790879087906004016151af565b60e06040518083038186803b158015612ecd57600080fd5b505af4158015612ee1573d6000803e3d6000fd5b505050506040513d601f19601f82011682018060405250810190612f0591906151ce565b60200151949350505050565b604051635b0f7aad60e11b8152600481018390526001600160a01b0382166024820152600090819081907331908aa622b1f7846a78857D3bB650d8ED61e2dE9063b61ef55a9060440160006040518083038186803b158015612f7257600080fd5b505af4158015612f86573d6000803e3d6000fd5b505050506040513d6000823e601f3d908101601f19168201604052612fae9190810190615663565b905060005b815181101561332f576000612fc6613c1b565b60020160008881526020019081526020016000206000848481518110612fee57612fee615424565b6020026020010151815260200190815260200160002060009054906101000a90046001600160a01b031690506000816001600160a01b031663e16695b56040518163ffffffff1660e01b815260040160206040518083038186803b15801561305557600080fd5b505afa158015613069573d6000803e3d6000fd5b505050506040513d601f19601f8201168201806040525081019061308d919061540b565b905060007331908aa622b1f7846a78857D3bB650d8ED61e2dE63300074c98a848b6040518463ffffffff1660e01b81526004016130cc939291906151af565b60206040518083038186803b1580156130e457600080fd5b505af41580156130f8573d6000803e3d6000fd5b505050506040513d601f19601f8201168201806040525081019061311c919061540b565b905060008061312c8b858c6143b5565b909250905061313b828a6153f3565b985080156131d15760405163300074c960e01b81527331908aa622b1f7846a78857D3bB650d8ED61e2dE9063300074c99061317e908e9088908f906004016151af565b60206040518083038186803b15801561319657600080fd5b505af41580156131aa573d6000803e3d6000fd5b505050506040513d601f19601f820116820180604052508101906131ce919061540b565b92505b82156131dc57600197505b821580156131e8575081155b156132595761325787878151811061320257613202615424565b6020026020010151613212613c1b565b60050160008e815260200190815260200160002060008d6001600160a01b03166001600160a01b0316815260200190815260200160002061476390919063ffffffff16565b505b61326161476f565b6001600160a01b031663eeac29d88c8c60018b5161327f9190615698565b8a146132ae578a6132918b60016153f3565b815181106132a1576132a1615424565b60200260200101516132b1565b60005b6040516001600160e01b031960e086901b16815260048101939093526001600160a01b0390911660248301526044820152606401600060405180830381600087803b1580156132ff57600080fd5b505af1158015613313573d6000803e3d6000fd5b5050505050505050508080613327906154c5565b915050612fb3565b508215801561333c575081155b80156133cf575061334b61476f565b60405163386320d360e11b8152600481018790526001600160a01b03868116602483015291909116906370c641a69060440160206040518083038186803b15801561339557600080fd5b505afa1580156133a9573d6000803e3d6000fd5b505050506040513d601f19601f820116820180604052508101906133cd919061540b565b155b1561340457613402856133e0613c1b565b6001600160a01b03871660009081526004919091016020526040902090614763565b505b505092915050565b6000336134176128f1565b6001600160a01b03161461343d5760405162461bcd60e51b8152600401610c27906154e0565b60005b613448613c1b565b60008481526020919091526040902054811015612bce576000613469613c1b565b60008581526020919091526040902080548390811061348a5761348a615424565b600091825260208220015460408051630b0863e760e11b815290516001600160a01b0390921693508392631610c7ce9260048084019382900301818387803b1580156134d557600080fd5b505af11580156134e9573d6000803e3d6000fd5b505050505080806134f9906154c5565b915050613440565b6060600061350d613c1b565b6000848152602091909152604090205467ffffffffffffffff81111561353557613535614f2f565b60405190808252806020026020018201604052801561355e578160200160208202803683370190505b50905060005b61356c613c1b565b6000858152602091909152604090205481101561201957600061358d613c1b565b6000868152602091909152604090208054839081106135ae576135ae615424565b6000918252602091829020015460408051632f05aa6d60e11b815290516001600160a01b0390921693508392635e0b54da92600480840193829003018186803b1580156135fa57600080fd5b505afa15801561360e573d6000803e3d6000fd5b505050506040513d601f19601f82011682018060405250810190613632919061540b565b83838151811061364457613644615424565b6020908102919091010152508061365a816154c5565b915050613564565b6000600260005414156136875760405162461bcd60e51b8152600401610c2790615252565b600260009081558690869061369a613c1b565b6000848152600291909101602090815260408083208584529091529020546001600160a01b031614156136df5760405162461bcd60e51b8152600401610c2790615289565b60006136eb8933612f11565b905060146136fa8260016153f3565b11156137415760405162461bcd60e51b8152602060048201526016602482015275546f6f206d616e7920616374697665206f726465727360501b6044820152606401610c27565b6137708861374d613c1b565b60008c8152600591909101602090815260408083203384529091529020906142a1565b6137a5576137a388613780613c1b565b60008c815260059190910160209081526040808320338452909152902090614779565b505b6137ad614268565b6001600160a01b03166328ff7a42338b898b6040518563ffffffff1660e01b81526004016137de94939291906156af565b60206040518083038186803b1580156137f657600080fd5b505afa15801561380a573d6000803e3d6000fd5b505050506040513d601f19601f8201168201806040525081019061382e91906156da565b6138725760405162461bcd60e51b8152602060048201526015602482015274139bdd08195b9bdd59da0818dbdb1b185d195c985b605a1b6044820152606401610c27565b61387a613c1b565b60008a8152600291909101602090815260408083208b8452909152908190205490516328378aab60e01b81526001600160a01b03909116906328378aab906138cc908a9033908b908b906004016156f7565b600060405180830381600087803b1580156138e657600080fd5b505af11580156138fa573d6000803e3d6000fd5b505050506139238961390a613c1b565b3360009081526004919091016020526040902090614779565b5060019350505050600160005595945050505050565b336139426128f1565b6001600160a01b0316146139685760405162461bcd60e51b8152600401610c27906154e0565b6001600160a01b0381166139cd5760405162461bcd60e51b815260206004820152602660248201527f4f776e61626c653a206e6577206f776e657220697320746865207a65726f206160448201526564647265737360d01b6064820152608401610c27565b611592816142bc565b6000600260005414156139fb5760405162461bcd60e51b8152600401610c2790615252565b6002600090815586908690613a0e613c1b565b6000848152600291909101602090815260408083208584529091529020546001600160a01b03161415613a535760405162461bcd60e51b8152600401610c2790615289565b611cf88888338989896000613da1565b600080613a6e613c1b565b6001600160a01b03841660009081526004919091016020526040812091505b613a968261432d565b811015613be6576000613aa98383614337565b905060007331908aa622b1f7846a78857D3bB650d8ED61e2dE634ad23880836000896040518463ffffffff1660e01b8152600401613ae9939291906151af565b60e06040518083038186803b158015613b0157600080fd5b505af4158015613b15573d6000803e3d6000fd5b505050506040513d601f19601f82011682018060405250810190613b3991906151ce565b519050613b44614785565b6040516303a0a22f60e41b815260048101849052602481018390526001600160a01b039190911690633a0a22f09060440160206040518083038186803b158015613b8d57600080fd5b505afa158015613ba1573d6000803e3d6000fd5b505050506040513d601f19601f82011682018060405250810190613bc5919061540b565b613bcf9086615729565b945050508080613bde906154c5565b915050613a8d565b5050919050565b6060611eb2613bfa613c1b565b6001600160a01b03841660009081526004919091016020526040902061478f565b7f8041b8421ebd495cc61f38c788c9eb100daccf9bd36aa0bb920b7a15b2e0496590565b60007f360894a13ba1a3210667c828492db98dca3e2076cc3735a920a3ca505d382bbc610ac4565b613c70826142bc565b6117478161434d565b60008051602061586c833981519152546001600160a01b031615613cdf5760405162461bcd60e51b815260206004820152601b60248201527f7265736f6c766572207265676973746572656420616c726561647900000000006044820152606401610c27565b60008051602061586c83398151915280546001600160a01b0319166001600160a01b0392909216919091179055565b600080821215613d605760405162461bcd60e51b815260206004820181905260248201527f53616665436173743a2076616c7565206d75737420626520706f7369746976656044820152606401610c27565b5090565b6000613d6f82614277565b8015611eb25750506001600160a01b0316600090815260008051602061582c8339815191526020526040902054431190565b6000808411613de35760405162461bcd60e51b815260206004820152600e60248201526d125b9d985b1a5908185b5bdd5b9d60921b6044820152606401610c27565b6000613def8988612f11565b9050613e2988613dfd613c1b565b60008c8152600591909101602090815260408083206001600160a01b038d1684529091529020906142a1565b613e6757613e6588613e39613c1b565b60008c8152600591909101602090815260408083206001600160a01b038d168452909152902090614779565b505b82613f3957613e74614268565b6001600160a01b03166328ff7a42888b888a6040518563ffffffff1660e01b8152600401613ea594939291906156af565b60206040518083038186803b158015613ebd57600080fd5b505afa158015613ed1573d6000803e3d6000fd5b505050506040513d601f19601f82011682018060405250810190613ef591906156da565b613f395760405162461bcd60e51b8152602060048201526015602482015274139bdd08195b9bdd59da0818dbdb1b185d195c985b605a1b6044820152606401610c27565b6000806000613f46613c1b565b60008d8152600291909101602090815260408083208e845290915290819020549051633352870560e21b81526001600160a01b039091169063cd4a1c1490613f9a908c908e908d908d908d9060040161576a565b606060405180830381600087803b158015613fb457600080fd5b505af1158015613fc8573d6000803e3d6000fd5b505050506040513d601f19601f82011682018060405250810190613fec9190615321565b91945092509050613ffd8189615698565b945060008661407e578215806140135750600082115b15614026576140236001866153f3565b94505b60148511156140705760405162461bcd60e51b8152602060048201526016602482015275546f6f206d616e7920616374697665206f726465727360501b6044820152606401610c27565b61407b8d848e61479a565b90505b82156141e4577331908aa622b1f7846a78857D3bB650d8ED61e2dE633df3a2378e8e8e8e888c886040518863ffffffff1660e01b81526004016140c79796959493929190615382565b60006040518083038186803b1580156140df57600080fd5b505af41580156140f3573d6000803e3d6000fd5b505050508b8d8c6001600160a01b03167ff58abb58bdd84b485930c24ec5e99ec42b56c04c021af823afb6ae78aa244bcc8d8a8d8960405161413894939291906153ca565b60405180910390a47341C8d12624cD955a94fDA3E52a7aF332b7BE152163e88e18378e8e61417260008051602061584c8339815191525490565b6040516001600160e01b031960e086901b16815260048101939093526024830191909152604482015260648101879052608481018c905260a4810186905260c40160006040518083038186803b1580156141cb57600080fd5b505af41580156141df573d6000803e3d6000fd5b505050505b6142128d6141f0613c1b565b6001600160a01b038e1660009081526004919091016020526040902090614779565b505050505050979650505050505050565b4360008051602061582c8339815191525b6001600160a01b039092166000908152602092909252604090912055565b600060008051602061582c833981519152614234565b6000614272614815565b905090565b6001600160a01b0316600090815260008051602061582c8339815191526020526040902054151590565b600081815260018301602052604081205415155b9392505050565b7f9acda75aebd150dd434541a4747a6dc606f4f1a59662477e67daf1fc0bf9e0aa80546001600160a01b038381166001600160a01b0319831681179093556040519116919082907f8be0079c531659141344cd1fd0a4f28419497f9722a3daafe3b4186f6b6457e090600090a35050565b6000611eb2825490565b60006142b5838361482d565b6000614272614857565b60008051602061584c83398151915254818114611747578160008051602061588c8339815191526002015560408051828152602081018490527fb310034e792eb345456b77ee9b3ade0d30b9866d547921c8f4d5e9273c941a90910160405180910390a15050565b60008060006143c48686612567565b905060008060008060008060006143d9613c1b565b60008e8152600291909101602090815260408083208f845290915290819020549051630516d8c960e11b81526001600160a01b038d8116600483015290911690630a2db1929060240160e060405180830381600087803b15801561443c57600080fd5b505af1158015614450573d6000803e3d6000fd5b505050506040513d601f19601f820116820180604052508101906144749190615584565b96509650965096509650965096508183111561450157614492614268565b6001600160a01b031663fb7bd3b48c8f6144ac8688615698565b6040518463ffffffff1660e01b81526004016144ca93929190615036565b600060405180830381600087803b1580156144e457600080fd5b505af11580156144f8573d6000803e3d6000fd5b5050505061457c565b8183101561457c57614511614268565b6001600160a01b0316634ba0c9b58c8f61452b8787615698565b6040518463ffffffff1660e01b815260040161454993929190615036565b600060405180830381600087803b15801561456357600080fd5b505af1158015614577573d6000803e3d6000fd5b505050505b841561465a57604051639e8d3d5560e01b81526001600160a01b038c81166004830152602482018790526044820183905260006064830152891690639e8d3d5590608401602060405180830381600087803b1580156145da57600080fd5b505af11580156145ee573d6000803e3d6000fd5b505050506040513d601f19601f8201168201806040525081019061461291906156da565b50808d8c6001600160a01b03167f997c951334d5983afa515edf5d21c61d3dfec68c3d93415b92248b0f15123aeb6000896040516146519291906157a6565b60405180910390a45b8315614738576040516305b0b29360e41b81526001600160a01b038c81166004830152602482018690526044820183905260006064830152891690635b0b293090608401602060405180830381600087803b1580156146b857600080fd5b505af11580156146cc573d6000803e3d6000fd5b505050506040513d601f19601f820116820180604052508101906146f091906156da565b50808d8c6001600160a01b03167f997c951334d5983afa515edf5d21c61d3dfec68c3d93415b92248b0f15123aeb60018860405161472f9291906157a6565b60405180910390a45b600061474485876153f3565b11985061475186886153f3565b99505050505050505050935093915050565b60006142b58383614870565b6000614272614963565b60006142b58383614982565b60006142726149d1565b6060611eb2826149f1565b60008142106147bb5760405162461bcd60e51b8152600401610c2790615289565b60006147c74284615698565b9050612db76147dc6127106301e133806157c1565b600087815260008051602061588c833981519152602052604090205486906148059085906157c1565b61480f91906157c1565b90614a4c565b600061427269151bdad95b95985d5b1d60b21b614abd565b600082600001828154811061484457614844615424565b9060005260206000200154905092915050565b60006142726a14995cd95c9d99519d5b9960aa1b614abd565b60008181526001830160205260408120548015614959576000614894600183615698565b85549091506000906148a890600190615698565b905081811461490d5760008660000182815481106148c8576148c8615424565b90600052602060002001549050808760000184815481106148eb576148eb615424565b6000918252602080832090910192909255918252600188019052604090208390555b855486908061491e5761491e6157e0565b600190038181906000526020600020016000905590558560010160008681526020019081526020016000206000905560019350505050611eb2565b6000915050611eb2565b60006142727011d95b995cda5cd5985b1d5955985d5b1d607a1b614abd565b60008181526001830160205260408120546149c957508154600181810184556000848152602080822090930184905584548482528286019093526040902091909155611eb2565b506000611eb2565b60006142727121bab93932b731bca1b7b73a3937b63632b960711b614abd565b606081600001805480602002602001604051908101604052809291908181526020018280548015611ad357602002820191906000526020600020905b815481526020019060010190808311614a2d5750505050509050919050565b6000808211614a5a57600080fd5b6005614a6683856157f6565b614a7190600a6157c1565b83614a7d86600a6157c1565b614a8791906157f6565b614a919190615698565b1015614aa857614aa182846157f6565b9050611eb2565b614ab282846157f6565b614aa19060016153f3565b60008181527f4abde63c3e81aefa5764b017968bc473e83e093d7e1a10247d19e0a3e41240196020908152604080832054815170026b4b9b9b4b7339030b2323932b9b99d1607d1b9381019390935260318084018690528251808503909101815260519093019091526001600160a01b031690816120195760405162461bcd60e51b8152600401610c279190615818565b6001600160a01b038116811461159257600080fd5b600080600060608486031215614b7857600080fd5b8335614b8381614b4e565b95602085013595506040909401359392505050565b600060208284031215614baa57600080fd5b5035919050565b600080600060608486031215614bc657600080fd5b505081359360208301359350604090920135919050565b600081518084526020808501945080840160005b83811015614c0d57815187529582019590820190600101614bf1565b509495945050505050565b606081526000614c2b6060830186614bdd565b8281036020840152614c3d8186614bdd565b90508281036040840152614c518185614bdd565b9695505050505050565b600080600060608486031215614c7057600080fd5b8335614c7b81614b4e565b92506020840135614c8b81614b4e565b929592945050506040919091013590565b60008060408385031215614caf57600080fd5b823591506020830135614cc181614b4e565b809150509250929050565b60008060408385031215614cdf57600080fd5b50508035926020909101359150565b600080600080600060a08688031215614d0657600080fd5b8535945060208601359350604086013592506060860135614d2681614b4e565b9150608086013562ffffff81168114614d3e57600080fd5b809150509295509295909350565b801515811461159257600080fd5b600060208284031215614d6c57600080fd5b81356142b581614d4c565b600080600060608486031215614d8c57600080fd5b83359250602084013591506040840135614da581614b4e565b809150509250925092565b6020808252825182820181905260009190848201906040850190845b81811015614df15783516001600160a01b031683529284019291840191600101614dcc565b50909695505050505050565b6020808252825182820181905260009190848201906040850190845b81811015614df157835183529284019291840191600101614e19565b6002811061159257600080fd5b600080600080600060a08688031215614e5a57600080fd5b85359450602086013593506040860135614e7381614e35565b94979396509394606081013594506080013592915050565b600080600060608486031215614ea057600080fd5b8335925060208401359150604084013565ffffffffffff81168114614da557600080fd5b600060208284031215614ed657600080fd5b81356142b581614b4e565b6020815260006142b56020830184614bdd565b600080600080600060a08688031215614f0c57600080fd5b505083359560208501359550604085013594606081013594506080013592509050565b634e487b7160e01b600052604160045260246000fd5b604051601f8201601f1916810167ffffffffffffffff81118282101715614f6e57614f6e614f2f565b604052919050565b600067ffffffffffffffff821115614f9057614f90614f2f565b5060051b60200190565b60008060408385031215614fad57600080fd5b823567ffffffffffffffff811115614fc457600080fd5b8301601f81018513614fd557600080fd5b80356020614fea614fe583614f76565b614f45565b82815260059290921b8301810191818101908884111561500957600080fd5b938201935b838510156150275784358252938201939082019061500e565b98969091013596505050505050565b6001600160a01b039390931683526020830191909152604082015260600190565b600080600080600080600080610100898b03121561507457600080fd5b885197506020890151965060408901519550606089015194506080890151935060a0890151925060c0890151915060e08901516150b081614d4c565b809150509295985092959890939650565b600082601f8301126150d257600080fd5b815160206150e2614fe583614f76565b82815260059290921b8401810191818101908684111561510157600080fd5b8286015b8481101561511c5780518352918301918301615105565b509695505050505050565b60008060006060848603121561513c57600080fd5b835167ffffffffffffffff8082111561515457600080fd5b615160878388016150c1565b9450602086015191508082111561517657600080fd5b615182878388016150c1565b9350604086015191508082111561519857600080fd5b506151a5868287016150c1565b9150509250925092565b92835260208301919091526001600160a01b0316604082015260600190565b600060e082840312156151e057600080fd5b60405160e0810181811067ffffffffffffffff8211171561520357615203614f2f565b8060405250825181526020830151602082015260408301516040820152606083015160608201526080830151608082015260a083015160a082015260c083015160c08201528091505092915050565b6020808252601f908201527f5265656e7472616e637947756172643a207265656e7472616e742063616c6c00604082015260600190565b60208082526010908201526f496e76616c6964206d6174757269747960801b604082015260600190565b600080604083850312156152c657600080fd5b505080516020909101519092909150565b600281106152f557634e487b7160e01b600052602160045260246000fd5b9052565b6060810161530782866152d7565b6001600160a01b0393909316602082015260400152919050565b60008060006060848603121561533657600080fd5b8351925060208401519150604084015190509250925092565b634e487b7160e01b600052601160045260246000fd5b6000600160ff1b82141561537b5761537b61534f565b5060000390565b878152602081018790526001600160a01b038616604082015260e081016153ac60608301876152d7565b8460808301528360a08301528260c083015298975050505050505050565b608081016153d882876152d7565b84602083015283604083015282606083015295945050505050565b600082198211156154065761540661534f565b500190565b60006020828403121561541d57600080fd5b5051919050565b634e487b7160e01b600052603260045260246000fd5b6000815180845260005b8181101561546057602081850181015186830182015201615444565b81811115615472576000602083870101525b50601f01601f19169290920160200192915050565b8281526040602082015260006154a0604083018461543a565b949350505050565b6000602082840312156154ba57600080fd5b81516142b581614b4e565b60006000198214156154d9576154d961534f565b5060010190565b6020808252818101527f4f776e61626c653a2063616c6c6572206973206e6f7420746865206f776e6572604082015260600190565b60008060006060848603121561552a57600080fd5b835161553581614e35565b602085015160409095015190969495509392505050565b65ffffffffffff8616815260a0810161556860208301876152d7565b8460408301528360608301528260808301529695505050505050565b600080600080600080600060e0888a03121561559f57600080fd5b5050855160208701516040880151606089015160808a015160a08b015160c0909b0151949c939b50919990985090965094509092509050565b6000806000606084860312156155ed57600080fd5b83516155f881614b4e565b602085015190935061560981614b4e565b80925050604084015190509250925092565b604080825283519082018190526000906020906060840190828701845b8281101561565457815184529284019290840190600101615638565b50505092019290925292915050565b60006020828403121561567557600080fd5b815167ffffffffffffffff81111561568c57600080fd5b6154a0848285016150c1565b6000828210156156aa576156aa61534f565b500390565b6001600160a01b0385168152602081018490526040810183905260808101612db760608301846152d7565b6000602082840312156156ec57600080fd5b81516142b581614d4c565b6080810161570582876152d7565b6001600160a01b039490941660208201526040810192909252606090910152919050565b600080821280156001600160ff1b038490038513161561574b5761574b61534f565b600160ff1b83900384128116156157645761576461534f565b50500190565b60a0810161577882886152d7565b6001600160a01b03959095166020820152604081019390935260608301919091521515608090910152919050565b604081016157b482856152d7565b8260208301529392505050565b60008160001904831182151516156157db576157db61534f565b500290565b634e487b7160e01b600052603160045260246000fd5b60008261581357634e487b7160e01b600052601260045260246000fd5b500490565b6020815260006142b5602083018461543a56fe19bfb841e3f2b667d170c57909e7685dd6a0cee80d36344e04905cfd7d917bd755cc3066d618b5a688ac1f2a8234e21c685f7432b4230a1660309640d60d8f664abde63c3e81aefa5764b017968bc473e83e093d7e1a10247d19e0a3e412401855cc3066d618b5a688ac1f2a8234e21c685f7432b4230a1660309640d60d8f6455cc3066d618b5a688ac1f2a8234e21c685f7432b4230a1660309640d60d8f65a26469706673582212202cab99238959e56bc737a1d32cdd42ac598c49bf0cd3ae7c0a700d341c5bfa0564736f6c63430008090033",
  "deployedBytecode": "0x6080604052600436106102e45760003560e01c8063766cb64e11610190578063cb9d7401116100dc578063eb092a2611610095578063f2fde38b1161006f578063f2fde38b1461097d578063faca409b1461099d578063fb54a6b3146109bd578063fc700810146109dd57600080fd5b8063eb092a261461091b578063ebb914161461093b578063f1eaebae1461095b57600080fd5b8063cb9d74011461084c578063cc03348b14610886578063e0997659146108a6578063e906c100146108bb578063e95dc183146108db578063e99d0538146108fb57600080fd5b80638c197d8d11610149578063a02be3dc11610123578063a02be3dc146107d9578063b3cb8450146107f9578063bfd10cf614610819578063bfe61a281461083957600080fd5b80638c197d8d146107845780638da5cb5b146107a4578063953dbcaa146107b957600080fd5b8063766cb64e146106c457806385323e1a146106e4578063870cf8ab14610704578063891d5965146107245780638a981745146107445780638b36d8331461076457600080fd5b80632e77aea71161024f578063529a356f116102085780635ca65d57116101e25780635ca65d571461064f57806370c641a61461066f578063715018a61461068f57806372d563ef146106a457600080fd5b8063529a356f146105ad57806355aceb4e146105cd5780635c347765146105fa57600080fd5b80632e77aea7146104eb5780632f7495741461050b578063381ada1f1461052b5780633d03b9da14610558578063448255c71461057a57806349f2ccbf1461058d57600080fd5b80631deb8f39116102a15780631deb8f39146104315780632236526114610461578063268bb2791461048157806329985e5a146104a15780632af64bd3146104b65780632e6c5e67146104cb57600080fd5b80630312b528146102e957806303e5fb591461034b57806304f3bcec146103935780630594de6e146103c05780631794bb3c146103ef57806317b72ff414610411575b600080fd5b3480156102f557600080fd5b50610309610304366004614b63565b6109fd565b604080519889526020890197909752958701949094526060860192909252608085015260a084015260c0830152151560e0820152610100015b60405180910390f35b34801561035757600080fd5b50610385610366366004614b98565b600090815260008051602061588c833981519152602052604090205490565b604051908152602001610342565b34801561039f57600080fd5b506103a8610ab2565b6040516001600160a01b039091168152602001610342565b3480156103cc57600080fd5b506103e06103db366004614bb1565b610ad3565b60405161034293929190614c18565b3480156103fb57600080fd5b5061040f61040a366004614c5b565b610b92565b005b34801561041d57600080fd5b5061038561042c366004614c9c565b610d1c565b34801561043d57600080fd5b5061045161044c366004614ccc565b610db1565b6040519015158152602001610342565b34801561046d57600080fd5b5061045161047c366004614cee565b61128e565b34801561048d57600080fd5b5061040f61049c366004614d5a565b611583565b3480156104ad57600080fd5b5061040f61159e565b3480156104c257600080fd5b5061045161174b565b3480156104d757600080fd5b506104516104e6366004614b98565b6118b1565b3480156104f757600080fd5b50610385610506366004614d77565b6118d1565b34801561051757600080fd5b5061040f610526366004614ccc565b611967565b34801561053757600080fd5b5061054b610546366004614b98565b611a6a565b6040516103429190614db0565b34801561056457600080fd5b5061056d611adf565b6040516103429190614dfd565b610451610588366004614e42565b611c01565b34801561059957600080fd5b506104516105a8366004614e8b565b611d0d565b3480156105b957600080fd5b506104516105c8366004614ec4565b611ea7565b3480156105d957600080fd5b506105ed6105e8366004614b98565b611eb8565b6040516103429190614ee1565b34801561060657600080fd5b5061061a610615366004614c9c565b612020565b604080519788526020880196909652948601939093526060850191909152608084015260a083015260c082015260e001610342565b34801561065b57600080fd5b5061040f61066a366004614ccc565b61210b565b34801561067b57600080fd5b5061038561068a366004614c9c565b6121fd565b34801561069b57600080fd5b5061040f612295565b3480156106b057600080fd5b5061040f6106bf366004614ccc565b6122d0565b3480156106d057600080fd5b5061040f6106df366004614ef4565b612410565b3480156106f057600080fd5b506103a86106ff366004614ccc565b612567565b34801561071057600080fd5b5061040f61071f366004614ec4565b6125c9565b34801561073057600080fd5b5061038561073f366004614b98565b612628565b34801561075057600080fd5b506103a861075f366004614ccc565b612646565b34801561077057600080fd5b5061040f61077f366004614b98565b612678565b34801561079057600080fd5b5061040f61079f366004614b98565b6128b9565b3480156107b057600080fd5b506103a86128f1565b3480156107c557600080fd5b506103e06107d4366004614bb1565b612919565b3480156107e557600080fd5b506105ed6107f4366004614b98565b612978565b34801561080557600080fd5b50610451610814366004614b98565b612ad9565b34801561082557600080fd5b506105ed610834366004614b98565b612bd7565b610451610847366004614e42565b612d38565b34801561085857600080fd5b50610385610867366004614b98565b60009081526000805160206158ac833981519152602052604090205490565b34801561089257600080fd5b506104516108a1366004614f9a565b612dc0565b3480156108b257600080fd5b5061056d612e35565b3480156108c757600080fd5b506103856108d6366004614d77565b612e78565b3480156108e757600080fd5b506103856108f6366004614c9c565b612f11565b34801561090757600080fd5b50610451610916366004614b98565b61340c565b34801561092757600080fd5b506105ed610936366004614b98565b613501565b34801561094757600080fd5b50610451610956366004614e42565b613662565b34801561096757600080fd5b5060008051602061584c83398151915254610385565b34801561098957600080fd5b5061040f610998366004614ec4565b613939565b3480156109a957600080fd5b506104516109b8366004614e42565b6139d6565b3480156109c957600080fd5b506103856109d8366004614ec4565b613a63565b3480156109e957600080fd5b5061056d6109f8366004614ec4565b613bed565b60008060008060008060008073__$1f9ad3a48ce553524574a0c26027261f08$__630312b5288c8c8c6040518463ffffffff1660e01b8152600401610a4493929190615036565b6101006040518083038186803b158015610a5d57600080fd5b505af4158015610a71573d6000803e3d6000fd5b505050506040513d601f19601f82011682018060405250810190610a959190615057565b975097509750975097509750975097509397509397509397509397565b600060008051602061586c8339815191525b546001600160a01b0316919050565b60608060606000610ae2613c1b565b600088815260029190910160209081526040808320898452909152908190205490516325fb168b60e11b8152600481018790526001600160a01b0390911691508190634bf62d16906024015b60006040518083038186803b158015610b4657600080fd5b505afa158015610b5a573d6000803e3d6000fd5b505050506040513d6000823e601f3d908101601f19168201604052610b829190810190615127565b9350935093505093509350939050565b600154610100900460ff1615808015610baf57506001805460ff16105b80610bc85750303b158015610bc857506001805460ff16145b610c305760405162461bcd60e51b815260206004820152602e60248201527f496e697469616c697a61626c653a20636f6e747261637420697320616c72656160448201526d191e481a5b9a5d1a585b1a5e995960921b60648201526084015b60405180910390fd5b6001805460ff1916811790558015610c52576001805461ff0019166101001790555b6000610c5c613c3f565b6001600160a01b03161415610cbe5760405162461bcd60e51b815260206004820152602260248201527f4d7573742062652063616c6c65642066726f6d2070726f787920636f6e74726160448201526118dd60f21b6064820152608401610c27565b610cc88483613c67565b610cd183613c79565b8015610d16576001805461ff00191681556040519081527f7f26b83ff96e1f2b6a682f133852f6798a09c465da95921460cefb38474024989060200160405180910390a15b50505050565b6040516295a47160e71b815260009073__$1f9ad3a48ce553524574a0c26027261f08$__90634ad2388090610d59908690859087906004016151af565b60e06040518083038186803b158015610d7157600080fd5b505af4158015610d85573d6000803e3d6000fd5b505050506040513d601f19601f82011682018060405250810190610da991906151ce565b519392505050565b600060026000541415610dd65760405162461bcd60e51b8152600401610c2790615252565b6002600090815583908390610de9613c1b565b6000848152600291909101602090815260408083208584529091529020546001600160a01b03161415610e2e5760405162461bcd60e51b8152600401610c2790615289565b610e388533612f11565b506000610e43613c1b565b6000878152600291909101602090815260408083208884529091528120546001600160a01b0316915080610e75613c1b565b6000898152600191909101602090815260408083206001600160a01b03878116855292529182902054915163070da1af60e11b8152336004820152911690630e1b435e90602401604080518083038186803b158015610ed357600080fd5b505afa158015610ee7573d6000803e3d6000fd5b505050506040513d601f19601f82011682018060405250810190610f0b91906152b3565b915091508160001415610f575760405162461bcd60e51b81526020600482015260146024820152734675747572652056616c7565206973207a65726f60601b6044820152606401610c27565b808714610f765760405162461bcd60e51b8152600401610c2790615289565b600080600080600086131561104357506001610f90613c1b565b60008d8152600291909101602090815260408083208e84529091529020546001600160a01b0316634c2afa2e8233610fc78a613d0e565b6040518463ffffffff1660e01b8152600401610fe5939291906152f9565b606060405180830381600087803b158015610fff57600080fd5b505af1158015611013573d6000803e3d6000fd5b505050506040513d601f19601f820116820180604052508101906110379190615321565b9195509350915061110e565b600086121561110e57506000611057613c1b565b60008d8152600291909101602090815260408083208e84529091529020546001600160a01b0316634c2afa2e82336110966110918b615365565b613d0e565b6040518463ffffffff1660e01b81526004016110b4939291906152f9565b606060405180830381600087803b1580156110ce57600080fd5b505af11580156110e2573d6000803e3d6000fd5b505050506040513d601f19601f820116820180604052508101906111069190615321565b919550935091505b821561127657604051633df3a23760e01b815273__$1f9ad3a48ce553524574a0c26027261f08$__90633df3a23790611158908f908f903390879089908b90600090600401615382565b60006040518083038186803b15801561117057600080fd5b505af4158015611184573d6000803e3d6000fd5b505050508a8c336001600160a01b03167ff58abb58bdd84b485930c24ec5e99ec42b56c04c021af823afb6ae78aa244bcc84876000886040516111ca94939291906153ca565b60405180910390a473__$e769a865965cc8d3bf1590a15a9475ad85$__63e88e18378d8d61120460008051602061584c8339815191525490565b6040516001600160e01b031960e086901b168152600481019390935260248301919091526044820152606481018790526084810186905260a4810185905260c40160006040518083038186803b15801561125d57600080fd5b505af4158015611271573d6000803e3d6000fd5b505050505b60019950505050505050505050600160005592915050565b6000600260005414156112b35760405162461bcd60e51b8152600401610c2790615252565b60026000908155859085906112c6613c1b565b6000848152600291909101602090815260408083208584529091529020546001600160a01b0316141561130b5760405162461bcd60e51b8152600401610c2790615289565b333b1561134f5760405162461bcd60e51b815260206004820152601260248201527143616c6c6572206d75737420626520454f4160701b6044820152606401610c27565b61135833613d64565b61139b5760405162461bcd60e51b815260206004820152601460248201527343616c6c6572206973206e6f742061637469766560601b6044820152606401610c27565b6113a58786612f11565b50604051639c599f8b60e01b81523360048201526001600160a01b038616602482015260448101899052606481018890526084810187905262ffffff851660a4820152600090819073__$1f9ad3a48ce553524574a0c26027261f08$__90639c599f8b9060c401604080518083038186803b15801561142357600080fd5b505af4158015611437573d6000803e3d6000fd5b505050506040513d601f19601f8201168201806040525081019061145b91906152b3565b909250905080821561148b57600061147b8b8b8b60008860006001613da1565b905061148781836153f3565b9150505b801561156c57888a896001600160a01b03167f347d8f9576f47b3bd7a4821cd3d3d4171968cdd36680d4abaca7de302d836f998e856040516114d7929190918252602082015260400190565b60405180910390a460405163300074c960e01b815273__$1f9ad3a48ce553524574a0c26027261f08$__9063300074c99061151a908d908d908d906004016151af565b60206040518083038186803b15801561153257600080fd5b505af4158015611546573d6000803e3d6000fd5b505050506040513d601f19601f8201168201806040525081019061156a919061540b565b505b600195505050505050600160005595945050505050565b80156115955761159233614223565b50565b61159233614252565b60006115a8611adf565b905060005b81518110156117475760008282815181106115ca576115ca615424565b6020026020010151905060006115eb60008051602061586c83398151915290565b54604080517f5265736f6c766572206d697373696e67207461726765743a200000000000000060208201526039808201869052825180830390910181526059820192839052636795dbcd60e01b9092526001600160a01b0390921691636795dbcd9161165c91869190605d01615487565b60206040518083038186803b15801561167457600080fd5b505afa158015611688573d6000803e3d6000fd5b505050506040513d601f19601f820116820180604052508101906116ac91906154a8565b60008381527f4abde63c3e81aefa5764b017968bc473e83e093d7e1a10247d19e0a3e4124019602090815260409182902080546001600160a01b0319166001600160a01b03851690811790915582518681529182015281519293507f88a93678a3692f6789d9546fc621bf7234b101ddb7d4fe479455112831b8aa68929081900390910190a15050808061173f906154c5565b9150506115ad565b5050565b600080611756611adf565b905060005b81518110156118a857600082828151811061177857611778615424565b6020026020010151905061179760008051602061586c83398151915290565b600082815260019190910160205260409020546001600160a01b031660008051602061586c833981519152546040516321f8a72160e01b8152600481018490526001600160a01b03909116906321f8a7219060240160206040518083038186803b15801561180457600080fd5b505afa158015611818573d6000803e3d6000fd5b505050506040513d601f19601f8201168201806040525081019061183c91906154a8565b6001600160a01b0316141580611886575060008181527f4abde63c3e81aefa5764b017968bc473e83e093d7e1a10247d19e0a3e412401960205260409020546001600160a01b0316155b15611895576000935050505090565b50806118a0816154c5565b91505061175b565b50600191505090565b60006118bb613c1b565b6000928352600301602052506040902054151590565b6040516295a47160e71b815260009073__$1f9ad3a48ce553524574a0c26027261f08$__90634ad238809061190e908790879087906004016151af565b60e06040518083038186803b15801561192657600080fd5b505af415801561193a573d6000803e3d6000fd5b505050506040513d601f19601f8201168201806040525081019061195e91906151ce565b51949350505050565b336119706128f1565b6001600160a01b0316146119965760405162461bcd60e51b8152600401610c27906154e0565b6127108111156119e85760405162461bcd60e51b815260206004820152601a60248201527f496e76616c6964206175746f2d726f6c6c2066656520726174650000000000006044820152606401610c27565b60008281526000805160206158ac8339815191526020526040902054818114611a655760008381526000805160206158ac833981519152602090815260409182902084905581518381529081018490527fdfbb9051e39a726dacd506a01fecef2277ab8adc7423037867c554573f179fdb91015b60405180910390a15b505050565b6060611a74613c1b565b6000838152602091825260409081902080548251818502810185019093528083529192909190830182828015611ad357602002820191906000526020600020905b81546001600160a01b03168152600190910190602001808311611ab5575b50505050509050919050565b60408051600580825260c082019092526060916020820160a080368337019050509050742132b0b1b7b7283937bc3ca1b7b73a3937b63632b960591b81600081518110611b2e57611b2e615424565b6020026020010181815250507121bab93932b731bca1b7b73a3937b63632b960711b81600181518110611b6357611b63615424565b6020026020010181815250507011d95b995cda5cd5985b1d5955985d5b1d607a1b81600281518110611b9757611b97615424565b6020026020010181815250506a14995cd95c9d99519d5b9960aa1b81600381518110611bc557611bc5615424565b60200260200101818152505069151bdad95b95985d5b1d60b21b81600481518110611bf257611bf2615424565b60200260200101818152505090565b600060026000541415611c265760405162461bcd60e51b8152600401610c2790615252565b6002600090815586908690611c39613c1b565b6000848152600291909101602090815260408083208584529091529020546001600160a01b03161415611c7e5760405162461bcd60e51b8152600401610c2790615289565b611c86614268565b6001600160a01b03166396994e3734338b896040518563ffffffff1660e01b8152600401611cb693929190615036565b6000604051808303818588803b158015611ccf57600080fd5b505af1158015611ce3573d6000803e3d6000fd5b5050505050611cf88888338989896000613da1565b50600192505050600160005595945050505050565b600060026000541415611d325760405162461bcd60e51b8152600401610c2790615252565b6002600090815584908490611d45613c1b565b6000848152600291909101602090815260408083208584529091529020546001600160a01b03161415611d8a5760405162461bcd60e51b8152600401610c2790615289565b6000611d94613c1b565b60008881526002919091016020908152604080832089845290915280822054905163504b89bd60e01b815233600482015265ffffffffffff881660248201526001600160a01b03909116925081908190849063504b89bd90604401606060405180830381600087803b158015611e0957600080fd5b505af1158015611e1d573d6000803e3d6000fd5b505050506040513d601f19601f82011682018060405250810190611e419190615515565b92509250925089336001600160a01b03167f4d71330c358e4f44590905c3373d1e04529d36b64e552c5cb51813ef62d120d78a868d8787604051611e8995949392919061554c565b60405180910390a36001965050505050505060016000559392505050565b6000611eb282614277565b92915050565b60606000611ec4613c1b565b6000848152602091909152604090205467ffffffffffffffff811115611eec57611eec614f2f565b604051908082528060200260200182016040528015611f15578160200160208202803683370190505b50905060005b611f23613c1b565b60008581526020919091526040902054811015612019576000611f44613c1b565b600086815260209190915260409020805483908110611f6557611f65615424565b6000918252602091829020015460408051631b3508b760e01b815290516001600160a01b0390921693508392631b3508b792600480840193829003018186803b158015611fb157600080fd5b505afa158015611fc5573d6000803e3d6000fd5b505050506040513d601f19601f82011682018060405250810190611fe9919061540b565b838381518110611ffb57611ffb615424565b60209081029190910101525080612011816154c5565b915050611f1b565b5092915050565b600080600080600080600061205989612037613c1b565b6001600160a01b038b16600090815260049190910160205260409020906142a1565b156120ff57604051635c34776560e01b8152600481018a90526001600160a01b038916602482015273__$1f9ad3a48ce553524574a0c26027261f08$__90635c3477659060440160e06040518083038186803b1580156120b857600080fd5b505af41580156120cc573d6000803e3d6000fd5b505050506040513d601f19601f820116820180604052508101906120f09190615584565b96509650965096509650965096505b92959891949750929550565b336121146128f1565b6001600160a01b03161461213a5760405162461bcd60e51b8152600401610c27906154e0565b6127108111156121855760405162461bcd60e51b8152602060048201526016602482015275496e76616c6964206f7264657220666565207261746560501b6044820152606401610c27565b600082815260008051602061588c8339815191526020526040902054818114611a6557600083815260008051602061588c833981519152602090815260409182902084905581518381529081018490527fff4528c215dc00005504418aa82be3bb2439c39be2eb30fd44012f5e79d168e29101611a5c565b6040516295a47160e71b815260009073__$1f9ad3a48ce553524574a0c26027261f08$__90634ad238809061223a908690859087906004016151af565b60e06040518083038186803b15801561225257600080fd5b505af4158015612266573d6000803e3d6000fd5b505050506040513d601f19601f8201168201806040525081019061228a91906151ce565b60c001519392505050565b3361229e6128f1565b6001600160a01b0316146122c45760405162461bcd60e51b8152600401610c27906154e0565b6122ce60006142bc565b565b336122d96128f1565b6001600160a01b0316146122ff5760405162461bcd60e51b8152600401610c27906154e0565b6040516372d563ef60e01b815260048101839052602481018290526000908190819073__$e769a865965cc8d3bf1590a15a9475ad85$__906372d563ef9060440160606040518083038186803b15801561235857600080fd5b505af415801561236c573d6000803e3d6000fd5b505050506040513d601f19601f8201168201806040525081019061239091906155d8565b925092509250826001600160a01b0316857fc29f3eef4e596f3e26da74f3482ffe2325449509e985d19f0a099240429add4e846123cb613c1b565b60008a815260209182526040908190205481516001600160a01b0390941684529183019190915281018890526060810185905260800160405180910390a35050505050565b336124196128f1565b6001600160a01b03161461243f5760405162461bcd60e51b8152600401610c27906154e0565b6000831161248f5760405162461bcd60e51b815260206004820152601760248201527f496e76616c696420636f6d706f756e6420666163746f720000000000000000006044820152606401610c27565b612498856118b1565b156124db5760405162461bcd60e51b8152602060048201526013602482015272105b1c9958591e481a5b9a5d1a585b1a5e9959606a1b6044820152606401610c27565b60405163d3f43b7960e01b815260048101869052602481018590526044810184905273__$e769a865965cc8d3bf1590a15a9475ad85$__9063d3f43b799060640160006040518083038186803b15801561253457600080fd5b505af4158015612548573d6000803e3d6000fd5b50505050612556858361210b565b6125608582611967565b5050505050565b6000612571613c1b565b6000848152600191909101602052604081209061258c613c1b565b600095865260020160209081526040808720958752948152848620546001600160a01b039081168352908201929092529092019092205416919050565b60006125d3613c1b565b6001600160a01b03831660009081526004919091016020526040812091505b6125fb8261432d565b811015611a655761261561260f8383614337565b84612f11565b5080612620816154c5565b9150506125f2565b6000612632613c1b565b600092835260030160205250604090205490565b6000612650613c1b565b600093845260020160209081526040808520938552929052509020546001600160a01b031690565b6002600054141561269b5760405162461bcd60e51b8152600401610c2790615252565b6002600090815581906126ac613c1b565b60008381526020919091526040902054116127225760405162461bcd60e51b815260206004820152603060248201527f4e6f206c656e64696e67206d61726b65747320657869737420666f722061207360448201526f706563696669632063757272656e637960801b6064820152608401610c27565b60008073__$e769a865965cc8d3bf1590a15a9475ad85$__63a3d54d8c856127638760009081526000805160206158ac833981519152602052604090205490565b6040516001600160e01b031960e085901b16815260048101929092526024820152604401604080518083038186803b15801561279e57600080fd5b505af41580156127b2573d6000803e3d6000fd5b505050506040513d601f19601f820116820180604052508101906127d691906152b3565b9150915073__$1f9ad3a48ce553524574a0c26027261f08$__63300074c985836127fe614343565b6040518463ffffffff1660e01b815260040161281c939291906151af565b60206040518083038186803b15801561283457600080fd5b505af4158015612848573d6000803e3d6000fd5b505050506040513d601f19601f8201168201806040525081019061286c919061540b565b5060408051858152602081018490529081018290527f0c6f5a3bc801362dc3d24c87799fa831f5a601c5dbd8bed4064907844eef97369060600160405180910390a1505060016000555050565b336128c26128f1565b6001600160a01b0316146128e85760405162461bcd60e51b8152600401610c27906154e0565b6115928161434d565b60007f9acda75aebd150dd434541a4747a6dc606f4f1a59662477e67daf1fc0bf9e0aa610ac4565b60608060606000612928613c1b565b6000888152600291909101602090815260408083208984529091529081902054905163d866d35560e01b8152600481018790526001600160a01b039091169150819063d866d35590602401610b2e565b60606000612984613c1b565b6000848152602091909152604090205467ffffffffffffffff8111156129ac576129ac614f2f565b6040519080825280602002602001820160405280156129d5578160200160208202803683370190505b50905060005b6129e3613c1b565b60008581526020919091526040902054811015612019576000612a04613c1b565b600086815260209190915260409020805483908110612a2557612a25615424565b600091825260209182902001546040805163e16695b560e01b815290516001600160a01b039092169350839263e16695b592600480840193829003018186803b158015612a7157600080fd5b505afa158015612a85573d6000803e3d6000fd5b505050506040513d601f19601f82011682018060405250810190612aa9919061540b565b838381518110612abb57612abb615424565b60209081029190910101525080612ad1816154c5565b9150506129db565b600033612ae46128f1565b6001600160a01b031614612b0a5760405162461bcd60e51b8152600401610c27906154e0565b60005b612b15613c1b565b60008481526020919091526040902054811015612bce576000612b36613c1b565b600085815260209190915260409020805483908110612b5757612b57615424565b60009182526020822001546040805163280dce3760e21b815290516001600160a01b039092169350839263a03738dc9260048084019382900301818387803b158015612ba257600080fd5b505af1158015612bb6573d6000803e3d6000fd5b50505050508080612bc6906154c5565b915050612b0d565b50600192915050565b60606000612be3613c1b565b6000848152602091909152604090205467ffffffffffffffff811115612c0b57612c0b614f2f565b604051908082528060200260200182016040528015612c34578160200160208202803683370190505b50905060005b612c42613c1b565b60008581526020919091526040902054811015612019576000612c63613c1b565b600086815260209190915260409020805483908110612c8457612c84615424565b60009182526020918290200154604080516371613c2d60e01b815290516001600160a01b03909216935083926371613c2d92600480840193829003018186803b158015612cd057600080fd5b505afa158015612ce4573d6000803e3d6000fd5b505050506040513d601f19601f82011682018060405250810190612d08919061540b565b838381518110612d1a57612d1a615424565b60209081029190910101525080612d30816154c5565b915050612c3a565b6000612d42614268565b6001600160a01b03166396994e37343389876040518563ffffffff1660e01b8152600401612d7293929190615036565b6000604051808303818588803b158015612d8b57600080fd5b505af1158015612d9f573d6000803e3d6000fd5b5050505050612db18686868686613662565b50600190505b95945050505050565b60405163cc03348b60e01b815260009073__$e769a865965cc8d3bf1590a15a9475ad85$__9063cc03348b90612dfc908690869060040161561b565b60006040518083038186803b158015612e1457600080fd5b505af4158015612e28573d6000803e3d6000fd5b5060019695505050505050565b6040805160018082528183019092526060916020808301908036833701905050905069151bdad95b95985d5b1d60b21b81600081518110611bf257611bf2615424565b6040516295a47160e71b815260009073__$1f9ad3a48ce553524574a0c26027261f08$__90634ad2388090612eb5908790879087906004016151af565b60e06040518083038186803b158015612ecd57600080fd5b505af4158015612ee1573d6000803e3d6000fd5b505050506040513d601f19601f82011682018060405250810190612f0591906151ce565b60200151949350505050565b604051635b0f7aad60e11b8152600481018390526001600160a01b03821660248201526000908190819073__$1f9ad3a48ce553524574a0c26027261f08$__9063b61ef55a9060440160006040518083038186803b158015612f7257600080fd5b505af4158015612f86573d6000803e3d6000fd5b505050506040513d6000823e601f3d908101601f19168201604052612fae9190810190615663565b905060005b815181101561332f576000612fc6613c1b565b60020160008881526020019081526020016000206000848481518110612fee57612fee615424565b6020026020010151815260200190815260200160002060009054906101000a90046001600160a01b031690506000816001600160a01b031663e16695b56040518163ffffffff1660e01b815260040160206040518083038186803b15801561305557600080fd5b505afa158015613069573d6000803e3d6000fd5b505050506040513d601f19601f8201168201806040525081019061308d919061540b565b9050600073__$1f9ad3a48ce553524574a0c26027261f08$__63300074c98a848b6040518463ffffffff1660e01b81526004016130cc939291906151af565b60206040518083038186803b1580156130e457600080fd5b505af41580156130f8573d6000803e3d6000fd5b505050506040513d601f19601f8201168201806040525081019061311c919061540b565b905060008061312c8b858c6143b5565b909250905061313b828a6153f3565b985080156131d15760405163300074c960e01b815273__$1f9ad3a48ce553524574a0c26027261f08$__9063300074c99061317e908e9088908f906004016151af565b60206040518083038186803b15801561319657600080fd5b505af41580156131aa573d6000803e3d6000fd5b505050506040513d601f19601f820116820180604052508101906131ce919061540b565b92505b82156131dc57600197505b821580156131e8575081155b156132595761325787878151811061320257613202615424565b6020026020010151613212613c1b565b60050160008e815260200190815260200160002060008d6001600160a01b03166001600160a01b0316815260200190815260200160002061476390919063ffffffff16565b505b61326161476f565b6001600160a01b031663eeac29d88c8c60018b5161327f9190615698565b8a146132ae578a6132918b60016153f3565b815181106132a1576132a1615424565b60200260200101516132b1565b60005b6040516001600160e01b031960e086901b16815260048101939093526001600160a01b0390911660248301526044820152606401600060405180830381600087803b1580156132ff57600080fd5b505af1158015613313573d6000803e3d6000fd5b5050505050505050508080613327906154c5565b915050612fb3565b508215801561333c575081155b80156133cf575061334b61476f565b60405163386320d360e11b8152600481018790526001600160a01b03868116602483015291909116906370c641a69060440160206040518083038186803b15801561339557600080fd5b505afa1580156133a9573d6000803e3d6000fd5b505050506040513d601f19601f820116820180604052508101906133cd919061540b565b155b1561340457613402856133e0613c1b565b6001600160a01b03871660009081526004919091016020526040902090614763565b505b505092915050565b6000336134176128f1565b6001600160a01b03161461343d5760405162461bcd60e51b8152600401610c27906154e0565b60005b613448613c1b565b60008481526020919091526040902054811015612bce576000613469613c1b565b60008581526020919091526040902080548390811061348a5761348a615424565b600091825260208220015460408051630b0863e760e11b815290516001600160a01b0390921693508392631610c7ce9260048084019382900301818387803b1580156134d557600080fd5b505af11580156134e9573d6000803e3d6000fd5b505050505080806134f9906154c5565b915050613440565b6060600061350d613c1b565b6000848152602091909152604090205467ffffffffffffffff81111561353557613535614f2f565b60405190808252806020026020018201604052801561355e578160200160208202803683370190505b50905060005b61356c613c1b565b6000858152602091909152604090205481101561201957600061358d613c1b565b6000868152602091909152604090208054839081106135ae576135ae615424565b6000918252602091829020015460408051632f05aa6d60e11b815290516001600160a01b0390921693508392635e0b54da92600480840193829003018186803b1580156135fa57600080fd5b505afa15801561360e573d6000803e3d6000fd5b505050506040513d601f19601f82011682018060405250810190613632919061540b565b83838151811061364457613644615424565b6020908102919091010152508061365a816154c5565b915050613564565b6000600260005414156136875760405162461bcd60e51b8152600401610c2790615252565b600260009081558690869061369a613c1b565b6000848152600291909101602090815260408083208584529091529020546001600160a01b031614156136df5760405162461bcd60e51b8152600401610c2790615289565b60006136eb8933612f11565b905060146136fa8260016153f3565b11156137415760405162461bcd60e51b8152602060048201526016602482015275546f6f206d616e7920616374697665206f726465727360501b6044820152606401610c27565b6137708861374d613c1b565b60008c8152600591909101602090815260408083203384529091529020906142a1565b6137a5576137a388613780613c1b565b60008c815260059190910160209081526040808320338452909152902090614779565b505b6137ad614268565b6001600160a01b03166328ff7a42338b898b6040518563ffffffff1660e01b81526004016137de94939291906156af565b60206040518083038186803b1580156137f657600080fd5b505afa15801561380a573d6000803e3d6000fd5b505050506040513d601f19601f8201168201806040525081019061382e91906156da565b6138725760405162461bcd60e51b8152602060048201526015602482015274139bdd08195b9bdd59da0818dbdb1b185d195c985b605a1b6044820152606401610c27565b61387a613c1b565b60008a8152600291909101602090815260408083208b8452909152908190205490516328378aab60e01b81526001600160a01b03909116906328378aab906138cc908a9033908b908b906004016156f7565b600060405180830381600087803b1580156138e657600080fd5b505af11580156138fa573d6000803e3d6000fd5b505050506139238961390a613c1b565b3360009081526004919091016020526040902090614779565b5060019350505050600160005595945050505050565b336139426128f1565b6001600160a01b0316146139685760405162461bcd60e51b8152600401610c27906154e0565b6001600160a01b0381166139cd5760405162461bcd60e51b815260206004820152602660248201527f4f776e61626c653a206e6577206f776e657220697320746865207a65726f206160448201526564647265737360d01b6064820152608401610c27565b611592816142bc565b6000600260005414156139fb5760405162461bcd60e51b8152600401610c2790615252565b6002600090815586908690613a0e613c1b565b6000848152600291909101602090815260408083208584529091529020546001600160a01b03161415613a535760405162461bcd60e51b8152600401610c2790615289565b611cf88888338989896000613da1565b600080613a6e613c1b565b6001600160a01b03841660009081526004919091016020526040812091505b613a968261432d565b811015613be6576000613aa98383614337565b9050600073__$1f9ad3a48ce553524574a0c26027261f08$__634ad23880836000896040518463ffffffff1660e01b8152600401613ae9939291906151af565b60e06040518083038186803b158015613b0157600080fd5b505af4158015613b15573d6000803e3d6000fd5b505050506040513d601f19601f82011682018060405250810190613b3991906151ce565b519050613b44614785565b6040516303a0a22f60e41b815260048101849052602481018390526001600160a01b039190911690633a0a22f09060440160206040518083038186803b158015613b8d57600080fd5b505afa158015613ba1573d6000803e3d6000fd5b505050506040513d601f19601f82011682018060405250810190613bc5919061540b565b613bcf9086615729565b945050508080613bde906154c5565b915050613a8d565b5050919050565b6060611eb2613bfa613c1b565b6001600160a01b03841660009081526004919091016020526040902061478f565b7f8041b8421ebd495cc61f38c788c9eb100daccf9bd36aa0bb920b7a15b2e0496590565b60007f360894a13ba1a3210667c828492db98dca3e2076cc3735a920a3ca505d382bbc610ac4565b613c70826142bc565b6117478161434d565b60008051602061586c833981519152546001600160a01b031615613cdf5760405162461bcd60e51b815260206004820152601b60248201527f7265736f6c766572207265676973746572656420616c726561647900000000006044820152606401610c27565b60008051602061586c83398151915280546001600160a01b0319166001600160a01b0392909216919091179055565b600080821215613d605760405162461bcd60e51b815260206004820181905260248201527f53616665436173743a2076616c7565206d75737420626520706f7369746976656044820152606401610c27565b5090565b6000613d6f82614277565b8015611eb25750506001600160a01b0316600090815260008051602061582c8339815191526020526040902054431190565b6000808411613de35760405162461bcd60e51b815260206004820152600e60248201526d125b9d985b1a5908185b5bdd5b9d60921b6044820152606401610c27565b6000613def8988612f11565b9050613e2988613dfd613c1b565b60008c8152600591909101602090815260408083206001600160a01b038d1684529091529020906142a1565b613e6757613e6588613e39613c1b565b60008c8152600591909101602090815260408083206001600160a01b038d168452909152902090614779565b505b82613f3957613e74614268565b6001600160a01b03166328ff7a42888b888a6040518563ffffffff1660e01b8152600401613ea594939291906156af565b60206040518083038186803b158015613ebd57600080fd5b505afa158015613ed1573d6000803e3d6000fd5b505050506040513d601f19601f82011682018060405250810190613ef591906156da565b613f395760405162461bcd60e51b8152602060048201526015602482015274139bdd08195b9bdd59da0818dbdb1b185d195c985b605a1b6044820152606401610c27565b6000806000613f46613c1b565b60008d8152600291909101602090815260408083208e845290915290819020549051633352870560e21b81526001600160a01b039091169063cd4a1c1490613f9a908c908e908d908d908d9060040161576a565b606060405180830381600087803b158015613fb457600080fd5b505af1158015613fc8573d6000803e3d6000fd5b505050506040513d601f19601f82011682018060405250810190613fec9190615321565b91945092509050613ffd8189615698565b945060008661407e578215806140135750600082115b15614026576140236001866153f3565b94505b60148511156140705760405162461bcd60e51b8152602060048201526016602482015275546f6f206d616e7920616374697665206f726465727360501b6044820152606401610c27565b61407b8d848e61479a565b90505b82156141e45773__$1f9ad3a48ce553524574a0c26027261f08$__633df3a2378e8e8e8e888c886040518863ffffffff1660e01b81526004016140c79796959493929190615382565b60006040518083038186803b1580156140df57600080fd5b505af41580156140f3573d6000803e3d6000fd5b505050508b8d8c6001600160a01b03167ff58abb58bdd84b485930c24ec5e99ec42b56c04c021af823afb6ae78aa244bcc8d8a8d8960405161413894939291906153ca565b60405180910390a473__$e769a865965cc8d3bf1590a15a9475ad85$__63e88e18378e8e61417260008051602061584c8339815191525490565b6040516001600160e01b031960e086901b16815260048101939093526024830191909152604482015260648101879052608481018c905260a4810186905260c40160006040518083038186803b1580156141cb57600080fd5b505af41580156141df573d6000803e3d6000fd5b505050505b6142128d6141f0613c1b565b6001600160a01b038e1660009081526004919091016020526040902090614779565b505050505050979650505050505050565b4360008051602061582c8339815191525b6001600160a01b039092166000908152602092909252604090912055565b600060008051602061582c833981519152614234565b6000614272614815565b905090565b6001600160a01b0316600090815260008051602061582c8339815191526020526040902054151590565b600081815260018301602052604081205415155b9392505050565b7f9acda75aebd150dd434541a4747a6dc606f4f1a59662477e67daf1fc0bf9e0aa80546001600160a01b038381166001600160a01b0319831681179093556040519116919082907f8be0079c531659141344cd1fd0a4f28419497f9722a3daafe3b4186f6b6457e090600090a35050565b6000611eb2825490565b60006142b5838361482d565b6000614272614857565b60008051602061584c83398151915254818114611747578160008051602061588c8339815191526002015560408051828152602081018490527fb310034e792eb345456b77ee9b3ade0d30b9866d547921c8f4d5e9273c941a90910160405180910390a15050565b60008060006143c48686612567565b905060008060008060008060006143d9613c1b565b60008e8152600291909101602090815260408083208f845290915290819020549051630516d8c960e11b81526001600160a01b038d8116600483015290911690630a2db1929060240160e060405180830381600087803b15801561443c57600080fd5b505af1158015614450573d6000803e3d6000fd5b505050506040513d601f19601f820116820180604052508101906144749190615584565b96509650965096509650965096508183111561450157614492614268565b6001600160a01b031663fb7bd3b48c8f6144ac8688615698565b6040518463ffffffff1660e01b81526004016144ca93929190615036565b600060405180830381600087803b1580156144e457600080fd5b505af11580156144f8573d6000803e3d6000fd5b5050505061457c565b8183101561457c57614511614268565b6001600160a01b0316634ba0c9b58c8f61452b8787615698565b6040518463ffffffff1660e01b815260040161454993929190615036565b600060405180830381600087803b15801561456357600080fd5b505af1158015614577573d6000803e3d6000fd5b505050505b841561465a57604051639e8d3d5560e01b81526001600160a01b038c81166004830152602482018790526044820183905260006064830152891690639e8d3d5590608401602060405180830381600087803b1580156145da57600080fd5b505af11580156145ee573d6000803e3d6000fd5b505050506040513d601f19601f8201168201806040525081019061461291906156da565b50808d8c6001600160a01b03167f997c951334d5983afa515edf5d21c61d3dfec68c3d93415b92248b0f15123aeb6000896040516146519291906157a6565b60405180910390a45b8315614738576040516305b0b29360e41b81526001600160a01b038c81166004830152602482018690526044820183905260006064830152891690635b0b293090608401602060405180830381600087803b1580156146b857600080fd5b505af11580156146cc573d6000803e3d6000fd5b505050506040513d601f19601f820116820180604052508101906146f091906156da565b50808d8c6001600160a01b03167f997c951334d5983afa515edf5d21c61d3dfec68c3d93415b92248b0f15123aeb60018860405161472f9291906157a6565b60405180910390a45b600061474485876153f3565b11985061475186886153f3565b99505050505050505050935093915050565b60006142b58383614870565b6000614272614963565b60006142b58383614982565b60006142726149d1565b6060611eb2826149f1565b60008142106147bb5760405162461bcd60e51b8152600401610c2790615289565b60006147c74284615698565b9050612db76147dc6127106301e133806157c1565b600087815260008051602061588c833981519152602052604090205486906148059085906157c1565b61480f91906157c1565b90614a4c565b600061427269151bdad95b95985d5b1d60b21b614abd565b600082600001828154811061484457614844615424565b9060005260206000200154905092915050565b60006142726a14995cd95c9d99519d5b9960aa1b614abd565b60008181526001830160205260408120548015614959576000614894600183615698565b85549091506000906148a890600190615698565b905081811461490d5760008660000182815481106148c8576148c8615424565b90600052602060002001549050808760000184815481106148eb576148eb615424565b6000918252602080832090910192909255918252600188019052604090208390555b855486908061491e5761491e6157e0565b600190038181906000526020600020016000905590558560010160008681526020019081526020016000206000905560019350505050611eb2565b6000915050611eb2565b60006142727011d95b995cda5cd5985b1d5955985d5b1d607a1b614abd565b60008181526001830160205260408120546149c957508154600181810184556000848152602080822090930184905584548482528286019093526040902091909155611eb2565b506000611eb2565b60006142727121bab93932b731bca1b7b73a3937b63632b960711b614abd565b606081600001805480602002602001604051908101604052809291908181526020018280548015611ad357602002820191906000526020600020905b815481526020019060010190808311614a2d5750505050509050919050565b6000808211614a5a57600080fd5b6005614a6683856157f6565b614a7190600a6157c1565b83614a7d86600a6157c1565b614a8791906157f6565b614a919190615698565b1015614aa857614aa182846157f6565b9050611eb2565b614ab282846157f6565b614aa19060016153f3565b60008181527f4abde63c3e81aefa5764b017968bc473e83e093d7e1a10247d19e0a3e41240196020908152604080832054815170026b4b9b9b4b7339030b2323932b9b99d1607d1b9381019390935260318084018690528251808503909101815260519093019091526001600160a01b031690816120195760405162461bcd60e51b8152600401610c279190615818565b6001600160a01b038116811461159257600080fd5b600080600060608486031215614b7857600080fd5b8335614b8381614b4e565b95602085013595506040909401359392505050565b600060208284031215614baa57600080fd5b5035919050565b600080600060608486031215614bc657600080fd5b505081359360208301359350604090920135919050565b600081518084526020808501945080840160005b83811015614c0d57815187529582019590820190600101614bf1565b509495945050505050565b606081526000614c2b6060830186614bdd565b8281036020840152614c3d8186614bdd565b90508281036040840152614c518185614bdd565b9695505050505050565b600080600060608486031215614c7057600080fd5b8335614c7b81614b4e565b92506020840135614c8b81614b4e565b929592945050506040919091013590565b60008060408385031215614caf57600080fd5b823591506020830135614cc181614b4e565b809150509250929050565b60008060408385031215614cdf57600080fd5b50508035926020909101359150565b600080600080600060a08688031215614d0657600080fd5b8535945060208601359350604086013592506060860135614d2681614b4e565b9150608086013562ffffff81168114614d3e57600080fd5b809150509295509295909350565b801515811461159257600080fd5b600060208284031215614d6c57600080fd5b81356142b581614d4c565b600080600060608486031215614d8c57600080fd5b83359250602084013591506040840135614da581614b4e565b809150509250925092565b6020808252825182820181905260009190848201906040850190845b81811015614df15783516001600160a01b031683529284019291840191600101614dcc565b50909695505050505050565b6020808252825182820181905260009190848201906040850190845b81811015614df157835183529284019291840191600101614e19565b6002811061159257600080fd5b600080600080600060a08688031215614e5a57600080fd5b85359450602086013593506040860135614e7381614e35565b94979396509394606081013594506080013592915050565b600080600060608486031215614ea057600080fd5b8335925060208401359150604084013565ffffffffffff81168114614da557600080fd5b600060208284031215614ed657600080fd5b81356142b581614b4e565b6020815260006142b56020830184614bdd565b600080600080600060a08688031215614f0c57600080fd5b505083359560208501359550604085013594606081013594506080013592509050565b634e487b7160e01b600052604160045260246000fd5b604051601f8201601f1916810167ffffffffffffffff81118282101715614f6e57614f6e614f2f565b604052919050565b600067ffffffffffffffff821115614f9057614f90614f2f565b5060051b60200190565b60008060408385031215614fad57600080fd5b823567ffffffffffffffff811115614fc457600080fd5b8301601f81018513614fd557600080fd5b80356020614fea614fe583614f76565b614f45565b82815260059290921b8301810191818101908884111561500957600080fd5b938201935b838510156150275784358252938201939082019061500e565b98969091013596505050505050565b6001600160a01b039390931683526020830191909152604082015260600190565b600080600080600080600080610100898b03121561507457600080fd5b885197506020890151965060408901519550606089015194506080890151935060a0890151925060c0890151915060e08901516150b081614d4c565b809150509295985092959890939650565b600082601f8301126150d257600080fd5b815160206150e2614fe583614f76565b82815260059290921b8401810191818101908684111561510157600080fd5b8286015b8481101561511c5780518352918301918301615105565b509695505050505050565b60008060006060848603121561513c57600080fd5b835167ffffffffffffffff8082111561515457600080fd5b615160878388016150c1565b9450602086015191508082111561517657600080fd5b615182878388016150c1565b9350604086015191508082111561519857600080fd5b506151a5868287016150c1565b9150509250925092565b92835260208301919091526001600160a01b0316604082015260600190565b600060e082840312156151e057600080fd5b60405160e0810181811067ffffffffffffffff8211171561520357615203614f2f565b8060405250825181526020830151602082015260408301516040820152606083015160608201526080830151608082015260a083015160a082015260c083015160c08201528091505092915050565b6020808252601f908201527f5265656e7472616e637947756172643a207265656e7472616e742063616c6c00604082015260600190565b60208082526010908201526f496e76616c6964206d6174757269747960801b604082015260600190565b600080604083850312156152c657600080fd5b505080516020909101519092909150565b600281106152f557634e487b7160e01b600052602160045260246000fd5b9052565b6060810161530782866152d7565b6001600160a01b0393909316602082015260400152919050565b60008060006060848603121561533657600080fd5b8351925060208401519150604084015190509250925092565b634e487b7160e01b600052601160045260246000fd5b6000600160ff1b82141561537b5761537b61534f565b5060000390565b878152602081018790526001600160a01b038616604082015260e081016153ac60608301876152d7565b8460808301528360a08301528260c083015298975050505050505050565b608081016153d882876152d7565b84602083015283604083015282606083015295945050505050565b600082198211156154065761540661534f565b500190565b60006020828403121561541d57600080fd5b5051919050565b634e487b7160e01b600052603260045260246000fd5b6000815180845260005b8181101561546057602081850181015186830182015201615444565b81811115615472576000602083870101525b50601f01601f19169290920160200192915050565b8281526040602082015260006154a0604083018461543a565b949350505050565b6000602082840312156154ba57600080fd5b81516142b581614b4e565b60006000198214156154d9576154d961534f565b5060010190565b6020808252818101527f4f776e61626c653a2063616c6c6572206973206e6f7420746865206f776e6572604082015260600190565b60008060006060848603121561552a57600080fd5b835161553581614e35565b602085015160409095015190969495509392505050565b65ffffffffffff8616815260a0810161556860208301876152d7565b8460408301528360608301528260808301529695505050505050565b600080600080600080600060e0888a03121561559f57600080fd5b5050855160208701516040880151606089015160808a015160a08b015160c0909b0151949c939b50919990985090965094509092509050565b6000806000606084860312156155ed57600080fd5b83516155f881614b4e565b602085015190935061560981614b4e565b80925050604084015190509250925092565b604080825283519082018190526000906020906060840190828701845b8281101561565457815184529284019290840190600101615638565b50505092019290925292915050565b60006020828403121561567557600080fd5b815167ffffffffffffffff81111561568c57600080fd5b6154a0848285016150c1565b6000828210156156aa576156aa61534f565b500390565b6001600160a01b0385168152602081018490526040810183905260808101612db760608301846152d7565b6000602082840312156156ec57600080fd5b81516142b581614d4c565b6080810161570582876152d7565b6001600160a01b039490941660208201526040810192909252606090910152919050565b600080821280156001600160ff1b038490038513161561574b5761574b61534f565b600160ff1b83900384128116156157645761576461534f565b50500190565b60a0810161577882886152d7565b6001600160a01b03959095166020820152604081019390935260608301919091521515608090910152919050565b604081016157b482856152d7565b8260208301529392505050565b60008160001904831182151516156157db576157db61534f565b500290565b634e487b7160e01b600052603160045260246000fd5b60008261581357634e487b7160e01b600052601260045260246000fd5b500490565b6020815260006142b5602083018461543a56fe19bfb841e3f2b667d170c57909e7685dd6a0cee80d36344e04905cfd7d917bd755cc3066d618b5a688ac1f2a8234e21c685f7432b4230a1660309640d60d8f664abde63c3e81aefa5764b017968bc473e83e093d7e1a10247d19e0a3e412401855cc3066d618b5a688ac1f2a8234e21c685f7432b4230a1660309640d60d8f6455cc3066d618b5a688ac1f2a8234e21c685f7432b4230a1660309640d60d8f65a26469706673582212202cab99238959e56bc737a1d32cdd42ac598c49bf0cd3ae7c0a700d341c5bfa0564736f6c63430008090033",
  "libraries": {
    "FundManagementLogic": "0x31908aa622b1f7846a78857D3bB650d8ED61e2dE",
    "LendingMarketOperationLogic": "0x41C8d12624cD955a94fDA3E52a7aF332b7BE1521"
  },
  "implementation": "0xbE9577513B2399BF2585578F8de411B73B6bF316",
  "devdoc": {
    "kind": "dev",
    "methods": {
      "acceptedContracts()": {
        "details": "The contact name listed in this method is also needed to be listed `requiredContracts` method."
      },
      "calculateFunds(bytes32,address)": {
        "params": {
          "_ccy": "Currency name in bytes32",
          "_user": "User's address"
        },
        "returns": {
          "borrowedAmount": "The borrowed amount due to the borrow orders being filled on the order book",
          "claimableAmount": "The claimable amount due to the lending orders being filled on the order book",
          "collateralAmount": "The actual collateral amount that is calculated by netting using the haircut.",
          "debtAmount": "The debt amount due to the borrow orders being filled on the order book",
          "lentAmount": "The lent amount due to the lend orders being filled on the order book",
          "workingBorrowOrdersAmount": "The working orders amount on the borrow order book",
          "workingLendOrdersAmount": "The working orders amount on the lend order book"
        }
      },
      "calculateTotalFundsInETH(address,bytes32,uint256)": {
        "params": {
          "_user": "User's address"
        }
      },
      "cancelOrder(bytes32,uint256,uint48)": {
        "params": {
          "_ccy": "Currency name in bytes32 of the selected market",
          "_maturity": "The maturity of the selected market",
          "_orderId": "Market order id"
        }
      },
      "cleanAllOrders(address)": {
        "params": {
          "_user": "User's address"
        }
      },
      "cleanOrders(bytes32,address)": {
        "params": {
          "_ccy": "Currency name in bytes32",
          "_user": "User's address"
        }
      },
      "createLendingMarket(bytes32,uint256)": {
        "params": {
          "_ccy": "Main currency for new lending market",
          "_openingDate": "Timestamp when the lending market opens"
        }
      },
      "createOrder(bytes32,uint256,uint8,uint256,uint256)": {
        "params": {
          "_amount": "Amount of funds the maker wants to borrow/lend",
          "_ccy": "Currency name in bytes32 of the selected market",
          "_maturity": "The maturity of the selected market",
          "_side": "Order position type, Borrow or Lend",
          "_unitPrice": "Amount of unit price taker wish to borrow/lend"
        },
        "returns": {
          "_0": "True if the execution of the operation succeeds"
        }
      },
      "createPreOrder(bytes32,uint256,uint8,uint256,uint256)": {
        "params": {
          "_amount": "Amount of funds the maker wants to borrow/lend",
          "_ccy": "Currency name in bytes32 of the selected market",
          "_maturity": "The maturity of the selected market",
          "_side": "Order position type, Borrow or Lend",
          "_unitPrice": "Amount of unit price taker wish to borrow/lend"
        },
        "returns": {
          "_0": "True if the execution of the operation succeeds"
        }
      },
      "depositAndCreateOrder(bytes32,uint256,uint8,uint256,uint256)": {
        "params": {
          "_amount": "Amount of funds the maker wants to borrow/lend",
          "_ccy": "Currency name in bytes32 of the selected market",
          "_maturity": "The maturity of the selected market",
          "_side": "Order position type, Borrow or Lend",
          "_unitPrice": "Amount of unit price taker wish to borrow/lend"
        },
        "returns": {
          "_0": "True if the execution of the operation succeeds"
        }
      },
      "depositAndCreatePreOrder(bytes32,uint256,uint8,uint256,uint256)": {
        "params": {
          "_amount": "Amount of funds the maker wants to borrow/lend",
          "_ccy": "Currency name in bytes32 of the selected market",
          "_maturity": "The maturity of the selected market",
          "_side": "Order position type, Borrow or Lend",
          "_unitPrice": "Amount of unit price taker wish to borrow/lend"
        },
        "returns": {
          "_0": "True if the execution of the operation succeeds"
        }
      },
      "executeLiquidationCall(bytes32,bytes32,uint256,address,uint24)": {
        "details": "A liquidation amount is calculated from the selected debt, but its maximum amount is the same as a collateral amount. That amount needs to be set at liquidationAmountMax otherwise currency swapping using Uniswap will fail if the collateral is insufficient.",
        "params": {
          "_collateralCcy": "Currency name to be used as collateral",
          "_debtCcy": "Currency name to be used as debt",
          "_debtMaturity": "The market maturity of the debt",
          "_poolFee": "Uniswap pool fee",
          "_user": "User's address"
        },
        "returns": {
          "_0": "True if the execution of the operation succeeds"
        }
      },
      "getAutoRollFeeRate(bytes32)": {
        "params": {
          "_ccy": "Currency name in bytes32"
        },
        "returns": {
          "_0": "The auto-roll fee rate received by protocol"
        }
      },
      "getBorrowOrderBook(bytes32,uint256,uint256)": {
        "params": {
          "_ccy": "Currency name in bytes32",
          "_limit": "The limit number to get",
          "_maturity": "The maturity of the market"
        },
        "returns": {
          "amounts": "The array of borrow order amounts",
          "quantities": "The array of borrow order quantities",
          "unitPrices": "The array of borrow unit prices"
        }
      },
      "getBorrowUnitPrices(bytes32)": {
        "params": {
          "_ccy": "Currency name in bytes32"
        },
        "returns": {
          "_0": "Array with the borrowing prices per future value of the lending market"
        }
      },
      "getFutureValue(bytes32,uint256,address)": {
        "params": {
          "_ccy": "Currency name in bytes32 for Lending Market",
          "_maturity": "The maturity of the market",
          "_user": "User's address"
        },
        "returns": {
          "futureValue": "The future value"
        }
      },
      "getFutureValueVault(bytes32,uint256)": {
        "params": {
          "_ccy": "Currency name in bytes32",
          "_maturity": "The maturity of the market"
        },
        "returns": {
          "_0": "The lending market address"
        }
      },
      "getGenesisDate(bytes32)": {
        "params": {
          "_ccy": "Currency name in bytes32"
        },
        "returns": {
          "_0": "The genesis date"
        }
      },
      "getLendOrderBook(bytes32,uint256,uint256)": {
        "params": {
          "_ccy": "Currency name in bytes32",
          "_limit": "The limit number to get",
          "_maturity": "The maturity of the market"
        },
        "returns": {
          "amounts": "The array of lend order amounts",
          "quantities": "The array of lend order quantities",
          "unitPrices": "The array of borrow unit prices"
        }
      },
      "getLendUnitPrices(bytes32)": {
        "params": {
          "_ccy": "Currency name in bytes32"
        },
        "returns": {
          "_0": "Array with the lending prices per future value of the lending market"
        }
      },
      "getLendingMarket(bytes32,uint256)": {
        "params": {
          "_ccy": "Currency name in bytes32",
          "_maturity": "The maturity of the market"
        },
        "returns": {
          "_0": "The lending market address"
        }
      },
      "getLendingMarkets(bytes32)": {
        "params": {
          "_ccy": "Currency name in bytes32"
        },
        "returns": {
          "_0": "Array with the lending market address"
        }
      },
      "getMaturities(bytes32)": {
        "params": {
          "_ccy": "Currency name in bytes32"
        },
        "returns": {
          "_0": "Array with the lending market maturity"
        }
      },
      "getMidUnitPrices(bytes32)": {
        "params": {
          "_ccy": "Currency name in bytes32"
        },
        "returns": {
          "_0": "Array with the mid prices per future value of the lending market"
        }
      },
      "getObservationPeriod()": {
        "returns": {
          "_0": "The observation period to calculate the volume-weighted average price of transactions"
        }
      },
      "getOrderFeeRate(bytes32)": {
        "params": {
          "_ccy": "Currency name in bytes32"
        },
        "returns": {
          "_0": "The order fee rate received by protocol"
        }
      },
      "getPresentValue(bytes32,uint256,address)": {
        "params": {
          "_ccy": "Currency name in bytes32 for Lending Market",
          "_maturity": "The maturity of the market",
          "_user": "User's address"
        },
        "returns": {
          "presentValue": "The present value"
        }
      },
      "getTotalPresentValue(bytes32,address)": {
        "params": {
          "_ccy": "Currency name in bytes32 for Lending Market",
          "_user": "User's address"
        },
        "returns": {
          "totalPresentValue": "The total present value"
        }
      },
      "getTotalPresentValueInETH(address)": {
        "params": {
          "_user": "User's address"
        },
        "returns": {
          "totalPresentValue": "The total present value in ETH"
        }
      },
      "getUsedCurrencies(address)": {
        "params": {
          "_user": "User's address"
        },
        "returns": {
          "_0": "The array of the currency"
        }
      },
      "initialize(address,address,uint256)": {
        "details": "Function is invoked by the proxy contract when the contract is added to the ProxyController.",
        "params": {
          "_observationPeriod": "The observation period to calculate the volume-weighted average price of transactions",
          "_owner": "The address of the contract owner",
          "_resolver": "The address of the Address Resolver contract"
        }
      },
      "initializeLendingMarket(bytes32,uint256,uint256,uint256,uint256)": {
        "params": {
          "_autoRollFeeRate": "The auto roll fee rate received by protocol",
          "_ccy": "Currency name in bytes32",
          "_compoundFactor": "The initial compound factor when the initial market is opened",
          "_genesisDate": "The genesis date when the initial market is opened",
          "_orderFeeRate": "The order fee rate received by protocol"
        }
      },
      "isInitializedLendingMarket(bytes32)": {
        "params": {
          "_ccy": "Currency name in bytes32"
        },
        "returns": {
          "_0": "The boolean if the lending market is initialized or not"
        }
      },
      "isLiquidator(address)": {
        "returns": {
          "_0": "The boolean if the user is registered as a liquidator or not"
        }
      },
      "owner()": {
        "details": "Returns the address of the current owner."
      },
      "pauseLendingMarkets(bytes32)": {
        "params": {
          "_ccy": "Currency for pausing all lending markets"
        },
        "returns": {
          "_0": "True if the execution of the operation succeeds"
        }
      },
      "registerLiquidator(bool)": {
        "params": {
          "_isLiquidator": "The boolean if the user is a liquidator or not"
        }
      },
      "renounceOwnership()": {
        "details": "Leaves the contract without owner. It will not be possible to call `onlyOwner` functions anymore. Can only be called by the current owner. NOTE: Renouncing ownership will leave the contract without an owner, thereby removing any functionality that is only available to the owner."
      },
      "requiredContracts()": {
        "details": "The contract name list is in `./libraries/Contracts.sol`."
      },
      "rotateLendingMarkets(bytes32)": {
        "params": {
          "_ccy": "Currency name in bytes32 of the selected market"
        }
      },
      "transferOwnership(address)": {
        "details": "Transfers ownership of the contract to a new account (`newOwner`). Can only be called by the current owner."
      },
      "unpauseLendingMarkets(bytes32)": {
        "params": {
          "_ccy": "Currency name in bytes32"
        },
        "returns": {
          "_0": "True if the execution of the operation succeeds"
        }
      },
      "unwindOrder(bytes32,uint256)": {
        "params": {
          "_ccy": "Currency name in bytes32 of the selected market",
          "_maturity": "The maturity of the selected market"
        }
      },
      "updateAutoRollFeeRate(bytes32,uint256)": {
        "params": {
          "_autoRollFeeRate": "The order fee rate received by protocol",
          "_ccy": "Currency name in bytes32"
        }
      },
      "updateObservationPeriod(uint256)": {
        "params": {
          "_observationPeriod": "The observation period to calculate the volume-weighted average price of transactions"
        }
      },
      "updateOrderFeeRate(bytes32,uint256)": {
        "params": {
          "_ccy": "Currency name in bytes32",
          "_orderFeeRate": "The order fee rate received by protocol"
        }
      }
    },
    "version": 1
  },
  "userdoc": {
    "kind": "user",
    "methods": {
      "acceptedContracts()": {
        "notice": "Returns contract names that can call this contract."
      },
      "calculateFunds(bytes32,address)": {
        "notice": "Gets the funds that are calculated from the user's lending and borrowing order list for the selected currency."
      },
      "calculateTotalFundsInETH(address,bytes32,uint256)": {
        "notice": "Gets the funds that are calculated from the user's lending and borrowing order list for all currencies in ETH."
      },
      "cancelOrder(bytes32,uint256,uint48)": {
        "notice": "Cancels the own order."
      },
      "cleanAllOrders(address)": {
        "notice": "Cleans user's all orders to remove order ids that are already filled on the order book."
      },
      "cleanOrders(bytes32,address)": {
        "notice": "Cleans user's orders to remove order ids that are already filled on the order book for a selected currency."
      },
      "createLendingMarket(bytes32,uint256)": {
        "notice": "Deploys new Lending Market and save address at lendingMarkets mapping.Reverts on deployment market with existing currency and term"
      },
      "createOrder(bytes32,uint256,uint8,uint256,uint256)": {
        "notice": "Creates an order. Takes orders if the orders are matched, and places new order if not match it. In addition, converts the future value to the genesis value if there is future value in past maturity before the execution of order creation."
      },
      "createPreOrder(bytes32,uint256,uint8,uint256,uint256)": {
        "notice": "Creates a pre-order. A pre-order will only be accepted from 48 hours to 1 hour before the market opens (Pre-order period). At the end of this period, Itayose will be executed."
      },
      "depositAndCreateOrder(bytes32,uint256,uint8,uint256,uint256)": {
        "notice": "Deposits funds and creates an order at the same time."
      },
      "depositAndCreatePreOrder(bytes32,uint256,uint8,uint256,uint256)": {
        "notice": "Deposits funds and creates a pre-order at the same time."
      },
      "executeLiquidationCall(bytes32,bytes32,uint256,address,uint24)": {
        "notice": "Liquidates a lending position if the user's coverage is less than 1."
      },
      "getAutoRollFeeRate(bytes32)": {
        "notice": "Gets the auto-roll fee rate"
      },
      "getBorrowOrderBook(bytes32,uint256,uint256)": {
        "notice": "Gets the order book of borrow."
      },
      "getBorrowUnitPrices(bytes32)": {
        "notice": "Gets borrow prices per future value for the selected currency."
      },
      "getFutureValue(bytes32,uint256,address)": {
        "notice": "Gets the future value of the account for selected currency and maturity."
      },
      "getFutureValueVault(bytes32,uint256)": {
        "notice": "Gets the feture value contract address for the selected currency and maturity."
      },
      "getGenesisDate(bytes32)": {
        "notice": "Gets the genesis date when the first market opens for the selected currency."
      },
      "getLendOrderBook(bytes32,uint256,uint256)": {
        "notice": "Gets the order book of lend."
      },
      "getLendUnitPrices(bytes32)": {
        "notice": "Gets lend prices per future value for the selected currency."
      },
      "getLendingMarket(bytes32,uint256)": {
        "notice": "Gets the lending market contract address for the selected currency and maturity."
      },
      "getLendingMarkets(bytes32)": {
        "notice": "Gets the lending market contract addresses for the selected currency."
      },
      "getMaturities(bytes32)": {
        "notice": "Gets maturities for the selected currency."
      },
      "getMidUnitPrices(bytes32)": {
        "notice": "Gets mid prices per future value for the selected currency."
      },
      "getObservationPeriod()": {
        "notice": "Gets the observation period"
      },
      "getOrderFeeRate(bytes32)": {
        "notice": "Gets the order fee rate"
      },
      "getPresentValue(bytes32,uint256,address)": {
        "notice": "Gets the present value of the account for selected currency and maturity."
      },
      "getTotalPresentValue(bytes32,address)": {
        "notice": "Gets the total present value of the account for selected currency."
      },
      "getTotalPresentValueInETH(address)": {
        "notice": "Gets the total present value of the account converted to ETH."
      },
      "getUsedCurrencies(address)": {
        "notice": "Get all the currencies in which the user has lending positions or orders."
      },
      "initialize(address,address,uint256)": {
        "notice": "Initializes the contract."
      },
      "initializeLendingMarket(bytes32,uint256,uint256,uint256,uint256)": {
        "notice": "Initialize the lending market to set a genesis date and compound factor"
      },
      "isInitializedLendingMarket(bytes32)": {
        "notice": "Gets if the lending market is initialized."
      },
      "isLiquidator(address)": {
        "notice": "Gets if the user is registered as a liquidator."
      },
      "pauseLendingMarkets(bytes32)": {
        "notice": "Pauses previously deployed lending market by currency"
      },
      "registerLiquidator(bool)": {
        "notice": "Registers a user as a liquidator."
      },
      "requiredContracts()": {
        "notice": "Returns the contract names used in this contract."
      },
      "rotateLendingMarkets(bytes32)": {
        "notice": "Rotates the lending markets. In this rotation, the following actions are happened. - Updates the maturity at the beginning of the market array. - Moves the beginning of the market array to the end of it (Market rotation). - Update the compound factor in this contract using the next market unit price. (Auto-rolls) - Convert the future value held by reserve funds into the genesis value"
      },
      "unpauseLendingMarkets(bytes32)": {
        "notice": "Unpauses previously deployed lending market by currency"
      },
      "unwindOrder(bytes32,uint256)": {
        "notice": "Unwind all orders by creating an opposite position order."
      },
      "updateAutoRollFeeRate(bytes32,uint256)": {
        "notice": "Updates the auto-roll fee rate"
      },
      "updateObservationPeriod(uint256)": {
        "notice": "Updates the observation period"
      },
      "updateOrderFeeRate(bytes32,uint256)": {
        "notice": "Updates the order fee rate"
      }
    },
    "notice": "Implements the module to manage separated lending order-book markets per maturity. This contract also works as a factory contract that can deploy(start)a new lending market for selected currency and maturity and has the calculation logic for the Genesis value in addition. Deployed Lending Markets are rotated and reused as it reaches the maturity date. At the time of rotation, a new maturity date is set and the compound factor is updated. The users mainly call this contract to create orders to lend or borrow funds.",
    "version": 1
  },
  "storageLayout": {
    "storage": [
      {
        "astId": 1446,
        "contract": "contracts/LendingMarketController.sol:LendingMarketController",
        "label": "_status",
        "offset": 0,
        "slot": "0",
        "type": "t_uint256"
      },
      {
        "astId": 1183,
        "contract": "contracts/LendingMarketController.sol:LendingMarketController",
        "label": "_initialized",
        "offset": 0,
        "slot": "1",
        "type": "t_uint8"
      },
      {
        "astId": 1186,
        "contract": "contracts/LendingMarketController.sol:LendingMarketController",
        "label": "_initializing",
        "offset": 1,
        "slot": "1",
        "type": "t_bool"
      }
    ],
    "types": {
      "t_bool": {
        "encoding": "inplace",
        "label": "bool",
        "numberOfBytes": "1"
      },
      "t_uint256": {
        "encoding": "inplace",
        "label": "uint256",
        "numberOfBytes": "32"
      },
      "t_uint8": {
        "encoding": "inplace",
        "label": "uint8",
        "numberOfBytes": "1"
      }
    }
  }
}