{
  "address": "0x3D3AE1A39e35076a120C8A4E135D9a901a99c94f",
  "abi": [
    {
      "inputs": [
        {
          "internalType": "address[]",
          "name": "_addresses",
          "type": "address[]"
        }
      ],
      "name": "buildCaches",
      "outputs": [],
      "stateMutability": "nonpayable",
      "type": "function"
    }
  ],
  "transactionHash": "0xd7e5dabe70bc009b168ee96498767fdcefab212484e18aa7b9a0d42b36eaa328",
  "args": [],
  "numDeployments": 1,
  "solcInputHash": "076e49499f50f02d9b42f8bc4ae28600",
  "bytecode": "0x608060405234801561001057600080fd5b50610298806100206000396000f3fe608060405234801561001057600080fd5b506004361061002b5760003560e01c806367ba79c814610030575b600080fd5b61004361003e36600461015c565b610045565b005b60005b81811015610157576000838383818110610064576100646101d1565b905060200201602081019061007991906101e7565b9050806001600160a01b0316632af64bd36040518163ffffffff1660e01b815260040160206040518083038186803b1580156100b457600080fd5b505afa1580156100c8573d6000803e3d6000fd5b505050506040513d601f19601f820116820180604052508101906100ec9190610217565b61014457806001600160a01b03166329985e5a6040518163ffffffff1660e01b8152600401600060405180830381600087803b15801561012b57600080fd5b505af115801561013f573d6000803e3d6000fd5b505050505b508061014f81610239565b915050610048565b505050565b6000806020838503121561016f57600080fd5b823567ffffffffffffffff8082111561018757600080fd5b818501915085601f83011261019b57600080fd5b8135818111156101aa57600080fd5b8660208260051b85010111156101bf57600080fd5b60209290920196919550909350505050565b634e487b7160e01b600052603260045260246000fd5b6000602082840312156101f957600080fd5b81356001600160a01b038116811461021057600080fd5b9392505050565b60006020828403121561022957600080fd5b8151801515811461021057600080fd5b600060001982141561025b57634e487b7160e01b600052601160045260246000fd5b506001019056fea2646970667358221220204ada24566518b102640410c0e434b2f410cdd9e47afed4278d76a1b7837d7064736f6c63430008090033",
  "devdoc": {
    "kind": "dev",
    "methods": {},
    "version": 1
  },
  "userdoc": {
    "kind": "user",
    "methods": {},
    "notice": "Implements migration module to build caches of contract address from `AddressResolver.sol` in the contract that is inherited `MixinAddressResolver.sol`. This contract is used only in the following cases. - The case of the initial deployment of the contract. - The case when some contract needs to deploy a new proxy contract.",
    "version": 1
  },
  "storageLayout": {
    "storage": [],
    "types": null
  }
}