{
  "address": "0xe6350D543f0377be8240c5564072196dc8658890",
  "abi": [
    {
      "inputs": [
        {
          "internalType": "enum ProtocolTypes.Side",
          "name": "_side",
          "type": "ProtocolTypes.Side"
        },
        {
          "internalType": "uint256",
          "name": "_futureValue",
          "type": "uint256"
        }
      ],
      "name": "estimateFilledAmount",
      "outputs": [
        {
          "internalType": "uint256",
          "name": "amount",
          "type": "uint256"
        }
      ],
      "stateMutability": "view",
      "type": "function"
    },
    {
      "inputs": [
        {
          "internalType": "address",
          "name": "_user",
          "type": "address"
        }
      ],
      "name": "getActiveBorrowOrderIds",
      "outputs": [
        {
          "internalType": "uint48[]",
          "name": "activeOrderIds",
          "type": "uint48[]"
        },
        {
          "internalType": "uint48[]",
          "name": "inActiveOrderIds",
          "type": "uint48[]"
        }
      ],
      "stateMutability": "view",
      "type": "function"
    },
    {
      "inputs": [
        {
          "internalType": "address",
          "name": "_user",
          "type": "address"
        }
      ],
      "name": "getActiveLendOrderIds",
      "outputs": [
        {
          "internalType": "uint48[]",
          "name": "activeOrderIds",
          "type": "uint48[]"
        },
        {
          "internalType": "uint48[]",
          "name": "inActiveOrderIds",
          "type": "uint48[]"
        }
      ],
      "stateMutability": "view",
      "type": "function"
    },
    {
      "inputs": [
        {
          "internalType": "uint256",
          "name": "_limit",
          "type": "uint256"
        }
      ],
      "name": "getBorrowOrderBook",
      "outputs": [
        {
          "internalType": "uint256[]",
          "name": "unitPrices",
          "type": "uint256[]"
        },
        {
          "internalType": "uint256[]",
          "name": "amounts",
          "type": "uint256[]"
        },
        {
          "internalType": "uint256[]",
          "name": "quantities",
          "type": "uint256[]"
        }
      ],
      "stateMutability": "view",
      "type": "function"
    },
    {
      "inputs": [],
      "name": "getHighestLendingUnitPrice",
      "outputs": [
        {
          "internalType": "uint256",
          "name": "",
          "type": "uint256"
        }
      ],
      "stateMutability": "view",
      "type": "function"
    },
    {
      "inputs": [
        {
          "internalType": "uint256",
          "name": "_limit",
          "type": "uint256"
        }
      ],
      "name": "getLendOrderBook",
      "outputs": [
        {
          "internalType": "uint256[]",
          "name": "unitPrices",
          "type": "uint256[]"
        },
        {
          "internalType": "uint256[]",
          "name": "amounts",
          "type": "uint256[]"
        },
        {
          "internalType": "uint256[]",
          "name": "quantities",
          "type": "uint256[]"
        }
      ],
      "stateMutability": "view",
      "type": "function"
    },
    {
      "inputs": [],
      "name": "getLowestBorrowingUnitPrice",
      "outputs": [
        {
          "internalType": "uint256",
          "name": "",
          "type": "uint256"
        }
      ],
      "stateMutability": "view",
      "type": "function"
    },
    {
      "inputs": [
        {
          "internalType": "uint48",
          "name": "_orderId",
          "type": "uint48"
        }
      ],
      "name": "getOrder",
      "outputs": [
        {
          "internalType": "enum ProtocolTypes.Side",
          "name": "side",
          "type": "ProtocolTypes.Side"
        },
        {
          "internalType": "uint256",
          "name": "unitPrice",
          "type": "uint256"
        },
        {
          "internalType": "uint256",
          "name": "maturity",
          "type": "uint256"
        },
        {
          "internalType": "address",
          "name": "maker",
          "type": "address"
        },
        {
          "internalType": "uint256",
          "name": "amount",
          "type": "uint256"
        },
        {
          "internalType": "uint256",
          "name": "timestamp",
          "type": "uint256"
        }
      ],
      "stateMutability": "view",
      "type": "function"
    },
    {
      "inputs": [
        {
          "internalType": "address",
          "name": "_user",
          "type": "address"
        }
      ],
      "name": "getTotalAmountFromBorrowOrders",
      "outputs": [
        {
          "internalType": "uint256",
          "name": "activeAmount",
          "type": "uint256"
        },
        {
          "internalType": "uint256",
          "name": "inactiveAmount",
          "type": "uint256"
        },
        {
          "internalType": "uint256",
          "name": "inactiveFutureValue",
          "type": "uint256"
        },
        {
          "internalType": "uint256",
          "name": "maturity",
          "type": "uint256"
        }
      ],
      "stateMutability": "view",
      "type": "function"
    },
    {
      "inputs": [
        {
          "internalType": "address",
          "name": "_user",
          "type": "address"
        }
      ],
      "name": "getTotalAmountFromLendOrders",
      "outputs": [
        {
          "internalType": "uint256",
          "name": "activeAmount",
          "type": "uint256"
        },
        {
          "internalType": "uint256",
          "name": "inactiveAmount",
          "type": "uint256"
        },
        {
          "internalType": "uint256",
          "name": "inactiveFutureValue",
          "type": "uint256"
        },
        {
          "internalType": "uint256",
          "name": "maturity",
          "type": "uint256"
        }
      ],
      "stateMutability": "view",
      "type": "function"
    }
  ],
  "transactionHash": "0x5278374e6c0869783f8b401519b9dcb3d9714cef62adb00a87095b2ec0925b06",
  "args": [],
  "numDeployments": 1,
  "solcInputHash": "1e24c51bbcecda2305624c640e710cbe",
  "bytecode": "0x614e6361003a600b82828239805160001a60731461002d57634e487b7160e01b600052600060045260246000fd5b30600052607381538281f3fe73000000000000000000000000000000000000000030146080604052600436106100ff5760003560e01c8063914551f1116100a1578063e3d904d811610070578063e3d904d8146102c8578063e7df768c146102fb578063eebc28f91461030e578063fa6127aa1461032157600080fd5b8063914551f11461026c578063a452c3f81461028c578063d866d355146102ad578063e2afb041146102c057600080fd5b8063614152b9116100dd578063614152b91461019257806363978ac8146101a85780636c5db843146102185780637ce219aa1461024757600080fd5b80633684d3ea146101045780634a53967b146101405780634bf62d1614610170575b600080fd5b81801561011057600080fd5b5061012461011f366004614966565b610334565b60405165ffffffffffff90911681526020015b60405180910390f35b81801561014c57600080fd5b5061016061015b3660046149c6565b61053b565b6040516101379493929190614a33565b61018361017e366004614a62565b61078e565b60405161013793929190614aab565b61019a610a42565b604051908152602001610137565b8180156101b457600080fd5b506101c86101c3366004614aee565b610a8c565b60408051845165ffffffffffff1681526020808601516001600160a01b031690820152848201519181019190915260609384015193810193909352608083019190915260a082015260c001610137565b81801561022457600080fd5b50610238610233366004614b37565b610b5e565b60405161013793929190614ba2565b61025a610255366004614bc1565b610cfc565b60405161013796959493929190614bdc565b81801561027857600080fd5b506101606102873660046149c6565b610e8b565b61029f61029a366004614c1b565b6110d1565b604051610137929190614c36565b6101836102bb366004614a62565b61142d565b61019a611674565b6102db6102d6366004614c1b565b611686565b604080519485526020850193909352918301526060820152608001610137565b6102db610309366004614c1b565b61192e565b61029f61031c366004614c1b565b611bb2565b61019a61032f366004614c5b565b611ec1565b600061033e611f5c565b9050604051806080016040528087600181111561035d5761035d614b6a565b8152602001848152602001610370611fb5565b60030154815260200142815250610385611fb5565b65ffffffffffff831660009081526007919091016020526040902081518154829060ff1916600183818111156103bd576103bd614b6a565b0217905550602082015160018201556040820151600282015560609091015160039091015560008660018111156103f6576103f6614b6a565b141561049f5761043d838287878661040c611fb5565b6008016000610419611fb5565b600301548152602001908152602001600020611fd99095949392919063ffffffff16565b610445611fb5565b6001600160a01b03861660009081526004919091016020908152604082208054600181018255908352912060058083049091018054919092066006026101000a65ffffffffffff8181021990921691841602179055610532565b60018660018111156104b3576104b3614b6a565b1415610532576104d683828787866104c9611fb5565b6009016000610419611fb5565b6104de611fb5565b6001600160a01b0386166000908152600591820160209081526040822080546001810182559083529120828204018054929091066006026101000a65ffffffffffff81810219909316928416029190911790555b95945050505050565b6060600080600080600061054e88611bb2565b915091508161055b611fb5565b60050160008a6001600160a01b03166001600160a01b03168152602001908152602001600020908051906020019061059492919061483d565b50815181519095508067ffffffffffffffff8111156105b5576105b5614c77565b6040519080825280602002602001820160405280156105de578160200160208202803683370190505b50965060005b818110156107815760006105f6611fb5565b600701600085848151811061060d5761060d614c8d565b602002602001015165ffffffffffff1681526020019081526020016000206040518060800160405290816000820160009054906101000a900460ff16600181111561065a5761065a614b6a565b600181111561066b5761066b614b6a565b81526020016001820154815260200160028201548152602001600382015481525050905060006106d482602001518685815181106106ab576106ab614c8d565b60200260200101516106bb611fb5565b60008f81526009919091016020526040902091906120a2565b905061071982602001518685815181106106f0576106f0614c8d565b6020026020010151610700611fb5565b60008f815260099190910160205260409020919061215d565b6107239089614cb9565b97508060a00151876107359190614cb9565b965080600001518a848151811061074e5761074e614c8d565b602002602001019065ffffffffffff16908165ffffffffffff16815250505050808061077990614cd1565b9150506105e4565b5050505092959194509250565b60608060608367ffffffffffffffff8111156107ac576107ac614c77565b6040519080825280602002602001820160405280156107d5578160200160208202803683370190505b5092508367ffffffffffffffff8111156107f1576107f1614c77565b60405190808252806020026020018201604052801561081a578160200160208202803683370190505b5091508367ffffffffffffffff81111561083657610836614c77565b60405190808252806020026020018201604052801561085f578160200160208202803683370190505b509050600061089361086f611fb5565b600801600061087c611fb5565b60030154815260200190815260200160002061219a565b905080846000815181106108a9576108a9614c8d565b6020026020010181815250506108ee816108c1611fb5565b60080160006108ce611fb5565b6003015481526020019081526020016000206121e190919063ffffffff16565b8360008151811061090157610901614c8d565b60200260200101818152505061094681610919611fb5565b6008016000610926611fb5565b6003015481526020019081526020016000206121fa90919063ffffffff16565b8260008151811061095957610959614c8d565b602090810291909101015260015b8451811015610a39578161097a57610a39565b6109b382610986611fb5565b6008016000610993611fb5565b60030154815260200190815260200160002061221390919063ffffffff16565b9150818582815181106109c8576109c8614c8d565b6020026020010181815250506109e0826108c1611fb5565b8482815181106109f2576109f2614c8d565b602002602001018181525050610a0a82610919611fb5565b838281518110610a1c57610a1c614c8d565b602090810291909101015280610a3181614cd1565b915050610967565b50509193909250565b600080610a74610a50611fb5565b6009016000610a5d611fb5565b60030154815260200190815260200160002061230d565b90508015610a825780610a86565b6127105b91505090565b610a946148f2565b6000806001866001811115610aab57610aab614b6a565b1415610af857610aec8585610abe611fb5565b6008016000610acb611fb5565b60030154815260200190815260200160002061234f9092919063ffffffff16565b94509092509050610b55565b6000866001811115610b0c57610b0c614b6a565b1415610b5557610b4d8585610b1f611fb5565b6009016000610b2c611fb5565b6003015481526020019081526020016000206126949092919063ffffffff16565b945090925090505b93509350939050565b600080600080610b6c611fb5565b65ffffffffffff861660009081526007919091016020526040908190208151608081019092528054829060ff166001811115610baa57610baa614b6a565b6001811115610bbb57610bbb614b6a565b81526001820154602082015260028201546040820152600390910154606090910152905060008082516001811115610bf557610bf5614b6a565b1415610c7657610c3a826020015187610c0c611fb5565b6008016000610c19611fb5565b60030154815260200190815260200160002061298e9092919063ffffffff16565b9050610c71610c47611fb5565b6001600160a01b03891660009081526004919091016020526040902065ffffffffffff88166129ce565b610ce6565b600182516001811115610c8b57610c8b614b6a565b1415610ce657610caf826020015187610ca2611fb5565b6009016000610c19611fb5565b9050610ce6610cbc611fb5565b6001600160a01b03891660009081526005919091016020526040902065ffffffffffff88166129ce565b8151602090920151919450925090509250925092565b6000806000806000806000610d0f611fb5565b65ffffffffffff891660009081526007919091016020526040908190208151608081019092528054829060ff166001811115610d4d57610d4d614b6a565b6001811115610d5e57610d5e614b6a565b815260200160018201548152602001600282015481526020016003820154815250509050610dba6040805160c081018252600080825260208201819052918101829052606081018290526080810182905260a081019190915290565b600082516001811115610dcf57610dcf614b6a565b1415610e0a57610e0382602001518a610de6611fb5565b6040808701516000908152600892909201602052902091906120a2565b9050610e3b565b610e3882602001518a610e1b611fb5565b6040808701516000908152600992909201602052902091906120a2565b90505b60608101516001600160a01b031615610e7f5781600001518260200151836040015183606001518460a0015185608001519750975097509750975097505050610e82565b50505b91939550919395565b60606000806000806000610e9e886110d1565b9150915081610eab611fb5565b60040160008a6001600160a01b03166001600160a01b031681526020019081526020016000209080519060200190610ee492919061483d565b50815181519095508067ffffffffffffffff811115610f0557610f05614c77565b604051908082528060200260200182016040528015610f2e578160200160208202803683370190505b50965060005b81811015610781576000610f46611fb5565b6007016000858481518110610f5d57610f5d614c8d565b602002602001015165ffffffffffff1681526020019081526020016000206040518060800160405290816000820160009054906101000a900460ff166001811115610faa57610faa614b6a565b6001811115610fbb57610fbb614b6a565b81526020016001820154815260200160028201548152602001600382015481525050905060006110248260200151868581518110610ffb57610ffb614c8d565b602002602001015161100b611fb5565b60008f81526008919091016020526040902091906120a2565b9050611069826020015186858151811061104057611040614c8d565b6020026020010151611050611fb5565b60008f815260089190910160205260409020919061215d565b6110739089614cb9565b97508060a00151876110859190614cb9565b965080600001518a848151811061109e5761109e614c8d565b602002602001019065ffffffffffff16908165ffffffffffff1681525050505080806110c990614cd1565b915050610f34565b60608060008060006110e1611fb5565b600301546110ed611fb5565b6001600160a01b03881660009081526006919091016020526040902054141590508061113d5761111b611fb5565b6001600160a01b03871660009081526004919091016020526040902054611140565b60005b67ffffffffffffffff81111561115857611158614c77565b604051908082528060200260200182016040528015611181578160200160208202803683370190505b50945061118c611fb5565b6001600160a01b0387166000908152600491909101602052604090205467ffffffffffffffff8111156111c1576111c1614c77565b6040519080825280602002602001820160405280156111ea578160200160208202803683370190505b50935060005b6111f8611fb5565b6001600160a01b03881660009081526004919091016020526040902054811015611424576000611226611fb5565b6001600160a01b03891660009081526004919091016020526040902080548390811061125457611254614c8d565b90600052602060002090600591828204019190066006029054906101000a900465ffffffffffff1690506000611288611fb5565b65ffffffffffff831660009081526007919091016020526040908190208151608081019092528054829060ff1660018111156112c6576112c6614b6a565b60018111156112d7576112d7614b6a565b81526020016001820154815260200160028201548152602001600382015481525050905061135d81602001518361130c611fb5565b6008016000611319611fb5565b60060160008f6001600160a01b03166001600160a01b03168152602001908152602001600020548152602001908152602001600020612b249092919063ffffffff16565b6113ba5761136c600186614cb9565b9450818761137a8886614cec565b8151811061138a5761138a614c8d565b602002602001019065ffffffffffff16908165ffffffffffff1681525050836113b557600188510388525b61140f565b83611407576113ca600187614cb9565b955081886113d88786614cec565b815181106113e8576113e8614c8d565b602002602001019065ffffffffffff16908165ffffffffffff16815250505b600187510387525b5050808061141c90614cd1565b9150506111f0565b50505050915091565b60608060608367ffffffffffffffff81111561144b5761144b614c77565b604051908082528060200260200182016040528015611474578160200160208202803683370190505b5092508367ffffffffffffffff81111561149057611490614c77565b6040519080825280602002602001820160405280156114b9578160200160208202803683370190505b5091508367ffffffffffffffff8111156114d5576114d5614c77565b6040519080825280602002602001820160405280156114fe578160200160208202803683370190505b509050600061150e610a50611fb5565b9050808460008151811061152457611524614c8d565b6020026020010181815250506115498161153c611fb5565b60090160006108ce611fb5565b8360008151811061155c5761155c614c8d565b60200260200101818152505061158181611574611fb5565b6009016000610926611fb5565b8260008151811061159457611594614c8d565b602090810291909101015260015b8451811015610a3957816115b557610a39565b6115ee826115c1611fb5565b60090160006115ce611fb5565b600301548152602001908152602001600020612b4290919063ffffffff16565b91508185828151811061160357611603614c8d565b60200260200101818152505061161b8261153c611fb5565b84828151811061162d5761162d614c8d565b60200260200101818152505061164582611574611fb5565b83828151811061165757611657614c8d565b60209081029190910101528061166c81614cd1565b9150506115a2565b600061168161086f611fb5565b905090565b60008060008060008061169887611bb2565b9150915060005b82518110156117ce5760006116b2611fb5565b60070160008584815181106116c9576116c9614c8d565b602002602001015165ffffffffffff1681526020019081526020016000206040518060800160405290816000820160009054906101000a900460ff16600181111561171657611716614b6a565b600181111561172757611727614b6a565b81526020016001820154815260200160028201548152602001600382015481525050905060006117a5826020015186858151811061176757611767614c8d565b6020026020010151611777611fb5565b6009016000611784611fb5565b6003015481526020019081526020016000206120a29092919063ffffffff16565b90508060a00151896117b79190614cb9565b9850505080806117c690614cd1565b91505061169f565b506117d7611fb5565b6001600160a01b0388166000908152600691909101602052604081205493505b815181101561192457600061180a611fb5565b600701600084848151811061182157611821614c8d565b602002602001015165ffffffffffff1681526020019081526020016000206040518060800160405290816000820160009054906101000a900460ff16600181111561186e5761186e614b6a565b600181111561187f5761187f614b6a565b81526020016001820154815260200160028201548152602001600382015481525050905060006118cf82602001518585815181106118bf576118bf614c8d565b6020026020010151610e1b611fb5565b90508060a00151886118e19190614cb9565b975061190382602001516127108360a001516118fd9190614d03565b90612c3c565b61190d9088614cb9565b96505050808061191c90614cd1565b9150506117f7565b5050509193509193565b600080600080600080611940876110d1565b9150915061194c611fb5565b6001600160a01b0388166000908152600691909101602052604081205493505b8251811015611a7a57600061197f611fb5565b600701600085848151811061199657611996614c8d565b602002602001015165ffffffffffff1681526020019081526020016000206040518060800160405290816000820160009054906101000a900460ff1660018111156119e3576119e3614b6a565b60018111156119f4576119f4614b6a565b8152602001600182015481526020016002820154815260200160038201548152505090506000611a518260200151868581518110611a3457611a34614c8d565b6020026020010151611a44611fb5565b6008016000611784611fb5565b90508060a0015189611a639190614cb9565b985050508080611a7290614cd1565b91505061196c565b5060005b8151811015611924576000611a91611fb5565b6007016000848481518110611aa857611aa8614c8d565b602002602001015165ffffffffffff1681526020019081526020016000206040518060800160405290816000820160009054906101000a900460ff166001811115611af557611af5614b6a565b6001811115611b0657611b06614b6a565b81526001820154602082015260028201546040820152600390910154606090910152905084611b3757806040015194505b6000611b638260200151858581518110611b5357611b53614c8d565b6020026020010151610de6611fb5565b90508060a0015188611b759190614cb9565b9750611b9182602001516127108360a001516118fd9190614d03565b611b9b9088614cb9565b965050508080611baa90614cd1565b915050611a7e565b6060806000806000611bc2611fb5565b60030154611bce611fb5565b6001600160a01b038816600090815260069190910160205260409020541415905080611c1e57611bfc611fb5565b6001600160a01b03871660009081526005919091016020526040902054611c21565b60005b67ffffffffffffffff811115611c3957611c39614c77565b604051908082528060200260200182016040528015611c62578160200160208202803683370190505b509450611c6d611fb5565b6001600160a01b0387166000908152600591909101602052604090205467ffffffffffffffff811115611ca257611ca2614c77565b604051908082528060200260200182016040528015611ccb578160200160208202803683370190505b50935060005b611cd9611fb5565b6001600160a01b03881660009081526005919091016020526040902054811015611424576000611d07611fb5565b6001600160a01b038916600090815260059190910160205260409020805483908110611d3557611d35614c8d565b90600052602060002090600591828204019190066006029054906101000a900465ffffffffffff1690506000611d69611fb5565b65ffffffffffff831660009081526007919091016020526040908190208151608081019092528054829060ff166001811115611da757611da7614b6a565b6001811115611db857611db8614b6a565b815260200160018201548152602001600282015481526020016003820154815250509050611dfa816020015183611ded611fb5565b6009016000611319611fb5565b611e5757611e09600186614cb9565b94508187611e178886614cec565b81518110611e2757611e27614c8d565b602002602001019065ffffffffffff16908165ffffffffffff168152505083611e5257600188510388525b611eac565b611e62600187614cb9565b955083611ea4578188611e758786614cec565b81518110611e8557611e85614c8d565b602002602001019065ffffffffffff16908165ffffffffffff16815250505b600187510387525b50508080611eb990614cd1565b915050611cd1565b60006001836001811115611ed757611ed7614b6a565b1415611f1d57611f1682611ee9611fb5565b6008016000611ef6611fb5565b600301548152602001908152602001600020612ca690919063ffffffff16565b9050611f56565b611f1682611f29611fb5565b6009016000611f36611fb5565b600301548152602001908152602001600020612d6290919063ffffffff16565b92915050565b6000611f66611fb5565b805465ffffffffffff16906000611f7c83614d22565b91906101000a81548165ffffffffffff021916908365ffffffffffff16021790555050611fa7611fb5565b5465ffffffffffff16919050565b7ffc2836757f9146445fc75bc3c897a210ec004e4ee60fc8627ef5cbf2842b3d0a90565b600082116120245760405162461bcd60e51b8152602060048201526013602482015272125b9cdd59999a58da595b9d08185b5bdd5b9d606a1b60448201526064015b60405180910390fd5b61271085111561206b5760405162461bcd60e51b8152602060048201526012602482015271496e73756666696369656e742076616c756560701b604482015260640161201b565b6120758686612e16565b801561208d576120888686868686612fe6565b61209a565b61209a868686868661305f565b505050505050565b6040805160c081018252600080825260208201819052918101829052606081018290526080810182905260a081019190915250600082815260018085016020908152604080842065ffffffffffff80871686526006909101835293819020815160c08101835281548087168252600160301b8104871694820194909452600160601b90930490941690820152908201546001600160a01b031660608201526002820154608082015260039091015460a08201525b9392505050565b6000828152600184016020908152604080832065ffffffffffff851684526006019091528120600301546121929084906130d0565b949350505050565b8054806121a957506000919050565b5b6000818152600183016020526040902060020154156121dc5760009081526001820160205260409020600201546121aa565b919050565b6000908152600191909101602052604090206005015490565b6000908152600191909101602052604090206004015490565b6000816122835760405162461bcd60e51b815260206004820152603860248201527f4f7264657253746174697374696373547265652834303229202d205374617274604482015277696e672076616c75652063616e6e6f74206265207a65726f60401b606482015260840161201b565b6000828152600180850160205260409091200154156122bb576000828152600180850160205260409091200154611f169084906130e2565b5060008181526001830160205260409020545b80158015906122ef5750600081815260018085016020526040909120015482145b15611f565760008181526001840160205260409020549091506122ce565b80548061231c57506000919050565b5b6000818152600180840160205260409091200154156121dc57600090815260018083016020526040909120015461231d565b60008061235a6148f2565b846123775760405162461bcd60e51b815260040161201b90614d48565b6000806123838861219a565b905060006123908961230d565b905060008088841015806123a2575088155b6123e95760405162461bcd60e51b8152602060048201526018602482015277496e73756666696369656e74206c696d69742076616c756560401b604482015260640161201b565b89811080156123f757508315155b801561240b575088158061240b5750888410155b1561248357600084815260018c01602052604090206005015491506124308282614cb9565b905083945060008a821161244557600061244f565b61244f8b83614cec565b6124599084614cec565b905061246585826130d0565b61246f908a614cb9565b985061247b8c86612213565b9450506123e9565b898110158061249157508885145b1561254357898111156124c85784935060006124ad8b83614cec565b6124b79084614cec565b90506124c48c868361311f565b9650505b600084815260018c01602052604081206002810191909155545b8015612541578481101561252b57600085815260018d016020526040902054811461252757600085815260018d01602052604080822083905582825290206002018590555b8094505b600090815260018c0160205260409020546124e2565b505b808a111561255857612555818b614cec565b96505b84831480156125785750600083815260018c016020526040902060050154155b156125865760008b556125ba565b8a548510806125a057508a54851480156125a05750808a10155b156125ba57838b55600084815260018c0160205260408120555b8a54600090815260018c0160205260409020600201541580156125f157508a5460009081526001808d016020526040909120015415155b1561264a578a5460009081526001808d0160205260408083209091015482529020600201541561263c578a5460009081526001808d016020526040909120015461263c908c906133bf565b61264a8b8c60000154613497565b8a54600090815260018c01602052604090206003015460ff1615612686578a54600090815260018c0160205260409020600301805460ff191690555b505050505093509350939050565b60008061269f6148f2565b846126bc5760405162461bcd60e51b815260040161201b90614d48565b6000806126c88861230d565b905060006126d58961219a565b905060008088841115806126e7575088155b61272e5760405162461bcd60e51b8152602060048201526018602482015277496e73756666696369656e74206c696d69742076616c756560401b604482015260640161201b565b898110801561273c57508315155b801561275057508815806127505750888411155b156127c857600084815260018c01602052604090206005015491506127758282614cb9565b905083945060008a821161278a576000612794565b6127948b83614cec565b61279e9084614cec565b90506127aa85826130d0565b6127b4908a614cb9565b98506127c08c86612b42565b94505061272e565b89811015806127d657508885145b15612888578981111561280d5784935060006127f28b83614cec565b6127fc9084614cec565b90506128098c868361311f565b9650505b60008481526001808d016020526040822090810191909155545b8015612886578481111561287057600085815260018d016020526040902054811461286c5760008581526001808e016020526040808320849055838352909120018590555b8094505b600090815260018c016020526040902054612827565b505b808a111561289d5761289a818b614cec565b96505b84831480156128bd5750600083815260018c016020526040902060050154155b156128cb5760008b556128ff565b8a548511806128e557508a54851480156128e55750808a10155b156128ff57838b55600084815260018c0160205260408120555b8a5460009081526001808d016020526040909120015415801561293657508a54600090815260018c01602052604090206002015415155b1561264a578a5460009081526001808d016020526040808320600201548352909120015415612980578a54600090815260018c016020526040902060020154612980908c90613497565b61264a8b8c600001546133bf565b600061299b848484612b24565b6129b75760405162461bcd60e51b815260040161201b90614da5565b6129c284848461356c565b905061215684846137d8565b81546000906129df90600190614cec565b905060005b818111612b1e57828482815481106129fe576129fe614c8d565b90600052602060002090600591828204019190066006029054906101000a900465ffffffffffff1665ffffffffffff161415612b0c57818114612ac5576000848381548110612a4f57612a4f614c8d565b90600052602060002090600591828204019190066006029054906101000a900465ffffffffffff16905080858381548110612a8c57612a8c614c8d565b90600052602060002090600591828204019190066006026101000a81548165ffffffffffff021916908365ffffffffffff160217905550505b83805480612ad557612ad5614df5565b60019003818190600052602060002090600591828204019190066006026101000a81549065ffffffffffff02191690559055612b1e565b80612b1681614cd1565b9150506129e4565b50505050565b6000612b31848484613a95565b801561219257506121928484613bde565b600081612bb25760405162461bcd60e51b815260206004820152603860248201527f4f7264657253746174697374696373547265652834303129202d205374617274604482015277696e672076616c75652063616e6e6f74206265207a65726f60401b606482015260840161201b565b600082815260018401602052604090206002015415612bea576000828152600184016020526040902060020154611f16908490613c97565b5060008181526001830160205260409020545b8015801590612c1e5750600081815260018401602052604090206002015482145b15611f56576000818152600184016020526040902054909150612bfd565b6000808211612c4a57600080fd5b6005612c568385614e0b565b612c6190600a614d03565b83612c6d86600a614d03565b612c779190614e0b565b612c819190614cec565b1015612c9157611f168284614e0b565b612c9b8284614e0b565b611f16906001614cb9565b600080612cb28461219a565b905060008092505b8381108015612cc857508115155b15612d5a57600082815260018601602052604081206005015490612cec84836130d0565b9050612cf88184614cb9565b925085831115612d3a576000612d0e8785614cec565b612d189083614cec565b9050612d28826118fd8386614d03565b612d329087614cb9565b955050612d47565b612d448286614cb9565b94505b612d518785612213565b93505050612cba565b505092915050565b600080612d6e8461230d565b905060008092505b8381108015612d8457508115155b15612d5a57600082815260018601602052604081206005015490612da884836130d0565b9050612db48184614cb9565b925085831115612df6576000612dca8785614cec565b612dd49083614cec565b9050612de4826118fd8386614d03565b612dee9087614cb9565b955050612e03565b612e008286614cb9565b94505b612e0d8785612b42565b93505050612d76565b80612e895760405162461bcd60e51b815260206004820152603960248201527f4f7264657253746174697374696373547265652834303529202d2056616c756560448201527f20746f20696e736572742063616e6e6f74206265207a65726f00000000000000606482015260840161201b565b81546000905b8015612eed5780915080831015612eb9576000908152600180850160205260409091200154612e8f565b80831115612eda576000908152600184016020526040902060020154612e8f565b80831415612ee85750505050565b612e8f565b6000838152600185016020526040902084541580612f3c575060008381526001808701602052604090912001548414801590612f3c575060008381526001860160205260409020600201548414155b15612f6a5760006004820181905560058201819055612f5e9086908690613ccf565b612f6a85856000613d07565b82815560006001808301829055600283019190915560038201805460ff1916909117905582612f9b57838555612fd5565b82841015612fbe5760008381526001808701602052604090912001849055612fd5565b600083815260018601602052604090206002018490555b612fdf8585613d47565b5050505050565b60008481526001860160205260408120906130048787878787613fb2565b90506130288787838560030160019054906101000a900465ffffffffffff16614151565b613033878783613ccf565b6003820154600160381b900465ffffffffffff1661305657613056878783613d07565b50505050505050565b600084815260018601602052604090206003810154610100900465ffffffffffff16613092576120888686868686612fe6565b60006130a18787878787613fb2565b90506130c587878460030160079054906101000a900465ffffffffffff1684614151565b613056878783613d07565b6000612156836118fd61271085614d03565b60005b60008281526001840160205260409020600201541561311957600091825260018301602052604090912060020154906130e5565b50919050565b6131276148f2565b6000838152600185016020526040902060058101548311156131b15760405162461bcd60e51b815260206004820152603960248201527f4f7264657253746174697374696373547265652834313029202d20416d6f756e60448201527f7420746f2066696c6c20697320696e73756666696369656e7400000000000000606482015260840161201b565b60038082015465ffffffffffff610100909104811660008181526006850160209081526040808320815160c08101835281548088168252600160301b8104881694820194909452600160601b9093049095169082015260018401546001600160a01b0316606082015260028401546080820152929093015460a0830152859291905b65ffffffffffff81161580159061324957508315155b1561334e5765ffffffffffff8082166000908152600687016020908152604091829020825160c08101845281548086168252600160301b8104861693820193909352600160601b9092049093169181019190915260018201546001600160a01b031660608201526002820154608082015260039091015460a0820181905290925084106132ed5760a08201516132df9085614cec565b93508160200151905061333c565b6040518060800160405280836000015165ffffffffffff16815260200183606001516001600160a01b03168152602001858460a0015161332d9190614cec565b81526020018990529550600093505b8261334681614cd1565b935050613233565b61335d898984600001516141c6565b506040860151156133b357600088815260018a0160209081526040808320855165ffffffffffff16845260060190915280822090880151600382018054929391929091906133ac908490614cec565b9091555050505b50505050509392505050565b60008181526001808401602052604080832060028101805491548286529285209093015493859052918390559091801561340757600081815260018601602052604090208490555b600083815260018601602052604090208290558161342757828555613474565b600082815260018087016020526040909120015484141561345d5760008281526001808701602052604090912001839055613474565b600082815260018601602052604090206002018390555b505060008181526001938401602052604080822090940183905591825291902055565b600081815260018084016020526040808320918201805492548385529184206002015493859052839055909180156134dd57600081815260018601602052604090208490555b60008381526001860160205260409020829055816134fd5782855561354a565b6000828152600186016020526040902060020154841415613533576000828152600186016020526040902060020183905561354a565b600082815260018087016020526040909120018390555b5050600081815260019093016020526040808420600201839055918352912055565b6000613579848484612b24565b6135955760405162461bcd60e51b815260040161201b90614da5565b50600082815260018085016020908152604080842065ffffffffffff80871680875260068301855295839020835160c08101855281548084168252600160301b8104841696820196909652600160601b909504821693850193909352938201546001600160a01b031660608401526002820154608084015260039182015460a08401819052918101549194909361010090920490911614801561364d5750600382015465ffffffffffff858116600160381b90920416145b1561366f5761365e86866000613ccf565b61366a86866000613d07565b613741565b600382015465ffffffffffff8581166101009092041614156136cd5761369a86868360200151613ccf565b60208082015165ffffffffffff1660009081526006840190915260409020805465ffffffffffff60601b19169055613741565b600382015465ffffffffffff858116600160381b90920416141561372d576136fa86868360400151613d07565b60408082015165ffffffffffff166000908152600684016020522080546bffffffffffff00000000000019169055613741565b613741868683604001518460200151614151565b805165ffffffffffff1660009081526006830160205260408120805471ffffffffffffffffffffffffffffffffffff19168155600180820180546001600160a01b0319169055600282018390556003909101829055600484018054919290916137ab908490614cec565b909155505060a08101516005830180546000906137c9908490614cec565b90915550929695505050505050565b8061384b5760405162461bcd60e51b815260206004820152603960248201527f4f7264657253746174697374696373547265652834303729202d2056616c756560448201527f20746f2064656c6574652063616e6e6f74206265207a65726f00000000000000606482015260840161201b565b6000818152600183016020526040812060048101549091908190612fdf576000848152600180870160205260409091200154158061389a57506000848152600186016020526040902060020154155b156138a65750826138ee565b5060008381526001850160205260409020600201545b6000818152600180870160205260409091200154156138ee5760009081526001808601602052604090912001546138bc565b6000818152600180870160205260409091200154156139225760008181526001808701602052604090912001549150613939565b600081815260018601602052604090206002015491505b600081815260018601602052604080822054848352912081905580156139aa57600081815260018088016020526040909120015482141561398f57600081815260018088016020526040909120018390556139ae565b600081815260018701602052604090206002018390556139ae565b8286555b600082815260018701602052604090206003015460ff1615858314613a38576139d88784886143ac565b60008681526001888101602052604080832080830154878552828520938401819055845281842087905560028082015490840181905584529083208690556003908101549286905201805460ff191660ff90921615159190911790559194915b8015613a4857613a488785614423565b50506000818152600180870160205260408220828155908101829055600281018290556003810180546cffffffffffffffffffffffffff1916905560048101829055600501555050505050565b600082815260018085016020908152604080842065ffffffffffff808716808752600683018552838720845160c0810186528154808516808352600160301b8204861698830198909852600160601b900490931694830194909452948301546001600160a01b031660608201526002830154608082015260039092015460a08301528593909214613b2c5760009350505050612156565b5b604081015165ffffffffffff1615613bbf5760409081015165ffffffffffff808216600090815260068501602090815290849020845160c08101865281548085168252600160301b8104851693820193909352600160601b9092049092169381019390935260018101546001600160a01b03166060840152600281015460808401526003015460a08301529250613b2d565b5060030154610100900465ffffffffffff908116911614949350505050565b600081613bed57506000611f56565b8254821415613bfe57506001611f56565b815b600081815260018501602052604090205415613c8d5760008181526001808601602052604080832054808452922001548214801590613c52575060008181526001860160205260409020600201548214155b15613c6257600092505050611f56565b8454811415613c7657600192505050611f56565b506000908152600184016020526040902054613c00565b5060009392505050565b60005b600082815260018085016020526040909120015415613119576000918252600180840160205260409092209091015490613c9a565b6000918252600190920160205260409020600301805465ffffffffffff9092166101000266ffffffffffff0019909216919091179055565b6000918252600190920160205260409020600301805465ffffffffffff909216600160381b026cffffffffffff0000000000000019909216919091179055565b60005b82548214801590613d745750600082815260018401602052604080822054825290206003015460ff165b15613f90576000828152600180850160205260408083205480845281842054845292200154811415613e975760008181526001850160205260408082205482528082206002015480835291206003015490925060ff1615613e1d576000818152600180860160205260408083206003808201805460ff19908116909155878652838620820180548216905582548652928520018054909216909217905590829052549250613f8a565b6000818152600185016020526040902060020154831415613e4557809250613e4584846133bf565b50600082815260018085016020526040808320548084528184206003808201805460ff19908116909155825487529386200180549093169093179091559182905254613e92908590613497565b613f8a565b6000818152600180860160205260408083205483528083209091015480835291206003015490925060ff1615613f15576000818152600180860160205260408083206003808201805460ff19908116909155878652838620820180548216905582548652928520018054909216909217905590829052549250613f8a565b6000818152600180860160205260409091200154831415613f3d57809250613f3d8484613497565b50600082815260018085016020526040808320548084528184206003808201805460ff19908116909155825487529386200180549093169093179091559182905254613f8a9085906133bf565b50613d4a565b505080546000908152600190910160205260409020600301805460ff19169055565b6000848152600186016020908152604080832065ffffffffffff8716845260068101909252822060020154156140455760405162461bcd60e51b815260206004820152603260248201527f4f7264657253746174697374696373547265652834303929202d204f726465726044820152711034b21030b63932b0b23c9032bc34b9ba1760711b606482015260840161201b565b600181600401600082825461405a9190614cb9565b92505081905550828160050160008282546140759190614cb9565b90915550506040805160c08101825265ffffffffffff808816808352600060208085018281528587018381526001600160a01b03808d16606089019081524260808a0190815260a08a018e81529787526006909b019094529790932095518654915193518616600160601b0265ffffffffffff60601b19948716600160301b026bffffffffffffffffffffffff199093169682169690961791909117929092169390931784559151600184018054919095166001600160a01b031990911617909355925160028201559051600390910155905095945050505050565b60009283526001939093016020908152604080842065ffffffffffff938416808652600690910190925280842080546bffffffffffff0000000000001916600160301b9490961693840295909517909455908252919020805465ffffffffffff60601b1916600160601b909202919091179055565b60006141d3848484612b24565b6141ef5760405162461bcd60e51b815260040161201b90614da5565b50600082815260018085016020908152604080842065ffffffffffff808716865260068201808552838720845160c08101865281548085168252600160301b8104851682890152600160601b9004841681870152818801546001600160a01b031660608201526002820154608082015260039182015460a08201819052828601546101009004909416808a529290965293909620909201549194909390915b8665ffffffffffff1683146142f257600092835260068501602052604090922054600160301b900465ffffffffffff1691816142c981614cd1565b60008581526006880160205260409020600301549093506142eb915082614cb9565b905061428e565b600385015465ffffffffffff888116600160381b90920416141561432d5761431c89896000613ccf565b61432889896000613d07565b61436b565b61433c89898660200151613ccf565b60208085015165ffffffffffff1660009081526006870190915260409020805465ffffffffffff60601b191690555b8185600401600082825461437f9190614cec565b925050819055508085600501600082825461439a9190614cec565b90915550959998505050505050505050565b6000818152600184016020526040808220548483529120819055806143d357828455612b1e565b60008181526001808601602052604090912001548214156144095760008181526001808601602052604090912001839055612b1e565b600090815260019390930160205250604090912060020155565b60005b8254821480159061444b5750600082815260018401602052604090206003015460ff16155b1561481e5760008281526001808501602052604080832054808452922001548314156146475760008181526001850160205260408082206002015480835291206003015490925060ff16156144ef576000828152600180860160205260408083206003908101805460ff199081169091558585529190932090920180549092161790556144d884826133bf565b600081815260018501602052604090206002015491505b60008281526001808601602052604080832090910154825290206003015460ff1615801561453a5750600082815260018501602052604080822060020154825290206003015460ff16155b1561456757600082815260018581016020526040909120600301805460ff19169091179055915081614818565b600082815260018501602052604080822060020154825290206003015460ff166145e4576000828152600180860160205260408083208083015484529083206003908101805460ff19908116909155938690520180549092161790556145cd8483613497565b600081815260018501602052604090206002015491505b600081815260018501602052604080822060039081018054868552838520808401805460ff909316151560ff19938416179055825482169092556002909101548452919092209091018054909116905561463e84826133bf565b83549250614818565b6000818152600180860160205260408083209091015480835291206003015490925060ff16156146c6576000828152600180860160205260408083206003908101805460ff199081169091558585529190932090920180549092161790556146af8482613497565b600081815260018086016020526040909120015491505b600082815260018501602052604080822060020154825290206003015460ff16158015614711575060008281526001808601602052604080832090910154825290206003015460ff16155b1561473e57600082815260018581016020526040909120600301805460ff19169091179055915081614818565b60008281526001808601602052604080832090910154825290206003015460ff166147bd57600082815260018086016020526040808320600281015484529083206003908101805460ff19908116909155938690520180549092161790556147a684836133bf565b600081815260018086016020526040909120015491505b60008181526001808601602052604080832060039081018054878652838620808401805460ff909316151560ff199384161790558254821690925593015484529220909101805490911690556148138482613497565b835492505b50614426565b506000908152600190910160205260409020600301805460ff19169055565b828054828255906000526020600020906004016005900481019282156148e25791602002820160005b838211156148ae57835183826101000a81548165ffffffffffff021916908365ffffffffffff1602179055509260200192600601602081600501049283019260010302614866565b80156148e05782816101000a81549065ffffffffffff02191690556006016020816005010492830192600103026148ae565b505b506148ee92915061492b565b5090565b6040518060800160405280600065ffffffffffff16815260200160006001600160a01b0316815260200160008152602001600081525090565b5b808211156148ee576000815560010161492c565b8035600281106121dc57600080fd5b80356001600160a01b03811681146121dc57600080fd5b600080600080600060a0868803121561497e57600080fd5b61498786614940565b94506149956020870161494f565b93506040860135925060608601359150608086013580151581146149b857600080fd5b809150509295509295909350565b600080604083850312156149d957600080fd5b6149e28361494f565b946020939093013593505050565b600081518084526020808501945080840160005b83811015614a2857815165ffffffffffff1687529582019590820190600101614a04565b509495945050505050565b608081526000614a4660808301876149f0565b6020830195909552506040810192909252606090910152919050565b600060208284031215614a7457600080fd5b5035919050565b600081518084526020808501945080840160005b83811015614a2857815187529582019590820190600101614a8f565b606081526000614abe6060830186614a7b565b8281036020840152614ad08186614a7b565b90508281036040840152614ae48185614a7b565b9695505050505050565b600080600060608486031215614b0357600080fd5b614b0c84614940565b95602085013595506040909401359392505050565b803565ffffffffffff811681146121dc57600080fd5b60008060408385031215614b4a57600080fd5b614b538361494f565b9150614b6160208401614b21565b90509250929050565b634e487b7160e01b600052602160045260246000fd5b60028110614b9e57634e487b7160e01b600052602160045260246000fd5b9052565b60608101614bb08286614b80565b602082019390935260400152919050565b600060208284031215614bd357600080fd5b61215682614b21565b60c08101614bea8289614b80565b602082019690965260408101949094526001600160a01b03929092166060840152608083015260a090910152919050565b600060208284031215614c2d57600080fd5b6121568261494f565b604081526000614c4960408301856149f0565b828103602084015261053281856149f0565b60008060408385031215614c6e57600080fd5b6149e283614940565b634e487b7160e01b600052604160045260246000fd5b634e487b7160e01b600052603260045260246000fd5b634e487b7160e01b600052601160045260246000fd5b60008219821115614ccc57614ccc614ca3565b500190565b6000600019821415614ce557614ce5614ca3565b5060010190565b600082821015614cfe57614cfe614ca3565b500390565b6000816000190483118215151615614d1d57614d1d614ca3565b500290565b600065ffffffffffff80831681811415614d3e57614d3e614ca3565b6001019392505050565b60208082526038908201527f4f7264657253746174697374696373547265652834303829202d20416d6f756e60408201527f7420746f2064726f702063616e6e6f74206265207a65726f0000000000000000606082015260800190565b60208082526030908201527f4f7264657253746174697374696373547265652834313029202d204f7264657260408201526f103237b2b9903737ba1032bc34b9ba1760811b606082015260800190565b634e487b7160e01b600052603160045260246000fd5b600082614e2857634e487b7160e01b600052601260045260246000fd5b50049056fea2646970667358221220f697a0d6505b74d789d2533fb7106934a45c04198da21c157294cea8ec5d7e5a64736f6c63430008090033",
  "devdoc": {
    "kind": "dev",
    "methods": {},
    "version": 1
  },
  "userdoc": {
    "kind": "user",
    "methods": {},
    "version": 1
  },
  "storageLayout": {
    "storage": [],
    "types": null
  }
}