{
  "address": "0x01ef9Ce57aCa5D8278fD70d02d60f2f44071788E",
  "abi": [
    {
      "inputs": [
        {
          "internalType": "enum ProtocolTypes.Side",
          "name": "_side",
          "type": "ProtocolTypes.Side"
        },
        {
          "internalType": "uint256",
          "name": "_futureValue",
          "type": "uint256"
        }
      ],
      "name": "estimateFilledAmount",
      "outputs": [
        {
          "internalType": "uint256",
          "name": "amount",
          "type": "uint256"
        }
      ],
      "stateMutability": "view",
      "type": "function"
    },
    {
      "inputs": [
        {
          "internalType": "address",
          "name": "_user",
          "type": "address"
        }
      ],
      "name": "getActiveBorrowOrderIds",
      "outputs": [
        {
          "internalType": "uint48[]",
          "name": "activeOrderIds",
          "type": "uint48[]"
        },
        {
          "internalType": "uint48[]",
          "name": "inActiveOrderIds",
          "type": "uint48[]"
        }
      ],
      "stateMutability": "view",
      "type": "function"
    },
    {
      "inputs": [
        {
          "internalType": "address",
          "name": "_user",
          "type": "address"
        }
      ],
      "name": "getActiveLendOrderIds",
      "outputs": [
        {
          "internalType": "uint48[]",
          "name": "activeOrderIds",
          "type": "uint48[]"
        },
        {
          "internalType": "uint48[]",
          "name": "inActiveOrderIds",
          "type": "uint48[]"
        }
      ],
      "stateMutability": "view",
      "type": "function"
    },
    {
      "inputs": [
        {
          "internalType": "uint256",
          "name": "_limit",
          "type": "uint256"
        }
      ],
      "name": "getBorrowOrderBook",
      "outputs": [
        {
          "internalType": "uint256[]",
          "name": "unitPrices",
          "type": "uint256[]"
        },
        {
          "internalType": "uint256[]",
          "name": "amounts",
          "type": "uint256[]"
        },
        {
          "internalType": "uint256[]",
          "name": "quantities",
          "type": "uint256[]"
        }
      ],
      "stateMutability": "view",
      "type": "function"
    },
    {
      "inputs": [],
      "name": "getHighestLendingUnitPrice",
      "outputs": [
        {
          "internalType": "uint256",
          "name": "",
          "type": "uint256"
        }
      ],
      "stateMutability": "view",
      "type": "function"
    },
    {
      "inputs": [
        {
          "internalType": "uint256",
          "name": "_limit",
          "type": "uint256"
        }
      ],
      "name": "getLendOrderBook",
      "outputs": [
        {
          "internalType": "uint256[]",
          "name": "unitPrices",
          "type": "uint256[]"
        },
        {
          "internalType": "uint256[]",
          "name": "amounts",
          "type": "uint256[]"
        },
        {
          "internalType": "uint256[]",
          "name": "quantities",
          "type": "uint256[]"
        }
      ],
      "stateMutability": "view",
      "type": "function"
    },
    {
      "inputs": [],
      "name": "getLowestBorrowingUnitPrice",
      "outputs": [
        {
          "internalType": "uint256",
          "name": "",
          "type": "uint256"
        }
      ],
      "stateMutability": "view",
      "type": "function"
    },
    {
      "inputs": [],
      "name": "getOpeningUnitPrice",
      "outputs": [
        {
          "internalType": "uint256",
          "name": "openingUnitPrice",
          "type": "uint256"
        },
        {
          "internalType": "uint256",
          "name": "totalOffsetAmount",
          "type": "uint256"
        }
      ],
      "stateMutability": "view",
      "type": "function"
    },
    {
      "inputs": [
        {
          "internalType": "uint48",
          "name": "_orderId",
          "type": "uint48"
        }
      ],
      "name": "getOrder",
      "outputs": [
        {
          "internalType": "enum ProtocolTypes.Side",
          "name": "side",
          "type": "ProtocolTypes.Side"
        },
        {
          "internalType": "uint256",
          "name": "unitPrice",
          "type": "uint256"
        },
        {
          "internalType": "uint256",
          "name": "maturity",
          "type": "uint256"
        },
        {
          "internalType": "address",
          "name": "maker",
          "type": "address"
        },
        {
          "internalType": "uint256",
          "name": "amount",
          "type": "uint256"
        },
        {
          "internalType": "uint256",
          "name": "timestamp",
          "type": "uint256"
        }
      ],
      "stateMutability": "view",
      "type": "function"
    },
    {
      "inputs": [
        {
          "internalType": "address",
          "name": "_user",
          "type": "address"
        }
      ],
      "name": "getTotalAmountFromBorrowOrders",
      "outputs": [
        {
          "internalType": "uint256",
          "name": "activeAmount",
          "type": "uint256"
        },
        {
          "internalType": "uint256",
          "name": "inactiveAmount",
          "type": "uint256"
        },
        {
          "internalType": "uint256",
          "name": "inactiveFutureValue",
          "type": "uint256"
        },
        {
          "internalType": "uint256",
          "name": "maturity",
          "type": "uint256"
        }
      ],
      "stateMutability": "view",
      "type": "function"
    },
    {
      "inputs": [
        {
          "internalType": "address",
          "name": "_user",
          "type": "address"
        }
      ],
      "name": "getTotalAmountFromLendOrders",
      "outputs": [
        {
          "internalType": "uint256",
          "name": "activeAmount",
          "type": "uint256"
        },
        {
          "internalType": "uint256",
          "name": "inactiveAmount",
          "type": "uint256"
        },
        {
          "internalType": "uint256",
          "name": "inactiveFutureValue",
          "type": "uint256"
        },
        {
          "internalType": "uint256",
          "name": "maturity",
          "type": "uint256"
        }
      ],
      "stateMutability": "view",
      "type": "function"
    }
  ],
  "transactionHash": "0xed05b49d832549c10dad1e19c83108971693e045d8add0c6db91fc775b402f14",
  "args": [],
  "numDeployments": 3,
  "solcInputHash": "450ab18146b9e4b37a672d39f8703f6e",
  "bytecode": "0x61534161003a600b82828239805160001a60731461002d57634e487b7160e01b600052600060045260246000fd5b30600052607381538281f3fe73000000000000000000000000000000000000000030146080604052600436106101155760003560e01c8063914551f1116100ac578063e2afb0411161007b578063e2afb04114610313578063e3d904d81461031b578063e7df768c1461034e578063eebc28f914610361578063fa6127aa1461037457600080fd5b8063914551f11461029f5780639ca16952146102bf578063a452c3f8146102df578063d866d3551461030057600080fd5b806363978ac8116100e857806363978ac8146101be5780636a2c42741461022e5780636c5db8431461024b5780637ce219aa1461027a57600080fd5b80633684d3ea1461011a5780634a53967b146101565780634bf62d1614610186578063614152b9146101a8575b600080fd5b81801561012657600080fd5b5061013a610135366004614ea1565b610387565b60405165ffffffffffff90911681526020015b60405180910390f35b81801561016257600080fd5b50610176610171366004614f01565b610592565b60405161014d9493929190614f6e565b610199610194366004614f9d565b6107e5565b60405161014d93929190614fe6565b6101b0610a99565b60405190815260200161014d565b8180156101ca57600080fd5b506101de6101d9366004615029565b610ae3565b60408051845165ffffffffffff1681526020808601516001600160a01b031690820152848201519181019190915260609384015193810193909352608083019190915260a082015260c00161014d565b610236610bbe565b6040805192835260208301919091520161014d565b81801561025757600080fd5b5061026b610266366004615072565b610d90565b60405161014d939291906150dd565b61028d6102883660046150fc565b610f2f565b60405161014d96959493929190615117565b8180156102ab57600080fd5b506101766102ba366004614f01565b6110be565b8180156102cb57600080fd5b506101de6102da366004615156565b611304565b6102f26102ed366004615172565b61137e565b60405161014d92919061518d565b61019961030e366004614f9d565b6116da565b6101b0611914565b61032e610329366004615172565b611926565b60408051948552602085019390935291830152606082015260800161014d565b61032e61035c366004615172565b611c53565b6102f261036f366004615172565b611f5c565b6101b0610382366004615156565b61226b565b6000610391612306565b905060405180608001604052808760018111156103b0576103b06150a5565b81526020018481526020016103c3612365565b600301548152602001428152506103d8612365565b65ffffffffffff831660009081526009919091016020526040902081518154829060ff191660018381811115610410576104106150a5565b021790555060208201516001820155604082015160028201556060909101516003909101556000866001811115610449576104496150a5565b14156104f457610490838287878661045f612365565b600b01600061046c612365565b6003015481526020019081526020016000206123899095949392919063ffffffff16565b610498612365565b6001600160a01b03861660009081526006918201602090815260408220805460018101825590835291206005808304909101805465ffffffffffff808716939094069094026101000a9182029290910219909216179055610589565b6001866001811115610508576105086150a5565b14156105895761052b838287878661051e612365565b600c01600061046c612365565b610533612365565b6001600160a01b03861660009081526007919091016020908152604082208054600181018255908352912060058083049091018054919092066006026101000a65ffffffffffff81810219909216918416021790555b95945050505050565b606060008060008060006105a588611f5c565b91509150816105b2612365565b60070160008a6001600160a01b03166001600160a01b0316815260200190815260200160002090805190602001906105eb929190614d78565b50815181519095508067ffffffffffffffff81111561060c5761060c6151b2565b604051908082528060200260200182016040528015610635578160200160208202803683370190505b50965060005b818110156107d857600061064d612365565b6009016000858481518110610664576106646151c8565b602002602001015165ffffffffffff1681526020019081526020016000206040518060800160405290816000820160009054906101000a900460ff1660018111156106b1576106b16150a5565b60018111156106c2576106c26150a5565b815260200160018201548152602001600282015481526020016003820154815250509050600061072b8260200151868581518110610702576107026151c8565b6020026020010151610712612365565b60008f8152600c91909101602052604090209190612452565b90506107708260200151868581518110610747576107476151c8565b6020026020010151610757612365565b60008f8152600c9190910160205260409020919061250d565b61077a90896151f4565b97508060a001518761078c91906151f4565b965080600001518a84815181106107a5576107a56151c8565b602002602001019065ffffffffffff16908165ffffffffffff1681525050505080806107d09061520c565b91505061063b565b5050505092959194509250565b60608060608367ffffffffffffffff811115610803576108036151b2565b60405190808252806020026020018201604052801561082c578160200160208202803683370190505b5092508367ffffffffffffffff811115610848576108486151b2565b604051908082528060200260200182016040528015610871578160200160208202803683370190505b5091508367ffffffffffffffff81111561088d5761088d6151b2565b6040519080825280602002602001820160405280156108b6578160200160208202803683370190505b50905060006108ea6108c6612365565b600b0160006108d3612365565b60030154815260200190815260200160002061254a565b90508084600081518110610900576109006151c8565b60200260200101818152505061094581610918612365565b600b016000610925612365565b60030154815260200190815260200160002061259190919063ffffffff16565b83600081518110610958576109586151c8565b60200260200101818152505061099d81610970612365565b600b01600061097d612365565b6003015481526020019081526020016000206125aa90919063ffffffff16565b826000815181106109b0576109b06151c8565b602090810291909101015260015b8451811015610a9057816109d157610a90565b610a0a826109dd612365565b600b0160006109ea612365565b6003015481526020019081526020016000206125c390919063ffffffff16565b915081858281518110610a1f57610a1f6151c8565b602002602001018181525050610a3782610918612365565b848281518110610a4957610a496151c8565b602002602001018181525050610a6182610970612365565b838281518110610a7357610a736151c8565b602090810291909101015280610a888161520c565b9150506109be565b50509193909250565b600080610acb610aa7612365565b600c016000610ab4612365565b6003015481526020019081526020016000206126bd565b90508015610ad95780610add565b6127105b91505090565b610aeb614e2d565b6000806001866001811115610b0257610b026150a5565b1415610b5457610b4685856000610b17612365565b600b016000610b24612365565b6003015481526020019081526020016000206126ff909392919063ffffffff16565b95509093509150610bb59050565b6000866001811115610b6857610b686150a5565b1415610bb557610bac85856000610b7d612365565b600c016000610b8a612365565b600301548152602001908152602001600020612a3e909392919063ffffffff16565b95509093509150505b93509350939050565b6000806000610bcb611914565b90506000610bd7610a99565b90506000610be783610918612365565b90506000610c0483610bf7612365565b600c016000610925612365565b90506000610c10612365565b600c016000610c1d612365565b60030154815260200190815260200160002090506000610c3b612365565b600b016000610c48612365565b60030154815260200190815260200160002090505b858511158015610c6d5750600085115b8015610c795750600086115b15610d865782841115610ccc578597508287610c9591906151f4565b9650610ca18385615227565b9350610cad8286612d80565b60008181526001840160205260409020600501549095505b9250610c5d565b82841015610d19578497508387610ce391906151f4565b9650610cef8484615227565b9250610cfb81876125c3565b60008181526001830160205260409020600501549096509350610c5d565b6002610d2586886151f4565b610d2f919061523e565b9750610d3b84886151f4565b9650610d4781876125c3565b9550610d538286612d80565b60008781526001830160205260409020600501549095506000868152600184016020526040902060050154909450610cc5565b5050505050509091565b600080600080610d9e612365565b65ffffffffffff861660009081526009919091016020526040908190208151608081019092528054829060ff166001811115610ddc57610ddc6150a5565b6001811115610ded57610ded6150a5565b81526001820154602082015260028201546040820152600390910154606090910152905060008082516001811115610e2757610e276150a5565b1415610ea857610e6c826020015187610e3e612365565b600b016000610e4b612365565b600301548152602001908152602001600020612e7a9092919063ffffffff16565b9050610ea3610e79612365565b6001600160a01b03891660009081526006919091016020526040902065ffffffffffff8816612e93565b610f18565b600182516001811115610ebd57610ebd6150a5565b1415610f1857610ee1826020015187610ed4612365565b600c016000610e4b612365565b9050610f18610eee612365565b6001600160a01b03891660009081526007919091016020526040902065ffffffffffff8816612e93565b8151602090920151919450925090505b9250925092565b6000806000806000806000610f42612365565b65ffffffffffff891660009081526009919091016020526040908190208151608081019092528054829060ff166001811115610f8057610f806150a5565b6001811115610f9157610f916150a5565b815260200160018201548152602001600282015481526020016003820154815250509050610fed6040805160c081018252600080825260208201819052918101829052606081018290526080810182905260a081019190915290565b600082516001811115611002576110026150a5565b141561103d5761103682602001518a611019612365565b6040808701516000908152600b9290920160205290209190612452565b905061106e565b61106b82602001518a61104e612365565b6040808701516000908152600c9290920160205290209190612452565b90505b60608101516001600160a01b0316156110b25781600001518260200151836040015183606001518460a00151856080015197509750975097509750975050506110b5565b50505b91939550919395565b606060008060008060006110d18861137e565b91509150816110de612365565b60060160008a6001600160a01b03166001600160a01b031681526020019081526020016000209080519060200190611117929190614d78565b50815181519095508067ffffffffffffffff811115611138576111386151b2565b604051908082528060200260200182016040528015611161578160200160208202803683370190505b50965060005b818110156107d8576000611179612365565b6009016000858481518110611190576111906151c8565b602002602001015165ffffffffffff1681526020019081526020016000206040518060800160405290816000820160009054906101000a900460ff1660018111156111dd576111dd6150a5565b60018111156111ee576111ee6150a5565b8152602001600182015481526020016002820154815260200160038201548152505090506000611257826020015186858151811061122e5761122e6151c8565b602002602001015161123e612365565b60008f8152600b91909101602052604090209190612452565b905061129c8260200151868581518110611273576112736151c8565b6020026020010151611283612365565b60008f8152600b9190910160205260409020919061250d565b6112a690896151f4565b97508060a00151876112b891906151f4565b965080600001518a84815181106112d1576112d16151c8565b602002602001019065ffffffffffff16908165ffffffffffff1681525050505080806112fc9061520c565b915050611167565b61130c614e2d565b6000806001856001811115611323576113236150a5565b14156113465761133860008086610b17612365565b95509193509150610f289050565b600085600181111561135a5761135a6150a5565b1415610f285761136f60008086610b7d612365565b95509193509150509250925092565b606080600080600061138e612365565b6003015461139a612365565b6001600160a01b0388166000908152600891909101602052604090205414159050806113ea576113c8612365565b6001600160a01b038716600090815260069190910160205260409020546113ed565b60005b67ffffffffffffffff811115611405576114056151b2565b60405190808252806020026020018201604052801561142e578160200160208202803683370190505b509450611439612365565b6001600160a01b0387166000908152600691909101602052604090205467ffffffffffffffff81111561146e5761146e6151b2565b604051908082528060200260200182016040528015611497578160200160208202803683370190505b50935060005b6114a5612365565b6001600160a01b038816600090815260069190910160205260409020548110156116d15760006114d3612365565b6001600160a01b038916600090815260069190910160205260409020805483908110611501576115016151c8565b90600052602060002090600591828204019190066006029054906101000a900465ffffffffffff1690506000611535612365565b65ffffffffffff831660009081526009919091016020526040908190208151608081019092528054829060ff166001811115611573576115736150a5565b6001811115611584576115846150a5565b81526020016001820154815260200160028201548152602001600382015481525050905061160a8160200151836115b9612365565b600b0160006115c6612365565b60080160008f6001600160a01b03166001600160a01b03168152602001908152602001600020548152602001908152602001600020612fe99092919063ffffffff16565b611667576116196001866151f4565b945081876116278886615227565b81518110611637576116376151c8565b602002602001019065ffffffffffff16908165ffffffffffff16815250508361166257600188510388525b6116bc565b836116b4576116776001876151f4565b955081886116858786615227565b81518110611695576116956151c8565b602002602001019065ffffffffffff16908165ffffffffffff16815250505b600187510387525b505080806116c99061520c565b91505061149d565b50505050915091565b60608060608367ffffffffffffffff8111156116f8576116f86151b2565b604051908082528060200260200182016040528015611721578160200160208202803683370190505b5092508367ffffffffffffffff81111561173d5761173d6151b2565b604051908082528060200260200182016040528015611766578160200160208202803683370190505b5091508367ffffffffffffffff811115611782576117826151b2565b6040519080825280602002602001820160405280156117ab578160200160208202803683370190505b50905060006117bb610aa7612365565b905080846000815181106117d1576117d16151c8565b6020026020010181815250506117e981610bf7612365565b836000815181106117fc576117fc6151c8565b60200260200101818152505061182181611814612365565b600c01600061097d612365565b82600081518110611834576118346151c8565b602090810291909101015260015b8451811015610a90578161185557610a90565b61188e82611861612365565b600c01600061186e612365565b600301548152602001908152602001600020612d8090919063ffffffff16565b9150818582815181106118a3576118a36151c8565b6020026020010181815250506118bb82610bf7612365565b8482815181106118cd576118cd6151c8565b6020026020010181815250506118e582611814612365565b8382815181106118f7576118f76151c8565b60209081029190910101528061190c8161520c565b915050611842565b60006119216108c6612365565b905090565b60008060008060008061193887611f5c565b9150915060005b8251811015611a6e576000611952612365565b6009016000858481518110611969576119696151c8565b602002602001015165ffffffffffff1681526020019081526020016000206040518060800160405290816000820160009054906101000a900460ff1660018111156119b6576119b66150a5565b60018111156119c7576119c76150a5565b8152602001600182015481526020016002820154815260200160038201548152505090506000611a458260200151868581518110611a0757611a076151c8565b6020026020010151611a17612365565b600c016000611a24612365565b6003015481526020019081526020016000206124529092919063ffffffff16565b90508060a0015189611a5791906151f4565b985050508080611a669061520c565b91505061193f565b50611a77612365565b6001600160a01b0388166000908152600891909101602052604081205493505b8151811015611c49576000611aaa612365565b6009016000848481518110611ac157611ac16151c8565b602002602001015165ffffffffffff1681526020019081526020016000206040518060800160405290816000820160009054906101000a900460ff166001811115611b0e57611b0e6150a5565b6001811115611b1f57611b1f6150a5565b8152602001600182015481526020016002820154815260200160038201548152505090506000611b6f8260200151858581518110611b5f57611b5f6151c8565b602002602001015161104e612365565b90508060a0015188611b8191906151f4565b6020830151909850611b91612365565b600a016000868681518110611ba857611ba86151c8565b60209081029190910181015165ffffffffffff1682528101919091526040016000205460ff16151560011415611c0b576000611be2612365565b60040160008560400151815260200190815260200160002054905081811115611c09578091505b505b611c27816127108460a00151611c219190615260565b90613007565b611c3190896151f4565b97505050508080611c419061520c565b915050611a97565b5050509193509193565b600080600080600080611c658761137e565b91509150611c71612365565b6001600160a01b0388166000908152600891909101602052604081205493505b8251811015611d9f576000611ca4612365565b6009016000858481518110611cbb57611cbb6151c8565b602002602001015165ffffffffffff1681526020019081526020016000206040518060800160405290816000820160009054906101000a900460ff166001811115611d0857611d086150a5565b6001811115611d1957611d196150a5565b8152602001600182015481526020016002820154815260200160038201548152505090506000611d768260200151868581518110611d5957611d596151c8565b6020026020010151611d69612365565b600b016000611a24612365565b90508060a0015189611d8891906151f4565b985050508080611d979061520c565b915050611c91565b5060005b8151811015611c49576000611db6612365565b6009016000848481518110611dcd57611dcd6151c8565b602002602001015165ffffffffffff1681526020019081526020016000206040518060800160405290816000820160009054906101000a900460ff166001811115611e1a57611e1a6150a5565b6001811115611e2b57611e2b6150a5565b81526001820154602082015260028201546040820152600390910154606090910152905084611e5c57806040015194505b6000611e888260200151858581518110611e7857611e786151c8565b6020026020010151611019612365565b90508060a0015188611e9a91906151f4565b6020830151909850611eaa612365565b600a016000868681518110611ec157611ec16151c8565b60209081029190910181015165ffffffffffff1682528101919091526040016000205460ff16151560011415611f24576000611efb612365565b60040160008560400151815260200190815260200160002054905081811015611f22578091505b505b611f3a816127108460a00151611c219190615260565b611f4490896151f4565b97505050508080611f549061520c565b915050611da3565b6060806000806000611f6c612365565b60030154611f78612365565b6001600160a01b038816600090815260089190910160205260409020541415905080611fc857611fa6612365565b6001600160a01b03871660009081526007919091016020526040902054611fcb565b60005b67ffffffffffffffff811115611fe357611fe36151b2565b60405190808252806020026020018201604052801561200c578160200160208202803683370190505b509450612017612365565b6001600160a01b0387166000908152600791909101602052604090205467ffffffffffffffff81111561204c5761204c6151b2565b604051908082528060200260200182016040528015612075578160200160208202803683370190505b50935060005b612083612365565b6001600160a01b038816600090815260079190910160205260409020548110156116d15760006120b1612365565b6001600160a01b0389166000908152600791909101602052604090208054839081106120df576120df6151c8565b90600052602060002090600591828204019190066006029054906101000a900465ffffffffffff1690506000612113612365565b65ffffffffffff831660009081526009919091016020526040908190208151608081019092528054829060ff166001811115612151576121516150a5565b6001811115612162576121626150a5565b8152602001600182015481526020016002820154815260200160038201548152505090506121a4816020015183612197612365565b600c0160006115c6612365565b612201576121b36001866151f4565b945081876121c18886615227565b815181106121d1576121d16151c8565b602002602001019065ffffffffffff16908165ffffffffffff1681525050836121fc57600188510388525b612256565b61220c6001876151f4565b95508361224e57818861221f8786615227565b8151811061222f5761222f6151c8565b602002602001019065ffffffffffff16908165ffffffffffff16815250505b600187510387525b505080806122639061520c565b91505061207b565b60006001836001811115612281576122816150a5565b14156122c7576122c082612293612365565b600b0160006122a0612365565b60030154815260200190815260200160002061307190919063ffffffff16565b9050612300565b6122c0826122d3612365565b600c0160006122e0612365565b60030154815260200190815260200160002061312d90919063ffffffff16565b92915050565b6000612310612365565b600101805465ffffffffffff169060006123298361527f565b91906101000a81548165ffffffffffff021916908365ffffffffffff16021790555050612354612365565b6001015465ffffffffffff16919050565b7ffc2836757f9146445fc75bc3c897a210ec004e4ee60fc8627ef5cbf2842b3d0a90565b600082116123d45760405162461bcd60e51b8152602060048201526013602482015272125b9cdd59999a58da595b9d08185b5bdd5b9d606a1b60448201526064015b60405180910390fd5b61271085111561241b5760405162461bcd60e51b8152602060048201526012602482015271496e73756666696369656e742076616c756560701b60448201526064016123cb565b61242586866131e1565b801561243d5761243886868686866133b1565b61244a565b61244a868686868661342a565b505050505050565b6040805160c081018252600080825260208201819052918101829052606081018290526080810182905260a081019190915250600082815260018085016020908152604080842065ffffffffffff80871686526006909101835293819020815160c08101835281548087168252600160301b8104871694820194909452600160601b90930490941690820152908201546001600160a01b031660608201526002820154608082015260039091015460a08201525b9392505050565b6000828152600184016020908152604080832065ffffffffffff8516845260060190915281206003015461254290849061349b565b949350505050565b80548061255957506000919050565b5b60008181526001830160205260409020600201541561258c57600090815260018201602052604090206002015461255a565b919050565b6000908152600191909101602052604090206005015490565b6000908152600191909101602052604090206004015490565b6000816126335760405162461bcd60e51b815260206004820152603860248201527f4f7264657253746174697374696373547265652834303229202d205374617274604482015277696e672076616c75652063616e6e6f74206265207a65726f60401b60648201526084016123cb565b60008281526001808501602052604090912001541561266b5760008281526001808501602052604090912001546122c09084906134ad565b5060008181526001830160205260409020545b801580159061269f5750600081815260018085016020526040909120015482145b1561230057600081815260018401602052604090205490915061267e565b8054806126cc57506000919050565b5b60008181526001808401602052604090912001541561258c5760009081526001808301602052604090912001546126cd565b600080600061270c614e2d565b6000806127188a61254a565b9050600080898310158061272a575089155b6127715760405162461bcd60e51b8152602060048201526018602482015277496e73756666696369656e74206c696d69742076616c756560401b60448201526064016123cb565b6000805b8c83108061278157508c155b801561279457508a89108061279457508a155b801561279f57508415155b80156127b357508b851015806127b357508b155b1561286c57600085815260018f01602052604090206005015493506127d884846151f4565b92508495506127e7858561349b565b6127f1908a6151f4565b98506127fd848b6151f4565b99508c8311801561280d57508c15155b1561282f5761281c8d84615227565b9150612828858361349b565b905061285b565b8a8911801561283d57508a15155b1561285b5761284c8b8a615227565b905061285885826134ea565b91505b6128658e866125c3565b9450612775565b811561287f5761287c828b615227565b99505b80156128925761288f818a615227565b98505b82156129855781156128bc578594506128b58e866128b08588615227565b6134fc565b96506128e1565b80156128e1578594506128de8e866128d488856134ea565b6128b09088615227565b96505b600085815260018f01602052604081206002810191909155548515612983575b8015612983578581101561296d57808f6001016000888152602001908152602001600020600001541461296957808f600101600088815260200190815260200160002060000181905550858f6001016000838152602001908152602001600020600201819055505b8095505b600090815260018f016020526040902054612901565b505b828d111561299a57612997838e615227565b97505b60006129a58f6126bd565b905086811480156129ce57508e6001016000828152602001908152602001600020600501546000145b156129dc5760008f55612a23565b8e548710806129f657508e54871480156129f65750838b10155b15612a2357858f6000018190555060008f6001016000888152602001908152602001600020600001819055505b612a2c8f61379c565b50505050505050945094509450949050565b6000806000612a4b614e2d565b600080612a578a6126bd565b90506000808983111580612a69575089155b612ab05760405162461bcd60e51b8152602060048201526018602482015277496e73756666696369656e74206c696d69742076616c756560401b60448201526064016123cb565b6000805b8c831080612ac057508c155b8015612ad357508a891080612ad357508a155b8015612ade57508415155b8015612af257508b85111580612af257508b155b15612bab57600085815260018f0160205260409020600501549350612b1784846151f4565b9250849550612b26858561349b565b612b30908a6151f4565b9850612b3c848b6151f4565b99508c83118015612b4c57508c15155b15612b6e57612b5b8d84615227565b9150612b67858361349b565b9050612b9a565b8a89118015612b7c57508a15155b15612b9a57612b8b8b8a615227565b9050612b9785826134ea565b91505b612ba48e86612d80565b9450612ab4565b8115612bbe57612bbb828b615227565b99505b8015612bd157612bce818a615227565b98505b8215612cd9578115612bf657859450612bef8e866128b08588615227565b9650612c11565b8015612c1157859450612c0e8e866128d488856134ea565b96505b60008e60010160008781526020019081526020016000206001018190555060008e600101600087815260200190815260200160002060000154905060008614612cd7575b8015612cd75785811115612cc157808f60010160008881526020019081526020016000206000015414612cbd57808f600101600088815260200190815260200160002060000181905550858f6001016000838152602001908152602001600020600101819055505b8095505b600090815260018f016020526040902054612c55565b505b828d1115612cee57612ceb838e615227565b97505b6000612cf98f61254a565b90508681148015612d2257508e6001016000828152602001908152602001600020600501546000145b15612d305760008f55612d77565b8e54871180612d4a57508e5487148015612d4a5750838b10155b15612d7757858f6000018190555060008f6001016000888152602001908152602001600020600001819055505b612a2c8f61386b565b600081612df05760405162461bcd60e51b815260206004820152603860248201527f4f7264657253746174697374696373547265652834303129202d205374617274604482015277696e672076616c75652063616e6e6f74206265207a65726f60401b60648201526084016123cb565b600082815260018401602052604090206002015415612e285760008281526001840160205260409020600201546122c09084906138fa565b5060008181526001830160205260409020545b8015801590612e5c5750600081815260018401602052604090206002015482145b15612300576000818152600184016020526040902054909150612e3b565b6000612e87848484613932565b90506125068484613b9e565b8154600090612ea490600190615227565b905060005b818111612fe35782848281548110612ec357612ec36151c8565b90600052602060002090600591828204019190066006029054906101000a900465ffffffffffff1665ffffffffffff161415612fd157818114612f8a576000848381548110612f1457612f146151c8565b90600052602060002090600591828204019190066006029054906101000a900465ffffffffffff16905080858381548110612f5157612f516151c8565b90600052602060002090600591828204019190066006026101000a81548165ffffffffffff021916908365ffffffffffff160217905550505b83805480612f9a57612f9a6152a5565b60019003818190600052602060002090600591828204019190066006026101000a81549065ffffffffffff02191690559055612fe3565b80612fdb8161520c565b915050612ea9565b50505050565b6000612ff6848484613e5b565b801561254257506125428484613fa4565b600080821161301557600080fd5b6005613021838561523e565b61302c90600a615260565b8361303886600a615260565b613042919061523e565b61304c9190615227565b101561305c576122c0828461523e565b613066828461523e565b6122c09060016151f4565b60008061307d8461254a565b905060008092505b838110801561309357508115155b15613125576000828152600186016020526040812060050154906130b7848361349b565b90506130c381846151f4565b9250858311156131055760006130d98785615227565b6130e39083615227565b90506130f382611c218386615260565b6130fd90876151f4565b955050613112565b61310f82866151f4565b94505b61311c87856125c3565b93505050613085565b505092915050565b600080613139846126bd565b905060008092505b838110801561314f57508115155b1561312557600082815260018601602052604081206005015490613173848361349b565b905061317f81846151f4565b9250858311156131c15760006131958785615227565b61319f9083615227565b90506131af82611c218386615260565b6131b990876151f4565b9550506131ce565b6131cb82866151f4565b94505b6131d88785612d80565b93505050613141565b806132545760405162461bcd60e51b815260206004820152603960248201527f4f7264657253746174697374696373547265652834303529202d2056616c756560448201527f20746f20696e736572742063616e6e6f74206265207a65726f0000000000000060648201526084016123cb565b81546000905b80156132b8578091508083101561328457600090815260018085016020526040909120015461325a565b808311156132a557600090815260018401602052604090206002015461325a565b808314156132b35750505050565b61325a565b6000838152600185016020526040902084541580613307575060008381526001808701602052604090912001548414801590613307575060008381526001860160205260409020600201548414155b156133355760006004820181905560058201819055613329908690869061405d565b61333585856000614095565b82815560006001808301829055600283019190915560038201805460ff1916909117905582613366578385556133a0565b8284101561338957600083815260018087016020526040909120018490556133a0565b600083815260018601602052604090206002018490555b6133aa85856140d5565b5050505050565b60008481526001860160205260408120906133cf8787878787614340565b90506133f38787838560030160019054906101000a900465ffffffffffff166144df565b6133fe87878361405d565b6003820154600160381b900465ffffffffffff1661342157613421878783614095565b50505050505050565b600084815260018601602052604090206003810154610100900465ffffffffffff1661345d5761243886868686866133b1565b600061346c8787878787614340565b905061349087878460030160079054906101000a900465ffffffffffff16846144df565b613421878783614095565b600061250683611c2161271085615260565b60005b6000828152600184016020526040902060020154156134e457600091825260018301602052604090912060020154906134b0565b50919050565b6000612506612710611c218585615260565b613504614e2d565b60008381526001850160205260409020600581015483111561358e5760405162461bcd60e51b815260206004820152603960248201527f4f7264657253746174697374696373547265652834313029202d20416d6f756e60448201527f7420746f2066696c6c20697320696e73756666696369656e740000000000000060648201526084016123cb565b60038082015465ffffffffffff610100909104811660008181526006850160209081526040808320815160c08101835281548088168252600160301b8104881694820194909452600160601b9093049095169082015260018401546001600160a01b0316606082015260028401546080820152929093015460a0830152859291905b65ffffffffffff81161580159061362657508315155b1561372b5765ffffffffffff8082166000908152600687016020908152604091829020825160c08101845281548086168252600160301b8104861693820193909352600160601b9092049093169181019190915260018201546001600160a01b031660608201526002820154608082015260039091015460a0820181905290925084106136ca5760a08201516136bc9085615227565b935081602001519050613719565b6040518060800160405280836000015165ffffffffffff16815260200183606001516001600160a01b03168152602001858460a0015161370a9190615227565b81526020018990529550600093505b826137238161520c565b935050613610565b61373a89898460000151614554565b5060408601511561379057600088815260018a0160209081526040808320855165ffffffffffff1684526006019091528082209088015160038201805492939192909190613789908490615227565b9091555050505b50505050509392505050565b805460009081526001820160205260409020600201541580156137d357508054600090815260018083016020526040909120015415155b1561382c5780546000908152600180830160205260408083209091015482529020600201541561381e578054600090815260018083016020526040909120015461381e90829061473a565b61382c818260000154614812565b8054600090815260018201602052604090206003015460ff161561386857805460009081526001820160205260409020600301805460ff191690555b50565b805460009081526001808301602052604090912001541580156138a257508054600090815260018201602052604090206002015415155b1561382c5780546000908152600180830160205260408083206002015483529091200154156138ec57805460009081526001820160205260409020600201546138ec908290614812565b61382c81826000015461473a565b60005b6000828152600180850160205260409091200154156134e45760009182526001808401602052604090922090910154906138fd565b600061393f848484612fe9565b61395b5760405162461bcd60e51b81526004016123cb906152bb565b50600082815260018085016020908152604080842065ffffffffffff80871680875260068301855295839020835160c08101855281548084168252600160301b8104841696820196909652600160601b909504821693850193909352938201546001600160a01b031660608401526002820154608084015260039182015460a084018190529181015491949093610100909204909116148015613a135750600382015465ffffffffffff858116600160381b90920416145b15613a3557613a248686600061405d565b613a3086866000614095565b613b07565b600382015465ffffffffffff858116610100909204161415613a9357613a608686836020015161405d565b60208082015165ffffffffffff1660009081526006840190915260409020805465ffffffffffff60601b19169055613b07565b600382015465ffffffffffff858116600160381b909204161415613af357613ac086868360400151614095565b60408082015165ffffffffffff166000908152600684016020522080546bffffffffffff00000000000019169055613b07565b613b078686836040015184602001516144df565b805165ffffffffffff1660009081526006830160205260408120805471ffffffffffffffffffffffffffffffffffff19168155600180820180546001600160a01b031916905560028201839055600390910182905560048401805491929091613b71908490615227565b909155505060a0810151600583018054600090613b8f908490615227565b90915550929695505050505050565b80613c115760405162461bcd60e51b815260206004820152603960248201527f4f7264657253746174697374696373547265652834303729202d2056616c756560448201527f20746f2064656c6574652063616e6e6f74206265207a65726f0000000000000060648201526084016123cb565b60008181526001830160205260408120600481015490919081906133aa5760008481526001808701602052604090912001541580613c6057506000848152600186016020526040902060020154155b15613c6c575082613cb4565b5060008381526001850160205260409020600201545b600081815260018087016020526040909120015415613cb4576000908152600180860160205260409091200154613c82565b600081815260018087016020526040909120015415613ce85760008181526001808701602052604090912001549150613cff565b600081815260018601602052604090206002015491505b60008181526001860160205260408082205484835291208190558015613d70576000818152600180880160205260409091200154821415613d555760008181526001808801602052604090912001839055613d74565b60008181526001870160205260409020600201839055613d74565b8286555b600082815260018701602052604090206003015460ff1615858314613dfe57613d9e8784886148e7565b60008681526001888101602052604080832080830154878552828520938401819055845281842087905560028082015490840181905584529083208690556003908101549286905201805460ff191660ff90921615159190911790559194915b8015613e0e57613e0e878561495e565b50506000818152600180870160205260408220828155908101829055600281018290556003810180546cffffffffffffffffffffffffff1916905560048101829055600501555050505050565b600082815260018085016020908152604080842065ffffffffffff808716808752600683018552838720845160c0810186528154808516808352600160301b8204861698830198909852600160601b900490931694830194909452948301546001600160a01b031660608201526002830154608082015260039092015460a08301528593909214613ef25760009350505050612506565b5b604081015165ffffffffffff1615613f855760409081015165ffffffffffff808216600090815260068501602090815290849020845160c08101865281548085168252600160301b8104851693820193909352600160601b9092049092169381019390935260018101546001600160a01b03166060840152600281015460808401526003015460a08301529250613ef3565b5060030154610100900465ffffffffffff908116911614949350505050565b600081613fb357506000612300565b8254821415613fc457506001612300565b815b6000818152600185016020526040902054156140535760008181526001808601602052604080832054808452922001548214801590614018575060008181526001860160205260409020600201548214155b1561402857600092505050612300565b845481141561403c57600192505050612300565b506000908152600184016020526040902054613fc6565b5060009392505050565b6000918252600190920160205260409020600301805465ffffffffffff9092166101000266ffffffffffff0019909216919091179055565b6000918252600190920160205260409020600301805465ffffffffffff909216600160381b026cffffffffffff0000000000000019909216919091179055565b60005b825482148015906141025750600082815260018401602052604080822054825290206003015460ff165b1561431e5760008281526001808501602052604080832054808452818420548452922001548114156142255760008181526001850160205260408082205482528082206002015480835291206003015490925060ff16156141ab576000818152600180860160205260408083206003808201805460ff19908116909155878652838620820180548216905582548652928520018054909216909217905590829052549250614318565b60008181526001850160205260409020600201548314156141d3578092506141d3848461473a565b50600082815260018085016020526040808320548084528184206003808201805460ff19908116909155825487529386200180549093169093179091559182905254614220908590614812565b614318565b6000818152600180860160205260408083205483528083209091015480835291206003015490925060ff16156142a3576000818152600180860160205260408083206003808201805460ff19908116909155878652838620820180548216905582548652928520018054909216909217905590829052549250614318565b60008181526001808601602052604090912001548314156142cb578092506142cb8484614812565b50600082815260018085016020526040808320548084528184206003808201805460ff1990811690915582548752938620018054909316909317909155918290525461431890859061473a565b506140d8565b505080546000908152600190910160205260409020600301805460ff19169055565b6000848152600186016020908152604080832065ffffffffffff8716845260068101909252822060020154156143d35760405162461bcd60e51b815260206004820152603260248201527f4f7264657253746174697374696373547265652834303929202d204f726465726044820152711034b21030b63932b0b23c9032bc34b9ba1760711b60648201526084016123cb565b60018160040160008282546143e891906151f4565b925050819055508281600501600082825461440391906151f4565b90915550506040805160c08101825265ffffffffffff808816808352600060208085018281528587018381526001600160a01b03808d16606089019081524260808a0190815260a08a018e81529787526006909b019094529790932095518654915193518616600160601b0265ffffffffffff60601b19948716600160301b026bffffffffffffffffffffffff199093169682169690961791909117929092169390931784559151600184018054919095166001600160a01b031990911617909355925160028201559051600390910155905095945050505050565b60009283526001939093016020908152604080842065ffffffffffff938416808652600690910190925280842080546bffffffffffff0000000000001916600160301b9490961693840295909517909455908252919020805465ffffffffffff60601b1916600160601b909202919091179055565b6000614561848484612fe9565b61457d5760405162461bcd60e51b81526004016123cb906152bb565b50600082815260018085016020908152604080842065ffffffffffff808716865260068201808552838720845160c08101865281548085168252600160301b8104851682890152600160601b9004841681870152818801546001600160a01b031660608201526002820154608082015260039182015460a08201819052828601546101009004909416808a529290965293909620909201549194909390915b8665ffffffffffff16831461468057600092835260068501602052604090922054600160301b900465ffffffffffff1691816146578161520c565b60008581526006880160205260409020600301549093506146799150826151f4565b905061461c565b600385015465ffffffffffff888116600160381b9092041614156146bb576146aa8989600061405d565b6146b689896000614095565b6146f9565b6146ca8989866020015161405d565b60208085015165ffffffffffff1660009081526006870190915260409020805465ffffffffffff60601b191690555b8185600401600082825461470d9190615227565b92505081905550808560050160008282546147289190615227565b90915550959998505050505050505050565b60008181526001808401602052604080832060028101805491548286529285209093015493859052918390559091801561478257600081815260018601602052604090208490555b60008381526001860160205260409020829055816147a2578285556147ef565b60008281526001808701602052604090912001548414156147d857600082815260018087016020526040909120018390556147ef565b600082815260018601602052604090206002018390555b505060008181526001938401602052604080822090940183905591825291902055565b6000818152600180840160205260408083209182018054925483855291842060020154938590528390559091801561485857600081815260018601602052604090208490555b6000838152600186016020526040902082905581614878578285556148c5565b60008281526001860160205260409020600201548414156148ae57600082815260018601602052604090206002018390556148c5565b600082815260018087016020526040909120018390555b5050600081815260019093016020526040808420600201839055918352912055565b60008181526001840160205260408082205484835291208190558061490e57828455612fe3565b60008181526001808601602052604090912001548214156149445760008181526001808601602052604090912001839055612fe3565b600090815260019390930160205250604090912060020155565b60005b825482148015906149865750600082815260018401602052604090206003015460ff16155b15614d59576000828152600180850160205260408083205480845292200154831415614b825760008181526001850160205260408082206002015480835291206003015490925060ff1615614a2a576000828152600180860160205260408083206003908101805460ff19908116909155858552919093209092018054909216179055614a13848261473a565b600081815260018501602052604090206002015491505b60008281526001808601602052604080832090910154825290206003015460ff16158015614a755750600082815260018501602052604080822060020154825290206003015460ff16155b15614aa257600082815260018581016020526040909120600301805460ff19169091179055915081614d53565b600082815260018501602052604080822060020154825290206003015460ff16614b1f576000828152600180860160205260408083208083015484529083206003908101805460ff1990811690915593869052018054909216179055614b088483614812565b600081815260018501602052604090206002015491505b600081815260018501602052604080822060039081018054868552838520808401805460ff909316151560ff199384161790558254821690925560029091015484529190922090910180549091169055614b79848261473a565b83549250614d53565b6000818152600180860160205260408083209091015480835291206003015490925060ff1615614c01576000828152600180860160205260408083206003908101805460ff19908116909155858552919093209092018054909216179055614bea8482614812565b600081815260018086016020526040909120015491505b600082815260018501602052604080822060020154825290206003015460ff16158015614c4c575060008281526001808601602052604080832090910154825290206003015460ff16155b15614c7957600082815260018581016020526040909120600301805460ff19169091179055915081614d53565b60008281526001808601602052604080832090910154825290206003015460ff16614cf857600082815260018086016020526040808320600281015484529083206003908101805460ff1990811690915593869052018054909216179055614ce1848361473a565b600081815260018086016020526040909120015491505b60008181526001808601602052604080832060039081018054878652838620808401805460ff909316151560ff19938416179055825482169092559301548452922090910180549091169055614d4e8482614812565b835492505b50614961565b506000908152600190910160205260409020600301805460ff19169055565b82805482825590600052602060002090600401600590048101928215614e1d5791602002820160005b83821115614de957835183826101000a81548165ffffffffffff021916908365ffffffffffff1602179055509260200192600601602081600501049283019260010302614da1565b8015614e1b5782816101000a81549065ffffffffffff0219169055600601602081600501049283019260010302614de9565b505b50614e29929150614e66565b5090565b6040518060800160405280600065ffffffffffff16815260200160006001600160a01b0316815260200160008152602001600081525090565b5b80821115614e295760008155600101614e67565b80356002811061258c57600080fd5b80356001600160a01b038116811461258c57600080fd5b600080600080600060a08688031215614eb957600080fd5b614ec286614e7b565b9450614ed060208701614e8a565b9350604086013592506060860135915060808601358015158114614ef357600080fd5b809150509295509295909350565b60008060408385031215614f1457600080fd5b614f1d83614e8a565b946020939093013593505050565b600081518084526020808501945080840160005b83811015614f6357815165ffffffffffff1687529582019590820190600101614f3f565b509495945050505050565b608081526000614f816080830187614f2b565b6020830195909552506040810192909252606090910152919050565b600060208284031215614faf57600080fd5b5035919050565b600081518084526020808501945080840160005b83811015614f6357815187529582019590820190600101614fca565b606081526000614ff96060830186614fb6565b828103602084015261500b8186614fb6565b9050828103604084015261501f8185614fb6565b9695505050505050565b60008060006060848603121561503e57600080fd5b61504784614e7b565b95602085013595506040909401359392505050565b803565ffffffffffff8116811461258c57600080fd5b6000806040838503121561508557600080fd5b61508e83614e8a565b915061509c6020840161505c565b90509250929050565b634e487b7160e01b600052602160045260246000fd5b600281106150d957634e487b7160e01b600052602160045260246000fd5b9052565b606081016150eb82866150bb565b602082019390935260400152919050565b60006020828403121561510e57600080fd5b6125068261505c565b60c0810161512582896150bb565b602082019690965260408101949094526001600160a01b03929092166060840152608083015260a090910152919050565b6000806040838503121561516957600080fd5b614f1d83614e7b565b60006020828403121561518457600080fd5b61250682614e8a565b6040815260006151a06040830185614f2b565b82810360208401526105898185614f2b565b634e487b7160e01b600052604160045260246000fd5b634e487b7160e01b600052603260045260246000fd5b634e487b7160e01b600052601160045260246000fd5b60008219821115615207576152076151de565b500190565b6000600019821415615220576152206151de565b5060010190565b600082821015615239576152396151de565b500390565b60008261525b57634e487b7160e01b600052601260045260246000fd5b500490565b600081600019048311821515161561527a5761527a6151de565b500290565b600065ffffffffffff8083168181141561529b5761529b6151de565b6001019392505050565b634e487b7160e01b600052603160045260246000fd5b60208082526030908201527f4f7264657253746174697374696373547265652834313029202d204f7264657260408201526f103237b2b9903737ba1032bc34b9ba1760811b60608201526080019056fea26469706673582212208e07d44cbd7b5a455f9f766efc6e49b4156edf3024b4fc7ac1ea29a1d21ce98a64736f6c63430008090033",
  "devdoc": {
    "kind": "dev",
    "methods": {},
    "version": 1
  },
  "userdoc": {
    "kind": "user",
    "methods": {},
    "version": 1
  },
  "storageLayout": {
    "storage": [],
    "types": null
  }
}