{
  "address": "0x4a825aB4bd5bBEAAE2705d9C530D85d9E25454da",
  "abi": [
    {
      "inputs": [
        {
          "internalType": "address",
          "name": "_user",
          "type": "address"
        }
      ],
      "name": "getActiveBorrowOrderIds",
      "outputs": [
        {
          "internalType": "uint48[]",
          "name": "activeOrderIds",
          "type": "uint48[]"
        },
        {
          "internalType": "uint48[]",
          "name": "inActiveOrderIds",
          "type": "uint48[]"
        }
      ],
      "stateMutability": "view",
      "type": "function"
    },
    {
      "inputs": [
        {
          "internalType": "address",
          "name": "_user",
          "type": "address"
        }
      ],
      "name": "getActiveLendOrderIds",
      "outputs": [
        {
          "internalType": "uint48[]",
          "name": "activeOrderIds",
          "type": "uint48[]"
        },
        {
          "internalType": "uint48[]",
          "name": "inActiveOrderIds",
          "type": "uint48[]"
        }
      ],
      "stateMutability": "view",
      "type": "function"
    },
    {
      "inputs": [
        {
          "internalType": "uint256",
          "name": "_limit",
          "type": "uint256"
        }
      ],
      "name": "getBorrowOrderBook",
      "outputs": [
        {
          "internalType": "uint256[]",
          "name": "unitPrices",
          "type": "uint256[]"
        },
        {
          "internalType": "uint256[]",
          "name": "amounts",
          "type": "uint256[]"
        },
        {
          "internalType": "uint256[]",
          "name": "quantities",
          "type": "uint256[]"
        }
      ],
      "stateMutability": "view",
      "type": "function"
    },
    {
      "inputs": [],
      "name": "getHighestBorrowUnitPrice",
      "outputs": [
        {
          "internalType": "uint256",
          "name": "",
          "type": "uint256"
        }
      ],
      "stateMutability": "view",
      "type": "function"
    },
    {
      "inputs": [
        {
          "internalType": "uint256",
          "name": "_limit",
          "type": "uint256"
        }
      ],
      "name": "getLendOrderBook",
      "outputs": [
        {
          "internalType": "uint256[]",
          "name": "unitPrices",
          "type": "uint256[]"
        },
        {
          "internalType": "uint256[]",
          "name": "amounts",
          "type": "uint256[]"
        },
        {
          "internalType": "uint256[]",
          "name": "quantities",
          "type": "uint256[]"
        }
      ],
      "stateMutability": "view",
      "type": "function"
    },
    {
      "inputs": [],
      "name": "getLowestLendUnitPrice",
      "outputs": [
        {
          "internalType": "uint256",
          "name": "",
          "type": "uint256"
        }
      ],
      "stateMutability": "view",
      "type": "function"
    },
    {
      "inputs": [
        {
          "internalType": "uint48",
          "name": "_orderId",
          "type": "uint48"
        }
      ],
      "name": "getOrder",
      "outputs": [
        {
          "internalType": "enum ProtocolTypes.Side",
          "name": "side",
          "type": "ProtocolTypes.Side"
        },
        {
          "internalType": "uint256",
          "name": "unitPrice",
          "type": "uint256"
        },
        {
          "internalType": "uint256",
          "name": "maturity",
          "type": "uint256"
        },
        {
          "internalType": "address",
          "name": "maker",
          "type": "address"
        },
        {
          "internalType": "uint256",
          "name": "amount",
          "type": "uint256"
        },
        {
          "internalType": "uint256",
          "name": "timestamp",
          "type": "uint256"
        }
      ],
      "stateMutability": "view",
      "type": "function"
    },
    {
      "inputs": [
        {
          "internalType": "address",
          "name": "_user",
          "type": "address"
        }
      ],
      "name": "getTotalAmountFromBorrowOrders",
      "outputs": [
        {
          "internalType": "uint256",
          "name": "activeAmount",
          "type": "uint256"
        },
        {
          "internalType": "uint256",
          "name": "inactiveAmount",
          "type": "uint256"
        },
        {
          "internalType": "uint256",
          "name": "inactiveFutureValue",
          "type": "uint256"
        },
        {
          "internalType": "uint256",
          "name": "maturity",
          "type": "uint256"
        }
      ],
      "stateMutability": "view",
      "type": "function"
    },
    {
      "inputs": [
        {
          "internalType": "address",
          "name": "_user",
          "type": "address"
        }
      ],
      "name": "getTotalAmountFromLendOrders",
      "outputs": [
        {
          "internalType": "uint256",
          "name": "activeAmount",
          "type": "uint256"
        },
        {
          "internalType": "uint256",
          "name": "inactiveAmount",
          "type": "uint256"
        },
        {
          "internalType": "uint256",
          "name": "inactiveFutureValue",
          "type": "uint256"
        },
        {
          "internalType": "uint256",
          "name": "maturity",
          "type": "uint256"
        }
      ],
      "stateMutability": "view",
      "type": "function"
    }
  ],
  "transactionHash": "0xed931f3ba244189f75fb33e6c832ecc1c63687ad32b07885803a94210670f608",
  "args": [],
  "numDeployments": 1,
  "solcInputHash": "87cfba3f2a70cb5f9aac2e4a848dedef",
  "bytecode": "0x614b6c61003a600b82828239805160001a60731461002d57634e487b7160e01b600052600060045260246000fd5b30600052607381538281f3fe73000000000000000000000000000000000000000030146080604052600436106100f45760003560e01c8063914551f111610096578063e1396d1511610070578063e1396d15146102b5578063e3d904d8146102bd578063e7df768c146102f0578063eebc28f91461030357600080fd5b8063914551f114610261578063a452c3f814610281578063d866d355146102a257600080fd5b806357b5758c116100d257806357b5758c1461018757806363978ac81461019d5780636c5db8431461020d5780637ce219aa1461023c57600080fd5b80633684d3ea146100f95780634a53967b146101355780634bf62d1614610165575b600080fd5b81801561010557600080fd5b5061011961011436600461468b565b610316565b60405165ffffffffffff90911681526020015b60405180910390f35b81801561014157600080fd5b506101556101503660046146eb565b61051d565b60405161012c9493929190614758565b610178610173366004614787565b610770565b60405161012c939291906147d0565b61018f610a24565b60405190815260200161012c565b8180156101a957600080fd5b506101bd6101b8366004614813565b610a5a565b60408051845165ffffffffffff1681526020808601516001600160a01b031690820152848201519181019190915260609384015193810193909352608083019190915260a082015260c00161012c565b81801561021957600080fd5b5061022d61022836600461485c565b610b2c565b60405161012c939291906148c7565b61024f61024a3660046148e6565b610cca565b60405161012c96959493929190614901565b81801561026d57600080fd5b5061015561027c3660046146eb565b610e59565b61029461028f366004614940565b61109f565b60405161012c92919061495b565b6101786102b0366004614787565b6113fb565b61018f611642565b6102d06102cb366004614940565b61164f565b60408051948552602085019390935291830152606082015260800161012c565b6102d06102fe366004614940565b6118f8565b610294610311366004614940565b611b83565b6000610320611e92565b9050604051806080016040528087600181111561033f5761033f61488f565b8152602001848152602001610352611eeb565b60030154815260200142815250610367611eeb565b65ffffffffffff831660009081526007919091016020526040902081518154829060ff19166001838181111561039f5761039f61488f565b0217905550602082015160018201556040820151600282015560609091015160039091015560008660018111156103d8576103d861488f565b14156104815761041f83828787866103ee611eeb565b60080160006103fb611eeb565b600301548152602001908152602001600020611f0f9095949392919063ffffffff16565b610427611eeb565b6001600160a01b03861660009081526004919091016020908152604082208054600181018255908352912060058083049091018054919092066006026101000a65ffffffffffff8181021990921691841602179055610514565b60018660018111156104955761049561488f565b1415610514576104b883828787866104ab611eeb565b60090160006103fb611eeb565b6104c0611eeb565b6001600160a01b0386166000908152600591820160209081526040822080546001810182559083529120828204018054929091066006026101000a65ffffffffffff81810219909316928416029190911790555b95945050505050565b6060600080600080600061053088611b83565b915091508161053d611eeb565b60050160008a6001600160a01b03166001600160a01b031681526020019081526020016000209080519060200190610576929190614562565b50815181519095508067ffffffffffffffff81111561059757610597614980565b6040519080825280602002602001820160405280156105c0578160200160208202803683370190505b50965060005b818110156107635760006105d8611eeb565b60070160008584815181106105ef576105ef614996565b602002602001015165ffffffffffff1681526020019081526020016000206040518060800160405290816000820160009054906101000a900460ff16600181111561063c5761063c61488f565b600181111561064d5761064d61488f565b81526020016001820154815260200160028201548152602001600382015481525050905060006106b6826020015186858151811061068d5761068d614996565b602002602001015161069d611eeb565b60008f8152600991909101602052604090209190611f91565b90506106fb82602001518685815181106106d2576106d2614996565b60200260200101516106e2611eeb565b60008f815260099190910160205260409020919061204c565b61070590896149c2565b97508060a001518761071791906149c2565b965080600001518a848151811061073057610730614996565b602002602001019065ffffffffffff16908165ffffffffffff16815250505050808061075b906149da565b9150506105c6565b5050505092959194509250565b60608060608367ffffffffffffffff81111561078e5761078e614980565b6040519080825280602002602001820160405280156107b7578160200160208202803683370190505b5092508367ffffffffffffffff8111156107d3576107d3614980565b6040519080825280602002602001820160405280156107fc578160200160208202803683370190505b5091508367ffffffffffffffff81111561081857610818614980565b604051908082528060200260200182016040528015610841578160200160208202803683370190505b5090506000610875610851611eeb565b600801600061085e611eeb565b600301548152602001908152602001600020612089565b9050808460008151811061088b5761088b614996565b6020026020010181815250506108d0816108a3611eeb565b60080160006108b0611eeb565b6003015481526020019081526020016000206120d090919063ffffffff16565b836000815181106108e3576108e3614996565b602002602001018181525050610928816108fb611eeb565b6008016000610908611eeb565b6003015481526020019081526020016000206120eb90919063ffffffff16565b8260008151811061093b5761093b614996565b602090810291909101015260015b8451811015610a1b578161095c57610a1b565b61099582610968611eeb565b6008016000610975611eeb565b60030154815260200190815260200160002061210490919063ffffffff16565b9150818582815181106109aa576109aa614996565b6020026020010181815250506109c2826108a3611eeb565b8482815181106109d4576109d4614996565b6020026020010181815250506109ec826108fb611eeb565b8382815181106109fe576109fe614996565b602090810291909101015280610a13816149da565b915050610949565b50509193909250565b6000610a55610a31611eeb565b6009016000610a3e611eeb565b600301548152602001908152602001600020612205565b905090565b610a62614617565b6000806001866001811115610a7957610a7961488f565b1415610ac657610aba8585610a8c611eeb565b6008016000610a99611eeb565b6003015481526020019081526020016000206122479092919063ffffffff16565b94509092509050610b23565b6000866001811115610ada57610ada61488f565b1415610b2357610b1b8585610aed611eeb565b6009016000610afa611eeb565b60030154815260200190815260200160002061258b9092919063ffffffff16565b945090925090505b93509350939050565b600080600080610b3a611eeb565b65ffffffffffff861660009081526007919091016020526040908190208151608081019092528054829060ff166001811115610b7857610b7861488f565b6001811115610b8957610b8961488f565b81526001820154602082015260028201546040820152600390910154606090910152905060008082516001811115610bc357610bc361488f565b1415610c4457610c08826020015187610bda611eeb565b6008016000610be7611eeb565b6003015481526020019081526020016000206128869092919063ffffffff16565b9050610c3f610c15611eeb565b6001600160a01b03891660009081526004919091016020526040902065ffffffffffff88166128c6565b610cb4565b600182516001811115610c5957610c5961488f565b1415610cb457610c7d826020015187610c70611eeb565b6009016000610be7611eeb565b9050610cb4610c8a611eeb565b6001600160a01b03891660009081526005919091016020526040902065ffffffffffff88166128c6565b8151602090920151919450925090509250925092565b6000806000806000806000610cdd611eeb565b65ffffffffffff891660009081526007919091016020526040908190208151608081019092528054829060ff166001811115610d1b57610d1b61488f565b6001811115610d2c57610d2c61488f565b815260200160018201548152602001600282015481526020016003820154815250509050610d886040805160c081018252600080825260208201819052918101829052606081018290526080810182905260a081019190915290565b600082516001811115610d9d57610d9d61488f565b1415610dd857610dd182602001518a610db4611eeb565b604080870151600090815260089290920160205290209190611f91565b9050610e09565b610e0682602001518a610de9611eeb565b604080870151600090815260099290920160205290209190611f91565b90505b60608101516001600160a01b031615610e4d5781600001518260200151836040015183606001518460a0015185608001519750975097509750975097505050610e50565b50505b91939550919395565b60606000806000806000610e6c8861109f565b9150915081610e79611eeb565b60040160008a6001600160a01b03166001600160a01b031681526020019081526020016000209080519060200190610eb2929190614562565b50815181519095508067ffffffffffffffff811115610ed357610ed3614980565b604051908082528060200260200182016040528015610efc578160200160208202803683370190505b50965060005b81811015610763576000610f14611eeb565b6007016000858481518110610f2b57610f2b614996565b602002602001015165ffffffffffff1681526020019081526020016000206040518060800160405290816000820160009054906101000a900460ff166001811115610f7857610f7861488f565b6001811115610f8957610f8961488f565b8152602001600182015481526020016002820154815260200160038201548152505090506000610ff28260200151868581518110610fc957610fc9614996565b6020026020010151610fd9611eeb565b60008f8152600891909101602052604090209190611f91565b9050611037826020015186858151811061100e5761100e614996565b602002602001015161101e611eeb565b60008f815260089190910160205260409020919061204c565b61104190896149c2565b97508060a001518761105391906149c2565b965080600001518a848151811061106c5761106c614996565b602002602001019065ffffffffffff16908165ffffffffffff168152505050508080611097906149da565b915050610f02565b60608060008060006110af611eeb565b600301546110bb611eeb565b6001600160a01b03881660009081526006919091016020526040902054141590508061110b576110e9611eeb565b6001600160a01b0387166000908152600491909101602052604090205461110e565b60005b67ffffffffffffffff81111561112657611126614980565b60405190808252806020026020018201604052801561114f578160200160208202803683370190505b50945061115a611eeb565b6001600160a01b0387166000908152600491909101602052604090205467ffffffffffffffff81111561118f5761118f614980565b6040519080825280602002602001820160405280156111b8578160200160208202803683370190505b50935060005b6111c6611eeb565b6001600160a01b038816600090815260049190910160205260409020548110156113f25760006111f4611eeb565b6001600160a01b03891660009081526004919091016020526040902080548390811061122257611222614996565b90600052602060002090600591828204019190066006029054906101000a900465ffffffffffff1690506000611256611eeb565b65ffffffffffff831660009081526007919091016020526040908190208151608081019092528054829060ff1660018111156112945761129461488f565b60018111156112a5576112a561488f565b81526020016001820154815260200160028201548152602001600382015481525050905061132b8160200151836112da611eeb565b60080160006112e7611eeb565b60060160008f6001600160a01b03166001600160a01b03168152602001908152602001600020548152602001908152602001600020612a1c9092919063ffffffff16565b6113885761133a6001866149c2565b9450818761134888866149f5565b8151811061135857611358614996565b602002602001019065ffffffffffff16908165ffffffffffff16815250508361138357600188510388525b6113dd565b836113d5576113986001876149c2565b955081886113a687866149f5565b815181106113b6576113b6614996565b602002602001019065ffffffffffff16908165ffffffffffff16815250505b600187510387525b505080806113ea906149da565b9150506111be565b50505050915091565b60608060608367ffffffffffffffff81111561141957611419614980565b604051908082528060200260200182016040528015611442578160200160208202803683370190505b5092508367ffffffffffffffff81111561145e5761145e614980565b604051908082528060200260200182016040528015611487578160200160208202803683370190505b5091508367ffffffffffffffff8111156114a3576114a3614980565b6040519080825280602002602001820160405280156114cc578160200160208202803683370190505b50905060006114dc610a31611eeb565b905080846000815181106114f2576114f2614996565b6020026020010181815250506115178161150a611eeb565b60090160006108b0611eeb565b8360008151811061152a5761152a614996565b60200260200101818152505061154f81611542611eeb565b6009016000610908611eeb565b8260008151811061156257611562614996565b602090810291909101015260015b8451811015610a1b578161158357610a1b565b6115bc8261158f611eeb565b600901600061159c611eeb565b600301548152602001908152602001600020612a3a90919063ffffffff16565b9150818582815181106115d1576115d1614996565b6020026020010181815250506115e98261150a611eeb565b8482815181106115fb576115fb614996565b60200260200101818152505061161382611542611eeb565b83828151811061162557611625614996565b60209081029190910101528061163a816149da565b915050611570565b6000610a55610851611eeb565b60008060008060008061166187611b83565b9150915060005b825181101561179757600061167b611eeb565b600701600085848151811061169257611692614996565b602002602001015165ffffffffffff1681526020019081526020016000206040518060800160405290816000820160009054906101000a900460ff1660018111156116df576116df61488f565b60018111156116f0576116f061488f565b815260200160018201548152602001600282015481526020016003820154815250509050600061176e826020015186858151811061173057611730614996565b6020026020010151611740611eeb565b600901600061174d611eeb565b600301548152602001908152602001600020611f919092919063ffffffff16565b90508060a001518961178091906149c2565b98505050808061178f906149da565b915050611668565b506117a0611eeb565b6001600160a01b0388166000908152600691909101602052604081205493505b81518110156118ee5760006117d3611eeb565b60070160008484815181106117ea576117ea614996565b602002602001015165ffffffffffff1681526020019081526020016000206040518060800160405290816000820160009054906101000a900460ff1660018111156118375761183761488f565b60018111156118485761184861488f565b8152602001600182015481526020016002820154815260200160038201548152505090506000611898826020015185858151811061188857611888614996565b6020026020010151610de9611eeb565b90508060a00151886118aa91906149c2565b975081602001516127108260a001516118c39190614a0c565b6118cd9190614a2b565b6118d790886149c2565b9650505080806118e6906149da565b9150506117c0565b5050509193509193565b60008060008060008061190a8761109f565b91509150611916611eeb565b6001600160a01b0388166000908152600691909101602052604081205493505b8251811015611a44576000611949611eeb565b600701600085848151811061196057611960614996565b602002602001015165ffffffffffff1681526020019081526020016000206040518060800160405290816000820160009054906101000a900460ff1660018111156119ad576119ad61488f565b60018111156119be576119be61488f565b8152602001600182015481526020016002820154815260200160038201548152505090506000611a1b82602001518685815181106119fe576119fe614996565b6020026020010151611a0e611eeb565b600801600061174d611eeb565b90508060a0015189611a2d91906149c2565b985050508080611a3c906149da565b915050611936565b5060005b81518110156118ee576000611a5b611eeb565b6007016000848481518110611a7257611a72614996565b602002602001015165ffffffffffff1681526020019081526020016000206040518060800160405290816000820160009054906101000a900460ff166001811115611abf57611abf61488f565b6001811115611ad057611ad061488f565b81526001820154602082015260028201546040820152600390910154606090910152905084611b0157806040015194505b6000611b2d8260200151858581518110611b1d57611b1d614996565b6020026020010151610db4611eeb565b90508060a0015188611b3f91906149c2565b975081602001516127108260a00151611b589190614a0c565b611b629190614a2b565b611b6c90886149c2565b965050508080611b7b906149da565b915050611a48565b6060806000806000611b93611eeb565b60030154611b9f611eeb565b6001600160a01b038816600090815260069190910160205260409020541415905080611bef57611bcd611eeb565b6001600160a01b03871660009081526005919091016020526040902054611bf2565b60005b67ffffffffffffffff811115611c0a57611c0a614980565b604051908082528060200260200182016040528015611c33578160200160208202803683370190505b509450611c3e611eeb565b6001600160a01b0387166000908152600591909101602052604090205467ffffffffffffffff811115611c7357611c73614980565b604051908082528060200260200182016040528015611c9c578160200160208202803683370190505b50935060005b611caa611eeb565b6001600160a01b038816600090815260059190910160205260409020548110156113f2576000611cd8611eeb565b6001600160a01b038916600090815260059190910160205260409020805483908110611d0657611d06614996565b90600052602060002090600591828204019190066006029054906101000a900465ffffffffffff1690506000611d3a611eeb565b65ffffffffffff831660009081526007919091016020526040908190208151608081019092528054829060ff166001811115611d7857611d7861488f565b6001811115611d8957611d8961488f565b815260200160018201548152602001600282015481526020016003820154815250509050611dcb816020015183611dbe611eeb565b60090160006112e7611eeb565b611e2857611dda6001866149c2565b94508187611de888866149f5565b81518110611df857611df8614996565b602002602001019065ffffffffffff16908165ffffffffffff168152505083611e2357600188510388525b611e7d565b83611e7557611e386001876149c2565b95508188611e4687866149f5565b81518110611e5657611e56614996565b602002602001019065ffffffffffff16908165ffffffffffff16815250505b600187510387525b50508080611e8a906149da565b915050611ca2565b6000611e9c611eeb565b805465ffffffffffff16906000611eb283614a4d565b91906101000a81548165ffffffffffff021916908365ffffffffffff16021790555050611edd611eeb565b5465ffffffffffff16919050565b7ffc2836757f9146445fc75bc3c897a210ec004e4ee60fc8627ef5cbf2842b3d0a90565b60008211611f5a5760405162461bcd60e51b8152602060048201526013602482015272125b9cdd59999a58da595b9d08185b5bdd5b9d606a1b60448201526064015b60405180910390fd5b611f648686612b34565b8015611f7c57611f778686868686612d04565b611f89565b611f898686868686612d7d565b505050505050565b6040805160c081018252600080825260208201819052918101829052606081018290526080810182905260a081019190915250600082815260018085016020908152604080842065ffffffffffff80871686526006909101835293819020815160c08101835281548087168252600160301b8104871694820194909452600160601b90930490941690820152908201546001600160a01b031660608201526002820154608082015260039091015460a08201525b9392505050565b6000828152600184016020908152604080832065ffffffffffff85168452600601909152812060030154612081908490612dee565b949350505050565b80548061209857506000919050565b5b6000818152600180840160205260409091200154156120cb576000908152600180830160205260409091200154612099565b919050565b60008181526001830160205260409020600501545b92915050565b6000908152600191909101602052604090206004015490565b6000816121745760405162461bcd60e51b815260206004820152603860248201527f4f7264657253746174697374696373547265652834303129202d205374617274604482015277696e672076616c75652063616e6e6f74206265207a65726f60401b6064820152608401611f51565b6000828152600184016020526040902060020154156121b35760008281526001840160205260409020600201546121ac908490612e07565b90506120e5565b5060008181526001830160205260409020545b80158015906121e75750600081815260018401602052604090206002015482145b156120e55760008181526001840160205260409020549091506121c6565b80548061221457506000919050565b5b6000818152600183016020526040902060020154156120cb576000908152600182016020526040902060020154612215565b600080612252614617565b8461226f5760405162461bcd60e51b8152600401611f5190614a73565b60008061227b88612089565b9050600061228889612205565b9050600080888411158061229a575088155b6122e15760405162461bcd60e51b8152602060048201526018602482015277496e73756666696369656e74206c696d69742076616c756560401b6044820152606401611f51565b89811080156122ef57508315155b801561230357508815806123035750888411155b1561237b57600084815260018c016020526040902060050154915061232882826149c2565b905083945060008a821161233d576000612347565b6123478b836149f5565b61235190846149f5565b905061235d8582612dee565b612367908a6149c2565b98506123738c86612104565b9450506122e1565b898110158061238957508885145b1561243b57898111156123c05784935060006123a58b836149f5565b6123af90846149f5565b90506123bc8c8683612e45565b9650505b60008481526001808d016020526040822090810191909155545b8015612439578481111561242357600085815260018d016020526040902054811461241f5760008581526001808e016020526040808320849055838352909120018590555b8094505b600090815260018c0160205260409020546123da565b505b808a11156124505761244d818b6149f5565b96505b84831480156124705750600083815260018c016020526040902060050154155b1561247e5760008b556124b2565b8a5485118061249857508a54851480156124985750808a10155b156124b257838b55600084815260018c0160205260408120555b8a5460009081526001808d01602052604090912001541580156124e957508a54600090815260018c01602052604090206002015415155b15612541578a5460009081526001808d016020526040808320600201548352909120015415612533578a54600090815260018c016020526040902060020154612533908c906130e5565b6125418b8c600001546131ba565b8a54600090815260018c01602052604090206003015460ff161561257d578a54600090815260018c0160205260409020600301805460ff191690555b505050505093509350939050565b600080612596614617565b846125b35760405162461bcd60e51b8152600401611f5190614a73565b6000806125bf88612205565b905060006125cc89612089565b905060008088841015806125de575088155b6126255760405162461bcd60e51b8152602060048201526018602482015277496e73756666696369656e74206c696d69742076616c756560401b6044820152606401611f51565b898110801561263357508315155b801561264757508815806126475750888410155b156126bf57600084815260018c016020526040902060050154915061266c82826149c2565b905083945060008a821161268157600061268b565b61268b8b836149f5565b61269590846149f5565b90506126a18582612dee565b6126ab908a6149c2565b98506126b78c86612a3a565b945050612625565b89811015806126cd57508885145b1561277f57898111156127045784935060006126e98b836149f5565b6126f390846149f5565b90506127008c8683612e45565b9650505b600084815260018c01602052604081206002810191909155545b801561277d578481101561276757600085815260018d016020526040902054811461276357600085815260018d01602052604080822083905582825290206002018590555b8094505b600090815260018c01602052604090205461271e565b505b808a111561279457612791818b6149f5565b96505b84831480156127b45750600083815260018c016020526040902060050154155b156127c25760008b556127f6565b8a548510806127dc57508a54851480156127dc5750808a10155b156127f657838b55600084815260018c0160205260408120555b8a54600090815260018c01602052604090206002015415801561282d57508a5460009081526001808d016020526040909120015415155b15612541578a5460009081526001808d01602052604080832090910154825290206002015415612878578a5460009081526001808d0160205260409091200154612878908c906131ba565b6125418b8c600001546130e5565b6000612893848484612a1c565b6128af5760405162461bcd60e51b8152600401611f5190614ad0565b6128ba848484613292565b905061204584846134fe565b81546000906128d7906001906149f5565b905060005b818111612a1657828482815481106128f6576128f6614996565b90600052602060002090600591828204019190066006029054906101000a900465ffffffffffff1665ffffffffffff161415612a04578181146129bd57600084838154811061294757612947614996565b90600052602060002090600591828204019190066006029054906101000a900465ffffffffffff1690508085838154811061298457612984614996565b90600052602060002090600591828204019190066006026101000a81548165ffffffffffff021916908365ffffffffffff160217905550505b838054806129cd576129cd614b20565b60019003818190600052602060002090600591828204019190066006026101000a81549065ffffffffffff02191690559055612a16565b80612a0e816149da565b9150506128dc565b50505050565b6000612a298484846137bb565b801561208157506120818484613904565b600081612aaa5760405162461bcd60e51b815260206004820152603860248201527f4f7264657253746174697374696373547265652834303229202d205374617274604482015277696e672076616c75652063616e6e6f74206265207a65726f60401b6064820152608401611f51565b600082815260018085016020526040909120015415612ae25760008281526001808501602052604090912001546121ac9084906139bd565b5060008181526001830160205260409020545b8015801590612b165750600081815260018085016020526040909120015482145b156120e5576000818152600184016020526040902054909150612af5565b80612ba75760405162461bcd60e51b815260206004820152603960248201527f4f7264657253746174697374696373547265652834303529202d2056616c756560448201527f20746f20696e736572742063616e6e6f74206265207a65726f000000000000006064820152608401611f51565b81546000905b8015612c0b5780915080831015612bd7576000908152600180850160205260409091200154612bad565b80831115612bf8576000908152600184016020526040902060020154612bad565b80831415612c065750505050565b612bad565b6000838152600185016020526040902084541580612c5a575060008381526001808701602052604090912001548414801590612c5a575060008381526001860160205260409020600201548414155b15612c885760006004820181905560058201819055612c7c90869086906139f4565b612c8885856000613a2c565b82815560006001808301829055600283019190915560038201805460ff1916909117905582612cb957838555612cf3565b82841015612cdc5760008381526001808701602052604090912001849055612cf3565b600083815260018601602052604090206002018490555b612cfd8585613a6c565b5050505050565b6000848152600186016020526040812090612d228787878787613cd7565b9050612d468787838560030160019054906101000a900465ffffffffffff16613e76565b612d518787836139f4565b6003820154600160381b900465ffffffffffff16612d7457612d74878783613a2c565b50505050505050565b600084815260018601602052604090206003810154610100900465ffffffffffff16612db057611f778686868686612d04565b6000612dbf8787878787613cd7565b9050612de387878460030160079054906101000a900465ffffffffffff1684613e76565b612d74878783613a2c565b600082612dfd61271084614a0c565b6120459190614a2b565b60005b600082815260018085016020526040909120015415612e3f576000918252600180840160205260409092209091015490612e0a565b50919050565b612e4d614617565b600083815260018501602052604090206005810154831115612ed75760405162461bcd60e51b815260206004820152603960248201527f4f7264657253746174697374696373547265652834313029202d20416d6f756e60448201527f7420746f2066696c6c20697320696e73756666696369656e74000000000000006064820152608401611f51565b60038082015465ffffffffffff610100909104811660008181526006850160209081526040808320815160c08101835281548088168252600160301b8104881694820194909452600160601b9093049095169082015260018401546001600160a01b0316606082015260028401546080820152929093015460a0830152859291905b65ffffffffffff811615801590612f6f57508315155b156130745765ffffffffffff8082166000908152600687016020908152604091829020825160c08101845281548086168252600160301b8104861693820193909352600160601b9092049093169181019190915260018201546001600160a01b031660608201526002820154608082015260039091015460a0820181905290925084106130135760a082015161300590856149f5565b935081602001519050613062565b6040518060800160405280836000015165ffffffffffff16815260200183606001516001600160a01b03168152602001858460a0015161305391906149f5565b81526020018990529550600093505b8261306c816149da565b935050612f59565b61308389898460000151613eeb565b506040860151156130d957600088815260018a0160209081526040808320855165ffffffffffff16845260060190915280822090880151600382018054929391929091906130d29084906149f5565b9091555050505b50505050509392505050565b6000818152600180840160205260408083209182018054925483855291842060020154938590528390559091801561312b57600081815260018601602052604090208490555b600083815260018601602052604090208290558161314b57828555613198565b60008281526001860160205260409020600201548414156131815760008281526001860160205260409020600201839055613198565b600082815260018087016020526040909120018390555b5050600081815260019093016020526040808420600201839055918352912055565b60008181526001808401602052604080832060028101805491548286529285209093015493859052918390559091801561320257600081815260018601602052604090208490555b60008381526001860160205260409020829055816132225782855561326f565b6000828152600180870160205260409091200154841415613258576000828152600180870160205260409091200183905561326f565b600082815260018601602052604090206002018390555b505060008181526001938401602052604080822090940183905591825291902055565b600061329f848484612a1c565b6132bb5760405162461bcd60e51b8152600401611f5190614ad0565b50600082815260018085016020908152604080842065ffffffffffff80871680875260068301855295839020835160c08101855281548084168252600160301b8104841696820196909652600160601b909504821693850193909352938201546001600160a01b031660608401526002820154608084015260039182015460a0840181905291810154919490936101009092049091161480156133735750600382015465ffffffffffff858116600160381b90920416145b1561339557613384868660006139f4565b61339086866000613a2c565b613467565b600382015465ffffffffffff8581166101009092041614156133f3576133c0868683602001516139f4565b60208082015165ffffffffffff1660009081526006840190915260409020805465ffffffffffff60601b19169055613467565b600382015465ffffffffffff858116600160381b9092041614156134535761342086868360400151613a2c565b60408082015165ffffffffffff166000908152600684016020522080546bffffffffffff00000000000019169055613467565b613467868683604001518460200151613e76565b805165ffffffffffff1660009081526006830160205260408120805471ffffffffffffffffffffffffffffffffffff19168155600180820180546001600160a01b0319169055600282018390556003909101829055600484018054919290916134d19084906149f5565b909155505060a08101516005830180546000906134ef9084906149f5565b90915550929695505050505050565b806135715760405162461bcd60e51b815260206004820152603960248201527f4f7264657253746174697374696373547265652834303729202d2056616c756560448201527f20746f2064656c6574652063616e6e6f74206265207a65726f000000000000006064820152608401611f51565b6000818152600183016020526040812060048101549091908190612cfd57600084815260018087016020526040909120015415806135c057506000848152600186016020526040902060020154155b156135cc575082613614565b5060008381526001850160205260409020600201545b6000818152600180870160205260409091200154156136145760009081526001808601602052604090912001546135e2565b600081815260018087016020526040909120015415613648576000818152600180870160205260409091200154915061365f565b600081815260018601602052604090206002015491505b600081815260018601602052604080822054848352912081905580156136d05760008181526001808801602052604090912001548214156136b557600081815260018088016020526040909120018390556136d4565b600081815260018701602052604090206002018390556136d4565b8286555b600082815260018701602052604090206003015460ff161585831461375e576136fe8784886140d1565b60008681526001888101602052604080832080830154878552828520938401819055845281842087905560028082015490840181905584529083208690556003908101549286905201805460ff191660ff90921615159190911790559194915b801561376e5761376e8785614148565b50506000818152600180870160205260408220828155908101829055600281018290556003810180546cffffffffffffffffffffffffff1916905560048101829055600501555050505050565b600082815260018085016020908152604080842065ffffffffffff808716808752600683018552838720845160c0810186528154808516808352600160301b8204861698830198909852600160601b900490931694830194909452948301546001600160a01b031660608201526002830154608082015260039092015460a083015285939092146138525760009350505050612045565b5b604081015165ffffffffffff16156138e55760409081015165ffffffffffff808216600090815260068501602090815290849020845160c08101865281548085168252600160301b8104851693820193909352600160601b9092049092169381019390935260018101546001600160a01b03166060840152600281015460808401526003015460a08301529250613853565b5060030154610100900465ffffffffffff908116911614949350505050565b600081613913575060006120e5565b8254821415613924575060016120e5565b815b6000818152600185016020526040902054156139b35760008181526001808601602052604080832054808452922001548214801590613978575060008181526001860160205260409020600201548214155b15613988576000925050506120e5565b845481141561399c576001925050506120e5565b506000908152600184016020526040902054613926565b5060009392505050565b60005b600082815260018401602052604090206002015415612e3f57600091825260018301602052604090912060020154906139c0565b6000918252600190920160205260409020600301805465ffffffffffff9092166101000266ffffffffffff0019909216919091179055565b6000918252600190920160205260409020600301805465ffffffffffff909216600160381b026cffffffffffff0000000000000019909216919091179055565b60005b82548214801590613a995750600082815260018401602052604080822054825290206003015460ff165b15613cb5576000828152600180850160205260408083205480845281842054845292200154811415613bbc5760008181526001850160205260408082205482528082206002015480835291206003015490925060ff1615613b42576000818152600180860160205260408083206003808201805460ff19908116909155878652838620820180548216905582548652928520018054909216909217905590829052549250613caf565b6000818152600185016020526040902060020154831415613b6a57809250613b6a84846131ba565b50600082815260018085016020526040808320548084528184206003808201805460ff19908116909155825487529386200180549093169093179091559182905254613bb79085906130e5565b613caf565b6000818152600180860160205260408083205483528083209091015480835291206003015490925060ff1615613c3a576000818152600180860160205260408083206003808201805460ff19908116909155878652838620820180548216905582548652928520018054909216909217905590829052549250613caf565b6000818152600180860160205260409091200154831415613c6257809250613c6284846130e5565b50600082815260018085016020526040808320548084528184206003808201805460ff19908116909155825487529386200180549093169093179091559182905254613caf9085906131ba565b50613a6f565b505080546000908152600190910160205260409020600301805460ff19169055565b6000848152600186016020908152604080832065ffffffffffff871684526006810190925282206002015415613d6a5760405162461bcd60e51b815260206004820152603260248201527f4f7264657253746174697374696373547265652834303929202d204f726465726044820152711034b21030b63932b0b23c9032bc34b9ba1760711b6064820152608401611f51565b6001816004016000828254613d7f91906149c2565b9250508190555082816005016000828254613d9a91906149c2565b90915550506040805160c08101825265ffffffffffff808816808352600060208085018281528587018381526001600160a01b03808d16606089019081524260808a0190815260a08a018e81529787526006909b019094529790932095518654915193518616600160601b0265ffffffffffff60601b19948716600160301b026bffffffffffffffffffffffff199093169682169690961791909117929092169390931784559151600184018054919095166001600160a01b031990911617909355925160028201559051600390910155905095945050505050565b60009283526001939093016020908152604080842065ffffffffffff938416808652600690910190925280842080546bffffffffffff0000000000001916600160301b9490961693840295909517909455908252919020805465ffffffffffff60601b1916600160601b909202919091179055565b6000613ef8848484612a1c565b613f145760405162461bcd60e51b8152600401611f5190614ad0565b50600082815260018085016020908152604080842065ffffffffffff808716865260068201808552838720845160c08101865281548085168252600160301b8104851682890152600160601b9004841681870152818801546001600160a01b031660608201526002820154608082015260039182015460a08201819052828601546101009004909416808a529290965293909620909201549194909390915b8665ffffffffffff16831461401757600092835260068501602052604090922054600160301b900465ffffffffffff169181613fee816149da565b60008581526006880160205260409020600301549093506140109150826149c2565b9050613fb3565b600385015465ffffffffffff888116600160381b90920416141561405257614041898960006139f4565b61404d89896000613a2c565b614090565b614061898986602001516139f4565b60208085015165ffffffffffff1660009081526006870190915260409020805465ffffffffffff60601b191690555b818560040160008282546140a491906149f5565b92505081905550808560050160008282546140bf91906149f5565b90915550959998505050505050505050565b6000818152600184016020526040808220548483529120819055806140f857828455612a16565b600081815260018086016020526040909120015482141561412e5760008181526001808601602052604090912001839055612a16565b600090815260019390930160205250604090912060020155565b60005b825482148015906141705750600082815260018401602052604090206003015460ff16155b1561454357600082815260018085016020526040808320548084529220015483141561436c5760008181526001850160205260408082206002015480835291206003015490925060ff1615614214576000828152600180860160205260408083206003908101805460ff199081169091558585529190932090920180549092161790556141fd84826131ba565b600081815260018501602052604090206002015491505b60008281526001808601602052604080832090910154825290206003015460ff1615801561425f5750600082815260018501602052604080822060020154825290206003015460ff16155b1561428c57600082815260018581016020526040909120600301805460ff1916909117905591508161453d565b600082815260018501602052604080822060020154825290206003015460ff16614309576000828152600180860160205260408083208083015484529083206003908101805460ff19908116909155938690520180549092161790556142f284836130e5565b600081815260018501602052604090206002015491505b600081815260018501602052604080822060039081018054868552838520808401805460ff909316151560ff19938416179055825482169092556002909101548452919092209091018054909116905561436384826131ba565b8354925061453d565b6000818152600180860160205260408083209091015480835291206003015490925060ff16156143eb576000828152600180860160205260408083206003908101805460ff199081169091558585529190932090920180549092161790556143d484826130e5565b600081815260018086016020526040909120015491505b600082815260018501602052604080822060020154825290206003015460ff16158015614436575060008281526001808601602052604080832090910154825290206003015460ff16155b1561446357600082815260018581016020526040909120600301805460ff1916909117905591508161453d565b60008281526001808601602052604080832090910154825290206003015460ff166144e257600082815260018086016020526040808320600281015484529083206003908101805460ff19908116909155938690520180549092161790556144cb84836131ba565b600081815260018086016020526040909120015491505b60008181526001808601602052604080832060039081018054878652838620808401805460ff909316151560ff1993841617905582548216909255930154845292209091018054909116905561453884826130e5565b835492505b5061414b565b506000908152600190910160205260409020600301805460ff19169055565b828054828255906000526020600020906004016005900481019282156146075791602002820160005b838211156145d357835183826101000a81548165ffffffffffff021916908365ffffffffffff160217905550926020019260060160208160050104928301926001030261458b565b80156146055782816101000a81549065ffffffffffff02191690556006016020816005010492830192600103026145d3565b505b50614613929150614650565b5090565b6040518060800160405280600065ffffffffffff16815260200160006001600160a01b0316815260200160008152602001600081525090565b5b808211156146135760008155600101614651565b8035600281106120cb57600080fd5b80356001600160a01b03811681146120cb57600080fd5b600080600080600060a086880312156146a357600080fd5b6146ac86614665565b94506146ba60208701614674565b93506040860135925060608601359150608086013580151581146146dd57600080fd5b809150509295509295909350565b600080604083850312156146fe57600080fd5b61470783614674565b946020939093013593505050565b600081518084526020808501945080840160005b8381101561474d57815165ffffffffffff1687529582019590820190600101614729565b509495945050505050565b60808152600061476b6080830187614715565b6020830195909552506040810192909252606090910152919050565b60006020828403121561479957600080fd5b5035919050565b600081518084526020808501945080840160005b8381101561474d578151875295820195908201906001016147b4565b6060815260006147e360608301866147a0565b82810360208401526147f581866147a0565b9050828103604084015261480981856147a0565b9695505050505050565b60008060006060848603121561482857600080fd5b61483184614665565b95602085013595506040909401359392505050565b803565ffffffffffff811681146120cb57600080fd5b6000806040838503121561486f57600080fd5b61487883614674565b915061488660208401614846565b90509250929050565b634e487b7160e01b600052602160045260246000fd5b600281106148c357634e487b7160e01b600052602160045260246000fd5b9052565b606081016148d582866148a5565b602082019390935260400152919050565b6000602082840312156148f857600080fd5b61204582614846565b60c0810161490f82896148a5565b602082019690965260408101949094526001600160a01b03929092166060840152608083015260a090910152919050565b60006020828403121561495257600080fd5b61204582614674565b60408152600061496e6040830185614715565b82810360208401526105148185614715565b634e487b7160e01b600052604160045260246000fd5b634e487b7160e01b600052603260045260246000fd5b634e487b7160e01b600052601160045260246000fd5b600082198211156149d5576149d56149ac565b500190565b60006000198214156149ee576149ee6149ac565b5060010190565b600082821015614a0757614a076149ac565b500390565b6000816000190483118215151615614a2657614a266149ac565b500290565b600082614a4857634e487b7160e01b600052601260045260246000fd5b500490565b600065ffffffffffff80831681811415614a6957614a696149ac565b6001019392505050565b60208082526038908201527f4f7264657253746174697374696373547265652834303829202d20416d6f756e60408201527f7420746f2064726f702063616e6e6f74206265207a65726f0000000000000000606082015260800190565b60208082526030908201527f4f7264657253746174697374696373547265652834313029202d204f7264657260408201526f103237b2b9903737ba1032bc34b9ba1760811b606082015260800190565b634e487b7160e01b600052603160045260246000fdfea2646970667358221220c8ba49890e1764240f7ea669ac6e233ff1d7df6bb3828cb41dc3b6d3d7b4a19d64736f6c63430008090033",
  "devdoc": {
    "kind": "dev",
    "methods": {},
    "version": 1
  },
  "userdoc": {
    "kind": "user",
    "methods": {},
    "version": 1
  },
  "storageLayout": {
    "storage": [],
    "types": null
  }
}