{
  "address": "0x31f45BB44D3A183D690Bcf410f04eF4066E839EB",
  "abi": [
    {
      "inputs": [
        {
          "internalType": "uint8",
          "name": "_orderBookId",
          "type": "uint8"
        },
        {
          "internalType": "enum ProtocolTypes.Side",
          "name": "_side",
          "type": "ProtocolTypes.Side"
        },
        {
          "internalType": "uint256",
          "name": "_amount",
          "type": "uint256"
        },
        {
          "internalType": "uint256",
          "name": "_unitPrice",
          "type": "uint256"
        }
      ],
      "name": "calculateFilledAmount",
      "outputs": [
        {
          "internalType": "uint256",
          "name": "lastUnitPrice",
          "type": "uint256"
        },
        {
          "internalType": "uint256",
          "name": "filledAmount",
          "type": "uint256"
        },
        {
          "internalType": "uint256",
          "name": "filledAmountInFV",
          "type": "uint256"
        },
        {
          "internalType": "uint256",
          "name": "orderFeeInFV",
          "type": "uint256"
        },
        {
          "internalType": "uint256",
          "name": "placedAmount",
          "type": "uint256"
        }
      ],
      "stateMutability": "view",
      "type": "function"
    },
    {
      "inputs": [
        {
          "internalType": "uint256",
          "name": "_maturity",
          "type": "uint256"
        },
        {
          "internalType": "uint256",
          "name": "_amount",
          "type": "uint256"
        }
      ],
      "name": "calculateOrderFeeAmount",
      "outputs": [
        {
          "internalType": "uint256",
          "name": "orderFeeAmount",
          "type": "uint256"
        }
      ],
      "stateMutability": "view",
      "type": "function"
    },
    {
      "inputs": [
        {
          "internalType": "uint8",
          "name": "_orderBookId",
          "type": "uint8"
        },
        {
          "internalType": "address",
          "name": "_user",
          "type": "address"
        }
      ],
      "name": "getBorrowOrderIds",
      "outputs": [
        {
          "internalType": "uint48[]",
          "name": "activeOrderIds",
          "type": "uint48[]"
        },
        {
          "internalType": "uint48[]",
          "name": "inActiveOrderIds",
          "type": "uint48[]"
        }
      ],
      "stateMutability": "view",
      "type": "function"
    },
    {
      "inputs": [
        {
          "internalType": "uint8",
          "name": "_orderBookId",
          "type": "uint8"
        },
        {
          "internalType": "address",
          "name": "_user",
          "type": "address"
        }
      ],
      "name": "getLendOrderIds",
      "outputs": [
        {
          "internalType": "uint48[]",
          "name": "activeOrderIds",
          "type": "uint48[]"
        },
        {
          "internalType": "uint48[]",
          "name": "inActiveOrderIds",
          "type": "uint48[]"
        }
      ],
      "stateMutability": "view",
      "type": "function"
    },
    {
      "inputs": [
        {
          "internalType": "uint8",
          "name": "_orderBookId",
          "type": "uint8"
        },
        {
          "internalType": "uint48",
          "name": "_orderId",
          "type": "uint48"
        }
      ],
      "name": "getOrder",
      "outputs": [
        {
          "internalType": "enum ProtocolTypes.Side",
          "name": "side",
          "type": "ProtocolTypes.Side"
        },
        {
          "internalType": "uint256",
          "name": "unitPrice",
          "type": "uint256"
        },
        {
          "internalType": "uint256",
          "name": "maturity",
          "type": "uint256"
        },
        {
          "internalType": "address",
          "name": "maker",
          "type": "address"
        },
        {
          "internalType": "uint256",
          "name": "amount",
          "type": "uint256"
        },
        {
          "internalType": "uint256",
          "name": "timestamp",
          "type": "uint256"
        },
        {
          "internalType": "bool",
          "name": "isPreOrder",
          "type": "bool"
        }
      ],
      "stateMutability": "view",
      "type": "function"
    },
    {
      "inputs": [
        {
          "internalType": "uint8",
          "name": "_orderBookId",
          "type": "uint8"
        },
        {
          "internalType": "address",
          "name": "_user",
          "type": "address"
        }
      ],
      "name": "getTotalAmountFromBorrowOrders",
      "outputs": [
        {
          "internalType": "uint256",
          "name": "activeAmount",
          "type": "uint256"
        },
        {
          "internalType": "uint256",
          "name": "inactiveAmount",
          "type": "uint256"
        },
        {
          "internalType": "uint256",
          "name": "inactiveFutureValue",
          "type": "uint256"
        },
        {
          "internalType": "uint256",
          "name": "maturity",
          "type": "uint256"
        }
      ],
      "stateMutability": "view",
      "type": "function"
    },
    {
      "inputs": [
        {
          "internalType": "uint8",
          "name": "_orderBookId",
          "type": "uint8"
        },
        {
          "internalType": "address",
          "name": "_user",
          "type": "address"
        }
      ],
      "name": "getTotalAmountFromLendOrders",
      "outputs": [
        {
          "internalType": "uint256",
          "name": "activeAmount",
          "type": "uint256"
        },
        {
          "internalType": "uint256",
          "name": "inactiveAmount",
          "type": "uint256"
        },
        {
          "internalType": "uint256",
          "name": "inactiveFutureValue",
          "type": "uint256"
        },
        {
          "internalType": "uint256",
          "name": "maturity",
          "type": "uint256"
        }
      ],
      "stateMutability": "view",
      "type": "function"
    },
    {
      "inputs": [
        {
          "internalType": "uint8",
          "name": "_orderBookId",
          "type": "uint8"
        }
      ],
      "name": "isMatured",
      "outputs": [
        {
          "internalType": "bool",
          "name": "",
          "type": "bool"
        }
      ],
      "stateMutability": "view",
      "type": "function"
    }
  ],
  "transactionHash": "0x7b14464b68e3a73336219e6b8a39b3c14539171b6b66b1633b9ec89537b70e0c",
  "args": [],
  "numDeployments": 1,
  "solcInputHash": "a5c1665855134ffe273d2008ae5ac307",
  "bytecode": "0x611ed361003a600b82828239805160001a60731461002d57634e487b7160e01b600052600060045260246000fd5b30600052607381538281f3fe73000000000000000000000000000000000000000030146080604052600436106100a85760003560e01c806382bdfed51161007057806382bdfed51461017c578063c022097a1461019f578063c8707723146101c0578063de9f5fed146101d3578063ff5cce97146101f957600080fd5b806313a4451c146100ad5780633d0157ef146100e55780634a864e221461010d578063584795fb146101485780635fee0bba1461015b575b600080fd5b6100c06100bb366004611bba565b61020c565b6040805194855260208501939093529183015260608201526080015b60405180910390f35b6100f86100f3366004611c13565b61035f565b604080519283526020830191909152016100dc565b61012061011b366004611c3f565b610402565b604080519586526020860194909452928401919091526060830152608082015260a0016100dc565b6100c0610156366004611bba565b6104a8565b61016e610169366004611bba565b6105ea565b6040516100dc929190611cca565b61018f61018a366004611cf8565b61060b565b60405190151581526020016100dc565b6101b26101ad366004611d13565b610629565b6040519081526020016100dc565b6100f86101ce366004611c13565b6106d4565b6101e66101e1366004611d35565b610713565b6040516100dc9796959493929190611d75565b61016e610207366004611bba565b61081a565b600080600080600061021d87610830565b905060008061022c8389610863565b6001600160a01b038a166000908152600586016020526040812054965091935091505b82518110156102f857600061028e84838151811061026f5761026f611dd0565b602002602001015165ffffffffffff1686610b0090919063ffffffff16565b905060006102dc82602001518685815181106102ac576102ac611dd0565b60200260200101518860080160008a600201548152602001908152602001600020610b929092919063ffffffff16565b92505050808a6102ec9190611dfc565b9950505060010161024f565b5060005b81518110156103525760008061032b8685858151811061031e5761031e611dd0565b602002602001015161035f565b909250905061033a828a611dfc565b98506103468189611dfc565b975050506001016102fc565b5050505092959194509250565b600080806103758565ffffffffffff8616610b00565b602080820151604080840151600090815260088a019093528220929350909161039e9187610b92565b845160408087015160208089015165ffffffffffff8d16600090815260078f019092529281205494975095506103d99450919260ff16610c1d565b90508194506103f681612710846103f09190611e14565b90610cf2565b93505050509250929050565b6000806000806000806104148a610830565b90506000808061044d8c8b7ffc2836757f9146445fc75bc3c897a210ec004e4ee60fc8627ef5cbf2842b3d0a6003015487929190610d63565b505050925092509250821561049057610468848d8d85610f2c565b919a5098509650610479888c611e33565b9450610489846002015488610629565b9550610499565b80610499578a94505b50505050945094509450945094565b60008060008060006104b987610830565b90506000806104c88389610fb4565b6001600160a01b038a166000908152600586016020526040812054965091935091505b825181101561057557600061050b84838151811061026f5761026f611dd0565b90506000610559826020015186858151811061052957610529611dd0565b60200260200101518860090160008a600201548152602001908152602001600020610b929092919063ffffffff16565b92505050808a6105699190611dfc565b995050506001016104eb565b506001600160a01b038816600090815260058401602052604081205494505b8151811015610352576000806105c3868585815181106105b6576105b6611dd0565b60200260200101516106d4565b90925090506105d2828a611dfc565b98506105de8189611dfc565b97505050600101610594565b606080610600836105fa86610830565b90610863565b909590945092505050565b600061062361061983610830565b6002015442101590565b92915050565b60008242106106725760405162461bcd60e51b815260206004820152601060248201526f496e76616c6964206d6174757269747960801b60448201526064015b60405180910390fd5b600061067e4285611e33565b90506106cc6106936127106301e13380611e14565b7ffc2836757f9146445fc75bc3c897a210ec004e4ee60fc8627ef5cbf2842b3d0c5485906106c2908590611e14565b6103f09190611e14565b949350505050565b600080806106ea8565ffffffffffff8616610b00565b602080820151604080840151600090815260098a019093528220929350909161039e9187610b92565b6000806000806000806000806107288a610830565b9050600061073e8265ffffffffffff8c16610b00565b905060008151600181111561075557610755611d5f565b141561078d57602080820151604080840151600090815260088601909352909120610780918c610b92565b91975090955093506107bb565b6020808201516040808401516000908152600986019093529091206107b2918c610b92565b91975090955093505b6001600160a01b0386161561080c57805160408083015165ffffffffffff8d1660009081526007860160209081529290205491840151929b50985060ff169350610809908a90899086610c1d565b97505b505092959891949750929550565b6060806106008361082a86610830565b90610fb4565b60ff1660009081527ffc2836757f9146445fc75bc3c897a210ec004e4ee60fc8627ef5cbf2842b3d0e6020526040902090565b6001600160a01b03811660009081526005830160209081526040808320546002860154600387018452828520805484518187028101870190955280855260609687969095869594851415938693919290919083018282801561091457602002820191906000526020600020906000905b82829054906101000a900465ffffffffffff1665ffffffffffff16815260200190600601906020826005010492830192600103820291508084116108d35790505b505050505090506000815190508261092c578061092f565b60005b67ffffffffffffffff81111561094757610947611e4a565b604051908082528060200260200182016040528015610970578160200160208202803683370190505b5097508067ffffffffffffffff81111561098c5761098c611e4a565b6040519080825280602002602001820160405280156109b5578160200160208202803683370190505b50965060005b81811015610af25760008382815181106109d7576109d7611dd0565b602002602001015190506000610a098d60060160008465ffffffffffff16815260200190815260200160002054611242565b5050915050610a3781838f60080160008b81526020019081526020016000206112889092919063ffffffff16565b610a8e5760019790970196818a610a4e8b86611e33565b81518110610a5e57610a5e611dd0565b602002602001019065ffffffffffff16908165ffffffffffff168152505085610a895760018b51038b525b610add565b85610ad55760019890980197818b610aa68a86611e33565b81518110610ab657610ab6611dd0565b602002602001019065ffffffffffff16908165ffffffffffff16815250505b60018a51038a525b50508080610aea90611e60565b9150506109bb565b505050505050509250929050565b610b2c604080516080810190915280600081526020016000815260200160008152602001600081525090565b6000828152600684016020526040812054819081908190610b4c90611242565b93509350935093506040518060800160405280856001811115610b7157610b71611d5f565b81526020018481526020018381526020018281525094505050505092915050565b600091825260019283016020908152604080842065ffffffffffff9384168552600601825292839020835160c08101855281548085168252600160301b8104851693820193909352600160601b90920490921692810192909252918201546001600160a01b03166060820181905260028301546080830181905260039093015460a090920182905292565b600081610c2b5750816106cc565b60008481527ffc2836757f9146445fc75bc3c897a210ec004e4ee60fc8627ef5cbf2842b3d106020908152604091829020825160608101845281548082526001830154938201939093526002909101549281019290925215801590610cdb57506001866001811115610c9f57610c9f611d5f565b148015610cb0575080604001518411155b80610cdb57506000866001811115610cca57610cca611d5f565b148015610cdb575080602001518410155b15610ce8575190506106cc565b5091949350505050565b6000808211610d0057600080fd5b6005610d0c8385611e7b565b610d1790600a611e14565b83610d2386600a611e14565b610d2d9190611e7b565b610d379190611e33565b1015610d4e57610d478284611e7b565b9050610623565b610d588284611e7b565b610d47906001611dfc565b60008060008060008089600a01600043815260200190815260200160002060008a6001811115610d9557610d95611d5f565b6001811115610da657610da6611d5f565b815260208101919091526040016000908120549250808a6001811115610dce57610dce611d5f565b14905060008115610e265760028c0154600090815260098d0160205260409020610df7906112b0565b905080600014159450848015610e0b575083155b15610e2157610e1a89826112f7565b9350600192505b610e6e565b60028c0154600090815260088d0160205260409020610e44906113c3565b905080600014159450848015610e58575083155b15610e6e57610e678982611405565b9350600192505b89158015610e7a575084155b15610eb95760405162461bcd60e51b815260206004820152600f60248201526e13dc99195c881b9bdd08199bdd5b99608a1b6044820152606401610669565b891580610ee85750848015610ee85750818015610ed55750838a115b80610ee8575081158015610ee85750838a105b15610ef95783965060019550610f01565b899650600095505b8415610f1d5781610f155786811015610f1a565b868111155b97505b50509499939850945094509450565b6000808084610f4357506000915081905080610faa565b6000866001811115610f5757610f57611d5f565b1415610f8957600287015460009081526009880160205260408120610f7e918790876114b2565b925092509250610faa565b600287015460009081526008880160205260408120610f7e918790876114df565b9450945094915050565b6001600160a01b03811660009081526005830160209081526040808320546002860154600487018452828520805484518187028101870190955280855260609687969095869594851415938693919290919083018282801561106557602002820191906000526020600020906000905b82829054906101000a900465ffffffffffff1665ffffffffffff16815260200190600601906020826005010492830192600103820291508084116110245790505b505050505090506000815190508261107d5780611080565b60005b67ffffffffffffffff81111561109857611098611e4a565b6040519080825280602002602001820160405280156110c1578160200160208202803683370190505b5097508067ffffffffffffffff8111156110dd576110dd611e4a565b604051908082528060200260200182016040528015611106578160200160208202803683370190505b50965060005b81811015610af257600083828151811061112857611128611dd0565b60200260200101519050600061115a8d60060160008465ffffffffffff16815260200190815260200160002054611242565b505091505061118881838f60090160008b81526020019081526020016000206112889092919063ffffffff16565b6111df5760019790970196818a61119f8b86611e33565b815181106111af576111af611dd0565b602002602001019065ffffffffffff16908165ffffffffffff1681525050856111da5760018b51038b525b61122d565b6001890198508561122557818b6111f68a86611e33565b8151811061120657611206611dd0565b602002602001019065ffffffffffff16908165ffffffffffff16815250505b60018a51038a525b5050808061123a90611e60565b91505061110c565b6000806000808460ff16600181111561125d5761125d611d5f565b9561ffff600887901c169567ffffffffffffffff601882901c8116965060589190911c169350915050565b60006112958484846114f9565b80156112a657506112a68484611642565b90505b9392505050565b8054806112bf57506000919050565b5b6000818152600180840160205260409091200154156112f25760009081526001808301602052604090912001546112c0565b919050565b6000806127106113078185611e14565b6113119190611e14565b9050600061132185612710611e33565b61132d85612710611e33565b6113379190611e14565b61134361271086611e14565b61134d9190611dfc565b90506113598282610cf2565b925061136660c885611dfc565b83111561137f5761137860c885611dfc565b92506113bb565b61138a600a85611dfc565b8310156113bb5761271061139f600a86611dfc565b11156113ad576127106113b8565b6113b8600a85611dfc565b92505b505092915050565b8054806113d257506000919050565b5b6000818152600183016020526040902060020154156112f25760009081526001820160205260409020600201546113d3565b6000806127106114158185611e14565b61141f9190611e14565b9050600061142f85612710611dfc565b61143b85612710611e33565b6114459190611e14565b61145161271086611e14565b61145b9190611dfc565b90506114678282610cf2565b925061147460c884611dfc565b8411156114865761137860c885611e33565b611491600a84611dfc565b8410156113bb57600a84116114a75760016113b8565b6113b8600a85611e33565b60008060006114cc878787876114c78c6112b0565b6116fb565b50949c919b509950975050505050505050565b60008060006114cc878787876114f48c6113c3565b611826565b600082815260018085016020908152604080842065ffffffffffff808716808752600683018552838720845160c0810186528154808516808352600160301b8204861698830198909852600160601b900490931694830194909452948301546001600160a01b031660608201526002830154608082015260039092015460a0830152859390921461159057600093505050506112a9565b5b604081015165ffffffffffff16156116235760409081015165ffffffffffff808216600090815260068501602090815290849020845160c08101865281548085168252600160301b8104851693820193909352600160601b9092049092169381019390935260018101546001600160a01b03166060840152600281015460808401526003015460a08301529250611591565b5060030154610100900465ffffffffffff908116911614949350505050565b60008161165157506000610623565b825482141561166257506001610623565b815b6000818152600185016020526040902054156116f157600081815260018086016020526040808320548084529220015482148015906116b6575060008181526001860160205260409020600201548214155b156116c657600092505050610623565b84548114156116da57600192505050610623565b506000908152600184016020526040902054611664565b5060009392505050565b60008181808080805b8a84108061171057508a155b8015611723575089831080611723575089155b801561172e57508515155b801561174257508886111580611742575088155b156117f157600086815260018d0160205260409020600501549596508695945061176c868661191c565b6117769084611dfc565b92506117828585611dfc565b93508a8411801561179257508a15155b156117b4576117a18b85611e33565b91506117ad868361191c565b90506117e0565b89831180156117c257508915155b156117e0576117d18a84611e33565b90506117dd868261192e565b91505b6117ea8c87611940565b9550611704565b8115611804576118018285611e33565b93505b8015611817576118148184611e33565b92505b959b949a509550955095509550565b60008181808080805b8a84108061183b57508a155b801561184e57508983108061184e575089155b801561185957508515155b801561186d5750888610158061186d575088155b156117f157600086815260018d01602052604090206005015495965086959450611897868661191c565b6118a19084611dfc565b92506118ad8585611dfc565b93508a841180156118bd57508a15155b156118df576118cc8b85611e33565b91506118d8868361191c565b905061190b565b89831180156118ed57508915155b1561190b576118fc8a84611e33565b9050611908868261192e565b91505b6119158c87611a3a565b955061182f565b60006112a9836103f061271085611e14565b60006112a96127106103f08585611e14565b6000816119b05760405162461bcd60e51b815260206004820152603860248201527f4f7264657253746174697374696373547265652834303129202d205374617274604482015277696e672076616c75652063616e6e6f74206265207a65726f60401b6064820152608401610669565b6000828152600184016020526040902060020154156119e8576000828152600184016020526040902060020154610d47908490611b34565b5060008181526001830160205260409020545b8015801590611a1c5750600081815260018401602052604090206002015482145b156106235760008181526001840160205260409020549091506119fb565b600081611aaa5760405162461bcd60e51b815260206004820152603860248201527f4f7264657253746174697374696373547265652834303229202d205374617274604482015277696e672076616c75652063616e6e6f74206265207a65726f60401b6064820152608401610669565b600082815260018085016020526040909120015415611ae2576000828152600180850160205260409091200154610d47908490611b72565b5060008181526001830160205260409020545b8015801590611b165750600081815260018085016020526040909120015482145b15610623576000818152600184016020526040902054909150611af5565b60005b600082815260018085016020526040909120015415611b6c576000918252600180840160205260409092209091015490611b37565b50919050565b60005b600082815260018401602052604090206002015415611b6c5760009182526001830160205260409091206002015490611b75565b803560ff811681146112f257600080fd5b60008060408385031215611bcd57600080fd5b611bd683611ba9565b915060208301356001600160a01b0381168114611bf257600080fd5b809150509250929050565b803565ffffffffffff811681146112f257600080fd5b60008060408385031215611c2657600080fd5b82359150611c3660208401611bfd565b90509250929050565b60008060008060808587031215611c5557600080fd5b611c5e85611ba9565b9350602085013560028110611c7257600080fd5b93969395505050506040820135916060013590565b600081518084526020808501945080840160005b83811015611cbf57815165ffffffffffff1687529582019590820190600101611c9b565b509495945050505050565b604081526000611cdd6040830185611c87565b8281036020840152611cef8185611c87565b95945050505050565b600060208284031215611d0a57600080fd5b6112a982611ba9565b60008060408385031215611d2657600080fd5b50508035926020909101359150565b60008060408385031215611d4857600080fd5b611d5183611ba9565b9150611c3660208401611bfd565b634e487b7160e01b600052602160045260246000fd5b60e0810160028910611d9757634e487b7160e01b600052602160045260246000fd5b978152602081019690965260408601949094526001600160a01b03929092166060850152608084015260a0830152151560c09091015290565b634e487b7160e01b600052603260045260246000fd5b634e487b7160e01b600052601160045260246000fd5b60008219821115611e0f57611e0f611de6565b500190565b6000816000190483118215151615611e2e57611e2e611de6565b500290565b600082821015611e4557611e45611de6565b500390565b634e487b7160e01b600052604160045260246000fd5b6000600019821415611e7457611e74611de6565b5060010190565b600082611e9857634e487b7160e01b600052601260045260246000fd5b50049056fea264697066735822122031b16a7ac4bc8ba57bba9a9686db09048d02adde83332b736c55937ae255f96e64736f6c63430008090033",
  "devdoc": {
    "kind": "dev",
    "methods": {},
    "version": 1
  },
  "userdoc": {
    "kind": "user",
    "methods": {},
    "version": 1
  },
  "storageLayout": {
    "storage": [],
    "types": null
  }
}