{
  "address": "0x10643Cae03f137BE2b74c9582f1667e3FfB5A11C",
  "abi": [
    {
      "inputs": [],
      "name": "InvalidCircuitBreakerLimitRange",
      "type": "error"
    },
    {
      "inputs": [],
      "name": "InvalidOrderFeeRate",
      "type": "error"
    },
    {
      "inputs": [],
      "name": "OrderBookNotMatured",
      "type": "error"
    },
    {
      "anonymous": false,
      "inputs": [
        {
          "indexed": false,
          "internalType": "bytes32",
          "name": "ccy",
          "type": "bytes32"
        },
        {
          "indexed": false,
          "internalType": "uint256",
          "name": "previousRate",
          "type": "uint256"
        },
        {
          "indexed": false,
          "internalType": "uint256",
          "name": "rate",
          "type": "uint256"
        }
      ],
      "name": "CircuitBreakerLimitRangeUpdated",
      "type": "event"
    },
    {
      "anonymous": false,
      "inputs": [
        {
          "indexed": false,
          "internalType": "bytes32",
          "name": "ccy",
          "type": "bytes32"
        },
        {
          "indexed": false,
          "internalType": "uint256",
          "name": "maturity",
          "type": "uint256"
        },
        {
          "indexed": false,
          "internalType": "uint256",
          "name": "openingUnitPrice",
          "type": "uint256"
        },
        {
          "indexed": false,
          "internalType": "uint256",
          "name": "lastLendUnitPrice",
          "type": "uint256"
        },
        {
          "indexed": false,
          "internalType": "uint256",
          "name": "lastBorrowUnitPrice",
          "type": "uint256"
        },
        {
          "indexed": false,
          "internalType": "uint256",
          "name": "offsetAmount",
          "type": "uint256"
        }
      ],
      "name": "ItayoseExecuted",
      "type": "event"
    },
    {
      "anonymous": false,
      "inputs": [
        {
          "indexed": false,
          "internalType": "uint8",
          "name": "orderBookId",
          "type": "uint8"
        },
        {
          "indexed": false,
          "internalType": "uint256",
          "name": "maturity",
          "type": "uint256"
        },
        {
          "indexed": false,
          "internalType": "uint256",
          "name": "openingDate",
          "type": "uint256"
        }
      ],
      "name": "OrderBookCreated",
      "type": "event"
    },
    {
      "anonymous": false,
      "inputs": [
        {
          "indexed": false,
          "internalType": "bytes32",
          "name": "ccy",
          "type": "bytes32"
        },
        {
          "indexed": false,
          "internalType": "uint256",
          "name": "previousRate",
          "type": "uint256"
        },
        {
          "indexed": false,
          "internalType": "uint256",
          "name": "rate",
          "type": "uint256"
        }
      ],
      "name": "OrderFeeRateUpdated",
      "type": "event"
    },
    {
      "inputs": [
        {
          "internalType": "uint8",
          "name": "_orderBookId",
          "type": "uint8"
        }
      ],
      "name": "getBestBorrowUnitPrice",
      "outputs": [
        {
          "internalType": "uint256",
          "name": "",
          "type": "uint256"
        }
      ],
      "stateMutability": "view",
      "type": "function"
    },
    {
      "inputs": [
        {
          "internalType": "uint8[]",
          "name": "_orderBookIds",
          "type": "uint8[]"
        }
      ],
      "name": "getBestBorrowUnitPrices",
      "outputs": [
        {
          "internalType": "uint256[]",
          "name": "unitPrices",
          "type": "uint256[]"
        }
      ],
      "stateMutability": "view",
      "type": "function"
    },
    {
      "inputs": [
        {
          "internalType": "uint8",
          "name": "_orderBookId",
          "type": "uint8"
        }
      ],
      "name": "getBestLendUnitPrice",
      "outputs": [
        {
          "internalType": "uint256",
          "name": "",
          "type": "uint256"
        }
      ],
      "stateMutability": "view",
      "type": "function"
    },
    {
      "inputs": [
        {
          "internalType": "uint8[]",
          "name": "_orderBookIds",
          "type": "uint8[]"
        }
      ],
      "name": "getBestLendUnitPrices",
      "outputs": [
        {
          "internalType": "uint256[]",
          "name": "unitPrices",
          "type": "uint256[]"
        }
      ],
      "stateMutability": "view",
      "type": "function"
    },
    {
      "inputs": [
        {
          "internalType": "uint8",
          "name": "_orderBookId",
          "type": "uint8"
        },
        {
          "internalType": "uint256",
          "name": "_count",
          "type": "uint256"
        }
      ],
      "name": "getBlockUnitPriceAverage",
      "outputs": [
        {
          "internalType": "uint256",
          "name": "",
          "type": "uint256"
        }
      ],
      "stateMutability": "view",
      "type": "function"
    },
    {
      "inputs": [
        {
          "internalType": "uint8",
          "name": "_orderBookId",
          "type": "uint8"
        }
      ],
      "name": "getBlockUnitPriceHistory",
      "outputs": [
        {
          "internalType": "uint256[]",
          "name": "unitPrices",
          "type": "uint256[]"
        },
        {
          "internalType": "uint48",
          "name": "timestamp",
          "type": "uint48"
        }
      ],
      "stateMutability": "view",
      "type": "function"
    },
    {
      "inputs": [
        {
          "internalType": "uint8",
          "name": "_orderBookId",
          "type": "uint8"
        },
        {
          "internalType": "uint256",
          "name": "_start",
          "type": "uint256"
        },
        {
          "internalType": "uint256",
          "name": "_limit",
          "type": "uint256"
        }
      ],
      "name": "getBorrowOrderBook",
      "outputs": [
        {
          "internalType": "uint256[]",
          "name": "unitPrices",
          "type": "uint256[]"
        },
        {
          "internalType": "uint256[]",
          "name": "amounts",
          "type": "uint256[]"
        },
        {
          "internalType": "uint256[]",
          "name": "quantities",
          "type": "uint256[]"
        },
        {
          "internalType": "uint256",
          "name": "next",
          "type": "uint256"
        }
      ],
      "stateMutability": "view",
      "type": "function"
    },
    {
      "inputs": [
        {
          "internalType": "uint8",
          "name": "_orderBookId",
          "type": "uint8"
        }
      ],
      "name": "getCircuitBreakerThresholds",
      "outputs": [
        {
          "internalType": "uint256",
          "name": "maxLendUnitPrice",
          "type": "uint256"
        },
        {
          "internalType": "uint256",
          "name": "minBorrowUnitPrice",
          "type": "uint256"
        }
      ],
      "stateMutability": "view",
      "type": "function"
    },
    {
      "inputs": [
        {
          "internalType": "uint8",
          "name": "_orderBookId",
          "type": "uint8"
        }
      ],
      "name": "getItayoseEstimation",
      "outputs": [
        {
          "internalType": "uint256",
          "name": "openingUnitPrice",
          "type": "uint256"
        },
        {
          "internalType": "uint256",
          "name": "lastLendUnitPrice",
          "type": "uint256"
        },
        {
          "internalType": "uint256",
          "name": "lastBorrowUnitPrice",
          "type": "uint256"
        },
        {
          "internalType": "uint256",
          "name": "totalOffsetAmount",
          "type": "uint256"
        }
      ],
      "stateMutability": "view",
      "type": "function"
    },
    {
      "inputs": [
        {
          "internalType": "uint8",
          "name": "_orderBookId",
          "type": "uint8"
        }
      ],
      "name": "getLastOrderTimestamp",
      "outputs": [
        {
          "internalType": "uint48",
          "name": "",
          "type": "uint48"
        }
      ],
      "stateMutability": "view",
      "type": "function"
    },
    {
      "inputs": [
        {
          "internalType": "uint8",
          "name": "_orderBookId",
          "type": "uint8"
        },
        {
          "internalType": "uint256",
          "name": "_start",
          "type": "uint256"
        },
        {
          "internalType": "uint256",
          "name": "_limit",
          "type": "uint256"
        }
      ],
      "name": "getLendOrderBook",
      "outputs": [
        {
          "internalType": "uint256[]",
          "name": "unitPrices",
          "type": "uint256[]"
        },
        {
          "internalType": "uint256[]",
          "name": "amounts",
          "type": "uint256[]"
        },
        {
          "internalType": "uint256[]",
          "name": "quantities",
          "type": "uint256[]"
        },
        {
          "internalType": "uint256",
          "name": "next",
          "type": "uint256"
        }
      ],
      "stateMutability": "view",
      "type": "function"
    },
    {
      "inputs": [
        {
          "internalType": "uint8",
          "name": "_orderBookId",
          "type": "uint8"
        }
      ],
      "name": "getMarketUnitPrice",
      "outputs": [
        {
          "internalType": "uint256",
          "name": "",
          "type": "uint256"
        }
      ],
      "stateMutability": "view",
      "type": "function"
    },
    {
      "inputs": [
        {
          "internalType": "uint8[]",
          "name": "_orderBookIds",
          "type": "uint8[]"
        }
      ],
      "name": "getMaturities",
      "outputs": [
        {
          "internalType": "uint256[]",
          "name": "maturities",
          "type": "uint256[]"
        }
      ],
      "stateMutability": "view",
      "type": "function"
    },
    {
      "inputs": [
        {
          "internalType": "uint8",
          "name": "_orderBookId",
          "type": "uint8"
        }
      ],
      "name": "getOrderBookDetail",
      "outputs": [
        {
          "internalType": "bytes32",
          "name": "ccy",
          "type": "bytes32"
        },
        {
          "internalType": "uint256",
          "name": "maturity",
          "type": "uint256"
        },
        {
          "internalType": "uint256",
          "name": "openingDate",
          "type": "uint256"
        },
        {
          "internalType": "uint256",
          "name": "preOpeningDate",
          "type": "uint256"
        }
      ],
      "stateMutability": "view",
      "type": "function"
    },
    {
      "inputs": [
        {
          "internalType": "uint8",
          "name": "_orderBookId",
          "type": "uint8"
        }
      ],
      "name": "isItayosePeriod",
      "outputs": [
        {
          "internalType": "bool",
          "name": "",
          "type": "bool"
        }
      ],
      "stateMutability": "view",
      "type": "function"
    },
    {
      "inputs": [
        {
          "internalType": "uint8",
          "name": "_orderBookId",
          "type": "uint8"
        }
      ],
      "name": "isMatured",
      "outputs": [
        {
          "internalType": "bool",
          "name": "",
          "type": "bool"
        }
      ],
      "stateMutability": "view",
      "type": "function"
    },
    {
      "inputs": [
        {
          "internalType": "uint8",
          "name": "_orderBookId",
          "type": "uint8"
        }
      ],
      "name": "isOpened",
      "outputs": [
        {
          "internalType": "bool",
          "name": "",
          "type": "bool"
        }
      ],
      "stateMutability": "view",
      "type": "function"
    },
    {
      "inputs": [
        {
          "internalType": "uint8",
          "name": "_orderBookId",
          "type": "uint8"
        }
      ],
      "name": "isPreOrderPeriod",
      "outputs": [
        {
          "internalType": "bool",
          "name": "",
          "type": "bool"
        }
      ],
      "stateMutability": "view",
      "type": "function"
    },
    {
      "inputs": [
        {
          "internalType": "uint8",
          "name": "_orderBookId",
          "type": "uint8"
        }
      ],
      "name": "isReady",
      "outputs": [
        {
          "internalType": "bool",
          "name": "",
          "type": "bool"
        }
      ],
      "stateMutability": "view",
      "type": "function"
    }
  ],
  "transactionHash": "0x41cfa9e7f1dfa3b4b0872bda4e2d8a2ff1a66766d52a0d90019fcb0a0a92aff5",
  "args": [],
  "numDeployments": 1,
  "solcInputHash": "ff616d87686c17fd85cdb91a0fbca87a",
  "bytecode": "0x61374c61003a600b82828239805160001a60731461002d57634e487b7160e01b600052600060045260246000fd5b30600052607381538281f3fe73000000000000000000000000000000000000000030146080604052600436106101625760003560e01c80636a5138d6116100cd578063a3b88aa011610086578063a3b88aa0146103aa578063ba1cbe98146103bd578063cd458662146103d0578063dded339b146103e3578063fbb759b4146103f6578063fffa87b81461042057600080fd5b80636a5138d6146102ee5780636aa65aaf146103015780636c5d6df11461032157806380d5b6091461034157806382bdfed51461037457806389efbab11461038757600080fd5b80633a9a3ecc1161011f5780633a9a3ecc1461023957806350e187011461025b5780635575c7961461028357806357673717146102b557806358e64897146102c85780635f7f8b45146102db57600080fd5b80631f98a42014610167578063261cc1b21461019157806329d6dd13146101c25780632bfa7c13146101e5578063381e93441461020657806338b0585214610219575b600080fd5b61017a6101753660046132a0565b610433565b6040516101889291906132f6565b60405180910390f35b81801561019d57600080fd5b506101b16101ac3660046132a0565b610454565b604051610188959493929190613320565b6101d56101d03660046132a0565b61068a565b6040519015158152602001610188565b6101f86101f33660046132a0565b6106bd565b604051908152602001610188565b6101d56102143660046132a0565b6106d9565b61022c6102273660046133cb565b61070f565b6040516101889190613484565b81801561024557600080fd5b50610259610254366004613497565b6107be565b005b61026e6102693660046132a0565b610892565b60408051928352602083019190915201610188565b81801561028f57600080fd5b506102a361029e3660046134e4565b6108e0565b60405160ff9091168152602001610188565b61022c6102c33660046133cb565b610978565b6101f86102d63660046132a0565b610a18565b6101f86102e93660046132a0565b610a26565b6101d56102fc3660046132a0565b610a39565b81801561030d57600080fd5b5061025961031c366004613510565b610a73565b81801561032d57600080fd5b5061025961033c366004613510565b610b06565b61035461034f3660046132a0565b610b75565b604080519485526020850193909352918301526060820152608001610188565b6101d56103823660046132a0565b610bad565b61039a610395366004613529565b610bc2565b604051610188949392919061355c565b6101f86103b83660046135a7565b610bef565b61039a6103cb366004613529565b610c0e565b61022c6103de3660046133cb565b610c2a565b6103546103f13660046132a0565b610cc5565b6104096104043660046132a0565b610cec565b60405165ffffffffffff9091168152602001610188565b6101d561042e3660046132a0565b610d10565b6060600061044b600161044585610d48565b90610d6d565b91509150915091565b6000806000610461613256565b610469613256565b600080600061047789610d48565b905061048281610ed7565b929a509198509350915086156105ee57604080518082019091526000808252600160208301525b600281101561058b5760006104bc613256565b6104e76040518060800160405280600081526020016000815260200160008152602001600081525090565b61050c8585600281106104fc576104fc6135e7565b602002015187908e6000806110f4565b505060408201519093509091501561052857610528868e61123f565b606082015115610575576000858560028110610546576105466135e7565b6020020151600181111561055c5761055c6135d1565b0361056d5760019250819850610575565b600092508199505b505050808061058390613613565b9150506104a9565b507fa9952c3d01896ca75bba3aede761be10089d8d4725c9fee6b99245515986ef606105b56112ab565b54835460408051928352602083019190915281018b9052606081018690526080810185905260a081018a905260c00160405180910390a1505b60016105f86112ab565b825460009081526005919091016020908152604091829020805460ff19169315159390931790925580516060810182528a8152918201859052810183905261063e6112ab565b6006016000836000015481526020019081526020016000206000820151816000015560208201518160010155604082015181600201559050508060010154955050505091939590929450565b60006106946112ab565b60050160006106a284610d48565b54815260208101919091526040016000205460ff1692915050565b60006106d360016106cd84610d48565b906112d9565b92915050565b6000610e106106e783610d48565b600101546106f5919061362c565b42101580156106d357506107088261068a565b1592915050565b6060815167ffffffffffffffff81111561072b5761072b6133b5565b604051908082528060200260200182016040528015610754578160200160208202803683370190505b50905060005b82518110156107b857610785838281518110610778576107786135e7565b6020026020010151610d48565b6000015482828151811061079b5761079b6135e7565b6020908102919091010152806107b081613613565b91505061075a565b50919050565b60006107c86112ab565b60ff871660009081526004919091016020526040902090506107eb815442101590565b61080857604051632e98f16560e11b815260040160405180910390fd5b610823848461081a62093a808261362c565b8492919061137f565b61082b6112ab565b600086815260059190910160205260408120805460ff1916921515929092179091556108556112ab565b60ff871660009081526004919091016020526040812091506108789082906112d9565b60000361088957610889818461123f565b50505050505050565b6000806108b66108a06112ab565b6003015460016108af86610d48565b91906113d6565b91506108d96108c36112ab565b6003015460016108d286610d48565b9190611457565b9050915091565b60006108ea6114bc565b90506109038484846108fb85610d48565b92919061137f565b61090b6112ab565b60008681526005919091016020908152604091829020805460ff191693151593909317909255805160ff8416815291820186905281018490527f04ec0e7cdb609ffd421993d30756b50a4c420e88ce7f59bb3e29b5a8fe1fcf4a9060600160405180910390a19392505050565b6060815167ffffffffffffffff811115610994576109946133b5565b6040519080825280602002602001820160405280156109bd578160200160208202803683370190505b50905060005b82518110156107b8576109e96109e4848381518110610778576107786135e7565b611507565b8282815181106109fb576109fb6135e7565b602090810291909101015280610a1081613613565b9150506109c3565b60006106d36109e483610d48565b60006106d3610a3483610d48565b611522565b6000610a448261068a565b8015610a565750610a5482610bad565b155b80156106d35750610a6682610d48565b6001015442101592915050565b6127108110610a9557604051636d3872b560e11b815260040160405180910390fd5b6000610a9f6112ab565b600201549050808214610b025781610ab56112ab565b600201557fad24e9bff76148b1b779fc330ea225198d2b44136c7a8e5fbec46c99c7775632610ae26112ab565b546040805191825260208201849052810184905260600160405180910390a15b5050565b6127108110610b2857604051631ce2ca3b60e31b815260040160405180910390fd5b6000610b326112ab565b600301549050808214610b025781610b486112ab565b600301557fee52d515b96986517a19b501c0a50b03f4edace46ba0484faaea7590969adcf6610ae26112ab565b6000806000806000610b8686610d48565b9050610b906112ab565b548154600183015460029093015491989097509195509350915050565b60006106d3610bbb83610d48565b5442101590565b60608060606000610bde8686610bd78a610d48565b9190611557565b935093509350935093509350935093565b6000610c07826001610c0086610d48565b9190611870565b9392505050565b60608060606000610bde8686610c238a610d48565b91906119ac565b6060815167ffffffffffffffff811115610c4657610c466133b5565b604051908082528060200260200182016040528015610c6f578160200160208202803683370190505b50905060005b82518110156107b857610c96610a34848381518110610778576107786135e7565b828281518110610ca857610ca86135e7565b602090810291909101015280610cbd81613613565b915050610c75565b600080600080610cdc610cd786610d48565b610ed7565b93509350935093505b9193509193565b6000610cf782610d48565b60030154600160301b900465ffffffffffff1692915050565b600080610d1c83610d48565b905080600201544210158015610c075750610e108160010154610d3f919061362c565b42109392505050565b6000610d526112ab565b60ff9092166000908152600492909201602052506040902090565b60606000610d9184600301600d9054906101000a90046001600160501b0316611cb8565b600385015490925065ffffffffffff600160301b9091041642141580610dd1575081600081518110610dc557610dc56135e7565b60200260200101516000145b80610dd95750825b8015610df057506003840154600160601b900460ff165b15610eba57600060018351610e05919061362c565b90505b8015610e615782610e1a60018361362c565b81518110610e2a57610e2a6135e7565b6020026020010151838281518110610e4457610e446135e7565b602090810291909101015280610e598161363f565b915050610e08565b50610e8284600501546127108660040154610e7c9190613656565b90611dc8565b82600081518110610e9557610e956135e7565b6020908102919091010152506003830154600160301b900465ffffffffffff16610ed0565b506003830154600160b81b900465ffffffffffff165b9250929050565b80546000908152600b8201602052604081208190819081908190610efa90611e39565b86546000908152600c88016020526040812091925090610f1990611e80565b87546000908152600b8901602090815260408083208684526001019091528120600501549192509088546000908152600c8a01602090815260408083208684526001019091528120600501549192509089546000908152600c8b0160209081526040808320600b8e019092529091209192509085851180610f98575084155b80610fa1575085155b15610fbf576000806000809950995099509950505050505050610ce5565b858511158015610fcf5750600085115b8015610fdb5750600086115b156110e75785985084975082841115611034578599508287610ffd919061366d565b9650611009838561362c565b93506110158286611ec2565b60008181526001840160205260409020600501549095505b9250610fbf565b8284101561108157849950838761104b919061366d565b9650611057848461362c565b92506110638187611f74565b60008181526001830160205260409020600501549096509350610fbf565b6110906002610e7c878961366d565b995061109c848861366d565b96506110a88187611f74565b95506110b48286611ec2565b6000878152600183016020526040902060050154909550600086815260018401602052604090206005015490945061102d565b5050505050509193509193565b61111f6040518060800160405280600081526020016000815260200160008152602001600081525090565b611127613256565b600080611132613256565b6001896001811115611146576111466135d1565b036111925789546000908152600b8b0160205260409020611169818a8a8a61201d565b60408b019290925291895260208901929092529450915061118a8154151590565b9250506111ee565b60008960018111156111a6576111a66135d1565b036111ee5789546000908152600c8b01602052604090206111c9818a8a8a612267565b60408b01929092529189526020890192909252945091506111ea8154151590565b9250505b6040518060800160405280826000015165ffffffffffff16815260200182602001516001600160a01b0316815260200182604001518152602001826060015181525093505095509550955095915050565b60039190910180546fffffffffffffffffffffffffffffffff60681b191661ffff909216600160681b0265ffffffffffff60b81b191691909117600160b81b4265ffffffffffff16908102919091176bffffffffffff0000000000001916600160301b91909102179055565b6000806106d360017ffc2836757f9146445fc75bc3c897a210ec004e4ee60fc8627ef5cbf2842b3d0a61362c565b60038201546000906112fa90600160681b90046001600160501b0316611cb8565b60008151811061130c5761130c6135e7565b60200260200101519050428360030160069054906101000a900465ffffffffffff1665ffffffffffff16141580611341575080155b806113495750815b801561136057506003830154600160601b900460ff165b156106d357610c0783600501546127108560040154610e7c9190613656565b8284556001840182905560028401819055600060048501819055600585018190556003850180546601000000000000600160e81b03191690556113c4610e108461362c565b42106113ce575060015b949350505050565b6000806113e585600385611870565b905061140e6127106113f8866002613656565b6114049061271061366d565b610e7c9084613656565b915061271082118061141e575080155b1561142d57612710915061144f565b6114396102bc8261366d565b82101561144f5761144c6102bc8261366d565b91505b509392505050565b60008061146685600585611870565b9050611478612710611404868261362c565b9150811580611485575080155b80611491575060c88111155b1561149f576001915061144f565b6114aa60c88361366d565b81101561144f5761144c60c88261362c565b60006114c66112ab565b600101805460ff169060006114da83613680565b91906101000a81548160ff021916908360ff160217905550506114fb6112ab565b6001015460ff16919050565b80546000908152600b8201602052604081206106d390611e39565b80546000908152600c820160205260408120819061153f90611e80565b9050801561154d5780610c07565b6127109392505050565b606080606060008467ffffffffffffffff811115611577576115776133b5565b6040519080825280602002602001820160405280156115a0578160200160208202803683370190505b5093508467ffffffffffffffff8111156115bc576115bc6133b5565b6040519080825280602002602001820160405280156115e5578160200160208202803683370190505b5092508467ffffffffffffffff811115611601576116016133b5565b60405190808252806020026020018201604052801561162a578160200160208202803683370190505b5091506000866000036116595787546000908152600c89016020526040902061165290611e80565b90506116bb565b87546000908152600c8901602052604081208190611677908a6124b5565b915091508115611689578892506116b8565b88811115611699578092506116b8565b89546000908152600c8b01602052604090206116b59082611ec2565b92505b50505b80856000815181106116cf576116cf6135e7565b60209081029190910181019190915288546000908152600c8a0182526040808220848352600101909252206005015484600081518110611711576117116135e7565b60209081029190910181019190915288546000908152600c8a0182526040808220848352600101909252206004015483600081518110611753576117536135e7565b602090810291909101015260015b85518110156118405781156118405788546000908152600c8a016020526040902061178c9083611ec2565b9150818682815181106117a1576117a16135e7565b60209081029190910181019190915289546000908152600c8b018252604080822085835260010190925220600501548582815181106117e2576117e26135e7565b60209081029190910181019190915289546000908152600c8b01825260408082208583526001019092522060040154848281518110611823576118236135e7565b60209081029190910101528061183881613613565b915050611761565b5080156118665787546000908152600c8901602052604090206118639082611ec2565b91505b5093509350935093565b60008061189385600301600d9054906101000a90046001600160501b0316611cb8565b8051600387015491925090600090819065ffffffffffff600160301b90910416421415806118be5750855b80156118d557506003880154600160601b900460ff165b15611908576118f488600501546127108a60040154610e7c9190613656565b915060019050866119048161363f565b9750505b60005b8781101561198657838110158061193b575084818151811061192f5761192f6135e7565b60200260200101516000145b61198657848181518110611951576119516135e7565b602002602001015183611964919061366d565b92508161197081613613565b925050808061197e90613613565b91505061190b565b50600081116119965760006119a0565b6119a08282611dc8565b98975050505050505050565b606080606060008467ffffffffffffffff8111156119cc576119cc6133b5565b6040519080825280602002602001820160405280156119f5578160200160208202803683370190505b5093508467ffffffffffffffff811115611a1157611a116133b5565b604051908082528060200260200182016040528015611a3a578160200160208202803683370190505b5092508467ffffffffffffffff811115611a5657611a566133b5565b604051908082528060200260200182016040528015611a7f578160200160208202803683370190505b509150600086600003611aae5787546000908152600b890160205260409020611aa790611e39565b9050611b10565b87546000908152600b8901602052604081208190611acc908a6124b5565b915091508115611ade57889250611b0d565b88811015611aee57809250611b0d565b89546000908152600b8b0160205260409020611b0a9082611f74565b92505b50505b8085600081518110611b2457611b246135e7565b60209081029190910181019190915288546000908152600b8a0182526040808220848352600101909252206005015484600081518110611b6657611b666135e7565b60209081029190910181019190915288546000908152600b8a0182526040808220848352600101909252206004015483600081518110611ba857611ba86135e7565b602090810291909101015260015b8551811015611c95578115611c955788546000908152600b8a0160205260409020611be19083611f74565b915081868281518110611bf657611bf66135e7565b60209081029190910181019190915289546000908152600b8b01825260408082208583526001019092522060050154858281518110611c3757611c376135e7565b60209081029190910181019190915289546000908152600b8b01825260408082208583526001019092522060040154848281518110611c7857611c786135e7565b602090810291909101015280611c8d81613613565b915050611bb6565b5080156118665787546000908152600b8901602052604090206118639082611f74565b60408051600580825260c082019092526060916020820160a0803683370190505090508161ffff1681600081518110611cf357611cf36135e7565b6020026020010181815250506010826001600160501b0316901c61ffff1681600181518110611d2457611d246135e7565b6020026020010181815250506020826001600160501b0316901c61ffff1681600281518110611d5557611d556135e7565b6020026020010181815250506030826001600160501b0316901c61ffff1681600381518110611d8657611d866135e7565b6020026020010181815250506040826001600160501b0316901c61ffff1681600481518110611db757611db76135e7565b602002602001018181525050919050565b6000808211611dd657600080fd5b6005611de2838561369f565b611ded90600a613656565b83611df986600a613656565b611e03919061369f565b611e0d919061362c565b1015611e2457611e1d828461369f565b90506106d3565b611e2e828461369f565b611e1d90600161366d565b805480611e4857506000919050565b5b600081815260018301602052604090206002015415611e7b576000908152600182016020526040902060020154611e49565b919050565b805480611e8f57506000919050565b5b600081815260018084016020526040909120015415611e7b576000908152600180830160205260409091200154611e90565b600081611eea5760405162461bcd60e51b8152600401611ee1906136c1565b60405180910390fd5b600082815260018401602052604090206002015415611f22576000828152600184016020526040902060020154611e1d90849061251a565b5060008181526001830160205260409020545b8015801590611f565750600081815260018401602052604090206002015482145b156106d3576000818152600184016020526040902054909150611f35565b600081611f935760405162461bcd60e51b8152600401611ee1906136c1565b600082815260018085016020526040909120015415611fcb576000828152600180850160205260409091200154611e1d908490612552565b5060008181526001830160205260409020545b8015801590611fff5750600081815260018085016020526040909120015482145b156106d3576000818152600184016020526040902054909150611fde565b60008060008061202b613256565b60006120368a611e39565b90506000806000898410158061204a575089155b6120915760405162461bcd60e51b8152602060048201526018602482015277496e73756666696369656e74206c696d69742076616c756560401b6044820152606401611ee1565b61209e8d8d8d8d88612589565b959e50919c509a5091965094509250905060006120bb838a61366d565b905080156121b05782156120e7578994506120e08e866120db868861362c565b6126b4565b955061210c565b811561210c578994506121098e866120ff88866129cb565b6120db908861362c565b95505b600085815260018f016020526040812060028101919091555485156121ae575b80156121ae578581101561219857808f6001016000888152602001908152602001600020600001541461219457808f600101600088815260200190815260200160002060000181905550858f6001016000838152602001908152602001600020600201819055505b8095505b600090815260018f01602052604090205461212c565b505b808d11156121c5576121c2818e61362c565b96505b60006121d08f611e80565b90508a811480156121f957508e6001016000828152602001908152602001600020600501546000145b156122075760008f5561224d565b8e548b108061222057508e548b1480156122205750818a145b1561224d57858f6000018190555060008f6001016000888152602001908152602001600020600001819055505b6122568f6129dd565b505050505050945094509450945094565b600080600080612275613256565b60006122808a611e80565b905060008060008984111580612294575089155b6122db5760405162461bcd60e51b8152602060048201526018602482015277496e73756666696369656e74206c696d69742076616c756560401b6044820152606401611ee1565b6122e88d8d8d8d88612aac565b959e50919c509a509196509450925090506000612305838a61366d565b9050801561240f57821561232c578994506123258e866120db868861362c565b9550612347565b8115612347578994506123448e866120ff88866129cb565b95505b60008e60010160008781526020019081526020016000206001018190555060008e60010160008781526020019081526020016000206000015490506000861461240d575b801561240d57858111156123f757808f600101600088815260200190815260200160002060000154146123f357808f600101600088815260200190815260200160002060000181905550858f6001016000838152602001908152602001600020600101819055505b8095505b600090815260018f01602052604090205461238b565b505b808d111561242457612421818e61362c565b96505b600061242f8f611e39565b90508a8114801561245857508e6001016000828152602001908152602001600020600501546000145b156124665760008f556124ac565b8e548b118061247f57508e548b14801561247f5750818a145b156124ac57858f6000018190555060008f6001016000888152602001908152602001600020600001819055505b6122568f612ba2565b815460009081905b801561250f57808410156124e7576000818152600180870160205260409091200154909150612507565b808411156125075760008181526001860160205260409020600201549091505b8381036124bd575b151594909350915050565b60005b6000828152600180850160205260409091200154156107b857600091825260018084016020526040909220909101549061251d565b60005b6000828152600184016020526040902060020154156107b85760009182526001830160205260409091206002015490612555565b60008181808080805b8a84108061259e57508a155b80156125b15750898310806125b1575089155b80156125bc57508515155b80156125d0575088861015806125d0575088155b1561267f57600086815260018d016020526040902060050154959650869594506125fa8686612c31565b612604908461366d565b9250612610858561366d565b93508a8411801561262057508a15155b156126425761262f8b8561362c565b915061263b8683612c31565b905061266e565b898311801561265057508915155b1561266e5761265f8a8461362c565b905061266b86826129cb565b91505b6126788c87611f74565b9550612592565b81156126925761268f828561362c565b93505b80156126a5576126a2818461362c565b92505b959b949a509550955095509550565b6126bc613256565b6000838152600185016020526040902060058101548311156127465760405162461bcd60e51b815260206004820152603860248201527f4f7264657253746174697374696373547265654c69623a20416d6f756e74207460448201527f6f2072656d6f766520697320696e73756666696369656e7400000000000000006064820152608401611ee1565b600381015465ffffffffffff61010090910481166000818152600684016020908152604091829020825160a08101845281548087168252600160301b8104871693820193909352600160601b9092049094169181019190915260018301546001600160a01b0316606082015260029092015460808301528491905b65ffffffffffff8116158015906127d757508215155b156129255765ffffffffffff8082166000908152600686016020908152604091829020825160a08101845281548086168252600160301b8104861693820193909352600160601b9092049093169181019190915260018201546001600160a01b03166060820152600290910154608082018190529092508310612871576080820151612863908461362c565b9250816020015190506127c1565b6040518060800160405280836000015165ffffffffffff16815260200183606001516001600160a01b031681526020018481526020016128b18986612c31565b905260409283015165ffffffffffff908116600090815260068701602090815290859020855160a08101875281548085168252600160301b8104851693820193909352600160601b9092049092169481019490945260018101546001600160a01b0316606085015260020154608084015294505b815165ffffffffffff16156129435761294388888460000151612c43565b6040850151156129c057604080860151600089815260018b016020908152838220895165ffffffffffff168352600601905291822060020180549192909161298c90849061362c565b9091555050604080860151600089815260018b016020529182206005018054919290916129ba90849061362c565b90915550505b505050509392505050565b6000610c07612710610e7c8585613656565b80546000908152600182016020526040902060020154158015612a1457508054600090815260018083016020526040909120015415155b15612a6d57805460009081526001808301602052604080832090910154825290206002015415612a5f5780546000908152600180830160205260409091200154612a5f908290612e8f565b612a6d818260000154612f66565b8054600090815260018201602052604090206003015460ff1615612aa957805460009081526001820160205260409020600301805460ff191690555b50565b60008181808080805b8a841080612ac157508a155b8015612ad4575089831080612ad4575089155b8015612adf57508515155b8015612af357508886111580612af3575088155b1561267f57600086815260018d01602052604090206005015495965086959450612b1d8686612c31565b612b27908461366d565b9250612b33858561366d565b93508a84118015612b4357508a15155b15612b6557612b528b8561362c565b9150612b5e8683612c31565b9050612b91565b8983118015612b7357508915155b15612b9157612b828a8461362c565b9050612b8e86826129cb565b91505b612b9b8c87611ec2565b9550612ab5565b80546000908152600180830160205260409091200154158015612bd957508054600090815260018201602052604090206002015415155b15612a6d578054600090815260018083016020526040808320600201548352909120015415612c235780546000908152600182016020526040902060020154612c23908290612f66565b612a6d818260000154612e8f565b6000610c0783610e7c61271085613656565b612c4e83838361303a565b612caf5760405162461bcd60e51b815260206004820152602c60248201527f4f7264657253746174697374696373547265654c69623a204f7264657220646f60448201526b195cc81b9bdd08195e1a5cdd60a21b6064820152608401611ee1565b600082815260018085016020908152604080842065ffffffffffff808716865260068201808552838720845160a08101865281548085168252600160301b8104851682890152600160601b9004841681870152818801546001600160a01b0316606082015260029182015460808201526003850154610100900490931680895291909552929095209092015491939290915b8565ffffffffffff168365ffffffffffff1614612dba5765ffffffffffff9283166000908152600686016020526040902054600160301b90049092169181612d8881613613565b65ffffffffffff85166000908152600688016020526040902060020154909350612db391508261366d565b9050612d41565b600385015465ffffffffffff8088166701000000000000009092041603612e1357612de788886000613058565b6000878152600189016020526040902060030180546cffffffffffff0000000000000019169055612e51565b612e2288888660200151613058565b60208085015165ffffffffffff1660009081526006870190915260409020805465ffffffffffff60601b191690555b81856004016000828254612e65919061362c565b9250508190555080856005016000828254612e80919061362c565b90915550505050505050505050565b600081815260018084016020526040808320600281018054915482865292852090930154938590529183905590918015612ed757600081815260018601602052604090208490555b6000838152600186016020526040902082905581612ef757828555612f43565b60008281526001808701602052604090912001548403612f2c5760008281526001808701602052604090912001839055612f43565b600082815260018601602052604090206002018390555b505060008181526001938401602052604080822090940183905591825291902055565b60008181526001808401602052604080832091820180549254838552918420600201549385905283905590918015612fac57600081815260018601602052604090208490555b6000838152600186016020526040902082905581612fcc57828555613018565b600082815260018601602052604090206002015484036130015760008281526001860160205260409020600201839055613018565b600082815260018087016020526040909120018390555b5050600081815260019093016020526040808420600201839055918352912055565b6000613047848484613090565b80156113ce57506113ce84846131c5565b6000918252600190920160205260409020600301805465ffffffffffff9092166101000266ffffffffffff0019909216919091179055565b600082815260018085016020908152604080842065ffffffffffff808716808752600683018552838720845160a0810186528154808516808352600160301b8204861698830198909852600160601b900490931694830194909452948301546001600160a01b031660608201526002909201546080830152859390921461311d5760009350505050610c07565b5b604081015165ffffffffffff16156131a65760409081015165ffffffffffff808216600090815260068501602090815290849020845160a08101865281548085168252600160301b8104851693820193909352600160601b9092049092169381019390935260018101546001600160a01b03166060840152600201546080830152925061311e565b5060030154610100900465ffffffffffff908116911614949350505050565b815460009082036131d8575060016106d3565b815b60008181526001850160205260409020541561324c5760008181526001808601602052604080832054808452922090810154831480159061321f575082816002015414155b1561323057600093505050506106d3565b8554820361324457600193505050506106d3565b5090506131da565b5060009392505050565b6040518060800160405280600065ffffffffffff16815260200160006001600160a01b0316815260200160008152602001600081525090565b803560ff81168114611e7b57600080fd5b6000602082840312156132b257600080fd5b610c078261328f565b600081518084526020808501945080840160005b838110156132eb578151875295820195908201906001016132cf565b509495945050505050565b60408152600061330960408301856132bb565b905065ffffffffffff831660208301529392505050565b858152602081018590526040810184905261016081016133726060830185805165ffffffffffff1682526020808201516001600160a01b03169083015260408082015190830152606090810151910152565b825165ffffffffffff1660e083015260208301516001600160a01b0316610100830152604083015161012083015260608301516101408301529695505050505050565b634e487b7160e01b600052604160045260246000fd5b600060208083850312156133de57600080fd5b823567ffffffffffffffff808211156133f657600080fd5b818501915085601f83011261340a57600080fd5b81358181111561341c5761341c6133b5565b8060051b604051601f19603f83011681018181108582111715613441576134416133b5565b60405291825284820192508381018501918883111561345f57600080fd5b938501935b828510156119a0576134758561328f565b84529385019392850192613464565b602081526000610c0760208301846132bb565b600080600080600060a086880312156134af57600080fd5b6134b88661328f565b94506134c66020870161328f565b94979496505050506040830135926060810135926080909101359150565b6000806000606084860312156134f957600080fd5b505081359360208301359350604090920135919050565b60006020828403121561352257600080fd5b5035919050565b60008060006060848603121561353e57600080fd5b6135478461328f565b95602085013595506040909401359392505050565b60808152600061356f60808301876132bb565b828103602084015261358181876132bb565b9050828103604084015261359581866132bb565b91505082606083015295945050505050565b600080604083850312156135ba57600080fd5b6135c38361328f565b946020939093013593505050565b634e487b7160e01b600052602160045260246000fd5b634e487b7160e01b600052603260045260246000fd5b634e487b7160e01b600052601160045260246000fd5b600060018201613625576136256135fd565b5060010190565b818103818111156106d3576106d36135fd565b60008161364e5761364e6135fd565b506000190190565b80820281158282048414176106d3576106d36135fd565b808201808211156106d3576106d36135fd565b600060ff821660ff8103613696576136966135fd565b60010192915050565b6000826136bc57634e487b7160e01b600052601260045260246000fd5b500490565b60208082526035908201527f4f7264657253746174697374696373547265654c69623a205374617274696e676040820152742076616c75652063616e6e6f74206265207a65726f60581b60608201526080019056fea2646970667358221220df78f0bed48d1f666cddff33a6553b37ef547bb1fbd2646951af0ff6b11b7ee164736f6c63430008130033",
  "devdoc": {
    "kind": "dev",
    "methods": {},
    "version": 1
  },
  "userdoc": {
    "kind": "user",
    "methods": {},
    "version": 1
  },
  "storageLayout": {
    "storage": [],
    "types": null
  }
}