{
  "address": "0x56E0a0590Af111bD072A6b293b287ec1d6DBAd10",
  "abi": [
    {
      "inputs": [
        {
          "internalType": "enum ProtocolTypes.Side",
          "name": "_side",
          "type": "ProtocolTypes.Side"
        },
        {
          "internalType": "uint256",
          "name": "_amount",
          "type": "uint256"
        },
        {
          "internalType": "uint256",
          "name": "_unitPrice",
          "type": "uint256"
        },
        {
          "internalType": "uint256",
          "name": "_circuitBreakerLimitRange",
          "type": "uint256"
        }
      ],
      "name": "calculateFilledAmount",
      "outputs": [
        {
          "internalType": "uint256",
          "name": "lastUnitPrice",
          "type": "uint256"
        },
        {
          "internalType": "uint256",
          "name": "filledAmount",
          "type": "uint256"
        },
        {
          "internalType": "uint256",
          "name": "filledAmountInFV",
          "type": "uint256"
        }
      ],
      "stateMutability": "view",
      "type": "function"
    },
    {
      "inputs": [
        {
          "internalType": "uint256",
          "name": "_circuitBreakerLimitRange",
          "type": "uint256"
        },
        {
          "internalType": "uint256",
          "name": "_unitPrice",
          "type": "uint256"
        }
      ],
      "name": "getBorrowCircuitBreakerThreshold",
      "outputs": [
        {
          "internalType": "uint256",
          "name": "cbThresholdUnitPrice",
          "type": "uint256"
        }
      ],
      "stateMutability": "pure",
      "type": "function"
    },
    {
      "inputs": [
        {
          "internalType": "uint256",
          "name": "_limit",
          "type": "uint256"
        }
      ],
      "name": "getBorrowOrderBook",
      "outputs": [
        {
          "internalType": "uint256[]",
          "name": "unitPrices",
          "type": "uint256[]"
        },
        {
          "internalType": "uint256[]",
          "name": "amounts",
          "type": "uint256[]"
        },
        {
          "internalType": "uint256[]",
          "name": "quantities",
          "type": "uint256[]"
        }
      ],
      "stateMutability": "view",
      "type": "function"
    },
    {
      "inputs": [
        {
          "internalType": "address",
          "name": "_user",
          "type": "address"
        }
      ],
      "name": "getBorrowOrderIds",
      "outputs": [
        {
          "internalType": "uint48[]",
          "name": "activeOrderIds",
          "type": "uint48[]"
        },
        {
          "internalType": "uint48[]",
          "name": "inActiveOrderIds",
          "type": "uint48[]"
        }
      ],
      "stateMutability": "view",
      "type": "function"
    },
    {
      "inputs": [
        {
          "internalType": "uint256",
          "name": "_circuitBreakerLimitRange",
          "type": "uint256"
        }
      ],
      "name": "getCircuitBreakerThresholds",
      "outputs": [
        {
          "internalType": "uint256",
          "name": "maxLendUnitPrice",
          "type": "uint256"
        },
        {
          "internalType": "uint256",
          "name": "minBorrowUnitPrice",
          "type": "uint256"
        }
      ],
      "stateMutability": "view",
      "type": "function"
    },
    {
      "inputs": [],
      "name": "getHighestLendingUnitPrice",
      "outputs": [
        {
          "internalType": "uint256",
          "name": "",
          "type": "uint256"
        }
      ],
      "stateMutability": "view",
      "type": "function"
    },
    {
      "inputs": [
        {
          "internalType": "uint256",
          "name": "_circuitBreakerLimitRange",
          "type": "uint256"
        },
        {
          "internalType": "uint256",
          "name": "_unitPrice",
          "type": "uint256"
        }
      ],
      "name": "getLendCircuitBreakerThreshold",
      "outputs": [
        {
          "internalType": "uint256",
          "name": "cbThresholdUnitPrice",
          "type": "uint256"
        }
      ],
      "stateMutability": "pure",
      "type": "function"
    },
    {
      "inputs": [
        {
          "internalType": "uint256",
          "name": "_limit",
          "type": "uint256"
        }
      ],
      "name": "getLendOrderBook",
      "outputs": [
        {
          "internalType": "uint256[]",
          "name": "unitPrices",
          "type": "uint256[]"
        },
        {
          "internalType": "uint256[]",
          "name": "amounts",
          "type": "uint256[]"
        },
        {
          "internalType": "uint256[]",
          "name": "quantities",
          "type": "uint256[]"
        }
      ],
      "stateMutability": "view",
      "type": "function"
    },
    {
      "inputs": [
        {
          "internalType": "address",
          "name": "_user",
          "type": "address"
        }
      ],
      "name": "getLendOrderIds",
      "outputs": [
        {
          "internalType": "uint48[]",
          "name": "activeOrderIds",
          "type": "uint48[]"
        },
        {
          "internalType": "uint48[]",
          "name": "inActiveOrderIds",
          "type": "uint48[]"
        }
      ],
      "stateMutability": "view",
      "type": "function"
    },
    {
      "inputs": [],
      "name": "getLowestBorrowingUnitPrice",
      "outputs": [
        {
          "internalType": "uint256",
          "name": "",
          "type": "uint256"
        }
      ],
      "stateMutability": "view",
      "type": "function"
    },
    {
      "inputs": [],
      "name": "getOpeningUnitPrice",
      "outputs": [
        {
          "internalType": "uint256",
          "name": "openingUnitPrice",
          "type": "uint256"
        },
        {
          "internalType": "uint256",
          "name": "lastLendUnitPrice",
          "type": "uint256"
        },
        {
          "internalType": "uint256",
          "name": "lastBorrowUnitPrice",
          "type": "uint256"
        },
        {
          "internalType": "uint256",
          "name": "totalOffsetAmount",
          "type": "uint256"
        }
      ],
      "stateMutability": "view",
      "type": "function"
    },
    {
      "inputs": [
        {
          "internalType": "uint48",
          "name": "_orderId",
          "type": "uint48"
        }
      ],
      "name": "getOrder",
      "outputs": [
        {
          "internalType": "enum ProtocolTypes.Side",
          "name": "side",
          "type": "ProtocolTypes.Side"
        },
        {
          "internalType": "uint256",
          "name": "unitPrice",
          "type": "uint256"
        },
        {
          "internalType": "uint256",
          "name": "maturity",
          "type": "uint256"
        },
        {
          "internalType": "address",
          "name": "maker",
          "type": "address"
        },
        {
          "internalType": "uint256",
          "name": "amount",
          "type": "uint256"
        },
        {
          "internalType": "uint256",
          "name": "timestamp",
          "type": "uint256"
        },
        {
          "internalType": "bool",
          "name": "isPreOrder",
          "type": "bool"
        }
      ],
      "stateMutability": "view",
      "type": "function"
    },
    {
      "inputs": [
        {
          "internalType": "address",
          "name": "_user",
          "type": "address"
        }
      ],
      "name": "getTotalAmountFromBorrowOrders",
      "outputs": [
        {
          "internalType": "uint256",
          "name": "activeAmount",
          "type": "uint256"
        },
        {
          "internalType": "uint256",
          "name": "inactiveAmount",
          "type": "uint256"
        },
        {
          "internalType": "uint256",
          "name": "inactiveFutureValue",
          "type": "uint256"
        },
        {
          "internalType": "uint256",
          "name": "maturity",
          "type": "uint256"
        }
      ],
      "stateMutability": "view",
      "type": "function"
    },
    {
      "inputs": [
        {
          "internalType": "address",
          "name": "_user",
          "type": "address"
        }
      ],
      "name": "getTotalAmountFromLendOrders",
      "outputs": [
        {
          "internalType": "uint256",
          "name": "activeAmount",
          "type": "uint256"
        },
        {
          "internalType": "uint256",
          "name": "inactiveAmount",
          "type": "uint256"
        },
        {
          "internalType": "uint256",
          "name": "inactiveFutureValue",
          "type": "uint256"
        },
        {
          "internalType": "uint256",
          "name": "maturity",
          "type": "uint256"
        }
      ],
      "stateMutability": "view",
      "type": "function"
    },
    {
      "inputs": [
        {
          "internalType": "address",
          "name": "_user",
          "type": "address"
        }
      ],
      "name": "hasBorrowOrder",
      "outputs": [
        {
          "internalType": "bool",
          "name": "",
          "type": "bool"
        }
      ],
      "stateMutability": "view",
      "type": "function"
    },
    {
      "inputs": [
        {
          "internalType": "address",
          "name": "_user",
          "type": "address"
        }
      ],
      "name": "hasLendOrder",
      "outputs": [
        {
          "internalType": "bool",
          "name": "",
          "type": "bool"
        }
      ],
      "stateMutability": "view",
      "type": "function"
    }
  ],
  "transactionHash": "0xe2446c8775ee70d5a14c0a3d882707dd634ebb65c2d1a5f15a3c5a4bf6f4e3d3",
  "args": [],
  "numDeployments": 2,
  "solcInputHash": "22a2da44577d42bc86169e7d248c7df7",
  "bytecode": "0x6157186200003b600b82828239805160001a60731461002e57634e487b7160e01b600052600060045260246000fd5b30600052607381538281f3fe730000000000000000000000000000000000000000301460806040526004361061014c5760003560e01c8063876467fb116100c2578063d866d35511610086578063d866d355146103a2578063e2afb041146103b5578063e3d904d8146103bd578063e7df768c146103d0578063f554c7ca146103e3578063fe1991971461041357600080fd5b8063876467fb146102f1578063b69d2f541461031f578063bcc012ad14610369578063ceff498f1461037c578063d0c45f7f1461038f57600080fd5b80636814ed84116101145780636814ed84146102085780636a2c42741461022b5780636c5db843146102535780637bff15c3146102825780637ce219aa146102aa5780638152b173146102d057600080fd5b806330318f1c146101515780634bf62d161461018d578063596925d7146101af5780635f897211146101d0578063614152b914610200575b600080fd5b81801561015d57600080fd5b5061017161016c366004615209565b610433565b60405165ffffffffffff90911681526020015b60405180910390f35b6101a061019b36600461524b565b610638565b6040516101849392919061529f565b6101c26101bd3660046152e2565b6108ec565b604051908152602001610184565b8180156101dc57600080fd5b506101f06101eb366004615304565b6109b8565b6040516101849493929190615357565b6101c2610b15565b61021b610216366004615304565b610b5f565b6040519015158152602001610184565b610233610b8d565b604080519485526020850193909352918301526060820152608001610184565b81801561025f57600080fd5b5061027361026e36600461539c565b610d66565b60405161018493929190615407565b61029561029036600461524b565b610f04565b60408051928352602083019190915201610184565b6102bd6102b8366004615426565b610f28565b6040516101849796959493929190615441565b6102e36102de366004615304565b6110f2565b60405161018492919061548a565b6103046102ff3660046154af565b61144e565b60408051938452602084019290925290820152606001610184565b81801561032b57600080fd5b5061033f61033a3660046154e8565b61156a565b60408051941515855260208501939093529015159183019190915215156060820152608001610184565b6102e3610377366004615304565b611804565b61021b61038a366004615304565b611b13565b6101c261039d3660046152e2565b611b41565b6101a06103b036600461524b565b611bee565b6101c2611e28565b6102336103cb366004615304565b611e3a565b6102336103de366004615304565b61203a565b8180156103ef57600080fd5b506104036103fe3660046154af565b6121dd565b604051610184949392919061551b565b81801561041f57600080fd5b506101f061042e366004615304565b612379565b600061043d6124be565b9050604051806080016040528086600181111561045c5761045c6153cf565b815260200183815260200161046f61251d565b6003015481526020014281525061048461251d565b65ffffffffffff831660009081526008919091016020526040902081518154829060ff1916600183818111156104bc576104bc6153cf565b0217905550602082015160018201556040820151600282015560609091015160039091015560008560018111156104f5576104f56153cf565b141561059a5761053a8282868661050a61251d565b600a01600061051761251d565b60030154815260200190815260200160002061254190949392919063ffffffff16565b61054261251d565b6001600160a01b0385166000908152600591820160209081526040822080546001810182559083529120828204018054929091066006026101000a65ffffffffffff8181021990931692841602919091179055610630565b60018560018111156105ae576105ae6153cf565b1415610630576105d0828286866105c361251d565b600b01600061051761251d565b6105d861251d565b6001600160a01b03851660009081526006918201602090815260408220805460018101825590835291206005808304909101805465ffffffffffff808716939094069094026101000a91820292909102199092161790555b949350505050565b60608060608367ffffffffffffffff81111561065657610656615589565b60405190808252806020026020018201604052801561067f578160200160208202803683370190505b5092508367ffffffffffffffff81111561069b5761069b615589565b6040519080825280602002602001820160405280156106c4578160200160208202803683370190505b5091508367ffffffffffffffff8111156106e0576106e0615589565b604051908082528060200260200182016040528015610709578160200160208202803683370190505b509050600061073d61071961251d565b600a01600061072661251d565b6003015481526020019081526020016000206125ec565b905080846000815181106107535761075361559f565b6020026020010181815250506107988161076b61251d565b600a01600061077861251d565b60030154815260200190815260200160002061263390919063ffffffff16565b836000815181106107ab576107ab61559f565b6020026020010181815250506107f0816107c361251d565b600a0160006107d061251d565b60030154815260200190815260200160002061264e90919063ffffffff16565b826000815181106108035761080361559f565b602090810291909101015260015b84518110156108e35781610824576108e3565b61085d8261083061251d565b600a01600061083d61251d565b60030154815260200190815260200160002061266790919063ffffffff16565b9150818582815181106108725761087261559f565b60200260200101818152505061088a8261076b61251d565b84828151811061089c5761089c61559f565b6020026020010181815250506108b4826107c361251d565b8382815181106108c6576108c661559f565b6020908102919091010152806108db816155cb565b915050610811565b50509193909250565b6000806127106108fc81856155e6565b61090691906155e6565b9050600061091685612710615605565b61092285612710615605565b61092c91906155e6565b610938612710866155e6565b610942919061561c565b905061094e8282612768565b925061095b60c88561561c565b8311156109745761096d60c88561561c565b92506109b0565b61097f600a8561561c565b8310156109b057612710610994600a8661561c565b11156109a2576127106109ad565b6109ad600a8561561c565b92505b505092915050565b606060008060008060006109cb876110f2565b91509150816109d861251d565b6005016000896001600160a01b03166001600160a01b031681526020019081526020016000209080519060200190610a119291906150e0565b50815181519095508067ffffffffffffffff811115610a3257610a32615589565b604051908082528060200260200182016040528015610a5b578160200160208202803683370190505b50965060005b81811015610b0a57600080610a8e858481518110610a8157610a8161559f565b60200260200101516127d2565b9092509050610a9d828861561c565b9650610aa9818961561c565b9750848381518110610abd57610abd61559f565b60200260200101518a8481518110610ad757610ad761559f565b602002602001019065ffffffffffff16908165ffffffffffff168152505050508080610b02906155cb565b915050610a61565b505050509193509193565b600080610b47610b2361251d565b600b016000610b3061251d565b6003015481526020019081526020016000206128ca565b90508015610b555780610b59565b6127105b91505090565b6000610b6961251d565b6001600160a01b039092166000908152600692909201602052506040902054151590565b6000806000806000610b9d611e28565b90506000610ba9610b15565b90506000610bb98361076b61251d565b90506000610bd683610bc961251d565b600b01600061077861251d565b90506000610be261251d565b600b016000610bef61251d565b60030154815260200190815260200160002090506000610c0d61251d565b600a016000610c1a61251d565b600301548152602001908152602001600020905085851115610c6357610c4b6002610c45878961561c565b90612768565b995060009850889750879650610d6095505050505050565b858511158015610c735750600085115b8015610c7f5750600086115b15610d595785985084975082841115610ccc578599508287610ca1919061561c565b9650610cad8385615605565b9350610cb9828661290c565b9450610cc58286612633565b9250610c63565b82841015610d0e578499508387610ce3919061561c565b9650610cef8484615605565b9250610cfb8187612667565b9550610d078187612633565b9350610c63565b610d1d6002610c45878961561c565b9950610d29848861561c565b9650610d358187612667565b9550610d41828661290c565b9450610d4d8187612633565b9350610cc58286612633565b5050505050505b90919293565b600080600080610d7461251d565b65ffffffffffff861660009081526008919091016020526040908190208151608081019092528054829060ff166001811115610db257610db26153cf565b6001811115610dc357610dc36153cf565b81526001820154602082015260028201546040820152600390910154606090910152905060008082516001811115610dfd57610dfd6153cf565b1415610e7e57610e42826020015187610e1461251d565b600a016000610e2161251d565b600301548152602001908152602001600020612a069092919063ffffffff16565b9050610e79610e4f61251d565b6001600160a01b03891660009081526005919091016020526040902065ffffffffffff8816612a26565b610eee565b600182516001811115610e9357610e936153cf565b1415610eee57610eb7826020015187610eaa61251d565b600b016000610e2161251d565b9050610eee610ec461251d565b6001600160a01b03891660009081526006919091016020526040902065ffffffffffff8816612a26565b8151602090920151919450925090509250925092565b600080610f13836101bd610b15565b9150610f218361039d611e28565b9050915091565b600080600080600080600080610f3c61251d565b65ffffffffffff8a1660009081526008919091016020526040908190208151608081019092528054829060ff166001811115610f7a57610f7a6153cf565b6001811115610f8b57610f8b6153cf565b815260200160018201548152602001600282015481526020016003820154815250509050610fe76040805160c081018252600080825260208201819052918101829052606081018290526080810182905260a081019190915290565b600082516001811115610ffc57610ffc6153cf565b14156110375761103082602001518b61101361251d565b6040808701516000908152600a9290920160205290209190612b7c565b9050611068565b61106582602001518b61104861251d565b6040808701516000908152600b9290920160205290209190612b7c565b90505b60608101516001600160a01b0316156110e5578160000151985081604001519650806060015195508060a001519450806080015193506110a661251d565b60090160008b65ffffffffffff16815260200190815260200160002060009054906101000a900460ff1692506110e28988846020015186612c33565b97505b5050919395979092949650565b606080600080600061110261251d565b6003015461110e61251d565b6001600160a01b03881660009081526007919091016020526040902054141590508061115e5761113c61251d565b6001600160a01b03871660009081526005919091016020526040902054611161565b60005b67ffffffffffffffff81111561117957611179615589565b6040519080825280602002602001820160405280156111a2578160200160208202803683370190505b5094506111ad61251d565b6001600160a01b0387166000908152600591909101602052604090205467ffffffffffffffff8111156111e2576111e2615589565b60405190808252806020026020018201604052801561120b578160200160208202803683370190505b50935060005b61121961251d565b6001600160a01b0388166000908152600591909101602052604090205481101561144557600061124761251d565b6001600160a01b0389166000908152600591909101602052604090208054839081106112755761127561559f565b90600052602060002090600591828204019190066006029054906101000a900465ffffffffffff16905060006112a961251d565b65ffffffffffff831660009081526008919091016020526040908190208151608081019092528054829060ff1660018111156112e7576112e76153cf565b60018111156112f8576112f86153cf565b81526020016001820154815260200160028201548152602001600382015481525050905061137e81602001518361132d61251d565b600a01600061133a61251d565b60070160008f6001600160a01b03166001600160a01b03168152602001908152602001600020548152602001908152602001600020612d009092919063ffffffff16565b6113db5761138d60018661561c565b9450818761139b8886615605565b815181106113ab576113ab61559f565b602002602001019065ffffffffffff16908165ffffffffffff1681525050836113d657600188510388525b611430565b83611428576113eb60018761561c565b955081886113f98786615605565b815181106114095761140961559f565b602002602001019065ffffffffffff16908165ffffffffffff16815250505b600187510387525b5050808061143d906155cb565b915050611211565b50505050915091565b600080808561146557506000915081905080611560565b6000876001811115611479576114796153cf565b14156114f657600061148d856101bd610b15565b9050600086158061149d57508187115b6114a757866114a9565b815b90506114e9886000836114ba61251d565b600b0160006114c761251d565b600301548152602001908152602001600020612d1e909392919063ffffffff16565b9450945094505050611560565b60006115048561039d611e28565b9050600086158061151457508187105b61151e5786611520565b815b90506114e98860008361153161251d565b600a01600061153e61251d565b600301548152602001908152602001600020612d4b909392919063ffffffff16565b9450945094915050565b60008060008061271085106115c65760405162461bcd60e51b815260206004820152601b60248201527f4342206c696d69742063616e206e6f7420626520736f2068696768000000000060448201526064015b60405180910390fd5b60006115d061251d565b600c01600043815260200190815260200160002060008960018111156115f8576115f86153cf565b6001811115611609576116096153cf565b81526020810191909152604001600090812054915080896001811115611631576116316153cf565b149050600081156116c557611647610b2361251d565b90508060001415935083801561165b575082155b156116c05761166a88826108ec565b92508261167561251d565b600c01600043815260200190815260200160002060008c600181111561169d5761169d6153cf565b60018111156116ae576116ae6153cf565b81526020810191909152604001600020555b611749565b6116d061071961251d565b9050806000141593508380156116e4575082155b15611749576116f38882611b41565b9250826116fe61251d565b600c01600043815260200190815260200160002060008c6001811115611726576117266153cf565b6001811115611737576117376153cf565b81526020810191909152604001600020555b88158015611755575083155b156117945760405162461bcd60e51b815260206004820152600f60248201526e13dc99195c881b9bdd08199bdd5b99608a1b60448201526064016115bd565b8815806117c357508380156117c357508180156117b057508289115b806117c35750811580156117c357508289105b156117d457829550600194506117dc565b889550600094505b83156117f857816117f057858110156117f5565b858111155b96505b50505093509350935093565b606080600080600061181461251d565b6003015461182061251d565b6001600160a01b0388166000908152600791909101602052604090205414159050806118705761184e61251d565b6001600160a01b03871660009081526006919091016020526040902054611873565b60005b67ffffffffffffffff81111561188b5761188b615589565b6040519080825280602002602001820160405280156118b4578160200160208202803683370190505b5094506118bf61251d565b6001600160a01b0387166000908152600691909101602052604090205467ffffffffffffffff8111156118f4576118f4615589565b60405190808252806020026020018201604052801561191d578160200160208202803683370190505b50935060005b61192b61251d565b6001600160a01b0388166000908152600691909101602052604090205481101561144557600061195961251d565b6001600160a01b0389166000908152600691909101602052604090208054839081106119875761198761559f565b90600052602060002090600591828204019190066006029054906101000a900465ffffffffffff16905060006119bb61251d565b65ffffffffffff831660009081526008919091016020526040908190208151608081019092528054829060ff1660018111156119f9576119f96153cf565b6001811115611a0a57611a0a6153cf565b815260200160018201548152602001600282015481526020016003820154815250509050611a4c816020015183611a3f61251d565b600b01600061133a61251d565b611aa957611a5b60018661561c565b94508187611a698886615605565b81518110611a7957611a7961559f565b602002602001019065ffffffffffff16908165ffffffffffff168152505083611aa457600188510388525b611afe565b611ab460018761561c565b955083611af6578188611ac78786615605565b81518110611ad757611ad761559f565b602002602001019065ffffffffffff16908165ffffffffffff16815250505b600187510387525b50508080611b0b906155cb565b915050611923565b6000611b1d61251d565b6001600160a01b039092166000908152600592909201602052506040902054151590565b600080612710611b5181856155e6565b611b5b91906155e6565b90506000611b6b8561271061561c565b611b7785612710615605565b611b8191906155e6565b611b8d612710866155e6565b611b97919061561c565b9050611ba38282612768565b9250611bb060c88461561c565b841115611bc25761096d60c885615605565b611bcd600a8461561c565b8410156109b057600a8411611be35760016109ad565b6109ad600a85615605565b60608060608367ffffffffffffffff811115611c0c57611c0c615589565b604051908082528060200260200182016040528015611c35578160200160208202803683370190505b5092508367ffffffffffffffff811115611c5157611c51615589565b604051908082528060200260200182016040528015611c7a578160200160208202803683370190505b5091508367ffffffffffffffff811115611c9657611c96615589565b604051908082528060200260200182016040528015611cbf578160200160208202803683370190505b5090506000611ccf610b2361251d565b90508084600081518110611ce557611ce561559f565b602002602001018181525050611cfd81610bc961251d565b83600081518110611d1057611d1061559f565b602002602001018181525050611d3581611d2861251d565b600b0160006107d061251d565b82600081518110611d4857611d4861559f565b602090810291909101015260015b84518110156108e35781611d69576108e3565b611da282611d7561251d565b600b016000611d8261251d565b60030154815260200190815260200160002061290c90919063ffffffff16565b915081858281518110611db757611db761559f565b602002602001018181525050611dcf82610bc961251d565b848281518110611de157611de161559f565b602002602001018181525050611df982611d2861251d565b838281518110611e0b57611e0b61559f565b602090810291909101015280611e20816155cb565b915050611d56565b6000611e3561071961251d565b905090565b600080600080600080611e4c87611804565b91509150611e5861251d565b6001600160a01b0388166000908152600791909101602052604081205493505b8251811015611fa7576000611e8b61251d565b6008016000858481518110611ea257611ea261559f565b602002602001015165ffffffffffff1681526020019081526020016000206040518060800160405290816000820160009054906101000a900460ff166001811115611eef57611eef6153cf565b6001811115611f0057611f006153cf565b8152602001600182015481526020016002820154815260200160038201548152505090506000611f7e8260200151868581518110611f4057611f4061559f565b6020026020010151611f5061251d565b600b016000611f5d61251d565b600301548152602001908152602001600020612b7c9092919063ffffffff16565b90508060a0015189611f90919061561c565b985050508080611f9f906155cb565b915050611e78565b50611fb061251d565b6001600160a01b0388166000908152600791909101602052604081205493505b815181101561203057600080611ffe848481518110611ff157611ff161559f565b6020026020010151612d65565b909250905061200d828961561c565b9750612019818861561c565b965050508080612028906155cb565b915050611fd0565b5050509193509193565b60008060008060008061204c876110f2565b9150915061205861251d565b6001600160a01b0388166000908152600791909101602052604081205493505b825181101561218657600061208b61251d565b60080160008584815181106120a2576120a261559f565b602002602001015165ffffffffffff1681526020019081526020016000206040518060800160405290816000820160009054906101000a900460ff1660018111156120ef576120ef6153cf565b6001811115612100576121006153cf565b815260200160018201548152602001600282015481526020016003820154815250509050600061215d82602001518685815181106121405761214061559f565b602002602001015161215061251d565b600a016000611f5d61251d565b90508060a001518961216f919061561c565b98505050808061217e906155cb565b915050612078565b5060005b8151811015612030576000806121ab848481518110610a8157610a8161559f565b90925090506121ba828961561c565b97506121c6818861561c565b9650505080806121d5906155cb565b91505061218a565b6122086040518060800160405280600081526020016000815260200160008152602001600081525090565b60408051608081018252600080825260208201819052918101829052606081018290529080612235615195565b6001896001811115612249576122496153cf565b14156122b157600061225961251d565b600a01600061226661251d565b60030154815260208101919091526040016000209050612288818a8a8a612df8565b60408b01929092529189526020890192909252945091506122a98154151590565b925050612329565b60008960018111156122c5576122c56153cf565b14156123295760006122d561251d565b600b0160006122e261251d565b60030154815260208101919091526040016000209050612304818a8a8a613043565b60408b01929092529189526020890192909252945091506123258154151590565b9250505b6040518060800160405280826000015165ffffffffffff16815260200182602001516001600160a01b03168152602001826040015181526020018260600151815250935050945094509450949050565b6060600080600080600061238c87611804565b915091508161239961251d565b6006016000896001600160a01b03166001600160a01b0316815260200190815260200160002090805190602001906123d29291906150e0565b50815181519095508067ffffffffffffffff8111156123f3576123f3615589565b60405190808252806020026020018201604052801561241c578160200160208202803683370190505b50965060005b81811015610b0a57600080612442858481518110611ff157611ff161559f565b9092509050612451828861561c565b965061245d818961561c565b97508483815181106124715761247161559f565b60200260200101518a848151811061248b5761248b61559f565b602002602001019065ffffffffffff16908165ffffffffffff1681525050505080806124b6906155cb565b915050612422565b60006124c861251d565b600101805465ffffffffffff169060006124e183615634565b91906101000a81548165ffffffffffff021916908365ffffffffffff1602179055505061250c61251d565b6001015465ffffffffffff16919050565b7ffc2836757f9146445fc75bc3c897a210ec004e4ee60fc8627ef5cbf2842b3d0a90565b600081116125875760405162461bcd60e51b8152602060048201526013602482015272125b9cdd59999a58da595b9d08185b5bdd5b9d606a1b60448201526064016115bd565b6127108411156125ce5760405162461bcd60e51b8152602060048201526012602482015271496e73756666696369656e742076616c756560701b60448201526064016115bd565b6125d88585613292565b6125e5858585858561345b565b5050505050565b8054806125fb57506000919050565b5b60008181526001830160205260409020600201541561262e5760009081526001820160205260409020600201546125fc565b919050565b60008181526001830160205260409020600501545b92915050565b6000908152600191909101602052604090206004015490565b6000816126d75760405162461bcd60e51b815260206004820152603860248201527f4f7264657253746174697374696373547265652834303229202d205374617274604482015277696e672076616c75652063616e6e6f74206265207a65726f60401b60648201526084016115bd565b60008281526001808501602052604090912001541561271657600082815260018085016020526040909120015461270f9084906134db565b9050612648565b5060008181526001830160205260409020545b801580159061274a5750600081815260018085016020526040909120015482145b15612648576000818152600184016020526040902054909150612729565b600080821161277657600080fd5b6005612782838561565a565b61278d90600a6155e6565b8361279986600a6155e6565b6127a3919061565a565b6127ad9190615605565b10156127bd5761270f828461565a565b6127c7828461565a565b61270f90600161561c565b60008060006127df61251d565b65ffffffffffff851660009081526008919091016020526040908190208151608081019092528054829060ff16600181111561281d5761281d6153cf565b600181111561282e5761282e6153cf565b815260200160018201548152602001600282015481526020016003820154815250509050600061286582602001518661101361251d565b905060006128a783600001518460400151856020015161288361251d565b65ffffffffffff8b166000908152600991909101602052604090205460ff16612c33565b60a0830151955090506128c081610c45612710886155e6565b9350505050915091565b8054806128d957506000919050565b5b60008181526001808401602052604090912001541561262e5760009081526001808301602052604090912001546128da565b60008161297c5760405162461bcd60e51b815260206004820152603860248201527f4f7264657253746174697374696373547265652834303129202d205374617274604482015277696e672076616c75652063616e6e6f74206265207a65726f60401b60648201526084016115bd565b6000828152600184016020526040902060020154156129b457600082815260018401602052604090206002015461270f908490613518565b5060008181526001830160205260409020545b80158015906129e85750600081815260018401602052604090206002015482145b156126485760008181526001840160205260409020549091506129c7565b6000612a13848484613550565b9050612a1f84846137bc565b9392505050565b8154600090612a3790600190615605565b905060005b818111612b765782848281548110612a5657612a5661559f565b90600052602060002090600591828204019190066006029054906101000a900465ffffffffffff1665ffffffffffff161415612b6457818114612b1d576000848381548110612aa757612aa761559f565b90600052602060002090600591828204019190066006029054906101000a900465ffffffffffff16905080858381548110612ae457612ae461559f565b90600052602060002090600591828204019190066006026101000a81548165ffffffffffff021916908365ffffffffffff160217905550505b83805480612b2d57612b2d61567c565b60019003818190600052602060002090600591828204019190066006026101000a81549065ffffffffffff02191690559055612b76565b80612b6e816155cb565b915050612a3c565b50505050565b6040805160c081018252600080825260208201819052918101829052606081018290526080810182905260a081019190915250600091825260019283016020908152604080842065ffffffffffff9384168552600601825292839020835160c08101855281548085168252600160301b8104851693820193909352600160601b90920490921692810192909252918201546001600160a01b031660608201526002820154608082015260039091015460a082015290565b600081612c41575081610630565b6000612c4b61251d565b600d016000868152602001908152602001600020604051806060016040529081600082015481526020016001820154815260200160028201548152505090508060000151600014158015612cea57506001866001811115612cae57612cae6153cf565b148015612cbf575080604001518411155b80612cea57506000866001811115612cd957612cd96153cf565b148015612cea575080602001518410155b15612cf757519050610630565b83915050610630565b6000612d0d848484613a79565b801561063057506106308484613bc2565b6000806000612d3887878787612d338c6128ca565b613c7b565b50949c919b509950975050505050505050565b6000806000612d3887878787612d608c6125ec565b613da6565b6000806000612d7261251d565b65ffffffffffff851660009081526008919091016020526040908190208151608081019092528054829060ff166001811115612db057612db06153cf565b6001811115612dc157612dc16153cf565b815260200160018201548152602001600282015481526020016003820154815250509050600061286582602001518661104861251d565b600080600080612e06615195565b6000612e118a6125ec565b905060008060008984101580612e25575089155b612e6c5760405162461bcd60e51b8152602060048201526018602482015277496e73756666696369656e74206c696d69742076616c756560401b60448201526064016115bd565b612e798d8d8d8d88613da6565b959e50919c509a509196509450925090506000612e96838a61561c565b90508015612f8b578215612ec257899450612ebb8e86612eb68688615605565b613e9c565b9550612ee7565b8115612ee757899450612ee48e86612eda88866141d2565b612eb69088615605565b95505b600085815260018f01602052604081206002810191909155548515612f89575b8015612f895785811015612f7357808f60010160008881526020019081526020016000206000015414612f6f57808f600101600088815260200190815260200160002060000181905550858f6001016000838152602001908152602001600020600201819055505b8095505b600090815260018f016020526040902054612f07565b505b808d1115612fa057612f9d818e615605565b96505b6000612fab8f6128ca565b90508a81148015612fd457508e6001016000828152602001908152602001600020600501546000145b15612fe25760008f55613029565b8e548b1080612ffc57508e548b148015612ffc5750818a10155b1561302957858f6000018190555060008f6001016000888152602001908152602001600020600001819055505b6130328f6141e4565b505050505050945094509450945094565b600080600080613051615195565b600061305c8a6128ca565b905060008060008984111580613070575089155b6130b75760405162461bcd60e51b8152602060048201526018602482015277496e73756666696369656e74206c696d69742076616c756560401b60448201526064016115bd565b6130c48d8d8d8d88613c7b565b959e50919c509a5091965094509250905060006130e1838a61561c565b905080156131eb578215613108578994506131018e86612eb68688615605565b9550613123565b8115613123578994506131208e86612eda88866141d2565b95505b60008e60010160008781526020019081526020016000206001018190555060008e6001016000878152602001908152602001600020600001549050600086146131e9575b80156131e957858111156131d357808f600101600088815260200190815260200160002060000154146131cf57808f600101600088815260200190815260200160002060000181905550858f6001016000838152602001908152602001600020600101819055505b8095505b600090815260018f016020526040902054613167565b505b808d1115613200576131fd818e615605565b96505b600061320b8f6125ec565b90508a8114801561323457508e6001016000828152602001908152602001600020600501546000145b156132425760008f55613289565b8e548b118061325c57508e548b14801561325c5750818a10155b1561328957858f6000018190555060008f6001016000888152602001908152602001600020600001819055505b6130328f6142b3565b806133055760405162461bcd60e51b815260206004820152603960248201527f4f7264657253746174697374696373547265652834303529202d2056616c756560448201527f20746f20696e736572742063616e6e6f74206265207a65726f0000000000000060648201526084016115bd565b81546000905b8015613369578091508083101561333557600090815260018085016020526040909120015461330b565b8083111561335657600090815260018401602052604090206002015461330b565b808314156133645750505050565b61330b565b60008381526001850160205260409020845415806133b85750600083815260018087016020526040909120015484148015906133b8575060008381526001860160205260409020600201548414155b156133e657600060048201819055600582018190556133da9086908690614342565b6133e68585600061437a565b82815560006001808301829055600283019190915560038201805460ff191690911790558261341757838555613451565b8284101561343a5760008381526001808701602052604090912001849055613451565b600083815260018601602052604090206002018490555b6125e585856143ba565b600084815260018601602052604090206003810154610100900465ffffffffffff166134935761348e8686868686614625565b6134d3565b60006134a28787878787614695565b90506134c687878460030160079054906101000a900465ffffffffffff1684614835565b6134d187878361437a565b505b505050505050565b60005b60008281526001840160205260409020600201541561351257600091825260018301602052604090912060020154906134de565b50919050565b60005b60008281526001808501602052604090912001541561351257600091825260018084016020526040909220909101549061351b565b600061355d848484612d00565b6135795760405162461bcd60e51b81526004016115bd90615692565b50600082815260018085016020908152604080842065ffffffffffff80871680875260068301855295839020835160c08101855281548084168252600160301b8104841696820196909652600160601b909504821693850193909352938201546001600160a01b031660608401526002820154608084015260039182015460a0840181905291810154919490936101009092049091161480156136315750600382015465ffffffffffff858116600160381b90920416145b156136535761364286866000614342565b61364e8686600061437a565b613725565b600382015465ffffffffffff8581166101009092041614156136b15761367e86868360200151614342565b60208082015165ffffffffffff1660009081526006840190915260409020805465ffffffffffff60601b19169055613725565b600382015465ffffffffffff858116600160381b909204161415613711576136de8686836040015161437a565b60408082015165ffffffffffff166000908152600684016020522080546bffffffffffff00000000000019169055613725565b613725868683604001518460200151614835565b805165ffffffffffff1660009081526006830160205260408120805471ffffffffffffffffffffffffffffffffffff19168155600180820180546001600160a01b03191690556002820183905560039091018290556004840180549192909161378f908490615605565b909155505060a08101516005830180546000906137ad908490615605565b90915550929695505050505050565b8061382f5760405162461bcd60e51b815260206004820152603960248201527f4f7264657253746174697374696373547265652834303729202d2056616c756560448201527f20746f2064656c6574652063616e6e6f74206265207a65726f0000000000000060648201526084016115bd565b60008181526001830160205260408120600481015490919081906125e5576000848152600180870160205260409091200154158061387e57506000848152600186016020526040902060020154155b1561388a5750826138d2565b5060008381526001850160205260409020600201545b6000818152600180870160205260409091200154156138d25760009081526001808601602052604090912001546138a0565b600081815260018087016020526040909120015415613906576000818152600180870160205260409091200154915061391d565b600081815260018601602052604090206002015491505b6000818152600186016020526040808220548483529120819055801561398e5760008181526001808801602052604090912001548214156139735760008181526001808801602052604090912001839055613992565b60008181526001870160205260409020600201839055613992565b8286555b600082815260018701602052604090206003015460ff1615858314613a1c576139bc8784886148aa565b60008681526001888101602052604080832080830154878552828520938401819055845281842087905560028082015490840181905584529083208690556003908101549286905201805460ff191660ff90921615159190911790559194915b8015613a2c57613a2c8785614921565b50506000818152600180870160205260408220828155908101829055600281018290556003810180546cffffffffffffffffffffffffff1916905560048101829055600501555050505050565b600082815260018085016020908152604080842065ffffffffffff808716808752600683018552838720845160c0810186528154808516808352600160301b8204861698830198909852600160601b900490931694830194909452948301546001600160a01b031660608201526002830154608082015260039092015460a08301528593909214613b105760009350505050612a1f565b5b604081015165ffffffffffff1615613ba35760409081015165ffffffffffff808216600090815260068501602090815290849020845160c08101865281548085168252600160301b8104851693820193909352600160601b9092049092169381019390935260018101546001600160a01b03166060840152600281015460808401526003015460a08301529250613b11565b5060030154610100900465ffffffffffff908116911614949350505050565b600081613bd157506000612648565b8254821415613be257506001612648565b815b600081815260018501602052604090205415613c715760008181526001808601602052604080832054808452922001548214801590613c36575060008181526001860160205260409020600201548214155b15613c4657600092505050612648565b8454811415613c5a57600192505050612648565b506000908152600184016020526040902054613be4565b5060009392505050565b60008181808080805b8a841080613c9057508a155b8015613ca3575089831080613ca3575089155b8015613cae57508515155b8015613cc257508886111580613cc2575088155b15613d7157600086815260018d01602052604090206005015495965086959450613cec8686614d3b565b613cf6908461561c565b9250613d02858561561c565b93508a84118015613d1257508a15155b15613d3457613d218b85615605565b9150613d2d8683614d3b565b9050613d60565b8983118015613d4257508915155b15613d6057613d518a84615605565b9050613d5d86826141d2565b91505b613d6a8c8761290c565b9550613c84565b8115613d8457613d818285615605565b93505b8015613d9757613d948184615605565b92505b959b949a509550955095509550565b60008181808080805b8a841080613dbb57508a155b8015613dce575089831080613dce575089155b8015613dd957508515155b8015613ded57508886101580613ded575088155b15613d7157600086815260018d01602052604090206005015495965086959450613e178686614d3b565b613e21908461561c565b9250613e2d858561561c565b93508a84118015613e3d57508a15155b15613e5f57613e4c8b85615605565b9150613e588683614d3b565b9050613e8b565b8983118015613e6d57508915155b15613e8b57613e7c8a84615605565b9050613e8886826141d2565b91505b613e958c87612667565b9550613daf565b613ea4615195565b600083815260018501602052604090206005810154831115613f2e5760405162461bcd60e51b815260206004820152603960248201527f4f7264657253746174697374696373547265652834313029202d20416d6f756e60448201527f7420746f2066696c6c20697320696e73756666696369656e740000000000000060648201526084016115bd565b60038082015465ffffffffffff61010090910481166000818152600685016020908152604091829020825160c08101845281548087168252600160301b8104871693820193909352600160601b9092049094169181019190915260018301546001600160a01b0316606082015260028301546080820152919092015460a082015284915b65ffffffffffff811615801590613fc857508215155b1561412a5765ffffffffffff8082166000908152600686016020908152604091829020825160c08101845281548086168252600160301b8104861693820193909352600160601b9092049093169181019190915260018201546001600160a01b031660608201526002820154608082015260039091015460a08201819052909250831061406c5760a082015161405e9084615605565b925081602001519050613fb2565b6040518060800160405280836000015165ffffffffffff16815260200183606001516001600160a01b031681526020018481526020016140ac8986614d3b565b905260409283015165ffffffffffff908116600090815260068701602090815290859020855160c08101875281548085168252600160301b8104851693820193909352600160601b9092049092169481019490945260018101546001600160a01b03166060850152600281015460808501526003015460a084015294505b815165ffffffffffff161561414a5761414888888460000151614d4d565b505b6040850151156141c757604080860151600089815260018b016020908152838220895165ffffffffffff1683526006019052918220600301805491929091614193908490615605565b9091555050604080860151600089815260018b016020529182206005018054919290916141c1908490615605565b90915550505b505050509392505050565b6000612a1f612710610c4585856155e6565b8054600090815260018201602052604090206002015415801561421b57508054600090815260018083016020526040909120015415155b15614274578054600090815260018083016020526040808320909101548252902060020154156142665780546000908152600180830160205260409091200154614266908290614f33565b61427481826000015461500b565b8054600090815260018201602052604090206003015460ff16156142b057805460009081526001820160205260409020600301805460ff191690555b50565b805460009081526001808301602052604090912001541580156142ea57508054600090815260018201602052604090206002015415155b15614274578054600090815260018083016020526040808320600201548352909120015415614334578054600090815260018201602052604090206002015461433490829061500b565b614274818260000154614f33565b6000918252600190920160205260409020600301805465ffffffffffff9092166101000266ffffffffffff0019909216919091179055565b6000918252600190920160205260409020600301805465ffffffffffff909216600160381b026cffffffffffff0000000000000019909216919091179055565b60005b825482148015906143e75750600082815260018401602052604080822054825290206003015460ff165b1561460357600082815260018085016020526040808320548084528184205484529220015481141561450a5760008181526001850160205260408082205482528082206002015480835291206003015490925060ff1615614490576000818152600180860160205260408083206003808201805460ff199081169091558786528386208201805482169055825486529285200180549092169092179055908290525492506145fd565b60008181526001850160205260409020600201548314156144b8578092506144b88484614f33565b50600082815260018085016020526040808320548084528184206003808201805460ff1990811690915582548752938620018054909316909317909155918290525461450590859061500b565b6145fd565b6000818152600180860160205260408083205483528083209091015480835291206003015490925060ff1615614588576000818152600180860160205260408083206003808201805460ff199081169091558786528386208201805482169055825486529285200180549092169092179055908290525492506145fd565b60008181526001808601602052604090912001548314156145b0578092506145b0848461500b565b50600082815260018085016020526040808320548084528184206003808201805460ff199081169091558254875293862001805490931690931790915591829052546145fd908590614f33565b506143bd565b505080546000908152600190910160205260409020600301805460ff19169055565b60008481526001860160205260408120906146438787878787614695565b90506146678787838560030160019054906101000a900465ffffffffffff16614835565b614672878783614342565b6003820154600160381b900465ffffffffffff166134d1576134d187878361437a565b6000848152600186016020908152604080832065ffffffffffff8716845260068101909252822060020154156147285760405162461bcd60e51b815260206004820152603260248201527f4f7264657253746174697374696373547265652834303929202d204f726465726044820152711034b21030b63932b0b23c9032bc34b9ba1760711b60648201526084016115bd565b600181600401600082825461473d919061561c565b9250508190555082816005016000828254614758919061561c565b90915550506040805160c08101825265ffffffffffff808816808352600060208085018281528587018381526001600160a01b03808d16606089019081524260808a0190815260a08a018e81529787526006909b019094529790932095518654915193518616600160601b0265ffffffffffff60601b19948716600160301b026bffffffffffffffffffffffff199093169682169690961791909117929092169390931784559151600184018054919095166001600160a01b03199091161790935592516002820155905160039091015590505b95945050505050565b60009283526001939093016020908152604080842065ffffffffffff938416808652600690910190925280842080546bffffffffffff0000000000001916600160301b9490961693840295909517909455908252919020805465ffffffffffff60601b1916600160601b909202919091179055565b6000818152600184016020526040808220548483529120819055806148d157828455612b76565b60008181526001808601602052604090912001548214156149075760008181526001808601602052604090912001839055612b76565b600090815260019390930160205250604090912060020155565b60005b825482148015906149495750600082815260018401602052604090206003015460ff16155b15614d1c576000828152600180850160205260408083205480845292200154831415614b455760008181526001850160205260408082206002015480835291206003015490925060ff16156149ed576000828152600180860160205260408083206003908101805460ff199081169091558585529190932090920180549092161790556149d68482614f33565b600081815260018501602052604090206002015491505b60008281526001808601602052604080832090910154825290206003015460ff16158015614a385750600082815260018501602052604080822060020154825290206003015460ff16155b15614a6557600082815260018581016020526040909120600301805460ff19169091179055915081614d16565b600082815260018501602052604080822060020154825290206003015460ff16614ae2576000828152600180860160205260408083208083015484529083206003908101805460ff1990811690915593869052018054909216179055614acb848361500b565b600081815260018501602052604090206002015491505b600081815260018501602052604080822060039081018054868552838520808401805460ff909316151560ff199384161790558254821690925560029091015484529190922090910180549091169055614b3c8482614f33565b83549250614d16565b6000818152600180860160205260408083209091015480835291206003015490925060ff1615614bc4576000828152600180860160205260408083206003908101805460ff19908116909155858552919093209092018054909216179055614bad848261500b565b600081815260018086016020526040909120015491505b600082815260018501602052604080822060020154825290206003015460ff16158015614c0f575060008281526001808601602052604080832090910154825290206003015460ff16155b15614c3c57600082815260018581016020526040909120600301805460ff19169091179055915081614d16565b60008281526001808601602052604080832090910154825290206003015460ff16614cbb57600082815260018086016020526040808320600281015484529083206003908101805460ff1990811690915593869052018054909216179055614ca48483614f33565b600081815260018086016020526040909120015491505b60008181526001808601602052604080832060039081018054878652838620808401805460ff909316151560ff19938416179055825482169092559301548452922090910180549091169055614d11848261500b565b835492505b50614924565b506000908152600190910160205260409020600301805460ff19169055565b6000612a1f83610c45612710856155e6565b6000614d5a848484612d00565b614d765760405162461bcd60e51b81526004016115bd90615692565b50600082815260018085016020908152604080842065ffffffffffff808716865260068201808552838720845160c08101865281548085168252600160301b8104851682890152600160601b9004841681870152818801546001600160a01b031660608201526002820154608082015260039182015460a08201819052828601546101009004909416808a529290965293909620909201549194909390915b8665ffffffffffff168314614e7957600092835260068501602052604090922054600160301b900465ffffffffffff169181614e50816155cb565b6000858152600688016020526040902060030154909350614e7291508261561c565b9050614e15565b600385015465ffffffffffff888116600160381b909204161415614eb457614ea389896000614342565b614eaf8989600061437a565b614ef2565b614ec389898660200151614342565b60208085015165ffffffffffff1660009081526006870190915260409020805465ffffffffffff60601b191690555b81856004016000828254614f069190615605565b9250508190555080856005016000828254614f219190615605565b90915550959998505050505050505050565b600081815260018084016020526040808320600281018054915482865292852090930154938590529183905590918015614f7b57600081815260018601602052604090208490555b6000838152600186016020526040902082905581614f9b57828555614fe8565b6000828152600180870160205260409091200154841415614fd15760008281526001808701602052604090912001839055614fe8565b600082815260018601602052604090206002018390555b505060008181526001938401602052604080822090940183905591825291902055565b6000818152600180840160205260408083209182018054925483855291842060020154938590528390559091801561505157600081815260018601602052604090208490555b6000838152600186016020526040902082905581615071578285556150be565b60008281526001860160205260409020600201548414156150a757600082815260018601602052604090206002018390556150be565b600082815260018087016020526040909120018390555b5050600081815260019093016020526040808420600201839055918352912055565b828054828255906000526020600020906004016005900481019282156151855791602002820160005b8382111561515157835183826101000a81548165ffffffffffff021916908365ffffffffffff1602179055509260200192600601602081600501049283019260010302615109565b80156151835782816101000a81549065ffffffffffff0219169055600601602081600501049283019260010302615151565b505b506151919291506151ce565b5090565b6040518060800160405280600065ffffffffffff16815260200160006001600160a01b0316815260200160008152602001600081525090565b5b8082111561519157600081556001016151cf565b80356002811061262e57600080fd5b80356001600160a01b038116811461262e57600080fd5b6000806000806080858703121561521f57600080fd5b615228856151e3565b9350615236602086016151f2565b93969395505050506040820135916060013590565b60006020828403121561525d57600080fd5b5035919050565b600081518084526020808501945080840160005b8381101561529457815187529582019590820190600101615278565b509495945050505050565b6060815260006152b26060830186615264565b82810360208401526152c48186615264565b905082810360408401526152d88185615264565b9695505050505050565b600080604083850312156152f557600080fd5b50508035926020909101359150565b60006020828403121561531657600080fd5b612a1f826151f2565b600081518084526020808501945080840160005b8381101561529457815165ffffffffffff1687529582019590820190600101615333565b60808152600061536a608083018761531f565b6020830195909552506040810192909252606090910152919050565b803565ffffffffffff8116811461262e57600080fd5b600080604083850312156153af57600080fd5b6153b8836151f2565b91506153c660208401615386565b90509250929050565b634e487b7160e01b600052602160045260246000fd5b6002811061540357634e487b7160e01b600052602160045260246000fd5b9052565b6060810161541582866153e5565b602082019390935260400152919050565b60006020828403121561543857600080fd5b612a1f82615386565b60e0810161544f828a6153e5565b602082019790975260408101959095526001600160a01b03939093166060850152608084019190915260a0830152151560c090910152919050565b60408152600061549d604083018561531f565b828103602084015261482c818561531f565b600080600080608085870312156154c557600080fd5b6154ce856151e3565b966020860135965060408601359560600135945092505050565b6000806000606084860312156154fd57600080fd5b615506846151e3565b95602085013595506040909401359392505050565b84518152602080860151818301526040808701518184015260608088015181850152865165ffffffffffff166080850152918601516001600160a01b031660a084015285015160c083015284015160e08201526101008101839052811515610120820152610140810161482c565b634e487b7160e01b600052604160045260246000fd5b634e487b7160e01b600052603260045260246000fd5b634e487b7160e01b600052601160045260246000fd5b60006000198214156155df576155df6155b5565b5060010190565b6000816000190483118215151615615600576156006155b5565b500290565b600082821015615617576156176155b5565b500390565b6000821982111561562f5761562f6155b5565b500190565b600065ffffffffffff80831681811415615650576156506155b5565b6001019392505050565b60008261567757634e487b7160e01b600052601260045260246000fd5b500490565b634e487b7160e01b600052603160045260246000fd5b60208082526030908201527f4f7264657253746174697374696373547265652834313029202d204f7264657260408201526f103237b2b9903737ba1032bc34b9ba1760811b60608201526080019056fea2646970667358221220e574ac5756689cde6bb998a916a07684184138129c97192bf1026cf58a4674d264736f6c63430008090033",
  "devdoc": {
    "kind": "dev",
    "methods": {},
    "version": 1
  },
  "userdoc": {
    "kind": "user",
    "methods": {},
    "version": 1
  },
  "storageLayout": {
    "storage": [],
    "types": null
  }
}