{
  "address": "0x7aF50fD21c40ab3128927b9a4E4368922c609B78",
  "abi": [
    {
      "inputs": [
        {
          "internalType": "enum ProtocolTypes.Side",
          "name": "_side",
          "type": "ProtocolTypes.Side"
        },
        {
          "internalType": "uint256",
          "name": "_futureValue",
          "type": "uint256"
        }
      ],
      "name": "estimateFilledAmount",
      "outputs": [
        {
          "internalType": "uint256",
          "name": "amount",
          "type": "uint256"
        }
      ],
      "stateMutability": "view",
      "type": "function"
    },
    {
      "inputs": [
        {
          "internalType": "address",
          "name": "_user",
          "type": "address"
        }
      ],
      "name": "getActiveBorrowOrderIds",
      "outputs": [
        {
          "internalType": "uint48[]",
          "name": "activeOrderIds",
          "type": "uint48[]"
        },
        {
          "internalType": "uint48[]",
          "name": "inActiveOrderIds",
          "type": "uint48[]"
        }
      ],
      "stateMutability": "view",
      "type": "function"
    },
    {
      "inputs": [
        {
          "internalType": "address",
          "name": "_user",
          "type": "address"
        }
      ],
      "name": "getActiveLendOrderIds",
      "outputs": [
        {
          "internalType": "uint48[]",
          "name": "activeOrderIds",
          "type": "uint48[]"
        },
        {
          "internalType": "uint48[]",
          "name": "inActiveOrderIds",
          "type": "uint48[]"
        }
      ],
      "stateMutability": "view",
      "type": "function"
    },
    {
      "inputs": [
        {
          "internalType": "uint256",
          "name": "_limit",
          "type": "uint256"
        }
      ],
      "name": "getBorrowOrderBook",
      "outputs": [
        {
          "internalType": "uint256[]",
          "name": "unitPrices",
          "type": "uint256[]"
        },
        {
          "internalType": "uint256[]",
          "name": "amounts",
          "type": "uint256[]"
        },
        {
          "internalType": "uint256[]",
          "name": "quantities",
          "type": "uint256[]"
        }
      ],
      "stateMutability": "view",
      "type": "function"
    },
    {
      "inputs": [],
      "name": "getHighestBorrowUnitPrice",
      "outputs": [
        {
          "internalType": "uint256",
          "name": "",
          "type": "uint256"
        }
      ],
      "stateMutability": "view",
      "type": "function"
    },
    {
      "inputs": [
        {
          "internalType": "uint256",
          "name": "_limit",
          "type": "uint256"
        }
      ],
      "name": "getLendOrderBook",
      "outputs": [
        {
          "internalType": "uint256[]",
          "name": "unitPrices",
          "type": "uint256[]"
        },
        {
          "internalType": "uint256[]",
          "name": "amounts",
          "type": "uint256[]"
        },
        {
          "internalType": "uint256[]",
          "name": "quantities",
          "type": "uint256[]"
        }
      ],
      "stateMutability": "view",
      "type": "function"
    },
    {
      "inputs": [],
      "name": "getLowestLendUnitPrice",
      "outputs": [
        {
          "internalType": "uint256",
          "name": "",
          "type": "uint256"
        }
      ],
      "stateMutability": "view",
      "type": "function"
    },
    {
      "inputs": [
        {
          "internalType": "uint48",
          "name": "_orderId",
          "type": "uint48"
        }
      ],
      "name": "getOrder",
      "outputs": [
        {
          "internalType": "enum ProtocolTypes.Side",
          "name": "side",
          "type": "ProtocolTypes.Side"
        },
        {
          "internalType": "uint256",
          "name": "unitPrice",
          "type": "uint256"
        },
        {
          "internalType": "uint256",
          "name": "maturity",
          "type": "uint256"
        },
        {
          "internalType": "address",
          "name": "maker",
          "type": "address"
        },
        {
          "internalType": "uint256",
          "name": "amount",
          "type": "uint256"
        },
        {
          "internalType": "uint256",
          "name": "timestamp",
          "type": "uint256"
        }
      ],
      "stateMutability": "view",
      "type": "function"
    },
    {
      "inputs": [
        {
          "internalType": "address",
          "name": "_user",
          "type": "address"
        }
      ],
      "name": "getTotalAmountFromBorrowOrders",
      "outputs": [
        {
          "internalType": "uint256",
          "name": "activeAmount",
          "type": "uint256"
        },
        {
          "internalType": "uint256",
          "name": "inactiveAmount",
          "type": "uint256"
        },
        {
          "internalType": "uint256",
          "name": "inactiveFutureValue",
          "type": "uint256"
        },
        {
          "internalType": "uint256",
          "name": "maturity",
          "type": "uint256"
        }
      ],
      "stateMutability": "view",
      "type": "function"
    },
    {
      "inputs": [
        {
          "internalType": "address",
          "name": "_user",
          "type": "address"
        }
      ],
      "name": "getTotalAmountFromLendOrders",
      "outputs": [
        {
          "internalType": "uint256",
          "name": "activeAmount",
          "type": "uint256"
        },
        {
          "internalType": "uint256",
          "name": "inactiveAmount",
          "type": "uint256"
        },
        {
          "internalType": "uint256",
          "name": "inactiveFutureValue",
          "type": "uint256"
        },
        {
          "internalType": "uint256",
          "name": "maturity",
          "type": "uint256"
        }
      ],
      "stateMutability": "view",
      "type": "function"
    }
  ],
  "transactionHash": "0x06ec551fb70ee3baab4ff0306b2159942dd9f3f3889ef1067f367b689bb37eca",
  "args": [],
  "numDeployments": 1,
  "solcInputHash": "812031abb9c060713bf3d8062f532a78",
  "bytecode": "0x614db661003a600b82828239805160001a60731461002d57634e487b7160e01b600052600060045260246000fd5b30600052607381538281f3fe73000000000000000000000000000000000000000030146080604052600436106100ff5760003560e01c8063914551f1116100a1578063e3d904d811610070578063e3d904d8146102c8578063e7df768c146102fb578063eebc28f91461030e578063fa6127aa1461032157600080fd5b8063914551f11461026c578063a452c3f81461028c578063d866d355146102ad578063e1396d15146102c057600080fd5b806357b5758c116100dd57806357b5758c1461019257806363978ac8146101a85780636c5db843146102185780637ce219aa1461024757600080fd5b80633684d3ea146101045780634a53967b146101405780634bf62d1614610170575b600080fd5b81801561011057600080fd5b5061012461011f3660046148b9565b610334565b60405165ffffffffffff90911681526020015b60405180910390f35b81801561014c57600080fd5b5061016061015b366004614919565b61053b565b6040516101379493929190614986565b61018361017e3660046149b5565b61078e565b604051610137939291906149fe565b61019a610a42565b604051908152602001610137565b8180156101b457600080fd5b506101c86101c3366004614a41565b610a78565b60408051845165ffffffffffff1681526020808601516001600160a01b031690820152848201519181019190915260609384015193810193909352608083019190915260a082015260c001610137565b81801561022457600080fd5b50610238610233366004614a8a565b610b4a565b60405161013793929190614af5565b61025a610255366004614b14565b610ce8565b60405161013796959493929190614b2f565b81801561027857600080fd5b50610160610287366004614919565b610e77565b61029f61029a366004614b6e565b6110bd565b604051610137929190614b89565b6101836102bb3660046149b5565b611419565b61019a611660565b6102db6102d6366004614b6e565b61166d565b604080519485526020850193909352918301526060820152608001610137565b6102db610309366004614b6e565b611916565b61029f61031c366004614b6e565b611ba1565b61019a61032f366004614bae565b611eb0565b600061033e611f4b565b9050604051806080016040528087600181111561035d5761035d614abd565b8152602001848152602001610370611fa4565b60030154815260200142815250610385611fa4565b65ffffffffffff831660009081526007919091016020526040902081518154829060ff1916600183818111156103bd576103bd614abd565b0217905550602082015160018201556040820151600282015560609091015160039091015560008660018111156103f6576103f6614abd565b141561049f5761043d838287878661040c611fa4565b6008016000610419611fa4565b600301548152602001908152602001600020611fc89095949392919063ffffffff16565b610445611fa4565b6001600160a01b03861660009081526004919091016020908152604082208054600181018255908352912060058083049091018054919092066006026101000a65ffffffffffff8181021990921691841602179055610532565b60018660018111156104b3576104b3614abd565b1415610532576104d683828787866104c9611fa4565b6009016000610419611fa4565b6104de611fa4565b6001600160a01b0386166000908152600591820160209081526040822080546001810182559083529120828204018054929091066006026101000a65ffffffffffff81810219909316928416029190911790555b95945050505050565b6060600080600080600061054e88611ba1565b915091508161055b611fa4565b60050160008a6001600160a01b03166001600160a01b031681526020019081526020016000209080519060200190610594929190614790565b50815181519095508067ffffffffffffffff8111156105b5576105b5614bca565b6040519080825280602002602001820160405280156105de578160200160208202803683370190505b50965060005b818110156107815760006105f6611fa4565b600701600085848151811061060d5761060d614be0565b602002602001015165ffffffffffff1681526020019081526020016000206040518060800160405290816000820160009054906101000a900460ff16600181111561065a5761065a614abd565b600181111561066b5761066b614abd565b81526020016001820154815260200160028201548152602001600382015481525050905060006106d482602001518685815181106106ab576106ab614be0565b60200260200101516106bb611fa4565b60008f815260099190910160205260409020919061204a565b905061071982602001518685815181106106f0576106f0614be0565b6020026020010151610700611fa4565b60008f8152600991909101602052604090209190612105565b6107239089614c0c565b97508060a00151876107359190614c0c565b965080600001518a848151811061074e5761074e614be0565b602002602001019065ffffffffffff16908165ffffffffffff16815250505050808061077990614c24565b9150506105e4565b5050505092959194509250565b60608060608367ffffffffffffffff8111156107ac576107ac614bca565b6040519080825280602002602001820160405280156107d5578160200160208202803683370190505b5092508367ffffffffffffffff8111156107f1576107f1614bca565b60405190808252806020026020018201604052801561081a578160200160208202803683370190505b5091508367ffffffffffffffff81111561083657610836614bca565b60405190808252806020026020018201604052801561085f578160200160208202803683370190505b509050600061089361086f611fa4565b600801600061087c611fa4565b600301548152602001908152602001600020612142565b905080846000815181106108a9576108a9614be0565b6020026020010181815250506108ee816108c1611fa4565b60080160006108ce611fa4565b60030154815260200190815260200160002061218990919063ffffffff16565b8360008151811061090157610901614be0565b60200260200101818152505061094681610919611fa4565b6008016000610926611fa4565b6003015481526020019081526020016000206121a290919063ffffffff16565b8260008151811061095957610959614be0565b602090810291909101015260015b8451811015610a39578161097a57610a39565b6109b382610986611fa4565b6008016000610993611fa4565b6003015481526020019081526020016000206121bb90919063ffffffff16565b9150818582815181106109c8576109c8614be0565b6020026020010181815250506109e0826108c1611fa4565b8482815181106109f2576109f2614be0565b602002602001018181525050610a0a82610919611fa4565b838281518110610a1c57610a1c614be0565b602090810291909101015280610a3181614c24565b915050610967565b50509193909250565b6000610a73610a4f611fa4565b6009016000610a5c611fa4565b6003015481526020019081526020016000206122b5565b905090565b610a80614845565b6000806001866001811115610a9757610a97614abd565b1415610ae457610ad88585610aaa611fa4565b6008016000610ab7611fa4565b6003015481526020019081526020016000206122f79092919063ffffffff16565b94509092509050610b41565b6000866001811115610af857610af8614abd565b1415610b4157610b398585610b0b611fa4565b6009016000610b18611fa4565b60030154815260200190815260200160002061263b9092919063ffffffff16565b945090925090505b93509350939050565b600080600080610b58611fa4565b65ffffffffffff861660009081526007919091016020526040908190208151608081019092528054829060ff166001811115610b9657610b96614abd565b6001811115610ba757610ba7614abd565b81526001820154602082015260028201546040820152600390910154606090910152905060008082516001811115610be157610be1614abd565b1415610c6257610c26826020015187610bf8611fa4565b6008016000610c05611fa4565b6003015481526020019081526020016000206129369092919063ffffffff16565b9050610c5d610c33611fa4565b6001600160a01b03891660009081526004919091016020526040902065ffffffffffff8816612976565b610cd2565b600182516001811115610c7757610c77614abd565b1415610cd257610c9b826020015187610c8e611fa4565b6009016000610c05611fa4565b9050610cd2610ca8611fa4565b6001600160a01b03891660009081526005919091016020526040902065ffffffffffff8816612976565b8151602090920151919450925090509250925092565b6000806000806000806000610cfb611fa4565b65ffffffffffff891660009081526007919091016020526040908190208151608081019092528054829060ff166001811115610d3957610d39614abd565b6001811115610d4a57610d4a614abd565b815260200160018201548152602001600282015481526020016003820154815250509050610da66040805160c081018252600080825260208201819052918101829052606081018290526080810182905260a081019190915290565b600082516001811115610dbb57610dbb614abd565b1415610df657610def82602001518a610dd2611fa4565b60408087015160009081526008929092016020529020919061204a565b9050610e27565b610e2482602001518a610e07611fa4565b60408087015160009081526009929092016020529020919061204a565b90505b60608101516001600160a01b031615610e6b5781600001518260200151836040015183606001518460a0015185608001519750975097509750975097505050610e6e565b50505b91939550919395565b60606000806000806000610e8a886110bd565b9150915081610e97611fa4565b60040160008a6001600160a01b03166001600160a01b031681526020019081526020016000209080519060200190610ed0929190614790565b50815181519095508067ffffffffffffffff811115610ef157610ef1614bca565b604051908082528060200260200182016040528015610f1a578160200160208202803683370190505b50965060005b81811015610781576000610f32611fa4565b6007016000858481518110610f4957610f49614be0565b602002602001015165ffffffffffff1681526020019081526020016000206040518060800160405290816000820160009054906101000a900460ff166001811115610f9657610f96614abd565b6001811115610fa757610fa7614abd565b81526020016001820154815260200160028201548152602001600382015481525050905060006110108260200151868581518110610fe757610fe7614be0565b6020026020010151610ff7611fa4565b60008f815260089190910160205260409020919061204a565b9050611055826020015186858151811061102c5761102c614be0565b602002602001015161103c611fa4565b60008f8152600891909101602052604090209190612105565b61105f9089614c0c565b97508060a00151876110719190614c0c565b965080600001518a848151811061108a5761108a614be0565b602002602001019065ffffffffffff16908165ffffffffffff1681525050505080806110b590614c24565b915050610f20565b60608060008060006110cd611fa4565b600301546110d9611fa4565b6001600160a01b03881660009081526006919091016020526040902054141590508061112957611107611fa4565b6001600160a01b0387166000908152600491909101602052604090205461112c565b60005b67ffffffffffffffff81111561114457611144614bca565b60405190808252806020026020018201604052801561116d578160200160208202803683370190505b509450611178611fa4565b6001600160a01b0387166000908152600491909101602052604090205467ffffffffffffffff8111156111ad576111ad614bca565b6040519080825280602002602001820160405280156111d6578160200160208202803683370190505b50935060005b6111e4611fa4565b6001600160a01b03881660009081526004919091016020526040902054811015611410576000611212611fa4565b6001600160a01b03891660009081526004919091016020526040902080548390811061124057611240614be0565b90600052602060002090600591828204019190066006029054906101000a900465ffffffffffff1690506000611274611fa4565b65ffffffffffff831660009081526007919091016020526040908190208151608081019092528054829060ff1660018111156112b2576112b2614abd565b60018111156112c3576112c3614abd565b8152602001600182015481526020016002820154815260200160038201548152505090506113498160200151836112f8611fa4565b6008016000611305611fa4565b60060160008f6001600160a01b03166001600160a01b03168152602001908152602001600020548152602001908152602001600020612acc9092919063ffffffff16565b6113a657611358600186614c0c565b945081876113668886614c3f565b8151811061137657611376614be0565b602002602001019065ffffffffffff16908165ffffffffffff1681525050836113a157600188510388525b6113fb565b836113f3576113b6600187614c0c565b955081886113c48786614c3f565b815181106113d4576113d4614be0565b602002602001019065ffffffffffff16908165ffffffffffff16815250505b600187510387525b5050808061140890614c24565b9150506111dc565b50505050915091565b60608060608367ffffffffffffffff81111561143757611437614bca565b604051908082528060200260200182016040528015611460578160200160208202803683370190505b5092508367ffffffffffffffff81111561147c5761147c614bca565b6040519080825280602002602001820160405280156114a5578160200160208202803683370190505b5091508367ffffffffffffffff8111156114c1576114c1614bca565b6040519080825280602002602001820160405280156114ea578160200160208202803683370190505b50905060006114fa610a4f611fa4565b9050808460008151811061151057611510614be0565b60200260200101818152505061153581611528611fa4565b60090160006108ce611fa4565b8360008151811061154857611548614be0565b60200260200101818152505061156d81611560611fa4565b6009016000610926611fa4565b8260008151811061158057611580614be0565b602090810291909101015260015b8451811015610a3957816115a157610a39565b6115da826115ad611fa4565b60090160006115ba611fa4565b600301548152602001908152602001600020612aea90919063ffffffff16565b9150818582815181106115ef576115ef614be0565b60200260200101818152505061160782611528611fa4565b84828151811061161957611619614be0565b60200260200101818152505061163182611560611fa4565b83828151811061164357611643614be0565b60209081029190910101528061165881614c24565b91505061158e565b6000610a7361086f611fa4565b60008060008060008061167f87611ba1565b9150915060005b82518110156117b5576000611699611fa4565b60070160008584815181106116b0576116b0614be0565b602002602001015165ffffffffffff1681526020019081526020016000206040518060800160405290816000820160009054906101000a900460ff1660018111156116fd576116fd614abd565b600181111561170e5761170e614abd565b815260200160018201548152602001600282015481526020016003820154815250509050600061178c826020015186858151811061174e5761174e614be0565b602002602001015161175e611fa4565b600901600061176b611fa4565b60030154815260200190815260200160002061204a9092919063ffffffff16565b90508060a001518961179e9190614c0c565b9850505080806117ad90614c24565b915050611686565b506117be611fa4565b6001600160a01b0388166000908152600691909101602052604081205493505b815181101561190c5760006117f1611fa4565b600701600084848151811061180857611808614be0565b602002602001015165ffffffffffff1681526020019081526020016000206040518060800160405290816000820160009054906101000a900460ff16600181111561185557611855614abd565b600181111561186657611866614abd565b81526020016001820154815260200160028201548152602001600382015481525050905060006118b682602001518585815181106118a6576118a6614be0565b6020026020010151610e07611fa4565b90508060a00151886118c89190614c0c565b975081602001516127108260a001516118e19190614c56565b6118eb9190614c75565b6118f59088614c0c565b96505050808061190490614c24565b9150506117de565b5050509193509193565b600080600080600080611928876110bd565b91509150611934611fa4565b6001600160a01b0388166000908152600691909101602052604081205493505b8251811015611a62576000611967611fa4565b600701600085848151811061197e5761197e614be0565b602002602001015165ffffffffffff1681526020019081526020016000206040518060800160405290816000820160009054906101000a900460ff1660018111156119cb576119cb614abd565b60018111156119dc576119dc614abd565b8152602001600182015481526020016002820154815260200160038201548152505090506000611a398260200151868581518110611a1c57611a1c614be0565b6020026020010151611a2c611fa4565b600801600061176b611fa4565b90508060a0015189611a4b9190614c0c565b985050508080611a5a90614c24565b915050611954565b5060005b815181101561190c576000611a79611fa4565b6007016000848481518110611a9057611a90614be0565b602002602001015165ffffffffffff1681526020019081526020016000206040518060800160405290816000820160009054906101000a900460ff166001811115611add57611add614abd565b6001811115611aee57611aee614abd565b81526001820154602082015260028201546040820152600390910154606090910152905084611b1f57806040015194505b6000611b4b8260200151858581518110611b3b57611b3b614be0565b6020026020010151610dd2611fa4565b90508060a0015188611b5d9190614c0c565b975081602001516127108260a00151611b769190614c56565b611b809190614c75565b611b8a9088614c0c565b965050508080611b9990614c24565b915050611a66565b6060806000806000611bb1611fa4565b60030154611bbd611fa4565b6001600160a01b038816600090815260069190910160205260409020541415905080611c0d57611beb611fa4565b6001600160a01b03871660009081526005919091016020526040902054611c10565b60005b67ffffffffffffffff811115611c2857611c28614bca565b604051908082528060200260200182016040528015611c51578160200160208202803683370190505b509450611c5c611fa4565b6001600160a01b0387166000908152600591909101602052604090205467ffffffffffffffff811115611c9157611c91614bca565b604051908082528060200260200182016040528015611cba578160200160208202803683370190505b50935060005b611cc8611fa4565b6001600160a01b03881660009081526005919091016020526040902054811015611410576000611cf6611fa4565b6001600160a01b038916600090815260059190910160205260409020805483908110611d2457611d24614be0565b90600052602060002090600591828204019190066006029054906101000a900465ffffffffffff1690506000611d58611fa4565b65ffffffffffff831660009081526007919091016020526040908190208151608081019092528054829060ff166001811115611d9657611d96614abd565b6001811115611da757611da7614abd565b815260200160018201548152602001600282015481526020016003820154815250509050611de9816020015183611ddc611fa4565b6009016000611305611fa4565b611e4657611df8600186614c0c565b94508187611e068886614c3f565b81518110611e1657611e16614be0565b602002602001019065ffffffffffff16908165ffffffffffff168152505083611e4157600188510388525b611e9b565b83611e9357611e56600187614c0c565b95508188611e648786614c3f565b81518110611e7457611e74614be0565b602002602001019065ffffffffffff16908165ffffffffffff16815250505b600187510387525b50508080611ea890614c24565b915050611cc0565b60006001836001811115611ec657611ec6614abd565b1415611f0c57611f0582611ed8611fa4565b6008016000611ee5611fa4565b600301548152602001908152602001600020612be490919063ffffffff16565b9050611f45565b611f0582611f18611fa4565b6009016000611f25611fa4565b600301548152602001908152602001600020612ca790919063ffffffff16565b92915050565b6000611f55611fa4565b805465ffffffffffff16906000611f6b83614c97565b91906101000a81548165ffffffffffff021916908365ffffffffffff16021790555050611f96611fa4565b5465ffffffffffff16919050565b7ffc2836757f9146445fc75bc3c897a210ec004e4ee60fc8627ef5cbf2842b3d0a90565b600082116120135760405162461bcd60e51b8152602060048201526013602482015272125b9cdd59999a58da595b9d08185b5bdd5b9d606a1b60448201526064015b60405180910390fd5b61201d8686612d62565b8015612035576120308686868686612f32565b612042565b6120428686868686612fab565b505050505050565b6040805160c081018252600080825260208201819052918101829052606081018290526080810182905260a081019190915250600082815260018085016020908152604080842065ffffffffffff80871686526006909101835293819020815160c08101835281548087168252600160301b8104871694820194909452600160601b90930490941690820152908201546001600160a01b031660608201526002820154608082015260039091015460a08201525b9392505050565b6000828152600184016020908152604080832065ffffffffffff8516845260060190915281206003015461213a90849061301c565b949350505050565b80548061215157506000919050565b5b600081815260018084016020526040909120015415612184576000908152600180830160205260409091200154612152565b919050565b6000908152600191909101602052604090206005015490565b6000908152600191909101602052604090206004015490565b60008161222b5760405162461bcd60e51b815260206004820152603860248201527f4f7264657253746174697374696373547265652834303129202d205374617274604482015277696e672076616c75652063616e6e6f74206265207a65726f60401b606482015260840161200a565b600082815260018401602052604090206002015415612263576000828152600184016020526040902060020154611f05908490613035565b5060008181526001830160205260409020545b80158015906122975750600081815260018401602052604090206002015482145b15611f45576000818152600184016020526040902054909150612276565b8054806122c457506000919050565b5b6000818152600183016020526040902060020154156121845760009081526001820160205260409020600201546122c5565b600080612302614845565b8461231f5760405162461bcd60e51b815260040161200a90614cbd565b60008061232b88612142565b90506000612338896122b5565b9050600080888411158061234a575088155b6123915760405162461bcd60e51b8152602060048201526018602482015277496e73756666696369656e74206c696d69742076616c756560401b604482015260640161200a565b898110801561239f57508315155b80156123b357508815806123b35750888411155b1561242b57600084815260018c01602052604090206005015491506123d88282614c0c565b905083945060008a82116123ed5760006123f7565b6123f78b83614c3f565b6124019084614c3f565b905061240d858261301c565b612417908a614c0c565b98506124238c866121bb565b945050612391565b898110158061243957508885145b156124eb57898111156124705784935060006124558b83614c3f565b61245f9084614c3f565b905061246c8c8683613073565b9650505b60008481526001808d016020526040822090810191909155545b80156124e957848111156124d357600085815260018d01602052604090205481146124cf5760008581526001808e016020526040808320849055838352909120018590555b8094505b600090815260018c01602052604090205461248a565b505b808a1115612500576124fd818b614c3f565b96505b84831480156125205750600083815260018c016020526040902060050154155b1561252e5760008b55612562565b8a5485118061254857508a54851480156125485750808a10155b1561256257838b55600084815260018c0160205260408120555b8a5460009081526001808d016020526040909120015415801561259957508a54600090815260018c01602052604090206002015415155b156125f1578a5460009081526001808d0160205260408083206002015483529091200154156125e3578a54600090815260018c0160205260409020600201546125e3908c90613313565b6125f18b8c600001546133e8565b8a54600090815260018c01602052604090206003015460ff161561262d578a54600090815260018c0160205260409020600301805460ff191690555b505050505093509350939050565b600080612646614845565b846126635760405162461bcd60e51b815260040161200a90614cbd565b60008061266f886122b5565b9050600061267c89612142565b9050600080888410158061268e575088155b6126d55760405162461bcd60e51b8152602060048201526018602482015277496e73756666696369656e74206c696d69742076616c756560401b604482015260640161200a565b89811080156126e357508315155b80156126f757508815806126f75750888410155b1561276f57600084815260018c016020526040902060050154915061271c8282614c0c565b905083945060008a821161273157600061273b565b61273b8b83614c3f565b6127459084614c3f565b9050612751858261301c565b61275b908a614c0c565b98506127678c86612aea565b9450506126d5565b898110158061277d57508885145b1561282f57898111156127b45784935060006127998b83614c3f565b6127a39084614c3f565b90506127b08c8683613073565b9650505b600084815260018c01602052604081206002810191909155545b801561282d578481101561281757600085815260018d016020526040902054811461281357600085815260018d01602052604080822083905582825290206002018590555b8094505b600090815260018c0160205260409020546127ce565b505b808a111561284457612841818b614c3f565b96505b84831480156128645750600083815260018c016020526040902060050154155b156128725760008b556128a6565b8a5485108061288c57508a548514801561288c5750808a10155b156128a657838b55600084815260018c0160205260408120555b8a54600090815260018c0160205260409020600201541580156128dd57508a5460009081526001808d016020526040909120015415155b156125f1578a5460009081526001808d01602052604080832090910154825290206002015415612928578a5460009081526001808d0160205260409091200154612928908c906133e8565b6125f18b8c60000154613313565b6000612943848484612acc565b61295f5760405162461bcd60e51b815260040161200a90614d1a565b61296a8484846134c0565b90506120fe848461372c565b815460009061298790600190614c3f565b905060005b818111612ac657828482815481106129a6576129a6614be0565b90600052602060002090600591828204019190066006029054906101000a900465ffffffffffff1665ffffffffffff161415612ab457818114612a6d5760008483815481106129f7576129f7614be0565b90600052602060002090600591828204019190066006029054906101000a900465ffffffffffff16905080858381548110612a3457612a34614be0565b90600052602060002090600591828204019190066006026101000a81548165ffffffffffff021916908365ffffffffffff160217905550505b83805480612a7d57612a7d614d6a565b60019003818190600052602060002090600591828204019190066006026101000a81549065ffffffffffff02191690559055612ac6565b80612abe81614c24565b91505061298c565b50505050565b6000612ad98484846139e9565b801561213a575061213a8484613b32565b600081612b5a5760405162461bcd60e51b815260206004820152603860248201527f4f7264657253746174697374696373547265652834303229202d205374617274604482015277696e672076616c75652063616e6e6f74206265207a65726f60401b606482015260840161200a565b600082815260018085016020526040909120015415612b92576000828152600180850160205260409091200154611f05908490613beb565b5060008181526001830160205260409020545b8015801590612bc65750600081815260018085016020526040909120015482145b15611f45576000818152600184016020526040902054909150612ba5565b600080612bf084612142565b905060008092505b8381108015612c0657508115155b15612c9f57600082815260018601602052604081206005015490612c2a848361301c565b9050612c368184614c0c565b925085831115612c7f576000612c4c8785614c3f565b612c569083614c3f565b905081612c638285614c56565b612c6d9190614c75565b612c779087614c0c565b955050612c8c565b612c898286614c0c565b94505b612c9687856121bb565b93505050612bf8565b505092915050565b600080612cb3846122b5565b905060008092505b8381108015612cc957508115155b15612c9f57600082815260018601602052604081206005015490612ced848361301c565b9050612cf98184614c0c565b925085831115612d42576000612d0f8785614c3f565b612d199083614c3f565b905081612d268285614c56565b612d309190614c75565b612d3a9087614c0c565b955050612d4f565b612d4c8286614c0c565b94505b612d598785612aea565b93505050612cbb565b80612dd55760405162461bcd60e51b815260206004820152603960248201527f4f7264657253746174697374696373547265652834303529202d2056616c756560448201527f20746f20696e736572742063616e6e6f74206265207a65726f00000000000000606482015260840161200a565b81546000905b8015612e395780915080831015612e05576000908152600180850160205260409091200154612ddb565b80831115612e26576000908152600184016020526040902060020154612ddb565b80831415612e345750505050565b612ddb565b6000838152600185016020526040902084541580612e88575060008381526001808701602052604090912001548414801590612e88575060008381526001860160205260409020600201548414155b15612eb65760006004820181905560058201819055612eaa9086908690613c22565b612eb685856000613c5a565b82815560006001808301829055600283019190915560038201805460ff1916909117905582612ee757838555612f21565b82841015612f0a5760008381526001808701602052604090912001849055612f21565b600083815260018601602052604090206002018490555b612f2b8585613c9a565b5050505050565b6000848152600186016020526040812090612f508787878787613f05565b9050612f748787838560030160019054906101000a900465ffffffffffff166140a4565b612f7f878783613c22565b6003820154600160381b900465ffffffffffff16612fa257612fa2878783613c5a565b50505050505050565b600084815260018601602052604090206003810154610100900465ffffffffffff16612fde576120308686868686612f32565b6000612fed8787878787613f05565b905061301187878460030160079054906101000a900465ffffffffffff16846140a4565b612fa2878783613c5a565b60008261302b61271084614c56565b6120fe9190614c75565b60005b60008281526001808501602052604090912001541561306d576000918252600180840160205260409092209091015490613038565b50919050565b61307b614845565b6000838152600185016020526040902060058101548311156131055760405162461bcd60e51b815260206004820152603960248201527f4f7264657253746174697374696373547265652834313029202d20416d6f756e60448201527f7420746f2066696c6c20697320696e73756666696369656e7400000000000000606482015260840161200a565b60038082015465ffffffffffff610100909104811660008181526006850160209081526040808320815160c08101835281548088168252600160301b8104881694820194909452600160601b9093049095169082015260018401546001600160a01b0316606082015260028401546080820152929093015460a0830152859291905b65ffffffffffff81161580159061319d57508315155b156132a25765ffffffffffff8082166000908152600687016020908152604091829020825160c08101845281548086168252600160301b8104861693820193909352600160601b9092049093169181019190915260018201546001600160a01b031660608201526002820154608082015260039091015460a0820181905290925084106132415760a08201516132339085614c3f565b935081602001519050613290565b6040518060800160405280836000015165ffffffffffff16815260200183606001516001600160a01b03168152602001858460a001516132819190614c3f565b81526020018990529550600093505b8261329a81614c24565b935050613187565b6132b189898460000151614119565b5060408601511561330757600088815260018a0160209081526040808320855165ffffffffffff1684526006019091528082209088015160038201805492939192909190613300908490614c3f565b9091555050505b50505050509392505050565b6000818152600180840160205260408083209182018054925483855291842060020154938590528390559091801561335957600081815260018601602052604090208490555b6000838152600186016020526040902082905581613379578285556133c6565b60008281526001860160205260409020600201548414156133af57600082815260018601602052604090206002018390556133c6565b600082815260018087016020526040909120018390555b5050600081815260019093016020526040808420600201839055918352912055565b60008181526001808401602052604080832060028101805491548286529285209093015493859052918390559091801561343057600081815260018601602052604090208490555b60008381526001860160205260409020829055816134505782855561349d565b6000828152600180870160205260409091200154841415613486576000828152600180870160205260409091200183905561349d565b600082815260018601602052604090206002018390555b505060008181526001938401602052604080822090940183905591825291902055565b60006134cd848484612acc565b6134e95760405162461bcd60e51b815260040161200a90614d1a565b50600082815260018085016020908152604080842065ffffffffffff80871680875260068301855295839020835160c08101855281548084168252600160301b8104841696820196909652600160601b909504821693850193909352938201546001600160a01b031660608401526002820154608084015260039182015460a0840181905291810154919490936101009092049091161480156135a15750600382015465ffffffffffff858116600160381b90920416145b156135c3576135b286866000613c22565b6135be86866000613c5a565b613695565b600382015465ffffffffffff858116610100909204161415613621576135ee86868360200151613c22565b60208082015165ffffffffffff1660009081526006840190915260409020805465ffffffffffff60601b19169055613695565b600382015465ffffffffffff858116600160381b9092041614156136815761364e86868360400151613c5a565b60408082015165ffffffffffff166000908152600684016020522080546bffffffffffff00000000000019169055613695565b6136958686836040015184602001516140a4565b805165ffffffffffff1660009081526006830160205260408120805471ffffffffffffffffffffffffffffffffffff19168155600180820180546001600160a01b0319169055600282018390556003909101829055600484018054919290916136ff908490614c3f565b909155505060a081015160058301805460009061371d908490614c3f565b90915550929695505050505050565b8061379f5760405162461bcd60e51b815260206004820152603960248201527f4f7264657253746174697374696373547265652834303729202d2056616c756560448201527f20746f2064656c6574652063616e6e6f74206265207a65726f00000000000000606482015260840161200a565b6000818152600183016020526040812060048101549091908190612f2b57600084815260018087016020526040909120015415806137ee57506000848152600186016020526040902060020154155b156137fa575082613842565b5060008381526001850160205260409020600201545b600081815260018087016020526040909120015415613842576000908152600180860160205260409091200154613810565b600081815260018087016020526040909120015415613876576000818152600180870160205260409091200154915061388d565b600081815260018601602052604090206002015491505b600081815260018601602052604080822054848352912081905580156138fe5760008181526001808801602052604090912001548214156138e35760008181526001808801602052604090912001839055613902565b60008181526001870160205260409020600201839055613902565b8286555b600082815260018701602052604090206003015460ff161585831461398c5761392c8784886142ff565b60008681526001888101602052604080832080830154878552828520938401819055845281842087905560028082015490840181905584529083208690556003908101549286905201805460ff191660ff90921615159190911790559194915b801561399c5761399c8785614376565b50506000818152600180870160205260408220828155908101829055600281018290556003810180546cffffffffffffffffffffffffff1916905560048101829055600501555050505050565b600082815260018085016020908152604080842065ffffffffffff808716808752600683018552838720845160c0810186528154808516808352600160301b8204861698830198909852600160601b900490931694830194909452948301546001600160a01b031660608201526002830154608082015260039092015460a08301528593909214613a8057600093505050506120fe565b5b604081015165ffffffffffff1615613b135760409081015165ffffffffffff808216600090815260068501602090815290849020845160c08101865281548085168252600160301b8104851693820193909352600160601b9092049092169381019390935260018101546001600160a01b03166060840152600281015460808401526003015460a08301529250613a81565b5060030154610100900465ffffffffffff908116911614949350505050565b600081613b4157506000611f45565b8254821415613b5257506001611f45565b815b600081815260018501602052604090205415613be15760008181526001808601602052604080832054808452922001548214801590613ba6575060008181526001860160205260409020600201548214155b15613bb657600092505050611f45565b8454811415613bca57600192505050611f45565b506000908152600184016020526040902054613b54565b5060009392505050565b60005b60008281526001840160205260409020600201541561306d5760009182526001830160205260409091206002015490613bee565b6000918252600190920160205260409020600301805465ffffffffffff9092166101000266ffffffffffff0019909216919091179055565b6000918252600190920160205260409020600301805465ffffffffffff909216600160381b026cffffffffffff0000000000000019909216919091179055565b60005b82548214801590613cc75750600082815260018401602052604080822054825290206003015460ff165b15613ee3576000828152600180850160205260408083205480845281842054845292200154811415613dea5760008181526001850160205260408082205482528082206002015480835291206003015490925060ff1615613d70576000818152600180860160205260408083206003808201805460ff19908116909155878652838620820180548216905582548652928520018054909216909217905590829052549250613edd565b6000818152600185016020526040902060020154831415613d9857809250613d9884846133e8565b50600082815260018085016020526040808320548084528184206003808201805460ff19908116909155825487529386200180549093169093179091559182905254613de5908590613313565b613edd565b6000818152600180860160205260408083205483528083209091015480835291206003015490925060ff1615613e68576000818152600180860160205260408083206003808201805460ff19908116909155878652838620820180548216905582548652928520018054909216909217905590829052549250613edd565b6000818152600180860160205260409091200154831415613e9057809250613e908484613313565b50600082815260018085016020526040808320548084528184206003808201805460ff19908116909155825487529386200180549093169093179091559182905254613edd9085906133e8565b50613c9d565b505080546000908152600190910160205260409020600301805460ff19169055565b6000848152600186016020908152604080832065ffffffffffff871684526006810190925282206002015415613f985760405162461bcd60e51b815260206004820152603260248201527f4f7264657253746174697374696373547265652834303929202d204f726465726044820152711034b21030b63932b0b23c9032bc34b9ba1760711b606482015260840161200a565b6001816004016000828254613fad9190614c0c565b9250508190555082816005016000828254613fc89190614c0c565b90915550506040805160c08101825265ffffffffffff808816808352600060208085018281528587018381526001600160a01b03808d16606089019081524260808a0190815260a08a018e81529787526006909b019094529790932095518654915193518616600160601b0265ffffffffffff60601b19948716600160301b026bffffffffffffffffffffffff199093169682169690961791909117929092169390931784559151600184018054919095166001600160a01b031990911617909355925160028201559051600390910155905095945050505050565b60009283526001939093016020908152604080842065ffffffffffff938416808652600690910190925280842080546bffffffffffff0000000000001916600160301b9490961693840295909517909455908252919020805465ffffffffffff60601b1916600160601b909202919091179055565b6000614126848484612acc565b6141425760405162461bcd60e51b815260040161200a90614d1a565b50600082815260018085016020908152604080842065ffffffffffff808716865260068201808552838720845160c08101865281548085168252600160301b8104851682890152600160601b9004841681870152818801546001600160a01b031660608201526002820154608082015260039182015460a08201819052828601546101009004909416808a529290965293909620909201549194909390915b8665ffffffffffff16831461424557600092835260068501602052604090922054600160301b900465ffffffffffff16918161421c81614c24565b600085815260068801602052604090206003015490935061423e915082614c0c565b90506141e1565b600385015465ffffffffffff888116600160381b9092041614156142805761426f89896000613c22565b61427b89896000613c5a565b6142be565b61428f89898660200151613c22565b60208085015165ffffffffffff1660009081526006870190915260409020805465ffffffffffff60601b191690555b818560040160008282546142d29190614c3f565b92505081905550808560050160008282546142ed9190614c3f565b90915550959998505050505050505050565b60008181526001840160205260408082205484835291208190558061432657828455612ac6565b600081815260018086016020526040909120015482141561435c5760008181526001808601602052604090912001839055612ac6565b600090815260019390930160205250604090912060020155565b60005b8254821480159061439e5750600082815260018401602052604090206003015460ff16155b1561477157600082815260018085016020526040808320548084529220015483141561459a5760008181526001850160205260408082206002015480835291206003015490925060ff1615614442576000828152600180860160205260408083206003908101805460ff1990811690915585855291909320909201805490921617905561442b84826133e8565b600081815260018501602052604090206002015491505b60008281526001808601602052604080832090910154825290206003015460ff1615801561448d5750600082815260018501602052604080822060020154825290206003015460ff16155b156144ba57600082815260018581016020526040909120600301805460ff1916909117905591508161476b565b600082815260018501602052604080822060020154825290206003015460ff16614537576000828152600180860160205260408083208083015484529083206003908101805460ff19908116909155938690520180549092161790556145208483613313565b600081815260018501602052604090206002015491505b600081815260018501602052604080822060039081018054868552838520808401805460ff909316151560ff19938416179055825482169092556002909101548452919092209091018054909116905561459184826133e8565b8354925061476b565b6000818152600180860160205260408083209091015480835291206003015490925060ff1615614619576000828152600180860160205260408083206003908101805460ff199081169091558585529190932090920180549092161790556146028482613313565b600081815260018086016020526040909120015491505b600082815260018501602052604080822060020154825290206003015460ff16158015614664575060008281526001808601602052604080832090910154825290206003015460ff16155b1561469157600082815260018581016020526040909120600301805460ff1916909117905591508161476b565b60008281526001808601602052604080832090910154825290206003015460ff1661471057600082815260018086016020526040808320600281015484529083206003908101805460ff19908116909155938690520180549092161790556146f984836133e8565b600081815260018086016020526040909120015491505b60008181526001808601602052604080832060039081018054878652838620808401805460ff909316151560ff199384161790558254821690925593015484529220909101805490911690556147668482613313565b835492505b50614379565b506000908152600190910160205260409020600301805460ff19169055565b828054828255906000526020600020906004016005900481019282156148355791602002820160005b8382111561480157835183826101000a81548165ffffffffffff021916908365ffffffffffff16021790555092602001926006016020816005010492830192600103026147b9565b80156148335782816101000a81549065ffffffffffff0219169055600601602081600501049283019260010302614801565b505b5061484192915061487e565b5090565b6040518060800160405280600065ffffffffffff16815260200160006001600160a01b0316815260200160008152602001600081525090565b5b80821115614841576000815560010161487f565b80356002811061218457600080fd5b80356001600160a01b038116811461218457600080fd5b600080600080600060a086880312156148d157600080fd5b6148da86614893565b94506148e8602087016148a2565b935060408601359250606086013591506080860135801515811461490b57600080fd5b809150509295509295909350565b6000806040838503121561492c57600080fd5b614935836148a2565b946020939093013593505050565b600081518084526020808501945080840160005b8381101561497b57815165ffffffffffff1687529582019590820190600101614957565b509495945050505050565b6080815260006149996080830187614943565b6020830195909552506040810192909252606090910152919050565b6000602082840312156149c757600080fd5b5035919050565b600081518084526020808501945080840160005b8381101561497b578151875295820195908201906001016149e2565b606081526000614a1160608301866149ce565b8281036020840152614a2381866149ce565b90508281036040840152614a3781856149ce565b9695505050505050565b600080600060608486031215614a5657600080fd5b614a5f84614893565b95602085013595506040909401359392505050565b803565ffffffffffff8116811461218457600080fd5b60008060408385031215614a9d57600080fd5b614aa6836148a2565b9150614ab460208401614a74565b90509250929050565b634e487b7160e01b600052602160045260246000fd5b60028110614af157634e487b7160e01b600052602160045260246000fd5b9052565b60608101614b038286614ad3565b602082019390935260400152919050565b600060208284031215614b2657600080fd5b6120fe82614a74565b60c08101614b3d8289614ad3565b602082019690965260408101949094526001600160a01b03929092166060840152608083015260a090910152919050565b600060208284031215614b8057600080fd5b6120fe826148a2565b604081526000614b9c6040830185614943565b82810360208401526105328185614943565b60008060408385031215614bc157600080fd5b61493583614893565b634e487b7160e01b600052604160045260246000fd5b634e487b7160e01b600052603260045260246000fd5b634e487b7160e01b600052601160045260246000fd5b60008219821115614c1f57614c1f614bf6565b500190565b6000600019821415614c3857614c38614bf6565b5060010190565b600082821015614c5157614c51614bf6565b500390565b6000816000190483118215151615614c7057614c70614bf6565b500290565b600082614c9257634e487b7160e01b600052601260045260246000fd5b500490565b600065ffffffffffff80831681811415614cb357614cb3614bf6565b6001019392505050565b60208082526038908201527f4f7264657253746174697374696373547265652834303829202d20416d6f756e60408201527f7420746f2064726f702063616e6e6f74206265207a65726f0000000000000000606082015260800190565b60208082526030908201527f4f7264657253746174697374696373547265652834313029202d204f7264657260408201526f103237b2b9903737ba1032bc34b9ba1760811b606082015260800190565b634e487b7160e01b600052603160045260246000fdfea26469706673582212204605a55286846a69e8f9a56f36f277315ab84f1049dba23b6ee6f8bde68b960b64736f6c63430008090033",
  "devdoc": {
    "kind": "dev",
    "methods": {},
    "version": 1
  },
  "userdoc": {
    "kind": "user",
    "methods": {},
    "version": 1
  },
  "storageLayout": {
    "storage": [],
    "types": null
  }
}