{
  "address": "0x71D2addE46a5f228950D416c570Deb4a87409E8e",
  "abi": [
    {
      "inputs": [
        {
          "internalType": "uint8",
          "name": "_orderBookId",
          "type": "uint8"
        },
        {
          "internalType": "enum ProtocolTypes.Side",
          "name": "_side",
          "type": "ProtocolTypes.Side"
        },
        {
          "internalType": "uint256",
          "name": "_amount",
          "type": "uint256"
        },
        {
          "internalType": "uint256",
          "name": "_unitPrice",
          "type": "uint256"
        }
      ],
      "name": "calculateFilledAmount",
      "outputs": [
        {
          "internalType": "uint256",
          "name": "lastUnitPrice",
          "type": "uint256"
        },
        {
          "internalType": "uint256",
          "name": "filledAmount",
          "type": "uint256"
        },
        {
          "internalType": "uint256",
          "name": "filledAmountInFV",
          "type": "uint256"
        },
        {
          "internalType": "uint256",
          "name": "orderFeeInFV",
          "type": "uint256"
        },
        {
          "internalType": "uint256",
          "name": "placedAmount",
          "type": "uint256"
        }
      ],
      "stateMutability": "view",
      "type": "function"
    },
    {
      "inputs": [
        {
          "internalType": "uint256",
          "name": "_maturity",
          "type": "uint256"
        },
        {
          "internalType": "uint256",
          "name": "_amount",
          "type": "uint256"
        }
      ],
      "name": "calculateOrderFeeAmount",
      "outputs": [
        {
          "internalType": "uint256",
          "name": "orderFeeAmount",
          "type": "uint256"
        }
      ],
      "stateMutability": "view",
      "type": "function"
    },
    {
      "inputs": [
        {
          "internalType": "uint8",
          "name": "_orderBookId",
          "type": "uint8"
        },
        {
          "internalType": "address",
          "name": "_user",
          "type": "address"
        }
      ],
      "name": "getBorrowOrderIds",
      "outputs": [
        {
          "internalType": "uint48[]",
          "name": "activeOrderIds",
          "type": "uint48[]"
        },
        {
          "internalType": "uint48[]",
          "name": "inActiveOrderIds",
          "type": "uint48[]"
        }
      ],
      "stateMutability": "view",
      "type": "function"
    },
    {
      "inputs": [
        {
          "internalType": "uint8",
          "name": "_orderBookId",
          "type": "uint8"
        },
        {
          "internalType": "address",
          "name": "_user",
          "type": "address"
        }
      ],
      "name": "getLendOrderIds",
      "outputs": [
        {
          "internalType": "uint48[]",
          "name": "activeOrderIds",
          "type": "uint48[]"
        },
        {
          "internalType": "uint48[]",
          "name": "inActiveOrderIds",
          "type": "uint48[]"
        }
      ],
      "stateMutability": "view",
      "type": "function"
    },
    {
      "inputs": [
        {
          "internalType": "uint8",
          "name": "_orderBookId",
          "type": "uint8"
        },
        {
          "internalType": "uint48",
          "name": "_orderId",
          "type": "uint48"
        }
      ],
      "name": "getOrder",
      "outputs": [
        {
          "internalType": "enum ProtocolTypes.Side",
          "name": "side",
          "type": "ProtocolTypes.Side"
        },
        {
          "internalType": "uint256",
          "name": "unitPrice",
          "type": "uint256"
        },
        {
          "internalType": "uint256",
          "name": "maturity",
          "type": "uint256"
        },
        {
          "internalType": "address",
          "name": "maker",
          "type": "address"
        },
        {
          "internalType": "uint256",
          "name": "amount",
          "type": "uint256"
        },
        {
          "internalType": "uint256",
          "name": "timestamp",
          "type": "uint256"
        },
        {
          "internalType": "bool",
          "name": "isPreOrder",
          "type": "bool"
        }
      ],
      "stateMutability": "view",
      "type": "function"
    },
    {
      "inputs": [
        {
          "internalType": "uint8",
          "name": "_orderBookId",
          "type": "uint8"
        },
        {
          "internalType": "address",
          "name": "_user",
          "type": "address"
        },
        {
          "internalType": "uint256",
          "name": "_minUnitPrice",
          "type": "uint256"
        }
      ],
      "name": "getTotalAmountFromBorrowOrders",
      "outputs": [
        {
          "internalType": "uint256",
          "name": "activeAmount",
          "type": "uint256"
        },
        {
          "internalType": "uint256",
          "name": "inactiveAmount",
          "type": "uint256"
        },
        {
          "internalType": "uint256",
          "name": "inactiveFutureValue",
          "type": "uint256"
        },
        {
          "internalType": "uint256",
          "name": "maturity",
          "type": "uint256"
        }
      ],
      "stateMutability": "view",
      "type": "function"
    },
    {
      "inputs": [
        {
          "internalType": "uint8",
          "name": "_orderBookId",
          "type": "uint8"
        },
        {
          "internalType": "address",
          "name": "_user",
          "type": "address"
        }
      ],
      "name": "getTotalAmountFromLendOrders",
      "outputs": [
        {
          "internalType": "uint256",
          "name": "activeAmount",
          "type": "uint256"
        },
        {
          "internalType": "uint256",
          "name": "inactiveAmount",
          "type": "uint256"
        },
        {
          "internalType": "uint256",
          "name": "inactiveFutureValue",
          "type": "uint256"
        },
        {
          "internalType": "uint256",
          "name": "maturity",
          "type": "uint256"
        }
      ],
      "stateMutability": "view",
      "type": "function"
    }
  ],
  "transactionHash": "0xc47369de640adb1ce92e9fad9fdb456c25f83faf69bdb3b8b8f714c9e04a0d53",
  "args": [],
  "numDeployments": 2,
  "solcInputHash": "2483bad5be286db7c4c3f368329c0e47",
  "bytecode": "0x611f4261003a600b82828239805160001a60731461002d57634e487b7160e01b600052600060045260246000fd5b30600052607381538281f3fe730000000000000000000000000000000000000000301460806040526004361061009d5760003560e01c80635fee0bba116100705780635fee0bba14610150578063c022097a14610171578063c870772314610192578063de9f5fed146101c0578063ff5cce97146101e657600080fd5b806313a4451c146100a25780633d0157ef146100da5780634a864e22146101025780634c60afc81461013d575b600080fd5b6100b56100b0366004611bbe565b6101f9565b6040805194855260208501939093529183015260608201526080015b60405180910390f35b6100ed6100e8366004611c07565b61034a565b604080519283526020830191909152016100d1565b610115610110366004611c2a565b6103ed565b604080519586526020860194909452928401919091526060830152608082015260a0016100d1565b6100b561014b366004611c72565b610493565b61016361015e366004611bbe565b6105bd565b6040516100d1929190611cf1565b61018461017f366004611d16565b6105de565b6040519081526020016100d1565b6101a56101a0366004611c07565b610653565b604080519384526020840192909252908201526060016100d1565b6101d36101ce366004611d38565b6106ed565b6040516100d19796959493929190611d78565b6101636101f4366004611bbe565b6107f6565b600080600080600061020a8761080c565b9050600080610219838961083f565b6001600160a01b038a166000908152600886016020526040812054965091935091505b82518110156102e357600061027b84838151811061025c5761025c611dd3565b602002602001015165ffffffffffff1686610ad990919063ffffffff16565b905060006102c9826020015186858151811061029957610299611dd3565b602002602001015188600b0160008a600001548152602001908152602001600020610b6b9092919063ffffffff16565b91506102d79050818b611dff565b9950505060010161023c565b5060005b815181101561033d576000806103168685858151811061030957610309611dd3565b602002602001015161034a565b9092509050610325828a611dff565b98506103318189611dff565b975050506001016102e7565b5050505092959194509250565b600080806103608565ffffffffffff8616610ad9565b6020808201516040808401516000908152600b8a01909352822092935090916103899187610b6b565b835160408086015160208088015165ffffffffffff8c166000908152600a8e019092529281205494965094506103c49390919060ff16610beb565b90508194506103e181612710846103db9190611e17565b90610cc3565b93505050509250929050565b6000806000806000806103ff8a61080c565b90506000808061043a8c8b7ffc2836757f9146445fc75bc3c897a210ec004e4ee60fc8627ef5cbf2842b3d0a60030154879291906001610d34565b50925092509250821561047b57610453848d8d85610e36565b919a5098509650610464888c611e36565b94506104748460000154886105de565b9550610484565b80610484578a94505b50505050945094509450945094565b60008060008060006104a48861080c565b90506000806104b3838a610eb8565b6001600160a01b038b166000908152600886016020526040812054965091935091505b8251811015610547576000806000610507878786815181106104fa576104fa611dd3565b6020026020010151610653565b9250925092508b81101561052a576105256127106103db8e85611e17565b61052c565b825b610536908c611dff565b9a5050600190920191506104d69050565b506001600160a01b038916600090815260088401602052604081205494505b81518110156105b057600080610588868585815181106104fa576104fa611dd3565b509092509050610598828a611dff565b98506105a48189611dff565b97505050600101610566565b5050505093509350935093565b6060806105d3836105cd8661080c565b9061083f565b909590945092505050565b60008242106105ef5750600061064d565b60006105fb4285611e36565b90506106496106106127106301e13380611e17565b7ffc2836757f9146445fc75bc3c897a210ec004e4ee60fc8627ef5cbf2842b3d0c54859061063f908590611e17565b6103db9190611e17565b9150505b92915050565b600080808061066a8665ffffffffffff8716610ad9565b6020808201516040808401516000908152600c8b01909352822092935090916106939188610b6b565b835160408086015160208088015165ffffffffffff8d166000908152600a8f01909252929020549395506106cc9450919260ff16610beb565b9094509150836106e2836103db61271084611e17565b935050509250925092565b6000806000806000806000806107028a61080c565b905060006107188265ffffffffffff8c16610ad9565b905060008151600181111561072f5761072f611d62565b1415610764576020808201516040808401516000908152600b860190935290912061075a918c610b6b565b909650945061078f565b6020808201516040808401516000908152600c8601909352909120610789918c610b6b565b90965094505b6001600160a01b038616156107e8578051604080830151606084015165ffffffffffff8e166000908152600a870160209081529390205492850151939c50909950955060ff1693506107e5908a90899086610beb565b97505b505092959891949750929550565b6060806105d3836108068661080c565b90610eb8565b60ff1660009081527ffc2836757f9146445fc75bc3c897a210ec004e4ee60fc8627ef5cbf2842b3d0e6020526040902090565b6001600160a01b0381166000908152600883016020908152604080832054855460068701845282852080548451818702810187019095528085526060968796909586959485141593869391929091908301828280156108ed57602002820191906000526020600020906000905b82829054906101000a900465ffffffffffff1665ffffffffffff16815260200190600601906020826005010492830192600103820291508084116108ac5790505b50505050509050600081519050826109055780610908565b60005b67ffffffffffffffff81111561092057610920611e4d565b604051908082528060200260200182016040528015610949578160200160208202803683370190505b5097508067ffffffffffffffff81111561096557610965611e4d565b60405190808252806020026020018201604052801561098e578160200160208202803683370190505b50965060005b81811015610acb5760008382815181106109b0576109b0611dd3565b6020026020010151905060006109e28d60090160008465ffffffffffff16815260200190815260200160002054611143565b5050915050610a1081838f600b0160008b81526020019081526020016000206111899092919063ffffffff16565b610a675760019790970196818a610a278b86611e36565b81518110610a3757610a37611dd3565b602002602001019065ffffffffffff16908165ffffffffffff168152505085610a625760018b51038b525b610ab6565b85610aae5760019890980197818b610a7f8a86611e36565b81518110610a8f57610a8f611dd3565b602002602001019065ffffffffffff16908165ffffffffffff16815250505b60018a51038a525b50508080610ac390611e63565b915050610994565b505050505050509250929050565b610b05604080516080810190915280600081526020016000815260200160008152602001600081525090565b6000828152600984016020526040812054819081908190610b2590611143565b93509350935093506040518060800160405280856001811115610b4a57610b4a611d62565b81526020018481526020018381526020018281525094505050505092915050565b600091825260019283016020908152604080842065ffffffffffff9384168552600601825292839020835160a08101855281548085168252600160301b8104851693820193909352600160601b90920490921692810192909252918201546001600160a01b03166060820181905260029092015460809091018190529091565b600081610bf9575081610cbb565b60008481527ffc2836757f9146445fc75bc3c897a210ec004e4ee60fc8627ef5cbf2842b3d106020908152604091829020825160608101845281548082526001830154938201939093526002909101549281019290925215801590610ca957506001866001811115610c6d57610c6d611d62565b148015610c7e575080604001518411155b80610ca957506000866001811115610c9857610c98611d62565b148015610ca9575080602001518410155b15610cb657519050610cbb565b839150505b949350505050565b6000808211610cd157600080fd5b6005610cdd8385611e7e565b610ce890600a611e17565b83610cf486600a611e17565b610cfe9190611e7e565b610d089190611e36565b1015610d1f57610d188284611e7e565b905061064d565b610d298284611e7e565b610d18906001611dff565b60008080808080896001811115610d4d57610d4d611d62565b1490506000808215610d88578b546000908152600c8d0160205260409020610d74906111b1565b9050610d818c8a8a6111f8565b9150610db3565b8b546000908152600b8d0160205260409020610da390611279565b9050610db08c8a8a6112bb565b91505b8015159350891580610df25750838015610dcc57508115155b8015610df25750828015610ddf5750818a115b80610df2575082158015610df25750818a105b15610e035781955060019450610e0b565b899550600094505b8315610e275782610e1f5785811015610e24565b858111155b96505b50505095509550955095915050565b6000808084610e4d57506000915081905080610eae565b6000866001811115610e6157610e61611d62565b1415610e905786546000908152600c880160205260408120610e8591879087611320565b925092509250610eae565b86546000908152600b880160205260408120610e859187908761134d565b9450945094915050565b6001600160a01b038116600090815260088301602090815260408083205485546007870184528285208054845181870281018701909552808552606096879690958695948514159386939192909190830182828015610f6657602002820191906000526020600020906000905b82829054906101000a900465ffffffffffff1665ffffffffffff1681526020019060060190602082600501049283019260010382029150808411610f255790505b5050505050905060008151905082610f7e5780610f81565b60005b67ffffffffffffffff811115610f9957610f99611e4d565b604051908082528060200260200182016040528015610fc2578160200160208202803683370190505b5097508067ffffffffffffffff811115610fde57610fde611e4d565b604051908082528060200260200182016040528015611007578160200160208202803683370190505b50965060005b81811015610acb57600083828151811061102957611029611dd3565b60200260200101519050600061105b8d60090160008465ffffffffffff16815260200190815260200160002054611143565b505091505061108981838f600c0160008b81526020019081526020016000206111899092919063ffffffff16565b6110e05760019790970196818a6110a08b86611e36565b815181106110b0576110b0611dd3565b602002602001019065ffffffffffff16908165ffffffffffff1681525050856110db5760018b51038b525b61112e565b6001890198508561112657818b6110f78a86611e36565b8151811061110757611107611dd3565b602002602001019065ffffffffffff16908165ffffffffffff16815250505b60018a51038a525b5050808061113b90611e63565b91505061100d565b6000806000808460ff16600181111561115e5761115e611d62565b9561ffff600887901c169567ffffffffffffffff601882901c8116965060589190911c169350915050565b6000611196848484611367565b80156111a757506111a7848461149c565b90505b9392505050565b8054806111c057506000919050565b5b6000818152600180840160205260409091200154156111f35760009081526001808301602052604090912001546111c1565b919050565b6000806112078560038561152f565b905061123061271061121a866002611e17565b61122690612710611dff565b6103db9084611e17565b9150612710821180611240575080155b1561124f576127109150611271565b61125b6102bc82611dff565b8210156112715761126e6102bc82611dff565b91505b509392505050565b80548061128857506000919050565b5b6000818152600183016020526040902060020154156111f3576000908152600182016020526040902060020154611289565b6000806112ca8560058561152f565b90506112dc6127106112268682611e36565b91508115806112e9575080155b806112f5575060c88111155b156113035760019150611271565b61130e60c883611dff565b8110156112715761126e60c882611e36565b600080600061133a878787876113358c6111b1565b611671565b50949c919b509950975050505050505050565b600080600061133a878787876113628c611279565b61179c565b600082815260018085016020908152604080842065ffffffffffff808716808752600683018552838720845160a0810186528154808516808352600160301b8204861698830198909852600160601b900490931694830194909452948301546001600160a01b03166060820152600290920154608083015285939092146113f457600093505050506111aa565b5b604081015165ffffffffffff161561147d5760409081015165ffffffffffff808216600090815260068501602090815290849020845160a08101865281548085168252600160301b8104851693820193909352600160601b9092049092169381019390935260018101546001600160a01b0316606084015260020154608083015292506113f5565b5060030154610100900465ffffffffffff908116911614949350505050565b81546000908214156114b05750600161064d565b815b600081815260018501602052604090205415611525576000818152600180860160205260408083205480845292209081015483148015906114f7575082816002015414155b15611508576000935050505061064d565b855482141561151d576001935050505061064d565b5090506114b2565b5060009392505050565b60008061155285600301600d9054906101000a90046001600160501b0316611892565b8051600387015491925090600090819065ffffffffffff600160301b909104164314158061157d5750855b801561159457506003880154600160601b900460ff165b156115c7576115b388600501546127108a600401546103db9190611e17565b915060019050866115c381611ea0565b9750505b60005b8781101561164b5783811015806115fa57508481815181106115ee576115ee611dd3565b60200260200101516000145b156116045761164b565b84818151811061161657611616611dd3565b6020026020010151836116299190611dff565b92508161163581611e63565b925050808061164390611e63565b9150506115ca565b506000811161165b576000611665565b6116658282610cc3565b98975050505050505050565b60008181808080805b8a84108061168657508a155b8015611699575089831080611699575089155b80156116a457508515155b80156116b8575088861115806116b8575088155b1561176757600086815260018d016020526040902060050154959650869594506116e286866119a2565b6116ec9084611dff565b92506116f88585611dff565b93508a8411801561170857508a15155b1561172a576117178b85611e36565b915061172386836119a2565b9050611756565b898311801561173857508915155b15611756576117478a84611e36565b905061175386826119b4565b91505b6117608c876119c6565b955061167a565b811561177a576117778285611e36565b93505b801561178d5761178a8184611e36565b92505b959b949a509550955095509550565b60008181808080805b8a8410806117b157508a155b80156117c45750898310806117c4575089155b80156117cf57508515155b80156117e3575088861015806117e3575088155b1561176757600086815260018d0160205260409020600501549596508695945061180d86866119a2565b6118179084611dff565b92506118238585611dff565b93508a8411801561183357508a15155b15611855576118428b85611e36565b915061184e86836119a2565b9050611881565b898311801561186357508915155b15611881576118728a84611e36565b905061187e86826119b4565b91505b61188b8c87611a78565b95506117a5565b60408051600580825260c082019092526060916020820160a0803683370190505090508161ffff16816000815181106118cd576118cd611dd3565b6020026020010181815250506010826001600160501b0316901c61ffff16816001815181106118fe576118fe611dd3565b6020026020010181815250506020826001600160501b0316901c61ffff168160028151811061192f5761192f611dd3565b6020026020010181815250506030826001600160501b0316901c61ffff168160038151811061196057611960611dd3565b6020026020010181815250506040826001600160501b0316901c61ffff168160048151811061199157611991611dd3565b602002602001018181525050919050565b60006111aa836103db61271085611e17565b60006111aa6127106103db8585611e17565b6000816119ee5760405162461bcd60e51b81526004016119e590611eb7565b60405180910390fd5b600082815260018401602052604090206002015415611a26576000828152600184016020526040902060020154610d18908490611b21565b5060008181526001830160205260409020545b8015801590611a5a5750600081815260018401602052604090206002015482145b1561064d576000818152600184016020526040902054909150611a39565b600081611a975760405162461bcd60e51b81526004016119e590611eb7565b600082815260018085016020526040909120015415611acf576000828152600180850160205260409091200154610d18908490611b5f565b5060008181526001830160205260409020545b8015801590611b035750600081815260018085016020526040909120015482145b1561064d576000818152600184016020526040902054909150611ae2565b60005b600082815260018085016020526040909120015415611b59576000918252600180840160205260409092209091015490611b24565b50919050565b60005b600082815260018401602052604090206002015415611b595760009182526001830160205260409091206002015490611b62565b803560ff811681146111f357600080fd5b80356001600160a01b03811681146111f357600080fd5b60008060408385031215611bd157600080fd5b611bda83611b96565b9150611be860208401611ba7565b90509250929050565b803565ffffffffffff811681146111f357600080fd5b60008060408385031215611c1a57600080fd5b82359150611be860208401611bf1565b60008060008060808587031215611c4057600080fd5b611c4985611b96565b9350602085013560028110611c5d57600080fd5b93969395505050506040820135916060013590565b600080600060608486031215611c8757600080fd5b611c9084611b96565b9250611c9e60208501611ba7565b9150604084013590509250925092565b600081518084526020808501945080840160005b83811015611ce657815165ffffffffffff1687529582019590820190600101611cc2565b509495945050505050565b604081526000611d046040830185611cae565b828103602084015261126e8185611cae565b60008060408385031215611d2957600080fd5b50508035926020909101359150565b60008060408385031215611d4b57600080fd5b611d5483611b96565b9150611be860208401611bf1565b634e487b7160e01b600052602160045260246000fd5b60e0810160028910611d9a57634e487b7160e01b600052602160045260246000fd5b978152602081019690965260408601949094526001600160a01b03929092166060850152608084015260a0830152151560c09091015290565b634e487b7160e01b600052603260045260246000fd5b634e487b7160e01b600052601160045260246000fd5b60008219821115611e1257611e12611de9565b500190565b6000816000190483118215151615611e3157611e31611de9565b500290565b600082821015611e4857611e48611de9565b500390565b634e487b7160e01b600052604160045260246000fd5b6000600019821415611e7757611e77611de9565b5060010190565b600082611e9b57634e487b7160e01b600052601260045260246000fd5b500490565b600081611eaf57611eaf611de9565b506000190190565b60208082526035908201527f4f7264657253746174697374696373547265654c69623a205374617274696e676040820152742076616c75652063616e6e6f74206265207a65726f60581b60608201526080019056fea264697066735822122090887554b45d76faab1c58ab7249ae7d8f75a66e79b92b55eb0b162585691afd64736f6c63430008090033",
  "devdoc": {
    "kind": "dev",
    "methods": {},
    "version": 1
  },
  "userdoc": {
    "kind": "user",
    "methods": {},
    "version": 1
  },
  "storageLayout": {
    "storage": [],
    "types": null
  }
}