{
  "address": "0x2f0847748CD63A1AD74F5E651c6F7457C426464a",
  "abi": [
    {
      "inputs": [],
      "name": "InvalidCircuitBreakerLimitRange",
      "type": "error"
    },
    {
      "inputs": [],
      "name": "InvalidOrderFeeRate",
      "type": "error"
    },
    {
      "inputs": [],
      "name": "OrderBookNotMatured",
      "type": "error"
    },
    {
      "anonymous": false,
      "inputs": [
        {
          "indexed": false,
          "internalType": "bytes32",
          "name": "ccy",
          "type": "bytes32"
        },
        {
          "indexed": false,
          "internalType": "uint256",
          "name": "previousRate",
          "type": "uint256"
        },
        {
          "indexed": false,
          "internalType": "uint256",
          "name": "rate",
          "type": "uint256"
        }
      ],
      "name": "CircuitBreakerLimitRangeUpdated",
      "type": "event"
    },
    {
      "anonymous": false,
      "inputs": [
        {
          "indexed": false,
          "internalType": "bytes32",
          "name": "ccy",
          "type": "bytes32"
        },
        {
          "indexed": false,
          "internalType": "uint256",
          "name": "maturity",
          "type": "uint256"
        },
        {
          "indexed": false,
          "internalType": "uint256",
          "name": "openingUnitPrice",
          "type": "uint256"
        },
        {
          "indexed": false,
          "internalType": "uint256",
          "name": "lastLendUnitPrice",
          "type": "uint256"
        },
        {
          "indexed": false,
          "internalType": "uint256",
          "name": "lastBorrowUnitPrice",
          "type": "uint256"
        },
        {
          "indexed": false,
          "internalType": "uint256",
          "name": "offsetAmount",
          "type": "uint256"
        }
      ],
      "name": "ItayoseExecuted",
      "type": "event"
    },
    {
      "anonymous": false,
      "inputs": [
        {
          "indexed": false,
          "internalType": "uint8",
          "name": "orderBookId",
          "type": "uint8"
        },
        {
          "indexed": false,
          "internalType": "uint256",
          "name": "maturity",
          "type": "uint256"
        },
        {
          "indexed": false,
          "internalType": "uint256",
          "name": "openingDate",
          "type": "uint256"
        }
      ],
      "name": "OrderBookCreated",
      "type": "event"
    },
    {
      "anonymous": false,
      "inputs": [
        {
          "indexed": false,
          "internalType": "bytes32",
          "name": "ccy",
          "type": "bytes32"
        },
        {
          "indexed": false,
          "internalType": "uint256",
          "name": "previousRate",
          "type": "uint256"
        },
        {
          "indexed": false,
          "internalType": "uint256",
          "name": "rate",
          "type": "uint256"
        }
      ],
      "name": "OrderFeeRateUpdated",
      "type": "event"
    },
    {
      "inputs": [
        {
          "internalType": "uint8",
          "name": "_orderBookId",
          "type": "uint8"
        }
      ],
      "name": "getBestBorrowUnitPrice",
      "outputs": [
        {
          "internalType": "uint256",
          "name": "",
          "type": "uint256"
        }
      ],
      "stateMutability": "view",
      "type": "function"
    },
    {
      "inputs": [
        {
          "internalType": "uint8[]",
          "name": "_orderBookIds",
          "type": "uint8[]"
        }
      ],
      "name": "getBestBorrowUnitPrices",
      "outputs": [
        {
          "internalType": "uint256[]",
          "name": "unitPrices",
          "type": "uint256[]"
        }
      ],
      "stateMutability": "view",
      "type": "function"
    },
    {
      "inputs": [
        {
          "internalType": "uint8",
          "name": "_orderBookId",
          "type": "uint8"
        }
      ],
      "name": "getBestLendUnitPrice",
      "outputs": [
        {
          "internalType": "uint256",
          "name": "",
          "type": "uint256"
        }
      ],
      "stateMutability": "view",
      "type": "function"
    },
    {
      "inputs": [
        {
          "internalType": "uint8[]",
          "name": "_orderBookIds",
          "type": "uint8[]"
        }
      ],
      "name": "getBestLendUnitPrices",
      "outputs": [
        {
          "internalType": "uint256[]",
          "name": "unitPrices",
          "type": "uint256[]"
        }
      ],
      "stateMutability": "view",
      "type": "function"
    },
    {
      "inputs": [
        {
          "internalType": "uint8",
          "name": "_orderBookId",
          "type": "uint8"
        },
        {
          "internalType": "uint256",
          "name": "_count",
          "type": "uint256"
        }
      ],
      "name": "getBlockUnitPriceAverage",
      "outputs": [
        {
          "internalType": "uint256",
          "name": "",
          "type": "uint256"
        }
      ],
      "stateMutability": "view",
      "type": "function"
    },
    {
      "inputs": [
        {
          "internalType": "uint8",
          "name": "_orderBookId",
          "type": "uint8"
        }
      ],
      "name": "getBlockUnitPriceHistory",
      "outputs": [
        {
          "internalType": "uint256[]",
          "name": "",
          "type": "uint256[]"
        }
      ],
      "stateMutability": "view",
      "type": "function"
    },
    {
      "inputs": [
        {
          "internalType": "uint8",
          "name": "_orderBookId",
          "type": "uint8"
        },
        {
          "internalType": "uint256",
          "name": "_limit",
          "type": "uint256"
        }
      ],
      "name": "getBorrowOrderBook",
      "outputs": [
        {
          "internalType": "uint256[]",
          "name": "unitPrices",
          "type": "uint256[]"
        },
        {
          "internalType": "uint256[]",
          "name": "amounts",
          "type": "uint256[]"
        },
        {
          "internalType": "uint256[]",
          "name": "quantities",
          "type": "uint256[]"
        }
      ],
      "stateMutability": "view",
      "type": "function"
    },
    {
      "inputs": [
        {
          "internalType": "uint8",
          "name": "_orderBookId",
          "type": "uint8"
        }
      ],
      "name": "getCircuitBreakerThresholds",
      "outputs": [
        {
          "internalType": "uint256",
          "name": "maxLendUnitPrice",
          "type": "uint256"
        },
        {
          "internalType": "uint256",
          "name": "minBorrowUnitPrice",
          "type": "uint256"
        }
      ],
      "stateMutability": "view",
      "type": "function"
    },
    {
      "inputs": [
        {
          "internalType": "uint8",
          "name": "_orderBookId",
          "type": "uint8"
        }
      ],
      "name": "getLastOrderBlockNumber",
      "outputs": [
        {
          "internalType": "uint256",
          "name": "",
          "type": "uint256"
        }
      ],
      "stateMutability": "view",
      "type": "function"
    },
    {
      "inputs": [
        {
          "internalType": "uint8",
          "name": "_orderBookId",
          "type": "uint8"
        },
        {
          "internalType": "uint256",
          "name": "_limit",
          "type": "uint256"
        }
      ],
      "name": "getLendOrderBook",
      "outputs": [
        {
          "internalType": "uint256[]",
          "name": "unitPrices",
          "type": "uint256[]"
        },
        {
          "internalType": "uint256[]",
          "name": "amounts",
          "type": "uint256[]"
        },
        {
          "internalType": "uint256[]",
          "name": "quantities",
          "type": "uint256[]"
        }
      ],
      "stateMutability": "view",
      "type": "function"
    },
    {
      "inputs": [
        {
          "internalType": "uint8",
          "name": "_orderBookId",
          "type": "uint8"
        }
      ],
      "name": "getMarketUnitPrice",
      "outputs": [
        {
          "internalType": "uint256",
          "name": "",
          "type": "uint256"
        }
      ],
      "stateMutability": "view",
      "type": "function"
    },
    {
      "inputs": [
        {
          "internalType": "uint8[]",
          "name": "_orderBookIds",
          "type": "uint8[]"
        }
      ],
      "name": "getMaturities",
      "outputs": [
        {
          "internalType": "uint256[]",
          "name": "maturities",
          "type": "uint256[]"
        }
      ],
      "stateMutability": "view",
      "type": "function"
    },
    {
      "inputs": [
        {
          "internalType": "uint8",
          "name": "_orderBookId",
          "type": "uint8"
        }
      ],
      "name": "getOrderBookDetail",
      "outputs": [
        {
          "internalType": "bytes32",
          "name": "ccy",
          "type": "bytes32"
        },
        {
          "internalType": "uint256",
          "name": "maturity",
          "type": "uint256"
        },
        {
          "internalType": "uint256",
          "name": "openingDate",
          "type": "uint256"
        },
        {
          "internalType": "uint256",
          "name": "preOpeningDate",
          "type": "uint256"
        }
      ],
      "stateMutability": "view",
      "type": "function"
    },
    {
      "inputs": [
        {
          "internalType": "uint8",
          "name": "_orderBookId",
          "type": "uint8"
        }
      ],
      "name": "isItayosePeriod",
      "outputs": [
        {
          "internalType": "bool",
          "name": "",
          "type": "bool"
        }
      ],
      "stateMutability": "view",
      "type": "function"
    },
    {
      "inputs": [
        {
          "internalType": "uint8",
          "name": "_orderBookId",
          "type": "uint8"
        }
      ],
      "name": "isMatured",
      "outputs": [
        {
          "internalType": "bool",
          "name": "",
          "type": "bool"
        }
      ],
      "stateMutability": "view",
      "type": "function"
    },
    {
      "inputs": [
        {
          "internalType": "uint8",
          "name": "_orderBookId",
          "type": "uint8"
        }
      ],
      "name": "isOpened",
      "outputs": [
        {
          "internalType": "bool",
          "name": "",
          "type": "bool"
        }
      ],
      "stateMutability": "view",
      "type": "function"
    },
    {
      "inputs": [
        {
          "internalType": "uint8",
          "name": "_orderBookId",
          "type": "uint8"
        }
      ],
      "name": "isPreOrderPeriod",
      "outputs": [
        {
          "internalType": "bool",
          "name": "",
          "type": "bool"
        }
      ],
      "stateMutability": "view",
      "type": "function"
    },
    {
      "inputs": [
        {
          "internalType": "uint8",
          "name": "_orderBookId",
          "type": "uint8"
        }
      ],
      "name": "isReady",
      "outputs": [
        {
          "internalType": "bool",
          "name": "",
          "type": "bool"
        }
      ],
      "stateMutability": "view",
      "type": "function"
    }
  ],
  "transactionHash": "0x08e4c1971033f0d72357da47d6d8764164fa02f4c8961110a974151b839b035d",
  "args": [],
  "numDeployments": 1,
  "solcInputHash": "904ba098c33c8117eaf5045f72781b3c",
  "bytecode": "0x6134a061003a600b82828239805160001a60731461002d57634e487b7160e01b600052600060045260246000fd5b30600052607381538281f3fe73000000000000000000000000000000000000000030146080604052600436106101575760003560e01c80635f7f8b45116100cd57806385ad3bf21161008657806385ad3bf21461036e578063932c938514610381578063a3b88aa0146103a3578063cd458662146103b6578063f8044e6c146103c9578063fffa87b8146103dc57600080fd5b80635f7f8b45146102c25780636a5138d6146102d55780636aa65aaf146102e85780636c5d6df11461030857806380d5b6091461032857806382bdfed51461035b57600080fd5b806338b058521161011f57806338b058521461020d5780633a9a3ecc1461022057806350e18701146102425780635575c7961461026a578063576737171461029c57806358e64897146102af57600080fd5b80631f98a4201461015c578063261cc1b21461018557806329d6dd13146101b65780632bfa7c13146101d9578063381e9344146101fa575b600080fd5b61016f61016a36600461304e565b6103ef565b60405161017c91906130a4565b60405180910390f35b81801561019157600080fd5b506101a56101a036600461304e565b61040b565b60405161017c9594939291906130b7565b6101c96101c436600461304e565b610642565b604051901515815260200161017c565b6101ec6101e736600461304e565b610675565b60405190815260200161017c565b6101c961020836600461304e565b61068b565b61016f61021b366004613163565b6106c1565b81801561022c57600080fd5b5061024061023b36600461321c565b610770565b005b61025561025036600461304e565b610841565b6040805192835260208301919091520161017c565b81801561027657600080fd5b5061028a610285366004613269565b61088f565b60405160ff909116815260200161017c565b61016f6102aa366004613163565b610927565b6101ec6102bd36600461304e565b6109c7565b6101ec6102d036600461304e565b6109d5565b6101c96102e336600461304e565b6109e8565b8180156102f457600080fd5b50610240610303366004613295565b610a22565b81801561031457600080fd5b50610240610323366004613295565b610ab5565b61033b61033636600461304e565b610b24565b60408051948552602085019390935291830152606082015260800161017c565b6101c961036936600461304e565b610b5c565b6101ec61037c36600461304e565b610b71565b61039461038f3660046132ae565b610b95565b60405161017c939291906132d8565b6101ec6103b13660046132ae565b610bba565b61016f6103c4366004613163565b610bd9565b6103946103d73660046132ae565b610c74565b6101c96103ea36600461304e565b610c8c565b606061040560016103ff84610cc4565b90610ce9565b92915050565b6000806000610418613004565b610420613004565b600080600061042e89610cc4565b905061043981610e20565b929a509198509350915086156105a657604080518082019091526000808252600160208301525b6002811015610543576000610473613004565b61049e6040518060800160405280600081526020016000815260200160008152602001600081525090565b6104c38585600281106104b3576104b3613327565b602002015187908e600080611016565b50506040820151909350909150156104df576104df868e611163565b60608201511561052d5760008585600281106104fd576104fd613327565b6020020151600181111561051357610513613311565b1415610525576001925081985061052d565b600092508199505b505050808061053b90613353565b915050610460565b507fa9952c3d01896ca75bba3aede761be10089d8d4725c9fee6b99245515986ef6061056d6111b8565b54835460408051928352602083019190915281018b9052606081018690526080810185905260a081018a905260c00160405180910390a1505b60016105b06111b8565b825460009081526005919091016020908152604091829020805460ff19169315159390931790925580516060810182528a815291820185905281018390526105f66111b8565b6006016000836000015481526020019081526020016000206000820151816000015560208201518160010155604082015181600201559050508060010154955050505091939590929450565b600061064c6111b8565b600501600061065a84610cc4565b54815260208101919091526040016000205460ff1692915050565b6000610405600161068584610cc4565b906111dc565b6000610e1061069983610cc4565b600101546106a7919061336e565b421015801561040557506106ba82610642565b1592915050565b6060815167ffffffffffffffff8111156106dd576106dd61314d565b604051908082528060200260200182016040528015610706578160200160208202803683370190505b50905060005b825181101561076a5761073783828151811061072a5761072a613327565b6020026020010151610cc4565b6000015482828151811061074d5761074d613327565b60209081029190910101528061076281613353565b91505061070c565b50919050565b600061077a6111b8565b60ff8716600090815260049190910160205260409020905061079d815442101590565b6107ba57604051632e98f16560e11b815260040160405180910390fd5b6107d584846107cc62093a808261336e565b84929190611282565b6107dd6111b8565b600086815260059190910160205260408120805460ff1916921515929092179091556108076111b8565b60ff8716600090815260049190910160205260408120915061082a9082906111dc565b610838576108388184611163565b50505050505050565b60008061086561084f6111b8565b60030154600161085e86610cc4565b91906112e6565b91506108886108726111b8565b60030154600161088186610cc4565b9190611365565b9050915091565b60006108996113ca565b90506108b28484846108aa85610cc4565b929190611282565b6108ba6111b8565b60008681526005919091016020908152604091829020805460ff191693151593909317909255805160ff8416815291820186905281018490527f04ec0e7cdb609ffd421993d30756b50a4c420e88ce7f59bb3e29b5a8fe1fcf4a9060600160405180910390a19392505050565b6060815167ffffffffffffffff8111156109435761094361314d565b60405190808252806020026020018201604052801561096c578160200160208202803683370190505b50905060005b825181101561076a5761099861099384838151811061072a5761072a613327565b611415565b8282815181106109aa576109aa613327565b6020908102919091010152806109bf81613353565b915050610972565b600061040561099383610cc4565b60006104056109e383610cc4565b611430565b60006109f382610642565b8015610a055750610a0382610b5c565b155b80156104055750610a1582610cc4565b6001015442101592915050565b6127108110610a4457604051636d3872b560e11b815260040160405180910390fd5b6000610a4e6111b8565b600201549050808214610ab15781610a646111b8565b600201557fad24e9bff76148b1b779fc330ea225198d2b44136c7a8e5fbec46c99c7775632610a916111b8565b546040805191825260208201849052810184905260600160405180910390a15b5050565b6127108110610ad757604051631ce2ca3b60e31b815260040160405180910390fd5b6000610ae16111b8565b600301549050808214610ab15781610af76111b8565b600301557fee52d515b96986517a19b501c0a50b03f4edace46ba0484faaea7590969adcf6610a916111b8565b6000806000806000610b3586610cc4565b9050610b3f6111b8565b548154600183015460029093015491989097509195509350915050565b6000610405610b6a83610cc4565b5442101590565b6000610b7c82610cc4565b60030154600160301b900465ffffffffffff1692915050565b6060806060610bad84610ba787610cc4565b90611465565b9250925092509250925092565b6000610bd2826001610bcb86610cc4565b91906116ea565b9392505050565b6060815167ffffffffffffffff811115610bf557610bf561314d565b604051908082528060200260200182016040528015610c1e578160200160208202803683370190505b50905060005b825181101561076a57610c456109e384838151811061072a5761072a613327565b828281518110610c5757610c57613327565b602090810291909101015280610c6c81613353565b915050610c24565b6060806060610bad84610c8687610cc4565b9061182c565b600080610c9883610cc4565b905080600201544210158015610bd25750610e108160010154610cbb919061336e565b42109392505050565b6000610cce6111b8565b60ff9092166000908152600492909201602052506040902090565b6003820154606090610d0a90600160681b90046001600160501b0316611aa8565b600384015490915065ffffffffffff600160301b9091041643141580610d4a575080600081518110610d3e57610d3e613327565b60200260200101516000145b80610d525750815b8015610d6957506003830154600160601b900460ff165b1561040557600060018251610d7e919061336e565b90505b8015610dda5781610d9360018361336e565b81518110610da357610da3613327565b6020026020010151828281518110610dbd57610dbd613327565b602090810291909101015280610dd281613385565b915050610d81565b50610dfb83600501546127108560040154610df5919061339c565b90611bb8565b81600081518110610e0e57610e0e613327565b60200260200101818152505092915050565b6000806000806000610e3186611415565b90506000610e3e87611430565b87546000908152600b8901602090815260408083208684526001019091528120600501549192509088546000908152600c8a01602090815260408083208684526001019091528120600501549192509089546000908152600c8b0160209081526040808320600b8e019092529091209192509085851115610ee057610ec86002610df587896133bb565b99506000985088975087965061100f95505050505050565b858511158015610ef05750600085115b8015610efc5750600086115b156110085785985084975082841115610f55578599508287610f1e91906133bb565b9650610f2a838561336e565b9350610f368286611c29565b60008181526001840160205260409020600501549095505b9250610ee0565b82841015610fa2578499508387610f6c91906133bb565b9650610f78848461336e565b9250610f848187611cdb565b60008181526001830160205260409020600501549096509350610ee0565b610fb16002610df587896133bb565b9950610fbd84886133bb565b9650610fc98187611cdb565b9550610fd58286611c29565b60008781526001830160205260409020600501549095506000868152600184016020526040902060050154909450610f4e565b5050505050505b9193509193565b6110416040518060800160405280600081526020016000815260200160008152602001600081525090565b611049613004565b600080611054613004565b600189600181111561106857611068613311565b14156110b55789546000908152600b8b016020526040902061108c818a8a8a611d84565b60408b01929092529189526020890192909252945091506110ad8154151590565b925050611112565b60008960018111156110c9576110c9613311565b14156111125789546000908152600c8b01602052604090206110ed818a8a8a611fcf565b60408b019290925291895260208901929092529450915061110e8154151590565b9250505b6040518060800160405280826000015165ffffffffffff16815260200182602001516001600160a01b0316815260200182604001518152602001826060015181525093505095509550955095915050565b600391909101805476ffffffffffffffffffff00ffffffffffff000000000000191661ffff909216600160681b026bffffffffffff000000000000191691909117600160301b4365ffffffffffff1602179055565b7ffc2836757f9146445fc75bc3c897a210ec004e4ee60fc8627ef5cbf2842b3d0a90565b60038201546000906111fd90600160681b90046001600160501b0316611aa8565b60008151811061120f5761120f613327565b60200260200101519050438360030160069054906101000a900465ffffffffffff1665ffffffffffff16141580611244575080155b8061124c5750815b801561126357506003830154600160601b900460ff165b1561040557610bd283600501546127108560040154610df5919061339c565b82845560018401829055600284018190556003840180546000600487018190556005870181905576ffffffffffffffffffffffffffffffffff000000000000199091169091556112d4610e108461336e565b42106112de575060015b949350505050565b6000806112f5856003856116ea565b905061131e61271061130886600261339c565b611314906127106133bb565b610df5908461339c565b915061271082118061132e575080155b1561133d57612710915061135d565b6113486064826133bb565b82101561135d5761135a6064826133bb565b91505b509392505050565b600080611374856005856116ea565b9050611386612710611314868261336e565b9150811580611393575080155b8061139f575060648111155b156113ad576001915061135d565b6113b86064836133bb565b81101561135d5761135a60648261336e565b60006113d46111b8565b600101805460ff169060006113e8836133d3565b91906101000a81548160ff021916908360ff160217905550506114096111b8565b6001015460ff16919050565b80546000908152600b8201602052604081206104059061221e565b80546000908152600c820160205260408120819061144d90612265565b9050801561145b5780610bd2565b6127109392505050565b60608060608367ffffffffffffffff8111156114835761148361314d565b6040519080825280602002602001820160405280156114ac578160200160208202803683370190505b5092508367ffffffffffffffff8111156114c8576114c861314d565b6040519080825280602002602001820160405280156114f1578160200160208202803683370190505b5091508367ffffffffffffffff81111561150d5761150d61314d565b604051908082528060200260200182016040528015611536578160200160208202803683370190505b5085546000908152600c8701602052604081209192509061155690612265565b9050808460008151811061156c5761156c613327565b60209081029190910181019190915286546000908152600c8801825260408082208483526001019092522060050154836000815181106115ae576115ae613327565b60209081029190910181019190915286546000908152600c8801825260408082208483526001019092522060040154826000815181106115f0576115f0613327565b602090810291909101015260015b84518110156116e15781611611576116e1565b86546000908152600c88016020526040902061162d9083611c29565b91508185828151811061164257611642613327565b60209081029190910181019190915287546000908152600c890182526040808220858352600101909252206005015484828151811061168357611683613327565b60209081029190910181019190915287546000908152600c89018252604080822085835260010190925220600401548382815181106116c4576116c4613327565b6020908102919091010152806116d981613353565b9150506115fe565b50509250925092565b60008061170d85600301600d9054906101000a90046001600160501b0316611aa8565b8051600387015491925090600090819065ffffffffffff600160301b90910416431415806117385750855b801561174f57506003880154600160601b900460ff165b156117825761176e88600501546127108a60040154610df5919061339c565b9150600190508661177e81613385565b9750505b60005b878110156118065783811015806117b557508481815181106117a9576117a9613327565b60200260200101516000145b156117bf57611806565b8481815181106117d1576117d1613327565b6020026020010151836117e491906133bb565b9250816117f081613353565b92505080806117fe90613353565b915050611785565b5060008111611816576000611820565b6118208282611bb8565b98975050505050505050565b60608060608367ffffffffffffffff81111561184a5761184a61314d565b604051908082528060200260200182016040528015611873578160200160208202803683370190505b5092508367ffffffffffffffff81111561188f5761188f61314d565b6040519080825280602002602001820160405280156118b8578160200160208202803683370190505b5091508367ffffffffffffffff8111156118d4576118d461314d565b6040519080825280602002602001820160405280156118fd578160200160208202803683370190505b5085546000908152600b8701602052604081209192509061191d9061221e565b9050808460008151811061193357611933613327565b60209081029190910181019190915286546000908152600b88018252604080822084835260010190925220600501548360008151811061197557611975613327565b60209081029190910181019190915286546000908152600b8801825260408082208483526001019092522060040154826000815181106119b7576119b7613327565b602090810291909101015260015b84518110156116e157816119d8576116e1565b86546000908152600b8801602052604090206119f49083611cdb565b915081858281518110611a0957611a09613327565b60209081029190910181019190915287546000908152600b8901825260408082208583526001019092522060050154848281518110611a4a57611a4a613327565b60209081029190910181019190915287546000908152600b8901825260408082208583526001019092522060040154838281518110611a8b57611a8b613327565b602090810291909101015280611aa081613353565b9150506119c5565b60408051600580825260c082019092526060916020820160a0803683370190505090508161ffff1681600081518110611ae357611ae3613327565b6020026020010181815250506010826001600160501b0316901c61ffff1681600181518110611b1457611b14613327565b6020026020010181815250506020826001600160501b0316901c61ffff1681600281518110611b4557611b45613327565b6020026020010181815250506030826001600160501b0316901c61ffff1681600381518110611b7657611b76613327565b6020026020010181815250506040826001600160501b0316901c61ffff1681600481518110611ba757611ba7613327565b602002602001018181525050919050565b6000808211611bc657600080fd5b6005611bd283856133f3565b611bdd90600a61339c565b83611be986600a61339c565b611bf391906133f3565b611bfd919061336e565b1015611c1457611c0d82846133f3565b9050610405565b611c1e82846133f3565b611c0d9060016133bb565b600081611c515760405162461bcd60e51b8152600401611c4890613415565b60405180910390fd5b600082815260018401602052604090206002015415611c89576000828152600184016020526040902060020154611c0d9084906122a7565b5060008181526001830160205260409020545b8015801590611cbd5750600081815260018401602052604090206002015482145b15610405576000818152600184016020526040902054909150611c9c565b600081611cfa5760405162461bcd60e51b8152600401611c4890613415565b600082815260018085016020526040909120015415611d32576000828152600180850160205260409091200154611c0d9084906122df565b5060008181526001830160205260409020545b8015801590611d665750600081815260018085016020526040909120015482145b15610405576000818152600184016020526040902054909150611d45565b600080600080611d92613004565b6000611d9d8a61221e565b905060008060008984101580611db1575089155b611df85760405162461bcd60e51b8152602060048201526018602482015277496e73756666696369656e74206c696d69742076616c756560401b6044820152606401611c48565b611e058d8d8d8d88612316565b959e50919c509a509196509450925090506000611e22838a6133bb565b90508015611f17578215611e4e57899450611e478e86611e42868861336e565b612441565b9550611e73565b8115611e7357899450611e708e86611e66888661275a565b611e42908861336e565b95505b600085815260018f01602052604081206002810191909155548515611f15575b8015611f155785811015611eff57808f60010160008881526020019081526020016000206000015414611efb57808f600101600088815260200190815260200160002060000181905550858f6001016000838152602001908152602001600020600201819055505b8095505b600090815260018f016020526040902054611e93565b505b808d1115611f2c57611f29818e61336e565b96505b6000611f378f612265565b90508a81148015611f6057508e6001016000828152602001908152602001600020600501546000145b15611f6e5760008f55611fb5565b8e548b1080611f8857508e548b148015611f885750818a10155b15611fb557858f6000018190555060008f6001016000888152602001908152602001600020600001819055505b611fbe8f61276c565b505050505050945094509450945094565b600080600080611fdd613004565b6000611fe88a612265565b905060008060008984111580611ffc575089155b6120435760405162461bcd60e51b8152602060048201526018602482015277496e73756666696369656e74206c696d69742076616c756560401b6044820152606401611c48565b6120508d8d8d8d8861283b565b959e50919c509a50919650945092509050600061206d838a6133bb565b905080156121775782156120945789945061208d8e86611e42868861336e565b95506120af565b81156120af578994506120ac8e86611e66888661275a565b95505b60008e60010160008781526020019081526020016000206001018190555060008e600101600087815260200190815260200160002060000154905060008614612175575b8015612175578581111561215f57808f6001016000888152602001908152602001600020600001541461215b57808f600101600088815260200190815260200160002060000181905550858f6001016000838152602001908152602001600020600101819055505b8095505b600090815260018f0160205260409020546120f3565b505b808d111561218c57612189818e61336e565b96505b60006121978f61221e565b90508a811480156121c057508e6001016000828152602001908152602001600020600501546000145b156121ce5760008f55612215565b8e548b11806121e857508e548b1480156121e85750818a10155b1561221557858f6000018190555060008f6001016000888152602001908152602001600020600001819055505b611fbe8f612931565b80548061222d57506000919050565b5b60008181526001830160205260409020600201541561226057600090815260018201602052604090206002015461222e565b919050565b80548061227457506000919050565b5b600081815260018084016020526040909120015415612260576000908152600180830160205260409091200154612275565b60005b60008281526001808501602052604090912001541561076a5760009182526001808401602052604090922090910154906122aa565b60005b60008281526001840160205260409020600201541561076a57600091825260018301602052604090912060020154906122e2565b60008181808080805b8a84108061232b57508a155b801561233e57508983108061233e575089155b801561234957508515155b801561235d5750888610158061235d575088155b1561240c57600086815260018d0160205260409020600501549596508695945061238786866129c0565b61239190846133bb565b925061239d85856133bb565b93508a841180156123ad57508a15155b156123cf576123bc8b8561336e565b91506123c886836129c0565b90506123fb565b89831180156123dd57508915155b156123fb576123ec8a8461336e565b90506123f8868261275a565b91505b6124058c87611cdb565b955061231f565b811561241f5761241c828561336e565b93505b80156124325761242f818461336e565b92505b959b949a509550955095509550565b612449613004565b6000838152600185016020526040902060058101548311156124d35760405162461bcd60e51b815260206004820152603860248201527f4f7264657253746174697374696373547265654c69623a20416d6f756e74207460448201527f6f2072656d6f766520697320696e73756666696369656e7400000000000000006064820152608401611c48565b600381015465ffffffffffff61010090910481166000818152600684016020908152604091829020825160a08101845281548087168252600160301b8104871693820193909352600160601b9092049094169181019190915260018301546001600160a01b0316606082015260029092015460808301528491905b65ffffffffffff81161580159061256457508215155b156126b25765ffffffffffff8082166000908152600686016020908152604091829020825160a08101845281548086168252600160301b8104861693820193909352600160601b9092049093169181019190915260018201546001600160a01b031660608201526002909101546080820181905290925083106125fe5760808201516125f0908461336e565b92508160200151905061254e565b6040518060800160405280836000015165ffffffffffff16815260200183606001516001600160a01b0316815260200184815260200161263e89866129c0565b905260409283015165ffffffffffff908116600090815260068701602090815290859020855160a08101875281548085168252600160301b8104851693820193909352600160601b9092049092169481019490945260018101546001600160a01b0316606085015260020154608084015294505b815165ffffffffffff16156126d2576126d0888884600001516129d2565b505b60408501511561274f57604080860151600089815260018b016020908152838220895165ffffffffffff168352600601905291822060020180549192909161271b90849061336e565b9091555050604080860151600089815260018b0160205291822060050180549192909161274990849061336e565b90915550505b505050509392505050565b6000610bd2612710610df5858561339c565b805460009081526001820160205260409020600201541580156127a357508054600090815260018083016020526040909120015415155b156127fc578054600090815260018083016020526040808320909101548252902060020154156127ee57805460009081526001808301602052604090912001546127ee908290612c13565b6127fc818260000154612ceb565b8054600090815260018201602052604090206003015460ff161561283857805460009081526001820160205260409020600301805460ff191690555b50565b60008181808080805b8a84108061285057508a155b8015612863575089831080612863575089155b801561286e57508515155b801561288257508886111580612882575088155b1561240c57600086815260018d016020526040902060050154959650869594506128ac86866129c0565b6128b690846133bb565b92506128c285856133bb565b93508a841180156128d257508a15155b156128f4576128e18b8561336e565b91506128ed86836129c0565b9050612920565b898311801561290257508915155b15612920576129118a8461336e565b905061291d868261275a565b91505b61292a8c87611c29565b9550612844565b8054600090815260018083016020526040909120015415801561296857508054600090815260018201602052604090206002015415155b156127fc5780546000908152600180830160205260408083206002015483529091200154156129b257805460009081526001820160205260409020600201546129b2908290612ceb565b6127fc818260000154612c13565b6000610bd283610df56127108561339c565b60006129df848484612dc0565b612a405760405162461bcd60e51b815260206004820152602c60248201527f4f7264657253746174697374696373547265654c69623a204f7264657220646f60448201526b195cc81b9bdd08195e1a5cdd60a21b6064820152608401611c48565b50600082815260018085016020908152604080842065ffffffffffff808716865260068201808552838720845160a08101865281548085168252600160301b8104851682890152600160601b9004841681870152818801546001600160a01b031660608201526002918201546080820181905260038601546101009004909416808a529290965293909620909201549194909390915b8665ffffffffffff168314612b3a57600092835260068501602052604090922054600160301b900465ffffffffffff169181612b1181613353565b6000858152600688016020526040902060020154909350612b339150826133bb565b9050612ad6565b600385015465ffffffffffff888116670100000000000000909204161415612b9457612b6889896000612dde565b600088815260018a016020526040902060030180546cffffffffffff0000000000000019169055612bd2565b612ba389898660200151612dde565b60208085015165ffffffffffff1660009081526006870190915260409020805465ffffffffffff60601b191690555b81856004016000828254612be6919061336e565b9250508190555080856005016000828254612c01919061336e565b90915550959998505050505050505050565b600081815260018084016020526040808320600281018054915482865292852090930154938590529183905590918015612c5b57600081815260018601602052604090208490555b6000838152600186016020526040902082905581612c7b57828555612cc8565b6000828152600180870160205260409091200154841415612cb15760008281526001808701602052604090912001839055612cc8565b600082815260018601602052604090206002018390555b505060008181526001938401602052604080822090940183905591825291902055565b60008181526001808401602052604080832091820180549254838552918420600201549385905283905590918015612d3157600081815260018601602052604090208490555b6000838152600186016020526040902082905581612d5157828555612d9e565b6000828152600186016020526040902060020154841415612d875760008281526001860160205260409020600201839055612d9e565b600082815260018087016020526040909120018390555b5050600081815260019093016020526040808420600201839055918352912055565b6000612dcd848484612e16565b80156112de57506112de8484612f4b565b6000918252600190920160205260409020600301805465ffffffffffff9092166101000266ffffffffffff0019909216919091179055565b600082815260018085016020908152604080842065ffffffffffff808716808752600683018552838720845160a0810186528154808516808352600160301b8204861698830198909852600160601b900490931694830194909452948301546001600160a01b0316606082015260029092015460808301528593909214612ea35760009350505050610bd2565b5b604081015165ffffffffffff1615612f2c5760409081015165ffffffffffff808216600090815260068501602090815290849020845160a08101865281548085168252600160301b8104851693820193909352600160601b9092049092169381019390935260018101546001600160a01b031660608401526002015460808301529250612ea4565b5060030154610100900465ffffffffffff908116911614949350505050565b600081612f5a57506000610405565b8254821415612f6b57506001610405565b815b600081815260018501602052604090205415612ffa5760008181526001808601602052604080832054808452922001548214801590612fbf575060008181526001860160205260409020600201548214155b15612fcf57600092505050610405565b8454811415612fe357600192505050610405565b506000908152600184016020526040902054612f6d565b5060009392505050565b6040518060800160405280600065ffffffffffff16815260200160006001600160a01b0316815260200160008152602001600081525090565b803560ff8116811461226057600080fd5b60006020828403121561306057600080fd5b610bd28261303d565b600081518084526020808501945080840160005b838110156130995781518752958201959082019060010161307d565b509495945050505050565b602081526000610bd26020830184613069565b858152602081018590526040810184905261016081016131096060830185805165ffffffffffff1682526020808201516001600160a01b03169083015260408082015190830152606090810151910152565b825165ffffffffffff1660e083015260208301516001600160a01b0316610100830152604083015161012083015260608301516101408301525b9695505050505050565b634e487b7160e01b600052604160045260246000fd5b6000602080838503121561317657600080fd5b823567ffffffffffffffff8082111561318e57600080fd5b818501915085601f8301126131a257600080fd5b8135818111156131b4576131b461314d565b8060051b604051601f19603f830116810181811085821117156131d9576131d961314d565b6040529182528482019250838101850191888311156131f757600080fd5b938501935b828510156118205761320d8561303d565b845293850193928501926131fc565b600080600080600060a0868803121561323457600080fd5b61323d8661303d565b945061324b6020870161303d565b94979496505050506040830135926060810135926080909101359150565b60008060006060848603121561327e57600080fd5b505081359360208301359350604090920135919050565b6000602082840312156132a757600080fd5b5035919050565b600080604083850312156132c157600080fd5b6132ca8361303d565b946020939093013593505050565b6060815260006132eb6060830186613069565b82810360208401526132fd8186613069565b905082810360408401526131438185613069565b634e487b7160e01b600052602160045260246000fd5b634e487b7160e01b600052603260045260246000fd5b634e487b7160e01b600052601160045260246000fd5b60006000198214156133675761336761333d565b5060010190565b6000828210156133805761338061333d565b500390565b6000816133945761339461333d565b506000190190565b60008160001904831182151516156133b6576133b661333d565b500290565b600082198211156133ce576133ce61333d565b500190565b600060ff821660ff8114156133ea576133ea61333d565b60010192915050565b60008261341057634e487b7160e01b600052601260045260246000fd5b500490565b60208082526035908201527f4f7264657253746174697374696373547265654c69623a205374617274696e676040820152742076616c75652063616e6e6f74206265207a65726f60581b60608201526080019056fea2646970667358221220c63d1e311290d7caa0a42baa6ff98cb62a13ed1a2c0ec27abc53e8c63181a9c264736f6c63430008090033",
  "devdoc": {
    "kind": "dev",
    "methods": {},
    "version": 1
  },
  "userdoc": {
    "kind": "user",
    "methods": {},
    "version": 1
  },
  "storageLayout": {
    "storage": [],
    "types": null
  }
}