{
  "address": "0x4A5EFFCb725F11334Ca952940eBE12E4E3178229",
  "abi": [
    {
      "inputs": [],
      "name": "InvalidCircuitBreakerLimitRange",
      "type": "error"
    },
    {
      "inputs": [],
      "name": "InvalidOrderFeeRate",
      "type": "error"
    },
    {
      "inputs": [],
      "name": "OrderBookNotMatured",
      "type": "error"
    },
    {
      "anonymous": false,
      "inputs": [
        {
          "indexed": false,
          "internalType": "bytes32",
          "name": "ccy",
          "type": "bytes32"
        },
        {
          "indexed": false,
          "internalType": "uint256",
          "name": "previousRate",
          "type": "uint256"
        },
        {
          "indexed": false,
          "internalType": "uint256",
          "name": "rate",
          "type": "uint256"
        }
      ],
      "name": "CircuitBreakerLimitRangeUpdated",
      "type": "event"
    },
    {
      "anonymous": false,
      "inputs": [
        {
          "indexed": false,
          "internalType": "bytes32",
          "name": "ccy",
          "type": "bytes32"
        },
        {
          "indexed": false,
          "internalType": "uint256",
          "name": "maturity",
          "type": "uint256"
        },
        {
          "indexed": false,
          "internalType": "uint256",
          "name": "openingUnitPrice",
          "type": "uint256"
        },
        {
          "indexed": false,
          "internalType": "uint256",
          "name": "lastLendUnitPrice",
          "type": "uint256"
        },
        {
          "indexed": false,
          "internalType": "uint256",
          "name": "lastBorrowUnitPrice",
          "type": "uint256"
        },
        {
          "indexed": false,
          "internalType": "uint256",
          "name": "offsetAmount",
          "type": "uint256"
        }
      ],
      "name": "ItayoseExecuted",
      "type": "event"
    },
    {
      "anonymous": false,
      "inputs": [
        {
          "indexed": false,
          "internalType": "uint8",
          "name": "orderBookId",
          "type": "uint8"
        },
        {
          "indexed": false,
          "internalType": "uint256",
          "name": "maturity",
          "type": "uint256"
        },
        {
          "indexed": false,
          "internalType": "uint256",
          "name": "openingDate",
          "type": "uint256"
        }
      ],
      "name": "OrderBookCreated",
      "type": "event"
    },
    {
      "anonymous": false,
      "inputs": [
        {
          "indexed": false,
          "internalType": "bytes32",
          "name": "ccy",
          "type": "bytes32"
        },
        {
          "indexed": false,
          "internalType": "uint256",
          "name": "previousRate",
          "type": "uint256"
        },
        {
          "indexed": false,
          "internalType": "uint256",
          "name": "rate",
          "type": "uint256"
        }
      ],
      "name": "OrderFeeRateUpdated",
      "type": "event"
    },
    {
      "inputs": [
        {
          "internalType": "uint8",
          "name": "_orderBookId",
          "type": "uint8"
        }
      ],
      "name": "getBestBorrowUnitPrice",
      "outputs": [
        {
          "internalType": "uint256",
          "name": "",
          "type": "uint256"
        }
      ],
      "stateMutability": "view",
      "type": "function"
    },
    {
      "inputs": [
        {
          "internalType": "uint8[]",
          "name": "_orderBookIds",
          "type": "uint8[]"
        }
      ],
      "name": "getBestBorrowUnitPrices",
      "outputs": [
        {
          "internalType": "uint256[]",
          "name": "unitPrices",
          "type": "uint256[]"
        }
      ],
      "stateMutability": "view",
      "type": "function"
    },
    {
      "inputs": [
        {
          "internalType": "uint8",
          "name": "_orderBookId",
          "type": "uint8"
        }
      ],
      "name": "getBestLendUnitPrice",
      "outputs": [
        {
          "internalType": "uint256",
          "name": "",
          "type": "uint256"
        }
      ],
      "stateMutability": "view",
      "type": "function"
    },
    {
      "inputs": [
        {
          "internalType": "uint8[]",
          "name": "_orderBookIds",
          "type": "uint8[]"
        }
      ],
      "name": "getBestLendUnitPrices",
      "outputs": [
        {
          "internalType": "uint256[]",
          "name": "unitPrices",
          "type": "uint256[]"
        }
      ],
      "stateMutability": "view",
      "type": "function"
    },
    {
      "inputs": [
        {
          "internalType": "uint8",
          "name": "_orderBookId",
          "type": "uint8"
        },
        {
          "internalType": "uint256",
          "name": "_count",
          "type": "uint256"
        }
      ],
      "name": "getBlockUnitPriceAverage",
      "outputs": [
        {
          "internalType": "uint256",
          "name": "",
          "type": "uint256"
        }
      ],
      "stateMutability": "view",
      "type": "function"
    },
    {
      "inputs": [
        {
          "internalType": "uint8",
          "name": "_orderBookId",
          "type": "uint8"
        },
        {
          "internalType": "uint256",
          "name": "_limit",
          "type": "uint256"
        }
      ],
      "name": "getBorrowOrderBook",
      "outputs": [
        {
          "internalType": "uint256[]",
          "name": "unitPrices",
          "type": "uint256[]"
        },
        {
          "internalType": "uint256[]",
          "name": "amounts",
          "type": "uint256[]"
        },
        {
          "internalType": "uint256[]",
          "name": "quantities",
          "type": "uint256[]"
        }
      ],
      "stateMutability": "view",
      "type": "function"
    },
    {
      "inputs": [
        {
          "internalType": "uint8",
          "name": "_orderBookId",
          "type": "uint8"
        }
      ],
      "name": "getCircuitBreakerThresholds",
      "outputs": [
        {
          "internalType": "uint256",
          "name": "maxLendUnitPrice",
          "type": "uint256"
        },
        {
          "internalType": "uint256",
          "name": "minBorrowUnitPrice",
          "type": "uint256"
        }
      ],
      "stateMutability": "view",
      "type": "function"
    },
    {
      "inputs": [
        {
          "internalType": "uint8",
          "name": "_orderBookId",
          "type": "uint8"
        },
        {
          "internalType": "uint256",
          "name": "_limit",
          "type": "uint256"
        }
      ],
      "name": "getLendOrderBook",
      "outputs": [
        {
          "internalType": "uint256[]",
          "name": "unitPrices",
          "type": "uint256[]"
        },
        {
          "internalType": "uint256[]",
          "name": "amounts",
          "type": "uint256[]"
        },
        {
          "internalType": "uint256[]",
          "name": "quantities",
          "type": "uint256[]"
        }
      ],
      "stateMutability": "view",
      "type": "function"
    },
    {
      "inputs": [
        {
          "internalType": "uint8",
          "name": "_orderBookId",
          "type": "uint8"
        }
      ],
      "name": "getMarketUnitPrice",
      "outputs": [
        {
          "internalType": "uint256",
          "name": "",
          "type": "uint256"
        }
      ],
      "stateMutability": "view",
      "type": "function"
    },
    {
      "inputs": [
        {
          "internalType": "uint8[]",
          "name": "_orderBookIds",
          "type": "uint8[]"
        }
      ],
      "name": "getMaturities",
      "outputs": [
        {
          "internalType": "uint256[]",
          "name": "maturities",
          "type": "uint256[]"
        }
      ],
      "stateMutability": "view",
      "type": "function"
    },
    {
      "inputs": [
        {
          "internalType": "uint8",
          "name": "_orderBookId",
          "type": "uint8"
        }
      ],
      "name": "getOrderBookDetail",
      "outputs": [
        {
          "components": [
            {
              "internalType": "bytes32",
              "name": "ccy",
              "type": "bytes32"
            },
            {
              "internalType": "uint256",
              "name": "maturity",
              "type": "uint256"
            },
            {
              "internalType": "uint256",
              "name": "openingDate",
              "type": "uint256"
            },
            {
              "internalType": "uint256",
              "name": "borrowUnitPrice",
              "type": "uint256"
            },
            {
              "internalType": "uint256",
              "name": "lendUnitPrice",
              "type": "uint256"
            },
            {
              "internalType": "uint256",
              "name": "marketUnitPrice",
              "type": "uint256"
            },
            {
              "internalType": "uint256",
              "name": "openingUnitPrice",
              "type": "uint256"
            },
            {
              "internalType": "bool",
              "name": "isReady",
              "type": "bool"
            }
          ],
          "internalType": "struct ILendingMarket.OrderBook",
          "name": "",
          "type": "tuple"
        }
      ],
      "stateMutability": "view",
      "type": "function"
    },
    {
      "inputs": [
        {
          "internalType": "uint8",
          "name": "_orderBookId",
          "type": "uint8"
        }
      ],
      "name": "isItayosePeriod",
      "outputs": [
        {
          "internalType": "bool",
          "name": "",
          "type": "bool"
        }
      ],
      "stateMutability": "view",
      "type": "function"
    },
    {
      "inputs": [
        {
          "internalType": "uint8",
          "name": "_orderBookId",
          "type": "uint8"
        }
      ],
      "name": "isMatured",
      "outputs": [
        {
          "internalType": "bool",
          "name": "",
          "type": "bool"
        }
      ],
      "stateMutability": "view",
      "type": "function"
    },
    {
      "inputs": [
        {
          "internalType": "uint8",
          "name": "_orderBookId",
          "type": "uint8"
        }
      ],
      "name": "isOpened",
      "outputs": [
        {
          "internalType": "bool",
          "name": "",
          "type": "bool"
        }
      ],
      "stateMutability": "view",
      "type": "function"
    },
    {
      "inputs": [
        {
          "internalType": "uint8",
          "name": "_orderBookId",
          "type": "uint8"
        }
      ],
      "name": "isPreOrderPeriod",
      "outputs": [
        {
          "internalType": "bool",
          "name": "",
          "type": "bool"
        }
      ],
      "stateMutability": "view",
      "type": "function"
    },
    {
      "inputs": [
        {
          "internalType": "uint8",
          "name": "_orderBookId",
          "type": "uint8"
        }
      ],
      "name": "isReady",
      "outputs": [
        {
          "internalType": "bool",
          "name": "",
          "type": "bool"
        }
      ],
      "stateMutability": "view",
      "type": "function"
    }
  ],
  "transactionHash": "0x4e4f9864a0e50aaf2477795f081e0380c85f2821c86af35fbbc68c3cbf34bff0",
  "args": [],
  "numDeployments": 1,
  "solcInputHash": "5f272548a4eadb3cee57b31fd7d705a1",
  "bytecode": "0x61344b61003a600b82828239805160001a60731461002d57634e487b7160e01b600052600060045260246000fd5b30600052607381538281f3fe73000000000000000000000000000000000000000030146080604052600436106101415760003560e01c80635f7f8b45116100c257806382bdfed51161008657806382bdfed514610375578063932c938514610388578063a3b88aa0146103aa578063cd458662146103bd578063f8044e6c146103d0578063fffa87b8146103e357600080fd5b80635f7f8b45146102995780636a5138d6146102ac5780636aa65aaf146102bf5780636c5d6df1146102df57806380d5b609146102ff57600080fd5b80633a9a3ecc116101095780633a9a3ecc146101f75780634ea469d51461021957806350e187011461024b578063576737171461027357806358e648971461028657600080fd5b8063261cc1b21461014657806329d6dd13146101805780632bfa7c13146101a3578063381e9344146101c457806338b05852146101d7575b600080fd5b81801561015257600080fd5b50610166610161366004612ff7565b6103f6565b604051610177959493929190613012565b60405180910390f35b61019361018e366004612ff7565b610635565b6040519015158152602001610177565b6101b66101b1366004612ff7565b61066b565b604051908152602001610177565b6101936101d2366004612ff7565b610684565b6101ea6101e53660046130be565b6106ba565b60405161017791906131be565b81801561020357600080fd5b506102176102123660046131d1565b610769565b005b81801561022557600080fd5b5061023961023436600461321e565b610824565b60405160ff9091168152602001610177565b61025e610259366004612ff7565b6108b9565b60408051928352602083019190915201610177565b6101ea6102813660046130be565b610901565b6101b6610294366004612ff7565b6109a1565b6101b66102a7366004612ff7565b6109af565b6101936102ba366004612ff7565b6109c2565b8180156102cb57600080fd5b506102176102da366004613240565b6109fc565b8180156102eb57600080fd5b506102176102fa366004613240565b610a8f565b61031261030d366004612ff7565b610afe565b6040516101779190600061010082019050825182526020830151602083015260408301516040830152606083015160608301526080830151608083015260a083015160a083015260c083015160c083015260e0830151151560e083015292915050565b610193610383366004612ff7565b610c07565b61039b610396366004613259565b610c1f565b60405161017793929190613283565b6101b66103b8366004613259565b610c44565b6101ea6103cb3660046130be565b610c60565b61039b6103de366004613259565b610cfb565b6101936103f1366004612ff7565b610d13565b6000806000610403612fad565b61040b612fad565b600080600061041989610d51565b905061042481610d76565b929a5091985093509150861561059457604080518082019091526000808252600160208301525b600281101561052e57600061045e612fad565b6104896040518060800160405280600081526020016000815260200160008152602001600081525090565b6104ae85856002811061049e5761049e6132d2565b602002015187908e600080610f7b565b50506040820151909350909150156104ca576104ca868e6110ce565b6060820151156105185760008585600281106104e8576104e86132d2565b602002015160018111156104fe576104fe6132bc565b14156105105760019250819850610518565b600092508199505b5050508080610526906132fe565b91505061044b565b507fa9952c3d01896ca75bba3aede761be10089d8d4725c9fee6b99245515986ef6061055861111b565b54600484015460408051928352602083019190915281018b9052606081018690526080810185905260a081018a905260c00160405180910390a1505b600161059e61111b565b60050160008360040154815260200190815260200160002060006101000a81548160ff0219169083151502179055506040518060600160405280898152602001848152602001838152506105f061111b565b60048301546000908152600691909101602090815260409182902083518155908301516001820155910151600290910155600301549698959750929491935090915050565b600061063f61111b565b600501600061064d84610d51565b60040154815260208101919091526040016000205460ff1692915050565b600061067e61067983610d51565b61113f565b92915050565b6000610e1061069283610d51565b600301546106a09190613319565b421015801561067e57506106b382610635565b1592915050565b6060815167ffffffffffffffff8111156106d6576106d66130a8565b6040519080825280602002602001820160405280156106ff578160200160208202803683370190505b50905060005b825181101561076357610730838281518110610723576107236132d2565b6020026020010151610d51565b60040154828281518110610746576107466132d2565b60209081029190910101528061075b816132fe565b915050610705565b50919050565b600061077361111b565b60ff87166000908152600491820160205260409020908101549091504210156107af57604051632e98f16560e11b815260040160405180910390fd5b6107ba8185856111d3565b6107c261111b565b600086815260059190910160205260408120805460ff1916921515929092179091556107ec61111b565b60ff8716600090815260049190910160205260409020905061080d8161113f565b61081b5761081b81846110ce565b50505050505050565b600061082e61121d565b9050610845838361083e84610d51565b91906111d3565b61084d61111b565b60008581526005919091016020908152604091829020805460ff191693151593909317909255805160ff8416815291820185905281018390527f04ec0e7cdb609ffd421993d30756b50a4c420e88ce7f59bb3e29b5a8fe1fcf4a9060600160405180910390a192915050565b6000806108da6108c761111b565b600301546108d485610d51565b90611268565b91506108fa6108e761111b565b600301546108f485610d51565b906112e5565b9050915091565b6060815167ffffffffffffffff81111561091d5761091d6130a8565b604051908082528060200260200182016040528015610946578160200160208202803683370190505b50905060005b82518110156107635761097261096d848381518110610723576107236132d2565b611349565b828281518110610984576109846132d2565b602090810291909101015280610999816132fe565b91505061094c565b600061067e61096d83610d51565b600061067e6109bd83610d51565b611367565b60006109cd82610635565b80156109df57506109dd82610c07565b155b801561067e57506109ef82610d51565b6003015442101592915050565b6127108110610a1e57604051636d3872b560e11b815260040160405180910390fd5b6000610a2861111b565b600201549050808214610a8b5781610a3e61111b565b600201557fad24e9bff76148b1b779fc330ea225198d2b44136c7a8e5fbec46c99c7775632610a6b61111b565b546040805191825260208201849052810184905260600160405180910390a15b5050565b6127108110610ab157604051631ce2ca3b60e31b815260040160405180910390fd5b6000610abb61111b565b600301549050808214610a8b5781610ad161111b565b600301557fee52d515b96986517a19b501c0a50b03f4edace46ba0484faaea7590969adcf6610a6b61111b565b610b4b604051806101000160405280600080191681526020016000815260200160008152602001600081526020016000815260200160008152602001600081526020016000151581525090565b6000610b5683610d51565b9050600081600401549050604051806101000160405280610b7561111b565b5481526020810183905260038401546040820152606001610b9584611367565b8152602001610ba384611349565b8152602001610bb18461113f565b8152602001610bbe61111b565b600601600085600401548152602001908152602001600020600001548152602001610be761111b565b600093845260050160205260409092205460ff1615159091529392505050565b600061067e610c1583610d51565b6004015442101590565b6060806060610c3784610c3187610d51565b9061139f565b9250925092509250925092565b6000610c5982610c5385610d51565b9061164a565b9392505050565b6060815167ffffffffffffffff811115610c7c57610c7c6130a8565b604051908082528060200260200182016040528015610ca5578160200160208202803683370190505b50905060005b825181101561076357610ccc6109bd848381518110610723576107236132d2565b828281518110610cde57610cde6132d2565b602090810291909101015280610cf3816132fe565b915050610cab565b6060806060610c3784610d0d87610d51565b9061177a565b600080610d1f83610d51565b600301549050610d3262093a8082613319565b4210158015610c595750610d48610e1082613319565b42109392505050565b6000610d5b61111b565b60ff9092166000908152600492909201602052506040902090565b6000806000806000610d8786611349565b90506000610d9487611367565b60048801546000908152600a8901602090815260408083208684526001019091528120600501549192509060048901546000908152600b8a01602090815260408083208684526001019091528120600501549192509060048a01546000908152600b8b0160209081526040808320600a8e019092529091209192509085851115610e4557610e2d6002610e278789613330565b90611a35565b995060009850889750879650610f7495505050505050565b858511158015610e555750600085115b8015610e615750600086115b15610f6d5785985084975082841115610eba578599508287610e839190613330565b9650610e8f8385613319565b9350610e9b8286611aa6565b60008181526001840160205260409020600501549095505b9250610e45565b82841015610f07578499508387610ed19190613330565b9650610edd8484613319565b9250610ee98187611b58565b60008181526001830160205260409020600501549096509350610e45565b610f166002610e278789613330565b9950610f228488613330565b9650610f2e8187611b58565b9550610f3a8286611aa6565b60008781526001830160205260409020600501549095506000868152600184016020526040902060050154909450610eb3565b5050505050505b9193509193565b610fa66040518060800160405280600081526020016000815260200160008152602001600081525090565b610fae612fad565b600080610fb9612fad565b6001896001811115610fcd57610fcd6132bc565b141561101d5760048a01546000908152600a8b0160205260409020610ff4818a8a8a611c01565b60408b01929092529189526020890192909252945091506110158154151590565b92505061107d565b6000896001811115611031576110316132bc565b141561107d5760048a01546000908152600b8b0160205260409020611058818a8a8a611e4c565b60408b01929092529189526020890192909252945091506110798154151590565b9250505b6040518060800160405280826000015165ffffffffffff16815260200182602001516001600160a01b0316815260200182604001518152602001826060015181525093505095509550955095915050565b815476ffffffffffffffffffff00ffffffffffff000000000000191661ffff91909116600160681b026bffffffffffff000000000000191617600160301b4365ffffffffffff1602179055565b7ffc2836757f9146445fc75bc3c897a210ec004e4ee60fc8627ef5cbf2842b3d0a90565b805460009061115d90600160681b90046001600160501b031661209b565b60008151811061116f5761116f6132d2565b6020908102919091010151825490915065ffffffffffff600160301b909104164314158061119b575080155b80156111af57508154600160601b900460ff165b156111ce5761067e82600201546127108460010154610e279190613348565b919050565b60048301829055600383018190558254600060018501819055600285018190556001600160b81b0319909116845561120d610e1083613319565b4210610c59575060019392505050565b600061122761111b565b600101805460ff1690600061123b83613367565b91906101000a81548160ff021916908360ff1602179055505061125c61111b565b6001015460ff16919050565b60008061127684600361164a565b905061129f612710611289856002613348565b61129590612710613330565b610e279084613348565b91506127108211806112af575080155b156112be5761271091506112de565b6112c9606482613330565b8210156112de576112db606482613330565b91505b5092915050565b6000806112f384600561164a565b90506113056127106112958582613319565b9150811580611312575080155b8061131e575060648111155b1561132c57600191506112de565b611337606483613330565b8110156112de576112db606482613319565b60048101546000908152600a82016020526040812061067e906121ab565b60048101546000908152600b8201602052604081208190611387906121ed565b905080156113955780610c59565b6127109392505050565b60608060608367ffffffffffffffff8111156113bd576113bd6130a8565b6040519080825280602002602001820160405280156113e6578160200160208202803683370190505b5092508367ffffffffffffffff811115611402576114026130a8565b60405190808252806020026020018201604052801561142b578160200160208202803683370190505b5091508367ffffffffffffffff811115611447576114476130a8565b604051908082528060200260200182016040528015611470578160200160208202803683370190505b5060048601546000908152600b87016020526040812091925090611493906121ed565b905080846000815181106114a9576114a96132d2565b6020026020010181815250506114e08187600b01600089600401548152602001908152602001600020611a1c90919063ffffffff16565b836000815181106114f3576114f36132d2565b60200260200101818152505061152a8187600b0160008960040154815260200190815260200160002061222f90919063ffffffff16565b8260008151811061153d5761153d6132d2565b602090810291909101015260015b8451811015611641578161155e57611641565b60048701546000908152600b88016020526040902061157d9083611aa6565b915081858281518110611592576115926132d2565b6020026020010181815250506115c98288600b0160008a600401548152602001908152602001600020611a1c90919063ffffffff16565b8482815181106115db576115db6132d2565b6020026020010181815250506116128288600b0160008a60040154815260200190815260200160002061222f90919063ffffffff16565b838281518110611624576116246132d2565b602090810291909101015280611639816132fe565b91505061154b565b50509250925092565b8154600090819061166a90600160681b90046001600160501b031661209b565b8051855491925090600090819065ffffffffffff600160301b90910416431480159061169e57508654600160601b900460ff165b156116d1576116bd87600201546127108960010154610e279190613348565b915060019050856116cd81613387565b9650505b60005b8681101561175557838110158061170457508481815181106116f8576116f86132d2565b60200260200101516000145b1561170e57611755565b848181518110611720576117206132d2565b6020026020010151836117339190613330565b92508161173f816132fe565b925050808061174d906132fe565b9150506116d4565b506000811161176557600061176f565b61176f8282611a35565b979650505050505050565b60608060608367ffffffffffffffff811115611798576117986130a8565b6040519080825280602002602001820160405280156117c1578160200160208202803683370190505b5092508367ffffffffffffffff8111156117dd576117dd6130a8565b604051908082528060200260200182016040528015611806578160200160208202803683370190505b5091508367ffffffffffffffff811115611822576118226130a8565b60405190808252806020026020018201604052801561184b578160200160208202803683370190505b5060048601546000908152600a8701602052604081209192509061186e906121ab565b90508084600081518110611884576118846132d2565b6020026020010181815250506118bb8187600a01600089600401548152602001908152602001600020611a1c90919063ffffffff16565b836000815181106118ce576118ce6132d2565b6020026020010181815250506119058187600a0160008960040154815260200190815260200160002061222f90919063ffffffff16565b82600081518110611918576119186132d2565b602090810291909101015260015b8451811015611641578161193957611641565b60048701546000908152600a8801602052604090206119589083611b58565b91508185828151811061196d5761196d6132d2565b6020026020010181815250506119a48288600a0160008a600401548152602001908152602001600020611a1c90919063ffffffff16565b8482815181106119b6576119b66132d2565b6020026020010181815250506119ed8288600a0160008a60040154815260200190815260200160002061222f90919063ffffffff16565b8382815181106119ff576119ff6132d2565b602090810291909101015280611a14816132fe565b915050611926565b6000908152600191909101602052604090206005015490565b6000808211611a4357600080fd5b6005611a4f838561339e565b611a5a90600a613348565b83611a6686600a613348565b611a70919061339e565b611a7a9190613319565b1015611a9157611a8a828461339e565b905061067e565b611a9b828461339e565b611a8a906001613330565b600081611ace5760405162461bcd60e51b8152600401611ac5906133c0565b60405180910390fd5b600082815260018401602052604090206002015415611b06576000828152600184016020526040902060020154611a8a908490612248565b5060008181526001830160205260409020545b8015801590611b3a5750600081815260018401602052604090206002015482145b1561067e576000818152600184016020526040902054909150611b19565b600081611b775760405162461bcd60e51b8152600401611ac5906133c0565b600082815260018085016020526040909120015415611baf576000828152600180850160205260409091200154611a8a908490612280565b5060008181526001830160205260409020545b8015801590611be35750600081815260018085016020526040909120015482145b1561067e576000818152600184016020526040902054909150611bc2565b600080600080611c0f612fad565b6000611c1a8a6121ab565b905060008060008984101580611c2e575089155b611c755760405162461bcd60e51b8152602060048201526018602482015277496e73756666696369656e74206c696d69742076616c756560401b6044820152606401611ac5565b611c828d8d8d8d886122b7565b959e50919c509a509196509450925090506000611c9f838a613330565b90508015611d94578215611ccb57899450611cc48e86611cbf8688613319565b6123e2565b9550611cf0565b8115611cf057899450611ced8e86611ce388866126fb565b611cbf9088613319565b95505b600085815260018f01602052604081206002810191909155548515611d92575b8015611d925785811015611d7c57808f60010160008881526020019081526020016000206000015414611d7857808f600101600088815260200190815260200160002060000181905550858f6001016000838152602001908152602001600020600201819055505b8095505b600090815260018f016020526040902054611d10565b505b808d1115611da957611da6818e613319565b96505b6000611db48f6121ed565b90508a81148015611ddd57508e6001016000828152602001908152602001600020600501546000145b15611deb5760008f55611e32565b8e548b1080611e0557508e548b148015611e055750818a10155b15611e3257858f6000018190555060008f6001016000888152602001908152602001600020600001819055505b611e3b8f61270d565b505050505050945094509450945094565b600080600080611e5a612fad565b6000611e658a6121ed565b905060008060008984111580611e79575089155b611ec05760405162461bcd60e51b8152602060048201526018602482015277496e73756666696369656e74206c696d69742076616c756560401b6044820152606401611ac5565b611ecd8d8d8d8d886127dc565b959e50919c509a509196509450925090506000611eea838a613330565b90508015611ff4578215611f1157899450611f0a8e86611cbf8688613319565b9550611f2c565b8115611f2c57899450611f298e86611ce388866126fb565b95505b60008e60010160008781526020019081526020016000206001018190555060008e600101600087815260200190815260200160002060000154905060008614611ff2575b8015611ff25785811115611fdc57808f60010160008881526020019081526020016000206000015414611fd857808f600101600088815260200190815260200160002060000181905550858f6001016000838152602001908152602001600020600101819055505b8095505b600090815260018f016020526040902054611f70565b505b808d111561200957612006818e613319565b96505b60006120148f6121ab565b90508a8114801561203d57508e6001016000828152602001908152602001600020600501546000145b1561204b5760008f55612092565b8e548b118061206557508e548b1480156120655750818a10155b1561209257858f6000018190555060008f6001016000888152602001908152602001600020600001819055505b611e3b8f6128d2565b60408051600580825260c082019092526060916020820160a0803683370190505090508161ffff16816000815181106120d6576120d66132d2565b6020026020010181815250506010826001600160501b0316901c61ffff1681600181518110612107576121076132d2565b6020026020010181815250506020826001600160501b0316901c61ffff1681600281518110612138576121386132d2565b6020026020010181815250506030826001600160501b0316901c61ffff1681600381518110612169576121696132d2565b6020026020010181815250506040826001600160501b0316901c61ffff168160048151811061219a5761219a6132d2565b602002602001018181525050919050565b8054806121ba57506000919050565b5b6000818152600183016020526040902060020154156111ce5760009081526001820160205260409020600201546121bb565b8054806121fc57506000919050565b5b6000818152600180840160205260409091200154156111ce5760009081526001808301602052604090912001546121fd565b6000908152600191909101602052604090206004015490565b60005b60008281526001808501602052604090912001541561076357600091825260018084016020526040909220909101549061224b565b60005b6000828152600184016020526040902060020154156107635760009182526001830160205260409091206002015490612283565b60008181808080805b8a8410806122cc57508a155b80156122df5750898310806122df575089155b80156122ea57508515155b80156122fe575088861015806122fe575088155b156123ad57600086815260018d016020526040902060050154959650869594506123288686612961565b6123329084613330565b925061233e8585613330565b93508a8411801561234e57508a15155b156123705761235d8b85613319565b91506123698683612961565b905061239c565b898311801561237e57508915155b1561239c5761238d8a84613319565b905061239986826126fb565b91505b6123a68c87611b58565b95506122c0565b81156123c0576123bd8285613319565b93505b80156123d3576123d08184613319565b92505b959b949a509550955095509550565b6123ea612fad565b6000838152600185016020526040902060058101548311156124745760405162461bcd60e51b815260206004820152603860248201527f4f7264657253746174697374696373547265654c69623a20416d6f756e74207460448201527f6f2072656d6f766520697320696e73756666696369656e7400000000000000006064820152608401611ac5565b600381015465ffffffffffff61010090910481166000818152600684016020908152604091829020825160a08101845281548087168252600160301b8104871693820193909352600160601b9092049094169181019190915260018301546001600160a01b0316606082015260029092015460808301528491905b65ffffffffffff81161580159061250557508215155b156126535765ffffffffffff8082166000908152600686016020908152604091829020825160a08101845281548086168252600160301b8104861693820193909352600160601b9092049093169181019190915260018201546001600160a01b0316606082015260029091015460808201819052909250831061259f5760808201516125919084613319565b9250816020015190506124ef565b6040518060800160405280836000015165ffffffffffff16815260200183606001516001600160a01b031681526020018481526020016125df8986612961565b905260409283015165ffffffffffff908116600090815260068701602090815290859020855160a08101875281548085168252600160301b8104851693820193909352600160601b9092049092169481019490945260018101546001600160a01b0316606085015260020154608084015294505b815165ffffffffffff16156126735761267188888460000151612973565b505b6040850151156126f057604080860151600089815260018b016020908152838220895165ffffffffffff16835260060190529182206002018054919290916126bc908490613319565b9091555050604080860151600089815260018b016020529182206005018054919290916126ea908490613319565b90915550505b505050509392505050565b6000610c59612710610e278585613348565b8054600090815260018201602052604090206002015415801561274457508054600090815260018083016020526040909120015415155b1561279d5780546000908152600180830160205260408083209091015482529020600201541561278f578054600090815260018083016020526040909120015461278f908290612bb4565b61279d818260000154612c8c565b8054600090815260018201602052604090206003015460ff16156127d957805460009081526001820160205260409020600301805460ff191690555b50565b60008181808080805b8a8410806127f157508a155b8015612804575089831080612804575089155b801561280f57508515155b801561282357508886111580612823575088155b156123ad57600086815260018d0160205260409020600501549596508695945061284d8686612961565b6128579084613330565b92506128638585613330565b93508a8411801561287357508a15155b15612895576128828b85613319565b915061288e8683612961565b90506128c1565b89831180156128a357508915155b156128c1576128b28a84613319565b90506128be86826126fb565b91505b6128cb8c87611aa6565b95506127e5565b8054600090815260018083016020526040909120015415801561290957508054600090815260018201602052604090206002015415155b1561279d5780546000908152600180830160205260408083206002015483529091200154156129535780546000908152600182016020526040902060020154612953908290612c8c565b61279d818260000154612bb4565b6000610c5983610e2761271085613348565b6000612980848484612d61565b6129e15760405162461bcd60e51b815260206004820152602c60248201527f4f7264657253746174697374696373547265654c69623a204f7264657220646f60448201526b195cc81b9bdd08195e1a5cdd60a21b6064820152608401611ac5565b50600082815260018085016020908152604080842065ffffffffffff808716865260068201808552838720845160a08101865281548085168252600160301b8104851682890152600160601b9004841681870152818801546001600160a01b031660608201526002918201546080820181905260038601546101009004909416808a529290965293909620909201549194909390915b8665ffffffffffff168314612adb57600092835260068501602052604090922054600160301b900465ffffffffffff169181612ab2816132fe565b6000858152600688016020526040902060020154909350612ad4915082613330565b9050612a77565b600385015465ffffffffffff888116670100000000000000909204161415612b3557612b0989896000612d87565b600088815260018a016020526040902060030180546cffffffffffff0000000000000019169055612b73565b612b4489898660200151612d87565b60208085015165ffffffffffff1660009081526006870190915260409020805465ffffffffffff60601b191690555b81856004016000828254612b879190613319565b9250508190555080856005016000828254612ba29190613319565b90915550959998505050505050505050565b600081815260018084016020526040808320600281018054915482865292852090930154938590529183905590918015612bfc57600081815260018601602052604090208490555b6000838152600186016020526040902082905581612c1c57828555612c69565b6000828152600180870160205260409091200154841415612c525760008281526001808701602052604090912001839055612c69565b600082815260018601602052604090206002018390555b505060008181526001938401602052604080822090940183905591825291902055565b60008181526001808401602052604080832091820180549254838552918420600201549385905283905590918015612cd257600081815260018601602052604090208490555b6000838152600186016020526040902082905581612cf257828555612d3f565b6000828152600186016020526040902060020154841415612d285760008281526001860160205260409020600201839055612d3f565b600082815260018087016020526040909120018390555b5050600081815260019093016020526040808420600201839055918352912055565b6000612d6e848484612dbf565b8015612d7f5750612d7f8484612ef4565b949350505050565b6000918252600190920160205260409020600301805465ffffffffffff9092166101000266ffffffffffff0019909216919091179055565b600082815260018085016020908152604080842065ffffffffffff808716808752600683018552838720845160a0810186528154808516808352600160301b8204861698830198909852600160601b900490931694830194909452948301546001600160a01b0316606082015260029092015460808301528593909214612e4c5760009350505050610c59565b5b604081015165ffffffffffff1615612ed55760409081015165ffffffffffff808216600090815260068501602090815290849020845160a08101865281548085168252600160301b8104851693820193909352600160601b9092049092169381019390935260018101546001600160a01b031660608401526002015460808301529250612e4d565b5060030154610100900465ffffffffffff908116911614949350505050565b600081612f035750600061067e565b8254821415612f145750600161067e565b815b600081815260018501602052604090205415612fa35760008181526001808601602052604080832054808452922001548214801590612f68575060008181526001860160205260409020600201548214155b15612f785760009250505061067e565b8454811415612f8c5760019250505061067e565b506000908152600184016020526040902054612f16565b5060009392505050565b6040518060800160405280600065ffffffffffff16815260200160006001600160a01b0316815260200160008152602001600081525090565b803560ff811681146111ce57600080fd5b60006020828403121561300957600080fd5b610c5982612fe6565b858152602081018590526040810184905261016081016130646060830185805165ffffffffffff1682526020808201516001600160a01b03169083015260408082015190830152606090810151910152565b825165ffffffffffff1660e083015260208301516001600160a01b0316610100830152604083015161012083015260608301516101408301525b9695505050505050565b634e487b7160e01b600052604160045260246000fd5b600060208083850312156130d157600080fd5b823567ffffffffffffffff808211156130e957600080fd5b818501915085601f8301126130fd57600080fd5b81358181111561310f5761310f6130a8565b8060051b604051601f19603f83011681018181108582111715613134576131346130a8565b60405291825284820192508381018501918883111561315257600080fd5b938501935b828510156131775761316885612fe6565b84529385019392850192613157565b98975050505050505050565b600081518084526020808501945080840160005b838110156131b357815187529582019590820190600101613197565b509495945050505050565b602081526000610c596020830184613183565b600080600080600060a086880312156131e957600080fd5b6131f286612fe6565b945061320060208701612fe6565b94979496505050506040830135926060810135926080909101359150565b6000806040838503121561323157600080fd5b50508035926020909101359150565b60006020828403121561325257600080fd5b5035919050565b6000806040838503121561326c57600080fd5b61327583612fe6565b946020939093013593505050565b6060815260006132966060830186613183565b82810360208401526132a88186613183565b9050828103604084015261309e8185613183565b634e487b7160e01b600052602160045260246000fd5b634e487b7160e01b600052603260045260246000fd5b634e487b7160e01b600052601160045260246000fd5b6000600019821415613312576133126132e8565b5060010190565b60008282101561332b5761332b6132e8565b500390565b60008219821115613343576133436132e8565b500190565b6000816000190483118215151615613362576133626132e8565b500290565b600060ff821660ff81141561337e5761337e6132e8565b60010192915050565b600081613396576133966132e8565b506000190190565b6000826133bb57634e487b7160e01b600052601260045260246000fd5b500490565b60208082526035908201527f4f7264657253746174697374696373547265654c69623a205374617274696e676040820152742076616c75652063616e6e6f74206265207a65726f60581b60608201526080019056fea2646970667358221220d7f65543226aa2e9254f63f3c5c7695d11250bad610e16c9591cd5ae13040d7e64736f6c63430008090033",
  "devdoc": {
    "kind": "dev",
    "methods": {},
    "version": 1
  },
  "userdoc": {
    "kind": "user",
    "methods": {},
    "version": 1
  },
  "storageLayout": {
    "storage": [],
    "types": null
  }
}