{
  "address": "0x3937689Af89a31dF590a9B9623711c06c755E453",
  "abi": [
    {
      "anonymous": false,
      "inputs": [
        {
          "indexed": false,
          "internalType": "bytes32",
          "name": "name",
          "type": "bytes32"
        },
        {
          "indexed": false,
          "internalType": "address",
          "name": "destination",
          "type": "address"
        }
      ],
      "name": "CacheUpdated",
      "type": "event"
    },
    {
      "anonymous": false,
      "inputs": [
        {
          "indexed": false,
          "internalType": "uint8",
          "name": "version",
          "type": "uint8"
        }
      ],
      "name": "Initialized",
      "type": "event"
    },
    {
      "anonymous": false,
      "inputs": [
        {
          "indexed": true,
          "internalType": "address",
          "name": "previousOwner",
          "type": "address"
        },
        {
          "indexed": true,
          "internalType": "address",
          "name": "newOwner",
          "type": "address"
        }
      ],
      "name": "OwnershipTransferred",
      "type": "event"
    },
    {
      "anonymous": false,
      "inputs": [
        {
          "indexed": false,
          "internalType": "address",
          "name": "account",
          "type": "address"
        }
      ],
      "name": "Pause",
      "type": "event"
    },
    {
      "anonymous": false,
      "inputs": [
        {
          "indexed": false,
          "internalType": "address",
          "name": "account",
          "type": "address"
        }
      ],
      "name": "Unpause",
      "type": "event"
    },
    {
      "inputs": [],
      "name": "acceptedContracts",
      "outputs": [
        {
          "internalType": "bytes32[]",
          "name": "contracts",
          "type": "bytes32[]"
        }
      ],
      "stateMutability": "pure",
      "type": "function"
    },
    {
      "inputs": [],
      "name": "buildCache",
      "outputs": [],
      "stateMutability": "nonpayable",
      "type": "function"
    },
    {
      "inputs": [
        {
          "internalType": "bytes32",
          "name": "_ccy",
          "type": "bytes32"
        },
        {
          "internalType": "uint256",
          "name": "_amount",
          "type": "uint256"
        }
      ],
      "name": "deposit",
      "outputs": [],
      "stateMutability": "payable",
      "type": "function"
    },
    {
      "inputs": [],
      "name": "executeEmergencySettlement",
      "outputs": [],
      "stateMutability": "nonpayable",
      "type": "function"
    },
    {
      "inputs": [
        {
          "internalType": "address",
          "name": "_owner",
          "type": "address"
        },
        {
          "internalType": "address",
          "name": "_resolver",
          "type": "address"
        },
        {
          "internalType": "address",
          "name": "_WETH9",
          "type": "address"
        }
      ],
      "name": "initialize",
      "outputs": [],
      "stateMutability": "nonpayable",
      "type": "function"
    },
    {
      "inputs": [],
      "name": "isPaused",
      "outputs": [
        {
          "internalType": "bool",
          "name": "",
          "type": "bool"
        }
      ],
      "stateMutability": "view",
      "type": "function"
    },
    {
      "inputs": [],
      "name": "isResolverCached",
      "outputs": [
        {
          "internalType": "bool",
          "name": "",
          "type": "bool"
        }
      ],
      "stateMutability": "view",
      "type": "function"
    },
    {
      "inputs": [],
      "name": "owner",
      "outputs": [
        {
          "internalType": "address",
          "name": "",
          "type": "address"
        }
      ],
      "stateMutability": "view",
      "type": "function"
    },
    {
      "inputs": [],
      "name": "pause",
      "outputs": [],
      "stateMutability": "nonpayable",
      "type": "function"
    },
    {
      "inputs": [],
      "name": "renounceOwnership",
      "outputs": [],
      "stateMutability": "nonpayable",
      "type": "function"
    },
    {
      "inputs": [],
      "name": "requiredContracts",
      "outputs": [
        {
          "internalType": "bytes32[]",
          "name": "contracts",
          "type": "bytes32[]"
        }
      ],
      "stateMutability": "pure",
      "type": "function"
    },
    {
      "inputs": [],
      "name": "resolver",
      "outputs": [
        {
          "internalType": "contract IAddressResolver",
          "name": "",
          "type": "address"
        }
      ],
      "stateMutability": "view",
      "type": "function"
    },
    {
      "inputs": [
        {
          "internalType": "address",
          "name": "newOwner",
          "type": "address"
        }
      ],
      "name": "transferOwnership",
      "outputs": [],
      "stateMutability": "nonpayable",
      "type": "function"
    },
    {
      "inputs": [],
      "name": "unpause",
      "outputs": [],
      "stateMutability": "nonpayable",
      "type": "function"
    },
    {
      "inputs": [
        {
          "internalType": "bytes32",
          "name": "_ccy",
          "type": "bytes32"
        },
        {
          "internalType": "uint256",
          "name": "_amount",
          "type": "uint256"
        }
      ],
      "name": "withdraw",
      "outputs": [],
      "stateMutability": "nonpayable",
      "type": "function"
    },
    {
      "stateMutability": "payable",
      "type": "receive"
    }
  ],
  "transactionHash": "0x3527ba8a95154fa324d29a8b5462ed3209605d5a702d6af9d6d29cd0ac12eed9",
  "args": [],
  "numDeployments": 2,
  "solcInputHash": "34e6dfc19d231b4627a36b9e10846223",
  "bytecode": "0x608060405234801561001057600080fd5b506116a7806100206000396000f3fe6080604052600436106100ec5760003560e01c8063715018a61161008a578063b187bd2611610059578063b187bd2614610224578063c0c53b8b14610249578063e099765914610269578063f2fde38b1461027d57600080fd5b8063715018a6146101d05780638456cb59146101e55780638da5cb5b146101fa57806394e75a3e1461020f57600080fd5b806329985e5a116100c657806329985e5a1461015f5780632af64bd3146101745780633d03b9da146101995780633f4ba83a146101bb57600080fd5b8063040cf020146100f857806304f3bcec1461011a5780631de26e161461014c57600080fd5b366100f357005b600080fd5b34801561010457600080fd5b506101186101133660046113a8565b61029d565b005b34801561012657600080fd5b5061012f610403565b6040516001600160a01b0390911681526020015b60405180910390f35b61011861015a3660046113a8565b610424565b34801561016b57600080fd5b5061011861058c565b34801561018057600080fd5b5061018961073a565b6040519015158152602001610143565b3480156101a557600080fd5b506101ae6108a0565b60405161014391906113ca565b3480156101c757600080fd5b5061011861092a565b3480156101dc57600080fd5b50610118610977565b3480156101f157600080fd5b506101186109b2565b34801561020657600080fd5b5061012f6109fc565b34801561021b57600080fd5b50610118610a24565b34801561023057600080fd5b506000805160206116528339815191525460ff16610189565b34801561025557600080fd5b50610118610264366004611423565b610acd565b34801561027557600080fd5b5060606101ae565b34801561028957600080fd5b5061011861029836600461146e565b610c77565b336102a66109fc565b6001600160a01b0316146102d55760405162461bcd60e51b81526004016102cc90611492565b60405180910390fd5b6102dd610d14565b6040516220678160e51b815260048101849052602481018390526001600160a01b03919091169063040cf02090604401600060405180830381600087803b15801561032757600080fd5b505af115801561033b573d6000803e3d6000fd5b505050506000610349610d14565b6001600160a01b031663b12e4410846040518263ffffffff1660e01b815260040161037691815260200190565b60206040518083038186803b15801561038e57600080fd5b505afa1580156103a2573d6000803e3d6000fd5b505050506040513d601f19601f820116820180604052508101906103c691906114c7565b9050806001600160a01b03166103da610d23565b6001600160a01b031614156103f8576103f33383610d4b565b505050565b6103f3813384610e14565b60006000805160206116328339815191525b546001600160a01b0316919050565b3361042d6109fc565b6001600160a01b0316146104535760405162461bcd60e51b81526004016102cc90611492565b600061045d610d14565b6001600160a01b031663b12e4410846040518263ffffffff1660e01b815260040161048a91815260200190565b60206040518083038186803b1580156104a257600080fd5b505afa1580156104b6573d6000803e3d6000fd5b505050506040513d601f19601f820116820180604052508101906104da91906114c7565b9050806001600160a01b03166104ee610d23565b6001600160a01b03161461051a5761050881333085610eff565b61051a81610514610d14565b84610ff3565b610522610d14565b604051630ef1370b60e11b815260048101859052602481018490526001600160a01b039190911690631de26e169034906044016000604051808303818588803b15801561056e57600080fd5b505af1158015610582573d6000803e3d6000fd5b5050505050505050565b60006105966108a0565b905060005b81518110156107355760008282815181106105b8576105b86114e4565b6020026020010151905060006105d960008051602061163283398151915290565b54604080517f5265736f6c766572206d697373696e67207461726765743a200000000000000060208201526039808201869052825180830390910181526059820192839052636795dbcd60e01b9092526001600160a01b0390921691636795dbcd9161064a91869190605d01611552565b60206040518083038186803b15801561066257600080fd5b505afa158015610676573d6000803e3d6000fd5b505050506040513d601f19601f8201168201806040525081019061069a91906114c7565b60008381527f4abde63c3e81aefa5764b017968bc473e83e093d7e1a10247d19e0a3e4124019602090815260409182902080546001600160a01b0319166001600160a01b03851690811790915582518681529182015281519293507f88a93678a3692f6789d9546fc621bf7234b101ddb7d4fe479455112831b8aa68929081900390910190a15050808061072d90611573565b91505061059b565b505b50565b6000806107456108a0565b905060005b8151811015610897576000828281518110610767576107676114e4565b6020026020010151905061078660008051602061163283398151915290565b600082815260019190910160205260409020546001600160a01b0316600080516020611632833981519152546040516321f8a72160e01b8152600481018490526001600160a01b03909116906321f8a7219060240160206040518083038186803b1580156107f357600080fd5b505afa158015610807573d6000803e3d6000fd5b505050506040513d601f19601f8201168201806040525081019061082b91906114c7565b6001600160a01b0316141580610875575060008181527f4abde63c3e81aefa5764b017968bc473e83e093d7e1a10247d19e0a3e412401960205260409020546001600160a01b0316155b15610884576000935050505090565b508061088f81611573565b91505061074a565b50600191505090565b6040805160028082526060808301845292602083019080368337019050509050762632b73234b733a6b0b935b2ba21b7b73a3937b63632b960491b816000815181106108ee576108ee6114e4565b60200260200101818152505069151bdad95b95985d5b1d60b21b8160018151811061091b5761091b6114e4565b60200260200101818152505090565b600080516020611652833981519152805460ff191690556040513381527faeb196d352664784d1900b0e7414a8face7d29f4dae8c4b0cf68ed477423bbf4906020015b60405180910390a1565b336109806109fc565b6001600160a01b0316146109a65760405162461bcd60e51b81526004016102cc90611492565b6109b06000611107565b565b600080516020611652833981519152805460ff191660011790556040513381527f5ee71a369c8672edded508e624ffc9257fa1ae6886ef32905c18e60196bca3999060200161096d565b60007f9acda75aebd150dd434541a4747a6dc606f4f1a59662477e67daf1fc0bf9e0aa610415565b33610a2d6109fc565b6001600160a01b031614610a535760405162461bcd60e51b81526004016102cc90611492565b610a5b611178565b6001600160a01b03166394e75a3e6040518163ffffffff1660e01b8152600401602060405180830381600087803b158015610a9557600080fd5b505af1158015610aa9573d6000803e3d6000fd5b505050506040513d601f19601f82011682018060405250810190610737919061159c565b600054610100900460ff1615808015610aed5750600054600160ff909116105b80610b075750303b158015610b07575060005460ff166001145b610b6a5760405162461bcd60e51b815260206004820152602e60248201527f496e697469616c697a61626c653a20636f6e747261637420697320616c72656160448201526d191e481a5b9a5d1a585b1a5e995960921b60648201526084016102cc565b6000805460ff191660011790558015610b8d576000805461ff0019166101001790555b6000610b97611182565b6001600160a01b03161415610bf95760405162461bcd60e51b815260206004820152602260248201527f4d7573742062652063616c6c65642066726f6d2070726f787920636f6e74726160448201526118dd60f21b60648201526084016102cc565b600080516020611652833981519152805460ff19169055610c1984611107565b610c22836111aa565b610c2b82611242565b8015610c71576000805461ff0019169055604051600181527f7f26b83ff96e1f2b6a682f133852f6798a09c465da95921460cefb38474024989060200160405180910390a15b50505050565b33610c806109fc565b6001600160a01b031614610ca65760405162461bcd60e51b81526004016102cc90611492565b6001600160a01b038116610d0b5760405162461bcd60e51b815260206004820152602660248201527f4f776e61626c653a206e6577206f776e657220697320746865207a65726f206160448201526564647265737360d01b60648201526084016102cc565b61073781611107565b6000610d1e6112d7565b905090565b60007f3a2b81b27c095d6e2aecbb7be5d317f24d3f11a9eb2b6e2d16957fe4c0b4ddf3610415565b604080516000808252602082019092526001600160a01b038416908390604051610d7591906115be565b60006040518083038185875af1925050503d8060008114610db2576040519150601f19603f3d011682016040523d82523d6000602084013e610db7565b606091505b50509050806103f35760405162461bcd60e51b815260206004820152602360248201527f5472616e7366657248656c7065723a204554485f5452414e534645525f46414960448201526213115160ea1b60648201526084016102cc565b604080516001600160a01b038481166024830152604480830185905283518084039091018152606490920183526020820180516001600160e01b031663a9059cbb60e01b1790529151600092839290871691610e7091906115be565b6000604051808303816000865af19150503d8060008114610ead576040519150601f19603f3d011682016040523d82523d6000602084013e610eb2565b606091505b5091509150818015610edc575080511580610edc575080806020019051810190610edc919061159c565b610ef85760405162461bcd60e51b81526004016102cc906115da565b5050505050565b604080516001600160a01b0385811660248301528481166044830152606480830185905283518084039091018152608490920183526020820180516001600160e01b03166323b872dd60e01b1790529151600092839290881691610f6391906115be565b6000604051808303816000865af19150503d8060008114610fa0576040519150601f19603f3d011682016040523d82523d6000602084013e610fa5565b606091505b5091509150818015610fcf575080511580610fcf575080806020019051810190610fcf919061159c565b610feb5760405162461bcd60e51b81526004016102cc906115da565b505050505050565b604080516001600160a01b038481166024830152604480830185905283518084039091018152606490920183526020820180516001600160e01b031663095ea7b360e01b179052915160009283929087169161104f91906115be565b6000604051808303816000865af19150503d806000811461108c576040519150601f19603f3d011682016040523d82523d6000602084013e611091565b606091505b50915091508180156110bb5750805115806110bb5750808060200190518101906110bb919061159c565b610ef85760405162461bcd60e51b815260206004820152601e60248201527f5472616e7366657248656c7065723a20415050524f56455f4641494c4544000060448201526064016102cc565b7f9acda75aebd150dd434541a4747a6dc606f4f1a59662477e67daf1fc0bf9e0aa80546001600160a01b038381166001600160a01b0319831681179093556040519116919082907f8be0079c531659141344cd1fd0a4f28419497f9722a3daafe3b4186f6b6457e090600090a35050565b6000610d1e6112ef565b60007f360894a13ba1a3210667c828492db98dca3e2076cc3735a920a3ca505d382bbc610415565b600080516020611632833981519152546001600160a01b0316156112105760405162461bcd60e51b815260206004820152601b60248201527f5265736f6c766572207265676973746572656420616c7265616479000000000060448201526064016102cc565b806000805160206116328339815191525b80546001600160a01b0319166001600160a01b039290921691909117905550565b7f3a2b81b27c095d6e2aecbb7be5d317f24d3f11a9eb2b6e2d16957fe4c0b4ddf3546001600160a01b0316156112b05760405162461bcd60e51b8152602060048201526013602482015272105b1c9958591e481a5b9a5d1a585b1a5e9959606a1b60448201526064016102cc565b807f3a2b81b27c095d6e2aecbb7be5d317f24d3f11a9eb2b6e2d16957fe4c0b4ddf3611221565b6000610d1e69151bdad95b95985d5b1d60b21b611310565b6000610d1e762632b73234b733a6b0b935b2ba21b7b73a3937b63632b960491b5b60008181527f4abde63c3e81aefa5764b017968bc473e83e093d7e1a10247d19e0a3e41240196020908152604080832054815170026b4b9b9b4b7339030b2323932b9b99d1607d1b9381019390935260318084018690528251808503909101815260519093019091526001600160a01b031690816113a15760405162461bcd60e51b81526004016102cc919061161e565b5092915050565b600080604083850312156113bb57600080fd5b50508035926020909101359150565b6020808252825182820181905260009190848201906040850190845b81811015611402578351835292840192918401916001016113e6565b50909695505050505050565b6001600160a01b038116811461073757600080fd5b60008060006060848603121561143857600080fd5b83356114438161140e565b925060208401356114538161140e565b915060408401356114638161140e565b809150509250925092565b60006020828403121561148057600080fd5b813561148b8161140e565b9392505050565b6020808252818101527f4f776e61626c653a2063616c6c6572206973206e6f7420746865206f776e6572604082015260600190565b6000602082840312156114d957600080fd5b815161148b8161140e565b634e487b7160e01b600052603260045260246000fd5b60005b838110156115155781810151838201526020016114fd565b83811115610c715750506000910152565b6000815180845261153e8160208601602086016114fa565b601f01601f19169290920160200192915050565b82815260406020820152600061156b6040830184611526565b949350505050565b600060001982141561159557634e487b7160e01b600052601160045260246000fd5b5060010190565b6000602082840312156115ae57600080fd5b8151801515811461148b57600080fd5b600082516115d08184602087016114fa565b9190910192915050565b60208082526024908201527f5472616e7366657248656c7065723a205452414e534645525f46524f4d5f46416040820152631253115160e21b606082015260800190565b60208152600061148b602083018461152656fe4abde63c3e81aefa5764b017968bc473e83e093d7e1a10247d19e0a3e41240186f3088bd2046115232bd6d07a71df2fcaf1e55c5eb2db67ff171bb3e2086b067a26469706673582212201ed702272b4cc4d7d70840811091f82ea687bbc7488b9bca8c6e2c8b197630ec64736f6c63430008090033",
  "implementation": "0xeB970399B3c59405cdA74199120Ba6305C82Dd96",
  "devdoc": {
    "kind": "dev",
    "methods": {
      "acceptedContracts()": {
        "details": "The contact name listed in this method is also needed to be listed `requiredContracts` method."
      },
      "deposit(bytes32,uint256)": {
        "details": "Deposits funds by the caller into the token vault as reserve fund.",
        "params": {
          "_amount": "Amount of funds to deposit",
          "_ccy": "Currency name in bytes32"
        }
      },
      "initialize(address,address,address)": {
        "details": "Function is invoked by the proxy contract when the contract is added to the ProxyController.",
        "params": {
          "_WETH9": "The address of WETH",
          "_owner": "The address of the contract owner",
          "_resolver": "The address of the Address Resolver contract"
        }
      },
      "isPaused()": {
        "returns": {
          "_0": "The boolean if the reserve fund is paused"
        }
      },
      "owner()": {
        "details": "Returns the address of the current owner."
      },
      "renounceOwnership()": {
        "details": "Leaves the contract without owner. It will not be possible to call `onlyOwner` functions anymore. Can only be called by the current owner. NOTE: Renouncing ownership will leave the contract without an owner, thereby removing any functionality that is only available to the owner."
      },
      "requiredContracts()": {
        "details": "The contract name list is in `./libraries/Contracts.sol`."
      },
      "transferOwnership(address)": {
        "details": "Transfers ownership of the contract to a new account (`newOwner`). Can only be called by the current owner."
      },
      "withdraw(bytes32,uint256)": {
        "details": "Withdraw funds by the caller from the token vault.",
        "params": {
          "_amount": "Amount of funds to deposit",
          "_ccy": "Currency name in bytes32"
        }
      }
    },
    "version": 1
  },
  "userdoc": {
    "kind": "user",
    "methods": {
      "acceptedContracts()": {
        "notice": "Returns contract names that can call this contract."
      },
      "executeEmergencySettlement()": {
        "notice": "Force settlement of all lending and borrowing positions."
      },
      "initialize(address,address,address)": {
        "notice": "Initializes the contract."
      },
      "isPaused()": {
        "notice": "Gets if the reserve fund is paused."
      },
      "pause()": {
        "notice": "Pauses the reserve fund."
      },
      "requiredContracts()": {
        "notice": "Returns the contract names used in this contract."
      },
      "unpause()": {
        "notice": "Unpauses the reserve fund."
      }
    },
    "notice": "Implements managing of the reserve fund.",
    "version": 1
  },
  "storageLayout": {
    "storage": [
      {
        "astId": 995,
        "contract": "contracts/protocol/ReserveFund.sol:ReserveFund",
        "label": "_initialized",
        "offset": 0,
        "slot": "0",
        "type": "t_uint8"
      },
      {
        "astId": 998,
        "contract": "contracts/protocol/ReserveFund.sol:ReserveFund",
        "label": "_initializing",
        "offset": 1,
        "slot": "0",
        "type": "t_bool"
      }
    ],
    "types": {
      "t_bool": {
        "encoding": "inplace",
        "label": "bool",
        "numberOfBytes": "1"
      },
      "t_uint8": {
        "encoding": "inplace",
        "label": "uint8",
        "numberOfBytes": "1"
      }
    }
  }
}