{
  "address": "0x50F5985F98A27a4a55EaEFD2FDf74b04bD95f7F3",
  "abi": [
    {
      "anonymous": false,
      "inputs": [
        {
          "indexed": false,
          "internalType": "bytes32",
          "name": "name",
          "type": "bytes32"
        },
        {
          "indexed": false,
          "internalType": "address",
          "name": "destination",
          "type": "address"
        }
      ],
      "name": "CacheUpdated",
      "type": "event"
    },
    {
      "anonymous": false,
      "inputs": [
        {
          "indexed": false,
          "internalType": "bytes32",
          "name": "ccy",
          "type": "bytes32"
        },
        {
          "indexed": false,
          "internalType": "address",
          "name": "tokenAddress",
          "type": "address"
        },
        {
          "indexed": false,
          "internalType": "bool",
          "name": "isCollateral",
          "type": "bool"
        }
      ],
      "name": "CurrencyRegistered",
      "type": "event"
    },
    {
      "anonymous": false,
      "inputs": [
        {
          "indexed": false,
          "internalType": "bytes32",
          "name": "ccy",
          "type": "bytes32"
        },
        {
          "indexed": false,
          "internalType": "bool",
          "name": "isCollateral",
          "type": "bool"
        }
      ],
      "name": "CurrencyUpdated",
      "type": "event"
    },
    {
      "anonymous": false,
      "inputs": [
        {
          "indexed": true,
          "internalType": "address",
          "name": "user",
          "type": "address"
        },
        {
          "indexed": false,
          "internalType": "bytes32",
          "name": "ccy",
          "type": "bytes32"
        },
        {
          "indexed": false,
          "internalType": "uint256",
          "name": "amount",
          "type": "uint256"
        }
      ],
      "name": "Deposit",
      "type": "event"
    },
    {
      "anonymous": false,
      "inputs": [
        {
          "indexed": false,
          "internalType": "uint8",
          "name": "version",
          "type": "uint8"
        }
      ],
      "name": "Initialized",
      "type": "event"
    },
    {
      "anonymous": false,
      "inputs": [
        {
          "indexed": true,
          "internalType": "address",
          "name": "previousOwner",
          "type": "address"
        },
        {
          "indexed": true,
          "internalType": "address",
          "name": "newOwner",
          "type": "address"
        }
      ],
      "name": "OwnershipTransferred",
      "type": "event"
    },
    {
      "anonymous": false,
      "inputs": [
        {
          "indexed": false,
          "internalType": "address",
          "name": "account",
          "type": "address"
        }
      ],
      "name": "Paused",
      "type": "event"
    },
    {
      "anonymous": false,
      "inputs": [
        {
          "indexed": true,
          "internalType": "bytes32",
          "name": "ccy",
          "type": "bytes32"
        },
        {
          "indexed": true,
          "internalType": "address",
          "name": "from",
          "type": "address"
        },
        {
          "indexed": true,
          "internalType": "address",
          "name": "to",
          "type": "address"
        },
        {
          "indexed": false,
          "internalType": "uint256",
          "name": "amount",
          "type": "uint256"
        }
      ],
      "name": "Transfer",
      "type": "event"
    },
    {
      "anonymous": false,
      "inputs": [
        {
          "indexed": false,
          "internalType": "address",
          "name": "account",
          "type": "address"
        }
      ],
      "name": "Unpaused",
      "type": "event"
    },
    {
      "anonymous": false,
      "inputs": [
        {
          "indexed": true,
          "internalType": "address",
          "name": "user",
          "type": "address"
        },
        {
          "indexed": false,
          "internalType": "bytes32",
          "name": "ccy",
          "type": "bytes32"
        },
        {
          "indexed": false,
          "internalType": "uint256",
          "name": "amount",
          "type": "uint256"
        }
      ],
      "name": "Withdraw",
      "type": "event"
    },
    {
      "inputs": [],
      "name": "acceptedContracts",
      "outputs": [
        {
          "internalType": "bytes32[]",
          "name": "contracts",
          "type": "bytes32[]"
        }
      ],
      "stateMutability": "pure",
      "type": "function"
    },
    {
      "inputs": [
        {
          "internalType": "address",
          "name": "_user",
          "type": "address"
        },
        {
          "internalType": "bytes32",
          "name": "_ccy",
          "type": "bytes32"
        },
        {
          "internalType": "uint256",
          "name": "_amount",
          "type": "uint256"
        }
      ],
      "name": "addDepositAmount",
      "outputs": [],
      "stateMutability": "nonpayable",
      "type": "function"
    },
    {
      "inputs": [],
      "name": "buildCache",
      "outputs": [],
      "stateMutability": "nonpayable",
      "type": "function"
    },
    {
      "inputs": [
        {
          "internalType": "uint256",
          "name": "_amount",
          "type": "uint256"
        }
      ],
      "name": "calculateLiquidationFees",
      "outputs": [
        {
          "internalType": "uint256",
          "name": "protocolFee",
          "type": "uint256"
        },
        {
          "internalType": "uint256",
          "name": "liquidatorFee",
          "type": "uint256"
        }
      ],
      "stateMutability": "view",
      "type": "function"
    },
    {
      "inputs": [
        {
          "internalType": "bytes32",
          "name": "_ccy",
          "type": "bytes32"
        },
        {
          "internalType": "uint256",
          "name": "_amount",
          "type": "uint256"
        }
      ],
      "name": "deposit",
      "outputs": [],
      "stateMutability": "payable",
      "type": "function"
    },
    {
      "inputs": [
        {
          "internalType": "address",
          "name": "_from",
          "type": "address"
        },
        {
          "internalType": "bytes32",
          "name": "_ccy",
          "type": "bytes32"
        },
        {
          "internalType": "uint256",
          "name": "_amount",
          "type": "uint256"
        }
      ],
      "name": "depositFrom",
      "outputs": [],
      "stateMutability": "payable",
      "type": "function"
    },
    {
      "inputs": [
        {
          "internalType": "address",
          "name": "_user",
          "type": "address"
        },
        {
          "internalType": "bytes32",
          "name": "_ccy",
          "type": "bytes32"
        }
      ],
      "name": "executeForcedReset",
      "outputs": [
        {
          "internalType": "uint256",
          "name": "",
          "type": "uint256"
        }
      ],
      "stateMutability": "nonpayable",
      "type": "function"
    },
    {
      "inputs": [
        {
          "internalType": "address",
          "name": "_user",
          "type": "address"
        },
        {
          "internalType": "bytes32",
          "name": "_ccy",
          "type": "bytes32"
        }
      ],
      "name": "getCollateralAmount",
      "outputs": [
        {
          "internalType": "uint256",
          "name": "amount",
          "type": "uint256"
        }
      ],
      "stateMutability": "view",
      "type": "function"
    },
    {
      "inputs": [],
      "name": "getCollateralCurrencies",
      "outputs": [
        {
          "internalType": "bytes32[]",
          "name": "",
          "type": "bytes32[]"
        }
      ],
      "stateMutability": "view",
      "type": "function"
    },
    {
      "inputs": [],
      "name": "getCollateralParameters",
      "outputs": [
        {
          "internalType": "uint256",
          "name": "liquidationThresholdRate",
          "type": "uint256"
        },
        {
          "internalType": "uint256",
          "name": "liquidationProtocolFeeRate",
          "type": "uint256"
        },
        {
          "internalType": "uint256",
          "name": "liquidatorFeeRate",
          "type": "uint256"
        }
      ],
      "stateMutability": "view",
      "type": "function"
    },
    {
      "inputs": [
        {
          "internalType": "address",
          "name": "_user",
          "type": "address"
        }
      ],
      "name": "getCoverage",
      "outputs": [
        {
          "internalType": "uint256",
          "name": "coverage",
          "type": "uint256"
        }
      ],
      "stateMutability": "view",
      "type": "function"
    },
    {
      "inputs": [
        {
          "internalType": "address",
          "name": "_user",
          "type": "address"
        },
        {
          "internalType": "bytes32",
          "name": "_ccy",
          "type": "bytes32"
        }
      ],
      "name": "getDepositAmount",
      "outputs": [
        {
          "internalType": "uint256",
          "name": "",
          "type": "uint256"
        }
      ],
      "stateMutability": "view",
      "type": "function"
    },
    {
      "inputs": [
        {
          "internalType": "address",
          "name": "_user",
          "type": "address"
        },
        {
          "internalType": "bytes32",
          "name": "_liquidationCcy",
          "type": "bytes32"
        },
        {
          "internalType": "uint256",
          "name": "_liquidationAmountMaximum",
          "type": "uint256"
        }
      ],
      "name": "getLiquidationAmount",
      "outputs": [
        {
          "internalType": "uint256",
          "name": "liquidationAmount",
          "type": "uint256"
        },
        {
          "internalType": "uint256",
          "name": "protocolFee",
          "type": "uint256"
        },
        {
          "internalType": "uint256",
          "name": "liquidatorFee",
          "type": "uint256"
        }
      ],
      "stateMutability": "view",
      "type": "function"
    },
    {
      "inputs": [
        {
          "internalType": "bytes32",
          "name": "_ccy",
          "type": "bytes32"
        }
      ],
      "name": "getTokenAddress",
      "outputs": [
        {
          "internalType": "address",
          "name": "",
          "type": "address"
        }
      ],
      "stateMutability": "view",
      "type": "function"
    },
    {
      "inputs": [
        {
          "internalType": "address",
          "name": "_user",
          "type": "address"
        }
      ],
      "name": "getTotalCollateralAmount",
      "outputs": [
        {
          "internalType": "uint256",
          "name": "totalCollateralAmount",
          "type": "uint256"
        }
      ],
      "stateMutability": "view",
      "type": "function"
    },
    {
      "inputs": [
        {
          "internalType": "bytes32",
          "name": "_ccy",
          "type": "bytes32"
        }
      ],
      "name": "getTotalDepositAmount",
      "outputs": [
        {
          "internalType": "uint256",
          "name": "",
          "type": "uint256"
        }
      ],
      "stateMutability": "view",
      "type": "function"
    },
    {
      "inputs": [
        {
          "internalType": "address",
          "name": "_user",
          "type": "address"
        }
      ],
      "name": "getUnusedCollateral",
      "outputs": [
        {
          "internalType": "uint256",
          "name": "",
          "type": "uint256"
        }
      ],
      "stateMutability": "view",
      "type": "function"
    },
    {
      "inputs": [
        {
          "internalType": "address",
          "name": "_user",
          "type": "address"
        }
      ],
      "name": "getUsedCurrencies",
      "outputs": [
        {
          "internalType": "bytes32[]",
          "name": "",
          "type": "bytes32[]"
        }
      ],
      "stateMutability": "view",
      "type": "function"
    },
    {
      "inputs": [
        {
          "internalType": "bytes32",
          "name": "_ccy",
          "type": "bytes32"
        },
        {
          "internalType": "address",
          "name": "_user",
          "type": "address"
        }
      ],
      "name": "getWithdrawableCollateral",
      "outputs": [
        {
          "internalType": "uint256",
          "name": "",
          "type": "uint256"
        }
      ],
      "stateMutability": "view",
      "type": "function"
    },
    {
      "inputs": [
        {
          "internalType": "address",
          "name": "_user",
          "type": "address"
        }
      ],
      "name": "getWithdrawableCollateral",
      "outputs": [
        {
          "internalType": "uint256",
          "name": "",
          "type": "uint256"
        }
      ],
      "stateMutability": "view",
      "type": "function"
    },
    {
      "inputs": [
        {
          "internalType": "address",
          "name": "_owner",
          "type": "address"
        },
        {
          "internalType": "address",
          "name": "_resolver",
          "type": "address"
        },
        {
          "internalType": "uint256",
          "name": "_liquidationThresholdRate",
          "type": "uint256"
        },
        {
          "internalType": "uint256",
          "name": "_liquidationProtocolFeeRate",
          "type": "uint256"
        },
        {
          "internalType": "uint256",
          "name": "_liquidatorFeeRate",
          "type": "uint256"
        },
        {
          "internalType": "address",
          "name": "_WETH9",
          "type": "address"
        }
      ],
      "name": "initialize",
      "outputs": [],
      "stateMutability": "nonpayable",
      "type": "function"
    },
    {
      "inputs": [
        {
          "internalType": "bytes32[]",
          "name": "_ccys",
          "type": "bytes32[]"
        }
      ],
      "name": "isCollateral",
      "outputs": [
        {
          "internalType": "bool[]",
          "name": "isCollateralCurrencies",
          "type": "bool[]"
        }
      ],
      "stateMutability": "view",
      "type": "function"
    },
    {
      "inputs": [
        {
          "internalType": "bytes32",
          "name": "_ccy",
          "type": "bytes32"
        }
      ],
      "name": "isCollateral",
      "outputs": [
        {
          "internalType": "bool",
          "name": "",
          "type": "bool"
        }
      ],
      "stateMutability": "view",
      "type": "function"
    },
    {
      "inputs": [
        {
          "internalType": "address",
          "name": "_user",
          "type": "address"
        }
      ],
      "name": "isCovered",
      "outputs": [
        {
          "internalType": "bool",
          "name": "",
          "type": "bool"
        }
      ],
      "stateMutability": "view",
      "type": "function"
    },
    {
      "inputs": [
        {
          "internalType": "address",
          "name": "_user",
          "type": "address"
        },
        {
          "internalType": "bytes32",
          "name": "_unsettledOrderCcy",
          "type": "bytes32"
        },
        {
          "internalType": "uint256",
          "name": "_unsettledOrderAmount",
          "type": "uint256"
        },
        {
          "internalType": "enum ProtocolTypes.Side",
          "name": "_unsettledOrderSide",
          "type": "uint8"
        }
      ],
      "name": "isCovered",
      "outputs": [
        {
          "internalType": "bool",
          "name": "",
          "type": "bool"
        }
      ],
      "stateMutability": "view",
      "type": "function"
    },
    {
      "inputs": [
        {
          "internalType": "bytes32",
          "name": "_ccy",
          "type": "bytes32"
        }
      ],
      "name": "isRegisteredCurrency",
      "outputs": [
        {
          "internalType": "bool",
          "name": "",
          "type": "bool"
        }
      ],
      "stateMutability": "view",
      "type": "function"
    },
    {
      "inputs": [],
      "name": "isResolverCached",
      "outputs": [
        {
          "internalType": "bool",
          "name": "",
          "type": "bool"
        }
      ],
      "stateMutability": "view",
      "type": "function"
    },
    {
      "inputs": [],
      "name": "owner",
      "outputs": [
        {
          "internalType": "address",
          "name": "",
          "type": "address"
        }
      ],
      "stateMutability": "view",
      "type": "function"
    },
    {
      "inputs": [],
      "name": "pauseVault",
      "outputs": [],
      "stateMutability": "nonpayable",
      "type": "function"
    },
    {
      "inputs": [],
      "name": "paused",
      "outputs": [
        {
          "internalType": "bool",
          "name": "",
          "type": "bool"
        }
      ],
      "stateMutability": "view",
      "type": "function"
    },
    {
      "inputs": [
        {
          "internalType": "bytes32",
          "name": "_ccy",
          "type": "bytes32"
        },
        {
          "internalType": "address",
          "name": "_tokenAddress",
          "type": "address"
        },
        {
          "internalType": "bool",
          "name": "_isCollateral",
          "type": "bool"
        }
      ],
      "name": "registerCurrency",
      "outputs": [],
      "stateMutability": "nonpayable",
      "type": "function"
    },
    {
      "inputs": [
        {
          "internalType": "address",
          "name": "_user",
          "type": "address"
        },
        {
          "internalType": "bytes32",
          "name": "_ccy",
          "type": "bytes32"
        },
        {
          "internalType": "uint256",
          "name": "_amount",
          "type": "uint256"
        }
      ],
      "name": "removeDepositAmount",
      "outputs": [],
      "stateMutability": "nonpayable",
      "type": "function"
    },
    {
      "inputs": [],
      "name": "renounceOwnership",
      "outputs": [],
      "stateMutability": "nonpayable",
      "type": "function"
    },
    {
      "inputs": [],
      "name": "requiredContracts",
      "outputs": [
        {
          "internalType": "bytes32[]",
          "name": "contracts",
          "type": "bytes32[]"
        }
      ],
      "stateMutability": "pure",
      "type": "function"
    },
    {
      "inputs": [],
      "name": "resolver",
      "outputs": [
        {
          "internalType": "contract IAddressResolver",
          "name": "",
          "type": "address"
        }
      ],
      "stateMutability": "view",
      "type": "function"
    },
    {
      "inputs": [
        {
          "internalType": "uint256",
          "name": "_liquidationThresholdRate",
          "type": "uint256"
        },
        {
          "internalType": "uint256",
          "name": "_liquidationProtocolFeeRate",
          "type": "uint256"
        },
        {
          "internalType": "uint256",
          "name": "_liquidatorFeeRate",
          "type": "uint256"
        }
      ],
      "name": "setCollateralParameters",
      "outputs": [],
      "stateMutability": "nonpayable",
      "type": "function"
    },
    {
      "inputs": [
        {
          "internalType": "bytes32",
          "name": "_ccy",
          "type": "bytes32"
        },
        {
          "internalType": "address",
          "name": "_from",
          "type": "address"
        },
        {
          "internalType": "address",
          "name": "_to",
          "type": "address"
        },
        {
          "internalType": "uint256",
          "name": "_amount",
          "type": "uint256"
        }
      ],
      "name": "transferFrom",
      "outputs": [
        {
          "internalType": "uint256",
          "name": "untransferredAmount",
          "type": "uint256"
        }
      ],
      "stateMutability": "nonpayable",
      "type": "function"
    },
    {
      "inputs": [
        {
          "internalType": "address",
          "name": "newOwner",
          "type": "address"
        }
      ],
      "name": "transferOwnership",
      "outputs": [],
      "stateMutability": "nonpayable",
      "type": "function"
    },
    {
      "inputs": [],
      "name": "unpauseVault",
      "outputs": [],
      "stateMutability": "nonpayable",
      "type": "function"
    },
    {
      "inputs": [
        {
          "internalType": "bytes32",
          "name": "_ccy",
          "type": "bytes32"
        },
        {
          "internalType": "bool",
          "name": "_isCollateral",
          "type": "bool"
        }
      ],
      "name": "updateCurrency",
      "outputs": [],
      "stateMutability": "nonpayable",
      "type": "function"
    },
    {
      "inputs": [
        {
          "internalType": "bytes32",
          "name": "_ccy",
          "type": "bytes32"
        },
        {
          "internalType": "uint256",
          "name": "_amount",
          "type": "uint256"
        }
      ],
      "name": "withdraw",
      "outputs": [],
      "stateMutability": "nonpayable",
      "type": "function"
    },
    {
      "stateMutability": "payable",
      "type": "receive"
    }
  ],
  "transactionHash": "0xd43a28917958e412a1cfabbdb633334930b4d5a092711056a4687850b6dfa224",
  "args": [],
  "numDeployments": 2,
  "solcInputHash": "2c485c64aa07a707060080ceef31eb81",
  "bytecode": "0x608060405234801561001057600080fd5b506134b9806100206000396000f3fe6080604052600436106102495760003560e01c80635bffeb6611610139578063948060dd116100b6578063ca4230311161007a578063ca42303114610772578063d5e190d014610792578063e0997659146107a7578063f2fde38b146107bc578063fb7bd3b4146107dc578063fc700810146107fc57600080fd5b8063948060dd146106c757806396994e37146106e75780639e0879c2146106fa578063b12e44101461070f578063b1a5d12d1461075257600080fd5b80637496d3fb116100fd5780637496d3fb146106325780637d044b43146106525780637d44828e146106725780638da5cb5b146106925780638e19aff3146106a757600080fd5b80635bffeb66146105a35780635c975abb146105c35780635d861505146105e85780635d95df8a146105fd578063715018a61461061d57600080fd5b806328ff7a42116101c75780634ba0c9b51161018b5780634ba0c9b5146104bc5780634c6aa99c146104dc578063500d2f6d146105285780635257ed671461054857806354821c211461058357600080fd5b806328ff7a421461042357806329985e5a146104435780632af64bd3146104585780633d03b9da1461046d5780633f90a08e1461048f57600080fd5b80630cf7505d1161020e5780630cf7505d146103805780630cfe33fa146103b05780630eadd244146103d05780631de26e16146103f057806325e1f09f1461040357600080fd5b8062fcf262146102b65780630253cd7e146102f0578063040cf0201461031e57806304f3bcec1461033e5780630b7562be1461036b57600080fd5b366102b15761025661081c565b6001600160a01b0316336001600160a01b0316146102af5760405162461bcd60e51b81526020600482015260116024820152704e6f7420626173652063757272656e637960781b60448201526064015b60405180910390fd5b005b600080fd5b3480156102c257600080fd5b506102d66102d1366004612ca4565b61084f565b604080519283526020830191909152015b60405180910390f35b3480156102fc57600080fd5b5061031061030b366004612cd2565b6108dd565b6040519081526020016102e7565b34801561032a57600080fd5b506102af610339366004612cfe565b61097c565b34801561034a57600080fd5b506103536109ba565b6040516001600160a01b0390911681526020016102e7565b34801561037757600080fd5b506102af6109d0565b34801561038c57600080fd5b506103a061039b366004612ca4565b610a09565b60405190151581526020016102e7565b3480156103bc57600080fd5b506103106103cb366004612d20565b610a33565b3480156103dc57600080fd5b506103106103eb366004612d44565b610aea565b6102af6103fe366004612cfe565b610b34565b34801561040f57600080fd5b506103a061041e366004612d20565b610b6d565b34801561042f57600080fd5b506103a061043e366004612d74565b610c10565b34801561044f57600080fd5b506102af610cd7565b34801561046457600080fd5b506103a0610e85565b34801561047957600080fd5b50610482610feb565b6040516102e79190612dc2565b34801561049b57600080fd5b506104af6104aa366004612e06565b6110ad565b6040516102e79190612e7b565b3480156104c857600080fd5b506102af6104d7366004612eb5565b61115b565b3480156104e857600080fd5b506103106104f7366004612ca4565b60009081527f53832330c92cb5d80f0e1ff6fdb9886f7fad39132543bafb7497316eae2a831b602052604090205490565b34801561053457600080fd5b50610310610543366004612eea565b61121f565b34801561055457600080fd5b50610568610563366004612eb5565b61136b565b604080519384526020840192909252908201526060016102e7565b34801561058f57600080fd5b5061031061059e366004612d20565b61140a565b3480156105af57600080fd5b506102af6105be366004612f40565b6114a1565b3480156105cf57600080fd5b506000805160206134248339815191525460ff166103a0565b3480156105f457600080fd5b5061056861163d565b34801561060957600080fd5b506103a0610618366004612ca4565b6116b3565b34801561062957600080fd5b506102af6116cd565b34801561063e57600080fd5b506102af61064d366004612f82565b611706565b34801561065e57600080fd5b5061031061066d366004612cd2565b611740565b34801561067e57600080fd5b5061031061068d366004612cd2565b61181f565b34801561069e57600080fd5b506103536118be565b3480156106b357600080fd5b506102af6106c2366004612fae565b6118e6565b3480156106d357600080fd5b506103106106e2366004612d20565b6119b0565b6102af6106f5366004612eb5565b611a3e565b34801561070657600080fd5b506102af611a76565b34801561071b57600080fd5b5061035361072a366004612ca4565b600090815260008051602061344483398151915260205260409020546001600160a01b031690565b34801561075e57600080fd5b506102af61076d366004612fd3565b611aad565b34801561077e57600080fd5b5061031061078d366004612d20565b611c4e565b34801561079e57600080fd5b50610482611d24565b3480156107b357600080fd5b50610482611d42565b3480156107c857600080fd5b506102af6107d7366004612d20565b611dbe565b3480156107e857600080fd5b506102af6107f7366004612eb5565b611e5b565b34801561080857600080fd5b50610482610817366004612d20565b611ee9565b60007f3a2b81b27c095d6e2aecbb7be5d317f24d3f11a9eb2b6e2d16957fe4c0b4ddf35b546001600160a01b0316919050565b604051627e793160e11b8152600481018290526000908190739dD7028b180eC2204d837Cf8e60eA822b9dd60499062fcf26290602401604080518083038186803b15801561089c57600080fd5b505af41580156108b0573d6000803e3d6000fd5b505050506040513d601f19601f820116820180604052508101906108d4919061303a565b91509150915091565b604051630129e6bf60e11b81526001600160a01b038316600482015260248101829052600090739dD7028b180eC2204d837Cf8e60eA822b9dd604990630253cd7e906044015b60206040518083038186803b15801561093b57600080fd5b505af415801561094f573d6000803e3d6000fd5b505050506040513d601f19601f82011682018060405250810190610973919061305e565b90505b92915050565b610984611f7b565b8161098e81610a09565b6109aa5760405162461bcd60e51b81526004016102a690613077565b6109b5338484611fce565b505050565b6000600080516020613404833981519152610840565b336109d96118be565b6001600160a01b0316146109ff5760405162461bcd60e51b81526004016102a6906130ae565b610a0761221f565b565b600090815260008051602061344483398151915260205260409020546001600160a01b0316151590565b60405163654c629560e01b81526001600160a01b038216600482015260009081908190739dD7028b180eC2204d837Cf8e60eA822b9dd60499063654c62959060240160606040518083038186803b158015610a8d57600080fd5b505af4158015610aa1573d6000803e3d6000fd5b505050506040513d601f19601f82011682018060405250810190610ac591906130e3565b5091509150808211610ad8576000610ae2565b610ae28183613127565b949350505050565b6040516303ab749160e21b8152600481018390526001600160a01b0382166024820152600090739dD7028b180eC2204d837Cf8e60eA822b9dd604990630eadd24490604401610923565b610b3c611f7b565b81610b4681610a09565b610b625760405162461bcd60e51b81526004016102a690613077565b6109b533848461227e565b60405163fd2117fb60e01b81526001600160a01b0382166004820152600060248201819052604482018190526064820181905290739dD7028b180eC2204d837Cf8e60eA822b9dd60499063fd2117fb9060840160206040518083038186803b158015610bd857600080fd5b505af4158015610bec573d6000803e3d6000fd5b505050506040513d601f19601f82011682018060405250810190610976919061313e565b6000739dD7028b180eC2204d837Cf8e60eA822b9dd604963fd2117fb868686866001811115610c4157610c4161315b565b60405160e086901b6001600160e01b03191681526001600160a01b0394909416600485015260248401929092526044830152600114606482015260840160206040518083038186803b158015610c9657600080fd5b505af4158015610caa573d6000803e3d6000fd5b505050506040513d601f19601f82011682018060405250810190610cce919061313e565b95945050505050565b6000610ce1610feb565b905060005b8151811015610e80576000828281518110610d0357610d03613171565b602002602001015190506000610d2460008051602061340483398151915290565b54604080517f5265736f6c766572206d697373696e67207461726765743a200000000000000060208201526039808201869052825180830390910181526059820192839052636795dbcd60e01b9092526001600160a01b0390921691636795dbcd91610d9591869190605d016131d4565b60206040518083038186803b158015610dad57600080fd5b505afa158015610dc1573d6000803e3d6000fd5b505050506040513d601f19601f82011682018060405250810190610de591906131ed565b60008381527f4abde63c3e81aefa5764b017968bc473e83e093d7e1a10247d19e0a3e4124019602090815260409182902080546001600160a01b0319166001600160a01b03851690811790915582518681529182015281519293507f88a93678a3692f6789d9546fc621bf7234b101ddb7d4fe479455112831b8aa68929081900390910190a150508080610e789061320a565b915050610ce6565b505b50565b600080610e90610feb565b905060005b8151811015610fe2576000828281518110610eb257610eb2613171565b60200260200101519050610ed160008051602061340483398151915290565b600082815260019190910160205260409020546001600160a01b0316600080516020613404833981519152546040516321f8a72160e01b8152600481018490526001600160a01b03909116906321f8a7219060240160206040518083038186803b158015610f3e57600080fd5b505afa158015610f52573d6000803e3d6000fd5b505050506040513d601f19601f82011682018060405250810190610f7691906131ed565b6001600160a01b0316141580610fc0575060008181527f4abde63c3e81aefa5764b017968bc473e83e093d7e1a10247d19e0a3e412401960205260409020546001600160a01b0316155b15610fcf576000935050505090565b5080610fda8161320a565b915050610e95565b50600191505090565b604080516003808252608082019092526060916020820183803683370190505090507121bab93932b731bca1b7b73a3937b63632b960711b8160008151811061103657611036613171565b602002602001018181525050762632b73234b733a6b0b935b2ba21b7b73a3937b63632b960491b8160018151811061107057611070613171565b6020026020010181815250506a14995cd95c9d99519d5b9960aa1b8160028151811061109e5761109e613171565b60200260200101818152505090565b60608167ffffffffffffffff8111156110c8576110c8613225565b6040519080825280602002602001820160405280156110f1578160200160208202803683370190505b50905060005b828110156111545761112084848381811061111457611114613171565b905060200201356116b3565b82828151811061113257611132613171565b911515602092830291909101909101528061114c8161320a565b9150506110f7565b5092915050565b611163611f7b565b61116c33612464565b6111885760405162461bcd60e51b81526004016102a69061323b565b8161119281610a09565b6111ae5760405162461bcd60e51b81526004016102a690613077565b604051634ba0c9b560e01b8152739dD7028b180eC2204d837Cf8e60eA822b9dd604990634ba0c9b5906111e990879087908790600401613272565b60006040518083038186803b15801561120157600080fd5b505af4158015611215573d6000803e3d6000fd5b5050505050505050565b6000611229611f7b565b61123233612464565b61124e5760405162461bcd60e51b81526004016102a69061323b565b8461125881610a09565b6112745760405162461bcd60e51b81526004016102a690613077565b60405163500d2f6d60e01b8152600481018790526001600160a01b0380871660248301528516604482015260648101849052739dD7028b180eC2204d837Cf8e60eA822b9dd60499063500d2f6d9060840160206040518083038186803b1580156112dd57600080fd5b505af41580156112f1573d6000803e3d6000fd5b505050506040513d601f19601f82011682018060405250810190611315919061305e565b91506001600160a01b03808516908616877ff8ca259b4b82670be7501ff56ad1fc9c7cd199d3431e3c502f2c5f86884bc1506113518688613127565b60405190815260200160405180910390a450949350505050565b6000806000739dD7028b180eC2204d837Cf8e60eA822b9dd6049635257ed678787876040518463ffffffff1660e01b81526004016113ab93929190613272565b60606040518083038186803b1580156113c357600080fd5b505af41580156113d7573d6000803e3d6000fd5b505050506040513d601f19601f820116820180604052508101906113fb91906130e3565b92509250925093509350939050565b60405163654c629560e01b81526001600160a01b0382166004820152600090739dD7028b180eC2204d837Cf8e60eA822b9dd60499063654c62959060240160606040518083038186803b15801561146057600080fd5b505af4158015611474573d6000803e3d6000fd5b505050506040513d601f19601f8201168201806040525081019061149891906130e3565b50909392505050565b336114aa6118be565b6001600160a01b0316146114d05760405162461bcd60e51b81526004016102a6906130ae565b6114d86124de565b6001600160a01b0316631eae0893846040518263ffffffff1660e01b815260040161150591815260200190565b60206040518083038186803b15801561151d57600080fd5b505afa158015611531573d6000803e3d6000fd5b505050506040513d601f19601f82011682018060405250810190611555919061313e565b6115945760405162461bcd60e51b815260206004820152601060248201526f496e76616c69642063757272656e637960801b60448201526064016102a6565b60008381526000805160206134448339815191526020526040902080546001600160a01b0319166001600160a01b03841617905580156115ea576115e8836000805160206134648339815191525b906124e8565b505b604080518481526001600160a01b0384166020820152821515918101919091527ff776c30df345d55df252bb5181a0c2bb23d601166606790a6f1b938d7e158503906060015b60405180910390a1505050565b60008060006116586000805160206133e48339815191525490565b92506116827f1aaabb4945989eb9ee8150fddc35fcfc125664a7b898aa2de5931bb12484d0535490565b91506116ac7f1aaabb4945989eb9ee8150fddc35fcfc125664a7b898aa2de5931bb12484d0545490565b9050909192565b6000610976600080516020613464833981519152836124f4565b336116d66118be565b6001600160a01b0316146116fc5760405162461bcd60e51b81526004016102a6906130ae565b610a07600061250c565b3361170f6118be565b6001600160a01b0316146117355760405162461bcd60e51b81526004016102a6906130ae565b6109b583838361257d565b600061174b33612464565b6117675760405162461bcd60e51b81526004016102a69061323b565b8161177181610a09565b61178d5760405162461bcd60e51b81526004016102a690613077565b604051637d044b4360e01b81526001600160a01b038516600482015260248101849052739dD7028b180eC2204d837Cf8e60eA822b9dd604990637d044b439060440160206040518083038186803b1580156117e757600080fd5b505af41580156117fb573d6000803e3d6000fd5b505050506040513d601f19601f82011682018060405250810190610ae2919061305e565b604051633ea2414760e11b81526001600160a01b038316600482015260248101829052600090739dD7028b180eC2204d837Cf8e60eA822b9dd604990637d44828e9060440160606040518083038186803b15801561187c57600080fd5b505af4158015611890573d6000803e3d6000fd5b505050506040513d601f19601f820116820180604052508101906118b491906130e3565b5090949350505050565b60007f9acda75aebd150dd434541a4747a6dc606f4f1a59662477e67daf1fc0bf9e0aa610840565b336118ef6118be565b6001600160a01b0316146119155760405162461bcd60e51b81526004016102a6906130ae565b8161191f81610a09565b61193b5760405162461bcd60e51b81526004016102a690613077565b811561195f57611959836000805160206134648339815191526115e2565b50611979565b61197760008051602061346483398151915284612814565b505b6040805184815283151560208201527f97caf2b3b2f0aa460ca08b20c07f7a43ccf688e2f3b7179f2cf9113fb892bf819101611630565b60405163948060dd60e01b81526001600160a01b0382166004820152600090739dD7028b180eC2204d837Cf8e60eA822b9dd60499063948060dd9060240160206040518083038186803b158015611a0657600080fd5b505af4158015611a1a573d6000803e3d6000fd5b505050506040513d601f19601f82011682018060405250810190610976919061305e565b611a46611f7b565b611a4f33612464565b611a6b5760405162461bcd60e51b81526004016102a69061323b565b6109b583838361227e565b33611a7f6118be565b6001600160a01b031614611aa55760405162461bcd60e51b81526004016102a6906130ae565b610a07612820565b600054610100900460ff1615808015611acd5750600054600160ff909116105b80611ae75750303b158015611ae7575060005460ff166001145b611b4a5760405162461bcd60e51b815260206004820152602e60248201527f496e697469616c697a61626c653a20636f6e747261637420697320616c72656160448201526d191e481a5b9a5d1a585b1a5e995960921b60648201526084016102a6565b6000805460ff191660011790558015611b6d576000805461ff0019166101001790555b6000611b77612869565b6001600160a01b03161415611bd95760405162461bcd60e51b815260206004820152602260248201527f4d7573742062652063616c6c65642066726f6d2070726f787920636f6e74726160448201526118dd60f21b60648201526084016102a6565b611be28761250c565b611beb86612891565b611bf482612929565b611bff85858561257d565b8015611c45576000805461ff0019169055604051600181527f7f26b83ff96e1f2b6a682f133852f6798a09c465da95921460cefb38474024989060200160405180910390a15b50505050505050565b60405163654c629560e01b81526001600160a01b038216600482015260009081908190739dD7028b180eC2204d837Cf8e60eA822b9dd60499063654c62959060240160606040518083038186803b158015611ca857600080fd5b505af4158015611cbc573d6000803e3d6000fd5b505050506040513d601f19601f82011682018060405250810190611ce091906130e3565b50915091508160001415611d06578015611cfc57600019611cff565b60005b9250611d1d565b81611d1361271083613293565b610ae291906132b2565b5050919050565b6060611d3d6000805160206134648339815191526129be565b905090565b6040805160028082526060808301845292602083019080368337019050509050762632b73234b733a6b0b935b2ba21b7b73a3937b63632b960491b81600081518110611d9057611d90613171565b6020026020010181815250506a14995cd95c9d99519d5b9960aa1b8160018151811061109e5761109e613171565b33611dc76118be565b6001600160a01b031614611ded5760405162461bcd60e51b81526004016102a6906130ae565b6001600160a01b038116611e525760405162461bcd60e51b815260206004820152602660248201527f4f776e61626c653a206e6577206f776e657220697320746865207a65726f206160448201526564647265737360d01b60648201526084016102a6565b610e828161250c565b611e63611f7b565b611e6c33612464565b611e885760405162461bcd60e51b81526004016102a69061323b565b81611e9281610a09565b611eae5760405162461bcd60e51b81526004016102a690613077565b604051633edef4ed60e21b8152739dD7028b180eC2204d837Cf8e60eA822b9dd60499063fb7bd3b4906111e990879087908790600401613272565b604051630fc7008160e41b81526001600160a01b0382166004820152606090739dD7028b180eC2204d837Cf8e60eA822b9dd60499063fc7008109060240160006040518083038186803b158015611f3f57600080fd5b505af4158015611f53573d6000803e3d6000fd5b505050506040513d6000823e601f3d908101601f1916820160405261097691908101906132d4565b6000805160206134248339815191525460ff1615610a075760405162461bcd60e51b815260206004820152601060248201526f14185d5cd8589b194e881c185d5cd95960821b60448201526064016102a6565b60008111611fee5760405162461bcd60e51b81526004016102a690613392565b611ff66129c9565b60405163862fd6e560e01b81526001600160a01b038581166004830152919091169063862fd6e59060240160206040518083038186803b15801561203957600080fd5b505afa15801561204d573d6000803e3d6000fd5b505050506040513d601f19601f82011682018060405250810190612071919061313e565b156120b75760405162461bcd60e51b8152602060048201526016602482015275149959195b5c1d1a5bdb881a5cc81c995c5d5a5c995960521b60448201526064016102a6565b6120bf6129c9565b604051639519832b60e01b8152600481018490526001600160a01b0385811660248301529190911690639519832b90604401602060405180830381600087803b15801561210b57600080fd5b505af115801561211f573d6000803e3d6000fd5b505050506040513d601f19601f82011682018060405250810190612143919061305e565b5060405163148b8b9d60e11b8152600090739dD7028b180eC2204d837Cf8e60eA822b9dd604990632917173a9061218290879087908790600401613272565b60206040518083038186803b15801561219a57600080fd5b505af41580156121ae573d6000803e3d6000fd5b505050506040513d601f19601f820116820180604052508101906121d2919061305e565b60408051858152602081018390529192506001600160a01b038616917fc3ded2be7db21b1af963f267d27750e4a15f174547d88b886b9bda43e2c6fa32910160405180910390a250505050565b6122276129d3565b600080516020613424833981519152805460ff191690557f5db9ee0a495bf2e6ff9c91a7834c1ba4fdd244a5e8aa4e537bd38aeae4b073aa335b6040516001600160a01b03909116815260200160405180910390a1565b6000811161229e5760405162461bcd60e51b81526004016102a690613392565b6122a661081c565b600083815260008051602061344483398151915260205260409020546001600160a01b0390811691161415806122db57503481145b6122f75760405162461bcd60e51b81526004016102a690613392565b6122ff6129c9565b6001600160a01b031663d1cc99766040518163ffffffff1660e01b815260040160206040518083038186803b15801561233757600080fd5b505afa15801561234b573d6000803e3d6000fd5b505050506040513d601f19601f8201168201806040525081019061236f919061313e565b156123b05760405162461bcd60e51b815260206004820152601160248201527013585c9ad95d081d195c9b5a5b985d1959607a1b60448201526064016102a6565b604051631d64487f60e31b8152739dD7028b180eC2204d837Cf8e60eA822b9dd60499063eb2243f8906123eb90869086908690600401613272565b60006040518083038186803b15801561240357600080fd5b505af4158015612417573d6000803e3d6000fd5b505060408051858152602081018590526001600160a01b03871693507f19dacbf83c5de6658e14cbf7bcae5c15eca2eedecf1c66fbca928e4d351bea0f92500160405180910390a2505050565b60008061246f611d42565b905060005b81518110156124d45761249f82828151811061249257612492613171565b6020026020010151612a29565b6001600160a01b0316846001600160a01b031614156124c2575060019392505050565b806124cc8161320a565b915050612474565b5060009392505050565b6000611d3d612a34565b60006109738383612a54565b60008181526001830160205260408120541515610973565b7f9acda75aebd150dd434541a4747a6dc606f4f1a59662477e67daf1fc0bf9e0aa80546001600160a01b038381166001600160a01b0319831681179093556040519116919082907f8be0079c531659141344cd1fd0a4f28419497f9722a3daafe3b4186f6b6457e090600090a35050565b600083116125d85760405162461bcd60e51b815260206004820152602260248201527f496e76616c6964206c69717569646174696f6e207468726573686f6c64207261604482015261746560f01b60648201526084016102a6565b6127108211156126385760405162461bcd60e51b815260206004820152602560248201527f496e76616c6964206c69717569646174696f6e2070726f746f636f6c20666565604482015264207261746560d81b60648201526084016102a6565b61271081111561268a5760405162461bcd60e51b815260206004820152601b60248201527f496e76616c6964206c697175696461746f72206665652072617465000000000060448201526064016102a6565b6000805160206133e48339815191525483146126fa577fd3353684d64f1c80498433d8407c96e6bbeb1ec88b6200ec97d2c910fdbd0da46000805160206133e48339815191525460408051918252602082018690520160405180910390a1826000805160206133e4833981519152555b7f1aaabb4945989eb9ee8150fddc35fcfc125664a7b898aa2de5931bb12484d053548214612792577f651b17c8e9402610e6210cfaa5b252d2186f8a16adf58c9c0fd5793bc4ea9b1f6000805160206133e48339815191526001015460408051918252602082018590520160405180910390a17f1aaabb4945989eb9ee8150fddc35fcfc125664a7b898aa2de5931bb12484d0538290555b7f1aaabb4945989eb9ee8150fddc35fcfc125664a7b898aa2de5931bb12484d0545481146109b5577f1aaabb4945989eb9ee8150fddc35fcfc125664a7b898aa2de5931bb12484d05481905560408051828152602081018390527f7e8f030f9238551b066874b952f0c6ba811ba426ab231ba4825421d5d8f5cd959101611630565b60006109738383612aa3565b612828611f7b565b600080516020613424833981519152805460ff191660011790557f62e78cea01bee320cd4e420270b5ea74000d11b0c9f74754ebdbfc544b05a25833612261565b60007f360894a13ba1a3210667c828492db98dca3e2076cc3735a920a3ca505d382bbc610840565b600080516020613404833981519152546001600160a01b0316156128f75760405162461bcd60e51b815260206004820152601b60248201527f5265736f6c766572207265676973746572656420616c7265616479000000000060448201526064016102a6565b806000805160206134048339815191525b80546001600160a01b0319166001600160a01b039290921691909117905550565b7f3a2b81b27c095d6e2aecbb7be5d317f24d3f11a9eb2b6e2d16957fe4c0b4ddf3546001600160a01b0316156129975760405162461bcd60e51b8152602060048201526013602482015272105b1c9958591e481a5b9a5d1a585b1a5e9959606a1b60448201526064016102a6565b807f3a2b81b27c095d6e2aecbb7be5d317f24d3f11a9eb2b6e2d16957fe4c0b4ddf3612908565b606061097682612b96565b6000611d3d612bf2565b6000805160206134248339815191525460ff16610a075760405162461bcd60e51b815260206004820152601460248201527314185d5cd8589b194e881b9bdd081c185d5cd95960621b60448201526064016102a6565b600061097682612c13565b6000611d3d7121bab93932b731bca1b7b73a3937b63632b960711b612c13565b6000818152600183016020526040812054612a9b57508154600181810184556000848152602080822090930184905584548482528286019093526040902091909155610976565b506000610976565b60008181526001830160205260408120548015612b8c576000612ac7600183613127565b8554909150600090612adb90600190613127565b9050818114612b40576000866000018281548110612afb57612afb613171565b9060005260206000200154905080876000018481548110612b1e57612b1e613171565b6000918252602080832090910192909255918252600188019052604090208390555b8554869080612b5157612b516133ba565b600190038181906000526020600020016000905590558560010160008681526020019081526020016000206000905560019350505050610976565b6000915050610976565b606081600001805480602002602001604051908101604052809291908181526020018280548015612be657602002820191906000526020600020905b815481526020019060010190808311612bd2575b50505050509050919050565b6000611d3d762632b73234b733a6b0b935b2ba21b7b73a3937b63632b960491b5b60008181527f4abde63c3e81aefa5764b017968bc473e83e093d7e1a10247d19e0a3e41240196020908152604080832054815170026b4b9b9b4b7339030b2323932b9b99d1607d1b9381019390935260318084018690528251808503909101815260519093019091526001600160a01b031690816111545760405162461bcd60e51b81526004016102a691906133d0565b600060208284031215612cb657600080fd5b5035919050565b6001600160a01b0381168114610e8257600080fd5b60008060408385031215612ce557600080fd5b8235612cf081612cbd565b946020939093013593505050565b60008060408385031215612d1157600080fd5b50508035926020909101359150565b600060208284031215612d3257600080fd5b8135612d3d81612cbd565b9392505050565b60008060408385031215612d5757600080fd5b823591506020830135612d6981612cbd565b809150509250929050565b60008060008060808587031215612d8a57600080fd5b8435612d9581612cbd565b93506020850135925060408501359150606085013560028110612db757600080fd5b939692955090935050565b6020808252825182820181905260009190848201906040850190845b81811015612dfa57835183529284019291840191600101612dde565b50909695505050505050565b60008060208385031215612e1957600080fd5b823567ffffffffffffffff80821115612e3157600080fd5b818501915085601f830112612e4557600080fd5b813581811115612e5457600080fd5b8660208260051b8501011115612e6957600080fd5b60209290920196919550909350505050565b6020808252825182820181905260009190848201906040850190845b81811015612dfa578351151583529284019291840191600101612e97565b600080600060608486031215612eca57600080fd5b8335612ed581612cbd565b95602085013595506040909401359392505050565b60008060008060808587031215612f0057600080fd5b843593506020850135612f1281612cbd565b92506040850135612f2281612cbd565b9396929550929360600135925050565b8015158114610e8257600080fd5b600080600060608486031215612f5557600080fd5b833592506020840135612f6781612cbd565b91506040840135612f7781612f32565b809150509250925092565b600080600060608486031215612f9757600080fd5b505081359360208301359350604090920135919050565b60008060408385031215612fc157600080fd5b823591506020830135612d6981612f32565b60008060008060008060c08789031215612fec57600080fd5b8635612ff781612cbd565b9550602087013561300781612cbd565b945060408701359350606087013592506080870135915060a087013561302c81612cbd565b809150509295509295509295565b6000806040838503121561304d57600080fd5b505080516020909101519092909150565b60006020828403121561307057600080fd5b5051919050565b60208082526017908201527f43757272656e6379206e6f742072656769737465726564000000000000000000604082015260600190565b6020808252818101527f4f776e61626c653a2063616c6c6572206973206e6f7420746865206f776e6572604082015260600190565b6000806000606084860312156130f857600080fd5b8351925060208401519150604084015190509250925092565b634e487b7160e01b600052601160045260246000fd5b60008282101561313957613139613111565b500390565b60006020828403121561315057600080fd5b8151612d3d81612f32565b634e487b7160e01b600052602160045260246000fd5b634e487b7160e01b600052603260045260246000fd5b6000815180845260005b818110156131ad57602081850181015186830182015201613191565b818111156131bf576000602083870101525b50601f01601f19169290920160200192915050565b828152604060208201526000610ae26040830184613187565b6000602082840312156131ff57600080fd5b8151612d3d81612cbd565b600060001982141561321e5761321e613111565b5060010190565b634e487b7160e01b600052604160045260246000fd5b60208082526017908201527f4f6e6c7920416363657074656420436f6e747261637473000000000000000000604082015260600190565b6001600160a01b039390931683526020830191909152604082015260600190565b60008160001904831182151516156132ad576132ad613111565b500290565b6000826132cf57634e487b7160e01b600052601260045260246000fd5b500490565b600060208083850312156132e757600080fd5b825167ffffffffffffffff808211156132ff57600080fd5b818501915085601f83011261331357600080fd5b81518181111561332557613325613225565b8060051b604051601f19603f8301168101818110858211171561334a5761334a613225565b60405291825284820192508381018501918883111561336857600080fd5b938501935b828510156133865784518452938501939285019261336d565b98975050505050505050565b6020808252600e908201526d125b9d985b1a5908185b5bdd5b9d60921b604082015260600190565b634e487b7160e01b600052603160045260246000fd5b602081526000610973602083018461318756fe1aaabb4945989eb9ee8150fddc35fcfc125664a7b898aa2de5931bb12484d0524abde63c3e81aefa5764b017968bc473e83e093d7e1a10247d19e0a3e41240189c789132bdb3678132848a8dcd780bffd2b1abdce3984c522ac1d8aeb48f05f353832330c92cb5d80f0e1ff6fdb9886f7fad39132543bafb7497316eae2a831953832330c92cb5d80f0e1ff6fdb9886f7fad39132543bafb7497316eae2a8317a2646970667358221220fd8c7d9597a70521d2c0c6799b6e671281df7d71822c1f445a715ba283e7fa9b64736f6c63430008090033",
  "deployedBytecode": "0x6080604052600436106102495760003560e01c80635bffeb6611610139578063948060dd116100b6578063ca4230311161007a578063ca42303114610772578063d5e190d014610792578063e0997659146107a7578063f2fde38b146107bc578063fb7bd3b4146107dc578063fc700810146107fc57600080fd5b8063948060dd146106c757806396994e37146106e75780639e0879c2146106fa578063b12e44101461070f578063b1a5d12d1461075257600080fd5b80637496d3fb116100fd5780637496d3fb146106325780637d044b43146106525780637d44828e146106725780638da5cb5b146106925780638e19aff3146106a757600080fd5b80635bffeb66146105a35780635c975abb146105c35780635d861505146105e85780635d95df8a146105fd578063715018a61461061d57600080fd5b806328ff7a42116101c75780634ba0c9b51161018b5780634ba0c9b5146104bc5780634c6aa99c146104dc578063500d2f6d146105285780635257ed671461054857806354821c211461058357600080fd5b806328ff7a421461042357806329985e5a146104435780632af64bd3146104585780633d03b9da1461046d5780633f90a08e1461048f57600080fd5b80630cf7505d1161020e5780630cf7505d146103805780630cfe33fa146103b05780630eadd244146103d05780631de26e16146103f057806325e1f09f1461040357600080fd5b8062fcf262146102b65780630253cd7e146102f0578063040cf0201461031e57806304f3bcec1461033e5780630b7562be1461036b57600080fd5b366102b15761025661081c565b6001600160a01b0316336001600160a01b0316146102af5760405162461bcd60e51b81526020600482015260116024820152704e6f7420626173652063757272656e637960781b60448201526064015b60405180910390fd5b005b600080fd5b3480156102c257600080fd5b506102d66102d1366004612ca4565b61084f565b604080519283526020830191909152015b60405180910390f35b3480156102fc57600080fd5b5061031061030b366004612cd2565b6108dd565b6040519081526020016102e7565b34801561032a57600080fd5b506102af610339366004612cfe565b61097c565b34801561034a57600080fd5b506103536109ba565b6040516001600160a01b0390911681526020016102e7565b34801561037757600080fd5b506102af6109d0565b34801561038c57600080fd5b506103a061039b366004612ca4565b610a09565b60405190151581526020016102e7565b3480156103bc57600080fd5b506103106103cb366004612d20565b610a33565b3480156103dc57600080fd5b506103106103eb366004612d44565b610aea565b6102af6103fe366004612cfe565b610b34565b34801561040f57600080fd5b506103a061041e366004612d20565b610b6d565b34801561042f57600080fd5b506103a061043e366004612d74565b610c10565b34801561044f57600080fd5b506102af610cd7565b34801561046457600080fd5b506103a0610e85565b34801561047957600080fd5b50610482610feb565b6040516102e79190612dc2565b34801561049b57600080fd5b506104af6104aa366004612e06565b6110ad565b6040516102e79190612e7b565b3480156104c857600080fd5b506102af6104d7366004612eb5565b61115b565b3480156104e857600080fd5b506103106104f7366004612ca4565b60009081527f53832330c92cb5d80f0e1ff6fdb9886f7fad39132543bafb7497316eae2a831b602052604090205490565b34801561053457600080fd5b50610310610543366004612eea565b61121f565b34801561055457600080fd5b50610568610563366004612eb5565b61136b565b604080519384526020840192909252908201526060016102e7565b34801561058f57600080fd5b5061031061059e366004612d20565b61140a565b3480156105af57600080fd5b506102af6105be366004612f40565b6114a1565b3480156105cf57600080fd5b506000805160206134248339815191525460ff166103a0565b3480156105f457600080fd5b5061056861163d565b34801561060957600080fd5b506103a0610618366004612ca4565b6116b3565b34801561062957600080fd5b506102af6116cd565b34801561063e57600080fd5b506102af61064d366004612f82565b611706565b34801561065e57600080fd5b5061031061066d366004612cd2565b611740565b34801561067e57600080fd5b5061031061068d366004612cd2565b61181f565b34801561069e57600080fd5b506103536118be565b3480156106b357600080fd5b506102af6106c2366004612fae565b6118e6565b3480156106d357600080fd5b506103106106e2366004612d20565b6119b0565b6102af6106f5366004612eb5565b611a3e565b34801561070657600080fd5b506102af611a76565b34801561071b57600080fd5b5061035361072a366004612ca4565b600090815260008051602061344483398151915260205260409020546001600160a01b031690565b34801561075e57600080fd5b506102af61076d366004612fd3565b611aad565b34801561077e57600080fd5b5061031061078d366004612d20565b611c4e565b34801561079e57600080fd5b50610482611d24565b3480156107b357600080fd5b50610482611d42565b3480156107c857600080fd5b506102af6107d7366004612d20565b611dbe565b3480156107e857600080fd5b506102af6107f7366004612eb5565b611e5b565b34801561080857600080fd5b50610482610817366004612d20565b611ee9565b60007f3a2b81b27c095d6e2aecbb7be5d317f24d3f11a9eb2b6e2d16957fe4c0b4ddf35b546001600160a01b0316919050565b604051627e793160e11b815260048101829052600090819073__$e77f6d4722b46e0b0a57517726dbfd997e$__9062fcf26290602401604080518083038186803b15801561089c57600080fd5b505af41580156108b0573d6000803e3d6000fd5b505050506040513d601f19601f820116820180604052508101906108d4919061303a565b91509150915091565b604051630129e6bf60e11b81526001600160a01b03831660048201526024810182905260009073__$e77f6d4722b46e0b0a57517726dbfd997e$__90630253cd7e906044015b60206040518083038186803b15801561093b57600080fd5b505af415801561094f573d6000803e3d6000fd5b505050506040513d601f19601f82011682018060405250810190610973919061305e565b90505b92915050565b610984611f7b565b8161098e81610a09565b6109aa5760405162461bcd60e51b81526004016102a690613077565b6109b5338484611fce565b505050565b6000600080516020613404833981519152610840565b336109d96118be565b6001600160a01b0316146109ff5760405162461bcd60e51b81526004016102a6906130ae565b610a0761221f565b565b600090815260008051602061344483398151915260205260409020546001600160a01b0316151590565b60405163654c629560e01b81526001600160a01b03821660048201526000908190819073__$e77f6d4722b46e0b0a57517726dbfd997e$__9063654c62959060240160606040518083038186803b158015610a8d57600080fd5b505af4158015610aa1573d6000803e3d6000fd5b505050506040513d601f19601f82011682018060405250810190610ac591906130e3565b5091509150808211610ad8576000610ae2565b610ae28183613127565b949350505050565b6040516303ab749160e21b8152600481018390526001600160a01b038216602482015260009073__$e77f6d4722b46e0b0a57517726dbfd997e$__90630eadd24490604401610923565b610b3c611f7b565b81610b4681610a09565b610b625760405162461bcd60e51b81526004016102a690613077565b6109b533848461227e565b60405163fd2117fb60e01b81526001600160a01b038216600482015260006024820181905260448201819052606482018190529073__$e77f6d4722b46e0b0a57517726dbfd997e$__9063fd2117fb9060840160206040518083038186803b158015610bd857600080fd5b505af4158015610bec573d6000803e3d6000fd5b505050506040513d601f19601f82011682018060405250810190610976919061313e565b600073__$e77f6d4722b46e0b0a57517726dbfd997e$__63fd2117fb868686866001811115610c4157610c4161315b565b60405160e086901b6001600160e01b03191681526001600160a01b0394909416600485015260248401929092526044830152600114606482015260840160206040518083038186803b158015610c9657600080fd5b505af4158015610caa573d6000803e3d6000fd5b505050506040513d601f19601f82011682018060405250810190610cce919061313e565b95945050505050565b6000610ce1610feb565b905060005b8151811015610e80576000828281518110610d0357610d03613171565b602002602001015190506000610d2460008051602061340483398151915290565b54604080517f5265736f6c766572206d697373696e67207461726765743a200000000000000060208201526039808201869052825180830390910181526059820192839052636795dbcd60e01b9092526001600160a01b0390921691636795dbcd91610d9591869190605d016131d4565b60206040518083038186803b158015610dad57600080fd5b505afa158015610dc1573d6000803e3d6000fd5b505050506040513d601f19601f82011682018060405250810190610de591906131ed565b60008381527f4abde63c3e81aefa5764b017968bc473e83e093d7e1a10247d19e0a3e4124019602090815260409182902080546001600160a01b0319166001600160a01b03851690811790915582518681529182015281519293507f88a93678a3692f6789d9546fc621bf7234b101ddb7d4fe479455112831b8aa68929081900390910190a150508080610e789061320a565b915050610ce6565b505b50565b600080610e90610feb565b905060005b8151811015610fe2576000828281518110610eb257610eb2613171565b60200260200101519050610ed160008051602061340483398151915290565b600082815260019190910160205260409020546001600160a01b0316600080516020613404833981519152546040516321f8a72160e01b8152600481018490526001600160a01b03909116906321f8a7219060240160206040518083038186803b158015610f3e57600080fd5b505afa158015610f52573d6000803e3d6000fd5b505050506040513d601f19601f82011682018060405250810190610f7691906131ed565b6001600160a01b0316141580610fc0575060008181527f4abde63c3e81aefa5764b017968bc473e83e093d7e1a10247d19e0a3e412401960205260409020546001600160a01b0316155b15610fcf576000935050505090565b5080610fda8161320a565b915050610e95565b50600191505090565b604080516003808252608082019092526060916020820183803683370190505090507121bab93932b731bca1b7b73a3937b63632b960711b8160008151811061103657611036613171565b602002602001018181525050762632b73234b733a6b0b935b2ba21b7b73a3937b63632b960491b8160018151811061107057611070613171565b6020026020010181815250506a14995cd95c9d99519d5b9960aa1b8160028151811061109e5761109e613171565b60200260200101818152505090565b60608167ffffffffffffffff8111156110c8576110c8613225565b6040519080825280602002602001820160405280156110f1578160200160208202803683370190505b50905060005b828110156111545761112084848381811061111457611114613171565b905060200201356116b3565b82828151811061113257611132613171565b911515602092830291909101909101528061114c8161320a565b9150506110f7565b5092915050565b611163611f7b565b61116c33612464565b6111885760405162461bcd60e51b81526004016102a69061323b565b8161119281610a09565b6111ae5760405162461bcd60e51b81526004016102a690613077565b604051634ba0c9b560e01b815273__$e77f6d4722b46e0b0a57517726dbfd997e$__90634ba0c9b5906111e990879087908790600401613272565b60006040518083038186803b15801561120157600080fd5b505af4158015611215573d6000803e3d6000fd5b5050505050505050565b6000611229611f7b565b61123233612464565b61124e5760405162461bcd60e51b81526004016102a69061323b565b8461125881610a09565b6112745760405162461bcd60e51b81526004016102a690613077565b60405163500d2f6d60e01b8152600481018790526001600160a01b038087166024830152851660448201526064810184905273__$e77f6d4722b46e0b0a57517726dbfd997e$__9063500d2f6d9060840160206040518083038186803b1580156112dd57600080fd5b505af41580156112f1573d6000803e3d6000fd5b505050506040513d601f19601f82011682018060405250810190611315919061305e565b91506001600160a01b03808516908616877ff8ca259b4b82670be7501ff56ad1fc9c7cd199d3431e3c502f2c5f86884bc1506113518688613127565b60405190815260200160405180910390a450949350505050565b600080600073__$e77f6d4722b46e0b0a57517726dbfd997e$__635257ed678787876040518463ffffffff1660e01b81526004016113ab93929190613272565b60606040518083038186803b1580156113c357600080fd5b505af41580156113d7573d6000803e3d6000fd5b505050506040513d601f19601f820116820180604052508101906113fb91906130e3565b92509250925093509350939050565b60405163654c629560e01b81526001600160a01b038216600482015260009073__$e77f6d4722b46e0b0a57517726dbfd997e$__9063654c62959060240160606040518083038186803b15801561146057600080fd5b505af4158015611474573d6000803e3d6000fd5b505050506040513d601f19601f8201168201806040525081019061149891906130e3565b50909392505050565b336114aa6118be565b6001600160a01b0316146114d05760405162461bcd60e51b81526004016102a6906130ae565b6114d86124de565b6001600160a01b0316631eae0893846040518263ffffffff1660e01b815260040161150591815260200190565b60206040518083038186803b15801561151d57600080fd5b505afa158015611531573d6000803e3d6000fd5b505050506040513d601f19601f82011682018060405250810190611555919061313e565b6115945760405162461bcd60e51b815260206004820152601060248201526f496e76616c69642063757272656e637960801b60448201526064016102a6565b60008381526000805160206134448339815191526020526040902080546001600160a01b0319166001600160a01b03841617905580156115ea576115e8836000805160206134648339815191525b906124e8565b505b604080518481526001600160a01b0384166020820152821515918101919091527ff776c30df345d55df252bb5181a0c2bb23d601166606790a6f1b938d7e158503906060015b60405180910390a1505050565b60008060006116586000805160206133e48339815191525490565b92506116827f1aaabb4945989eb9ee8150fddc35fcfc125664a7b898aa2de5931bb12484d0535490565b91506116ac7f1aaabb4945989eb9ee8150fddc35fcfc125664a7b898aa2de5931bb12484d0545490565b9050909192565b6000610976600080516020613464833981519152836124f4565b336116d66118be565b6001600160a01b0316146116fc5760405162461bcd60e51b81526004016102a6906130ae565b610a07600061250c565b3361170f6118be565b6001600160a01b0316146117355760405162461bcd60e51b81526004016102a6906130ae565b6109b583838361257d565b600061174b33612464565b6117675760405162461bcd60e51b81526004016102a69061323b565b8161177181610a09565b61178d5760405162461bcd60e51b81526004016102a690613077565b604051637d044b4360e01b81526001600160a01b03851660048201526024810184905273__$e77f6d4722b46e0b0a57517726dbfd997e$__90637d044b439060440160206040518083038186803b1580156117e757600080fd5b505af41580156117fb573d6000803e3d6000fd5b505050506040513d601f19601f82011682018060405250810190610ae2919061305e565b604051633ea2414760e11b81526001600160a01b03831660048201526024810182905260009073__$e77f6d4722b46e0b0a57517726dbfd997e$__90637d44828e9060440160606040518083038186803b15801561187c57600080fd5b505af4158015611890573d6000803e3d6000fd5b505050506040513d601f19601f820116820180604052508101906118b491906130e3565b5090949350505050565b60007f9acda75aebd150dd434541a4747a6dc606f4f1a59662477e67daf1fc0bf9e0aa610840565b336118ef6118be565b6001600160a01b0316146119155760405162461bcd60e51b81526004016102a6906130ae565b8161191f81610a09565b61193b5760405162461bcd60e51b81526004016102a690613077565b811561195f57611959836000805160206134648339815191526115e2565b50611979565b61197760008051602061346483398151915284612814565b505b6040805184815283151560208201527f97caf2b3b2f0aa460ca08b20c07f7a43ccf688e2f3b7179f2cf9113fb892bf819101611630565b60405163948060dd60e01b81526001600160a01b038216600482015260009073__$e77f6d4722b46e0b0a57517726dbfd997e$__9063948060dd9060240160206040518083038186803b158015611a0657600080fd5b505af4158015611a1a573d6000803e3d6000fd5b505050506040513d601f19601f82011682018060405250810190610976919061305e565b611a46611f7b565b611a4f33612464565b611a6b5760405162461bcd60e51b81526004016102a69061323b565b6109b583838361227e565b33611a7f6118be565b6001600160a01b031614611aa55760405162461bcd60e51b81526004016102a6906130ae565b610a07612820565b600054610100900460ff1615808015611acd5750600054600160ff909116105b80611ae75750303b158015611ae7575060005460ff166001145b611b4a5760405162461bcd60e51b815260206004820152602e60248201527f496e697469616c697a61626c653a20636f6e747261637420697320616c72656160448201526d191e481a5b9a5d1a585b1a5e995960921b60648201526084016102a6565b6000805460ff191660011790558015611b6d576000805461ff0019166101001790555b6000611b77612869565b6001600160a01b03161415611bd95760405162461bcd60e51b815260206004820152602260248201527f4d7573742062652063616c6c65642066726f6d2070726f787920636f6e74726160448201526118dd60f21b60648201526084016102a6565b611be28761250c565b611beb86612891565b611bf482612929565b611bff85858561257d565b8015611c45576000805461ff0019169055604051600181527f7f26b83ff96e1f2b6a682f133852f6798a09c465da95921460cefb38474024989060200160405180910390a15b50505050505050565b60405163654c629560e01b81526001600160a01b03821660048201526000908190819073__$e77f6d4722b46e0b0a57517726dbfd997e$__9063654c62959060240160606040518083038186803b158015611ca857600080fd5b505af4158015611cbc573d6000803e3d6000fd5b505050506040513d601f19601f82011682018060405250810190611ce091906130e3565b50915091508160001415611d06578015611cfc57600019611cff565b60005b9250611d1d565b81611d1361271083613293565b610ae291906132b2565b5050919050565b6060611d3d6000805160206134648339815191526129be565b905090565b6040805160028082526060808301845292602083019080368337019050509050762632b73234b733a6b0b935b2ba21b7b73a3937b63632b960491b81600081518110611d9057611d90613171565b6020026020010181815250506a14995cd95c9d99519d5b9960aa1b8160018151811061109e5761109e613171565b33611dc76118be565b6001600160a01b031614611ded5760405162461bcd60e51b81526004016102a6906130ae565b6001600160a01b038116611e525760405162461bcd60e51b815260206004820152602660248201527f4f776e61626c653a206e6577206f776e657220697320746865207a65726f206160448201526564647265737360d01b60648201526084016102a6565b610e828161250c565b611e63611f7b565b611e6c33612464565b611e885760405162461bcd60e51b81526004016102a69061323b565b81611e9281610a09565b611eae5760405162461bcd60e51b81526004016102a690613077565b604051633edef4ed60e21b815273__$e77f6d4722b46e0b0a57517726dbfd997e$__9063fb7bd3b4906111e990879087908790600401613272565b604051630fc7008160e41b81526001600160a01b038216600482015260609073__$e77f6d4722b46e0b0a57517726dbfd997e$__9063fc7008109060240160006040518083038186803b158015611f3f57600080fd5b505af4158015611f53573d6000803e3d6000fd5b505050506040513d6000823e601f3d908101601f1916820160405261097691908101906132d4565b6000805160206134248339815191525460ff1615610a075760405162461bcd60e51b815260206004820152601060248201526f14185d5cd8589b194e881c185d5cd95960821b60448201526064016102a6565b60008111611fee5760405162461bcd60e51b81526004016102a690613392565b611ff66129c9565b60405163862fd6e560e01b81526001600160a01b038581166004830152919091169063862fd6e59060240160206040518083038186803b15801561203957600080fd5b505afa15801561204d573d6000803e3d6000fd5b505050506040513d601f19601f82011682018060405250810190612071919061313e565b156120b75760405162461bcd60e51b8152602060048201526016602482015275149959195b5c1d1a5bdb881a5cc81c995c5d5a5c995960521b60448201526064016102a6565b6120bf6129c9565b604051639519832b60e01b8152600481018490526001600160a01b0385811660248301529190911690639519832b90604401602060405180830381600087803b15801561210b57600080fd5b505af115801561211f573d6000803e3d6000fd5b505050506040513d601f19601f82011682018060405250810190612143919061305e565b5060405163148b8b9d60e11b815260009073__$e77f6d4722b46e0b0a57517726dbfd997e$__90632917173a9061218290879087908790600401613272565b60206040518083038186803b15801561219a57600080fd5b505af41580156121ae573d6000803e3d6000fd5b505050506040513d601f19601f820116820180604052508101906121d2919061305e565b60408051858152602081018390529192506001600160a01b038616917fc3ded2be7db21b1af963f267d27750e4a15f174547d88b886b9bda43e2c6fa32910160405180910390a250505050565b6122276129d3565b600080516020613424833981519152805460ff191690557f5db9ee0a495bf2e6ff9c91a7834c1ba4fdd244a5e8aa4e537bd38aeae4b073aa335b6040516001600160a01b03909116815260200160405180910390a1565b6000811161229e5760405162461bcd60e51b81526004016102a690613392565b6122a661081c565b600083815260008051602061344483398151915260205260409020546001600160a01b0390811691161415806122db57503481145b6122f75760405162461bcd60e51b81526004016102a690613392565b6122ff6129c9565b6001600160a01b031663d1cc99766040518163ffffffff1660e01b815260040160206040518083038186803b15801561233757600080fd5b505afa15801561234b573d6000803e3d6000fd5b505050506040513d601f19601f8201168201806040525081019061236f919061313e565b156123b05760405162461bcd60e51b815260206004820152601160248201527013585c9ad95d081d195c9b5a5b985d1959607a1b60448201526064016102a6565b604051631d64487f60e31b815273__$e77f6d4722b46e0b0a57517726dbfd997e$__9063eb2243f8906123eb90869086908690600401613272565b60006040518083038186803b15801561240357600080fd5b505af4158015612417573d6000803e3d6000fd5b505060408051858152602081018590526001600160a01b03871693507f19dacbf83c5de6658e14cbf7bcae5c15eca2eedecf1c66fbca928e4d351bea0f92500160405180910390a2505050565b60008061246f611d42565b905060005b81518110156124d45761249f82828151811061249257612492613171565b6020026020010151612a29565b6001600160a01b0316846001600160a01b031614156124c2575060019392505050565b806124cc8161320a565b915050612474565b5060009392505050565b6000611d3d612a34565b60006109738383612a54565b60008181526001830160205260408120541515610973565b7f9acda75aebd150dd434541a4747a6dc606f4f1a59662477e67daf1fc0bf9e0aa80546001600160a01b038381166001600160a01b0319831681179093556040519116919082907f8be0079c531659141344cd1fd0a4f28419497f9722a3daafe3b4186f6b6457e090600090a35050565b600083116125d85760405162461bcd60e51b815260206004820152602260248201527f496e76616c6964206c69717569646174696f6e207468726573686f6c64207261604482015261746560f01b60648201526084016102a6565b6127108211156126385760405162461bcd60e51b815260206004820152602560248201527f496e76616c6964206c69717569646174696f6e2070726f746f636f6c20666565604482015264207261746560d81b60648201526084016102a6565b61271081111561268a5760405162461bcd60e51b815260206004820152601b60248201527f496e76616c6964206c697175696461746f72206665652072617465000000000060448201526064016102a6565b6000805160206133e48339815191525483146126fa577fd3353684d64f1c80498433d8407c96e6bbeb1ec88b6200ec97d2c910fdbd0da46000805160206133e48339815191525460408051918252602082018690520160405180910390a1826000805160206133e4833981519152555b7f1aaabb4945989eb9ee8150fddc35fcfc125664a7b898aa2de5931bb12484d053548214612792577f651b17c8e9402610e6210cfaa5b252d2186f8a16adf58c9c0fd5793bc4ea9b1f6000805160206133e48339815191526001015460408051918252602082018590520160405180910390a17f1aaabb4945989eb9ee8150fddc35fcfc125664a7b898aa2de5931bb12484d0538290555b7f1aaabb4945989eb9ee8150fddc35fcfc125664a7b898aa2de5931bb12484d0545481146109b5577f1aaabb4945989eb9ee8150fddc35fcfc125664a7b898aa2de5931bb12484d05481905560408051828152602081018390527f7e8f030f9238551b066874b952f0c6ba811ba426ab231ba4825421d5d8f5cd959101611630565b60006109738383612aa3565b612828611f7b565b600080516020613424833981519152805460ff191660011790557f62e78cea01bee320cd4e420270b5ea74000d11b0c9f74754ebdbfc544b05a25833612261565b60007f360894a13ba1a3210667c828492db98dca3e2076cc3735a920a3ca505d382bbc610840565b600080516020613404833981519152546001600160a01b0316156128f75760405162461bcd60e51b815260206004820152601b60248201527f5265736f6c766572207265676973746572656420616c7265616479000000000060448201526064016102a6565b806000805160206134048339815191525b80546001600160a01b0319166001600160a01b039290921691909117905550565b7f3a2b81b27c095d6e2aecbb7be5d317f24d3f11a9eb2b6e2d16957fe4c0b4ddf3546001600160a01b0316156129975760405162461bcd60e51b8152602060048201526013602482015272105b1c9958591e481a5b9a5d1a585b1a5e9959606a1b60448201526064016102a6565b807f3a2b81b27c095d6e2aecbb7be5d317f24d3f11a9eb2b6e2d16957fe4c0b4ddf3612908565b606061097682612b96565b6000611d3d612bf2565b6000805160206134248339815191525460ff16610a075760405162461bcd60e51b815260206004820152601460248201527314185d5cd8589b194e881b9bdd081c185d5cd95960621b60448201526064016102a6565b600061097682612c13565b6000611d3d7121bab93932b731bca1b7b73a3937b63632b960711b612c13565b6000818152600183016020526040812054612a9b57508154600181810184556000848152602080822090930184905584548482528286019093526040902091909155610976565b506000610976565b60008181526001830160205260408120548015612b8c576000612ac7600183613127565b8554909150600090612adb90600190613127565b9050818114612b40576000866000018281548110612afb57612afb613171565b9060005260206000200154905080876000018481548110612b1e57612b1e613171565b6000918252602080832090910192909255918252600188019052604090208390555b8554869080612b5157612b516133ba565b600190038181906000526020600020016000905590558560010160008681526020019081526020016000206000905560019350505050610976565b6000915050610976565b606081600001805480602002602001604051908101604052809291908181526020018280548015612be657602002820191906000526020600020905b815481526020019060010190808311612bd2575b50505050509050919050565b6000611d3d762632b73234b733a6b0b935b2ba21b7b73a3937b63632b960491b5b60008181527f4abde63c3e81aefa5764b017968bc473e83e093d7e1a10247d19e0a3e41240196020908152604080832054815170026b4b9b9b4b7339030b2323932b9b99d1607d1b9381019390935260318084018690528251808503909101815260519093019091526001600160a01b031690816111545760405162461bcd60e51b81526004016102a691906133d0565b600060208284031215612cb657600080fd5b5035919050565b6001600160a01b0381168114610e8257600080fd5b60008060408385031215612ce557600080fd5b8235612cf081612cbd565b946020939093013593505050565b60008060408385031215612d1157600080fd5b50508035926020909101359150565b600060208284031215612d3257600080fd5b8135612d3d81612cbd565b9392505050565b60008060408385031215612d5757600080fd5b823591506020830135612d6981612cbd565b809150509250929050565b60008060008060808587031215612d8a57600080fd5b8435612d9581612cbd565b93506020850135925060408501359150606085013560028110612db757600080fd5b939692955090935050565b6020808252825182820181905260009190848201906040850190845b81811015612dfa57835183529284019291840191600101612dde565b50909695505050505050565b60008060208385031215612e1957600080fd5b823567ffffffffffffffff80821115612e3157600080fd5b818501915085601f830112612e4557600080fd5b813581811115612e5457600080fd5b8660208260051b8501011115612e6957600080fd5b60209290920196919550909350505050565b6020808252825182820181905260009190848201906040850190845b81811015612dfa578351151583529284019291840191600101612e97565b600080600060608486031215612eca57600080fd5b8335612ed581612cbd565b95602085013595506040909401359392505050565b60008060008060808587031215612f0057600080fd5b843593506020850135612f1281612cbd565b92506040850135612f2281612cbd565b9396929550929360600135925050565b8015158114610e8257600080fd5b600080600060608486031215612f5557600080fd5b833592506020840135612f6781612cbd565b91506040840135612f7781612f32565b809150509250925092565b600080600060608486031215612f9757600080fd5b505081359360208301359350604090920135919050565b60008060408385031215612fc157600080fd5b823591506020830135612d6981612f32565b60008060008060008060c08789031215612fec57600080fd5b8635612ff781612cbd565b9550602087013561300781612cbd565b945060408701359350606087013592506080870135915060a087013561302c81612cbd565b809150509295509295509295565b6000806040838503121561304d57600080fd5b505080516020909101519092909150565b60006020828403121561307057600080fd5b5051919050565b60208082526017908201527f43757272656e6379206e6f742072656769737465726564000000000000000000604082015260600190565b6020808252818101527f4f776e61626c653a2063616c6c6572206973206e6f7420746865206f776e6572604082015260600190565b6000806000606084860312156130f857600080fd5b8351925060208401519150604084015190509250925092565b634e487b7160e01b600052601160045260246000fd5b60008282101561313957613139613111565b500390565b60006020828403121561315057600080fd5b8151612d3d81612f32565b634e487b7160e01b600052602160045260246000fd5b634e487b7160e01b600052603260045260246000fd5b6000815180845260005b818110156131ad57602081850181015186830182015201613191565b818111156131bf576000602083870101525b50601f01601f19169290920160200192915050565b828152604060208201526000610ae26040830184613187565b6000602082840312156131ff57600080fd5b8151612d3d81612cbd565b600060001982141561321e5761321e613111565b5060010190565b634e487b7160e01b600052604160045260246000fd5b60208082526017908201527f4f6e6c7920416363657074656420436f6e747261637473000000000000000000604082015260600190565b6001600160a01b039390931683526020830191909152604082015260600190565b60008160001904831182151516156132ad576132ad613111565b500290565b6000826132cf57634e487b7160e01b600052601260045260246000fd5b500490565b600060208083850312156132e757600080fd5b825167ffffffffffffffff808211156132ff57600080fd5b818501915085601f83011261331357600080fd5b81518181111561332557613325613225565b8060051b604051601f19603f8301168101818110858211171561334a5761334a613225565b60405291825284820192508381018501918883111561336857600080fd5b938501935b828510156133865784518452938501939285019261336d565b98975050505050505050565b6020808252600e908201526d125b9d985b1a5908185b5bdd5b9d60921b604082015260600190565b634e487b7160e01b600052603160045260246000fd5b602081526000610973602083018461318756fe1aaabb4945989eb9ee8150fddc35fcfc125664a7b898aa2de5931bb12484d0524abde63c3e81aefa5764b017968bc473e83e093d7e1a10247d19e0a3e41240189c789132bdb3678132848a8dcd780bffd2b1abdce3984c522ac1d8aeb48f05f353832330c92cb5d80f0e1ff6fdb9886f7fad39132543bafb7497316eae2a831953832330c92cb5d80f0e1ff6fdb9886f7fad39132543bafb7497316eae2a8317a2646970667358221220fd8c7d9597a70521d2c0c6799b6e671281df7d71822c1f445a715ba283e7fa9b64736f6c63430008090033",
  "libraries": {
    "DepositManagementLogic": "0x9dD7028b180eC2204d837Cf8e60eA822b9dd6049"
  },
  "implementation": "0x6F43e083D8d1BD1a5a9386D6374a98E1775BEfFF",
  "devdoc": {
    "kind": "dev",
    "methods": {
      "acceptedContracts()": {
        "details": "The contact name listed in this method is also needed to be listed `requiredContracts` method."
      },
      "addDepositAmount(address,bytes32,uint256)": {
        "details": "Adds deposit amount.",
        "params": {
          "_amount": "Amount of funds to deposit",
          "_ccy": "Currency name in bytes32",
          "_user": "User's address"
        }
      },
      "calculateLiquidationFees(uint256)": {
        "params": {
          "_amount": "Liquidation amount"
        },
        "returns": {
          "liquidatorFee": "Liquidation fee amount received by liquidators",
          "protocolFee": "Liquidation fee amount received by protocol"
        }
      },
      "deposit(bytes32,uint256)": {
        "details": "Deposits funds by the caller into collateral.",
        "params": {
          "_amount": "Amount of funds to deposit",
          "_ccy": "Currency name in bytes32"
        }
      },
      "depositFrom(address,bytes32,uint256)": {
        "details": "Deposits funds by the `from` into collateral.",
        "params": {
          "_amount": "Amount of funds to deposit",
          "_ccy": "Currency name in bytes32",
          "_from": "user's address"
        }
      },
      "executeForcedReset(address,bytes32)": {
        "params": {
          "_ccy": "Currency name in bytes32",
          "_user": "User's address"
        }
      },
      "getCollateralAmount(address,bytes32)": {
        "params": {
          "_ccy": "Currency name in bytes32",
          "_user": "User's address"
        },
        "returns": {
          "amount": "The collateral amount"
        }
      },
      "getCollateralCurrencies()": {
        "returns": {
          "_0": "Array of the currency accepted as collateral"
        }
      },
      "getCollateralParameters()": {
        "returns": {
          "liquidationProtocolFeeRate": "Liquidation fee rate received by protocol",
          "liquidationThresholdRate": "Auto liquidation threshold rate",
          "liquidatorFeeRate": "Liquidation fee rate received by liquidators"
        }
      },
      "getCoverage(address)": {
        "params": {
          "_user": "User's address"
        },
        "returns": {
          "coverage": "The rate of collateral used"
        }
      },
      "getDepositAmount(address,bytes32)": {
        "params": {
          "_ccy": "Currency name in bytes32",
          "_user": "User's address"
        },
        "returns": {
          "_0": "The deposited amount"
        }
      },
      "getLiquidationAmount(address,bytes32,uint256)": {
        "params": {
          "_user": "User's address"
        },
        "returns": {
          "liquidationAmount": "The the amount to be liquidated"
        }
      },
      "getTokenAddress(bytes32)": {
        "params": {
          "_ccy": "Currency name in bytes32"
        },
        "returns": {
          "_0": "The token contract address"
        }
      },
      "getTotalCollateralAmount(address)": {
        "params": {
          "_user": "User's address"
        },
        "returns": {
          "totalCollateralAmount": "The total collateral amount in ETH"
        }
      },
      "getTotalDepositAmount(bytes32)": {
        "params": {
          "_ccy": "Currency name in bytes32"
        },
        "returns": {
          "_0": "The total deposited amount"
        }
      },
      "getUnusedCollateral(address)": {
        "params": {
          "_user": "User's address"
        },
        "returns": {
          "_0": "The total amount of unused collateral"
        }
      },
      "getUsedCurrencies(address)": {
        "params": {
          "_user": "User's address"
        },
        "returns": {
          "_0": "The currency names in bytes32"
        }
      },
      "getWithdrawableCollateral(address)": {
        "params": {
          "_user": "User's address"
        },
        "returns": {
          "_0": "Maximum amount of ETH that can be withdrawn"
        }
      },
      "getWithdrawableCollateral(bytes32,address)": {
        "params": {
          "_ccy": "Currency name in bytes32",
          "_user": "User's address"
        },
        "returns": {
          "_0": "Maximum amount of the selected currency that can be withdrawn"
        }
      },
      "initialize(address,address,uint256,uint256,uint256,address)": {
        "details": "Function is invoked by the proxy contract when the contract is added to the ProxyController.",
        "params": {
          "_WETH9": "The address of the wrapped token to use as base currency",
          "_liquidationProtocolFeeRate": "The liquidation fee rate received by protocol",
          "_liquidationThresholdRate": "The liquidation threshold rate",
          "_liquidatorFeeRate": "The liquidation fee rate received by liquidators",
          "_owner": "The address of the contract owner",
          "_resolver": "The address of the Address Resolver contract"
        }
      },
      "isCollateral(bytes32)": {
        "params": {
          "_ccy": "Currency name in bytes32"
        },
        "returns": {
          "_0": "The boolean if the currency has been registered or not"
        }
      },
      "isCollateral(bytes32[])": {
        "params": {
          "_ccys": "Currency name list in bytes32"
        },
        "returns": {
          "isCollateralCurrencies": "Array of the boolean if the currency has been registered or not"
        }
      },
      "isCovered(address)": {
        "params": {
          "_user": "User's address"
        },
        "returns": {
          "_0": "The boolean if the collateral has sufficient coverage or not"
        }
      },
      "isCovered(address,bytes32,uint256,uint8)": {
        "params": {
          "_unsettledOrderAmount": "Additional unsettled order amount",
          "_unsettledOrderCcy": "Additional unsettled order currency name in bytes32",
          "_user": "User's address"
        },
        "returns": {
          "_0": "The boolean if the collateral has sufficient coverage or not"
        }
      },
      "isRegisteredCurrency(bytes32)": {
        "params": {
          "_ccy": "Currency name in bytes32"
        },
        "returns": {
          "_0": "The boolean if the currency has been registered or not"
        }
      },
      "owner()": {
        "details": "Returns the address of the current owner."
      },
      "paused()": {
        "details": "Returns true if the contract is paused, and false otherwise."
      },
      "registerCurrency(bytes32,address,bool)": {
        "params": {
          "_ccy": "Currency name in bytes32",
          "_isCollateral": "Boolean if the selected currency is acceptable as collateral.",
          "_tokenAddress": "Token contract address of the selected currency"
        }
      },
      "removeDepositAmount(address,bytes32,uint256)": {
        "params": {
          "_amount": "Amount of funds to withdraw.",
          "_ccy": "Currency name in bytes32",
          "_user": "User's address"
        }
      },
      "renounceOwnership()": {
        "details": "Leaves the contract without owner. It will not be possible to call `onlyOwner` functions anymore. Can only be called by the current owner. NOTE: Renouncing ownership will leave the contract without an owner, thereby removing any functionality that is only available to the owner."
      },
      "requiredContracts()": {
        "details": "The contract name list is in `./libraries/Contracts.sol`."
      },
      "setCollateralParameters(uint256,uint256,uint256)": {
        "params": {
          "_liquidationProtocolFeeRate": "The liquidation fee rate received by protocol",
          "_liquidationThresholdRate": "The auto liquidation threshold rate",
          "_liquidatorFeeRate": "The liquidation fee rate received by liquidators"
        }
      },
      "transferFrom(bytes32,address,address,uint256)": {
        "params": {
          "_amount": "Amount of funds to sent",
          "_ccy": "Currency name in bytes32",
          "_from": "Sender's address",
          "_to": "Receiver's address"
        }
      },
      "transferOwnership(address)": {
        "details": "Transfers ownership of the contract to a new account (`newOwner`). Can only be called by the current owner."
      },
      "updateCurrency(bytes32,bool)": {
        "params": {
          "_ccy": "Currency name in bytes32",
          "_isCollateral": "Boolean if the selected currency is acceptable as collateral."
        }
      },
      "withdraw(bytes32,uint256)": {
        "params": {
          "_amount": "Amount of funds to withdraw.",
          "_ccy": "Currency name in bytes32"
        }
      }
    },
    "version": 1
  },
  "userdoc": {
    "kind": "user",
    "methods": {
      "acceptedContracts()": {
        "notice": "Returns contract names that can call this contract."
      },
      "calculateLiquidationFees(uint256)": {
        "notice": "Gets the actual fee amounts calculated by rates."
      },
      "executeForcedReset(address,bytes32)": {
        "notice": "Forces a reset of the user's deposit amount."
      },
      "getCollateralAmount(address,bytes32)": {
        "notice": "Gets the total collateral amount of the selected currency."
      },
      "getCollateralCurrencies()": {
        "notice": "Gets the currencies accepted as collateral"
      },
      "getCollateralParameters()": {
        "notice": "Gets the collateral parameters"
      },
      "getCoverage(address)": {
        "notice": "Gets the rate of collateral used."
      },
      "getDepositAmount(address,bytes32)": {
        "notice": "Gets the amount deposited in the user's collateral."
      },
      "getLiquidationAmount(address,bytes32,uint256)": {
        "notice": "Gets the amount to be liquidated."
      },
      "getTokenAddress(bytes32)": {
        "notice": "Gets the token contract address"
      },
      "getTotalCollateralAmount(address)": {
        "notice": "Gets the total collateral amount."
      },
      "getTotalDepositAmount(bytes32)": {
        "notice": "Gets the total amount deposited of the selected currency"
      },
      "getUnusedCollateral(address)": {
        "notice": "Gets the total amount of the unused collateral"
      },
      "getUsedCurrencies(address)": {
        "notice": "Gets the currencies that the user used as collateral."
      },
      "getWithdrawableCollateral(address)": {
        "notice": "Gets the maximum amount of ETH that can be withdrawn from user collateral."
      },
      "getWithdrawableCollateral(bytes32,address)": {
        "notice": "Gets the maximum amount of the selected currency that can be withdrawn from user collateral."
      },
      "initialize(address,address,uint256,uint256,uint256,address)": {
        "notice": "Initializes the contract."
      },
      "isCollateral(bytes32)": {
        "notice": "Gets if the currency is acceptable as collateral"
      },
      "isCollateral(bytes32[])": {
        "notice": "Gets if the currencies are acceptable as collateral"
      },
      "isCovered(address)": {
        "notice": "Gets if the collateral has enough coverage."
      },
      "isCovered(address,bytes32,uint256,uint8)": {
        "notice": "Gets if the collateral has enough coverage."
      },
      "isRegisteredCurrency(bytes32)": {
        "notice": "Gets if the currency has been registered"
      },
      "pauseVault()": {
        "notice": "Pauses the token vault."
      },
      "registerCurrency(bytes32,address,bool)": {
        "notice": "Registers new currency and sets if it is acceptable as collateral."
      },
      "removeDepositAmount(address,bytes32,uint256)": {
        "notice": "Removes deposit amount."
      },
      "requiredContracts()": {
        "notice": "Returns the contract names used in this contract."
      },
      "setCollateralParameters(uint256,uint256,uint256)": {
        "notice": "Sets main collateral parameters this function solves the issue of frontrunning during parameters tuning.Triggers only be contract owner"
      },
      "transferFrom(bytes32,address,address,uint256)": {
        "notice": "Transfers the token from sender to receiver."
      },
      "unpauseVault()": {
        "notice": "Unpauses the token vault."
      },
      "updateCurrency(bytes32,bool)": {
        "notice": "Updates the currency if it is acceptable as collateral."
      },
      "withdraw(bytes32,uint256)": {
        "notice": "Withdraws funds by the caller from unused collateral."
      }
    },
    "notice": "Implements the management of the token in each currency for users. This contract manages the following data related to tokens. - Deposited token amount as the collateral - Parameters related to the collateral   - Margin Call Threshold Rate   - Auto Liquidation Threshold Rate   - Liquidation Price Rate   - Min Collateral Rate To address a currency as collateral, it must be registered using `registerCurrency` method in this contract.",
    "version": 1
  },
  "storageLayout": {
    "storage": [
      {
        "astId": 995,
        "contract": "contracts/protocol/TokenVault.sol:TokenVault",
        "label": "_initialized",
        "offset": 0,
        "slot": "0",
        "type": "t_uint8"
      },
      {
        "astId": 998,
        "contract": "contracts/protocol/TokenVault.sol:TokenVault",
        "label": "_initializing",
        "offset": 1,
        "slot": "0",
        "type": "t_bool"
      }
    ],
    "types": {
      "t_bool": {
        "encoding": "inplace",
        "label": "bool",
        "numberOfBytes": "1"
      },
      "t_uint8": {
        "encoding": "inplace",
        "label": "uint8",
        "numberOfBytes": "1"
      }
    }
  }
}