{
  "address": "0x024Dfce8A1A7E588F157A3c13cD48D8F5A29ECC5",
  "abi": [
    {
      "inputs": [
        {
          "internalType": "address",
          "name": "caller",
          "type": "address"
        }
      ],
      "name": "CallerNotBaseCurrency",
      "type": "error"
    },
    {
      "inputs": [],
      "name": "InvalidAmount",
      "type": "error"
    },
    {
      "inputs": [],
      "name": "InvalidCurrency",
      "type": "error"
    },
    {
      "inputs": [],
      "name": "InvalidLiquidationProtocolFeeRate",
      "type": "error"
    },
    {
      "inputs": [],
      "name": "InvalidLiquidationThresholdRate",
      "type": "error"
    },
    {
      "inputs": [],
      "name": "InvalidLiquidatorFeeRate",
      "type": "error"
    },
    {
      "inputs": [],
      "name": "MarketTerminated",
      "type": "error"
    },
    {
      "inputs": [
        {
          "internalType": "string",
          "name": "name",
          "type": "string"
        }
      ],
      "name": "MissingAddress",
      "type": "error"
    },
    {
      "inputs": [],
      "name": "OnlyAcceptedContracts",
      "type": "error"
    },
    {
      "inputs": [],
      "name": "RedemptionIsRequired",
      "type": "error"
    },
    {
      "inputs": [],
      "name": "ResolverAlreadyRegistered",
      "type": "error"
    },
    {
      "inputs": [],
      "name": "UnregisteredCurrency",
      "type": "error"
    },
    {
      "anonymous": false,
      "inputs": [
        {
          "indexed": false,
          "internalType": "uint256",
          "name": "previousRate",
          "type": "uint256"
        },
        {
          "indexed": false,
          "internalType": "uint256",
          "name": "ratio",
          "type": "uint256"
        }
      ],
      "name": "AutoLiquidationThresholdRateUpdated",
      "type": "event"
    },
    {
      "anonymous": false,
      "inputs": [
        {
          "indexed": false,
          "internalType": "bytes32",
          "name": "name",
          "type": "bytes32"
        },
        {
          "indexed": false,
          "internalType": "address",
          "name": "destination",
          "type": "address"
        }
      ],
      "name": "CacheUpdated",
      "type": "event"
    },
    {
      "anonymous": false,
      "inputs": [
        {
          "indexed": false,
          "internalType": "bytes32",
          "name": "ccy",
          "type": "bytes32"
        },
        {
          "indexed": false,
          "internalType": "address",
          "name": "tokenAddress",
          "type": "address"
        },
        {
          "indexed": false,
          "internalType": "bool",
          "name": "isCollateral",
          "type": "bool"
        }
      ],
      "name": "CurrencyRegistered",
      "type": "event"
    },
    {
      "anonymous": false,
      "inputs": [
        {
          "indexed": false,
          "internalType": "bytes32",
          "name": "ccy",
          "type": "bytes32"
        },
        {
          "indexed": false,
          "internalType": "bool",
          "name": "isCollateral",
          "type": "bool"
        }
      ],
      "name": "CurrencyUpdated",
      "type": "event"
    },
    {
      "anonymous": false,
      "inputs": [
        {
          "indexed": true,
          "internalType": "address",
          "name": "user",
          "type": "address"
        },
        {
          "indexed": false,
          "internalType": "bytes32",
          "name": "ccy",
          "type": "bytes32"
        },
        {
          "indexed": false,
          "internalType": "uint256",
          "name": "amount",
          "type": "uint256"
        }
      ],
      "name": "Deposit",
      "type": "event"
    },
    {
      "anonymous": false,
      "inputs": [
        {
          "indexed": false,
          "internalType": "uint8",
          "name": "version",
          "type": "uint8"
        }
      ],
      "name": "Initialized",
      "type": "event"
    },
    {
      "anonymous": false,
      "inputs": [
        {
          "indexed": false,
          "internalType": "uint256",
          "name": "previousRate",
          "type": "uint256"
        },
        {
          "indexed": false,
          "internalType": "uint256",
          "name": "ratio",
          "type": "uint256"
        }
      ],
      "name": "LiquidationProtocolFeeRateUpdated",
      "type": "event"
    },
    {
      "anonymous": false,
      "inputs": [
        {
          "indexed": false,
          "internalType": "uint256",
          "name": "previousRate",
          "type": "uint256"
        },
        {
          "indexed": false,
          "internalType": "uint256",
          "name": "ratio",
          "type": "uint256"
        }
      ],
      "name": "LiquidatorFeeRateUpdated",
      "type": "event"
    },
    {
      "anonymous": false,
      "inputs": [
        {
          "indexed": true,
          "internalType": "address",
          "name": "previousOwner",
          "type": "address"
        },
        {
          "indexed": true,
          "internalType": "address",
          "name": "newOwner",
          "type": "address"
        }
      ],
      "name": "OwnershipTransferred",
      "type": "event"
    },
    {
      "anonymous": false,
      "inputs": [
        {
          "indexed": false,
          "internalType": "address",
          "name": "account",
          "type": "address"
        }
      ],
      "name": "Paused",
      "type": "event"
    },
    {
      "anonymous": false,
      "inputs": [
        {
          "indexed": true,
          "internalType": "bytes32",
          "name": "ccy",
          "type": "bytes32"
        },
        {
          "indexed": true,
          "internalType": "address",
          "name": "from",
          "type": "address"
        },
        {
          "indexed": true,
          "internalType": "address",
          "name": "to",
          "type": "address"
        },
        {
          "indexed": false,
          "internalType": "uint256",
          "name": "amount",
          "type": "uint256"
        }
      ],
      "name": "Transfer",
      "type": "event"
    },
    {
      "anonymous": false,
      "inputs": [
        {
          "indexed": false,
          "internalType": "address",
          "name": "account",
          "type": "address"
        }
      ],
      "name": "Unpaused",
      "type": "event"
    },
    {
      "anonymous": false,
      "inputs": [
        {
          "indexed": true,
          "internalType": "address",
          "name": "user",
          "type": "address"
        },
        {
          "indexed": false,
          "internalType": "bytes32",
          "name": "ccy",
          "type": "bytes32"
        },
        {
          "indexed": false,
          "internalType": "uint256",
          "name": "amount",
          "type": "uint256"
        }
      ],
      "name": "Withdraw",
      "type": "event"
    },
    {
      "inputs": [],
      "name": "acceptedContracts",
      "outputs": [
        {
          "internalType": "bytes32[]",
          "name": "contracts",
          "type": "bytes32[]"
        }
      ],
      "stateMutability": "pure",
      "type": "function"
    },
    {
      "inputs": [
        {
          "internalType": "address",
          "name": "_user",
          "type": "address"
        },
        {
          "internalType": "bytes32",
          "name": "_ccy",
          "type": "bytes32"
        },
        {
          "internalType": "uint256",
          "name": "_amount",
          "type": "uint256"
        }
      ],
      "name": "addDepositAmount",
      "outputs": [],
      "stateMutability": "nonpayable",
      "type": "function"
    },
    {
      "inputs": [],
      "name": "buildCache",
      "outputs": [],
      "stateMutability": "nonpayable",
      "type": "function"
    },
    {
      "inputs": [
        {
          "internalType": "address",
          "name": "_user",
          "type": "address"
        },
        {
          "components": [
            {
              "internalType": "bytes32",
              "name": "ccy",
              "type": "bytes32"
            },
            {
              "internalType": "uint256",
              "name": "workingLendOrdersAmount",
              "type": "uint256"
            },
            {
              "internalType": "uint256",
              "name": "claimableAmount",
              "type": "uint256"
            },
            {
              "internalType": "uint256",
              "name": "workingBorrowOrdersAmount",
              "type": "uint256"
            },
            {
              "internalType": "uint256",
              "name": "debtAmount",
              "type": "uint256"
            },
            {
              "internalType": "uint256",
              "name": "lentAmount",
              "type": "uint256"
            },
            {
              "internalType": "uint256",
              "name": "borrowedAmount",
              "type": "uint256"
            }
          ],
          "internalType": "struct ILendingMarketController.AdditionalFunds",
          "name": "_additionalFunds",
          "type": "tuple"
        }
      ],
      "name": "calculateCoverage",
      "outputs": [
        {
          "internalType": "uint256",
          "name": "coverage",
          "type": "uint256"
        },
        {
          "internalType": "bool",
          "name": "isInsufficientDepositAmount",
          "type": "bool"
        }
      ],
      "stateMutability": "view",
      "type": "function"
    },
    {
      "inputs": [
        {
          "internalType": "uint256",
          "name": "_amount",
          "type": "uint256"
        }
      ],
      "name": "calculateLiquidationFees",
      "outputs": [
        {
          "internalType": "uint256",
          "name": "protocolFee",
          "type": "uint256"
        },
        {
          "internalType": "uint256",
          "name": "liquidatorFee",
          "type": "uint256"
        }
      ],
      "stateMutability": "view",
      "type": "function"
    },
    {
      "inputs": [
        {
          "internalType": "bytes32",
          "name": "_ccy",
          "type": "bytes32"
        },
        {
          "internalType": "uint256",
          "name": "_amount",
          "type": "uint256"
        }
      ],
      "name": "deposit",
      "outputs": [],
      "stateMutability": "payable",
      "type": "function"
    },
    {
      "inputs": [
        {
          "internalType": "address",
          "name": "_from",
          "type": "address"
        },
        {
          "internalType": "bytes32",
          "name": "_ccy",
          "type": "bytes32"
        },
        {
          "internalType": "uint256",
          "name": "_amount",
          "type": "uint256"
        }
      ],
      "name": "depositFrom",
      "outputs": [],
      "stateMutability": "payable",
      "type": "function"
    },
    {
      "inputs": [
        {
          "internalType": "address",
          "name": "_user",
          "type": "address"
        },
        {
          "internalType": "bytes32",
          "name": "_ccy",
          "type": "bytes32"
        }
      ],
      "name": "executeForcedReset",
      "outputs": [
        {
          "internalType": "uint256",
          "name": "",
          "type": "uint256"
        }
      ],
      "stateMutability": "nonpayable",
      "type": "function"
    },
    {
      "inputs": [
        {
          "internalType": "address",
          "name": "_user",
          "type": "address"
        },
        {
          "internalType": "bytes32",
          "name": "_ccy",
          "type": "bytes32"
        }
      ],
      "name": "getCollateralAmount",
      "outputs": [
        {
          "internalType": "uint256",
          "name": "amount",
          "type": "uint256"
        }
      ],
      "stateMutability": "view",
      "type": "function"
    },
    {
      "inputs": [],
      "name": "getCollateralCurrencies",
      "outputs": [
        {
          "internalType": "bytes32[]",
          "name": "",
          "type": "bytes32[]"
        }
      ],
      "stateMutability": "view",
      "type": "function"
    },
    {
      "inputs": [
        {
          "internalType": "address",
          "name": "_user",
          "type": "address"
        }
      ],
      "name": "getCoverage",
      "outputs": [
        {
          "internalType": "uint256",
          "name": "coverage",
          "type": "uint256"
        }
      ],
      "stateMutability": "view",
      "type": "function"
    },
    {
      "inputs": [
        {
          "internalType": "address",
          "name": "_user",
          "type": "address"
        },
        {
          "internalType": "bytes32",
          "name": "_ccy",
          "type": "bytes32"
        }
      ],
      "name": "getDepositAmount",
      "outputs": [
        {
          "internalType": "uint256",
          "name": "",
          "type": "uint256"
        }
      ],
      "stateMutability": "view",
      "type": "function"
    },
    {
      "inputs": [
        {
          "internalType": "address",
          "name": "_user",
          "type": "address"
        },
        {
          "internalType": "bytes32",
          "name": "_liquidationCcy",
          "type": "bytes32"
        },
        {
          "internalType": "uint256",
          "name": "_liquidationAmountMaximum",
          "type": "uint256"
        }
      ],
      "name": "getLiquidationAmount",
      "outputs": [
        {
          "internalType": "uint256",
          "name": "liquidationAmount",
          "type": "uint256"
        },
        {
          "internalType": "uint256",
          "name": "protocolFee",
          "type": "uint256"
        },
        {
          "internalType": "uint256",
          "name": "liquidatorFee",
          "type": "uint256"
        }
      ],
      "stateMutability": "view",
      "type": "function"
    },
    {
      "inputs": [],
      "name": "getLiquidationConfiguration",
      "outputs": [
        {
          "internalType": "uint256",
          "name": "liquidationThresholdRate",
          "type": "uint256"
        },
        {
          "internalType": "uint256",
          "name": "liquidationProtocolFeeRate",
          "type": "uint256"
        },
        {
          "internalType": "uint256",
          "name": "liquidatorFeeRate",
          "type": "uint256"
        }
      ],
      "stateMutability": "view",
      "type": "function"
    },
    {
      "inputs": [
        {
          "internalType": "bytes32",
          "name": "_ccy",
          "type": "bytes32"
        }
      ],
      "name": "getTokenAddress",
      "outputs": [
        {
          "internalType": "address",
          "name": "",
          "type": "address"
        }
      ],
      "stateMutability": "view",
      "type": "function"
    },
    {
      "inputs": [
        {
          "internalType": "address",
          "name": "_user",
          "type": "address"
        }
      ],
      "name": "getTotalCollateralAmount",
      "outputs": [
        {
          "internalType": "uint256",
          "name": "totalCollateralAmount",
          "type": "uint256"
        }
      ],
      "stateMutability": "view",
      "type": "function"
    },
    {
      "inputs": [
        {
          "internalType": "bytes32",
          "name": "_ccy",
          "type": "bytes32"
        }
      ],
      "name": "getTotalDepositAmount",
      "outputs": [
        {
          "internalType": "uint256",
          "name": "",
          "type": "uint256"
        }
      ],
      "stateMutability": "view",
      "type": "function"
    },
    {
      "inputs": [
        {
          "internalType": "address",
          "name": "_user",
          "type": "address"
        }
      ],
      "name": "getUnusedCollateral",
      "outputs": [
        {
          "internalType": "uint256",
          "name": "",
          "type": "uint256"
        }
      ],
      "stateMutability": "view",
      "type": "function"
    },
    {
      "inputs": [
        {
          "internalType": "address",
          "name": "_user",
          "type": "address"
        }
      ],
      "name": "getUsedCurrencies",
      "outputs": [
        {
          "internalType": "bytes32[]",
          "name": "",
          "type": "bytes32[]"
        }
      ],
      "stateMutability": "view",
      "type": "function"
    },
    {
      "inputs": [
        {
          "internalType": "bytes32",
          "name": "_ccy",
          "type": "bytes32"
        },
        {
          "internalType": "address",
          "name": "_user",
          "type": "address"
        }
      ],
      "name": "getWithdrawableCollateral",
      "outputs": [
        {
          "internalType": "uint256",
          "name": "",
          "type": "uint256"
        }
      ],
      "stateMutability": "view",
      "type": "function"
    },
    {
      "inputs": [
        {
          "internalType": "address",
          "name": "_user",
          "type": "address"
        }
      ],
      "name": "getWithdrawableCollateral",
      "outputs": [
        {
          "internalType": "uint256",
          "name": "",
          "type": "uint256"
        }
      ],
      "stateMutability": "view",
      "type": "function"
    },
    {
      "inputs": [
        {
          "internalType": "address",
          "name": "_owner",
          "type": "address"
        },
        {
          "internalType": "address",
          "name": "_resolver",
          "type": "address"
        },
        {
          "internalType": "uint256",
          "name": "_liquidationThresholdRate",
          "type": "uint256"
        },
        {
          "internalType": "uint256",
          "name": "_liquidationProtocolFeeRate",
          "type": "uint256"
        },
        {
          "internalType": "uint256",
          "name": "_liquidatorFeeRate",
          "type": "uint256"
        },
        {
          "internalType": "address",
          "name": "_nativeToken",
          "type": "address"
        }
      ],
      "name": "initialize",
      "outputs": [],
      "stateMutability": "nonpayable",
      "type": "function"
    },
    {
      "inputs": [
        {
          "internalType": "bytes32[]",
          "name": "_ccys",
          "type": "bytes32[]"
        }
      ],
      "name": "isCollateral",
      "outputs": [
        {
          "internalType": "bool[]",
          "name": "isCollateralCurrencies",
          "type": "bool[]"
        }
      ],
      "stateMutability": "view",
      "type": "function"
    },
    {
      "inputs": [
        {
          "internalType": "bytes32",
          "name": "_ccy",
          "type": "bytes32"
        }
      ],
      "name": "isCollateral",
      "outputs": [
        {
          "internalType": "bool",
          "name": "",
          "type": "bool"
        }
      ],
      "stateMutability": "view",
      "type": "function"
    },
    {
      "inputs": [
        {
          "internalType": "address",
          "name": "_user",
          "type": "address"
        }
      ],
      "name": "isCovered",
      "outputs": [
        {
          "internalType": "bool",
          "name": "",
          "type": "bool"
        }
      ],
      "stateMutability": "view",
      "type": "function"
    },
    {
      "inputs": [
        {
          "internalType": "bytes32",
          "name": "_ccy",
          "type": "bytes32"
        }
      ],
      "name": "isRegisteredCurrency",
      "outputs": [
        {
          "internalType": "bool",
          "name": "",
          "type": "bool"
        }
      ],
      "stateMutability": "view",
      "type": "function"
    },
    {
      "inputs": [],
      "name": "isResolverCached",
      "outputs": [
        {
          "internalType": "bool",
          "name": "",
          "type": "bool"
        }
      ],
      "stateMutability": "view",
      "type": "function"
    },
    {
      "inputs": [],
      "name": "owner",
      "outputs": [
        {
          "internalType": "address",
          "name": "",
          "type": "address"
        }
      ],
      "stateMutability": "view",
      "type": "function"
    },
    {
      "inputs": [],
      "name": "pauseVault",
      "outputs": [],
      "stateMutability": "nonpayable",
      "type": "function"
    },
    {
      "inputs": [],
      "name": "paused",
      "outputs": [
        {
          "internalType": "bool",
          "name": "",
          "type": "bool"
        }
      ],
      "stateMutability": "view",
      "type": "function"
    },
    {
      "inputs": [
        {
          "internalType": "bytes32",
          "name": "_ccy",
          "type": "bytes32"
        },
        {
          "internalType": "address",
          "name": "_tokenAddress",
          "type": "address"
        },
        {
          "internalType": "bool",
          "name": "_isCollateral",
          "type": "bool"
        }
      ],
      "name": "registerCurrency",
      "outputs": [],
      "stateMutability": "nonpayable",
      "type": "function"
    },
    {
      "inputs": [
        {
          "internalType": "address",
          "name": "_user",
          "type": "address"
        },
        {
          "internalType": "bytes32",
          "name": "_ccy",
          "type": "bytes32"
        },
        {
          "internalType": "uint256",
          "name": "_amount",
          "type": "uint256"
        }
      ],
      "name": "removeDepositAmount",
      "outputs": [],
      "stateMutability": "nonpayable",
      "type": "function"
    },
    {
      "inputs": [],
      "name": "renounceOwnership",
      "outputs": [],
      "stateMutability": "nonpayable",
      "type": "function"
    },
    {
      "inputs": [],
      "name": "requiredContracts",
      "outputs": [
        {
          "internalType": "bytes32[]",
          "name": "contracts",
          "type": "bytes32[]"
        }
      ],
      "stateMutability": "pure",
      "type": "function"
    },
    {
      "inputs": [],
      "name": "resolver",
      "outputs": [
        {
          "internalType": "contract IAddressResolver",
          "name": "",
          "type": "address"
        }
      ],
      "stateMutability": "view",
      "type": "function"
    },
    {
      "inputs": [
        {
          "internalType": "bytes32",
          "name": "_ccy",
          "type": "bytes32"
        },
        {
          "internalType": "address",
          "name": "_from",
          "type": "address"
        },
        {
          "internalType": "address",
          "name": "_to",
          "type": "address"
        },
        {
          "internalType": "uint256",
          "name": "_amount",
          "type": "uint256"
        }
      ],
      "name": "transferFrom",
      "outputs": [
        {
          "internalType": "uint256",
          "name": "untransferredAmount",
          "type": "uint256"
        }
      ],
      "stateMutability": "nonpayable",
      "type": "function"
    },
    {
      "inputs": [
        {
          "internalType": "address",
          "name": "newOwner",
          "type": "address"
        }
      ],
      "name": "transferOwnership",
      "outputs": [],
      "stateMutability": "nonpayable",
      "type": "function"
    },
    {
      "inputs": [],
      "name": "unpauseVault",
      "outputs": [],
      "stateMutability": "nonpayable",
      "type": "function"
    },
    {
      "inputs": [
        {
          "internalType": "bytes32",
          "name": "_ccy",
          "type": "bytes32"
        },
        {
          "internalType": "bool",
          "name": "_isCollateral",
          "type": "bool"
        }
      ],
      "name": "updateCurrency",
      "outputs": [],
      "stateMutability": "nonpayable",
      "type": "function"
    },
    {
      "inputs": [
        {
          "internalType": "uint256",
          "name": "_liquidationThresholdRate",
          "type": "uint256"
        },
        {
          "internalType": "uint256",
          "name": "_liquidationProtocolFeeRate",
          "type": "uint256"
        },
        {
          "internalType": "uint256",
          "name": "_liquidatorFeeRate",
          "type": "uint256"
        }
      ],
      "name": "updateLiquidationConfiguration",
      "outputs": [],
      "stateMutability": "nonpayable",
      "type": "function"
    },
    {
      "inputs": [
        {
          "internalType": "bytes32",
          "name": "_ccy",
          "type": "bytes32"
        },
        {
          "internalType": "uint256",
          "name": "_amount",
          "type": "uint256"
        }
      ],
      "name": "withdraw",
      "outputs": [],
      "stateMutability": "nonpayable",
      "type": "function"
    },
    {
      "stateMutability": "payable",
      "type": "receive"
    }
  ],
  "transactionHash": "0x2b8f6689ca6ffcba9809d91901712d1dd448aeebd3fc85b07903bff651fd36ae",
  "args": [],
  "numDeployments": 2,
  "solcInputHash": "1399b139f3dcd64cfe268917bffdbfb5",
  "bytecode": "0x608060405234801561001057600080fd5b506131a7806100206000396000f3fe6080604052600436106102495760003560e01c8063590472001161013957806396994e37116100b6578063d5e190d01161007a578063d5e190d014610721578063e099765914610736578063ed6dd5141461074b578063f2fde38b14610760578063fb7bd3b414610780578063fc700810146107a057600080fd5b806396994e37146106995780639e0879c2146106ac578063b12e4410146106c1578063b1a5d12d146106e1578063ca4230311461070157600080fd5b80637d044b43116100fd5780637d044b43146106045780637d44828e146106245780638da5cb5b146106445780638e19aff314610659578063948060dd1461067957600080fd5b806359047200146105555780635bffeb661461058a5780635c975abb146105aa5780635d95df8a146105cf578063715018a6146105ef57600080fd5b806329985e5a116101c75780634ba0c9b51161018b5780634ba0c9b51461049a5780634c6aa99c146104ba578063500d2f6d146104da5780635257ed67146104fa57806354821c211461053557600080fd5b806329985e5a146104015780632af64bd31461041657806330312daa1461042b5780633d03b9da1461044b5780633f90a08e1461046d57600080fd5b80630cf7505d1161020e5780630cf7505d1461035e5780630cfe33fa1461038e5780630eadd244146103ae5780631de26e16146103ce57806325e1f09f146103e157600080fd5b8062fcf262146102945780630253cd7e146102ce578063040cf020146102fc57806304f3bcec1461031c5780630b7562be1461034957600080fd5b3661028f57600080516020613152833981519152546001600160a01b0316331461028d5760405163efd4e4e160e01b81523360048201526024015b60405180910390fd5b005b600080fd5b3480156102a057600080fd5b506102b46102af3660046129e5565b6107c0565b604080519283526020830191909152015b60405180910390f35b3480156102da57600080fd5b506102ee6102e9366004612a13565b61084e565b6040519081526020016102c5565b34801561030857600080fd5b5061028d610317366004612a3f565b6108ed565b34801561032857600080fd5b5061033161092c565b6040516001600160a01b0390911681526020016102c5565b34801561035557600080fd5b5061028d61094d565b34801561036a57600080fd5b5061037e6103793660046129e5565b610986565b60405190151581526020016102c5565b34801561039a57600080fd5b506102ee6103a9366004612a61565b6109b4565b3480156103ba57600080fd5b506102ee6103c9366004612a85565b610a6c565b61028d6103dc366004612a3f565b610ab6565b3480156103ed57600080fd5b5061037e6103fc366004612a61565b610af0565b34801561040d57600080fd5b5061028d610b7e565b34801561042257600080fd5b5061037e610d2b565b34801561043757600080fd5b5061028d610446366004612ab5565b610e91565b34801561045757600080fd5b50610460610ecb565b6040516102c59190612ae1565b34801561047957600080fd5b5061048d610488366004612b25565b610f8d565b6040516102c59190612b9a565b3480156104a657600080fd5b5061028d6104b5366004612bd4565b61103d565b3480156104c657600080fd5b506102ee6104d53660046129e5565b611103565b3480156104e657600080fd5b506102ee6104f5366004612c09565b611121565b34801561050657600080fd5b5061051a610515366004612bd4565b61126f565b604080519384526020840192909252908201526060016102c5565b34801561054157600080fd5b506102ee610550366004612a61565b61130e565b34801561056157600080fd5b50610575610570366004612cc1565b6113a6565b604080519283529015156020830152016102c5565b34801561059657600080fd5b5061028d6105a5366004612d5a565b611484565b3480156105b657600080fd5b506000805160206131328339815191525460ff1661037e565b3480156105db57600080fd5b5061037e6105ea3660046129e5565b6115fe565b3480156105fb57600080fd5b5061028d611615565b34801561061057600080fd5b506102ee61061f366004612a13565b61164e565b34801561063057600080fd5b506102ee61063f366004612a13565b61172f565b34801561065057600080fd5b506103316117ce565b34801561066557600080fd5b5061028d610674366004612d9c565b6117f6565b34801561068557600080fd5b506102ee610694366004612a61565b6118b2565b61028d6106a7366004612bd4565b611941565b3480156106b857600080fd5b5061028d61197a565b3480156106cd57600080fd5b506103316106dc3660046129e5565b6119b1565b3480156106ed57600080fd5b5061028d6106fc366004612dc1565b6119d8565b34801561070d57600080fd5b506102ee61071c366004612a61565b611b7a565b34801561072d57600080fd5b50610460611bbd565b34801561074257600080fd5b50610460611bd7565b34801561075757600080fd5b5061051a611c53565b34801561076c57600080fd5b5061028d61077b366004612a61565b611c84565b34801561078c57600080fd5b5061028d61079b366004612bd4565b611d24565b3480156107ac57600080fd5b506104606107bb366004612a61565b611db4565b604051627e793160e11b815260048101829052600090819073C9bF8443e399a2f03C542cBAFc79906d74eB5d849062fcf26290602401604080518083038186803b15801561080d57600080fd5b505af4158015610821573d6000803e3d6000fd5b505050506040513d601f19601f820116820180604052508101906108459190612e28565b91509150915091565b604051630129e6bf60e11b81526001600160a01b03831660048201526024810182905260009073C9bF8443e399a2f03C542cBAFc79906d74eB5d8490630253cd7e906044015b60206040518083038186803b1580156108ac57600080fd5b505af41580156108c0573d6000803e3d6000fd5b505050506040513d601f19601f820116820180604052508101906108e49190612e4c565b90505b92915050565b6108f5611e46565b816108ff81610986565b61091c57604051630f4a6ccd60e21b815260040160405180910390fd5b610927338484611e99565b505050565b60006000805160206131128339815191525b546001600160a01b0316919050565b336109566117ce565b6001600160a01b03161461097c5760405162461bcd60e51b815260040161028490612e65565b6109846120c0565b565b60008061099161211f565b60009384526005016020526040909220546001600160a01b031690911415919050565b6040516354821c2160e01b81526001600160a01b03821660048201526000908190819073C9bF8443e399a2f03C542cBAFc79906d74eB5d84906354821c219060240160806040518083038186803b158015610a0e57600080fd5b505af4158015610a22573d6000803e3d6000fd5b505050506040513d601f19601f82011682018060405250810190610a469190612e9a565b505091509150808211610a5a576000610a64565b610a648183612ee6565b949350505050565b6040516303ab749160e21b8152600481018390526001600160a01b038216602482015260009073C9bF8443e399a2f03C542cBAFc79906d74eB5d8490630eadd24490604401610894565b610abe611e46565b81610ac881610986565b610ae557604051630f4a6ccd60e21b815260040160405180910390fd5b610927338484612143565b6040516325e1f09f60e01b81526001600160a01b038216600482015260009073C9bF8443e399a2f03C542cBAFc79906d74eB5d84906325e1f09f9060240160206040518083038186803b158015610b4657600080fd5b505af4158015610b5a573d6000803e3d6000fd5b505050506040513d601f19601f820116820180604052508101906108e79190612efd565b6000610b88610ecb565b905060005b8151811015610d27576000828281518110610baa57610baa612f1a565b602002602001015190506000610bcb60008051602061311283398151915290565b54604080517f5265736f6c766572206d697373696e67207461726765743a200000000000000060208201526039808201869052825180830390910181526059820192839052636795dbcd60e01b9092526001600160a01b0390921691636795dbcd91610c3c91869190605d01612f7d565b60206040518083038186803b158015610c5457600080fd5b505afa158015610c68573d6000803e3d6000fd5b505050506040513d601f19601f82011682018060405250810190610c8c9190612f96565b60008381527f4abde63c3e81aefa5764b017968bc473e83e093d7e1a10247d19e0a3e4124019602090815260409182902080546001600160a01b0319166001600160a01b03851690811790915582518681529182015281519293507f88a93678a3692f6789d9546fc621bf7234b101ddb7d4fe479455112831b8aa68929081900390910190a150508080610d1f90612fb3565b915050610b8d565b5050565b600080610d36610ecb565b905060005b8151811015610e88576000828281518110610d5857610d58612f1a565b60200260200101519050610d7760008051602061311283398151915290565b600082815260019190910160205260409020546001600160a01b0316600080516020613112833981519152546040516321f8a72160e01b8152600481018490526001600160a01b03909116906321f8a7219060240160206040518083038186803b158015610de457600080fd5b505afa158015610df8573d6000803e3d6000fd5b505050506040513d601f19601f82011682018060405250810190610e1c9190612f96565b6001600160a01b0316141580610e66575060008181527f4abde63c3e81aefa5764b017968bc473e83e093d7e1a10247d19e0a3e412401960205260409020546001600160a01b0316155b15610e75576000935050505090565b5080610e8081612fb3565b915050610d3b565b50600191505090565b33610e9a6117ce565b6001600160a01b031614610ec05760405162461bcd60e51b815260040161028490612e65565b6109278383836122fe565b604080516003808252608082019092526060916020820183803683370190505090507121bab93932b731bca1b7b73a3937b63632b960711b81600081518110610f1657610f16612f1a565b602002602001018181525050762632b73234b733a6b0b935b2ba21b7b73a3937b63632b960491b81600181518110610f5057610f50612f1a565b6020026020010181815250506a14995cd95c9d99519d5b9960aa1b81600281518110610f7e57610f7e612f1a565b60200260200101818152505090565b6060818067ffffffffffffffff811115610fa957610fa9612c51565b604051908082528060200260200182016040528015610fd2578160200160208202803683370190505b50915060005b8181101561103557611001858583818110610ff557610ff5612f1a565b905060200201356115fe565b83828151811061101357611013612f1a565b911515602092830291909101909101528061102d81612fb3565b915050610fd8565b505092915050565b611045611e46565b61104e33612481565b61106b576040516330de277560e21b815260040160405180910390fd5b8161107581610986565b61109257604051630f4a6ccd60e21b815260040160405180910390fd5b604051634ba0c9b560e01b815273C9bF8443e399a2f03C542cBAFc79906d74eB5d8490634ba0c9b5906110cd90879087908790600401612fce565b60006040518083038186803b1580156110e557600080fd5b505af41580156110f9573d6000803e3d6000fd5b5050505050505050565b600061110d61211f565b600092835260070160205250604090205490565b600061112b611e46565b61113433612481565b611151576040516330de277560e21b815260040160405180910390fd5b8461115b81610986565b61117857604051630f4a6ccd60e21b815260040160405180910390fd5b60405163500d2f6d60e01b8152600481018790526001600160a01b038087166024830152851660448201526064810184905273C9bF8443e399a2f03C542cBAFc79906d74eB5d849063500d2f6d9060840160206040518083038186803b1580156111e157600080fd5b505af41580156111f5573d6000803e3d6000fd5b505050506040513d601f19601f820116820180604052508101906112199190612e4c565b91506001600160a01b03808516908616877ff8ca259b4b82670be7501ff56ad1fc9c7cd199d3431e3c502f2c5f86884bc1506112558688612ee6565b60405190815260200160405180910390a450949350505050565b600080600073C9bF8443e399a2f03C542cBAFc79906d74eB5d84635257ed678787876040518463ffffffff1660e01b81526004016112af93929190612fce565b60606040518083038186803b1580156112c757600080fd5b505af41580156112db573d6000803e3d6000fd5b505050506040513d601f19601f820116820180604052508101906112ff9190612fef565b92509250925093509350939050565b6040516354821c2160e01b81526001600160a01b038216600482015260009073C9bF8443e399a2f03C542cBAFc79906d74eB5d84906354821c219060240160806040518083038186803b15801561136457600080fd5b505af4158015611378573d6000803e3d6000fd5b505050506040513d601f19601f8201168201806040525081019061139c9190612e9a565b5091949350505050565b60408051632910ae9d60e01b81526001600160a01b0384166004820152825160248201526020830151604482015290820151606482015260608201516084820152608082015160a482015260a082015160c482015260c082015160e4820152600090819073C9bF8443e399a2f03C542cBAFc79906d74eB5d8490632910ae9d9061010401604080518083038186803b15801561144157600080fd5b505af4158015611455573d6000803e3d6000fd5b505050506040513d601f19601f82011682018060405250810190611479919061301d565b915091509250929050565b3361148d6117ce565b6001600160a01b0316146114b35760405162461bcd60e51b815260040161028490612e65565b6114bb6124fb565b6001600160a01b0316631eae0893846040518263ffffffff1660e01b81526004016114e891815260200190565b60206040518083038186803b15801561150057600080fd5b505afa158015611514573d6000803e3d6000fd5b505050506040513d601f19601f820116820180604052508101906115389190612efd565b61155557604051631eb3268560e31b815260040160405180910390fd5b8161155e61211f565b60008581526005919091016020526040902080546001600160a01b0319166001600160a01b039290921691909117905580156115ab576115a9836115a061211f565b60030190612505565b505b604080518481526001600160a01b0384166020820152821515918101919091527ff776c30df345d55df252bb5181a0c2bb23d601166606790a6f1b938d7e158503906060015b60405180910390a1505050565b60006108e78261160c61211f565b60030190612511565b3361161e6117ce565b6001600160a01b0316146116445760405162461bcd60e51b815260040161028490612e65565b6109846000612529565b600061165933612481565b611676576040516330de277560e21b815260040160405180910390fd5b8161168081610986565b61169d57604051630f4a6ccd60e21b815260040160405180910390fd5b604051637d044b4360e01b81526001600160a01b03851660048201526024810184905273C9bF8443e399a2f03C542cBAFc79906d74eB5d8490637d044b439060440160206040518083038186803b1580156116f757600080fd5b505af415801561170b573d6000803e3d6000fd5b505050506040513d601f19601f82011682018060405250810190610a649190612e4c565b604051633ea2414760e11b81526001600160a01b03831660048201526024810182905260009073C9bF8443e399a2f03C542cBAFc79906d74eB5d8490637d44828e9060440160606040518083038186803b15801561178c57600080fd5b505af41580156117a0573d6000803e3d6000fd5b505050506040513d601f19601f820116820180604052508101906117c49190612fef565b5090949350505050565b60007f9acda75aebd150dd434541a4747a6dc606f4f1a59662477e67daf1fc0bf9e0aa61093e565b336117ff6117ce565b6001600160a01b0316146118255760405162461bcd60e51b815260040161028490612e65565b8161182f81610986565b61184c57604051630f4a6ccd60e21b815260040160405180910390fd5b81156118645761185e836115a061211f565b5061187b565b6118798361187061211f565b6003019061259a565b505b6040805184815283151560208201527f97caf2b3b2f0aa460ca08b20c07f7a43ccf688e2f3b7179f2cf9113fb892bf8191016115f1565b60405163948060dd60e01b81526001600160a01b038216600482015260009073C9bF8443e399a2f03C542cBAFc79906d74eB5d849063948060dd906024015b60206040518083038186803b15801561190957600080fd5b505af415801561191d573d6000803e3d6000fd5b505050506040513d601f19601f820116820180604052508101906108e79190612e4c565b611949611e46565b61195233612481565b61196f576040516330de277560e21b815260040160405180910390fd5b610927838383612143565b336119836117ce565b6001600160a01b0316146119a95760405162461bcd60e51b815260040161028490612e65565b6109846125a6565b60006119bb61211f565b60009283526005016020525060409020546001600160a01b031690565b600054610100900460ff16158080156119f85750600054600160ff909116105b80611a125750303b158015611a12575060005460ff166001145b611a755760405162461bcd60e51b815260206004820152602e60248201527f496e697469616c697a61626c653a20636f6e747261637420697320616c72656160448201526d191e481a5b9a5d1a585b1a5e995960921b6064820152608401610284565b6000805460ff191660011790558015611a98576000805461ff0019166101001790555b6000611aa26125ef565b6001600160a01b03161415611b045760405162461bcd60e51b815260206004820152602260248201527f4d7573742062652063616c6c65642066726f6d2070726f787920636f6e74726160448201526118dd60f21b6064820152608401610284565b611b0d87612529565b611b1686612617565b611b1f82612680565b611b2b87868686612707565b8015611b71576000805461ff0019169055604051600181527f7f26b83ff96e1f2b6a682f133852f6798a09c465da95921460cefb38474024989060200160405180910390a15b50505050505050565b60405163ca42303160e01b81526001600160a01b038216600482015260009073C9bF8443e399a2f03C542cBAFc79906d74eB5d849063ca423031906024016118f1565b6060611bd2611bca61211f565b600301612721565b905090565b6040805160028082526060808301845292602083019080368337019050509050762632b73234b733a6b0b935b2ba21b7b73a3937b63632b960491b81600081518110611c2557611c25612f1a565b6020026020010181815250506a14995cd95c9d99519d5b9960aa1b81600181518110610f7e57610f7e612f1a565b6000806000611c6061211f565b549250611c6b61211f565b600101549150611c7961211f565b600201549050909192565b33611c8d6117ce565b6001600160a01b031614611cb35760405162461bcd60e51b815260040161028490612e65565b6001600160a01b038116611d185760405162461bcd60e51b815260206004820152602660248201527f4f776e61626c653a206e6577206f776e657220697320746865207a65726f206160448201526564647265737360d01b6064820152608401610284565b611d2181612529565b50565b611d2c611e46565b611d3533612481565b611d52576040516330de277560e21b815260040160405180910390fd5b81611d5c81610986565b611d7957604051630f4a6ccd60e21b815260040160405180910390fd5b604051633edef4ed60e21b815273C9bF8443e399a2f03C542cBAFc79906d74eB5d849063fb7bd3b4906110cd90879087908790600401612fce565b604051630fc7008160e41b81526001600160a01b038216600482015260609073C9bF8443e399a2f03C542cBAFc79906d74eB5d849063fc7008109060240160006040518083038186803b158015611e0a57600080fd5b505af4158015611e1e573d6000803e3d6000fd5b505050506040513d6000823e601f3d908101601f191682016040526108e79190810190613042565b6000805160206131328339815191525460ff16156109845760405162461bcd60e51b815260206004820152601060248201526f14185d5cd8589b194e881c185d5cd95960821b6044820152606401610284565b80611eb75760405163162908e360e11b815260040160405180910390fd5b611ebf61272c565b60405163862fd6e560e01b81526001600160a01b038581166004830152919091169063862fd6e59060240160206040518083038186803b158015611f0257600080fd5b505afa158015611f16573d6000803e3d6000fd5b505050506040513d601f19601f82011682018060405250810190611f3a9190612efd565b15611f5857604051631f6d627d60e11b815260040160405180910390fd5b611f6061272c565b604051639519832b60e01b8152600481018490526001600160a01b0385811660248301529190911690639519832b90604401602060405180830381600087803b158015611fac57600080fd5b505af1158015611fc0573d6000803e3d6000fd5b505050506040513d601f19601f82011682018060405250810190611fe49190612e4c565b5060405163148b8b9d60e11b815260009073C9bF8443e399a2f03C542cBAFc79906d74eB5d8490632917173a9061202390879087908790600401612fce565b60206040518083038186803b15801561203b57600080fd5b505af415801561204f573d6000803e3d6000fd5b505050506040513d601f19601f820116820180604052508101906120739190612e4c565b60408051858152602081018390529192506001600160a01b038616917fc3ded2be7db21b1af963f267d27750e4a15f174547d88b886b9bda43e2c6fa32910160405180910390a250505050565b6120c8612736565b600080516020613132833981519152805460ff191690557f5db9ee0a495bf2e6ff9c91a7834c1ba4fdd244a5e8aa4e537bd38aeae4b073aa335b6040516001600160a01b03909116815260200160405180910390a1565b7f53832330c92cb5d80f0e1ff6fdb9886f7fad39132543bafb7497316eae2a831790565b801580612196575061218a61215661211f565b60008481526005919091016020526040902054600080516020613152833981519152546001600160a01b0390811691161490565b80156121965750348114155b156121b45760405163162908e360e11b815260040160405180910390fd5b6121bc61272c565b6001600160a01b031663d1cc99766040518163ffffffff1660e01b815260040160206040518083038186803b1580156121f457600080fd5b505afa158015612208573d6000803e3d6000fd5b505050506040513d601f19601f8201168201806040525081019061222c9190612efd565b1561224a576040516319a90b2f60e21b815260040160405180910390fd5b604051631d64487f60e31b815273C9bF8443e399a2f03C542cBAFc79906d74eB5d849063eb2243f89061228590869086908690600401612fce565b60006040518083038186803b15801561229d57600080fd5b505af41580156122b1573d6000803e3d6000fd5b505060408051858152602081018590526001600160a01b03871693507f19dacbf83c5de6658e14cbf7bcae5c15eca2eedecf1c66fbca928e4d351bea0f92500160405180910390a2505050565b8261231c57604051630821f57960e31b815260040160405180910390fd5b61271082111561233f576040516370a4af3d60e01b815260040160405180910390fd5b61271081111561236257604051631da7276f60e01b815260040160405180910390fd5b61236a61211f565b5483146123bd577fd3353684d64f1c80498433d8407c96e6bbeb1ec88b6200ec97d2c910fdbd0da461239a61211f565b5460408051918252602082018690520160405180910390a1826123bb61211f565b555b6123c561211f565b600101548214612421577f651b17c8e9402610e6210cfaa5b252d2186f8a16adf58c9c0fd5793bc4ea9b1f6123f861211f565b6001015460408051918252602082018590520160405180910390a18161241c61211f565b600101555b61242961211f565b600201548114610927578061243c61211f565b600201557f7e8f030f9238551b066874b952f0c6ba811ba426ab231ba4825421d5d8f5cd9561246961211f565b600201546040805191825260208201849052016115f1565b60008061248c611bd7565b905060005b81518110156124f1576124bc8282815181106124af576124af612f1a565b602002602001015161278c565b6001600160a01b0316846001600160a01b031614156124df575060019392505050565b806124e981612fb3565b915050612491565b5060009392505050565b6000611bd2612797565b60006108e483836127b7565b600081815260018301602052604081205415156108e4565b7f9acda75aebd150dd434541a4747a6dc606f4f1a59662477e67daf1fc0bf9e0aa80546001600160a01b038381166001600160a01b0319831681179093556040519116919082907f8be0079c531659141344cd1fd0a4f28419497f9722a3daafe3b4186f6b6457e090600090a35050565b60006108e48383612806565b6125ae611e46565b600080516020613132833981519152805460ff191660011790557f62e78cea01bee320cd4e420270b5ea74000d11b0c9f74754ebdbfc544b05a25833612102565b60007f360894a13ba1a3210667c828492db98dca3e2076cc3735a920a3ca505d382bbc61093e565b600080516020613112833981519152546001600160a01b03161561264e576040516304b79d6360e51b815260040160405180910390fd5b806000805160206131128339815191525b80546001600160a01b0319166001600160a01b039290921691909117905550565b600080516020613152833981519152546001600160a01b0316156126f25760405162461bcd60e51b815260206004820152602360248201527f5472616e7366657248656c7065723a20416c726561647920696e697469616c696044820152621e995960ea1b6064820152608401610284565b8060008051602061315283398151915261265f565b61271084612529565b61271b8383836122fe565b50505050565b60606108e7826128f9565b6000611bd2612955565b6000805160206131328339815191525460ff166109845760405162461bcd60e51b815260206004820152601460248201527314185d5cd8589b194e881b9bdd081c185d5cd95960621b6044820152606401610284565b60006108e782612976565b6000611bd27121bab93932b731bca1b7b73a3937b63632b960711b612976565b60008181526001830160205260408120546127fe575081546001818101845560008481526020808220909301849055845484825282860190935260409020919091556108e7565b5060006108e7565b600081815260018301602052604081205480156128ef57600061282a600183612ee6565b855490915060009061283e90600190612ee6565b90508181146128a357600086600001828154811061285e5761285e612f1a565b906000526020600020015490508087600001848154811061288157612881612f1a565b6000918252602080832090910192909255918252600188019052604090208390555b85548690806128b4576128b46130e8565b6001900381819060005260206000200160009055905585600101600086815260200190815260200160002060009055600193505050506108e7565b60009150506108e7565b60608160000180548060200260200160405190810160405280929190818152602001828054801561294957602002820191906000526020600020905b815481526020019060010190808311612935575b50505050509050919050565b6000611bd2762632b73234b733a6b0b935b2ba21b7b73a3937b63632b960491b5b60008181527f4abde63c3e81aefa5764b017968bc473e83e093d7e1a10247d19e0a3e412401960205260408120546001600160a01b0316806108e75760408051602081018590520160408051601f19818403018152908290526346e2ec9360e01b8252610284916004016130fe565b6000602082840312156129f757600080fd5b5035919050565b6001600160a01b0381168114611d2157600080fd5b60008060408385031215612a2657600080fd5b8235612a31816129fe565b946020939093013593505050565b60008060408385031215612a5257600080fd5b50508035926020909101359150565b600060208284031215612a7357600080fd5b8135612a7e816129fe565b9392505050565b60008060408385031215612a9857600080fd5b823591506020830135612aaa816129fe565b809150509250929050565b600080600060608486031215612aca57600080fd5b505081359360208301359350604090920135919050565b6020808252825182820181905260009190848201906040850190845b81811015612b1957835183529284019291840191600101612afd565b50909695505050505050565b60008060208385031215612b3857600080fd5b823567ffffffffffffffff80821115612b5057600080fd5b818501915085601f830112612b6457600080fd5b813581811115612b7357600080fd5b8660208260051b8501011115612b8857600080fd5b60209290920196919550909350505050565b6020808252825182820181905260009190848201906040850190845b81811015612b19578351151583529284019291840191600101612bb6565b600080600060608486031215612be957600080fd5b8335612bf4816129fe565b95602085013595506040909401359392505050565b60008060008060808587031215612c1f57600080fd5b843593506020850135612c31816129fe565b92506040850135612c41816129fe565b9396929550929360600135925050565b634e487b7160e01b600052604160045260246000fd5b60405160e0810167ffffffffffffffff81118282101715612c8a57612c8a612c51565b60405290565b604051601f8201601f1916810167ffffffffffffffff81118282101715612cb957612cb9612c51565b604052919050565b600080828403610100811215612cd657600080fd5b8335612ce1816129fe565b925060e0601f1982011215612cf557600080fd5b50612cfe612c67565b6020840135815260408401356020820152606084013560408201526080840135606082015260a0840135608082015260c084013560a082015260e084013560c0820152809150509250929050565b8015158114611d2157600080fd5b600080600060608486031215612d6f57600080fd5b833592506020840135612d81816129fe565b91506040840135612d9181612d4c565b809150509250925092565b60008060408385031215612daf57600080fd5b823591506020830135612aaa81612d4c565b60008060008060008060c08789031215612dda57600080fd5b8635612de5816129fe565b95506020870135612df5816129fe565b945060408701359350606087013592506080870135915060a0870135612e1a816129fe565b809150509295509295509295565b60008060408385031215612e3b57600080fd5b505080516020909101519092909150565b600060208284031215612e5e57600080fd5b5051919050565b6020808252818101527f4f776e61626c653a2063616c6c6572206973206e6f7420746865206f776e6572604082015260600190565b60008060008060808587031215612eb057600080fd5b505082516020840151604085015160609095015191969095509092509050565b634e487b7160e01b600052601160045260246000fd5b600082821015612ef857612ef8612ed0565b500390565b600060208284031215612f0f57600080fd5b8151612a7e81612d4c565b634e487b7160e01b600052603260045260246000fd5b6000815180845260005b81811015612f5657602081850181015186830182015201612f3a565b81811115612f68576000602083870101525b50601f01601f19169290920160200192915050565b828152604060208201526000610a646040830184612f30565b600060208284031215612fa857600080fd5b8151612a7e816129fe565b6000600019821415612fc757612fc7612ed0565b5060010190565b6001600160a01b039390931683526020830191909152604082015260600190565b60008060006060848603121561300457600080fd5b8351925060208401519150604084015190509250925092565b6000806040838503121561303057600080fd5b825191506020830151612aaa81612d4c565b6000602080838503121561305557600080fd5b825167ffffffffffffffff8082111561306d57600080fd5b818501915085601f83011261308157600080fd5b81518181111561309357613093612c51565b8060051b91506130a4848301612c90565b81815291830184019184810190888411156130be57600080fd5b938501935b838510156130dc578451825293850193908501906130c3565b98975050505050505050565b634e487b7160e01b600052603160045260246000fd5b6020815260006108e46020830184612f3056fe4abde63c3e81aefa5764b017968bc473e83e093d7e1a10247d19e0a3e41240189c789132bdb3678132848a8dcd780bffd2b1abdce3984c522ac1d8aeb48f05f36f969d660e14559aec53d066903ba87981d0679d31bf1d3793a220e70e02808ba2646970667358221220d4c0432b847d75aa89ca0fd53c14589112128c4cec91558b1069c3f16a80302864736f6c63430008090033",
  "deployedBytecode": "0x6080604052600436106102495760003560e01c8063590472001161013957806396994e37116100b6578063d5e190d01161007a578063d5e190d014610721578063e099765914610736578063ed6dd5141461074b578063f2fde38b14610760578063fb7bd3b414610780578063fc700810146107a057600080fd5b806396994e37146106995780639e0879c2146106ac578063b12e4410146106c1578063b1a5d12d146106e1578063ca4230311461070157600080fd5b80637d044b43116100fd5780637d044b43146106045780637d44828e146106245780638da5cb5b146106445780638e19aff314610659578063948060dd1461067957600080fd5b806359047200146105555780635bffeb661461058a5780635c975abb146105aa5780635d95df8a146105cf578063715018a6146105ef57600080fd5b806329985e5a116101c75780634ba0c9b51161018b5780634ba0c9b51461049a5780634c6aa99c146104ba578063500d2f6d146104da5780635257ed67146104fa57806354821c211461053557600080fd5b806329985e5a146104015780632af64bd31461041657806330312daa1461042b5780633d03b9da1461044b5780633f90a08e1461046d57600080fd5b80630cf7505d1161020e5780630cf7505d1461035e5780630cfe33fa1461038e5780630eadd244146103ae5780631de26e16146103ce57806325e1f09f146103e157600080fd5b8062fcf262146102945780630253cd7e146102ce578063040cf020146102fc57806304f3bcec1461031c5780630b7562be1461034957600080fd5b3661028f57600080516020613152833981519152546001600160a01b0316331461028d5760405163efd4e4e160e01b81523360048201526024015b60405180910390fd5b005b600080fd5b3480156102a057600080fd5b506102b46102af3660046129e5565b6107c0565b604080519283526020830191909152015b60405180910390f35b3480156102da57600080fd5b506102ee6102e9366004612a13565b61084e565b6040519081526020016102c5565b34801561030857600080fd5b5061028d610317366004612a3f565b6108ed565b34801561032857600080fd5b5061033161092c565b6040516001600160a01b0390911681526020016102c5565b34801561035557600080fd5b5061028d61094d565b34801561036a57600080fd5b5061037e6103793660046129e5565b610986565b60405190151581526020016102c5565b34801561039a57600080fd5b506102ee6103a9366004612a61565b6109b4565b3480156103ba57600080fd5b506102ee6103c9366004612a85565b610a6c565b61028d6103dc366004612a3f565b610ab6565b3480156103ed57600080fd5b5061037e6103fc366004612a61565b610af0565b34801561040d57600080fd5b5061028d610b7e565b34801561042257600080fd5b5061037e610d2b565b34801561043757600080fd5b5061028d610446366004612ab5565b610e91565b34801561045757600080fd5b50610460610ecb565b6040516102c59190612ae1565b34801561047957600080fd5b5061048d610488366004612b25565b610f8d565b6040516102c59190612b9a565b3480156104a657600080fd5b5061028d6104b5366004612bd4565b61103d565b3480156104c657600080fd5b506102ee6104d53660046129e5565b611103565b3480156104e657600080fd5b506102ee6104f5366004612c09565b611121565b34801561050657600080fd5b5061051a610515366004612bd4565b61126f565b604080519384526020840192909252908201526060016102c5565b34801561054157600080fd5b506102ee610550366004612a61565b61130e565b34801561056157600080fd5b50610575610570366004612cc1565b6113a6565b604080519283529015156020830152016102c5565b34801561059657600080fd5b5061028d6105a5366004612d5a565b611484565b3480156105b657600080fd5b506000805160206131328339815191525460ff1661037e565b3480156105db57600080fd5b5061037e6105ea3660046129e5565b6115fe565b3480156105fb57600080fd5b5061028d611615565b34801561061057600080fd5b506102ee61061f366004612a13565b61164e565b34801561063057600080fd5b506102ee61063f366004612a13565b61172f565b34801561065057600080fd5b506103316117ce565b34801561066557600080fd5b5061028d610674366004612d9c565b6117f6565b34801561068557600080fd5b506102ee610694366004612a61565b6118b2565b61028d6106a7366004612bd4565b611941565b3480156106b857600080fd5b5061028d61197a565b3480156106cd57600080fd5b506103316106dc3660046129e5565b6119b1565b3480156106ed57600080fd5b5061028d6106fc366004612dc1565b6119d8565b34801561070d57600080fd5b506102ee61071c366004612a61565b611b7a565b34801561072d57600080fd5b50610460611bbd565b34801561074257600080fd5b50610460611bd7565b34801561075757600080fd5b5061051a611c53565b34801561076c57600080fd5b5061028d61077b366004612a61565b611c84565b34801561078c57600080fd5b5061028d61079b366004612bd4565b611d24565b3480156107ac57600080fd5b506104606107bb366004612a61565b611db4565b604051627e793160e11b815260048101829052600090819073__$e77f6d4722b46e0b0a57517726dbfd997e$__9062fcf26290602401604080518083038186803b15801561080d57600080fd5b505af4158015610821573d6000803e3d6000fd5b505050506040513d601f19601f820116820180604052508101906108459190612e28565b91509150915091565b604051630129e6bf60e11b81526001600160a01b03831660048201526024810182905260009073__$e77f6d4722b46e0b0a57517726dbfd997e$__90630253cd7e906044015b60206040518083038186803b1580156108ac57600080fd5b505af41580156108c0573d6000803e3d6000fd5b505050506040513d601f19601f820116820180604052508101906108e49190612e4c565b90505b92915050565b6108f5611e46565b816108ff81610986565b61091c57604051630f4a6ccd60e21b815260040160405180910390fd5b610927338484611e99565b505050565b60006000805160206131128339815191525b546001600160a01b0316919050565b336109566117ce565b6001600160a01b03161461097c5760405162461bcd60e51b815260040161028490612e65565b6109846120c0565b565b60008061099161211f565b60009384526005016020526040909220546001600160a01b031690911415919050565b6040516354821c2160e01b81526001600160a01b03821660048201526000908190819073__$e77f6d4722b46e0b0a57517726dbfd997e$__906354821c219060240160806040518083038186803b158015610a0e57600080fd5b505af4158015610a22573d6000803e3d6000fd5b505050506040513d601f19601f82011682018060405250810190610a469190612e9a565b505091509150808211610a5a576000610a64565b610a648183612ee6565b949350505050565b6040516303ab749160e21b8152600481018390526001600160a01b038216602482015260009073__$e77f6d4722b46e0b0a57517726dbfd997e$__90630eadd24490604401610894565b610abe611e46565b81610ac881610986565b610ae557604051630f4a6ccd60e21b815260040160405180910390fd5b610927338484612143565b6040516325e1f09f60e01b81526001600160a01b038216600482015260009073__$e77f6d4722b46e0b0a57517726dbfd997e$__906325e1f09f9060240160206040518083038186803b158015610b4657600080fd5b505af4158015610b5a573d6000803e3d6000fd5b505050506040513d601f19601f820116820180604052508101906108e79190612efd565b6000610b88610ecb565b905060005b8151811015610d27576000828281518110610baa57610baa612f1a565b602002602001015190506000610bcb60008051602061311283398151915290565b54604080517f5265736f6c766572206d697373696e67207461726765743a200000000000000060208201526039808201869052825180830390910181526059820192839052636795dbcd60e01b9092526001600160a01b0390921691636795dbcd91610c3c91869190605d01612f7d565b60206040518083038186803b158015610c5457600080fd5b505afa158015610c68573d6000803e3d6000fd5b505050506040513d601f19601f82011682018060405250810190610c8c9190612f96565b60008381527f4abde63c3e81aefa5764b017968bc473e83e093d7e1a10247d19e0a3e4124019602090815260409182902080546001600160a01b0319166001600160a01b03851690811790915582518681529182015281519293507f88a93678a3692f6789d9546fc621bf7234b101ddb7d4fe479455112831b8aa68929081900390910190a150508080610d1f90612fb3565b915050610b8d565b5050565b600080610d36610ecb565b905060005b8151811015610e88576000828281518110610d5857610d58612f1a565b60200260200101519050610d7760008051602061311283398151915290565b600082815260019190910160205260409020546001600160a01b0316600080516020613112833981519152546040516321f8a72160e01b8152600481018490526001600160a01b03909116906321f8a7219060240160206040518083038186803b158015610de457600080fd5b505afa158015610df8573d6000803e3d6000fd5b505050506040513d601f19601f82011682018060405250810190610e1c9190612f96565b6001600160a01b0316141580610e66575060008181527f4abde63c3e81aefa5764b017968bc473e83e093d7e1a10247d19e0a3e412401960205260409020546001600160a01b0316155b15610e75576000935050505090565b5080610e8081612fb3565b915050610d3b565b50600191505090565b33610e9a6117ce565b6001600160a01b031614610ec05760405162461bcd60e51b815260040161028490612e65565b6109278383836122fe565b604080516003808252608082019092526060916020820183803683370190505090507121bab93932b731bca1b7b73a3937b63632b960711b81600081518110610f1657610f16612f1a565b602002602001018181525050762632b73234b733a6b0b935b2ba21b7b73a3937b63632b960491b81600181518110610f5057610f50612f1a565b6020026020010181815250506a14995cd95c9d99519d5b9960aa1b81600281518110610f7e57610f7e612f1a565b60200260200101818152505090565b6060818067ffffffffffffffff811115610fa957610fa9612c51565b604051908082528060200260200182016040528015610fd2578160200160208202803683370190505b50915060005b8181101561103557611001858583818110610ff557610ff5612f1a565b905060200201356115fe565b83828151811061101357611013612f1a565b911515602092830291909101909101528061102d81612fb3565b915050610fd8565b505092915050565b611045611e46565b61104e33612481565b61106b576040516330de277560e21b815260040160405180910390fd5b8161107581610986565b61109257604051630f4a6ccd60e21b815260040160405180910390fd5b604051634ba0c9b560e01b815273__$e77f6d4722b46e0b0a57517726dbfd997e$__90634ba0c9b5906110cd90879087908790600401612fce565b60006040518083038186803b1580156110e557600080fd5b505af41580156110f9573d6000803e3d6000fd5b5050505050505050565b600061110d61211f565b600092835260070160205250604090205490565b600061112b611e46565b61113433612481565b611151576040516330de277560e21b815260040160405180910390fd5b8461115b81610986565b61117857604051630f4a6ccd60e21b815260040160405180910390fd5b60405163500d2f6d60e01b8152600481018790526001600160a01b038087166024830152851660448201526064810184905273__$e77f6d4722b46e0b0a57517726dbfd997e$__9063500d2f6d9060840160206040518083038186803b1580156111e157600080fd5b505af41580156111f5573d6000803e3d6000fd5b505050506040513d601f19601f820116820180604052508101906112199190612e4c565b91506001600160a01b03808516908616877ff8ca259b4b82670be7501ff56ad1fc9c7cd199d3431e3c502f2c5f86884bc1506112558688612ee6565b60405190815260200160405180910390a450949350505050565b600080600073__$e77f6d4722b46e0b0a57517726dbfd997e$__635257ed678787876040518463ffffffff1660e01b81526004016112af93929190612fce565b60606040518083038186803b1580156112c757600080fd5b505af41580156112db573d6000803e3d6000fd5b505050506040513d601f19601f820116820180604052508101906112ff9190612fef565b92509250925093509350939050565b6040516354821c2160e01b81526001600160a01b038216600482015260009073__$e77f6d4722b46e0b0a57517726dbfd997e$__906354821c219060240160806040518083038186803b15801561136457600080fd5b505af4158015611378573d6000803e3d6000fd5b505050506040513d601f19601f8201168201806040525081019061139c9190612e9a565b5091949350505050565b60408051632910ae9d60e01b81526001600160a01b0384166004820152825160248201526020830151604482015290820151606482015260608201516084820152608082015160a482015260a082015160c482015260c082015160e4820152600090819073__$e77f6d4722b46e0b0a57517726dbfd997e$__90632910ae9d9061010401604080518083038186803b15801561144157600080fd5b505af4158015611455573d6000803e3d6000fd5b505050506040513d601f19601f82011682018060405250810190611479919061301d565b915091509250929050565b3361148d6117ce565b6001600160a01b0316146114b35760405162461bcd60e51b815260040161028490612e65565b6114bb6124fb565b6001600160a01b0316631eae0893846040518263ffffffff1660e01b81526004016114e891815260200190565b60206040518083038186803b15801561150057600080fd5b505afa158015611514573d6000803e3d6000fd5b505050506040513d601f19601f820116820180604052508101906115389190612efd565b61155557604051631eb3268560e31b815260040160405180910390fd5b8161155e61211f565b60008581526005919091016020526040902080546001600160a01b0319166001600160a01b039290921691909117905580156115ab576115a9836115a061211f565b60030190612505565b505b604080518481526001600160a01b0384166020820152821515918101919091527ff776c30df345d55df252bb5181a0c2bb23d601166606790a6f1b938d7e158503906060015b60405180910390a1505050565b60006108e78261160c61211f565b60030190612511565b3361161e6117ce565b6001600160a01b0316146116445760405162461bcd60e51b815260040161028490612e65565b6109846000612529565b600061165933612481565b611676576040516330de277560e21b815260040160405180910390fd5b8161168081610986565b61169d57604051630f4a6ccd60e21b815260040160405180910390fd5b604051637d044b4360e01b81526001600160a01b03851660048201526024810184905273__$e77f6d4722b46e0b0a57517726dbfd997e$__90637d044b439060440160206040518083038186803b1580156116f757600080fd5b505af415801561170b573d6000803e3d6000fd5b505050506040513d601f19601f82011682018060405250810190610a649190612e4c565b604051633ea2414760e11b81526001600160a01b03831660048201526024810182905260009073__$e77f6d4722b46e0b0a57517726dbfd997e$__90637d44828e9060440160606040518083038186803b15801561178c57600080fd5b505af41580156117a0573d6000803e3d6000fd5b505050506040513d601f19601f820116820180604052508101906117c49190612fef565b5090949350505050565b60007f9acda75aebd150dd434541a4747a6dc606f4f1a59662477e67daf1fc0bf9e0aa61093e565b336117ff6117ce565b6001600160a01b0316146118255760405162461bcd60e51b815260040161028490612e65565b8161182f81610986565b61184c57604051630f4a6ccd60e21b815260040160405180910390fd5b81156118645761185e836115a061211f565b5061187b565b6118798361187061211f565b6003019061259a565b505b6040805184815283151560208201527f97caf2b3b2f0aa460ca08b20c07f7a43ccf688e2f3b7179f2cf9113fb892bf8191016115f1565b60405163948060dd60e01b81526001600160a01b038216600482015260009073__$e77f6d4722b46e0b0a57517726dbfd997e$__9063948060dd906024015b60206040518083038186803b15801561190957600080fd5b505af415801561191d573d6000803e3d6000fd5b505050506040513d601f19601f820116820180604052508101906108e79190612e4c565b611949611e46565b61195233612481565b61196f576040516330de277560e21b815260040160405180910390fd5b610927838383612143565b336119836117ce565b6001600160a01b0316146119a95760405162461bcd60e51b815260040161028490612e65565b6109846125a6565b60006119bb61211f565b60009283526005016020525060409020546001600160a01b031690565b600054610100900460ff16158080156119f85750600054600160ff909116105b80611a125750303b158015611a12575060005460ff166001145b611a755760405162461bcd60e51b815260206004820152602e60248201527f496e697469616c697a61626c653a20636f6e747261637420697320616c72656160448201526d191e481a5b9a5d1a585b1a5e995960921b6064820152608401610284565b6000805460ff191660011790558015611a98576000805461ff0019166101001790555b6000611aa26125ef565b6001600160a01b03161415611b045760405162461bcd60e51b815260206004820152602260248201527f4d7573742062652063616c6c65642066726f6d2070726f787920636f6e74726160448201526118dd60f21b6064820152608401610284565b611b0d87612529565b611b1686612617565b611b1f82612680565b611b2b87868686612707565b8015611b71576000805461ff0019169055604051600181527f7f26b83ff96e1f2b6a682f133852f6798a09c465da95921460cefb38474024989060200160405180910390a15b50505050505050565b60405163ca42303160e01b81526001600160a01b038216600482015260009073__$e77f6d4722b46e0b0a57517726dbfd997e$__9063ca423031906024016118f1565b6060611bd2611bca61211f565b600301612721565b905090565b6040805160028082526060808301845292602083019080368337019050509050762632b73234b733a6b0b935b2ba21b7b73a3937b63632b960491b81600081518110611c2557611c25612f1a565b6020026020010181815250506a14995cd95c9d99519d5b9960aa1b81600181518110610f7e57610f7e612f1a565b6000806000611c6061211f565b549250611c6b61211f565b600101549150611c7961211f565b600201549050909192565b33611c8d6117ce565b6001600160a01b031614611cb35760405162461bcd60e51b815260040161028490612e65565b6001600160a01b038116611d185760405162461bcd60e51b815260206004820152602660248201527f4f776e61626c653a206e6577206f776e657220697320746865207a65726f206160448201526564647265737360d01b6064820152608401610284565b611d2181612529565b50565b611d2c611e46565b611d3533612481565b611d52576040516330de277560e21b815260040160405180910390fd5b81611d5c81610986565b611d7957604051630f4a6ccd60e21b815260040160405180910390fd5b604051633edef4ed60e21b815273__$e77f6d4722b46e0b0a57517726dbfd997e$__9063fb7bd3b4906110cd90879087908790600401612fce565b604051630fc7008160e41b81526001600160a01b038216600482015260609073__$e77f6d4722b46e0b0a57517726dbfd997e$__9063fc7008109060240160006040518083038186803b158015611e0a57600080fd5b505af4158015611e1e573d6000803e3d6000fd5b505050506040513d6000823e601f3d908101601f191682016040526108e79190810190613042565b6000805160206131328339815191525460ff16156109845760405162461bcd60e51b815260206004820152601060248201526f14185d5cd8589b194e881c185d5cd95960821b6044820152606401610284565b80611eb75760405163162908e360e11b815260040160405180910390fd5b611ebf61272c565b60405163862fd6e560e01b81526001600160a01b038581166004830152919091169063862fd6e59060240160206040518083038186803b158015611f0257600080fd5b505afa158015611f16573d6000803e3d6000fd5b505050506040513d601f19601f82011682018060405250810190611f3a9190612efd565b15611f5857604051631f6d627d60e11b815260040160405180910390fd5b611f6061272c565b604051639519832b60e01b8152600481018490526001600160a01b0385811660248301529190911690639519832b90604401602060405180830381600087803b158015611fac57600080fd5b505af1158015611fc0573d6000803e3d6000fd5b505050506040513d601f19601f82011682018060405250810190611fe49190612e4c565b5060405163148b8b9d60e11b815260009073__$e77f6d4722b46e0b0a57517726dbfd997e$__90632917173a9061202390879087908790600401612fce565b60206040518083038186803b15801561203b57600080fd5b505af415801561204f573d6000803e3d6000fd5b505050506040513d601f19601f820116820180604052508101906120739190612e4c565b60408051858152602081018390529192506001600160a01b038616917fc3ded2be7db21b1af963f267d27750e4a15f174547d88b886b9bda43e2c6fa32910160405180910390a250505050565b6120c8612736565b600080516020613132833981519152805460ff191690557f5db9ee0a495bf2e6ff9c91a7834c1ba4fdd244a5e8aa4e537bd38aeae4b073aa335b6040516001600160a01b03909116815260200160405180910390a1565b7f53832330c92cb5d80f0e1ff6fdb9886f7fad39132543bafb7497316eae2a831790565b801580612196575061218a61215661211f565b60008481526005919091016020526040902054600080516020613152833981519152546001600160a01b0390811691161490565b80156121965750348114155b156121b45760405163162908e360e11b815260040160405180910390fd5b6121bc61272c565b6001600160a01b031663d1cc99766040518163ffffffff1660e01b815260040160206040518083038186803b1580156121f457600080fd5b505afa158015612208573d6000803e3d6000fd5b505050506040513d601f19601f8201168201806040525081019061222c9190612efd565b1561224a576040516319a90b2f60e21b815260040160405180910390fd5b604051631d64487f60e31b815273__$e77f6d4722b46e0b0a57517726dbfd997e$__9063eb2243f89061228590869086908690600401612fce565b60006040518083038186803b15801561229d57600080fd5b505af41580156122b1573d6000803e3d6000fd5b505060408051858152602081018590526001600160a01b03871693507f19dacbf83c5de6658e14cbf7bcae5c15eca2eedecf1c66fbca928e4d351bea0f92500160405180910390a2505050565b8261231c57604051630821f57960e31b815260040160405180910390fd5b61271082111561233f576040516370a4af3d60e01b815260040160405180910390fd5b61271081111561236257604051631da7276f60e01b815260040160405180910390fd5b61236a61211f565b5483146123bd577fd3353684d64f1c80498433d8407c96e6bbeb1ec88b6200ec97d2c910fdbd0da461239a61211f565b5460408051918252602082018690520160405180910390a1826123bb61211f565b555b6123c561211f565b600101548214612421577f651b17c8e9402610e6210cfaa5b252d2186f8a16adf58c9c0fd5793bc4ea9b1f6123f861211f565b6001015460408051918252602082018590520160405180910390a18161241c61211f565b600101555b61242961211f565b600201548114610927578061243c61211f565b600201557f7e8f030f9238551b066874b952f0c6ba811ba426ab231ba4825421d5d8f5cd9561246961211f565b600201546040805191825260208201849052016115f1565b60008061248c611bd7565b905060005b81518110156124f1576124bc8282815181106124af576124af612f1a565b602002602001015161278c565b6001600160a01b0316846001600160a01b031614156124df575060019392505050565b806124e981612fb3565b915050612491565b5060009392505050565b6000611bd2612797565b60006108e483836127b7565b600081815260018301602052604081205415156108e4565b7f9acda75aebd150dd434541a4747a6dc606f4f1a59662477e67daf1fc0bf9e0aa80546001600160a01b038381166001600160a01b0319831681179093556040519116919082907f8be0079c531659141344cd1fd0a4f28419497f9722a3daafe3b4186f6b6457e090600090a35050565b60006108e48383612806565b6125ae611e46565b600080516020613132833981519152805460ff191660011790557f62e78cea01bee320cd4e420270b5ea74000d11b0c9f74754ebdbfc544b05a25833612102565b60007f360894a13ba1a3210667c828492db98dca3e2076cc3735a920a3ca505d382bbc61093e565b600080516020613112833981519152546001600160a01b03161561264e576040516304b79d6360e51b815260040160405180910390fd5b806000805160206131128339815191525b80546001600160a01b0319166001600160a01b039290921691909117905550565b600080516020613152833981519152546001600160a01b0316156126f25760405162461bcd60e51b815260206004820152602360248201527f5472616e7366657248656c7065723a20416c726561647920696e697469616c696044820152621e995960ea1b6064820152608401610284565b8060008051602061315283398151915261265f565b61271084612529565b61271b8383836122fe565b50505050565b60606108e7826128f9565b6000611bd2612955565b6000805160206131328339815191525460ff166109845760405162461bcd60e51b815260206004820152601460248201527314185d5cd8589b194e881b9bdd081c185d5cd95960621b6044820152606401610284565b60006108e782612976565b6000611bd27121bab93932b731bca1b7b73a3937b63632b960711b612976565b60008181526001830160205260408120546127fe575081546001818101845560008481526020808220909301849055845484825282860190935260409020919091556108e7565b5060006108e7565b600081815260018301602052604081205480156128ef57600061282a600183612ee6565b855490915060009061283e90600190612ee6565b90508181146128a357600086600001828154811061285e5761285e612f1a565b906000526020600020015490508087600001848154811061288157612881612f1a565b6000918252602080832090910192909255918252600188019052604090208390555b85548690806128b4576128b46130e8565b6001900381819060005260206000200160009055905585600101600086815260200190815260200160002060009055600193505050506108e7565b60009150506108e7565b60608160000180548060200260200160405190810160405280929190818152602001828054801561294957602002820191906000526020600020905b815481526020019060010190808311612935575b50505050509050919050565b6000611bd2762632b73234b733a6b0b935b2ba21b7b73a3937b63632b960491b5b60008181527f4abde63c3e81aefa5764b017968bc473e83e093d7e1a10247d19e0a3e412401960205260408120546001600160a01b0316806108e75760408051602081018590520160408051601f19818403018152908290526346e2ec9360e01b8252610284916004016130fe565b6000602082840312156129f757600080fd5b5035919050565b6001600160a01b0381168114611d2157600080fd5b60008060408385031215612a2657600080fd5b8235612a31816129fe565b946020939093013593505050565b60008060408385031215612a5257600080fd5b50508035926020909101359150565b600060208284031215612a7357600080fd5b8135612a7e816129fe565b9392505050565b60008060408385031215612a9857600080fd5b823591506020830135612aaa816129fe565b809150509250929050565b600080600060608486031215612aca57600080fd5b505081359360208301359350604090920135919050565b6020808252825182820181905260009190848201906040850190845b81811015612b1957835183529284019291840191600101612afd565b50909695505050505050565b60008060208385031215612b3857600080fd5b823567ffffffffffffffff80821115612b5057600080fd5b818501915085601f830112612b6457600080fd5b813581811115612b7357600080fd5b8660208260051b8501011115612b8857600080fd5b60209290920196919550909350505050565b6020808252825182820181905260009190848201906040850190845b81811015612b19578351151583529284019291840191600101612bb6565b600080600060608486031215612be957600080fd5b8335612bf4816129fe565b95602085013595506040909401359392505050565b60008060008060808587031215612c1f57600080fd5b843593506020850135612c31816129fe565b92506040850135612c41816129fe565b9396929550929360600135925050565b634e487b7160e01b600052604160045260246000fd5b60405160e0810167ffffffffffffffff81118282101715612c8a57612c8a612c51565b60405290565b604051601f8201601f1916810167ffffffffffffffff81118282101715612cb957612cb9612c51565b604052919050565b600080828403610100811215612cd657600080fd5b8335612ce1816129fe565b925060e0601f1982011215612cf557600080fd5b50612cfe612c67565b6020840135815260408401356020820152606084013560408201526080840135606082015260a0840135608082015260c084013560a082015260e084013560c0820152809150509250929050565b8015158114611d2157600080fd5b600080600060608486031215612d6f57600080fd5b833592506020840135612d81816129fe565b91506040840135612d9181612d4c565b809150509250925092565b60008060408385031215612daf57600080fd5b823591506020830135612aaa81612d4c565b60008060008060008060c08789031215612dda57600080fd5b8635612de5816129fe565b95506020870135612df5816129fe565b945060408701359350606087013592506080870135915060a0870135612e1a816129fe565b809150509295509295509295565b60008060408385031215612e3b57600080fd5b505080516020909101519092909150565b600060208284031215612e5e57600080fd5b5051919050565b6020808252818101527f4f776e61626c653a2063616c6c6572206973206e6f7420746865206f776e6572604082015260600190565b60008060008060808587031215612eb057600080fd5b505082516020840151604085015160609095015191969095509092509050565b634e487b7160e01b600052601160045260246000fd5b600082821015612ef857612ef8612ed0565b500390565b600060208284031215612f0f57600080fd5b8151612a7e81612d4c565b634e487b7160e01b600052603260045260246000fd5b6000815180845260005b81811015612f5657602081850181015186830182015201612f3a565b81811115612f68576000602083870101525b50601f01601f19169290920160200192915050565b828152604060208201526000610a646040830184612f30565b600060208284031215612fa857600080fd5b8151612a7e816129fe565b6000600019821415612fc757612fc7612ed0565b5060010190565b6001600160a01b039390931683526020830191909152604082015260600190565b60008060006060848603121561300457600080fd5b8351925060208401519150604084015190509250925092565b6000806040838503121561303057600080fd5b825191506020830151612aaa81612d4c565b6000602080838503121561305557600080fd5b825167ffffffffffffffff8082111561306d57600080fd5b818501915085601f83011261308157600080fd5b81518181111561309357613093612c51565b8060051b91506130a4848301612c90565b81815291830184019184810190888411156130be57600080fd5b938501935b838510156130dc578451825293850193908501906130c3565b98975050505050505050565b634e487b7160e01b600052603160045260246000fd5b6020815260006108e46020830184612f3056fe4abde63c3e81aefa5764b017968bc473e83e093d7e1a10247d19e0a3e41240189c789132bdb3678132848a8dcd780bffd2b1abdce3984c522ac1d8aeb48f05f36f969d660e14559aec53d066903ba87981d0679d31bf1d3793a220e70e02808ba2646970667358221220d4c0432b847d75aa89ca0fd53c14589112128c4cec91558b1069c3f16a80302864736f6c63430008090033",
  "libraries": {
    "DepositManagementLogic": "0xC9bF8443e399a2f03C542cBAFc79906d74eB5d84"
  },
  "implementation": "0x894058E10C870DB83bE405F17983fb2feE71615e",
  "devdoc": {
    "kind": "dev",
    "methods": {
      "acceptedContracts()": {
        "details": "The contact name listed in this method is also needed to be listed `requiredContracts` method."
      },
      "addDepositAmount(address,bytes32,uint256)": {
        "details": "Adds deposit amount.",
        "params": {
          "_amount": "Amount of funds to deposit",
          "_ccy": "Currency name in bytes32",
          "_user": "User's address"
        }
      },
      "calculateCoverage(address,(bytes32,uint256,uint256,uint256,uint256,uint256,uint256))": {
        "params": {
          "_additionalFunds": "Additional funds for calculating the coverage",
          "_user": "User's address"
        },
        "returns": {
          "coverage": "The rate of collateral used",
          "isInsufficientDepositAmount": "The boolean if the lent amount in the selected currency is insufficient for the deposit amount or not"
        }
      },
      "calculateLiquidationFees(uint256)": {
        "params": {
          "_amount": "Liquidation amount"
        },
        "returns": {
          "liquidatorFee": "Liquidation fee amount received by liquidators",
          "protocolFee": "Liquidation fee amount received by protocol"
        }
      },
      "deposit(bytes32,uint256)": {
        "details": "Deposits funds by the caller into collateral.",
        "params": {
          "_amount": "Amount of funds to deposit",
          "_ccy": "Currency name in bytes32"
        }
      },
      "depositFrom(address,bytes32,uint256)": {
        "details": "Deposits funds by the `from` into collateral.",
        "params": {
          "_amount": "Amount of funds to deposit",
          "_ccy": "Currency name in bytes32",
          "_from": "user's address"
        }
      },
      "executeForcedReset(address,bytes32)": {
        "params": {
          "_ccy": "Currency name in bytes32",
          "_user": "User's address"
        }
      },
      "getCollateralAmount(address,bytes32)": {
        "params": {
          "_ccy": "Currency name in bytes32",
          "_user": "User's address"
        },
        "returns": {
          "amount": "The collateral amount"
        }
      },
      "getCollateralCurrencies()": {
        "returns": {
          "_0": "Array of the currency accepted as collateral"
        }
      },
      "getCoverage(address)": {
        "params": {
          "_user": "User's address"
        },
        "returns": {
          "coverage": "The rate of collateral used"
        }
      },
      "getDepositAmount(address,bytes32)": {
        "params": {
          "_ccy": "Currency name in bytes32",
          "_user": "User's address"
        },
        "returns": {
          "_0": "The deposited amount"
        }
      },
      "getLiquidationAmount(address,bytes32,uint256)": {
        "params": {
          "_user": "User's address"
        },
        "returns": {
          "liquidationAmount": "The the amount to be liquidated"
        }
      },
      "getLiquidationConfiguration()": {
        "details": "Gets the liquidation configuration",
        "returns": {
          "liquidationProtocolFeeRate": "The liquidation fee received by liquidators",
          "liquidationThresholdRate": "The liquidation threshold rate",
          "liquidatorFeeRate": "The liquidation protocol fee received by protocol"
        }
      },
      "getTokenAddress(bytes32)": {
        "params": {
          "_ccy": "Currency name in bytes32"
        },
        "returns": {
          "_0": "The token contract address"
        }
      },
      "getTotalCollateralAmount(address)": {
        "params": {
          "_user": "User's address"
        },
        "returns": {
          "totalCollateralAmount": "The total collateral amount in ETH"
        }
      },
      "getTotalDepositAmount(bytes32)": {
        "params": {
          "_ccy": "Currency name in bytes32"
        },
        "returns": {
          "_0": "The total deposited amount"
        }
      },
      "getUnusedCollateral(address)": {
        "params": {
          "_user": "User's address"
        },
        "returns": {
          "_0": "The total amount of unused collateral"
        }
      },
      "getUsedCurrencies(address)": {
        "params": {
          "_user": "User's address"
        },
        "returns": {
          "_0": "The currency names in bytes32"
        }
      },
      "getWithdrawableCollateral(address)": {
        "params": {
          "_user": "User's address"
        },
        "returns": {
          "_0": "Maximum amount of ETH that can be withdrawn"
        }
      },
      "getWithdrawableCollateral(bytes32,address)": {
        "params": {
          "_ccy": "Currency name in bytes32",
          "_user": "User's address"
        },
        "returns": {
          "_0": "Maximum amount of the selected currency that can be withdrawn"
        }
      },
      "initialize(address,address,uint256,uint256,uint256,address)": {
        "details": "Function is invoked by the proxy contract when the contract is added to the ProxyController.",
        "params": {
          "_liquidationProtocolFeeRate": "The liquidation fee rate received by protocol",
          "_liquidationThresholdRate": "The liquidation threshold rate",
          "_liquidatorFeeRate": "The liquidation fee rate received by liquidators",
          "_nativeToken": "The address of wrapped token of native currency",
          "_owner": "The address of the contract owner",
          "_resolver": "The address of the Address Resolver contract"
        }
      },
      "isCollateral(bytes32)": {
        "params": {
          "_ccy": "Currency name in bytes32"
        },
        "returns": {
          "_0": "The boolean if the currency has been registered or not"
        }
      },
      "isCollateral(bytes32[])": {
        "params": {
          "_ccys": "Currency name list in bytes32"
        },
        "returns": {
          "isCollateralCurrencies": "Array of the boolean if the currency has been registered or not"
        }
      },
      "isCovered(address)": {
        "params": {
          "_user": "User's address"
        },
        "returns": {
          "_0": "The boolean if the collateral has sufficient coverage or not"
        }
      },
      "isRegisteredCurrency(bytes32)": {
        "params": {
          "_ccy": "Currency name in bytes32"
        },
        "returns": {
          "_0": "The boolean if the currency has been registered or not"
        }
      },
      "owner()": {
        "details": "Returns the address of the current owner."
      },
      "paused()": {
        "details": "Returns true if the contract is paused, and false otherwise."
      },
      "registerCurrency(bytes32,address,bool)": {
        "params": {
          "_ccy": "Currency name in bytes32",
          "_isCollateral": "Boolean if the selected currency is acceptable as collateral.",
          "_tokenAddress": "Token contract address of the selected currency"
        }
      },
      "removeDepositAmount(address,bytes32,uint256)": {
        "params": {
          "_amount": "Amount of funds to withdraw.",
          "_ccy": "Currency name in bytes32",
          "_user": "User's address"
        }
      },
      "renounceOwnership()": {
        "details": "Leaves the contract without owner. It will not be possible to call `onlyOwner` functions anymore. Can only be called by the current owner. NOTE: Renouncing ownership will leave the contract without an owner, thereby removing any functionality that is only available to the owner."
      },
      "requiredContracts()": {
        "details": "The contract name list is in `./libraries/Contracts.sol`."
      },
      "transferFrom(bytes32,address,address,uint256)": {
        "params": {
          "_amount": "Amount of funds to sent",
          "_ccy": "Currency name in bytes32",
          "_from": "Sender's address",
          "_to": "Receiver's address"
        }
      },
      "transferOwnership(address)": {
        "details": "Transfers ownership of the contract to a new account (`newOwner`). Can only be called by the current owner."
      },
      "updateCurrency(bytes32,bool)": {
        "params": {
          "_ccy": "Currency name in bytes32",
          "_isCollateral": "Boolean if the selected currency is acceptable as collateral."
        }
      },
      "updateLiquidationConfiguration(uint256,uint256,uint256)": {
        "details": "Update the liquidation configuration",
        "params": {
          "_liquidationProtocolFeeRate": "The liquidation fee rate received by protocol",
          "_liquidationThresholdRate": "The liquidation threshold rate",
          "_liquidatorFeeRate": "The liquidation fee rate received by liquidators"
        }
      },
      "withdraw(bytes32,uint256)": {
        "params": {
          "_amount": "Amount of funds to withdraw.",
          "_ccy": "Currency name in bytes32"
        }
      }
    },
    "version": 1
  },
  "userdoc": {
    "kind": "user",
    "methods": {
      "acceptedContracts()": {
        "notice": "Returns contract names that can call this contract."
      },
      "calculateCoverage(address,(bytes32,uint256,uint256,uint256,uint256,uint256,uint256))": {
        "notice": "Calculates the collateral rate used when additional funds are had by the user."
      },
      "calculateLiquidationFees(uint256)": {
        "notice": "Gets the actual fee amounts calculated by rates."
      },
      "executeForcedReset(address,bytes32)": {
        "notice": "Forces a reset of the user's deposit amount."
      },
      "getCollateralAmount(address,bytes32)": {
        "notice": "Gets the total collateral amount of the selected currency."
      },
      "getCollateralCurrencies()": {
        "notice": "Gets the currencies accepted as collateral"
      },
      "getCoverage(address)": {
        "notice": "Gets the rate of collateral used."
      },
      "getDepositAmount(address,bytes32)": {
        "notice": "Gets the amount deposited in the user's collateral."
      },
      "getLiquidationAmount(address,bytes32,uint256)": {
        "notice": "Gets the amount to be liquidated."
      },
      "getTokenAddress(bytes32)": {
        "notice": "Gets the token contract address"
      },
      "getTotalCollateralAmount(address)": {
        "notice": "Gets the total collateral amount."
      },
      "getTotalDepositAmount(bytes32)": {
        "notice": "Gets the total amount deposited of the selected currency"
      },
      "getUnusedCollateral(address)": {
        "notice": "Gets the total amount of the unused collateral"
      },
      "getUsedCurrencies(address)": {
        "notice": "Gets the currencies that the user used as collateral."
      },
      "getWithdrawableCollateral(address)": {
        "notice": "Gets the maximum amount of ETH that can be withdrawn from user collateral."
      },
      "getWithdrawableCollateral(bytes32,address)": {
        "notice": "Gets the maximum amount of the selected currency that can be withdrawn from user collateral."
      },
      "initialize(address,address,uint256,uint256,uint256,address)": {
        "notice": "Initializes the contract."
      },
      "isCollateral(bytes32)": {
        "notice": "Gets if the currency is acceptable as collateral"
      },
      "isCollateral(bytes32[])": {
        "notice": "Gets if the currencies are acceptable as collateral"
      },
      "isCovered(address)": {
        "notice": "Gets if the collateral has enough coverage."
      },
      "isRegisteredCurrency(bytes32)": {
        "notice": "Gets if the currency has been registered"
      },
      "pauseVault()": {
        "notice": "Pauses the token vault."
      },
      "registerCurrency(bytes32,address,bool)": {
        "notice": "Registers new currency and sets if it is acceptable as collateral."
      },
      "removeDepositAmount(address,bytes32,uint256)": {
        "notice": "Removes deposit amount."
      },
      "requiredContracts()": {
        "notice": "Returns the contract names used in this contract."
      },
      "transferFrom(bytes32,address,address,uint256)": {
        "notice": "Transfers the token from sender to receiver."
      },
      "unpauseVault()": {
        "notice": "Unpauses the token vault."
      },
      "updateCurrency(bytes32,bool)": {
        "notice": "Updates the currency if it is acceptable as collateral."
      },
      "updateLiquidationConfiguration(uint256,uint256,uint256)": {
        "notice": "Triggers only be contract owner"
      },
      "withdraw(bytes32,uint256)": {
        "notice": "Withdraws funds by the caller from unused collateral."
      }
    },
    "notice": "Implements the management of the token in each currency for users. This contract manages the following data related to tokens. - Deposited token amount as the collateral - Parameters related to the liquidation   - Liquidation threshold rate   - Liquidation fee rate received by protocol   - Liquidation fee rate received by liquidators To address a currency as collateral, it must be registered using `registerCurrency` method in this contract.",
    "version": 1
  },
  "storageLayout": {
    "storage": [
      {
        "astId": 995,
        "contract": "contracts/protocol/TokenVault.sol:TokenVault",
        "label": "_initialized",
        "offset": 0,
        "slot": "0",
        "type": "t_uint8"
      },
      {
        "astId": 998,
        "contract": "contracts/protocol/TokenVault.sol:TokenVault",
        "label": "_initializing",
        "offset": 1,
        "slot": "0",
        "type": "t_bool"
      }
    ],
    "types": {
      "t_bool": {
        "encoding": "inplace",
        "label": "bool",
        "numberOfBytes": "1"
      },
      "t_uint8": {
        "encoding": "inplace",
        "label": "uint8",
        "numberOfBytes": "1"
      }
    }
  }
}