{
  "address": "0xDb2fff332d632F00d8f53e473E2ee570D42d671D",
  "abi": [
    {
      "inputs": [
        {
          "internalType": "address",
          "name": "caller",
          "type": "address"
        }
      ],
      "name": "CallerNotBaseCurrency",
      "type": "error"
    },
    {
      "inputs": [],
      "name": "CallerNotOperator",
      "type": "error"
    },
    {
      "inputs": [],
      "name": "InvalidAmount",
      "type": "error"
    },
    {
      "inputs": [],
      "name": "InvalidCurrency",
      "type": "error"
    },
    {
      "inputs": [],
      "name": "InvalidLiquidationProtocolFeeRate",
      "type": "error"
    },
    {
      "inputs": [],
      "name": "InvalidLiquidationThresholdRate",
      "type": "error"
    },
    {
      "inputs": [],
      "name": "InvalidLiquidatorFeeRate",
      "type": "error"
    },
    {
      "inputs": [],
      "name": "MarketTerminated",
      "type": "error"
    },
    {
      "inputs": [
        {
          "internalType": "string",
          "name": "name",
          "type": "string"
        }
      ],
      "name": "MissingAddress",
      "type": "error"
    },
    {
      "inputs": [],
      "name": "OnlyAcceptedContracts",
      "type": "error"
    },
    {
      "inputs": [],
      "name": "RedemptionIsRequired",
      "type": "error"
    },
    {
      "inputs": [],
      "name": "ResolverAlreadyRegistered",
      "type": "error"
    },
    {
      "inputs": [],
      "name": "UnregisteredCurrency",
      "type": "error"
    },
    {
      "anonymous": false,
      "inputs": [
        {
          "indexed": false,
          "internalType": "uint256",
          "name": "previousRate",
          "type": "uint256"
        },
        {
          "indexed": false,
          "internalType": "uint256",
          "name": "ratio",
          "type": "uint256"
        }
      ],
      "name": "AutoLiquidationThresholdRateUpdated",
      "type": "event"
    },
    {
      "anonymous": false,
      "inputs": [
        {
          "indexed": false,
          "internalType": "bytes32",
          "name": "name",
          "type": "bytes32"
        },
        {
          "indexed": false,
          "internalType": "address",
          "name": "destination",
          "type": "address"
        }
      ],
      "name": "CacheUpdated",
      "type": "event"
    },
    {
      "anonymous": false,
      "inputs": [
        {
          "indexed": false,
          "internalType": "bytes32",
          "name": "ccy",
          "type": "bytes32"
        },
        {
          "indexed": false,
          "internalType": "address",
          "name": "tokenAddress",
          "type": "address"
        },
        {
          "indexed": false,
          "internalType": "bool",
          "name": "isCollateral",
          "type": "bool"
        }
      ],
      "name": "CurrencyRegistered",
      "type": "event"
    },
    {
      "anonymous": false,
      "inputs": [
        {
          "indexed": false,
          "internalType": "bytes32",
          "name": "ccy",
          "type": "bytes32"
        },
        {
          "indexed": false,
          "internalType": "bool",
          "name": "isCollateral",
          "type": "bool"
        }
      ],
      "name": "CurrencyUpdated",
      "type": "event"
    },
    {
      "anonymous": false,
      "inputs": [
        {
          "indexed": true,
          "internalType": "address",
          "name": "user",
          "type": "address"
        },
        {
          "indexed": false,
          "internalType": "bytes32",
          "name": "ccy",
          "type": "bytes32"
        },
        {
          "indexed": false,
          "internalType": "uint256",
          "name": "amount",
          "type": "uint256"
        }
      ],
      "name": "Deposit",
      "type": "event"
    },
    {
      "anonymous": false,
      "inputs": [
        {
          "indexed": false,
          "internalType": "uint8",
          "name": "version",
          "type": "uint8"
        }
      ],
      "name": "Initialized",
      "type": "event"
    },
    {
      "anonymous": false,
      "inputs": [
        {
          "indexed": false,
          "internalType": "uint256",
          "name": "previousRate",
          "type": "uint256"
        },
        {
          "indexed": false,
          "internalType": "uint256",
          "name": "ratio",
          "type": "uint256"
        }
      ],
      "name": "LiquidationProtocolFeeRateUpdated",
      "type": "event"
    },
    {
      "anonymous": false,
      "inputs": [
        {
          "indexed": false,
          "internalType": "uint256",
          "name": "previousRate",
          "type": "uint256"
        },
        {
          "indexed": false,
          "internalType": "uint256",
          "name": "ratio",
          "type": "uint256"
        }
      ],
      "name": "LiquidatorFeeRateUpdated",
      "type": "event"
    },
    {
      "anonymous": false,
      "inputs": [
        {
          "indexed": true,
          "internalType": "address",
          "name": "previousOwner",
          "type": "address"
        },
        {
          "indexed": true,
          "internalType": "address",
          "name": "newOwner",
          "type": "address"
        }
      ],
      "name": "OwnershipTransferred",
      "type": "event"
    },
    {
      "anonymous": false,
      "inputs": [
        {
          "indexed": false,
          "internalType": "address",
          "name": "account",
          "type": "address"
        }
      ],
      "name": "Paused",
      "type": "event"
    },
    {
      "anonymous": false,
      "inputs": [
        {
          "indexed": true,
          "internalType": "bytes32",
          "name": "role",
          "type": "bytes32"
        },
        {
          "indexed": true,
          "internalType": "bytes32",
          "name": "previousAdminRole",
          "type": "bytes32"
        },
        {
          "indexed": true,
          "internalType": "bytes32",
          "name": "newAdminRole",
          "type": "bytes32"
        }
      ],
      "name": "RoleAdminChanged",
      "type": "event"
    },
    {
      "anonymous": false,
      "inputs": [
        {
          "indexed": true,
          "internalType": "bytes32",
          "name": "role",
          "type": "bytes32"
        },
        {
          "indexed": true,
          "internalType": "address",
          "name": "account",
          "type": "address"
        },
        {
          "indexed": true,
          "internalType": "address",
          "name": "sender",
          "type": "address"
        }
      ],
      "name": "RoleGranted",
      "type": "event"
    },
    {
      "anonymous": false,
      "inputs": [
        {
          "indexed": true,
          "internalType": "bytes32",
          "name": "role",
          "type": "bytes32"
        },
        {
          "indexed": true,
          "internalType": "address",
          "name": "account",
          "type": "address"
        },
        {
          "indexed": true,
          "internalType": "address",
          "name": "sender",
          "type": "address"
        }
      ],
      "name": "RoleRevoked",
      "type": "event"
    },
    {
      "anonymous": false,
      "inputs": [
        {
          "indexed": true,
          "internalType": "bytes32",
          "name": "ccy",
          "type": "bytes32"
        },
        {
          "indexed": true,
          "internalType": "address",
          "name": "from",
          "type": "address"
        },
        {
          "indexed": true,
          "internalType": "address",
          "name": "to",
          "type": "address"
        },
        {
          "indexed": false,
          "internalType": "uint256",
          "name": "amount",
          "type": "uint256"
        }
      ],
      "name": "Transfer",
      "type": "event"
    },
    {
      "anonymous": false,
      "inputs": [
        {
          "indexed": false,
          "internalType": "address",
          "name": "account",
          "type": "address"
        }
      ],
      "name": "Unpaused",
      "type": "event"
    },
    {
      "anonymous": false,
      "inputs": [
        {
          "indexed": true,
          "internalType": "address",
          "name": "user",
          "type": "address"
        },
        {
          "indexed": false,
          "internalType": "bytes32",
          "name": "ccy",
          "type": "bytes32"
        },
        {
          "indexed": false,
          "internalType": "uint256",
          "name": "amount",
          "type": "uint256"
        }
      ],
      "name": "Withdraw",
      "type": "event"
    },
    {
      "inputs": [],
      "name": "DEFAULT_ADMIN_ROLE",
      "outputs": [
        {
          "internalType": "bytes32",
          "name": "",
          "type": "bytes32"
        }
      ],
      "stateMutability": "view",
      "type": "function"
    },
    {
      "inputs": [],
      "name": "OPERATOR_ROLE",
      "outputs": [
        {
          "internalType": "bytes32",
          "name": "",
          "type": "bytes32"
        }
      ],
      "stateMutability": "view",
      "type": "function"
    },
    {
      "inputs": [],
      "name": "acceptedContracts",
      "outputs": [
        {
          "internalType": "bytes32[]",
          "name": "contracts",
          "type": "bytes32[]"
        }
      ],
      "stateMutability": "pure",
      "type": "function"
    },
    {
      "inputs": [
        {
          "internalType": "address",
          "name": "_user",
          "type": "address"
        },
        {
          "internalType": "bytes32",
          "name": "_ccy",
          "type": "bytes32"
        },
        {
          "internalType": "uint256",
          "name": "_amount",
          "type": "uint256"
        }
      ],
      "name": "addDepositAmount",
      "outputs": [],
      "stateMutability": "nonpayable",
      "type": "function"
    },
    {
      "inputs": [
        {
          "internalType": "address",
          "name": "admin",
          "type": "address"
        }
      ],
      "name": "addOperator",
      "outputs": [],
      "stateMutability": "nonpayable",
      "type": "function"
    },
    {
      "inputs": [],
      "name": "buildCache",
      "outputs": [],
      "stateMutability": "nonpayable",
      "type": "function"
    },
    {
      "inputs": [
        {
          "internalType": "address",
          "name": "_user",
          "type": "address"
        },
        {
          "components": [
            {
              "internalType": "bytes32",
              "name": "ccy",
              "type": "bytes32"
            },
            {
              "internalType": "uint256",
              "name": "workingLendOrdersAmount",
              "type": "uint256"
            },
            {
              "internalType": "uint256",
              "name": "claimableAmount",
              "type": "uint256"
            },
            {
              "internalType": "uint256",
              "name": "workingBorrowOrdersAmount",
              "type": "uint256"
            },
            {
              "internalType": "uint256",
              "name": "debtAmount",
              "type": "uint256"
            },
            {
              "internalType": "uint256",
              "name": "lentAmount",
              "type": "uint256"
            },
            {
              "internalType": "uint256",
              "name": "borrowedAmount",
              "type": "uint256"
            }
          ],
          "internalType": "struct ILendingMarketController.AdditionalFunds",
          "name": "_additionalFunds",
          "type": "tuple"
        }
      ],
      "name": "calculateCoverage",
      "outputs": [
        {
          "internalType": "uint256",
          "name": "coverage",
          "type": "uint256"
        },
        {
          "internalType": "bool",
          "name": "isInsufficientDepositAmount",
          "type": "bool"
        }
      ],
      "stateMutability": "view",
      "type": "function"
    },
    {
      "inputs": [
        {
          "internalType": "uint256",
          "name": "_amount",
          "type": "uint256"
        }
      ],
      "name": "calculateLiquidationFees",
      "outputs": [
        {
          "internalType": "uint256",
          "name": "protocolFee",
          "type": "uint256"
        },
        {
          "internalType": "uint256",
          "name": "liquidatorFee",
          "type": "uint256"
        }
      ],
      "stateMutability": "view",
      "type": "function"
    },
    {
      "inputs": [
        {
          "internalType": "bytes32",
          "name": "_ccy",
          "type": "bytes32"
        },
        {
          "internalType": "uint256",
          "name": "_amount",
          "type": "uint256"
        }
      ],
      "name": "deposit",
      "outputs": [],
      "stateMutability": "payable",
      "type": "function"
    },
    {
      "inputs": [
        {
          "internalType": "address",
          "name": "_from",
          "type": "address"
        },
        {
          "internalType": "bytes32",
          "name": "_ccy",
          "type": "bytes32"
        },
        {
          "internalType": "uint256",
          "name": "_amount",
          "type": "uint256"
        }
      ],
      "name": "depositFrom",
      "outputs": [],
      "stateMutability": "payable",
      "type": "function"
    },
    {
      "inputs": [
        {
          "internalType": "address",
          "name": "_user",
          "type": "address"
        },
        {
          "internalType": "bytes32",
          "name": "_ccy",
          "type": "bytes32"
        }
      ],
      "name": "executeForcedReset",
      "outputs": [
        {
          "internalType": "uint256",
          "name": "",
          "type": "uint256"
        }
      ],
      "stateMutability": "nonpayable",
      "type": "function"
    },
    {
      "inputs": [
        {
          "internalType": "address",
          "name": "_user",
          "type": "address"
        },
        {
          "internalType": "bytes32",
          "name": "_ccy",
          "type": "bytes32"
        }
      ],
      "name": "getBorrowableAmount",
      "outputs": [
        {
          "internalType": "uint256",
          "name": "",
          "type": "uint256"
        }
      ],
      "stateMutability": "view",
      "type": "function"
    },
    {
      "inputs": [
        {
          "internalType": "address",
          "name": "_user",
          "type": "address"
        },
        {
          "internalType": "bytes32",
          "name": "_ccy",
          "type": "bytes32"
        }
      ],
      "name": "getCollateralAmount",
      "outputs": [
        {
          "internalType": "uint256",
          "name": "amount",
          "type": "uint256"
        }
      ],
      "stateMutability": "view",
      "type": "function"
    },
    {
      "inputs": [],
      "name": "getCollateralCurrencies",
      "outputs": [
        {
          "internalType": "bytes32[]",
          "name": "",
          "type": "bytes32[]"
        }
      ],
      "stateMutability": "view",
      "type": "function"
    },
    {
      "inputs": [
        {
          "internalType": "address",
          "name": "_user",
          "type": "address"
        }
      ],
      "name": "getCoverage",
      "outputs": [
        {
          "internalType": "uint256",
          "name": "",
          "type": "uint256"
        }
      ],
      "stateMutability": "view",
      "type": "function"
    },
    {
      "inputs": [
        {
          "internalType": "address",
          "name": "_user",
          "type": "address"
        },
        {
          "internalType": "bytes32",
          "name": "_ccy",
          "type": "bytes32"
        }
      ],
      "name": "getDepositAmount",
      "outputs": [
        {
          "internalType": "uint256",
          "name": "",
          "type": "uint256"
        }
      ],
      "stateMutability": "view",
      "type": "function"
    },
    {
      "inputs": [
        {
          "internalType": "address",
          "name": "_user",
          "type": "address"
        },
        {
          "internalType": "bytes32",
          "name": "_liquidationCcy",
          "type": "bytes32"
        },
        {
          "internalType": "uint256",
          "name": "_liquidationAmountMaximum",
          "type": "uint256"
        }
      ],
      "name": "getLiquidationAmount",
      "outputs": [
        {
          "internalType": "uint256",
          "name": "liquidationAmount",
          "type": "uint256"
        },
        {
          "internalType": "uint256",
          "name": "protocolFee",
          "type": "uint256"
        },
        {
          "internalType": "uint256",
          "name": "liquidatorFee",
          "type": "uint256"
        }
      ],
      "stateMutability": "view",
      "type": "function"
    },
    {
      "inputs": [],
      "name": "getLiquidationConfiguration",
      "outputs": [
        {
          "internalType": "uint256",
          "name": "liquidationThresholdRate",
          "type": "uint256"
        },
        {
          "internalType": "uint256",
          "name": "liquidationProtocolFeeRate",
          "type": "uint256"
        },
        {
          "internalType": "uint256",
          "name": "liquidatorFeeRate",
          "type": "uint256"
        }
      ],
      "stateMutability": "view",
      "type": "function"
    },
    {
      "inputs": [],
      "name": "getRevision",
      "outputs": [
        {
          "internalType": "uint256",
          "name": "",
          "type": "uint256"
        }
      ],
      "stateMutability": "pure",
      "type": "function"
    },
    {
      "inputs": [
        {
          "internalType": "bytes32",
          "name": "role",
          "type": "bytes32"
        }
      ],
      "name": "getRoleAdmin",
      "outputs": [
        {
          "internalType": "bytes32",
          "name": "",
          "type": "bytes32"
        }
      ],
      "stateMutability": "view",
      "type": "function"
    },
    {
      "inputs": [
        {
          "internalType": "bytes32",
          "name": "_ccy",
          "type": "bytes32"
        }
      ],
      "name": "getTokenAddress",
      "outputs": [
        {
          "internalType": "address",
          "name": "",
          "type": "address"
        }
      ],
      "stateMutability": "view",
      "type": "function"
    },
    {
      "inputs": [
        {
          "internalType": "address",
          "name": "_user",
          "type": "address"
        }
      ],
      "name": "getTotalCollateralAmount",
      "outputs": [
        {
          "internalType": "uint256",
          "name": "totalCollateralAmount",
          "type": "uint256"
        }
      ],
      "stateMutability": "view",
      "type": "function"
    },
    {
      "inputs": [
        {
          "internalType": "bytes32",
          "name": "_ccy",
          "type": "bytes32"
        }
      ],
      "name": "getTotalDepositAmount",
      "outputs": [
        {
          "internalType": "uint256",
          "name": "",
          "type": "uint256"
        }
      ],
      "stateMutability": "view",
      "type": "function"
    },
    {
      "inputs": [
        {
          "internalType": "address",
          "name": "_user",
          "type": "address"
        }
      ],
      "name": "getTotalUnusedCollateralAmount",
      "outputs": [
        {
          "internalType": "uint256",
          "name": "",
          "type": "uint256"
        }
      ],
      "stateMutability": "view",
      "type": "function"
    },
    {
      "inputs": [
        {
          "internalType": "address",
          "name": "_user",
          "type": "address"
        }
      ],
      "name": "getUsedCurrencies",
      "outputs": [
        {
          "internalType": "bytes32[]",
          "name": "",
          "type": "bytes32[]"
        }
      ],
      "stateMutability": "view",
      "type": "function"
    },
    {
      "inputs": [
        {
          "internalType": "bytes32",
          "name": "_ccy",
          "type": "bytes32"
        },
        {
          "internalType": "address",
          "name": "_user",
          "type": "address"
        }
      ],
      "name": "getWithdrawableCollateral",
      "outputs": [
        {
          "internalType": "uint256",
          "name": "",
          "type": "uint256"
        }
      ],
      "stateMutability": "view",
      "type": "function"
    },
    {
      "inputs": [
        {
          "internalType": "address",
          "name": "_user",
          "type": "address"
        }
      ],
      "name": "getWithdrawableCollateral",
      "outputs": [
        {
          "internalType": "uint256",
          "name": "",
          "type": "uint256"
        }
      ],
      "stateMutability": "view",
      "type": "function"
    },
    {
      "inputs": [
        {
          "internalType": "bytes32",
          "name": "role",
          "type": "bytes32"
        },
        {
          "internalType": "address",
          "name": "account",
          "type": "address"
        }
      ],
      "name": "grantRole",
      "outputs": [],
      "stateMutability": "nonpayable",
      "type": "function"
    },
    {
      "inputs": [
        {
          "internalType": "bytes32",
          "name": "role",
          "type": "bytes32"
        },
        {
          "internalType": "address",
          "name": "account",
          "type": "address"
        }
      ],
      "name": "hasRole",
      "outputs": [
        {
          "internalType": "bool",
          "name": "",
          "type": "bool"
        }
      ],
      "stateMutability": "view",
      "type": "function"
    },
    {
      "inputs": [
        {
          "internalType": "address",
          "name": "_owner",
          "type": "address"
        },
        {
          "internalType": "address",
          "name": "_resolver",
          "type": "address"
        },
        {
          "internalType": "uint256",
          "name": "_liquidationThresholdRate",
          "type": "uint256"
        },
        {
          "internalType": "uint256",
          "name": "_liquidationProtocolFeeRate",
          "type": "uint256"
        },
        {
          "internalType": "uint256",
          "name": "_liquidatorFeeRate",
          "type": "uint256"
        },
        {
          "internalType": "address",
          "name": "_nativeToken",
          "type": "address"
        }
      ],
      "name": "initialize",
      "outputs": [],
      "stateMutability": "nonpayable",
      "type": "function"
    },
    {
      "inputs": [
        {
          "internalType": "bytes32[]",
          "name": "_ccys",
          "type": "bytes32[]"
        }
      ],
      "name": "isCollateral",
      "outputs": [
        {
          "internalType": "bool[]",
          "name": "isCollateralCurrencies",
          "type": "bool[]"
        }
      ],
      "stateMutability": "view",
      "type": "function"
    },
    {
      "inputs": [
        {
          "internalType": "bytes32",
          "name": "_ccy",
          "type": "bytes32"
        }
      ],
      "name": "isCollateral",
      "outputs": [
        {
          "internalType": "bool",
          "name": "",
          "type": "bool"
        }
      ],
      "stateMutability": "view",
      "type": "function"
    },
    {
      "inputs": [
        {
          "internalType": "address",
          "name": "_user",
          "type": "address"
        }
      ],
      "name": "isCovered",
      "outputs": [
        {
          "internalType": "bool",
          "name": "",
          "type": "bool"
        }
      ],
      "stateMutability": "view",
      "type": "function"
    },
    {
      "inputs": [
        {
          "internalType": "bytes32",
          "name": "_ccy",
          "type": "bytes32"
        }
      ],
      "name": "isRegisteredCurrency",
      "outputs": [
        {
          "internalType": "bool",
          "name": "",
          "type": "bool"
        }
      ],
      "stateMutability": "view",
      "type": "function"
    },
    {
      "inputs": [],
      "name": "isResolverCached",
      "outputs": [
        {
          "internalType": "bool",
          "name": "",
          "type": "bool"
        }
      ],
      "stateMutability": "view",
      "type": "function"
    },
    {
      "inputs": [
        {
          "internalType": "bytes[]",
          "name": "data",
          "type": "bytes[]"
        }
      ],
      "name": "multicall",
      "outputs": [
        {
          "internalType": "bytes[]",
          "name": "results",
          "type": "bytes[]"
        }
      ],
      "stateMutability": "nonpayable",
      "type": "function"
    },
    {
      "inputs": [],
      "name": "owner",
      "outputs": [
        {
          "internalType": "address",
          "name": "",
          "type": "address"
        }
      ],
      "stateMutability": "view",
      "type": "function"
    },
    {
      "inputs": [],
      "name": "pause",
      "outputs": [],
      "stateMutability": "nonpayable",
      "type": "function"
    },
    {
      "inputs": [],
      "name": "paused",
      "outputs": [
        {
          "internalType": "bool",
          "name": "",
          "type": "bool"
        }
      ],
      "stateMutability": "view",
      "type": "function"
    },
    {
      "inputs": [
        {
          "internalType": "bytes32",
          "name": "_ccy",
          "type": "bytes32"
        },
        {
          "internalType": "address",
          "name": "_tokenAddress",
          "type": "address"
        },
        {
          "internalType": "bool",
          "name": "_isCollateral",
          "type": "bool"
        }
      ],
      "name": "registerCurrency",
      "outputs": [],
      "stateMutability": "nonpayable",
      "type": "function"
    },
    {
      "inputs": [
        {
          "internalType": "address",
          "name": "_user",
          "type": "address"
        },
        {
          "internalType": "bytes32",
          "name": "_ccy",
          "type": "bytes32"
        },
        {
          "internalType": "uint256",
          "name": "_amount",
          "type": "uint256"
        }
      ],
      "name": "removeDepositAmount",
      "outputs": [],
      "stateMutability": "nonpayable",
      "type": "function"
    },
    {
      "inputs": [
        {
          "internalType": "address",
          "name": "admin",
          "type": "address"
        }
      ],
      "name": "removeOperator",
      "outputs": [],
      "stateMutability": "nonpayable",
      "type": "function"
    },
    {
      "inputs": [],
      "name": "renounceOwnership",
      "outputs": [],
      "stateMutability": "nonpayable",
      "type": "function"
    },
    {
      "inputs": [
        {
          "internalType": "bytes32",
          "name": "role",
          "type": "bytes32"
        },
        {
          "internalType": "address",
          "name": "account",
          "type": "address"
        }
      ],
      "name": "renounceRole",
      "outputs": [],
      "stateMutability": "nonpayable",
      "type": "function"
    },
    {
      "inputs": [],
      "name": "requiredContracts",
      "outputs": [
        {
          "internalType": "bytes32[]",
          "name": "contracts",
          "type": "bytes32[]"
        }
      ],
      "stateMutability": "pure",
      "type": "function"
    },
    {
      "inputs": [],
      "name": "resolver",
      "outputs": [
        {
          "internalType": "contract IAddressResolver",
          "name": "",
          "type": "address"
        }
      ],
      "stateMutability": "view",
      "type": "function"
    },
    {
      "inputs": [
        {
          "internalType": "bytes32",
          "name": "role",
          "type": "bytes32"
        },
        {
          "internalType": "address",
          "name": "account",
          "type": "address"
        }
      ],
      "name": "revokeRole",
      "outputs": [],
      "stateMutability": "nonpayable",
      "type": "function"
    },
    {
      "inputs": [
        {
          "internalType": "bytes32",
          "name": "role",
          "type": "bytes32"
        },
        {
          "internalType": "bytes32",
          "name": "adminRole",
          "type": "bytes32"
        }
      ],
      "name": "setRoleAdmin",
      "outputs": [],
      "stateMutability": "nonpayable",
      "type": "function"
    },
    {
      "inputs": [
        {
          "internalType": "bytes4",
          "name": "interfaceId",
          "type": "bytes4"
        }
      ],
      "name": "supportsInterface",
      "outputs": [
        {
          "internalType": "bool",
          "name": "",
          "type": "bool"
        }
      ],
      "stateMutability": "view",
      "type": "function"
    },
    {
      "inputs": [
        {
          "internalType": "bytes32",
          "name": "_ccy",
          "type": "bytes32"
        },
        {
          "internalType": "address",
          "name": "_from",
          "type": "address"
        },
        {
          "internalType": "address",
          "name": "_to",
          "type": "address"
        },
        {
          "internalType": "uint256",
          "name": "_amount",
          "type": "uint256"
        }
      ],
      "name": "transferFrom",
      "outputs": [
        {
          "internalType": "uint256",
          "name": "untransferredAmount",
          "type": "uint256"
        }
      ],
      "stateMutability": "nonpayable",
      "type": "function"
    },
    {
      "inputs": [
        {
          "internalType": "address",
          "name": "newOwner",
          "type": "address"
        }
      ],
      "name": "transferOwnership",
      "outputs": [],
      "stateMutability": "nonpayable",
      "type": "function"
    },
    {
      "inputs": [],
      "name": "unpause",
      "outputs": [],
      "stateMutability": "nonpayable",
      "type": "function"
    },
    {
      "inputs": [
        {
          "internalType": "bytes32",
          "name": "_ccy",
          "type": "bytes32"
        },
        {
          "internalType": "bool",
          "name": "_isCollateral",
          "type": "bool"
        }
      ],
      "name": "updateCurrency",
      "outputs": [],
      "stateMutability": "nonpayable",
      "type": "function"
    },
    {
      "inputs": [
        {
          "internalType": "uint256",
          "name": "_liquidationThresholdRate",
          "type": "uint256"
        },
        {
          "internalType": "uint256",
          "name": "_liquidationProtocolFeeRate",
          "type": "uint256"
        },
        {
          "internalType": "uint256",
          "name": "_liquidatorFeeRate",
          "type": "uint256"
        }
      ],
      "name": "updateLiquidationConfiguration",
      "outputs": [],
      "stateMutability": "nonpayable",
      "type": "function"
    },
    {
      "inputs": [
        {
          "internalType": "bytes32",
          "name": "_ccy",
          "type": "bytes32"
        },
        {
          "internalType": "uint256",
          "name": "_amount",
          "type": "uint256"
        }
      ],
      "name": "withdraw",
      "outputs": [],
      "stateMutability": "nonpayable",
      "type": "function"
    },
    {
      "stateMutability": "payable",
      "type": "receive"
    }
  ],
  "transactionHash": "0xe1185f45c92749651bf5d218cf07edea2f6cae90a16b7a7a4ff6d817c0e4e1f6",
  "args": [],
  "numDeployments": 2,
  "solcInputHash": "779b1d8459d9078db8690c7abff4d93c",
  "bytecode": "0x608060405234801561001057600080fd5b50613c6d806100206000396000f3fe6080604052600436106103535760003560e01c806359047200116101c6578063a217fddf116100f7578063d5e190d011610095578063f2fde38b1161006f578063f2fde38b14610a00578063f5b541a614610a20578063fb7bd3b414610a42578063fc70081014610a6257600080fd5b8063d5e190d0146109c1578063e0997659146109d6578063ed6dd514146109eb57600080fd5b8063b12e4410116100d1578063b12e441014610941578063b1a5d12d14610961578063ca42303114610981578063d547741f146109a157600080fd5b8063a217fddf146108df578063ac8a584a146108f4578063ac9650d81461091457600080fd5b80638456cb591161016457806391d148541161013e57806391d148541461086c578063948060dd1461088c57806396994e37146108ac5780639870d7fe146108bf57600080fd5b80638456cb59146108225780638da5cb5b146108375780638e19aff31461084c57600080fd5b80635d95df8a116101a05780635d95df8a146107ad578063715018a6146107cd5780637d044b43146107e25780637d44828e1461080257600080fd5b806359047200146107335780635bffeb66146107685780635c975abb1461078857600080fd5b806329985e5a116102a05780633f90a08e1161023e578063500d2f6d11610218578063500d2f6d146106985780635257ed67146106b857806354821c21146106f35780635575fba71461071357600080fd5b80633f90a08e1461062b5780634ba0c9b5146106585780634c6aa99c1461067857600080fd5b806330312daa1161027a57806330312daa146105b457806336568abe146105d45780633d03b9da146105f45780633f4ba83a1461061657600080fd5b806329985e5a1461056a5780632af64bd31461057f5780632f2ff15d1461059457600080fd5b80630eadd2441161030d5780631e4e0091116102e75780631e4e0091146104ea578063248a9ca31461050a57806325a890321461052a57806325e1f09f1461054a57600080fd5b80630eadd244146104a35780631316529d146104c35780631de26e16146104d757600080fd5b8062fcf2621461039e57806301ffc9a7146103d85780630253cd7e14610408578063040cf0201461043657806304f3bcec146104565780630cf7505d1461048357600080fd5b3661039957600080516020613bb1833981519152546001600160a01b031633146103975760405163efd4e4e160e01b81523360048201526024015b60405180910390fd5b005b600080fd5b3480156103aa57600080fd5b506103be6103b93660046132c5565b610a82565b604080519283526020830191909152015b60405180910390f35b3480156103e457600080fd5b506103f86103f33660046132de565b610b01565b60405190151581526020016103cf565b34801561041457600080fd5b5061042861042336600461331d565b610b38565b6040519081526020016103cf565b34801561044257600080fd5b50610397610451366004613349565b610bc6565b34801561046257600080fd5b5061046b610c05565b6040516001600160a01b0390911681526020016103cf565b34801561048f57600080fd5b506103f861049e3660046132c5565b610c26565b3480156104af57600080fd5b506104286104be36600461336b565b610c54565b3480156104cf57600080fd5b506001610428565b6103976104e5366004613349565b610c9e565b3480156104f657600080fd5b50610397610505366004613349565b610cd8565b34801561051657600080fd5b506104286105253660046132c5565b610ced565b34801561053657600080fd5b5061042861054536600461339b565b610d0f565b34801561055657600080fd5b506103f861056536600461339b565b610d8f565b34801561057657600080fd5b50610397610e0e565b34801561058b57600080fd5b506103f8610fac565b3480156105a057600080fd5b506103976105af36600461336b565b611103565b3480156105c057600080fd5b506103976105cf3660046133b8565b61111f565b3480156105e057600080fd5b506103976105ef36600461336b565b611159565b34801561060057600080fd5b506106096111d3565b6040516103cf91906133e4565b34801561062257600080fd5b50610397611295565b34801561063757600080fd5b5061064b61064636600461346d565b6112d4565b6040516103cf91906134af565b34801561066457600080fd5b506103976106733660046134e9565b611384565b34801561068457600080fd5b506104286106933660046132c5565b61144a565b3480156106a457600080fd5b506104286106b336600461351e565b611468565b3480156106c457600080fd5b506106d86106d33660046134e9565b6115a7565b604080519384526020840192909252908201526060016103cf565b3480156106ff57600080fd5b5061042861070e36600461339b565b611637565b34801561071f57600080fd5b5061042861072e36600461331d565b6116bf565b34801561073f57600080fd5b5061075361074e3660046135d6565b611709565b604080519283529015156020830152016103cf565b34801561077457600080fd5b5061039761078336600461366f565b6117d9565b34801561079457600080fd5b50600080516020613b918339815191525460ff166103f8565b3480156107b957600080fd5b506103f86107c83660046132c5565b611944565b3480156107d957600080fd5b5061039761195b565b3480156107ee57600080fd5b506104286107fd36600461331d565b611994565b34801561080e57600080fd5b5061042861081d36600461331d565b611a70565b34801561082e57600080fd5b50610397611b00565b34801561084357600080fd5b5061046b611b3d565b34801561085857600080fd5b506103976108673660046136b1565b611b65565b34801561087857600080fd5b506103f861088736600461336b565b611c21565b34801561089857600080fd5b506104286108a736600461339b565b611c59565b6103976108ba3660046134e9565b611c9c565b3480156108cb57600080fd5b506103976108da36600461339b565b611cd5565b3480156108eb57600080fd5b50610428600081565b34801561090057600080fd5b5061039761090f36600461339b565b611cf0565b34801561092057600080fd5b5061093461092f36600461346d565b611d08565b6040516103cf9190613726565b34801561094d57600080fd5b5061046b61095c3660046132c5565b611df6565b34801561096d57600080fd5b5061039761097c366004613788565b611e1d565b34801561098d57600080fd5b5061042861099c36600461339b565b611fc7565b3480156109ad57600080fd5b506103976109bc36600461336b565b61200a565b3480156109cd57600080fd5b50610609612026565b3480156109e257600080fd5b50610609612040565b3480156109f757600080fd5b506106d86120bc565b348015610a0c57600080fd5b50610397610a1b36600461339b565b6120ed565b348015610a2c57600080fd5b50610428600080516020613bf183398151915281565b348015610a4e57600080fd5b50610397610a5d3660046134e9565b61218a565b348015610a6e57600080fd5b50610609610a7d36600461339b565b61221a565b604051627e793160e11b8152600481018290526000908190739fa1EDCC47b75831773Eb969f55b8bFd770aba9c9062fcf262906024016040805180830381865af4158015610ad4573d6000803e3d6000fd5b505050506040513d601f19601f82011682018060405250810190610af891906137ef565b91509150915091565b60006001600160e01b03198216637965db0b60e01b1480610b3257506301ffc9a760e01b6001600160e01b03198316145b92915050565b604051630129e6bf60e11b81526001600160a01b038316600482015260248101829052600090739fa1EDCC47b75831773Eb969f55b8bFd770aba9c90630253cd7e906044015b602060405180830381865af4158015610b9b573d6000803e3d6000fd5b505050506040513d601f19601f82011682018060405250810190610bbf9190613813565b9392505050565b610bce61229d565b81610bd881610c26565b610bf557604051630f4a6ccd60e21b815260040160405180910390fd5b610c003384846122f0565b505050565b6000600080516020613b718339815191525b546001600160a01b0316919050565b600080610c316124ed565b60009384526005016020526040909220546001600160a01b031690911415919050565b6040516303ab749160e21b8152600481018390526001600160a01b0382166024820152600090739fa1EDCC47b75831773Eb969f55b8bFd770aba9c90630eadd24490604401610b7e565b610ca661229d565b81610cb081610c26565b610ccd57604051630f4a6ccd60e21b815260040160405180910390fd5b610c00338484612511565b6000610ce3816126bd565b610c0083836126c7565b6000908152600080516020613bd1833981519152602052604090206001015490565b6040516312d4481960e11b81526001600160a01b0382166004820152600090739fa1EDCC47b75831773Eb969f55b8bFd770aba9c906325a89032906024015b602060405180830381865af4158015610d6b573d6000803e3d6000fd5b505050506040513d601f19601f82011682018060405250810190610b329190613813565b6040516325e1f09f60e01b81526001600160a01b0382166004820152600090739fa1EDCC47b75831773Eb969f55b8bFd770aba9c906325e1f09f90602401602060405180830381865af4158015610dea573d6000803e3d6000fd5b505050506040513d601f19601f82011682018060405250810190610b32919061382c565b6000610e186111d3565b905060005b8151811015610fa8576000828281518110610e3a57610e3a613849565b602002602001015190506000610e5b600080516020613b7183398151915290565b54604080517f5265736f6c766572206d697373696e67207461726765743a200000000000000060208201526039808201869052825180830390910181526059820192839052636795dbcd60e01b9092526001600160a01b0390921691636795dbcd91610ecc91869190605d0161385f565b602060405180830381865afa158015610ee9573d6000803e3d6000fd5b505050506040513d601f19601f82011682018060405250810190610f0d9190613880565b60008381527f4abde63c3e81aefa5764b017968bc473e83e093d7e1a10247d19e0a3e4124019602090815260409182902080546001600160a01b0319166001600160a01b03851690811790915582518681529182015281519293507f88a93678a3692f6789d9546fc621bf7234b101ddb7d4fe479455112831b8aa68929081900390910190a150508080610fa0906138b3565b915050610e1d565b5050565b600080610fb76111d3565b905060005b81518110156110fa576000828281518110610fd957610fd9613849565b60200260200101519050610ff8600080516020613b7183398151915290565b600082815260019190910160205260409020546001600160a01b0316600080516020613b71833981519152546040516321f8a72160e01b8152600481018490526001600160a01b03909116906321f8a72190602401602060405180830381865afa15801561106a573d6000803e3d6000fd5b505050506040513d601f19601f8201168201806040525081019061108e9190613880565b6001600160a01b03161415806110d8575060008181527f4abde63c3e81aefa5764b017968bc473e83e093d7e1a10247d19e0a3e412401960205260409020546001600160a01b0316155b156110e7576000935050505090565b50806110f2816138b3565b915050610fbc565b50600191505090565b61110c82610ced565b611115816126bd565b610c008383612727565b33611128611b3d565b6001600160a01b03161461114e5760405162461bcd60e51b815260040161038e906138cc565b610c0083838361279d565b6001600160a01b03811633146111c95760405162461bcd60e51b815260206004820152602f60248201527f416363657373436f6e74726f6c3a2063616e206f6e6c792072656e6f756e636560448201526e103937b632b9903337b91039b2b63360891b606482015260840161038e565b610fa88282612923565b604080516003808252608082019092526060916020820183803683370190505090507121bab93932b731bca1b7b73a3937b63632b960711b8160008151811061121e5761121e613849565b602002602001018181525050762632b73234b733a6b0b935b2ba21b7b73a3937b63632b960491b8160018151811061125857611258613849565b6020026020010181815250506a14995cd95c9d99519d5b9960aa1b8160028151811061128657611286613849565b60200260200101818152505090565b6112ad600080516020613bf183398151915233611c21565b6112ca5760405163a5523ee560e01b815260040160405180910390fd5b6112d2612997565b565b6060818067ffffffffffffffff8111156112f0576112f0613566565b604051908082528060200260200182016040528015611319578160200160208202803683370190505b50915060005b8181101561137c5761134885858381811061133c5761133c613849565b90506020020135611944565b83828151811061135a5761135a613849565b9115156020928302919091019091015280611374816138b3565b91505061131f565b505092915050565b61138c61229d565b611395336129f6565b6113b2576040516330de277560e21b815260040160405180910390fd5b816113bc81610c26565b6113d957604051630f4a6ccd60e21b815260040160405180910390fd5b604051634ba0c9b560e01b8152739fa1EDCC47b75831773Eb969f55b8bFd770aba9c90634ba0c9b59061141490879087908790600401613901565b60006040518083038186803b15801561142c57600080fd5b505af4158015611440573d6000803e3d6000fd5b5050505050505050565b60006114546124ed565b600092835260070160205250604090205490565b600061147261229d565b61147b336129f6565b611498576040516330de277560e21b815260040160405180910390fd5b846114a281610c26565b6114bf57604051630f4a6ccd60e21b815260040160405180910390fd5b60405163500d2f6d60e01b8152600481018790526001600160a01b0380871660248301528516604482015260648101849052739fa1EDCC47b75831773Eb969f55b8bFd770aba9c9063500d2f6d90608401602060405180830381865af415801561152d573d6000803e3d6000fd5b505050506040513d601f19601f820116820180604052508101906115519190613813565b91506001600160a01b03808516908616877ff8ca259b4b82670be7501ff56ad1fc9c7cd199d3431e3c502f2c5f86884bc15061158d8688613922565b60405190815260200160405180910390a450949350505050565b6000806000739fa1EDCC47b75831773Eb969f55b8bFd770aba9c635257ed678787876040518463ffffffff1660e01b81526004016115e793929190613901565b606060405180830381865af4158015611604573d6000803e3d6000fd5b505050506040513d601f19601f820116820180604052508101906116289190613935565b92509250925093509350939050565b6040516354821c2160e01b81526001600160a01b0382166004820152600090739fa1EDCC47b75831773Eb969f55b8bFd770aba9c906354821c2190602401606060405180830381865af4158015611692573d6000803e3d6000fd5b505050506040513d601f19601f820116820180604052508101906116b69190613935565b50909392505050565b604051635575fba760e01b81526001600160a01b038316600482015260248101829052600090739fa1EDCC47b75831773Eb969f55b8bFd770aba9c90635575fba790604401610b7e565b60408051632910ae9d60e01b81526001600160a01b0384166004820152825160248201526020830151604482015290820151606482015260608201516084820152608082015160a482015260a082015160c482015260c082015160e48201526000908190739fa1EDCC47b75831773Eb969f55b8bFd770aba9c90632910ae9d90610104016040805180830381865af41580156117a9573d6000803e3d6000fd5b505050506040513d601f19601f820116820180604052508101906117cd9190613963565b915091505b9250929050565b336117e2611b3d565b6001600160a01b0316146118085760405162461bcd60e51b815260040161038e906138cc565b611810612a6f565b6001600160a01b0316631eae0893846040518263ffffffff1660e01b815260040161183d91815260200190565b602060405180830381865afa15801561185a573d6000803e3d6000fd5b505050506040513d601f19601f8201168201806040525081019061187e919061382c565b61189b57604051631eb3268560e31b815260040160405180910390fd5b816118a46124ed565b60008581526005919091016020526040902080546001600160a01b0319166001600160a01b039290921691909117905580156118f1576118ef836118e66124ed565b60030190612a79565b505b604080518481526001600160a01b0384166020820152821515918101919091527ff776c30df345d55df252bb5181a0c2bb23d601166606790a6f1b938d7e158503906060015b60405180910390a1505050565b6000610b32826119526124ed565b60030190612a85565b33611964611b3d565b6001600160a01b03161461198a5760405162461bcd60e51b815260040161038e906138cc565b6112d26000612a9d565b600061199f336129f6565b6119bc576040516330de277560e21b815260040160405180910390fd5b816119c681610c26565b6119e357604051630f4a6ccd60e21b815260040160405180910390fd5b604051637d044b4360e01b81526001600160a01b038516600482015260248101849052739fa1EDCC47b75831773Eb969f55b8bFd770aba9c90637d044b4390604401602060405180830381865af4158015611a42573d6000803e3d6000fd5b505050506040513d601f19601f82011682018060405250810190611a669190613813565b91505b5092915050565b604051633ea2414760e11b81526001600160a01b038316600482015260248101829052600090739fa1EDCC47b75831773Eb969f55b8bFd770aba9c90637d44828e90604401606060405180830381865af4158015611ad2573d6000803e3d6000fd5b505050506040513d601f19601f82011682018060405250810190611af69190613935565b5090949350505050565b611b18600080516020613bf183398151915233611c21565b611b355760405163a5523ee560e01b815260040160405180910390fd5b6112d2612b0e565b60007f9acda75aebd150dd434541a4747a6dc606f4f1a59662477e67daf1fc0bf9e0aa610c17565b33611b6e611b3d565b6001600160a01b031614611b945760405162461bcd60e51b815260040161038e906138cc565b81611b9e81610c26565b611bbb57604051630f4a6ccd60e21b815260040160405180910390fd5b8115611bd357611bcd836118e66124ed565b50611bea565b611be883611bdf6124ed565b60030190612b57565b505b6040805184815283151560208201527f97caf2b3b2f0aa460ca08b20c07f7a43ccf688e2f3b7179f2cf9113fb892bf819101611937565b6000918252600080516020613bd1833981519152602090815260408084206001600160a01b0393909316845291905290205460ff1690565b60405163948060dd60e01b81526001600160a01b0382166004820152600090739fa1EDCC47b75831773Eb969f55b8bFd770aba9c9063948060dd90602401610d4e565b611ca461229d565b611cad336129f6565b611cca576040516330de277560e21b815260040160405180910390fd5b610c00838383612511565b611ced600080516020613bf183398151915282611103565b50565b611ced600080516020613bf18339815191528261200a565b60608167ffffffffffffffff811115611d2357611d23613566565b604051908082528060200260200182016040528015611d5657816020015b6060815260200190600190039081611d415790505b50905060005b82811015611a6957611dc630858584818110611d7a57611d7a613849565b9050602002810190611d8c9190613988565b8080601f016020809104026020016040519081016040528093929190818152602001838380828437600092019190915250612b6392505050565b828281518110611dd857611dd8613849565b60200260200101819052508080611dee906138b3565b915050611d5c565b6000611e006124ed565b60009283526005016020525060409020546001600160a01b031690565b600054610100900460ff1615808015611e3d5750600054600160ff909116105b80611e575750303b158015611e57575060005460ff166001145b611eba5760405162461bcd60e51b815260206004820152602e60248201527f496e697469616c697a61626c653a20636f6e747261637420697320616c72656160448201526d191e481a5b9a5d1a585b1a5e995960921b606482015260840161038e565b6000805460ff191660011790558015611edd576000805461ff0019166101001790555b6000611ee7612b88565b6001600160a01b031603611f485760405162461bcd60e51b815260206004820152602260248201527f4d7573742062652063616c6c65642066726f6d2070726f787920636f6e74726160448201526118dd60f21b606482015260840161038e565b611f5187612a9d565b611f5a86612bb0565b611f6382612c19565b611f6c87612ca0565b611f7887868686612cc3565b8015611fbe576000805461ff0019169055604051600181527f7f26b83ff96e1f2b6a682f133852f6798a09c465da95921460cefb38474024989060200160405180910390a15b50505050505050565b60405163ca42303160e01b81526001600160a01b0382166004820152600090739fa1EDCC47b75831773Eb969f55b8bFd770aba9c9063ca42303190602401610d4e565b61201382610ced565b61201c816126bd565b610c008383612923565b606061203b6120336124ed565b600301612cdd565b905090565b6040805160028082526060808301845292602083019080368337019050509050762632b73234b733a6b0b935b2ba21b7b73a3937b63632b960491b8160008151811061208e5761208e613849565b6020026020010181815250506a14995cd95c9d99519d5b9960aa1b8160018151811061128657611286613849565b60008060006120c96124ed565b5492506120d46124ed565b6001015491506120e26124ed565b600201549050909192565b336120f6611b3d565b6001600160a01b03161461211c5760405162461bcd60e51b815260040161038e906138cc565b6001600160a01b0381166121815760405162461bcd60e51b815260206004820152602660248201527f4f776e61626c653a206e6577206f776e657220697320746865207a65726f206160448201526564647265737360d01b606482015260840161038e565b611ced81612a9d565b61219261229d565b61219b336129f6565b6121b8576040516330de277560e21b815260040160405180910390fd5b816121c281610c26565b6121df57604051630f4a6ccd60e21b815260040160405180910390fd5b604051633edef4ed60e21b8152739fa1EDCC47b75831773Eb969f55b8bFd770aba9c9063fb7bd3b49061141490879087908790600401613901565b604051630fc7008160e41b81526001600160a01b0382166004820152606090739fa1EDCC47b75831773Eb969f55b8bFd770aba9c9063fc70081090602401600060405180830381865af4158015612275573d6000803e3d6000fd5b505050506040513d6000823e601f3d908101601f19168201604052610b3291908101906139cf565b600080516020613b918339815191525460ff16156112d25760405162461bcd60e51b815260206004820152601060248201526f14185d5cd8589b194e881c185d5cd95960821b604482015260640161038e565b806000036123115760405163162908e360e11b815260040160405180910390fd5b612319612ce8565b60405163862fd6e560e01b81526001600160a01b038581166004830152919091169063862fd6e590602401602060405180830381865afa158015612361573d6000803e3d6000fd5b505050506040513d601f19601f82011682018060405250810190612385919061382c565b156123a357604051631f6d627d60e11b815260040160405180910390fd5b6123ab612ce8565b604051639519832b60e01b8152600481018490526001600160a01b0385811660248301529190911690639519832b906044016020604051808303816000875af11580156123fc573d6000803e3d6000fd5b505050506040513d601f19601f820116820180604052508101906124209190613813565b5060405163148b8b9d60e11b8152600090739fa1EDCC47b75831773Eb969f55b8bFd770aba9c90632917173a9061245f90879087908790600401613901565b602060405180830381865af415801561247c573d6000803e3d6000fd5b505050506040513d601f19601f820116820180604052508101906124a09190613813565b60408051858152602081018390529192506001600160a01b038616917fc3ded2be7db21b1af963f267d27750e4a15f174547d88b886b9bda43e2c6fa32910160405180910390a250505050565b7f53832330c92cb5d80f0e1ff6fdb9886f7fad39132543bafb7497316eae2a831790565b80158061256457506125586125246124ed565b60008481526005919091016020526040902054600080516020613bb1833981519152546001600160a01b0390811691161490565b80156125645750348114155b156125825760405163162908e360e11b815260040160405180910390fd5b61258a612ce8565b6001600160a01b031663d1cc99766040518163ffffffff1660e01b8152600401602060405180830381865afa1580156125c7573d6000803e3d6000fd5b505050506040513d601f19601f820116820180604052508101906125eb919061382c565b15612609576040516319a90b2f60e21b815260040160405180910390fd5b604051631d64487f60e31b8152739fa1EDCC47b75831773Eb969f55b8bFd770aba9c9063eb2243f89061264490869086908690600401613901565b60006040518083038186803b15801561265c57600080fd5b505af4158015612670573d6000803e3d6000fd5b505060408051858152602081018590526001600160a01b03871693507f19dacbf83c5de6658e14cbf7bcae5c15eca2eedecf1c66fbca928e4d351bea0f92500160405180910390a2505050565b611ced8133612cf2565b60006126d283610ced565b6000848152600080516020613bd18339815191526020526040808220600101859055519192508391839186917fbd79b86ffe0ab8e8776151514217cd7cacd52c909f66475c3af44e129f0b00ff9190a4505050565b6127318282611c21565b610fa8576000828152600080516020613bd1833981519152602090815260408083206001600160a01b0385168085529252808320805460ff1916600117905551339285917f2f8788117e7eff1d82e926ec794901d17c78024a50270940304540a733656f0d9190a45050565b826000036127be57604051630821f57960e31b815260040160405180910390fd5b6127108211156127e1576040516370a4af3d60e01b815260040160405180910390fd5b61271081111561280457604051631da7276f60e01b815260040160405180910390fd5b61280c6124ed565b54831461285f577fd3353684d64f1c80498433d8407c96e6bbeb1ec88b6200ec97d2c910fdbd0da461283c6124ed565b5460408051918252602082018690520160405180910390a18261285d6124ed565b555b6128676124ed565b6001015482146128c3577f651b17c8e9402610e6210cfaa5b252d2186f8a16adf58c9c0fd5793bc4ea9b1f61289a6124ed565b6001015460408051918252602082018590520160405180910390a1816128be6124ed565b600101555b6128cb6124ed565b600201548114610c0057806128de6124ed565b600201557f7e8f030f9238551b066874b952f0c6ba811ba426ab231ba4825421d5d8f5cd9561290b6124ed565b60020154604080519182526020820184905201611937565b61292d8282611c21565b15610fa8576000828152600080516020613bd1833981519152602090815260408083206001600160a01b0385168085529252808320805460ff1916905551339285917ff6391f5c32d9c69d2a47ea670b442974b53935d1edc7fd64eb21e047a839171b9190a45050565b61299f612d56565b600080516020613b91833981519152805460ff191690557f5db9ee0a495bf2e6ff9c91a7834c1ba4fdd244a5e8aa4e537bd38aeae4b073aa335b6040516001600160a01b03909116815260200160405180910390a1565b600080612a01612040565b905060005b8151811015612a6557612a31828281518110612a2457612a24613849565b6020026020010151612dac565b6001600160a01b0316846001600160a01b031603612a53575060019392505050565b80612a5d816138b3565b915050612a06565b5060009392505050565b600061203b612db7565b6000610bbf8383612dd7565b60008181526001830160205260408120541515610bbf565b7f9acda75aebd150dd434541a4747a6dc606f4f1a59662477e67daf1fc0bf9e0aa80546001600160a01b038381166001600160a01b0319831681179093556040519116919082907f8be0079c531659141344cd1fd0a4f28419497f9722a3daafe3b4186f6b6457e090600090a35050565b612b1661229d565b600080516020613b91833981519152805460ff191660011790557f62e78cea01bee320cd4e420270b5ea74000d11b0c9f74754ebdbfc544b05a258336129d9565b6000610bbf8383612e26565b6060610bbf8383604051806060016040528060278152602001613c1160279139612f19565b60007f360894a13ba1a3210667c828492db98dca3e2076cc3735a920a3ca505d382bbc610c17565b600080516020613b71833981519152546001600160a01b031615612be7576040516304b79d6360e51b815260040160405180910390fd5b80600080516020613b718339815191525b80546001600160a01b0319166001600160a01b039290921691909117905550565b600080516020613bb1833981519152546001600160a01b031615612c8b5760405162461bcd60e51b815260206004820152602360248201527f5472616e7366657248656c7065723a20416c726561647920696e697469616c696044820152621e995960ea1b606482015260840161038e565b80600080516020613bb1833981519152612bf8565b612cab600082612ff6565b611ced600080516020613bf183398151915282612727565b612ccc84612a9d565b612cd783838361279d565b50505050565b6060610b3282613000565b600061203b61305c565b612cfc8282611c21565b610fa857612d14816001600160a01b03166014613081565b612d1f836020613081565b604051602001612d30929190613a75565b60408051601f198184030181529082905262461bcd60e51b825261038e91600401613aea565b600080516020613b918339815191525460ff166112d25760405162461bcd60e51b815260206004820152601460248201527314185d5cd8589b194e881b9bdd081c185d5cd95960621b604482015260640161038e565b6000610b328261321d565b600061203b7121bab93932b731bca1b7b73a3937b63632b960711b61321d565b6000818152600183016020526040812054612e1e57508154600181810184556000848152602080822090930184905584548482528286019093526040902091909155610b32565b506000610b32565b60008181526001830160205260408120548015612f0f576000612e4a600183613922565b8554909150600090612e5e90600190613922565b9050818114612ec3576000866000018281548110612e7e57612e7e613849565b9060005260206000200154905080876000018481548110612ea157612ea1613849565b6000918252602080832090910192909255918252600188019052604090208390555b8554869080612ed457612ed4613afd565b600190038181906000526020600020016000905590558560010160008681526020019081526020016000206000905560019350505050610b32565b6000915050610b32565b60606001600160a01b0384163b612f815760405162461bcd60e51b815260206004820152602660248201527f416464726573733a2064656c65676174652063616c6c20746f206e6f6e2d636f6044820152651b9d1c9858dd60d21b606482015260840161038e565b600080856001600160a01b031685604051612f9c9190613b13565b600060405180830381855af49150503d8060008114612fd7576040519150601f19603f3d011682016040523d82523d6000602084013e612fdc565b606091505b5091509150612fec82828661328c565b9695505050505050565b610fa88282612727565b60608160000180548060200260200160405190810160405280929190818152602001828054801561305057602002820191906000526020600020905b81548152602001906001019080831161303c575b50505050509050919050565b600061203b762632b73234b733a6b0b935b2ba21b7b73a3937b63632b960491b61321d565b60606000613090836002613b2f565b61309b906002613b46565b67ffffffffffffffff8111156130b3576130b3613566565b6040519080825280601f01601f1916602001820160405280156130dd576020820181803683370190505b509050600360fc1b816000815181106130f8576130f8613849565b60200101906001600160f81b031916908160001a905350600f60fb1b8160018151811061312757613127613849565b60200101906001600160f81b031916908160001a905350600061314b846002613b2f565b613156906001613b46565b90505b60018111156131ce576f181899199a1a9b1b9c1cb0b131b232b360811b85600f166010811061318a5761318a613849565b1a60f81b8282815181106131a0576131a0613849565b60200101906001600160f81b031916908160001a90535060049490941c936131c781613b59565b9050613159565b508315610bbf5760405162461bcd60e51b815260206004820181905260248201527f537472696e67733a20686578206c656e67746820696e73756666696369656e74604482015260640161038e565b60008181527f4abde63c3e81aefa5764b017968bc473e83e093d7e1a10247d19e0a3e412401960205260408120546001600160a01b031680610b325760408051602081018590520160408051601f19818403018152908290526346e2ec9360e01b825261038e91600401613aea565b6060831561329b575081610bbf565b8251156132ab5782518084602001fd5b8160405162461bcd60e51b815260040161038e9190613aea565b6000602082840312156132d757600080fd5b5035919050565b6000602082840312156132f057600080fd5b81356001600160e01b031981168114610bbf57600080fd5b6001600160a01b0381168114611ced57600080fd5b6000806040838503121561333057600080fd5b823561333b81613308565b946020939093013593505050565b6000806040838503121561335c57600080fd5b50508035926020909101359150565b6000806040838503121561337e57600080fd5b82359150602083013561339081613308565b809150509250929050565b6000602082840312156133ad57600080fd5b8135610bbf81613308565b6000806000606084860312156133cd57600080fd5b505081359360208301359350604090920135919050565b6020808252825182820181905260009190848201906040850190845b8181101561341c57835183529284019291840191600101613400565b50909695505050505050565b60008083601f84011261343a57600080fd5b50813567ffffffffffffffff81111561345257600080fd5b6020830191508360208260051b85010111156117d257600080fd5b6000806020838503121561348057600080fd5b823567ffffffffffffffff81111561349757600080fd5b6134a385828601613428565b90969095509350505050565b6020808252825182820181905260009190848201906040850190845b8181101561341c5783511515835292840192918401916001016134cb565b6000806000606084860312156134fe57600080fd5b833561350981613308565b95602085013595506040909401359392505050565b6000806000806080858703121561353457600080fd5b84359350602085013561354681613308565b9250604085013561355681613308565b9396929550929360600135925050565b634e487b7160e01b600052604160045260246000fd5b60405160e0810167ffffffffffffffff8111828210171561359f5761359f613566565b60405290565b604051601f8201601f1916810167ffffffffffffffff811182821017156135ce576135ce613566565b604052919050565b6000808284036101008112156135eb57600080fd5b83356135f681613308565b925060e0601f198201121561360a57600080fd5b5061361361357c565b6020840135815260408401356020820152606084013560408201526080840135606082015260a0840135608082015260c084013560a082015260e084013560c0820152809150509250929050565b8015158114611ced57600080fd5b60008060006060848603121561368457600080fd5b83359250602084013561369681613308565b915060408401356136a681613661565b809150509250925092565b600080604083850312156136c457600080fd5b82359150602083013561339081613661565b60005b838110156136f15781810151838201526020016136d9565b50506000910152565b600081518084526137128160208601602086016136d6565b601f01601f19169290920160200192915050565b6000602080830181845280855180835260408601915060408160051b870101925083870160005b8281101561377b57603f198886030184526137698583516136fa565b9450928501929085019060010161374d565b5092979650505050505050565b60008060008060008060c087890312156137a157600080fd5b86356137ac81613308565b955060208701356137bc81613308565b945060408701359350606087013592506080870135915060a08701356137e181613308565b809150509295509295509295565b6000806040838503121561380257600080fd5b505080516020909101519092909150565b60006020828403121561382557600080fd5b5051919050565b60006020828403121561383e57600080fd5b8151610bbf81613661565b634e487b7160e01b600052603260045260246000fd5b82815260406020820152600061387860408301846136fa565b949350505050565b60006020828403121561389257600080fd5b8151610bbf81613308565b634e487b7160e01b600052601160045260246000fd5b6000600182016138c5576138c561389d565b5060010190565b6020808252818101527f4f776e61626c653a2063616c6c6572206973206e6f7420746865206f776e6572604082015260600190565b6001600160a01b039390931683526020830191909152604082015260600190565b81810381811115610b3257610b3261389d565b60008060006060848603121561394a57600080fd5b8351925060208401519150604084015190509250925092565b6000806040838503121561397657600080fd5b82519150602083015161339081613661565b6000808335601e1984360301811261399f57600080fd5b83018035915067ffffffffffffffff8211156139ba57600080fd5b6020019150368190038213156117d257600080fd5b600060208083850312156139e257600080fd5b825167ffffffffffffffff808211156139fa57600080fd5b818501915085601f830112613a0e57600080fd5b815181811115613a2057613a20613566565b8060051b9150613a318483016135a5565b8181529183018401918481019088841115613a4b57600080fd5b938501935b83851015613a6957845182529385019390850190613a50565b98975050505050505050565b7f416363657373436f6e74726f6c3a206163636f756e7420000000000000000000815260008351613aad8160178501602088016136d6565b7001034b99036b4b9b9b4b733903937b6329607d1b6017918401918201528351613ade8160288401602088016136d6565b01602801949350505050565b602081526000610bbf60208301846136fa565b634e487b7160e01b600052603160045260246000fd5b60008251613b258184602087016136d6565b9190910192915050565b8082028115828204841417610b3257610b3261389d565b80820180821115610b3257610b3261389d565b600081613b6857613b6861389d565b50600019019056fe4abde63c3e81aefa5764b017968bc473e83e093d7e1a10247d19e0a3e41240189c789132bdb3678132848a8dcd780bffd2b1abdce3984c522ac1d8aeb48f05f36f969d660e14559aec53d066903ba87981d0679d31bf1d3793a220e70e02808b35e4a72724550e3953b041d501f29ff9ff417812c2917a203d9c4833b9d1d6f997667070c54ef182b0f5858b034beac1b6f3089aa2d3188bb1e8929f4fa9b929416464726573733a206c6f772d6c6576656c2064656c65676174652063616c6c206661696c6564a26469706673582212203c38f75e3ba27803824eb563f69b819489c2a18baa47e62a9b2955c75938038464736f6c63430008130033",
  "deployedBytecode": "0x6080604052600436106103535760003560e01c806359047200116101c6578063a217fddf116100f7578063d5e190d011610095578063f2fde38b1161006f578063f2fde38b14610a00578063f5b541a614610a20578063fb7bd3b414610a42578063fc70081014610a6257600080fd5b8063d5e190d0146109c1578063e0997659146109d6578063ed6dd514146109eb57600080fd5b8063b12e4410116100d1578063b12e441014610941578063b1a5d12d14610961578063ca42303114610981578063d547741f146109a157600080fd5b8063a217fddf146108df578063ac8a584a146108f4578063ac9650d81461091457600080fd5b80638456cb591161016457806391d148541161013e57806391d148541461086c578063948060dd1461088c57806396994e37146108ac5780639870d7fe146108bf57600080fd5b80638456cb59146108225780638da5cb5b146108375780638e19aff31461084c57600080fd5b80635d95df8a116101a05780635d95df8a146107ad578063715018a6146107cd5780637d044b43146107e25780637d44828e1461080257600080fd5b806359047200146107335780635bffeb66146107685780635c975abb1461078857600080fd5b806329985e5a116102a05780633f90a08e1161023e578063500d2f6d11610218578063500d2f6d146106985780635257ed67146106b857806354821c21146106f35780635575fba71461071357600080fd5b80633f90a08e1461062b5780634ba0c9b5146106585780634c6aa99c1461067857600080fd5b806330312daa1161027a57806330312daa146105b457806336568abe146105d45780633d03b9da146105f45780633f4ba83a1461061657600080fd5b806329985e5a1461056a5780632af64bd31461057f5780632f2ff15d1461059457600080fd5b80630eadd2441161030d5780631e4e0091116102e75780631e4e0091146104ea578063248a9ca31461050a57806325a890321461052a57806325e1f09f1461054a57600080fd5b80630eadd244146104a35780631316529d146104c35780631de26e16146104d757600080fd5b8062fcf2621461039e57806301ffc9a7146103d85780630253cd7e14610408578063040cf0201461043657806304f3bcec146104565780630cf7505d1461048357600080fd5b3661039957600080516020613bb1833981519152546001600160a01b031633146103975760405163efd4e4e160e01b81523360048201526024015b60405180910390fd5b005b600080fd5b3480156103aa57600080fd5b506103be6103b93660046132c5565b610a82565b604080519283526020830191909152015b60405180910390f35b3480156103e457600080fd5b506103f86103f33660046132de565b610b01565b60405190151581526020016103cf565b34801561041457600080fd5b5061042861042336600461331d565b610b38565b6040519081526020016103cf565b34801561044257600080fd5b50610397610451366004613349565b610bc6565b34801561046257600080fd5b5061046b610c05565b6040516001600160a01b0390911681526020016103cf565b34801561048f57600080fd5b506103f861049e3660046132c5565b610c26565b3480156104af57600080fd5b506104286104be36600461336b565b610c54565b3480156104cf57600080fd5b506001610428565b6103976104e5366004613349565b610c9e565b3480156104f657600080fd5b50610397610505366004613349565b610cd8565b34801561051657600080fd5b506104286105253660046132c5565b610ced565b34801561053657600080fd5b5061042861054536600461339b565b610d0f565b34801561055657600080fd5b506103f861056536600461339b565b610d8f565b34801561057657600080fd5b50610397610e0e565b34801561058b57600080fd5b506103f8610fac565b3480156105a057600080fd5b506103976105af36600461336b565b611103565b3480156105c057600080fd5b506103976105cf3660046133b8565b61111f565b3480156105e057600080fd5b506103976105ef36600461336b565b611159565b34801561060057600080fd5b506106096111d3565b6040516103cf91906133e4565b34801561062257600080fd5b50610397611295565b34801561063757600080fd5b5061064b61064636600461346d565b6112d4565b6040516103cf91906134af565b34801561066457600080fd5b506103976106733660046134e9565b611384565b34801561068457600080fd5b506104286106933660046132c5565b61144a565b3480156106a457600080fd5b506104286106b336600461351e565b611468565b3480156106c457600080fd5b506106d86106d33660046134e9565b6115a7565b604080519384526020840192909252908201526060016103cf565b3480156106ff57600080fd5b5061042861070e36600461339b565b611637565b34801561071f57600080fd5b5061042861072e36600461331d565b6116bf565b34801561073f57600080fd5b5061075361074e3660046135d6565b611709565b604080519283529015156020830152016103cf565b34801561077457600080fd5b5061039761078336600461366f565b6117d9565b34801561079457600080fd5b50600080516020613b918339815191525460ff166103f8565b3480156107b957600080fd5b506103f86107c83660046132c5565b611944565b3480156107d957600080fd5b5061039761195b565b3480156107ee57600080fd5b506104286107fd36600461331d565b611994565b34801561080e57600080fd5b5061042861081d36600461331d565b611a70565b34801561082e57600080fd5b50610397611b00565b34801561084357600080fd5b5061046b611b3d565b34801561085857600080fd5b506103976108673660046136b1565b611b65565b34801561087857600080fd5b506103f861088736600461336b565b611c21565b34801561089857600080fd5b506104286108a736600461339b565b611c59565b6103976108ba3660046134e9565b611c9c565b3480156108cb57600080fd5b506103976108da36600461339b565b611cd5565b3480156108eb57600080fd5b50610428600081565b34801561090057600080fd5b5061039761090f36600461339b565b611cf0565b34801561092057600080fd5b5061093461092f36600461346d565b611d08565b6040516103cf9190613726565b34801561094d57600080fd5b5061046b61095c3660046132c5565b611df6565b34801561096d57600080fd5b5061039761097c366004613788565b611e1d565b34801561098d57600080fd5b5061042861099c36600461339b565b611fc7565b3480156109ad57600080fd5b506103976109bc36600461336b565b61200a565b3480156109cd57600080fd5b50610609612026565b3480156109e257600080fd5b50610609612040565b3480156109f757600080fd5b506106d86120bc565b348015610a0c57600080fd5b50610397610a1b36600461339b565b6120ed565b348015610a2c57600080fd5b50610428600080516020613bf183398151915281565b348015610a4e57600080fd5b50610397610a5d3660046134e9565b61218a565b348015610a6e57600080fd5b50610609610a7d36600461339b565b61221a565b604051627e793160e11b815260048101829052600090819073__$e77f6d4722b46e0b0a57517726dbfd997e$__9062fcf262906024016040805180830381865af4158015610ad4573d6000803e3d6000fd5b505050506040513d601f19601f82011682018060405250810190610af891906137ef565b91509150915091565b60006001600160e01b03198216637965db0b60e01b1480610b3257506301ffc9a760e01b6001600160e01b03198316145b92915050565b604051630129e6bf60e11b81526001600160a01b03831660048201526024810182905260009073__$e77f6d4722b46e0b0a57517726dbfd997e$__90630253cd7e906044015b602060405180830381865af4158015610b9b573d6000803e3d6000fd5b505050506040513d601f19601f82011682018060405250810190610bbf9190613813565b9392505050565b610bce61229d565b81610bd881610c26565b610bf557604051630f4a6ccd60e21b815260040160405180910390fd5b610c003384846122f0565b505050565b6000600080516020613b718339815191525b546001600160a01b0316919050565b600080610c316124ed565b60009384526005016020526040909220546001600160a01b031690911415919050565b6040516303ab749160e21b8152600481018390526001600160a01b038216602482015260009073__$e77f6d4722b46e0b0a57517726dbfd997e$__90630eadd24490604401610b7e565b610ca661229d565b81610cb081610c26565b610ccd57604051630f4a6ccd60e21b815260040160405180910390fd5b610c00338484612511565b6000610ce3816126bd565b610c0083836126c7565b6000908152600080516020613bd1833981519152602052604090206001015490565b6040516312d4481960e11b81526001600160a01b038216600482015260009073__$e77f6d4722b46e0b0a57517726dbfd997e$__906325a89032906024015b602060405180830381865af4158015610d6b573d6000803e3d6000fd5b505050506040513d601f19601f82011682018060405250810190610b329190613813565b6040516325e1f09f60e01b81526001600160a01b038216600482015260009073__$e77f6d4722b46e0b0a57517726dbfd997e$__906325e1f09f90602401602060405180830381865af4158015610dea573d6000803e3d6000fd5b505050506040513d601f19601f82011682018060405250810190610b32919061382c565b6000610e186111d3565b905060005b8151811015610fa8576000828281518110610e3a57610e3a613849565b602002602001015190506000610e5b600080516020613b7183398151915290565b54604080517f5265736f6c766572206d697373696e67207461726765743a200000000000000060208201526039808201869052825180830390910181526059820192839052636795dbcd60e01b9092526001600160a01b0390921691636795dbcd91610ecc91869190605d0161385f565b602060405180830381865afa158015610ee9573d6000803e3d6000fd5b505050506040513d601f19601f82011682018060405250810190610f0d9190613880565b60008381527f4abde63c3e81aefa5764b017968bc473e83e093d7e1a10247d19e0a3e4124019602090815260409182902080546001600160a01b0319166001600160a01b03851690811790915582518681529182015281519293507f88a93678a3692f6789d9546fc621bf7234b101ddb7d4fe479455112831b8aa68929081900390910190a150508080610fa0906138b3565b915050610e1d565b5050565b600080610fb76111d3565b905060005b81518110156110fa576000828281518110610fd957610fd9613849565b60200260200101519050610ff8600080516020613b7183398151915290565b600082815260019190910160205260409020546001600160a01b0316600080516020613b71833981519152546040516321f8a72160e01b8152600481018490526001600160a01b03909116906321f8a72190602401602060405180830381865afa15801561106a573d6000803e3d6000fd5b505050506040513d601f19601f8201168201806040525081019061108e9190613880565b6001600160a01b03161415806110d8575060008181527f4abde63c3e81aefa5764b017968bc473e83e093d7e1a10247d19e0a3e412401960205260409020546001600160a01b0316155b156110e7576000935050505090565b50806110f2816138b3565b915050610fbc565b50600191505090565b61110c82610ced565b611115816126bd565b610c008383612727565b33611128611b3d565b6001600160a01b03161461114e5760405162461bcd60e51b815260040161038e906138cc565b610c0083838361279d565b6001600160a01b03811633146111c95760405162461bcd60e51b815260206004820152602f60248201527f416363657373436f6e74726f6c3a2063616e206f6e6c792072656e6f756e636560448201526e103937b632b9903337b91039b2b63360891b606482015260840161038e565b610fa88282612923565b604080516003808252608082019092526060916020820183803683370190505090507121bab93932b731bca1b7b73a3937b63632b960711b8160008151811061121e5761121e613849565b602002602001018181525050762632b73234b733a6b0b935b2ba21b7b73a3937b63632b960491b8160018151811061125857611258613849565b6020026020010181815250506a14995cd95c9d99519d5b9960aa1b8160028151811061128657611286613849565b60200260200101818152505090565b6112ad600080516020613bf183398151915233611c21565b6112ca5760405163a5523ee560e01b815260040160405180910390fd5b6112d2612997565b565b6060818067ffffffffffffffff8111156112f0576112f0613566565b604051908082528060200260200182016040528015611319578160200160208202803683370190505b50915060005b8181101561137c5761134885858381811061133c5761133c613849565b90506020020135611944565b83828151811061135a5761135a613849565b9115156020928302919091019091015280611374816138b3565b91505061131f565b505092915050565b61138c61229d565b611395336129f6565b6113b2576040516330de277560e21b815260040160405180910390fd5b816113bc81610c26565b6113d957604051630f4a6ccd60e21b815260040160405180910390fd5b604051634ba0c9b560e01b815273__$e77f6d4722b46e0b0a57517726dbfd997e$__90634ba0c9b59061141490879087908790600401613901565b60006040518083038186803b15801561142c57600080fd5b505af4158015611440573d6000803e3d6000fd5b5050505050505050565b60006114546124ed565b600092835260070160205250604090205490565b600061147261229d565b61147b336129f6565b611498576040516330de277560e21b815260040160405180910390fd5b846114a281610c26565b6114bf57604051630f4a6ccd60e21b815260040160405180910390fd5b60405163500d2f6d60e01b8152600481018790526001600160a01b038087166024830152851660448201526064810184905273__$e77f6d4722b46e0b0a57517726dbfd997e$__9063500d2f6d90608401602060405180830381865af415801561152d573d6000803e3d6000fd5b505050506040513d601f19601f820116820180604052508101906115519190613813565b91506001600160a01b03808516908616877ff8ca259b4b82670be7501ff56ad1fc9c7cd199d3431e3c502f2c5f86884bc15061158d8688613922565b60405190815260200160405180910390a450949350505050565b600080600073__$e77f6d4722b46e0b0a57517726dbfd997e$__635257ed678787876040518463ffffffff1660e01b81526004016115e793929190613901565b606060405180830381865af4158015611604573d6000803e3d6000fd5b505050506040513d601f19601f820116820180604052508101906116289190613935565b92509250925093509350939050565b6040516354821c2160e01b81526001600160a01b038216600482015260009073__$e77f6d4722b46e0b0a57517726dbfd997e$__906354821c2190602401606060405180830381865af4158015611692573d6000803e3d6000fd5b505050506040513d601f19601f820116820180604052508101906116b69190613935565b50909392505050565b604051635575fba760e01b81526001600160a01b03831660048201526024810182905260009073__$e77f6d4722b46e0b0a57517726dbfd997e$__90635575fba790604401610b7e565b60408051632910ae9d60e01b81526001600160a01b0384166004820152825160248201526020830151604482015290820151606482015260608201516084820152608082015160a482015260a082015160c482015260c082015160e4820152600090819073__$e77f6d4722b46e0b0a57517726dbfd997e$__90632910ae9d90610104016040805180830381865af41580156117a9573d6000803e3d6000fd5b505050506040513d601f19601f820116820180604052508101906117cd9190613963565b915091505b9250929050565b336117e2611b3d565b6001600160a01b0316146118085760405162461bcd60e51b815260040161038e906138cc565b611810612a6f565b6001600160a01b0316631eae0893846040518263ffffffff1660e01b815260040161183d91815260200190565b602060405180830381865afa15801561185a573d6000803e3d6000fd5b505050506040513d601f19601f8201168201806040525081019061187e919061382c565b61189b57604051631eb3268560e31b815260040160405180910390fd5b816118a46124ed565b60008581526005919091016020526040902080546001600160a01b0319166001600160a01b039290921691909117905580156118f1576118ef836118e66124ed565b60030190612a79565b505b604080518481526001600160a01b0384166020820152821515918101919091527ff776c30df345d55df252bb5181a0c2bb23d601166606790a6f1b938d7e158503906060015b60405180910390a1505050565b6000610b32826119526124ed565b60030190612a85565b33611964611b3d565b6001600160a01b03161461198a5760405162461bcd60e51b815260040161038e906138cc565b6112d26000612a9d565b600061199f336129f6565b6119bc576040516330de277560e21b815260040160405180910390fd5b816119c681610c26565b6119e357604051630f4a6ccd60e21b815260040160405180910390fd5b604051637d044b4360e01b81526001600160a01b03851660048201526024810184905273__$e77f6d4722b46e0b0a57517726dbfd997e$__90637d044b4390604401602060405180830381865af4158015611a42573d6000803e3d6000fd5b505050506040513d601f19601f82011682018060405250810190611a669190613813565b91505b5092915050565b604051633ea2414760e11b81526001600160a01b03831660048201526024810182905260009073__$e77f6d4722b46e0b0a57517726dbfd997e$__90637d44828e90604401606060405180830381865af4158015611ad2573d6000803e3d6000fd5b505050506040513d601f19601f82011682018060405250810190611af69190613935565b5090949350505050565b611b18600080516020613bf183398151915233611c21565b611b355760405163a5523ee560e01b815260040160405180910390fd5b6112d2612b0e565b60007f9acda75aebd150dd434541a4747a6dc606f4f1a59662477e67daf1fc0bf9e0aa610c17565b33611b6e611b3d565b6001600160a01b031614611b945760405162461bcd60e51b815260040161038e906138cc565b81611b9e81610c26565b611bbb57604051630f4a6ccd60e21b815260040160405180910390fd5b8115611bd357611bcd836118e66124ed565b50611bea565b611be883611bdf6124ed565b60030190612b57565b505b6040805184815283151560208201527f97caf2b3b2f0aa460ca08b20c07f7a43ccf688e2f3b7179f2cf9113fb892bf819101611937565b6000918252600080516020613bd1833981519152602090815260408084206001600160a01b0393909316845291905290205460ff1690565b60405163948060dd60e01b81526001600160a01b038216600482015260009073__$e77f6d4722b46e0b0a57517726dbfd997e$__9063948060dd90602401610d4e565b611ca461229d565b611cad336129f6565b611cca576040516330de277560e21b815260040160405180910390fd5b610c00838383612511565b611ced600080516020613bf183398151915282611103565b50565b611ced600080516020613bf18339815191528261200a565b60608167ffffffffffffffff811115611d2357611d23613566565b604051908082528060200260200182016040528015611d5657816020015b6060815260200190600190039081611d415790505b50905060005b82811015611a6957611dc630858584818110611d7a57611d7a613849565b9050602002810190611d8c9190613988565b8080601f016020809104026020016040519081016040528093929190818152602001838380828437600092019190915250612b6392505050565b828281518110611dd857611dd8613849565b60200260200101819052508080611dee906138b3565b915050611d5c565b6000611e006124ed565b60009283526005016020525060409020546001600160a01b031690565b600054610100900460ff1615808015611e3d5750600054600160ff909116105b80611e575750303b158015611e57575060005460ff166001145b611eba5760405162461bcd60e51b815260206004820152602e60248201527f496e697469616c697a61626c653a20636f6e747261637420697320616c72656160448201526d191e481a5b9a5d1a585b1a5e995960921b606482015260840161038e565b6000805460ff191660011790558015611edd576000805461ff0019166101001790555b6000611ee7612b88565b6001600160a01b031603611f485760405162461bcd60e51b815260206004820152602260248201527f4d7573742062652063616c6c65642066726f6d2070726f787920636f6e74726160448201526118dd60f21b606482015260840161038e565b611f5187612a9d565b611f5a86612bb0565b611f6382612c19565b611f6c87612ca0565b611f7887868686612cc3565b8015611fbe576000805461ff0019169055604051600181527f7f26b83ff96e1f2b6a682f133852f6798a09c465da95921460cefb38474024989060200160405180910390a15b50505050505050565b60405163ca42303160e01b81526001600160a01b038216600482015260009073__$e77f6d4722b46e0b0a57517726dbfd997e$__9063ca42303190602401610d4e565b61201382610ced565b61201c816126bd565b610c008383612923565b606061203b6120336124ed565b600301612cdd565b905090565b6040805160028082526060808301845292602083019080368337019050509050762632b73234b733a6b0b935b2ba21b7b73a3937b63632b960491b8160008151811061208e5761208e613849565b6020026020010181815250506a14995cd95c9d99519d5b9960aa1b8160018151811061128657611286613849565b60008060006120c96124ed565b5492506120d46124ed565b6001015491506120e26124ed565b600201549050909192565b336120f6611b3d565b6001600160a01b03161461211c5760405162461bcd60e51b815260040161038e906138cc565b6001600160a01b0381166121815760405162461bcd60e51b815260206004820152602660248201527f4f776e61626c653a206e6577206f776e657220697320746865207a65726f206160448201526564647265737360d01b606482015260840161038e565b611ced81612a9d565b61219261229d565b61219b336129f6565b6121b8576040516330de277560e21b815260040160405180910390fd5b816121c281610c26565b6121df57604051630f4a6ccd60e21b815260040160405180910390fd5b604051633edef4ed60e21b815273__$e77f6d4722b46e0b0a57517726dbfd997e$__9063fb7bd3b49061141490879087908790600401613901565b604051630fc7008160e41b81526001600160a01b038216600482015260609073__$e77f6d4722b46e0b0a57517726dbfd997e$__9063fc70081090602401600060405180830381865af4158015612275573d6000803e3d6000fd5b505050506040513d6000823e601f3d908101601f19168201604052610b3291908101906139cf565b600080516020613b918339815191525460ff16156112d25760405162461bcd60e51b815260206004820152601060248201526f14185d5cd8589b194e881c185d5cd95960821b604482015260640161038e565b806000036123115760405163162908e360e11b815260040160405180910390fd5b612319612ce8565b60405163862fd6e560e01b81526001600160a01b038581166004830152919091169063862fd6e590602401602060405180830381865afa158015612361573d6000803e3d6000fd5b505050506040513d601f19601f82011682018060405250810190612385919061382c565b156123a357604051631f6d627d60e11b815260040160405180910390fd5b6123ab612ce8565b604051639519832b60e01b8152600481018490526001600160a01b0385811660248301529190911690639519832b906044016020604051808303816000875af11580156123fc573d6000803e3d6000fd5b505050506040513d601f19601f820116820180604052508101906124209190613813565b5060405163148b8b9d60e11b815260009073__$e77f6d4722b46e0b0a57517726dbfd997e$__90632917173a9061245f90879087908790600401613901565b602060405180830381865af415801561247c573d6000803e3d6000fd5b505050506040513d601f19601f820116820180604052508101906124a09190613813565b60408051858152602081018390529192506001600160a01b038616917fc3ded2be7db21b1af963f267d27750e4a15f174547d88b886b9bda43e2c6fa32910160405180910390a250505050565b7f53832330c92cb5d80f0e1ff6fdb9886f7fad39132543bafb7497316eae2a831790565b80158061256457506125586125246124ed565b60008481526005919091016020526040902054600080516020613bb1833981519152546001600160a01b0390811691161490565b80156125645750348114155b156125825760405163162908e360e11b815260040160405180910390fd5b61258a612ce8565b6001600160a01b031663d1cc99766040518163ffffffff1660e01b8152600401602060405180830381865afa1580156125c7573d6000803e3d6000fd5b505050506040513d601f19601f820116820180604052508101906125eb919061382c565b15612609576040516319a90b2f60e21b815260040160405180910390fd5b604051631d64487f60e31b815273__$e77f6d4722b46e0b0a57517726dbfd997e$__9063eb2243f89061264490869086908690600401613901565b60006040518083038186803b15801561265c57600080fd5b505af4158015612670573d6000803e3d6000fd5b505060408051858152602081018590526001600160a01b03871693507f19dacbf83c5de6658e14cbf7bcae5c15eca2eedecf1c66fbca928e4d351bea0f92500160405180910390a2505050565b611ced8133612cf2565b60006126d283610ced565b6000848152600080516020613bd18339815191526020526040808220600101859055519192508391839186917fbd79b86ffe0ab8e8776151514217cd7cacd52c909f66475c3af44e129f0b00ff9190a4505050565b6127318282611c21565b610fa8576000828152600080516020613bd1833981519152602090815260408083206001600160a01b0385168085529252808320805460ff1916600117905551339285917f2f8788117e7eff1d82e926ec794901d17c78024a50270940304540a733656f0d9190a45050565b826000036127be57604051630821f57960e31b815260040160405180910390fd5b6127108211156127e1576040516370a4af3d60e01b815260040160405180910390fd5b61271081111561280457604051631da7276f60e01b815260040160405180910390fd5b61280c6124ed565b54831461285f577fd3353684d64f1c80498433d8407c96e6bbeb1ec88b6200ec97d2c910fdbd0da461283c6124ed565b5460408051918252602082018690520160405180910390a18261285d6124ed565b555b6128676124ed565b6001015482146128c3577f651b17c8e9402610e6210cfaa5b252d2186f8a16adf58c9c0fd5793bc4ea9b1f61289a6124ed565b6001015460408051918252602082018590520160405180910390a1816128be6124ed565b600101555b6128cb6124ed565b600201548114610c0057806128de6124ed565b600201557f7e8f030f9238551b066874b952f0c6ba811ba426ab231ba4825421d5d8f5cd9561290b6124ed565b60020154604080519182526020820184905201611937565b61292d8282611c21565b15610fa8576000828152600080516020613bd1833981519152602090815260408083206001600160a01b0385168085529252808320805460ff1916905551339285917ff6391f5c32d9c69d2a47ea670b442974b53935d1edc7fd64eb21e047a839171b9190a45050565b61299f612d56565b600080516020613b91833981519152805460ff191690557f5db9ee0a495bf2e6ff9c91a7834c1ba4fdd244a5e8aa4e537bd38aeae4b073aa335b6040516001600160a01b03909116815260200160405180910390a1565b600080612a01612040565b905060005b8151811015612a6557612a31828281518110612a2457612a24613849565b6020026020010151612dac565b6001600160a01b0316846001600160a01b031603612a53575060019392505050565b80612a5d816138b3565b915050612a06565b5060009392505050565b600061203b612db7565b6000610bbf8383612dd7565b60008181526001830160205260408120541515610bbf565b7f9acda75aebd150dd434541a4747a6dc606f4f1a59662477e67daf1fc0bf9e0aa80546001600160a01b038381166001600160a01b0319831681179093556040519116919082907f8be0079c531659141344cd1fd0a4f28419497f9722a3daafe3b4186f6b6457e090600090a35050565b612b1661229d565b600080516020613b91833981519152805460ff191660011790557f62e78cea01bee320cd4e420270b5ea74000d11b0c9f74754ebdbfc544b05a258336129d9565b6000610bbf8383612e26565b6060610bbf8383604051806060016040528060278152602001613c1160279139612f19565b60007f360894a13ba1a3210667c828492db98dca3e2076cc3735a920a3ca505d382bbc610c17565b600080516020613b71833981519152546001600160a01b031615612be7576040516304b79d6360e51b815260040160405180910390fd5b80600080516020613b718339815191525b80546001600160a01b0319166001600160a01b039290921691909117905550565b600080516020613bb1833981519152546001600160a01b031615612c8b5760405162461bcd60e51b815260206004820152602360248201527f5472616e7366657248656c7065723a20416c726561647920696e697469616c696044820152621e995960ea1b606482015260840161038e565b80600080516020613bb1833981519152612bf8565b612cab600082612ff6565b611ced600080516020613bf183398151915282612727565b612ccc84612a9d565b612cd783838361279d565b50505050565b6060610b3282613000565b600061203b61305c565b612cfc8282611c21565b610fa857612d14816001600160a01b03166014613081565b612d1f836020613081565b604051602001612d30929190613a75565b60408051601f198184030181529082905262461bcd60e51b825261038e91600401613aea565b600080516020613b918339815191525460ff166112d25760405162461bcd60e51b815260206004820152601460248201527314185d5cd8589b194e881b9bdd081c185d5cd95960621b604482015260640161038e565b6000610b328261321d565b600061203b7121bab93932b731bca1b7b73a3937b63632b960711b61321d565b6000818152600183016020526040812054612e1e57508154600181810184556000848152602080822090930184905584548482528286019093526040902091909155610b32565b506000610b32565b60008181526001830160205260408120548015612f0f576000612e4a600183613922565b8554909150600090612e5e90600190613922565b9050818114612ec3576000866000018281548110612e7e57612e7e613849565b9060005260206000200154905080876000018481548110612ea157612ea1613849565b6000918252602080832090910192909255918252600188019052604090208390555b8554869080612ed457612ed4613afd565b600190038181906000526020600020016000905590558560010160008681526020019081526020016000206000905560019350505050610b32565b6000915050610b32565b60606001600160a01b0384163b612f815760405162461bcd60e51b815260206004820152602660248201527f416464726573733a2064656c65676174652063616c6c20746f206e6f6e2d636f6044820152651b9d1c9858dd60d21b606482015260840161038e565b600080856001600160a01b031685604051612f9c9190613b13565b600060405180830381855af49150503d8060008114612fd7576040519150601f19603f3d011682016040523d82523d6000602084013e612fdc565b606091505b5091509150612fec82828661328c565b9695505050505050565b610fa88282612727565b60608160000180548060200260200160405190810160405280929190818152602001828054801561305057602002820191906000526020600020905b81548152602001906001019080831161303c575b50505050509050919050565b600061203b762632b73234b733a6b0b935b2ba21b7b73a3937b63632b960491b61321d565b60606000613090836002613b2f565b61309b906002613b46565b67ffffffffffffffff8111156130b3576130b3613566565b6040519080825280601f01601f1916602001820160405280156130dd576020820181803683370190505b509050600360fc1b816000815181106130f8576130f8613849565b60200101906001600160f81b031916908160001a905350600f60fb1b8160018151811061312757613127613849565b60200101906001600160f81b031916908160001a905350600061314b846002613b2f565b613156906001613b46565b90505b60018111156131ce576f181899199a1a9b1b9c1cb0b131b232b360811b85600f166010811061318a5761318a613849565b1a60f81b8282815181106131a0576131a0613849565b60200101906001600160f81b031916908160001a90535060049490941c936131c781613b59565b9050613159565b508315610bbf5760405162461bcd60e51b815260206004820181905260248201527f537472696e67733a20686578206c656e67746820696e73756666696369656e74604482015260640161038e565b60008181527f4abde63c3e81aefa5764b017968bc473e83e093d7e1a10247d19e0a3e412401960205260408120546001600160a01b031680610b325760408051602081018590520160408051601f19818403018152908290526346e2ec9360e01b825261038e91600401613aea565b6060831561329b575081610bbf565b8251156132ab5782518084602001fd5b8160405162461bcd60e51b815260040161038e9190613aea565b6000602082840312156132d757600080fd5b5035919050565b6000602082840312156132f057600080fd5b81356001600160e01b031981168114610bbf57600080fd5b6001600160a01b0381168114611ced57600080fd5b6000806040838503121561333057600080fd5b823561333b81613308565b946020939093013593505050565b6000806040838503121561335c57600080fd5b50508035926020909101359150565b6000806040838503121561337e57600080fd5b82359150602083013561339081613308565b809150509250929050565b6000602082840312156133ad57600080fd5b8135610bbf81613308565b6000806000606084860312156133cd57600080fd5b505081359360208301359350604090920135919050565b6020808252825182820181905260009190848201906040850190845b8181101561341c57835183529284019291840191600101613400565b50909695505050505050565b60008083601f84011261343a57600080fd5b50813567ffffffffffffffff81111561345257600080fd5b6020830191508360208260051b85010111156117d257600080fd5b6000806020838503121561348057600080fd5b823567ffffffffffffffff81111561349757600080fd5b6134a385828601613428565b90969095509350505050565b6020808252825182820181905260009190848201906040850190845b8181101561341c5783511515835292840192918401916001016134cb565b6000806000606084860312156134fe57600080fd5b833561350981613308565b95602085013595506040909401359392505050565b6000806000806080858703121561353457600080fd5b84359350602085013561354681613308565b9250604085013561355681613308565b9396929550929360600135925050565b634e487b7160e01b600052604160045260246000fd5b60405160e0810167ffffffffffffffff8111828210171561359f5761359f613566565b60405290565b604051601f8201601f1916810167ffffffffffffffff811182821017156135ce576135ce613566565b604052919050565b6000808284036101008112156135eb57600080fd5b83356135f681613308565b925060e0601f198201121561360a57600080fd5b5061361361357c565b6020840135815260408401356020820152606084013560408201526080840135606082015260a0840135608082015260c084013560a082015260e084013560c0820152809150509250929050565b8015158114611ced57600080fd5b60008060006060848603121561368457600080fd5b83359250602084013561369681613308565b915060408401356136a681613661565b809150509250925092565b600080604083850312156136c457600080fd5b82359150602083013561339081613661565b60005b838110156136f15781810151838201526020016136d9565b50506000910152565b600081518084526137128160208601602086016136d6565b601f01601f19169290920160200192915050565b6000602080830181845280855180835260408601915060408160051b870101925083870160005b8281101561377b57603f198886030184526137698583516136fa565b9450928501929085019060010161374d565b5092979650505050505050565b60008060008060008060c087890312156137a157600080fd5b86356137ac81613308565b955060208701356137bc81613308565b945060408701359350606087013592506080870135915060a08701356137e181613308565b809150509295509295509295565b6000806040838503121561380257600080fd5b505080516020909101519092909150565b60006020828403121561382557600080fd5b5051919050565b60006020828403121561383e57600080fd5b8151610bbf81613661565b634e487b7160e01b600052603260045260246000fd5b82815260406020820152600061387860408301846136fa565b949350505050565b60006020828403121561389257600080fd5b8151610bbf81613308565b634e487b7160e01b600052601160045260246000fd5b6000600182016138c5576138c561389d565b5060010190565b6020808252818101527f4f776e61626c653a2063616c6c6572206973206e6f7420746865206f776e6572604082015260600190565b6001600160a01b039390931683526020830191909152604082015260600190565b81810381811115610b3257610b3261389d565b60008060006060848603121561394a57600080fd5b8351925060208401519150604084015190509250925092565b6000806040838503121561397657600080fd5b82519150602083015161339081613661565b6000808335601e1984360301811261399f57600080fd5b83018035915067ffffffffffffffff8211156139ba57600080fd5b6020019150368190038213156117d257600080fd5b600060208083850312156139e257600080fd5b825167ffffffffffffffff808211156139fa57600080fd5b818501915085601f830112613a0e57600080fd5b815181811115613a2057613a20613566565b8060051b9150613a318483016135a5565b8181529183018401918481019088841115613a4b57600080fd5b938501935b83851015613a6957845182529385019390850190613a50565b98975050505050505050565b7f416363657373436f6e74726f6c3a206163636f756e7420000000000000000000815260008351613aad8160178501602088016136d6565b7001034b99036b4b9b9b4b733903937b6329607d1b6017918401918201528351613ade8160288401602088016136d6565b01602801949350505050565b602081526000610bbf60208301846136fa565b634e487b7160e01b600052603160045260246000fd5b60008251613b258184602087016136d6565b9190910192915050565b8082028115828204841417610b3257610b3261389d565b80820180821115610b3257610b3261389d565b600081613b6857613b6861389d565b50600019019056fe4abde63c3e81aefa5764b017968bc473e83e093d7e1a10247d19e0a3e41240189c789132bdb3678132848a8dcd780bffd2b1abdce3984c522ac1d8aeb48f05f36f969d660e14559aec53d066903ba87981d0679d31bf1d3793a220e70e02808b35e4a72724550e3953b041d501f29ff9ff417812c2917a203d9c4833b9d1d6f997667070c54ef182b0f5858b034beac1b6f3089aa2d3188bb1e8929f4fa9b929416464726573733a206c6f772d6c6576656c2064656c65676174652063616c6c206661696c6564a26469706673582212203c38f75e3ba27803824eb563f69b819489c2a18baa47e62a9b2955c75938038464736f6c63430008130033",
  "libraries": {
    "DepositManagementLogic": "0x9fa1EDCC47b75831773Eb969f55b8bFd770aba9c"
  },
  "implementation": "0xC4e84981dD3D4e00AbdB73d4438C742b8cE4834a",
  "devdoc": {
    "events": {
      "Initialized(uint8)": {
        "details": "Triggered when the contract has been initialized or reinitialized."
      },
      "Paused(address)": {
        "details": "Emitted when the pause is triggered by `account`."
      },
      "RoleAdminChanged(bytes32,bytes32,bytes32)": {
        "details": "Emitted when `newAdminRole` is set as ``role``'s admin role, replacing `previousAdminRole` `DEFAULT_ADMIN_ROLE` is the starting admin for all roles, despite {RoleAdminChanged} not being emitted signaling this. _Available since v3.1._"
      },
      "RoleGranted(bytes32,address,address)": {
        "details": "Emitted when `account` is granted `role`. `sender` is the account that originated the contract call, an admin role bearer except when using {AccessControl-_setupRole}."
      },
      "RoleRevoked(bytes32,address,address)": {
        "details": "Emitted when `account` is revoked `role`. `sender` is the account that originated the contract call:   - if using `revokeRole`, it is the admin role bearer   - if using `renounceRole`, it is the role bearer (i.e. `account`)"
      },
      "Unpaused(address)": {
        "details": "Emitted when the pause is lifted by `account`."
      }
    },
    "kind": "dev",
    "methods": {
      "acceptedContracts()": {
        "details": "The contact name listed in this method is also needed to be listed `requiredContracts` method."
      },
      "addDepositAmount(address,bytes32,uint256)": {
        "details": "Adds deposit amount.",
        "params": {
          "_amount": "Amount of funds to deposit",
          "_ccy": "Currency name in bytes32",
          "_user": "User's address"
        }
      },
      "addOperator(address)": {
        "params": {
          "admin": "The address of the new admin"
        }
      },
      "calculateCoverage(address,(bytes32,uint256,uint256,uint256,uint256,uint256,uint256))": {
        "params": {
          "_additionalFunds": "Additional funds for calculating the coverage",
          "_user": "User's address"
        },
        "returns": {
          "coverage": "The rate of collateral used",
          "isInsufficientDepositAmount": "The boolean if the lent amount in the selected currency is insufficient for the deposit amount or not"
        }
      },
      "calculateLiquidationFees(uint256)": {
        "params": {
          "_amount": "Liquidation amount"
        },
        "returns": {
          "liquidatorFee": "Liquidation fee amount received by liquidators",
          "protocolFee": "Liquidation fee amount received by protocol"
        }
      },
      "deposit(bytes32,uint256)": {
        "details": "Deposits funds by the caller into collateral.",
        "params": {
          "_amount": "Amount of funds to deposit",
          "_ccy": "Currency name in bytes32"
        }
      },
      "depositFrom(address,bytes32,uint256)": {
        "details": "Deposits funds by the `from` into collateral.",
        "params": {
          "_amount": "Amount of funds to deposit",
          "_ccy": "Currency name in bytes32",
          "_from": "user's address"
        }
      },
      "executeForcedReset(address,bytes32)": {
        "params": {
          "_ccy": "Currency name in bytes32",
          "_user": "User's address"
        }
      },
      "getBorrowableAmount(address,bytes32)": {
        "params": {
          "_ccy": "Currency name in bytes32",
          "_user": "User's address"
        },
        "returns": {
          "_0": "amount The borrowable amount"
        }
      },
      "getCollateralAmount(address,bytes32)": {
        "params": {
          "_ccy": "Currency name in bytes32",
          "_user": "User's address"
        },
        "returns": {
          "amount": "The collateral amount"
        }
      },
      "getCollateralCurrencies()": {
        "returns": {
          "_0": "Array of the currency accepted as collateral"
        }
      },
      "getCoverage(address)": {
        "params": {
          "_user": "User's address"
        },
        "returns": {
          "_0": "The rate of collateral used"
        }
      },
      "getDepositAmount(address,bytes32)": {
        "params": {
          "_ccy": "Currency name in bytes32",
          "_user": "User's address"
        },
        "returns": {
          "_0": "The deposited amount"
        }
      },
      "getLiquidationAmount(address,bytes32,uint256)": {
        "params": {
          "_user": "User's address"
        },
        "returns": {
          "liquidationAmount": "The the amount to be liquidated"
        }
      },
      "getLiquidationConfiguration()": {
        "details": "Gets the liquidation configuration",
        "returns": {
          "liquidationProtocolFeeRate": "The liquidation fee received by liquidators",
          "liquidationThresholdRate": "The liquidation threshold rate",
          "liquidatorFeeRate": "The liquidation protocol fee received by protocol"
        }
      },
      "getRoleAdmin(bytes32)": {
        "details": "Returns the admin role that controls `role`. See {grantRole} and {revokeRole}. To change a role's admin, use {_setRoleAdmin}."
      },
      "getTokenAddress(bytes32)": {
        "params": {
          "_ccy": "Currency name in bytes32"
        },
        "returns": {
          "_0": "The token contract address"
        }
      },
      "getTotalCollateralAmount(address)": {
        "params": {
          "_user": "User's address"
        },
        "returns": {
          "totalCollateralAmount": "The total collateral amount in the base currency"
        }
      },
      "getTotalDepositAmount(bytes32)": {
        "params": {
          "_ccy": "Currency name in bytes32"
        },
        "returns": {
          "_0": "The total deposited amount"
        }
      },
      "getTotalUnusedCollateralAmount(address)": {
        "params": {
          "_user": "User's address"
        },
        "returns": {
          "_0": "The total amount of unused collateral"
        }
      },
      "getUsedCurrencies(address)": {
        "params": {
          "_user": "User's address"
        },
        "returns": {
          "_0": "The currency names in bytes32"
        }
      },
      "getWithdrawableCollateral(address)": {
        "params": {
          "_user": "User's address"
        },
        "returns": {
          "_0": "Maximum amount of ETH that can be withdrawn"
        }
      },
      "getWithdrawableCollateral(bytes32,address)": {
        "params": {
          "_ccy": "Currency name in bytes32",
          "_user": "User's address"
        },
        "returns": {
          "_0": "Maximum amount of the selected currency that can be withdrawn"
        }
      },
      "grantRole(bytes32,address)": {
        "details": "Grants `role` to `account`. If `account` had not been already granted `role`, emits a {RoleGranted} event. Requirements: - the caller must have ``role``'s admin role. May emit a {RoleGranted} event."
      },
      "hasRole(bytes32,address)": {
        "details": "Returns `true` if `account` has been granted `role`."
      },
      "initialize(address,address,uint256,uint256,uint256,address)": {
        "details": "Function is invoked by the proxy contract when the contract is added to the ProxyController.",
        "params": {
          "_liquidationProtocolFeeRate": "The liquidation fee rate received by protocol",
          "_liquidationThresholdRate": "The liquidation threshold rate",
          "_liquidatorFeeRate": "The liquidation fee rate received by liquidators",
          "_nativeToken": "The address of wrapped token of native currency",
          "_owner": "The address of the contract owner",
          "_resolver": "The address of the Address Resolver contract"
        }
      },
      "isCollateral(bytes32)": {
        "params": {
          "_ccy": "Currency name in bytes32"
        },
        "returns": {
          "_0": "The boolean if the currency has been registered or not"
        }
      },
      "isCollateral(bytes32[])": {
        "params": {
          "_ccys": "Currency name list in bytes32"
        },
        "returns": {
          "isCollateralCurrencies": "Array of the boolean if the currency has been registered or not"
        }
      },
      "isCovered(address)": {
        "params": {
          "_user": "User's address"
        },
        "returns": {
          "_0": "The boolean if the collateral has sufficient coverage or not"
        }
      },
      "isRegisteredCurrency(bytes32)": {
        "params": {
          "_ccy": "Currency name in bytes32"
        },
        "returns": {
          "_0": "The boolean if the currency has been registered or not"
        }
      },
      "multicall(bytes[])": {
        "details": "Receives and executes a batch of function calls on this contract."
      },
      "owner()": {
        "details": "Returns the address of the current owner."
      },
      "paused()": {
        "details": "Returns true if the contract is paused, and false otherwise."
      },
      "registerCurrency(bytes32,address,bool)": {
        "params": {
          "_ccy": "Currency name in bytes32",
          "_isCollateral": "Boolean if the selected currency is acceptable as collateral.",
          "_tokenAddress": "Token contract address of the selected currency"
        }
      },
      "removeDepositAmount(address,bytes32,uint256)": {
        "params": {
          "_amount": "Amount of funds to withdraw.",
          "_ccy": "Currency name in bytes32",
          "_user": "User's address"
        }
      },
      "removeOperator(address)": {
        "params": {
          "admin": "The address of the admin to remove"
        }
      },
      "renounceOwnership()": {
        "details": "Leaves the contract without owner. It will not be possible to call `onlyOwner` functions anymore. Can only be called by the current owner. NOTE: Renouncing ownership will leave the contract without an owner, thereby removing any functionality that is only available to the owner."
      },
      "renounceRole(bytes32,address)": {
        "details": "Revokes `role` from the calling account. Roles are often managed via {grantRole} and {revokeRole}: this function's purpose is to provide a mechanism for accounts to lose their privileges if they are compromised (such as when a trusted device is misplaced). If the calling account had been revoked `role`, emits a {RoleRevoked} event. Requirements: - the caller must be `account`. May emit a {RoleRevoked} event."
      },
      "requiredContracts()": {
        "details": "The contract name list is in `./libraries/Contracts.sol`."
      },
      "revokeRole(bytes32,address)": {
        "details": "Revokes `role` from `account`. If `account` had been granted `role`, emits a {RoleRevoked} event. Requirements: - the caller must have ``role``'s admin role. May emit a {RoleRevoked} event."
      },
      "setRoleAdmin(bytes32,bytes32)": {
        "details": "By default the admin role for all roles is `DEFAULT_ADMIN_ROLE`.",
        "params": {
          "adminRole": "The admin role",
          "role": "The role to be managed by the admin role"
        }
      },
      "supportsInterface(bytes4)": {
        "details": "See {IERC165-supportsInterface}."
      },
      "transferFrom(bytes32,address,address,uint256)": {
        "params": {
          "_amount": "Amount of funds to sent",
          "_ccy": "Currency name in bytes32",
          "_from": "Sender's address",
          "_to": "Receiver's address"
        }
      },
      "transferOwnership(address)": {
        "details": "Transfers ownership of the contract to a new account (`newOwner`). Can only be called by the current owner."
      },
      "updateCurrency(bytes32,bool)": {
        "params": {
          "_ccy": "Currency name in bytes32",
          "_isCollateral": "Boolean if the selected currency is acceptable as collateral."
        }
      },
      "updateLiquidationConfiguration(uint256,uint256,uint256)": {
        "details": "Update the liquidation configuration",
        "params": {
          "_liquidationProtocolFeeRate": "The liquidation fee rate received by protocol",
          "_liquidationThresholdRate": "The liquidation threshold rate",
          "_liquidatorFeeRate": "The liquidation fee rate received by liquidators"
        }
      },
      "withdraw(bytes32,uint256)": {
        "params": {
          "_amount": "Amount of funds to withdraw.",
          "_ccy": "Currency name in bytes32"
        }
      }
    },
    "version": 1
  },
  "userdoc": {
    "kind": "user",
    "methods": {
      "acceptedContracts()": {
        "notice": "Returns contract names that can call this contract."
      },
      "addOperator(address)": {
        "notice": "Adds a new admin as Operator"
      },
      "calculateCoverage(address,(bytes32,uint256,uint256,uint256,uint256,uint256,uint256))": {
        "notice": "Calculates the collateral rate used when additional funds are had by the user."
      },
      "calculateLiquidationFees(uint256)": {
        "notice": "Gets the actual fee amounts calculated by rates."
      },
      "executeForcedReset(address,bytes32)": {
        "notice": "Forces a reset of the user's deposit amount."
      },
      "getBorrowableAmount(address,bytes32)": {
        "notice": "Gets the borrowable amount in the selected currency."
      },
      "getCollateralAmount(address,bytes32)": {
        "notice": "Gets the total collateral amount of the selected currency."
      },
      "getCollateralCurrencies()": {
        "notice": "Gets the currencies accepted as collateral"
      },
      "getCoverage(address)": {
        "notice": "Gets the rate of collateral used."
      },
      "getDepositAmount(address,bytes32)": {
        "notice": "Gets the amount deposited in the user's collateral."
      },
      "getLiquidationAmount(address,bytes32,uint256)": {
        "notice": "Gets the amount to be liquidated."
      },
      "getTokenAddress(bytes32)": {
        "notice": "Gets the token contract address"
      },
      "getTotalCollateralAmount(address)": {
        "notice": "Gets the total collateral amount."
      },
      "getTotalDepositAmount(bytes32)": {
        "notice": "Gets the total amount deposited of the selected currency"
      },
      "getTotalUnusedCollateralAmount(address)": {
        "notice": "Gets the total amount of the unused collateral in the base currency"
      },
      "getUsedCurrencies(address)": {
        "notice": "Gets the currencies that the user used as collateral."
      },
      "getWithdrawableCollateral(address)": {
        "notice": "Gets the maximum amount of the base currency that can be withdrawn from user collateral."
      },
      "getWithdrawableCollateral(bytes32,address)": {
        "notice": "Gets the maximum amount of the selected currency that can be withdrawn from user collateral."
      },
      "initialize(address,address,uint256,uint256,uint256,address)": {
        "notice": "Initializes the contract."
      },
      "isCollateral(bytes32)": {
        "notice": "Gets if the currency is acceptable as collateral"
      },
      "isCollateral(bytes32[])": {
        "notice": "Gets if the currencies are acceptable as collateral"
      },
      "isCovered(address)": {
        "notice": "Gets if the collateral has enough coverage."
      },
      "isRegisteredCurrency(bytes32)": {
        "notice": "Gets if the currency has been registered"
      },
      "pause()": {
        "notice": "Pauses the token vault."
      },
      "registerCurrency(bytes32,address,bool)": {
        "notice": "Registers new currency and sets if it is acceptable as collateral."
      },
      "removeDepositAmount(address,bytes32,uint256)": {
        "notice": "Removes deposit amount."
      },
      "removeOperator(address)": {
        "notice": "Removes an admin as Operator"
      },
      "requiredContracts()": {
        "notice": "Returns the contract names used in this contract."
      },
      "setRoleAdmin(bytes32,bytes32)": {
        "notice": "Sets the role as admin of a specific role."
      },
      "transferFrom(bytes32,address,address,uint256)": {
        "notice": "Transfers the token from sender to receiver."
      },
      "unpause()": {
        "notice": "Unpauses the token vault."
      },
      "updateCurrency(bytes32,bool)": {
        "notice": "Updates the currency if it is acceptable as collateral."
      },
      "updateLiquidationConfiguration(uint256,uint256,uint256)": {
        "notice": "Triggers only be contract owner"
      },
      "withdraw(bytes32,uint256)": {
        "notice": "Withdraws funds by the caller from unused collateral."
      }
    },
    "notice": "Implements the management of the token in each currency for users. This contract manages the following data related to tokens. - Deposited token amount as the collateral - Parameters related to the liquidation   - Liquidation threshold rate   - Liquidation fee rate received by protocol   - Liquidation fee rate received by liquidators To address a currency as collateral, it must be registered using `registerCurrency` method in this contract.",
    "version": 1
  },
  "storageLayout": {
    "storage": [
      {
        "astId": 995,
        "contract": "contracts/protocol/TokenVault.sol:TokenVault",
        "label": "_initialized",
        "offset": 0,
        "slot": "0",
        "type": "t_uint8"
      },
      {
        "astId": 998,
        "contract": "contracts/protocol/TokenVault.sol:TokenVault",
        "label": "_initializing",
        "offset": 1,
        "slot": "0",
        "type": "t_bool"
      }
    ],
    "types": {
      "t_bool": {
        "encoding": "inplace",
        "label": "bool",
        "numberOfBytes": "1"
      },
      "t_uint8": {
        "encoding": "inplace",
        "label": "uint8",
        "numberOfBytes": "1"
      }
    }
  }
}