{
  "address": "0xC6fC51edDBa75E02fd95e13b78F30de9b8A9fA0d",
  "abi": [
    {
      "anonymous": false,
      "inputs": [
        {
          "indexed": false,
          "internalType": "bytes32",
          "name": "name",
          "type": "bytes32"
        },
        {
          "indexed": false,
          "internalType": "address",
          "name": "destination",
          "type": "address"
        }
      ],
      "name": "CacheUpdated",
      "type": "event"
    },
    {
      "anonymous": false,
      "inputs": [
        {
          "indexed": false,
          "internalType": "bytes32",
          "name": "ccy",
          "type": "bytes32"
        },
        {
          "indexed": false,
          "internalType": "address",
          "name": "tokenAddress",
          "type": "address"
        }
      ],
      "name": "CurrencyRegistered",
      "type": "event"
    },
    {
      "anonymous": false,
      "inputs": [
        {
          "indexed": false,
          "internalType": "address",
          "name": "user",
          "type": "address"
        },
        {
          "indexed": false,
          "internalType": "bytes32",
          "name": "ccy",
          "type": "bytes32"
        },
        {
          "indexed": false,
          "internalType": "uint256",
          "name": "amount",
          "type": "uint256"
        }
      ],
      "name": "Deposit",
      "type": "event"
    },
    {
      "anonymous": false,
      "inputs": [
        {
          "indexed": true,
          "internalType": "address",
          "name": "payer",
          "type": "address"
        },
        {
          "indexed": false,
          "internalType": "bytes32",
          "name": "ccy",
          "type": "bytes32"
        },
        {
          "indexed": false,
          "internalType": "uint256",
          "name": "amount",
          "type": "uint256"
        }
      ],
      "name": "EscrowedAmountAdded",
      "type": "event"
    },
    {
      "anonymous": false,
      "inputs": [
        {
          "indexed": true,
          "internalType": "address",
          "name": "payer",
          "type": "address"
        },
        {
          "indexed": true,
          "internalType": "address",
          "name": "receiver",
          "type": "address"
        },
        {
          "indexed": false,
          "internalType": "bytes32",
          "name": "ccy",
          "type": "bytes32"
        },
        {
          "indexed": false,
          "internalType": "uint256",
          "name": "amount",
          "type": "uint256"
        }
      ],
      "name": "EscrowedAmountRemoved",
      "type": "event"
    },
    {
      "anonymous": false,
      "inputs": [
        {
          "indexed": false,
          "internalType": "uint8",
          "name": "version",
          "type": "uint8"
        }
      ],
      "name": "Initialized",
      "type": "event"
    },
    {
      "anonymous": false,
      "inputs": [
        {
          "indexed": true,
          "internalType": "address",
          "name": "previousOwner",
          "type": "address"
        },
        {
          "indexed": true,
          "internalType": "address",
          "name": "newOwner",
          "type": "address"
        }
      ],
      "name": "OwnershipTransferred",
      "type": "event"
    },
    {
      "anonymous": false,
      "inputs": [
        {
          "indexed": true,
          "internalType": "address",
          "name": "party",
          "type": "address"
        },
        {
          "indexed": false,
          "internalType": "bytes32",
          "name": "ccy",
          "type": "bytes32"
        },
        {
          "indexed": false,
          "internalType": "uint256",
          "name": "amount",
          "type": "uint256"
        }
      ],
      "name": "ReleaseUnsettled",
      "type": "event"
    },
    {
      "anonymous": false,
      "inputs": [
        {
          "indexed": true,
          "internalType": "address",
          "name": "party",
          "type": "address"
        },
        {
          "indexed": false,
          "internalType": "bytes32",
          "name": "ccy",
          "type": "bytes32"
        },
        {
          "indexed": false,
          "internalType": "uint256",
          "name": "amount",
          "type": "uint256"
        }
      ],
      "name": "UseUnsettledCollateral",
      "type": "event"
    },
    {
      "anonymous": false,
      "inputs": [
        {
          "indexed": false,
          "internalType": "address",
          "name": "from",
          "type": "address"
        },
        {
          "indexed": false,
          "internalType": "bytes32",
          "name": "ccy",
          "type": "bytes32"
        },
        {
          "indexed": false,
          "internalType": "uint256",
          "name": "amount",
          "type": "uint256"
        }
      ],
      "name": "Withdraw",
      "type": "event"
    },
    {
      "inputs": [],
      "name": "acceptedContracts",
      "outputs": [
        {
          "internalType": "bytes32[]",
          "name": "contracts",
          "type": "bytes32[]"
        }
      ],
      "stateMutability": "pure",
      "type": "function"
    },
    {
      "inputs": [
        {
          "internalType": "address",
          "name": "_payer",
          "type": "address"
        },
        {
          "internalType": "bytes32",
          "name": "_ccy",
          "type": "bytes32"
        },
        {
          "internalType": "uint256",
          "name": "_amount",
          "type": "uint256"
        }
      ],
      "name": "addEscrowedAmount",
      "outputs": [],
      "stateMutability": "payable",
      "type": "function"
    },
    {
      "inputs": [],
      "name": "buildCache",
      "outputs": [],
      "stateMutability": "nonpayable",
      "type": "function"
    },
    {
      "inputs": [
        {
          "internalType": "bytes32",
          "name": "_ccy",
          "type": "bytes32"
        },
        {
          "internalType": "uint256",
          "name": "_amount",
          "type": "uint256"
        }
      ],
      "name": "deposit",
      "outputs": [],
      "stateMutability": "payable",
      "type": "function"
    },
    {
      "inputs": [
        {
          "internalType": "address",
          "name": "_user",
          "type": "address"
        },
        {
          "internalType": "bytes32",
          "name": "_ccy",
          "type": "bytes32"
        }
      ],
      "name": "getCollateralAmount",
      "outputs": [
        {
          "internalType": "uint256",
          "name": "",
          "type": "uint256"
        }
      ],
      "stateMutability": "view",
      "type": "function"
    },
    {
      "inputs": [
        {
          "internalType": "address",
          "name": "_user",
          "type": "address"
        },
        {
          "internalType": "bytes32",
          "name": "_ccy",
          "type": "bytes32"
        }
      ],
      "name": "getCollateralAmountInETH",
      "outputs": [
        {
          "internalType": "uint256",
          "name": "",
          "type": "uint256"
        }
      ],
      "stateMutability": "view",
      "type": "function"
    },
    {
      "inputs": [],
      "name": "getCollateralParameters",
      "outputs": [
        {
          "internalType": "uint256",
          "name": "marginCallThresholdRate",
          "type": "uint256"
        },
        {
          "internalType": "uint256",
          "name": "autoLiquidationThresholdRate",
          "type": "uint256"
        },
        {
          "internalType": "uint256",
          "name": "liquidationPriceRate",
          "type": "uint256"
        },
        {
          "internalType": "uint256",
          "name": "minCollateralRate",
          "type": "uint256"
        }
      ],
      "stateMutability": "view",
      "type": "function"
    },
    {
      "inputs": [
        {
          "internalType": "address",
          "name": "_user",
          "type": "address"
        }
      ],
      "name": "getCoverage",
      "outputs": [
        {
          "internalType": "uint256",
          "name": "",
          "type": "uint256"
        }
      ],
      "stateMutability": "view",
      "type": "function"
    },
    {
      "inputs": [
        {
          "internalType": "address",
          "name": "_user",
          "type": "address"
        }
      ],
      "name": "getTotalCollateralAmountInETH",
      "outputs": [
        {
          "internalType": "uint256",
          "name": "",
          "type": "uint256"
        }
      ],
      "stateMutability": "view",
      "type": "function"
    },
    {
      "inputs": [
        {
          "internalType": "address",
          "name": "_user",
          "type": "address"
        }
      ],
      "name": "getTotalUnsettledExposure",
      "outputs": [
        {
          "internalType": "uint256",
          "name": "",
          "type": "uint256"
        }
      ],
      "stateMutability": "view",
      "type": "function"
    },
    {
      "inputs": [
        {
          "internalType": "address",
          "name": "_user",
          "type": "address"
        },
        {
          "internalType": "bytes32",
          "name": "_ccy",
          "type": "bytes32"
        }
      ],
      "name": "getUnsettledCollateral",
      "outputs": [
        {
          "internalType": "uint256",
          "name": "",
          "type": "uint256"
        }
      ],
      "stateMutability": "view",
      "type": "function"
    },
    {
      "inputs": [
        {
          "internalType": "address",
          "name": "_user",
          "type": "address"
        }
      ],
      "name": "getUnusedCollateral",
      "outputs": [
        {
          "internalType": "uint256",
          "name": "",
          "type": "uint256"
        }
      ],
      "stateMutability": "view",
      "type": "function"
    },
    {
      "inputs": [
        {
          "internalType": "address",
          "name": "_user",
          "type": "address"
        }
      ],
      "name": "getUsedCurrencies",
      "outputs": [
        {
          "internalType": "bytes32[]",
          "name": "",
          "type": "bytes32[]"
        }
      ],
      "stateMutability": "view",
      "type": "function"
    },
    {
      "inputs": [
        {
          "internalType": "address",
          "name": "_user",
          "type": "address"
        }
      ],
      "name": "getWithdrawableCollateral",
      "outputs": [
        {
          "internalType": "uint256",
          "name": "",
          "type": "uint256"
        }
      ],
      "stateMutability": "view",
      "type": "function"
    },
    {
      "inputs": [
        {
          "internalType": "address",
          "name": "_owner",
          "type": "address"
        },
        {
          "internalType": "address",
          "name": "_resolver",
          "type": "address"
        },
        {
          "internalType": "uint256",
          "name": "_marginCallThresholdRate",
          "type": "uint256"
        },
        {
          "internalType": "uint256",
          "name": "_autoLiquidationThresholdRate",
          "type": "uint256"
        },
        {
          "internalType": "uint256",
          "name": "_liquidationPriceRate",
          "type": "uint256"
        },
        {
          "internalType": "uint256",
          "name": "_minCollateralRate",
          "type": "uint256"
        },
        {
          "internalType": "address",
          "name": "_WETH9",
          "type": "address"
        }
      ],
      "name": "initialize",
      "outputs": [],
      "stateMutability": "nonpayable",
      "type": "function"
    },
    {
      "inputs": [
        {
          "internalType": "address",
          "name": "_user",
          "type": "address"
        }
      ],
      "name": "isCovered",
      "outputs": [
        {
          "internalType": "bool",
          "name": "",
          "type": "bool"
        }
      ],
      "stateMutability": "view",
      "type": "function"
    },
    {
      "inputs": [],
      "name": "isResolverCached",
      "outputs": [
        {
          "internalType": "bool",
          "name": "",
          "type": "bool"
        }
      ],
      "stateMutability": "view",
      "type": "function"
    },
    {
      "inputs": [],
      "name": "owner",
      "outputs": [
        {
          "internalType": "address",
          "name": "",
          "type": "address"
        }
      ],
      "stateMutability": "view",
      "type": "function"
    },
    {
      "inputs": [
        {
          "internalType": "bytes32",
          "name": "_ccy",
          "type": "bytes32"
        },
        {
          "internalType": "address",
          "name": "_tokenAddress",
          "type": "address"
        }
      ],
      "name": "registerCurrency",
      "outputs": [],
      "stateMutability": "nonpayable",
      "type": "function"
    },
    {
      "inputs": [
        {
          "internalType": "address",
          "name": "_user",
          "type": "address"
        },
        {
          "internalType": "bytes32",
          "name": "_ccy",
          "type": "bytes32"
        },
        {
          "internalType": "uint256",
          "name": "_amount",
          "type": "uint256"
        }
      ],
      "name": "releaseUnsettledCollateral",
      "outputs": [],
      "stateMutability": "nonpayable",
      "type": "function"
    },
    {
      "inputs": [
        {
          "internalType": "address",
          "name": "_payer",
          "type": "address"
        },
        {
          "internalType": "address",
          "name": "_receiver",
          "type": "address"
        },
        {
          "internalType": "bytes32",
          "name": "_ccy",
          "type": "bytes32"
        },
        {
          "internalType": "uint256",
          "name": "_amount",
          "type": "uint256"
        }
      ],
      "name": "removeEscrowedAmount",
      "outputs": [],
      "stateMutability": "nonpayable",
      "type": "function"
    },
    {
      "inputs": [],
      "name": "renounceOwnership",
      "outputs": [],
      "stateMutability": "nonpayable",
      "type": "function"
    },
    {
      "inputs": [],
      "name": "requiredContracts",
      "outputs": [
        {
          "internalType": "bytes32[]",
          "name": "contracts",
          "type": "bytes32[]"
        }
      ],
      "stateMutability": "pure",
      "type": "function"
    },
    {
      "inputs": [],
      "name": "resolver",
      "outputs": [
        {
          "internalType": "contract IAddressResolver",
          "name": "",
          "type": "address"
        }
      ],
      "stateMutability": "view",
      "type": "function"
    },
    {
      "inputs": [
        {
          "internalType": "uint256",
          "name": "_marginCallThresholdRate",
          "type": "uint256"
        },
        {
          "internalType": "uint256",
          "name": "_autoLiquidationThresholdRate",
          "type": "uint256"
        },
        {
          "internalType": "uint256",
          "name": "_liquidationPriceRate",
          "type": "uint256"
        },
        {
          "internalType": "uint256",
          "name": "_minCollateralRate",
          "type": "uint256"
        }
      ],
      "name": "setCollateralParameters",
      "outputs": [],
      "stateMutability": "nonpayable",
      "type": "function"
    },
    {
      "inputs": [
        {
          "internalType": "address",
          "name": "newOwner",
          "type": "address"
        }
      ],
      "name": "transferOwnership",
      "outputs": [],
      "stateMutability": "nonpayable",
      "type": "function"
    },
    {
      "inputs": [
        {
          "internalType": "address",
          "name": "_user",
          "type": "address"
        },
        {
          "internalType": "bytes32",
          "name": "_ccy",
          "type": "bytes32"
        },
        {
          "internalType": "uint256",
          "name": "_amount",
          "type": "uint256"
        }
      ],
      "name": "useUnsettledCollateral",
      "outputs": [],
      "stateMutability": "nonpayable",
      "type": "function"
    },
    {
      "inputs": [
        {
          "internalType": "bytes32",
          "name": "_ccy",
          "type": "bytes32"
        },
        {
          "internalType": "uint256",
          "name": "_amount",
          "type": "uint256"
        }
      ],
      "name": "withdraw",
      "outputs": [],
      "stateMutability": "nonpayable",
      "type": "function"
    },
    {
      "stateMutability": "payable",
      "type": "receive"
    }
  ],
  "transactionHash": "0xd99bd07496dc9abd6ff3e3f53d89ad6d1c0d3c13840d5e95138dd31976ad447c",
  "args": [],
  "numDeployments": 2,
  "solcInputHash": "0189db16390033bb8f5dd462f065f79e",
  "bytecode": "0x608060405234801561001057600080fd5b5061312a806100206000396000f3fe6080604052600436106101bb5760003560e01c8063832878ad116100ec578063ae8128411161008a578063d2a19b3e11610064578063d2a19b3e14610520578063e099765914610540578063f2fde38b14610555578063fc7008101461057557600080fd5b8063ae812841146104c0578063c91a99f9146104e0578063ca4230311461050057600080fd5b80638da5cb5b116100c65780638da5cb5b1461044b578063948060dd146104605780639ba57c7d146104805780639fcaebfa146104a057600080fd5b8063832878ad146103f857806383a5041c1461040b5780638cbf5e781461042b57600080fd5b80633d03b9da11610159578063715018a611610133578063715018a6146103835780637796374a146103985780637d44828e146103b85780637ea24133146103d857600080fd5b80633d03b9da1461030c5780635d8615051461032e578063698c92691461036357600080fd5b80631de26e16116101955780631de26e161461029f57806325e1f09f146102b257806329985e5a146102e25780632af64bd3146102f757600080fd5b8063040cf0201461021f57806304f3bcec1461023f5780630cfe33fa1461027157600080fd5b3661021a576101c8610595565b6001600160a01b0316336001600160a01b0316146102185760405162461bcd60e51b815260206004820152600860248201526709cdee840ae8aa8960c31b60448201526064015b60405180910390fd5b005b600080fd5b34801561022b57600080fd5b5061021861023a366004612bab565b6105b6565b34801561024b57600080fd5b50610254610850565b6040516001600160a01b0390911681526020015b60405180910390f35b34801561027d57600080fd5b5061029161028c366004612be2565b610866565b604051908152602001610268565b6102186102ad366004612bab565b6108b7565b3480156102be57600080fd5b506102d26102cd366004612be2565b610a01565b6040519015158152602001610268565b3480156102ee57600080fd5b50610218610a15565b34801561030357600080fd5b506102d2610bc2565b34801561031857600080fd5b50610321610d28565b6040516102689190612bff565b34801561033a57600080fd5b50610343610dba565b604080519485526020850193909352918301526060820152608001610268565b34801561036f57600080fd5b5061021861037e366004612c43565b610dd6565b34801561038f57600080fd5b50610218610f6a565b3480156103a457600080fd5b506102916103b3366004612c89565b610fa5565b3480156103c457600080fd5b506102916103d3366004612c89565b61103d565b3480156103e457600080fd5b506102916103f3366004612c89565b611074565b610218610406366004612cb5565b6110a7565b34801561041757600080fd5b50610218610426366004612cea565b6111aa565b34801561043757600080fd5b50610218610446366004612cb5565b61134d565b34801561045757600080fd5b50610254611451565b34801561046c57600080fd5b5061029161047b366004612be2565b611479565b34801561048c57600080fd5b5061029161049b366004612be2565b611484565b3480156104ac57600080fd5b506102186104bb366004612cb5565b61150a565b3480156104cc57600080fd5b506102186104db366004612d5c565b61162e565b3480156104ec57600080fd5b506102916104fb366004612be2565b61166f565b34801561050c57600080fd5b5061029161051b366004612be2565b61167d565b34801561052c57600080fd5b5061021861053b366004612d8e565b61168b565b34801561054c57600080fd5b506103216117f2565b34801561056157600080fd5b50610218610570366004612be2565b611842565b34801561058157600080fd5b50610321610590366004612be2565b6118e2565b60006000805160206130d58339815191525b546001600160a01b0316919050565b8160006105c16119b1565b600083815260029190910160205260409020546001600160a01b031614156106255760405162461bcd60e51b815260206004820152601760248201527610dd5c9c995b98de481b9bdd081c9959da5cdd195c9959604a1b604482015260640161020f565b600082116106455760405162461bcd60e51b815260040161020f90612dbe565b336000610651826119d5565b9050600061065d611a77565b6040516306d062ad60e01b815260048101889052602481018490526001600160a01b0391909116906306d062ad9060440160206040518083038186803b1580156106a657600080fd5b505afa1580156106ba573d6000803e3d6000fd5b505050506040513d601f19601f820116820180604052508101906106de9190612de6565b905060008186116106ef57856106f1565b815b9050806106fc6119b1565b6001600160a01b0386166000908152600491909101602090815260408083208b845290915290205410156107895760405162461bcd60e51b815260206004820152602e60248201527f4e6f7420656e6f75676820636f6c6c61746572616c20696e207468652073656c60448201526d65637465642063757272656e637960901b606482015260840161020f565b806107926119b1565b6001600160a01b0386166000908152600491909101602090815260408083208b8452909152812080549091906107c9908490612e15565b909155506107fd90506107da6119b1565b600089815260029190910160205260409020546001600160a01b03163383611a9c565b61080687611ad9565b60408051338152602081018990529081018290527fc3ded2be7db21b1af963f267d27750e4a15f174547d88b886b9bda43e2c6fa329060600160405180910390a150505050505050565b60006000805160206130b58339815191526105a7565b60008061087283611484565b9050600061088284600080611b52565b61088b85611c9d565b6108959190612e2c565b90508082116108a55760006108af565b6108af8183612e15565b949350505050565b8160006108c26119b1565b600083815260029190910160205260409020546001600160a01b031614156109265760405162461bcd60e51b815260206004820152601760248201527610dd5c9c995b98de481b9bdd081c9959da5cdd195c9959604a1b604482015260640161020f565b600082116109465760405162461bcd60e51b815260040161020f90612dbe565b6109756109516119b1565b600085815260029190910160205260409020546001600160a01b0316333085611d45565b8161097e6119b1565b33600090815260049190910160209081526040808320878452909152812080549091906109ac908490612e2c565b909155506109bb905083611ad9565b60408051338152602081018590529081018390527f19dacbf83c5de6658e14cbf7bcae5c15eca2eedecf1c66fbca928e4d351bea0f9060600160405180910390a1505050565b6000610a0f82600080611d83565b92915050565b6000610a1f610d28565b905060005b8151811015610bbe576000828281518110610a4157610a41612e44565b602002602001015190506000610a626000805160206130b583398151915290565b54604080517f5265736f6c766572206d697373696e67207461726765743a200000000000000060208201526039808201869052825180830390910181526059820192839052636795dbcd60e01b9092526001600160a01b0390921691636795dbcd91610ad391869190605d01612eb2565b60206040518083038186803b158015610aeb57600080fd5b505afa158015610aff573d6000803e3d6000fd5b505050506040513d601f19601f82011682018060405250810190610b239190612ecb565b60008381527f4abde63c3e81aefa5764b017968bc473e83e093d7e1a10247d19e0a3e4124019602090815260409182902080546001600160a01b0319166001600160a01b03851690811790915582518681529182015281519293507f88a93678a3692f6789d9546fc621bf7234b101ddb7d4fe479455112831b8aa68929081900390910190a150508080610bb690612ee8565b915050610a24565b5050565b600080610bcd610d28565b905060005b8151811015610d1f576000828281518110610bef57610bef612e44565b60200260200101519050610c0e6000805160206130b583398151915290565b600082815260019190910160205260409020546001600160a01b03166000805160206130b5833981519152546040516321f8a72160e01b8152600481018490526001600160a01b03909116906321f8a7219060240160206040518083038186803b158015610c7b57600080fd5b505afa158015610c8f573d6000803e3d6000fd5b505050506040513d601f19601f82011682018060405250810190610cb39190612ecb565b6001600160a01b0316141580610cfd575060008181527f4abde63c3e81aefa5764b017968bc473e83e093d7e1a10247d19e0a3e412401960205260409020546001600160a01b0316155b15610d0c576000935050505090565b5080610d1781612ee8565b915050610bd2565b50600191505090565b60408051600280825260608083018452926020830190803683370190505090507121bab93932b731bca1b7b73a3937b63632b960711b81600081518110610d7157610d71612e44565b602002602001018181525050762632b73234b733a6b0b935b2ba21b7b73a3937b63632b960491b81600181518110610dab57610dab612e44565b60200260200101818152505090565b600080600080610dc8611de6565b935093509350935090919293565b610ddf33611e27565b610dfb5760405162461bcd60e51b815260040161020f90612f19565b60008111610e1b5760405162461bcd60e51b815260040161020f90612dbe565b80610e246119b1565b6001600160a01b0386166000908152600591909101602090815260408083208684529091529020541015610e9a5760405162461bcd60e51b815260206004820152601a60248201527f4e6f7420656e6f75676820657363726f77656420616d6f756e74000000000000604482015260640161020f565b80610ea36119b1565b6001600160a01b03861660009081526005919091016020908152604080832086845290915281208054909190610eda908490612e15565b90915550610f0e9050610eeb6119b1565b600084815260029190910160205260409020546001600160a01b03168483611a9c565b826001600160a01b0316846001600160a01b03167f489c987eaac048a27dbf1d61a1ab18bbaa6cc7243f9b90e3ba00f1edb26ae20f8484604051610f5c929190918252602082015260400190565b60405180910390a350505050565b33610f73611451565b6001600160a01b031614610f995760405162461bcd60e51b815260040161020f90612f50565b610fa36000611e97565b565b600080610fb2848461103d565b9050610fbc611a77565b6040516344a6ecdd60e01b815260048101859052602481018390526001600160a01b0391909116906344a6ecdd9060440160206040518083038186803b15801561100557600080fd5b505afa158015611019573d6000803e3d6000fd5b505050506040513d601f19601f820116820180604052508101906108af9190612de6565b60006110476119b1565b6001600160a01b039390931660009081526004909301602090815260408085209385529290525090205490565b600061107e6119b1565b6001600160a01b0384166000908152602091825260408082208583529092522054905092915050565b6110b033611e27565b6110cc5760405162461bcd60e51b815260040161020f90612f19565b600081116110ec5760405162461bcd60e51b815260040161020f90612dbe565b61111b6110f76119b1565b600084815260029190910160205260409020546001600160a01b0316843084611d45565b806111246119b1565b6001600160a01b0385166000908152600591909101602090815260408083208684529091528120805490919061115b908490612e2c565b909155505060408051838152602081018390526001600160a01b038516917fa8f792519e7a6ab4f06121c0e11f2b45df7a581842ead2191d87afe3c81d50b491015b60405180910390a2505050565b600054610100900460ff16158080156111ca5750600054600160ff909116105b806111e45750303b1580156111e4575060005460ff166001145b6112475760405162461bcd60e51b815260206004820152602e60248201527f496e697469616c697a61626c653a20636f6e747261637420697320616c72656160448201526d191e481a5b9a5d1a585b1a5e995960921b606482015260840161020f565b6000805460ff19166001179055801561126a576000805461ff0019166101001790555b6000611274611f08565b6001600160a01b031614156112d65760405162461bcd60e51b815260206004820152602260248201527f4d7573742062652063616c6c65642066726f6d2070726f787920636f6e74726160448201526118dd60f21b606482015260840161020f565b6112df88611e97565b6112e887611f30565b6112f182611fc8565b6112fd86868686612039565b8015611343576000805461ff0019169055604051600181527f7f26b83ff96e1f2b6a682f133852f6798a09c465da95921460cefb38474024989060200160405180910390a15b5050505050505050565b61135633611e27565b6113725760405162461bcd60e51b815260040161020f90612f19565b8061137b6119b1565b6001600160a01b03851660009081526020918252604080822086835290925290812080549091906113ad908490612e15565b909155506113bb90506119b1565b6001600160a01b03841660009081526020918252604080822085835290925220546114105761140e826113ec6119b1565b6001600160a01b038616600090815260019190910160205260409020906120a2565b505b60408051838152602081018390526001600160a01b038516917fb4c40c9409d6c2c7dfd2fb0d7e0f26582b9dd0dee72dc0ff6ff09af501ba7a76910161119d565b60007f9acda75aebd150dd434541a4747a6dc606f4f1a59662477e67daf1fc0bf9e0aa6105a7565b6000610a0f826119d5565b60008061148f6119b1565b6001600160a01b038416600090815260039190910160205260408120915080806114b8846120ae565b905060005b818110156114ff5760006114d186836120b8565b90506114dd8882610fa5565b94506114e98585612e2c565b93505080806114f790612ee8565b9150506114bd565b509095945050505050565b61151333611e27565b61152f5760405162461bcd60e51b815260040161020f90612f19565b61155d8261153b6119b1565b6001600160a01b038616600090815260019190910160205260409020906120c4565b50611569838383611d83565b6115ad5760405162461bcd60e51b8152602060048201526015602482015274139bdd08195b9bdd59da0818dbdb1b185d195c985b605a1b604482015260640161020f565b806115b66119b1565b6001600160a01b03851660009081526020918252604080822086835290925290812080549091906115e8908490612e2c565b909155505060408051838152602081018390526001600160a01b038516917f430a1193f254f9e15dc397d101a1ecf0a3383c95007062135900cc7c2a6b8043910161119d565b33611637611451565b6001600160a01b03161461165d5760405162461bcd60e51b815260040161020f90612f50565b61166984848484612039565b50505050565b6000610a0f82600080611b52565b6000610a0f826000806120d0565b33611694611451565b6001600160a01b0316146116ba5760405162461bcd60e51b815260040161020f90612f50565b6116c2611a77565b6001600160a01b031663d4d4f6ce836040518263ffffffff1660e01b81526004016116ef91815260200190565b60206040518083038186803b15801561170757600080fd5b505afa15801561171b573d6000803e3d6000fd5b505050506040513d601f19601f8201168201806040525081019061173f9190612f85565b61177e5760405162461bcd60e51b815260206004820152601060248201526f496e76616c69642063757272656e637960801b604482015260640161020f565b806117876119b1565b6000848152600291909101602090815260409182902080546001600160a01b0319166001600160a01b039485161790558151858152928416908301527f2fe2c48bc79b8185433d1932041ab19e591d41c83d319835ea1c5bb357428790910160405180910390a15050565b60408051600180825281830190925260609160208083019080368337019050509050762632b73234b733a6b0b935b2ba21b7b73a3937b63632b960491b81600081518110610dab57610dab612e44565b3361184b611451565b6001600160a01b0316146118715760405162461bcd60e51b815260040161020f90612f50565b6001600160a01b0381166118d65760405162461bcd60e51b815260206004820152602660248201527f4f776e61626c653a206e6577206f776e657220697320746865207a65726f206160448201526564647265737360d01b606482015260840161020f565b6118df81611e97565b50565b606060006118ee6119b1565b6001600160a01b0384166000908152600391909101602052604081209150611915826120ae565b905060008167ffffffffffffffff81111561193257611932612f03565b60405190808252806020026020018201604052801561195b578160200160208202803683370190505b50905060005b828110156119a857600061197585836120b8565b90508083838151811061198a5761198a612e44565b602090810291909101015250806119a081612ee8565b915050611961565b50949350505050565b7f53832330c92cb5d80f0e1ff6fdb9886f7fad39132543bafb7497316eae2a831790565b6000806119e183611484565b905060006119f184600080611b52565b6119fa85611c9d565b611a049190612e2c565b905080611a12575092915050565b612710611a1d612126565b611a279083612fa7565b611a319190612fc6565b821115611a6d57612710611a43612126565b611a4d9083612fa7565b611a5961271085612fa7565b611a639190612e15565b6108af9190612fc6565b5060009392505050565b6000611a977121bab93932b731bca1b7b73a3937b63632b960711b612139565b905090565b6000805160206130d5833981519152546001600160a01b0384811691161415611ace57611ac982826121d1565b505050565b611ac983838361231c565b6000611ae36119b1565b336000908152600491909101602090815260408083208584529091529020541115611b2d57610bbe81611b146119b1565b33600090815260039190910160205260409020906120c4565b610bbe81611b396119b1565b33600090815260039190910160205260409020906120a2565b600080611b5d6119b1565b6001600160a01b0386166000908152600191909101602052604081209150805b611b86836120ae565b811015611c93576000611b9984836120b8565b9050611ba36119b1565b6001600160a01b0389166000908152602091825260408082208483529092522054925086811415611bdb57611bd88684612e2c565b92505b60008311611bea576000611c73565b611bf2611a77565b6040516344a6ecdd60e01b815260048101839052602481018590526001600160a01b0391909116906344a6ecdd9060440160206040518083038186803b158015611c3b57600080fd5b505afa158015611c4f573d6000803e3d6000fd5b505050506040513d601f19601f82011682018060405250810190611c739190612de6565b611c7d9086612e2c565b9450508080611c8b90612ee8565b915050611b7d565b5050509392505050565b600080611ca8612407565b60405163fb54a6b360e01b81526001600160a01b038581166004830152919091169063fb54a6b39060240160206040518083038186803b158015611ceb57600080fd5b505afa158015611cff573d6000803e3d6000fd5b505050506040513d601f19601f82011682018060405250810190611d239190612de6565b905060008113611d3b57611d3681612fe8565b611d3e565b60005b9392505050565b6000805160206130d5833981519152546001600160a01b0385811691161415611d7757611d72828261242c565b611669565b61166984848484612575565b600080611d8f85611484565b90506000611d9e868686611b52565b611da787611c9d565b611db19190612e2c565b9050801580611ddc5750611dc3612126565b611dcd9082612fa7565b611dd961271084612fa7565b10155b9695505050505050565b600080600080611df4612669565b60010154611e00612669565b60020154611e0c612669565b54611e15612669565b60030154935093509350935090919293565b600080611e326117f2565b905060005b8151811015611a6d57611e62828281518110611e5557611e55612e44565b6020026020010151612139565b6001600160a01b0316846001600160a01b03161415611e85575060019392505050565b80611e8f81612ee8565b915050611e37565b7f9acda75aebd150dd434541a4747a6dc606f4f1a59662477e67daf1fc0bf9e0aa80546001600160a01b038381166001600160a01b0319831681179093556040519116919082907f8be0079c531659141344cd1fd0a4f28419497f9722a3daafe3b4186f6b6457e090600090a35050565b60007f360894a13ba1a3210667c828492db98dca3e2076cc3735a920a3ca505d382bbc6105a7565b6000805160206130b5833981519152546001600160a01b031615611f965760405162461bcd60e51b815260206004820152601b60248201527f7265736f6c766572207265676973746572656420616c72656164790000000000604482015260640161020f565b806000805160206130b58339815191525b80546001600160a01b0319166001600160a01b039290921691909117905550565b6000805160206130d5833981519152546001600160a01b0316156120245760405162461bcd60e51b8152602060048201526013602482015272105b1c9958591e481a5b9a5d1a585b1a5e9959606a1b604482015260640161020f565b806000805160206130d5833981519152611fa7565b612041612669565b600101548414612054576120548461268d565b61205c612669565b60020154831461206f5761206f83612701565b612077612669565b54821461208757612087826127e0565b61208f612669565b60030154811461166957611669816128a8565b6000611d3e8383612976565b6000610a0f825490565b6000611d3e8383612a69565b6000611d3e8383612a93565b6000806120dc85611484565b905060006120eb868686611b52565b6120f487611c9d565b6120fe9190612e2c565b9050811561211d578161211361271083612fa7565b611ddc9190612fc6565b50509392505050565b6000612130612669565b60010154905090565b60008181527f4abde63c3e81aefa5764b017968bc473e83e093d7e1a10247d19e0a3e41240196020908152604080832054815170026b4b9b9b4b7339030b2323932b9b99d1607d1b9381019390935260318084018690528251808503909101815260519093019091526001600160a01b031690816121ca5760405162461bcd60e51b815260040161020f9190613005565b5092915050565b60006000805160206130d5833981519152546040516370a0823160e01b81523060048201526001600160a01b03909116906370a082319060240160206040518083038186803b15801561222357600080fd5b505afa158015612237573d6000803e3d6000fd5b505050506040513d601f19601f8201168201806040525081019061225b9190612de6565b9050818110156122a15760405162461bcd60e51b8152602060048201526011602482015270092dce6eaccccd2c6d2cadce840ae8aa89607b1b604482015260640161020f565b8015611ac9576000805160206130d583398151915254604051632e1a7d4d60e01b8152600481018490526001600160a01b0390911690632e1a7d4d90602401600060405180830381600087803b1580156122fa57600080fd5b505af115801561230e573d6000803e3d6000fd5b50505050611ac98383612ae2565b604080516001600160a01b038481166024830152604480830185905283518084039091018152606490920183526020820180516001600160e01b031663a9059cbb60e01b17905291516000928392908716916123789190613018565b6000604051808303816000865af19150503d80600081146123b5576040519150601f19603f3d011682016040523d82523d6000602084013e6123ba565b606091505b50915091508180156123e45750805115806123e45750808060200190518101906123e49190612f85565b6124005760405162461bcd60e51b815260040161020f90613034565b5050505050565b6000611a97762632b73234b733a6b0b935b2ba21b7b73a3937b63632b960491b612139565b8047101561246f5760405162461bcd60e51b815260206004820152601060248201526f092dce6eaccccd2c6d2cadce8408aa8960831b604482015260640161020f565b6000805160206130d58339815191525460408051630d0e30db60e41b815290516001600160a01b039092169163d0e30db0918491600480830192600092919082900301818588803b1580156124c357600080fd5b505af11580156124d7573d6000803e3d6000fd5b50505050506124f16000805160206130d583398151915290565b5460405163a9059cbb60e01b81526001600160a01b038481166004830152602482018490529091169063a9059cbb90604401602060405180830381600087803b15801561253d57600080fd5b505af1158015612551573d6000803e3d6000fd5b505050506040513d601f19601f82011682018060405250810190611ac99190612f85565b604080516001600160a01b0385811660248301528481166044830152606480830185905283518084039091018152608490920183526020820180516001600160e01b03166323b872dd60e01b17905291516000928392908816916125d99190613018565b6000604051808303816000865af19150503d8060008114612616576040519150601f19603f3d011682016040523d82523d6000602084013e61261b565b606091505b50915091508180156126455750805115806126455750808060200190518101906126459190612f85565b6126615760405162461bcd60e51b815260040161020f90613034565b505050505050565b7f1aaabb4945989eb9ee8150fddc35fcfc125664a7b898aa2de5931bb12484d05290565b600081116126ad5760405162461bcd60e51b815260040161020f90613078565b7f31ee2d7ab5f3365672e54f81f75b37a4d8b0f1085872bdb80349a1cb08ddb7116126d6612669565b6001015460408051918252602082018490520160405180910390a1806126fa612669565b6001015550565b600081116127215760405162461bcd60e51b815260040161020f90613078565b612729612669565b60010154811061278c5760405162461bcd60e51b815260206004820152602860248201527f4175746f206c69717569646174696f6e207468726573686f6c642072617465206044820152676f766572666c6f7760c01b606482015260840161020f565b7fd3353684d64f1c80498433d8407c96e6bbeb1ec88b6200ec97d2c910fdbd0da46127b5612669565b6002015460408051918252602082018490520160405180910390a1806127d9612669565b6002015550565b600081116128005760405162461bcd60e51b815260040161020f90613078565b612808612669565b60020154811061285a5760405162461bcd60e51b815260206004820152601f60248201527f4c69717569646174696f6e2070726963652072617465206f766572666c6f7700604482015260640161020f565b7f86aa422ec6af9520cb2f744924b12937e3db1aa5ce22050d0d519621e8409070612883612669565b5460408051918252602082018490520160405180910390a1806128a4612669565b5550565b600081116128c85760405162461bcd60e51b815260040161020f90613078565b6128d0612669565b6002015481106129225760405162461bcd60e51b815260206004820152601c60248201527f4d696e20636f6c6c61746572616c2072617465206f766572666c6f7700000000604482015260640161020f565b7f8367b1759e8fdce5712002e7aa025339b99cf3c850b194ebdf37219f86b01ee661294b612669565b6003015460408051918252602082018490520160405180910390a18061296f612669565b6003015550565b60008181526001830160205260408120548015612a5f57600061299a600183612e15565b85549091506000906129ae90600190612e15565b9050818114612a135760008660000182815481106129ce576129ce612e44565b90600052602060002001549050808760000184815481106129f1576129f1612e44565b6000918252602080832090910192909255918252600188019052604090208390555b8554869080612a2457612a2461309e565b600190038181906000526020600020016000905590558560010160008681526020019081526020016000206000905560019350505050610a0f565b6000915050610a0f565b6000826000018281548110612a8057612a80612e44565b9060005260206000200154905092915050565b6000818152600183016020526040812054612ada57508154600181810184556000848152602080822090930184905584548482528286019093526040902091909155610a0f565b506000610a0f565b604080516000808252602082019092526001600160a01b038416908390604051612b0c9190613018565b60006040518083038185875af1925050503d8060008114612b49576040519150601f19603f3d011682016040523d82523d6000602084013e612b4e565b606091505b5050905080611ac95760405162461bcd60e51b815260206004820152602360248201527f5472616e7366657248656c7065723a204554485f5452414e534645525f46414960448201526213115160ea1b606482015260840161020f565b60008060408385031215612bbe57600080fd5b50508035926020909101359150565b6001600160a01b03811681146118df57600080fd5b600060208284031215612bf457600080fd5b8135611d3e81612bcd565b6020808252825182820181905260009190848201906040850190845b81811015612c3757835183529284019291840191600101612c1b565b50909695505050505050565b60008060008060808587031215612c5957600080fd5b8435612c6481612bcd565b93506020850135612c7481612bcd565b93969395505050506040820135916060013590565b60008060408385031215612c9c57600080fd5b8235612ca781612bcd565b946020939093013593505050565b600080600060608486031215612cca57600080fd5b8335612cd581612bcd565b95602085013595506040909401359392505050565b600080600080600080600060e0888a031215612d0557600080fd5b8735612d1081612bcd565b96506020880135612d2081612bcd565b955060408801359450606088013593506080880135925060a0880135915060c0880135612d4c81612bcd565b8091505092959891949750929550565b60008060008060808587031215612d7257600080fd5b5050823594602084013594506040840135936060013592509050565b60008060408385031215612da157600080fd5b823591506020830135612db381612bcd565b809150509250929050565b6020808252600e908201526d125b9d985b1a5908185b5bdd5b9d60921b604082015260600190565b600060208284031215612df857600080fd5b5051919050565b634e487b7160e01b600052601160045260246000fd5b600082821015612e2757612e27612dff565b500390565b60008219821115612e3f57612e3f612dff565b500190565b634e487b7160e01b600052603260045260246000fd5b60005b83811015612e75578181015183820152602001612e5d565b838111156116695750506000910152565b60008151808452612e9e816020860160208601612e5a565b601f01601f19169290920160200192915050565b8281526040602082015260006108af6040830184612e86565b600060208284031215612edd57600080fd5b8151611d3e81612bcd565b6000600019821415612efc57612efc612dff565b5060010190565b634e487b7160e01b600052604160045260246000fd5b60208082526017908201527f4f6e6c7920416363657074656420436f6e747261637473000000000000000000604082015260600190565b6020808252818101527f4f776e61626c653a2063616c6c6572206973206e6f7420746865206f776e6572604082015260600190565b600060208284031215612f9757600080fd5b81518015158114611d3e57600080fd5b6000816000190483118215151615612fc157612fc1612dff565b500290565b600082612fe357634e487b7160e01b600052601260045260246000fd5b500490565b6000600160ff1b821415612ffe57612ffe612dff565b5060000390565b602081526000611d3e6020830184612e86565b6000825161302a818460208701612e5a565b9190910192915050565b60208082526024908201527f5472616e7366657248656c7065723a205452414e534645525f46524f4d5f46416040820152631253115160e21b606082015260800190565b6020808252600c908201526b52617465206973207a65726f60a01b604082015260600190565b634e487b7160e01b600052603160045260246000fdfe4abde63c3e81aefa5764b017968bc473e83e093d7e1a10247d19e0a3e41240187522ee63bb7da831844dcdb60f35e8cfa51225eeb4ed6734e421ed06f0d56805a2646970667358221220984e07d7631eddf89fa952981a2db5f2245a7d0d8d87775ed99b16ada45fe12764736f6c63430008090033",
  "implementation": "0x21B094EA102212d10940A3FC4e930E885DFaea26",
  "devdoc": {
    "kind": "dev",
    "methods": {
      "acceptedContracts()": {
        "details": "The contact name listed in this method is also needed to be listed `requiredContracts` method."
      },
      "addEscrowedAmount(address,bytes32,uint256)": {
        "params": {
          "_amount": "Amount of funds to be add into escrow",
          "_ccy": "Currency name in bytes32",
          "_payer": "Address of user making payment"
        }
      },
      "deposit(bytes32,uint256)": {
        "details": "Deposits funds by the caller into collateral.",
        "params": {
          "_amount": "Amount of funds to deposit",
          "_ccy": "Currency name in bytes32"
        }
      },
      "getCollateralAmount(address,bytes32)": {
        "params": {
          "_ccy": "Currency name in bytes32",
          "_user": "User's address"
        },
        "returns": {
          "_0": "The deposited amount"
        }
      },
      "getCollateralAmountInETH(address,bytes32)": {
        "params": {
          "_ccy": "Specified currency",
          "_user": "User's address"
        },
        "returns": {
          "_0": "The deposited amount in ETH"
        }
      },
      "getCollateralParameters()": {
        "returns": {
          "autoLiquidationThresholdRate": " The rate used as the auto liquidation threshold",
          "liquidationPriceRate": "The rate used as the liquidation price",
          "marginCallThresholdRate": "The rate used as the margin call threshold",
          "minCollateralRate": "The rate used minima collateral"
        }
      },
      "getCoverage(address)": {
        "params": {
          "_user": "User's address"
        },
        "returns": {
          "_0": "The rate of collateral used"
        }
      },
      "getTotalCollateralAmountInETH(address)": {
        "params": {
          "_user": "Address of collateral user"
        },
        "returns": {
          "_0": "The total deposited amount in ETH"
        }
      },
      "getTotalUnsettledExposure(address)": {
        "params": {
          "_user": "User's address"
        },
        "returns": {
          "_0": "Total unsettled exposure"
        }
      },
      "getUnsettledCollateral(address,bytes32)": {
        "params": {
          "_ccy": "Currency name in bytes32",
          "_user": "User's address"
        },
        "returns": {
          "_0": "Unsettled exposure"
        }
      },
      "getUnusedCollateral(address)": {
        "params": {
          "_user": "User's address"
        },
        "returns": {
          "_0": "The total amount of unused collateral"
        }
      },
      "getUsedCurrencies(address)": {
        "params": {
          "_user": "User's address"
        },
        "returns": {
          "_0": "The currency names in bytes32"
        }
      },
      "getWithdrawableCollateral(address)": {
        "params": {
          "_user": "User's address"
        },
        "returns": {
          "_0": "Maximum amount of ETH that can be withdrawn"
        }
      },
      "initialize(address,address,uint256,uint256,uint256,uint256,address)": {
        "details": "Function is invoked by the proxy contract when the contract is added to the ProxyController.",
        "params": {
          "_WETH9": "The address of WETH",
          "_autoLiquidationThresholdRate": "The rate used as the auto liquidation threshold",
          "_liquidationPriceRate": "The rate used as the liquidation price",
          "_marginCallThresholdRate": "The rate used as the margin call threshold",
          "_minCollateralRate": "The rate used minima collateral",
          "_owner": "The address of the contract owner",
          "_resolver": "The address of the Address Resolver contract"
        }
      },
      "isCovered(address)": {
        "params": {
          "_user": "User's address"
        },
        "returns": {
          "_0": "The boolean if the collateral has sufficient coverage or not"
        }
      },
      "owner()": {
        "details": "Returns the address of the current owner."
      },
      "releaseUnsettledCollateral(address,bytes32,uint256)": {
        "params": {
          "_amount": "Amount of funds to be unlocked from unsettled exposure in a specified currency",
          "_ccy": "Currency name in bytes32",
          "_user": "User's address"
        }
      },
      "removeEscrowedAmount(address,address,bytes32,uint256)": {
        "params": {
          "_amount": "Amount of funds to be removed from escrow",
          "_ccy": "Currency name in bytes32",
          "_payer": "Address of user making payment",
          "_receiver": "Address of user receiving payment"
        }
      },
      "renounceOwnership()": {
        "details": "Leaves the contract without owner. It will not be possible to call `onlyOwner` functions anymore. Can only be called by the current owner. NOTE: Renouncing ownership will leave the contract without an owner, thereby removing any functionality that is only available to the owner."
      },
      "requiredContracts()": {
        "details": "The contract name list is in `./libraries/Contracts.sol`."
      },
      "setCollateralParameters(uint256,uint256,uint256,uint256)": {
        "params": {
          "_autoLiquidationThresholdRate": "Auto liquidation threshold rate",
          "_liquidationPriceRate": "Liquidation price rate",
          "_marginCallThresholdRate": "Margin call threshold ratio",
          "_minCollateralRate": "Minimal collateral rate"
        }
      },
      "transferOwnership(address)": {
        "details": "Transfers ownership of the contract to a new account (`newOwner`). Can only be called by the current owner."
      },
      "useUnsettledCollateral(address,bytes32,uint256)": {
        "params": {
          "_amount": "Amount of funds to be locked in a specified currency",
          "_ccy": "Currency name in bytes32",
          "_user": "User's address"
        }
      },
      "withdraw(bytes32,uint256)": {
        "params": {
          "_amount": "Amount of funds to withdraw.",
          "_ccy": "Currency name in bytes32"
        }
      }
    },
    "version": 1
  },
  "userdoc": {
    "kind": "user",
    "methods": {
      "acceptedContracts()": {
        "notice": "Returns contract names that can call this contract."
      },
      "addEscrowedAmount(address,bytes32,uint256)": {
        "notice": "Add funds to escrow."
      },
      "getCollateralAmount(address,bytes32)": {
        "notice": "Gets the amount deposited in the user's collateral."
      },
      "getCollateralAmountInETH(address,bytes32)": {
        "notice": "Gets the amount deposited in the user's collateral by converting it to ETH."
      },
      "getCollateralParameters()": {
        "notice": "Gets parameters related to collateral."
      },
      "getCoverage(address)": {
        "notice": "Gets the rate of collateral used."
      },
      "getTotalCollateralAmountInETH(address)": {
        "notice": "Gets the total amount deposited in the user's collateral in all currencies. by converting it to ETH."
      },
      "getTotalUnsettledExposure(address)": {
        "notice": "Gets total unsettled exposure in all currencies."
      },
      "getUnsettledCollateral(address,bytes32)": {
        "notice": "Gets unsettled exposure for the selected currency"
      },
      "getUnusedCollateral(address)": {
        "notice": "Gets the total amount of unused collateral"
      },
      "getUsedCurrencies(address)": {
        "notice": "Gets the currencies that the user used as collateral."
      },
      "getWithdrawableCollateral(address)": {
        "notice": "Gets the maximum amount of ETH that can be withdrawn from user collateral."
      },
      "initialize(address,address,uint256,uint256,uint256,uint256,address)": {
        "notice": "Initializes the contract."
      },
      "isCovered(address)": {
        "notice": "Gets if the collateral has enough coverage."
      },
      "releaseUnsettledCollateral(address,bytes32,uint256)": {
        "notice": "Releases the amount of unsettled exposure for the selected currency."
      },
      "removeEscrowedAmount(address,address,bytes32,uint256)": {
        "notice": "Remove funds from escrow."
      },
      "requiredContracts()": {
        "notice": "Returns the contract names used in this contract."
      },
      "setCollateralParameters(uint256,uint256,uint256,uint256)": {
        "notice": "Sets main collateral parameters this function solves the issue of frontrunning during parameters tuning.Triggers only be contract owner"
      },
      "useUnsettledCollateral(address,bytes32,uint256)": {
        "notice": "Locks unsettled collateral for the selected currency."
      },
      "withdraw(bytes32,uint256)": {
        "notice": "Withdraws funds by the caller from unused collateral."
      }
    },
    "notice": "Implements the management of the token in each currency for users. This contract manages the following data related to tokens. - Deposited token amount as the collateral - Unsettled collateral amount used by order - Escrowed token amount added by lending orders - Parameters related to the collateral   - Margin Call Threshold Rate   - Auto Liquidation Threshold Rate   - Liquidation Price Rate   - Min Collateral Rate To address a currency as collateral, it must be registered using `registerCurrency` method in this contract.",
    "version": 1
  },
  "storageLayout": {
    "storage": [
      {
        "astId": 790,
        "contract": "contracts/TokenVault.sol:TokenVault",
        "label": "_initialized",
        "offset": 0,
        "slot": "0",
        "type": "t_uint8"
      },
      {
        "astId": 793,
        "contract": "contracts/TokenVault.sol:TokenVault",
        "label": "_initializing",
        "offset": 1,
        "slot": "0",
        "type": "t_bool"
      }
    ],
    "types": {
      "t_bool": {
        "encoding": "inplace",
        "label": "bool",
        "numberOfBytes": "1"
      },
      "t_uint8": {
        "encoding": "inplace",
        "label": "uint8",
        "numberOfBytes": "1"
      }
    }
  }
}