{
  "address": "0x91e118423db65CC26cB0A8203607E583C6E187fC",
  "abi": [
    {
      "anonymous": false,
      "inputs": [
        {
          "indexed": false,
          "internalType": "bytes32",
          "name": "name",
          "type": "bytes32"
        },
        {
          "indexed": false,
          "internalType": "address",
          "name": "destination",
          "type": "address"
        }
      ],
      "name": "CacheUpdated",
      "type": "event"
    },
    {
      "anonymous": false,
      "inputs": [
        {
          "indexed": true,
          "internalType": "address",
          "name": "user",
          "type": "address"
        },
        {
          "indexed": false,
          "internalType": "bytes32",
          "name": "ccy",
          "type": "bytes32"
        },
        {
          "indexed": false,
          "internalType": "uint256",
          "name": "amount",
          "type": "uint256"
        }
      ],
      "name": "Deposit",
      "type": "event"
    },
    {
      "anonymous": false,
      "inputs": [
        {
          "indexed": false,
          "internalType": "uint8",
          "name": "version",
          "type": "uint8"
        }
      ],
      "name": "Initialized",
      "type": "event"
    },
    {
      "anonymous": false,
      "inputs": [
        {
          "indexed": true,
          "internalType": "address",
          "name": "previousOwner",
          "type": "address"
        },
        {
          "indexed": true,
          "internalType": "address",
          "name": "newOwner",
          "type": "address"
        }
      ],
      "name": "OwnershipTransferred",
      "type": "event"
    },
    {
      "anonymous": false,
      "inputs": [
        {
          "indexed": false,
          "internalType": "bytes32",
          "name": "ccy",
          "type": "bytes32"
        },
        {
          "indexed": false,
          "internalType": "address",
          "name": "tokenAddress",
          "type": "address"
        }
      ],
      "name": "RegisterCurrency",
      "type": "event"
    },
    {
      "anonymous": false,
      "inputs": [
        {
          "indexed": true,
          "internalType": "address",
          "name": "user",
          "type": "address"
        },
        {
          "indexed": false,
          "internalType": "bytes32",
          "name": "ccyIn",
          "type": "bytes32"
        },
        {
          "indexed": false,
          "internalType": "bytes32",
          "name": "ccyOut",
          "type": "bytes32"
        },
        {
          "indexed": false,
          "internalType": "uint256",
          "name": "amountIn",
          "type": "uint256"
        },
        {
          "indexed": false,
          "internalType": "uint256",
          "name": "amountOut",
          "type": "uint256"
        }
      ],
      "name": "Swap",
      "type": "event"
    },
    {
      "anonymous": false,
      "inputs": [
        {
          "indexed": true,
          "internalType": "address",
          "name": "user",
          "type": "address"
        },
        {
          "indexed": false,
          "internalType": "bytes32",
          "name": "ccy",
          "type": "bytes32"
        },
        {
          "indexed": false,
          "internalType": "uint256",
          "name": "amount",
          "type": "uint256"
        }
      ],
      "name": "Withdraw",
      "type": "event"
    },
    {
      "inputs": [],
      "name": "acceptedContracts",
      "outputs": [
        {
          "internalType": "bytes32[]",
          "name": "contracts",
          "type": "bytes32[]"
        }
      ],
      "stateMutability": "pure",
      "type": "function"
    },
    {
      "inputs": [
        {
          "internalType": "address",
          "name": "_user",
          "type": "address"
        },
        {
          "internalType": "bytes32",
          "name": "_ccy",
          "type": "bytes32"
        },
        {
          "internalType": "uint256",
          "name": "_amount",
          "type": "uint256"
        }
      ],
      "name": "addCollateral",
      "outputs": [],
      "stateMutability": "nonpayable",
      "type": "function"
    },
    {
      "inputs": [],
      "name": "buildCache",
      "outputs": [],
      "stateMutability": "nonpayable",
      "type": "function"
    },
    {
      "inputs": [
        {
          "internalType": "bytes32",
          "name": "_ccy",
          "type": "bytes32"
        },
        {
          "internalType": "uint256",
          "name": "_amount",
          "type": "uint256"
        }
      ],
      "name": "deposit",
      "outputs": [],
      "stateMutability": "payable",
      "type": "function"
    },
    {
      "inputs": [
        {
          "internalType": "address",
          "name": "_from",
          "type": "address"
        },
        {
          "internalType": "bytes32",
          "name": "_ccy",
          "type": "bytes32"
        },
        {
          "internalType": "uint256",
          "name": "_amount",
          "type": "uint256"
        }
      ],
      "name": "depositFrom",
      "outputs": [],
      "stateMutability": "payable",
      "type": "function"
    },
    {
      "inputs": [
        {
          "internalType": "address",
          "name": "_user",
          "type": "address"
        }
      ],
      "name": "getCoverage",
      "outputs": [
        {
          "internalType": "uint256",
          "name": "",
          "type": "uint256"
        }
      ],
      "stateMutability": "view",
      "type": "function"
    },
    {
      "inputs": [
        {
          "internalType": "address",
          "name": "_user",
          "type": "address"
        },
        {
          "internalType": "bytes32",
          "name": "_ccy",
          "type": "bytes32"
        }
      ],
      "name": "getDepositAmount",
      "outputs": [
        {
          "internalType": "uint256",
          "name": "",
          "type": "uint256"
        }
      ],
      "stateMutability": "view",
      "type": "function"
    },
    {
      "inputs": [
        {
          "internalType": "address",
          "name": "_user",
          "type": "address"
        }
      ],
      "name": "getLiquidationAmount",
      "outputs": [
        {
          "internalType": "uint256",
          "name": "",
          "type": "uint256"
        }
      ],
      "stateMutability": "view",
      "type": "function"
    },
    {
      "inputs": [],
      "name": "getLiquidationThresholdRate",
      "outputs": [
        {
          "internalType": "uint256",
          "name": "liquidationThresholdRate",
          "type": "uint256"
        }
      ],
      "stateMutability": "view",
      "type": "function"
    },
    {
      "inputs": [
        {
          "internalType": "bytes32",
          "name": "_ccy",
          "type": "bytes32"
        }
      ],
      "name": "getTokenAddress",
      "outputs": [
        {
          "internalType": "address",
          "name": "",
          "type": "address"
        }
      ],
      "stateMutability": "view",
      "type": "function"
    },
    {
      "inputs": [
        {
          "internalType": "address",
          "name": "_user",
          "type": "address"
        }
      ],
      "name": "getTotalCollateralAmount",
      "outputs": [
        {
          "internalType": "uint256",
          "name": "totalCollateralAmount",
          "type": "uint256"
        }
      ],
      "stateMutability": "view",
      "type": "function"
    },
    {
      "inputs": [],
      "name": "getUniswapRouter",
      "outputs": [
        {
          "internalType": "address",
          "name": "uniswapRouter",
          "type": "address"
        }
      ],
      "stateMutability": "view",
      "type": "function"
    },
    {
      "inputs": [
        {
          "internalType": "address",
          "name": "_user",
          "type": "address"
        }
      ],
      "name": "getUnusedCollateral",
      "outputs": [
        {
          "internalType": "uint256",
          "name": "",
          "type": "uint256"
        }
      ],
      "stateMutability": "view",
      "type": "function"
    },
    {
      "inputs": [
        {
          "internalType": "address",
          "name": "_user",
          "type": "address"
        }
      ],
      "name": "getUsedCurrencies",
      "outputs": [
        {
          "internalType": "bytes32[]",
          "name": "",
          "type": "bytes32[]"
        }
      ],
      "stateMutability": "view",
      "type": "function"
    },
    {
      "inputs": [
        {
          "internalType": "address",
          "name": "_user",
          "type": "address"
        }
      ],
      "name": "getWithdrawableCollateral",
      "outputs": [
        {
          "internalType": "uint256",
          "name": "",
          "type": "uint256"
        }
      ],
      "stateMutability": "view",
      "type": "function"
    },
    {
      "inputs": [
        {
          "internalType": "address",
          "name": "_owner",
          "type": "address"
        },
        {
          "internalType": "address",
          "name": "_resolver",
          "type": "address"
        },
        {
          "internalType": "uint256",
          "name": "_liquidationThresholdRate",
          "type": "uint256"
        },
        {
          "internalType": "address",
          "name": "_uniswapRouter",
          "type": "address"
        },
        {
          "internalType": "address",
          "name": "_WETH9",
          "type": "address"
        }
      ],
      "name": "initialize",
      "outputs": [],
      "stateMutability": "nonpayable",
      "type": "function"
    },
    {
      "inputs": [
        {
          "internalType": "address",
          "name": "_user",
          "type": "address"
        }
      ],
      "name": "isCovered",
      "outputs": [
        {
          "internalType": "bool",
          "name": "",
          "type": "bool"
        }
      ],
      "stateMutability": "view",
      "type": "function"
    },
    {
      "inputs": [
        {
          "internalType": "address",
          "name": "_user",
          "type": "address"
        },
        {
          "internalType": "bytes32",
          "name": "_unsettledOrderCcy",
          "type": "bytes32"
        },
        {
          "internalType": "uint256",
          "name": "_unsettledOrderAmount",
          "type": "uint256"
        },
        {
          "internalType": "enum ProtocolTypes.Side",
          "name": "_unsettledOrderSide",
          "type": "uint8"
        }
      ],
      "name": "isCovered",
      "outputs": [
        {
          "internalType": "bool",
          "name": "",
          "type": "bool"
        }
      ],
      "stateMutability": "view",
      "type": "function"
    },
    {
      "inputs": [
        {
          "internalType": "bytes32",
          "name": "_ccy",
          "type": "bytes32"
        }
      ],
      "name": "isRegisteredCurrency",
      "outputs": [
        {
          "internalType": "bool",
          "name": "",
          "type": "bool"
        }
      ],
      "stateMutability": "view",
      "type": "function"
    },
    {
      "inputs": [],
      "name": "isResolverCached",
      "outputs": [
        {
          "internalType": "bool",
          "name": "",
          "type": "bool"
        }
      ],
      "stateMutability": "view",
      "type": "function"
    },
    {
      "inputs": [],
      "name": "owner",
      "outputs": [
        {
          "internalType": "address",
          "name": "",
          "type": "address"
        }
      ],
      "stateMutability": "view",
      "type": "function"
    },
    {
      "inputs": [
        {
          "internalType": "bytes32",
          "name": "_ccy",
          "type": "bytes32"
        },
        {
          "internalType": "address",
          "name": "_tokenAddress",
          "type": "address"
        }
      ],
      "name": "registerCurrency",
      "outputs": [],
      "stateMutability": "nonpayable",
      "type": "function"
    },
    {
      "inputs": [
        {
          "internalType": "address",
          "name": "_user",
          "type": "address"
        },
        {
          "internalType": "bytes32",
          "name": "_ccy",
          "type": "bytes32"
        },
        {
          "internalType": "uint256",
          "name": "_amount",
          "type": "uint256"
        }
      ],
      "name": "removeCollateral",
      "outputs": [],
      "stateMutability": "nonpayable",
      "type": "function"
    },
    {
      "inputs": [],
      "name": "renounceOwnership",
      "outputs": [],
      "stateMutability": "nonpayable",
      "type": "function"
    },
    {
      "inputs": [],
      "name": "requiredContracts",
      "outputs": [
        {
          "internalType": "bytes32[]",
          "name": "contracts",
          "type": "bytes32[]"
        }
      ],
      "stateMutability": "pure",
      "type": "function"
    },
    {
      "inputs": [],
      "name": "resolver",
      "outputs": [
        {
          "internalType": "contract IAddressResolver",
          "name": "",
          "type": "address"
        }
      ],
      "stateMutability": "view",
      "type": "function"
    },
    {
      "inputs": [
        {
          "internalType": "uint256",
          "name": "_liquidationThresholdRate",
          "type": "uint256"
        },
        {
          "internalType": "address",
          "name": "_uniswapRouter",
          "type": "address"
        }
      ],
      "name": "setCollateralParameters",
      "outputs": [],
      "stateMutability": "nonpayable",
      "type": "function"
    },
    {
      "inputs": [
        {
          "internalType": "address",
          "name": "_user",
          "type": "address"
        },
        {
          "internalType": "bytes32",
          "name": "_ccyIn",
          "type": "bytes32"
        },
        {
          "internalType": "bytes32",
          "name": "_ccyOut",
          "type": "bytes32"
        },
        {
          "internalType": "uint256",
          "name": "_amountInMax",
          "type": "uint256"
        },
        {
          "internalType": "uint256",
          "name": "_amountOut",
          "type": "uint256"
        },
        {
          "internalType": "uint24",
          "name": "_poolFee",
          "type": "uint24"
        }
      ],
      "name": "swapCollateral",
      "outputs": [
        {
          "internalType": "uint256",
          "name": "amountIn",
          "type": "uint256"
        }
      ],
      "stateMutability": "nonpayable",
      "type": "function"
    },
    {
      "inputs": [
        {
          "internalType": "address",
          "name": "newOwner",
          "type": "address"
        }
      ],
      "name": "transferOwnership",
      "outputs": [],
      "stateMutability": "nonpayable",
      "type": "function"
    },
    {
      "inputs": [
        {
          "internalType": "bytes32",
          "name": "_ccy",
          "type": "bytes32"
        },
        {
          "internalType": "uint256",
          "name": "_amount",
          "type": "uint256"
        }
      ],
      "name": "withdraw",
      "outputs": [],
      "stateMutability": "nonpayable",
      "type": "function"
    },
    {
      "stateMutability": "payable",
      "type": "receive"
    }
  ],
  "transactionHash": "0x90135b582e6d6bd22aa4af6fed487ef68aa4a3f60d5640a003e4ab306b50102a",
  "args": [],
  "numDeployments": 2,
  "solcInputHash": "3c53353d59297dc150ed95b30db9a5aa",
  "bytecode": "0x608060405234801561001057600080fd5b5061322e806100206000396000f3fe6080604052600436106101d15760003560e01c80633d03b9da116100f7578063aec9455c11610095578063d2a19b3e11610064578063d2a19b3e1461054b578063e09976591461056b578063f2fde38b14610580578063fc700810146105a057600080fd5b8063aec9455c146104cb578063afe8efcf146104eb578063b12e44101461050b578063ca4230311461052b57600080fd5b8063715018a6116100d1578063715018a61461046e5780638da5cb5b14610483578063948060dd1461049857806396994e37146104b857600080fd5b80633d03b9da14610417578063524900b51461043957806354821c211461044e57600080fd5b80631de26e161161016f5780632af64bd31161013e5780632af64bd3146103ad5780632e44b3f9146103c257806333e1a223146103d75780633655b42b146103f757600080fd5b80631de26e161461034557806325e1f09f1461035857806328ff7a421461037857806329985e5a1461039857600080fd5b80630cf7505d116101ab5780630cf7505d146102b55780630cfe33fa146102e55780630db9ed6a146103055780631189abda1461032557600080fd5b80630253cd7e14610235578063040cf0201461026857806304f3bcec1461028857600080fd5b36610230576101de6105c0565b6001600160a01b0316336001600160a01b03161461022e5760405162461bcd60e51b815260206004820152600860248201526709cdee840ae8aa8960c31b60448201526064015b60405180910390fd5b005b600080fd5b34801561024157600080fd5b50610255610250366004612bb5565b6105e1565b6040519081526020015b60405180910390f35b34801561027457600080fd5b5061022e610283366004612be1565b6106ca565b34801561029457600080fd5b5061029d610946565b6040516001600160a01b03909116815260200161025f565b3480156102c157600080fd5b506102d56102d0366004612c03565b61095c565b604051901515815260200161025f565b3480156102f157600080fd5b50610255610300366004612c1c565b61098a565b34801561031157600080fd5b5061022e610320366004612c39565b6109c2565b34801561033157600080fd5b5061022e610340366004612c69565b6109ff565b61022e610353366004612be1565b610aef565b34801561036457600080fd5b506102d5610373366004612c1c565b610b25565b34801561038457600080fd5b506102d5610393366004612c9e565b610b35565b3480156103a457600080fd5b5061022e610b60565b3480156103b957600080fd5b506102d5610d09565b3480156103ce57600080fd5b50610255610e6f565b3480156103e357600080fd5b5061022e6103f2366004612cec565b610e8c565b34801561040357600080fd5b50610255610412366004612d54565b61102b565b34801561042357600080fd5b5061042c6112a8565b60405161025f9190612dba565b34801561044557600080fd5b5061029d61133a565b34801561045a57600080fd5b50610255610469366004612c1c565b61135b565b34801561047a57600080fd5b5061022e611374565b34801561048f57600080fd5b5061029d6113af565b3480156104a457600080fd5b506102556104b3366004612c1c565b6113d7565b61022e6104c6366004612c69565b6113e2565b3480156104d757600080fd5b5061022e6104e6366004612c69565b611412565b3480156104f757600080fd5b50610255610506366004612c1c565b61149d565b34801561051757600080fd5b5061029d610526366004612c03565b611501565b34801561053757600080fd5b50610255610546366004612c1c565b611528565b34801561055757600080fd5b5061022e610566366004612c39565b611533565b34801561057757600080fd5b5061042c61169a565b34801561058c57600080fd5b5061022e61059b366004612c1c565b6116ea565b3480156105ac57600080fd5b5061042c6105bb366004612c1c565b61178a565b60006000805160206131d98339815191525b546001600160a01b0316919050565b60008060006105ee611859565b604051635c34776560e01b8152600481018690526001600160a01b0387811660248301529190911690635c3477659060440160e06040518083038186803b15801561063857600080fd5b505afa15801561064c573d6000803e3d6000fd5b505050506040513d601f19601f820116820180604052508101906106709190612dfe565b9650505094505050508181610683611863565b6001600160a01b0388166000908152600391909101602090815260408083208984529091529020546106b59190612e68565b6106bf9190612e80565b925050505b92915050565b816106d48161095c565b6106f05760405162461bcd60e51b815260040161022590612e97565b600082116107315760405162461bcd60e51b815260206004820152600e60248201526d125b9d985b1a5908185b5bdd5b9d60921b6044820152606401610225565b610739611859565b60405163e95dc18360e01b8152600481018590523360248201526001600160a01b03919091169063e95dc18390604401600060405180830381600087803b15801561078357600080fd5b505af1158015610797573d6000803e3d6000fd5b5050505060006107a633611887565b905060006107b2611952565b6040516306d062ad60e01b815260048101879052602481018490526001600160a01b0391909116906306d062ad9060440160206040518083038186803b1580156107fb57600080fd5b505afa15801561080f573d6000803e3d6000fd5b505050506040513d601f19601f820116820180604052508101906108339190612ece565b905060008185116108445784610846565b815b905080610851611863565b336000908152600391909101602090815260408083208a8452909152902054101561088e5760405162461bcd60e51b815260040161022590612ee7565b80610897611863565b336000908152600391909101602090815260408083208a8452909152812080549091906108c5908490612e80565b909155506108f990506108d6611863565b600088815260019190910160205260409020546001600160a01b0316338361195c565b6109033387611994565b604080518781526020810183905233917fc3ded2be7db21b1af963f267d27750e4a15f174547d88b886b9bda43e2c6fa32910160405180910390a2505050505050565b60006000805160206131998339815191526105d2565b600080610967611863565b60009384526001016020526040909220546001600160a01b031690911415919050565b600080600061099d846000806000611a28565b50915091508082116109b05760006109ba565b6109ba8183612e80565b949350505050565b336109cb6113af565b6001600160a01b0316146109f15760405162461bcd60e51b815260040161022590612f35565b6109fb8282611d0d565b5050565b610a0833611d57565b610a245760405162461bcd60e51b815260040161022590612f6a565b81610a2e8161095c565b610a4a5760405162461bcd60e51b815260040161022590612e97565b81610a53611863565b6001600160a01b0386166000908152600391909101602090815260408083208784529091529020541015610a995760405162461bcd60e51b815260040161022590612ee7565b81610aa2611863565b6001600160a01b03861660009081526003919091016020908152604080832087845290915281208054909190610ad9908490612e80565b90915550610ae990508484611994565b50505050565b81610af98161095c565b610b155760405162461bcd60e51b815260040161022590612e97565b610b20338484611dd1565b505050565b60006106c4826000806000611eda565b6000610b57858585856001811115610b4f57610b4f612fa1565b600114611eda565b95945050505050565b6000610b6a6112a8565b905060005b81518110156109fb576000828281518110610b8c57610b8c612fb7565b602002602001015190506000610bad60008051602061319983398151915290565b54604080517f5265736f6c766572206d697373696e67207461726765743a200000000000000060208201526039808201869052825180830390910181526059820192839052636795dbcd60e01b9092526001600160a01b0390921691636795dbcd91610c1e91869190605d01613025565b60206040518083038186803b158015610c3657600080fd5b505afa158015610c4a573d6000803e3d6000fd5b505050506040513d601f19601f82011682018060405250810190610c6e919061303e565b60008381527f4abde63c3e81aefa5764b017968bc473e83e093d7e1a10247d19e0a3e4124019602090815260409182902080546001600160a01b0319166001600160a01b03851690811790915582518681529182015281519293507f88a93678a3692f6789d9546fc621bf7234b101ddb7d4fe479455112831b8aa68929081900390910190a150508080610d019061305b565b915050610b6f565b600080610d146112a8565b905060005b8151811015610e66576000828281518110610d3657610d36612fb7565b60200260200101519050610d5560008051602061319983398151915290565b600082815260019190910160205260409020546001600160a01b0316600080516020613199833981519152546040516321f8a72160e01b8152600481018490526001600160a01b03909116906321f8a7219060240160206040518083038186803b158015610dc257600080fd5b505afa158015610dd6573d6000803e3d6000fd5b505050506040513d601f19601f82011682018060405250810190610dfa919061303e565b6001600160a01b0316141580610e44575060008181527f4abde63c3e81aefa5764b017968bc473e83e093d7e1a10247d19e0a3e412401960205260409020546001600160a01b0316155b15610e53576000935050505090565b5080610e5e8161305b565b915050610d19565b50600191505090565b6000610e876000805160206131798339815191525490565b905090565b600054610100900460ff1615808015610eac5750600054600160ff909116105b80610ec65750303b158015610ec6575060005460ff166001145b610f295760405162461bcd60e51b815260206004820152602e60248201527f496e697469616c697a61626c653a20636f6e747261637420697320616c72656160448201526d191e481a5b9a5d1a585b1a5e995960921b6064820152608401610225565b6000805460ff191660011790558015610f4c576000805461ff0019166101001790555b6000610f56611f2e565b6001600160a01b03161415610fb85760405162461bcd60e51b815260206004820152602260248201527f4d7573742062652063616c6c65642066726f6d2070726f787920636f6e74726160448201526118dd60f21b6064820152608401610225565b610fc186611f56565b610fca85611fc7565b610fd38261205f565b610fdd8484611d0d565b8015611023576000805461ff0019169055604051600181527f7f26b83ff96e1f2b6a682f133852f6798a09c465da95921460cefb38474024989060200160405180910390a15b505050505050565b600061103633611d57565b6110525760405162461bcd60e51b815260040161022590612f6a565b600060405180610100016040528061106989611501565b6001600160a01b0316815260200161108088611501565b6001600160a01b0316815262ffffff851660208201523060408201524260608201526080810186905260a08101879052600060c09091015290506110d96000805160206131b9833981519152546001600160a01b031690565b60408051631b67c43360e31b815283516001600160a01b0390811660048301526020850151811660248301529184015162ffffff1660448201526060840151821660648201526080840151608482015260a084015160a482015260c084015160c482015260e0840151821660e482015291169063db3e21989061010401602060405180830381600087803b15801561117057600080fd5b505af1158015611184573d6000803e3d6000fd5b505050506040513d601f19601f820116820180604052508101906111a89190612ece565b9150816111b3611863565b6001600160a01b038a166000908152600391909101602090815260408083208b8452909152812080549091906111ea908490612e80565b909155508490506111f9611863565b6001600160a01b038a166000908152600391909101602090815260408083208a845290915281208054909190611230908490612e68565b9091555061124090508888611994565b61124a8887611994565b6040805188815260208101889052908101839052606081018590526001600160a01b038916907fe353b2af3b79c1202b265675592f4e12eb3fafeaace4b1d9c128ede7d1de4f0d9060800160405180910390a2509695505050505050565b60408051600280825260608083018452926020830190803683370190505090507121bab93932b731bca1b7b73a3937b63632b960711b816000815181106112f1576112f1612fb7565b602002602001018181525050762632b73234b733a6b0b935b2ba21b7b73a3937b63632b960491b8160018151811061132b5761132b612fb7565b60200260200101818152505090565b6000610e876000805160206131b9833981519152546001600160a01b031690565b600061136b826000806000611a28565b50909392505050565b3361137d6113af565b6001600160a01b0316146113a35760405162461bcd60e51b815260040161022590612f35565b6113ad6000611f56565b565b60007f9acda75aebd150dd434541a4747a6dc606f4f1a59662477e67daf1fc0bf9e0aa6105d2565b60006106c482611887565b6113eb33611d57565b6114075760405162461bcd60e51b815260040161022590612f6a565b610b20838383611dd1565b61141b33611d57565b6114375760405162461bcd60e51b815260040161022590612f6a565b816114418161095c565b61145d5760405162461bcd60e51b815260040161022590612e97565b81611466611863565b6001600160a01b03861660009081526003919091016020908152604080832087845290915281208054909190610ad9908490612e68565b60008060006114b0846000806000611a28565b50915091506114cb6000805160206131798339815191525490565b6114d5908261308c565b6114e16127108461308c565b10156114f7576114f26002826130ab565b6109ba565b6000949350505050565b600061150b611863565b60009283526001016020525060409020546001600160a01b031690565b60006106c4826120d0565b3361153c6113af565b6001600160a01b0316146115625760405162461bcd60e51b815260040161022590612f35565b61156a611952565b6001600160a01b031663d4d4f6ce836040518263ffffffff1660e01b815260040161159791815260200190565b60206040518083038186803b1580156115af57600080fd5b505afa1580156115c3573d6000803e3d6000fd5b505050506040513d601f19601f820116820180604052508101906115e791906130cd565b6116265760405162461bcd60e51b815260206004820152601060248201526f496e76616c69642063757272656e637960801b6044820152606401610225565b8061162f611863565b6000848152600191909101602090815260409182902080546001600160a01b0319166001600160a01b039485161790558151858152928416908301527f912aa7b5852e556acf506f3cf7f8f2afe5c65389e74f02cc2b7fcd4bbf0346ec910160405180910390a15050565b60408051600180825281830190925260609160208083019080368337019050509050762632b73234b733a6b0b935b2ba21b7b73a3937b63632b960491b8160008151811061132b5761132b612fb7565b336116f36113af565b6001600160a01b0316146117195760405162461bcd60e51b815260040161022590612f35565b6001600160a01b03811661177e5760405162461bcd60e51b815260206004820152602660248201527f4f776e61626c653a206e6577206f776e657220697320746865207a65726f206160448201526564647265737360d01b6064820152608401610225565b61178781611f56565b50565b60606000611796611863565b6001600160a01b03841660009081526002919091016020526040812091506117bd8261210d565b905060008167ffffffffffffffff8111156117da576117da613076565b604051908082528060200260200182016040528015611803578160200160208202803683370190505b50905060005b8281101561185057600061181d8583612117565b90508083838151811061183257611832612fb7565b602090810291909101015250806118488161305b565b915050611809565b50949350505050565b6000610e8761212a565b7f53832330c92cb5d80f0e1ff6fdb9886f7fad39132543bafb7497316eae2a831790565b60008060008061189b856000806000611a28565b92509250925081600014156118b257949350505050565b600080516020613179833981519152546118cc908361308c565b6118d86127108561308c565b111561193f5760006127106118f96000805160206131798339815191525490565b611903908561308c565b61190f6127108761308c565b6119199190612e80565b61192391906130ab565b9050818110156119335780611935565b815b9695505050505050565b506000949350505050565b505050919050565b6000610e8761214f565b6000805160206131d9833981519152546001600160a01b038481169116141561198957610b20828261216f565b610b208383836122ba565b600061199e611863565b6001600160a01b03841660009081526003919091016020908152604080832085845290915290205411156119fa57610b20816119d8611863565b6001600160a01b038516600090815260029190910160205260409020906123a5565b610b2081611a06611863565b6001600160a01b038516600090815260029190910160205260409020906123b1565b6000806000611a666040518060c001604052806000815260200160008152602001600081526020016000815260200160008152602001600081525090565b611a6e611859565b604051630ec8a91d60e21b81526001600160a01b038a811660048301529190911690633b22a4749060240160e06040518083038186803b158015611ab157600080fd5b505afa158015611ac5573d6000803e3d6000fd5b505050506040513d601f19601f82011682018060405250810190611ae99190612dfe565b60a088015260808701526060860152604085015260208401525081528515611c65576000611b15611952565b6040516344a6ecdd60e01b8152600481018a9052602481018990526001600160a01b0391909116906344a6ecdd9060440160206040518083038186803b158015611b5e57600080fd5b505afa158015611b72573d6000803e3d6000fd5b505050506040513d601f19601f82011682018060405250810190611b969190612ece565b905080611bde5760405162461bcd60e51b8152602060048201526016602482015275151bdbc81cdb585b1b081bdc99195c88185b5bdd5b9d60521b6044820152606401610225565b8515611bfe578082606001818151611bf69190612e68565b905250611c63565b86611c07611863565b6001600160a01b038b166000908152600391909101602090815260408083208c84529091529020541015611c4d5760405162461bcd60e51b815260040161022590612ee7565b8082600001818151611c5f9190612e68565b9052505b505b6000611c70896123bd565b905060008260a0015182611c849190612e68565b9050600083604001518460000151611c9c9190612e68565b90506000846020015183611cb09190612e68565b905081811015611cc1576000611ccb565b611ccb8282612e80565b975084608001518560600151611ce19190612e68565b965081831015611cf2576000611cfc565b611cfc8284612e80565b955050505050509450945094915050565b600080516020613179833981519152548214611d2c57611d2c826124e8565b6000805160206131b9833981519152546001600160a01b038281169116146109fb576109fb81612581565b600080611d6261169a565b905060005b8151811015611dc757611d92828281518110611d8557611d85612fb7565b6020026020010151612655565b6001600160a01b0316846001600160a01b03161415611db5575060019392505050565b80611dbf8161305b565b915050611d67565b5060009392505050565b60008111611e125760405162461bcd60e51b815260206004820152600e60248201526d125b9d985b1a5908185b5bdd5b9d60921b6044820152606401610225565b611e41611e1d611863565b600084815260019190910160205260409020546001600160a01b0316843084612660565b80611e4a611863565b6001600160a01b03851660009081526003919091016020908152604080832086845290915281208054909190611e81908490612e68565b90915550611e9190508383611994565b60408051838152602081018390526001600160a01b038516917f19dacbf83c5de6658e14cbf7bcae5c15eca2eedecf1c66fbca928e4d351bea0f910160405180910390a2505050565b6000806000611eeb87878787611a28565b50915091508060001480611f23575060008051602061317983398151915254611f14908261308c565b611f206127108461308c565b10155b979650505050505050565b60007f360894a13ba1a3210667c828492db98dca3e2076cc3735a920a3ca505d382bbc6105d2565b7f9acda75aebd150dd434541a4747a6dc606f4f1a59662477e67daf1fc0bf9e0aa80546001600160a01b038381166001600160a01b0319831681179093556040519116919082907f8be0079c531659141344cd1fd0a4f28419497f9722a3daafe3b4186f6b6457e090600090a35050565b600080516020613199833981519152546001600160a01b03161561202d5760405162461bcd60e51b815260206004820152601b60248201527f7265736f6c766572207265676973746572656420616c726561647900000000006044820152606401610225565b806000805160206131998339815191525b80546001600160a01b0319166001600160a01b039290921691909117905550565b6000805160206131d9833981519152546001600160a01b0316156120bb5760405162461bcd60e51b8152602060048201526013602482015272105b1c9958591e481a5b9a5d1a585b1a5e9959606a1b6044820152606401610225565b806000805160206131d983398151915261203e565b60008060006120e3846000806000611a28565b509092509050811561210657816120fc6127108361308c565b6109ba91906130ab565b5050919050565b60006106c4825490565b6000612123838361269e565b9392505050565b6000610e87762632b73234b733a6b0b935b2ba21b7b73a3937b63632b960491b6126c8565b6000610e877121bab93932b731bca1b7b73a3937b63632b960711b6126c8565b60006000805160206131d9833981519152546040516370a0823160e01b81523060048201526001600160a01b03909116906370a082319060240160206040518083038186803b1580156121c157600080fd5b505afa1580156121d5573d6000803e3d6000fd5b505050506040513d601f19601f820116820180604052508101906121f99190612ece565b90508181101561223f5760405162461bcd60e51b8152602060048201526011602482015270092dce6eaccccd2c6d2cadce840ae8aa89607b1b6044820152606401610225565b8015610b20576000805160206131d983398151915254604051632e1a7d4d60e01b8152600481018490526001600160a01b0390911690632e1a7d4d90602401600060405180830381600087803b15801561229857600080fd5b505af11580156122ac573d6000803e3d6000fd5b50505050610b208383612760565b604080516001600160a01b038481166024830152604480830185905283518084039091018152606490920183526020820180516001600160e01b031663a9059cbb60e01b179052915160009283929087169161231691906130ef565b6000604051808303816000865af19150503d8060008114612353576040519150601f19603f3d011682016040523d82523d6000602084013e612358565b606091505b509150915081801561238257508051158061238257508080602001905181019061238291906130cd565b61239e5760405162461bcd60e51b81526004016102259061310b565b5050505050565b60006121238383612829565b60006121238383612878565b6000806123c8611863565b6001600160a01b03841660009081526002919091016020526040812091506123ef8261210d565b905060005b8181101561194a5760006124088483612117565b90506000612414611863565b6001600160a01b0388166000908152600391909101602090815260408083208584529091529020549050612446611952565b6040516344a6ecdd60e01b815260048101849052602481018390526001600160a01b0391909116906344a6ecdd9060440160206040518083038186803b15801561248f57600080fd5b505afa1580156124a3573d6000803e3d6000fd5b505050506040513d601f19601f820116820180604052508101906124c79190612ece565b6124d19087612e68565b9550505080806124e09061305b565b9150506123f4565b600081116125275760405162461bcd60e51b815260206004820152600c60248201526b52617465206973207a65726f60a01b6044820152606401610225565b7f7905e36ed361eb6a8798598c698450b1e62fd9978879efe24ed37e67d31001d76000805160206131798339815191525460408051918252602082018490520160405180910390a160008051602061317983398151915255565b6001600160a01b0381166125d05760405162461bcd60e51b815260206004820152601660248201527524b73b30b634b2102ab734b9bbb0b8102937baba32b960511b6044820152606401610225565b7fb6bf376037f707ef439f1e5e56d7987d6b0c55798fe21ff475fd00b1f37ed92060008051602061317983398151915260010154604080516001600160a01b03928316815291841660208301520160405180910390a16000805160206131b983398151915280546001600160a01b0319166001600160a01b0392909216919091179055565b60006106c4826126c8565b6000805160206131d9833981519152546001600160a01b03858116911614156126925761268d828261296b565b610ae9565b610ae984848484612ab4565b60008260000182815481106126b5576126b5612fb7565b9060005260206000200154905092915050565b60008181527f4abde63c3e81aefa5764b017968bc473e83e093d7e1a10247d19e0a3e41240196020908152604080832054815170026b4b9b9b4b7339030b2323932b9b99d1607d1b9381019390935260318084018690528251808503909101815260519093019091526001600160a01b031690816127595760405162461bcd60e51b8152600401610225919061314f565b5092915050565b604080516000808252602082019092526001600160a01b03841690839060405161278a91906130ef565b60006040518083038185875af1925050503d80600081146127c7576040519150601f19603f3d011682016040523d82523d6000602084013e6127cc565b606091505b5050905080610b205760405162461bcd60e51b815260206004820152602360248201527f5472616e7366657248656c7065723a204554485f5452414e534645525f46414960448201526213115160ea1b6064820152608401610225565b6000818152600183016020526040812054612870575081546001818101845560008481526020808220909301849055845484825282860190935260409020919091556106c4565b5060006106c4565b6000818152600183016020526040812054801561296157600061289c600183612e80565b85549091506000906128b090600190612e80565b90508181146129155760008660000182815481106128d0576128d0612fb7565b90600052602060002001549050808760000184815481106128f3576128f3612fb7565b6000918252602080832090910192909255918252600188019052604090208390555b855486908061292657612926613162565b6001900381819060005260206000200160009055905585600101600086815260200190815260200160002060009055600193505050506106c4565b60009150506106c4565b804710156129ae5760405162461bcd60e51b815260206004820152601060248201526f092dce6eaccccd2c6d2cadce8408aa8960831b6044820152606401610225565b6000805160206131d98339815191525460408051630d0e30db60e41b815290516001600160a01b039092169163d0e30db0918491600480830192600092919082900301818588803b158015612a0257600080fd5b505af1158015612a16573d6000803e3d6000fd5b5050505050612a306000805160206131d983398151915290565b5460405163a9059cbb60e01b81526001600160a01b038481166004830152602482018490529091169063a9059cbb90604401602060405180830381600087803b158015612a7c57600080fd5b505af1158015612a90573d6000803e3d6000fd5b505050506040513d601f19601f82011682018060405250810190610b2091906130cd565b604080516001600160a01b0385811660248301528481166044830152606480830185905283518084039091018152608490920183526020820180516001600160e01b03166323b872dd60e01b1790529151600092839290881691612b1891906130ef565b6000604051808303816000865af19150503d8060008114612b55576040519150601f19603f3d011682016040523d82523d6000602084013e612b5a565b606091505b5091509150818015612b84575080511580612b84575080806020019051810190612b8491906130cd565b6110235760405162461bcd60e51b81526004016102259061310b565b6001600160a01b038116811461178757600080fd5b60008060408385031215612bc857600080fd5b8235612bd381612ba0565b946020939093013593505050565b60008060408385031215612bf457600080fd5b50508035926020909101359150565b600060208284031215612c1557600080fd5b5035919050565b600060208284031215612c2e57600080fd5b813561212381612ba0565b60008060408385031215612c4c57600080fd5b823591506020830135612c5e81612ba0565b809150509250929050565b600080600060608486031215612c7e57600080fd5b8335612c8981612ba0565b95602085013595506040909401359392505050565b60008060008060808587031215612cb457600080fd5b8435612cbf81612ba0565b93506020850135925060408501359150606085013560028110612ce157600080fd5b939692955090935050565b600080600080600060a08688031215612d0457600080fd5b8535612d0f81612ba0565b94506020860135612d1f81612ba0565b9350604086013592506060860135612d3681612ba0565b91506080860135612d4681612ba0565b809150509295509295909350565b60008060008060008060c08789031215612d6d57600080fd5b8635612d7881612ba0565b95506020870135945060408701359350606087013592506080870135915060a087013562ffffff81168114612dac57600080fd5b809150509295509295509295565b6020808252825182820181905260009190848201906040850190845b81811015612df257835183529284019291840191600101612dd6565b50909695505050505050565b600080600080600080600060e0888a031215612e1957600080fd5b5050855160208701516040880151606089015160808a015160a08b015160c0909b0151949c939b50919990985090965094509092509050565b634e487b7160e01b600052601160045260246000fd5b60008219821115612e7b57612e7b612e52565b500190565b600082821015612e9257612e92612e52565b500390565b60208082526017908201527f43757272656e6379206e6f742072656769737465726564000000000000000000604082015260600190565b600060208284031215612ee057600080fd5b5051919050565b6020808252602e908201527f4e6f7420656e6f75676820636f6c6c61746572616c20696e207468652073656c60408201526d65637465642063757272656e637960901b606082015260800190565b6020808252818101527f4f776e61626c653a2063616c6c6572206973206e6f7420746865206f776e6572604082015260600190565b60208082526017908201527f4f6e6c7920416363657074656420436f6e747261637473000000000000000000604082015260600190565b634e487b7160e01b600052602160045260246000fd5b634e487b7160e01b600052603260045260246000fd5b60005b83811015612fe8578181015183820152602001612fd0565b83811115610ae95750506000910152565b60008151808452613011816020860160208601612fcd565b601f01601f19169290920160200192915050565b8281526040602082015260006109ba6040830184612ff9565b60006020828403121561305057600080fd5b815161212381612ba0565b600060001982141561306f5761306f612e52565b5060010190565b634e487b7160e01b600052604160045260246000fd5b60008160001904831182151516156130a6576130a6612e52565b500290565b6000826130c857634e487b7160e01b600052601260045260246000fd5b500490565b6000602082840312156130df57600080fd5b8151801515811461212357600080fd5b60008251613101818460208701612fcd565b9190910192915050565b60208082526024908201527f5472616e7366657248656c7065723a205452414e534645525f46524f4d5f46416040820152631253115160e21b606082015260800190565b6020815260006121236020830184612ff9565b634e487b7160e01b600052603160045260246000fdfe1aaabb4945989eb9ee8150fddc35fcfc125664a7b898aa2de5931bb12484d0524abde63c3e81aefa5764b017968bc473e83e093d7e1a10247d19e0a3e41240181aaabb4945989eb9ee8150fddc35fcfc125664a7b898aa2de5931bb12484d0537522ee63bb7da831844dcdb60f35e8cfa51225eeb4ed6734e421ed06f0d56805a2646970667358221220eebbc75f4bbcea29c0b0e911f4b0a452343ef8bcf0bbcd5d63f50196fa0ec73564736f6c63430008090033",
  "implementation": "0x188E6E46af75622C3E59fD0De7058F415Db6CE81",
  "devdoc": {
    "kind": "dev",
    "methods": {
      "acceptedContracts()": {
        "details": "The contact name listed in this method is also needed to be listed `requiredContracts` method."
      },
      "addCollateral(address,bytes32,uint256)": {
        "details": "Adds collateral amount.",
        "params": {
          "_amount": "Amount of funds to deposit",
          "_ccy": "Currency name in bytes32",
          "_user": "User's address"
        }
      },
      "deposit(bytes32,uint256)": {
        "details": "Deposits funds by the caller into collateral.",
        "params": {
          "_amount": "Amount of funds to deposit",
          "_ccy": "Currency name in bytes32"
        }
      },
      "depositFrom(address,bytes32,uint256)": {
        "details": "Deposits funds by the `from` into collateral.",
        "params": {
          "_amount": "Amount of funds to deposit",
          "_ccy": "Currency name in bytes32",
          "_from": "user's address"
        }
      },
      "getCoverage(address)": {
        "params": {
          "_user": "User's address"
        },
        "returns": {
          "_0": "The rate of collateral used"
        }
      },
      "getDepositAmount(address,bytes32)": {
        "params": {
          "_ccy": "Currency name in bytes32",
          "_user": "User's address"
        },
        "returns": {
          "_0": "The deposited amount"
        }
      },
      "getLiquidationThresholdRate()": {
        "returns": {
          "liquidationThresholdRate": " The rate used as the liquidation threshold"
        }
      },
      "getTotalCollateralAmount(address)": {
        "params": {
          "_user": "Address of collateral user"
        },
        "returns": {
          "totalCollateralAmount": "The total collateral amount in ETH"
        }
      },
      "getUniswapRouter()": {
        "returns": {
          "uniswapRouter": "Uniswap router contract address"
        }
      },
      "getUnusedCollateral(address)": {
        "params": {
          "_user": "User's address"
        },
        "returns": {
          "_0": "The total amount of unused collateral"
        }
      },
      "getUsedCurrencies(address)": {
        "params": {
          "_user": "User's address"
        },
        "returns": {
          "_0": "The currency names in bytes32"
        }
      },
      "getWithdrawableCollateral(address)": {
        "params": {
          "_user": "User's address"
        },
        "returns": {
          "_0": "Maximum amount of ETH that can be withdrawn"
        }
      },
      "initialize(address,address,uint256,address,address)": {
        "details": "Function is invoked by the proxy contract when the contract is added to the ProxyController.",
        "params": {
          "_WETH9": "The address of WETH",
          "_liquidationThresholdRate": "The rate used as the auto liquidation threshold",
          "_owner": "The address of the contract owner",
          "_resolver": "The address of the Address Resolver contract",
          "_uniswapRouter": "Uniswap router contract address"
        }
      },
      "isCovered(address)": {
        "params": {
          "_user": "User's address"
        },
        "returns": {
          "_0": "The boolean if the collateral has sufficient coverage or not"
        }
      },
      "isCovered(address,bytes32,uint256,uint8)": {
        "params": {
          "_unsettledOrderAmount": "Additional unsettled order amount",
          "_unsettledOrderCcy": "Additional unsettled order currency name in bytes32",
          "_user": "User's address"
        },
        "returns": {
          "_0": "The boolean if the collateral has sufficient coverage or not"
        }
      },
      "isRegisteredCurrency(bytes32)": {
        "params": {
          "_ccy": "Currency name in bytes32"
        },
        "returns": {
          "_0": "The boolean if the currency has been registered or not"
        }
      },
      "owner()": {
        "details": "Returns the address of the current owner."
      },
      "removeCollateral(address,bytes32,uint256)": {
        "params": {
          "_amount": "Amount of funds to withdraw.",
          "_ccy": "Currency name in bytes32",
          "_user": "User's address"
        }
      },
      "renounceOwnership()": {
        "details": "Leaves the contract without owner. It will not be possible to call `onlyOwner` functions anymore. Can only be called by the current owner. NOTE: Renouncing ownership will leave the contract without an owner, thereby removing any functionality that is only available to the owner."
      },
      "requiredContracts()": {
        "details": "The contract name list is in `./libraries/Contracts.sol`."
      },
      "setCollateralParameters(uint256,address)": {
        "params": {
          "_liquidationThresholdRate": "Auto liquidation threshold rate",
          "_uniswapRouter": "Uniswap router contract address"
        }
      },
      "swapCollateral(address,bytes32,bytes32,uint256,uint256,uint24)": {
        "params": {
          "_amountInMax": "The maximum amount to be converted from",
          "_amountOut": "Amount to be converted to",
          "_ccyIn": "Currency name to be converted from",
          "_ccyOut": "Currency name to be converted to",
          "_poolFee": "Uniswap pool fee",
          "_user": "User's address"
        }
      },
      "transferOwnership(address)": {
        "details": "Transfers ownership of the contract to a new account (`newOwner`). Can only be called by the current owner."
      },
      "withdraw(bytes32,uint256)": {
        "params": {
          "_amount": "Amount of funds to withdraw.",
          "_ccy": "Currency name in bytes32"
        }
      }
    },
    "version": 1
  },
  "userdoc": {
    "kind": "user",
    "methods": {
      "acceptedContracts()": {
        "notice": "Returns contract names that can call this contract."
      },
      "getCoverage(address)": {
        "notice": "Gets the rate of collateral used."
      },
      "getDepositAmount(address,bytes32)": {
        "notice": "Gets the amount deposited in the user's collateral."
      },
      "getLiquidationThresholdRate()": {
        "notice": "Gets liquidation threshold rate"
      },
      "getTotalCollateralAmount(address)": {
        "notice": "Gets the total collateral amount. by converting it to ETH."
      },
      "getUniswapRouter()": {
        "notice": "Gets liquidation threshold rate"
      },
      "getUnusedCollateral(address)": {
        "notice": "Gets the total amount of unused collateral"
      },
      "getUsedCurrencies(address)": {
        "notice": "Gets the currencies that the user used as collateral."
      },
      "getWithdrawableCollateral(address)": {
        "notice": "Gets the maximum amount of ETH that can be withdrawn from user collateral."
      },
      "initialize(address,address,uint256,address,address)": {
        "notice": "Initializes the contract."
      },
      "isCovered(address)": {
        "notice": "Gets if the collateral has enough coverage."
      },
      "isCovered(address,bytes32,uint256,uint8)": {
        "notice": "Gets if the collateral has enough coverage."
      },
      "isRegisteredCurrency(bytes32)": {
        "notice": "Gets if the currency has been registered"
      },
      "removeCollateral(address,bytes32,uint256)": {
        "notice": "Removes collateral amount."
      },
      "requiredContracts()": {
        "notice": "Returns the contract names used in this contract."
      },
      "setCollateralParameters(uint256,address)": {
        "notice": "Sets main collateral parameters this function solves the issue of frontrunning during parameters tuning.Triggers only be contract owner"
      },
      "swapCollateral(address,bytes32,bytes32,uint256,uint256,uint24)": {
        "notice": "Swap the collateral to convert to a different currency using Uniswap."
      },
      "withdraw(bytes32,uint256)": {
        "notice": "Withdraws funds by the caller from unused collateral."
      }
    },
    "notice": "Implements the management of the token in each currency for users. This contract manages the following data related to tokens. - Deposited token amount as the collateral - Parameters related to the collateral   - Margin Call Threshold Rate   - Auto Liquidation Threshold Rate   - Liquidation Price Rate   - Min Collateral Rate To address a currency as collateral, it must be registered using `registerCurrency` method in this contract.",
    "version": 1
  },
  "storageLayout": {
    "storage": [
      {
        "astId": 790,
        "contract": "contracts/TokenVault.sol:TokenVault",
        "label": "_initialized",
        "offset": 0,
        "slot": "0",
        "type": "t_uint8"
      },
      {
        "astId": 793,
        "contract": "contracts/TokenVault.sol:TokenVault",
        "label": "_initializing",
        "offset": 1,
        "slot": "0",
        "type": "t_bool"
      }
    ],
    "types": {
      "t_bool": {
        "encoding": "inplace",
        "label": "bool",
        "numberOfBytes": "1"
      },
      "t_uint8": {
        "encoding": "inplace",
        "label": "uint8",
        "numberOfBytes": "1"
      }
    }
  }
}