{
  "address": "0xbF845fcd387e44d0FccfcD79423d7d80cAC1f312",
  "abi": [
    {
      "anonymous": false,
      "inputs": [
        {
          "indexed": false,
          "internalType": "bytes32",
          "name": "name",
          "type": "bytes32"
        },
        {
          "indexed": false,
          "internalType": "address",
          "name": "destination",
          "type": "address"
        }
      ],
      "name": "CacheUpdated",
      "type": "event"
    },
    {
      "anonymous": false,
      "inputs": [
        {
          "indexed": false,
          "internalType": "bytes32",
          "name": "ccy",
          "type": "bytes32"
        },
        {
          "indexed": false,
          "internalType": "address",
          "name": "tokenAddress",
          "type": "address"
        }
      ],
      "name": "CurrencyRegistered",
      "type": "event"
    },
    {
      "anonymous": false,
      "inputs": [
        {
          "indexed": false,
          "internalType": "address",
          "name": "user",
          "type": "address"
        },
        {
          "indexed": false,
          "internalType": "bytes32",
          "name": "ccy",
          "type": "bytes32"
        },
        {
          "indexed": false,
          "internalType": "uint256",
          "name": "amount",
          "type": "uint256"
        }
      ],
      "name": "Deposit",
      "type": "event"
    },
    {
      "anonymous": false,
      "inputs": [
        {
          "indexed": true,
          "internalType": "address",
          "name": "payer",
          "type": "address"
        },
        {
          "indexed": false,
          "internalType": "bytes32",
          "name": "ccy",
          "type": "bytes32"
        },
        {
          "indexed": false,
          "internalType": "uint256",
          "name": "amount",
          "type": "uint256"
        }
      ],
      "name": "EscrowedAmountAdded",
      "type": "event"
    },
    {
      "anonymous": false,
      "inputs": [
        {
          "indexed": true,
          "internalType": "address",
          "name": "payer",
          "type": "address"
        },
        {
          "indexed": true,
          "internalType": "address",
          "name": "receiver",
          "type": "address"
        },
        {
          "indexed": false,
          "internalType": "bytes32",
          "name": "ccy",
          "type": "bytes32"
        },
        {
          "indexed": false,
          "internalType": "uint256",
          "name": "amount",
          "type": "uint256"
        }
      ],
      "name": "EscrowedAmountRemoved",
      "type": "event"
    },
    {
      "anonymous": false,
      "inputs": [
        {
          "indexed": false,
          "internalType": "uint8",
          "name": "version",
          "type": "uint8"
        }
      ],
      "name": "Initialized",
      "type": "event"
    },
    {
      "anonymous": false,
      "inputs": [
        {
          "indexed": true,
          "internalType": "address",
          "name": "previousOwner",
          "type": "address"
        },
        {
          "indexed": true,
          "internalType": "address",
          "name": "newOwner",
          "type": "address"
        }
      ],
      "name": "OwnershipTransferred",
      "type": "event"
    },
    {
      "anonymous": false,
      "inputs": [
        {
          "indexed": true,
          "internalType": "address",
          "name": "party",
          "type": "address"
        },
        {
          "indexed": false,
          "internalType": "bytes32",
          "name": "ccy",
          "type": "bytes32"
        },
        {
          "indexed": false,
          "internalType": "uint256",
          "name": "amount",
          "type": "uint256"
        }
      ],
      "name": "ReleaseUnsettled",
      "type": "event"
    },
    {
      "anonymous": false,
      "inputs": [
        {
          "indexed": true,
          "internalType": "address",
          "name": "party",
          "type": "address"
        },
        {
          "indexed": false,
          "internalType": "bytes32",
          "name": "ccy",
          "type": "bytes32"
        },
        {
          "indexed": false,
          "internalType": "uint256",
          "name": "amount",
          "type": "uint256"
        }
      ],
      "name": "UseUnsettledCollateral",
      "type": "event"
    },
    {
      "anonymous": false,
      "inputs": [
        {
          "indexed": false,
          "internalType": "address",
          "name": "from",
          "type": "address"
        },
        {
          "indexed": false,
          "internalType": "bytes32",
          "name": "ccy",
          "type": "bytes32"
        },
        {
          "indexed": false,
          "internalType": "uint256",
          "name": "amount",
          "type": "uint256"
        }
      ],
      "name": "Withdraw",
      "type": "event"
    },
    {
      "inputs": [],
      "name": "acceptedContracts",
      "outputs": [
        {
          "internalType": "bytes32[]",
          "name": "contracts",
          "type": "bytes32[]"
        }
      ],
      "stateMutability": "pure",
      "type": "function"
    },
    {
      "inputs": [
        {
          "internalType": "address",
          "name": "_payer",
          "type": "address"
        },
        {
          "internalType": "bytes32",
          "name": "_ccy",
          "type": "bytes32"
        },
        {
          "internalType": "uint256",
          "name": "_amount",
          "type": "uint256"
        }
      ],
      "name": "addEscrowedAmount",
      "outputs": [],
      "stateMutability": "payable",
      "type": "function"
    },
    {
      "inputs": [],
      "name": "buildCache",
      "outputs": [],
      "stateMutability": "nonpayable",
      "type": "function"
    },
    {
      "inputs": [
        {
          "internalType": "bytes32",
          "name": "_ccy",
          "type": "bytes32"
        },
        {
          "internalType": "uint256",
          "name": "_amount",
          "type": "uint256"
        }
      ],
      "name": "deposit",
      "outputs": [],
      "stateMutability": "payable",
      "type": "function"
    },
    {
      "inputs": [
        {
          "internalType": "address",
          "name": "_user",
          "type": "address"
        },
        {
          "internalType": "bytes32",
          "name": "_ccy",
          "type": "bytes32"
        }
      ],
      "name": "getCollateralAmount",
      "outputs": [
        {
          "internalType": "uint256",
          "name": "",
          "type": "uint256"
        }
      ],
      "stateMutability": "view",
      "type": "function"
    },
    {
      "inputs": [
        {
          "internalType": "address",
          "name": "_user",
          "type": "address"
        },
        {
          "internalType": "bytes32",
          "name": "_ccy",
          "type": "bytes32"
        }
      ],
      "name": "getCollateralAmountInETH",
      "outputs": [
        {
          "internalType": "uint256",
          "name": "",
          "type": "uint256"
        }
      ],
      "stateMutability": "view",
      "type": "function"
    },
    {
      "inputs": [],
      "name": "getCollateralParameters",
      "outputs": [
        {
          "internalType": "uint256",
          "name": "marginCallThresholdRate",
          "type": "uint256"
        },
        {
          "internalType": "uint256",
          "name": "autoLiquidationThresholdRate",
          "type": "uint256"
        },
        {
          "internalType": "uint256",
          "name": "liquidationPriceRate",
          "type": "uint256"
        },
        {
          "internalType": "uint256",
          "name": "minCollateralRate",
          "type": "uint256"
        }
      ],
      "stateMutability": "view",
      "type": "function"
    },
    {
      "inputs": [
        {
          "internalType": "address",
          "name": "_user",
          "type": "address"
        }
      ],
      "name": "getCoverage",
      "outputs": [
        {
          "internalType": "uint256",
          "name": "",
          "type": "uint256"
        }
      ],
      "stateMutability": "view",
      "type": "function"
    },
    {
      "inputs": [
        {
          "internalType": "address",
          "name": "_user",
          "type": "address"
        }
      ],
      "name": "getTotalCollateralAmountInETH",
      "outputs": [
        {
          "internalType": "uint256",
          "name": "",
          "type": "uint256"
        }
      ],
      "stateMutability": "view",
      "type": "function"
    },
    {
      "inputs": [
        {
          "internalType": "address",
          "name": "_user",
          "type": "address"
        }
      ],
      "name": "getTotalUnsettledExposure",
      "outputs": [
        {
          "internalType": "uint256",
          "name": "",
          "type": "uint256"
        }
      ],
      "stateMutability": "view",
      "type": "function"
    },
    {
      "inputs": [
        {
          "internalType": "address",
          "name": "_user",
          "type": "address"
        },
        {
          "internalType": "bytes32",
          "name": "_ccy",
          "type": "bytes32"
        }
      ],
      "name": "getUnsettledCollateral",
      "outputs": [
        {
          "internalType": "uint256",
          "name": "",
          "type": "uint256"
        }
      ],
      "stateMutability": "view",
      "type": "function"
    },
    {
      "inputs": [
        {
          "internalType": "address",
          "name": "_user",
          "type": "address"
        }
      ],
      "name": "getUnusedCollateral",
      "outputs": [
        {
          "internalType": "uint256",
          "name": "",
          "type": "uint256"
        }
      ],
      "stateMutability": "view",
      "type": "function"
    },
    {
      "inputs": [
        {
          "internalType": "address",
          "name": "_user",
          "type": "address"
        }
      ],
      "name": "getUsedCurrencies",
      "outputs": [
        {
          "internalType": "bytes32[]",
          "name": "",
          "type": "bytes32[]"
        }
      ],
      "stateMutability": "view",
      "type": "function"
    },
    {
      "inputs": [
        {
          "internalType": "address",
          "name": "_user",
          "type": "address"
        }
      ],
      "name": "getWithdrawableCollateral",
      "outputs": [
        {
          "internalType": "uint256",
          "name": "",
          "type": "uint256"
        }
      ],
      "stateMutability": "view",
      "type": "function"
    },
    {
      "inputs": [
        {
          "internalType": "address",
          "name": "_owner",
          "type": "address"
        },
        {
          "internalType": "address",
          "name": "_resolver",
          "type": "address"
        },
        {
          "internalType": "uint256",
          "name": "_marginCallThresholdRate",
          "type": "uint256"
        },
        {
          "internalType": "uint256",
          "name": "_autoLiquidationThresholdRate",
          "type": "uint256"
        },
        {
          "internalType": "uint256",
          "name": "_liquidationPriceRate",
          "type": "uint256"
        },
        {
          "internalType": "uint256",
          "name": "_minCollateralRate",
          "type": "uint256"
        },
        {
          "internalType": "address",
          "name": "_WETH9",
          "type": "address"
        }
      ],
      "name": "initialize",
      "outputs": [],
      "stateMutability": "nonpayable",
      "type": "function"
    },
    {
      "inputs": [
        {
          "internalType": "address",
          "name": "_user",
          "type": "address"
        }
      ],
      "name": "isCovered",
      "outputs": [
        {
          "internalType": "bool",
          "name": "",
          "type": "bool"
        }
      ],
      "stateMutability": "view",
      "type": "function"
    },
    {
      "inputs": [
        {
          "internalType": "bytes32",
          "name": "_ccy",
          "type": "bytes32"
        }
      ],
      "name": "isRegisteredCurrency",
      "outputs": [
        {
          "internalType": "bool",
          "name": "",
          "type": "bool"
        }
      ],
      "stateMutability": "view",
      "type": "function"
    },
    {
      "inputs": [],
      "name": "isResolverCached",
      "outputs": [
        {
          "internalType": "bool",
          "name": "",
          "type": "bool"
        }
      ],
      "stateMutability": "view",
      "type": "function"
    },
    {
      "inputs": [],
      "name": "owner",
      "outputs": [
        {
          "internalType": "address",
          "name": "",
          "type": "address"
        }
      ],
      "stateMutability": "view",
      "type": "function"
    },
    {
      "inputs": [
        {
          "internalType": "bytes32",
          "name": "_ccy",
          "type": "bytes32"
        },
        {
          "internalType": "address",
          "name": "_tokenAddress",
          "type": "address"
        }
      ],
      "name": "registerCurrency",
      "outputs": [],
      "stateMutability": "nonpayable",
      "type": "function"
    },
    {
      "inputs": [
        {
          "internalType": "address",
          "name": "_user",
          "type": "address"
        },
        {
          "internalType": "address",
          "name": "_sender",
          "type": "address"
        },
        {
          "internalType": "bytes32",
          "name": "_ccy",
          "type": "bytes32"
        },
        {
          "internalType": "uint256",
          "name": "_amount",
          "type": "uint256"
        }
      ],
      "name": "releaseUnsettledCollateral",
      "outputs": [],
      "stateMutability": "nonpayable",
      "type": "function"
    },
    {
      "inputs": [
        {
          "internalType": "address",
          "name": "_sender",
          "type": "address"
        },
        {
          "internalType": "bytes32",
          "name": "_ccy",
          "type": "bytes32"
        },
        {
          "internalType": "address[]",
          "name": "_users",
          "type": "address[]"
        },
        {
          "internalType": "uint256[]",
          "name": "_amounts",
          "type": "uint256[]"
        }
      ],
      "name": "releaseUnsettledCollaterals",
      "outputs": [],
      "stateMutability": "nonpayable",
      "type": "function"
    },
    {
      "inputs": [
        {
          "internalType": "address",
          "name": "_payer",
          "type": "address"
        },
        {
          "internalType": "address",
          "name": "_receiver",
          "type": "address"
        },
        {
          "internalType": "bytes32",
          "name": "_ccy",
          "type": "bytes32"
        },
        {
          "internalType": "uint256",
          "name": "_amount",
          "type": "uint256"
        }
      ],
      "name": "removeEscrowedAmount",
      "outputs": [],
      "stateMutability": "nonpayable",
      "type": "function"
    },
    {
      "inputs": [
        {
          "internalType": "address",
          "name": "_receiver",
          "type": "address"
        },
        {
          "internalType": "bytes32",
          "name": "_ccy",
          "type": "bytes32"
        },
        {
          "internalType": "address[]",
          "name": "_payers",
          "type": "address[]"
        },
        {
          "internalType": "uint256[]",
          "name": "_amounts",
          "type": "uint256[]"
        }
      ],
      "name": "removeEscrowedAmounts",
      "outputs": [],
      "stateMutability": "nonpayable",
      "type": "function"
    },
    {
      "inputs": [],
      "name": "renounceOwnership",
      "outputs": [],
      "stateMutability": "nonpayable",
      "type": "function"
    },
    {
      "inputs": [],
      "name": "requiredContracts",
      "outputs": [
        {
          "internalType": "bytes32[]",
          "name": "contracts",
          "type": "bytes32[]"
        }
      ],
      "stateMutability": "pure",
      "type": "function"
    },
    {
      "inputs": [],
      "name": "resolver",
      "outputs": [
        {
          "internalType": "contract IAddressResolver",
          "name": "",
          "type": "address"
        }
      ],
      "stateMutability": "view",
      "type": "function"
    },
    {
      "inputs": [
        {
          "internalType": "uint256",
          "name": "_marginCallThresholdRate",
          "type": "uint256"
        },
        {
          "internalType": "uint256",
          "name": "_autoLiquidationThresholdRate",
          "type": "uint256"
        },
        {
          "internalType": "uint256",
          "name": "_liquidationPriceRate",
          "type": "uint256"
        },
        {
          "internalType": "uint256",
          "name": "_minCollateralRate",
          "type": "uint256"
        }
      ],
      "name": "setCollateralParameters",
      "outputs": [],
      "stateMutability": "nonpayable",
      "type": "function"
    },
    {
      "inputs": [
        {
          "internalType": "address",
          "name": "newOwner",
          "type": "address"
        }
      ],
      "name": "transferOwnership",
      "outputs": [],
      "stateMutability": "nonpayable",
      "type": "function"
    },
    {
      "inputs": [
        {
          "internalType": "address",
          "name": "_user",
          "type": "address"
        },
        {
          "internalType": "bytes32",
          "name": "_ccy",
          "type": "bytes32"
        },
        {
          "internalType": "uint256",
          "name": "_amount",
          "type": "uint256"
        }
      ],
      "name": "useUnsettledCollateral",
      "outputs": [],
      "stateMutability": "nonpayable",
      "type": "function"
    },
    {
      "inputs": [
        {
          "internalType": "bytes32",
          "name": "_ccy",
          "type": "bytes32"
        },
        {
          "internalType": "uint256",
          "name": "_amount",
          "type": "uint256"
        }
      ],
      "name": "withdraw",
      "outputs": [],
      "stateMutability": "nonpayable",
      "type": "function"
    },
    {
      "stateMutability": "payable",
      "type": "receive"
    }
  ],
  "transactionHash": "0x83bc6755f7f84fb9a95f385c884061f37ade3d17dd09554cbf21b4eae5d7601a",
  "args": [],
  "numDeployments": 4,
  "solcInputHash": "54d0c93c33710ba30899c2c9322fe164",
  "bytecode": "0x608060405234801561001057600080fd5b506134e1806100206000396000f3fe6080604052600436106101dc5760003560e01c80637ea2413311610102578063ae81284111610095578063e099765911610064578063e0997659146105a1578063f2fde38b146105b6578063fc700810146105d6578063fe9f8e36146105f657600080fd5b8063ae81284114610521578063c91a99f914610541578063ca42303114610561578063d2a19b3e1461058157600080fd5b80638da5cb5b116100d15780638da5cb5b146104ac578063948060dd146104c15780639ba57c7d146104e15780639fcaebfa1461050157600080fd5b80637ea2413314610439578063832878ad1461045957806383a5041c1461046c57806387913cab1461048c57600080fd5b80632af64bd31161017a578063715018a611610149578063715018a6146103c4578063732c5200146103d95780637796374a146103f95780637d44828e1461041957600080fd5b80632af64bd3146103385780633d03b9da1461034d5780635d8615051461036f578063698c9269146103a457600080fd5b80630cfe33fa116101b65780630cfe33fa146102c25780631de26e16146102f057806325e1f09f1461030357806329985e5a1461032357600080fd5b8063040cf0201461024057806304f3bcec146102605780630cf7505d1461029257600080fd5b3661023b576101e9610616565b6001600160a01b0316336001600160a01b0316146102395760405162461bcd60e51b815260206004820152600860248201526709cdee840ae8aa8960c31b60448201526064015b60405180910390fd5b005b600080fd5b34801561024c57600080fd5b5061023961025b366004612e3a565b610637565b34801561026c57600080fd5b50610275610888565b6040516001600160a01b0390911681526020015b60405180910390f35b34801561029e57600080fd5b506102b26102ad366004612e5c565b61089e565b6040519015158152602001610289565b3480156102ce57600080fd5b506102e26102dd366004612e8a565b6108cc565b604051908152602001610289565b6102396102fe366004612e3a565b61091d565b34801561030f57600080fd5b506102b261031e366004612e8a565b610a1e565b34801561032f57600080fd5b50610239610a32565b34801561034457600080fd5b506102b2610bdf565b34801561035957600080fd5b50610362610d45565b6040516102899190612ea7565b34801561037b57600080fd5b50610384610dd7565b604080519485526020850193909352918301526060820152608001610289565b3480156103b057600080fd5b506102396103bf366004612eeb565b610df3565b3480156103d057600080fd5b50610239610e51565b3480156103e557600080fd5b506102396103f4366004612f7d565b610e8c565b34801561040557600080fd5b506102e2610414366004613009565b610f48565b34801561042557600080fd5b506102e2610434366004613009565b610fe0565b34801561044557600080fd5b506102e2610454366004613009565b611017565b610239610467366004613035565b61104a565b34801561047857600080fd5b5061023961048736600461306a565b611174565b34801561049857600080fd5b506102396104a7366004612f7d565b611316565b3480156104b857600080fd5b506102756113ab565b3480156104cd57600080fd5b506102e26104dc366004612e8a565b6113d3565b3480156104ed57600080fd5b506102e26104fc366004612e8a565b6113de565b34801561050d57600080fd5b5061023961051c366004613035565b611464565b34801561052d57600080fd5b5061023961053c3660046130dc565b611590565b34801561054d57600080fd5b506102e261055c366004612e8a565b6115d1565b34801561056d57600080fd5b506102e261057c366004612e8a565b6115df565b34801561058d57600080fd5b5061023961059c36600461310e565b6115ed565b3480156105ad57600080fd5b50610362611754565b3480156105c257600080fd5b506102396105d1366004612e8a565b6117a4565b3480156105e257600080fd5b506103626105f1366004612e8a565b611844565b34801561060257600080fd5b50610239610611366004612eeb565b611913565b600060008051602061348c8339815191525b546001600160a01b0316919050565b816106418161089e565b61065d5760405162461bcd60e51b81526004016102309061313e565b6000821161067d5760405162461bcd60e51b815260040161023090613175565b33600061068982611944565b905060006106956119e6565b6040516306d062ad60e01b815260048101889052602481018490526001600160a01b0391909116906306d062ad9060440160206040518083038186803b1580156106de57600080fd5b505afa1580156106f2573d6000803e3d6000fd5b505050506040513d601f19601f82011682018060405250810190610716919061319d565b905060008186116107275785610729565b815b905080610734611a0b565b6001600160a01b0386166000908152600491909101602090815260408083208b845290915290205410156107c15760405162461bcd60e51b815260206004820152602e60248201527f4e6f7420656e6f75676820636f6c6c61746572616c20696e207468652073656c60448201526d65637465642063757272656e637960901b6064820152608401610230565b806107ca611a0b565b6001600160a01b0386166000908152600491909101602090815260408083208b8452909152812080549091906108019084906131cc565b909155506108359050610812611a0b565b600089815260029190910160205260409020546001600160a01b03163383611a2f565b61083e87611a6c565b60408051338152602081018990529081018290527fc3ded2be7db21b1af963f267d27750e4a15f174547d88b886b9bda43e2c6fa329060600160405180910390a150505050505050565b600060008051602061346c833981519152610628565b6000806108a9611a0b565b60009384526002016020526040909220546001600160a01b031690911415919050565b6000806108d8836113de565b905060006108e884600080611ae5565b6108f185611c30565b6108fb91906131e3565b905080821161090b576000610915565b61091581836131cc565b949350505050565b816109278161089e565b6109435760405162461bcd60e51b81526004016102309061313e565b600082116109635760405162461bcd60e51b815260040161023090613175565b61099261096e611a0b565b600085815260029190910160205260409020546001600160a01b0316333085611cd8565b8161099b611a0b565b33600090815260049190910160209081526040808320878452909152812080549091906109c99084906131e3565b909155506109d8905083611a6c565b60408051338152602081018590529081018390527f19dacbf83c5de6658e14cbf7bcae5c15eca2eedecf1c66fbca928e4d351bea0f9060600160405180910390a1505050565b6000610a2c82600080611d16565b92915050565b6000610a3c610d45565b905060005b8151811015610bdb576000828281518110610a5e57610a5e6131fb565b602002602001015190506000610a7f60008051602061346c83398151915290565b54604080517f5265736f6c766572206d697373696e67207461726765743a200000000000000060208201526039808201869052825180830390910181526059820192839052636795dbcd60e01b9092526001600160a01b0390921691636795dbcd91610af091869190605d01613269565b60206040518083038186803b158015610b0857600080fd5b505afa158015610b1c573d6000803e3d6000fd5b505050506040513d601f19601f82011682018060405250810190610b409190613282565b60008381527f4abde63c3e81aefa5764b017968bc473e83e093d7e1a10247d19e0a3e4124019602090815260409182902080546001600160a01b0319166001600160a01b03851690811790915582518681529182015281519293507f88a93678a3692f6789d9546fc621bf7234b101ddb7d4fe479455112831b8aa68929081900390910190a150508080610bd39061329f565b915050610a41565b5050565b600080610bea610d45565b905060005b8151811015610d3c576000828281518110610c0c57610c0c6131fb565b60200260200101519050610c2b60008051602061346c83398151915290565b600082815260019190910160205260409020546001600160a01b031660008051602061346c833981519152546040516321f8a72160e01b8152600481018490526001600160a01b03909116906321f8a7219060240160206040518083038186803b158015610c9857600080fd5b505afa158015610cac573d6000803e3d6000fd5b505050506040513d601f19601f82011682018060405250810190610cd09190613282565b6001600160a01b0316141580610d1a575060008181527f4abde63c3e81aefa5764b017968bc473e83e093d7e1a10247d19e0a3e412401960205260409020546001600160a01b0316155b15610d29576000935050505090565b5080610d348161329f565b915050610bef565b50600191505090565b60408051600280825260608083018452926020830190803683370190505090507121bab93932b731bca1b7b73a3937b63632b960711b81600081518110610d8e57610d8e6131fb565b602002602001018181525050762632b73234b733a6b0b935b2ba21b7b73a3937b63632b960491b81600181518110610dc857610dc86131fb565b60200260200101818152505090565b600080600080610de5611d79565b935093509350935090919293565b610dfc33611dba565b610e185760405162461bcd60e51b8152600401610230906132d0565b81610e228161089e565b610e3e5760405162461bcd60e51b81526004016102309061313e565b610e4a85858585611e2a565b5050505050565b33610e5a6113ab565b6001600160a01b031614610e805760405162461bcd60e51b815260040161023090613307565b610e8a6000611f99565b565b610e9533611dba565b610eb15760405162461bcd60e51b8152600401610230906132d0565b84610ebb8161089e565b610ed75760405162461bcd60e51b81526004016102309061313e565b60005b84811015610f3e57610f2c868683818110610ef757610ef76131fb565b9050602002016020810190610f0c9190612e8a565b8989878786818110610f2057610f206131fb565b90506020020135611e2a565b80610f368161329f565b915050610eda565b5050505050505050565b600080610f558484610fe0565b9050610f5f6119e6565b6040516344a6ecdd60e01b815260048101859052602481018390526001600160a01b0391909116906344a6ecdd9060440160206040518083038186803b158015610fa857600080fd5b505afa158015610fbc573d6000803e3d6000fd5b505050506040513d601f19601f82011682018060405250810190610915919061319d565b6000610fea611a0b565b6001600160a01b039390931660009081526004909301602090815260408085209385529290525090205490565b6000611021611a0b565b6001600160a01b0384166000908152602091825260408082208583529092522054905092915050565b61105333611dba565b61106f5760405162461bcd60e51b8152600401610230906132d0565b816110798161089e565b6110955760405162461bcd60e51b81526004016102309061313e565b600082116110b55760405162461bcd60e51b815260040161023090613175565b6110e46110c0611a0b565b600085815260029190910160205260409020546001600160a01b0316853085611cd8565b816110ed611a0b565b6001600160a01b038616600090815260059190910160209081526040808320878452909152812080549091906111249084906131e3565b909155505060408051848152602081018490526001600160a01b038616917fa8f792519e7a6ab4f06121c0e11f2b45df7a581842ead2191d87afe3c81d50b491015b60405180910390a250505050565b600054610100900460ff16158080156111945750600054600160ff909116105b806111ae5750303b1580156111ae575060005460ff166001145b6112115760405162461bcd60e51b815260206004820152602e60248201527f496e697469616c697a61626c653a20636f6e747261637420697320616c72656160448201526d191e481a5b9a5d1a585b1a5e995960921b6064820152608401610230565b6000805460ff191660011790558015611234576000805461ff0019166101001790555b600061123e61200a565b6001600160a01b031614156112a05760405162461bcd60e51b815260206004820152602260248201527f4d7573742062652063616c6c65642066726f6d2070726f787920636f6e74726160448201526118dd60f21b6064820152608401610230565b6112a988611f99565b6112b287612032565b6112bb826120ca565b6112c78686868661213b565b8015610f3e576000805461ff0019169055604051600181527f7f26b83ff96e1f2b6a682f133852f6798a09c465da95921460cefb38474024989060200160405180910390a15050505050505050565b61131f33611dba565b61133b5760405162461bcd60e51b8152600401610230906132d0565b60005b838110156113a25761139085858381811061135b5761135b6131fb565b90506020020160208101906113709190612e8a565b8888868686818110611384576113846131fb565b905060200201356121a4565b8061139a8161329f565b91505061133e565b50505050505050565b60007f9acda75aebd150dd434541a4747a6dc606f4f1a59662477e67daf1fc0bf9e0aa610628565b6000610a2c82611944565b6000806113e9611a0b565b6001600160a01b0384166000908152600391909101602052604081209150808061141284612338565b905060005b8181101561145957600061142b8683612342565b90506114378882610f48565b945061144385856131e3565b93505080806114519061329f565b915050611417565b509095945050505050565b61146d33611dba565b6114895760405162461bcd60e51b8152600401610230906132d0565b6114b782611495611a0b565b6001600160a01b0386166000908152600191909101602052604090209061234e565b506114c3838383611d16565b6115075760405162461bcd60e51b8152602060048201526015602482015274139bdd08195b9bdd59da0818dbdb1b185d195c985b605a1b6044820152606401610230565b80611510611a0b565b6001600160a01b03851660009081526020918252604080822086835290925290812080549091906115429084906131e3565b909155505060408051838152602081018390526001600160a01b038516917f430a1193f254f9e15dc397d101a1ecf0a3383c95007062135900cc7c2a6b8043910160405180910390a2505050565b336115996113ab565b6001600160a01b0316146115bf5760405162461bcd60e51b815260040161023090613307565b6115cb8484848461213b565b50505050565b6000610a2c82600080611ae5565b6000610a2c8260008061235a565b336115f66113ab565b6001600160a01b03161461161c5760405162461bcd60e51b815260040161023090613307565b6116246119e6565b6001600160a01b031663d4d4f6ce836040518263ffffffff1660e01b815260040161165191815260200190565b60206040518083038186803b15801561166957600080fd5b505afa15801561167d573d6000803e3d6000fd5b505050506040513d601f19601f820116820180604052508101906116a1919061333c565b6116e05760405162461bcd60e51b815260206004820152601060248201526f496e76616c69642063757272656e637960801b6044820152606401610230565b806116e9611a0b565b6000848152600291909101602090815260409182902080546001600160a01b0319166001600160a01b039485161790558151858152928416908301527f2fe2c48bc79b8185433d1932041ab19e591d41c83d319835ea1c5bb357428790910160405180910390a15050565b60408051600180825281830190925260609160208083019080368337019050509050762632b73234b733a6b0b935b2ba21b7b73a3937b63632b960491b81600081518110610dc857610dc86131fb565b336117ad6113ab565b6001600160a01b0316146117d35760405162461bcd60e51b815260040161023090613307565b6001600160a01b0381166118385760405162461bcd60e51b815260206004820152602660248201527f4f776e61626c653a206e6577206f776e657220697320746865207a65726f206160448201526564647265737360d01b6064820152608401610230565b61184181611f99565b50565b60606000611850611a0b565b6001600160a01b038416600090815260039190910160205260408120915061187782612338565b905060008167ffffffffffffffff811115611894576118946132ba565b6040519080825280602002602001820160405280156118bd578160200160208202803683370190505b50905060005b8281101561190a5760006118d78583612342565b9050808383815181106118ec576118ec6131fb565b602090810291909101015250806119028161329f565b9150506118c3565b50949350505050565b61191c33611dba565b6119385760405162461bcd60e51b8152600401610230906132d0565b6115cb848484846121a4565b600080611950836113de565b9050600061196084600080611ae5565b61196985611c30565b61197391906131e3565b905080611981575092915050565b61271061198c6123b0565b611996908361335e565b6119a0919061337d565b8211156119dc576127106119b26123b0565b6119bc908361335e565b6119c86127108561335e565b6119d291906131cc565b610915919061337d565b5060009392505050565b6000611a067121bab93932b731bca1b7b73a3937b63632b960711b6123c3565b905090565b7f53832330c92cb5d80f0e1ff6fdb9886f7fad39132543bafb7497316eae2a831790565b60008051602061348c833981519152546001600160a01b0384811691161415611a6157611a5c828261245b565b505050565b611a5c8383836125a6565b6000611a76611a0b565b336000908152600491909101602090815260408083208584529091529020541115611ac057610bdb81611aa7611a0b565b336000908152600391909101602052604090209061234e565b610bdb81611acc611a0b565b336000908152600391909101602052604090209061268a565b600080611af0611a0b565b6001600160a01b0386166000908152600191909101602052604081209150805b611b1983612338565b811015611c26576000611b2c8483612342565b9050611b36611a0b565b6001600160a01b0389166000908152602091825260408082208483529092522054925086811415611b6e57611b6b86846131e3565b92505b60008311611b7d576000611c06565b611b856119e6565b6040516344a6ecdd60e01b815260048101839052602481018590526001600160a01b0391909116906344a6ecdd9060440160206040518083038186803b158015611bce57600080fd5b505afa158015611be2573d6000803e3d6000fd5b505050506040513d601f19601f82011682018060405250810190611c06919061319d565b611c1090866131e3565b9450508080611c1e9061329f565b915050611b10565b5050509392505050565b600080611c3b612696565b60405163fb54a6b360e01b81526001600160a01b038581166004830152919091169063fb54a6b39060240160206040518083038186803b158015611c7e57600080fd5b505afa158015611c92573d6000803e3d6000fd5b505050506040513d601f19601f82011682018060405250810190611cb6919061319d565b905060008113611cce57611cc98161339f565b611cd1565b60005b9392505050565b60008051602061348c833981519152546001600160a01b0385811691161415611d0a57611d0582826126bb565b6115cb565b6115cb84848484612804565b600080611d22856113de565b90506000611d31868686611ae5565b611d3a87611c30565b611d4491906131e3565b9050801580611d6f5750611d566123b0565b611d60908261335e565b611d6c6127108461335e565b10155b9695505050505050565b600080600080611d876128f8565b60010154611d936128f8565b60020154611d9f6128f8565b54611da86128f8565b60030154935093509350935090919293565b600080611dc5611754565b905060005b81518110156119dc57611df5828281518110611de857611de86131fb565b60200260200101516123c3565b6001600160a01b0316846001600160a01b03161415611e18575060019392505050565b80611e228161329f565b915050611dca565b60008111611e4a5760405162461bcd60e51b815260040161023090613175565b80611e53611a0b565b6001600160a01b0386166000908152600591909101602090815260408083208684529091529020541015611ec95760405162461bcd60e51b815260206004820152601a60248201527f4e6f7420656e6f75676820657363726f77656420616d6f756e740000000000006044820152606401610230565b80611ed2611a0b565b6001600160a01b03861660009081526005919091016020908152604080832086845290915281208054909190611f099084906131cc565b90915550611f3d9050611f1a611a0b565b600084815260029190910160205260409020546001600160a01b03168483611a2f565b826001600160a01b0316846001600160a01b03167f489c987eaac048a27dbf1d61a1ab18bbaa6cc7243f9b90e3ba00f1edb26ae20f8484604051611f8b929190918252602082015260400190565b60405180910390a350505050565b7f9acda75aebd150dd434541a4747a6dc606f4f1a59662477e67daf1fc0bf9e0aa80546001600160a01b038381166001600160a01b0319831681179093556040519116919082907f8be0079c531659141344cd1fd0a4f28419497f9722a3daafe3b4186f6b6457e090600090a35050565b60007f360894a13ba1a3210667c828492db98dca3e2076cc3735a920a3ca505d382bbc610628565b60008051602061346c833981519152546001600160a01b0316156120985760405162461bcd60e51b815260206004820152601b60248201527f7265736f6c766572207265676973746572656420616c726561647900000000006044820152606401610230565b8060008051602061346c8339815191525b80546001600160a01b0319166001600160a01b039290921691909117905550565b60008051602061348c833981519152546001600160a01b0316156121265760405162461bcd60e51b8152602060048201526013602482015272105b1c9958591e481a5b9a5d1a585b1a5e9959606a1b6044820152606401610230565b8060008051602061348c8339815191526120a9565b6121436128f8565b600101548414612156576121568461291c565b61215e6128f8565b6002015483146121715761217183612990565b6121796128f8565b5482146121895761218982612a6f565b6121916128f8565b6003015481146115cb576115cb81612b37565b806121ad611a0b565b6001600160a01b0386166000908152602091825260408082208683529092522054101561221c5760405162461bcd60e51b815260206004820152601f60248201527f4e6f7420656e6f75676820756e736574746c656420636f6c6c61746572616c006044820152606401610230565b80612225611a0b565b6001600160a01b03861660009081526020918252604080822086835290925290812080549091906122579084906131cc565b90915550506001600160a01b0383161561229a5761229a612276611a0b565b600084815260029190910160205260409020546001600160a01b0316848684612804565b6122a2611a0b565b6001600160a01b03851660009081526020918252604080822085835290925220546122f7576122f5826122d3611a0b565b6001600160a01b0387166000908152600191909101602052604090209061268a565b505b60408051838152602081018390526001600160a01b038616917fb4c40c9409d6c2c7dfd2fb0d7e0f26582b9dd0dee72dc0ff6ff09af501ba7a769101611166565b6000610a2c825490565b6000611cd18383612c05565b6000611cd18383612c2f565b600080612366856113de565b90506000612375868686611ae5565b61237e87611c30565b61238891906131e3565b905081156123a7578161239d6127108361335e565b611d6f919061337d565b50509392505050565b60006123ba6128f8565b60010154905090565b60008181527f4abde63c3e81aefa5764b017968bc473e83e093d7e1a10247d19e0a3e41240196020908152604080832054815170026b4b9b9b4b7339030b2323932b9b99d1607d1b9381019390935260318084018690528251808503909101815260519093019091526001600160a01b031690816124545760405162461bcd60e51b815260040161023091906133bc565b5092915050565b600060008051602061348c833981519152546040516370a0823160e01b81523060048201526001600160a01b03909116906370a082319060240160206040518083038186803b1580156124ad57600080fd5b505afa1580156124c1573d6000803e3d6000fd5b505050506040513d601f19601f820116820180604052508101906124e5919061319d565b90508181101561252b5760405162461bcd60e51b8152602060048201526011602482015270092dce6eaccccd2c6d2cadce840ae8aa89607b1b6044820152606401610230565b8015611a5c5760008051602061348c83398151915254604051632e1a7d4d60e01b8152600481018490526001600160a01b0390911690632e1a7d4d90602401600060405180830381600087803b15801561258457600080fd5b505af1158015612598573d6000803e3d6000fd5b50505050611a5c8383612c7e565b604080516001600160a01b038481166024830152604480830185905283518084039091018152606490920183526020820180516001600160e01b031663a9059cbb60e01b179052915160009283929087169161260291906133cf565b6000604051808303816000865af19150503d806000811461263f576040519150601f19603f3d011682016040523d82523d6000602084013e612644565b606091505b509150915081801561266e57508051158061266e57508080602001905181019061266e919061333c565b610e4a5760405162461bcd60e51b8152600401610230906133eb565b6000611cd18383612d47565b6000611a06762632b73234b733a6b0b935b2ba21b7b73a3937b63632b960491b6123c3565b804710156126fe5760405162461bcd60e51b815260206004820152601060248201526f092dce6eaccccd2c6d2cadce8408aa8960831b6044820152606401610230565b60008051602061348c8339815191525460408051630d0e30db60e41b815290516001600160a01b039092169163d0e30db0918491600480830192600092919082900301818588803b15801561275257600080fd5b505af1158015612766573d6000803e3d6000fd5b505050505061278060008051602061348c83398151915290565b5460405163a9059cbb60e01b81526001600160a01b038481166004830152602482018490529091169063a9059cbb90604401602060405180830381600087803b1580156127cc57600080fd5b505af11580156127e0573d6000803e3d6000fd5b505050506040513d601f19601f82011682018060405250810190611a5c919061333c565b604080516001600160a01b0385811660248301528481166044830152606480830185905283518084039091018152608490920183526020820180516001600160e01b03166323b872dd60e01b179052915160009283929088169161286891906133cf565b6000604051808303816000865af19150503d80600081146128a5576040519150601f19603f3d011682016040523d82523d6000602084013e6128aa565b606091505b50915091508180156128d45750805115806128d45750808060200190518101906128d4919061333c565b6128f05760405162461bcd60e51b8152600401610230906133eb565b505050505050565b7f1aaabb4945989eb9ee8150fddc35fcfc125664a7b898aa2de5931bb12484d05290565b6000811161293c5760405162461bcd60e51b81526004016102309061342f565b7f31ee2d7ab5f3365672e54f81f75b37a4d8b0f1085872bdb80349a1cb08ddb7116129656128f8565b6001015460408051918252602082018490520160405180910390a1806129896128f8565b6001015550565b600081116129b05760405162461bcd60e51b81526004016102309061342f565b6129b86128f8565b600101548110612a1b5760405162461bcd60e51b815260206004820152602860248201527f4175746f206c69717569646174696f6e207468726573686f6c642072617465206044820152676f766572666c6f7760c01b6064820152608401610230565b7fd3353684d64f1c80498433d8407c96e6bbeb1ec88b6200ec97d2c910fdbd0da4612a446128f8565b6002015460408051918252602082018490520160405180910390a180612a686128f8565b6002015550565b60008111612a8f5760405162461bcd60e51b81526004016102309061342f565b612a976128f8565b600201548110612ae95760405162461bcd60e51b815260206004820152601f60248201527f4c69717569646174696f6e2070726963652072617465206f766572666c6f77006044820152606401610230565b7f86aa422ec6af9520cb2f744924b12937e3db1aa5ce22050d0d519621e8409070612b126128f8565b5460408051918252602082018490520160405180910390a180612b336128f8565b5550565b60008111612b575760405162461bcd60e51b81526004016102309061342f565b612b5f6128f8565b600201548110612bb15760405162461bcd60e51b815260206004820152601c60248201527f4d696e20636f6c6c61746572616c2072617465206f766572666c6f77000000006044820152606401610230565b7f8367b1759e8fdce5712002e7aa025339b99cf3c850b194ebdf37219f86b01ee6612bda6128f8565b6003015460408051918252602082018490520160405180910390a180612bfe6128f8565b6003015550565b6000826000018281548110612c1c57612c1c6131fb565b9060005260206000200154905092915050565b6000818152600183016020526040812054612c7657508154600181810184556000848152602080822090930184905584548482528286019093526040902091909155610a2c565b506000610a2c565b604080516000808252602082019092526001600160a01b038416908390604051612ca891906133cf565b60006040518083038185875af1925050503d8060008114612ce5576040519150601f19603f3d011682016040523d82523d6000602084013e612cea565b606091505b5050905080611a5c5760405162461bcd60e51b815260206004820152602360248201527f5472616e7366657248656c7065723a204554485f5452414e534645525f46414960448201526213115160ea1b6064820152608401610230565b60008181526001830160205260408120548015612e30576000612d6b6001836131cc565b8554909150600090612d7f906001906131cc565b9050818114612de4576000866000018281548110612d9f57612d9f6131fb565b9060005260206000200154905080876000018481548110612dc257612dc26131fb565b6000918252602080832090910192909255918252600188019052604090208390555b8554869080612df557612df5613455565b600190038181906000526020600020016000905590558560010160008681526020019081526020016000206000905560019350505050610a2c565b6000915050610a2c565b60008060408385031215612e4d57600080fd5b50508035926020909101359150565b600060208284031215612e6e57600080fd5b5035919050565b6001600160a01b038116811461184157600080fd5b600060208284031215612e9c57600080fd5b8135611cd181612e75565b6020808252825182820181905260009190848201906040850190845b81811015612edf57835183529284019291840191600101612ec3565b50909695505050505050565b60008060008060808587031215612f0157600080fd5b8435612f0c81612e75565b93506020850135612f1c81612e75565b93969395505050506040820135916060013590565b60008083601f840112612f4357600080fd5b50813567ffffffffffffffff811115612f5b57600080fd5b6020830191508360208260051b8501011115612f7657600080fd5b9250929050565b60008060008060008060808789031215612f9657600080fd5b8635612fa181612e75565b955060208701359450604087013567ffffffffffffffff80821115612fc557600080fd5b612fd18a838b01612f31565b90965094506060890135915080821115612fea57600080fd5b50612ff789828a01612f31565b979a9699509497509295939492505050565b6000806040838503121561301c57600080fd5b823561302781612e75565b946020939093013593505050565b60008060006060848603121561304a57600080fd5b833561305581612e75565b95602085013595506040909401359392505050565b600080600080600080600060e0888a03121561308557600080fd5b873561309081612e75565b965060208801356130a081612e75565b955060408801359450606088013593506080880135925060a0880135915060c08801356130cc81612e75565b8091505092959891949750929550565b600080600080608085870312156130f257600080fd5b5050823594602084013594506040840135936060013592509050565b6000806040838503121561312157600080fd5b82359150602083013561313381612e75565b809150509250929050565b60208082526017908201527f43757272656e6379206e6f742072656769737465726564000000000000000000604082015260600190565b6020808252600e908201526d125b9d985b1a5908185b5bdd5b9d60921b604082015260600190565b6000602082840312156131af57600080fd5b5051919050565b634e487b7160e01b600052601160045260246000fd5b6000828210156131de576131de6131b6565b500390565b600082198211156131f6576131f66131b6565b500190565b634e487b7160e01b600052603260045260246000fd5b60005b8381101561322c578181015183820152602001613214565b838111156115cb5750506000910152565b60008151808452613255816020860160208601613211565b601f01601f19169290920160200192915050565b828152604060208201526000610915604083018461323d565b60006020828403121561329457600080fd5b8151611cd181612e75565b60006000198214156132b3576132b36131b6565b5060010190565b634e487b7160e01b600052604160045260246000fd5b60208082526017908201527f4f6e6c7920416363657074656420436f6e747261637473000000000000000000604082015260600190565b6020808252818101527f4f776e61626c653a2063616c6c6572206973206e6f7420746865206f776e6572604082015260600190565b60006020828403121561334e57600080fd5b81518015158114611cd157600080fd5b6000816000190483118215151615613378576133786131b6565b500290565b60008261339a57634e487b7160e01b600052601260045260246000fd5b500490565b6000600160ff1b8214156133b5576133b56131b6565b5060000390565b602081526000611cd1602083018461323d565b600082516133e1818460208701613211565b9190910192915050565b60208082526024908201527f5472616e7366657248656c7065723a205452414e534645525f46524f4d5f46416040820152631253115160e21b606082015260800190565b6020808252600c908201526b52617465206973207a65726f60a01b604082015260600190565b634e487b7160e01b600052603160045260246000fdfe4abde63c3e81aefa5764b017968bc473e83e093d7e1a10247d19e0a3e41240187522ee63bb7da831844dcdb60f35e8cfa51225eeb4ed6734e421ed06f0d56805a2646970667358221220e502af07a4807d4e624c42ba9a1ea30e1aa60e604bf4fd67ee05a98a38acdfab64736f6c63430008090033",
  "implementation": "0x5657ba1eE9BfCEdB76E64DA690e78c2C68030746",
  "devdoc": {
    "kind": "dev",
    "methods": {
      "acceptedContracts()": {
        "details": "The contact name listed in this method is also needed to be listed `requiredContracts` method."
      },
      "addEscrowedAmount(address,bytes32,uint256)": {
        "params": {
          "_amount": "Amount of funds to be add into escrow",
          "_ccy": "Currency name in bytes32",
          "_payer": "Address of user making payment"
        }
      },
      "deposit(bytes32,uint256)": {
        "details": "Deposits funds by the caller into collateral.",
        "params": {
          "_amount": "Amount of funds to deposit",
          "_ccy": "Currency name in bytes32"
        }
      },
      "getCollateralAmount(address,bytes32)": {
        "params": {
          "_ccy": "Currency name in bytes32",
          "_user": "User's address"
        },
        "returns": {
          "_0": "The deposited amount"
        }
      },
      "getCollateralAmountInETH(address,bytes32)": {
        "params": {
          "_ccy": "Specified currency",
          "_user": "User's address"
        },
        "returns": {
          "_0": "The deposited amount in ETH"
        }
      },
      "getCollateralParameters()": {
        "returns": {
          "autoLiquidationThresholdRate": " The rate used as the auto liquidation threshold",
          "liquidationPriceRate": "The rate used as the liquidation price",
          "marginCallThresholdRate": "The rate used as the margin call threshold",
          "minCollateralRate": "The rate used minima collateral"
        }
      },
      "getCoverage(address)": {
        "params": {
          "_user": "User's address"
        },
        "returns": {
          "_0": "The rate of collateral used"
        }
      },
      "getTotalCollateralAmountInETH(address)": {
        "params": {
          "_user": "Address of collateral user"
        },
        "returns": {
          "_0": "The total deposited amount in ETH"
        }
      },
      "getTotalUnsettledExposure(address)": {
        "params": {
          "_user": "User's address"
        },
        "returns": {
          "_0": "Total unsettled exposure"
        }
      },
      "getUnsettledCollateral(address,bytes32)": {
        "params": {
          "_ccy": "Currency name in bytes32",
          "_user": "User's address"
        },
        "returns": {
          "_0": "Unsettled exposure"
        }
      },
      "getUnusedCollateral(address)": {
        "params": {
          "_user": "User's address"
        },
        "returns": {
          "_0": "The total amount of unused collateral"
        }
      },
      "getUsedCurrencies(address)": {
        "params": {
          "_user": "User's address"
        },
        "returns": {
          "_0": "The currency names in bytes32"
        }
      },
      "getWithdrawableCollateral(address)": {
        "params": {
          "_user": "User's address"
        },
        "returns": {
          "_0": "Maximum amount of ETH that can be withdrawn"
        }
      },
      "initialize(address,address,uint256,uint256,uint256,uint256,address)": {
        "details": "Function is invoked by the proxy contract when the contract is added to the ProxyController.",
        "params": {
          "_WETH9": "The address of WETH",
          "_autoLiquidationThresholdRate": "The rate used as the auto liquidation threshold",
          "_liquidationPriceRate": "The rate used as the liquidation price",
          "_marginCallThresholdRate": "The rate used as the margin call threshold",
          "_minCollateralRate": "The rate used minima collateral",
          "_owner": "The address of the contract owner",
          "_resolver": "The address of the Address Resolver contract"
        }
      },
      "isCovered(address)": {
        "params": {
          "_user": "User's address"
        },
        "returns": {
          "_0": "The boolean if the collateral has sufficient coverage or not"
        }
      },
      "isRegisteredCurrency(bytes32)": {
        "params": {
          "_ccy": "Currency name in bytes32"
        },
        "returns": {
          "_0": "The boolean if the currency has been registered or not"
        }
      },
      "owner()": {
        "details": "Returns the address of the current owner."
      },
      "releaseUnsettledCollateral(address,address,bytes32,uint256)": {
        "params": {
          "_amount": "Amount of funds to be unlocked from unsettled exposure in a specified currency",
          "_ccy": "Currency name in bytes32",
          "_sender": "Address of user sending token",
          "_user": "User's address"
        }
      },
      "releaseUnsettledCollaterals(address,bytes32,address[],uint256[])": {
        "params": {
          "_amounts": "Array of amount of funds to be unlocked from unsettled exposure",
          "_ccy": "Currency name in bytes32",
          "_sender": "Address of user sending token",
          "_users": "Array of user's address"
        }
      },
      "removeEscrowedAmount(address,address,bytes32,uint256)": {
        "params": {
          "_amount": "Amount of funds to be removed from escrow",
          "_ccy": "Currency name in bytes32",
          "_payer": "Address of user making payment",
          "_receiver": "Address of user receiving payment"
        }
      },
      "removeEscrowedAmounts(address,bytes32,address[],uint256[])": {
        "params": {
          "_amounts": "Array of amount of funds to be unlocked from unsettled exposure",
          "_ccy": "Currency name in bytes32",
          "_payers": "Array of user's address making payment",
          "_receiver": "Address of user receiving payment"
        }
      },
      "renounceOwnership()": {
        "details": "Leaves the contract without owner. It will not be possible to call `onlyOwner` functions anymore. Can only be called by the current owner. NOTE: Renouncing ownership will leave the contract without an owner, thereby removing any functionality that is only available to the owner."
      },
      "requiredContracts()": {
        "details": "The contract name list is in `./libraries/Contracts.sol`."
      },
      "setCollateralParameters(uint256,uint256,uint256,uint256)": {
        "params": {
          "_autoLiquidationThresholdRate": "Auto liquidation threshold rate",
          "_liquidationPriceRate": "Liquidation price rate",
          "_marginCallThresholdRate": "Margin call threshold ratio",
          "_minCollateralRate": "Minimal collateral rate"
        }
      },
      "transferOwnership(address)": {
        "details": "Transfers ownership of the contract to a new account (`newOwner`). Can only be called by the current owner."
      },
      "useUnsettledCollateral(address,bytes32,uint256)": {
        "params": {
          "_amount": "Amount of funds to be locked in a specified currency",
          "_ccy": "Currency name in bytes32",
          "_user": "User's address"
        }
      },
      "withdraw(bytes32,uint256)": {
        "params": {
          "_amount": "Amount of funds to withdraw.",
          "_ccy": "Currency name in bytes32"
        }
      }
    },
    "version": 1
  },
  "userdoc": {
    "kind": "user",
    "methods": {
      "acceptedContracts()": {
        "notice": "Returns contract names that can call this contract."
      },
      "addEscrowedAmount(address,bytes32,uint256)": {
        "notice": "Add funds to escrow."
      },
      "getCollateralAmount(address,bytes32)": {
        "notice": "Gets the amount deposited in the user's collateral."
      },
      "getCollateralAmountInETH(address,bytes32)": {
        "notice": "Gets the amount deposited in the user's collateral by converting it to ETH."
      },
      "getCollateralParameters()": {
        "notice": "Gets parameters related to collateral."
      },
      "getCoverage(address)": {
        "notice": "Gets the rate of collateral used."
      },
      "getTotalCollateralAmountInETH(address)": {
        "notice": "Gets the total amount deposited in the user's collateral in all currencies. by converting it to ETH."
      },
      "getTotalUnsettledExposure(address)": {
        "notice": "Gets total unsettled exposure in all currencies."
      },
      "getUnsettledCollateral(address,bytes32)": {
        "notice": "Gets unsettled exposure for the selected currency"
      },
      "getUnusedCollateral(address)": {
        "notice": "Gets the total amount of unused collateral"
      },
      "getUsedCurrencies(address)": {
        "notice": "Gets the currencies that the user used as collateral."
      },
      "getWithdrawableCollateral(address)": {
        "notice": "Gets the maximum amount of ETH that can be withdrawn from user collateral."
      },
      "initialize(address,address,uint256,uint256,uint256,uint256,address)": {
        "notice": "Initializes the contract."
      },
      "isCovered(address)": {
        "notice": "Gets if the collateral has enough coverage."
      },
      "isRegisteredCurrency(bytes32)": {
        "notice": "Gets if the currency has been registered"
      },
      "releaseUnsettledCollateral(address,address,bytes32,uint256)": {
        "notice": "Releases the amount of unsettled exposure for the selected currency."
      },
      "releaseUnsettledCollaterals(address,bytes32,address[],uint256[])": {
        "notice": "Releases the amount of unsettled exposure on multiple orders."
      },
      "removeEscrowedAmount(address,address,bytes32,uint256)": {
        "notice": "Remove funds from escrow."
      },
      "removeEscrowedAmounts(address,bytes32,address[],uint256[])": {
        "notice": "Remove funds from escrow on multiple orders."
      },
      "requiredContracts()": {
        "notice": "Returns the contract names used in this contract."
      },
      "setCollateralParameters(uint256,uint256,uint256,uint256)": {
        "notice": "Sets main collateral parameters this function solves the issue of frontrunning during parameters tuning.Triggers only be contract owner"
      },
      "useUnsettledCollateral(address,bytes32,uint256)": {
        "notice": "Locks unsettled collateral for the selected currency."
      },
      "withdraw(bytes32,uint256)": {
        "notice": "Withdraws funds by the caller from unused collateral."
      }
    },
    "notice": "Implements the management of the token in each currency for users. This contract manages the following data related to tokens. - Deposited token amount as the collateral - Unsettled collateral amount used by order - Escrowed token amount added by lending orders - Parameters related to the collateral   - Margin Call Threshold Rate   - Auto Liquidation Threshold Rate   - Liquidation Price Rate   - Min Collateral Rate To address a currency as collateral, it must be registered using `registerCurrency` method in this contract.",
    "version": 1
  },
  "storageLayout": {
    "storage": [
      {
        "astId": 790,
        "contract": "contracts/TokenVault.sol:TokenVault",
        "label": "_initialized",
        "offset": 0,
        "slot": "0",
        "type": "t_uint8"
      },
      {
        "astId": 793,
        "contract": "contracts/TokenVault.sol:TokenVault",
        "label": "_initializing",
        "offset": 1,
        "slot": "0",
        "type": "t_bool"
      }
    ],
    "types": {
      "t_bool": {
        "encoding": "inplace",
        "label": "bool",
        "numberOfBytes": "1"
      },
      "t_uint8": {
        "encoding": "inplace",
        "label": "uint8",
        "numberOfBytes": "1"
      }
    }
  }
}