{
  "address": "0x357dE0c6B9DB77Bd2Af6B0699cE185db79Ea4f47",
  "abi": [
    {
      "anonymous": false,
      "inputs": [
        {
          "indexed": false,
          "internalType": "bytes32",
          "name": "name",
          "type": "bytes32"
        },
        {
          "indexed": false,
          "internalType": "address",
          "name": "destination",
          "type": "address"
        }
      ],
      "name": "CacheUpdated",
      "type": "event"
    },
    {
      "anonymous": false,
      "inputs": [
        {
          "indexed": false,
          "internalType": "bytes32",
          "name": "ccy",
          "type": "bytes32"
        },
        {
          "indexed": false,
          "internalType": "address",
          "name": "tokenAddress",
          "type": "address"
        },
        {
          "indexed": false,
          "internalType": "bool",
          "name": "isCollateral",
          "type": "bool"
        }
      ],
      "name": "CurrencyRegistered",
      "type": "event"
    },
    {
      "anonymous": false,
      "inputs": [
        {
          "indexed": false,
          "internalType": "bytes32",
          "name": "ccy",
          "type": "bytes32"
        },
        {
          "indexed": false,
          "internalType": "bool",
          "name": "isCollateral",
          "type": "bool"
        }
      ],
      "name": "CurrencyUpdated",
      "type": "event"
    },
    {
      "anonymous": false,
      "inputs": [
        {
          "indexed": true,
          "internalType": "address",
          "name": "user",
          "type": "address"
        },
        {
          "indexed": false,
          "internalType": "bytes32",
          "name": "ccy",
          "type": "bytes32"
        },
        {
          "indexed": false,
          "internalType": "uint256",
          "name": "amount",
          "type": "uint256"
        }
      ],
      "name": "Deposit",
      "type": "event"
    },
    {
      "anonymous": false,
      "inputs": [
        {
          "indexed": false,
          "internalType": "uint8",
          "name": "version",
          "type": "uint8"
        }
      ],
      "name": "Initialized",
      "type": "event"
    },
    {
      "anonymous": false,
      "inputs": [
        {
          "indexed": true,
          "internalType": "address",
          "name": "previousOwner",
          "type": "address"
        },
        {
          "indexed": true,
          "internalType": "address",
          "name": "newOwner",
          "type": "address"
        }
      ],
      "name": "OwnershipTransferred",
      "type": "event"
    },
    {
      "anonymous": false,
      "inputs": [
        {
          "indexed": false,
          "internalType": "address",
          "name": "account",
          "type": "address"
        }
      ],
      "name": "Paused",
      "type": "event"
    },
    {
      "anonymous": false,
      "inputs": [
        {
          "indexed": true,
          "internalType": "bytes32",
          "name": "ccy",
          "type": "bytes32"
        },
        {
          "indexed": true,
          "internalType": "address",
          "name": "from",
          "type": "address"
        },
        {
          "indexed": true,
          "internalType": "address",
          "name": "to",
          "type": "address"
        },
        {
          "indexed": false,
          "internalType": "uint256",
          "name": "amount",
          "type": "uint256"
        }
      ],
      "name": "Transfer",
      "type": "event"
    },
    {
      "anonymous": false,
      "inputs": [
        {
          "indexed": false,
          "internalType": "address",
          "name": "account",
          "type": "address"
        }
      ],
      "name": "Unpaused",
      "type": "event"
    },
    {
      "anonymous": false,
      "inputs": [
        {
          "indexed": true,
          "internalType": "address",
          "name": "user",
          "type": "address"
        },
        {
          "indexed": false,
          "internalType": "bytes32",
          "name": "ccy",
          "type": "bytes32"
        },
        {
          "indexed": false,
          "internalType": "uint256",
          "name": "amount",
          "type": "uint256"
        }
      ],
      "name": "Withdraw",
      "type": "event"
    },
    {
      "inputs": [],
      "name": "acceptedContracts",
      "outputs": [
        {
          "internalType": "bytes32[]",
          "name": "contracts",
          "type": "bytes32[]"
        }
      ],
      "stateMutability": "pure",
      "type": "function"
    },
    {
      "inputs": [
        {
          "internalType": "address",
          "name": "_user",
          "type": "address"
        },
        {
          "internalType": "bytes32",
          "name": "_ccy",
          "type": "bytes32"
        },
        {
          "internalType": "uint256",
          "name": "_amount",
          "type": "uint256"
        }
      ],
      "name": "addDepositAmount",
      "outputs": [],
      "stateMutability": "nonpayable",
      "type": "function"
    },
    {
      "inputs": [],
      "name": "buildCache",
      "outputs": [],
      "stateMutability": "nonpayable",
      "type": "function"
    },
    {
      "inputs": [
        {
          "internalType": "address",
          "name": "_user",
          "type": "address"
        },
        {
          "components": [
            {
              "internalType": "bytes32",
              "name": "ccy",
              "type": "bytes32"
            },
            {
              "internalType": "uint256",
              "name": "claimableAmount",
              "type": "uint256"
            },
            {
              "internalType": "uint256",
              "name": "debtAmount",
              "type": "uint256"
            },
            {
              "internalType": "uint256",
              "name": "lentAmount",
              "type": "uint256"
            },
            {
              "internalType": "uint256",
              "name": "borrowedAmount",
              "type": "uint256"
            }
          ],
          "internalType": "struct ILendingMarketController.AdditionalFunds",
          "name": "_additionalFunds",
          "type": "tuple"
        }
      ],
      "name": "calculateCoverage",
      "outputs": [
        {
          "internalType": "uint256",
          "name": "coverage",
          "type": "uint256"
        },
        {
          "internalType": "bool",
          "name": "isInsufficientDepositAmount",
          "type": "bool"
        }
      ],
      "stateMutability": "view",
      "type": "function"
    },
    {
      "inputs": [
        {
          "internalType": "uint256",
          "name": "_amount",
          "type": "uint256"
        }
      ],
      "name": "calculateLiquidationFees",
      "outputs": [
        {
          "internalType": "uint256",
          "name": "protocolFee",
          "type": "uint256"
        },
        {
          "internalType": "uint256",
          "name": "liquidatorFee",
          "type": "uint256"
        }
      ],
      "stateMutability": "view",
      "type": "function"
    },
    {
      "inputs": [
        {
          "internalType": "bytes32",
          "name": "_ccy",
          "type": "bytes32"
        },
        {
          "internalType": "uint256",
          "name": "_amount",
          "type": "uint256"
        }
      ],
      "name": "deposit",
      "outputs": [],
      "stateMutability": "payable",
      "type": "function"
    },
    {
      "inputs": [
        {
          "internalType": "address",
          "name": "_from",
          "type": "address"
        },
        {
          "internalType": "bytes32",
          "name": "_ccy",
          "type": "bytes32"
        },
        {
          "internalType": "uint256",
          "name": "_amount",
          "type": "uint256"
        }
      ],
      "name": "depositFrom",
      "outputs": [],
      "stateMutability": "payable",
      "type": "function"
    },
    {
      "inputs": [
        {
          "internalType": "address",
          "name": "_user",
          "type": "address"
        },
        {
          "internalType": "bytes32",
          "name": "_ccy",
          "type": "bytes32"
        }
      ],
      "name": "executeForcedReset",
      "outputs": [
        {
          "internalType": "uint256",
          "name": "",
          "type": "uint256"
        }
      ],
      "stateMutability": "nonpayable",
      "type": "function"
    },
    {
      "inputs": [
        {
          "internalType": "address",
          "name": "_user",
          "type": "address"
        },
        {
          "internalType": "bytes32",
          "name": "_ccy",
          "type": "bytes32"
        }
      ],
      "name": "getCollateralAmount",
      "outputs": [
        {
          "internalType": "uint256",
          "name": "amount",
          "type": "uint256"
        }
      ],
      "stateMutability": "view",
      "type": "function"
    },
    {
      "inputs": [],
      "name": "getCollateralCurrencies",
      "outputs": [
        {
          "internalType": "bytes32[]",
          "name": "",
          "type": "bytes32[]"
        }
      ],
      "stateMutability": "view",
      "type": "function"
    },
    {
      "inputs": [],
      "name": "getCollateralParameters",
      "outputs": [
        {
          "internalType": "uint256",
          "name": "liquidationThresholdRate",
          "type": "uint256"
        },
        {
          "internalType": "uint256",
          "name": "liquidationProtocolFeeRate",
          "type": "uint256"
        },
        {
          "internalType": "uint256",
          "name": "liquidatorFeeRate",
          "type": "uint256"
        }
      ],
      "stateMutability": "view",
      "type": "function"
    },
    {
      "inputs": [
        {
          "internalType": "address",
          "name": "_user",
          "type": "address"
        }
      ],
      "name": "getCoverage",
      "outputs": [
        {
          "internalType": "uint256",
          "name": "coverage",
          "type": "uint256"
        }
      ],
      "stateMutability": "view",
      "type": "function"
    },
    {
      "inputs": [
        {
          "internalType": "address",
          "name": "_user",
          "type": "address"
        },
        {
          "internalType": "bytes32",
          "name": "_ccy",
          "type": "bytes32"
        }
      ],
      "name": "getDepositAmount",
      "outputs": [
        {
          "internalType": "uint256",
          "name": "",
          "type": "uint256"
        }
      ],
      "stateMutability": "view",
      "type": "function"
    },
    {
      "inputs": [
        {
          "internalType": "address",
          "name": "_user",
          "type": "address"
        },
        {
          "internalType": "bytes32",
          "name": "_liquidationCcy",
          "type": "bytes32"
        },
        {
          "internalType": "uint256",
          "name": "_liquidationAmountMaximum",
          "type": "uint256"
        }
      ],
      "name": "getLiquidationAmount",
      "outputs": [
        {
          "internalType": "uint256",
          "name": "liquidationAmount",
          "type": "uint256"
        },
        {
          "internalType": "uint256",
          "name": "protocolFee",
          "type": "uint256"
        },
        {
          "internalType": "uint256",
          "name": "liquidatorFee",
          "type": "uint256"
        }
      ],
      "stateMutability": "view",
      "type": "function"
    },
    {
      "inputs": [
        {
          "internalType": "bytes32",
          "name": "_ccy",
          "type": "bytes32"
        }
      ],
      "name": "getTokenAddress",
      "outputs": [
        {
          "internalType": "address",
          "name": "",
          "type": "address"
        }
      ],
      "stateMutability": "view",
      "type": "function"
    },
    {
      "inputs": [
        {
          "internalType": "address",
          "name": "_user",
          "type": "address"
        }
      ],
      "name": "getTotalCollateralAmount",
      "outputs": [
        {
          "internalType": "uint256",
          "name": "totalCollateralAmount",
          "type": "uint256"
        }
      ],
      "stateMutability": "view",
      "type": "function"
    },
    {
      "inputs": [
        {
          "internalType": "bytes32",
          "name": "_ccy",
          "type": "bytes32"
        }
      ],
      "name": "getTotalDepositAmount",
      "outputs": [
        {
          "internalType": "uint256",
          "name": "",
          "type": "uint256"
        }
      ],
      "stateMutability": "view",
      "type": "function"
    },
    {
      "inputs": [
        {
          "internalType": "address",
          "name": "_user",
          "type": "address"
        }
      ],
      "name": "getUnusedCollateral",
      "outputs": [
        {
          "internalType": "uint256",
          "name": "",
          "type": "uint256"
        }
      ],
      "stateMutability": "view",
      "type": "function"
    },
    {
      "inputs": [
        {
          "internalType": "address",
          "name": "_user",
          "type": "address"
        }
      ],
      "name": "getUsedCurrencies",
      "outputs": [
        {
          "internalType": "bytes32[]",
          "name": "",
          "type": "bytes32[]"
        }
      ],
      "stateMutability": "view",
      "type": "function"
    },
    {
      "inputs": [
        {
          "internalType": "bytes32",
          "name": "_ccy",
          "type": "bytes32"
        },
        {
          "internalType": "address",
          "name": "_user",
          "type": "address"
        }
      ],
      "name": "getWithdrawableCollateral",
      "outputs": [
        {
          "internalType": "uint256",
          "name": "",
          "type": "uint256"
        }
      ],
      "stateMutability": "view",
      "type": "function"
    },
    {
      "inputs": [
        {
          "internalType": "address",
          "name": "_user",
          "type": "address"
        }
      ],
      "name": "getWithdrawableCollateral",
      "outputs": [
        {
          "internalType": "uint256",
          "name": "",
          "type": "uint256"
        }
      ],
      "stateMutability": "view",
      "type": "function"
    },
    {
      "inputs": [
        {
          "internalType": "address",
          "name": "_owner",
          "type": "address"
        },
        {
          "internalType": "address",
          "name": "_resolver",
          "type": "address"
        },
        {
          "internalType": "uint256",
          "name": "_liquidationThresholdRate",
          "type": "uint256"
        },
        {
          "internalType": "uint256",
          "name": "_liquidationProtocolFeeRate",
          "type": "uint256"
        },
        {
          "internalType": "uint256",
          "name": "_liquidatorFeeRate",
          "type": "uint256"
        },
        {
          "internalType": "address",
          "name": "_WETH9",
          "type": "address"
        }
      ],
      "name": "initialize",
      "outputs": [],
      "stateMutability": "nonpayable",
      "type": "function"
    },
    {
      "inputs": [
        {
          "internalType": "bytes32[]",
          "name": "_ccys",
          "type": "bytes32[]"
        }
      ],
      "name": "isCollateral",
      "outputs": [
        {
          "internalType": "bool[]",
          "name": "isCollateralCurrencies",
          "type": "bool[]"
        }
      ],
      "stateMutability": "view",
      "type": "function"
    },
    {
      "inputs": [
        {
          "internalType": "bytes32",
          "name": "_ccy",
          "type": "bytes32"
        }
      ],
      "name": "isCollateral",
      "outputs": [
        {
          "internalType": "bool",
          "name": "",
          "type": "bool"
        }
      ],
      "stateMutability": "view",
      "type": "function"
    },
    {
      "inputs": [
        {
          "internalType": "address",
          "name": "_user",
          "type": "address"
        }
      ],
      "name": "isCovered",
      "outputs": [
        {
          "internalType": "bool",
          "name": "",
          "type": "bool"
        }
      ],
      "stateMutability": "view",
      "type": "function"
    },
    {
      "inputs": [
        {
          "internalType": "bytes32",
          "name": "_ccy",
          "type": "bytes32"
        }
      ],
      "name": "isRegisteredCurrency",
      "outputs": [
        {
          "internalType": "bool",
          "name": "",
          "type": "bool"
        }
      ],
      "stateMutability": "view",
      "type": "function"
    },
    {
      "inputs": [],
      "name": "isResolverCached",
      "outputs": [
        {
          "internalType": "bool",
          "name": "",
          "type": "bool"
        }
      ],
      "stateMutability": "view",
      "type": "function"
    },
    {
      "inputs": [],
      "name": "owner",
      "outputs": [
        {
          "internalType": "address",
          "name": "",
          "type": "address"
        }
      ],
      "stateMutability": "view",
      "type": "function"
    },
    {
      "inputs": [],
      "name": "pauseVault",
      "outputs": [],
      "stateMutability": "nonpayable",
      "type": "function"
    },
    {
      "inputs": [],
      "name": "paused",
      "outputs": [
        {
          "internalType": "bool",
          "name": "",
          "type": "bool"
        }
      ],
      "stateMutability": "view",
      "type": "function"
    },
    {
      "inputs": [
        {
          "internalType": "bytes32",
          "name": "_ccy",
          "type": "bytes32"
        },
        {
          "internalType": "address",
          "name": "_tokenAddress",
          "type": "address"
        },
        {
          "internalType": "bool",
          "name": "_isCollateral",
          "type": "bool"
        }
      ],
      "name": "registerCurrency",
      "outputs": [],
      "stateMutability": "nonpayable",
      "type": "function"
    },
    {
      "inputs": [
        {
          "internalType": "address",
          "name": "_user",
          "type": "address"
        },
        {
          "internalType": "bytes32",
          "name": "_ccy",
          "type": "bytes32"
        },
        {
          "internalType": "uint256",
          "name": "_amount",
          "type": "uint256"
        }
      ],
      "name": "removeDepositAmount",
      "outputs": [],
      "stateMutability": "nonpayable",
      "type": "function"
    },
    {
      "inputs": [],
      "name": "renounceOwnership",
      "outputs": [],
      "stateMutability": "nonpayable",
      "type": "function"
    },
    {
      "inputs": [],
      "name": "requiredContracts",
      "outputs": [
        {
          "internalType": "bytes32[]",
          "name": "contracts",
          "type": "bytes32[]"
        }
      ],
      "stateMutability": "pure",
      "type": "function"
    },
    {
      "inputs": [],
      "name": "resolver",
      "outputs": [
        {
          "internalType": "contract IAddressResolver",
          "name": "",
          "type": "address"
        }
      ],
      "stateMutability": "view",
      "type": "function"
    },
    {
      "inputs": [
        {
          "internalType": "uint256",
          "name": "_liquidationThresholdRate",
          "type": "uint256"
        },
        {
          "internalType": "uint256",
          "name": "_liquidationProtocolFeeRate",
          "type": "uint256"
        },
        {
          "internalType": "uint256",
          "name": "_liquidatorFeeRate",
          "type": "uint256"
        }
      ],
      "name": "setCollateralParameters",
      "outputs": [],
      "stateMutability": "nonpayable",
      "type": "function"
    },
    {
      "inputs": [
        {
          "internalType": "bytes32",
          "name": "_ccy",
          "type": "bytes32"
        },
        {
          "internalType": "address",
          "name": "_from",
          "type": "address"
        },
        {
          "internalType": "address",
          "name": "_to",
          "type": "address"
        },
        {
          "internalType": "uint256",
          "name": "_amount",
          "type": "uint256"
        }
      ],
      "name": "transferFrom",
      "outputs": [
        {
          "internalType": "uint256",
          "name": "untransferredAmount",
          "type": "uint256"
        }
      ],
      "stateMutability": "nonpayable",
      "type": "function"
    },
    {
      "inputs": [
        {
          "internalType": "address",
          "name": "newOwner",
          "type": "address"
        }
      ],
      "name": "transferOwnership",
      "outputs": [],
      "stateMutability": "nonpayable",
      "type": "function"
    },
    {
      "inputs": [],
      "name": "unpauseVault",
      "outputs": [],
      "stateMutability": "nonpayable",
      "type": "function"
    },
    {
      "inputs": [
        {
          "internalType": "bytes32",
          "name": "_ccy",
          "type": "bytes32"
        },
        {
          "internalType": "bool",
          "name": "_isCollateral",
          "type": "bool"
        }
      ],
      "name": "updateCurrency",
      "outputs": [],
      "stateMutability": "nonpayable",
      "type": "function"
    },
    {
      "inputs": [
        {
          "internalType": "bytes32",
          "name": "_ccy",
          "type": "bytes32"
        },
        {
          "internalType": "uint256",
          "name": "_amount",
          "type": "uint256"
        }
      ],
      "name": "withdraw",
      "outputs": [],
      "stateMutability": "nonpayable",
      "type": "function"
    },
    {
      "stateMutability": "payable",
      "type": "receive"
    }
  ],
  "transactionHash": "0x9177a86f3d49e35b5ac8dfc93d1c2ab9ecab2fc56f94935423ff3dcc779ca599",
  "args": [],
  "numDeployments": 2,
  "solcInputHash": "34e6dfc19d231b4627a36b9e10846223",
  "bytecode": "0x608060405234801561001057600080fd5b50613458806100206000396000f3fe6080604052600436106102495760003560e01c80635c975abb1161013957806396994e37116100b6578063ca4230311161007a578063ca42303114610787578063d5e190d0146107a7578063e0997659146107bc578063f2fde38b146107d1578063fb7bd3b4146107f1578063fc7008101461081157600080fd5b806396994e37146106c75780639e0879c2146106da578063ab6ce427146106ef578063b12e441014610724578063b1a5d12d1461076757600080fd5b80637d044b43116100fd5780637d044b43146106325780637d44828e146106525780638da5cb5b146106725780638e19aff314610687578063948060dd146106a757600080fd5b80635c975abb146105a35780635d861505146105c85780635d95df8a146105dd578063715018a6146105fd5780637496d3fb1461061257600080fd5b806329985e5a116101c75780634c6aa99c1161018b5780634c6aa99c146104bc578063500d2f6d146105085780635257ed671461052857806354821c21146105635780635bffeb661461058357600080fd5b806329985e5a146104235780632af64bd3146104385780633d03b9da1461044d5780633f90a08e1461046f5780634ba0c9b51461049c57600080fd5b80630cf7505d1161020e5780630cf7505d146103805780630cfe33fa146103b05780630eadd244146103d05780631de26e16146103f057806325e1f09f1461040357600080fd5b8062fcf262146102b65780630253cd7e146102f0578063040cf0201461031e57806304f3bcec1461033e5780630b7562be1461036b57600080fd5b366102b157610256610831565b6001600160a01b0316336001600160a01b0316146102af5760405162461bcd60e51b81526020600482015260116024820152704e6f7420626173652063757272656e637960781b60448201526064015b60405180910390fd5b005b600080fd5b3480156102c257600080fd5b506102d66102d1366004612c14565b610864565b604080519283526020830191909152015b60405180910390f35b3480156102fc57600080fd5b5061031061030b366004612c42565b6108f2565b6040519081526020016102e7565b34801561032a57600080fd5b506102af610339366004612c6e565b610991565b34801561034a57600080fd5b506103536109cf565b6040516001600160a01b0390911681526020016102e7565b34801561037757600080fd5b506102af6109e5565b34801561038c57600080fd5b506103a061039b366004612c14565b610a1e565b60405190151581526020016102e7565b3480156103bc57600080fd5b506103106103cb366004612c90565b610a48565b3480156103dc57600080fd5b506103106103eb366004612cb4565b610aff565b6102af6103fe366004612c6e565b610b49565b34801561040f57600080fd5b506103a061041e366004612c90565b610b82565b34801561042f57600080fd5b506102af610c10565b34801561044457600080fd5b506103a0610dbe565b34801561045957600080fd5b50610462610f24565b6040516102e79190612ce4565b34801561047b57600080fd5b5061048f61048a366004612d28565b610fe6565b6040516102e79190612d9d565b3480156104a857600080fd5b506102af6104b7366004612dd7565b611094565b3480156104c857600080fd5b506103106104d7366004612c14565b60009081527f53832330c92cb5d80f0e1ff6fdb9886f7fad39132543bafb7497316eae2a831b602052604090205490565b34801561051457600080fd5b50610310610523366004612e0c565b611158565b34801561053457600080fd5b50610548610543366004612dd7565b6112a4565b604080519384526020840192909252908201526060016102e7565b34801561056f57600080fd5b5061031061057e366004612c90565b611343565b34801561058f57600080fd5b506102af61059e366004612e62565b6113da565b3480156105af57600080fd5b506000805160206133c38339815191525460ff166103a0565b3480156105d457600080fd5b50610548611576565b3480156105e957600080fd5b506103a06105f8366004612c14565b6115ec565b34801561060957600080fd5b506102af611606565b34801561061e57600080fd5b506102af61062d366004612ea4565b61163f565b34801561063e57600080fd5b5061031061064d366004612c42565b611679565b34801561065e57600080fd5b5061031061066d366004612c42565b611758565b34801561067e57600080fd5b506103536117f7565b34801561069357600080fd5b506102af6106a2366004612ed0565b61181f565b3480156106b357600080fd5b506103106106c2366004612c90565b6118e9565b6102af6106d5366004612dd7565b611978565b3480156106e657600080fd5b506102af6119b0565b3480156106fb57600080fd5b5061070f61070a366004612f3c565b6119e7565b604080519283529015156020830152016102e7565b34801561073057600080fd5b5061035361073f366004612c14565b60009081526000805160206133e383398151915260205260409020546001600160a01b031690565b34801561077357600080fd5b506102af610782366004612fd2565b611ab0565b34801561079357600080fd5b506103106107a2366004612c90565b611c51565b3480156107b357600080fd5b50610462611c94565b3480156107c857600080fd5b50610462611cb2565b3480156107dd57600080fd5b506102af6107ec366004612c90565b611d2e565b3480156107fd57600080fd5b506102af61080c366004612dd7565b611dcb565b34801561081d57600080fd5b5061046261082c366004612c90565b611e59565b60007f3a2b81b27c095d6e2aecbb7be5d317f24d3f11a9eb2b6e2d16957fe4c0b4ddf35b546001600160a01b0316919050565b604051627e793160e11b81526004810182905260009081907363da58e089498aDCb4458D32A0B52F2C42dF0Ce99062fcf26290602401604080518083038186803b1580156108b157600080fd5b505af41580156108c5573d6000803e3d6000fd5b505050506040513d601f19601f820116820180604052508101906108e99190613039565b91509150915091565b604051630129e6bf60e11b81526001600160a01b0383166004820152602481018290526000907363da58e089498aDCb4458D32A0B52F2C42dF0Ce990630253cd7e906044015b60206040518083038186803b15801561095057600080fd5b505af4158015610964573d6000803e3d6000fd5b505050506040513d601f19601f82011682018060405250810190610988919061305d565b90505b92915050565b610999611eeb565b816109a381610a1e565b6109bf5760405162461bcd60e51b81526004016102a690613076565b6109ca338484611f3e565b505050565b60006000805160206133a3833981519152610855565b336109ee6117f7565b6001600160a01b031614610a145760405162461bcd60e51b81526004016102a6906130ad565b610a1c61218f565b565b60009081526000805160206133e383398151915260205260409020546001600160a01b0316151590565b60405163654c629560e01b81526001600160a01b0382166004820152600090819081907363da58e089498aDCb4458D32A0B52F2C42dF0Ce99063654c62959060240160606040518083038186803b158015610aa257600080fd5b505af4158015610ab6573d6000803e3d6000fd5b505050506040513d601f19601f82011682018060405250810190610ada91906130e2565b5091509150808211610aed576000610af7565b610af78183613126565b949350505050565b6040516303ab749160e21b8152600481018390526001600160a01b03821660248201526000907363da58e089498aDCb4458D32A0B52F2C42dF0Ce990630eadd24490604401610938565b610b51611eeb565b81610b5b81610a1e565b610b775760405162461bcd60e51b81526004016102a690613076565b6109ca3384846121ee565b6040516325e1f09f60e01b81526001600160a01b03821660048201526000907363da58e089498aDCb4458D32A0B52F2C42dF0Ce9906325e1f09f9060240160206040518083038186803b158015610bd857600080fd5b505af4158015610bec573d6000803e3d6000fd5b505050506040513d601f19601f8201168201806040525081019061098b919061313d565b6000610c1a610f24565b905060005b8151811015610db9576000828281518110610c3c57610c3c61315a565b602002602001015190506000610c5d6000805160206133a383398151915290565b54604080517f5265736f6c766572206d697373696e67207461726765743a200000000000000060208201526039808201869052825180830390910181526059820192839052636795dbcd60e01b9092526001600160a01b0390921691636795dbcd91610cce91869190605d016131bd565b60206040518083038186803b158015610ce657600080fd5b505afa158015610cfa573d6000803e3d6000fd5b505050506040513d601f19601f82011682018060405250810190610d1e91906131d6565b60008381527f4abde63c3e81aefa5764b017968bc473e83e093d7e1a10247d19e0a3e4124019602090815260409182902080546001600160a01b0319166001600160a01b03851690811790915582518681529182015281519293507f88a93678a3692f6789d9546fc621bf7234b101ddb7d4fe479455112831b8aa68929081900390910190a150508080610db1906131f3565b915050610c1f565b505b50565b600080610dc9610f24565b905060005b8151811015610f1b576000828281518110610deb57610deb61315a565b60200260200101519050610e0a6000805160206133a383398151915290565b600082815260019190910160205260409020546001600160a01b03166000805160206133a3833981519152546040516321f8a72160e01b8152600481018490526001600160a01b03909116906321f8a7219060240160206040518083038186803b158015610e7757600080fd5b505afa158015610e8b573d6000803e3d6000fd5b505050506040513d601f19601f82011682018060405250810190610eaf91906131d6565b6001600160a01b0316141580610ef9575060008181527f4abde63c3e81aefa5764b017968bc473e83e093d7e1a10247d19e0a3e412401960205260409020546001600160a01b0316155b15610f08576000935050505090565b5080610f13816131f3565b915050610dce565b50600191505090565b604080516003808252608082019092526060916020820183803683370190505090507121bab93932b731bca1b7b73a3937b63632b960711b81600081518110610f6f57610f6f61315a565b602002602001018181525050762632b73234b733a6b0b935b2ba21b7b73a3937b63632b960491b81600181518110610fa957610fa961315a565b6020026020010181815250506a14995cd95c9d99519d5b9960aa1b81600281518110610fd757610fd761315a565b60200260200101818152505090565b60608167ffffffffffffffff81111561100157611001612ef5565b60405190808252806020026020018201604052801561102a578160200160208202803683370190505b50905060005b8281101561108d5761105984848381811061104d5761104d61315a565b905060200201356115ec565b82828151811061106b5761106b61315a565b9115156020928302919091019091015280611085816131f3565b915050611030565b5092915050565b61109c611eeb565b6110a5336123d4565b6110c15760405162461bcd60e51b81526004016102a69061320e565b816110cb81610a1e565b6110e75760405162461bcd60e51b81526004016102a690613076565b604051634ba0c9b560e01b81527363da58e089498aDCb4458D32A0B52F2C42dF0Ce990634ba0c9b59061112290879087908790600401613245565b60006040518083038186803b15801561113a57600080fd5b505af415801561114e573d6000803e3d6000fd5b5050505050505050565b6000611162611eeb565b61116b336123d4565b6111875760405162461bcd60e51b81526004016102a69061320e565b8461119181610a1e565b6111ad5760405162461bcd60e51b81526004016102a690613076565b60405163500d2f6d60e01b8152600481018790526001600160a01b03808716602483015285166044820152606481018490527363da58e089498aDCb4458D32A0B52F2C42dF0Ce99063500d2f6d9060840160206040518083038186803b15801561121657600080fd5b505af415801561122a573d6000803e3d6000fd5b505050506040513d601f19601f8201168201806040525081019061124e919061305d565b91506001600160a01b03808516908616877ff8ca259b4b82670be7501ff56ad1fc9c7cd199d3431e3c502f2c5f86884bc15061128a8688613126565b60405190815260200160405180910390a450949350505050565b60008060007363da58e089498aDCb4458D32A0B52F2C42dF0Ce9635257ed678787876040518463ffffffff1660e01b81526004016112e493929190613245565b60606040518083038186803b1580156112fc57600080fd5b505af4158015611310573d6000803e3d6000fd5b505050506040513d601f19601f8201168201806040525081019061133491906130e2565b92509250925093509350939050565b60405163654c629560e01b81526001600160a01b03821660048201526000907363da58e089498aDCb4458D32A0B52F2C42dF0Ce99063654c62959060240160606040518083038186803b15801561139957600080fd5b505af41580156113ad573d6000803e3d6000fd5b505050506040513d601f19601f820116820180604052508101906113d191906130e2565b50909392505050565b336113e36117f7565b6001600160a01b0316146114095760405162461bcd60e51b81526004016102a6906130ad565b61141161244e565b6001600160a01b0316631eae0893846040518263ffffffff1660e01b815260040161143e91815260200190565b60206040518083038186803b15801561145657600080fd5b505afa15801561146a573d6000803e3d6000fd5b505050506040513d601f19601f8201168201806040525081019061148e919061313d565b6114cd5760405162461bcd60e51b815260206004820152601060248201526f496e76616c69642063757272656e637960801b60448201526064016102a6565b60008381526000805160206133e38339815191526020526040902080546001600160a01b0319166001600160a01b038416179055801561152357611521836000805160206134038339815191525b90612458565b505b604080518481526001600160a01b0384166020820152821515918101919091527ff776c30df345d55df252bb5181a0c2bb23d601166606790a6f1b938d7e158503906060015b60405180910390a1505050565b60008060006115916000805160206133838339815191525490565b92506115bb7f1aaabb4945989eb9ee8150fddc35fcfc125664a7b898aa2de5931bb12484d0535490565b91506115e57f1aaabb4945989eb9ee8150fddc35fcfc125664a7b898aa2de5931bb12484d0545490565b9050909192565b600061098b60008051602061340383398151915283612464565b3361160f6117f7565b6001600160a01b0316146116355760405162461bcd60e51b81526004016102a6906130ad565b610a1c600061247c565b336116486117f7565b6001600160a01b03161461166e5760405162461bcd60e51b81526004016102a6906130ad565b6109ca8383836124ed565b6000611684336123d4565b6116a05760405162461bcd60e51b81526004016102a69061320e565b816116aa81610a1e565b6116c65760405162461bcd60e51b81526004016102a690613076565b604051637d044b4360e01b81526001600160a01b0385166004820152602481018490527363da58e089498aDCb4458D32A0B52F2C42dF0Ce990637d044b439060440160206040518083038186803b15801561172057600080fd5b505af4158015611734573d6000803e3d6000fd5b505050506040513d601f19601f82011682018060405250810190610af7919061305d565b604051633ea2414760e11b81526001600160a01b0383166004820152602481018290526000907363da58e089498aDCb4458D32A0B52F2C42dF0Ce990637d44828e9060440160606040518083038186803b1580156117b557600080fd5b505af41580156117c9573d6000803e3d6000fd5b505050506040513d601f19601f820116820180604052508101906117ed91906130e2565b5090949350505050565b60007f9acda75aebd150dd434541a4747a6dc606f4f1a59662477e67daf1fc0bf9e0aa610855565b336118286117f7565b6001600160a01b03161461184e5760405162461bcd60e51b81526004016102a6906130ad565b8161185881610a1e565b6118745760405162461bcd60e51b81526004016102a690613076565b8115611898576118928360008051602061340383398151915261151b565b506118b2565b6118b060008051602061340383398151915284612784565b505b6040805184815283151560208201527f97caf2b3b2f0aa460ca08b20c07f7a43ccf688e2f3b7179f2cf9113fb892bf819101611569565b60405163948060dd60e01b81526001600160a01b03821660048201526000907363da58e089498aDCb4458D32A0B52F2C42dF0Ce99063948060dd906024015b60206040518083038186803b15801561194057600080fd5b505af4158015611954573d6000803e3d6000fd5b505050506040513d601f19601f8201168201806040525081019061098b919061305d565b611980611eeb565b611989336123d4565b6119a55760405162461bcd60e51b81526004016102a69061320e565b6109ca8383836121ee565b336119b96117f7565b6001600160a01b0316146119df5760405162461bcd60e51b81526004016102a6906130ad565b610a1c612790565b60408051632910ae9d60e01b81526001600160a01b0384166004820152825160248201526020830151604482015290820151606482015260608201516084820152608082015160a482015260009081907363da58e089498aDCb4458D32A0B52F2C42dF0Ce990632910ae9d9060c401604080518083038186803b158015611a6d57600080fd5b505af4158015611a81573d6000803e3d6000fd5b505050506040513d601f19601f82011682018060405250810190611aa59190613266565b915091509250929050565b600054610100900460ff1615808015611ad05750600054600160ff909116105b80611aea5750303b158015611aea575060005460ff166001145b611b4d5760405162461bcd60e51b815260206004820152602e60248201527f496e697469616c697a61626c653a20636f6e747261637420697320616c72656160448201526d191e481a5b9a5d1a585b1a5e995960921b60648201526084016102a6565b6000805460ff191660011790558015611b70576000805461ff0019166101001790555b6000611b7a6127d9565b6001600160a01b03161415611bdc5760405162461bcd60e51b815260206004820152602260248201527f4d7573742062652063616c6c65642066726f6d2070726f787920636f6e74726160448201526118dd60f21b60648201526084016102a6565b611be58761247c565b611bee86612801565b611bf782612899565b611c028585856124ed565b8015611c48576000805461ff0019169055604051600181527f7f26b83ff96e1f2b6a682f133852f6798a09c465da95921460cefb38474024989060200160405180910390a15b50505050505050565b60405163ca42303160e01b81526001600160a01b03821660048201526000907363da58e089498aDCb4458D32A0B52F2C42dF0Ce99063ca42303190602401611928565b6060611cad60008051602061340383398151915261292e565b905090565b6040805160028082526060808301845292602083019080368337019050509050762632b73234b733a6b0b935b2ba21b7b73a3937b63632b960491b81600081518110611d0057611d0061315a565b6020026020010181815250506a14995cd95c9d99519d5b9960aa1b81600181518110610fd757610fd761315a565b33611d376117f7565b6001600160a01b031614611d5d5760405162461bcd60e51b81526004016102a6906130ad565b6001600160a01b038116611dc25760405162461bcd60e51b815260206004820152602660248201527f4f776e61626c653a206e6577206f776e657220697320746865207a65726f206160448201526564647265737360d01b60648201526084016102a6565b610dbb8161247c565b611dd3611eeb565b611ddc336123d4565b611df85760405162461bcd60e51b81526004016102a69061320e565b81611e0281610a1e565b611e1e5760405162461bcd60e51b81526004016102a690613076565b604051633edef4ed60e21b81527363da58e089498aDCb4458D32A0B52F2C42dF0Ce99063fb7bd3b49061112290879087908790600401613245565b604051630fc7008160e41b81526001600160a01b03821660048201526060907363da58e089498aDCb4458D32A0B52F2C42dF0Ce99063fc7008109060240160006040518083038186803b158015611eaf57600080fd5b505af4158015611ec3573d6000803e3d6000fd5b505050506040513d6000823e601f3d908101601f1916820160405261098b919081019061328b565b6000805160206133c38339815191525460ff1615610a1c5760405162461bcd60e51b815260206004820152601060248201526f14185d5cd8589b194e881c185d5cd95960821b60448201526064016102a6565b60008111611f5e5760405162461bcd60e51b81526004016102a690613331565b611f66612939565b60405163862fd6e560e01b81526001600160a01b038581166004830152919091169063862fd6e59060240160206040518083038186803b158015611fa957600080fd5b505afa158015611fbd573d6000803e3d6000fd5b505050506040513d601f19601f82011682018060405250810190611fe1919061313d565b156120275760405162461bcd60e51b8152602060048201526016602482015275149959195b5c1d1a5bdb881a5cc81c995c5d5a5c995960521b60448201526064016102a6565b61202f612939565b604051639519832b60e01b8152600481018490526001600160a01b0385811660248301529190911690639519832b90604401602060405180830381600087803b15801561207b57600080fd5b505af115801561208f573d6000803e3d6000fd5b505050506040513d601f19601f820116820180604052508101906120b3919061305d565b5060405163148b8b9d60e11b81526000907363da58e089498aDCb4458D32A0B52F2C42dF0Ce990632917173a906120f290879087908790600401613245565b60206040518083038186803b15801561210a57600080fd5b505af415801561211e573d6000803e3d6000fd5b505050506040513d601f19601f82011682018060405250810190612142919061305d565b60408051858152602081018390529192506001600160a01b038616917fc3ded2be7db21b1af963f267d27750e4a15f174547d88b886b9bda43e2c6fa32910160405180910390a250505050565b612197612943565b6000805160206133c3833981519152805460ff191690557f5db9ee0a495bf2e6ff9c91a7834c1ba4fdd244a5e8aa4e537bd38aeae4b073aa335b6040516001600160a01b03909116815260200160405180910390a1565b6000811161220e5760405162461bcd60e51b81526004016102a690613331565b612216610831565b60008381526000805160206133e383398151915260205260409020546001600160a01b03908116911614158061224b57503481145b6122675760405162461bcd60e51b81526004016102a690613331565b61226f612939565b6001600160a01b031663d1cc99766040518163ffffffff1660e01b815260040160206040518083038186803b1580156122a757600080fd5b505afa1580156122bb573d6000803e3d6000fd5b505050506040513d601f19601f820116820180604052508101906122df919061313d565b156123205760405162461bcd60e51b815260206004820152601160248201527013585c9ad95d081d195c9b5a5b985d1959607a1b60448201526064016102a6565b604051631d64487f60e31b81527363da58e089498aDCb4458D32A0B52F2C42dF0Ce99063eb2243f89061235b90869086908690600401613245565b60006040518083038186803b15801561237357600080fd5b505af4158015612387573d6000803e3d6000fd5b505060408051858152602081018590526001600160a01b03871693507f19dacbf83c5de6658e14cbf7bcae5c15eca2eedecf1c66fbca928e4d351bea0f92500160405180910390a2505050565b6000806123df611cb2565b905060005b81518110156124445761240f8282815181106124025761240261315a565b6020026020010151612999565b6001600160a01b0316846001600160a01b03161415612432575060019392505050565b8061243c816131f3565b9150506123e4565b5060009392505050565b6000611cad6129a4565b600061098883836129c4565b60008181526001830160205260408120541515610988565b7f9acda75aebd150dd434541a4747a6dc606f4f1a59662477e67daf1fc0bf9e0aa80546001600160a01b038381166001600160a01b0319831681179093556040519116919082907f8be0079c531659141344cd1fd0a4f28419497f9722a3daafe3b4186f6b6457e090600090a35050565b600083116125485760405162461bcd60e51b815260206004820152602260248201527f496e76616c6964206c69717569646174696f6e207468726573686f6c64207261604482015261746560f01b60648201526084016102a6565b6127108211156125a85760405162461bcd60e51b815260206004820152602560248201527f496e76616c6964206c69717569646174696f6e2070726f746f636f6c20666565604482015264207261746560d81b60648201526084016102a6565b6127108111156125fa5760405162461bcd60e51b815260206004820152601b60248201527f496e76616c6964206c697175696461746f72206665652072617465000000000060448201526064016102a6565b60008051602061338383398151915254831461266a577fd3353684d64f1c80498433d8407c96e6bbeb1ec88b6200ec97d2c910fdbd0da46000805160206133838339815191525460408051918252602082018690520160405180910390a182600080516020613383833981519152555b7f1aaabb4945989eb9ee8150fddc35fcfc125664a7b898aa2de5931bb12484d053548214612702577f651b17c8e9402610e6210cfaa5b252d2186f8a16adf58c9c0fd5793bc4ea9b1f6000805160206133838339815191526001015460408051918252602082018590520160405180910390a17f1aaabb4945989eb9ee8150fddc35fcfc125664a7b898aa2de5931bb12484d0538290555b7f1aaabb4945989eb9ee8150fddc35fcfc125664a7b898aa2de5931bb12484d0545481146109ca577f1aaabb4945989eb9ee8150fddc35fcfc125664a7b898aa2de5931bb12484d05481905560408051828152602081018390527f7e8f030f9238551b066874b952f0c6ba811ba426ab231ba4825421d5d8f5cd959101611569565b60006109888383612a13565b612798611eeb565b6000805160206133c3833981519152805460ff191660011790557f62e78cea01bee320cd4e420270b5ea74000d11b0c9f74754ebdbfc544b05a258336121d1565b60007f360894a13ba1a3210667c828492db98dca3e2076cc3735a920a3ca505d382bbc610855565b6000805160206133a3833981519152546001600160a01b0316156128675760405162461bcd60e51b815260206004820152601b60248201527f5265736f6c766572207265676973746572656420616c7265616479000000000060448201526064016102a6565b806000805160206133a38339815191525b80546001600160a01b0319166001600160a01b039290921691909117905550565b7f3a2b81b27c095d6e2aecbb7be5d317f24d3f11a9eb2b6e2d16957fe4c0b4ddf3546001600160a01b0316156129075760405162461bcd60e51b8152602060048201526013602482015272105b1c9958591e481a5b9a5d1a585b1a5e9959606a1b60448201526064016102a6565b807f3a2b81b27c095d6e2aecbb7be5d317f24d3f11a9eb2b6e2d16957fe4c0b4ddf3612878565b606061098b82612b06565b6000611cad612b62565b6000805160206133c38339815191525460ff16610a1c5760405162461bcd60e51b815260206004820152601460248201527314185d5cd8589b194e881b9bdd081c185d5cd95960621b60448201526064016102a6565b600061098b82612b83565b6000611cad7121bab93932b731bca1b7b73a3937b63632b960711b612b83565b6000818152600183016020526040812054612a0b5750815460018181018455600084815260208082209093018490558454848252828601909352604090209190915561098b565b50600061098b565b60008181526001830160205260408120548015612afc576000612a37600183613126565b8554909150600090612a4b90600190613126565b9050818114612ab0576000866000018281548110612a6b57612a6b61315a565b9060005260206000200154905080876000018481548110612a8e57612a8e61315a565b6000918252602080832090910192909255918252600188019052604090208390555b8554869080612ac157612ac1613359565b60019003818190600052602060002001600090559055856001016000868152602001908152602001600020600090556001935050505061098b565b600091505061098b565b606081600001805480602002602001604051908101604052809291908181526020018280548015612b5657602002820191906000526020600020905b815481526020019060010190808311612b42575b50505050509050919050565b6000611cad762632b73234b733a6b0b935b2ba21b7b73a3937b63632b960491b5b60008181527f4abde63c3e81aefa5764b017968bc473e83e093d7e1a10247d19e0a3e41240196020908152604080832054815170026b4b9b9b4b7339030b2323932b9b99d1607d1b9381019390935260318084018690528251808503909101815260519093019091526001600160a01b0316908161108d5760405162461bcd60e51b81526004016102a6919061336f565b600060208284031215612c2657600080fd5b5035919050565b6001600160a01b0381168114610dbb57600080fd5b60008060408385031215612c5557600080fd5b8235612c6081612c2d565b946020939093013593505050565b60008060408385031215612c8157600080fd5b50508035926020909101359150565b600060208284031215612ca257600080fd5b8135612cad81612c2d565b9392505050565b60008060408385031215612cc757600080fd5b823591506020830135612cd981612c2d565b809150509250929050565b6020808252825182820181905260009190848201906040850190845b81811015612d1c57835183529284019291840191600101612d00565b50909695505050505050565b60008060208385031215612d3b57600080fd5b823567ffffffffffffffff80821115612d5357600080fd5b818501915085601f830112612d6757600080fd5b813581811115612d7657600080fd5b8660208260051b8501011115612d8b57600080fd5b60209290920196919550909350505050565b6020808252825182820181905260009190848201906040850190845b81811015612d1c578351151583529284019291840191600101612db9565b600080600060608486031215612dec57600080fd5b8335612df781612c2d565b95602085013595506040909401359392505050565b60008060008060808587031215612e2257600080fd5b843593506020850135612e3481612c2d565b92506040850135612e4481612c2d565b9396929550929360600135925050565b8015158114610dbb57600080fd5b600080600060608486031215612e7757600080fd5b833592506020840135612e8981612c2d565b91506040840135612e9981612e54565b809150509250925092565b600080600060608486031215612eb957600080fd5b505081359360208301359350604090920135919050565b60008060408385031215612ee357600080fd5b823591506020830135612cd981612e54565b634e487b7160e01b600052604160045260246000fd5b604051601f8201601f1916810167ffffffffffffffff81118282101715612f3457612f34612ef5565b604052919050565b60008082840360c0811215612f5057600080fd5b8335612f5b81612c2d565b925060a0601f1982011215612f6f57600080fd5b5060405160a0810181811067ffffffffffffffff82111715612f9357612f93612ef5565b80604052506020840135815260408401356020820152606084013560408201526080840135606082015260a08401356080820152809150509250929050565b60008060008060008060c08789031215612feb57600080fd5b8635612ff681612c2d565b9550602087013561300681612c2d565b945060408701359350606087013592506080870135915060a087013561302b81612c2d565b809150509295509295509295565b6000806040838503121561304c57600080fd5b505080516020909101519092909150565b60006020828403121561306f57600080fd5b5051919050565b60208082526017908201527f43757272656e6379206e6f742072656769737465726564000000000000000000604082015260600190565b6020808252818101527f4f776e61626c653a2063616c6c6572206973206e6f7420746865206f776e6572604082015260600190565b6000806000606084860312156130f757600080fd5b8351925060208401519150604084015190509250925092565b634e487b7160e01b600052601160045260246000fd5b60008282101561313857613138613110565b500390565b60006020828403121561314f57600080fd5b8151612cad81612e54565b634e487b7160e01b600052603260045260246000fd5b6000815180845260005b818110156131965760208185018101518683018201520161317a565b818111156131a8576000602083870101525b50601f01601f19169290920160200192915050565b828152604060208201526000610af76040830184613170565b6000602082840312156131e857600080fd5b8151612cad81612c2d565b600060001982141561320757613207613110565b5060010190565b60208082526017908201527f4f6e6c7920416363657074656420436f6e747261637473000000000000000000604082015260600190565b6001600160a01b039390931683526020830191909152604082015260600190565b6000806040838503121561327957600080fd5b825191506020830151612cd981612e54565b6000602080838503121561329e57600080fd5b825167ffffffffffffffff808211156132b657600080fd5b818501915085601f8301126132ca57600080fd5b8151818111156132dc576132dc612ef5565b8060051b91506132ed848301612f0b565b818152918301840191848101908884111561330757600080fd5b938501935b838510156133255784518252938501939085019061330c565b98975050505050505050565b6020808252600e908201526d125b9d985b1a5908185b5bdd5b9d60921b604082015260600190565b634e487b7160e01b600052603160045260246000fd5b602081526000610988602083018461317056fe1aaabb4945989eb9ee8150fddc35fcfc125664a7b898aa2de5931bb12484d0524abde63c3e81aefa5764b017968bc473e83e093d7e1a10247d19e0a3e41240189c789132bdb3678132848a8dcd780bffd2b1abdce3984c522ac1d8aeb48f05f353832330c92cb5d80f0e1ff6fdb9886f7fad39132543bafb7497316eae2a831953832330c92cb5d80f0e1ff6fdb9886f7fad39132543bafb7497316eae2a8317a2646970667358221220b8783d578fcf445fea5643b51b281cf60a23c1b932f546dcbce9e64e4f076b5864736f6c63430008090033",
  "deployedBytecode": "0x6080604052600436106102495760003560e01c80635c975abb1161013957806396994e37116100b6578063ca4230311161007a578063ca42303114610787578063d5e190d0146107a7578063e0997659146107bc578063f2fde38b146107d1578063fb7bd3b4146107f1578063fc7008101461081157600080fd5b806396994e37146106c75780639e0879c2146106da578063ab6ce427146106ef578063b12e441014610724578063b1a5d12d1461076757600080fd5b80637d044b43116100fd5780637d044b43146106325780637d44828e146106525780638da5cb5b146106725780638e19aff314610687578063948060dd146106a757600080fd5b80635c975abb146105a35780635d861505146105c85780635d95df8a146105dd578063715018a6146105fd5780637496d3fb1461061257600080fd5b806329985e5a116101c75780634c6aa99c1161018b5780634c6aa99c146104bc578063500d2f6d146105085780635257ed671461052857806354821c21146105635780635bffeb661461058357600080fd5b806329985e5a146104235780632af64bd3146104385780633d03b9da1461044d5780633f90a08e1461046f5780634ba0c9b51461049c57600080fd5b80630cf7505d1161020e5780630cf7505d146103805780630cfe33fa146103b05780630eadd244146103d05780631de26e16146103f057806325e1f09f1461040357600080fd5b8062fcf262146102b65780630253cd7e146102f0578063040cf0201461031e57806304f3bcec1461033e5780630b7562be1461036b57600080fd5b366102b157610256610831565b6001600160a01b0316336001600160a01b0316146102af5760405162461bcd60e51b81526020600482015260116024820152704e6f7420626173652063757272656e637960781b60448201526064015b60405180910390fd5b005b600080fd5b3480156102c257600080fd5b506102d66102d1366004612c14565b610864565b604080519283526020830191909152015b60405180910390f35b3480156102fc57600080fd5b5061031061030b366004612c42565b6108f2565b6040519081526020016102e7565b34801561032a57600080fd5b506102af610339366004612c6e565b610991565b34801561034a57600080fd5b506103536109cf565b6040516001600160a01b0390911681526020016102e7565b34801561037757600080fd5b506102af6109e5565b34801561038c57600080fd5b506103a061039b366004612c14565b610a1e565b60405190151581526020016102e7565b3480156103bc57600080fd5b506103106103cb366004612c90565b610a48565b3480156103dc57600080fd5b506103106103eb366004612cb4565b610aff565b6102af6103fe366004612c6e565b610b49565b34801561040f57600080fd5b506103a061041e366004612c90565b610b82565b34801561042f57600080fd5b506102af610c10565b34801561044457600080fd5b506103a0610dbe565b34801561045957600080fd5b50610462610f24565b6040516102e79190612ce4565b34801561047b57600080fd5b5061048f61048a366004612d28565b610fe6565b6040516102e79190612d9d565b3480156104a857600080fd5b506102af6104b7366004612dd7565b611094565b3480156104c857600080fd5b506103106104d7366004612c14565b60009081527f53832330c92cb5d80f0e1ff6fdb9886f7fad39132543bafb7497316eae2a831b602052604090205490565b34801561051457600080fd5b50610310610523366004612e0c565b611158565b34801561053457600080fd5b50610548610543366004612dd7565b6112a4565b604080519384526020840192909252908201526060016102e7565b34801561056f57600080fd5b5061031061057e366004612c90565b611343565b34801561058f57600080fd5b506102af61059e366004612e62565b6113da565b3480156105af57600080fd5b506000805160206133c38339815191525460ff166103a0565b3480156105d457600080fd5b50610548611576565b3480156105e957600080fd5b506103a06105f8366004612c14565b6115ec565b34801561060957600080fd5b506102af611606565b34801561061e57600080fd5b506102af61062d366004612ea4565b61163f565b34801561063e57600080fd5b5061031061064d366004612c42565b611679565b34801561065e57600080fd5b5061031061066d366004612c42565b611758565b34801561067e57600080fd5b506103536117f7565b34801561069357600080fd5b506102af6106a2366004612ed0565b61181f565b3480156106b357600080fd5b506103106106c2366004612c90565b6118e9565b6102af6106d5366004612dd7565b611978565b3480156106e657600080fd5b506102af6119b0565b3480156106fb57600080fd5b5061070f61070a366004612f3c565b6119e7565b604080519283529015156020830152016102e7565b34801561073057600080fd5b5061035361073f366004612c14565b60009081526000805160206133e383398151915260205260409020546001600160a01b031690565b34801561077357600080fd5b506102af610782366004612fd2565b611ab0565b34801561079357600080fd5b506103106107a2366004612c90565b611c51565b3480156107b357600080fd5b50610462611c94565b3480156107c857600080fd5b50610462611cb2565b3480156107dd57600080fd5b506102af6107ec366004612c90565b611d2e565b3480156107fd57600080fd5b506102af61080c366004612dd7565b611dcb565b34801561081d57600080fd5b5061046261082c366004612c90565b611e59565b60007f3a2b81b27c095d6e2aecbb7be5d317f24d3f11a9eb2b6e2d16957fe4c0b4ddf35b546001600160a01b0316919050565b604051627e793160e11b815260048101829052600090819073__$e77f6d4722b46e0b0a57517726dbfd997e$__9062fcf26290602401604080518083038186803b1580156108b157600080fd5b505af41580156108c5573d6000803e3d6000fd5b505050506040513d601f19601f820116820180604052508101906108e99190613039565b91509150915091565b604051630129e6bf60e11b81526001600160a01b03831660048201526024810182905260009073__$e77f6d4722b46e0b0a57517726dbfd997e$__90630253cd7e906044015b60206040518083038186803b15801561095057600080fd5b505af4158015610964573d6000803e3d6000fd5b505050506040513d601f19601f82011682018060405250810190610988919061305d565b90505b92915050565b610999611eeb565b816109a381610a1e565b6109bf5760405162461bcd60e51b81526004016102a690613076565b6109ca338484611f3e565b505050565b60006000805160206133a3833981519152610855565b336109ee6117f7565b6001600160a01b031614610a145760405162461bcd60e51b81526004016102a6906130ad565b610a1c61218f565b565b60009081526000805160206133e383398151915260205260409020546001600160a01b0316151590565b60405163654c629560e01b81526001600160a01b03821660048201526000908190819073__$e77f6d4722b46e0b0a57517726dbfd997e$__9063654c62959060240160606040518083038186803b158015610aa257600080fd5b505af4158015610ab6573d6000803e3d6000fd5b505050506040513d601f19601f82011682018060405250810190610ada91906130e2565b5091509150808211610aed576000610af7565b610af78183613126565b949350505050565b6040516303ab749160e21b8152600481018390526001600160a01b038216602482015260009073__$e77f6d4722b46e0b0a57517726dbfd997e$__90630eadd24490604401610938565b610b51611eeb565b81610b5b81610a1e565b610b775760405162461bcd60e51b81526004016102a690613076565b6109ca3384846121ee565b6040516325e1f09f60e01b81526001600160a01b038216600482015260009073__$e77f6d4722b46e0b0a57517726dbfd997e$__906325e1f09f9060240160206040518083038186803b158015610bd857600080fd5b505af4158015610bec573d6000803e3d6000fd5b505050506040513d601f19601f8201168201806040525081019061098b919061313d565b6000610c1a610f24565b905060005b8151811015610db9576000828281518110610c3c57610c3c61315a565b602002602001015190506000610c5d6000805160206133a383398151915290565b54604080517f5265736f6c766572206d697373696e67207461726765743a200000000000000060208201526039808201869052825180830390910181526059820192839052636795dbcd60e01b9092526001600160a01b0390921691636795dbcd91610cce91869190605d016131bd565b60206040518083038186803b158015610ce657600080fd5b505afa158015610cfa573d6000803e3d6000fd5b505050506040513d601f19601f82011682018060405250810190610d1e91906131d6565b60008381527f4abde63c3e81aefa5764b017968bc473e83e093d7e1a10247d19e0a3e4124019602090815260409182902080546001600160a01b0319166001600160a01b03851690811790915582518681529182015281519293507f88a93678a3692f6789d9546fc621bf7234b101ddb7d4fe479455112831b8aa68929081900390910190a150508080610db1906131f3565b915050610c1f565b505b50565b600080610dc9610f24565b905060005b8151811015610f1b576000828281518110610deb57610deb61315a565b60200260200101519050610e0a6000805160206133a383398151915290565b600082815260019190910160205260409020546001600160a01b03166000805160206133a3833981519152546040516321f8a72160e01b8152600481018490526001600160a01b03909116906321f8a7219060240160206040518083038186803b158015610e7757600080fd5b505afa158015610e8b573d6000803e3d6000fd5b505050506040513d601f19601f82011682018060405250810190610eaf91906131d6565b6001600160a01b0316141580610ef9575060008181527f4abde63c3e81aefa5764b017968bc473e83e093d7e1a10247d19e0a3e412401960205260409020546001600160a01b0316155b15610f08576000935050505090565b5080610f13816131f3565b915050610dce565b50600191505090565b604080516003808252608082019092526060916020820183803683370190505090507121bab93932b731bca1b7b73a3937b63632b960711b81600081518110610f6f57610f6f61315a565b602002602001018181525050762632b73234b733a6b0b935b2ba21b7b73a3937b63632b960491b81600181518110610fa957610fa961315a565b6020026020010181815250506a14995cd95c9d99519d5b9960aa1b81600281518110610fd757610fd761315a565b60200260200101818152505090565b60608167ffffffffffffffff81111561100157611001612ef5565b60405190808252806020026020018201604052801561102a578160200160208202803683370190505b50905060005b8281101561108d5761105984848381811061104d5761104d61315a565b905060200201356115ec565b82828151811061106b5761106b61315a565b9115156020928302919091019091015280611085816131f3565b915050611030565b5092915050565b61109c611eeb565b6110a5336123d4565b6110c15760405162461bcd60e51b81526004016102a69061320e565b816110cb81610a1e565b6110e75760405162461bcd60e51b81526004016102a690613076565b604051634ba0c9b560e01b815273__$e77f6d4722b46e0b0a57517726dbfd997e$__90634ba0c9b59061112290879087908790600401613245565b60006040518083038186803b15801561113a57600080fd5b505af415801561114e573d6000803e3d6000fd5b5050505050505050565b6000611162611eeb565b61116b336123d4565b6111875760405162461bcd60e51b81526004016102a69061320e565b8461119181610a1e565b6111ad5760405162461bcd60e51b81526004016102a690613076565b60405163500d2f6d60e01b8152600481018790526001600160a01b038087166024830152851660448201526064810184905273__$e77f6d4722b46e0b0a57517726dbfd997e$__9063500d2f6d9060840160206040518083038186803b15801561121657600080fd5b505af415801561122a573d6000803e3d6000fd5b505050506040513d601f19601f8201168201806040525081019061124e919061305d565b91506001600160a01b03808516908616877ff8ca259b4b82670be7501ff56ad1fc9c7cd199d3431e3c502f2c5f86884bc15061128a8688613126565b60405190815260200160405180910390a450949350505050565b600080600073__$e77f6d4722b46e0b0a57517726dbfd997e$__635257ed678787876040518463ffffffff1660e01b81526004016112e493929190613245565b60606040518083038186803b1580156112fc57600080fd5b505af4158015611310573d6000803e3d6000fd5b505050506040513d601f19601f8201168201806040525081019061133491906130e2565b92509250925093509350939050565b60405163654c629560e01b81526001600160a01b038216600482015260009073__$e77f6d4722b46e0b0a57517726dbfd997e$__9063654c62959060240160606040518083038186803b15801561139957600080fd5b505af41580156113ad573d6000803e3d6000fd5b505050506040513d601f19601f820116820180604052508101906113d191906130e2565b50909392505050565b336113e36117f7565b6001600160a01b0316146114095760405162461bcd60e51b81526004016102a6906130ad565b61141161244e565b6001600160a01b0316631eae0893846040518263ffffffff1660e01b815260040161143e91815260200190565b60206040518083038186803b15801561145657600080fd5b505afa15801561146a573d6000803e3d6000fd5b505050506040513d601f19601f8201168201806040525081019061148e919061313d565b6114cd5760405162461bcd60e51b815260206004820152601060248201526f496e76616c69642063757272656e637960801b60448201526064016102a6565b60008381526000805160206133e38339815191526020526040902080546001600160a01b0319166001600160a01b038416179055801561152357611521836000805160206134038339815191525b90612458565b505b604080518481526001600160a01b0384166020820152821515918101919091527ff776c30df345d55df252bb5181a0c2bb23d601166606790a6f1b938d7e158503906060015b60405180910390a1505050565b60008060006115916000805160206133838339815191525490565b92506115bb7f1aaabb4945989eb9ee8150fddc35fcfc125664a7b898aa2de5931bb12484d0535490565b91506115e57f1aaabb4945989eb9ee8150fddc35fcfc125664a7b898aa2de5931bb12484d0545490565b9050909192565b600061098b60008051602061340383398151915283612464565b3361160f6117f7565b6001600160a01b0316146116355760405162461bcd60e51b81526004016102a6906130ad565b610a1c600061247c565b336116486117f7565b6001600160a01b03161461166e5760405162461bcd60e51b81526004016102a6906130ad565b6109ca8383836124ed565b6000611684336123d4565b6116a05760405162461bcd60e51b81526004016102a69061320e565b816116aa81610a1e565b6116c65760405162461bcd60e51b81526004016102a690613076565b604051637d044b4360e01b81526001600160a01b03851660048201526024810184905273__$e77f6d4722b46e0b0a57517726dbfd997e$__90637d044b439060440160206040518083038186803b15801561172057600080fd5b505af4158015611734573d6000803e3d6000fd5b505050506040513d601f19601f82011682018060405250810190610af7919061305d565b604051633ea2414760e11b81526001600160a01b03831660048201526024810182905260009073__$e77f6d4722b46e0b0a57517726dbfd997e$__90637d44828e9060440160606040518083038186803b1580156117b557600080fd5b505af41580156117c9573d6000803e3d6000fd5b505050506040513d601f19601f820116820180604052508101906117ed91906130e2565b5090949350505050565b60007f9acda75aebd150dd434541a4747a6dc606f4f1a59662477e67daf1fc0bf9e0aa610855565b336118286117f7565b6001600160a01b03161461184e5760405162461bcd60e51b81526004016102a6906130ad565b8161185881610a1e565b6118745760405162461bcd60e51b81526004016102a690613076565b8115611898576118928360008051602061340383398151915261151b565b506118b2565b6118b060008051602061340383398151915284612784565b505b6040805184815283151560208201527f97caf2b3b2f0aa460ca08b20c07f7a43ccf688e2f3b7179f2cf9113fb892bf819101611569565b60405163948060dd60e01b81526001600160a01b038216600482015260009073__$e77f6d4722b46e0b0a57517726dbfd997e$__9063948060dd906024015b60206040518083038186803b15801561194057600080fd5b505af4158015611954573d6000803e3d6000fd5b505050506040513d601f19601f8201168201806040525081019061098b919061305d565b611980611eeb565b611989336123d4565b6119a55760405162461bcd60e51b81526004016102a69061320e565b6109ca8383836121ee565b336119b96117f7565b6001600160a01b0316146119df5760405162461bcd60e51b81526004016102a6906130ad565b610a1c612790565b60408051632910ae9d60e01b81526001600160a01b0384166004820152825160248201526020830151604482015290820151606482015260608201516084820152608082015160a4820152600090819073__$e77f6d4722b46e0b0a57517726dbfd997e$__90632910ae9d9060c401604080518083038186803b158015611a6d57600080fd5b505af4158015611a81573d6000803e3d6000fd5b505050506040513d601f19601f82011682018060405250810190611aa59190613266565b915091509250929050565b600054610100900460ff1615808015611ad05750600054600160ff909116105b80611aea5750303b158015611aea575060005460ff166001145b611b4d5760405162461bcd60e51b815260206004820152602e60248201527f496e697469616c697a61626c653a20636f6e747261637420697320616c72656160448201526d191e481a5b9a5d1a585b1a5e995960921b60648201526084016102a6565b6000805460ff191660011790558015611b70576000805461ff0019166101001790555b6000611b7a6127d9565b6001600160a01b03161415611bdc5760405162461bcd60e51b815260206004820152602260248201527f4d7573742062652063616c6c65642066726f6d2070726f787920636f6e74726160448201526118dd60f21b60648201526084016102a6565b611be58761247c565b611bee86612801565b611bf782612899565b611c028585856124ed565b8015611c48576000805461ff0019169055604051600181527f7f26b83ff96e1f2b6a682f133852f6798a09c465da95921460cefb38474024989060200160405180910390a15b50505050505050565b60405163ca42303160e01b81526001600160a01b038216600482015260009073__$e77f6d4722b46e0b0a57517726dbfd997e$__9063ca42303190602401611928565b6060611cad60008051602061340383398151915261292e565b905090565b6040805160028082526060808301845292602083019080368337019050509050762632b73234b733a6b0b935b2ba21b7b73a3937b63632b960491b81600081518110611d0057611d0061315a565b6020026020010181815250506a14995cd95c9d99519d5b9960aa1b81600181518110610fd757610fd761315a565b33611d376117f7565b6001600160a01b031614611d5d5760405162461bcd60e51b81526004016102a6906130ad565b6001600160a01b038116611dc25760405162461bcd60e51b815260206004820152602660248201527f4f776e61626c653a206e6577206f776e657220697320746865207a65726f206160448201526564647265737360d01b60648201526084016102a6565b610dbb8161247c565b611dd3611eeb565b611ddc336123d4565b611df85760405162461bcd60e51b81526004016102a69061320e565b81611e0281610a1e565b611e1e5760405162461bcd60e51b81526004016102a690613076565b604051633edef4ed60e21b815273__$e77f6d4722b46e0b0a57517726dbfd997e$__9063fb7bd3b49061112290879087908790600401613245565b604051630fc7008160e41b81526001600160a01b038216600482015260609073__$e77f6d4722b46e0b0a57517726dbfd997e$__9063fc7008109060240160006040518083038186803b158015611eaf57600080fd5b505af4158015611ec3573d6000803e3d6000fd5b505050506040513d6000823e601f3d908101601f1916820160405261098b919081019061328b565b6000805160206133c38339815191525460ff1615610a1c5760405162461bcd60e51b815260206004820152601060248201526f14185d5cd8589b194e881c185d5cd95960821b60448201526064016102a6565b60008111611f5e5760405162461bcd60e51b81526004016102a690613331565b611f66612939565b60405163862fd6e560e01b81526001600160a01b038581166004830152919091169063862fd6e59060240160206040518083038186803b158015611fa957600080fd5b505afa158015611fbd573d6000803e3d6000fd5b505050506040513d601f19601f82011682018060405250810190611fe1919061313d565b156120275760405162461bcd60e51b8152602060048201526016602482015275149959195b5c1d1a5bdb881a5cc81c995c5d5a5c995960521b60448201526064016102a6565b61202f612939565b604051639519832b60e01b8152600481018490526001600160a01b0385811660248301529190911690639519832b90604401602060405180830381600087803b15801561207b57600080fd5b505af115801561208f573d6000803e3d6000fd5b505050506040513d601f19601f820116820180604052508101906120b3919061305d565b5060405163148b8b9d60e11b815260009073__$e77f6d4722b46e0b0a57517726dbfd997e$__90632917173a906120f290879087908790600401613245565b60206040518083038186803b15801561210a57600080fd5b505af415801561211e573d6000803e3d6000fd5b505050506040513d601f19601f82011682018060405250810190612142919061305d565b60408051858152602081018390529192506001600160a01b038616917fc3ded2be7db21b1af963f267d27750e4a15f174547d88b886b9bda43e2c6fa32910160405180910390a250505050565b612197612943565b6000805160206133c3833981519152805460ff191690557f5db9ee0a495bf2e6ff9c91a7834c1ba4fdd244a5e8aa4e537bd38aeae4b073aa335b6040516001600160a01b03909116815260200160405180910390a1565b6000811161220e5760405162461bcd60e51b81526004016102a690613331565b612216610831565b60008381526000805160206133e383398151915260205260409020546001600160a01b03908116911614158061224b57503481145b6122675760405162461bcd60e51b81526004016102a690613331565b61226f612939565b6001600160a01b031663d1cc99766040518163ffffffff1660e01b815260040160206040518083038186803b1580156122a757600080fd5b505afa1580156122bb573d6000803e3d6000fd5b505050506040513d601f19601f820116820180604052508101906122df919061313d565b156123205760405162461bcd60e51b815260206004820152601160248201527013585c9ad95d081d195c9b5a5b985d1959607a1b60448201526064016102a6565b604051631d64487f60e31b815273__$e77f6d4722b46e0b0a57517726dbfd997e$__9063eb2243f89061235b90869086908690600401613245565b60006040518083038186803b15801561237357600080fd5b505af4158015612387573d6000803e3d6000fd5b505060408051858152602081018590526001600160a01b03871693507f19dacbf83c5de6658e14cbf7bcae5c15eca2eedecf1c66fbca928e4d351bea0f92500160405180910390a2505050565b6000806123df611cb2565b905060005b81518110156124445761240f8282815181106124025761240261315a565b6020026020010151612999565b6001600160a01b0316846001600160a01b03161415612432575060019392505050565b8061243c816131f3565b9150506123e4565b5060009392505050565b6000611cad6129a4565b600061098883836129c4565b60008181526001830160205260408120541515610988565b7f9acda75aebd150dd434541a4747a6dc606f4f1a59662477e67daf1fc0bf9e0aa80546001600160a01b038381166001600160a01b0319831681179093556040519116919082907f8be0079c531659141344cd1fd0a4f28419497f9722a3daafe3b4186f6b6457e090600090a35050565b600083116125485760405162461bcd60e51b815260206004820152602260248201527f496e76616c6964206c69717569646174696f6e207468726573686f6c64207261604482015261746560f01b60648201526084016102a6565b6127108211156125a85760405162461bcd60e51b815260206004820152602560248201527f496e76616c6964206c69717569646174696f6e2070726f746f636f6c20666565604482015264207261746560d81b60648201526084016102a6565b6127108111156125fa5760405162461bcd60e51b815260206004820152601b60248201527f496e76616c6964206c697175696461746f72206665652072617465000000000060448201526064016102a6565b60008051602061338383398151915254831461266a577fd3353684d64f1c80498433d8407c96e6bbeb1ec88b6200ec97d2c910fdbd0da46000805160206133838339815191525460408051918252602082018690520160405180910390a182600080516020613383833981519152555b7f1aaabb4945989eb9ee8150fddc35fcfc125664a7b898aa2de5931bb12484d053548214612702577f651b17c8e9402610e6210cfaa5b252d2186f8a16adf58c9c0fd5793bc4ea9b1f6000805160206133838339815191526001015460408051918252602082018590520160405180910390a17f1aaabb4945989eb9ee8150fddc35fcfc125664a7b898aa2de5931bb12484d0538290555b7f1aaabb4945989eb9ee8150fddc35fcfc125664a7b898aa2de5931bb12484d0545481146109ca577f1aaabb4945989eb9ee8150fddc35fcfc125664a7b898aa2de5931bb12484d05481905560408051828152602081018390527f7e8f030f9238551b066874b952f0c6ba811ba426ab231ba4825421d5d8f5cd959101611569565b60006109888383612a13565b612798611eeb565b6000805160206133c3833981519152805460ff191660011790557f62e78cea01bee320cd4e420270b5ea74000d11b0c9f74754ebdbfc544b05a258336121d1565b60007f360894a13ba1a3210667c828492db98dca3e2076cc3735a920a3ca505d382bbc610855565b6000805160206133a3833981519152546001600160a01b0316156128675760405162461bcd60e51b815260206004820152601b60248201527f5265736f6c766572207265676973746572656420616c7265616479000000000060448201526064016102a6565b806000805160206133a38339815191525b80546001600160a01b0319166001600160a01b039290921691909117905550565b7f3a2b81b27c095d6e2aecbb7be5d317f24d3f11a9eb2b6e2d16957fe4c0b4ddf3546001600160a01b0316156129075760405162461bcd60e51b8152602060048201526013602482015272105b1c9958591e481a5b9a5d1a585b1a5e9959606a1b60448201526064016102a6565b807f3a2b81b27c095d6e2aecbb7be5d317f24d3f11a9eb2b6e2d16957fe4c0b4ddf3612878565b606061098b82612b06565b6000611cad612b62565b6000805160206133c38339815191525460ff16610a1c5760405162461bcd60e51b815260206004820152601460248201527314185d5cd8589b194e881b9bdd081c185d5cd95960621b60448201526064016102a6565b600061098b82612b83565b6000611cad7121bab93932b731bca1b7b73a3937b63632b960711b612b83565b6000818152600183016020526040812054612a0b5750815460018181018455600084815260208082209093018490558454848252828601909352604090209190915561098b565b50600061098b565b60008181526001830160205260408120548015612afc576000612a37600183613126565b8554909150600090612a4b90600190613126565b9050818114612ab0576000866000018281548110612a6b57612a6b61315a565b9060005260206000200154905080876000018481548110612a8e57612a8e61315a565b6000918252602080832090910192909255918252600188019052604090208390555b8554869080612ac157612ac1613359565b60019003818190600052602060002001600090559055856001016000868152602001908152602001600020600090556001935050505061098b565b600091505061098b565b606081600001805480602002602001604051908101604052809291908181526020018280548015612b5657602002820191906000526020600020905b815481526020019060010190808311612b42575b50505050509050919050565b6000611cad762632b73234b733a6b0b935b2ba21b7b73a3937b63632b960491b5b60008181527f4abde63c3e81aefa5764b017968bc473e83e093d7e1a10247d19e0a3e41240196020908152604080832054815170026b4b9b9b4b7339030b2323932b9b99d1607d1b9381019390935260318084018690528251808503909101815260519093019091526001600160a01b0316908161108d5760405162461bcd60e51b81526004016102a6919061336f565b600060208284031215612c2657600080fd5b5035919050565b6001600160a01b0381168114610dbb57600080fd5b60008060408385031215612c5557600080fd5b8235612c6081612c2d565b946020939093013593505050565b60008060408385031215612c8157600080fd5b50508035926020909101359150565b600060208284031215612ca257600080fd5b8135612cad81612c2d565b9392505050565b60008060408385031215612cc757600080fd5b823591506020830135612cd981612c2d565b809150509250929050565b6020808252825182820181905260009190848201906040850190845b81811015612d1c57835183529284019291840191600101612d00565b50909695505050505050565b60008060208385031215612d3b57600080fd5b823567ffffffffffffffff80821115612d5357600080fd5b818501915085601f830112612d6757600080fd5b813581811115612d7657600080fd5b8660208260051b8501011115612d8b57600080fd5b60209290920196919550909350505050565b6020808252825182820181905260009190848201906040850190845b81811015612d1c578351151583529284019291840191600101612db9565b600080600060608486031215612dec57600080fd5b8335612df781612c2d565b95602085013595506040909401359392505050565b60008060008060808587031215612e2257600080fd5b843593506020850135612e3481612c2d565b92506040850135612e4481612c2d565b9396929550929360600135925050565b8015158114610dbb57600080fd5b600080600060608486031215612e7757600080fd5b833592506020840135612e8981612c2d565b91506040840135612e9981612e54565b809150509250925092565b600080600060608486031215612eb957600080fd5b505081359360208301359350604090920135919050565b60008060408385031215612ee357600080fd5b823591506020830135612cd981612e54565b634e487b7160e01b600052604160045260246000fd5b604051601f8201601f1916810167ffffffffffffffff81118282101715612f3457612f34612ef5565b604052919050565b60008082840360c0811215612f5057600080fd5b8335612f5b81612c2d565b925060a0601f1982011215612f6f57600080fd5b5060405160a0810181811067ffffffffffffffff82111715612f9357612f93612ef5565b80604052506020840135815260408401356020820152606084013560408201526080840135606082015260a08401356080820152809150509250929050565b60008060008060008060c08789031215612feb57600080fd5b8635612ff681612c2d565b9550602087013561300681612c2d565b945060408701359350606087013592506080870135915060a087013561302b81612c2d565b809150509295509295509295565b6000806040838503121561304c57600080fd5b505080516020909101519092909150565b60006020828403121561306f57600080fd5b5051919050565b60208082526017908201527f43757272656e6379206e6f742072656769737465726564000000000000000000604082015260600190565b6020808252818101527f4f776e61626c653a2063616c6c6572206973206e6f7420746865206f776e6572604082015260600190565b6000806000606084860312156130f757600080fd5b8351925060208401519150604084015190509250925092565b634e487b7160e01b600052601160045260246000fd5b60008282101561313857613138613110565b500390565b60006020828403121561314f57600080fd5b8151612cad81612e54565b634e487b7160e01b600052603260045260246000fd5b6000815180845260005b818110156131965760208185018101518683018201520161317a565b818111156131a8576000602083870101525b50601f01601f19169290920160200192915050565b828152604060208201526000610af76040830184613170565b6000602082840312156131e857600080fd5b8151612cad81612c2d565b600060001982141561320757613207613110565b5060010190565b60208082526017908201527f4f6e6c7920416363657074656420436f6e747261637473000000000000000000604082015260600190565b6001600160a01b039390931683526020830191909152604082015260600190565b6000806040838503121561327957600080fd5b825191506020830151612cd981612e54565b6000602080838503121561329e57600080fd5b825167ffffffffffffffff808211156132b657600080fd5b818501915085601f8301126132ca57600080fd5b8151818111156132dc576132dc612ef5565b8060051b91506132ed848301612f0b565b818152918301840191848101908884111561330757600080fd5b938501935b838510156133255784518252938501939085019061330c565b98975050505050505050565b6020808252600e908201526d125b9d985b1a5908185b5bdd5b9d60921b604082015260600190565b634e487b7160e01b600052603160045260246000fd5b602081526000610988602083018461317056fe1aaabb4945989eb9ee8150fddc35fcfc125664a7b898aa2de5931bb12484d0524abde63c3e81aefa5764b017968bc473e83e093d7e1a10247d19e0a3e41240189c789132bdb3678132848a8dcd780bffd2b1abdce3984c522ac1d8aeb48f05f353832330c92cb5d80f0e1ff6fdb9886f7fad39132543bafb7497316eae2a831953832330c92cb5d80f0e1ff6fdb9886f7fad39132543bafb7497316eae2a8317a2646970667358221220b8783d578fcf445fea5643b51b281cf60a23c1b932f546dcbce9e64e4f076b5864736f6c63430008090033",
  "libraries": {
    "DepositManagementLogic": "0x63da58e089498aDCb4458D32A0B52F2C42dF0Ce9"
  },
  "implementation": "0xb662757dF493424862C6aab456848572A74F0bd3",
  "devdoc": {
    "kind": "dev",
    "methods": {
      "acceptedContracts()": {
        "details": "The contact name listed in this method is also needed to be listed `requiredContracts` method."
      },
      "addDepositAmount(address,bytes32,uint256)": {
        "details": "Adds deposit amount.",
        "params": {
          "_amount": "Amount of funds to deposit",
          "_ccy": "Currency name in bytes32",
          "_user": "User's address"
        }
      },
      "calculateCoverage(address,(bytes32,uint256,uint256,uint256,uint256))": {
        "params": {
          "_additionalFunds": "Additional funds for calculating the coverage",
          "_user": "User's address"
        },
        "returns": {
          "coverage": "The rate of collateral used",
          "isInsufficientDepositAmount": "The boolean if the lent amount in the selected currency is insufficient for the deposit amount or not"
        }
      },
      "calculateLiquidationFees(uint256)": {
        "params": {
          "_amount": "Liquidation amount"
        },
        "returns": {
          "liquidatorFee": "Liquidation fee amount received by liquidators",
          "protocolFee": "Liquidation fee amount received by protocol"
        }
      },
      "deposit(bytes32,uint256)": {
        "details": "Deposits funds by the caller into collateral.",
        "params": {
          "_amount": "Amount of funds to deposit",
          "_ccy": "Currency name in bytes32"
        }
      },
      "depositFrom(address,bytes32,uint256)": {
        "details": "Deposits funds by the `from` into collateral.",
        "params": {
          "_amount": "Amount of funds to deposit",
          "_ccy": "Currency name in bytes32",
          "_from": "user's address"
        }
      },
      "executeForcedReset(address,bytes32)": {
        "params": {
          "_ccy": "Currency name in bytes32",
          "_user": "User's address"
        }
      },
      "getCollateralAmount(address,bytes32)": {
        "params": {
          "_ccy": "Currency name in bytes32",
          "_user": "User's address"
        },
        "returns": {
          "amount": "The collateral amount"
        }
      },
      "getCollateralCurrencies()": {
        "returns": {
          "_0": "Array of the currency accepted as collateral"
        }
      },
      "getCollateralParameters()": {
        "returns": {
          "liquidationProtocolFeeRate": "Liquidation fee rate received by protocol",
          "liquidationThresholdRate": "Auto liquidation threshold rate",
          "liquidatorFeeRate": "Liquidation fee rate received by liquidators"
        }
      },
      "getCoverage(address)": {
        "params": {
          "_user": "User's address"
        },
        "returns": {
          "coverage": "The rate of collateral used"
        }
      },
      "getDepositAmount(address,bytes32)": {
        "params": {
          "_ccy": "Currency name in bytes32",
          "_user": "User's address"
        },
        "returns": {
          "_0": "The deposited amount"
        }
      },
      "getLiquidationAmount(address,bytes32,uint256)": {
        "params": {
          "_user": "User's address"
        },
        "returns": {
          "liquidationAmount": "The the amount to be liquidated"
        }
      },
      "getTokenAddress(bytes32)": {
        "params": {
          "_ccy": "Currency name in bytes32"
        },
        "returns": {
          "_0": "The token contract address"
        }
      },
      "getTotalCollateralAmount(address)": {
        "params": {
          "_user": "User's address"
        },
        "returns": {
          "totalCollateralAmount": "The total collateral amount in ETH"
        }
      },
      "getTotalDepositAmount(bytes32)": {
        "params": {
          "_ccy": "Currency name in bytes32"
        },
        "returns": {
          "_0": "The total deposited amount"
        }
      },
      "getUnusedCollateral(address)": {
        "params": {
          "_user": "User's address"
        },
        "returns": {
          "_0": "The total amount of unused collateral"
        }
      },
      "getUsedCurrencies(address)": {
        "params": {
          "_user": "User's address"
        },
        "returns": {
          "_0": "The currency names in bytes32"
        }
      },
      "getWithdrawableCollateral(address)": {
        "params": {
          "_user": "User's address"
        },
        "returns": {
          "_0": "Maximum amount of ETH that can be withdrawn"
        }
      },
      "getWithdrawableCollateral(bytes32,address)": {
        "params": {
          "_ccy": "Currency name in bytes32",
          "_user": "User's address"
        },
        "returns": {
          "_0": "Maximum amount of the selected currency that can be withdrawn"
        }
      },
      "initialize(address,address,uint256,uint256,uint256,address)": {
        "details": "Function is invoked by the proxy contract when the contract is added to the ProxyController.",
        "params": {
          "_WETH9": "The address of the wrapped token to use as base currency",
          "_liquidationProtocolFeeRate": "The liquidation fee rate received by protocol",
          "_liquidationThresholdRate": "The liquidation threshold rate",
          "_liquidatorFeeRate": "The liquidation fee rate received by liquidators",
          "_owner": "The address of the contract owner",
          "_resolver": "The address of the Address Resolver contract"
        }
      },
      "isCollateral(bytes32)": {
        "params": {
          "_ccy": "Currency name in bytes32"
        },
        "returns": {
          "_0": "The boolean if the currency has been registered or not"
        }
      },
      "isCollateral(bytes32[])": {
        "params": {
          "_ccys": "Currency name list in bytes32"
        },
        "returns": {
          "isCollateralCurrencies": "Array of the boolean if the currency has been registered or not"
        }
      },
      "isCovered(address)": {
        "params": {
          "_user": "User's address"
        },
        "returns": {
          "_0": "The boolean if the collateral has sufficient coverage or not"
        }
      },
      "isRegisteredCurrency(bytes32)": {
        "params": {
          "_ccy": "Currency name in bytes32"
        },
        "returns": {
          "_0": "The boolean if the currency has been registered or not"
        }
      },
      "owner()": {
        "details": "Returns the address of the current owner."
      },
      "paused()": {
        "details": "Returns true if the contract is paused, and false otherwise."
      },
      "registerCurrency(bytes32,address,bool)": {
        "params": {
          "_ccy": "Currency name in bytes32",
          "_isCollateral": "Boolean if the selected currency is acceptable as collateral.",
          "_tokenAddress": "Token contract address of the selected currency"
        }
      },
      "removeDepositAmount(address,bytes32,uint256)": {
        "params": {
          "_amount": "Amount of funds to withdraw.",
          "_ccy": "Currency name in bytes32",
          "_user": "User's address"
        }
      },
      "renounceOwnership()": {
        "details": "Leaves the contract without owner. It will not be possible to call `onlyOwner` functions anymore. Can only be called by the current owner. NOTE: Renouncing ownership will leave the contract without an owner, thereby removing any functionality that is only available to the owner."
      },
      "requiredContracts()": {
        "details": "The contract name list is in `./libraries/Contracts.sol`."
      },
      "setCollateralParameters(uint256,uint256,uint256)": {
        "params": {
          "_liquidationProtocolFeeRate": "The liquidation fee rate received by protocol",
          "_liquidationThresholdRate": "The auto liquidation threshold rate",
          "_liquidatorFeeRate": "The liquidation fee rate received by liquidators"
        }
      },
      "transferFrom(bytes32,address,address,uint256)": {
        "params": {
          "_amount": "Amount of funds to sent",
          "_ccy": "Currency name in bytes32",
          "_from": "Sender's address",
          "_to": "Receiver's address"
        }
      },
      "transferOwnership(address)": {
        "details": "Transfers ownership of the contract to a new account (`newOwner`). Can only be called by the current owner."
      },
      "updateCurrency(bytes32,bool)": {
        "params": {
          "_ccy": "Currency name in bytes32",
          "_isCollateral": "Boolean if the selected currency is acceptable as collateral."
        }
      },
      "withdraw(bytes32,uint256)": {
        "params": {
          "_amount": "Amount of funds to withdraw.",
          "_ccy": "Currency name in bytes32"
        }
      }
    },
    "version": 1
  },
  "userdoc": {
    "kind": "user",
    "methods": {
      "acceptedContracts()": {
        "notice": "Returns contract names that can call this contract."
      },
      "calculateCoverage(address,(bytes32,uint256,uint256,uint256,uint256))": {
        "notice": "Calculates the collateral rate used when additional funds are had by the user."
      },
      "calculateLiquidationFees(uint256)": {
        "notice": "Gets the actual fee amounts calculated by rates."
      },
      "executeForcedReset(address,bytes32)": {
        "notice": "Forces a reset of the user's deposit amount."
      },
      "getCollateralAmount(address,bytes32)": {
        "notice": "Gets the total collateral amount of the selected currency."
      },
      "getCollateralCurrencies()": {
        "notice": "Gets the currencies accepted as collateral"
      },
      "getCollateralParameters()": {
        "notice": "Gets the collateral parameters"
      },
      "getCoverage(address)": {
        "notice": "Gets the rate of collateral used."
      },
      "getDepositAmount(address,bytes32)": {
        "notice": "Gets the amount deposited in the user's collateral."
      },
      "getLiquidationAmount(address,bytes32,uint256)": {
        "notice": "Gets the amount to be liquidated."
      },
      "getTokenAddress(bytes32)": {
        "notice": "Gets the token contract address"
      },
      "getTotalCollateralAmount(address)": {
        "notice": "Gets the total collateral amount."
      },
      "getTotalDepositAmount(bytes32)": {
        "notice": "Gets the total amount deposited of the selected currency"
      },
      "getUnusedCollateral(address)": {
        "notice": "Gets the total amount of the unused collateral"
      },
      "getUsedCurrencies(address)": {
        "notice": "Gets the currencies that the user used as collateral."
      },
      "getWithdrawableCollateral(address)": {
        "notice": "Gets the maximum amount of ETH that can be withdrawn from user collateral."
      },
      "getWithdrawableCollateral(bytes32,address)": {
        "notice": "Gets the maximum amount of the selected currency that can be withdrawn from user collateral."
      },
      "initialize(address,address,uint256,uint256,uint256,address)": {
        "notice": "Initializes the contract."
      },
      "isCollateral(bytes32)": {
        "notice": "Gets if the currency is acceptable as collateral"
      },
      "isCollateral(bytes32[])": {
        "notice": "Gets if the currencies are acceptable as collateral"
      },
      "isCovered(address)": {
        "notice": "Gets if the collateral has enough coverage."
      },
      "isRegisteredCurrency(bytes32)": {
        "notice": "Gets if the currency has been registered"
      },
      "pauseVault()": {
        "notice": "Pauses the token vault."
      },
      "registerCurrency(bytes32,address,bool)": {
        "notice": "Registers new currency and sets if it is acceptable as collateral."
      },
      "removeDepositAmount(address,bytes32,uint256)": {
        "notice": "Removes deposit amount."
      },
      "requiredContracts()": {
        "notice": "Returns the contract names used in this contract."
      },
      "setCollateralParameters(uint256,uint256,uint256)": {
        "notice": "Sets main collateral parameters this function solves the issue of frontrunning during parameters tuning.Triggers only be contract owner"
      },
      "transferFrom(bytes32,address,address,uint256)": {
        "notice": "Transfers the token from sender to receiver."
      },
      "unpauseVault()": {
        "notice": "Unpauses the token vault."
      },
      "updateCurrency(bytes32,bool)": {
        "notice": "Updates the currency if it is acceptable as collateral."
      },
      "withdraw(bytes32,uint256)": {
        "notice": "Withdraws funds by the caller from unused collateral."
      }
    },
    "notice": "Implements the management of the token in each currency for users. This contract manages the following data related to tokens. - Deposited token amount as the collateral - Parameters related to the collateral   - Margin Call Threshold Rate   - Auto Liquidation Threshold Rate   - Liquidation Price Rate   - Min Collateral Rate To address a currency as collateral, it must be registered using `registerCurrency` method in this contract.",
    "version": 1
  },
  "storageLayout": {
    "storage": [
      {
        "astId": 995,
        "contract": "contracts/protocol/TokenVault.sol:TokenVault",
        "label": "_initialized",
        "offset": 0,
        "slot": "0",
        "type": "t_uint8"
      },
      {
        "astId": 998,
        "contract": "contracts/protocol/TokenVault.sol:TokenVault",
        "label": "_initializing",
        "offset": 1,
        "slot": "0",
        "type": "t_bool"
      }
    ],
    "types": {
      "t_bool": {
        "encoding": "inplace",
        "label": "bool",
        "numberOfBytes": "1"
      },
      "t_uint8": {
        "encoding": "inplace",
        "label": "uint8",
        "numberOfBytes": "1"
      }
    }
  }
}