{
  "address": "0x66df9395d49F6B03b3E8980dD49C104e75753C2F",
  "abi": [
    {
      "anonymous": false,
      "inputs": [
        {
          "indexed": false,
          "internalType": "bytes32",
          "name": "name",
          "type": "bytes32"
        },
        {
          "indexed": false,
          "internalType": "address",
          "name": "destination",
          "type": "address"
        }
      ],
      "name": "CacheUpdated",
      "type": "event"
    },
    {
      "anonymous": false,
      "inputs": [
        {
          "indexed": true,
          "internalType": "address",
          "name": "user",
          "type": "address"
        },
        {
          "indexed": false,
          "internalType": "bytes32",
          "name": "ccy",
          "type": "bytes32"
        },
        {
          "indexed": false,
          "internalType": "uint256",
          "name": "amount",
          "type": "uint256"
        }
      ],
      "name": "Deposit",
      "type": "event"
    },
    {
      "anonymous": false,
      "inputs": [
        {
          "indexed": false,
          "internalType": "uint8",
          "name": "version",
          "type": "uint8"
        }
      ],
      "name": "Initialized",
      "type": "event"
    },
    {
      "anonymous": false,
      "inputs": [
        {
          "indexed": true,
          "internalType": "address",
          "name": "previousOwner",
          "type": "address"
        },
        {
          "indexed": true,
          "internalType": "address",
          "name": "newOwner",
          "type": "address"
        }
      ],
      "name": "OwnershipTransferred",
      "type": "event"
    },
    {
      "anonymous": false,
      "inputs": [
        {
          "indexed": false,
          "internalType": "bytes32",
          "name": "ccy",
          "type": "bytes32"
        },
        {
          "indexed": false,
          "internalType": "address",
          "name": "tokenAddress",
          "type": "address"
        },
        {
          "indexed": false,
          "internalType": "bool",
          "name": "isCollateral",
          "type": "bool"
        }
      ],
      "name": "RegisterCurrency",
      "type": "event"
    },
    {
      "anonymous": false,
      "inputs": [
        {
          "indexed": true,
          "internalType": "address",
          "name": "user",
          "type": "address"
        },
        {
          "indexed": false,
          "internalType": "bytes32",
          "name": "ccyIn",
          "type": "bytes32"
        },
        {
          "indexed": false,
          "internalType": "bytes32",
          "name": "ccyOut",
          "type": "bytes32"
        },
        {
          "indexed": false,
          "internalType": "uint256",
          "name": "amountIn",
          "type": "uint256"
        },
        {
          "indexed": false,
          "internalType": "uint256",
          "name": "amountOut",
          "type": "uint256"
        }
      ],
      "name": "Swap",
      "type": "event"
    },
    {
      "anonymous": false,
      "inputs": [
        {
          "indexed": false,
          "internalType": "bytes32",
          "name": "ccy",
          "type": "bytes32"
        },
        {
          "indexed": false,
          "internalType": "bool",
          "name": "isCollateral",
          "type": "bool"
        }
      ],
      "name": "UpdateCurrency",
      "type": "event"
    },
    {
      "anonymous": false,
      "inputs": [
        {
          "indexed": true,
          "internalType": "address",
          "name": "user",
          "type": "address"
        },
        {
          "indexed": false,
          "internalType": "bytes32",
          "name": "ccy",
          "type": "bytes32"
        },
        {
          "indexed": false,
          "internalType": "uint256",
          "name": "amount",
          "type": "uint256"
        }
      ],
      "name": "Withdraw",
      "type": "event"
    },
    {
      "inputs": [],
      "name": "acceptedContracts",
      "outputs": [
        {
          "internalType": "bytes32[]",
          "name": "contracts",
          "type": "bytes32[]"
        }
      ],
      "stateMutability": "pure",
      "type": "function"
    },
    {
      "inputs": [
        {
          "internalType": "address",
          "name": "_user",
          "type": "address"
        },
        {
          "internalType": "bytes32",
          "name": "_ccy",
          "type": "bytes32"
        },
        {
          "internalType": "uint256",
          "name": "_amount",
          "type": "uint256"
        }
      ],
      "name": "addDepositAmount",
      "outputs": [],
      "stateMutability": "nonpayable",
      "type": "function"
    },
    {
      "inputs": [],
      "name": "buildCache",
      "outputs": [],
      "stateMutability": "nonpayable",
      "type": "function"
    },
    {
      "inputs": [
        {
          "internalType": "bytes32",
          "name": "_ccy",
          "type": "bytes32"
        },
        {
          "internalType": "uint256",
          "name": "_amount",
          "type": "uint256"
        }
      ],
      "name": "deposit",
      "outputs": [],
      "stateMutability": "payable",
      "type": "function"
    },
    {
      "inputs": [
        {
          "internalType": "address",
          "name": "_from",
          "type": "address"
        },
        {
          "internalType": "bytes32",
          "name": "_ccy",
          "type": "bytes32"
        },
        {
          "internalType": "uint256",
          "name": "_amount",
          "type": "uint256"
        }
      ],
      "name": "depositFrom",
      "outputs": [],
      "stateMutability": "payable",
      "type": "function"
    },
    {
      "inputs": [],
      "name": "getCollateralCurrencies",
      "outputs": [
        {
          "internalType": "bytes32[]",
          "name": "",
          "type": "bytes32[]"
        }
      ],
      "stateMutability": "view",
      "type": "function"
    },
    {
      "inputs": [
        {
          "internalType": "address",
          "name": "_user",
          "type": "address"
        }
      ],
      "name": "getCoverage",
      "outputs": [
        {
          "internalType": "uint256",
          "name": "coverage",
          "type": "uint256"
        }
      ],
      "stateMutability": "view",
      "type": "function"
    },
    {
      "inputs": [
        {
          "internalType": "address",
          "name": "_user",
          "type": "address"
        },
        {
          "internalType": "bytes32",
          "name": "_ccy",
          "type": "bytes32"
        }
      ],
      "name": "getDepositAmount",
      "outputs": [
        {
          "internalType": "uint256",
          "name": "",
          "type": "uint256"
        }
      ],
      "stateMutability": "view",
      "type": "function"
    },
    {
      "inputs": [
        {
          "internalType": "address",
          "name": "_user",
          "type": "address"
        }
      ],
      "name": "getLiquidationAmount",
      "outputs": [
        {
          "internalType": "uint256",
          "name": "",
          "type": "uint256"
        }
      ],
      "stateMutability": "view",
      "type": "function"
    },
    {
      "inputs": [],
      "name": "getLiquidationThresholdRate",
      "outputs": [
        {
          "internalType": "uint256",
          "name": "liquidationThresholdRate",
          "type": "uint256"
        }
      ],
      "stateMutability": "view",
      "type": "function"
    },
    {
      "inputs": [
        {
          "internalType": "bytes32",
          "name": "_ccy",
          "type": "bytes32"
        }
      ],
      "name": "getTokenAddress",
      "outputs": [
        {
          "internalType": "address",
          "name": "",
          "type": "address"
        }
      ],
      "stateMutability": "view",
      "type": "function"
    },
    {
      "inputs": [
        {
          "internalType": "address",
          "name": "_user",
          "type": "address"
        }
      ],
      "name": "getTotalCollateralAmount",
      "outputs": [
        {
          "internalType": "uint256",
          "name": "totalCollateralAmount",
          "type": "uint256"
        }
      ],
      "stateMutability": "view",
      "type": "function"
    },
    {
      "inputs": [],
      "name": "getUniswapRouter",
      "outputs": [
        {
          "internalType": "address",
          "name": "uniswapRouter",
          "type": "address"
        }
      ],
      "stateMutability": "view",
      "type": "function"
    },
    {
      "inputs": [
        {
          "internalType": "address",
          "name": "_user",
          "type": "address"
        }
      ],
      "name": "getUnusedCollateral",
      "outputs": [
        {
          "internalType": "uint256",
          "name": "",
          "type": "uint256"
        }
      ],
      "stateMutability": "view",
      "type": "function"
    },
    {
      "inputs": [
        {
          "internalType": "address",
          "name": "_user",
          "type": "address"
        }
      ],
      "name": "getUsedCurrencies",
      "outputs": [
        {
          "internalType": "bytes32[]",
          "name": "",
          "type": "bytes32[]"
        }
      ],
      "stateMutability": "view",
      "type": "function"
    },
    {
      "inputs": [
        {
          "internalType": "address",
          "name": "_user",
          "type": "address"
        }
      ],
      "name": "getWithdrawableCollateral",
      "outputs": [
        {
          "internalType": "uint256",
          "name": "",
          "type": "uint256"
        }
      ],
      "stateMutability": "view",
      "type": "function"
    },
    {
      "inputs": [
        {
          "internalType": "address",
          "name": "_owner",
          "type": "address"
        },
        {
          "internalType": "address",
          "name": "_resolver",
          "type": "address"
        },
        {
          "internalType": "uint256",
          "name": "_liquidationThresholdRate",
          "type": "uint256"
        },
        {
          "internalType": "address",
          "name": "_uniswapRouter",
          "type": "address"
        },
        {
          "internalType": "address",
          "name": "_WETH9",
          "type": "address"
        }
      ],
      "name": "initialize",
      "outputs": [],
      "stateMutability": "nonpayable",
      "type": "function"
    },
    {
      "inputs": [
        {
          "internalType": "bytes32[]",
          "name": "_ccys",
          "type": "bytes32[]"
        }
      ],
      "name": "isCollateral",
      "outputs": [
        {
          "internalType": "bool[]",
          "name": "isCollateralCurrencies",
          "type": "bool[]"
        }
      ],
      "stateMutability": "view",
      "type": "function"
    },
    {
      "inputs": [
        {
          "internalType": "bytes32",
          "name": "_ccy",
          "type": "bytes32"
        }
      ],
      "name": "isCollateral",
      "outputs": [
        {
          "internalType": "bool",
          "name": "",
          "type": "bool"
        }
      ],
      "stateMutability": "view",
      "type": "function"
    },
    {
      "inputs": [
        {
          "internalType": "address",
          "name": "_user",
          "type": "address"
        }
      ],
      "name": "isCovered",
      "outputs": [
        {
          "internalType": "bool",
          "name": "",
          "type": "bool"
        }
      ],
      "stateMutability": "view",
      "type": "function"
    },
    {
      "inputs": [
        {
          "internalType": "address",
          "name": "_user",
          "type": "address"
        },
        {
          "internalType": "bytes32",
          "name": "_unsettledOrderCcy",
          "type": "bytes32"
        },
        {
          "internalType": "uint256",
          "name": "_unsettledOrderAmount",
          "type": "uint256"
        },
        {
          "internalType": "enum ProtocolTypes.Side",
          "name": "_unsettledOrderSide",
          "type": "uint8"
        }
      ],
      "name": "isCovered",
      "outputs": [
        {
          "internalType": "bool",
          "name": "",
          "type": "bool"
        }
      ],
      "stateMutability": "view",
      "type": "function"
    },
    {
      "inputs": [
        {
          "internalType": "bytes32",
          "name": "_ccy",
          "type": "bytes32"
        }
      ],
      "name": "isRegisteredCurrency",
      "outputs": [
        {
          "internalType": "bool",
          "name": "",
          "type": "bool"
        }
      ],
      "stateMutability": "view",
      "type": "function"
    },
    {
      "inputs": [],
      "name": "isResolverCached",
      "outputs": [
        {
          "internalType": "bool",
          "name": "",
          "type": "bool"
        }
      ],
      "stateMutability": "view",
      "type": "function"
    },
    {
      "inputs": [],
      "name": "owner",
      "outputs": [
        {
          "internalType": "address",
          "name": "",
          "type": "address"
        }
      ],
      "stateMutability": "view",
      "type": "function"
    },
    {
      "inputs": [
        {
          "internalType": "bytes32",
          "name": "_ccy",
          "type": "bytes32"
        },
        {
          "internalType": "address",
          "name": "_tokenAddress",
          "type": "address"
        },
        {
          "internalType": "bool",
          "name": "_isCollateral",
          "type": "bool"
        }
      ],
      "name": "registerCurrency",
      "outputs": [],
      "stateMutability": "nonpayable",
      "type": "function"
    },
    {
      "inputs": [
        {
          "internalType": "address",
          "name": "_user",
          "type": "address"
        },
        {
          "internalType": "bytes32",
          "name": "_ccy",
          "type": "bytes32"
        },
        {
          "internalType": "uint256",
          "name": "_amount",
          "type": "uint256"
        }
      ],
      "name": "removeDepositAmount",
      "outputs": [],
      "stateMutability": "nonpayable",
      "type": "function"
    },
    {
      "inputs": [],
      "name": "renounceOwnership",
      "outputs": [],
      "stateMutability": "nonpayable",
      "type": "function"
    },
    {
      "inputs": [],
      "name": "requiredContracts",
      "outputs": [
        {
          "internalType": "bytes32[]",
          "name": "contracts",
          "type": "bytes32[]"
        }
      ],
      "stateMutability": "pure",
      "type": "function"
    },
    {
      "inputs": [],
      "name": "resolver",
      "outputs": [
        {
          "internalType": "contract IAddressResolver",
          "name": "",
          "type": "address"
        }
      ],
      "stateMutability": "view",
      "type": "function"
    },
    {
      "inputs": [
        {
          "internalType": "uint256",
          "name": "_liquidationThresholdRate",
          "type": "uint256"
        },
        {
          "internalType": "address",
          "name": "_uniswapRouter",
          "type": "address"
        }
      ],
      "name": "setCollateralParameters",
      "outputs": [],
      "stateMutability": "nonpayable",
      "type": "function"
    },
    {
      "inputs": [
        {
          "internalType": "address",
          "name": "_user",
          "type": "address"
        },
        {
          "internalType": "bytes32",
          "name": "_ccyFrom",
          "type": "bytes32"
        },
        {
          "internalType": "bytes32",
          "name": "_ccyTo",
          "type": "bytes32"
        },
        {
          "internalType": "uint256",
          "name": "_amountOut",
          "type": "uint256"
        },
        {
          "internalType": "uint24",
          "name": "_poolFee",
          "type": "uint24"
        }
      ],
      "name": "swapDepositAmounts",
      "outputs": [
        {
          "internalType": "uint256",
          "name": "amountIn",
          "type": "uint256"
        }
      ],
      "stateMutability": "nonpayable",
      "type": "function"
    },
    {
      "inputs": [
        {
          "internalType": "address",
          "name": "newOwner",
          "type": "address"
        }
      ],
      "name": "transferOwnership",
      "outputs": [],
      "stateMutability": "nonpayable",
      "type": "function"
    },
    {
      "inputs": [
        {
          "internalType": "bytes32",
          "name": "_ccy",
          "type": "bytes32"
        },
        {
          "internalType": "bool",
          "name": "_isCollateral",
          "type": "bool"
        }
      ],
      "name": "updateCurrency",
      "outputs": [],
      "stateMutability": "nonpayable",
      "type": "function"
    },
    {
      "inputs": [
        {
          "internalType": "bytes32",
          "name": "_ccy",
          "type": "bytes32"
        },
        {
          "internalType": "uint256",
          "name": "_amount",
          "type": "uint256"
        }
      ],
      "name": "withdraw",
      "outputs": [],
      "stateMutability": "nonpayable",
      "type": "function"
    },
    {
      "stateMutability": "payable",
      "type": "receive"
    }
  ],
  "transactionHash": "0x7684eb0597917f45babc4f4df504c867b6bdc8c48d35d6bc2568315dd808d77b",
  "args": [],
  "numDeployments": 2,
  "solcInputHash": "53fc0e01d82a375f97251c844f63701f",
  "bytecode": "0x608060405234801561001057600080fd5b5061399d806100206000396000f3fe6080604052600436106101fd5760003560e01c806354821c211161010d578063afe8efcf116100a0578063e09976591161006f578063e0997659146105d9578063f2fde38b146105ee578063fb7bd3b41461060e578063fc7008101461062e578063fd43fbf11461064e57600080fd5b8063afe8efcf14610564578063b12e441014610584578063ca423031146105a4578063d5e190d0146105c457600080fd5b80638da5cb5b116100dc5780638da5cb5b146104fc5780638e19aff314610511578063948060dd1461053157806396994e371461055157600080fd5b806354821c21146104875780635bffeb66146104a75780635d95df8a146104c7578063715018a6146104e757600080fd5b806328ff7a421161019057806333e1a2231161015f57806333e1a223146103e35780633d03b9da146104035780633f90a08e146104255780634ba0c9b514610452578063524900b51461047257600080fd5b806328ff7a421461038457806329985e5a146103a45780632af64bd3146103b95780632e44b3f9146103ce57600080fd5b80630cfe33fa116101cc5780630cfe33fa146103115780630db9ed6a146103315780631de26e161461035157806325e1f09f1461036457600080fd5b80630253cd7e14610261578063040cf0201461029457806304f3bcec146102b45780630cf7505d146102e157600080fd5b3661025c5761020a61066e565b6001600160a01b0316336001600160a01b03161461025a5760405162461bcd60e51b815260206004820152600860248201526709cdee840ae8aa8960c31b60448201526064015b60405180910390fd5b005b600080fd5b34801561026d57600080fd5b5061028161027c3660046131a9565b61068f565b6040519081526020015b60405180910390f35b3480156102a057600080fd5b5061025a6102af3660046131d5565b610778565b3480156102c057600080fd5b506102c9610a02565b6040516001600160a01b03909116815260200161028b565b3480156102ed57600080fd5b506103016102fc3660046131f7565b610a18565b604051901515815260200161028b565b34801561031d57600080fd5b5061028161032c366004613210565b610a46565b34801561033d57600080fd5b5061025a61034c36600461322d565b610a79565b61025a61035f3660046131d5565b610ab6565b34801561037057600080fd5b5061030161037f366004613210565b610aec565b34801561039057600080fd5b5061030161039f36600461325d565b610afc565b3480156103b057600080fd5b5061025a610b27565b3480156103c557600080fd5b50610301610cd0565b3480156103da57600080fd5b50610281610e36565b3480156103ef57600080fd5b5061025a6103fe3660046132ab565b610e53565b34801561040f57600080fd5b50610418610ff2565b60405161028b9190613313565b34801561043157600080fd5b50610445610440366004613357565b611084565b60405161028b91906133cc565b34801561045e57600080fd5b5061025a61046d366004613406565b61113b565b34801561047e57600080fd5b506102c96111dc565b34801561049357600080fd5b506102816104a2366004613210565b6111e6565b3480156104b357600080fd5b5061025a6104c2366004613449565b6111fa565b3480156104d357600080fd5b506103016104e23660046131f7565b6113ae565b3480156104f357600080fd5b5061025a6113bc565b34801561050857600080fd5b506102c96113f7565b34801561051d57600080fd5b5061025a61052c36600461348b565b61141f565b34801561053d57600080fd5b5061028161054c366004613210565b6114e3565b61025a61055f366004613406565b6114ee565b34801561057057600080fd5b5061028161057f366004613210565b61151e565b34801561059057600080fd5b506102c961059f3660046131f7565b61157d565b3480156105b057600080fd5b506102816105bf366004613210565b6115a4565b3480156105d057600080fd5b506104186115f6565b3480156105e557600080fd5b50610418611608565b3480156105fa57600080fd5b5061025a610609366004613210565b611658565b34801561061a57600080fd5b5061025a610629366004613406565b6116f8565b34801561063a57600080fd5b50610418610649366004613210565b6117d2565b34801561065a57600080fd5b506102816106693660046134b0565b6118a1565b60006000805160206139488339815191525b546001600160a01b0316919050565b600080600061069c611b9b565b604051635c34776560e01b8152600481018690526001600160a01b0387811660248301529190911690635c3477659060440160e06040518083038186803b1580156106e657600080fd5b505afa1580156106fa573d6000803e3d6000fd5b505050506040513d601f19601f8201168201806040525081019061071e9190613500565b9650505094505050508181610731611ba5565b6001600160a01b038816600090815260049190910160209081526040808320898452909152902054610763919061356a565b61076d9190613582565b925050505b92915050565b8161078281610a18565b61079e5760405162461bcd60e51b815260040161025190613599565b600082116107be5760405162461bcd60e51b8152600401610251906135d0565b6107c6611b9b565b60405163e95dc18360e01b8152600481018590523360248201526001600160a01b03919091169063e95dc18390604401602060405180830381600087803b15801561081057600080fd5b505af1158015610824573d6000803e3d6000fd5b505050506040513d601f19601f8201168201806040525081019061084891906135f8565b50600080610854611ba5565b33600090815260049190910160209081526040808320888452909152902054905061087e856113ae565b1561094757600061088e33611bc9565b9050600061089a611c8f565b6040516306d062ad60e01b815260048101899052602481018490526001600160a01b0391909116906306d062ad9060440160206040518083038186803b1580156108e357600080fd5b505afa1580156108f7573d6000803e3d6000fd5b505050506040513d601f19601f8201168201806040525081019061091b91906135f8565b905080861161092a578561092c565b805b93508383101561093c578261093e565b835b9350505061094b565b8091505b81610954611ba5565b3360009081526004919091016020908152604080832089845290915281208054909190610982908490613582565b909155506109b69050610993611ba5565b600087815260029190910160205260409020546001600160a01b03163384611c99565b6109c03386611cd1565b604080518681526020810184905233917fc3ded2be7db21b1af963f267d27750e4a15f174547d88b886b9bda43e2c6fa32910160405180910390a25050505050565b6000600080516020613928833981519152610680565b600080610a23611ba5565b60009384526002016020526040909220546001600160a01b031690911415919050565b6000806000610a5484611d65565b5091509150808211610a67576000610a71565b610a718183613582565b949350505050565b33610a826113f7565b6001600160a01b031614610aa85760405162461bcd60e51b815260040161025190613611565b610ab28282611d85565b5050565b81610ac081610a18565b610adc5760405162461bcd60e51b815260040161025190613599565b610ae7338484611de1565b505050565b6000610772826000806000611f26565b6000610b1e858585856001811115610b1657610b16613646565b600114611f26565b95945050505050565b6000610b31610ff2565b905060005b8151811015610ab2576000828281518110610b5357610b5361365c565b602002602001015190506000610b7460008051602061392883398151915290565b54604080517f5265736f6c766572206d697373696e67207461726765743a200000000000000060208201526039808201869052825180830390910181526059820192839052636795dbcd60e01b9092526001600160a01b0390921691636795dbcd91610be591869190605d016136ca565b60206040518083038186803b158015610bfd57600080fd5b505afa158015610c11573d6000803e3d6000fd5b505050506040513d601f19601f82011682018060405250810190610c3591906136e3565b60008381527f4abde63c3e81aefa5764b017968bc473e83e093d7e1a10247d19e0a3e4124019602090815260409182902080546001600160a01b0319166001600160a01b03851690811790915582518681529182015281519293507f88a93678a3692f6789d9546fc621bf7234b101ddb7d4fe479455112831b8aa68929081900390910190a150508080610cc890613700565b915050610b36565b600080610cdb610ff2565b905060005b8151811015610e2d576000828281518110610cfd57610cfd61365c565b60200260200101519050610d1c60008051602061392883398151915290565b600082815260019190910160205260409020546001600160a01b0316600080516020613928833981519152546040516321f8a72160e01b8152600481018490526001600160a01b03909116906321f8a7219060240160206040518083038186803b158015610d8957600080fd5b505afa158015610d9d573d6000803e3d6000fd5b505050506040513d601f19601f82011682018060405250810190610dc191906136e3565b6001600160a01b0316141580610e0b575060008181527f4abde63c3e81aefa5764b017968bc473e83e093d7e1a10247d19e0a3e412401960205260409020546001600160a01b0316155b15610e1a576000935050505090565b5080610e2581613700565b915050610ce0565b50600191505090565b6000610e4e6000805160206139088339815191525490565b905090565b600054610100900460ff1615808015610e735750600054600160ff909116105b80610e8d5750303b158015610e8d575060005460ff166001145b610ef05760405162461bcd60e51b815260206004820152602e60248201527f496e697469616c697a61626c653a20636f6e747261637420697320616c72656160448201526d191e481a5b9a5d1a585b1a5e995960921b6064820152608401610251565b6000805460ff191660011790558015610f13576000805461ff0019166101001790555b6000610f1d611f7a565b6001600160a01b03161415610f7f5760405162461bcd60e51b815260206004820152602260248201527f4d7573742062652063616c6c65642066726f6d2070726f787920636f6e74726160448201526118dd60f21b6064820152608401610251565b610f8886611fa2565b610f9185612013565b610f9a826120ab565b610fa48484611d85565b8015610fea576000805461ff0019169055604051600181527f7f26b83ff96e1f2b6a682f133852f6798a09c465da95921460cefb38474024989060200160405180910390a15b505050505050565b60408051600280825260608083018452926020830190803683370190505090507121bab93932b731bca1b7b73a3937b63632b960711b8160008151811061103b5761103b61365c565b602002602001018181525050762632b73234b733a6b0b935b2ba21b7b73a3937b63632b960491b816001815181106110755761107561365c565b60200260200101818152505090565b60608167ffffffffffffffff81111561109f5761109f61371b565b6040519080825280602002602001820160405280156110c8578160200160208202803683370190505b50905060005b82811015611134576111008484838181106110eb576110eb61365c565b905060200201356110fa611ba5565b9061211c565b8282815181106111125761111261365c565b911515602092830291909101909101528061112c81613700565b9150506110ce565b5092915050565b61114433612137565b6111605760405162461bcd60e51b815260040161025190613731565b8161116a81610a18565b6111865760405162461bcd60e51b815260040161025190613599565b8161118f611ba5565b6001600160a01b038616600090815260049190910160209081526040808320878452909152812080549091906111c690849061356a565b909155506111d690508484611cd1565b50505050565b6000610e4e6121b1565b60006111f182611d65565b50909392505050565b336112036113f7565b6001600160a01b0316146112295760405162461bcd60e51b815260040161025190613611565b611231611c8f565b6001600160a01b0316631eae0893846040518263ffffffff1660e01b815260040161125e91815260200190565b60206040518083038186803b15801561127657600080fd5b505afa15801561128a573d6000803e3d6000fd5b505050506040513d601f19601f820116820180604052508101906112ae9190613768565b6112ed5760405162461bcd60e51b815260206004820152601060248201526f496e76616c69642063757272656e637960801b6044820152606401610251565b816112f6611ba5565b60008581526002919091016020526040902080546001600160a01b0319166001600160a01b0392909216919091179055801561135b5761133e83611338611ba5565b906121df565b5061135b61134b8461157d565b6113536121b1565b6000196121eb565b604080518481526001600160a01b0384166020820152821515918101919091527f8d3c36e3d1ae1669756651dcd2a14d15b965c2e9552750b8321c36f2e061da88906060015b60405180910390a1505050565b6000610772826110fa611ba5565b336113c56113f7565b6001600160a01b0316146113eb5760405162461bcd60e51b815260040161025190613611565b6113f56000611fa2565b565b60007f9acda75aebd150dd434541a4747a6dc606f4f1a59662477e67daf1fc0bf9e0aa610680565b336114286113f7565b6001600160a01b03161461144e5760405162461bcd60e51b815260040161025190613611565b8161145881610a18565b6114745760405162461bcd60e51b815260040161025190613599565b81156114985761148683611338611ba5565b5061149361134b8461157d565b6114ac565b6114aa836114a4611ba5565b90612306565b505b6040805184815283151560208201527f6dc31569f0c707ff03a926bdde49b8c7ee478206c00e5d4c9a51922f2080b1b991016113a1565b600061077282611bc9565b6114f733612137565b6115135760405162461bcd60e51b815260040161025190613731565b610ae7838383611de1565b600080600061152c84611d65565b50915091506115476000805160206139088339815191525490565b6115519082613785565b61155d61271084613785565b10156115735761156e6002826137a4565b610a71565b6000949350505050565b6000611587611ba5565b60009283526002016020525060409020546001600160a01b031690565b60008060006115b284611d65565b509150915081600014156115d85780156115ce576000196115d1565b60005b92506115ef565b816115e561271083613785565b610a7191906137a4565b5050919050565b6060610e4e611603611ba5565b612312565b60408051600180825281830190925260609160208083019080368337019050509050762632b73234b733a6b0b935b2ba21b7b73a3937b63632b960491b816000815181106110755761107561365c565b336116616113f7565b6001600160a01b0316146116875760405162461bcd60e51b815260040161025190613611565b6001600160a01b0381166116ec5760405162461bcd60e51b815260206004820152602660248201527f4f776e61626c653a206e6577206f776e657220697320746865207a65726f206160448201526564647265737360d01b6064820152608401610251565b6116f581611fa2565b50565b61170133612137565b61171d5760405162461bcd60e51b815260040161025190613731565b8161172781610a18565b6117435760405162461bcd60e51b815260040161025190613599565b8161174c611ba5565b6001600160a01b03861660009081526004919091016020908152604080832087845290915290205410156117925760405162461bcd60e51b8152600401610251906137c6565b8161179b611ba5565b6001600160a01b038616600090815260049190910160209081526040808320878452909152812080549091906111c6908490613582565b606060006117de611ba5565b6001600160a01b03841660009081526003919091016020526040812091506118058261231d565b905060008167ffffffffffffffff8111156118225761182261371b565b60405190808252806020026020018201604052801561184b578160200160208202803683370190505b50905060005b828110156118985760006118658583612327565b90508083838151811061187a5761187a61365c565b6020908102919091010152508061189081613700565b915050611851565b50949350505050565b60006118ac33612137565b6118c85760405162461bcd60e51b815260040161025190613731565b60006118d2611ba5565b6001600160a01b03881660009081526004919091016020908152604080832089845290915290205490508061195c5760405162461bcd60e51b815260206004820152602a60248201527f4e6f206465706f73697420616d6f756e7420696e207468652073656c65637465604482015269642063757272656e637960b01b6064820152608401610251565b60006040518061010001604052806119738961157d565b6001600160a01b0316815260200161198a8861157d565b6001600160a01b0316815262ffffff861660208201523060408201524260608201526080810187905260a08101849052600060c09091015290506119cc6121b1565b60408051631b67c43360e31b815283516001600160a01b0390811660048301526020850151811660248301529184015162ffffff1660448201526060840151821660648201526080840151608482015260a084015160a482015260c084015160c482015260e0840151821660e482015291169063db3e21989061010401602060405180830381600087803b158015611a6357600080fd5b505af1158015611a77573d6000803e3d6000fd5b505050506040513d601f19601f82011682018060405250810190611a9b91906135f8565b925082611aa6611ba5565b6001600160a01b038a166000908152600491909101602090815260408083208b845290915281208054909190611add908490613582565b90915550859050611aec611ba5565b6001600160a01b038a166000908152600491909101602090815260408083208a845290915281208054909190611b2390849061356a565b90915550611b3390508888611cd1565b611b3d8887611cd1565b6040805188815260208101889052908101849052606081018690526001600160a01b038916907fe353b2af3b79c1202b265675592f4e12eb3fafeaace4b1d9c128ede7d1de4f0d9060800160405180910390a2505095945050505050565b6000610e4e612333565b7f53832330c92cb5d80f0e1ff6fdb9886f7fad39132543bafb7497316eae2a831790565b600080600080611bd885611d65565b9250925092508160001415611bef57949350505050565b60008051602061390883398151915254611c099083613785565b611c1561271085613785565b1115611c7c576000612710611c366000805160206139088339815191525490565b611c409085613785565b611c4c61271087613785565b611c569190613582565b611c6091906137a4565b905081811015611c705780611c72565b815b9695505050505050565b506000949350505050565b505050919050565b6000610e4e612358565b600080516020613948833981519152546001600160a01b0384811691161415611cc657610ae78282612378565b610ae78383836124c3565b6000611cdb611ba5565b6001600160a01b0384166000908152600491909101602090815260408083208584529091529020541115611d3757610ae781611d15611ba5565b6001600160a01b038516600090815260039190910160205260409020906121df565b610ae781611d43611ba5565b6001600160a01b03851660009081526003919091016020526040902090612306565b6000806000611d788460008060006125a7565b9250925092509193909250565b600080516020613908833981519152548214611da457611da48261293c565b7f1aaabb4945989eb9ee8150fddc35fcfc125664a7b898aa2de5931bb12484d053546001600160a01b03828116911614610ab257610ab2816129d5565b60008111611e015760405162461bcd60e51b8152600401610251906135d0565b611e0961066e565b6001600160a01b0316611e1a611ba5565b600084815260029190910160205260409020546001600160a01b0316141580611e4257503481145b611e5e5760405162461bcd60e51b8152600401610251906135d0565b611e8d611e69611ba5565b600084815260029190910160205260409020546001600160a01b0316843084612abb565b80611e96611ba5565b6001600160a01b03851660009081526004919091016020908152604080832086845290915281208054909190611ecd90849061356a565b90915550611edd90508383611cd1565b60408051838152602081018390526001600160a01b038516917f19dacbf83c5de6658e14cbf7bcae5c15eca2eedecf1c66fbca928e4d351bea0f910160405180910390a2505050565b6000806000611f37878787876125a7565b50915091508060001480611f6f575060008051602061390883398151915254611f609082613785565b611f6c61271084613785565b10155b979650505050505050565b60007f360894a13ba1a3210667c828492db98dca3e2076cc3735a920a3ca505d382bbc610680565b7f9acda75aebd150dd434541a4747a6dc606f4f1a59662477e67daf1fc0bf9e0aa80546001600160a01b038381166001600160a01b0319831681179093556040519116919082907f8be0079c531659141344cd1fd0a4f28419497f9722a3daafe3b4186f6b6457e090600090a35050565b600080516020613928833981519152546001600160a01b0316156120795760405162461bcd60e51b815260206004820152601b60248201527f7265736f6c766572207265676973746572656420616c726561647900000000006044820152606401610251565b806000805160206139288339815191525b80546001600160a01b0319166001600160a01b039290921691909117905550565b600080516020613948833981519152546001600160a01b0316156121075760405162461bcd60e51b8152602060048201526013602482015272105b1c9958591e481a5b9a5d1a585b1a5e9959606a1b6044820152606401610251565b8060008051602061394883398151915261208a565b600081815260018301602052604081205415155b9392505050565b600080612142611608565b905060005b81518110156121a7576121728282815181106121655761216561365c565b6020026020010151612af9565b6001600160a01b0316846001600160a01b03161415612195575060019392505050565b8061219f81613700565b915050612147565b5060009392505050565b7f1aaabb4945989eb9ee8150fddc35fcfc125664a7b898aa2de5931bb12484d053546001600160a01b031690565b60006121308383612b04565b604080516001600160a01b038481166024830152604480830185905283518084039091018152606490920183526020820180516001600160e01b031663095ea7b360e01b17905291516000928392908716916122479190613814565b6000604051808303816000865af19150503d8060008114612284576040519150601f19603f3d011682016040523d82523d6000602084013e612289565b606091505b50915091508180156122b35750805115806122b35750808060200190518101906122b39190613768565b6122ff5760405162461bcd60e51b815260206004820152601e60248201527f5472616e7366657248656c7065723a20415050524f56455f4641494c454400006044820152606401610251565b5050505050565b60006121308383612b53565b606061077282612c46565b6000610772825490565b60006121308383612ca2565b6000610e4e762632b73234b733a6b0b935b2ba21b7b73a3937b63632b960491b612ccc565b6000610e4e7121bab93932b731bca1b7b73a3937b63632b960711b612ccc565b6000600080516020613948833981519152546040516370a0823160e01b81523060048201526001600160a01b03909116906370a082319060240160206040518083038186803b1580156123ca57600080fd5b505afa1580156123de573d6000803e3d6000fd5b505050506040513d601f19601f8201168201806040525081019061240291906135f8565b9050818110156124485760405162461bcd60e51b8152602060048201526011602482015270092dce6eaccccd2c6d2cadce840ae8aa89607b1b6044820152606401610251565b8015610ae75760008051602061394883398151915254604051632e1a7d4d60e01b8152600481018490526001600160a01b0390911690632e1a7d4d90602401600060405180830381600087803b1580156124a157600080fd5b505af11580156124b5573d6000803e3d6000fd5b50505050610ae78383612d5d565b604080516001600160a01b038481166024830152604480830185905283518084039091018152606490920183526020820180516001600160e01b031663a9059cbb60e01b179052915160009283929087169161251f9190613814565b6000604051808303816000865af19150503d806000811461255c576040519150601f19603f3d011682016040523d82523d6000602084013e612561565b606091505b509150915081801561258b57508051158061258b57508080602001905181019061258b9190613768565b6122ff5760405162461bcd60e51b815260040161025190613830565b60008060006125ee6040518060e001604052806000815260200160008152602001600081526020016000815260200160008152602001600081526020016000151581525090565b60006125f8611ba5565b6001600160a01b038a166000908152600491909101602090815260408083208b8452909152812054915087156127945786156126be57612636611c8f565b6040516344a6ecdd60e01b8152600481018b9052602481018a90526001600160a01b0391909116906344a6ecdd9060440160206040518083038186803b15801561267f57600080fd5b505afa158015612693573d6000803e3d6000fd5b505050506040513d601f19601f820116820180604052508101906126b791906135f8565b9050612794565b878210156126de5760405162461bcd60e51b8152600401610251906137c6565b6126e88883613582565b91506126f3896113ae565b1561279457612700611c8f565b6040516344a6ecdd60e01b8152600481018b9052602481018a90526001600160a01b0391909116906344a6ecdd9060440160206040518083038186803b15801561274957600080fd5b505afa15801561275d573d6000803e3d6000fd5b505050506040513d601f19601f8201168201806040525081019061278191906135f8565b8351849061279090839061356a565b9052505b61279c611b9b565b604051626256a560e31b81526001600160a01b038c81166004830152602482018c9052604482018590529190911690630312b528906064016101006040518083038186803b1580156127ed57600080fd5b505afa158015612801573d6000803e3d6000fd5b505050506040513d601f19601f820116820180604052508101906128259190613874565b151560c08b0181905260a08b019190915260808a019190915260608901919091526040880191909152602087019190915291855250806128625750865b8061286b575087155b6128875760405162461bcd60e51b8152600401610251906137c6565b60006128928b612e26565b905060008460a00151826128a6919061356a565b90506000856040015186600001516128be919061356a565b905060008660200151836128d2919061356a565b9050818110156128e35760006128ed565b6128ed8282613582565b99508487608001518860600151612904919061356a565b61290e919061356a565b98508183101561291f576000612929565b6129298284613582565b9750505050505050509450945094915050565b6000811161297b5760405162461bcd60e51b815260206004820152600c60248201526b52617465206973207a65726f60a01b6044820152606401610251565b7f7905e36ed361eb6a8798598c698450b1e62fd9978879efe24ed37e67d31001d76000805160206139088339815191525460408051918252602082018490520160405180910390a160008051602061390883398151915255565b6001600160a01b038116612a245760405162461bcd60e51b815260206004820152601660248201527524b73b30b634b2102ab734b9bbb0b8102937baba32b960511b6044820152606401610251565b7fb6bf376037f707ef439f1e5e56d7987d6b0c55798fe21ff475fd00b1f37ed92060008051602061390883398151915260010154604080516001600160a01b03928316815291841660208301520160405180910390a17f1aaabb4945989eb9ee8150fddc35fcfc125664a7b898aa2de5931bb12484d05380546001600160a01b0319166001600160a01b0392909216919091179055565b600080516020613948833981519152546001600160a01b0385811691161415612aed57612ae88282612f5f565b6111d6565b6111d6848484846130a8565b600061077282612ccc565b6000818152600183016020526040812054612b4b57508154600181810184556000848152602080822090930184905584548482528286019093526040902091909155610772565b506000610772565b60008181526001830160205260408120548015612c3c576000612b77600183613582565b8554909150600090612b8b90600190613582565b9050818114612bf0576000866000018281548110612bab57612bab61365c565b9060005260206000200154905080876000018481548110612bce57612bce61365c565b6000918252602080832090910192909255918252600188019052604090208390555b8554869080612c0157612c016138de565b600190038181906000526020600020016000905590558560010160008681526020019081526020016000206000905560019350505050610772565b6000915050610772565b606081600001805480602002602001604051908101604052809291908181526020018280548015612c9657602002820191906000526020600020905b815481526020019060010190808311612c82575b50505050509050919050565b6000826000018281548110612cb957612cb961365c565b9060005260206000200154905092915050565b60008181527f4abde63c3e81aefa5764b017968bc473e83e093d7e1a10247d19e0a3e41240196020908152604080832054815170026b4b9b9b4b7339030b2323932b9b99d1607d1b9381019390935260318084018690528251808503909101815260519093019091526001600160a01b031690816111345760405162461bcd60e51b815260040161025191906138f4565b604080516000808252602082019092526001600160a01b038416908390604051612d879190613814565b60006040518083038185875af1925050503d8060008114612dc4576040519150601f19603f3d011682016040523d82523d6000602084013e612dc9565b606091505b5050905080610ae75760405162461bcd60e51b815260206004820152602360248201527f5472616e7366657248656c7065723a204554485f5452414e534645525f46414960448201526213115160ea1b6064820152608401610251565b600080612e31611ba5565b6001600160a01b0384166000908152600391909101602052604081209150612e588261231d565b905060005b81811015611c87576000612e718483612327565b9050612e7c816113ae565b15612f4c576000612e8b611ba5565b6001600160a01b0388166000908152600491909101602090815260408083208584529091529020549050612ebd611c8f565b6040516344a6ecdd60e01b815260048101849052602481018390526001600160a01b0391909116906344a6ecdd9060440160206040518083038186803b158015612f0657600080fd5b505afa158015612f1a573d6000803e3d6000fd5b505050506040513d601f19601f82011682018060405250810190612f3e91906135f8565b612f48908761356a565b9550505b5080612f5781613700565b915050612e5d565b80471015612fa25760405162461bcd60e51b815260206004820152601060248201526f092dce6eaccccd2c6d2cadce8408aa8960831b6044820152606401610251565b6000805160206139488339815191525460408051630d0e30db60e41b815290516001600160a01b039092169163d0e30db0918491600480830192600092919082900301818588803b158015612ff657600080fd5b505af115801561300a573d6000803e3d6000fd5b505050505061302460008051602061394883398151915290565b5460405163a9059cbb60e01b81526001600160a01b038481166004830152602482018490529091169063a9059cbb90604401602060405180830381600087803b15801561307057600080fd5b505af1158015613084573d6000803e3d6000fd5b505050506040513d601f19601f82011682018060405250810190610ae79190613768565b604080516001600160a01b0385811660248301528481166044830152606480830185905283518084039091018152608490920183526020820180516001600160e01b03166323b872dd60e01b179052915160009283929088169161310c9190613814565b6000604051808303816000865af19150503d8060008114613149576040519150601f19603f3d011682016040523d82523d6000602084013e61314e565b606091505b50915091508180156131785750805115806131785750808060200190518101906131789190613768565b610fea5760405162461bcd60e51b815260040161025190613830565b6001600160a01b03811681146116f557600080fd5b600080604083850312156131bc57600080fd5b82356131c781613194565b946020939093013593505050565b600080604083850312156131e857600080fd5b50508035926020909101359150565b60006020828403121561320957600080fd5b5035919050565b60006020828403121561322257600080fd5b813561213081613194565b6000806040838503121561324057600080fd5b82359150602083013561325281613194565b809150509250929050565b6000806000806080858703121561327357600080fd5b843561327e81613194565b935060208501359250604085013591506060850135600281106132a057600080fd5b939692955090935050565b600080600080600060a086880312156132c357600080fd5b85356132ce81613194565b945060208601356132de81613194565b93506040860135925060608601356132f581613194565b9150608086013561330581613194565b809150509295509295909350565b6020808252825182820181905260009190848201906040850190845b8181101561334b5783518352928401929184019160010161332f565b50909695505050505050565b6000806020838503121561336a57600080fd5b823567ffffffffffffffff8082111561338257600080fd5b818501915085601f83011261339657600080fd5b8135818111156133a557600080fd5b8660208260051b85010111156133ba57600080fd5b60209290920196919550909350505050565b6020808252825182820181905260009190848201906040850190845b8181101561334b5783511515835292840192918401916001016133e8565b60008060006060848603121561341b57600080fd5b833561342681613194565b95602085013595506040909401359392505050565b80151581146116f557600080fd5b60008060006060848603121561345e57600080fd5b83359250602084013561347081613194565b915060408401356134808161343b565b809150509250925092565b6000806040838503121561349e57600080fd5b8235915060208301356132528161343b565b600080600080600060a086880312156134c857600080fd5b85356134d381613194565b9450602086013593506040860135925060608601359150608086013562ffffff8116811461330557600080fd5b600080600080600080600060e0888a03121561351b57600080fd5b5050855160208701516040880151606089015160808a015160a08b015160c0909b0151949c939b50919990985090965094509092509050565b634e487b7160e01b600052601160045260246000fd5b6000821982111561357d5761357d613554565b500190565b60008282101561359457613594613554565b500390565b60208082526017908201527f43757272656e6379206e6f742072656769737465726564000000000000000000604082015260600190565b6020808252600e908201526d125b9d985b1a5908185b5bdd5b9d60921b604082015260600190565b60006020828403121561360a57600080fd5b5051919050565b6020808252818101527f4f776e61626c653a2063616c6c6572206973206e6f7420746865206f776e6572604082015260600190565b634e487b7160e01b600052602160045260246000fd5b634e487b7160e01b600052603260045260246000fd5b60005b8381101561368d578181015183820152602001613675565b838111156111d65750506000910152565b600081518084526136b6816020860160208601613672565b601f01601f19169290920160200192915050565b828152604060208201526000610a71604083018461369e565b6000602082840312156136f557600080fd5b815161213081613194565b600060001982141561371457613714613554565b5060010190565b634e487b7160e01b600052604160045260246000fd5b60208082526017908201527f4f6e6c7920416363657074656420436f6e747261637473000000000000000000604082015260600190565b60006020828403121561377a57600080fd5b81516121308161343b565b600081600019048311821515161561379f5761379f613554565b500290565b6000826137c157634e487b7160e01b600052601260045260246000fd5b500490565b6020808252602e908201527f4e6f7420656e6f75676820636f6c6c61746572616c20696e207468652073656c60408201526d65637465642063757272656e637960901b606082015260800190565b60008251613826818460208701613672565b9190910192915050565b60208082526024908201527f5472616e7366657248656c7065723a205452414e534645525f46524f4d5f46416040820152631253115160e21b606082015260800190565b600080600080600080600080610100898b03121561389157600080fd5b885197506020890151965060408901519550606089015194506080890151935060a0890151925060c0890151915060e08901516138cd8161343b565b809150509295985092959890939650565b634e487b7160e01b600052603160045260246000fd5b602081526000612130602083018461369e56fe1aaabb4945989eb9ee8150fddc35fcfc125664a7b898aa2de5931bb12484d0524abde63c3e81aefa5764b017968bc473e83e093d7e1a10247d19e0a3e41240187522ee63bb7da831844dcdb60f35e8cfa51225eeb4ed6734e421ed06f0d56805a2646970667358221220e8e8d029313f7b0971a380d9f6ba66e3ab4481128952bc519edc2466bdaf605464736f6c63430008090033",
  "implementation": "0xf997345e1ABEB44De389504fE3F0c4565d390784",
  "devdoc": {
    "kind": "dev",
    "methods": {
      "acceptedContracts()": {
        "details": "The contact name listed in this method is also needed to be listed `requiredContracts` method."
      },
      "addDepositAmount(address,bytes32,uint256)": {
        "details": "Adds deposit amount.",
        "params": {
          "_amount": "Amount of funds to deposit",
          "_ccy": "Currency name in bytes32",
          "_user": "User's address"
        }
      },
      "deposit(bytes32,uint256)": {
        "details": "Deposits funds by the caller into collateral.",
        "params": {
          "_amount": "Amount of funds to deposit",
          "_ccy": "Currency name in bytes32"
        }
      },
      "depositFrom(address,bytes32,uint256)": {
        "details": "Deposits funds by the `from` into collateral.",
        "params": {
          "_amount": "Amount of funds to deposit",
          "_ccy": "Currency name in bytes32",
          "_from": "user's address"
        }
      },
      "getCollateralCurrencies()": {
        "returns": {
          "_0": "Array of th currency accepted as collateral"
        }
      },
      "getCoverage(address)": {
        "params": {
          "_user": "User's address"
        },
        "returns": {
          "coverage": "The rate of collateral used"
        }
      },
      "getDepositAmount(address,bytes32)": {
        "params": {
          "_ccy": "Currency name in bytes32",
          "_user": "User's address"
        },
        "returns": {
          "_0": "The deposited amount"
        }
      },
      "getLiquidationThresholdRate()": {
        "returns": {
          "liquidationThresholdRate": " The rate used as the liquidation threshold"
        }
      },
      "getTokenAddress(bytes32)": {
        "params": {
          "_ccy": "Currency name in bytes32"
        },
        "returns": {
          "_0": "The token contract address"
        }
      },
      "getTotalCollateralAmount(address)": {
        "params": {
          "_user": "Address of collateral user"
        },
        "returns": {
          "totalCollateralAmount": "The total collateral amount in ETH"
        }
      },
      "getUniswapRouter()": {
        "returns": {
          "uniswapRouter": "Uniswap Router contract address"
        }
      },
      "getUnusedCollateral(address)": {
        "params": {
          "_user": "User's address"
        },
        "returns": {
          "_0": "The total amount of unused collateral"
        }
      },
      "getUsedCurrencies(address)": {
        "params": {
          "_user": "User's address"
        },
        "returns": {
          "_0": "The currency names in bytes32"
        }
      },
      "getWithdrawableCollateral(address)": {
        "params": {
          "_user": "User's address"
        },
        "returns": {
          "_0": "Maximum amount of ETH that can be withdrawn"
        }
      },
      "initialize(address,address,uint256,address,address)": {
        "details": "Function is invoked by the proxy contract when the contract is added to the ProxyController.",
        "params": {
          "_WETH9": "The address of WETH",
          "_liquidationThresholdRate": "The rate used as the auto liquidation threshold",
          "_owner": "The address of the contract owner",
          "_resolver": "The address of the Address Resolver contract",
          "_uniswapRouter": "Uniswap router contract address"
        }
      },
      "isCollateral(bytes32)": {
        "params": {
          "_ccy": "Currency name in bytes32"
        },
        "returns": {
          "_0": "The boolean if the currency has been registered or not"
        }
      },
      "isCovered(address)": {
        "params": {
          "_user": "User's address"
        },
        "returns": {
          "_0": "The boolean if the collateral has sufficient coverage or not"
        }
      },
      "isCovered(address,bytes32,uint256,uint8)": {
        "params": {
          "_unsettledOrderAmount": "Additional unsettled order amount",
          "_unsettledOrderCcy": "Additional unsettled order currency name in bytes32",
          "_user": "User's address"
        },
        "returns": {
          "_0": "The boolean if the collateral has sufficient coverage or not"
        }
      },
      "isRegisteredCurrency(bytes32)": {
        "params": {
          "_ccy": "Currency name in bytes32"
        },
        "returns": {
          "_0": "The boolean if the currency has been registered or not"
        }
      },
      "owner()": {
        "details": "Returns the address of the current owner."
      },
      "registerCurrency(bytes32,address,bool)": {
        "params": {
          "_ccy": "Currency name in bytes32",
          "_isCollateral": "Boolean if the selected currency is acceptable as collateral.",
          "_tokenAddress": "Token contract address of the selected currency"
        }
      },
      "removeDepositAmount(address,bytes32,uint256)": {
        "params": {
          "_amount": "Amount of funds to withdraw.",
          "_ccy": "Currency name in bytes32",
          "_user": "User's address"
        }
      },
      "renounceOwnership()": {
        "details": "Leaves the contract without owner. It will not be possible to call `onlyOwner` functions anymore. Can only be called by the current owner. NOTE: Renouncing ownership will leave the contract without an owner, thereby removing any functionality that is only available to the owner."
      },
      "requiredContracts()": {
        "details": "The contract name list is in `./libraries/Contracts.sol`."
      },
      "setCollateralParameters(uint256,address)": {
        "params": {
          "_liquidationThresholdRate": "Auto liquidation threshold rate",
          "_uniswapRouter": "Uniswap router contract address"
        }
      },
      "swapDepositAmounts(address,bytes32,bytes32,uint256,uint24)": {
        "params": {
          "_amountOut": "Amount to be converted to",
          "_ccyFrom": "Currency name to be converted from",
          "_ccyTo": "Currency name to be converted to",
          "_poolFee": "Uniswap pool fee",
          "_user": "User's address"
        }
      },
      "transferOwnership(address)": {
        "details": "Transfers ownership of the contract to a new account (`newOwner`). Can only be called by the current owner."
      },
      "updateCurrency(bytes32,bool)": {
        "params": {
          "_ccy": "Currency name in bytes32",
          "_isCollateral": "Boolean if the selected currency is acceptable as collateral."
        }
      },
      "withdraw(bytes32,uint256)": {
        "params": {
          "_amount": "Amount of funds to withdraw.",
          "_ccy": "Currency name in bytes32"
        }
      }
    },
    "version": 1
  },
  "userdoc": {
    "kind": "user",
    "methods": {
      "acceptedContracts()": {
        "notice": "Returns contract names that can call this contract."
      },
      "getCollateralCurrencies()": {
        "notice": "Gets the currencies accepted as collateral"
      },
      "getCoverage(address)": {
        "notice": "Gets the rate of collateral used."
      },
      "getDepositAmount(address,bytes32)": {
        "notice": "Gets the amount deposited in the user's collateral."
      },
      "getLiquidationThresholdRate()": {
        "notice": "Gets liquidation threshold rate"
      },
      "getTokenAddress(bytes32)": {
        "notice": "Gets the token contract address"
      },
      "getTotalCollateralAmount(address)": {
        "notice": "Gets the total collateral amount. by converting it to ETH."
      },
      "getUniswapRouter()": {
        "notice": "Gets Uniswap Router contract address"
      },
      "getUnusedCollateral(address)": {
        "notice": "Gets the total amount of unused collateral"
      },
      "getUsedCurrencies(address)": {
        "notice": "Gets the currencies that the user used as collateral."
      },
      "getWithdrawableCollateral(address)": {
        "notice": "Gets the maximum amount of ETH that can be withdrawn from user collateral."
      },
      "initialize(address,address,uint256,address,address)": {
        "notice": "Initializes the contract."
      },
      "isCollateral(bytes32)": {
        "notice": "Gets if the currency is acceptable as collateral"
      },
      "isCovered(address)": {
        "notice": "Gets if the collateral has enough coverage."
      },
      "isCovered(address,bytes32,uint256,uint8)": {
        "notice": "Gets if the collateral has enough coverage."
      },
      "isRegisteredCurrency(bytes32)": {
        "notice": "Gets if the currency has been registered"
      },
      "registerCurrency(bytes32,address,bool)": {
        "notice": "Registers new currency and sets if it is acceptable as collateral."
      },
      "removeDepositAmount(address,bytes32,uint256)": {
        "notice": "Removes deposit amount."
      },
      "requiredContracts()": {
        "notice": "Returns the contract names used in this contract."
      },
      "setCollateralParameters(uint256,address)": {
        "notice": "Sets main collateral parameters this function solves the issue of frontrunning during parameters tuning.Triggers only be contract owner"
      },
      "swapDepositAmounts(address,bytes32,bytes32,uint256,uint24)": {
        "notice": "Swap the deposited amount to convert to a different currency using Uniswap."
      },
      "updateCurrency(bytes32,bool)": {
        "notice": "Updates the currency if it is acceptable as collateral."
      },
      "withdraw(bytes32,uint256)": {
        "notice": "Withdraws funds by the caller from unused collateral."
      }
    },
    "notice": "Implements the management of the token in each currency for users. This contract manages the following data related to tokens. - Deposited token amount as the collateral - Parameters related to the collateral   - Margin Call Threshold Rate   - Auto Liquidation Threshold Rate   - Liquidation Price Rate   - Min Collateral Rate To address a currency as collateral, it must be registered using `registerCurrency` method in this contract.",
    "version": 1
  },
  "storageLayout": {
    "storage": [
      {
        "astId": 1183,
        "contract": "contracts/TokenVault.sol:TokenVault",
        "label": "_initialized",
        "offset": 0,
        "slot": "0",
        "type": "t_uint8"
      },
      {
        "astId": 1186,
        "contract": "contracts/TokenVault.sol:TokenVault",
        "label": "_initializing",
        "offset": 1,
        "slot": "0",
        "type": "t_bool"
      }
    ],
    "types": {
      "t_bool": {
        "encoding": "inplace",
        "label": "bool",
        "numberOfBytes": "1"
      },
      "t_uint8": {
        "encoding": "inplace",
        "label": "uint8",
        "numberOfBytes": "1"
      }
    }
  }
}