{
  "address": "0xEA103561aB3c058629aA48D0e5922089529Ca86A",
  "abi": [
    {
      "inputs": [
        {
          "internalType": "address",
          "name": "_oracle",
          "type": "address"
        },
        {
          "internalType": "bytes32",
          "name": "_jobId",
          "type": "bytes32"
        },
        {
          "internalType": "uint256",
          "name": "_requestFee",
          "type": "uint256"
        },
        {
          "internalType": "address",
          "name": "_link",
          "type": "address"
        },
        {
          "internalType": "bytes32",
          "name": "_ccy",
          "type": "bytes32"
        },
        {
          "internalType": "address",
          "name": "_settlementEngine",
          "type": "address"
        }
      ],
      "stateMutability": "nonpayable",
      "type": "constructor"
    },
    {
      "anonymous": false,
      "inputs": [
        {
          "indexed": true,
          "internalType": "bytes32",
          "name": "id",
          "type": "bytes32"
        }
      ],
      "name": "ChainlinkCancelled",
      "type": "event"
    },
    {
      "anonymous": false,
      "inputs": [
        {
          "indexed": true,
          "internalType": "bytes32",
          "name": "id",
          "type": "bytes32"
        }
      ],
      "name": "ChainlinkFulfilled",
      "type": "event"
    },
    {
      "anonymous": false,
      "inputs": [
        {
          "indexed": true,
          "internalType": "bytes32",
          "name": "id",
          "type": "bytes32"
        }
      ],
      "name": "ChainlinkRequested",
      "type": "event"
    },
    {
      "anonymous": false,
      "inputs": [
        {
          "indexed": true,
          "internalType": "address",
          "name": "previousOwner",
          "type": "address"
        },
        {
          "indexed": true,
          "internalType": "address",
          "name": "newOwner",
          "type": "address"
        }
      ],
      "name": "OwnershipTransferred",
      "type": "event"
    },
    {
      "inputs": [
        {
          "internalType": "bytes32",
          "name": "_requestId",
          "type": "bytes32"
        },
        {
          "internalType": "bytes4",
          "name": "_callbackFunctionId",
          "type": "bytes4"
        },
        {
          "internalType": "uint256",
          "name": "_expiration",
          "type": "uint256"
        }
      ],
      "name": "cancelRequest",
      "outputs": [],
      "stateMutability": "nonpayable",
      "type": "function"
    },
    {
      "inputs": [],
      "name": "ccy",
      "outputs": [
        {
          "internalType": "bytes32",
          "name": "",
          "type": "bytes32"
        }
      ],
      "stateMutability": "view",
      "type": "function"
    },
    {
      "inputs": [
        {
          "internalType": "string",
          "name": "_txHash",
          "type": "string"
        }
      ],
      "name": "createRequest",
      "outputs": [
        {
          "internalType": "bytes32",
          "name": "requestId",
          "type": "bytes32"
        }
      ],
      "stateMutability": "nonpayable",
      "type": "function"
    },
    {
      "inputs": [
        {
          "internalType": "bytes32",
          "name": "_requestId",
          "type": "bytes32"
        },
        {
          "internalType": "string",
          "name": "_from",
          "type": "string"
        },
        {
          "internalType": "string",
          "name": "_to",
          "type": "string"
        },
        {
          "internalType": "uint256",
          "name": "_value",
          "type": "uint256"
        },
        {
          "internalType": "uint256",
          "name": "_timestamp",
          "type": "uint256"
        },
        {
          "internalType": "string",
          "name": "_txHash",
          "type": "string"
        }
      ],
      "name": "fulfill",
      "outputs": [],
      "stateMutability": "nonpayable",
      "type": "function"
    },
    {
      "inputs": [],
      "name": "getChainlinkOracle",
      "outputs": [
        {
          "internalType": "address",
          "name": "",
          "type": "address"
        }
      ],
      "stateMutability": "view",
      "type": "function"
    },
    {
      "inputs": [],
      "name": "getChainlinkToken",
      "outputs": [
        {
          "internalType": "address",
          "name": "",
          "type": "address"
        }
      ],
      "stateMutability": "view",
      "type": "function"
    },
    {
      "inputs": [
        {
          "internalType": "string",
          "name": "",
          "type": "string"
        }
      ],
      "name": "isRequested",
      "outputs": [
        {
          "internalType": "bool",
          "name": "",
          "type": "bool"
        }
      ],
      "stateMutability": "view",
      "type": "function"
    },
    {
      "inputs": [],
      "name": "jobId",
      "outputs": [
        {
          "internalType": "bytes32",
          "name": "",
          "type": "bytes32"
        }
      ],
      "stateMutability": "view",
      "type": "function"
    },
    {
      "inputs": [],
      "name": "owner",
      "outputs": [
        {
          "internalType": "address",
          "name": "",
          "type": "address"
        }
      ],
      "stateMutability": "view",
      "type": "function"
    },
    {
      "inputs": [],
      "name": "renounceOwnership",
      "outputs": [],
      "stateMutability": "nonpayable",
      "type": "function"
    },
    {
      "inputs": [],
      "name": "requestFee",
      "outputs": [
        {
          "internalType": "uint256",
          "name": "",
          "type": "uint256"
        }
      ],
      "stateMutability": "view",
      "type": "function"
    },
    {
      "inputs": [
        {
          "internalType": "address",
          "name": "newOwner",
          "type": "address"
        }
      ],
      "name": "transferOwnership",
      "outputs": [],
      "stateMutability": "nonpayable",
      "type": "function"
    },
    {
      "inputs": [
        {
          "internalType": "address",
          "name": "_oracle",
          "type": "address"
        }
      ],
      "name": "updateChainlinkOracle",
      "outputs": [],
      "stateMutability": "nonpayable",
      "type": "function"
    },
    {
      "inputs": [
        {
          "internalType": "bytes32",
          "name": "_jobId",
          "type": "bytes32"
        }
      ],
      "name": "updateJobId",
      "outputs": [],
      "stateMutability": "nonpayable",
      "type": "function"
    },
    {
      "inputs": [
        {
          "internalType": "uint256",
          "name": "_requestFee",
          "type": "uint256"
        }
      ],
      "name": "updateRequestFee",
      "outputs": [],
      "stateMutability": "nonpayable",
      "type": "function"
    },
    {
      "inputs": [],
      "name": "withdrawLink",
      "outputs": [],
      "stateMutability": "nonpayable",
      "type": "function"
    }
  ],
  "transactionHash": "0xb983172d9d7a33197d4e8374db827ca42450f0c60e485a3e870ec2173a1c503e",
  "args": [
    "0x04A909955AcF331Ca73066bfc3c0F490cd2908e3",
    "0x3863356238303064333165633439633138303465663832376265383163306663",
    "100000000000000000",
    "0x01BE23585060835E02B77ef475b0Cc51aA1e0709",
    "0x46494c0000000000000000000000000000000000000000000000000000000000",
    "0x604BC283e44389549733751Fb9bcfBbcbD89E47a"
  ],
  "numDeployments": 1,
  "solcInputHash": "58bec008f567b23afb790d5d6fbc8a26",
  "bytecode": "0x608060405260016004553480156200001657600080fd5b50604051620018d9380380620018d983398101604081905262000039916200021b565b600062000045620000fb565b600680546001600160a01b0319166001600160a01b038316908117909155604051919250906000907f8be0079c531659141344cd1fd0a4f28419497f9722a3daafe3b4186f6b6457e0908290a3506200009e86620000ff565b6008859055600a8290556009849055600b80546001600160a01b0319166001600160a01b03838116919091179091558316620000e457620000de62000121565b620000ef565b620000ef83620001b6565b50505050505062000283565b3390565b600380546001600160a01b0319166001600160a01b0392909216919091179055565b620001b473c89bd4e1632d3a43cb03aaad5262cbe4038bc5716001600160a01b03166338cc48316040518163ffffffff1660e01b815260040160206040518083038186803b1580156200017357600080fd5b505afa15801562000188573d6000803e3d6000fd5b505050506040513d601f19601f82011682018060405250810190620001ae9190620001f6565b620001b6565b565b600280546001600160a01b0319166001600160a01b0392909216919091179055565b80516001600160a01b0381168114620001f057600080fd5b92915050565b60006020828403121562000208578081fd5b620002148383620001d8565b9392505050565b60008060008060008060c0878903121562000234578182fd5b620002408888620001d8565b955060208701519450604087015193506200025f8860608901620001d8565b925060808701519150620002778860a08901620001d8565b90509295509295509295565b61164680620002936000396000f3fe608060405234801561001057600080fd5b50600436106101005760003560e01c806393026e4111610097578063d4bd499311610066578063d4bd4993146101d9578063eb2e578b146101ec578063f0ace3ff146101f4578063f2fde38b146101fc57610100565b806393026e41146101a3578063a5f7379f146101b6578063c2939d97146101be578063ca4f2afc146101c657610100565b806370015371116100d35780637001537114610178578063715018a61461018b5780638da5cb5b146101935780638dc654a21461019b57610100565b8063103cd6c814610105578063165d35e11461011a5780631b146ecf146101385780634437f3da14610158575b600080fd5b6101186101133660046110ab565b61020f565b005b61012261025c565b60405161012f91906112ce565b60405180910390f35b61014b6101463660046111bb565b61026b565b60405161012f9190611395565b61016b6101663660046111bb565b610343565b60405161012f919061138a565b6101186101863660046110ab565b610363565b6101186103a7565b610122610430565b61011861043f565b6101186101b1366004611106565b6105a4565b61014b610765565b61014b61076b565b6101186101d43660046110c3565b610771565b6101186101e7366004611064565b6107cb565b61014b610813565b610122610819565b61011861020a366004611064565b610823565b6102176108e4565b6001600160a01b0316610228610430565b6001600160a01b0316146102575760405162461bcd60e51b815260040161024e9061155b565b60405180910390fd5b600955565b60006102666108e8565b905090565b60006102756108f7565b60078260405161028591906112b2565b9081526040519081900360200190205460ff16156102b55760405162461bcd60e51b815260040161024e90611448565b60016007836040516102c791906112b2565b908152604051908190036020019020805491151560ff199092169190911790556102ef610f9f565b60085461030490306393026e4160e01b610923565b6040805180820190915260068152650e8f090c2e6d60d31b602082015290915061033090829085610948565b61033c81600954610966565b9392505050565b805160208183018101805160078252928201919093012091525460ff1681565b61036b6108e4565b6001600160a01b031661037c610430565b6001600160a01b0316146103a25760405162461bcd60e51b815260040161024e9061155b565b600855565b6103af6108e4565b6001600160a01b03166103c0610430565b6001600160a01b0316146103e65760405162461bcd60e51b815260040161024e9061155b565b6006546040516000916001600160a01b0316907f8be0079c531659141344cd1fd0a4f28419497f9722a3daafe3b4186f6b6457e0908390a3600680546001600160a01b0319169055565b6006546001600160a01b031690565b6104476108e4565b6001600160a01b0316610458610430565b6001600160a01b03161461047e5760405162461bcd60e51b815260040161024e9061155b565b60006104886108e8565b9050806001600160a01b031663a9059cbb33836001600160a01b03166370a08231306040518263ffffffff1660e01b81526004016104c691906112ce565b60206040518083038186803b1580156104de57600080fd5b505afa1580156104f2573d6000803e3d6000fd5b505050506040513d601f19601f82011682018060405250810190610516919061124c565b6040518363ffffffff1660e01b81526004016105339291906112e2565b602060405180830381600087803b15801561054d57600080fd5b505af1158015610561573d6000803e3d6000fd5b505050506040513d601f19601f82011682018060405250810190610585919061108b565b6105a15760405162461bcd60e51b815260040161024e9061152f565b50565b60008981526005602052604090205489906001600160a01b031633146105dc5760405162461bcd60e51b815260040161024e90611590565b60008181526005602052604080822080546001600160a01b03191690555182917f7cc135e0cebb02c3480ae5d74d377283180a2601f8f644edf7987b009316c63a91a2610627610fd4565b6040518060a001604052808b8b8080601f016020809104026020016040519081016040528093929190818152602001838380828437600092019190915250505090825250604080516020601f8c018190048102820181019092528a815291810191908b908b9081908401838280828437600092019190915250505090825250602080820189905260408083018990528051601f88018390048302810183019091528681526060909201919087908790819084018382808284376000920191909152505050915250600b54600a546040516322f6d30360e21b81529293506001600160a01b0390911691638bdb4c0c91610726918f91869160040161139e565b600060405180830381600087803b15801561074057600080fd5b505af1158015610754573d6000803e3d6000fd5b505050505050505050505050505050565b600a5481565b60085481565b6107796108e4565b6001600160a01b031661078a610430565b6001600160a01b0316146107b05760405162461bcd60e51b815260040161024e9061155b565b6107b86108f7565b6107c6836009548484610989565b505050565b6107d36108e4565b6001600160a01b03166107e4610430565b6001600160a01b03161461080a5760405162461bcd60e51b815260040161024e9061155b565b6105a181610a47565b60095481565b6000610266610a69565b61082b6108e4565b6001600160a01b031661083c610430565b6001600160a01b0316146108625760405162461bcd60e51b815260040161024e9061155b565b6001600160a01b0381166108885760405162461bcd60e51b815260040161024e90611477565b6006546040516001600160a01b038084169216907f8be0079c531659141344cd1fd0a4f28419497f9722a3daafe3b4186f6b6457e090600090a3600680546001600160a01b0319166001600160a01b0392909216919091179055565b3390565b6002546001600160a01b031690565b600b546001600160a01b031633146109215760405162461bcd60e51b815260040161024e90611500565b565b61092b610f9f565b610933610f9f565b61093f81868686610a78565b95945050505050565b60808301516109579083610abe565b60808301516107c69082610abe565b600354600090610980906001600160a01b03168484610ad5565b90505b92915050565b60008481526005602052604080822080546001600160a01b0319811690915590516001600160a01b039091169186917fe1fe3afa0f7f761ff0a8b89086790efd5140d2907ebd5b7ff6bfcb5e075fd4c59190a2604051636ee4d55360e01b81526001600160a01b03821690636ee4d55390610a0e908890889088908890600401611423565b600060405180830381600087803b158015610a2857600080fd5b505af1158015610a3c573d6000803e3d6000fd5b505050505050505050565b600380546001600160a01b0319166001600160a01b0392909216919091179055565b6003546001600160a01b031690565b610a80610f9f565b610a908560800151610100610b5e565b50508284526001600160a01b03821660208501526001600160e01b031981166040850152835b949350505050565b610acb8260038351610b98565b6107c68282610cb3565b600480546001808201909255835160408086015160808701515191516000956060946320214ca360e11b94610b14948994859430938b926024016112fb565b60408051601f198184030181529190526020810180516001600160e01b03166001600160e01b0319909316929092179091529050610b5486838684610ccd565b9695505050505050565b610b66611003565b6020820615610b7b5760208206602003820191505b506020828101829052604080518085526000815290920101905290565b60178167ffffffffffffffff1611610bc357610bbd8360e0600585901b168317610deb565b506107c6565b60ff8167ffffffffffffffff1611610c0157610bea836018611fe0600586901b1617610deb565b50610bbd8367ffffffffffffffff83166001610e03565b61ffff8167ffffffffffffffff1611610c4057610c29836019611fe0600586901b1617610deb565b50610bbd8367ffffffffffffffff83166002610e03565b63ffffffff8167ffffffffffffffff1611610c8157610c6a83601a611fe0600586901b1617610deb565b50610bbd8367ffffffffffffffff83166004610e03565b610c9683601b611fe0600586901b1617610deb565b50610cad8367ffffffffffffffff83166008610e03565b50505050565b610cbb611003565b61098083846000015151848551610e1c565b60003084604051602001610ce2929190611290565b60408051808303601f1901815282825280516020918201206000818152600590925291812080546001600160a01b0319166001600160a01b038a1617905590925082917fb5e6e01e79f91267dc17b4e6314d5d4d03593d2ceee0fbb452b750bd70ea5af99190a2600254604051630200057560e51b81526001600160a01b0390911690634000aea090610d7d90889087908790600401611363565b602060405180830381600087803b158015610d9757600080fd5b505af1158015610dab573d6000803e3d6000fd5b505050506040513d601f19601f82011682018060405250810190610dcf919061108b565b610ab65760405162461bcd60e51b815260040161024e906114bd565b610df3611003565b6109808384600001515184610ec8565b610e0b611003565b610ab6848560000151518585610f13565b610e24611003565b8251821115610e3257600080fd5b84602001518285011115610e5c57610e5c85610e548760200151878601610f71565b600202610f88565b600080865180518760208301019350808887011115610e7b5787860182525b505050602084015b60208410610ea25780518252601f199093019260209182019101610e83565b51815160001960208690036101000a019081169019919091161790525083949350505050565b610ed0611003565b83602001518310610eec57610eec848560200151600202610f88565b835180516020858301018481535080851415610f09576001810182525b5093949350505050565b610f1b611003565b84602001518483011115610f3857610f3885858401600202610f88565b60006001836101000a039050855183868201018583198251161781525080518487011115610f665783860181525b509495945050505050565b600081831115610f82575081610983565b50919050565b8151610f948383610b5e565b50610cad8382610cb3565b6040805160a081018252600080825260208201819052918101829052606081019190915260808101610fcf611003565b905290565b6040518060a0016040528060608152602001606081526020016000815260200160008152602001606081525090565b604051806040016040528060608152602001600081525090565b60008083601f84011261102e578182fd5b50813567ffffffffffffffff811115611045578182fd5b60208301915083602082850101111561105d57600080fd5b9250929050565b600060208284031215611075578081fd5b81356001600160a01b038116811461033c578182fd5b60006020828403121561109c578081fd5b8151801515811461033c578182fd5b6000602082840312156110bc578081fd5b5035919050565b6000806000606084860312156110d7578182fd5b8335925060208401356001600160e01b0319811681146110f5578283fd5b929592945050506040919091013590565b600080600080600080600080600060c08a8c031215611123578485fd5b8935985060208a013567ffffffffffffffff80821115611141578687fd5b61114d8d838e0161101d565b909a50985060408c0135915080821115611165578687fd5b6111718d838e0161101d565b909850965060608c0135955060808c0135945060a08c0135915080821115611197578384fd5b506111a48c828d0161101d565b915080935050809150509295985092959850929598565b6000602082840312156111cc578081fd5b813567ffffffffffffffff808211156111e3578283fd5b818401915084601f8301126111f6578283fd5b813581811115611204578384fd5b604051601f8201601f191681016020018381118282101715611224578586fd5b60405281815283820160200187101561123b578485fd5b610b548260208301602087016115d8565b60006020828403121561125d578081fd5b5051919050565b6000815180845261127c8160208601602086016115e4565b601f01601f19169290920160200192915050565b60609290921b6bffffffffffffffffffffffff19168252601482015260340190565b600082516112c48184602087016115e4565b9190910192915050565b6001600160a01b0391909116815260200190565b6001600160a01b03929092168252602082015260400190565b6001600160a01b0389811682526020820189905260408201889052861660608201526001600160e01b03198516608082015260a0810184905260c0810183905261010060e0820181905260009061135483820185611264565b9b9a5050505050505050505050565b600060018060a01b03851682528360208301526060604083015261093f6060830184611264565b901515815260200190565b90815260200190565b600084825260606020830152835160a060608401526113c1610100840182611264565b90506020850151605f19808584030160808601526113df8383611264565b9250604087015160a0860152606087015160c086015260808701519150808584030160e0860152506114118282611264565b92505050826040830152949350505050565b93845260208401929092526001600160e01b0319166040830152606082015260800190565b602080825260159082015274524551554553545f45584953545f414c524541445960581b604082015260600190565b60208082526026908201527f4f776e61626c653a206e6577206f776e657220697320746865207a65726f206160408201526564647265737360d01b606082015260800190565b60208082526023908201527f756e61626c6520746f207472616e73666572416e6443616c6c20746f206f7261604082015262636c6560e81b606082015260800190565b6020808252601590820152744e4f545f534554544c454d454e545f454e47494e4560581b604082015260600190565b6020808252601290820152712ab730b13632903a37903a3930b739b332b960711b604082015260600190565b6020808252818101527f4f776e61626c653a2063616c6c6572206973206e6f7420746865206f776e6572604082015260600190565b60208082526028908201527f536f75726365206d75737420626520746865206f7261636c65206f6620746865604082015267081c995c5d595cdd60c21b606082015260800190565b82818337506000910152565b60005b838110156115ff5781810151838201526020016115e7565b83811115610cad575050600091015256fea2646970667358221220b78a2b3ca6e437c14cfdd42dc15f1b54289aa841723631ed91d7cc6e4c3972e064736f6c63430007000033",
  "devdoc": {
    "kind": "dev",
    "methods": {
      "cancelRequest(bytes32,bytes4,uint256)": {
        "details": "Triggers to cancell a request if it has not been fulfilled",
        "params": {
          "_callbackFunctionId": "The callback function specified for the request",
          "_expiration": "The time of the expiration for the request",
          "_requestId": "The id to specify a request"
        }
      },
      "constructor": {
        "details": "Contract constructor function.",
        "params": {
          "_jobId": "The job id on the Cahinlink node",
          "_link": "The address of the LINK token contract",
          "_oracle": "The address of the oracle contract",
          "_requestFee": "The amount of LINK sent for the request"
        }
      },
      "createRequest(string)": {
        "details": "Triggers to request the data from Chainlink External Adaptor. This function specify a callback function name",
        "params": {
          "_txHash": "The hash that is specify the data to get"
        }
      },
      "fulfill(bytes32,string,string,uint256,uint256,string)": {
        "details": "Triggers to receive the data from a job that is specified by `createRequestTo` function. This function name is specified when `buildChainlinkRequest` is called",
        "params": {
          "_from": "The from address of the data received",
          "_requestId": "The id to specify a request",
          "_timestamp": "The timestamp of the data received",
          "_to": "The to address of the data received",
          "_value": "The value of the data received"
        }
      },
      "getChainlinkOracle()": {
        "details": "Gets contract address of the oracle that is set at constructor",
        "returns": {
          "_0": "address The address of the oracle contract"
        }
      },
      "getChainlinkToken()": {
        "details": "Gets contract address of the LINK token that is set at constructor",
        "returns": {
          "_0": "address The address of the LINK token"
        }
      },
      "owner()": {
        "details": "Returns the address of the current owner."
      },
      "renounceOwnership()": {
        "details": "Leaves the contract without owner. It will not be possible to call `onlyOwner` functions anymore. Can only be called by the current owner. NOTE: Renouncing ownership will leave the contract without an owner, thereby removing any functionality that is only available to the owner."
      },
      "transferOwnership(address)": {
        "details": "Transfers ownership of the contract to a new account (`newOwner`). Can only be called by the current owner."
      },
      "updateChainlinkOracle(address)": {
        "details": "Updates the stored oracle address",
        "params": {
          "_oracle": "The address of the oracle contract"
        }
      },
      "updateJobId(bytes32)": {
        "details": "Updates the stored job id",
        "params": {
          "_jobId": "The job id on the Cahinlink node"
        }
      },
      "updateRequestFee(uint256)": {
        "details": "Updates the stored amount of LINK to send for the request",
        "params": {
          "_requestFee": "The amount of LINK sent for the request"
        }
      },
      "withdrawLink()": {
        "details": "Triggers to withdraw LINK Token. LINK token is needed to hold by this contract to use the Chainlink"
      }
    },
    "title": "ChainlinkSettlementAdapter is managing requests to Chainlink for a settlement process.",
    "version": 1
  },
  "userdoc": {
    "kind": "user",
    "methods": {
      "constructor": {
        "notice": "`_link` is provided for development usage"
      }
    },
    "version": 1
  },
  "storageLayout": {
    "storage": [
      {
        "astId": 465,
        "contract": "contracts/ChainlinkSettlementAdaptor.sol:ChainlinkSettlementAdapter",
        "label": "s_ens",
        "offset": 0,
        "slot": "0",
        "type": "t_contract(ENSInterface)2582"
      },
      {
        "astId": 467,
        "contract": "contracts/ChainlinkSettlementAdaptor.sol:ChainlinkSettlementAdapter",
        "label": "s_ensNode",
        "offset": 0,
        "slot": "1",
        "type": "t_bytes32"
      },
      {
        "astId": 469,
        "contract": "contracts/ChainlinkSettlementAdaptor.sol:ChainlinkSettlementAdapter",
        "label": "s_link",
        "offset": 0,
        "slot": "2",
        "type": "t_contract(LinkTokenInterface)2677"
      },
      {
        "astId": 471,
        "contract": "contracts/ChainlinkSettlementAdaptor.sol:ChainlinkSettlementAdapter",
        "label": "s_oracle",
        "offset": 0,
        "slot": "3",
        "type": "t_contract(OperatorInterface)2731"
      },
      {
        "astId": 474,
        "contract": "contracts/ChainlinkSettlementAdaptor.sol:ChainlinkSettlementAdapter",
        "label": "s_requestCount",
        "offset": 0,
        "slot": "4",
        "type": "t_uint256"
      },
      {
        "astId": 478,
        "contract": "contracts/ChainlinkSettlementAdaptor.sol:ChainlinkSettlementAdapter",
        "label": "s_pendingRequests",
        "offset": 0,
        "slot": "5",
        "type": "t_mapping(t_bytes32,t_address)"
      },
      {
        "astId": 4180,
        "contract": "contracts/ChainlinkSettlementAdaptor.sol:ChainlinkSettlementAdapter",
        "label": "_owner",
        "offset": 0,
        "slot": "6",
        "type": "t_address"
      },
      {
        "astId": 6361,
        "contract": "contracts/ChainlinkSettlementAdaptor.sol:ChainlinkSettlementAdapter",
        "label": "isRequested",
        "offset": 0,
        "slot": "7",
        "type": "t_mapping(t_string_memory_ptr,t_bool)"
      },
      {
        "astId": 6363,
        "contract": "contracts/ChainlinkSettlementAdaptor.sol:ChainlinkSettlementAdapter",
        "label": "jobId",
        "offset": 0,
        "slot": "8",
        "type": "t_bytes32"
      },
      {
        "astId": 6365,
        "contract": "contracts/ChainlinkSettlementAdaptor.sol:ChainlinkSettlementAdapter",
        "label": "requestFee",
        "offset": 0,
        "slot": "9",
        "type": "t_uint256"
      },
      {
        "astId": 6367,
        "contract": "contracts/ChainlinkSettlementAdaptor.sol:ChainlinkSettlementAdapter",
        "label": "ccy",
        "offset": 0,
        "slot": "10",
        "type": "t_bytes32"
      },
      {
        "astId": 6369,
        "contract": "contracts/ChainlinkSettlementAdaptor.sol:ChainlinkSettlementAdapter",
        "label": "settlementEngine",
        "offset": 0,
        "slot": "11",
        "type": "t_contract(ISettlementEngine)6782"
      }
    ],
    "types": {
      "t_address": {
        "encoding": "inplace",
        "label": "address",
        "numberOfBytes": "20"
      },
      "t_bool": {
        "encoding": "inplace",
        "label": "bool",
        "numberOfBytes": "1"
      },
      "t_bytes32": {
        "encoding": "inplace",
        "label": "bytes32",
        "numberOfBytes": "32"
      },
      "t_contract(ENSInterface)2582": {
        "encoding": "inplace",
        "label": "contract ENSInterface",
        "numberOfBytes": "20"
      },
      "t_contract(ISettlementEngine)6782": {
        "encoding": "inplace",
        "label": "contract ISettlementEngine",
        "numberOfBytes": "20"
      },
      "t_contract(LinkTokenInterface)2677": {
        "encoding": "inplace",
        "label": "contract LinkTokenInterface",
        "numberOfBytes": "20"
      },
      "t_contract(OperatorInterface)2731": {
        "encoding": "inplace",
        "label": "contract OperatorInterface",
        "numberOfBytes": "20"
      },
      "t_mapping(t_bytes32,t_address)": {
        "encoding": "mapping",
        "key": "t_bytes32",
        "label": "mapping(bytes32 => address)",
        "numberOfBytes": "32",
        "value": "t_address"
      },
      "t_mapping(t_string_memory_ptr,t_bool)": {
        "encoding": "mapping",
        "key": "t_string_memory_ptr",
        "label": "mapping(string => bool)",
        "numberOfBytes": "32",
        "value": "t_bool"
      },
      "t_string_memory_ptr": {
        "encoding": "bytes",
        "label": "string",
        "numberOfBytes": "32"
      },
      "t_uint256": {
        "encoding": "inplace",
        "label": "uint256",
        "numberOfBytes": "32"
      }
    }
  }
}