{
  "address": "0x96e34Ac382f42F271fD001C7df91AA3Cd493d60c",
  "abi": [
    {
      "inputs": [
        {
          "internalType": "address",
          "name": "_resolver",
          "type": "address"
        },
        {
          "internalType": "address",
          "name": "_oracle",
          "type": "address"
        },
        {
          "internalType": "bytes32",
          "name": "_jobId",
          "type": "bytes32"
        },
        {
          "internalType": "uint256",
          "name": "_requestFee",
          "type": "uint256"
        },
        {
          "internalType": "address",
          "name": "_link",
          "type": "address"
        },
        {
          "internalType": "bytes32",
          "name": "_ccy",
          "type": "bytes32"
        }
      ],
      "stateMutability": "nonpayable",
      "type": "constructor"
    },
    {
      "anonymous": false,
      "inputs": [
        {
          "indexed": false,
          "internalType": "bytes32",
          "name": "name",
          "type": "bytes32"
        },
        {
          "indexed": false,
          "internalType": "address",
          "name": "destination",
          "type": "address"
        }
      ],
      "name": "CacheUpdated",
      "type": "event"
    },
    {
      "anonymous": false,
      "inputs": [
        {
          "indexed": true,
          "internalType": "bytes32",
          "name": "id",
          "type": "bytes32"
        }
      ],
      "name": "ChainlinkCancelled",
      "type": "event"
    },
    {
      "anonymous": false,
      "inputs": [
        {
          "indexed": true,
          "internalType": "bytes32",
          "name": "id",
          "type": "bytes32"
        }
      ],
      "name": "ChainlinkFulfilled",
      "type": "event"
    },
    {
      "anonymous": false,
      "inputs": [
        {
          "indexed": true,
          "internalType": "bytes32",
          "name": "id",
          "type": "bytes32"
        }
      ],
      "name": "ChainlinkRequested",
      "type": "event"
    },
    {
      "anonymous": false,
      "inputs": [
        {
          "indexed": true,
          "internalType": "address",
          "name": "previousOwner",
          "type": "address"
        },
        {
          "indexed": true,
          "internalType": "address",
          "name": "newOwner",
          "type": "address"
        }
      ],
      "name": "OwnershipTransferred",
      "type": "event"
    },
    {
      "inputs": [],
      "name": "acceptedContracts",
      "outputs": [
        {
          "internalType": "bytes32[]",
          "name": "contracts",
          "type": "bytes32[]"
        }
      ],
      "stateMutability": "pure",
      "type": "function"
    },
    {
      "inputs": [],
      "name": "buildCache",
      "outputs": [],
      "stateMutability": "nonpayable",
      "type": "function"
    },
    {
      "inputs": [
        {
          "internalType": "string",
          "name": "_txHash",
          "type": "string"
        },
        {
          "internalType": "bytes32",
          "name": "_requestId",
          "type": "bytes32"
        },
        {
          "internalType": "bytes4",
          "name": "_callbackFunctionId",
          "type": "bytes4"
        },
        {
          "internalType": "uint256",
          "name": "_expiration",
          "type": "uint256"
        }
      ],
      "name": "cancelRequest",
      "outputs": [],
      "stateMutability": "nonpayable",
      "type": "function"
    },
    {
      "inputs": [],
      "name": "ccy",
      "outputs": [
        {
          "internalType": "bytes32",
          "name": "",
          "type": "bytes32"
        }
      ],
      "stateMutability": "view",
      "type": "function"
    },
    {
      "inputs": [
        {
          "internalType": "string",
          "name": "_txHash",
          "type": "string"
        }
      ],
      "name": "createRequest",
      "outputs": [
        {
          "internalType": "bytes32",
          "name": "requestId",
          "type": "bytes32"
        }
      ],
      "stateMutability": "nonpayable",
      "type": "function"
    },
    {
      "inputs": [
        {
          "internalType": "bytes32",
          "name": "_requestId",
          "type": "bytes32"
        },
        {
          "internalType": "string",
          "name": "_from",
          "type": "string"
        },
        {
          "internalType": "string",
          "name": "_to",
          "type": "string"
        },
        {
          "internalType": "uint256",
          "name": "_value",
          "type": "uint256"
        },
        {
          "internalType": "uint256",
          "name": "_timestamp",
          "type": "uint256"
        },
        {
          "internalType": "string",
          "name": "_txHash",
          "type": "string"
        }
      ],
      "name": "fulfill",
      "outputs": [],
      "stateMutability": "nonpayable",
      "type": "function"
    },
    {
      "inputs": [],
      "name": "getChainlinkOracle",
      "outputs": [
        {
          "internalType": "address",
          "name": "",
          "type": "address"
        }
      ],
      "stateMutability": "view",
      "type": "function"
    },
    {
      "inputs": [],
      "name": "getChainlinkToken",
      "outputs": [
        {
          "internalType": "address",
          "name": "",
          "type": "address"
        }
      ],
      "stateMutability": "view",
      "type": "function"
    },
    {
      "inputs": [
        {
          "internalType": "string",
          "name": "",
          "type": "string"
        }
      ],
      "name": "isRequested",
      "outputs": [
        {
          "internalType": "bool",
          "name": "",
          "type": "bool"
        }
      ],
      "stateMutability": "view",
      "type": "function"
    },
    {
      "inputs": [],
      "name": "isResolverCached",
      "outputs": [
        {
          "internalType": "bool",
          "name": "",
          "type": "bool"
        }
      ],
      "stateMutability": "view",
      "type": "function"
    },
    {
      "inputs": [],
      "name": "jobId",
      "outputs": [
        {
          "internalType": "bytes32",
          "name": "",
          "type": "bytes32"
        }
      ],
      "stateMutability": "view",
      "type": "function"
    },
    {
      "inputs": [],
      "name": "owner",
      "outputs": [
        {
          "internalType": "address",
          "name": "",
          "type": "address"
        }
      ],
      "stateMutability": "view",
      "type": "function"
    },
    {
      "inputs": [],
      "name": "renounceOwnership",
      "outputs": [],
      "stateMutability": "nonpayable",
      "type": "function"
    },
    {
      "inputs": [],
      "name": "requestFee",
      "outputs": [
        {
          "internalType": "uint256",
          "name": "",
          "type": "uint256"
        }
      ],
      "stateMutability": "view",
      "type": "function"
    },
    {
      "inputs": [],
      "name": "requiredContracts",
      "outputs": [
        {
          "internalType": "bytes32[]",
          "name": "contracts",
          "type": "bytes32[]"
        }
      ],
      "stateMutability": "pure",
      "type": "function"
    },
    {
      "inputs": [],
      "name": "resolver",
      "outputs": [
        {
          "internalType": "contract IAddressResolver",
          "name": "",
          "type": "address"
        }
      ],
      "stateMutability": "view",
      "type": "function"
    },
    {
      "inputs": [
        {
          "internalType": "address",
          "name": "newOwner",
          "type": "address"
        }
      ],
      "name": "transferOwnership",
      "outputs": [],
      "stateMutability": "nonpayable",
      "type": "function"
    },
    {
      "inputs": [
        {
          "internalType": "address",
          "name": "_oracle",
          "type": "address"
        }
      ],
      "name": "updateChainlinkOracle",
      "outputs": [],
      "stateMutability": "nonpayable",
      "type": "function"
    },
    {
      "inputs": [
        {
          "internalType": "bytes32",
          "name": "_jobId",
          "type": "bytes32"
        }
      ],
      "name": "updateJobId",
      "outputs": [],
      "stateMutability": "nonpayable",
      "type": "function"
    },
    {
      "inputs": [
        {
          "internalType": "uint256",
          "name": "_requestFee",
          "type": "uint256"
        }
      ],
      "name": "updateRequestFee",
      "outputs": [],
      "stateMutability": "nonpayable",
      "type": "function"
    },
    {
      "inputs": [],
      "name": "withdrawLink",
      "outputs": [],
      "stateMutability": "nonpayable",
      "type": "function"
    }
  ],
  "transactionHash": "0x15073bca241ccd1244659d2730d7e8ad89d267c839ec28cf34bba5706861893e",
  "args": [
    "0x275C4dB71D0cF1de1487bE2f27c636A900ab4720",
    "0x881704d032b7F6fE2E3Dc3E0e6cE05747F2c664D",
    "0x3863356238303064333165633439633138303465663832376265383163306663",
    "100000000000000000",
    "0x01BE23585060835E02B77ef475b0Cc51aA1e0709",
    "0x46494c0000000000000000000000000000000000000000000000000000000000"
  ],
  "numDeployments": 2,
  "solcInputHash": "0fd5a5d025de86963d36bd38be3b6dce",
  "bytecode": "0x608060405260016004553480156200001657600080fd5b506040516200225f3803806200225f833981016040819052620000399162000469565b6200004433620000ca565b6200004f866200011c565b600380546001600160a01b0319166001600160a01b038716179055600a849055600c819055600b8390556001600160a01b0382166200009857620000926200019c565b620000b4565b600280546001600160a01b0319166001600160a01b0384161790555b620000be6200024d565b50505050505062000594565b600880546001600160a01b038381166001600160a01b0319831681179093556040519116919082907f8be0079c531659141344cd1fd0a4f28419497f9722a3daafe3b4186f6b6457e090600090a35050565b6006546001600160a01b0316156200017a5760405162461bcd60e51b815260206004820152601b60248201527f7265736f6c766572207265676973746572656420616c72656164790000000000604482015260640160405180910390fd5b600680546001600160a01b0319166001600160a01b0392909216919091179055565b6200024b73c89bd4e1632d3a43cb03aaad5262cbe4038bc5716001600160a01b03166338cc48316040518163ffffffff1660e01b815260040160206040518083038186803b158015620001ee57600080fd5b505afa15801562000203573d6000803e3d6000fd5b505050506040513d601f19601f82011682018060405250810190620002299190620004cf565b600280546001600160a01b0319166001600160a01b0392909216919091179055565b565b600062000259620003f1565b905060005b8151811015620003ed5760008282815181106200027f576200027f620004f4565b602002602001015190506000600660009054906101000a90046001600160a01b03166001600160a01b0316636795dbcd8384604051602001620002ee91907f5265736f6c766572206d697373696e67207461726765743a20000000000000008152601981019190915260390190565b6040516020818303038152906040526040518363ffffffff1660e01b81526004016200031c9291906200050a565b60206040518083038186803b1580156200033557600080fd5b505afa1580156200034a573d6000803e3d6000fd5b505050506040513d601f19601f82011682018060405250810190620003709190620004cf565b60008381526007602090815260409182902080546001600160a01b0319166001600160a01b0385169081179091558251868152918201529192507f88a93678a3692f6789d9546fc621bf7234b101ddb7d4fe479455112831b8aa68910160405180910390a150508080620003e4906200056a565b9150506200025e565b5050565b604080516001808252818301909252606091602080830190803683370190505090506f536574746c656d656e74456e67696e6560801b816000815181106200043d576200043d620004f4565b60200260200101818152505090565b80516001600160a01b03811681146200046457600080fd5b919050565b60008060008060008060c087890312156200048357600080fd5b6200048e876200044c565b95506200049e602088016200044c565b94506040870151935060608701519250620004bc608088016200044c565b915060a087015190509295509295509295565b600060208284031215620004e257600080fd5b620004ed826200044c565b9392505050565b634e487b7160e01b600052603260045260246000fd5b82815260006020604081840152835180604085015260005b81811015620005405785810183015185820160600152820162000522565b8181111562000553576000606083870101525b50601f01601f191692909201606001949350505050565b60006000198214156200058d57634e487b7160e01b600052601160045260246000fd5b5060010190565b611cbb80620005a46000396000f3fe608060405234801561001057600080fd5b50600436106101375760003560e01c80638da5cb5b116100b8578063d4bd49931161007c578063d4bd499314610266578063da4a7fa714610279578063e0997659146101ca578063eb2e578b1461028c578063f0ace3ff14610295578063f2fde38b1461029d57600080fd5b80638da5cb5b146102285780638dc654a21461023957806393026e4114610241578063a5f7379f14610254578063c2939d971461025d57600080fd5b80632af64bd3116100ff5780632af64bd3146101b25780633d03b9da146101ca5780634437f3da146101df578063700153711461020d578063715018a61461022057600080fd5b806304f3bcec1461013c578063103cd6c81461016c578063165d35e1146101815780631b146ecf1461018957806329985e5a146101aa575b600080fd5b60065461014f906001600160a01b031681565b6040516001600160a01b0390911681526020015b60405180910390f35b61017f61017a3660046115cb565b6102b0565b005b61014f6102e8565b61019c610197366004611686565b610301565b604051908152602001610163565b61017f610443565b6101ba6105d7565b6040519015158152602001610163565b6101d26106f7565b60405161016391906116ba565b6101ba6101ed366004611686565b805160208183018101805160098252928201919093012091525460ff1681565b61017f61021b3660046115cb565b61074f565b61017f61077e565b6008546001600160a01b031661014f565b61017f6107b4565b61017f61024f366004611746565b610938565b61019c600c5481565b61019c600a5481565b61017f610274366004611813565b610b32565b61017f610287366004611830565b610b7a565b61019c600b5481565b61014f610c11565b61017f6102ab366004611813565b610c25565b6008546001600160a01b031633146102e35760405162461bcd60e51b81526004016102da9061189d565b60405180910390fd5b600b55565b60006102fc6002546001600160a01b031690565b905090565b600061030c33610cbd565b6103525760405162461bcd60e51b81526020600482015260176024820152764f6e6c7920416363657074656420436f6e74726163747360481b60448201526064016102da565b60098260405161036291906118fe565b9081526040519081900360200190205460ff16156103ba5760405162461bcd60e51b8152602060048201526015602482015274524551554553545f45584953545f414c524541445960581b60448201526064016102da565b60016009836040516103cc91906118fe565b908152604051908190036020019020805491151560ff19909216919091179055600a5460009061040490306393026e4160e01b610d37565b6040805180820190915260068152650e8f090c2e6d60d31b602082015290915061043090829085610d5c565b61043c81600b54610d7f565b9392505050565b600061044d6106f7565b905060005b81518110156105d357600082828151811061046f5761046f61191a565b602002602001015190506000600660009054906101000a90046001600160a01b03166001600160a01b0316636795dbcd83846040516020016104dd91907f5265736f6c766572206d697373696e67207461726765743a20000000000000008152601981019190915260390190565b6040516020818303038152906040526040518363ffffffff1660e01b815260040161050992919061195c565b60206040518083038186803b15801561052157600080fd5b505afa158015610535573d6000803e3d6000fd5b505050506040513d601f19601f820116820180604052508101906105599190611975565b60008381526007602090815260409182902080546001600160a01b0319166001600160a01b0385169081179091558251868152918201529192507f88a93678a3692f6789d9546fc621bf7234b101ddb7d4fe479455112831b8aa68910160405180910390a1505080806105cb906119a8565b915050610452565b5050565b6000806105e26106f7565b905060005b81518110156106ee5760008282815181106106045761060461191a565b602090810291909101810151600081815260079092526040918290205460065492516321f8a72160e01b8152600481018390529193506001600160a01b039081169216906321f8a7219060240160206040518083038186803b15801561066957600080fd5b505afa15801561067d573d6000803e3d6000fd5b505050506040513d601f19601f820116820180604052508101906106a19190611975565b6001600160a01b03161415806106cc57506000818152600760205260409020546001600160a01b0316155b156106db576000935050505090565b50806106e6816119a8565b9150506105e7565b50600191505090565b604080516001808252818301909252606091602080830190803683370190505090506f536574746c656d656e74456e67696e6560801b816000815181106107405761074061191a565b60200260200101818152505090565b6008546001600160a01b031633146107795760405162461bcd60e51b81526004016102da9061189d565b600a55565b6008546001600160a01b031633146107a85760405162461bcd60e51b81526004016102da9061189d565b6107b26000610da2565b565b6008546001600160a01b031633146107de5760405162461bcd60e51b81526004016102da9061189d565b60006107f26002546001600160a01b031690565b6040516370a0823160e01b81523060048201529091506001600160a01b0382169063a9059cbb90339083906370a082319060240160206040518083038186803b15801561083e57600080fd5b505afa158015610852573d6000803e3d6000fd5b505050506040513d601f19601f8201168201806040525081019061087691906119c3565b6040516001600160e01b031960e085901b1681526001600160a01b0390921660048301526024820152604401602060405180830381600087803b1580156108bc57600080fd5b505af11580156108d0573d6000803e3d6000fd5b505050506040513d601f19601f820116820180604052508101906108f491906119dc565b6109355760405162461bcd60e51b81526020600482015260126024820152712ab730b13632903a37903a3930b739b332b960711b60448201526064016102da565b50565b60008981526005602052604090205489906001600160a01b031633146109b15760405162461bcd60e51b815260206004820152602860248201527f536f75726365206d75737420626520746865206f7261636c65206f6620746865604482015267081c995c5d595cdd60c21b60648201526084016102da565b60008181526005602052604080822080546001600160a01b03191690555182917f7cc135e0cebb02c3480ae5d74d377283180a2601f8f644edf7987b009316c63a91a26040805160c06020601f8c01819004028201810190925260a081018a81526000928291908d908d9081908501838280828437600092019190915250505090825250604080516020601f8c018190048102820181019092528a815291810191908b908b9081908401838280828437600092019190915250505090825250602080820189905260408083018990528051601f880183900483028101830190915286815260609092019190879087908190840183828082843760009201919091525050509152509050610ac2610df4565b6001600160a01b031663e54189d98c83600c546040518463ffffffff1660e01b8152600401610af3939291906119fe565b600060405180830381600087803b158015610b0d57600080fd5b505af1158015610b21573d6000803e3d6000fd5b505050505050505050505050505050565b6008546001600160a01b03163314610b5c5760405162461bcd60e51b81526004016102da9061189d565b600380546001600160a01b0319166001600160a01b03831617905550565b610b8333610cbd565b610bc95760405162461bcd60e51b81526020600482015260176024820152764f6e6c7920416363657074656420436f6e74726163747360481b60448201526064016102da565b6000600985604051610bdb91906118fe565b908152604051908190036020019020805491151560ff19909216919091179055600b54610c0b9084908484610e12565b50505050565b60006102fc6003546001600160a01b031690565b6008546001600160a01b03163314610c4f5760405162461bcd60e51b81526004016102da9061189d565b6001600160a01b038116610cb45760405162461bcd60e51b815260206004820152602660248201527f4f776e61626c653a206e6577206f776e657220697320746865207a65726f206160448201526564647265737360d01b60648201526084016102da565b61093581610da2565b600080610cc86106f7565b905060005b8151811015610d2d57610cf8828281518110610ceb57610ceb61191a565b6020026020010151610ee4565b6001600160a01b0316846001600160a01b03161415610d1b575060019392505050565b80610d25816119a8565b915050610ccd565b5060009392505050565b610d3f611590565b610d47611590565b610d5381868686610f60565b95945050505050565b6080830151610d6b9083610fa6565b6080830151610d7a9082610fa6565b505050565b600354600090610d99906001600160a01b03168484610fbd565b90505b92915050565b600880546001600160a01b038381166001600160a01b0319831681179093556040519116919082907f8be0079c531659141344cd1fd0a4f28419497f9722a3daafe3b4186f6b6457e090600090a35050565b60006102fc6f536574746c656d656e74456e67696e6560801b610ee4565b60008481526005602052604080822080546001600160a01b0319811690915590516001600160a01b039091169186917fe1fe3afa0f7f761ff0a8b89086790efd5140d2907ebd5b7ff6bfcb5e075fd4c59190a2604051636ee4d55360e01b815260048101869052602481018590526001600160e01b031984166044820152606481018390526001600160a01b03821690636ee4d55390608401600060405180830381600087803b158015610ec557600080fd5b505af1158015610ed9573d6000803e3d6000fd5b505050505050505050565b600081815260076020908152604080832054905170026b4b9b9b4b7339030b2323932b9b99d1607d1b92810192909252603182018490526001600160a01b0316908115159060510160405160208183030381529060405290610f595760405162461bcd60e51b81526004016102da9190611a83565b5092915050565b610f68611590565b610f788560800151610100611050565b50508284526001600160a01b03821660208501526001600160e01b031981166040850152835b949350505050565b610fb382600383516110b5565b610d7a82826111bc565b600454600090610fce816001611a96565b600455835160408086015160808701515191516000936320214ca360e11b936110069386938493923092918a91600191602401611aae565b60408051601f198184030181529190526020810180516001600160e01b03166001600160e01b0319909316929092179091529050611046868386846111e3565b9695505050505050565b604080518082019091526060815260006020820152611070602083611b16565b1561109857611080602083611b16565b61108b906020611b38565b6110959083611a96565b91505b506020828101829052604080518085526000815290920101905290565b6017816001600160401b0316116110d957610c0b8360e0600585901b168317611350565b60ff816001600160401b031611611115576110ff836018611fe0600586901b1617611350565b50610c0b836001600160401b0383166001611375565b61ffff816001600160401b0316116111525761113c836019611fe0600586901b1617611350565b50610c0b836001600160401b0383166002611375565b63ffffffff816001600160401b0316116111915761117b83601a611fe0600586901b1617611350565b50610c0b836001600160401b0383166004611375565b6111a683601b611fe0600586901b1617611350565b50610c0b836001600160401b0383166008611375565b604080518082019091526060815260006020820152610d998384600001515184855161139b565b6040516bffffffffffffffffffffffff193060601b1660208201526034810184905260009060540160408051808303601f1901815282825280516020918201206000818152600590925291812080546001600160a01b0319166001600160a01b038a1617905590925082917fb5e6e01e79f91267dc17b4e6314d5d4d03593d2ceee0fbb452b750bd70ea5af99190a2600254604051630200057560e51b81526001600160a01b0390911690634000aea0906112a690889087908790600401611b4f565b602060405180830381600087803b1580156112c057600080fd5b505af11580156112d4573d6000803e3d6000fd5b505050506040513d601f19601f820116820180604052508101906112f891906119dc565b610f9e5760405162461bcd60e51b815260206004820152602360248201527f756e61626c6520746f207472616e73666572416e6443616c6c20746f206f7261604482015262636c6560e81b60648201526084016102da565b604080518082019091526060815260006020820152610d998384600001515184611485565b604080518082019091526060815260006020820152610f9e8485600001515185856114e1565b60408051808201909152606081526000602082015282518211156113be57600080fd5b60208501516113cd8386611a96565b111561140057611400856113f0876020015187866113eb9190611a96565b611562565b6113fb906002611b76565b611579565b60008086518051876020830101935080888701111561141f5787860182525b505050602084015b6020841061145f578051825261143e602083611a96565b915061144b602082611a96565b9050611458602085611b38565b9350611427565b51815160001960208690036101000a019081169019919091161790525083949350505050565b604080518082019091526060815260006020820152836020015183106114ba576114ba84856020015160026113fb9190611b76565b8351805160208583010184815350808514156114d7576001810182525b5093949350505050565b60408051808201909152606081526000602082015260208501516115058584611a96565b111561151957611519856113f08685611a96565b6000600161152984610100611c79565b6115339190611b38565b90508551838682010185831982511617815250805184870111156115575783860181525b509495945050505050565b600081831115611573575081610d9c565b50919050565b81516115858383611050565b50610c0b83826111bc565b6040805160a0810182526000808252602080830182905282840182905260608084018390528451808601909552845283015290608082015290565b6000602082840312156115dd57600080fd5b5035919050565b634e487b7160e01b600052604160045260246000fd5b600082601f83011261160b57600080fd5b81356001600160401b0380821115611625576116256115e4565b604051601f8301601f19908116603f0116810190828211818310171561164d5761164d6115e4565b8160405283815286602085880101111561166657600080fd5b836020870160208301376000602085830101528094505050505092915050565b60006020828403121561169857600080fd5b81356001600160401b038111156116ae57600080fd5b610f9e848285016115fa565b6020808252825182820181905260009190848201906040850190845b818110156116f2578351835292840192918401916001016116d6565b50909695505050505050565b60008083601f84011261171057600080fd5b5081356001600160401b0381111561172757600080fd5b60208301915083602082850101111561173f57600080fd5b9250929050565b600080600080600080600080600060c08a8c03121561176457600080fd5b8935985060208a01356001600160401b038082111561178257600080fd5b61178e8d838e016116fe565b909a50985060408c01359150808211156117a757600080fd5b6117b38d838e016116fe565b909850965060608c0135955060808c0135945060a08c01359150808211156117da57600080fd5b506117e78c828d016116fe565b915080935050809150509295985092959850929598565b6001600160a01b038116811461093557600080fd5b60006020828403121561182557600080fd5b813561043c816117fe565b6000806000806080858703121561184657600080fd5b84356001600160401b0381111561185c57600080fd5b611868878288016115fa565b9450506020850135925060408501356001600160e01b03198116811461188d57600080fd5b9396929550929360600135925050565b6020808252818101527f4f776e61626c653a2063616c6c6572206973206e6f7420746865206f776e6572604082015260600190565b60005b838110156118ed5781810151838201526020016118d5565b83811115610c0b5750506000910152565b600082516119108184602087016118d2565b9190910192915050565b634e487b7160e01b600052603260045260246000fd5b600081518084526119488160208601602086016118d2565b601f01601f19169290920160200192915050565b828152604060208201526000610f9e6040830184611930565b60006020828403121561198757600080fd5b815161043c816117fe565b634e487b7160e01b600052601160045260246000fd5b60006000198214156119bc576119bc611992565b5060010190565b6000602082840312156119d557600080fd5b5051919050565b6000602082840312156119ee57600080fd5b8151801515811461043c57600080fd5b838152606060208201526000835160a06060840152611a21610100840182611930565b90506020850151605f1980858403016080860152611a3f8383611930565b9250604087015160a0860152606087015160c086015260808701519150808584030160e086015250611a718282611930565b92505050826040830152949350505050565b602081526000610d996020830184611930565b60008219821115611aa957611aa9611992565b500190565b6001600160a01b0389811682526020820189905260408201889052861660608201526001600160e01b03198516608082015260a0810184905260c0810183905261010060e08201819052600090611b0783820185611930565b9b9a5050505050505050505050565b600082611b3357634e487b7160e01b600052601260045260246000fd5b500690565b600082821015611b4a57611b4a611992565b500390565b60018060a01b0384168152826020820152606060408201526000610d536060830184611930565b6000816000190483118215151615611b9057611b90611992565b500290565b600181815b80851115611bd0578160001904821115611bb657611bb6611992565b80851615611bc357918102915b93841c9390800290611b9a565b509250929050565b600082611be757506001610d9c565b81611bf457506000610d9c565b8160018114611c0a5760028114611c1457611c30565b6001915050610d9c565b60ff841115611c2557611c25611992565b50506001821b610d9c565b5060208310610133831016604e8410600b8410161715611c53575081810a610d9c565b611c5d8383611b95565b8060001904821115611c7157611c71611992565b029392505050565b6000610d998383611bd856fea2646970667358221220fce0a5e7a4df51e75683438a6bfcc031ae92066cffea31bba323e37851cf9db464736f6c63430008090033",
  "devdoc": {
    "kind": "dev",
    "methods": {
      "acceptedContracts()": {
        "details": "The overridden method from MixinAddressResolver"
      },
      "cancelRequest(string,bytes32,bytes4,uint256)": {
        "details": "Triggers to cancell a request if it has not been fulfilled",
        "params": {
          "_callbackFunctionId": "The callback function specified for the request",
          "_expiration": "The time of the expiration for the request",
          "_requestId": "The id to specify a request",
          "_txHash": "Trasaction hash that has been requested to fulfill"
        }
      },
      "constructor": {
        "details": "Contract constructor function.",
        "params": {
          "_ccy": "Settlement adapter currency identifier",
          "_jobId": "The job id on the Chainlink node",
          "_link": "The address of the LINK token contract",
          "_oracle": "The address of the oracle contract",
          "_requestFee": "The amount of LINK sent for the request",
          "_resolver": "The address of the Address Resolver contract"
        }
      },
      "createRequest(string)": {
        "details": "Triggers to request the data from Chainlink External Adaptor. This function specify a callback function name",
        "params": {
          "_txHash": "The hash that is specify the data to get"
        }
      },
      "fulfill(bytes32,string,string,uint256,uint256,string)": {
        "details": "Triggers to receive the data from a job that is specified by `createRequestTo` function. This function name is specified when `buildChainlinkRequest` is called",
        "params": {
          "_from": "The from address of the data received",
          "_requestId": "The id to specify a request",
          "_timestamp": "The timestamp of the data received",
          "_to": "The to address of the data received",
          "_txHash": "The hash of the data received",
          "_value": "The value of the data received"
        }
      },
      "getChainlinkOracle()": {
        "details": "Gets contract address of the oracle that is set at constructor",
        "returns": {
          "_0": "address The address of the oracle contract"
        }
      },
      "getChainlinkToken()": {
        "details": "Gets contract address of the LINK token that is set at constructor",
        "returns": {
          "_0": "address The address of the LINK token"
        }
      },
      "owner()": {
        "details": "Returns the address of the current owner."
      },
      "renounceOwnership()": {
        "details": "Leaves the contract without owner. It will not be possible to call `onlyOwner` functions anymore. Can only be called by the current owner. NOTE: Renouncing ownership will leave the contract without an owner, thereby removing any functionality that is only available to the owner."
      },
      "requiredContracts()": {
        "details": "The overridden method from MixinAddressResolver"
      },
      "transferOwnership(address)": {
        "details": "Transfers ownership of the contract to a new account (`newOwner`). Can only be called by the current owner."
      },
      "updateChainlinkOracle(address)": {
        "details": "Updates the stored oracle address",
        "params": {
          "_oracle": "The address of the oracle contract"
        }
      },
      "updateJobId(bytes32)": {
        "details": "Updates the stored job id",
        "params": {
          "_jobId": "The job id on the Cahinlink node"
        }
      },
      "updateRequestFee(uint256)": {
        "details": "Updates the stored amount of LINK to send for the request",
        "params": {
          "_requestFee": "The amount of LINK sent for the request"
        }
      },
      "withdrawLink()": {
        "details": "Triggers to withdraw LINK Token. LINK token is needed to hold by this contract to use the Chainlink"
      }
    },
    "title": "ChainlinkSettlementAdapter is managing requests to Chainlink for a settlement process.",
    "version": 1
  },
  "userdoc": {
    "kind": "user",
    "methods": {
      "constructor": {
        "notice": "`_link` is provided for development usage"
      }
    },
    "version": 1
  },
  "storageLayout": {
    "storage": [
      {
        "astId": 319,
        "contract": "contracts/ChainlinkSettlementAdapter.sol:ChainlinkSettlementAdapter",
        "label": "s_ens",
        "offset": 0,
        "slot": "0",
        "type": "t_contract(ENSInterface)1077"
      },
      {
        "astId": 321,
        "contract": "contracts/ChainlinkSettlementAdapter.sol:ChainlinkSettlementAdapter",
        "label": "s_ensNode",
        "offset": 0,
        "slot": "1",
        "type": "t_bytes32"
      },
      {
        "astId": 324,
        "contract": "contracts/ChainlinkSettlementAdapter.sol:ChainlinkSettlementAdapter",
        "label": "s_link",
        "offset": 0,
        "slot": "2",
        "type": "t_contract(LinkTokenInterface)1172"
      },
      {
        "astId": 327,
        "contract": "contracts/ChainlinkSettlementAdapter.sol:ChainlinkSettlementAdapter",
        "label": "s_oracle",
        "offset": 0,
        "slot": "3",
        "type": "t_contract(OperatorInterface)1252"
      },
      {
        "astId": 330,
        "contract": "contracts/ChainlinkSettlementAdapter.sol:ChainlinkSettlementAdapter",
        "label": "s_requestCount",
        "offset": 0,
        "slot": "4",
        "type": "t_uint256"
      },
      {
        "astId": 334,
        "contract": "contracts/ChainlinkSettlementAdapter.sol:ChainlinkSettlementAdapter",
        "label": "s_pendingRequests",
        "offset": 0,
        "slot": "5",
        "type": "t_mapping(t_bytes32,t_address)"
      },
      {
        "astId": 35566,
        "contract": "contracts/ChainlinkSettlementAdapter.sol:ChainlinkSettlementAdapter",
        "label": "resolver",
        "offset": 0,
        "slot": "6",
        "type": "t_contract(IAddressResolver)23128"
      },
      {
        "astId": 35570,
        "contract": "contracts/ChainlinkSettlementAdapter.sol:ChainlinkSettlementAdapter",
        "label": "addressCache",
        "offset": 0,
        "slot": "7",
        "type": "t_mapping(t_bytes32,t_address)"
      },
      {
        "astId": 2286,
        "contract": "contracts/ChainlinkSettlementAdapter.sol:ChainlinkSettlementAdapter",
        "label": "_owner",
        "offset": 0,
        "slot": "8",
        "type": "t_address"
      },
      {
        "astId": 4990,
        "contract": "contracts/ChainlinkSettlementAdapter.sol:ChainlinkSettlementAdapter",
        "label": "isRequested",
        "offset": 0,
        "slot": "9",
        "type": "t_mapping(t_string_memory_ptr,t_bool)"
      },
      {
        "astId": 4992,
        "contract": "contracts/ChainlinkSettlementAdapter.sol:ChainlinkSettlementAdapter",
        "label": "jobId",
        "offset": 0,
        "slot": "10",
        "type": "t_bytes32"
      },
      {
        "astId": 4994,
        "contract": "contracts/ChainlinkSettlementAdapter.sol:ChainlinkSettlementAdapter",
        "label": "requestFee",
        "offset": 0,
        "slot": "11",
        "type": "t_uint256"
      },
      {
        "astId": 4996,
        "contract": "contracts/ChainlinkSettlementAdapter.sol:ChainlinkSettlementAdapter",
        "label": "ccy",
        "offset": 0,
        "slot": "12",
        "type": "t_bytes32"
      }
    ],
    "types": {
      "t_address": {
        "encoding": "inplace",
        "label": "address",
        "numberOfBytes": "20"
      },
      "t_bool": {
        "encoding": "inplace",
        "label": "bool",
        "numberOfBytes": "1"
      },
      "t_bytes32": {
        "encoding": "inplace",
        "label": "bytes32",
        "numberOfBytes": "32"
      },
      "t_contract(ENSInterface)1077": {
        "encoding": "inplace",
        "label": "contract ENSInterface",
        "numberOfBytes": "20"
      },
      "t_contract(IAddressResolver)23128": {
        "encoding": "inplace",
        "label": "contract IAddressResolver",
        "numberOfBytes": "20"
      },
      "t_contract(LinkTokenInterface)1172": {
        "encoding": "inplace",
        "label": "contract LinkTokenInterface",
        "numberOfBytes": "20"
      },
      "t_contract(OperatorInterface)1252": {
        "encoding": "inplace",
        "label": "contract OperatorInterface",
        "numberOfBytes": "20"
      },
      "t_mapping(t_bytes32,t_address)": {
        "encoding": "mapping",
        "key": "t_bytes32",
        "label": "mapping(bytes32 => address)",
        "numberOfBytes": "32",
        "value": "t_address"
      },
      "t_mapping(t_string_memory_ptr,t_bool)": {
        "encoding": "mapping",
        "key": "t_string_memory_ptr",
        "label": "mapping(string => bool)",
        "numberOfBytes": "32",
        "value": "t_bool"
      },
      "t_string_memory_ptr": {
        "encoding": "bytes",
        "label": "string",
        "numberOfBytes": "32"
      },
      "t_uint256": {
        "encoding": "inplace",
        "label": "uint256",
        "numberOfBytes": "32"
      }
    }
  }
}