{
  "address": "0xC616D55499aacE74cFC3005061b07d239bB22125",
  "abi": [
    {
      "anonymous": false,
      "inputs": [
        {
          "indexed": false,
          "internalType": "uint256",
          "name": "previousRatio",
          "type": "uint256"
        },
        {
          "indexed": false,
          "internalType": "uint256",
          "name": "ratio",
          "type": "uint256"
        }
      ],
      "name": "AutoLiquidationThresholdUpdated",
      "type": "event"
    },
    {
      "anonymous": false,
      "inputs": [
        {
          "indexed": true,
          "internalType": "address",
          "name": "user",
          "type": "address"
        }
      ],
      "name": "CollateralUserAdded",
      "type": "event"
    },
    {
      "anonymous": false,
      "inputs": [
        {
          "indexed": true,
          "internalType": "address",
          "name": "user",
          "type": "address"
        }
      ],
      "name": "CollateralUserRemoved",
      "type": "event"
    },
    {
      "anonymous": false,
      "inputs": [
        {
          "indexed": true,
          "internalType": "address",
          "name": "vault",
          "type": "address"
        },
        {
          "indexed": false,
          "internalType": "bytes32",
          "name": "ccy",
          "type": "bytes32"
        },
        {
          "indexed": false,
          "internalType": "address",
          "name": "tokenAddress",
          "type": "address"
        }
      ],
      "name": "CollateralVaultLinked",
      "type": "event"
    },
    {
      "anonymous": false,
      "inputs": [
        {
          "indexed": true,
          "internalType": "address",
          "name": "vault",
          "type": "address"
        },
        {
          "indexed": false,
          "internalType": "bytes32",
          "name": "ccy",
          "type": "bytes32"
        },
        {
          "indexed": false,
          "internalType": "address",
          "name": "tokenAddress",
          "type": "address"
        }
      ],
      "name": "CollateralVaultRemoved",
      "type": "event"
    },
    {
      "anonymous": false,
      "inputs": [
        {
          "indexed": true,
          "internalType": "address",
          "name": "crosschainAddressResolver",
          "type": "address"
        }
      ],
      "name": "CrosschainAddressResolverUpdated",
      "type": "event"
    },
    {
      "anonymous": false,
      "inputs": [
        {
          "indexed": true,
          "internalType": "address",
          "name": "controller",
          "type": "address"
        }
      ],
      "name": "CurrencyControllerUpdated",
      "type": "event"
    },
    {
      "anonymous": false,
      "inputs": [
        {
          "indexed": true,
          "internalType": "address",
          "name": "from",
          "type": "address"
        },
        {
          "indexed": true,
          "internalType": "address",
          "name": "to",
          "type": "address"
        },
        {
          "indexed": false,
          "internalType": "bytes32",
          "name": "ccy",
          "type": "bytes32"
        },
        {
          "indexed": false,
          "internalType": "uint256",
          "name": "amount",
          "type": "uint256"
        }
      ],
      "name": "Liquidate",
      "type": "event"
    },
    {
      "anonymous": false,
      "inputs": [
        {
          "indexed": true,
          "internalType": "address",
          "name": "liquidations",
          "type": "address"
        }
      ],
      "name": "LiquidationEngineUpdated",
      "type": "event"
    },
    {
      "anonymous": false,
      "inputs": [
        {
          "indexed": false,
          "internalType": "uint256",
          "name": "previousPrice",
          "type": "uint256"
        },
        {
          "indexed": false,
          "internalType": "uint256",
          "name": "price",
          "type": "uint256"
        }
      ],
      "name": "LiquidationPriceUpdated",
      "type": "event"
    },
    {
      "anonymous": false,
      "inputs": [
        {
          "indexed": false,
          "internalType": "uint256",
          "name": "previousRatio",
          "type": "uint256"
        },
        {
          "indexed": false,
          "internalType": "uint256",
          "name": "ratio",
          "type": "uint256"
        }
      ],
      "name": "MarginCallThresholdUpdated",
      "type": "event"
    },
    {
      "anonymous": false,
      "inputs": [
        {
          "indexed": false,
          "internalType": "uint256",
          "name": "previousRatio",
          "type": "uint256"
        },
        {
          "indexed": false,
          "internalType": "uint256",
          "name": "price",
          "type": "uint256"
        }
      ],
      "name": "MinCollateralRatioUpdated",
      "type": "event"
    },
    {
      "anonymous": false,
      "inputs": [
        {
          "indexed": true,
          "internalType": "address",
          "name": "addr",
          "type": "address"
        }
      ],
      "name": "Register",
      "type": "event"
    },
    {
      "anonymous": false,
      "inputs": [
        {
          "indexed": true,
          "internalType": "address",
          "name": "partyA",
          "type": "address"
        },
        {
          "indexed": true,
          "internalType": "address",
          "name": "partyB",
          "type": "address"
        },
        {
          "indexed": false,
          "internalType": "bytes32",
          "name": "ccy",
          "type": "bytes32"
        },
        {
          "indexed": false,
          "internalType": "uint256",
          "name": "amount0",
          "type": "uint256"
        },
        {
          "indexed": false,
          "internalType": "uint256",
          "name": "amount1",
          "type": "uint256"
        },
        {
          "indexed": false,
          "internalType": "bool",
          "name": "isSettled",
          "type": "bool"
        }
      ],
      "name": "Release",
      "type": "event"
    },
    {
      "anonymous": false,
      "inputs": [
        {
          "indexed": true,
          "internalType": "address",
          "name": "party",
          "type": "address"
        },
        {
          "indexed": false,
          "internalType": "bytes32",
          "name": "ccy",
          "type": "bytes32"
        },
        {
          "indexed": false,
          "internalType": "uint256",
          "name": "amount",
          "type": "uint256"
        }
      ],
      "name": "ReleaseUnsettled",
      "type": "event"
    },
    {
      "anonymous": false,
      "inputs": [
        {
          "indexed": true,
          "internalType": "address",
          "name": "partyA",
          "type": "address"
        },
        {
          "indexed": true,
          "internalType": "address",
          "name": "partyB",
          "type": "address"
        },
        {
          "indexed": false,
          "internalType": "bytes32",
          "name": "ccy",
          "type": "bytes32"
        },
        {
          "indexed": false,
          "internalType": "uint256",
          "name": "amount0",
          "type": "uint256"
        },
        {
          "indexed": false,
          "internalType": "uint256",
          "name": "amount1",
          "type": "uint256"
        }
      ],
      "name": "SettleCollateral",
      "type": "event"
    },
    {
      "anonymous": false,
      "inputs": [
        {
          "indexed": true,
          "internalType": "address",
          "name": "partyA",
          "type": "address"
        },
        {
          "indexed": true,
          "internalType": "address",
          "name": "partyB",
          "type": "address"
        },
        {
          "indexed": false,
          "internalType": "bytes32",
          "name": "ccy",
          "type": "bytes32"
        },
        {
          "indexed": false,
          "internalType": "uint256",
          "name": "prevPV0",
          "type": "uint256"
        },
        {
          "indexed": false,
          "internalType": "uint256",
          "name": "prevPV1",
          "type": "uint256"
        },
        {
          "indexed": false,
          "internalType": "uint256",
          "name": "currentPV0",
          "type": "uint256"
        },
        {
          "indexed": false,
          "internalType": "uint256",
          "name": "currentPV1",
          "type": "uint256"
        }
      ],
      "name": "UpdatePV",
      "type": "event"
    },
    {
      "anonymous": false,
      "inputs": [
        {
          "indexed": true,
          "internalType": "address",
          "name": "partyA",
          "type": "address"
        },
        {
          "indexed": true,
          "internalType": "address",
          "name": "partyB",
          "type": "address"
        },
        {
          "indexed": false,
          "internalType": "bytes32",
          "name": "ccy",
          "type": "bytes32"
        },
        {
          "indexed": false,
          "internalType": "uint256",
          "name": "amount0",
          "type": "uint256"
        },
        {
          "indexed": false,
          "internalType": "uint256",
          "name": "amount1",
          "type": "uint256"
        },
        {
          "indexed": false,
          "internalType": "bool",
          "name": "isSettled",
          "type": "bool"
        }
      ],
      "name": "UseCollateral",
      "type": "event"
    },
    {
      "anonymous": false,
      "inputs": [
        {
          "indexed": true,
          "internalType": "address",
          "name": "party",
          "type": "address"
        },
        {
          "indexed": false,
          "internalType": "bytes32",
          "name": "ccy",
          "type": "bytes32"
        },
        {
          "indexed": false,
          "internalType": "uint256",
          "name": "amount",
          "type": "uint256"
        }
      ],
      "name": "UseUnsettledCollateral",
      "type": "event"
    },
    {
      "inputs": [],
      "name": "AUTOLQLEVEL",
      "outputs": [
        {
          "internalType": "uint256",
          "name": "",
          "type": "uint256"
        }
      ],
      "stateMutability": "view",
      "type": "function"
    },
    {
      "inputs": [],
      "name": "LQLEVEL",
      "outputs": [
        {
          "internalType": "uint256",
          "name": "",
          "type": "uint256"
        }
      ],
      "stateMutability": "view",
      "type": "function"
    },
    {
      "inputs": [],
      "name": "MARGINLEVEL",
      "outputs": [
        {
          "internalType": "uint256",
          "name": "",
          "type": "uint256"
        }
      ],
      "stateMutability": "view",
      "type": "function"
    },
    {
      "inputs": [],
      "name": "MIN_COLLATERAL_RATIO",
      "outputs": [
        {
          "internalType": "uint256",
          "name": "",
          "type": "uint256"
        }
      ],
      "stateMutability": "view",
      "type": "function"
    },
    {
      "inputs": [
        {
          "internalType": "address",
          "name": "_user",
          "type": "address"
        }
      ],
      "name": "addCollateralUser",
      "outputs": [
        {
          "internalType": "bool",
          "name": "",
          "type": "bool"
        }
      ],
      "stateMutability": "nonpayable",
      "type": "function"
    },
    {
      "inputs": [
        {
          "internalType": "address",
          "name": "addr",
          "type": "address"
        }
      ],
      "name": "checkRegisteredUser",
      "outputs": [
        {
          "internalType": "bool",
          "name": "",
          "type": "bool"
        }
      ],
      "stateMutability": "view",
      "type": "function"
    },
    {
      "inputs": [],
      "name": "crosschainAddressResolver",
      "outputs": [
        {
          "internalType": "contract ICrosschainAddressResolver",
          "name": "",
          "type": "address"
        }
      ],
      "stateMutability": "view",
      "type": "function"
    },
    {
      "inputs": [],
      "name": "currencyController",
      "outputs": [
        {
          "internalType": "contract ICurrencyController",
          "name": "",
          "type": "address"
        }
      ],
      "stateMutability": "view",
      "type": "function"
    },
    {
      "inputs": [
        {
          "internalType": "address",
          "name": "_user",
          "type": "address"
        }
      ],
      "name": "enterVault",
      "outputs": [],
      "stateMutability": "nonpayable",
      "type": "function"
    },
    {
      "inputs": [
        {
          "internalType": "address",
          "name": "_party0",
          "type": "address"
        },
        {
          "internalType": "address",
          "name": "_party1",
          "type": "address"
        }
      ],
      "name": "enterVault",
      "outputs": [],
      "stateMutability": "nonpayable",
      "type": "function"
    },
    {
      "inputs": [
        {
          "internalType": "address",
          "name": "_user",
          "type": "address"
        }
      ],
      "name": "exitVault",
      "outputs": [],
      "stateMutability": "nonpayable",
      "type": "function"
    },
    {
      "inputs": [
        {
          "internalType": "address",
          "name": "_party0",
          "type": "address"
        },
        {
          "internalType": "address",
          "name": "_party1",
          "type": "address"
        }
      ],
      "name": "exitVault",
      "outputs": [],
      "stateMutability": "nonpayable",
      "type": "function"
    },
    {
      "inputs": [
        {
          "internalType": "address",
          "name": "partyA",
          "type": "address"
        },
        {
          "internalType": "address",
          "name": "partyB",
          "type": "address"
        },
        {
          "internalType": "bytes32",
          "name": "ccy",
          "type": "bytes32"
        }
      ],
      "name": "getCcyExposures",
      "outputs": [
        {
          "internalType": "uint256",
          "name": "",
          "type": "uint256"
        },
        {
          "internalType": "uint256",
          "name": "",
          "type": "uint256"
        },
        {
          "internalType": "uint256",
          "name": "",
          "type": "uint256"
        },
        {
          "internalType": "uint256",
          "name": "",
          "type": "uint256"
        }
      ],
      "stateMutability": "view",
      "type": "function"
    },
    {
      "inputs": [
        {
          "internalType": "address",
          "name": "_party0",
          "type": "address"
        },
        {
          "internalType": "address",
          "name": "_party1",
          "type": "address"
        }
      ],
      "name": "getCoverage",
      "outputs": [
        {
          "internalType": "uint256",
          "name": "",
          "type": "uint256"
        },
        {
          "internalType": "uint256",
          "name": "",
          "type": "uint256"
        }
      ],
      "stateMutability": "view",
      "type": "function"
    },
    {
      "inputs": [
        {
          "internalType": "address",
          "name": "partyA",
          "type": "address"
        },
        {
          "internalType": "address",
          "name": "partyB",
          "type": "address"
        }
      ],
      "name": "getExposedCurrencies",
      "outputs": [
        {
          "internalType": "bytes32[]",
          "name": "",
          "type": "bytes32[]"
        }
      ],
      "stateMutability": "view",
      "type": "function"
    },
    {
      "inputs": [
        {
          "internalType": "address",
          "name": "_user",
          "type": "address"
        }
      ],
      "name": "getMaxCollateralBookWidthdraw",
      "outputs": [
        {
          "internalType": "uint256",
          "name": "maxWithdraw",
          "type": "uint256"
        }
      ],
      "stateMutability": "view",
      "type": "function"
    },
    {
      "inputs": [
        {
          "internalType": "address",
          "name": "_party0",
          "type": "address"
        },
        {
          "internalType": "address",
          "name": "_party1",
          "type": "address"
        }
      ],
      "name": "getMaxCollateralWidthdraw",
      "outputs": [
        {
          "internalType": "uint256",
          "name": "",
          "type": "uint256"
        },
        {
          "internalType": "uint256",
          "name": "",
          "type": "uint256"
        }
      ],
      "stateMutability": "view",
      "type": "function"
    },
    {
      "inputs": [
        {
          "internalType": "address",
          "name": "_party0",
          "type": "address"
        },
        {
          "internalType": "address",
          "name": "_party1",
          "type": "address"
        }
      ],
      "name": "getNetAndTotalPV",
      "outputs": [
        {
          "internalType": "uint256",
          "name": "",
          "type": "uint256"
        },
        {
          "internalType": "uint256",
          "name": "",
          "type": "uint256"
        },
        {
          "internalType": "uint256",
          "name": "",
          "type": "uint256"
        },
        {
          "internalType": "uint256",
          "name": "",
          "type": "uint256"
        }
      ],
      "stateMutability": "view",
      "type": "function"
    },
    {
      "inputs": [
        {
          "internalType": "address",
          "name": "_party0",
          "type": "address"
        },
        {
          "internalType": "address",
          "name": "_party1",
          "type": "address"
        }
      ],
      "name": "getRebalanceCollateralAmounts",
      "outputs": [
        {
          "internalType": "uint256",
          "name": "",
          "type": "uint256"
        },
        {
          "internalType": "uint256",
          "name": "",
          "type": "uint256"
        }
      ],
      "stateMutability": "view",
      "type": "function"
    },
    {
      "inputs": [
        {
          "internalType": "address",
          "name": "_user",
          "type": "address"
        }
      ],
      "name": "getTotalUnsettledExp",
      "outputs": [
        {
          "internalType": "uint256",
          "name": "",
          "type": "uint256"
        }
      ],
      "stateMutability": "view",
      "type": "function"
    },
    {
      "inputs": [
        {
          "internalType": "address",
          "name": "_user",
          "type": "address"
        }
      ],
      "name": "getUnsettledCoverage",
      "outputs": [
        {
          "internalType": "uint256",
          "name": "coverage",
          "type": "uint256"
        }
      ],
      "stateMutability": "view",
      "type": "function"
    },
    {
      "inputs": [
        {
          "internalType": "address",
          "name": "user",
          "type": "address"
        }
      ],
      "name": "getUsedVaults",
      "outputs": [
        {
          "internalType": "address[]",
          "name": "",
          "type": "address[]"
        }
      ],
      "stateMutability": "view",
      "type": "function"
    },
    {
      "inputs": [
        {
          "internalType": "address",
          "name": "party0",
          "type": "address"
        },
        {
          "internalType": "address",
          "name": "party1",
          "type": "address"
        }
      ],
      "name": "getUsedVaults",
      "outputs": [
        {
          "internalType": "address[]",
          "name": "",
          "type": "address[]"
        }
      ],
      "stateMutability": "view",
      "type": "function"
    },
    {
      "inputs": [
        {
          "internalType": "address",
          "name": "_user",
          "type": "address"
        }
      ],
      "name": "isCollateralUser",
      "outputs": [
        {
          "internalType": "bool",
          "name": "",
          "type": "bool"
        }
      ],
      "stateMutability": "view",
      "type": "function"
    },
    {
      "inputs": [
        {
          "internalType": "address",
          "name": "_vault",
          "type": "address"
        }
      ],
      "name": "isCollateralVault",
      "outputs": [
        {
          "internalType": "bool",
          "name": "",
          "type": "bool"
        }
      ],
      "stateMutability": "view",
      "type": "function"
    },
    {
      "inputs": [
        {
          "internalType": "address",
          "name": "_party0",
          "type": "address"
        },
        {
          "internalType": "address",
          "name": "_party1",
          "type": "address"
        },
        {
          "internalType": "bytes32",
          "name": "_ccy",
          "type": "bytes32"
        },
        {
          "internalType": "uint256",
          "name": "_party0PV",
          "type": "uint256"
        },
        {
          "internalType": "uint256",
          "name": "_party1PV",
          "type": "uint256"
        },
        {
          "internalType": "bool",
          "name": "_isSettled",
          "type": "bool"
        }
      ],
      "name": "isCovered",
      "outputs": [
        {
          "internalType": "bool",
          "name": "",
          "type": "bool"
        },
        {
          "internalType": "bool",
          "name": "",
          "type": "bool"
        }
      ],
      "stateMutability": "view",
      "type": "function"
    },
    {
      "inputs": [
        {
          "internalType": "address",
          "name": "_user",
          "type": "address"
        },
        {
          "internalType": "bytes32",
          "name": "_ccy",
          "type": "bytes32"
        },
        {
          "internalType": "uint256",
          "name": "_unsettledExp",
          "type": "uint256"
        }
      ],
      "name": "isCoveredUnsettled",
      "outputs": [
        {
          "internalType": "bool",
          "name": "",
          "type": "bool"
        }
      ],
      "stateMutability": "view",
      "type": "function"
    },
    {
      "inputs": [
        {
          "internalType": "address",
          "name": "_vault",
          "type": "address"
        }
      ],
      "name": "linkCollateralVault",
      "outputs": [
        {
          "internalType": "bool",
          "name": "",
          "type": "bool"
        }
      ],
      "stateMutability": "nonpayable",
      "type": "function"
    },
    {
      "inputs": [
        {
          "internalType": "address",
          "name": "from",
          "type": "address"
        },
        {
          "internalType": "address",
          "name": "to",
          "type": "address"
        },
        {
          "internalType": "uint256",
          "name": "liquidationInETH",
          "type": "uint256"
        }
      ],
      "name": "liquidate",
      "outputs": [],
      "stateMutability": "nonpayable",
      "type": "function"
    },
    {
      "inputs": [
        {
          "internalType": "address",
          "name": "from",
          "type": "address"
        },
        {
          "internalType": "address",
          "name": "to",
          "type": "address"
        },
        {
          "internalType": "bytes32",
          "name": "ccy",
          "type": "bytes32"
        },
        {
          "internalType": "uint256",
          "name": "liquidationAmount",
          "type": "uint256"
        },
        {
          "internalType": "uint256",
          "name": "pv",
          "type": "uint256"
        },
        {
          "internalType": "bool",
          "name": "isSettled",
          "type": "bool"
        }
      ],
      "name": "liquidate",
      "outputs": [],
      "stateMutability": "nonpayable",
      "type": "function"
    },
    {
      "inputs": [],
      "name": "liquidationEngine",
      "outputs": [
        {
          "internalType": "contract ILiquidations",
          "name": "",
          "type": "address"
        }
      ],
      "stateMutability": "view",
      "type": "function"
    },
    {
      "inputs": [],
      "name": "owner",
      "outputs": [
        {
          "internalType": "address",
          "name": "",
          "type": "address"
        }
      ],
      "stateMutability": "view",
      "type": "function"
    },
    {
      "inputs": [],
      "name": "register",
      "outputs": [],
      "stateMutability": "nonpayable",
      "type": "function"
    },
    {
      "inputs": [
        {
          "internalType": "string[]",
          "name": "_addresses",
          "type": "string[]"
        },
        {
          "internalType": "uint256[]",
          "name": "_chainIds",
          "type": "uint256[]"
        }
      ],
      "name": "register",
      "outputs": [],
      "stateMutability": "nonpayable",
      "type": "function"
    },
    {
      "inputs": [
        {
          "internalType": "address",
          "name": "partyA",
          "type": "address"
        },
        {
          "internalType": "address",
          "name": "partyB",
          "type": "address"
        },
        {
          "internalType": "bytes32",
          "name": "ccy",
          "type": "bytes32"
        },
        {
          "internalType": "uint256",
          "name": "amount0",
          "type": "uint256"
        },
        {
          "internalType": "uint256",
          "name": "amount1",
          "type": "uint256"
        },
        {
          "internalType": "bool",
          "name": "isSettled",
          "type": "bool"
        }
      ],
      "name": "releaseCollateral",
      "outputs": [],
      "stateMutability": "nonpayable",
      "type": "function"
    },
    {
      "inputs": [
        {
          "internalType": "address",
          "name": "user",
          "type": "address"
        },
        {
          "internalType": "bytes32",
          "name": "ccy",
          "type": "bytes32"
        },
        {
          "internalType": "uint256",
          "name": "amount",
          "type": "uint256"
        }
      ],
      "name": "releaseUnsettledCollateral",
      "outputs": [],
      "stateMutability": "nonpayable",
      "type": "function"
    },
    {
      "inputs": [
        {
          "internalType": "address",
          "name": "_user",
          "type": "address"
        }
      ],
      "name": "removeCollateralUser",
      "outputs": [
        {
          "internalType": "bool",
          "name": "",
          "type": "bool"
        }
      ],
      "stateMutability": "nonpayable",
      "type": "function"
    },
    {
      "inputs": [
        {
          "internalType": "address",
          "name": "_vault",
          "type": "address"
        }
      ],
      "name": "removeCollateralVault",
      "outputs": [
        {
          "internalType": "bool",
          "name": "",
          "type": "bool"
        }
      ],
      "stateMutability": "nonpayable",
      "type": "function"
    },
    {
      "inputs": [
        {
          "internalType": "address",
          "name": "_addr",
          "type": "address"
        }
      ],
      "name": "setCrosschainAddressResolver",
      "outputs": [],
      "stateMutability": "nonpayable",
      "type": "function"
    },
    {
      "inputs": [
        {
          "internalType": "address",
          "name": "_addr",
          "type": "address"
        }
      ],
      "name": "setCurrencyController",
      "outputs": [],
      "stateMutability": "nonpayable",
      "type": "function"
    },
    {
      "inputs": [
        {
          "internalType": "address",
          "name": "_addr",
          "type": "address"
        }
      ],
      "name": "setLiquidationEngine",
      "outputs": [],
      "stateMutability": "nonpayable",
      "type": "function"
    },
    {
      "inputs": [
        {
          "internalType": "address",
          "name": "partyA",
          "type": "address"
        },
        {
          "internalType": "address",
          "name": "partyB",
          "type": "address"
        },
        {
          "internalType": "bytes32",
          "name": "ccy",
          "type": "bytes32"
        },
        {
          "internalType": "uint256",
          "name": "amount0",
          "type": "uint256"
        },
        {
          "internalType": "uint256",
          "name": "amount1",
          "type": "uint256"
        }
      ],
      "name": "settleCollateral",
      "outputs": [],
      "stateMutability": "nonpayable",
      "type": "function"
    },
    {
      "inputs": [
        {
          "internalType": "address",
          "name": "",
          "type": "address"
        },
        {
          "internalType": "bytes32",
          "name": "",
          "type": "bytes32"
        }
      ],
      "name": "unsettledCollateral",
      "outputs": [
        {
          "internalType": "uint256",
          "name": "",
          "type": "uint256"
        }
      ],
      "stateMutability": "view",
      "type": "function"
    },
    {
      "inputs": [
        {
          "internalType": "uint256",
          "name": "_ratio",
          "type": "uint256"
        }
      ],
      "name": "updateAutoLiquidationThreshold",
      "outputs": [],
      "stateMutability": "nonpayable",
      "type": "function"
    },
    {
      "inputs": [
        {
          "internalType": "uint256",
          "name": "_price",
          "type": "uint256"
        }
      ],
      "name": "updateLiquidationPrice",
      "outputs": [],
      "stateMutability": "nonpayable",
      "type": "function"
    },
    {
      "inputs": [
        {
          "internalType": "uint256",
          "name": "_marginCallRatio",
          "type": "uint256"
        },
        {
          "internalType": "uint256",
          "name": "_autoLiquidationThreshold",
          "type": "uint256"
        },
        {
          "internalType": "uint256",
          "name": "_liquidationPrice",
          "type": "uint256"
        }
      ],
      "name": "updateMainParameters",
      "outputs": [],
      "stateMutability": "nonpayable",
      "type": "function"
    },
    {
      "inputs": [
        {
          "internalType": "uint256",
          "name": "_ratio",
          "type": "uint256"
        }
      ],
      "name": "updateMarginCallThreshold",
      "outputs": [],
      "stateMutability": "nonpayable",
      "type": "function"
    },
    {
      "inputs": [
        {
          "internalType": "uint256",
          "name": "_ratio",
          "type": "uint256"
        }
      ],
      "name": "updateMinCollateralRatio",
      "outputs": [],
      "stateMutability": "nonpayable",
      "type": "function"
    },
    {
      "inputs": [
        {
          "internalType": "address",
          "name": "party0",
          "type": "address"
        },
        {
          "internalType": "address",
          "name": "party1",
          "type": "address"
        },
        {
          "internalType": "bytes32",
          "name": "ccy",
          "type": "bytes32"
        },
        {
          "internalType": "uint256",
          "name": "prevPV0",
          "type": "uint256"
        },
        {
          "internalType": "uint256",
          "name": "prevPV1",
          "type": "uint256"
        },
        {
          "internalType": "uint256",
          "name": "currentPV0",
          "type": "uint256"
        },
        {
          "internalType": "uint256",
          "name": "currentPV1",
          "type": "uint256"
        }
      ],
      "name": "updatePV",
      "outputs": [],
      "stateMutability": "nonpayable",
      "type": "function"
    },
    {
      "inputs": [
        {
          "internalType": "address",
          "name": "partyA",
          "type": "address"
        },
        {
          "internalType": "address",
          "name": "partyB",
          "type": "address"
        },
        {
          "internalType": "bytes32",
          "name": "ccy",
          "type": "bytes32"
        },
        {
          "internalType": "uint256",
          "name": "amount0",
          "type": "uint256"
        },
        {
          "internalType": "uint256",
          "name": "amount1",
          "type": "uint256"
        },
        {
          "internalType": "bool",
          "name": "isSettled",
          "type": "bool"
        }
      ],
      "name": "useCollateral",
      "outputs": [],
      "stateMutability": "nonpayable",
      "type": "function"
    },
    {
      "inputs": [
        {
          "internalType": "address",
          "name": "user",
          "type": "address"
        },
        {
          "internalType": "bytes32",
          "name": "ccy",
          "type": "bytes32"
        },
        {
          "internalType": "uint256",
          "name": "amount",
          "type": "uint256"
        }
      ],
      "name": "useUnsettledCollateral",
      "outputs": [],
      "stateMutability": "nonpayable",
      "type": "function"
    }
  ],
  "transactionHash": "0xc44635d4cc11d30cae23f0653fe3790cf75ab671ad3d010237af0d8ba1906ffb",
  "args": [],
  "numDeployments": 1,
  "solcInputHash": "c547b2e6a239b041ee2d79dd0b62b5b6",
  "bytecode": "0x608060405234801561001057600080fd5b50600480546001600160a01b03191633179055612ee0600055613a986001556130d46002556109c46003556145cc8061004a6000396000f3fe608060405234801561001057600080fd5b50600436106102f05760003560e01c806388dc6a041161019d578063b418ea7a116100e9578063d60df57a116100a2578063dc766b871161007c578063dc766b8714610684578063e5a1481314610697578063ef75abb61461069f578063f30ce771146106c0576102f0565b8063d60df57a1461064b578063d63661b41461065e578063d810703b14610671576102f0565b8063b418ea7a146105e4578063b922ef00146105f7578063bd1a000a1461060a578063cdd9423414610612578063d04cad0214610625578063d3381a2014610638576102f0565b80639fcaebfa11610156578063adad5fd111610130578063adad5fd114610598578063b0779eb9146105ab578063b2c14a7a146105be578063b3fb2e4b146105d1576102f0565b80639fcaebfa1461055f578063a52aa37b14610572578063a64bb9b814610585576102f0565b806388dc6a04146104eb5780638cbf5e78146104fe5780638da5cb5b146105115780638fa1b2521461051957806391fac99614610539578063921f523a1461054c576102f0565b80632f29959a1161025c57806344c201f4116102155780637a07d8bb116101ef5780637a07d8bb146104aa5780637a9fffb7146104bd5780637aa49084146104c55780637d1f2ded146104d8576102f0565b806344c201f4146104715780634d298abd1461048457806376a4024614610497576102f0565b80632f29959a14610415578063337327d8146104285780633c4cf9c21461043b57806341468b0a1461044e57806343ca6e801461045657806344bf3c7214610469576102f0565b80631b5f7a6f116102ae5780631b5f7a6f146103915780631ec6475e146103a4578063221c053f146103b957806323234058146103cc57806326c01303146103ef578063273fad0e14610402576102f0565b8062fdf390146102f55780630738e9fc1461031e578063079086d01461033357806309fb35921461035357806312a86ffb146103685780631aa3a00814610389575b600080fd5b610308610303366004613a49565b6106d3565b6040516103159190613ee3565b60405180910390f35b61033161032c366004613a11565b61078b565b005b610346610341366004613a11565b6107e1565b6040516103159190613f1b565b61035b6107ee565b6040516103159190613f38565b61037b610376366004613a49565b6107f4565b604051610315929190613f58565b610331610813565b61033161039f366004613d18565b610892565b6103ac61091c565b6040516103159190613d7e565b6103466103c7366004613a11565b61092b565b6103df6103da366004613a49565b610949565b60405161031594939291906144f0565b6103316103fd366004613bdc565b61096f565b610331610410366004613d18565b6109c0565b610346610423366004613a11565b610a6b565b610331610436366004613a11565b610c05565b61035b610449366004613a11565b610c4e565b61035b610c63565b610346610464366004613a11565b610c69565b6103ac610c76565b61033161047f366004613a49565b610c85565b610331610492366004613a11565b610cda565b6103316104a5366004613d53565b610da2565b6103316104b8366004613d18565b610dfe565b61035b610ea9565b6103316104d3366004613b11565b610eaf565b6103316104e6366004613ac1565b610f90565b6103466104f9366004613a11565b611028565b61033161050c366004613c1b565b6110bb565b6103ac6111a6565b61052c610527366004613a11565b6111b5565b6040516103159190613e96565b61035b610547366004613bf0565b611271565b61035b61055a366004613a11565b61128e565b61033161056d366004613c1b565b61129c565b610331610580366004613d18565b611395565b6103df610593366004613a81565b611440565b6103316105a6366004613b7b565b6114c4565b6103466105b9366004613a11565b611553565b6103316105cc366004613a11565b61163b565b6103316105df366004613a49565b611703565b61037b6105f2366004613a49565b611752565b61037b610605366004613a49565b6117a2565b61035b6117ef565b610346610620366004613c1b565b6117f5565b610331610633366004613a11565b611814565b610346610646366004613a11565b6118dc565b61035b610659366004613a11565b611ac2565b61052c61066c366004613a49565b611acd565b61033161067f366004613b11565b611b85565b610331610692366004613b11565b611c3a565b6103ac611e0f565b6106b26106ad366004613b11565b611e1e565b604051610315929190613f26565b6103316106ce366004613c4f565b611e4c565b606060006106e18484611e86565b506000818152600f602052604081209192506106fc82611f91565b905060608167ffffffffffffffff8111801561071757600080fd5b50604051908082528060200260200182016040528015610741578160200160208202803683370190505b50905060005b8281101561077e57600061075b8583611f9c565b90508083838151811061076a57fe5b602090810291909101015250600101610747565b5093505050505b92915050565b610796600a33611fa8565b6107bb5760405162461bcd60e51b81526004016107b2906143a7565b60405180910390fd5b6001600160a01b03811660009081526011602052604090206107dd9033611fbd565b5050565b6000610785600a83611fa8565b60015481565b6000806108078484600080600080611fd2565b915091505b9250929050565b336000818152600e602052604090205460ff16156108435760405162461bcd60e51b81526004016107b2906140ce565b60408051600080825260208201909252606091610870565b606081526020019060019003908161085b5790505b5060408051600081526020810190915290915061088d8282612077565b505050565b6004546001600160a01b031633146108bc5760405162461bcd60e51b81526004016107b2906143d5565b600081116108dc5760405162461bcd60e51b81526004016107b290614229565b7fe135f14e1ac2d9c1c5e2859613f7d45a1d0bcf13eb54f0cc1865c2e4d9a02eba6001548260405161090f929190613f58565b60405180910390a1600155565b6007546001600160a01b031681565b6001600160a01b03166000908152600e602052604090205460ff1690565b60008060008061095f8686600080600080612127565b9299919850965090945092505050565b6006546001600160a01b031633146109995760405162461bcd60e51b81526004016107b290614463565b6109a48383836124fb565b61088d5760405162461bcd60e51b81526004016107b290613fbc565b6004546001600160a01b031633146109ea5760405162461bcd60e51b81526004016107b2906143d5565b60008111610a0a5760405162461bcd60e51b81526004016107b290614229565b6002548110610a2b5760405162461bcd60e51b81526004016107b2906140fa565b7f948ba262e91565b9caa2284557ddf9a7fb36ee3f00681b4fd1bfaae941e9188f60035482604051610a5e929190613f58565b60405180910390a1600355565b6004546000906001600160a01b03163314610a985760405162461bcd60e51b81526004016107b2906143d5565b610aa3600a83611fa8565b610abf5760405162461bcd60e51b81526004016107b290614289565b60008290506000816001600160a01b031663a5f7379f6040518163ffffffff1660e01b815260040160206040518083038186803b158015610aff57600080fd5b505afa158015610b13573d6000803e3d6000fd5b505050506040513d601f19601f82011682018060405250810190610b379190613d00565b90506000826001600160a01b0316639d76ea586040518163ffffffff1660e01b815260040160206040518083038186803b158015610b7457600080fd5b505afa158015610b88573d6000803e3d6000fd5b505050506040513d601f19601f82011682018060405250810190610bac9190613a2d565b9050846001600160a01b03167fb2625a768c47f82a2a5ab9fb7e2633fd82d48f0e38f890d3a02585d74e270d028383604051610be9929190613f41565b60405180910390a2610bfc600a86611fbd565b95945050505050565b610c10600a33611fa8565b610c2c5760405162461bcd60e51b81526004016107b2906143a7565b6001600160a01b03811660009081526011602052604090206107dd90336125f0565b6000610c5c82600080612605565b5092915050565b60005481565b6000610785600883611fa8565b6006546001600160a01b031681565b610c90600a33611fa8565b610cac5760405162461bcd60e51b81526004016107b2906143a7565b6000610cb88383611e86565b506000818152601060205260409020909150610cd49033611fbd565b50505050565b6004546001600160a01b03163314610d045760405162461bcd60e51b81526004016107b2906143d5565b6001600160a01b038116610d2a5760405162461bcd60e51b81526004016107b2906141cc565b610d3c816001600160a01b0316612676565b610d585760405162461bcd60e51b81526004016107b290614252565b600680546001600160a01b0319166001600160a01b0383169081179091556040517f46f5f516f6e3226c27d878e2a87f74ebdc95e752f7d5de0f102a231a8d28f74590600090a250565b6004546001600160a01b03163314610dcc5760405162461bcd60e51b81526004016107b2906143d5565b6001548314610dde57610dde83610892565b6002548214610df057610df082611395565b600054811461088d5761088d815b6004546001600160a01b03163314610e285760405162461bcd60e51b81526004016107b2906143d5565b60008111610e485760405162461bcd60e51b81526004016107b2906142c0565b6002548110610e695760405162461bcd60e51b81526004016107b290614131565b7f4bf48f4a07b20309fa7bd58d04c1aa538e17a29099bebb19872d1a54e8e1c4ea60005482604051610e9c929190613f58565b60405180910390a1600055565b60035481565b610eba600833611fa8565b610ed65760405162461bcd60e51b81526004016107b290614168565b6000610ee28787611e86565b506000818152600f60205260409020909150610efe908661267c565b610f1a5760405162461bcd60e51b81526004016107b2906144ca565b610f2a6012888888888888612688565b610f36878760016127b5565b856001600160a01b0316876001600160a01b03167f68138c591862f56cecd08a2037bc5b644ec9511c6e90845a64e12fd295a99f2687878787604051610f7f9493929190613f66565b60405180910390a350505050505050565b610f9b600833611fa8565b610fb75760405162461bcd60e51b81526004016107b290614168565b610fc66012868686868661283c565b610fd2858560016127b5565b836001600160a01b0316856001600160a01b03167fff9f0c6cfb29ffc1a20f3a25b0cb947e89cb363e39e3db0df827dcec79f126b685858560405161101993929190613f83565b60405180910390a35050505050565b6004546000906001600160a01b031633146110555760405162461bcd60e51b81526004016107b2906143d5565b611060600883611fa8565b61107c5760405162461bcd60e51b81526004016107b290614289565b6040516001600160a01b038316907f484fb579b9a8ea6000e970f2490ecb56612c86295b1467a5063ec9a2220b2e4b90600090a2610785600883611fbd565b6110c6600833611fa8565b6110e25760405162461bcd60e51b81526004016107b290614168565b6001600160a01b0383166000908152600c60209081526040808320858452909152902054611110908261292a565b6001600160a01b0384166000908152600c60209081526040808320868452909152902081905561115e576001600160a01b0383166000908152600d6020526040902061115c9083612952565b505b826001600160a01b03167fb4c40c9409d6c2c7dfd2fb0d7e0f26582b9dd0dee72dc0ff6ff09af501ba7a768383604051611199929190613f58565b60405180910390a2505050565b6004546001600160a01b031681565b6001600160a01b03811660009081526011602052604081206060916111d982611f91565b905060608167ffffffffffffffff811180156111f457600080fd5b5060405190808252806020026020018201604052801561121e578160200160208202803683370190505b50905060005b828110156112685760006112388583611f9c565b90508083838151811061124757fe5b6001600160a01b039092166020928302919091019091015250600101611224565b50949350505050565b600c60209081526000928352604080842090915290825290205481565b60006107858260008061295e565b6112a7600833611fa8565b6112c35760405162461bcd60e51b81526004016107b290614168565b6001600160a01b0383166000908152600d602052604090206112e59083612a9c565b506112f18383836117f5565b61130d5760405162461bcd60e51b81526004016107b290614434565b6001600160a01b0383166000908152600c6020908152604080832085845290915290205461133b9082612aa8565b6001600160a01b0384166000818152600c60209081526040808320878452909152908190209290925590517f430a1193f254f9e15dc397d101a1ecf0a3383c95007062135900cc7c2a6b8043906111999085908590613f58565b6004546001600160a01b031633146113bf5760405162461bcd60e51b81526004016107b2906143d5565b600081116113df5760405162461bcd60e51b81526004016107b290614229565b60015481106114005760405162461bcd60e51b81526004016107b2906142e9565b7fa4445a1c25ee07dc5cbb362ccd32feb0c96f53b9c05588e53d7a05ea1975813a60025482604051611433929190613f58565b60405180910390a1600255565b60008060008060006114528888611e86565b506000818152600f6020526040902090915061146e908761267c565b61148a5760405162461bcd60e51b81526004016107b2906144ca565b61149261376f565b61149f60128a8a8a612acd565b805160208201516040830151606090930151919c909b50919950975095505050505050565b6114cf600833611fa8565b6114eb5760405162461bcd60e51b81526004016107b290614168565b6114fc601288888888888888612b45565b611508878760016127b5565b856001600160a01b0316876001600160a01b03167f93e5ba92322cd89358ce3fbbe2b25b694ef010aee4a1e46ac849c392887bd5088787878787604051610f7f959493929190613f99565b6004546000906001600160a01b031633146115805760405162461bcd60e51b81526004016107b2906143d5565b6001600160a01b0382166115a65760405162461bcd60e51b81526004016107b2906141cc565b6115b8826001600160a01b0316612676565b6115d45760405162461bcd60e51b81526004016107b290614252565b6115df600883611fa8565b156115fc5760405162461bcd60e51b81526004016107b2906143fd565b6040516001600160a01b038316907f6426e73541c82494e19ac1646c231acf4b36f248c5146ed03a248e35dde1fac090600090a26107856008836125f0565b6004546001600160a01b031633146116655760405162461bcd60e51b81526004016107b2906143d5565b6001600160a01b03811661168b5760405162461bcd60e51b81526004016107b2906141cc565b61169d816001600160a01b0316612676565b6116b95760405162461bcd60e51b81526004016107b290614252565b600780546001600160a01b0319166001600160a01b0383169081179091556040517f989a6b1f040653a79dfe5f704cecdd21dab3e67fc917106ce621d6711bc3332f90600090a250565b61170e600a33611fa8565b61172a5760405162461bcd60e51b81526004016107b2906143a7565b60006117368383611e86565b506000818152601060205260409020909150610cd490336125f0565b60008060008060008061176d88886000806000806001612c20565b9296509094509250905082611783576000611785565b835b81611791576000611793565b825b95509550505050509250929050565b6000806000806000806117bd88886000806000806001612c20565b92965090945092509050826117d257836117d5565b60005b816117e05782611793565b98600098509650505050505050565b60025481565b600080611803858585612605565b5060015411159150505b9392505050565b6004546001600160a01b0316331461183e5760405162461bcd60e51b81526004016107b2906143d5565b6001600160a01b0381166118645760405162461bcd60e51b81526004016107b2906141cc565b611876816001600160a01b0316612676565b6118925760405162461bcd60e51b81526004016107b290614252565b600580546001600160a01b0319166001600160a01b0383169081179091556040517f432f91f15e19a8fa78cf858ff971e246d92cdd2d6049f4ad52566b3fae85d2f490600090a250565b6004546000906001600160a01b031633146119095760405162461bcd60e51b81526004016107b2906143d5565b6001600160a01b03821661192f5760405162461bcd60e51b81526004016107b2906141cc565b611941826001600160a01b0316612676565b61195d5760405162461bcd60e51b81526004016107b290614252565b611968600a83611fa8565b156119855760405162461bcd60e51b81526004016107b2906143fd565b60008290506000816001600160a01b031663a5f7379f6040518163ffffffff1660e01b815260040160206040518083038186803b1580156119c557600080fd5b505afa1580156119d9573d6000803e3d6000fd5b505050506040513d601f19601f820116820180604052508101906119fd9190613d00565b90506000826001600160a01b0316639d76ea586040518163ffffffff1660e01b815260040160206040518083038186803b158015611a3a57600080fd5b505afa158015611a4e573d6000803e3d6000fd5b505050506040513d601f19601f82011682018060405250810190611a729190613a2d565b9050846001600160a01b03167ff5c161467306371e9a1f3ee7ac7573078c4e85ed24a127cf6523c0e2e298ad158383604051611aaf929190613f41565b60405180910390a2610bfc600a866125f0565b6000610c5c82612cf2565b60606000611adb8484611e86565b506000818152601060205260408120919250611af682611f91565b905060608167ffffffffffffffff81118015611b1157600080fd5b50604051908082528060200260200182016040528015611b3b578160200160208202803683370190505b50905060005b8281101561077e576000611b558583611f9c565b905080838381518110611b6457fe5b6001600160a01b039092166020928302919091019091015250600101611b41565b611b90600833611fa8565b611bac5760405162461bcd60e51b81526004016107b290614168565b6000611bb88787611e86565b506000818152600f60205260409020909150611bd49086612a9c565b50611be56012888888888888612d9b565b611bf1878760016127b5565b856001600160a01b0316876001600160a01b03167fb98a18b045c69b240b38573658669b475c5431a85b85c92eb84473a2c3ff09a587878787604051610f7f9493929190613f66565b6006546001600160a01b0316331480611c595750611c59600833611fa8565b611c755760405162461bcd60e51b81526004016107b290614361565b6000611c98612710611c9260005487612e8f90919063ffffffff16565b90612ec9565b6005546040516344a6ecdd60e01b81529192506000916001600160a01b03909116906344a6ecdd90611cd09089908690600401613f58565b60206040518083038186803b158015611ce857600080fd5b505afa158015611cfc573d6000803e3d6000fd5b505050506040513d601f19601f82011682018060405250810190611d209190613d00565b9050611d2d8888836124fb565b611d495760405162461bcd60e51b81526004016107b290613fbc565b866001600160a01b0316886001600160a01b03167fed433eb165bd381b6fa417686c541023235ba1cc52f6075a29f79d4d28d328bc8888604051611d8e929190613f58565b60405180910390a3611da7601289898988600089612688565b866001600160a01b0316886001600160a01b03167f68138c591862f56cecd08a2037bc5b644ec9511c6e90845a64e12fd295a99f268887600088604051611df19493929190613f66565b60405180910390a3611e05888860016127b5565b5050505050505050565b6005546001600160a01b031681565b600080600080611e328a8a8a8a8a8a611fd2565b600154918211159550101592505050965096945050505050565b336000818152600e602052604090205460ff1615611e7c5760405162461bcd60e51b81526004016107b2906140ce565b61088d8383612077565b600080826001600160a01b0316846001600160a01b03161415611ebb5760405162461bcd60e51b81526004016107b290614041565b600080846001600160a01b0316866001600160a01b031610611ede578486611ee1565b85855b90925090506001600160a01b038216611f0c5760405162461bcd60e51b81526004016107b29061406e565b856001600160a01b0316826001600160a01b031614611f5b578181604051602001611f38929190613e58565b60405160208183030381529060405280519060200120600193509350505061080c565b8181604051602001611f6e929190613e58565b60405160208183030381529060405280519060200120600093509350505061080c565b600061078582612efb565b600061180d8383612eff565b600061180d836001600160a01b038416612f44565b600061180d836001600160a01b038416612f5c565b600080611fdd613797565b611feb898989898989613022565b60208301528152611ffc8989613145565b60a0830152608082015280511561202c57805160808201516120269190611c929061271090612e8f565b60408201525b60208101511561205d576120578160200151611c928360a00151612710612e8f90919063ffffffff16565b60608201525b806040015181606001519250925050965096945050505050565b336000818152600e602052604090819020805460ff19166001179055600754905163e9ac42cb60e01b81526001600160a01b03919091169163e9ac42cb916120c6919085908790600401613d92565b600060405180830381600087803b1580156120e057600080fd5b505af11580156120f4573d6000803e3d6000fd5b50506040513392507feeda149c76076b34d4b9d8896c2f7efc0d33d1c7b53ea3c5db490d64613f603a9150600090a25050565b6000806000806121356137cd565b61213f8b8b611e86565b508082526000908152600f6020526040902061215a81611f91565b61022083015260005b8261022001518110156123c15761217a8282611f9c565b602084018190528b14156121a65761219c60128e8e86602001518e8e8e61326a565b60408401526121bd565b6121b760128e8e8660200151612acd565b60408401525b6005546020840151604051630ba1ffe760e11b81526001600160a01b0390921691631743ffce916121f091600401613f38565b60206040518083038186803b15801561220857600080fd5b505afa15801561221c573d6000803e3d6000fd5b505050506040513d601f19601f820116820180604052508101906122409190613d00565b6060840181905260408401516122559161333c565b6040840181905251608084015161226b91612aa8565b608084015260408301516020015160a084015161228791612aa8565b60a08401526005546020840151604051634d5ed9c560e11b81526001600160a01b0390921691639abdb38a916122bf91600401613f38565b60206040518083038186803b1580156122d757600080fd5b505afa1580156122eb573d6000803e3d6000fd5b505050506040513d601f19601f8201168201806040525081019061230f9190613d00565b610180840152604080840151015160c084015161232b91612aa8565b60c084015260408301516060015160e084015161234791612aa8565b60e0840152610180830151604080850151015161237c916123709161271091611c929190612e8f565b61014085015190612aa8565b6101408401526101808301516040840151606001516123b3916123a79161271091611c929190612e8f565b61016085015190612aa8565b610160840152600101612163565b508161016001518260c0015110156123da5760006123ee565b61016082015160c08301516123ee9161292a565b6101a083015261014082015160e0830151101561240c576000612420565b61014082015160e08301516124209161292a565b6101c083018190526101a0830151116124685781608001516124638360a0015161245d856101a00151866101c0015161292a90919063ffffffff16565b90612aa8565b612493565b61248d826080015161245d846101c00151856101a0015161292a90919063ffffffff16565b8260a001515b6102008401526101e083015260c082015160808301516124b291612aa8565b61010083015260e082015160a08301516124cb91612aa8565b61012083018190526101e083015161020084015161010090940151909e939d509b50995090975050505050505050565b6001600160a01b03831660009081526011602052604081208161251d82611f91565b905060005b841580159061253057508181105b156125d15760006125418483611f9c565b6040516326c0130360e01b81529091506001600160a01b038216906326c0130390612574908b908b908b90600401613e72565b602060405180830381600087803b15801561258e57600080fd5b505af11580156125a2573d6000803e3d6000fd5b505050506040513d601f19601f820116820180604052508101906125c69190613d00565b955050600101612522565b84156125e3576000935050505061180d565b5060019695505050505050565b600061180d836001600160a01b038416613408565b60008061261061385c565b61261b86868661295e565b815261262686613452565b6040820152805115612655578051604082015161264b9190611c929061271090612e8f565b6020820152612661565b5160009250905061266e565b6020810151905190925090505b935093915050565b3b151590565b600061180d8383612f44565b6000806126958888611e86565b600082815260208c815260408083208b845290915290209193509150816127325785156126ee57836126d55780546126cd908761292a565b8082556126ec565b60028101546126e4908761292a565b816002018190555b505b841561272d5783612714576001810154612708908661292a565b8160010181905561272b565b6003810154612723908661292a565b816003018190555b505b6127a9565b8515612771578361275857600181015461274c908761292a565b8160010181905561276f565b6003810154612767908761292a565b816003018190555b505b84156127a95783612790578054612788908661292a565b8082556127a7565b600281015461279f908661292a565b816002018190555b505b50505050505050505050565b6000806000806127cc87876000806000808b612c20565b93509350935093506000841115612805576127e987878686613530565b6128055760405162461bcd60e51b81526004016107b290614493565b81156128335761281786888484613530565b6128335760405162461bcd60e51b81526004016107b290614493565b50505050505050565b6000806128498787611e86565b600082815260208b815260408083208a845290915290209193509150816128c757841561289357805461287c908661292a565b8155600281015461288d9086612aa8565b60028201555b83156128c25760018101546128a8908561292a565b600182015560038101546128bc9085612aa8565b60038201555b61291f565b84156128f65760018101546128dc908661292a565b600182015560038101546128f09086612aa8565b60038201555b831561291f578054612908908561292a565b815560028101546129199085612aa8565b60028201555b505050505050505050565b60008282111561294c5760405162461bcd60e51b81526004016107b290614195565b50900390565b600061180d8383612f5c565b6001600160a01b0383166000908152600d6020526040812061297e61376f565b61298782611f91565b606082015260005b8160600151811015612a915760006129a78483611f9c565b6001600160a01b0389166000908152600c60209081526040808320848452825290912054908501529050868114156129ee5760208301516129e89087612aa8565b60208401525b60055460208401516040516344a6ecdd60e01b81526001600160a01b03909216916344a6ecdd91612a2491859190600401613f58565b60206040518083038186803b158015612a3c57600080fd5b505afa158015612a50573d6000803e3d6000fd5b505050506040513d601f19601f82011682018060405250810190612a749190613d00565b604084018190528351612a8691612aa8565b83525060010161298f565b505195945050505050565b600061180d8383613408565b60008282018381101561180d5760405162461bcd60e51b81526004016107b290614097565b612ad561376f565b600080612ae28686611e86565b600082815260208a81526040808320898452825291829020825160808101845281548152600182015492810192909252600281015492820192909252600390910154606082015294509092509050612b3a83826136b7565b979650505050505050565b600080612b528989611e86565b600082815260208d815260408083208c84529091529020919350915081612bc6578415612b9a57612b948561245d89846002015461292a90919063ffffffff16565b60028201555b8315612bc157612bbb8461245d88846003015461292a90919063ffffffff16565b60038201555b6127a7565b8415612bed57612be78561245d89846003015461292a90919063ffffffff16565b60038201555b83156127a757612c0e8461245d88846002015461292a90919063ffffffff16565b60028201555050505050505050505050565b600080600080612c2e61387d565b612c3c8c8c8c8c8c8c613022565b602083015281528515612c80576001548151612c5f9161271091611c9291612e8f565b81526001546020820151612c7a9161271091611c9291612e8f565b60208201525b612c8a8c8c613145565b60e083015260c082018190528151612ca291906136e8565b15156060830152604082015260e08101516020820151612cc291906136e8565b151560a08301819052608083018290526040830151606090930151929e929d50909b509950975050505050505050565b600080612cfd6138c6565b612d0984600080612605565b82526020820152612d1984613452565b608082015260015460208201511115612d66576001546020820151612d3d9161292a565b6040820181905260208201516080830151612d5c92611c929190612e8f565b6060820152612d89565b8051612d7d57608081015190519092509050612d96565b51600092509050612d96565b6060810151905190925090505b915091565b600080612da88888611e86565b600082815260208c815260408083208b84529091529020919350915081612e2a578515612e015783612de8578054612de09087612aa8565b808255612dff565b6002810154612df79087612aa8565b816002018190555b505b841561272d5783612e1b5760018101546127089086612aa8565b60038101546127239086612aa8565b8515612e695783612e50576001810154612e449087612aa8565b81600101819055612e67565b6003810154612e5f9087612aa8565b816003018190555b505b84156127a95783612e805780546127889086612aa8565b600281015461279f9086612aa8565b600082612e9e57506000610785565b82820282848281612eab57fe5b041461180d5760405162461bcd60e51b81526004016107b290614320565b6000808211612eea5760405162461bcd60e51b81526004016107b2906141f2565b818381612ef357fe5b049392505050565b5490565b81546000908210612f225760405162461bcd60e51b81526004016107b290613fff565b826000018281548110612f3157fe5b9060005260206000200154905092915050565b60009081526001919091016020526040902054151590565b600081815260018301602052604081205480156130185783546000198083019190810190600090879083908110612f8f57fe5b9060005260206000200154905080876000018481548110612fac57fe5b600091825260208083209091019290925582815260018981019092526040902090840190558654879080612fdc57fe5b60019003818190600052602060002001600090559055866001016000878152602001908152602001600020600090556001945050505050610785565b6000915050610785565b60008061302d6138f5565b61303b898989898989612127565b60608501526040840181905260208401919091529082526003546130679161271091611c929190612e8f565b608082015260035460608201516130859161271091611c9291612e8f565b60a08201528051156130c85760015481516130a79161271091611c9291612e8f565b8160800151116130b85780516130be565b80608001515b60c08201526130d3565b608081015160c08201525b602081015115613120576130fc612710611c926001548460200151612e8f90919063ffffffff16565b8160a0015111613110578060200151613116565b8060a001515b60e082015261312b565b60a081015160e08201525b8060c001518160e001519250925050965096945050505050565b60008060006131548585611e86565b50600081815260106020526040902090915061316e6138c6565b61317782611f91565b815260005b81518110156132515760006131918483611f9c565b604051631232c4f560e21b81529091506001600160a01b038216906348cb13d4906131c2908c908c90600401613e58565b604080518083038186803b1580156131d957600080fd5b505afa1580156131ed573d6000803e3d6000fd5b505050506040513d601f19601f820116820180604052508101906132119190613d30565b604085015260208401819052606084015161322b91612aa8565b60608401526040830151608084015161324391612aa8565b60808401525060010161317c565b5080606001518160800151945094505050509250929050565b61327261376f565b60008061327f8989611e86565b600082815260208d815260408083208c84528252918290208251608081018452815481526001820154928101929092526002810154928201929092526003909101546060820152945090925090506132d783826136b7565b9250831561330c5760408301516132ee9087612aa8565b604084015260608301516133029086612aa8565b606084015261332f565b82516133189087612aa8565b835260208301516133299086612aa8565b60208401525b5050979650505050505050565b61334461376f565b82511561336857825161336590670de0b6b3a764000090611c929085612e8f565b83525b60208301511561339b57613395670de0b6b3a7640000611c92848660200151612e8f90919063ffffffff16565b60208401525b6040830151156133ce576133c8670de0b6b3a7640000611c92848660400151612e8f90919063ffffffff16565b60408401525b606083015115613401576133fb670de0b6b3a7640000611c92848660600151612e8f90919063ffffffff16565b60608401525b5090919050565b60006134148383612f44565b61344a57508154600181810184556000848152602080822090930184905584548482528286019093526040902091909155610785565b506000610785565b6001600160a01b038116600090815260116020526040812081808061347684611f91565b905060005b8181101561352557600061348f8683611f9c565b60405163d98e918560e01b81529091506001600160a01b0382169063d98e9185906134be908b90600401613d7e565b60206040518083038186803b1580156134d657600080fd5b505afa1580156134ea573d6000803e3d6000fd5b505050506040513d601f19601f8201168201806040525081019061350e9190613d00565b945061351a8486612aa8565b93505060010161347b565b509095945050505050565b6001600160a01b03841660009081526011602052604081208161355282611f91565b905060005b851580159061356557508181105b156136955760006135768483611f9c565b9050851561360757604051634c64f21d60e11b81526001600160a01b038216906398c9e43a906135ae908c908c908c90600401613e72565b602060405180830381600087803b1580156135c857600080fd5b505af11580156135dc573d6000803e3d6000fd5b505050506040513d601f19601f820116820180604052508101906136009190613d00565b965061368c565b6040516358846d5360e11b81526001600160a01b0382169063b108daa690613637908c908c908c90600401613e72565b602060405180830381600087803b15801561365157600080fd5b505af1158015613665573d6000803e3d6000fd5b505050506040513d601f19601f820116820180604052508101906136899190613d00565b96505b50600101613557565b85156136a757600093505050506136af565b600193505050505b949350505050565b6136bf61376f565b811561340157505080516040820180516020840180518552929092526060830180519091525290565b6000806000841180156136fb5750600083115b15613733578284111561371d57613712848461292a565b91506001905061372e565b613727838561292a565b9150600090505b61080c565b600084118015613741575082155b156137515750829050600161080c565b8315801561375f5750600083115b1561080c57509092600092509050565b6040518060800160405280600081526020016000815260200160008152602001600081525090565b6040518060c001604052806000815260200160008152602001600081526020016000815260200160008152602001600081525090565b6040805161024081018252600080825260208201529081016137ed61376f565b81526020016000815260200160008152602001600081526020016000815260200160008152602001600081526020016000815260200160008152602001600081526020016000815260200160008152602001600081526020016000815260200160008152602001600081525090565b60405180606001604052806000815260200160008152602001600081525090565b6040518061010001604052806000815260200160008152602001600081526020016000151581526020016000815260200160001515815260200160008152602001600081525090565b6040518060a0016040528060008152602001600081526020016000815260200160008152602001600081525090565b60405180610100016040528060008152602001600081526020016000815260200160008152602001600081526020016000815260200160008152602001600081525090565b600082601f83011261394a578081fd5b813561395d61395882614532565b61450b565b81815291506020808301908481018184028601820187101561397e57600080fd5b60005b8481101561399d57813584529282019290820190600101613981565b505050505092915050565b600082601f8301126139b8578081fd5b813567ffffffffffffffff8111156139ce578182fd5b6139e1601f8201601f191660200161450b565b91508082528360208285010111156139f857600080fd5b8060208401602084013760009082016020015292915050565b600060208284031215613a22578081fd5b813561180d8161457e565b600060208284031215613a3e578081fd5b815161180d8161457e565b60008060408385031215613a5b578081fd5b8235613a668161457e565b91506020830135613a768161457e565b809150509250929050565b600080600060608486031215613a95578081fd5b8335613aa08161457e565b92506020840135613ab08161457e565b929592945050506040919091013590565b600080600080600060a08688031215613ad8578081fd5b8535613ae38161457e565b94506020860135613af38161457e565b94979496505050506040830135926060810135926080909101359150565b60008060008060008060c08789031215613b29578081fd5b8635613b348161457e565b95506020870135613b448161457e565b945060408701359350606087013592506080870135915060a08701358015158114613b6d578182fd5b809150509295509295509295565b600080600080600080600060e0888a031215613b95578081fd5b8735613ba08161457e565b96506020880135613bb08161457e565b96999698505050506040850135946060810135946080820135945060a0820135935060c0909101359150565b600080600060608486031215613a95578283fd5b60008060408385031215613c02578182fd5b8235613c0d8161457e565b946020939093013593505050565b600080600060608486031215613c2f578081fd5b8335613c3a8161457e565b95602085013595506040909401359392505050565b60008060408385031215613c61578182fd5b823567ffffffffffffffff80821115613c78578384fd5b818501915085601f830112613c8b578384fd5b8135613c9961395882614532565b81815260208082019190858101885b85811015613cd157613cbf8c8484358b01016139a8565b85529382019390820190600101613ca8565b50919750880135945050505080821115613ce9578283fd5b50613cf68582860161393a565b9150509250929050565b600060208284031215613d11578081fd5b5051919050565b600060208284031215613d29578081fd5b5035919050565b60008060408385031215613d42578182fd5b505080516020909101519092909150565b600080600060608486031215613d67578081fd5b505081359360208301359350604090920135919050565b6001600160a01b0391909116815260200190565b6001600160a01b038416815260606020808301829052845191830182905260009185820191906080850190845b81811015613ddb57845183529383019391830191600101613dbf565b505084810360408601528551808252828201935082810282018301838801865b83811015613e4857601f198086850301885282518051613e1b8187613f38565b613e2882828c8601614552565b99890199601f919091019092169190910193505090850190600101613dfb565b50909a9950505050505050505050565b6001600160a01b0392831681529116602082015260400190565b6001600160a01b039384168152919092166020820152604081019190915260600190565b6020808252825182820181905260009190848201906040850190845b81811015613ed75783516001600160a01b031683529284019291840191600101613eb2565b50909695505050505050565b6020808252825182820181905260009190848201906040850190845b81811015613ed757835183529284019291840191600101613eff565b901515815260200190565b91151582521515602082015260400190565b90815260200190565b9182526001600160a01b0316602082015260400190565b918252602082015260400190565b938452602084019290925260408301521515606082015260800190565b9283526020830191909152604082015260600190565b948552602085019390935260408401919091526060830152608082015260a00190565b60208082526023908201527f494e434f52524543545f4c49515549444154494f4e5f4143524f53535f5641556040820152624c545360e81b606082015260800190565b60208082526022908201527f456e756d657261626c655365743a20696e646578206f7574206f6620626f756e604082015261647360f01b606082015260800190565b6020808252601390820152724964656e746963616c2061646472657373657360681b604082015260600190565b6020808252600f908201526e496e76616c6964206164647265737360881b604082015260600190565b6020808252601b908201527f536166654d6174683a206164646974696f6e206f766572666c6f770000000000604082015260600190565b602080825260129082015271524547495354455245445f414c524541445960701b604082015260600190565b6020808252601d908201527f4d494e5f434f4c4c41544552414c5f524154494f5f4f564552464c4f57000000604082015260600190565b6020808252601a908201527f4c49515549444154494f4e5f50524943455f4f564552464c4f57000000000000604082015260600190565b6020808252601390820152722727a72fa1a7a62620aa22a920a62faaa9a2a960691b604082015260600190565b6020808252601e908201527f536166654d6174683a207375627472616374696f6e206f766572666c6f770000604082015260600190565b6020808252600c908201526b5a65726f206164647265737360a01b604082015260600190565b6020808252601a908201527f536166654d6174683a206469766973696f6e206279207a65726f000000000000604082015260600190565b6020808252600f908201526e494e434f52524543545f524154494f60881b604082015260600190565b6020808252601e908201527f43616e277420616464206e6f6e2d636f6e747261637420616464726573730000604082015260600190565b6020808252601e908201527f43616e27742072656d6f7665206e6f6e2d6578697374696e6720757365720000604082015260600190565b6020808252600f908201526e494e434f52524543545f505249434560881b604082015260600190565b6020808252601f908201527f4155544f5f4c49515549444154494f4e5f524154494f5f4f564552464c4f5700604082015260600190565b60208082526021908201527f536166654d6174683a206d756c7469706c69636174696f6e206f766572666c6f6040820152607760f81b606082015260800190565b60208082526026908201527f4e4f525f4c49515549444154494f4e5f454e47494e455f434f4c4c4154455241604082015265262faaa9a2a960d11b606082015260800190565b6020808252601490820152731393d397d0d3d31310551154905317d59055531560621b604082015260600190565b6020808252600e908201526d494e56414c49445f41434345535360901b604082015260600190565b6020808252601a908201527f43616e277420616464206578697374696e672061646472657373000000000000604082015260600190565b602080825260159082015274139bdd08195b9bdd59da0818dbdb1b185d195c985b605a1b604082015260600190565b6020808252601690820152754e4f4e5f4c49515549444154494f4e5f454e47494e4560501b604082015260600190565b6020808252601e908201527f4e4f4e5f454e4f5547485f46554e44535f464f525f524542414c414e43450000604082015260600190565b6020808252600c908201526b6e6f6e2d757365642063637960a01b604082015260600190565b93845260208401929092526040830152606082015260800190565b60405181810167ffffffffffffffff8111828210171561452a57600080fd5b604052919050565b600067ffffffffffffffff821115614548578081fd5b5060209081020190565b60005b8381101561456d578181015183820152602001614555565b83811115610cd45750506000910152565b6001600160a01b038116811461459357600080fd5b5056fea2646970667358221220e919899c5e78e8efdbd7c61f7cbf89263ce7b1df6daa425aa185c68ed616b51964736f6c634300060c0033",
  "devdoc": {
    "kind": "dev",
    "methods": {
      "addCollateralUser(address)": {
        "details": "Trigers to add contract address to collateral users address set",
        "params": {
          "_user": "Collateral user smart contract address"
        }
      },
      "getCoverage(address,address)": {
        "details": "Triggers to get bilateral position collateral coverage.",
        "params": {
          "_party0": "Counterparty A address",
          "_party1": "Counterparty B address"
        }
      },
      "getMaxCollateralBookWidthdraw(address)": {
        "details": "Triggers to get maximum amount of ETH available to widthdraw from `_user` collateral book.",
        "params": {
          "_user": "User's address"
        }
      },
      "getMaxCollateralWidthdraw(address,address)": {
        "details": "Triggers to get maximum amount of ETH available to widthdraw from bilateral position between `party0` and `_party1`.",
        "params": {
          "_party0": "Counterparty A address",
          "_party1": "Counterparty B address"
        }
      },
      "getNetAndTotalPV(address,address)": {
        "details": "Triggers to calculate netted exposures across all currencies with applied haircuts",
        "params": {
          "_party0": "Counterparty A address",
          "_party1": "Counterparty B address"
        }
      },
      "getRebalanceCollateralAmounts(address,address)": {
        "details": "Triggers to get coverage of the global collateral book against all unsettled exposure.",
        "params": {
          "_party0": "Counterparty A address",
          "_party1": "Counterparty B address"
        }
      },
      "getTotalUnsettledExp(address)": {
        "details": "Triggers to calculate total unsettled exposure across all currencies",
        "params": {
          "_user": "User's address"
        }
      },
      "getUnsettledCoverage(address)": {
        "details": "Triggers to get coverage of the global collateral book against all unsettled exposure.",
        "params": {
          "_user": "User's address"
        }
      },
      "isCollateralUser(address)": {
        "details": "Trigers to check if provided `addr` is a collateral user from address set",
        "params": {
          "_user": "Contract address to check if it's a collateral user"
        }
      },
      "isCollateralVault(address)": {
        "details": "Trigers to check if provided address is valid CollateralVault",
        "params": {
          "_vault": "Contract address to check if it's a CollateralVault"
        }
      },
      "isCovered(address,address,bytes32,uint256,uint256,bool)": {
        "details": "Triggers to check if collateral covered more that 150%.",
        "params": {
          "_ccy": "Currency to calculate additional PV for",
          "_party0": "Counterparty A address",
          "_party0PV": "Counterparty A additional present value",
          "_party1": "Counterparty B address",
          "_party1PV": "Counterparty B additional present value"
        }
      },
      "isCoveredUnsettled(address,bytes32,uint256)": {
        "details": "Triggers to check if unsettled collateral exposure covered more that 150% from a global collateral book of `_user`.",
        "params": {
          "_ccy": "Currency to calculate additional PV for",
          "_unsettledExp": "Additional exposure to lock into unsettled exposure",
          "_user": "User's ethereum address"
        }
      },
      "linkCollateralVault(address)": {
        "details": "Trigers to link CollateralVault with aggregator",
        "params": {
          "_vault": "CollateralVault smart contract address"
        }
      },
      "liquidate(address,address,bytes32,uint256,uint256,bool)": {
        "details": "Triggers to liquidate collateral between `from` and `to` parties works liquidation amount in native `ccy`",
        "params": {
          "ccy": "Short identifier of currency used to liquidate",
          "from": "Address for liquidating collateral from",
          "isSettled": "Identifier wether collateral obligations for release is settled",
          "liquidationAmount": "Liquidation amount in Ccy",
          "to": "Address for sending collateral to"
        }
      },
      "liquidate(address,address,uint256)": {
        "details": "Triggers to liquidate collateral between `from` and `to` parties works with aggregated liquidation amount in ETH",
        "params": {
          "from": "Address for liquidating collateral from",
          "liquidationInETH": "Liquidation amount in Ccy",
          "to": "Address for sending collateral to"
        }
      },
      "register()": {
        "details": "Register user and store collateral book"
      },
      "register(string[],uint256[])": {
        "details": "Register user and store collateral book",
        "params": {
          "_addresses": "Array of other blockchain addresses",
          "_chainIds": "Array of chain ids for other blockchains"
        }
      },
      "releaseCollateral(address,address,bytes32,uint256,uint256,bool)": {
        "details": "Triggers to reduce PV for specific `ccy` in bilateral position between `partyA` and `partyB`",
        "params": {
          "amount0": "Amount of funds to be removed in CcyNetting for counterparty A",
          "amount1": "Amount of funds to be removed in CcyNetting for counterparty B",
          "ccy": "Specified currency of the deal",
          "partyA": "Counterparty A address",
          "partyB": "Counterparty B address"
        }
      },
      "releaseUnsettledCollateral(address,bytes32,uint256)": {
        "details": "Triggers to reduce the amount of unsettled exposure in specific `ccy` from a global collateral book of `user`",
        "params": {
          "amount": "Amount of funds to be unlocked from unsettled exposure in specified ccy",
          "ccy": "Specified currency of the deal",
          "user": "User's ETH address"
        }
      },
      "removeCollateralUser(address)": {
        "details": "Trigers to remove collateral user from address set",
        "params": {
          "_user": "Collateral user smart contract address"
        }
      },
      "removeCollateralVault(address)": {
        "details": "Trigers to remove CollateralVault from address set",
        "params": {
          "_vault": "CollateralVault smart contract address"
        }
      },
      "setCrosschainAddressResolver(address)": {
        "details": "Trigers to set cros-chain address resolver contract address",
        "params": {
          "_addr": "CrosschainAddressResolver smart contract address"
        }
      },
      "setCurrencyController(address)": {
        "details": "Trigers to add currency controller contract address",
        "params": {
          "_addr": "Currency Controller smart contract address"
        }
      },
      "setLiquidationEngine(address)": {
        "details": "Trigers to set liquidation engine contract address",
        "params": {
          "_addr": "LiquidationEngine smart contract address"
        }
      },
      "settleCollateral(address,address,bytes32,uint256,uint256)": {
        "details": "Triggers to lock collateral using ETH rate for selected currency.",
        "params": {
          "amount0": "Amount of funds to be locked in Ccy for counterparty A",
          "amount1": "Amount of funds to be locked in Ccy for counterparty B",
          "ccy": "Specified currency of the deal",
          "partyA": "Counterparty A address",
          "partyB": "Counterparty B address"
        }
      },
      "updateAutoLiquidationThreshold(uint256)": {
        "details": "Trigers to update liquidation level ratio",
        "params": {
          "_ratio": "Auto Liquidation level ratio"
        }
      },
      "updateLiquidationPrice(uint256)": {
        "details": "Trigers to update liquidation price",
        "params": {
          "_price": "Liquidation price in basis point"
        }
      },
      "updateMainParameters(uint256,uint256,uint256)": {
        "details": "Trigers to safely update main collateral parameters this function solves the issue of frontrunning during parameters tuning",
        "params": {
          "_autoLiquidationThreshold": "Auto Liquidation level ratio",
          "_liquidationPrice": "Liquidation price in basis point",
          "_marginCallRatio": "Margin call ratio"
        }
      },
      "updateMarginCallThreshold(uint256)": {
        "details": "Trigers to update margin call level",
        "params": {
          "_ratio": "Margin call ratio"
        }
      },
      "updateMinCollateralRatio(uint256)": {
        "details": "Trigers to update minimal collateral ratio",
        "params": {
          "_ratio": "Minimal collateral ratio in basis points"
        }
      },
      "updatePV(address,address,bytes32,uint256,uint256,uint256,uint256)": {
        "details": "Triggers to update PV value in currency for bilateral position changes present value in native currency, without exchange rate conversion",
        "params": {
          "ccy": "Specified currency of the deal",
          "currentPV0": "Current present value to be added to total exposure for counterparty A",
          "currentPV1": "Current present value to be added to total exposure for counterparty B",
          "party0": "Counterparty A address",
          "party1": "Counterparty B address",
          "prevPV0": "Previous present value to be substracted from total exposure for counterparty A",
          "prevPV1": "Previous present value to be substracted from total exposure for counterparty B"
        }
      },
      "useCollateral(address,address,bytes32,uint256,uint256,bool)": {
        "details": "Triggers to lock collateral using ETH rate for selected currency.",
        "params": {
          "amount0": "Amount of funds to be locked in Ccy for counterparty A",
          "amount1": "Amount of funds to be locked in Ccy for counterparty B",
          "ccy": "Specified currency of the deal",
          "partyA": "Counterparty A address",
          "partyB": "Counterparty B address"
        }
      },
      "useUnsettledCollateral(address,bytes32,uint256)": {
        "details": "Triggers to lock unsettled collateral on a global book for selected currency.",
        "params": {
          "amount": "Amount of funds to be locked in Ccy for user",
          "ccy": "Specified currency of the deal",
          "user": "User's address"
        }
      }
    },
    "title": "Collateral Aggregator contract is used to manage Secured Finance protocol collateral obligations and movements of collateral across collateral vaults. This contract handle the calculations of aggregated collateral obligations between users in a bilateral relations, calculations of required rebalancing to stabilize the bilateral position, liquidations using FX rates for all protocol currency pairs to ETH Liquidations and rebalancing operations are handled across all collateral vaults where users have deposited their funds in FIFO order. Contract linked to Product based contracts (like Loan, Swap, etc), LendingMarkets, CurrencyController contracts and Liquidation Engine.",
    "version": 1
  },
  "userdoc": {
    "kind": "user",
    "methods": {
      "addCollateralUser(address)": {
        "notice": "Trigers only be contract ownerReverts on saving 0x0 address"
      },
      "linkCollateralVault(address)": {
        "notice": "Trigers only be contract ownerReverts on saving 0x0 address"
      },
      "liquidate(address,address,bytes32,uint256,uint256,bool)": {
        "notice": "Trigers only be LiquidationEngine"
      },
      "liquidate(address,address,uint256)": {
        "notice": "Trigers only be LiquidationEngine"
      },
      "releaseCollateral(address,address,bytes32,uint256,uint256,bool)": {
        "notice": "Callable only by smart contracts allowed to use collateral"
      },
      "releaseUnsettledCollateral(address,bytes32,uint256)": {
        "notice": "Callable only by smart contracts allowed to use collateral"
      },
      "removeCollateralUser(address)": {
        "notice": "Trigers only be contract ownerReverts on removing non-existing collateral user"
      },
      "removeCollateralVault(address)": {
        "notice": "Trigers only be contract ownerReverts on removing non-existing collateral vault"
      },
      "setCrosschainAddressResolver(address)": {
        "notice": "Trigers only be contract ownerReverts on saving 0x0 address"
      },
      "setCurrencyController(address)": {
        "notice": "Trigers only be contract ownerReverts on saving 0x0 address"
      },
      "setLiquidationEngine(address)": {
        "notice": "Trigers only be contract ownerReverts on saving 0x0 address"
      },
      "settleCollateral(address,address,bytes32,uint256,uint256)": {
        "notice": "Callable only by Loan and linked LendingMarket"
      },
      "updateAutoLiquidationThreshold(uint256)": {
        "notice": "Trigers only be contract owner"
      },
      "updateLiquidationPrice(uint256)": {
        "notice": "Trigers only be contract owner"
      },
      "updateMainParameters(uint256,uint256,uint256)": {
        "notice": "Trigers only be contract owner"
      },
      "updateMarginCallThreshold(uint256)": {
        "notice": "Trigers only be contract owner"
      },
      "updateMinCollateralRatio(uint256)": {
        "notice": "Trigers only be contract owner"
      },
      "updatePV(address,address,bytes32,uint256,uint256,uint256,uint256)": {
        "notice": "Trigers only be Loan contract"
      },
      "useCollateral(address,address,bytes32,uint256,uint256,bool)": {
        "notice": "Callable only by Loan and linked LendingMarket"
      },
      "useUnsettledCollateral(address,bytes32,uint256)": {
        "notice": "Callable only by Loan and linked LendingMarket"
      }
    },
    "version": 1
  },
  "storageLayout": {
    "storage": [
      {
        "astId": 9782,
        "contract": "contracts/CollateralAggregatorV2.sol:CollateralAggregatorV2",
        "label": "LQLEVEL",
        "offset": 0,
        "slot": "0",
        "type": "t_uint256"
      },
      {
        "astId": 9785,
        "contract": "contracts/CollateralAggregatorV2.sol:CollateralAggregatorV2",
        "label": "MARGINLEVEL",
        "offset": 0,
        "slot": "1",
        "type": "t_uint256"
      },
      {
        "astId": 9788,
        "contract": "contracts/CollateralAggregatorV2.sol:CollateralAggregatorV2",
        "label": "AUTOLQLEVEL",
        "offset": 0,
        "slot": "2",
        "type": "t_uint256"
      },
      {
        "astId": 9791,
        "contract": "contracts/CollateralAggregatorV2.sol:CollateralAggregatorV2",
        "label": "MIN_COLLATERAL_RATIO",
        "offset": 0,
        "slot": "3",
        "type": "t_uint256"
      },
      {
        "astId": 9794,
        "contract": "contracts/CollateralAggregatorV2.sol:CollateralAggregatorV2",
        "label": "owner",
        "offset": 0,
        "slot": "4",
        "type": "t_address"
      },
      {
        "astId": 9796,
        "contract": "contracts/CollateralAggregatorV2.sol:CollateralAggregatorV2",
        "label": "currencyController",
        "offset": 0,
        "slot": "5",
        "type": "t_contract(ICurrencyController)22155"
      },
      {
        "astId": 9798,
        "contract": "contracts/CollateralAggregatorV2.sol:CollateralAggregatorV2",
        "label": "liquidationEngine",
        "offset": 0,
        "slot": "6",
        "type": "t_contract(ILiquidations)22625"
      },
      {
        "astId": 9800,
        "contract": "contracts/CollateralAggregatorV2.sol:CollateralAggregatorV2",
        "label": "crosschainAddressResolver",
        "offset": 0,
        "slot": "7",
        "type": "t_contract(ICrosschainAddressResolver)21861"
      },
      {
        "astId": 9802,
        "contract": "contracts/CollateralAggregatorV2.sol:CollateralAggregatorV2",
        "label": "collateralUsers",
        "offset": 0,
        "slot": "8",
        "type": "t_struct(AddressSet)1812_storage"
      },
      {
        "astId": 9804,
        "contract": "contracts/CollateralAggregatorV2.sol:CollateralAggregatorV2",
        "label": "collateralVaults",
        "offset": 0,
        "slot": "10",
        "type": "t_struct(AddressSet)1812_storage"
      },
      {
        "astId": 6896,
        "contract": "contracts/CollateralAggregatorV2.sol:CollateralAggregatorV2",
        "label": "unsettledCollateral",
        "offset": 0,
        "slot": "12",
        "type": "t_mapping(t_address,t_mapping(t_bytes32,t_uint256))"
      },
      {
        "astId": 6900,
        "contract": "contracts/CollateralAggregatorV2.sol:CollateralAggregatorV2",
        "label": "exposedUnsettledCurrencies",
        "offset": 0,
        "slot": "13",
        "type": "t_mapping(t_address,t_struct(Bytes32Set)1727_storage)"
      },
      {
        "astId": 6904,
        "contract": "contracts/CollateralAggregatorV2.sol:CollateralAggregatorV2",
        "label": "isRegistered",
        "offset": 0,
        "slot": "14",
        "type": "t_mapping(t_address,t_bool)"
      },
      {
        "astId": 6908,
        "contract": "contracts/CollateralAggregatorV2.sol:CollateralAggregatorV2",
        "label": "exposedCurrencies",
        "offset": 0,
        "slot": "15",
        "type": "t_mapping(t_bytes32,t_struct(Bytes32Set)1727_storage)"
      },
      {
        "astId": 6912,
        "contract": "contracts/CollateralAggregatorV2.sol:CollateralAggregatorV2",
        "label": "usedVaultsInPosition",
        "offset": 0,
        "slot": "16",
        "type": "t_mapping(t_bytes32,t_struct(AddressSet)1812_storage)"
      },
      {
        "astId": 6916,
        "contract": "contracts/CollateralAggregatorV2.sol:CollateralAggregatorV2",
        "label": "usedVaults",
        "offset": 0,
        "slot": "17",
        "type": "t_mapping(t_address,t_struct(AddressSet)1812_storage)"
      },
      {
        "astId": 6922,
        "contract": "contracts/CollateralAggregatorV2.sol:CollateralAggregatorV2",
        "label": "ccyNettings",
        "offset": 0,
        "slot": "18",
        "type": "t_mapping(t_bytes32,t_mapping(t_bytes32,t_struct(CcyNetting)30709_storage))"
      }
    ],
    "types": {
      "t_address": {
        "encoding": "inplace",
        "label": "address",
        "numberOfBytes": "20"
      },
      "t_array(t_bytes32)dyn_storage": {
        "base": "t_bytes32",
        "encoding": "dynamic_array",
        "label": "bytes32[]",
        "numberOfBytes": "32"
      },
      "t_bool": {
        "encoding": "inplace",
        "label": "bool",
        "numberOfBytes": "1"
      },
      "t_bytes32": {
        "encoding": "inplace",
        "label": "bytes32",
        "numberOfBytes": "32"
      },
      "t_contract(ICrosschainAddressResolver)21861": {
        "encoding": "inplace",
        "label": "contract ICrosschainAddressResolver",
        "numberOfBytes": "20"
      },
      "t_contract(ICurrencyController)22155": {
        "encoding": "inplace",
        "label": "contract ICurrencyController",
        "numberOfBytes": "20"
      },
      "t_contract(ILiquidations)22625": {
        "encoding": "inplace",
        "label": "contract ILiquidations",
        "numberOfBytes": "20"
      },
      "t_mapping(t_address,t_bool)": {
        "encoding": "mapping",
        "key": "t_address",
        "label": "mapping(address => bool)",
        "numberOfBytes": "32",
        "value": "t_bool"
      },
      "t_mapping(t_address,t_mapping(t_bytes32,t_uint256))": {
        "encoding": "mapping",
        "key": "t_address",
        "label": "mapping(address => mapping(bytes32 => uint256))",
        "numberOfBytes": "32",
        "value": "t_mapping(t_bytes32,t_uint256)"
      },
      "t_mapping(t_address,t_struct(AddressSet)1812_storage)": {
        "encoding": "mapping",
        "key": "t_address",
        "label": "mapping(address => struct EnumerableSet.AddressSet)",
        "numberOfBytes": "32",
        "value": "t_struct(AddressSet)1812_storage"
      },
      "t_mapping(t_address,t_struct(Bytes32Set)1727_storage)": {
        "encoding": "mapping",
        "key": "t_address",
        "label": "mapping(address => struct EnumerableSet.Bytes32Set)",
        "numberOfBytes": "32",
        "value": "t_struct(Bytes32Set)1727_storage"
      },
      "t_mapping(t_bytes32,t_mapping(t_bytes32,t_struct(CcyNetting)30709_storage))": {
        "encoding": "mapping",
        "key": "t_bytes32",
        "label": "mapping(bytes32 => mapping(bytes32 => struct NetPV.CcyNetting))",
        "numberOfBytes": "32",
        "value": "t_mapping(t_bytes32,t_struct(CcyNetting)30709_storage)"
      },
      "t_mapping(t_bytes32,t_struct(AddressSet)1812_storage)": {
        "encoding": "mapping",
        "key": "t_bytes32",
        "label": "mapping(bytes32 => struct EnumerableSet.AddressSet)",
        "numberOfBytes": "32",
        "value": "t_struct(AddressSet)1812_storage"
      },
      "t_mapping(t_bytes32,t_struct(Bytes32Set)1727_storage)": {
        "encoding": "mapping",
        "key": "t_bytes32",
        "label": "mapping(bytes32 => struct EnumerableSet.Bytes32Set)",
        "numberOfBytes": "32",
        "value": "t_struct(Bytes32Set)1727_storage"
      },
      "t_mapping(t_bytes32,t_struct(CcyNetting)30709_storage)": {
        "encoding": "mapping",
        "key": "t_bytes32",
        "label": "mapping(bytes32 => struct NetPV.CcyNetting)",
        "numberOfBytes": "32",
        "value": "t_struct(CcyNetting)30709_storage"
      },
      "t_mapping(t_bytes32,t_uint256)": {
        "encoding": "mapping",
        "key": "t_bytes32",
        "label": "mapping(bytes32 => uint256)",
        "numberOfBytes": "32",
        "value": "t_uint256"
      },
      "t_struct(AddressSet)1812_storage": {
        "encoding": "inplace",
        "label": "struct EnumerableSet.AddressSet",
        "members": [
          {
            "astId": 1811,
            "contract": "contracts/CollateralAggregatorV2.sol:CollateralAggregatorV2",
            "label": "_inner",
            "offset": 0,
            "slot": "0",
            "type": "t_struct(Set)1547_storage"
          }
        ],
        "numberOfBytes": "64"
      },
      "t_struct(Bytes32Set)1727_storage": {
        "encoding": "inplace",
        "label": "struct EnumerableSet.Bytes32Set",
        "members": [
          {
            "astId": 1726,
            "contract": "contracts/CollateralAggregatorV2.sol:CollateralAggregatorV2",
            "label": "_inner",
            "offset": 0,
            "slot": "0",
            "type": "t_struct(Set)1547_storage"
          }
        ],
        "numberOfBytes": "64"
      },
      "t_struct(CcyNetting)30709_storage": {
        "encoding": "inplace",
        "label": "struct NetPV.CcyNetting",
        "members": [
          {
            "astId": 30702,
            "contract": "contracts/CollateralAggregatorV2.sol:CollateralAggregatorV2",
            "label": "unsettled0PV",
            "offset": 0,
            "slot": "0",
            "type": "t_uint256"
          },
          {
            "astId": 30704,
            "contract": "contracts/CollateralAggregatorV2.sol:CollateralAggregatorV2",
            "label": "unsettled1PV",
            "offset": 0,
            "slot": "1",
            "type": "t_uint256"
          },
          {
            "astId": 30706,
            "contract": "contracts/CollateralAggregatorV2.sol:CollateralAggregatorV2",
            "label": "party0PV",
            "offset": 0,
            "slot": "2",
            "type": "t_uint256"
          },
          {
            "astId": 30708,
            "contract": "contracts/CollateralAggregatorV2.sol:CollateralAggregatorV2",
            "label": "party1PV",
            "offset": 0,
            "slot": "3",
            "type": "t_uint256"
          }
        ],
        "numberOfBytes": "128"
      },
      "t_struct(Set)1547_storage": {
        "encoding": "inplace",
        "label": "struct EnumerableSet.Set",
        "members": [
          {
            "astId": 1542,
            "contract": "contracts/CollateralAggregatorV2.sol:CollateralAggregatorV2",
            "label": "_values",
            "offset": 0,
            "slot": "0",
            "type": "t_array(t_bytes32)dyn_storage"
          },
          {
            "astId": 1546,
            "contract": "contracts/CollateralAggregatorV2.sol:CollateralAggregatorV2",
            "label": "_indexes",
            "offset": 0,
            "slot": "1",
            "type": "t_mapping(t_bytes32,t_uint256)"
          }
        ],
        "numberOfBytes": "64"
      },
      "t_uint256": {
        "encoding": "inplace",
        "label": "uint256",
        "numberOfBytes": "32"
      }
    }
  }
}