{
  "address": "0x10f1B36AD1F8Fd0FACfaDBfeb78535F082868060",
  "abi": [
    {
      "inputs": [
        {
          "internalType": "address",
          "name": "_collateralAggregator",
          "type": "address"
        }
      ],
      "stateMutability": "nonpayable",
      "type": "constructor"
    },
    {
      "anonymous": false,
      "inputs": [
        {
          "indexed": false,
          "internalType": "address",
          "name": "_user",
          "type": "address"
        },
        {
          "indexed": false,
          "internalType": "uint256",
          "name": "_chainId",
          "type": "uint256"
        },
        {
          "indexed": false,
          "internalType": "string",
          "name": "_address",
          "type": "string"
        }
      ],
      "name": "UpdateAddress",
      "type": "event"
    },
    {
      "inputs": [
        {
          "internalType": "address",
          "name": "_user",
          "type": "address"
        },
        {
          "internalType": "uint256",
          "name": "_chainId",
          "type": "uint256"
        }
      ],
      "name": "getUserAddress",
      "outputs": [
        {
          "internalType": "string",
          "name": "",
          "type": "string"
        }
      ],
      "stateMutability": "view",
      "type": "function"
    },
    {
      "inputs": [],
      "name": "owner",
      "outputs": [
        {
          "internalType": "address",
          "name": "",
          "type": "address"
        }
      ],
      "stateMutability": "view",
      "type": "function"
    },
    {
      "inputs": [
        {
          "internalType": "address",
          "name": "_user",
          "type": "address"
        },
        {
          "internalType": "uint256",
          "name": "_chainId",
          "type": "uint256"
        },
        {
          "internalType": "string",
          "name": "_address",
          "type": "string"
        }
      ],
      "name": "updateAddress",
      "outputs": [],
      "stateMutability": "nonpayable",
      "type": "function"
    },
    {
      "inputs": [
        {
          "internalType": "uint256",
          "name": "_chainId",
          "type": "uint256"
        },
        {
          "internalType": "string",
          "name": "_address",
          "type": "string"
        }
      ],
      "name": "updateAddress",
      "outputs": [],
      "stateMutability": "nonpayable",
      "type": "function"
    },
    {
      "inputs": [
        {
          "internalType": "address",
          "name": "_user",
          "type": "address"
        },
        {
          "internalType": "uint256[]",
          "name": "_chainIds",
          "type": "uint256[]"
        },
        {
          "internalType": "string[]",
          "name": "_addresses",
          "type": "string[]"
        }
      ],
      "name": "updateAddresses",
      "outputs": [],
      "stateMutability": "nonpayable",
      "type": "function"
    }
  ],
  "transactionHash": "0x197182b697cac244c1f4c0374a8d512fabb09a7c234ae7fb538309c4846832c6",
  "args": [
    "0xC616D55499aacE74cFC3005061b07d239bB22125"
  ],
  "numDeployments": 1,
  "solcInputHash": "c547b2e6a239b041ee2d79dd0b62b5b6",
  "bytecode": "0x608060405234801561001057600080fd5b506040516107c03803806107c083398101604081905261002f91610062565b60008054336001600160a01b031991821617909155600280549091166001600160a01b0392909216919091179055610090565b600060208284031215610073578081fd5b81516001600160a01b0381168114610089578182fd5b9392505050565b6107218061009f6000396000f3fe608060405234801561001057600080fd5b50600436106100575760003560e01c80632f52af731461005c57806376c5f560146100715780638c72902c146100845780638da5cb5b146100ad578063e9ac42cb146100c2575b600080fd5b61006f61006a36600461053b565b6100d5565b005b61006f61007f366004610587565b6100fc565b610097610092366004610511565b61010b565b6040516100a4919061065b565b60405180910390f35b6100b56101bf565b6040516100a49190610617565b61006f6100d0366004610447565b6101ce565b6002546001600160a01b031633146100ec57600080fd5b6100f783838361025a565b505050565b61010733838361025a565b5050565b6001600160a01b038216600090815260016020818152604080842085855282529283902080548451600294821615610100026000190190911693909304601f810183900483028401830190945283835260609390918301828280156101b15780601f10610186576101008083540402835291602001916101b1565b820191906000526020600020905b81548152906001019060200180831161019457829003601f168201915b505050505090505b92915050565b6000546001600160a01b031681565b6002546001600160a01b031633146101e557600080fd5b805182511461020f5760405162461bcd60e51b815260040161020690610675565b60405180910390fd5b60005b82518110156102545761024c8484838151811061022b57fe5b602002602001015184848151811061023f57fe5b602002602001015161025a565b600101610212565b50505050565b6001600160a01b03831660009081526001602090815260408083208584528252909120825161028b928401906102cc565b507ff6cac44a10f1c5a7bad0ec6fc1a900092a2dbe6742f6c14cd2902c0d51bb008d8383836040516102bf9392919061062b565b60405180910390a1505050565b828054600181600116156101000203166002900490600052602060002090601f016020900481019282601f1061030d57805160ff191683800117855561033a565b8280016001018555821561033a579182015b8281111561033a57825182559160200191906001019061031f565b5061034692915061034a565b5090565b5b80821115610346576000815560010161034b565b80356001600160a01b03811681146101b957600080fd5b600082601f830112610386578081fd5b8135610399610394826106cb565b6106a4565b818152915060208083019084810160005b848110156103d3576103c1888484358a01016103de565b845292820192908201906001016103aa565b505050505092915050565b600082601f8301126103ee578081fd5b813567ffffffffffffffff811115610404578182fd5b610417601f8201601f19166020016106a4565b915080825283602082850101111561042e57600080fd5b8060208401602084013760009082016020015292915050565b60008060006060848603121561045b578283fd5b610465858561035f565b925060208085013567ffffffffffffffff80821115610482578485fd5b818701915087601f830112610495578485fd5b81356104a3610394826106cb565b81815284810190848601868402860187018c10156104bf578889fd5b8895505b838610156104e15780358352600195909501949186019186016104c3565b509650505060408701359250808311156104f9578384fd5b505061050786828701610376565b9150509250925092565b60008060408385031215610523578182fd5b61052d848461035f565b946020939093013593505050565b60008060006060848603121561054f578283fd5b610559858561035f565b925060208401359150604084013567ffffffffffffffff81111561057b578182fd5b610507868287016103de565b60008060408385031215610599578182fd5b82359150602083013567ffffffffffffffff8111156105b6578182fd5b6105c2858286016103de565b9150509250929050565b60008151808452815b818110156105f1576020818501810151868301820152016105d5565b818111156106025782602083870101525b50601f01601f19169290920160200192915050565b6001600160a01b0391909116815260200190565b600060018060a01b03851682528360208301526060604083015261065260608301846105cc565b95945050505050565b60006020825261066e60208301846105cc565b9392505050565b602080825260159082015274496e76616c696420696e707574206c656e6774687360581b604082015260600190565b60405181810167ffffffffffffffff811182821017156106c357600080fd5b604052919050565b600067ffffffffffffffff8211156106e1578081fd5b506020908102019056fea2646970667358221220f4e9e78476c739285262682d351dcd1306149cc2446292a676b520a57d3c7c4864736f6c634300060c0033",
  "devdoc": {
    "kind": "dev",
    "methods": {
      "constructor": {
        "details": "Contract constructor function."
      },
      "getUserAddress(address,uint256)": {
        "details": "Trigers to get target blockchain address for a specific user.",
        "params": {
          "_user": "Chain ID number"
        }
      },
      "updateAddress(address,uint256,string)": {
        "details": "Trigers to register cross-chain address per chainId by user",
        "params": {
          "_address": "Target blockchain address",
          "_chainId": "Chain ID number",
          "_user": "Secured Finance user ETH address"
        }
      },
      "updateAddress(uint256,string)": {
        "details": "Trigers to register cross-chain address per chainId by user",
        "params": {
          "_address": "Target blockchain address",
          "_chainId": "Chain ID number"
        }
      },
      "updateAddresses(address,uint256[],string[])": {
        "details": "Trigers to register multiple cross-chain addresses per chainId for user",
        "params": {
          "_addresses": "Array of the target blockchain addresses",
          "_chainIds": "Array of chain ID number",
          "_user": "Secured Finance user ETH address"
        }
      }
    },
    "version": 1
  },
  "userdoc": {
    "kind": "user",
    "methods": {
      "constructor": "sets contract deployer as owner of this contract and connects to the collateral aggregator contract",
      "updateAddress(address,uint256,string)": {
        "notice": "This function triggers by the Collateral Aggregator while user is registered in a system"
      },
      "updateAddress(uint256,string)": {
        "notice": "This function triggers by the user, and stores addresses for `msg.sender`"
      },
      "updateAddresses(address,uint256[],string[])": {
        "notice": "This function triggers by the Collateral Aggregator while user is registered in a system"
      }
    },
    "version": 1
  },
  "storageLayout": {
    "storage": [
      {
        "astId": 11712,
        "contract": "contracts/CrosschainAddressResolver.sol:CrosschainAddressResolver",
        "label": "owner",
        "offset": 0,
        "slot": "0",
        "type": "t_address"
      },
      {
        "astId": 11718,
        "contract": "contracts/CrosschainAddressResolver.sol:CrosschainAddressResolver",
        "label": "_crosschainAddreses",
        "offset": 0,
        "slot": "1",
        "type": "t_mapping(t_address,t_mapping(t_uint256,t_string_storage))"
      },
      {
        "astId": 11720,
        "contract": "contracts/CrosschainAddressResolver.sol:CrosschainAddressResolver",
        "label": "collateralAggregator",
        "offset": 0,
        "slot": "2",
        "type": "t_address"
      }
    ],
    "types": {
      "t_address": {
        "encoding": "inplace",
        "label": "address",
        "numberOfBytes": "20"
      },
      "t_mapping(t_address,t_mapping(t_uint256,t_string_storage))": {
        "encoding": "mapping",
        "key": "t_address",
        "label": "mapping(address => mapping(uint256 => string))",
        "numberOfBytes": "32",
        "value": "t_mapping(t_uint256,t_string_storage)"
      },
      "t_mapping(t_uint256,t_string_storage)": {
        "encoding": "mapping",
        "key": "t_uint256",
        "label": "mapping(uint256 => string)",
        "numberOfBytes": "32",
        "value": "t_string_storage"
      },
      "t_string_storage": {
        "encoding": "bytes",
        "label": "string",
        "numberOfBytes": "32"
      },
      "t_uint256": {
        "encoding": "inplace",
        "label": "uint256",
        "numberOfBytes": "32"
      }
    }
  }
}