{
  "address": "0x7296b5194f4E140B2d64Ec967285e007d9880365",
  "abi": [
    {
      "inputs": [
        {
          "internalType": "bytes32",
          "name": "prefix",
          "type": "bytes32"
        },
        {
          "internalType": "uint256",
          "name": "counter",
          "type": "uint256"
        }
      ],
      "name": "generate",
      "outputs": [
        {
          "internalType": "bytes32",
          "name": "id",
          "type": "bytes32"
        }
      ],
      "stateMutability": "pure",
      "type": "function"
    },
    {
      "inputs": [
        {
          "internalType": "bytes32",
          "name": "id",
          "type": "bytes32"
        }
      ],
      "name": "getPrefix",
      "outputs": [
        {
          "internalType": "bytes4",
          "name": "prefix",
          "type": "bytes4"
        }
      ],
      "stateMutability": "pure",
      "type": "function"
    }
  ],
  "transactionHash": "0x7f44bc0f7ed2946389615547b1adaa02b5abcc623ef70c5e8239f2fd8fddb308",
  "args": [],
  "numDeployments": 1,
  "solcInputHash": "c547b2e6a239b041ee2d79dd0b62b5b6",
  "bytecode": "0x610164610026600b82828239805160001a60731461001957fe5b30600052607381538281f3fe73000000000000000000000000000000000000000030146080604052600436106100405760003560e01c80630d6267e81461004557806334b362b61461007f575b600080fd5b6100626004803603602081101561005b57600080fd5b50356100b4565b604080516001600160e01b03199092168252519081900360200190f35b6100a26004803603604081101561009557600080fd5b50803590602001356100b7565b60408051918252519081900360200190f35b90565b6000806100c3836100da565b6001600160e01b0319949094169093019392505050565b60006001600160e01b0382111561012a576040805162461bcd60e51b815260206004820152600f60248201526e4e554d4245525f4f564552464c4f5760881b604482015290519081900360640190fd5b509056fea26469706673582212205c597ee251224df42deda77a80ea2021f32325e6a908cb3337f8c87de14ffa4164736f6c634300060c0033",
  "devdoc": {
    "kind": "dev",
    "methods": {
      "generate(bytes32,uint256)": {
        "details": "Generates a deal id using a product prefix and deal number",
        "params": {
          "counter": "Number of deal to be generated",
          "prefix": "Product type prefix in bytes4"
        },
        "returns": {
          "id": "in bytes32 with prefix on the left and counter on the right side"
        }
      },
      "getPrefix(bytes32)": {
        "details": "Returns product based prefix from deal id",
        "params": {
          "id": "Deal unique identification string"
        },
        "returns": {
          "prefix": "in bytes4"
        }
      }
    },
    "version": 1
  },
  "userdoc": {
    "kind": "user",
    "methods": {},
    "version": 1
  },
  "storageLayout": {
    "storage": [],
    "types": null
  }
}