{
  "address": "0xA0946Fa5DCDE8a5a96C266bdafd1D6F17c719ce1",
  "abi": [
    {
      "inputs": [
        {
          "internalType": "uint8",
          "name": "_decimals",
          "type": "uint8"
        },
        {
          "internalType": "bytes32",
          "name": "_ccy",
          "type": "bytes32"
        },
        {
          "internalType": "int256",
          "name": "_initialAnswer",
          "type": "int256"
        }
      ],
      "stateMutability": "nonpayable",
      "type": "constructor"
    },
    {
      "anonymous": false,
      "inputs": [
        {
          "indexed": true,
          "internalType": "int256",
          "name": "current",
          "type": "int256"
        },
        {
          "indexed": true,
          "internalType": "uint256",
          "name": "roundId",
          "type": "uint256"
        },
        {
          "indexed": false,
          "internalType": "uint256",
          "name": "updatedAt",
          "type": "uint256"
        }
      ],
      "name": "AnswerUpdated",
      "type": "event"
    },
    {
      "anonymous": false,
      "inputs": [
        {
          "indexed": true,
          "internalType": "uint256",
          "name": "roundId",
          "type": "uint256"
        },
        {
          "indexed": true,
          "internalType": "address",
          "name": "startedBy",
          "type": "address"
        },
        {
          "indexed": false,
          "internalType": "uint256",
          "name": "startedAt",
          "type": "uint256"
        }
      ],
      "name": "NewRound",
      "type": "event"
    },
    {
      "anonymous": false,
      "inputs": [
        {
          "indexed": true,
          "internalType": "address",
          "name": "oldOwner",
          "type": "address"
        },
        {
          "indexed": true,
          "internalType": "address",
          "name": "newOwner",
          "type": "address"
        }
      ],
      "name": "OwnerChanged",
      "type": "event"
    },
    {
      "inputs": [],
      "name": "decimals",
      "outputs": [
        {
          "internalType": "uint8",
          "name": "",
          "type": "uint8"
        }
      ],
      "stateMutability": "view",
      "type": "function"
    },
    {
      "inputs": [],
      "name": "description",
      "outputs": [
        {
          "internalType": "string",
          "name": "",
          "type": "string"
        }
      ],
      "stateMutability": "view",
      "type": "function"
    },
    {
      "inputs": [
        {
          "internalType": "uint256",
          "name": "",
          "type": "uint256"
        }
      ],
      "name": "getAnswer",
      "outputs": [
        {
          "internalType": "int256",
          "name": "",
          "type": "int256"
        }
      ],
      "stateMutability": "view",
      "type": "function"
    },
    {
      "inputs": [
        {
          "internalType": "uint80",
          "name": "_roundId",
          "type": "uint80"
        }
      ],
      "name": "getRoundData",
      "outputs": [
        {
          "internalType": "uint80",
          "name": "roundId",
          "type": "uint80"
        },
        {
          "internalType": "int256",
          "name": "answer",
          "type": "int256"
        },
        {
          "internalType": "uint256",
          "name": "startedAt",
          "type": "uint256"
        },
        {
          "internalType": "uint256",
          "name": "updatedAt",
          "type": "uint256"
        },
        {
          "internalType": "uint80",
          "name": "answeredInRound",
          "type": "uint80"
        }
      ],
      "stateMutability": "view",
      "type": "function"
    },
    {
      "inputs": [
        {
          "internalType": "uint256",
          "name": "",
          "type": "uint256"
        }
      ],
      "name": "getTimestamp",
      "outputs": [
        {
          "internalType": "uint256",
          "name": "",
          "type": "uint256"
        }
      ],
      "stateMutability": "view",
      "type": "function"
    },
    {
      "inputs": [],
      "name": "latestAnswer",
      "outputs": [
        {
          "internalType": "int256",
          "name": "",
          "type": "int256"
        }
      ],
      "stateMutability": "view",
      "type": "function"
    },
    {
      "inputs": [],
      "name": "latestRound",
      "outputs": [
        {
          "internalType": "uint256",
          "name": "",
          "type": "uint256"
        }
      ],
      "stateMutability": "view",
      "type": "function"
    },
    {
      "inputs": [],
      "name": "latestRoundData",
      "outputs": [
        {
          "internalType": "uint80",
          "name": "roundId",
          "type": "uint80"
        },
        {
          "internalType": "int256",
          "name": "answer",
          "type": "int256"
        },
        {
          "internalType": "uint256",
          "name": "startedAt",
          "type": "uint256"
        },
        {
          "internalType": "uint256",
          "name": "updatedAt",
          "type": "uint256"
        },
        {
          "internalType": "uint80",
          "name": "answeredInRound",
          "type": "uint80"
        }
      ],
      "stateMutability": "view",
      "type": "function"
    },
    {
      "inputs": [],
      "name": "latestTimestamp",
      "outputs": [
        {
          "internalType": "uint256",
          "name": "",
          "type": "uint256"
        }
      ],
      "stateMutability": "view",
      "type": "function"
    },
    {
      "inputs": [],
      "name": "owner",
      "outputs": [
        {
          "internalType": "address",
          "name": "",
          "type": "address"
        }
      ],
      "stateMutability": "view",
      "type": "function"
    },
    {
      "inputs": [],
      "name": "priceFeedCcy",
      "outputs": [
        {
          "internalType": "bytes32",
          "name": "",
          "type": "bytes32"
        }
      ],
      "stateMutability": "view",
      "type": "function"
    },
    {
      "inputs": [
        {
          "internalType": "address",
          "name": "_owner",
          "type": "address"
        }
      ],
      "name": "setOwner",
      "outputs": [],
      "stateMutability": "nonpayable",
      "type": "function"
    },
    {
      "inputs": [
        {
          "internalType": "int256",
          "name": "_answer",
          "type": "int256"
        }
      ],
      "name": "updateAnswer",
      "outputs": [],
      "stateMutability": "nonpayable",
      "type": "function"
    },
    {
      "inputs": [
        {
          "internalType": "uint80",
          "name": "_roundId",
          "type": "uint80"
        },
        {
          "internalType": "int256",
          "name": "_answer",
          "type": "int256"
        },
        {
          "internalType": "uint256",
          "name": "_timestamp",
          "type": "uint256"
        },
        {
          "internalType": "uint256",
          "name": "_startedAt",
          "type": "uint256"
        }
      ],
      "name": "updateRoundData",
      "outputs": [],
      "stateMutability": "nonpayable",
      "type": "function"
    },
    {
      "inputs": [],
      "name": "version",
      "outputs": [
        {
          "internalType": "uint256",
          "name": "",
          "type": "uint256"
        }
      ],
      "stateMutability": "view",
      "type": "function"
    }
  ],
  "transactionHash": "0x4dda0850f5713b33fb71c7f43ab3b4c6c33e88027d68d76a0109cd92873f8947",
  "args": [
    18,
    "0x46494c0000000000000000000000000000000000000000000000000000000000",
    "67175250000000000"
  ],
  "numDeployments": 4,
  "solcInputHash": "c547b2e6a239b041ee2d79dd0b62b5b6",
  "bytecode": "0x608060405234801561001057600080fd5b506040516106bd3803806106bd8339818101604052606081101561003357600080fd5b5080516020820151604090920151600080546001600160a01b0319163317905560018390556002805460ff841660ff199091161790559091906100758161007d565b5050506100dc565b6000546001600160a01b0316331461009457600080fd5b60038190554260048190556005805460010180825560009081526006602090815260408083209590955582548252600781528482208490559154815260089091529190912055565b6105d2806100eb6000396000f3fe608060405234801561001057600080fd5b50600436106100f55760003560e01c80638205bf6a11610097578063b5ab58dc11610066578063b5ab58dc146102d2578063b633620c146102ef578063c5c291cc1461030c578063feaf968c14610314576100f5565b80638205bf6a1461021f5780638da5cb5b146102275780639a6fc8f51461024b578063a87a20ce146102b5576100f5565b806350d25bcd116100d357806350d25bcd1461017857806354fd4d5014610192578063668a0f021461019a5780637284e416146101a2576100f5565b806313af4035146100fa578063313ce567146101225780634aa2011f14610140575b600080fd5b6101206004803603602081101561011057600080fd5b50356001600160a01b031661031c565b005b61012a6103e9565b6040805160ff9092168252519081900360200190f35b6101206004803603608081101561015657600080fd5b506001600160501b0381351690602081013590604081013590606001356103f2565b610180610453565b60408051918252519081900360200190f35b610180610459565b61018061045e565b6101aa610464565b6040805160208082528351818301528351919283929083019185019080838360005b838110156101e45781810151838201526020016101cc565b50505050905090810190601f1680156102115780820380516001836020036101000a031916815260200191505b509250505060405180910390f35b61018061049b565b61022f6104a1565b604080516001600160a01b039092168252519081900360200190f35b6102716004803603602081101561026157600080fd5b50356001600160501b03166104b0565b60405180866001600160501b03168152602001858152602001848152602001838152602001826001600160501b031681526020019550505050505060405180910390f35b610120600480360360208110156102cb57600080fd5b50356104e6565b610180600480360360208110156102e857600080fd5b5035610545565b6101806004803603602081101561030557600080fd5b5035610557565b610180610569565b61027161056f565b6000546001600160a01b0316331461033357600080fd5b6001600160a01b03811661038e576040805162461bcd60e51b815260206004820152601d60248201527f6e6577206f776e657220697320746865207a65726f2061646472657373000000604482015290519081900360640190fd5b600080546040516001600160a01b03808516939216917fb532073b38c83145e3e5135377a08bf9aab55bc0fd7c1179cd4fb995d2a5159c91a3600080546001600160a01b0319166001600160a01b0392909216919091179055565b60025460ff1681565b6000546001600160a01b0316331461040957600080fd5b6001600160501b0390931660058181556003849055600483905560009182526006602090815260408084209590955581548352600781528483209390935554815260089091522055565b60035481565b600081565b60055481565b60408051808201909152601f81527f76302e362f74657374732f4d6f636b563341676772656761746f722e736f6c00602082015290565b60045481565b6000546001600160a01b031681565b6001600160501b038116600090815260066020908152604080832054600883528184205460079093529220549293919290918490565b6000546001600160a01b031633146104fd57600080fd5b60038190554260048190556005805460010180825560009081526006602090815260408083209590955582548252600781528482208490559154815260089091529190912055565b60066020526000908152604090205481565b60076020526000908152604090205481565b60015481565b6005546000818152600660209081526040808320546008835281842054600790935292205483909192939456fea2646970667358221220860c2d971faf3a82a5feabd219c061a8b43669a2b99c0ea1f71e7bca4034760b64736f6c634300060c0033",
  "devdoc": {
    "kind": "dev",
    "methods": {
      "setOwner(address)": {
        "details": "Sets owner of the controller market.",
        "params": {
          "_owner": "Address of new owner"
        }
      }
    },
    "title": "MockV3Aggregator",
    "version": 1
  },
  "userdoc": {
    "kind": "user",
    "methods": {},
    "notice": "Based on the FluxAggregator contractUse this contract when you need to test other contract's ability to read data from an aggregator contract, but how the aggregator got its answer is unimportant",
    "version": 1
  },
  "storageLayout": {
    "storage": [
      {
        "astId": 35671,
        "contract": "contracts/mocks/MockV3Aggregator.sol:MockV3Aggregator",
        "label": "owner",
        "offset": 0,
        "slot": "0",
        "type": "t_address"
      },
      {
        "astId": 35673,
        "contract": "contracts/mocks/MockV3Aggregator.sol:MockV3Aggregator",
        "label": "priceFeedCcy",
        "offset": 0,
        "slot": "1",
        "type": "t_bytes32"
      },
      {
        "astId": 35676,
        "contract": "contracts/mocks/MockV3Aggregator.sol:MockV3Aggregator",
        "label": "decimals",
        "offset": 0,
        "slot": "2",
        "type": "t_uint8"
      },
      {
        "astId": 35679,
        "contract": "contracts/mocks/MockV3Aggregator.sol:MockV3Aggregator",
        "label": "latestAnswer",
        "offset": 0,
        "slot": "3",
        "type": "t_int256"
      },
      {
        "astId": 35682,
        "contract": "contracts/mocks/MockV3Aggregator.sol:MockV3Aggregator",
        "label": "latestTimestamp",
        "offset": 0,
        "slot": "4",
        "type": "t_uint256"
      },
      {
        "astId": 35685,
        "contract": "contracts/mocks/MockV3Aggregator.sol:MockV3Aggregator",
        "label": "latestRound",
        "offset": 0,
        "slot": "5",
        "type": "t_uint256"
      },
      {
        "astId": 35690,
        "contract": "contracts/mocks/MockV3Aggregator.sol:MockV3Aggregator",
        "label": "getAnswer",
        "offset": 0,
        "slot": "6",
        "type": "t_mapping(t_uint256,t_int256)"
      },
      {
        "astId": 35695,
        "contract": "contracts/mocks/MockV3Aggregator.sol:MockV3Aggregator",
        "label": "getTimestamp",
        "offset": 0,
        "slot": "7",
        "type": "t_mapping(t_uint256,t_uint256)"
      },
      {
        "astId": 35699,
        "contract": "contracts/mocks/MockV3Aggregator.sol:MockV3Aggregator",
        "label": "getStartedAt",
        "offset": 0,
        "slot": "8",
        "type": "t_mapping(t_uint256,t_uint256)"
      }
    ],
    "types": {
      "t_address": {
        "encoding": "inplace",
        "label": "address",
        "numberOfBytes": "20"
      },
      "t_bytes32": {
        "encoding": "inplace",
        "label": "bytes32",
        "numberOfBytes": "32"
      },
      "t_int256": {
        "encoding": "inplace",
        "label": "int256",
        "numberOfBytes": "32"
      },
      "t_mapping(t_uint256,t_int256)": {
        "encoding": "mapping",
        "key": "t_uint256",
        "label": "mapping(uint256 => int256)",
        "numberOfBytes": "32",
        "value": "t_int256"
      },
      "t_mapping(t_uint256,t_uint256)": {
        "encoding": "mapping",
        "key": "t_uint256",
        "label": "mapping(uint256 => uint256)",
        "numberOfBytes": "32",
        "value": "t_uint256"
      },
      "t_uint256": {
        "encoding": "inplace",
        "label": "uint256",
        "numberOfBytes": "32"
      },
      "t_uint8": {
        "encoding": "inplace",
        "label": "uint8",
        "numberOfBytes": "1"
      }
    }
  }
}