{
  "address": "0x70B272255756E22fE74B95Fd4c8cB77d08369c48",
  "abi": [
    {
      "anonymous": false,
      "inputs": [
        {
          "indexed": false,
          "internalType": "bytes32",
          "name": "name",
          "type": "bytes32"
        },
        {
          "indexed": false,
          "internalType": "address",
          "name": "destination",
          "type": "address"
        }
      ],
      "name": "CacheUpdated",
      "type": "event"
    },
    {
      "anonymous": false,
      "inputs": [
        {
          "indexed": false,
          "internalType": "uint8",
          "name": "version",
          "type": "uint8"
        }
      ],
      "name": "Initialized",
      "type": "event"
    },
    {
      "anonymous": false,
      "inputs": [
        {
          "indexed": true,
          "internalType": "address",
          "name": "party0",
          "type": "address"
        },
        {
          "indexed": true,
          "internalType": "address",
          "name": "party1",
          "type": "address"
        },
        {
          "indexed": false,
          "internalType": "bytes32",
          "name": "ccy",
          "type": "bytes32"
        },
        {
          "indexed": false,
          "internalType": "bytes32",
          "name": "timeSlot",
          "type": "bytes32"
        },
        {
          "indexed": false,
          "internalType": "uint256",
          "name": "year",
          "type": "uint256"
        },
        {
          "indexed": false,
          "internalType": "uint256",
          "name": "month",
          "type": "uint256"
        },
        {
          "indexed": false,
          "internalType": "uint256",
          "name": "day",
          "type": "uint256"
        },
        {
          "indexed": false,
          "internalType": "uint256",
          "name": "payment0",
          "type": "uint256"
        },
        {
          "indexed": false,
          "internalType": "uint256",
          "name": "payment1",
          "type": "uint256"
        }
      ],
      "name": "RegisterPayment",
      "type": "event"
    },
    {
      "anonymous": false,
      "inputs": [
        {
          "indexed": true,
          "internalType": "address",
          "name": "party0",
          "type": "address"
        },
        {
          "indexed": true,
          "internalType": "address",
          "name": "party1",
          "type": "address"
        },
        {
          "indexed": false,
          "internalType": "bytes32",
          "name": "ccy",
          "type": "bytes32"
        },
        {
          "indexed": false,
          "internalType": "bytes32",
          "name": "timeSlot",
          "type": "bytes32"
        },
        {
          "indexed": false,
          "internalType": "uint256",
          "name": "year",
          "type": "uint256"
        },
        {
          "indexed": false,
          "internalType": "uint256",
          "name": "month",
          "type": "uint256"
        },
        {
          "indexed": false,
          "internalType": "uint256",
          "name": "day",
          "type": "uint256"
        },
        {
          "indexed": false,
          "internalType": "uint256",
          "name": "payment0",
          "type": "uint256"
        },
        {
          "indexed": false,
          "internalType": "uint256",
          "name": "payment1",
          "type": "uint256"
        }
      ],
      "name": "RemovePayment",
      "type": "event"
    },
    {
      "anonymous": false,
      "inputs": [
        {
          "indexed": true,
          "internalType": "address",
          "name": "verifier",
          "type": "address"
        },
        {
          "indexed": true,
          "internalType": "address",
          "name": "counterparty",
          "type": "address"
        },
        {
          "indexed": false,
          "internalType": "bytes32",
          "name": "ccy",
          "type": "bytes32"
        },
        {
          "indexed": false,
          "internalType": "bytes32",
          "name": "timeSlot",
          "type": "bytes32"
        },
        {
          "indexed": false,
          "internalType": "uint256",
          "name": "year",
          "type": "uint256"
        },
        {
          "indexed": false,
          "internalType": "uint256",
          "name": "month",
          "type": "uint256"
        },
        {
          "indexed": false,
          "internalType": "uint256",
          "name": "day",
          "type": "uint256"
        },
        {
          "indexed": false,
          "internalType": "bytes32",
          "name": "settlementId",
          "type": "bytes32"
        }
      ],
      "name": "SettlePayment",
      "type": "event"
    },
    {
      "anonymous": false,
      "inputs": [
        {
          "indexed": true,
          "internalType": "address",
          "name": "verifier",
          "type": "address"
        },
        {
          "indexed": true,
          "internalType": "address",
          "name": "counterparty",
          "type": "address"
        },
        {
          "indexed": false,
          "internalType": "bytes32",
          "name": "ccy",
          "type": "bytes32"
        },
        {
          "indexed": false,
          "internalType": "bytes32",
          "name": "timeSlot",
          "type": "bytes32"
        },
        {
          "indexed": false,
          "internalType": "uint256",
          "name": "year",
          "type": "uint256"
        },
        {
          "indexed": false,
          "internalType": "uint256",
          "name": "month",
          "type": "uint256"
        },
        {
          "indexed": false,
          "internalType": "uint256",
          "name": "day",
          "type": "uint256"
        },
        {
          "indexed": false,
          "internalType": "uint256",
          "name": "payment",
          "type": "uint256"
        },
        {
          "indexed": false,
          "internalType": "bytes32",
          "name": "settlementId",
          "type": "bytes32"
        }
      ],
      "name": "VerifyPayment",
      "type": "event"
    },
    {
      "inputs": [],
      "name": "SETTLEMENT_WINDOW",
      "outputs": [
        {
          "internalType": "uint256",
          "name": "",
          "type": "uint256"
        }
      ],
      "stateMutability": "view",
      "type": "function"
    },
    {
      "inputs": [],
      "name": "acceptedContracts",
      "outputs": [
        {
          "internalType": "bytes32[]",
          "name": "contracts",
          "type": "bytes32[]"
        }
      ],
      "stateMutability": "pure",
      "type": "function"
    },
    {
      "inputs": [],
      "name": "buildCache",
      "outputs": [],
      "stateMutability": "nonpayable",
      "type": "function"
    },
    {
      "inputs": [
        {
          "internalType": "uint256",
          "name": "targetTime",
          "type": "uint256"
        }
      ],
      "name": "checkSettlementWindow",
      "outputs": [
        {
          "internalType": "bool",
          "name": "",
          "type": "bool"
        }
      ],
      "stateMutability": "view",
      "type": "function"
    },
    {
      "inputs": [
        {
          "internalType": "address",
          "name": "party0",
          "type": "address"
        },
        {
          "internalType": "address",
          "name": "party1",
          "type": "address"
        },
        {
          "internalType": "bytes32",
          "name": "ccy",
          "type": "bytes32"
        },
        {
          "internalType": "bytes32",
          "name": "slotPosition",
          "type": "bytes32"
        }
      ],
      "name": "getDealsFromSlot",
      "outputs": [
        {
          "internalType": "bytes32[]",
          "name": "",
          "type": "bytes32[]"
        }
      ],
      "stateMutability": "view",
      "type": "function"
    },
    {
      "inputs": [
        {
          "internalType": "address",
          "name": "party0",
          "type": "address"
        },
        {
          "internalType": "address",
          "name": "party1",
          "type": "address"
        },
        {
          "internalType": "bytes32",
          "name": "ccy",
          "type": "bytes32"
        },
        {
          "internalType": "uint256",
          "name": "year",
          "type": "uint256"
        },
        {
          "internalType": "uint256",
          "name": "month",
          "type": "uint256"
        },
        {
          "internalType": "uint256",
          "name": "day",
          "type": "uint256"
        }
      ],
      "name": "getTimeSlotByDate",
      "outputs": [
        {
          "internalType": "uint256",
          "name": "",
          "type": "uint256"
        },
        {
          "internalType": "uint256",
          "name": "",
          "type": "uint256"
        },
        {
          "internalType": "uint256",
          "name": "",
          "type": "uint256"
        },
        {
          "internalType": "uint256",
          "name": "",
          "type": "uint256"
        },
        {
          "internalType": "bool",
          "name": "",
          "type": "bool"
        },
        {
          "internalType": "bool",
          "name": "",
          "type": "bool"
        }
      ],
      "stateMutability": "view",
      "type": "function"
    },
    {
      "inputs": [
        {
          "internalType": "address",
          "name": "party0",
          "type": "address"
        },
        {
          "internalType": "address",
          "name": "party1",
          "type": "address"
        },
        {
          "internalType": "bytes32",
          "name": "ccy",
          "type": "bytes32"
        },
        {
          "internalType": "bytes32",
          "name": "slot",
          "type": "bytes32"
        }
      ],
      "name": "getTimeSlotBySlotId",
      "outputs": [
        {
          "internalType": "uint256",
          "name": "",
          "type": "uint256"
        },
        {
          "internalType": "uint256",
          "name": "",
          "type": "uint256"
        },
        {
          "internalType": "uint256",
          "name": "",
          "type": "uint256"
        },
        {
          "internalType": "uint256",
          "name": "",
          "type": "uint256"
        },
        {
          "internalType": "bool",
          "name": "",
          "type": "bool"
        },
        {
          "internalType": "bool",
          "name": "",
          "type": "bool"
        }
      ],
      "stateMutability": "view",
      "type": "function"
    },
    {
      "inputs": [
        {
          "internalType": "address",
          "name": "party0",
          "type": "address"
        },
        {
          "internalType": "address",
          "name": "party1",
          "type": "address"
        },
        {
          "internalType": "bytes32",
          "name": "ccy",
          "type": "bytes32"
        },
        {
          "internalType": "uint256",
          "name": "year",
          "type": "uint256"
        },
        {
          "internalType": "uint256",
          "name": "month",
          "type": "uint256"
        },
        {
          "internalType": "uint256",
          "name": "day",
          "type": "uint256"
        },
        {
          "internalType": "bytes32",
          "name": "settlementId",
          "type": "bytes32"
        }
      ],
      "name": "getTimeSlotPaymentConfirmation",
      "outputs": [
        {
          "internalType": "address",
          "name": "",
          "type": "address"
        },
        {
          "internalType": "uint256",
          "name": "",
          "type": "uint256"
        }
      ],
      "stateMutability": "view",
      "type": "function"
    },
    {
      "inputs": [
        {
          "internalType": "address",
          "name": "party0",
          "type": "address"
        },
        {
          "internalType": "address",
          "name": "party1",
          "type": "address"
        },
        {
          "internalType": "bytes32",
          "name": "ccy",
          "type": "bytes32"
        },
        {
          "internalType": "bytes32",
          "name": "slot",
          "type": "bytes32"
        },
        {
          "internalType": "bytes32",
          "name": "settlementId",
          "type": "bytes32"
        }
      ],
      "name": "getTimeSlotPaymentConfirmationById",
      "outputs": [
        {
          "internalType": "address",
          "name": "",
          "type": "address"
        },
        {
          "internalType": "uint256",
          "name": "",
          "type": "uint256"
        }
      ],
      "stateMutability": "view",
      "type": "function"
    },
    {
      "inputs": [
        {
          "internalType": "address",
          "name": "resolver",
          "type": "address"
        }
      ],
      "name": "initialize",
      "outputs": [],
      "stateMutability": "nonpayable",
      "type": "function"
    },
    {
      "inputs": [],
      "name": "isResolverCached",
      "outputs": [
        {
          "internalType": "bool",
          "name": "",
          "type": "bool"
        }
      ],
      "stateMutability": "view",
      "type": "function"
    },
    {
      "inputs": [
        {
          "internalType": "address",
          "name": "party0",
          "type": "address"
        },
        {
          "internalType": "address",
          "name": "party1",
          "type": "address"
        },
        {
          "internalType": "bytes32",
          "name": "ccy",
          "type": "bytes32"
        },
        {
          "internalType": "uint256",
          "name": "timestamp",
          "type": "uint256"
        }
      ],
      "name": "isSettled",
      "outputs": [
        {
          "internalType": "bool",
          "name": "status",
          "type": "bool"
        }
      ],
      "stateMutability": "view",
      "type": "function"
    },
    {
      "inputs": [
        {
          "internalType": "address",
          "name": "party0",
          "type": "address"
        },
        {
          "internalType": "address",
          "name": "party1",
          "type": "address"
        },
        {
          "internalType": "bytes32",
          "name": "ccy",
          "type": "bytes32"
        },
        {
          "internalType": "bytes32",
          "name": "dealId",
          "type": "bytes32"
        },
        {
          "internalType": "uint256[]",
          "name": "timestamps",
          "type": "uint256[]"
        },
        {
          "internalType": "uint256[]",
          "name": "payments0",
          "type": "uint256[]"
        },
        {
          "internalType": "uint256[]",
          "name": "payments1",
          "type": "uint256[]"
        }
      ],
      "name": "registerPayments",
      "outputs": [],
      "stateMutability": "nonpayable",
      "type": "function"
    },
    {
      "inputs": [
        {
          "internalType": "address",
          "name": "party0",
          "type": "address"
        },
        {
          "internalType": "address",
          "name": "party1",
          "type": "address"
        },
        {
          "internalType": "bytes32",
          "name": "ccy",
          "type": "bytes32"
        },
        {
          "internalType": "bytes32",
          "name": "dealId",
          "type": "bytes32"
        },
        {
          "internalType": "uint256[]",
          "name": "timestamps",
          "type": "uint256[]"
        },
        {
          "internalType": "uint256[]",
          "name": "payments0",
          "type": "uint256[]"
        },
        {
          "internalType": "uint256[]",
          "name": "payments1",
          "type": "uint256[]"
        }
      ],
      "name": "removePayments",
      "outputs": [],
      "stateMutability": "nonpayable",
      "type": "function"
    },
    {
      "inputs": [],
      "name": "requiredContracts",
      "outputs": [
        {
          "internalType": "bytes32[]",
          "name": "contracts",
          "type": "bytes32[]"
        }
      ],
      "stateMutability": "pure",
      "type": "function"
    },
    {
      "inputs": [],
      "name": "resolver",
      "outputs": [
        {
          "internalType": "contract IAddressResolver",
          "name": "",
          "type": "address"
        }
      ],
      "stateMutability": "view",
      "type": "function"
    },
    {
      "inputs": [
        {
          "internalType": "address",
          "name": "verifier",
          "type": "address"
        },
        {
          "internalType": "address",
          "name": "counterparty",
          "type": "address"
        },
        {
          "internalType": "bytes32",
          "name": "ccy",
          "type": "bytes32"
        },
        {
          "internalType": "uint256",
          "name": "timestamp",
          "type": "uint256"
        },
        {
          "internalType": "uint256",
          "name": "payment",
          "type": "uint256"
        },
        {
          "internalType": "bytes32",
          "name": "settlementId",
          "type": "bytes32"
        }
      ],
      "name": "verifyPayment",
      "outputs": [],
      "stateMutability": "nonpayable",
      "type": "function"
    }
  ],
  "transactionHash": "0xbd537d9b80f0cbb0b2e0360df6252071126ddadf0df29cdd6dca0e4a10e638ef",
  "args": [],
  "numDeployments": 2,
  "solcInputHash": "0fd5a5d025de86963d36bd38be3b6dce",
  "bytecode": "0x608060405234801561001057600080fd5b50612a73806100206000396000f3fe608060405234801561001057600080fd5b506004361061010b5760003560e01c8063690a6800116100a2578063b116a25911610071578063b116a25914610262578063b73cdacd14610275578063c4d66de814610288578063d0cd64801461029b578063e0997659146102ae57600080fd5b8063690a6800146101e557806375dc0d21146101f857806381dc26c71461020b578063955c87361461024f57600080fd5b8063393b6e17116100de578063393b6e17146101825780633d03b9da146101955780633deb6cae1461019d5780634f0f141c146101b357600080fd5b806304f3bcec1461011057806329985e5a146101405780632af64bd31461014a5780632eb4602314610162575b600080fd5b600054610123906001600160a01b031681565b6040516001600160a01b0390911681526020015b60405180910390f35b6101486102b5565b005b610152610448565b6040519015158152602001610137565b61017561017036600461229d565b610566565b60405161013791906122e3565b6101486101903660046123d8565b610661565b6101756109d6565b6101a5600281565b604051908152602001610137565b6101c66101c1366004612499565b610a95565b604080516001600160a01b039093168352602083019190915201610137565b6101526101f33660046124ea565b610ac2565b61015261020636600461229d565b610adc565b61021e61021936600461229d565b610b28565b60408051968752602087019590955293850192909252606084015215156080830152151560a082015260c001610137565b61014861025d366004612503565b610b61565b61021e610270366004612503565b610d6d565b6101486102833660046125a1565b610dac565b610148610296366004612676565b611110565b6101c66102a9366004612693565b61121b565b6060610175565b60006102bf6109d6565b905060005b81518110156104445760008282815181106102e1576102e16126f5565b6020026020010151905060008060009054906101000a90046001600160a01b03166001600160a01b0316636795dbcd838460405160200161034e91907f5265736f6c766572206d697373696e67207461726765743a20000000000000008152601981019190915260390190565b6040516020818303038152906040526040518363ffffffff1660e01b815260040161037a929190612758565b60206040518083038186803b15801561039257600080fd5b505afa1580156103a6573d6000803e3d6000fd5b505050506040513d601f19601f820116820180604052508101906103ca9190612779565b60008381526001602090815260409182902080546001600160a01b0319166001600160a01b0385169081179091558251868152918201529192507f88a93678a3692f6789d9546fc621bf7234b101ddb7d4fe479455112831b8aa68910160405180910390a15050808061043c906127ac565b9150506102c4565b5050565b6000806104536109d6565b905060005b815181101561055d576000828281518110610475576104756126f5565b60209081029190910181015160008181526001909252604080832054925490516321f8a72160e01b8152600481018390529193506001600160a01b039283169216906321f8a7219060240160206040518083038186803b1580156104d857600080fd5b505afa1580156104ec573d6000803e3d6000fd5b505050506040513d601f19601f820116820180604052508101906105109190612779565b6001600160a01b031614158061053b57506000818152600160205260409020546001600160a01b0316155b1561054a576000935050505090565b5080610555816127ac565b915050610458565b50600191505090565b60606000610574868661124c565b5060008181527ffb48051b15d811ec446e2c404d1ddcd7fafd5a5d71076e32a4a579ab139049c560209081526040808320888452825280832087845290915281209192506105c1826113bc565b905060008167ffffffffffffffff8111156105de576105de612327565b604051908082528060200260200182016040528015610607578160200160208202803683370190505b50905060005b8281101561065457600061062185836113cc565b905080838381518110610636576106366126f5565b6020908102919091010152508061064c816127ac565b91505061060d565b5098975050505050505050565b61066a336113df565b6106b55760405162461bcd60e51b81526020600482015260176024820152764f6e6c7920416363657074656420436f6e74726163747360481b60448201526064015b60405180910390fd5b6106bd612238565b6106c7888861124c565b50815260005b8451811015610956578481815181106106e8576106e86126f5565b6020026020010151600014156106fd57610944565b61071f858281518110610712576107126126f5565b6020026020010151611473565b60e0850181905260c0850182905260a0850183905261073f929190611499565b60808301908152825160009081527ffb48051b15d811ec446e2c404d1ddcd7fafd5a5d71076e32a4a579ab139049c5602090815260408083208b84528252808320935183529290522061079290876114d0565b5060008482815181106107a7576107a76126f5565b602002602001015111156107e4578381815181106107c7576107c76126f5565b602002602001015182604001516107de91906127c7565b60408301525b60008382815181106107f8576107f86126f5565b6020026020010151111561083557828181518110610818576108186126f5565b6020026020010151826060015161082f91906127c7565b60608301525b61088b600080516020612a1e8339815191526000018a8a8a8660800151898781518110610864576108646126f5565b602002602001015189888151811061087e5761087e6126f5565b60200260200101516114dc565b876001600160a01b0316896001600160a01b03167f7e5ab2f9d27f1d9cb69c5757129eba9a1250928ade66885dc5caec90c4b7641b8985608001518660a001518760c001518860e001518b89815181106108e7576108e76126f5565b60200260200101518b8a81518110610901576109016126f5565b60209081029190910181015160408051988952918801969096528601939093526060850191909152608084015260a083015260c082015260e00160405180910390a35b8061094e816127ac565b9150506106cd565b5061095f6115c5565b6001600160a01b031663ca2da529898989856040015186606001516040518663ffffffff1660e01b815260040161099a9594939291906127df565b600060405180830381600087803b1580156109b457600080fd5b505af11580156109c8573d6000803e3d6000fd5b505050505050505050505050565b604080516003808252608082019092526060916020820183803683370190505090506e436c6f73654f75744e657474696e6760881b81600081518110610a1e57610a1e6126f5565b6020026020010181815250506b13585c9ad51bd3585c9ad95d60a21b81600181518110610a4d57610a4d6126f5565b60200260200101818152505075283937b23ab1ba20b2323932b9b9a932b9b7b63b32b960511b81600281518110610a8657610a866126f5565b60200260200101818152505090565b600080610ab4600080516020612a1e83398151915288888888886115e7565b915091509550959350505050565b60004281610ad08285611650565b60021015949350505050565b600080600080610aeb85611473565b9250925092506000610afe848484611499565b9050610b1b600080516020612a1e8339815191528a8a8a85611677565b9998505050505050505050565b60008080808080610b4a600080516020612a1e8339815191528b8b8b8b6116b9565b949f939e50919c509a509850909650945050505050565b610b6a83610ac2565b610bb65760405162461bcd60e51b815260206004820152601860248201527f4f55545f4f465f534554544c454d454e545f57494e444f57000000000000000060448201526064016106ac565b6040805161018081018252600080825260c0820181905260e082018190526101008201819052610120820181905261014082018190526101608201526020810184905260a081018390526001600160a01b0388811692820192909252908616606082015260808101859052610c2a84611473565b610100840181905260e0840182905260c08401839052610c4b929190611499565b8152610c7f600080516020612a1e8339815191526040830151606084015160808501518551602087015160a0880151611790565b80606001516001600160a01b031681604001516001600160a01b03167fcb48cecc076f9cad1de25f21319ce962ff151d316749e31680b49ed5e2c6fa53836080015184600001518560c001518660e0015187610100015188602001518960a00151604051610d1e9796959493929190968752602087019590955260408601939093526060850191909152608084015260a083015260c082015260e00190565b60405180910390a3610d4e600080516020612a1e8339815191526040830151606084015160808501518551611677565b158015610160830152610d6457610d64816119cd565b50505050505050565b60008080808080610d91600080516020612a1e8339815191528d8d8d8d8d8d611bbb565b95509550955095509550955096509650965096509650969050565b610db5336113df565b610dfb5760405162461bcd60e51b81526020600482015260176024820152764f6e6c7920416363657074656420436f6e74726163747360481b60448201526064016106ac565b610e03612238565b610e0d8b8b61124c565b50815260005b8681101561108d57878782818110610e2d57610e2d6126f5565b9050602002013560001415610e415761107b565b610e62888883818110610e5657610e566126f5565b90506020020135611473565b60e0850181905260c0850182905260a08501839052610e82929190611499565b60808301908152825160009081527ffb48051b15d811ec446e2c404d1ddcd7fafd5a5d71076e32a4a579ab139049c5602090815260408083208e845282528083209351835292905220610ed5908a611c28565b610f175760405162461bcd60e51b81526020600482015260136024820152721393d397d49151d254d51154915117d1115053606a1b60448201526064016106ac565b858582818110610f2957610f296126f5565b905060200201358260400151610f3f91906127c7565b6040830152838382818110610f5657610f566126f5565b905060200201358260600151610f6c91906127c7565b6060830152610fc5600080516020612a1e8339815191526000018d8d8d86608001518b8b88818110610fa057610fa06126f5565b905060200201358a8a89818110610fb957610fb96126f5565b90506020020135611c34565b8a6001600160a01b03168c6001600160a01b03167fc90213e03f0aa26b07d0e75565000d17a8ff1134595b78597d0f4c3cf51aee208c85608001518660a001518760c001518860e001518d8d8a818110611021576110216126f5565b905060200201358c8c8b81811061103a5761103a6126f5565b60408051998a5260208a810199909952890196909652506060870193909352608086019190915260a08501529102013560c082015260e00160405180910390a35b80611085816127ac565b915050610e13565b506110966115c5565b6001600160a01b0316638c9165b08c8c8c856040015186606001516040518663ffffffff1660e01b81526004016110d19594939291906127df565b600060405180830381600087803b1580156110eb57600080fd5b505af11580156110ff573d6000803e3d6000fd5b505050505050505050505050505050565b600061111c6001611ccc565b90508015611134576002805461ff0019166101001790555b60006111677f360894a13ba1a3210667c828492db98dca3e2076cc3735a920a3ca505d382bbc546001600160a01b031690565b6001600160a01b031614156111c95760405162461bcd60e51b815260206004820152602260248201527f4d7573742062652063616c6c65642066726f6d2070726f787920636f6e74726160448201526118dd60f21b60648201526084016106ac565b6111d282611d56565b8015610444576002805461ff0019169055604051600181527f7f26b83ff96e1f2b6a682f133852f6798a09c465da95921460cefb38474024989060200160405180910390a15050565b60008061123c600080516020612a1e8339815191528a8a8a8a8a8a8a611dd1565b9150915097509795505050505050565b600080826001600160a01b0316846001600160a01b031614156112a75760405162461bcd60e51b81526020600482015260136024820152724964656e746963616c2061646472657373657360681b60448201526064016106ac565b600080846001600160a01b0316866001600160a01b0316106112ca5784866112cd565b85855b90925090506001600160a01b03821661131a5760405162461bcd60e51b815260206004820152600f60248201526e496e76616c6964206164647265737360881b60448201526064016106ac565b856001600160a01b0316826001600160a01b03161461137657604080516001600160a01b0380851660208301528316918101919091526060016040516020818303038152906040528051906020012060019350935050506113b5565b604080516001600160a01b0380851660208301528316918101919091526060016040516020818303038152906040528051906020012060009350935050505b9250929050565b60006113c6825490565b92915050565b60006113d88383611e2e565b9392505050565b60006113e9611e58565b60405163a3d52aad60e01b81526001600160a01b038481166004830152919091169063a3d52aad9060240160206040518083038186803b15801561142c57600080fd5b505afa158015611440573d6000803e3d6000fd5b505050506040513d601f19601f820116820180604052508101906114649190612810565b806113c657506113c682611e7c565b6000808061148c6114876201518086612848565b611eec565b9196909550909350915050565b6040805160208082019590955280820193909352606080840192909252805180840390920182526080909201909152805191012090565b60006113d88383612060565b6000806114e9888861124c565b600082815260208c815260408083208b845282528083208a84529091529020600481015492945090925090610100900460ff16156115645760405162461bcd60e51b815260206004820152601860248201527754494d45534c4f5420534554544c454420414c524541445960401b60448201526064016106ac565b8161157b5780546115769086906127c7565b611588565b80546115889085906127c7565b8155816115a45783816001015461159f91906127c7565b6115b4565b8481600101546115b491906127c7565b600190910155505050505050505050565b60006115e26e436c6f73654f75744e657474696e6760881b6120af565b905090565b60008060006115f6888861124c565b5060009081526020998a526040808220978252968a528681209581529489525050508282209082526005018552819020815180830190925280546001600160a01b0316808352600190910154919094018190529293915050565b60008183111561165f57600080fd5b6201518061166d848461285c565b6113d89190612848565b600080611684868661124c565b5060009081526020978852604080822095825294885284812093815292909652502060040154610100900460ff169392505050565b6000806000806000806000806116cf8c8c61124c565b9150915060008d600084815260200190815260200160002060008c815260200190815260200160002060008b815260200190815260200160002090506000816000015490506000826001015490506000836002015490508415611730579091905b8282111561174d57611742838361285c565b90506001945061175e565b611757828461285c565b9050600094505b6003840154600490940154929b50909950975090955090935060ff610100909104169150509550955095509550955095565b60008061179d888861124c565b600082815260208c815260408083208b845282528083208a84529091529020600481015492945090925090610100900460ff16156118185760405162461bcd60e51b815260206004820152601860248201527754494d45534c4f5420534554544c454420414c524541445960401b60448201526064016106ac565b6000821561188c5781546001830154116118745760405162461bcd60e51b815260206004820152601c60248201527f496e636f727265637420766572696669636174696f6e2070617274790000000060448201526064016106ac565b81546001830154611885919061285c565b90506118f4565b60018201548254116118e05760405162461bcd60e51b815260206004820152601c60248201527f496e636f727265637420766572696669636174696f6e2070617274790000000060448201526064016106ac565b600182015482546118f1919061285c565b90505b85826003015461190491906127c7565b6003830181905581101561194d5760405162461bcd60e51b815260206004820152601060248201526f5061796d656e74206f766572666c6f7760801b60448201526064016106ac565b60408051808201825260208082018981526001600160a01b038e8116845260008a81526005880190935293909120825181546001600160a01b03191694169390931783555160019092019190915560038301546119aa908361285c565b6109c85760048301805461ff001916610100179055505050505050505050505050565b611a03600080516020612a1e83398151915260408301516060840151608085015160c086015160e0870151610100880151611bbb565b505050506101408301526101208201526040810151606082015160808301518351600093611a349390929091610566565b9050611a3e61212b565b6001600160a01b0316634d283d5c826040518263ffffffff1660e01b8152600401611a6991906122e3565b600060405180830381600087803b158015611a8357600080fd5b505af1158015611a97573d6000803e3d6000fd5b50505050611aa36115c5565b6001600160a01b0316638c9165b08360400151846060015185608001518661012001518761014001516040518663ffffffff1660e01b8152600401611aec9594939291906127df565b600060405180830381600087803b158015611b0657600080fd5b505af1158015611b1a573d6000803e3d6000fd5b5050505081606001516001600160a01b031682604001516001600160a01b03167f60d5560fb6dcb96ba7b9e138a06d94234a893a7e79def188502193bf71bc4663846080015185600001518660c001518760e001518861010001518960a00151604051611baf96959493929190958652602086019490945260408501929092526060840152608083015260a082015260c00190565b60405180910390a35050565b600080600080600080611c0c8d8d8d8d8d8d8d604051602001611bf1939291909283526020830191909152604082015260600190565b604051602081830303815290604052805190602001206116b9565b9550955095509550955095509750975097509750975097915050565b60006113d88383612145565b600080611c41888861124c565b600082815260208c815260408083208b845282528083208a84529091529020600481015492945090925090610100900460ff1615611c8157505050610d64565b81611c98578054611c9390869061285c565b611ca5565b8054611ca590859061285c565b815581611cbc5783816001015461159f919061285c565b8481600101546115b4919061285c565b600254600090610100900460ff1615611d15578160ff166001148015611cf15750303b155b611d0d5760405162461bcd60e51b81526004016106ac90612873565b506000919050565b60025460ff808416911610611d3c5760405162461bcd60e51b81526004016106ac90612873565b506002805460ff191660ff92909216919091179055600190565b6000546001600160a01b031615611daf5760405162461bcd60e51b815260206004820152601b60248201527f7265736f6c766572207265676973746572656420616c7265616479000000000060448201526064016106ac565b600080546001600160a01b0319166001600160a01b0392909216919091179055565b600080611e1d8a8a8a8a8a8a8a604051602001611e01939291909283526020830191909152604082015260600190565b60405160208183030381529060405280519060200120886115e7565b915091509850989650505050505050565b6000826000018281548110611e4557611e456126f5565b9060005260206000200154905092915050565b60006115e275283937b23ab1ba20b2323932b9b9a932b9b7b63b32b960511b6120af565b60006060815b8151811015611ee257611ead828281518110611ea057611ea06126f5565b60200260200101516120af565b6001600160a01b0316846001600160a01b03161415611ed0575060019392505050565b80611eda816127ac565b915050611e82565b5060009392505050565b60008080838162253d8c611f038362010bd96128c1565b611f0d91906128c1565b9050600062023ab1611f20836004612902565b611f2a9190612987565b90506004611f3b8262023ab1612902565b611f469060036128c1565b611f509190612987565b611f5a90836129b5565b9150600062164b09611f6d8460016128c1565b611f7990610fa0612902565b611f839190612987565b90506004611f93826105b5612902565b611f9d9190612987565b611fa790846129b5565b611fb290601f6128c1565b9250600061098f611fc4856050612902565b611fce9190612987565b905060006050611fe08361098f612902565b611fea9190612987565b611ff490866129b5565b9050612001600b83612987565b945061200e85600c612902565b6120198360026128c1565b61202391906129b5565b915084836120326031876129b5565b61203d906064612902565b61204791906128c1565b61205191906128c1565b9a919950975095505050505050565b60008181526001830160205260408120546120a7575081546001818101845560008481526020808220909301849055845484825282860190935260409020919091556113c6565b5060006113c6565b600081815260016020908152604080832054905170026b4b9b9b4b7339030b2323932b9b99d1607d1b92810192909252603182018490526001600160a01b03169081151590605101604051602081830303815290604052906121245760405162461bcd60e51b81526004016106ac91906129f4565b5092915050565b60006115e26b13585c9ad51bd3585c9ad95d60a21b6120af565b6000818152600183016020526040812054801561222e57600061216960018361285c565b855490915060009061217d9060019061285c565b90508181146121e257600086600001828154811061219d5761219d6126f5565b90600052602060002001549050808760000184815481106121c0576121c06126f5565b6000918252602080832090910192909255918252600188019052604090208390555b85548690806121f3576121f3612a07565b6001900381819060005260206000200160009055905585600101600086815260200190815260200160002060009055600193505050506113c6565b60009150506113c6565b604051806101000160405280600080191681526020016000151581526020016000815260200160008152602001600080191681526020016000815260200160008152602001600081525090565b6001600160a01b038116811461229a57600080fd5b50565b600080600080608085870312156122b357600080fd5b84356122be81612285565b935060208501356122ce81612285565b93969395505050506040820135916060013590565b6020808252825182820181905260009190848201906040850190845b8181101561231b578351835292840192918401916001016122ff565b50909695505050505050565b634e487b7160e01b600052604160045260246000fd5b600082601f83011261234e57600080fd5b8135602067ffffffffffffffff8083111561236b5761236b612327565b8260051b604051601f19603f8301168101818110848211171561239057612390612327565b6040529384528581018301938381019250878511156123ae57600080fd5b83870191505b848210156123cd578135835291830191908301906123b4565b979650505050505050565b600080600080600080600060e0888a0312156123f357600080fd5b87356123fe81612285565b9650602088013561240e81612285565b95506040880135945060608801359350608088013567ffffffffffffffff8082111561243957600080fd5b6124458b838c0161233d565b945060a08a013591508082111561245b57600080fd5b6124678b838c0161233d565b935060c08a013591508082111561247d57600080fd5b5061248a8a828b0161233d565b91505092959891949750929550565b600080600080600060a086880312156124b157600080fd5b85356124bc81612285565b945060208601356124cc81612285565b94979496505050506040830135926060810135926080909101359150565b6000602082840312156124fc57600080fd5b5035919050565b60008060008060008060c0878903121561251c57600080fd5b863561252781612285565b9550602087013561253781612285565b95989597505050506040840135936060810135936080820135935060a0909101359150565b60008083601f84011261256e57600080fd5b50813567ffffffffffffffff81111561258657600080fd5b6020830191508360208260051b85010111156113b557600080fd5b60008060008060008060008060008060e08b8d0312156125c057600080fd5b8a356125cb81612285565b995060208b01356125db81612285565b985060408b0135975060608b0135965060808b013567ffffffffffffffff8082111561260657600080fd5b6126128e838f0161255c565b909850965060a08d013591508082111561262b57600080fd5b6126378e838f0161255c565b909650945060c08d013591508082111561265057600080fd5b5061265d8d828e0161255c565b915080935050809150509295989b9194979a5092959850565b60006020828403121561268857600080fd5b81356113d881612285565b600080600080600080600060e0888a0312156126ae57600080fd5b87356126b981612285565b965060208801356126c981612285565b96999698505050506040850135946060810135946080820135945060a0820135935060c0909101359150565b634e487b7160e01b600052603260045260246000fd5b6000815180845260005b8181101561273157602081850181015186830182015201612715565b81811115612743576000602083870101525b50601f01601f19169290920160200192915050565b828152604060208201526000612771604083018461270b565b949350505050565b60006020828403121561278b57600080fd5b81516113d881612285565b634e487b7160e01b600052601160045260246000fd5b60006000198214156127c0576127c0612796565b5060010190565b600082198211156127da576127da612796565b500190565b6001600160a01b03958616815293909416602084015260408301919091526060820152608081019190915260a00190565b60006020828403121561282257600080fd5b815180151581146113d857600080fd5b634e487b7160e01b600052601260045260246000fd5b60008261285757612857612832565b500490565b60008282101561286e5761286e612796565b500390565b6020808252602e908201527f496e697469616c697a61626c653a20636f6e747261637420697320616c72656160408201526d191e481a5b9a5d1a585b1a5e995960921b606082015260800190565b600080821280156001600160ff1b03849003851316156128e3576128e3612796565b600160ff1b83900384128116156128fc576128fc612796565b50500190565b60006001600160ff1b038184138284138082168684048611161561292857612928612796565b600160ff1b600087128281168783058912161561294757612947612796565b6000871292508782058712848416161561296357612963612796565b8785058712818416161561297957612979612796565b505050929093029392505050565b60008261299657612996612832565b600160ff1b8214600019841416156129b0576129b0612796565b500590565b60008083128015600160ff1b8501841216156129d3576129d3612796565b6001600160ff1b03840183138116156129ee576129ee612796565b50500390565b6020815260006113d8602083018461270b565b634e487b7160e01b600052603160045260246000fdfefb48051b15d811ec446e2c404d1ddcd7fafd5a5d71076e32a4a579ab139049c4a26469706673582212208f4921d7d97aa353c88b98b32f6d0178bdf728ce933d6502167283caf02a838764736f6c63430008090033",
  "devdoc": {
    "kind": "dev",
    "methods": {
      "acceptedContracts()": {
        "details": "Returns contract names that can call this contract."
      },
      "checkSettlementWindow(uint256)": {
        "details": "Internal function to check if settlement payment is within available timeline",
        "params": {
          "targetTime": "target time for settlement of time slot"
        },
        "returns": {
          "_0": "Boolean if slot within the settlement window"
        }
      },
      "getTimeSlotByDate(address,address,bytes32,uint256,uint256,uint256)": {
        "details": "Returns the time slot between parties using slot id.",
        "params": {
          "ccy": "Main payment settlement currency",
          "party0": "First counterparty address",
          "party1": "Second counterparty address"
        }
      },
      "getTimeSlotBySlotId(address,address,bytes32,bytes32)": {
        "details": "Returns the time slot between parties using slot id.",
        "params": {
          "ccy": "Main payment settlement currency",
          "party0": "First counterparty address",
          "party1": "Second counterparty address",
          "slot": "TimeSlot position"
        }
      },
      "getTimeSlotPaymentConfirmation(address,address,bytes32,uint256,uint256,uint256,bytes32)": {
        "details": "Returns the time slot between parties using slot id.",
        "params": {
          "ccy": "Main payment settlement currency",
          "day": "Calendar day of the settlement",
          "month": "Calendar month of the settlement",
          "party0": "First counterparty address",
          "party1": "Second counterparty address",
          "settlementId": "Settlement payment confirmation identifier",
          "year": "Calendar year of the settlement"
        }
      },
      "getTimeSlotPaymentConfirmationById(address,address,bytes32,bytes32,bytes32)": {
        "details": "Returns the time slot between parties using slot id.",
        "params": {
          "ccy": "Main payment settlement currency",
          "party0": "First counterparty address",
          "party1": "Second counterparty address",
          "settlementId": "Settlement payment confirmation identifier",
          "slot": "TimeSlot position"
        }
      },
      "initialize(address)": {
        "details": "Function is invoked by the proxy contract when the contract is added to the ProxyController"
      },
      "isSettled(address,address,bytes32,uint256)": {
        "details": "Triggers settlement status of the time slot",
        "params": {
          "ccy": "Main payment settlement currency",
          "party0": "First counterparty address",
          "party1": "Second counterparty address",
          "timestamp": "TimeSlot timestamp"
        },
        "returns": {
          "status": "Boolean if slot was settled"
        }
      },
      "registerPayments(address,address,bytes32,bytes32,uint256[],uint256[],uint256[])": {
        "details": "Triggered to add new payments for a deal",
        "params": {
          "ccy": "Main settlement currency in a deal",
          "dealId": "Deal unique ID with prefix",
          "party0": "First counterparty address",
          "party1": "Second counterparty address",
          "payments0": "Array of cashflows owed by the first party",
          "payments1": "Array of cashflows owed by the second party",
          "timestamps": "Array of timestamps for timeslot identification"
        }
      },
      "removePayments(address,address,bytes32,bytes32,uint256[],uint256[],uint256[])": {
        "details": "Triggered to remove existing payments for a deal",
        "params": {
          "ccy": "Main settlement currency in a deal",
          "dealId": "Deal unique ID with prefix",
          "party0": "First counterparty address",
          "party1": "Second counterparty address",
          "payments0": "Array of cashflows owed by the first party",
          "payments1": "Array of cashflows owed by the second party",
          "timestamps": "Array of timestamps for timeslot identification"
        }
      },
      "requiredContracts()": {
        "details": "Returns required contract names in this contract"
      },
      "verifyPayment(address,address,bytes32,uint256,uint256,bytes32)": {
        "details": "External function to verify payment by msg.sender, uses timestamp to identify TimeSlot.",
        "params": {
          "ccy": "Main payment settlement currency",
          "counterparty": "Counterparty address",
          "payment": "Main payment settlement currency",
          "settlementId": "Main payment settlement id",
          "timestamp": "Main timestamp for TimeSlot",
          "verifier": "Payment verifier address"
        }
      }
    },
    "title": "Payment Aggregator contract is used to aggregate payments between counterparties in bilateral relationships. Those payments are defined per counterparties addresses (packed into one bytes32), main settlement currency and payment date. Contract linked to all product based contracts like Loan, Swap, etc.",
    "version": 1
  },
  "userdoc": {
    "kind": "user",
    "methods": {
      "initialize(address)": {
        "notice": "Initializes the contract."
      }
    },
    "version": 1
  },
  "storageLayout": {
    "storage": [
      {
        "astId": 35566,
        "contract": "contracts/PaymentAggregator.sol:PaymentAggregator",
        "label": "resolver",
        "offset": 0,
        "slot": "0",
        "type": "t_contract(IAddressResolver)23128"
      },
      {
        "astId": 35570,
        "contract": "contracts/PaymentAggregator.sol:PaymentAggregator",
        "label": "addressCache",
        "offset": 0,
        "slot": "1",
        "type": "t_mapping(t_bytes32,t_address)"
      },
      {
        "astId": 2833,
        "contract": "contracts/PaymentAggregator.sol:PaymentAggregator",
        "label": "_initialized",
        "offset": 0,
        "slot": "2",
        "type": "t_uint8"
      },
      {
        "astId": 2836,
        "contract": "contracts/PaymentAggregator.sol:PaymentAggregator",
        "label": "_initializing",
        "offset": 1,
        "slot": "2",
        "type": "t_bool"
      }
    ],
    "types": {
      "t_address": {
        "encoding": "inplace",
        "label": "address",
        "numberOfBytes": "20"
      },
      "t_bool": {
        "encoding": "inplace",
        "label": "bool",
        "numberOfBytes": "1"
      },
      "t_bytes32": {
        "encoding": "inplace",
        "label": "bytes32",
        "numberOfBytes": "32"
      },
      "t_contract(IAddressResolver)23128": {
        "encoding": "inplace",
        "label": "contract IAddressResolver",
        "numberOfBytes": "20"
      },
      "t_mapping(t_bytes32,t_address)": {
        "encoding": "mapping",
        "key": "t_bytes32",
        "label": "mapping(bytes32 => address)",
        "numberOfBytes": "32",
        "value": "t_address"
      },
      "t_uint8": {
        "encoding": "inplace",
        "label": "uint8",
        "numberOfBytes": "1"
      }
    }
  }
}