{
  "address": "0x7b97B03C3232a6560d6C9daAaE49f33037D9131C",
  "abi": [
    {
      "inputs": [],
      "stateMutability": "nonpayable",
      "type": "constructor"
    },
    {
      "anonymous": false,
      "inputs": [
        {
          "indexed": true,
          "internalType": "address",
          "name": "party0",
          "type": "address"
        },
        {
          "indexed": true,
          "internalType": "address",
          "name": "party1",
          "type": "address"
        },
        {
          "indexed": false,
          "internalType": "bytes32",
          "name": "ccy",
          "type": "bytes32"
        },
        {
          "indexed": false,
          "internalType": "bytes32",
          "name": "timeSlot",
          "type": "bytes32"
        },
        {
          "indexed": false,
          "internalType": "uint256",
          "name": "year",
          "type": "uint256"
        },
        {
          "indexed": false,
          "internalType": "uint256",
          "name": "month",
          "type": "uint256"
        },
        {
          "indexed": false,
          "internalType": "uint256",
          "name": "day",
          "type": "uint256"
        },
        {
          "indexed": false,
          "internalType": "uint256",
          "name": "payment0",
          "type": "uint256"
        },
        {
          "indexed": false,
          "internalType": "uint256",
          "name": "payment1",
          "type": "uint256"
        }
      ],
      "name": "RegisterPayment",
      "type": "event"
    },
    {
      "anonymous": false,
      "inputs": [
        {
          "indexed": true,
          "internalType": "address",
          "name": "party0",
          "type": "address"
        },
        {
          "indexed": true,
          "internalType": "address",
          "name": "party1",
          "type": "address"
        },
        {
          "indexed": false,
          "internalType": "bytes32",
          "name": "ccy",
          "type": "bytes32"
        },
        {
          "indexed": false,
          "internalType": "bytes32",
          "name": "timeSlot",
          "type": "bytes32"
        },
        {
          "indexed": false,
          "internalType": "uint256",
          "name": "year",
          "type": "uint256"
        },
        {
          "indexed": false,
          "internalType": "uint256",
          "name": "month",
          "type": "uint256"
        },
        {
          "indexed": false,
          "internalType": "uint256",
          "name": "day",
          "type": "uint256"
        },
        {
          "indexed": false,
          "internalType": "uint256",
          "name": "payment0",
          "type": "uint256"
        },
        {
          "indexed": false,
          "internalType": "uint256",
          "name": "payment1",
          "type": "uint256"
        }
      ],
      "name": "RemovePayment",
      "type": "event"
    },
    {
      "anonymous": false,
      "inputs": [
        {
          "indexed": true,
          "internalType": "address",
          "name": "verifier",
          "type": "address"
        },
        {
          "indexed": true,
          "internalType": "address",
          "name": "counterparty",
          "type": "address"
        },
        {
          "indexed": false,
          "internalType": "bytes32",
          "name": "ccy",
          "type": "bytes32"
        },
        {
          "indexed": false,
          "internalType": "bytes32",
          "name": "timeSlot",
          "type": "bytes32"
        },
        {
          "indexed": false,
          "internalType": "uint256",
          "name": "year",
          "type": "uint256"
        },
        {
          "indexed": false,
          "internalType": "uint256",
          "name": "month",
          "type": "uint256"
        },
        {
          "indexed": false,
          "internalType": "uint256",
          "name": "day",
          "type": "uint256"
        },
        {
          "indexed": false,
          "internalType": "bytes32",
          "name": "settlementId",
          "type": "bytes32"
        }
      ],
      "name": "SettlePayment",
      "type": "event"
    },
    {
      "anonymous": false,
      "inputs": [
        {
          "indexed": true,
          "internalType": "address",
          "name": "prevContract",
          "type": "address"
        },
        {
          "indexed": true,
          "internalType": "address",
          "name": "closeOutNetting",
          "type": "address"
        }
      ],
      "name": "UpdateCloseOutNetting",
      "type": "event"
    },
    {
      "anonymous": false,
      "inputs": [
        {
          "indexed": true,
          "internalType": "address",
          "name": "prevContract",
          "type": "address"
        },
        {
          "indexed": true,
          "internalType": "address",
          "name": "closeOutNetting",
          "type": "address"
        }
      ],
      "name": "UpdateMarkToMarket",
      "type": "event"
    },
    {
      "anonymous": false,
      "inputs": [
        {
          "indexed": true,
          "internalType": "address",
          "name": "prevContract",
          "type": "address"
        },
        {
          "indexed": true,
          "internalType": "address",
          "name": "settlementEngine",
          "type": "address"
        }
      ],
      "name": "UpdateSettlementEngine",
      "type": "event"
    },
    {
      "anonymous": false,
      "inputs": [
        {
          "indexed": true,
          "internalType": "address",
          "name": "verifier",
          "type": "address"
        },
        {
          "indexed": true,
          "internalType": "address",
          "name": "counterparty",
          "type": "address"
        },
        {
          "indexed": false,
          "internalType": "bytes32",
          "name": "ccy",
          "type": "bytes32"
        },
        {
          "indexed": false,
          "internalType": "bytes32",
          "name": "timeSlot",
          "type": "bytes32"
        },
        {
          "indexed": false,
          "internalType": "uint256",
          "name": "year",
          "type": "uint256"
        },
        {
          "indexed": false,
          "internalType": "uint256",
          "name": "month",
          "type": "uint256"
        },
        {
          "indexed": false,
          "internalType": "uint256",
          "name": "day",
          "type": "uint256"
        },
        {
          "indexed": false,
          "internalType": "uint256",
          "name": "payment",
          "type": "uint256"
        },
        {
          "indexed": false,
          "internalType": "bytes32",
          "name": "settlementId",
          "type": "bytes32"
        }
      ],
      "name": "VerifyPayment",
      "type": "event"
    },
    {
      "inputs": [
        {
          "internalType": "address",
          "name": "_user",
          "type": "address"
        }
      ],
      "name": "addPaymentAggregatorUser",
      "outputs": [
        {
          "internalType": "bool",
          "name": "",
          "type": "bool"
        }
      ],
      "stateMutability": "nonpayable",
      "type": "function"
    },
    {
      "inputs": [
        {
          "internalType": "uint256",
          "name": "targetTime",
          "type": "uint256"
        }
      ],
      "name": "checkSettlementWindow",
      "outputs": [
        {
          "internalType": "bool",
          "name": "",
          "type": "bool"
        }
      ],
      "stateMutability": "view",
      "type": "function"
    },
    {
      "inputs": [
        {
          "internalType": "address",
          "name": "party0",
          "type": "address"
        },
        {
          "internalType": "address",
          "name": "party1",
          "type": "address"
        },
        {
          "internalType": "bytes32",
          "name": "ccy",
          "type": "bytes32"
        },
        {
          "internalType": "bytes32",
          "name": "slotPosition",
          "type": "bytes32"
        }
      ],
      "name": "getDealsFromSlot",
      "outputs": [
        {
          "internalType": "bytes32[]",
          "name": "",
          "type": "bytes32[]"
        }
      ],
      "stateMutability": "view",
      "type": "function"
    },
    {
      "inputs": [
        {
          "internalType": "address",
          "name": "party0",
          "type": "address"
        },
        {
          "internalType": "address",
          "name": "party1",
          "type": "address"
        },
        {
          "internalType": "bytes32",
          "name": "ccy",
          "type": "bytes32"
        },
        {
          "internalType": "uint256",
          "name": "year",
          "type": "uint256"
        },
        {
          "internalType": "uint256",
          "name": "month",
          "type": "uint256"
        },
        {
          "internalType": "uint256",
          "name": "day",
          "type": "uint256"
        }
      ],
      "name": "getTimeSlotByDate",
      "outputs": [
        {
          "internalType": "uint256",
          "name": "",
          "type": "uint256"
        },
        {
          "internalType": "uint256",
          "name": "",
          "type": "uint256"
        },
        {
          "internalType": "uint256",
          "name": "",
          "type": "uint256"
        },
        {
          "internalType": "uint256",
          "name": "",
          "type": "uint256"
        },
        {
          "internalType": "bool",
          "name": "",
          "type": "bool"
        },
        {
          "internalType": "bool",
          "name": "",
          "type": "bool"
        }
      ],
      "stateMutability": "view",
      "type": "function"
    },
    {
      "inputs": [
        {
          "internalType": "address",
          "name": "party0",
          "type": "address"
        },
        {
          "internalType": "address",
          "name": "party1",
          "type": "address"
        },
        {
          "internalType": "bytes32",
          "name": "ccy",
          "type": "bytes32"
        },
        {
          "internalType": "bytes32",
          "name": "slot",
          "type": "bytes32"
        }
      ],
      "name": "getTimeSlotBySlotId",
      "outputs": [
        {
          "internalType": "uint256",
          "name": "",
          "type": "uint256"
        },
        {
          "internalType": "uint256",
          "name": "",
          "type": "uint256"
        },
        {
          "internalType": "uint256",
          "name": "",
          "type": "uint256"
        },
        {
          "internalType": "uint256",
          "name": "",
          "type": "uint256"
        },
        {
          "internalType": "bool",
          "name": "",
          "type": "bool"
        },
        {
          "internalType": "bool",
          "name": "",
          "type": "bool"
        }
      ],
      "stateMutability": "view",
      "type": "function"
    },
    {
      "inputs": [
        {
          "internalType": "address",
          "name": "party0",
          "type": "address"
        },
        {
          "internalType": "address",
          "name": "party1",
          "type": "address"
        },
        {
          "internalType": "bytes32",
          "name": "ccy",
          "type": "bytes32"
        },
        {
          "internalType": "uint256",
          "name": "year",
          "type": "uint256"
        },
        {
          "internalType": "uint256",
          "name": "month",
          "type": "uint256"
        },
        {
          "internalType": "uint256",
          "name": "day",
          "type": "uint256"
        },
        {
          "internalType": "bytes32",
          "name": "settlementId",
          "type": "bytes32"
        }
      ],
      "name": "getTimeSlotPaymentConfirmation",
      "outputs": [
        {
          "internalType": "address",
          "name": "",
          "type": "address"
        },
        {
          "internalType": "uint256",
          "name": "",
          "type": "uint256"
        }
      ],
      "stateMutability": "view",
      "type": "function"
    },
    {
      "inputs": [
        {
          "internalType": "address",
          "name": "party0",
          "type": "address"
        },
        {
          "internalType": "address",
          "name": "party1",
          "type": "address"
        },
        {
          "internalType": "bytes32",
          "name": "ccy",
          "type": "bytes32"
        },
        {
          "internalType": "bytes32",
          "name": "slot",
          "type": "bytes32"
        },
        {
          "internalType": "bytes32",
          "name": "settlementId",
          "type": "bytes32"
        }
      ],
      "name": "getTimeSlotPaymentConfirmationById",
      "outputs": [
        {
          "internalType": "address",
          "name": "",
          "type": "address"
        },
        {
          "internalType": "uint256",
          "name": "",
          "type": "uint256"
        }
      ],
      "stateMutability": "view",
      "type": "function"
    },
    {
      "inputs": [
        {
          "internalType": "address",
          "name": "_user",
          "type": "address"
        }
      ],
      "name": "isPaymentAggregatorUser",
      "outputs": [
        {
          "internalType": "bool",
          "name": "",
          "type": "bool"
        }
      ],
      "stateMutability": "view",
      "type": "function"
    },
    {
      "inputs": [
        {
          "internalType": "address",
          "name": "party0",
          "type": "address"
        },
        {
          "internalType": "address",
          "name": "party1",
          "type": "address"
        },
        {
          "internalType": "bytes32",
          "name": "ccy",
          "type": "bytes32"
        },
        {
          "internalType": "uint256",
          "name": "timestamp",
          "type": "uint256"
        }
      ],
      "name": "isSettled",
      "outputs": [
        {
          "internalType": "bool",
          "name": "status",
          "type": "bool"
        }
      ],
      "stateMutability": "view",
      "type": "function"
    },
    {
      "inputs": [],
      "name": "owner",
      "outputs": [
        {
          "internalType": "address",
          "name": "",
          "type": "address"
        }
      ],
      "stateMutability": "view",
      "type": "function"
    },
    {
      "inputs": [
        {
          "internalType": "address",
          "name": "party0",
          "type": "address"
        },
        {
          "internalType": "address",
          "name": "party1",
          "type": "address"
        },
        {
          "internalType": "bytes32",
          "name": "ccy",
          "type": "bytes32"
        },
        {
          "internalType": "bytes32",
          "name": "dealId",
          "type": "bytes32"
        },
        {
          "internalType": "uint256[]",
          "name": "timestamps",
          "type": "uint256[]"
        },
        {
          "internalType": "uint256[]",
          "name": "payments0",
          "type": "uint256[]"
        },
        {
          "internalType": "uint256[]",
          "name": "payments1",
          "type": "uint256[]"
        }
      ],
      "name": "registerPayments",
      "outputs": [],
      "stateMutability": "nonpayable",
      "type": "function"
    },
    {
      "inputs": [
        {
          "internalType": "address",
          "name": "_user",
          "type": "address"
        }
      ],
      "name": "removePaymentAggregatorUser",
      "outputs": [
        {
          "internalType": "bool",
          "name": "",
          "type": "bool"
        }
      ],
      "stateMutability": "nonpayable",
      "type": "function"
    },
    {
      "inputs": [
        {
          "internalType": "address",
          "name": "party0",
          "type": "address"
        },
        {
          "internalType": "address",
          "name": "party1",
          "type": "address"
        },
        {
          "internalType": "bytes32",
          "name": "ccy",
          "type": "bytes32"
        },
        {
          "internalType": "bytes32",
          "name": "dealId",
          "type": "bytes32"
        },
        {
          "internalType": "uint256[]",
          "name": "timestamps",
          "type": "uint256[]"
        },
        {
          "internalType": "uint256[]",
          "name": "payments0",
          "type": "uint256[]"
        },
        {
          "internalType": "uint256[]",
          "name": "payments1",
          "type": "uint256[]"
        }
      ],
      "name": "removePayments",
      "outputs": [],
      "stateMutability": "nonpayable",
      "type": "function"
    },
    {
      "inputs": [
        {
          "internalType": "address",
          "name": "_contract",
          "type": "address"
        }
      ],
      "name": "setCloseOutNetting",
      "outputs": [],
      "stateMutability": "nonpayable",
      "type": "function"
    },
    {
      "inputs": [
        {
          "internalType": "address",
          "name": "_contract",
          "type": "address"
        }
      ],
      "name": "setMarkToMarket",
      "outputs": [],
      "stateMutability": "nonpayable",
      "type": "function"
    },
    {
      "inputs": [
        {
          "internalType": "address",
          "name": "_contract",
          "type": "address"
        }
      ],
      "name": "setSettlementEngine",
      "outputs": [],
      "stateMutability": "nonpayable",
      "type": "function"
    },
    {
      "inputs": [],
      "name": "settlementWindow",
      "outputs": [
        {
          "internalType": "uint256",
          "name": "",
          "type": "uint256"
        }
      ],
      "stateMutability": "view",
      "type": "function"
    },
    {
      "inputs": [
        {
          "internalType": "address",
          "name": "verifier",
          "type": "address"
        },
        {
          "internalType": "address",
          "name": "counterparty",
          "type": "address"
        },
        {
          "internalType": "bytes32",
          "name": "ccy",
          "type": "bytes32"
        },
        {
          "internalType": "uint256",
          "name": "timestamp",
          "type": "uint256"
        },
        {
          "internalType": "uint256",
          "name": "payment",
          "type": "uint256"
        },
        {
          "internalType": "bytes32",
          "name": "settlementId",
          "type": "bytes32"
        }
      ],
      "name": "verifyPayment",
      "outputs": [],
      "stateMutability": "nonpayable",
      "type": "function"
    }
  ],
  "transactionHash": "0xc93be27d9b35e6ea7f30efce0d5df81bdedbbfe4071fbf1ddf6b59849465ebd5",
  "args": [],
  "numDeployments": 1,
  "solcInputHash": "c547b2e6a239b041ee2d79dd0b62b5b6",
  "bytecode": "0x6080604052600260015534801561001557600080fd5b50600080546001600160a01b031916331790556124c6806100376000396000f3fe608060405234801561001057600080fd5b50600436106101165760003560e01c80638da5cb5b116100a2578063b73cdacd11610071578063b73cdacd1461025b578063d0cd64801461026e578063dff7f74414610281578063ee0474c214610294578063f67ed3f7146102a757610116565b80638da5cb5b1461020b578063955c873614610220578063b116a25914610233578063b4a7bdf91461024657610116565b80634f0f141c116100e95780634f0f141c1461018c578063690a6800146101ad57806375dc0d21146101c057806381dc26c7146101d3578063891e3721146101f857610116565b806306710fff1461011b578063117979f4146101305780632eb4602314610159578063393b6e1714610179575b600080fd5b61012e610129366004611c64565b6102ba565b005b61014361013e366004611c64565b61038c565b6040516101509190612050565b60405180910390f35b61016c610167366004611c7f565b61039f565b604051610150919061200c565b61012e610187366004611d91565b61046a565b61019f61019a366004611e4c565b610729565b604051610150929190611ff3565b6101436101bb366004611f66565b610749565b6101436101ce366004611e9a565b610764565b6101e66101e1366004611c7f565b6107a3565b6040516101509695949392919061244c565b61012e610206366004611c64565b6107d1565b61021361089a565b6040516101509190611f94565b61012e61022e366004611eaf565b6108a9565b6101e6610241366004611eaf565b610a36565b61024e610a6a565b6040516101509190612443565b61012e610269366004611cc2565b610a70565b61019f61027c366004611f05565b610d1f565b61014361028f366004611c64565b610d43565b6101436102a2366004611c64565b610d8d565b61012e6102b5366004611c64565b610e2c565b6000546001600160a01b031633146102d157600080fd5b806001600160a01b0381166103015760405162461bcd60e51b81526004016102f8906120f5565b60405180910390fd5b610313816001600160a01b0316610ef5565b61032f5760405162461bcd60e51b81526004016102f89061241d565b6005546040516001600160a01b038085169216907ff378eee4e3430742e191ff7fea453b7eeba44c869e8b2f2ba2653b129b7b864390600090a350600580546001600160a01b0319166001600160a01b0392909216919091179055565b6000610399600283610efb565b92915050565b606060006103ad8686610f17565b506000818152600860209081526040808320888452825280832087845290915281209192506103db82611025565b905060608167ffffffffffffffff811180156103f657600080fd5b50604051908082528060200260200182016040528015610420578160200160208202803683370190505b50905060005b8281101561045d57600061043a8583611030565b90508083838151811061044957fe5b602090810291909101015250600101610426565b5098975050505050505050565b610475600233610efb565b6104915760405162461bcd60e51b81526004016102f89061233d565b610499611a76565b6104a38888610f17565b50815260005b84518110156106ac578481815181106104be57fe5b6020026020010151600014156104d3576106a4565b6104ef8582815181106104e257fe5b602002602001015161103c565b60e0850181905260c0850182905260a0850183905261050f92919061105b565b60808301908152825160009081526008602090815260408083208b8452825280832093518352929052206105439087611091565b50600084828151811061055257fe5b602002602001015111156105905761058a84828151811061056f57fe5b6020026020010151836040015161109d90919063ffffffff16565b60408301525b600083828151811061059e57fe5b602002602001015111156105dc576105d68382815181106105bb57fe5b6020026020010151836060015161109d90919063ffffffff16565b60608301525b61061660078a8a8a86608001518987815181106105f557fe5b602002602001015189888151811061060957fe5b60200260200101516110c2565b876001600160a01b0316896001600160a01b03167f7e5ab2f9d27f1d9cb69c5757129eba9a1250928ade66885dc5caec90c4b7641b8985608001518660a001518760c001518860e001518b898151811061066c57fe5b60200260200101518b8a8151811061068057fe5b602002602001015160405161069b9796959493929190612083565b60405180910390a35b6001016104a9565b50600480546040808401516060850151915163ca2da52960e01b81526001600160a01b039093169363ca2da529936106ed938e938e938e9391929101611fc2565b600060405180830381600087803b15801561070757600080fd5b505af115801561071b573d6000803e3d6000fd5b505050505050505050505050565b60008061073b6007888888888861117c565b915091509550959350505050565b6000428161075782856111fc565b6001541015949350505050565b6000806000806107738561103c565b925092509250600061078684848461105b565b905061079660078a8a8a85611217565b9998505050505050505050565b6000806000806000806107ba60078b8b8b8b611259565b949f939e50919c509a509850909650945050505050565b6000546001600160a01b031633146107e857600080fd5b806001600160a01b03811661080f5760405162461bcd60e51b81526004016102f8906120f5565b610821816001600160a01b0316610ef5565b61083d5760405162461bcd60e51b81526004016102f89061241d565b6004546040516001600160a01b038085169216907fe6834f0ea4acfb5ea8ca76f27d2246c6359d96899ec53f5c4bc96e56dcd146ce90600090a350600480546001600160a01b0319166001600160a01b0392909216919091179055565b6000546001600160a01b031681565b6108b1611381565b6108cd5760405162461bcd60e51b81526004016102f890612269565b6108d683610749565b6108f25760405162461bcd60e51b81526004016102f8906123e6565b6108fa611ac3565b6020810183905260a081018290526001600160a01b038088166040830152861660608201526080810185905261092f8461103c565b610100840181905260e0840182905260c0840183905261095092919061105b565b808252604082015160608301516080840151602085015160a086015161097d956007959493929091611392565b80606001516001600160a01b031681604001516001600160a01b03167fcb48cecc076f9cad1de25f21319ce962ff151d316749e31680b49ed5e2c6fa53836080015184600001518560c001518660e0015187610100015188602001518960a001516040516109f19796959493929190612083565b60405180910390a3610a1760078260400151836060015184608001518560000151611217565b158015610160830152610a2d57610a2d8161151c565b50505050505050565b600080600080600080610a4f60078d8d8d8d8d8d6116d5565b95509550955095509550955096509650965096509650969050565b60015481565b610a7b600233610efb565b610a975760405162461bcd60e51b81526004016102f89061233d565b610a9f611a76565b610aa98b8b610f17565b50815260005b86811015610c8e57878782818110610ac357fe5b9050602002013560001415610ad757610c86565b610af2888883818110610ae657fe5b9050602002013561103c565b60e0850181905260c0850182905260a08501839052610b1292919061105b565b60808301908152825160009081526008602090815260408083208e845282528083209351835292905220610b46908a611731565b610b625760405162461bcd60e51b81526004016102f890612382565b610b8b868683818110610b7157fe5b90506020020135836040015161109d90919063ffffffff16565b6040830152610bb9848483818110610b9f57fe5b90506020020135836060015161109d90919063ffffffff16565b826060018181525050610bfa60078d8d8d86608001518b8b88818110610bdb57fe5b905060200201358a8a89818110610bee57fe5b9050602002013561173d565b8a6001600160a01b03168c6001600160a01b03167fc90213e03f0aa26b07d0e75565000d17a8ff1134595b78597d0f4c3cf51aee208c85608001518660a001518760c001518860e001518d8d8a818110610c5057fe5b905060200201358c8c8b818110610c6357fe5b90506020020135604051610c7d9796959493929190612083565b60405180910390a35b600101610aaf565b50600460009054906101000a90046001600160a01b03166001600160a01b0316638c9165b08c8c8c856040015186606001516040518663ffffffff1660e01b8152600401610ce0959493929190611fc2565b600060405180830381600087803b158015610cfa57600080fd5b505af1158015610d0e573d6000803e3d6000fd5b505050505050505050505050505050565b600080610d3360078a8a8a8a8a8a8a6117d1565b9150915097509795505050505050565b600080546001600160a01b03163314610d5b57600080fd5b610d66600283610efb565b610d825760405162461bcd60e51b81526004016102f8906122cf565b61039960028361181d565b600080546001600160a01b03163314610da557600080fd5b6001600160a01b038216610dcb5760405162461bcd60e51b81526004016102f890612243565b610ddd826001600160a01b0316610ef5565b610df95760405162461bcd60e51b81526004016102f890612298565b610e04600283610efb565b15610e215760405162461bcd60e51b81526004016102f8906123af565b610399600283611832565b6000546001600160a01b03163314610e4357600080fd5b806001600160a01b038116610e6a5760405162461bcd60e51b81526004016102f8906120f5565b610e7c816001600160a01b0316610ef5565b610e985760405162461bcd60e51b81526004016102f89061241d565b6006546040516001600160a01b038085169216907fa245849bf73ebdf50710da5ba1a476f522a747a35edb3359ab90c6a991ad8a4490600090a350600680546001600160a01b0319166001600160a01b0392909216919091179055565b3b151590565b6000610f10836001600160a01b038416611847565b9392505050565b600080826001600160a01b0316846001600160a01b03161415610f4c5760405162461bcd60e51b81526004016102f89061211e565b600080846001600160a01b0316866001600160a01b031610610f6f578486610f72565b85855b90925090506001600160a01b038216610f9d5760405162461bcd60e51b81526004016102f890612175565b856001600160a01b0316826001600160a01b031614610fec578181604051602001610fc9929190611fa8565b60405160208183030381529060405280519060200120600193509350505061101e565b8181604051602001610fff929190611fa8565b6040516020818303038152906040528051906020012060009350935050505b9250929050565b60006103998261185f565b6000610f108383611863565b6000808061104e6201518085046118a8565b9196909550909350915050565b600083838360405160200161107293929190611f7e565b6040516020818303038152906040528051906020012090509392505050565b6000610f10838361193e565b600082820183811015610f105760405162461bcd60e51b81526004016102f8906121d5565b6000806110cf8888610f17565b600082815260208c815260408083208b845282528083208a84529091529020600481015492945090925090610100900460ff161561111f5760405162461bcd60e51b81526004016102f89061219e565b81611135578054611130908661109d565b611141565b8054611141908561109d565b81558161115c576001810154611157908561109d565b61116b565b600181015461116b908661109d565b600190910155505050505050505050565b600080600061118b8888610f17565b50600081815260208b815260408083208a8452825280832089845290915290209091506111b6611b27565b5060009485526005016020908152604094859020855180870190965280546001600160a01b03168087526001909101549590910185905299939850929650505050505050565b60008183111561120b57600080fd5b50620151809190030490565b6000806112248686610f17565b5060009081526020978852604080822095825294885284812093815292909652502060040154610100900460ff169392505050565b60008060008060008060008061126f8c8c610f17565b9150915061127b611b3e565b50600082815260208e815260408083208d845282528083208c8452825291829020825160c081018452815481526001820154928101929092526002810154928201929092526003820154606082015260049091015460ff8082161515608084015261010090910416151560a082015281156112fc5780516020820180518352525b80516020820151111561132a578051602082015161131991611988565b604082015260016080820152611347565b6020810151815161133a91611988565b6040820152600060808201525b806000015181602001518260400151836060015184608001518560a001519850985098509850985098505050509550955095509550955095565b6006546001600160a01b0316331490565b60008061139f8888610f17565b600082815260208c815260408083208b845282528083208a84529091529020600481015492945090925090610100900460ff16156113ef5760405162461bcd60e51b81526004016102f89061219e565b6000821561143257815460018301541161141b5760405162461bcd60e51b81526004016102f890612306565b8154600183015461142b91611988565b9050611469565b60018201548254116114565760405162461bcd60e51b81526004016102f890612306565b6001820154825461146691611988565b90505b6003820154611478908761109d565b6003830181905581101561149e5760405162461bcd60e51b81526004016102f89061214b565b6114a6611b27565b60208181018881526001600160a01b038d811684526000898152600587019093526040909220835181546001600160a01b03191693169290921782555160019091015560038301546114f9908390611988565b61071b5760048301805461ff001916610100179055505050505050505050505050565b61154560078260400151836060015184608001518560c001518660e001518761010001516116d5565b505050506101408301526101208201526040810151606080830151608084015184519293611576939092919061039f565b60055460405163134a0f5760e21b81529192506001600160a01b031690634d283d5c906115a790849060040161200c565b600060405180830381600087803b1580156115c157600080fd5b505af11580156115d5573d6000803e3d6000fd5b505060048054604080870151606088015160808901516101208a01516101408b015194516308c9165b60e41b81526001600160a01b039096169850638c9165b0975061162996939592949193909201611fc2565b600060405180830381600087803b15801561164357600080fd5b505af1158015611657573d6000803e3d6000fd5b5050505081606001516001600160a01b031682604001516001600160a01b03167f60d5560fb6dcb96ba7b9e138a06d94234a893a7e79def188502193bf71bc4663846080015185600001518660c001518760e001518861010001518960a001516040516116c99695949392919061205b565b60405180910390a35050565b6000806000806000806117158d8d8d8d8d8d8d6040516020016116fa93929190611f7e565b60405160208183030381529060405280519060200120611259565b9550955095509550955095509750975097509750975097915050565b6000610f1083836119b0565b60008061174a8888610f17565b600082815260208c815260408083208b845282528083208a84529091529020600481015492945090925090610100900460ff161561178a57505050610a2d565b816117a057805461179b9086611988565b6117ac565b80546117ac9085611988565b8155816117c25760018101546111579085611988565b600181015461116b9086611988565b60008061180c8a8a8a8a8a8a8a6040516020016117f093929190611f7e565b604051602081830303815290604052805190602001208861117c565b915091509850989650505050505050565b6000610f10836001600160a01b0384166119b0565b6000610f10836001600160a01b03841661193e565b60009081526001919091016020526040902054151590565b5490565b815460009082106118865760405162461bcd60e51b81526004016102f8906120b3565b82600001828154811061189557fe5b9060005260206000200154905092915050565b60008080836226496581018262023ab1600483020590506004600362023ab18302010590910390600062164b09610fa0600185010205905060046105b58202058303601f019250600061098f84605002816118ff57fe5b0590506000605061098f83020585039050600b820560301994909401606402929092018301996002600c90940290910392909201975095509350505050565b600061194a8383611847565b61198057508154600181810184556000848152602080822090930184905584548482528286019093526040902091909155610399565b506000610399565b6000828211156119aa5760405162461bcd60e51b81526004016102f89061220c565b50900390565b60008181526001830160205260408120548015611a6c57835460001980830191908101906000908790839081106119e357fe5b9060005260206000200154905080876000018481548110611a0057fe5b600091825260208083209091019290925582815260018981019092526040902090840190558654879080611a3057fe5b60019003818190600052602060002001600090559055866001016000878152602001908152602001600020600090556001945050505050610399565b6000915050610399565b604051806101000160405280600080191681526020016000151581526020016000815260200160008152602001600080191681526020016000815260200160008152602001600081525090565b6040805161018081018252600080825260208201819052918101829052606081018290526080810182905260a0810182905260c0810182905260e0810182905261010081018290526101208101829052610140810182905261016081019190915290565b604080518082019091526000808252602082015290565b6040518060c00160405280600081526020016000815260200160008152602001600081526020016000151581526020016000151581525090565b80356001600160a01b038116811461039957600080fd5b60008083601f840112611ba0578182fd5b50813567ffffffffffffffff811115611bb7578182fd5b602083019150836020808302850101111561101e57600080fd5b600082601f830112611be1578081fd5b813567ffffffffffffffff80821115611bf8578283fd5b602080830260405182828201018181108582111715611c15578687fd5b604052848152945081850192508582018187018301881015611c3657600080fd5b600091505b84821015611c59578035845292820192600191909101908201611c3b565b505050505092915050565b600060208284031215611c75578081fd5b610f108383611b78565b60008060008060808587031215611c94578283fd5b611c9e8686611b78565b9350611cad8660208701611b78565b93969395505050506040820135916060013590565b60008060008060008060008060008060e08b8d031215611ce0578586fd5b611cea8c8c611b78565b9950611cf98c60208d01611b78565b985060408b0135975060608b0135965060808b013567ffffffffffffffff80821115611d23578788fd5b611d2f8e838f01611b8f565b909850965060a08d0135915080821115611d47578586fd5b611d538e838f01611b8f565b909650945060c08d0135915080821115611d6b578384fd5b50611d788d828e01611b8f565b915080935050809150509295989b9194979a5092959850565b600080600080600080600060e0888a031215611dab578283fd5b611db58989611b78565b9650611dc48960208a01611b78565b95506040880135945060608801359350608088013567ffffffffffffffff80821115611dee578485fd5b611dfa8b838c01611bd1565b945060a08a0135915080821115611e0f578384fd5b611e1b8b838c01611bd1565b935060c08a0135915080821115611e30578283fd5b50611e3d8a828b01611bd1565b91505092959891949750929550565b600080600080600060a08688031215611e63578081fd5b611e6d8787611b78565b9450611e7c8760208801611b78565b94979496505050506040830135926060810135926080909101359150565b60008060008060808587031215611c94578384fd5b60008060008060008060c08789031215611ec7578182fd5b611ed18888611b78565b9550611ee08860208901611b78565b95989597505050506040840135936060810135936080820135935060a0909101359150565b600080600080600080600060e0888a031215611f1f578081fd5b8735611f2a81612478565b96506020880135611f3a81612478565b96999698505050506040850135946060810135946080820135945060a0820135935060c0909101359150565b600060208284031215611f77578081fd5b5035919050565b9283526020830191909152604082015260600190565b6001600160a01b0391909116815260200190565b6001600160a01b0392831681529116602082015260400190565b6001600160a01b03958616815293909416602084015260408301919091526060820152608081019190915260a00190565b6001600160a01b03929092168252602082015260400190565b6020808252825182820181905260009190848201906040850190845b8181101561204457835183529284019291840191600101612028565b50909695505050505050565b901515815260200190565b958652602086019490945260408501929092526060840152608083015260a082015260c00190565b968752602087019590955260408601939093526060850191909152608084015260a083015260c082015260e00190565b60208082526022908201527f456e756d657261626c655365743a20696e646578206f7574206f6620626f756e604082015261647360f01b606082015260800190565b6020808252600f908201526e494e56414c49445f4144445245535360881b604082015260600190565b6020808252601390820152724964656e746963616c2061646472657373657360681b604082015260600190565b60208082526010908201526f5061796d656e74206f766572666c6f7760801b604082015260600190565b6020808252600f908201526e496e76616c6964206164647265737360881b604082015260600190565b60208082526018908201527f54494d45534c4f5420534554544c454420414c52454144590000000000000000604082015260600190565b6020808252601b908201527f536166654d6174683a206164646974696f6e206f766572666c6f770000000000604082015260600190565b6020808252601e908201527f536166654d6174683a207375627472616374696f6e206f766572666c6f770000604082015260600190565b6020808252600c908201526b5a65726f206164647265737360a01b604082015260600190565b6020808252601590820152744e4f545f534554544c454d454e545f454e47494e4560581b604082015260600190565b6020808252601e908201527f43616e277420616464206e6f6e2d636f6e747261637420616464726573730000604082015260600190565b6020808252601e908201527f43616e27742072656d6f7665206e6f6e2d6578697374696e6720757365720000604082015260600190565b6020808252601c908201527f496e636f727265637420766572696669636174696f6e20706172747900000000604082015260600190565b60208082526025908201527f6e6f7420616c6c6f77656420746f20757365207061796d656e7420616767726560408201526433b0ba37b960d91b606082015260800190565b6020808252601390820152721393d397d49151d254d51154915117d1115053606a1b604082015260600190565b6020808252601a908201527f43616e277420616464206578697374696e672061646472657373000000000000604082015260600190565b60208082526018908201527f4f55545f4f465f534554544c454d454e545f57494e444f570000000000000000604082015260600190565b6020808252600c908201526b1393d517d0d3d395149050d560a21b604082015260600190565b90815260200190565b95865260208601949094526040850192909252606084015215156080830152151560a082015260c00190565b6001600160a01b038116811461248d57600080fd5b5056fea2646970667358221220b6124e2555086d45d8a8c0b2acf97cfea35cdf1f28b1c4d18eab708eee61efcc64736f6c634300060c0033",
  "devdoc": {
    "kind": "dev",
    "methods": {
      "addPaymentAggregatorUser(address)": {
        "details": "Trigers to add contract address to payment aggregator users address set",
        "params": {
          "_user": "Payment aggregator user smart contract address"
        }
      },
      "checkSettlementWindow(uint256)": {
        "details": "Internal function to check if settlement payment is within available timeline",
        "params": {
          "targetTime": "target time for settlement of time slot"
        },
        "returns": {
          "_0": "Boolean if slot within the settlement window"
        }
      },
      "constructor": {
        "details": "Contract constructor function."
      },
      "getTimeSlotByDate(address,address,bytes32,uint256,uint256,uint256)": {
        "details": "Returns the time slot between parties using slot id.",
        "params": {
          "ccy": "Main payment settlement currency",
          "party0": "First counterparty address",
          "party1": "Second counterparty address"
        }
      },
      "getTimeSlotBySlotId(address,address,bytes32,bytes32)": {
        "details": "Returns the time slot between parties using slot id.",
        "params": {
          "ccy": "Main payment settlement currency",
          "party0": "First counterparty address",
          "party1": "Second counterparty address",
          "slot": "TimeSlot position"
        }
      },
      "getTimeSlotPaymentConfirmation(address,address,bytes32,uint256,uint256,uint256,bytes32)": {
        "details": "Returns the time slot between parties using slot id.",
        "params": {
          "ccy": "Main payment settlement currency",
          "day": "Calendar day of the settlement",
          "month": "Calendar month of the settlement",
          "party0": "First counterparty address",
          "party1": "Second counterparty address",
          "settlementId": "Settlement payment confirmation identifier",
          "year": "Calendar year of the settlement"
        }
      },
      "getTimeSlotPaymentConfirmationById(address,address,bytes32,bytes32,bytes32)": {
        "details": "Returns the time slot between parties using slot id.",
        "params": {
          "ccy": "Main payment settlement currency",
          "party0": "First counterparty address",
          "party1": "Second counterparty address",
          "settlementId": "Settlement payment confirmation identifier",
          "slot": "TimeSlot position"
        }
      },
      "isPaymentAggregatorUser(address)": {
        "details": "Trigers to check if provided `addr` is a payment aggregator user from address set",
        "params": {
          "_user": "Contract address to check if it's a payment aggregator user"
        }
      },
      "isSettled(address,address,bytes32,uint256)": {
        "details": "Triggers settlement status of the time slot",
        "params": {
          "ccy": "Main payment settlement currency",
          "party0": "First counterparty address",
          "party1": "Second counterparty address",
          "timestamp": "TimeSlot timestamp"
        },
        "returns": {
          "status": "Boolean if slot was settled"
        }
      },
      "registerPayments(address,address,bytes32,bytes32,uint256[],uint256[],uint256[])": {
        "details": "Triggered to add new payments for a deal",
        "params": {
          "ccy": "Main settlement currency in a deal",
          "dealId": "Deal unique ID with prefix",
          "party0": "First counterparty address",
          "party1": "Second counterparty address",
          "payments0": "Array of cashflows owed by the first party",
          "payments1": "Array of cashflows owed by the second party",
          "timestamps": "Array of timestamps for timeslot identification"
        }
      },
      "removePaymentAggregatorUser(address)": {
        "details": "Trigers to remove payment aggregator user from address set",
        "params": {
          "_user": "Payment aggregator user smart contract address"
        }
      },
      "removePayments(address,address,bytes32,bytes32,uint256[],uint256[],uint256[])": {
        "details": "Triggered to remove existing payments for a deal",
        "params": {
          "ccy": "Main settlement currency in a deal",
          "dealId": "Deal unique ID with prefix",
          "party0": "First counterparty address",
          "party1": "Second counterparty address",
          "payments0": "Array of cashflows owed by the first party",
          "payments1": "Array of cashflows owed by the second party",
          "timestamps": "Array of timestamps for timeslot identification"
        }
      },
      "setCloseOutNetting(address)": {
        "details": "Trigers to set close out netting smart contract",
        "params": {
          "_contract": "CloseOutNetting smart contract address"
        }
      },
      "setMarkToMarket(address)": {
        "details": "Trigers to set mark to market smart contract",
        "params": {
          "_contract": "MarkToMarket smart contract address"
        }
      },
      "verifyPayment(address,address,bytes32,uint256,uint256,bytes32)": {
        "details": "External function to verify payment by msg.sender, uses timestamp to identify TimeSlot.",
        "params": {
          "ccy": "Main payment settlement currency",
          "counterparty": "Counterparty address",
          "payment": "Main payment settlement currency",
          "settlementId": "Main payment settlement id",
          "timestamp": "Main timestamp for TimeSlot",
          "verifier": "Payment verifier address"
        }
      }
    },
    "title": "Payment Aggregator contract is used to aggregate payments between counterparties in bilateral relationships. Those payments are defined per counterparties addresses (packed into one bytes32), main settlement currency and payment date. Contract linked to all product based contracts like Loan, Swap, etc.",
    "version": 1
  },
  "userdoc": {
    "kind": "user",
    "methods": {
      "addPaymentAggregatorUser(address)": {
        "notice": "Trigers only be contract ownerReverts on saving 0x0 address"
      },
      "constructor": "sets contract deployer as owner of this contract",
      "removePaymentAggregatorUser(address)": {
        "notice": "Trigers only be contract ownerReverts on removing non-existing payment aggregator user"
      },
      "setCloseOutNetting(address)": {
        "notice": "Trigers only be contract ownerReverts on saving 0x0 address"
      },
      "setMarkToMarket(address)": {
        "notice": "Trigers only be contract ownerReverts on saving 0x0 address"
      }
    },
    "version": 1
  },
  "storageLayout": {
    "storage": [
      {
        "astId": 17680,
        "contract": "contracts/PaymentAggregator.sol:PaymentAggregator",
        "label": "owner",
        "offset": 0,
        "slot": "0",
        "type": "t_address"
      },
      {
        "astId": 17684,
        "contract": "contracts/PaymentAggregator.sol:PaymentAggregator",
        "label": "settlementWindow",
        "offset": 0,
        "slot": "1",
        "type": "t_uint256"
      },
      {
        "astId": 17689,
        "contract": "contracts/PaymentAggregator.sol:PaymentAggregator",
        "label": "paymentAggregatorUsers",
        "offset": 0,
        "slot": "2",
        "type": "t_struct(AddressSet)1812_storage"
      },
      {
        "astId": 17691,
        "contract": "contracts/PaymentAggregator.sol:PaymentAggregator",
        "label": "closeOutNetting",
        "offset": 0,
        "slot": "4",
        "type": "t_contract(ICloseOutNetting)20634"
      },
      {
        "astId": 17693,
        "contract": "contracts/PaymentAggregator.sol:PaymentAggregator",
        "label": "markToMarket",
        "offset": 0,
        "slot": "5",
        "type": "t_contract(IMarkToMarket)22896"
      },
      {
        "astId": 17695,
        "contract": "contracts/PaymentAggregator.sol:PaymentAggregator",
        "label": "settlementEngine",
        "offset": 0,
        "slot": "6",
        "type": "t_contract(ISettlementEngine)23563"
      },
      {
        "astId": 17703,
        "contract": "contracts/PaymentAggregator.sol:PaymentAggregator",
        "label": "_timeSlots",
        "offset": 0,
        "slot": "7",
        "type": "t_mapping(t_bytes32,t_mapping(t_bytes32,t_mapping(t_bytes32,t_struct(Slot)32873_storage)))"
      },
      {
        "astId": 17711,
        "contract": "contracts/PaymentAggregator.sol:PaymentAggregator",
        "label": "deals",
        "offset": 0,
        "slot": "8",
        "type": "t_mapping(t_bytes32,t_mapping(t_bytes32,t_mapping(t_bytes32,t_struct(Bytes32Set)1727_storage)))"
      }
    ],
    "types": {
      "t_address": {
        "encoding": "inplace",
        "label": "address",
        "numberOfBytes": "20"
      },
      "t_array(t_bytes32)dyn_storage": {
        "base": "t_bytes32",
        "encoding": "dynamic_array",
        "label": "bytes32[]",
        "numberOfBytes": "32"
      },
      "t_bool": {
        "encoding": "inplace",
        "label": "bool",
        "numberOfBytes": "1"
      },
      "t_bytes32": {
        "encoding": "inplace",
        "label": "bytes32",
        "numberOfBytes": "32"
      },
      "t_contract(ICloseOutNetting)20634": {
        "encoding": "inplace",
        "label": "contract ICloseOutNetting",
        "numberOfBytes": "20"
      },
      "t_contract(IMarkToMarket)22896": {
        "encoding": "inplace",
        "label": "contract IMarkToMarket",
        "numberOfBytes": "20"
      },
      "t_contract(ISettlementEngine)23563": {
        "encoding": "inplace",
        "label": "contract ISettlementEngine",
        "numberOfBytes": "20"
      },
      "t_mapping(t_bytes32,t_mapping(t_bytes32,t_mapping(t_bytes32,t_struct(Bytes32Set)1727_storage)))": {
        "encoding": "mapping",
        "key": "t_bytes32",
        "label": "mapping(bytes32 => mapping(bytes32 => mapping(bytes32 => struct EnumerableSet.Bytes32Set)))",
        "numberOfBytes": "32",
        "value": "t_mapping(t_bytes32,t_mapping(t_bytes32,t_struct(Bytes32Set)1727_storage))"
      },
      "t_mapping(t_bytes32,t_mapping(t_bytes32,t_mapping(t_bytes32,t_struct(Slot)32873_storage)))": {
        "encoding": "mapping",
        "key": "t_bytes32",
        "label": "mapping(bytes32 => mapping(bytes32 => mapping(bytes32 => struct TimeSlot.Slot)))",
        "numberOfBytes": "32",
        "value": "t_mapping(t_bytes32,t_mapping(t_bytes32,t_struct(Slot)32873_storage))"
      },
      "t_mapping(t_bytes32,t_mapping(t_bytes32,t_struct(Bytes32Set)1727_storage))": {
        "encoding": "mapping",
        "key": "t_bytes32",
        "label": "mapping(bytes32 => mapping(bytes32 => struct EnumerableSet.Bytes32Set))",
        "numberOfBytes": "32",
        "value": "t_mapping(t_bytes32,t_struct(Bytes32Set)1727_storage)"
      },
      "t_mapping(t_bytes32,t_mapping(t_bytes32,t_struct(Slot)32873_storage))": {
        "encoding": "mapping",
        "key": "t_bytes32",
        "label": "mapping(bytes32 => mapping(bytes32 => struct TimeSlot.Slot))",
        "numberOfBytes": "32",
        "value": "t_mapping(t_bytes32,t_struct(Slot)32873_storage)"
      },
      "t_mapping(t_bytes32,t_struct(Bytes32Set)1727_storage)": {
        "encoding": "mapping",
        "key": "t_bytes32",
        "label": "mapping(bytes32 => struct EnumerableSet.Bytes32Set)",
        "numberOfBytes": "32",
        "value": "t_struct(Bytes32Set)1727_storage"
      },
      "t_mapping(t_bytes32,t_struct(PaymentConfirmation)32878_storage)": {
        "encoding": "mapping",
        "key": "t_bytes32",
        "label": "mapping(bytes32 => struct TimeSlot.PaymentConfirmation)",
        "numberOfBytes": "32",
        "value": "t_struct(PaymentConfirmation)32878_storage"
      },
      "t_mapping(t_bytes32,t_struct(Slot)32873_storage)": {
        "encoding": "mapping",
        "key": "t_bytes32",
        "label": "mapping(bytes32 => struct TimeSlot.Slot)",
        "numberOfBytes": "32",
        "value": "t_struct(Slot)32873_storage"
      },
      "t_mapping(t_bytes32,t_uint256)": {
        "encoding": "mapping",
        "key": "t_bytes32",
        "label": "mapping(bytes32 => uint256)",
        "numberOfBytes": "32",
        "value": "t_uint256"
      },
      "t_struct(AddressSet)1812_storage": {
        "encoding": "inplace",
        "label": "struct EnumerableSet.AddressSet",
        "members": [
          {
            "astId": 1811,
            "contract": "contracts/PaymentAggregator.sol:PaymentAggregator",
            "label": "_inner",
            "offset": 0,
            "slot": "0",
            "type": "t_struct(Set)1547_storage"
          }
        ],
        "numberOfBytes": "64"
      },
      "t_struct(Bytes32Set)1727_storage": {
        "encoding": "inplace",
        "label": "struct EnumerableSet.Bytes32Set",
        "members": [
          {
            "astId": 1726,
            "contract": "contracts/PaymentAggregator.sol:PaymentAggregator",
            "label": "_inner",
            "offset": 0,
            "slot": "0",
            "type": "t_struct(Set)1547_storage"
          }
        ],
        "numberOfBytes": "64"
      },
      "t_struct(PaymentConfirmation)32878_storage": {
        "encoding": "inplace",
        "label": "struct TimeSlot.PaymentConfirmation",
        "members": [
          {
            "astId": 32875,
            "contract": "contracts/PaymentAggregator.sol:PaymentAggregator",
            "label": "verificationParty",
            "offset": 0,
            "slot": "0",
            "type": "t_address"
          },
          {
            "astId": 32877,
            "contract": "contracts/PaymentAggregator.sol:PaymentAggregator",
            "label": "amount",
            "offset": 0,
            "slot": "1",
            "type": "t_uint256"
          }
        ],
        "numberOfBytes": "64"
      },
      "t_struct(Set)1547_storage": {
        "encoding": "inplace",
        "label": "struct EnumerableSet.Set",
        "members": [
          {
            "astId": 1542,
            "contract": "contracts/PaymentAggregator.sol:PaymentAggregator",
            "label": "_values",
            "offset": 0,
            "slot": "0",
            "type": "t_array(t_bytes32)dyn_storage"
          },
          {
            "astId": 1546,
            "contract": "contracts/PaymentAggregator.sol:PaymentAggregator",
            "label": "_indexes",
            "offset": 0,
            "slot": "1",
            "type": "t_mapping(t_bytes32,t_uint256)"
          }
        ],
        "numberOfBytes": "64"
      },
      "t_struct(Slot)32873_storage": {
        "encoding": "inplace",
        "label": "struct TimeSlot.Slot",
        "members": [
          {
            "astId": 32858,
            "contract": "contracts/PaymentAggregator.sol:PaymentAggregator",
            "label": "totalPayment0",
            "offset": 0,
            "slot": "0",
            "type": "t_uint256"
          },
          {
            "astId": 32860,
            "contract": "contracts/PaymentAggregator.sol:PaymentAggregator",
            "label": "totalPayment1",
            "offset": 0,
            "slot": "1",
            "type": "t_uint256"
          },
          {
            "astId": 32862,
            "contract": "contracts/PaymentAggregator.sol:PaymentAggregator",
            "label": "netPayment",
            "offset": 0,
            "slot": "2",
            "type": "t_uint256"
          },
          {
            "astId": 32864,
            "contract": "contracts/PaymentAggregator.sol:PaymentAggregator",
            "label": "paidAmount",
            "offset": 0,
            "slot": "3",
            "type": "t_uint256"
          },
          {
            "astId": 32866,
            "contract": "contracts/PaymentAggregator.sol:PaymentAggregator",
            "label": "flipped",
            "offset": 0,
            "slot": "4",
            "type": "t_bool"
          },
          {
            "astId": 32868,
            "contract": "contracts/PaymentAggregator.sol:PaymentAggregator",
            "label": "isSettled",
            "offset": 1,
            "slot": "4",
            "type": "t_bool"
          },
          {
            "astId": 32872,
            "contract": "contracts/PaymentAggregator.sol:PaymentAggregator",
            "label": "confirmations",
            "offset": 0,
            "slot": "5",
            "type": "t_mapping(t_bytes32,t_struct(PaymentConfirmation)32878_storage)"
          }
        ],
        "numberOfBytes": "192"
      },
      "t_uint256": {
        "encoding": "inplace",
        "label": "uint256",
        "numberOfBytes": "32"
      }
    }
  }
}