{
  "address": "0xccc71122dAe468F3B629e88DC349974281dbD914",
  "abi": [
    {
      "inputs": [
        {
          "internalType": "uint256[]",
          "name": "data",
          "type": "uint256[]"
        }
      ],
      "name": "sort",
      "outputs": [
        {
          "internalType": "uint256[]",
          "name": "",
          "type": "uint256[]"
        }
      ],
      "stateMutability": "pure",
      "type": "function"
    }
  ],
  "transactionHash": "0x34314683f8d8084e3f035775592c92807a8bff6ab42154d7b3f31deac91c8c5b",
  "args": [],
  "numDeployments": 1,
  "solcInputHash": "c547b2e6a239b041ee2d79dd0b62b5b6",
  "bytecode": "0x61029e610026600b82828239805160001a60731461001957fe5b30600052607381538281f3fe73000000000000000000000000000000000000000030146080604052600436106100355760003560e01c80639ec8b0261461003a575b600080fd5b6100dd6004803603602081101561005057600080fd5b81019060208101813564010000000081111561006b57600080fd5b82018360208201111561007d57600080fd5b8035906020019184602083028401116401000000008311171561009f57600080fd5b91908080602002602001604051908101604052809392919081815260200183836020028082843760009201919091525092955061012d945050505050565b60408051602080825283518183015283519192839290830191858101910280838360005b83811015610119578181015183820152602001610101565b505050509050019250505060405180910390f35b606061013f8260006001855103610143565b5090565b818180821415610154575050610263565b60008560028686030586018151811061016957fe5b602002602001015190505b818313610239575b8086848151811061018957fe5b602002602001015110156101a25760019092019161017c565b8582815181106101ae57fe5b60200260200101518110156101c957600019909101906101a2565b818313610234578582815181106101dc57fe5b60200260200101518684815181106101f057fe5b602002602001015187858151811061020457fe5b6020026020010188858151811061021757fe5b602090810291909101019190915252600190920191600019909101905b610174565b8185121561024c5761024c868684610143565b8383121561025f5761025f868486610143565b5050505b50505056fea264697066735822122031e0d88d7492028bdf2a9ca0aec35d0fa6446820b992240341f11c955841dd4264736f6c634300060c0033",
  "devdoc": {
    "kind": "dev",
    "methods": {},
    "version": 1
  },
  "userdoc": {
    "kind": "user",
    "methods": {},
    "version": 1
  },
  "storageLayout": {
    "storage": [],
    "types": null
  }
}