{
  "contractName": "FXMarket",
  "abi": [
    {
      "anonymous": false,
      "inputs": [
        {
          "indexed": true,
          "internalType": "address",
          "name": "sender",
          "type": "address"
        }
      ],
      "name": "DelFXBook",
      "type": "event"
    },
    {
      "anonymous": false,
      "inputs": [
        {
          "indexed": true,
          "internalType": "address",
          "name": "sender",
          "type": "address"
        }
      ],
      "name": "DelOneItem",
      "type": "event"
    },
    {
      "anonymous": false,
      "inputs": [
        {
          "indexed": true,
          "internalType": "address",
          "name": "sender",
          "type": "address"
        }
      ],
      "name": "SetFXBook",
      "type": "event"
    },
    {
      "inputs": [],
      "name": "getMarketMakers",
      "outputs": [
        {
          "internalType": "address[]",
          "name": "",
          "type": "address[]"
        }
      ],
      "stateMutability": "view",
      "type": "function",
      "constant": true
    },
    {
      "inputs": [
        {
          "internalType": "enum FXMarket.CcyPair",
          "name": "pair",
          "type": "uint8"
        },
        {
          "components": [
            {
              "internalType": "enum FXMarket.Ccy",
              "name": "ccyBuy",
              "type": "uint8"
            },
            {
              "internalType": "enum FXMarket.Ccy",
              "name": "ccySell",
              "type": "uint8"
            },
            {
              "internalType": "uint256",
              "name": "amtBuy",
              "type": "uint256"
            },
            {
              "internalType": "uint256",
              "name": "amtSell",
              "type": "uint256"
            }
          ],
          "internalType": "struct FXMarket.FXInput",
          "name": "offerInput",
          "type": "tuple"
        },
        {
          "components": [
            {
              "internalType": "enum FXMarket.Ccy",
              "name": "ccyBuy",
              "type": "uint8"
            },
            {
              "internalType": "enum FXMarket.Ccy",
              "name": "ccySell",
              "type": "uint8"
            },
            {
              "internalType": "uint256",
              "name": "amtBuy",
              "type": "uint256"
            },
            {
              "internalType": "uint256",
              "name": "amtSell",
              "type": "uint256"
            }
          ],
          "internalType": "struct FXMarket.FXInput",
          "name": "bidInput",
          "type": "tuple"
        },
        {
          "internalType": "uint256",
          "name": "effectiveSec",
          "type": "uint256"
        }
      ],
      "name": "setFXBook",
      "outputs": [],
      "stateMutability": "nonpayable",
      "type": "function"
    },
    {
      "inputs": [],
      "name": "delFXBook",
      "outputs": [],
      "stateMutability": "nonpayable",
      "type": "function"
    },
    {
      "inputs": [
        {
          "internalType": "address",
          "name": "addr",
          "type": "address"
        },
        {
          "internalType": "enum FXMarket.Side",
          "name": "side",
          "type": "uint8"
        },
        {
          "internalType": "enum FXMarket.CcyPair",
          "name": "pair",
          "type": "uint8"
        }
      ],
      "name": "delOneItem",
      "outputs": [],
      "stateMutability": "nonpayable",
      "type": "function"
    },
    {
      "inputs": [
        {
          "internalType": "address",
          "name": "addr",
          "type": "address"
        },
        {
          "internalType": "enum FXMarket.Side",
          "name": "side",
          "type": "uint8"
        },
        {
          "internalType": "enum FXMarket.CcyPair",
          "name": "pair",
          "type": "uint8"
        }
      ],
      "name": "getOneItem",
      "outputs": [
        {
          "components": [
            {
              "internalType": "enum FXMarket.CcyPair",
              "name": "pair",
              "type": "uint8"
            },
            {
              "internalType": "enum FXMarket.Ccy",
              "name": "ccyBuy",
              "type": "uint8"
            },
            {
              "internalType": "enum FXMarket.Ccy",
              "name": "ccySell",
              "type": "uint8"
            },
            {
              "internalType": "uint256",
              "name": "amtBuy",
              "type": "uint256"
            },
            {
              "internalType": "uint256",
              "name": "amtSell",
              "type": "uint256"
            },
            {
              "internalType": "uint256",
              "name": "rate",
              "type": "uint256"
            },
            {
              "internalType": "uint256",
              "name": "goodtil",
              "type": "uint256"
            },
            {
              "internalType": "bool",
              "name": "isAvailable",
              "type": "bool"
            },
            {
              "internalType": "address",
              "name": "addr",
              "type": "address"
            }
          ],
          "internalType": "struct FXMarket.FXItem",
          "name": "",
          "type": "tuple"
        }
      ],
      "stateMutability": "view",
      "type": "function",
      "constant": true
    },
    {
      "inputs": [
        {
          "internalType": "address",
          "name": "addr",
          "type": "address"
        }
      ],
      "name": "getOneBook",
      "outputs": [
        {
          "components": [
            {
              "components": [
                {
                  "internalType": "enum FXMarket.CcyPair",
                  "name": "pair",
                  "type": "uint8"
                },
                {
                  "internalType": "enum FXMarket.Ccy",
                  "name": "ccyBuy",
                  "type": "uint8"
                },
                {
                  "internalType": "enum FXMarket.Ccy",
                  "name": "ccySell",
                  "type": "uint8"
                },
                {
                  "internalType": "uint256",
                  "name": "amtBuy",
                  "type": "uint256"
                },
                {
                  "internalType": "uint256",
                  "name": "amtSell",
                  "type": "uint256"
                },
                {
                  "internalType": "uint256",
                  "name": "rate",
                  "type": "uint256"
                },
                {
                  "internalType": "uint256",
                  "name": "goodtil",
                  "type": "uint256"
                },
                {
                  "internalType": "bool",
                  "name": "isAvailable",
                  "type": "bool"
                },
                {
                  "internalType": "address",
                  "name": "addr",
                  "type": "address"
                }
              ],
              "internalType": "struct FXMarket.FXItem[1]",
              "name": "bids",
              "type": "tuple[1]"
            },
            {
              "components": [
                {
                  "internalType": "enum FXMarket.CcyPair",
                  "name": "pair",
                  "type": "uint8"
                },
                {
                  "internalType": "enum FXMarket.Ccy",
                  "name": "ccyBuy",
                  "type": "uint8"
                },
                {
                  "internalType": "enum FXMarket.Ccy",
                  "name": "ccySell",
                  "type": "uint8"
                },
                {
                  "internalType": "uint256",
                  "name": "amtBuy",
                  "type": "uint256"
                },
                {
                  "internalType": "uint256",
                  "name": "amtSell",
                  "type": "uint256"
                },
                {
                  "internalType": "uint256",
                  "name": "rate",
                  "type": "uint256"
                },
                {
                  "internalType": "uint256",
                  "name": "goodtil",
                  "type": "uint256"
                },
                {
                  "internalType": "bool",
                  "name": "isAvailable",
                  "type": "bool"
                },
                {
                  "internalType": "address",
                  "name": "addr",
                  "type": "address"
                }
              ],
              "internalType": "struct FXMarket.FXItem[1]",
              "name": "offers",
              "type": "tuple[1]"
            },
            {
              "internalType": "bool",
              "name": "isValue",
              "type": "bool"
            }
          ],
          "internalType": "struct FXMarket.FXBook",
          "name": "",
          "type": "tuple"
        }
      ],
      "stateMutability": "view",
      "type": "function",
      "constant": true
    },
    {
      "inputs": [],
      "name": "getAllBooks",
      "outputs": [
        {
          "components": [
            {
              "components": [
                {
                  "internalType": "enum FXMarket.CcyPair",
                  "name": "pair",
                  "type": "uint8"
                },
                {
                  "internalType": "enum FXMarket.Ccy",
                  "name": "ccyBuy",
                  "type": "uint8"
                },
                {
                  "internalType": "enum FXMarket.Ccy",
                  "name": "ccySell",
                  "type": "uint8"
                },
                {
                  "internalType": "uint256",
                  "name": "amtBuy",
                  "type": "uint256"
                },
                {
                  "internalType": "uint256",
                  "name": "amtSell",
                  "type": "uint256"
                },
                {
                  "internalType": "uint256",
                  "name": "rate",
                  "type": "uint256"
                },
                {
                  "internalType": "uint256",
                  "name": "goodtil",
                  "type": "uint256"
                },
                {
                  "internalType": "bool",
                  "name": "isAvailable",
                  "type": "bool"
                },
                {
                  "internalType": "address",
                  "name": "addr",
                  "type": "address"
                }
              ],
              "internalType": "struct FXMarket.FXItem[1]",
              "name": "bids",
              "type": "tuple[1]"
            },
            {
              "components": [
                {
                  "internalType": "enum FXMarket.CcyPair",
                  "name": "pair",
                  "type": "uint8"
                },
                {
                  "internalType": "enum FXMarket.Ccy",
                  "name": "ccyBuy",
                  "type": "uint8"
                },
                {
                  "internalType": "enum FXMarket.Ccy",
                  "name": "ccySell",
                  "type": "uint8"
                },
                {
                  "internalType": "uint256",
                  "name": "amtBuy",
                  "type": "uint256"
                },
                {
                  "internalType": "uint256",
                  "name": "amtSell",
                  "type": "uint256"
                },
                {
                  "internalType": "uint256",
                  "name": "rate",
                  "type": "uint256"
                },
                {
                  "internalType": "uint256",
                  "name": "goodtil",
                  "type": "uint256"
                },
                {
                  "internalType": "bool",
                  "name": "isAvailable",
                  "type": "bool"
                },
                {
                  "internalType": "address",
                  "name": "addr",
                  "type": "address"
                }
              ],
              "internalType": "struct FXMarket.FXItem[1]",
              "name": "offers",
              "type": "tuple[1]"
            },
            {
              "internalType": "bool",
              "name": "isValue",
              "type": "bool"
            }
          ],
          "internalType": "struct FXMarket.FXBook[]",
          "name": "",
          "type": "tuple[]"
        }
      ],
      "stateMutability": "view",
      "type": "function",
      "constant": true
    },
    {
      "inputs": [],
      "name": "getBestBook",
      "outputs": [
        {
          "components": [
            {
              "components": [
                {
                  "internalType": "enum FXMarket.CcyPair",
                  "name": "pair",
                  "type": "uint8"
                },
                {
                  "internalType": "enum FXMarket.Ccy",
                  "name": "ccyBuy",
                  "type": "uint8"
                },
                {
                  "internalType": "enum FXMarket.Ccy",
                  "name": "ccySell",
                  "type": "uint8"
                },
                {
                  "internalType": "uint256",
                  "name": "amtBuy",
                  "type": "uint256"
                },
                {
                  "internalType": "uint256",
                  "name": "amtSell",
                  "type": "uint256"
                },
                {
                  "internalType": "uint256",
                  "name": "rate",
                  "type": "uint256"
                },
                {
                  "internalType": "uint256",
                  "name": "goodtil",
                  "type": "uint256"
                },
                {
                  "internalType": "bool",
                  "name": "isAvailable",
                  "type": "bool"
                },
                {
                  "internalType": "address",
                  "name": "addr",
                  "type": "address"
                }
              ],
              "internalType": "struct FXMarket.FXItem[1]",
              "name": "bids",
              "type": "tuple[1]"
            },
            {
              "components": [
                {
                  "internalType": "enum FXMarket.CcyPair",
                  "name": "pair",
                  "type": "uint8"
                },
                {
                  "internalType": "enum FXMarket.Ccy",
                  "name": "ccyBuy",
                  "type": "uint8"
                },
                {
                  "internalType": "enum FXMarket.Ccy",
                  "name": "ccySell",
                  "type": "uint8"
                },
                {
                  "internalType": "uint256",
                  "name": "amtBuy",
                  "type": "uint256"
                },
                {
                  "internalType": "uint256",
                  "name": "amtSell",
                  "type": "uint256"
                },
                {
                  "internalType": "uint256",
                  "name": "rate",
                  "type": "uint256"
                },
                {
                  "internalType": "uint256",
                  "name": "goodtil",
                  "type": "uint256"
                },
                {
                  "internalType": "bool",
                  "name": "isAvailable",
                  "type": "bool"
                },
                {
                  "internalType": "address",
                  "name": "addr",
                  "type": "address"
                }
              ],
              "internalType": "struct FXMarket.FXItem[1]",
              "name": "offers",
              "type": "tuple[1]"
            },
            {
              "internalType": "bool",
              "name": "isValue",
              "type": "bool"
            }
          ],
          "internalType": "struct FXMarket.FXBook",
          "name": "",
          "type": "tuple"
        }
      ],
      "stateMutability": "view",
      "type": "function",
      "constant": true
    },
    {
      "inputs": [],
      "name": "getOfferRates",
      "outputs": [
        {
          "internalType": "uint256[1]",
          "name": "",
          "type": "uint256[1]"
        }
      ],
      "stateMutability": "view",
      "type": "function",
      "constant": true
    },
    {
      "inputs": [],
      "name": "getBidRates",
      "outputs": [
        {
          "internalType": "uint256[1]",
          "name": "",
          "type": "uint256[1]"
        }
      ],
      "stateMutability": "view",
      "type": "function",
      "constant": true
    },
    {
      "inputs": [],
      "name": "getMidRates",
      "outputs": [
        {
          "internalType": "uint256[1]",
          "name": "",
          "type": "uint256[1]"
        }
      ],
      "stateMutability": "view",
      "type": "function",
      "constant": true
    }
  ],
  "bytecode": "0x60a06040526103e860809081526200001c90600090600162000031565b503480156200002a57600080fd5b5062000091565b826001810192821562000068579160200282015b8281111562000068578251829061ffff1690559160200191906001019062000045565b50620000769291506200007a565b5090565b5b808211156200007657600081556001016200007b565b6117f280620000a16000396000f3fe608060405234801561001057600080fd5b50600436106100a95760003560e01c80634df9acaa116100715780634df9acaa1461011e57806357d8df5a146101335780637ba8ad2114610153578063926af9471461015b578063af0674771461016e578063ead0c17514610176576100a9565b80632043285d146100ae5780632600c3ce146100cc5780632726d9c0146100ec578063354528e814610101578063491f807614610116575b600080fd5b6100b661017e565b6040516100c3919061168a565b60405180910390f35b6100df6100da3660046114ea565b6101e0565b6040516100c39190611785565b6100f4610326565b6040516100c3919061171a565b61010961038a565b6040516100c391906116d7565b6100f461066c565b61013161012c3660046114ea565b6106ee565b005b6101466101413660046114cf565b61085a565b6040516100c39190611776565b610146610aa0565b610131610169366004611533565b610d5c565b610131611011565b6100f4611119565b606060028054806020026020016040519081016040528092919081815260200182805480156101d657602002820191906000526020600020905b81546001600160a01b031681526001909101906020018083116101b8575b5050505050905090565b6101e8611335565b60008360018111156101f657fe5b14156102fb576001600160a01b038416600090815260016020526040902082801561021d57fe5b6001811061022757fe5b604080516101208101909152600691909102919091018054829060ff16801561024c57fe5b801561025457fe5b81528154602090910190610100900460ff16600181111561027157fe5b600181111561027c57fe5b8152815460209091019062010000900460ff16600181111561029a57fe5b60018111156102a557fe5b81526001820154602082015260028201546040820152600382015460608201526004820154608082015260059091015460ff8116151560a083015261010090046001600160a01b031660c090910152905061031f565b6001600160a01b038416600090815260016020526040902060060182801561021d57fe5b9392505050565b61032e61138d565b6103366113ab565b61033e610aa0565b905061034861138d565b60005b6001811015610383578251816001811061036157fe5b602002015160a0015182826001811061037657fe5b602002015260010161034b565b5091505090565b600254606090819067ffffffffffffffff811180156103a857600080fd5b506040519080825280602002602001820160405280156103e257816020015b6103cf6113ab565b8152602001906001900390816103c75790505b50905060005b60025481101561066657600160006002838154811061040357fe5b60009182526020808320909101546001600160a01b03168352820192909252604090810182208151608081019092529091829060608201908390600190835b82821015610527576040805161012081019091526006830285018054829060ff16801561046b57fe5b801561047357fe5b81528154602090910190610100900460ff16600181111561049057fe5b600181111561049b57fe5b8152815460209091019062010000900460ff1660018111156104b957fe5b60018111156104c457fe5b815260018281015460208084019190915260028401546040840152600384015460608401526004840154608084015260059093015460ff8116151560a084015261010090046001600160a01b031660c09092019190915291835292019101610442565b505050908252506040805160208181019092529101906006830160016000835b8282101561062c576040805161012081019091526006830285018054829060ff16801561057057fe5b801561057857fe5b81528154602090910190610100900460ff16600181111561059557fe5b60018111156105a057fe5b8152815460209091019062010000900460ff1660018111156105be57fe5b60018111156105c957fe5b815260018281015460208084019190915260028401546040840152600384015460608401526004840154608084015260059093015460ff8116151560a084015261010090046001600160a01b031660c09092019190915291835292019101610547565b50505090825250600c919091015460ff161515602090910152825183908390811061065357fe5b60209081029190910101526001016103e8565b50905090565b61067461138d565b61067c6113ab565b610684610aa0565b905061068e61138d565b60005b600181101561038357825160029082600181106106aa57fe5b602002015160a00151846020015183600181106106c357fe5b602002015160a0015101816106d457fe5b048282600181106106e157fe5b6020020152600101610691565b6001600160a01b0383166000908152600160208190526040909120600c015460ff161515146107385760405162461bcd60e51b815260040161072f9061174c565b60405180910390fd5b600082600181111561074657fe5b14156107b7576001600160a01b038316600090815260016020526040902081801561076d57fe5b6001811061077757fe5b60060201805462ffffff191681556000600182018190556002820181905560038201819055600482015560050180546001600160a81b0319169055610821565b6001600160a01b03831660009081526001602052604090206006018180156107db57fe5b600181106107e557fe5b60060201805462ffffff191681556000600182018190556002820181905560038201819055600482015560050180546001600160a81b03191690555b6040516001600160a01b038416907ffba12333a78ee74ffd97677f4d3066446e4837040bcbc78ca788f00bdd50f0bf90600090a2505050565b6108626113ab565b6001600160a01b038216600090815260016020819052604080832081516080810190925290929091839160608301918491835b8282101561097a576040805161012081019091526006830285018054829060ff1680156108be57fe5b80156108c657fe5b81528154602090910190610100900460ff1660018111156108e357fe5b60018111156108ee57fe5b8152815460209091019062010000900460ff16600181111561090c57fe5b600181111561091757fe5b815260018281015460208084019190915260028401546040840152600384015460608401526004840154608084015260059093015460ff8116151560a084015261010090046001600160a01b031660c09092019190915291835292019101610895565b505050908252506040805160208181019092529101906006830160016000835b82821015610a7f576040805161012081019091526006830285018054829060ff1680156109c357fe5b80156109cb57fe5b81528154602090910190610100900460ff1660018111156109e857fe5b60018111156109f357fe5b8152815460209091019062010000900460ff166001811115610a1157fe5b6001811115610a1c57fe5b815260018281015460208084019190915260028401546040840152600384015460608401526004840154608084015260059093015460ff8116151560a084015261010090046001600160a01b031660c0909201919091529183529201910161099a565b50505090825250600c919091015460ff16151560209091015290505b919050565b610aa86113ab565b610ab06113ab565b60005b60018110156106665760005b600254811015610d53578251610bf3908360018110610ada57fe5b60200201516001600060028581548110610af057fe5b60009182526020808320909101546001600160a01b0316835282019290925260400190208460018110610b1f57fe5b604080516101208101909152600691909102919091018054829060ff168015610b4457fe5b8015610b4c57fe5b81528154602090910190610100900460ff166001811115610b6957fe5b6001811115610b7457fe5b8152815460209091019062010000900460ff166001811115610b9257fe5b6001811115610b9d57fe5b81526001820154602082015260028201546040820152600382015460608201526004820154608082015260059091015460ff8116151560a083015261010090046001600160a01b031660c0909101526000611179565b83518360018110610c0057fe5b6020020181905250610d3683602001518360018110610c1b57fe5b60200201516001600060028581548110610c3157fe5b60009182526020808320909101546001600160a01b0316835282019290925260400190206006018460018110610c6357fe5b604080516101208101909152600691909102919091018054829060ff168015610c8857fe5b8015610c9057fe5b81528154602090910190610100900460ff166001811115610cad57fe5b6001811115610cb857fe5b8152815460209091019062010000900460ff166001811115610cd657fe5b6001811115610ce157fe5b8152600182810154602083015260028301546040830152600383015460608301526004830154608083015260059092015460ff8116151560a083015261010090046001600160a01b031660c090910152611179565b83602001518360018110610d4657fe5b6020020152600101610abf565b50600101610ab3565b336000908152600160205260409020610d73611335565b610d808686854201611217565b90508060068301878015610d9057fe5b60018110610d9a57fe5b8251600691909102919091018054909190829060ff19166001838015610dbc57fe5b021790555060208201518154829061ff001916610100836001811115610dde57fe5b021790555060408201518154829062ff0000191662010000836001811115610e0257fe5b0217905550606082015160018201556080820151600282015560a0820151600382015560c0820151600482015560e0820151600590910180546101009384015160ff1990911692151592909217610100600160a81b0319166001600160a01b03909216909202179055610e73611335565b610e808786864201611217565b90508083888015610e8d57fe5b60018110610e9757fe5b8251600691909102919091018054909190829060ff19166001838015610eb957fe5b021790555060208201518154829061ff001916610100836001811115610edb57fe5b021790555060408201518154829062ff0000191662010000836001811115610eff57fe5b021790555060608201516001808301919091556080830151600283015560a0830151600383015560c0830151600483015560e083015160059092018054610100948501516001600160a01b0316909402610100600160a81b031993151560ff19909516949094179290921692909217905533600090815260209190915260409020600c015460ff16610fce57600280546001810182556000919091527f405787fa12a823e0f2b7631cc41b3ba8828b3321ca811111fa75cd3aa3bb5ace0180546001600160a01b031916331790555b600c8301805460ff1916600117905560405133907f7ee5ea24fae168089a8a78d8ce406778a48d157f0429e7ef942d2f836f27716790600090a250505050505050565b336000908152600160208190526040909120600c015460ff161515146110495760405162461bcd60e51b815260040161072f9061174c565b3360009081526001602052604081209061106382826113d8565b6110716006830160006113d8565b50600c01805460ff1916905560005b6002548110156110eb57336001600160a01b0316600282815481106110a157fe5b6000918252602090912001546001600160a01b031614156110e357600281815481106110c957fe5b600091825260209091200180546001600160a01b03191690555b600101611080565b5060405133907f37033bd624c2f2ced90e94e4ba389eefe66dd3272a0d0747f3ce74c8a3f6fe4190600090a2565b61112161138d565b6111296113ab565b611131610aa0565b905061113b61138d565b60005b6001811015610383578260200151816001811061115757fe5b602002015160a0015182826001811061116c57fe5b602002015260010161113e565b611181611335565b8360e0015161119157508161031f565b8260e001516111a157508261031f565b8260a001518460a0015114156111cf5782606001518460600151116111c657826111c8565b835b905061031f565b60018260018111156111dd57fe5b14156111f8578260a001518460a00151106111c657826111c8565b8260a001518460a001511161120d578261120f565b835b949350505050565b61121f611335565b611227611335565b8085801561123157fe5b9081801561123b57fe5b90525083516020820190600181111561125057fe5b9081600181111561125d57fe5b90525060208401516040820190600181111561127557fe5b9081600181111561128257fe5b9052506040840151606080830191909152840151608082015260006001856020015160018111156112af57fe5b14156112e6576060850151604086015160008880156112ca57fe5b600181106112d457fe5b015402816112de57fe5b049050611313565b6040850151606086015160008880156112fb57fe5b6001811061130557fe5b0154028161130f57fe5b0490505b60a082015260c081019290925250600160e08201523361010082015292915050565b604080516101208101909152806000815260200160008152602001600081526020016000815260200160008152602001600081526020016000815260200160001515815260200160006001600160a01b031681525090565b60405180602001604052806001906020820280368337509192915050565b60405180606001604052806113be611412565b81526020016113cb611412565b8152600060209091015290565b50805462ffffff191681556000600182018190556002820181905560038201819055600482015560050180546001600160a81b0319169055565b60405180602001604052806001905b611429611335565b8152602001906001900390816114215790505090565b80356001600160a01b038116811461145657600080fd5b92915050565b60006080828403121561146d578081fd5b6040516080810181811067ffffffffffffffff8211171561148c578283fd5b604052905080823561149d816117af565b815260208301356114ad816117af565b8060208301525060408301356040820152606083013560608201525092915050565b6000602082840312156114e0578081fd5b61031f838361143f565b6000806000606084860312156114fe578182fd5b611508858561143f565b92506020840135611518816117af565b915060408401356115288161179f565b809150509250925092565b6000806000806101408587031215611549578081fd5b84356115548161179f565b9350611563866020870161145c565b92506115728660a0870161145c565b939692955092936101200135925050565b6001600160a01b03169052565b8060005b60018110156115bf576115a8848351611608565b610120939093019260209190910190600101611594565b50505050565b15159052565b600281106115d557fe5b9052565b6115e4828251611590565b60208101516115f7610120840182611590565b506040015115156102409190910152565b80516001811061161457fe5b8252602081015161162490611794565b6020830152604081015161163b60408401826115cb565b50606081015160608301526080810151608083015260a081015160a083015260c081015160c083015260e081015161167660e08401826115c5565b50610100808201516115bf82850182611583565b6020808252825182820181905260009190848201906040850190845b818110156116cb5783516001600160a01b0316835292840192918401916001016116a6565b50909695505050505050565b6020808252825182820181905260009190848201906040850190845b818110156116cb576117068385516115d9565b9284019261026092909201916001016116f3565b602081810190828460005b600181101561174257815183529183019190830190600101611725565b5050505092915050565b60208082526010908201526f199e109bdbdac81b9bdd08199bdd5b9960821b604082015260600190565b610260810161145682846115d9565b61012081016114568284611608565b8060028110610a9b57fe5b600181106117ac57600080fd5b50565b600281106117ac57600080fdfea2646970667358221220d4f7f96e080bc693a4fe4277311a2f54547708e6d1d7b0da0555436417f3f6ff64736f6c634300060c0033",
  "immutableReferences": {},
  "source": "// SPDX-License-Identifier: MIT\npragma solidity ^0.6.12;\npragma experimental ABIEncoderV2;\n\ncontract MoneyMarket {\n    event SetMoneyMarketBook(address indexed sender);\n    event DelMoneyMarketBook(address indexed sender);\n    event DelOneItem(address indexed sender);\n    event TakeOneItem(address indexed sender);\n\n    enum Ccy {ETH, FIL}\n    enum Term {_3m, _6m, _1y, _2y, _3y, _5y}\n    enum Side {LEND, BORROW}\n\n    uint256 constant NUMCCY = 2;\n    uint256 constant NUMTERM = 6;\n    uint256 constant NUMDF = 7; // numbef of discount factors\n    uint256 constant BP = 10000; // basis point\n\n    struct MoneyMarketBook {\n        MoneyMarketItem[NUMTERM][NUMCCY] lenders;\n        MoneyMarketItem[NUMTERM][NUMCCY] borrowers;\n        bool isValue;\n    }\n\n    struct MoneyMarketItem {\n        Term term;\n        uint256 amt;\n        uint256 rate; // bps\n        uint256 goodtil;\n        bool isAvailable;\n        address addr;\n    }\n\n    struct MoneyMarketInput {\n        Term term;\n        uint256 amt;\n        uint256 rate;\n    }\n\n    // For mark to market\n    struct DiscountFactor{\n        uint256 df3m;\n        uint256 df6m;\n        uint256 df1y;\n        uint256 df2y;\n        uint256 df3y;\n        uint256 df4y;\n        uint256 df5y;\n    }\n\n    // keeps all the records\n    // MoneyMarketBook [0] for ETH, [1] for FIL\n    mapping(address => MoneyMarketBook) private moneyMarketMap;\n    address[] private marketMakers;\n\n    function getMarketMakers() public view returns (address[] memory) {\n        return marketMakers;\n    }\n\n    // helper to convert input data to MoneyMarketItem\n    function inputToItem(MoneyMarketInput memory input, uint256 goodtil)\n        private\n        view\n        returns (MoneyMarketItem memory)\n    {\n        MoneyMarketItem memory item;\n        item.term = input.term;\n        item.amt = input.amt;\n        item.rate = input.rate;\n        item.goodtil = goodtil;\n        item.isAvailable = true;\n        item.addr = msg.sender;\n        return item;\n    }\n\n    // to be called by market makers for booking\n    function setMoneyMarketBook(\n        Ccy ccy,\n        MoneyMarketInput[] memory lenders,\n        MoneyMarketInput[] memory borrowers,\n        uint256 effectiveSec\n    ) public {\n        // TODO - check if collateral covers borrowers amt\n        MoneyMarketBook storage book = moneyMarketMap[msg.sender];\n        MoneyMarketItem[NUMTERM] storage lenderTerms = book.lenders[uint256(ccy)];\n        MoneyMarketItem[NUMTERM] storage borrowerTerms = book.borrowers[uint256(ccy)];\n        for (uint256 i = 0; i < lenders.length; i++) {\n            Term term = lenders[i].term;\n            MoneyMarketItem memory newItem = inputToItem(\n                lenders[i],\n                now + effectiveSec\n            );\n            lenderTerms[uint256(term)] = newItem;\n        }\n        for (uint256 i = 0; i < borrowers.length; i++) {\n            Term term = borrowers[i].term;\n            MoneyMarketItem memory newItem = inputToItem(\n                borrowers[i],\n                now + effectiveSec\n            );\n            borrowerTerms[uint256(term)] = newItem;\n        }\n        if (!moneyMarketMap[msg.sender].isValue) marketMakers.push(msg.sender);\n        book.isValue = true;\n        emit SetMoneyMarketBook(msg.sender);\n    }\n\n    function delMoneyMarketBook() public {\n        require(moneyMarketMap[msg.sender].isValue == true, 'MoneyMarketBook not found');\n        delete moneyMarketMap[msg.sender];\n        for (uint256 i = 0; i < marketMakers.length; i++) {\n            if (marketMakers[i] == msg.sender) delete marketMakers[i];\n        } // marketMakers.length no change\n        emit DelMoneyMarketBook(msg.sender);\n    }\n\n    // TODO - [internal] delete from loan contract. require(moneyMarketMap[marketMaker] == true)\n    function delOneItem(\n        address addr,\n        Side side,\n        Ccy ccy,\n        Term term\n    ) public {\n        require(moneyMarketMap[addr].isValue == true, 'MoneyMarketBook not found');\n        if (side == Side.LEND)\n            delete moneyMarketMap[addr].lenders[uint256(ccy)][uint256(term)];\n        else delete moneyMarketMap[addr].borrowers[uint256(ccy)][uint256(term)];\n        emit DelOneItem(addr);\n    }\n\n    function getOneItem(\n        address addr,\n        Side side,\n        Ccy ccy,\n        Term term\n    ) public view returns (MoneyMarketItem memory) {\n        if (side == Side.LEND)\n            return moneyMarketMap[addr].lenders[uint256(ccy)][uint256(term)];\n        else return moneyMarketMap[addr].borrowers[uint256(ccy)][uint256(term)];\n    }\n\n    // to be called from Loan\n    // take a deal, update amount, and return rates\n    function takeOneItem(\n        address addr,\n        Side side,\n        Ccy ccy,\n        Term term,\n        uint256 amt\n    ) public returns (uint rate) {\n        MoneyMarketBook memory book = moneyMarketMap[addr];\n        require(book.isValue == true, 'MoneyMarketBook not found');\n        MoneyMarketItem storage item;\n        if (side == Side.LEND)\n            item = moneyMarketMap[addr].lenders[uint256(ccy)][uint256(term)];\n        else item = moneyMarketMap[addr].borrowers[uint256(ccy)][uint256(term)];\n        if (item.goodtil < now) {\n            delOneItem(addr, side, ccy, term);\n            revert(\"Item expired\");\n        }\n        if (item.amt < amt) {\n            revert (\"Amount too large\");\n        } else {\n            item.amt -= amt; // update amount\n        }\n        emit TakeOneItem(msg.sender);\n        return item.rate;\n    }\n\n    function getOneBook(address addr) public view returns (MoneyMarketBook memory) {\n        return moneyMarketMap[addr];\n    }\n\n    function getAllBooks() public view returns (MoneyMarketBook[] memory) {\n        MoneyMarketBook[] memory allBooks = new MoneyMarketBook[](marketMakers.length);\n        for (uint256 i = 0; i < marketMakers.length; i++) {\n            allBooks[i] = moneyMarketMap[marketMakers[i]];\n        }\n        return allBooks;\n    }\n\n    // priority on lower lend rate, higher borrow rate, larger amt\n    function betterItem(\n        MoneyMarketItem memory a,\n        MoneyMarketItem memory b,\n        Side side\n    ) private pure returns (MoneyMarketItem memory) {\n        if (!a.isAvailable) return b;\n        if (!b.isAvailable) return a;\n        if (a.rate == b.rate) return a.amt > b.amt ? a : b;\n        if (side == Side.LEND) return a.rate < b.rate ? a : b;\n        return a.rate > b.rate ? a : b; // Side.BORROW\n    }\n\n    function getBestBook() public view returns (MoneyMarketBook memory) {\n        MoneyMarketBook memory book;\n        for (uint256 i = 0; i < NUMCCY; i++) {\n            for (uint256 j = 0; j < NUMTERM; j++) {\n                for (uint256 k = 0; k < marketMakers.length; k++) {\n                    book.lenders[i][j] = betterItem(\n                        book.lenders[i][j],\n                        moneyMarketMap[marketMakers[k]].lenders[i][j],\n                        Side.LEND\n                    );\n                    book.borrowers[i][j] = betterItem(\n                        book.borrowers[i][j],\n                        moneyMarketMap[marketMakers[k]].borrowers[i][j],\n                        Side.LEND\n                    );\n                }\n            }\n        }\n        return book;\n    }\n\n    function getLenderRates()\n        public\n        view\n        returns (uint256[NUMTERM][NUMCCY] memory)\n    {\n        MoneyMarketBook memory bestBook = getBestBook();\n        uint256[NUMTERM][NUMCCY] memory rates;\n        for (uint256 i = 0; i < NUMCCY; i++) {\n            for (uint256 j = 0; j < NUMTERM; j++) {\n                rates[i][j] = bestBook.lenders[i][j].rate;\n            }\n        }\n        return rates;\n    }\n\n    function getBorrowerRates()\n        public\n        view\n        returns (uint256[NUMTERM][NUMCCY] memory)\n    {\n        MoneyMarketBook memory bestBook = getBestBook();\n        uint256[NUMTERM][NUMCCY] memory rates;\n        for (uint256 i = 0; i < NUMCCY; i++) {\n            for (uint256 j = 0; j < NUMTERM; j++) {\n                rates[i][j] = bestBook.borrowers[i][j].rate;\n            }\n        }\n        return rates;\n    }\n\n    // to be called by Loan or Collateral for valuation\n    function getMidRates()\n        public\n        view\n        returns (uint256[NUMTERM][NUMCCY] memory)\n    {\n        MoneyMarketBook memory bestBook = getBestBook();\n        uint256[NUMTERM][NUMCCY] memory rates;\n        for (uint256 i = 0; i < NUMCCY; i++) {\n            for (uint256 j = 0; j < NUMTERM; j++) {\n                rates[i][j] =\n                    (bestBook.lenders[i][j].rate +\n                        bestBook.borrowers[i][j].rate) /\n                    2;\n            }\n        }\n        return rates;\n    }\n\n    // helper to generate DF\n    function genDF(uint256[NUMDF] memory rates) private pure returns (DiscountFactor memory) {\n        DiscountFactor memory df;\n        // bootstrap in BasisPoint scale\n        df.df3m = BP * BP / (BP + rates[0] * 90 / 360);\n        df.df6m = BP * BP / (BP + rates[1] * 180 / 360);\n        df.df1y = BP * BP / (BP + rates[2]);\n        df.df2y = BP * (BP - rates[3] * df.df1y / BP) / (BP + rates[3]);\n        df.df3y = BP * (BP - rates[4] * (df.df1y + df.df2y) / BP ) / (BP + rates[4]);\n        df.df4y = BP * (BP - rates[5] * (df.df1y + df.df2y + df.df3y) / BP ) / (BP + rates[5]);\n        df.df5y = BP * (BP - rates[6] * (df.df1y + df.df2y + df.df3y + df.df4y) / BP ) / (BP + rates[6]);\n        return df;\n    }\n\n    function getDiscountFactors() public view returns (DiscountFactor[NUMCCY] memory) {\n        uint256[NUMTERM][NUMCCY] memory mkt = getMidRates();\n        uint256[NUMDF][NUMCCY] memory rates = [\n            [mkt[0][0], mkt[0][1], mkt[0][2], mkt[0][3], mkt[0][4], (mkt[0][4] + mkt[0][5])/2, mkt[0][5]],\n            [mkt[1][0], mkt[1][1], mkt[1][2], mkt[1][3], mkt[1][4], (mkt[1][4] + mkt[1][5])/2, mkt[1][5]]\n        ];\n        DiscountFactor memory dfETH = genDF(rates[0]);\n        DiscountFactor memory dfFIL = genDF(rates[1]);\n        return [dfETH, dfFIL];\n    }\n}\n\ncontract FXMarket {\n    event SetFXBook(address indexed sender);\n    event DelFXBook(address indexed sender);\n    event DelOneItem(address indexed sender);\n\n    enum Ccy {ETH, FIL}\n    enum CcyPair {FILETH}\n    enum Side {BID, OFFER}\n\n    uint256 constant NUMCCY = 2;\n    uint256 constant NUMPAIR = 1;\n    uint256[NUMPAIR] FXMULT = [1000];\n\n    struct FXBook {\n        FXItem[NUMPAIR] bids;\n        FXItem[NUMPAIR] offers;\n        bool isValue;\n    }\n\n    struct FXItem {\n        CcyPair pair;\n        Ccy ccyBuy;\n        Ccy ccySell;\n        uint256 amtBuy;\n        uint256 amtSell;\n        uint256 rate;\n        uint256 goodtil;\n        bool isAvailable;\n        address addr;\n    }\n\n    struct FXInput {\n        Ccy ccyBuy;\n        Ccy ccySell;\n        uint256 amtBuy;\n        uint256 amtSell;\n    }\n\n    // keeps all the records\n    // FXBook [0] for FILETH\n    mapping(address => FXBook) private fxMap;\n    address[] private marketMakers;\n\n    // to be called by Loan or Collateral for valuation\n    function getMarketMakers() public view returns (address[] memory) {\n        return marketMakers;\n    }\n\n    // helper to convert input to FXItem\n    function inputToItem(\n        CcyPair pair,\n        FXInput memory input,\n        uint256 goodtil\n    ) private view returns (FXItem memory) {\n        FXItem memory item;\n        item.pair = pair;\n        item.ccyBuy = input.ccyBuy;\n        item.ccySell = input.ccySell;\n        item.amtBuy = input.amtBuy;\n        item.amtSell = input.amtSell;\n        uint fxRate;\n        if (input.ccySell == Ccy.FIL) // ETH buy FIL sell\n            fxRate = (FXMULT[uint256(pair)] * input.amtBuy) / input.amtSell;\n        else // ETH sell FIL buy\n            fxRate = (FXMULT[uint256(pair)] * input.amtSell) / input.amtBuy;\n        item.rate = fxRate;\n        item.goodtil = goodtil;\n        item.isAvailable = true;\n        item.addr = msg.sender;\n        return item;\n    }\n\n    // to be called by market makers for booking\n    function setFXBook(\n        CcyPair pair,\n        FXInput memory offerInput,\n        FXInput memory bidInput,\n        uint256 effectiveSec\n    ) public {\n        // TODO - check if collateral covers borrowers amts\n        // TODO - emit event for notice\n        FXBook storage book = fxMap[msg.sender];\n        FXItem memory newOffer = inputToItem(\n            pair,\n            offerInput,\n            now + effectiveSec\n        );\n        book.offers[uint256(pair)] = newOffer;\n        FXItem memory newBid = inputToItem(pair, bidInput, now + effectiveSec);\n        book.bids[uint256(pair)] = newBid;\n        if (!fxMap[msg.sender].isValue) marketMakers.push(msg.sender);\n        book.isValue = true;\n        emit SetFXBook(msg.sender);\n    }\n\n    function delFXBook() public {\n        require(fxMap[msg.sender].isValue == true, 'fxBook not found');\n        delete fxMap[msg.sender];\n        for (uint256 i = 0; i < marketMakers.length; i++) {\n            if (marketMakers[i] == msg.sender) delete marketMakers[i];\n        } // marketMakers.length no change\n        emit DelFXBook(msg.sender);\n    }\n\n    function delOneItem(\n        address addr,\n        Side side,\n        CcyPair pair\n    ) public {\n        require(fxMap[addr].isValue == true, 'fxBook not found');\n        if (side == Side.BID) delete fxMap[addr].bids[uint256(pair)];\n        else delete fxMap[addr].offers[uint256(pair)];\n        emit DelOneItem(addr);\n    }\n\n    function getOneItem(\n        address addr,\n        Side side,\n        CcyPair pair\n    ) public view returns (FXItem memory) {\n        if (side == Side.BID) return fxMap[addr].bids[uint256(pair)];\n        else return fxMap[addr].offers[uint256(pair)];\n    }\n\n    function getOneBook(address addr) public view returns (FXBook memory) {\n        return fxMap[addr];\n    }\n\n    function getAllBooks() public view returns (FXBook[] memory) {\n        FXBook[] memory allBooks = new FXBook[](marketMakers.length);\n        for (uint256 i = 0; i < marketMakers.length; i++) {\n            allBooks[i] = fxMap[marketMakers[i]];\n        }\n        return allBooks;\n    }\n\n    // priority on lower offer rate, higher bid rate, larger amt\n    function betterItem(\n        FXItem memory a,\n        FXItem memory b,\n        Side side\n    ) private pure returns (FXItem memory) {\n        if (!a.isAvailable) return b;\n        if (!b.isAvailable) return a;\n        if (a.rate == b.rate) return a.amtBuy > b.amtBuy ? a : b;\n        if (side == Side.OFFER) return a.rate < b.rate ? a : b;\n        return a.rate > b.rate ? a : b; // Side.BID\n    }\n\n    function getBestBook() public view returns (FXBook memory) {\n        FXBook memory book;\n        for (uint256 i = 0; i < NUMPAIR; i++) {\n            for (uint256 k = 0; k < marketMakers.length; k++) {\n                book.bids[i] = betterItem(\n                    book.bids[i],\n                    fxMap[marketMakers[k]].bids[i],\n                    Side.BID\n                );\n                book.offers[i] = betterItem(\n                    book.offers[i],\n                    fxMap[marketMakers[k]].offers[i],\n                    Side.OFFER\n                );\n            }\n        }\n        return book;\n    }\n\n    function getOfferRates() public view returns (uint256[NUMPAIR] memory) {\n        FXBook memory bestBook = getBestBook();\n        uint256[NUMPAIR] memory rates;\n        for (uint256 i = 0; i < NUMPAIR; i++) {\n            rates[i] = bestBook.offers[i].rate;\n        }\n        return rates;\n    }\n\n    function getBidRates() public view returns (uint256[NUMPAIR] memory) {\n        FXBook memory bestBook = getBestBook();\n        uint256[NUMPAIR] memory rates;\n        for (uint256 i = 0; i < NUMPAIR; i++) {\n            rates[i] = bestBook.bids[i].rate;\n        }\n        return rates;\n    }\n\n\n    function getMidRates() public view returns (uint256[NUMPAIR] memory) {\n        FXBook memory bestBook = getBestBook();\n        uint256[NUMPAIR] memory rates;\n        for (uint256 i = 0; i < NUMPAIR; i++) {\n            rates[i] = (bestBook.offers[i].rate + bestBook.bids[i].rate) / 2;\n        }\n        return rates;\n    }\n}\n",
  "sourcePath": "/Users/user/tmp/secured-finance/smart-contracts/contracts/Market.sol",
  "compiler": {
    "name": "solc",
    "version": "0.6.12+commit.27d51765.Emscripten.clang"
  },
  "schemaVersion": "3.2.4",
  "updatedAt": "2020-10-19T19:27:04.264Z",
  "networkType": "ethereum",
  "devdoc": {
    "kind": "dev",
    "methods": {},
    "version": 1
  },
  "userdoc": {
    "kind": "user",
    "methods": {},
    "version": 1
  }
}