{
  "contractName": "MoneyMarket",
  "abi": [
    {
      "anonymous": false,
      "inputs": [
        {
          "indexed": true,
          "internalType": "address",
          "name": "sender",
          "type": "address"
        }
      ],
      "name": "DelMoneyMarketBook",
      "type": "event"
    },
    {
      "anonymous": false,
      "inputs": [
        {
          "indexed": true,
          "internalType": "address",
          "name": "sender",
          "type": "address"
        }
      ],
      "name": "DelOneItem",
      "type": "event"
    },
    {
      "anonymous": false,
      "inputs": [
        {
          "indexed": true,
          "internalType": "address",
          "name": "sender",
          "type": "address"
        }
      ],
      "name": "SetMoneyMarketBook",
      "type": "event"
    },
    {
      "anonymous": false,
      "inputs": [
        {
          "indexed": true,
          "internalType": "address",
          "name": "sender",
          "type": "address"
        }
      ],
      "name": "TakeOneItem",
      "type": "event"
    },
    {
      "inputs": [],
      "name": "getMarketMakers",
      "outputs": [
        {
          "internalType": "address[]",
          "name": "",
          "type": "address[]"
        }
      ],
      "stateMutability": "view",
      "type": "function",
      "constant": true
    },
    {
      "inputs": [
        {
          "internalType": "enum MoneyMarket.Ccy",
          "name": "ccy",
          "type": "uint8"
        },
        {
          "components": [
            {
              "internalType": "enum MoneyMarket.Term",
              "name": "term",
              "type": "uint8"
            },
            {
              "internalType": "uint256",
              "name": "amt",
              "type": "uint256"
            },
            {
              "internalType": "uint256",
              "name": "rate",
              "type": "uint256"
            }
          ],
          "internalType": "struct MoneyMarket.MoneyMarketInput[]",
          "name": "lenders",
          "type": "tuple[]"
        },
        {
          "components": [
            {
              "internalType": "enum MoneyMarket.Term",
              "name": "term",
              "type": "uint8"
            },
            {
              "internalType": "uint256",
              "name": "amt",
              "type": "uint256"
            },
            {
              "internalType": "uint256",
              "name": "rate",
              "type": "uint256"
            }
          ],
          "internalType": "struct MoneyMarket.MoneyMarketInput[]",
          "name": "borrowers",
          "type": "tuple[]"
        },
        {
          "internalType": "uint256",
          "name": "effectiveSec",
          "type": "uint256"
        }
      ],
      "name": "setMoneyMarketBook",
      "outputs": [],
      "stateMutability": "nonpayable",
      "type": "function"
    },
    {
      "inputs": [],
      "name": "delMoneyMarketBook",
      "outputs": [],
      "stateMutability": "nonpayable",
      "type": "function"
    },
    {
      "inputs": [
        {
          "internalType": "address",
          "name": "addr",
          "type": "address"
        },
        {
          "internalType": "enum MoneyMarket.Side",
          "name": "side",
          "type": "uint8"
        },
        {
          "internalType": "enum MoneyMarket.Ccy",
          "name": "ccy",
          "type": "uint8"
        },
        {
          "internalType": "enum MoneyMarket.Term",
          "name": "term",
          "type": "uint8"
        }
      ],
      "name": "delOneItem",
      "outputs": [],
      "stateMutability": "nonpayable",
      "type": "function"
    },
    {
      "inputs": [
        {
          "internalType": "address",
          "name": "addr",
          "type": "address"
        },
        {
          "internalType": "enum MoneyMarket.Side",
          "name": "side",
          "type": "uint8"
        },
        {
          "internalType": "enum MoneyMarket.Ccy",
          "name": "ccy",
          "type": "uint8"
        },
        {
          "internalType": "enum MoneyMarket.Term",
          "name": "term",
          "type": "uint8"
        }
      ],
      "name": "getOneItem",
      "outputs": [
        {
          "components": [
            {
              "internalType": "enum MoneyMarket.Term",
              "name": "term",
              "type": "uint8"
            },
            {
              "internalType": "uint256",
              "name": "amt",
              "type": "uint256"
            },
            {
              "internalType": "uint256",
              "name": "rate",
              "type": "uint256"
            },
            {
              "internalType": "uint256",
              "name": "goodtil",
              "type": "uint256"
            },
            {
              "internalType": "bool",
              "name": "isAvailable",
              "type": "bool"
            },
            {
              "internalType": "address",
              "name": "addr",
              "type": "address"
            }
          ],
          "internalType": "struct MoneyMarket.MoneyMarketItem",
          "name": "",
          "type": "tuple"
        }
      ],
      "stateMutability": "view",
      "type": "function",
      "constant": true
    },
    {
      "inputs": [
        {
          "internalType": "address",
          "name": "addr",
          "type": "address"
        },
        {
          "internalType": "enum MoneyMarket.Side",
          "name": "side",
          "type": "uint8"
        },
        {
          "internalType": "enum MoneyMarket.Ccy",
          "name": "ccy",
          "type": "uint8"
        },
        {
          "internalType": "enum MoneyMarket.Term",
          "name": "term",
          "type": "uint8"
        },
        {
          "internalType": "uint256",
          "name": "amt",
          "type": "uint256"
        }
      ],
      "name": "takeOneItem",
      "outputs": [
        {
          "internalType": "uint256",
          "name": "rate",
          "type": "uint256"
        }
      ],
      "stateMutability": "nonpayable",
      "type": "function"
    },
    {
      "inputs": [
        {
          "internalType": "address",
          "name": "addr",
          "type": "address"
        }
      ],
      "name": "getOneBook",
      "outputs": [
        {
          "components": [
            {
              "components": [
                {
                  "internalType": "enum MoneyMarket.Term",
                  "name": "term",
                  "type": "uint8"
                },
                {
                  "internalType": "uint256",
                  "name": "amt",
                  "type": "uint256"
                },
                {
                  "internalType": "uint256",
                  "name": "rate",
                  "type": "uint256"
                },
                {
                  "internalType": "uint256",
                  "name": "goodtil",
                  "type": "uint256"
                },
                {
                  "internalType": "bool",
                  "name": "isAvailable",
                  "type": "bool"
                },
                {
                  "internalType": "address",
                  "name": "addr",
                  "type": "address"
                }
              ],
              "internalType": "struct MoneyMarket.MoneyMarketItem[6][2]",
              "name": "lenders",
              "type": "tuple[6][2]"
            },
            {
              "components": [
                {
                  "internalType": "enum MoneyMarket.Term",
                  "name": "term",
                  "type": "uint8"
                },
                {
                  "internalType": "uint256",
                  "name": "amt",
                  "type": "uint256"
                },
                {
                  "internalType": "uint256",
                  "name": "rate",
                  "type": "uint256"
                },
                {
                  "internalType": "uint256",
                  "name": "goodtil",
                  "type": "uint256"
                },
                {
                  "internalType": "bool",
                  "name": "isAvailable",
                  "type": "bool"
                },
                {
                  "internalType": "address",
                  "name": "addr",
                  "type": "address"
                }
              ],
              "internalType": "struct MoneyMarket.MoneyMarketItem[6][2]",
              "name": "borrowers",
              "type": "tuple[6][2]"
            },
            {
              "internalType": "bool",
              "name": "isValue",
              "type": "bool"
            }
          ],
          "internalType": "struct MoneyMarket.MoneyMarketBook",
          "name": "",
          "type": "tuple"
        }
      ],
      "stateMutability": "view",
      "type": "function",
      "constant": true
    },
    {
      "inputs": [],
      "name": "getAllBooks",
      "outputs": [
        {
          "components": [
            {
              "components": [
                {
                  "internalType": "enum MoneyMarket.Term",
                  "name": "term",
                  "type": "uint8"
                },
                {
                  "internalType": "uint256",
                  "name": "amt",
                  "type": "uint256"
                },
                {
                  "internalType": "uint256",
                  "name": "rate",
                  "type": "uint256"
                },
                {
                  "internalType": "uint256",
                  "name": "goodtil",
                  "type": "uint256"
                },
                {
                  "internalType": "bool",
                  "name": "isAvailable",
                  "type": "bool"
                },
                {
                  "internalType": "address",
                  "name": "addr",
                  "type": "address"
                }
              ],
              "internalType": "struct MoneyMarket.MoneyMarketItem[6][2]",
              "name": "lenders",
              "type": "tuple[6][2]"
            },
            {
              "components": [
                {
                  "internalType": "enum MoneyMarket.Term",
                  "name": "term",
                  "type": "uint8"
                },
                {
                  "internalType": "uint256",
                  "name": "amt",
                  "type": "uint256"
                },
                {
                  "internalType": "uint256",
                  "name": "rate",
                  "type": "uint256"
                },
                {
                  "internalType": "uint256",
                  "name": "goodtil",
                  "type": "uint256"
                },
                {
                  "internalType": "bool",
                  "name": "isAvailable",
                  "type": "bool"
                },
                {
                  "internalType": "address",
                  "name": "addr",
                  "type": "address"
                }
              ],
              "internalType": "struct MoneyMarket.MoneyMarketItem[6][2]",
              "name": "borrowers",
              "type": "tuple[6][2]"
            },
            {
              "internalType": "bool",
              "name": "isValue",
              "type": "bool"
            }
          ],
          "internalType": "struct MoneyMarket.MoneyMarketBook[]",
          "name": "",
          "type": "tuple[]"
        }
      ],
      "stateMutability": "view",
      "type": "function",
      "constant": true
    },
    {
      "inputs": [],
      "name": "getBestBook",
      "outputs": [
        {
          "components": [
            {
              "components": [
                {
                  "internalType": "enum MoneyMarket.Term",
                  "name": "term",
                  "type": "uint8"
                },
                {
                  "internalType": "uint256",
                  "name": "amt",
                  "type": "uint256"
                },
                {
                  "internalType": "uint256",
                  "name": "rate",
                  "type": "uint256"
                },
                {
                  "internalType": "uint256",
                  "name": "goodtil",
                  "type": "uint256"
                },
                {
                  "internalType": "bool",
                  "name": "isAvailable",
                  "type": "bool"
                },
                {
                  "internalType": "address",
                  "name": "addr",
                  "type": "address"
                }
              ],
              "internalType": "struct MoneyMarket.MoneyMarketItem[6][2]",
              "name": "lenders",
              "type": "tuple[6][2]"
            },
            {
              "components": [
                {
                  "internalType": "enum MoneyMarket.Term",
                  "name": "term",
                  "type": "uint8"
                },
                {
                  "internalType": "uint256",
                  "name": "amt",
                  "type": "uint256"
                },
                {
                  "internalType": "uint256",
                  "name": "rate",
                  "type": "uint256"
                },
                {
                  "internalType": "uint256",
                  "name": "goodtil",
                  "type": "uint256"
                },
                {
                  "internalType": "bool",
                  "name": "isAvailable",
                  "type": "bool"
                },
                {
                  "internalType": "address",
                  "name": "addr",
                  "type": "address"
                }
              ],
              "internalType": "struct MoneyMarket.MoneyMarketItem[6][2]",
              "name": "borrowers",
              "type": "tuple[6][2]"
            },
            {
              "internalType": "bool",
              "name": "isValue",
              "type": "bool"
            }
          ],
          "internalType": "struct MoneyMarket.MoneyMarketBook",
          "name": "",
          "type": "tuple"
        }
      ],
      "stateMutability": "view",
      "type": "function",
      "constant": true
    },
    {
      "inputs": [],
      "name": "getLenderRates",
      "outputs": [
        {
          "internalType": "uint256[6][2]",
          "name": "",
          "type": "uint256[6][2]"
        }
      ],
      "stateMutability": "view",
      "type": "function",
      "constant": true
    },
    {
      "inputs": [],
      "name": "getBorrowerRates",
      "outputs": [
        {
          "internalType": "uint256[6][2]",
          "name": "",
          "type": "uint256[6][2]"
        }
      ],
      "stateMutability": "view",
      "type": "function",
      "constant": true
    },
    {
      "inputs": [],
      "name": "getMidRates",
      "outputs": [
        {
          "internalType": "uint256[6][2]",
          "name": "",
          "type": "uint256[6][2]"
        }
      ],
      "stateMutability": "view",
      "type": "function",
      "constant": true
    },
    {
      "inputs": [],
      "name": "getDiscountFactors",
      "outputs": [
        {
          "components": [
            {
              "internalType": "uint256",
              "name": "df3m",
              "type": "uint256"
            },
            {
              "internalType": "uint256",
              "name": "df6m",
              "type": "uint256"
            },
            {
              "internalType": "uint256",
              "name": "df1y",
              "type": "uint256"
            },
            {
              "internalType": "uint256",
              "name": "df2y",
              "type": "uint256"
            },
            {
              "internalType": "uint256",
              "name": "df3y",
              "type": "uint256"
            },
            {
              "internalType": "uint256",
              "name": "df4y",
              "type": "uint256"
            },
            {
              "internalType": "uint256",
              "name": "df5y",
              "type": "uint256"
            }
          ],
          "internalType": "struct MoneyMarket.DiscountFactor[2]",
          "name": "",
          "type": "tuple[2]"
        }
      ],
      "stateMutability": "view",
      "type": "function",
      "constant": true
    }
  ],
  "bytecode": "0x608060405234801561001057600080fd5b50612030806100206000396000f3fe608060405234801561001057600080fd5b50600436106100cf5760003560e01c80636584d3f61161008c5780639b4a7a1a116100665780639b4a7a1a146101a3578063aacf1419146101ab578063be8d9c52146101be578063be92e1b5146101d1576100cf565b80636584d3f614610171578063666e25de1461017b5780637ba8ad211461019b576100cf565b8063069fa00c146100d45780632043285d146100f2578063354528e814610107578063491f80761461011c578063524bc34a1461013157806357d8df5a14610151575b600080fd5b6100dc6101d9565b6040516100e99190611e63565b60405180910390f35b6100fa61031a565b6040516100e99190611dbb565b61010f61037c565b6040516100e99190611ed6565b61012461061a565b6040516100e99190611e08565b61014461013f366004611c06565b6106e7565b6040516100e99190611fbd565b61016461015f366004611b82565b610a68565b6040516100e99190611fa0565b610179610c68565b005b61018e610189366004611b9d565b610d6f565b6040516100e99190611faf565b610164610e86565b610124611081565b6101796101b9366004611b9d565b611116565b6101796101cc366004611c67565b6112a1565b61012461158b565b6101e1611854565b6101e9611881565b6101f161061a565b90506101fb6118ae565b50604080516101208101825282515181830190815283516020908101516060808501919091528551850151608080860191909152865182015160a080870191909152875182015160c080880191909152885180830151908401516002910181900460e0808a01919091528a518401516101008a015296885288519687018952858a01805151885280518701518888015280518a01519988019990995288518501519487019490945287518301518684015287518083015193015190920192909204848301529451015193820193909352918101919091526102da6118db565b6102eb8260005b602002015161161d565b90506102f56118db565b6103008360016102e1565b604080518082019091529283526020830152509250505090565b6060600180548060200260200160405190810160405280929190818152602001828054801561037257602002820191906000526020600020905b81546001600160a01b03168152600190910190602001808311610354575b5050505050905090565b600154606090819067ffffffffffffffff8111801561039a57600080fd5b506040519080825280602002602001820160405280156103d457816020015b6103c1611918565b8152602001906001900390816103b95790505b50905060005b60015481101561061457600080600183815481106103f457fe5b60009182526020808320909101546001600160a01b0316835282019290925260409081018220815160a081019092529091829060608201908390600290835b828210156104f6576040805160c08101909152601e8302850160066000835b828210156104e3576040805160c081019091526005808402860180549091839160ff169081111561047f57fe5b600581111561048a57fe5b8152600182810154602080840191909152600284015460408401526003840154606084015260049093015460ff81161515608084015261010090046001600160a01b031660a09092019190915291835292019101610452565b5050505081526020019060010190610433565b5050509082525060408051808201909152602090910190603c830160026000835b828210156105da576040805160c08101909152601e8302850160066000835b828210156105c7576040805160c081019091526005808402860180549091839160ff169081111561056357fe5b600581111561056e57fe5b8152600182810154602080840191909152600284015460408401526003840154606084015260049093015460ff81161515608084015261010090046001600160a01b031660a09092019190915291835292019101610536565b5050505081526020019060010190610517565b505050908252506078919091015460ff161515602090910152825183908390811061060157fe5b60209081029190910101526001016103da565b50905090565b610622611881565b61062a611918565b610632610e86565b905061063c611881565b60005b60028110156106e05760005b60068110156106d75760028460200151836002811061066657fe5b6020020151826006811061067657fe5b6020020151604001518551846002811061068c57fe5b6020020151836006811061069c57fe5b60200201516040015101816106ad57fe5b048383600281106106ba57fe5b602002015182600681106106ca57fe5b602002015260010161064b565b5060010161063f565b5091505090565b60006106f1611918565b6001600160a01b038716600090815260208190526040808220815160a081019092529091829060608201908390600290835b828210156107e6576040805160c08101909152601e8302850160066000835b828210156107d3576040805160c081019091526005808402860180549091839160ff169081111561076f57fe5b600581111561077a57fe5b8152600182810154602080840191909152600284015460408401526003840154606084015260049093015460ff81161515608084015261010090046001600160a01b031660a09092019190915291835292019101610742565b5050505081526020019060010190610723565b5050509082525060408051808201909152602090910190603c830160026000835b828210156108ca576040805160c08101909152601e8302850160066000835b828210156108b7576040805160c081019091526005808402860180549091839160ff169081111561085357fe5b600581111561085e57fe5b8152600182810154602080840191909152600284015460408401526003840154606084015260049093015460ff81161515608084015261010090046001600160a01b031660a09092019190915291835292019101610826565b5050505081526020019060010190610807565b505050908252506078919091015460ff161515602090910152604081015190915015156001146109155760405162461bcd60e51b815260040161090c90611f69565b60405180910390fd5b60008087600181111561092457fe5b141561097d576001600160a01b038816600090815260208190526040902086600181111561094e57fe5b6002811061095857fe5b601e020185600581111561096857fe5b6006811061097257fe5b6005020190506109cf565b6001600160a01b0388166000908152602081905260409020603c018660018111156109a457fe5b600281106109ae57fe5b601e02018560058111156109be57fe5b600681106109c857fe5b6005020190505b42816003015410156109ff576109e788888888611116565b60405162461bcd60e51b815260040161090c90611f43565b8381600101541015610a235760405162461bcd60e51b815260040161090c90611f19565b600181018054859003905560405133907f35a29ff4eb18c8b723968b48792b1c8236bf21253a40fde977278c08516b3e9290600090a260020154979650505050505050565b610a70611918565b6001600160a01b038216600090815260208190526040808220815160a081019092529091829060608201908390600290835b82821015610b65576040805160c08101909152601e8302850160066000835b82821015610b52576040805160c081019091526005808402860180549091839160ff1690811115610aee57fe5b6005811115610af957fe5b8152600182810154602080840191909152600284015460408401526003840154606084015260049093015460ff81161515608084015261010090046001600160a01b031660a09092019190915291835292019101610ac1565b5050505081526020019060010190610aa2565b5050509082525060408051808201909152602090910190603c830160026000835b82821015610c49576040805160c08101909152601e8302850160066000835b82821015610c36576040805160c081019091526005808402860180549091839160ff1690811115610bd257fe5b6005811115610bdd57fe5b8152600182810154602080840191909152600284015460408401526003840154606084015260049093015460ff81161515608084015261010090046001600160a01b031660a09092019190915291835292019101610ba5565b5050505081526020019060010190610b86565b505050908252506078919091015460ff16151560209091015292915050565b3360009081526020819052604090206078015460ff161515600114610c9f5760405162461bcd60e51b815260040161090c90611f69565b33600090815260208190526040812090610cb98282611945565b610cc7603c83016000611945565b50607801805460ff1916905560005b600154811015610d4157336001600160a01b031660018281548110610cf757fe5b6000918252602090912001546001600160a01b03161415610d395760018181548110610d1f57fe5b600091825260209091200180546001600160a01b03191690555b600101610cd6565b5060405133907ff3ada031bf975812d748cb98e9c22cbe201e0b219605f45df2d40c7100ae8e8190600090a2565b610d77611963565b6000846001811115610d8557fe5b1415610e57576001600160a01b0385166000908152602081905260409020836001811115610daf57fe5b60028110610db957fe5b601e0201826005811115610dc957fe5b60068110610dd357fe5b600502016040518060c00160405290816000820160009054906101000a900460ff166005811115610e0057fe5b6005811115610e0b57fe5b815260018201546020820152600282015460408201526003820154606082015260049091015460ff81161515608083015261010090046001600160a01b031660a0909101529050610e7e565b6001600160a01b0385166000908152602081905260409020603c01836001811115610daf57fe5b949350505050565b610e8e611918565b610e96611918565b60005b60028110156106145760005b60068110156110785760005b60015481101561106f578351610fb3908460028110610ecc57fe5b60200201518360068110610edc57fe5b602002015160008060018581548110610ef157fe5b60009182526020808320909101546001600160a01b0316835282019290925260400190208560028110610f2057fe5b601e02018460068110610f2f57fe5b600502016040518060c00160405290816000820160009054906101000a900460ff166005811115610f5c57fe5b6005811115610f6757fe5b815260018201546020820152600282015460408201526003820154606082015260049091015460ff81161515608083015261010090046001600160a01b031660a0909101526000611754565b84518460028110610fc057fe5b60200201518360068110610fd057fe5b602002018190525061104284602001518460028110610feb57fe5b60200201518360068110610ffb57fe5b60200201516000806001858154811061101057fe5b60009182526020808320909101546001600160a01b031683528201929092526040019020603c018560028110610f2057fe5b8460200151846002811061105257fe5b6020020151836006811061106257fe5b6020020152600101610eb1565b50600101610ea5565b50600101610e99565b611089611881565b611091611918565b611099610e86565b90506110a3611881565b60005b60028110156106e05760005b600681101561110d57836020015182600281106110cb57fe5b602002015181600681106110db57fe5b6020020151604001518383600281106110f057fe5b6020020151826006811061110057fe5b60200201526001016110b2565b506001016110a6565b6001600160a01b03841660009081526020819052604090206078015460ff1615156001146111565760405162461bcd60e51b815260040161090c90611f69565b600083600181111561116457fe5b14156111e9576001600160a01b038416600090815260208190526040902082600181111561118e57fe5b6002811061119857fe5b601e02018160058111156111a857fe5b600681106111b257fe5b60050201805460ff1916815560006001820181905560028201819055600382015560040180546001600160a81b0319169055611267565b6001600160a01b0384166000908152602081905260409020603c0182600181111561121057fe5b6002811061121a57fe5b601e020181600581111561122a57fe5b6006811061123457fe5b60050201805460ff1916815560006001820181905560028201819055600382015560040180546001600160a81b03191690555b6040516001600160a01b038516907ffba12333a78ee74ffd97677f4d3066446e4837040bcbc78ca788f00bdd50f0bf90600090a250505050565b33600090815260208190526040812090818660018111156112be57fe5b600281106112c857fe5b601e02019050600082603c018760018111156112e057fe5b600281106112ea57fe5b601e0201905060005b86518110156113f557600087828151811061130a57fe5b6020026020010151600001519050611320611963565b61133f89848151811061132f57fe5b60200260200101518842016117f4565b9050808583600581111561134f57fe5b6006811061135957fe5b6005020160008201518160000160006101000a81548160ff0219169083600581111561138157fe5b02179055506020820151600180830191909155604083015160028301556060830151600383015560808301516004909201805460a0909401516001600160a01b031661010002610100600160a81b031993151560ff1990951694909417929092169290921790559290920191506112f39050565b5060005b85518110156114eb57600086828151811061141057fe5b6020026020010151600001519050611426611963565b61143588848151811061132f57fe5b9050808483600581111561144557fe5b6006811061144f57fe5b6005020160008201518160000160006101000a81548160ff0219169083600581111561147757fe5b02179055506020820151600180830191909155604083015160028301556060830151600383015560808301516004909201805460a0909401516001600160a01b031661010002610100600160a81b031993151560ff1990951694909417929092169290921790559290920191506113f99050565b503360009081526020819052604090206078015460ff16611548576001805480820182556000919091527fb10e2d527612073b26eecdfd717e6a320cf44b4afac2b0732d9fcbe2b7fa0cf60180546001600160a01b031916331790555b60788301805460ff1916600117905560405133907f9f28aba5952e297039558d4b2fc1f0649f8c8c5accab6577117fad09bc3c95a390600090a250505050505050565b611593611881565b61159b611918565b6115a3610e86565b90506115ad611881565b60005b60028110156106e05760005b600681101561161457835182600281106115d257fe5b602002015181600681106115e257fe5b6020020151604001518383600281106115f757fe5b6020020151826006811061160757fe5b60200201526001016115bc565b506001016115b0565b6116256118db565b61162d6118db565b825161016890605a02046127100161271080028161164757fe5b04815260208301516101689060b402046127100161271080028161166757fe5b0460208201526040830151612710016305f5e1008161168257fe5b0460408201819052606084015161271080820192909102046127100361271002816116a957fe5b046060820181905260808401516040830151612710808301939092910102046127100361271002816116d757fe5b046080820181905260a0840151606083015160408401516127108084019491909201019091028190048103028161170a57fe5b0460a0820181905260c08401516080830151606084015160408501516127108085019590949190920190920101020461271003612710028161174857fe5b0460c082015292915050565b61175c611963565b836080015161176c5750816117ed565b826080015161177c5750826117ed565b8260400151846040015114156117aa5782602001518460200151116117a157826117a3565b835b90506117ed565b60008260018111156117b857fe5b14156117d35782604001518460400151106117a157826117a3565b82604001518460400151116117e857826117ea565b835b90505b9392505050565b6117fc611963565b611804611963565b83518190600581111561181357fe5b9081600581111561182057fe5b905250602080850151908201526040808501519082015260608101839052600160808201523360a082015290505b92915050565b60405180604001604052806002905b61186b6118db565b8152602001906001900390816118635790505090565b60405180604001604052806002905b6118986119a5565b8152602001906001900390816118905790505090565b60405180604001604052806002905b6118c56119c3565b8152602001906001900390816118bd5790505090565b6040518060e00160405280600081526020016000815260200160008152602001600081526020016000815260200160008152602001600081525090565b604051806060016040528061192b6119e1565b81526020016119386119e1565b8152600060209091015290565b5060006119528282611a0e565b5061196190601e016000611a0e565b565b6040805160c08101909152806000815260200160008152602001600081526020016000815260200160001515815260200160006001600160a01b031681525090565b6040518060c001604052806006906020820280368337509192915050565b6040518060e001604052806007906020820280368337509192915050565b60405180604001604052806002905b6119f8611a20565b8152602001906001900390816119f05790505090565b50611a1d90601e810190611a4d565b50565b6040518060c001604052806006905b611a37611963565b815260200190600190039081611a2f5790505090565b5b80821115611a8d57805460ff191681556000600182018190556002820181905560038201556004810180546001600160a81b0319169055600501611a4e565b5090565b80356001600160a01b038116811461184e57600080fd5b600082601f830112611ab8578081fd5b813567ffffffffffffffff811115611ace578182fd5b6020611add8182840201611fc6565b8281529250808301848201606080850287018401881015611afd57600080fd5b60005b85811015611b2457611b128984611b3f565b84529284019291810191600101611b00565b50505050505092915050565b80356006811061184e57600080fd5b600060608284031215611b50578081fd5b611b5a6060611fc6565b9050611b668383611b30565b8152602082013560208201526040820135604082015292915050565b600060208284031215611b93578081fd5b6117ed8383611a91565b60008060008060808587031215611bb2578283fd5b84356001600160a01b0381168114611bc8578384fd5b93506020850135611bd881611fed565b92506040850135611be881611fed565b9150606085013560068110611bfb578182fd5b939692955090935050565b600080600080600060a08688031215611c1d578081fd5b611c278787611a91565b94506020860135611c3781611fed565b93506040860135611c4781611fed565b9250611c568760608801611b30565b949793965091946080013592915050565b60008060008060808587031215611c7c578384fd5b8435611c8781611fed565b9350602085013567ffffffffffffffff80821115611ca3578485fd5b611caf88838901611aa8565b94506040870135915080821115611cc4578384fd5b50611cd187828801611aa8565b949793965093946060013593505050565b806000805b6002811015611d3957825185835b6006811015611d1f57611d09828451611d6f565b6020929092019160c09190910190600101611cf5565b505050610480949094019360209290920191600101611ce7565b5050505050565b611d4b828251611ce2565b6020810151611d5e610900840182611ce2565b506040015115156112009190910152565b805160068110611d7b57fe5b825260208181015190830152604080820151908301526060808201519083015260808082015115159083015260a0908101516001600160a01b0316910152565b6020808252825182820181905260009190848201906040850190845b81811015611dfc5783516001600160a01b031683529284019291840191600101611dd7565b50909695505050505050565b610180810181836000805b6002811015611e5957825184835b6006811015611e40578251825260209283019290910190600101611e21565b50505060c0939093019260209290920191600101611e13565b5050505092915050565b6101c08101818360005b6002811015611ecd578151805184526020808201518186015260408083015190860152606080830151908601526080808301519086015260a0808301519086015260c0918201519185019190915260e09093019290910190600101611e6d565b50505092915050565b6020808252825182820181905260009190848201906040850190845b81811015611dfc57611f05838551611d40565b928401926112209290920191600101611ef2565b60208082526010908201526f416d6f756e7420746f6f206c6172676560801b604082015260600190565b6020808252600c908201526b125d195b48195e1c1a5c995960a21b604082015260600190565b60208082526019908201527f4d6f6e65794d61726b6574426f6f6b206e6f7420666f756e6400000000000000604082015260600190565b611220810161184e8284611d40565b60c0810161184e8284611d6f565b90815260200190565b60405181810167ffffffffffffffff81118282101715611fe557600080fd5b604052919050565b60028110611a1d57600080fdfea2646970667358221220a51a1eec3d64ff160092ad9792768f042432ac52729b80700e14e2af69f791de64736f6c634300060c0033",
  "immutableReferences": {},
  "source": "// SPDX-License-Identifier: MIT\npragma solidity ^0.6.12;\npragma experimental ABIEncoderV2;\n\ncontract MoneyMarket {\n    event SetMoneyMarketBook(address indexed sender);\n    event DelMoneyMarketBook(address indexed sender);\n    event DelOneItem(address indexed sender);\n    event TakeOneItem(address indexed sender);\n\n    enum Ccy {ETH, FIL}\n    enum Term {_3m, _6m, _1y, _2y, _3y, _5y}\n    enum Side {LEND, BORROW}\n\n    uint256 constant NUMCCY = 2;\n    uint256 constant NUMTERM = 6;\n    uint256 constant NUMDF = 7; // numbef of discount factors\n    uint256 constant BP = 10000; // basis point\n\n    struct MoneyMarketBook {\n        MoneyMarketItem[NUMTERM][NUMCCY] lenders;\n        MoneyMarketItem[NUMTERM][NUMCCY] borrowers;\n        bool isValue;\n    }\n\n    struct MoneyMarketItem {\n        Term term;\n        uint256 amt;\n        uint256 rate; // bps\n        uint256 goodtil;\n        bool isAvailable;\n        address addr;\n    }\n\n    struct MoneyMarketInput {\n        Term term;\n        uint256 amt;\n        uint256 rate;\n    }\n\n    // For mark to market\n    struct DiscountFactor{\n        uint256 df3m;\n        uint256 df6m;\n        uint256 df1y;\n        uint256 df2y;\n        uint256 df3y;\n        uint256 df4y;\n        uint256 df5y;\n    }\n\n    // keeps all the records\n    // MoneyMarketBook [0] for ETH, [1] for FIL\n    mapping(address => MoneyMarketBook) private moneyMarketMap;\n    address[] private marketMakers;\n\n    function getMarketMakers() public view returns (address[] memory) {\n        return marketMakers;\n    }\n\n    // helper to convert input data to MoneyMarketItem\n    function inputToItem(MoneyMarketInput memory input, uint256 goodtil)\n        private\n        view\n        returns (MoneyMarketItem memory)\n    {\n        MoneyMarketItem memory item;\n        item.term = input.term;\n        item.amt = input.amt;\n        item.rate = input.rate;\n        item.goodtil = goodtil;\n        item.isAvailable = true;\n        item.addr = msg.sender;\n        return item;\n    }\n\n    // to be called by market makers for booking\n    function setMoneyMarketBook(\n        Ccy ccy,\n        MoneyMarketInput[] memory lenders,\n        MoneyMarketInput[] memory borrowers,\n        uint256 effectiveSec\n    ) public {\n        // TODO - check if collateral covers borrowers amt\n        MoneyMarketBook storage book = moneyMarketMap[msg.sender];\n        MoneyMarketItem[NUMTERM] storage lenderTerms = book.lenders[uint256(ccy)];\n        MoneyMarketItem[NUMTERM] storage borrowerTerms = book.borrowers[uint256(ccy)];\n        for (uint256 i = 0; i < lenders.length; i++) {\n            Term term = lenders[i].term;\n            MoneyMarketItem memory newItem = inputToItem(\n                lenders[i],\n                now + effectiveSec\n            );\n            lenderTerms[uint256(term)] = newItem;\n        }\n        for (uint256 i = 0; i < borrowers.length; i++) {\n            Term term = borrowers[i].term;\n            MoneyMarketItem memory newItem = inputToItem(\n                borrowers[i],\n                now + effectiveSec\n            );\n            borrowerTerms[uint256(term)] = newItem;\n        }\n        if (!moneyMarketMap[msg.sender].isValue) marketMakers.push(msg.sender);\n        book.isValue = true;\n        emit SetMoneyMarketBook(msg.sender);\n    }\n\n    function delMoneyMarketBook() public {\n        require(moneyMarketMap[msg.sender].isValue == true, 'MoneyMarketBook not found');\n        delete moneyMarketMap[msg.sender];\n        for (uint256 i = 0; i < marketMakers.length; i++) {\n            if (marketMakers[i] == msg.sender) delete marketMakers[i];\n        } // marketMakers.length no change\n        emit DelMoneyMarketBook(msg.sender);\n    }\n\n    // TODO - [internal] delete from loan contract. require(moneyMarketMap[marketMaker] == true)\n    function delOneItem(\n        address addr,\n        Side side,\n        Ccy ccy,\n        Term term\n    ) public {\n        require(moneyMarketMap[addr].isValue == true, 'MoneyMarketBook not found');\n        if (side == Side.LEND)\n            delete moneyMarketMap[addr].lenders[uint256(ccy)][uint256(term)];\n        else delete moneyMarketMap[addr].borrowers[uint256(ccy)][uint256(term)];\n        emit DelOneItem(addr);\n    }\n\n    function getOneItem(\n        address addr,\n        Side side,\n        Ccy ccy,\n        Term term\n    ) public view returns (MoneyMarketItem memory) {\n        if (side == Side.LEND)\n            return moneyMarketMap[addr].lenders[uint256(ccy)][uint256(term)];\n        else return moneyMarketMap[addr].borrowers[uint256(ccy)][uint256(term)];\n    }\n\n    // to be called from Loan\n    // take a deal, update amount, and return rates\n    function takeOneItem(\n        address addr,\n        Side side,\n        Ccy ccy,\n        Term term,\n        uint256 amt\n    ) public returns (uint rate) {\n        MoneyMarketBook memory book = moneyMarketMap[addr];\n        require(book.isValue == true, 'MoneyMarketBook not found');\n        MoneyMarketItem storage item;\n        if (side == Side.LEND)\n            item = moneyMarketMap[addr].lenders[uint256(ccy)][uint256(term)];\n        else item = moneyMarketMap[addr].borrowers[uint256(ccy)][uint256(term)];\n        if (item.goodtil < now) {\n            delOneItem(addr, side, ccy, term);\n            revert(\"Item expired\");\n        }\n        if (item.amt < amt) {\n            revert (\"Amount too large\");\n        } else {\n            item.amt -= amt; // update amount\n        }\n        emit TakeOneItem(msg.sender);\n        return item.rate;\n    }\n\n    function getOneBook(address addr) public view returns (MoneyMarketBook memory) {\n        return moneyMarketMap[addr];\n    }\n\n    function getAllBooks() public view returns (MoneyMarketBook[] memory) {\n        MoneyMarketBook[] memory allBooks = new MoneyMarketBook[](marketMakers.length);\n        for (uint256 i = 0; i < marketMakers.length; i++) {\n            allBooks[i] = moneyMarketMap[marketMakers[i]];\n        }\n        return allBooks;\n    }\n\n    // priority on lower lend rate, higher borrow rate, larger amt\n    function betterItem(\n        MoneyMarketItem memory a,\n        MoneyMarketItem memory b,\n        Side side\n    ) private pure returns (MoneyMarketItem memory) {\n        if (!a.isAvailable) return b;\n        if (!b.isAvailable) return a;\n        if (a.rate == b.rate) return a.amt > b.amt ? a : b;\n        if (side == Side.LEND) return a.rate < b.rate ? a : b;\n        return a.rate > b.rate ? a : b; // Side.BORROW\n    }\n\n    function getBestBook() public view returns (MoneyMarketBook memory) {\n        MoneyMarketBook memory book;\n        for (uint256 i = 0; i < NUMCCY; i++) {\n            for (uint256 j = 0; j < NUMTERM; j++) {\n                for (uint256 k = 0; k < marketMakers.length; k++) {\n                    book.lenders[i][j] = betterItem(\n                        book.lenders[i][j],\n                        moneyMarketMap[marketMakers[k]].lenders[i][j],\n                        Side.LEND\n                    );\n                    book.borrowers[i][j] = betterItem(\n                        book.borrowers[i][j],\n                        moneyMarketMap[marketMakers[k]].borrowers[i][j],\n                        Side.LEND\n                    );\n                }\n            }\n        }\n        return book;\n    }\n\n    function getLenderRates()\n        public\n        view\n        returns (uint256[NUMTERM][NUMCCY] memory)\n    {\n        MoneyMarketBook memory bestBook = getBestBook();\n        uint256[NUMTERM][NUMCCY] memory rates;\n        for (uint256 i = 0; i < NUMCCY; i++) {\n            for (uint256 j = 0; j < NUMTERM; j++) {\n                rates[i][j] = bestBook.lenders[i][j].rate;\n            }\n        }\n        return rates;\n    }\n\n    function getBorrowerRates()\n        public\n        view\n        returns (uint256[NUMTERM][NUMCCY] memory)\n    {\n        MoneyMarketBook memory bestBook = getBestBook();\n        uint256[NUMTERM][NUMCCY] memory rates;\n        for (uint256 i = 0; i < NUMCCY; i++) {\n            for (uint256 j = 0; j < NUMTERM; j++) {\n                rates[i][j] = bestBook.borrowers[i][j].rate;\n            }\n        }\n        return rates;\n    }\n\n    // to be called by Loan or Collateral for valuation\n    function getMidRates()\n        public\n        view\n        returns (uint256[NUMTERM][NUMCCY] memory)\n    {\n        MoneyMarketBook memory bestBook = getBestBook();\n        uint256[NUMTERM][NUMCCY] memory rates;\n        for (uint256 i = 0; i < NUMCCY; i++) {\n            for (uint256 j = 0; j < NUMTERM; j++) {\n                rates[i][j] =\n                    (bestBook.lenders[i][j].rate +\n                        bestBook.borrowers[i][j].rate) /\n                    2;\n            }\n        }\n        return rates;\n    }\n\n    // helper to generate DF\n    function genDF(uint256[NUMDF] memory rates) private pure returns (DiscountFactor memory) {\n        DiscountFactor memory df;\n        // bootstrap in BasisPoint scale\n        df.df3m = BP * BP / (BP + rates[0] * 90 / 360);\n        df.df6m = BP * BP / (BP + rates[1] * 180 / 360);\n        df.df1y = BP * BP / (BP + rates[2]);\n        df.df2y = BP * (BP - rates[3] * df.df1y / BP) / (BP + rates[3]);\n        df.df3y = BP * (BP - rates[4] * (df.df1y + df.df2y) / BP ) / (BP + rates[4]);\n        df.df4y = BP * (BP - rates[5] * (df.df1y + df.df2y + df.df3y) / BP ) / (BP + rates[5]);\n        df.df5y = BP * (BP - rates[6] * (df.df1y + df.df2y + df.df3y + df.df4y) / BP ) / (BP + rates[6]);\n        return df;\n    }\n\n    function getDiscountFactors() public view returns (DiscountFactor[NUMCCY] memory) {\n        uint256[NUMTERM][NUMCCY] memory mkt = getMidRates();\n        uint256[NUMDF][NUMCCY] memory rates = [\n            [mkt[0][0], mkt[0][1], mkt[0][2], mkt[0][3], mkt[0][4], (mkt[0][4] + mkt[0][5])/2, mkt[0][5]],\n            [mkt[1][0], mkt[1][1], mkt[1][2], mkt[1][3], mkt[1][4], (mkt[1][4] + mkt[1][5])/2, mkt[1][5]]\n        ];\n        DiscountFactor memory dfETH = genDF(rates[0]);\n        DiscountFactor memory dfFIL = genDF(rates[1]);\n        return [dfETH, dfFIL];\n    }\n}\n\ncontract FXMarket {\n    event SetFXBook(address indexed sender);\n    event DelFXBook(address indexed sender);\n    event DelOneItem(address indexed sender);\n\n    enum Ccy {ETH, FIL}\n    enum CcyPair {FILETH}\n    enum Side {BID, OFFER}\n\n    uint256 constant NUMCCY = 2;\n    uint256 constant NUMPAIR = 1;\n    uint256[NUMPAIR] FXMULT = [1000];\n\n    struct FXBook {\n        FXItem[NUMPAIR] bids;\n        FXItem[NUMPAIR] offers;\n        bool isValue;\n    }\n\n    struct FXItem {\n        CcyPair pair;\n        Ccy ccyBuy;\n        Ccy ccySell;\n        uint256 amtBuy;\n        uint256 amtSell;\n        uint256 rate;\n        uint256 goodtil;\n        bool isAvailable;\n        address addr;\n    }\n\n    struct FXInput {\n        Ccy ccyBuy;\n        Ccy ccySell;\n        uint256 amtBuy;\n        uint256 amtSell;\n    }\n\n    // keeps all the records\n    // FXBook [0] for FILETH\n    mapping(address => FXBook) private fxMap;\n    address[] private marketMakers;\n\n    // to be called by Loan or Collateral for valuation\n    function getMarketMakers() public view returns (address[] memory) {\n        return marketMakers;\n    }\n\n    // helper to convert input to FXItem\n    function inputToItem(\n        CcyPair pair,\n        FXInput memory input,\n        uint256 goodtil\n    ) private view returns (FXItem memory) {\n        FXItem memory item;\n        item.pair = pair;\n        item.ccyBuy = input.ccyBuy;\n        item.ccySell = input.ccySell;\n        item.amtBuy = input.amtBuy;\n        item.amtSell = input.amtSell;\n        uint fxRate;\n        if (input.ccySell == Ccy.FIL) // ETH buy FIL sell\n            fxRate = (FXMULT[uint256(pair)] * input.amtBuy) / input.amtSell;\n        else // ETH sell FIL buy\n            fxRate = (FXMULT[uint256(pair)] * input.amtSell) / input.amtBuy;\n        item.rate = fxRate;\n        item.goodtil = goodtil;\n        item.isAvailable = true;\n        item.addr = msg.sender;\n        return item;\n    }\n\n    // to be called by market makers for booking\n    function setFXBook(\n        CcyPair pair,\n        FXInput memory offerInput,\n        FXInput memory bidInput,\n        uint256 effectiveSec\n    ) public {\n        // TODO - check if collateral covers borrowers amts\n        // TODO - emit event for notice\n        FXBook storage book = fxMap[msg.sender];\n        FXItem memory newOffer = inputToItem(\n            pair,\n            offerInput,\n            now + effectiveSec\n        );\n        book.offers[uint256(pair)] = newOffer;\n        FXItem memory newBid = inputToItem(pair, bidInput, now + effectiveSec);\n        book.bids[uint256(pair)] = newBid;\n        if (!fxMap[msg.sender].isValue) marketMakers.push(msg.sender);\n        book.isValue = true;\n        emit SetFXBook(msg.sender);\n    }\n\n    function delFXBook() public {\n        require(fxMap[msg.sender].isValue == true, 'fxBook not found');\n        delete fxMap[msg.sender];\n        for (uint256 i = 0; i < marketMakers.length; i++) {\n            if (marketMakers[i] == msg.sender) delete marketMakers[i];\n        } // marketMakers.length no change\n        emit DelFXBook(msg.sender);\n    }\n\n    function delOneItem(\n        address addr,\n        Side side,\n        CcyPair pair\n    ) public {\n        require(fxMap[addr].isValue == true, 'fxBook not found');\n        if (side == Side.BID) delete fxMap[addr].bids[uint256(pair)];\n        else delete fxMap[addr].offers[uint256(pair)];\n        emit DelOneItem(addr);\n    }\n\n    function getOneItem(\n        address addr,\n        Side side,\n        CcyPair pair\n    ) public view returns (FXItem memory) {\n        if (side == Side.BID) return fxMap[addr].bids[uint256(pair)];\n        else return fxMap[addr].offers[uint256(pair)];\n    }\n\n    function getOneBook(address addr) public view returns (FXBook memory) {\n        return fxMap[addr];\n    }\n\n    function getAllBooks() public view returns (FXBook[] memory) {\n        FXBook[] memory allBooks = new FXBook[](marketMakers.length);\n        for (uint256 i = 0; i < marketMakers.length; i++) {\n            allBooks[i] = fxMap[marketMakers[i]];\n        }\n        return allBooks;\n    }\n\n    // priority on lower offer rate, higher bid rate, larger amt\n    function betterItem(\n        FXItem memory a,\n        FXItem memory b,\n        Side side\n    ) private pure returns (FXItem memory) {\n        if (!a.isAvailable) return b;\n        if (!b.isAvailable) return a;\n        if (a.rate == b.rate) return a.amtBuy > b.amtBuy ? a : b;\n        if (side == Side.OFFER) return a.rate < b.rate ? a : b;\n        return a.rate > b.rate ? a : b; // Side.BID\n    }\n\n    function getBestBook() public view returns (FXBook memory) {\n        FXBook memory book;\n        for (uint256 i = 0; i < NUMPAIR; i++) {\n            for (uint256 k = 0; k < marketMakers.length; k++) {\n                book.bids[i] = betterItem(\n                    book.bids[i],\n                    fxMap[marketMakers[k]].bids[i],\n                    Side.BID\n                );\n                book.offers[i] = betterItem(\n                    book.offers[i],\n                    fxMap[marketMakers[k]].offers[i],\n                    Side.OFFER\n                );\n            }\n        }\n        return book;\n    }\n\n    function getOfferRates() public view returns (uint256[NUMPAIR] memory) {\n        FXBook memory bestBook = getBestBook();\n        uint256[NUMPAIR] memory rates;\n        for (uint256 i = 0; i < NUMPAIR; i++) {\n            rates[i] = bestBook.offers[i].rate;\n        }\n        return rates;\n    }\n\n    function getBidRates() public view returns (uint256[NUMPAIR] memory) {\n        FXBook memory bestBook = getBestBook();\n        uint256[NUMPAIR] memory rates;\n        for (uint256 i = 0; i < NUMPAIR; i++) {\n            rates[i] = bestBook.bids[i].rate;\n        }\n        return rates;\n    }\n\n\n    function getMidRates() public view returns (uint256[NUMPAIR] memory) {\n        FXBook memory bestBook = getBestBook();\n        uint256[NUMPAIR] memory rates;\n        for (uint256 i = 0; i < NUMPAIR; i++) {\n            rates[i] = (bestBook.offers[i].rate + bestBook.bids[i].rate) / 2;\n        }\n        return rates;\n    }\n}\n",
  "sourcePath": "/Users/user/tmp/secured-finance/smart-contracts/contracts/Market.sol",
  "compiler": {
    "name": "solc",
    "version": "0.6.12+commit.27d51765.Emscripten.clang"
  },
  "schemaVersion": "3.2.4",
  "updatedAt": "2020-10-19T19:27:04.239Z",
  "networkType": "ethereum",
  "devdoc": {
    "kind": "dev",
    "methods": {},
    "version": 1
  },
  "userdoc": {
    "kind": "user",
    "methods": {},
    "version": 1
  }
}